1PH1A     IKFCBL10                                                                                              PAGE  165
-  LOC  OBJECT CODE    ADDR1 ADDR2  STMT   SOURCE STATEMENT                                       ASM 0201 11.03 02/14/15
0                                   7958 *                                                                       54201021
 006562                             7959 CTLQL  DS    0H                                                         54208021
 006562 45E0 B9FC      02914        7960        BAL   JP,QRTN1                   PUT NAME IN TABLE               54215021
 006566 47F0 9510      063B0        7961        BC    UNCOND,PRCT2          PRCT2                                54222021
                                    7962 *                                                                       54229021
 00656A D200 CC03 C6C2 01B93 01652  7963 MVDUP    MVC   ORGCT(LX0),CURCNT                                        54236021
 006570 D200 9B2D C6C2 069CD 01652  7964 MVRN     MVC   RDNMCT(LX0),CURCNT                                       54243021
                                    7965 *      PROCESS PAGE CLAUSE                                              54250021
                             06576  7966 DOPAGE EQU   *                                                          54257021
 006576 9554 C79A      0172A        7967          CLI   NXTCOD,XX54               NXT WD COBOL WD                54264021
 00657A 4770 96EE      0658E        7968        BC    NOTEQ,NOPLIM               NO                              54271021
 00657E 955F C79B      0172B        7969          CLI   NXTN,XX5F                 LIMIT/S                        54278021
 006582 4770 96EE      0658E        7970        BC    NOTEQ,NOPLIM               NO                              54285021
 006586 45E0 B000      01F18        7971        BAL   JP,GETWD                   YES SKIP WORD                   54292021
 00658A 45E0 B18E      020A6        7972        BAL   JP,CHKIS                   SKIP 'IS' IF WRITTEN            54299021
 00658E 9120 D362      00392        7973 NOPLIM   TM    PGESW,XX20                PAGE CLAUSE ALRDY DONE         54306021
 006592 4710 8BEE      0779E        7974        BC    ONES,DUPER                YES..DUP ERROR                   54313021
                                    7975 *                                                                       54320021
 006596 45E0 B000      01F18        7976 PRPG1  BAL   JP,GETWD              GET WORD                             54327021
 00659A D501 C6E4 C58D 01674 0151D  7977          CLC   CURCOD(LX2),EOSCON          PERIOD                       54334021
 0065A0 4780 99BA      0685A        7978        BC    EQ,EORDAA                 YES...FINISH PAGE-CLAUSE         54341021
 0065A4 9620 D362      00392        7979          OI    PGESW,XX20                SET ON PAGE DONE               54348021
 0065A8 9532 C6E4      01674        7980          CLI   CURCOD,XX32               NUMERIC LITERAL                54355021
 0065AC 4770 971C      065BC        7981        BC    NOTEQ,PRPG2                NO CHECK OTHER CLAUSES          54362021
 0065B0 9595 C79B      0172B        7982          CLI   NXTN,XX95                 YES -- FOLLOWED BY 'LINES'     54369021
 0065B4 4780 9792      06632        7983        BC    EQ,PRLNE                   GO MAX LINES ROUTINE            54376021
 0065B8 47F0 8CCA      0787A        7984        BC    UNCOND,PGER1               INT FOLLD BY OTHER THAN LIN     54383021
 0065BC                             7985 PRPG2  DS    0H                                                         54390021
 0065BC 9554 C6E4      01674        7986          CLI   CURCOD,XX54               COBOL WORD                     54397021
 0065C0 4770 8CCA      0787A        7987        BC    NOTEQ,PGER1                NO--ERROR                       54404021
 0065C4 95E9 C6E5      01675        7988          CLI   CURN,XXE9                 HEADING                        54411021
 0065C8 4780 97CA      0666A        7989        BC    EQ,PRHDG                   YES                             54418021
 0065CC 95EC C6E5      01675        7990          CLI   CURN,XXEC                 FOOTING                        54425021
 0065D0 4780 97F4      06694        7991        BC    EQ,PRFOT                   YES                             54432021
 0065D4 95EA C79B      0172B        7992          CLI   NXTN,XXEA                 NEXT = DETAIL                  54439021
 0065D8 4780 9744      065E4        7993        BC    EQ,PRPG3                   YES                             54446021
 0065DC 45E0 987A      0671A        7994        BAL   JP,ENDPGE                  NOT PGE SENTENCE                54453021
 0065E0 47F0 975C      065FC        7995        BC    UNCOND,PGER1C         PGER1C                               54460021
 0065E4 9596 C6E5      01675        7996 PRPG3    CLI   CURN,XX96                 FIRST                          54467021
 0065E8 4780 981E      066BE        7997        BC    EQ,PRFDE                   YES -- FIRST DETAIL             54474021
 0065EC 95EB C6E5      01675        7998          CLI   CURN,XXEB                 LAST                           54481021
 0065F0 4780 984C      066EC        7999        BC    EQ,PRLDE                   YES -- LAST DETAIL              54488021
 0065F4 47F0 8CCA      0787A        8000        BC    UNCOND,PGER1               NOT PAGE SENTENCE               54495021
                                    8001 *PGER1A -- PAGE ERROR RECOVERY                                          54502021
 0065F8                             8002 PGER1A DS    0H                                                         54509021
 0065F8 45E0 987A      0671A        8003        BAL   JP,ENDPGE             ENDPGE                               54516021
 0065FC D501 C6E4 C58D 01674 0151D  8004 PGER1C   CLC   CURCOD(LX2),EOSCON        PERIOD                         54523021
 006602 4780 99BE      0685E        8005        BC    EQ,EORDA                   YES                             54530021
 006606 9554 C6E4      01674        8006          CLI   CURCOD,XX54               COBOL WORD                     54537021
 00660A 4780 9776      06616        8007        BC    EQ,PGER1B             PGER1B                               54544021
 00660E                             8008 PGER1D DS    0H                                                         54551021
 00660E 45E0 B000      01F18        8009        BAL   JP,GETWD              GET WORD                             54558021
 006612 47F0 975C      065FC        8010        BC    UNCOND,PGER1C              LOOK UNTIL PGE CODE CTL         54565021
 006616 95E5 C6E5      01675        8011 PGER1B   CLI   CURN,XXE5                 CODE                           54572021
 00661A 4780 939E      0623E        8012        BC    EQ,DOCODE                  YES                             54579021
1PH1A     IKFCBL10                                                                                              PAGE  166
-  LOC  OBJECT CODE    ADDR1 ADDR2  STMT   SOURCE STATEMENT                                       ASM 0201 11.03 02/14/15
000661E 95D0 C6E5      01675        8013          CLI   CURN,XXD0                 CONTROL                        54586021
 006622 4780 93E2      06282        8014        BC    EQ,DOCTL                   YES                             54593021
 006626 95E6 C6E5      01675        8015          CLI   CURN,XXE6                 PAGE                           54600021
 00662A 4770 976E      0660E        8016        BNE   PGER1D                    NO...LOOK AGAIN                  54607021
 00662E 47F0 933C      061DC        8017        BC    UNCOND,RDPERD         RDPERD                               54614021
                                    8018 *                                                                       54621021
                                    8019 *PROCESS LINE CLAUSE                                                    54628021
                             06632  8020 PRLNE  EQU   *                                                          54635021
 006632 9102 D365      00395        8021          TM    INTPSW,XX02               MAX LINES PROCESSED            54642021
 006636 4710 8CBA      0786A        8022        BO    LNER1                     YES..ERROR                       54649021
 00663A D213 CA71 C6E4 01A01 01674  8023 PRLNE1   MVC   PRAMP(LX20),CURCOD        SAVE MAX LINES                 54656021
 006640 45E0 B528      02440        8024        BAL   JP,CNVBIN                 CONVERT TO BINARY                54663021
 006644 4920 CDC8      01D58        8025        CH    JB,K9999                  INT-1 > 9999?                    54670021
 006648 4720 97BC      0665C        8026        BH    PRLNER                    NO                               54677021
 00664C 4020 CAF6      01A86        8027        STH   JB,INT1BN                 SAVE INTEGER 1 IN BIN            54684021
 006650                             8028 PRLNE2 DS    0H                        X                                54691021
 006650 9602 D365      00395        8029          OI    INTPSW,XX02               SET ON MAX LINES PROCESSED     54698021
 006654 45E0 B000      01F18        8030        BAL   JP,GETWD                   SKIP OVER LINES                 54705021
 006658 47F0 96F6      06596        8031        BC    UNCOND,PRPG1          PRPG1 - CHECK EOS                    54712021
 00665C                             8032 PRLNER DS    0H                        INT-1 > 9999                     54719021
 00665C D201 CAF6 CDC8 01A86 01D58  8033        MVC   INT1BN,K9999                                               54726021
 006662 45E0 DCC8      00CF8        8034        BAL   JP,MSG159                 MSG FOR HIGH-VALUE INT-1         54733021
 006666 47F0 97B0      06650        8035        B     PRLNE2                    CONTINUE                         54740021
                             0666A  8036 PRHDG  EQU   *                                                          54747021
 00666A 9101 D366      00396        8037          TM    INTHSW,XX01               1ST HEADING PROCESSED          54754021
 00666E 4710 8CBA      0786A        8038        BO    HDGER1                    YES..ERROR                       54761021
 006672 45E0 B000      01F18        8039 PRHDG1 BAL   JP,GETWD              GET WORD                             54768021
 006676 9532 C6E4      01674        8040          CLI   CURCOD,XX32               NUMERIC LITERAL                54775021
 00667A 4770 8CC2      07872        8041        BC    NOTEQ,HDGER2               NO -- ERROR                     54782021
 00667E D213 CA85 C6E4 01A15 01674  8042          MVC   PRAMH(LX20),CURCOD        SAVE 1ST HDG                   54789021
 006684 45E0 B528      02440        8043        BAL   JP,CNVBIN                 CONVERT TO BINARY                54796021
 006688 4020 CAF8      01A88        8044        STH   JB,INT2BN                 SAVE INT2 IN BIN                 54803021
 00668C 9601 D366      00396        8045          OI    INTHSW,XX01               SET ON 1ST HDG PROCESSED       54810021
 006690 47F0 96F6      06596        8046        BC    UNCOND,PRPG1          PRPG1 - CHECK EOS                    54817021
                             06694  8047 PRFOT  EQU   *                                                          54824021
 006694 9180 D366      00396        8048          TM    INTFSW,XX80               LAST FOOTING PROCESSED         54831021
 006698 4710 8CBA      0786A        8049        BO    FOTER1                    YES..ERROR                       54838021
 00669C 45E0 B000      01F18        8050 PRFOT1 BAL   JP,GETWD              GETWORD                              54845021
 0066A0 9532 C6E4      01674        8051          CLI   CURCOD,XX32               NUMERIC LITERAL                54852021
 0066A4 4770 8CC2      07872        8052        BC    NOTEQ,FOTER2               NO -- ERROR                     54859021
 0066A8 D213 CAC1 C6E4 01A51 01674  8053          MVC   PRAMF(LX20),CURCOD        SAVE LST FTNG                  54866021
 0066AE 45E0 B528      02440        8054        BAL   JP,CNVBIN                 CONVERT TO BINARY                54873021
 0066B2 4020 CAFE      01A8E        8055        STH   JB,INT5BN                 SAVE INT5 IN BIN                 54880021
 0066B6 9680 D366      00396        8056          OI    INTFSW,XX80               SET ON LAST FOOTING PROCESS    54887021
 0066BA 47F0 96F6      06596        8057        BC    UNCOND,PRPG1          PRPG1 - CHECK EOS                    54894021
                             066BE  8058 PRFDE  EQU   *                                                          54901021
 0066BE 9140 D366      00396        8059          TM    INTDSW,XX40               1ST DETAIL PROCESSED           54908021
 0066C2 4710 8CBA      0786A        8060        BO    FDEER1                    YES..ERROR                       54915021
 0066C6 45E0 B000      01F18        8061 PRFDE1 BAL   JP,GETWD              GETWORD                              54922021
 0066CA 45E0 B000      01F18        8062        BAL   JP,GETWD              GET WORD                             54929021
 0066CE 9532 C6E4      01674        8063          CLI   CURCOD,XX32               NUMERIC LITERAL                54936021
 0066D2 4770 8CC2      07872        8064        BC    NOTEQ,FDEER2               NO -- ERROR                     54943021
 0066D6 D213 CA99 C6E4 01A29 01674  8065          MVC   PRAMD(LX20),CURCOD        SAVE 1ST DET                   54950021
 0066DC 45E0 B528      02440        8066        BAL   JP,CNVBIN                 CONVERT TO BINARY                54957021
 0066E0 4020 CAFA      01A8A        8067        STH   JB,INT3BN                 SAVE INT3 IN BIN                 54964021
1PH1A     IKFCBL10                                                                                              PAGE  167
-  LOC  OBJECT CODE    ADDR1 ADDR2  STMT   SOURCE STATEMENT                                       ASM 0201 11.03 02/14/15
00066E4 9640 D366      00396        8068          OI    INTDSW,XX40               SET ON 1ST DETAIL PROCESSED    54971021
 0066E8 47F0 96F6      06596        8069        BC    UNCOND,PRPG1          PRPG1 - CHECK EOS                    54978021
                             066EC  8070 PRLDE  EQU   *                                                          54985021
 0066EC 9120 D366      00396        8071          TM    INTESW,XX20               LAST DETAIL PROCESSED          54992021
 0066F0 4710 8CBA      0786A        8072        BO    LDEER1                    YES..ERROR                       54999021
 0066F4 45E0 B000      01F18        8073 PRLDE1 BAL   JP,GETWD              GET WORD                             55006021
 0066F8 45E0 B000      01F18        8074        BAL   JP,GETWD              GET WORD                             55013021
 0066FC 9532 C6E4      01674        8075          CLI   CURCOD,XX32               NUMERIC LITERAL                55020021
 006700 4770 8CC2      07872        8076        BC    NOTEQ,LDEER2               NO -- ERROR                     55027021
 006704 D213 CAAD C6E4 01A3D 01674  8077          MVC   PRAME(LX20),CURCOD        SAVE LST DET                   55034021
 00670A 45E0 B528      02440        8078        BAL   JP,CNVBIN                 CONVERT TO BINARY                55041021
 00670E 4020 CAFC      01A8C        8079        STH   JB,INT4BN                 SAVE INT4 IN BIN                 55048021
 006712 9620 D366      00396        8080          OI    INTESW,XX20               SET ON LAST DETAIL PROCESSE    55055021
 006716 47F0 96F6      06596        8081        BC    UNCOND,PRPG1          PRPG1 - CHECK EOS                    55062021
                                    8082 *                                                                       55069021
                                    8083 *ENDPGE -- ENTERED AT END OF PAGE CLAUSE                                55076021
 00671A 50E0 B6EC      02604        8084 ENDPGE ST    JP,GENSV                                                   55083021
 00671E 9102 D365      00395        8085          TM    INTPSW,XX02              INT-1 SPECIFIED                 55090021
 006722 4710 9896      06736        8086        BC    ONES,ENDPG1               YES...CHECK FOR INT-2 THRU 5     55097021
 006726 D207 CA71 CAE9 01A01 01A79  8087        MVC   PRAMP(LX8),PRAMPS         ASSUME HIGH-VALUE                55104021
 00672C D201 CAF6 CDC8 01A86 01D58  8088        MVC   INT1BN,K9999              GET MAX LINES IN BINARY          55111021
 006732 45E0 DCC8      00CF8        8089        BAL   JP,MSG159                 MSG FOR HIGH-VALUE FOR INT-1     55118021
 006736                             8090 ENDPG1 DS    0H                                                         55125021
 006736 D203 9B0D A1AB 069AD 02D9B  8091        MVC   PGCTR,LNCON               MASK PAGE WITH LINE              55132021
 00673C 92C0 9B25      069C5        8092          MVI   PGCTVL,XXC0              VALUE 0                         55139021
 006740 4120 9B00      069A0        8093        LA    JB,PGCTRT                 GO GEN LC                        55146021
 006744 45E0 99D0      06870        8094        BAL   JP,PUTF3B             PUTF3B                               55153021
 006748 D203 9B0D A1DC 069AD 02DCC  8095        MVC   PGCTR,PGCON               RESET TO PAGE                    55160021
 00674E 92C1 9B25      069C5        8096          MVI   PGCTVL,XXC1              RESET TO VALUE 0001             55167021
 006752 4120 9B00      069A0        8097        LA    JB,PGCTRT                 GO GEN                           55174021
 006756 45E0 99D0      06870        8098        BAL   JP,PUTF3B                     PAGE-COUNTER                 55181021
 00675A 91E1 D366      00396        8099          TM    INTFSW,XXE1    ANY OF INT-2 THRU INT-5 SPECIFIED         55188021
 00675E 4710 9926      067C6        8100        BC    ONES,NPGXIT               YES...ALL...EXIT                 55195021
 006762 9101 D366      00396        8101          TM    INTHSW,XX01              HEADING SPECIFIED               55202021
 006766 4710 98D6      06776        8102        BC    ONES,ENDPG3               YES                              55209021
 00676A D207 CA85 CAF1 01A15 01A81  8103        MVC   PRAMH(LX8),PRAMHS         NO...DEFAULT OF 1                55216021
 006770 D201 CAF8 C14E 01A88 010DE  8104        MVC   INT2BN,HWONE              GET 1 IN BINARY                  55223021
 006776                             8105 ENDPG3 DS    0H                                                         55230021
 006776 9140 D366      00396        8106          TM    INTDSW,XX40              1ST DETAIL SPECIFIED            55237021
 00677A 4710 98EA      0678A        8107        BC    ONES,ENDPG4               YES                              55244021
 00677E D207 CA99 CA85 01A29 01A15  8108        MVC   PRAMD(LX8),PRAMH          NO...MOVE INT-2 TO INT-3         55251021
 006784 D201 CAFA CAF8 01A8A 01A88  8109        MVC   INT3BN,INT2BN             MOVE INT2 IN BINARY TO INT3      55258021
 00678A                             8110 ENDPG4 DS    0H                                                         55265021
 00678A 91A0 D366      00396        8111          TM    INTESW,XXA0              INT-4 + INT-5 SPECIFIED         55272021
 00678E 4710 9926      067C6        8112        BC    ONES,NPGXIT               YES...BOTH...EXIT                55279021
 006792 4780 990E      067AE        8113        BC    ZERO,ENDPG5               NONE..MOVE INT-1 TO INT-4, 5     55286021
                                    8114 *    EITHER INT-4 OR INT-5 SPECIFIED                                    55293021
 006796 9120 D366      00396        8115          TM    INTESW,XX20              INT-4 SPECIFIED                 55300021
 00679A 4780 991A      067BA        8116        BC    ZERO,ENDPG6               NO...MOVE INT-5 TO INT-4         55307021
 00679E D207 CAC1 CAAD 01A51 01A3D  8117        MVC   PRAMF(LX8),PRAME          YES...MOVE INT-4 TO INT-5        55314021
 0067A4 D201 CAFE CAFC 01A8E 01A8C  8118        MVC   INT5BN,INT4BN             MOVE INT4 IN BINARY TO INT5      55321021
 0067AA 47F0 9926      067C6        8119        BC    UNCOND,NPGXIT             GO EXIT                          55328021
 0067AE                             8120 ENDPG5 DS    0H                                                         55335021
 0067AE D207 CAC1 CA71 01A51 01A01  8121        MVC   PRAMF(LX8),PRAMP          MOVE INT-1 TO INT-5              55342021
 0067B4 D201 CAFE CAF6 01A8E 01A86  8122        MVC   INT5BN,INT1BN             MOVE INT1 IN BINARY TO INT5      55349021
1PH1A     IKFCBL10                                                                                              PAGE  168
-  LOC  OBJECT CODE    ADDR1 ADDR2  STMT   SOURCE STATEMENT                                       ASM 0201 11.03 02/14/15
00067BA                             8123 ENDPG6 DS    0H                                                         55356021
 0067BA D207 CAAD CAC1 01A3D 01A51  8124        MVC   PRAME(LX8),PRAMF          MOVE INT-5 TO INT-4              55363021
 0067C0 D201 CAFC CAFE 01A8C 01A8E  8125        MVC   INT4BN,INT5BN             MOVE INT5 IN BINARY TO INT4      55370021
 0067C6                             8126 NPGXIT DS    0H                                                         55377021
 0067C6 4810 CAF8      01A88        8127        LH    JA,INT2BN                 GET INT2                         55384021
 0067CA 4910 CAFA      01A8A        8128        CH    JA,INT3BN                 INT2 TO INT3                     55391021
 0067CE 4720 9984      06824        8129        BC    HI,PGCLER                 INT2 GT INT3...ERROR             55398021
 0067D2 4770 993A      067DA        8130        BNE   NPGX10                    NOT EQ...PH OK                   55405021
 0067D6 9680 D362      00392        8131          OI    NOPGHD,XX80              EQ...PH NOT ALLOWED             55412021
 0067DA                             8132 NPGX10 DS    0H                                                         55419021
 0067DA 4810 CAFA      01A8A        8133        LH    JA,INT3BN                 GET INT3                         55426021
 0067DE 4910 CAFC      01A8C        8134        CH    JA,INT4BN                 INT3 TO INT4                     55433021
 0067E2 4720 9984      06824        8135        BH    PGCLER                    INT3 GT INT4...ERROR             55440021
 0067E6 4810 CAFC      01A8C        8136        LH    JA,INT4BN                 GET INT4                         55447021
 0067EA 4910 CAFE      01A8E        8137        CH    JA,INT5BN                 INT4 TO INT5                     55454021
 0067EE 4720 9984      06824        8138        BC    HI,PGCLER                 INT4 GT INT5...ERROR             55461021
 0067F2 4810 CAFE      01A8E        8139        LH    JA,INT5BN                 GET INT5                         55468021
 0067F6 4910 CAF6      01A86        8140        CH    JA,INT1BN                 INT5 TO INT1                     55475021
 0067FA 4720 9984      06824        8141        BH    PGCLER                    INT5 GT INT1...ERROR             55482021
 0067FE 4740 9966      06806        8142        BL    NPGXT1                    INT5 LT INT1...PF ALLOWED        55489021
 006802 9640 D362      00392        8143          OI    NOPGFT,XX40              EQ...PF NOT ALLOWED             55496021
 006806                             8144 NPGXT1 DS    0H                                                         55503021
                                    8145 * SUBTRACT ONE FROM INT3 AND SAVE IN PRMDM1 FOR GENSUB ROUT             55510021
 006806 D213 CAD5 CA99 01A65 01A29  8146          MVC   PRMDM1(LX20),PRAMD       MOVE INT3 TO PRMDM1             55517021
 00680C 1B11                        8147        SR    JA,JA                     ZERO JA                          55524021
 00680E 4310 CAD6      01A66        8148          IC    JA,PRMDM1+NX1            GET CURN FOR INTEGER            55531021
 006812 0610                        8149        BCTR  JA,JR                     SUBTRACT 1 FOR NUM OF DIGITS     55538021
 006814 0610                        8150        BCTR  JA,JR                     SUBTRACT 1 FOR EXECUTE           55545021
 006816 8910 0004      00004        8151          SLL   JA,DX4                   ADJUST FOR EXECUTE INSTR        55552021
 00681A 4410 998C      0682C        8152        EX    JA,SUBPAK                 EXEC SUBTRACT PACKED             55559021
 00681E                             8153 NPGXT2 DS    0H                                                         55566021
 00681E 58E0 B6EC      02604        8154        L     JP,GENSV                  RETURN                           55573021
 006822 07FE                        8155        BCR   UNCOND,JP                  EXIT                            55580021
                                    8156 *                                                                       55587021
 006824                             8157 PGCLER DS    0H                                                         55594021
 006824 45E0 DCF8      00D28        8158        BAL   JP,MSG171                 DIAGNOSE                         55601021
 006828 47F0 9966      06806        8159        BC    UNCOND,NPGXT1             GO EXIT                          55608021
                                    8160 * INSTRUCTION IS EXECUTED                                               55615021
 00682C FB00 CAD8 D9D8 01A68 00A08  8161 SUBPAK   SP    PRMDM1+NX3(LX0),WORKR1+NX1(LX1) SUBTRACT 1 FROM INTEGER  55622021
                                    8162 *                                                                       55629021
                                    8163 *RCKLV --ASSUME END OF SENTENCE. TRY TO RECOVER AT NEW LEVEL            55636021
                             06832  8164 RCKLV  EQU   *                                                          55643021
                             06832  8165 RCKLV1 EQU   *                                                          55650021
                             06832  8166 RCKLV2 EQU   *                                                          55657021
                             06832  8167 RC0V2  EQU   *                          RECOVER AT NEW LEVEL NUMBER     55664021
 006832 45E0 ACDE      038CE        8168 RCKLV4 BAL   JP,SKIPGT             SKIPGT                               55671021
 006836 9543 C6E4      01674        8169          CLI   CURCOD,XX43               LEVEL NO                       55678021
 00683A 4770 9992      06832        8170        BC    NOTEQ,RCKLV4               GET AGAIN                       55685021
 00683E 9534 C6E5      01675        8171          CLI   CURN,XX34                                                55692021
 006842 4780 912A      05FCA        8172        BC    EQ,RDSCN                   GO TO RD                        55699021
 006846 9501 C6E5      01675        8173          CLI   CURN,XX01                                                55706021
 00684A 4780 9D04      06BA4        8174        BC    EQ,GPROC1             GPROC1                               55713021
 00684E 9531 C6E5      01675        8175          CLI   CURN,XX31                LVL IS TO 49                    55720021
 006852 47D0 9CFC      06B9C        8176        BC    NOTHI,GPROC2              LVL EQ OR LT 49...OK             55727021
 006856 47F0 8C22      077D2        8177        BC    UNCOND,RDER02              ASSUME LVL 02                   55734021
1PH1A     IKFCBL10                                                                                              PAGE  169
-  LOC  OBJECT CODE    ADDR1 ADDR2  STMT   SOURCE STATEMENT                                       ASM 0201 11.03 02/14/15
0                                   8178 *                                                                       55741021
 00685A                             8179 EORDAA DS    0H                                                         55748021
 00685A 45E0 987A      0671A        8180        BAL   JP,ENDPGE             ENDPGE                               55755021
                                    8181 *      BUILD MAIN RWR TABLE                                             55762021
                             0685E  8182 EORDA  EQU   *                                                          55769021
 00685E 45E0 99DA      0687A        8183        BAL   JP,EORDB                   GEN 02 FOR CTL.CHR + RPT.LI     55776021
 006862 47F0 9CCC      06B6C        8184          BC    UNCOND,EORD         BR TO END OF SENTENCE                55783021
                                    8185 *                                                                       55790021
                                    8186 *                                                                       55797021
                                    8187 *                                                                       55804021
 006866                             8188 PUTF3A DS    0H                                                         55811021
                                    8189 *   LENGTH OF WRITE IS IN REG 3                                         55818021
 006866 5810 C814      017A4        8190        L    JA,COSADR                                                   55825021
 00686A 0501                        8191        BALR  JR,JA                 PHASE 0                              55832021
 00686C 13                          8192        DC    X'13'                 WRITE ON SYSUT3                      55839021
 00686D 00
 00686E 07FE                        8193        BCR   UNCOND,JP             RETURN                               55846021
                                    8194 *                                                                       55853021
 006870                             8195 PUTF3B DS    0H                                                         55860021
                                    8196 *   LENGTH OF WRITE IS IN 2ND BYTE OFF JB                               55867021
 006870 5810 C814      017A4        8197        L     JA,COSADR                                                  55874021
 006874 0501                        8198        BALR  JR,JA                 PHASE 0                              55881021
 006876 23                          8199        DC    X'23'                 WRITE ON SYSUT3                      55888021
 006877 00
 006878 07FE                        8200        BCR   UNCOND,JP             RETURN                               55895021
                                    8201 *GENERATE 02 FOR CTL.CHAR AND RPT.LIN                                   55902021
                                    8202 *                                                                       55909021
 00687A                             8203 EORDB  DS    0H                                                         55916021
 00687A 50E0 D8C8      008F8        8204        ST    JP,JPHDSV                                                  55923021
 00687E 5810 C8B4      01844        8205        L     JA,CTLCON                 CTLTBL TIB                       55930021
 006882 45E0 BCC2      02BDA        8206        BAL   JP,TBLNIT                 GET START ETC                    55937021
 006886 4020 CDC0      01D50        8207        STH   JB,CTSVDP                 SAVE LAST VALID DISPLACEMENT     55944021
 00688A 4120 9C25      06AC5        8208        LA    JB,RPTRCD                                                  55951021
 00688E 45E0 99D0      06870        8209        BAL   JP,PUTF3B             PUTF3B                               55958021
 006892 4840 CDC4      01D54        8210        LH    JD,RWLREC                 GET REC-SIZE IN BINARY           55965021
 006896 4150 0001      00001        8211          LA    JE,DX1                   ONE IN JE FOR SUBTRACT          55972021
 00689A 9180 D363      00393        8212          TM    CODSW,XX80               CODE CLAUSE USED                55979021
 00689E 4780 9A0C      068AC        8213        BC    ZERO,EORDB1               NO-NO FILLER                     55986021
 0068A2 1B45                        8214        SR    JD,JE                     SUBTRACT ONE FOR CODE            55993021
 0068A4 4120 9C3D      06ADD        8215        LA    JB,CODCHR                                                  56000021
 0068A8 45E0 99D0      06870        8216        BAL   JP,PUTF3B             PUTF3B                               56007021
 0068AC                             8217 EORDB1 DS    0H                                                         56014021
 0068AC 1B45                        8218        SR    JD,JE                     SUBTRACT ONE FOR CTL.CHR         56021021
 0068AE 4E40 D978      009A8        8219        CVD   JD,WORKDA                 CONVERT REC-SIZE TO DECIMAL      56028021
 0068B2 F342 9C87 D97D 06B27 009AD  8220          UNPK  RPLSIZ+NX1(LX5),WORKDA+NX5(LX3) AND PUT IN RPT.LIN LD TE 56035021
 0068B8 96F0 9C8B      06B2B        8221          OI    RPLSIZ+NX5,XXF0          CHANGE SIGN FROM 'C' TO 'F'     56042021
 0068BC 4120 9C56      06AF6        8222        LA    JB,CTLCR                                                   56049021
 0068C0 1733                        8223        XR    JC,JC                                                      56056021
 0068C2 4330 9B51      069F1        8224        IC    JC,PUTCT2                                                  56063021
 0068C6 45E0 99C6      06866        8225        BAL   JP,PUTF3A             PUTF3A                               56070021
 0068CA 58E0 D8C8      008F8        8226        L     JP,JPHDSV                                                  56077021
 0068CE 07FE                        8227        BCR   UNCOND,JP             RETURN                               56084021
                                    8228 *                                                                       56091021
                                    8229 * GEN MOVE ZERO TO                                                      56098021
                                    8230 *                                                                       56105021
1PH1A     IKFCBL10                                                                                              PAGE  170
-  LOC  OBJECT CODE    ADDR1 ADDR2  STMT   SOURCE STATEMENT                                       ASM 0201 11.03 02/14/15
00068D0                             8231 GNMZT  DS    0H                                                         56112021
 0068D0 50E0 D8F8      00928        8232        ST    JP,PUTNSV                 SAVE RETURN                      56119021
 0068D4 45E0 B7DE      026F6        8233        BAL   JP,GNMOVE                 GEN MOVE                         56126021
 0068D8 45E0 B824      0273C        8234        BAL   JP,GNZER                  GEN ZERO                         56133021
 0068DC                             8235 GNMZTX DS    0H                                                         56140021
 0068DC 45E0 B7E6      026FE        8236        BAL   JP,GNTO                   GEN TO                           56147021
 0068E0                             8237 GNXIT  DS    0H                                                         56154021
 0068E0 58E0 D8F8      00928        8238        L     JP,PUTNSV                 RETURN                           56161021
 0068E4 07FE                        8239        BR    JP                          ON JP                          56168021
                                    8240 *                                                                       56175021
                                    8241 * GEN MOVE ONE TO                                                       56182021
                                    8242 *                                                                       56189021
 0068E6                             8243 GNM1T  DS    0H                                                         56196021
 0068E6 50E0 D8F8      00928        8244        ST    JP,PUTNSV                 SAVE RETURN                      56203021
 0068EA 45E0 B7DE      026F6        8245        BAL   JP,GNMOVE                 GEN MOVE                         56210021
 0068EE                             8246 GNM1TX DS    0H                                                         56217021
 0068EE 45E0 B81C      02734        8247        BAL   JP,GNONE                  GEN ONE                          56224021
 0068F2 47F0 9A3C      068DC        8248        B     GNMZTX                    FINISH                           56231021
                                    8249 *                                                                       56238021
                                    8250 * GEN ADD ONE TO                                                        56245021
                                    8251 *                                                                       56252021
 0068F6                             8252 GNA1T  DS    0H                                                         56259021
 0068F6 50E0 D8F8      00928        8253        ST    JP,PUTNSV                 SAVE RETURN                      56266021
 0068FA 45E0 B814      0272C        8254        BAL   JP,GNADD                  GEN ADD                          56273021
 0068FE 47F0 9A4E      068EE        8255        B     GNM1TX                    FINISH                           56280021
                                    8256 *                                                                       56287021
                                    8257 * GEN MOVE - TO                                                         56294021
                                    8258 *                                                                       56301021
 006902                             8259 GNMNT  DS    0H                                                         56308021
 006902 50E0 D8F8      00928        8260        ST    JP,PUTNSV                 SAVE RETURN                      56315021
 006906 45E0 B7DE      026F6        8261        BAL   JP,GNMOVE                 GEN MOVE                         56322021
 00690A 1863                        8262        LR    JF,JC                     A(-)                             56329021
 00690C 45E0 B684      0259C        8263        BAL   JP,GENB                   GEN -                            56336021
 006910 47F0 9A3C      068DC        8264        B     GNMZTX                    FINISH                           56343021
                                    8265 *                                                                       56350021
                                    8266 * GEN RPT-NM LINE-COUNTER + N.NAME                                      56357021
                                    8267 *                                                                       56364021
 006914                             8268 GNIRLC DS    0H                                                         56371021
 006914 50E0 D8F8      00928        8269        ST    JP,PUTNSV                 SAVE RETURN                      56378021
 006918 45E0 B7AC      026C4        8270        BAL   JP,GNIF                   GEN IF                           56385021
 00691C 45E0 B7BE      026D6        8271        BAL   JP,GNRPN                  GEN RPT-NAME                     56392021
 006920 45E0 B7CE      026E6        8272        BAL   JP,GNLCTR                 GEN LINE-COUNTER                 56399021
 006924 4160 ACAA      0389A        8273        LA    JF,PLUSCD                 GEN                              56406021
 006928 45E0 B684      0259C        8274        BAL   JP,GENB                       PLUS                         56413021
 00692C 4160 CC9F      01C2F        8275        LA    JF,NPTIC                  GEN                              56420021
 006930 45E0 B684      0259C        8276        BAL   JP,GENB                       N.NAME                       56427021
 006934 47F0 9A40      068E0        8277        B     GNXIT                     EXIT                             56434021
                                    8278 *                                                                       56441021
                                    8279 * GEN IF RPT-NM - =                                                     56448021
                                    8280 *                                                                       56455021
 006938                             8281 GNIFRN DS    0H                                                         56462021
 006938 50E0 D8F8      00928        8282        ST    JP,PUTNSV                 SAVE RETURN                      56469021
 00693C 45E0 B7AC      026C4        8283        BAL   JP,GNIF                   GEN IF                           56476021
                                    8284 * JC HAS ADDRESS OF -                                                   56483021
 006940 45E0 B7FE      02716        8285        BAL   JP,GNXPX                  GEN RPT-NM -                     56490021
1PH1A     IKFCBL10                                                                                              PAGE  171
-  LOC  OBJECT CODE    ADDR1 ADDR2  STMT   SOURCE STATEMENT                                       ASM 0201 11.03 02/14/15
0006944 45E0 B82C      02744        8286        BAL   JP,GNEQ                   GEN =                            56497021
 006948 47F0 9A40      068E0        8287        B     GNXIT                     EXIT                             56504021
                                    8288 *                                                                       56511021
                                    8289 *                                                                       56518021
                                    8290 *                                                                       56525021
 00694C 23                          8291 RDFLN  DC    X'23'                     FILE NAME                        56532021
 00694D                             8292 RDFLN1 DS    CL31                  X                                    56539021
 00696C 23                          8293 RDFL2  DC    X'23'                     FILE-                            56546021
 00696D                             8294 RDFLN2 DS    CL31                         NAME-TWO                      56553021
 00698C 23                          8295 RDRN   DC    X'23'                     RECORD NAME                      56560021
 00698D 05                          8296 RDRN1  DC    X'05'                 X                                    56567021
 00698E                             8297        DS    CL5                   X                                    56574021
 006993 23                          8298 RDRN2  DC    X'23'                     RECORD-                          56581021
 006994 05                          8299 RDRN22 DC    X'05'                        NAME-                         56588021
 006995                             8300        DS    CL5                             TWO                        56595021
 00699A                             8301 RDFNP  DS    0H                        FILE NM PTR                      56602021
 00699A 0000                        8302        DC    X'0000'               X                                    56609021
 00699C                             8303 RDFNP2 DS    0H                        FILE-NAME-                       56616021
 00699C 0000                        8304        DC    X'0000'                      TWO-POINTER                   56623021
 0069A0                             8305        DS    0F                                                         56630021
                                    8306 *PAGE AND LINE COUNTER DATA-NAME LD TEXT AREA                           56637021
 0069A0 03                          8307 PGCTRT DC    X'03'                 X                                    56644021
 0069A1 26                          8308        DC    X'26'                 X                                    56651021
 0069A2 01                          8309        DC    X'01'                 X                                    56658021
 0069A3 0000                        8310 PGCTCN DC    X'0000'               X                                    56665021
 0069A5 15                          8311        DC    X'15'                     VALUE USAGE COMP-3               56672021
 0069A6 20                          8312 ODRP00 DC    X'20'                     OD1,R1,P'1                       56679021
 0069A7 0000000000                  8313        DC    X'0000000000'         X                                    56686021
 0069AC 0C                          8314        DC    X'0C'                 X                                    56693021
 0069AD D7C1C7C5                    8315 PGCTR  DC    C'PAGE'               X                                    56700021
 0069B1 60C3D6E4D5E3C5D9            8316        DC    C'-COUNTER'           X                                    56707021
 0069B9 05E2F9F9F9F9                8317        DC    X'05E2F9F9F9F9'       X                                    56714021
 0069BF 060400F0F0F0                8318        DC    X'060400F0F0F0'       X                                    56721021
 0069C5 C1                          8319 PGCTVL DC    X'C1'                 X                                    56728021
 0069C6 0000                        8320        DC    X'0000'               X                                    56735021
                                    8321 *RD LD TEXT AREA                                                        56742021
 0069C8                             8322        DS    0F                                                         56749021
 0069C8 03                          8323 RDLD   DC    X'03'                 X                                    56756021
 0069C9 00                          8324 RDCT   DC    X'00'                 X                                    56763021
 0069CA 34                          8325        DC    X'34'                 X                                    56770021
 0069CB 0000                        8326 RDCDNO DC    X'0000'               X                                    56777021
 0069CD 00                          8327 RDNMCT DC    X'00'                 X                                    56784021
 0069CE 0000000000000000            8328 RDNM   DC    2XL16'0'              X                                    56791021
 0069F0                             8329        DS    0F                                                         56798021
                                    8330 *                                                                       56805021
                                    8331 *COMMON LD TEXT AREA                                                    56812021
                                    8332 * CTL.LVL TER.COD FRS.GEN LIN.SAV FRS.GRP ABS.LIN LIN.NUM               56819021
 0069F0 D2                          8333 PUTCT1 DC    X'D2'                                                      56826021
 0069F1 3B                          8334 PUTCT2 DC    X'3B'                     LENGTH OF CTL.CHR + RPT.LIN      56833021
 0069F2 1F                          8335 PUTCT9 DC    X'1F'                     PRINT SWITCH                     56840021
 0069F3 03                          8336 CTLV   DC    X'03'                 X                                    56847021
 0069F4 1B                          8337        DC    X'1B'                 X                                    56854021
 0069F5 01                          8338        DC    X'01'                 X                                    56861021
 0069F6 0000                        8339 CTCDN  DC    X'0000'               X                                    56868021
 0069F8 2D                          8340        DC    X'2D'                     VAL FIGCON ZERO-COMP-3           56875021
1PH1A     IKFCBL10                                                                                              PAGE  172
-  LOC  OBJECT CODE    ADDR1 ADDR2  STMT   SOURCE STATEMENT                                       ASM 0201 11.03 02/14/15
00069F9 20                          8341        DC    X'20'                 X                                    56882021
 0069FA 0000000000                  8342        DC    X'0000000000'         X                                    56889021
 0069FF 07                          8343 CTLVL  DC    X'07'                 X                                    56896021
 006A00 C3E3D34BD3E5D3              8344        DC    C'CTL.LVL'            X                                    56903021
 006A07 04E2F9F9F9                  8345        DC    X'04E2F9F9F9'         X                                    56910021
 006A0C 01                          8346        DC    X'01'                 X                                    56917021
 006A0D F0                          8347        DC    X'F0'                 X                                    56924021
 006A0E 0000                        8348        DC    X'0000'               X                                    56931021
                                    8349 *                                                                       56938021
                                    8350 *TERMINATE CODE  TER-COD USED IN EXIT CODING FOR PAGE FTNG              56945021
 006A10 031801                      8351 TERCOD DC    X'031801'             X                                    56952021
 006A13 0000                        8352 TERCN  DC    X'0000'               X                                    56959021
 006A15 28200000                    8353        DC    X'28200000'           X                                    56966021
 006A19 000000                      8354        DC    X'000000'             X                                    56973021
 006A1C 07                          8355 TERCON DC    X'07'                 X                                    56980021
 006A1D E3C5D94BC3D6C4              8356        DC    C'TER.COD'            X                                    56987021
 006A24 01E701F00000                8357        DC    X'01E701F00000'       X                                    56994021
                                    8358 *                                                                       57001021
                                    8359 *                                                                       57008021
                                    8360 *FIRST GENERATE FRS.GEN                                                 57015021
 006A2A 03                          8361 FGEN   DC    X'03'                 X                                    57022021
 006A2B 18                          8362        DC    X'18'                 X                                    57029021
 006A2C 01                          8363        DC    X'01'                 X                                    57036021
 006A2D 0000                        8364 FGCDN  DC    X'0000'               X                                    57043021
 006A2F 28                          8365        DC    X'28'                 X                                    57050021
 006A30 20                          8366        DC    X'20'                 X                                    57057021
 006A31 0000000000                  8367        DC    X'0000000000'         X                                    57064021
 006A36 07                          8368 FTCON  DC    X'07'                 X                                    57071021
 006A37 C6D9E24BC7C5D5              8369        DC    C'FRS.GEN'            X                                    57078021
 006A3E 01E7                        8370        DC    X'01E7'               X                                    57085021
 006A40 01                          8371        DC    X'01'                 X                                    57092021
 006A41 F0                          8372        DC    X'F0'                 X                                    57099021
 006A42 0000                        8373        DC    X'0000'               X                                    57106021
                                    8374 *                                                                       57113021
                                    8375 *                                                                       57120021
                                    8376 *  LD TEXT FOR LIN.SAV                                                  57127021
 006A44 032101                      8377 LSAVLD DC    X'032101'             X                                    57134021
 006A47 0000                        8378 LSVCDN DC    X'0000'               X                                    57141021
 006A49 1220                        8379        DC    X'1220'               X                                    57148021
 006A4B 0000000000                  8380        DC    X'0000000000'         X                                    57155021
 006A50 07                          8381 LSCON  DC    X'07'                 X                                    57162021
 006A51 D3C9D54BE2C1E5              8382        DC    C'LIN.SAV'            X                                    57169021
 006A58 05E2F9F9F9F9                8383        DC    X'05E2F9F9F9F9'       X                                    57176021
 006A5E 060400F0F0F0C0              8384        DC    X'060400F0F0F0C0'     X                                    57183021
 006A65 0000                        8385        DC    X'0000'               X                                    57190021
                                    8386 *                                                                       57197021
                                    8387 *  LD TEXT FOR FRS.GRP                                                  57204021
 006A67 031801                      8388 FGRPLD DC    X'031801'             X                                    57211021
 006A6A 0000                        8389 FGPCDN DC    X'0000'               X                                    57218021
 006A6C 2820                        8390        DC    X'2820'               X                                    57225021
 006A6E 0000000000                  8391        DC    X'0000000000'         X                                    57232021
 006A73 07                          8392 FGPCON DC    X'07'                 X                                    57239021
 006A74 C6D9E24BC7D9D7              8393        DC    C'FRS.GRP'            X                                    57246021
 006A7B 01E701F0                    8394        DC    X'01E701F0'           X                                    57253021
 006A7F 0000                        8395        DC    X'0000'               X                                    57260021
1PH1A     IKFCBL10                                                                                              PAGE  173
-  LOC  OBJECT CODE    ADDR1 ADDR2  STMT   SOURCE STATEMENT                                       ASM 0201 11.03 02/14/15
0                                   8396 *                                                                       57267021
                                    8397 *  LD TEXT FOR ABS.LIN                                                  57274021
                                    8398 *                                                                       57281021
 006A81 032101                      8399 ABSLLD DC    X'032101'             X                                    57288021
 006A84 0000                        8400 ABSCDN DC    X'0000'               X                                    57295021
 006A86 1220                        8401        DC    X'1220'               X                                    57302021
 006A88 0000000000                  8402        DC    X'0000000000'         X                                    57309021
 006A8D 07                          8403 ABSCON DC    X'07'                 X                                    57316021
 006A8E C1C2E24BD3C9D5              8404        DC    C'ABS.LIN'            X                                    57323021
 006A95 05E2F9F9F9F9                8405        DC    X'05E2F9F9F9F9'       X                                    57330021
 006A9B 060400F0F0F0C0              8406        DC    X'060400F0F0F0C0'     X                                    57337021
 006AA2 0000                        8407        DC    X'0000'               X                                    57344021
                                    8408 *                                                                       57351021
                                    8409 * LIN.NUM LD TEXT AREA                                                  57358021
 006AA4 031F01                      8410 LNUMLD DC    X'031F01'                                                  57365021
 006AA7 0000                        8411 LNCDN  DC    X'0000'               X                                    57372021
 006AA9 1520                        8412        DC    X'1520'                   VALUE USAGE COMP-3               57379021
 006AAB 0000000000                  8413        DC    X'0000000000'         X                                    57386021
 006AB0 07                          8414 LNMCON DC    X'07'                 X                                    57393021
 006AB1 D3C9D54BD5E4D4              8415        DC    C'LIN.NUM'            X                                    57400021
 006AB8 04E2F9F9F9                  8416        DC    X'04E2F9F9F9'                                              57407021
 006ABD 050300F0F0C0                8417        DC    X'050300F0F0C0'                                            57414021
 006AC3 0000                        8418        DC    X'0000'               X                                    57421021
                                    8419 *                                                                       57428021
                                    8420 *                                                                       57435021
                                    8421 *REPORT RECORD                                                          57442021
 006AC5 03                          8422 RPTRCD DC    X'03'                 X                                    57449021
 006AC6 1601                        8423        DC    X'1601'               X                                    57456021
 006AC8 0000                        8424 RPCDN  DC    X'0000'               X                                    57463021
 006ACA 00                          8425        DC    X'00'                 X                                    57470021
 006ACB 00                          8426        DC    X'00'                 X                                    57477021
 006ACC 0000000000                  8427        DC    X'0000000000'         X                                    57484021
 006AD1 07                          8428 RPCON  DC    X'07'                 X                                    57491021
 006AD2 D9D7E34BD9C3C4              8429        DC    C'RPT.RCD'            X                                    57498021
 006AD9 00000000                    8430        DC    X'00000000'           X                                    57505021
                                    8431 *                                                                       57512021
                                    8432 *CODE CHARACTER FILLER                                                  57519021
 006ADD 03                          8433 CODCHR DC    X'03'                 X                                    57526021
 006ADE 17                          8434        DC    X'17'                 X                                    57533021
 006ADF 02                          8435        DC    X'02'                 X                                    57540021
 006AE0 0000                        8436 CODCN  DC    X'0000'               X                                    57547021
 006AE2 08                          8437        DC    X'08'                     VAL ALPHANUM NO USAGE            57554021
 006AE3 20                          8438        DC    X'20'                 X                                    57561021
 006AE4 0000000000                  8439        DC    X'0000000000'         X                                    57568021
 006AE9 06                          8440        DC    X'06'                 X                                    57575021
 006AEA C6C9D3D3C5D9                8441        DC    C'FILLER'             X                                    57582021
 006AF0 01E7                        8442        DC    X'01E7'               X                                    57589021
 006AF2 01                          8443        DC    X'01'                 X                                    57596021
 006AF3 00                          8444 CODVAL DC    X'00'                     VALUE FROM CODE CLAUSE           57603021
 006AF4 0000                        8445        DC    X'0000'               X                                    57610021
                                    8446 *                                                                       57617021
                                    8447 **CONTROL CHARACTER CTL.CHR                                             57624021
 006AF6 03                          8448 CTLCR  DC    X'03'                 X                                    57631021
 006AF7 18                          8449        DC    X'18'                 X                                    57638021
 006AF8 02                          8450        DC    X'02'                 X                                    57645021
1PH1A     IKFCBL10                                                                                              PAGE  174
-  LOC  OBJECT CODE    ADDR1 ADDR2  STMT   SOURCE STATEMENT                                       ASM 0201 11.03 02/14/15
0006AF9 0000                        8451 CTLCN  DC    X'0000'               X                                    57652021
 006AFB 20                          8452        DC    X'20'                     VAL FIGCON SPACE-NO USAGE        57659021
 006AFC 20                          8453        DC    X'20'                 X                                    57666021
 006AFD 0000000000                  8454        DC    X'0000000000'         X                                    57673021
 006B02 07                          8455 CTCON  DC    X'07'                 X                                    57680021
 006B03 C3E3D34BC3C8D9              8456        DC    C'CTL.CHR'            X                                    57687021
 006B0A 01E7                        8457        DC    X'01E7'               X                                    57694021
 006B0C 0140                        8458        DC    X'0140'               X                                    57701021
 006B0E 0000                        8459        DC    X'0000'               X                                    57708021
                                    8460 *                                                                       57715021
                                    8461 *REPORT LINE                                                            57722021
 006B10 03                          8462 RPTLIN DC    X'03'                 X                                    57729021
 006B11 1F                          8463        DC    X'1F'                 X                                    57736021
 006B12 02                          8464        DC    X'02'                 X                                    57743021
 006B13 0000                        8465 RPLCN  DC    X'0000'               X                                    57750021
 006B15 20                          8466        DC    X'20'                     VAL FIGCON SPACE NO USAGE        57757021
 006B16 20                          8467        DC    X'20'                 X                                    57764021
 006B17 0000000000                  8468        DC    X'0000000000'         X                                    57771021
 006B1C 07                          8469 RPLCON DC    X'07'                     ALSO USED FOR E.NNNN REDEF       57778021
 006B1D D9D7E34BD3C9D5              8470        DC    C'RPT.LIN'            X                                    57785021
 006B24 08E7                        8471        DC    X'08E7'               X                                    57792021
 006B26 4DF0F0F1F3F35D              8472 RPLSIZ DC    C'(00133)'            X                                    57799021
 006B2D 0140                        8473        DC    X'0140'               X                                    57806021
 006B2F 0000                        8474        DC    X'0000'               X                                    57813021
                                    8475 *                                                                       57820021
                                    8476 *PRINT-SWITCH LD TEXT AREA                                              57827021
 006B31 03                          8477 PRSWLD DC    X'03'                 X                                    57834021
 006B32 1D                          8478        DC    X'1D'                 X                                    57841021
 006B33 01                          8479        DC    X'01'                 X                                    57848021
 006B34 0000                        8480 PSCDN  DC    X'0000'               X                                    57855021
 006B36 28                          8481        DC    X'28'                     VAL FIGCON ZERO-NO USAGE         57862021
 006B37 20                          8482        DC    X'20'                 X                                    57869021
 006B38 0000                        8483        DC    X'0000'               X                                    57876021
 006B3A 000000                      8484        DC    X'000000'             X                                    57883021
 006B3D 0C                          8485        DC    X'0C'                 X                                    57890021
 006B3E D7D9C9D5E360E2E6            8486        DC    C'PRINT-SWITCH'       X                                    57897021
 006B4A 01F9                        8487        DC    X'01F9'               X                                    57904021
 006B4C 01F0                        8488        DC    X'01F0'               X                                    57911021
 006B4E 0000                        8489        DC    X'0000'               X                                    57918021
 006B50                             8490        DS    0H                         ALLIGN                          57925021
 006B50                             8491 RWSVRG DS    7F                        SAVE REGS FOR SOURCE-SUM         57932021
                                    8492 *      END OF SENTENCE ROUTINE. PERIOD FOUND                            57939021
                                    8493 *                                                                       57946021
                                    8494 *EORD   -- END OF RD SENTENCE                                           57953021
                                    8495 *END01  -- END OF 01 SENTENCE                                           57960021
                                    8496 *END02  -- END OF 02 SENTENCE                                           57967021
                             06B6C  8497 END01  EQU   *                                                          57974021
                             06B6C  8498 END02  EQU   *                                                          57981021
                             06B6C  8499 EORD   EQU   *                                                          57988021
 006B6C 45E0 ACB4      038A4        8500        BAL   JP,GETDLM                  GET DELIM                       57995021
 006B70 9543 C6E4      01674        8501 EORD1    CLI   CURCOD,XX43               LEVEL NUMBER                   58002021
 006B74 4770 8C1A      077CA        8502        BC    NOTEQ,RDER01               NO - ERROR                      58009021
 006B78 9534 C6E5      01675        8503          CLI   CURN,XX34                 RD                             58016021
 006B7C 4780 912A      05FCA        8504        BC    EQ,RDSCN                   YES-GO TO RD SCAN               58023021
 006B80 9501 C6E5      01675        8505          CLI   CURN,XX01                 NEW 01                         58030021
1PH1A     IKFCBL10                                                                                              PAGE  175
-  LOC  OBJECT CODE    ADDR1 ADDR2  STMT   SOURCE STATEMENT                                       ASM 0201 11.03 02/14/15
0006B84 4780 9D04      06BA4        8506        BC    EQ,GPROC1             GPROC1                               58037021
 006B88 9531 C6E5      01675        8507          CLI   CURN,XX31                LVL IS TO 49                    58044021
 006B8C 47D0 9CFC      06B9C        8508        BC    NOTHI,GPROC2              LVL EQ OR LT 49...OK             58051021
 006B90 47F0 8C22      077D2        8509        BC     UNCOND,RDER02        RPER02                               58058021
 006B94 45E0 ACDE      038CE        8510 EORD2  BAL   JP,SKIPGT                  SKIP TILL NEW RD OR 01          58065021
 006B98 47F0 9CD0      06B70        8511        BC    UNCOND,EORD1          EORD1                                58072021
 006B9C 58F0 C020      00FB0        8512 GPROC2   L   JQ,ADPR01                                                  58079021
                             07888  8513        USING  PROC01,JQ                                                 58086021
 006BA0 47F0 F79C      08024        8514        BC    UNCOND,PROC02         PROC02                               58093021
                                    8515        DROP   JQ                                                        58100021
 006BA4 58F0 C020      00FB0        8516 GPROC1   L   JQ,ADPR01                                                  58107021
                             07888  8517        USING  PROC01,JQ                                                 58114021
 006BA8 47F0 F000      07888        8518        BC    UNCOND,PROC01         PROC01                               58121021
                                    8519        DROP   JQ                                                        58128021
1PH1A     IKFCBL10                                                                                              PAGE  176
-  LOC  OBJECT CODE    ADDR1 ADDR2  STMT   SOURCE STATEMENT                                       ASM 0201 11.03 02/14/15
0006BB0                             8521 IKF110 CSECT                                                            58142021
                                    8522 *FLUSH CODING                                                           58149021
 006BB0 50E0 DD3C      00D6C        8523 FLUSH  ST    JP,JPFLSV                                                  58156021
 006BB4 58F0 C020      00FB0        8524        L     JQ,ADPR01                                                  58163021
                             07888  8525        USING   PROC01,JQ                                                58170021
 006BB8 9180 D360      00390        8526          TM    FRST01,XX80              1ST 01 PROCESSED                58177021
 006BBC 4780 82C4      06E74        8527        BC    ZERO,FLXIT                NO...EXIT                        58184021
 006BC0 9180 D36A      0039A        8528          TM    BADGRP,XX80              YES..WAS IT A BAD GROUP         58191021
 006BC4 071E                        8529        BCR   ONES,JP                   YES..RETURN                      58198021
 006BC6 9108 D366      00396        8530          TM    LN01SW,XX08              WAS A LINE CLAUSE SPEC          58205021
 006BCA 4710 802E      06BDE        8531        BC    ONES,FLUSH1               YES..CONTINUE                    58212021
 006BCE 9180 D365      00395        8532          TM    COLCLS,XX80              COL CLS SPEC IN THIS RPT-GRP    58219021
 006BD2 4780 8038      06BE8        8533        BZ    FLEX                      NO...NO DIAGNOSTICS              58226021
 006BD6 45E0 DD04      00D34        8534        BAL   JP,MSG174                 NO...ERROR                       58233021
 006BDA 47F0 8038      06BE8        8535        BC    UNCOND,FLEX               CONTINUE                         58240021
 006BDE                             8536 FLUSH1 DS    0H                                                         58247021
 006BDE D201 CCCA CB4B 01C5A 01ADB  8537          MVC   RCGN(LX2),GNWR            GEN RPT-CALL GNWR              58254021
 006BE4 45E0 B76A      02682        8538        BAL   JP,GNRCLL             GNRCLL                               58261021
                                    8539 ***                                                                     58268021
                                    8540 ***                                                                     58275021
                                    8541 *EXIT CODING-PART OF FLUSH ROUTINE                                      58282021
 006BE8                             8542 FLEX   DS    0H                                                         58289021
 006BE8 9104 C9E4      01974        8543          TM    TYPECD,XX04              TYPE CF                         58296021
 006BEC 4710 804C      06BFC        8544        BC    ONES,FLEX1                YES..SKIP NEXT GROUP CHECK       58303021
 006BF0 45E0 895C      0750C        8545        BAL   JP,DONGP                  CHECK NEXT GROUP                 58310021
                                    8546 *                                                                  2839 58317021
 006BF4 9102 C9E4      01974        8547          TM    TYPECD,XX02              TYPE DETAIL                     58324021
 006BF8 4710 80B4      06C64        8548        BC    ONES,XIT2A                YES..PROCESS DET..NO GN GEN      58331021
 006BFC                             8549 FLEX1  DS    0H                                                    2839 58338021
 006BFC 9140 D9C0      009F0        8550          TM    DNMSW,XX40               DNM SPECIFIED ON 01 LVL         58345021
 006C00 4780 8072      06C22        8551        BC    ZERO,GNNUM1               NO...BYPASS GEN OF GNNUM         58352021
 006C04 D201 CCC4 CD20 01C54 01CB0  8552          MVC   GPTID1(LX2),GNNUM         GEN GNNUM FROM GNPSCK ROUT     58359021
 006C0A 4160 CCC3      01C53        8553        LA    JF,GPTID                                                   58366021
 006C0E 45E0 B684      0259C        8554        BAL   JP,GENB               GENB                                 58373021
 006C12 9104 C9E4      01974        8555          TM    TYPECD,XX04              TYPE CF                         58380021
 006C16 4710 80FE      06CAE        8556        BO    XIT40                     YES..CONTINUE               2839 58387021
 006C1A 94BF D9C0      009F0        8557          NI    DNMSW,XXBF               RESET DNM SWITCH                58394021
 006C1E 45E0 871C      072CC        8558        BAL   JP,PRTPA                    MOVE 0 TO PRINT SW             58401021
 006C22                             8559 GNNUM1 DS    0H                                                         58408021
 006C22 9110 C9E4      01974        8560          TM    TYPECD,XX10               PAGE FOOTING                   58415021
 006C26 4770 827E      06E2E        8561        BC    NOTZER,EPFT           EPFT                                 58422021
 006C2A 9120 C9E4      01974        8562          TM    TYPECD,XX20               PAGE HEADING                   58429021
 006C2E 4770 821A      06DCA        8563        BC    NOTZER,EPHD           EPHD                                 58436021
 006C32 9140 C9E4      01974        8564          TM    TYPECD,XX40               REPORT FOOTING                 58443021
 006C36 4780 8096      06C46        8565        BC    ZERO,XIT1                  NO                              58450021
 006C3A 4160 CB3B      01ACB        8566        LA    JF,RRTN5                   GEN RPT-RETURN-5                58457021
 006C3E 45E0 B684      0259C        8567        BAL   JP,GENB               GENB - FILE 2                        58464021
 006C42 47F0 82B2      06E62        8568        BC    UNCOND,XITXIT         XITXIT SHOULD N.NM BE GEN?           58471021
 006C46 9180 C9E4      01974        8569 XIT1     TM    TYPECD,XX80               REPORT HEADING                 58478021
 006C4A 4780 80AC      06C5C        8570        BC    ZERO,XIT2                  NO                              58485021
 006C4E D201 CCD2 CB43 01C62 01AD3  8571          MVC   GOGN(LX2),GNPH           GEN GO TO GNPH                  58492021
 006C54 45E0 B782      0269A        8572        BAL   JP,GNGO               GNGO                                 58499021
 006C58 47F0 82B2      06E62        8573        BC    UNCOND,XITXIT         XITXIT SHOULD N.NM BE GEN?           58506021
 006C5C 9102 C9E4      01974        8574 XIT2     TM    TYPECD,XX02               DETAIL                         58513021
 006C60 4780 80C0      06C70        8575        BC    ZERO,XIT3             XIT3                                 58520021
1PH1A     IKFCBL10                                                                                              PAGE  177
-  LOC  OBJECT CODE    ADDR1 ADDR2  STMT   SOURCE STATEMENT                                       ASM 0201 11.03 02/14/15
0006C64                             8576 XIT2A  DS    0H                                                         58527021
 006C64 4160 CB31      01AC1        8577        LA    JF,RRTN0                   GEN RPT-RETURN-0                58534021
 006C68 45E0 B684      0259C        8578        BAL   JP,GENB               GENB - FILE 2                        58541021
 006C6C 47F0 82B2      06E62        8579        BC    UNCOND,XITXIT         XITXIT SHOULD N.NM BE GEN?           58548021
                                    8580 *XIT3 LOOK FOR CF CH                                                    58555021
 006C70                             8581 XIT3   DS    0H                                                         58562021
 006C70 9108 C9E4      01974        8582          TM    TYPECD,XX08               CTL HDG                        58569021
 006C74 4780 80F6      06CA6        8583        BC    ZERO,XIT4                  NO                              58576021
                                    8584 *                                                                       58583021
 006C78 D500 CCF6 C972 01C86 01902  8585        CLC   CTLV01,LVCNT               IS LVL LOWEST                   58590021
 006C7E 4770 80E4      06C94        8586        BC    NOTEQ,XIT3A                NO                              58597021
 006C82 D201 CCD2 CB55 01C62 01AE5  8587          MVC   GOGN(LX2),GNRST           GEN GO TO GNRESET              58604021
 006C88 45E0 B782      0269A        8588        BAL   JP,GNGO               GNGO                                 58611021
 006C8C 45E0 B7EE      02706        8589        BAL   JP,GNPER                   GEN .                           58618021
 006C90 47F0 82B2      06E62        8590        BC    UNCOND,XITXIT         XITXIT SHOULD N.NM BE GEN?           58625021
 006C94                             8591 XIT3A  DS    0H                         NOT LOWEST LVL,GO TO LV+1       58632021
 006C94 D201 CCD2 CD16 01C62 01CA6  8592          MVC   GOGN(LX2),CHLPL1          GEN GO TO GNCH LVL+1           58639021
 006C9A 45E0 B782      0269A        8593        BAL   JP,GNGO               GNGO                                 58646021
 006C9E 45E0 B7EE      02706        8594        BAL   JP,GNPER                    GEN .                          58653021
 006CA2 47F0 82B2      06E62        8595        BC    UNCOND,XITXIT         XITXIT SHOULD N.NM BE GEN?           58660021
 006CA6 9104 C9E4      01974        8596 XIT4     TM    TYPECD,XX04               CTL FTNG                       58667021
 006CAA 4780 8196      06D46        8597        BC    ZERO,XIT5                  NO                              58674021
 006CAE                             8598 XIT40  DS    0H                                                    2839 58681021
 006CAE D501 CD1E CD1A 01CAE 01CAA  8599        CLC   GNCHM,GNCH                 MAJOR FOOTING                   58688021
 006CB4 4770 813C      06CEC        8600        BC    NOTEQ,XIT4A                NO                              58695021
 006CB8 D201 CCCA CB6D 01C5A 01AFD  8601          MVC   RCGN(LX2),GNRET          GEN                             58702021
 006CBE 45E0 B76A      02682        8602        BAL   JP,GNRCLL                     RPT-CALL RET-ROUT            58709021
 006CC2 4130 9B5F      069FF        8603        LA    JC,CTLVL                  A(CTL.LVL)                  2839 58716021
 006CC6 45E0 9A98      06938        8604        BAL   JP,GNIFRN                 GEN IF RPT-NM CTL.LVL =     2839 58723021
 006CCA 45E0 B824      0273C        8605        BAL   JP,GNZER                  GEN ZERO                    2839 58730021
 006CCE 9140 D9C0      009F0        8606        TM    DNMSW,XX40                DNM SPECIFIED AT 01 LVL     2839 58737021
 006CD2 4780 812A      06CDA        8607        BZ    XIT400                    NO...CONTINUE               2839 58744021
 006CD6 45E0 871C      072CC        8608        BAL   JP,PRTPA                  GEN MOVE 0 TO PRINT-SWITCH  2839 58751021
 006CDA                             8609 XIT400 DS    0H                                                    2839 58758021
 006CDA D201 CCD2 CB55 01C62 01AE5  8610        MVC   GOGN(LX2),GNRST           GEN GO TO GNRST             2839 58765021
 006CE0 45E0 B782      0269A        8611        BAL   JP,GNGO                   GNGO                        2839 58772021
 006CE4 45E0 B7EE      02706        8612        BAL   JP,GNPER                  GEN .                       2839 58779021
 006CE8 47F0 8180      06D30        8613        B     XIT4A2                    FINISH                      2839 58786021
                                    8614 *                                                                  2839 58793021
 006CEC                             8615 XIT4A  DS    0H                                                         58800021
 006CEC 45E0 B7AC      026C4        8616        BAL   JP,GNIF                   GEN IF                           58807021
 006CF0 4130 9B5F      069FF        8617        LA   JC,CTLVL                     GEN CTL.LVL                    58814021
 006CF4 45E0 B7FE      02716        8618        BAL   JP,GNXPX              GNXPX                                58821021
 006CF8 4160 A106      02CF6        8619        LA    JF,NOTCON                 GEN                              58828021
 006CFC 45E0 B684      0259C        8620        BAL   JP,GENB                       NOT                          58835021
 006D00 45E0 B82C      02744        8621        BAL   JP,GNEQ                    GEN EQUAL                       58842021
 006D04 4140 CCF6      01C86        8622        LA    JD,CTLV01                  GEN CUR LVL                     58849021
 006D08 45E0 B83C      02754        8623        BAL   JP,GTLVIC             GTLVIC                               58856021
 006D0C 9140 D9C0      009F0        8624          TM    DNMSW,XX40               DNM SPECIFIED ON 01 LVL         58863021
 006D10 4780 8168      06D18        8625        BC    ZERO,XIT4A1               NO...CONTINUE                    58870021
 006D14 45E0 871C      072CC        8626        BAL   JP,PRTPA                  GEN MOVE 0 TO PRINT-SWITCH       58877021
 006D18                             8627 XIT4A1 DS    0H                                                         58884021
 006D18 D201 CCD2 CD18 01C62 01CA8  8628          MVC   GOGN(LX2),CFLMI1         GEN GO TO CF LVL - 1            58891021
 006D1E 45E0 B782      0269A        8629        BAL   JP,GNGO               GNGO                                 58898021
 006D22 45E0 B7EE      02706        8630        BAL   JP,GNPER                  GEN .                            58905021
1PH1A     IKFCBL10                                                                                              PAGE  178
-  LOC  OBJECT CODE    ADDR1 ADDR2  STMT   SOURCE STATEMENT                                       ASM 0201 11.03 02/14/15
0006D26 D201 CCCA CB6D 01C5A 01AFD  8631          MVC   RCGN(LX2),GNRET          GEN                             58912021
 006D2C 45E0 B76A      02682        8632        BAL   JP,GNRCLL                     RPT-CALL RET-ROUT            58919021
 006D30                             8633 XIT4A2 DS    0H                                                    2839 58926021
 006D30 45E0 81DE      06D8E        8634        BAL   JP,IFPSCK                 CHECK DNM AND PRINT-SWITCH       58933021
 006D34 D201 CCD2 CD1A 01C62 01CAA  8635          MVC   GOGN(LX2),GNCH           GEN GO TO GNCH (THIS LVL)       58940021
 006D3A 45E0 B782      0269A        8636        BAL   JP,GNGO               GNGO                                 58947021
 006D3E 45E0 B7EE      02706        8637 XITPER BAL   JP,GNPER                   GEN .                           58954021
 006D42 47F0 82B2      06E62        8638        BC    UNCOND,XITXIT         XITXIT SHOULD N.NM BE GEN?           58961021
 006D46 9180 C9E5      01975        8639 XIT5     TM    TYPECD+NX1,XX80           CTL HDG FINAL                  58968021
 006D4A 4770 81C0      06D70        8640        BC    NOTZER,XIT7                YES                             58975021
 006D4E 9140 C9E5      01975        8641          TM    TYPECD+NX1,XX40           CTL FTG FINAL                  58982021
 006D52 4780 82B2      06E62        8642        BC    ZERO,XITXIT                NO                              58989021
 006D56                             8643 XIT6   DS    0H                                                         58996021
 006D56 D201 CCCA CB6D 01C5A 01AFD  8644          MVC   RCGN(LX2),GNRET          GEN                             59003021
 006D5C 45E0 B76A      02682        8645        BAL   JP,GNRCLL                     RPT-CALL RET-ROUT            59010021
 006D60 45E0 B7EE      02706        8646        BAL   JP,GNPER                   GEN .                           59017021
 006D64 4160 CB35      01AC5        8647        LA    JF,RRTN2                   GEN RPT-RETURN-2                59024021
 006D68 45E0 B684      0259C        8648        BAL   JP,GENB               GENB - FILE 2                        59031021
 006D6C 47F0 82B2      06E62        8649        BC    UNCOND,XITXIT         XITXIT SHOULD N.NM BE GEN?           59038021
 006D70                             8650 XIT7   DS    0H                                                         59045021
 006D70 9102 D9C0      009F0        8651          TM    DNSW1,XX02                MAJOR CONTROL SPECIFIED        59052021
 006D74 4780 81A6      06D56        8652        BC    ZERO,XIT6                  NO                              59059021
 006D78 94FD D9C0      009F0        8653          NI    DNSW1,XXFD                TURN 'OFF' MAJOR CONTROL       59066021
 006D7C D201 CCD2 CD1E 01C62 01CAE  8654          MVC   GOGN(LX2),GNCHM           GEN GO TO GNCH (MAJOR)         59073021
 006D82 45E0 B782      0269A        8655        BAL   JP,GNGO               GNGO                                 59080021
 006D86 45E0 B7EE      02706        8656        BAL   JP,GNPER                   GEN .                           59087021
 006D8A 47F0 82B2      06E62        8657        BC    UNCOND,XITXIT         SHOULD N.NM BE GENERATED?            59094021
                                    8658 *                                                                       59101021
                                    8659 *  ROUT GENS CF CODE FOR NXT GRP AND PRINT-SWITCH                       59108021
 006D8E                             8660 IFPSCK DS    0H                                                         59115021
 006D8E 50E0 DD30      00D60        8661        ST    JP,JPUBRS                 SAVE RETURN                      59122021
 006D92 9140 D9C0      009F0        8662          TM    DNMSW,XX40               DNM SPECIFIED ON 01 LVL         59129021
 006D96 4780 8210      06DC0        8663        BC    ZERO,IFPSK1               NO...CONTINUE                    59136021
 006D9A 9602 D369      00399        8664          OI    PRSWCF,XX02              TURN ON FOR GNPSCK ROUT         59143021
 006D9E 45E0 87BA      0736A        8665        BAL   JP,GNPSCK                 GO GEN PRINT-SWITCH CHECK        59150021
 006DA2 94FD D369      00399        8666          NI    PRSWCF,XXFD              RESET                           59157021
 006DA6 45E0 895C      0750C        8667        BAL   JP,DONGP                  DO NEXT GROUP                    59164021
 006DAA D201 CCC4 CD20 01C54 01CB0  8668          MVC   GPTID1(LX2),GNNUM        GET GN FROM GNPSCK              59171021
 006DB0 4160 CCC3      01C53        8669        LA    JF,GPTID                  GEN                              59178021
 006DB4 45E0 B684      0259C        8670        BAL   JP,GENB                       GNNN                         59185021
 006DB8 94BF D9C0      009F0        8671          NI    DNMSW,XXBF               RESET                           59192021
 006DBC 47F0 8214      06DC4        8672        BC    UNCOND,IFPSK2             EXIT                             59199021
 006DC0                             8673 IFPSK1 DS    0H                                                         59206021
 006DC0 45E0 895C      0750C        8674        BAL   JP,DONGP                  DO NEXT GROUP                    59213021
 006DC4                             8675 IFPSK2 DS    0H                                                         59220021
 006DC4 58E0 DD30      00D60        8676        L     JP,JPUBRS                 RETURN ON                        59227021
 006DC8 07FE                        8677        BCR   UNCOND,JP                 JP                               59234021
                                    8678 *                                                                       59241021
                                    8679 *                                                                       59248021
 006DCA                             8680 EPHD   DS    0H                         EXIT CODING PGE HDG             59255021
                                    8681 *                                                                       59262021
 006DCA 45E0 B736      0264E        8682        BAL   JP,GNGN                    GET GENERATED NAME              59269021
 006DCE 4130 9BB0      06A50        8683        LA    JC,LSCON                  A(LIN.SAV)                       59276021
 006DD2 45E0 9A98      06938        8684        BAL   JP,GNIFRN                 GEN IF RPT-NM LIN.SAV =          59283021
 006DD6 45E0 B824      0273C        8685        BAL   JP,GNZER                  GEN ZERO                         59290021
1PH1A     IKFCBL10                                                                                              PAGE  179
-  LOC  OBJECT CODE    ADDR1 ADDR2  STMT   SOURCE STATEMENT                                       ASM 0201 11.03 02/14/15
0006DDA D201 CCD2 CCC4 01C62 01C54  8686          MVC   GOGN(LX2),GPTID1         GEN GO TO                       59297021
 006DE0 45E0 B782      0269A        8687        BAL   JP,GNGO                       GNNN                         59304021
 006DE4 45E0 B834      0274C        8688        BAL   JP,GNELSE                 GEN ELSE                         59311021
 006DE8 9610 D364      00394        8689          OI    PGHXIT,XX10              TURN ON IN PH EXIT              59318021
 006DEC 45E0 82F8      06EA8        8690        BAL   JP,MVINT                  GO GEN MOVE LIN.SAV ETC          59325021
 006DF0 D201 CCCA CB4B 01C5A 01ADB  8691          MVC   RCGN(LX2),GNWR           GEN                             59332021
 006DF6 45E0 B76A      02682        8692        BAL   JP,GNRCLL                     RPT-CALL GNWR                59339021
 006DFA 45E0 B7EE      02706        8693        BAL   JP,GNPER                  GEN .                            59346021
 006DFE 4160 CCC3      01C53        8694        LA    JF,GPTID                  GEN                              59353021
 006E02 45E0 B684      0259C        8695        BAL   JP,GENB                       NNNN                         59360021
 006E06 45E0 9A30      068D0        8696        BAL   JP,GNMZT                  GEN MOVE ZERO TO                 59367021
 006E0A 4130 9BB0      06A50        8697        LA    JC,LSCON                  GEN                              59374021
 006E0E 45E0 B7FE      02716        8698        BAL   JP,GNXPX                      LIN.SAV                      59381021
 006E12 4130 9BD3      06A73        8699        LA    JC,FGPCON                 GEN                              59388021
 006E16 45E0 B7FE      02716        8700        BAL   JP,GNXPX                      FRS.GRP                      59395021
 006E1A 4130 CC33      01BC3        8701        LA    JC,GPCON                  GEN                              59402021
 006E1E 45E0 B7FE      02716        8702        BAL   JP,GNXPX                      GRP.IND                      59409021
 006E22 4160 CB37      01AC7        8703        LA    JF,RRTN3                  GEN                              59416021
 006E26 45E0 B684      0259C        8704        BAL   JP,GENB                       RPT-RETURN-3                 59423021
 006E2A 47F0 82B2      06E62        8705        BC    UNCOND,XITXIT             GO EXIT                          59430021
 006E2E                             8706 EPFT   DS    0H                         EXIT CODING-PGE FTNG            59437021
 006E2E 4130 9B7C      06A1C        8707        LA    JC,TERCON                 A(TER.COD)                       59444021
 006E32 45E0 9A98      06938        8708        BAL   JP,GNIFRN                 GEN IF RPT-NM TER.COD =          59451021
 006E36 4160 CBE0      01B70        8709        LA    JF,ICTWO                  GEN                              59458021
 006E3A 45E0 B684      0259C        8710        BAL   JP,GENB                       TWO                          59465021
 006E3E 4160 CB37      01AC7        8711        LA    JF,RRTN3                   GEN RPT-RETURN-3                59472021
 006E42 45E0 B684      0259C        8712        BAL   JP,GENB               GENB - FILE 2                        59479021
 006E46 45E0 B7EE      02706        8713        BAL   JP,GNPER                  GEN .                            59486021
 006E4A D201 CCCA CB4D 01C5A 01ADD  8714          MVC   RCGN(LX2),GNWR1          GEN                             59493021
 006E50 45E0 B76A      02682        8715        BAL   JP,GNRCLL                     RPT-CALL GNWR1               59500021
 006E54 D201 CCD2 CB43 01C62 01AD3  8716          MVC   GOGN(LX2),GNPH            GEN GO TO GNPH                 59507021
 006E5A 45E0 B782      0269A        8717        BAL   JP,GNGO               GNGO                                 59514021
 006E5E 45E0 B7EE      02706        8718        BAL   JP,GNPER                   GEN .                           59521021
 006E62                             8719 XITXIT DS    0H                                                         59528021
 006E62 D503 CC8C C598 01C1C 01528  8720          CLC   PLINNM(LX4),BUGCON        SHOULD N.NM BE GENERATED       59535021
 006E68 4780 82C4      06E74        8721        BC    EQ,FLXIT                   NO                              59542021
 006E6C 4150 CC8C      01C1C        8722        LA    JE,PLINNM                  INSERT LINES COUNT IN TABLE     59549021
 006E70 45E0 B868      02780        8723        BAL   JP,DONPT              DONPT                                59556021
 006E74 58E0 DD3C      00D6C        8724 FLXIT  L     JP,JPFLSV                                                  59563021
 006E78 9680 D360      00390        8725          OI    FRST01,XX80                                              59570021
 006E7C 07FE                        8726        BCR   UNCOND,JP             RETURN                               59577021
                                    8727 *                                                                       59584021
                                    8728 *                                                                       59591021
 006E7E                             8729 IFINT  DS    0H         ROUTINE GENS IF INT NOT GT LC                   59598021
 006E7E 50E0 D8EC      0091C        8730        ST    JP,JPIFNT                 SAVE RETURN                      59605021
 006E82 45E0 B7AC      026C4        8731        BAL   JP,GNIF                   GEN IF                           59612021
 006E86 4160 CBE3      01B73        8732        LA    JF,LNVAL                      INTEGER                      59619021
 006E8A 45E0 B684      0259C        8733        BAL   JP,GENB                      INT                           59626021
 006E8E 4160 A106      02CF6        8734        LA    JF,NOTCON                 GEN                              59633021
 006E92 45E0 B684      0259C        8735        BAL   JP,GENB                      NOT                           59640021
 006E96 45E0 B7C6      026DE        8736        BAL   JP,GNGRTH                 GEN GREATER THAN                 59647021
 006E9A 45E0 B7BE      026D6        8737        BAL   JP,GNRPN                  GEN RPT-NM                       59654021
 006E9E 45E0 B7CE      026E6        8738        BAL   JP,GNLCTR                 GEN LC                           59661021
 006EA2 58E0 D8EC      0091C        8739        L     JP,JPIFNT                 RETURN                           59668021
 006EA6 07FE                        8740        BCR   UNCOND,JP                    ON JP                         59675021
1PH1A     IKFCBL10                                                                                              PAGE  180
-  LOC  OBJECT CODE    ADDR1 ADDR2  STMT   SOURCE STATEMENT                                       ASM 0201 11.03 02/14/15
0                                   8741 *                                                                       59682021
                                    8742 * ROUTINE GENS MOVE INT TO ABS.LIN RPT-CALL ALS-ROUT                    59689021
                                    8743 *                                                                       59696021
 006EA8                             8744 MVINT  DS    0H                                                         59703021
 006EA8 50E0 DD2C      00D5C        8745        ST    JP,JPMVNT                 SAVE RETURN                      59710021
 006EAC 45E0 B7DE      026F6        8746        BAL   JP,GNMOVE                 GEN MOVE                         59717021
 006EB0 4160 CBE3      01B73        8747        LA    JF,LNVAL                      INTEGER                      59724021
 006EB4 9110 D364      00394        8748          TM    PGHXIT,XX10              IN PH EXIT                      59731021
 006EB8 4780 831C      06ECC        8749        BC    ZERO,MVINT1               NO                               59738021
 006EBC 94EF D364      00394        8750          NI    PGHXIT,XXEF              YES..RESET                      59745021
 006EC0 4130 9BB0      06A50        8751        LA    JC,LSCON                  GEN                              59752021
 006EC4 45E0 B7FE      02716        8752        BAL   JP,GNXPX                      LIN.SAV                      59759021
 006EC8 47F0 8320      06ED0        8753        BC    UNCOND,MVINT2             FINISH                           59766021
 006ECC                             8754 MVINT1 DS    0H                                                         59773021
 006ECC 45E0 B684      0259C        8755        BAL   JP,GENB               FILE-2                               59780021
 006ED0                             8756 MVINT2 DS    0H                                                         59787021
 006ED0 45E0 B7E6      026FE        8757        BAL   JP,GNTO                      TO                            59794021
 006ED4 9120 D365      00395        8758          TM    NGINT,XX20               IN NEXT GROUP INT ROUT          59801021
 006ED8 4780 833C      06EEC        8759        BC    ZERO,MVINT3               NO...CONTINUE                    59808021
 006EDC 4130 9BB0      06A50        8760        LA    JC,LSCON                  YES..GEN                         59815021
 006EE0 45E0 B7FE      02716        8761        BAL   JP,GNXPX                      LIN.SAV                      59822021
 006EE4 94DF D365      00395        8762          NI    NGINT,XXDF               RESET                           59829021
 006EE8 47F0 834E      06EFE        8763        BC    UNCOND,MVINT4             EXIT                             59836021
 006EEC                             8764 MVINT3 DS    0H                                                         59843021
 006EEC 4130 9BED      06A8D        8765        LA    JC,ABSCON                    ABS.LIN                       59850021
 006EF0 45E0 B7FE      02716        8766        BAL   JP,GNXPX              GNXPX                                59857021
 006EF4 D201 CCCA CB67 01C5A 01AF7  8767          MVC   RCGN(LX2),GNALS             RPT-CALL                     59864021
 006EFA 45E0 B76A      02682        8768        BAL   JP,GNRCLL                       ALS-ROUT                   59871021
 006EFE                             8769 MVINT4 DS    0H                                                         59878021
 006EFE 58E0 DD2C      00D5C        8770        L     JP,JPMVNT                  RETURN                          59885021
 006F02 07FE                        8771        BCR   UNCOND,JP                    ON  JP                        59892021
                                    8772 *                                                                       59899021
                                    8773 * ROUTINE GENS  IF RPT-NM LINE-CTR = 0 MOVE 1 TO RPT-NM LINE-CTR.       59906021
                                    8774 *                                                                       59913021
 006F04                             8775 LINEQZ DS    0H                                                         59920021
 006F04 50E0 D8DC      0090C        8776        ST    JP,JPIFLC                 SAVE RETURN                      59927021
 006F08 45E0 BABC      029D4        8777        BAL   JP,GNPAR                  GO GEN                           59934021
 006F0C 4160 CB2D      01ABD        8778        LA    JF,RSVE4                  GEN                              59941021
 006F10 45E0 B684      0259C        8779        BAL   JP,GENB                       RPT-SAVE-4                   59948021
 006F14 47F0 836C      06F1C        8780        B     LNEQZ2                    BYPASS SAVE                      59955021
 006F18                             8781 LNEQZ1 DS    0H                                                         59962021
 006F18 50E0 D8DC      0090C        8782        ST    JP,JPIFLC                 SAVE RETURN                      59969021
 006F1C                             8783 LNEQZ2 DS    0H                                                         59976021
 006F1C 45E0 B7AC      026C4        8784        BAL   JP,GNIF                   GEN IF                           59983021
 006F20 45E0 B7BE      026D6        8785        BAL   JP,GNRPN                  GEN RPT-NAME                     59990021
 006F24 45E0 B7CE      026E6        8786        BAL   JP,GNLCTR                 GEN LINE-COUNTER                 59997021
 006F28 45E0 B82C      02744        8787        BAL   JP,GNEQ                   GEN EQUAL                        60004021
 006F2C 45E0 B824      0273C        8788        BAL   JP,GNZER                  GEN ZERO                         60011021
 006F30 45E0 9A46      068E6        8789        BAL   JP,GNM1T                  GEN MOVE 1 TO                    60018021
 006F34 45E0 B7BE      026D6        8790        BAL   JP,GNRPN                  GEN RPT-NAME                     60025021
 006F38 45E0 B7CE      026E6        8791        BAL   JP,GNLCTR                 GEN LINE-COUNTER                 60032021
 006F3C 45E0 B7EE      02706        8792        BAL   JP,GNPER                  GEN .                            60039021
 006F40 58E0 D8DC      0090C        8793        L     JP,JPIFLC                 RETURN                           60046021
 006F44 07FE                        8794        BR    JP                            ON JP                        60053021
                                    8795 *                                                                       60060021
1PH1A     IKFCBL10                                                                                              PAGE  181
-  LOC  OBJECT CODE    ADDR1 ADDR2  STMT   SOURCE STATEMENT                                       ASM 0201 11.03 02/14/15
0                                   8796 ***GENERATE SPECIAL ROUTINES                                            60067021
                                    8797 *                                                                       60074021
 006F46                             8798 GNSPRT DS    0H                                                         60081021
 006F46 50E0 DBB8      00BE8        8799        ST    JP,JPGNSP                                                  60088021
 006F4A D201 C9B0 C6E2 01940 01672  8800          MVC   CGCNSAV(LX2),CURGCN SAVE CURGCN                          60095021
 006F50 D201 C6E2 C9AE 01672 0193E  8801          MVC   CURGCN(LX2),SVRDCN         MOVE RD-CD-NO TO CUR-CD-NO    60102021
 006F56 94EF D365      00395        8802          NI    NXGPSW,XXEF               SET OF NEXT GROUP              60109021
 006F5A 45E0 B8C2      027DA        8803        BAL   JP,GNLDNP                  GENERATE N.NAMES                60116021
 006F5E 45E0 B92A      02842        8804        BAL   JP,GNGPLD                 GO GEN GP.NNNN NAMES             60123021
 006F62 45E0 8BB4      07764        8805        BAL   JP,CKGCNT                 CHECK GCNTBL FOR LINE ERRORS     60130021
 006F66 50F0 D8E0      00910        8806        ST    JQ,SAVEJQ                 SAVE                             60137021
 006F6A 58F0 C01C      00FAC        8807        L     JQ,ADROLL                                                  60144021
                             091A0  8808        USING DOROL,JQ                                                   60151021
 006F6E 45E0 F000      091A0        8809        BAL   JP,DOROL                  BUILD ROLL TBL, GEN WRT-ROUT     60158021
                                    8810        DROP  JQ                                                         60165021
 006F72 58F0 D8E0      00910        8811        L     JQ,SAVEJQ                 RETURN                           60172021
                             07888  8812        USING PROC01,JQ                                                  60179021
                                    8813 *                                                                       60186021
 006F76 45E0 83EA      06F9A        8814        BAL   JP,CLRD                    GEN ROUTS IF NOT SPECIFIED      60193021
 006F7A 45E0 B882      0279A        8815        BAL   JP,INSROU             INSROU                               60200021
                                    8816 *                                                                       60207021
 006F7E 50F0 D8E0      00910        8817        ST    JQ,SAVEJQ                 SAVE                             60214021
 006F82 58F0 C018      00FA8        8818        L     JQ,ADSPRT                 SET UP FOR CSECT IEQ117          60221021
                             08650  8819        USING SPCRTS,JQ                                                  60228021
 006F86 45E0 F000      08650        8820        BAL   JP,SPCRTS                 GO GEN SPECIAL ROUTS             60235021
                                    8821        DROP  JQ                                                         60242021
 006F8A 58F0 D8E0      00910        8822        L     JQ,SAVEJQ                 RETURN                           60249021
                             07888  8823        USING PROC01,JQ                                                  60256021
 006F8E D201 C6E2 C9B0 01672 01940  8824          MVC   CURGCN(LX2),CGCNSAV     RESTORE GCN                      60263021
 006F94 58E0 DBB8      00BE8        8825        L     JP,JPGNSP                                                  60270021
 006F98 07FE                        8826        BCR   UNCOND,JP             RETURN                               60277021
                                    8827 *                                                                       60284021
 006F9A                             8828 CLRD   DS    0H                                                         60291021
 006F9A 50E0 DD38      00D68        8829        ST    JP,JPCRDS                                                  60298021
 006F9E D703 CC8C CC8C 01C1C 01C1C  8830        XC    PLINNM,PLINNM              SET N.NM = ZERO                 60305021
 006FA4 94BF D9C0      009F0        8831          NI    DNMSW,XXBF                                               60312021
 006FA8 94EF D366      00396        8832          NI    DNSW,XXEF                RESET DNSW SWITCH               60319021
 006FAC 9640 D360      00390        8833          OI    RDCLSW,XX40               FLAG IN RD CLOS ROUTINE        60326021
 006FB0                             8834 CLRD1  DS    0H                                                         60333021
 006FB0 D701 C9E4 C9E4 01974 01974  8835        XC    TYPECD,TYPECD             RESET ALL TYPE CLAUSES           60340021
 006FB6 9108 D361      00391        8836          TM    CHFSW,XX08                CH FINAL SPECIFIED             60347021
 006FBA 4780 F4A8      07D30        8837        BC    ZERO,PCTH21                NO                              60354021
 006FBE 9104 D361      00391        8838          TM    CFFSW,XX04                CF FINAL SPECIFIED             60361021
 006FC2 4780 F54C      07DD4        8839        BC    ZERO,PCTF21                NO                              60368021
 006FC6 9180 D361      00391        8840          TM    PFSW,XX80                 PF SPECIFIED                   60375021
 006FCA 4780 F5B0      07E38        8841        BC    ZERO,PPGF                  NO                              60382021
 006FCE 9140 D361      00391        8842          TM    PHSW,XX40                 PH SPECIFIED                   60389021
 006FD2 4780 F568      07DF0        8843        BC    ZERO,PPGH                  NO                              60396021
 006FD6 9120 D361      00391        8844          TM    RHSW,XX20                 RH SPECIFIED                   60403021
 006FDA 4780 F5F8      07E80        8845        BC    ZERO,PRPH                  NO                              60410021
 006FDE 9110 D361      00391        8846          TM    RFSW,XX10                 RF SPECIFIED                   60417021
 006FE2 4780 F638      07EC0        8847        BC    ZERO,PRPF                  NO                              60424021
 006FE6                             8848 CLRXIT DS    0H                                                         60431021
 006FE6 58E0 DD38      00D68        8849        L     JP,JPCRDS                                                  60438021
 006FEA 07FE                        8850        BCR   UNCOND,JP             RETURN                               60445021
1PH1A     IKFCBL10                                                                                              PAGE  182
-  LOC  OBJECT CODE    ADDR1 ADDR2  STMT   SOURCE STATEMENT                                       ASM 0201 11.03 02/14/15
0                                   8851 *                                                                       60452021
 006FEC                             8852 CLRDA  DS    0H                                                         60459021
 006FEC 41E0 8400      06FB0        8853        LA    JP,CLRD1                                                   60466021
 006FF0 50E0 DD3C      00D6C        8854        ST    JP,JPFLSV                                                  60473021
 006FF4 47F0 8038      06BE8        8855        BC    UNCOND,FLEX           FLEX                                 60480021
                                    8856 *                                                                       60487021
                                    8857 *GENERATION FOR NEXT PAGE                                               60494021
 006FF8                             8858 NPAGE  DS    0H                                                         60501021
 006FF8 50E0 D8CC      008FC        8859        ST    JP,JPLNSV                                                  60508021
 006FFC D201 CCCA CB45 01C5A 01AD5  8860          MVC   RCGN(LX2),GNPF           GEN RPT-CALL GNPF               60515021
 007002 D213 CBE3 CA99 01B73 01A29  8861          MVC   LNVAL(LX20),PRAMD        1ST DETAIL INT3 TO LNVAL        60522021
 007008 9540 C9E4      01974        8862          CLI   TYPECD,XX40              RF                              60529021
 00700C 4770 846C      0701C        8863        BC    NOTEQ,NPAGE1              NO...NORMAL PROCESSING           60536021
 007010 D201 CCCA CB4D 01C5A 01ADD  8864          MVC   RCGN(LX2),GNWR1          YES..GEN SKIP TO NEW PAGE       60543021
 007016 D213 CBE3 CA85 01B73 01A15  8865          MVC   LNVAL(LX20),PRAMH        HEADING INT2 TO LNVAL           60550021
 00701C                             8866 NPAGE1 DS    0H                                                         60557021
 00701C 45E0 B76A      02682        8867        BAL   JP,GNRCLL                 GEN RPT-CAL GNXX                 60564021
 007020 45E0 82F8      06EA8        8868        BAL   JP,MVINT                  GEN MOVE INTEGER ETC             60571021
 007024 45E0 B7EE      02706        8869        BAL   JP,GNPER                  GEN.                             60578021
 007028 47F0 8712      072C2        8870        BC    UNCOND,NLNXIT             EXIT                             60585021
                                    8871 *GENERATION FOR LINE + INTEGER                                          60592021
 00702C                             8872 LPLUS  DS    0H                                                         60599021
 00702C 50E0 D8CC      008FC        8873        ST    JP,JPLNSV                                                  60606021
 007030 9610 D362      00392        8874          OI    RELABS,XX10              INDICATE REL LINE SPECIFIED     60613021
 007034 94FE D360      00390        8875          NI    SCNDTM,XXFE              RESET                           60620021
 007038 9108 D366      00396        8876          TM    LN01SW,XX08              FIRST LINE DONE                 60627021
 00703C 4780 84A2      07052        8877        BC    ZERO,LPLUS1               NO...PROCESS 1ST LINE REL        60634021
 007040 D201 CCCA CB4B 01C5A 01ADB  8878          MVC   RCGN(LX2),GNWR           YES..GEN                        60641021
 007046 45E0 B76A      02682        8879        BAL   JP,GNRCLL                      RPT-CALL GNWR               60648021
 00704A                             8880 LPLUS0 DS    0H                                                         60655021
 00704A 45E0 B7DE      026F6        8881        BAL   JP,GNMOVE                 GEN MOVE                         60662021
 00704E 47F0 8664      07214        8882        BC    UNCOND,LPLS28             GO FINISH                        60669021
 007052                             8883 LPLUS1 DS    0H                                                         60676021
 007052 9120 D362      00392        8884          TM    PGESW,XX20               PAGE CLAUSE SPECIFIED           60683021
 007056 4780 8660      07210        8885        BC    ZERO,LPLS18               NO...SKIP                        60690021
 00705A 9180 C9E4      01974        8886          TM    TYPECD,XX80              TYPE RH                         60697021
 00705E 4780 8502      070B2        8887        BC    ZERO,LPLS11               NO...CHECK OTHERS                60704021
 007062                             8888 LPLS1  DS    0H                                                         60711021
 007062 D213 CBE3 CA85 01B73 01A15  8889          MVC   LNVAL(LX20),PRAMH        INT2  HEADING                   60718021
 007068                             8890 LPLS10 DS    0H                                                         60725021
 007068 45E0 B814      0272C        8891        BAL   JP,GNADD                  GEN ADD                          60732021
 00706C 4160 C9B3      01943        8892          LA    JF,LN01+NX1              GEN                             60739021
 007070 45E0 B684      0259C        8893        BAL   JP,GENB                       REL LIN                      60746021
 007074 9101 D360      00390        8894          TM    SCNDTM,XX01              2ND TIME THRU                   60753021
 007078 4710 84D4      07084        8895        BC    ONES,LPL200               YES..CONTINUE                    60760021
 00707C 9110 C9E4      01974        8896          TM    TYPECD,XX10              TYPE PF                         60767021
 007080 4780 84DC      0708C        8897        BC    ZERO,LPLS20               NO                               60774021
 007084                             8898 LPL200 DS    0H                                                         60781021
 007084 4160 CAF1      01A81        8899        LA    JF,PRAMHS                 GEN                              60788021
 007088 45E0 B684      0259C        8900        BAL   JP,GENB                       ONE                          60795021
 00708C                             8901 LPLS20 DS    0H                                                         60802021
 00708C 4160 CBE3      01B73        8902        LA    JF,LNVAL                  GEN                              60809021
 007090 45E0 B684      0259C        8903        BAL   JP,GENB                       INTEGER                      60816021
 007094 4160 A484      03074        8904        LA    JF,GIVCON                 GEN                              60823021
 007098 45E0 B684      0259C        8905        BAL   JP,GENB                       GIVING                       60830021
1PH1A     IKFCBL10                                                                                              PAGE  183
-  LOC  OBJECT CODE    ADDR1 ADDR2  STMT   SOURCE STATEMENT                                       ASM 0201 11.03 02/14/15
000709C 4130 9BED      06A8D        8906        LA    JC,ABSCON                 GEN                              60837021
 0070A0 45E0 B7FE      02716        8907        BAL   JP,GNXPX                      ABS.LIN                      60844021
 0070A4 D201 CCCA CB67 01C5A 01AF7  8908          MVC   RCGN(LX2),GNALS          GEN                             60851021
 0070AA 45E0 B76A      02682        8909        BAL   JP,GNRCLL                     RPT-CALL ALS-ROUT            60858021
 0070AE 47F0 86C2      07272        8910        BC    UNCOND,LPLUS5             GO EXIT                          60865021
 0070B2                             8911 LPLS11 DS    0H                                                         60872021
 0070B2 9160 C9E4      01974        8912          TM    TYPECD,XX60              TYPE PH OR PF                   60879021
 0070B6 4780 855A      0710A        8913        BZ    LPL120                    NEITHER...CONTINUE               60886021
 0070BA 45E0 9A74      06914        8914        BAL   JP,GNIRLC                 GEN IF RPT-NM + N.NAME           60893021
 0070BE 9140 C9E4      01974        8915          TM    TYPECD,XX40              TYPE RF                         60900021
 0070C2 4710 8540      070F0        8916        BO    LPLS12                    YES..FINISH RF                   60907021
 0070C6 4160 A106      02CF6        8917        LA    JF,NOTCON                 GEN                              60914021
 0070CA 45E0 B684      0259C        8918        BAL   JP,GENB                       NOT                          60921021
 0070CE 45E0 B7F6      0270E        8919        BAL   JP,GNLSTH                 GEN LESS THAN                    60928021
 0070D2 4160 CA99      01A29        8920        LA    JF,PRAMD                  GEN                              60935021
 0070D6 45E0 B684      0259C        8921        BAL   JP,GENB                       INT3  FIRST DETAIL           60942021
 0070DA D201 CCCA CB4D 01C5A 01ADD  8922          MVC   RCGN(LX2),GNWR1          GEN                             60949021
 0070E0 45E0 B76A      02682        8923        BAL   JP,GNRCLL                     RPT-CALL GNWR1               60956021
 0070E4 45E0 B7EE      02706        8924        BAL   JP,GNPER                  GEN .                            60963021
 0070E8 45E0 8368      06F18        8925        BAL   JP,LNEQZ1                 GEN IF LC = 0 MOVE 1 TO LC.      60970021
 0070EC 47F0 8702      072B2        8926        B     LPLS51                    FINISH                           60977021
 0070F0                             8927 LPLS12 DS    0H                                                         60984021
 0070F0 45E0 B7C6      026DE        8928        BAL   JP,GNGRTH                 GEN GREATER THAN                 60991021
 0070F4 4160 CA71      01A01        8929        LA    JF,PRAMP                  GEN                              60998021
 0070F8 45E0 B684      0259C        8930        BAL   JP,GENB                       INT1  PAGE LIMIT             61005021
 0070FC D201 CCCA CB4D 01C5A 01ADD  8931          MVC   RCGN(LX2),GNWR1          GEN                             61012021
 007102 45E0 B76A      02682        8932        BAL   JP,GNRCLL                     RPT-CALL GNWR1               61019021
 007106 47F0 84B2      07062        8933        BC    UNCOND,LPLS1              GO FINISH                        61026021
                                    8934 *                                                                       61033021
 00710A                             8935 LPL120 DS    0H                                                         61040021
 00710A 9110 C9E4      01974        8936          TM    TYPECD,XX10              TYPE PF                         61047021
 00710E 4780 856C      0711C        8937        BC    ZERO,LPLS13               NO...MUST BE BODY GROUP          61054021
 007112                             8938 LPL121 DS    0H                                                         61061021
 007112 D213 CBE3 CAC1 01B73 01A51  8939          MVC   LNVAL(LX20),PRAMF        MOVE INT5 TO LNVAL              61068021
 007118 47F0 84B8      07068        8940        BC    UNCOND,LPLS10             GO FINISH                        61075021
                                    8941 *                                                                       61082021
 00711C                             8942 LPLS13 DS    0H                                                         61089021
                                    8943 * MUST  BE BODY GROUP                                                   61096021
 00711C 4130 9BD3      06A73        8944        LA    JC,FGPCON                 A(FRS.GRP)                       61103021
 007120 45E0 9A98      06938        8945        BAL   JP,GNIFRN                 GEN IF RPT-NM FRS.GRP =          61110021
 007124 45E0 B81C      02734        8946        BAL   JP,GNONE                  GEN ONE                          61117021
 007128 45E0 B736      0264E        8947        BAL   JP,GNGN                   GET GN                           61124021
 00712C D201 CD24 CCC4 01CB4 01C54  8948          MVC   SVGNM1(LX2),GPTID1       SAVE GN                         61131021
 007132 D201 CCD2 CCC4 01C62 01C54  8949          MVC   GOGN(LX2),GPTID1         GEN                             61138021
 007138 45E0 B782      0269A        8950        BAL   JP,GNGO                       GO TO GN                     61145021
 00713C 45E0 B7EE      02706        8951        BAL   JP,GNPER                  GEN .                            61152021
 007140                             8952 LPLS4  DS    0H                                                         61159021
 007140 45E0 9A74      06914        8953        BAL   JP,GNIRLC                 GEN IF RPT-NM + N.NAME           61166021
 007144 9101 D360      00390        8954          TM    SCNDTM,XX01              2ND TIME THRU                   61173021
 007148 4710 85C8      07178        8955        BC    ONES,LPLS41               YES                              61180021
 00714C 4860 C9CA      0195A        8956        LH    JF,LPINBI                 GET REL LINE IN JF               61187021
 007150 4960 C14E      010DE        8957        CH    JF,HWONE                  IS REL LINE 1                    61194021
 007154 4780 85C8      07178        8958        BC    EQ,LPLS41                 YES..SKIP                        61201021
 007158 4160 ACAA      0389A        8959        LA    JF,PLUSCD                 GEN                              61208021
 00715C 45E0 B684      0259C        8960        BAL   JP,GENB                       PLUS                         61215021
1PH1A     IKFCBL10                                                                                              PAGE  184
-  LOC  OBJECT CODE    ADDR1 ADDR2  STMT   SOURCE STATEMENT                                       ASM 0201 11.03 02/14/15
0007160 4160 CAF1      01A81        8961        LA    JF,PRAMHS                 GEN                              61222021
 007164 45E0 B684      0259C        8962        BAL   JP,GENB                       ONE                          61229021
 007168 4160 ACAD      0389D        8963        LA    JF,MINCD                  GEN                              61236021
 00716C 45E0 B684      0259C        8964        BAL   JP,GENB                       MINUS                        61243021
 007170 4160 C9B3      01943        8965          LA    JF,LN01+NX1              GEN                             61250021
 007174 45E0 B684      0259C        8966        BAL   JP,GENB                        REL LIN                     61257021
 007178                             8967 LPLS41 DS    0H                                                         61264021
 007178 45E0 B7C6      026DE        8968        BAL   JP,GNGRTH                 GEN GREATER THAN                 61271021
 00717C 4160 CAC1      01A51        8969        LA    JF,PRAMF                  INT5 LAST FOOTING                61278021
 007180 9104 C9E4      01974        8970          TM    TYPECD,XX04              TYPE CF                         61285021
 007184 4710 85E8      07198        8971        BC    ONES,LPLS14               YES..CONTINUE                    61292021
 007188 9140 C9E5      01975        8972          TM    TYPECD+NX1,XX40          TYPE CFF                        61299021
 00718C 4710 85E8      07198        8973        BC    ONES,LPLS14               YES..CONTINUE                    61306021
 007190 4160 CAAD      01A3D        8974        LA    JF,PRAME                  NO...GEN INT4                    61313021
 007194 47F0 8642      071F2        8975        BC    UNCOND,LPLS15         LPLS15                               61320021
 007198                             8976 LPLS14 DS    0H                                                         61327021
 007198 45E0 B684      0259C        8977        BAL   JP,GENB                   GEN INT5                         61334021
 00719C D201 CCCA CB45 01C5A 01AD5  8978          MVC   RCGN(LX2),GNPF           GEN                             61341021
 0071A2 45E0 B76A      02682        8979        BAL   JP,GNRCLL                     RPT-CALL PGF-ROUT            61348021
 0071A6                             8980 LPLS16 DS    0H                                                         61355021
 0071A6 9101 D360      00390        8981          TM    SCNDTM,XX01              2ND TIME THRU                   61362021
 0071AA 4710 8602      071B2        8982        BC    ONES,LPLS26               YES..SKIP                        61369021
 0071AE 45E0 B7EE      02706        8983        BAL   JP,GNPER                  NO...GEN .                       61376021
 0071B2                             8984 LPLS26 DS    0H                                                         61383021
 0071B2 D201 CCCA CB69 01C5A 01AF9  8985          MVC   RCGN(LX2),GNRLS          GEN                             61390021
 0071B8 45E0 B76A      02682        8986        BAL   JP,GNRCLL                     RPT-CALL RLS-ROUT            61397021
 0071BC 9101 D360      00390        8987          TM    SCNDTM,XX01              2ND TIME THRU                   61404021
 0071C0 4710 8654      07204        8988        BC    ONES,LPLS17               YES                              61411021
 0071C4 45E0 B736      0264E        8989        BAL   JP,GNGN                   GET GN                           61418021
 0071C8 D201 CD26 CCC4 01CB6 01C54  8990          MVC   SVGNM2(LX2),GPTID1       SAVE GN                         61425021
 0071CE D201 CCD2 CCC4 01C62 01C54  8991          MVC   GOGN(LX2),GPTID1         GEN                             61432021
 0071D4 45E0 B782      0269A        8992        BAL   JP,GNGO                       GO TO GN                     61439021
 0071D8 45E0 B7EE      02706        8993        BAL   JP,GNPER                  GEN .                            61446021
 0071DC D201 CCC4 CD24 01C54 01CB4  8994          MVC   GPTID1(LX2),SVGNM1       GEN                             61453021
 0071E2 4160 CCC3      01C53        8995        LA    JF,GPTID                      GN                           61460021
 0071E6 45E0 B684      0259C        8996        BAL   JP,GENB                          FOR FRS.GRP EQ 1          61467021
 0071EA 9601 D360      00390        8997          OI    SCNDTM,XX01              TURN ON 2ND TIME THRU           61474021
 0071EE 47F0 8590      07140        8998        BC    UNCOND,LPLS4              CONTINUE                         61481021
 0071F2                             8999 LPLS15 DS    0H                                                         61488021
 0071F2 45E0 B684      0259C        9000        BAL   JP,GENB                   GEN INT4                         61495021
 0071F6 D201 CCCA CB45 01C5A 01AD5  9001          MVC   RCGN(LX2),GNPF           GEN                             61502021
 0071FC 45E0 B76A      02682        9002        BAL   JP,GNRCLL                     RPT-CALL PGF-ROUT            61509021
 007200 47F0 85F6      071A6        9003        BC    UNCOND,LPLS16             CONTINUE                         61516021
 007204                             9004 LPLS17 DS    0H                                                         61523021
 007204 94FE D360      00390        9005          NI    SCNDTM,XXFE              RESET                           61530021
 007208 45E0 B834      0274C        9006        BAL   JP,GNELSE                 GEN ELSE                         61537021
                                    9007 * RCGN STILL HAS GN FOR RLS-ROUT                                        61544021
 00720C 45E0 B76A      02682        9008        BAL   JP,GNRCLL                 GEN RPT-CALL RLS-ROUT            61551021
 007210                             9009 LPLS18 DS    0H                                                         61558021
 007210 45E0 B814      0272C        9010        BAL   JP,GNADD                  GEN ADD                          61565021
 007214                             9011 LPLS28 DS    0H                                                         61572021
 007214 4160 C9B3      01943        9012          LA    JF,LN01+NX1              GEN                             61579021
 007218 45E0 B684      0259C        9013        BAL   JP,GENB                       REL LIN                      61586021
 00721C 45E0 B7E6      026FE        9014        BAL   JP,GNTO                   GEN TO                           61593021
 007220 9101 D360      00390        9015          TM    SCNDTM,XX01              2ND TIME THRU                   61600021
1PH1A     IKFCBL10                                                                                              PAGE  185
-  LOC  OBJECT CODE    ADDR1 ADDR2  STMT   SOURCE STATEMENT                                       ASM 0201 11.03 02/14/15
0007224 4710 8690      07240        9016        BC    ONES,LPLS19               YES                              61607021
 007228 4130 9C10      06AB0        9017        LA    JC,LNMCON                 GEN LIN.NUM                      61614021
 00722C 45E0 B7FE      02716        9018        BAL   JP,GNXPX                  GEN LIN.NUM                      61621021
 007230 9120 D362      00392        9019          TM    PGESW,XX20               PAGE CLAUSE SPECIFIED           61628021
 007234 4780 870E      072BE        9020        BC    ZERO,LPLS50               NO...SKIP                        61635021
 007238 9601 D360      00390        9021          OI    SCNDTM,XX01              NO...TURN ON                    61642021
 00723C 47F0 8660      07210        9022        BC    UNCOND,LPLS18         LPLS18                               61649021
 007240                             9023 LPLS19 DS    0H                                                         61656021
 007240 45E0 B7BE      026D6        9024        BAL   JP,GNRPN                  GEN RPT-NM                       61663021
 007244 45E0 B7CE      026E6        9025        BAL   JP,GNLCTR                 GEN LC                           61670021
 007248 45E0 B7EE      02706        9026        BAL   JP,GNPER                  GEN .                            61677021
 00724C 9108 D366      00396        9027          TM    LN01SW,XX08              1ST LINE PROCESSED              61684021
 007250 4710 8712      072C2        9028        BC    ONES,NLNXIT               YES..EXIT                        61691021
 007254 D201 CCC4 CD26 01C54 01CB6  9029          MVC   GPTID1(LX2),SVGNM2       GEN                             61698021
 00725A 4160 CCC3      01C53        9030        LA    JF,GPTID                      GN                           61705021
 00725E 45E0 B684      0259C        9031        BAL   JP,GENB                          FOR EXIT                  61712021
 007262 45E0 9A46      068E6        9032        BAL   JP,GNM1T                  GEN MOVE ONE TO                  61719021
 007266 4130 9BD3      06A73        9033        LA    JC,FGPCON                 GEN                              61726021
 00726A 45E0 B7FE      02716        9034        BAL   JP,GNXPX                      FRS.GRP                      61733021
 00726E 47F0 8712      072C2        9035        BC    UNCOND,NLNXIT         NLNXIT                               61740021
 007272                             9036 LPLUS5 DS    0H                                                         61747021
 007272 9140 C9E4      01974        9037          TM    TYPECD,XX40              TYPE RF                         61754021
 007276 4780 870E      072BE        9038        BC    ZERO,LPLS50               NO...EXIT                        61761021
 00727A 9101 D360      00390        9039          TM    SCNDTM,XX01              2ND TIME THRU                   61768021
 00727E 4710 86FE      072AE        9040        BC    ONES,LPLS5                YES..FINISH LAST PART            61775021
 007282 45E0 B834      0274C        9041        BAL   JP,GNELSE                 GEN ELSE                         61782021
 007286 45E0 B7AC      026C4        9042        BAL   JP,GNIF                   GEN IF                           61789021
 00728A 45E0 B7BE      026D6        9043        BAL   JP,GNRPN                  GEN RPT-NM                       61796021
 00728E 45E0 B7CE      026E6        9044        BAL   JP,GNLCTR                 GEN LC                           61803021
 007292 4160 A106      02CF6        9045        LA    JF,NOTCON                 GEN                              61810021
 007296 45E0 B684      0259C        9046        BAL   JP,GENB                       NOT                          61817021
 00729A 45E0 B7C6      026DE        9047        BAL   JP,GNGRTH                 GEN GREATER THAN                 61824021
 00729E 4160 CAC1      01A51        9048        LA    JF,PRAMF                  GEN                              61831021
 0072A2 45E0 B684      0259C        9049        BAL   JP,GENB                       INTEGER 5                    61838021
 0072A6 9601 D360      00390        9050          OI    SCNDTM,XX01              TURN ON 2ND TIME THRU SWITCH    61845021
 0072AA 47F0 8562      07112        9051        BC    UNCOND,LPL121             GO FINISH                        61852021
                                    9052 *                                                                       61859021
 0072AE                             9053 LPLS5  DS    0H                                                         61866021
 0072AE 45E0 B834      0274C        9054        BAL   JP,GNELSE                 GEN ELSE                         61873021
 0072B2                             9055 LPLS51 DS    0H                                                         61880021
 0072B2 94FE D360      00390        9056          NI    SCNDTM,XXFE              RESET                           61887021
 0072B6 9608 D366      00396        9057          OI    LN01SW,XX08              TURN ON                         61894021
 0072BA 47F0 849A      0704A        9058        BC    UNCOND,LPLUS0             FINISH                           61901021
                                    9059 *                                                                       61908021
 0072BE                             9060 LPLS50 DS    0H                                                         61915021
 0072BE 45E0 B7EE      02706        9061        BAL   JP,GNPER                  GEN .                            61922021
 0072C2                             9062 NLNXIT DS    0H                                                         61929021
 0072C2 94FE D360      00390        9063          NI    SCNDTM,XXFE              RESET                           61936021
 0072C6 58E0 D8CC      008FC        9064        L     JP,JPLNSV                 RETURN                           61943021
 0072CA 07FE                        9065        BCR   UNCOND,JP                     ON JP                        61950021
                                    9066 *                                                                       61957021
                                    9067 *                                                                       61964021
 0072CC                             9068 PRTPA  DS    0H                                                         61971021
 0072CC 50E0 D8D8      00908        9069        ST    JP,JPCTSV                                                  61978021
 0072D0 45E0 9A30      068D0        9070        BAL   JP,GNMZT                  GEN MOVE ZERO TO                 61985021
1PH1A     IKFCBL10                                                                                              PAGE  186
-  LOC  OBJECT CODE    ADDR1 ADDR2  STMT   SOURCE STATEMENT                                       ASM 0201 11.03 02/14/15
00072D4 4160 CBCD      01B5D        9071        LA    JF,PRSWCN                  GEN PRINT-SWITCH                61992021
 0072D8 45E0 B684      0259C        9072        BAL   JP,GENB               FILE 2                               61999021
 0072DC 58E0 D8D8      00908        9073        L     JP,JPCTSV                                                  62006021
 0072E0 07FE                        9074        BCR   UNCOND,JP             RETURN                               62013021
                                    9075 *                                                                       62020021
                                    9076 *                                                                       62027021
 0072E2                             9077 LNT    DS    0H                                                         62034021
 0072E2 50E0 D8CC      008FC        9078        ST    JP,JPLNSV                 SAVE RETURN                      62041021
 0072E6 9108 D366      00396        9079          TM    LN01SW,XX08              1ST LINE PROCESSED              62048021
 0072EA 4780 874C      072FC        9080        BC    ZERO,LNT1                 NO...GEN 1ST LINE LOGIC          62055021
 0072EE D201 CCCA CB4B 01C5A 01ADB  9081          MVC   RCGN(LX2),GNWR           YES..GEN                        62062021
 0072F4 45E0 B76A      02682        9082        BAL   JP,GNRCLL                     RPT-CALL GNWR                62069021
 0072F8 47F0 87A2      07352        9083        BC    UNCOND,LNT3               GO FINISH                        62076021
 0072FC                             9084 LNT1   DS    0H                                                         62083021
 0072FC 45E0 B7AC      026C4        9085        BAL   JP,GNIF                   GEN IF                           62090021
 007300 45E0 B7BE      026D6        9086        BAL   JP,GNRPN                  GEN RPT-NAME                     62097021
 007304 45E0 B7CE      026E6        9087        BAL   JP,GNLCTR                 GEN LC                           62104021
 007308 4160 A106      02CF6        9088        LA    JF,NOTCON                 GEN                              62111021
 00730C 45E0 B684      0259C        9089        BAL   JP,GENB                       NOT                          62118021
 007310 45E0 B7F6      0270E        9090        BAL   JP,GNLSTH                 GEN LESS THAN                    62125021
 007314 4160 C9B3      01943        9091          LA    JF,LN01+NX1              GEN                             62132021
 007318 45E0 B684      0259C        9092        BAL   JP,GENB                       INTEGER                      62139021
 00731C 9104 C9E4      01974        9093          TM    TYPECD,XX04              TYPE CF                         62146021
 007320 4710 877C      0732C        9094        BC    ONES,LNT10                YES                              62153021
 007324 9140 C9E5      01975        9095          TM    TYPECD+NX1,XX40          NO...TYPE CFF                   62160021
 007328 4780 878A      0733A        9096        BC    ZERO,LNT11                NO...CONTINUE                    62167021
 00732C                             9097 LNT10  DS    0H                                                         62174021
 00732C D201 CCCA CB45 01C5A 01AD5  9098          MVC   RCGN(LX2),GNPF           GEN                             62181021
 007332 45E0 B76A      02682        9099        BAL   JP,GNRCLL                     RPT-CALL PGF-ROUT            62188021
 007336 47F0 87A2      07352        9100        BC    UNCOND,LNT3               GO GEN .                         62195021
 00733A                             9101 LNT11  DS    0H                                                         62202021
 00733A D201 CCCA CB45 01C5A 01AD5  9102          MVC   RCGN(LX2),GNPF           GEN RPT-CALL GNPF               62209021
 007340 91F0 C9E4      01974        9103          TM    TYPECD,XXF0              RH PH PF OR RF                  62216021
 007344 4780 879E      0734E        9104        BC    ZERO,LNT2                 NO                               62223021
 007348 D201 CCCA CB4D 01C5A 01ADD  9105          MVC   RCGN(LX2),GNWR1          GEN RPT-CALL GNWR1              62230021
 00734E                             9106 LNT2   DS    0H                                                         62237021
 00734E 45E0 B76A      02682        9107        BAL   JP,GNRCLL                 GEN RPT-CALL GNXX                62244021
 007352                             9108 LNT3   DS    0H                                                         62251021
 007352 45E0 B7EE      02706        9109        BAL   JP,GNPER                  GEN .                            62258021
 007356 D213 CBE3 C9B3 01B73 01943  9110          MVC   LNVAL(LX20),LN01+NX1      INTEGER TO LNVAL               62265021
 00735C 45E0 82F8      06EA8        9111        BAL   JP,MVINT                  GEN MOVE INT TO ABS.LIN ETC      62272021
 007360 45E0 B7EE      02706        9112        BAL   JP,GNPER                  GEN .                            62279021
 007364 58E0 D8CC      008FC        9113        L     JP,JPLNSV                 RETURN                           62286021
 007368 07FE                        9114        BCR   UNCOND,JP                     ON JP                        62293021
                                    9115 *                                                                       62300021
                                    9116 *                                                                       62307021
                                    9117 * GNPSCK ROUTINE GENS PRINT-SWITCH CHECK FOLLOWING UBR CODING           62314021
                                    9118 *    FOR RH, PH, CHF, CH..., CF..., CFF, PF, RF.                        62321021
 00736A                             9119 GNPSCK DS    0H                                                         62328021
 00736A 9140 D360      00390        9120          TM    RDCLSW,XX40               IN RD CLOSE ROUTINE...         62335021
 00736E 077E                        9121        BCR   NOTZER,JP                  YES...DON'T GEN PRT-SW CHK      62342021
 007370 50E0 D8C4      008F4        9122        ST    JP,JPSAV2                                                  62349021
 007374 45E0 B7AC      026C4        9123        BAL   JP,GNIF                    GEN IF                          62356021
 007378 4160 CBCD      01B5D        9124        LA    JF,PRSWCN                  GEN PRINT-SWITCH                62363021
 00737C 45E0 B684      0259C        9125        BAL   JP,GENB               FILE 2                               62370021
1PH1A     IKFCBL10                                                                                              PAGE  187
-  LOC  OBJECT CODE    ADDR1 ADDR2  STMT   SOURCE STATEMENT                                       ASM 0201 11.03 02/14/15
0007380 45E0 B82C      02744        9126        BAL   JP,GNEQ                    GEN EQUAL                       62377021
 007384 45E0 B81C      02734        9127        BAL   JP,GNONE                   GEN ONE                         62384021
 007388 45E0 B736      0264E        9128        BAL   JP,GNGN                    GEN GN=N                        62391021
 00738C D201 CD20 CCC4 01CB0 01C54  9129          MVC   GNNUM(LX2),GPTID1         SAVE GNNUM FOR EXIT CODING     62398021
 007392 9102 D369      00399        9130          TM    PRSWCF,XX02              IN CF EXIT CODE                 62405021
 007396 4780 87EE      0739E        9131        BC    ZERO,GNPCK1               NO...CONTINUE                    62412021
 00739A 45E0 871C      072CC        9132        BAL   JP,PRTPA                  GEN MOVE 0 TO PRINT-SWITCH       62419021
 00739E                             9133 GNPCK1 DS    0H                                                         62426021
 00739E D201 CCD2 CD20 01C62 01CB0  9134          MVC   GOGN(LX2),GNNUM           GEN GO TO GN=N                 62433021
 0073A4 45E0 B782      0269A        9135        BAL   JP,GNGO               GNGO                                 62440021
 0073A8 45E0 B7EE      02706        9136        BAL   JP,GNPER                   GEN .                           62447021
 0073AC 58E0 D8C4      008F4        9137        L     JP,JPSAV2                                                  62454021
 0073B0 07FE                        9138        BCR   UNCOND,JP                 RETURN                           62461021
                                    9139 *                                                                       62468021
                                    9140 *                                                                       62475021
 0073B2                             9141 CHKLIN DS    0H                                                         62482021
 0073B2 50E0 D8C4      008F4        9142        ST    JP,JPSAV2                                                  62489021
 0073B6 4120 DC28      00C58        9143        LA    JB,MSG119                 INDICATE MSG119..LINE ERROR      62496021
 0073BA D201 CD58 C6E2 01CE8 01672  9144          MVC   ABERCN(LX2),CURGCN       MOVE CURGCN TO GCNTBL BUFFER    62503021
 0073C0 9104 D366      00396        9145          TM    NGPSW,XX04               PROCESSING NEXT GROUP           62510021
 0073C4 4780 882C      073DC        9146        BC    ZERO,CHKLN1               NO...CONTINUE                    62517021
 0073C8 4120 DBC4      00BF4        9147        LA    JB,MSG94                  INDICATE MSG94..NXT GRP ERR      62524021
 0073CC 4810 C9E2      01972        9148        LH    JA,NPINBI                 YES..GET INTEGER IN BINARY       62531021
 0073D0 9180 C9E4      01974        9149          TM    TYPECD,XX80              TYPE RH                         62538021
 0073D4 4710 8874      07424        9150        BC    ONES,CKRHRF               YES                              62545021
 0073D8 47F0 8860      07410        9151        BC    UNCOND,CKCF               TREAT AS CF                      62552021
 0073DC                             9152 CHKLN1 DS    0H                                                         62559021
 0073DC 4810 C9C8      01958        9153        LH    JA,LINBI                  INTEGER IN BINARY IN JA          62566021
 0073E0 91C0 C9E4      01974        9154          TM    TYPECD,XXC0              RH OR RF                        62573021
 0073E4 4770 8874      07424        9155        BC    NOTZER,CKRHRF             YES..CHECK                       62580021
 0073E8 9120 C9E4      01974        9156          TM    TYPECD,XX20              PH                              62587021
 0073EC 4710 8884      07434        9157        BC    ONES,CKPH                 YES..CHECK                       62594021
 0073F0 9110 C9E4      01974        9158          TM    TYPECD,XX10              PF                              62601021
 0073F4 4710 8898      07448        9159        BC    ONES,CKPF                 YES..CHECK                       62608021
 0073F8 9180 C9E5      01975        9160          TM    TYPECD+NX1,XX80          CHF                             62615021
 0073FC 4710 88A4      07454        9161        BC    ONES,CKCHDE               YES..CHECK                       62622021
 007400 9140 C9E5      01975        9162          TM    TYPECD+NX1,XX40          CFF                             62629021
 007404 4710 8860      07410        9163        BC    ONES,CKCF                 YES..CHECK                       62636021
 007408 910A C9E4      01974        9164          TM    TYPECD,XX0A              CH OR DE                        62643021
 00740C 4770 88A4      07454        9165        BC    NOTZER,CKCHDE             YES..CHECK                       62650021
 007410                             9166 CKCF   DS    0H                        MUST BE CF                       62657021
                                    9167 * INT MUST BE EQ GT INT3, EQ LT INT5                                    62664021
 007410 4910 CAFA      01A8A        9168        CH    JA,INT3BN                 INTEGER : INT3                   62671021
 007414 4740 88B4      07464        9169        BC    LO,INTERR                 INT LT INT3...ERROR              62678021
 007418 4910 CAFE      01A8E        9170        CH    JA,INT5BN                 INTEGER : INT5                   62685021
 00741C                             9171 CHKH1  DS    0H                                                         62692021
 00741C 4720 88B4      07464        9172        BC    HI,INTERR                 INT GT INT5...ERROR              62699021
 007420 47F0 88F4      074A4        9173        BC    UNCOND,CHKXIT             EXIT                             62706021
 007424                             9174 CKRHRF DS    0H                                                         62713021
                                    9175 *   INT MUST BE LT OR EQ INT1, EQ OR GT INT2                            62720021
 007424 4910 CAF8      01A88        9176        CH    JA,INT2BN                 INTEGER : INT2                   62727021
 007428 4740 88B4      07464        9177        BC    LO,INTERR                 INT LT INT2...ERROR              62734021
 00742C                             9178 CKINT1 DS    0H                                                         62741021
 00742C 4910 CAF6      01A86        9179        CH    JA,INT1BN                 INTEGER : INT1                   62748021
 007430 47F0 886C      0741C        9180        BC    UNCOND,CHKH1              GO CHECK FOR HI CONDITION        62755021
1PH1A     IKFCBL10                                                                                              PAGE  188
-  LOC  OBJECT CODE    ADDR1 ADDR2  STMT   SOURCE STATEMENT                                       ASM 0201 11.03 02/14/15
0007434                             9181 CKPH   DS    0H                                                         62762021
                                    9182 *  INT MUST BE EQ OR GT INT2, LT INT3                                   62769021
 007434 4910 CAF8      01A88        9183        CH    JA,INT2BN                 INTEGER : INT2                   62776021
 007438 4740 88B4      07464        9184        BC    LO,INTERR                 INT LT INT2...ERROR              62783021
 00743C 4910 CAFA      01A8A        9185        CH    JA,INT3BN                 INTEGER : INT3                   62790021
 007440 47B0 88B4      07464        9186        BC    NOTLO,INTERR              INT EQ OR GT INT3...ERROR        62797021
 007444 47F0 88F4      074A4        9187        BC    UNCOND,CHKXIT             EXIT                             62804021
 007448                             9188 CKPF   DS    0H                                                         62811021
                                    9189 *  INT MUST BE GT INT5, EQ OR LT INT1                                   62818021
 007448 4910 CAFE      01A8E        9190        CH    JA,INT5BN                 INTEGER : INT5                   62825021
 00744C 47D0 88B4      07464        9191        BC    NOTHI,INTERR              INT LT OR EQ INT5...ERROR        62832021
 007450 47F0 887C      0742C        9192        BC    UNCOND,CKINT1             GO CHECK INT1                    62839021
 007454                             9193 CKCHDE DS    0H                                                         62846021
                                    9194 *  INT MUST BE EQ OR GT INT3, LT OR EQ INT4                             62853021
 007454 4910 CAFA      01A8A        9195        CH    JA,INT3BN                 INTEGER : INT3                   62860021
 007458 4740 88B4      07464        9196        BC    LO,INTERR                 INT LT INT3...ERROR              62867021
 00745C 4910 CAFC      01A8C        9197        CH    JA,INT4BN                 INTEGER : INT4                   62874021
 007460 47F0 886C      0741C        9198        BC    UNCOND,CHKH1              GO CHECK FOR HI CONDITION        62881021
 007464                             9199 INTERR DS    0H                                                         62888021
 007464 9110 D362      00392        9200          TM    RELABS,XX10              SHOULD MSG BE PUT IN GCNTBL     62895021
 007468 4710 88D8      07488        9201        BO    INTER2                    NO...GEN MSG                     62902021
 00746C 4910 CAF6      01A86        9202        CH    JA,INT1BN                 INTEGER : INT1                   62909021
 007470 4720 88D8      07488        9203        BH    INTER2                    HI..EXCEEDS PAGE LIM..ERROR      62916021
 007474 45E0 8B98      07748        9204        BAL   JP,GCNTBM                 GO PUT GCN IN GCNTBL             62923021
 007478 9104 D366      00396        9205          TM    NGPSW,XX04               PROCESSING NEXT GROUP           62930021
 00747C 4710 893C      074EC        9206        BO    CHKXTX                    YES..EXIT                        62937021
 007480 4810 C9C8      01958        9207        LH    JA,LINBI                  RESET JA TO INTEGER IN BIN       62944021
 007484 47F0 88F4      074A4        9208        B     CHKXIT                    NO...FINISH LINE                 62951021
 007488                             9209 INTER2 DS    0H                                                         62958021
 007488 9104 D366      00396        9210          TM    NGPSW,XX04               PROCESSING NEXT GROUP           62965021
 00748C 4780 88EC      0749C        9211        BC    ZERO,INTER1               NO                               62972021
 007490 45E0 DBC4      00BF4        9212        BAL   JP,MSG94                  ERROR                            62979021
 007494 58F0 C020      00FB0        9213        L     JQ,ADPR01                 RESTORE BASE                     62986021
 007498 47F0 893C      074EC        9214        BC    UNCOND,CHKXTX         CHKXTX                               62993021
 00749C                             9215 INTER1 DS    0H                                                         63000021
 00749C 45E0 DC28      00C58        9216        BAL   JP,MSG119             ERROR MSG                            63007021
 0074A0 58F0 C020      00FB0        9217        L     JQ,ADPR01                 RESTORE BASE                     63014021
 0074A4                             9218 CHKXIT DS    0H                                                         63021021
 0074A4 9104 D366      00396        9219          TM    NGPSW,XX04               PROCESSING NEXT GROUP           63028021
 0074A8 4710 893C      074EC        9220        BC    ONES,CHKXTX               YES..EXIT                        63035021
 0074AC 9104 D364      00394        9221          TM    FSTLNA,XX04              1ST ABS LINE PROCESSED          63042021
 0074B0 4780 8920      074D0        9222        BC    ZERO,CHKXT2               NO...CONTINUE                    63049021
 0074B4 4910 CB00      01A90        9223        CH    JA,SVLNBI                 INTEGER IS TO LAST VALUE         63056021
 0074B8 4720 8920      074D0        9224        BC    POS,CHKXT2                HI...OK...CONTINUE               63063021
 0074BC 4780 8918      074C8        9225        BC    EQ,CHKXT1                 EQ...IGNORE                      63070021
 0074C0 45E0 DCD4      00D04        9226        BAL   JP,MSG162                 LESS THAN LAST...ERROR           63077021
 0074C4 58F0 C020      00FB0        9227        L     JQ,ADPR01                 RESTORE BASE                     63084021
 0074C8                             9228 CHKXT1 DS    0H                                                         63091021
 0074C8 9601 D364      00394        9229          OI    BADLNA,XX01              TURN ON SWITCH TO IGNORE        63098021
 0074CC 47F0 893C      074EC        9230        BC    UNCOND,CHKXTX             GO EXIT                          63105021
 0074D0                             9231 CHKXT2 DS    0H                                                         63112021
 0074D0 9102 D364      00394        9232          TM    FSTLNR,XX02              WAS LAST LINE RELATIVE          63119021
 0074D4 4780 8934      074E4        9233        BC    ZERO,CHKXT3               NO...OK...CONTINUE               63126021
 0074D8 45E0 DCD8      00D08        9234        BAL   JP,MSG163                 YES..ERROR                       63133021
 0074DC 58F0 C020      00FB0        9235        L     JQ,ADPR01                 RESTORE BASE                     63140021
1PH1A     IKFCBL10                                                                                              PAGE  189
-  LOC  OBJECT CODE    ADDR1 ADDR2  STMT   SOURCE STATEMENT                                       ASM 0201 11.03 02/14/15
00074E0 47F0 8918      074C8        9236        BC    UNCOND,CHKXT1             GO FINISH                        63147021
 0074E4                             9237 CHKXT3 DS    0H                                                         63154021
 0074E4 9604 D364      00394        9238          OI    FSTLNA,XX04              TURN ON 1ST ABS LINE DONE       63161021
 0074E8 4010 CB00      01A90        9239        STH   JA,SVLNBI                 SAVE ABS LINE                    63168021
 0074EC                             9240 CHKXTX DS    0H                                                         63175021
 0074EC 58E0 D8C4      008F4        9241        L     JP,JPSAV2                                                  63182021
 0074F0 07FE                        9242        BCR   UNCOND,JP             RETURN                               63189021
                                    9243 *                                                                       63196021
 0074F2                             9244 CHKPGS DS    0H                                                         63203021
 0074F2 9120 D362      00392        9245          TM    PGESW,XX20               WAS A PG-CLS SPEC               63210021
 0074F6 071E                        9246        BCR   ONES,JP                   YES..OK..RETURN                  63217021
 0074F8 45E0 DCDC      00D0C        9247        BAL   JP,MSG164                 NO...ERROR                       63224021
 0074FC                             9248 CHKPG1 DS    0H                                                         63231021
 0074FC 58F0 C020      00FB0        9249        L     JQ,ADPR01                 RESTORE BASE                     63238021
 007500 9180 D364      00394        9250          TM    SCAN02,XX80              IN 02 SCAN                      63245021
 007504 4780 F0AE      07936        9251        BC    ZERO,PERD01               NO...RETURN TO PERD0I            63252021
 007508 47F0 F266      07AEE        9252        BC    UNCOND,PLNXT1             YES                              63259021
                                    9253 *                                                                       63266021
                                    9254 *DONGP PROCESS NEXT GROUP CLAUSE                                        63273021
 00750C                             9255 DONGP  DS    0H                                                         63280021
 00750C 50E0 D8B0      008E0        9256        ST    JP,JPNGPS                                                  63287021
 007510 9110 D365      00395        9257          TM    NXGPSW,XX10               NEXT GROUP SPECIFIED           63294021
 007514 4780 8AD2      07682        9258        BC    ZERO,N01XIT                NO                              63301021
 007518 D214 C9B2 C9CC 01942 0195C  9259          MVC   LN01(LX21),NG01           SET UP FOR NXT GROUP           63308021
 00751E D201 C9C8 C9E2 01958 01972  9260          MVC   LINBI(LX2),NPINBI                                        63315021
 007524 D201 C9CA C9E2 0195A 01972  9261          MVC   LPINBI(LX2),NPINBI                                       63322021
 00752A 9604 D366      00396        9262          OI    NGPSW,XX04                FLAG IN NX GP CL               63329021
 00752E 9500 C9CC      0195C        9263          CLI   NG01,XX00                 NXT PG                         63336021
 007532 4770 89B8      07568        9264        BC    NOTEQ,EN1C                 NO                              63343021
 007536 9180 C9E4      01974        9265          TM    TYPECD,XX80              TYPE RH                         63350021
 00753A 4780 899C      0754C        9266        BC    ZERO,DONGP1               NO...MUST BE BODY GROUP          63357021
 00753E D201 CCCA CB4D 01C5A 01ADD  9267          MVC   RCGN(LX2),GNWR1          YES..GEN                        63364021
 007544 45E0 B76A      02682        9268        BAL   JP,GNRCLL                     RPT-CALL GNWR1               63371021
 007548 47F0 8AD2      07682        9269        BC    UNCOND,N01XIT             EXIT                             63378021
 00754C                             9270 DONGP1 DS    0H                                                         63385021
                                    9271 * MUST BE BODY GROUP                                                    63392021
 00754C D213 CBE3 CAC1 01B73 01A51  9272          MVC   LNVAL(LX20),PRAMF        MOVE LAST-FTNG TO LNVAL         63399021
 007552 45E0 82F8      06EA8        9273        BAL   JP,MVINT                  GO GEN MOVE ETC                  63406021
 007556 D201 CCCA CB4B 01C5A 01ADB  9274          MVC   RCGN(LX2),GNWR           GEN                             63413021
 00755C 45E0 B76A      02682        9275        BAL   JP,GNRCLL                     RPT-CALL GNWR                63420021
 007560 45E0 B7EE      02706        9276        BAL   JP,GNPER                  GEN .                            63427021
 007564 47F0 8AD2      07682        9277        BC    UNCOND,N01XIT             GO EXIT                          63434021
 007568 9501 C9CC      0195C        9278 EN1C     CLI   NG01,XX01                 INTEGER                        63441021
 00756C 4770 8A2E      075DE        9279        BC    NOTEQ,EN1D                 NO                              63448021
 007570 D213 CBE3 C9CD 01B73 0195D  9280          MVC   LNVAL(LX20),NG01+NX1      INT TO LNVAL                   63455021
 007576 45E0 82CE      06E7E        9281        BAL   JP,IFINT                  GO GEN IF INT ETC                63462021
 00757A 9180 C9E4      01974        9282          TM    TYPECD,XX80              TYPE RH                         63469021
 00757E 4780 89F6      075A6        9283        BC    ZERO,EN1C1                NO...MUST BE BODY GROUP          63476021
 007582 D201 CCCA CB4D 01C5A 01ADD  9284          MVC   RCGN(LX2),GNWR1          YES..GEN                        63483021
 007588 45E0 B76A      02682        9285        BAL   JP,GNRCLL                     RPT-CALL GNWR1               63490021
 00758C 45E0 B7EE      02706        9286        BAL   JP,GNPER                  GEN .                            63497021
 007590 45E0 82F8      06EA8        9287        BAL   JP,MVINT                  GO GEN MOVE ETC                  63504021
 007594 D201 CCCA CB4B 01C5A 01ADB  9288          MVC   RCGN(LX2),GNWR           GEN                             63511021
 00759A 45E0 B76A      02682        9289        BAL   JP,GNRCLL                     RPT-CALL WRT-ROUT            63518021
 00759E                             9290 EN1C2  DS    0H                                                         63525021
1PH1A     IKFCBL10                                                                                              PAGE  190
-  LOC  OBJECT CODE    ADDR1 ADDR2  STMT   SOURCE STATEMENT                                       ASM 0201 11.03 02/14/15
000759E 45E0 B7EE      02706        9291        BAL   JP,GNPER                  GEN .                            63532021
 0075A2 47F0 8AD2      07682        9292        BC    UNCOND,N01XIT         NO1XIT                               63539021
 0075A6                             9293 EN1C1  DS    0H                                                         63546021
 0075A6 9620 D365      00395        9294          OI    NGINT,XX20               TURN ON NXT GROUP INT SW        63553021
 0075AA 45E0 82F8      06EA8        9295        BAL   JP,MVINT                  GO GEN MOVE ETC                  63560021
 0075AE D213 CBE3 CAC1 01B73 01A51  9296          MVC   LNVAL(LX20),PRAMF        GET LAST-FTNG                   63567021
 0075B4 45E0 82F8      06EA8        9297        BAL   JP,MVINT                  GO GEN MOVE ETC                  63574021
 0075B8 D201 CCCA CB4B 01C5A 01ADB  9298          MVC   RCGN(LX2),GNWR           GEN                             63581021
 0075BE 45E0 B76A      02682        9299        BAL   JP,GNRCLL                     RPT-CALL WRT-ROUT            63588021
 0075C2 45E0 B834      0274C        9300        BAL   JP,GNELSE                 GEN ELSE                         63595021
 0075C6 D213 CBE3 C9CD 01B73 0195D  9301          MVC   LNVAL(LX20),NG01+NX1      GET INTEGER                    63602021
 0075CC 45E0 82F8      06EA8        9302        BAL   JP,MVINT                  GO GEN MOVE ETC                  63609021
 0075D0 D201 CCCA CB4B 01C5A 01ADB  9303          MVC   RCGN(LX2),GNWR           GEN                             63616021
 0075D6 45E0 B76A      02682        9304        BAL   JP,GNRCLL                     RPT-CALL WRT-ROUT            63623021
 0075DA 47F0 89EE      0759E        9305        BC    UNCOND,EN1C2              GO FINISH                        63630021
 0075DE                             9306 EN1D   DS    0H                                                         63637021
                                    9307 *  MUST BE + INTEGER                                                    63644021
 0075DE 9120 D362      00392        9308          TM    PGESW,XX20               PAGE CLAUSE SPECIFIED           63651021
 0075E2 4780 8A7C      0762C        9309        BC    ZERO,EN1D11               NO...SKIP                        63658021
 0075E6 45E0 B7AC      026C4        9310        BAL   JP,GNIF                   GEN IF                           63665021
 0075EA 45E0 B7BE      026D6        9311        BAL   JP,GNRPN                  GEN RPT-NM                       63672021
 0075EE 45E0 B7CE      026E6        9312        BAL   JP,GNLCTR                 GEN LC                           63679021
 0075F2 4160 ACAA      0389A        9313        LA    JF,PLUSCD                 GEN                              63686021
 0075F6 45E0 B684      0259C        9314        BAL   JP,GENB                       PLUS                         63693021
 0075FA 4160 C9CD      0195D        9315          LA    JF,NG01+NX1              GEN                             63700021
 0075FE 45E0 B684      0259C        9316        BAL   JP,GENB                       REL LINE                     63707021
 007602 9180 C9E4      01974        9317          TM    TYPECD,XX80              TYPE RH                         63714021
 007606 4780 8ABE      0766E        9318        BC    ZERO,EN1D1                NO                               63721021
 00760A 4160 A106      02CF6        9319        LA    JF,NOTCON                 GEN                              63728021
 00760E 45E0 B684      0259C        9320        BAL   JP,GENB                       NOT                          63735021
 007612 45E0 B7F6      0270E        9321        BAL   JP,GNLSTH                 GEN LESS THAN                    63742021
 007616 4160 CA99      01A29        9322        LA    JF,PRAMD                  GEN                              63749021
 00761A 45E0 B684      0259C        9323        BAL   JP,GENB                       INT3  1ST DETAIL             63756021
 00761E D201 CCCA CB4D 01C5A 01ADD  9324          MVC   RCGN(LX2),GNWR1          GEN                             63763021
 007624 45E0 B76A      02682        9325        BAL   JP,GNRCLL                     RPT-CALL GNWR1               63770021
 007628                             9326 EN1D10 DS    0H                                                         63777021
 007628 45E0 B834      0274C        9327        BAL   JP,GNELSE                 GEN ELSE                         63784021
 00762C                             9328 EN1D11 DS    0H                                                         63791021
 00762C 4130 C9CD      0195D        9329          LA    JC,NG01+NX1              GEN MOVE                        63798021
 007630 45E0 9A62      06902        9330        BAL   JP,GNMNT                      REL-LINE TO                  63805021
 007634 4130 9C10      06AB0        9331        LA    JC,LNMCON                 GEN                              63812021
 007638 45E0 B7FE      02716        9332        BAL   JP,GNXPX                      LIN.NUM                      63819021
 00763C 9120 D362      00392        9333          TM    PGESW,XX20               PAGE CLAUSE SPECIFIED           63826021
 007640 4780 8AAC      0765C        9334        BC    ZERO,EN1D12               NO...SKIP                        63833021
 007644 45E0 B814      0272C        9335        BAL   JP,GNADD                  GEN ADD                          63840021
 007648 4160 C9CD      0195D        9336          LA    JF,NG01+NX1              GEN                             63847021
 00764C 45E0 B684      0259C        9337        BAL   JP,GENB                       REL LIN                      63854021
 007650 45E0 B7E6      026FE        9338        BAL   JP,GNTO                   GEN TO                           63861021
 007654 45E0 B7BE      026D6        9339        BAL   JP,GNRPN                  GEN RPT-NM                       63868021
 007658 45E0 B7CE      026E6        9340        BAL   JP,GNLCTR                 GEN LC                           63875021
 00765C                             9341 EN1D12 DS    0H                                                         63882021
 00765C D201 CCCA CB4B 01C5A 01ADB  9342          MVC   RCGN(LX2),GNWR           GEN                             63889021
 007662 45E0 B76A      02682        9343        BAL   JP,GNRCLL                     RPT-CALL GNWR                63896021
 007666 45E0 B7EE      02706        9344        BAL   JP,GNPER                  GEN .                            63903021
 00766A 47F0 8AD2      07682        9345        BC    UNCOND,N01XIT             EXIT                             63910021
1PH1A     IKFCBL10                                                                                              PAGE  191
-  LOC  OBJECT CODE    ADDR1 ADDR2  STMT   SOURCE STATEMENT                                       ASM 0201 11.03 02/14/15
000766E                             9346 EN1D1  DS    0H                                                         63917021
 00766E 45E0 B7C6      026DE        9347        BAL   JP,GNGRTH                 GEN GREATER THAN                 63924021
 007672 4160 CAC1      01A51        9348        LA    JF,PRAMF                  GEN                              63931021
 007676 45E0 B684      0259C        9349        BAL   JP,GENB                       INT5  FOOTING                63938021
 00767A 45E0 8ADC      0768C        9350        BAL   JP,GENSUB                 GO GEN SUBTRACT ETC              63945021
 00767E 47F0 8A78      07628        9351        BC    UNCOND,EN1D10             GO FINISH                        63952021
 007682                             9352 N01XIT DS    0H                                                         63959021
 007682 94FB D366      00396        9353          NI    NGPSW,XXFB               RESET IN NEXT GROUP             63966021
 007686 58E0 D8B0      008E0        9354        L     JP,JPNGPS                 RETURN                           63973021
 00768A 07FE                        9355        BCR   UNCOND,JP                     ON JP                        63980021
                                    9356 *                                                                       63987021
 00768C                             9357 GENSUB DS    0H                                                         63994021
 00768C 50E0 D8E8      00918        9358        ST    JP,JPSUBS                 SAVE RETURN                      64001021
 007690 4160 A792      03382        9359        LA    JF,SUBCON                 GEN                              64008021
 007694 45E0 B684      0259C        9360        BAL   JP,GENB                       SUBTRACT                     64015021
 007698 45E0 B7BE      026D6        9361        BAL   JP,GNRPN                  GEN RPT-NM                       64022021
 00769C 45E0 B7CE      026E6        9362        BAL   JP,GNLCTR                 GEN LC                           64029021
 0076A0 4160 A185      02D75        9363        LA    JF,FROMCN                 GEN                              64036021
 0076A4 45E0 B684      0259C        9364        BAL   JP,GENB                       FROM                         64043021
 0076A8 9108 D364      00394        9365          TM    INRLSR,XX08              IN RLS-ROUT GEN                 64050021
 0076AC 4780 8B0C      076BC        9366        BC    ZERO,GENSB1               NO...IN ALS-ROUT GEN             64057021
 0076B0 4160 CAD5      01A65        9367        LA    JF,PRMDM1                 GEN                              64064021
 0076B4 45E0 B684      0259C        9368        BAL   JP,GENB         **********    INT3   MINUS ONE*******      64071021
 0076B8 47F0 8B28      076D8        9369        BC    UNCOND,GENSB2             DO REST                          64078021
 0076BC                             9370 GENSB1 DS    0H                                                         64085021
 0076BC 9104 D366      00396        9371          TM    NGPSW,XX04               IN NEXT GROUP                   64092021
 0076C0 4780 8B20      076D0        9372        BC    ZERO,GNSB10               NO                               64099021
 0076C4 4160 CAC1      01A51        9373        LA    JF,PRAMF                  GEN                              64106021
 0076C8 45E0 B684      0259C        9374        BAL   JP,GENB                       INT5 FOOTING                 64113021
 0076CC 47F0 8B28      076D8        9375        BC    UNCOND,GENSB2             CONTINUE                         64120021
 0076D0                             9376 GNSB10 DS    0H                                                         64127021
 0076D0 4130 9BED      06A8D        9377        LA    JC,ABSCON                 GEN                              64134021
 0076D4 45E0 B7FE      02716        9378        BAL   JP,GNXPX                      ABS.LIN                      64141021
 0076D8                             9379 GENSB2 DS    0H                                                         64148021
 0076D8 4160 A484      03074        9380        LA    JF,GIVCON                 GEN                              64155021
 0076DC 45E0 B684      0259C        9381        BAL   JP,GENB                       GIVING                       64162021
 0076E0 4130 9C10      06AB0        9382        LA    JC,LNMCON                 GEN                              64169021
 0076E4 45E0 B7FE      02716        9383        BAL   JP,GNXPX                      LINE.NUMBER                  64176021
 0076E8 45E0 B7DE      026F6        9384        BAL   JP,GNMOVE                 GEN MOVE                         64183021
 0076EC 9108 D364      00394        9385          TM    INRLSR,XX08              IN RLS-ROUT GEN                 64190021
 0076F0 4780 8B50      07700        9386        BC    ZERO,GENSB3               NO...IN ALS-ROUT GEN             64197021
 0076F4 4160 CAD5      01A65        9387        LA    JF,PRMDM1                 GEN                              64204021
 0076F8 45E0 B684      0259C        9388        BAL   JP,GENB         **********    INT3   MINUS ONE*******      64211021
 0076FC 47F0 8B6C      0771C        9389        BC    UNCOND,GENSB4             DO REST                          64218021
 007700                             9390 GENSB3 DS    0H                                                         64225021
 007700 9104 D366      00396        9391          TM    NGPSW,XX04               IN NEXT GROUP                   64232021
 007704 4780 8B64      07714        9392        BC    ZERO,GNSB30               NO                               64239021
 007708 4160 CAC1      01A51        9393        LA    JF,PRAMF                  GEN                              64246021
 00770C 45E0 B684      0259C        9394        BAL   JP,GENB                       INT5 FOOTING                 64253021
 007710 47F0 8B6C      0771C        9395        BC    UNCOND,GENSB4             CONTINUE                         64260021
 007714                             9396 GNSB30 DS    0H                                                         64267021
 007714 4130 9BED      06A8D        9397        LA    JC,ABSCON                 GEN                              64274021
 007718 45E0 B7FE      02716        9398        BAL   JP,GNXPX                      ABS.LIN                      64281021
 00771C                             9399 GENSB4 DS    0H                                                         64288021
 00771C 45E0 B7E6      026FE        9400        BAL   JP,GNTO                   GEN TO                           64295021
1PH1A     IKFCBL10                                                                                              PAGE  192
-  LOC  OBJECT CODE    ADDR1 ADDR2  STMT   SOURCE STATEMENT                                       ASM 0201 11.03 02/14/15
0007720 45E0 B7BE      026D6        9401        BAL   JP,GNRPN                  GEN RPT-NM                       64302021
 007724 45E0 B7CE      026E6        9402        BAL   JP,GNLCTR                 GEN LC                           64309021
 007728 9104 D366      00396        9403          TM    NGPSW,XX04               IN NEXT GROUP                   64316021
 00772C 4780 8B8E      0773E        9404        BC    ZERO,GNSB40               NO                               64323021
 007730 D201 CCCA CB4B 01C5A 01ADB  9405          MVC   RCGN(LX2),GNWR           GEN                             64330021
 007736 45E0 B76A      02682        9406        BAL   JP,GNRCLL                     RPT-CALL GNWR                64337021
 00773A 47F0 8B92      07742        9407        BC    UNCOND,GNSB41             CONTINUE                         64344021
 00773E                             9408 GNSB40 DS    0H                                                         64351021
 00773E 45E0 B7EE      02706        9409        BAL   JP,GNPER                  GEN .                            64358021
 007742                             9410 GNSB41 DS    0H                                                         64365021
 007742 58E0 D8E8      00918        9411        L     JP,JPSUBS                 RETURN                           64372021
 007746 07FE                        9412        BCR   UNCOND,JP                     ON JP                        64379021
                                    9413 *                                                                       64386021
                                    9414 *                                                                       64393021
                                    9415 *                                                                       64400021
                                    9416 * ROUTINE PUTS A 6-BYTE ENTRY IN GCNTBL                                 64407021
                                    9417 *                                                                       64414021
 007748                             9418 GCNTBM DS    0H                                                         64421021
 007748 50E0 D8E8      00918        9419        ST    JP,JPSUBS                 SAVE RETURN                      64428021
 00774C 5020 CD54      01CE4        9420        ST    JB,ABSERR                 MSG ADDRESS IN BUFFER            64435021
 007750 5820 C904      01894        9421        L     JB,GCNCON                 GCNTBL TIB                       64442021
 007754 4140 0006      00006        9422          LA    JD,DX6(JR)               GET LENGTH OF 6 IN JD           64449021
 007758 4170 CD54      01CE4        9423        LA    JG,ABSERR                 ENTRY ADDRESS IN JG              64456021
 00775C 45E0 B464      0237C        9424        BAL   JP,MVSERT                 INSERT ENTRY IN GCNTBL           64463021
 007760 47F0 8B92      07742        9425        B     GNSB41                    GO RETURN                        64470021
                                    9426 *                                                                       64477021
                                    9427 *                                                                       64484021
                                    9428 * ROUTINE GENS ERROR MSGS AS PER ENTRIES IN GCNTBL                      64491021
                                    9429 *  POSSIBLE MSGS ARE  94,  119,  165,  166.                             64498021
                                    9430 * IF THIS REPORT DID NOT CONTAIN A RELATIVE LINE OR NEXT GROUP          64505021
                                    9431 *   CLAUSE, THEN NO MESSAGES WILL BE GENERATED.                         64512021
                                    9432 *                                                                       64519021
 007764                             9433 CKGCNT DS    0H                                                         64526021
 007764 9110 D362      00392        9434          TM    RELABS,XX10              WAS A REL LINE SPECIFIED        64533021
 007768 078E                        9435        BCR   ZERO,JP                   NO...NO MESSAGES GENERATED       64540021
 00776A 50E0 D8E8      00918        9436        ST    JP,JPSUBS                 YES..SAVE RETURN                 64547021
 00776E 5810 C904      01894        9437        L     JA,GCNCON                 GCNTBL TIB                       64554021
 007772 45E0 BCC2      02BDA        9438        BAL   JP,TBLNIT                 GET START ETC                    64561021
 007776 4780 8B92      07742        9439        BZ    GNSB41                    NO ENTRIES...EXIT                64568021
 00777A 4122 1000      00000        9440          LA    JB,DX0(JB,JA)            GET END IN JB                   64575021
 00777E                             9441 CKGCN1 DS    0H                                                         64582021
 00777E D201 C6E2 1004 01672 00004  9442          MVC   CURGCN(LX2),DX4(JA)       MOVE GCN TO CURGCN             64589021
 007784 D203 CD54 1000 01CE4 00000  9443          MVC   ABSERR(LX4),DX0(JA)       MSG ADDRESS ON FULL WORD       64596021
 00778A 5830 CD54      01CE4        9444        L     JC,ABSERR                 MSG ADDRESS IN JC                64603021
 00778E 05E3                        9445        BALR  JP,JC                     GO GEN MESSAGE                   64610021
 007790                             9446 CKGCN2 DS    0H                                                         64617021
 007790 4111 0006      00006        9447          LA    JA,DX6(JA)               POINT TO NEXT ENTRY             64624021
 007794 1912                        9448        CR    JA,JB                     END OF TBL                       64631021
 007796 4740 8BCE      0777E        9449        BL    CKGCN1                    NO...CONTINUE                    64638021
 00779A 47F0 8B92      07742        9450        B     GNSB41                    YES..RETURN                      64645021
                                    9451 *                                                                       64652021
                                    9452 *                                                                       64659021
                                    9453 *RW MESSAGE ROUTINES                                                    64666021
                                    9454 *                                                                       64673021
 00779E                             9455 DUPER  DS    0H                                                         64680021
1PH1A     IKFCBL10                                                                                              PAGE  193
-  LOC  OBJECT CODE    ADDR1 ADDR2  STMT   SOURCE STATEMENT                                       ASM 0201 11.03 02/14/15
000779E 45E0 DB40      00B70        9456        BAL   JP,MSG61                  DUPLICATE CLAUSE IN RD           64687021
 0077A2 47F0 9396      06236        9457        BC    UNCOND,RDCLE1             FINISH RD SCAN                   64694021
                             077A6  9458 DUPERR EQU   *                          DUPLICATE CLAUSE                64701021
 0077A6 45E0 DB40      00B70        9459        BAL   JP,MSG61              ERROR MSG                            64708021
 0077AA 9180 D364      00394        9460          TM    SCAN02,XX80              IN PROC02 SCAN                  64715021
 0077AE 4780 F794      0801C        9461        BC    ZERO,CLS01                NO...FINISH 01                   64722021
 0077B2 45E0 FBE8      08470        9462        BAL   JP,CLOS02                 FINISH ELEMENTARY LEVEL          64729021
 0077B6 47F0 9992      06832        9463        BC    UNCOND,RCKLV              CONTINUE AT NEW LEVEL            64736021
                             077BA  9464 NMERR  EQU   *                          NAME ERROR                      64743021
 0077BA 45E0 DCFC      00D2C        9465        BAL   JP,MSG172                 INVALID REPORT NAME              64750021
 0077BE 47F0 8C3A      077EA        9466        BC    UNCOND,RDER8              GO SKIP THIS REPORT              64757021
                             077C2  9467 RSECER EQU   *                                                          64764021
 0077C2 45E0 DB30      00B60        9468        BAL   JP,MSG57              ERROR MSG                            64771021
 0077C6 47F0 9122      05FC2        9469        BC    UNCOND,RDSCNA         SET REPORT SECT SW                   64778021
                             077CA  9470 RDER01 EQU   *                          NO LEVEL NUMBER                 64785021
 0077CA 45E0 DB58      00B88        9471        BAL   JP,MSG67                   INVALID DELIMITOR IGNORING      64792021
 0077CE 47F0 9CF4      06B94        9472        BC    UNCOND,EORD2          EORD2                                64799021
                             077D2  9473 RDER02 EQU   *                          RD FOLLD BY RD                  64806021
 0077D2 45E0 DBF0      00C20        9474        BAL   JP,MSG105                  ASSUME LEVEL 02                 64813021
 0077D6 47F0 9CFC      06B9C        9475        BC    UNCOND,GPROC2             CONTINUE                         64820021
                             077DA  9476 RDER07 EQU   *                          NO REPORTS-ARE CLAUSE           64827021
 0077DA 45E0 DB34      00B64        9477        BAL   JP,MSG58              ERR MSG                              64834021
 0077DE 45E0 ACDE      038CE        9478 RDER7  BAL   JP,SKIPGT             SKIPGT                               64841021
 0077E2 47F0 8C2E      077DE        9479        BC    UNCOND,RDER7          RDER7                                64848021
                             077E6  9480 RDER08 EQU   *                          NO RPTS-ARE FOR RD              64855021
 0077E6 45E0 DB38      00B68        9481        BAL   JP,MSG59              ERROR MSG                            64862021
 0077EA 45E0 ACDE      038CE        9482 RDER8  BAL   JP,SKIPGT                  GET NEW RD                      64869021
 0077EE 9543 C6E4      01674        9483          CLI   CURCOD,XX43               LEVEL NO                       64876021
 0077F2 4770 8C3A      077EA        9484        BC    NOTEQ,RDER8                NO                              64883021
 0077F6 9534 C6E5      01675        9485          CLI   CURN,XX34                 RD                             64890021
 0077FA 4780 912A      05FCA        9486        BC    EQ,RDSCN                   YES                             64897021
 0077FE 47F0 8C3A      077EA        9487        BC    UNCOND,RDER8               NO                              64904021
 007802                             9488 RDER90 DS    0H                                                         64911021
 007802 45E0 DD08      00D38        9489        BAL   JP,MSG175                 NON-UNIQUE DNM FOR RPT-GRP       64918021
 007806 47F0 8C92      07842        9490        BC    UNCOND,RCOV1              SKIP TO NEW 01 OR RD             64925021
                             0780A  9491 CLER1  EQU   *                                                          64932021
                             0780A  9492 CLER1A EQU   *                                                          64939021
 00780A 45E0 DAFC      00B2C        9493        BAL   JP,MSG44                  ERROR                            64946021
 00780E 58F0 C020      00FB0        9494        L     JQ,ADPR01                 RESTORE BASE                     64953021
 007812 47F0 F794      0801C        9495        BC    UNCOND,CLS01          CLS01                                64960021
                             07816  9496 CLER2  EQU   *                          O2 CLAUSE INCORRECT             64967021
                             07816  9497 CLER4  EQU   *                                                          64974021
                             07816  9498 CLER3  EQU   *                          UNRECOGNIZED O2 CL NEW LEV      64981021
 007816 9102 D366      00396        9499          TM    ELEM01,XX02              IN ELEMENTARY 01 SCAN           64988021
 00781A 4710 8C5A      0780A        9500        BC    ONES,CLER1                YES                              64995021
 00781E 45E0 DAFC      00B2C        9501        BAL   JP,MSG44                  ERROR                            65002021
 007822 58F0 C020      00FB0        9502        L     JQ,ADPR01                 RESTORE BASE                     65009021
 007826 45E0 FBE8      08470        9503        BAL   JP,CLOS02             CLOS02                               65016021
 00782A 47F0 9992      06832        9504        BC    UNCOND,RCKLV1         RCKLV1                               65023021
                             0782E  9505 TPER1  EQU   *                                                          65030021
 00782E 45E0 DB60      00B90        9506        BAL   JP,MSG69                   ERROR IN TYPE CLAUSE            65037021
 007832 47F0 8C92      07842        9507        BC    UNCOND,RCOV1          RCOV1                                65044021
                             07836  9508 TPER2  EQU   *                          NO TYPE CLAUSE SPECIFIED        65051021
 007836 45E0 DB4C      00B7C        9509        BAL   JP,MSG64              ERROR MSG                            65058021
 00783A 47F0 8C92      07842        9510        BC    UNCOND,RCOV1          RCOV1                                65065021
1PH1A     IKFCBL10                                                                                              PAGE  194
-  LOC  OBJECT CODE    ADDR1 ADDR2  STMT   SOURCE STATEMENT                                       ASM 0201 11.03 02/14/15
0                            0783E  9511 TPER3  EQU   *                                                          65072021
 00783E 45E0 DBE8      00C18        9512        BAL   JP,MSG103                  GP TYPE ALLOWED ONCE FOR RD     65079021
                             07842  9513 RCOV1  EQU   *                          RECOVER AT NEW 01 OR NEW RD     65086021
 007842                             9514 TPER3A DS    0H                                                         65093021
 007842 9680 D36A      0039A        9515          OI    BADGRP,XX80              TURN ON BAD GROUP SWITCH        65100021
 007846 45E0 ACDE      038CE        9516        BAL   JP,SKIPGT                 GET NEXT LVL RD OR SECTION       65107021
 00784A 58F0 C020      00FB0        9517        L     JQ,ADPR01                 RESTORE BASE                     65114021
 00784E 9543 C6E4      01674        9518          CLI   CURCOD,XX43                                              65121021
 007852 4770 8C92      07842        9519        BC    NOTEQ,TPER3A          TPER3A                               65128021
 007856 9534 C6E5      01675        9520          CLI   CURN,XX34                                                65135021
 00785A 4780 912A      05FCA        9521        BC    EQ,RDSCN              CALL FLUSH                           65142021
 00785E 9501 C6E5      01675        9522          CLI   CURN,XX01                                                65149021
 007862 4780 F000      07888        9523        BC    EQ,PROC01             PROC01                               65156021
 007866 47F0 8C92      07842        9524        BC    UNCOND,TPER3A         TPER3A                               65163021
                             0786A  9525 HDGER1 EQU   *                          DUP ENTRY                       65170021
                             0786A  9526 FOTER1 EQU   *                          DUP ENTRY                       65177021
                             0786A  9527 FDEER1 EQU   *                          DUP ENTRY                       65184021
                             0786A  9528 LDEER1 EQU   *                          DUP ENTRY                       65191021
                             0786A  9529 LNER1  EQU   *                          DUP LINE CL IN PGE CL           65198021
 00786A 45E0 DB48      00B78        9530        BAL   JP,MSG63              ERROR MSG                            65205021
 00786E 47F0 9758      065F8        9531        BC    UNCOND,PGER1A         PGER1A PAGE ERR RECOV                65212021
                             07872  9532 FOTER2 EQU   *                          NUM LIT MISSING                 65219021
                             07872  9533 FDEER2 EQU   *                          NUM LIT MISSING                 65226021
                             07872  9534 LDEER2 EQU   *                          NUM LIT MISSING                 65233021
                             07872  9535 HDGER2 EQU   *                          HDG NOT FOLLD BY NUM LIT        65240021
 007872 45E0 DB50      00B80        9536        BAL   JP,MSG65              ERROR MSG                            65247021
 007876 47F0 9758      065F8        9537        BC    UNCOND,PGER1A         PGER1A PAGE ERR RECOV                65254021
                             0787A  9538 PGER1  EQU   *                          UNRECZD WORD IN PGE CL          65261021
 00787A 45E0 DB54      00B84        9539        BAL   JP,MSG66              ERROR MSG                            65268021
 00787E 47F0 9758      065F8        9540        BC    UNCOND,PGER1A         PGER1A PAGE ERR RECOV                65275021
                                    9541         DROP   JQ                                                       65282021
1PH1A     IKFCBL10                                                                                              PAGE  195
-  LOC  OBJECT CODE    ADDR1 ADDR2  STMT   SOURCE STATEMENT                                       ASM 0201 11.03 02/14/15
0007888                             9543 IKF111 CSECT                                                            65296021
                             07888  9544        USING PROC01,JQ                                                  65303021
                                    9545 *                                                                       65310021
                                    9546 *PROC01 -- ROUTINE SCANS AND PROCESSES GROUP ENTRIES IN REPORT SECT     65317021
                                    9547 *                                                                       65324021
                             07888  9548 PROC01 EQU   *                                                          65331021
 007888 58F0 C020      00FB0        9549        L     JQ,DATDV3                                                  65338021
 00788C 5810 C8E4      01874        9550        L     JA,QALCON                 QALTBL TIB                       65345021
 007890 45E0 B6B6      025CE        9551        BAL   JP,CLRTBL                 CLEAR TABLE                      65352021
 007894 D201 CC5C C6E2 01BEC 01672  9552          MVC   NPTCN(LX2),CURGCN         GEN CD NO N.NM LD TEXT         65359021
 00789A 94EF D366      00396        9553          NI    DNSW,XXEF                 SET OFF DNSW                   65366021
 00789E 5880 C014      00FA4        9554        L    JH,DATDV2                                                   65373021
 0078A2 45E0 8000      06BB0        9555        BAL   JP,FLUSH                   GEN RPT-CALL GNWR               65380021
 0078A6 D707 D364 D364 00394 00394  9556          XC    RWSWA(LX8),RWSWA         RESET SWITCHES                  65387021
 0078AC D702 C9E4 C9E4 01974 01974  9557          XC    TYPECD(LX3),TYPECD       RESET                           65394021
 0078B2 D701 CC92 CC92 01C22 01C22  9558        XC    LPCNT,LPCNT                SET COUNT = 0-NO OF LINES       65401021
 0078B8 45E0 B6A8      025C0        9559        BAL   JP,RSTLD                  RESET LD TEXT                    65408021
 0078BC D201 C9F7 A38C 01987 02F7C  9560          MVC   VAL02(LX2),SPCCON        SPACES TO VAL02                 65415021
 0078C2 D703 CC8C CC8C 01C1C 01C1C  9561        XC    PLINNM,PLINNM              SET N.NM = ZERO                 65422021
 0078C8 9202 D423      00453        9562          MVI   LDLEV,XX02               MAKE 02 LVL FOR E.NAME          65429021
 0078CC 9620 D364      00394        9563          OI    SCAN01,XX20              TURN ON IN PROC01 SCAN          65436021
 0078D0 94BF D9C0      009F0        9564          NI    DNMSW,XXBF               RESET                           65443021
 0078D4 D701 CB00 CB00 01A90 01A90  9565        XC    SVLNBI,SVLNBI             RESET SAVE OF LAST ABS LIN       65450021
 0078DA 9200 CB24      01AB4        9566          MVI   ORGFLG,XX00               RESET ORG FLAG TO NO SAVE      65457021
 0078DE 9523 C79A      0172A        9567          CLI   NXTCOD,XX23               NEXT IS BCD-NAME               65464021
 0078E2 4770 F07A      07902        9568        BC    NOTEQ,PROCPY                NO-PROCPY                      65471021
 0078E6 45E0 B000      01F18        9569        BAL   JP,GETWD                   -GETWD                          65478021
 0078EA D21F CB02 C6E4 01A92 01674  9570          MVC   RWDN(LX32),CURCOD         SAVE DATA-NAME                 65485021
 0078F0 9610 D366      00396        9571          OI    DNSW,XX10                 SET 'ON' DATA-NAME GIVEN       65492021
 0078F4 9640 D9C0      009F0        9572          OI    DNMSW,XX40               TURN ON DATA-NM SW IN 01        65499021
 0078F8 5810 C814      017A4        9573        L       JA,COSADR                                                65506021
 0078FC FA33 118C D5FE 0018C 0062E  9574          AP    DATE-COS(LX4,JA),INCRONE DN COUNT +1 FOR FD,SD,RD        65513021
 007902 45E0 B286      0219E        9575 PROCPY BAL   JP,CPYNXT                  -CPYNXT                         65520021
 007906 9101 D350      00380        9576          TM    CPYXSW,XX01               COPY FOUND                     65527021
 00790A 4780 F0AE      07936        9577        BC    ZERO,PERD01                 NO-PERD01                      65534021
 00790E 45E0 B000      01F18        9578        BAL   JP,GETWD                   -GETWD                          65541021
 007912 45E0 CE70      01E00        9579        BAL   JP,LEVENC                  -LEVENC                         65548021
 007916 9543 C6E4      01674        9580          CLI   CURCOD,XX43               LEVEL NUMBER                   65555021
 00791A 4770 F0B2      0793A        9581        BC    NOTEQ,PR01A                 NO-PR01A                       65562021
 00791E 9501 C6E5      01675        9582          CLI   CURN,XX01                 01 LEVEL                       65569021
 007922 4770 F0B2      0793A        9583        BC    NOTEQ,PR01A                 NO-PR01A                       65576021
 007926 45E0 B000      01F18        9584        BAL   JP,GETWD                   -GETWD                          65583021
 00792A 9523 C6E4      01674        9585          CLI   CURCOD,XX23               BCD-NAME                       65590021
 00792E 4770 F0B2      0793A        9586        BC    NOTEQ,PR01A                 NO-PR01A                       65597021
 007932 45E0 B286      0219E        9587        BAL   JP,CPYNXT                  -CPYNXT                         65604021
                             07936  9588 PERD01 EQU   *                                                          65611021
 007936 45E0 B000      01F18        9589        BAL   JP,GETWD              GET WORD                             65618021
 00793A D501 C6E4 C58D 01674 0151D  9590 PR01A    CLC   CURCOD(LX2),EOSCON        PERIOD FOUND                   65625021
 007940 4780 F67C      07F04        9591        BC    EQ,END01A                  YES                             65632021
 007944 9597 C6E5      01675        9592          CLI   CURN,XX97                 NEXT                           65639021
 007948 4770 F0D0      07958        9593        BC    NOTEQ,PR011                NO                              65646021
 00794C 95EE C79B      0172B        9594          CLI   NXTN,XXEE                 GROUP                          65653021
 007950 4770 8C5A      0780A        9595        BC    NOTEQ,CLER1                UNIDENTIFIED CLAUSE             65660021
 007954 47F0 F128      079B0        9596        BC    UNCOND,PRGP                PROCESS NEXT GROUP CLAUSE       65667021
 007958 9595 C6E5      01675        9597 PR011    CLI   CURN,XX95                 LINE                           65674021
1PH1A     IKFCBL10                                                                                              PAGE  196
-  LOC  OBJECT CODE    ADDR1 ADDR2  STMT   SOURCE STATEMENT                                       ASM 0201 11.03 02/14/15
000795C 4780 F10C      07994        9598        BC    EQ,DOLINE                  GO TO LINE ROUTINE              65681021
 007960 95EF C6E5      01675        9599          CLI   CURN,XXEF                 TYPE                           65688021
 007964 4780 F26C      07AF4        9600        BC    EQ,PRTP                    PROCESS TYPE CLAUSE             65695021
 007968 95DD C6E5      01675        9601          CLI   CURN,XXDD                USAGE                           65702021
 00796C 4780 F114      0799C        9602        BC    EQ,DOUSGE                 YES                              65709021
 007970 9526 C6E5      01675        9603          CLI   CURN,XX26                DISPLAY                         65716021
 007974 4780 F0AE      07936        9604        BE    PERD01                    YES..CONTINUE                    65723021
 007978 9602 D366      00396        9605          OI    ELEM01,XX02              TURN ON                         65730021
 00797C 47F0 F816      0809E        9606        BC    UNCOND,PR02A              CHECK 02 CLAUSES                 65737021
                                    9607 *  PR02A WILL RETURN TO PR0110                                          65744021
                                    9608 *  IF ELEM01 IS OFF...ERROR                                             65751021
                                    9609 *                                                                       65758021
 007980                             9610 PR0110 DS    0H                                                         65765021
 007980 9102 D366      00396        9611          TM    ELEM01,XX02              IS SWITCH STILL ON              65772021
 007984 4780 8C5A      0780A        9612        BC    ZERO,CLER1                NO...ERROR                       65779021
 007988                             9613 PR0111 DS    0H                                                         65786021
 007988 9610 D369      00399        9614          OI    EL01OK,XX10              TURN ON ELEMENTARY ITEM OK      65793021
 00798C 94FD D366      00396        9615          NI    ELEM01,XXFD              RESET                           65800021
 007990 47F0 F0AE      07936        9616        BC    UNCOND,PERD01             CONTINUE SCAN                    65807021
 007994 45E0 F1BE      07A46        9617 DOLINE BAL   JP,PRLN               RRLN                                 65814021
 007998 47F0 F0AE      07936        9618        BC    UNCOND,PERD01         PERD04                               65821021
 00799C                             9619 DOUSGE DS    0H                                                         65828021
 00799C 45E0 B18E      020A6        9620        BAL   JP,CHKIS                  CHECK IS                         65835021
 0079A0 45E0 B000      01F18        9621        BAL   JP,GETWD              GET WORD                             65842021
 0079A4 9526 C6E5      01675        9622          CLI   CURN,XX26                USAGE DISPLAY                   65849021
 0079A8 4780 F0AE      07936        9623        BC    EQ,PERD01                 YES..CHECK OTHER CLAUSES         65856021
 0079AC 47F0 8C5A      0780A        9624        BC    UNCOND,CLER1              NO...UNIDENTIFIED CLAUSE         65863021
                                    9625 *                                                                       65870021
                                    9626 *PRGP -- PROCESS NEXT GROUP CLAUSE OF 01                                65877021
                             079B0  9627 PRGP   EQU   *                                                          65884021
 0079B0 9110 D365      00395        9628          TM    NXGPSW,XX10               NEXT GROUP ALREADY DONE        65891021
 0079B4 4710 8BF6      077A6        9629        BC    ONES,DUPERR               YES..ERROR                       65898021
 0079B8 45E0 B000      01F18        9630 PRGP1  BAL   JP,GETWD              GET WORD                             65905021
 0079BC 45E0 B18E      020A6        9631        BAL   JP,CHKIS                   CHECK FOR 'IS'                  65912021
 0079C0 45E0 B000      01F18        9632        BAL   JP,GETWD                   SKIP OVER GROUP                 65919021
 0079C4 D701 CC88 CC88 01C18 01C18  9633        XC    NGPCNT,NGPCNT              SET COUNT = 0-NO OF LINES       65926021
 0079CA 9532 C6E4      01674        9634          CLI   CURCOD,XX32               NUM LIT                        65933021
 0079CE 4780 F156      079DE        9635        BC    EQ,PRGP2                   YES NG INT                      65940021
 0079D2 9554 C6E4      01674        9636          CLI   CURCOD,XX54               COBOL WD                       65947021
 0079D6 4770 8C5A      0780A        9637        BC    NOTEQ,CLER1                NO-ERROR                        65954021
 0079DA 47F0 F170      079F8        9638        BC    UNCOND,PRGP3               YES PLUS OR NEXT                65961021
 0079DE                             9639 PRGP2  DS    0H                                                         65968021
 0079DE 45E0 8942      074F2        9640        BAL   JP,CHKPGS                 CHECK IF PAGE CLS WAS SPEC       65975021
                                    9641 * IF NO PAGE CLAUSE CHKPGS WILL RETURN TO PERD01, ELSE RETURN HERE      65982021
 0079E2 D213 C9CD C6E4 0195D 01674  9642          MVC   NG01+NX1(LX20),CURCOD     PUT INT IN CUR01 TEXT          65989021
 0079E8 9201 C9CC      0195C        9643          MVI   NG01,XX01                 SET INT CODE                   65996021
 0079EC 45E0 B528      02440        9644        BAL   JP,CNVBIN                  CONVERT TO BINARY               66003021
 0079F0 4020 C9E2      01972        9645        STH   JB,NPINBI                  STORE IN NG INT BIN             66010021
 0079F4 47F0 F1B6      07A3E        9646        BC    UNCOND,NGXIT          NGXIT - NXGPSW ON                    66017021
 0079F8 9597 C6E5      01675        9647 PRGP3    CLI   CURN,XX97                 NEXT                           66024021
 0079FC 4770 F190      07A18        9648        BC    NOTEQ,PRGP4                NO MUST BE PLUS                 66031021
 007A00 95E6 C79B      0172B        9649          CLI   NXTN,XXE6                 PAGE                           66038021
 007A04 4770 8C5A      0780A        9650        BC    NOTEQ,CLER1                NO-ERROR                        66045021
 007A08 45E0 B000      01F18        9651        BAL   JP,GETWD                  SKIP OVER PAGE                   66052021
 007A0C 45E0 8942      074F2        9652        BAL   JP,CHKPGS                 CHECK IF PG CLS SPEC             66059021
1PH1A     IKFCBL10                                                                                              PAGE  197
-  LOC  OBJECT CODE    ADDR1 ADDR2  STMT   SOURCE STATEMENT                                       ASM 0201 11.03 02/14/15
0                                   9653 * IF NO PAGE CLAUSE CHKPGS WILL RETURN TO PERD01, ELSE RETURN HERE      66066021
 007A10 9200 C9CC      0195C        9654          MVI   NG01,XX00                INDICATE NGNP                   66073021
 007A14 47F0 F1B6      07A3E        9655        BC    UNCOND,NGXIT          NGXIT - NXGPSW ON                    66080021
 007A18 95F0 C6E5      01675        9656 PRGP4    CLI   CURN,XXF0                 PLUS                           66087021
 007A1C 4770 8C5A      0780A        9657        BC    NOTEQ,CLER1                NO-ERROR                        66094021
 007A20 45E0 B000      01F18        9658        BAL   JP,GETWD              GET WORD                             66101021
 007A24 9532 C6E4      01674        9659          CLI   CURCOD,XX32               NUM LIT                        66108021
 007A28 4770 8C5A      0780A        9660        BC    NOTEQ,CLER1                NO-ERROR                        66115021
 007A2C 9202 C9CC      0195C        9661          MVI   NG01,XX02                 CODE + INT IN NG 01 TXT        66122021
 007A30 D213 C9CD C6E4 0195D 01674  9662          MVC   NG01+NX1(LX20),CURCOD      PUT + INT IN NG 01 TXT        66129021
 007A36 45E0 B528      02440        9663        BAL   JP,CNVBIN                  CONVERT TO BINARY               66136021
 007A3A 4020 C9E2      01972        9664        STH   JB,NPINBI                  SAVE IN NG + INT BIN            66143021
 007A3E 9610 D365      00395        9665 NGXIT    OI    NXGPSW,XX10               SET ON NXT GP CLAUSE DONE      66150021
 007A42 47F0 F0AE      07936        9666        BC    UNCOND,PERD01         PERD01                               66157021
                                    9667 *                                                                       66164021
                                    9668 *PRLN -- PROCESS LINE CLAUSE                                            66171021
 007A46                             9669 PRLN   DS    0H                                                         66178021
 007A46 50E0 D8CC      008FC        9670        ST    JP,JPLNSV                                                  66185021
 007A4A 9108 D365      00395        9671          TM    LNSW,XX08                 LINE CLAUSE PROCESSED          66192021
 007A4E 4710 8BF6      077A6        9672        BO    DUPERR                    YES..ERROR                       66199021
 007A52                             9673 PRLN1  DS    0H                                                         66206021
 007A52 9544 C79B      0172B        9674          CLI   NXTN,XX44                NEXT IS NUMBER                  66213021
 007A56 4770 F1D6      07A5E        9675        BC    NOTEQ,PRLN11          PRLN11                               66220021
 007A5A 45E0 B000      01F18        9676        BAL   JP,GETWD              GET WORD                             66227021
 007A5E                             9677 PRLN11 DS    0H                                                         66234021
 007A5E 45E0 B18E      020A6        9678        BAL   JP,CHKIS              CHECK FOR 'IS'                       66241021
 007A62 45E0 B000      01F18        9679        BAL   JP,GETWD              GET WORD                             66248021
 007A66 9532 C6E4      01674        9680          CLI   CURCOD,XX32               NUMERIC LITERAL                66255021
 007A6A 4780 F1F2      07A7A        9681        BC    EQ,PRLN2                   YES -- LINE INTEGER             66262021
 007A6E 9554 C6E4      01674        9682          CLI   CURCOD,XX54               COBOL WORD                     66269021
 007A72 4770 8C5A      0780A        9683        BC    NOTEQ,CLER1                NO -- ERROR                     66276021
 007A76 47F0 F20C      07A94        9684        BC    UNCOND,PRLN3               YES GO TO INT + INT ROUT        66283021
 007A7A                             9685 PRLN2  DS    0H                                                         66290021
 007A7A 45E0 8942      074F2        9686        BAL   JP,CHKPGS                 CHECK IF PG-CLS SPEC             66297021
                                    9687 *  IF NO PAGE CLAUSE CHKPGS WILL RETURN TO PERD01, ELSE RETURN HERE     66304021
 007A7E D213 C9B3 C6E4 01943 01674  9688          MVC   LN01+NX1(LX20),CURCOD     PUT INT IN CUR01 TEXT          66311021
 007A84 9201 C9B2      01942        9689          MVI   LN01,XX01                 SET INT CODE IN CUR 01         66318021
 007A88 45E0 B528      02440        9690        BAL   JP,CNVBIN                  CONVERT TO BINARY               66325021
 007A8C 4020 C9C8      01958        9691        STH   JB,LINBI                  STORE IN LINE INTEGER BIN        66332021
 007A90 47F0 F262      07AEA        9692        BC    UNCOND,PLNXIT         PLNXIT - LNSW ON                     66339021
                                    9693 *PRLN3 -PLUS INT OR NEXT PAGE                                           66346021
 007A94 9597 C6E5      01675        9694 PRLN3    CLI   CURN,XX97                 NEXT                           66353021
 007A98 4770 F22C      07AB4        9695        BC    NOTEQ,PRLN4           PRLN4                                66360021
 007A9C 95E6 C79B      0172B        9696          CLI   NXTN,XXE6                 PAGE                           66367021
 007AA0 4770 8C5A      0780A        9697        BC    NOTEQ,CLER1                NO-ERROR                        66374021
 007AA4 45E0 B000      01F18        9698        BAL   JP,GETWD                  SKIP OVER PAGE                   66381021
 007AA8 45E0 8942      074F2        9699        BAL   JP,CHKPGS                 CHECK IF PG-CLS SPEC             66388021
                                    9700 *  IF NO PAGE CLAUSE CHKPGS WILL RETURN TO PERD01, ELSE RETURN HERE     66395021
 007AAC 9200 C9B2      01942        9701          MVI   LN01,XX00                INDICATE LINE NXT PG            66402021
 007AB0 47F0 F262      07AEA        9702        BC    UNCOND,PLNXIT         PLNXIT - LNSW ON                     66409021
 007AB4 95F0 C6E5      01675        9703 PRLN4    CLI   CURN,XXF0                 PLUS                           66416021
 007AB8 4770 8C5A      0780A        9704        BC    NOTEQ,CLER1                NO-ERROR                        66423021
 007ABC 45E0 B000      01F18        9705        BAL   JP,GETWD              GET WORD                             66430021
 007AC0 9532 C6E4      01674        9706          CLI   CURCOD,XX32               NUM LIT                        66437021
 007AC4 4770 8C5A      0780A        9707        BC    NOTEQ,CLER1                NO-ERROR                        66444021
1PH1A     IKFCBL10                                                                                              PAGE  198
-  LOC  OBJECT CODE    ADDR1 ADDR2  STMT   SOURCE STATEMENT                                       ASM 0201 11.03 02/14/15
0007AC8 9602 D364      00394        9708          OI    FSTLNR,XX02              TURN ON RELATIVE LINE SWITCH    66451021
 007ACC 9202 C9B2      01942        9709          MVI   LN01,XX02                 SET + INT CODE IN CUR 01       66458021
 007AD0 D213 C9B3 C6E4 01943 01674  9710          MVC   LN01+NX1(LX20),CURCOD      PUT INTEGER IN CUR 01         66465021
 007AD6 45E0 B528      02440        9711        BAL   JP,CNVBIN                  CONVERT TO BINARY               66472021
 007ADA 4020 C9CA      0195A        9712        STH   JB,LPINBI                  STORE IN LINE + INT BIN         66479021
 007ADE 4830 CC92      01C22        9713        LH    JC,LPCNT                   LOAD COUNT                      66486021
 007AE2 4A30 C9CA      0195A        9714        AH    JC,LPINBI                  ADD NEW + INT                   66493021
 007AE6 4030 CC92      01C22        9715        STH   JC,LPCNT                   STORE IN COUNT = NO OF LINE     66500021
 007AEA                             9716 PLNXIT DS    0H                                                         66507021
 007AEA 9608 D365      00395        9717          OI    LNSW,XX08                SETON LINE CLAUSE DONE          66514021
 007AEE                             9718 PLNXT1 DS    0H                                                         66521021
 007AEE 58E0 D8CC      008FC        9719        L     JP,JPLNSV                                                  66528021
 007AF2 07FE                        9720        BCR   UNCOND,JP             RETURN                               66535021
                                    9721 *                                                                       66542021
                                    9722 *PRTP -- PROCESS TYPE CLAUSE                                            66549021
                             07AF4  9723 PRTP   EQU   *                                                          66556021
 007AF4 9104 D365      00395        9724          TM    TPSW,XX04                 TYPE CLAUSE ALRDY DONE         66563021
 007AF8 4710 8BF6      077A6        9725        BC    ONES,DUPERR               YES..ERROR                       66570021
 007AFC 45E0 B18E      020A6        9726 PRTP1  BAL   JP,CHKIS                   CHECK FOR 'IS'                  66577021
 007B00 45E0 B000      01F18        9727        BAL   JP,GETWD              GET WORD                             66584021
 007B04 D201 CD58 C6E2 01CE8 01672  9728          MVC   ABERCN(LX2),CURGCN       MOVE CURGCN TO GCNTBL BUFFER    66591021
 007B0A 9554 C6E4      01674        9729          CLI   CURCOD,XX54               COBOL WORD                     66598021
 007B0E 4770 8C7E      0782E        9730        BNE   TPER1                     NO...ERROR                       66605021
 007B12 95EA C6E5      01675        9731 PRTP2    CLI   CURN,XXEA                 DETAIL                         66612021
 007B16 4780 F346      07BCE        9732        BC    EQ,PRDE               PRDE                                 66619021
 007B1A 95D0 C6E5      01675        9733          CLI   CURN,XXD0                 CONTROL                        66626021
 007B1E 4770 F2BA      07B42        9734        BC    NOTEQ,PRTP3           PRTP3                                66633021
 007B22 45E0 B000      01F18        9735        BAL   JP,GETWD              GET WORD                             66640021
 007B26 9554 C6E4      01674        9736          CLI   CURCOD,XX54               COB WD                         66647021
 007B2A 4770 8C7E      0782E        9737        BC    NOTEQ,TPER1           TPER1 ERR IN TYPE CLAUSE             66654021
 007B2E 95E9 C6E5      01675        9738          CLI   CURN,XXE9                 HEADING                        66661021
 007B32 4780 F42A      07CB2        9739        BC    EQ,PCTH                    CTL HDNG                        66668021
 007B36 95EC C6E5      01675        9740          CLI   CURN,XXEC                 FOOTING                        66675021
 007B3A 4780 F4EC      07D74        9741        BC    EQ,PCTF                    CTL FOOTING                     66682021
 007B3E 47F0 8C7E      0782E        9742        BC    UNCOND,TPER1          ERROR IN TYPE CLAUSE                 66689021
 007B42 95E6 C6E5      01675        9743 PRTP3    CLI   CURN,XXE6                 PAGE                           66696021
 007B46 4770 F2E2      07B6A        9744        BC    NOTEQ,PRTP5               NO...CHECK REPORT                66703021
 007B4A 45E0 B000      01F18        9745        BAL   JP,GETWD              GET WORD                             66710021
 007B4E 9554 C6E4      01674        9746          CLI   CURCOD,XX54               COB WD                         66717021
 007B52 4770 8C7E      0782E        9747        BC    NOTEQ,TPER1           ERROR IN TYPE CLAUSE                 66724021
 007B56 95E9 C6E5      01675        9748          CLI   CURN,XXE9                 HEADING                        66731021
 007B5A 4780 F568      07DF0        9749        BC    EQ,PPGH                    PGE HEADING                     66738021
 007B5E 95EC C6E5      01675        9750          CLI   CURN,XXEC                 FOOTING                        66745021
 007B62 4780 F5B0      07E38        9751        BC    EQ,PPGF                    PAGE FOOTING                    66752021
 007B66 47F0 8C7E      0782E        9752        BC    UNCOND,TPER1          ERROR IN TYPE CLAUSE                 66759021
 007B6A 95D6 C6E5      01675        9753 PRTP5    CLI   CURN,XXD6                 REPORT                         66766021
 007B6E 4770 F30A      07B92        9754        BC    NOTEQ,PRTP5A          PRTP5A                               66773021
 007B72 45E0 B000      01F18        9755        BAL   JP,GETWD              GET WORD                             66780021
 007B76 9554 C6E4      01674        9756          CLI   CURCOD,XX54               COB WD                         66787021
 007B7A 4770 8C7E      0782E        9757        BC    NOTEQ,TPER1           ERROR IN TYPE CLAUSE                 66794021
 007B7E 95E9 C6E5      01675        9758          CLI   CURN,XXE9                 HEADING                        66801021
 007B82 4780 F5F8      07E80        9759        BC    EQ,PRPH                    RPT HEADING                     66808021
 007B86 95EC C6E5      01675        9760          CLI   CURN,XXEC                 FOOTING                        66815021
 007B8A 4780 F638      07EC0        9761        BC    EQ,PRPF                    RPT FOOTING                     66822021
 007B8E 47F0 8C7E      0782E        9762        BC    UNCOND,TPER1          ERROR IN TYPE CLAUSE                 66829021
1PH1A     IKFCBL10                                                                                              PAGE  199
-  LOC  OBJECT CODE    ADDR1 ADDR2  STMT   SOURCE STATEMENT                                       ASM 0201 11.03 02/14/15
0007B92 95F3 C6E5      01675        9763 PRTP5A   CLI   CURN,XXF3                 RH -REPORT HDG                 66836021
 007B96 4780 F5F8      07E80        9764        BC    EQ,PRPH                    YES                             66843021
 007B9A 950E C6E5      01675        9765          CLI   CURN,XX0E                 RF - PEPORT FTNG               66850021
 007B9E 4780 F638      07EC0        9766        BC    EQ,PRPF                    YES                             66857021
 007BA2 95F4 C6E5      01675        9767          CLI   CURN,XXF4                 PH - PAGE HDG                  66864021
 007BA6 4780 F568      07DF0        9768        BC    EQ,PPGH                    YES                             66871021
 007BAA 95FA C6E5      01675        9769          CLI   CURN,XXFA                 PF - PAGE FTNG                 66878021
 007BAE 4780 F5B0      07E38        9770        BC    EQ,PPGF                    YES                             66885021
 007BB2 95F6 C6E5      01675        9771          CLI   CURN,XXF6                 CH - CTL HDG                   66892021
 007BB6 4780 F42A      07CB2        9772        BC    EQ,PCTH                    YES                             66899021
 007BBA 95F8 C6E5      01675        9773          CLI   CURN,XXF8                 CF - CTL FTNG                  66906021
 007BBE 4780 F4EC      07D74        9774        BC    EQ,PCTF                    YES                             66913021
 007BC2 47F0 8C7E      0782E        9775        BC    UNCOND,TPER1          ERROR IN TYPE CLAUSE                 66920021
 007BC6 9604 D365      00395        9776 PRTP6    OI    TPSW,XX04                 SET ON TYPE CLAUSE DONE        66927021
 007BCA 47F0 F0AE      07936        9777        BC    UNCOND,PERD01         PERD01                               66934021
                                    9778 *PRDE -- PROCESS DETAIL CLAUSE                                          66941021
                             07BCE  9779 PRDE   EQU   *                                                          66948021
 007BCE 9602 C9E4      01974        9780          OI    TYPECD,XX02               SET ON R2 TYPE CODE            66955021
 007BD2 D201 C964 C9A0 018F4 01930  9781          MVC   DETENT+NX34(LX2),DRWDSP    DISPL IN RWRTBL---THIS RD     66962021
 007BD8 45E0 B736      0264E        9782        BAL   JP,GNGN                    GEN UPON SUM PAR NM FOR DET     66969021
 007BDC D201 C966 CCC4 018F6 01C54  9783          MVC   DETENT+NX36(LX2),GPTID1     PUT GN IN TBL                66976021
 007BE2 D201 CB5B CCC4 01AEB 01C54  9784          MVC   GNUSUM(LX2),GPTID1        PUT GN IN GEN AREA             66983021
 007BE8 D21D C942 CB04 018D2 01A94  9785          MVC   DETENT(LX30),RWDN1        01 NAME TO DET TBL ENT         66990021
 007BEE 45E0 B736      0264E        9786        BAL   JP,GNGN                    GET GEN PAR NAME                66997021
 007BF2 D201 C961 CCC4 018F1 01C54  9787          MVC   DETENT+NX31(LX2),GPTID1   GN FOR THIS DETAIL             67004021
 007BF8 D200 C960 CB03 018F0 01A93  9788          MVC   DETENT+NX30(LX1),RWDN+NX1 DNM LENGTH TO ENTRY            67011021
 007BFE 9110 D366      00396        9789          TM    DNSW,XX10                WAS A DNM SPECIFIED             67018021
 007C02 4710 F38A      07C12        9790        BC    ONES,PRDE10               YES..OK                          67025021
 007C06 45E0 DCF4      00D24        9791        BAL   JP,MSG170                 NO...ERROR                       67032021
 007C0A 58F0 C020      00FB0        9792        L     JQ,ADPR01                 RESTORE BASE                     67039021
 007C0E 47F0 F3EC      07C74        9793        BC    UNCOND,PRDE3              FINISH                           67046021
 007C12                             9794 PRDE10 DS    0H                                                         67053021
 007C12 5810 C8CC      0185C        9795        L     JA,DETCON                  DETTBL TIB                      67060021
 007C16 45E0 BCC2      02BDA        9796        BAL   JP,TBLNIT                  GET START ETC                   67067021
 007C1A 1841                        9797        LR    JD,JA                     GET START IN JD                  67074021
 007C1C 4020 C9AC      0193C        9798        STH   JB,DETSAV                 SAVE END OF TBL DISPLACEMENT     67081021
 007C20 1851                        9799        LR    JE,JA                     SAVE START IN JE                 67088021
 007C22 4A40 CD64      01CF4        9800        AH    JD,HWPTR                  START OF ENTRIES FOR THIS RD     67095021
 007C26 4121 2000      00000        9801          LA    JB,DX0(JA,JB)             LAST ADR OF TBL                67102021
 007C2A D51D C942 1000 018D2 00000  9802 PRDE1    CLC   DETENT(LX30),DX0(JA)        NAME IN TBL                  67109021
 007C30 4780 F3CA      07C52        9803        BC    EQ,PRDE2                   DET FOUND                       67116021
 007C34 4111 0026      00026        9804          LA    JA,DX38(JA)                STEP TO NXT                   67123021
 007C38 1912                        9805        CR    JA,JB                      OUT OF TBL                      67130021
 007C3A 4740 F3A2      07C2A        9806        BC    LO,PRDE1                   NO LOOK AGN                     67137021
                                    9807 *INSERT DETAIL ENTRY                                                    67144021
 007C3E 4140 0026      00026        9808 PRDE1A   LA    JD,DX38(JR)                                              67151021
 007C42 5820 C8CC      0185C        9809        L     JB,DETCON                                                  67158021
 007C46 4170 C942      018D2        9810        LA    JG,DETENT                                                  67165021
 007C4A 45E0 B464      0237C        9811        BAL   JP,MVSERT             MVSERT INSERT SPEC TB                67172021
 007C4E 47F0 F3EC      07C74        9812        BC    UNCOND,PRDE3          PRDE3                                67179021
 007C52                             9813 PRDE2  DS    0H                                                         67186021
 007C52 1914                        9814        CR    JA,JD                     IS NAME IN THIS RD               67193021
 007C54 4740 F3D8      07C60        9815        BC    LO,PRDE21                 NO...ERROR                       67200021
 007C58 91FF 1021      00021        9816          TM    DX33(JA),XXFF            NAME INSERTED BY SUM UPON DE    67207021
 007C5C 4710 F3E0      07C68        9817        BC    ONES,PRDE20               YES..OK                          67214021
1PH1A     IKFCBL10                                                                                              PAGE  200
-  LOC  OBJECT CODE    ADDR1 ADDR2  STMT   SOURCE STATEMENT                                       ASM 0201 11.03 02/14/15
0007C60                             9818 PRDE21 DS    0H                                                         67221021
 007C60 45E0 DC6C      00C9C        9819        BAL   JP,MSG136                 NO...ERROR                       67228021
 007C64 47F0 8C92      07842        9820        BC    UNCOND,RCOV1              SKIP 01                          67235021
 007C68                             9821 PRDE20 DS    0H                                                         67242021
 007C68 D225 1000 C942 00000 018D2  9822          MVC   DX0(LX38,JA),DETENT       MOVE DETAIL ENTRY TO TBL       67249021
 007C6E 1B15                        9823        SR    JA,JE                     SUBTR A(ENTRY) FROM A(START)     67256021
 007C70 4010 C9AC      0193C        9824        STH   JA,DETSAV                 SAVE DISPLACEMENT FOR SRCTBL     67263021
 007C74 4140 CCC4      01C54        9825 PRDE3  LA    JD,GPTID1                  ADR OF DET PAR NAME             67270021
 007C78 4150 CB78      01B08        9826        LA    JE,DECOD                   ADR OF R2 CODE                  67277021
 007C7C 45E0 BABC      029D4        9827        BAL   JP,GNPAR              GNPAR                                67284021
                                    9828 *INITIAL CODING FOR DETAIL                                              67291021
 007C80 4160 CB25      01AB5        9829        LA    JF,RSVE0                   GEN RPT-SAVE-0                  67298021
 007C84 45E0 B684      0259C        9830        BAL   JP,GENB               GENB - FILE 2                        67305021
 007C88 9110 D366      00396        9831          TM    DNSW,XX10                WAS A DNM SPECIFIED             67312021
 007C8C 4780 F33E      07BC6        9832        BC    ZERO,PRTP6                NO...EXIT                        67319021
 007C90 D201 CCCA CB47 01C5A 01AD7  9833          MVC   RCGN(LX2),GNFRST          GEN RPT-CALL GNFRST            67326021
 007C96 45E0 B76A      02682        9834        BAL   JP,GNRCLL             GNRCLL                               67333021
 007C9A D201 CCCA CB51 01C5A 01AE1  9835          MVC   RCGN(LX2),GNCTLB          GEN RPT-CALL GNCTLB            67340021
 007CA0 45E0 B76A      02682        9836        BAL   JP,GNRCLL             GNRCLL                               67347021
 007CA4 D201 CCCA CB5B 01C5A 01AEB  9837          MVC   RCGN(LX2),GNUSUM          GEN RPT-CALL GNUSUM            67354021
 007CAA 45E0 B76A      02682        9838        BAL   JP,GNRCLL             GNRCLL                               67361021
 007CAE 47F0 F33E      07BC6        9839        BC    UNCOND,PRTP6          PRTP6                                67368021
                                    9840 *PCTH -- PROCESS CTL HEADING CLAUSE                                     67375021
                             07CB2  9841 PCTH   EQU   *                                                          67382021
 007CB2 45E0 B000      01F18        9842        BAL   JP,GETWD              GET WORD                             67389021
 007CB6 D501 C6E4 C58D 01674 0151D  9843          CLC   CURCOD(LX2),EOSCON                                       67396021
 007CBC 4780 8C7E      0782E        9844        BC    EQ,TPER1                  INVALID TYPE                     67403021
 007CC0 9554 C6E4      01674        9845          CLI   CURCOD,XX54               COBOL WD                       67410021
 007CC4 4780 F4A0      07D28        9846        BC    EQ,PCTH20                  YES-LOOK FOR FINAL              67417021
 007CC8 95A2 C6E4      01674        9847          CLI   CURCOD,XXA2               QUALIFIED NAME                 67424021
 007CCC 4780 F450      07CD8        9848        BC    EQ,PCTH1                  YES..CONTINUE                    67431021
 007CD0 9523 C6E4      01674        9849          CLI   CURCOD,XX23               BCD NAME                       67438021
 007CD4 4770 8C7E      0782E        9850        BC    NOTEQ,TPER1                NO-TYPE ERROR                   67445021
 007CD8 9608 C9E4      01974        9851 PCTH1    OI    TYPECD,XX08               SET ON TYPE CH CODE            67452021
 007CDC 45E0 F46C      07CF4        9852        BAL   JP,TMPCTL                 GO PUT TEMP ENTRY                67459021
                                    9853 *  CTSDSP HAS LAST VALID DISPLACEMENT                                   67466021
                                    9854 *  CELL1 HAS SIZE OF THIS TEMP ENTRY                                    67473021
                                    9855 ***                                                                     67480021
 007CE0 45E0 BB10      02A28        9856        BAL   JP,GETCTL                  GET CONTROL NAME                67487021
 007CE4 9101 1010      00010        9857          TM    DX16(JA),XX01            CH ALREADY DONE                 67494021
 007CE8 4780 F474      07CFC        9858        BC    ZERO,CHGUD                 NO                              67501021
 007CEC 45E0 DC00      00C30        9859        BAL   JP,MSG109             ERR MSG                              67508021
 007CF0 47F0 8C92      07842        9860        BC    UNCOND,RCOV1          RECOVERY                             67515021
                                    9861 *                                                                       67522021
                                    9862 *  PUT TEMPORARY ENTRY IN CTLTBL                                        67529021
 007CF4                             9863 TMPCTL DS    0H                                                         67536021
 007CF4 50E0 D8BC      008EC        9864        ST    JP,JPCTGS                 SAVE RETURN ADDRESS              67543021
                                    9865 *  DOCTL WILL RETURN ON JPCTGS                                          67550021
 007CF8 47F0 9402      062A2        9866        BC    UNCOND,DOCTL2             GO PUT TEMP ENTRY IN TBL         67557021
 007CFC                             9867 CHGUD  DS    0H                                                         67564021
 007CFC 9601 1010      00010        9868          OI    DX16(JA),XX01            SET ON CH SPECIFIED             67571021
 007D00 4141 0012      00012        9869          LA    JD,DX18(JA)              JD HAS ADDR OF CTH PAR NAME     67578021
 007D04 4150 CB93      01B23        9870        LA    JE,CHCOD                   JE=CTH CODE                     67585021
 007D08                             9871 CHGUD1 DS    0H                                                         67592021
 007D08 45E0 BABC      029D4        9872        BAL   JP,GNPAR              GNPAR                                67599021
1PH1A     IKFCBL10                                                                                              PAGE  201
-  LOC  OBJECT CODE    ADDR1 ADDR2  STMT   SOURCE STATEMENT                                       ASM 0201 11.03 02/14/15
0007D0C 9110 D366      00396        9873          TM    DNSW,XX10                WAS A DATA NAME SPECIFIED       67606021
 007D10 4780 F33E      07BC6        9874        BC    ZERO,PRTP6                NO...DO NOT GEN NOP              67613021
 007D14 45E0 B79A      026B2        9875        BAL   JP,GNOP                    GEN NOP                         67620021
 007D18 4160 ACAA      0389A        9876        LA    JF,PLUSCD                                                  67627021
 007D1C 45E0 B684      0259C        9877        BAL   JP,GENB               GENB - FILE 2                        67634021
 007D20 45E0 87BA      0736A        9878        BAL   JP,GNPSCK                  GO GEN PRINT-SWITCH CHECK       67641021
 007D24 47F0 F33E      07BC6        9879        BC    UNCOND,PRTP6          PRTP6                                67648021
                                    9880 *CHECK FOR FINAL                                                        67655021
 007D28 95E7 C6E5      01675        9881 PCTH20   CLI   CURN,XXE7                 FINAL                          67662021
 007D2C 4770 8C7E      0782E        9882        BC    NOTEQ,TPER1           TPER1                                67669021
                             07D30  9883 PCTH21 EQU   *                                                          67676021
 007D30 9680 C9E5      01975        9884          OI    TYPECD+NX1,XX80           SET ON TYPE CH FINAL           67683021
 007D34 9108 D361      00391        9885          TM    CHFSW,XX08                                               67690021
 007D38 4770 8C8E      0783E        9886        BC    NOTZER,TPER3          TPER3                                67697021
 007D3C 9608 D361      00391        9887          OI    CHFSW,XX08                CH FINAL SPECIFIED             67704021
 007D40 4140 CB5D      01AED        9888        LA    JD,GNCHF                   GEN PAR NM                      67711021
 007D44 4150 CB9C      01B2C        9889        LA    JE,CHFCOD                                                  67718021
 007D48                             9890 PCTH22 DS    0H                                                         67725021
 007D48 45E0 BABC      029D4        9891        BAL   JP,GNPAR              GNPAR                                67732021
                                    9892 *INITIAL CODING FOR CTL HDG FINAL                                       67739021
 007D4C                             9893        DS    0H                                                         67746021
 007D4C 4160 CB29      01AB9        9894        LA    JF,RSVE2                   GEN RPT-SAVE-2                  67753021
 007D50 45E0 B684      0259C        9895        BAL   JP,GENB               GENB - FILE 2                        67760021
 007D54 9110 D366      00396        9896          TM    DNSW,XX10                WAS A DATA NAME SPECIFIED       67767021
 007D58 4780 F4E4      07D6C        9897        BC    ZERO,PCTH23               NO...DO NOT GEN NOP              67774021
 007D5C 45E0 B79A      026B2        9898        BAL   JP,GNOP               GNOP                                 67781021
 007D60 45E0 B824      0273C        9899        BAL   JP,GNZER                   GEN ZERO                        67788021
 007D64 45E0 87BA      0736A        9900        BAL   JP,GNPSCK                  GO GEN PRINT-SWITCH CHECK       67795021
 007D68 9201 CB24      01AB4        9901          MVI   ORGFLG,XX01                                              67802021
 007D6C                             9902 PCTH23 DS    0H                                                         67809021
 007D6C 9200 CCF6      01C86        9903          MVI   CTLV01,XX00               CHF = LVL 0                    67816021
 007D70 47F0 F670      07EF8        9904        BC    UNCOND,PRTP7          PRTP7                                67823021
                                    9905 *PCTF -- PROCESS CTL FOOTING CLAUSE                                     67830021
                             07D74  9906 PCTF   EQU   *                                                          67837021
 007D74 45E0 B000      01F18        9907        BAL   JP,GETWD              GET WORD                             67844021
 007D78 D501 C6E4 C58D 01674 0151D  9908          CLC   CURCOD(LX2),EOSCON                                       67851021
 007D7E 4780 8C7E      0782E        9909        BC    EQ,TPER1                  INVALID TYPE                     67858021
 007D82 9554 C6E4      01674        9910          CLI   CURCOD,XX54               COBOL WD                       67865021
 007D86 4780 F544      07DCC        9911        BC    EQ,PCTF20                  YES-LOOK FOR FINAL              67872021
 007D8A 95A2 C6E4      01674        9912          CLI   CURCOD,XXA2               QUALIFIED NAME                 67879021
 007D8E 4780 F512      07D9A        9913        BC    EQ,PCTF1                  YES..CONTINUE                    67886021
 007D92 9523 C6E4      01674        9914          CLI   CURCOD,XX23               BCD NAME                       67893021
 007D96 4770 8C7E      0782E        9915        BC    NOTEQ,TPER1               NO...TYPE ERROR                  67900021
 007D9A                             9916 PCTF1  DS    0H                                                         67907021
 007D9A 45E0 F46C      07CF4        9917        BAL   JP,TMPCTL                 GO PUT TEMP ENTRY                67914021
                                    9918 *  CTSDSP HAS LAST VALID DISPLACEMENT                                   67921021
                                    9919 *  CELL1 HAS SIZE OF THIS TEMP ENTRY                                    67928021
                                    9920 ***                                                                     67935021
 007D9E 45E0 BB10      02A28        9921        BAL   JP,GETCTL                  GET CONTROL NAME                67942021
 007DA2 9110 1010      00010        9922          TM    DX16(JA),XX10            CF ALREADY DONE                 67949021
 007DA6 4780 F52A      07DB2        9923        BC    ZERO,CFGUD                 NO                              67956021
 007DAA 45E0 DC00      00C30        9924        BAL   JP,MSG109             ERROR MSG                            67963021
 007DAE 47F0 8C92      07842        9925        BC    UNCOND,RCOV1          RECOVERY                             67970021
 007DB2                             9926 CFGUD  DS    0H                                                         67977021
 007DB2 9604 C9E4      01974        9927          OI    TYPECD,XX04              TURN ON TYPE CF                 67984021
1PH1A     IKFCBL10                                                                                              PAGE  202
-  LOC  OBJECT CODE    ADDR1 ADDR2  STMT   SOURCE STATEMENT                                       ASM 0201 11.03 02/14/15
0007DB6 9610 1010      00010        9928          OI    DX16(JA),XX10            SET ON CF SPECIFIED             67991021
 007DBA D201 CD1A 1012 01CAA 00012  9929          MVC   GNCH(LX2),DX18(JA)        SAVE GN FOR THIS LEVEL         67998021
 007DC0 4141 0014      00014        9930          LA    JD,DX20(JA)              JD HAS ADDR OF CTF PAR NAME     68005021
 007DC4 4150 CB96      01B26        9931        LA    JE,CFCOD                   JE=CTF CODE                     68012021
 007DC8 47F0 F480      07D08        9932        BC    UNCOND,CHGUD1             GO CHECK FOR DATA-NAME           68019021
                                    9933 *                                                                       68026021
                                    9934 *CHECK FOR FINAL                                                        68033021
 007DCC                             9935 PCTF20 DS    0H                                                         68040021
 007DCC 95E7 C6E5      01675        9936          CLI   CURN,XXE7                 FINAL                          68047021
 007DD0 4770 8C7E      0782E        9937        BC    NOTEQ,TPER1           TPER1                                68054021
                             07DD4  9938 PCTF21 EQU   *                                                          68061021
 007DD4 9640 C9E5      01975        9939          OI    TYPECD+NX1,XX40           SET ON TYPE CF FINAL           68068021
 007DD8 9104 D361      00391        9940          TM    CFFSW,XX04                                               68075021
 007DDC 4770 8C8E      0783E        9941        BC    NOTZER,TPER3          TPER3                                68082021
 007DE0 9604 D361      00391        9942          OI    CFFSW,XX04                CF FINAL SPECIFIED             68089021
 007DE4 4140 CB5F      01AEF        9943        LA    JD,GNCFF                   GEN PAR-NM                      68096021
 007DE8 4150 CB9F      01B2F        9944        LA    JE,CFFCOD                                                  68103021
 007DEC 47F0 F4C0      07D48        9945        BC    UNCOND,PCTH22             GO CHECK FOR DATA-NAME           68110021
                                    9946 *PPGH -- PROCESS PGE HEADING                                            68117021
                             07DF0  9947 PPGH   EQU   *                                                          68124021
 007DF0 9620 C9E4      01974        9948          OI    TYPECD,XX20               SET ON PH TYPE CODE            68131021
 007DF4 9140 D361      00391        9949          TM    PHSW,XX40                  PH DONE                       68138021
 007DF8 4770 8C8E      0783E        9950        BC    NOTZER,TPER3               YES-ERROR                       68145021
 007DFC 9640 D361      00391        9951          OI    PHSW,XX40                 PH SPECIFIED                   68152021
 007E00 9140 D360      00390        9952          TM    RDCLSW,XX40              IN RD CLOSE ROUT                68159021
 007E04 4710 F5A4      07E2C        9953        BC    ONES,PPGH1                YES..SKIP TEST IF PH LEGAL       68166021
 007E08 9180 D362      00392        9954          TM    NOPGHD,XX80              IS PH LEGAL FOR THIS REPORT     68173021
 007E0C 4780 F5A4      07E2C        9955        BC    ZERO,PPGH1                YES..CONTINUE                    68180021
 007E10 9110 D362      00392        9956          TM    RELABS,XX10              SHOULD MSG BE PUT IN GCNTBL     68187021
 007E14 4710 F59C      07E24        9957        BO    PPGHA                     NO...GEN MSG                     68194021
 007E18 4120 DCE0      00D10        9958        LA    JB,MSG165                 YES..INDICATE PH MSG165          68201021
 007E1C 45E0 8B98      07748        9959        BAL   JP,GCNTBM                 GO PUT GCN IN GCNTBL             68208021
 007E20 47F0 F5A4      07E2C        9960        B     PPGH1                     CONTINUE                         68215021
 007E24                             9961 PPGHA  DS    0H                                                         68222021
 007E24 45E0 DCE0      00D10        9962        BAL   JP,MSG165                 NO...DIAGNOSE                    68229021
 007E28 58F0 C020      00FB0        9963        L     JQ,ADPR01                 RESTORE BASE                     68236021
 007E2C                             9964 PPGH1  DS    0H                                                         68243021
 007E2C 4140 CB43      01AD3        9965        LA    JD,GNPH                    JD= ADR OF PH PAR NAME          68250021
 007E30 4150 CB72      01B02        9966        LA    JE,PHCOD                   JE= PH TYPE CODE ADR            68257021
 007E34 47F0 F650      07ED8        9967        BC    UNCOND,PRPF10             GO CHECK FOR DATA-NAME           68264021
                                    9968 *PPGF -- PROCESS PAGE FOOTING                                           68271021
                             07E38  9969 PPGF   EQU   *                                                          68278021
 007E38 9610 C9E4      01974        9970          OI    TYPECD,XX10               SET ON PF TYPE CODE            68285021
 007E3C 9180 D361      00391        9971          TM    PFSW,XX80                 PF DONE                        68292021
 007E40 4770 8C8E      0783E        9972        BC    NOTZER,TPER3               YES-ERROR                       68299021
 007E44 9680 D361      00391        9973          OI    PFSW,XX80                 PF SPECIFIED                   68306021
 007E48 9140 D360      00390        9974          TM    RDCLSW,XX40              IN RD CLOSE ROUT                68313021
 007E4C 4710 F5EC      07E74        9975        BC    ONES,PPGF1                YES..SKIP TEST IF PF LEGAL       68320021
 007E50 9140 D362      00392        9976          TM    NOPGFT,XX40              IS PF LEGAL FOR THIS REPORT     68327021
 007E54 4780 F5EC      07E74        9977        BC    ZERO,PPGF1                YES..CONTINUE                    68334021
 007E58 9110 D362      00392        9978          TM    RELABS,XX10              SHOULD MSG BE PUT IN GCNTBL     68341021
 007E5C 4710 F5E4      07E6C        9979        BO    PPGFA                     NO...GEN MSG                     68348021
 007E60 4120 DCE4      00D14        9980        LA    JB,MSG166                 YES..INDICATE PF MSG166          68355021
 007E64 45E0 8B98      07748        9981        BAL   JP,GCNTBM                 GO PUT GCN IN GCNTBL             68362021
 007E68 47F0 F5EC      07E74        9982        B     PPGF1                     CONTINUE                         68369021
1PH1A     IKFCBL10                                                                                              PAGE  203
-  LOC  OBJECT CODE    ADDR1 ADDR2  STMT   SOURCE STATEMENT                                       ASM 0201 11.03 02/14/15
0007E6C                             9983 PPGFA  DS    0H                                                         68376021
 007E6C 45E0 DCE4      00D14        9984        BAL   JP,MSG166                 NO...DIAGNOSE                    68383021
 007E70 58F0 C020      00FB0        9985        L     JQ,ADPR01                 RESTORE BASE                     68390021
 007E74                             9986 PPGF1  DS    0H                                                         68397021
 007E74 4140 CB45      01AD5        9987        LA    JD,GNPF                    JD=ADR OF PF PAR NM             68404021
 007E78 4150 CB75      01B05        9988        LA    JE,PFCOD                   JE=PF TYPE CODE ADR             68411021
 007E7C 47F0 F610      07E98        9989        BC    UNCOND,PRPH10             GO GEN INITIAL CODE              68418021
                                    9990 *PRPH -- PROCESS REPORT HEADING                                         68425021
                             07E80  9991 PRPH   EQU   *                                                          68432021
 007E80 9680 C9E4      01974        9992          OI    TYPECD,XX80               SET ON RH TYPE CODE            68439021
 007E84 9120 D361      00391        9993          TM    RHSW,XX20                 RH DONE                        68446021
 007E88 4770 8C8E      0783E        9994        BC    NOTZER,TPER3               YES-ERROR                       68453021
 007E8C 9620 D361      00391        9995          OI    RHSW,XX20                 RH SPECIFIED                   68460021
 007E90 4140 CB3F      01ACF        9996        LA    JD,GNRH                    JD= AREA FOR PAR NM ID          68467021
 007E94 4150 CB6F      01AFF        9997        LA    JE,RHCOD                   JE= TYPE CODE RPT HDG           68474021
 007E98                             9998 PRPH10 DS    0H                                                         68481021
 007E98 9201 CB24      01AB4        9999          MVI   ORGFLG,XX01              INDICATE NOP ZERO IN RNMTBL     68488021
 007E9C 45E0 BABC      029D4       10000        BAL   JP,GNPAR              GNPAR                                68495021
                                   10001 * INITIAL CODING FOR RPTL-HDNG AND PGH-FTNG                             68502021
 007EA0 4160 CB2B      01ABB       10002        LA    JF,RSVE3                   GEN RPT-SAVE-3                  68509021
 007EA4 45E0 B684      0259C       10003        BAL   JP,GENB               FILE 2                               68516021
 007EA8 9110 D366      00396       10004          TM    DNSW,XX10                WAS A DATA-NAME SPECIFIED       68523021
 007EAC 4780 F670      07EF8       10005        BC    ZERO,PRTP7                NO...DO NOT GEN NOP              68530021
 007EB0 45E0 B79A      026B2       10006        BAL   JP,GNOP                    GEN NOP                         68537021
 007EB4 45E0 B824      0273C       10007        BAL   JP,GNZER                   GEN ZERO                        68544021
 007EB8                            10008 PRPH12 DS    0H                                                         68551021
 007EB8 45E0 87BA      0736A       10009        BAL   JP,GNPSCK                  GO GEN PRINT-SWITCH CHECK       68558021
 007EBC 47F0 F670      07EF8       10010        BC    UNCOND,PRTP7          PRTP7                                68565021
                                   10011 *PRPF -- PROCESS REPORT FOOTING                                         68572021
                             07EC0 10012 PRPF   EQU   *                                                          68579021
 007EC0 9640 C9E4      01974       10013          OI    TYPECD,XX40               SET ON RF TYPE SPECIFIED       68586021
 007EC4 9110 D361      00391       10014          TM    RFSW,XX10                 RF DONE                        68593021
 007EC8 4770 8C8E      0783E       10015        BC    NOTZER,TPER3               YES-ERROR                       68600021
 007ECC 9610 D361      00391       10016          OI    RFSW,XX10                 RF SPECIFIED                   68607021
 007ED0 4140 CB41      01AD1       10017        LA    JD,GNRF                    JD'AREA FOR PAR NM ID           68614021
 007ED4 4150 CB7B      01B0B       10018        LA    JE,RFCOD                   JE=TYPE CODE RPT FTG            68621021
 007ED8                            10019 PRPF10 DS    0H                                                         68628021
 007ED8 45E0 BABC      029D4       10020        BAL   JP,GNPAR              GNPAR                                68635021
 007EDC 9110 D366      00396       10021          TM    DNSW,XX10                WAS A DATA NAME SPECIFIED       68642021
 007EE0 4780 F670      07EF8       10022        BC    ZERO,PRTP7                NO...DO NOT GEN NOP              68649021
 007EE4 9200 CB24      01AB4       10023          MVI   ORGFLG,XX00              INDICATE NOP PLUS IN RNMTBL     68656021
 007EE8 45E0 B79A      026B2       10024        BAL   JP,GNOP               GNOP                                 68663021
 007EEC 4160 ACAA      0389A       10025        LA    JF,PLUSCD                                                  68670021
 007EF0 45E0 B684      0259C       10026        BAL   JP,GENB               FILE 2                               68677021
 007EF4 47F0 F630      07EB8       10027        BC    UNCOND,PRPH12             FINISH INITIAL CODE              68684021
                                   10028 *                                                                       68691021
                             07EF8 10029 PRTP7  EQU   *                                                          68698021
 007EF8 9140 D360      00390       10030          TM    RDCLSW,XX40               IN RD CLOSE ROUTINE            68705021
 007EFC 4770 843C      06FEC       10031        BC    NOTZER,CLRDA               GO BACK TO CLRD ROUTINE         68712021
 007F00 47F0 F33E      07BC6       10032        BC    UNCOND,PRTP6          PRTP6                                68719021
                                   10033 *                                                                       68726021
 007F04                            10034 END01A DS    0H                                                         68733021
 007F04 45E0 F684      07F0C       10035        BAL   JP,END01B             END01B                               68740021
 007F08 47F0 9CCC      06B6C       10036        BC    UNCOND,END01          END01                                68747021
                                   10037 *                                                                       68754021
1PH1A     IKFCBL10                                                                                              PAGE  204
-  LOC  OBJECT CODE    ADDR1 ADDR2  STMT   SOURCE STATEMENT                                       ASM 0201 11.03 02/14/15
0                                  10038 *END01B--COLLECTS INFORMATION FROM LINE AND NXT-GROUP CLAUSES AND       68761021
                                   10039 *        GENERATES PROCEDURE CODING FOR THEM.                           68768021
 007F0C                            10040 END01B DS    0H                                                         68775021
 007F0C 50E0 D8D4      00904       10041        ST    JP,JPN02S                                                  68782021
 007F10 9104 D365      00395       10042          TM    TPSW,XX04                 TYPE CLAUSE SPECIFIED          68789021
 007F14 4780 8C86      07836       10043        BC    ZERO,TPER2                 NO-ERROR                        68796021
 007F18 9110 D365      00395       10044          TM    NXGPSW,XX10              NEXT GROUP CLAUSE SPECIFIED     68803021
 007F1C 4780 F6D8      07F60       10045        BC    ZERO,END11            END11                                68810021
 007F20 9170 C9E4      01974       10046          TM    TYPECD,XX70              YES..CHECK FOR PH, PF, RF       68817021
 007F24 4780 F6AC      07F34       10047        BC    ZERO,END10                NOT PH PF OR RF..OK CONTINUE     68824021
 007F28 45E0 DBF8      00C28       10048        BAL   JP,MSG107             ERR MSG                              68831021
 007F2C 58F0 C020      00FB0       10049        L     JQ,ADPR01                 RESTORE BASE                     68838021
 007F30 47F0 F6D4      07F5C       10050        BC    UNCOND,END110         END10                                68845021
 007F34                            10051 END10  DS    0H                                                         68852021
 007F34 9501 C9CC      0195C       10052          CLI   NG01,XX01                NXT-GRP-INTEGER CLAUSE          68859021
 007F38 4780 F6BC      07F44       10053        BE    END101                    YES..CHECK VALIDITY              68866021
 007F3C 9610 D362      00392       10054          OI    RELABS,XX10              NO...INDICATE REL LINE SPEC     68873021
 007F40 47F0 F6D8      07F60       10055        B     END11                     CONTINUE                         68880021
 007F44                            10056 END101 DS    0H                                                         68887021
 007F44 9604 D366      00396       10057          OI    NGPSW,XX04               TURN ON IN NEXT GROUP           68894021
 007F48 45E0 8802      073B2       10058        BAL   JP,CHKLIN                 NO...BODY GROUP...CHECK          68901021
 007F4C 94FB D366      00396       10059          NI    NGPSW,XXFB               RESET                           68908021
 007F50 9101 D364      00394       10060          TM    BADLNA,XX01              IGNORE NEXT GROUP INT...        68915021
 007F54 4780 F6D8      07F60       10061        BC    ZERO,END11                NO                               68922021
 007F58 94FE D364      00394       10062          NI    BADLNA,XXFE              RESET                           68929021
 007F5C                            10063 END110 DS    0H                                                         68936021
 007F5C 94EF D365      00395       10064          NI    NXGPSW,XXEF              YES..RESET SWITCH               68943021
 007F60                            10065 END11  DS    0H                                                         68950021
 007F60 9108 D365      00395       10066          TM    LNSW,XX08                 LINE CLAUSE SPECIFIED          68957021
 007F64 4780 F746      07FCE       10067        BC    ZERO,EN1X                   NO EXIT                        68964021
 007F68 9500 C9B2      01942       10068          CLI   LN01,XX00                 NEXT PAGE                      68971021
 007F6C 4770 F708      07F90       10069        BC    NOTEQ,EN1A                 NO                              68978021
 007F70 91B0 C9E4      01974       10070          TM    TYPECD,XXB0              YES..CHECK FOR RH PH, OR PF     68985021
 007F74 4780 F700      07F88       10071        BC    ZERO,END20                NO...OK...CONTINUE               68992021
 007F78 94F7 D365      00395       10072          NI    LNSW,XXF7                YES..ILLEGAL..IGNORE            68999021
 007F7C 45E0 DCE8      00D18       10073        BAL   JP,MSG167                 DIAGNOSTIC                       69006021
 007F80 58F0 C020      00FB0       10074        L     JQ,ADPR01                 RESTORE BASE                     69013021
 007F84 47F0 F746      07FCE       10075        BC    UNCOND,EN1X               EXIT                             69020021
 007F88                            10076 END20  DS    0H                                                         69027021
 007F88 45E0 8448      06FF8       10077        BAL   JP,NPAGE              NPAGE                                69034021
 007F8C 47F0 F742      07FCA       10078        BC    UNCOND,EN1XIT              EXIT                            69041021
 007F90 9501 C9B2      01942       10079 EN1A     CLI   LN01,XX01                 INTEGER                        69048021
 007F94 4770 F72C      07FB4       10080        BC    NOTEQ,EN1B                 NO                              69055021
 007F98 45E0 8802      073B2       10081        BAL   JP,CHKLIN                 GO CHECK LIMITS FOR INTEGER      69062021
 007F9C 9101 D364      00394       10082          TM    BADLNA,XX01              SHOULD LINE BE IGNORED          69069021
 007FA0 4710 F724      07FAC       10083        BC    ONES,EN1A1                YES                              69076021
 007FA4 45E0 8732      072E2       10084        BAL   JP,LNT                    PROCESS FIRST LINE INTEGER       69083021
 007FA8 47F0 F742      07FCA       10085        BC    UNCOND,EN1XIT              EXIT                            69090021
 007FAC                            10086 EN1A1  DS    0H                                                         69097021
 007FAC 94FE D364      00394       10087          NI    BADLNA,XXFE              RESET                           69104021
 007FB0 47F0 F746      07FCE       10088        BC    UNCOND,EN1X               GO EXIT                          69111021
                                   10089 *EN1B-MUST BE PLUS INTEGER                                              69118021
                                   10090 *      MUST MAKE N. NAME                                                69125021
 007FB4                            10091 EN1B   DS    0H                                                         69132021
 007FB4 9120 D362      00392       10092          TM    PGESW,XX20               PAGE CLAUSE SPECIFIED           69139021
1PH1A     IKFCBL10                                                                                              PAGE  205
-  LOC  OBJECT CODE    ADDR1 ADDR2  STMT   SOURCE STATEMENT                                       ASM 0201 11.03 02/14/15
0007FB8 4780 F73E      07FC6       10093        BC    ZERO,EN1B1                NO...SKIP                        69146021
 007FBC 45E0 B712      0262A       10094        BAL   JP,NPTGN                   GET N.NAME                      69153021
 007FC0 D205 CC8C CCA1 01C1C 01C31 10095          MVC   PLINNM(LX6),NPTID         MOVE TO TABLE AREA             69160021
 007FC6                            10096 EN1B1  DS    0H                                                         69167021
 007FC6 45E0 847C      0702C       10097        BAL   JP,LPLUS              LPLUS                                69174021
 007FCA                            10098 EN1XIT DS    0H                                                         69181021
 007FCA 9608 D366      00396       10099          OI    LN01SW,XX08               SET ON 1ST LINE SW             69188021
                                   10100 *BUILD TABLE FOR USE BEFORE REPORTING                                   69195021
 007FCE                            10101 EN1X   DS    0H                                                         69202021
 007FCE 9102 C9E4      01974       10102          TM    TYPECD,XX02               DETAIL                         69209021
 007FD2 4770 F786      0800E       10103        BC    NOTZER,NOUBR          NOUBR                                69216021
 007FD6 9110 D366      00396       10104          TM    DNSW,XX10                 DN SPECIFIED                   69223021
 007FDA 4780 F786      0800E       10105        BC    ZERO,NOUBR                 NO                              69230021
                                   10106 * CHECK IF NAME ALREADY IN TBL. IF SO, DIAGNOSE AND CONTINUE            69237021
 007FDE 5810 C8A4      01834       10107        L     JA,RNMCON                 RNMTBL TIB                       69244021
 007FE2 45E0 BCC2      02BDA       10108        BAL   JP,TBLNIT                 GET START ETC                    69251021
 007FE6 4122 1000      00000       10109          LA    JB,DX0(JB,JA)            GET END IN JB                   69258021
 007FEA                            10110 EN1X10 DS    0H                                                         69265021
 007FEA D51F CB02 1000 01A92 00000 10111          CLC   RWDN(LX32),DX0(JA)        NAME IN TBL                    69272021
 007FF0 4780 8C52      07802       10112        BC    EQ,RDER90                 YES..ERROR                       69279021
 007FF4 4111 0023      00023       10113          LA    JA,DX35(JA)              GET NEXT ENTRY                  69286021
 007FF8 1912                       10114        CR    JA,JB                     END OF TBL                       69293021
 007FFA 4740 F762      07FEA       10115        BC    LO,EN1X10                 NO...CHECK NEXT ENTRY            69300021
 007FFE 4140 0023      00023       10116          LA    JD,DX35(JR)                                              69307021
 008002 5820 C8A4      01834       10117        L     JB,RNMCON                                                  69314021
 008006 4170 CB02      01A92       10118        LA    JG,RWDN                                                    69321021
 00800A 45E0 B464      0237C       10119        BAL   JP,MVSERT             INSERT SPEC TAMER TBL                69328021
 00800E                            10120 NOUBR  DS    0H                                                         69335021
 00800E 9110 D369      00399       10121          TM    EL01OK,XX10              IS THIS AN ELEMENTARY 01 ITM    69342021
 008012 4710 FC62      084EA       10122        BC    ONES,GNMOV                YES..CHECK FOR 02 CLAUSES        69349021
 008016 58E0 D8D4      00904       10123        L     JP,JPN02S                 RETURN ON JP                     69356021
 00801A 07FE                       10124        BCR   UNCOND,JP             RETURN                               69363021
                                   10125 *                                                                       69370021
                             0801C 10126 CLS01  EQU   *                                                          69377021
 00801C 45E0 F684      07F0C       10127        BAL   JP,END01B             EN001B                               69384021
 008020 47F0 9992      06832       10128        BC    UNCOND,RCKLV          RCKLV                                69391021
                                   10129 *                                                                       69398021
1PH1A     IKFCBL10                                                                                              PAGE  206
-  LOC  OBJECT CODE    ADDR1 ADDR2  STMT   SOURCE STATEMENT                                       ASM 0201 11.03 02/14/15
0                                  10131 *                                                                       69412021
                                   10132 *PROC02 -- ROUTINE SCANS AND PROCESSES ELEMENT ENTRIES IN REPORT SE     69419021
                                   10133 *                                                                       69426021
 008024                            10134 PROC02 DS    0H                                                         69433021
 008024 58F0 C020      00FB0       10135        L     JQ,ADPR01                 LOAD BASE REG FOR CSECT 113      69440021
 008028 5810 C8E4      01874       10136        L     JA,QALCON                 QALTBL TIB                       69447021
 00802C 45E0 B6B6      025CE       10137        BAL   JP,CLRTBL                 CLEAR TABLE                      69454021
 008030 9680 D364      00394       10138          OI    SCAN02,XX80              TURN ON IN 02 SCAN              69461021
 008034 D201 D7FB C6E2 0082B 01672 10139          MVC   CRDGCN+NX1(LX2),CURGCN     GEN CARD NO ON FILE 2         69468021
 00803A 4160 D7FA      0082A       10140        LA    JF,CRDGCN                  GEN CARD NO                     69475021
 00803E 45E0 B684      0259C       10141        BAL   JP,GENB               FILE 2                               69482021
 008042 5810 C814      017A4       10142        L     JA,COSADR                   GEN 02 IDENTIFIER              69489021
 008046 9101 11C6      001C6       10143          TM    PHZSW3,VERBR             LISTING A-TEXT OPTION           69496021
 00804A 47E0 F7D4      0805C       10144          BNO   PROC03              NO                                   69503021
 00804E 4120 CCE0      01C70       10145          LA    JB,ELTXTCD               ADDR OF TEXT                    69510021
 008052 1733                       10146        XR    JC,JC                      CLEAR XR3                       69517021
 008054 4330 CCDF      01C6F       10147        IC    JC,PUTCT8                                                  69524021
 008058 0501                       10148        BALR  JR,JA                 PHASE 0                              69531021
 00805A 12                         10149          DC    X'12'               WRITE ON SYSUT2                      69538021
 00805B 00
 00805C 94F7 D365      00395       10150 PROC03   NI    LNSW,XXF7                SET OFF 01 LINE SW              69545021
 008060 94EF D366      00396       10151          NI    DNSW,XXEF                 SET OFF DNSW                   69552021
 008064 D700 C9E6 C9E6 01976 01976 10152        XC    GPIND,GPIND                                                69559021
 00806A D703 D367 D367 00397 00397 10153          XC    COLSW(LX4),COLSW         RESET SWITCHES IN 02            69566021
 008070 45E0 B6A8      025C0       10154        BAL   JP,RSTLD              RSTLD                                69573021
 008074 9202 D423      00453       10155          MVI   LDLEV,XX02               MAKE 02 LVL FOR E.NAME          69580021
 008078 D201 C9F7 A38C 01987 02F7C 10156          MVC   VAL02(LX2),SPCCON          INITIALIZE VAL02 TO SPACE     69587021
                                   10157 *IF VALUE AND SOURCE MUST BE SEPARATED FROM VAL,REMOVE * A DEF SRCN     69594021
                                   10158 *      MVC   SRCNM(2),SPCCON            INIT SOURCE TO SPACE--VAL02     69601021
 00807E 45E0 B000      01F18       10159        BAL   JP,GETWD              GET WORD                             69608021
 008082 9523 C6E4      01674       10160          CLI   CURCOD,XX23               BCD NAME                       69615021
 008086 4780 F904      0818C       10161        BC    EQ,DODN2                   PROCESS DATA-NAME FOR 02        69622021
 00808A 47F0 F816      0809E       10162        BC    UNCOND,PR02A               COBOL WD                        69629021
 00808E                            10163 PRD020 DS    0H                                                         69636021
 00808E 9608 D369      00399       10164          OI    ELEMNN,XX08              TURN ON ELEMENTARY NN SWITCH    69643021
 008092                            10165 PERD02 DS    0H                                                         69650021
 008092 9102 D366      00396       10166          TM    ELEM01,XX02              IN ELEMENTARY 01 SCAN           69657021
 008096 4710 F100      07988       10167        BC    ONES,PR0111               YES..GO BACK TO PERD01           69664021
 00809A 45E0 B000      01F18       10168        BAL   JP,GETWD              GET WORD                             69671021
                                   10169 *                                                                       69678021
                                   10170 *        ENTRY POINT FOR ELEMENTARY 01 ITEM                             69685021
                                   10171 *                                                                       69692021
 00809E D501 C6E4 C58D 01674 0151D 10172 PR02A    CLC   CURCOD(LX2),EOSCON        PERIOD FOUND                   69699021
 0080A4 4780 FBE0      08468       10173        BC    EQ,END02A                  YES                             69706021
 0080A8 95FC C6E5      01675       10174          CLI   CURN,XXFC                 COLUMN                         69713021
 0080AC 4780 F91C      081A4       10175        BC    EQ,PRCOL                   YES -- GO TO COLUMN ROUTINE     69720021
 0080B0 9595 C6E5      01675       10176          CLI   CURN,XX95                 LINE                           69727021
 0080B4 4780 F998      08220       10177        BC    EQ,PRLN02                  YES -- GO TO LINE ROUTINE       69734021
 0080B8 95EE C6E5      01675       10178          CLI   CURN,XXEE                 GROUP                          69741021
 0080BC 4770 F844      080CC       10179        BC    NOTEQ,PR021           PR021                                69748021
 0080C0 95FD C79B      0172B       10180          CLI   NXTN,XXFD                 INDICATE                       69755021
 0080C4 4770 F9A8      08230       10181        BC    NOTEQ,PRG2            PRG2                                 69762021
 0080C8 47F0 F9A4      0822C       10182        BC    UNCOND,PRG1                PROCESS GROUP INDICATE          69769021
 0080CC                            10183 PR021  DS    0H                                                         69776021
 0080CC 95FE C6E5      01675       10184          CLI   CURN,XXFE                 SOURCE                         69783021
1PH1A     IKFCBL10                                                                                              PAGE  207
-  LOC  OBJECT CODE    ADDR1 ADDR2  STMT   SOURCE STATEMENT                                       ASM 0201 11.03 02/14/15
00080D0 4780 F9BC      08244       10185        BC    EQ,PRSRC                   GO TO SOURCE ROUTINE            69790021
 0080D4 95FF C6E5      01675       10186          CLI   CURN,XXFF                 SUM                            69797021
 0080D8 4780 FA24      082AC       10187        BC    EQ,PRSUM                   GO TO SUM ROUTINE               69804021
 0080DC 9528 C6E5      01675       10188          CLI   CURN,XX28                RESET                           69811021
 0080E0 4780 FB8A      08412       10189        BC    EQ,DORSET                 YES..GO TO RESET ROUTINE         69818021
 0080E4 95D8 C6E5      01675       10190          CLI   CURN,XXD8                 PICTURE                        69825021
 0080E8 4770 F878      08100       10191        BC    NOTEQ,PR022           PR022                                69832021
 0080EC 50F0 CE44      01DD4       10192        ST    JQ,PSA                                                     69839021
 0080F0 58F0 C040      00FD0       10193        L     JQ,ADSCN                                                   69846021
                             04D60 10194          USING  DDSCN,JQ                                                69853021
 0080F4 45E0 F436      05196       10195        BAL   JP,RPICT1                  GO TO PICT ROUTNE               69860021
                                   10196        DROP    JQ                                                       69867021
                             07888 10197        USING   PROC01,JQ                                                69874021
 0080F8 58F0 CE44      01DD4       10198        L      JQ,PSA                                                    69881021
 0080FC 47F0 F806      0808E       10199        BC    UNCOND,PRD020             CONTINUE                         69888021
 008100 95D9 C6E5      01675       10200 PR022    CLI   CURN,XXD9                 BLANK                          69895021
 008104 4770 F894      0811C       10201        BC    NOTEQ,PR023           PR023                                69902021
 008108 50F0 CE44      01DD4       10202        ST    JQ,PSA                                                     69909021
 00810C 58F0 C040      00FD0       10203        L     JQ,ADSCN                                                   69916021
                             04D60 10204          USING  DDSCN,JQ                                                69923021
 008110 45E0 F476      051D6       10205        BAL   JP,RBLNK1                  GO TO BWZ ROUTINE               69930021
                                   10206        DROP    JQ                                                       69937021
                             07888 10207        USING   PROC01,JQ                                                69944021
 008114 58F0 CE44      01DD4       10208        L      JQ,PSA                                                    69951021
 008118 47F0 F806      0808E       10209        BC    UNCOND,PRD020             CONTINUE                         69958021
 00811C 95DB C6E5      01675       10210 PR023    CLI   CURN,XXDB                 JUSTIFIED                      69965021
 008120 4770 F8B0      08138       10211        BC    NOTEQ,PR024           PR024                                69972021
 008124 50F0 CE44      01DD4       10212        ST    JQ,PSA                                                     69979021
 008128 58F0 C040      00FD0       10213        L     JQ,ADSCN                                                   69986021
                             04D60 10214          USING  DDSCN,JQ                                                69993021
 00812C 45E0 F8D4      05634       10215        BAL   JP,RJUST1                  GO TO JUSTIFIED ROUTINE         70000021
                                   10216        DROP    JQ                                                       70007021
                             07888 10217        USING   PROC01,JQ                                                70014021
 008130 58F0 CE44      01DD4       10218        L      JQ,PSA                                                    70021021
 008134 47F0 F806      0808E       10219        BC    UNCOND,PRD020             CONTINUE                         70028021
 008138 95CA C6E5      01675       10220 PR024    CLI   CURN,XXCA                 VALUE                          70035021
 00813C 4770 F8D8      08160       10221        BC    NOTEQ,PR025           PR025                                70042021
 008140 9101 D367      00397       10222          TM    VALSW,XX01               CLAUSE ALREADY SPECIFIED        70049021
 008144 4710 8BF6      077A6       10223        BC    ONES,DUPERR               YES..ERROR                       70056021
 008148 50F0 CE44      01DD4       10224        ST    JQ,PSA                                                     70063021
 00814C 58F0 C040      00FD0       10225        L     JQ,ADSCN                                                   70070021
                             04D60 10226          USING  DDSCN,JQ                                                70077021
 008150 45E0 F6F6      05456       10227        BAL   JP,RVAL11                  GO TO VALUE ROUTINE             70084021
                                   10228        DROP    JQ                                                       70091021
                             07888 10229        USING   PROC01,JQ                                                70098021
 008154 58F0 CE44      01DD4       10230        L      JQ,PSA                                                    70105021
 008158 9601 D367      00397       10231          OI    VALSW,XX01                SET ON VALUE SW                70112021
 00815C 47F0 F80A      08092       10232        BC    UNCOND,PERD02         PERD02-IN 01 SCAN?                   70119021
 008160                            10233 PR025  DS    0H                                                         70126021
 008160 9102 D366      00396       10234          TM    ELEM01,XX02              IN ELEMENTARY 01 SCAN           70133021
 008164 4780 F8E8      08170       10235        BC    ZERO,PR0250               NO...CONTINUE                    70140021
 008168 94FD D366      00396       10236          NI    ELEM01,XXFD              YES..RESET TO INDICATE ERROR    70147021
 00816C 47F0 F0F8      07980       10237        BC    UNCOND,PR0110             RETURN                           70154021
 008170                            10238 PR0250 DS    0H                                                         70161021
 008170 95DD C6E5      01675       10239          CLI   CURN,XXDD                USAGE                           70168021
1PH1A     IKFCBL10                                                                                              PAGE  208
-  LOC  OBJECT CODE    ADDR1 ADDR2  STMT   SOURCE STATEMENT                                       ASM 0201 11.03 02/14/15
0008174 4770 F8F8      08180       10240        BNE   PR0251                    NO...CHECK FOR DISPLAY           70175021
 008178 45E0 B18E      020A6       10241        BAL   JP,CHKIS                  CHECK IS                         70182021
 00817C 45E0 B000      01F18       10242        BAL   JP,GETWD                  GET WORD                         70189021
 008180                            10243 PR0251 DS    0H                                                         70196021
 008180 9526 C6E5      01675       10244          CLI   CURN,XX26                DISPLAY                         70203021
 008184 4780 F80A      08092       10245        BC    EQ,PERD02                 YES..CONTINUE                    70210021
 008188 47F0 8C66      07816       10246        BC    UNCOND,CLER3              NO...ERROR                       70217021
                                   10247 *                                                                       70224021
                                   10248 *DODN2 -- PROCESS DATANAME FOR O2                                       70231021
                             0818C 10249 DODN2  EQU   *                                                          70238021
 00818C D21F CB02 C6E4 01A92 01674 10250          MVC   RWDN(LX32),CURCOD         SAVE DATA-NAME *01 USES 30*    70245021
 008192 9610 D366      00396       10251          OI    DNSW,XX10                 SET ON DATA-NAME GIVEN         70252021
 008196 5810 C814      017A4       10252        L       JA,COSADR                                                70259021
 00819A FA33 118C D5FE 0018C 0062E 10253          AP    DATE-COS(LX4,JA),INCRONE DN COUNT +1 FOR FD,SD,RD        70266021
 0081A0 47F0 F80A      08092       10254        BC    UNCOND,PERD02         PERD02-IN 01 SCAN?                   70273021
                                   10255 *PRCOL -- PROCESS COLUMN CLAUSE                                         70280021
 0081A4                            10256 PRCOL  DS    0H                                                         70287021
 0081A4 9544 C79B      0172B       10257          CLI   NXTN,XX44                NEXT IS NUMBER                  70294021
 0081A8 4770 F928      081B0       10258        BC    NOTEQ,PRCL1               NO...NO SKIP                     70301021
 0081AC 45E0 B000      01F18       10259        BAL   JP,GETWD                  YES..SKIP                        70308021
 0081B0                            10260 PRCL1  DS    0H                                                         70315021
 0081B0 45E0 B18E      020A6       10261        BAL   JP,CHKIS                   CHECK FOR 'IS'                  70322021
 0081B4 45E0 B000      01F18       10262        BAL   JP,GETWD              GET WORD                             70329021
 0081B8 9532 C6E4      01674       10263          CLI   CURCOD,XX32          ***  NUMERIC LITERAL                70336021
 0081BC 4770 8C66      07816       10264        BC    NOTEQ,CLER2                NO-ERROR                        70343021
 0081C0 9180 D367      00397       10265          TM    COLSW,XX80               COLUMN CLAUSE ALREADY SPEC      70350021
 0081C4 4710 8BF6      077A6       10266        BC    ONES,DUPERR               YES..ERROR                       70357021
 0081C8 9680 D367      00397       10267          OI    COLSW,XX80                SET ON COL SW                  70364021
                                   10268 *            GEN E.NNNN REDEF RPT.LIN FOR COL CLAUSE                    70371021
 0081CC 9102 D367      00397       10269          TM    SUMSW,XX02                SUM CLAUSE DONE                70378021
 0081D0 4770 F950      081D8       10270        BC    NOTZER,NOEPT               YES                             70385021
 0081D4 45E0 B700      02618       10271        BAL   JP,EPTGN                   GEN E.NNNN                      70392021
 0081D8                            10272 NOEPT  DS    0H                                                         70399021
 0081D8 D206 D42D CC95 0045D 01C25 10273          MVC   LD(LX7),EPTLD             PUT E.NNNN IN D FIELD          70406021
 0081DE D207 C9E7 CC94 01977 01C24 10274        MVC   GNM02E,EPTIC               SAVE E.NNNN IN CUR 02 AREA      70413021
 0081E4 9648 D427      00457       10275          OI    LOD1,XX48                 SET ON REDEF,+ OD1             70420021
 0081E8 D207 D4E4 9C7C 00514 06B1C 10276          MVC   LR2(LX8),RPLCON           PUT REDEF FIELD IN R2          70427021
 0081EE 45E0 B528      02440       10277        BAL   JP,CNVBIN                  CONVERT TO BINARY               70434021
 0081F2 1222                       10278        LTR   JB,JB                      COL 0                           70441021
 0081F4 4720 F97A      08202       10279        BH    PRCOL2                    COLUMN NUMBER GT 0..OK           70448021
 0081F8                            10280 COLERR DS    0H                                                         70455021
 0081F8 45E0 DD18      00D48       10281        BAL   JP,MSG179                 COLUMN NUMBER ERROR              70462021
 0081FC 1B22                       10282        SR    JB,JB                     ASSUME COLUMN 1                  70469021
 0081FE 47F0 F986      0820E       10283        B     PRCOL3                    CONTINUE                         70476021
 008202                            10284 PRCOL2 DS    0H                                                         70483021
 008202 4920 CDC4      01D54       10285        CH    JB,RWLREC                 COLUMN NUMBER TO REPORT SIZE     70490021
 008206 4720 F970      081F8       10286        BH    COLERR                    COLUMN GT RECORD SIZE..ERROR     70497021
 00820A 4B20 C14E      010DE       10287        SH    JB,HWONE                  SUBTRACT 1 FOR REDEFINES         70504021
 00820E                            10288 PRCOL3 DS    0H                                                         70511021
 00820E 4020 CD66      01CF6       10289        STH   JB,RWLOD2                                                  70518021
 008212 D201 D503 CD66 00533 01CF6 10290          MVC   LOD2(LX2),RWLOD2                                         70525021
 008218 9680 D365      00395       10291          OI    COLCLS,XX80              COL SW ON FOR THIS RPT-GRP      70532021
 00821C 47F0 F80A      08092       10292        BC    UNCOND,PERD02         PERD02-IN 01 SCAN?                   70539021
                                   10293 *PRLN02-- PROCESS LINE CLAUSE FOR 02                                    70546021
                             08220 10294 PRLN02 EQU   *                                                          70553021
1PH1A     IKFCBL10                                                                                              PAGE  209
-  LOC  OBJECT CODE    ADDR1 ADDR2  STMT   SOURCE STATEMENT                                       ASM 0201 11.03 02/14/15
0008220 45E0 F1BE      07A46       10295        BAL   JP,PRLN               PRLN                                 70560021
 008224 9640 D368      00398       10296          OI    LN2SW,XX40                                               70567021
 008228 47F0 F80A      08092       10297        BC    UNCOND,PERD02         PERD02-IN 01 SCAN?                   70574021
                                   10298 *PRG1  -- PROCESS GROUP INDICATE CLAUSE                                 70581021
                             0822C 10299 PRG1   EQU   *                                                          70588021
 00822C 45E0 B000      01F18       10300        BAL   JP,GETWD                   SKIP OVER 'INDICATE'            70595021
 008230                            10301 PRG2   DS    0H                          ENTRY IF GROUP ONLY     10     70602021
 008230 9180 C9E6      01976       10302          TM    GPIND,XX80               CLAUSE ALREADY SPECIFIED        70609021
 008234 4710 8BF6      077A6       10303        BC    ONES,DUPERR               YES..ERROR                       70616021
 008238 9680 C9E6      01976       10304          OI    GPIND,XX80                                               70623021
 00823C 45E0 B74C      02664       10305        BAL   JP,GRPTGN                 GET GP.NNNN NAME                 70630021
 008240 47F0 F806      0808E       10306        BC    UNCOND,PRD020             CONTINUE                         70637021
                                   10307 *PRSRC -- PROCESS SOURCE CLAUSE                                         70644021
                             08244 10308 PRSRC  EQU   *                                                          70651021
 008244 9104 D367      00397       10309          TM    SRCSW,XX04                                               70658021
 008248 4770 8BF6      077A6       10310        BC    NOTZER,DUPERR         DUPERR-DUP CLAUSE ERR                70665021
 00824C                            10311 PRSRC1 DS    0H                                                         70672021
 00824C 45E0 B18E      020A6       10312        BAL   JP,CHKIS                   CHECK FOR 'IS'                  70679021
 008250 D501 C79A C58D 0172A 0151D 10313          CLC   NXTCOD(LX2),EOSCON       NEXT IS .                       70686021
 008256 4780 8C66      07816       10314        BC    EQ,CLER3                  YES..ERROR..NO OPERAND           70693021
 00825A 45E0 F46C      07CF4       10315        BAL   JP,TMPCTL                 GO PUT TEMP ENTRY                70700021
 00825E 9604 D367      00397       10316          OI    SRCSW,XX04               TURN ON SOURCE SWITCH           70707021
                                   10317 * CTSDSP HAS LAST VALID DISPLACEMENT IN CTLTBL                          70714021
                                   10318 * CELL1 HASSIZE OF THIS ENTRY                                           70721021
                                   10319 * JB ALSO HAS SIZE OF TEMP ENTRY                                        70728021
 008262 9102 C9E4      01974       10320          TM    TYPECD,XX02              TYPE DETAIL                     70735021
 008266 4780 FA20      082A8       10321        BC    ZERO,PRSRC2               NOT...DO NOT PUT IN CTSTBC       70742021
 00826A 5810 C8EC      0187C       10322        L     JA,SRCCON                 SRCTBL TIB                       70749021
 00826E 9200 1000      00000       10323          MVI   DX0(JA),XX00             VARIABLE LENGTH TBL             70756021
 008272 1852                       10324        LR    JE,JB                     SAVE SIZE                        70763021
 008274 0650                       10325        BCTR  JE,JR                     SUBTRACT 1 FOR MOVE              70770021
 008276 4102 0004      00004       10326          LA    JR,DX4(JB)               TEMP ENTRY SIZE + 4             70777021
 00827A 58F0 C81C      017AC       10327        L     JQ,ADSERT                 CALL                             70784021
 00827E 05EF                       10328        BALR  JP,JQ                       INSERT                         70791021
 008280 58F0 D838      00868       10329          L     JQ,SVREG+NX56            RESTORE JQ                      70798021
                                   10330 * JB HAS STARTING ADDRESS FOR INSERT                                    70805021
 008284 D201 2000 CDBC 00000 01D4C 10331          MVC   DX0(LX2,JB),CELL1         SOURCE ENTRY SIZE TO TBL       70812021
 00828A D201 2002 C9AC 00002 0193C 10332          MVC   DX2(LX2,JB),DETSAV        DISPL THIS DETAIL TO SRCTBL    70819021
 008290 4122 0004      00004       10333          LA    JB,DX4(JB)               STEP TO ENTRY                   70826021
 008294 5870 C8B4      01844       10334        L     JG,CTLCON                 CTLTBL TIB                       70833021
 008298 5877 0000      00000       10335          L     JG,DX0(JG)               TAMM                            70840021
 00829C 5877 0000      00000       10336          L     JG,DX0(JG)               TBL                             70847021
 0082A0 4A70 CDC6      01D56       10337        AH    JG,CTSDSP                 POINT TO TEMP ENTRY              70854021
 0082A4 4450 BAAA      029C2       10338        EX    JE,RDXMOV                 MOVE TEMP ENTRY TO TBL           70861021
 0082A8                            10339 PRSRC2 DS    0H                                                         70868021
 0082A8 47F0 F80A      08092       10340        BC    UNCOND,PERD02             CONTINUE WITH 02 SCAN            70875021
                                   10341 *PRSUM -- PROCESS SUM CLAUSE                                            70882021
 0082AC                            10342 PRSUM  DS    0H                                                         70889021
 0082AC 9102 D367      00397       10343          TM    SUMSW,XX02               CLAUSE ALREADY SPECIFIED        70896021
 0082B0 4710 8BF6      077A6       10344        BC    ONES,DUPERR               YES..ERROR                       70903021
 0082B4 45E0 B18E      020A6       10345        BAL   JP,CHKIS                  CHECK IS                         70910021
 0082B8 D501 C79A C58D 0172A 0151D 10346          CLC   NXTCOD(LX2),EOSCON       NEXT IS .                       70917021
 0082BE 4780 8C66      07816       10347        BC    EQ,CLER3                  YES..ERROR..NO OPERAND           70924021
 0082C2 9104 C9E4      01974       10348          TM    TYPECD,XX04               ALLOW SUM ONLY FO CF + CFF     70931021
 0082C6 4770 FA52      082DA       10349        BC    NOTZER,SUMOK          SUMOK-COL SPECIFIED?                 70938021
1PH1A     IKFCBL10                                                                                              PAGE  210
-  LOC  OBJECT CODE    ADDR1 ADDR2  STMT   SOURCE STATEMENT                                       ASM 0201 11.03 02/14/15
00082CA 9140 C9E5      01975       10350          TM    TYPECD+NX1,XX40                                          70945021
 0082CE 4770 FA52      082DA       10351        BC    NOTZER,SUMOK          SUMOK-COL SPECIFIED?                 70952021
 0082D2 45E0 DC04      00C34       10352        BAL   JP,MSG110             ERROR                                70959021
 0082D6 47F0 F80A      08092       10353        B     PERD02                    CONTINUE                         70966021
 0082DA                            10354 SUMOK  DS    0H                                                         70973021
 0082DA 9180 D367      00397       10355          TM    COLSW,XX80                COL SPECIFIED                  70980021
 0082DE 4770 FA72      082FA       10356        BC    NOTZER,SUMP1               YES--OK                         70987021
                                   10357 *NO COL CLAUSE--MUST DUMMY ONE                                          70994021
 0082E2 45E0 B700      02618       10358        BAL   JP,EPTGN              EPTGN                                71001021
 0082E6 D206 D42D CC95 0045D 01C25 10359          MVC   LD(LX7),EPTLD                                            71008021
 0082EC 9648 D427      00457       10360          OI    LOD1,XX48                                                71015021
 0082F0 D207 D4E4 9C7C 00514 06B1C 10361          MVC   LR2(LX8),RPLCON                                          71022021
 0082F6 920C D504      00534       10362          MVI   LOD2+NX1,XX0C                                            71029021
 0082FA                            10363 SUMP1  DS    0H                                                         71036021
 0082FA D206 CD8C CC95 01D1C 01C25 10364          MVC   PIC02(LX7),EPTLD                                         71043021
                                   10365 *                                                                       71050021
 008300 9602 D367      00397       10366          OI    SUMSW,XX02                SET SUMSW 'ON'                 71057021
                                   10367 *BUILD SUM TABLE                                                        71064021
 008304                            10368        DS    0H                                                         71071021
 008304 9110 D366      00396       10369          TM    DNSW,XX10                 DATA NAME GIVEN                71078021
 008308 4770 FA92      0831A       10370        BC    NOTZER,PRSM1               YES                             71085021
 00830C 45E0 B724      0263C       10371        BAL   JP,SPTGN                   GET S.NAME                      71092021
 008310 D207 C9EF CCAA 0197F 01C3A 10372        MVC   GNM02S,SPTIC               SAVE FOR MOVE                   71099021
 008316 47F0 FA9E      08326       10373        BC    UNCOND,PRSM1A         PRSM1A                               71106021
 00831A                            10374 PRSM1  DS    0H                         DATA NAME GIVEN                 71113021
                                   10375 * CHECK IF NAME IN TABLE. IF NOT, INSERT AND RETURN PTR IN RNSTRT       71120021
 00831A 9601 D9C0      009F0       10376          OI    DNSW1,XX01                TURN  'ON' DATA NAME SW1       71127021
 00831E 45E0 BBBA      02AD2       10377        BAL   JP,CHKRNT             CHKRNT-NAME IN RN TB?                71134021
 008322 94FE D9C0      009F0       10378          NI    DNSW1,XXFE                TURN 'OFF' DATA NAME SW1       71141021
                                   10379 *RNSTRT NOW HAS DISP IN RNTBL                                           71148021
 008326                            10380 PRSM1A DS    0H                                                         71155021
 008326 45E0 B978      02890       10381        BAL   JP,SUM45                   GET STARTING 45 BYTES           71162021
 00832A D21E 200E CD8C 0000E 01D1C 10382          MVC   DX14(LX31,JB),PIC02        INSERT PICTURE                71169021
 008330 D201 2007 C14C 00007 010DC 10383          MVC   DX7(LX2,JB),HWZERO         UPON PTR TO ZERO              71176021
 008336 D200 2003 CCF6 00003 01C86 10384          MVC   DX3(LX1,JB),CTLV01         INSERT LEVEL                  71183021
 00833C D201 2004 C6E2 00004 01672 10385          MVC   DX4(LX2,JB),CURGCN        CUR GCN TO TBL                 71190021
 008342 D200 2006 CCF6 00006 01C86 10386          MVC   DX6(LX1,JB),CTLV01         RESET LVL = SUM LVL           71197021
 008348 9110 D366      00396       10387          TM    DNSW,XX10                 DN GIVEN                       71204021
 00834C 4770 FAD6      0835E       10388        BC    NOTZER,PRSM1B              YES-INSERT PTR FROM RNTBL       71211021
 008350 9201 2009      00009       10389          MVI   DX9(JB),XX01              NO INSERT S.NAME               71218021
 008354 D203 200A CCAE 0000A 01C3E 10390          MVC   DX10(LX4,JB),SPTID1        AND CODE AS S.NM              71225021
 00835A 47F0 FAE0      08368       10391        BC    UNCOND,PRSM2          PRSM2 -NEXT QUAL NME?                71232021
 00835E                            10392 PRSM1B DS    0H                                                         71239021
 00835E D201 200A CDB4 0000A 01D44 10393          MVC   DX10(LX2,JB),RNSTRT        INSERT SUM NM PTR             71246021
 008364 9200 2009      00009       10394          MVI   DX9(JB),XX00              AND CODE AS SUM NM             71253021
                                   10395 *                                                                       71260021
 008368                            10396 PRSM2  DS    0H                                                         71267021
 008368 95A2 C79A      0172A       10397          CLI   NXTCOD,XXA2              IS NEXT QUAL NAME               71274021
 00836C 4780 FAFA      08382       10398        BC    EQ,PRSM20                 YES..OK                          71281021
 008370 9523 C79A      0172A       10399          CLI   NXTCOD,XX23              BCD NAME                        71288021
 008374 4780 FAFA      08382       10400        BC    EQ,PRSM20                 YES..OK                          71295021
 008378 D501 C79A A3A4 0172A 02F94 10401          CLC   NXTCOD(LX2),TALCON       TALLY                           71302021
 00837E 4770 FB56      083DE       10402        BNE   PRSM3                     OPERANDS DONE                    71309021
 008382                            10403 PRSM20 DS    0H                                                         71316021
 008382 45E0 F46C      07CF4       10404        BAL   JP,TMPCTL                 GO PUT TEMP ENTRY                71323021
1PH1A     IKFCBL10                                                                                              PAGE  211
-  LOC  OBJECT CODE    ADDR1 ADDR2  STMT   SOURCE STATEMENT                                       ASM 0201 11.03 02/14/15
0                                  10405 * CTSDSP HAS LAST VALID DISPLACEMENT IN CTLTBL                          71330021
                                   10406 * CELL1 HAS SIZE OF TEMP ENTRY                                          71337021
                                   10407 * JB ALSO HAS SIZE OF TEMP ENTRY                                        71344021
 008386 5810 C8F4      01884       10408        L     JA,SMSCON                 SMSTBL TIB                       71351021
 00838A 5831 0000      00000       10409          L     JC,DX0(JA)               TAMM                            71358021
 00838E D201 CDCA 3004 01D5A 00004 10410          MVC   SAVDSP(LX2),DX4(JC)       SAVE DISPLACEMENT              71365021
 008394 9200 1000      00000       10411          MVI   DX0(JA),XX00             VARIABLE LENGTH TBL             71372021
 008398 1852                       10412        LR    JE,JB                     SAVE SIZE                        71379021
 00839A 0650                       10413        BCTR  JE,JR                     SUBTRACT 1 FOR MOVE              71386021
 00839C 4102 0002      00002       10414          LA    JR,DX2(JB)               TEMP ENTRY SIZE + 2             71393021
 0083A0 58F0 C81C      017AC       10415        L     JQ,ADSERT                 CALL                             71400021
 0083A4 05EF                       10416        BALR  JP,JQ                       INSERT                         71407021
 0083A6 58F0 D838      00868       10417          L     JQ,SVREG+NX56            RESTORE JQ                      71414021
                                   10418 * JB HAS STARTING ADDRESS FOR INSERT                                    71421021
 0083AA D201 2000 CDBC 00000 01D4C 10419          MVC   DX0(LX2,JB),CELL1         SUM ENTRY SIZE TO TBL          71428021
 0083B0 4122 0002      00002       10420          LA    JB,DX2(JB)               POINT TO ENTRY                  71435021
 0083B4 5870 C8B4      01844       10421        L     JG,CTLCON                 CTLTBL TIB                       71442021
 0083B8 5877 0000      00000       10422          L     JG,DX0(JG)               TAMM                            71449021
 0083BC 5877 0000      00000       10423          L     JG,DX0(JG)               TBL                             71456021
 0083C0 4A70 CDC6      01D56       10424        AH    JG,CTSDSP                 POINT TO TEMP ENTRY              71463021
 0083C4 4450 BAAA      029C2       10425        EX    JE,RDXMOV                 MOVE TO TBL                      71470021
 0083C8 5870 C8B4      01844       10426        L     JG,CTLCON                 CTLTBL TIB                       71477021
 0083CC 5877 0000      00000       10427          L     JG,DX0(JG)               TAMM                            71484021
 0083D0 D201 7004 CDC6 00004 01D56 10428          MVC   DX4(LX2,JG),CTSDSP        RESET DISPLACEMENT             71491021
                                   10429 * INSERT OPERAND PTR INTO SUMTBL                                        71498021
                                   10430 * PTR POINTS TO NAME IN SMSTBL                                          71505021
                                   10431 *                                                                       71512021
 0083D6 45E0 B9B8      028D0       10432        BAL   JP,SUM02              SUM02 -SUMTBL                        71519021
                                   10433 *                                                                       71526021
 0083DA 47F0 FAE0      08368       10434        BC    UNCOND,PRSM2          PRSM2 -NEXT QUAL NME?                71533021
                                   10435 *                                                                       71540021
                                   10436 *PRSM3  ALL SUM OPNDS PROCESSED LOOK FOR UPON                           71547021
                                   10437 *                                                                       71554021
 0083DE                            10438 PRSM3  DS    0H                                                         71561021
                                   10439 * PUT 0 IN SAVDSP TO FLAG END OF SUM OPERANDS                           71568021
                                   10440 *****                                                                   71575021
 0083DE D201 CDCA C14C 01D5A 010DC 10441          MVC   SAVDSP(LX2),HWZERO       ZERO TO SAVDSP                  71582021
 0083E4 45E0 B9B8      028D0       10442        BAL   JP,SUM02              SUM02 -SUMTBL                        71589021
 0083E8 9598 C79B      0172B       10443          CLI   NXTN,XX98                IS NEXT UPON                    71596021
 0083EC 4770 F80A      08092       10444        BNE   PERD02                    NO...CONTINUE                    71603021
                                   10445 *UPON FOUND - GET DETAIL NAME                                           71610021
 0083F0                            10446 PRSM4  DS    0H                                                         71617021
 0083F0 45E0 B000      01F18       10447        BAL   JP,GETWD                  GET UPON                         71624021
 0083F4 45E0 B000      01F18       10448        BAL   JP,GETWD                  GET WORD AFTER UPON              71631021
 0083F8 9523 C6E4      01674       10449          CLI   CURCOD,XX23               BCD NAME                       71638021
 0083FC 4770 8C66      07816       10450        BC    NOTEQ,CLER3               NO...ERROR                       71645021
 008400 45E0 BC3E      02B56       10451        BAL   JP,CHKDET                  CHECK IF NAME IN DETAIL TAB     71652021
                                   10452 *OPND PTR IS IN RNSTRT SUMPON GETS START OF SUM ENTRY IN JB             71659021
 008404                            10453        DS    0H                                                         71666021
 008404 45E0 B9E6      028FE       10454        BAL   JP,SUMPON             SUMPON -SUMTBL                       71673021
 008408 D201 2007 CDB4 00007 01D44 10455          MVC   DX7(LX2,JB),RNSTRT         INSERT UPON PTR               71680021
 00840E 47F0 F80A      08092       10456        BC    UNCOND,PERD02             CONTINUE                         71687021
                                   10457 *                                                                       71694021
 008412                            10458 DORSET DS    0H                                                         71701021
 008412 9101 D369      00399       10459          TM    RSETSW,XX01              RESET ALREADY SPECIFIED         71708021
1PH1A     IKFCBL10                                                                                              PAGE  212
-  LOC  OBJECT CODE    ADDR1 ADDR2  STMT   SOURCE STATEMENT                                       ASM 0201 11.03 02/14/15
0008416 4710 8BF6      077A6       10460        BC    ONES,DUPERR               YES..ERROR                       71715021
 00841A 952B C79B      0172B       10461          CLI   NXTN,XX2B                NEXT WORD ON                    71722021
 00841E 4770 FB9E      08426       10462        BC    NOTEQ,SMRST                NO                              71729021
 008422 45E0 B000      01F18       10463        BAL   JP,GETWD                   GET WD AFTER 'ON'               71736021
                                   10464 *SMRST- RESET FOUND. CHECK FOR NAME IN CTLTBL                           71743021
                                   10465 *       IF NOT-ERROR ELSE GET LEVEL AND INSERT                          71750021
 008426                            10466 SMRST  DS    0H                                                         71757021
 008426 95E7 C79B      0172B       10467          CLI   NXTN,XXE7                FINAL                           71764021
 00842A 4780 FBCA      08452       10468        BC    EQ,SMRST1                 YES..MAKE RESET LVL 0            71771021
 00842E 5810 C8B4      01844       10469        L     JA,CTLCON                 CTLTBL TIB                       71778021
 008432 45E0 BCC2      02BDA       10470        BAL   JP,TBLNIT                 GET START ETC                    71785021
 008436 4780 8C66      07816       10471        BC    ZERO,CLER3                TBL EMPTY...ERROR                71792021
 00843A 45E0 F46C      07CF4       10472        BAL   JP,TMPCTL                 GO PUT TEMP ENTRY                71799021
 00843E 45E0 BB10      02A28       10473        BAL   JP,GETCTL                 GET SAME NAME AND RESET LVL      71806021
 008442 9101 D364      00394       10474          TM    BADLNA,XX01              ERROR                           71813021
 008446 4780 FBD2      0845A       10475        BC    ZERO,SMRST3               NO...INSERT LVL                  71820021
 00844A 94FE D364      00394       10476          NI    BADLNA,XXFE              YES..EXIT                       71827021
 00844E 47F0 8C66      07816       10477        BC    UNCOND,CLER3              ISSUE DIAGNOSTIC                 71834021
                                   10478 *                                                                       71841021
 008452                            10479 SMRST1 DS    0H                                                         71848021
 008452 45E0 B000      01F18       10480        BAL   JP,GETWD                  SKIP OVER FINAL                  71855021
 008456 4110 C14C      010DC       10481        LA    JA,HWZERO                 RESET LVL 0 IN JA                71862021
                                   10482 *                                                                       71869021
                                   10483 * JA HAS ADDRESS OF CTL-LVL                                             71876021
 00845A                            10484 SMRST3 DS    0H                                                         71883021
 00845A 9601 D369      00399       10485          OI    RSETSW,XX01              TURN ON RESET SPECIFIED         71890021
 00845E D200 CCF7 1000 01C87 00000 10486          MVC   RSTLVL(LX1),DX0(JA)       SAVE RESET LVL                 71897021
 008464 47F0 F80A      08092       10487        BC    UNCOND,PERD02             CONTINUE                         71904021
                                   10488 *                                                                       71911021
                                   10489 *                                                                       71918021
 008468                            10490 END02A DS    0H                                                         71925021
 008468 45E0 FBE8      08470       10491        BAL   JP,CLOS02             CLOS02                               71932021
 00846C 47F0 9CCC      06B6C       10492        BC    UNCOND,END02          END02                                71939021
                                   10493 *                                                                       71946021
                                   10494 *CLOS02 COMPLETE 02 BEFORE EXIT                                         71953021
                             08470 10495 CLOS02 EQU   *                                                          71960021
 008470 50E0 D8D4      00904       10496        ST    JP,JPN02S                                                  71967021
                                   10497 *COLLECT LINE CLAUSE INFO                                               71974021
 008474 9108 D365      00395       10498          TM    LNSW,XX08                 LINE CLAUSE SPECIFIED          71981021
 008478 4780 FC62      084EA       10499        BC    ZERO,GNMOV                 NO-EXIT                         71988021
 00847C 9500 C9B2      01942       10500          CLI   LN01,XX00                 NEXT PAGE                      71995021
 008480 4780 FC2A      084B2       10501        BC    EQ,NP02                    YES                             72002021
 008484 9501 C9B2      01942       10502          CLI   LN01,XX01                 INTEGER                        72009021
 008488 4780 FC46      084CE       10503        BC    EQ,IN02                    YES                             72016021
                                   10504 *IS +INT                                                                72023021
 00848C 9108 D366      00396       10505          TM    LN01SW,XX08              1ST LINE PROCESSED              72030021
 008490 4770 FC1E      084A6       10506        BC    NOTZER,EN2A1              YES                              72037021
 008494 9120 D362      00392       10507          TM    PGESW,XX20               PAGE CLAUSE SPECIFIED           72044021
 008498 4780 FC1E      084A6       10508        BC    ZERO,EN2A1                NO...SKIP                        72051021
                                   10509 *      MUST MAKE N. NAME                                                72058021
 00849C 45E0 B712      0262A       10510        BAL   JP,NPTGN                   GET N.NAME                      72065021
 0084A0 D205 CC8C CCA1 01C1C 01C31 10511          MVC   PLINNM(LX6),NPTID         MOVE TO TABLE AREA             72072021
 0084A6 45E0 847C      0702C       10512 EN2A1  BAL   JP,LPLUS                   YES                             72079021
 0084AA                            10513 EN2A2  DS    0H                                                         72086021
 0084AA 9608 D366      00396       10514          OI    LN01SW,XX08              TURN ON 1ST LINE PROCESSED      72093021
1PH1A     IKFCBL10                                                                                              PAGE  213
-  LOC  OBJECT CODE    ADDR1 ADDR2  STMT   SOURCE STATEMENT                                       ASM 0201 11.03 02/14/15
00084AE                            10515 EN2A21 DS    0H                                                         72100021
 0084AE 47F0 FC62      084EA       10516        BC    UNCOND,GNMOV          GNMOV RESE SPECIFIED?                72107021
                                   10517 *NP02-NEXT PAGE 02                                                      72114021
 0084B2 9108 D366      00396       10518 NP02     TM    LN01SW,XX08               FIRST LINE                     72121021
 0084B6 4770 FC3A      084C2       10519        BC    NOTZER,EN2B                NO                              72128021
 0084BA 45E0 8448      06FF8       10520        BAL   JP,NPAGE              NPAGE                                72135021
 0084BE 47F0 FC22      084AA       10521        BC    UNCOND,EN2A2          EN2A2 FIRST LINE PROCESSED           72142021
 0084C2                            10522 EN2B   DS    0H                                                         72149021
 0084C2 45E0 DBE0      00C10       10523        BAL   JP,MSG101                  NXT PAGE NOT IN 1ST LINE CL     72156021
 0084C6 58F0 C020      00FB0       10524        L     JQ,ADPR01                 RESTORE BASE                     72163021
 0084CA 47F0 FC22      084AA       10525        BC    UNCOND,EN2A2          EN2A2 FIRST LINE PROCESSED           72170021
                                   10526 *IN02- INTEGER 02                                                       72177021
 0084CE                            10527 IN02   DS    0H                                                         72184021
 0084CE 45E0 8802      073B2       10528        BAL   JP,CHKLIN                 CHECK LIMITS FOR INTEGER         72191021
 0084D2 9101 D364      00394       10529          TM    BADLNA,XX01              SHOULD LINE BE IGNORED          72198021
 0084D6 4710 FC5A      084E2       10530        BC    ONES,IN021                YES                              72205021
 0084DA 45E0 8732      072E2       10531        BAL   JP,LNT                    NO...GO PROCESS                  72212021
 0084DE 47F0 FC22      084AA       10532        BC    UNCOND,EN2A2          EN2A2 FIRST LINE PROCESSED           72219021
 0084E2                            10533 IN021  DS    0H                                                         72226021
 0084E2 94FE D364      00394       10534          NI    BADLNA,XXFE              RESET                           72233021
 0084E6 47F0 FC26      084AE       10535        BC    UNCOND,EN2A21             IGNORE LINE AND FINISH           72240021
 0084EA                            10536 GNMOV  DS    0H                                                         72247021
 0084EA 9101 D369      00399       10537          TM    RSETSW,XX01              RESET SPECIFIED                 72254021
 0084EE 4780 FCA0      08528       10538        BC    ZERO,GNMV11               NO...CONTINUE                    72261021
 0084F2 9104 C9E4      01974       10539          TM    TYPECD,XX04              TYPE CF                         72268021
 0084F6 4710 FC86      0850E       10540        BC    ONES,GNMV10               YES..OK                          72275021
 0084FA 9140 C9E5      01975       10541          TM    TYPECD+NX1,XX40          TYPE CFF                        72282021
 0084FE 4710 FC86      0850E       10542        BC    ONES,GNMV10               YES..OK                          72289021
 008502                            10543 GNMV1  DS    0H                                                         72296021
 008502 45E0 DD14      00D44       10544        BAL   JP,MSG178                 NO...ERROR                       72303021
 008506 58F0 C020      00FB0       10545        L     JQ,ADPR01                 RESTORE BASE                     72310021
 00850A 47F0 FCA0      08528       10546        BC    UNCOND,GNMV11             CONTINUE                         72317021
                                   10547 *                                                                       72324021
 00850E                            10548 GNMV10 DS    0H                                                         72331021
 00850E 9102 D367      00397       10549          TM    SUMSW,XX02               SUM CLAUSE SPECIFIED            72338021
 008512 4780 FC7A      08502       10550        BC    ZERO,GNMV1                NO...ERROR                       72345021
 008516 5810 C8DC      0186C       10551        L     JA,SUMCON                 SUMTBL TIB                       72352021
 00851A 45E0 BCC2      02BDA       10552        BAL   JP,TBLNIT                 GET START ETC                    72359021
 00851E 4A10 CDE8      01D78       10553        AH    JA,LSTSUM                 POINT TO LAST SUM ENTRY          72366021
 008522 D200 1006 CCF7 00006 01C87 10554          MVC   DX6(LX1,JA),RSTLVL        MOVE RESET LVL TO SUM ENTRY    72373021
 008528                            10555 GNMV11 DS    0H                                                         72380021
 008528 9180 D367      00397       10556          TM    COLSW,XX80                COLUMN CLAUSE SPECIFIED        72387021
 00852C 4770 FCC4      0854C       10557        BC    NOTZER,GNMOVJ              YES-GEN MOVE AND LD TXT         72394021
 008530 9102 D367      00397       10558          TM    SUMSW,XX02                SUM SW ON-COL SW OFF           72401021
 008534 4770 FDA0      08628       10559        BC    NOTZER,GNMXIT              YES-GEN LD TXT FOR SUM PIC      72408021
 008538 9108 D369      00399       10560          TM    ELEMNN,XX08              ELEMENTARY NN ITEM              72415021
 00853C 4780 9CCC      06B6C       10561        BC    ZERO,END02                NO...GROUP ITEM...CONTINUE       72422021
 008540 94F7 D369      00399       10562          NI    ELEMNN,XXF7              YES..RESET AND DIAGNOSE         72429021
 008544 45E0 DC08      00C38       10563        BAL   JP,MSG111             ERROR MSG                            72436021
 008548 47F0 9CCC      06B6C       10564        BC    UNCOND,END02               NO COL,NO SUM--EXIT             72443021
 00854C                            10565 GNMOVJ DS    0H                                                         72450021
 00854C 9180 C9E6      01976       10566          TM    GPIND,XX80                GROUP INDICATE SPECIFIED       72457021
 008550 4780 FD08      08590       10567        BC    ZERO,GNMOV1                NO -- UNCOND MOVE               72464021
 008554 9102 C9E4      01974       10568          TM    TYPECD,XX02              TYPE DE                         72471021
 008558 4710 FCE4      0856C       10569        BC    ONES,GNMVJ1               YES..CONTINUE                    72478021
1PH1A     IKFCBL10                                                                                              PAGE  214
-  LOC  OBJECT CODE    ADDR1 ADDR2  STMT   SOURCE STATEMENT                                       ASM 0201 11.03 02/14/15
000855C 947F C9E6      01976       10570          NI    GPIND,XX7F               NO...RESET AND                  72485021
 008560 45E0 DD00      00D30       10571        BAL   JP,MSG173                 ISSUE DIAGNOSTIC                 72492021
 008564 58F0 C020      00FB0       10572        L     JQ,ADPR01                 RESTORE BASE                     72499021
 008568 47F0 FD08      08590       10573        BC    UNCOND,GNMOV1             FINISH                           72506021
 00856C                            10574 GNMVJ1 DS    0H                                                         72513021
 00856C 4130 CCB6      01C46       10575        LA    JC,GRPLD                  A(GP.NNNN)                       72520021
 008570 45E0 9A98      06938       10576        BAL   JP,GNIFRN                 GEN IF RPT-NM =                  72527021
 008574 45E0 B824      0273C       10577        BAL   JP,GNZER                  GEN ZERO                         72534021
 008578 45E0 9A46      068E6       10578        BAL   JP,GNM1T                  GEN MOVE ONE TO                  72541021
 00857C 45E0 B7BE      026D6       10579        BAL   JP,GNRPN                  GEN RPT-NM AS 22                 72548021
 008580 4160 C993      01923       10580        LA    JF,GRPNCN                 GEN                              72555021
 008584 45E0 B684      0259C       10581        BAL   JP,GENB                       GRP.IND AS 22                72562021
 008588 4160 CCB5      01C45       10582        LA    JF,GRPIC                  GEN                              72569021
 00858C 45E0 B684      0259C       10583        BAL   JP,GENB                       GP.NNNN AS 23                72576021
 008590                            10584 GNMOV1 DS    0H                                                         72583021
 008590 9102 D367      00397       10585          TM    SUMSW,XX02                S.NNNN NAME                    72590021
 008594 4780 FD2C      085B4       10586        BC    ZERO,GNMOV2           GNMOV2 -VALSW ON?                    72597021
 008598 45E0 B7DE      026F6       10587        BAL   JP,GNMOVE                 GEN MOVE                         72604021
 00859C 9110 D366      00396       10588          TM    DNSW,XX10                 DATA-NAME GIVEN                72611021
 0085A0 4780 FD24      085AC       10589        BC    ZERO,GNMV1A                NO                              72618021
 0085A4 4160 CB02      01A92       10590        LA    JF,RWDN                    GEN DATA-NAME                   72625021
 0085A8 47F0 FD8C      08614       10591        BC    UNCOND,GNMOV4         GNMOV4 -GENERATE NAME                72632021
 0085AC 4160 C9EF      0197F       10592 GNMV1A LA    JF,GNM02S                  GEN S.NNNN                      72639021
 0085B0 47F0 FD8C      08614       10593        BC    UNCOND,GNMOV4         GNMOV4 -GENERATE NAME                72646021
 0085B4 9101 D367      00397       10594 GNMOV2   TM    VALSW,XX01                VALUE                          72653021
 0085B8 4780 FD54      085DC       10595        BC    ZERO,GNMOV3           GNMOV3 -SRCSW ON?                    72660021
 0085BC 45E0 B7DE      026F6       10596        BAL   JP,GNMOVE                 GEN MOVE                         72667021
 0085C0 9104 D369      00399       10597          TM    VALALL,XX04              VALUE ALL SPECIFIED             72674021
 0085C4 4780 FD4C      085D4       10598        BC    ZERO,GNMV20               NO...CONTINUE                    72681021
 0085C8 94FB D369      00399       10599          NI    VALALL,XXFB              YES..RESET                      72688021
 0085CC 4160 A07C      02C6C       10600        LA    JF,ALLCON                 GEN                              72695021
 0085D0 45E0 B684      0259C       10601        BAL   JP,GENB                       ALL                          72702021
 0085D4                            10602 GNMV20 DS    0H                                                         72709021
 0085D4                            10603 BAD02  DS    0H                                                         72716021
 0085D4 4160 C9F7      01987       10604        LA    JF,VAL02                                                   72723021
 0085D8 47F0 FD8C      08614       10605        BC    UNCOND,GNMOV4         GNMOV4 -GENERATE NAME                72730021
 0085DC 9104 D367      00397       10606 GNMOV3   TM    SRCSW,XX04                SOURCE NAME                    72737021
 0085E0 4780 FDB6      0863E       10607        BC    ZERO,GNMOV5           GNMOV5 -INCOMPLETE 02                72744021
 0085E4                            10608 GNSRC  DS    0H                                                         72751021
 0085E4 5810 C8B4      01844       10609        L     JA,CTLCON                 CTLTBL TIB                       72758021
 0085E8 45E0 B7DE      026F6       10610        BAL   JP,GNMOVE                 GEN MOVE                         72765021
 0085EC 45E0 BCC2      02BDA       10611        BAL   JP,TBLNIT                 GET START ETC                    72772021
                                   10612 *  JA HAS START OF TBL, JB HAS DISPLACEMENT INTO TBL                    72779021
 0085F0 4780 FD4C      085D4       10613        BC    ZERO,BAD02                NO ENTRIES...ERROR               72786021
 0085F4 4A10 CDC6      01D56       10614        AH    JA,CTSDSP                 POINT TO TEMP ENTRY              72793021
 0085F8 4830 CDBC      01D4C       10615        LH    JC,CELL1                  GET SIZE OF ENTRY IN JC          72800021
 0085FC 1821                       10616        LR    JB,JA                     GET ADDRESS OF ENTRY IN JB       72807021
 0085FE 45E0 B790      026A8       10617        BAL   JP,RPTN                   GO GEN SOURCE NAME               72814021
                                   10618 *  MUST RESET DISPLACEMENT IN CTLTBL TO REMOVE TEMP ENTRY               72821021
 008602 5820 C8B4      01844       10619        L     JB,CTLCON                 CTLTBL TIB                       72828021
 008606 5822 0000      00000       10620          L     JB,DX0(JB)               TAMM                            72835021
 00860A D201 2004 CDC6 00004 01D56 10621          MVC   DX4(LX2,JB),CTSDSP        RESET TO LAST VALID DISPL      72842021
 008610 47F0 FD90      08618       10622        BC    UNCOND,GNMV4A             GO FINISH                        72849021
 008614 45E0 B684      0259C       10623 GNMOV4 BAL   JP,GENB                    GENERATE NAME                   72856021
 008618                            10624 GNMV4A DS    0H                                                         72863021
1PH1A     IKFCBL10                                                                                              PAGE  215
-  LOC  OBJECT CODE    ADDR1 ADDR2  STMT   SOURCE STATEMENT                                       ASM 0201 11.03 02/14/15
0008618 45E0 B7E6      026FE       10625        BAL   JP,GNTO                     GEN TO                         72870021
 00861C 4160 C9E7      01977       10626        LA    JF,GNM02E                  GENERATE E.NAME                 72877021
 008620 45E0 B684      0259C       10627        BAL   JP,GENB               GENB - FILE 2 GEN NME                72884021
 008624 45E0 B7EE      02706       10628        BAL   JP,GNPER                   GEN .                           72891021
 008628                            10629 GNMXIT DS    0H                                                         72898021
 008628 50F0 CE44      01DD4       10630        ST    JQ,PSA                                                     72905021
 00862C 58F0 C040      00FD0       10631         L     JQ,ADSCN                                                  72912021
                             04D60 10632          USING  DDSCN,JQ                                                72919021
                             05EA0 10633         USING  RDSCAN,JJ                                                72926021
                             06BB0 10634         USING  FLUSH,JH                                                 72933021
 008630 45E0 F9F6      05756       10635        BAL   JP,RWDUCE             RWDUCE                               72940021
                                   10636        DROP  JQ                                                         72947021
                                   10637         DROP  JJ                                                        72954021
                                   10638          DROP  JH                                                       72961021
                             07888 10639        USING  PROC01,JQ                                                 72968021
 008634 58F0 CE44      01DD4       10640        L     JQ,PSA                                                     72975021
 008638 58E0 D8D4      00904       10641        L     JP,JPN02S                                                  72982021
 00863C 07FE                       10642        BCR   UNCOND,JP             RETURN                               72989021
                                   10643 *                                                                       72996021
                                   10644 *GENERATE MOVE FOR INCOMPLETE 02                                        73003021
 00863E                            10645 GNMOV5 DS    0H                                                         73010021
 00863E 45E0 DBE4      00C14       10646        BAL   JP,MSG102                  INCOMPLETE 02                   73017021
 008642 58F0 C020      00FB0       10647        L     JQ,ADPR01                 RESTORE BASE                     73024021
 008646 45E0 B7DE      026F6       10648        BAL   JP,GNMOVE                 GEN MOVE                         73031021
 00864A 47F0 FD4C      085D4       10649        BC    UNCOND,BAD02          BAD02                                73038021
                                   10650 *                                                                       73045021
1PH1A     IKFCBL10                                                                                              PAGE  216
-  LOC  OBJECT CODE    ADDR1 ADDR2  STMT   SOURCE STATEMENT                                       ASM 0201 11.03 02/14/15
0008650                            10652 IKF112 CSECT                                                            73059021
                                   10653 *                                                                       73066021
                                   10654 *  GENERATE SPECIAL ROUTINES FOR REPORT WRITER                          73073021
                             08650 10655        USING SPCRTS,JQ                                                  73080021
                             05EA0 10656        USING RDSCAN,JJ                                                  73087021
                             06BB0 10657        USING FLUSH,JH                                                   73094021
 008650                            10658 SPCRTS DS    0D                                                         73101021
 008650 50E0 D8E4      00914       10659        ST    JP,JPSPRT                 SAVE RETURN                      73108021
                                   10660 * MUST RESET DISPLACEMENT TO LAST VALID                                 73115021
 008654 5810 C8B4      01844       10661        L     JA,CTLCON                 CTLTBL TIB                       73122021
 008658 5811 0000      00000       10662          L     JA,DX0(JA)               TAMM                            73129021
 00865C 4820 CDC0      01D50       10663        LH    JB,CTSVDP                 GET LAST VALID DISPL             73136021
 008660 4021 0004      00004       10664          STH   JB,DX4(JA)               INSERT IN CTLTBL DISPL          73143021
                                   10665 *                                                                       73150021
                                   10666 * GEN INT-ROUT                                                          73157021
                                   10667 *                                                                       73164021
 008664 4140 CB65      01AF5       10668        LA    JD,GNINT                  GN FOR INT-ROUT                  73171021
 008668 4150 CBA2      01B32       10669        LA    JE,INTCOD                 INT CODE                         73178021
 00866C 45E0 BABC      029D4       10670        BAL   JP,GNPAR                  GO GEN GN AND CODE               73185021
 008670 4160 CB27      01AB7       10671        LA    JF,RSVE1                  GEN                              73192021
 008674 45E0 B684      0259C       10672        BAL   JP,GENB                       RPT-SAVE-1                   73199021
 008678 45E0 9A30      068D0       10673        BAL   JP,GNMZT                  GEN MOVE ZERO TO                 73206021
 00867C 4130 9B5F      069FF       10674        LA    JC,CTLVL                   GEN CTL.LVL                     73213021
 008680 45E0 B7FE      02716       10675        BAL   JP,GNXPX              GNXPX                                73220021
 008684 4160 CBCD      01B5D       10676        LA    JF,PRSWCN                  GEN PRINT-SWITCH                73227021
 008688 45E0 B684      0259C       10677        BAL   JP,GENB               GENERATE NAME FILE 2                 73234021
 00868C 4130 CC33      01BC3       10678        LA    JC,GPCON                   GEN GRP.IND                     73241021
 008690 45E0 B7FE      02716       10679        BAL   JP,GNXPX              GNXPX - GEN RPT NAME                 73248021
 008694 4130 9B96      06A36       10680        LA    JC,FTCON                  GEN                              73255021
 008698 45E0 B7FE      02716       10681        BAL   JP,GNXPX                      FRS.GEN                      73262021
 00869C 4130 9B7C      06A1C       10682        LA    JC,TERCON                 GEN                              73269021
 0086A0 45E0 B7FE      02716       10683        BAL   JP,GNXPX                      TER.COD                      73276021
 0086A4 4130 9BD3      06A73       10684        LA    JC,FGPCON                 GEN                              73283021
 0086A8 45E0 B7FE      02716       10685        BAL   JP,GNXPX                      FRS.GRP                      73290021
 0086AC 4130 9C10      06AB0       10686        LA    JC,LNMCON                 GEN                              73297021
 0086B0 45E0 B7FE      02716       10687        BAL   JP,GNXPX                      LIN.NUM                      73304021
 0086B4 4130 9BED      06A8D       10688        LA    JC,ABSCON                 GEN                              73311021
 0086B8 45E0 B7FE      02716       10689        BAL   JP,GNXPX                      ABS.LIN                      73318021
 0086BC 4130 9BB0      06A50       10690        LA    JC,LSCON                  GEN                              73325021
 0086C0 45E0 B7FE      02716       10691        BAL   JP,GNXPX                      LIN.SAV                      73332021
 0086C4 9120 D362      00392       10692          TM    PGESW,XX20               PAGE CLAUSE SPECIFIED           73339021
 0086C8 4780 F090      086E0       10693        BC    ZERO,INTXIT               NO                               73346021
 0086CC 45E0 B7BE      026D6       10694        BAL   JP,GNRPN                  GEN RPT-NM                       73353021
 0086D0 45E0 B7CE      026E6       10695        BAL   JP,GNLCTR                 GEN LC                           73360021
 0086D4 45E0 9A46      068E6       10696        BAL   JP,GNM1T                  GEN MOVE ONE TO                  73367021
 0086D8 45E0 B7BE      026D6       10697        BAL   JP,GNRPN                  GEN RPT-NM                       73374021
 0086DC 45E0 B7D6      026EE       10698        BAL   JP,GNPCTR                 GEN PAGE-COUNTER                 73381021
 0086E0                            10699 INTXIT DS    0H                                                         73388021
 0086E0 5810 C8DC      0186C       10700        L     JA,SUMCON                 SUMTBL TIB                       73395021
 0086E4 45E0 BCC2      02BDA       10701        BAL   JP,TBLNIT                 GET START ETC                    73402021
 0086E8 4780 F0F8      08748       10702        BC    ZERO,INT421               TBL EMPTY.. EXIT                 73409021
 0086EC 45E0 9A30      068D0       10703        BAL   JP,GNMZT                  GEN MOVE ZERO TO                 73416021
 0086F0                            10704 INT110 DS    0H                                                         73423021
 0086F0 9500 1009      00009       10705          CLI   DX9(JA),XX00             DATA NAME                       73430021
 0086F4 4780 F0D2      08722       10706        BC    EQ,INT120                 YES..PROCESS DATA NAME           73437021
1PH1A     IKFCBL10                                                                                              PAGE  217
-  LOC  OBJECT CODE    ADDR1 ADDR2  STMT   SOURCE STATEMENT                                       ASM 0201 11.03 02/14/15
00086F8 D203 CCAE 100A 01C3E 0000A 10707          MVC   SPTID1(LX4),DX10(JA)      GET S.NAME                     73444021
 0086FE 4160 CCAA      01C3A       10708        LA    JF,SPTIC                  GEN                              73451021
 008702                            10709 INT130 DS    0H                                                         73458021
 008702 45E0 B684      0259C       10710        BAL   JP,GENB                       NAME                         73465021
 008706                            10711 INT112 DS    0H                                                         73472021
 008706 D501 1000 C14C 00000 010DC 10712          CLC   DX0(LX2,JA),HWZERO        LAST ENTRY                     73479021
 00870C 4780 F0F4      08744       10713        BC    EQ,INT420                 YES..EXIT                        73486021
 008710 D201 CD8A 1000 01D1A 00000 10714          MVC   NXTSUM(LX2),DX0(JA)       NO...GET SIZE                  73493021
 008716 4830 CD8A      01D1A       10715        LH    JC,NXTSUM                 INCREMENT                        73500021
 00871A 4113 1000      00000       10716          LA    JA,DX0(JC,JA)                TO NEXT ENTRY               73507021
 00871E 47F0 F0A0      086F0       10717        BC    UNCOND,INT110             DO NEXT SUM ENTRY                73514021
 008722                            10718 INT120 DS    0H                                                         73521021
 008722 D201 CD84 100A 01D14 0000A 10719          MVC   RNPTR(LX2),DX10(JA)       GET PTR TO DATA NAME           73528021
 008728 4840 CD84      01D14       10720        LH    JD,RNPTR                  PUT IN JD                        73535021
 00872C 5010 CD70      01D00       10721        ST    JA,SPTRB                  SAVE PTR TO CUR SUM ENTRY        73542021
 008730 5810 C8FC      0188C       10722        L     JA,SNMCON                 SNMTBL TIB                       73549021
 008734 45E0 BCC2      02BDA       10723        BAL   JP,TBLNIT                 GET START ETC                    73556021
 008738 4164 1000      00000       10724          LA    JF,DX0(JD,JA)            POINT TO ENTRY                  73563021
 00873C 5810 CD70      01D00       10725        L     JA,SPTRB                  RESTORE PTR TO CUR SUM ENTRY     73570021
 008740 47F0 F0B2      08702       10726        BC    UNCOND,INT130             GO GEN                           73577021
 008744                            10727 INT420 DS    0H                                                         73584021
 008744 45E0 B7EE      02706       10728        BAL   JP,GNPER                  GEN .                            73591021
 008748                            10729 INT421 DS    0H                                                         73598021
 008748 4160 CB33      01AC3       10730        LA    JF,RRTN1                  GEN                              73605021
 00874C 45E0 B684      0259C       10731        BAL   JP,GENB                       RPT-RETURN-1                 73612021
                                   10732 *                                                                       73619021
                                   10733 * GEN ALS-ROUT                                                          73626021
                                   10734 *                                                                       73633021
 008750 9120 D362      00392       10735          TM    PGESW,XX20               PAGE CLAUSE SPECIFIED           73640021
 008754 4780 F18C      087DC       10736        BZ    GNUSMR                    NO...DO NOT GEN ALS/RLS ROUT     73647021
 008758 4150 CBA5      01B35       10737        LA    JE,ALSCOD                 GEN ALS-ROUT                     73654021
 00875C 4140 CB67      01AF7       10738        LA    JD,GNALS                  GEN GN FOR ALS-ROUT              73661021
 008760 45E0 8354      06F04       10739        BAL   JP,LINEQZ                 GO GEN IF LC = 0 MVE 1 TO LC     73668021
 008764 45E0 9A46      068E6       10740        BAL   JP,GNM1T                  GEN MOVE ONE TO                  73675021
 008768 4130 9BD3      06A73       10741        LA    JC,FGPCON                 GEN                              73682021
 00876C 45E0 B7FE      02716       10742        BAL   JP,GNXPX                     FRS.GRP                       73689021
 008770 45E0 8ADC      0768C       10743        BAL   JP,GENSUB                 GO GEN SUB ETC                   73696021
 008774 4160 CB39      01AC9       10744        LA    JF,RRTN4                  GEN                              73703021
 008778 45E0 B684      0259C       10745        BAL   JP,GENB                       RPT-RETURN-4                 73710021
                                   10746 *                                                                       73717021
                                   10747 * GEN RLS-ROUT                                                          73724021
                                   10748 *                                                                       73731021
 00877C 4150 CBA8      01B38       10749        LA    JE,RLSCOD                 GEN RLS-ROUT                     73738021
 008780 4140 CB69      01AF9       10750        LA    JD,GNRLS                  GEN GN FOR RLS-ROUT              73745021
 008784 45E0 8354      06F04       10751        BAL   JP,LINEQZ                 GO GEN IF LC = 0 MVE 1 TO LC     73752021
 008788 45E0 B7AC      026C4       10752        BAL   JP,GNIF                   GEN IF                           73759021
 00878C 45E0 B7BE      026D6       10753        BAL   JP,GNRPN                  GEN RPT-NAME                     73766021
 008790 45E0 B7CE      026E6       10754        BAL   JP,GNLCTR                 GEN LC                           73773021
 008794 45E0 B7F6      0270E       10755        BAL   JP,GNLSTH                 GEN LESS THAN                    73780021
 008798 4160 CA99      01A29       10756        LA    JF,PRAMD                  GEN                              73787021
 00879C 45E0 B684      0259C       10757        BAL   JP,GENB                       INT3  FIRST DETAIL           73794021
 0087A0 9608 D364      00394       10758          OI    INRLSR,XX08              TURN ON IN RLS-ROUT GEN         73801021
 0087A4 45E0 8ADC      0768C       10759        BAL   JP,GENSUB                 GO GEN SUB ETC                   73808021
 0087A8 94F7 D364      00394       10760          NI    INRLSR,XXF7              RESET                           73815021
 0087AC 4130 9BD3      06A73       10761        LA    JC,FGPCON                 A(FRS.GRP)                       73822021
1PH1A     IKFCBL10                                                                                              PAGE  218
-  LOC  OBJECT CODE    ADDR1 ADDR2  STMT   SOURCE STATEMENT                                       ASM 0201 11.03 02/14/15
00087B0 45E0 9A98      06938       10762        BAL   JP,GNIFRN                 GEN IF RPT-NM FRS.GRP =          73829021
 0087B4 45E0 B824      0273C       10763        BAL   JP,GNZER                  GEN ZERO                         73836021
 0087B8 45E0 9A56      068F6       10764        BAL   JP,GNA1T                  GEN ADD ONE TO                   73843021
 0087BC 45E0 B7BE      026D6       10765        BAL   JP,GNRPN                  GEN RPT-NM                       73850021
 0087C0 45E0 B7CE      026E6       10766        BAL   JP,GNLCTR                 GEN LC                           73857021
 0087C4 45E0 9A56      068F6       10767        BAL   JP,GNA1T                  GEN ADD ONE TO                   73864021
 0087C8 4130 9C10      06AB0       10768        LA    JC,LNMCON                 GEN                              73871021
 0087CC 45E0 B7FE      02716       10769        BAL   JP,GNXPX                      LINE.NUMBER                  73878021
 0087D0 45E0 B7EE      02706       10770        BAL   JP,GNPER                  GEN .                            73885021
 0087D4 4160 CB39      01AC9       10771        LA    JF,RRTN4                  GEN                              73892021
 0087D8 45E0 B684      0259C       10772        BAL   JP,GENB                       RPT-RETURN-4                 73899021
                                   10773 *                                                                       73906021
                                   10774 * GEN USM-ROUT (ONE FOR EACH DETAIL)                                    73913021
                                   10775 *                                                                       73920021
 0087DC                            10776 GNUSMR DS    0H                                                         73927021
 0087DC 94FE D365      00395       10777          NI    USMRSW,XXFE              RESET UPON SWITCH               73934021
 0087E0 5810 C8CC      0185C       10778        L     JA,DETCON                  DETTBL TIB                      73941021
 0087E4 45E0 BCC2      02BDA       10779        BAL   JP,TBLNIT                  GET START ETC                   73948021
 0087E8 1871                       10780        LR    JG,JA                     SAVE START IN JG                 73955021
 0087EA 4122 1000      00000       10781          LA    JB,DX0(JB,JA)             END                            73962021
 0087EE 4830 CD64      01CF4       10782        LH    JC,HWPTR                                                   73969021
 0087F2 4A10 CD64      01CF4       10783        AH    JA,HWPTR                                                   73976021
 0087F6 4111 0026      00026       10784          LA    JA,DX38(JA)               STEP PTR PAST DUMMY ENTRY      73983021
 0087FA 1912                       10785        CR    JA,JB                      TABLE EMPTY                     73990021
 0087FC 47B0 F3F8      08A48       10786        BNL   GNCTBR                    YES..EXIT                        73997021
 008800                            10787 GNSM2  DS    0H                                                         74004021
 008800 91FF 1021      00021       10788          TM    DX33(JA),XXFF            DE NM ENTERED BY UPON-CLAUSE    74011021
 008804 4780 F20A      0885A       10789        BC    ZERO,GNSM20               NO...OK                          74018021
                                   10790 *  JA POINTS TO DETAIL ENTRY                                            74025021
                                   10791 *  JG POINTS TO START OF DETTBL                                         74032021
 008808 1831                       10792        LR    JC,JA                     GET ADDRESS IN JC                74039021
 00880A 1B37                       10793        SR    JC,JG                     GET DISPL FOR DETAIL             74046021
 00880C 4030 CDBE      01D4E       10794        STH   JC,CELL2                  SAVE DISPL                       74053021
                                   10795 *  MUST FIND SAME DISPL IN SUM ENTRY                                    74060021
 008810 5830 C8DC      0186C       10796        L     JC,SUMCON                 SUMTBL TIB                       74067021
 008814 5833 0000      00000       10797          L     JC,DX0(JC)               TAMM                            74074021
 008818 5833 0000      00000       10798          L     JC,DX0(JC)               TBL                             74081021
 00881C 4133 0000      00000       10799          LA    JC,DX0(JC)               CLEAR HI-ORDER BYTE             74088021
 008820                            10800 GNSMS0 DS    0H                                                         74095021
 008820 D501 CDBE 3007 01D4E 00007 10801          CLC   CELL2(LX2),DX7(JC)        SAME DISPL                     74102021
 008826 4780 F1F6      08846       10802        BC    EQ,GNSMS1                 YES                              74109021
 00882A D501 3000 C14C 00000 010DC 10803          CLC   DX0(LX2,JC),HWZERO        NO...IS IT LAST ENTRY          74116021
 008830 4780 F20A      0885A       10804        BC    EQ,GNSM20                 YES..EXIT                        74123021
 008834 D201 CDC2 3000 01D52 00000 10805          MVC   CELL3(LX2),DX0(JC)        NO...GET NEXT ENTRY            74130021
 00883A 4840 CDC2      01D52       10806        LH    JD,CELL3                  GET NEXT ENTRY                   74137021
 00883E 4134 3000      00000       10807          LA    JC,DX0(JD,JC)            POINT TO NEXT ENTRY             74144021
 008842 47F0 F1D0      08820       10808        BC    UNCOND,GNSMS0             GO CHECK                         74151021
 008846                            10809 GNSMS1 DS    0H                                                         74158021
 008846 D201 3007 C14C 00007 010DC 10810          MVC   DX7(LX2,JC),HWZERO        ZERO OUT DISPL                 74165021
 00884C D201 D50F 3004 0053F 00004 10811          MVC   MSGGCN(LX2),DX4(JC)       GET CARD NUMBER                74172021
 008852 45E0 DBCC      00BFC       10812        BAL   JP,MSG96                  YES..ERROR                       74179021
 008856 58F0 C018      00FA8       10813        L     JQ,ADSPRT                 RESTORE BASE                     74186021
 00885A                            10814 GNSM20 DS    0H                                                         74193021
 00885A 4111 0026      00026       10815          LA    JA,DX38(JA)              GET NEXT ENTRY                  74200021
 00885E 1912                       10816        CR    JA,JB                     END OF TBL                       74207021
1PH1A     IKFCBL10                                                                                              PAGE  219
-  LOC  OBJECT CODE    ADDR1 ADDR2  STMT   SOURCE STATEMENT                                       ASM 0201 11.03 02/14/15
0008860 4740 F1B0      08800       10817        BC    LO,GNSM2                  NO...CHECK NEXT ENTRY            74214021
 008864 5810 C8CC      0185C       10818        L     JA,DETCON                 DETTBL TIB                       74221021
 008868 45E0 BCC2      02BDA       10819        BAL   JP,TBLNIT                 GET START ETC                    74228021
 00886C 4122 1000      00000       10820          LA    JB,DX0(JB,JA)            END IN JB                       74235021
 008870 5010 CD48      01CD8       10821        ST    JA,JAGRSV                 SAVE START OF DETTBL             74242021
 008874 4830 CD64      01CF4       10822        LH    JC,HWPTR                  START OF DE FOR THIS RD          74249021
 008878 1A13                       10823        AR    JA,JC                     POINT TO START                   74256021
 00887A 4111 0026      00026       10824          LA    JA,DX38(JA)              SKIP DUMMY ENTRY                74263021
 00887E 47F0 F244      08894       10825        BC    UNCOND,GNUSMC               -GNUSMC                        74270021
                                   10826 *                                                                       74277021
 008882                            10827 GNSM21 DS    0H                                                         74284021
 008882 9200 1000      00000       10828          MVI   DX0(JA),XX00             REMOVE BAD ENTRY FROM DETTBL    74291021
 008886 9813 CDD8      01D68       10829 GNUSMA LM    JA,JC,UPNSAV               RESTORE REGS                    74298021
 00888A 4111 0026      00026       10830          LA    JA,DX38(JA)               STEP PTR TO NEXT ENTRY         74305021
 00888E 1912                       10831        CR    JA,JB                      END OF TBL                      74312021
 008890 47B0 F3EA      08A3A       10832        BC    NOTLO,GNUSMD                YES-GNUSMD                     74319021
                                   10833 *                                                                       74326021
 008894 4133 0026      00026       10834 GNUSMC   LA    JC,DX38(JC)               GET PTR TO ENTRY               74333021
 008898 9013 CDD8      01D68       10835        STM   JA,JC,UPNSAV               SAVE REGS                       74340021
 00889C 91FF 1021      00021       10836          TM    DX33(JA),XXFF            DE NM ENTERED BY UPON CLAUSE    74347021
 0088A0 4710 F232      08882       10837        BC    ONES,GNSM21               YES..SKIP GEN OF USM-ROUT        74354021
 0088A4 1871                       10838        LR    JG,JA                     GET START OF THIS DE IN JG       74361021
 0088A6 5B70 CD48      01CD8       10839        S     JG,JAGRSV                 GET DISPL  FOR THIS DE           74368021
 0088AA 4070 C9AC      0193C       10840        STH   JG,DETSAV                 SAVE DISPL FOR THIS DE           74375021
 0088AE 4141 0024      00024       10841          LA    JD,DX36(JA)               GEN PAR NAME                   74382021
 0088B2 4150 CB87      01B17       10842        LA    JE,USMCOD                                                  74389021
 0088B6 45E0 BABC      029D4       10843        BAL   JP,GNPAR              GNPAR                                74396021
 0088BA 4160 CB27      01AB7       10844        LA    JF,RSVE1                   GEN RPT-SAVE-1                  74403021
 0088BE 45E0 B684      0259C       10845        BAL   JP,GENB               GENERATE NAME FILE 2                 74410021
 0088C2 5810 C8DC      0186C       10846        L     JA,SUMCON                  SUMTBL TIB                      74417021
 0088C6 45E0 BCC2      02BDA       10847        BAL   JP,TBLNIT                  GET START ETC                   74424021
 0088CA 4780 F3DE      08A2E       10848        BC    ZERO,GNCS7                 OUT OF TABLE                    74431021
 0088CE 4122 1000      00000       10849          LA    JB,DX0(JB,JA)             LAST ADR OF TABLE              74438021
 0088D2 5020 CD44      01CD4       10850        ST    JB,JBSCSS                   SAVE SUM TBL END               74445021
 0088D6 5010 CD40      01CD0       10851 GNCS1A ST    JA,JASCSS                                                  74452021
 0088DA                            10852 GNCS2  DS    0H                                                         74459021
 0088DA D501 1007 CDE2 00007 01D72 10853          CLC   DX7(LX2,JA),UPNCLL SUM ENTRY CONTAIN AN UPON FOR THIS DE 74466021
 0088E0 4770 F29C      088EC       10854        BC    NOTEQ,GNCS21              NO...CHECK SOURCE-SUM            74473021
 0088E4 9601 D365      00395       10855          OI    USMRSW,XX01              YES..TURN ON UPON SWITCH        74480021
 0088E8 47F0 F2A6      088F6       10856        BC    UNCOND,GNCS2D             SKIP UPON CHECK                  74487021
 0088EC                            10857 GNCS21 DS    0H                                                         74494021
 0088EC D501 1007 C14C 00007 010DC 10858          CLC   DX7(LX2,JA),HWZERO        DOES ENTRY CONTAIN AN UPON     74501021
 0088F2 4770 F3B0      08A00       10859        BC    NOTEQ,GNCS5A              YES..DO NOT CHECK SOURCE-SUM     74508021
 0088F6                            10860 GNCS2D DS    0H                                                         74515021
 0088F6 5010 CD6C      01CFC       10861        ST    JA,SPTRA                  SAVE START OF THIS SUM ENTRY     74522021
 0088FA D204 CD4C 1009 01CDC 00009 10862          MVC   SMCSSV(LX5),DX9(JA)        SAVE SM NM PTR FOR ADD TO     74529021
 008900 4111 002B      0002B       10863          LA    JA,DX43(JA)                                              74536021
 008904 4111 0002      00002       10864 GNCS2A   LA    JA,DX2(JA)                                               74543021
 008908 5010 CD40      01CD0       10865        ST    JA,JASCSS                                                  74550021
 00890C D501 1000 C14C 00000 010DC 10866          CLC   DX0(LX2,JA),HWZERO         LAST OPRAND                   74557021
 008912 4780 F3C8      08A18       10867        BC    EQ,GNCS5B                   YES-GNCS5B                     74564021
 008916 D501 1000 CD60 00000 01CF0 10868          CLC   DX0(LX2,JA),FFFF           OPRAND = FF                   74571021
 00891C 4780 F2B4      08904       10869        BC    EQ,GNCS2A                   YES-GNCS2A                     74578021
 008920 9101 D365      00395       10870          TM    USMRSW,XX01              UPON ENTRY                      74585021
 008924 4710 F350      089A0       10871        BC    ONES,GNCS22               YES..DO NOT CHECK SOURCE-SUM     74592021
1PH1A     IKFCBL10                                                                                              PAGE  220
-  LOC  OBJECT CODE    ADDR1 ADDR2  STMT   SOURCE STATEMENT                                       ASM 0201 11.03 02/14/15
0008928 9017 9CB0      06B50       10872        STM   JA,JG,RWSVRG              SAVE REGS                        74599021
 00892C 5870 CDD8      01D68       10873        L     JG,UPNSAV                 GET DE TBL ENTRY IN JG           74606021
                                   10874 *  JA POINTS TO SUM OPERAND PTR                                         74613021
                                   10875 *  JG HAS START OF THIS DE TBL ENTRY                                    74620021
 008930 D201 CDBC 1000 01D4C 00000 10876          MVC   CELL1(LX2),DX0(JA)        GET PTR ON HALF-WORD           74627021
 008936 4830 CDBC      01D4C       10877        LH    JC,CELL1                  PUT IN JC                        74634021
 00893A 5810 C8F4      01884       10878        L     JA,SMSCON                 SMSTBL TIB                       74641021
 00893E 45E0 BCC2      02BDA       10879        BAL   JP,TBLNIT                 GET START ETC                    74648021
 008942 4143 1000      00000       10880          LA    JD,DX0(JC,JA)            POINT TO THIS SUM OPERAND       74655021
 008946 5810 C8EC      0187C       10881        L     JA,SRCCON                 SRCTBL TIB                       74662021
 00894A 45E0 BCC2      02BDA       10882        BAL   JP,TBLNIT                 GET START ETC                    74669021
 00894E 4162 1000      00000       10883          LA    JF,DX0(JB,JA)            GET END                         74676021
 008952                            10884 GNCS30 DS    0H                                                         74683021
 008952 D501 1000 4000 00000 00000 10885          CLC   DX0(LX2,JA),DX0(JD)       COMPARE ENTRY SIZES            74690021
 008958 4780 F32E      0897E       10886        BC    EQ,GNCS32                 YES..CHECK SOURCE-SUM            74697021
 00895C                            10887 GNCS31 DS    0H                                                         74704021
 00895C D201 CDBC 1000 01D4C 00000 10888          MVC   CELL1(LX2),DX0(JA)        GET SIZE OF SOURCE ENTRY       74711021
 008962 4830 CDBC      01D4C       10889        LH    JC,CELL1                  PUT IN JC                        74718021
 008966 4113 1004      00004       10890          LA    JA,DX4(JC,JA)            POINT TO NEXT ENTRY             74725021
 00896A 1916                       10891        CR    JA,JF                     END OF TBL                       74732021
 00896C 4740 F302      08952       10892        BC    LO,GNCS30                 NO...CHECK NEXT                  74739021
 008970 9817 9CB0      06B50       10893        LM    JA,JG,RWSVRG              RESTORE REGS                     74746021
 008974 47F0 F2B4      08904       10894        BC    UNCOND,GNCS2A             GET NEXT OPERAND                 74753021
                                   10895 * INSTRUCTION IS EXECUTED                                               74760021
                                   10896 *  COMPARES SRCTBL ENTRY (4(0,JA)) TO SMSTBL ENTRY (2(JD))              74767021
 008978 D500 1004 4002 00004 00002 10897 SUMCMP   CLC   DX4(LX0,JA),DX2(JD)       COMPARE ENTRIES                74774021
 00897E                            10898 GNCS32 DS    0H                                                         74781021
                                   10899 *  COMPARE DISPLACEMENTS INTO DETTBL                                    74788021
 00897E D501 1002 C9AC 00002 0193C 10900          CLC   DX2(LX2,JA),DETSAV        SRCTBL DISPL TO DETTBL DISPL   74795021
 008984 4770 F30C      0895C       10901        BNE   GNCS31                    NO...CHECK NEXT SRCTBL ENTRY     74802021
 008988                            10902 GNCS33 DS    0H                                                         74809021
                                   10903 *  COMPARE SUM OPERAND TO DETAIL SOURCE OPERAND NAME                    74816021
 008988 D201 CDBC 1000 01D4C 00000 10904          MVC   CELL1(LX2),DX0(JA)        GET SIZE OF SOURCE             74823021
 00898E 4850 CDBC      01D4C       10905        LH    JE,CELL1                  PUT IN JE                        74830021
 008992 0650                       10906        BCTR  JE,JR                     SUBTRACT 1 FOR COMPARE           74837021
 008994 4450 F328      08978       10907        EX    JE,SUMCMP                 COMPARE ENTRIES                  74844021
 008998 4770 F30C      0895C       10908        BC    NOTEQ,GNCS31              NO...CHECK NEXT SRCTBL ENTRY     74851021
                                   10909 * SUM OPERAND IS A SOURCE ITEM IN A DETAIL                              74858021
 00899C 9817 9CB0      06B50       10910        LM    JA,JG,RWSVRG              RESTORE REGS                     74865021
 0089A0                            10911 GNCS22 DS    0H                                                         74872021
 0089A0 45E0 B814      0272C       10912        BAL   JP,GNADD                   GEN ADD                         74879021
 0089A4 D201 CD14 1000 01CA4 00000 10913 GNCS2B   MVC   SMOPSV(LX2),DX0(JA)        GET PTR                       74886021
 0089AA 4840 CD14      01CA4       10914        LH    JD,SMOPSV                  GEN OPRAND                      74893021
 0089AE 45E0 FB22      09172       10915        BAL   JP,GTOPD              GTOPD                                74900021
 0089B2 5810 CD40      01CD0       10916        L     JA,JASCSS                                                  74907021
 0089B6 45E0 B7E6      026FE       10917        BAL   JP,GNTO                    GEN TO                          74914021
 0089BA 9500 CD4C      01CDC       10918          CLI   SMCSSV,XX00                                              74921021
 0089BE 4780 F380      089D0       10919        BC    EQ,GNCS3                   WAS DATA-NM                     74928021
 0089C2 D203 CCAE CD4D 01C3E 01CDD 10920          MVC   SPTID1(LX4),SMCSSV+NX1     WAS S.NAME                    74935021
 0089C8 4160 CCAA      01C3A       10921        LA    JF,SPTIC                   GEN S.NAME                      74942021
 0089CC 47F0 F39C      089EC       10922        BC    UNCOND,GNCS4          GNCS4                                74949021
 0089D0                            10923 GNCS3  DS    0H                                                         74956021
 0089D0 5810 C8FC      0188C       10924        L     JA,SNMCON                 SNMTBL TIB                       74963021
 0089D4 45E0 BCC2      02BDA       10925        BAL   JP,TBLNIT                  GET START ETC                   74970021
 0089D8 4122 1000      00000       10926          LA    JB,DX0(JB,JA)             LAST ADR OF TBL                74977021
1PH1A     IKFCBL10                                                                                              PAGE  221
-  LOC  OBJECT CODE    ADDR1 ADDR2  STMT   SOURCE STATEMENT                                       ASM 0201 11.03 02/14/15
00089DC D201 CD62 CD4D 01CF2 01CDD 10927          MVC   JDHW(LX2),SMCSSV+NX1       MOVE SUM NM PTR TO HW         74984021
 0089E2 4840 CD62      01CF2       10928        LH    JD,JDHW                    PUT PTR IN XR4                  74991021
 0089E6 4144 1000      00000       10929          LA    JD,DX0(JD,JA)             ASSUMED NAME ADR               74998021
 0089EA 1864                       10930        LR    JF,JD                       GEN SUM NM                     75005021
 0089EC 45E0 B684      0259C       10931 GNCS4  BAL   JP,GENB               GENERATE NAME                        75012021
 0089F0 45E0 B7EE      02706       10932        BAL   JP,GNPER                   GEN .                           75019021
 0089F4 5810 CD40      01CD0       10933 GNCS5  L     JA,JASCSS                  GET NXT SUM TBL ENT             75026021
 0089F8 5820 CD44      01CD4       10934        L     JB,JBSCSS                 RESET JB                         75033021
 0089FC 47F0 F2B4      08904       10935        B     GNCS2A                    GO CHECK NEXT OPERAND            75040021
 008A00 D501 1000 C14C 00000 010DC 10936 GNCS5A   CLC   DX0(LX2,JA),HWZERO         NEXT PTR IS ZERO              75047021
 008A06 4780 F3DE      08A2E       10937        BC    EQ,GNCS7                    YES-GNCS7                      75054021
 008A0A D201 CD14 1000 01CA4 00000 10938          MVC   SMOPSV(LX2),DX0(JA)        GET NEXT PTR                  75061021
 008A10 4A10 CD14      01CA4       10939        AH    JA,SMOPSV                  STEP TO NEXT ENTRY              75068021
 008A14 47F0 F286      088D6       10940        BC    UNCOND,GNCS1A               -GNCS1A                        75075021
 008A18 5820 CD44      01CD4       10941 GNCS5B L     JB,JBSCSS                                                  75082021
 008A1C 5810 CD40      01CD0       10942        L     JA,JASCSS                                                  75089021
 008A20 4111 0002      00002       10943          LA    JA,DX2(JA)                                               75096021
 008A24 94FE D365      00395       10944          NI    USMRSW,XXFE              RESET UPON SWITCH               75103021
 008A28 1912                       10945        CR    JA,JB                      END OF TABLE                    75110021
 008A2A 4740 F28A      088DA       10946        BC    LO,GNCS2                   NO                              75117021
 008A2E                            10947 GNCS7  DS    0H                                                         75124021
 008A2E 4160 CB33      01AC3       10948        LA    JF,RRTN1                   GEN RPT-RETURN-1                75131021
 008A32 45E0 B684      0259C       10949        BAL   JP,GENB               GENERATE NAME                        75138021
 008A36 47F0 F236      08886       10950        BC    UNCOND,GNUSMA               -GNUSMA  IN UPN SUM RTN        75145021
                                   10951 *                                                                       75152021
 008A3A                            10952 GNUSMD DS    0H                                                         75159021
 008A3A 94FE D365      00395       10953          NI    USMRSW,XXFE              RESET                           75166021
 008A3E D201 CDE2 C14C 01D72 010DC 10954          MVC   UPNCLL(LX2),HWZERO       RESET                           75173021
 008A44 4030 CD64      01CF4       10955        STH   JC,HWPTR                  SAVE DISPL FOR THIS RD           75180021
                                   10956 **GNCTBR -GENERATE CONTROL BREAK ROUTINE                                75187021
 008A48                            10957 GNCTBR DS    0H                                                         75194021
 008A48 4140 CB51      01AE1       10958        LA    JD,GNCTLB                  GEN PAR NAME                    75201021
 008A4C 4150 CB81      01B11       10959        LA    JE,CTBCOD                                                  75208021
 008A50 45E0 BABC      029D4       10960        BAL   JP,GNPAR              GNPAR                                75215021
 008A54 4160 CB27      01AB7       10961        LA    JF,RSVE1                   GEN RPT-SAVE-1                  75222021
 008A58 45E0 B684      0259C       10962        BAL   JP,GENB               GENERATE NAME                        75229021
                                   10963 ****                                                                    75236021
 008A5C 45E0 9A30      068D0       10964        BAL   JP,GNMZT                  GEN MOVE ZERO TO                 75243021
 008A60 4130 9B5F      069FF       10965        LA    JC,CTLVL                   GEN CTL-LVL                     75250021
 008A64 45E0 B7FE      02716       10966        BAL   JP,GNXPX              GNXPX - GEN RPT NAME                 75257021
 008A68 45E0 B7EE      02706       10967        BAL   JP,GNPER                   GEN .                           75264021
 008A6C 5810 C8B4      01844       10968        L     JA,CTLCON                  CTLTBL TIB                      75271021
 008A70 45E0 BCC2      02BDA       10969        BAL   JP,TBLNIT                  GET START ETC                   75278021
 008A74 5010 CD40      01CD0       10970        ST    JA,JASCSS                    SAVE JA                       75285021
 008A78 4780 F4EA      08B3A       10971        BC    ZERO,GNCTB1                YES EXIT                        75292021
 008A7C 4121 2000      00000       10972          LA    JB,DX0(JA,JB)             END OF TBL                     75299021
 008A80 5020 CD44      01CD4       10973        ST    JB,JBSCSS                  SAVE JB                         75306021
 008A84 45E0 B7AC      026C4       10974        BAL   JP,GNIF                    GEN IF                          75313021
 008A88 4130 9B96      06A36       10975        LA    JC,FTCON                   GEN FRS.GEN                     75320021
 008A8C 45E0 B7FE      02716       10976        BAL   JP,GNXPX              GNXPX - GEN RPT NAME                 75327021
 008A90 4160 A106      02CF6       10977        LA    JF,NOTCON                   GEN NOT                        75334021
 008A94 45E0 B684      0259C       10978        BAL   JP,GENB               GENERATE NAME                        75341021
 008A98 45E0 B82C      02744       10979        BAL   JP,GNEQ                    GEN EQUAL                       75348021
 008A9C 4160 CBE0      01B70       10980        LA    JF,ICTWO                   GEN TWO                         75355021
 008AA0 45E0 B684      0259C       10981        BAL   JP,GENB               GENERATE NAME                        75362021
1PH1A     IKFCBL10                                                                                              PAGE  222
-  LOC  OBJECT CODE    ADDR1 ADDR2  STMT   SOURCE STATEMENT                                       ASM 0201 11.03 02/14/15
0008AA4 4130 CBE0      01B70       10982        LA    JC,ICTWO                  GEN MOVE                         75369021
 008AA8 45E0 9A62      06902       10983        BAL   JP,GNMNT                      TWO TO                       75376021
 008AAC 4130 9B96      06A36       10984        LA    JC,FTCON                   GEN FRS.GEN                     75383021
 008AB0 45E0 B7FE      02716       10985        BAL   JP,GNXPX              GNXPX - GEN RPT NAME                 75390021
 008AB4 D201 CCD2 CB55 01C62 01AE5 10986          MVC   GOGN(LX2),GNRST           GEN GO TO GNRST                75397021
 008ABA 45E0 B782      0269A       10987        BAL   JP,GNGO               GNGO                                 75404021
 008ABE 45E0 B7EE      02706       10988        BAL   JP,GNPER                   GEN .                           75411021
 008AC2                            10989 GNCTB2 DS    0H                         ENTERED FOR EACH CTL ENT        75418021
 008AC2 45E0 9A56      068F6       10990        BAL   JP,GNA1T                  GEN ADD ONE TO                   75425021
 008AC6 4130 9B5F      069FF       10991        LA   JC,CTLVL                    GEN CTL.LVL                     75432021
 008ACA 45E0 B7FE      02716       10992        BAL   JP,GNXPX              GNXPX - GEN RPT NAME                 75439021
 008ACE 45E0 B7EE      02706       10993        BAL   JP,GNPER                   GEN .                           75446021
 008AD2 5810 CD40      01CD0       10994        L     JA,JASCSS                   RESET JA                       75453021
 008AD6 45E0 B7AC      026C4       10995        BAL   JP,GNIF                    GEN IF                          75460021
 008ADA D201 CDC2 1000 01D52 00000 10996          MVC   CELL3(LX2),DX0(JA)        GET SIZE OF TOTAL ENTRY        75467021
 008AE0 4140 001A      0001A       10997          LA    JD,DX26(JR)              SKIP COMMON PART OF ENTRY       75474021
 008AE4 4830 CDC2      01D52       10998        LH    JC,CELL3                  SIZE IN JC                       75481021
 008AE8 1B34                       10999        SR    JC,JD                     GET ACTUAL CTL-NM SIZE IN JC     75488021
 008AEA 4161 001A      0001A       11000          LA    JF,DX26(JA)              ADDRESS OF ACTUAL ENTRY         75495021
 008AEE 45E0 FB0E      0915E       11001        BAL   JP,GENF2                  GO GEN CTL-NM                    75502021
 008AF2                            11002 GNCTBB DS    0H                                                         75509021
 008AF2 4160 A106      02CF6       11003        LA    JF,NOTCON                  GEN NOT                         75516021
 008AF6 45E0 B684      0259C       11004        BAL   JP,GENB               GENERATE NAME                        75523021
 008AFA 45E0 B82C      02744       11005        BAL   JP,GNEQ                    GEN EQUAL                       75530021
 008AFE 4161 0002      00002       11006          LA    JF,DX2(JA)               GEN DUP NAME                    75537021
 008B02 45E0 B684      0259C       11007        BAL   JP,GENB               GENERATE NAME                        75544021
 008B06 45E0 9A30      068D0       11008        BAL   JP,GNMZT                  GEN MOVE ZERO TO                 75551021
 008B0A 4130 CC33      01BC3       11009        LA    JC,GPCON                  GEN                              75558021
 008B0E 45E0 B7FE      02716       11010        BAL   JP,GNXPX                      GRP.IND                      75565021
 008B12 D201 CCD2 CB53 01C62 01AE3 11011          MVC   GOGN(LX2),GNROL           GEN GO TO GNROL                75572021
 008B18 45E0 B782      0269A       11012        BAL   JP,GNGO               GNGO                                 75579021
 008B1C 45E0 B7EE      02706       11013        BAL   JP,GNPER                   GEN .                           75586021
 008B20 5810 CD40      01CD0       11014        L     JA,JASCSS                                                  75593021
 008B24 4830 CDC2      01D52       11015        LH    JC,CELL3                  GET SIZE OF THIS ENTRY           75600021
 008B28 4113 1000      00000       11016          LA    JA,DX0(JC,JA)            POINT TO NEXT ENTRY             75607021
 008B2C 5010 CD40      01CD0       11017        ST    JA,JASCSS                  SAVE JA                         75614021
 008B30 5820 CD44      01CD4       11018        L     JB,JBSCSS                   RESET JB                       75621021
 008B34 1912                       11019        CR    JA,JB                                                      75628021
 008B36 4740 F472      08AC2       11020        BC    LO,GNCTB2             GNCTB2                               75635021
 008B3A                            11021 GNCTB1 DS    0H                                                         75642021
 008B3A 4160 CB33      01AC3       11022        LA    JF,RRTN1                   GEN RPT-RETURN-1                75649021
 008B3E 45E0 B684      0259C       11023        BAL   JP,GENB               GENERATE NAME                        75656021
                                   11024 *                                                                       75663021
                                   11025 * GEN RST-ROUT                                                          75670021
                                   11026 *                                                                       75677021
 008B42                            11027 GNRSTR DS    0H                                                         75684021
 008B42 4140 CB55      01AE5       11028        LA    JD,GNRST                   GEN PAR NAME                    75691021
 008B46 4150 CB8A      01B1A       11029        LA    JE,RSTCOD                                                  75698021
 008B4A 45E0 BABC      029D4       11030        BAL   JP,GNPAR              GNPAR - TYPE CODE                    75705021
 008B4E 4130 9B96      06A36       11031        LA    JC,FTCON                  A(FRS.GEN)                       75712021
 008B52 45E0 9A98      06938       11032        BAL   JP,GNIFRN                 GEN IF RPT-NM FRS.GEN =          75719021
 008B56 45E0 B81C      02734       11033        BAL   JP,GNONE                   GEN ONE                         75726021
 008B5A 4160 CB35      01AC5       11034        LA    JF,RRTN2                   GEN RPT-RETURN-2                75733021
 008B5E 45E0 B684      0259C       11035        BAL   JP,GENB               GENERATE NAME                        75740021
 008B62 45E0 B7EE      02706       11036        BAL   JP,GNPER                   GEN .                           75747021
1PH1A     IKFCBL10                                                                                              PAGE  223
-  LOC  OBJECT CODE    ADDR1 ADDR2  STMT   SOURCE STATEMENT                                       ASM 0201 11.03 02/14/15
0                                  11037 *GET CTL TABLE ENTRY                                                    75754021
 008B66                            11038 GNRSTA DS    0H                                                         75761021
 008B66 5810 C8B4      01844       11039        L     JA,CTLCON                  CTL TBL TIB                     75768021
 008B6A 45E0 BCC2      02BDA       11040        BAL   JP,TBLNIT                  GET START ETC                   75775021
                                   11041 * CELL3 STILL HAS SIZE OF LAST ENTRY IN CTLTBL                          75782021
 008B6E D201 CDBE CDC2 01D4E 01D52 11042          MVC   CELL2(LX2),CELL3         SAVE SIZE OF LAST ENTRY         75789021
 008B74 4780 F62E      08C7E       11043        BC    ZERO,GNRSTX                NO CTL TBL EXIT                 75796021
 008B78 4122 1000      00000       11044          LA    JB,DX0(JB,JA)             LAST ADR OF TBL                75803021
 008B7C 4B20 CDC2      01D52       11045        SH    JB,CELL3                  JB POINTS TO LAST ENTRY          75810021
 008B80 1831                       11046        LR    JC,JA                     START OF FIRST IN JC             75817021
 008B82 1812                       11047        LR    JA,JB                     JA HAS START OF LAST             75824021
 008B84 1823                       11048        LR    JB,JC                     JB HAS START OF FIRST            75831021
 008B86 5010 CD7C      01D0C       11049        ST    JA,JARST                   SAVE CTLTBL PTRS                75838021
 008B8A 5020 CD80      01D10       11050        ST    JB,JBRST                                                   75845021
 008B8E                            11051 GNRST2 DS    0H                                                         75852021
 008B8E 5010 CD7C      01D0C       11052        ST    JA,JARST                                                   75859021
 008B92 45E0 B7DE      026F6       11053        BAL   JP,GNMOVE                  GEN MOVE                        75866021
 008B96 D201 CDC2 1000 01D52 00000 11054          MVC   CELL3(LX2),DX0(JA)        TOTAL ENTRY SIZE               75873021
 008B9C 4140 001A      0001A       11055          LA    JD,DX26(JR)              SKIP COMMON PART OF ENTRY       75880021
 008BA0 4830 CDC2      01D52       11056        LH    JC,CELL3                  SIZE IN JC                       75887021
 008BA4 1B34                       11057        SR    JC,JD                     GET ACTUAL CTL-NM SIZE IN JC     75894021
 008BA6 4161 001A      0001A       11058          LA    JF,DX26(JA)              ADDRESS OF ACTUAL CTL-NM        75901021
 008BAA 45E0 FB0E      0915E       11059        BAL   JP,GENF2                  GO GEN CTL-NM                    75908021
 008BAE 45E0 B7E6      026FE       11060        BAL   JP,GNTO                    GEN TO                          75915021
 008BB2 4161 0002      00002       11061          LA    JF,DX2(JA)               GEN DUP NAME                    75922021
 008BB6 45E0 B684      0259C       11062        BAL   JP,GENB               GENERATE NAME                        75929021
 008BBA 45E0 B7EE      02706       11063        BAL   JP,GNPER                   GEN .                           75936021
 008BBE D200 CD68 1011 01CF8 00011 11064          MVC   SVCTLV,DX17(JA)          SAVE LVL                        75943021
 008BC4                            11065 GNRST3 DS    0H                         GET START OF SUM TBL            75950021
 008BC4 5810 C8DC      0186C       11066        L     JA,SUMCON                  SUMTBL TIB                      75957021
 008BC8 45E0 BCC2      02BDA       11067        BAL   JP,TBLNIT                  GET START ETC                   75964021
 008BCC 5010 CD6C      01CFC       11068        ST    JA,SPTRA                   SAVE SUMTBL PTRS                75971021
 008BD0 5020 CD70      01D00       11069        ST    JB,SPTRB                                                   75978021
 008BD4 4780 F5F6      08C46       11070        BC    ZERO,GNRST8                NO                              75985021
 008BD8 D201 CD8A 1000 01D1A 00000 11071 GNRST4   MVC   NXTSUM(LX2),DX0(JA)                                      75992021
 008BDE 5010 CD6C      01CFC       11072        ST    JA,SPTRA                                                   75999021
 008BE2 D500 CD68 1006 01CF8 00006 11073          CLC   SVCTLV,DX6(JA)            RESET LV = CTL LV              76006021
 008BE8 4770 F5DC      08C2C       11074        BC    NOTEQ,GNRST9               NO GET NXT SUM                  76013021
 008BEC 45E0 9A30      068D0       11075        BAL   JP,GNMZT                  GEN MOVE ZERO TO                 76020021
 008BF0 9500 1009      00009       11076          CLI   DX9(JA),XX00                                             76027021
 008BF4 4780 F5BE      08C0E       11077        BC    EQ,GNRST7                  DATA NAME GIVEN                 76034021
 008BF8 D203 CCAE 100A 01C3E 0000A 11078          MVC   SPTID1(LX4),DX10(JA)       GEN S.NM                      76041021
 008BFE 4160 CCAA      01C3A       11079        LA    JF,SPTIC                                                   76048021
 008C02 45E0 B684      0259C       11080        BAL   JP,GENB               GENERATE NAME                        76055021
 008C06 45E0 B7EE      02706       11081 GNRST6 BAL   JP,GNPER                   GEN.                            76062021
 008C0A 47F0 F5DC      08C2C       11082        BC    UNCOND,GNRST9              GET NXT CTL                     76069021
 008C0E                            11083 GNRST7 DS    0H                                                         76076021
 008C0E D201 CD84 100A 01D14 0000A 11084          MVC   RNPTR(LX2),DX10(JA)        SAVE ON PTR                   76083021
 008C14 4840 CD84      01D14       11085        LH    JD,RNPTR                   PUT IN JD                       76090021
 008C18 5810 C8FC      0188C       11086        L     JA,SNMCON                 SNMTBL TIB                       76097021
 008C1C 45E0 BCC2      02BDA       11087        BAL   JP,TBLNIT                  GET START ETC                   76104021
 008C20 4164 1000      00000       11088          LA    JF,DX0(JD,JA)             GET DN                         76111021
 008C24 45E0 B684      0259C       11089        BAL   JP,GENB                    GEN DATANAME                    76118021
 008C28 47F0 F5B6      08C06       11090        BC    UNCOND,GNRST6         GNRST6                               76125021
 008C2C                            11091 GNRST9 DS    0H                         GET NEXT SUM ENT                76132021
1PH1A     IKFCBL10                                                                                              PAGE  224
-  LOC  OBJECT CODE    ADDR1 ADDR2  STMT   SOURCE STATEMENT                                       ASM 0201 11.03 02/14/15
0008C2C D501 CD8A C14C 01D1A 010DC 11092          CLC   NXTSUM(LX2),HWZERO        LAST SUM ENT                   76139021
 008C32 4780 F5F6      08C46       11093        BC    EQ,GNRST8                  GET NXT CTL                     76146021
 008C36 4810 CD8A      01D1A       11094        LH    JA,NXTSUM                                                  76153021
 008C3A 5830 CD6C      01CFC       11095        L     JC,SPTRA                                                   76160021
 008C3E 4113 1000      00000       11096          LA    JA,DX0(JC,JA)                                            76167021
 008C42 47F0 F588      08BD8       11097        BC    UNCOND,GNRST4         GNRST4                               76174021
 008C46                            11098 GNRST8 DS    0H                                                         76181021
 008C46 4130 9B5F      069FF       11099        LA    JC,CTLVL                  A(CTL.LVL)                       76188021
 008C4A 45E0 9A98      06938       11100        BAL   JP,GNIFRN                 GEN IF RPT-NM CTL.LVL =          76195021
 008C4E 4140 CD68      01CF8       11101        LA   JD,SVCTLV                   GEN CTL LVL CURN                76202021
 008C52 45E0 B83C      02754       11102        BAL   JP,GTLVIC             GTLVIC                               76209021
 008C56 4160 CB33      01AC3       11103        LA    JF,RRTN1                   GEN RPT-RETURN-1                76216021
 008C5A 45E0 B684      0259C       11104        BAL   JP,GENB               GENERATE NAME                        76223021
 008C5E 45E0 B7EE      02706       11105        BAL   JP,GNPER                   GEN .                           76230021
 008C62 5810 CD7C      01D0C       11106        L     JA,JARST                   RESET JA FOR NXT CTL            76237021
 008C66 5820 CD80      01D10       11107        L     JB,JBRST                   RESET JB FOR NXT CTL            76244021
 008C6A D201 CDC2 1018 01D52 00018 11108          MVC   CELL3(LX2),DX24(JA)       GET SIZE OF PREVIOUS ENTRY     76251021
 008C70 4B10 CDC2      01D52       11109        SH    JA,CELL3                  JA POINTS TO PREVIOUS ENTRY      76258021
 008C74 1912                       11110        CR    JA,JB                      OUT OF TBL                      76265021
 008C76 4740 F62E      08C7E       11111        BC    LO,GNRSTX             GNRST1                               76272021
 008C7A 47F0 F53E      08B8E       11112        BC    UNCOND,GNRST2         GNRST2                               76279021
                                   11113 *EXIT FROM GENERATE RESET ROUTINE                                       76286021
 008C7E                            11114 GNRSTX DS    0H                                                         76293021
 008C7E 4160 CB33      01AC3       11115        LA    JF,RRTN1                   GEN RPT-RETURN-1                76300021
 008C82 45E0 B684      0259C       11116        BAL   JP,GENB               GENERATE NAME                        76307021
                                   11117 *                                                                       76314021
                                   11118 * GEN 1ST-ROUT                                                          76321021
                                   11119 *                                                                       76328021
 008C86                            11120 GNFRSR DS    0H                                                         76335021
 008C86 4140 CB47      01AD7       11121        LA    JD,GNFRST                  GEN PAR NAME                    76342021
 008C8A 4150 CB8D      01B1D       11122        LA    JE,FSTCOD                                                  76349021
 008C8E 45E0 BABC      029D4       11123        BAL   JP,GNPAR              GNPAR                                76356021
 008C92 4160 CB27      01AB7       11124        LA    JF,RSVE1                   GEN RPT-SAVE-1                  76363021
 008C96 45E0 B684      0259C       11125        BAL   JP,GENB               GENERATE NAME                        76370021
                                   11126 **                                                                      76377021
 008C9A 45E0 B7AC      026C4       11127        BAL   JP,GNIF                   GEN IF                           76384021
 008C9E 4130 9B96      06A36       11128        LA    JC,FTCON                                                   76391021
 008CA2 45E0 B7FE      02716       11129        BAL   JP,GNXPX                  GEN FRS.GEN                      76398021
 008CA6 4160 A106      02CF6       11130        LA    JF,NOTCON                                                  76405021
 008CAA 45E0 B684      0259C       11131        BAL   JP,GENB                   GEN NOT                          76412021
 008CAE 45E0 B82C      02744       11132        BAL   JP,GNEQ                   GEN =                            76419021
 008CB2 45E0 B824      0273C       11133        BAL   JP,GNZER                  GEN ZERO                         76426021
 008CB6 4160 CB33      01AC3       11134        LA    JF,RRTN1                                                   76433021
 008CBA 45E0 B684      0259C       11135        BAL   JP,GENB                   GEN RPT-RETURN-1                 76440021
 008CBE 45E0 B7EE      02706       11136        BAL   JP,GNPER                  GEN .                            76447021
 008CC2 D201 CCCA CB4D 01C5A 01ADD 11137          MVC   RCGN(LX2),GNWR1          GEN                             76454021
 008CC8 45E0 B76A      02682       11138        BAL   JP,GNRCLL                     RPT-CALL GNWR1               76461021
 008CCC 45E0 9A46      068E6       11139        BAL   JP,GNM1T                  GEN MOVE ONE TO                  76468021
 008CD0 4130 9B96      06A36       11140        LA    JC,FTCON                                                   76475021
 008CD4 45E0 B7FE      02716       11141        BAL   JP,GNXPX                  GEN FRS.GEN                      76482021
 008CD8 9120 D362      00392       11142          TM    PGESW,XX20               PAGE CLAUSE SPECIFIED           76489021
 008CDC 4780 F6AC      08CFC       11143        BC    ZERO,GNFRS1               NO...SKIP                        76496021
 008CE0 4160 A792      03382       11144        LA    JF,SUBCON                 GEN                         1895 76503021
 008CE4 45E0 B684      0259C       11145        BAL   JP,GENB                       SUBTRACT                1895 76510021
 008CE8 45E0 B81C      02734       11146        BAL   JP,GNONE                  GEN ONE                     1895 76517021
1PH1A     IKFCBL10                                                                                              PAGE  225
-  LOC  OBJECT CODE    ADDR1 ADDR2  STMT   SOURCE STATEMENT                                       ASM 0201 11.03 02/14/15
0008CEC 4160 A185      02D75       11147        LA    JF,FROMCN                 GEN                         1895 76524021
 008CF0 45E0 B684      0259C       11148        BAL   JP,GENB                       FROM                    1895 76531021
 008CF4 45E0 B7BE      026D6       11149        BAL   JP,GNRPN                  GEN RPT-NM                       76538021
 008CF8 45E0 B7D6      026EE       11150        BAL   JP,GNPCTR                 GEN PAGE-COUNTER                 76545021
 008CFC                            11151 GNFRS1 DS    0H                                                         76552021
 008CFC D201 CCCA CB3F 01C5A 01ACF 11152          MVC   RCGN(LX2),GNRH            GEN RPT-CALL GNRH              76559021
 008D02 45E0 B76A      02682       11153        BAL   JP,GNRCLL             GNRCLL - RPT CALL                    76566021
 008D06 D201 CCCA CB5D 01C5A 01AED 11154          MVC   RCGN(LX2),GNCHF           GEN RPT-CALL GNCHF             76573021
 008D0C 45E0 B76A      02682       11155        BAL   JP,GNRCLL             GNRCLL - RPT CALL                    76580021
 008D10 4160 CB33      01AC3       11156        LA    JF,RRTN1                   GEN RPT-RETURN-1                76587021
 008D14 45E0 B684      0259C       11157        BAL   JP,GENB               GENERATE NAME                        76594021
                                   11158 *                                                                       76601021
                                   11159 * GEN LST-ROUT                                                          76608021
                                   11160 *                                                                       76615021
 008D18                            11161 GNLSTR DS    0H                                                         76622021
 008D18 4140 CB49      01AD9       11162        LA    JD,GNLAST                  GEN PAR NAME                    76629021
 008D1C 4150 CB90      01B20       11163        LA    JE,LSTCOD                                                  76636021
 008D20 45E0 BABC      029D4       11164        BAL   JP,GNPAR              GNPAR                                76643021
 008D24 4160 CB2F      01ABF       11165        LA    JF,RSVE5                   GEN RPT-SAVE-5                  76650021
 008D28 45E0 B684      0259C       11166        BAL   JP,GENB               GENERATE NAME                        76657021
 008D2C 4130 9B96      06A36       11167        LA    JC,FTCON                  A(FRS.GEN)                       76664021
 008D30 45E0 9A98      06938       11168        BAL   JP,GNIFRN                 GEN IF RPT-NM FRS.GEN =          76671021
 008D34 45E0 B824      0273C       11169        BAL   JP,GNZER                  GEN ZERO                         76678021
 008D38 4160 CB3B      01ACB       11170        LA    JF,RRTN5                  GEN                              76685021
 008D3C 45E0 B684      0259C       11171        BAL   JP,GENB                       RPT-RETURN-5                 76692021
 008D40 45E0 B7EE      02706       11172        BAL   JP,GNPER                  GEN .                            76699021
                                   11173 *                                                                       76706021
                                   11174 *LAST ROUTINE--FORCE CTL BRK AT HIGHEST LVL AND                         76713021
                                   11175 *              CALL GNROL (ROLL ROUT)                                   76720021
 008D44 45E0 9A30      068D0       11176        BAL   JP,GNMZT                  GEN MOVE ZERO TO                 76727021
 008D48 4130 9B5F      069FF       11177        LA   JC,CTLVL                    GEN CTL.LVL                     76734021
 008D4C 45E0 B7FE      02716       11178        BAL   JP,GNXPX              GEN RPT NAME                         76741021
 008D50 45E0 9A46      068E6       11179        BAL   JP,GNM1T                  GEN MOVE ONE TO                  76748021
 008D54 4130 9B7C      06A1C       11180        LA    JC,TERCON                  GEN TER.COD                     76755021
 008D58 45E0 B7FE      02716       11181        BAL   JP,GNXPX              GEN RPT NAME                         76762021
 008D5C D201 CCCA CB63 01C5A 01AF3 11182          MVC   RCGN(LX2),GNROL1          GEN RPT-CALL LAST ROLL         76769021
 008D62 45E0 B76A      02682       11183        BAL   JP,GNRCLL             GNRCLL - RPT CALL                    76776021
 008D66 D201 CCCA CB5F 01C5A 01AEF 11184          MVC   RCGN(LX2),GNCFF           GEN RPT-CALL GNCFF             76783021
 008D6C 45E0 B76A      02682       11185        BAL   JP,GNRCLL             GNRCLL - RPT CALL                    76790021
                                   11186 *                                                                       76797021
 008D70 4130 CBE0      01B70       11187        LA    JC,ICTWO                  GEN MOVE                         76804021
 008D74 45E0 9A62      06902       11188        BAL   JP,GNMNT                      TWO TO                       76811021
 008D78 4130 9B7C      06A1C       11189        LA    JC,TERCON                  GEN TER.COD                     76818021
 008D7C 45E0 B7FE      02716       11190        BAL   JP,GNXPX              GEN RPT NAME                         76825021
 008D80 D201 CCCA CB45 01C5A 01AD5 11191          MVC   RCGN(LX2),GNPF            GEN RPT-CALL GNPF              76832021
 008D86 45E0 B76A      02682       11192        BAL   JP,GNRCLL             GNRCLL - RPT CALL                    76839021
 008D8A D201 CCD2 CB41 01C62 01AD1 11193          MVC   GOGN(LX2),GNRF            GEN GO TO GNRF                 76846021
 008D90 45E0 B782      0269A       11194        BAL   JP,GNGO               GNGO                                 76853021
 008D94 45E0 B7EE      02706       11195        BAL   JP,GNPER              GNPER                                76860021
                                   11196 *                                                                       76867021
                                   11197 * GEN ROL-ROUT                                                          76874021
                                   11198 *                                                                       76881021
 008D98                            11199 GNROLR DS    0H                                                         76888021
                                   11200 *GENERATE ENTRY POINT FOR LAST CTL BRK                                  76895021
 008D98 4140 CB63      01AF3       11201        LA    JD,GNROL1                  GEN PAR NAME                    76902021
1PH1A     IKFCBL10                                                                                              PAGE  226
-  LOC  OBJECT CODE    ADDR1 ADDR2  STMT   SOURCE STATEMENT                                       ASM 0201 11.03 02/14/15
0008D9C 4150 CB99      01B29       11202        LA   JE,ROLCOD                                                   76909021
 008DA0 45E0 BABC      029D4       11203        BAL   JP,GNPAR              GNPAR                                76916021
 008DA4 4160 CB27      01AB7       11204        LA   JF,RSVE1                                                    76923021
 008DA8 45E0 B684      0259C       11205        BAL   JP,GENB               GENERATE NAME                        76930021
 008DAC 94F3 D362      00392       11206          NI    XFTFNL,XXF3              RESET XFTNG SWITCHES            76937021
 008DB0 4140 CB53      01AE3       11207        LA    JD,GNROL                   GEN PAR NAME                    76944021
 008DB4 4150 CB99      01B29       11208        LA    JE,ROLCOD                                                  76951021
 008DB8 45E0 BABC      029D4       11209        BAL   JP,GNPAR              GNPAR                                76958021
 008DBC 5810 C8B4      01844       11210        L     JA,CTLCON                  CTLTBL TIB                      76965021
 008DC0 45E0 BCC2      02BDA       11211        BAL   JP,TBLNIT                  GET START ETC                   76972021
                                   11212 * CELL2 HAS SIZE OF LAST ENTRY IN CTLTBL                                76979021
 008DC4 4770 F798      08DE8       11213        BNZ   GNRL11                    TBL NOT EMPTY...CONTINUE         76986021
 008DC8 5810 C8BC      0184C       11214        L     JA,ROLCON                 ROLTBL TIB                       76993021
 008DCC 45E0 BCC2      02BDA       11215        BAL   JP,TBLNIT                 GET START ETC                    77000021
 008DD0 4780 F8D6      08F26       11216        BZ    GROLXT                    ROLTBL + CTLTBL EMPTY...EXIT     77007021
 008DD4                            11217 GNRL1  DS    0H                                                         77014021
 008DD4 9608 D362      00392       11218          OI    XFTFNL,XX08              TURN ON XFTNG AT FINAL CTL      77021021
 008DD8 9200 CCF6      01C86       11219          MVI   CTLV01,XX00              ZERO TO CTLV01                  77028021
 008DDC 47F0 F7B6      08E06       11220        B     GROL10                    CONTINUE                         77035021
 008DE0                            11221 GNRL10 DS    0H                                                         77042021
 008DE0 9604 D362      00392       11222          OI    XFTFN2,XX04              TURN ON XFTNG FOR CTL + FIN     77049021
 008DE4 47F0 F784      08DD4       11223        B     GNRL1                     CONTINUE XFTNG AT FINAL          77056021
 008DE8                            11224 GNRL11 DS    0H                                                         77063021
 008DE8 4122 1000      00000       11225          LA    JB,DX0(JB,JA)             LAST ADR OF TBL                77070021
 008DEC 4B20 CDBE      01D4E       11226        SH    JB,CELL2                  JB POINTS TO LAST ENTRY          77077021
 008DF0 1831                       11227        LR    JC,JA                     START OF FIRST                   77084021
 008DF2 1812                       11228        LR    JA,JB                     JA HAS START OF LAST             77091021
 008DF4 1823                       11229        LR    JB,JC                     JB HAS START OF FIRST            77098021
 008DF6                            11230 GROL1  DS    0H                                                         77105021
 008DF6 9012 CD40      01CD0       11231        STM   JA,JB,JASCSS               SAVE CTL TBL PTRS               77112021
 008DFA 1912                       11232        CR    JA,JB                      OUT OF CTL TBL                  77119021
 008DFC 4740 F790      08DE0       11233        BL    GNRL10                    YES..CHECK FINAL                 77126021
 008E00 D200 CCF6 1011 01C86 00011 11234          MVC   CTLV01(LX1),DX17(JA)      SAVE CTL LVL                   77133021
 008E06                            11235 GROL10 DS    0H                                                         77140021
 008E06 5810 C8BC      0184C       11236        L     JA,ROLCON                                                  77147021
 008E0A 45E0 BCC2      02BDA       11237        BAL   JP,TBLNIT                  GET START ETC OF ROLL TBL       77154021
 008E0E 5010 CD2C      01CBC       11238        ST    JA,JASV                    PTR TO START ROLL TBL           77161021
 008E12 4780 F880      08ED0       11239        BC    ZERO,GROL8                 GEN 'IF ETC.'                   77168021
 008E16                            11240 GROL2  DS    0H                                                         77175021
 008E16 5010 CD48      01CD8       11241        ST    JA,JAGRSV                  CUR ROLL ENT                    77182021
 008E1A 9104 D360      00390       11242          TM    ROLSW,XX04                OUT OF ROLL TBL                77189021
 008E1E 4770 F880      08ED0       11243        BC    NOTZER,GROL8               YES-GEN 'IF ETC.'               77196021
 008E22 D501 1000 C14C 00000 010DC 11244          CLC   DX0(LX2,JA),HWZERO          WORKING ON LAST ROLL ENT     77203021
 008E28 4770 F7E0      08E30       11245        BC    NOTEQ,GROL3                NO                              77210021
 008E2C 9604 D360      00390       11246          OI    ROLSW,XX04                YES-CODE OUT OF TBL            77217021
 008E30                            11247 GROL3  DS    0H                                                         77224021
 008E30 D500 1003 CCF6 00003 01C86 11248          CLC   DX3(LX1,JA),CTLV01         ROL LEV = LEV IN CTL ENT      77231021
 008E36 4780 F800      08E50       11249        BC    EQ,GROL5                   YRS-GEN ADD ETC.                77238021
 008E3A                            11250 GROL4  DS    0H                                                         77245021
 008E3A 5810 CD48      01CD8       11251        L     JA,JAGRSV                  CUR ENT OF ROLL TBL             77252021
 008E3E D201 CD30 1000 01CC0 00000 11252          MVC   JBSV(LX2),DX0(JA)           PTR IN JBSV                  77259021
 008E44 4830 CD30      01CC0       11253        LH    JC,JBSV                    PTR IN JC                       77266021
 008E48 4111 3000      00000       11254          LA    JA,DX0(JA,JC)             NEW ENT = START + PTR          77273021
 008E4C 47F0 F7C6      08E16       11255        BC    UNCOND,GROL2          GROL2                                77280021
 008E50                            11256 GROL5  DS    0H                                                         77287021
1PH1A     IKFCBL10                                                                                              PAGE  227
-  LOC  OBJECT CODE    ADDR1 ADDR2  STMT   SOURCE STATEMENT                                       ASM 0201 11.03 02/14/15
0008E50 4131 0008      00008       11257          LA    JC,DX8(JA)                START OF ROLL OPNDS            77294021
 008E54 D201 CD88 1006 01D18 00006 11258          MVC   SNMPTR(LX2),DX6(JA)         SAVE SUM NAME PTR            77301021
 008E5A                            11259 GROL6  DS    0H                                                         77308021
 008E5A D503 3000 C598 00000 01528 11260          CLC   DX0(LX4,JC),BUGCON         LAST ROLL OPND                77315021
 008E60 4780 F7EA      08E3A       11261        BC    EQ,GROL4                   YES-GET NEXT ROLL               77322021
 008E64 5030 CDD0      01D60       11262        ST    JC,JCSAVE                  SAVE PTR TO NEXT ROLL OPND      77329021
 008E68 45E0 B814      0272C       11263        BAL   JP,GNADD                   GEN ADD                         77336021
 008E6C 4840 CD88      01D18       11264        LH    JD,SNMPTR                  GEN SUM NAME                    77343021
 008E70 5810 C8FC      0188C       11265        L     JA,SNMCON                 SNMTBL TIB                       77350021
 008E74 45E0 BCC2      02BDA       11266        BAL   JP,TBLNIT                 GET START ETC                    77357021
 008E78 4164 1000      00000       11267          LA    JF,DX0(JD,JA)            POINT TO ENTRY                  77364021
 008E7C 45E0 B684      0259C       11268        BAL   JP,GENB                   GEN DATA NAME                    77371021
 008E80 45E0 B7E6      026FE       11269        BAL   JP,GNTO                    GEN TO                          77378021
 008E84 5830 CDD0      01D60       11270        L     JC,JCSAVE                  OPND PTR                        77385021
 008E88 D201 CDD4 3000 01D64 00000 11271          MVC   JDSAVE(LX2),DX0(JC)                                      77392021
 008E8E 5030 CDD0      01D60       11272        ST    JC,JCSAVE                                                  77399021
 008E92 91F0 3000      00000       11273          TM    DX0(JC),XXF0              SUM NM OR S.NAME               77406021
 008E96 4710 F862      08EB2       11274        BC    ONES,GROL7                 S.NAME                          77413021
 008E9A 4840 CDD4      01D64       11275        LH    JD,JDSAVE                  SUM NM                          77420021
 008E9E 5810 C8FC      0188C       11276        L     JA,SNMCON                 SNMTBL TIB                       77427021
 008EA2 45E0 BCC2      02BDA       11277        BAL   JP,TBLNIT                 GET START ETC                    77434021
 008EA6 4164 1000      00000       11278          LA    JF,DX0(JD,JA)            POINT TO ENTRY                  77441021
 008EAA 45E0 B684      0259C       11279        BAL   JP,GENB                   GEN DATA NAME                    77448021
 008EAE 47F0 F870      08EC0       11280        BC    UNCOND,GROL7A         GROL7A                               77455021
 008EB2                            11281 GROL7  DS    0H                         GEN S.NAME                      77462021
 008EB2 D203 CCAE 3000 01C3E 00000 11282          MVC   SPTID1(LX4),DX0(JC)                                      77469021
 008EB8 4160 CCAA      01C3A       11283        LA   JF,SPTIC                                                    77476021
 008EBC 45E0 B684      0259C       11284        BAL   JP,GENB               GENERATE NAME                        77483021
 008EC0                            11285 GROL7A DS    0H                                                         77490021
 008EC0 45E0 B7EE      02706       11286        BAL   JP,GNPER                    GEN .                          77497021
 008EC4 5830 CDD0      01D60       11287        L     JC,JCSAVE                                                  77504021
 008EC8 4133 0004      00004       11288          LA    JC,DX4(JC)                STEP TO NXT OPND PTR           77511021
 008ECC 47F0 F80A      08E5A       11289        BC    UNCOND,GROL6               GET NXT ROLL OPND               77518021
 008ED0                            11290 GROL8  DS    0H                                                         77525021
 008ED0 9108 D362      00392       11291          TM    XFTFNL,XX08              XFTNG AT FINAL                  77532021
 008ED4 4710 F898      08EE8       11292        BO    GROL80                    YES...SKIP IF ETC                77539021
 008ED8 4130 9B5F      069FF       11293        LA    JC,CTLVL                  A(CTL.LVL)                       77546021
 008EDC 45E0 9A98      06938       11294        BAL   JP,GNIFRN                 GEN IF RPT-NM CTL.LVL =          77553021
 008EE0 4140 CCF6      01C86       11295        LA   JD,CTLV01                   GEN LVL                         77560021
 008EE4 45E0 B83C      02754       11296        BAL   JP,GTLVIC             GTLVIC                               77567021
 008EE8                            11297 GROL80 DS    0H                                                         77574021
 008EE8 94FB D360      00390       11298          NI    ROLSW,XXFB               RESET END-OF-ROLTBL SWITCH      77581021
 008EEC D201 CCCA CB6B 01C5A 01AFB 11299          MVC   RCGN(LX2),GNSAV          GEN                             77588021
 008EF2 45E0 B76A      02682       11300        BAL   JP,GNRCLL                     RPT-CALL SAV-ROUT            77595021
 008EF6 910C D362      00392       11301          TM    XFTFNL,XX0C              FINAL XFTNG + CONTROLS          77602021
 008EFA 4740 F8D6      08F26       11302        BM    GROLXT                    NO...FINAL ONLY...GEN RETURN     77609021
 008EFE D201 CCD2 CD1C 01C62 01CAC 11303          MVC   GOGN(LX2),GNCFH           GEN GO TO GNCF HIGH LVL        77616021
 008F04 45E0 B782      0269A       11304        BAL   JP,GNGO               GNGO                                 77623021
 008F08 45E0 B7EE      02706       11305        BAL   JP,GNPER                   GEN .                           77630021
 008F0C 9104 D362      00392       11306          TM    XFTFN2,XX04              FINAL XFTNG + CONTROLS          77637021
 008F10 4710 F8DE      08F2E       11307        BO    GROLX2                    YES..EXIT WITH NO RETURN         77644021
 008F14 9812 CD40      01CD0       11308        LM    JA,JB,JASCSS          RESET CTL TBL PTRS                   77651021
 008F18 D201 CDC2 1018 01D52 00018 11309          MVC   CELL3(LX2),DX24(JA)       GET SIZE OF PREVIOUS ENTRY     77658021
 008F1E 4B10 CDC2      01D52       11310        SH    JA,CELL3                  JA HAS START OF PREVIOUS ENT     77665021
 008F22 47F0 F7A6      08DF6       11311        BC    UNCOND,GROL1               REPEAT ROUT FOR EACH CTL        77672021
1PH1A     IKFCBL10                                                                                              PAGE  228
-  LOC  OBJECT CODE    ADDR1 ADDR2  STMT   SOURCE STATEMENT                                       ASM 0201 11.03 02/14/15
0008F26                            11312 GROLXT DS    0H                                                         77679021
 008F26 4160 CB33      01AC3       11313        LA    JF,RRTN1                                                   77686021
 008F2A 45E0 B684      0259C       11314        BAL   JP,GENB               GENERATE NAME                        77693021
 008F2E                            11315 GROLX2 DS    0H                                                         77700021
                                   11316 *                                                                       77707021
                                   11317 * GEN CTH/CTF-ROUTINES (IF NOT SPECIFIED)                               77714021
 008F2E                            11318 GNCTL  DS    0H                                                         77721021
 008F2E 5810 C8B4      01844       11319        L     JA,CTLCON                   CTLTBL TIB                     77728021
 008F32 45E0 BCC2      02BDA       11320        BAL   JP,TBLNIT                  GET START ETC                   77735021
                                   11321 * CELL2 STILL HAS SIZE OF LAST ENTRY IN CTLTBL                          77742021
 008F36 4780 FA4C      0909C       11322        BZ    GNSVRT                    YES..EXIT                        77749021
 008F3A 4121 2000      00000       11323          LA    JB,DX0(JA,JB)             LAST ADR OF TBL                77756021
 008F3E 9012 CD34      01CC4       11324        STM   JA,JB,JACTS                SAVE JA JB FOR CF ROUT          77763021
 008F42                            11325 GNCTL1 DS    0H                                                         77770021
 008F42 5010 CD3C      01CCC       11326        ST    JA,JACTS1                                                  77777021
 008F46 9101 1010      00010       11327          TM    DX16(JA),XX01            CTL HDNG SPECIFIED              77784021
 008F4A 4780 F91A      08F6A       11328        BC    ZERO,GNCTL3                NO                              77791021
 008F4E                            11329 GNCTL2 DS    0H                                                         77798021
 008F4E 5810 CD3C      01CCC       11330        L     JA,JACTS1                  RESET JA                        77805021
 008F52 5820 CD38      01CC8       11331        L     JB,JBCTS                    RESET JB                       77812021
 008F56 D201 CDC2 1000 01D52 00000 11332          MVC   CELL3(LX2),DX0(JA)        GET SIZE                       77819021
 008F5C 4A10 CDC2      01D52       11333        AH    JA,CELL3                  GET NEXT ENTRY                   77826021
 008F60 1912                       11334        CR    JA,JB                      OUT OF TBL                      77833021
 008F62 4740 F8F2      08F42       11335        BC    LO,GNCTL1                  NO-GET NXT CTL                  77840021
 008F66 47F0 F962      08FB2       11336        BC    UNCOND,GNCTL6              YES-PROCESS CTL FTNGS           77847021
 008F6A                            11337 GNCTL3 DS    0H                                                         77854021
 008F6A 4141 0012      00012       11338          LA    JD,DX18(JA)              GEN CH PAR NAME                 77861021
 008F6E 4150 CB93      01B23       11339        LA    JE,CHCOD                                                   77868021
 008F72 45E0 BABC      029D4       11340        BAL   JP,GNPAR              GNPAR                                77875021
 008F76 5810 CD3C      01CCC       11341        L     JA,JACTS1                  RESET JA                        77882021
 008F7A D201 CDC2 1000 01D52 00000 11342          MVC   CELL3(LX2),DX0(JA)        GET SIZE OF THIS ENTRY         77889021
 008F80 4A10 CDC2      01D52       11343        AH    JA,CELL3                  POINT TO NEXT ENTRY              77896021
 008F84 5820 CD38      01CC8       11344        L     JB,JBCTS                   RESET JB                        77903021
 008F88 1912                       11345        CR    JA,JB                      WORKING ON LAST ENTRY           77910021
 008F8A 4740 F950      08FA0       11346        BC    LO,GNCTL4                  NO                              77917021
 008F8E D201 CCD2 CB55 01C62 01AE5 11347          MVC   GOGN(LX2),GNRST           YES-GEN GO TO GNRESET          77924021
 008F94 45E0 B782      0269A       11348        BAL   JP,GNGO               GNGO                                 77931021
 008F98 45E0 B7EE      02706       11349        BAL   JP,GNPER                   GEN .                           77938021
 008F9C 47F0 F962      08FB2       11350        BC    UNCOND,GNCTL6              PROCESS CF                      77945021
 008FA0                            11351 GNCTL4 DS    0H                                                         77952021
 008FA0 D201 CCD2 1012 01C62 00012 11352          MVC   GOGN(LX2),DX18(JA)        GEN GO TO NEXT LOWER CH        77959021
 008FA6 45E0 B782      0269A       11353        BAL   JP,GNGO               GNGO                                 77966021
 008FAA 45E0 B7EE      02706       11354        BAL   JP,GNPER                   GEN .                           77973021
 008FAE 47F0 F8FE      08F4E       11355        BC    UNCOND,GNCTL2              GET NXT CTL ENT                 77980021
                                   11356 *GNCTL6-GEN PAR NMS AND 'GO TO' FOR CTL FTNGS                           77987021
 008FB2                            11357 GNCTL6 DS    0H                                                         77994021
 008FB2 5820 CD34      01CC4       11358        L     JB,JACTS                   RESET START/END FOR CF          78001021
 008FB6 5810 CD38      01CC8       11359        L     JA,JBCTS                                                   78008021
                                   11360 * CELL2 STILL HAS SIZE OF LAST ENTRY IN CTLTBL                          78015021
 008FBA 4B10 CDBE      01D4E       11361        SH    JA,CELL2                  JA POINTS TO START OF LAST       78022021
                                   11362 *JA NOW CONTAINS ADR OF LAST ENT IN CTLTBL                              78029021
                                   11363 *JB NOW CONTAINS START OF CTLTBL                                        78036021
 008FBE                            11364 GNCTL7 DS    0H                                                         78043021
 008FBE 5010 CD3C      01CCC       11365        ST    JA,JACTS1                                                  78050021
 008FC2 9110 1010      00010       11366          TM    DX16(JA),XX10            CF SPECIFIED                    78057021
1PH1A     IKFCBL10                                                                                              PAGE  229
-  LOC  OBJECT CODE    ADDR1 ADDR2  STMT   SOURCE STATEMENT                                       ASM 0201 11.03 02/14/15
0008FC6 4780 F996      08FE6       11367        BC    ZERO,GNCTL9                NO                              78064021
 008FCA                            11368 GNCTL8 DS    0H                                                         78071021
 008FCA 5810 CD3C      01CCC       11369        L     JA,JACTS1                  RESET JA                        78078021
 008FCE 5820 CD34      01CC4       11370        L     JB,JACTS                   RESET JB                        78085021
 008FD2 D201 CDC2 1018 01D52 00018 11371          MVC   CELL3(LX2),DX24(JA)       GET SIZE OF PREVIOUS ENTRY     78092021
 008FD8 4B10 CDC2      01D52       11372        SH    JA,CELL3                  JA POINTS TO PREVIOUS ENTRY      78099021
 008FDC 1912                       11373        CR    JA,JB                                                      78106021
 008FDE 4740 FA4C      0909C       11374        BL    GNSVRT                    WORKING ON 1ST ENTRY...EXIT      78113021
 008FE2 47F0 F96E      08FBE       11375        BC    UNCOND,GNCTL7              GET NXT CTL ENTRY               78120021
 008FE6                            11376 GNCTL9 DS    0H                                                         78127021
 008FE6 4141 0014      00014       11377          LA    JD,DX20(JA)              GEN CF PAR NAME                 78134021
 008FEA 4150 CB96      01B26       11378        LA    JE,CFCOD                                                   78141021
 008FEE 45E0 BABC      029D4       11379        BAL   JP,GNPAR              GNPAR                                78148021
 008FF2 5810 CD3C      01CCC       11380        L     JA,JACTS1                  RESET JA                        78155021
 008FF6 5820 CD34      01CC4       11381        L     JB,JACTS                   RESET JB                        78162021
 008FFA 1912                       11382        CR    JA,JB                                                      78169021
 008FFC 4720 F9BA      0900A       11383        BC    HI,GNCTLA             GNCTLA                               78176021
 009000 D201 CD18 1014 01CA8 00014 11384          MVC   CFLMI1(LX2),DX20(JA)      GET GN FOR CF                  78183021
 009006 47F0 F9CA      0901A       11385        BC    UNCOND,GNCTLW         GNCTLW                               78190021
 00900A                            11386 GNCTLA DS    0H                                                         78197021
 00900A D201 CDBE 1018 01D4E 00018 11387          MVC   CELL2(LX2),DX24(JA)       GET PREVIOUS SIZE              78204021
 009010 4B10 CDBE      01D4E       11388        SH    JA,CELL2                  POINT TO PREVIOUS ENTRY          78211021
 009014 D201 CD18 1014 01CA8 00014 11389          MVC   CFLMI1(LX2),DX20(JA)      GET FTNG LVL-1                 78218021
 00901A                            11390 GNCTLW DS    0H                                                         78225021
 00901A 5810 CD3C      01CCC       11391        L     JA,JACTS1                  RESET JA TO CUR ENT             78232021
 00901E D501 CD1E 1012 01CAE 00012 11392          CLC   GNCHM,DX18(JA)           MAJOR FOOTING                   78239021
 009024 4770 FA0E      0905E       11393        BC    NOTEQ,GNCTLC               NO                              78246021
 009028 D201 CCCA CB6D 01C5A 01AFD 11394          MVC   RCGN(LX2),GNRET          GEN                             78253021
 00902E 45E0 B76A      02682       11395        BAL   JP,GNRCLL                     RPT-CALL GNRET               78260021
 009032 4130 9B7C      06A1C       11396        LA    JC,TERCON                 A(TER.COD)                       78267021
 009036 45E0 9A98      06938       11397        BAL   JP,GNIFRN                 GEN IF RPT-NM TER.COD =          78274021
 00903A 45E0 B824      0273C       11398        BAL   JP,GNZER                  GEN ZERO                         78281021
 00903E 5810 CD3C      01CCC       11399        L     JA,JACTS1                  RESET JA                        78288021
 009042 D201 CCD2 1012 01C62 00012 11400          MVC   GOGN(LX2),DX18(JA)        GEN GO TO CH THIS LVL          78295021
 009048 45E0 B782      0269A       11401        BAL   JP,GNGO               GNGO                                 78302021
 00904C 45E0 B7EE      02706       11402        BAL   JP,GNPER                  GEN .                            78309021
 009050 D201 CCD2 CB55 01C62 01AE5 11403          MVC   GOGN(LX2),GNRST           GEN GO TO GNRESET              78316021
 009056 45E0 B782      0269A       11404        BAL   JP,GNGO               GNGO                                 78323021
 00905A 47F0 FA44      09094       11405        BC    UNCOND,GNCPER              GO GEN PERIOD                   78330021
 00905E                            11406 GNCTLC DS    0H                                                         78337021
 00905E 4130 9B5F      069FF       11407        LA    JC,CTLVL                  A(CTL.LVL)                       78344021
 009062 45E0 9A98      06938       11408        BAL   JP,GNIFRN                 GEN IF RPT-NM CTL.LVL =          78351021
 009066 4141 0011      00011       11409          LA    JD,DX17(JA)              GEN CUR LVL                     78358021
 00906A 45E0 B83C      02754       11410        BAL   JP,GTLVIC             GTLVIC                               78365021
 00906E D201 CCCA CB6D 01C5A 01AFD 11411          MVC   RCGN(LX2),GNRET          GEN                             78372021
 009074 45E0 B76A      02682       11412        BAL   JP,GNRCLL                     RPT-CALL GNRET               78379021
 009078 5810 CD3C      01CCC       11413        L     JA,JACTS1                 RESTORE JA                       78386021
 00907C D201 CCD2 1012 01C62 00012 11414          MVC   GOGN(LX2),DX18(JA)        GEN CH THIS LVL                78393021
 009082 45E0 B782      0269A       11415        BAL   JP,GNGO               GNGO                                 78400021
 009086 45E0 B834      0274C       11416        BAL   JP,GNELSE                  GEN ELSE                        78407021
 00908A D201 CCD2 CD18 01C62 01CA8 11417          MVC   GOGN(LX2),CFLMI1          GEN GO TO CF LVL-1             78414021
 009090 45E0 B782      0269A       11418        BAL   JP,GNGO               GNGO                                 78421021
 009094 45E0 B7EE      02706       11419 GNCPER BAL   JP,GNPER                   GEN .                           78428021
 009098 47F0 F97A      08FCA       11420        BC    UNCOND,GNCTL8         GNCTL8                               78435021
 00909C                            11421 GNSPRX DS    0H                                                         78442021
1PH1A     IKFCBL10                                                                                              PAGE  230
-  LOC  OBJECT CODE    ADDR1 ADDR2  STMT   SOURCE STATEMENT                                       ASM 0201 11.03 02/14/15
0                                  11422 *                                                                       78449021
                                   11423 * GEN SAV-ROUT                                                          78456021
                                   11424 *                                                                       78463021
 00909C                            11425 GNSVRT DS    0H                                                         78470021
 00909C 4140 CB6B      01AFB       11426        LA    JD,GNSAV                  GN FOR SAV-ROUT                  78477021
 0090A0 4150 CBAB      01B3B       11427        LA    JE,SAVCOD                 CODE FOR SAV-ROUT                78484021
 0090A4 45E0 BABC      029D4       11428        BAL   JP,GNPAR                  GEN PAR NAME AND GN              78491021
 0090A8 4160 CB2D      01ABD       11429        LA    JF,RSVE4                  GEN                              78498021
 0090AC 45E0 B684      0259C       11430        BAL   JP,GENB                       RPT-SAVE-4                   78505021
 0090B0 5810 C8B4      01844       11431        L    JA,CTLCON                  CTLTBL TIB                       78512021
 0090B4 45E0 BCC2      02BDA       11432        BAL   JP,TBLNIT                 GET START ETC                    78519021
 0090B8 4780 FAAA      090FA       11433        BC    ZERO,GNSVXT               NO ENTRIES...EXIT                78526021
 0090BC 4172 1000      00000       11434          LA    JG,DX0(JB,JA)            END OF TBL                      78533021
 0090C0                            11435 GNSVR1 DS    0H                                                         78540021
 0090C0 45E0 B7DE      026F6       11436        BAL   JP,GNMOVE                 GEN MOVE                         78547021
 0090C4 45E0 FAFA      0914A       11437        BAL   JP,GENCNM                 GO GEN CTL-NM                    78554021
                                   11438 * JC STILL CONTAINS LENGTH OF CONTROL NAME                              78561021
 0090C8 45E0 B7E6      026FE       11439        BAL   JP,GNTO                   GEN TO                           78568021
 0090CC 4161 0009      00009       11440          LA    JF,DX9(JA)               GEN                             78575021
 0090D0 45E0 B684      0259C       11441        BAL   JP,GENB                   SAVE NAME                        78582021
 0090D4 45E0 B7DE      026F6       11442        BAL   JP,GNMOVE                 GEN MOVE                         78589021
 0090D8 4161 0002      00002       11443          LA    JF,DX2(JA)               GEN                             78596021
 0090DC 45E0 B684      0259C       11444        BAL   JP,GENB                       DUP NAME                     78603021
 0090E0 45E0 B7E6      026FE       11445        BAL   JP,GNTO                   GEN TO                           78610021
 0090E4 4161 001A      0001A       11446          LA    JF,DX26(JA)              GEN                             78617021
 0090E8 45E0 FB0E      0915E       11447        BAL   JP,GENF2                      CTL-NM                       78624021
 0090EC 4830 CDC2      01D52       11448        LH    JC,CELL3                  GET SIZE                         78631021
 0090F0 4113 1000      00000       11449          LA    JA,DX0(JC,JA)            ADDR OF NEXT ENTRY              78638021
 0090F4 1917                       11450        CR    JA,JG                     END OF TBL                       78645021
 0090F6 4740 FA70      090C0       11451        BC    LO,GNSVR1                 NO...DO NEXT                     78652021
 0090FA                            11452 GNSVXT DS    0H                                                         78659021
 0090FA 4160 CB39      01AC9       11453        LA    JF,RRTN4                  GEN                              78666021
 0090FE 45E0 B684      0259C       11454        BAL   JP,GENB                       RPT RETURN-4                 78673021
                                   11455 *                                                                       78680021
                                   11456 * GEN RET-ROUT                                                          78687021
 009102                            11457 GNRTRT DS    0H                                                         78694021
 009102 4140 CB6D      01AFD       11458        LA    JD,GNRET                  GN FOR RET-ROUT                  78701021
 009106 4150 CBAE      01B3E       11459        LA    JE,RETCOD                 CODE FOR RET-ROUT                78708021
 00910A 45E0 BABC      029D4       11460        BAL   JP,GNPAR                  GEN PAR NAME AND GN              78715021
 00910E 4160 CB2D      01ABD       11461        LA    JF,RSVE4                  GEN                              78722021
 009112 45E0 B684      0259C       11462        BAL   JP,GENB                       RPT-SAVE-4                   78729021
 009116 5810 C8B4      01844       11463        L    JA,CTLCON                  CTLTBL TIB                       78736021
 00911A 45E0 BCC2      02BDA       11464        BAL   JP,TBLNIT                 GET START ETC                    78743021
 00911E 4780 FAEC      0913C       11465        BC    ZERO,GNRTXT               NO ENTRIES...EXIT                78750021
 009122                            11466 GNRTR1 DS    0H                                                         78757021
 009122 4131 0009      00009       11467          LA    JC,DX9(JA)               GEN MOVE                        78764021
 009126 45E0 9A62      06902       11468        BAL   JP,GNMNT                      SAV-NAME TO                  78771021
 00912A 45E0 FAFA      0914A       11469        BAL   JP,GENCNM                 GO GEN CTL-NM                    78778021
 00912E 4830 CDC2      01D52       11470        LH    JC,CELL3                  GET SIZE                         78785021
 009132 4113 1000      00000       11471          LA    JA,DX0(JC,JA)            ADDR OF NEXT ENTRY              78792021
 009136 1917                       11472        CR    JA,JG                     END OF TBL                       78799021
 009138 4740 FAD2      09122       11473        BC    LO,GNRTR1                 NO...DO NEXT                     78806021
 00913C                            11474 GNRTXT DS    0H                                                         78813021
 00913C 4160 CB39      01AC9       11475        LA    JF,RRTN4                  GEN                              78820021
 009140 45E0 B684      0259C       11476        BAL   JP,GENB                       RPT RETURN-4                 78827021
1PH1A     IKFCBL10                                                                                              PAGE  231
-  LOC  OBJECT CODE    ADDR1 ADDR2  STMT   SOURCE STATEMENT                                       ASM 0201 11.03 02/14/15
0009144 58E0 D8E4      00914       11477        L     JP,JPSPRT                 RETURN                           78834021
 009148 07FE                       11478        BCR   UNCOND,JP                     ON JP                        78841021
                                   11479 *                                                                       78848021
                                   11480 *                                                                       78855021
 00914A                            11481 GENCNM DS    0H                                                         78862021
 00914A D201 CDC2 1000 01D52 00000 11482          MVC   CELL3(LX2),DX0(JA)        GET SIZE OF TOTAL ENTRY        78869021
 009150 4140 001A      0001A       11483          LA    JD,DX26(JR)              SKIP COMMON PART                78876021
 009154 4830 CDC2      01D52       11484        LH    JC,CELL3                  SIZE IN JC                       78883021
 009158 1B34                       11485        SR    JC,JD                     GET ACTUAL CTL-NM SIZE IN JC     78890021
 00915A 4161 001A      0001A       11486          LA    JF,DX26(JA)              ADDRESS OF ACTUAL ENTRY         78897021
                                   11487 * RETURN ADDRESS STILL IN JP                                            78904021
                                   11488 * JC HAS LENGTH OF CONTROL NAME                                         78911021
                                   11489 *                                                                       78918021
                                   11490 *                                                                       78925021
 00915E                            11491 GENF2  DS    0H                                                         78932021
                                   11492 *  ADDRESS OF DATA IN JF                                                78939021
                                   11493 *  LENGTH OF DATA IN JC                                                 78946021
 00915E 9003 D884      008B4       11494        STM   JR,JC,SV4F04              SAVE REGS                        78953021
 009162 5810 C814      017A4       11495        L     JA,COSADR                 COS ADDRESS                      78960021
 009166 1826                       11496        LR    JB,JF                     PUT TO                           78967021
 009168 0501                       11497        BALR  JR,JA                         FILE                         78974021
 00916A 12                         11498        DC    X'12'                               TWO                    78981021
 00916B 00
 00916C 9803 D884      008B4       11499        LM    JR,JC,SV4F04              RESTORE REGS                     78988021
 009170 07FE                       11500        BCR   UNCOND,JP                 RETURN                           78995021
                                   11501 *                                                                       79002021
                                   11502 *                                                                       79009021
                                   11503 *GTORD- ROUTINE TO GET NAME FROM SMSTBL AND GEN AS IC TEXT              79016021
 009172                            11504 GTOPD  DS    0H                                                         79023021
 009172 50E0 CD5C      01CEC       11505        ST    JP,JPGTOS                                                  79030021
 009176 5810 C8F4      01884       11506        L     JA,SMSCON                 SMSTBL TIB                       79037021
 00917A 45E0 BCC2      02BDA       11507        BAL   JP,TBLNIT                  GET START ETC                   79044021
 00917E 4164 1002      00002       11508          LA    JF,DX2(JD,JA)            ADDR OF ENTRY                   79051021
 009182 4114 1000      00000       11509          LA    JA,DX0(JD,JA)            POINT TO START OF ENTRY         79058021
 009186 D201 CDBC 1000 01D4C 00000 11510          MVC   CELL1(LX2),DX0(JA)        GET ENTRY SIZE IN CELL1        79065021
 00918C 4830 CDBC      01D4C       11511        LH    JC,CELL1                  PUT IN REG 3                     79072021
 009190 45E0 FB0E      0915E       11512        BAL   JP,GENF2                  GEN OPERAND ON FILE 2            79079021
 009194 58E0 CD5C      01CEC       11513 GTOPDX L     JP,JPGTOS                                                  79086021
 009198 07FE                       11514        BCR   UNCOND,JP             RETURN                               79093021
                                   11515 *                                                                       79100021
                                   11516        DROP  JJ                                                         79107021
                                   11517        DROP  JH                                                         79114021
1PH1A     IKFCBL10                                                                                              PAGE  232
-  LOC  OBJECT CODE    ADDR1 ADDR2  STMT   SOURCE STATEMENT                                       ASM 0201 11.03 02/14/15
00091A0                            11519 IKF113 CSECT                                                            79128021
                                   11520 * BUILD ROLL TBL AND GENERATE WRITE ROUTINE                             79135021
                             091A0 11521        USING DOROL,JQ                                                   79142021
                             05EA0 11522        USING RDSCAN,JJ                                                  79149021
                             06BB0 11523        USING FLUSH,JH                                                   79156021
                                   11524 *                                                                       79163021
                                   11525 *BUILD ROLL TABLE                                                       79170021
                                   11526 *                                                                       79177021
 0091A0                            11527 DOROL  DS    0H                                                         79184021
 0091A0 50E0 CD08      01C98       11528        ST    JP,JPROLS                                                  79191021
 0091A4 D201 CDBC C14C 01D4C 010DC 11529        MVC   CELL1,HWZERO              SET CELL 1 TO ZERO               79198021
 0091AA 45E0 F0A4      09244       11530 DOROLA BAL   JP,SUMTB1             SUMTB1                               79205021
 0091AE 45E0 B6A8      025C0       11531        BAL   JP,RSTLD              RSTLD                                79212021
                                   11532 *XR JB NOW HAS START OF SUM ENT                                         79219021
 0091B2 9500 2009      00009       11533          CLI   DX9(JB),XX00             S.NAME                          79226021
 0091B6 4780 F02A      091CA       11534        BC    EQ,DOROL1                 NO                               79233021
                                   11535 *GEN LD TXT FOR S.NAME                                                  79240021
 0091BA D202 D42D CCAB 0045D 01C3B 11536          MVC   LD(LX3),SPTLD            06S.                            79247021
 0091C0 D203 D430 200A 00460 0000A 11537          MVC   LD+NX3(LX4),DX10(JB)                                     79254021
 0091C6 47F0 F04A      091EA       11538        BC    UNCOND,DOROL2             PREPARE REST OF LD TXT           79261021
 0091CA                            11539 DOROL1 DS    0H                                                         79268021
 0091CA 5810 C8FC      0188C       11540        L     JA,SNMCON                 SNMTBL TIB                       79275021
 0091CE 5811 0000      00000       11541          L     JA,DX0(JA)                                               79282021
 0091D2 5811 0000      00000       11542          L     JA,DX0(JA)                                               79289021
 0091D6 D201 CD10 200A 01CA0 0000A 11543          MVC   JBSMSV(LX2),DX10(JB)      MOVE SUM NM PTR TO HW          79296021
 0091DC 4840 CD10      01CA0       11544        LH    JD,JBSMSV                                                  79303021
 0091E0 4114 1000      00000       11545          LA    JA,DX0(JD,JA)            JA HAS ADR OF ENT IN RNMTBL     79310021
 0091E4 D21E D42D 1001 0045D 00001 11546          MVC   LD(LX31),DX1(JA)          PUT NAME IN LD                 79317021
 0091EA                            11547 DOROL2 DS    0H                        PREPARE REST OF LD TXT           79324021
 0091EA 9201 D423      00453       11548          MVI   LDLEV,XX01                                               79331021
 0091EE D21E D44C 200E 0047C 0000E 11549          MVC   LP2(LX31),DX14(JB)                                       79338021
 0091F4 D201 D424 2004 00454 00004 11550          MVC   LDCDN(LX2),DX4(JB)        GCN TO LD TEXT                 79345021
 0091FA 922D D426      00456       11551          MVI   LBZ,XX2D                 VAL FC ZERO U COMP-3            79352021
 0091FE 9224 D427      00457       11552          MVI   LOD1,XX24                PIC CL GIVEN BUT SPECIAL        79359021
 009202 9201 D46B      0049B       11553          MVI   LV2,XX01                 VALUE FC ZERO                   79366021
 009206 92F0 D46C      0049C       11554          MVI   LV2+NX1,XXF0                                             79373021
 00920A 50F0 CE48      01DD8       11555        ST    JQ,PSAVE                                                   79380021
 00920E 58F0 C040      00FD0       11556        L     JQ,DATDIV                                                  79387021
                             04D60 11557        USING DDSCN,JQ                                                   79394021
 009212 45E0 F9F6      05756       11558        BAL   JP,RWDUCE                 GENERATE LD TEXT                 79401021
                                   11559        DROP  JQ                                                         79408021
 009216 58F0 CE48      01DD8       11560        L     JQ,PSAVE                                                   79415021
                             091A0 11561        USING DOROL,JQ                                                   79422021
 00921A 9102 D368      00398       11562          TM    SUMSWS,XX02              WAS IT A S.NAME                 79429021
 00921E 4710 F00A      091AA       11563        BC    ONES,DOROLA                YES-DOROLA (NO-SEARCH)          79436021
 009222 D201 CDBE C14C 01D4E 010DC 11564        MVC   CELL2,HWZERO              RESET CELL2 TO ZERO              79443021
 009228 94F7 D368      00398       11565          NI    SUMSW2,XXF7              SET OFF SUMSW2                  79450021
 00922C 45E0 F10A      092AA       11566        BAL   JP,SUMTB2             SUMTBL                               79457021
 009230 45E0 F238      093D8       11567        BAL   JP,SUMTB5             WAS ENTRY MADE IN ROLTBL             79464021
 009234 45E0 F1D0      09370       11568        BAL   JP,SUMTB3             ROLTBL                               79471021
 009238                            11569 DOROL3 DS    0H                                                         79478021
 009238 45E0 F10A      092AA       11570        BAL   JP,SUMTB2             SUMTBL                               79485021
 00923C 45E0 F20A      093AA       11571        BAL   JP,SUMTB4             ROLTBL                               79492021
 009240 47F0 F098      09238       11572        BC    UNCOND,DOROL3         DOROL3                               79499021
                                   11573 *                                                                       79506021
1PH1A     IKFCBL10                                                                                              PAGE  233
-  LOC  OBJECT CODE    ADDR1 ADDR2  STMT   SOURCE STATEMENT                                       ASM 0201 11.03 02/14/15
0                                  11574 * STEP THRU OF SUMTBL LOOKING AT SUM-NAMES.                             79513021
                                   11575 *                                                                       79520021
 009244 9110 D368      00398       11576 SUMTB1   TM    SUMSW1,XX10              END OF TBL                      79527021
 009248 4710 F264      09404       11577        BC    ONES,DOROLX                YES-DOROLX                      79534021
 00924C 5820 C8DC      0186C       11578        L     JB,SUMCON                 SUMTBL TIB                       79541021
 009250 5822 0000      00000       11579          L     JB,DX0(JB)               TAMM                            79548021
 009254 4812 0004      00004       11580          LH    JA,DX4(JB)               DISPL                           79555021
 009258 1211                       11581        LTR   JA,JA                     TBL IS EMPTY                     79562021
 00925A 4780 F264      09404       11582        BC    ZERO,DOROLX                YES-DOROLX                      79569021
 00925E 5822 0000      00000       11583          L     JB,DX0(JB)               START                           79576021
 009262 4122 0000      00000       11584          LA    JB,DX0(JB)               CLEAR FOR ADD                   79583021
 009266 4A20 CDBC      01D4C       11585        AH    JB,CELL1                  ADR OF ENTRY                     79590021
 00926A D501 2000 C14C 00000 010DC 11586          CLC   DX0(LX2,JB),HWZERO        NXT PTR IS 0  LAST ENTRY       79597021
 009270 4770 F0D8      09278       11587        BC    NOTEQ,SUMTAA               NO-SUMTAA                       79604021
 009274 9610 D368      00398       11588          OI    SUMSW1,XX10              SET 'ON' SUMSW1                 79611021
 009278 4810 CDBC      01D4C       11589 SUMTAA LH    JA,CELL1                  GET DISPL                        79618021
 00927C D201 D98C 2000 009BC 00000 11590          MVC   WORKHC(LX2),DX0(JB)        OF NEXT                       79625021
 009282 4A10 D98C      009BC       11591        AH    JA,WORKHC                   ENTRY                          79632021
 009286 4010 CDBC      01D4C       11592        STH   JA,CELL1                     IN TBL                        79639021
 00928A 91FF 2009      00009       11593          TM    DX9(JB),XXFF             IS IT A S.NAME                  79646021
 00928E 4780 F0F8      09298       11594        BC    ZERO,SUMTEX                NO-SUMTEX                       79653021
 009292 9602 D368      00398       11595          OI    SUMSWS,XX02              SET 'ON' SUMSWS                 79660021
 009296 07FE                       11596        BCR   UNCOND,JP                  -RETURN                         79667021
 009298 94FD D368      00398       11597 SUMTEX   NI    SUMSWS,XXFD              SET 'OFF' SUMSWS                79674021
 00929C D202 CDAB 2003 01D3B 00003 11598          MVC   SUMNML(LX3),DX3(JB)       SAVE LEVEL-NUM                 79681021
 0092A2 D201 CDAE 200A 01D3E 0000A 11599          MVC   SUMNM1(LX2),DX10(JB)      SAVE SUM-NAME                  79688021
 0092A8 07FE                       11600        BCR   UNCOND,JP                  -RETURN                         79695021
                                   11601 *                                                                       79702021
                                   11602 *                                                                       79709021
                                   11603 *                                                                       79716021
 0092AA 5820 C8DC      0186C       11604 SUMTB2 L     JB,SUMCON                 SUMTBL TIB                       79723021
 0092AE 5822 0000      00000       11605          L     JB,DX0(JB)               TAMM                            79730021
 0092B2 5822 0000      00000       11606          L     JB,DX0(JB)               START                           79737021
 0092B6 4830 CDBE      01D4E       11607        LH    JC,CELL2                  GET SAVED DISPL                  79744021
 0092BA 4112 3000      00000       11608          LA    JA,DX0(JB,JC)            GET PTR ADR                     79751021
 0092BE 1233                       11609        LTR   JC,JC                     FIRST TIME IN   DISPL IS 0       79758021
 0092C0 4770 F13C      092DC       11610        BC    NOTZER,SUMTBC              NO-SUMTBC                       79765021
 0092C4 D501 1000 C14C 00000 010DC 11611 SUMTBA   CLC   DX0(LX2,JA),HWZERO        LAST ENTRY                     79772021
 0092CA 4770 F132      092D2       11612        BC    NOTEQ,SUMTBB               NO-SUMTBB                       79779021
 0092CE 9608 D368      00398       11613          OI    SUMSW2,XX08              SET 'ON' SUMSW2  LAST-ENTRY     79786021
 0092D2 D203 CDB0 100A 01D40 0000A 11614 SUMTBB   MVC   SUMNM2(LX4),DX10(JA)      SAVE SUM-NAME                  79793021
 0092D8 4111 002B      0002B       11615          LA    JA,DX43(JA)              STEP PTR TO                     79800021
 0092DC 4111 0002      00002       11616 SUMTBC   LA    JA,DX2(JA)                NEXT OPRAND                    79807021
 0092E0 5860 C8F4      01884       11617        L     JF,SMSCON                 SMSTBL TIB                       79814021
 0092E4 5866 0000      00000       11618          L     JF,DX0(JF)               TAMM                            79821021
 0092E8 5866 0000      00000       11619          L     JF,DX0(JF)               TBL                             79828021
 0092EC 4166 0000      00000       11620          LA    JF,DX0(JF)               CLEAR FOR ADD                   79835021
 0092F0 D201 CDC6 1000 01D56 00000 11621          MVC   CTSDSP(LX2),DX0(JA)       GET DISPLACEMENT               79842021
 0092F6 4850 CDC6      01D56       11622        LH    JE,CTSDSP                 GET IN REGISTER                  79849021
 0092FA 4165 6000      00000       11623          LA    JF,DX0(JE,JF)            POINT TO START OF ENTRY         79856021
 0092FE D201 CDC6 6000 01D56 00000 11624          MVC   CTSDSP(LX2),DX0(JF)       GET SIZE                       79863021
 009304 4850 CDC6      01D56       11625        LH    JE,CTSDSP                 GET IN REGISTER                  79870021
 009308 0650                       11626        BCTR  JE,JR                     SUBTRACT 1 FOR COMPARE           79877021
 00930A 4166 0002      00002       11627          LA    JF,DX2(JF)               POINT TO ACTUAL ENTRY           79884021
 00930E 4840 CDAE      01D3E       11628        LH    JD,SUMNM1                 GET PTR TO SUM NAME              79891021
1PH1A     IKFCBL10                                                                                              PAGE  234
-  LOC  OBJECT CODE    ADDR1 ADDR2  STMT   SOURCE STATEMENT                                       ASM 0201 11.03 02/14/15
0009312 5870 C8FC      0188C       11629        L     JG,SNMCON                 SNMTBL TIB                       79898021
 009316 5877 0000      00000       11630          L     JG,DX0(JG)               TAMM                            79905021
 00931A 5877 0000      00000       11631          L     JG,DX0(JG)               TBL                             79912021
 00931E 4177 0000      00000       11632          LA    JG,DX0(JG)               CLEAR FOR ADD                   79919021
 009322 4174 7000      00000       11633          LA    JG,DX0(JD,JG)            POINT TO THIS ENTRY             79926021
 009326 4450 F1CA      0936A       11634        EX    JE,CMPARE                 COMPARE ENTRIES                  79933021
 00932A 4770 F19C      0933C       11635        BC    NOTEQ,SUMTBD               NO-SUMTBD                       79940021
 00932E D201 1000 CD60 00000 01CF0 11636          MVC   DX0(LX2,JA),FFFF          SET OPRAND TO FF               79947021
 009334 1B12                       11637        SR    JA,JB                     CALC DISPL                       79954021
 009336 4010 CDBE      01D4E       11638        STH   JA,CELL2                  SAVE DISPL                       79961021
 00933A 07FE                       11639        BCR   UNCOND,JP                  -RETURN                         79968021
 00933C D501 1000 C14C 00000 010DC 11640 SUMTBD   CLC   DX0(LX2,JA),HWZERO        OPRAND IS 0                    79975021
 009342 4770 F13C      092DC       11641        BC    NOTEQ,SUMTBC               NO-SUMTBC                       79982021
 009346 4111 0002      00002       11642          LA    JA,DX2(JA)               STEP ADR BY 2                   79989021
 00934A 9108 D368      00398       11643          TM    SUMSW2,XX08              SUMSW2 'ON'  LAST ENTRY         79996021
 00934E 4780 F124      092C4       11644        BC    ZERO,SUMTBA                NO-SUMTBA                       80003021
 009352 4830 CDBE      01D4E       11645        LH    JC,CELL2                  WAS AN OPERAND FOUND THAT        80010021
 009356 1233                       11646        LTR   JC,JC                     WAS SAME AS SUM-NAME...          80017021
 009358 4780 F00A      091AA       11647        BC    ZERO,DOROLA               NO..DO NOT PUT LAST 0 OPND       80024021
 00935C D203 CDB0 C598 01D40 01528 11648          MVC   SUMNM2(LX4),BUGCON       MAKE SUMNM2 ZERO                80031021
 009362 45E0 F20A      093AA       11649        BAL   JP,SUMTB4                 -SUMTB4  (PUT LAST 0 OPRAND)     80038021
 009366 47F0 F00A      091AA       11650        BC    UNCOND,DOROLA              -DOROLA                         80045021
                                   11651 *                                                                       80052021
                                   11652 *                                                                       80059021
 00936A D500 6000 7000 00000 00000 11653 CMPARE   CLC   DX0(LX0,JF),DX0(JG)       SMSTBL NM (JF) TO RNMTBL NM    80066021
                                   11654 *                                                                       80073021
 009370 50E0 CD0C      01C9C       11655 SUMTB3 ST    JP,JASMSV                 SAVE LINK REG                    80080021
 009374 5810 C8BC      0184C       11656        L     JA,ROLCON                 ROLTBL TIB                       80087021
 009378 9200 1000      00000       11657          MVI   DX0(JA),XX00             SET TIB N TO 0                  80094021
 00937C 4100 000C      0000C       11658          LA    JR,DX12(JR)               SET REG 0 TO 12                80101021
 009380 4000 CDC2      01D52       11659        STH   JR,CELL3                  SAVE SIZE                        80108021
 009384 58F0 C81C      017AC       11660        L     JQ,ADSERT                 CALL                             80115021
 009388 05EF                       11661        BALR  JP,JQ                     INSERT                           80122021
 00938A 58F0 C01C      00FAC       11662        L     JQ,ADROLL                 RESTORE BASE                     80129021
 00938E D201 2000 C14C 00000 010DC 11663          MVC   DX0(LX2,JB),HWZERO        ZERO NXT-PTR                   80136021
 009394 9604 D368      00398       11664          OI    SUMSW3,XX04              SUMSW3 ON...ROLTBL ENTRY        80143021
 009398 D204 2003 CDAB 00003 01D3B 11665          MVC   DX3(LX5,JB),SUMNML        STORE LEVEL NUM + SUM-NAME     80150021
 00939E D203 2008 CDB0 00008 01D40 11666          MVC   DX8(LX4,JB),SUMNM2        SAVE FOR ROLTBL OPRAND         80157021
 0093A4 58E0 CD0C      01C9C       11667        L     JP,JASMSV                 RESTORE LINK REG                 80164021
 0093A8 07FE                       11668        BCR   UNCOND,JP                  -RETURN                         80171021
                                   11669 *                                                                       80178021
                                   11670 *                                                                       80185021
                                   11671 *                                                                       80192021
 0093AA 50E0 CD0C      01C9C       11672 SUMTB4 ST    JP,JASMSV                 SAVE LINK REG                    80199021
 0093AE 5810 C8BC      0184C       11673        L     JA,ROLCON                 ROLTBL TIB                       80206021
 0093B2 4100 0004      00004       11674          LA    JR,DX4(JR)                SET REG 0 TO SIZE 4            80213021
 0093B6 58F0 C81C      017AC       11675        L     JQ,ADSERT                 CALL                             80220021
 0093BA 05EF                       11676        BALR  JP,JQ                      INSERT                          80227021
 0093BC 58F0 C01C      00FAC       11677        L     JQ,ADROLL                 RESTORE BASE                     80234021
 0093C0 4810 CDC2      01D52       11678        LH    JA,CELL3                  INCREASE                         80241021
 0093C4 4111 0004      00004       11679          LA    JA,DX4(JA)                SAVED SIZE                     80248021
 0093C8 4010 CDC2      01D52       11680        STH   JA,CELL3                    BY 4                           80255021
 0093CC D203 2000 CDB0 00000 01D40 11681          MVC   DX0(LX4,JB),SUMNM2        STORE OPRAND                   80262021
 0093D2 58E0 CD0C      01C9C       11682        L     JP,JASMSV                 RESTORE LINK REG                 80269021
 0093D6 07FE                       11683        BCR   UNCOND,JP             RETURN                               80276021
1PH1A     IKFCBL10                                                                                              PAGE  235
-  LOC  OBJECT CODE    ADDR1 ADDR2  STMT   SOURCE STATEMENT                                       ASM 0201 11.03 02/14/15
0                                  11684 *                                                                       80283021
                                   11685 *                                                                       80290021
                                   11686 *                                                                       80297021
 0093D8 9104 D368      00398       11687 SUMTB5   TM    SUMSW3,XX04              WAS AN ENTRY MADE IN ROLTBL     80304021
 0093DC 078E                       11688        BCR   ZERO,JP                    NO-RETURN                       80311021
 0093DE 5820 C8BC      0184C       11689        L     JB,ROLCON                 ROLTBL TIB                       80318021
 0093E2 5822 0000      00000       11690          L     JB,DX0(JB)               TAMM                            80325021
 0093E6 4832 0004      00004       11691          LH    JC,DX4(JB)               SIZE                            80332021
 0093EA 5822 0000      00000       11692          L     JB,DX0(JB)               START                           80339021
 0093EE 4123 2000      00000       11693          LA    JB,DX0(JC,JB)            END                             80346021
 0093F2 4122 0000      00000       11694          LA    JB,DX0(JB)               CLEAR FOR ADD                   80353021
 0093F6 4830 CDC2      01D52       11695        LH    JC,CELL3                  SIZE OF LAST ENTRY               80360021
 0093FA 1B23                       11696        SR    JB,JC                     START OF LAST ENTRY              80367021
 0093FC D201 2000 CDC2 00000 01D52 11697          MVC   DX0(LX2,JB),CELL3         STORE NXT-PTR IN LAST ENTRY    80374021
 009402 07FE                       11698        BCR   UNCOND,JP                  -RETURN                         80381021
                                   11699 *                                                                       80388021
 009404                            11700 DOROLX DS    0H                                                         80395021
                                   11701 *      GENERATE WRITE ROUTINE                                           80402021
                                   11702 *                                                                       80409021
 009404                            11703 DOWRIT DS    0H                                                         80416021
 009404 9180 D363      00393       11704          TM    CODSW,XX80               CODE CLAUSE SPECIFIED           80423021
 009408 4780 F274      09414       11705        BC    ZERO,DOWR1                NO...BYPASS GEN OF 24            80430021
 00940C 9224 9AEC      0698C       11706          MVI   RDRN,XX24                YES..INDICATE BY GEN OF 24      80437021
 009410 9224 9AF3      06993       11707          MVI   RDRN2,XX24                FOR RCD-NM                     80444021
 009414                            11708 DOWR1  DS    0H                                                         80451021
 009414 94FE D360      00390       11709          NI    SCNDTM,XXFE              RESET                       U00 80458021
 009418 4140 CB4B      01ADB       11710        LA    JD,GNWR                   1ST PART OF WRITE ROUTINE        80465021
 00941C 45E0 F30C      094AC       11711        BAL   JP,DOWR1A                 GO GEN 1ST PART OF WRT-ROUT      80472021
 009420 D201 CCD2 CB4F 01C62 01ADF 11712          MVC   GOGN(LX2),GNWR2          GET GN=NN(LAST PART OF WRT)     80479021
 009426 45E0 B782      0269A       11713        BAL   JP,GNGO                   GEN GO TO GN(LST PRT OF WRT)     80486021
 00942A 45E0 B7EE      02706       11714        BAL   JP,GNPER                  GEN .                            80493021
 00942E 9602 D361      00391       11715          OI    SCNDWR,XX02              TURN ON SWITCH FOR 2ND PART     80500021
 009432 4140 CB4D      01ADD       11716        LA    JD,GNWR1                  2ND PART OF WRITE ROUTINE        80507021
 009436 45E0 F30C      094AC       11717        BAL   JP,DOWR1A                 GO GEN 2ND PART OF WRT-ROUT      80514021
 00943A 9120 D362      00392       11718          TM    PGESW,XX20               PAGE CLAUSE SPECIFIED           80521021
 00943E 4780 F2BA      0945A       11719        BC    ZERO,DWRT11               NO...SKIP                        80528021
                                   11720 *  ROUTINE GENS  MOVE ZERO TO LINE-COUNTER                              80535021
                                   11721 *                                                                       80542021
 009442 45E0 9A30      068D0       11722        BAL   JP,GNMZT                  GEN MOVE ZERO TO                 80549021
 009446 45E0 B7BE      026D6       11723        BAL   JP,GNRPN                  GEN RPT-NM                       80556021
 00944A 45E0 B7CE      026E6       11724        BAL   JP,GNLCTR                 GEN LINE-CTR                     80563021
 00944E 45E0 9A56      068F6       11725        BAL   JP,GNA1T                  GEN ADD ONE TO                   80570021
 009452 45E0 B7BE      026D6       11726        BAL   JP,GNRPN                  GEN RPT-NM                       80577021
 009456 45E0 B7D6      026EE       11727        BAL   JP,GNPCTR                 GEN PAGE-COUNTER                 80584021
 00945A                            11728 DWRT11 DS    0H                                                         80591021
 00945A D201 CCC4 CB4F 01C54 01ADF 11729          MVC   GPTID1(LX2),GNWR2        GEN GN=NN (LAST PART OF WRT)    80598021
 009460 4160 CCC3      01C53       11730        LA    JF,GPTID                                                   80605021
 009464 45E0 B684      0259C       11731        BAL   JP,GENB               GEN NAME                             80612021
 009468 9223 9AEC      0698C       11732          MVI   RDRN,XX23                RESET TO 23                     80619021
 00946C 9223 9AF3      06993       11733          MVI   RDRN2,XX23                FOR BOTH FILES                 80626021
 009470 94FD D361      00391       11734          NI    SCNDWR,XXFD              TURN OFF 2ND-WRT SWITCH         80633021
 009474 94FD D360      00390       11735          NI    SCNDFD,XXFD              TURN OFF 2ND-FILE SWITCH        80640021
 009478 4130 A38C      02F7C       11736        LA    JC,SPCCON                 GEN MOVE                         80647021
 00947C 45E0 9A62      06902       11737        BAL   JP,GNMNT                      SPACE TO                     80654021
 009480 4130 9C62      06B02       11738        LA    JC,CTCON                  GEN CTC.CHR                      80661021
1PH1A     IKFCBL10                                                                                              PAGE  236
-  LOC  OBJECT CODE    ADDR1 ADDR2  STMT   SOURCE STATEMENT                                       ASM 0201 11.03 02/14/15
0009484 45E0 B7FE      02716       11739        BAL   JP,GNXPX              GEN RPT NME                          80668021
 009488 4130 9C7C      06B1C       11740        LA    JC,RPLCON                 GEN RPT.LIN                      80675021
 00948C 45E0 B7FE      02716       11741        BAL   JP,GNXPX              GEN RPT NME                          80682021
 009490 45E0 9A30      068D0       11742        BAL   JP,GNMZT                  GEN MOVE ZERO TO                 80689021
 009494 4130 9C10      06AB0       11743        LA    JC,LNMCON                 GEN                              80696021
 009498 45E0 B7FE      02716       11744        BAL   JP,GNXPX                      LINE.NUMBER                  80703021
 00949C 4160 CB39      01AC9       11745        LA    JF,RRTN4                  GEN RPT-RETURN-4                 80710021
 0094A0 45E0 B684      0259C       11746        BAL   JP,GENB               GEN NAME                             80717021
 0094A4 45E0 B7EE      02706       11747        BAL   JP,GNPER                  GEN .                            80724021
 0094A8 47F0 F40C      095AC       11748        BC    UNCOND,DOWRXT             GO EXIT                          80731021
                                   11749 *                                                                       80738021
 0094AC                            11750 DOWR1A DS    0H                                                         80745021
 0094AC 50E0 DBBC      00BEC       11751        ST    JP,JPINSV                                                  80752021
 0094B0 4150 CB7E      01B0E       11752        LA    JE,WRCOD                  GEN WRT PAR NAME                 80759021
 0094B4 45E0 BABC      029D4       11753        BAL   JP,GNPAR                   AND GN=NN                       80766021
 0094B8 4160 CB2D      01ABD       11754        LA    JF,RSVE4                  GEN RPT-SAVE-4                   80773021
 0094BC 45E0 B684      0259C       11755        BAL   JP,GENB               GEN NAME                             80780021
 0094C0 4140 0001      00001       11756          LA    JD,DX1                   EXECUTE DOWR2A-ROUT ONCE        80787021
 0094C4 9102 D360      00390       11757          TM    SCNDFD,XX02              2ND RCD-NAME SPECIFIED          80794021
 0094C8 4780 F330      094D0       11758        BC    ZERO,DOWR2A               NO                               80801021
 0094CC 4140 0002      00002       11759          LA    JD,DX2                   YES..EXECUTE ROUT TWICE         80808021
 0094D0                            11760 DOWR2A DS    0H                                                         80815021
 0094D0 45E0 F346      094E6       11761        BAL   JP,DOWRT                  GO GEN WRITE,ETC                 80822021
 0094D4 9601 D360      00390       11762          OI    SCNDTM,XX01              TURN ON 2ND TIME THRU           80829021
 0094D8 4640 F330      094D0       11763        BCT   JD,DOWR2A                 EXECUTE EITHER ONCE OR TWICE     80836021
 0094DC 94FE D360      00390       11764          NI    SCNDTM,XXFE              RESET 2ND-TIME SWITCH           80843021
 0094E0 58E0 DBBC      00BEC       11765        L     JP,JPINSV                 RETURN                           80850021
 0094E4 07FE                       11766        BCR   UNCOND,JP             RETURN                               80857021
 0094E6                            11767 DOWRT  DS    0H                                                         80864021
 0094E6 50E0 DD34      00D64       11768        ST    JP,JPCLRS                                                  80871021
 0094EA 4170 9AAD      0694D       11769        LA    JG,RDFLN1                 CHECK FOR RERUN REPORT           80878021
 0094EE 9101 D360      00390       11770          TM    SCNDTM,XX01              2ND TIME THRU                   80885021
 0094F2 4780 F35A      094FA       11771        BC    ZERO,DWRT10               NO...CHECK 1ST FILE              80892021
 0094F6 4170 9ACD      0696D       11772        LA    JG,RDFLN2                 YES..CHECK 2ND FILE              80899021
 0094FA                            11773 DWRT10 DS    0H                                                         80906021
 0094FA 5040 CD6C      01CFC       11774        ST    JD,SPTRA                  SAVE JD                          80913021
 0094FE 45E0 B5B8      024D0       11775        BAL   JP,SCHFNT                 FNTBL SEARCH                     80920021
 009502 5840 CD6C      01CFC       11776        L     JD,SPTRA                  RESTORE JD                       80927021
 009506 4160 A3EC      02FDC       11777        LA    JF,WRCON                  NORMAL WRITE CON                 80934021
 00950A 9140 D34D      0037D       11778          TM    SCHSW,XX40               NAME FOUND                      80941021
 00950E 4780 F396      09536       11779        BC    ZERO,DWRT20               NO...GEN NORMAL WRITE            80948021
 009512 4822 0000      00000       11780          LH    JB,DX0(JB)               DISPL OF ENTRY IN PIO           80955021
 009516 5850 C84C      017DC       11781        L     JE,PIOCON                 PIO TIB                          80962021
 00951A 5855 0000      00000       11782          L     JE,DX0(JE)               TAMM                            80969021
 00951E 5855 0000      00000       11783          L     JE,DX0(JE)               TBL                             80976021
 009522 4152 5000      00000       11784          LA    JE,DX0(JB,JE)            POINT TO ENTRY                  80983021
 009526 4160 A3EC      02FDC       11785        LA    JF,WRCON                  GEN WRITE                        80990021
 00952A 9180 5001      00001       11786          TM    DX1(JE),XX80             RERUN BIT ON                    80997021
 00952E 4780 F396      09536       11787        BC    ZERO,DWRT20               NO...GEN NORMAL WRITE            81004021
 009532 4160 CD28      01CB8       11788        LA    JF,WRITER                 YES..GEN RERUN WRITE             81011021
 009536                            11789 DWRT20 DS    0H                                                         81018021
 009536 45E0 B684      0259C       11790        BAL   JP,GENB               GEN NAME                             81025021
 00953A 4160 9AAC      0694C       11791        LA    JF,RDFLN                  GEN FILE-NM-1                    81032021
 00953E 9101 D360      00390       11792          TM    SCNDTM,XX01              2ND TIME THRU                   81039021
 009542 4780 F3AA      0954A       11793        BC    ZERO,DOWRT1               NO...GEN FILE-NM-1               81046021
1PH1A     IKFCBL10                                                                                              PAGE  237
-  LOC  OBJECT CODE    ADDR1 ADDR2  STMT   SOURCE STATEMENT                                       ASM 0201 11.03 02/14/15
0009546 4160 9ACC      0696C       11794        LA    JF,RDFL2                  YES..GEN FILE-NM-2               81053021
 00954A 45E0 B684      0259C       11795 DOWRT1 BAL   JP,GENB               GEN NAME                             81060021
 00954E 4160 9AEC      0698C       11796        LA    JF,RDRN                   GEN RCD-NM-1                     81067021
 009552 9101 D360      00390       11797          TM    SCNDTM,XX01              2ND TIME THRU                   81074021
 009556 4780 F3BE      0955E       11798        BC    ZERO,DOWRT2               NO...GEN RCD-NM-1                81081021
 00955A 4160 9AF3      06993       11799        LA    JF,RDRN2                  YES..GEN RCD-NM-2                81088021
 00955E 45E0 B684      0259C       11800 DOWRT2 BAL   JP,GENB               GEN NAME                             81095021
 009562 4160 A185      02D75       11801        LA    JF,FROMCN                 GEN FROM                         81102021
 009566 45E0 B684      0259C       11802        BAL   JP,GENB               GEN NAME                             81109021
 00956A 4130 9C31      06AD1       11803        LA    JC,RPCON                  GEN RPT.RCD                      81116021
 00956E 45E0 B7FE      02716       11804        BAL   JP,GNXPX              GEN RPT NME                          81123021
 009572 4160 A274      02E64       11805        LA    JF,AFTCON                 GEN AFTER                        81130021
 009576 45E0 B684      0259C       11806        BAL   JP,GENB               GEN NAME                             81137021
 00957A 4160 A7CA      033BA       11807        LA    JF,ADVCON                 GEN ADVANCING                    81144021
 00957E 45E0 B684      0259C       11808        BAL   JP,GENB               GEN NAME                             81151021
 009582 9102 D361      00391       11809          TM    SCNDWR,XX02              2ND PART OF WRITE ROUT          81158021
 009586 4780 F3F6      09596       11810        BC    ZERO,DOWRT3               NO...GEN LINE.NUMBER             81165021
 00958A 4160 A08E      02C7E       11811        LA    JF,C01CON                 YES..GEN C01                     81172021
 00958E 45E0 B684      0259C       11812        BAL   JP,GENB                   GEN C01                          81179021
 009592 47F0 F3FE      0959E       11813        BC    UNCOND,DOWRT4             GO EXIT                          81186021
 009596                            11814 DOWRT3 DS    0H                                                         81193021
 009596 4130 9C10      06AB0       11815        LA    JC,LNMCON                 GEN                              81200021
 00959A 45E0 B7FE      02716       11816        BAL   JP,GNXPX                      LINE.NUMBER                  81207021
 00959E                            11817 DOWRT4 DS    0H                                                         81214021
 00959E 4160 A1AF      02D9F       11818        LA    JF,LINCON                 GEN LINES                        81221021
 0095A2 45E0 B684      0259C       11819        BAL   JP,GENB               GEN NAME                             81228021
 0095A6 58E0 DD34      00D64       11820        L     JP,JPCLRS                                                  81235021
 0095AA 07FE                       11821        BCR   UNCOND,JP             RETURN                               81242021
                                   11822 *                                                                       81249021
                                   11823 *   EXIT FROM CSECT                                                     81256021
                                   11824 *                                                                       81263021
 0095AC                            11825 DOWRXT DS    0H                                                         81270021
 0095AC 58E0 CD08      01C98       11826        L     JP,JPROLS                                                  81277021
 0095B0 07FE                       11827        BCR   UNCOND,JP             RETURN                               81284021
                                   11828 *                                                                       81291021
                                   11829        DROP  JJ                                                         81298021
                                   11830        DROP  JH                                                         81305021
1PH1A     IKFCBL10                                                                                              PAGE  238
-  LOC  OBJECT CODE    ADDR1 ADDR2  STMT   SOURCE STATEMENT                                       ASM 0201 11.03 02/14/15
00095B8                            11832 IKF114 CSECT                                                            81319021
                                   11833 *=1    ENVIRONMENT DIVISION SCAN                                        81326021
                             095B8 11834        USING ENVSCN,JQ                                                  81333021
                             0A330 11835        USING APPSCN,JJ                                                  81340021
                                   11836 *                                                                       81347021
                                   11837 ************************************                                    81354021
                                   11838 ******    ENVIRONMENT SCAN    ******                                    81361021
                                   11839 ************************************                                    81368021
 0095B8 920E D375      003A5       11840 ENVSCN   MVI   DIVCOD,XX0E               SET DIVCOD TO '0E'             81375021
 0095BC 9110 D35A      0038A       11841          TM    PRIDSW,XX10          WAS PROG-ID FOUND                   81382021
 0095C0 4710 F010      095C8       11842          BC    ONES,ENVSA          YES                                  81389021
 0095C4 9610 D35A      0038A       11843          OI    PRIDSW,XX10          SET SWITCH ON                       81396021
                             095C8 11844 ENVSA    EQU   *                                                        81403021
 0095C8 45E0 B03A      01F52       11845        BAL   JP,CHKDIV                  -CHKDIV                         81410021
 0095CC 45E0 ACB4      038A4       11846        BAL   JP,GETDLM                  -GETDLM                         81417021
                                   11847 *                                                                       81424021
 0095D0 9101 D34C      0037C       11848 ENVSB    TM    CFGSW,XX01                CFGSW 'ON'                     81431021
 0095D4 4710 F170      09728       11849        BC    ONES,ENVSI                  YES-ENVSI                      81438021
 0095D8 9542 C6E4      01674       11850          CLI   CURCOD,XX42               '42' WORD                      81445021
 0095DC 4770 F170      09728       11851        BC    NOTEQ,ENVSI                 NO-ENVSI                       81452021
 0095E0 95F5 C6E5      01675       11852          CLI   CURN,XXF5                 CONFIGURATION                  81459021
 0095E4 4770 F044      095FC       11853        BC    NOTEQ,ENVSD                 NO-ENVSD                       81466021
 0095E8 45E0 B066      01F7E       11854        BAL   JP,CHKSCT                  -CHKSCT                         81473021
 0095EC 9601 D34C      0037C       11855          OI    CFGSW,XX01                SET 'ON' CFGSW                 81480021
 0095F0 45E0 ACB4      038A4       11856 ENVSC  BAL   JP,GETDLM                  -GETDLM                         81487021
 0095F4 9542 C6E4      01674       11857 ENVSC1   CLI   CURCOD,XX42               '42' WORD                      81494021
 0095F8 4770 F170      09728       11858        BC    NOTEQ,ENVSI                 NO-ENVSI                       81501021
 0095FC 95F6 C6E5      01675       11859 ENVSD    CLI   CURN,XXF6                 SOURCE-COMPUTER                81508021
 009600 4770 F054      0960C       11860        BC    NOTEQ,ENVSE                 NO-ENVSE                       81515021
 009604 9680 D350      00380       11861          OI    SOCMSW,XX80               SET 'ON' SOCMSW                81522021
 009608 47F0 F060      09618       11862        BC    UNCOND,ENVSF                -ENVSF                         81529021
 00960C 95F7 C6E5      01675       11863 ENVSE    CLI   CURN,XXF7                 OBJECT-COMPUTER                81536021
 009610 4770 F12C      096E4       11864        BC    NOTEQ,ENVSG                 NO-ENVSG                       81543021
 009614 947F D350      00380       11865          NI    SOCMSW,XX7F               SET 'OFF' SOCMSW               81550021
 009618 45E0 B074      01F8C       11866 ENVSF  BAL   JP,CHKPAR                  -CHKPAR                         81557021
 00961C 45E0 B0EA      02002       11867        BAL   JP,CHKCFG                  -CHKCFG                         81564021
 009620 45E0 B2B2      021CA       11868        BAL   JP,CPYCUR             CPYCUR                               81571021
                             09624 11869 SOCSCN EQU   *                                                          81578021
 009624 9523 C6E4      01674       11870 SOCBCD   CLI   CURCOD,XX23               BCD-NAME                       81585021
 009628 4770 F038      095F0       11871        BC    NOTEQ,ENVSC                 NO-ENVSC                       81592021
 00962C 9180 D350      00380       11872          TM    SOCMSW,XX80              SOURCE-COMPUTER                 81599021
 009630 4710 F124      096DC       11873        BO    SOCEOS                    YES                              81606021
 009634 D501 C79A A4A8 0172A 03098 11874          CLC   NXTCOD(LX2),MEMCON        BYPASS                         81613021
 00963A 4770 F0C6      0967E       11875        BNE   SEGLCK                       MEMORD                        81620021
 00963E 45E0 B000      01F18       11876        BAL   JP,GETWD                       GARBAGE                     81627021
 009642 D501 C79A A211 0172A 02E01 11877          CLC   NXTCOD(LX2),SIZECN              *                        81634021
 009648 4770 F098      09650       11878        BNE   CKMINT                           *                         81641021
 00964C 45E0 B000      01F18       11879        BAL   JP,GETWD                         *                         81648021
 009650 9532 C79A      0172A       11880 CKMINT   CLI   NXTCOD,XX32                     *                        81655021
 009654 4770 F0CE      09686       11881        BNE   OBJMSG                           *                         81662021
 009658 45E0 B000      01F18       11882        BAL   JP,GETWD                         *                         81669021
 00965C D501 C79A A8A4 0172A 03494 11883          CLC   NXTCOD(LX2),CHARCN              *                        81676021
 009662 4780 F0C2      0967A       11884        BE    SEGLC1                           *                         81683021
 009666 D501 C79A A3E4 0172A 02FD4 11885          CLC   NXTCOD(LX2),WRDCON              *                        81690021
 00966C 4780 F0C2      0967A       11886        BE    SEGLC1                           *                         81697021
1PH1A     IKFCBL10                                                                                              PAGE  239
-  LOC  OBJECT CODE    ADDR1 ADDR2  STMT   SOURCE STATEMENT                                       ASM 0201 11.03 02/14/15
0009670 D501 C79A A60E 0172A 031FE 11887          CLC   NXTCOD(LX2),MODCON              *                        81704021
 009676 4770 F0CE      09686       11888        BNE   OBJMSG                           *                         81711021
 00967A 45E0 B000      01F18       11889 SEGLC1 BAL   JP,GETWD                         *                         81718021
 00967E 45E0 B000      01F18       11890 SEGLCK BAL   JP,GETWD                         *                         81725021
 009682 47F0 F0D6      0968E       11891        B     SGLCUR                           *                         81732021
 009686                            11892 OBJMSG DS    0H                                                         81739021
 009686 45E0 DD1C      00D4C       11893        BAL   JP,MSG180                  INVALID COMMENT                 81746021
 00968A 45E0 ACDE      038CE       11894        BAL   JP,SKIPGT             SKIPGT                               81753021
 00968E                            11895 SGLCUR DS    0H                                                         81760021
 00968E D501 C6E4 AB1A 01674 0370A 11896          CLC   CURCOD(LX2),SEGTCN       SEGMENT-LIMIT                   81767021
 009694 4770 F038      095F0       11897        BNE   ENVSC                     NO                               81774021
 009698 45E0 B18E      020A6       11898        BAL   JP,CHKIS              CHECK FOR 'IS'                       81781021
 00969C 45E0 B000      01F18       11899        BAL   JP,GETWD              GET WORD                             81788021
 0096A0 9532 C6E4      01674       11900          CLI   CURCOD,XX32              NUMLIT                          81795021
 0096A4 4770 F11C      096D4       11901        BNE   SOCSN1                    NO                               81802021
 0096A8 9502 C6E6      01676       11902          CLI   CURN+NX1,XX02            LENGTH OF 2                     81809021
 0096AC 4720 F11C      096D4       11903        BH    SOCSN1                    NO                               81816021
 0096B0 45E0 B528      02440       11904        BAL   JP,CNVBIN             CONVERT TO BINARY                    81823021
 0096B4 4920 C14E      010DE       11905        CH    JB,HWONE                  LESS THAN 1                      81830021
 0096B8 4740 F11C      096D4       11906        BL    SOCSN1                    YES                              81837021
 0096BC 4920 C160      010F0       11907          CH    JB,HW49                 CREAT 49                         81844021
 0096C0 4720 F11C      096D4       11908        BH    SOCSN1                SOCSN1                               81851021
 0096C4 5810 C814      017A4       11909        L     JA,COSADR                                                  81858021
 0096C8 4220 11D0      001D0       11910        STC   JB,SEGLMT                 STORE SEGT-LMT                   81865021
 0096CC 45E0 ACDE      038CE       11911        BAL   JP,SKIPGT             SKIPGT                               81872021
 0096D0 47F0 F03C      095F4       11912        B     ENVSC1                IS CURCOD '42'                       81879021
 0096D4 45E0 DC9C      00CCC       11913 SOCSN1 BAL   JP,MSG148             ERROR                                81886021
 0096D8 47F0 F038      095F0       11914        B     ENVSC                 GET DELIMITER                        81893021
 0096DC 45E0 B0A8      01FC0       11915 SOCEOS BAL   JP,CHKEOS                  -CHKEOS                         81900021
 0096E0 47F0 F038      095F0       11916        BC    UNCOND,ENVSC                -ENVSC                         81907021
                                   11917 *                                                                       81914021
 0096E4 95FB C6E5      01675       11918 ENVSG    CLI   CURN,XXFB                 SPECIAL-NAMES                  81921021
 0096E8 4770 F15C      09714       11919        BC    NOTEQ,ENVSH                 NO-ENVSH                       81928021
 0096EC 45E0 B074      01F8C       11920        BAL   JP,CHKPAR                  -CHKPAR                         81935021
 0096F0 45E0 B0EA      02002       11921        BAL   JP,CHKCFG                  -CHKCFG                         81942021
 0096F4 45E0 B2B2      021CA       11922        BAL   JP,CPYCUR                  -CPYCUR                         81949021
 0096F8 9544 C6E4      01674       11923        CLI   CURCOD,XX44               44-WORD?                         81956021
 0096FC 4770 F150      09708       11924        BC    NOTEQ,INSPNM              NO - INSPNM                      81963021
 009700 95F4 C6E5      01675       11925        CLI   CURN,XXF4                 APPLY?                           81970021
 009704 4780 F250      09808       11926        BC    EQ,MSGAPY                 YES - MSGAPY                     81977021
 009708 45E0 F3A6      0995E       11927 INSPNM BAL   JP,SPNSCN                 - SPNSCN                         81984021
 00970C 45E0 B0B4      01FCC       11928        BAL   JP,EOSTST                  -EOSTST                         81991021
 009710 47F0 F038      095F0       11929        BC    UNCOND,ENVSC                -ENVSC                         81998021
                                   11930 *                                                                       82005021
 009714 95F5 C6E5      01675       11931 ENVSH    CLI   CURN,XXF5                 CONFIGURATION                  82012021
 009718 4770 F170      09728       11932        BC    NOTEQ,ENVSI                 NO-ENVSI                       82019021
 00971C 45E0 DB00      00B30       11933        BAL   JP,MSG45                   -MSG45                          82026021
 009720 45E0 ACDE      038CE       11934        BAL   JP,SKIPGT                  -SKIPGT                         82033021
 009724 47F0 F03C      095F4       11935        BC    UNCOND,ENVSC1               -ENVSC1                        82040021
                                   11936 *                                                                       82047021
 009728 9180 D34D      0037D       11937 ENVSI    TM    IOSW,XX80                 IOSW 'ON'                      82054021
 00972C 4710 F37E      09936       11938        BC    ONES,ENVSZB                 YES-ENVSZB                     82061021
 009730 9542 C6E4      01674       11939          CLI   CURCOD,XX42               '42' WORD                      82068021
 009734 4770 F1C8      09780       11940        BC    NOTEQ,ENVSN                 NO-ENVSN                       82075021
 009738 95F8 C6E5      01675       11941          CLI   CURN,XXF8                 INPUT-OUTPUT                   82082021
1PH1A     IKFCBL10                                                                                              PAGE  240
-  LOC  OBJECT CODE    ADDR1 ADDR2  STMT   SOURCE STATEMENT                                       ASM 0201 11.03 02/14/15
000973C 4770 F19C      09754       11942        BC    NOTEQ,ENVSJ                 NO-ENVSJ                       82089021
 009740 45E0 B066      01F7E       11943        BAL   JP,CHKSCT                  -CHKSCT                         82096021
 009744 9680 D34D      0037D       11944          OI    IOSW,XX80                 SET 'ON' IOSW                  82103021
 009748 45E0 ACB4      038A4       11945        BAL   JP,GETDLM                  -GETDLM                         82110021
 00974C 9542 C6E4      01674       11946 ENVSI1 CLI   CURCOD,XX42                 '42' WORD?                     82117021
 009750 4770 F1C8      09780       11947        BC    NOTEQ,ENVSN                 NO-ENVSN                       82124021
 009754 95F9 C6E5      01675       11948 ENVSJ    CLI   CURN,XXF9                 FILE-CONTROL                   82131021
 009758 4770 F1C8      09780       11949        BC    NOTEQ,ENVSN                 NO-ENVSN                       82138021
 00975C 45E0 B074      01F8C       11950        BAL   JP,CHKPAR                  -CHKPAR                         82145021
 009760 45E0 B2B2      021CA       11951        BAL   JP,CPYCUR                  -CPYCUR                         82152021
 009764 45E0 B12A      02042       11952 ENVSK  BAL   JP,CHKIO                   -CHKIO                          82159021
 009768 45E0 ACB4      038A4       11953 ENVSL  BAL   JP,GETDLM                  -GETDLM                         82166021
 00976C 9544 C6E4      01674       11954 ENVSM    CLI   CURCOD,XX44               '44' WORD                      82173021
 009770 4770 F1E0      09798       11955        BC    NOTEQ,ENVSO                 NO-ENVSO                       82180021
 009774 95F1 C6E5      01675       11956          CLI   CURN,XXF1                 SELECT                         82187021
 009778 4780 F560      09B18       11957        BC    EQ,SELSCN                   YES-SELSCN                     82194021
 00977C 47F0 F1E0      09798       11958        BC    UNCOND,ENVSO                -ENVSO                         82201021
                                   11959 *                                                                       82208021
 009780 9544 C6E4      01674       11960 ENVSN    CLI   CURCOD,XX44               '44' WORD                      82215021
 009784 4770 F1E0      09798       11961        BC    NOTEQ,ENVSO                 NO-ENVSO                       82222021
 009788 95F1 C6E5      01675       11962          CLI   CURN,XXF1                 SELECT                         82229021
 00978C 4770 F1E0      09798       11963        BC    NOTEQ,ENVSO                 NO-ENVSO                       82236021
 009790 45E0 B10A      02022       11964        BAL   JP,CHKFC                   -CHKFC                          82243021
 009794 47F0 F1AC      09764       11965        BC    UNCOND,ENVSK                -ENVSK                         82250021
                                   11966 *                                                                       82257021
 009798 9542 C6E4      01674       11967 ENVSO    CLI   CURCOD,XX42               '42' WORD                      82264021
 00979C 4770 F204      097BC       11968        BC    NOTEQ,ENVSP                 NO-ENVSP                       82271021
 0097A0 95F8 C6E5      01675       11969          CLI   CURN,XXF8                 INPUT-OUTPUT                   82278021
 0097A4 4780 F1F8      097B0       11970        BC    EQ,ENVS01                   YES-ENVS01                     82285021
 0097A8 95F9 C6E5      01675       11971          CLI   CURN,XXF9                 FILE-CONTROL                   82292021
 0097AC 4770 F204      097BC       11972        BC    NOTEQ,ENVSP                 NO-ENVSP                       82299021
 0097B0 45E0 DB00      00B30       11973 ENVS01 BAL   JP,MSG45                   -MSG45                          82306021
 0097B4 45E0 ACDE      038CE       11974        BAL   JP,SKIPGT                  -SKIPGT                         82313021
 0097B8 47F0 F1C8      09780       11975        BC    UNCOND,ENVSN                -ENVSN                         82320021
                                   11976 *                                                                       82327021
 0097BC 9140 D353      00383       11977 ENVSP    TM    IOCSW,XX40                IOCSW 'ON'                     82334021
 0097C0 4780 F218      097D0       11978        BC    ZERO,ENVSR                  NO-ENVSR                       82341021
 0097C4 45E0 DA60      00A90       11979        BAL   JP,MSG5                    -MSG5                           82348021
 0097C8 45E0 ACDE      038CE       11980 ENVSQ  BAL   JP,SKIPGT                  -SKIPGT                         82355021
 0097CC 47F0 F210      097C8       11981        BC    UNCOND,ENVSQ                -ENVSQ                         82362021
                                   11982 *                                                                       82369021
 0097D0 9542 C6E4      01674       11983 ENVSR    CLI   CURCOD,XX42               '42' WORD                      82376021
 0097D4 4770 F228      097E0       11984        BC    NOTEQ,ENVST                 NO-ENVST                       82383021
 0097D8 95FA C6E5      01675       11985          CLI   CURN,XXFA                 I-O-CONTROL                    82390021
 0097DC 4780 F2C0      09878       11986        BC    EQ,ENVSU                    YES-ENVSU                      82397021
 0097E0 9544 C6E4      01674       11987 ENVST  CLI   CURCOD,XX44               '44' WORD?                       82404021
 0097E4 4770 F2B4      0986C       11988        BC    NOTEQ,NOMSG               NO - NOMSG                       82411021
 0097E8 95F4 C6E5      01675       11989        CLI   CURN,XXF4                 APPLY?                           82418021
 0097EC 4770 F2B4      0986C       11990        BC    NOTEQ,NOMSG               NO - NOMSG                       82425021
 0097F0 D50C D397 C61D 003C7 015AD 11991        CLC   SECTNM(LX13),INOT12       12INPUT-OUTPUT                   82432021
 0097F6 4770 F250      09808       11992        BC    NOTEQ,MSGAPY              NO - MSGAPY                      82439021
 0097FA D50B D3B7 C62A 003E7 015BA 11993        CLC   PARNM(LX12),IOCT11        11I-O-CONTROL                    82446021
 009800 4770 F250      09808       11994        BC    NOTEQ,MSGAPY              NO - MSGAPY                      82453021
 009804 47F0 F2B4      0986C       11995        BC    UNCOND,NOMSG              - NOMSG                          82460021
 009808 D21E D3D7 C6C2 00407 01652 11996 MSGAPY MVC   CLSNM(LX31),CURCNT        SAVE CLAUSE NAME                 82467021
1PH1A     IKFCBL10                                                                                              PAGE  241
-  LOC  OBJECT CODE    ADDR1 ADDR2  STMT   SOURCE STATEMENT                                       ASM 0201 11.03 02/14/15
000980E 45E0 DB20      00B50       11997        BAL   JP,MSG53                  MSG APPLY CLAUSE INVALID         82474021
 009812 45E0 B000      01F18       11998 ENDAPY BAL   JP,GETWD                  GET WORD                         82481021
 009816 9130 C6E4      01674       11999        TM    CURCOD,XX30               MAJOR IS ZERO?                   82488021
 00981A 4780 F26A      09822       12000        BZ    ENVSB1                    YES - ENVSB1                     82495021
 00981E 47F0 F25A      09812       12001        B     ENDAPY                    - ENDAPY                         82502021
 009822 45E0 ACB4      038A4       12002 ENVSB1 BAL   JP,GETDLM                 - GETDLM                         82509021
 009826 D50D D397 C5EB 003C7 0157B 12003        CLC   SECTNM(LX14),CFG13        CONFIGURATION SECTION?           82516021
 00982C 4780 F286      0983E       12004        BC    EQ,CONFIG                 YES - CONFIG                     82523021
 009830 D50C D397 C61D 003C7 015AD 12005        CLC   SECTNM(LX13),INOT12       INPUT-OUTPUT SECTION?            82530021
 009836 4780 F29C      09854       12006        BC    EQ,IOPUT                  YES - IOPUT                      82537021
 00983A 47F0 F018      095D0       12007        B     ENVSB                     - ENVSB                          82544021
 00983E D50D D3B7 C63D 003E7 015CD 12008 CONFIG CLC   PARNM(LX14),SPNM13        SPECIAL-NAMES SECTION?           82551021
 009844 4770 F03C      095F4       12009        BC    NOTEQ,ENVSC1              NO - ENVSC1                      82558021
 009848 9542 C6E4      01674       12010        CLI   CURCOD,XX42               42 WORD?                         82565021
 00984C 4770 F150      09708       12011        BC    NOTEQ,INSPNM              NO - INSPNM                      82572021
 009850 47F0 F038      095F0       12012        B     ENVSC                     - ENVSC                          82579021
 009854 D50B D3B7 C62A 003E7 015BA 12013 IOPUT  CLC   PARNM(LX12),IOCT11        I-O-CONTROL PARAGRAPH?           82586021
 00985A 4780 F2D8      09890       12014        BC    EQ,ENVSW1                 YES - ENVSW1                     82593021
 00985E D50C D3B7 C610 003E7 015A0 12015        CLC   PARNM(LX13),FCTL12        FILE-CONTROL PARAGRAPH?          82600021
 009864 4780 F1B4      0976C       12016        BC    EQ,ENVSM                  YES - ENVSM                      82607021
 009868 47F0 F194      0974C       12017        B     ENVSI1                    - ENVSI1                         82614021
 00986C 45E0 F304      098BC       12018 NOMSG  BAL   JP,ENVSX                  - ENVSX                          82621021
 009870 45E0 B14A      02062       12019        BAL   JP,CHKIOC                  -CHKIOC                         82628021
 009874 47F0 F2D0      09888       12020        BC    UNCOND,ENVSV                -ENVSV                         82635021
 009878 9244 A745      03335       12021 ENVSU    MVI   MULCON,XX44               CHANGE MULTIPLE TO A VERB      82642021
 00987C 45E0 B074      01F8C       12022        BAL   JP,CHKPAR                  SAVE PARA NM & GETWD            82649021
 009880 9640 D353      00383       12023          OI    IOCSW,XX40                SET 'ON' IOCSW                 82656021
 009884 45E0 B2B2      021CA       12024        BAL   JP,CPYCUR                  -CPYCUR                         82663021
 009888 45E0 B12A      02042       12025 ENVSV  BAL   JP,CHKIO                   -CHKIO                          82670021
 00988C 45E0 ACB4      038A4       12026 ENVSW  BAL   JP,GETDLM                  -GETDLM                         82677021
 009890 9544 C6E4      01674       12027 ENVSW1 CLI   CURCOD,XX44               44-WORD?                         82684021
 009894 4770 F326      098DE       12028        BC    NOTEQ,ENVSY                 NO-ENVSY                       82691021
 009898 95F4 C6E5      01675       12029          CLI   CURN,XXF4                 APPLY                          82698021
 00989C 4780 9000      0A330       12030        BC    EQ,APPSCN                   YES-APPSCN                     82705021
 0098A0 95F2 C6E5      01675       12031          CLI   CURN,XXF2                 RERUN HIT ?                    82712021
 0098A4 4780 92BE      0A5EE       12032        BE    RRNSCN                     YES - SCAN IT                   82719021
 0098A8 95F3 C6E5      01675       12033          CLI   CURN,XXF3                 SAME                           82726021
 0098AC 4780 9494      0A7C4       12034        BC    EQ,SMESCN                   YES-SMESCN                     82733021
 0098B0 95AD C6E5      01675       12035          CLI   CURN,XXAD                 MULTIPLE HIT ?                 82740021
 0098B4 4780 920C      0A53C       12036        BE    MULTSN                     YES - SCAN IT                   82747021
 0098B8 47F0 F326      098DE       12037        BC    UNCOND,ENVSY                -ENVSY                         82754021
                                   12038 *                                                                       82761021
 0098BC 9544 C6E4      01674       12039 ENVSX    CLI   CURCOD,XX44               '44' WORD                      82768021
 0098C0 4770 F326      098DE       12040        BC    NOTEQ,ENVSY                 NO-ENVSY                       82775021
 0098C4 95F4 C6E5      01675       12041          CLI   CURN,XXF4                 APPLY                          82782021
 0098C8 078E                       12042        BCR   EQ,JP                       YES-RETURN                     82789021
 0098CA 95F2 C6E5      01675       12043          CLI   CURN,XXF2                 RERUN                          82796021
 0098CE 078E                       12044        BCR   EQ,JP                       YES-RETURN                     82803021
 0098D0 95F3 C6E5      01675       12045          CLI   CURN,XXF3                 SAME                           82810021
 0098D4 078E                       12046        BCR   EQ,JP                       YES-RETURN                     82817021
 0098D6 95AD C6E5      01675       12047          CLI   CURN,XXAD                 MULTIPLE ?                     82824021
 0098DA 478E 0000      00000       12048        BE    0(JP)                      YES - RETURN                    82831021
                                   12049 *                                                                       82838021
 0098DE 9542 C6E4      01674       12050 ENVSY    CLI   CURCOD,XX42               '42' WORD                      82845021
 0098E2 4770 F356      0990E       12051        BC    NOTEQ,ENVSZ                 NO-ENVSZ                       82852021
1PH1A     IKFCBL10                                                                                              PAGE  242
-  LOC  OBJECT CODE    ADDR1 ADDR2  STMT   SOURCE STATEMENT                                       ASM 0201 11.03 02/14/15
00098E6 95FA C6E5      01675       12052          CLI   CURN,XXFA                 I-O-CONTROL                    82859021
 0098EA 4770 F342      098FA       12053        BC    NOTEQ,ENVSY1                NO-ENVSY1                      82866021
 0098EE 45E0 DB00      00B30       12054        BAL   JP,MSG45                   -MSG45                          82873021
 0098F2 45E0 ACDE      038CE       12055        BAL   JP,SKIPGT                  -SKIPGT                         82880021
 0098F6 47F0 F228      097E0       12056        BC    UNCOND,ENVST                -ENVST                         82887021
                                   12057 *                                                                       82894021
 0098FA 95F5 C6E5      01675       12058 ENVSY1   CLI   CURN,XXF5                 CONFIGURATION                  82901021
 0098FE 4770 F356      0990E       12059        BC    NOTEQ,ENVSZ                 NO-ENVSZ                       82908021
 009902 9101 D34C      0037C       12060          TM    CFGSW,XX01                CFGSW 'ON'                     82915021
 009906 4710 F356      0990E       12061        BC    ONES,ENVSZ                  YES-ENVSZ                      82922021
 00990A 47F0 F018      095D0       12062        BC    UNCOND,ENVSB                -ENVSB                         82929021
                                   12063 *                                                                       82936021
 00990E 9140 D353      00383       12064 ENVSZ    TM    IOCSW,XX40                IOCSW 'ON'                     82943021
 009912 4780 F36A      09922       12065        BC    ZERO,ENVSZA                 NO-ENVSZA                      82950021
 009916 45E0 DAF0      00B20       12066        BAL   JP,MSG41                   -MSG41                          82957021
 00991A 45E0 ACDE      038CE       12067        BAL   JP,SKIPGT                  -SKIPGT                         82964021
 00991E 47F0 F228      097E0       12068        BC    UNCOND,ENVST                -ENVST                         82971021
 009922 9180 D34D      0037D       12069 ENVSZA   TM    IOSW,XX80                 IOSW 'ON'                      82978021
 009926 4780 F37E      09936       12070        BC    ZERO,ENVSZB                 NO-ENVSZB                      82985021
 00992A 45E0 DAF0      00B20       12071        BAL   JP,MSG41                   -MSG41                          82992021
 00992E 45E0 ACDE      038CE       12072        BAL   JP,SKIPGT                  -SKIPGT                         82999021
 009932 47F0 F1C8      09780       12073        BC    UNCOND,ENVSN                -ENVSN                         83006021
 009936 9101 D34C      0037C       12074 ENVSZB   TM    CFGSW,XX01                CFGSW 'ON'                     83013021
 00993A 4780 F392      0994A       12075        BC    ZERO,ENVSZC                 NO-ENVSZC                      83020021
 00993E 45E0 DAF0      00B20       12076        BAL   JP,MSG41                   -MSG41                          83027021
 009942 45E0 ACDE      038CE       12077        BAL   JP,SKIPGT                  -SKIPGT                         83034021
 009946 47F0 F03C      095F4       12078        BC    UNCOND,ENVSC1               -ENVSC1                        83041021
 00994A 45E0 DA5C      00A8C       12079 ENVSZC BAL   JP,MSG4                    -MSG4                           83048021
 00994E 45E0 ACDE      038CE       12080        BAL   JP,SKIPGT                  -SKIPGT                         83055021
 009952 47F0 F018      095D0       12081        BC    UNCOND,ENVSB                -ENVSB                         83062021
 009956 45E0 B0B4      01FCC       12082 IOCEOJ BAL   JP,EOSTST              W   EOS TEST                        83069021
 00995A 47F0 F2D4      0988C       12083        BC    UNCOND,ENVSW                -ENVSW                         83076021
                                   12084 *                                                                       83083021
                                   12085 *=2      SPECIAL-NAMES SCAN                                             83090021
                                   12086 *                                                                       83097021
 00995E 50E0 D880      008B0       12087 SPNSCN ST    JP,SV1F03                  SAVE LINK REG                   83104021
 009962 47F0 F3B6      0996E       12088        BC    UNCOND,SPNCNT               -SPNCNT                        83111021
 009966 45E0 B18E      020A6       12089 SPNANT   BAL   JP,CHKIS            -CHKIS                               83118021
 00996A 45E0 B000      01F18       12090 SPNBNT BAL   JP,GETWD                   -GETWD                          83125021
 00996E D21E D3D7 C6C2 00407 01652 12091 SPNCNT   MVC   CLSNM(LX31),CURCNT   SAVE CLAUSE NAME                    83132021
 009974 9554 C6E4      01674       12092          CLI   CURCOD,XX54              COBOL WORD                      83139021
 009978 4780 F42C      099E4       12093        BC    EQ,SPNFNT                   YES-SPNFNT                     83146021
 00997C 9534 C6E4      01674       12094          CLI   CURCOD,XX34               ALPHA-LIT                      83153021
 009980 4780 F3F2      099AA       12095        BC    EQ,SPNENT                   YES-SPNENT                     83160021
 009984 9555 C6E4      01674       12096          CLI   CURCOD,XX55               CARR CTL WORD                  83167021
 009988 4780 F402      099BA       12097        BE    SPNCCW                     YES                             83174021
 00998C 9130 C6E4      01674       12098          TM    CURCOD,XX30               MAJOR-0                        83181021
 009990 4780 F426      099DE       12099        BC    ZERO,SPNEXT                 YES-SPNEXT                     83188021
 009994 D20D D3D7 CE5C 00407 01DEC 12100 SPNMG1   MVC   CLSNM(LX14),SPNCN    SET UP CLAUSE NAME                  83195021
 00999A 45E0 DA90      00AC0       12101          BAL   JP,MSG17            -MSG17                               83202021
 00999E 47F0 F3AE      09966       12102        BC    UNCOND,SPNANT               -SPNANT                        83209021
 0099A2 45E0 DA90      00AC0       12103 SPNMG2   BAL   JP,MSG17             -MSG17                              83216021
 0099A6 47F0 F3B2      0996A       12104          BC    UNCOND,SPNBNT       -SPNBNT                              83223021
                                   12105 *                                                                       83230021
                             099AA 12106 SPNENT   EQU   *                                                        83237021
1PH1A     IKFCBL10                                                                                              PAGE  243
-  LOC  OBJECT CODE    ADDR1 ADDR2  STMT   SOURCE STATEMENT                                       ASM 0201 11.03 02/14/15
00099AA 9501 C6E5      01675       12107          CLI   CURN,XX01                 LENGTH OF 1 DIGIT              83244021
 0099AE 4780 F518      09AD0       12108        BC    EQ,SPNLNT                   YES-SPNLNT                     83251021
 0099B2 45E0 DA80      00AB0       12109 SPNEN1 BAL   JP,MSG13                   -MSG13                          83258021
 0099B6 47F0 F3AE      09966       12110        BC    UNCOND,SPNANT               -SPNANT                        83265021
 0099BA 94F7 D352      00382       12111 SPNCCW   NI    DUPMSG,XXF7               SET 'OFF' DUPMSG               83272021
 0099BE 4170 C6E4      01674       12112        LA    JG,CURCOD                                                  83279021
 0099C2 9601 D355      00385       12113          OI    CCWSW,XX01               TURN ON CARR-CTL SW             83286021
 0099C6 45E0 B5E6      024FE       12114        BAL   JP,SCHSPT                  WAS IT ENTERED IN TBL           83293021
 0099CA 94FE D355      00385       12115          NI    CCWSW,XXFE               TURN OFF CARR-CTL SW            83300021
 0099CE 9140 D34D      0037D       12116          TM    SCHSW,XX40                                               83307021
 0099D2 4780 F518      09AD0       12117        BZ    SPNLNT                    NO-ENTER IN TABLE                83314021
                                   12118 *                                                                       83321021
 0099D6 45E0 DA8C      00ABC       12119 SPNMG3 BAL   JP,MSG16                   -MSG16                          83328021
 0099DA 47F0 F3AE      09966       12120        BC    UNCOND,SPNANT               -SPNANT                        83335021
                                   12121 *                                                                       83342021
 0099DE 58E0 D880      008B0       12122 SPNEXT L     JP,SV1F03                  RESTORE LINK REG                83349021
 0099E2 07FE                       12123        BCR   UNCOND,JP                   -RETURN                        83356021
                                   12124 *                                                                       83363021
                             099E4 12125 SPNFNT   EQU   *                                                        83370021
 0099E4 9518 C6E5      01675       12126          CLI   CURN,XX18                 SYSIN                          83377021
 0099E8 4770 F444      099FC       12127        BC    NOTEQ,SPNGNT                NO-SPNGNT                      83384021
 0099EC 9180 D352      00382       12128          TM    SYSISW,XX80               FIRST SYSIN                    83391021
 0099F0 4710 F41E      099D6       12129        BC    ONES,SPNMG3                 NO-SPNMG3                      83398021
 0099F4 9680 D352      00382       12130          OI    SYSISW,XX80               SET 'ON' SYSISW                83405021
 0099F8 47F0 F518      09AD0       12131        BC    UNCOND,SPNLNT               -SPNLNT                        83412021
                                   12132 *                                                                       83419021
 0099FC 9519 C6E5      01675       12133 SPNGNT   CLI   CURN,XX19                 SYSOUT                         83426021
 009A00 4770 F45C      09A14       12134        BC    NOTEQ,SPNHNT                NO-SPNHNT                      83433021
 009A04 9140 D352      00382       12135          TM    SYSOSW,XX40               FIRST SYSOUT                   83440021
 009A08 4710 F41E      099D6       12136        BC    ONES,SPNMG3                 NO-SPNMG3                      83447021
 009A0C 9640 D352      00382       12137          OI    SYSOSW,XX40               SET 'ON' SYSOSW                83454021
 009A10 47F0 F518      09AD0       12138        BC    UNCOND,SPNLNT               -SPNLNT                        83461021
                                   12139 *                                                                       83468021
 009A14 9577 C6E5      01675       12140 SPNHNT   CLI   CURN,XX77                 SYSPUNCH                       83475021
 009A18 4770 F474      09A2C       12141        BC    NOTEQ,SPNINT                NO-SPNINT                      83482021
 009A1C 9120 D352      00382       12142          TM    SYSPSW,XX20               FIRST SYSPUNCH                 83489021
 009A20 4710 F41E      099D6       12143        BC    ONES,SPNMG3                 NO-SPNMG3                      83496021
 009A24 9620 D352      00382       12144          OI    SYSPSW,XX20               SET 'ON' SYSPSW                83503021
 009A28 47F0 F518      09AD0       12145        BC    UNCOND,SPNLNT               -SPNLNT                        83510021
                                   12146 *                                                                       83517021
 009A2C 9578 C6E5      01675       12147 SPNINT   CLI   CURN,XX78                 CONSOLE                        83524021
 009A30 4770 F48C      09A44       12148        BC    NOTEQ,SPNJNT                NO-SPNJNT                      83531021
 009A34 9110 D352      00382       12149          TM    SYSCSW,XX10               FIRST CONSOLE                  83538021
 009A38 4710 F41E      099D6       12150        BC    ONES,SPNMG3                 NO-SPNMG3                      83545021
 009A3C 9610 D352      00382       12151          OI    SYSCSW,XX10               SET 'ON' SYSCSW                83552021
 009A40 47F0 F518      09AD0       12152        BC    UNCOND,SPNLNT               -SPNLNT                        83559021
                                   12153 *                                                                       83566021
 009A44 9513 C6E5      01675       12154 SPNJNT   CLI   CURN,XX13                 DECIMAL                        83573021
 009A48 4770 F4B2      09A6A       12155        BNE   SPNPNT                    NO                               83580021
 009A4C 45E0 B18E      020A6       12156        BAL   JP,CHKIS                   -CHKIS                          83587021
 009A50 45E0 B000      01F18       12157        BAL   JP,GETWD                   -GETWD                          83594021
 009A54 D501 C6E4 A2BC 01674 02EAC 12158          CLC   CURCOD(LX2),COMMCN        COMMA                          83601021
 009A5A 4780 F4AA      09A62       12159        BC    EQ,SPNKNT                   YES-SPNKNT                     83608021
 009A5E 47F0 F3EA      099A2       12160          BC    UNCOND,SPNMG2       SPNMG2 - ERROR 17                    83615021
 009A62 45E0 B3B8      022D0       12161 SPNKNT BAL   JP,CHGFRN                  -CHGFRN                         83622021
1PH1A     IKFCBL10                                                                                              PAGE  244
-  LOC  OBJECT CODE    ADDR1 ADDR2  STMT   SOURCE STATEMENT                                       ASM 0201 11.03 02/14/15
0009A66 47F0 F3B2      0996A       12162          BC    UNCOND,SPNBNT       SPNBNT - GET WORD                    83629021
                                   12163 *                                                                       83636021
                                   12164 *                                                                       83643021
 009A6A 9530 C6E5      01675       12165 SPNPNT   CLI   CURN,XX30                 CURRENCY                       83650021
 009A6E 4770 F3EA      099A2       12166          BC    NOTEQ,SPNMG2        SPNMG2 - ERROR 17                    83657021
 009A72 D501 C79A A20A 0172A 02DFA 12167          CLC   NXTCOD(LX2),SGNCON        SIGN                           83664021
 009A78 4770 F4C8      09A80       12168        BNE   SPNQNT                     NO                              83671021
 009A7C 45E0 B000      01F18       12169        BAL   JP,GETWD                   YES                             83678021
 009A80 45E0 B18E      020A6       12170 SPNQNT BAL   JP,CHKIS              CHECK FOR 'IS'                       83685021
 009A84 45E0 B000      01F18       12171        BAL   JP,GETWD              GETWORD                              83692021
 009A88 9102 D355      00385       12172          TM    CRSGSW,XX02                                              83699021
 009A8C 4710 F41E      099D6       12173        BO    SPNMG3                SPNMG3 - ERROR 16                    83706021
 009A90 D501 C6E4 DA4C 01674 00A7C 12174          CLC   CURCOD(LX2),ALREF         ALPHA LIT OF LENGTH=1          83713021
 009A96 4770 F510      09AC8       12175        BNE   SPNRMG                    NO                               83720021
 009A9A 4170 C5D1      01561       12176        LA    JG,CURSGE                                                  83727021
 009A9E 4120 C5B3      01543       12177        LA    JB,CURSGT                  ADDR OF ILLEGAL CHARS           83734021
 009AA2 D500 C6E6 2000 01676 00000 12178 SPNRNT   CLC   CURBCD(LX1),DX0(JB)        TEST IF ILLEGAL CHARS         83741021
 009AA8 4780 F510      09AC8       12179        BE    SPNRMG                     YES                             83748021
 009AAC 4122 0001      00001       12180          LA    JB,DX1(JB)                NO  UP INDEX                   83755021
 009AB0 1927                       12181        CR    JB,JG                      END OF TBL                      83762021
 009AB2 4740 F4EA      09AA2       12182        BL    SPNRNT                     NO                              83769021
 009AB6 5810 C814      017A4       12183        L     JA,COSADR                                                  83776021
 009ABA D200 11D2 C6E6 001D2 01676 12184          MVC   CURSGN(LX1),CURBCD       ENTER CHAR IN COMMON            83783021
 009AC0 9602 D355      00385       12185          OI    CRSGSW,XX02               TURN ON CURRENCY SIGN SW       83790021
 009AC4 47F0 F3B2      0996A       12186        B     SPNBNT                SPNBNT - GET WORD                    83797021
 009AC8 45E0 DCA8      00CD8       12187 SPNRMG BAL   JP,MSG151                  ERROR MSG                       83804021
 009ACC 47F0 F3AE      09966       12188        B     SPNANT                SPNANT - CHECK FOR 'IS'              83811021
                                   12189 *                                                                       83818021
 009AD0 D202 D695 C6E4 006C5 01674 12190 SPNLNT   MVC   SPNWRK(LX3),CURCOD        CHARACTER OR SYS TO WORK AR    83825021
 009AD6 45E0 B18E      020A6       12191        BAL   JP,CHKIS                   -CHKIS                          83832021
 009ADA 45E0 B000      01F18       12192        BAL   JP,GETWD                   -GETWD                          83839021
 009ADE 9523 C6E4      01674       12193          CLI   CURCOD,XX23               BCD-NAME                       83846021
 009AE2 4770 F3DC      09994       12194        BC    NOTEQ,SPNMG1                NO-SPNMG1                      83853021
 009AE6 4170 C6E5      01675       12195        LA    JG,CURN                   ADDR OF MNEMONIC NAME            83860021
 009AEA 45E0 B5C8      024E0       12196        BAL   JP,SCHSPN             SCHSPN                               83867021
 009AEE 9140 D34D      0037D       12197          TM    SCHSW,XX40               FOUND                           83874021
 009AF2 4780 F546      09AFE       12198        BZ    SPNSNT                    NO                               83881021
 009AF6 45E0 DC90      00CC0       12199        BAL   JP,MSG145                 YES-ERROR                        83888021
 009AFA 47F0 F3B2      0996A       12200        B     SPNBNT                SPNBNT - GET WORD                    83895021
                             09AFE 12201 SPNSNT EQU   *                                                          83902021
 009AFE D21E D698 C6E5 006C8 01675 12202          MVC   SPNNAM(LX31),CURN         NAME TO WORK AREA              83909021
 009B04 5820 C884      01814       12203        L     JB,SPNCON                  SPNTBL ADDR                     83916021
 009B08 4170 D695      006C5       12204        LA    JG,SPNWRK                  WORK-AREA ADDR                  83923021
 009B0C 4840 C15A      010EA       12205        LH    JD,HW034                   SIZE OF ENTRY                   83930021
 009B10 45E0 B464      0237C       12206        BAL   JP,MVSERT                  -MVSERT                         83937021
 009B14 47F0 F3B2      0996A       12207        BC    UNCOND,SPNBNT               -SPNBNT                        83944021
                                   12208 *                                                                       83951021
1PH1A     IKFCBL10                                                                                              PAGE  245
-  LOC  OBJECT CODE    ADDR1 ADDR2  STMT   SOURCE STATEMENT                                       ASM 0201 11.03 02/14/15
0                                  12210 *=2          SELECT SCAN                                                83965021
                                   12211 *                                                                       83972021
                                   12212 ******    SELECT SENTENCE SCAN    ******                                83979021
                                   12213 *                                                                       83986021
 009B18 45E0 B0CE      01FE6       12214 SELSCN BAL   JP,CHKVRB                 - CHKVRB                    0700 83993021
 009B1C 45E0 B0DC      01FF4       12215        BAL   JP,CHKCLS                 - CHKCLS                    0700 84000021
 009B20 D201 D424 C6E2 00454 01672 12216          MVC   FSEGSN(LX2),CURGCN        GEN CARD NUM TO FS-TEXT        84007021
 009B26 D753 D426 D426 00456 00456 12217        XC    FSEEXT(FSENGT),FSEEXT      ZERO OIT FSTEXT AREA            84014021
 009B2C 940F D354      00384       12218          NI    ACCSW,XX0F                SET'OFF'ACC-ORG-RES-FLT SWI    84021021
 009B30 45E0 B000      01F18       12219        BAL   JP,GETWD                   -GETWD                          84028021
 009B34 D501 C6E4 A73A 01674 0332A 12220          CLC   CURCOD(LX2),OPTCON        'OPTIONAL' HIT ?               84035021
 009B3A 4770 F58E      09B46       12221        BNE   SELUNQ                    NO - SELUNQ                      84042021
 009B3E 9680 D42F      0045F       12222          OI    FSEOPT,XX80               SET OPTIONAL IN ENV-TBL ON     84049021
 009B42 45E0 B000      01F18       12223        BAL   JP,GETWD              GET WORD                             84056021
 009B46 9523 C6E4      01674       12224 SELUNQ   CLI   CURCOD,XX23              BCD NAME ?                      84063021
 009B4A 4780 F5A2      09B5A       12225        BC    EQ,SELFN                    YES-SELFN                      84070021
 009B4E 45E0 DA5C      00A8C       12226        BAL   JP,MSG4                    -MSG4                           84077021
 009B52 45E0 ACD2      038C2       12227 SELSKP BAL   JP,SKIP                    -SKIP                           84084021
 009B56 47F0 F1B4      0976C       12228        BC    UNCOND,ENVSM                -ENVSM                         84091021
 009B5A D21E D446 C6E5 00476 01675 12229 SELFN    MVC   FSEFN(LX31),CURN          NAME TO FSEFN                  84098021
 009B60 45E0 B000      01F18       12230        BAL   JP,GETWD                   -GETWD                          84105021
 009B64 45E0 B2B2      021CA       12231        BAL   JP,CPYCUR                  -CPYCUR                         84112021
 009B68 D501 C6E4 A418 01674 03008 12232          CLC   CURCOD(LX2),ASGNCN        'ASSIGN'                       84119021
 009B6E 4780 F5C2      09B7A       12233        BC    EQ,SELTO                    YES-SELTO                      84126021
 009B72 45E0 DAF4      00B24       12234        BAL   JP,MSG42                   -MSG42                          84133021
 009B76 47F0 FA68      0A020       12235        BC    UNCOND,SAENT2               -SAENT2                        84140021
 009B7A 45E0 B1A0      020B8       12236 SELTO  BAL   JP,CHKTO                   -CHKTO                          84147021
 009B7E 45E0 B000      01F18       12237        BAL   JP,GETWD                   -GETWD                          84154021
                                   12238 *                                                                       84161021
                                   12239 ***       INTEGER-1 SCAN - TESTS FOR NUM LIT VALUE OF 1-9               84168021
                                   12240 *                                                                       84175021
 009B82 9532 C6E4      01674       12241          CLI   CURCOD,XX32               NUMERIC LITERAL ?              84182021
 009B86 4770 F600      09BB8       12242        BNE   SELIMP                SELIMP IMPLEMENTOR NME SCN           84189021
 009B8A 9501 C6C2      01652       12243          CLI   CURCNT,XX01               LENGTH> 1 ?                    84196021
 009B8E 4720 F5F4      09BAC       12244        BH    INTMSG                INTMSG - ERROR                       84203021
 009B92 95F1 C6C3      01653       12245          CLI   CURWD,XXF1                1 OR > ?                       84210021
 009B96 4740 F5F4      09BAC       12246        BL    INTMSG                INTMSG - ERROR                       84217021
 009B9A 95F9 C6C3      01653       12247          CLI   CURWD,XXF9                NOT > 9 ?                      84224021
 009B9E 4720 F5F4      09BAC       12248        BH    INTMSG                INTMSG - ERROR                       84231021
 009BA2 F100 D43F C75F 0046F 016EF 12249          MVO   FSESWU(LX1),CURLIT(LX1)  STORE LIT IN FS WK AREA         84238021
 009BA8 47F0 F5FC      09BB4       12250        B     SELNX                 SELNX - GET WORD                     84245021
 009BAC 45E0 DC68      00C98       12251 INTMSG BAL   R14,MSG135                 PUT OUT INVALID INT-1 MSG       84252021
 009BB0 9610 D43F      0046F       12252          OI    FSESWU,XX10               SET # SORT WK UNITS TO 1       84259021
 009BB4 45E0 B000      01F18       12253 SELNX  BAL   JP,GETWD              GET WORD                             84266021
                                   12254 *                                                                       84273021
                                   12255 *                   *** IMPLEMENTOR NAME SCAN ***                       84280021
                                   12256 *                                                                       84287021
 009BB8 4150 C6E6      01676       12257 SELIMP LA    R5,CURBCD                  BEGINNING ADDR OF IMP-NM        84294021
 009BBC 4165 0003      00003       12258          LA    R6,DX3(R5)                ADDR OF DEV TYP OR FILE ORG    84301021
 009BC0 1B22                       12259        SR    R2,R2                     ZERO REG                         84308021
 009BC2 1B11                       12260        SR    R1,R1                                                      84315021
 009BC4 D501 5000 C18C 00000 0111C 12261          CLC   DX0(LX2,R5),UTILTY        UTILITY HIT ?                  84322021
 009BCA 4770 F640      09BF8       12262        BNE   UNRTST                    GO TO UNIT REC TST               84329021
 009BCE 9608 D42E      0045E       12263          OI    FSEDCL,XX08               SET DEV CLASS TO 100           84336021
 009BD2 91F0 6000      00000       12264 SORGTS   TM    DX0(R6),XXF0              FIELD IS NUMERIC               84343021
1PH1A     IKFCBL10                                                                                              PAGE  246
-  LOC  OBJECT CODE    ADDR1 ADDR2  STMT   SOURCE STATEMENT                                       ASM 0201 11.03 02/14/15
0009BD6 4740 F84A      09E02       12265        BM    FILEOR                     NO - SCAN FOR FILE ORG          84350021
 009BDA 47F0 F764      09D1C       12266        B     UTDASN                     YES - SCAN FOR DEVICE TYPES     84357021
                                   12267 *                                                                       84364021
 009BDE D501 5000 C18E 00000 0111E 12268 DATEST   CLC   DX0(LX2,R5),DIRACC         DIRECT ACCESS HIT ?           84371021
 009BE4 4780 F638      09BF0       12269        BE    SSETDA                     SKIP MSG                        84378021
 009BE8 45E0 DCB8      00CE8       12270        BAL   JP,MSG155                  DEVICE CL NOT SPEC OR INVAL     84385021
 009BEC 47F0 F61A      09BD2       12271        B     SORGTS                     CK NXT FIELD                    84392021
 009BF0 9602 D42E      0045E       12272 SSETDA   OI    FSEDCL,XX02               SET TO 001 FOR DA              84399021
 009BF4 47F0 F61A      09BD2       12273        B     SORGTS                SORGTS - FIELD NUMERIC?              84406021
 009BF8 D501 5000 C18A 00000 0111A 12274 UNRTST   CLC   DX0(LX2,R5),UNITRC         UNIT RECORD HIT ?             84413021
 009BFE 4770 F626      09BDE       12275        BNE   DATEST                DATEST - DIRECT ACCESS?              84420021
 009C02 9604 D42E      0045E       12276          OI    FSEDCL,XX04               SET DEV CLASS IN ENVTBL TO     84427021
 009C06 91F0 6000      00000       12277          TM    DX0(R6),XXF0              FIELD IS NUMERIC ?             84434021
 009C0A 4740 F84A      09E02       12278        BM    FILEOR                     NO - SCAN FOR FILE ORG          84441021
                                   12279 *                                                                       84448021
                                   12280 *                                                                       84455021
                                   12281 *** UNIT-RECORD SCAN  FOR DEVICE NUMBER                                 84462021
                                   12282 *                                                                       84469021
 009C0E 4155 0002      00002       12283 URSCN    LA    R5,DX2(R5)               POSITION PRECEDING DEVICE 7326  84476021
 009C12 9560 5000      00000       12284          CLI   DX0(R5),XX60             HYPHEN?                   7326  84483021
 009C16 4770 FADC      0A094       12285          BNE   NOTIMP                   NO-THEN ERROR             7326  84490021
 009C1A 4155 0001      00001       12286          LA    R5,DX1(R5)               ADDRESS OF DEVICE FIELD   7326  84497021
 009C1E 9200 C433      013C3       12287          MVI   MSKLTP,XX00              SET P IN TRTTAB TO 0            84504021
 009C22 9200 C435      013C5       12288          MVI   MSKLTR,XX00               SET R IN TRTAB TO 0.           84511021
 009C26 DD05 5000 C35C 00000 012EC 12289          TRT   DX0(LX6,R5),NONLDH        SCAN TO NON-NUMERIC            84518021
 009C2C 9201 C433      013C3       12290          MVI   MSKLTP,XX01               RESTORE TRT TO 01.             84525021
 009C30 9201 C435      013C5       12291          MVI   MSKLTR,XX01               RESTORE TRT TO 01.             84532021
 009C34 4920 C150      010E0       12292        CH    R2,HWTWO                   HYPHEN HIT ?                    84539021
 009C38 4770 FADC      0A094       12293        BNE   NOTIMP                     NO-ERROR                        84546021
 009C3C 4161 0001      00001       12294          LA    R6,DX1(R1)               ADDR REG + 1 = FILE ORG FLD     84553021
 009C40 1B15                       12295        SR    R1,R5                      LENGTH OF SCAN                  84560021
 009C42 4910 C154      010E4       12296        CH    R1,HWFOUR                  CNVDEV WILL CONVERT 4     45093 84567021
 009C46 4740 FADC      0A094       12297        BL    NOTIMP                     DIGITS- < 4 - ERROR       45093 84574021
                                   12298 *                                                                 45093 84581021
 009C4A 45E0 FD48      0A300       12299        BAL   R14,CNVDEV                 CONVERT DEVICE # TO BINARY      84588021
 009C4E D701 D430 D430 00460 00460 12300          XC    FSEDVC(LX2),FSEDVC        ZERO 2 BYTE DEVICE# FIELD      84595021
 009C54 4910 C154      010E4       12301        CH    R1,HWFOUR                  EQUAL TO 4 ?                    84602021
 009C58 4780 F6F0      09CA8       12302        BE    DEVNM4                     YES                             84609021
 009C5C 4910 C156      010E6       12303        CH    R1,H5                      IF GREATER COMPARE TO 5.        84616021
 009C60 4770 FADC      0A094       12304        BNE   NOTIMP                     NOTEQU - ERROR                  84623021
                                   12305 *                                                                       84630021
 009C64 45E0 FD48      0A300       12306        BAL   JP,CNVDEV                  DEVICE TO BINARY                84637021
 009C68 4140 0001      00001       12307        LA    R4,R1442                   CODE FOR 1442                   84644021
 009C6C 4930 C16C      010FC       12308        CH    R3,H1442                   EQU TO 1442                     84651021
 009C70 4780 FD54      0A30C       12309        BE    CODDEV                     YES - CK FOR PUNCH              84658021
                                   12310 *                                                                       84665021
 009C74 4140 0003      00003       12311 TEST2    LA    R4,R2520                 CODE FOR 2520                   84672021
 009C78 4930 C17E      0110E       12312        CH    R3,H2520                   EQU TO 2520                     84679021
 009C7C 4770 F6D0      09C88       12313          BNE   TEST3               BRANCH TO 2540 SCAN                  84686021
 009C80 9228 D431      00461       12314          MVI   FSEDVC+NX1,XX28           PUT CODE INTO FS TEXT          84693021
 009C84 47F0 FD54      0A30C       12315          B     CODDEV                   CHECK FOR PUNCH                 84700021
                                   12316 *                                                                       84707021
 009C88 4140 0005      00005       12317 TEST3    LA    R4,R2540                 CODE FOR 2540                   84714021
 009C8C 4930 C180      01110       12318        CH    R3,H2540                   EQU TO 2540                     84721021
 009C90 4770 F6E4      09C9C       12319          BNE   TEST4               LOAD 2540 CONS                       84728021
1PH1A     IKFCBL10                                                                                              PAGE  247
-  LOC  OBJECT CODE    ADDR1 ADDR2  STMT   SOURCE STATEMENT                                       ASM 0201 11.03 02/14/15
0009C94 9228 D431      00461       12320          MVI   FSEDVC+NX1,XX28           PUT CODE INTO FS TEXT          84735021
 009C98 47F0 FD54      0A30C       12321          B     CODDEV                   CHECK FOR PUNCH                 84742021
 009C9C 4130 C199      01129       12322 TEST4    LA    R3,S2540                 NO-ERROR                        84749021
 009CA0 4590 FD68      0A320       12323        BAL   JJ,SPMSET                  SET UP ERROR PARAM              84756021
 009CA4 47F0 FD54      0A30C       12324        B     CODDEV                     CK FOR PUNCH                    84763021
                                   12325 *                                                                       84770021
                                   12326 *                                                                       84777021
                                   12327 ***  DEVICE  NUMBER HAS A LENGTH OF FOUR                                84784021
                                   12328 *                                                                       84791021
 009CA8 9207 D443      00473       12329 DEVNM4 MVI   FSEDTC,X2501               STORE CODE FOR 2501             84798021
 009CAC 45E0 FD48      0A300       12330        BAL   JP,CNVDEV                  DEVICE TO BINARY                84805021
 009CB0 4930 C17C      0110C       12331        CH    R3,H2501                   COMP BIN DEV = 2501             84812021
 009CB4 4770 F708      09CC0       12332          BNE   TEST5               BR TO 1404 SCAN                      84819021
 009CB8 9228 D431      00461       12333          MVI   FSEDVC+NX1,XX28           PUT CODE INTO FS TEXT          84826021
 009CBC 47F0 F84A      09E02       12334          B     FILEOR              FILE ORGANIZATION                    84833021
                                   12335 *                                                                       84840021
 009CC0 9209 D443      00473       12336 TEST5    MVI   FSEDTC,X1404             1404 CODE TO DEV-TYPE           84847021
 009CC4 4930 C170      01100       12337        CH    R3,H1404                   1404 ?                          84854021
 009CC8 4770 F71C      09CD4       12338          BNE   TEST6               BR TO 1443 SCAN                      84861021
 009CCC 9228 D431      00461       12339          MVI   FSEDVC+NX1,XX28           PUT CODE INTO FS TEXT          84868021
 009CD0 47F0 F84A      09E02       12340          B     FILEOR              FILE ORGANIZATION                    84875021
                                   12341 *                                                                       84882021
 009CD4 920A D443      00473       12342 TEST6    MVI   FSEDTC,X1443             1443 IN DEVICE TYPE FIELD       84889021
 009CD8 4930 C172      01102       12343        CH    R3,H1443                   1443 ?                          84896021
 009CDC 4770 F730      09CE8       12344          BNE   TEST7               BR TO 1403 SCAN                      84903021
 009CE0 9228 D431      00461       12345          MVI   FSEDVC+NX1,XX28           PUT CODE INTO FS TEXT          84910021
 009CE4 47F0 F84A      09E02       12346          B     FILEOR              FILE ORGANIZATION                    84917021
                                   12347 *                                                                       84924021
 009CE8 9208 D443      00473       12348 TEST7    MVI   FSEDTC,X1403             1403 CODE TO WORK AREA          84931021
 009CEC 4930 C16E      010FE       12349        CH    R3,H1403                   DEV = 1403 ?                    84938021
 009CF0 4770 F744      09CFC       12350        BNE   TEST8                     BRANCH TO 1445 SCAN              84945021
 009CF4 9228 D431      00461       12351          MVI   FSEDVC+NX1,XX28           PUT CODE INTO FS TEXT          84952021
 009CF8 47F0 F84A      09E02       12352          B     FILEOR              FILE ORGANIZATION                    84959021
 009CFC 920B D443      00473       12353 TEST8  MVI   FSEDTC,X1445              1445 CODE TO WORK AREA           84966021
 009D00 4930 C174      01104       12354        CH    R3,H1445                  DEV = 1445 ?                     84973021
 009D04 4770 F758      09D10       12355        BNE   ERRFIX                    NO - ERRFIX                      84980021
 009D08 9228 D431      00461       12356        MVI   FSEDVC+NX1,XX28           PUT CODE INTO FS TEXT            84987021
 009D0C 47F0 F84A      09E02       12357        B     FILEOR                    FILE ORGANIZATION                84994021
 009D10 4130 C190      01120       12358 ERRFIX   LA    R3,S1403                 EXT DEC FOR 1403                85001021
 009D14 4590 FD68      0A320       12359        BAL   JJ,SPMSET                  SET UP EPARM                    85008021
 009D18 47F0 F84A      09E02       12360        B     FILEOR                FILE ORGANIZATION                    85015021
                                   12361 *                                                                       85022021
                                   12362 ** UTILITY OR DIRECT-ACCESS SCAN FOR DEVICE NUMBER                      85029021
                                   12363 *                                                                       85036021
 009D1C 4155 0002      00002       12364 UTDASN   LA    R5,DX2(R5)               POSITION PRECEDING DEVICE 7326  85043021
 009D20 9560 5000      00000       12365          CLI   DX0(R5),XX60             HYPHEN?                   7326  85050021
 009D24 4770 FADC      0A094       12366          BNE   NOTIMP                   NO-THEN ERROR             7326  85057021
 009D28 4155 0001      00001       12367          LA    R5,DX1(R5)               ADDRESS OF DEVICE FIELD   7326  85064021
 009D2C DD03 5000 C35C 00000 012EC 12368          TRT   DX0(LX4,R5),NONLDH         SCAN TO NON-NUMERIC           85071021
 009D32 4770 F792      09D4A       12369        BC    NOTZER,SKCNVB              DEVICE FIELD NOT NUMERIC        85078021
 009D36 95C5 5004      00004       12370          CLI   DX4(R5),XXC5              E FOLLOWING DEV #              85085021
 009D3A 4780 F818      09DD0       12371        BE    C2311E                     YES - CK 2311E                  85092021
 009D3E 9560 5004      00004       12372          CLI   DX4(R5),XX60              HYPHEN HIT                     85099021
 009D42 4770 FADC      0A094       12373        BNE   NOTIMP                     NO - ERROR                      85106021
 009D46 45E0 FD48      0A300       12374        BAL   R14,CNVDEV                 CONVERT DEVICE TO BINARY        85113021
1PH1A     IKFCBL10                                                                                              PAGE  248
-  LOC  OBJECT CODE    ADDR1 ADDR2  STMT   SOURCE STATEMENT                                       ASM 0201 11.03 02/14/15
0009D4A 4165 0005      00005       12375 SKCNVB   LA    R6,DX5(R5)                ADDR OF FILE ORG FIELD         85120021
 009D4E 9216 D443      00473       12376        MVI   FSEDTC,X2400                                               85127021
 009D52 4930 C182      01112       12377        CH    R3,HW2400                                                  85134021
 009D56 4770 F7AA      09D62       12378          BNE   NEXT                BR TO 2301 MOVE                      85141021
 009D5A 9214 D431      00461       12379          MVI   FSEDVC+NX1,XX14           PUT CODE INTO FS TEXT          85148021
 009D5E 47F0 F7BE      09D76       12380          B     SUTCHK              SUTCHK                               85155021
 009D62 9211 D443      00473       12381 NEXT     MVI   FSEDTC,X2303                                             85162021
 009D66 4930 C17A      0110A       12382        CH    R3,HW2303                                                  85169021
 009D6A 4770 F7C8      09D80       12383        BNE   UTORDA                UTORDA                               85176021
 009D6E 9206 D431      00461       12384          MVI   FSEDVC+NX1,XX06           PUT CODE INTO FS TEXT          85183021
 009D72 47F0 F84A      09E02       12385        B     FILEOR                    - FILEOR                         85190021
 009D76 D501 C6E6 C18C 01676 0111C 12386 SUTCHK   CLC   CURBCD(LX2),UTILTY                                       85197021
 009D7C 4780 F84A      09E02       12387        BE    FILEOR                FILE ORGANIZATION                    85204021
                                   12388 *                                                                       85211021
                                   12389 ***  SCAN FOR ALLOWABLE DEVICES ON BOTH UTILITY & DIRECT ACCESS         85218021
                                   12390 *                                                                       85225021
                                   12391 *                                                                       85232021
 009D80 9214 D443      00473       12392 UTORDA MVI   FSEDTC,X2314               MOVE 2314 CODE TO ENV-WK AR     85239021
 009D84 4930 C186      01116       12393        CH    R3,HW2314                  2314 ?                          85246021
 009D88 4770 F7DC      09D94       12394          BNE   NEXT1               BR TO 2321 MOVE                      85253021
 009D8C 920A D431      00461       12395          MVI   FSEDVC+NX1,XX0A           PUT CODE INTO FS TEXT          85260021
 009D90 47F0 F84A      09E02       12396          B     FILEOR              FILE ORGANIZATION                    85267021
                                   12397 *                                                                       85274021
 009D94 9215 D443      00473       12398 NEXT1    MVI   FSEDTC,X2321             MOVE 2321 CODE TO ENV-TBL       85281021
 009D98 4930 C188      01118       12399        CH    R3,HW2321                  2321 ?                          85288021
 009D9C 4770 F7F0      09DA8       12400          BNE   NEXT2               BR TO 2301 TEST                      85295021
 009DA0 920C D431      00461       12401          MVI   FSEDVC+NX1,XX0C           PUT CODE INTO FS TEXT          85302021
 009DA4 47F0 F84A      09E02       12402          B     FILEOR              FILE ORGANIZATION                    85309021
                                   12403 *                                                                       85316021
 009DA8 920F D443      00473       12404 NEXT2    MVI   FSEDTC,X2301             MOVE 2301 CODE TO FS WK         85323021
 009DAC 4930 C176      01106       12405        CH    R3,HW2301                 DEVICE = 2301 ?                  85330021
 009DB0 4770 F804      09DBC       12406          BNE   NEXT3               BR TO 2302 TEST                      85337021
 009DB4 9202 D431      00461       12407          MVI   FSEDVC+NX1,XX02           PUT CODE INTO FS TEXT          85344021
 009DB8 47F0 F84A      09E02       12408          B     FILEOR              FILE ORGANIZATION                    85351021
                                   12409 *                                                                       85358021
 009DBC 9210 D443      00473       12410 NEXT3    MVI   FSEDTC,X2302             2302 CODE TO FS WK              85365021
 009DC0 4930 C178      01108       12411        CH    R3,HW2302                 DEVICE = 2302 ?                  85372021
 009DC4 4770 F818      09DD0       12412          BNE   C2311E              BR TO 2311 ROUTINE                   85379021
 009DC8 9204 D431      00461       12413          MVI   FSEDVC+NX1,XX04           PUT CODE INTO FS TEXT          85386021
 009DCC 47F0 F84A      09E02       12414          B     FILEOR              FILE ORGANIZATION                    85393021
                                   12415 *                                                                       85400021
 009DD0 D504 5000 C194 00000 01124 12416 C2311E   CLC   DX0(LX5,R5),S2311          2311E HIT ?                   85407021
 009DD6 4770 F832      09DEA       12417        BNE   CK2311                     NO - 2311 DEFAULT               85414021
 009DDA 9213 D443      00473       12418        MVI   FSEDTC,X2311E              YES- CODE 2311E TO WK AREA      85421021
 009DDE 4165 0006      00006       12419          LA    R6,DX6(R5)                ADDR OF FILE ORG FIELD         85428021
 009DE2 9208 D431      00461       12420          MVI   FSEDVC+NX1,XX08           PUT CODE INTO FS TEXT          85435021
 009DE6 47F0 F84A      09E02       12421        B     FILEOR                     CK FILE ORG                     85442021
                                   12422 *                                                                       85449021
 009DEA 9212 D443      00473       12423 CK2311 MVI   FSEDTC,X2311               MOVE 2311 CODE TO ENV-WK AR     85456021
 009DEE 4930 C184      01114       12424        CH    R3,HW2311                  2311 ?                          85463021
 009DF2 4780 F846      09DFE       12425          BE    NEXT4               BR TO FILE ORG ROUTINE               85470021
 009DF6 4130 C194      01124       12426        LA    R3,S2311                   EXT DEC FOR 2311                85477021
 009DFA 4590 FD68      0A320       12427        BAL   JJ,SPMSET                  SET UP EPARM                    85484021
                                   12428 *                                                                       85491021
                                   12429 *** SCAN FILE ORGANIZATION FIELD                                        85498021
1PH1A     IKFCBL10                                                                                              PAGE  249
-  LOC  OBJECT CODE    ADDR1 ADDR2  STMT   SOURCE STATEMENT                                       ASM 0201 11.03 02/14/15
0                                  12430 *                                                                       85505021
 009DFE 9208 D431      00461       12431 NEXT4    MVI   FSEDVC+NX1,XX08           PUT CODE INTO FS TEXT          85512021
 009E02 95E2 6000      00000       12432 FILEOR   CLI   DX0(R6),XXE2             FILE ORG= S (SEQUENTIAL)        85519021
 009E06 4780 F88E      09E46       12433        BE    HYPTST                TEST FOR HYPHEN                      85526021
 009E0A 9620 D42E      0045E       12434          OI    FSEORG,XX20               SET CODE TO 010 IN WK AREA     85533021
 009E0E 95E6 6000      00000       12435          CLI   DX0(R6),XXE6              W (DIRECT W/REWRITE) HIT ?     85540021
 009E12 4780 F88E      09E46       12436        BE    HYPTST                     YES - CK HYPHEN                 85547021
 009E16 9610 D42E      0045E       12437          OI    FSEORG,XX10               SET CODE TO 011 FOR DIRECT     85554021
 009E1A 95C4 6000      00000       12438          CLI   DX0(R6),XXC4              D (DIRECT)  HIT ?              85561021
 009E1E 4780 F88E      09E46       12439        BE    HYPTST                     YES - CK HYPHEN                 85568021
 009E22 94DF D42E      0045E       12440          NI    FSEORG,XXDF               SET CODE BACK TO 001           85575021
 009E26 95C9 6000      00000       12441          CLI   DX0(R6),XXC9              I (INDEXED) HIT ?              85582021
 009E2A 4780 F88E      09E46       12442        BE    HYPTST                     YES - CK HYPHEN                 85589021
 009E2E 948F D42E      0045E       12443          NI    FSEORG,XX8F               SET BACK TO 000                85596021
 009E32 95D9 6000      00000       12444          CLI   DX0(R6),XXD9              R (RELATIVE) HIT ?             85603021
 009E36 4770 F88A      09E42       12445        BNE   SIMPER                     NO-ERROR                        85610021
 009E3A 9640 D42E      0045E       12446          OI    FSEORG,XX40               YES-SET TO 100                 85617021
 009E3E 47F0 F88E      09E46       12447        B     HYPTST                     SKIP MSG                        85624021
 009E42 45E0 DC80      00CB0       12448 SIMPER BAL   JP,MSG141                  ORGAN INVALID - SEQ ASSUMED     85631021
                                   12449 *                                                                       85638021
                                   12450 ***          HYPEN CHECKED AFTER ORGAN FIELD TO DETERMINE CONTINUED     85645021
                                   12451 *                                                                       85652021
 009E46 1B77                       12452 HYPTST SR    R7,R7                     ZERO OUT REG                     85659021
 009E48 4370 C6E5      01675       12453        IC    R7,CURN                    LENGTH OF IMP NM                85666021
 009E4C 4177 C6E6      01676       12454        LA    R7,CURBCD(R7)             ENDING ADDR OF IMP NM            85673021
 009E50 9560 6001      00001       12455          CLI   DX1(R6),XX60              HYPHEN HIT FOLLOW ORG FIELD    85680021
 009E54 4780 F8D2      09E8A       12456        BE    EXTNMS                     YES - SCAN FOR VALID EXTERN     85687021
 009E58 45E0 DCC0      00CF0       12457        BAL   JP,MSG157                  EXT NM NOT PRES IN IMP NM       85694021
 009E5C D501 C79A C58D 0172A 0151D 12458          CLC   NXTCOD(LX2),EOSCON      PERION IN NXTCOD            8061 85701021
 009E62 4770 F8B6      09E6E       12459          BNE   EXTERR                  BRANCH AROUND               8061 85708021
 009E66 45E0 B000      01F18       12460          BAL   JP,GETWD                GET NEXT WORD               8061 85715021
 009E6A 47F0 FCB2      0A26A       12461          B     SEENT                   YES - EXIT                  8061 85722021
 009E6E 45E0 B000      01F18       12462 EXTERR   BAL   JP,GETWD                GET NEXT WORD               8061 85729021
 009E72 9604 D353      00383       12463          OI    SELNSW,XX04         SET ON SELSNW                        85736021
 009E76 47F0 F906      09EBE       12464        B    CHKOR                 DOES 'OR' FOLLOW?                     85743021
 009E7A 45E0 DA88      00AB8       12465 ERMEXT BAL   R14,MSG15                 INVALID EXT NM                   85750021
 009E7E 45E0 B000      01F18       12466        BAL  JP,GETWD              GET NEXT WORD                         85757021
 009E82 9604 D353      00383       12467          OI    SELNSW,XX04         SET ON SELSNW                        85764021
 009E86 47F0 F906      09EBE       12468        B    CHKOR                 DOES 'OR' FOLLOW?                     85771021
                                   12469 *                                                                       85778021
                                   12470 ***  VALID EXTERNAL NAME FOLLOWING ORGANIZATION FIELD ?                 85785021
                                   12471 *                                                                       85792021
 009E8A DD00 6002 C45C 00002 013EC 12472 EXTNMS   TRT   DX2(LX1,R6),UNONB          EXT-NM BEGINNING WITH LETTE   85799021
 009E90 4620 F8C2      09E7A       12473        BCT   R2,ERMEXT                 NOT LETTER                       85806021
 009E94 4166 0002      00002       12474          LA    R6,DX2(R6)               BEGIN ADDR OF EXT NM            85813021
 009E98 1B76                       12475        SR    R7,R6                     LENGTH OF EXT NM                 85820021
 009E9A 4970 C15E      010EE       12476        CH    R7,HW8                    LENGTH OF 8 OR LESS              85827021
 009E9E 4720 F8C2      09E7A       12477        BH    ERMEXT                    GREATER - ERROR                  85834021
 009EA2 0670                       12478        BCTR  R7,R0                     REDUCE SIZE BY 1 FOR EXECUTE     85841021
 009EA4 45E0 B3D0      022E8       12479        BAL   R14,NOLDI                  TRT LETTERS TO 0.               85848021
 009EA8 4470 FA5E      0A016       12480        EX    R7,VALCAR                 TRT LENGTH OF EXTERNAL NAME      85855021
 009EAC 45E0 B3E8      02300       12481        BAL   R14,NOLDO                  RESTORE TRT TO 01'S             85862021
 009EB0 4770 F8C2      09E7A       12482        BC    NOTZER,ERMEXT             INVALID CHAR IN EXR NM           85869021
 009EB4 D207 D426 D683 00456 006B3 12483          MVC   FSEEXT(LX8),UBLNK         BLANK EXT-NM FLD IN WK AREA    85876021
 009EBA 4470 FA58      0A010       12484        EX  R7,MVFSEX               EXT NM TO FS WK AREA                 85883021
1PH1A     IKFCBL10                                                                                              PAGE  250
-  LOC  OBJECT CODE    ADDR1 ADDR2  STMT   SOURCE STATEMENT                                       ASM 0201 11.03 02/14/15
0                            09EBE 12485 CHKOR  EQU  *                     ADDITIONAL IMPLEMENTOR NAMES?         85890021
 009EBE D501 C79A C58D 0172A 0151D 12486          CLC   NXTCOD(LX2),EOSCON  IS NEXT WORD A PERIOD?               85897021
 009EC4 4780 F95E      09F16       12487          BE    EOSFND              YES-CHECK NEXT PAR/DIV HEAD          85904021
 009EC8 D501 C79A A048 0172A 02C38 12488          CLC   NXTCOD(LX2),ORCON    IS NEXT WORD "OR"?                  85911021
 009ECE 4770 F922      09EDA       12489          BNE   TST54               IF NOT, IS IT A COBOL WORD?          85918021
 009ED2 45E0 B000      01F18       12490          BAL   JP,GETWD            GET NEXT WORD.                       85925021
 009ED6 47F0 F92A      09EE2       12491          B     CHKNME              IS IT AN EBDIC NAME?                 85932021
 009EDA 9554 C79A      0172A       12492 TST54    CLI   NXTCOD,XX54          IS NEXT WORD A COBOL WORD?          85939021
 009EDE 4780 F9B2      09F6A       12493          BE    CHKRST              CHECK WHICH CLAUSE IT IS.            85946021
 009EE2 9523 C79A      0172A       12494 CHKNME   CLI   NXTCOD,XX23          IS IT A BCD NAME?                   85953021
 009EE6 4770 F93A      09EF2       12495          BNE   TST42               IF NOT, CHECK FOR PAR/DIV HEAD       85960021
 009EEA 45E0 B000      01F18       12496          BAL   JP,GETWD            IF BCD NAME, GET NEXT WORD.          85967021
 009EEE 47F0 F906      09EBE       12497          B     CHKOR               WHAT FOLLOWS NAME?                   85974021
 009EF2 9542 C79A      0172A       12498 TST42    CLI   NXTCOD,XX42          IS THIS PAR/SECT/DIV HEAD?          85981021
 009EF6 4770 F94E      09F06       12499          BNE   TSTSEL              IF NOT, IS IT A SELECT?              85988021
 009EFA 45E0 B000      01F18       12500          BAL   JP,GETWD            GET NEXT WORD-ERR MSG USES CUR       85995021
 009EFE 45E0 DAF8      00B28       12501          BAL   JP,MSG43            SENTENCE NOT ENDED WITH '.'          86002021
 009F02 47F0 FCB2      0A26A       12502          B     SEENT               EXIT                                 86009021
 009F06 95F1 C79B      0172B       12503 TSTSEL   CLI   NXTN,XXF1            IS THIS 'SELECT'?                   86016021
 009F0A 4770 F966      09F1E       12504          BNE   SELERR              IF NOT, IT IS ILLEGAL FOR PAR        86023021
 009F0E 45E0 B000      01F18       12505          BAL   JP,GETWD            IF 'SELECT', GET NEXT WORD           86030021
 009F12 47F0 FCB2      0A26A       12506        B   SEENT                  ENTER FILE NAME IN TABLE              86037021
 009F16 45E0 B000      01F18       12507 EOSFND   BAL   JP,GETWD            END OF SENTENCE FOUND                86044021
 009F1A 47F0 FCB2      0A26A       12508          B     SEENT               EXIT                                 86051021
 009F1E 45E0 DC48      00C78       12509 SELERR   BAL   JP,MSG127           WRITE ERROR MSG                      86058021
 009F22 45E0 B000      01F18       12510          BAL   JP,GETWD            GET NEXT WORD                        86065021
 009F26 D501 C79A C58D 0172A 0151D 12511 TSTEOS   CLC   NXTCOD(LX2),EOSCON   IS IT END OF SENTENCE               86072021
 009F2C 4770 F980      09F38       12512          BNE   SELTST             IF NOT, IS IT SELECT                  86079021
 009F30 45E0 B000      01F18       12513          BAL   JP,GETWD            ELSE GET NEXT WORD                   86086021
 009F34 47F0 FCB2      0A26A       12514          B     SEENT               EXIT                                 86093021
 009F38 D501 C79A A514 0172A 03104 12515 SELTST   CLC   NXTCOD(LX2),SELCON   IS NEXTWORD SELECT?                 86100021
 009F3E 4770 F996      09F4E       12516          BNE   TSTDLM              IF NOT, IS IT PAR/SEL/DIV NME        86107021
 009F42 45E0 B000      01F18       12517          BAL   JP,GETWD            IF SELECT, GET NEXT WORD             86114021
 009F46 45E0 DAF8      00B28       12518          BAL   JP,MSG43            PREVIOUS SELECT HAD NO '.'           86121021
 009F4A 47F0 F560      09B18       12519          B     SELSCN              EXAMINE NEXT SELECT                  86128021
 009F4E 9542 C79A      0172A       12520 TSTDLM   CLI   NXTCOD,XX42          IS THIS PAR/SECT/DIV HEADER         86135021
 009F52 4780 F9A6      09F5E       12521          BE    DLMFND              ERROR-DOESNT FOLLOW EOS              86142021
 009F56 45E0 B000      01F18       12522          BAL   JP,GETWD            IF NOT, GET NEXT WORD.               86149021
 009F5A 47F0 F96E      09F26       12523          B     TSTEOS              CONTINUE LOOKING FOR EOS.            86156021
 009F5E 45E0 B000      01F18       12524 DLMFND   BAL   JP,GETWD            GET NEXT WORD                        86163021
 009F62 45E0 DAF8      00B28       12525          BAL   JP,MSG43            PREVIOUS SELECT NOT ENDED '.'        86170021
 009F66 47F0 FCB2      0A26A       12526          B     SEENT               EXIT                                 86177021
 009F6A 45E0 B17C      02094       12527 CHKRST BAL  JP,CHKFOR             TEST FOR 'FOR MULTIPLE' ETC.          86184021
 009F6E D501 C79A A745 0172A 03335 12528          CLC   NXTCOD(LX2),MULCON        MULTIPLE IN NEXT               86191021
 009F74 4770 FA64      0A01C       12529        BNE   SAENT                      NO - NO MULT COMMENTS           86198021
 009F78 45E0 B000      01F18       12530        BAL   JP,GETWD                   BYPASS                          86205021
 009F7C D501 C79A A1F5 0172A 02DE5 12531          CLC   NXTCOD(LX2),REELCN          MULT                         86212021
 009F82 4780 F9D8      09F90       12532        BE    SGTREE                         FILE                        86219021
 009F86 D501 C79A A250 0172A 02E40 12533          CLC   NXTCOD(LX2),UNTCON              CLAUSE                   86226021
 009F8C 4770 FA2E      09FE6       12534        BNE   SCENT2                             *                       86233021
 009F90 45E0 B000      01F18       12535 SGTREE BAL   JP,GETWD                           *                       86240021
 009F94 47F0 FA64      0A01C       12536        B     SAENT                              *                       86247021
                                   12537 *                                                                       86254021
 009F98                            12538 SPROCS DS    0H                                                         86261021
 009F98 D501 C79A A1BD 0172A 02DAD 12539          CLC   NXTCOD(LX2),MODECN        BYPASS                         86268021
1PH1A     IKFCBL10                                                                                              PAGE  251
-  LOC  OBJECT CODE    ADDR1 ADDR2  STMT   SOURCE STATEMENT                                       ASM 0201 11.03 02/14/15
0009F9E 4770 F9EE      09FA6       12540        BNE   SCKIS                        PROCESSING                    86275021
 009FA2 45E0 B000      01F18       12541        BAL   JP,GETWD                       CLAUSE                      86282021
 009FA6 45E0 B18E      020A6       12542 SCKIS  BAL   JP,CHKIS                         *                         86289021
 009FAA D501 C79A A926 0172A 03516 12543          CLC   NXTCOD(LX2),SEQUCN              *                        86296021
 009FB0 4770 FA2E      09FE6       12544        BNE   SCENT2                           *                         86303021
 009FB4 45E0 B000      01F18       12545        BAL   JP,GETWD                         *                         86310021
 009FB8 47F0 FA64      0A01C       12546        B     SAENT                            *                         86317021
                                   12547 *                                                                       86324021
 009FBC 45E0 B000      01F18       12548 SFILM1 BAL   JP,GETWD                   GET IS/ARE                      86331021
 009FC0 94BF D355      00385       12549 STRUSW   NI    THRUSW,XXBF               SET OFF THRU HIT SW            86338021
 009FC4                            12550 SFILLM DS    0H                                                         86345021
 009FC4 9523 C79A      0172A       12551          CLI   NXTCOD,XX23               BYPASS                         86352021
 009FC8 4780 FA36      09FEE       12552        BE    SCKTHU                       FILE                          86359021
 009FCC 9532 C79A      0172A       12553          CLI   NXTCOD,XX32                   LIMITS                     86366021
 009FD0 4780 FA36      09FEE       12554        BE    SCKTHU                           CLAUSE                    86373021
 009FD4 D501 C6E4 A034 01674 02C24 12555          CLC   CURCOD(LX2),ISCON                 *                      86380021
 009FDA 4780 FA2E      09FE6       12556        BE    SCENT2                             *                       86387021
 009FDE 9140 D355      00385       12557          TM    THRUSW,XX40                       *                      86394021
 009FE2 4780 FA64      0A01C       12558        BZ    SAENT                              *                       86401021
 009FE6 45E0 DD1C      00D4C       12559 SCENT2 BAL   JP,MSG180                  USASIA COMMENTS INVALID         86408021
 009FEA 47F0 FAD0      0A088       12560        B     SDENT1                     SKIP TO NXT CLS                 86415021
                                   12561 *                                                                       86422021
 009FEE                            12562 SCKTHU DS    0H                                                         86429021
 009FEE 45E0 B000      01F18       12563        BAL   JP,GETWD                           *                       86436021
 009FF2 9140 D355      00385       12564          TM    THRUSW,XX40                       *                      86443021
 009FF6 4710 FA08      09FC0       12565        BO    STRUSW                             *                       86450021
 009FFA D501 C79A A242 0172A 02E32 12566          CLC   NXTCOD(LX2),THRUCN                *                      86457021
 00A000 4770 FA2E      09FE6       12567        BNE   SCENT2                             *                       86464021
 00A004 45E0 B000      01F18       12568        BAL   JP,GETWD                           *                       86471021
 00A008 9640 D355      00385       12569          OI    THRUSW,XX40                       *                      86478021
 00A00C 47F0 FA0C      09FC4       12570        B     SFILLM                             *                       86485021
                                   12571 *                                                                       86492021
                                   12572 *                                                                       86499021
 00A010 D200 D426 6000 00456 00000 12573 MVFSEX   MVC   FSEEXT(LX0),DX0(R6)       MOVE VARIABLE EXT NM           86506021
                                   12574 *                                                                       86513021
 00A016 DD00 6000 C35C 00000 012EC 12575 VALCAR   TRT   DX0(LX0,R6),NONLDH        SCAN FOR INVALID CHARACTERS    86520021
                                   12576 *                                                                       86527021
 00A01C 45E0 B000      01F18       12577 SAENT  BAL   JP,GETWD                   GET WORD                        86534021
 00A020 94FB D353      00383       12578 SAENT2   NI    SELNSW,XXFB               SET 'OFF' SELNSW               86541021
 00A024 9554 C6E4      01674       12579 SAENT3   CLI   CURCOD,XX54             * COBOL WORD                     86548021
 00A028 4770 FABC      0A074       12580        BC    NOTEQ,SDENT                NO                              86555021
 00A02C 95B2 C6E5      01675       12581          CLI   CURN,XXB2               * ACCESS                         86562021
 00A030 4780 FAF8      0A0B0       12582        BC    EQ,SACCES                  YES                             86569021
 00A034 9568 C6E5      01675       12583          CLI   CURN,XX68                 PROCESSING HIT ?               86576021
 00A038 4780 F9E0      09F98       12584        BE    SPROCS                     PROC CLAUSE COMMENTS            86583021
 00A03C 95B4 C6E5      01675       12585          CLI   CURN,XXB4               * RESERVE                        86590021
 00A040 4780 FB3E      0A0F6       12586        BC    EQ,SRESRV                  YES                             86597021
 00A044 95B5 C6E5      01675       12587          CLI   CURN,XXB5                 NOMINAL HIT ?                  86604021
 00A048 4780 FBAA      0A162       12588        BE    SNOMIN                WORD IS NOMINAL                      86611021
 00A04C 95B6 C6E5      01675       12589          CLI   CURN,XXB6               * ACTUAL                         86618021
 00A050 4780 FBCE      0A186       12590        BC    EQ,SACTUL                  YES                             86625021
 00A054 95CD C6E5      01675       12591          CLI   CURN,XXCD               * RECORD                         86632021
 00A058 4780 FBFE      0A1B6       12592        BC    EQ,SRCORD                   YES-SRCORD                     86639021
 00A05C 951A C6E5      01675       12593          CLI   CURN,XX1A               * TRACK-AREA                     86646021
 00A060 4780 FC22      0A1DA       12594        BC    EQ,STRKAR                   YES-STRKAR                     86653021
1PH1A     IKFCBL10                                                                                              PAGE  252
-  LOC  OBJECT CODE    ADDR1 ADDR2  STMT   SOURCE STATEMENT                                       ASM 0201 11.03 02/14/15
000A064 951C C6E5      01675       12595          CLI   CURN,XX1C               *TRACK-LIMIT ?                   86660021
 00A068 4780 FC80      0A238       12596        BE    STRLIM                WORD IS TRACK LIMIT                  86667021
 00A06C 9514 C6E5      01675       12597          CLI   CURN,XX14               * FILE-LIMIT                     86674021
 00A070 4780 FA04      09FBC       12598        BE    SFILM1                     FILE-LIMITS CLS COMMENTS        86681021
 00A074 9130 C6E4      01674       12599 SDENT    TM    CURCOD,XX30               MAJOR IS 0                     86688021
 00A078 4780 FCB2      0A26A       12600        BC    ZERO,SEENT                 YES                             86695021
 00A07C 9104 D353      00383       12601          TM    SELNSW,XX04               SELNSW 'ON'                    86702021
 00A080 4710 FAD0      0A088       12602        BC    ONES,SDENT1                 YES-SDENT1                     86709021
 00A084 45E0 DA90      00AC0       12603        BAL   JP,MSG17                   -MSG17                          86716021
 00A088 45E0 B000      01F18       12604 SDENT1 BAL   JP,GETWD                   -GETWD                          86723021
 00A08C 9604 D353      00383       12605 SDENT2   OI    SELNSW,XX04               SET 'ON' SELNSW                86730021
 00A090 47F0 FA6C      0A024       12606        BC    UNCOND,SAENT3               -SAENT3                        86737021
                                   12607 *                                                                       86744021
 00A094 45E0 DC5C      00C8C       12608 NOTIMP BAL   R14,MSG132            ERROR                                86751021
 00A098 9200 D446      00476       12609          MVI   FSEFN,XX00                SET FILENM ENTRY 1ST BYTE I    86758021
                                   12610 *                                       WK AREA TO ZERO SO THAT FS      86765021
                                   12611 *                                       AREA IS NOT ENTERED IN ENV      86772021
                                   12612 *                                       TABLE.                          86779021
 00A09C 47F0 FAD0      0A088       12613        B     SDENT1                    GO TO NEXT CLAUSE                86786021
                                   12614 *                                                                       86793021
 00A0A0 45E0 DA8C      00ABC       12615 SBENT  BAL   JP,MSG16                   -MSG16                          86800021
 00A0A4 47F0 FAD0      0A088       12616        BC    UNCOND,SDENT1               -SDENT1                        86807021
                                   12617 *                                                                       86814021
 00A0A8 45E0 DA90      00AC0       12618 SCENT  BAL   JP,MSG17                   -MSG17                          86821021
 00A0AC 47F0 FAD4      0A08C       12619        BC    UNCOND,SDENT2               -SDENT2                        86828021
                                   12620 *                                                                       86835021
 00A0B0 45E0 B0DC      01FF4       12621 SACCES BAL   JP,CHKCLS                * WORD IS ACCESS                  86842021
 00A0B4 9180 D354      00384       12622          TM    ACCSW,XX80                ACCSWITCH TEST                 86849021
 00A0B8 4710 FAE8      0A0A0       12623        BC    ONES,SBENT                 SWITCH IS ON                    86856021
 00A0BC D501 C79A A1BD 0172A 02DAD 12624          CLC   NXTCOD(LX2),MODECN        NEXT IS MODE ?                 86863021
 00A0C2 4770 FB12      0A0CA       12625        BNE   SELIS                 CHECK FOR 'IS'                       86870021
 00A0C6 45E0 B000      01F18       12626        BAL   JP,GETWD              GET WORD                             86877021
 00A0CA 45E0 B18E      020A6       12627 SELIS  BAL   JP,CHKIS                  CHECK IS                         86884021
 00A0CE 45E0 B000      01F18       12628        BAL   JP,GETWD                   GET WORD                        86891021
 00A0D2 9554 C6E4      01674       12629          CLI   CURCOD,XX54               COBOL WORD                     86898021
 00A0D6 4770 FAF0      0A0A8       12630        BC    NOTEQ,SCENT                NO                              86905021
 00A0DA 95BA C6E5      01675       12631          CLI   CURN,XXBA               - SEQUENTIAL                     86912021
 00A0DE 4780 FB36      0A0EE       12632        BC    EQ,SELACC                  YES                             86919021
 00A0E2 9567 C6E5      01675       12633          CLI   CURN,XX67               - RANDOM                         86926021
 00A0E6 4770 FAF0      0A0A8       12634        BC    NOTEQ,SCENT                NO                              86933021
 00A0EA 9680 D42E      0045E       12635          OI    FSEACC,XX80               SET ACCESS TO '1'              86940021
 00A0EE 9680 D354      00384       12636 SELACC   OI    ACCSW,XX80                ACCSW SET ON                   86947021
 00A0F2 47F0 FA64      0A01C       12637        BC    UNCOND,SAENT          GET WORD                             86954021
 00A0F6 45E0 B0DC      01FF4       12638 SRESRV BAL   JP,CHKCLS                * WORD IS RESERVE                 86961021
 00A0FA 9120 D354      00384       12639          TM    RESSW,XX20                RESSWITCH TEST                 86968021
 00A0FE 4710 FAE8      0A0A0       12640        BC    ONES,SBENT                 SWITCH IS ON                    86975021
 00A102 45E0 B000      01F18       12641        BAL   JP,GETWD                   GET WORD                        86982021
 00A106 D501 C6E4 A039 01674 02C29 12642          CLC   CURCOD(LX2),NOCON         WORD 'NO'                      86989021
 00A10C 4780 FB7C      0A134       12643        BE    SLSERV                    YES - SET FSERVS SW ON           86996021
 00A110 45E0 FCEE      0A2A6       12644 SNUMLT BAL   JP,SELNLT                  INT NUM LIT TO BINARY           87003021
 00A114 4900 C14E      010DE       12645        CH    JR,HWONE                   NUM LIT = TO 1                  87010021
 00A118 4740 FB6C      0A124       12646        BL    SINVMS                     LESS - PUT OUT MESSAGE          87017021
 00A11C 5900 C2C0      01250       12647        C     JR,NU255                   COMPARE TO 255                  87024021
 00A120 4740 FB78      0A130       12648        BL    SRSMV                      LESS - STORE NUMBER             87031021
 00A124 45E0 DC68      00C98       12649 SINVMS BAL   R14,MSG135                 INVALID NUM LIT.  1 ASSUMED     87038021
1PH1A     IKFCBL10                                                                                              PAGE  253
-  LOC  OBJECT CODE    ADDR1 ADDR2  STMT   SOURCE STATEMENT                                       ASM 0201 11.03 02/14/15
000A128 9201 D434      00464       12650          MVI   FSERES,XX01               SET TO 1                       87045021
 00A12C 47F0 FB80      0A138       12651        B     SLRESW                SET RESSW ON                         87052021
 00A130 4200 D434      00464       12652 SRSMV  STC   JR,FSERES                  STORE BIN # IN FS WK AREA       87059021
 00A134 9601 D42E      0045E       12653 SLSERV   OI    FSERVS,XX01              SET FSERVS SW                   87066021
 00A138 9620 D354      00384       12654 SLRESW   OI    RESSW,XX20                SET RESSW 'ON'                 87073021
 00A13C 9554 C79A      0172A       12655          CLI   NXTCOD,XX54               NEXT IS COBOL WORD             87080021
 00A140 4770 FA64      0A01C       12656        BC    NOTEQ,SAENT                 NO-SAENT                       87087021
 00A144 95BE C79B      0172B       12657          CLI   NXTN,XXBE                 ALTERNATE                      87094021
 00A148 4770 FB98      0A150       12658        BC    NOTEQ,SELARE               NO                              87101021
 00A14C 45E0 B000      01F18       12659        BAL   JP,GETWD                   GET WORD                        87108021
 00A150 D501 C79A A131 0172A 02D21 12660 SELARE   CLC   NXTCOD(LX2),AREACN        WORD IS 'AREA'S'               87115021
 00A156 4770 FA64      0A01C       12661        BC    NOTEQ,SAENT                 NO-SAENT                       87122021
 00A15A 45E0 B000      01F18       12662 SELGET BAL   JP,GETWD                   GET WORD                        87129021
 00A15E 47F0 FA64      0A01C       12663        BC    UNCOND,SAENT          GET WORD                             87136021
 00A162 45E0 B0DC      01FF4       12664 SNOMIN BAL   JP,CHKCLS                 *WORD IS NOMINAL                 87143021
 00A166 9110 D43D      0046D       12665          TM    FSENOM,XX10              ONLY NOM CLAUSE                 87150021
 00A16A 4710 FAE8      0A0A0       12666        BC    ONES,SBENT                  NO-SBENT                       87157021
 00A16E 45E0 FD1A      0A2D2       12667        BAL   JP,CHKSAR                  BCD-NAME                        87164021
 00A172 D201 D46C D9D2 0049C 00A02 12668          MVC   FSENMK+NX2(LX2),PONTER    DISPLACEMENT AND               87171021
 00A178 D201 D46A D9D0 0049A 00A00 12669          MVC   FSENMK(LX2),SAVSIZ       SIZE TO WORKAREA                87178021
 00A17E 9610 D43D      0046D       12670          OI    FSENOM,XX10              SET NOM SW ON                   87185021
 00A182 47F0 FA64      0A01C       12671        BC    UNCOND,SAENT                -SAENT                         87192021
 00A186 45E0 B0DC      01FF4       12672 SACTUL BAL   JP,CHKCLS                * WORD IS ACTUAL                  87199021
 00A18A 9108 D43D      0046D       12673          TM    FSEACT,XX08               ONLY ACT CLAUSE                87206021
 00A18E 4710 FAE8      0A0A0       12674        BC    ONES,SBENT                  NO-SBENT                       87213021
 00A192 45E0 FD1A      0A2D2       12675        BAL   JP,CHKSAR                  BCD-NAME                        87220021
 00A196 D201 D470 D9D2 004A0 00A02 12676          MVC   FSEACK+NX2(LX2),PONTER     DISPLACEMENT AND              87227021
 00A19C D201 D46E D9D0 0049E 00A00 12677          MVC   FSEACK(LX2),SAVSIZ        SIZE TO WORK AREA              87234021
 00A1A2 5820 C834      017C4       12678        L     JB,QNMCON                  ADDR OF QNMTBL                  87241021
 00A1A6 9620 D34E      0037E       12679          OI    INSRSW,XX20               FOR INSERT                     87248021
 00A1AA 45E0 B410      02328       12680        BAL   JP,MVQLCK                  -MVQLCK                         87255021
 00A1AE 9608 D43D      0046D       12681          OI    FSEACT,XX08               SET ACT SW 'ON'                87262021
 00A1B2 47F0 FA64      0A01C       12682        BC    UNCOND,SAENT                -SAENT                         87269021
 00A1B6 45E0 B0DC      01FF4       12683 SRCORD BAL   JP,CHKCLS                * WORD IS RECORD                  87276021
 00A1BA 9104 D43D      0046D       12684          TM    FSEREC,XX04               ONLY REC CLAUSE                87283021
 00A1BE 4710 FAE8      0A0A0       12685        BC    ONES,SBENT                  NO-SBENT                       87290021
 00A1C2 45E0 FD1A      0A2D2       12686        BAL   JP,CHKSAR                  BCD-NAME                        87297021
 00A1C6 D201 D474 D9D2 004A4 00A02 12687          MVC   FSERCK+NX2(LX2),PONTER     DISPLACEMENT AND              87304021
 00A1CC D201 D472 D9D0 004A2 00A00 12688          MVC   FSERCK(LX2),SAVSIZ        SIZE TO WORK AREA              87311021
 00A1D2 9604 D43D      0046D       12689          OI    FSEREC,XX04               SET REC SW 'ON'                87318021
 00A1D6 47F0 FA64      0A01C       12690        BC    UNCOND,SAENT                -SAENT                         87325021
 00A1DA 45E0 B0DC      01FF4       12691 STRKAR BAL   JP,CHKCLS                * WORD IS TRACK-AREA              87332021
 00A1DE 91C0 D43D      0046D       12692          TM    FSETKA,XXC0               ONLY T-A CLAUSE                87339021
 00A1E2 4770 FAE8      0A0A0       12693        BC    NOTZER,SBENT                NO-SBENT                       87346021
 00A1E6 45E0 B18E      020A6       12694        BAL   JP,CHKIS                   CHKIS                           87353021
 00A1EA 45E0 B000      01F18       12695        BAL   JP,GETWD                   -GETWD                          87360021
 00A1EE 45E0 B088      01FA0       12696        BAL   JP,CHKBCD                  -CHKBCD-UNQUAL OR MAKE UNQU     87367021
 00A1F2 47F0 FC42      0A1FA       12697          BC    UNCOND,*+NX8               YES-*+8                       87374021
 00A1F6 47F0 FC62      0A21A       12698        BC    UNCOND,STRKNU               NO-STRKNU                      87381021
 00A1FA 5820 C834      017C4       12699        L     JB,QNMCON                  ADDR OF QNMTBL                  87388021
 00A1FE 9620 D34E      0037E       12700          OI    INSRSW,XX20               FOR INSERT                     87395021
 00A202 45E0 B410      02328       12701        BAL   JP,MVQLCK                  -MVQLCK                         87402021
 00A206 D201 D468 D9D2 00498 00A02 12702          MVC   FSETAN+NX2(LX2),PONTER     DISPLACEMENT AND              87409021
 00A20C D201 D466 D9D0 00496 00A00 12703          MVC   FSETAN(LX2),SAVSIZ        SIZE TO WORK AREA              87416021
 00A212 9640 D43D      0046D       12704          OI    FSETKA,XX40               SET T-A SW TO '1' FOR BCD-N    87423021
1PH1A     IKFCBL10                                                                                              PAGE  254
-  LOC  OBJECT CODE    ADDR1 ADDR2  STMT   SOURCE STATEMENT                                       ASM 0201 11.03 02/14/15
000A216 47F0 FC6E      0A226       12705        B     STRKNV                    CHECK FOR CHARACTERS             87430021
 00A21A 45E0 FCEE      0A2A6       12706 STRKNU BAL   JP,SELNLT                  INT NUM LIT                     87437021
 00A21E 4000 D466      00496       12707        STH   JR,FSETAN                  STORE BINARY NUMBER             87444021
 00A222 9680 D43D      0046D       12708          OI    FSETKA,XX80               SET T-A SW TO '2' FOR INTEG    87451021
 00A226                            12709 STRKNV DS    0H                                                         87458021
 00A226 45E0 B000      01F18       12710        BAL   JP,GETWD                  -GETWD                           87465021
 00A22A D501 C6E4 A8A4 01674 03494 12711          CLC   CURCOD(LX2),CHARCN        CHARACTER                      87472021
 00A230 4770 FA68      0A020       12712        BC    NOTEQ,SAENT2                NO-SAENT2                      87479021
 00A234 47F0 FA64      0A01C       12713        BC    UNCOND,SAENT                -SAENT                         87486021
 00A238 45E0 B0DC      01FF4       12714 STRLIM BAL   JP,CHKCLS                *WORD IS TRACK-LIMIT              87493021
 00A23C 9110 D354      00384       12715          TM    FLTSW,XX10                ONLY FLT CLAUSE                87500021
 00A240 4710 FAE8      0A0A0       12716        BC    ONES,SBENT                  NO-SBENT                       87507021
 00A244 45E0 B18E      020A6       12717        BAL   JP,CHKIS                   -CHKIS                          87514021
 00A248 45E0 B000      01F18       12718        BAL   JP,GETWD                   -GETWD                          87521021
 00A24C 45E0 FCEE      0A2A6       12719        BAL   JP,SELNLT                  INT NUM LIT                     87528021
 00A250 4000 D436      00466       12720        STH   JR,FSETLM                                                  87535021
 00A254 9610 D354      00384       12721          OI    FLTSW,XX10                SET 'ON' FLTSW                 87542021
 00A258 45E0 B000      01F18       12722        BAL   JP,GETWD                   -GETWD                          87549021
 00A25C D501 C6E4 A55C 01674 0314C 12723          CLC   CURCOD(LX2),TRKCON        TRACKS                         87556021
 00A262 4770 FA68      0A020       12724        BC    NOTEQ,SAENT2                NO-SAENT2                      87563021
 00A266 47F0 FA64      0A01C       12725        BC    UNCOND,SAENT                -SAENT                         87570021
 00A26A 9500 D446      00476       12726 SEENT    CLI   FSEFN,XX00                FILE NAME PRESENT              87577021
 00A26E 4780 FCE2      0A29A       12727        BC    EQ,SELEND                   NO-SELEND                      87584021
 00A272 4170 D446      00476       12728        LA    JG,FSEFN                   ADDR OF FILE NAME               87591021
 00A276 45E0 B5A0      024B8       12729        BAL   JP,SCHENV                  SEARCH ENVTBL                   87598021
 00A27A 9140 D34D      0037D       12730          TM    SCHSW,XX40                TEST - ZERO IF NOT FOUND       87605021
 00A27E 4780 FCD2      0A28A       12731        BC    ZERO,SELPUT                 NOT FOUND - SELPUT             87612021
 00A282 45E0 DA7C      00AAC       12732        BAL   JP,MSG12                   -MSG12                          87619021
 00A286 47F0 FCE2      0A29A       12733        BC    UNCOND,SELEND               -SELEND                        87626021
 00A28A 5820 C844      017D4       12734 SELPUT L     JB,ENVCON                  ENVTBL ADDR                     87633021
 00A28E 4170 D424      00454       12735        LA    JG,FSEGSN                  WORK AREA ADDR                  87640021
 00A292 4140 0056      00056       12736        LA    JD,ENVSIZ                  SIZE OF ENTRY OF ENVTBL         87647021
 00A296 45E0 B464      0237C       12737        BAL   JP,MVSERT                  PUT ENTRY INTO ENVTBL           87654021
 00A29A 45E0 B0B4      01FCC       12738 SELEND BAL   JP,EOSTST                  EOS TEST                        87661021
 00A29E 5890 C038      00FC8       12739        L     JJ,ENVDV1                  APPLY SCN BASE                  87668021
 00A2A2 47F0 F1B0      09768       12740        BC    UNCOND,ENVSL                -ENVSL                         87675021
                                   12741 *                                                                       87682021
                                   12742 *****     INTEGRAL NUMERIC LITERAL CHECK - CONVERT TO BINARY IN REG     87689021
                                   12743 *                                                                       87696021
 00A2A6 9108 C6E1      01671       12744 SELNLT   TM    CURSW,XX08                INT-NUM-LIT                    87703021
 00A2AA 4780 FAF0      0A0A8       12745        BC    ZERO,SCENT                  NO-SCENT                       87710021
 00A2AE D200 D980 C6E5 009B0 01675 12746          MVC   REGWOK(LX1),CURN          LIT LENGTH FOR L2              87717021
 00A2B4 9670 D980      009B0       12747          OI    REGWOK,XX70               LENGTH OF 1- FOR L1            87724021
 00A2B8 1711                       12748        XR    JA,JA                      CLEAR REG                       87731021
 00A2BA 4310 D980      009B0       12749        IC    JA,REGWOK                  L1 AND L2 TO REG                87738021
 00A2BE 4B10 C152      010E2       12750        SH    JA,HWTHRE                  ADJ L2 BY -3                    87745021
 00A2C2 4410 FD14      0A2CC       12751        EX    JA,SLZAP                   LIT TO WORK AREA                87752021
 00A2C6 4F00 D978      009A8       12752        CVB   JR,WORKDA                  CONVERT TO BINARY               87759021
 00A2CA 07FE                       12753        BCR   UNCOND,JP                   -RETURN JP                     87766021
 00A2CC F800 D978 C6E8 009A8 01678 12754 SLZAP    ZAP   WORKDA(LX0),CURBCD+NX2(LX0) 'EX' ZAP                     87773021
                                   12755 *                                                                       87780021
                                   12756 *****     COMMON ROUTINE FOR SYM ACT REC KEY     *****                  87787021
                                   12757 *                                                                       87794021
                                   12758 *                                                                       87801021
 00A2D2 50E0 D878      008A8       12759 CHKSAR ST    JP,SV1F01                  SAVE LINK REG                   87808021
1PH1A     IKFCBL10                                                                                              PAGE  255
-  LOC  OBJECT CODE    ADDR1 ADDR2  STMT   SOURCE STATEMENT                                       ASM 0201 11.03 02/14/15
000A2D6 45E0 B16A      02082       12760        BAL   JP,CHKKEY             CHECK FOR 'KEY'                      87815021
 00A2DA 45E0 B18E      020A6       12761        BAL   JP,CHKIS              CHECK FOR 'IS'                       87822021
 00A2DE 45E0 B000      01F18       12762        BAL   JP,GETWD              GET WORD                             87829021
 00A2E2 5820 C834      017C4       12763        L     JB,QNMCON                                                  87836021
 00A2E6 9620 D34E      0037E       12764          OI    INSRSW,XX20                                              87843021
 00A2EA 9610 D34E      0037E       12765          OI    OD2SW,XX10                SET'ON' OD2SW FOR BYTE OF Z    87850021
 00A2EE 45E0 B410      02328       12766        BAL   JP,MVQLCK             IS CUR UNQUAL BCD NME                87857021
 00A2F2 47F0 FD42      0A2FA       12767          BC    UNCOND,*+NX8     RESTORE LINK REG                        87864021
 00A2F6 47F0 FAF0      0A0A8       12768        BC    UNCOND,SCENT          ERROR MSG                            87871021
 00A2FA 58E0 D878      008A8       12769        L     JP,SV1F01                  RESTORE LINK REG                87878021
 00A2FE 07FE                       12770        BCR   UNCOND,JP             RETURN                               87885021
                                   12771 *                                                                       87892021
                                   12772 ***                           CONVERT TO BINARY                         87899021
                                   12773 *                                                                       87906021
 00A300 F273 D978 5000 009A8 00000 12774 CNVDEV   PACK  WORKDA,DX0(LX4,R5)        CHANGE DEV NUM TO PACKED DE    87913021
 00A306 4F30 D978      009A8       12775        CVB   R3,WORKDA                  DEV-NUM IN BINARY TO R3         87920021
 00A30A 07FE                       12776        BR    R14                        RETURN                          87927021
                                   12777 *                                                                       87934021
                                   12778 ****             IF THE DEVICE IS A PUNCH ADD ONE TO            ***     87941021
                                   12779 ****        CURRENT DEVICE CODE TO INDICATE DEVICE IS A PUNCH   ***     87948021
                                   12780 *                                                                       87955021
 00A30C 95D7 C6ED      0167D       12781 CODDEV   CLI   BCDP,XXD7                 DEVICE FLD FOLL BY PUNCH       87962021
 00A310 4770 FD60      0A318       12782        BNE   RDER                  SET DEV TYPE CODE                    87969021
 00A314 4A40 C14E      010DE       12783        AH    R4,HWONE                   SET CODE FOR PUNCH              87976021
 00A318 4240 D443      00473       12784 RDER   STC   R4,FSEDTC                  STORE CODE IN DEVICE TYPE C     87983021
 00A31C 47F0 F84A      09E02       12785        B     FILEOR                     GO TO FILE ORGANIZATION SCA     87990021
                                   12786 *                                                                       87997021
 00A320 9204 C6C2      01652       12787 SPMSET   MVI   CURCNT,XX04               SET LENGTH IN CURCNT FOR PA    88004021
 00A324 D203 C6C3 3000 01653 00000 12788          MVC   CURWD(LX4),DX0(R3)         STORE FOR ERROR PARAM         88011021
 00A32A 45E0 DCBC      00CEC       12789        BAL   JP,MSG156                  MESSAGE                         88018021
 00A32E 07F9                       12790        BR    JJ                         RETURN                          88025021
1PH1A     IKFCBL10                                                                                              PAGE  256
-  LOC  OBJECT CODE    ADDR1 ADDR2  STMT   SOURCE STATEMENT                                       ASM 0201 11.03 02/14/15
0                                  12792 *=2          APPLY SCAN                                                 88039021
                                   12793 *                                                                       88046021
 00A330                            12794 IKF115 CSECT                                                            88053021
                                   12795 ******    APPLY SCAN    ******                                          88060021
                             00000 12796        USING ENFSDS,JB                                                  88067021
                                   12797 *                                                                       88074021
 00A330 45E0 B0CE      01FE6       12798 APPSCN BAL   JP,CHKVRB                  -CHKVRB                         88081021
 00A334 45E0 B000      01F18       12799        BAL   JP,GETWD                   GET WORD                        88088021
 00A338 9554 C6E4      01674       12800          CLI   CURCOD,XX54               COBOL WORD                     88095021
 00A33C 4770 90E0      0A410       12801        BC    NOTEQ,APPM28          ERROR MSG                            88102021
                                   12802 *        BNE   APPBCD                   APPLY-SA                        88109021
 00A340 954D C6E5      01675       12803        CLI   CURN,XX4D                 EXTENDED-SEARCH                  88116021
 00A344 4780 905C      0A38C       12804        BC    EQ,EXTSCH                 -EXTSCH                          88123021
 00A348 9551 C6E5      01675       12805        CLI   CURN,XX51                 CYL-INDEX                        88130021
 00A34C 4780 907A      0A3AA       12806        BE    CYLIDX                    -CYLIDX                          88137021
 00A350 9552 C6E5      01675       12807        CLI   CURN,XX52                 WRITE-VERIFY                     88144021
 00A354 4780 9084      0A3B4       12808        BC    EQ,WRTVRF                 -WRTVRF                          88151021
 00A358 954F C6E5      01675       12809        CLI   CURN,XX4F                 CYL-OVERFLOW                     88158021
 00A35C 4780 908E      0A3BE       12810        BC    EQ,CYLOVF                 -CYLOVF                          88165021
 00A360 954E C6E5      01675       12811        CLI   CURN,XX4E                 MASTER-INDEX                     88172021
 00A364 4780 9098      0A3C8       12812        BC    EQ,MSTIDX                 -MSTIDX                          88179021
 00A368 950C C6E5      01675       12813          CLI   CURN,XX0C                COREINDEX                       88186021
 00A36C 4780 90A2      0A3D2       12814        BC    EQ,CORIDX                 -CORIDX                          88193021
 00A370 9554 C6E5      01675       12815          CLI   CURN,XX54                 RECORD-OVERFLOW                88200021
 00A374 4780 9134      0A464       12816        BC    EQ,APPRO              CHECK FOR 'ON'                       88207021
 00A378 9525 C6E5      01675       12817          CLI   CURN,XX25                REORG-CRITERIA                  88214021
 00A37C 4780 9154      0A484       12818        BE    APRCT                 CHKCLS                               88221021
                                   12819 *        CLI   CURN,X'9E'              NO HIT ?                         88228021
                                   12820 *        BE    APNRP                    YES - SCAN                      88235021
 00A380 950F C6E5      01675       12821          CLI   CURN,XX0F                 WRITE-ONLY                     88242021
 00A384 4780 90EC      0A41C       12822        BC    EQ,APPWON                   YES                            88249021
 00A388 47F0 90E0      0A410       12823        BC    UNCOND,APPM28         ERROR MSG                            88256021
 00A38C D20F D515 C670 00545 01600 12824 EXTSCH MVC   EPARAM+NX1(DX16),ESCH15   SET UP MESSAGE                   88263021
 00A392 9223 D514      00544       12825 APPJCL MVI   EPARAM,XX23               SET UP MESSAGE                   88270021
 00A396 45E0 DC74      00CA4       12826        BAL   JP,MSG138                 MSG 138                          88277021
 00A39A 45E0 B000      01F18       12827 APIGNR BAL   JP,GETWD                  GET WORD                         88284021
 00A39E 9130 C6E4      01674       12828        TM    CURCOD,XX30               MAJOR IS ZERO                    88291021
 00A3A2 4780 F2D4      0988C       12829        BZ    ENVSW                     YES - ENVSW                      88298021
 00A3A6 47F0 906A      0A39A       12830        B     APIGNR                    -APIGNR                          88305021
 00A3AA D209 D515 C69A 00545 0162A 12831 CYLIDX MVC   EPARAM+NX1(DX10),CYLX9    SET UP MESSAGE                   88312021
 00A3B0 47F0 9062      0A392       12832        B     APPJCL                    -APPJCL                          88319021
 00A3B4 D20C D515 C6A4 00545 01634 12833 WRTVRF MVC   EPARAM+NX1(NX13),WVER12   SET UP MESSAGE                   88326021
 00A3BA 47F0 9062      0A392       12834        B     APPJCL                    -APPJCL                          88333021
 00A3BE D20C D515 C680 00545 01610 12835 CYLOVF MVC   EPARAM+NX1(NX13),CYOV12   SET UP MESSAGE                   88340021
 00A3C4 47F0 9062      0A392       12836        B     APPJCL                    -APPJCL                          88347021
 00A3C8 D20C D515 C68D 00545 0161D 12837 MSTIDX MVC   EPARAM+NX1(NX13),MSTX12   SET UP MESSAGE                   88354021
 00A3CE 47F0 9062      0A392       12838        B     APPJCL                    -APPJCL                          88361021
 00A3D2 D501 C79A A06B 0172A 02C5B 12839 CORIDX CLC   NXTCOD(LX2),TOCON         IS 'TO' IN NXTCOD          9321  88368021
 00A3D8 4770 90C4      0A3F4       12840        BC    NOTEQ,COR1                NO - COR1                  9321  88375021
 00A3DC 45E0 B000      01F18       12841        BAL   JP,GETWD                  GET NEXT WORD              9321  88382021
 00A3E0 9523 C79A      0172A       12842        CLI   NXTCOD,XX23               NEXT IS BCD NAME?          9321  88389021
 00A3E4 4770 91C0      0A4F0       12843        BC    NOTEQ,APPM30              FLAG 'TO' W/O DDNAME       9321  88396021
 00A3E8 45E0 DD40      00D70       12844 COR2   BAL   JP,MSG189                 MSG TO FLAG 'TO DATANM'    9321  88403021
 00A3EC 45E0 B000      01F18       12845        BAL   JP,GETWD                  GET NEXT WORD              9321  88410021
 00A3F0 47F0 910C      0A43C       12846        B     APPMT2                    - APPMT2                   9321  88417021
1PH1A     IKFCBL10                                                                                              PAGE  257
-  LOC  OBJECT CODE    ADDR1 ADDR2  STMT   SOURCE STATEMENT                                       ASM 0201 11.03 02/14/15
000A3F4 9523 C79A      0172A       12847 COR1   CLI   NXTCOD,XX23               NXT IS BCD ?               9321  88424021
 00A3F8 4770 910C      0A43C       12848        BNE   APPMT2                    NO - APPMT2                9321  88431021
 00A3FC 4170 C79B      0172B       12849        LA    JG,NXTN                   SET UP FOR ENVSCN          9321  88438021
 00A400 45E0 B5A0      024B8       12850        BAL   JP,SCHENV                 SEARCH FILENAME            9321  88445021
 00A404 9140 D34D      0037D       12851        TM    SCHSW,XX40                FILE NAME FOUND ?          9321  88452021
 00A408 4710 910C      0A43C       12852        BO    APPMT2                    YES - APPMT2               9321  88459021
 00A40C 47F0 90B8      0A3E8       12853        B     COR2                      - COR2                     9321  88466021
 00A410 45E0 DABC      00AEC       12854 APPM28 BAL   JP,MSG28                   -MSG28                          88473021
 00A414 45E0 ACD2      038C2       12855        BAL   JP,SKIP                    -SKIP                           88480021
 00A418 47F0 F2D4      0988C       12856        B     ENVSW                 GET DELIMITER                        88487021
 00A41C 45E0 B1B2      020CA       12857 APPWON BAL   JP,CHKON                   -CHKON                          88494021
 00A420 45E0 91CC      0A4FC       12858        BAL   JP,APPGET                  -APPGET                         88501021
 00A424 9102 2019      00019       12859          TM    DX25(JB),XX02             FIRST CLAUSE FOR FN            88508021
 00A428 4780 9104      0A434       12860        BC    ZERO,APWONA                 YES-APWONA                     88515021
 00A42C 45E0 DB14      00B44       12861        BAL   JP,MSG50                   -MSG50                          88522021
 00A430 47F0 91D0      0A500       12862        BC    UNCOND,APPGTA               -APPGTA                        88529021
 00A434 9602 2019      00019       12863 APWONA   OI    DX25(JB),XX02             SET 'ON' WRITE-ONLY BIT        88536021
 00A438 47E0 91D0      0A500       12864        BC    JP,APPGTA                   -APPGTA                        88543021
                                   12865 *APPBCD  CLI   CURCOD,X'23'             BCD-NAME                        88550021
                                   12866 *        BE    APBCD2                   YES                             88557021
                                   12867 *        TM    CURSW,X'08'              INT-NUM-LIT                     88564021
                                   12868 *        BZ    APPM28                   NO                              88571021
                                   12869 *        MVI   CURCOD,X'23'             MAKE IT                         88578021
                                   12870 *        MVC   CURN(31),CURCNT                INTO BCDNAME              88585021
                                   12871 *APBCD2  BAL   JP,BLNKRT                SET UP WITH BLANKS              88592021
                                   12872 *        MVC   APWSN(31),CURCNT         SN W/BLANKS TO APWSN            88599021
                                   12873 *APBCD1  L     JB,QNMCON                ENTER SN                        88606021
                                   12874 *        OI    INSRSW,X'20'                  INTO QNMTBL                88613021
                                   12875 *        BAL   JP,MVQLCK                                                88620021
                                   12876 *        BAL   JP,CHKTO                                                 88627021
                                   12877 *        BAL   JP,GETWD                                                 88634021
                                   12878 *        CLI   CURCOD,X'23'             BCD NAME                        88641021
                                   12879 *      BNE   APPM28                    NO                               88648021
                                   12880 *        BAL   JP,BLNKRT                SET UP WITH BLANKS              88655021
                                   12881 *        MVC   APWSAN(31),CURCNT        SAN W/BLANKS TO APWSAN          88662021
                                   12882 *        L     JG,COSADR                                                88669021
                                   12883 *        LH    JD,RPDCTR-COS(JG)        ADD                             88676021
                                   12884 *        LA    JD,1(JD)                     1  TO                       88683021
                                   12885 *        STH   JD,RPDCTR-COS(JG)                  RPDNUMBER             88690021
                                   12886 *        STH   JD,APWRPD                STORE RPDNUM IN WORKAREA        88697021
                                   12887 *        LA    JD,66                    SIZE OF APPTBL ENTRY            88704021
                                   12888 *        MVC   APWCYL(2),H5             STORE 5 CYCLES                  88711021
                                   12889 *        L     JB,APPCON                                                88718021
                                   12890 *        LA    JG,APWTBL                ADDR OF WORK AREA               88725021
                                   12891 *        BAL   JP,MVSERT                ENTER IN TBL                    88732021
                                   12892 *        MVC   APTRSV(4),ABSADD         SAVE ADDR OF ENTRY              88739021
                                   12893 *        CLI   NXTCOD,X'23'             BCDNAME                         88746021
                                   12894 *        BE    APPGWD                   YES                             88753021
                                   12895 *        BAL   JP,MSG96                                                 88760021
                                   12896 *        B     APPFOR                                                   88767021
                                   12897 *APPGWD  BAL   JP,GETWD                                                 88774021
                                   12898 *        LA    JG,CURN                  ADDR OF NAME                    88781021
                                   12899 *        BAL   JP,SCHENV                WAS FILE ENTERED IN ENVTBL      88788021
                                   12900 *        TM    SCHSW,X'40'                                              88795021
                                   12901 *        BO    APAPP4                   YES                             88802021
1PH1A     IKFCBL10                                                                                              PAGE  258
-  LOC  OBJECT CODE    ADDR1 ADDR2  STMT   SOURCE STATEMENT                                       ASM 0201 11.03 02/14/15
0                                  12902 *        BAL   JP,MSG29                 NO                              88809021
                                   12903 *        B     APPNXT                                                   88816021
                                   12904 *        USING ENFSDS,JB                                                88823021
                                   12905 *APAPP4  TM    ENFFL2,ENFAPP            FIRST CLAUSE FOR FILE           88830021
                                   12906 *        BZ    APAPP5                   YES                             88837021
                                   12907 *        BAL   JP,MSG50                 NO                              88844021
                                   12908 *        B     APPNXT                                                   88851021
                                   12909 *APAPP5  OI    ENFFL2,ENFAPP            SET APPLY SW ON IN ENVTBL       88858021
                                   12910 *        MVC   ENFAPT(2),PONTER         SAVE PTR TO APPTBL ENTRY        88865021
                                   12911 *APPNXT  CLI   NXTCOD,X'23'             BCD NAME                        88872021
                                   12912 *        BE    APPGWD                   YES                             88879021
                                   12913 *APPFOR  BAL   JP,CHKFOR                                                88886021
                                   12914 *        BAL   JP,GETWD                                                 88893021
                                   12915 *        TM    CURSW,X'08'              INT-NUM-LIT                     88900021
                                   12916 *        BO    APPCMT                   YES                             88907021
                                   12917 *        BAL   JP,CMTENT                MAKE ENTRY TO COMTBL            88914021
                                   12918 *        MVC   0(4,JB),APWTBL           PUT RPDNUM+5CYCLES              88921021
                                   12919 *        B     APPMAJ                                                   88928021
                                   12920 *APPCMT  BAL   JP,CNVBIN                CONVERT NUM TO BINARY           88935021
                                   12921 *        L     JG,APTRSV                GET ADDR OF APPTBL ENTRY        88942021
                                   12922 *        STH   JB,WORKHC                AND PUT NUMBER OF CYCLES        88949021
                                   12923 *        MVC   2(2,JG),WORKHC           IN  APPTBL ENTRY                88956021
                                   12924 *        BAL   JP,CMTENT                MAKE ENTRY IN COMTBL            88963021
                                   12925 *        MVC   0(2,JB),APWTBL           STORE RPDNUM IN COMTBL          88970021
                                   12926 *        MVC   2(2,JB),WORKHC           STORE NUM OF CYCLES IN COMT     88977021
                                   12927 *        BAL   JP,GETWD                                                 88984021
                                   12928 *        CLC   CURCOD(2),CYLCON         CYCLES                          88991021
                                   12929 *        BNE   APPMAJ         NO                                        88998021
                                   12930 *        BAL   JP,GETWD                 YES                             89005021
                                   12931 *APPMAJ  TM    CURCOD,X'30'             MAJOR CODE IS ZERO              89012021
                                   12932 *        BZ    IOCEOJ                   YES                             89019021
                                   12933 *        B     APPM30                                                   89026021
                             0A43C 12934 APPMT2 EQU   *                                                          89033021
 00A43C 45E0 B1B2      020CA       12935        BAL   JP,CHKON              CHECK ON                             89040021
 00A440 45E0 91CC      0A4FC       12936        BAL   JP,APPGET             UNQUAL BCD NAME?                     89047021
 00A444 9108 201A      0001A       12937        TM    ENFFL4,ENFICI              IS IT FIRST CLAUSE FOR FILE     89054021
 00A448 4780 9124      0A454       12938        BZ    ICIDN                      YES                             89061021
 00A44C 45E0 DB14      00B44       12939        BAL   JP,MSG50                   NO                              89068021
 00A450 47F0 91D0      0A500       12940        B     APPGTA                UNQUAL BCD NAME?                     89075021
 00A454 9608 201B      0001B       12941 ICIDN  OI    ENFFL5,ENFICI              TURN HIGHEST LEVEL IND BIT      89082021
 00A458 5810 C814      017A4       12942        L     JA,COSADR                                                  89089021
 00A45C 9604 11D3      001D3       12943        OI    PH1BYTE,INITBIT           TURN ON CORE-INDEX BIT           89096021
 00A460 47F0 91D0      0A500       12944        B     APPGTA                UNQUAL BCD NAME?                     89103021
 00A464 45E0 B1B2      020CA       12945 APPRO  BAL   JP,CHKON              CHECK FOR 'ON'                       89110021
 00A468 45E0 91CC      0A4FC       12946        BAL   JP,APPGET             UNQUAL BCD NAME?                     89117021
 00A46C 9101 201A      0001A       12947        TM    ENFFL4,ENFROS              IS IT FIRST CLAUSE FOR FILE     89124021
 00A470 4780 914C      0A47C       12948        BZ    APPROV                     YES                             89131021
 00A474 45E0 DB14      00B44       12949        BAL   JP,MSG50                   NO                              89138021
 00A478 47F0 91D0      0A500       12950        B     APPGTA                UNQUAL BCD NAME?                     89145021
 00A47C 9601 201A      0001A       12951 APPROV OI    ENFFL4,ENFROS              TURN RECORD OVERFLOW BIT ON     89152021
 00A480 47F0 91D0      0A500       12952        B     APPGTA                UNQUAL BCD NAME?                     89159021
                                   12953 *APNRP   BAL   JP,GETWD                                                 89166021
                                   12954 *        CLC   CURCODN2),RECCON         RECORD                          89173021
                                   12955 *        BNE   APNRP1                   NO                              89180021
                                   12956 *        BAL   JP,GETWD                                                 89187021
1PH1A     IKFCBL10                                                                                              PAGE  259
-  LOC  OBJECT CODE    ADDR1 ADDR2  STMT   SOURCE STATEMENT                                       ASM 0201 11.03 02/14/15
0                                  12957 *APNRP1  CLC   CURCOD(2),PRTCON         PROTECTION                      89194021
                                   12958 *        BNE   APPM28                   NO                              89201021
                                   12959 *        BAL   JP,CHKON                                                 89208021
                                   12960 *        BAL   JP,APPGET                                                89215021
                                   12961 *        TM    ENFFL3,ENFRPT            FIRST CLAUSE FOR FILE           89222021
                                   12962 *        BZ    APNRP2                   YES                             89229021
                                   12963 *        BAL   JP,MSG50                                                 89236021
                                   12964 *        B     APPGTA                                                   89243021
                                   12965 *APNRP2  OI    ENFFL3,ENFRPT            TURN ON NO REC PROTECT BIT      89250021
                                   12966 *        B     APPGTA                                                   89257021
 00A484 45E0 B0DC      01FF4       12967 APRCT  BAL   JP,CHKCLS             CHKCLS                               89264021
 00A488 45E0 9186      0A4B6       12968        BAL   JP,APCKDN             CHECK FOR 'TO'                       89271021
 00A48C 47F0 9164      0A494       12969        B     APRCT1                    GOOD ENTRY                       89278021
 00A490 47F0 91D0      0A500       12970        B     APPGTA                UNQUAL BCD NAME?                     89285021
 00A494 45E0 91CC      0A4FC       12971 APRCT1 BAL   JP,APPGET             UNQUAL BCD NAME?                     89292021
 00A498 9104 201B      0001B       12972        TM    ENFFL5,ENFREO             FIRST CLAUSE FOR FILE            89299021
 00A49C 4780 9178      0A4A8       12973        BZ    APRCT2                     YES                             89306021
 00A4A0 45E0 DB14      00B44       12974        BAL   JP,MSG50              ERROR MSG                            89313021
 00A4A4 47F0 91D0      0A500       12975        B     APPGTA                UNQUAL BCD NAME?                     89320021
 00A4A8 9604 201B      0001B       12976 APRCT2 OI    ENFFL5,ENFREO                                              89327021
 00A4AC D203 2052 D9D0 00052 00A00 12977          MVC   ENFRED(LX4),SAVSIZ       SAVE SIZE AND DISP FOR DN       89334021
 00A4B2 47F0 91D0      0A500       12978        B     APPGTA                UNQUAL BCD NAME?                     89341021
 00A4B6 50E0 D878      008A8       12979 APCKDN ST    JP,SV1F01                                                  89348021
 00A4BA 45E0 B1A0      020B8       12980        BAL   JP,CHKTO              CHECK FOR 'TO'                       89355021
 00A4BE 45E0 B000      01F18       12981        BAL   JP,GETWD              GET WORD                             89362021
 00A4C2 5820 C834      017C4       12982        L   JB,QNMCON              ENTER DN INTO QNMTBL                  89369021
 00A4C6 9620 D34E      0037E       12983          OI    INSRSW,XX20         TURN ON INSRSW                       89376021
 00A4CA 9610 D34E      0037E       12984          OI    OD2SW,XX10               TURN ON SW FOR BYTE OF 0        89383021
 00A4CE 45E0 B410      02328       12985        BAL   JP,MVQLCK             UNQUAL BCD NAME?                     89390021
 00A4D2 47F0 91B6      0A4E6       12986        B     APCKD1                    GOOD DN                          89397021
 00A4D6 45E0 DA90      00AC0       12987        BAL   JP,MSG17              ERROR MSG                            89404021
 00A4DA 45E0 B1B2      020CA       12988        BAL   JP,CHKON              CHECK FOR 'ON'                       89411021
 00A4DE 58E0 D878      008A8       12989        L     JP,SV1F01                 RESTORE REG                      89418021
 00A4E2 47FE 0004      00004       12990          B     DX4(JP)          RETURN                                  89425021
 00A4E6 45E0 B1B2      020CA       12991 APCKD1 BAL   JP,CHKON              CHECK FOR 'ON'                       89432021
 00A4EA 58E0 D878      008A8       12992        L     JP,SV1F01                                                  89439021
 00A4EE 07FE                       12993        BR    JP                    RETURN                               89446021
 00A4F0 45E0 DAC4      00AF4       12994 APPM30 BAL   JP,MSG30                   MSG 30                          89453021
 00A4F4 45E0 ACD2      038C2       12995        BAL   JP,SKIP                    SKIP                            89460021
 00A4F8 47F0 F2D4      0988C       12996        B     ENVSW                 GET DELIMITER                        89467021
                                   12997        DROP  JB                                                         89474021
                                   12998 *                                                                       89481021
                                   12999 *****    GET UNQUAL BCD NAME AND SEARCH ENVTBL    *****                 89488021
                                   13000 *           EXIT IF MAJOR '0' OR NAME FOUND                             89495021
                                   13001 *                                                                       89502021
 00A4FC 50E0 D87C      008AC       13002 APPGET ST    JP,SV1F02                  SAVE LINK REG                   89509021
 00A500 45E0 B000      01F18       13003 APPGTA BAL   JP,GETWD                   GET WORD                        89516021
 00A504 9523 C6E4      01674       13004          CLI   CURCOD,XX23               UNQUAL BCD NAME                89523021
 00A508 4780 91E8      0A518       13005        BC    EQ,APPSCH                   YES-APPSCH                     89530021
 00A50C 9130 C6E4      01674       13006          TM    CURCOD,XX30               MAJOR IS ZERO                  89537021
 00A510 4780 F2D4      0988C       13007        BZ    ENVSW                      NO - ENVSW                OS    89544021
 00A514 47F0 91C0      0A4F0       13008        BC    UNCOND,APPM30               -APPM30                        89551021
 00A518 4170 C6E5      01675       13009 APPSCH LA    JG,CURN                    ADDR OF NAME                    89558021
 00A51C 45E0 B5A0      024B8       13010        BAL   JP,SCHENV                  SCHENV                          89565021
 00A520 9140 D34D      0037D       13011          TM    SCHSW,XX40                TEST IF ZERO NOT FOUND         89572021
1PH1A     IKFCBL10                                                                                              PAGE  260
-  LOC  OBJECT CODE    ADDR1 ADDR2  STMT   SOURCE STATEMENT                                       ASM 0201 11.03 02/14/15
000A524 4710 9206      0A536       13012        BC    ONES,APEXIT                 FOUND-APEXIT                   89579021
 00A528 45E0 DAC0      00AF0       13013        BAL   JP,MSG29                   MSG 29                          89586021
 00A52C D507 D3F7 A73D 00427 0332D 13014          CLC   VERBNM(LX8),MULTCN        IN MULTIPLE CLAUSE ?           89593021
 00A532 4770 91D0      0A500       13015        BNE   APPGTA                     NO - CONTINUE SEARCH            89600021
 00A536 58E0 D87C      008AC       13016 APEXIT L     JP,SV1F02                  RESTORE LINK REG                89607021
 00A53A 07FE                       13017        BCR   UNCOND,JP                  RETURN                          89614021
 00A53C 45E0 B0CE      01FE6       13018 MULTSN BAL   JP,CHKVRB                  SAVE VERB NM                    89621021
 00A540 45E0 B000      01F18       13019        BAL   JP,GETWD                  GET WORD                         89628021
 00A544 D501 C6E4 A17E 01674 02D6E 13020        CLC   CURCOD(LX2),FILECD        FILE HIT                         89635021
 00A54A 4780 9222      0A552       13021        BE    MTAPCK                     YES - CK TAPE                   89642021
 00A54E 45E0 DA84      00AB4       13022        BAL   JP,MSG14                   FILE NOT FOUND IN MULT FILE     89649021
 00A552 D501 C79A A22D 0172A 02E1D 13023 MTAPCK   CLC   NXTCOD(LX2),TAPCON        TAPE HIT ?                     89656021
 00A558 4770 9230      0A560       13024        BNE   MCNTCK                     NO - CK CONTAINS                89663021
 00A55C 45E0 B000      01F18       13025 MGTCON BAL   JP,GETWD                   -GETWD                          89670021
 00A560 D501 C79A A6D7 0172A 032C7 13026 MCNTCK   CLC   NXTCOD(LX2),CONTCN        CONTAINS HIT ?                 89677021
 00A566 4780 922C      0A55C       13027        BE    MGTCON                     YES- GETWD                      89684021
 00A56A 1B11                       13028        SR    JA,JA                      0 IN REG                        89691021
 00A56C 45E0 91CC      0A4FC       13029        BAL   JP,APPGET                  NO - SETUP FOR ENVTBL SEARC     89698021
 00A570 4111 0001      00001       13030          LA    JA,DX1(JA)                INCREMENT REG                  89705021
 00A574 1831                       13031        LR    JC,JA                                                      89712021
 00A576 D501 C79A A750 0172A 03340 13032          CLC   NXTCOD(LX2),POSICN   POSITION IN NEXT                    89719021
 00A57C 4770 9280      0A5B0       13033        BNE   MINSRT                FOUND IN ENVTBL?                     89726021
 00A580 D21F 9474 C6E4 0A7A4 01674 13034          MVC   MSAVCU(LX32),CURCOD       SAVE FILE NAME                 89733021
 00A586 45E0 B000      01F18       13035        BAL   JP,GETWD                   GET POSITION                    89740021
 00A58A 45E0 B000      01F18       13036        BAL   JP,GETWD                   GET INTEGER                     89747021
 00A58E 9108 C6E1      01671       13037          TM    CURSW,XX08                CUR INT-NUM-LIT ?              89754021
 00A592 4770 926E      0A59E       13038        BC    NOTZER,MCNBIN              YES - CONVERT                   89761021
 00A596 45E0 DAD8      00B08       13039        BAL   JP,MSG35                   POSITION NOT AN INTEGER         89768021
 00A59A 47F0 927A      0A5AA       13040        B     MFILMV                     FILE NM TO CURRENT              89775021
 00A59E 1842                       13041 MCNBIN LR    JD,JB                      SAVE ENVTBL ADDR OF FILENM      89782021
 00A5A0 45E0 B528      02440       13042        BAL   JP,CNVBIN                  CONVERT TO BINARY               89789021
 00A5A4 1813                       13043        LR    JA,JC                      RESTORE POSITION COUNT          89796021
 00A5A6 1832                       13044        LR    JC,JB                      POSIT INTEGER BIN IN JC         89803021
 00A5A8 1824                       13045        LR    JB,JD                      RESTORE ENVTBL FILE ADDR        89810021
 00A5AA D21F C6E4 9474 01674 0A7A4 13046 MFILMV   MVC   CURCOD(LX32),MSAVCU       RESTORE FILE NM IN CURRENT     89817021
 00A5B0 9140 D34D      0037D       13047 MINSRT   TM    SCHSW,XX40                FOUND IN ENVTBL                89824021
 00A5B4 4780 91D0      0A500       13048        BC    ZERO,APPGTA                NO - APPGET                     89831021
 00A5B8 9500 201D      0001D       13049          CLI   DX29(JB),XX00             PREVIOUS MULTIPLE CLAUSE       89838021
 00A5BC 4780 9298      0A5C8       13050        BE    MOKINS                     NO -OK                          89845021
 00A5C0 45E0 DB10      00B40       13051        BAL   JP,MSG49                   ** ALREADY ASSIGN THIS MULT     89852021
 00A5C4 47F0 91D0      0A500       13052        B     APPGTA                     NEXT FILE NM SEARCH             89859021
                             00040 13053 BLANKS EQU   X'40'                                                4780  89866021
 00A5C8 9608 201A      0001A       13054 MOKINS   OI    DX26(JB),XX08             SET ON MULT TAPE SW IN FS T    89873021
 00A5CC 4232 001D      0001D       13055          STC   JC,DX29(JB)               STORE POSITION INTEGER         89880021
 00A5D0 47F0 91D0      0A500       13056        B     APPGTA                     NEXT FILE NM SEARCH             89887021
 00A5D4 1B77                       13057 LOCNM1 SR    R7,R7                     ZERO R7                          89894021
 00A5D6 4370 9444      0A774       13058        IC    R7,EXTNSW                 HYPHEN SWITCH TO R7              89901021
 00A5DA 4970 C150      010E0       13059        CH    R7,HWTWO                  LENGTH OF TWO OR LESS?           89908021
 00A5DE 4720 9428      0A758       13060        BH    ER127A                    GREATER - ER127A                 89915021
 00A5E2 4177 0001      00001       13061        LA    R7,DX1(R7)                INCREMENT COUNT                  89922021
 00A5E6 4270 9444      0A774       13062        STC   R7,EXTNSW                 RESTORE HYPHEN SWITCH            89929021
 00A5EA 47F0 92E8      0A618       13063        B     LOCNAM                    - LOCNAM                         89936021
 00A5EE                            13064 RRNSCN DS    0H                                                         89943021
 00A5EE D700 9444 9444 0A774 0A774 13065        XC    EXTNSW,EXTNSW             ZERO EXTNSW                      89950021
 00A5F4 45E0 B0CE      01FE6       13066        BAL   JP,CHKVRB                  -CHKVRB                         89957021
1PH1A     IKFCBL10                                                                                              PAGE  261
-  LOC  OBJECT CODE    ADDR1 ADDR2  STMT   SOURCE STATEMENT                                       ASM 0201 11.03 02/14/15
000A5F8 45E0 B000      01F18       13067        BAL   JP,GETWD                   -GETWD                          89964021
 00A5FC D501 C6E4 A043 01674 02C33 13068          CLC   CURCOD(LX2),ONCON         ON                             89971021
 00A602 4770 90E0      0A410       13069        BC    NOTEQ,APPM28               NO - APPM28                     89978021
 00A606 45E0 B000      01F18       13070        BAL   JP,GETWD                   -GETWD                          89985021
 00A60A 9523 C6E4      01674       13071          CLI   CURCOD,XX23               BCD NAME                       89992021
 00A60E 4770 9428      0A758       13072        BNE   ER127A                     NO - ERROR                      89999021
 00A612 1B11                       13073        SR    R1,R1                      ZERO REG                        90006021
 00A614 4110 C6E5      01675       13074        LA    R1,CURBCD-LX1             BCD BEGINNING ADDR LESS 1        90013021
 00A618 4111 0001      00001       13075 LOCNAM   LA    R1,DX1(R1)                +1                             90020021
 00A61C 1871                       13076        LR    R7,R1                      SAVE BEGINNING                  90027021
 00A61E 45E0 B3D0      022E8       13077        BAL   JP,NOLDI              SET TRT LETTERS TO '0'               90034021
 00A622 DD08 1000 C35C 00000 012EC 13078        TRT   DX0(LX9,R1),NONLDH        SCAN TO NON ALPHA-NUM       0661 90041021
 00A628 45E0 B3E8      02300       13079        BAL   JP,NOLDO              RESTORE TRT LETTERS TO '1'           90048021
 00A62C 4780 9428      0A758       13080          BC    ZERO,ER127A              SIZE OF NAME OK           58937 90055021
 00A630 9560 1000      00000       13081          CLI   DX0(R1),XX60              HYPHEN                         90062021
 00A634 4780 92A4      0A5D4       13082        BE    LOCNM1                    YES - LOCNM1                     90069021
 00A638 9500 1000      00000       13083          CLI   DX0(R1),XX00              END OF EXT NAME ?              90076021
 00A63C 4770 9428      0A758       13084        BNE   ER127A                    NO - ERROR                       90083021
 00A640 1B17                       13085 RREXOK SR    R1,R7                      SIZE OF EXT NM                  90090021
 00A642 4210 C6E5      01675       13086        STC   R1,CURN                    SIZE OF NAME IN CURRENT         90097021
 00A646 0610                       13087          BCTR  R1,R0               DECREMENT FOR EXECUTE           2768 90104021
 00A648 4410 9446      0A776       13088          EX    R1,RRSAVEDD         SAVE DDNAME IN RRDDNAME         2768 90111021
 00A64C 9240 C6E6      01676       13089        MVI   CURBCD,BLANKS             CLEAR                      4780  90118021
 00A650 D206 C6E7 C6E6 01677 01676 13090        MVC   CURBCD+NX1(LX7),CURBCD    RECEIVING FIELD            4780  90125021
 00A656 4170 946C      0A79C       13091          LA    R7,RRDDNAME         POINT TO DDNAME                 2768 90132021
 00A65A 4410 944C      0A77C       13092          EX    R1,RREXMV           MOVE TO CURBCD                  2768 90139021
                                   13093 *                                                                       90146021
 00A65E 4170 C6E6      01676       13094        LA    R7,CURBCD                 ADDR TO START SEARCH       4780  90153021
 00A662 9601 C5F9      01589       13095        OI    EXTRSW,XX01               SET SW FOR EXT-NM IN RERUN 4780  90160021
 00A666 45E0 B5B0      024C8       13096        BAL   JP,EXTENV                 SEARCH ENVTBL FOR EXT-NM   4780  90167021
 00A66A 94FE C5F9      01589       13097        NI    EXTRSW,XXFE               RESET EXT-NM RERUN SW      4780  90174021
 00A66E 9140 D34D      0037D       13098          TM    SCHSW,XX40                NAME FOUND ?                   90181021
 00A672 4120 D6E9      00719       13099        LA    JB,LDMUL                                                   90188021
 00A676 4710 93FC      0A72C       13100        BO    ERR122                ERROR MSG                            90195021
 00A67A 9130 C79A      0172A       13101        TM   NXTCOD,MAJ0           MAJOR IS 0, IE SORT RERUN FORM        90202021
 00A67E 4750 935A      0A68A       13102          BC    NOTOFF,RCLRSV       NO - TEST OTHER FORMAT          2768 90209021
                                   13103 *                                                                       90216021
                                   13104 *   SWITCH+1 IN COMMON IS TO BE TURNED ON ONLY WHEN THE RERUN           90223021
                                   13105 *   FORMAT IS 'RERUN ON SYSTEM-NAME.', INDICATING THAT THE RERUN        90230021
                                   13106 *   IS FOR A SORT FILE.                                                 90237021
                                   13107 *                                                                       90244021
 00A682 5810 C814      017A4       13108        L    JA,COSADR             BASE REG FOR COMMON                   90251021
 00A686 9610 1183      00183       13109          OI    SWITCH+NX1,RERUNN   TURN ON RERUN SWITCH IN COMMON  2768 90258021
 00A68A D70F 945C 945C 0A78C 0A78C 13110 RCLRSV   XC    RSAVE(LX16),RSAVE         CLEAR RSAVE                    90265021
 00A690 D207 945C C6E6 0A78C 01676 13111          MVC   RSAVE(LX8),CURBCD         SAVE EXT-NAME                  90272021
 00A696 9130 C79A      0172A       13112        TM    NXTCOD,MAJ0               MAJOR IS 0?                      90279021
 00A69A 4780 93D6      0A706       13113        BC    ZERO,RSTCKP               IF SORT,SKIP TEST FOR 'EVERY...' 90286021
 00A69E D501 C79A A2F4 0172A 02EE4 13114          CLC   NXTCOD(LX2),EVYCON        EVERY                          90293021
 00A6A4 4770 937C      0A6AC       13115        BC    NOTEQ,RRNLIT               NO - RRNLIT                     90300021
 00A6A8 45E0 B000      01F18       13116        BAL   JP,GETWD                   -GETWD                          90307021
 00A6AC 9108 C797      01727       13117 RRNLIT   TM    NXTSW,XX08                INT-NUM-LIT                    90314021
 00A6B0 4780 90E0      0A410       13118        BC    ZERO,APPM28                NO - APPM28                     90321021
 00A6B4 45E0 B000      01F18       13119        BAL   JP,GETWD                   -GETWD                          90328021
 00A6B8 4110 C6E6      01676       13120        LA    JA,CURBCD                  ADDR OF INT-NUM-LIT             90335021
 00A6BC 9508 1000      00000       13121          CLI   DX0(JA),XX08              NBR OF INTEGERS                90342021
1PH1A     IKFCBL10                                                                                              PAGE  262
-  LOC  OBJECT CODE    ADDR1 ADDR2  STMT   SOURCE STATEMENT                                       ASM 0201 11.03 02/14/15
000A6C0 4720 940C      0A73C       13122        BC    HI,ERR124                  TOO LARGE - ERR124              90349021
 00A6C4 45E0 B528      02440       13123        BAL   JP,CNVBIN                  -CNVBIN                         90356021
 00A6C8 1222                       13124        LTR   JB,JB                      POS NUMBER                      90363021
 00A6CA 47D0 9404      0A734       13125        BC    NOTPOS,ERR123              NO - ERR123                     90370021
 00A6CE 5920 9454      0A784       13126        C     JB,CKPNO                   NUM EXCEEDS 16777215            90377021
 00A6D2 4720 940C      0A73C       13127        BC    HI,ERR124                  YES - ERR124                    90384021
 00A6D6 5020 9468      0A798       13128          ST    JB,RSAVE+NX12             SAVE INTEGER                   90391021
 00A6DA 45E0 B000      01F18       13129        BAL   JP,GETWD                   -GETWD                          90398021
 00A6DE D501 C6E4 A65E 01674 0324E 13130          CLC   CURCOD(LX2),RCDSCO        RECORDS                        90405021
 00A6E4 4770 90E0      0A410       13131        BC    NOTEQ,APPM28               NO - APPM28                     90412021
 00A6E8 D501 C79A A03E 0172A 02C2E 13132          CLC   NXTCOD(LX2),OFCON         NXT IS OF ?                    90419021
 00A6EE 4770 9434      0A764       13133        BNE   OFMSG                     NO - OFMSG                 4780  90426021
 00A6F2 45E0 B000      01F18       13134        BAL   JP,GETWD              GET WORD                             90433021
 00A6F6 45E0 91CC      0A4FC       13135 NOFMSG BAL   JP,APPGET                 - APPGET                   4780  90440021
 00A6FA 9104 200B      0000B       13136          TM    DX11(JB),XX04             FILE ALREADY RERUN             90447021
 00A6FE 4710 9414      0A744       13137          BC    ONES,ERR125         YES - ERR125                         90454021
 00A702 9604 200B      0000B       13138          OI    DX11(JB),XX04             SET ON CKPTBL BIT IN ENVTBL    90461021
 00A706                            13139 RSTCKP DS    0H                                                         90468021
 00A706 5020 9458      0A788       13140        ST    JB,RSAVE1                  SAVE ADDR OF ENVTBL ENTRY       90475021
 00A70A 5820 C864      017F4       13141        L     JB,CKPCON                  ADDR OF CKPTBL                  90482021
 00A70E 4140 0010      00010       13142        LA    JD,ENTRLNGT(JR)           LENGTH OF 16               9362  90489021
 00A712 4170 945C      0A78C       13143        LA    JG,RSAVE                   ADDR OF ENVTBL ENTRY            90496021
 00A716 45E0 B464      0237C       13144        BAL   JP,MVSERT                  -MVSERT                         90503021
 00A71A 5820 9458      0A788       13145        L     JB,RSAVE1                  ADDR OF ENVTBL ENTRY            90510021
 00A71E D201 2016 D9D2 00016 00A02 13146        MVC   DX22(LX2,JB),PONTER  SAVE CKPTBL DISP IN ENVTBL      9362  90517021
 00A724 45E0 B000      01F18       13147        BAL   JP,GETWD                   -GETWD                          90524021
 00A728 47F0 F2D4      0988C       13148        B     ENVSW                      I-O-CONTROL SCAN                90531021
 00A72C 45E0 DC34      00C64       13149 ERR122 BAL   JP,MSG122                  -MSG122                         90538021
 00A730 47F0 942C      0A75C       13150        BC    UNCOND,SKPIOC              -SKPIOC                         90545021
 00A734 45E0 DC38      00C68       13151 ERR123 BAL   JP,MSG123                  -MSG123                         90552021
 00A738 47F0 942C      0A75C       13152        BC    UNCOND,SKPIOC              -SKPIOC                         90559021
 00A73C 45E0 DC3C      00C6C       13153 ERR124 BAL   JP,MSG124                  -MSG124                         90566021
 00A740 47F0 942C      0A75C       13154        BC    UNCOND,SKPIOC              -SKPIOC                         90573021
 00A744 45E0 DC40      00C70       13155 ERR125 BAL   JP,MSG125                  -MSG125                         90580021
 00A748 47F0 942C      0A75C       13156        B     SKPIOC                     -SKPIOC                         90587021
 00A74C 45E0 DC44      00C74       13157 ERR126 BAL   JP,MSG126                  -MSG126                         90594021
 00A750 47F0 942C      0A75C       13158        B     SKPIOC                SKIP                                 90601021
 00A754 45E0 DA88      00AB8       13159 ERR127 BAL   JP,MSG15                   INVALID EXT NM                  90608021
 00A758 45E0 DC5C      00C8C       13160 ER127A BAL   JP,MSG132                  INVALID IMP NM                  90615021
 00A75C 45E0 ACD2      038C2       13161 SKPIOC BAL   JP,SKIP                    -SKIP                           90622021
 00A760 47F0 F2D4      0988C       13162        B     ENVSW                      -ENVSW                          90629021
 00A764 9523 C79A      0172A       13163 OFMSG  CLI   NXTCOD,XX23               UNQUAL BCD NAME            4780  90636021
 00A768 4780 93C6      0A6F6       13164        BC    EQ,NOFMSG                 YES - NOFMSG               4780  90643021
 00A76C 45E0 DD44      00D74       13165        BAL   JP,MSG190                 'OF FILENAME MISSING' MSG  4780  90650021
 00A770 47F0 F2D4      0988C       13166        B     ENVSW                     - ENVSW                    4780  90657021
 00A774 00                         13167 EXTNSW DC    X'00'                     VALID HYPHEN SWITCH              90664021
 00A775 00
 00A776 D200 946C 7000 0A79C 00000 13168 RRSAVEDD MVC   RRDDNAME(LX0),DX0(R7)  DDNAME TO TEMPORARY SAVE     2768 90671021
 00A77C D200 C6E6 7000 01676 00000 13169 RREXMV   MVC   CURBCD(LX0),DX0(R7)  DDNAME TO CURRENT              2768 90678021
 00A782 0000
 00A784 00FFFFFF                   13170 CKPNO  DC    F'16777215'           CKPT NUM CON                         90685021
 00A788                            13171 RSAVE1 DS    F                     REG SAVE AREA                        90692021
                             00010 13172 ENTRLNGT EQU 16                                                   9362  90699021
 00A78C                            13173 RSAVE    DS    4F                  SAVE AREA FOR CKPT ENTRY             90706021
 00A79C                            13174 RRDDNAME DS    2F                  TEMPORARY SAVE FOR DDNAME       2768 90713021
1PH1A     IKFCBL10                                                                                              PAGE  263
-  LOC  OBJECT CODE    ADDR1 ADDR2  STMT   SOURCE STATEMENT                                       ASM 0201 11.03 02/14/15
000A7A4                            13175 MSAVCU   DS    8F                       TEMP SAV FOR MULTI-FILE NM55881 90720021
1PH1A     IKFCBL10                                                                                              PAGE  264
-  LOC  OBJECT CODE    ADDR1 ADDR2  STMT   SOURCE STATEMENT                                       ASM 0201 11.03 02/14/15
0                                  13177 *=2          SAME SCAN                                                  90734021
                                   13178 *                                                                       90741021
                                   13179 ******    SAME SCAN    ******                                           90748021
                                   13180 *                                                                       90755021
 00A7C4 45E0 B0CE      01FE6       13181 SMESCN BAL   JP,CHKVRB             CHECK VERB NAME                      90762021
 00A7C8 D501 C79A A4DE 0172A 030CE 13182          CLC   NXTCOD(LX2),RECCON        RECORD                         90769021
 00A7CE 4780 954A      0A87A       13183        BE    SMRCDA                     YES                             90776021
 00A7D2 D501 C79A A218 0172A 02E08 13184          CLC   NXTCOD(LX2),SORCON        SORT                           90783021
 00A7D8 4780 955A      0A88A       13185        BE    SMSRTA                     YES                             90790021
 00A7DC 4160 0040      00040       13186          LA    JF,DX64                   SAME BIT                       90797021
 00A7E0 5820 C854      017E4       13187        L     JB,SACON                   SATBL                           90804021
 00A7E4 D501 C79A A131 0172A 02D21 13188 SMECHK   CLC   NXTCOD(LX2),AREACN       AREA                            90811021
 00A7EA 4770 94C2      0A7F2       13189        BNE   SMEFOR                CHECK FOR 'FOR'                      90818021
 00A7EE 45E0 B000      01F18       13190        BAL   JP,GETWD              GET WORD                             90825021
 00A7F2 45E0 B17C      02094       13191 SMEFOR BAL   JP,CHKFOR             CHECK FOR 'FOR'                      90832021
 00A7F6 D201 D992 C6E2 009C2 01672 13192          MVC   SMCDNO(LX2),CURGCN        SAVE CARDNUMBER                90839021
 00A7FC 9201 D991      009C1       13193          MVI   SMCT,XX01                PUT 1 IN CT OF FILES IN CLAU    90846021
 00A800 5020 D994      009C4       13194        ST    JB,SMTIB                  SAVE TIB ADDR                    90853021
 00A804 4260 D990      009C0       13195        STC   JF,SMTEMP                 SAVE BIT                         90860021
 00A808 45E0 91CC      0A4FC       13196        BAL   JP,APPGET             UNQUAL BCD NAME?                     90867021
 00A80C 45E0 9530      0A860       13197        BAL   JP,SMEBAL                 CHECK FILE                       90874021
 00A810 5820 D994      009C4       13198        L     JB,SMTIB                  GET TIB ADDR                     90881021
 00A814 4170 D991      009C1       13199        LA    JG,SMCT                    ADDR OF ENTRY                   90888021
 00A818 4140 0003      00003       13200          LA    JD,DX3                    LENGTH OF ENTRY                90895021
 00A81C 45E0 B464      0237C       13201        BAL   JP,MVSERT             INSERT FOR SPEC TAMER TBL            90902021
 00A820 D201 D98E D9D2 009BE 00A02 13202          MVC   SMPNT(LX2),PONTER         SAVE PTR TO TBL                90909021
 00A826 1788                       13203        XR    JH,JH                                                      90916021
 00A828 47F0 951C      0A84C       13204        B     SMEFL                 TIB - FILENAME                       90923021
 00A82C 45E0 91CC      0A4FC       13205 SMEGET BAL   JP,APPGET                  GET FILENAME                    90930021
                             00000 13206        USING ENFSDS,JB                                                  90937021
 00A830 45E0 9530      0A860       13207        BAL   JP,SMEBAL                 CHECK FILE                       90944021
 00A834 5810 D994      009C4       13208        L     JA,SMTIB                  GET TIB ADDR                     90951021
 00A838 45E0 BCC2      02BDA       13209        BAL   JP,TBLNIT                  GET ADDR OF TBL                 90958021
 00A83C 4A10 D98E      009BE       13210        AH    JA,SMPNT                   ADD DISP OF ENTRY               90965021
 00A840 4381 0000      00000       13211          IC    JH,DX0(JA)                GET CT FROM ENTRY              90972021
 00A844 4188 0001      00001       13212          LA    JH,DX1(JH)                ADD 1                          90979021
 00A848 4281 0000      00000       13213          STC   JH,DX0(JA)                STORE CT                       90986021
 00A84C 5820 D994      009C4       13214 SMEFL  L     JB,SMTIB                  GET TIB ADDR                     90993021
 00A850 4170 C6E5      01675       13215        LA    JG,CURN                    ADDR OF FILENAME                91000021
 00A854 4140 001F      0001F       13216          LA    JD,DX31                   LENGTH OF ENTRY                91007021
 00A858 45E0 B464      0237C       13217        BAL   JP,MVSERT                  ENTER                           91014021
 00A85C 47F0 94FC      0A82C       13218        B     SMEGET                GET FILENAME                         91021021
 00A860 1766                       13219 SMEBAL XR    JF,JF                                                      91028021
 00A862 4360 D990      009C0       13220        IC    JF,SMTEMP                 GET BIT TO TEST ENVTBL           91035021
 00A866 4460 9562      0A892       13221        EX    JF,SMEX1                  TEST IF CLAUSE SPECIFIED         91042021
 00A86A 4710 9566      0A896       13222        BO    SSMSG1                     YES                             91049021
 00A86E 4260 D990      009C0       13223        STC   JF,SMTEMP                  NO-SAVE  BIT                    91056021
 00A872 D600 200B D990 0000B 009C0 13224          OC    ENFFL2(LX1),SMTEMP        TURN BIT ON IN ENVTBL ENTRY    91063021
 00A878 07FE                       13225        BR    JP                    RETURN                               91070021
 00A87A 4160 0010      00010       13226 SMRCDA   LA    JF,DX16                   SAME REC BIT                   91077021
 00A87E 5820 C85C      017EC       13227        L     JB,SRACON                  SRATBL                          91084021
 00A882 45E0 B000      01F18       13228 SMRSGW BAL   JP,GETWD              GET WORD                             91091021
 00A886 47F0 94B4      0A7E4       13229        B     SMECHK                CHECK FOR 'AREA'                     91098021
 00A88A 45E0 ACDE      038CE       13230 SMSRTA BAL   JP,SKIPGT                 SKIP SAME SORT CLAUSE            91105021
 00A88E 47F0 F2D4      0988C       13231        B     ENVSW                 GET DELIMITER                        91112021
1PH1A     IKFCBL10                                                                                              PAGE  265
-  LOC  OBJECT CODE    ADDR1 ADDR2  STMT   SOURCE STATEMENT                                       ASM 0201 11.03 02/14/15
000A892 9100 200B      0000B       13232 SMEX1    TM    ENFFL2,XX00                                              91119021
 00A896 45E0 DAD0      00B00       13233 SSMSG1 BAL   JP,MSG33              ERROR MSG                            91126021
 00A89A 47F0 91D0      0A500       13234        B     APPGTA                UNQUAL BCD NAME?                     91133021
 00A89E 50E0 D880      008B0       13235 SAMEND ST    JP,SV1F03                                                  91140021
 00A8A2 5810 C854      017E4       13236        L     JA,SACON                   SATBL                           91147021
 00A8A6 45E0 BCC2      02BDA       13237        BAL   JP,TBLNIT                  TBL EMPTY                       91154021
 00A8AA 4780 9696      0A9C6       13238        BZ    ENTSRA                     YES                             91161021
 00A8AE 1A21                       13239        AR    JB,JA                      GET END OF TBL ADDR             91168021
 00A8B0 4B20 C152      010E2       13240        SH    JB,HW3                                                     91175021
 00A8B4 5020 D99C      009CC       13241        ST    JB,SADISP                  SAVE ADDR OF END OF TBL         91182021
 00A8B8 1831                       13242        LR    JC,JA                      SAVE BEG OF TBL ADDR            91189021
 00A8BA 5030 D994      009C4       13243        ST    JC,SMTIB                 SAVE ADDR OF SATBL                91196021
 00A8BE 5810 C85C      017EC       13244        L     JA,SRACON                  SRATBL                          91203021
 00A8C2 45E0 BCC2      02BDA       13245        BAL   JP,TBLNIT                  TBL EMPTY                       91210021
 00A8C6 4780 9674      0A9A4       13246        BZ    ENTSA                 TURN OFF YESNO BITS                  91217021
 00A8CA 1A21                       13247        AR    JB,JA                      GET END OF TBL ADDR             91224021
 00A8CC 4B20 C152      010E2       13248        SH    JB,HW3                                                     91231021
 00A8D0 1841                       13249        LR    JD,JA                      SAVE BEG OF TBL ADDR            91238021
 00A8D2 5020 D998      009C8       13250        ST    JB,SRADIS                  SAVE END OF TBL ADDR            91245021
 00A8D6 94FC D9A0      009D0       13251          NI    YESNO,XXFC                TURN OF YES AND NO SWS         91252021
 00A8DA 1B55                       13252        SR    JE,JE                      CLEAR REG                       91259021
 00A8DC 1B66                       13253        SR    JF,JF                      CLEAR REG                       91266021
 00A8DE 1873                       13254 IIII   LR    JG,JC                      SAVE ENTRY ADDR IN SATBL        91273021
 00A8E0 1884                       13255        LR    JH,JD                      SAVE ENTRY ADDR IN SRA/S5A      91280021
 00A8E2 4353 0000      00000       13256 XXXX     IC    JE,DX0(JC)                CT OF FILES IN SATBL ENTRY     91287021
 00A8E6 4364 0000      00000       13257          IC    JF,DX0(JD)               CT OF FILES IN SSA/SRATBL EN    91294021
 00A8EA 94FC D9A0      009D0       13258          NI    YESNO,XXFC                                               91301021
 00A8EE D51E 3003 4003 00003 00003 13259 YYYY     CLC   DX3(LX31,JC),DX3(JD)       FILE IN SA = FILE IN SSA/SR   91308021
 00A8F4 4780 9660      0A990       13260        BE    DDDD                       YES                             91315021
 00A8F8 4960 C14E      010DE       13261        CH    JF,HW1                     END OF ENTRY                    91322021
 00A8FC 4780 95DC      0A90C       13262        BE    ZZZZ                       YES                             91329021
 00A900 4B60 C14E      010DE       13263        SH    JF,HW1                     DECREASE CT IN SSA/SRA          91336021
 00A904 4144 001F      0001F       13264          LA    JD,DX31(JD)               ADVANCE ADDR IN SSA/SRA        91343021
 00A908 47F0 95BE      0A8EE       13265        B     YYYY                  YYYY                                 91350021
 00A90C 9602 D9A0      009D0       13266 ZZZZ     OI    YESNO,XX02               TURN ON NO SWITCH               91357021
 00A910 4950 C14E      010DE       13267 ZZZZ1  CH    JE,HW1                    END OF ENTRY                     91364021
 00A914 4780 9650      0A980       13268        BE    QQQQ                  ARE YESNO SWITCHES ON?               91371021
 00A918 4B50 C14E      010DE       13269        SH    JE,HW1                     DECREASE CT IN SA               91378021
 00A91C 4133 001F      0001F       13270          LA    JC,DX31(JC)               ADVANCE ADDR IN SA             91385021
 00A920 1848                       13271        LR    JD,JH                      MOVE PTR IN SRA/SSA TO BEGO     91392021
 00A922 4364 0000      00000       13272          IC    JF,DX0(JD)                GET CT OF FILES                91399021
 00A926 47F0 95BE      0A8EE       13273        B     YYYY                  YYYY                                 91406021
                             0A92A 13274 AAAA   EQU   *                                                          91413021
 00A92A 4960 C14E      010DE       13275 BBBB   CH    JF,HW1                     END OF ENTRY                    91420021
 00A92E 4770 9638      0A968       13276        BNE   GGGG                       NO                              91427021
 00A932 4144 0022      00022       13277          LA    JD,DX34(JD)              ADVANCE ADDR IN SRA/SSA         91434021
 00A936 1884                       13278          LR    JH,JD                    POINT NEW ENTRY IN SRA/SSA      91441021
 00A938 5940 D998      009C8       13279        C     JD,SRADIS                 END OF SRA/SSA                   91448021
 00A93C 47B0 9616      0A946       13280        BNL   CCCC                      YES                              91455021
 00A940 1837                       13281        LR    JC,JG                      MOVE PTR OF SA TO BEG OF TB     91462021
 00A942 47F0 95B2      0A8E2       13282        B     XXXX                  CT OF FILES IN SATBL ENTRY           91469021
 00A946 4950 C14E      010DE       13283 CCCC   CH    JE,HW1                     END OF ENTRY                    91476021
 00A94A 4770 9644      0A974       13284        BNE   HHHH                       NO                              91483021
 00A94E 4133 0022      00022       13285          LA    JC,DX34(JC)              ADVANCE ADDR IN SA              91490021
 00A952 5930 D99C      009CC       13286        C     JC,SADISP                 END OF SA                        91497021
1PH1A     IKFCBL10                                                                                              PAGE  266
-  LOC  OBJECT CODE    ADDR1 ADDR2  STMT   SOURCE STATEMENT                                       ASM 0201 11.03 02/14/15
000A956 47B0 9674      0A9A4       13287        BNL   ENTSA                     YES- ENTER SA FILES              91504021
 00A95A 5810 C85C      017EC       13288        L     JA,SRACON                  GET                             91511021
 00A95E 45E0 BCC2      02BDA       13289        BAL   JP,TBLNIT                      BEG-OF-TBL ADDR             91518021
 00A962 1841                       13290        LR    JD,JA                              IN SSA/SRA              91525021
 00A964 47F0 95AE      0A8DE       13291        B     IIII                  SAVE ENTRY ADDR IN SATBL             91532021
 00A968 4144 001F      0001F       13292 GGGG     LA    JD,DX31(JD)               ADVANCE ADDR IN SSA/SRA        91539021
 00A96C 4B60 C14E      010DE       13293        SH    JF,HW1                     DECREASE CT OF FILES            91546021
 00A970 47F0 95FA      0A92A       13294        B     BBBB                  END OF ENTRY?                        91553021
 00A974 4133 001F      0001F       13295 HHHH     LA    JC,DX31(JC)               ADVANCE ADDR IN SA             91560021
 00A978 4B50 C14E      010DE       13296        SH    JE,HW1                     DECREASE CT OF FILES            91567021
 00A97C 47F0 9616      0A946       13297        B     CCCC                  END OF ENTRY?                        91574021
 00A980 9103 D9A0      009D0       13298 QQQQ     TM    YESNO,XX03               YES AND NO SWITCHES ON          91581021
 00A984 47E0 95FA      0A92A       13299        BNO   AAAA                      NO                               91588021
 00A988 9680 8001      00001       13300          OI    DX1(JH),XX80             FLAG SSA/SRA                    91595021
 00A98C 47F0 95FA      0A92A       13301        B     AAAA                  END OF ENTRY?                        91602021
 00A990 9601 D9A0      009D0       13302 DDDD     OI    YESNO,XX01                TURN ON YES SW                 91609021
 00A994 9102 D9A0      009D0       13303          TM    YESNO,XX02                NO SW ON                       91616021
 00A998 4780 95E0      0A910       13304        BZ    ZZZZ1                     NO                               91623021
 00A99C 9680 8001      00001       13305 YSNOON   OI    DX1(JH),XX80              YES- FLAG SSA/SRA ENTRY        91630021
 00A9A0 47F0 95FA      0A92A       13306        B     AAAA                  END OF ENTRY?                        91637021
 00A9A4 94F0 D9A0      009D0       13307 ENTSA    NI    YESNO,XXF0               TURN OFF BITS                   91644021
 00A9A8 9604 D9A0      009D0       13308          OI    YESNO,XX04               TURN ON SATBL BIT               91651021
 00A9AC 5810 C854      017E4       13309        L     JA,SACON                  SATBL                            91658021
 00A9B0 45E0 BCC2      02BDA       13310        BAL   JP,TBLNIT                  TBL EMPTY                       91665021
 00A9B4 4780 9696      0A9C6       13311        BZ    ENTSRA                     YES                             91672021
 00A9B8 47F0 96AE      0A9DE       13312        B     ENTSR9                GET END OF TBL ADDR                  91679021
                             00000 13313        USING ENFSDS,JB                                                  91686021
 00A9BC D200 2018 D991 00018 009C1 13314 SAMENT   MVC   ENFSAM(LX1),SMCT         MOVE SAME NO INTO ENTRY         91693021
 00A9C2 47F0 96FA      0AA2A       13315        B     ENTSR5                END OF TABLE                         91700021
 00A9C6 9108 D9A0      009D0       13316 ENTSRA   TM    YESNO,XX08               TEST IF SRATBL IS DONE          91707021
 00A9CA 4710 973A      0AA6A       13317        BO    SPNRET                     YES                             91714021
 00A9CE 9208 D9A0      009D0       13318          MVI   YESNO,XX08                                               91721021
 00A9D2 5810 C85C      017EC       13319        L     JA,SRACON                  SRATBL                          91728021
 00A9D6 45E0 BCC2      02BDA       13320        BAL   JP,TBLNIT                  TBL EMPTY                       91735021
 00A9DA 4780 973A      0AA6A       13321        BZ    SPNRET                    YES-RETURN                       91742021
 00A9DE                            13322 ENTSR9 DS    0H                                                         91749021
 00A9DE 1A21                       13323        AR    JB,JA                      GET END OF TBL ADDR             91756021
 00A9E0 4B20 C152      010E2       13324        SH    JB,HW3                                                     91763021
 00A9E4 5020 D998      009C8       13325        ST    JB,SRADIS                  SAVE END OF TBL ADDR            91770021
 00A9E8 9201 D991      009C1       13326          MVI   SMCT,XX01                 SET SAME REC/SORT NO TO 1      91777021
 00A9EC 1788                       13327        XR    JH,JH                      CLEAR REG                       91784021
 00A9EE 94FE D9A0      009D0       13328          NI    YESNO,XXFE               TURN OFF FLAG BIT               91791021
 00A9F2 4381 0000      00000       13329 ENTSR3   IC    JH,DX0(JA)                GET FILENAME CT                91798021
 00A9F6 9180 1001      00001       13330          TM    DX1(JA),XX80              WAS ENTRY FLAGGED              91805021
 00A9FA 4780 96D6      0AA06       13331        BZ    ENTSR2                    NO                               91812021
 00A9FE 9601 D9A0      009D0       13332          OI    YESNO,XX01                SET FLAG BIT                   91819021
 00AA02 947F 1001      00001       13333          NI    DX1(JA),XX7F              TURN OFF BIT IN ENTRY          91826021
 00AA06 D201 D50F 1001 0053F 00001 13334 ENTSR2   MVC   MSGGCN(LX2),DX1(JA)       MOVE CARD NO                   91833021
 00AA0C 4171 0003      00003       13335 ENTSR7   LA    JG,DX3(JA)                GET FN ADDR                    91840021
 00AA10 45E0 B5A0      024B8       13336        BAL   JP,SCHENV                  GET ENVTBL ENTRY                91847021
 00AA14 9104 D9A0      009D0       13337          TM    YESNO,XX04               IS IT SATBL                     91854021
 00AA18 4710 968C      0A9BC       13338        BO    SAMENT                    YES                              91861021
 00AA1C 9101 D9A0      009D0       13339          TM    YESNO,XX01                IS ENTRY IN SRATBL FLAGGED     91868021
 00AA20 4710 972E      0AA5E       13340        BO    ENTSR8                     YES                             91875021
                             00000 13341        USING ENFSDS,JB                                                  91882021
1PH1A     IKFCBL10                                                                                              PAGE  267
-  LOC  OBJECT CODE    ADDR1 ADDR2  STMT   SOURCE STATEMENT                                       ASM 0201 11.03 02/14/15
000AA24 D200 201C D991 0001C 009C1 13342          MVC   ENFSRA(LX1),SMCT          STORE SAME REC NO              91889021
 00AA2A 4111 001F      0001F       13343 ENTSR5   LA    JA,DX31(JA)               ADV FILE ADDR                  91896021
 00AA2E 5910 D998      009C8       13344        C     JA,SRADIS                  END OF TBL                      91903021
 00AA32 47B0 9696      0A9C6       13345        BNL   ENTSRA                    YES                              91910021
 00AA36 4980 C14E      010DE       13346        CH    JH,HW1                     END OF ENTRY                    91917021
 00AA3A 4780 9716      0AA46       13347        BE    ENTSR1                     YES                             91924021
 00AA3E 4B80 C14E      010DE       13348        SH    JH,HW1                     DECR CT                         91931021
 00AA42 47F0 96DC      0AA0C       13349        B     ENTSR7                GET FN ADDR                          91938021
 00AA46 94FE D9A0      009D0       13350 ENTSR1   NI    YESNO,XXFE                TURN OFF FLAG BIT              91945021
 00AA4A 4380 D991      009C1       13351        IC    JH,SMCT                    ADVANCE SAME                    91952021
 00AA4E 4188 0001      00001       13352          LA    JH,DX1(JH)                            RECORD NO          91959021
 00AA52 4280 D991      009C1       13353        STC   JH,SMCT                                                    91966021
 00AA56 4111 0003      00003       13354          LA    JA,DX3(JA)                GET NEXT ENTRY                 91973021
 00AA5A 47F0 96C2      0A9F2       13355        B     ENTSR3                GET FILENAME CT                      91980021
 00AA5E 94EF 200B      0000B       13356 ENTSR8   NI    ENFFL2,XXFF-ENFSRS        TURN OFF SAME REC BIT          91987021
                             0AA62 13357 ENTSR0 EQU   *                                                          91994021
 00AA62 45E0 DCA0      00CD0       13358        BAL   JP,MSG149             ERROR MSG                            92001021
 00AA66 47F0 96FA      0AA2A       13359        B     ENTSR5                END OF TABLE?                        92008021
 00AA6A 58E0 D880      008B0       13360 SPNRET L     JP,SV1F03                  RETURN                          92015021
 00AA6E 58F0 CE4C      01DDC       13361        L     JQ,SVCAL5                                                  92022021
 00AA72 5890 CE50      01DE0       13362        L     JJ,SVCAL6                  RESTORE REG                     92029021
 00AA76 07FE                       13363        BR    JP                    RETURN                               92036021
                                   13364        DROP  JB                                                         92043021
1PH1A     IKFCBL10                                                                                              PAGE  268
-  LOC  OBJECT CODE    ADDR1 ADDR2  STMT   SOURCE STATEMENT                                       ASM 0201 11.03 02/14/15
000AA78                            13366 IKF116 CSECT                                                            92057021
                                   13367 ************************************************                        92064021
                                   13368 *=1       IDENTIFICATION DIVISION SCAN     *****                        92071021
                                   13369 ************************************************                        92078021
                             0AA78 13370        USING IDDSCN,JQ                                                  92085021
 00AA78 D501 C6E4 A025 01674 02C15 13371 IDDSCN   CLC   CURCOD(LX2),IDCON         ID HEADER                      92092021
 00AA7E 4770 F00E      0AA86       13372        BC    NOTEQ,IDBENT                NO-IDBENT                      92099021
 00AA82 45E0 B0A8      01FC0       13373 IDAENT BAL   JP,CHKEOS                  -CHKEOS                         92106021
 00AA86 9542 C6E4      01674       13374 IDBENT   CLI   CURCOD,XX42               CRITICAL WORD                  92113021
 00AA8A 4770 F0A8      0AB20       13375        BC      NOTEQ,IDRENT            SET ON MSGPSW                    92120021
 00AA8E 95F2 C6E5      01675       13376          CLI   CURN,XXF2                 PROGRAM-ID                     92127021
 00AA92 4770 F0A8      0AB20       13377        BC      NOTEQ,IDRENT            SET ON MSGPSW                    92134021
 00AA96 9610 D35A      0038A       13378          OI    PRIDSW,XX10          SET PROG-ID SWITCH ON               92141021
 00AA9A 45E0 B0A8      01FC0       13379        BAL   JP,CHKEOS                  -CHKEOS                         92148021
 00AA9E 45E0 B1EA      02102       13380        BAL   JP,EXTNAM                  -EXTNAM                         92155021
 00AAA2 47F0 F04E      0AAC6       13381        B       IDBNT1                    EXTERNAL NAME FOUND      3816  92162021
                                   13382 *  CONTROL IS RETURNED TO THE FOLLOWING INSTRUCTION               3816  92169021
                                   13383 *  IF INVALID EXTERNAL NAME FOUND IN EXTNAM ROUTINE               3816  92176021
 00AAA6 9101 C6E1      01671       13384        TM      CURSW,XX01                IS INVALID NAME IN A-MAR 3816  92183021
 00AAAA 47E0 F058      0AAD0       13385        BNO     IDCENT                    NO-THEN NOT DIVISION HDR 3816  92190021
 00AAAE 9608 D34F      0037F       13386        OI      MSGPSW,XX08               YES-TURN ON ID DIV       3816  92197021
                                   13387 *                                        CMNTS SW JUST IN CASE    3816  92204021
                                   13388 *                                        NOT DIV HDR              3816  92211021
 00AAB2 9542 C6E4      01674       13389        CLI     CURCOD,XX42               CONTROL BREAK?           3816  92218021
 00AAB6 4770 F064      0AADC       13390        BNE     SKBENT                    NO-TEST 'NEXT' FIELDS    3816  92225021
 00AABA 9110 C6E6      01676       13391        TM      CURBCD,XX10               DIVISION HEADER?         3816  92232021
 00AABE 4710 F0C6      0AB3E       13392        BO      IDANT2                    YES-PROCESS IT           3816  92239021
 00AAC2 47F0 F064      0AADC       13393        B       SKBENT                    NO-TEST 'NEXT' FIELDS    3816  92246021
 00AAC6 5820 C814      017A4       13394 IDBNT1 L       JB,COSADR                 ADDRESS OF COS           3816  92253021
 00AACA D207 2150 C6C3 00150 01653 13395          MVC   PROGID-COS(LX8,JB),CURWD                                 92260021
 00AAD0 9608 D34F      0037F       13396 IDCENT   OI    MSGPSW,XX08               SET 'ON' MSGPSW                92267021
 00AAD4 47F0 F064      0AADC       13397        BC    UNCOND,SKBENT               -SKBENT                        92274021
 00AAD8 45E0 B000      01F18       13398 SKAENT BAL   JP,GETWD                   -GETWD                          92281021
 00AADC 9101 C797      01727       13399 SKBENT   TM    NXTSW,XX01                NEXT IN A-MARGIN               92288021
 00AAE0 4780 F060      0AAD8       13400        BC    ZERO,SKAENT                 NO-SKAENT                      92295021
 00AAE4 9542 C79A      0172A       13401          CLI   NXTCOD,XX42               NEXT IS CONTROL BREAK          92302021
 00AAE8 4770 F060      0AAD8       13402        BC    NOTEQ,SKAENT                NO-SKAENT                      92309021
 00AAEC 94FD D34F      0037F       13403        NI    DATCSW,XXFD                 YES-SO NOT DATE-COMP CNMT3816  92316021
 00AAF0 95F2 C6E5      01675       13404          CLI   CURN,XXF2            IS IT PROGRAM-ID                    92323021
 00AAF4 4770 F084      0AAFC       13405        BC    NOTEQ,SKDENT         NO                                    92330021
 00AAF8 45E0 DBD0      00C00       13406        BAL     JP,MSG97                MESSAGE FOR MISSING PROG-ID      92337021
 00AAFC 9110 C79C      0172C       13407 SKDENT   TM    NXTBCD,XX10         NEXT IS DIV-HDR                      92344021
 00AB00 4710 F090      0AB08       13408        BC    ONES,SKCENT                 YES-SKCENT                     92351021
 00AB04 47F0 F060      0AAD8       13409        BC    UNCOND,SKAENT               -SKAENT                        92358021
 00AB08 95F1 C79B      0172B       13410 SKCENT CLI   NXTN,XXF1                   IS NEXT 'ID' HDR?        3816  92365021
 00AB0C 4780 F060      0AAD8       13411        BC    EQ,SKAENT                   YES-SKAENT                     92372021
 00AB10 94F7 D34F      0037F       13412          NI    MSGPSW,XXF7               SET 'OFF' MSGPSW               92379021
 00AB14 45E0 B000      01F18       13413        BAL   JP,GETWD                   -GETWD                          92386021
 00AB18 9610 D35A      0038A       13414        OI    PRIDSW,XX10               FORCE ON PROGID FOUND SW   3816  92393021
 00AB1C 47F0 ACB4      038A4       13415        B     GETDLM                    -GETDLM                          92400021
 00AB20 D501 C6E4 A025 01674 02C15 13416 IDRENT CLC   CURCOD(LX2),IDCON                                    8930  92407021
 00AB26 4780 F0D2      0AB4A       13417        BE    IDANT1                    EXTRANEOUS ID DIV HEADER   8930  92414021
 00AB2A 45E0 DBD0      00C00       13418        BAL   JP,MSG97                  -MSG97                     8930  92421021
 00AB2E 9542 C6E4      01674       13419        CLI   CURCOD,XX42               CONTROL BREAK?             9371  92428021
 00AB32 4770 F058      0AAD0       13420        BNE   IDCENT                    NO-TURN ON SW AND TEST NXT 9371  92435021
1PH1A     IKFCBL10                                                                                              PAGE  269
-  LOC  OBJECT CODE    ADDR1 ADDR2  STMT   SOURCE STATEMENT                                       ASM 0201 11.03 02/14/15
000AB36 9110 C6E6      01676       13421        TM      CURBCD,XX10             DIVISION HEADER                  92442021
 00AB3A 47E0 F058      0AAD0       13422        BNO     IDCENT                  NO - CK COMMENTS                 92449021
 00AB3E 94F5 D34F      0037F       13423 IDANT2 NI      MSGPSW,XXF5             YES-MSGPSW AND DATCSW OFF  3816  92456021
 00AB42 9610 D35A      0038A       13424        OI    PRIDSW,XX10               FORCE ON PROGID FOUND SW   3816  92463021
 00AB46 47F0 ACB4      038A4       13425        B     GETDLM                    -GETDLM                          92470021
 00AB4A 45E0 DC50      00C80       13426 IDANT1 BAL   JP,MSG129                 WRITE ID DIV MSG           8930  92477021
 00AB4E 47F0 F00A      0AA82       13427        B     IDAENT                    TRY AGAIN                  8930  92484021
1PH1A     IKFCBL10                                                                                              PAGE  270
-  LOC  OBJECT CODE    ADDR1 ADDR2  STMT   SOURCE STATEMENT                                       ASM 0201 11.03 02/14/15
000AB58                            13429 IKF117 CSECT                                                            92498021
                                   13430 *                                                                       92505021
                                   13431 *                                                                       92512021
                                   13432 ******    CONVERT LITERAL TO LEVEL NUMBER    ******                     92519021
                                   13433 *                                                                       92526021
                             0AB58 13434        USING  *,JQ                                                      92533021
 00AB58 9108 C6E1      01671       13435 LEVENQ   TM    CURSW,XX08               INT NUM LIT                     92540021
 00AB5C 4780 F116      0AC6E       13436        BC    ZERO,LEVEXT                NO-LEVEXT                       92547021
 00AB60 9523 C79A      0172A       13437          CLI   NXTCOD,XX23              NEXT IS BCD-NAME                92554021
 00AB64 4780 F09A      0ABF2       13438        BC    EQ,GDL4                   YES                              92561021
 00AB68 9554 C79A      0172A       13439          CLI   NXTCOD,XX54              NEXT IS COBOL-WORD              92568021
 00AB6C 4770 F088      0ABE0       13440        BC    NOTEQ,GDL3X                NO-GDL3X                        92575021
 00AB70 95AF C79B      0172B       13441          CLI   NXTN,XXAF                FILLER                          92582021
 00AB74 4780 F09A      0ABF2       13442        BC    EQ,GDL4                   YES                              92589021
 00AB78 9101 D34F      0037F       13443          TM    RPTWSW,XX01              IN RW SECT                      92596021
 00AB7C 4780 F11A      0AC72       13444        BC    ZERO,LEVEXA                NO-LEVEXA                       92603021
 00AB80 95EF C79B      0172B       13445          CLI   NXTN,XXEF                TYPE                            92610021
 00AB84 4780 F09A      0ABF2       13446        BC    EQ,GDL4                   YES                              92617021
 00AB88 9595 C79B      0172B       13447          CLI   NXTN,XX95                LINE                            92624021
 00AB8C 4780 F09A      0ABF2       13448        BC    EQ,GDL4                   YES                              92631021
 00AB90 9597 C79B      0172B       13449          CLI   NXTN,XX97                NEXT                            92638021
 00AB94 4780 F09A      0ABF2       13450        BC    EQ,GDL4                   YES                              92645021
 00AB98 95FC C79B      0172B       13451          CLI   NXTN,XXFC                COLUMN                          92652021
 00AB9C 4780 F09A      0ABF2       13452        BC    EQ,GDL4                   YES                              92659021
 00ABA0 95D8 C79B      0172B       13453          CLI   NXTN,XXD8                PICTURE                         92666021
 00ABA4 4780 F09A      0ABF2       13454        BC    EQ,GDL4                   YES                              92673021
 00ABA8 95CA C79B      0172B       13455          CLI   NXTN,XXCA                VALUE                           92680021
 00ABAC 4780 F09A      0ABF2       13456        BC    EQ,GDL4                   YES                              92687021
 00ABB0 95DB C79B      0172B       13457          CLI   NXTN,XXDB                JUSTIFIED                       92694021
 00ABB4 4780 F09A      0ABF2       13458        BC    EQ,GDL4                   YES                              92701021
 00ABB8 95D9 C79B      0172B       13459          CLI   NXTN,XXD9                BLANK                           92708021
 00ABBC 4780 F09A      0ABF2       13460        BC    EQ,GDL4                   YES                              92715021
 00ABC0 95FF C79B      0172B       13461          CLI   NXTN,XXFF                SUM                             92722021
 00ABC4 4780 F09A      0ABF2       13462        BC    EQ,GDL4                   YES                              92729021
 00ABC8 9528 C79B      0172B       13463          CLI   NXTN,XX28                RESET                           92736021
 00ABCC 4780 F09A      0ABF2       13464        BC    EQ,GDL4                   YES                              92743021
 00ABD0 95EE C79B      0172B       13465          CLI   NXTN,XXEE                GROUP                           92750021
 00ABD4 4780 F09A      0ABF2       13466        BC    EQ,GDL4                   YES                              92757021
 00ABD8 95FE C79B      0172B       13467          CLI   NXTN,XXFE                SOURCE                          92764021
 00ABDC 4780 F09A      0ABF2       13468        BC    EQ,GDL4                    YES                             92771021
 00ABE0 9101 D34F      0037F       13469 GDL3X    TM    RPTWSW,XX01              IN RW SECT                      92778021
 00ABE4 4780 F11A      0AC72       13470        BC    ZERO,LEVEXA                NO-LEVEXA                       92785021
 00ABE8 D501 C79A A14D 0172A 02D3D 13471          CLC   NXTCOD(LX2),COPYCN       COPY                            92792021
 00ABEE 4770 F11A      0AC72       13472        BC    NOTEQ,LEVEXA               NO-LEVEXA                       92799021
 00ABF2 9501 C6E6      01676       13473 GDL4     CLI   CURBCD,XX01              LIT SIZE ONE                    92806021
 00ABF6 4770 F0B8      0AC10       13474        BC    NOTEQ,GDL4A               NO                               92813021
 00ABFA F870 D970 C6E8 009A0 01678 13475          ZAP   GDLWKA(LX8),CURBCD+NX2(LX1) LIT TO WORK AREA             92820021
 00AC00 4780 F116      0AC6E       13476        BC    ZERO,LEVEXT               LIT IS ZERO                      92827021
 00AC04 4F00 D970      009A0       13477        CVB   JR,GDLWKA                 LIT TO BINARY AND                92834021
 00AC08 4200 C6E5      01675       13478        STC   JR,CURN                   ENCODE AS LEVEL NUMBER           92841021
 00AC0C 47F0 F112      0AC6A       13479        BC    UNCOND,GDL4D          SET UP LEVEL CODE                    92848021
 00AC10 9502 C6E6      01676       13480 GDL4A    CLI   CURBCD,XX02              LIT SIZE TWO                    92855021
 00AC14 4770 F116      0AC6E       13481        BC    NOTEQ,LEVEXT              NO                               92862021
 00AC18 F871 D970 C6E8 009A0 01678 13482          ZAP   GDLWKA(LX8),CURBCD+NX2(LX2) LIT TO WORK AREA             92869021
 00AC1E 4780 F116      0AC6E       13483        BC    ZERO,LEVEXT               LIT IS ZERO                      92876021
1PH1A     IKFCBL10                                                                                              PAGE  271
-  LOC  OBJECT CODE    ADDR1 ADDR2  STMT   SOURCE STATEMENT                                       ASM 0201 11.03 02/14/15
000AC22 D501 C6E8 C164 01678 010F4 13484          CLC   CURBCD+NX2(LX2),L049      LIT LESS THAN 50               92883021
 00AC28 4720 F0E0      0AC38       13485        BC    HI,GDL4B                  NO                               92890021
 00AC2C 4F00 D970      009A0       13486        CVB   JR,GDLWKA                 LIT TO BINARY AND                92897021
 00AC30 4200 C6E5      01675       13487        STC   JR,CURN                   ENCODE AS LEVEL NUMBER           92904021
 00AC34 47F0 F112      0AC6A       13488        BC    UNCOND,GDL4D          SET UP LEVEL CODE                    92911021
 00AC38 D501 C6E8 C168 01678 010F8 13489 GDL4B    CLC   CURBCD+NX2(LX2),L077      LIT IS 77                      92918021
 00AC3E 4770 F0F2      0AC4A       13490        BC    NOTEQ,GDL4C               NO                               92925021
 00AC42 9232 C6E5      01675       13491          MVI   CURN,XX32                ENCODE AS LEVEL NUMBER          92932021
 00AC46 47F0 F112      0AC6A       13492        BC    UNCOND,GDL4D          SET UP LEVEL CODE                    92939021
 00AC4A D501 C6E8 C16A 01678 010FA 13493 GDL4C    CLC   CURBCD+NX2(LX2),L088      LIT IS 88                      92946021
 00AC50 4770 F104      0AC5C       13494        BNE   GDL4E                      NO  - TST LEV CODE 66           92953021
 00AC54 9233 C6E5      01675       13495          MVI   CURN,XX33                ENCODE AS LEVEL NUMBER          92960021
 00AC58 47F0 F112      0AC6A       13496        B     GDL4D                 SET UP LEVEL CODE                    92967021
 00AC5C D501 C6E8 C166 01678 010F6 13497 GDL4E    CLC   CURBCD+NX2(LX2),L066       LEVEL 66  ?                   92974021
 00AC62 4770 F116      0AC6E       13498        BNE   LEVEXT                    NO - EXIT                        92981021
 00AC66 9239 C6E5      01675       13499          MVI   CURN,XX39                YES - SET 66 CODE               92988021
 00AC6A 9243 C6E4      01674       13500 GDL4D    MVI   CURCOD,XX43              SET UP LEVEL CODE               92995021
 00AC6E 47F0 F11E      0AC76       13501 LEVEXT BC    UNCOND,LEVEXL         RETURN                               93002021
 00AC72 9604 D34C      0037C       13502 LEVEXA   OI    MSG1SW,XX04              SET 'ON' MSG1SW                 93009021
 00AC76 58F0 CE6C      01DFC       13503 LEVEXL L     JQ,SVCAL2                                                  93016021
 00AC7A 50F0 DA18      00A48       13504        ST    JQ,LNKR15                                                  93023021
 00AC7E 07FE                       13505        BCR   UNCOND,JP                  -RETURN                         93030021
                                   13506 *                                                                       93037021
                                   13507 *                                                                       93044021
                                   13508 *                                                                       93051021
                                   13509 *****        FILCOL - FS-TEXT PUT-TOGETHER AND PUT-OUT                  93058021
                                   13510 *                                                                       93065021
                             0AC80 13511        USING *,JQ                                                       93072021
 00AC80 50E0 CE4C      01DDC       13512 FILCOQ ST    JP,SVCAL5                                                  93079021
 00AC84 5810 C844      017D4       13513        L     JA,ENVCON                                                  93086021
 00AC88 5811 0000      00000       13514          L     JA,DX0(JA)               ADDR OF TAM                     93093021
 00AC8C 5811 0000      00000       13515          L     JA,DX0(JA)               ADDR OF ENVTBL ENTRY            93100021
 00AC90 4840 D9B6      009E6       13516          LH    JD,SCHPTR+NX2            GET DISPL OF ENTRY IN ENVTBL    93107021
 00AC94 4144 1000      00000       13517          LA    JD,DX0(JD,JA)            GET ADDR  OF ENTRY IN ENVTBL    93114021
 00AC98 9602 400B      0000B       13518          OI    DX11(JD),XX02            SET BIT FOR PIOTBL IN ENV EN    93121021
 00AC9C D201 400E D6B8 0000E 006E8 13519          MVC   DX14(LX2,JD),FNWA         PUT PTR FOR PIOTBL IN ENV EN   93128021
 00ACA2 D210 D424 4000 00454 00000 13520          MVC   FSTXT1(LX17),DX0(JD)      GET 1ST PART OF FSE FROM ENV   93135021
 00ACA8 D20F D43C 4012 0046C 00012 13521          MVC   FSTXT3(LX16),DX18(JD)                                    93142021
 00ACAE D21E D44F 4022 0047F 00022 13522          MVC   FSTXT4(LX31),DX34(JD)     MOVE CT AND FILENAME           93149021
 00ACB4 1733                       13523        XR    JC,JC                     CLEAR REG                        93156021
 00ACB6 4330 D44F      0047F       13524        IC    JC,FSTXT4                 SIZE OF FN                       93163021
 00ACBA 4133 002D      0002D       13525          LA    JC,DX45(JC)              SIZE OF CONSTS 44,N'1' FN'X'    93170021
 00ACBE 4230 D422      00452       13526        STC   JC,FSN                    STORE SIZE IN 'N' OF FSE         93177021
 00ACC2 5810 C814      017A4       13527        L     JA,COSADR                 PUT OUT                          93184021
 00ACC6 4120 D421      00451       13528        LA    JB,FSTXT0                 FS-TEXT                          93191021
 00ACCA 0501                       13529        BALR  JR,JA                     CONSTANT-AREA AND FN             93198021
 00ACCC 23                         13530        DC    X'23'                     ON FILE 3                        93205021
 00ACCD 00
 00ACCE 5860 C834      017C4       13531        L     JF,QNMCON                 ADDR OF TIB 'QNMTBL'             93212021
 00ACD2 5866 0000      00000       13532          L     JF,DX0(JF)               ADDR OF TAMM                    93219021
 00ACD6 5866 0000      00000       13533          L     JF,DX0(JF)               ADDR OF QNMTBL                  93226021
 00ACDA 4150 0007      00007       13534          LA    JE,DX7                   COUNT 6 FIELDS SET-UP           93233021
                             00000 13535        USING ENFSDS,JD                                                  93240021
 00ACDE 4170 D466      00496       13536        LA    JG,FSDDN-NX8              ADDR OF TRK-AREA           3429  93247021
 00ACE2 D213 D466 4042 00496 00042 13537        MVC   FSETAN(LX20),ENFTAN       MOVE FROM ENVTBL           3429  93254021
1PH1A     IKFCBL10                                                                                              PAGE  272
-  LOC  OBJECT CODE    ADDR1 ADDR2  STMT   SOURCE STATEMENT                                       ASM 0201 11.03 02/14/15
000ACE8 9180 D443      00473       13538        TM    FSEDTC,XX80               TRACK AREA IS INTEGER?     3429  93261021
 00ACEC 4780 F0B6      0AD36       13539        BC    ZERO,PUTCN2               NO - PUTCN2                      93268021
 00ACF0 5810 C814      017A4       13540        L     JA,COSADR                 ADDR OF COS                      93275021
 00ACF4 4170 D466      00496       13541        LA    JG,FSDDN-NX8              ADDR ADJ OF 1ST FIELD      3429  93282021
 00ACF8 1827                       13542        LR    JB,JG                     ADDR OF FSETAN                   93289021
 00ACFA 1B33                       13543        SR    JC,JC                     CLEAR REG JC               3429  93296021
 00ACFC 4130 0002      00002       13544        LA    JC,DX2                    SIZE OF 2                  3429  93303021
 00AD00 45E0 F0E8      0AD68       13545        BAL   JP,PUTEXT                 -PUTEXT                          93310021
 00AD04 0650                       13546 PUTCN3 BCTR  JE,JR                     DECREMENT JE BY 1                93317021
 00AD06 4650 F08E      0AD0E       13547 PUTCNT BCT   JE,PUTNXT                 COUNT 5 AND FALL THRU            93324021
 00AD0A 47F0 F0F6      0AD76       13548        BC    UNCOND,PUTLRC             -PUTLRC                          93331021
 00AD0E 4177 0004      00004       13549 PUTNXT   LA    JG,DX4(JG)               ADDR ADJ TO NEXT FIELD          93338021
 00AD12 D501 7000 C14C 00000 010DC 13550          CLC   DX0(LX2,JG),HWZERO        SIZE IS ZERO                   93345021
 00AD18 4780 F0A4      0AD24       13551        BC    EQ,PUTBYT                 YES                              93352021
 00AD1C 45E0 F0C6      0AD46       13552        BAL   JP,PUTFST                 -PUTFST                          93359021
 00AD20 47F0 F086      0AD06       13553        BC    UNCOND,PUTCNT             -PUTCNT                          93366021
 00AD24 45E0 F0DA      0AD5A       13554 PUTBYT BAL   JP,PUTZER                 -PUTZER                          93373021
 00AD28 47F0 F086      0AD06       13555        BC    UNCOND,PUTCNT             -PUTCNT                          93380021
 00AD2C 45E0 F0DA      0AD5A       13556 PUTCN1 BAL   JP,PUTZER                 - PUTZER                   3429  93387021
 00AD30 0650                       13557        BCTR  JE,JR                     DECREMENT JE BY 1          3429  93394021
 00AD32 47F0 F086      0AD06       13558        B     PUTCNT                    - PUTCNT                   3429  93401021
 00AD36 9140 D443      00473       13559 PUTCN2 TM    FSEDTC,XX40               TRACK AREA IS BCD ?              93408021
 00AD3A 4780 F0AC      0AD2C       13560        BC    ZERO,PUTCN1               NO - PUTCN1                      93415021
 00AD3E 45E0 F0C6      0AD46       13561        BAL   JP,PUTFST                 WRITE TRACK AREA DATANAME        93422021
 00AD42 47F0 F084      0AD04       13562        B     PUTCN3                    - PUTCN3                         93429021
 00AD46 5810 C814      017A4       13563 PUTFST L     JA,COSADR                 ADDR OF COS                      93436021
 00AD4A 4847 0002      00002       13564          LH    JD,DX2(JG)               DISPL OF ENTRY IN QNMTBL        93443021
 00AD4E 4124 6000      00000       13565          LA    JB,DX0(JD,JF)            ADDR  OF ENTRY IN QNMTBL        93450021
 00AD52 4837 0000      00000       13566          LH    JC,DX0(JG)               SIZE  OF ENTRY IN QNMTBL        93457021
 00AD56 47F0 F0E8      0AD68       13567        BC    UNCOND,PUTEXT             -PUTEXT                          93464021
 00AD5A 5810 C814      017A4       13568 PUTZER L     JA,COSADR                 ADR OF COS                       93471021
 00AD5E 4120 C14C      010DC       13569        LA    JB,HWZERO                 ADDR OF ZERO                     93478021
 00AD62 1B33                       13570        SR    JC,JC                     CLEAR REG JC               3429  93485021
 00AD64 4130 0001      00001       13571        LA    JC,DX1                    SIZE OF 1                  3429  93492021
 00AD68 4950 C14C      010DC       13572 PUTEXT CH    JE,HWZERO                  LABEL-RECORDS ARE DATA-NAME     93499021
 00AD6C 478E 0000      00000       13573        BE    0(JP)                      YES - DATA NM PUT OUT           93506021
 00AD70 0501                       13574 PUTEX2 BALR  JR,JA                      PUTN ON                         93513021
 00AD72 13                         13575        DC    X'13'                     FILE-3                           93520021
 00AD73 00
 00AD74 07FE                       13576        BCR   UNCOND,JP                 -RETURN                          93527021
                                   13577 *                                                                       93534021
 00AD76 4170 D486      004B6       13578 PUTLRC LA    JG,FSDLRC                 ADDR OF FSDLRC                   93541021
 00AD7A 9106 D435      00465       13579          TM    FSDLRD,XX06              LABEL-RECORDS ARE DATA-NAME     93548021
 00AD7E 47E0 F126      0ADA6       13580        BC    NOTONE,PUTLST             NO-PUTLST                        93555021
 00AD82 45E0 F0C6      0AD46       13581        BAL   JP,PUTFST                 -PUTFST                          93562021
 00AD86 1273                       13582        LTR   JG,JC                      SAVE SIZE OF QNMTBL ENTRY       93569021
 00AD88 4780 F126      0ADA6       13583        BC    ZERO,PUTLST                IF 0 - SKIP                     93576021
 00AD8C 1B33                       13584        SR    JC,JC                                                      93583021
 00AD8E 4332 0000      00000       13585 PUTLOG   IC    JC,DX0(JB)                SIZE OF 1ST LOGICAL RECORD     93590021
 00AD92 4133 0001      00001       13586          LA    JC,DX1(JC)                BUMP SIZE                      93597021
 00AD96 5810 C814      017A4       13587        L     JA,COSADR                  PH 0 ADDR                       93604021
 00AD9A 45E0 F0F0      0AD70       13588        BAL   JP,PUTEX2                  PUT OUT                         93611021
 00AD9E 1A23                       13589        AR    JB,JC                      NEXT LOGICAL RECORD             93618021
 00ADA0 1B73                       13590        SR    JG,JC                      TOTAL SIZE - RECORD+CNT SIZE    93625021
 00ADA2 4720 F10E      0AD8E       13591        BP    PUTLOG                     GREATER THAN ZERO - PUT OUT     93632021
1PH1A     IKFCBL10                                                                                              PAGE  273
-  LOC  OBJECT CODE    ADDR1 ADDR2  STMT   SOURCE STATEMENT                                       ASM 0201 11.03 02/14/15
000ADA6 1851                       13592 PUTLST LR    JE,JA                      PUT OUT BYTE OF 0               93639021
 00ADA8 45E0 F0DA      0AD5A       13593        BAL   JP,PUTZER                  LAST BYTE OF ZERO               93646021
 00ADAC                            13594 TBLRPT DS    0H                                                         93653021
 00ADAC 9110 D353      00383       13595          TM    RPORSW,XX10              REPORT CLAUSE SPECIFIED         93660021
 00ADB0 4780 F2CC      0AF4C       13596        BZ    FDEOJ1                    NO EXIT                          93667021
 00ADB4 4830 D6B8      006E8       13597        LH    JC,FNWA                                                    93674021
 00ADB8 5850 C84C      017DC       13598        L     JE,PIOCON                                                  93681021
 00ADBC 5855 0000      00000       13599          L     JE,DX0(JE)                                               93688021
 00ADC0 5855 0000      00000       13600          L     JE,DX0(JE)                                               93695021
 00ADC4 4153 5000      00000       13601          LA    JE,DX0(JC,JE)                                            93702021
 00ADC8 9608 5000      00000       13602          OI    DX0(JE),XX08             SET ON AFTER ADVANCING OPT      93709021
 00ADCC 45E0 B6C2      025DA       13603        BAL   JP,GENNM                  YES..GET -NAME                   93716021
 00ADD0 D204 D9E4 B6F3 00A14 0260B 13604          MVC   WORKR3+NX1(LX5),GENID     -NAME TO 01 LD TEXT            93723021
 00ADD6 9110 D34D      0037D       13605          TM    RCDSW,XX10               RECORD CLAUSE SPECIFIED         93730021
 00ADDA 4710 F16E      0ADEE       13606        BC    ONES,TBLRA                YES...GO CHECK                   93737021
 00ADDE D204 D9EC D9F5 00A1C 00A25 13607          MVC   WORKR4+NX3(LX5),RWK133    NO ...MOVE DEFAULT TO 01       93744021
 00ADE4 D201 CDC4 D9FA 01D54 00A2A 13608        MVC   RWLREC,RWB133             MOVE BINARY DEFAULT TO 01        93751021
 00ADEA 47F0 F18E      0AE0E       13609        BC    UNCOND,TBLRA2         PUT 01 FOR REPORT ON FILE3           93758021
                                   13610 *                                                                       93765021
                                   13611 *  ROUTINE CHECKS RECORD CONTAINS INTEGER-1 TO INTEGER-2                93772021
                                   13612 *                                                                       93779021
 00ADEE                            13613 TBLRA  DS    0H                                                         93786021
 00ADEE 4830 D43A      0046A       13614        LH    JC,FSDRC2                 CHECK 'TO INTEGER-2'             93793021
 00ADF2 1233                       13615        LTR   JC,JC                     WAS IT SPECIFIED                 93800021
 00ADF4 4720 F17C      0ADFC       13616        BC    POS,TBLRA1                YES..DO NOT CHECK INTEGER-1      93807021
 00ADF8 4830 D438      00468       13617        LH    JC,FSDRC1                 NO...GET INTEGER-1               93814021
 00ADFC 4030 CDC4      01D54       13618 TBLRA1 STH   JC,RWLREC                 SAVE INTEGER IN BINARY           93821021
 00AE00 4E30 D978      009A8       13619        CVD   JC,WORKDA                 CONVERT TO DECIMAL               93828021
 00AE04 F342 D9EC D97D 00A1C 009AD 13620          UNPK  WORKR4+NX3(LX5),WORKDA+NX5(LX3) UNPACK INTO 01 LD TEXT A 93835021
 00AE0A 96F0 D9F0      00A20       13621          OI    WORKR4+NX7,XXF0          CHANGE 'C' TO 'F'               93842021
 00AE0E                            13622 TBLRA2 DS    0H                                                         93849021
 00AE0E 5810 C814      017A4       13623        L     JA,COSADR                 A(COS)                           93856021
 00AE12 4120 D9D7      00A07       13624        LA    JB,WORKR1                 A(LD TEXT)                       93863021
 00AE16 0501                       13625        BALR  JR,JA                     PUT 01 FOR REPORT                93870021
 00AE18 23                         13626        DC    X'23'                       ON FILE 3                      93877021
                                   13627 *  RWLREC CONTAINS SIZE OF 01 IN BINARY                                 93884021
 00AE19 00
 00AE1A D204 C92A B6F3 018BA 0260B 13628          MVC   RWRENT+NX30(LX5),GENID    -NAME TO TBL WORK-AREA         93891021
 00AE20 D201 C92F D763 018BF 00793 13629          MVC   RWRENT+NX35(LX2),RNWA     FILE NAME PTR TO WORK-AREA     93898021
 00AE26 D201 C931 CDC4 018C1 01D54 13630          MVC   RWRENT+NX37(LX2),RWLREC   REC-SIZE TO WORK-AREA          93905021
 00AE2C D708 C933 C933 018C3 018C3 13631          XC    RWRENT+NX39(LX9),RWRENT+NX39 RESET                       93912021
 00AE32 D201 CDBC C14C 01D4C 010DC 13632          MVC   CELL1(LX2),HWZERO        RESET CELL1 TO ZERO             93919021
 00AE38 45E0 F1E4      0AE64       13633        BAL   JP,TBLRA4                 JG POINTS TO RPT-NM IN QNMTB     93926021
 00AE3C 4840 D9B2      009E2       13634          LH    JD,RPOSAV+NX2            JD EQ NUM OF RPT-NAMES          93933021
 00AE40 D201 D9B2 C14C 009E2 010DC 13635          MVC   RPOSAV+NX2(LX2),HWZERO    RESET NUMBER OF RPT-NAMES      93940021
 00AE46 5810 C8AC      0183C       13636        L     JA,RWRCON                 RWRTBL TIB                       93947021
 00AE4A 45E0 BCC2      02BDA       13637        BAL   JP,TBLNIT                 GET START IN JA,DISPL IN JB      93954021
 00AE4E 4720 F20C      0AE8C       13638        BC    POS,TBLRB                 RWRTBL NOT EMPTY..CHECK NMS      93961021
 00AE52 45E0 F250      0AED0       13639        BAL   JP,TBLRC                  TBL EMPTY..ENTER RPT-NAMES       93968021
 00AE56                            13640 TBLRA3 DS    0H                                                         93975021
 00AE56 D72F C90C C90C 0189C 0189C 13641          XC    RWRENT(LX48),RWRENT      RESET RWRENT TO ZERO            93982021
 00AE5C 94EF D353      00383       13642          NI    RPORSW,XXEF              SET RPT-CLAUSE SWITCH 'OFF'     93989021
 00AE60 47F0 F2CC      0AF4C       13643        B     FDEOJ1                    EXIT                             93996021
 00AE64                            13644 TBLRA4 DS    0H                                                         94003021
 00AE64 5870 C834      017C4       13645        L     JG,QNMCON                 QNMTBL TIB                       94010021
1PH1A     IKFCBL10                                                                                              PAGE  274
-  LOC  OBJECT CODE    ADDR1 ADDR2  STMT   SOURCE STATEMENT                                       ASM 0201 11.03 02/14/15
000AE68 5877 0000      00000       13646          L     JG,DX0(JG)               TAMM                            94017021
 00AE6C 5877 0000      00000       13647          L     JG,DX0(JG)               TBL                             94024021
 00AE70 4A70 D9B0      009E0       13648        AH    JG,RPOSAV                 POINT TO FIRST RPT-NAME          94031021
 00AE74 4A70 CDBC      01D4C       13649        AH    JG,CELL1                  CUR RPT-NM (1ST-CELL1 = 0)       94038021
 00AE78 07FE                       13650        BCR   UNCOND,JP                 RETURN                           94045021
 00AE7A                            13651 TBLRA5 DS    0H                                                         94052021
 00AE7A 5810 C8AC      0183C       13652        L     JA,RWRCON                 RWRTBL TIB                       94059021
 00AE7E 5811 0000      00000       13653          L     JA,DX0(JA)               TAMM                            94066021
 00AE82 5811 0000      00000       13654          L     JA,DX0(JA)                TBL                            94073021
 00AE86 4A10 CDBE      01D4E       13655        AH    JA,CELL2                  CUR ENTRY (1ST-CELL2 = 0)        94080021
 00AE8A 07FE                       13656        BCR   UNCOND,JP             RETURN                               94087021
                                   13657 *                                                                       94094021
                                   13658 * ROUTINE COMPARES RPT-NAMES IN RWRTBL AND QNMTBC                       94101021
                                   13659 *                                                                       94108021
 00AE8C                            13660 TBLRB  DS    0H                                                         94115021
 00AE8C 1854                       13661        LR    JE,JD                     SAVE NUM OF RPT-NAMES            94122021
 00AE8E 1862                       13662        LR    JF,JB                      DISP INTO RWRTBL                94129021
 00AE90 D201 CDBE C14C 01D4E 010DC 13663          MVC   CELL2(LX2),HWZERO        RESET CELL2 TO ZERO             94136021
 00AE96 4140 0001      00001       13664 TBLRB1   LA    JD,DX1(JR)               MAKE 1 FOR TBLRC ROUTINE        94143021
 00AE9A D51D 7001 1000 00001 00000 13665 TBLRB2   CLC   DX1(LX30,JG),DX0(JA)      QNMTBL NAME : RWRTBL NAME      94150021
 00AEA0 4780 F28C      0AF0C       13666        BC    EQ,TBLRD                  EQ..CHECK 2ND NAME AND SIZE      94157021
 00AEA4 4111 0030      00030       13667          LA    JA,DX48(JA)              NEXT ENTRY IN RWRTBL            94164021
 00AEA8 4830 CDBE      01D4E       13668        LH    JC,CELL2                  DISPLACEMENT INTO RWRTBL         94171021
 00AEAC 4133 0030      00030       13669          LA    JC,DX48(JC)              ADD 48 (NEXT ENTRY)             94178021
 00AEB0 4030 CDBE      01D4E       13670        STH   JC,CELL2                  STORE IN CELL2                   94185021
 00AEB4 1936                       13671        CR    JC,JF                     OUT OF TABLE...                  94192021
 00AEB6 4740 F21A      0AE9A       13672        BC    LO,TBLRB2                 NO...CHECK NEXT RWRTBL ENTRY     94199021
 00AEBA 45E0 F250      0AED0       13673        BAL   JP,TBLRC                  YES..ENTER NAME IN RWRTBL        94206021
 00AEBE D201 CDBE C14C 01D4E 010DC 13674 TBLRB3   MVC   CELL2(LX2),HWZERO        RESET TO ZERO                   94213021
 00AEC4 45E0 F1FA      0AE7A       13675        BAL   JP,TBLRA5                 RESET JA TO START OF RWRTBL      94220021
 00AEC8 4650 F216      0AE96       13676        BCT   JE,TBLRB1                 CHECK EACH RPT-NM IN RWRTBL      94227021
 00AECC 47F0 F1D6      0AE56       13677        BC    UNCOND,TBLRA3             QNMTBL EMPTY..FINISH UP          94234021
                                   13678 *                                                                       94241021
                                   13679 * ROUTINE MAKES AN ENTRY INTO RWRTBL FOR EACH RPT-NAME                  94248021
                                   13680 *                                                                       94255021
 00AED0                            13681 TBLRC  DS    0H                                                         94262021
 00AED0 50E0 D8C4      008F4       13682        ST    JP,JPSAV2                                                  94269021
 00AED4 D21D C90C 7001 0189C 00001 13683 TBLRC1   MVC   RWRENT(LX30),DX1(JG)      RPT-NAME TO WORK-AREA          94276021
 00AEDA 5810 C8AC      0183C       13684        L     JA,RWRCON                 RWRTBL TIB                       94283021
 00AEDE 58F0 C81C      017AC       13685        L     JQ,ADSERT                 GET INSERT ADDRESS               94290021
 00AEE2 05EF                       13686        BALR  JP,JQ                       FOR RWRTBL ENTRY               94297021
 00AEE4 58F0 CE54      01DE4       13687        L     JQ,ADFLCL                 RESTORE BASE                     94304021
 00AEE8 D22F 2000 C90C 00000 0189C 13688          MVC   DX0(LX48,JB),RWRENT       MAKE ENTRY IN RWRTBL           94311021
 00AEEE 92FF 202E      0002E       13689          MVI   DX46(JB),XXFF            INDICATE RD NOT PROCESSED       94318021
 00AEF2 4830 CDBC      01D4C       13690        LH    JC,CELL1                  POINT TO                         94325021
 00AEF6 4133 001F      0001F       13691          LA    JC,DX31(JC)                NEXT RPT-NAME                 94332021
 00AEFA 4030 CDBC      01D4C       13692        STH   JC,CELL1                      IN QNMTBL                    94339021
 00AEFE 45E0 F1E4      0AE64       13693        BAL   JP,TBLRA4                 JG = A(NEXT ENTRY)               94346021
 00AF02 4640 F254      0AED4       13694        BCT   JD,TBLRC1                 MAKE AN ENTRY FOR EACH NAME      94353021
 00AF06 58E0 D8C4      008F4       13695        L     JP,JPSAV2                 RETURN                           94360021
 00AF0A 07FE                       13696        BCR   UNCOND,JP                   ON JP                          94367021
                                   13697 *                                                                       94374021
                                   13698 * ROUTINE CHECKS FOR A 2ND ENTRY IN A RWRTBL ENTRY                      94381021
                                   13699 *    ALSO GETS LARGER SIZE AND INSERTS IN RWRTBL                        94388021
                                   13700 *                                                                       94395021
1PH1A     IKFCBL10                                                                                              PAGE  275
-  LOC  OBJECT CODE    ADDR1 ADDR2  STMT   SOURCE STATEMENT                                       ASM 0201 11.03 02/14/15
000AF0C                            13701 TBLRD  DS    0H                                                         94402021
 00AF0C 9500 1027      00027       13702          CLI   DX39(JA),XX00            2ND -NAME SPECIFIED             94409021
 00AF10 4780 F29C      0AF1C       13703        BC    EQ,TBLRD1                 NO...INSERT 2ND NAME + PTR       94416021
 00AF14 45E0 DC0C      00C3C       13704        BAL   JP,MSG112                 DIAGNOSTIC 112                   94423021
 00AF18 47F0 F2B8      0AF38       13705        BC    UNCOND,TBLRD2         INCREMENT CELL1                      94430021
 00AF1C D204 1027 B6F3 00027 0260B 13706 TBLRD1   MVC   DX39(LX5,JA),GENID        -NAME TO ENTRY                 94437021
 00AF22 D201 102C D763 0002C 00793 13707          MVC   DX44(LX2,JA),RNWA         FILE-NAME PTR TO ENTRY         94444021
 00AF28 D501 CDC4 1025 01D54 00025 13708          CLC   RWLREC(LX2),DX37(JA)      2ND ENTRY SIZE : 1ST SIZE      94451021
 00AF2E 47D0 F2B8      0AF38       13709        BC    NOTHI,TBLRD2              2ND EQ OR LESS THAN 1ST          94458021
 00AF32 D201 1025 CDC4 00025 01D54 13710          MVC   DX37(LX2,JA),RWLREC       MOVE HIGHER SIZE TO ENTRY      94465021
 00AF38 4830 CDBC      01D4C       13711 TBLRD2 LH    JC,CELL1                  INCREMENT CELL1                  94472021
 00AF3C 4133 001F      0001F       13712          LA    JC,DX31(JC)                TO POINT TO NEXT              94479021
 00AF40 4030 CDBC      01D4C       13713        STH   JC,CELL1                      ENTRY IN QNMTBL              94486021
 00AF44 45E0 F1E4      0AE64       13714        BAL   JP,TBLRA4                 JG = A(NEXT ENTRY IN QNMTBL)     94493021
 00AF48 47F0 F23E      0AEBE       13715        BC    UNCOND,TBLRB3         RESET CELL2 TO 0                     94500021
 00AF4C                            13716 FDEOJ1 DS    0H                                                         94507021
 00AF4C 58E0 CE4C      01DDC       13717        L     JP,SVCAL5                                                  94514021
 00AF50 58F0 C040      00FD0       13718        L     JQ,DATDIV                                                  94521021
 00AF54 50F0 DA18      00A48       13719        ST    JQ,LNKR15                                                  94528021
 00AF58 07FE                       13720        BR    JP                    RETURN                               94535021
                                   13721        DROP  JD                                                         94542021
                                   13722 **********************                                                  94549021
                                   13723 *=2          SA + SD SCAN                                               94556021
                                   13724 *                                                                       94563021
                                   13725 *****     SA SCAN  SD SCAN     *****                                    94570021
                                   13726 *                                                                       94577021
                             0AF5A 13727 SADSNQ EQU   *                                                          94584021
 00AF5A D200 D428 C6E5 00458 01675 13728          MVC   SADLEV(LX1),CURN         SET LEVEL CODE                  94591021
 00AF60 50E0 D880      008B0       13729 SASCN1 ST    JP,SV1F03                 SAVE LINK REG                    94598021
 00AF64 45E0 B0CE      01FE6       13730        BAL   JP,CHKVRB                 -CHKVRB                          94605021
 00AF68 D72F D429 D429 00459 00459 13731        XC    SADSWU(SDLNGT),SADSWU     ZERO OUT ASTEXT AREA             94612021
 00AF6E D201 D426 D508 00456 00538 13732          MVC   SADCOD(LX2),SADCON       SET UP LEV-CON AND LENGTH       94619021
 00AF74 94C0 D34D      0037D       13733          NI    RCMDSW,XXC0              RESET SWITCHES (RCD,RCMD,DAT    94626021
 00AF78 D201 D42A C6E2 0045A 01672 13734          MVC   SADGCN(LX2),CURGCN       SET CARD NUMBER                 94633021
 00AF7E 45E0 B000      01F18       13735        BAL   JP,GETWD                  -GETWD                           94640021
 00AF82 9523 C6E4      01674       13736          CLI   CURCOD,XX23              UNQUAL-NAME                     94647021
 00AF86 4780 F316      0AF96       13737        BC    EQ,SASCN2                 YES-SASCN2                       94654021
 00AF8A 95A2 C6E4      01674       13738          CLI   CURCOD,XXA2              QUAL-NAME                       94661021
 00AF8E 4770 F454      0B0D4       13739        BC    NOTEQ,SASCNA              NO-SASCNA                        94668021
 00AF92 45E0 DADC      00B0C       13740        BAL   JP,MSG36                  -MSG36                           94675021
 00AF96 45E0 B664      0257C       13741 SASCN2 BAL   JP,BLNKRT                 -BLNKRT                          94682021
 00AF9A D21E D43A C6C2 0046A 01652 13742          MVC   SADBCD(LX31),CURCNT      NAME W/BLANKS TO WORK AREA      94689021
 00AFA0 4170 C6E5      01675       13743        LA    JG,CURN                   ADDR OF NAME                     94696021
 00AFA4 45E0 B5A0      024B8       13744        BAL   JP,SCHENV                 -SCHENV                          94703021
 00AFA8 9536 D428      00458       13745          CLI   SADLEV,XX36              SD LEVEL                        94710021
 00AFAC 4780 F38C      0B00C       13746        BE    SASC8G                    YES                              94717021
 00AFB0 9140 D34D      0037D       13747          TM    SCHSW,XX40               NAME WAS FOUND                  94724021
 00AFB4 4780 F33C      0AFBC       13748        BC    ZERO,SASC2A               NO-SASC2A                        94731021
 00AFB8 45E0 DB24      00B54       13749        BAL   JP,MSG54                  -MSG54                           94738021
 00AFBC 45E0 B286      0219E       13750 SASC2A BAL   JP,CPYNXT                 -CPYNXT                          94745021
 00AFC0 947F D34E      0037E       13751 SASCN3   NI    FDMSW,XX7F               SET 'OFF' FDMSW                 94752021
 00AFC4 45E0 B000      01F18       13752 SASCN4 BAL   JP,GETWD                  -GETWD                           94759021
 00AFC8 9554 C6E4      01674       13753          CLI   CURCOD,XX54              COBOL WORD                      94766021
 00AFCC 4780 F370      0AFF0       13754        BC    EQ,SASCN6                 YES-SASCN6                       94773021
 00AFD0 45E0 CE70      01E00       13755        BAL   JP,LEVENC                 -LEVENC                          94780021
1PH1A     IKFCBL10                                                                                              PAGE  276
-  LOC  OBJECT CODE    ADDR1 ADDR2  STMT   SOURCE STATEMENT                                       ASM 0201 11.03 02/14/15
000AFD4 9130 C6E4      01674       13756          TM    CURCOD,XX30              MAJOR-0                         94787021
 00AFD8 4780 F574      0B1F4       13757        BC    ZERO,SADWRT               YES-SADWRT                       94794021
 00AFDC 9180 D34E      0037E       13758          TM    FDMSW,XX80               FDMSW 'ON'                      94801021
 00AFE0 4710 F344      0AFC4       13759        BC    ONES,SASCN4               YES-SASCN4                       94808021
 00AFE4 45E0 DAE0      00B10       13760        BAL   JP,MSG37                  -MSG37                           94815021
 00AFE8 9680 D34E      0037E       13761 SASCN5   OI    FDMSW,XX80               SET 'ON' FDMSW                  94822021
 00AFEC 47F0 F344      0AFC4       13762        BC    UNCOND,SASCN4             -SASCN4                          94829021
 00AFF0 45E0 B0DC      01FF4       13763 SASCN6 BAL   JP,CHKCLS                 -CHKCLS                          94836021
 00AFF4 95CD C6E5      01675       13764          CLI   CURN,XXCD                RECORD                          94843021
 00AFF8 4770 F3EE      0B06E       13765        BC    NOTEQ,SASCN8              NO-SASCN8                        94850021
 00AFFC 9110 D34D      0037D       13766          TM    RCDSW,XX10               1ST RECORD CLAUSE               94857021
 00B000 4780 F47C      0B0FC       13767        BC    ZERO,RCDCHK               YES-RCDCHK                       94864021
 00B004 45E0 DA8C      00ABC       13768 SASCN7 BAL   JP,MSG16                  -MSG16                           94871021
 00B008 47F0 F368      0AFE8       13769        BC    UNCOND,SASCN5             -SASCN5                          94878021
 00B00C 9140 D34D      0037D       13770 SASC8G   TM    SCHSW,XX40               SD IN ENVTBL                    94885021
 00B010 4710 F3AA      0B02A       13771        BO    SASC8H                    YES                              94892021
 00B014 45E0 DB2C      00B5C       13772        BAL   JP,MSG56              ERROR MSG                            94899021
 00B018 5050 F478      0B0F8       13773        ST    R5,SSAVER5                 R5 DSCRD01 BASE REG       4264  94906021
 00B01C 5850 F474      0B0F4       13774        L     R5,A2DSCD01                ADDR DSCRD01              4264  94913021
 00B020 05E5                       13775        BALR  JP,R5                      GO THERE                  4264  94920021
 00B022 5850 F478      0B0F8       13776        L     R5,SSAVER5                 RESTORE R5                4264  94927021
 00B026 47F0 F33C      0AFBC       13777        B     SASC2A                CPYNXT                               94934021
                             0B02A 13778 SASC8H EQU   *                                                          94941021
                             00000 13779        USING ENFSDS,JB                                                  94948021
 00B02A D300 D429 201B 00459 0001B 13780          MVZ   SADSWU(LX1),ENFFL5       MOVE NO OF SORT WORK UNITS      94955021
 00B030 D200 D430 201A 00460 0001A 13781          MVC   SADDVC(LX1),ENFFL4       MOVE DEVICE CLASS               94962021
 00B036 94E0 D430      00460       13782          NI    SADDVC,XXE0              TURN ON OTHER BITS              94969021
 00B03A D207 D432 2002 00462 00002 13783          MVC   SADEXN(LX8),ENFEXT       MOVE EXTERNAL NAME              94976021
 00B040 9108 200B      0000B       13784        TM    ENFFL2,ENFSSS             SAME SORT SW ON                  94983021
 00B044 4780 F3CC      0B04C       13785        BZ    SASC8I                    NO                               94990021
 00B048 9601 D429      00459       13786          OI    SADSTS,XX01              TURN ON SAME SORT SW            94997021
 00B04C 9110 200B      0000B       13787 SASC8I TM    ENFFL2,ENFSRS             SAME REC SW ON                   95004021
 00B050 4780 F3DE      0B05E       13788        BZ    SASC8J                SAME AREA FOR SD                     95011021
 00B054 9602 D429      00459       13789          OI    SADSRS,XX02              SET SAME REC SW ON              95018021
 00B058 D200 D431 201C 00461 0001C 13790          MVC   SADSRA(LX1),ENFSRA                                       95025021
 00B05E 9140 200B      0000B       13791 SASC8J TM    ENFFL2,ENFSMS             SAME AREA FOR SD                 95032021
 00B062 4780 F33C      0AFBC       13792        BZ    SASC2A                    NO                               95039021
 00B066 45E0 DC98      00CC8       13793        BAL   JP,MSG147             ERROR MSG                            95046021
 00B06A 47F0 F33C      0AFBC       13794        B     SASC2A                CPYNXT                               95053021
 00B06E 9536 D428      00458       13795 SASCN8   CLI   SADLEV,XX36              IN SD LEVEL                     95060021
 00B072 4770 F41E      0B09E       13796        BC    NOTEQ,SASCN9              NO-SASCN9                        95067021
 00B076 9501 C6E5      01675       13797          CLI   CURN,XX01                DATA                            95074021
 00B07A 4770 F40A      0B08A       13798        BC    NOTEQ,SASC8A              NO-SASC8A                        95081021
 00B07E 9102 D34D      0037D       13799          TM    DATASW,XX02              1ST DATA CLAUSE                 95088021
 00B082 4780 F4DC      0B15C       13800        BC    ZERO,DATCHK               YES-DATCHK                       95095021
 00B086 47F0 F384      0B004       13801        BC    UNCOND,SASCN7             -SASCN7                          95102021
 00B08A 9516 C6E5      01675       13802 SASC8A   CLI   CURN,XX16                RECORDING                       95109021
 00B08E 4770 F41E      0B09E       13803        BNE   SASCN9                    NO                               95116021
 00B092 9120 D34D      0037D       13804          TM    RCMDSW,XX20              1ST RECORDING CLAUSE            95123021
 00B096 4780 F518      0B198       13805        BC    ZERO,MODCHK               YES-MODCHK                       95130021
 00B09A 47F0 F384      0B004       13806        BC    UNCOND,SASCN7             -SASCN7                          95137021
 00B09E 9180 D34E      0037E       13807 SASCN9   TM    FDMSW,XX80               FDMSW 'ON'                      95144021
 00B0A2 4710 F43C      0B0BC       13808        BC    ONES,SASC45               YES - SASC45                     95151021
 00B0A6 45E0 DAD4      00B04       13809 WMSG34 BAL   JP,MSG34                  - MSG34                          95158021
 00B0AA D501 C79A A4DE 0172A 030CE 13810        CLC   NXTCOD(LX2),RECCON        NEXT IS RECORD?                  95165021
1PH1A     IKFCBL10                                                                                              PAGE  277
-  LOC  OBJECT CODE    ADDR1 ADDR2  STMT   SOURCE STATEMENT                                       ASM 0201 11.03 02/14/15
000B0B0 4770 F368      0AFE8       13811        BC    NOTEQ,SASCN5              NO - SASCN5                      95172021
 00B0B4 45E0 B000      01F18       13812        BAL   JP,GETWD                  GET NEXT WORD                    95179021
 00B0B8 47F0 F368      0AFE8       13813        BC    UNCOND,SASCN5             - SASCN5                         95186021
 00B0BC D501 C6E4 A324 01674 02F14 13814 SASC45 CLC   CURCOD(LX2),LABCON        LABEL CLAUSE?                    95193021
 00B0C2 4780 F426      0B0A6       13815        BC    EQ,WMSG34                 YES - WMSG34                     95200021
 00B0C6 D501 C6E4 A2A4 01674 02E94 13816        CLC   CURCOD(LX2),BLKCON        BLOCK CLAUSE?                    95207021
 00B0CC 4780 F426      0B0A6       13817        BC    EQ,WMSG34                 YES - WMSG34                     95214021
 00B0D0 47F0 F344      0AFC4       13818        BC    UNCOND,SASCN4             - SASCN4                         95221021
 00B0D4 45E0 DB28      00B58       13819 SASCNA BAL   JP,MSG55                  -MSG55                           95228021
 00B0D8 5050 F478      0B0F8       13820        ST    R5,SSAVER5                 R5 DSCRD01 BASE REG       4264  95235021
 00B0DC 5850 F474      0B0F4       13821        L     R5,A2DSCD01                ADDR DSCRD01              4264  95242021
 00B0E0 05E5                       13822        BALR  JP,R5                      GO THERE                  4264  95249021
 00B0E2 5850 F478      0B0F8       13823        L     R5,SSAVER5                 RESTORE R5                4264  95256021
 00B0E6 58E0 D880      008B0       13824 SASCNB L     JP,SV1F03                 RESTORE LINK REG                 95263021
 00B0EA 58F0 C040      00FD0       13825        L     JQ,DATDIV                                                  95270021
 00B0EE 50F0 DA18      00A48       13826        ST    JQ,LNKR15                                                  95277021
 00B0F2 07FE                       13827        BCR   UNCOND,JP                 -RETURN                          95284021
                                   13828 *                                                                 4264  95291021
                                   13829 *                                                                 4264  95298021
 00B0F4 00005D70                   13830 A2DSCD01 DC    A(DSCRD01)               ADDR DISCARD 01 ROUTINE   4264  95305021
 00B0F8 00000000                   13831 SSAVER5  DC    F'0'                     R5 SAVEAREA               4264  95312021
                                   13832 *                                                                 4264  95319021
                                   13833 *                                                                 4264  95326021
 00B0FC D501 C79A A6D7 0172A 032C7 13834 RCDCHK   CLC   NXTCOD(LX2),CONTCN       NEXT IS CONTAINS                95333021
 00B102 4770 F48A      0B10A       13835        BC    NOTEQ,RCDCK1              NO-RCDCK1                        95340021
 00B106 45E0 B000      01F18       13836        BAL   JP,GETWD                  -GETWD                           95347021
 00B10A 9108 C797      01727       13837 RCDCK1   TM    NXTSW,XX08               NEXT IS INT-NUM-LIT             95354021
 00B10E 4780 F4CC      0B14C       13838        BC    ZERO,RCDCK3               NO-RCDCK3                        95361021
 00B112 45E0 B000      01F18       13839        BAL   JP,GETWD                  -GETWD                           95368021
 00B116 45E0 B528      02440       13840        BAL   JP,CNVBIN                 CONVERT TO BINARY                95375021
 00B11A 4020 D42C      0045C       13841        STH   JB,SADNM1                 STORE 1ST INTEGER                95382021
 00B11E 9610 D34D      0037D       13842          OI    RCDSW,XX10               SET 'ON' RCDSW                  95389021
 00B122 45E0 B1A0      020B8       13843        BAL   JP,CHKTO                  -CHKTO                           95396021
 00B126 9108 C797      01727       13844          TM    NXTSW,XX08               NEXT IS INT-NUM-LIT             95403021
 00B12A 4780 F4BA      0B13A       13845        BC    ZERO,RCDCK2               NO-RCDCK2                        95410021
 00B12E 45E0 B000      01F18       13846        BAL   JP,GETWD                  -GETWD                           95417021
 00B132 45E0 B528      02440       13847        BAL   JP,CNVBIN                 -CNVBIN                          95424021
 00B136 4020 D42E      0045E       13848        STH   JB,SADNM2                 STORE 2ND INTEGER                95431021
 00B13A D501 C79A A8A4 0172A 03494 13849 RCDCK2   CLC   NXTCOD(LX2),CHARCN       NEXT IS CHARACTERS              95438021
 00B140 4770 F340      0AFC0       13850        BC    NOTEQ,SASCN3              NO-SASCN3                        95445021
 00B144 45E0 B000      01F18       13851        BAL   JP,GETWD                  -GETWD                           95452021
 00B148 47F0 F340      0AFC0       13852        BC    UNCOND,SASCN3             -SASCN3                          95459021
 00B14C 9536 D428      00458       13853 RCDCK3   CLI   SADLEV,XX36                 SD LEVEL               07727 95466021
 00B150 4780 F344      0AFC4       13854          BC    EQ,SASCN4                YES,SKP TO NXT CLAUSE     07727 95473021
 00B154 45E0 DB20      00B50       13855          BAL   JP,MSG53                    -MSG53                 07727 95480021
 00B158 47F0 F368      0AFE8       13856        BC    UNCOND,SASCN5             -SASCN5                          95487021
 00B15C 9554 C79A      0172A       13857 DATCHK   CLI   NXTCOD,XX54              NEXT IS COBOL WORD              95494021
 00B160 4770 F4CC      0B14C       13858        BC    NOTEQ,RCDCK3              NO-RCDCK3                        95501021
 00B164 95CD C79B      0172B       13859          CLI   NXTN,XXCD                NEXT IS RECORD                  95508021
 00B168 4780 F4F4      0B174       13860        BC    EQ,DATGET                 YES-DATGET                       95515021
 00B16C 95CF C79B      0172B       13861          CLI   NXTN,XXCF                NEXT IS RECORDS                 95522021
 00B170 4770 F4CC      0B14C       13862        BC    NOTEQ,RCDCK3              NO-RCDCK3                        95529021
 00B174 45E0 B000      01F18       13863 DATGET BAL   JP,GETWD                  -GETWD                           95536021
 00B178 45E0 B18E      020A6       13864        BAL   JP,CHKIS                  -CHKIS                           95543021
 00B17C 9523 C79A      0172A       13865          CLI   NXTCOD,XX23              NEXT IS UNQUAL-NAME             95550021
1PH1A     IKFCBL10                                                                                              PAGE  278
-  LOC  OBJECT CODE    ADDR1 ADDR2  STMT   SOURCE STATEMENT                                       ASM 0201 11.03 02/14/15
000B180 4770 F4CC      0B14C       13866        BC    NOTEQ,RCDCK3              NO-RCDCK3                        95557021
 00B184 9602 D34D      0037D       13867          OI    DATASW,XX02              SET 'ON' DATASW                 95564021
 00B188 45E0 B000      01F18       13868 DATCK1 BAL   JP,GETWD                  -GETWD                           95571021
 00B18C 9523 C79A      0172A       13869          CLI   NXTCOD,XX23              NEXT IS UNQUAL-NAME             95578021
 00B190 4780 F508      0B188       13870        BC    EQ,DATCK1                 YES-DATCK1                       95585021
 00B194 47F0 F340      0AFC0       13871        BC    UNCOND,SASCN3             -SASCN3                          95592021
 00B198 D501 C79A A1BD 0172A 02DAD 13872 MODCHK   CLC   NXTCOD(LX2),MODECN       NEXT IS MODE                    95599021
 00B19E 4770 F526      0B1A6       13873        BC    NOTEQ,MODCK1              NO-MODCK1                        95606021
 00B1A2 45E0 B000      01F18       13874        BAL   JP,GETWD                  -GETWD                           95613021
 00B1A6 45E0 B18E      020A6       13875 MODCK1 BAL   JP,CHKIS                  -CHKIS                           95620021
 00B1AA 45E0 B000      01F18       13876        BAL   JP,GETWD                  -GETWD                           95627021
 00B1AE D501 C6E4 C58B 01674 0151B 13877          CLC   CURCOD(LX2),MODBYT       ALPHA LIT OF 1 CHARACTER        95634021
 00B1B4 4770 F56C      0B1EC       13878        BC    NOTEQ,SDMG11              NO-SDMG11                        95641021
 00B1B8 95C6 C6E6      01676       13879          CLI   CURBCD,XCF               'F'                             95648021
 00B1BC 4770 F548      0B1C8       13880        BC    NOTEQ,MODCK2              NO-MODCK2                        95655021
 00B1C0 9610 D430      00460       13881          OI    SADMOD,XX10              SET F BIT                       95662021
 00B1C4 47F0 F554      0B1D4       13882        BC    UNCOND,MODCK3             -MODCK3                          95669021
 00B1C8 95E5 C6E6      01676       13883 MODCK2   CLI   CURBCD,XCV               'V'                             95676021
 00B1CC 4770 F55C      0B1DC       13884        BNE   MODCK5                     NO                              95683021
 00B1D0 9608 D430      00460       13885          OI    SADMOD,XX08              SET V BIT ON                    95690021
 00B1D4 9620 D34D      0037D       13886 MODCK3   OI    RCMDSW,XX20              SET 'ON' RCMDSW                 95697021
 00B1D8 47F0 F340      0AFC0       13887        BC    UNCOND,SASCN3             -SASCN3                          95704021
 00B1DC 95E2 C6E6      01676       13888 MODCK5   CLI   CURBCD,XCS                S                              95711021
 00B1E0 4770 F56C      0B1EC       13889        BNE   SDMG11                    NO ERROR                         95718021
 00B1E4 9602 D430      00460       13890          OI    SADMOD,XX02              SET S BIT                       95725021
 00B1E8 47F0 F554      0B1D4       13891        B     MODCK3                SET ON RCMDSW                        95732021
 00B1EC 45E0 DA78      00AA8       13892 SDMG11 BAL   JP,MSG11                  -MSG11                           95739021
 00B1F0 47F0 F368      0AFE8       13893        BC    UNCOND,SASCN5             -SASCN5                          95746021
 00B1F4 5810 C814      017A4       13894 SADWRT L     JA,COSADR                 WRITE                            95753021
 00B1F8 9140 D34D      0037D       13895          TM    SCHSW,XX40                   IS SD IN ENVTBL             95760021
 00B1FC 4780 F466      0B0E6       13896        BZ    SASCNB                RETURN                               95767021
 00B200 4120 D426      00456       13897        LA    JB,SADCOD                 SADTXT                           95774021
 00B204 0501                       13898        BALR  JR,JA                     ON FILE                          95781021
 00B206 23                         13899        DC    X'23'                     3                                95788021
 00B207 00
 00B208 47F0 F466      0B0E6       13900        BC    UNCOND,SASCNB             -SASCNB                          95795021
                                   13901        DROP  JB                                                         95802021
 00B20C                            13902 THEEND DS    0F                                                         95809021
                             00000 13903 DX0      EQU   0                                                        95816021
                             00000 13904 LX0      EQU   0                                                        95823021
                             00001 13905 DX1      EQU   1                                                        95830021
                             00001 13906 NX1      EQU   1                                                        95837021
                             00001 13907 LX1      EQU   1                                                        95844021
                             00002 13908 DX2      EQU   2                                                        95851021
                             00002 13909 NX2      EQU   2                                                        95858021
                             00002 13910 LX2      EQU   2                                                        95865021
                             00003 13911 DX3      EQU   3                                                        95872021
                             00003 13912 NX3      EQU   3                                                        95879021
                             00003 13913 LX3      EQU   3                                                        95886021
                             00004 13914 DX4      EQU   4                                                        95893021
                             00004 13915 NX4      EQU   4                                                        95900021
                             00004 13916 LX4      EQU   4                                                        95907021
                             00005 13917 DX5      EQU   5                                                        95914021
                             00005 13918 NX5      EQU   5                                                        95921021
                             00005 13919 LX5      EQU   5                                                        95928021
1PH1A     IKFCBL10                                                                                              PAGE  279
-  LOC  OBJECT CODE    ADDR1 ADDR2  STMT   SOURCE STATEMENT                                       ASM 0201 11.03 02/14/15
0                            00006 13920 DX6      EQU   6                                                        95935021
                             00006 13921 NX6      EQU   6                                                        95942021
                             00007 13922 DX7      EQU   7                                                        95949021
                             00007 13923 NX7      EQU   7                                                        95956021
                             00008 13924 DX8      EQU   8                                                        95963021
                             00008 13925 NX8      EQU   8                                                        95970021
                             00008 13926 LX8      EQU   8                                                        95977021
                             00009 13927 DX9      EQU   9                                                        95984021
                             00009 13928 NX9      EQU   9                                                        95991021
                             00009 13929 LX9      EQU   9                                                        95998021
                             0000A 13930 DX10     EQU   10                                                       96005021
                             0000B 13931 DX11     EQU   11                                                       96012021
                             0000B 13932 NX11     EQU   11                                                       96019021
                             0000C 13933 DX12     EQU   12                                                       96026021
                             0000C 13934 NX12     EQU   12                                                       96033021
                             0000D 13935 NX13     EQU   13                                                       96040021
                             0000E 13936 DX14     EQU   14                                                       96047021
                             00010 13937 DX16     EQU   16                                                       96054021
                             00010 13938 NX16     EQU   16                                                       96061021
                             00011 13939 DX17     EQU   17                                                       96068021
                             00011 13940 NX17     EQU   17                                                       96075021
                             00012 13941 DX18     EQU   18                                                       96082021
                             00012 13942 NX18     EQU   18                                                       96089021
                             00014 13943 DX20     EQU   20                                                       96096021
                             00014 13944 NX20     EQU   20                                                       96103021
                             00015 13945 NX21     EQU   21                                                       96110021
                             00016 13946 DX22     EQU   22                                                       96117021
                             00016 13947 NX22     EQU   22                                                       96124021
                             00018 13948 DX24     EQU   24                                                       96131021
                             00019 13949 DX25     EQU   25                                                       96138021
                             0001A 13950 DX26     EQU   26                                                       96145021
                             0001A 13951 NX26     EQU   26                                                       96152021
                             0001C 13952 NX28     EQU   28                                                       96159021
                             0001D 13953 DX29     EQU   29                                                       96166021
                             0001E 13954 DX30     EQU   30                                                       96173021
                             0001E 13955 NX30     EQU   30                                                       96180021
                             0001F 13956 DX31     EQU   31                                                       96187021
                             0001F 13957 NX31     EQU   31                                                       96194021
                             00020 13958 NX32     EQU   32                                                       96201021
                             00021 13959 DX33     EQU   33                                                       96208021
                             00022 13960 DX34     EQU   34                                                       96215021
                             00022 13961 NX34     EQU   34                                                       96222021
                             00023 13962 DX35     EQU   35                                                       96229021
                             00023 13963 NX35     EQU   35                                                       96236021
                             00024 13964 DX36     EQU   36                                                       96243021
                             00024 13965 NX36     EQU   36                                                       96250021
                             00025 13966 DX37     EQU   37                                                       96257021
                             00025 13967 NX37     EQU   37                                                       96264021
                             00026 13968 DX38     EQU   38                                                       96271021
                             00027 13969 DX39     EQU   39                                                       96278021
                             00027 13970 NX39     EQU   39                                                       96285021
                             0002B 13971 DX43     EQU   43                                                       96292021
                             0002C 13972 DX44     EQU   44                                                       96299021
                             0002D 13973 DX45     EQU   45                                                       96306021
                             0002E 13974 DX46     EQU   46                                                       96313021
1PH1A     IKFCBL10                                                                                              PAGE  280
-  LOC  OBJECT CODE    ADDR1 ADDR2  STMT   SOURCE STATEMENT                                       ASM 0201 11.03 02/14/15
0                            00030 13975 DX48     EQU   48                                                       96320021
                             00038 13976 NX56     EQU   56                                                       96327021
                             0003B 13977 DX59     EQU   59                                                       96334021
                             00040 13978 DX64     EQU   64                                                       96341021
                             00048 13979 NX72     EQU   72                                                       96348021
                             00049 13980 NX73     EQU   73                                                       96355021
                             0004A 13981 NX74     EQU   74                                                       96362021
                             00058 13982 DX88     EQU   88                                                       96369021
                             00060 13983 NX96     EQU   96                                                       96376021
                             0006A 13984 DX106    EQU   106                                                      96383021
                             00072 13985 DX114    EQU   114                                                      96390021
                             0007A 13986 DX122    EQU   122                                                      96397021
                             0007B 13987 DX123    EQU   123                                                      96404021
                             0007C 13988 DX124    EQU   124                                                      96411021
                             0007D 13989 DX125    EQU   125                                                      96418021
                             0007E 13990 DX126    EQU   126                                                      96425021
                             00082 13991 DX130    EQU   130                                                      96432021
                             00094 13992 DX148    EQU   148                                                      96439021
                             000D2 13993 DX210    EQU   210                                                      96446021
                             000D5 13994 DX213    EQU   213                                                      96453021
                             000D7 13995 DX215    EQU   215                                                      96460021
                             000DA 13996 DX218    EQU   218                                                      96467021
                             000DC 13997 DX220    EQU   220                                                      96474021
                             000DD 13998 DX221    EQU   221                                                      96481021
                             00007 13999 XX07     EQU   X'07'                                                    96488021
                             00003 14000 XX03     EQU   X'03'                                                    96495021
                             0007F 14001 XX7F     EQU   X'7F'                                                    96502021
                             00002 14002 XX02     EQU   X'02'                                                    96509021
                             000FD 14003 XXFD     EQU   X'FD'                                                    96516021
                             00020 14004 XX20     EQU   X'20'                                                    96523021
                             00080 14005 XX80     EQU   X'80'                                                    96530021
                             00040 14006 XX40     EQU   X'40'                                                    96537021
                             00001 14007 XX01     EQU   X'01'                                                    96544021
                             00032 14008 XX32     EQU   X'32'                                                    96551021
                             00023 14009 XX23     EQU   X'23'                                                    96558021
                             00000 14010 XX00     EQU   X'00'                                                    96565021
                             000B9 14011 XXB9     EQU   X'B9'                                                    96572021
                             000A2 14012 XXA2     EQU   X'A2'                                                    96579021
                             00034 14013 XX34     EQU   X'34'                                                    96586021
                             00008 14014 XX08     EQU   X'08'                                                    96593021
                             000F9 14015 XXF9     EQU   X'F9'                                                    96600021
                             000F0 14016 XXF0     EQU   X'F0'                                                    96607021
                             000CF 14017 XXCF     EQU   X'CF'                                                    96614021
                             000D1 14018 XXD1     EQU   X'D1'                                                    96621021
                             00060 14019 XX60     EQU   X'60'                                                    96628021
                             00004 14020 XX04     EQU   X'04'                                                    96635021
                             000FC 14021 XXFC     EQU   X'FC'                                                    96642021
                             000FB 14022 XXFB     EQU   X'FB'                                                    96649021
                             00033 14023 XX33     EQU   X'33'                                                    96656021
                             0006B 14024 XX6B     EQU   X'6B'                                                    96663021
                             0004D 14025 XX4D     EQU   X'4D'                                                    96670021
                             0004E 14026 XX4E     EQU   X'4E'                                                    96677021
                             0005D 14027 XX5D     EQU   X'5D'                                                    96684021
                             00030 14028 XX30     EQU   X'30'                                                    96691021
                             00010 14029 XX10     EQU   X'10'                                                    96698021
1PH1A     IKFCBL10                                                                                              PAGE  281
-  LOC  OBJECT CODE    ADDR1 ADDR2  STMT   SOURCE STATEMENT                                       ASM 0201 11.03 02/14/15
0                            0008F 14030 XX8F     EQU   X'8F'                                                    96705021
                             000BF 14031 XXBF     EQU   X'BF'                                                    96712021
                             00022 14032 XX22     EQU   X'22'                                                    96719021
                             000FF 14033 XXFF     EQU   X'FF'                                                    96726021
                             000F3 14034 XXF3     EQU   X'F3'                                                    96733021
                             000F1 14035 XXF1     EQU   X'F1'                                                    96740021
                             0000B 14036 XX0B     EQU   X'0B'                                                    96747021
                             000F4 14037 XXF4     EQU   X'F4'                                                    96754021
                             00043 14038 XX43     EQU   X'43'                                                    96761021
                             0004B 14039 XX4B     EQU   X'4B'                                                    96768021
                             000DF 14040 XXDF     EQU   X'DF'                                                    96775021
                             0001F 14041 XX1F     EQU   X'1F'                                                    96782021
                             0005E 14042 XX5E     EQU   X'5E'                                                    96789021
                             000EF 14043 XXEF     EQU   X'EF'                                                    96796021
                             000F7 14044 XXF7     EQU   X'F7'                                                    96803021
                             000C3 14045 XXC3     EQU   X'C3'                                                    96810021
                             00054 14046 XX54     EQU   X'54'                                                    96817021
                             0005C 14047 XX5C     EQU   X'5C'                                                    96824021
                             0004F 14048 XX4F     EQU   X'4F'                                                    96831021
                             00050 14049 XX50     EQU   X'50'                                                    96838021
                             00009 14050 XX09     EQU   X'09'                                                    96845021
                             000C5 14051 XXC5     EQU   X'C5'                                                    96852021
                             00042 14052 XX42     EQU   X'42'                                                    96859021
                             00088 14053 XX88     EQU   X'88'                                                    96866021
                             00035 14054 XX35     EQU   X'35'                                                    96873021
                             0003F 14055 XX3F     EQU   X'3F'                                                    96880021
                             00061 14056 XX61     EQU   X'61'                                                    96887021
                             00006 14057 XX06     EQU   X'06'                                                    96894021
                             00036 14058 XX36     EQU   X'36'                                                    96901021
                             00038 14059 XX38     EQU   X'38'                                                    96908021
                             00039 14060 XX39     EQU   X'39'                                                    96915021
                             000AF 14061 XXAF     EQU   X'AF'                                                    96922021
                             000D7 14062 XXD7     EQU   X'D7'                                                    96929021
                             000D8 14063 XXD8     EQU   X'D8'                                                    96936021
                             000D9 14064 XXD9     EQU   X'D9'                                                    96943021
                             00075 14065 XX75     EQU   X'75'                                                    96950021
                             000DA 14066 XXDA     EQU   X'DA'                                                    96957021
                             0000F 14067 XX0F     EQU   X'0F'                                                    96964021
                             00094 14068 XX94     EQU   X'94'                                                    96971021
                             0008D 14069 XX8D     EQU   X'8D'                                                    96978021
                             0008C 14070 XX8C     EQU   X'8C'                                                    96985021
                             000BC 14071 XXBC     EQU   X'BC'                                                    96992021
                             0009B 14072 XX9B     EQU   X'9B'                                                    96999021
                             000CA 14073 XXCA     EQU   X'CA'                                                    97006021
                             00018 14074 XX18     EQU   X'18'                                                    97013021
                             00028 14075 XX28     EQU   X'28'                                                    97020021
                             000DB 14076 XXDB     EQU   X'DB'                                                    97027021
                             000DD 14077 XXDD     EQU   X'DD'                                                    97034021
                             00005 14078 XX05     EQU   X'05'                                                    97041021
                             00037 14079 XX37     EQU   X'37'                                                    97048021
                             000C0 14080 XXC0     EQU   X'C0'                                                    97055021
                             00016 14081 XX16     EQU   X'16'                                                    97062021
                             000CD 14082 XXCD     EQU   X'CD'                                                    97069021
                             000CC 14083 XXCC     EQU   X'CC'                                                    97076021
                             000D6 14084 XXD6     EQU   X'D6'                                                    97083021
1PH1A     IKFCBL10                                                                                              PAGE  282
-  LOC  OBJECT CODE    ADDR1 ADDR2  STMT   SOURCE STATEMENT                                       ASM 0201 11.03 02/14/15
0                            000D4 14085 XXD4     EQU   X'D4'                                                    97090021
                             000D5 14086 XXD5     EQU   X'D5'                                                    97097021
                             0006C 14087 XX6C     EQU   X'6C'                                                    97104021
                             000E5 14088 XXE5     EQU   X'E5'                                                    97111021
                             000D0 14089 XXD0     EQU   X'D0'                                                    97118021
                             000E6 14090 XXE6     EQU   X'E6'                                                    97125021
                             000E7 14091 XXE7     EQU   X'E7'                                                    97132021
                             00053 14092 XX53     EQU   X'53'                                                    97139021
                             000A0 14093 XXA0     EQU   X'A0'                                                    97146021
                             0005F 14094 XX5F     EQU   X'5F'                                                    97153021
                             00095 14095 XX95     EQU   X'95'                                                    97160021
                             000E9 14096 XXE9     EQU   X'E9'                                                    97167021
                             000EC 14097 XXEC     EQU   X'EC'                                                    97174021
                             000EA 14098 XXEA     EQU   X'EA'                                                    97181021
                             00096 14099 XX96     EQU   X'96'                                                    97188021
                             000EB 14100 XXEB     EQU   X'EB'                                                    97195021
                             000C1 14101 XXC1     EQU   X'C1'                                                    97202021
                             000E1 14102 XXE1     EQU   X'E1'                                                    97209021
                             00031 14103 XX31     EQU   X'31'                                                    97216021
                             0000A 14104 XX0A     EQU   X'0A'                                                    97223021
                             00097 14105 XX97     EQU   X'97'                                                    97230021
                             000EE 14106 XXEE     EQU   X'EE'                                                    97237021
                             00026 14107 XX26     EQU   X'26'                                                    97244021
                             00044 14108 XX44     EQU   X'44'                                                    97251021
                             0000E 14109 XX0E     EQU   X'0E'                                                    97258021
                             000FA 14110 XXFA     EQU   X'FA'                                                    97265021
                             000F6 14111 XXF6     EQU   X'F6'                                                    97272021
                             000F8 14112 XXF8     EQU   X'F8'                                                    97279021
                             00070 14113 XX70     EQU   X'70'                                                    97286021
                             000B0 14114 XXB0     EQU   X'B0'                                                    97293021
                             00048 14115 XX48     EQU   X'48'                                                    97300021
                             0000C 14116 XX0C     EQU   X'0C'                                                    97307021
                             00098 14117 XX98     EQU   X'98'                                                    97314021
                             0002B 14118 XX2B     EQU   X'2B'                                                    97321021
                             0002D 14119 XX2D     EQU   X'2D'                                                    97328021
                             00024 14120 XX24     EQU   X'24'                                                    97335021
                             000F5 14121 XXF5     EQU   X'F5'                                                    97342021
                             000F2 14122 XXF2     EQU   X'F2'                                                    97349021
                             000AD 14123 XXAD     EQU   X'AD'                                                    97356021
                             00055 14124 XX55     EQU   X'55'                                                    97363021
                             00019 14125 XX19     EQU   X'19'                                                    97370021
                             00077 14126 XX77     EQU   X'77'                                                    97377021
                             00078 14127 XX78     EQU   X'78'                                                    97384021
                             00013 14128 XX13     EQU   X'13'                                                    97391021
                             00014 14129 XX14     EQU   X'14'                                                    97398021
                             000E2 14130 XXE2     EQU   X'E2'                                                    97405021
                             000C4 14131 XXC4     EQU   X'C4'                                                    97412021
                             000C9 14132 XXC9     EQU   X'C9'                                                    97419021
                             000B2 14133 XXB2     EQU   X'B2'                                                    97426021
                             00068 14134 XX68     EQU   X'68'                                                    97433021
                             000B4 14135 XXB4     EQU   X'B4'                                                    97440021
                             000B5 14136 XXB5     EQU   X'B5'                                                    97447021
                             000B6 14137 XXB6     EQU   X'B6'                                                    97454021
                             0001A 14138 XX1A     EQU   X'1A'                                                    97461021
                             0001C 14139 XX1C     EQU   X'1C'                                                    97468021
1PH1A     IKFCBL10                                                                                              PAGE  283
-  LOC  OBJECT CODE    ADDR1 ADDR2  STMT   SOURCE STATEMENT                                       ASM 0201 11.03 02/14/15
0                            000BA 14140 XXBA     EQU   X'BA'                                                    97475021
                             00067 14141 XX67     EQU   X'67'                                                    97482021
                             000BE 14142 XXBE     EQU   X'BE'                                                    97489021
                             00025 14143 XX25     EQU   X'25'                                                    97496021
                             00041 14144 XX41     EQU   X'41'                                                    97503021
                             000E0 14145 XXE0     EQU   X'E0'                                                    97510021
                             00051 14146 XX51   EQU   X'51'                                                      97517021
                             00052 14147 XX52   EQU   X'52'                                                      97524021
                             000F0 14148 XC0      EQU   C'0'                                                     97531021
                             000C6 14149 XCF      EQU   C'F'                                                     97538021
                             000E4 14150 XCU      EQU   C'U'                                                     97545021
                             000E2 14151 XCS      EQU   C'S'                                                     97552021
                             000E5 14152 XCV      EQU   C'V'                                                     97559021
                             00006 14153 LX6      EQU   6                                                        97566021
                             00007 14154 LX7      EQU   7                                                        97573021
                             0000A 14155 LX10     EQU   10                                                       97580021
                             0000B 14156 LX11     EQU   11                                                       97587021
                             0000C 14157 LX12     EQU   12                                                       97594021
                             0000D 14158 LX13     EQU   13                                                       97601021
                             0000E 14159 LX14     EQU   14                                                       97608021
                             0000F 14160 LX15     EQU   15                                                       97615021
                             00010 14161 LX16     EQU   16                                                       97622021
                             00011 14162 LX17     EQU   17                                                       97629021
                             00012 14163 LX18     EQU   18                                                       97636021
                             00014 14164 LX20     EQU   20                                                       97643021
                             00015 14165 LX21     EQU   21                                                       97650021
                             0001D 14166 LX29     EQU   29                                                       97657021
                             0001E 14167 LX30     EQU   30                                                       97664021
                             0001F 14168 LX31     EQU   31                                                       97671021
                             00020 14169 LX32     EQU   32                                                       97678021
                             00026 14170 LX38     EQU   38                                                       97685021
                             00030 14171 LX48     EQU   48                                                       97692021
                             00032 14172 LX50     EQU   50                                                       97699021
                             00036 14173 LX54     EQU   54                                                       97706021
                             0003B 14174 LX59     EQU   59                                                       97713021
                             00041 14175 LX65     EQU   65                                                       97720021
                             00042 14176 LX66     EQU   66                                                       97727021
                             00043 14177 LX67     EQU   67                                                       97734021
                             00048 14178 LX72     EQU   72                                                       97741021
                             0004F 14179 LX79     EQU   79                                                       97748021
                             00050 14180 LX80     EQU   80                                                       97755021
                             00051 14181 LX81     EQU   81                                                       97762021
                             00052 14182 LX82     EQU   82                                                       97769021
                             00058 14183 LX88     EQU   88                                                       97776021
                             0006A 14184 LX106    EQU   106                                                      97783021
                             00078 14185 LX120    EQU   120                                                      97790021
                             00079 14186 LX121    EQU   121                                                      97797021
                             0007A 14187 LX122    EQU   122                                                      97804021
                             0007B 14188 LX123    EQU   123                                                      97811021
                             00086 14189 LX134    EQU   134                                                      97818021
                             000A2 14190 LX162    EQU   162                                                      97825021
                             000B5 14191 LX181    EQU   181                                                      97832021
                             000C8 14192 LX200    EQU   200                                                      97839021
                             000C9 14193 LX201    EQU   201                                                      97846021
                             000FF 14194 LX255    EQU   255                                                      97853021
1PH1A     IKFCBL10                                                                                              PAGE  284
-  LOC  OBJECT CODE    ADDR1 ADDR2  STMT   SOURCE STATEMENT                                       ASM 0201 11.03 02/14/15
0                            000FE 14195 XXFE     EQU   X'FE'                                                    97860021
 00000A                            14196        END   PH1A                                                       97867021
1PH1A                                              RELOCATION DICTIONARY                                        PAGE  285
-POS.ID   REL.ID   FLAGS   ADDRESS                                                                ASM 0201 11.03 02/14/15
0 0001     0001      0C     000018
  0001     0001      0C     00044C
  0001     0001      08     000824
  0001     0001      08     000827
  0001     0002      0C     000448
  0001     0007      0C     0009EC
  0002     0002      0C     0012E8
  0002     0003      0C     000FB8
  0002     0004      0C     000FBC
  0002     0004      0C     000FCC
  0002     0005      0C     000FD4
  0002     0006      0C     000FC0
  0002     0008      0C     000FD0
  0002     0009      0C     001E6C
  0002     000A      0C     000FA0
  0002     000B      0C     000FA4
  0002     000C      0C     000FB0
  0002     000D      0C     000FA8
  0002     000E      0C     000FAC
  0002     000F      0C     000FC4
  0002     0010      0C     000FC8
  0002     0011      0C     000FB4
  0002     0012      0C     001DE4
  0002     0012      0C     001DE8
  0003     0008      0C     002324
  0004     0004      0C     00380C
  0004     0004      0C     003814
  0004     0004      0C     00381C
  0004     0004      0C     003824
  0004     0004      0C     00382C
  0004     0004      0C     003834
  0004     0004      0C     00383C
  0004     0004      0C     003844
  0004     0004      0C     00384C
  0004     0004      0C     003854
  0004     0004      0C     00385C
  0004     0004      0C     003864
  0004     0004      0C     00386C
  0004     0004      0C     003874
  0004     0004      0C     00387C
  0004     0004      0C     003880
  0005     0001      0C     004034
  0005     0001      0C     004038
  0005     0001      0C     00403C
  0005     0002      0C     004040
  0012     0009      0C     00B0F4

1PH1A                                              ASSEMBLER DIAGNOSTICS AND STATISTICS                         PAGE  286
-                                                                                                 ASM 0201 11.03 02/14/15
0NO STATEMENTS FLAGGED IN THIS ASSEMBLY
 HIGHEST SEVERITY WAS    0
 OPTIONS FOR THIS ASSEMBLY
   ALIGN, ALOGIC, BUFSIZE(STD), DECK, ESD, FLAG(0), LINECOUNT(55), LIST, NOMCALL, YFLAG, WORKSIZE(2097152)
   NOMLOGIC, NONUMBER, NOOBJECT, NORENT, RLD, NOSTMT, NOLIBMAC, NOTERMINAL, NOTEST, NOXREF(SHORT)
   SYSPARM()
 WORK FILE BUFFER SIZE/NUMBER = 2558/ 1
 TOTAL RECORDS READ FROM SYSTEM INPUT      13981
 TOTAL RECORDS READ FROM SYSTEM LIBRARY      218
 TOTAL RECORDS PUNCHED                       843
 TOTAL RECORDS PRINTED                     14837
