1PH00                                           EXTERNAL SYMBOL DICTIONARY                                      PAGE    1
-SYMBOL   TYPE  ID   ADDR  LENGTH LDID                                                            ASM 0201 11.03 02/14/15
0IKFCBL00  SD  0001 000000 000FF0
 START     LD       001474        0002
 PH0SECT2  SD  0002 000FF0 000854
 PH0TBST1  SD  0003 001848 000BA0
 PH0TBST2  SD  0004 0023E8 00063D
 TBDATA    SD  0005 002A28 0006F0
1PH00                                                                                                           PAGE    2
-  LOC  OBJECT CODE    ADDR1 ADDR2  STMT   SOURCE STATEMENT                                       ASM 0201 11.03 02/14/15
0                                      1 *$MODULE       IKFCBL00                                                 00020021
1PH00     IKFCBL00                                                                                              PAGE    3
-  LOC  OBJECT CODE    ADDR1 ADDR2  STMT   SOURCE STATEMENT                                       ASM 0201 11.03 02/14/15
0                                      3        PRINT ON,GEN,DATA                                                00060021
                                       4 *                                                                       00080021
                                       5 *                                                                       00100021
                                       6 *TITLE:                                                                 00120021
                                       7 *                                                                       00140021
                                       8 *              'IKFCBL00'                                               00160021
                                       9 *                                                                       00180021
                                      10 *STATUS:                                                                00200021
                                      11 *                                                                       00220021
                                      12 *   CHANGE LEVEL 000                                                    00240021
                                      13 *                                                                       00260021
                                      14 *FUNCTION/OPERATION : ACTS AS THE INTERFACE BETWEEN COMPILER AND TH     00280021
                                      15 *   OPERATING SYSTEM.  HANDLES I/O CONTROL.  PERFORMS PROCESSING AF     00300021
                                      16 *   EACH OF THE OTHER PHASES.  RECEIVES CONTROL FROM OPERATING SYST     00320021
                                      17 *   AND, AT THE END OF COMPILATION, RETURNS CONTROL TO IT.  MANIPUL     00340021
                                      18 *   TABLES AND PROVIDES (COMMON) A COMMUNICATION AREA.                  00360021
                                      19 *                                                                       00380021
                                      20 *ENTRY POINTS                                                           00400021
                                      21 *                                                                       00420021
                                      22 *              'IKFCBL00'                                               00440021
                                      23 *                                                                       00460021
                                      24 *                                                                       00480021
                                      25 *INTERNAL INPUT:                                                        00500021
                                      26 *                                                                       00520021
                                      27 *                                                                       00540021
                                      28 *   THE CALLING SEQUENCES FROM THE PHASES, EXCEPT FOR TAMER ROUTINE     00560021
                                      29 *   CALLS.  THE CALLING SEQUENCE ARE:                                   00580021
                                      30 *                                                                       00600021
                                      31 *   L    REGISTER,A=(COS)      BALR    0,REGISTER      DC    X'XY'      00620021
                                      32 *   X = FUNCTION PHASE WANTED        Y = DATA SET SPECIFIED             00640021
                                      33 *                                                                       00660021
                                      34 *EXTERNAL INPUT:                                                        00680021
                                      35 *                                                                       00700021
                                      36 *   THE PARAMETERS FROM THE EXEC CONTROL CARD OR FROM THE CALL, LIN     00720021
                                      37 *   ATTACN, OR XCTL MACRO.                                              00740021
                                      38 *                                                                       00760021
                                      39 *OUTPUT                                                                 00780021
                                      40 *                                                                       00800021
                                      41 *   NO OUTPUT                                                           00820021
                                      42 *                                                                       00840021
                                      43 *EXTERNAL ROUTINES                                                      00860021
                                      44 *                                                                       00880021
                                      45 *   NONE                                                                00900021
                                      46 *                                                                       00920021
                                      47 *EXITS-NORMAL:                                                          00940021
                                      48 *                                                                       00960021
                                      49 *   RETURN TO OPERATING SYSTEM BY RETURN MACRO                          00980021
                                      50 *                                                                       01000021
                                      51 *EXITS-ERROR:                                                           01020021
                                      52 *   RETURN MACRO, STOP COMPILATION AND PRINT REASON FOR TERMINATION     01040021
                                      53 *                                                                       01060021
                                      54 *TABLE/WORK AREAS:                                                      01080021
                                      55 *                                                                       01100021
                                      56 *   NOT REQUIRE ANY TABLE AREA. SMALL WORK AREAS START AT 'FORMAT'      01120021
                                      57 *   SCATTERED ALL OVER IN PHASE 00.                                     01140021
1PH00     IKFCBL00                                                                                              PAGE    4
-  LOC  OBJECT CODE    ADDR1 ADDR2  STMT   SOURCE STATEMENT                                       ASM 0201 11.03 02/14/15
0                                     58 *                                                                       01160021
                                      59 *ATTRIBUTES:                                                            01180021
                                      60 *                                                                       01200021
                                      61 *   NOT REUSABLE.                                                       01220021
                                      62 *                                                                       01240021
                                      63 *                                                                       01260021
                                      64 *NOTES:                                                                 01280021
                                      65 *                                                                       01300021
                                      66 *   GENERAL ORGANIZATION:                                               01320021
                                      67 *   1. EQU'S                                                            01340021
                                      68 *   2. TAMER-ACCESS CONSTANTS, AND TAMER ADCONS                         01360021
                                      69 *   3. COMMON TABLE SECTION                                             01380021
                                      70 *   4. WORK AREA                                                        01400021
                                      71 *   5. BUFFER INITIALIZATION                                            01420021
                                      72 *   6. SUBROUTINES                                                      01440021
                                      73 *   7. INTERLUDE PROCESSOR                                              01460021
                                      74 *   8. LINKAGE PACKAGE                                                  01480021
                                      75 *   9. PHASE 00 INITIALIZATION AND CONTROLLER                           01500021
                                      76 *   10. TAMER MANAGEMENT ROUTINES                                       01520021
                                      77 *   11. DATA -- TAMER ROUTIMES                                          01540021
                                      78 *   12. CONSTANTS -- TESTING                                            01560021
                                      79 *                                                                       01580021
                                      80 *                                                                       01600021
                                      81 *   REGISTERS USAGE                                                     01620021
                                      82 *                                                                       01640021
                                      83 *   0    WORK REGISTER                                                  01660021
                                      84 *   1    WORK REGISTER                                                  01680021
                                      85 *   2    WHERE TO PUT FROM ON ANY PUT (WRITE)                           01700021
                                      86 *   3    LENGTH FOR PUTN (WRITE)                                        01720021
                                      87 *   4    WORK REGISTER                                                  01740021
                                      88 *   5    BASE REGISTER                                                  01760021
                                      89 *   6    POINTS TO BUFFER CONTROL BLOCK FOR LOGICAL I-O                 01780021
                                      90 *   7    POINTS TO BUFFER CONTROL BLOCK FOR PHYSICAL I-O                01800021
                                      91 *   8    RETURN ADDRESS LESS 1 (LINKAGE PARAMETERS)                     01820021
                                      92 *   9    TO FILE POINTERS (POINT) FOR THIS OS                           01840021
                                      93 *   10    FILE NUMBER X 4                                               01860021
                                      94 *   11    LINKAGE                                                       01880021
                                      95 *   12    LINKAGE                                                       01900021
                                      96 *   13    FOR LINK/RETURN OR FOR I-O REQUEST                            01920021
                                      97 *   14    LINKAGE, WORK REGISTER                                        01940021
                                      98 *   15     LINKAGE, WORK REGISTER                                       01960021
                                      99 *                                                                       01980021
                                     100 *                                                                       02000021
                                     101 *   ERROR PROCESSING:                                                   02020021
                                     102 *   IF AN ERROR THAT STOPS COMPILATION OCCURS, PHASE 00 ISSUES A        02040021
                                     103 *   RETURN MACRO TO RETURN TO THE OPERATING SUSTEM.  WHEN PHASE 6 H     02060021
                                     104 *   FINISHED ITS PROCESSING, PHASE 00 PUTS A CODE INTO REGISTER 15      02080021
                                     105 *   INDICATING THE HIGHEST SOURCE PROGRAM ERROR SEVERITY LEVEL AND      02100021
                                     106 *   RETURNS TO THE OPERATING SYSTEM.                                    02120021
                                     107 *                                                                       02140021
                                     108 *                                                                       02160021
 000000                              109 IKFCBL00 START                                                          02180021
                                     110        ENTRY START                                                      02200021
                                     111 *                                                                       02220021
                             00000   112 R0     EQU   0                                                          02240021
1PH00     IKFCBL00                                                                                              PAGE    5
-  LOC  OBJECT CODE    ADDR1 ADDR2  STMT   SOURCE STATEMENT                                       ASM 0201 11.03 02/14/15
0                            00001   113 R1     EQU   1                                                          02260021
                             00002   114 R2     EQU   2                                                          02280021
                             00003   115 R3     EQU   3                                                          02300021
                             00004   116 R4     EQU   4                                                          02320021
                             00005   117 R5     EQU   5                                                          02340021
                             00006   118 R6     EQU   6                                                          02360021
                             00007   119 R7     EQU   7                                                          02380021
                             00008   120 R8     EQU   8                                                          02400021
                             00009   121 R9     EQU   9                                                          02420021
                             0000A   122 R10    EQU   10                                                         02440021
                             0000B   123 R11    EQU   11                                                         02460021
                             0000C   124 R12    EQU   12                                                         02480021
                             0000D   125 R13    EQU   13                                                         02500021
                             0000E   126 R14    EQU   14                                                         02520021
                             0000F   127 R15    EQU   15                                                         02540021
                             00000   128 PXOSTB   EQU   *                                                        02560021
 000000 90EC D00C      0000C         129 COS      STM   R14,R12,DX12(R13)                                        02580021
 000004 0550                         130 COSAA    BALR  R5,R0               ESTABLISH ADDRESSABILITY             02600021
                             00006   131          USING *,R5            POINT TO SAVE AREA IN COS                02620021
                             014D8   132          USING TRMNATE,R4                                               02640021
 000006 47F0 546A      00470         133 CASAB    B     GO                  BRANCH AROUND CONSTANTS              02660021
                                     134 *    ACCESS- TAMER CONSTANTS AND WORK AREA                              02680021
                                     135 *                                                                       02700021
                                     136 *      FOLLOWING IS THE TAMER CONSTANT AREA.  TIBS AND TAMMS ASSEMB     02720021
                                     137 *      HERE ARE ACCESSIBLE TO ACCESS, AND TO THE PHASE PROGRAMMER.      02740021
                                     138 *                                                                       02760021
                                     139 *                            AND CONSTANTS AREA                         02780021
                                     140 *    TIB20 RESERVED FOR THE DICOT TABLE                                 02800021
 00000C                              141        DS    0F                                                         02820021
 00000C 0000000000000000             142 TIB0   DC    2F'0'                 TABLE INFORMATION BLOCK NO 0         02840021
 000014 0000000000000000             143 TIB1   DC    2F'0'                 TABLE INFORMATION BLOCK NO 1         02860021
 00001C 0000000000000000             144 TIB2   DC    2F'0'                 TABLE INFORMATION BLOCK NO 2         02880021
 000024 0000000000000000             145 TIB3   DC    2F'0'                 TABLE INFORMATION BLOCK NO 3         02900021
 00002C 0000000000000000             146 TIB4   DC    2F'0'                 TABLE INFORMATION BLOCK NO 4         02920021
 000034 0000000000000000             147 TIB5   DC    2F'0'                 TABLE INFORMATION BLOCK NO 5         02940021
 00003C 0000000000000000             148 TIB6   DC    2F'0'                 TABLE INFORMATION BLOCK NO 6         02960021
 000044 0000000000000000             149 TIB7   DC    2F'0'                 TABLE INFORMATION BLOCK NO 7         02980021
 00004C 0000000000000000             150 TIB8   DC    2F'0'                 TABLE INFORMATION BLOCK NO 8         03000021
 000054 0000000000000000             151 TIB9   DC    2F'0'                 TABLE INFORMATION BLOCK NO 9         03020021
 00005C 0000000000000000             152 TIB10  DC    2F'0'                 TABLE INFORMATION BLOCK NO 10        03040021
 000064 0000000000000000             153 TIB11  DC    2F'0'                 TABLE INFORMATION BLOCK NO 11        03060021
 00006C 0000000000000000             154 TIB12  DC    2F'0'                 TABLE INFORMATION BLOCK NO 12        03080021
 000074 0000000000000000             155 TIB13  DC    2F'0'                 TABLE INFORMATION BLOCK NO 13        03100021
 00007C 0000000000000000             156 TIB14  DC    2F'0'                 TABLE INFORMATION BLOCK NO 14        03120021
 000084 0000000000000000             157 TIB15  DC    2F'0'                 TABLE INFORMATION BLOCK NO 15        03140021
 00008C 0000000000000000             158 TIB16  DC    2F'0'                 TABLE INFORMATION BLOCK NO 16        03160021
 000094 0000000000000000             159 TIB17  DC    2F'0'                 TABLE INFORMATION BLOCK NO 17        03180021
 00009C 0000000000000000             160 TIB18  DC    2F'0'                 TABLE INFORMATION BLOCK NO 18        03200021
 0000A4 0000000000000000             161 TIB19  DC    2F'0'                 TABLE INFORMATION BLOCK NO 19        03220021
 0000AC 0000000000000000             162 TIB20  DC    2F'0'                 TABLE INFORMATION BLOCK NO 20        03240021
                                     163 *                                                                       03260021
                                     164 *      TIBS 21 THROUGH 30 HAVE BEEN ADDED AS -------------------        03280021
                                     165 *      EXTENSIONS TO THE PRESENT TIB AREA %TIBS 1 THROUGH 19, IN-       03300021
                                     166 *      CLUSIVE<  IN THE BASIC TAMER PACKAGE.                            03320021
                                     167 *                                                                       03340021
1PH00     IKFCBL00                                                                                              PAGE    6
-  LOC  OBJECT CODE    ADDR1 ADDR2  STMT   SOURCE STATEMENT                                       ASM 0201 11.03 02/14/15
0                                    168 *      AS BEFORE TIB20 IS RESERVED,REPEAT RESERVED, FOR ACCESS.         03360021
                                     169 *                                                                       03380021
 0000B4 0000000000000000             170 TIB21  DC    2F'0'                 TABLE INFORMATION BLOCK NO 21        03400021
 0000BC 0000000000000000             171 TIB22  DC    2F'0'                 TABLE INFORMATION BLOCK NO 22        03420021
 0000C4 0000000000000000             172 TIB23  DC    2F'0'                 TABLE INFORMATION BLOCK NO 23        03440021
 0000CC 0000000000000000             173 TIB24  DC    2F'0'                 TABLE INFORMATION BLOCK NO 24        03460021
 0000D4 0000000000000000             174 TIB25  DC    2F'0'                 TABLE INFORMATION BLOCK NO 25        03480021
 0000DC 0000000000000000             175 TIB26  DC    2F'0'                 TABLE INFORMATION BLOCK NO 26        03500021
 0000E4 0000000000000000             176 TIB27  DC    2F'0'                 TABLE INFORMATION BLOCK NO 27        03520021
 0000EC 0000000000000000             177 TIB28  DC    2F'0'                 TABLE INFORMATION BLOCK NO 28        03540021
 0000F4 0000000000000000             178 TIB29  DC    2F'0'                 TABLE INFORMATION BLOCK NO 29        03560021
 0000FC 0000000000000000             179 TIB30  DC    2F'0'                 TABLE INFORMATION BLOCK NO 30        03580021
 000104 0000000000000000             180 TIB31    DC    2F'0'               TABLE INFORMATION BLOCK NO 31        03600021
 00010C 0000000000000000             181 TIB32    DC    2F'0'               TABLE INFORMATION BLOCK NO 32        03620021
 000114 0000000000000000             182 TIB33    DC    2F'0'               TABLE INFORMATION BLOCK NO 33        03640021
 00011C 0000000000000000             183 TIB34    DC    2F'0'               TABLE INFORMATION BLOCK NO 34        03660021
 000124 0000000000000000             184 TIB35    DC    2F'0'               TABLE INFORMATION BLOCK NO 35        03680021
                                     185 *                                                                       03700021
                                     186 *      THE FOLLOWING ARE TAMER ADCONS FOR THE VARIOUS ROUTINE NAMES     03720021
                                     187 *                                                                       03740021
                                     188 *                                                                       03760021
 00012C 00001848                     189 APRIME DC    A(PRIME)              TAMER ADDRESS CONSTANT               03780021
 000130 00001852                     190 AINSRT DC    A(INSERT)             TAMER ADDRESS CONSTANT               03800021
 000134 0000187C                     191 ADSTAT DC    A(STATIC)             TAMER ADDRESS CONSTANT               03820021
 000138 00001860                     192 RELADD DC    A(TABREL)             TAMER ADDRESS CONSTANT               03840021
 00013C 0000186E                     193 TAMNAD DC    A(TAMEIN)             TAMER ADDRESS CONSTANT               03860021
 000140 00                           194 ACCESW DC    X'00'                ACCESS INITIALIZATION SWITCH.         03880021
 000141 000000                       195 AMAINF   DC    AL3(0)              TAMER ADDRESS CONSTANT               03900021
 000144 0000188A                     196 ALSTAM DC    A(DICSPC)             TAMER ADDRESS CONSTANT               03920021
                                     197 *                                                                       03940021
 000148                              198        DS    0F                                                         03960021
 000148 00000080                     199 LOCCTR   DC    XL4'080'  STARTING LOCATION                              03980021
 00014C 00000000                     200 LOCCTR1  DC    F'0'                *                                    04000021
 000150 4040404040404040             201 PROGID DC    CL8'        '         PROGRAM-ID FROM IDENTIFICATION D     04020021
 000158 0000                         202 LABELS DC    H'0'                  CONTAINS LABEL INFORMATION           04040021
 00015A 0000                         203 SEGCNTR  DC    H'0'                *                                    04060021
 00015C 0000                         204 PNCTR  DC    H'0'                  FOR ASSIGNING PB NO.S TO PR0L NM     04080021
 00015E 0000                         205 GNCTR  DC    H'0'                  FOR ASSIGNING GN NO.S TO GEN PRO     04100021
 000160 0000                         206 DCBCTR DC    H'0'                  ASSIGNS ID NO TO DCB'S               04120021
 000162 0001                         207 VIRCTR   DC    H'1'                ASSIGNS ID NO TO VIRTUALS            04140021
 000164 0000                         208 LTLCTR DC    H'0'                  ASSIGNS ID NO TO LITERALS            04160021
 000166 0000                         209 WCMAX  DC    H'0'                  LARGEST WORK AREA FOR LIBR SUB       04180021
 000168 0000                         210 TSMAX  DC    H'0'                  TEMP STORAGE SIZE FOR ARITHM.        04200021
 00016A 0000                         211 TS2MAX DC    H'0'                  TEMP STORAGE SIZE FOR NON-ARITHM     04220021
 00016C 0000                         212 ODOCTR DC    H'0'                  NO OF Q-ROUTINES                     04240021
 00016E 0000                         213 CKPCTR DC    H'0'                  NO OF CHECKPOINT REQUESTS            04260021
 000170 0000                         214 INDCTR   DC    H'0'                AVAILABLE                            04280021
 000172 0000                         215 SBLOMX DC    H'0'                  AVAILABLE                            04300021
 000174 0000                         216 VLCOMX DC    H'0'                  AVAILABLE                            04320021
 000176 0000                         217 SBLIMX DC    H'0'                  NO OF 2NDARY BASE LOCATORS           04340021
 000178 0000                         218 VLCIMX DC    H'0'                  NO OF VARIABLE LENGTH CELLS          04360021
 00017A 0000                         219 SBLCTR DC    H'0'                  CNTR FOR ASSIGNING SBL'S             04380021
 00017C 0000                         220 VLCCTR DC    H'0'                  USED TO DETERMINE VLCOMX & VLCIM     04400021
 00017E 0000                         221 BLLCTR DC    H'0'                  ASSIGNS ID NO TO LNK SECT BL'S       04420021
 000180 0000                         222 SEQERR DC    H'0'                  NO OF OUT-OF-SEQUENCE CARDS          04440021
1PH00     IKFCBL00                                                                                              PAGE    7
-  LOC  OBJECT CODE    ADDR1 ADDR2  STMT   SOURCE STATEMENT                                       ASM 0201 11.03 02/14/15
0000182 0000                         223 SWITCH   DC    H'0'                *                                    04460021
                             00080   224 SWTRCE   EQU   X'80'                                                    04480021
                             00010   225 SPILLQ   EQU   X'10'                                                    04500021
                             00004   226 MQVAR    EQU   X'04'                                                    04520021
                             00002   227 SWLIST   EQU   X'02'                                                    04540021
                             00001   228 MQFILE   EQU   X'01'                                                    04560021
                                     229 *                                                                       04580021
                                     230 *                                  SECOND BYTE OF SWITCH                04600021
                                     231 *                                                                       04620021
                             00020   232 SORTRTN  EQU   X'20'                                                    04640021
                             00010   233 RERUN    EQU   X'10'                                                    04660021
                             00008   234 DSOU     EQU   X'08'                                                    04680021
                             00004   235 NOFITSW  EQU   X'04'                                                    04700021
                             00002   236 DOPH7    EQU   X'02'                                                    04720021
                             00001   237 RDERRFIL EQU   X'01'                                                    04740021
 000184                              238 DICND2 DS    F      TO REPLACE DICTPT                                   04760021
 000188                              239 DICND1 DS    F      INSERT AFTER DICND2                                 04780021
 00018C E3C8C9E240D4E2C7             240 DATE     DC    CL15'THIS MSG = DATE'    AFTER DICND1                    04800021
 000194 407E40C4C1E3C5
 00019B 00000000000000               241 WSDEF    DC    XL7'0'              END OF DATA ATEXT EL FOR WK STOR     04820021
 0001A2 00                           242 ERRSEV   DC    X'00'         SEVERITY CODE                              04840021
                             001A2   243 RETCDE   EQU   ERRSEV                                                   04860021
 0001A3 00                           244 PHZSW    DC    X'00'         OPTIONS SWITCH                             04880021
                             00080   245 LIST     EQU X'80'       SOURCE(OS)                                     04900021
                             00040   246 LISTX    EQU   X'40'     PMAP                                           04920021
                             00020   247 DECK     EQU   X'20'                                                    04940021
                             00010   248 LINK     EQU   X'10'     LOAD                                           04960021
                             00008   249 SEQ      EQU   X'08'                                                    04980021
                             00004   250 FLAGW    EQU   X'04'                                                    05000021
                             00002   251 LIBR     EQU   X'02'                                                    05020021
                             00001   252 ZWB      EQU   X'01'                                                    05040021
 0001A4 00                           253 PHZSW1   DC    X'00'               VARIOUS COMPILATION OPTIONS          05060021
                             00080   254 XREF     EQU   X'80'                                                    05080021
                             00040   255 CLIST    EQU   X'40'                                                    05100021
                             00020   256 SYM      EQU   X'20'      DMAP                                          05120021
                             00010   257 PDT      EQU   X'10'                                                    05140021
                             00004   258 APOST    EQU   X'04'                                                    05160021
                             00002   259 SUPMAP   EQU   X'02'                                                    05180021
                             00001   260 TRUNC    EQU   X'01'                                                    05200021
 0001A5 00                           261 PHZSW2   DC    X'00'               MORE COMPILATION OPTIONS             05220021
                             00080   262 STAT     EQU   X'80'                                                    05240021
                             00002   263 NO6A     EQU   X'02'               PH6 SETS FOR PH7 IF PH6A BYPASSED    05260021
 0001A6 0000
 0001A8 00000000                     264 DICADR DC    F'0'             MOVED TO COMMON PORTION                   05280021
 0001AC 00000000                     265 DLSVAL DC    F'0'                  ACCESS RTN COMMUNICATION CELL        05300021
 0001B0 00                           266 DICPTR DC    X'0'                  ACCESS RTN COMMUNICATION CELL        05320021
 0001B1 000000                       267 DCPTR  DC    3X'0'                 ACCESS RTN COMMUNICATION CELL        05340021
 0001B4 0000                         268 RPTSAV DC    H'0'                  REPOET SAVE AREA CELL                05360021
 0001B6 00                           269 DYNAM    DC    X'00'     PH6 EXEC TIME LOADED SUBROUTINE SWITCH         05380021
 0001B7 00                           270          DC    X'00'     AVAILABLE                                      05400021
 0001B8 00000000                     271 LCSECT DC    F'0'                  USED BY PH6                          05420021
 0001BC 00000000                     272 PH7LOD DC    A(0)                  USED BY PH6                          05440021
 0001C0 0000                         273 RGNCTR DC    H'0'                  COUNT OF UNIQUE GN'S                 05460021
 0001C2 00                           274 ERF4SW DC    X'0'                  USED BY PH6/PH7                      05480021
 0001C3 00                           275 PTYNO    DC    X'0'                PRIORITY NO OF CURRENT SEGMENT       05500021
1PH00     IKFCBL00                                                                                              PAGE    8
-  LOC  OBJECT CODE    ADDR1 ADDR2  STMT   SOURCE STATEMENT                                       ASM 0201 11.03 02/14/15
00001C4 6B4B                         276 COMMAD DC    C',.'                 USED BY PH1                          05520021
 0001C6 00                           277 PHZSW3   DC    X'00'               OPTION SWITCH                        05540021
                             00001   278 VERBR    EQU   X'01'               LISTING A-TEXT                       05560021
 0001C7 00                           279 PHZSW4   DC    X'00'               RESERVED FOR ADDITIONAL OPTIONS      05580021
 0001C8 00001898                     280 AMOVDC DC    A(MOVDIC)             TAMER ADDRESS CONSTANT               05600021
 0001CC 00000000                     281 SDSIZ    DC    F'0'     BIGGEST FD IN PGM                               05620021
 0001D0 32                           282 SEGLMT   DC    X'32'               *                                    05640021
 0001D1 00                           283 DTFNUM   DC    X'0'                NO OF DTF                            05660021
 0001D2 5B                           284 CURSGN   DC    C'$'                USED BY PH1                          05680021
 0001D3 00                           285 PH1BYTE  DC    X'00'               PH1/PH2 COMMUNICATION CELL           05700021
                             00008   286 BASINSQ  EQU   X'08'                                                    05720021
                             00004   287 INIBIT   EQU   X'04'                                                    05740021
                             00001   288 UPSIBT   EQU   X'01'                                                    05760021
                             00002   289 EOPPH1   EQU   X'02'                                                    05780021
                             00020   290 BASIS    EQU   X'20'                                                    05800021
 0001D4 0000                         291 DECBCT   DC    H'0'                *                                    05820021
 0001D6 0000                         292 INDEXS   DC    H'0'     # INDEX NAMES DEFNED IN S.A.'S                  05840021
 0001D8 0000                         293 INDEX1   DC    H'0'     # INDEX NAMES DEFNED IN IN-LINE FILES           05860021
 0001DA 0000                         294 CYCTOTAL DC    H'0'     TOTAL # CYCLES FOR THIS PROGRAM                 05880021
 0001DC 0000                         295 IOPTRCTR DC    H'0'     # I/O POINTERS FOR APPLY-WRITE-ONLY             05900021
 0001DE 0000                         296 TS3MAX   DC    1H'0'               USED BY PH6                          05920021
 0001E0 0000                         297 TS4MAX   DC    1H'0'               USED BY PH6                          05940021
 0001E2 0000
 0001E4 00000000                     298 BUFSIZE  DC    F'0'                USED FOR STATISTICS                  05960021
 0001E8 00000000                     299 CORESIZE DC    F'0'                USED FOR STATISTICS                  05980021
 0001EC 0000                         300 CNTLINE  DC    H'0'                USED FOR STATISTICS                  06000021
 0001EE 0000                         301 CURCRD   DC    H'0'                CURRENT CARD NO SET BY PH4           06020021
 0001F0 00                           302 SPACING  DC    X'00'               USED FOR STATISTICS                  06040021
 0001F1 00                           303 PDTCHR   DC    X'0'                *                                    06060021
 0001F2                              304          DS    H                   *                                    06080021
 0001F4                              305 BASINS   DS    F                   *                                    06100021
 0001F8                              306          DS    F                   *                                    06120021
                                     307 *                                                                       06140021
 0001FC                              308          DS    0F                                                       06160021
 0001FC 000018C2                     309 AGETALL  DC    A(GETALL)           TAMER ADDRESS CONSTANT               06180021
 000200 00000000                     310          DC    F'0'                *                                    06200021
 000204 0000                         311 RPDNUM DC    H'0'                  AVAILABLE                            06220021
 000206 0001                         312 CYCNUM DC    H'1'                  AVAILABLE                            06240021
 000208                              313 IDENTL DS    F                     REL. LOC 1ST INSTR IN OBJ MODULE     06260021
 00020C 0000                         314 BLCTR  DC    H'0'                  ID NO ASSIGNED TO BL'S               06280021
 00020E 0000                         315 VNCTR  DC    H'0'                  ASSIGNING VN NUMBERS                 06300021
 000210 0000                         316 ONCTR  DC    H'0'                  ASSIGNING ID NO'S TO ON CTL CELL     06320021
 000212 0000                         317 PFMCTR DC    H'0'                  ASSIGNING ID NO'S TO PERFORM CEL     06340021
 000214 0000                         318 PSVCTR DC    H'0'                  ASSIGNING ID NO'S TO PERF SV CEL     06360021
 000216 0001                         319 XSACTR DC    H'1'                  LOC WITHIN EXHIBIT OR SOLT SAVE      06380021
 000218 0000                         320 XSWCTR DC    H'0'   TO REPLACE XSALOC                                   06400021
 00021C                              321 RELLOC DS    F                     DISP OF TGT/SGT FROM BEG OF OBJM     06420021
 000220                              322 GTLNG  DS    H                     LNGT OF TGT SPECIFIED IN RELLOC      06440021
 000222                              323 RPILOC DS    H                     AVAILABLE                            06460021
 000224                              324 VNILOC DS    H                     DISP OF VNI FIELDS IN PGT            06480021
 000226                              325 VNLOC  DS    H                             VN FIELDS IN TGT OR SGT      06500021
 000228 0000                         326 SUBCTR DC    H'0'                  ASSIGNING ID'S TO SOBSCR. REFS       06520021
 00022A 0000                         327 PARMAX DC    H'0'        MOVED TO COMTBL SINCE NEED IN RPD NE 0         06540021
 00022C 0000                         328 BLSVAL DC    H'0'                  AVAILABLE                            06560021
 00022E 0000                         329 BLSLOC DC    H'0'                  AVAILABLE                            06580021
1PH00     IKFCBL00                                                                                              PAGE    9
-  LOC  OBJECT CODE    ADDR1 ADDR2  STMT   SOURCE STATEMENT                                       ASM 0201 11.03 02/14/15
0000230 0000                         330 CMTBSW   DC    H'0'                AVAILABLE                            06600021
                                     331 *                        BIT 0 1#HOLD IN THIS SECTION                   06620021
 000232 0000                         332 SA2CTR   DC    H'0'                SET IF OPT 2 OF USE SPECIFIED        06640021
 000234 0000                         333 SA3CTR   DC    H'0'                SET IF OPT 5 OF USE SPECIFIED        06660021
 000236 0000                         334 BLSEND DC    H'0'                  AVAILABLE                            06680021
 000238 00000000                     335 INDEX    DC    F'0'                NO OF INDEX NAMES                    06700021
 00023C 0000                         336 INDEX0   DC    H'0'     # INDEX NAMAVAILABLE                            06720021
 000240                              337        DS    6F                    AVAILABLE                            06740021
                                     338 *******************************************************************     06760021
                             00000   339 DX0      EQU   0                                                        06780021
                             00001   340 DX1      EQU   1                                                        06800021
                             00001   341 NX1      EQU   1                                                        06820021
                             00002   342 DX2      EQU   2                                                        06840021
                             00002   343 NX2      EQU   2                                                        06860021
                             00003   344 NX3      EQU   3                                                        06880021
                             00004   345 DX4      EQU   4                                                        06900021
                             00004   346 NX4      EQU   4                                                        06920021
                             00005   347 DX5      EQU   5                                                        06940021
                             00005   348 NX5      EQU   5                                                        06960021
                             00006   349 DX6      EQU   6                                                        06980021
                             00006   350 NX6      EQU   6                                                        07000021
                             00008   351 DX8      EQU   8                                                        07020021
                             00008   352 NX8      EQU   8                                                        07040021
                             00009   353 DX9      EQU   9                                                        07060021
                             00009   354 NX9      EQU   9                                                        07080021
                             0000C   355 DX12     EQU   12                                                       07100021
                             0000C   356 NX12     EQU   12                                                       07120021
                             0000D   357 DX13     EQU   13                                                       07140021
                             0000E   358 DX14     EQU   14                                                       07160021
                             00010   359 DX16     EQU   16                                                       07180021
                             00012   360 NX18     EQU   18                                                       07200021
                             00013   361 NX19     EQU   19                                                       07220021
                             00018   362 DX24     EQU   24                                                       07240021
                             00018   363 NX24     EQU   24                                                       07260021
                             00019   364 DX25     EQU   25                                                       07280021
                             0001B   365 DX27     EQU   27                                                       07300021
                             0001C   366 DX28     EQU   28                                                       07320021
                             0001C   367 NX28     EQU   28                                                       07340021
                             00021   368 DX33     EQU   33                                                       07360021
                             00030   369 DX48     EQU   48                                                       07380021
                             00032   370 DX50     EQU   50                                                       07400021
                             00038   371 DX56     EQU   56                                                       07420021
                             0003E   372 DX62     EQU   62                                                       07440021
                             00041   373 DX65     EQU   65                                                       07460021
                             00046   374 NX70     EQU   70                                                       07480021
                             00052   375 DX82     EQU   82                                                       07500021
                             00056   376 NX86     EQU   86                                                       07520021
                             00059   377 DX89     EQU   89                                                       07540021
                             00079   378 DX121    EQU   121                                                      07560021
                             00100   379 DX256    EQU   256                                                      07580021
                             00200   380 DX512    EQU   512                                                      07600021
                             00620   381 DX1568   EQU   1568                                                     07620021
                             00000   382 XX0      EQU   X'00'                                                    07640021
                             00006   383 XX06     EQU   X'06'                                                    07660021
                             000F0   384 XXF0     EQU   X'F0'                                                    07680021
1PH00     IKFCBL00                                                                                              PAGE   10
-  LOC  OBJECT CODE    ADDR1 ADDR2  STMT   SOURCE STATEMENT                                       ASM 0201 11.03 02/14/15
0                            000FF   385 XXFF     EQU   X'FF'                                                    07700021
                             00000   386 XX00     EQU   X'00'                                                    07720021
                             00080   387 XX80     EQU   X'80'                                                    07740021
                             00020   388 XX20     EQU   X'20'                                                    07760021
                             000F1   389 XXF1     EQU   X'F1'                                                    07780021
                             0000F   390 XX0F     EQU   X'0F'                                                    07800021
                             00040   391 XX40     EQU   X'40'                                                    07820021
                             00060   392 XX60     EQU   X'60'                                                    07840021
                             000F2   393 XXF2     EQU   X'F2'                                                    07860021
                             00001   394 XX01     EQU   X'01'                                                    07880021
                             00010   395 XX10     EQU   X'10'                                                    07900021
                             0007F   396 XX7F     EQU   X'7F'                                                    07920021
                             00003   397 XX03     EQU   X'03'                                                    07940021
                             00002   398 XX02     EQU   X'02'                                                    07960021
                             000BF   399 XXBF     EQU   X'BF'                                                    07980021
                             0000D   400 XX0D     EQU   X'0D'                                                    08000021
                             0000E   401 XX0E     EQU   X'0E'                                                    08020021
                             000FB   402 XXFB     EQU   X'FB'                                                    08040021
                             000F0   403 XC0      EQU   C'0'                                                     08060021
                             000C2   404 XCB      EQU   C'B'                                                     08080021
                             00000   405 LX0      EQU   0                                                        08100021
                             00001   406 LX1      EQU   1                                                        08120021
                             00002   407 LX2      EQU   2                                                        08140021
                             00003   408 LX3      EQU   3                                                        08160021
                             00004   409 LX4      EQU   4                                                        08180021
                             00006   410 LX6      EQU   6                                                        08200021
                             00008   411 LX8      EQU   8                                                        08220021
                             0000A   412 LX10     EQU   10                                                       08240021
                             0000C   413 LX12     EQU   12                                                       08260021
                             00010   414 LX16     EQU   16                                                       08280021
                             00018   415 LX24     EQU   24                                                       08300021
                             00040   416 LX64     EQU   64                                                       08320021
                             0004D   417 LX77     EQU   77                                                       08340021
                             00077   418 LX119    EQU   119                                                      08360021
                             00100   419 LX256    EQU   256                                                      08380021
1PH00     IKFCBL00                                                                                              PAGE   11
-  LOC  OBJECT CODE    ADDR1 ADDR2  STMT   SOURCE STATEMENT                                       ASM 0201 11.03 02/14/15
0000258                              421 SAVER13  DS    F                   ADDR OF CALLING PHASE'S REG SAVE     08420021
 00025C 00000000                     422 ZEROES   DC    F'0'                FULLWORD CONSTANT OF ZEROES          08440021
 000260 000001FF                     423          DC    F'511'              MASK FOR TURNING OFF 23 HI BITS      08460021
 000264 0000050C                     424 ADD      DC    A(READ)                  X=0                             08480021
 000268 00000862                     425          DC    A(WRITE)    PUTN         X=1                             08500021
 00026C 00000848                     426          DC    A(WRITEA)   PUT          X=2                             08520021
 000270 00000B6A                     427          DC    A(EXITR)    OPEN         X=3                             08540021
 000274 00000B6A                     428          DC    A(EXITR)    OPEN         X=4                             08560021
 000278 00000B6A                     429          DC    A(EXITR)    CLOSE        X=5                             08580021
 00027C 00000D08                     430          DC    A(CLOSET)     TEMP CLOSE    X=6                          08600021
 000280 0000050C                     431          DC    A(READ)     SYSIN        X=7                             08620021
 000284 00000974                     432          DC    A(WOUT)     SYSOUT       X=8                             08640021
 000288 00000C5E                     433          DC    A(SEGPNT)           X=9                                  08660021
 00028C 00000F56                     434          DC    A(LINKB)         X=A  LOAD NEXT PHASE                    08680021
 000290 00000E06                     435          DC    A(EOJ)    END JOB     X=B                                08700021
 000294 00000B94                     436          DC    A(SEGNOTE)          X=C                                  08720021
 000298 00000A58                     437          DC    A(EJECT)              X=D                                08740021
 00029C 00000956                     438          DC    A(WGO1)               X=E, F ILLEGAL   EXTERNAL          08760021
 0002A0 00000C80                     439          DC    A(CLOSER)             X=F                                08780021
 0002A4 00                           440 SINGBUF  DC    X'00'               SINGLE  BUFFER  SWITCH               08800021
 0002A5 00                           441 SPECIAL  DC    X'00'               SPECIAL USE SWITCH  (PRIME INPUT     08820021
 0002A6 C9D2C6C3C2D3F0F0             442          DC    C'IKFCBL00'         USED FOR IDENTIFICATION              08840021
 0002AE C2                           443          DC    C'B'                *                                    08860021
 0002AF 1C                           444          DC    X'1C'               *                                    08880021
 0002B0                              445          DS    0H                                                       08900021
                                     446 *                                                                       08920021
                                     447 *                                                                       08940021
                                     448 *                                                                       08960021
                                     449 *                                                                       08980021
                                     450 *                                                                       09000021
 0002B0 0000                         451 POINT    DC    H'0'              FILE  USING     NO. BUFF               09020021
 0002B2 00                           452          DC    X'00'             UT1     1  FIRST   0       LEFT        09040021
 0002B3 00                           453          DC    X'00'                     1  ALT.    0       HAND        09060021
 0002B4 02                           454          DC    X'02'             UT2     2          2       NIBBLE      09080021
 0002B5 03                           455          DC    X'03'                     2          3       USED TO     09100021
 0002B6 F4                           456          DC    X'F4'             UT3     3          4       PRIME       09120021
 0002B7 05                           457          DC    X'05'                     3          5       BUFFER      09140021
 0002B8 F1                           458          DC    X'F1'             UT4     4          1       ON          09160021
 0002B9 01                           459          DC    X'01'                     4          0       READ        09180021
 0002BA F9                           460          DC    X'F9'           SYSIN     5    PRIME      6A1     OR     09200021
 0002BB 0A                           461          DC    X'0A'                     5               6A2     WR     09220021
 0002BC F7                           462          DC    X'F7'            SYSOUT   6                              09240021
 0002BD 08                           463          DC    X'08'                     6               6A4     ON     09260021
 0002BE 0D                           464          DC    X'0D'           SYSPNCH   7               0       CL     09280021
 0002BF 0E                           465          DC    X'0E'                     7               0              09300021
 0002C0 0F                           466          DC    X'0F'       SYSLIN(GO) 8                                 09320021
 0002C1 00                           467          DC    X'00'                     8               0              09340021
 0002C2 FB                           468          DC    X'FB'           USLIB  9  6A 5  PRIME                    09360021
 0002C3 0C                           469          DC    X'0C'                      9                             09380021
                                     470 * AT INIT0 TIME WE BRING IN PHASE 1. THE  BUFFER                        09400021
                                     471 * POINTERS ARE INITIALIZED AND THE LRECL'S ARE ALREADY INITIALIZED      09420021
                                     472 *        AS WELL AS THE  BLKSIZES,THEREFORE WE ARE READY TO OPEN  T     09440021
                                     473 *        FILES. BETWEEN THE OTHER PHASES  WE  CHANGE THE POINTERS F     09460021
                                     474 *        BUFFER SWAPPING  AND NECESSARILY OPEN AND CLOSE FILES.         09480021
                                     475 *                                                                       09500021
1PH00     IKFCBL00                                                                                              PAGE   12
-  LOC  OBJECT CODE    ADDR1 ADDR2  STMT   SOURCE STATEMENT                                       ASM 0201 11.03 02/14/15
00002C4 0101                         476 POINTM2  DC    X'0101'             BUFFER ALLOCATION CONSTANT           09520021
 0002C6 0106                         477 POINTM3  DC    X'0106'             BUFFER ALLOCATION CONSTANT           09540021
 0002C8 010602030505                 478 POINTM4  DC    X'010602030505'     BUFFER ALLOCATION CONSTANT           09560021
 0002CE 0406020305050101             479 POINTM50 DC    X'0406020305050101' BUFFER ALLOCATION CONSTANT           09580021
 0002D6 04030202                     480 POINTM5  DC    X'04030202'         BUFFER ALLOCATION CONSTANT           09600021
 0002DA 0505                         481 POINTMX  DC    X'0505'             ALTERNATE POINT VALUES               09620021
 0002DC 0404020205050103             482 POINTSEG DC    X'0404020205050103' *                                    09640021
                                     483 *                                                                       09660021
                                     484 *                                                                       09680021
                                     485 *                                                                       09700021
                                     486 *                                                                       09720021
                                     487 *                                                                       09740021
                                     488 *                                                                       09760021
                                     489 *                                                                       09780021
                                     490 *                                                                       09800021
                                     491 *                                                                       09820021
                                     492 *                                                                       09840021
                                     493 *                                                                       09860021
                                     494 *                                                                       09880021
                                     495 *                                                                       09900021
 0002E4 00                           496 EJECTSW  DC    X'00'               'FF' MEANS TAKE A NEW PAGE           09920021
 0002E5 402020202021                 497 MASKPG DC      X'402020202021'     EDITS PAGE NUMBER                    09940021
 0002F0                              498          DS    0D                                                       09960021
 0002F0 000002F4                     499 OVERFLOD  DC   A(OVERFLO)          ADDRESS OF HEADER LINE               09980021
 0002F4 0004                         500 OVERFLO  DC    H'4'                HEADER CONSTANT                      10000021
 0002F6 40404040                     501        DC      CL4' '              HEADER CONSTANT                      10020021
 0002FA 00001C                       502 PAGE   DC      X'00001C'           PAGE CONSTANT                        10040021
 0002FD 060C                         503 SIXTY    DC    X'060C'             LINE COUNT LIMIT                     10060021
 0002FF 40                           504 BLANK    DC     C' '               CARRIAGE CONTROL                     10080021
                                     505 *                                                                       10100021
                                     506 *                                                                       10120021
                                     507 *FORMAT  BCB                                                            10140021
                                     508 *        BYTE  1  X'00'                                                 10160021
                                     509 *                                                                       10180021
                                     510 *                                                                       10200021
                                     511 *                                                                       10220021
                                     512 *                                                                       10240021
                                     513 *                                                                       10260021
                                     514 *        BYTES 2-4     ADDRESS  OF  BUFFER                              10280021
                                     515 *                                                                       10300021
                                     516 *        BYTES 5-6     BYTES  USED    FOR  PUT  & GET SO FAR            10320021
                                     517 *                                                                       10340021
                                     518 *        BYTES 7-8     LENGTH OF  BUFFER                                10360021
                                     519 *                                                                       10380021
                                     520 *        CORE MAP                                                       10400021
                                     521 * BCTLS   18D                                                           10420021
                                     522 * BUF      1F       AMOUNT OF   CORE LEFT  FOR GET MAINS                10440021
                                     523 *          2F       START OF  TAMER  -  SIZE  USED                      10460021
 000300                              524        DS    0D                                                         10480021
 000300 000002F0                     525 BUFX   DC    A(OVERFLOD)           ADDRESS OF ADDRESS OF HEADER LIN     10500021
 000304 0000018C                     526          DC    A(DATE)             ADDRESS OF DATE                      10520021
 000308 0000000000000000             527 BUFCNLS  DC    15D'0'       BCB                                   1044  10540021
 000310 0000000000000000
 000318 0000000000000000
 000320 0000000000000000
1PH00     IKFCBL00                                                                                              PAGE   13
-  LOC  OBJECT CODE    ADDR1 ADDR2  STMT   SOURCE STATEMENT                                       ASM 0201 11.03 02/14/15
0000328 0000000000000000
 000330 0000000000000000
 000338 0000000000000000
 000340 0000000000000000
 000348 0000000000000000
 000350 0000000000000000
 000358 0000000000000000
 000360 0000000000000000
 000368 0000000000000000
 000370 0000000000000000
 000378 0000000000000000
 000380                              528 CORELEFT DS    1F                  BUFFER CONTROL BLOCKS                10560021
 000384                              529 TAMAREA  DS    1F        START TAMER AREA                               10580021
 000388                              530 TAMLL    DS    1F             END OF TAMER SET BY PHASE02               10600021
 00038C                              531 NOLIB  DS    CL1                   SWITCH FOR OK LIBRARY OPEN           10620021
 00038D 00
 00038E 0190                         532 LIBSIZE  DC    H'400'              BLKSIZE FOR LIB - SET IN PH01        10640021
 000390                              533 INBUF    DS    H                   SYSIN BUFFER SIZE - SET IN PH01      10660021
                                     534 *                                                                       10680021
 000392 4040404040404040             535 LIBNAME  DC    CL8' '              SAVE AREA FOR COPY/BASIS RTN         10700021
 00039A F040404040404040             536 CURNAME  DC    CL8'0'              SAVE AREA FOR COPY/BASIS RTN         10720021
 0003A2 0024                         537 LIBRAR   DC    H'36'               FILE NUMBER VALUE                    10740021
 0003A4 001C                         538 PUNCHER  DC    H'28'               FILE NUMBER VALUE                    10760021
 0003A6 0018                         539 PRINTER  DC    H'24'               FILE NUMBER VALUE                    10780021
 0003A8 0F0F                         540 OFF    DC      X'0F0F'             MASK FOR POINT TABLE                 10800021
 0003AA 0050                         541 EIGHTY   DC    H'80'               USED IN READB ROUTINE                10820021
 0003AC F1                           542 PRINTBUF DC    C'1'                CONTROL CH FOR PRINTER               10840021
 0003AD 0000000C                     543 LINECNT  DC    X'0000000C'         PROGRAM LISTING LINE COUNT           10860021
 0003B1 1C                           544 ONE      DC    X'1C'               USED TO ADJUST PAGE AND LINECNT      10880021
                             00182   545 SWITCHD  EQU   X'182'                                                   10900021
 0003B2 F1                           546 SKIP     DC    C'1'                EJECT VALUE FOR CARRIAGE CTL         10920021
 0003B3 0C                           547 PZERO    DC    X'0C'               PACKED ZERO CONSTANT                 10940021
 0003B4 00                           548 BASSW    DC    X'00'               SET IF BASIS REQUEST                 10960021
                                     549 *                                                                       10980021
                                     550 *                                                                       11000021
                                     551 *                                                                       11020021
                                     552 *                                                                       11040021
 0003B5 000000
 0003B8 00000000                     553 MYSAVE   DC    1F'0'               PH00 SAVE AREA                       11060021
 0003BC                              554          DS    F              SAVE AREA IN OS                           11080021
 0003C0 00000400                     555          DC     A(SAVEPHSE)        ADDR OF PHASE SAVE AREA              11100021
 0003C4                              556          DS    15F                 REG SAVE AREA                        11120021
 000400                              557 SAVEPHSE DS    18F            FOR PHASE USE                             11140021
                                     558 *                                                                       11160021
                                     559 *                                                                       11180021
                                     560 *                                                                       11200021
                                     561 *                                                                       11220021
                                     562 *                                                                       11240021
 000448 C9D2C6C3C2D3F0F1             563 LINKNAME DC    CL8'IKFCBL01'       USED BY LINK MACRO                   11260021
 000450 F0F1                         564          DC    CL2'01'             VARIABLE PORTION OF LINK CONSTAN     11280021
 000452 F1F0                         565          DC    CL2'10'             VARIABLE PORTION OF LINK CONSTAN     11300021
 000454 F1C2                         566          DC    CL2'1B'             VARIABLE PORTION OF LINK CONSTAN     11320021
 000456 F2F0                         567          DC    CL2'20'             VARIABLE PORTION OF LINK CONSTAN     11340021
 000458 F3F0                         568          DC    CL2'30'             VARIABLE PORTION OF LINK CONSTAN     11360021
 00045A F4F0                         569          DC    CL2'40'             VARIABLE PORTION OF LINK CONSTAN     11380021
1PH00     IKFCBL00                                                                                              PAGE   14
-  LOC  OBJECT CODE    ADDR1 ADDR2  STMT   SOURCE STATEMENT                                       ASM 0201 11.03 02/14/15
000045C F5F0                         570          DC    CL2'50'             VARIABLE PORTION OF LINK CONSTAN     11400021
 00045E F5F1                         571          DC    CL2'51'             VARIABLE PORTION OF LINK CONSTAN     11420021
 000460 F6F0                         572          DC    CL2'60'             VARIABLE PORTION OF LINK CONSTAN     11440021
 000462 F6C1                         573          DC    CL2'6A'             VARIABLE PORTION OF LINK CONSTAN     11460021
 000464 F7F0                         574          DC    CL2'70'             VARIABLE PORTION OF LINK CONSTAN     11480021
 000466 FF                           575          DC    X'FF'       INDICATE END OF LINKNAMES              9330  11500021
 000467 00
 000468 0000                         576 LINKCNT  DC    H'0'                VALUE CORRESPONDS TO CURRENT PMS     11520021
 00046A 00                           577 PHASW  DC    X'00'                 PHASW FOR USE BY TAMER               11540021
 00046B 00                           578 RETOK    DC    X'00'               'FF' MEANS END COMPILATION           11560021
 00046C 00001268                     579 LIBADD   DC    A(LIB)              @ LIB DCB                            11580021
 000470 50D0 5252      00258         580 GO       ST    R13,SAVER13                                              11600021
 000474 41D0 53B2      003B8         581          LA    R13,MYSAVE                                               11620021
 000478 5430 525A      00260         582          N     R3,ZEROES+NX4                                            11640021
 00047C 9867 5256      0025C         583 GOSYSGO  LM    R6,R7,ZEROES                                             11660021
 000480 1880                         584          LR    R8,R0                                                    11680021
 000482 9506 8000      00000         585          CLI   DX0(R8),XX06                                             11700021
 000486 4780 581A      00820         586          BE    EXIT1               OSDUMPS DUMMY CALL                   11720021
 00048A 4368 0000      00000         587          IC    R6,DX0(R8)                    PICK UP LINKAGE PARAM      11740021
 00048E 8C60 0004      00004         588          SRDL  R6,DX4                       6 HAS ACTION CODEX4         11760021
 000492 8960 0002      00002         589          SLL   R6,DX2                          AT THIS TIME             11780021
 000496 8870 001B      0001B         590          SRL   R7,DX27                      FILE TIMES 2  (HALF WORD    11800021
 00049A 58B6 525E      00264         591          L     R11,ADD(R6)                                              11820021
 00049E 9150 8000      00000         592          TM    DX0(R8),LNKRQST1     STEP 1 OF CHECK FOR X = 'A'         11840021
 0004A2 4770 54AA      004B0         593          BNZ   GSYSG1              NOT LOAD NEXT PHASE                  11860021
 0004A6 91A0 8000      00000         594          TM    DX0(R8),LNKRQST2     FINAL STEP OF CHECK FOR X = 'A'     11880021
 0004AA 47E0 54AA      004B0         595          BNO   GSYSG1              X DOES NOT = 'A'                     11900021
 0004AE 07FB                         596          BR    R11                 IT DOES, GO RIGHT TO LINK ROUTIN     11920021
                                     597 *                                                                       11940021
                                     598 *                                                                       11960021
                                     599 *  AT THE END OF THIS ROUTINE SINGLE BUFFER WILL BE SET,SPECIAL         11980021
                                     600 *        WILL BE SET, REG6 POINTS TO BCB 1 , 7 TO BCB2 ,   8  TO PA     12000021
                                     601 *        LIST  9  TO  POINTER (FOR BUFFER SWITCH) 10 HAS FILE NOX4      12020021
 0004B0 4197 52AA      002B0         602 GSYSG1   LA    R9,POINT(R7)                                             12040021
 0004B4 D201 529E 5256 002A4 0025C   603          MVC   SINGBUF(LX2),ZEROES                                      12060021
 0004BA 18A7                         604          LR    R10,R7                                                   12080021
 0004BC 89A0 0001      00001         605          SLL   R10,DX1                                                  12100021
 0004C0 91F0 9000      00000         606          TM    DX0(R9),XXF0                                             12120021
 0004C4 4780 54C6      004CC         607          BZ    GOA1                NOT FIRST I/O                        12140021
 0004C8 96FF 529F      002A5         608          OI    SPECIAL,XXFF                                             12160021
 0004CC 4369 0000      00000         609 GOA1     IC    R6,DX0(R9)                                               12180021
 0004D0 4379 0001      00001         610          IC    R7,DX1(R9)                                               12200021
 0004D4 8D60 001C      0001C         611          SLDL  R6,DX28                                                  12220021
 0004D8 8860 0019      00019         612          SRL   R6,DX25                                                  12240021
 0004DC 8870 0019      00019         613          SRL   R7,DX25                                                  12260021
 0004E0 1967                         614          CR    R6,R7                                                    12280021
 0004E2 4770 54E4      004EA         615          BNE   GOA2                DOUBLE BUFFERED                      12300021
 0004E6 96FF 529E      002A4         616          OI    SINGBUF,XXFF     SINGLE BUFFER                           12320021
 0004EA 4166 52FA      00300         617 GOA2     LA    R6,BUFCNLS-NX8(R6)                                       12340021
 0004EE 4177 52FA      00300         618          LA    R7,BUFCNLS-NX8(R7)                                       12360021
 0004F2 07FB                         619          BR    R11                 GO TO X PARAMETER ROUTINE            12380021
 0004F4 181A                         620 GETDECBA LR    R1,R10                                                   12400021
 0004F6 4B10 54FE      00504         621          SH    R1,FOUR                                                  12420021
 0004FA 4C10 5500      00506         622          MH    R1,FIVE                                                  12440021
 0004FE 5A10 5502      00508         623          A     R1,ADECB                                                 12460021
1PH00     IKFCBL00                                                                                              PAGE   15
-  LOC  OBJECT CODE    ADDR1 ADDR2  STMT   SOURCE STATEMENT                                       ASM 0201 11.03 02/14/15
0000502 07FF                         624          BR    R15                 RETURN TO NEXT SEQUENTIAL INSTR      12480021
 000504 0004                         625 FOUR     DC    H'4'                USED IN GETDECBA ROUTINE             12500021
 000506 0005                         626 FIVE     DC    H'5'                USED IN GETDECBA ROUTINE             12520021
 000508 000013C0                     627 ADECB    DC    A(DECBDS1)          @ FIRST DECB                         12540021
                                     628 *  REG    POINTS TO                                                     12560021
                                     629 *  6      FIRST BUFFER AREA               10= FILE NOX4                 12580021
                                     630 *  7      SECOND                                                        12600021
                                     631 *  8      PARAM LINK FROM PHASE  (RETURN AD-2)                          12620021
                                     632 *  9      POINTERS  FOR FILE   POINTERS TO BCB'S  FOR  SWITCHING        12640021
                                     633 *  5      BASE REGISTER                                                 12660021
 00050C 49A0 539C      003A2         634 READ     CH    R10,LIBRAR                                               12680021
 000510 4780 5576      0057C         635          BE    READLIB             MUST READ FROM LIBRARY               12700021
 000514 91FF 529F      002A5         636 READD    TM    SPECIAL,XXFF                                             12720021
 000518 4780 57E2      007E8         637          BZ    READB          NOT  FIRST READ                           12740021
                                     638 * PRIMING NECESSARY                                                     12760021
 00051C 45B0 57CA      007D0         639 READSING BAL   R11,READER          READ FIRST                           12780021
 000520 45B0 56D8      006DE         640          BAL   R11,CHECKER         THEN CHECK                           12800021
 000524 91FF 529E      002A4         641          TM    SINGBUF,XXFF                                             12820021
 000528 4710 5812      00818         642          BO    EXIT                SINGLE BUFFERED-SO EXIT              12840021
                                     643 *                                                                       12860021
 00052C 41B0 5812      00818         644          LA    R11,EXIT                                                 12880021
 000530 47F0 57CA      007D0         645          B     READER              DOUBLE BUFFERED-MUST READ AGAIN      12900021
                                     646 *                                                                       12920021
                                     647 *                                                                       12940021
                                     648 *        COPY BASIS ROUTINE                                             12960021
                                     649 *                                                                       12980021
                                     650 *        SAVE  AREAS FOR ROTOTIONAL RETURN TO BASIS LIBRARY             13000021
 000534                              651 PREREG6  DS    F                   R6 SAVEAREA                          13020021
 000538                              652 PREREG7  DS    F                   R7 SAVEAREA                          13040021
 00053C                              653 PREPOINT DS    CL2                 ALTERNATE POINT FIELD                13060021
 00053E                              654 PRELEN   DS    CL2                 LENGTH FIELD                         13080021
 000540                              655 PREHLD   DS    CL16     PREVIOUS DCB STATUS FOR NOTE                    13100021
 000550 4040404040404040             656 BASISN   DC    CL8' '              VALUE PASSED BY CALLING PHASE        13120021
 000558 4040404040404040             657 PRENAME  DC    CL8' '    OUS MEMBER NAME                                13140021
 000560                              658 LIBHLD   DS    CL16                STORAGE FIELD FOR LIB DCB INFO       13160021
 000570 0000083C                     659 EODADD   DC    A(ENDIN1)           @ EOD ROUTINE                        13180021
 000574 0000063C                     660 ADRLIBF  DC    A(RLIBF)            @ READ FROM LIBRARY ROUTINE          13200021
 000578 000014D8                     661 CTRMNT   DC    A(TRMNATE)          @ ABNORMAL END COMPILATION RTNE      13220021
                                     662 * NOTICE THAT WE FOURCE A NOTE AND POINT AS REQUIRED                    13240021
 00057C 91FF 5386      0038C         663 READLIB  TM    NOLIB,XXFF                                               13260021
 000580 4710 5678      0067E         664          BO    RLIBD               LIBRARY NOT OPENED SUCCESSFULLY      13280021
 000584 D507 5394 8001 0039A 00001   665          CLC   CURNAME,DX1(R8)                                          13300021
 00058A 4780 55F6      005FC         666          BE    READDA     CONTINUE SAME MEMBER                          13320021
 00058E 91FF 529F      002A5         667          TM    SPECIAL,XXFF                                             13340021
 000592 4710 5640      00646         668          BO    RLIBA    FIRST READ FROM LIBRARY                         13360021
 000596 D507 5552 8001 00558 00001   669          CLC   PRENAME,DX1(R8)                                          13380021
 00059C 4770 55FE      00604         670          BNE   RLIBB          NEW MEMBER -COPY OPTION                   13400021
 0005A0 96FF 53AE      003B4         671          OI    BASSW,XXFF          SET SWITCH FOR RETURN TO BASIS LI    13420021
 0005A4 47F0 5640      00646         672          B     RLIBA              GO FIND MEMBER                        13440021
                                     673 * NOTICE THAT NO CHECK IS NECESSARY BECAUSEE ARE REVERTING TO A         13460021
                                     674 * PREVIOUS MEMBER    THEN A COPY IS COMPLETE AND WE RETURN TO THE B     13480021
 0005A8 5810 5466      0046C         675 READNOTE L     R1,LIBADD                                                13500021
 0005AC D20F 1004 553A 00004 00540   676          MVC   DX4(LX16,R1),PREHLD                                      13520021
                                     677          NOTE  (1)                                                      13540021
 0005B2 58F0 1054      00054         678+         L     15,84(0,1)                        LOAD NOTE  RTN ADDRESS 00100000
1PH00     IKFCBL00                                                                                              PAGE   16
-  LOC  OBJECT CODE    ADDR1 ADDR2  STMT   SOURCE STATEMENT                                       ASM 0201 11.03 02/14/15
00005B6 05EF                         679+         BALR  14,15                             LINK TO NOTE  ROUTINE  00120000
 0005B8 5010 56BA      006C0         680          ST    R1,READSAV                                               13560021
 0005BC 4100 56BA      006C0         681          LA    R0,READSAV                                               13580021
 0005C0 5810 5466      0046C         682          L     R1,LIBADD                                                13600021
                                     683          POINT (1),(0)                                                  13620021
 0005C4 58F0 1054      00054         684+         L     15,84(0,1)                        LOAD POINT RTN ADDRESS 00120000
 0005C8 45EF 0004      00004         685+         BAL   14,4(15,0)                        LINK TO POINT ROUTINE  00140000
 0005CC 5870 552E      00534         686          L     R7,PREREG6                                               13640021
 0005D0 5860 5532      00538         687          L     R6,PREREG7                                               13660021
 0005D4 D201 7006 5388 00006 0038E   688          MVC   DX6(LX2,R7),LIBSIZE                                      13680021
 0005DA D201 6006 5388 00006 0038E   689          MVC   DX6(LX2,R6),LIBSIZE                                      13700021
 0005E0 45B0 57CA      007D0         690          BAL   R11,READER          MUST READ                            13720021
 0005E4 45B0 56D8      006DE         691          BAL   R11,CHECKER  REPRIME                                     13740021
 0005E8 45B0 57CA      007D0         692          BAL   R11,READER          MUST READ                            13760021
 0005EC D201 52BC 5536 002C2 0053C   693          MVC   POINT+NX18(LX2),PREPOINT                                 13780021
 0005F2 D201 6004 5538 00004 0053E   694          MVC   DX4(LX2,R6),PRELEN                                       13800021
 0005F8 9400 53AE      003B4         695          NI    BASSW,XX00          TURN OFF SWITCH                      13820021
 0005FC 4188 0008      00008         696 READDA   LA    R8,DX8(R8)                                               13840021
 000600 47F0 57E2      007E8         697          B     READB   GO DEBLOCK                                       13860021
                                     698 *                                                                       13880021
 000604 D507 5394 554A 0039A 00550   699 RLIBB    CLC   CURNAME,BASISN                                           13900021
 00060A 4770 5640      00646         700          BNE   RLIBA      NOT READING FROM BASIS DONT SAVE              13920021
 00060E D201 5538 6004 0053E 00004   701          MVC   PRELEN,DX4(R6) LOGICAL LENGTH USED                       13940021
 000614 D207 5552 5394 00558 0039A   702          MVC   PRENAME,CURNAME                                          13960021
 00061A 9067 552E      00534         703          STM   R6,R7,PREREG6                                            13980021
 00061E D201 5536 52BC 0053C 002C2   704          MVC   PREPOINT,POINT+NX18                                      14000021
 000624 D20F 553A 555A 00540 00560   705          MVC   PREHLD,LIBHLD   LAST CHECK STATUS                        14020021
 00062A 58B0 5466      0046C         706          L     R11,LIBADD                                               14040021
 00062E D202 B021 556F 00021 00575   707          MVC   DX33(LX3,R11),ADRLIBF+NX1                                14060021
 000634 45B0 56D8      006DE         708          BAL   R11,CHECKER  ISSUE OUTSTANDING CHECK CHANGE EODAD        14080021
 000638 92FF 5B3C      00B42         709          MVI   COPYCHK,XXFF                                             14100021
 00063C 5810 5466      0046C         710 RLIBF    L     R1,LIBADD                                                14120021
 000640 D202 1021 556B 00021 00571   711          MVC   DX33(LX3,R1),EODADD+NX1                                  14140021
 000646 D207 538C 8001 00392 00001   712 RLIBA    MVC   LIBNAME,DX1(R8)                                          14160021
 00064C 1848                         713          LR    R4,R8                                                    14180021
 00064E 4108 0001      00001         714          LA    R0,DX1(R8)                                               14200021
 000652 5810 5466      0046C         715          L     R1,LIBADD                                                14220021
                                     716          FIND  (1),(0),D                                                14240021
 000656 1311                         717+         LCR   1,1                               INDICATE TYPE D        00160000
 000658 0A12                         718+         SVC   18                                ISSUE FIND SVC         00180000
 00065A 47FF 5658      0065E         719          B     *+4(R15)            BRANCH WRT FIND RETURN CODE          14260021
 00065E 47F0 567E      00684         720          B     RLIBGO              SUCCESSFUL FIND                      14280021
 000662 4188 0004      00004         721          LA    R8,DX4(R8)                                               14300021
 000666 4188 0004      00004         722          LA    R8,DX4(R8)  I O ERROR                                    14320021
 00066A 4188 000C      0000C         723 RLIBC    LA    R8,DX12(R8)                                              14340021
 00066E 95C2 4009      00009         724          CLI   DX9(R4),XCB                                              14360021
 000672 4770 5B64      00B6A         725          BNE   EXITR                   RETURN TO PH1 ONLY ON COPY       14380021
 000676 5840 5572      00578         726 NOREADL  L     PR4,CTRMNT                                               14400021
 00067A 47F0 42F4      017CC         727          B     NOLIBRY             UNSUCCESSFUL FIND                    14420021
 00067E 1848                         728 RLIBD    LR    R4,R8                                                    14440021
 000680 47F0 5664      0066A         729          BC    UNCOND,RLIBC        CHECK IF COPY                        14460021
 000684 D207 5394 538C 0039A 00392   730 RLIBGO   MVC   CURNAME,LIBNAME                                          14480021
 00068A 9200 5B3C      00B42         731          MVI   COPYCHK,XX00                                             14500021
 00068E 91FF 53AE      003B4         732          TM    BASSW,XXFF           IS THIS A RETURN TO BASIS LIBRAR    14520021
 000692 4710 55A2      005A8         733          BO    READNOTE           BRANCH IF                             14540021
1PH00     IKFCBL00                                                                                              PAGE   17
-  LOC  OBJECT CODE    ADDR1 ADDR2  STMT   SOURCE STATEMENT                                       ASM 0201 11.03 02/14/15
0000696 9120 51CD      001D3         734          TM    PH1BYTE,BASIS                                            14560021
 00069A 4780 56A2      006A8         735          BZ    RLIBGOA             BASIS BIT ALREADY OFF                14580021
 00069E D207 554A 8001 00550 00001   736          MVC   BASISN,DX1(R8)                                           14600021
 0006A4 94DF 51CD      001D3         737          NI    PH1BYTE,XXFF-BASIS                                       14620021
                                     738 * NB NB NB NB NB NB NB NB NB NB NB NB NB NB NB NB NB NB NB NB NB        14640021
                                     739 *  PHASE ONE MUST TURN OFF BASIS SWITCH IF FIRST CARD IS NOT            14660021
                                     740 * A BASIS STATEMENT                                                     14680021
 0006A8 96FF 529F      002A5         741 RLIBGOA  OI    SPECIAL,XXFF                                             14700021
 0006AC D201 7006 5388 00006 0038E   742          MVC   DX6(LX2,R7),LIBSIZE                                      14720021
 0006B2 D201 6006 5388 00006 0038E   743          MVC   DX6(LX2,R6),LIBSIZE                                      14740021
 0006B8 4188 0008      00008         744          LA    R8,DX8(R8)                                               14760021
 0006BC 47F0 550E      00514         745          B     READD               PREPARE TO DO A READ                 14780021
                                     746 *                                                                       14800021
                                     747 *                                                                       14820021
 0006C0                              748 READSAV  DS    F                   SAVE AREA FOR R1 - MACRO USAGE       14840021
 0006C4 91FF 529F      002A5         749 WCOMM    TM    SPECIAL,XXFF       FIRST I-O THIS PHASE                  14860021
 0006C8 4710 56D0      006D6         750          BO    WRTAAA              NOT NEED TO ISSUE CHECK              14880021
 0006CC 45B0 56D8      006DE         751          BAL   R11,CHECKER         MUST CHECK FIRST                     14900021
 0006D0 45B0 57D6      007DC         752 WRTAA    BAL   R11,WRITER          THEN WRITE                           14920021
 0006D4 07FC                         753          BR    R12                 GO TO NEXT I/O PROCESSING RTNE       14940021
 0006D6 45B0 572E      00734         754 WRTAAA   BAL   R11,CHECKERB        FIRST I/O-SKIP CHECK MACRO           14960021
 0006DA 47F0 56CA      006D0         755          B     WRTAA               NOW WRITE                            14980021
 0006DE 45F0 54EE      004F4         756 CHECKER  BAL   R15,GETDECBA        GET @ DECB                           15000021
 0006E2 5010 56BA      006C0         757          ST    R1,READSAV                                               15020021
                                     758          CHECK (1)                                                      15040021
 0006E6 58E0 1008      00008         759+         L     14,8(0,1)                         PICK UP DCB ADDRESS    00100000
 0006EA 58F0 E034      00034         760+         L     15,52(0,14)                       LOAD CHECK ROUT. ADDR. 00120000
 0006EE 05EF                         761+         BALR  14,15                             LINK TO CHECK ROUTINE  00140000
 0006F0 5810 56BA      006C0         762          L     R1,READSAV                                               15060021
 0006F4 9180 1005      00005         763          TM    DX5(R1),XX80   WAS IT A REA                              15080021
 0006F8 4780 572E      00734         764          BZ    CHECKERB            NOT A READ                           15100021
 0006FC 49A0 5C78      00C7E         765          CH    R10,UTILITY                                              15120021
 000700 4740 572E      00734         766          BL    CHECKERB            UTILITY FILE SO BRANCH               15140021
 000704 49A0 539C      003A2         767          CH    R10,LIBRAR                                               15160021
 000708 4770 571E      00724         768          BNE   CHECKERD            NOT LIBRARY FILE SO BRANCH           15180021
 00070C 95FF 5B3C      00B42         769          CLI   COPYCHK,XXFF                                             15200021
 000710 4770 5714      0071A         770          BNE   CHECKERA            CHECK MUST BE ISSUED SO BRANCH       15220021
 000714 9200 5B3C      00B42         771          MVI   COPYCHK,XX00                                             15240021
 000718 07FB                         772          BR    R11                 RETURN TO NEXT SEQUENTIAL INSTR      15260021
 00071A 58F0 5466      0046C         773 CHECKERA L     R15,LIBADD                                               15280021
 00071E D20F 555A F004 00560 00004   774          MVC   LIBHLD,DX4(R15)                                          15300021
 000724 5811 0010      00010         775 CHECKERD L     R1,DX16(R1)    ADDRESS OF IOB                            15320021
 000728 48F7 0006      00006         776          LH    R15,DX6(R7)    LENGTH OF BUFFER                          15340021
 00072C 4BF1 000E      0000E         777          SH    R15,DX14(R1)   RESIDUAL BYTE COUNT FROM CSW              15360021
 000730 40F7 0006      00006         778          STH   R15,DX6(R7)    DATA READ IN                              15380021
 000734 48F9 0000      00000         779 CHECKERB LH    R15,DX0(R9)                                              15400021
 000738 42F9 0000      00000         780          STC   R15,DX0(R9)                                              15420021
 00073C 88F0 0008      00008         781          SRL   R15,DX8                                                  15440021
 000740 42F9 0001      00001         782          STC   R15,DX1(R9)                                              15460021
 000744 1767                         783          XR    R6,R7                                                    15480021
 000746 1776                         784          XR    R7,R6                                                    15500021
 000748 1767                         785          XR    R6,R7                                                    15520021
 00074A D201 6004 5256 00004 0025C   786 CHECKERC MVC   DX4(LX2,R6),ZEROES                                       15540021
 000750 D201 7004 5256 00004 0025C   787          MVC   DX4(LX2,R7),ZEROES                                       15560021
 000756 49A0 5B88      00B8E         788          CH    R10,SUT1                                                 15580021
1PH00     IKFCBL00                                                                                              PAGE   18
-  LOC  OBJECT CODE    ADDR1 ADDR2  STMT   SOURCE STATEMENT                                       ASM 0201 11.03 02/14/15
000075A 077B                         789          BCR   R7,R11              NOT SYSUT1 SO BRANCH                 15600021
 00075C 91FF 5B8A      00B90         790          TM    SEGNTSW,XXFF                                             15620021
 000760 4740 5C12      00C18         791          BM    SEGNOTE1  CHK LAST WRITE PREVIOUS SEG ISSUED             15640021
 000764 4710 5C18      00C1E         792          BO    SEGNOTE2  CHK FIRST WRITE PREVIOUS SEG ISSUED            15660021
 000768 07FB                         793          BR    R11                 RETURN TO NEXT SEQUENTIAL INSTR      15680021
 00076A D200 1000 2000 00000 00000   794 MOVE     MVC   DX0(LX0,R1),DX0(R2)                                      15700021
 000770 45F0 54EE      004F4         795 IOCOM    BAL   R15,GETDECBA  ON RETURN R1 = DECB ADDRESS                15720021
 000774 D203 100C 7000 0000C 00000   796          MVC   DX12(LX4,R1),DX0(R7) ADDRESS OF AREA                     15740021
 00077A 58F1 0008      00008         797          L     R15,DX8(R1)    DCB ADDRESS                               15760021
 00077E 49A0 5B88      00B8E         798          CH    R10,SUT1                                                 15780021
 000782 4770 5798      0079E         799          BNE   SNOTUT1             NOT SYSUT1 SO BRANCH                 15800021
 000786 91FF 5B8B      00B91         800          TM    STRUNCSW,XXFF       TRUNCATED WRITE OF SYSUT1?           15820021
 00078A 4710 57A6      007AC         801          BO    NSYSN               SKIP NEXT INSTRUCTIONS               15840021
 00078E D201 1006 7006 00006 00006   802          MVC   DX6(LX2,R1),DX6(R7)                                      15860021
 000794 D201 F052 7006 00052 00006   803          MVC   DX82(LX2,R15),DX6(R7)                                    15880021
 00079A 47F0 57A6      007AC         804          B     NSYSN               SKIP SNOTUT1 ROUTINE                 15900021
 00079E                              805 SNOTUT1  DS    0H                                                       15920021
 00079E 49A0 5B40      00B46         806          CH    R10,SYSN      IF SYSIN, RESET BLKSIZE (CONCAT DS)        15940021
 0007A2 4770 57A6      007AC         807          BNE   NSYSN         NOT SYSIN                                  15960021
 0007A6 D201 7006 538A 00006 00390   808          MVC   DX6(LX2,R7),INBUF SIZE SET BY PH00 RESTORED IN DCB       15980021
 0007AC D201 F03E 7006 0003E 00006   809 NSYSN    MVC   DX62(LX2,R15),DX6(R7) BLOCK SIZE                         16000021
 0007B2 91FF 5D00      00D06         810          TM    CLOSE,XXFF                                               16020021
 0007B6 4780 57BE      007C4         811          BZ    IOCOMA              LEAVE DCB ALONE                      16040021
 0007BA D201 F03E 5CFE 0003E 00D04   812          MVC   DX62(LX2,R15),CLOSEH                                     16060021
 0007C0 9400 5D00      00D06         813          NI    CLOSE,XX00                                               16080021
 0007C4 58F0 F030      00030         814 IOCOMA   L     R15,DX48(R0,R15) ADDRESS OF READ/WRITE MODULE            16100021
 0007C8 D401 9000 53A2 00000 003A8   815          NC    DX0(LX2,R9),OFF                                          16120021
 0007CE 07FE                         816          BR    R14                 RETURN TO NEXT SEQUENTIAL INSTR      16140021
 0007D0 45E0 576A      00770         817 READER   BAL   R14,IOCOM           GET @ DECB,ETC                       16160021
 0007D4 9280 1005      00005         818          MVI   DX5(R1),XX80                                             16180021
 0007D8 05EF                         819 BALR     BALR  R14,R15             BRANCH TO READ/WRITE MODULE          16200021
 0007DA 07FB                         820          BR    R11                 RETURN TO NEXT SEQUENTIAL INSTR      16220021
 0007DC 45E0 576A      00770         821 WRITER   BAL   R14,IOCOM           GET @ DECB,ETC                       16240021
 0007E0 9220 1005      00005         822          MVI   DX5(R1),XX20                                             16260021
 0007E4 47F0 57D2      007D8         823          B     BALR                BRANCH TO READ/WRITE MODULE          16280021
                                     824 *                                                                       16300021
                                     825 *                                                                       16320021
                                     826 *                                                                       16340021
 0007E8 49A0 5C78      00C7E         827 READB    CH    R10,UTILITY                                              16360021
 0007EC 4740 5802      00808         828        BL      READC               UTILITY FILE                         16380021
                                     829 *                                            SYSIN BLOCKED              16400021
                                     830 *                                            NO                         16420021
 0007F0 4816 0004      00004         831          LH    R1,DX4(R6)                                               16440021
 0007F4 4A10 53A4      003AA         832          AH    R1,EIGHTY                                                16460021
 0007F8 4916 0006      00006         833          CH    R1,DX6(R6)                                               16480021
 0007FC 4780 5802      00808         834        BE      READC               BRANCH AROUND EXIT                   16500021
                                     835 *                                                                       16520021
 000800 4016 0004      00004         836          STH   R1,DX4(R6)                                               16540021
                                     837 *                                                                       16560021
 000804 47F0 5812      00818         838          B     EXIT                          SINGLE  BUFFER             16580021
                                     839 *                                                                       16600021
 000808 91FF 529E      002A4         840 READC    TM    SINGBUF,XXFF                                             16620021
 00080C 4710 5516      0051C         841          BO    READSING            SINGLE BUFFER READ                   16640021
                                     842 *                                                                       16660021
 000810 45B0 56D8      006DE         843 READC1   BAL   R11,CHECKER         MUST CHECK                           16680021
1PH00     IKFCBL00                                                                                              PAGE   19
-  LOC  OBJECT CODE    ADDR1 ADDR2  STMT   SOURCE STATEMENT                                       ASM 0201 11.03 02/14/15
0000814 45B0 57CA      007D0         844 READC2   BAL   R11,READER          THEN READ                            16700021
 000818 5806 0000      00000         845 EXIT     L     R0,DX0(R6)                                               16720021
 00081C 4A06 0004      00004         846          AH    R0,DX4(R6)                  CC DOES NOT EQUAL 0          16740021
                                     847 *                                                                       16760021
 000820 1818                         848 EXIT1    LR    R1,R8                                                    16780021
 000822 4111 0000      00000         849          LA    R1,DX0(R1)                                               16800021
                                     850 *                                                                       16820021
                                     851 *                                                                       16840021
 000826 58D0 5252      00258         852 EXIT2    L     R13,SAVER13              CC  EQUALS 0                    16860021
 00082A 98EF D00C      0000C         853          LM    R14,R15,DX12(R13)                                        16880021
 00082E D203 D00C 5406 0000C 0040C   854          MVC   DX12(LX4,R13),SAVEPHSE+NX12                              16900021
 000834 982C D01C      0001C         855          LM    R2,R12,DX28(R13)                                         16920021
 000838 47F1 0002      00002         856          BC    R15,DX2(R1)         RETURN TO CALLING PHASE              16940021
 00083C D707 5394 5394 0039A 0039A   857 ENDIN1   XC    CURNAME(LX8),CURNAME ZERO CURNAME                        16960021
 000842 1911                         858 ENDIN    CR    R1,R1                                                    16980021
 000844 47F0 581A      00820         859          B     EXIT1               PREPARE TO RETURN TO CALLING PH      17000021
                                     860 *                                                                       17020021
                                     861 *                                                                       17040021
                                     862 *                                                                       17060021
                                     863 *                                                                       17080021
 000848 1B33                         864 WRITEA   SR    R3,R3            IC TEXT  WRITER                         17100021
 00084A 4332 0000      00000         865          IC    R3,DX0(R2)                                               17120021
 00084E 8A30 0006      00006         866          SRA   R3,DX6                                                   17140021
 000852 4133 0001      00001         867          LA    R3,DX1(R3)                                               17160021
 000856 4770 585C      00862         868          BC    R7,WRITE        SHORT FORM                               17180021
 00085A 4332 0001      00001         869          IC    R3,DX1(R2)        LONG  FORM                             17200021
 00085E 4133 0002      00002         870          LA    R3,DX2(R3)                                               17220021
                                     871 *                                                                       17240021
 000862 49A0 53A0      003A6         872 WRITE    CH    R10,PRINTER          IS IT PRINTER                       17260021
 000866 4780 58DC      008E2         873          BE    WRITPRNH            YES                                  17280021
 00086A 49A0 539E      003A4         874          CH    R10,PUNCHER          IS IT  PUNCH                        17300021
 00086E 4780 5926      0092C         875          BE    WRITPCH             YES                                  17320021
 000872 4846 0004      00004         876 WRITE1   LH    R4,DX4(R6)   USED BYTES      UTILITY                     17340021
 000876 1A43                         877          AR    R4,R3       THIS WRITE                                   17360021
 000878 4946 0006      00006         878          CH    R4,DX6(R6)                                               17380021
 00087C 47B0 5890      00896         879          BNL   WRITE1A   WILL NOT  FIT                                  17400021
 000880 5816 0000      00000         880          L     R1,DX0(R6)                                               17420021
 000884 4A16 0004      00004         881          AH    R1,DX4(R6)                                               17440021
 000888 4046 0004      00004         882          STH   R4,DX4(R6)   STORE  UPDATED LENGTH                       17460021
 00088C 0630                         883          BCTR  R3,R0       GET  INTERNAL  LENGTH                        17480021
 00088E 4430 5764      0076A         884          EX    R3,MOVE    MOVE  DATA                                    17500021
 000892 47F0 581A      00820         885          BC    UNCOND,EXIT1        PREPARE TO RETURN TO CALLING PH      17520021
                                     886 *                                                                       17540021
                                     887 *                                                                       17560021
                                     888 *                                                                       17580021
                                     889 *                                                                       17600021
                                     890 *                                                                       17620021
                                     891 *                                                                       17640021
                                     892 *                                                                       17660021
                                     893 *                                                                       17680021
 000896 5816 0000      00000         894 WRITE1A  L     R1,DX0(R6)                                               17700021
 00089A 4A16 0004      00004         895          AH    R1,DX4(R6)                                               17720021
 00089E 92FF 1000      00000         896          MVI   DX0(R1),XXFF                                             17740021
 0008A2 91FF 529E      002A4         897          TM    SINGBUF,XXFF                                             17760021
 0008A6 4710 58AC      008B2         898          BO    WSINGLE             SINGLE BUFFERED                      17780021
1PH00     IKFCBL00                                                                                              PAGE   20
-  LOC  OBJECT CODE    ADDR1 ADDR2  STMT   SOURCE STATEMENT                                       ASM 0201 11.03 02/14/15
00008AA 41C0 586C      00872         899          LA    R12,WRITE1                                               17800021
 0008AE 47F0 56BE      006C4         900          B     WCOMM               DOUBLE BUFFERED                      17820021
 0008B2 45B0 57D6      007DC         901 WSINGLE  BAL   R11,WRITER          MUST WRITE                           17840021
 0008B6 41B0 586C      00872         902          LA    R11,WRITE1                                               17860021
 0008BA 47F0 56D8      006DE         903          B     CHECKER             THEN CHECK                           17880021
 0008BE 9180 519D      001A3         904 WRITPRIN TM    PHZSW,LIST                                               17900021
 0008C2 4780 5B64      00B6A         905          BZ    EXITR               SOURCE LISTING NOT REQUESTED         17920021
 0008C6 91F1 53A6      003AC         906          TM    PRINTBUF,XXF1                                            17940021
 0008CA 4710 5A04      00A0A         907          BO    EJECTC              GO EJECT PAGE                        17960021
 0008CE 91FF 596D      00973         908          TM    PRINTSW,XXFF                                             17980021
 0008D2 4710 58E8      008EE         909          BO    WPRINA              *                                    18000021
 0008D6 41E0 5B64      00B6A         910 WPRINB   LA    R14,EXITR   WILL FIT EXIT                                18020021
 0008DA 41C0 58D0      008D6         911          LA    R12,WPRINB   RETRY ADDRESS                               18040021
 0008DE 47F0 5B42      00B48         912          B     UNITCOM             BR TO PUT REC IN BUF IF POSSIBL      18060021
 0008E2 91FF 594F      00955         913 WRITPRNH TM    HDRSW,XXFF           WAS IDENT PRINTED                   18080021
 0008E6 47E0 58B8      008BE         914          BNO   WRITPRIN            YES BRANCH                           18100021
 0008EA 94F0 594F      00955         915          NI    HDRSW,XXF0           SET MIXED SWITCH                    18120021
 0008EE 9400 596D      00973         916 WPRINA   NI    PRINTSW,XX00                                             18140021
 0008F2 4133 0001      00001         917          LA    R3,DX1(R3)                                               18160021
 0008F6 0620                         918          BCTR  R2,R0               POINT TO CARR CONTROL POSITION       18180021
 0008F8 D200 596C 2000 00972 00000   919          MVC   WPRINHLD,DX0(R2)                                         18200021
 0008FE D200 2000 53A6 00000 003AC   920          MVC   DX0(LX1,R2),PRINTBUF                                     18220021
 000904 41E0 590A      00910         921 WPRINC   LA    R14,WPRIND                                               18240021
 000908 41C0 58FE      00904         922          LA    R12,WPRINC                                               18260021
 00090C 47F0 5B42      00B48         923          B     UNITCOM             BR TO PUT REC IN BUF IF POSSIBL      18280021
 000910 D200 53A6 52F9 003AC 002FF   924 WPRIND   MVC    PRINTBUF,BLANK                                          18300021
 000916 D200 2000 596C 00000 00972   925          MVC   DX0(LX1,R2),WPRINHLD                                     18320021
 00091C 91FF 52DE      002E4         926 EXITEJ   TM    EJECTSW,XXFF                                             18340021
 000920 4780 5B64      00B6A         927        BZ      EXITR               NO NEED TO GO TO WOUT                18360021
 000924 940F 52DE      002E4         928          NI    EJECTSW,XX0F                                             18380021
 000928 47F0 596E      00974         929        B       WOUT                MUST PAD RECORD WITH BLANKS          18400021
                                     930 *                                                                       18420021
 00092C 9120 519D      001A3         931 WRITPCH  TM    PHZSW,DECK                                               18440021
 000930 4710 593A      00940         932          BO    WPNCH               *                                    18460021
                                     933 *   DECK IS REQUESTED                                                   18480021
 000934 9110 519D      001A3         934 WRITPCHA TM    PHZSW,LINK                                               18500021
 000938 4710 5946      0094C         935          BO    WGO                 LOAD MODULE REQUESTED                18520021
 00093C 47F0 5B64      00B6A         936          B     EXITR               RETURN NOW TO CALLING PHASE          18540021
 000940 41E0 592E      00934         937 WPNCH    LA    R14,WRITPCHA        WILL FIT EXIT                        18560021
 000944 41C0 593A      00940         938          LA    R12,WPNCH    RESTART ADDRESS AFTER WRITING BUFFER        18580021
 000948 47F0 5B42      00B48         939          B     UNITCOM  ANALYSIS ROUTINE                                18600021
 00094C 5080 56BA      006C0         940 WGO      ST    R8,READSAV        PICK UP PIINTERS FOR SYSLIN FILE       18620021
 000950 4500 5476      0047C         941          BAL   R0,GOSYSGO          *                                    18640021
 000954 E8                           942          DC   X'E8'                INTERNAL CALL TO COS                 18660021
 000955 FF                           943 HDRSW    DC    X'FF'               USED IN PRINT ROUTINE                18680021
 000956 5880 56BA      006C0         944 WGO1     L     R8,READSAV                                               18700021
 00095A 9120 519D      001A3         945          TM    PHZSW,DECK                                               18720021
 00095E 4780 5960      00966         946          BZ    WGO1A    NO DECK DO NOT RESTORE LENGTH                   18740021
 000962 4133 0001      00001         947          LA    R3,DX1(R3)                                               18760021
 000966 41C0 5960      00966         948 WGO1A    LA    R12,WGO1A                                                18780021
 00096A 41E0 5B64      00B6A         949          LA    R14,EXITR   MOVE DONE                                    18800021
 00096E 47F0 5B42      00B48         950          B     UNITCOM             BR TO PUT REC IN BUF IF POSSIBL      18820021
 000972 00                           951 WPRINHLD DC    X'00'               SAVE AREA FOR 1ST CH OF PRINT LI     18840021
 000973 FF                           952 PRINTSW  DC    X'FF'               'FF' MEANS PRINTLINE                 18860021
 000974 96FF 596D      00973         953 WOUT     OI    PRINTSW,XXFF                                             18880021
1PH00     IKFCBL00                                                                                              PAGE   21
-  LOC  OBJECT CODE    ADDR1 ADDR2  STMT   SOURCE STATEMENT                                       ASM 0201 11.03 02/14/15
0000978 9180 519D      001A3         954          TM    PHZSW,LIST                                               18900021
 00097C 4780 5B64      00B6A         955          BZ    EXITR               RETURN NOW TO CALLING PHASE          18920021
 000980 4826 0004      00004         956          LH    R2,DX4(R6)                                               18940021
 000984 1B33                         957          SR    R3,R3                                                    18960021
 000986 4133 0079      00079         958 WOUTA    LA    R3,DX121(R3)                                             18980021
 00098A 1923                         959          CR    R2,R3                                                    19000021
 00098C 4720 5980      00986         960          BH    WOUTA               MUST INCREMENT R3                    19020021
 000990 4036 0004      00004         961          STH   R3,DX4(R6)                                               19040021
 000994 1B32                         962          SR    R3,R2                                                    19060021
 000996 4780 59B0      009B6         963          BZ    WOUT6               NO NEED TO PAD WITH BLANKS           19080021
 00099A 5A26 0000      00000         964          A     R2,DX0(R6)                                               19100021
 00099E 9240 2000      00000         965          MVI   DX0(R2),XX40                                             19120021
 0009A2 0630                         966          BCTR  R3,R0               ADJUST LENGTH FOR WOUTB              19140021
 0009A4 0630                         967          BCTR  R3,R0               *                                    19160021
 0009A6 1233                         968          LTR   R3,R3                                                    19180021
 0009A8 47C0 59B0      009B6         969          BC    R12,WOUT6           NO NEED TO PAD                       19200021
 0009AC 4230 59AB      009B1         970          STC   R3,WOUTB+NX1                                             19220021
 0009B0 D200 2001 2000 00001 00000   971 WOUTB    MVC   DX1(LX0,R2),DX0(R2)                                      19240021
 0009B6 91FF 52DE      002E4         972 WOUT6    TM    EJECTSW,XXFF                                             19260021
 0009BA 4740 59EC      009F2         973        BM      EJECTA              DON'T EJECT YET                      19280021
 0009BE FA30 53A7 53AB 003AD 003B1   974        AP      LINECNT,ONE                                              19300021
 0009C4 95F0 53A6      003AC         975          CLI   PRINTBUF,XC0                                             19320021
 0009C8 4780 59D4      009DA         976          BE    WOUT6A       SPACE=2                                     19340021
 0009CC 9560 53A6      003AC         977          CLI   PRINTBUF,XX60                                            19360021
 0009D0 4770 59DA      009E0         978          BNE   WOUT6B       NOT  SPACE=3                                19380021
 0009D4 FA30 53A7 53AB 003AD 003B1   979          AP    LINECNT,ONE                                              19400021
 0009DA FA30 53A7 53AB 003AD 003B1   980 WOUT6A   AP    LINECNT,ONE                                              19420021
 0009E0 F931 53A7 52F7 003AD 002FD   981 WOUT6B   CP    LINECNT,SIXTY                                            19440021
 0009E6 47B0 5B1C      00B22         982          BNL   EJECTR1             PREPARE TO EJECT               44678 19460021
 0009EA 9400 5B3D      00B43         983          NI    MAXLINES,XX00       LINECNT < MAXIMUM              44678 19480021
 0009EE 47F0 5B64      00B6A         984          B     EXITR               RETURN TO CALLING PHASE              19500021
                                     985 *                                                                       19520021
                                     986 *                                                                       19540021
                                     987 *                                                                       19560021
 0009F2 9400 52DE      002E4         988 EJECTA   NI    EJECTSW,XX00                                             19580021
 0009F6 9823 53FA      00400         989          LM    R2,R3,SAVEPHSE                                           19600021
 0009FA 9260 53A6      003AC         990          MVI   PRINTBUF,XX60                                            19620021
 0009FE 91FF 5B3F      00B45         991          TM    EJRETURN,XXFF       WPRINA CALLED FROM EJECT?            19640021
 000A02 4710 5A6E      00A74         992          BO    EJECTD              YES-THEN RETURN THERE                19660021
 000A06 47F0 58B8      008BE         993        B       WRITPRIN            CONTINUE WRITE PROCESSING            19680021
 000A0A 91FF 594F      00955         994 EJECTC   TM    HDRSW,XXFF           TEST IF IDENT                       19700021
 000A0E 4780 5A1E      00A24         995          BZ    EJECTB              BRANCH IF NO                         19720021
 000A12 9400 594F      00955         996          NI    HDRSW,XX00           ZERO SWITCH                         19740021
 000A16 92F0 53A6      003AC         997          MVI   PRINTBUF,XC0         SET DOUBLE SPACE                    19760021
 000A1A FA30 53A7 53AB 003AD 003B1   998          AP    LINECNT,ONE                                              19780021
 000A20 47F0 5A24      00A2A         999          B     EJECTCC             DON'T CLEAR LINECNT                  19800021
 000A24 FB33 53A7 53A7 003AD 003AD  1000 EJECTB  SP     LINECNT,LINECNT                                          19820021
 000A2A 9023 53FA      00400        1001 EJECTCC  STM   R2,R3,SAVEPHSE        STORE REG 2 + 3                    19840021
 000A2E 5820 52EA      002F0        1002          L     R2,OVERFLOD                                              19860021
 000A32 4832 0000      00000        1003          LH    R3,DX0(R2)                                               19880021
 000A36 D205 2000 52DF 00000 002E5  1004          MVC   DX0(LX6,R2),MASKPG                                       19900021
 000A3C DE05 2000 52F4 00000 002FA  1005          ED    DX0(LX6,R2),PAGE                                         19920021
 000A42 FA20 52F4 53AB 002FA 003B1  1006        AP      PAGE,ONE                                                 19940021
 000A48 4032 0000      00000        1007          STH   R3,DX0(R2)                                               19960021
 000A4C 4122 0002      00002        1008          LA    R2,DX2(R2)                                               19980021
1PH00     IKFCBL00                                                                                              PAGE   22
-  LOC  OBJECT CODE    ADDR1 ADDR2  STMT   SOURCE STATEMENT                                       ASM 0201 11.03 02/14/15
0000A50 96FF 52DE      002E4        1009          OI    EJECTSW,XXFF                                             20000021
 000A54 47F0 58E8      008EE        1010        B       WPRINA              CONTINUE WRITE PROCESSING            20020021
                                    1011 *                                                                       20040021
                                    1012 *                                                                       20060021
                                    1013 *                                                                       20080021
 000A58 9508 5463      00469        1014 EJECT    CLI   LINKCNT+NX1,LSWPH2  ARE WE PAST PHASE1B                  20100021
 000A5C 4720 5A72      00A78        1015          BH    EJECTE      YES NO NEED TO GO THRU THIS CODE             20120021
 000A60 95F1 53A6      003AC        1016          CLI   PRINTBUF,XXF1       EJECT IMPENDING?                     20140021
 000A64 4770 5A72      00A78        1017          BNE   EJECTE              NO-THEN CONTINUE                     20160021
 000A68 47F0 5B24      00B2A        1018          B     EJECTG              TEST FOR EJECT AT END-OF-PAGE  44678 20180021
 000A6C 96FF 5B3F      00B45        1019 EJECTF   OI    EJRETURN,XXFF       SIGNAL-RETURN CONTR-L-EJECTD   44678 20200021
 000A70 47F0 5A24      00A2A        1020          B     EJECTCC             BRANCH TO WRITE HEADING(CC=F1)       20220021
 000A74 9400 5B3F      00B45        1021 EJECTD   NI    EJRETURN,XX00                                            20240021
 000A78 9500 8001      00001        1022 EJECTE   CLI   DX1(R8),EJCTQ       EJECT REQUEST FROM X'86'?            20260021
 000A7C 4780 5B0C      00B12        1023          BE    EJECTR              YES                                  20280021
 000A80 9501 8001      00001        1024          CLI   DX1(R8),SKIP1Q       WANT TO SKIP ONE LINE               20300021
 000A84 4780 5A96      00A9C        1025          BE    SKP1                YES                                  20320021
 000A88 9502 8001      00001        1026          CLI   DX1(R8),SKIP2Q       NO, WANT TO SKIP TWO LINES          20340021
 000A8C 4780 5A9E      00AA4        1027          BE    SKP2                YES                                  20360021
 000A90 9503 8001      00001        1028          CLI   DX1(R8),SKIP3Q       NO, WANT TO SKIP THREE LINES        20380021
 000A94 4780 5AAC      00AB2        1029          BE    SKP3                YES                                  20400021
 000A98 47F0 5B0C      00B12        1030          B     EJECTR              INVALID REQUEST BUT AT LEAST EJE     20420021
 000A9C 9240 5B3E      00B44        1031 SKP1     MVI   SKIPCC,SKPCC1Q      PUT A BLANK IN CARRIAGE CONTROL      20440021
 000AA0 47F0 5ABA      00AC0        1032          B     SKP5                CONTINUE                             20460021
 000AA4 92F0 5B3E      00B44        1033 SKP2     MVI   SKIPCC,SKPCC2Q      PUT A ZERO  IN CARRIAGE CONTROL      20480021
 000AA8 FA30 53A7 53AB 003AD 003B1  1034 SKP4     AP    LINECNT,ONE         RECONCILE LINECOUNT                  20500021
 000AAE 47F0 5ABA      00AC0        1035          B     SKP5                CONTINE                              20520021
 000AB2 9260 5B3E      00B44        1036 SKP3     MVI   SKIPCC,SKPCC3Q      PUT A DASH  IN CARRIAGE CONTROL      20540021
 000AB6 FA30 53A7 53AB 003AD 003B1  1037          AP    LINECNT,ONE         RECONCILE LINECNT                    20560021
 000ABC 47F0 5AA2      00AA8        1038          B     SKP4                GO TO ADD ONE MORE TO LINECNT        20580021
 000AC0 FA30 53A7 53AB 003AD 003B1  1039 SKP5     AP    LINECNT,ONE                                              20600021
 000AC6 4826 0004      00004        1040 SKP51    LH    R2,DX4(R6)          GET BYTE COUNT FROM BCB         3817 20620021
 000ACA 4122 0079      00079        1041          LA    R2,DX121(R2)                                             20640021
 000ACE 4836 0006      00006        1042          LH    R3,DX6(R6)           R3 = LENGTH OF BUFFER               20660021
 000AD2 1923                        1043          CR    R2,R3                                                    20680021
 000AD4 4720 5B04      00B0A        1044          BH    SKP6                NOT ENOUGH ROOM IN BUFF WRITE FI     20700021
 000AD8 5836 0000      00000        1045          L     R3,DX0(R6)           R3 = ADDRESS OF BUFFER              20720021
 000ADC 4A36 0004      00004        1046          AH    R3,DX4(R6)           ADD BYTES USED SO FAR               20740021
 000AE0 D200 3000 5B3E 00000 00B44  1047          MVC   DX0(LX1,R3),SKIPCC    NEW CARRIAGE CONTROL IN IST POSI   20760021
 000AE6 9240 3001      00001        1048          MVI   DX1(R3),XX40         PROPAGATE A BLANK                   20780021
 000AEA D276 3002 3001 00002 00001  1049          MVC   DX2(LX119,R3),DX1(R3)                                    20800021
 000AF0 4026 0004      00004        1050          STH   R2,DX4(R6)                                               20820021
 000AF4 91FF 52DE      002E4        1051          TM    EJECTSW,XXFF         WERE WE ALREADY SUPPOSED TO EJEC    20840021
 000AF8 4740 59EC      009F2        1052          BM    EJECTA              YES GO THERE                         20860021
 000AFC F931 53A7 52F7 003AD 002FD  1053          CP    LINECNT,SIXTY       WILL WE HAVE TO EJECT NOW            20880021
 000B02 47B0 5B0C      00B12        1054          BNL   EJECTR              YES GO THERE                         20900021
 000B06 47F0 5B64      00B6A        1055          B     EXITR               ELSE RETURN TO CALLING PHASE         20920021
 000B0A 41C0 5AC0      00AC6        1056 SKP6     LA    R12,SKP51           SAVE RETURN ADDRESS             3817 20940021
 000B0E 47F0 56BE      006C4        1057          B     WCOMM               CHECK / WRITE / RETURN               20960021
 000B12 FB33 53A7 53A7 003AD 003AD  1058 EJECTR   SP    LINECNT,LINECNT     CLEAR LINECNT                        20980021
 000B18 D200 53A6 53AC 003AC 003B2  1059          MVC   PRINTBUF(LX1),SKIP   SET UP EJECT CHARACTER              21000021
 000B1E 47F0 5B64      00B6A        1060          B     EXITR               RETURN TO CALLING PHASE              21020021
 000B22 96FF 5B3D      00B43        1061 EJECTR1  OI    MAXLINES,XXFF       INDICATE FORCED EJECT (EOP)    44678 21040021
 000B26 47F0 5B0C      00B12        1062          B     EJECTR              PREPARE TO EJECT               44678 21060021
 000B2A 91FF 5B3D      00B43        1063 EJECTG   TM    MAXLINES,XXFF       END-OF-PAGE EJECT?             44678 21080021
1PH00     IKFCBL00                                                                                              PAGE   23
-  LOC  OBJECT CODE    ADDR1 ADDR2  STMT   SOURCE STATEMENT                                       ASM 0201 11.03 02/14/15
0000B2E 47E0 5A66      00A6C        1064          BNO   EJECTF              NO                             44678 21100021
 000B32 9400 5B3D      00B43        1065          NI    MAXLINES,XX00       TURN OFF SWITCH                44678 21120021
 000B36 9500 8001      00001        1066          CLI   DX1(R8),EJCTQ       'EJECT' AT END-OF-PAGE?        44678 21140021
 000B3A 4770 5A66      00A6C        1067          BNE   EJECTF              NO-CONTINUE                    44678 21160021
 000B3E 47F0 5B0C      00B12        1068          B     EJECTR              BYPASS FORCED EJECT            44678 21180021
 000B42 00                          1069 COPYCHK  DC    X'00'               X'00' MEANS CHK ISSUED FOR COPY      21200021
                             00040  1070 SKPCC1Q  EQU   C' '                                                     21220021
                             000F0  1071 SKPCC2Q  EQU   C'0'                                                     21240021
                             00060  1072 SKPCC3Q  EQU   C'-'                                                     21260021
                             00000  1073 EJCTQ    EQU   X'00'                                                    21280021
                             00001  1074 SKIP1Q   EQU   X'01'                                                    21300021
                             00002  1075 SKIP2Q   EQU   X'02'                                                    21320021
                             00003  1076 SKIP3Q   EQU   X'03'                                                    21340021
 000B43 00                          1077 MAXLINES DC    X'00'               MAX LINES/PAGE CONDITION SW    44678 21360021
 000B44                             1078 SKIPCC   DS    C                   CARRIAGE CONTROL FOR SKIP            21380021
 000B45 00                          1079 EJRETURN DC    X'00'               RETURN CONTROL TO EJECTD IF ON       21400021
                                    1080 *                                                                       21420021
                                    1081 *                                                                       21440021
                                    1082 *                                                                       21460021
                                    1083 *                                                                       21480021
                                    1084 *                                                                       21500021
                                    1085 *                                                                       21520021
                                    1086 *                                                                       21540021
                                    1087 *                                                                       21560021
                                    1088 *                                                                       21580021
                                    1089 *                                                                       21600021
                                    1090 *                                                                       21620021
                                    1091 *                                                                       21640021
                                    1092 *                                                                       21660021
                                    1093 *                                                                       21680021
                                    1094 *                                                                       21700021
                                    1095 *                                                                       21720021
                                    1096 *                                                                       21740021
                                    1097 *                                                                       21760021
                                    1098 *                                                                       21780021
 000B46 0014                        1099 SYSN     DC    H'20'         SYSIN FILE NUMBER                          21800021
                                    1100 *                                                                       21820021
 000B48 4846 0004      00004        1101 UNITCOM  LH    R4,DX4(R6)                                               21840021
 000B4C 1A43                        1102          AR    R4,R3                 TESTS TO SEE IF A FIELD            21860021
 000B4E 4946 0006      00006        1103          CH    R4,DX6(R6)             WILL  FIT AND IF IT  DOES         21880021
 000B52 4720 56BE      006C4        1104          BC    R2,WCOMM  WILL NOT FIT    IT MOVES AND UPDATES           21900021
 000B56 0630                        1105          BCTR  R3,R0                 BUFFER CONTROL BLOCK               21920021
 000B58 5816 0000      00000        1106          L     R1,DX0(R6) WHERE TO    IF NOT  IT EXITS  TO  REG 15      21940021
 000B5C 4A16 0004      00004        1107          AH    R1,DX4(R6)             IF YES  IT EXITS  TO  REG 14      21960021
 000B60 4046 0004      00004        1108          STH   R4,DX4(R6) UPDATE LENGTH                                 21980021
 000B64 4430 5764      0076A        1109          EX    R3,MOVE                                                  22000021
 000B68 07FE                        1110          BR    R14                 CONTINUE WRITE PROCESSING            22020021
                                    1111 *                                                                       22040021
                                    1112 *                                                                       22060021
                                    1113 *                                                                       22080021
                                    1114 *                                                                       22100021
                                    1115 *                                                                       22120021
                                    1116 *                                                                       22140021
                                    1117 *                                                                       22160021
                                    1118 *                                                                       22180021
1PH00     IKFCBL00                                                                                              PAGE   24
-  LOC  OBJECT CODE    ADDR1 ADDR2  STMT   SOURCE STATEMENT                                       ASM 0201 11.03 02/14/15
0                                   1119 *                                                                       22200021
                                    1120 *                                                                       22220021
                                    1121 *                                                                       22240021
                                    1122 *                                                                       22260021
                                    1123 *                                                                       22280021
                                    1124 *                                                                       22300021
 000B6A 9180 519D      001A3        1125 EXITR    TM    PHZSW,LIST                                               22320021
 000B6E 4780 5812      00818        1126          BZ    EXIT                RETURN TO CALLING PHASE              22340021
 000B72 F930 53A7 53AD 003AD 003B3  1127          CP    LINECNT,PZERO                                            22360021
 000B78 47F0 581A      00820        1128          B     EXIT1                         PAGE                       22380021
                                    1129 *                                                                       22400021
                                    1130 *                                                                       22420021
                                    1131 *                                                                       22440021
                                    1132 *                                                                       22460021
                                    1133 *                                                                       22480021
                                    1134 *                                                                       22500021
                                    1135 *                                                                       22520021
 000B7C                             1136          DS    0F                                                       22540021
 000B7C 00000001                    1137 SEGSAVE  DC    F'1'                REL. LOC OF SEG. RECORD              22560021
 000B80 00001000                    1138 ADS1     DC    A(DS1)              @ SYSUT1 DCB                         22580021
 000B84 00002F24                    1139 APCBSPT  DC    A(PCBSPT)           @ COBOL SPACE PARAMETERS             22600021
 000B88 000013C0                    1140 ADECB1   DC    A(DECBDS1)          @ SYSUT1 DECB                        22620021
 000B8C 0000                        1141 SEGRECL  DC    H'0'                RECORD LENGTH OF PUT FOR SEG         22640021
 000B8E 0004                        1142 SUT1     DC    H'4'                Y PARAMETER VALUE FOR SYSUT1         22660021
 000B90 00                          1143 SEGNTSW  DC    X'00'               3 WAY SEGMENTATION SWITCH            22680021
 000B91 00                          1144 STRUNCSW DC    X'00'               INDICATES TRUNCATED WRITE IN SEG     22700021
 000B92 00                          1145 PTYSAVE  DC    X'0'                SAVE PLACE FOR PRIORITY NUMBER OF    22720021
                                    1146 *                                  THE SEGMENT JUST NOTED               22740021
                             000FF  1147 NOTSEG   EQU   X'FF'                                                    22760021
 000B93 00                          1148 CHECKSW  DC    X'0'                 TELLS SEGNOTE2 IF A SWRITE WAS DONE 22780021
                             000FF  1149 ONSWITCH EQU   X'FF'                                                    22800021
                             00000  1150 OFFSWTCH EQU   X'00'                                                    22820021
                                    1151 * ENTER SEGNOTE.PH5 HAS ENCOUNTERED A SEGMENT CONTROL BREAK.LAST        22840021
                                    1152 * RECORD OF PREVIOUS SEGMENT HAS BEEN PUT.                              22860021
 000B94                             1153 SEGNOTE DS     0H                                                       22880021
 000B94 5816 0000      00000        1154          L     R1,DX0(R6)      A(BUFFER)                                22900021
 000B98 4A16 0004      00004        1155          AH    R1,DX4(R6)      LENGTH                                   22920021
 000B9C 92FF 1000      00000        1156          MVI   DX0(R1),XXFF    DELIMITER                                22940021
 000BA0 4846 0004      00004        1157          LH    R4,DX4(R6)                                               22960021
 000BA4 4144 0001      00001        1158          LA    R4,DX1(R4)      NEW LENGTH                               22980021
 000BA8 4040 5B86      00B8C        1159          STH   R4,SEGRECL     SAVE FOR TRUNCATED WRITE                  23000021
 000BAC 91FF 529F      002A5        1160          TM    SPECIAL,XXFF                                             23020021
 000BB0 4710 5BB6      00BBC        1161          BO    SFIRSTW             FIRST I/O THIS PHASE                 23040021
 000BB4 45B0 56D8      006DE        1162          BAL   R11,CHECKER    CHECK PREVIOUS PHYSICAL WRITE             23060021
 000BB8 47F0 5BBA      00BC0        1163          B     SEGNOTE0            BRANCH AROUND NEXT INSTRUCTION       23080021
 000BBC                             1164 SFIRSTW  DS    0H                                                       23100021
 000BBC 45B0 572E      00734        1165          BAL   R11,CHECKERB        SWITCH BCB POINTERS                  23120021
 000BC0                             1166 SEGNOTE0 DS    0H                                                       23140021
 000BC0 96FF 5B8B      00B91        1167          OI    STRUNCSW,XXFF       INDICATES TRUNCATED WRITE TO IOCO    23160021
 000BC4 5810 5B82      00B88        1168          L     R1,ADECB1                                                23180021
 000BC8 D201 1006 5B86 00006 00B8C  1169          MVC   DX6(LX2,R1),SEGRECL                                      23200021
 000BCE 5810 5B7A      00B80        1170          L     R1,ADS1                                                  23220021
 000BD2 D201 1052 5B86 00052 00B8C  1171          MVC   DX82(LX2,R1),SEGRECL                                     23240021
 000BD8 45B0 57D6      007DC        1172          BAL   R11,WRITER     WRITE LAST BLOCK OF PREVIOUS SEGMENT      23260021
 000BDC 9400 5B8B      00B91        1173          NI    STRUNCSW,XX00       DCBRECL WILL BE RESTORED             23280021
1PH00     IKFCBL00                                                                                              PAGE   25
-  LOC  OBJECT CODE    ADDR1 ADDR2  STMT   SOURCE STATEMENT                                       ASM 0201 11.03 02/14/15
0000BE0 92FF 5B8D      00B93        1174          MVI   CHECKSW,ONSWITCH     SET IT ON                           23300021
 000BE4 45B0 5744      0074A        1175          BAL   R11,CHECKERC        UPDATE BCB'S                         23320021
 000BE8 92F0 5B8A      00B90        1176          MVI   SEGNTSW,XXF0    SEGNOTE1 WILL BE ENTERED FROM CHECKER    23340021
 000BEC 9200 5B8D      00B93        1177          MVI   CHECKSW,OFFSWTCH     SET IT OFF                          23360021
 000BF0 91FF 8001      00001        1178          TM    DX1(R8),ONSWITCH      LAST C1 CALL FROM PHASE5?          23380021
 000BF4 47E0 581A      00820        1179          BNO   EXIT1                NO - RETURN TO PHASE5               23400021
 000BF8 D500 51BD 5B8C 001C3 00B92  1180          CLC   PTYNO,PTYSAVE                                            23420021
 000BFE 4780 5C00      00C06        1181          BE    SEGNOT00            LEAVE SEGNTSW ALONE                  23440021
 000C02 92FF 5B8A      00B90        1182          MVI   SEGNTSW,ONSWITCH                                         23460021
 000C06 45B0 56D8      006DE        1183 SEGNOT00 BAL   R11,CHECKER         OWE A CHECK OR A CHECK/NOTE          23480021
 000C0A 9200 5B8A      00B90        1184          MVI   SEGNTSW,OFFSWTCH    ALL THRU WITH THIS SWITCH            23500021
 000C0E D21C 5F32 5F33 00F38 00F39  1185          MVC   PURGER,PURGER+NX1    DONT PURGE UT1                      23520021
 000C14 47F0 581A      00820        1186          B     EXIT1               LAST RETURN TO PHASE5                23540021
                                    1187 * SEGNOTE1 ENTERED AFTER CHECK  OF LAST WRITE PREVIOUS SEGMENT          23560021
 000C18                             1188 SEGNOTE1 DS    0H                                                       23580021
 000C18 96FF 5B8A      00B90        1189          OI    SEGNTSW,XXFF                                             23600021
 000C1C 07FB                        1190          BR    R11                 RETURN TO NEXT SEQUENTIAL INSTR      23620021
                                    1191 * SEGNOTE2 ENTERED AFTER CHECK  OF FIRST WRITE OF SEGMENT               23640021
 000C1E                             1192 SEGNOTE2 DS    0H                                                       23660021
 000C1E 95FF 5B8D      00B93        1193          CLI   CHECKSW,ONSWITCH     DO WE HAVE TO CHECK PRIOR TO NOTE?  23680021
 000C22 4770 5C36      00C3C        1194          BNE   SEGNT2A              NO - M THAT IT JUST NOTE            23700021
 000C26 45F0 54EE      004F4        1195          BAL   R15,GETDECBA         START SETUP FOR CHECK MACRO         23720021
 000C2A 5010 56BA      006C0        1196          ST    R1,READSAV                                               23740021
                                    1197          CHECK (1)                                                      23760021
 000C2E 58E0 1008      00008        1198+         L     14,8(0,1)                         PICK UP DCB ADDRESS    00100000
 000C32 58F0 E034      00034        1199+         L     15,52(0,14)                       LOAD CHECK ROUT. ADDR. 00120000
 000C36 05EF                        1200+         BALR  14,15                             LINK TO CHECK ROUTINE  00140000
 000C38 5810 56BA      006C0        1201          L     R1,READSAV           END SETUP FOR CHECK MACRO           23780021
 000C3C 5010 56BA      006C0        1202 SEGNT2A  ST    R1,READSAV           START SETUP FOR NOTE MACRO          23800021
                                    1203 *                                   KEEP IT NEAT ETC                    23820021
 000C40 5810 5B7A      00B80        1204          L     R1,ADS1                                                  23840021
                                    1205          NOTE  (1)                                                      23860021
 000C44 58F0 1054      00054        1206+         L     15,84(0,1)                        LOAD NOTE  RTN ADDRESS 00100000
 000C48 05EF                        1207+         BALR  14,15                             LINK TO NOTE  ROUTINE  00120000
 000C4A 5010 5B76      00B7C        1208          ST    R1,SEGSAVE    TO BE RETURNED TO PH5                      23880021
 000C4E 5810 56BA      006C0        1209          L     R1,READSAV                                               23900021
 000C52 D200 5B8C 51BD 00B92 001C3  1210          MVC   PTYSAVE,PTYNO       SAVE PRIORITY NO                     23920021
 000C58 9400 5B8A      00B90        1211          NI    SEGNTSW,XX00                                             23940021
 000C5C 07FB                        1212          BR    R11       RETURN TO WRITE NEXT BLOCK                     23960021
                                    1213 * ENTER SEGPNT . THERE HAS BEEN A PREVIOUS READ ON SYSUT1               23980021
 000C5E                             1214 SEGPNT   DS    0H                                                       24000021
 000C5E 5010 5B76      00B7C        1215          ST    R1,SEGSAVE                                               24020021
 000C62 5810 5B7A      00B80        1216          L     R1,ADS1             SET UP FOR SYSUT1 POINT              24040021
                                    1217          POINT (1),SEGSAVE         POINT TO FIRST SEGMENT               24060021
 000C66 4100 5B76      00B7C        1218+         LA    0,SEGSAVE                         LOAD PARAMETER REG 0   00280000
 000C6A 58F0 1054      00054        1219+         L     15,84(0,1)                        LOAD POINT RTN ADDRESS 00120000
 000C6E 45EF 0004      00004        1220+         BAL   14,4(15,0)                        LINK TO POINT ROUTINE  00140000
 000C72 45B0 57CA      007D0        1221          BAL   R11,READER          READ                                 24080021
 000C76 45B0 56D8      006DE        1222          BAL   R11,CHECKER         CHECK SEGMENT AND TURN OFF SPECI     24100021
 000C7A 47F0 5812      00818        1223          B     EXIT                RETURN TO CALLING PHASE              24120021
                                    1224 *                                                                       24140021
 000C7E 0011                        1225 UTILITY  DC    H'17'               HILIMIT Y VALUE FOR UTILITY FILE     24160021
                                    1226 *                                  S                                    24180021
                                    1227 *                                                                       24200021
                                    1228 *THIS ROUTINE  CLOSES OUT PUT FILES  AND CHECKS PUTS                    24220021
1PH00     IKFCBL00                                                                                              PAGE   26
-  LOC  OBJECT CODE    ADDR1 ADDR2  STMT   SOURCE STATEMENT                                       ASM 0201 11.03 02/14/15
0                                   1229 *TRUNCATION WILL OCCUR FOR  UNIT RECORD TYPE OUTPUT FILES  TO THE       24240021
                                    1230 *CURRENT LENGTH (SEE WRITER)                                            24260021
                             00C80  1231 CLOSER   EQU   *                                                        24280021
 000C80 91FF 8000      00000        1232          TM    DX0(R8),XXFF    TEST IF COMMON ROUTINE                   24300021
 000C84 4710 5D0A      00D10        1233          BO    COMRTN        BRANCH IF YES                              24320021
 000C88 D201 5CFE 6004 00D04 00004  1234          MVC   CLOSEH,DX4(R6)                                           24340021
 000C8E 49A0 5C78      00C7E        1235          CH    R10,UTILITY                                              24360021
 000C92 4720 5C9C      00CA2        1236          BH    CLOSERB        NOT A UTILITY                             24380021
 000C96 58E6 0000      00000        1237          L     R14,DX0(R6)                                              24400021
 000C9A 4AE6 0004      00004        1238          AH    R14,DX4(R6)                                              24420021
 000C9E 92FF E000      00000        1239          MVI   DX0(R14),XXFF                                            24440021
 000CA2 91FF 529F      002A5        1240 CLOSERB  TM    SPECIAL,XXFF                                             24460021
 000CA6 4710 5CF6      00CFC        1241          BO    CLOSERAA            FIRST I/O THIS PHASE                 24480021
 000CAA 91FF 529E      002A4        1242          TM    SINGBUF,XXFF                                             24500021
 000CAE 4710 5CB0      00CB6        1243          BO    CLOSERA             SINGLE BUFFER                        24520021
 000CB2 45B0 56D8      006DE        1244          BAL   R11,CHECKER         MUST ISSUE CHECK                     24540021
 000CB6 D501 5CFE 5256 00D04 0025C  1245 CLOSERA  CLC   CLOSEH,ZEROES                                            24560021
                                    1246 *    IF FILE IS F2, BETWEEN PHASES 5 + 6, WRITE FF                      24580021
                                    1247 *       IF EMPTY BUFFER.                                                24600021
 000CBC 4770 5CD2      00CD8        1248        BNE CLOSEZ                  LENGTH TRUNCATED WRITE NOT ZERO      24620021
 000CC0 9502 5463      00469        1249          CLI   LINKCNT+NX1,LSWPH01 PHASE 01                             24640021
 000CC4 4780 5CD2      00CD8        1250          BE    CLOSEZ              YES - LAST WRITE UTILITY             24660021
 000CC8 9516 5463      00469        1251          CLI   LINKCNT+NX1,LSWPH7                                       24680021
 000CCC 4770 5CEA      00CF0        1252        BNE   CLOSERX               NOT LAST PHASE                       24700021
 000CD0 95F2 5F2C      00F32        1253          CLI   PURGEB,XXF2                                              24720021
 000CD4 4770 5CEA      00CF0        1254        BNE   CLOSERX               NOT FIRST I/O BUF2 THIS PHASE        24740021
                             00CD8  1255 CLOSEZ EQU   *                                                          24760021
 000CD8 49A0 5C78      00C7E        1256          CH    R10,UTILITY                                              24780021
 000CDC 4740 5CDE      00CE4        1257          BL    CLOSERD             UTILITY FILE                         24800021
 000CE0 96FF 5D00      00D06        1258          OI    CLOSE,XXFF                                               24820021
 000CE4 45B0 57D6      007DC        1259 CLOSERD  BAL   R11,WRITER          WRITE                                24840021
 000CE8 45B0 56D8      006DE        1260          BAL   R11,CHECKER         THEN CHECK                           24860021
 000CEC 5840 5572      00578        1261          L     PR4,CTRMNT                                               24880021
 000CF0 95CC 8001      00001        1262 CLOSERX  CLI   DX1(R8),EXTCALL                                          24900021
 000CF4 4780 581A      00820        1263          BE    EXIT1               CALLED FROM ANOTHER PHASE            24920021
 000CF8 47F8 0002      00002        1264          BC    UNCOND,DX2(R8)       INTERNAL CALL DON'T RESTORE REG     24940021
 000CFC 45B0 572E      00734        1265 CLOSERAA BAL   R11,CHECKERB        SWITCH BCB POINTERS                  24960021
 000D00 47F0 5CB0      00CB6        1266          B     CLOSERA             CONTINUE CLOSE PROCESSING            24980021
                                    1267 *                                                                       25000021
 000D04                             1268 CLOSEH   DS    H                   LENGTH OF TRUNCATED WRITE            25020021
 000D06 00                          1269 CLOSE    DC    X'00'               'FF' MEANS LAST WRITE ON UTILITY     25040021
                                    1270 *                                                                       25060021
 000D08                             1271 CLOSET   DS    0H                                                       25080021
 000D08 5840 5572      00578        1272          L     PR4,CTRMNT                                               25100021
 000D0C 47F0 4208      016E0        1273          B     CLOSOK              CONTINUE TCLOSE PROCESSING           25120021
                                    1274 *                                                                       25140021
 000D10                             1275 COMRTN   DS    0H                                                       25160021
                                    1276 *              THIS ROUTINE IS TO BE USED FOR ASYNCHRONOUS PROCESSING   25180021
                                    1277 *              ONLY    CODING HAS BEEN REMOVED 29 JULY 1968             25200021
 000D10 47F0 581A      00820        1278          B     EXIT1               RETURN TO CALLING PHASE              25220021
                                    1279 SYAA     SYNADAF ACSMETH=BPAM      I/O ERROR EXIT FOR SYSLIB            25240021
 000D14 41F0 F000      00000        1280+SYAA     LA    15,0(0,15)              ZERO HIGH ORDER BYTE       15138 31200016
 000D18                             1281+         CNOP  0,4                                                15138 32000016
 000D18 56F0 5D1A      00D20        1282+         O     15,*+8         SET ACCESS METHOD IN REG. 15              33000013
 000D1C 47F0 5D1E      00D24        1283+         BC    15,*+8         BRANCH AROUND LIST                        34000013
1PH00     IKFCBL00                                                                                              PAGE   27
-  LOC  OBJECT CODE    ADDR1 ADDR2  STMT   SOURCE STATEMENT                                       ASM 0201 11.03 02/14/15
0000D20 01                          1284+         DC    AL1(1)         ACCESS METHOD CODE                        35000013
 000D21 000000                      1285+         DC    AL3(0)                                                   36000013
 000D24 0A44                        1286+         SVC   68             ISSUE SVC                                 51000013
 000D26 47F0 5D38      00D3E        1287          BC    UNCOND,SYAC         *                                    25260021
                                    1288 SYAB     SYNADAF ACSMETH=BSAM      I/O ERROR EXIT FOR ALL OTHER FILES   25280021
 000D2A 41F0 F000      00000        1289+SYAB     LA    15,0(0,15)              ZERO HIGH ORDER BYTE       15138 31200016
 000D2E 0700                        1290+         CNOP  0,4                                                15138 32000016
 000D30 56F0 5D32      00D38        1291+         O     15,*+8         SET ACCESS METHOD IN REG. 15              33000013
 000D34 47F0 5D36      00D3C        1292+         BC    15,*+8         BRANCH AROUND LIST                        34000013
 000D38 02                          1293+         DC    AL1(2)         ACCESS METHOD CODE                        35000013
 000D39 000000                      1294+         DC    AL3(0)                                                   36000013
 000D3C 0A44                        1295+         SVC   68             ISSUE SVC                                 51000013
 000D3E 4120 5D6A      00D70        1296 SYAC     LA    R2,SYNMSG                                                25300021
 000D42 D24C 200E 1032 0000E 00032  1297          MVC   DX14(LX77,R2),DX50(R1) MOVE MESSAGE TO WORK AREA         25320021
                                    1298          SYNADRLS                                                       25340021
 000D48 41F0 F000      00000        1299+         LA    15,0(0,15)               ZERO HIGH ORDER BYTE            27000013
 000D4C                             1300+         CNOP  0,4                                                      36000013
 000D4C 56F0 5D4E      00D54        1301+         O     15,*+8                  SET RELEASE CODE                 45000013
 000D50 47F0 5D52      00D58        1302+         B     *+8                      BRANCH AROUND CODE              54000019
 000D54 FF000000                    1303+         DC    X'FF000000'              RELEASE CODE                    63000013
 000D58 0A44                        1304+         SVC   68             ISSUE SVC                                 72000013
                                    1305          WTO   MF=(E,(2))                                               25360021
 000D5A 1812                        1306+         LR    1,(2)                             LOAD PARAMETER REG 1   00160000
 000D5C 0A23                        1307+         SVC   35                                ISSUE SVC              00750021
 000D5E 5840 5572      00578        1308          L     PR4,CTRMNT                                               25380021
 000D62 96FF 436B      01843        1309          OI    SKPRSW,XXFF          SET SWITHC TO SKIP PRINTER          25400021
 000D66 D702 4368 4368 01840 01840  1310          XC    FLSHBUF,FLSHBUF                                          25420021
 000D6C 47F0 4000      014D8        1311          BC    UNCOND,TRMNATE      ABNORMAL TERMINATION OF JOB          25440021
 000D70 005B                        1312 SYNMSG   DC    H'91'               MESSAGE LENGTH                       25460021
 000D72 8000                        1313          DC    X'8000'             *                                    25480021
 000D74 C9D2C6F0F0F0F3C9            1314          DC    CL87'IKF0003I-D'                                         25500021
 000D7C 60C4404040404040
 000D84 4040404040404040
 000D8C 4040404040404040
 000D94 4040404040404040
 000D9C 4040404040404040
 000DA4 4040404040404040
 000DAC 4040404040404040
 000DB4 4040404040404040
 000DBC 4040404040404040
 000DC4 40404040404040
 000DCB 04004020                    1315          DC    X'04004020'         *                                    25520021
                                    1316 *                                                                       25540021
 000DCF 00
 000DD0 5880 5FCA      00FD0        1317 LINKBAZ  L     R8,SPIEAD                                                25560021
 000DD4 5828 0000      00000        1318          L     R2,DX0(R8)                                               25580021
 000DD8 0420                        1319          SPM   R2                                                       25600021
                                    1320          SPIE  MF=(E,(8))                                               25620021
 000DDA 1818                        1321+         LR    1,(8)                             LOAD PARAMETER REG 1   00160000
 000DDC 0A0E                        1322+         SVC   14                                ISSUE SPIE SVC         02840000
 000DDE D200 5DFD 519C 00E03 001A2  1323          MVC   LAST+NX3(LX1),RETCDE                                     25640021
 000DE4 91FF 5465      0046B        1324          TM    RETOK,XXFF                                               25660021
 000DE8 4780 5DEE      00DF4        1325           BZ    LASTB              PREPARE TO RETURN TO CALLING PH      25680021
 000DEC 58D0 53B6      003BC        1326          L     R13,MYSAVE+NX4                                           25700021
 000DF0 47F0 5DF6      00DFC        1327           B     LASTC              PREPARE TO RETURN TO SUPERVISOR      25720021
1PH00     IKFCBL00                                                                                              PAGE   28
-  LOC  OBJECT CODE    ADDR1 ADDR2  STMT   SOURCE STATEMENT                                       ASM 0201 11.03 02/14/15
0000DF4 41D0 53FA      00400        1328 LASTB    LA    R13,SAVEPHSE                                             25740021
 000DF8 960F 5465      0046B        1329          OI    RETOK,XX0F                                               25760021
 000DFC 98EC D00C      0000C        1330 LASTC    LM    R14,R12,DX12(R13)                                        25780021
 000E00 41F0 0000      00000        1331 LAST     LA    R15,DX0                                                  25800021
 000E04 07FE                        1332          BR    R14                 BRANCH TO SUPVR OR CALLING PH        25820021
 000E06 9502 5463      00469        1333 EOJ      CLI   LINKCNT+NX1,LSWPH01                                      25840021
 000E0A 4770 5E24      00E2A        1334          BNE   PH6OR7             NO, IT MUST BE 6 OR 7                 25860021
 000E0E 9201 5E41      00E47        1335          MVI   PH01SW,XX01                                              25880021
 000E12 9210 519C      001A2        1336          MVI   RETCDE,XX10         SET RETURN CODE TO TERMINATE         25900021
 000E16 9180 519D      001A3        1337          TM    PHZSW,LIST    WAS ERROR ON PRINTER                       25920021
 000E1A 4710 5E1E      00E24        1338          BO    PROK               NO, BRANCH                            25940021
 000E1E D702 5E3E 5E3E 00E44 00E44  1339          XC    ENDBUF,ENDBUF      DO NOT FLUSH PRINT BUFFER             25960021
 000E24 D202 5F32 5E3E 00F38 00E44  1340 PROK     MVC   PURGER(LX3),ENDBUF  MOVE CODE TO FLUSH OUT PRINT BUFF    25980021
 000E2A 9514 5463      00469        1341 PH6OR7   CLI   LINKCNT+NX1,LSWPH6A                                      26000021
 000E2E 4770 5E32      00E38        1342          BNE   SETPH7SW            NOT XREF                             26020021
 000E32 D21C 5F32 5F33 00F38 00F39  1343          MVC   PURGER,PURGER+NX1                                        26040021
 000E38 9216 5463      00469        1344 SETPH7SW MVI   LINKCNT+NX1,LSWPH7                                       26060021
 000E3C 47F0 5F50      00F56        1345          B     LINKB               PREPARE TO END COMPILATION           26080021
 000E40 000018B4                    1346 RELSPACA DC    A(RELSPACE)         TAMER ADDRESS CONSTANT               26100021
 000E44 00F600                      1347 ENDBUF   DC    X'00F600'           CONSTANT TO FORCE FLUSH PRINT BU     26120021
 000E47 00                          1348 PH01SW   DC    X'00'               '01' MEANS ABANDONED IN PH01         26140021
                                    1349 *                                                                       26160021
                                    1350 *                                                                       26180021
                                    1351 *                                                                       26200021
                                    1352 *LINKAGE PACKAGE TO BRING IN PHASES                                     26220021
                                    1353 *                                                                       26240021
                                    1354 *                                                                       26260021
                                    1355 *                                                                       26280021
                                    1356 *                                                                       26300021
 000E48 4820 5462      00468        1357 LINKA    LH    R2,LINKCNT                                               26320021
 000E4C 4122 5442      00448        1358          LA    R2,LINKNAME(R2)                                          26340021
 000E50 D201 5448 2008 0044E 00008  1359          MVC   LINKNAME+NX6(LX2),DX8(R2)                                26360021
 000E56 9400 5465      0046B        1360          NI    RETOK,XX00                                               26380021
 000E5A 4820 5462      00468        1361          LH    R2,LINKCNT                                               26400021
 000E5E 4122 0002      00002        1362          LA    R2,DX2(R2)                                               26420021
 000E62 4020 5462      00468        1363          STH   R2,LINKCNT                                               26440021
 000E66 8820 0001      00001        1364          SRL   R2,DX1                  CALCULATE PHASW FOR TAMER.       26460021
 000E6A 4220 5464      0046A        1365          STC   R2,PHASW                                                 26480021
 000E6E 9506 5463      00469        1366          CLI   LINKCNT+NX1,LSWPH1B  ABOUT TO LINK PHASE1B?              26500021
 000E72 4780 5EC6      00ECC        1367          BE    LINKPH1             YES, LEAVE BUFFERS ALONE             26520021
 000E76 41F0 52AC      002B2        1368          LA    R15,POINT+NX2                                            26540021
 000E7A 41E0 0009      00009        1369          LA    R14,DX9                                                  26560021
 000E7E 436F 0000      00000        1370 LINKAZ   IC    R6,DX0(R15)                                              26580021
 000E82 8960 001C      0001C        1371          SLL   R6,DX28                                                  26600021
 000E86 8860 0019      00019        1372          SRL   R6,DX25                                                  26620021
 000E8A 4166 52FA      00300        1373          LA    R6,BUFCNLS-NX8(R6)                                       26640021
 000E8E D501 6004 5256 00004 0025C  1374          CLC   DX4(LX2,R6),ZEROES                                       26660021
 000E94 4770 5E96      00E9C        1375          BNE    LINKAZB            SKIP NEXT INSTRUCTION                26680021
 000E98 96F0 F000      00000        1376          OI    DX0(R15),XXF0                                            26700021
 000E9C 41FF 0002      00002        1377 LINKAZB  LA    R15,DX2(R15)                                             26720021
 000EA0 46E0 5E78      00E7E        1378          BCT   R14,LINKAZ          CONTINUE ALTERING POINT FIELD        26740021
 000EA4 9508 5463      00469        1379          CLI   LINKCNT+NX1,LSWPH2                                       26760021
 000EA8 4780 5EAE      00EB4        1380          BE    LINKTM         BRANCH IF YES                             26780021
 000EAC 950A 5463      00469        1381          CLI   LINKCNT+NX1,LSWPH3                                       26800021
 000EB0 4770 5EB4      00EBA        1382          BNE   LINKPH          BRANCH IF NO                             26820021
1PH00     IKFCBL00                                                                                              PAGE   29
-  LOC  OBJECT CODE    ADDR1 ADDR2  STMT   SOURCE STATEMENT                                       ASM 0201 11.03 02/14/15
0000EB4 58F0 5FBE      00FC4        1383 LINKTM   L     R15,ATAMIN      YES                                      26840021
 000EB8 05EF                        1384          BALR  R14,R15          GO TO TAMIN                             26860021
 000EBA 91FF 594F      00955        1385 LINKPH   TM    HDRSW,XXFF                                               26880021
 000EBE 4770 5EC6      00ECC        1386          BNZ   LINKPH1             LEAVE PRINTBUF,LINECNT ALONE         26900021
 000EC2 92F1 53A6      003AC        1387          MVI   PRINTBUF,XXF1        SET SKIP                            26920021
 000EC6 FB33 53A7 53A7 003AD 003AD  1388          SP    LINECNT,LINECNT   CLEAR LINE COUNT                       26940021
 000ECC 41D0 53FA      00400        1389 LINKPH1  LA    R13,SAVEPHSE                                             26960021
                                    1390          LINK  EPLOC=LINKNAME,PARAM=(COS,BUFCNLS,INTO,DS1,BUFX,PHZSW,  X26980021
                                                        ERRSEV,SEGSAVE,APCBSPT,LINKNAME+10,DECBLIB)        40329 27000021
 000ED0                             1391+         CNOP  0,4                                                      01120000
 000ED0 4510 5EFA      00F00        1392+         BAL   1,IHB0023A                        LOAD LIST ADDR IN REG1 01140000
                             00ED4  1393+IHB0023  EQU   *                                                        01160000
 000ED4 00000000                    1394+         DC    A(COS)              PROB.PROG.PARAMETER                  01320000
 000ED8 00000308                    1395+         DC    A(BUFCNLS)          PROB.PROG.PARAMETER                  01320000
 000EDC 000017A4                    1396+         DC    A(INTO)             PROB.PROG.PARAMETER                  01320000
 000EE0 00001000                    1397+         DC    A(DS1)              PROB.PROG.PARAMETER                  01320000
 000EE4 00000300                    1398+         DC    A(BUFX)             PROB.PROG.PARAMETER                  01320000
 000EE8 000001A3                    1399+         DC    A(PHZSW)            PROB.PROG.PARAMETER                  01320000
 000EEC 000001A2                    1400+         DC    A(ERRSEV)           PROB.PROG.PARAMETER                  01320000
 000EF0 00000B7C                    1401+         DC    A(SEGSAVE)          PROB.PROG.PARAMETER                  01320000
 000EF4 00000B84                    1402+         DC    A(APCBSPT)          PROB.PROG.PARAMETER                  01320000
 000EF8 00000452                    1403+         DC    A(LINKNAME+10)      PROB.PROG.PARAMETER                  01320000
 000EFC 00                          1404+         DC    B'00000000'                       SET VL SWITCH BIT      01480000
 000EFD 001460                      1405+         DC    AL3(DECBLIB)                      PROB. PROG. PARAMETER  01500000
                             00F00  1406+IHB0023A EQU   *                                                        01640000
 000F00                             1407+         CNOP  0,4                                                      01440000
 000F00 45F0 5F06      00F0C        1408+         BAL   15,*+12                           LOAD SUP.PARAMLIST ADR 01460000
 000F04 00                          1409+         DC    B'00000000'                       SET DE-EPLOC SW BIT    01560000
 000F05 000448                      1410+         DC    AL3(LINKNAME)                     EPLOC OR DE PARAMETER  01580000
 000F08 00000000                    1411+         DC    A(0)                    DCB ADDRESS PARAMETER       LC0A 01736017
 000F0C 0A06                        1412+         SVC   6                                 ISSUE LINK SVC         00300000
 000F0E                             1413 LINKBA   DS    0H                                                       27020021
 000F0E 91FF 5465      0046B        1414          TM    RETOK,XXFF                                               27040021
 000F12 47C0 5DCA      00DD0        1415          BC    R12,LINKBAZ         MUST ISSUE SPIE                      27060021
 000F16 D21C 5F32 5F33 00F38 00F39  1416 PURGE    MVC   PURGER,PURGER+NX1                                        27080021
 000F1C 91FF 5F32      00F38        1417          TM    PURGER,XXFF                                              27100021
 000F20 5840 5572      00578        1418          L     PR4,CTRMNT                                               27120021
 000F24 4780 4072      0154A        1419          BZ    INTERLUD            PURGE COMPLETE                       27140021
 000F28 D200 5F2C 5F32 00F32 00F38  1420          MVC   PURGEB,PURGER                                            27160021
 000F2E 4500 5476      0047C        1421          BAL   R0,GOSYSGO          FLUSH BUFFERS                        27180021
 000F32 00                          1422 PURGEB   DC    X'00'               SLACK BYTE FOR PURGE CALL            27200021
 000F33 00
 000F34 47F0 5F10      00F16        1423          B     PURGE               BRANCH TO SHIFT PURGE FIELD          27220021
 000F38                             1424 PGR      DS    0XL29               PURGE STRING                         27240021
 000F38 00                          1425          DC    X'00'               FIRST BYTE                           27260021
 000F39 00                          1426          DC    X'00'               AFTER PH01                           27280021
 000F3A 00                          1427          DC    X'00'               AFTER PH1A                           27300021
 000F3B F3F600                      1428          DC    X'F3F600'           AFTER PH1B                           27320021
 000F3E F2F400                      1429          DC    X'F2F400'           AFTER PH2                            27340021
 000F41 F1F3F4F600                  1430          DC    X'F1F3F4F600'       AFTER PH3                            27360021
 000F46 F100                        1431          DC    X'F100'             AFTER PH4                            27380021
 000F48 F200                        1432          DC    X'F200'             AFTER PH50                           27400021
 000F4A F1F3F400                    1433          DC    X'F1F3F400'         AFTER PH51                           27420021
 000F4E F3F6F7F800                  1434          DC    X'F3F6F7F800'       AFTER PH6 NO XREF                    27440021
 000F53 F600                        1435          DC    X'F600'             AFTER PH7                            27460021
1PH00     IKFCBL00                                                                                              PAGE   30
-  LOC  OBJECT CODE    ADDR1 ADDR2  STMT   SOURCE STATEMENT                                       ASM 0201 11.03 02/14/15
0                            00F38  1436 PURGER   EQU   PGR                 PURGE STRING                         27480021
 000F55 00
 000F56 D501 5462 5256 00468 0025C  1437 LINKB    CLC   LINKCNT,ZEROES                                           27500021
 000F5C 4780 5E42      00E48        1438          BE    LINKA               MUST LINK TO PHASE01                 27520021
 000F60 96FF 5465      0046B        1439          OI    RETOK,XXFF                                               27540021
 000F64 5830 5FC6      00FCC        1440          L     R3,TBASWGNE                                              27560021
 000F68 94FD 3000      00000        1441          NI    DX0(R3),SPACASK                                          27580021
 000F6C 9504 5463      00469        1442          CLI   LINKCNT+NX1,LSWPH1A                                      27600021
 000F70 4780 5FA4      00FAA        1443          BE    LINKR               RETURNING FROM PHASE1A               27620021
 000F74 9508 5463      00469        1444          CLI   LINKCNT+NX1,LSWPH2                                       27640021
 000F78 4780 5FA4      00FAA        1445          BE    LINKR               RETURNING FROM PHASE2                27660021
 000F7C 950C 5463      00469        1446          CLI   LINKCNT+NX1,LSWPH4                                       27680021
 000F80 4780 5FA4      00FAA        1447          BE    LINKR               RETURNING FROM PHASE4                27700021
 000F84 950E 5463      00469        1448          CLI   LINKCNT+NX1,LSWPH50                                      27720021
 000F88 4780 5FA4      00FAA        1449          BE    LINKR               RETURNING FROM PHASE5                27740021
 000F8C 9510 5463      00469        1450          CLI   LINKCNT+NX1,LSWPH51                                      27760021
 000F90 4780 5FA4      00FAA        1451          BE    LINKR               RETURNING FROM PHASE51               27780021
 000F94 9512 5463      00469        1452          CLI   LINKCNT+NX1,LSWPH6                                       27800021
 000F98 4780 5FB2      00FB8        1453          BE    LNKB                RETURNING FROM PHASE6                27820021
 000F9C 9516 5463      00469        1454          CLI   LINKCNT+NX1,LSWPH7                                       27840021
 000FA0 4780 5FA4      00FAA        1455          BE    LINKR               RETURNING FROM PHASE7                27860021
 000FA4 58F0 5FC2      00FC8        1456 LINKT    L     R15,ATAMOP                                               27880021
 000FA8 05EF                        1457          BALR  R14,R15          GO TO TAMEOP.                           27900021
 000FAA 41D0 53FA      00400        1458 LINKR    LA    R13,SAVEPHSE    LOAD R13 REG SAV AREA                    27920021
 000FAE 50D0 5252      00258        1459          ST    R13,SAVER13         SET CURRENT SAVE AREA                27940021
                                    1460          RETURN  (14,12)                                                27960021
 000FB2 98EC D00C      0000C        1461+         LM    14,12,12(13)                      RESTORE THE REGISTERS  00260000
 000FB6 07FE                        1462+         BR    14                                RETURN                 00800000
 000FB8 9180 519E      001A4        1463 LNKB     TM    PHZSW1,XREF                                              27980021
 000FBC 47E0 5F9E      00FA4        1464          BNO   LINKT               NO PH6A- GO THROUGH TAMEOP           28000021
 000FC0 47F0 5FA4      00FAA        1465          BC    UNCOND,LINKR        ELSE GO TO LINKR                     28020021
 000FC4 0000186E                    1466 ATAMIN   DC    A(TAMEIN)           TAMER ADDRESS CONSTANT               28040021
 000FC8 000018A6                    1467 ATAMOP   DC    A(TAMEOP)           TAMER ADDRESS CONSTANT               28060021
 000FCC 00002FB1                    1468 TBASWGNE DC    A(TBSWGENE)         TAMER ADDRESS CONSTANT               28080021
                             00FC8  1469 ARLDIC   EQU   ATAMOP                                                   28100021
                                    1470 *                                                                       28120021
 000FD0 00000000                    1471 SPIEAD   DC    A(0)                USED WITH SPIE MACRO                 28140021
                                    1472 *                                                                       28160021
 000FD4                             1473 IKFPATCH DS    0F                  PATCH AREA                           28180021
 000FD4 47F0 5FCE      00FD4        1474          B     IKFPATCH            EASES BRANCH ADDRESS CODING          28200021
 000FD8 0000000000000000            1475          DC    6F'0'                                                    28220021
 000FE0 0000000000000000
 000FE8 0000000000000000
                                    1476 *                                                                       28240021
 000FF0                             1477 PH0SECT2 CSECT                                                          28260021
 000FF0                             1478          DS    2F                  X                                    28280021
 000FF8 000003AC                    1479          DC    A(PRINTBUF)         X                                    28300021
 000FFC                             1480          DS    F                   X                                    28320021
                                    1481 DS1      DCB   DSORG=PS,MACRF=(RP,WP),DDNAME=SYSUT1,DEVD=DA,RECFM=U,   X28340021
                                                        LRECL=001,BLKSIZE=0,NCP=1,EODAD=ENDIN,SYNAD=SYAB,       X28360021
                                                        KEYLEN=0                                                 28380021
0
                                    1483+*                       DATA CONTROL BLOCK                              22770020
                                    1484+*                                                                       22860020
1PH00     IKFCBL00                                                                                              PAGE   31
-  LOC  OBJECT CODE    ADDR1 ADDR2  STMT   SOURCE STATEMENT                                       ASM 0201 11.03 02/14/15
0001000                             1485+DS1      DC    0F'0'                   ORIGIN ON WORD BOUNDARY          22914020

                                    1487+*                       DIRECT ACCESS DEVICE INTERFACE                  27360020

 001000 0000000000000000            1489+         DC    BL16'0'                  FDAD,DVTBL                      27540020
 001008 0000000000000000
 001010 00                          1490+         DC    AL1(0)                  KEYLE                            27990020
 001011 000000                      1491+         DC    BL3'0'                   DEVT,TRBAL                      28170020

                                    1493+*                       COMMON ACCESS METHOD INTERFACE                  48690020

 001014 00                          1495+         DC    AL1(0)                  BUFNO                            49050020
 001015 000001                      1496+         DC    AL3(1)                  BUFCB                            54720020
 001018 0000                        1497+         DC    AL2(0)             BUFL                                  55170020
 00101A 4000                        1498+         DC    BL2'0100000000000000'                                   *55800020
                                        +                                                 DSORG                  55890020
 00101C 00000001                    1499+         DC    A(1)                     IOBAD                           56340020

                                    1501+*                       FOUNDATION EXTENSION                            56610020

 001020 00                          1503+         DC    BL1'00000000'                  BFTEK,BFLN,HIARCHY        59850020
 001021 000842                      1504+         DC    AL3(ENDIN)              EODAD                            65970020
 001024 C1                          1505+         DC    BL1'11000001'                                           *66150020
                                        +                                       RECFM                            66240020
 001025 000000                      1506+         DC    AL3(0)                  EXLST                            66330020

                                    1508+*                       FOUNDATION BLOCK                                66690020

 001028 E2E8E2E4E3F14040            1510+         DC    CL8'SYSUT1'             DDNAME                           66870020
 001030 02                          1511+         DC    BL1'00000010'           OFLGS                            68220020
 001031 00                          1512+         DC    BL1'00000000'                          IFLG              68310020
 001032 2424                        1513+         DC    BL2'0010010000100100'                                   *68400020
                                        +                                                                       *68490020
                                        +                                       MACR                             68580020

                                    1515+*                       BSAM-BPAM-QSAM INTERFACE                        74430020

 001034 00                          1517+         DC    BL1'00000000'                                           *74610020
                                        +                                                                   RER1 74700020
 001035 000001                      1518+         DC    AL3(1)                  CHECK, GERR, PERR                74790020
 001038 00000D2A                    1519+         DC    A(SYAB)                 SYNAD                            74880020
 00103C 0000                        1520+         DC    H'0'                    CIND1, CIND2                     74970020
 00103E 0000                        1521+         DC    AL2(0)                  BLKSIZE                          75240020
 001040 00000000                    1522+         DC    F'0'                    WCPO, WCPL, OFFSR, OFFSW         75870020
 001044 00000001                    1523+         DC    A(1)                    IOBA                             75960020
 001048 01                          1524+         DC    AL1(1)                  NCP                              76050020
 001049 000001                      1525+         DC    AL3(1)                  EOBR, EOBAD                      76140020

                                    1527+*                         BSAM-BPAM INTERFACE                           76410020

 00104C 00000001                    1529+         DC    A(1)                    EOBW                             76590020
 001050 0000                        1530+         DC    H'0'                    DIRCT                            78210020
 001052 0001                        1531+         DC    AL2(001)       LRECL                                     80730020
 001054 00000001                    1532+         DC    A(1)                    CNTRL, NOTE, POINT               78480020
                                    1533 DS2      DCB   DSORG=PS,MACRF=(R,W),DDNAME=SYSUT2,DEVD=DA,RECFM=FS,    X28400021
1PH00     IKFCBL00                                                                                              PAGE   32
-  LOC  OBJECT CODE    ADDR1 ADDR2  STMT   SOURCE STATEMENT                                       ASM 0201 11.03 02/14/15
0                                                       LRECL=001,BLKSIZE=0,NCP=1,EODAD=ENDIN,SYNAD=SYAB         28420021
0
                                    1535+*                       DATA CONTROL BLOCK                              22770020
                                    1536+*                                                                       22860020
 001058                             1537+DS2      DC    0F'0'                   ORIGIN ON WORD BOUNDARY          22914020

                                    1539+*                       DIRECT ACCESS DEVICE INTERFACE                  27360020

 001058 0000000000000000            1541+         DC    BL16'0'                  FDAD,DVTBL                      27540020
 001060 0000000000000000
 001068 00000000                    1542+         DC    A(0)                     KEYLE,DEVT,TRBAL                27720020

                                    1544+*                       COMMON ACCESS METHOD INTERFACE                  48690020

 00106C 00                          1546+         DC    AL1(0)                  BUFNO                            49050020
 00106D 000001                      1547+         DC    AL3(1)                  BUFCB                            54720020
 001070 0000                        1548+         DC    AL2(0)             BUFL                                  55170020
 001072 4000                        1549+         DC    BL2'0100000000000000'                                   *55800020
                                        +                                                 DSORG                  55890020
 001074 00000001                    1550+         DC    A(1)                     IOBAD                           56340020

                                    1552+*                       FOUNDATION EXTENSION                            56610020

 001078 00                          1554+         DC    BL1'00000000'                  BFTEK,BFLN,HIARCHY        59850020
 001079 000842                      1555+         DC    AL3(ENDIN)              EODAD                            65970020
 00107C 88                          1556+         DC    BL1'10001000'                                           *66150020
                                        +                                       RECFM                            66240020
 00107D 000000                      1557+         DC    AL3(0)                  EXLST                            66330020

                                    1559+*                       FOUNDATION BLOCK                                66690020

 001080 E2E8E2E4E3F24040            1561+         DC    CL8'SYSUT2'             DDNAME                           66870020
 001088 02                          1562+         DC    BL1'00000010'           OFLGS                            68220020
 001089 00                          1563+         DC    BL1'00000000'                          IFLG              68310020
 00108A 2020                        1564+         DC    BL2'0010000000100000'                                   *68400020
                                        +                                                                       *68490020
                                        +                                       MACR                             68580020

                                    1566+*                       BSAM-BPAM-QSAM INTERFACE                        74430020

 00108C 00                          1568+         DC    BL1'00000000'                                           *74610020
                                        +                                                                   RER1 74700020
 00108D 000001                      1569+         DC    AL3(1)                  CHECK, GERR, PERR                74790020
 001090 00000D2A                    1570+         DC    A(SYAB)                 SYNAD                            74880020
 001094 0000                        1571+         DC    H'0'                    CIND1, CIND2                     74970020
 001096 0000                        1572+         DC    AL2(0)                  BLKSIZE                          75240020
 001098 00000000                    1573+         DC    F'0'                    WCPO, WCPL, OFFSR, OFFSW         75870020
 00109C 00000001                    1574+         DC    A(1)                    IOBA                             75960020
 0010A0 01                          1575+         DC    AL1(1)                  NCP                              76050020
 0010A1 000001                      1576+         DC    AL3(1)                  EOBR, EOBAD                      76140020

                                    1578+*                         BSAM-BPAM INTERFACE                           76410020

 0010A4 00000001                    1580+         DC    A(1)                    EOBW                             76590020
1PH00     IKFCBL00                                                                                              PAGE   33
-  LOC  OBJECT CODE    ADDR1 ADDR2  STMT   SOURCE STATEMENT                                       ASM 0201 11.03 02/14/15
00010A8 0000                        1581+         DC    H'0'                    DIRCT                            78210020
 0010AA 0001                        1582+         DC    AL2(001)       LRECL                                     80730020
 0010AC 00000001                    1583+         DC    A(1)                    CNTRL, NOTE, POINT               78480020
                                    1584 DS3      DCB   DSORG=PS,MACRF=(R,W),DDNAME=SYSUT3,DEVD=DA,RECFM=FS,    X28440021
                                                        LRECL=001,BLKSIZE=0,NCP=1,EODAD=ENDIN,SYNAD=SYAB         28460021
0
                                    1586+*                       DATA CONTROL BLOCK                              22770020
                                    1587+*                                                                       22860020
 0010B0                             1588+DS3      DC    0F'0'                   ORIGIN ON WORD BOUNDARY          22914020

                                    1590+*                       DIRECT ACCESS DEVICE INTERFACE                  27360020

 0010B0 0000000000000000            1592+         DC    BL16'0'                  FDAD,DVTBL                      27540020
 0010B8 0000000000000000
 0010C0 00000000                    1593+         DC    A(0)                     KEYLE,DEVT,TRBAL                27720020

                                    1595+*                       COMMON ACCESS METHOD INTERFACE                  48690020

 0010C4 00                          1597+         DC    AL1(0)                  BUFNO                            49050020
 0010C5 000001                      1598+         DC    AL3(1)                  BUFCB                            54720020
 0010C8 0000                        1599+         DC    AL2(0)             BUFL                                  55170020
 0010CA 4000                        1600+         DC    BL2'0100000000000000'                                   *55800020
                                        +                                                 DSORG                  55890020
 0010CC 00000001                    1601+         DC    A(1)                     IOBAD                           56340020

                                    1603+*                       FOUNDATION EXTENSION                            56610020

 0010D0 00                          1605+         DC    BL1'00000000'                  BFTEK,BFLN,HIARCHY        59850020
 0010D1 000842                      1606+         DC    AL3(ENDIN)              EODAD                            65970020
 0010D4 88                          1607+         DC    BL1'10001000'                                           *66150020
                                        +                                       RECFM                            66240020
 0010D5 000000                      1608+         DC    AL3(0)                  EXLST                            66330020

                                    1610+*                       FOUNDATION BLOCK                                66690020

 0010D8 E2E8E2E4E3F34040            1612+         DC    CL8'SYSUT3'             DDNAME                           66870020
 0010E0 02                          1613+         DC    BL1'00000010'           OFLGS                            68220020
 0010E1 00                          1614+         DC    BL1'00000000'                          IFLG              68310020
 0010E2 2020                        1615+         DC    BL2'0010000000100000'                                   *68400020
                                        +                                                                       *68490020
                                        +                                       MACR                             68580020

                                    1617+*                       BSAM-BPAM-QSAM INTERFACE                        74430020

 0010E4 00                          1619+         DC    BL1'00000000'                                           *74610020
                                        +                                                                   RER1 74700020
 0010E5 000001                      1620+         DC    AL3(1)                  CHECK, GERR, PERR                74790020
 0010E8 00000D2A                    1621+         DC    A(SYAB)                 SYNAD                            74880020
 0010EC 0000                        1622+         DC    H'0'                    CIND1, CIND2                     74970020
 0010EE 0000                        1623+         DC    AL2(0)                  BLKSIZE                          75240020
 0010F0 00000000                    1624+         DC    F'0'                    WCPO, WCPL, OFFSR, OFFSW         75870020
 0010F4 00000001                    1625+         DC    A(1)                    IOBA                             75960020
 0010F8 01                          1626+         DC    AL1(1)                  NCP                              76050020
 0010F9 000001                      1627+         DC    AL3(1)                  EOBR, EOBAD                      76140020
1PH00     IKFCBL00                                                                                              PAGE   34
-  LOC  OBJECT CODE    ADDR1 ADDR2  STMT   SOURCE STATEMENT                                       ASM 0201 11.03 02/14/15
0                                   1629+*                         BSAM-BPAM INTERFACE                           76410020

 0010FC 00000001                    1631+         DC    A(1)                    EOBW                             76590020
 001100 0000                        1632+         DC    H'0'                    DIRCT                            78210020
 001102 0001                        1633+         DC    AL2(001)       LRECL                                     80730020
 001104 00000001                    1634+         DC    A(1)                    CNTRL, NOTE, POINT               78480020
                                    1635 DS4      DCB   DSORG=PS,MACRF=(R,W),DDNAME=SYSUT4,DEVD=DA,RECFM=FS,    X28480021
                                                        LRECL=001,BLKSIZE=0,NCP=1,EODAD=ENDIN,SYNAD=SYAB         28500021
0
                                    1637+*                       DATA CONTROL BLOCK                              22770020
                                    1638+*                                                                       22860020
 001108                             1639+DS4      DC    0F'0'                   ORIGIN ON WORD BOUNDARY          22914020

                                    1641+*                       DIRECT ACCESS DEVICE INTERFACE                  27360020

 001108 0000000000000000            1643+         DC    BL16'0'                  FDAD,DVTBL                      27540020
 001110 0000000000000000
 001118 00000000                    1644+         DC    A(0)                     KEYLE,DEVT,TRBAL                27720020

                                    1646+*                       COMMON ACCESS METHOD INTERFACE                  48690020

 00111C 00                          1648+         DC    AL1(0)                  BUFNO                            49050020
 00111D 000001                      1649+         DC    AL3(1)                  BUFCB                            54720020
 001120 0000                        1650+         DC    AL2(0)             BUFL                                  55170020
 001122 4000                        1651+         DC    BL2'0100000000000000'                                   *55800020
                                        +                                                 DSORG                  55890020
 001124 00000001                    1652+         DC    A(1)                     IOBAD                           56340020

                                    1654+*                       FOUNDATION EXTENSION                            56610020

 001128 00                          1656+         DC    BL1'00000000'                  BFTEK,BFLN,HIARCHY        59850020
 001129 000842                      1657+         DC    AL3(ENDIN)              EODAD                            65970020
 00112C 88                          1658+         DC    BL1'10001000'                                           *66150020
                                        +                                       RECFM                            66240020
 00112D 000000                      1659+         DC    AL3(0)                  EXLST                            66330020

                                    1661+*                       FOUNDATION BLOCK                                66690020

 001130 E2E8E2E4E3F44040            1663+         DC    CL8'SYSUT4'             DDNAME                           66870020
 001138 02                          1664+         DC    BL1'00000010'           OFLGS                            68220020
 001139 00                          1665+         DC    BL1'00000000'                          IFLG              68310020
 00113A 2020                        1666+         DC    BL2'0010000000100000'                                   *68400020
                                        +                                                                       *68490020
                                        +                                       MACR                             68580020

                                    1668+*                       BSAM-BPAM-QSAM INTERFACE                        74430020

 00113C 00                          1670+         DC    BL1'00000000'                                           *74610020
                                        +                                                                   RER1 74700020
 00113D 000001                      1671+         DC    AL3(1)                  CHECK, GERR, PERR                74790020
 001140 00000D2A                    1672+         DC    A(SYAB)                 SYNAD                            74880020
 001144 0000                        1673+         DC    H'0'                    CIND1, CIND2                     74970020
 001146 0000                        1674+         DC    AL2(0)                  BLKSIZE                          75240020
 001148 00000000                    1675+         DC    F'0'                    WCPO, WCPL, OFFSR, OFFSW         75870020
1PH00     IKFCBL00                                                                                              PAGE   35
-  LOC  OBJECT CODE    ADDR1 ADDR2  STMT   SOURCE STATEMENT                                       ASM 0201 11.03 02/14/15
000114C 00000001                    1676+         DC    A(1)                    IOBA                             75960020
 001150 01                          1677+         DC    AL1(1)                  NCP                              76050020
 001151 000001                      1678+         DC    AL3(1)                  EOBR, EOBAD                      76140020

                                    1680+*                         BSAM-BPAM INTERFACE                           76410020

 001154 00000001                    1682+         DC    A(1)                    EOBW                             76590020
 001158 0000                        1683+         DC    H'0'                    DIRCT                            78210020
 00115A 0001                        1684+         DC    AL2(001)       LRECL                                     80730020
 00115C 00000001                    1685+         DC    A(1)                    CNTRL, NOTE, POINT               78480020
                                    1686 SPILL    DCB   DSORG=PS,MACRF=(R,W),DDNAME=SYSUT1,DEVD=DA,RECFM=F,     X28520021
                                                        LRECL=512,BLKSIZE=512,NCP=1,SYNAD=SYAB                   28540021
0
                                    1688+*                       DATA CONTROL BLOCK                              22770020
                                    1689+*                                                                       22860020
 001160                             1690+SPILL    DC    0F'0'                   ORIGIN ON WORD BOUNDARY          22914020

                                    1692+*                       DIRECT ACCESS DEVICE INTERFACE                  27360020

 001160 0000000000000000            1694+         DC    BL16'0'                  FDAD,DVTBL                      27540020
 001168 0000000000000000
 001170 00000000                    1695+         DC    A(0)                     KEYLE,DEVT,TRBAL                27720020

                                    1697+*                       COMMON ACCESS METHOD INTERFACE                  48690020

 001174 00                          1699+         DC    AL1(0)                  BUFNO                            49050020
 001175 000001                      1700+         DC    AL3(1)                  BUFCB                            54720020
 001178 0000                        1701+         DC    AL2(0)             BUFL                                  55170020
 00117A 4000                        1702+         DC    BL2'0100000000000000'                                   *55800020
                                        +                                                 DSORG                  55890020
 00117C 00000001                    1703+         DC    A(1)                     IOBAD                           56340020

                                    1705+*                       FOUNDATION EXTENSION                            56610020

 001180 00                          1707+         DC    BL1'00000000'                  BFTEK,BFLN,HIARCHY        59850020
 001181 000001                      1708+         DC    AL3(1)                  EODAD                            65970020
 001184 80                          1709+         DC    BL1'10000000'                                           *66150020
                                        +                                       RECFM                            66240020
 001185 000000                      1710+         DC    AL3(0)                  EXLST                            66330020

                                    1712+*                       FOUNDATION BLOCK                                66690020

 001188 E2E8E2E4E3F14040            1714+         DC    CL8'SYSUT1'             DDNAME                           66870020
 001190 02                          1715+         DC    BL1'00000010'           OFLGS                            68220020
 001191 00                          1716+         DC    BL1'00000000'                          IFLG              68310020
 001192 2020                        1717+         DC    BL2'0010000000100000'                                   *68400020
                                        +                                                                       *68490020
                                        +                                       MACR                             68580020

                                    1719+*                       BSAM-BPAM-QSAM INTERFACE                        74430020

 001194 00                          1721+         DC    BL1'00000000'                                           *74610020
                                        +                                                                   RER1 74700020
 001195 000001                      1722+         DC    AL3(1)                  CHECK, GERR, PERR                74790020
1PH00     IKFCBL00                                                                                              PAGE   36
-  LOC  OBJECT CODE    ADDR1 ADDR2  STMT   SOURCE STATEMENT                                       ASM 0201 11.03 02/14/15
0001198 00000D2A                    1723+         DC    A(SYAB)                 SYNAD                            74880020
 00119C 0000                        1724+         DC    H'0'                    CIND1, CIND2                     74970020
 00119E 0200                        1725+         DC    AL2(512)                BLKSIZE                          75240020
 0011A0 00000000                    1726+         DC    F'0'                    WCPO, WCPL, OFFSR, OFFSW         75870020
 0011A4 00000001                    1727+         DC    A(1)                    IOBA                             75960020
 0011A8 01                          1728+         DC    AL1(1)                  NCP                              76050020
 0011A9 000001                      1729+         DC    AL3(1)                  EOBR, EOBAD                      76140020

                                    1731+*                         BSAM-BPAM INTERFACE                           76410020

 0011AC 00000001                    1733+         DC    A(1)                    EOBW                             76590020
 0011B0 0000                        1734+         DC    H'0'                    DIRCT                            78210020
 0011B2 0200                        1735+         DC    AL2(512)       LRECL                                     80730020
 0011B4 00000001                    1736+         DC    A(1)                    CNTRL, NOTE, POINT               78480020
                                    1737 IN       DCB   DSORG=PS,MACRF=(R),DDNAME=SYSIN,DEVD=DA,RECFM=FB,       X28560021
                                                        LRECL=80,BLKSIZE=0,NCP=1,EODAD=ENDIN,SYNAD=SYAB          28580021
0
                                    1739+*                       DATA CONTROL BLOCK                              22770020
                                    1740+*                                                                       22860020
 0011B8                             1741+IN       DC    0F'0'                   ORIGIN ON WORD BOUNDARY          22914020

                                    1743+*                       DIRECT ACCESS DEVICE INTERFACE                  27360020

 0011B8 0000000000000000            1745+         DC    BL16'0'                  FDAD,DVTBL                      27540020
 0011C0 0000000000000000
 0011C8 00000000                    1746+         DC    A(0)                     KEYLE,DEVT,TRBAL                27720020

                                    1748+*                       COMMON ACCESS METHOD INTERFACE                  48690020

 0011CC 00                          1750+         DC    AL1(0)                  BUFNO                            49050020
 0011CD 000001                      1751+         DC    AL3(1)                  BUFCB                            54720020
 0011D0 0000                        1752+         DC    AL2(0)             BUFL                                  55170020
 0011D2 4000                        1753+         DC    BL2'0100000000000000'                                   *55800020
                                        +                                                 DSORG                  55890020
 0011D4 00000001                    1754+         DC    A(1)                     IOBAD                           56340020

                                    1756+*                       FOUNDATION EXTENSION                            56610020

 0011D8 00                          1758+         DC    BL1'00000000'                  BFTEK,BFLN,HIARCHY        59850020
 0011D9 000842                      1759+         DC    AL3(ENDIN)              EODAD                            65970020
 0011DC 90                          1760+         DC    BL1'10010000'                                           *66150020
                                        +                                       RECFM                            66240020
 0011DD 000000                      1761+         DC    AL3(0)                  EXLST                            66330020

                                    1763+*                       FOUNDATION BLOCK                                66690020

 0011E0 E2E8E2C9D5404040            1765+         DC    CL8'SYSIN'              DDNAME                           66870020
 0011E8 02                          1766+         DC    BL1'00000010'           OFLGS                            68220020
 0011E9 00                          1767+         DC    BL1'00000000'                          IFLG              68310020
 0011EA 2000                        1768+         DC    BL2'0010000000000000'                                   *68400020
                                        +                                                                       *68490020
                                        +                                       MACR                             68580020

                                    1770+*                       BSAM-BPAM-QSAM INTERFACE                        74430020
1PH00     IKFCBL00                                                                                              PAGE   37
-  LOC  OBJECT CODE    ADDR1 ADDR2  STMT   SOURCE STATEMENT                                       ASM 0201 11.03 02/14/15
00011EC 00                          1772+         DC    BL1'00000000'                                           *74610020
                                        +                                                                   RER1 74700020
 0011ED 000001                      1773+         DC    AL3(1)                  CHECK, GERR, PERR                74790020
 0011F0 00000D2A                    1774+         DC    A(SYAB)                 SYNAD                            74880020
 0011F4 0000                        1775+         DC    H'0'                    CIND1, CIND2                     74970020
 0011F6 0000                        1776+         DC    AL2(0)                  BLKSIZE                          75240020
 0011F8 00000000                    1777+         DC    F'0'                    WCPO, WCPL, OFFSR, OFFSW         75870020
 0011FC 00000001                    1778+         DC    A(1)                    IOBA                             75960020
 001200 01                          1779+         DC    AL1(1)                  NCP                              76050020
 001201 000001                      1780+         DC    AL3(1)                  EOBR, EOBAD                      76140020

                                    1782+*                         BSAM-BPAM INTERFACE                           76410020

 001204 00000001                    1784+         DC    A(1)                    EOBW                             76590020
 001208 0000                        1785+         DC    H'0'                    DIRCT                            78210020
 00120A 0050                        1786+         DC    AL2(80)        LRECL                                     80730020
 00120C 00000001                    1787+         DC    A(1)                    CNTRL, NOTE, POINT               78480020
                                    1788 OUT      DCB   DSORG=PS,MACRF=(W),DDNAME=SYSPRINT,DEVD=DA,RECFM=FBA,   X28600021
                                                        LRECL=121,BLKSIZE=0,NCP=1,SYNAD=SYAB                     28620021
0
                                    1790+*                       DATA CONTROL BLOCK                              22770020
                                    1791+*                                                                       22860020
 001210                             1792+OUT      DC    0F'0'                   ORIGIN ON WORD BOUNDARY          22914020

                                    1794+*                       DIRECT ACCESS DEVICE INTERFACE                  27360020

 001210 0000000000000000            1796+         DC    BL16'0'                  FDAD,DVTBL                      27540020
 001218 0000000000000000
 001220 00000000                    1797+         DC    A(0)                     KEYLE,DEVT,TRBAL                27720020

                                    1799+*                       COMMON ACCESS METHOD INTERFACE                  48690020

 001224 00                          1801+         DC    AL1(0)                  BUFNO                            49050020
 001225 000001                      1802+         DC    AL3(1)                  BUFCB                            54720020
 001228 0000                        1803+         DC    AL2(0)             BUFL                                  55170020
 00122A 4000                        1804+         DC    BL2'0100000000000000'                                   *55800020
                                        +                                                 DSORG                  55890020
 00122C 00000001                    1805+         DC    A(1)                     IOBAD                           56340020

                                    1807+*                       FOUNDATION EXTENSION                            56610020

 001230 00                          1809+         DC    BL1'00000000'                  BFTEK,BFLN,HIARCHY        59850020
 001231 000001                      1810+         DC    AL3(1)                  EODAD                            65970020
 001234 94                          1811+         DC    BL1'10010100'                                           *66150020
                                        +                                       RECFM                            66240020
 001235 000000                      1812+         DC    AL3(0)                  EXLST                            66330020

                                    1814+*                       FOUNDATION BLOCK                                66690020

 001238 E2E8E2D7D9C9D5E3            1816+         DC    CL8'SYSPRINT'           DDNAME                           66870020
 001240 02                          1817+         DC    BL1'00000010'           OFLGS                            68220020
 001241 00                          1818+         DC    BL1'00000000'                          IFLG              68310020
 001242 0020                        1819+         DC    BL2'0000000000100000'                                   *68400020
                                        +                                                                       *68490020
1PH00     IKFCBL00                                                                                              PAGE   38
-  LOC  OBJECT CODE    ADDR1 ADDR2  STMT   SOURCE STATEMENT                                       ASM 0201 11.03 02/14/15
0                                       +                                       MACR                             68580020

                                    1821+*                       BSAM-BPAM-QSAM INTERFACE                        74430020

 001244 00                          1823+         DC    BL1'00000000'                                           *74610020
                                        +                                                                   RER1 74700020
 001245 000001                      1824+         DC    AL3(1)                  CHECK, GERR, PERR                74790020
 001248 00000D2A                    1825+         DC    A(SYAB)                 SYNAD                            74880020
 00124C 0000                        1826+         DC    H'0'                    CIND1, CIND2                     74970020
 00124E 0000                        1827+         DC    AL2(0)                  BLKSIZE                          75240020
 001250 00000000                    1828+         DC    F'0'                    WCPO, WCPL, OFFSR, OFFSW         75870020
 001254 00000001                    1829+         DC    A(1)                    IOBA                             75960020
 001258 01                          1830+         DC    AL1(1)                  NCP                              76050020
 001259 000001                      1831+         DC    AL3(1)                  EOBR, EOBAD                      76140020

                                    1833+*                         BSAM-BPAM INTERFACE                           76410020

 00125C 00000001                    1835+         DC    A(1)                    EOBW                             76590020
 001260 0000                        1836+         DC    H'0'                    DIRCT                            78210020
 001262 0079                        1837+         DC    AL2(121)       LRECL                                     80730020
 001264 00000001                    1838+         DC    A(1)                    CNTRL, NOTE, POINT               78480020
                                    1839 LIB      DCB   DSORG=PO,MACRF=(R),DDNAME=SYSLIB,DEVD=DA,               X28640021
                                                        LRECL=80,BLKSIZE=0,NCP=1,EODAD=ENDIN1,SYNAD=SYAA         28660021
0
                                    1841+*                       DATA CONTROL BLOCK                              22770020
                                    1842+*                                                                       22860020
 001268                             1843+LIB      DC    0F'0'                   ORIGIN ON WORD BOUNDARY          22914020

                                    1845+*                       DIRECT ACCESS DEVICE INTERFACE                  27360020

 001268 0000000000000000            1847+         DC    BL16'0'                  FDAD,DVTBL                      27540020
 001270 0000000000000000
 001278 00000000                    1848+         DC    A(0)                     KEYLE,DEVT,TRBAL                27720020

                                    1850+*                       COMMON ACCESS METHOD INTERFACE                  48690020

 00127C 00                          1852+         DC    AL1(0)                  BUFNO                            49050020
 00127D 000001                      1853+         DC    AL3(1)                  BUFCB                            54720020
 001280 0000                        1854+         DC    AL2(0)             BUFL                                  55170020
 001282 0200                        1855+         DC    BL2'0000001000000000'                                   *55800020
                                        +                                                 DSORG                  55890020
 001284 00000001                    1856+         DC    A(1)                     IOBAD                           56340020

                                    1858+*                       FOUNDATION EXTENSION                            56610020

 001288 00                          1860+         DC    BL1'00000000'                  BFTEK,BFLN,HIARCHY        59850020
 001289 00083C                      1861+         DC    AL3(ENDIN1)             EODAD                            65970020
 00128C 00                          1862+         DC    BL1'00000000'                                           *66150020
                                        +                                       RECFM                            66240020
 00128D 000000                      1863+         DC    AL3(0)                  EXLST                            66330020

                                    1865+*                       FOUNDATION BLOCK                                66690020

 001290 E2E8E2D3C9C24040            1867+         DC    CL8'SYSLIB'             DDNAME                           66870020
1PH00     IKFCBL00                                                                                              PAGE   39
-  LOC  OBJECT CODE    ADDR1 ADDR2  STMT   SOURCE STATEMENT                                       ASM 0201 11.03 02/14/15
0001298 02                          1868+         DC    BL1'00000010'           OFLGS                            68220020
 001299 00                          1869+         DC    BL1'00000000'                          IFLG              68310020
 00129A 2400                        1870+         DC    BL2'0010010000000000'                                   *68400020
                                        +                                                                       *68490020
                                        +                                       MACR                             68580020

                                    1872+*                       BSAM-BPAM-QSAM INTERFACE                        74430020

 00129C 00                          1874+         DC    BL1'00000000'                                           *74610020
                                        +                                                                   RER1 74700020
 00129D 000001                      1875+         DC    AL3(1)                  CHECK, GERR, PERR                74790020
 0012A0 00000D14                    1876+         DC    A(SYAA)                 SYNAD                            74880020
 0012A4 0000                        1877+         DC    H'0'                    CIND1, CIND2                     74970020
 0012A6 0000                        1878+         DC    AL2(0)                  BLKSIZE                          75240020
 0012A8 00000000                    1879+         DC    F'0'                    WCPO, WCPL, OFFSR, OFFSW         75870020
 0012AC 00000001                    1880+         DC    A(1)                    IOBA                             75960020
 0012B0 01                          1881+         DC    AL1(1)                  NCP                              76050020
 0012B1 000001                      1882+         DC    AL3(1)                  EOBR, EOBAD                      76140020

                                    1884+*                         BSAM-BPAM INTERFACE                           76410020

 0012B4 00000001                    1886+         DC    A(1)                    EOBW                             76590020
 0012B8 0000                        1887+         DC    H'0'                    DIRCT                            78210020
 0012BA 0050                        1888+         DC    AL2(80)        LRECL                                     80730020
 0012BC 00000001                    1889+         DC    A(1)                    CNTRL, NOTE, POINT               78480020
                                    1890 PCH      DCB   DSORG=PS,MACRF=(W),DDNAME=SYSPUNCH,DEVD=DA,RECFM=FB,    X28680021
                                                        LRECL=80,BLKSIZE=0,NCP=1,SYNAD=SYAB                      28700021
0
                                    1892+*                       DATA CONTROL BLOCK                              22770020
                                    1893+*                                                                       22860020
 0012C0                             1894+PCH      DC    0F'0'                   ORIGIN ON WORD BOUNDARY          22914020

                                    1896+*                       DIRECT ACCESS DEVICE INTERFACE                  27360020

 0012C0 0000000000000000            1898+         DC    BL16'0'                  FDAD,DVTBL                      27540020
 0012C8 0000000000000000
 0012D0 00000000                    1899+         DC    A(0)                     KEYLE,DEVT,TRBAL                27720020

                                    1901+*                       COMMON ACCESS METHOD INTERFACE                  48690020

 0012D4 00                          1903+         DC    AL1(0)                  BUFNO                            49050020
 0012D5 000001                      1904+         DC    AL3(1)                  BUFCB                            54720020
 0012D8 0000                        1905+         DC    AL2(0)             BUFL                                  55170020
 0012DA 4000                        1906+         DC    BL2'0100000000000000'                                   *55800020
                                        +                                                 DSORG                  55890020
 0012DC 00000001                    1907+         DC    A(1)                     IOBAD                           56340020

                                    1909+*                       FOUNDATION EXTENSION                            56610020

 0012E0 00                          1911+         DC    BL1'00000000'                  BFTEK,BFLN,HIARCHY        59850020
 0012E1 000001                      1912+         DC    AL3(1)                  EODAD                            65970020
 0012E4 90                          1913+         DC    BL1'10010000'                                           *66150020
                                        +                                       RECFM                            66240020
 0012E5 000000                      1914+         DC    AL3(0)                  EXLST                            66330020
1PH00     IKFCBL00                                                                                              PAGE   40
-  LOC  OBJECT CODE    ADDR1 ADDR2  STMT   SOURCE STATEMENT                                       ASM 0201 11.03 02/14/15
0                                   1916+*                       FOUNDATION BLOCK                                66690020

 0012E8 E2E8E2D7E4D5C3C8            1918+         DC    CL8'SYSPUNCH'           DDNAME                           66870020
 0012F0 02                          1919+         DC    BL1'00000010'           OFLGS                            68220020
 0012F1 00                          1920+         DC    BL1'00000000'                          IFLG              68310020
 0012F2 0020                        1921+         DC    BL2'0000000000100000'                                   *68400020
                                        +                                                                       *68490020
                                        +                                       MACR                             68580020

                                    1923+*                       BSAM-BPAM-QSAM INTERFACE                        74430020

 0012F4 00                          1925+         DC    BL1'00000000'                                           *74610020
                                        +                                                                   RER1 74700020
 0012F5 000001                      1926+         DC    AL3(1)                  CHECK, GERR, PERR                74790020
 0012F8 00000D2A                    1927+         DC    A(SYAB)                 SYNAD                            74880020
 0012FC 0000                        1928+         DC    H'0'                    CIND1, CIND2                     74970020
 0012FE 0000                        1929+         DC    AL2(0)                  BLKSIZE                          75240020
 001300 00000000                    1930+         DC    F'0'                    WCPO, WCPL, OFFSR, OFFSW         75870020
 001304 00000001                    1931+         DC    A(1)                    IOBA                             75960020
 001308 01                          1932+         DC    AL1(1)                  NCP                              76050020
 001309 000001                      1933+         DC    AL3(1)                  EOBR, EOBAD                      76140020

                                    1935+*                         BSAM-BPAM INTERFACE                           76410020

 00130C 00000001                    1937+         DC    A(1)                    EOBW                             76590020
 001310 0000                        1938+         DC    H'0'                    DIRCT                            78210020
 001312 0050                        1939+         DC    AL2(80)        LRECL                                     80730020
 001314 00000001                    1940+         DC    A(1)                    CNTRL, NOTE, POINT               78480020
                                    1941 GOF      DCB   DSORG=PS,MACRF=(W),DDNAME=SYSLIN,DEVD=DA,RECFM=FB,      X28720021
                                                        LRECL=80,BLKSIZE=0,NCP=1,SYNAD=SYAB                      28740021
0
                                    1943+*                       DATA CONTROL BLOCK                              22770020
                                    1944+*                                                                       22860020
 001318                             1945+GOF      DC    0F'0'                   ORIGIN ON WORD BOUNDARY          22914020

                                    1947+*                       DIRECT ACCESS DEVICE INTERFACE                  27360020

 001318 0000000000000000            1949+         DC    BL16'0'                  FDAD,DVTBL                      27540020
 001320 0000000000000000
 001328 00000000                    1950+         DC    A(0)                     KEYLE,DEVT,TRBAL                27720020

                                    1952+*                       COMMON ACCESS METHOD INTERFACE                  48690020

 00132C 00                          1954+         DC    AL1(0)                  BUFNO                            49050020
 00132D 000001                      1955+         DC    AL3(1)                  BUFCB                            54720020
 001330 0000                        1956+         DC    AL2(0)             BUFL                                  55170020
 001332 4000                        1957+         DC    BL2'0100000000000000'                                   *55800020
                                        +                                                 DSORG                  55890020
 001334 00000001                    1958+         DC    A(1)                     IOBAD                           56340020

                                    1960+*                       FOUNDATION EXTENSION                            56610020

 001338 00                          1962+         DC    BL1'00000000'                  BFTEK,BFLN,HIARCHY        59850020
 001339 000001                      1963+         DC    AL3(1)                  EODAD                            65970020
1PH00     IKFCBL00                                                                                              PAGE   41
-  LOC  OBJECT CODE    ADDR1 ADDR2  STMT   SOURCE STATEMENT                                       ASM 0201 11.03 02/14/15
000133C 90                          1964+         DC    BL1'10010000'                                           *66150020
                                        +                                       RECFM                            66240020
 00133D 000000                      1965+         DC    AL3(0)                  EXLST                            66330020

                                    1967+*                       FOUNDATION BLOCK                                66690020

 001340 E2E8E2D3C9D54040            1969+         DC    CL8'SYSLIN'             DDNAME                           66870020
 001348 02                          1970+         DC    BL1'00000010'           OFLGS                            68220020
 001349 00                          1971+         DC    BL1'00000000'                          IFLG              68310020
 00134A 0020                        1972+         DC    BL2'0000000000100000'                                   *68400020
                                        +                                                                       *68490020
                                        +                                       MACR                             68580020

                                    1974+*                       BSAM-BPAM-QSAM INTERFACE                        74430020

 00134C 00                          1976+         DC    BL1'00000000'                                           *74610020
                                        +                                                                   RER1 74700020
 00134D 000001                      1977+         DC    AL3(1)                  CHECK, GERR, PERR                74790020
 001350 00000D2A                    1978+         DC    A(SYAB)                 SYNAD                            74880020
 001354 0000                        1979+         DC    H'0'                    CIND1, CIND2                     74970020
 001356 0000                        1980+         DC    AL2(0)                  BLKSIZE                          75240020
 001358 00000000                    1981+         DC    F'0'                    WCPO, WCPL, OFFSR, OFFSW         75870020
 00135C 00000001                    1982+         DC    A(1)                    IOBA                             75960020
 001360 01                          1983+         DC    AL1(1)                  NCP                              76050020
 001361 000001                      1984+         DC    AL3(1)                  EOBR, EOBAD                      76140020

                                    1986+*                         BSAM-BPAM INTERFACE                           76410020

 001364 00000001                    1988+         DC    A(1)                    EOBW                             76590020
 001368 0000                        1989+         DC    H'0'                    DIRCT                            78210020
 00136A 0050                        1990+         DC    AL2(80)        LRECL                                     80730020
 00136C 00000001                    1991+         DC    A(1)                    CNTRL, NOTE, POINT               78480020
                                    1992 *                                                                       28760021
 001370                             1993 SYATBL   DS    80C         TABLE OF DD NAMES CREATED BY PHASE 01        28780021
                                    1994 *                                                                       28800021
                                    1995 *  FORMAT OF DECB'S                                                     28820021
                                    1996 *        DC    F'0'   ECB                                               28840021
                                    1997 *        DC    X'00'   TYPE                                             28860021
                                    1998 *        DC    X'80'    TYPE                                            28880021
                                    1999 *        DC    AL2(0)                                                   28900021
                                    2000 *        DC    A(DCB)    DCB ADDRESS                                    28920021
                                    2001 *        DC    A(AREO)    I-O AREA                                      28940021
                                    2002 *        DC    A(0)  POINTRRS TO I-O STATUS BLOCK                       28960021
 0013C0 0000000000000000            2003 DECBDS1  DC    2F'0'               X                                    28980021
 0013C8 00001000                    2004          DC    A(DS1)              X                                    29000021
 0013CC 0000000000000000            2005          DC    2A(0)               X                                    29020021
 0013D4 0000000000000000            2006 DECBDS2  DC    2F'0'               X                                    29040021
 0013DC 00001058                    2007          DC    A(DS2)              X                                    29060021
 0013E0 0000000000000000            2008          DC    2A(0)               X                                    29080021
 0013E8 0000000000000000            2009 DECBDS3  DC    2F'0'               X                                    29100021
 0013F0 000010B0                    2010          DC    A(DS3)              X                                    29120021
 0013F4 0000000000000000            2011          DC    2A(0)               X                                    29140021
 0013FC 0000000000000000            2012 DECBDS4  DC    2F'0'               X                                    29160021
 001404 00001108                    2013          DC    A(DS4)              X                                    29180021
 001408 0000000000000000            2014          DC    2A(0)               X                                    29200021
1PH00     IKFCBL00                                                                                              PAGE   42
-  LOC  OBJECT CODE    ADDR1 ADDR2  STMT   SOURCE STATEMENT                                       ASM 0201 11.03 02/14/15
0001410 0000000000000000            2015 DECBSIN  DC    2F'0'               X                                    29220021
 001418 000011B8                    2016          DC    A(IN)               X                                    29240021
 00141C 0000000000000000            2017          DC    2A(0)               X                                    29260021
 001424 0000000000000000            2018 DECBSOU  DC    2F'0'               X                                    29280021
 00142C 00001210                    2019          DC    A(OUT)              X                                    29300021
 001430 0000000000000000            2020          DC    2A(0)               X                                    29320021
 001438 0000000000000000            2021 DECBSPH  DC    2F'0'               X                                    29340021
 001440 000012C0                    2022          DC    A(PCH)              X                                    29360021
 001444 0000000000000000            2023          DC    2A(0)               X                                    29380021
 00144C 0000000000000000            2024 DECBSGO  DC    2F'0'               X                                    29400021
 001454 00001318                    2025          DC    A(GOF)              X                                    29420021
 001458 0000000000000000            2026          DC    2A(0)               X                                    29440021
 001460 0000000000000000            2027 DECBLIB  DC    2F'0'               X                                    29460021
 001468 00001268                    2028          DC    A(LIB)              X                                    29480021
 00146C 0000000000000000            2029          DC    2A(0)               X                                    29500021
                                    2030 *                                                                       29520021
                                    2031 *                                                                       29540021
 001474                             2032        DS    0F         AREA ALIGNMENT FOR RECORDING GET MAINS          29560021
1PH00     IKFCBL00                                                                                              PAGE   43
-  LOC  OBJECT CODE    ADDR1 ADDR2  STMT   SOURCE STATEMENT                                       ASM 0201 11.03 02/14/15
0                                   2034 START    SAVE  (14,12)                                                  29600021
 001474                             2035+START    DS    0H                                                       00660000
 001474 90EC D00C      0000C        2036+         STM   14,12,12(13)                      SAVE REGISTERS         01180000
 001478 0540                        2037          BALR  R4,R0               ESTABLISH ADDRESSABILITY             29620021
                             0147A  2038          USING *,R4                                                     29640021
 00147A 5860 405A      014D4        2039          L     R6,SVRTER                                                29660021
 00147E 50D6 0000      00000        2040          ST    R13,DX0(R6)                                              29680021
 001482 5860 4046      014C0        2041          L     R6,BXAD                                                  29700021
 001486 5016 0000      00000        2042          ST    R1,DX0(R6)                                               29720021
 00148A 5861 0000      00000        2043          L     R6,DX0(R1)                                               29740021
 00148E 5870 404A      014C4        2044          L     R7,BFAD           PICK UP EXECUTE  PARAMS                29760021
 001492 4130 0001      00001        2045          LA    R3,DX1                                                   29780021
 001496 4A36 0000      00000        2046          AH    R3,DX0(R6)                                               29800021
 00149A 4430 4052      014CC        2047          EX  R3,MPARM                                                   29820021
 00149E 5850 43BE      01838        2048          L     R5,ADCOS                                                 29840021
 0014A2 4155 0006      00006        2049          LA    R5,DX6(R5)                                               29860021
                                    2050          SPIE                                                           29880021
 0014A6                             2051+         CNOP  2,4                                                      02480000
 0014A6 4110 4038      014B2        2052+         LA    1,*+12                            LOAD BRANCH ADDRESS    02500000
 0014AA 0511                        2053+         BALR  1,1                               BRANCH AROUND PARAMS.  02520000
 0014AC 00000000                    2054+         DC    A(0)                              EXIT ROUTINE ADDRESS   02660000
 0014B0 0000                        2055+         DC    AL2(0)                            INTERUPTION MASK       02680000
 0014B2 0A0E                        2056+         SVC   14                                ISSUE SPIE SVC         02840000
 0014B4 5010 5FCA      00FD0        2057          ST    R1,SPIEAD                                                29900021
 0014B8 5810 404E      014C8        2058          L     R1,COSAD                                                 29920021
 0014BC 0501                        2059          BALR  R0,R1               PREPARE TO LINK TO PHASE01           29940021
 0014BE A1                          2060          DC    X'A1'               LINK TO NEXT PHASE                   29960021
 0014BF 00
 0014C0 00000380                    2061 BXAD   DC    A(CORELEFT)           X                                    29980021
 0014C4 00000308                    2062 BFAD     DC    A(BUFCNLS)          X                                    30000021
 0014C8 00000004                    2063 COSAD    DC    A(COSAA)            X                                    30020021
 0014CC D200 7000 6000 00000 00000  2064 MPARM    MVC   DX0(LX0,R7),DX0(R6)                                      30040021
 0014D2 0000
 0014D4 000003BC                    2065 SVRTER   DC    A(MYSAVE+4)         SYSTEM'S R13 SAVE AREA               30060021
                                    2066 *                                                                       30080021
 0014D8                             2067          DS    0F                                                       30100021
                             014D8  2068          USING *,R4                                                     30120021
 0014D8 58C0 4360      01838        2069 TRMNATE  L     PR12,ADCOS          LOAD ADDRESS OF COS                  30140021
 0014DC 415C 0006      00006        2070          LA    PR5,DX6(PR12)        LOAD BASE REGISTER                  30160021
 0014E0 58D0 5252      00258        2071          L     R13,SAVER13                                              30180021
 0014E4 91FF 436B      01843        2072          TM    SKPRSW,XXFF          DID IO ERROR OCCURR                 30200021
 0014E8 4710 4060      01538        2073          BO    SKPRNT              YES SKIP PRINTING                    30220021
 0014EC 9680 519D      001A3        2074          OI    PHZSW,LIST         SET PRINT SWITCH                      30240021
 0014F0 92F1 53A6      003AC        2075          MVI   PRINTBUF,XXF1        SET CHARACTER TO EJECT PAGE         30260021
 0014F4 9680 42E4      017BC        2076          OI    LIST2,XX80           SET BIT TO OPEN PRINTER             30280021
 0014F8 4110 42E4      017BC        2077          LA    R1,LIST2            OPEN PRINTER ONLY                    30300021
 0014FC 0A13                        2078          SVC   19                  OPEN PRINTER                         30320021
 0014FE 947F 42E4      017BC        2079          NI    LIST2,XX7F           TURN OFF DELIMITER BIT              30340021
 001502 050C                        2080          BALR  R0,R12                GO TO PUT                          30360021
 001504 16                          2081          DC    X'16'               PUT RECORD                           30380021
 001505 00
 001506 050C                        2082          BALR  R0,R12                GO TO PRINT                        30400021
 001508 86                          2083          DC    X'86'               WRITE RECORD                         30420021
 001509 00
 00150A 58F0 405C      01534        2084          L     R15,TBAPR           ADDRESSIBILITY                       30440021
1PH00     IKFCBL00                                                                                              PAGE   44
-  LOC  OBJECT CODE    ADDR1 ADDR2  STMT   SOURCE STATEMENT                                       ASM 0201 11.03 02/14/15
0                            023E8  2085          USING PH0TBST2,15                                              30460021
 00150E 91FF F63C      02A24        2086          TM    TBERCD,XXFF                                              30480021
 001512 4710 4060      01538        2087          BO    SKPRNT              NO ABEND DESIRED                     30500021
 001516 4130 0001      00001        2088          LA    R3,LX1                                                   30520021
 00151A 4120 52F9      002FF        2089          LA    R2,BLANK                                                 30540021
 00151E 050C                        2090          BALR  R0,R12              DUMMY PRINT TO UNBUFFER              30560021
 001520 16                          2091          DC    X'16'                                                    30580021
                                    2092          ABEND DX16,DUMP           QUIT FOR THIS TASK                   30600021
 001522                             2093+         DS    0H                                                       00080019
 001522 0700                        2094+         CNOP  0,4                                                      00860000
 001524 47F0 4054      0152C        2095+         B     *+8            BRANCH AROUND CONSTANT                    00880019
 001528 80                          2096+         DC    AL1(128)                          DUMP/STEP CODE         00900000
 001529 000010                      2097+         DC    AL3(DX16)                         COMPLETION CODE        00920000
 00152C 5810 4050      01528        2098+         L     1,*-4                             LOAD CODES INTO REG 1  00940000
 001530 0A0D                        2099+         SVC   13                                LINK TO ABEND ROUTINE  00960000
 001532 0000
 001534 000023E8                    2100 TBAPR    DC    A(TBPRIMEB)                                              30620021
                                    2101          DROP  15                                                       30640021
 001538 D202 5F32 4368 00F38 01840  2102 SKPRNT   MVC   PURGER(LX3),FLSHBUF  MOVE CODE TO FLUSH OUT PRINT BUF    30660021
 00153E 9216 5463      00469        2103          MVI   LINKCNT+NX1,LSWPH7                                       30680021
 001542 9210 519C      001A2        2104          MVI   RETCDE,XX10          SET RETURN CODE TO 16               30700021
 001546 47F0 5F50      00F56        2105          B     LINKB               TERMINATE RUN                        30720021
 00154A                             2106 INTERLUD DS    0H                                                       30740021
 00154A 5840 5572      00578        2107          L     PR4,CTRMNT                                               30760021
 00154E 4820 5462      00468        2108          LH    R2,LINKCNT                                               30780021
 001552 8920 0001      00001        2109          SLL   R2,DX1                                                   30800021
 001556 5822 4288      01760        2110          L     R2,PHASAD(R2)                                            30820021
 00155A 07F2                        2111          BR    R2                  GO TO CORRECT INT ROUTINE            30840021
 00155C                             2112 INT1A    DS    0H                                                       30860021
 00155C 47F0 5E42      00E48        2113          B     LINKA               GO IMMEDIATELY TO LINKA              30880021
 001560 9680 42D8      017B0        2114 INT1B    OI    LIST1,XX80                                               30900021
 001564 4110 42D8      017B0        2115          LA    R1,LIST1                                                 30920021
 001568 0A17                        2116          SVC   23                  TEMPORARY CLOSE                      30940021
 00156A 9680 42D0      017A8        2117          OI    LIST5,XX80                                               30960021
 00156E 4110 42D0      017A8        2118          LA    R1,LIST5                                                 30980021
 001572 0A17                        2119          SVC   23                  TEMPORARY CLOSE                      31000021
 001574 947F 42D0      017A8        2120          NI    LIST5,XX7F                                               31020021
 001578 9206 52B3      002B9        2121          MVI   POINT+NX9,XX06  UT4                                      31040021
 00157C 9240 52F9      002FF        2122          MVI   BLANK,XX40                                               31060021
 001580 47F0 5E42      00E48        2123          B     LINKA               NOW GO TO LINKA                      31080021
 001584 9180 519D      001A3        2124 INT2     TM    PHZSW,LIST                                               31100021
 001588 4780 40B8      01590        2125          BZ    INTMAP                                                   31120021
 00158C 9608 517D      00183        2126          OI    SWITCH+DX1,DSOU     SOURCE BIT FOR PH6 STATISTICS        31140021
 001590 9680 519D      001A3        2127 INTMAP   OI    PHZSW,LIST                                               31160021
 001594 4110 42D4      017AC        2128          LA    R1,LIST3                                                 31180021
 001598 0A17                        2129          SVC   23                                                       31200021
 00159A D201 52B2 52BE 002B8 002C4  2130          MVC   POINT+NX8(LX2),POINTM2                                   31220021
 0015A0 47F0 5E42      00E48        2131          B     LINKA               NOW GO TO LINKA                      31240021
 0015A4 4110 42D4      017AC        2132 INT3     LA    R1,LIST3                                                 31260021
 0015A8 0A17                        2133          SVC   23                                                       31280021
 0015AA 9680 42CC      017A4        2134          OI    INTO,XX80                                                31300021
 0015AE 4110 42CC      017A4        2135          LA    R1,INTO                                                  31320021
 0015B2 0A13                        2136          SVC   19                  OPEN SYSUT1 OUTPUT                   31340021
 0015B4 D201 52AC 52C0 002B2 002C6  2137          MVC   POINT+NX2(LX2),POINTM3   ALLOCATE BUFFERS                31360021
 0015BA 4110 42E8      017C0        2138          LA    R1,LIST2+NX4                                             31380021
1PH00     IKFCBL00                                                                                              PAGE   45
-  LOC  OBJECT CODE    ADDR1 ADDR2  STMT   SOURCE STATEMENT                                       ASM 0201 11.03 02/14/15
00015BE 0A14                        2139          SVC   20                  PERMANENT CLOSE                      31400021
 0015C0 47F0 5E42      00E48        2140          B     LINKA               NOW GO TO LINKA                      31420021
 0015C4                             2141 INT4     DS    0H                                                       31440021
 0015C4 9680 42CC      017A4        2142          OI    INTO,XX80           TCLOSE SYSUT1,SYSUT3                 31460021
 0015C8 4110 42C8      017A0        2143          LA    R1,LIST6                                                 31480021
 0015CC 0A17                        2144          SVC   23             TCLOSE                                    31500021
 0015CE D205 52AC 52C2 002B2 002C8  2145          MVC   POINT+NX2(LX6),POINTM4                                   31520021
 0015D4 47F0 5E42      00E48        2146          B     LINKA               NOW GO TO LINKA                      31540021
 0015D8                             2147 INT50    DS    0H                                                       31560021
 0015D8 9680 42BC      01794        2148          OI    LIST22,XX80                                              31580021
 0015DC 4110 42B8      01790        2149          LA    R1,LIST11                                                31600021
 0015E0 0A17                        2150          SVC   23                  TCLOSE SYSUT1,SYSUT2                 31620021
 0015E2 D207 52AC 52C8 002B2 002CE  2151          MVC   POINT+NX2(LX8),POINTM50  ALLOCATE BUFFERS FOR PH51       31640021
 0015E8 47F0 5E42      00E48        2152          B     LINKA               GO LINK PHASE51                      31660021
 0015EC                             2153 INT51    DS    0H             SAME AS OLD INT5 (BEFORE SPLIT PH51)      31680021
 0015EC                             2154 INT5     DS    0H                                                       31700021
 0015EC 947F 42CC      017A4        2155          NI    INTO,XX7F       TURN OFF LIST DELIMITER                  31720021
 0015F0 4110 42CC      017A4        2156          LA    R1,INTO                                                  31740021
 0015F4 0A17                        2157          SVC   23             TCLOSE SYSUT1-4                           31760021
 0015F6 9680 42E0      017B8        2158          OI    LIST4+NX4,XX80                                           31780021
 0015FA 4110 42DC      017B4        2159          LA    R1,LIST4                                                 31800021
 0015FE 0A13                        2160          SVC   19                                                       31820021
 001600 947F 42E0      017B8        2161          NI    LIST4+NX4,XX7F                                           31840021
 001604 D203 52AC 52D0 002B2 002D6  2162          MVC   POINT+NX2(LX4),POINTM5                                   31860021
 00160A 9180 519E      001A4        2163          TM    PHZSW1,XREF                                              31880021
 00160E 4780 4140      01618        2164         BZ    NOX                  NO XREF- LEAVE PURGER ALONE          31900021
 001612 D209 5F33 41FE 00F39 016D6  2165          MVC   PURGER+NX1(LX10),ALTPURGE                                31920021
 001618                             2166 NOX      DS    0H                                                       31940021
 001618 95FF 51CA      001D0        2167          CLI   SEGLMT,NOTSEG       IS PROGRAM SEGMENTED                 31960021
 00161C 4780 5E42      00E48        2168          BE    LINKA         NO    GET NEXT PHASE                       31980021
 001620 D207 52AC 52D6 002B2 002DC  2169          MVC   POINT+NX2(LX8),POINTSEG                                  32000021
 001626 47F0 5E42      00E48        2170          B     LINKA               GET PHASE 6                          32020021
 00162A                             2171 INT6     DS    0H                                                       32040021
 00162A 9180 519E      001A4        2172          TM    PHZSW1,XREF         IS XREF ON                           32060021
 00162E 4710 4180      01658        2173          BO    PREINT6X           USER HAS REQUESTED 6A                 32080021
 001632 4820 5462      00468        2174 BYPASS6A LH    R2,LINKCNT         BYPASS 6A - INCREMENT LINKCNT BY 2    32100021
 001636 4122 0002      00002        2175          LA    R2,DX2(R2)                                               32120021
 00163A 4020 5462      00468        2176          STH   R2,LINKCNT                                               32140021
 00163E 9680 519D      001A3        2177          OI    PHZSW,LIST    SET PRINT SWITCH TO PRINT ERRORS           32160021
 001642 9680 42C8      017A0        2178          OI    LIST6,XX80                                               32180021
 001646 4110 42C8      017A0        2179          LA    R1,LIST6                                                 32200021
 00164A 0A17                        2180          SVC   23                                                       32220021
 00164C 947F 42C8      017A0        2181          NI    LIST6,XX7F                                               32240021
 001650 9203 52AF      002B5        2182          MVI   POINT+NX5,XX03                                           32260021
 001654 47F0 5E42      00E48        2183          B     LINKA               NOW GO TO LINKA                      32280021
 001658 9102 519F      001A5        2184 PREINT6X TM    PHZSW2,NO6A                                              32300021
 00165C 4710 415A      01632        2185          BO    BYPASS6A  DISASTER CONDITION - MUST BYPASS 6A            32320021
                                    2186 *ALTERNATE PH6 INTERLUDE, TCLOSE SYSUT1-3, BUFFERS - UT1,2,2,1,3,PR     32340021
 001660 9680 42D0      017A8        2187 INT6X    OI    LIST5,XX80                                               32360021
 001664 4110 42C8      017A0        2188          LA    R1,LIST6                                                 32380021
 001668 0A17                        2189          SVC   23                                                       32400021
 00166A 947F 42D0      017A8        2190          NI    LIST5,XX7F                                               32420021
 00166E D201 52B0 52D4 002B6 002DA  2191          MVC   POINT+NX6(LX2),POINTMX                                   32440021
 001674 9680 42C4      0179C        2192          OI    LIST7,XX80          CLOSE SYSUT2 IF XREF           54404 32460021
 001678 4110 42C4      0179C        2193          LA    R1,LIST7            IN EFFECT TO FREE              54404 32480021
1PH00     IKFCBL00                                                                                              PAGE   46
-  LOC  OBJECT CODE    ADDR1 ADDR2  STMT   SOURCE STATEMENT                                       ASM 0201 11.03 02/14/15
000167C 0A0E                        2194          SVC   14                  CONTROL BLOCK AREA (IOB)       54404 32500021
 00167E 47F0 5E42      00E48        2195          B     LINKA               NOW GO TO LINKA                      32520021
 001682 9680 519D      001A3        2196 INT6A    OI    PHZSW,LIST                                               32540021
 001686 9203 52AF      002B5        2197          MVI   POINT+NX5,XX03                                           32560021
                                    2198 *DEL                                                                    32580021
                                    2199 *DEL                                                                    32600021
                                    2200 *DEL                                                                    32620021
 00168A 47F0 5E42      00E48        2201          B     LINKA               NOW GO TO LINKA                      32640021
 00168E                             2202 INT7     DS    0H                                                       32660021
 00168E 947F 42D8      017B0        2203          NI    LIST1,XX7F                                               32680021
 001692 947F 42D4      017AC        2204          NI    LIST3,XX7F                                               32700021
 001696 947F 42D0      017A8        2205          NI    LIST5,XX7F      TURN OFF DELIMITER                 43123 32720021
 00169A 947F 42CC      017A4        2206          NI    INTO,XX7F            TURN OFF DELIMITER BIT              32740021
 00169E 947F 42E4      017BC        2207          NI    LIST2,XX7F          TURN OFF DELIMITER             43123 32760021
 0016A2 947F 42E8      017C0        2208          NI    LIST2+DX4,XX7F      TURN OFF DELIMITER             43123 32780021
 0016A6 947F 42EC      017C4        2209          NI    LIST2+DX8,XX7F      TURN OFF DELIMITER             43123 32800021
 0016AA 9680 42F0      017C8        2210          OI    LIST2+DX12,XX80  END OF LIST                       43123 32820021
 0016AE 4110 42CC      017A4        2211          LA    R1,INTO             SETUP FOR PERMANENT CLOSE            32840021
 0016B2 0A14                        2212          SVC   20                                                       32860021
 0016B4 9501 5E41      00E47        2213          CLI   PH01SW,XX01                                              32880021
 0016B8 4780 41EA      016C2        2214          BE    SKIPFRMN            SKIP RELSPACE                        32900021
 0016BC 58F0 5E3A      00E40        2215          L     R15,RELSPACA                                             32920021
 0016C0 05EF                        2216          BALR  R14,R15             GO TO RELSPACE ROUTINE               32940021
                             016C2  2217 SKIPFRMN EQU   *                                                        32960021
 0016C2 5800 537A      00380        2218          L     R0,CORELEFT                                              32980021
 0016C6 5810 537E      00384        2219          L     R1,TAMAREA                                               33000021
 0016CA 1B01                        2220          SR    R0,R1                                                    33020021
                                    2221          FREEMAIN  R,LV=(0),A=(1)                                       33040021
 0016CC 4111 0000      00000        2222+         LA    1,0(1)                       CLEAR THE HIGH ORDER BYTE   03130018
 0016D0 0A0A                        2223+         SVC   10                      ISSUE FREEMAIN SVC         P2504 03140021
 0016D2 47F0 5DCA      00DD0        2224          B     LINKBAZ             MUST ISSUE SPIE                      33060021
 0016D6 F1F2F3F6F7F80000            2225 ALTPURGE DC    X'F1F2F3F6F7F80000F600'  ALTERNATE PURGER CT             33080021
 0016DE F600
 0016E0                             2226 CLOSOK   DS    0H                                                       33100021
 0016E0 88A0 0002      00002        2227          SRL   R10,DX2        GET ACTUAL VALUE OF FILE NUMBER           33120021
 0016E4 42A0 4264      0173C        2228          STC   R10,YVALUE                                               33140021
 0016E8 89A0 0002      00002        2229          SLL   R10,DX2                                                  33160021
 0016EC 9501 4264      0173C        2230          CLI   YVALUE,XX01                                              33180021
 0016F0 4770 4226      016FE        2231          BNE   CLOSET1             NOT SYSUT1                           33200021
 0016F4 D202 42C1 42CD 01799 017A5  2232          MVC   TLIST+NX1(LX3),INTO+NX1 T CLOSING UT1                    33220021
 0016FA 47F0 4250      01728        2233          B     CLOSET4             SYSUT1 SO SKIP TO CLOSET4            33240021
 0016FE 9502 4264      0173C        2234 CLOSET1  CLI   YVALUE,XX02                                              33260021
 001702 4770 4238      01710        2235          BNE   CLOSET2             NOT SYSUT2                           33280021
 001706 D202 42C1 42D5 01799 017AD  2236          MVC   TLIST+NX1(LX3),LIST3+NX1 T CLOSING UT2                   33300021
 00170C 47F0 4250      01728        2237          B     CLOSET4             SYSUT2 SO SKIP TO CLOSET4            33320021
 001710 9503 4264      0173C        2238 CLOSET2  CLI   YVALUE,XX03                                              33340021
 001714 4770 424A      01722        2239          BNE   CLOSET3             NOT SYSUT3                           33360021
 001718 D202 42C1 42D9 01799 017B1  2240          MVC   TLIST+NX1(LX3),LIST1+NX1 T CLOSING UT3                   33380021
 00171E 47F0 4250      01728        2241          B     CLOSET4             SYSUT3 SO SKIP TO CLOSET4            33400021
 001722 D202 42C1 42D1 01799 017A9  2242 CLOSET3  MVC   TLIST+NX1(LX3),LIST5+NX1 T CLOSING UT4                   33420021
 001728                             2243 CLOSET4  DS    0H                                                       33440021
 001728 9101 8001      00001        2244          TM    DX1(R8),XX01                                             33460021
 00172C 4780 426A      01742        2245          BZ    XREAD               BIT OFF SO SKIP NEXT INSTRS          33480021
 001730 96F0 4264      0173C        2246          OI    YVALUE,XXF0                                              33500021
 001734 5080 4284      0175C        2247          ST    R8,X8SAV                                                 33520021
1PH00     IKFCBL00                                                                                              PAGE   47
-  LOC  OBJECT CODE    ADDR1 ADDR2  STMT   SOURCE STATEMENT                                       ASM 0201 11.03 02/14/15
0001738 4500 5476      0047C        2248          BAL   R0,GOSYSGO          PURGE FILES                          33540021
 00173C 00                          2249 YVALUE   DC    X'00'               FILE NUMBER                          33560021
 00173D 00
 00173E 5880 4284      0175C        2250          L     R8,X8SAV                                                 33580021
 001742                             2251 XREAD    DS    0H                                                       33600021
 001742 4110 42C0      01798        2252          LA    R1,TLIST                                                 33620021
 001746 0A17                        2253          SVC   23                                                       33640021
 001748 45B0 5744      0074A        2254          BAL   R11,CHECKERC        SWITCH BCB POINTERS                  33660021
 00174C 88A0 0001      00001        2255          SRL   R10,DX1                                                  33680021
 001750 41AA 52AA      002B0        2256          LA    R10,POINT(R10)                                           33700021
 001754 96F0 A000      00000        2257          OI    DX0(R10),XXF0                                            33720021
 001758 47F0 581A      00820        2258          B     EXIT1               RETURN TO CALLING PHASE              33740021
 00175C                             2259 X8SAV    DS    F                   SAVE AREA FOR R8                     33760021
 001760 00000E48                    2260 PHASAD   DC    A(LINKA)            TABLE OF INTERLUDE ADDRESSES         33780021
 001764 00000E48                    2261          DC    A(LINKA)            X                                    33800021
 001768 0000155C                    2262          DC    A(INT1A)            X                                    33820021
 00176C 00001560                    2263          DC    A(INT1B)            X                                    33840021
 001770 00001584                    2264          DC    A(INT2)             X                                    33860021
 001774 000015A4                    2265          DC    A(INT3)             X                                    33880021
 001778 000015C4                    2266          DC    A(INT4)             X                                    33900021
 00177C 000015D8                    2267          DC    A(INT50)            X                                    33920021
 001780 000015EC                    2268          DC    A(INT51)            X                                    33940021
 001784 0000162A                    2269          DC    A(INT6)             LIST OF DCB'S FOR OPEN/CLOSE         33960021
 001788 00001682                    2270          DC    A(INT6A)            X                                    33980021
 00178C 0000168E                    2271          DC    A(INT7)             X                                    34000021
 001790                             2272          CNOP 0,4                                                       34020021
 001790 17                          2273 LIST11   DC    X'17'               X                                    34040021
 001791 001000                      2274          DC    AL3(DS1)            X                                    34060021
 001794 17                          2275 LIST22   DC    X'17'               X                                    34080021
 001795 001058                      2276          DC    AL3(DS2)            X                                    34100021
 001798 97                          2277 TLIST    DC    X'97'               X                                    34120021
 001799 000000                      2278          DC    AL3(0)              X                                    34140021
 00179C 17                          2279 LIST7    DC    X'17'               X                                    34160021
 00179D 001058                      2280          DC    AL3(DS2)            X                                    34180021
 0017A0 17                          2281 LIST6    DC    X'17'               X                                    34200021
 0017A1 0010B0                      2282          DC    AL3(DS3)            X                                    34220021
 0017A4 17                          2283 INTO     DC    X'17'               X                                    34240021
 0017A5 001000                      2284          DC    AL3(DS1)            X                                    34260021
 0017A8 17                          2285 LIST5    DC    X'17'               X                                    34280021
 0017A9 001108                      2286          DC    AL3(DS4)            X                                    34300021
 0017AC 17                          2287 LIST3    DC    X'17'               X                                    34320021
 0017AD 001058                      2288          DC    AL3(DS2)            X                                    34340021
 0017B0 17                          2289 LIST1    DC    X'17'               X                                    34360021
 0017B1 0010B0                      2290          DC    AL3(DS3)            X                                    34380021
 0017B4 3F                          2291 LIST4    DC    X'3F'               X                                    34400021
 0017B5 001318                      2292          DC    AL3(GOF)            X                                    34420021
 0017B8 3F                          2293          DC    X'3F'               X                                    34440021
 0017B9 0012C0                      2294          DC    AL3(PCH)            X                                    34460021
 0017BC 3F                          2295 LIST2    DC    X'3F'               X                                    34480021
 0017BD 001210                      2296          DC    AL3(OUT)            X                                    34500021
 0017C0 00                          2297          DC    X'00'               X                                    34520021
 0017C1 0011B8                      2298          DC    AL3(IN)             X                                    34540021
 0017C4 30                          2299          DC    X'30'               X                                    34560021
 0017C5 001268                      2300          DC    AL3(LIB)            X                                    34580021
 0017C8 9F                          2301          DC    X'9F'               X                                    34600021
1PH00     IKFCBL00                                                                                              PAGE   48
-  LOC  OBJECT CODE    ADDR1 ADDR2  STMT   SOURCE STATEMENT                                       ASM 0201 11.03 02/14/15
00017C9 001160                      2302          DC    AL3(SPILL)          X                                    34620021
 0017CC 4120 4304      017DC        2303 NOLIBRY  LA    R2,MESSLIB           LOAD ADDRESS OF MESSAGE             34640021
 0017D0 4130 0059      00059        2304          LA    R3,DX89                                                  34660021
 0017D4 58D0 5252      00258        2305          L     R13,SAVER13                                              34680021
 0017D8 47F0 4000      014D8        2306          B     TRMNATE             GO TO TERMINATE RUN                  34700021
                                    2307 *                                                                       34720021
 0017DC C9D2C6F0F0F0F2C9            2308 MESSLIB  DC    C'IKF0002I-D INVALID BASIS LIBRARY NAME OR LIB '         34740021
 0017E4 60C440C9D5E5C1D3
 0017EC C9C440C2C1E2C9E2
 0017F4 40D3C9C2D9C1D9E8
 0017FC 40D5C1D4C540D6D9
 001804 40D3C9C240
 001809 D6D7E3C9D6D540D5            2309          DC    C'OPTION NOT SPECIFIED. COMPILATION ABANDONED.'          34760021
 001811 D6E340E2D7C5C3C9
 001819 C6C9C5C44B40C3D6
 001821 D4D7C9D3C1E3C9D6
 001829 D540C1C2C1D5C4D6
 001831 D5C5C44B
 001835 000000
 001838 00000000                    2310 ADCOS    DC    A(COS)              X                                    34780021
 00183C 00001370                    2311 ADSYAT DC    A(SYATBL)             X                                    34800021
 001840 00F600                      2312 FLSHBUF  DC    X'00F600'           CONSTANT TO FLUSH PRINT BUFFER       34820021
 001843 00                          2313 SKPRSW   DC    X'00'               X                                    34840021
                             00002  2314 LSWPH01  EQU   X'2'                                                     34860021
                             00004  2315 LSWPH1A  EQU   X'4'                                                     34880021
                             00006  2316 LSWPH1B  EQU   X'6'                                                     34900021
                             00008  2317 LSWPH2   EQU   X'8'                                                     34920021
                             0000A  2318 LSWPH3   EQU   X'A'                                                     34940021
                             0000C  2319 LSWPH4   EQU   X'C'                                                     34960021
                             0000E  2320 LSWPH50  EQU   X'E'                                                     34980021
                             00010  2321 LSWPH51  EQU   X'10'                                                    35000021
                             00012  2322 LSWPH6   EQU   X'12'                                                    35020021
                             00014  2323 LSWPH6A  EQU   X'14'                                                    35040021
                             00016  2324 LSWPH7   EQU   X'16'                                                    35060021
                             00050  2325 LNKRQST1 EQU   X'50'                                                    35080021
                             000A0  2326 LNKRQST2 EQU   X'A0'                                                    35100021
                             000CC  2327 EXTCALL  EQU   X'CC'                                                    35120021
                                    2328          DROP  R4                                                       35140021
                                    2329          DROP  R5                                                       35160021
1PH00     IKFCBL00                                                                                              PAGE   49
-  LOC  OBJECT CODE    ADDR1 ADDR2  STMT   SOURCE STATEMENT                                       ASM 0201 11.03 02/14/15
-
-
 001848                             2332 PH0TBST1 CSECT                                                          35220021
                                    2333 *                                                                       35240021
                                    2334 ******                                                           **     35260021
                                    2335 *                                                                       35280021
                                    2336 *                                                                       35300021
                                    2337 *                       TABLE - HANDLING ROUTINES                       35320021
                                    2338 *                           BASE REGISTERS                              35340021
                                    2339 *                        R15   INSTRUCTION AREAS                        35360021
                                    2340 *                        R11   INSTRUCTION AREAS                        35380021
                                    2341 *                        R12   DATA AREAS                               35400021
                                    2342 *                                                                       35420021
                                    2343 *                                                                       35440021
                                    2344 ******                                                           **     35460021
                                    2345 *        EXTERNAL CALL TO TABLE HANDLER.                                35480021
                                    2346 *                                                                       35500021
                                    2347 *                                                                       35520021
                             02A28  2348          USING TBDATA,R12                                               35540021
                             01928  2349          USING TBCOMMN,R11                                              35560021
                             01848  2350          USING *,R15                                                    35580021
0
 001848 900F F098      018E0        2352 PRIME    STM   R0,R15,TBSAV1                                            35620021
 00184C 45E0 F088      018D0        2353          BAL   R14,TBINITRG        INITIALIZE BASE REGISTERS            35640021
 001850 07FF                        2354          BR    R15                 GO TO TBPRIMEB                       35660021
0
                             01852  2356          USING *,R15                                                    35700021
 001852 900F F08E      018E0        2357 INSERT   STM   R0,R15,TBSAV1                                            35720021
 001856 45E0 F07E      018D0        2358          BAL   R14,TBINITRG        INITIALIZE BASE REGISTERS            35740021
 00185A 58E0 C4C0      02EE8        2359          L     R14,TBAINSTA                                             35760021
 00185E 07FE                        2360          BR    R14                 GO TO TBINSERT                       35780021
0
                             01860  2362          USING *,R15                                                    35820021
 001860 900F F080      018E0        2363 TABREL   STM   R0,R15,TBSAV1                                            35840021
 001864 45E0 F070      018D0        2364          BAL   R14,TBINITRG        INITIALIZE BASE REGISTERS            35860021
 001868 58E0 C4B8      02EE0        2365          L     R14,TBATABRL                                             35880021
 00186C 07FE                        2366          BR    R14                 GO TO TBTABREL                       35900021
0
                             0186E  2368          USING *,R15                                                    35940021
 00186E 900F F072      018E0        2369 TAMEIN   STM   R0,R15,TBSAV1                                            35960021
 001872 45E0 F062      018D0        2370          BAL   R14,TBINITRG        INITIALIZE BASE REGISTERS            35980021
 001876 58E0 C4BC      02EE4        2371          L     R14,TBATAMEN                                             36000021
 00187A 07FE                        2372          BR    R14                 GO TO TBTAMEIN                       36020021
0
                             0187C  2374          USING *,R15                                                    36060021
 00187C 900F F064      018E0        2375 STATIC   STM   R0,R15,TBSAV1                                            36080021
1PH00     IKFCBL00                                                                                              PAGE   50
-  LOC  OBJECT CODE    ADDR1 ADDR2  STMT   SOURCE STATEMENT                                       ASM 0201 11.03 02/14/15
0001880 45E0 F054      018D0        2376          BAL   R14,TBINITRG        INITIALIZE BASE REGISTERS            36100021
 001884 58E0 C4C4      02EEC        2377          L     R14,TBASTATC                                             36120021
 001888 07FE                        2378          BR    R14                 GO TO TBSTATIC                       36140021
0
                             0188A  2380          USING *,R15                                                    36180021
 00188A 900F F056      018E0        2381 DICSPC   STM   R0,R15,TBSAV1                                            36200021
 00188E 45E0 F046      018D0        2382          BAL   R14,TBINITRG        INITIALIZE BASE REGISTERS            36220021
 001892 58E0 C4C8      02EF0        2383          L     R14,TBADICSP                                             36240021
 001896 07FE                        2384          BR    R14                 GO TO TBDICSPC                       36260021
0
                             01898  2386          USING *,R15                                                    36300021
 001898 900F F048      018E0        2387 MOVDIC   STM   R0,R15,TBSAV1                                            36320021
 00189C 45E0 F038      018D0        2388          BAL   R14,TBINITRG        INITIALIZE BASE REGISTERS            36340021
 0018A0 58E0 C4D8      02F00        2389          L     R14,TBAMOVDI                                             36360021
 0018A4 07FE                        2390          BR    R14                 GO TO TBMOVDIC                       36380021
0
                             018A6  2392          USING *,R15                                                    36420021
                             018A6  2393 RELDIC   EQU   *                                                        36440021
 0018A6 900F F03A      018E0        2394 TAMEOP   STM   R0,R15,TBSAV1                                            36460021
 0018AA 45E0 F02A      018D0        2395          BAL   R14,TBINITRG        INITIALIZE BASE REGISTERS            36480021
 0018AE 58E0 C4DC      02F04        2396          L     R14,TBATAMEP                                             36500021
 0018B2 07FE                        2397          BR    R14                 GO TO TBTAMEOP                       36520021
-
                             018B4  2399          USING *,R15                                                    36560021
 0018B4 900F F02C      018E0        2400 RELSPACE STM   R0,R15,TBSAV1                                            36580021
 0018B8 45E0 F01C      018D0        2401          BAL   R14,TBINITRG        INITIALIZE BASE REGISTERS            36600021
 0018BC 58E0 C4D0      02EF8        2402          L     R14,TBRELSPA                                             36620021
 0018C0 07FE                        2403          BR    R14                 GO TO TBRELSPC                       36640021
                                    2404 *                                                                       36660021
                             018C2  2405          USING *,R15                                                    36680021
 0018C2 900F F01E      018E0        2406 GETALL   STM   R0,R15,TBSAV1       PHASE 6 & 6A CALL FOR ALL AVAIL SPAC 36700021
                                    2407 *                                                                       36720021
 0018C6 45E0 F00E      018D0        2408          BAL   R14,TBINITRG        INITIALIZE BASE REGISTERS            36740021
 0018CA 58E0 C4EC      02F14        2409          L     R14,TBAGTALL                                             36760021
 0018CE 07FE                        2410          BR    R14                 GO TO TBGETALL                       36780021
-
0
                                    2412 ******              THIS ROUTINE INITIALIZES BASE REGISTERS      **     36820021

 0018D0 05F0                        2414 TBINITRG BALR  R15,R0              ESTABLISH ADDRESSABILITY             36860021
                             018D2  2415          USING *,R15                                                    36880021
 0018D2 58C0 F04E      01920        2416          L     R12,TBADATA                                              36900021
 0018D6 58B0 F052      01924        2417          L     R11,TBACOMMN                                             36920021
 0018DA 58F0 C4CC      02EF4        2418          L     R15,TBAPRIME                                             36940021
 0018DE 07FE                        2419          BR    R14                 RETURN TO NEXT SEQUENTIAL INSTR      36960021
 0018E0                             2420 TBSAV1   DS    16F                 REGISTER SAVEAREA                    36980021
 001920 00002A28                    2421 TBADATA  DC    A(TBDATA)           X                                    37000021
1PH00     IKFCBL00                                                                                              PAGE   51
-  LOC  OBJECT CODE    ADDR1 ADDR2  STMT   SOURCE STATEMENT                                       ASM 0201 11.03 02/14/15
0001924 00001928                    2422 TBACOMMN DC    A(TBCOMMN)          X                                    37020021
-
                             023E8  2424          USING TBPRIMEB,R15                                             37060021
1PH00     IKFCBL00                                                                                              PAGE   52
-  LOC  OBJECT CODE    ADDR1 ADDR2  STMT   SOURCE STATEMENT                                       ASM 0201 11.03 02/14/15
0                                   2426 *        COMMON SUBROUTINE AREA.                                        37100021
                                    2427 *                                                                       37120021
                             01928  2428 TBCOMMN EQU    *                                                        37140021
-
0
                                    2430 ******                                                           **     37180021
                                    2431 *           THIS ROUTINE WILL WRITE OUT A SECTION OF THE DICTIONARY     37200021
                                    2432 *           IT IS CALLED BY TBSPILL.                                    37220021
                                    2433 *           INPUT -   R9  POINTS TO START ADDRESS OF SECTION TO BE      37240021
                                    2434 *                     SPILLED.                                          37260021
                                    2435 *           OUTPUT -  ENTRY IN DICOT TABLE IS MODIFIED                  37280021
                                    2436 ******                                                           **     37300021
 001928 90E7 C488      02EB0        2437 TBWRITE  STM   R14,R7,TYWSAVR                                           37320021
 00192C 5850 C3B8      02DE0        2438          L     R5,TYSPLAD          PUT DCB ADD IN R5                    37340021
 001930 1869                        2439          LR    R6,R9                                                    37360021
 001932 45E0 B672      01F9A        2440          BAL   R14,TBGETDIC        GET ENTRY IN DICOT TABLE             37380021
 001936 9120 7000      00000        2441          TM    DX0(R7),TBUPDATE     IS U FLAG ON IN DICOT TABLE         37400021
 00193A 4710 B0DA      01A02        2442          BO    TYXD                YES GO TO ISSUE XDAP                 37420021
                                    2443          WRITE TYDECB,SF,(R5),(R9) ISSUE WRITE MACRO                    37440021
 00193E 0700                        2444+         CNOP  0,4                                                      02179019
 001940 4510 B030      01958        2445+         BAL   1,*+24                   LOAD DECB ADDRESS               02187003
 001944 00000000                    2446+TYDECB   DC    F'0'                              EVENT CONTROL BLOCK    02200000
 001948 00                          2447+         DC    X'00'                             TYPE FIELD             02360000
 001949 20                          2448+         DC    X'20'                             TYPE FIELD             00840000
 00194A 0000                        2449+         DC    AL2(0)                            LENGTH                 02480000
 00194C 00000000                    2450+         DC    A(0)                              DCB ADDRESS            02580000
 001950 00000000                    2451+         DC    A(0)                              AREA ADDRESS           02700000
 001954 00000000                    2452+         DC    A(0)                              RECORD POINTER WORD    02720000
 001958 5051 0008      00008        2453+         ST    R5,8(1,0)                         STORE DCB ADDRESS      02786803
 00195C 5091 000C      0000C        2454+         ST    R9,12(1,0)                        STORE AREA ADDRESS     02820000
 001960 58F1 0008      00008        2455+         L     15,8(1,0)           LOAD DCB ADDRESS                     02091503
 001964 58F0 F030      00030        2456+         L     15,48(0,15)                       LOAD RDWR ROUTINE ADDR 02097203
 001968 05EF                        2457+         BALR  14,15                             LINK TO RDWR ROUTINE   02102903
                                    2458          CHECK TYDECB                                                   37460021
 00196A 4110 B01C      01944        2459+         LA    1,TYDECB                          LOAD PARAMETER REG 1   00100000
 00196E 58E0 1008      00008        2460+         L     14,8(0,1)                         PICK UP DCB ADDRESS    00100000
 001972 58F0 E034      00034        2461+         L     15,52(0,14)                       LOAD CHECK ROUT. ADDR. 00120000
 001976 05EF                        2462+         BALR  14,15                             LINK TO CHECK ROUTINE  00140000
 001978 58F0 C4CC      02EF4        2463          L     R15,TBAPRIME                                             37480021
 00197C D207 7004 5005 00004 00005  2464          MVC   DX4(LX8,R7),DX5(R5)                                      37500021
 001982 47F0 B0F6      01A1E        2465          B     TYSETF              X                                    37520021
 001986 4147 0004      00004        2466 TYXDAP1  LA    R4,DX4(R7)                                               37540021
 00198A 94BF B084      019AC        2467          NI    TYXECB,XXBF                                              37560021
                                    2468 TYXDAP   XDAP  TYXECB,WI,(R5),(R9),512,,(R4)                            37580021
 00198E                             2469+TYXDAP   DS    0H                                                       00240000
 00198E 4110 B088      019B0        2470+         LA    1,TYXECB+4                        LOAD IOB ADDRESS       03940000
 001992 5051 0014      00014        2471+         ST    R5,20(1,0)                        STORE DCB IN IOB       04040000
 001996 D207 1020 4000 00020 00000  2472+         MVC   32(8,1),0(R4)                                            04180000
 00199C 5090 1038      00038        2473+         ST    R9,56(0,1)               STORE AREA ADDRESS      S20201  04690020
 0019A0 920D 1038      00038        2474+         MVI   56(1),X'0D'              MOVE WI CODE TO CCW3    S20201  03530020
 0019A4 47F0 B0C8      019F0        2475+         B     IHB0054Y                          BRANCH AROUND          04820000
 0019A8 07000700                    2476+         CNOP  4,8                                                      04840000
1PH00     IKFCBL00                                                                                              PAGE   53
-  LOC  OBJECT CODE    ADDR1 ADDR2  STMT   SOURCE STATEMENT                                       ASM 0201 11.03 02/14/15
00019AC 00000000                    2477+TYXECB   DC    1F'0'                             EVENT CONTROL BLOCK    04860000
 0019B0 43                          2478+         DC    X'43'                             FLAG IN IOB    XA05475 04880031
 0019B1 000000                      2479+         DC    X'000000'                         FILL 1ST WORD OF IOB   04900000
 0019B4 00                          2480+         DC    X'00'                             START 2ND WD OF IOB    04920000
 0019B5 0019AC                      2481+         DC    AL3(TYXECB)                       ECB ADDR IN IOB        04960000
 0019B8 0000000000000000            2482+         DC    2F'0'                       3RD AND 4TH WD OF IOB        05020000
 0019C0 00                          2483+         DC    X'00'                             START 5TH WORD OF IOB  05040000
 0019C1 0019D8                      2484+         DC    AL3(TYXECB+44)           CCW START ADDR IN IOB   S20201  05060020
 0019C4 00                          2485+         DC    X'00'                             START 6TH WD IN IOB    05080000
 0019C5 000005                      2486+         DC    AL3(R5)                           DCB ADDR IN IOB        05100000
 0019C8 0000000000000000            2487+         DC    2F'0'                             7TH AND 8TH WD OF IOB  05120000
 0019D0 0000000000000000            2488+IHB00542 DC    2F'0'                             IOBSEEK DOUBLE WD      05140000
                             019D8  2489+IHB00541 EQU   *                                                S20201  05165020
 0019D8 31                          2490+         DC    X'31'                             OP CODE IN CCW1        05200000
 0019D9 0019D3                      2491+         DC    AL3(IHB00542+3)                   IOBSEEK&3 IN CCW1      05220000
 0019DC 40                          2492+         DC    X'40'                             FLAG IN CCW1           05360000
 0019DD 00                          2493+         DC    X'00'                             BYTE 2, WD 2 OF CCW1   05380000
 0019DE 0005                        2494+         DC    H'05'                             COUNT FIELD IN CCW1    05420000
 0019E0 08                          2495+         DC    X'08'                             OP CODE IN CCW2        05560000
 0019E1 0019D8                      2496+         DC    AL3(IHB00541)                     CCW1 ADDR IN CCW2      05580000
 0019E4 00000000                    2497+         DC    F'0'                              2ND WD OF CCW2         05600000
 0019E8 0D                          2498+         DC    X'0D'                             WI CODE IN CCW3        05760000
 0019E9 000009                      2499+         DC    AL3(R9)                           AREA ADDRESS IN CCW3   05960000
 0019EC 00                          2500+         DC    X'00'                             FLAG IN CCW3           06000000
 0019ED 00                          2501+         DC    X'00'                             2ND BYTE, 2ND WD CCW3  06060000
 0019EE 0200                        2502+         DC    AL2(512)                          LENGTH IN CCW3         06100000
                             019F0  2503+IHB0054Y EQU   *                                                        06180000
 0019F0 0A00                        2504+         SVC   0                                  EXCP SVC              06200000
                                    2505          WAIT  1,ECB=TYXECB                                             37600021
 0019F2 4110 B084      019AC        2506+         LA    1,TYXECB                          LOAD PARAMETER REG 1   00100000
 0019F6 4100 0001      00001        2507+         LA    0,1(0,0)                          LOAD PARAMETER REG 0   00280000
 0019FA 0A01                        2508+         SVC   1                                 LINK TO WAIT ROUTINE   00280000

                                    2510 *                                  RESTORE BASE REGISTER AFTER SVC      37640021
 0019FC 58F0 C4CC      02EF4        2511          L     R15,TBAPRIME                                             37660021
 001A00 07F2                        2512          BCR   R15,R2              X                                    37680021
 001A02 5820 C4B4      02EDC        2513 TYXD     L     R2,TBAPHASW                                              37700021
                                    2514 *                                  IS IT PHASE 3, IF NOT BRANCH         37720021
 001A06 9505 2000      00000        2515          CLI   DX0(R2),TAM3Q                                            37740021
 001A0A 4770 B0EE      01A16        2516          BNE   TYXD1               NOT EQUAL TO X'05'                   37760021
                                    2517 *                                  IF SECT UNCHANGED SINCE LAS WRIT     37780021
                                    2518 *                                  OUT, DON'T WRITE AGAIN               37800021
 001A0E 9110 7000      00000        2519          TM    DX0(R7),TBFLWRTR                                         37820021
 001A12 4780 B0F6      01A1E        2520          BZ    TYSETF              SKIP NEXT 2 INSTRUCTIONS             37840021
 001A16 920D B079      019A1        2521 TYXD1    MVI   TYXDAP+NX19,XX0D                                         37860021
 001A1A 4520 B05E      01986        2522          BAL   R2,TYXDAP1          MUST ISSUE XDAP                      37880021
 001A1E 92A0 7000      00000        2523 TYSETF   MVI   DX0(R7),TBSPILD+TBUPDATE                                 37900021
                                    2524 *                                                                       37920021
 001A22 98E7 C488      02EB0        2525          LM    R14,R7,TYWSAVR                                           37940021
 001A26 07FE                        2526          BR    R14                 RETURN TO NEXT SEQUENTIAL INSTR      37960021

                                    2528 ******                                                           **     38000021
                                    2529 *           THIS ROUTINE WILL READ BACK A SECTION OF THE DICTIONARY     38020021
                                    2530 *           IT IS CALLED BY TBMDVDIC AND TBTAMEIN                       38040021
                                    2531 *           INPUT -  R9 HAS ADDRESS IN CORE INTO WHICH SECTION          38060021
1PH00     IKFCBL00                                                                                              PAGE   54
-  LOC  OBJECT CODE    ADDR1 ADDR2  STMT   SOURCE STATEMENT                                       ASM 0201 11.03 02/14/15
0                                   2532 *                    SHOULD BE READ.  R7 HAS POINTER TO DICOT TABLE     38080021
                                    2533 *           OUTPUT - ENTRY IN DICOT TABLE IS MODIFIED                   38100021
                                    2534 ******                                                           **     38120021

 001A28 90E7 C488      02EB0        2536 TBREADIC STM   R14,R7,TYWSAVR                                           38160021
 001A2C 5850 C3B8      02DE0        2537          L     R5,TYSPLAD          GET DCB ADDRESS                      38180021
                                    2538 *                                                                       38200021
 001A30 920E B079      019A1        2539          MVI   TYXDAP+NX19,XX0E                                         38220021
 001A34 4520 B05E      01986        2540          BAL   R2,TYXDAP1          MUST ISSUE XDAP                      38240021
 001A38 5097 0000      00000        2541          ST    R9,DX0(R7)           STORE CORE ADD IN DICOT TABLE       38260021
 001A3C 9260 7000      00000        2542          MVI   DX0(R7),TBIN+TBUPDATE                                    38280021
 001A40 5820 C4B4      02EDC        2543          L     R2,TBAPHASW             GET  NXT PHASE NO IN R2          38300021
 001A44 9503 2000      00000        2544          CLI   DX0(R2),XX03             IS THIS PHASE 2                 38320021
 001A48 4770 B128      01A50        2545          BNE   TBRNP2              RESTORE REGISTERS AND RETURN         38340021
 001A4C 9610 7000      00000        2546          OI    DX0(R7),XX10             TURN  ON  BIT 3 OF DICT SIG     38360021
                             01A50  2547 TBRNP2   EQU    *                                                       38380021
 001A50 98E7 C488      02EB0        2548          LM    R14,R7,TYWSAVR                                           38400021
 001A54 07FE                        2549          BR    R14                 RETURN TO CALLING ROUTINE            38420021
-
0
                                    2551 *                                                                       38460021
                                    2552 *      TBTAMEOP    - INTERPHASE INITIALIZATION ROUTINE.                 38480021
                                    2553 *                                                                       38500021
                                    2554 *                                                                       38520021
-
0
                             01A56  2556 TBRELSPC EQU   *                                                  46147 38560021
 001A56 5870 C52C      02F54        2557          L     R7,TBSPACGT   ANY COBOL SPACE                      46147 38580021
 001A5A 1277                        2558          LTR   R7,R7         GOTTEN                               46147 38600021
 001A5C 4780 F50A      028F2        2559          BZ    TBTAMENX      NO, FREE MFA ONLY                    46147 38620021
 001A60 4180 C530      02F58        2560          LA    R8,GETTABLE   POINT TO GET TABLE                   46147 38640021
 001A64 5980 C574      02F9C        2561 TBREL1   C     R8,AGETEND    LOOKED AT WHOLE TABLE                46147 38660021
 001A68 4780 B15C      01A84        2562          BE    TBRELEND      EXIT                                 46147 38680021
 001A6C 9801 8000      00000        2563          LM    R0,R1,DX0(R8) SET UP TO FREE                       46147 38700021
 001A70 1200                        2564          LTR   R0,R0         HAS ANY BEEN GOTTEN                  46147 38720021
 001A72 4780 B154      01A7C        2565          BZ    TBREL2        FOR THIS ENTRY, NO                   46147 38740021
                                    2566          FREEMAIN R,LV=(0),A=(1)   GIVE IT BACK                   46147 38760021
 001A76 4111 0000      00000        2567+         LA    1,0(1)                       CLEAR THE HIGH ORDER BYTE   03130018
 001A7A 0A0A                        2568+         SVC   10                      ISSUE FREEMAIN SVC         P2504 03140021
 001A7C 4188 0008      00008        2569 TBREL2   LA    R8,DX8(R8)    LOOK AT NEXT ENTRY                   46147 38780021
 001A80 47F0 B13C      01A64        2570          BC    UNCOND,TBREL1 UNTIL FINISHED                       46147 38800021
 001A84 58F0 B164      01A8C        2571 TBRELEND L     R15,TBTAMNXA  A(TBTAMENX)                          46147 38820021
 001A88 07FF                        2572          BR    R15           X                                    46147 38840021
 001A8A 0000
 001A8C 000028F2                    2573 TBTAMNXA DC    A(TBTAMENX)   ENSURE R15 AFTER FREEMAIN            46147 38860021
                                    2574 *DEL                                                                    38880021
                                    2575 *DEL                                                                    38900021
                                    2576 *DEL                                                                    38920021
                                    2577 *DEL                                                                    38940021
1PH00     IKFCBL00                                                                                              PAGE   55
-  LOC  OBJECT CODE    ADDR1 ADDR2  STMT   SOURCE STATEMENT                                       ASM 0201 11.03 02/14/15
0                                   2578 *DEL                                                                    38960021
                                    2579 *DEL                                                                    38980021
                                    2580 *DEL                                                                    39000021
                                    2581 *DEL                                                                    39020021
                                    2582 *DEL                                                                    39040021
                                    2583 *DEL                                                                    39060021
                                    2584 *DEL                                                                    39080021
                             01A90  2585 TBTAMEOP EQU   *                                                        39100021
                                    2586 *                                                                       39120021
                                    2587 *                                                                       39140021
 001A90 58A0 C4B4      02EDC        2588          L     R10,TBAPHASW                                             39160021
                                    2589 *                                                                       39180021
                                    2590 *                                                                       39200021
                                    2591 *                                                                       39220021
                                    2592 *                                                                       39240021
                                    2593 *                                                                       39260021
                                    2594 *                                                                       39280021
 001A94 9505 A000      00000        2595 TBINTP01 CLI   DX0(R10),TAM3Q                                           39300021
 001A98 4770 B1A0      01AC8        2596          BNE   TBINTP04            NOT EQUAL TO X'05'                   39320021
 001A9C 9601 C589      02FB1        2597          OI    TBSWGENE,TBFLNODC                                        39340021
 001AA0 4140 C000      02A28        2598          LA    R4,TBMASTAM         RELEASE DICTIONARY SPACE             39360021
 001AA4 5854 0000      00000        2599 TBINTP0X L     R5,TBDBEGAR(R4)                                          39380021
 001AA8 5864 0008      00008        2600          L     R6,TBDSTADD(R4)                                          39400021
 001AAC 5874 0004      00004        2601          L     R7,TBDLENG(R4)                                           39420021
 001AB0 1B65                        2602          SR    R6,R5                                                    39440021
 001AB2 1B76                        2603          SR    R7,R6                                                    39460021
 001AB4 5074 000C      0000C        2604          ST    R7,TBDCLENG(R4)                                          39480021
 001AB8 5940 C3BC      02DE4        2605          C     R4,TBLASMTM                                              39500021
 001ABC 4780 B1A0      01AC8        2606          BE    TBINTP04            R4=@LAST MASTAM USED SO FAR          39520021
 001AC0 4144 001C      0001C        2607          LA    R4,TBMSTMLG(R4)                                          39540021
 001AC4 47F0 B17C      01AA4        2608          BC    UNCOND,TBINTP0X     LOOP THROUGH UNTIL EQUAL             39560021
 001AC8 1B55                        2609 TBINTP04 SR    R5,R5                                                    39580021
 001ACA 435A 0000      00000        2610          IC    R5,DX0(R10)                                              39600021
 001ACE 4250 C588      02FB0        2611          STC   R5,TBPHZNO                                               39620021
 001AD2 9509 C588      02FB0        2612          CLI   TBPHZNO,TAM6Q                                            39640021
 001AD6 4780 B1EE      01B16        2613          BE    TBINTP03            TBPHZNO = X'08'                      39660021
 001ADA 4A50 C57A      02FA2        2614          AH    R5,TBCOM001                                              39680021
 001ADE 8950 0002      00002        2615          SLL   R5,DX2                                                   39700021
 001AE2 5865 C4FC      02F24        2616          L     R6,PCBSPT(R5)                                            39720021
 001AE6 5870 C52C      02F54        2617 TBINTP05 L     R7,TBSPACGT                                              39740021
 001AEA 1B67                        2618          SR    R6,R7                                                    39760021
 001AEC 1266                        2619          LTR   R6,R6                                                    39780021
 001AEE 47B0 F50A      028F2        2620          BNM   TBTAMENX            RESTORE REGISTERS AND BRANCH         39800021
 001AF2 1076                        2621          LPR   R7,R6                                                    39820021
 001AF4 5070 C550      02F78        2622          ST    R7,FREEMANE                                              39840021
 001AF8 9602 C589      02FB1        2623          OI    TBSWGENE,TBSPASKD                                        39860021
                                    2624 *                                                                       39880021
                                    2625 *                                  HAVE TO GIVE SOME BACK               39900021
 001AFC 45E0 BA8A      023B2        2626 TBINTP02 BAL   R14,TBPACKGN        PACK ALL TABLES IN ALL MASTAMS       39920021
 001B00 4140 C000      02A28        2627          LA    R4,TBMASTAM         POINT R4 TO 1ST MASTAM               39940021
 001B04 4154 0038      00038        2628          LA    R5,DX56(R4)          POINT R5 TO 3RD MASTAM              39960021
 001B08 5855 0000      00000        2629          L     R5,DX0(R5)                                               39980021
 001B0C 1255                        2630          LTR   R5,R5               IS IT BEING USED                     40000021
 001B0E 4770 F60A      029F2        2631          BNZ   TBERR4              YES - WE CAN'T HANDLE THIS           40020021
                                    2632 *                                  ABANDON COMPILATION                  40040021
1PH00     IKFCBL00                                                                                              PAGE   56
-  LOC  OBJECT CODE    ADDR1 ADDR2  STMT   SOURCE STATEMENT                                       ASM 0201 11.03 02/14/15
0001B12 47F0 B2E6      01C0E        2633          BC    UNCOND,TBINTP20     MUST ALTER TBLSUM,ETC                40060021
 001B16 5860 C524      02F4C        2634 TBINTP03 L     R6,CBSPH7                                                40080021
 001B1A 47F0 B1BE      01AE6        2635          BC    UNCOND,TBINTP05     GO IMMEDIATELY TO TBINTP05           40100021
 001B1E 5860 C52C      02F54        2636 TBINTP09 L     R6,TBSPACGT                                              40120021
 001B22 1B60                        2637          SR    R6,R0                                                    40140021
 001B24 1266                        2638          LTR   R6,R6                                                    40160021
 001B26 4770 B206      01B2E        2639          BNZ   TBINTP10            LEAVE TBSWGENE ALONE                 40180021
 001B2A 94FD C589      02FB1        2640          NI    TBSWGENE,SPACASK                                         40200021
 001B2E 5060 C52C      02F54        2641 TBINTP10 ST    R6,TBSPACGT                                              40220021
 001B32 4180 C530      02F58        2642          LA    R8,GETTABLE                                              40240021
 001B36 5918 0004      00004        2643 FREELOOK C     R1,DX4(R8)                                               40260021
 001B3A 4780 B238      01B60        2644          BE    FREEHIT             R8 = @ GETEND                        40280021
 001B3E 5980 C574      02F9C        2645          C     R8,AGETEND                                               40300021
 001B42 4780 F5FA      029E2        2646          BE    TBERR1              R8 = AGETEND                         40320021
 001B46 4188 0008      00008        2647          LA    R8,DX8(R8)                                               40340021
 001B4A 47F0 B20E      01B36        2648          BC    UNCOND,FREELOOK     LOOP THROUGH UNTIL EQUAL             40360021
                                    2649 *                                                                 58329 40380021
 001B4E 0000
 001B50 0000000000000000            2650 FREESV   DC    4F'0'               SAVE REGS. DESTROYED BY FREEMN 58329 40400021
 001B58 0000000000000000
                                    2651 *                                                                 58329 40420021
 001B60 1850                        2652 FREEHIT  LR    R5,R0                                                    40440021
 001B62 5958 0000      00000        2653          C     R5,DX0(R8)                                               40460021
 001B66 4780 B282      01BAA        2654          BE    FREEHIT1            R5 = GETTABLE ENTRY                  40480021
 001B6A 4740 B28A      01BB2        2655          BL    TBINTP13            R5 < GETTABLE ENTRY                  40500021
 001B6E 5808 0000      00000        2656          L     R0,DX0(R8)     ENTRY LENGTH INTO R0                      40520021
 001B72 41E0 B252      01B7A        2657          LA    R14,FREEHIT2                                             40540021
 001B76 47F0 B260      01B88        2658          BC    UNCOND,TBINTP11     MUST ISSUE FREEMAIN                  40560021
 001B7A 1B50                        2659 FREEHIT2 SR    R5,R0                                                    40580021
 001B7C 1A10                        2660          AR    R1,R0                                                    40600021
 001B7E 1805                        2661          LR    R0,R5                                                    40620021
 001B80 4180 C530      02F58        2662          LA    R8,GETTABLE                                              40640021
 001B84 47F0 B20E      01B36        2663          BC    UNCOND,FREELOOK     LOOP THROUGH FREELOOK--->EQUAL       40660021
 001B88 90E1 B228      01B50        2664 TBINTP11 STM   R14,R1,FREESV       R14-R1 FREEMAIN SAVE           58329 40680021
                                    2665          FREEMAIN R,LV=(0),A=(1)                                  58329 40700021
 001B8C 4111 0000      00000        2666+         LA    1,0(1)                       CLEAR THE HIGH ORDER BYTE   03130018
 001B90 0A0A                        2667+         SVC   10                      ISSUE FREEMAIN SVC         P2504 03140021
 001B92 98E1 B228      01B50        2668          LM    R14,R1,FREESV       RESTORE AFTER FREEMAIN         58329 40720021
 001B96 95FF C58C      02FB4        2669          CLI   GETSW,XXFF                                               40740021
 001B9A 4780 B27C      01BA4        2670          BE    TBINTP15            DON'T ZERO OUT                       40760021
 001B9E D707 8000 8000 00000 00000  2671          XC    DX0(LX8,R8),DX0(R8)                                      40780021
 001BA4 58F0 C4CC      02EF4        2672 TBINTP15 L     R15,TBAPRIME                                             40800021
 001BA8 07FE                        2673          BR    R14                 RETURN TO NEXT SEQUENTIAL INSTR      40820021
 001BAA 41E0 B2AA      01BD2        2674 FREEHIT1 LA    R14,TBINTP12                                             40840021
 001BAE 47F0 B260      01B88        2675          BC    UNCOND,TBINTP11     MUST ISSUE FREEMAIN                  40860021
 001BB2 41E0 B2AA      01BD2        2676 TBINTP13 LA    R14,TBINTP12                                             40880021
 001BB6 5868 0000      00000        2677          L     R6,DX0(R8)                                               40900021
 001BBA 1B65                        2678          SR    R6,R5                                                    40920021
 001BBC 5068 0000      00000        2679          ST    R6,DX0(R8)                                               40940021
 001BC0 5868 0004      00004        2680          L     R6,DX4(R8)                                               40960021
 001BC4 1A65                        2681          AR    R6,R5                                                    40980021
 001BC6 5068 0004      00004        2682          ST    R6,DX4(R8)                                               41000021
 001BCA 92FF C58C      02FB4        2683          MVI   GETSW,XXFF                                               41020021
 001BCE 47F0 B260      01B88        2684          BC    UNCOND,TBINTP11     MUST ISSUE FREEMAIN                  41040021
 001BD2 D700 C6EF C6EF 03117 03117  2685 TBINTP12 XC    TBWCHWAY,TBWCHWAY                                        41060021
1PH00     IKFCBL00                                                                                              PAGE   57
-  LOC  OBJECT CODE    ADDR1 ADDR2  STMT   SOURCE STATEMENT                                       ASM 0201 11.03 02/14/15
0001BD8 D700 C58C C58C 02FB4 02FB4  2686          XC    GETSW,GETSW                                              41080021
 001BDE D703 C55C C55C 02F84 02F84  2687          XC    TBLSUM,TBLSUM                                            41100021
 001BE4 D703 C550 C550 02F78 02F78  2688          XC    FREEMANE,FREEMANE                                        41120021
 001BEA D703 C560 C560 02F88 02F88  2689          XC    DCTLNGTH,DCTLNGTH                                        41140021
 001BF0 9505 C588      02FB0        2690          CLI   TBPHZNO,TAM3Q                                            41160021
 001BF4 4720 B168      01A90        2691          BH    TBTAMEOP            TBPHZNO > X'05'                 5084 41180021
 001BF8 58A0 C570      02F98        2692          L     R10,TBATIB30                                             41200021
 001BFC 58AA 0000      00000        2693          L     R10,DX0(R10)                                             41220021
 001C00 5890 C4B0      02ED8        2694          L     R9,TBACCSW                                               41240021
 001C04 D202 9001 A001 00001 00001  2695          MVC   DX1(LX3,R9),DX1(R10)                                     41260021
 001C0A 47F0 B168      01A90        2696          BC    UNCOND,TBTAMEOP     X                               5084 41280021
                                    2697 *                                  TOTAL TABLES TOO LARGE FOR MFA       41300021
                                    2698 *                                                                       41320021
 001C0E 4140 C000      02A28        2699 TBINTP20 LA    R4,TBMASTAM                                              41340021
 001C12 45E0 B4D0      01DF8        2700 TBINTP21 BAL   R14,TBTBLSUM        ALTER TBLSUM                         41360021
 001C16 9504 C588      02FB0        2701          CLI   TBPHZNO,TAM2Q                                            41380021
 001C1A 4720 B2FA      01C22        2702          BH    TBINTP22            TBPHZNO > X'04'                      41400021
 001C1E 45E0 B4E0      01E08        2703          BAL   R14,TBDICTSP        GET COBOL SPACE                      41420021
 001C22 5890 C550      02F78        2704 TBINTP22 L     R9,FREEMANE                                              41440021
 001C26 1879                        2705          LR    R7,R9                                                    41460021
 001C28 5880 C55C      02F84        2706          L     R8,TBLSUM                                                41480021
 001C2C 1A98                        2707          AR    R9,R8                                                    41500021
 001C2E 5A90 C560      02F88        2708          A     R9,DCTLNGTH                                              41520021
 001C32 5990 C550      02F78        2709          C     R9,FREEMANE                                              41540021
 001C36 4780 B3D4      01CFC        2710          BE    TBINTP30            X                                    41560021
                                    2711 *                                  WILL IT ALL FIT IN                   41580021
 001C3A 5864 0004      00004        2712          L     R6,TBDLENG(R4)      THIS MASTAM AREA?                    41600021
 001C3E 1969                        2713          CR    R6,R9                                                    41620021
 001C40 4740 B3AE      01CD6        2714          BL    TBINTP24            NO - IS THERE ANOTHER MASTAM         41640021
 001C44 58A4 0000      00000        2715          L     R10,TBDBEGAR(R4)    THEY WILL FIT                        41660021
 001C48 5850 C4E0      02F08        2716          L     R5,TBATAMAR                                              41680021
 001C4C 5855 0000      00000        2717          L     R5,DX0(R5)                                               41700021
 001C50 19A5                        2718          CR    R10,R5                                                   41720021
 001C52 4780 B3B6      01CDE        2719          BE    TBINTP26            R10 = TAMAREA                        41740021
 001C56 47D0 B338      01C60        2720          BNH   TBINTPA                                            50784 41760021
 001C5A 1AA6                        2721          AR    R10,R6              CURRENT AREA ABOVE MAIN TAMAREA50784 41780021
 001C5C 47F0 B34A      01C72        2722          B     TBINTPB             R6 = ENTIRE LENGTH             50784 41800021
                             01C60  2723 TBINTPA  EQU   *                                                  50784 41820021
 001C60 189A                        2724          LR    R9,R10              SAVE ORIGIN                    50784 41840021
 001C62 1AA6                        2725          AR    R10,R6              R6  = ENTIRE LENGTH                  41860021
 001C64 19A5                        2726          CR    R10,R5                                             50784 41880021
 001C66 47D0 B34A      01C72        2727          BNH   TBINTPB             CURRENT AREA BELOW MAIN TAMAREA50784 41900021
 001C6A 1A97                        2728          AR    R9,R7               MASTAM BEGIN + NEEDED SPACE    50784 41920021
 001C6C 1995                        2729          CR    R9,R5               CHECK OVERLAP OF MAIN TAMAREA  50784 41940021
 001C6E 4720 B3B6      01CDE        2730          BH    TBINTP26            PROTECT MAIN TAMAREA           50784 41960021
                             01C72  2731 TBINTPB  EQU   *                                                  50784 41980021
 001C72 50A0 C558      02F80        2732          ST    R10,TBENDADR        THIS IS THE HI ADDR IN AREA          42000021
 001C76 5BA0 C560      02F88        2733          S     R10,DCTLNGTH                                             42020021
 001C7A 5894 0008      00008        2734          L     R9,TBDSTADD(R4)                                          42040021
 001C7E 45E0 B702      0202A        2735          BAL   R14,TBMOVDON        MOVE TABLES TO HICORE                42060021
 001C82 1BA8                        2736          SR    R10,R8                                                   42080021
 001C84 189A                        2737          LR    R9,R10              FIRST BYTE OF TABLES                 42100021
 001C86 58A4 0000      00000        2738          L     R10,TBDBEGAR(R4)                                         42120021
 001C8A 1AA7                        2739          AR    R10,R7              R10 = NEW START ADDRESS              42140021
 001C8C 185A                        2740          LR    R5,R10                                                   42160021
1PH00     IKFCBL00                                                                                              PAGE   58
-  LOC  OBJECT CODE    ADDR1 ADDR2  STMT   SOURCE STATEMENT                                       ASM 0201 11.03 02/14/15
0001C8E 19A9                        2741          CR    R10,R9                                                   42180021
 001C90 4780 B370      01C98        2742          BE    TBINTP23            SKIP TBMOVUP                         42200021
 001C94 45E0 B6C8      01FF0        2743          BAL   R14,TBMOVUP         MOVE TABLE TO LOW ADDRESSES          42220021
 001C98 5864 0000      00000        2744 TBINTP23 L     R6,TBDBEGAR(R4)                                          42240021
 001C9C 1816                        2745          LR    R1,R6               SET UP FOR FREEMAIN                  42260021
 001C9E 1B56                        2746          SR    R5,R6                                                    42280021
 001CA0 5050 C554      02F7C        2747          ST    R5,SHIFTVAL                                              42300021
 001CA4 50A4 0000      00000        2748          ST    R10,TBDBEGAR(R4)                                         42320021
 001CA8 5800 C550      02F78        2749          L     R0,FREEMANE         SET UP FOR FREEMAIN                  42340021
 001CAC 5860 C558      02F80        2750          L     R6,TBENDADR                                              42360021
 001CB0 1B6A                        2751          SR    R6,R10                                                   42380021
 001CB2 5064 0004      00004        2752          ST    R6,TBDLENG(R4)                                           42400021
 001CB6 1B68                        2753          SR    R6,R8               R8  = LENGTH OF TABLES               42420021
 001CB8 5B60 C560      02F88        2754          S     R6,DCTLNGTH                                              42440021
 001CBC 5064 000C      0000C        2755          ST    R6,TBDCLENG(R4)                                          42460021
 001CC0 1AA8                        2756          AR    R10,R8                                                   42480021
 001CC2 50A4 0008      00008        2757          ST    R10,TBDSTADD(R4)                                         42500021
 001CC6 5890 C554      02F7C        2758          L     R9,SHIFTVAL                                              42520021
 001CCA 5854 0010      00010        2759          L     R5,TBDFSTAM(R4)                                          42540021
 001CCE 45E0 B9D4      022FC        2760          BAL   R14,TBTAMSH         UPDATE TAM TABLE @'S-->HIGHCORE      42560021
 001CD2 47F0 B1F6      01B1E        2761          BC    UNCOND,TBINTP09     FREEMAIN AND EXIT                    42580021
                                    2762 *                                  NO FIT - CAN WE SPILL DICTIONARY     42600021
 001CD6 9505 C588      02FB0        2763 TBINTP24 CLI   TBPHZNO,TAM3Q                                            42620021
 001CDA 4740 B448      01D70        2764          BL    TBINTP50            TRY TO SPILL                         42640021
                                    2765 *                                  MAYBE THERE'S ANOTHER MASTAM         42660021
 001CDE 1854                        2766 TBINTP26 LR    R5,R4                                                    42680021
 001CE0 4144 001C      0001C        2767          LA    R4,TBMSTMLG(R4)                                          42700021
 001CE4 5864 0000      00000        2768          L     R6,TBDBEGAR(R4)                                          42720021
 001CE8 1266                        2769          LTR   R6,R6                                                    42740021
 001CEA 4770 B2EA      01C12        2770          BNZ   TBINTP21            LOOKING AT 2ND MASTAM TRY AGAIN      42760021
 001CEE 4160 C000      02A28        2771          LA    R6,TBMASTAM     ADDR OF 1ST MASTAM                 43972 42780021
 001CF2 1956                        2772          CR    R5,R6   IS IT THE 1ST MASTAM                       43972 42800021
 001CF4 4780 F60A      029F2        2773          BE    TBERR4              THERE WAS ONLY 1 - NO HOPE           42820021
 001CF8 47F0 B45C      01D84        2774          BC    UNCOND,TBINTP40     X                                    42840021
                                    2775 *                                  NO TABLES AND NO DICTIONARY HERE     42860021
 001CFC 5814 0000      00000        2776 TBINTP30 L     R1,TBDBEGAR(R4)                                          42880021
 001D00 5800 C550      02F78        2777          L     R0,FREEMANE         SET UP FOR FREEMANE                  42900021
 001D04 4170 C000      02A28        2778          LA    R7,TBMASTAM                                              42920021
 001D08 1974                        2779          CR    R7,R4                                                    42940021
 001D0A 4780 B3F8      01D20        2780          BE    TBINTP32            @TBMASTAM = R4                       42960021
 001D0E 5070 C3BC      02DE4        2781          ST    R7,TBLASMTM                                              42980021
 001D12 5804 0004      00004        2782          L     R0,TBDLENG(R4)                                           43000021
 001D16 D71B 4000 4000 00000 00000  2783          XC    DX0(TBMSTMLG,R4),DX0(R4)   CLEAR 2ND MASTAM              43020021
 001D1C 47F0 B1F6      01B1E        2784          BC    UNCOND,TBINTP09     NOW GO TO TBINTP09                   43040021
 001D20 5850 C4E0      02F08        2785 TBINTP32 L     R5,TBATAMAR                                              43060021
 001D24 5855 0000      00000        2786          L     R5,DX0(R5)                                               43080021
 001D28 1951                        2787          CR    R5,R1                                                    43100021
 001D2A 4780 B3B6      01CDE        2788          BE    TBINTP26            TAMAREA = R1                         43120021
 001D2E 4740 B414      01D3C        2789          BL    TBINTPC             MAIN TAMAREA OVERLAP IMPOSSIBLE50784 43140021
 001D32 1871                        2790          LR    R7,R1               CURRENT TAMER AREA             50784 43160021
 001D34 1A70                        2791          AR    R7,R0               +LENGTH TO BE FREED            50784 43180021
 001D36 1975                        2792          CR    R7,R5               CHECK FOR MAIN TAMAREA OVERLAP 50784 43200021
 001D38 4720 B3B6      01CDE        2793          BH    TBINTP26            EXISTS, TRY NEXT MASTAM        50784 43220021
                             01D3C  2794 TBINTPC  EQU   *                                                  50784 43240021
 001D3C 5870 C550      02F78        2795          L     R7,FREEMANE                                              43260021
1PH00     IKFCBL00                                                                                              PAGE   59
-  LOC  OBJECT CODE    ADDR1 ADDR2  STMT   SOURCE STATEMENT                                       ASM 0201 11.03 02/14/15
0001D40 5974 0004      00004        2796          C     R7,TBDLENG(R4)                                           43280021
 001D44 4740 B428      01D50        2797          BL    TBINTP33            FREEMANE LESS                        43300021
 001D48 4144 001C      0001C        2798          LA    R4,TBMSTMLG(R4)                                          43320021
 001D4C 47F0 B2EA      01C12        2799          BC    UNCOND,TBINTP21     PREPARE TO ALTER TBLSUM,ETC          43340021
 001D50 5864 0000      00000        2800 TBINTP33 L     R6,TBDBEGAR(R4)                                          43360021
 001D54 1A67                        2801          AR    R6,R7                                                    43380021
 001D56 5064 0000      00000        2802          ST    R6,TBDBEGAR(R4)                                          43400021
 001D5A 5064 0008      00008        2803          ST    R6,TBDSTADD(R4)                                          43420021
 001D5E 5864 0004      00004        2804          L     R6,TBDLENG(R4)                                           43440021
 001D62 1B67                        2805          SR    R6,R7                                                    43460021
 001D64 5064 0004      00004        2806          ST    R6,TBDLENG(R4)                                           43480021
 001D68 5064 000C      0000C        2807          ST    R6,TBDCLENG(R4)                                          43500021
 001D6C 47F0 B1F6      01B1E        2808          BC    UNCOND,TBINTP09     PREPARE TO LOOP THRU FREELOOK        43520021
 001D70 5864 0018      00018        2809 TBINTP50 L     R6,TBDNSECT(R4)                                          43540021
 001D74 4960 C57E      02FA6        2810          CH    R6,TBCON003                                              43560021
 001D78 4740 B3B6      01CDE        2811          BL    TBINTP26            R6 < DECIMAL '03'                    43580021
 001D7C 45E0 B746      0206E        2812          BAL   R14,TBSPILL         PREPARE TO SPILL LAST DICT SECT      43600021
 001D80 47F0 B2EA      01C12        2813          BC    UNCOND,TBINTP21     MUST ALTER TBLSUM,ETC                43620021
 001D84 4140 C000      02A28        2814 TBINTP40 LA    R4,TBMASTAM                                              43640021
 001D88 4164 001C      0001C        2815          LA    R6,TBMSTMLG(R4)                                          43660021
 001D8C 5854 000C      0000C        2816          L     R5,TBDCLENG(R4)                                          43680021
 001D90 5880 C560      02F88        2817          L     R8,DCTLNGTH  ARE THERE ANY DICT SECTS.             45083 43700021
 001D94 1288                        2818          LTR   R8,R8          IN THE SECOND MASTAM                45083 43720021
 001D96 4770 F60A      029F2        2819          BNZ   TBERR4  YES  WE CANT COMPILE                       45083 43740021
 001D9A 5880 C55C      02F84        2820          L     R8,TBLSUM                                                43760021
 001D9E 1958                        2821          CR    R5,R8                                                    43780021
 001DA0 4740 F60A      029F2        2822          BL    TBERR4              R5 < TBLSUM                          43800021
 001DA4 58A4 0008      00008        2823          L     R10,TBDSTADD(R4)                                         43820021
 001DA8 5896 0000      00000        2824          L     R9,TBDBEGAR(R6)                                          43840021
 001DAC 45E0 B702      0202A        2825          BAL   R14,TBMOVDON        MOVE TABLE TOWARDS HIGH CORE         43860021
 001DB0 5874 0000      00000        2826          L     R7,TBDBEGAR(R4)                                          43880021
 001DB4 1B79                        2827          SR    R7,R9                                                    43900021
 001DB6 5070 C554      02F7C        2828          ST    R7,SHIFTVAL                                              43920021
 001DBA 1897                        2829          LR    R9,R7                                                    43940021
 001DBC 5856 0010      00010        2830          L     R5,TBDFSTAM(R6)                                          43960021
 001DC0 1846                        2831          LR    R4,R6                                                    43980021
 001DC2 45E0 B9D4      022FC        2832          BAL   R14,TBTAMSH         UPDATE TAM TABLE ADDRESSES           44000021
 001DC6 4140 C000      02A28        2833          LA    R4,TBMASTAM                                              44020021
 001DCA 1AA8                        2834          AR    R10,R8              R10 STILL HAS OLD STADDR IN 1ST MSTM 44040021
 001DCC 50A4 0008      00008        2835          ST    R10,TBDSTADD(R4)                                         44060021
 001DD0 58A6 0008      00008        2836          L     R10,TBDSTADD(R6)                                         44080021
 001DD4 1BA8                        2837          SR    R10,R8                                                   44100021
 001DD6 50A6 0008      00008        2838          ST    R10,TBDSTADD(R6)                                         44120021
 001DDA 58A4 000C      0000C        2839          L     R10,TBDCLENG(R4)                                         44140021
 001DDE 1BA8                        2840          SR    R10,R8                                                   44160021
 001DE0 50A4 000C      0000C        2841          ST    R10,TBDCLENG(R4)                                         44180021
 001DE4 58A6 000C      0000C        2842          L     R10,TBDCLENG(R6)                                         44200021
 001DE8 1AA8                        2843          AR    R10,R8                                                   44220021
 001DEA 50A6 000C      0000C        2844          ST    R10,TBDCLENG(R6)                                         44240021
 001DEE 1846                        2845          LR    R4,R6                                                    44260021
 001DF0 47F0 B2EA      01C12        2846          BC    UNCOND,TBINTP21     MUST ALTER TBLSUM,ETC                44280021
 001DF4 47F0 F60A      029F2        2847 TBCHKDIC BC    UNCOND,TBERR4       SHOULDN'T BE HERE ANY MORE           44300021
 001DF8 5864 0000      00000        2848 TBTBLSUM L     R6,TBDBEGAR(R4)                                          44320021
 001DFC 5874 0008      00008        2849          L     R7,TBDSTADD(R4)                                          44340021
 001E00 1B76                        2850          SR    R7,R6                                                    44360021
1PH00     IKFCBL00                                                                                              PAGE   60
-  LOC  OBJECT CODE    ADDR1 ADDR2  STMT   SOURCE STATEMENT                                       ASM 0201 11.03 02/14/15
0001E02 5070 C55C      02F84        2851          ST    R7,TBLSUM                                                44380021
 001E06 07FE                        2852          BR    R14                 RETURN TO NEXT SEQUENTIAL INSTR      44400021
 001E08 5860 C55C      02F84        2853 TBDICTSP L     R6,TBLSUM                                                44420021
 001E0C 5874 000C      0000C        2854          L     R7,TBDCLENG(R4)                                          44440021
 001E10 1A67                        2855          AR    R6,R7                                                    44460021
 001E12 5874 0004      00004        2856          L     R7,TBDLENG(R4)                                           44480021
 001E16 1B76                        2857          SR    R7,R6                                                    44500021
 001E18 5070 C560      02F88        2858          ST    R7,DCTLNGTH                                              44520021
 001E1C 07FE                        2859          BR    R14                 RETURN TO NEXT SEQUENTIAL INSTR      44540021
-
0
-
0
                                    2862 *        TBGETSPC  - ASK FOR COBOL SPACE = SPACE NOT OCCUPIED BY A      44600021
                                    2863 *                    PHASE SMALLER THAN PH5.                            44620021
                                    2864 *                    R1 IS DESTROYED BY THIS ROUTINE.                   44640021
                                    2865 *                                                                       44660021
-
0
 001E1E 905A C3E8      02E10        2867 TBGETSPC STM   R5,R10,TBSAV3                                            44700021
 001E22 50E0 C400      02E28        2868          ST    R14,TBSAV314                                             44720021
 001E26 9102 C589      02FB1        2869          TM    TBSWGENE,TBSPASKD                                        44740021
 001E2A 4710 B59E      01EC6        2870          BO    TBGETXIT            X                                    44760021
 001E2E 58A0 C4B4      02EDC        2871          L     R10,TBAPHASW                                             44780021
 001E32 1B55                        2872          SR    R5,R5                                                    44800021
 001E34 435A 0000      00000        2873          IC    R5,DX0(R10)                                              44820021
 001E38 9504 A000      00000        2874          CLI   DX0(R10),LONGPHS                                         44840021
 001E3C 4780 B59E      01EC6        2875          BE    TBGETXIT            THIS IS LONGEST PHASE                44860021
 001E40 4B50 C57C      02FA4        2876          SH    R5,TBCON002                                              44880021
 001E44 8950 0002      00002        2877          SLL   R5,DX2                                                   44900021
 001E48 5865 C4FC      02F24        2878          L     R6,PCBSPT(R5)                                            44920021
 001E4C 5870 C52C      02F54        2879          L     R7,TBSPACGT                                              44940021
 001E50 5060 C52C      02F54        2880          ST    R6,TBSPACGT                                              44960021
 001E54 1B67                        2881          SR    R6,R7                                                    44980021
 001E56 1266                        2882          LTR   R6,R6                                                    45000021
 001E58 4780 B59A      01EC2        2883          BZ    TBGET01                                                  45020021
 001E5C D217 C530 C538 02F58 02F60  2884          MVC   GETTABLE(LX24),GETTABLE+NX8                              45040021
 001E62 5060 C548      02F70        2885          ST    R6,GETTABLE+NX24                                         45060021
 001E66 1806                        2886          LR    R0,R6                                                    45080021
                                    2887          GETMAIN R,LV=(0)                                               45100021
 001E68 4510 B544      01E6C        2888+         BAL   1,*+4                             INDICATE GETMAIN       04660000
 001E6C 0A0A                        2889+         SVC   10                                ISSUE GETMAIN SVC      04680000
 001E6E 58F0 C4CC      02EF4        2890          L     R15,TBAPRIME                                             45120021
 001E72 5010 C54C      02F74        2891          ST    R1,GETTABLE+NX28                                         45140021
 001E76 1806                        2892          LR    R0,R6                                                    45160021
                                    2893 *                                                                       45180021
1PH00     IKFCBL00                                                                                              PAGE   61
-  LOC  OBJECT CODE    ADDR1 ADDR2  STMT   SOURCE STATEMENT                                       ASM 0201 11.03 02/14/15
0                                   2894 * TEST IF NEW AREA IS CONTIGUOUS TO AN OLD ONE.                         45200021
                                    2895 *                                                                       45220021
 001E78 4160 C000      02A28        2896          LA    R6,TBMASTAM              GET FIRST MASTAM.               45240021
 001E7C 1891                        2897          LR    R9,R1                                                    45260021
 001E7E 1A90                        2898          AR    R9,R0                                                    45280021
 001E80 5996 0000      00000        2899 TBGET06  C     R9,TBDBEGAR(R6)                                          45300021
 001E84 4780 B5AC      01ED4        2900          BE    TBGET05                  LOW CORE CONTIGUITY.            45320021
 001E88 58A6 0000      00000        2901          L     R10,TBDBEGAR(R6)                                         45340021
 001E8C 5AA6 0004      00004        2902          A     R10,TBDLENG(R6)                                          45360021
 001E90 191A                        2903          CR    R1,R10                                                   45380021
 001E92 4780 B5FC      01F24        2904          BE    TBGET55                  HIGH CORE CONTIGUITY.           45400021
 001E96 5960 C3BC      02DE4        2905          C     R6,TBLASMTM                                              45420021
 001E9A 4780 B57E      01EA6        2906          BE    TBGET07                  NO CONTIGUITY AT ALL.           45440021
 001E9E 4166 001C      0001C        2907          LA    R6,TBMSTMLG(R6)                                          45460021
 001EA2 47F0 B558      01E80        2908          B     TBGET06                  TRY NEXT AREA.                  45480021
0
                                    2910 *        NO CONTIGUITY - SET A NEW MASTAM.                              45520021
                                    2911 *                                                                       45540021
                                    2912 *                                                                       45560021
 001EA6 4166 001C      0001C        2913 TBGET07  LA    R6,TBMSTMLG(R6)                                          45580021
 001EAA 5060 C3BC      02DE4        2914          ST    R6,TBLASMTM                                              45600021
 001EAE 45E0 B60C      01F34        2915          BAL   R14,TBGET77         UPDATE MASTAM                        45620021
 001EB2 5016 0008      00008        2916          ST    R1,TBDSTADD(R6)                                          45640021
 001EB6 D203 6010 C3B4 00010 02DDC  2917          MVC   TBDFSTAM(LX4,R6),TBNEXTAM                                45660021
 001EBC D203 6014 C3B4 00014 02DDC  2918          MVC   TBDLSTAM(LX4,R6),TBNEXTAM                                45680021
                                    2919 *                                                                       45700021
                                    2920 *                                                                       45720021
 001EC2 9602 C589      02FB1        2921 TBGET01  OI    TBSWGENE,TBSPASKD                                        45740021
 001EC6 985A C3E8      02E10        2922 TBGETXIT LM    R5,R10,TBSAV3            RETURN                          45760021
 001ECA 58E0 C400      02E28        2923          L     R14,TBSAV314                                             45780021
 001ECE 9602 C589      02FB1        2924          OI    TBSWGENE,TBSPASKD                                        45800021
 001ED2 07FE                        2925          BR    R14                 RETURN TO NEXT SEQUENTIAL INSTR      45820021
0
 001ED4 18A1                        2927 TBGET05  LR    R10,R1                   MOVE TABLE TOWARDS LOW CORE     45860021
 001ED6 5896 0000      00000        2928          L     R9,TBDBEGAR(R6)                                          45880021
 001EDA 5886 0008      00008        2929          L     R8,TBDSTADD(R6)                                          45900021
 001EDE 1B89                        2930          SR    R8,R9                                                    45920021
 001EE0 45E0 B6C8      01FF0        2931          BAL   R14,TBMOVUP         MOVE TABLE TOWARDS LOW @'S           45940021
 001EE4 18A4                        2932          LR    R10,R4                                                   45960021
 001EE6 1846                        2933          LR    R4,R6                                                    45980021
 001EE8 5854 0010      00010        2934          L     R5,TBDFSTAM(R4)                                          46000021
 001EEC 1890                        2935          LR    R9,R0                                                    46020021
 001EEE 45E0 B9C8      022F0        2936          BAL   R14,TBTAMSL              UPDATE TAM'S                    46040021
 001EF2 184A                        2937          LR    R4,R10                                                   46060021
 001EF4 5896 0008      00008        2938          L     R9,TBDSTADD(R6)          UPDATE MASTAM'S.                46080021
 001EF8 1B90                        2939          SR    R9,R0                                                    46100021
 001EFA 5096 0008      00008        2940          ST    R9,TBDSTADD(R6)                                          46120021
 001EFE 45E0 B60C      01F34        2941          BAL   R14,TBGET77         UPDATE MASTAM                        46140021
                                    2942 * UPDATE  HASH TABLE ADDRESS IF NEEDED                                  46160021
                                    2943 *                                                                       46180021
 001F02 58A0 C4B4      02EDC        2944          L     R10,TBAPHASW                                             46200021
 001F06 9505 A000      00000        2945          CLI   DX0(R10),TAM3Q                                           46220021
 001F0A 4720 B59E      01EC6        2946          BH    TBGETXIT            > X'05'                              46240021
1PH00     IKFCBL00                                                                                              PAGE   62
-  LOC  OBJECT CODE    ADDR1 ADDR2  STMT   SOURCE STATEMENT                                       ASM 0201 11.03 02/14/15
0001F0E 58A0 C570      02F98        2947          L     R10,TBATIB30                                             46260021
 001F12 58AA 0000      00000        2948          L     R10,DX0(R10)              R10 HAS HASH TAM ADDR.         46280021
 001F16 5890 C4B0      02ED8        2949          L     R9,TBACCSW                                               46300021
 001F1A D202 9001 A001 00001 00001  2950          MVC   DX1(LX3,R9),DX1(R10)                                     46320021
 001F20 47F0 B59E      01EC6        2951          B     TBGETXIT            RETURN                               46340021
-
0
0
 001F24 9101 C589      02FB1        2954 TBGET55  TM    TBSWGENE,TBFLNODC                                        46400021
 001F28 4780 B57E      01EA6        2955          BZ    TBGET07                  DICT. DONT MOVE IT .CREATE      46420021
                                    2956 *                                       NEW TAM.                        46440021
 001F2C 45E0 B610      01F38        2957          BAL   R14,TBGET78         UPDATE MASTAM                        46460021
 001F30 47F0 B59E      01EC6        2958          B     TBGETXIT            RETURN                               46480021
1PH00     IKFCBL00                                                                                              PAGE   63
-  LOC  OBJECT CODE    ADDR1 ADDR2  STMT   SOURCE STATEMENT                                       ASM 0201 11.03 02/14/15
0                                   2960 * UPDATE  MASTAM                                                        46520021
 001F34 5016 0000      00000        2961 TBGET77  ST    R1,TBDBEGAR(R6)                                          46540021
 001F38 5896 0004      00004        2962 TBGET78  L     R9,TBDLENG(R6)                                           46560021
 001F3C 1A90                        2963          AR    R9,R0                                                    46580021
 001F3E 5096 0004      00004        2964          ST    R9,TBDLENG(R6)                                           46600021
 001F42 5896 000C      0000C        2965          L     R9,TBDCLENG(R6)                                          46620021
 001F46 1A90                        2966          AR    R9,R0                                                    46640021
 001F48 5096 000C      0000C        2967          ST    R9,TBDCLENG(R6)                                          46660021
 001F4C 07FE                        2968          BR    R14                 RETURN TO NEXT SEQUENTIAL INSTR      46680021
                                    2969 *                                                                       46700021
                                    2970 *              PHASE 6 & 6A CALL FOR ALL AVAILABLE SPACE                46720021
                                    2971 *                                                                       46740021
 001F4E                             2972 TBGETALL DS    0H                                                       46760021
 001F4E 9102 C589      02FB1        2973          TM    TBSWGENE,TBSPASKD                                        46780021
 001F52 4710 B632      01F5A        2974          BO    TBGTAL10            YES - BYPASS GETMAIN                 46800021
 001F56 45E0 B4F6      01E1E        2975          BAL   R14,TBGETSPC        ASK FOR COBOL SPACE                  46820021
 001F5A 45E0 BA8A      023B2        2976 TBGTAL10 BAL   R14,TBPACKGN        PACK ALL MASTAMS                     46840021
 001F5E 4140 C000      02A28        2977          LA    R4,TBMASTAM                                              46860021
 001F62 5940 C3BC      02DE4        2978          C     R4,TBLASMTM                                              46880021
 001F66 4780 B656      01F7E        2979          BE    TBGTAL21            ONLY 1 MASTAM                        46900021
 001F6A 4154 001C      0001C        2980          LA    R5,TBMSTMLG(R4)                                          46920021
 001F6E 5950 C3BC      02DE4        2981          C     R5,TBLASMTM                                              46940021
 001F72 4770 F60A      029F2        2982          BNE   TBERR4              R5 NOT EQUAL TO TBLASMTM             46960021
 001F76 5805 000C      0000C        2983          L     R0,TBDCLENG(R5)     THERE ARE TWO MASTAMS                46980021
 001F7A 47F0 B6BA      01FE2        2984          BC    UNCOND,TBGTAL00     X                                    47000021
 001F7E 45E0 B94C      02274        2985 TBGTAL21 BAL   R14,TBTIBUP         UPDATE TIBS ONCE MORE ANYWAY         47020021
 001F82 5854 0008      00008        2986 TBGTAL20 L     R5,TBDSTADD(R4)                                          47040021
 001F86 5860 C4E8      02F10        2987          L     R6,TBASAV1                                               47060021
 001F8A 5056 0000      00000        2988          ST    R5,DX0(R6)           START ADDR IN R0                    47080021
 001F8E 5854 000C      0000C        2989          L     R5,TBDCLENG(R4)                                          47100021
 001F92 5056 0004      00004        2990          ST    R5,DX4(R6)           LENGTH OF AREA INTO R1              47120021
 001F96 47F0 F50A      028F2        2991          BC    UNCOND,TBTAMENX     RETURN TO CALLING PHASE              47140021
-
0
                                    2993 *                                                                       47180021
                                    2994 *        TBGETDIC   -GET ENTRY IN DICOT TABLE OF A SECTION WHOSE AD     47200021
                                    2995 *                    IN CORE IS IN R6. R7 WILL HAVE DICOT ENTRY ADD     47220021
                                    2996 *                    IN RETURN                                          47240021
                                    2997 *                                                                       47260021
                                    2998 *                                                                       47280021
 001F9A 905A C470      02E98        2999 TBGETDIC STM   R5,R10,TBSAV8                                            47300021
 001F9E 5850 C4E4      02F0C        3000          L     R5,TBATIB20              GET TIB ADDR.                   47320021
 001FA2 5855 0000      00000        3001          L     R5,DX0(R5)                GET TAM ADDR.                  47340021
 001FA6 5885 0000      00000        3002          L     R8,DX0(R5)                GET TABLE ADDR.                47360021
 001FAA 4188 0000      00000        3003          LA    R8,DX0(R8)                X                              47380021
 001FAE 4875 0004      00004        3004          LH    R7,DX4(R5)                GET TABLE END                  47400021
 001FB2 1A78                        3005          AR    R7,R8                    X                               47420021
 001FB4 5898 0000      00000        3006 TBGETD01 L     R9,DX0(R8)                GET ADDRESS OF SECTION AT T    47440021
 001FB8 4199 0000      00000        3007          LA    R9,DX0(R9)                ENTRY                          47460021
                                    3008 *                                  IS SECT IN CORE                      47480021
 001FBC 9140 8000      00000        3009          TM    DX0(R8),TBIN                                             47500021
 001FC0 4780 B6A2      01FCA        3010          BZ    TBGETD00                 NOT A VALID ADDRESS.            47520021
1PH00     IKFCBL00                                                                                              PAGE   64
-  LOC  OBJECT CODE    ADDR1 ADDR2  STMT   SOURCE STATEMENT                                       ASM 0201 11.03 02/14/15
0                                   3011 *                                  IS THIS THE SECT WE ARE LOOKING      47540021
                                    3012 *                                  IF YES,RETURN. IF NO,GET NEXT EN     47560021
 001FC4 1996                        3013          CR    R9,R6                                                    47580021
 001FC6 4780 B6B0      01FD8        3014          BE    TBGETEX             R9 = @ DICOT TABLE ENTRY             47600021
 001FCA 4188 000C      0000C        3015 TBGETD00 LA    R8,DX12(R8)                                              47620021
 001FCE 1987                        3016          CR    R8,R7                                                    47640021
 001FD0 4780 F5FA      029E2        3017          BE    TBERR1              PREPARE TO SEND OUT WARNING          47660021
 001FD4 47F0 B68C      01FB4        3018          B     TBGETD01            LOOP THROUGH AGAIN                   47680021
 001FD8 1808                        3019 TBGETEX  LR    R0,R8                                                    47700021
 001FDA 985A C470      02E98        3020          LM    R5,R10,TBSAV8                                            47720021
 001FDE 1870                        3021          LR    R7,R0                    R7 HAS DICOT ENTRY ADDR.        47740021
 001FE0 07FE                        3022          BR    R14                 RETURN TO NEXT SEQUENTIAL INSTR      47760021
 001FE2 5904 000C      0000C        3023 TBGTAL00 C     R0,TBDCLENG(R4)     R0 = AVAILABLE SPACE IN 2ND MASTAM   47780021
 001FE6 4740 B65A      01F82        3024          BL    TBGTAL20            AVAIL SPACE IN 2ND MASTAM LESS       47800021
 001FEA 1845                        3025          LR    R4,R5                                                    47820021
 001FEC 47F0 B65A      01F82        3026          BC    UNCOND,TBGTAL20     GO TO TBGTAL20 WITH NEW R4           47840021
-
0
                                    3028 *                                                                       47880021
                                    3029 *        TBMOVUP  -MOVE TABLE TOWARDS LOW ADDRESSES                     47900021
                                    3030 *                     R10  =  NEW START ADDRESS.                        47920021
                                    3031 *                     R9   =  OLD START ADDRESS.                        47940021
                                    3032 *                     R8   =  LENGTH OF BLOCK TO BE MOVED.              47960021
                                    3033 *        TBMOVDON - MOVE TABLE TOWARDS HIGTH CORE.                      47980021
                                    3034 *                     R10  = NEW  ENDING                                48000021
                                    3035 *                     R9   = OLD  ENDING                                48020021
                                    3036 *                     R8   = LENGTH                                     48040021
                                    3037 *                                                                       48060021
                                    3038 *                                                                       48080021
 001FF0 905A C420      02E48        3039 TBMOVUP  STM   R5,R10,TBSAV5                                            48100021
 001FF4 199A                        3040          CR    R9,R10                                                   48120021
 001FF6 4780 B6FC      02024        3041          BE    TBMOVOUT            OLD START = NEW START                48140021
 001FFA 4980 C582      02FAA        3042 TBMOV00  CH    R8,TBCON256                                              48160021
 001FFE 4740 B6F0      02018        3043          BL    TBMOV01             LENGTH BLOCK <256                    48180021
 002002 D2FF A000 9000 00000 00000  3044          MVC   DX0(LX256,R10),DX0(R9)                                   48200021
 002008 4B80 C582      02FAA        3045          SH    R8,TBCON256                                              48220021
 00200C 4AA0 C582      02FAA        3046          AH    R10,TBCON256                                             48240021
 002010 4A90 C582      02FAA        3047          AH    R9,TBCON256                                              48260021
 002014 47F0 B6D2      01FFA        3048          B     TBMOV00             LOOP THROUGH AGAIN                   48280021
 002018 1288                        3049 TBMOV01  LTR   R8,R8                                                    48300021
 00201A 4780 B6FC      02024        3050          BE    TBMOVOUT            ALL MOVING DONE                      48320021
 00201E 0680                        3051          BCTR  R8,R0               MODIFY LENGTH FOR EXEC               48340021
 002020 4480 B740      02068        3052          EX    R8,TBMOVEX                                               48360021
 002024 985A C420      02E48        3053 TBMOVOUT LM    R5,R10,TBSAV5                                            48380021
 002028 07FE                        3054          BR    R14                 RETURN TO NEXT SEQUENTIAL INSTR      48400021
-
 00202A 905A C420      02E48        3056 TBMOVDON STM   R5,R10,TBSAV5                                            48440021
 00202E 199A                        3057          CR    R9,R10                                                   48460021
 002030 4780 B6FC      02024        3058          BE    TBMOVOUT            OLD ENDING = NEW ENDING              48480021
 002034 186A                        3059          LR    R6,R10                                                   48500021
1PH00     IKFCBL00                                                                                              PAGE   65
-  LOC  OBJECT CODE    ADDR1 ADDR2  STMT   SOURCE STATEMENT                                       ASM 0201 11.03 02/14/15
0002036 1B69                        3060          SR    R6,R9                                                    48520021
 002038 4960 C582      02FAA        3061          CH    R6,TBCON256                                              48540021
 00203C 47B0 B738      02060        3062          BNL   TBMOV03             R6 > OR = 256                        48560021
 002040 1856                        3063 TBMOV07  LR    R5,R6                                                    48580021
 002042 0650                        3064          BCTR  R5,R0               SET UP R5 FOR EXEC                   48600021
 002044 1986                        3065 TBMOV05  CR    R8,R6                                                    48620021
 002046 47D0 B730      02058        3066          BNH   TBMOV04             LENGTH < OR = R6                     48640021
 00204A 1BA6                        3067 TBMOV06  SR    R10,R6                                                   48660021
 00204C 1B96                        3068          SR    R9,R6                                                    48680021
 00204E 4450 B740      02068        3069          EX    R5,TBMOVEX                                               48700021
 002052 1B86                        3070          SR    R8,R6                                                    48720021
 002054 47F0 B71C      02044        3071          B     TBMOV05             LOOP THROUG AGAIN                    48740021
 002058 1BA8                        3072 TBMOV04  SR    R10,R8                                                   48760021
 00205A 1B98                        3073          SR    R9,R8                                                    48780021
 00205C 47F0 B6F0      02018        3074          B     TBMOV01             PREPARE TO DO A MOVE IF NECESSA      48800021
 002060 4160 0100      00100        3075 TBMOV03  LA    R6,DX256                                                 48820021
 002064 47F0 B718      02040        3076          B     TBMOV07             GO TO TBMOV07 WITH NEW R6            48840021
 002068 D200 A000 9000 00000 00000  3077 TBMOVEX  MVC   DX0(LX0,R10),DX0(R9)                                     48860021
-
0
                                    3079 *                                                                       48900021
                                    3080 *        TBSPILL  -  SPILL A SECTION FROM DICTIONARY.                   48920021
                                    3081 *                                                                       48940021
                                    3082 *                                                                       48960021
 00206E 905A C454      02E7C        3083 TBSPILL  STM   R5,R10,TBSAV7                                            48980021
 002072 50E0 C46C      02E94        3084          ST    R14,TBSAV714                                             49000021
 002076 18A2                        3085          LR    R10,R2                                                   49020021
                                    3086 *                                  SAVE R2, WHICH HAS AMT CORE NEED     49040021
 002078 9601 C58B      02FB3        3087          OI    TBSW1,TBSPILLF                                           49060021
 00207C 5894 0000      00000        3088          L     R9,TBDBEGAR(R4)                                          49080021
 002080 5A94 0004      00004        3089          A     R9,TBDLENG(R4)           END OF DICT.                    49100021
 002084 5864 0008      00008        3090          L     R6,TBDSTADD(R4)                                          49120021
 002088 5A64 000C      0000C        3091          A     R6,TBDCLENG(R4)          BEG. OF DICT.                   49140021
 00208C 5874 0018      00018        3092          L     R7,TBDNSECT(R4)                                          49160021
 002090 4B90 C586      02FAE        3093          SH    R9,TBCON512              TRY TO DUMP LAST SECTION.       49180021
 002094 5990 C3C0      02DE8        3094          C     R9,TBCURSTN              IS IT THE SECTION BEING BUI     49200021
 002098 4770 B780      020A8        3095          BNE   TBSP41              R9 NOT @ CURRENT DICT SECTION        49220021
 00209C 4970 C57C      02FA4        3096          CH    R7,TBCON002                                              49240021
                                    3097 *                                  IS THIS THE ONLY SECTION,YES BRA     49260021
                                    3098 *                                  IF NOT SPILL NEXT-TO-LAST SECTIO     49280021
 0020A0 4740 B7E0      02108        3099          BL    TBSP40              X                                    49300021
 0020A4 4B90 C586      02FAE        3100          SH    R9,TBCON512                                              49320021
 0020A8 45E0 B000      01928        3101 TBSP41   BAL   R14,TBWRITE         BR TO WRITE OUT DICT SECTION         49340021
 0020AC 5090 C3C8      02DF0        3102          ST    R9,TBTEMP                                                49360021
 0020B0 4970 C57C      02FA4        3103          CH    R7,TBCON002                                              49380021
 0020B4 4740 B7B8      020E0        3104          BL    TBSP42              R7 < 2                               49400021
 0020B8 5960 C3C0      02DE8        3105          C     R6,TBCURSTN                                              49420021
 0020BC 4770 B79C      020C4        3106          BNE   TBSP443             R6 NOT = @ CURRENT DICT SECTION      49440021
 0020C0 5090 C3C0      02DE8        3107 TBSP44   ST    R9,TBCURSTN      UPDATE CURENT SECTION IF NEEDED.        49460021
                             020C4  3108 TBSP443  EQU   *                                                        49480021
 0020C4 1969                        3109          CR    R6,R9                                                    49500021
 0020C6 4780 B7B8      020E0        3110          BE    TBSP42              EQUAL SKIP NEXT INSTRUCTIONS         49520021
1PH00     IKFCBL00                                                                                              PAGE   66
-  LOC  OBJECT CODE    ADDR1 ADDR2  STMT   SOURCE STATEMENT                                       ASM 0201 11.03 02/14/15
00020CA D2FF 9000 6000 00000 00000  3111          MVC   DX0(LX256,R9),DX0(R6)                                    49540021
 0020D0 D2FF 9100 6100 00100 00100  3112          MVC   DX256(LX256,R9),DX256(R6)                                49560021
 0020D6 45E0 B672      01F9A        3113          BAL   R14,TBGETDIC        GET DICOT TABLE ENTRY                49580021
 0020DA D202 7001 C3C9 00001 02DF1  3114          MVC   DX1(LX3,R7),TBTEMP+NX1                                   49600021
                                    3115 *                                  BRANCH TO UPDATE MASTAMS             49620021
 0020E0 4820 C580      02FA8        3116 TBSP42   LH    R2,TBCOM512                                              49640021
 0020E4 45E0 F400      027E8        3117          BAL   R14,TBINS78         UPDATE MASTAM                        49660021
                                    3118 *                                                                       49680021
 0020E8 4880 C57A      02FA2        3119          LH    R8,TBCOM001                                              49700021
 0020EC 45E0 F58A      02972        3120          BAL   R14,TBDIC100        UPDATE NB OF DICT SECTION            49720021
 0020F0 9110 C589      02FB1        3121          TM    TBSWGENE,TBFLDICT                                        49740021
 0020F4 4710 B7D4      020FC        3122          BO    TBSP46              DON'T GO TO TBACCINT                 49760021
 0020F8 45E0 B81C      02144        3123          BAL   R14,TBACCINT        X                                    49780021
                             020FC  3124 TBSP46   EQU   *                                                        49800021
 0020FC 182A                        3125          LR    R2,R10                                                   49820021
 0020FE 985A C454      02E7C        3126          LM    R5,R10,TBSAV7                                            49840021
 002102 58E0 C46C      02E94        3127          L     R14,TBSAV714                                             49860021
 002106 07FE                        3128          BR    R14                 RESTORE R14 AND BRANCH               49880021
0
                                    3130 *                   TRY OTHER MASTAMS FOR SECTION TO SPILL              49920021
 002108 4150 C000      02A28        3131 TBSP40   LA    R5,TBMASTAM                                              49940021
 00210C 1954                        3132 TBSP45   CR    R5,R4                                                    49960021
 00210E 4780 B80C      02134        3133          BE    TBSP43              R4 =@TBMASTAM                        49980021
 002112 58E4 0018      00018        3134          L     R14,TBDNSECT(R4)                                         50000021
 002116 12EE                        3135          LTR   R14,R14                                                  50020021
 002118 4780 B80C      02134        3136          BE    TBSP43              R14 = 0                              50040021
 00211C 5895 0000      00000        3137          L     R9,TBDBEGAR(R5)                                          50060021
 002120 5A95 0004      00004        3138          A     R9,TBDLENG(R5)                                           50080021
 002124 4B90 C586      02FAE        3139          SH    R9,TBCON512                                              50100021
 002128 45E0 B000      01928        3140          BAL   R14,TBWRITE         WRITE OUT DICT SECTION               50120021
 00212C 5090 C3C8      02DF0        3141          ST    R9,TBTEMP                                                50140021
 002130 47F0 B798      020C0        3142          B     TBSP44              BR TO UPDATE CURR SECT IF NECES      50160021
 002134 4155 001C      0001C        3143 TBSP43   LA    R5,TBMSTMLG(R5)                                          50180021
 002138 5950 C3BC      02DE4        3144          C     R5,TBLASMTM                                              50200021
 00213C 4720 F5FA      029E2        3145          BH    TBERR1              MUST SEND OUT MESSAGE                50220021
 002140 47F0 B7E4      0210C        3146          B     TBSP45              TRY OTHER MASTAMS-SECT TO SPILL      50240021
-
0
                                    3148 *                                                                       50280021
                                    3149 *                                                                       50300021
 002144 905A C420      02E48        3150 TBACCINT STM   R5,R10,TBSAV5                                            50320021
 002148 5890 C4B4      02EDC        3151          L     R9,TBAPHASW                                              50340021
 00214C 9505 9000      00000        3152          CLI   DX0(R9),TAM3Q                                            50360021
 002150 4780 B84C      02174        3153          BE    TBACCINX            PHZSW = X'05'                        50380021
 002154 58A0 C4F0      02F18        3154          L     R10,TBADICAD                                             50400021
 002158 588A 0000      00000        3155          L     R8,DX0(R10)          DICADR                              50420021
 00215C 586A 0004      00004        3156          L     R6,DX4(R10)          DLSVAL                              50440021
 002160 1B68                        3157          SR    R6,R8                                                    50460021
 002162 5870 C3C0      02DE8        3158          L     R7,TBCURSTN                                              50480021
 002166 4A70 C586      02FAE        3159          AH    R7,TBCON512                                              50500021
 00216A 507A 0004      00004        3160          ST    R7,DX4(R10)                                              50520021
1PH00     IKFCBL00                                                                                              PAGE   67
-  LOC  OBJECT CODE    ADDR1 ADDR2  STMT   SOURCE STATEMENT                                       ASM 0201 11.03 02/14/15
000216E 1B76                        3161          SR    R7,R6                                                    50540021
 002170 507A 0000      00000        3162          ST    R7,DX0(R10)                                              50560021
                             02174  3163 TBACCINX EQU   *                                                        50580021
 002174 985A C420      02E48        3164          LM    R5,R10,TBSAV5                                            50600021
 002178 07FE                        3165          BR    14                  RETURN TO NEXT SEQUENTIAL INSTR      50620021
-
0
                                    3167 *        TBPACKTB  - ROUTINE WHICH PACKS TABLE  (NO FREE SPACE BETW     50660021
                                    3168 *                    TABLES) WHITHIN A MASTAM WHOSE ADDRESS IS IN R     50680021
                                    3169 *                   -IF TBFULLPK SWITCH IS ON  ONLY SPACE FOR ONE M     50700021
                                    3170 *                   ENTRY WILL BE LEFT IN EACH TABLE.                   50720021
-
0
 00217A 905A C3E8      02E10        3172 TBPACKTB STM   R5,R10,TBSAV3                                            50760021
 00217E 50E0 C400      02E28        3173          ST    R14,TBSAV314                                             50780021
 002182 5854 0010      00010        3174          L     R5,TBDFSTAM(R4)          LOAD FIRST TAM ADDR.            50800021
 002186 5954 0014      00014        3175 TBPK005  C     R5,TBDLSTAM(R4)                                          50820021
 00218A 4780 B928      02250        3176          BE    TBPACKEN                 END OF PACKING.                 50840021
 00218E 4165 000C      0000C        3177          LA    R6,TBTAMLG(R5)           GET NEXT TAM ADDR.              50860021
 002192 58A5 0000      00000        3178          L     R10,DX0(R5)                                              50880021
 002196 41AA 0000      00000        3179          LA    R10,DX0(R10)              START OF TABLE.                50900021
 00219A 9101 5000      00000        3180          TM    DX0(R5),TBFLFREE                                         50920021
 00219E 4710 B8DA      02202        3181          BO    TBPK000                  FREE AREA.                      50940021
 0021A2 9104 5000      00000        3182          TM    DX0(R5),TBFLPRIM                                         50960021
 0021A6 4710 B89C      021C4        3183          BO    TBPK001                  PRIMED TABLE.                   50980021
 0021AA 4AA5 0004      00004        3184          AH    R10,DX4(R5)               STATIC TABLE                   51000021
 0021AE 189A                        3185          LR    R9,R10                                                   51020021
 0021B0 4AA0 C57E      02FA6        3186          AH    R10,TBCONS03             GET END OF TABLE AND            51040021
 0021B4 54A0 C564      02F8C        3187          N     R10,TBMASK00             UPDATE FREE BYTES LEFT.         51060021
 0021B8 1B9A                        3188          SR    R9,R10                                                   51080021
 0021BA 1399                        3189          LCR   R9,R9                                                    51100021
 0021BC 4095 0006      00006        3190          STH   R9,DX6(R5)                                               51120021
 0021C0 47F0 B8D6      021FE        3191          B     TBPK002             BRANCH AROUND NEXT ROUTINE           51140021
 0021C4 4AA5 0006      00006        3192 TBPK001  AH    R10,DX6(R5)               GET END OF TABLE               51160021
 0021C8 9104 C589      02FB1        3193          TM    TBSWGENE,TBFULLPK        FULL PACK.                      51180021
 0021CC 4780 B8D6      021FE        3194          BZ    TBPK002                  NO                              51200021
 0021D0 5875 0008      00008        3195          L     R7,DX8(R5)                                               51220021
 0021D4 45E0 B93A      02262        3196          BAL   R14,TBENTLG              SPACE ONLY FOR ONE MORE ENT     51240021
 0021D8 5895 0000      00000        3197          L     R9,DX0(R5)                                               51260021
 0021DC 4199 0000      00000        3198          LA    R9,DX0(R9)                                               51280021
 0021E0 18E9                        3199          LR    R14,R9                                                   51300021
 0021E2 1A97                        3200          AR    R9,R7                                                    51320021
 0021E4 4A95 0004      00004        3201          AH    R9,DX4(R5)                                               51340021
 0021E8 4A90 C57E      02FA6        3202          AH    R9,TBCONS03                                              51360021
 0021EC 5490 C564      02F8C        3203          N     R9,TBMASK00                                              51380021
 0021F0 199A                        3204          CR    R9,R10                                                   51400021
 0021F2 4720 B8D6      021FE        3205          BH    TBPK002             R9 > R10                             51420021
 0021F6 18A9                        3206          LR    R10,R9                                                   51440021
 0021F8 1B9E                        3207          SR    R9,R14                                                   51460021
1PH00     IKFCBL00                                                                                              PAGE   68
-  LOC  OBJECT CODE    ADDR1 ADDR2  STMT   SOURCE STATEMENT                                       ASM 0201 11.03 02/14/15
00021FA 4095 0006      00006        3208          STH   R9,DX6(R5)                                               51480021
 0021FE 4155 000C      0000C        3209 TBPK002  LA    R5,TBTAMLG(R5)                                           51500021
0
                                    3211 *        NOW  TEST IF NEXT TAM IS A FREE AREA.                          51540021
                                    3212 *                                                                       51560021
                             02202  3213 TBPK000  EQU   *                                                        51580021
 002202 5964 0014      00014        3214          C     R6,TBDLSTAM(R4)                                          51600021
 002206 4780 B912      0223A        3215          BE    TBPK003                  MASTAM- YES                     51620021
 00220A 9101 6000      00000        3216          TM    DX0(R6),TBFLFREE                                         51640021
 00220E 4780 B8F2      0221A        3217          BZ    TBPK004                  NOT A FREE AREA.                51660021
 002212 4166 000C      0000C        3218          LA    R6,TBTAMLG(R6)           TRY NEXT TAM.                   51680021
 002216 47F0 B8DA      02202        3219          B     TBPK000             LOOP BACK                            51700021
 00221A 5896 0000      00000        3220 TBPK004  L     R9,DX0(R6)                                               51720021
 00221E 4199 0000      00000        3221          LA    R9,DX0(R9)                                               51740021
 002222 45E0 B974      0229C        3222          BAL   R14,TBLASTBY             GET LAST BYTE OF LAST TABLE     51760021
 002226 1B89                        3223          SR    R8,R9                                                    51780021
 002228 45E0 B6C8      01FF0        3224          BAL   R14,TBMOVEUP             GET RID OF INTERSPACE IF AN     51800021
 00222C 45E0 B99C      022C4        3225 TBPK006  BAL   R14,TBTAMUP         PACKING-->MUST MOVE TAM              51820021
 002230 1B9A                        3226          SR    R9,R10                                                   51840021
 002232 45E0 B9C8      022F0        3227          BAL   R14,TBTAMSL              UPDATE TAM'S DUE TO SHIFT O     51860021
 002236 47F0 B85E      02186        3228          B     TBPK005                  TABLES.                         51880021
0
                                    3230 *        ONLY  FREE AREAS LEFT AT THE END OF MFA. UPDATE MASTAM AND     51920021
                                    3231 *        TAM'S                                                          51940021
                                    3232 *                                                                       51960021
 00223A 5894 0008      00008        3233 TBPK003  L     R9,TBDSTADD(R4)                                          51980021
 00223E 1B9A                        3234          SR    R9,R10                                                   52000021
 002240 50A4 0008      00008        3235          ST    R10,TBDSTADD(R4)                                         52020021
 002244 5A94 000C      0000C        3236          A     R9,TBDCLENG(R4)                                          52040021
 002248 5094 000C      0000C        3237          ST    R9,TBDCLENG(R4)                                          52060021
 00224C 47F0 B904      0222C        3238          B     TBPK006             PACKING-->MUST MOVE,UPDATE TAM       52080021
 002250 45E0 B94C      02274        3239 TBPACKEN BAL   R14,TBTIBUP         TAM MOVED-->MUST UPDATE TIB          52100021
 002254 94FB C589      02FB1        3240          NI    TBSWGENE,XXFB      RESET FULLPACK                        52120021
 002258 58E0 C400      02E28        3241          L     R14,TBSAV314                                             52140021
 00225C 985A C3E8      02E10        3242          LM    R5,R10,TBSAV3                                            52160021
 002260 07FE                        3243          BR    14                  RETURN TO NEXT SEQUENTIAL INSTR      52180021
-
0
                                    3245 *                                                                       52220021
                                    3246 *        TBENTLG   -GET ENTRY LENGTH FOR A TABLE WHOSE TIB ADDR.IS      52240021
                                    3247 *                   GIVEN IN R7 . ENTRY LENGTH IS SENT BACK IN R7.      52260021
                                    3248 *                                                                       52280021
0
 002262 5877 0000      00000        3250 TBENTLG  L     R7,DX0(R7)                                               52320021
 002266 8870 0018      00018        3251          SRL   R7,DX24                   IF LENGTH =0  SET IT EQUAL     52340021
 00226A 1277                        3252          LTR   R7,R7                    TO 256.                         52360021
 00226C 077E                        3253          BCR   R7,R14              R7 NOT ZERO                          52380021
 00226E 4170 0100      00100        3254          LA    R7,DX256                                                 52400021
 002272 07FE                        3255          BR    14                  RETURN TO NEXT SEQUENTIAL INSTR      52420021
1PH00     IKFCBL00                                                                                              PAGE   69
-  LOC  OBJECT CODE    ADDR1 ADDR2  STMT   SOURCE STATEMENT                                       ASM 0201 11.03 02/14/15
0                                   3257 *                                                                       52460021
                                    3258 *        TBTIBUP   -UPDATE TIB DUE TO A MOVING OF THE TAM'S.            52480021
                                    3259 *                                                                       52500021
0
 002274 4190 C054      02A7C        3261 TBTIBUP  LA    R9,TBTAM                                                 52540021
 002278 5990 C3B4      02DDC        3262 TBTIBU1  C     R9,TBNEXTAM              LAST TAM.                       52560021
 00227C 078E                        3263          BCR   R8,R14                    YES- EXIT                      52580021
 00227E 9106 9000      00000        3264          TM    DX0(R9),TBFLPRIM+TBFLSTAT                                52600021
 002282 4780 B96C      02294        3265          BZ    TBTIBU0             SKIP NEXT INSTRUCTIONS               52620021
 002286 58A9 0008      00008        3266          L     R10,DX8(R9)               GET TIB ADDR.                  52640021
 00228A 5090 C3C8      02DF0        3267          ST    R9,TBTEMP                                                52660021
 00228E D202 A001 C3C9 00001 02DF1  3268          MVC   DX1(LX3,R10),TBTEMP+NX1    MOVE TAM ADDR TO TIB.         52680021
 002294 4199 000C      0000C        3269 TBTIBU0  LA    R9,TBTAMLG(R9)                                           52700021
 002298 47F0 B950      02278        3270          B     TBTIBU1             LOOP BACK                            52720021
-
0
                                    3272 *                                                                       52760021
                                    3273 *        TBLASTBY   GET ADDRESS OF LAST BYTE OF LAST TABLE IN A MAS     52780021
                                    3274 *                   WHOSE ADDRESS IS GIVEN IN R4                        52800021
                                    3275 *                                                                       52820021
0
 00229C 5874 0014      00014        3277 TBLASTBY L     R7,TBDLSTAM(R4)                                          52860021
 0022A0 4B70 C578      02FA0        3278 TBLAST00 SH    R7,TBCON012                                              52880021
 0022A4 9101 7000      00000        3279          TM    DX0(R7),TBFLFREE                                         52900021
 0022A8 4710 B978      022A0        3280          BO    TBLAST00            IF ON THEN REPEAT                    52920021
 0022AC 5887 0000      00000        3281          L     R8,DX0(R7)                                               52940021
 0022B0 4188 0000      00000        3282          LA    R8,DX0(R8)                START OF LAST TABLE            52960021
 0022B4 4A87 0006      00006        3283          AH    R8,DX6(R7)                FOR PRIME  ADD NUMBER OF BY    52980021
 0022B8 9104 7000      00000        3284          TM    DX0(R7),TBFLPRIM          ASSIGNED                       53000021
 0022BC 071E                        3285          BCR   R1,R14              RETURN IF ONES                       53020021
 0022BE 4A87 0004      00004        3286          AH    R8,DX4(R7)                                               53040021
 0022C2 07FE                        3287          BR    R14                 NOW RETURN WITH MODIFIED R8          53060021
-
0
                                    3289 *                                                                       53100021
                                    3290 *        TBTAMUP -  MOVE TAM DUE TO PACKING.R5 POINTS TO WHERE SHIF     53120021
                                    3291 *        END-R6 POINTS TO WHERE IT STARTS . R4 HAS SHIFTED MASTAM.      53140021
0
 0022C4 905A C404      02E2C        3293 TBTAMUP  STM   R5,R10,TBSAV4                                            53180021
 0022C8 50E0 C41C      02E44        3294          ST    R14,TBSAV414                                             53200021
 0022CC 1956                        3295          CR    R5,R6                    NO SHIFT NECESSARY.             53220021
 0022CE 078E                        3296          BCR   R8,R14              R5 = R6                              53240021
 0022D0 18A5                        3297          LR    R10,R5                                                   53260021
 0022D2 1896                        3298          LR    R9,R6                                                    53280021
 0022D4 5880 C3B4      02DDC        3299          L     R8,TBNEXTAM                                              53300021
 0022D8 1B86                        3300          SR    R8,R6                                                    53320021
1PH00     IKFCBL00                                                                                              PAGE   70
-  LOC  OBJECT CODE    ADDR1 ADDR2  STMT   SOURCE STATEMENT                                       ASM 0201 11.03 02/14/15
00022DA 45E0 B6C8      01FF0        3301          BAL   R14,TBMOVUP         MOVE TABLE TOWARDS LOW @'S           53340021
 0022DE 1B9A                        3302          SR    R9,R10                                                   53360021
 0022E0 1854                        3303          LR    R5,R4                                                    53380021
 0022E2 45E0 BA54      0237C        3304          BAL   R14,TBMASUPL             UPDATE  MASTAM.                 53400021
 0022E6 58E0 C41C      02E44        3305 TBTAMEX  L     R14,TBSAV414                                             53420021
 0022EA 985A C404      02E2C        3306 TBTAMSX  LM    R5,R10,TBSAV4                                            53440021
 0022EE 07FE                        3307          BR    R14                 RETURN TO NEXT SEQUENTIAL INSTR      53460021
-
0
                                    3309 *                                                                       53500021
                                    3310 *        TBTAMSL   UPDATE  TABLE ADDRESSES IN  TAM'S  DUE  TO A SHI     53520021
                                    3311 *                  OF  TABLES TOWARDS LOW CORE.                         53540021
                                    3312 *                  R5 POINTS TO FIRST  TAM TO BE UPDATED                53560021
                                    3313 *                  R4 POINTS TO  MASTAM.                                53580021
                                    3314 *                  R9 HAS VALUE OF  SHIFT                               53600021
                                    3315 *        TBTAMSH   SAME  THING FOR A SHIFT TOWARDS HIGH CORE.           53620021
                                    3316 *                                                                       53640021
0
 0022F0 905A C404      02E2C        3318 TBTAMSL  STM   R5,R10,TBSAV4                                            53680021
 0022F4 4160 0000      00000        3319          LA    R6,DX0                                                   53700021
 0022F8 47F0 B9DC      02304        3320          B     TBTAMS00            SKIP NEXT INSTRUCTIONS               53720021
 0022FC 905A C404      02E2C        3321 TBTAMSH  STM   R5,R10,TBSAV4                                            53740021
 002300 4160 0002      00002        3322          LA    R6,DX2                                                   53760021
 002304 5954 0014      00014        3323 TBTAMS00 C     R5,TBDLSTAM(R4)                                          53780021
 002308 4780 B9C2      022EA        3324          BE    TBTAMSX             PREPARE TO RETURN TO NXT SEQ IN      53800021
 00230C 5875 0000      00000        3325          L     R7,DX0(R5)                                               53820021
 002310 4177 0000      00000        3326          LA    R7,DX0(R7)                GET OLD ADDRESS.               53840021
 002314 4406 BA02      0232A        3327          EX    R0,TBTAMSAS(R6)          UPDATE IT.                      53860021
 002318 5070 C3C8      02DF0        3328          ST    R7,TBTEMP                                                53880021
 00231C D202 5001 C3C9 00001 02DF1  3329          MVC   DX1(LX3,R5),TBTEMP+NX1                                   53900021
 002322 4155 000C      0000C        3330          LA    R5,TBTAMLG(R5)                                           53920021
 002326 47F0 B9DC      02304        3331          B     TBTAMS00            LOOP BACK                            53940021
0
 00232A 1B79                        3333 TBTAMSAS SR    R7,R9                                                    53980021
 00232C 1A79                        3334          AR    R7,R9                                                    54000021
-
0
                                    3336 *                                                                       54040021
                                    3337 *        TBINSTAM  -ADD A TAM  AT THE END OF THE TAM AREA ASSIGNED      54060021
                                    3338 *                   A MASTAM. R4 HAS ADDR. OF MASTAM                    54080021
                                    3339 *                             R5  -   -   WHERE TAM SHOULD BE INSER     54100021
                                    3340 *                                                                       54120021
                                    3341 *                                                                       54140021
0
 00232E 905A C3CC      02DF4        3343 TBINSTAM STM   R5,R10,TBSAV2                                            54180021
 002332 50E0 C3E4      02E0C        3344          ST    R14,TBSAV214                                             54200021
1PH00     IKFCBL00                                                                                              PAGE   71
-  LOC  OBJECT CODE    ADDR1 ADDR2  STMT   SOURCE STATEMENT                                       ASM 0201 11.03 02/14/15
0002336 58A0 C3B4      02DDC        3345 TBINS01  L     R10,TBNEXTAM                                             54220021
 00233A 189A                        3346          LR    R9,R10                                                   54240021
 00233C 59A0 C4D4      02EFC        3347          C     R10,TBAENTM                                              54260021
 002340 4740 BA24      0234C        3348          BL    TBINS00             R10 < @TBENDTAM                      54280021
 002344 45E0 BA8A      023B2        3349          BAL   R14,TBPACKGN             NO TAM'S LEFT -PACK ALL MAS     54300021
 002348 47F0 BA0E      02336        3350          B     TBINS01             LOOP BACK                            54320021
 00234C 5854 0014      00014        3351 TBINS00  L     R5,TBDLSTAM(R4)                                          54340021
 002350 1889                        3352          LR    R8,R9                                                    54360021
 002352 1B85                        3353          SR    R8,R5                                                    54380021
 002354 41AA 000C      0000C        3354          LA    R10,TBTAMLG(R10)                                         54400021
 002358 45E0 B702      0202A        3355          BAL   R14,TBMOVDON             MOVE TAM'S DOWN 1 .             54420021
 00235C 4190 000C      0000C        3356          LA    R9,TBTAMLG                                               54440021
 002360 18A5                        3357          LR    R10,R5                                                   54460021
 002362 1854                        3358          LR    R5,R4                                                    54480021
 002364 45E0 BA4C      02374        3359          BAL   R14,TBMASUPH             UPDATE TAM.                     54500021
 002368 185A                        3360          LR    R5,R10                                                   54520021
 00236A 986A C3D0      02DF8        3361          LM    R6,R10,TBSAV2+NX4                                        54540021
 00236E 58E0 C3E4      02E0C        3362          L     R14,TBSAV214                                             54560021
 002372 07FE                        3363          BR    R14                 RETURN TO NEXT SEQUENTIAL INSTR      54580021
-
0
                                    3365 *                                                                       54620021
                                    3366 *        TBMASUPH   UPDATE TAM'S AND MASTAM'S DUE TO A SHIFT OF TAM     54640021
                                    3367 *                   HIGH CORE.                                          54660021
                                    3368 *        TBMASUPL   SAME THING FOR SHIFT TO LOW CORE.                   54680021
                                    3369 *                                                                       54700021
0
 002374 4160 0002      00002        3371 TBMASUPH LA    R6,DX2                                                   54740021
 002378 47F0 BA58      02380        3372          B     TBMASU00            LEAVE R6 AS IS                       54760021
 00237C 4160 0000      00000        3373 TBMASUPL LA    R6,DX0                                                   54780021
 002380 5870 C3B4      02DDC        3374 TBMASU00 L     R7,TBNEXTAM              UPDATE TBNEXTAM.                54800021
 002384 4406 BA02      0232A        3375          EX    R0,TBTAMSAS(R6)                                          54820021
 002388 5070 C3B4      02DDC        3376          ST    R7,TBNEXTAM                                              54840021
 00238C 5875 0014      00014        3377 TBMAS01  L     R7,TBDLSTAM(R5)          UPDATE FIRST MASTAM (THE ON     54860021
 002390 4406 BA02      0232A        3378          EX    R0,TBTAMSAS(R6)          WHERE SHIFT OCCURED)            54880021
 002394 5075 0014      00014        3379          ST    R7,TBDLSTAM(R5)                                          54900021
 002398 5950 C3BC      02DE4        3380          C     R5,TBLASMTM                                              54920021
 00239C 078E                        3381          BCR   R8,R14              BRANCH IF EQUAL                      54940021
 00239E 4155 001C      0001C        3382          LA    R5,TBMSTMLG(R5)          UPDATE  OTHER  MASTAMS.         54960021
 0023A2 5875 0010      00010        3383          L     R7,TBDFSTAM(R5)                                          54980021
 0023A6 4406 BA02      0232A        3384          EX    R0,TBTAMSAS(R6)                                          55000021
 0023AA 5075 0010      00010        3385          ST    R7,TBDFSTAM(R5)                                          55020021
 0023AE 47F0 BA64      0238C        3386          B     TBMAS01             LOOP BACK                            55040021
-
0
                                    3388 *                                                                       55080021
                                    3389 *        TBPACKGN  -PACK ALL MASTAM'S.                                  55100021
                                    3390 *                                                                       55120021
1PH00     IKFCBL00                                                                                              PAGE   72
-  LOC  OBJECT CODE    ADDR1 ADDR2  STMT   SOURCE STATEMENT                                       ASM 0201 11.03 02/14/15
00023B2 5040 C438      02E60        3392 TBPACKGN ST    R4,TBSAV64                                               55160021
 0023B6 50E0 C450      02E78        3393          ST    R14,TBSAV614                                             55180021
 0023BA 4140 C000      02A28        3394          LA    R4,TBMASTAM                                              55200021
 0023BE 45E0 B852      0217A        3395 TBPK11   BAL   R14,TBPACKTB        BRANCH TO PACK TABLE                 55220021
 0023C2 5940 C3BC      02DE4        3396          C     R4,TBLASMTM                                              55240021
 0023C6 4780 BAAA      023D2        3397          BE    TBPK10              PREPARE TO RETURN                    55260021
 0023CA 4144 001C      0001C        3398          LA    R4,TBMSTMLG(R4)                                          55280021
 0023CE 47F0 BA96      023BE        3399          B     TBPK11              LOOP BACK                            55300021
 0023D2 58E0 C450      02E78        3400 TBPK10   L     R14,TBSAV614                                             55320021
 0023D6 5840 C438      02E60        3401          L     R4,TBSAV64                                               55340021
 0023DA 07FE                        3402          BR    R14                 RETURN TO NEXT SEQUENTIAL INSTR      55360021
-
0
                                    3404 *                   ENTRY POINT FOR INTERNAL CALL TO PRIME              55400021
 0023DC 906A C3CC      02DF4        3405 TBPRIMEC STM   R6,R10,TBSAV2                                            55420021
 0023E0 50E0 C3E4      02E0C        3406          ST    R14,TBSAV214                                             55440021
 0023E4 47F0 F03A      02422        3407          B     TBPRIM00            X                                    55460021
 0023E8                             3408 PH0TBST2 CSECT                                                          55480021
1PH00     IKFCBL00                                                                                              PAGE   73
-  LOC  OBJECT CODE    ADDR1 ADDR2  STMT   SOURCE STATEMENT                                       ASM 0201 11.03 02/14/15
0                            023E8  3410          USING *,15                                                     55520021
                             023E8  3411 TBPRIMEB EQU   *                                                        55540021
 0023E8 5831 0000      00000        3412          L     R3,DX0(R1)                GET TIB  ADDRESS.              55560021
 0023EC 4133 0000      00000        3413          LA    R3,DX0(R3)                RELOCATE IT IF NOT DONE YET    55580021
 0023F0 5930 C4F4      02F1C        3414          C     R3,TBACOS                X                               55600021
 0023F4 47B0 F01E      02406        3415          BNL   TBPRIM01                 X                               55620021
 0023F8 5A30 C4F4      02F1C        3416          A     R3,TBACOS                X                               55640021
 0023FC 5030 C3C8      02DF0        3417          ST    R3,TBTEMP                X                               55660021
 002400 D202 1001 C3C9 00001 02DF1  3418          MVC   DX1(LX3,R1),TBTEMP+NX1     X                             55680021
 002406 D200 3000 1000 00000 00000  3419 TBPRIM01 MVC   DX0(LX1,R3),DX0(R1)        MOVE ENTRY LENGTH.            55700021
 00240C D203 3004 1004 00004 00004  3420          MVC   DX4(LX4,R3),DX4(R1)        MOVE E AND G  PARAMETERS.     55720021
 002412 4821 0004      00004        3421          LH    R2,DX4(R1)                                               55740021
 002416 4A20 C57E      02FA6        3422          AH    R2,TBCON003                                              55760021
 00241A 5420 C564      02F8C        3423          N     R2,TBMASK00              R2 HAS AMOUNT OF CORE WANTE     55780021
 00241E 4140 C000      02A28        3424          LA    R4,TBMASTAM                                              55800021
 002422 5040 C528      02F50        3425 TBPRIM00 ST    R4,TBCCMSTM              SAVE ADDR. OF STARTING MAST     55820021
 002426 41A0 F046      0242E        3426          LA    R10,TBPRIM05             LOAD TRANSFER REGISTERS FOR     55840021
 00242A 4190 F07C      02464        3427          LA    R9,TBPRIM06              TEST ROUTINE.                   55860021
 00242E 5924 000C      0000C        3428 TBPRIM05 C     R2,TBDCLENG(R4)          R2 HAS AMOUNT OF CORE WANTE     55880021
 002432 4720 F060      02448        3429          BH    TBPRIM02            AM'T WANTED IS GREATER               55900021
 002436 9118 C589      02FB1        3430          TM    TBSWGENE,TBFLINST+TBFLDICT                               55920021
 00243A 4780 F0FE      024E6        3431          BZ    TBPRIM03            BR TO GET NEW TAM,ETC                55940021
                                    3432 *        EXIT FOR INSERT OR DISCP WHEN ENOUGH SPACE IN MFA.             55960021
                                    3433 *                                                                       55980021
 00243E 986A C3CC      02DF4        3434 TBPRIM13 LM    R6,R10,TBSAV2                                            56000021
 002442 58E0 C3E4      02E0C        3435          L     R14,TBSAV214                                             56020021
 002446 07FE                        3436          BR    R14                 RETURN TO NEXT SEQUENTIAL INSTR      56040021
0
                                    3438 *                                                                       56080021
                                    3439 *  TEST IF EVERY MASTAM HAS BEEN SCANNED  STARTING WHITH THE ONE WH     56100021
                                    3440 *  ADDRESS IS IN TBCCMSTM.    R10 AND R9 ARE SET BY CALLER.             56120021
                                    3441 *                                                                       56140021
                                    3442 *                                                                       56160021
 002448 5940 C3BC      02DE4        3443 TBPRIM02 C     R4,TBLASMTM                                              56180021
 00244C 4780 F074      0245C        3444          BE    TBPRIM04                 LAST MASTAM                     56200021
 002450 4144 001C      0001C        3445          LA    R4,TBMSTMLG(R4)                                          56220021
 002454 5940 C528      02F50        3446 TBPRIM07 C     R4,TBCCMSTM              ARE WE BACK WITH FIRST ONE.     56240021
 002458 077A                        3447          BCR   R7,R10                    NO- TEST NEXT MASTAM.          56260021
 00245A 07F9                        3448          BR    R9                       YES-GO TO NEXT STEP.            56280021
 00245C 4140 C000      02A28        3449 TBPRIM04 LA    R4,TBMASTAM                                              56300021
 002460 47F0 F06C      02454        3450          B     TBPRIM07            X                                    56320021
0
                                    3452 *  NOW TRY  TO FIND A BIG ENOUGH FREE AREA (TFA)                        56360021
                                    3453 *                                                                       56380021
                                    3454 *                                                                       56400021
 002464 58A0 C4B4      02EDC        3455 TBPRIM06 L     R10,TBAPHASW                                             56420021
 002468 1872                        3456          LR    R7,R2                                                    56440021
 00246A 9504 A000      00000        3457          CLI   DX0(R10),TAM2Q                                           56460021
 00246E 4770 F09A      02482        3458          BNE   TBPRIM66            PHZSW NOT EQUAL X'04'                56480021
 002472 9110 C589      02FB1        3459          TM    TBSWGENE,TBFLDICT                                        56500021
 002476 4780 F09A      02482        3460          BZ    TBPRIM66            SKIP NEXT INSTRUCTIONS               56520021
 00247A 9501 C58A      02FB2        3461          CLI   TBDISW,XX01                                              56540021
 00247E 4780 F1CA      025B2        3462          BE    TBPRIM22            BR TO TRY TO SPILL DICT SECTION      56560021
1PH00     IKFCBL00                                                                                              PAGE   74
-  LOC  OBJECT CODE    ADDR1 ADDR2  STMT   SOURCE STATEMENT                                       ASM 0201 11.03 02/14/15
0002482 41A0 F0A2      0248A        3463 TBPRIM66 LA    R10,TBPRIM09                                             56580021
 002486 4190 F11C      02504        3464          LA    R9,TBPRIM14              NEXT STEP ADDRESS.              56600021
 00248A 5854 0010      00010        3465 TBPRIM09 L     R5,TBDFSTAM(R4)                                          56620021
 00248E 5954 0014      00014        3466 TBPRIM99 C     R5,TBDLSTAM(R4)                                          56640021
 002492 4780 F060      02448        3467          BE    TBPRIM02                 NO MORE TAM - TRY NEXT MAST     56660021
 002496 9101 5000      00000        3468          TM    DX0(R5),TBFLFREE                                         56680021
 00249A 4710 F0BE      024A6        3469          BO    TBPRIM08            DON'T GO TO TBPRIM99                 56700021
 00249E 4155 000C      0000C        3470 TBPRIM10 LA    R5,TBTAMLG(R5)                                           56720021
 0024A2 47F0 F0A6      0248E        3471          B     TBPRIM99            LOOP BACK                            56740021
 0024A6 5865 0004      00004        3472 TBPRIM08 L     R6,DX4(R5)                                               56760021
 0024AA 1962                        3473          CR    R6,R2                                                    56780021
 0024AC 4740 F0B6      0249E        3474          BL    TBPRIM10                 NOT BIG ENOUGH                  56800021
 0024B0 9110 C589      02FB1        3475          TM    TBSWGENE,TBFLDICT                                        56820021
 0024B4 4710 F114      024FC        3476          BO    TBPRIM11                 FOR DICT CALL- PACK TABLE.      56840021
 0024B8 9108 C589      02FB1        3477          TM    TBSWGENE,TBFLINST                                        56860021
 0024BC 4780 F0E4      024CC        3478          BZ    TBPRIM12            DON'T RETURN YET                     56880021
 0024C0 986A C3CC      02DF4        3479 TBPRIM35 LM    R6,R10,TBSAV2            RETURN FOR INSERT WHEN SPAC     56900021
 0024C4 58E0 C3E4      02E0C        3480          L     R14,TBSAV214             IS FOUND IN TFA.                56920021
 0024C8 47FE 0004      00004        3481          B     4(R14)              X                                    56940021
0
 0024CC 9204 5000      00000        3483 TBPRIM12 MVI   DX0(R5),TBFLPRIM                                         56980021
                                    3484 *                                                                       57000021
 0024D0 5050 C3C8      02DF0        3485          ST    R5,TBTEMP                                                57020021
 0024D4 D202 3001 C3C9 00001 02DF1  3486          MVC   DX1(LX3,R3),TBTEMP+NX1                                   57040021
 0024DA 5025 0004      00004        3487          ST    R2,DX4(R5)                UPDATE TIB AND TAM FOR NEW     57060021
 0024DE 5035 0008      00008        3488          ST    R3,DX8(R5)                TABLE.                         57080021
 0024E2 47F0 F50A      028F2        3489          B     TBTAMENX            NOW PREPARE TO RETURN                57100021
0
                             024E6  3491 TBPRIM03 EQU   *                                                        57140021
 0024E6 45E0 BA06      0232E        3492          BAL   R14,TBINSTAM             GET A NEW TAM                   57160021
 0024EA D203 5000 4008 00000 00008  3493          MVC   DX0(LX4,R5),TBDSTADD(R4)                                 57180021
 0024F0 45E0 B94C      02274        3494          BAL   R14,TBTIBUP         UPDATE TIB                           57200021
 0024F4 45E0 F3F6      027DE        3495          BAL   R14,TBINS88         UPDATE MASTAM                        57220021
 0024F8 47F0 F0E4      024CC        3496          B     TBPRIM12            UPDATE TIB,TAM AND RETURN            57240021
0
 0024FC 45E0 B852      0217A        3498 TBPRIM11 BAL   R14,TBPACKTB        BRANCH TO PACK TABLE                 57280021
 002500 47F0 F056      0243E        3499          B     TBPRIM13            PREPARE TO RETURN                    57300021
0
                                    3501 *   THE NEXT STEP IS TO PACK THE TABLES AND TRY STEP1 AGAIN.            57340021
                                    3502 *                                                                       57360021
                                    3503 *                                                                       57380021
 002504 41A0 F124      0250C        3504 TBPRIM14 LA    R10,TBPRIM15                                             57400021
 002508 4190 F12C      02514        3505          LA    R9,TBPRIM16                                              57420021
 00250C 45E0 B852      0217A        3506 TBPRIM15 BAL   R14,TBPACKTB        BRANCH TO PACK TABLE                 57440021
 002510 47F0 F046      0242E        3507          B     TBPRIM05            X                                    57460021
0
                                    3509 *   THE NEXT STEP IS TO ASK FOR COBOL SPACE IF ANY IS LEFT.             57500021
                                    3510 *                                                                       57520021
                                    3511 *                                                                       57540021
 002514                             3512 TBPRIM16 DS    0H                                                       57560021
1PH00     IKFCBL00                                                                                              PAGE   75
-  LOC  OBJECT CODE    ADDR1 ADDR2  STMT   SOURCE STATEMENT                                       ASM 0201 11.03 02/14/15
0002514 9102 C589      02FB1        3513          TM    TBSWGENE,TBSPASKD                                        57580021
 002518 4710 F142      0252A        3514          BO    TBPRIM17            X                                    57600021
 00251C 45E0 B4F6      01E1E        3515          BAL   R14,TBGETSPC        BR TO ASK FOR COBOL SPACE            57620021
 002520 41A0 F046      0242E        3516          LA    R10,TBPRIM05                                             57640021
 002524 4190 F142      0252A        3517          LA    R9,TBPRIM17                                              57660021
 002528 07FA                        3518          BR    R10                 GO TO TBPRIM05                       57680021
0
                                    3520 *   THE  NEXT  STEP IS TO LEAVE SPACE FOR ONLY ONE MORE ENTRY IN EA     57720021
                                    3521 *   PRIMED TABLE AND TO PACK THOSE TRUNCATED TABLE. FROM NOW ON FOR     57740021
                                    3522 *   PRIME AND INSERT SPACE WILL BE GIVEN ON AN ENTRY BASIS.             57760021
                                    3523 *                                                                       57780021
                                    3524 *                                                                       57800021
 00252A 1872                        3525 TBPRIM17 LR    R7,R2                                                    57820021
 00252C 4190 F19E      02586        3526          LA    R9,TBPRIM20                                              57840021
 002530 41A0 F178      02560        3527          LA    R10,TBPRIM18                                             57860021
 002534 9110 C589      02FB1        3528          TM    TBSWGENE,TBFLDICT                                        57880021
 002538 4710 F178      02560        3529          BO    TBPRIM18            SKIP OVER NEXT INSTRUCTIONS          57900021
 00253C 1873                        3530          LR    R7,R3                    GET ENTRY LENGTH.               57920021
 00253E 45E0 B93A      02262        3531          BAL   R14,TBENTLG         BRANCH TO GET ENTRY LENGTH           57940021
 002542 4A70 C57E      02FA6        3532          AH    R7,TBCON003                                              57960021
 002546 5470 C564      02F8C        3533          N     R7,TBMASK00                                              57980021
 00254A 9108 C589      02FB1        3534          TM    TBSWGENE,TBFLINST                                        58000021
 00254E 4780 F178      02560        3535          BZ    TBPRIM18            SKIP NEXT INSTRUCITONS               58020021
 002552 41A0 F046      0242E        3536          LA    R10,TBPRIM05                                             58040021
 002556 5853 0000      00000        3537          L     R5,DX0(R3)                                               58060021
 00255A 4825 0006      00006        3538          LH    R2,DX6(R5)                                               58080021
 00255E 1A27                        3539          AR    R2,R7                                                    58100021
 002560 5974 000C      0000C        3540 TBPRIM18 C     R7,TBDCLENG(R4)                                          58120021
 002564 4720 F060      02448        3541          BH    TBPRIM02            BR TO TEST EVERY MASTAM SCANNED      58140021
 002568 1827                        3542 TBPRIM31 LR    R2,R7                                                    58160021
 00256A 9118 C589      02FB1        3543 TBPRIM36 TM    TBSWGENE,TBFLINST+TBFLDICT                               58180021
 00256E 4780 F0FE      024E6        3544          BZ    TBPRIM03            GET NEW TAM,UPDATE TIB,MASTAM        58200021
 002572 9110 C589      02FB1        3545          TM    TBSWGENE,TBFLDICT                                        58220021
 002576 4710 F056      0243E        3546          BO    TBPRIM13            BRANCH TO RETURN                     58240021
 00257A 986A C3CC      02DF4        3547          LM    R6,R10,TBSAV2                                            58260021
 00257E 58E0 C3E4      02E0C        3548          L     R14,TBSAV214                                             58280021
 002582 47FE 0008      00008        3549          B     8(R14)              RETURN                               58300021
0
                                    3551 *  FULLPACK                                                             58340021
                                    3552 *                                                                       58360021
                                    3553 *                                                                       58380021
 002586 4190 F1CA      025B2        3554 TBPRIM20 LA    R9,TBPRIM22                                              58400021
 00258A 41A0 F1B2      0259A        3555          LA    R10,TBPRIM21                                             58420021
 00258E 9108 C589      02FB1        3556          TM    TBSWGENE,TBFLINST                                        58440021
 002592 4780 F1B2      0259A        3557          BZ    TBPRIM21            LEAVE R10 ALONE                      58460021
 002596 41A0 F1BE      025A6        3558          LA    R10,TBPRIM23                                             58480021
 00259A 9604 C589      02FB1        3559 TBPRIM21 OI    TBSWGENE,TBFULLPK                                        58500021
 00259E 45E0 B852      0217A        3560          BAL   R14,TBPACKTB        BRANCH TO PACK TABLE                 58520021
 0025A2 47F0 F178      02560        3561          B     TBPRIM18            X                                    58540021
 0025A6 9604 C589      02FB1        3562 TBPRIM23 OI    TBSWGENE,TBFULLPK                                        58560021
 0025AA 45E0 B852      0217A        3563          BAL   R14,TBPACKTB        BRANCH TO PACK TABLE                 58580021
 0025AE 47F0 F046      0242E        3564          B     TBPRIM05            X                                    58600021
1PH00     IKFCBL00                                                                                              PAGE   76
-  LOC  OBJECT CODE    ADDR1 ADDR2  STMT   SOURCE STATEMENT                                       ASM 0201 11.03 02/14/15
0                                   3566 *        NO LUCK  - TRY  TO SPILL DICTIONARY SECTION                    58640021
                                    3567 *                                                                       58660021
                                    3568 *                                                                       58680021
 0025B2 9101 C589      02FB1        3569 TBPRIM22 TM    TBSWGENE,TBFLNODC                                        58700021
 0025B6 4710 F244      0262C        3570          BO    TBABEND             SEND WARNING AND END COMP.           58720021
 0025BA 5860 C3C4      02DEC        3571          L     R6,TBSECTN                                               58740021
 0025BE 4960 C57E      02FA6        3572          CH    R6,TBCON003                                              58760021
 0025C2 4740 F244      0262C        3573          BL    TBABEND             SEND WARNING AND END COMP.           58780021
                                    3574 *                                                                       58800021
                                    3575 *  TRY  TO  SPILL  ONE SECTION FROM  CURRENT MASTAM.                    58820021
                                    3576 *                                                                       58840021
 0025C6 5864 0018      00018        3577          L     R6,TBDNSECT(R4)                                          58860021
 0025CA 1266                        3578          LTR   R6,R6                                                    58880021
 0025CC 4780 F1F0      025D8        3579          BZ    TBPRIM30            X                                    58900021
 0025D0 45E0 B746      0206E        3580          BAL   R14,TBSPILL         BR TO SPILL DICT SECTION             58920021
 0025D4 47F0 F180      02568        3581          B     TBPRIM31            X                                    58940021
 0025D8 41A0 F1FC      025E4        3582 TBPRIM30 LA    R10,TBPRIM32                                             58960021
 0025DC 4190 F244      0262C        3583          LA    R9,TBABEND                                               58980021
 0025E0 47F0 F060      02448        3584          B     TBPRIM02            BR TO TEST EVERY MASTAM SCANNED      59000021
 0025E4 9108 C589      02FB1        3585 TBPRIM32 TM    TBSWGENE,TBFLINST                                        59020021
 0025E8 4710 F206      025EE        3586          BO    TBPRIM33            X                                    59040021
 0025EC 1827                        3587          LR    R2,R7                                                    59060021
 0025EE 1B11                        3588 TBPRIM33 SR    R1,R1                                                    59080021
 0025F0 5804 000C      0000C        3589          L     R0,TBDCLENG(R4)                                          59100021
                             025F4  3590 TBPRIM37 EQU *                                                          59120021
 0025F4 4111 0001      00001        3591          LA    R1,DX1(R1)                                               59140021
 0025F8 4A00 C586      02FAE        3592          AH    R0,TBCON512                                              59160021
 0025FC 1902                        3593          CR    R0,R2                                                    59180021
 0025FE 4740 F20C      025F4        3594          BL    TBPRIM37            X                                    59200021
 002602 5914 0018      00018        3595          C     R1,TBDNSECT(R4)                                          59220021
 002606 4720 F060      02448        3596          BH    TBPRIM02            BR TO TEST EVERY MASTAM SCANNED      59240021
 00260A 5860 C3C4      02DEC        3597          L     R6,TBSECTN                                               59260021
 00260E 1B61                        3598          SR    R6,R1                                                    59280021
 002610 4960 C57E      02FA6        3599          CH    R6,TBCON003                                              59300021
 002614 4740 F244      0262C        3600          BL    TBABEND             SEND WARNING AND END COMP            59320021
 002618 45E0 B746      0206E        3601 TBPRIM34 BAL   R14,TBSPILL         BR TO SPILL DICT SECTION             59340021
 00261C 4610 F230      02618        3602          BCT   R1,TBPRIM34         X                                    59360021
 002620 9108 C589      02FB1        3603          TM    TBSWGENE,TBFLINST                                        59380021
 002624 4710 F056      0243E        3604          BO    TBPRIM13            RETURN TO NEXT SEQUENTIAL INSTR      59400021
 002628 47F0 F182      0256A        3605          B     TBPRIM36            X                                    59420021
 00262C 4120 C58D      02FB5        3606 TBABEND  LA    R2,TBMESS1                                               59440021
 002630 4130 0034      00034        3607          LA    R3,TBMESS1L                                              59460021
 002634 5840 C600      03028        3608 TBERRLG  L     R4,TBATRMNT                                              59480021
 002638 07F4                        3609          BR    R4                  BRANCH TO TRMNATE                    59500021
0
-
0
                                    3612 *        TBSTATIC - INDICATES THAT A PRIMED TABLE  WILL NOT GROW AN     59560021
                                    3613 *                 - MORE                                                59580021
                                    3614 *        STATIC CALCULATES THE AMOUNT OF UNUSED TABLE AREA AND STOR     59600021
                                    3615 *        IT IN THE TAMM IN PLACE OF THE SIZE OF THE ENTIRE TABLE        59620021
1PH00     IKFCBL00                                                                                              PAGE   77
-  LOC  OBJECT CODE    ADDR1 ADDR2  STMT   SOURCE STATEMENT                                       ASM 0201 11.03 02/14/15
0                                   3616 *        THESTATIC CODE IS X'02' IN THE TOP BYTE OF THE TAMM            59640021
 00263A 5821 0000      00000        3617 TBSTATIC L     R2,DX0(R1)      LOAD TAMM ADD INTO R2                    59660021
 00263E 9104 2000      00000        3618          TM    DX0(R2),TBFLPRIM                                         59680021
 002642 4780 F5FA      029E2        3619          BZ    TBERR1              PREPARE TO TERMINATE                 59700021
 002646 4832 0006      00006        3620          LH    R3,DX6(R2)      LOAD TAMM ADDR INTO R2                   59720021
 00264A 4B32 0004      00004        3621          SH    R3,DX4(R2)      SUBTRACT BYTES USED                      59740021
 00264E 4032 0006      00006        3622          STH   R3,DX6(R2)      STORE NO OF FREE BYTES AVAILABLE         59760021
                                    3623 *                                  FLAG TABLE AS STATIC                 59780021
 002652 9202 2000      00000        3624          MVI   DX0(R2),TBFLSTAT                                         59800021
 002656 47F0 F50A      028F2        3625          B     TBTAMENX            BRANCH TO RETURN                     59820021
-
0
                                    3627 ******                                                           **     59860021
                                    3628 *                             TBTABREL                                  59880021
                                    3629 *        TABREL IS CALLED WHEN A PHASE IS FINISHED WITH A TABLE         59900021
                                    3630 *        THE SPACE IS THEN RELEASED FOR USE BY OTHER TABLES             59920021
                                    3631 *        THE TIB CAN NOW BE REUSED FOR ANOTHER TABLE. THE TAMM IS S     59940021
                                    3632 *        TO X'02' TO INDICATE THAT THE TABLE IT POINTS TO IS FREE.      59960021
                                    3633 *        THE LENGTH OF THE TABLE IS STORED IN THE SECOND FULL WORD      59980021
                                    3634 *        THE TAMM                                                       60000021
                                    3635 ******                                                           **     60020021
 00265A 5821 0000      00000        3636 TBTABREL L     R2,DX0(R1)           GET TAMM ADDRESS                    60040021
 00265E 4832 0006      00006        3637          LH    R3,DX6(R2)                                               60060021
 002662 9104 2000      00000        3638          TM    DX0(R2),TBFLPRIM                                         60080021
 002666 4710 F286      0266E        3639          BO    TYCONT              X                                    60100021
 00266A 4A32 0004      00004        3640          AH    R3,DX4(R2)           GET LENGTH OF TABLE IF STATIC       60120021
                             0266E  3641 TYCONT   EQU   *                                                        60140021
 00266E 5032 0004      00004        3642          ST    R3,DX4(R2)           STORE FREE LENGTH IN TAMM           60160021
 002672 9201 2000      00000        3643          MVI   DX0(R2),TBFLFREE                                         60180021
 002676 D703 1000 1000 00000 00000  3644          XC    DX0(LX4,R1),DX0(R1) SET TAMM ADDRESS IN TIB TO ZERO      60200021
 00267C 47F0 F50A      028F2        3645          B     TBTAMENX            BRANCH TO RETURN                     60220021
-
0
                                    3647 ******                                                           **     60260021
                                    3648 *                             TBINSERT                                  60280021
                                    3649 *        INSERT IS CALLED WHEN ONE OF THE PHASES NEEDS TO MAKE AN       60300021
                                    3650 *        ENTRY INTO THE TABLE                                           60320021
                                    3651 *                                                                       60340021
                                    3652 *        IF THERE IS ROOM LEFT IN THE TABLE INSERT WILL RETURN          60360021
                                    3653 *        NORMALLY. OTHERWISE IT WILL CALL PRIME TO FIND A LARGER        60380021
                                    3654 *        AREA FOR THE TABLE.                                            60400021
                                    3655 *                                                                       60420021
                                    3656 *        INSERT CALLING PARAMETERS                                      60440021
                                    3657 *              R15  ADDRESS OF INSERT                                   60460021
                                    3658 *              R14  RETURN LINKAGE                                      60480021
                                    3659 *              R1   ADDRESS OF TIB                                      60500021
                                    3660 *              R0   CAN CONTAIN ENTRY LENGTH IF NOT ALREADY IN TIB      60520021
                                    3661 *                                                                       60540021
                                    3662 *        INSERT RETURN PARAMETERS                                       60560021
1PH00     IKFCBL00                                                                                              PAGE   78
-  LOC  OBJECT CODE    ADDR1 ADDR2  STMT   SOURCE STATEMENT                                       ASM 0201 11.03 02/14/15
0                                   3663 *              R2   ADDRESS WHERE NEW ENTRY CAN BE MADE                 60580021
                                    3664 *              R3   DISPLACEMENT FROM BEGINNING OF TABLE OF NEW ENT     60600021
                                    3665 ******                                                           **     60620021
 002680 1831                        3666 TBINSERT LR    R3,R1                                                    60640021
 002682 9608 C589      02FB1        3667          OI    TBSWGENE,TBFLINST                                        60660021
 002686 5823 0000      00000        3668          L     R2,DX0(R3)                                               60680021
 00268A 1862                        3669          LR    R6,R2                                                    60700021
 00268C 8820 0018      00018        3670          SRL   R2,DX24                                                  60720021
                                    3671 *                                  IS ENTRY LENGTH IN TIB               60740021
 002690 1222                        3672          LTR   R2,R2                                                    60760021
 002692 4770 F2B6      0269E        3673          BNE   TBINSE00            X                                    60780021
                                    3674 *                                  IF NOT, IS ENTRY LENGTH IN R0        60800021
 002696 1200                        3675          LTR   R0,R0                                                    60820021
 002698 4780 F3EC      027D4        3676          BE    TBINSEXT            NO ENTRY LENGTH GIVEN.               60840021
 00269C 1820                        3677          LR    R2,R0                                                    60860021
                             0269E  3678 TBINSE00 EQU   *                                                        60880021
 00269E 9104 6000      00000        3679          TM    DX0(R6),TBFLPRIM                                         60900021
 0026A2 4780 F5FA      029E2        3680          BZ    TBERR1              SEND OUT WARNING AND END COMP.       60920021
 0026A6 4876 0004      00004        3681          LH    R7,DX4(R6)                                               60940021
 0026AA 1A72                        3682          AR    R7,R2                                                    60960021
 0026AC 4976 0006      00006        3683          CH    R7,DX6(R6)                                               60980021
 0026B0 47D0 F3EC      027D4        3684          BNH   TBINSEXT            ENOUGH ROOM :OK                      61000021
 0026B4 1872                        3685          LR    R7,R2               SAVE ENTRY LENGTH                    61020021
                                    3686 *  TABLE NEED TO GROW - GROW IS ALWAYS SET TO 256 BYTES.                61040021
                                    3687 *                                                                       61060021
 0026B6 4826 0006      00006        3688          LH    R2,DX6(R6)                                               61080021
 0026BA 4A20 C582      02FAA        3689          AH    R2,TBCON256                                              61100021
 0026BE 4920 C6EC      03114        3690          CH    R2,TB32767                                               61120021
 0026C2 4720 F602      029EA        3691          BH    TBERR3              SEND OUT WARNING AND END COMP.       61140021
 0026C6 4140 C000      02A28        3692          LA    R4,TBMASTAM                                              61160021
 0026CA 4166 0000      00000        3693          LA    R6,DX0(R6)                                               61180021
 0026CE 5854 0014      00014        3694 TBINSE02 L     R5,TBDLSTAM(R4)                                          61200021
 0026D2 1965                        3695          CR    R6,R5                                                    61220021
 0026D4 4740 F300      026E8        3696          BL    TBINSE01                 R4 HAS MASTAM TO WHICH TABL     61240021
 0026D8 5940 C3BC      02DE4        3697          C     R4,TBLASMTM              BELONG.                         61260021
 0026DC 4780 F5FA      029E2        3698          BE    TBERR1              SEND OUT WARNING AND END COMP.       61280021
 0026E0 4144 001C      0001C        3699          LA    R4,TBMSTMLG(R4)                                          61300021
 0026E4 47F0 F2E6      026CE        3700          B     TBINSE02            LOOP THROUGH AGAIN                   61320021
0
 0026E8 45E0 BAB4      023DC        3702 TBINSE01 BAL   R14,TBPRIMEC        INTERNAL CALL TO PRIME               61360021
                                    3703 *                                  RETURN FROM PRIME IF MFA WAS FOU     61380021
 0026EC 47F0 F39A      02782        3704          B     TBINS04             X                                    61400021
 0026F0 47F0 F358      02740        3705          B     TBINS05             INSERT NEW TAMM --> MOVE TO MFA      61420021
                                    3706 *                                  RETURN FROM PRIME IF TFA WAS FOU     61440021
0
                                    3708 *  ENOUGH SPACE IN MFA FOR ONE ENTRY.                                   61480021
                                    3709 *                                  GET ADD OF TAMM  IN R6               61500021
 0026F4 45E0 F3E2      027CA        3710          BAL   R14,TBINS90         X                                    61520021
 0026F8 5886 0000      00000        3711          L     R8,DX0(R6)                                               61540021
 0026FC 4188 0000      00000        3712          LA    R8,DX0(R8)                                               61560021
                                    3713 *                                  R8 HAS ADD OF END OF TABLE           61580021
 002700 4A86 0006      00006        3714          AH    R8,DX6(R6)                                               61600021
 002704 5894 0008      00008        3715          L     R9,TBDSTADD(R4)                                          61620021
1PH00     IKFCBL00                                                                                              PAGE   79
-  LOC  OBJECT CODE    ADDR1 ADDR2  STMT   SOURCE STATEMENT                                       ASM 0201 11.03 02/14/15
0002708 18A9                        3716          LR    R10,R9                                                   61640021
 00270A 1AA2                        3717          AR    R10,R2                                                   61660021
 00270C 1B89                        3718          SR    R8,R9                                                    61680021
 00270E 1388                        3719          LCR   R8,R8                                                    61700021
                                    3720 *                                  R8 NOW HAS LENGTH TABLE MUST MOV     61720021
 002710 45E0 B702      0202A        3721          BAL   R14,TBMOVDON        BR TO MOVE TABLE TOWARDS HICORE      61740021
 002714 4156 000C      0000C        3722          LA    R5,TBTAMLG(R6)                                           61760021
 002718 1B9A                        3723          SR    R9,R10                                                   61780021
 00271A 1399                        3724          LCR   R9,R9                                                    61800021
                                    3725 *                                  GO TO UPDATE TAMMS AFFCTED BY SH     61820021
 00271C 45E0 B9D4      022FC        3726          BAL   R14,TBTAMSH         HICORE SHIFT-->UPDTE TAM TBL @S      61840021
                                    3727 *                                  GO TO UPDATE MASTAMS                 61860021
 002720 45E0 F3F6      027DE        3728          BAL   R14,TBINS88         UPDATE MASTAM                        61880021
 002724 4816 0006      00006        3729          LH    R1,DX6(R6)                                               61900021
 002728 1A21                        3730          AR    R2,R1                                                    61920021
 00272A 45E0 F40C      027F4        3731          BAL   R14,TBINS89         SET UP RETURN REGS FROM INSERT       61940021
                                    3732 *                                  UPDATE TAMM AND SET UP R2 AND R3     61960021
                                    3733 *                                  RETURN TO PHASE                      61980021
                                    3734 *                                                                       62000021
 00272E 58F0 C4E8      02F10        3735 TBINXIT  L     R15,TBASAV1              EXIT                            62020021
 002732 9708 C589      02FB1        3736          XI    TBSWGENE,TBFLINST                                        62040021
 002736 9801 F000      00000        3737          LM    R0,R1,DX0(R15)                                           62060021
 00273A 984F F010      00010        3738          LM    R4,R15,DX16(R15)                                         62080021
 00273E 07FE                        3739          BR    R14                 RETURN                               62100021
0
                                    3741 *                                  PRIME RETURNS ADD OF NEW TAMM IN     62140021
 002740 58A5 0000      00000        3742 TBINS05  L     R10,DX0(R5)                                              62160021
 002744 41AA 0000      00000        3743          LA    R10,DX0(R10)                                             62180021
 002748 45E0 F3E2      027CA        3744          BAL   R14,TBINS90         X                                    62200021
                                    3745 *                                  R6 HAS ADD OF OLD TAMM               62220021
 00274C 5896 0000      00000        3746          L     R9,DX0(R6)                                               62240021
 002750 4199 0000      00000        3747          LA    R9,DX0(R9)                                               62260021
 002754 4886 0004      00004        3748          LH    R8,DX4(R6)                                               62280021
 002758 45E0 B6C8      01FF0        3749          BAL   R14,TBMOVUP         BR TO MOVE TBL TOWARDS LOW CORE      62300021
                                    3750 *                                  MOVE TABLE TO TFA                    62320021
 00275C D207 5004 6004 00004 00004  3751          MVC   DX4(LX8,R5),DX4(R6)                                      62340021
                                    3752 *                                  UPDATE NEW TAMM                      62360021
 002762 1765                        3753          XR    R6,R5                                                    62380021
 002764 1756                        3754          XR    R5,R6                                                    62400021
 002766 1765                        3755          XR    R6,R5                                                    62420021
 002768 45E0 F40C      027F4        3756          BAL   R14,TBINS89         SET UP RETURN REGS FROM INSERT       62440021
 00276C 9204 6000      00000        3757          MVI   DX0(R6),TBFLPRIM                                         62460021
 002770 9201 5000      00000        3758          MVI   DX0(R5),TBFLFREE                                         62480021
 002774 D701 5004 5004 00004 00004  3759          XC    DX4(LX2,R5),DX4(R5)                                      62500021
 00277A 45E0 B94C      02274        3760          BAL   R14,TBTIBUP         TAM MOVED-->UPDATE TIB               62520021
 00277E 47F0 F346      0272E        3761          B     TBINXIT             PREPARE TO RETURN TO CALLING PH      62540021
0
                                    3763 *                                  INSERT NEW TAMM BEFORE MOVING TA     62580021
                                    3764 *                                  TO MFA                               62600021
                             02782  3765 TBINS04  EQU   *                                                        62620021
 002782 45E0 F3E2      027CA        3766          BAL   R14,TBINS90         X                                    62640021
 002786 4896 0006      00006        3767          LH    R9,DX6(R6)           TABLE LENGTH                        62660021
 00278A 5886 0000      00000        3768          L     R8,DX0(R6)           TABLE ADDRESS                       62680021
1PH00     IKFCBL00                                                                                              PAGE   80
-  LOC  OBJECT CODE    ADDR1 ADDR2  STMT   SOURCE STATEMENT                                       ASM 0201 11.03 02/14/15
000278E 4188 0000      00000        3769          LA    R8,DX0(R8)           CLEAR H.O. BYTE                     62700021
 002792 1A98                        3770          AR    R9,R8               TABLE END                            62720021
 002794 5994 0008      00008        3771          C     R9,TBDSTADD(R4)                                          62740021
 002798 4770 F3CC      027B4        3772          BNE   TBINS03             X                                    62760021
                                    3773 **            LAST TABLE - DO NOT MOVE IT                               62780021
 00279C 4120 0100      00100        3774          LA    R2,DX256             ADD GROWTH FACTOR TO MASTAM,        62800021
 0027A0 45E0 F3F6      027DE        3775          BAL   R14,TBINS88         UPDATE TABLE END                     62820021
 0027A4 4826 0006      00006        3776          LH    R2,DX6(R6)                                               62840021
 0027A8 4A20 C582      02FAA        3777          AH    R2,TBCON256         NEW TABLE SIZE                       62860021
 0027AC 45E0 F40C      027F4        3778          BAL   R14,TBINS89         SET UP RETURN REGS FORM INSERT       62880021
 0027B0 47F0 F346      0272E        3779          BC    UNCOND,TBINXIT      PREPARE TO RETURN TO CALLING PH      62900021
 0027B4                             3780 TBINS03  DS    0H                                                       62920021
 0027B4 45E0 BA06      0232E        3781          BAL   R14,TBINSTAM        BRANCH TO ADD A TAM                  62940021
 0027B8 D203 5000 4008 00000 00008  3782          MVC   DX0(LX4,R5),TBDSTADD(R4)                                 62960021
 0027BE 45E0 F3F6      027DE        3783          BAL   R14,TBINS88         BRANCH TO UPDATE MASTAM              62980021
 0027C2 45E0 B94C      02274        3784          BAL   R14,TBTIBUP         BRANCH TO UPDATE TIB                 63000021
 0027C6 41E0 F358      02740        3785          LA    R14,TBINS05                                              63020021
                             027CA  3786 TBINS90  EQU   *                                                        63040021
 0027CA 5863 0000      00000        3787          L     R6,DX0(R3)                                               63060021
 0027CE 4166 0000      00000        3788          LA    R6,DX0(R6)                                               63080021
 0027D2 07FE                        3789          BR    R14                 RETURN TO NEXT SEQUENTIAL INSTR      63100021
                                    3790 *                                  GIVEN ADDR OF TIB IN R3, PUT ADD     63120021
                                    3791 *                                  TAMM IN R6                           63140021
0
 0027D4 1872                        3793 TBINSEXT LR    R7,R2                                                    63180021
 0027D6 45E0 F410      027F8        3794          BAL   R14,TBINS89A        X                                    63200021
 0027DA 47F0 F346      0272E        3795          B     TBINXIT             PREPARE TO RETURN TO CALLING PH      63220021
-
0
                                    3797 *                                  UPDATES MASTAM                       63260021
 0027DE 5894 0008      00008        3798 TBINS88  L     R9,TBDSTADD(R4)                                          63280021
 0027E2 1A92                        3799          AR    R9,R2                                                    63300021
 0027E4 5094 0008      00008        3800          ST    R9,TBDSTADD(R4)                                          63320021
 0027E8 5894 000C      0000C        3801 TBINS78  L     R9,TBDCLENG(R4)                                          63340021
 0027EC 1B92                        3802          SR    R9,R2                                                    63360021
 0027EE 5094 000C      0000C        3803          ST    R9,TBDCLENG(R4)                                          63380021
 0027F2 07FE                        3804          BR    R14                 RETURN TO NEXT SEQUENTIAL INSTR      63400021
0
                                    3806 *                                  SETS UP RETURN REGS FROM INSERT      63440021
 0027F4 4026 0006      00006        3807 TBINS89  STH   R2,DX6(R6)                                               63460021
 0027F8 4826 0004      00004        3808 TBINS89A LH    R2,DX4(R6)                                               63480021
 0027FC 1832                        3809          LR    R3,R2                                                    63500021
 0027FE 1802                        3810          LR    R0,R2                                                    63520021
 002800 1A07                        3811          AR    R0,R7                                                    63540021
 002802 4006 0004      00004        3812          STH   R0,DX4(R6)                                               63560021
 002806 5816 0000      00000        3813          L     R1,DX0(R6)                                               63580021
 00280A 4111 0000      00000        3814          LA    R1,DX0(R1)                                               63600021
 00280E 1A21                        3815          AR    R2,R1                                                    63620021
 002810 07FE                        3816          BR    R14                 RETURN TO NEXT SEQUENTIAL INSTR      63640021
1PH00     IKFCBL00                                                                                              PAGE   81
-  LOC  OBJECT CODE    ADDR1 ADDR2  STMT   SOURCE STATEMENT                                       ASM 0201 11.03 02/14/15
0                                   3818 ******                                                           **     63680021
                                    3819 *                                                                       63700021
                                    3820 *        TAMEIN  - INITIALIZE TABLE HANDLER.                            63720021
                                    3821 *        PHASE1 - SET UP FIRST MASTAM AND HASH TABLE TAMM               63740021
                                    3822 *                 PHASE1 CALLS TAMEIN                                   63760021
                                    3823 *                                                                       63780021
                                    3824 *        PHASE2 - NO PROCESSING                                         63800021
                                    3825 *                 PHASE0 CALLS TAMEIN                                   63820021
                                    3826 *                                                                       63840021
                                    3827 *        PHASE3 - IF NO SECTIONS HAVE BEEN SPILLED, RETURN              63860021
                                    3828 *                 OTHERWISE, TRY TO GET SPACE TO READ IN AS MANY OF     63880021
                                    3829 *                 SPILLED SECTIONS AS POSSIBLE.                         63900021
                                    3830 *                 PHASE0 CALLS TAMEIN                                   63920021
                                    3831 *                                                                       63940021
                                    3832 *        PHASE4 - DOES NOT CALL TAMEIN                                  63960021
                                    3833 *                                                                       63980021
                                    3834 *        PHASE5 - DOES NOT CALL TAMEIN                                  64000021
                                    3835 *                                                                       64020021
                                    3836 *        PHASE6 - NO PROCESSING - RETURN                                64040021
                                    3837 *                 PHASE6 CALLS TAMEIN                                   64060021
                                    3838 ******                                                           **     64080021
                                    3839 *                                                                       64100021
 002812 5820 C4B4      02EDC        3840 TBTAMEIN L     R2,TBAPHASW                                              64120021
                                    3841 *                                  GREATER THAN PHASE3, RETURN          64140021
 002816 9505 2000      00000        3842          CLI   DX0(R2),TAM3Q                                            64160021
 00281A 4720 F50A      028F2        3843          BH    TBTAMENX            BR TO RESTORE REGS AND RETURN        64180021
 00281E 9502 2000      00000        3844          CLI   DX0(R2),TAM1Q                                            64200021
 002822 4720 F47A      02862        3845          BH    TBAMEN00            X                                    64220021
 002826 4140 C000      02A28        3846          LA    R4,TBMASTAM         PH1 INIT. OF TABLE HANDLER.          64240021
                                    3847 *                                  R6 HAS BEGINNING OF TABLE AREA       64260021
 00282A 5890 C4E0      02F08        3848          L     R9,TBATAMAR                                              64280021
                                    3849 *                                  R7 HAS END OF TABLE AREA             64300021
 00282E 9867 9000      00000        3850          LM    R6,R7,DX0(R9)                                            64320021
 002832 1B76                        3851          SR    R7,R6                                                    64340021
 002834 9067 4000      00000        3852          STM   R6,R7,DX0(R4)                                            64360021
                                    3853 *                                  SET UP FIRST MASTAM                  64380021
                                    3854 ******                                                           **     64400021
 002838 9067 4008      00008        3855          STM   R6,R7,TBDSTADD(R4)                                       64420021
 00283C D20B C054 C568 02A7C 02F90  3856          MVC   TBTAM(LX12),TBHASH        PRIME HASH.TABLE               64440021
 002842 45E0 B94C      02274        3857          BAL   R14,TBTIBUP         BRANCH TO UPDATE TIB                 64460021
 002846 D202 C055 C001 02A7D 02A29  3858          MVC   TBTAM+NX1(LX3),TBMASTAM+NX1                              64480021
 00284C 5890 C4B0      02ED8        3859          L     R9,TBACCSW                                               64500021
 002850 D202 9001 C001 00001 02A29  3860          MVC   DX1(LX3,R9),TBMASTAM+NX1                                 64520021
 002856 4120 0620      00620        3861          LA    R2,DX1568                                                64540021
 00285A 45E0 F3F6      027DE        3862          BAL   R14,TBINS88         BRANCH TO UPDATE MASTAM              64560021
 00285E 47F0 F50A      028F2        3863          B     TBTAMENX            BR TO RESTORE REGS AND RETURN        64580021
0
 002862 9504 2000      00000        3865 TBAMEN00 CLI   DX0(R2),TAM2Q                                            64620021
 002866 4780 F50A      028F2        3866          BE    TBTAMENX            BR TO RESTORE REGS AND RETURN        64640021
0
 00286A 9101 C58B      02FB3        3868 TBAMEN01 TM    TBSW1,TBSPILLF                                           64680021
 00286E 4780 F50A      028F2        3869          BZ    TBTAMENX            BR TO RESTORE REGS AND RETURN        64700021
 002872 D703 C3C0 C3C0 02DE8 02DE8  3870          XC    TBCURSTN(LX4),TBCURSTN                                   64720021
1PH00     IKFCBL00                                                                                              PAGE   82
-  LOC  OBJECT CODE    ADDR1 ADDR2  STMT   SOURCE STATEMENT                                       ASM 0201 11.03 02/14/15
0002878 45E0 B4F6      01E1E        3871          BAL   R14,TBGETSPC             GET ADDITIONAL SPACE AND        64740021
                                    3872 *                                       READ  BACK IN CORE AS MANY      64760021
                                    3873 *                                       SECTION OF THE DICTION. AS      64780021
                                    3874 *                                       POSSIBLE                        64800021
 00287C 5830 C4E4      02F0C        3875          L     R3,TBATIB20                                              64820021
 002880 5833 0000      00000        3876          L     R3,DX0(R3)                                               64840021
 002884 5853 0000      00000        3877          L     R5,DX0(R3)                                               64860021
 002888 4155 0000      00000        3878          LA    R5,DX0(R5)                                               64880021
 00288C 1865                        3879          LR    R6,R5                                                    64900021
 00288E 4A53 0004      00004        3880          AH    R5,DX4(R3)                                               64920021
 002892 4140 C000      02A28        3881          LA    R4,TBMASTAM                                              64940021
 002896 4B50 C578      02FA0        3882 TBAMEN03 SH    R5,TBCON012                                              64960021
 00289A 1956                        3883 TBAMEN04 CR    R5,R6                                                    64980021
 00289C 4740 F50A      028F2        3884          BL    TBTAMENX            BR TO RESTORE REGS AND RETURN        65000021
 0028A0 9140 5000      00000        3885          TM    DX0(R5),TBIN                                             65020021
 0028A4 4710 F4AE      02896        3886          BO    TBAMEN03            X                                    65040021
 0028A8 4120 0200      00200        3887          LA    R2,DX512                                                 65060021
 0028AC 5924 000C      0000C        3888 TBAMEN05 C     R2,TBDCLENG(R4)                                          65080021
 0028B0 47D0 F4DC      028C4        3889          BNH   TBAMEN06            X                                    65100021
 0028B4 5940 C3BC      02DE4        3890          C     R4,TBLASMTM                                              65120021
 0028B8 4780 F4FA      028E2        3891          BE    TBTAMENW            SPILL HAS OCCURRED                   65140021
 0028BC 4144 001C      0001C        3892          LA    R4,TBMSTMLG(R4)                                          65160021
 0028C0 47F0 F4C4      028AC        3893          B     TBAMEN05            X                                    65180021
                                    3894 *                                                                       65200021
                                    3895 *                                                                       65220021
0
 0028C4 1875                        3897 TBAMEN06 LR    R7,R5                                                    65260021
 0028C6 5894 0008      00008        3898          L     R9,TBDSTADD(R4)                                          65280021
 0028CA 5A94 000C      0000C        3899          A     R9,TBDCLENG(R4)                                          65300021
 0028CE 4B90 C586      02FAE        3900          SH    R9,TBCON512                                              65320021
 0028D2 45E0 B100      01A28        3901          BAL   R14,TBREADIC        BR TO READ BACK DICT SECTION         65340021
 0028D6 45E0 F400      027E8        3902          BAL   R14,TBINS78         UPDATE MASTAM                        65360021
 0028DA 45E0 F586      0296E        3903          BAL   R14,TBDIC300        UPDATE NB. OF DICT SECTION           65380021
 0028DE 47F0 F4AE      02896        3904          B     TBAMEN03            X                                    65400021
                                    3905 *        TURN ON SPILL BIT FOR STATISTICS                               65420021
 0028E2 5080 C4F8      02F20        3906 TBTAMENW ST    R8,TBSAVER          SAVE CONTENTS OF R8                  65440021
 0028E6 5880 C4F4      02F1C        3907          L     R8,TBACOS           LOAD ADDRESS OF COS                  65460021
 0028EA 9610 8182      00182        3908          OI    SWITCHD(R8),SPILLQ  TURN ON SPILL BIT                    65480021
 0028EE 5880 C4F8      02F20        3909 TBTAMEN1 L     R8,TBSAVER          RESTORE R8                           65500021
0
 0028F2 58F0 C4E8      02F10        3911 TBTAMENX L     R15,TBASAV1                                              65540021
 0028F6 980F F000      00000        3912          LM    R0,R15,DX0(R15)                                          65560021
 0028FA 07FE                        3913          BR    R14                 RETURN                               65580021
                                    3914 *                                                                       65600021
-
0
                                    3916 *        TBDICSP  -ASK A NEW DICTIONARY SECTION.                        65640021
                                    3917 *        RETURNS IN R1 ADDR OF BEGINNING OF NEW DICTIONARY SECT         65660021
                                    3918 *              AND IN R2 ADDR OF END OF NEW DICT SECTION.               65680021
                                    3919 ******                                                           **     65700021
1PH00     IKFCBL00                                                                                              PAGE   83
-  LOC  OBJECT CODE    ADDR1 ADDR2  STMT   SOURCE STATEMENT                                       ASM 0201 11.03 02/14/15
0                                   3920 *                                                                       65720021
                                    3921 *                                                                       65740021
 0028FC 9200 C58A      02FB2        3922 TBDICSPC MVI   TBDISW,XX00                                              65760021
 002900 5890 C4E4      02F0C        3923          L     R9,TBATIB20                                              65780021
 002904 58A9 0000      00000        3924          L     R10,DX0(R9)                                              65800021
 002908 482A 0006      00006        3925          LH    R2,DX6(R10)                                              65820021
 00290C 4B2A 0004      00004        3926          SH    R2,DX4(R10)                                              65840021
 002910 4920 C578      02FA0        3927          CH    R2,TBCON012                                              65860021
 002914 47B0 F55C      02944        3928          BNL   TBDICSP0            ASK-A-NEW-DICT-SECT PROCESSING       65880021
 002918 5860 C4E8      02F10        3929          L     R6,TBASAV1                                               65900021
 00291C D23F C6A8 6000 030D0 00000  3930          MVC   TBSAVD(LX64),DX0(R6)                                     65920021
 002922 1819                        3931          LR    R1,R9                                                    65940021
 002924 58F0 C6E8      03110        3932          L     R15,TBINNST                                              65960021
 002928 05EF                        3933          BALR  R14,R15             BRANCH AND LINK TO INSERT            65980021
 00292A D23F 6000 C6A8 00000 030D0  3934          MVC   DX0(LX64,R6),TBSAVD                                      66000021
 002930 58F0 C4CC      02EF4        3935          L     R15,TBAPRIME                                             66020021
 002934 58A9 0000      00000        3936          L     R10,DX0(R9)                                              66040021
 002938 482A 0004      00004        3937          LH    R2,DX4(R10)                                              66060021
 00293C 4B20 C578      02FA0        3938          SH    R2,TBCON012                                              66080021
 002940 402A 0004      00004        3939          STH   R2,DX4(R10)                                              66100021
                                    3940 *                                 IF DICOT TABLE MUST GROW INSERT W     66120021
                                    3941 *                                  BE CALLED BEFORE DICT SECTION IS     66140021
                                    3942 *                                  UP, IN CASE A SECT WILL HAVE TO      66160021
                                    3943 *                                  SPILLED WHEN DICOT TABLE GROWS.      66180021
 002944 9610 C589      02FB1        3944 TBDICSP0 OI    TBSWGENE,TBFLDICT                                        66200021
 002948 4120 0200      00200        3945          LA    R2,DX512                                                 66220021
 00294C 4140 C000      02A28        3946          LA    R4,TBMASTAM                                              66240021
 002950 45E0 BAB4      023DC        3947          BAL   R14,TBPRIMEC        ENTRY PT FOR INT CALL TO PRIME       66260021
 002954 45E0 F400      027E8        3948          BAL   R14,TBINS78         UPDATE MASTAM                        66280021
 002958 5814 0008      00008        3949          L     R1,TBDSTADD(R4)                                          66300021
 00295C 5A14 000C      0000C        3950          A     R1,TBDCLENG(R4)                                          66320021
 002960 1821                        3951          LR    R2,R1                                                    66340021
 002962 4A20 C586      02FAE        3952          AH    R2,TBCON512                                              66360021
 002966 9710 C589      02FB1        3953          XI    TBSWGENE,TBFLDICT                                        66380021
 00296A 41E0 F5A0      02988        3954          LA    R14,TBDIC200                                             66400021
 00296E 4180 0001      00001        3955 TBDIC300 LA    R8,DX1                                                   66420021
                             02972  3956 TBDIC100 EQU   *                   UPDATES NO. OF DICT SECT.            66440021
 002972 5894 0018      00018        3957          L     R9,TBDNSECT(R4)                                          66460021
 002976 1A98                        3958          AR    R9,R8                                                    66480021
 002978 5094 0018      00018        3959          ST    R9,TBDNSECT(R4)                                          66500021
 00297C 5890 C3C4      02DEC        3960          L     R9,TBSECTN                                               66520021
 002980 1A98                        3961          AR    R9,R8                                                    66540021
 002982 5090 C3C4      02DEC        3962          ST    R9,TBSECTN                                               66560021
 002986 07FE                        3963          BR    R14                 RETURN                               66580021
 002988 9500 C58A      02FB2        3964 TBDIC200 CLI   TBDISW,XX00                                              66600021
 00298C 4770 F5DA      029C2        3965          BNE   TBMOVDI0            X                                    66620021
 002990 5010 C3C0      02DE8        3966          ST    R1,TBCURSTN                                              66640021
 002994 58F0 C4E8      02F10        3967          L     R15,TBASAV1                                              66660021
 002998 580F 0000      00000        3968          L     R0,DX0(R15)                                              66680021
 00299C 983F F00C      0000C        3969          LM    R3,R15,DX12(R15)                                         66700021
 0029A0 07FE                        3970          BR    R14                 RETURN                               66720021
1PH00     IKFCBL00                                                                                              PAGE   84
-  LOC  OBJECT CODE    ADDR1 ADDR2  STMT   SOURCE STATEMENT                                       ASM 0201 11.03 02/14/15
0                                   3972 *                                                                       66760021
                                    3973 *        TBMOVDIC   READ BACK A SECTION WHOSE ENTRY ADDRESS IN DICO     66780021
                                    3974 *                   IS IN  R3.                                          66800021
                                    3975 *                                                                       66820021
                                    3976 *                                                                       66840021
 0029A2 5850 C4E4      02F0C        3977 TBDICOTX L     R5,TBATIB20         GET STARTING ADDRESS OF DICOT        66860021
 0029A6 5855 0000      00000        3978          L     R5,DX0(R5)                                               66880021
 0029AA 5855 0000      00000        3979          L     R5,DX0(R5)                                               66900021
 0029AE 4155 0000      00000        3980          LA    R5,DX0(R5)                                               66920021
 0029B2 07FE                        3981          BR    R14                 RETURN                               66940021
 0029B4 45E0 F5BA      029A2        3982 TBMOVDIC BAL   R14,TBDICOTX        GET STARTING @ OF DICOT              66960021
 0029B8 1B35                        3983          SR    R3,R5                                                    66980021
 0029BA 9201 C58A      02FB2        3984          MVI   TBDISW,XX01                                              67000021
 0029BE 47F0 F55C      02944        3985          B     TBDICSP0            GET THE  SPACE TO READ IN (IN R1     67020021
0
 0029C2 45E0 B81C      02144        3987 TBMOVDI0 BAL   R14,TBACCINT        INITIALIZE ACCESS CELLS IN COMMO     67060021
 0029C6 45E0 F5BA      029A2        3988          BAL   R14,TBDICOTX        GET STARTING @ OF DICOT              67080021
 0029CA 1A35                        3989          AR    R3,R5               GET POINTER IN DICOT                 67100021
 0029CC 1891                        3990          LR    R9,R1                                                    67120021
 0029CE 1873                        3991          LR    R7,R3                                                    67140021
 0029D0 45E0 B100      01A28        3992          BAL   R14,TBREADIC        BR TO READ BACK DICT SECTION         67160021
                                    3993 *                                                                       67180021
                                    3994 *                                                                       67200021
 0029D4 58F0 C4E8      02F10        3995          L     R15,TBASAV1                                              67220021
 0029D8 9802 F000      00000        3996          LM    R0,R2,DX0(R15)                                           67240021
 0029DC 984F F010      00010        3997          LM    R4,R15,DX16(R15)                                         67260021
 0029E0 07FE                        3998          BR    R14                 RETURN                               67280021
 0029E2 9200 F63C      02A24        3999 TBERR1   MVI   TBERCD,DX0          ABEND EVENTUALLY                     67300021
 0029E6 47F0 F60E      029F6        4000          B     TBERR                                                    67320021
 0029EA 9204 F63C      02A24        4001 TBERR3   MVI   TBERCD,DX4          ABEND EVENTUALLY                     67340021
 0029EE 47F0 F60E      029F6        4002          B     TBERR                                                    67360021
 0029F2 9208 F63C      02A24        4003 TBERR4   MVI   TBERCD,DX8          ABEND EVENTUALLY                     67380021
 0029F6 900F F5BC      029A4        4004 TBERR    STM   R0,R15,TBERRG       SAVE ALL REGISTERS FOR DUMP          67400021
 0029FA 1B22                        4005          SR    R2,R2                                                    67420021
 0029FC 4320 F63C      02A24        4006          IC    R2,TBERCD                                                67440021
 002A00 5832 F630      02A18        4007          L     R3,TBERL(R2)        PICK UP MESSAGE LENGTH               67460021
 002A04 5822 F624      02A0C        4008          L     R2,TBERMSG(R2)      POINT TO MESSAGE                     67480021
 002A08 47F0 F24C      02634        4009          B     TBERRLG                                                  67500021
 002A0C 00002FE9                    4010 TBERMSG  DC    A(TBMESS2)                                               67520021
 002A10 0000302C                    4011          DC    A(TBMESS3)                                               67540021
 002A14 0000307F                    4012          DC    A(TBMESS4)                                               67560021
 002A18 0000003C                    4013 TBERL    DC    A(TBMESS2L)                                              67580021
 002A1C 00000053                    4014          DC    A(TBMESS3L)                                              67600021
 002A20 0000004E                    4015          DC    A(TBMESS4L)                                              67620021
 002A24 FF                          4016 TBERCD   DC    X'FF'                                                    67640021
 002A25                      029A2  4017          ORG   TBDICOTX            16 WORDS ON WORD                     67660021
 0029A4                             4018 TBERRG   DS    16F                 BOUNDARY FOR ABEND REGISTERS         67680021
1PH00     IKFCBL00                                                                                              PAGE   85
-  LOC  OBJECT CODE    ADDR1 ADDR2  STMT   SOURCE STATEMENT                                       ASM 0201 11.03 02/14/15
0                                   4020 *                                                                       67720021
 002A28                             4021 TBDATA   CSECT                                                          67740021
 002A28                             4022          DS    0F                                                       67760021
                                    4023 * THE FOLLOWING EIGHT CARDS MUST BE KEPT TOGETHER.  DO NOT INSERT       67780021
                                    4024 *  ANYTHING HERE.                                                       67800021
 002A28 00000000                    4025 TBMASTAM DC    1F'0'     BEG.OF AREA.                                   67820021
 002A2C 00000000                    4026          DC    1F'0'     LENGTH OF AREA                                 67840021
 002A30 00000000                    4027          DC    1F'0'     CURRENT FIRST FREE BYTE FOR TABLE.             67860021
 002A34 00000000                    4028          DC    1F'0'     REMAINING LENGTH.                              67880021
 002A38 00002A7C                    4029          DC    A(TBTAM)       FIRST TAM FOR THIS MASTAM.                67900021
 002A3C 00002A88                    4030          DC    A(TBTAM+TBTAMLG)  NEXT TAM TO BE FOR THIS MASTAM.        67920021
 002A40 00000000                    4031          DC    1F'0'     NUMBER OF DICT. SECTION IN THIS MASTAM.        67940021
 002A44 0000000000000000            4032          DC    14F'0'   2 OTHER MASTAMS                           9330  67960021
 002A4C 0000000000000000
 002A54 0000000000000000
 002A5C 0000000000000000
 002A64 0000000000000000
 002A6C 0000000000000000
 002A74 0000000000000000
                             02A7C  4033 TBENMSTM EQU   *                                                        67980021
0
 002A7C 0000000000000000            4035 TBTAM    DC    864X'0'         D                                        68020021
 002A84 0000000000000000
 002A8C 0000000000000000
 002A94 0000000000000000
 002A9C 0000000000000000
 002AA4 0000000000000000
 002AAC 0000000000000000
 002AB4 0000000000000000
 002ABC 0000000000000000
 002AC4 0000000000000000
 002ACC 0000000000000000
 002AD4 0000000000000000
 002ADC 0000000000000000
 002AE4 0000000000000000
 002AEC 0000000000000000
 002AF4 0000000000000000
 002AFC 0000000000000000
 002B04 0000000000000000
 002B0C 0000000000000000
 002B14 0000000000000000
 002B1C 0000000000000000
 002B24 0000000000000000
 002B2C 0000000000000000
 002B34 0000000000000000
 002B3C 0000000000000000
 002B44 0000000000000000
 002B4C 0000000000000000
 002B54 0000000000000000
 002B5C 0000000000000000
 002B64 0000000000000000
 002B6C 0000000000000000
 002B74 0000000000000000
 002B7C 0000000000000000
1PH00     IKFCBL00                                                                                              PAGE   86
-  LOC  OBJECT CODE    ADDR1 ADDR2  STMT   SOURCE STATEMENT                                       ASM 0201 11.03 02/14/15
0002B84 0000000000000000
 002B8C 0000000000000000
 002B94 0000000000000000
 002B9C 0000000000000000
 002BA4 0000000000000000
 002BAC 0000000000000000
 002BB4 0000000000000000
 002BBC 0000000000000000
 002BC4 0000000000000000
 002BCC 0000000000000000
 002BD4 0000000000000000
 002BDC 0000000000000000
 002BE4 0000000000000000
 002BEC 0000000000000000
 002BF4 0000000000000000
 002BFC 0000000000000000
 002C04 0000000000000000
 002C0C 0000000000000000
 002C14 0000000000000000
 002C1C 0000000000000000
 002C24 0000000000000000
 002C2C 0000000000000000
 002C34 0000000000000000
 002C3C 0000000000000000
 002C44 0000000000000000
 002C4C 0000000000000000
 002C54 0000000000000000
 002C5C 0000000000000000
 002C64 0000000000000000
 002C6C 0000000000000000
 002C74 0000000000000000
 002C7C 0000000000000000
 002C84 0000000000000000
 002C8C 0000000000000000
 002C94 0000000000000000
 002C9C 0000000000000000
 002CA4 0000000000000000
 002CAC 0000000000000000
 002CB4 0000000000000000
 002CBC 0000000000000000
 002CC4 0000000000000000
 002CCC 0000000000000000
 002CD4 0000000000000000
 002CDC 0000000000000000
 002CE4 0000000000000000
 002CEC 0000000000000000
 002CF4 0000000000000000
 002CFC 0000000000000000
 002D04 0000000000000000
 002D0C 0000000000000000
 002D14 0000000000000000
 002D1C 0000000000000000
 002D24 0000000000000000
 002D2C 0000000000000000
 002D34 0000000000000000
1PH00     IKFCBL00                                                                                              PAGE   87
-  LOC  OBJECT CODE    ADDR1 ADDR2  STMT   SOURCE STATEMENT                                       ASM 0201 11.03 02/14/15
0002D3C 0000000000000000
 002D44 0000000000000000
 002D4C 0000000000000000
 002D54 0000000000000000
 002D5C 0000000000000000
 002D64 0000000000000000
 002D6C 0000000000000000
 002D74 0000000000000000
 002D7C 0000000000000000
 002D84 0000000000000000
 002D8C 0000000000000000
 002D94 0000000000000000
 002D9C 0000000000000000
 002DA4 0000000000000000
 002DAC 0000000000000000
 002DB4 0000000000000000
 002DBC 0000000000000000
 002DC4 0000000000000000
 002DCC 0000000000000000
 002DD4 0000000000000000
                             02DDC  4036 TBENDTAM EQU   *                                                        68040021
0
 002DDC 00002A88                    4038 TBNEXTAM DC    A(TBTAM+TBTAMLG)  NEXT AVAL. TAM .(INIT. FOR PH10).      68080021
 002DE0 00001160                    4039 TYSPLAD  DC    A(SPILL)            X                                    68100021
 002DE4 00002A28                    4040 TBLASMTM DC    A(TBMASTAM)    LAST MASTAM USED SO FAR.                  68120021
 002DE8 00000000                    4041 TBCURSTN DC    A(0)           CURENT  DICT. SECTION.                    68140021
 002DEC 00000000                    4042 TBSECTN  DC    1F'0'          DICT. SECT. LEFT IN CORE.                 68160021
 002DF0 00000000                    4043 TBTEMP   DC    1F'0'                                                    68180021
 002DF4                             4044 TBSAV2   DS    6F                  TAMER RTN REG SAVE AREAS             68200021
 002E0C                             4045 TBSAV214 DS    1F                  X                                    68220021
 002E10                             4046 TBSAV3   DS    6F                  X                                    68240021
 002E28                             4047 TBSAV314 DS    F                   X                                    68260021
 002E2C                             4048 TBSAV4   DS    6F                  X                                    68280021
 002E44                             4049 TBSAV414 DS    1F                  X                                    68300021
 002E48                             4050 TBSAV5   DS    6F                  X                                    68320021
 002E60                             4051 TBSAV6   DS    6F                  X                                    68340021
 002E78                             4052 TBSAV614 DS    1F                  X                                    68360021
 002E7C                             4053 TBSAV7   DS    6F                  X                                    68380021
 002E94                             4054 TBSAV714 DS    1F                  X                                    68400021
 002E98                             4055 TBSAV8   DS    6F                  X                                    68420021
 002EB0                             4056 TYWSAVR  DS    10F                 X                                    68440021
 002ED8 00000140                    4057 TBACCSW  DC    A(ACCESW)           X                                    68460021
 002EDC 0000046A                    4058 TBAPHASW DC    A(PHASW)            X                                    68480021
 002EE0 0000265A                    4059 TBATABRL DC    A(TBTABREL)         X                                    68500021
 002EE4 00002812                    4060 TBATAMEN DC    A(TBTAMEIN)         X                                    68520021
 002EE8 00002680                    4061 TBAINSTA DC    A(TBINSERT)         X                                    68540021
 002EEC 0000263A                    4062 TBASTATC DC    A(TBSTATIC)         X                                    68560021
 002EF0 000028FC                    4063 TBADICSP DC    A(TBDICSPC)         X                                    68580021
 002EF4 000023E8                    4064 TBAPRIME DC    A(TBPRIMEB)         X                                    68600021
 002EF8 00001A56                    4065 TBRELSPA DC    A(TBRELSPC)         X                                    68620021
 002EFC 00002DDC                    4066 TBAENTM  DC    A(TBENDTAM)         X                                    68640021
 002F00 000029B4                    4067 TBAMOVDI DC    A(TBMOVDIC)         X                                    68660021
 002F04 00001A90                    4068 TBATAMEP DC    A(TBTAMEOP)         X                                    68680021
 002F08 00000384                    4069 TBATAMAR DC    A(TAMAREA)          X                                    68700021
1PH00     IKFCBL00                                                                                              PAGE   88
-  LOC  OBJECT CODE    ADDR1 ADDR2  STMT   SOURCE STATEMENT                                       ASM 0201 11.03 02/14/15
0002F0C 000000AC                    4070 TBATIB20 DC    A(TIB20)       DICOT TABLE TIB.                          68720021
 002F10 000018E0                    4071 TBASAV1  DC    A(TBSAV1)           X                                    68740021
 002F14 00001F4E                    4072 TBAGTALL DC    A(TBGETALL)         TAMER ADDRESS FOR PHASES 6 & 6A      68760021
 002F18 000001A8                    4073 TBADICAD DC    A(DICADR)           X                                    68780021
                                    4074 *                                                                       68800021
 002F1C 00000000                    4075 TBACOS   DC    A(COS)              X                                    68820021
 002F20                             4076 TBSAVER  DS    1F                  SAVE AREA FOR A REGISTER             68840021
                                    4077 * * * * * * * * * * *                                                   68860021
                                    4078 *              COBOL SPACE TABLE                                        68880021
                                    4079 *                  KEEP THE FOLLOWING 10 CARDS TOGETHER                 68900021
                                    4080 *                                                                       68920021
                                    4081 * * * * * * * * * * *                                                   68940021
 002F24                             4082          DS    0F                                                       68960021
 002F24 0000000000000000            4083 PCBSPT   DC    10F'0'              COBOL CONSTANTS                      68980021
 002F2C 0000000000000000
 002F34 0000000000000000
 002F3C 0000000000000000
 002F44 0000000000000000
 002F4C 00003D78                    4084 CBSPH7   DC    XL4'3D78'           COBOL SPACE PH70 CONSTANT            69000021
 002F50                             4085 TBCCMSTM DS    1F                  CURRENT MASTAM                       69020021
 002F54 00000000                    4086 TBSPACGT DC    F'0'                                                     69040021
 002F58 0000000000000000            4087 GETTABLE DC    8F'0'                                                    69060021
 002F60 0000000000000000
 002F68 0000000000000000
 002F70 0000000000000000
                             02F78  4088 GETEND   EQU   *                                                        69080021
 002F78 00000000                    4089 FREEMANE DC    F'0'                                                     69100021
 002F7C 00000000                    4090 SHIFTVAL DC    F'0'                                                     69120021
 002F80 00000000                    4091 TBENDADR DC    F'0'                                                     69140021
 002F84 00000000                    4092 TBLSUM   DC    F'0'                                                     69160021
 002F88 00000000                    4093 DCTLNGTH DC    F'0'                                                     69180021
 002F8C                             4094          DS    0F                                                       69200021
 002F8C FFFFFFFC                    4095 TBMASK00 DC    X'FFFFFFFC'                                              69220021
 002F90 02                          4096 TBHASH   DC    X'02'               PRIMES HASH TABLE                    69240021
 002F91 000000                      4097          DC    AL3(0)              PRIMES HASH TABLE                    69260021
 002F94 0620                        4098          DC    H'1568'             PRIMES HASH TABLE                    69280021
 002F96 0000                        4099          DC    H'0'                PRIMES HASH TABLE                    69300021
 002F98 000000FC                    4100 TBATIB30 DC    A(TIB30)            X                                    69320021
 002F9C 00002F78                    4101 AGETEND  DC    A(GETEND)                                                69340021
-
0
 002FA0 000C                        4103 TBCON012 DC    H'12'               X                                    69380021
 002FA2 FFFF                        4104 TBCOM001 DC    H'-1'               X                                    69400021
 002FA4 0002                        4105 TBCON002 DC    H'2'                X                                    69420021
 002FA6 0003                        4106 TBCON003 DC    H'03'               X                                    69440021
 002FA8 FE00                        4107 TBCOM512 DC    H'-512'             X                                    69460021
 002FAA 0100                        4108 TBCON256 DC    H'256'              X                                    69480021
 002FAC                             4109          DS    0F                                                       69500021
 002FAC                             4110          DS    0F                                                       69520021
 002FAC 0000                        4111 TBNEWLG1 DC    H'0'                                                     69540021
                             00002  4112 TAM1Q    EQU   X'02'                                                    69560021
                             00004  4113 TAM2Q    EQU   X'04'                                                    69580021
1PH00     IKFCBL00                                                                                              PAGE   89
-  LOC  OBJECT CODE    ADDR1 ADDR2  STMT   SOURCE STATEMENT                                       ASM 0201 11.03 02/14/15
0                            00004  4114 LONGPHS EQU   TAM2Q                                                     69600021
                             00005  4115 TAM3Q    EQU   X'05'                                                    69620021
                             00006  4116 TAM4Q    EQU   X'06'                                                    69640021
                             00007  4117 TAM5Q    EQU   X'07'                                                    69660021
                             00009  4118 TAM6Q    EQU   X'09'                                                    69680021
                                    4119 *                                                                       69700021
 002FAE 0200                        4120 TBCON512 DC    H'512'              X                                    69720021
 002FB0 00                          4121 TBPHZNO  DC    X'00'                                                    69740021
0
 002FB1 00                          4123 TBSWGENE DC    X'00'               X                                    69780021
 002FB2 00                          4124 TBDISW   DC    X'00'               X                                    69800021
 002FB3 00                          4125 TBSW1    DC    X'00'               X                                    69820021
 002FB4 00                          4126 GETSW    DC    X'00'                                                    69840021
 002FB5 C9D2C6F0F0F0F1C9            4127 TBMESS1  DC  C'IKF0001I-D SIZE PARAMETER TOO SMALL FOR THIS PROGRAM'    69860021
 002FBD 60C440E2C9E9C540
 002FC5 D7C1D9C1D4C5E3C5
 002FCD D940E3D6D640E2D4
 002FD5 C1D3D340C6D6D940
 002FDD E3C8C9E240D7D9D6
 002FE5 C7D9C1D4
                             00034  4128 TBMESS1L EQU   *-TBMESS1                                                69880021
 002FE9 C9D2C6F0F0F2F0C9            4129 TBMESS2  DC  C'IKF0020I-D COMPILER ERROR - COMPILATION WILL NOT BE COMPX69900021
 002FF1 60C440C3D6D4D7C9                                LETE'                                                    69920021
 002FF9 D3C5D940C5D9D9D6
 003001 D9406040C3D6D4D7
 003009 C9D3C1E3C9D6D540
 003011 E6C9D3D340D5D6E3
 003019 40C2C540C3D6D4D7
 003021 D3C5E3C5
                             0003C  4130 TBMESS2L EQU   *-TBMESS2                                                69940021
 003025 000000
 003028 000014D8                    4131 TBATRMNT DC    A(TRMNATE)          X                                    69960021
 00302C C9D2C6F0F0F1F0C9            4132 TBMESS3  DC   C'IKF0010I-D A TABLE HAS EXCEEDED THE MAXIMUM PERMISSIBLEX69980021
 003034 60C440C140E3C1C2                                 SIZE.COMPILATION ABANDONED.'                            70000021
 00303C D3C540C8C1E240C5
 003044 E7C3C5C5C4C5C440
 00304C E3C8C540D4C1E7C9
 003054 D4E4D440D7C5D9D4
 00305C C9E2E2C9C2D3C540
 003064 E2C9E9C54BC3D6D4
 00306C D7C9D3C1E3C9D6D5
 003074 40C1C2C1D5C4D6D5
 00307C C5C44B
                             00053  4133 TBMESS3L EQU   *-TBMESS3                                                70020021
 00307F C9D2C6F0F0F3F0C9            4134 TBMESS4  DC   C'IKF0030I-D FRAGMENTED CORE. RUN IN LARGER SIZE REGION. X70040021
 003087 60C440C6D9C1C7D4                                 COMPILATION ABANDONED.'                                 70060021
 00308F C5D5E3C5C440C3D6
 003097 D9C54B40D9E4D540
 00309F C9D540D3C1D9C7C5
 0030A7 D940E2C9E9C540D9
 0030AF C5C7C9D6D54B4040
 0030B7 C3D6D4D7C9D3C1E3
 0030BF C9D6D540C1C2C1D5
 0030C7 C4D6D5C5C44B
1PH00     IKFCBL00                                                                                              PAGE   90
-  LOC  OBJECT CODE    ADDR1 ADDR2  STMT   SOURCE STATEMENT                                       ASM 0201 11.03 02/14/15
0                            0004E  4135 TBMESS4L EQU   *-TBMESS4                                                70080021
                             00006  4136 TBNODIC  EQU   X'06'                                                    70100021
1PH00     IKFCBL00                                                                                              PAGE   91
-  LOC  OBJECT CODE    ADDR1 ADDR2  STMT   SOURCE STATEMENT                                       ASM 0201 11.03 02/14/15
0                            00001  4138 TBFLFREE EQU   X'01'                                                    70140021
                             00004  4139 TBFLPRIM EQU   X'04'                                                    70160021
                             00002  4140 TBFLSTAT EQU   X'02'                                                    70180021
-
0
                             00001  4142 TBSPILLF EQU   X'01'                                                    70220021
                             00008  4143 TBFLINST EQU   X'08'     CALL FROM INSERT                               70240021
                             00010  4144 TBFLDICT EQU   X'10'     CALL FROM DICT.                                70260021
                             00020  4145 TBFLSPH1 EQU   X'20'     PH1 SPACE ASSIGNED.                            70280021
                             00040  4146 TBFLSPH2 EQU   X'40'     PH2 SPACE ASSIGNED.                            70300021
                             00080  4147 TBFLSPH3 EQU   X'80'     PH3 SPACE ASSIGNED.                            70320021
                             00001  4148 TBFLNODC EQU   X'01'     NO DICT.                                       70340021
                             00004  4149 TBFULLPK EQU   X'04'     FULL PACK.                                     70360021
                             00002  4150 TBSPASKD EQU   X'02'     SPACE ALREADY  ASKED.                          70380021
                             0000F  4151 UNCOND   EQU   15                                                       70400021
-
0
                             000FD  4153 SPACASK  EQU   X'FD'                                                    70440021
-
                             00000  4155 TBDBEGAR EQU   0         DISPLACT. IN  MASTAM                           70480021
                             00004  4156 TBDLENG  EQU   4                                                        70500021
                             00008  4157 TBDSTADD EQU   8                                                        70520021
                             0000C  4158 TBDCLENG EQU   12                                                       70540021
                             00010  4159 TBDFSTAM EQU   16                                                       70560021
                             00014  4160 TBDLSTAM EQU   20                                                       70580021
                             00018  4161 TBDNSECT EQU   24                                                       70600021
-
0
                             0000C  4163 TBTAMLG  EQU   12                                                       70640021
                             0001C  4164 TBMSTMLG EQU   28                                                       70660021
-
0
                             00080  4166 TBSPILD  EQU   X'80'                                                    70700021
                             00010  4167 TBFLWRTR EQU   X'10'                                                    70720021
                             00040  4168 TBIN     EQU   64                                                       70740021
                             00020  4169 TBUPDATE EQU   32                                                       70760021
                             000BF  4170 TYINOFF  EQU   191                                                      70780021
                             0007F  4171 TYSPLOFF EQU   127                                                      70800021
                             000A0  4172 TYSUOFF  EQU   X'A0'                                                    70820021
1PH00     IKFCBL00                                                                                              PAGE   92
-  LOC  OBJECT CODE    ADDR1 ADDR2  STMT   SOURCE STATEMENT                                       ASM 0201 11.03 02/14/15
0                            02E60  4174 TBSAV64  EQU   TBSAV6                                                   70860021
                             028F2  4175 TBOUST   EQU   TBTAMENX                                                 70880021
                             01FF0  4176 TBMOVEUP EQU   TBMOVUP                                                  70900021
                             0000C  4177 PR12     EQU   12                                                       70920021
                             00005  4178 PR5      EQU   5                                                        70940021
                             00004  4179 PR4      EQU   4                                                        70960021
                             02F08  4180 TAMARA   EQU   TBATAMAR                                                 70980021
                             02FA6  4181 TBCONS03 EQU   TBCON003                                                 71000021
 0030D0                             4182 TBSAVD   DS    16F                 DICT RTN SAVE REGISTER AREA          71020021
 003110 00001852                    4183 TBINNST  DC    A(INSERT)           X                                    71040021
 003114 7FFF                        4184 TB32767  DC    H'32767'            X                                    71060021
 003116 00                          4185 TBTAGSW  DC    X'00'                                                    71080021
 003117 00                          4186 TBWCHWAY DC    X'00'                                                    71100021
1PH00     IKFCBL00                                                                                              PAGE   93
-  LOC  OBJECT CODE    ADDR1 ADDR2  STMT   SOURCE STATEMENT                                       ASM 0201 11.03 02/14/15
-
-
                                    4189 ****** HASH TABLE---USED BY ACCESS---STORED NOW AT END OF TAMER  **     71160021
 003118                             4190        DS    0F                                                         71180021
 001474                             4191        END   START                                                      71200021
1PH00                                              RELOCATION DICTIONARY                                        PAGE   94
-POS.ID   REL.ID   FLAGS   ADDRESS                                                                ASM 0201 11.03 02/14/15
0 0001     0001      0C     000264
  0001     0001      0C     000268
  0001     0001      0C     00026C
  0001     0001      0C     000270
  0001     0001      0C     000274
  0001     0001      0C     000278
  0001     0001      0C     00027C
  0001     0001      0C     000280
  0001     0001      0C     000284
  0001     0001      0C     000288
  0001     0001      0C     00028C
  0001     0001      0C     000290
  0001     0001      0C     000294
  0001     0001      0C     000298
  0001     0001      0C     00029C
  0001     0001      0C     0002A0
  0001     0001      0C     0002F0
  0001     0001      0C     000300
  0001     0001      0C     000304
  0001     0001      0C     0003C0
  0001     0001      0C     000570
  0001     0001      0C     000574
  0001     0001      0C     000ED4
  0001     0001      0C     000ED8
  0001     0001      0C     000EE4
  0001     0001      0C     000EE8
  0001     0001      0C     000EEC
  0001     0001      0C     000EF0
  0001     0001      0C     000EF4
  0001     0001      0C     000EF8
  0001     0001      08     000F05
  0001     0002      0C     00046C
  0001     0002      0C     000508
  0001     0002      0C     000578
  0001     0002      0C     000B80
  0001     0002      0C     000B88
  0001     0002      0C     000EDC
  0001     0002      0C     000EE0
  0001     0002      08     000EFD
  0001     0003      0C     00012C
  0001     0003      0C     000130
  0001     0003      0C     000134
  0001     0003      0C     000138
  0001     0003      0C     00013C
  0001     0003      0C     000144
  0001     0003      0C     0001C8
  0001     0003      0C     0001FC
  0001     0003      0C     000E40
  0001     0003      0C     000FC4
  0001     0003      0C     000FC8
  0001     0005      0C     000B84
  0001     0005      0C     000FCC
  0002     0001      0C     000FF8
  0002     0001      08     001021
  0002     0001      0C     001038
1PH00                                              RELOCATION DICTIONARY                                        PAGE   95
-POS.ID   REL.ID   FLAGS   ADDRESS                                                                ASM 0201 11.03 02/14/15
0 0002     0001      08     001079
  0002     0001      0C     001090
  0002     0001      08     0010D1
  0002     0001      0C     0010E8
  0002     0001      08     001129
  0002     0001      0C     001140
  0002     0001      0C     001198
  0002     0001      08     0011D9
  0002     0001      0C     0011F0
  0002     0001      0C     001248
  0002     0001      08     001289
  0002     0001      0C     0012A0
  0002     0001      0C     0012F8
  0002     0001      0C     001350
  0002     0001      0C     0014C0
  0002     0001      0C     0014C4
  0002     0001      0C     0014C8
  0002     0001      0C     0014D4
  0002     0001      0C     001760
  0002     0001      0C     001764
  0002     0001      0C     001838
  0002     0002      0C     0013C8
  0002     0002      0C     0013DC
  0002     0002      0C     0013F0
  0002     0002      0C     001404
  0002     0002      0C     001418
  0002     0002      0C     00142C
  0002     0002      0C     001440
  0002     0002      0C     001454
  0002     0002      0C     001468
  0002     0002      0C     001768
  0002     0002      0C     00176C
  0002     0002      0C     001770
  0002     0002      0C     001774
  0002     0002      0C     001778
  0002     0002      0C     00177C
  0002     0002      0C     001780
  0002     0002      0C     001784
  0002     0002      0C     001788
  0002     0002      0C     00178C
  0002     0002      08     001791
  0002     0002      08     001795
  0002     0002      08     00179D
  0002     0002      08     0017A1
  0002     0002      08     0017A5
  0002     0002      08     0017A9
  0002     0002      08     0017AD
  0002     0002      08     0017B1
  0002     0002      08     0017B5
  0002     0002      08     0017B9
  0002     0002      08     0017BD
  0002     0002      08     0017C1
  0002     0002      08     0017C5
  0002     0002      08     0017C9
  0002     0002      0C     00183C
1PH00                                              RELOCATION DICTIONARY                                        PAGE   96
-POS.ID   REL.ID   FLAGS   ADDRESS                                                                ASM 0201 11.03 02/14/15
0 0002     0004      0C     001534
  0003     0003      0C     001924
  0003     0003      08     0019B5
  0003     0003      08     0019C1
  0003     0003      08     0019D9
  0003     0003      08     0019E1
  0003     0004      0C     001A8C
  0003     0005      0C     001920
  0004     0005      0C     002A0C
  0004     0005      0C     002A10
  0004     0005      0C     002A14
  0005     0001      0C     002ED8
  0005     0001      0C     002EDC
  0005     0001      0C     002F08
  0005     0001      0C     002F0C
  0005     0001      0C     002F18
  0005     0001      0C     002F1C
  0005     0001      0C     002F98
  0005     0002      0C     002DE0
  0005     0002      0C     003028
  0005     0003      0C     002EF8
  0005     0003      0C     002F04
  0005     0003      0C     002F10
  0005     0003      0C     002F14
  0005     0003      0C     003110
  0005     0004      0C     002EE0
  0005     0004      0C     002EE4
  0005     0004      0C     002EE8
  0005     0004      0C     002EEC
  0005     0004      0C     002EF0
  0005     0004      0C     002EF4
  0005     0004      0C     002F00
  0005     0005      0C     002A38
  0005     0005      0C     002A3C
  0005     0005      0C     002DDC
  0005     0005      0C     002DE4
  0005     0005      0C     002EFC
  0005     0005      0C     002F9C

1PH00                                              ASSEMBLER DIAGNOSTICS AND STATISTICS                         PAGE   97
-                                                                                                 ASM 0201 11.03 02/14/15
0NO STATEMENTS FLAGGED IN THIS ASSEMBLY
 HIGHEST SEVERITY WAS    0
 OPTIONS FOR THIS ASSEMBLY
   ALIGN, ALOGIC, BUFSIZE(STD), DECK, ESD, FLAG(0), LINECOUNT(55), LIST, NOMCALL, YFLAG, WORKSIZE(2097152)
   NOMLOGIC, NONUMBER, NOOBJECT, NORENT, RLD, NOSTMT, NOLIBMAC, NOTERMINAL, NOTEST, NOXREF(SHORT)
   SYSPARM()
 WORK FILE BUFFER SIZE/NUMBER = 2558/ 1
 TOTAL RECORDS READ FROM SYSTEM INPUT       3560
 TOTAL RECORDS READ FROM SYSTEM LIBRARY     5974
 TOTAL RECORDS PUNCHED                       245
 TOTAL RECORDS PRINTED                      4847
