1PH60     IKFCBL60                                                                                              PAGE  189
-  LOC  OBJECT CODE    ADDR1 ADDR2  STMT   SOURCE STATEMENT                                       ASM 0201 11.03 02/14/15
0                                   8049 *=1  PUT ROUTINE                                                        78350021
                                    8050 *                                                                       78360021
                                    8051 *      ENTRY POINTS      PUT--WRITE LINE IF LIST MODE                   78370021
                                    8052 *                        PUTM-WRITE LINE REGARDLESS OF LIST MODE        78380021
 0054DE                             8053        DS    0H                                                         78390021
                             054DE  8054        USING *,R15                                                      78400021
                             054DE  8055 PUT    EQU   *                                                          78410021
 0054DE 9140 91A3      001A3        8056        TM    PHZSW,NOLIST                                               78420021
 0054E2 078E                        8057        BCR   ZERO,RS1          EXIT IF NOLIST MODE                      78430021
 0054E4                             8058 PUTM   DS    0H                                                         78440021
 0054E4 900F D07C      03E14        8059        STM   R0,R15,SVREG                                               78450021
 0054E8 4120 D77C      04514        8060        LA    R2,OU6REC                                                  78460021
 0054EC 4130 0078      00078        8061          LA    R3,DX120                                                 78470021
 0054F0 0509                        8062        BALR  R0,RB2                BR TO PH0                            78480021
 0054F2 16                          8063        DC    X'16'                 WRITE SYSPRINT                       78490021
 0054F3 00
 0054F4 0509                        8064        BALR  R0,RB2                BR TO PH0                            78500021
 0054F6 86                          8065        DC    X'86'               WOUT SYSPRINT (PAD TO RIGHT-BLNKS)     78510021
 0054F7 00
 0054F8 9240 D77C      04514        8066          MVI   OU6REC,BLANK        CLEAR OUTPUT AREA                    78520021
 0054FC D276 D77D D77C 04515 04514  8067          MVC   OU6CDN(LX119),OU6REC                                     78530021
 005502 980F D07C      03E14        8068        LM    R0,R15,SVREG                                               78540021
 005506 D277 D7F4 D77C 0458C 04514  8069          MVC   OUCREC,OU6REC       BLANK CLIST WORK AREA                78550021
 00550C                             8070 PCEXIT   DS    0H                                                       78560021
 00550C 07FE                        8071          BCR   UNCOND,RS1         RETURN                                78570021
0
 00550E                             8073 PUTC     DS    0H                 *TO PRINT FOR CONDENSED LIST*         78590021
 00550E 9500 C525      03BB5        8074          CLI   CLIST3+NX1,XX00                                          78600021
 005512 4770 F042      05520        8075          BC    NOTEQ,PUTC10        NOT IN FIRST SECTION                 78610021
 005516 D218 D7F5 D84F 0458D 045E7  8076          MVC   OUCREC1,PUTCWK      MOVE INTO 1ST PART OF PRINT AREA     78620021
 00551C 47F0 F050      0552E        8077          BC    UNCOND,PUTC20       GO FINISH PROCESSING                 78630021
 005520                             8078 PUTC10   DS    0H                                                       78640021
 005520 9501 C525      03BB5        8079          CLI   CLIST3+NX1,XX01                                          78650021
 005524 4770 F068      05546        8080          BC    NOTEQ,PUTC30        MUST BE IN THIRD SECTION             78660021
 005528 D218 D822 D84F 045BA 045E7  8081          MVC   OUCREC2,PUTCWK      MOVE INTO 2D PART OF PRINT AREA      78670021
 00552E                             8082 PUTC20   DS    0H                                                       78680021
 00552E 9240 D84F      045E7        8083          MVI   PUTCWK,BLANK        CLEAR WORK AREA                      78690021
 005532 D217 D850 D84F 045E8 045E7  8084          MVC   PUTCWK+NX1(LX24),PUTCWK                                  78700021
 005538 4860 C524      03BB4        8085          LH    RW1,CLIST3          INCREMENT CTR                        78710021
 00553C 4166 0001      00001        8086          LA    RW1,DX1(RW1)         POINTING TO                         78720021
 005540 4060 C524      03BB4        8087          STH   RW1,CLIST3          PROPER SECTION OF PRINT AREA         78730021
 005544 07FE                        8088          BCR   UNCOND,RS1          RETURN                               78740021
 005546                             8089 PUTC30   DS    0H                                                       78750021
 005546 9200 C525      03BB5        8090          MVI   CLIST3+NX1,XX00      INITIALIZE CTR                      78760021
 00554A D277 D77C D7F4 04514 0458C  8091          MVC   OU6REC,OUCREC       MOVE CLIST AREA TO O/P AREA          78770021
 005550 47F0 F006      054E4        8092          BC    UNCOND,PUTM         PRINT A LINE                         78780021
 005554                             8093 PUTCEND  DS    0H                  FINISH CLIST                         78790021
 005554 9500 C525      03BB5        8094          CLI   CLIST3+NX1,XX00                                          78800021
 005558 4780 F02E      0550C        8095          BC    EQ,PCEXIT           LAST LINE IS ALREADY GONE            78810021
 00555C D25A D77C D7F4 04514 0458C  8096          MVC   OU6REC(LX91),OUCREC  GET RID OF LINE                     78820021
 005562 9240 D7D7      0456F        8097          MVI   OU6REC+NX91,BLANK                                        78830021
 005566 D21A D7D8 D7D7 04570 0456F  8098          MVC   OU6REC+NX92(LX27),OU6REC+NX91                            78840021
 00556C 47F0 F006      054E4        8099          BC    UNCOND,PUTM         GO PRINT                             78850021
                                    8100        DROP  R15                                                        78860021
1PH60     IKFCBL60                                                                                              PAGE  190
-  LOC  OBJECT CODE    ADDR1 ADDR2  STMT   SOURCE STATEMENT                                       ASM 0201 11.03 02/14/15
0                                   8102 *=1   TXPNCH                                                            78880021
                                    8103 *= ROUTINE TO BUILD TEXT CARDS                                          78890021
                                    8104 *=  AND PUT THEM ON PUNCH FILE                                          78900021
                                    8105 * ENTERED WITH DESIRED LOCATION IN LOCCTR                               78910021
                                    8106 *  LOCATION OF DATA IN REG 1                                            78920021
                                    8107 *  NUMBER OF BYTES IN REG 0                                             78930021
                                    8108 *     IF REG 0 = ZERO  FORCE OUT LAST CARD                              78940021
                                    8109 *                                                                       78950021
 005570                             8110          DS    0H                                                       78960021
                             05570  8111        USING *,R15                                                      78970021
 005570 900F D07C      03E14        8112 TXPNCH STM   R0,R15,SVREG                                               78980021
 005574 5000 F174      056E4        8113        ST    R0,TXCOUN                                                  78990021
 005578 5010 F178      056E8        8114        ST    R1,TXDADR                                                  79000021
 00557C D701 F16E F16E 056DE 056DE  8115        XC    MOVCNT,MOVCNT                                              79010021
 005582 1200                        8116        LTR   R0,R0                                                      79020021
 005584 4780 F14A      056BA        8117        BC    ZERO,FORCE            FORCE OUT LAST CARD                  79030021
 005588 D503 F1D0 F1D4 05740 05744  8118        CLC   CURCOL,LASCOL    NEW CARD                                  79040021
 00558E 47D0 F13A      056AA        8119        BC    NOTHI,TXCOMP     NO                                        79050021
 005592 4160 F17C      056EC        8120 TXLOCT LA    RW1,LOCARD                                                 79060021
 005596 4166 0010      00010        8121          LA    RW1,DX16(RW1)                                            79070021
 00559A 5060 F1D0      05740        8122        ST    RW1,CURCOL       COLUMN 17                                 79080021
 00559E 4166 0037      00037        8123          LA    RW1,DX55(RW1)                                            79090021
 0055A2 5060 F1D4      05744        8124        ST    RW1,LASCOL       COLUMN 72                                 79100021
 0055A6 4160 F17C      056EC        8125        LA    RW1,LOCARD                                                 79110021
 0055AA 9240 F17C      056EC        8126          MVI   CONSTLOC,BLANK      BLANK COLUMN 1                       79120021
 0055AE D24E F17D F17C 056ED 056EC  8127          MVC   CONSTLO2(LX79),CONSTLOC  BLANK CARD                      79130021
 0055B4 D203 F17C F1DA 056EC 0574A  8128          MVC   CONSTLOC(LX4),COL1T4  CONSTANT FIRST FOR COLUMNS         79140021
 0055BA D201 F18A C06C 056FA 036FC  8129          MVC   TXTESDID(LX2),C61   ESDID OF SD CONTAINING THE TXT       79150021
                                    8130 *  WE MAY ALSO WANT TO PUNCH ID INFO IN COLS 73-80                      79160021
 0055C0 D202 F181 9149 056F1 00149  8131          MVC   TXTLOCRD(LX3),LOCCTR+NX1 LOCCTR(LOW 24 BITS)COL6-8       79170021
 0055C6 5870 9148      00148        8132        L     RW2,LOCCTR                                                 79180021
 0055CA 5070 F1CC      0573C        8133        ST    RW2,CURLOC       SET CURLOC = LOCCTR                       79190021
 0055CE 5870 F1D0      05740        8134 TXROOM L     RW2,CURCOL       PRESENT COLUMN                            79200021
 0055D2 5A70 F174      056E4        8135        A     RW2,TXCOUN       ADD COUNT                                 79210021
 0055D6 5850 F1D4      05744        8136        L     RW3,LASCOL                                                 79220021
 0055DA 4155 0001      00001        8137          LA    RW3,DX1(RW3)    LAST COLUMN+1                            79230021
 0055DE 1575                        8138        CLR   RW2,RW3          FIT ON CURRENT CARD                       79240021
 0055E0 4720 F11A      0568A        8139        BC    HI,TXGTR         NO                                        79250021
 0055E4 5870 F174      056E4        8140        L     RW2,TXCOUN       YES,SET COUNT                             79260021
 0055E8 4070 F16E      056DE        8141        STH   RW2,MOVCNT                                                 79270021
 0055EC 1B77                        8142        SR    RW2,RW2                                                    79280021
 0055EE 5070 F174      056E4        8143        ST    RW2,TXCOUN       ZERO COUNT                                79290021
 0055F2 4870 F16E      056DE        8144 TXFILL LH    RW2,MOVCNT       COUNT FOR NEXT MOVE                       79300021
 0055F6 0670                        8145        BCTR  RW2,R0          DECR FOR MVC INSTR                         79310021
 0055F8 1867                        8146 TXLONG LR    RW1,RW2                                                    79320021
 0055FA 5870 F1D0      05740        8147        L     RW2,CURCOL       TO ADDR                                   79330021
 0055FE 5850 F178      056E8        8148        L     RW3,TXDADR       FROM ADDR                                 79340021
 005602 4460 F1DE      0574E        8149        EX    RW1,TXMOVE       MOVE TO CARD AREA                         79350021
 005606 4A70 F16E      056DE        8150        AH    RW2,MOVCNT                                                 79360021
 00560A 5070 F1D0      05740        8151        ST    RW2,CURCOL       INCREMENT CURRENT COLUMN                  79370021
 00560E 5870 9148      00148        8152        L     RW2,LOCCTR                                                 79380021
 005612 4A70 F16E      056DE        8153        AH    RW2,MOVCNT                                                 79390021
 005616 5070 9148      00148        8154        ST    RW2,LOCCTR       INCREMENT LOCATION COUNTER                79400021
 00561A 5070 F1CC      0573C        8155        ST    RW2,CURLOC       AND CURLOC                                79410021
 00561E 5870 F1D0      05740        8156        L     RW2,CURCOL                                                 79420021
1PH60     IKFCBL60                                                                                              PAGE  191
-  LOC  OBJECT CODE    ADDR1 ADDR2  STMT   SOURCE STATEMENT                                       ASM 0201 11.03 02/14/15
0005622 4100 F17C      056EC        8157        LA    R0,LOCARD                                                  79430021
 005626 1B70                        8158        SR    RW2,R0            NUMBER OF COLS                           79440021
 005628 4B70 F1D8      05748        8159        SH    RW2,TXH16        OF TEXT = CURCOL                          79450021
 00562C 4070 F170      056E0        8160        STH   RW2,COLUMS       - LOCARD -16                              79460021
 005630 D201 F186 F170 056F6 056E0  8161          MVC   TXTNUMB(LX2),COLUMS STORE IN COL 11-12                   79470021
 005636 5870 F1D4      05744        8162        L     RW2,LASCOL                                                 79480021
 00563A 4177 0001      00001        8163          LA    RW2,DX1(RW2)                                             79490021
 00563E 5570 F1D0      05740        8164        CL    RW2,CURCOL       FULL CARD                                 79500021
 005642 4770 F168      056D8        8165        BC    NOTEQ,TXEXIT     NO                                        79510021
 005646                             8166 TXCLPN DS    0H                                                         79520021
                                    8167 *  GENERATE CARD NUMBER                                                 79530021
 005646 FA20 D130 C039 03EC8 036C9  8168          AP    CRDNUM(LX3),DECONE(LX1) UP CARD NUMBER                   79540021
 00564C F332 F1C8 D130 05738 03EC8  8169          UNPK  TXTCRDNO(LX4),CRDNUM(LX3)                                79550021
 005652 96F0 F1CB      0573B        8170          OI    TXTZONE,MF0         CHANGE ZONE                          79560021
 005656 D203 F1C4 9150 05734 00150  8171          MVC   TXTPRGID(LX4),PROGID                                     79570021
                                    8172 *                                                                       79580021
 00565C 1819                        8173 TXT010 LR    R1,RB2                      CALL PUTN TO FILL              79590021
                                    8174 *                                         PUNCH BUFFER                  79600021
 00565E 4120 F17C      056EC        8175        LA    R2,LOCARD                                                  79610021
 005662 4130 0050      00050        8176          LA    R3,EIGHTY                                                79620021
 005666 0501                        8177        BALR  R0,R1                 BR TO PH0                            79630021
 005668 17                          8178        DC      X'17'               PUNCH ON SYSPUNCH                    79640021
 00566A                             8179 TXT020 DS    0H                                                         79650021
 00566A D701 F170 F170 056E0 056E0  8180        XC    COLUMS,COLUMS         VF SIZE NOW = 0                      79660021
 005670                             8181 TXGET  DS    0H                                                         79670021
 005670 1B77                        8182        SR    RW2,RW2                                                    79680021
 005672 5570 F174      056E4        8183        CL    RW2,TXCOUN       MORE DATA                                 79690021
 005676 4780 F168      056D8        8184        BC    ZERO,TXEXIT      NO                                        79700021
 00567A 5870 F178      056E8        8185        L     RW2,TXDADR                                                 79710021
 00567E 4A70 F16E      056DE        8186        AH    RW2,MOVCNT       INCREMENT                                 79720021
 005682 5070 F178      056E8        8187        ST    RW2,TXDADR       INPUT ADDRESS                             79730021
 005686 47F0 F022      05592        8188        BC    UNCOND,TXLOCT    YES, GET NEW CARD AREA                    79740021
 00568A 5870 F1D4      05744        8189 TXGTR  L     RW2,LASCOL                                                 79750021
 00568E 5B70 F1D0      05740        8190        S     RW2,CURCOL       MOVE COUNT = LASCOL                       79760021
 005692 4177 0001      00001        8191          LA    RW2,DX1(RW2)    - CURCOL +1                              79770021
 005696 4070 F16E      056DE        8192        STH   RW2,MOVCNT                                                 79780021
 00569A 5870 F174      056E4        8193        L     RW2,TXCOUN                                                 79790021
 00569E 4B70 F16E      056DE        8194        SH    RW2,MOVCNT       SUBTRACT MOVCNT                           79800021
 0056A2 5070 F174      056E4        8195        ST    RW2,TXCOUN       FROM TXCOUN                               79810021
 0056A6 47F0 F082      055F2        8196        BC    UNCOND,TXFILL    GO TO MOVE                                79820021
 0056AA 5870 9148      00148        8197 TXCOMP L     RW2,LOCCTR                                                 79830021
 0056AE 5570 F1CC      0573C        8198        CL    RW2,CURLOC       CAN OLD CARD BE USED                      79840021
 0056B2 4780 F05E      055CE        8199        BC    EQ,TXROOM        YES                                       79850021
 0056B6 47F0 F0D6      05646        8200        BC    UNCOND,TXCLPN    NO, PUNCH OLD                             79860021
 0056BA D703 F174 F174 056E4 056E4  8201 FORCE  XC    TXCOUN,TXCOUN                                              79870021
 0056C0 D703 F1D4 F1D4 05744 05744  8202        XC    LASCOL,LASCOL                                              79880021
 0056C6 D703 F1D0 F1D0 05740 05740  8203        XC    CURCOL,CURCOL                                              79890021
 0056CC 9601 F1D3      05743        8204          OI    CURCOL+NX3,XX01                                          79900021
 0056D0 9500 F171      056E1        8205          CLI   COLUMS+NX1,XX00      IF VF SIZE = 0, DO NOT FORCE CAR    79910021
 0056D4 4770 F0D6      05646        8206        BC    NOTEQ,TXCLPN          GO GENERATE CARD NUMBER              79920021
 0056D8 980F D07C      03E14        8207 TXEXIT LM    R0,R15,SVREG                                               79930021
 0056DC 07FE                        8208          BCR   UNCOND,RS1          RETURN                               79940021
                                    8209 *                                                                       79950021
                                    8210 * CONSTANTS AND STORAGE                                                 79960021
                                    8211 *                                                                       79970021
1PH60     IKFCBL60                                                                                              PAGE  192
-  LOC  OBJECT CODE    ADDR1 ADDR2  STMT   SOURCE STATEMENT                                       ASM 0201 11.03 02/14/15
00056DE                             8212 MOVCNT DS    H                TEMPORARY STORAGE                         79980021
 0056E0                             8213 COLUMS DS    H                     COLUMNS                              79990021
 0056E4                             8214 TXCOUN DS    F                                                          80000021
 0056E8                             8215 TXDADR DS    F                     ADDR TXT                             80010021
 0056EC                             8216 LOCARD   DS    0CL80               COLUMS                               80020021
 0056EC                             8217 CONSTLOC DS    C                    1     CONSTANT                      80030021
 0056ED                             8218 CONSTLO2 DS    3C                   2-4                                 80040021
 0056F0                             8219          DS    C                    5                                   80050021
 0056F1                             8220 TXTLOCRD DS    3C                   6-8   ADDR                          80060021
 0056F4                             8221          DS    2C                   9-10                                80070021
 0056F6                             8222 TXTNUMB  DS    2C                  11-12  NUM BYTES TEXT                80080021
 0056F8                             8223          DS    2C                  13-14                                80090021
 0056FA                             8224 TXTESDID DS    2C                  15-16  ESDID                         80100021
 0056FC                             8225          DS    56C                 17-72                                80110021
 005734                             8226 TXTPRGID DS    4C                  73-76  PROGRAM NAME                  80120021
 005738                             8227 TXTCRDNO DS    3C                  77-79  CARD NUMBER                   80130021
 00573B                             8228 TXTZONE   DS    C                  80     ZONE                          80140021
 00573C                             8229 CURLOC DS    F                                                          80150021
 005740 00000001                    8230 CURCOL DC    F'1'             SET TO INSURE INITIAL CALL STARTS         80160021
 005744 00000000                    8231 LASCOL DC    F'0'             A NEW CARD. INITIALIZED AT START OF P     80170021
 005748 0010                        8232 TXH16  DC    H'16'                                                      80180021
 00574A 02E3E7E3                    8233 COL1T4 DC    X'02E3E7E3'      CONSTANT IN CARD COLS 1-4                 80190021
 00574E D200 7000 5000 00000 00000  8234 TXMOVE   MVC   DX0(LX1,RW2),DX0(RW3)                                    80200021
                                    8235        DROP  R15                                                        80210021
1PH60     IKFCBL60                                                                                              PAGE  193
-  LOC  OBJECT CODE    ADDR1 ADDR2  STMT   SOURCE STATEMENT                                       ASM 0201 11.03 02/14/15
0005758                             8237 IKF608   CSECT                                                          80230021
                                    8238 *=1    PUNCH ESD CARD                                                   80240021
                                    8239 *            (0)-TYPE                                                   80250021
                                    8240 *            (1)-ADDR NAME                                              80260021
                                    8241 *                                                                       80270021
                                    8242 *      LAYOUT OF ESD CARD                                               80280021
                                    8243 *                                                                       80290021
                                    8244 *      COL          CONTENT                                             80300021
                                    8245 *      1            12-9-2  PUNCH  (X'02')                              80310021
                                    8246 *      2-4          ESD                                                 80320021
                                    8247 *      5-10         BLANK                                               80330021
                                    8248 *      11-12        NO BYTES INFO                                       80340021
                                    8249 *      13-14        BLANK                                               80350021
                                    8250 *      15-16        ESDID OF FIRST SD,LR,ER ON CARD OR BLANK            80360021
                                    8251 *      17-72        VARIABLE FIELD                                      80370021
                                    8252 *      73-80        NOT USED                                            80380021
                                    8253 *                                                                       80390021
                                    8254 *      VARIABLE FIELD  (INTEGRAL NO/CARD)                               80400021
                                    8255 *                                                                       80410021
                                    8256 *      NAME FIELD        8 OR FEWER CHARS                               80420021
                                    8257 *            TYPE        SD   0                                         80430021
                                    8258 *                        LD   1                                         80440021
                                    8259 *                        ER   2                                         80450021
                                    8260 *                        PC   4                                         80460021
                                    8261 *      ORIGIN            24-BIT REL ADDR IF SD, LD OR PC                80470021
                                    8262 *                        ZERO IF ER                                     80480021
                                    8263 *      BLANK             1 COL                                          80490021
                                    8264 *      LENGTH/ID         LENGTH IF SD OR PC EXCEPT IF ON                80500021
                                    8265 *                         END CARD - THEN ZERO                          80510021
                                    8266 *                        ID OF SD CONTAINING THIS LD                    80520021
                                    8267 *                        BLANK IF ER                                    80530021
                                    8268 *                                                                       80540021
                                    8269 *      THIS ROUTINE WILL BE MODIFIED TO PACK LD AND ER ENTRIES          80550021
                                    8270 *      BUT NOW ONLY THE SD ENTRY WILL BE PROCESSED FOR BPS              80560021
                                    8271 *                                                                       80570021
                                    8272 *                                                                       80580021
 005758                             8273          DS    0H                                                       80590021
                             05758  8274        USING *,R15                                                      80600021
 005758 900F D07C      03E14        8275 ESDCRD STM   R0,R15,SVREG                                               80610021
                                    8276 *                                                                       80620021
 00575C 9240 F107      0585F        8277          MVI   PUNFLD,BLANK                                             80630021
 005760 D24E F108 F107 05860 0585F  8278          MVC   PUNESD(LX79),PUNFLD                                      80640021
                                    8279 *                                                                       80650021
 005766 9140 D0FD      03E95        8280          TM    SEGSW,SEGNSRT       INSERT CARD TO BE PUNCHED            80660021
 00576A 4710 F0B4      0580C        8281          BC    ONES,ESD80          YES, BRANCH                          80670021
 00576E 9180 D0FD      03E95        8282          TM    SEGSW,SEGOVLY       IS OVERLAY CARD TO BE PUNCHED        80680021
 005772 4710 F0C8      05820        8283          BC    ONES,ESD90          YES, BRANCH                          80690021
 005776 9101 D0FD      03E95        8284          TM    SEGSW,SEGENTRY      IS ENTRY CARD TO BE PUNCHED          80700021
 00577A 4710 F0D6      0582E        8285          BC    ONES,ESD100         YES, BRANCH                          80710021
 00577E D203 F107 F0E6 0585F 0583E  8286        MVC   PUNFLD(L'C6ESD),C6ESD DEFINE ESD CARD                      80720021
 005784 4900 C06C      036FC        8287        CH    R0,C61                                                     80730021
 005788 4770 F07A      057D2        8288        BC    NOTEQ,ESD010          NOT ADDR NAME, GO TEST TYPE          80740021
 00578C D202 F120 9149 05878 00149  8289          MVC   PUNORIGN(LX3),LOCCTR+NX1 LOCATION COUNTER                80750021
 005792 D202 F124 F0FE 0587C 05856  8290          MVC   PUNLENID(LX3),ESD020     ID OF SD CONTAINING TEXT        80760021
 005798 D207 F117 1000 0586F 00000  8291 ESD030   MVC   PUNNAME(LX8),DX0(R1)          NAME                       80770021
1PH60     IKFCBL60                                                                                              PAGE  194
-  LOC  OBJECT CODE    ADDR1 ADDR2  STMT   SOURCE STATEMENT                                       ASM 0201 11.03 02/14/15
000579E 4200 F11F      05877        8292          STC   R0,PUNTYPE          TYPE                                 80780021
 0057A2 D201 F111 C07C 05869 0370C  8293          MVC   PUNNUMB(LX2),C610        NO BYTES DATA (16) ON CRD       80790021
                                    8294 *  GENERATE CARD NUMBER                                                 80800021
 0057A8 FA20 D130 C039 03EC8 036C9  8295          AP    CRDNUM(LX3),DECONE(LX1) UP CARD NUMBER                   80810021
 0057AE F332 F153 D130 058AB 03EC8  8296          UNPK  PUNCRDNO(LX4),CRDNUM(LX3)                                80820021
 0057B4 96F0 F156      058AE        8297          OI    PUNZONE,MF0         CHANGE ZONE                          80830021
 0057B8 D203 F14F 9150 058A7 00150  8298          MVC   PUNPRGID(LX4),PROGID                                     80840021
                                    8299 *                                                                       80850021
                             057BE  8300 ESD69  EQU   *                                                          80860021
 0057BE 1819                        8301        LR    R1,RB2                                                     80870021
 0057C0 4120 F107      0585F        8302        LA    R2,PUNFLD                                                  80880021
 0057C4 4130 0050      00050        8303          LA    R3,EIGHTY                                                80890021
 0057C8 0501                        8304        BALR  R0,R1                 BR TO PH0                            80900021
 0057CA 17                          8305        DC    X'17'                 SYSPUNCH                             80910021
                                    8306 *                                                                       80920021
 0057CC                             8307 ESD070 DS    0H                                                         80930021
 0057CC 980F D07C      03E14        8308        LM    R0,R15,SVREG                                               80940021
 0057D0 07FE                        8309          BCR   UNCOND,RS1          RETURN                               80950021
                                    8310 *                                                                       80960021
                                    8311 *                                                                       80970021
                                    8312 *                                                                       80980021
                                    8313 *                                                                       80990021
 0057D2 D201 F115 D068 0586D 03E00  8314 ESD010   MVC   PUNESDID(LX2),ESDID                                      81000021
 0057D8 D202 F120 F101 05878 05859  8315          MVC   PUNORIGN(LX3),ESD040     ZEROS TO LOCCTR FIELD           81010021
 0057DE 4160 0004      00004        8316          LA    RW1,ESDTYP4                                              81020021
 0057E2 1200                        8317        LTR   R0,R0                                                      81030021
 0057E4 4780 F096      057EE        8318        BC    ZERO,ESD015           SD TYPE                              81040021
 0057E8 1560                        8319        CLR   RW1,R0                                                     81050021
 0057EA 4770 F040      05798        8320        BC    NOTEQ,ESD030          LD OR ER                             81060021
 0057EE                             8321 ESD015 DS    0H                    SD OR PC                             81070021
 0057EE 4770 F040      05798        8322        BC    NOTZER,ESD030         PC TYPE                              81080021
                                    8323 *                                                                       81090021
                                    8324 *                                                                       81100021
 0057F2 D202 F124 F101 0587C 05859  8325          MVC   PUNLENID(LX3),ESD040                                     81110021
 0057F8 47F0 F040      05798        8326          BC    UNCOND,ESD030       PUNCH SD TYPE ESD CARD               81120021
                                    8327 *                                                                       81130021
 0057FC D202 F124 F104 0587C 0585C  8328          MVC   PUNLENID(LX3),ESD045     LENGTH OF SD                    81140021
 005802 D202 F120 C3D5 05878 03A65  8329          MVC   PUNORIGN(LX3),DUMMYS+NX1 LOCCTR FIELD                    81150021
                                    8330 *                                  HERE-WILL BE ON END CARD             81160021
                                    8331 *                                                                       81170021
 005808 47F0 F040      05798        8332        BC    UNCOND,ESD030         THIS AND PREVIOUS 2 INST UNUSED      81180021
 00580C D205 F108 F0EA 05860 05842  8333 ESD80    MVC   PUNESD(LX6),INSCON       DEFINE INSERT CARD              81190021
 005812 D207 F10F 9150 05867 00150  8334          MVC   PUNCSECT(LX8),PROGID     GET CSECT NAME                  81200021
 005818 94BF D0FD      03E95        8335          NI    SEGSW,SEGNONST      RESET INSERT CARD BIT                81210021
 00581C 47F0 F066      057BE        8336        B     ESD69                 GO CHECK IF SHOULD PUNCH             81220021
 005820 D208 F108 F0F5 05860 0584D  8337 ESD90    MVC   PUNESD(LX9),OVERLY       DEFINE OVERLAY CARD             81230021
 005826 947F D0FD      03E95        8338          NI    SEGSW,SEGNOVLY      RESET OVERLAY CARD BIT               81240021
 00582A 47F0 F066      057BE        8339        B     ESD69                 GO CHECK IF SHOULD PUNCH             81250021
 00582E D204 F108 F0F0 05860 05848  8340 ESD100   MVC   PUNESD(LX5),ENTCON       DEFINE ENTRY CARD               81260021
 005834 D207 F10E D142 05866 03EDA  8341          MVC   PUNPRGNM(LX8),DCPRID     GET PROGRAM NAME                81270021
 00583A 47F0 F066      057BE        8342        B     ESD69                 PUNCH ENTRY CARD                     81280021
 00583E 02C5E2C4                    8343 C6ESD  DC    X'02C5E2C4'           12-9-2 PUNCH FOLLOWED BY ESD         81290021
 005842 C9D5E2C5D9E3                8344 INSCON DC    C'INSERT'                                                  81300021
 005848 C5D5E3D9E8                  8345 ENTCON DC    C'ENTRY'                                                   81310021
 00584D D6E5C5D9D3C1E840            8346 OVERLY DC    C'OVERLAY A'                                               81320021
1PH60     IKFCBL60                                                                                              PAGE  195
-  LOC  OBJECT CODE    ADDR1 ADDR2  STMT   SOURCE STATEMENT                                       ASM 0201 11.03 02/14/15
0005856 000001                      8347 ESD020 DC    X'000001'                                                  81330021
 005859 000000                      8348 ESD040 DC    XL3'0'                                                     81340021
 00585C 00FFFF                      8349 ESD045 DC    X'00FFFF'                  ***** ZERO OR MAX PROG LENG     81350021
 00585F                             8350 PUNFLD   DS    0CL80               COLUMNS                              81360021
 00585F                             8351 PUN0TWO  DS    C                    1        ZERO-TWO PUNCH             81370021
 005860                             8352 PUNESD   DS    3C                   2-4      'ESD'                      81380021
 005863                             8353          DS    3C                   5-7                                 81390021
 005866                             8354 PUNPRGNM DS    C                    8        PROGRAM NAME               81400021
 005867                             8355 PUNCSECT DS    2C                   9-10     CSECT NAME                 81410021
 005869                             8356 PUNNUMB  DS    2C                  11-12     NUMBER OF BYTES DATA       81420021
 00586B                             8357          DS    2C                  13-14                                81430021
 00586D                             8358 PUNESDID DS    2C                  15-16     ESDID                      81440021
 00586F                             8359 PUNNAME  DS    8C                  17-24     PROGRAM NAME               81450021
 005877                             8360 PUNTYPE  DS    C                   25        TYPE ESD                   81460021
 005878                             8361 PUNORIGN DS    3C                  26-28     LOCCTR (24BITS)            81470021
 00587B                             8362          DS    C                   29                                   81480021
 00587C                             8363 PUNLENID DS    43C                 30-72     LENGTH OR ID               81490021
 0058A7                             8364 PUNPRGID DS    4C                  73-76     PROGID                     81500021
 0058AB                             8365 PUNCRDNO DS    3C                  77-79     CARD NUMBER                81510021
 0058AE                             8366 PUNZONE  DS    C                   80        ZONE PUNCH                 81520021
                                    8367        DROP  R15                                                        81530021
1PH60     IKFCBL60                                                                                              PAGE  196
-  LOC  OBJECT CODE    ADDR1 ADDR2  STMT   SOURCE STATEMENT                                       ASM 0201 11.03 02/14/15
0                                   8369 *=1   RLDCRD                                                            81550021
                                    8370 *=          ROUTINE TO PUNCH AN RLD CARD                                81560021
                                    8371 * CALLED WITH LOCATION OF ADCON IN R1,                                  81570021
                                    8372 *            FLAG BYTE IN R0       BITS 0-2  ZEROES                     81580021
                                    8373 *                                  BIT 3    0 NON-BRANCH TYPE           81590021
                                    8374 *                                           1 BRANCH TYPE               81600021
                                    8375 *                                  BITS 4-5   LENGTH OF ADCON MINUS     81610021
                                    8376 *                                  BIT 6    0 POSITIVE REFERENCE        81620021
                                    8377 *                                           1 COMPLEMENTED REFERENC     81630021
                                    8378 *                                  BIT 7     ZERO                       81640021
                                    8379 *            IF R0 IS ALL ZEROES, FORCE OUT CARD                        81650021
                                    8380 *                                                                       81660021
 0058B0                             8381          DS    0H                                                       81670021
                             058B0  8382        USING *,R15                                                      81680021
 0058B0 900F F190      05A40        8383 RLDCRD STM   R0,R15,SRLD                                                81690021
 0058B4 1200                        8384        LTR   R0,R0              FORCE OUT LAST CARD                     81700021
 0058B6 4370 D56D      04305        8385        IC    RW2,RLDIF        NOP OR                                    81710021
 0058BA 41E0 F11A      059CA        8386        LA    RS1,RLDFRC                                                 81720021
 0058BE 4470 C3D2      03A62        8387        EX    RW2,RLDBC1       BC ZERO,RLDFRC                            81730021
 0058C2 4780 F114      059C4        8388        BC    ZERO,RLDXIT BRANCH IF NEVER ANY RLDS CREATED               81740021
 0058C6 9680 D56D      04305        8389          OI    RLDIF,RLDIS         SET TO PUNCH LAST CARD IF ANY        81750021
 0058CA 4160 F130      059E0        8390        LA    RW1,RLDLOC                                                 81760021
 0058CE 4370 D56E      04306        8391        IC    RW2,RLDONE       NOP OR                                    81770021
 0058D2 41E0 F048      058F8        8392        LA    RS1,RLDLN1                                                 81780021
 0058D6 4470 C3D2      03A62        8393        EX    RW2,RLDBC2       BC UNCOND,RLDLN1                          81790021
 0058DA 96F0 D56E      04306        8394          OI    RLDONE,RLDNOFST     SET NOT FIRST TIME                   81800021
 0058DE D701 F12C F12C 059DC 059DC  8395 RLDNEW   XC    RLDVFC(LX2),RLDVFC   ZERO VF COUNT                       81810021
 0058E4 4160 F130      059E0        8396        LA    RW1,RLDLOC            LOC OF CARD AREA                     81820021
 0058E8 D204 6000 F126 00000 059D6  8397          MVC   DX0(LX5,RW1),COL1T5   CONSTANT COLS 1-5                  81830021
 0058EE D24A 6005 6004 00005 00004  8398          MVC   DX5(LX75,RW1),DX4(RW1) BLANK REST OF CARD                81840021
                                    8399 * ID IN COLS 73-80 WILL BE                                              81850021
                                    8400 * INSERTED HERE IF EVER NEEDED.                                         81860021
 0058F4 47F0 F0C6      05976        8401        BC    UNCOND,RLDSET         BEGIN VF                             81870021
 0058F8 9534 F12D      059DD        8402 RLDLN1   CLI   RLDVFC+NX1,XX34                                          81880021
 0058FC 47D0 F098      05948        8403        BC    NOTHI,RLDLN2          YES                                  81890021
                                    8404 *                                  NO, PUNCH CARD                       81900021
 005900 9001 F184      05A34        8405 RLDPUN STM   R0,R1,RLDREG            SAVE PARAMETERS                    81910021
 005904 1B00                        8406        SR    R0,R0                                                      81920021
 005906 58F0 C46C      03AFC        8407        L     R15,ATXPNH             FORCE OUT TEXT CARD                 81930021
 00590A 05EF                        8408        BALR  RS1,R15               GO TO PUNCH RTN                      81940021
 00590C 58F0 C490      03B20        8409        L     R15,ARLD                                                   81950021
                                    8410 *  GENERATE CARD NUMBER                                                 81960021
 005910 FA20 D130 C039 03EC8 036C9  8411          AP    CRDNUM(LX3),DECONE(LX1) UP CARD NUMBER                   81970021
 005916 F332 F17C D130 05A2C 03EC8  8412          UNPK  RLDLOC+NX76(LX4),CRDNUM(LX3)                             81980021
 00591C 96F0 F17F      05A2F        8413          OI    RLDLOC+NX79,MF0     CHANGE ZONE                          81990021
 005920 D203 F178 9150 05A28 00150  8414          MVC   RLDLOC+NX72(LX4),PROGID                                  82000021
 005926 1819                        8415        LR    R1,RB2                                                     82010021
 005928 4120 F130      059E0        8416        LA    R2,RLDLOC                                                  82020021
 00592C 4130 0050      00050        8417          LA    R3,EIGHTY                                                82030021
 005930 0501                        8418        BALR  R0,R1                 BR TO PH0                            82040021
 005932 17                          8419        DC      X'17'        BUFFER TO FILL PUNCH BUFFER                 82050021
 005934                             8420 RLD110 DS    0H                                                         82060021
 005934 9801 F184      05A34        8421        LM    R0,R1,RLDREG            RESTORE REGISTERS                  82070021
 005938 4370 D56F      04307        8422        IC    RW2,RLDFSW       NOP OR                                    82080021
 00593C 41E0 F114      059C4        8423        LA    RS1,RLDXIT                                                 82090021
1PH60     IKFCBL60                                                                                              PAGE  197
-  LOC  OBJECT CODE    ADDR1 ADDR2  STMT   SOURCE STATEMENT                                       ASM 0201 11.03 02/14/15
0005940 4470 C3D2      03A62        8424        EX    RW2,RLDBC3       BC UNCOND,RLDXIT                          82100021
 005944 47F0 F02E      058DE        8425        BC    UNCOND,RLDNEW         SET UP NEW CARD                      82110021
 005948 9530 F12D      059DD        8426 RLDLN2   CLI   RLDVFC+NX1,XX30                                          82120021
 00594C 47D0 F0BC      0596C        8427        BC    NOTHI,RLDESD          YES                                  82130021
 005950 D501 D068 D06C 03E00 03E04  8428          CLC   ESDID(LX2),CURESD    NO, DO WE NEED 8 COLS               82140021
 005956 4770 F050      05900        8429        BC    NOTEQ,RLDPUN          YES, PUNCH OLD CARD                  82150021
                                    8430 *                                  NO, CONTINUE OLD CARD                82160021
 00595A 4870 F12E      059DE        8431 RLDCTN LH    RW2,RLDVF2                                                 82170021
 00595E 1A76                        8432        AR    RW2,RW1               PUT CONTINUE BIT IN                  82180021
 005960 9601 7010      00010        8433          OI    DX16(RW2),XX01                                           82190021
 005964 4A60 F12C      059DC        8434        AH    RW1,RLDVFC            NEXT FLAG BYTE                       82200021
 005968 47F0 F0EC      0599C        8435        BC    UNCOND,RLDFLG         SKIP ESD NUMBERS                     82210021
 00596C D501 D068 D06C 03E00 03E04  8436 RLDESD   CLC   ESDID(LX2),CURESD    NEED NEW ESD NUMBERS                82220021
 005972 4780 F0AA      0595A        8437        BC    EQ,RLDCTN             NO                                   82230021
 005976 4A60 F12C      059DC        8438 RLDSET AH    RW1,RLDVFC                                                 82240021
 00597A D201 6010 D068 00010 03E00  8439          MVC   DX16(LX2,RW1),ESDID   ESD REF NUM TO CARD                82250021
 005980 D201 6012 F122 00012 059D2  8440          MVC   DX18(LX2,RW1),ESDONE  CURRENT ESD (1) TO CARD            82260021
 005986 D201 D06C D068 03E04 03E00  8441          MVC   CURESD(LX2),ESDID    NEW ESDID ON RLD CARD               82270021
 00598C 4870 F12C      059DC        8442        LH    RW2,RLDVFC                                                 82280021
 005990 4177 0004      00004        8443          LA    RW2,DX4(RW2)         UP VF COUNT                         82290021
 005994 4070 F12C      059DC        8444        STH   RW2,RLDVFC                                                 82300021
 005998 4166 0004      00004        8445          LA    RW1,DX4(RW1)         UP COLUMN POINTER                   82310021
 00599C                             8446 RLDFLG DS    0H                                                         82320021
 00599C                             8447 RLDFL2 DS    0H                                                         82330021
 00599C 5010 F180      05A30        8448 RLDPLS ST    R1,RLDADD              TEXT ADDRESS                        82340021
 0059A0 4200 F180      05A30        8449        STC   R0,RLDADD              FLAG BYTE                           82350021
 0059A4 D203 6010 F180 00010 05A30  8450          MVC   DX16(LX4,RW1),RLDADD  MOVE TO CARD AREA                  82360021
 0059AA 4870 F12C      059DC        8451        LH    RW2,RLDVFC                                                 82370021
 0059AE 4070 F12E      059DE        8452        STH   RW2,RLDVF2            SAVE FOR CONTINUATION                82380021
 0059B2 4177 0004      00004        8453          LA    RW2,DX4(RW2)         UP VF COUNT                         82390021
 0059B6 4070 F12C      059DC        8454        STH   RW2,RLDVFC                                                 82400021
 0059BA 4160 F130      059E0        8455        LA    RW1,RLDLOC            CARD LOCATION                        82410021
 0059BE D201 600A F12C 0000A 059DC  8456          MVC   DX10(LX2,RW1),RLDVFC  MOVE NEW COUNT TO CARD             82420021
 0059C4                             8457 RLDXIT DS    0H                                                         82430021
 0059C4 980F F190      05A40        8458        LM    R0,R15,SRLD                                                82440021
 0059C8 07FE                        8459        BCR   UNCOND,RS1            RETURN                               82450021
 0059CA 96F0 D56F      04307        8460 RLDFRC   OI    RLDFSW,RLDFORCE     SET FORCED BIT                       82460021
 0059CE 47F0 F050      05900        8461        BC    UNCOND,RLDPUN         GO FORCE OUT LAST CARD               82470021
                                    8462 *                                                                       82480021
                                    8463 * CONSTANTS AND STORAGE                                                 82490021
                                    8464 *                                                                       82500021
 0059D2 0001                        8465 ESDONE DC    H'1'                                                       82510021
 0059D4 0002                        8466 HWTWO  DC    H'2'                                                       82520021
 0059D6 02D9D3C440                  8467 COL1T5 DC    X'02D9D3C440'         CONSTANT FOR CARD COLS 1-5           82530021
                                    8468 *                                                                       82540021
 0059DC                             8469 RLDVFC DS    H           CURRENT VARIABLE FIELD SIZE                    82550021
 0059DE                             8470 RLDVF2 DS    H           VF SIZE AT POINT OF PREVIOUS FLAG BYTE         82560021
 0059E0                             8471 RLDLOC DS    80C         CARD AREA                                      82570021
 005A30                             8472 RLDADD DS    F           TEMP STORAGE FOR FLAGS AND ADDRESS             82580021
 005A34                             8473 RLDREG DS    2F               TEMP STORAGE FOR PARAMETER REGISTERS      82590021
 005A3C                             8474 U13    DS    F                                                          82600021
 005A40                             8475 SRLD   DS    16F                                                        82610021
                                    8476        DROP  R15                                                        82620021
1PH60     IKFCBL60                                                                                              PAGE  198
-  LOC  OBJECT CODE    ADDR1 ADDR2  STMT   SOURCE STATEMENT                                       ASM 0201 11.03 02/14/15
0                                   8478 *=1          MAPLOC                                                     82640021
                                    8479 *      THIS ROUTINE MAKES UP AND PRINTS                                 82650021
                                    8480 *       ONE LINE OF THE MEMORY MAP.                                     82660021
                                    8481 *      ON ENTRY                                                         82670021
                                    8482 *            RW1 HAS DISPLACEMENT                                       82680021
                                    8483 *            GTLOC HAS GLOBAL TABLE LOCATION                            82690021
                                    8484 *            MAPTXT HAS TEXT LOCATION                                   82700021
                                    8485 *                                                                       82710021
                                    8486 *     MAPTXT WILL BE INCREMENTED TO POINT TO NEXT TEXT LOC.             82720021
                                    8487 *                                                                       82730021
                             05A80  8488        USING MAPLOC,R15                                                 82740021
 005A80                             8489 MAPLOC DS    0H                                                         82750021
 005A80 9140 91A3      001A3        8490        TM    PHZSW,NOLIST          EXIT IF NOLIST MODE                  82760021
 005A84 078E                        8491        BCR   ZERO,RS1              RETURN IF NOLIST                     82770021
 005A86 900F F050      05AD0        8492        STM   R0,R15,VMAPL                                               82780021
 005A8A 1B77                        8493        SR    RW2,RW2                                                    82790021
 005A8C 5850 D0EC      03E84        8494        L     RW3,MAPTXT                                                 82800021
 005A90 4375 0000      00000        8495          IC    RW2,DX0(RW3)    LENGTH FOR MVC                           82810021
 005A94 4470 F04A      05ACA        8496        EX    RW2,MOVTXT       MOVE TEXT                                 82820021
 005A98 1A57                        8497        AR    RW3,RW2                                                    82830021
 005A9A 4155 0002      00002        8498          LA    RW3,DX2(RW3)                                             82840021
 005A9E 5050 D0EC      03E84        8499        ST    RW3,MAPTXT                                                 82850021
 005AA2 5A60 D0D0      03E68        8500        A     RW1,GTLOC                                                  82860021
 005AA6 5060 D314      040AC        8501        ST    RW1,C6WRK0       LOCATION                                  82870021
 005AAA 58F0 C474      03B04        8502        L     R15,AS6010                                                 82880021
 005AAE 05EF                        8503        BALR  RS1,R15            CONVERT FOR LIST                        82890021
 005AB0 58F0 C494      03B24        8504        L     R15,AMAPLC                                                 82900021
 005AB4 D204 D7A8 D31B 04540 040B3  8505          MVC   OU6REC+NX44(LX5),C6WRK4                                  82910021
 005ABA 58F0 C460      03AF0        8506        L     R15,APUT                                                   82920021
 005ABE 05EF                        8507        BALR  RS1,R15            LIST                                    82930021
 005AC0 58F0 C494      03B24        8508        L     R15,AMAPLC                                                 82940021
 005AC4 980F F050      05AD0        8509        LM    R0,R15,VMAPL                                               82950021
 005AC8 07FE                        8510          BCR   UNCOND,RS1          RETURN                               82960021
 005ACA D200 D78B 5001 04523 00001  8511 MOVTXT   MVC   OU6REC+NX15(LX1),DX1(RW3)                                82970021
 005AD0                             8512 VMAPL  DS    16F                                                        82980021
                                    8513        DROP  R15                                                        82990021
1PH60     IKFCBL60                                                                                              PAGE  199
-  LOC  OBJECT CODE    ADDR1 ADDR2  STMT   SOURCE STATEMENT                                       ASM 0201 11.03 02/14/15
0                                   8515 *                                                                       83010021
                                    8516 *                                                                       83020021
                                    8517 *      GENLD  GENERATE LOAD TO REG SPECIFIED IN C6RS                    83030021
                                    8518 *             BASE LOCATOR TO BE LOADED SPECIFIED  BY I ELT IN GOTC     83040021
                                    8519 *                                                      K ELT IN RW1     83050021
                                    8520 *                                                      IN FORM 0I       83060021
                                    8521 *                                                                       83070021
                                    8522 *                                                                       83080021
                                    8523 *                                                                       83090021
                                    8524 *                                                                       83100021
 005B10                             8525        DS    0H                                                         83110021
                             05B10  8526        USING *,R15                                                      83120021
 005B10                             8527 GENLD  DS    0H                                                         83130021
 005B10 900F F0B4      05BC4        8528        STM   R0,R15,GLD010                                              83140021
 005B14 0660                        8529        BCTR  RW1,R0                SUBTRACT 1                           83150021
 005B16 8960 0002      00002        8530          SLL   RW1,DX2         LENGTH OF BL                             83160021
                                    8531 *      DETERMINE TYPE OF BL, GOTCOD CONTAINS I ADDRESSING ELT           83170021
                                    8532 *      DETERMINE BASE AND DISP FROM SAME CRITERIA AS BLELT              83180021
 005B1A 920D D2EC      04084        8533          MVI   C6B1S,XX0D      R13 TO B1 HEX SAVE                       83190021
 005B1E 9500 D308      040A0        8534          CLI   GOTCOD,XX00                                              83200021
 005B22 4780 F032      05B42        8535        BC    EQ,GLD020        BL-I                                      83210021
 005B26 9501 D308      040A0        8536          CLI   GOTCOD,XX01                                              83220021
 005B2A 4780 F03E      05B4E        8537        BC    EQ,GLD040        BLL                                       83230021
 005B2E 9504 D308      040A0        8538          CLI   GOTCOD,XX04                                              83240021
 005B32 4780 F04A      05B5A        8539        BC    EQ,GLD060        SBL-I                                     83250021
 005B36 9506 D308      040A0        8540          CLI   GOTCOD,XX06                                              83260021
 005B3A 4780 F056      05B66        8541        BC    EQ,GLD080        SBS                                       83270021
 005B3E 47F0 8A7A      02302        8542        BC    UNCOND,ERR250         ERROR- BAD INPUT                     83280021
 005B42                             8543 GLD020 DS    0H                                                         83290021
 005B42 4170 0084      00084        8544        LA    RW2,XBLIC-XSYMC                                            83300021
 005B46 4A60 920C      0020C        8545        AH    RW1,BLCTR                                                  83310021
 005B4A 47F0 F05E      05B6E        8546        BC    UNCOND,GLD090         GO CREATE SYMBOLIC OPERANDS          83320021
 005B4E                             8547 GLD040 DS    0H                                                         83330021
 005B4E 4170 0088      00088        8548        LA    RW2,XBLLC-XSYMC                                            83340021
 005B52 4A60 917E      0017E        8549        AH    RW1,BLLCTR                                                 83350021
 005B56 47F0 F05E      05B6E        8550        BC    UNCOND,GLD090         GO CREATE SYMBOLIC OPERANDS          83360021
 005B5A                             8551 GLD060 DS    0H                                                         83370021
 005B5A 4170 008C      0008C        8552        LA    RW2,XSBLC-XSYMC                                            83380021
 005B5E 4A60 917A      0017A        8553        AH    RW1,SBLCTR                                                 83390021
 005B62 47F0 F05E      05B6E        8554        BC    UNCOND,GLD090         GO CREATE SYMBOLIC OPERANDS          83400021
 005B66                             8555 GLD080 DS    0H                                                         83410021
 005B66 4170 0090      00090        8556        LA    RW2,XSBSC-XSYMC                                            83420021
 005B6A 4A60 9228      00228        8557        AH    RW1,SBSCTR                                                 83430021
 005B6E                             8558 GLD090 DS    0H                                                         83440021
                                    8559 *=L    CREATE SYMBOLIC OPERANDS                                         83450021
 005B6E 5A70 C4BC      03B4C        8560        A     RW2,AXSYMC                                                 83460021
 005B72 D203 D378 F0CC 04110 05BDC  8561        MVC   SB1D1N(4),GLD010+RW1*4                                     83470021
 005B78 D203 D374 7000 0410C 00000  8562          MVC   SB1D1C(LX4),DX0(RW2)                                     83480021
 005B7E                             8563 GLD094 DS    0H                                                         83490021
                                    8564 *=L                                                                     83500021
 005B7E 4060 D2EE      04086        8565        STH   RW1,C6D1S                                                  83510021
 005B82 4960 C068      036F8        8566        CH    RW1,H4096                                                  83520021
 005B86 4740 F0A4      05BB4        8567        BC    LO,GLD096             NO OVERFLOW CELL                     83530021
 005B8A 9640 D3D8      04170        8568        OI    GTOVFL,TSGTR                                               83540021
 005B8E D209 D2FE D2F4 04096 0408C  8569          MVC   C6INS2(LX10),C6INSV  SAVE SAVE AREAS                     83550021
1PH60     IKFCBL60                                                                                              PAGE  200
-  LOC  OBJECT CODE    ADDR1 ADDR2  STMT   SOURCE STATEMENT                                       ASM 0201 11.03 02/14/15
0005B94 D217 D3A4 D38C 0413C 04124  8570          MVC   SBDSV2(LX24),SBDSAV                                      83560021
 005B9A 9400 D3D2      0416A        8571          NI    BDNUM,BDNUM1        PROCESSING B1, D1                    83570021
 005B9E 58F0 C500      03B90        8572        L     R15,AGLDOV            GENERATE LOAD OF OVERFLOW CELL       83580021
 005BA2 05EF                        8573        BALR  RS1,R15               GO GEN LOAD                          83590021
 005BA4 58F0 C4FC      03B8C        8574        L     R15,AGENLD                                                 83600021
 005BA8 D209 D2F4 D2FE 0408C 04096  8575          MVC   C6INSV(LX10),C6INS2  RESTORE SAVE AREAS                  83610021
 005BAE D217 D38C D3A4 04124 0413C  8576          MVC   SBDSAV(LX24),SBDSV2                                      83620021
                             05BB4  8577 GLD096 EQU   *                                                          83630021
 005BB4 58F0 C464      03AF4        8578        L     R15,AS6800                                                 83640021
                             04B00  8579        USING S6800,R15                                                  83650021
 005BB8 05EF                        8580        BALR  RS1,R15               FORMAT & PRINT LINE                  83660021
 005BBA 58F0 C4FC      03B8C        8581        L     R15,AGENLD                                                 83670021
                             05B10  8582        USING GENLD,R15                                                  83680021
 005BBE 980F F0B4      05BC4        8583        LM    R0,R15,GLD010                                              83690021
 005BC2 07FE                        8584          BCR   UNCOND,RS1          RETURN                               83700021
 005BC4                             8585 GLD010 DS    16F                                                        83710021
                                    8586        DROP  R15                                                        83720021
1PH60     IKFCBL60                                                                                              PAGE  201
-  LOC  OBJECT CODE    ADDR1 ADDR2  STMT   SOURCE STATEMENT                                       ASM 0201 11.03 02/14/15
0                                   8588 *=1    GLDOV           GENERATE LOAD OF GLOBAL TABLE OVERFLOW CELL      83740021
                             05C04  8589        USING GLDOV,R15                                                  83750021
 005C04                             8590 GLDOV  DS    0H                                                         83760021
 005C04 900F F0CC      05CD0        8591        STM   R0,R15,SGLDOV                                              83770021
 005C08 D209 D2F4 D2EA 0408C 04082  8592          MVC   C6INSV(LX10),C6OP    SAVE INSTRUCTION                    83780021
 005C0E D217 D38C D374 04124 0410C  8593          MVC   SBDSAV(LX24),SB1D1C   AND SYMBOLICS                      83790021
 005C14 D217 D374 C338 0410C 039C8  8594          MVC   SB1D1C(LX24),SBDINI  INITIALIZE SYMBOLICS                83800021
 005C1A 9258 D2EA      04082        8595          MVI   C6OP,XX58            OP = L                              83810021
 005C1E 4860 D2EE      04086        8596        LH    RW1,C6D1S                                                  83820021
 005C22 91FF D3D2      0416A        8597          TM    BDNUM,BDNUM2        ARE WE DOING B2 D2                   83830021
 005C26 4780 F030      05C34        8598        BC    ZERO,R6605            USING B1 D1                          83840021
 005C2A 4860 D2F2      0408A        8599        LH    RW1,C6D2S                                                  83850021
 005C2E D200 D2EC D2F0 04084 04088  8600          MVC   C6B1S(LX1),C6B2S                                         83860021
 005C34 1B77                        8601 R6605  SR    RW2,RW2                                                    83870021
 005C36 5460 D078      03E10        8602          N     RW1,HWFS                MASK OUT HI ORDER 16 BITS  53557 83880021
 005C3A 4810 C068      036F8        8603        LH    R1,H4096          PGT TYPE                                 83890021
 005C3E 9180 D3D8      04170        8604        TM    GTOVFL,PGTR                                                83900021
 005C42 4770 F04A      05C4E        8605        BC    NOTZER,R6610          PGT REFERENCE                        83910021
 005C46 4111 0100      00100        8606          LA    R1,DX256(R1)      TGT/SGT TYPE                           83920021
 005C4A 4870 D062      03DFA        8607        LH    RW2,MAXOV                                                  83930021
 005C4E 4B60 C068      036F8        8608 R6610  SH    RW1,H4096                                                  83940021
 005C52 4111 0001      00001        8609          LA    R1,DX1(R1)                                               83950021
 005C56 4960 C068      036F8        8610        CH    RW1,H4096                                                  83960021
 005C5A 4740 F062      05C66        8611        BC    LO,R6615              NO OVERFLOW CELL                     83970021
 005C5E 4177 0004      00004        8612          LA    RW2,DX4(RW2)                                             83980021
 005C62 47F0 F04A      05C4E        8613          BC    UNCOND,R6610        LOOP TO GET LESS THAN 4096           83990021
 005C66 4070 D2EE      04086        8614 R6615  STH   RW2,C6D1S             DISP OF OVERFLOW CELL                84000021
 005C6A 4010 D294      0402C        8615        STH   R1,BLELT          FOR 'SRCHR' SUBROUTINE                   84010021
 005C6E 58F0 C504      03B94        8616        L     R15,ASRCHR                                                 84020021
 005C72 05EF                        8617        BALR  RS1,R15                 GET REHISTER                       84030021
 005C74 58F0 C500      03B90        8618        L     R15,AGLDOV                                                 84040021
 005C78 9500 D3D7      0416F        8619          CLI   LOADSW,INITOFF      DON'T NEED TO GEN LOAD               84050021
 005C7C 4780 F08E      05C92        8620        BC    EQ,R6645         ALREADY LOADED                            84060021
 005C80 9400 D3D7      0416F        8621          NI    LOADSW,INITOFF      DO NOT GEN LOAD                      84070021
 005C84 4250 D2EB      04083        8622        STC   RW3,C6RS                                                   84080021
                                    8623 *  CREATE SYMBOLIC OPERANDS                                             84090021
                                    8624 *  END SYMBOLICS                                                        84100021
 005C88 58F0 C464      03AF4        8625        L     R15,AS6800                                                 84110021
 005C8C 05EF                        8626        BALR  RS1,R15                 GENERATE INSTRUCTION               84120021
 005C8E 58F0 C500      03B90        8627        L     R15,AGLDOV                                                 84130021
                                    8628 * RESTORE OLD INSTRUCTION WITH NEW BASE + DISPLACEMENT                  84140021
 005C92 D209 D2EA D2F4 04082 0408C  8629 R6645    MVC   C6OP(LX10),C6INSV                                        84150021
 005C98 D209 D2EA D2F4 04082 0408C  8630          MVC   C6OP(LX10),C6INSV                                        84160021
 005C9E D217 D374 D38C 0410C 04124  8631          MVC   SB1D1C(LX24),SBDSAV                                      84170021
 005CA4 91FF D3D2      0416A        8632          TM    BDNUM,BDNUM2        ARE WE DOING B2 D2                   84180021
 005CA8 4710 F0B8      05CBC        8633        BC    ONES,R6655            USING B2 D2                          84190021
 005CAC 4060 D2EE      04086        8634        STH   RW1,C6D1S                                                  84200021
 005CB0 8850 0004      00004        8635          SRL   RW3,DX4                                                  84210021
 005CB4 4250 D2EC      04084        8636        STC   RW3,C6B1S                                                  84220021
 005CB8 47F0 F0C4      05CC8        8637          BC    UNCOND,R6660        SKIP B2,D2 CODE                      84230021
 005CBC 4060 D2F2      0408A        8638 R6655  STH   RW1,C6D2S                                                  84240021
 005CC0 8850 0004      00004        8639          SRL   RW3,DX4                                                  84250021
 005CC4 4250 D2F0      04088        8640        STC   RW3,C6B2S                                                  84260021
 005CC8 980F F0CC      05CD0        8641 R6660  LM    R0,R15,SGLDOV                                              84270021
 005CCC 07FE                        8642          BCR   UNCOND,RS1          RETURN                               84280021
1PH60     IKFCBL60                                                                                              PAGE  202
-  LOC  OBJECT CODE    ADDR1 ADDR2  STMT   SOURCE STATEMENT                                       ASM 0201 11.03 02/14/15
0                                   8643 *                                                                       84290021
 005CD0                             8644 SGLDOV DS    16F                                                        84300021
                                    8645        DROP  R15                                                        84310021
1PH60     IKFCBL60                                                                                              PAGE  203
-  LOC  OBJECT CODE    ADDR1 ADDR2  STMT   SOURCE STATEMENT                                       ASM 0201 11.03 02/14/15
0                                   8647 *                                                                       84330021
                                    8648 *      SRCHR  SEARCH FOR A REGISTER ALREADY LOADED WITH A DESIRED       84340021
                                    8649 *             BASE LOCATOR (I,K THEREOF IN BLELT, BLELT+1)              84350021
                                    8650 *             OTHERWISE FIND AN AVAILABLE ONE                           84360021
                                    8651 *    I = X'10' FOR PGT OVERFLOW CELL                                    84370021
                                    8652 *    I = X'11' FOR TGT/SGT OVERFLOW CELL                                84380021
                                    8653 *             EXIT WITH LOW BYTE OF RW3 =  R0                           84390021
                                    8654 *             OR = ZERO IF ONLY SEARCH SPECIFIED AND NONE FOUND         84400021
                                    8655 *                                                                 01041 84410021
                                    8656 *         LOADSW = FF      NEED TO GENERATE LOAD OF REG           01041 84420021
                                    8657 *               = 00      NO SUCH NEED                            01041 84430021
                                    8658 *         NOLOAD = 00  NORMAL ENTRY - FIND MATCH OR AVAILABLE REGISTER  84440021
                                    8659 *              = FF     ENTER TO SEARCH ONLY FOR MATCH            01041 84450021
                                    8660 *                                                                 01041 84460021
 005D10                             8661        DS    0H                                                         84470021
                             05D10  8662        USING *,R15                                                      84480021
 005D10                             8663 SRCHR  DS    0H                                                         84490021
 005D10 9054 F0F4      05E04        8664        STM   RW3,RW3M1,SRC010                                           84500021
 005D14 5850 D2A0      04038        8665        L     RW3,FAVAIL                                                 84510021
 005D18 D501 5002 D294 00002 0402C  8666 SRC040   CLC   DX2(LX2,RW3),BLELT                                       84520021
 005D1E 4780 F022      05D32        8667        BC    EQ,SRC020             SET TO DESIRED ONE                   84530021
 005D22 9180 5000      00000        8668          TM    DX0(RW3),LAVAIL                                          84540021
 005D26 4710 F03C      05D4C        8669        BC    ONES,SRC030           NO PERMANENT SET                     84550021
 005D2A 4155 0004      00004        8670          LA    RW3,DX4(RW3)         TRY ANOTHER                         84560021
 005D2E 47F0 F008      05D18        8671        BC    UNCOND,SRC040         LOOP TO CHECK                        84570021
 005D32 5B50 D2A0      04038        8672 SRC020 S     RW3,FAVAIL                                                 84580021
 005D36 8850 0002      00002        8673          SRL   RW3,DX2                                                  84590021
 005D3A 4155 0006      00006        8674          LA    RW3,DX6(RW3)         GET REG NUM                         84600021
 005D3E 8950 0004      00004        8675 SRCXIT   SLL   RW3,DX4              POSITION TO PROPER HEX DIGIT        84610021
 005D42 9400 D3D6      0416E        8676          NI    NOLOAD,INITOFF      NOT ONLY SEARCH                      84620021
 005D46 9864 F0F8      05E08        8677          LM    RW3P1,RW3M1,SRC010+NX4                                   84630021
 005D4A 07FE                        8678          BCR   UNCOND,RS1          RETURN                               84640021
 005D4C D501 D28E D294 04026 0402C  8679 SRC030   CLC   CELL14(LX2),BLELT    SEE IF A NON-PERM REG SET UP        84650021
 005D52 4780 F0CA      05DDA        8680        BC    EQ,SRC050             YES-USE IT                           84660021
 005D56 D501 D292 D294 0402A 0402C  8681          CLC   CELL15(LX2),BLELT                                        84670021
 005D5C 4780 F092      05DA2        8682        BC    EQ,SRC065             YES-USE IT                           84680021
                                    8683 *      IF ENTERED ON SEARCH ONLY, DO NOT SET LOAD SWITCH,               84690021
                                    8684 *      EXIT IF NOT FOUND                                                84700021
 005D60 9500 D3D6      0416E        8685          CLI   NOLOAD,INITOFF      SEARCH ONLY                          84710021
 005D64 4780 F066      05D76        8686        BC    EQ,SRC090             NOT JUST SEARCH                      84720021
 005D68 9400 D3D6      0416E        8687          NI    NOLOAD,INITOFF           SEARCH ONLY               01041 84730021
 005D6C 9400 D3D7      0416F        8688          NI    LOADSW,INITOFF      DON'T NEED TO GEN LOAD INSTR         84740021
 005D70 1B55                        8689        SR    RW3,RW3                                                    84750021
 005D72 47F0 F02E      05D3E        8690        BC    UNCOND,SRCXIT         GO TO RETURN                         84760021
 005D76                             8691 SRC090 DS    0H                                                         84770021
 005D76 9103 D28C      04024        8692        TM    STAT14,AVL56     NO-IS ONE AVAILABLE                       84780021
 005D7A 4780 F09E      05DAE        8693          BZ    SRC070         YES-USE 14-IT NEEDS TO BE LOADED    01041 84790021
 005D7E                             8694 SRC092 DS    0H                                                         84800021
 005D7E                             8695 SRC094 DS    0H                                                         84810021
 005D7E 94EF D290      04028        8696        NI    STAT15,PGTOFF                                              84820021
 005D82 9602 D290      04028        8697          OI    STAT15,AVAIL6  USE 15 BUT IT NEEDS TO BE LOADED    01041 84830021
 005D86 96FF D3D7      0416F        8698          OI    LOADSW,GENLOAD      NEED TO GENERATE LOAD INSTR          84840021
 005D8A                             8699 SRC060   DS    0H                                                 01041 84850021
 005D8A 9506 D294      0402C        8700          CLI   BLELT,XX06                                         01041 84860021
 005D8E 4770 F08C      05D9C        8701          BNE   SRC061                  NOT SBS                    01041 84870021
1PH60     IKFCBL60                                                                                              PAGE  204
-  LOC  OBJECT CODE    ADDR1 ADDR2  STMT   SOURCE STATEMENT                                       ASM 0201 11.03 02/14/15
0005D92 D701 D292 D292 0402A 0402A  8702          XC    CELL15(LX2),CELL15      CLEAR CELL15               01041 84880021
 005D98 47F0 F092      05DA2        8703          B     SRC065                                             01041 84890021
 005D9C                             8704 SRC061   DS    0H                                                 01041 84900021
 005D9C D201 D292 D294 0402A 0402C  8705          MVC   CELL15(LX2),BLELT        SET UP TO USE 15          01041 84910021
 005DA2                             8706 SRC065   DS    0H                                                 01041 84920021
 005DA2 4150 000F      0000F        8707          LA    RW3,DX15                                           01041 84930021
 005DA6 9602 D290      04028        8708          OI    STAT15,AVAIL6                                      01041 84940021
 005DAA 47F0 F02E      05D3E        8709          B     SRCXIT                   GO TO EXIT                01041 84950021
 005DAE                             8710 SRC070 DS    0H                                                         84960021
 005DAE 9110 D28C      04024        8711        TM    STAT14,PGTOVF                                              84970021
 005DB2 4710 F0D6      05DE6        8712        BC    ONES,SRC100           YES, PGT OVFL                        84980021
 005DB6                             8713 SRC072 DS    0H                                                         84990021
 005DB6 94EF D28C      04024        8714        NI    STAT14,PGTOFF                                              85000021
 005DBA 9602 D28C      04024        8715        OI    STAT14,AVAIL6                                              85010021
                                    8716 *        CHECK FOR SUBSCRIPT CELL                                 01041 85020021
 005DBE 9506 D294      0402C        8717          CLI   BLELT,XX06                                         01041 85030021
 005DC2 4770 F0C0      05DD0        8718          BNE   SRC075                   NOT SBS                   01041 85040021
 005DC6 D701 D28E D28E 04026 04026  8719          XC    CELL14(LX2),CELL14      CLEAR CELL14               01041 85050021
 005DCC 47F0 F0C6      05DD6        8720          B     SRC080                  GO TO TURN ON LOADSW       01041 85060021
 005DD0                             8721 SRC075   DS    0H                                                 01041 85070021
 005DD0 D201 D28E D294 04026 0402C  8722          MVC   CELL14(LX2),BLELT                                        85080021
 005DD6                             8723 SRC080   DS    0H                                                 01041 85090021
 005DD6 96FF D3D7      0416F        8724          OI    LOADSW,GENLOAD      NEED TO GENERATE LOAD INSTR          85100021
 005DDA                             8725 SRC050 DS    0H                                                         85110021
 005DDA 4150 000E      0000E        8726          LA    RW3,REG14                                                85120021
 005DDE 9602 D28C      04024        8727        OI    STAT14,AVAIL6                                              85130021
 005DE2 47F0 F02E      05D3E        8728        BC    UNCOND,SRCXIT         GO TO RETURN                         85140021
                                    8729 *DEL                                                                    85150021
                                    8730 *DEL                                                                    85160021
                                    8731 *DEL                                                                    85170021
                                    8732 *DEL                                                                    85180021
                                    8733 *DEL                                                                    85190021
 005DE6                             8734 SRC100 DS    0H                                                         85200021
 005DE6 9103 D290      04028        8735        TM    STAT15,AVL56                                               85210021
 005DEA 4710 F0A6      05DB6        8736        BC    ONES,SRC072           YES AVAILABLE                        85220021
 005DEE 9110 D290      04028        8737        TM    STAT15,PGTOVF                                              85230021
 005DF2 4710 F0A6      05DB6        8738        BC    ONES,SRC072           YES PGT OVERFLOW                     85240021
 005DF6 47F0 F06E      05D7E        8739        BC    UNCOND,SRC094         NO, GO USE IT                        85250021
 005DFA 96FF D3D6      0416E        8740 SRCHG    OI    NOLOAD,SRCHNOLD     ONLY DO SEARCH, DON'T LOAD           85260021
 005DFE 47F0 F000      05D10        8741        BC    UNCOND,SRCHR          GO DO SEARCH ONLY                    85270021
 005E04                             8742 SRC010 DS    16F                                                        85280021
                                    8743        DROP  R15                                                        85290021
1PH60     IKFCBL60                                                                                              PAGE  205
-  LOC  OBJECT CODE    ADDR1 ADDR2  STMT   SOURCE STATEMENT                                       ASM 0201 11.03 02/14/15
0                                   8745 *      INITR  GENERATE LOADS OF ALL PERMANENTLY ASSIGNED REGISTERS      85310021
                             05E44  8746        USING INITR,R15                                                  85320021
 005E44                             8747 INITR  DS    0H                                                         85330021
 005E44 900F F06C      05EB0        8748        STM   R0,R15,INR010                                              85340021
 005E48 9101 D119      03EB1        8749          TM    NOBLS,NOBLSON       ARE THERE ANY BL'S                   85350021
 005E4C 4780 F064      05EA8        8750        BC    ZERO,INRXIT           THERE ARE NO BLS                     85360021
 005E50 5850 D2A0      04038        8751        L     RW3,FAVAIL                                                 85370021
 005E54 1875                        8752 INR020 LR    RW2,RW3                                                    85380021
                                    8753 *      CALCULATE REGISTER TO BE LOADED                                  85390021
 005E56 5B50 D2A0      04038        8754        S     RW3,FAVAIL                                                 85400021
 005E5A 8850 0002      00002        8755          SRL   RW3,DX2                                                  85410021
 005E5E 4155 0006      00006        8756          LA    RW3,DX6(RW3)                                             85420021
 005E62 8950 0004      00004        8757          SLL   RW3,DX4                                                  85430021
 005E66 4250 D2EB      04083        8758        STC   RW3,C6RS                                                   85440021
 005E6A 9258 D2EA      04082        8759          MVI   C6OP,XX58                                                85450021
 005E6E D200 D308 7002 040A0 00002  8760          MVC   GOTCOD(LX1),DX2(RW2) SET UP LOAD RTNE PARAMETERS FROM    85460021
                                    8761 *                                  REG ASSIGNMENT MATRIX                85470021
 005E74 D501 7002 C058 00002 036E8  8762          CLC   DX2(LX2,RW2),C6F0                                        85480021
 005E7A 4780 F04A      05E8E        8763        BC    EQ,INR040             YES                                  85490021
 005E7E 1B66                        8764        SR    RW1,RW1                                                    85500021
 005E80 4367 0003      00003        8765          IC    RW1,DX3(RW2)                                             85510021
 005E84 58F0 C4FC      03B8C        8766        L     R15,AGENLD             GENERATE LOAD                       85520021
 005E88 05EF                        8767        BALR  RS1,R15               GO GEN LOAD                          85530021
 005E8A 58F0 C508      03B98        8768        L     R15,AINITR                                                 85540021
 005E8E                             8769 INR040 DS    0H                                                         85550021
 005E8E 9120 7000      00000        8770          TM    DX0(RW2),LASIGN                                          85560021
 005E92 4710 F064      05EA8        8771        BC    ONES,INRXIT           YES, GO RETURN                       85570021
 005E96 9180 7000      00000        8772          TM    DX0(RW2),LAVAIL      LAST TO BE DONE                     85580021
 005E9A 4710 F064      05EA8        8773        BC    ONES,INRXIT           YES                                  85590021
 005E9E 1857                        8774        LR    RW3,RW2                                                    85600021
 005EA0 4155 0004      00004        8775          LA    RW3,DX4(RW3)                                             85610021
 005EA4 47F0 F010      05E54        8776        BC    UNCOND,INR020         GO CALC REG TO BE LOADED             85620021
 005EA8                             8777 INRXIT DS    0H                                                         85630021
 005EA8 980F F06C      05EB0        8778        LM    R0,R15,INR010                                              85640021
 005EAC 07FE                        8779          BCR   UNCOND,RS1          RETURN                               85650021
 005EB0                             8780 INR010 DS    16F                                                        85660021
                                    8781        DROP  R15                                                        85670021
1PH60     IKFCBL60                                                                                              PAGE  206
-  LOC  OBJECT CODE    ADDR1 ADDR2  STMT   SOURCE STATEMENT                                       ASM 0201 11.03 02/14/15
0                                   8783 *      USING  SET UP REGISTER ASSIGNMENTS FOR SECTION OF                85690021
                                    8784 *             PROGRAM STORED IN RPDNUM                                  85700021
                                    8785 *                                                                       85710021
                             05EF0  8786        USING USING,R15                                                  85720021
 005EF0 900F F1B8      060A8        8787 USING  STM   R0,R15,USI010                                              85730021
 005EF4 D71F D274 D274 0400C 0400C  8788        XC    REGMTX,REGMTX    CLEAR REGISTER ASSIGNMENT MATRIX          85740021
 005EFA 9200 D119      03EB1        8789          MVI   NOBLS,NOBLSOFF      THERE ARE NO BL'S                    85750021
0
                                    8791 *      PRIORITY FOR INLINE CODING                                       85770021
                                    8792 *      BL= FOR WORKING-STORAGE                                          85780021
                                    8793 *      OTHER BL=                                                        85790021
                                    8794 *      BLS=                                                             85800021
                                    8795 *   REGS 6-11 ARE FOR PERMANENT ASSIGNMENT                         STAN 85810021
 005EFE 9680 D288      04020        8796 USI017 OI    STAT11,LAVAIL    SET R11 AS LAST PERM ASSIGN IF NO RPD     85820021
 005F02 D201 D296 C076 0402E 03706  8797          MVC   NUMAVL(LX2),C6H6                                         85830021
 005F08 4160 D274      0400C        8798 USI018 LA    RW1,STAT06      SET R6 AS FIRST (AND NEXT) REG AVAILPD     85840021
 005F0C 5060 D2A0      04038        8799        ST    RW1,FAVAIL                                                 85850021
 005F10 5060 D2A4      0403C        8800        ST    RW1,NXTAVL                                                 85860021
0
 005F14 9200 D294      0402C        8802        MVI   BLELT,IBLELT          SET UP I,K FOR REG ASSIGNMENT OF     85880021
 005F18 D200 D295 D299 0402D 04031  8803          MVC   BLELT+NX1(LX1),FRSBLW+NX1 BL= TYPE                       85890021
 005F1E 4860 D29C      04034        8804        LH    RW1,NUMBLW                                                 85900021
 005F22 1266                        8805        LTR   RW1,RW1                                                    85910021
 005F24 4780 F0D4      05FC4        8806        BC    ZERO,USI300      NO BL FOR W-S                             85920021
 005F28 4160 0001      00001        8807          LA    RW1,DX1             ASSIGN 1 REG TO WS                   85930021
 005F2C 4960 D296      0402E        8808        CH    RW1,NUMAVL                                                 85940021
 005F30 47B0 F0B8      05FA8        8809        BC    NOTLO,USI100          GO ASSIGN LAST REMAINING REG         85950021
 005F34 45E0 F0F2      05FE2        8810        BAL   RS1,ASSIGN       ASSIGN W-S BL'S                           85960021
0
 005F38 4860 91D4      001D4        8812          LH    RW1,DECBCT                                               85980021
 005F3C 4B60 920C      0020C        8813        SH    RW1,BLCTR                                                  85990021
 005F40 8860 0002      00002        8814          SRL   RW1,DX2         NUMBER OF BL= INLINE                     86000021
 005F44 4060 D29A      04032        8815        STH   RW1,NUMBLT                                                 86010021
 005F48 4660 F060      05F50        8816        BCT   RW1,USI019           ONLY 1 BL IT IS FOR WS                86020021
 005F4C 47F0 F0C0      05FB0        8817        BC    UNCOND,USIXIT         GO RETURN                            86030021
 005F50                             8818 USI019 DS    0H                                                         86040021
0
 005F50 4870 D29C      04034        8820        LH    RW2,NUMBLW                                                 86060021
 005F54 9501 D299      04031        8821          CLI   FRSBLW+NX1,XX01                                          86070021
 005F58 4780 F090      05F80        8822        BC    EQ,USI020        BL= FOR W-S IS FIRST BL=                  86080021
0
                                    8824 *      THERE ARE BL='S WHICH PRECEDE BL='S FOR W-S                      86100021
 005F5C 4860 D298      04030        8825        LH    RW1,FRSBLW                                                 86110021
 005F60 0660                        8826        BCTR  RW1,R0                SUBTRACT 1                           86120021
 005F62 1A76                        8827        AR    RW2,RW1                                                    86130021
 005F64 9201 D295      0402D        8828          MVI   BLELT+NX1,XX01                                           86140021
 005F68 4960 D296      0402E        8829        CH    RW1,NUMAVL                                                 86150021
 005F6C 47B0 F0B8      05FA8        8830        BC    NOTLO,USI100          GO ASSIGN LAST AVAIL REG             86160021
 005F70 45E0 F0F2      05FE2        8831        BAL   RS1,ASSIGN       ASSIGN OTHER BL='S PRECEDING THOSE        86170021
                                    8832 *                             FOR W-S                                   86180021
1PH60     IKFCBL60                                                                                              PAGE  207
-  LOC  OBJECT CODE    ADDR1 ADDR2  STMT   SOURCE STATEMENT                                       ASM 0201 11.03 02/14/15
0                                   8834 *      SEE IF ANY BL AFTER FIRST BL FOR WS                              86200021
 005F74 4870 D298      04030        8835        LH    RW2,FRSBLW                                                 86210021
 005F78 4970 D29A      04032        8836        CH    RW2,NUMBLT                                                 86220021
 005F7C 4780 F0C0      05FB0        8837        BC    EQ,USIXIT             GO RETURN                            86230021
0
 005F80                             8839 USI020 DS    0H                                                         86250021
 005F80 4870 D298      04030        8840        LH    RW2,FRSBLW                                                 86260021
 005F84 4177 0001      00001        8841          LA    RW2,DX1(RW2)                                             86270021
 005F88 4270 D295      0402D        8842          STC   RW2,BLELT+NX1   K OF FIRST BL= FOLLOWING W-S BL='S       86280021
 005F8C 0670                        8843        BCTR  RW2,R0                SUBTRACT 1                           86290021
 005F8E 4860 D29A      04032        8844        LH    RW1,NUMBLT                                                 86300021
 005F92 1B67                        8845        SR    RW1,RW2                                                    86310021
 005F94 4780 F0C0      05FB0        8846        BC    ZERO,USIXIT           GO RETURN                            86320021
 005F98                             8847 USI320 DS    0H                                                         86330021
 005F98 4960 D296      0402E        8848        CH    RW1,NUMAVL                                                 86340021
 005F9C 47B0 F0B8      05FA8        8849        BC    NOTLO,USI100          GO ASSIGN LAST AVAIL REG             86350021
 005FA0 45E0 F0F2      05FE2        8850        BAL   RS1,ASSIGN       ASSIGN BL='S FOLLOWING THOSE FOR W-S      86360021
 005FA4 47F0 F0C0      05FB0        8851          BC    UNCOND,USIXIT       GO SET UP ASSIGNMENT INDICATION      86370021
0
                                    8853 *      ASSIGN LAST REMAINING REGISTERS                                  86390021
 005FA8                             8854 USI100 DS    0H                                                         86400021
 005FA8 4860 D296      0402E        8855        LH    RW1,NUMAVL                                                 86410021
 005FAC 45E0 F0F2      05FE2        8856 USI120 BAL   RS1,ASSIGN            GO TO ASSIGN RTN                     86420021
 005FB0                             8857 USIXIT DS    0H                                                         86430021
 005FB0 5860 D2A4      0403C        8858        L     RW1,NXTAVL                                                 86440021
 005FB4 4170 0004      00004        8859          LA    RW2,DX4                                                  86450021
 005FB8 1B67                        8860        SR    RW1,RW2                                                    86460021
 005FBA 9620 6000      00000        8861          OI    DX0(RW1),LASIGN SET UP INDICATION OF LAST ASSIGNED       86470021
0
 005FBE                             8863 USIZIT DS    0H                                                         86490021
 005FBE 980F F1B8      060A8        8864        LM    R0,R15,USI010                                              86500021
 005FC2 07FE                        8865          BCR   UNCOND,RS1          RETURN                               86510021
 005FC4                             8866 USI300 DS    0H                                                         86520021
 005FC4 9201 D295      0402D        8867          MVI   BLELT+NX1,XX01                                           86530021
 005FC8 4860 91D4      001D4        8868          LH    RW1,DECBCT                                               86540021
 005FCC 4B60 920C      0020C        8869          SH    RW1,BLCTR                                                86550021
 005FD0 8860 0002      00002        8870          SRL   RW1,DX2                                                  86560021
 005FD4 4060 D29A      04032        8871          STH   RW1,NUMBLT          CALC TOTAL NUM BASE LOCATORS         86570021
 005FD8 1266                        8872        LTR   RW1,RW1                                                    86580021
 005FDA 4780 F0CE      05FBE        8873        BC    ZERO,USIZIT           GO RETURN                            86590021
 005FDE 47F0 F0A8      05F98        8874          BC    UNCOND,USI320       GO COMPARE                           86600021
1PH60     IKFCBL60                                                                                              PAGE  208
-  LOC  OBJECT CODE    ADDR1 ADDR2  STMT   SOURCE STATEMENT                                       ASM 0201 11.03 02/14/15
0                                   8876 *                                                                       86620021
                                    8877 *      ASSIGN SUBROUTINE                                                86630021
                                    8878 *             BAL   RS1,ASSIGN                                          86640021
                                    8879 *             RW1 CONTAINS NUMBER REGS TO BE ASSIGNED                   86650021
                                    8880 *                                                                       86660021
 005FE2                             8881 ASSIGN DS    0H                                                         86670021
 005FE2 9201 D119      03EB1        8882          MVI   NOBLS,NOBLSON       THERE ARE BL'S                       86680021
 005FE6 9065 F178      06068        8883        STM   RW1,RW1M1,ASG010                                           86690021
 005FEA 5060 F178      06068        8884 ASG020 ST    RW1,ASG010                                                 86700021
 005FEE 5860 D2A4      0403C        8885        L     RW1,NXTAVL                                                 86710021
 005FF2 4856 0002      00002        8886 ASG025   LH    RW3,DX2(RW1)    CELL OF NEXT AVAILREG                    86720021
 005FF6 1255                        8887        LTR   RW3,RW3                                                    86730021
 005FF8 4770 F15C      0604C        8888        BC    NOTZER,ASG030         THERE IS A REG                       86740021
 005FFC 9103 6000      00000        8889          TM    DX0(RW1),AVL56                                           86750021
 006000 4770 F15C      0604C        8890        BC    NOTZER,ASG030         RW1 HAS A REG AVAIL                  86760021
 006004 D201 6002 D294 00002 0402C  8891          MVC   DX2(LX2,RW1),BLELT    SET UP I,K OF AVAILABLE REG        86770021
 00600A 9180 6000      00000        8892          TM    DX0(RW1),LAVAIL                                          86780021
 00600E 4166 0004      00004        8893          LA    RW1,DX4(RW1)                                             86790021
 006012 5060 D2A4      0403C        8894        ST    RW1,NXTAVL                                                 86800021
 006016 4710 F132      06022        8895        BC    ONES,ASG040           LAST REG AVAIL                       86810021
0
 00601A 4870 D296      0402E        8897        LH    RW2,NUMAVL                                                 86830021
 00601E 4670 F13C      0602C        8898        BCT   RW2,ASG050            DECR NUM AVAIL REGS                  86840021
 006022                             8899 ASG040 DS    0H                                                         86850021
 006022 1B66                        8900 ASG045 SR    RW1,RW1                                                    86860021
 006024 4060 D296      0402E        8901        STH   RW1,NUMAVL                                                 86870021
 006028 47F0 F0C0      05FB0        8902        BC    UNCOND,USIXIT         GO EXIT                              86880021
 00602C 4070 D296      0402E        8903 ASG050 STH   RW2,NUMAVL                                                 86890021
 006030 1B77                        8904        SR    RW2,RW2                                                    86900021
 006032 4370 D295      0402D        8905          IC    RW2,BLELT+NX1        K OF BL JUST ASSIGNED               86910021
 006036 4177 0001      00001        8906          LA    RW2,DX1(RW2)                                             86920021
 00603A 4270 D295      0402D        8907          STC   RW2,BLELT+NX1                                            86930021
 00603E 5860 F178      06068        8908        L     RW1,ASG010                                                 86940021
 006042 4660 F0FA      05FEA        8909        BCT   RW1,ASG020            BR TO ASG020                         86950021
 006046 9865 F178      06068        8910        LM    RW1,RW1M1,ASG010                                           86960021
 00604A 07FE                        8911          BCR   UNCOND,RS1          RETURN                               86970021
 00604C 9180 6000      00000        8912 ASG030   TM    DX0(RW1),LAVAIL                                          86980021
 006050 4166 0004      00004        8913          LA    RW1,DX4(RW1)                                             86990021
 006054 4870 D296      0402E        8914        LH    RW2,NUMAVL                                                 87000021
 006058 0670                        8915        BCTR  RW2,R0                SUBTRACT 1                           87010021
 00605A 4070 D296      0402E        8916        STH   RW2,NUMAVL                                                 87020021
 00605E 47E0 F102      05FF2        8917        BC    NOTONE,ASG025         NUMAVAIL-1 NOT 1                     87030021
 006062 47F0 F132      06022        8918        BC    UNCOND,ASG045         OTHERWISE LOOP                       87040021
 006068                             8919 ASG010   DS    16F                 SAVE AREA                            87050021
 0060A8                             8920 USI010 DS    16F                                                        87060021
                                    8921        DROP  R15                                                        87070021
1PH60     IKFCBL60                                                                                              PAGE  209
-  LOC  OBJECT CODE    ADDR1 ADDR2  STMT   SOURCE STATEMENT                                       ASM 0201 11.03 02/14/15
0                                   8923 *      CODLUP                                                           87090021
                                    8924 *           -GENERATE CODING IN CODATX AS MANY TIMES AS NECESSARY,      87100021
                                    8925 *            ALLOWING A LENGTH FIELD OF 256 BYTES MAX                   87110021
                                    8926 *           -RW3 CONTAINS TOTAL NUMBER OF BYTES TO BE ACTED UPON        87120021
                                    8927 *           -RS1 CONTAINS RETURN ADDR                                   87130021
                                    8928 *           -RW2 POINTS TO A-TEXT                                       87140021
 0060E8                             8929        DS    0H                                                         87150021
                             060E8  8930        USING *,R15                                                      87160021
 0060E8                             8931 CODLUP DS    0H                                                         87170021
 0060E8 900F F078      06160        8932        STM   R0,R15,CDL010                                              87180021
 0060EC 1B77                        8933        SR    RW2,RW2                                                    87190021
 0060EE 4050 D172      03F0A        8934 CDL020 STH   RW3,SAVLNG                                                 87200021
 0060F2 5070 D16C      03F04        8935        ST    RW2,P6PLUS                                                 87210021
 0060F6 4160 0100      00100        8936          LA    RW1,DX256                                                87220021
 0060FA 1956                        8937        CR    RW3,RW1                                                    87230021
 0060FC 47D0 F01A      06102        8938        BC    NOTHI,CDL040          SAVLNG LT OR EQ 256                  87240021
 006100 1856                        8939        LR    RW3,RW1                                                    87250021
 006102 5870 F094      0617C        8940 CDL040 L     RW2,CDL010+4*RW2                                           87260021
 006106 0650                        8941        BCTR  RW3,R0                SUBTRACT 1                           87270021
 006108 4050 D170      03F08        8942        STH   RW3,P6LNG                                                  87280021
 00610C 4560 825A      01AE2        8943        BAL   RW1,SU6010            COMMON ASSEM CODING                  87290021
 006110 58F0 C4F4      03B84        8944        L     R15,ACODLU                                                 87300021
 006114 4850 D172      03F0A        8945        LH    RW3,SAVLNG                                                 87310021
 006118 4170 0100      00100        8946          LA    RW2,DX256                                                87320021
 00611C 1957                        8947        CR    RW3,RW2                                                    87330021
 00611E 47D0 F070      06158        8948        BC    NOTHI,CDLXIT          GO EXIT                              87340021
 006122 1B57                        8949        SR    RW3,RW2                                                    87350021
 006124 5A70 D16C      03F04        8950        A     RW2,P6PLUS                                                 87360021
 006128 95FF D133      03ECB        8951          CLI   VNOVFL,ALLON         IS INIT3 BEING PROCESSED            87370021
 00612C 4770 F06C      06154        8952          BC    NOTEQ,CDL50         NO, DON'T ALTER VNATX                87380021
 006130 D201 D314 C365 040AC 039F5  8953          MVC   C6WRK0(LX2),VNATX+NX6 YES,GET VN NO. FROM VNATX       21 87390021
 006136 4100 0040      00040        8954          LA    R0,DX64              64 IS NO. OF VNS IN 256 BYTES   217 87400021
 00613A 4A00 D314      040AC        8955        AH    R0,C6WRK0             BUMP VN NO.                     2179 87410021
 00613E 4000 D314      040AC        8956        STH   R0,C6WRK0             SAVE                            2179 87420021
 006142 D201 C365 D314 039F5 040AC  8957          MVC   VNATX+NX6(LX2),C6WRK0                                217 87430021
 006148 D201 C369 D314 039F9 040AC  8958          MVC   VNATX+NX10(LX2),C6WRK0                               217 87440021
 00614E D201 D134 D314 03ECC 040AC  8959          MVC   INITVN(LX2),C6WRK0    INCREMENT COUNT OF VN'S            87450021
                             06154  8960 CDL50  EQU   *                                                     2179 87460021
 006154 47F0 F006      060EE        8961        BC    UNCOND,CDL020         LOOP                                 87470021
 006158 980F F078      06160        8962 CDLXIT LM    R0,R15,CDL010                                              87480021
 00615C 07FE                        8963          BCR   UNCOND,RS1          RETURN                               87490021
 006160                             8964 CDL010 DS    16F                                                        87500021
                                    8965        DROP  R15                                                        87510021
1PH60     IKFCBL60                                                                                              PAGE  210
-  LOC  OBJECT CODE    ADDR1 ADDR2  STMT   SOURCE STATEMENT                                       ASM 0201 11.03 02/14/15
0                                   8967 *        ROUTINE TO PRINT STATISTICS FOR THE SYSTEM                     87530021
 0061A0                             8968          DS    0H                                                       87540021
                             061A0  8969          USING *,R15                                                    87550021
                             061A0  8970 PRSTAT   EQU   *                                                        87560021
 0061A0 50E0 C514      03BA4        8971          ST    RS1,STATSAV         SAVE RETURN REGISTER                 87570021
 0061A4 9240 D77C      04514        8972          MVI   OU6REC,BLANK        CLEAR PRINT AREA                     87580021
 0061A8 D276 D77D D77C 04515 04514  8973          MVC   OU6CDN(LX119),OU6REC                                     87590021
 0061AE D20B D77C C1B0 04514 03840  8974          MVC   PMSG1,SMSG1         *STATISTICS*                         87600021
 0061B4 D20F D78D C1BC 04525 0384C  8975          MVC   PMSG2,SMSG2         SOURCE RCDS                          87610021
 0061BA D203 D7A8 C1DF 04540 0386F  8976          MVC   PMSG4,SMSG4         DATA                                 87620021
 0061C0 D214 D7AD C1ED 04545 0387D  8977          MVC   PMSG6,SMSG6         DIV STATE.                           87630021
 0061C6 D21E D7CD C1E3 04565 03873  8978          MVC   PMSG5,SMSG5         PROC DIV STATE.                      87640021
 0061CC D205 D79D C325 04535 039B5  8979          MVC   PMSG2N,EDWD1                                             87650021
 0061D2 DE05 D79D 9195 04535 00195  8980          ED    PMSG2N,DATE+NX9      NO. SOURCE STATEMENTS               87660021
 0061D8 D205 D7C2 C325 0455A 039B5  8981          MVC   PMSG4N,EDWD1                                             87670021
 0061DE DE05 D7C2 918D 0455A 0018D  8982          ED    PMSG4N,DATE+NX1      NO. DATA DIV. STATEMENTS            87680021
 0061E4 D205 D7EC C325 04584 039B5  8983          MVC   PMSG5N,EDWD1                                             87690021
 0061EA DE05 D7EC 9191 04584 00191  8984          ED    PMSG5N,DATE+NX5      NO. PROC. DIV. STATEMENTS           87700021
 0061F0 58F0 C460      03AF0        8985          L     R15,APUT                                                 87710021
                             054DE  8986          USING PUT,R15                                                  87720021
 0061F4 45E0 F006      054E4        8987          BAL   RS1,PUTM            WRITE LINE 1                         87730021
                             061A0  8988          USING PRSTAT,R15                                               87740021
 0061F8 58F0 C510      03BA0        8989          L     R15,APRSTAT                                              87750021
                                    8990 *                                                                       87760021
 0061FC 9110 9182      00182        8991          TM    SWITCH,SPILL        WAS THERE DICTIONARY SPILL           87770021
 006200 4780 F07C      0621C        8992          BC    ZERO,STAT101        NO                                   87780021
 006204 D20B D77C C1B0 04514 03840  8993          MVC   PMSG1,SMSG1         YES - PRINT MESSAGE SAYING SO        87790021
 00620A D22F D78D C202 04525 03892  8994          MVC   PMSG7,SMSG7                                              87800021
 006210 58F0 C460      03AF0        8995          L     R15,APUT                                                 87810021
                             054DE  8996          USING PUT,R15                                                  87820021
 006214 45E0 F006      054E4        8997          BAL   RS1,PUTM            WRITE LINE 1A                        87830021
                             061A0  8998          USING PRSTAT,R15                                               87840021
 006218 58F0 C510      03BA0        8999          L     R15,APRSTAT                                              87850021
                                    9000 *                                                                       87860021
 00621C                             9001 STAT101  DS    0H                                                       87870021
 00621C D212 D77C C1CC 04514 0385C  9002          MVC   PMSG3,SMSG3         *OPTIONS IN EFFECT*                  87880021
 006222 D205 D794 C232 0452C 038C2  9003          MVC   PMSG8,SMSG8         SIZE                                 87890021
 006228 D204 D7A4 C241 0453C 038D1  9004          MVC   PMSG10,SMSG10       BUF                                  87900021
 00622E D208 D7B3 C238 0454B 038C8  9005          MVC   PMSG9,SMSG9         LINECNT                              87910021
 006234 D206 D7C1 C246 04559 038D6  9006          MVC   PMSG11,SMSG11       SPACE                                87920021
 00623A D215 D7C9 C24D 04561 038DD  9007          MVC   PMSG12,SMSG12       FLAG, SEQ, SOURCE                    87930021
 006240 D207 D79A C325 04532 039B5  9008          MVC   PMSG8N,EDWD1                                             87940021
 006246 DE07 D79A 91E8 04532 001E8  9009          ED    PMSG8N,CORESIZE     CORE SIZE = NO.                      87950021
 00624C D207 D7A9 C325 04541 039B5  9010          MVC   PMSG1N,EDWD1                                             87960021
 006252 DE07 D7A9 91E4 04541 001E4  9011          ED    PMSG1N,BUFSIZE      BUF SIZE = NO.                       87970021
 006258 D200 D7C6 91F0 0455E 001F0  9012          MVC   PMSGSP,SPACING      SPACE 1 2  OR 3                      87980021
 00625E 96F0 91ED      001ED        9013          OI    CNTLINE+NX1,MF0     STRIP ZONE                           87990021
 006262 D201 D7BD 91EC 04555 001EC  9014          MVC   PMSG9N,CNTLINE      LINECOUNT = NO.                      88000021
 006268 9104 91A3      001A3        9015          TM    PHZSW,FLAGW                                              88010021
 00626C 4710 F0D4      06274        9016          BC    ONES,STAT25         FLAGW                                88020021
 006270 92C5 D7CD      04565        9017          MVI   PMSGFL,EE           FLAGE                                88030021
 006274                             9018 STAT25   DS    0H             MOVE IN 'NO' WHERE APPROPRIATE            88040021
 006274 9108 91A3      001A3        9019          TM    PHZSW,SEQ           SEQ                                  88050021
 006278 4710 F0E2      06282        9020          BC    ONES,STAT26         YES                                  88060021
 00627C D201 D7D0 C323 04568 039B3  9021          MVC   NOSQ,SMSGNO         NO                                   88070021
1PH60     IKFCBL60                                                                                              PAGE  211
-  LOC  OBJECT CODE    ADDR1 ADDR2  STMT   SOURCE STATEMENT                                       ASM 0201 11.03 02/14/15
0006282                             9022 STAT26   DS    0H                                                       88080021
 006282 9108 9183      00183        9023          TM    SWITCH+NX1,DSOU       SOURCE                           F 88090021
 006286 4710 F0F0      06290        9024          BC    ONES,STAT27         YES                                  88100021
 00628A D201 D7D7 C323 0456F 039B3  9025          MVC   NOSOU,SMSGNO        NO                                   88110021
 006290                             9026 STAT27   DS    0H                                                       88120021
 006290 58F0 C460      03AF0        9027          L     R15,APUT                                                 88130021
                             054DE  9028          USING PUT,R15                                                  88140021
 006294 45E0 F006      054E4        9029          BAL   RS1,PUTM            PRINT LINE 2                         88150021
                             061A0  9030          USING PRSTAT,R15                                               88160021
 006298 58F0 C510      03BA0        9031          L     R15,APRSTAT                                              88170021
                                    9032 *                                                                       88180021
 00629C D212 D77C C1CC 04514 0385C  9033          MVC   PMSG3A,SMSG3        *OPTIONS IN EFFECT*                  88190021
 0062A2 D25F D794 C263 0452C 038F3  9034          MVC   PMSG13,SMSG13       MOVE ALL OPTIONS TO PRINT            88200021
                                    9035 *                        ALL THE OPTIONS - PLUG IN 'NO' LATER           88210021
 0062A8 9120 91A4      001A4        9036          TM    PHZSW1,SYM          DMAP                                 88220021
 0062AC 4710 F116      062B6        9037          BC    ONES,STAT30         YES                                  88230021
 0062B0 D201 D794 C323 0452C 039B3  9038        MVC   NODMP,SMSGNO    NO                                         88240021
 0062B6                             9039 STAT30   DS    0H                                                       88250021
 0062B6 9140 91A3      001A3        9040          TM    PHZSW,LISTX         PMAP                                 88260021
 0062BA 4710 F124      062C4        9041          BC    ONES,STAT31         YES                                  88270021
 0062BE D201 D79C C323 04534 039B3  9042        MVC   NOPMP,SMSGNO    NO                                         88280021
 0062C4                             9043 STAT31   DS    0H                                                       88290021
 0062C4 9140 91A4      001A4        9044          TM    PHZSW1,CLIST        CLIST                                88300021
 0062C8 4710 F132      062D2        9045          BC    ONES,STAT32         YES                                  88310021
 0062CC D201 D7A4 C323 0453C 039B3  9046        MVC   NOCLST,SMSGNO    NO                                        88320021
 0062D2                             9047 STAT32   DS    0H                                                       88330021
 0062D2 9102 91A4      001A4        9048          TM    PHZSW1,MAPSP        SUPMAP                               88340021
 0062D6 4710 F140      062E0        9049          BC    ONES,STAT33         YES                                  88350021
 0062DA D201 D7AD C323 04545 039B3  9050        MVC   NOSUPMAP,SMSGNO  NO                                        88360021
 0062E0                             9051 STAT33   DS    0H                                                       88370021
 0062E0 9180 91A4      001A4        9052          TM    PHZSW1,XREF         XREF                                 88380021
 0062E4 4710 F14E      062EE        9053          BC    ONES,STAT34         YES                                  88390021
 0062E8 D201 D7B7 C323 0454F 039B3  9054        MVC   NOXREF,SMSGNO    NO                                        88400021
 0062EE                             9055 STAT34   DS    0H                                                       88410021
 0062EE 9110 91A3      001A3        9056          TM    PHZSW,LINK          LOAD                                 88420021
 0062F2 4710 F15C      062FC        9057          BC    ONES,STAT35         YES                                  88430021
 0062F6 D201 D7BF C323 04557 039B3  9058          MVC   NOLD,SMSGNO         NO                                   88440021
 0062FC                             9059 STAT35   DS    0H                                                       88450021
 0062FC 9120 91A3      001A3        9060          TM    PHZSW,DECK         DECK                                  88460021
 006300 4710 F16A      0630A        9061          BC    ONES,STAT36         YES                                  88470021
 006304 D201 D7C7 C323 0455F 039B3  9062          MVC   NODK,SMSGNO         NO                                   88480021
 00630A                             9063 STAT36   DS    0H                                                       88490021
 00630A 9104 91A4      001A4        9064          TM    PHZSW1,APOST                                             88500021
 00630E 4710 F178      06318        9065          BC    ONES,STAT37         APOST                                88510021
 006312 D204 D7CF C331 04567 039C1  9066        MVC   NOAPOST,QUOTE     QUOTE                                    88520021
 006318                             9067 STAT37   DS    0H                                                       88530021
 006318 9101 91A4      001A4        9068          TM    PHZSW1,TRUNC        TRUNC                                88540021
 00631C 4710 F186      06326        9069          BC    ONES,STAT38         YES                                  88550021
 006320 D201 D7D6 C323 0456E 039B3  9070          MVC   NOTRUNC,SMSGNO      NO                                   88560021
 006326                             9071 STAT38   DS    0H                                                       88570021
 006326 9102 91A3      001A3        9072          TM    PHZSW,LIBR          LIB                                  88580021
 00632A 4710 F194      06334        9073          BC    ONES,STAT39         YES                                  88590021
 00632E D201 D7DF C323 04577 039B3  9074          MVC   NOLIB,SMSGNO        NO                                   88600021
 006334                             9075 STAT39   DS    0H                                                       88610021
 006334 9101 91C6      001C6        9076          TM    PHZSW3,VERBR        VERB                                 88620021
1PH60     IKFCBL60                                                                                              PAGE  212
-  LOC  OBJECT CODE    ADDR1 ADDR2  STMT   SOURCE STATEMENT                                       ASM 0201 11.03 02/14/15
0006338 4710 F1A2      06342        9077          BC    ONES,STAT40         YES                                  88630021
 00633C D201 D7E6 C323 0457E 039B3  9078          MVC   NOVERB,SMSGNO       NO                                   88640021
 006342                             9079 STAT40   DS    0H                                                       88650021
 006342 58F0 C460      03AF0        9080          L     R15,APUT                                                 88660021
                             054DE  9081          USING PUT,R15                                                  88670021
 006346 45E0 F006      054E4        9082          BAL   RS1,PUTM            PRINT LINE 3                         88680021
                             061A0  9083          USING PRSTAT,R15                                               88690021
 00634A 58F0 C510      03BA0        9084          L     R15,APRSTAT                                              88700021
 00634E D212 D77C C1CC 04514 0385C  9085          MVC   PMSG3B,SMSG3        *OPTIONS IN EFFECT*                  88710021
 006354 D25F D794 C2C3 0452C 03953  9086          MVC   PMSG14,SMSG14       MOVE ALL OPTIONS TO PRINT            88720021
                                    9087 *                        ALL THE OPTIONS - PLUG IN 'NO' LATER           88730021
 00635A 9101 91A3      001A3        9088          TM    PHZSW,ZWB           ZWB                                  88740021
 00635E 4710 F1C8      06368        9089          BC    ONES,STAT41         YES                                  88750021
 006362 D201 D794 C323 0452C 039B3  9090          MVC   NOZWB,SMSGNO        NO                                   88760021
 006368                             9091 STAT41   DS    0H                                                       88770021
 006368 9110 91A4      001A4        9092          TM    PHZSW1,PDT          PDT                                  88780021
 00636C 47F0 F1D6      06376        9093          BC    UNCOND,STAT42       YES     CHANGE WHEN IMPLEMENT        88790021
 006370 D201 D7EE C323 04586 039B3  9094          MVC   NOPDT,SMSGNO        NO                                   88800021
 006376                             9095 STAT42   DS    0H                                                       88810021
 006376 58F0 C460      03AF0        9096          L     R15,APUT                                                 88820021
                             054DE  9097          USING PUT,R15                                                  88830021
 00637A 45E0 F006      054E4        9098          BAL   RS1,PUTM            PRINT LINE 4                         88840021
 00637E 58E0 C514      03BA4        9099          L     RS1,STATSAV         RESTORE RETURN REGISTER              88850021
 006382 07FE                        9100          BCR   UNCOND,RS1          RETURN                               88860021
1PH60     IKFCBL60                                                                                              PAGE  213
-  LOC  OBJECT CODE    ADDR1 ADDR2  STMT   SOURCE STATEMENT                                       ASM 0201 11.03 02/14/15
0                                   9102 *=1    SRCRLD       SEARCH RLDTBL FOR PARTICULAR ADCON                  88880021
                                    9103 *                   INPUT - RW1 HAS TARGET ADDRESS TO SEARCH FOR        88890021
                                    9104 *                   OUTPUT - RW1 HAS RELLOC FOUND OR                    88900021
                                    9105 *                            ALL F'S IF NOT FOUND                       88910021
                                    9106 *                   C6WRK1-4 USED AS WORK AREA                          88920021
                             06384  9107        USING SRCRLD,R15                                                 88930021
 006384                             9108 SRCRLD DS    0H                                                         88940021
 006384 900F D07C      03E14        9109        STM   R0,R15,SVREG                                               88950021
 006388 91FF D11A      03EB2        9110          TM    SWRLDFUL,RLDOVFL    IF TABLE OVERFLOWED GO TO            88960021
 00638C 4710 F03E      063C2        9111          BC    ONES,SRCRB          RETURN ALL F'S IN RW1                88970021
 006390 5810 C664      03CF4        9112          L     R1,ARLDTB                                                88980021
 006394 5820 C66C      03CFC        9113          L     R2,RLDINDEX                                              88990021
 006398 58F0 C49C      03B2C        9114        L     R15,ASRCRL                                                 89000021
 00639C 1851                        9115        LR    RW3,R1                                                     89010021
 00639E 4171 2000      00000        9116          LA    RW2,DX0(R1,R2)                                           89020021
 0063A2 9400 D318      040B0        9117          NI    C6WRK1,INITOFF                                           89030021
 0063A6 1957                        9118 SRCRA  CR    RW3,RW2                                                    89040021
 0063A8 47B0 F03E      063C2        9119        BC    NOTLO,SRCRB      NOT FOUND                                 89050021
 0063AC D202 D319 5001 040B1 00001  9120          MVC   C6WRK2(LX3),DX1(RW3)                                     89060021
 0063B2 5960 D318      040B0        9121        C     RW1,C6WRK1       COMPARE TARGETS                           89070021
 0063B6 4780 F04A      063CE        9122        BC    EQ,SRCRC         MATCH                                     89080021
 0063BA 4155 0008      00008        9123          LA    RW3,DX8(RW3)                                             89090021
 0063BE 47F0 F022      063A6        9124          BC    UNCOND,SRCRA        TRY NEXT                             89100021
 0063C2 1B66                        9125 SRCRB  SR    RW1,RW1                                                    89110021
 0063C4 0660                        9126        BCTR  RW1,R0                SUBTRACT 1                           89120021
 0063C6 5060 D318      040B0        9127        ST    RW1,C6WRK1       FFFFFFFF                                  89130021
 0063CA 47F0 F050      063D4        9128          BC    UNCOND,SRCRD        GO RETURN UNFOUND                    89140021
 0063CE                             9129 SRCRC  DS    0H                                                    STAN 89150021
 0063CE D202 D319 5005 040B1 00005  9130          MVC   C6WRK2(LX3),RELC(RW3) RELLOC                          ST 89160021
 0063D4 980F D07C      03E14        9131 SRCRD  LM    R0,R15,SVREG                                               89170021
 0063D8 5860 D318      040B0        9132        L     RW1,C6WRK1                                                 89180021
 0063DC 07FE                        9133          BCR   UNCOND,RS1          RETURN                               89190021
1PH60     IKFCBL60                                                                                              PAGE  214
-  LOC  OBJECT CODE    ADDR1 ADDR2  STMT   SOURCE STATEMENT                                       ASM 0201 11.03 02/14/15
00063DE                             9135 TGTCON DS    0H                                                         89210021
                             063DE  9136        USING *,R15                                                      89220021
 0063DE 50E0 C6E0      03D70        9137        ST    RS1,SVR1             SAVE RET ADDRESS                      89230021
 0063E2 D203 D154 9148 03EEC 00148  9138          MVC   CKLOC(LX4),LOCCTR    SAVE LOC CTR                        89240021
 0063E8 5870 D054      03DEC        9139        L     RW2,TGTLOC           GET ADDR OF TGT                       89250021
 0063EC 4177 0198      00198        9140        LA    RW2,APGTVN(RW2)       COMPUTE TARGET ADDRESS FOR VNI T     89260021
 0063F0 5070 9148      00148        9141        ST    RW2,LOCCTR           TARGET EXPECTED IN LOCCTR             89270021
 0063F4 5870 D048      03DE0        9142        L     RW2,LOCPGT           GET PGT ADDR                          89280021
 0063F8 4A70 9224      00224        9143        AH    RW2,VNILOC           ADDR OF VN'S IN PGT                   89290021
 0063FC 4850 D110      03EA8        9144        LH    RW3,INDVN            GET NO. OF VN'S FOR INDEP SEGM        89300021
 006400 8950 0002      00002        9145          SLL   RW3,DX2             GET NO. OF BYTES                     89310021
 006404 4050 D110      03EA8        9146        STH   RW3,INDVN            SAVE SIZE OF VNI TABLE                89320021
 006408 4160 F05E      0643C        9147        LA    RW1,XYZ2              SPECIFY RET ADDR FOR IN-LINE RTN     89330021
 00640C 4800 920E      0020E        9148 XYZ1   LH    R0,VNCTR             GET SIZE OF ALL VN'S                  89340021
 006410 1B05                        9149        SR    R0,RW3               GET SIZE OF VN'S THAT ARE NON-IND     89350021
 006412 1A70                        9150        AR    RW2,R0               ADJUST RELATIVE ADDR                  89360021
 006414 5070 C684      03D14        9151        ST    RW2,D6REL                                                  89370021
 006418 5880 C4F8      03B88        9152          L     RB1,ARB1B           GET PARAM LIST ADDR                  89380021
 00641C 187F                        9153        LR    RW2,R15               SAVE BASE REG                        89390021
 00641E 58F0 D12C      03EC4        9154          L     R15,ARLDRTE         GET INSERT RTE ADDRESS               89400021
 006422 05EF                        9155        BALR  RS1,R15              GET ADDR OF AN ENTRY IN REG 2         89410021
 006424 18F7                        9156        LR    R15,RW2               RESTORE BASE                         89420021
 006426 9204 2000      00000        9157          MVI   TARG0(R2),XX04      SPECIFY LENGTH OF ADCON              89430021
 00642A 96C0 2000      00000        9158          OI    TARG0(R2),ATYP      ADCON TYPE                           89440021
 00642E D202 2001 9149 00001 00149  9159          MVC   TARG(LX3,R2),LOCCTR+NX1 MOVE TARGET ADDR TO RLDTBL       89450021
 006434 D203 2004 C684 00004 03D14  9160          MVC   RELC4(LX4,R2),D6REL PTY/REL ADDR                         89460021
 00643A 07F6                        9161        BR    RW1                   BR TO NEXT INSTR OR RETURN           89470021
                                    9162 * GENERATE VN-I TBL ADCON                                               89480021
 00643C 5870 D054      03DEC        9163 XYZ2   L     RW2,TGTLOC           GET TGT ADDR                          89490021
 006440 4177 019C      0019C        9164        LA    RW2,ATGTVN(RW2)       COMPUTE TARGET ADDR                  89500021
 006444 5070 9148      00148        9165        ST    RW2,LOCCTR           FOR VN-I TBL ADCON                    89510021
 006448 5870 D054      03DEC        9166        L     RW2,TGTLOC           GET TGT ADDR                          89520021
 00644C 4A70 9226      00226        9167        AH    RW2,VNLOC            GET ADDR OF VN'S IN TGT               89530021
 006450 4850 D110      03EA8        9168        LH    RW3,INDVN            GET SIZE OF INDEP VN'S IN BYTES       89540021
 006454 4560 F02E      0640C        9169        BAL   RW1,XYZ1              LOOP                                 89550021
                                    9170 * PUNCH TXT CARD-LENGTH OF VNI TBL FOR INDEP SEGMENTS                   89560021
 006458 5870 D054      03DEC        9171        L     RW2,TGTLOC           GET TGT ADDR                          89570021
 00645C 4177 01A4      001A4        9172        LA    RW2,VNTBLN(RW2)       COMPUTE TARGET ADDRESS               89580021
 006460 5070 9148      00148        9173        ST    RW2,LOCCTR                                                 89590021
 006464 4110 D110      03EA8        9174        LA    R1,INDVN             SPECIFY ADDR OF CONSTANT              89600021
 006468 4100 0002      00002        9175          LA    R0,TWOBYTE          SPECIFY SIZE OF CONSTANT             89610021
 00646C 58F0 C46C      03AFC        9176        L     R15,ATXPNH           GET PUNCH RTN ADDR                    89620021
 006470 05EF                        9177        BALR  RS1,R15               GO PUNCH                             89630021
 006472 D203 9148 D154 00148 03EEC  9178          MVC   LOCCTR(LX4),CKLOC    RESTORE LOC CTR                     89640021
 006478 58E0 C6E0      03D70        9179        L     RS1,SVR1             RESTORE RET ADDRESS                   89650021
 00647C 07FE                        9180        BR    RS1                  RETURN                                89660021
                                    9181        DROP R15                                                         89670021
1PH60     IKFCBL60                                                                                              PAGE  215
-  LOC  OBJECT CODE    ADDR1 ADDR2  STMT   SOURCE STATEMENT                                       ASM 0201 11.03 02/14/15
0006480                             9183 IKF609   CSECT                                                          89690021
                                    9184 *=1    XPRIME               ESTABLISH PRIME REQUEST SIZE AND            89700021
                                    9185 *                           GROW FACTOR.  THEN CALL PRIME.              89710021
                                    9186 *            MINIMUM PRIME REQUEST = SIZE OF 1RECORD                    89720021
                                    9187 *            MAXIMUM PRIME REQUEST = 32512                              89730021
                                    9188 *            GROW FACTOR = 1/8 PRIME REQUEST                            89740021
                                    9189 *             OR MINIMUM OF 1 RECORD LENGTH                             89750021
                                    9190 *            RECORD LENGTH ASSUMED 256 IF VARIABLE                      89760021
                             06480  9191        USING XPRIME,R15                                                 89770021
 006480                             9192 XPRIME DS    0H                                                         89780021
 006480 9023 D318      040B0        9193        STM   R2,R3,C6WRK1                                               89790021
 006484 1B33                        9194        SR    R3,R3                                                      89800021
 006486 4030 D314      040AC        9195        STH   R3,C6WRK0                                                  89810021
 00648A 4331 0000      00000        9196          IC    R3,DX0(R1)      RECORD SIZE                              89820021
 00648E 1233                        9197        LTR   R3,R3                                                      89830021
 006490 4770 F018      06498        9198        BC    NOTZER,XPRMA          NOT VARIABLE                         89840021
 006494 4130 0100      00100        9199          LA    R3,DX256       VARIABLE                                  89850021
 006498 D201 D316 1004 040AE 00004  9200 XPRMA    MVC   C6WRK0+NX2(LX2),DX4(R1)                                  89860021
 00649E 5820 D314      040AC        9201        L     R2,C6WRK0                                                  89870021
 0064A2 1222                        9202        LTR   R2,R2                                                      89880021
 0064A4 4770 F02E      064AE        9203        BC    NOTZER,XPRMAX         CONTINUE, CALL PRIME                 89890021
 0064A8 9823 D318      040B0        9204        LM    R2,R3,C6WRK1       DO NOT CALL PRIME IF ZERO               89900021
 0064AC 07FE                        9205          BCR   UNCOND,RS1          RETURN                               89910021
                             064AE  9206 XPRMAX EQU   *                                                          89920021
 0064AE 4920 C088      03718        9207        CH    R2,MAXPRM                                                  89930021
 0064B2 47D0 F042      064C2        9208        BC    NOTHI,XPRMB           R2 LT  7F00                          89940021
 0064B6 4820 C088      03718        9209        LH    R2,MAXPRM                                                  89950021
 0064BA 4021 0004      00004        9210          STH   R2,DX4(R1)                                               89960021
 0064BE 47F0 F04C      064CC        9211          BC    UNCOND,XPRMX        CONT. R27MAXPRM CODE                 89970021
 0064C2 1923                        9212 XPRMB  CR    R2,R3                                                      89980021
 0064C4 47B0 F04C      064CC        9213        BC    NOTLO,XPRMX           DON'T DO SAVE                        89990021
 0064C8 4031 0004      00004        9214          STH   R3,DX4(R1)                                               90000021
 0064CC 8820 0003      00003        9215 XPRMX    SRL   R2,DX3                                                   90010021
 0064D0 1923                        9216        CR    R2,R3                                                      90020021
 0064D2 47B0 F058      064D8        9217        BC    NOTLO,XPRMC           NOT MINIMUM                          90030021
 0064D6 1823                        9218        LR    R2,R3            RECORD SIZE MINIMUM                       90040021
 0064D8 4021 0006      00006        9219 XPRMC    STH   R2,DX6(R1)                                               90050021
 0064DC 9823 D318      040B0        9220        LM    R2,R3,C6WRK1                                               90060021
 0064E0 58F0 912C      0012C        9221        L     R15,APRIME            GET PRIME RTN ADDRESS                90070021
 0064E4 07FF                        9222          BCR   UNCOND,R15          CALL PRIME                           90080021
                                    9223 *  PRIME WILL RETURN DIRECTLY TO CALLER OF XPRIME                       90090021
                                    9224        DROP  R15                                                        90100021
0
                                    9226 *=1    XSTATC       DO NOT CALL STATIC IF                               90120021
                                    9227 *                    PRIME WAS NOT CALLED.                              90130021
                                    9228 *      NO BASE REGISTER NEEDED                                          90140021
 0064E6                             9229 XSTATC DS    0H                                                         90150021
 0064E6 48F1 0004      00004        9230          LH    R15,DX4(R1)                                              90160021
 0064EA 12FF                        9231        LTR   R15,R15                                                    90170021
 0064EC 078E                        9232        BCR   ZERO,RS1     RETURN                                        90180021
 0064EE 5811 0000      00000        9233          L     R1,DX0(R1)                                               90190021
 0064F2 9104 1000      00000        9234          TM    DX0(R1),PRMFLG     HAS TABLE BEEN PRIMED?          56154 90200021
 0064F6 078E                        9235          BCR   8,RS1              NO, RETURN                      56154 90210021
 0064F8 58F0 9134      00134        9236        L     R15,ADSTAT            GET STATIC RTN ADDRESS               90220021
1PH60     IKFCBL60                                                                                              PAGE  216
-  LOC  OBJECT CODE    ADDR1 ADDR2  STMT   SOURCE STATEMENT                                       ASM 0201 11.03 02/14/15
00064FC 07FF                        9237          BCR   UNCOND,R15          GO TO STATIC                         90230021
                                    9238 *  STATIC WILL RETURN DIRECTLY TO CALLER OF XSTATC                      90240021
-
                                    9240 *=1    XTABRL       DO NOT CALL TABREL IF                               90260021
                                    9241 *                    PRIME WAS NOT CALLED.                              90270021
                                    9242 *      NO BASE REGISTER NEEDED                                          90280021
 0064FE                             9243 XTABRL DS    0H                                                         90290021
 0064FE 48F1 0004      00004        9244          LH    R15,DX4(R1)                                              90300021
 006502 12FF                        9245        LTR   R15,R15                                                    90310021
 006504 078E                        9246        BCR   ZERO,RS1     RETURN                                        90320021
 006506 5811 0000      00000        9247          L     R1,DX0(R1)                                               90330021
 00650A 58F0 9138      00138        9248        L     R15,RELADD            GET RELEASE RTN ADDRESS              90340021
 00650E 07FF                        9249          BCR   UNCOND,R15          GO RELEASE TABLE                     90350021
                                    9250 *  TABREL WILL RETURN DIRECTLY TO CALLER OF XTABRL                      90360021
0
                                    9252 *=1    TABLES            FIND CURRENT START AND LENGTH OF A TABLE       90380021
                                    9253 *                        INPUT - R1 HAS TIB ADDRESS                     90390021
                                    9254 *                        OUTPUT - R1 HAS START                          90400021
                                    9255 *                               - R2 HAS LENGTH                         90410021
                                    9256 *      NO BASE REGISTER NEEDED                                          90420021
 006510                             9257 TABLES DS    0H                                                         90430021
 006510 4111 0000      00000        9258          LA    R1,DX0(R1)        ELIMINATE HIGH BYTE                    90440021
 006514 1B22                        9259        SR    R2,R2              ZERO LENGTH                             90450021
 006516 5910 D0BC      03E54        9260        C     R1,COSADR                                                  90460021
 00651A 07DE                        9261        BCR   NOTHI,RS1         NO TABLE                                 90470021
 00651C 5811 0000      00000        9262          L     R1,DX0(R1)                                               90480021
 006520 4821 0004      00004        9263          LH    R2,DX4(R1)        LENGTH                                 90490021
 006524 5811 0000      00000        9264          L     R1,DX0(R1)                                               90500021
 006528 4111 0000      00000        9265          LA    R1,DX0(R1)        TABLE START                            90510021
 00652C 07FE                        9266          BCR   UNCOND,RS1          RETURN                               90520021
1PH60     IKFCBL60                                                                                              PAGE  217
-  LOC  OBJECT CODE    ADDR1 ADDR2  STMT   SOURCE STATEMENT                                       ASM 0201 11.03 02/14/15
0                                   9268 *=1    LTDMP             DUMP LITERAL POOL                              90540021
                                    9269 *                   IF R1 = 0  FORMAT HEX TYPE, ELSE BCD                90550021
                             0652E  9270        USING LTDMP,R15                                                  90560021
 00652E                             9271 LTDMP  DS    0H                                                         90570021
 00652E 900F F18A      066B8        9272        STM   R0,R15,SLTDMP                                              90580021
 006532 58F0 C460      03AF0        9273        L     R15,APUT                                                   90590021
 006536 05EF                        9274        BALR  RS1,R15       BLANK LINE                                   90600021
 006538 58F0 C4B0      03B40        9275        L     R15,ALTDMP                                                 90610021
 00653C 1211                        9276        LTR   R1,R1                                                      90620021
 00653E 4770 F01E      0654C        9277        BC    NOTZER,LTD10          HEADING IS BCD DUMP                  90630021
 006542 D211 D77D C3A0 04515 03A30  9278          MVC   OU6CDN(LX18),LTDHEX                                      90640021
 006548 47F0 F024      06552        9279          BC    UNCOND,LTD15        SKIP OTHER HEADING                   90650021
 00654C D215 D782 C3B2 0451A 03A42  9280 LTD10    MVC   OU6REC+NX6(LX22),LTDBCD                                  90660021
 006552 58F0 C460      03AF0        9281 LTD15  L     R15,APUT                                                   90670021
 006556 05EF                        9282        BALR  RS1,R15              HEADING                               90680021
 006558 05EF                        9283        BALR  RS1,R15            BLANK LINE                              90690021
 00655A 58F0 C4B0      03B40        9284        L     R15,ALTDMP                                                 90700021
                                    9285 * CONVERT AND MOVE LOCATION                                             90710021
 00655E 5860 D0D4      03E6C        9286 LTD20  L     RW1,LDMLOC                                                 90720021
 006562 5060 D314      040AC        9287        ST    RW1,C6WRK0                                                 90730021
 006566 58F0 C474      03B04        9288        L     R15,AS6010                                                 90740021
 00656A 05EF                        9289        BALR  RS1,R15               CONVERT                              90750021
 00656C 58F0 C4B0      03B40        9290        L     R15,ALTDMP                                                 90760021
 006570 D204 D77D D31B 04515 040B3  9291          MVC   OU6CDN(LX5),C6WRK4                                       90770021
 006576 924D D783      0451B        9292          MVI   OU6REC+NX7,LFTPAREN  (                                   90780021
 00657A D203 D784 C3E8 0451C 03A78  9293          MVC   OU6STR(LX4),XLITC                                        90790021
 006580 5860 D0D4      03E6C        9294        L     RW1,LDMLOC                                                 90800021
 006584 5B60 D048      03DE0        9295        S     RW1,LOCPGT                                                 90810021
 006588 4B60 9164      00164        9296        SH    RW1,LTLCTR                                                 90820021
 00658C 58F0 C468      03AF8        9297        L     R15,AS6200                                                 90830021
                             04A5E  9298        USING S6200,R15                                                  90840021
 006590 4150 D788      04520        9299          LA    RW3,OU6REC+NX12                                          90850021
 006594 45E0 F004      04A62        9300        BAL   RS1,S6210             CONVERT                              90860021
 006598 D200 5000 D31B 00000 040B3  9301          MVC   DX0(LX1,RW3),C6WRK4                                      90870021
 00659E 58F0 C4B0      03B40        9302        L     R15,ALTDMP                                                 90880021
                             0652E  9303        USING LTDMP,R15                                                  90890021
 0065A2 925D 5001      00001        9304          MVI   DX1(RW3),RTPAREN                                         90900021
                                    9305 * INITIALIZE LINE POSITION                                              90910021
 0065A6 4150 D78F      04527        9306          LA    RW3,OU6REC+NX19                                          90920021
                                    9307 * FORMAT ONE LINE (HEX OR BCD)                                          90930021
 0065AA 1211                        9308        LTR   R1,R1                                                      90940021
 0065AC 4780 F0EA      06618        9309        BC    ZERO,LHEXDM           FORMAT HEY LINE                      90950021
                                    9310 * BCD LINE                                                              90960021
 0065B0 D201 D785 C3C8 0451D 03A58  9311          MVC   OU6LST(LX2),LTDTL                                        90970021
 0065B6 927D D78E      04526        9312          MVI   OU6REC+NX18,QUOTES1                                      90980021
                                    9313 * MOVE MAXIMUM 56 CHARACTERS                                            90990021
 0065BA 4860 D0DC      03E74        9314        LH    RW1,LDMLEN                                                 91000021
 0065BE 4170 0038      00038        9315          LA    RW2,DX56                                                 91010021
 0065C2 1967                        9316        CR    RW1,RW2                                                    91020021
 0065C4 4740 F0A0      065CE        9317        BC    LO,LTD30              GO USE  REMAINDER                    91030021
 0065C8 1B67                        9318        SR    RW1,RW2                                                    91040021
 0065CA 47F0 F0A4      065D2        9319          BC    UNCOND,LTD35        GO MOVE LDMLEN-56=LDMLEN             91050021
 0065CE 1876                        9320 LTD30  LR    RW2,RW1          USE REMAINDER                             91060021
 0065D0 1B66                        9321        SR    RW1,RW1                                                    91070021
 0065D2 4060 D0DC      03E74        9322 LTD35  STH   RW1,LDMLEN                                                 91080021
1PH60     IKFCBL60                                                                                              PAGE  218
-  LOC  OBJECT CODE    ADDR1 ADDR2  STMT   SOURCE STATEMENT                                       ASM 0201 11.03 02/14/15
00065D6 5860 D0D8      03E70        9323        L     RW1,LDMVAL                                                 91090021
 0065DA 0670                        9324        BCTR  RW2,R0                SUBTRACT 1                           91100021
 0065DC 4470 F1CA      066F8        9325        EX    RW2,LTDMVC                                                 91110021
 0065E0 4157 5001      00001        9326          LA    RW3,DX1(RW2,RW3)                                         91120021
 0065E4 927D 5000      00000        9327          MVI   DX0(RW3),QUOTES1                                         91130021
 0065E8 58F0 C460      03AF0        9328        L     R15,APUT                                                   91140021
 0065EC 05EF                        9329        BALR  RS1,R15               PRINT A LINE                         91150021
 0065EE 58F0 C4B0      03B40        9330        L     R15,ALTDMP                                                 91160021
 0065F2 4860 D0DC      03E74        9331        LH    RW1,LDMLEN                                                 91170021
 0065F6 1266                        9332        LTR   RW1,RW1                                                    91180021
 0065F8 4780 F170      0669E        9333        BC    ZERO,LTD90       EXIT                                      91190021
 0065FC 5860 D0D4      03E6C        9334        L     RW1,LDMLOC                                                 91200021
 006600 4166 0038      00038        9335          LA    RW1,DX56(RW1)                                            91210021
 006604 5060 D0D4      03E6C        9336        ST    RW1,LDMLOC                                                 91220021
 006608 5860 D0D8      03E70        9337        L     RW1,LDMVAL                                                 91230021
 00660C 4166 0038      00038        9338          LA    RW1,DX56(RW1)                                            91240021
 006610 5060 D0D8      03E70        9339        ST    RW1,LDMVAL                                                 91250021
 006614 47F0 F030      0655E        9340          BC    UNCOND,LTD20        GO CONVERT & MOVE                    91260021
                                    9341 * HEX LINE                                                              91270021
 006618 4860 D0DC      03E74        9342 LHEXDM LH    RW1,LDMLEN                                                 91280021
 00661C 4170 0004      00004        9343          LA    RW2,FOURBYTE                                             91290021
 006620 1967                        9344        CR    RW1,RW2          4 BYTES AT A TIME                         91300021
 006622 4740 F0FE      0662C        9345        BC    LO,LTD50              GO USE REMAINDER                     91310021
 006626 1B67                        9346        SR    RW1,RW2                                                    91320021
 006628 47F0 F102      06630        9347          BC    UNCOND,LTD55        CONTINUE WITH NEW VALUE              91330021
 00662C 1876                        9348 LTD50  LR    RW2,RW1                                                    91340021
 00662E 1B66                        9349        SR    RW1,RW1                                                    91350021
 006630 4060 D0DC      03E74        9350 LTD55  STH   RW1,LDMLEN                                                 91360021
 006634 5860 D0D8      03E70        9351        L     RW1,LDMVAL                                                 91370021
 006638 D203 D314 6000 040AC 00000  9352          MVC   C6WRK0(LX4),DX0(RW1)                                     91380021
 00663E 8970 0001      00001        9353          SLL   RW2,DX1                                                  91390021
 006642 0670                        9354        BCTR  RW2,R0                SUBTRACT 1                           91400021
 006644 58F0 C474      03B04        9355        L     R15,AS6010                                                 91410021
 006648 05EF                        9356        BALR  RS1,R15            CONVERT                                 91420021
 00664A 58F0 C4B0      03B40        9357        L     R15,ALTDMP                                                 91430021
 00664E 4160 D318      040B0        9358        LA    RW1,C6WRK1                                                 91440021
 006652 4470 F1CA      066F8        9359        EX    RW2,LTDMVC       MOVE TO LIST LINE                         91450021
 006656 4860 D0DC      03E74        9360        LH    RW1,LDMLEN                                                 91460021
 00665A 1266                        9361        LTR   RW1,RW1                                                    91470021
 00665C 4780 F166      06694        9362        BC    ZERO,LTD85        EXIT                                     91480021
 006660 4155 000A      0000A        9363          LA    RW3,DX10(RW3)                                            91490021
 006664 4160 D7C8      04560        9364          LA    RW1,OU6REC+NX76                                          91500021
 006668 5870 D0D8      03E70        9365        L     RW2,LDMVAL                                                 91510021
 00666C 4177 0004      00004        9366          LA    RW2,DX4(RW2)                                             91520021
 006670 5070 D0D8      03E70        9367        ST    RW2,LDMVAL                                                 91530021
 006674 1956                        9368        CR    RW3,RW1                                                    91540021
 006676 4740 F0EA      06618        9369        BC    LO,LHEXDM        NEXT 4 BYTES                              91550021
 00667A 58F0 C460      03AF0        9370        L     R15,APUT                                                   91560021
 00667E 05EF                        9371        BALR  RS1,R15               PRINT A LINE                         91570021
 006680 58F0 C4B0      03B40        9372        L     R15,ALTDMP                                                 91580021
                                    9373 * FORMAT NEXT LINE                                                      91590021
 006684 5860 D0D4      03E6C        9374        L     RW1,LDMLOC                                                 91600021
 006688 4166 0018      00018        9375          LA    RW1,DX24(RW1)                                            91610021
 00668C 5060 D0D4      03E6C        9376        ST    RW1,LDMLOC                                                 91620021
 006690 47F0 F030      0655E        9377          BC    UNCOND,LTD20        GO CONVERT & MOVE                    91630021
1PH60     IKFCBL60                                                                                              PAGE  219
-  LOC  OBJECT CODE    ADDR1 ADDR2  STMT   SOURCE STATEMENT                                       ASM 0201 11.03 02/14/15
0                                   9378 * EXIT                                                                  91640021
 006694 58F0 C460      03AF0        9379 LTD85  L     R15,APUT                                                   91650021
 006698 05EF                        9380        BALR  RS1,R15               PRINT A LINE                         91660021
 00669A 58F0 C4B0      03B40        9381        L     R15,ALTDMP                                                 91670021
 00669E                             9382 LTD90    DS     0H                                                 9361 91680021
 00669E 95FF 91D0      001D0        9383          CLI   SEGLMT,NOTSEGTD   IS PROGRAM SEGMENTED              9361 91690021
 0066A2 4780 F184      066B2        9384          BC    EQ,LTD95          NO , DON'T NEED BLANK LINES       9361 91700021
 0066A6 58F0 C460      03AF0        9385          L     R15,APUT                                            9361 91710021
 0066AA 05EF                        9386          BALR  RS1,R15            PRINT BLANK LINE                 9361 91720021
 0066AC 05EF                        9387          BALR  RS1,R15            PRINT BLANK LINE                 9361 91730021
 0066AE 58F0 C4B0      03B40        9388          L     R15,ALTDMP                                          9361 91740021
 0066B2 980F F18A      066B8        9389 LTD95    LM    R0,R15,SLTDMP                                       9361 91750021
 0066B6 07FE                        9390          BCR   UNCOND,RS1          RETURN                               91760021
                                    9391 *                                                                       91770021
 0066B8                             9392 SLTDMP DS    16F                                                        91780021
 0066F8 D200 5000 6000 00000 00000  9393 LTDMVC   MVC   DX0(LX1,RW3),DX0(RW1)                                    91790021
                                    9394        DROP  R15                                                        91800021
1PH60     IKFCBL60                                                                                              PAGE  220
-  LOC  OBJECT CODE    ADDR1 ADDR2  STMT   SOURCE STATEMENT                                       ASM 0201 11.03 02/14/15
0                                   9396 *      ALL TABLES FROM HERE SHOULD BE REFERRED TO THRU ADCONS           91820021
                                    9397 *                                                                       91830021
                                    9398 *=1    SYMBOLIC OPERAND TABLE                                           91840021
                                    9399 *                                                                       91850021
                             066FE  9400 XSYMC  EQU     *                                                        91860021
 0066FE C4D5D47E                    9401 XDNC   DC      C'DNM='      SOURCE DATA NAME                            91870021
                                    9402 *      THIS GROUP MUST BE IN ORDER                                      91880021
 006702 E2C1E54E                    9403 XSAVC  DC      C'SAV+'      SAVE AREA CELL                              91890021
 006706 E2E6E34E                    9404        DC      C'SWT+'      SWITCH CELL                                 91900021
 00670A E3D3E84E                    9405        DC      C'TLY+'      TALLY CELL                                  91910021
 00670E E2E2E5C5                    9406          DC    C'SSVE'             SORT SAVE CELL                       91920021
 006712 C5C3C24E                    9407        DC      C'ECB+'      ECB CELL                                    91930021
 006716 D9D7C54E                    9408        DC      C'RPE+'      RANDOM PROCESSING ECB CELL                  91940021
 00671A D9D7C84E                    9409        DC      C'RPH+'      RANDOM PROCESSING HOLD CELL                 91950021
                                    9410 *      THIS GROUP MUST BE IN ORDER                                      91960021
                             0671E  9411 XDCBC  EQU     *                                                        91970021
 00671E C4C3C27E                    9412        DC      C'DCB='      DCB ADDR                                    91980021
 006722 E5D3C37E                    9413          DC    C'VLC='                                                  91990021
 006726 D6D57EF0                    9414        DC      C'ON=0'      ON COUNTER                                  92000021
 00672A D7C6D47E                    9415        DC      C'PFM='      PERFORM COUNTER                             92010021
 00672E D7E2E57E                    9416        DC      C'PSV='      PERFORM SAVE                                92020021
 006732 C4C5C37E                    9417        DC      C'DEC='      DECB ADDR                                   92030021
 006736 E7E2C17E                    9418        DC      C'XSA='      EXHIBIT SAVE AREA                           92040021
 00673A D7D9D47E                    9419        DC      C'PRM='      PARAMETER                                   92050021
 00673E E6C37EF0                    9420        DC    C'WC=0'     WORKING CELL                                   92060021
 006742 E3E27EF0                    9421        DC    C'TS=0'     TEMPORARY STORAGE CELL                         92070021
 006746 E7E2E67E                    9422        DC      C'XSW='      EXHIBIT SWITCH                              92080021
 00674A E2C2E27E                    9423        DC    C'SBS='      SUBSCRIPT CELL (LATER ON ALSO)                92090021
 00674E E3E2F27E                    9424        DC    C'TS2='     TEMPORARY STORAGE (NON-ARITH)                  92100021
 006752 D9D7C97E                    9425          DC    C'RPI='     RANDOM PROCESSING INFO FOR SPECIFIED RPD     92110021
 006756 E5D3D67E                    9426        DC    C'VLO='                                                    92120021
 00675A E2C1E5F2                    9427        DC    C'SAV2'                                                    92130021
 00675E E2C1E5F3                    9428        DC    C'SAV3'                                                    92140021
 006762 D9E2E57E                    9429        DC    C'RSV='                                                    92150021
 006766 D6E5C67E                    9430        DC    C'OVF='               MAXOV                                92160021
 00676A C4C5C37E                    9431        DC    C'DEC='                                                    92170021
 00676E C3D2D77E                    9432        DC    C'CKP='               CHECKPOINT COUNTER                   92180021
 006772 E3E2F37E                    9433        DC    C'TS3='               TEMPORARY STORAGE-3                  92190021
 006776 E3E2F47E                    9434        DC    C'TS4='               TEMPORARY STORAGE-4                  92200021
 00677A C9D5E77E                    9435        DC    C'INX='               INDEX NAMES                          92210021
 00677E C9D6D77E                    9436        DC    C'IOP='               IOPTR FOR APPLY WRITE ONLY           92220021
                                    9437 *      THIS GROUP MUST BE IN ORDER                                      92230021
 006782 C2D3407E                    9438 XBLIC    DC    C'BL ='                                                  92240021
                             06786  9439 XBLLC  EQU     *                                                        92250021
 006786 C2D3D37E                    9440        DC      C'BLL='      BL FOR LINKAGE SECTION                      92260021
                             0678A  9441 XSBLC  EQU     *                                                        92270021
 00678A E2C2D37E                    9442          DC    C'SBL='                                                  92280021
                             0678E  9443 XSBSC  EQU     *                                                        92290021
 00678E E2C2E27E                    9444        DC      C'SBS='      SUBSCRIPT CELL                              92300021
1PH60     IKFCBL60                                                                                              PAGE  221
-  LOC  OBJECT CODE    ADDR1 ADDR2  STMT   SOURCE STATEMENT                                       ASM 0201 11.03 02/14/15
0                                   9446 *                                                                       92320021
                                    9447 *=1    A-TEXT FOR INIT1                                                 92330021
                             06792  9448 INIT1  EQU   *                                                          92340021
                                    9449 *=1    A-TEXT FOR INIT1                                                 92350021
                                    9450 *=     (THIS PART PERMANENT)                                            92360021
                             06792  9451 INITOS EQU   *                INIT1 FOR OS/360                          92370021
 006792 480700                      9452        DC    X'480700'             BCR  0,0                             92380021
 006795 4890EC70D00C                9453        DC    X'4890EC70D00C'       STM  14,12,12(13)                    92390021
 00679B 48185D                      9454        DC    X'48185D'             LR   5,13                            92400021
 00679E 4805F0                      9455        DC    X'4805F0'             BALR 15,0                            92410021
 0067A1 48989F70F012                9456 INITIX DC    X'48989F70F012'       LM   9,15,12(15)                     92420021
 0067A7 4807FF                      9457        DC    X'4807FF'             BCR  15,15                           92430021
 0067AA 489602701034                9458        DC    X'489602701034'       OI   34(1),X'02'                     92440021
 0067B0 4807FE                      9459        DC    X'4807FE'             BCR  15,14                           92450021
 0067B3 4841F0700001                9460        DC    X'4841F0700001'       LA   15,1                            92460021
 0067B9 4807FE                      9461        DC    X'4807FE'             BCR  15,14                           92470021
 0067BC 44188430040000              9462        DC    X'44188430040000'     DC   A(INIT3)                        92480021
 0067C3 44188400040000              9463 SEGLAB DC    X'44188400040000'     DC  V(SEGM)                     STAN 92490021
 0067CA 44188400040000              9464        DC    X'44188400040000'     DC   A(INIT1)                        92500021
 0067D1 44188438040000              9465        DC    X'44188438040000'     DC   A(PGT)                          92510021
 0067D8 4418843C040000              9466        DC    X'4418843C040000'     DC   A(TGT)                          92520021
 0067DF 44188444040000              9467 INITIW DC    X'44188444040000'    DC   A(START)                         92530021
 0067E6 44188440040000              9468        DC    X'44188440040000'     DC   A(INIT2)                        92540021
 0067ED 00                          9469        DC    X'00'                                                      92550021
                                    9470 * SAVE AREA OF 15 WORDS WILL BE GENERATED AFTER INIT1                   92560021
                                    9471 *                                                                       92570021
                                    9472 * DCB EXIT ROUTINE FOR BISAM CORE-INDEX OPTION                          92580021
                                    9473 *                                                                       92590021
                             067EE  9474 INIT1A EQU *                                                            92600021
 0067EE 480700                      9475          DC    XL3'480700'         BCR  0,0                       41095 92610021
 0067F1 480530                      9476          DC    XL3'480530'              BALR  3,0                 41095 92620021
 0067F4 481821                      9477        DC    X'481821'             LR   2,1                             92630021
                                    9478 *DEL                                                                    92640021
                                    9479 *DEL                                                                    92650021
                                    9480 *DEL                                                                    92660021
                                    9481 *DEL                                                                    92670021
                                    9482 *DEL                                                                    92680021
                                    9483 *DEL                                                                    92690021
                                    9484 *DEL                                                                    92700021
 0067F7 48411070002C                9485          DC    X'48411070002C'         LA   1,42(0,0)             41095 92710021
 0067FD 481E13                      9486          DC    X'481E13'               AR   1,3                   41095 92720021
 006800 484110701000                9487          DC    X'484110701000'         LA   1,0(0,1)              41095 92730021
 006806 48D7077030287030            9488          DC    XL9'48D707703028703028'  XC 40(8,3),40(3)          41095 92740021
 00680F 485010701000                9489          DC    X'485010701000'         ST   1,0(0,1)              41095 92750021
 006815 48D20170302A7020            9490          DC    XL9'48D20170302A702096'  MVC   42(2,3),150(2)      41095 92760021
 00681E 48D5017030287030            9491          DC    X'48D50170302870302A'    CLC  40(2,3),42(3)        41095 92770021
 006827 48078E                      9492          DC    X'48078E'                BCR  8,14                 41095 92780021
 00682A 484510703032                9493          DC    XL6'484510703032'        BAL 1,50(3)               41095 92790021
 006830 44246C04                    9494          DC    XL4'44246C04'            DC  A(LENGTH)             41095 92800021
 006834 00000000                    9495          DC    XL4'00000000'            *                         41095 92810021
 006838 44246C04                    9496          DC    XL4'44246C04'            DC  A(FIELD)              41095 92820021
 00683C 00000000                    9497          DC    XL4'00000000'            *                         41095 92830021
 006840 44246C02                    9498          DC    XL4'44246C02'            DC  XL2'2000'             41095 92840021
 006844 2000                        9499          DC    XL2'2000'                *                         41095 92850021
 006846 480A04                      9500          DC    XL3'480A04'              SVC  4                    41095 92860021
1PH60     IKFCBL60                                                                                              PAGE  222
-  LOC  OBJECT CODE    ADDR1 ADDR2  STMT   SOURCE STATEMENT                                       ASM 0201 11.03 02/14/15
0006849 481812                      9501          DC    X'481812'               LR   1,2                   41095 92870021
 00684C 4812FF                      9502          DC    XL3'4812FF'              LTR 15,15                 41095 92880021
 00684F 48077E                      9503          DC    XL3'48077E'              BCR  7,14                 41095 92890021
 006852 48D2017020447030            9504          DC    XL9'48D20170204470302A'  MVC  68(2,2),42(3)        41095 92900021
 00685B 48D2027020497030            9505          DC    XL9'48D20270204970302D'  MVC  73(3,2),45(3)        41095 92910021
 006864 4807FE                      9506        DC    X'4807FE'             BCR  15,14                           92920021
 006867 00                          9507        DC    X'00'                                                      92930021
1PH60     IKFCBL60                                                                                              PAGE  223
-  LOC  OBJECT CODE    ADDR1 ADDR2  STMT   SOURCE STATEMENT                                       ASM 0201 11.03 02/14/15
0                                   9509 *                                                                       92950021
                                    9510 *=1      A-TEXT FOR INIT2                                               92960021
 006868                             9511 INIT2  DS    0C                                                         92970021
                             06868  9512 INOS2  EQU   *                INIT2 FOR OS/360                          92980021
 006868 4850D0705008                9513        DC    X'4850D0705008'       ST   13,8(5)                         92990021
 00686E 48505070D004                9514        DC    X'48505070D004'       ST   5,4(13)                         93000021
 006874 4850E070D054                9515        DC    X'4850E070D054'        ST 14,WC                            93010021
 00687A 4894EF600400                9516         DC    X'4894EF600400'          NI SWITCH,X'EF'             9652 93020021
 006880 4858F0580001                9517        DC    X'4858F0580001'       L    15,=V(ILBOSTP0)                 93030021
 006886 4805EF                      9518        DC    X'4805EF'             BALR 14,15                           93040021
 006889 48501070D1B8                9519          DC    X'48501070D1B8'    ST  1,1B,(D)  SAVE SUBCOM ADDR        93050021
 00688F 481200                      9520        DC    X'481200'             LTR  0,0                             93060021
 006892 480789                      9521          DC    X'480789'      BCR 8,9                                   93070021
 006895 489610600400                9522        DC    X'489610600400'       OI   SWITCH,X'10'                    93080021
 00689B 00                          9523        DC    X'00'                                                      93090021
                                    9524 *      ADDITIONAL ATEXT FOR INIT2 IF OS/360                             93100021
                                    9525 *      ***** THIS PORTION GENERATED ONCE/PROGRAM                        93110021
                             0689C  9526 SECT0  EQU   *           PGT OVERFLOW INITIALIZATION                    93120021
 00689C 48411070C000                9527        DC    X'48411070C000'            LA    1,0(12)                   93130021
 0068A2 48417058000180FF            9528        DC    X'48417058000180FFFFFF'    LA    7,VIR=1-1                 93140021
 0068AC 480550                      9529        DC    X'480550'                  BALR  5,0                       93150021
 0068AF 485840701000                9530        DC    X'485840701000'            L     4,0(1)                    93160021
 0068B5 481E4B                      9531        DC    X'481E4B'                  AR    4,11                      93170021
 0068B8 485040701000                9532        DC    X'485040701000'            ST    4,0(1)                    93180021
 0068BE 488716705000                9533        DC    X'488716705000'            BXLE  1,6,0(5)                  93190021
 0068C4 00                          9534        DC    X'00'                                                      93200021
                             068C5  9535 SECT1  EQU   *      PGT INITIALIZATION                                  93210021
 0068C5 4841104C000001              9536        DC    X'4841104C000001'      LA  1,PN=1                          93220021
 0068CC 48417068                    9537        DC    X'48417068'                LA   7,LTL=1                    93230021
 0068D0 0001                        9538 LITSEG   DC    X'0001'             LITERAL = 1                          93240021
 0068D2 480670                      9539        DC    X'480670'                  BCTR 7,0                        93250021
 0068D5 480550                      9540        DC    X'480550'             BALR 5,0                             93260021
 0068D8 48584070100000              9541        DC    X'48584070100000'    L    J,0(1) FOLLOWED BY END OF BL     93270021
 0068DF 48917F701000                9542 SECT1A   DC    X'48917F701000'     TM  0(1),X'7F'                       93280021
 0068E5 484780705016                9543        DC    X'484780705016'       BC  8,16(5)                          93290021
 0068EB 484180708000                9544        DC    X'484180708000'       LA  8,0(8)                           93300021
 0068F1 481E4A                      9545        DC    X'481E4A'             ALR 4,10                        STAN 93310021
 0068F4 4847F0705018                9546        DC    X'4847F0705018'       B   18(5)                            93320021
 0068FA 481E4B                      9547 SECT1B DC    X'481E4B'            ALR  4,11                             93330021
 0068FD 485040701000                9548        DC    X'485040701000'       ST   4,0(1)                          93340021
 006903 488716705000                9549        DC    X'488716705000'                BXLE 1,6,0(5)               93350021
 006909 00                          9550        DC    X'00'                                                      93360021
                                    9551 *                                                                       93370021
                                    9552 *      ***** THIS PORTION GENERATED ONCE/RPD/CYCLE + ONCE/PROGRAM       93380021
                             0690A  9553 SECTX2 EQU   *           PGT OVERFLOW INITIALIZATION                    93390021
 00690A 48418064480001              9554        DC    X'48418064480001'          LA    8,MAXOV                   93400021
 006911 4841706424000180            9555        DC    X'4841706424000180FFFFFF'  LA    7,TS=1-1                  93410021
 00691C 480510                      9556        DC    X'480510'                  BALR  1,0                       93420021
 00691F 485800708000                9557        DC    X'485800708000'            L     0,0(8)                    93430021
 006925 481E0B                      9558        DC    X'481E0B'                  AR    0,11                      93440021
 006928 485000708000                9559        DC    X'485000708000'            ST    0,0(8)                    93450021
 00692E 488786701000                9560        DC    X'488786701000'            BXLE  8,6,0(1)                  93460021
 006934 00                          9561        DC    X'00'                                                      93470021
 006935 480540                      9562        DC    X'480540'             BALR 4,0                             93480021
 006938 4894FE60040100              9563 YQTXT  DC    X'4894FE60040100'      NI   SWITCH+1,254                   93490021
1PH60     IKFCBL60                                                                                              PAGE  224
-  LOC  OBJECT CODE    ADDR1 ADDR2  STMT   SOURCE STATEMENT                                       ASM 0201 11.03 02/14/15
0                            0693F  9564 INIT3  EQU   *                                                          93500021
 00693F 4805F0                      9565        DC    X'4805F0'             BALR 15,0                            93510021
 006942 489120600400                9566        DC    X'489120600400'       TM   SWITCH,X'20'   PGM INITIALI     93520021
 006948 4847E070F016                9567          DC    X'4847E070F016'   BC OFF,TRAN003  NO-INITIAL             93530021
 00694E 48580070B038                9568          DC    X'48580070B038'    L 0,SAVEP2                      7338  93540021
 006954 48982D70B040                9569          DC    X'48982D70B040'  LM  2,13,SAVEP2+8                 7338  93550021
 00695A 4858E070D054                9570          DC    X'4858E070D054'    L 14,84(13)                           93560021
 006960 4807FE                      9571        DC    X'4807FE'             BCR  15,14          RETURN           93570021
 006963 489620600400                9572        DC    X'489620600400'       OI   SWITCH,X'20'   TRAN003-SET      93580021
 006969 484160700004                9573        DC    X'484160700004'       LA   6,4                             93590021
 00696F 00                          9574        DC    X'00'                                                      93600021
                             06970  9575 INIT3B EQU   *                                                          93610021
 006970 4858E070D054                9576          DC    X'4858E070D054'     L    14,84(13)                       93620021
 006976 4807FE                      9577          DC    X'4807FE'           BCR  15,14                           93630021
 006979 00                          9578          DC    X'00'                                                    93640021
                                    9579 *                                                                       93650021
 00697A 489601600401                9580 XQTXT  DC    X'489601600401'       OI   SWITCH+1,1                      93660021
 006980 00                          9581        DC    X'00'                                                      93670021
                                    9582 *                                                                       93680021
                                    9583 *                                                                       93690021
1PH60     IKFCBL60                                                                                              PAGE  225
-  LOC  OBJECT CODE    ADDR1 ADDR2  STMT   SOURCE STATEMENT                                       ASM 0201 11.03 02/14/15
0                                   9585 *                                                                       93710021
                                    9586 *=1      ADCON LISTING ELEMENTS                                         93720021
 006981 4DC9D5C9E3F15D              9587 RLTBL  DC    C'(INIT1)'                                                 93730021
 006988 4DE3C1D3D3E85D              9588        DC    C'(TALLY)'                                                 93740021
 00698F 4DD7D9D47E4040              9589        DC    C'(PRM=  '                                                 93750021
 006996 4DC2D3407EF040              9590          DC    C'(BL =0 '                                               93760021
 00699D 40404040404040              9591          DC    C'       '          ** NOT PRESENTLY USED***             93770021
 0069A4 4DE2C2D37E4040              9592          DC    C'(SBL=  '                                               93780021
 0069AB 40404040404040              9593          DC    C'       '          ** NOT PRESENTLY USED***             93790021
 0069B2 4DE5D3C37E4040              9594          DC    C'(VLC=  '                                               93800021
 0069B9 40404040404040              9595          DC    C'       '          ** NOT PRESENTLY USED***             93810021
 0069C0 40404040404040              9596          DC    C'       '          ** NOT PRESENTLY USED***             93820021
 0069C7 4DC2D3D37E4040              9597        DC    C'(BLL=  '                                                 93830021
 0069CE 4DD3E3D34E4040              9598        DC    C'(LTL+  '                                                 93840021
 0069D5 4DC9D5C9E3F35D              9599        DC    C'(INIT3)'                                                 93850021
 0069DC 40404040404040              9600          DC    C'       '          ** NOT PRESENTLY USED***             93860021
 0069E3 4DD7C7E35D4040              9601        DC    C'(PGT)  '                                                 93870021
 0069EA 4DE3C7E35D4040              9602        DC      C'(TGT)  '                                               93880021
 0069F1 4DC9D5C9E3F25D              9603        DC    C'(INIT2)'                                                 93890021
 0069F8 4DE2E3C1D9E35D              9604        DC    C'(START)'                                                 93900021
 0069FF 4DD7D57EF04040              9605        DC    C'(PN=0  '                                                 93910021
 006A06 4DE5C9D97E4040              9606        DC    C'(VIR=  '                                                 93920021
 006A0D 4DC7D57EF04040              9607        DC    C'(GN=0  '                                                 93930021
 006A14 40404040404040              9608          DC    C'       '          ** NOT PRESENTLY USED***             93940021
 006A1B 4DE5D57DE25D40              9609          DC    C'(VN''S) '                                              93950021
 006A22 4DE5D5C97DE25D              9610          DC    C'(VNI''S)'                                              93960021
 006A29 4DE2C2E27E4040              9611        DC    C'(SBS=  '                                                 93970021
 006A30 4DE3E27EF04040              9612        DC    C'(TS=0  '                                                 93980021
 006A37 4DE2C5C7D4E35D              9613        DC    C'(SEGMT)'                                                 93990021
1PH60     IKFCBL60                                                                                              PAGE  226
-  LOC  OBJECT CODE    ADDR1 ADDR2  STMT   SOURCE STATEMENT                                       ASM 0201 11.03 02/14/15
0                                   9615 *                                                                       94010021
                                    9616 *=1    CNOP TABLE--NO OF BCR 0,0 INSTRUCTIONS TO BE                     94020021
                                    9617 *=                 GENERATED DEPENDING ON CNOP SPECIFICATIONS           94030021
                                    9618 *=                 AND LOCCTR                                           94040021
                             06A3E  9619 CNOPT  EQU   *                                                          94050021
 006A3E 00                          9620        DC    X'0'                                                       94060021
 006A3F 01                          9621        DC    X'1'                                                       94070021
 006A40 00                          9622        DC    X'0'                                                       94080021
 006A41 01                          9623        DC    X'1'                                                       94090021
 006A42 01                          9624        DC    X'1'                                                       94100021
 006A43 00                          9625        DC    X'0'                                                       94110021
 006A44 01                          9626        DC    X'1'                                                       94120021
 006A45 00                          9627        DC    X'0'                                                       94130021
 006A46 00                          9628        DC    X'0'                                                       94140021
 006A47 03                          9629        DC    X'3'                                                       94150021
 006A48 02                          9630        DC    X'2'                                                       94160021
 006A49 01                          9631        DC    X'1'                                                       94170021
 006A4A 01                          9632        DC    X'1'                                                       94180021
 006A4B 00                          9633        DC    X'0'                                                       94190021
 006A4C 03                          9634        DC    X'3'                                                       94200021
 006A4D 02                          9635        DC    X'2'                                                       94210021
 006A4E 02                          9636        DC    X'2'                                                       94220021
 006A4F 01                          9637        DC    X'1'                                                       94230021
 006A50 00                          9638        DC    X'0'                                                       94240021
 006A51 03                          9639        DC    X'3'                                                       94250021
 006A52 03                          9640        DC    X'3'                                                       94260021
 006A53 02                          9641        DC    X'2'                                                       94270021
 006A54 01                          9642        DC    X'1'                                                       94280021
 006A55 00                          9643        DC    X'0'                                                       94290021
 006A56                             9644        DS    500C                                                       94300021
1PH60     IKFCBL60                                                                                              PAGE  227
-  LOC  OBJECT CODE    ADDR1 ADDR2  STMT   SOURCE STATEMENT                                       ASM 0201 11.03 02/14/15
0                                   9646 * DESCRIPTION OF PHASE 6 TABLES                                         94320021
                                    9647 *      FILTBL                                                           94330021
                                    9648 *      TIB=2                                                            94340021
                                    9649 *      PRIMING VALUE IS 256                                             94350021
                                    9650 *      ENTRY LENGTH IS 12 BYTES                                         94360021
                                    9651 *      GROW FACTOR IS VARIABLE                                          94370021
                                    9652 *      FORMAT  // VIRTUAL LOCCTR //                                     94380021
                                    9653 *            VIRTUAL IS AN 8-BYTE FIELD CONTAINING THE NAME OF A        94390021
                                    9654 *                   VIRTUAL ASSOCIATED WITH A DCB OR DTF                94400021
                                    9655 *            LOCCTR CONTAINS THE LOCATION TO BE ENTERED ON THE ESD      94410021
                                    9656 *                   CARD.  IT IS 4 BYTES LONG                           94420021
                                    9657 *                                                                       94430021
0
                                    9659 *      CONTBL                                                           94450021
                                    9660 *      TIB= 9                                                           94460021
                                    9661 *      PRIMING VALUE IS VARIABLE                                        94470021
                                    9662 *      ENTRY LENGTH IS VARIABLE                                         94480021
                                    9663 *      GROW FACTOR IS VARIABLE                                          94490021
                                    9664 *      FORMAT  // LITERAL //                                            94500021
                                    9665 *            LITERAL IS A VARIABLE-LENGTH UNIQUE LITERAL                94510021
                                    9666 *             USED FOR SOMETHING OTHER THAN DISPLAY.                    94520021
                                    9667 *            CONTBL IS USED TO HOLD LITERALS WHILE THEY ARE             94530021
                                    9668 *            BEING OPTIMIZED.                                           94540021
0
                                    9670 *      CONDIS                                                           94560021
                                    9671 *      TIB= 14                                                          94570021
                                    9672 *      PRIMING VALUE IS VARIABLE                                        94580021
                                    9673 *      ENTRY LENGTH IS VARIABLE                                         94590021
                                    9674 *      GROW FACTOR IS VARIABLE                                          94600021
                                    9675 *      FORMAT  // LITERAL //                                            94610021
                                    9676 *            LITERAL IS A VARIABLE-LENGTH UNIQUE LITERAL                94620021
                                    9677 *             USED FOR DISPLAY.                                         94630021
                                    9678 *            CONDIS IS USED TO HOLD LITERALS WHILE THEY ARE             94640021
                                    9679 *            BEING OPTIMIZED.                                           94650021
0
                                    9681 *      LTLTBL                                                           94670021
                                    9682 *     TIB=4                                                             94680021
                                    9683 *      PRIMING VALUE IS VARIABLE                                        94690021
                                    9684 *      ENTRY LENGTH IS 2 BYTES                                          94700021
                                    9685 *      GROW FACTOR IS VARIABLE                                          94710021
                                    9686 *      FORMAT  // PTR//                                                 94720021
                                    9687 *            PTR IS A 2-BYTE DISPLACEMENT FROM THE START OF THE PGT     94730021
                                    9688 *            LTLTBL CONTAINS THE LOCATION OF EACH LITERAL               94740021
                                    9689 *            RELATIVE TO THE START OF THE PGT.                          94750021
0
                                    9691 *      LVIRTB                                                           94770021
                                    9692 *      TIB= 11                                                          94780021
                                    9693 *      PRIMING VALUE IS VARIABLE                                        94790021
                                    9694 *      ENTRY LENGTH IS 8 BYTES                                          94800021
                                    9695 *      GROW FACTOR IS VARIABLE                                          94810021
                                    9696 *      FORMAT  // VIRTUAL //                                            94820021
1PH60     IKFCBL60                                                                                              PAGE  228
-  LOC  OBJECT CODE    ADDR1 ADDR2  STMT   SOURCE STATEMENT                                       ASM 0201 11.03 02/14/15
0                                   9697 *            VIRTUAL IS AN 8-CHARACTER VIRTUAL NAME USED FOR LINK.      94830021
                                    9698 *            LVIRTB CONTAINS UNIQUE LINK VIRTUAL NAMES.                 94840021
0
                                    9700 *      CVIRTB                                                           94860021
                                    9701 *      TIB= 12                                                          94870021
                                    9702 *      PRIMING VALUE IS VARIABLE                                        94880021
                                    9703 *      ENTRY LENGTH IS 8 BYTES                                          94890021
                                    9704 *      GROW FACTOR IS VARIABLE                                          94900021
                                    9705 *      FORMAT  // VIRTUAL //                                            94910021
                                    9706 *            VIRTUAL IS AN 8-CHARACTER VIRTUAL NAME USED FOR CALL.      94920021
                                    9707 *            CVIRTB CONTAINS UNIQUE CALL VIRTUAL NAMES.                 94930021
0
                                    9709 *      VIRPTR                                                           94950021
                                    9710 *      TIB= 13                                                          94960021
                                    9711 *      PRIMING VALUE IS VARIABLE                                        94970021
                                    9712 *      ENTRY LENGTH IS 2 BYTES                                          94980021
                                    9713 *      GROW FACTOR IS VARIABLE                                          94990021
                                    9714 *      FORMAT  // PTR //                                                95000021
                                    9715 *            PTR IS A 2-BYTE DISPLACEMENT FROM THE START OF THE PGT     95010021
                                    9716 *            VIRPTR CONTAINS THE LOCATION OF EACH VIRTUAL               95020021
                                    9717 *            RELATIVE TO THE START OF THE PGT.                          95030021
0
                                    9719 *      RLDTBL                                                           95050021
                                    9720 *     USES TABLE SPACE GOTTEN FROM GETALL                               95060021
                                    9721 *     LENGTH IS VARIABLE                                                95070021
                                    9722 *      ENTRY LENGTH IS 8 BYTES                                          95080021
                                    9723 *      GROW FACTOR IS VARIABLE                                          95090021
                                    9724 *      FORMAT  // CC TARGET PTY RELLOC //                               95100021
                                    9725 *            CC IS A CODE BYTE INDICATING TYPE AND LENGTH OF ADCON.     95110021
                                    9726 *            TARGET IS THE 3-BYTE ADDRESS OF THE ADCON.                 95120021
                                    9727 *      PTY IS PTY OF A SEGM POINTED TO BY 3 BYTES THAT FOLLOW           95130021
                                    9728 *            RELLOC IS THE 3-BYTE VALUE OF THE ADCON.                   95140021
                                    9729 *            RLDTBL IS USED TO HOLD ADCONS NEEDED IN THE                95150021
                                    9730 *            GLOBAL TABLES.                                             95160021
0
                                    9732 *      QTBL                                                             95180021
                                    9733 *      TIB= 3                                                           95190021
                                    9734 *      PRIMING VALUE IS VARIABLE                                        95200021
                                    9735 *      ENTRY LENGTH IS 2 BYTES                                          95210021
                                    9736 *      GROW FACTOR IS VARIABLE                                          95220021
                                    9737 *      FORMAT  // GGGG //                                               95230021
                                    9738 *            GGGG IS A GN NUMBER.                                       95240021
                                    9739 *            QTBL CONTAINS THE GN NUMBERS OF Q-RTNES.                   95250021
0
                                    9741 *      PNTBL                                                            95270021
                                    9742 *      TIB= 7                                                           95280021
                                    9743 *      PRIMING VALUE IS VARIABLE                                        95290021
                                    9744 *      ENTRY LENGTH IS 2 BYTES                                          95300021
                                    9745 *      GROW FACTOR IS VARIABLE                                          95310021
                                    9746 *      FORMAT  // NNNN //                                               95320021
1PH60     IKFCBL60                                                                                              PAGE  229
-  LOC  OBJECT CODE    ADDR1 ADDR2  STMT   SOURCE STATEMENT                                       ASM 0201 11.03 02/14/15
0                                   9747 *            NNNN IS A NUMBER RELATIVE TO THE BEGINNING OF PN CELLS     95330021
                                    9748 *            PNTBL HAS AN ENTRY FOR EACH REFERENCED PN.                 95340021
0
                                    9750 *      GNTBL                                                            95360021
                                    9751 *      TIB= 8                                                           95370021
                                    9752 *      PRIMING VALUE IS VARIABLE                                        95380021
                                    9753 *      ENTRY LENGTH IS 2 BYTES                                          95390021
                                    9754 *      GROW FACTOR IS VARIABLE                                          95400021
                                    9755 *      FORMAT  // NNNN //                                               95410021
                                    9756 *            NNNN IS A NUMBER RELATIVE TO THE BEGINNING OF PN CELLS     95420021
                                    9757 *            GNTBL HAS AN ENTRY FOR EACH GN.                            95430021
0
                                    9759 *                                                                       95450021
1PH60     IKFCBL60                                                                                              PAGE  230
-  LOC  OBJECT CODE    ADDR1 ADDR2  STMT   SOURCE STATEMENT                                       ASM 0201 11.03 02/14/15
0                                   9761 *=1            INPUT AREA -- A-TEXT ELEMENT DEFINITIONS                 95470021
                                    9762 *                                                                       95480021
 000000                             9763 A6TEXT DSECT                                                            95490021
 000000                             9764        DS    0CL125                                                     95500021
 000000                             9765 A6OP   DS    CL1                        OP ELEMENT-48                   95510021
 000001                             9766 A6OPCD DS    CL1                          CODE                          95520021
 000002                             9767 A6ABSV DS    CL1                          VALUE                         95530021
 000003                      00000  9768        ORG   A6TEXT                                                     95540021
 000000                             9769 A6BDP  DS    CL1                        BDISP ELEMENT-70                95550021
 000001                             9770 A6BDPB DS    CL1                          BASE,FIRST 4 DISP             95560021
 000002                             9771 A6BDPD DS    CL1                          DISPLACEMENT,LAST 8           95570021
 000003                      00000  9772        ORG   A6TEXT                                                     95580021
 000000                             9773 A6ADR  DS    CL1                        ADR ELEMENT-78                  95590021
 000001                             9774 A6ADRI DS    CL1                          I,FIRST 4 DISP                95600021
 000002                             9775 A6ADRD DS    CL1                          DISPLACEMENT,LAST 8           95610021
 000003                             9776 A6ADRK DS    CL1                          K                             95620021
 000004                             9777 A6ADRP DS    CL3                          POINTER-DICTIONARY            95630021
 000007                             9778 A6ADIN DS    CL3                   INCR FOR PLUS ELT IF INCLUDED        95640021
 00000A                      00000  9779        ORG   A6TEXT                                                     95650021
 000000                             9780 A6PN   DS    CL1             PN ELEMENT-4C                              95660021
 000001                             9781 A6PNPR DS    CL1             PRIORITY NUMBER                            95670021
 000002                             9782 A6PNNO DS    CL2             PN NUMBER                                  95680021
 000004                      00000  9783        ORG   A6TEXT                                                     95690021
 000000                             9784 A6GN   DS    CL1                        GN ELEMENT-50                   95700021
 000001                             9785 A6GNNO DS    CL2                          NUMBER                        95710021
 000003                      00000  9786        ORG   A6TEXT                                                     95720021
 000000                             9787 A6VN   DS    CL1             VN ELEMENT                                 95730021
 000001                             9788 A6VNPR DS    CL1             PRIORITY NUMBER                            95740021
 000002                             9789 A6VNNO DS    CL2             VN NUMBER                                  95750021
 000004                      00000  9790        ORG   A6TEXT                                                     95760021
 000000                             9791 A6MAC  DS    CL1         MACRO                                          95770021
 000001                             9792 A6MACD DS    CL1         CODE                                           95780021
 000002                             9793 A6MAPR DS    CL1              SEGM PTY IF CODE=4C                       95790021
 000003                      00000  9794        ORG   A6TEXT                                                     95800021
 000000                             9795 A6VIR  DS    CL1         VIRREF                                         95810021
 000001                             9796 A6VIRN DS    CL2         NUMBER                                         95820021
 000003                      00000  9797        ORG   A6TEXT                                                     95830021
 000000                             9798 A6BL   DS    CL1                        BL ELEMENT-54                   95840021
 000001                             9799 A6BLI  DS    CL1         II OF ADDR ATTRIBUTE                           95850021
 000002                             9800 A6BLK  DS    CL1         KK OF ADDR ATTRIBUTE                           95860021
 000003                      00000  9801        ORG   A6TEXT                                                     95870021
 000000                             9802 A6GT1  DS    CL1         STD GLOBAL TABLE REF                           95880021
 000001                             9803 A6GT1C DS    CL1         CODE FOR TYPE                                  95890021
 000002                             9804 A6GT1D DS    CL1         DISP IN BYTES FROM FIRST BYTE OF CELL          95900021
 000003                      00000  9805        ORG   A6TEXT                                                     95910021
 000000                             9806 A6PLUS DS    CL1                        PLUS ELEMENT-80                 95920021
 000001                             9807 A6PLIN DS    CL3                          INCREMENT                     95930021
 000004                      00000  9808        ORG   A6TEXT                                                     95940021
 000000                             9809 A6CON  DS    CL1                        CON ELEMENT-68                  95950021
 000001                             9810 A6CCOD DS    CL1                          CODE                          95960021
 000002                             9811 A6CNO  DS    CL2                          NUMBER                        95970021
 000004                             9812 A6CL   DS    CL1                          LENGTH                        95980021
 000005                             9813 A6CCON DS    CL1                          CONSTANT-L*8                  95990021
 000006                      00000  9814        ORG   A6TEXT                                                     96000021
 000000                             9815 A6GT2  DS    CL1         OTHER GLOBAL TABLE REF                         96010021
1PH60     IKFCBL60                                                                                              PAGE  231
-  LOC  OBJECT CODE    ADDR1 ADDR2  STMT   SOURCE STATEMENT                                       ASM 0201 11.03 02/14/15
0000001                             9816 A6GT2C DS    CL1         CODE FOR TYPE OF CELL                          96020021
 000002                             9817 A6GT2N DS    CL2         NUMBER OF THE CELL                             96030021
 000004                      00000  9818        ORG   A6TEXT                                                     96040021
 000000                             9819 A6BCD  DS    CL1         BCD REFERENCE                                  96050021
 000001                             9820 A6BCDL DS    CL1         LENGTH OF BCD NAME                             96060021
 000002                             9821 A6BCDS DS    CL1         ACTUALLY IS L ABOVE IN LENGTH                  96070021
 000003                      00000  9822        ORG   A6TEXT                                                     96080021
 000000                             9823 A6CD   DS    CL1              CARD NUMBER                               96090021
 000001                             9824 A6CDNO DS    CL2                                                        96100021
 000003                      00000  9825        ORG   A6TEXT                                                     96110021
 000000                             9826 A6REGN DS    CL1         REGISTER NUMBER                                96120021
 000001                             9827 A6REGR DS    CL1         0N                                             96130021
 000002                      00000  9828        ORG   A6TEXT                                                     96140021
 000000                             9829 A6LTL  DS    CL1              LITERAL REFERENCE                         96150021
 000001                             9830 A6LTLR   DS    CL2           RELATIVE NO.                          LITS 96160021
 000003                      00000  9831        ORG   A6TEXT                                                     96170021
 000000                             9832 A6DC   DS    CL1              DC DEF                                    96180021
 000001                             9833 A6DCL  DS    CL1                                                        96190021
 000002                             9834 A6DCV  DS    CL1                                                        96200021
 000003                      00000  9835        ORG   A6TEXT                                                     96210021
 000000                             9836 A6REL  DS    CL1              REL ADDRESS                               96220021
 000001                             9837 A6RAT  DS    CL1              TYPE                                      96230021
 000002                             9838 A6RAS  DS    CL1              SIGN AND SIZE                             96240021
 000003                             9839 A6RAN  DS    CL2              NUMBER                                    96250021
 000005                      00000  9840        ORG   A6TEXT                                                     96260021
 000000                             9841 A6CSD  DS    CL1         CALLING SEQ DISPL ELT                          96270021
 000001                             9842 A6CST  DS    CL1         TYPE                                           96280021
 000002                             9843 A6CSB  DS    CL1         BASE CODE                                      96290021
                                    9844 *                                                                       96300021
 000003                             9845 A6CSN  DS    CL2         NUMBER                                         96310021
 000005                      00000  9846        ORG   A6TEXT                                                     96320021
 000000                             9847 A6CSP  DS    CL1         CALLING SEQ DICT PTR                           96330021
 000001                             9848 A6CSPT DS    CL3         DICTIONARY POINTER                             96340021
 000004                      00000  9849        ORG   A6TEXT                                                     96350021
 000000                             9850 A6DCBA DS    CL1         DCBADEF                                        96360021
 000001                             9851 A6DCBL DS    CL3         RELLOC                                         96370021
 000004                             9852 A6DCBN DS    CL1         DCB=                                           96380021
 000005                      00000  9853        ORG   A6TEXT                                                     96390021
 000000                             9854 A6DECB DS    CL1         DECBADEF                                       96400021
 000001                             9855 A6DECL DS    CL3         RELLOC                                         96410021
 000004                             9856 A6DECD DS    CL1         NUMBER                                         96420021
 000005                             9857 A6DECR DS    CL2         RPD=                                           96430021
 000007                             9858 A6DECS DS    CL2         SIZE OF DECB IN WORDS                          96440021
 000009                      00000  9859        ORG   A6TEXT                                                     96450021
 000000                             9860 A6BLKA DS    CL1         BLKADEF                                        96460021
 000001                             9861 A6BLKL DS    CL3         RELLOC                                         96470021
 000004                             9862 A6BLKK DS    CL1         K FACTOR  BL=                                  96480021
 000005                             9863 A6BLKR DS    CL2         RPD=                                           96490021
 000007                             9864 A6BLKS DS    CL2         SIZE IN WORDS                                  96500021
 000009                      00000  9865        ORG   A6TEXT                                                     96510021
 000000                             9866 A6WSA  DS    CL1         W-S AREA                                       96520021
 000001                             9867 A6WSL  DS    CL3         RELLOC                                         96530021
 000004                             9868 A6WSK  DS    CL1         BL=                                            96540021
 000005                             9869 A6WSS  DS    CL3         SIZE IN WORDS                                  96550021
 000008                      00000  9870        ORG   A6TEXT                                                     96560021
1PH60     IKFCBL60                                                                                              PAGE  232
-  LOC  OBJECT CODE    ADDR1 ADDR2  STMT   SOURCE STATEMENT                                       ASM 0201 11.03 02/14/15
0000000                             9871 A6COND DS    CL1         CONDEF                                         96570021
 000001                             9872 A6CONL DS    CL3         RELLOC                                         96580021
 000004                             9873 A6CONT DS    CL1         TYPE                                           96590021
 000005                             9874 A6CONS DS    CL2         SIZE                                           96600021
 000007                             9875 A6CONLV  DS    CL1      LENGTH OF VALUE FOR ALL TYPE                    96610021
 000008                             9876 A6CONV DS    CL1         * VALUE                                        96620021
 000009                      00000  9877        ORG   A6TEXT                                                     96630021
 000000                             9878 A6ACON DS    CL1         ACONDEF                                        96640021
 000001                             9879 A6ACOL DS    CL3         RELLOC                                         96650021
 000004                             9880 A6ACOS DS    CL1         SIZE OF ACON                                   96660021
 000005                             9881 A6ACOA DS    CL3         RELADR                                         96670021
 000008                      00000  9882        ORG   A6TEXT                                                     96680021
 000000                             9883 A6QD   DS    CL1         QDEF                                           96690021
 000001                             9884 A6QGN  DS    CL2         GN= OF QRTNE                                   96700021
 000003                      00000  9885        ORG   A6TEXT                                                     96710021
 000000                             9886 A6PNCD DS    CL1         PN EQU CODE                                    96720021
 000001                             9887 A6PNCT DS    CL1                COUNT                                   96730021
 000002                             9888 A6PNL  DS    CL2                PN=                                     96740021
 000004                             9889 A6GNR  DS    CL2                GN=                                     96750021
 000006                      00000  9890        ORG   A6TEXT                                                     96760021
 000000                             9891 A6GNCD DS    CL1         GN EQU CODE                                    96770021
 000001                             9892 A6GNCT DS    CL1                COUNT                                   96780021
 000002                             9893 A6GNL  DS    CL2                GN=                                     96790021
 000004                             9894 A6GNRR DS    CL2                        GN=                             96800021
 000006                      00000  9895        ORG   A6TEXT                                                     96810021
 000000                             9896 A6CKPT DS    CL1         CKPTDEF                                        96820021
 000001                             9897 A6CKPD DS    CL2         DCB=                                           96830021
 000003                      00000  9898        ORG   A6TEXT                                                     96840021
 000000                             9899 A6MSGD DS    CL1         MSGDEF                                         96850021
 000001                             9900 A6MSGN DS    CL1         LENGTH OF ELT                                  96860021
 000002                             9901 A6MSGZ DS    CL1              ZERO                                      96870021
 000003                             9902 A6MSGM DS    CL2         MSG NUMBER                                     96880021
 000005                             9903 A6MSGC DS    CL2         REC NO OF SOURCE CARD                          96890021
 000007                             9904 A6MSGS DS    CL1         HIGH 4 BITS= SEVERITY                          96900021
 000008                      00007  9905        ORG   A6MSGS                                                     96910021
 000007                             9906 A6MSGP DS    CL1         LOW  4 BITS= PHASE NO                          96920021
 000008                      00000  9907        ORG   A6TEXT                                                     96930021
 000000                             9908 A6PARD DS    CL1         MSGPAR                                         96940021
 000001                             9909 A6PARN DS    CL1         LENGTH OF PARAM                                96950021
 000002                             9910 A6PAR  DS    CL1         * PARAM                                        96960021
 000003                      00000  9911        ORG   A6TEXT                                                     96970021
 000000                             9912 A6CODE DS    CL1                        HEX VALUE FOR ATEXT CODES       96980021
 000001                             9913        DS    CL124                      FOR MAX ATEXT REC               96990021
 00007D                      00000  9914          ORG   A6TEXT                                                   97000021
 000000                             9915 A6DNID   DS    CL1                 48-ID BYTE                           97010021
 000001                             9916 A6DNCRD  DS    CL2                 CARD NUMBER                          97020021
 000003                             9917 A6DNDICT DS    CL3                 DICT PTR                             97030021
 000006                             9918 A6DNLN   DS    CL1                 LENGTH OF NAME THAT FOLLOWS          97040021
 000007                      00000  9919          ORG  A6TEXT                                                    97050021
 000000                             9920 A6PNID   DS    CL1                 4C-ID BYTE                           97060021
 000001                             9921 A6PNNB   DS    CL2                 PN NUMBER                            97070021
 000003                             9922 A6PNCRD  DS    CL2                 CARD NUMBER                          97080021
 000005                             9923 A6PNLN   DS    CL1                 LENGTH OF NAME THAT FOLLOWS          97090021
 000006                      00000  9924          ORG   A6TEXT                                                   97100021
 000000                             9925 A6FLRF DS    CL1                   B8-FILE REF ID BYTE                  97110021
1PH60     IKFCBL60                                                                                              PAGE  233
-  LOC  OBJECT CODE    ADDR1 ADDR2  STMT   SOURCE STATEMENT                                       ASM 0201 11.03 02/14/15
0000001                             9926 A6FLDP DS    CL3                   DICTIONARY POINTER                   97120021
-
0
                                    9928        DROP  RB1                                                        97140021
                                    9929        DROP  RB2                                                        97150021
                                    9930        DROP  RB3                                                        97160021
                                    9931        DROP  INPUTR                                                     97170021
                             03690  9932        USING ERR010,RB4                                                 97180021
 006C50                             9933 IKF610   CSECT                                                          97190021
 00000C                             9934     END   PHASE6                                                        97200021
1PH60                                              RELOCATION DICTIONARY                                        PAGE  234
-POS.ID   REL.ID   FLAGS   ADDRESS                                                                ASM 0201 11.03 02/14/15
0 0001     0001      0C     000290
  0001     0002      0C     000294
  0001     0005      0C     000298
  0001     0006      0C     000018
  0002     0003      0C     000C88
  0002     0004      0C     001864
  0003     0004      0C     0018EC
  0005     0001      0C     003D90
  0005     0002      0C     003B10
  0005     0002      0C     003BFC
  0005     0003      0C     003AE0
  0005     0003      0C     003B88
  0005     0003      0C     003BB8
  0005     0003      0C     003BBC
  0005     0003      0C     003BC0
  0005     0003      0C     003BC4
  0005     0003      0C     003BC8
  0005     0003      0C     003BCC
  0005     0003      0C     003BD0
  0005     0003      0C     003BD4
  0005     0003      0C     003BD8
  0005     0003      0C     003BDC
  0005     0003      0C     003C08
  0005     0004      0C     003B14
  0005     0004      0C     003BE0
  0005     0004      0C     003BE4
  0005     0004      0C     003BE8
  0005     0004      0C     003BEC
  0005     0004      0C     003BF0
  0005     0004      0C     003BF4
  0005     0004      0C     003BF8
  0005     0004      0C     003C04
  0005     0004      0C     003C0C
  0005     0004      0C     003C10
  0005     0004      0C     003C14
  0005     0004      0C     003C18
  0005     0004      0C     003C1C
  0005     0004      0C     003C20
  0005     0004      0C     003C24
  0005     0004      0C     003C28
  0005     0004      0C     003C2C
  0005     0004      0C     003C30
  0005     0004      0C     003C34
  0005     0004      0C     003C3C
  0005     0006      0C     003B68
  0005     0007      0C     003AE8
  0005     0007      0C     003AEC
  0005     0007      0C     003AF0
  0005     0007      0C     003AF4
  0005     0007      0C     003AF8
  0005     0007      0C     003AFC
  0005     0007      0C     003B04
  0005     0007      0C     003B28
  0005     0007      0C     003B80
  0005     0007      0C     003C50
1PH60                                              RELOCATION DICTIONARY                                        PAGE  235
-POS.ID   REL.ID   FLAGS   ADDRESS                                                                ASM 0201 11.03 02/14/15
0 0005     0007      0C     003C54
  0005     0008      0C     003AE4
  0005     0008      0C     003B18
  0005     0008      0C     003B20
  0005     0008      0C     003B24
  0005     0008      0C     003B2C
  0005     0008      0C     003B84
  0005     0008      0C     003B8C
  0005     0008      0C     003B90
  0005     0008      0C     003B94
  0005     0008      0C     003B98
  0005     0008      0C     003B9C
  0005     0008      0C     003BA0
  0005     0009      0C     003B08
  0005     0009      0C     003B0C
  0005     0009      0C     003B1C
  0005     0009      0C     003B30
  0005     0009      0C     003B34
  0005     0009      0C     003B38
  0005     0009      0C     003B3C
  0005     0009      0C     003B40
  0005     0009      0C     003B44
  0005     0009      0C     003B48
  0005     0009      0C     003B4C
  0005     0009      0C     003B50
  0005     0009      0C     003B54
  0005     0009      0C     003B58
  0005     0009      0C     003B5C
  0005     0009      0C     003B60
  0005     0009      0C     003B64
  0005     0009      0C     003B6C
  0005     0009      0C     003B70
  0005     0009      0C     003B74
  0005     0009      0C     003B78
  0005     0009      0C     003B7C
  0005     0009      0C     003D94
  0006     0003      0C     003EC4

1PH60                                              ASSEMBLER DIAGNOSTICS AND STATISTICS                         PAGE  236
-                                                                                                 ASM 0201 11.03 02/14/15
0NO STATEMENTS FLAGGED IN THIS ASSEMBLY
 HIGHEST SEVERITY WAS    0
 OPTIONS FOR THIS ASSEMBLY
   ALIGN, ALOGIC, BUFSIZE(STD), DECK, ESD, FLAG(0), LINECOUNT(55), LIST, NOMCALL, YFLAG, WORKSIZE(2097152)
   NOMLOGIC, NONUMBER, NOOBJECT, NORENT, RLD, NOSTMT, NOLIBMAC, NOTERMINAL, NOTEST, NOXREF(SHORT)
   SYSPARM()
 WORK FILE BUFFER SIZE/NUMBER = 2558/ 1
 TOTAL RECORDS READ FROM SYSTEM INPUT       9720
 TOTAL RECORDS READ FROM SYSTEM LIBRARY      218
 TOTAL RECORDS PUNCHED                       484
 TOTAL RECORDS PRINTED                     10456
