1PH1A                                           EXTERNAL SYMBOL DICTIONARY                                      PAGE    1
-SYMBOL   TYPE  ID   ADDR  LENGTH LDID                                                            ASM 0201 11.03 02/14/15
0IKF101    SD  0001 000000 000F90
 PH1A      LD       00000A        0001
 IKF102    SD  0002 000F90 000EE4
 IKF103    SD  0003 001E78 000D76
 IKF104    SD  0004 002BF0 000F03
 IKF105    SD  0005 003AF8 00093C
 IKF106    SD  0006 004438 0007FA
 IKF107    SD  0007 004C38 000128
 IKF108    SD  0008 004D60 001010
 IKF108A   SD  0009 005D70 00008C
 IKF109    SD  000A 005E00 000DAC
 IKF110    SD  000B 006BB0 000CD2
 IKF111    SD  000C 007888 000DC6
 IKF112    SD  000D 008650 000B4A
 IKF113    SD  000E 0091A0 000412
 IKF114    SD  000F 0095B8 000D78
 IKF115    SD  0010 00A330 000748
 IKF116    SD  0011 00AA78 0000DA
 IKF117    SD  0012 00AB58 0006B4
1PH1A                                                                                                           PAGE    2
-  LOC  OBJECT CODE    ADDR1 ADDR2  STMT   SOURCE STATEMENT                                       ASM 0201 11.03 02/14/15
0                                      1 *$MODULE       PHASE1                                                   00007021
                                       2        IHBCOB                                                           00014021
                                       3+*     THIS IS A MACRO GENERATING COBOL COMMON AS A DSECT USED
                                       4+*      BY EVERY PHASE OF THE COBOL COMPILER
                                       5+*
                                       6+***********************************************************************
                                       7+*      COMMON - THE COMMUNICATIONS AREA
                                       8+***********************************************************************
                                       9+*      THIS TABLE IS LOCATED IN PH0 FOLLOWING THE ENTRY POINT- COS.
                                      10+*      AT ENTRY TO EACH PHASE R1 POINTS TO THE SLOT CONTAINING COSADDR.
 000000                               11+COS    DSECT
 000000                               12+       DS    3F          EXECUTABLE CODE IN PH0
 00000C                               13+TIB0     DS    2F
 000014                               14+TIB1     DS    2F
 00001C                               15+TIB2     DS    2F
 000024                               16+TIB3     DS    2F
 00002C                               17+TIB4     DS    2F
 000034                               18+TIB5     DS    2F
 00003C                               19+TIB6     DS    2F
 000044                               20+TIB7     DS    2F
 00004C                               21+TIB8     DS    2F
 000054                               22+TIB9     DS    2F
 00005C                               23+TIB10    DS    2F
 000064                               24+TIB11    DS    2F
 00006C                               25+TIB12    DS    2F
 000074                               26+TIB13    DS    2F
 00007C                               27+TIB14    DS    2F
 000084                               28+TIB15    DS    2F
 00008C                               29+TIB16    DS    2F
 000094                               30+TIB17    DS    2F
 00009C                               31+TIB18    DS    2F
 0000A4                               32+TIB19    DS    2F
 0000AC                               33+TIB20    DS    2F
 0000B4                               34+TIB21    DS    2F
 0000BC                               35+TIB22    DS    2F
 0000C4                               36+TIB23    DS    2F
 0000CC                               37+TIB24    DS    2F
 0000D4                               38+TIB25    DS    2F
 0000DC                               39+TIB26    DS    2F
 0000E4                               40+TIB27    DS    2F
 0000EC                               41+TIB28    DS    2F
 0000F4                               42+TIB29    DS    2F
 0000FC                               43+TIB30    DS    2F
 000104                               44+TIB31    DS    2F
 00010C                               45+TIB32    DS    2F
 000114                               46+TIB33    DS    2F
 00011C                               47+TIB34    DS    2F
 000124                               48+TIB35    DS    2F
 00012C                               49+APRIME DS    F           ADDRESS OF SUBROUTINE-PRIME   IN TAMER
 000130                               50+AINSRT DS    F           ADDRESS OF SUBROUTINE-INSERT  IN TAMER
 000134                               51+ADSTAT DS    F           ADDRESS OF SUBROUTINE-STATIC  IN TAMER
 000138                               52+RELADD DS    F           ADDRESS OF SUBROUTINE-TABREL  IN TAMER
 00013C                               53+TAMNAD DS    F
 000140                               54+ACCESW DS    C           ACCESS INITIALIZATION SWITCH
 000141                               55+AMAINF   DS    CL3       POINTER TO THE MAIN FREE AREA FOR TABLES/DICT.
1PH1A                                                                                                           PAGE    3
-  LOC  OBJECT CODE    ADDR1 ADDR2  STMT   SOURCE STATEMENT                                       ASM 0201 11.03 02/14/15
0000144                               56+ALSTAM DS    F           POINTER TO THE LAST ENTRY IN TAMM
 000148                               57+LOCCTR DS    F           RELATIVE ADDRESS OF THE NEXT AVAILABLE LOC
 00014C                               58+LOCCTR1  DS    F
 000150                               59+PROGID   DS    CL8       PROGRAM-ID FROM THE IDENTICATION DIVISION
 000158                               60+LABELS DS    H           CONTAINS LABEL INFORMATION.
 00015A                               61+SEGCNTR  DS    H         NUMBER OF SEGMENTS HIGHER THAN SEGMENT LIMIT -
                                      62+*                        USED BY PHASE 6
 00015C                               63+PNCTR  DS    H           COUNTER FOR ASSIGNING PB NUMBERS TO PROC.NAMES
 00015E                               64+GNCTR  DS    H           CTR. ASSIGNING GN NO.TO GENERATED PROC. NAMES
 000160                               65+DCBCTR DS    H           CTR. ASSIGNING ID.NO.TO DCB'S
 000162                               66+VIRCTR DS    H           CTR. ASSIGNING ID.NO.TO VIRTUALS
 000164                               67+LTLCTR DS    H           CTR. ASSIGNING ID.NO.TO LITERALS
 000166                               68+WCMAX  DS    H           SIZE OF THE LARGEST WORK AREA FOR LIBRARY SUBR
 000168                               69+TSMAX  DS    H           SIZE OF THE TEMP. STORAGE FOR ARITHM. STMNTS
 00016A                               70+TS2MAX DS    H           SAME AS ABOVE FOR NON-ARITHMETIC STATEMENTS
 00016C                               71+ODOCTR DS    H           NUMBER OF Q-ROUTINES
 00016E                               72+CKPCTR DS    H           NUMBER OF CHECKPOINT REQUESTS
 000170                               73+INDCTR DS    H           AVAILABLE
 000172                               74+SBLOMX   DS    H                   AVAILABLE
 000174                               75+VLCOMX   DS    H                   AVAILABLE
 000176                               76+SBLIMX DS    H           SAME AS SBLOMX FOR IN-LINE PROC.
 000178                               77+VLCIMX DS    H           SAME AS VLCOMX FOR IN-LINE PROC.
 00017A                               78+SBLCTR DS    H           COUNTER FOR ASSIGNING  SBL'S
 00017C                               79+VLCCTR DS    H           USED TO DETERMINE VLCOMX AND VLCIMX
 00017E                               80+BLLCTR DS    H           CTR. FOR ASSIGNING ID. NO.TO LINKAGE SEC. BL'S
 000180                               81+SEQERR DS    H           NO. OF OUT-OF-SEQUENCE CARDS
 000182                               82+SWITCH   DS    H
                                      83+*                        BITS MARKED BY * MAY STILL BE IN USE BY
                                      84+*                        COBOLF - ASSIGN THESE AS A LAST RESORT
                             00080    85+SWTRCE EQU   X'80'       BIT 0  TRACE
                                      86+*              *         BIT 1
                                      87+*              *         BIT 2
                             00010    88+SPILL    EQU   X'10'     BIT 3  SET IF DICTIONARY SPILL
                                      89+*              *         BIT 4
                             00004    90+MQVAR    EQU   X'04'     BIT 5  SET IF PH2 BUILDS A QVAR TABLE
                                      91+*              *         BIT 6
                             00001    92+MQFILE   EQU   X'01'     BIT 7  SET IF PH2 BUILDS A QFILE TABLE
                                      93+*
                                      94+*                        SECOND BYTE OF SWITCH
                                      95+*              *         BIT 0
                                      96+*              *         BIT 1
                             00020    97+SORTRTN  EQU   X'20'     BIT 2  SORT RETURN SET BY PHASE2 USED BY PH5
                             00010    98+RERUNN   EQU   X'10'     BIT 3  RERUN USED BY PHASE 1, 2 AND 5
                             00008    99+DSOU     EQU   X'08'     BIT 4  SOURCE INDICATOR FOR STATISTICS
                             00004   100+NOFITSW  EQU   X'04'     BIT 5  SET BY PH6 IF E-TEXT ON FILE3
                                     101+*                               USED BY PH7 & PH00
                             00002   102+DOPH7    EQU   X'02'     BIT 6  PH6 LOOK AHEAD FOR PH7 YES OR NO
                             00001   103+RDERRFIL EQU   X'01'     BIT 7  PH6 INPUT INDICATOR
 000184                              104+DICND2 DS    F           DICTIONARY POINTER USED IN PH2
 000188                              105+DICND1 DS    F           DICTIONARY POINTER USED IN PH1
 00018C                              106+DATE     DS    CL15      DATE/TIME OF COMPILATION
                                     107+*                        REUSED IN PHASE1 AS FOLLOWS
                                     108+*                                  BYTES 1-4 NUMBER OF DATA NAMES
                                     109+*                                        5-8 NUMBER OF VERBS
                                     110+*                                        9-12 NUMBER OF SOURCE CARDS
1PH1A                                                                                                           PAGE    4
-  LOC  OBJECT CODE    ADDR1 ADDR2  STMT   SOURCE STATEMENT                                       ASM 0201 11.03 02/14/15
0                                    111+*                                       13-15 NOT USED
 00019B                              112+WSDEF  DS    0CL7        LAST 7 BYTES OF DATA A-TEXT EL.FOR WORK.ST.SEC
 00019B                              113+         DS    CL3
 00019E                              114+WSBL   DS    C
 00019F                              115+WSSIZE   DS    CL3
 0001A2                              116+ERRSEV DS    C           HIGHEST ERROR SEVERITY LEVEL
 0001A3                              117+PHZSW  DS    C           OPTIONS SWITCH :
                             00080   118+LIST     EQU X'80'       SOURCE(OS)
                             00040   119+LISTX    EQU   X'40'     PMAP
                             00020   120+DECK     EQU   X'20'
                             00010   121+LINK     EQU   X'10'     LOAD
                             00008   122+SEQ      EQU   X'08'
                             00004   123+FLAGW    EQU   X'04'
                             00002   124+LIBR     EQU   X'02'
                             00001   125+ZWB      EQU   X'01'
 0001A4                              126+PHZSW1 DS    C
                             00080   127+XREF     EQU   X'80'
                             00040   128+CLIST    EQU   X'40'
                             00020   129+SYM      EQU   X'20'      DMAP
                             00010   130+PDT      EQU   X'10'
                             00004   131+APOST    EQU   X'04'
                             00002   132+MAPSP    EQU     X'02'
                             00001   133+TRUNC    EQU   X'01'
 0001A5                              134+PHZSW2   DS    C         RESERVED FOR ADDITIONAL OPTIONS
                             00080   135+STAT     EQU   X'80'     RESERVED FOR STATEMENT NUMBER OPTION
                             00002   136+NO6A     EQU   X'02'     SET BY PH6 TO TELL PH7 THAT PH6A WAS BYPASSED
 0001A8                              137+DICADR DS    F
 0001AC                              138+DLSVAL DS    F           ACCESS RTN. COMMUNICATION CELL
 0001B0                              139+DICPTR DS    C           ACCESS RTN. COMMUNICATION CELL
 0001B1                              140+DCPTR  DS    3C          ACCESS RTN. COMMUNICATION CELL
 0001B4                              141+RPTSAV DS    H           REPORT SAVE AREA CELL
 0001B6                              142+BLSCTR   DS    H         AVAILABLE
 0001B8                              143+LCSECT   DS    F
 0001BC                              144+PH7LOD   DS    F
 0001C0                              145+RGNCTR DS    H           COUNT OF UNIQUE GN'S
 0001C2                              146+ERF4SW DS    C           SWITCH USED BY PH6/PH7
 0001C3                              147+PTYNO    DS    C                   CURRENT PRIORITY NO
                                     148+*                                  SET BY PH5  USED BY PH00
 0001C4                              149+COMMAD   DS    H
 0001C6                              150+PHZSW3   DS    C                   OPTION SWITCH
                             00001   151+VERBR    EQU   X'01'               LISTING A-TEXT
 0001C7                              152+PHZSW4   DS    C                   RESERVED FOR ADDITIONAL OPTIONS
 0001C8                              153+AMOVDC   DS    F
 0001CC                              154+SDSIZ    DS    F         BIGGEST SD IN PGM.
 0001D0                              155+SEGLMT   DS    C
 0001D1                              156+DTFNUM   DS    C
 0001D2                              157+CURSGN   DS    C
 0001D3                              158+PH1BYTE  DS    C         PHASE 1 COMMUNICATION TO PHASE 2
                             00001   159+UPSIBT   EQU   X'01'     PASSES INFORMATION FROM PHASE 1A TO PHASE 2
                             00002   160+EOPPH1   EQU   X'02'     PASSES INFORMATION FROM PHASE 1A TO PHASE 1B
                             00004   161+INITBIT  EQU   X'04'     PASSES INFORMATION FROM PHASE 1A TO PHASE 2
                             00008   162+BASINSQ  EQU   X'08'           PH1A TO PH1B
                             00020   163+BASIS    EQU   X'20'
                             00080   164+F3TEXT   EQU   X'80'
 0001D4                              165+DECBCT   DS    H         NO OF DECB'S FOR PGM
1PH1A                                                                                                           PAGE    5
-  LOC  OBJECT CODE    ADDR1 ADDR2  STMT   SOURCE STATEMENT                                       ASM 0201 11.03 02/14/15
00001D6                              166+INDEXS   DS    H         AVAILABLE
 0001D8                              167+INDEX1   DS    H        # INDEX NAMES DEFNED IN IN-LINE FILES
 0001DA                              168+CYCTOTAL DS    H         AVAILABLE
 0001DC                              169+IOPTRCTR DS    H        # I/O POINTERS FOR APPLY-WRITE-ONLY
 0001DE                              170+TS3MAX   DS    H
 0001E0                              171+TS4MAX   DS    H
 0001E4                              172+BUFSIZE  DS    F         USED FOR STATISTICS
 0001E8                              173+CORESIZE DS    F         USED FOR STATISTICS
 0001EC                              174+CNTLINE  DS    H         USED FOR STATISTICS
 0001EE                              175+CURCRD   DS    H
 0001F0                              176+SPACING  DS    C         USED FOR STATISTICS
 0001F1                              177+PDTCHR   DS    C                   SET BY PH01 USED BY PH6
 0001F2                              178+         DS    H
 0001F4                              179+BASINS   DS    1F
 0001F8                              180+         DS    1F
                                     181+*
                                     182+*
 0001FC                              183+         DS    0F
 0001FC                              184+AGETALL  DS    F                   ADDRESS OF TAMER RTN - GETALL
 000200                              185+         DS    F                   AVAILABLE
 000204                              186+RPDNUM   DS    H         AVAILABLE
 000206                              187+CYCNUM   DS    H         AVAILABLE
 000208                              188+IDENTL DS    F           REL. LOC. OF CODING IN OBJECT MODULE FOR THE
                                     189+*                        RANDOM PROC IDENTIFIED IN RPDNUM
 00020C                              190+BLCTR  DS    H           ID NO ASSIGNED TO BL'S FOR FILES
 00020E                              191+VNCTR  DS    H           COUNTER FOR ASSIGNING VN NUMBERS
 000210                              192+ONCTR  DS    H           COUNTER FOR ASSIGNING ID NO.TO ON CONTROL CELL
 000212                              193+PFMCTR DS    H           COUNTER FOR ASSIGNING ID NO.TO PERFORM CELLS
 000214                              194+PSVCTR DS    H           CTR FOR ASSIGNING ID'S TO PERFORM SAVE CELLS
 000216                              195+XSACTR DS    H           LOC  WITHIN EXHIBIT OR SORT SAVE AREA
 000218                              196+XSWCTR DS    H           CTR FOR ASSIGNING ID'S TO EXHIBIT/ON SWITCHES
 00021C                              197+RELLOC DS    F           DISPL OF TGT/SGT FROM THE BEG. OF OBJECT MOD.
 000220                              198+GTLNG  DS    H           LENGTH OF TGT OR SGT SPECIFIED IN RELLOC
 000222                              199+RPILOC   DS    H         AVAILABLE
 000224                              200+VNILOC DS    H           DISPL OF VNI FIELDS IN PGT
 000226                              201+VNLOC  DS    H           DISPL OF VN FIELDS IN TGT OR SGT
 000228                              202+SUBCTR DS    H           CTR TO ASSIGN ID'S TO SUBSCRIPTED REFERENCES
 00022A                              203+PARMAX DS    H           SIZE OF PARAMETER AREA
 00022C                              204+BLSVAL   DS    H         AVAILABLE
 00022E                              205+BLSLOC   DS    H         AVAILABLE
 000230                              206+CMTBSW   DS    H         AVAILABLE
 000232                              207+SA2CTR DS    H           SET IF OPTION 2 OF USE  SPECIFIED
 000234                              208+SA3CTR DS    H           SET IF OPTION 5 OF USE  SPECIFIED
 000236                              209+BLSEND   DS    H         AVAILABLE
 000238                              210+INDEX    DS    F
 00023C                              211+INDEX0   DS    H         AVAILABLE
 000240                              212+       DS    6F
                                     213+*
                                     214+*      END OF COMMON
                                     215+*
                                     216+*
1PH1A                                                                                                           PAGE    6
-  LOC  OBJECT CODE    ADDR1 ADDR2  STMT   SOURCE STATEMENT                                       ASM 0201 11.03 02/14/15
1PH1A     IKFCBL10                                                                                              PAGE    7
-  LOC  OBJECT CODE    ADDR1 ADDR2  STMT   SOURCE STATEMENT                                       ASM 0201 11.03 02/14/15
0000000                              219 IKF101 CSECT                                                            00028021
                             00000   220        USING COS,R1                                                     00035021
                                     221        ENTRY PH1A                                                       00042021
                                     222 *                                                                       00049021
                                     223 *                                                                       00056021
                                     224 *                                                                       00063021
                                     225 *                                                                       00070021
                                     226 *                                                                       00077021
                                     227 *   PATCH AREA IS DEFINED AS 'PATCH1' IN CSECT IKF103 FOR 1A            00084021
                                     228 *                                                                       00091021
                                     229 *     AND FOR REPORT WRITER 'PATCH2' IN CSECT IKF109                    00098021
                                     230 *                                                                       00105021
                                     231 *                                                                       00112021
                                     232 *                                                                       00119021
                                     233 *                                                                       00126021
                                     234 *                                                                       00133021
                                     235 *=3                                                                     00140021
                                     236 *                                                                       00147021
                                     237 *                                                                       00154021
                                     238 *TITLE                                                                  00161021
                                     239 *                                                                       00168021
                                     240 *            'IKFCBL10'                                                 00175021
                                     241 *                                                                       00182021
                                     242 *STATUS:                                                                00189021
                                     243 *                                                                       00196021
                                     244 *   CHANGE LEVEL 000                                                    00203021
                                     245 *                                                                       00210021
                                     246 *FUNCTION/OPERATION:                                                    00217021
                                     247 *                                                                       00224021
                                     248 *   PHASE 1'S GENERAL FUNCTION:                                         00231021
                                     249 *   ENCODES THE ENTIRE SOURCE PROGRAM INTO INTERNAL COMPILER TEXT.      00238021
                                     250 *   PERFORMS SYNTAX ANALYSIS ON THE IDENTIFICATION, ENVIRONMENT AND     00245021
                                     251 *   DATA DIVISIONS.   PRODUCES DATA IC TEXT FROM ENV. AND DATA DIV.     00252021
                                     252 *   PRODUCES OUTPUT                                                     00259021
                                     253 *   LISTING AND/OR A-TEXT LISTING IF AN OBJECT MODULE LISTING IS        00266021
                                     254 *   REQUIRED.                                                           00273021
                                     255 *                                                                       00280021
                                     256 *                                                                       00287021
                                     257 *ENTRY POINTS:                                                          00294021
                                     258 *                                                                       00301021
                                     259 *         PH1A                                                          00308021
                                     260 *                                                                       00315021
                                     261 *INPUT:                                                                 00322021
                                     262 *                                                                       00329021
                                     263 *        SYSIN - SOURCE PROGRAM (IF NOLIB IN EFFECT)                    00336021
                                     264 *        SYSUT4 - SOURCE PROGRAM (IF LIB IN EFFECT)                     00343021
                                     265 *                                                                       00350021
                                     266 *OUTPUT:                                                                00357021
                                     267 *                                                                       00364021
                                     268 *        SYSUT3  DATA IC TEXT AND E TEXT IN ID. ENV. AND DATA DIV.      00371021
                                     269 *        SYSPRINT  SOURCE PROGRAM LISTING (IF NOLIB IN EFFECT)          00378021
                                     270 *                                                                       00385021
                                     271 *EXTERNAL ROUTINES:                                                     00392021
                                     272 *                                                                       00399021
                                     273 *        PHASE 00  LINK TO I-O AND INTERPHASE COMMON REGION             00406021
1PH1A     IKFCBL10                                                                                              PAGE    8
-  LOC  OBJECT CODE    ADDR1 ADDR2  STMT   SOURCE STATEMENT                                       ASM 0201 11.03 02/14/15
0                                    274 *        PRIME     ASSIGN AN AREA IN A TABLE REGION TO INDIVIDUAL T     00413021
                                     275 *        TAMEIN    TAMER INITIALIZATION ROUTINE CALLED BY PH1A ONLY     00420021
                                     276 *        INSERT    GET ROOM FOR AN ENTRY TO BE MADE IN A TABLE          00427021
                                     277 *        TABREL    RELEASE TABLE, FREE AREA IF NO LONGER NEEDED.        00434021
                                     278 *        STATIC    NOTE NO NEW ENTRY TO BE MADE, RELEASE UNUSED ARE     00441021
                                     279 *                                                                       00448021
                                     280 *EXITS- NORMAL:                                                         00455021
                                     281 *                                                                       00462021
                                     282 *   VIA PHASE 00 TO PHASE 1B                                            00469021
                                     283 *                                                                       00476021
                                     284 *   CALLING SEQUENCE:                                                   00483021
                                     285 *   L   JH,COSADR     BALR   0,JH     DC   X'A0'                        00490021
                                     286 *                                                                       00497021
                                     287 *EXITS-ERROR                                                            00504021
                                     288 *                                                                       00511021
                                     289 *   NONE                                                                00518021
                                     290 *                                                                       00525021
                                     291 *TABLES/WORK AREAS COMTBL, QLTABL, QNMTBL, ENVTBL, APPTBL, SATBL,       00532021
                                     292 *   SSATBL, SRATBL, TOTTBL, UPSTBL, KEYTAB, INDXTB, CTSTBL,             00539021
                                     293 *   SDETBL, PIOTBL, CKPTBL, OD2TBL, FNTBL, RCDTBL, SPNTBL, RNMTBL,      00546021
                                     294 *   RWRTBL, CTLTBL, ROLTBL, ROUTBL, DETTBL, NPTTBL, SUMTBL,             00553021
                                     295 *   QALTBL. 148 BYTES ARE RESERVED UNDER REG 13                         00560021
                                     296 *   AND OTHER WORK AREAS START AT DIVCOD.   REPORT WRITER WORK AREA     00567021
                                     297 *   START AT CTLENT.                                                    00574021
                                     298 *   PH1A BUILDS P1BTBL WHICH IS PASSED TO PH1B CONTAINING               00581021
                                     299 *   INFORMATION THAT PH1B REQUIRES EQ. GENERATED SEQUENCE NUM           00588021
                                     300 *   TABLES ARE DESCRIBED IN PLM AND LISTING.                            00595021
                                     301 *                                                                       00602021
                                     302 *ATTRIBUTES:                                                            00609021
                                     303 *                                                                       00616021
                                     304 *   NOT REUSABLE                                                        00623021
                                     305 *                                                                       00630021
                                     306 *NOTES:  GENERAL ORGANIZATION:-                                         00637021
                                     307 *                                                                       00644021
                                     308 *   1. EQU'S                                                            00651021
                                     309 *   3. PHASE 1A HOUSEKEEPING, INITIALIZE TAMER, PRIME TABLES            00658021
                                     310 *   4. ERROR MESSAGES                                                   00665021
                                     311 *   5. WORK AREAS, COMMON WORK AND SAVE AREAS                           00672021
                                     312 *   6. REPORT WRITER TAMER ADCONS AND CONSTANTS                         00679021
                                     313 *   7. COBOL WORD TABLE                                                 00686021
                                     314 *   8. COMMON ROUTINES                                                  00693021
                                     315 *   9. GETDLM ROUTINE                                                   00700021
                                     316 *  10. UNIT LEVEL SCAN                                                  00707021
                                     317 *  12. END OF JOB ROUTINE                                               00714021
                                     318 *  13. PROCESS REPORT VERBS                                             00721021
                                     319 *  14. DATA DIVISION SCAN                                               00728021
                                     320 *  15. REPORT WRITER SCAN                                               00735021
                                     321 *  1L. ENVIRONMENT SCAN                                                 00742021
                                     322 *  17. IDENTIFICATION SCAN                                              00749021
                                     323 *                                                                       00756021
                                     324 *                                                                       00763021
                                     325 *  REGISTERS USAGE OF PHASE 1  (EXCLUDING ACCESS)                       00770021
                                     326 *                                                                       00777021
                                     327 *   0    WORK REGISTER                                                  00784021
                                     328 *   1    WORK REGISTER                                                  00791021
1PH1A     IKFCBL10                                                                                              PAGE    9
-  LOC  OBJECT CODE    ADDR1 ADDR2  STMT   SOURCE STATEMENT                                       ASM 0201 11.03 02/14/15
0                                    329 *   2    WORK REGISTER                                                  00798021
                                     330 *   3    WORK REGISTER                                                  00805021
                                     331 *   4    WORK REGISTER                                                  00812021
                                     332 *   5    WORK REGISTER                                                  00819021
                                     333 *   6    WORK REGISTER                                                  00826021
                                     334 *   7    WORK REGISTER                                                  00833021
                                     335 *   8    BASE REGISTER IN DATA DIV. ELSE WORK REGISTER.                 00840021
                                     336 *   9    BASE REGISTER                                                  00847021
                                     337 *  10    BASE REGISTER                                                  00854021
                                     338 *  11    BASE REGISTER                                                  00861021
                                     339 *  12    BASE REGISTER                                                  00868021
                                     340 *  13    GLOBAL TABLE BASE, NEVER TOUCHED, ALSO PHASE 1'S BASE REG.     00875021
                                     341 *  14    LINK REGISTER, CALL REGISTER FOR SUBROUTINE                    00882021
                                     342 *  15    BASE REGISTER FOR INTERFACE AND INFREQUENT SUBROUTINES         00889021
                                     343 *                                                                       00896021
                             00194   344 NUMCDS EQU   DATE+8-COS                                                 00903021
                             0012C   345 PRIME  EQU   APRIME-COS                                                 00910021
                             00130   346 INSERT EQU   AINSRT-COS                                                 00917021
                             00134   347 STATIC EQU ADSTAT-COS                                                   00924021
                             00138   348 TABREL EQU  RELADD-COS                                                  00931021
                             0013C   349 TAMEIN EQU   TAMNAD-COS                                                 00938021
                             0016E   350 CKPTCT EQU   CKPCTR-COS                                                 00945021
                             00172   351 SBLOMA EQU   SBLOMX-COS                                                 00952021
                             00174   352 VLCOMA EQU   VLCOMX-COS                                                 00959021
                             00176   353 SBLIMA EQU   SBLIMX-COS                                                 00966021
                             00178   354 VLCIMA EQU   VLCIMX-COS                                                 00973021
                             001B4   355 RPTSV1 EQU   RPTSAV-COS                                                 00980021
                             00044   356 CMTLNG EQU   68                         LENGTH OF COMTBL ENTRY          00987021
                                     357 *                                                                       00994021
                                     358 *      FOLLOWING ARE REGISTER EQUATES FOR TAMER.                        01001021
                                     359 *                                                                       01008021
                                     360 *                                                                       01015021
                                     361 ******    GENERAL REGISTER SYMBOLIC EQU'S    ******                     01022021
                                     362 *                                                                       01029021
                             00001   363 JA     EQU   1                                                          01036021
                             00002   364 JB     EQU   2                                                          01043021
                             00003   365 JC     EQU   3                                                          01050021
                             00004   366 JD     EQU   4                                                          01057021
                             00005   367 JE     EQU   5                                                          01064021
                             00006   368 JF     EQU   6                                                          01071021
                             00007   369 JG     EQU   7                                                          01078021
                             00008   370 JH     EQU   8                                                          01085021
                             00009   371 JJ     EQU   9                                                          01092021
                             0000A   372 JK     EQU   10                                                         01099021
                             0000B   373 JL     EQU   11                                                         01106021
                             0000C   374 JM     EQU   12                                                         01113021
                             0000D   375 JN     EQU   13                                                         01120021
                             0000E   376 JP     EQU   14                                                         01127021
                             0000F   377 JQ     EQU   15                                                         01134021
                             00000   378 JR     EQU   0                                                          01141021
                                     379 *                                                                       01148021
                             00000   380 R0         EQU   0                                                      01155021
                             00001   381 R1         EQU   1                                                      01162021
                             00002   382 R2         EQU   2                                                      01169021
                             00003   383 R3         EQU   3                                                      01176021
1PH1A     IKFCBL10                                                                                              PAGE   10
-  LOC  OBJECT CODE    ADDR1 ADDR2  STMT   SOURCE STATEMENT                                       ASM 0201 11.03 02/14/15
0                            00004   384 R4         EQU   4                                                      01183021
                             00005   385 R5         EQU   5                                                      01190021
                             00006   386 R6         EQU   6                                                      01197021
                             00007   387 R7         EQU   7                                                      01204021
                             00008   388 R8         EQU   8                                                      01211021
                             00009   389 R9         EQU   9                                                      01218021
                             0000A   390 R10        EQU   10                                                     01225021
                             0000B   391 R11        EQU   11                                                     01232021
                             0000C   392 R12        EQU   12                                                     01239021
                             0000D   393 R13        EQU   13                                                     01246021
                             0000E   394 R14        EQU   14                                                     01253021
                             0000F   395 R15        EQU   15                                                     01260021
                                     396 *                                                                       01267021
                             00000   397 FJR    EQU 0                                                            01274021
                             00002   398 FJB    EQU 2                                                            01281021
                             00004   399 FJD    EQU 4                                                            01288021
                             00006   400 FJF    EQU 6                                                            01295021
                                     401 *                                                                       01302021
                                     402 *   STANDARD EQUATES FOR BC INSTRUCTIONS                                01309021
                                     403 *                                                                       01316021
                             0000F   404 UNCOND EQU   15                                                         01323021
                             00002   405 HI     EQU   2                                                          01330021
                             00004   406 LO     EQU   4                                                          01337021
                             00008   407 EQ     EQU   8                                                          01344021
                             00008   408 EQUAL  EQU   8                                                          01351021
                             0000D   409 NOTHI  EQU   13                                                         01358021
                             0000B   410 NOTLO  EQU   11                                                         01365021
                             00007   411 NOTEQ  EQU   7                                                          01372021
                             00001   412 OV     EQU   1                                                          01379021
                             00002   413 POS    EQU   2                                                          01386021
                             00004   414 NEG    EQU   4                                                          01393021
                             00008   415 ZERO   EQU   8                                                          01400021
                             0000E   416 NOTOV  EQU   14                                                         01407021
                             00005   417 NOTOFF   EQU   5                                                   2768 01414021
                             0000D   418 NOTPOS EQU   13                                                         01421021
                             0000B   419 NOTNEG EQU   11                                                         01428021
                             00007   420 NOTZER EQU   7                                                          01435021
                             00001   421 ONES   EQU   1                                                          01442021
                             00004   422 MIXED  EQU   4                                                          01449021
                             0000E   423 NOTONE EQU   14                                                         01456021
                             0000B   424 NOTMXD EQU   11                                                         01463021
                             00000   425 NOP    EQU   0                                                          01470021
                                     426 *                                                                       01477021
                             00048   427 WORKA  EQU   72     8         19F - WORK AREA FOR FLOPNT RTN            01484021
                             00050   428 WORKA2 EQU   80     8                                                   01491021
                             00058   429 WORKA3 EQU   88     8                                                   01498021
                             00060   430 WORKB  EQU   96     32                                                  01505021
                             00080   431 SVREG2 EQU   128    8                                                   01512021
                             00088   432 SYGNSW EQU   136    1                                                   01519021
                             00089   433 FLTEXP EQU   137    1                                                   01526021
                             0008A   434 MANDEC EQU   138    2                                                   01533021
                             0008C   435 MANINT EQU   140    2                                                   01540021
                             0008E   436 MANLEN EQU   142    2                                                   01547021
                             00090   437 TOTLNG EQU   144    2                                                   01554021
                             00092   438 RESDEC EQU   146    2                                                   01561021
1PH1A     IKFCBL10                                                                                              PAGE   11
-  LOC  OBJECT CODE    ADDR1 ADDR2  STMT   SOURCE STATEMENT                                       ASM 0201 11.03 02/14/15
0                                    439 *                                                                       01568021
                                     440 *                                                                       01575021
1PH1A     IKFCBL10                                                                                              PAGE   12
-  LOC  OBJECT CODE    ADDR1 ADDR2  STMT   SOURCE STATEMENT                                       ASM 0201 11.03 02/14/15
0                                    442 *=1    ENTRY TO PHASE 1 - HOUSEKEEPING            ID                    01589021
 000000                              443 PBEG12 DS    0H                                                         01596021
 000000 C9D2C6C3C2D3F1F0             444        DC    C'IKFCBL10'               PHASE NAME                       01603021
 000008 C2                           445        DC    C'B'                      BUILD                            01610021
 000009 1D                           446        DC    X'1D'                     NUMBER IN HEX                    01617021
 00000A                              447 PH1A   DS    0H                                                         01624021
                             0000A   448 IKFCBL10 EQU   PH1A                                                     01631021
 00000A 90EC D00C      0000C         449 DUMTST   STM   JP,JM,DX12(JN)  SAVE REGISTERS IN PH0 SAVE AREA          01638021
 00000E 0700                         450        CNOP  0,4                                                        01645021
 000010 182D                         451        LR    JB,JN             SAVE ADDR OF PH0 SAVE AREA IN R2         01652021
 000012 05F0                         452        BALR  JQ,JR                 ADDR NEXT INSTR                      01659021
 000014 47FF 0008      00008         453          BC    UNCOND,DX8(JQ)    SKIP DC                                01666021
 000018 00000030                     454        DC    A(PH1SAV)             SAVE AREA FOR PH1A REGS              01673021
 00001C 58DF 0004      00004         455          L     JN,DX4(JQ)      SET R13 TO ADDR OF PHASE  SAVE AREA      01680021
 000020 50ED 000C      0000C         456          ST    JP,DX12(JN)     SAVE SYSTEM RETURN ADR IN PHASE SV AR    01687021
 000024 502D 0004      00004         457          ST    JB,DX4(JN)       PUT PTR TO PH0 SV AREA IN PHASE SV A    01694021
 000028 50D2 0008      00008         458          ST    JN,DX8(JB)       PUT PTR TO PHASE SV AREA IN PH0 SV A    01701021
                                     459 *=2         BASE REG ASSIGN + LOAD FOR COMMON ROUTINES AND AREAS        01708021
                             00030   460        USING PH1SAV,JN                                                  01715021
                             00F90   461        USING IDDIV1,JM                                                  01722021
                             01F18   462        USING GETWD,JL                                                   01729021
                             02BF0   463        USING COBWRD,JK                                                  01736021
 00002C 47FD 0094      00094         464          BC    UNCOND,DX148(JN)    BRANCH                               01743021
                                     465 *                                                                       01750021
                                     466 *  THE FOLLOWING 148 BYTES ARE RESERVED AREA UNDER REG13                01757021
                                     467 *                                                                       01764021
                                     468 *            * * * D O    N O T    D I S T U R B * * *                  01771021
                                     469 *                                                                       01778021
 000030                              470 PH1SAV DS    0D                                                         01785021
 000030                              471        DS    37F              18F - SAVE AREA FOR PH0                   01792021
                                     472 * WORKA  EQU   72     8         19F - WORK AREA FOR FLOPNT RTN          01799021
                                     473 * WORKA2 EQU   80     8                                                 01806021
                                     474 * WORKA3 EQU   88     8                                                 01813021
                                     475 * WO-KB  EQU   96     32                                                01820021
                                     476 * SVREG2 EQU   128    8                                                 01827021
                                     477 * SYGNSW EQU   136    1                                                 01834021
                                     478 * FLTEXP EQU   137    1                                                 01841021
                                     479 * MANDEC EQU   138    2                                                 01848021
                                     480 * MANINT EQU   140    2                                                 01855021
                                     481 * MANLEN EQU   142    2                                                 01862021
                                     482 * TOTLNG EQU   144    2                                                 01869021
                                     483 * RESDEC EQU   146    2                                                 01876021
                                     484 *                                                                       01883021
 0000C4 58C0 D418      00448         485        L     JM,HSKP1                                                   01890021
 0000C8 58B0 C028      00FB8         486        L     JL,HSKP2                                                   01897021
 0000CC 58A0 C03C      00FCC         487        L     JK,ACBW                                                    01904021
 0000D0 58F0 C044      00FD4         488        L     JQ,GETADR                  SET-UP BASE REGS                01911021
 0000D4 5890 C030      00FC0         489        L     JJ,GTD1                    FOR GET-WORD AND GET-CARD R     01918021
 0000D8 901F D83C      0086C         490        STM   JA,JQ,SAVREG                  ROUTINES                     01925021
 0000DC 58F0 C024      00FB4         491        L     JQ,IDDIV                   SET-UP BASE REGS FOR            01932021
 0000E0 901F D800      00830         492        STM   JA,JQ,SVREG                   ID DIV SCAN                  01939021
 0000E4 50F0 DA18      00A48         493        ST    JQ,LNKR15                  SET-UP LINK REG15 AREA          01946021
                                     494 *                                                                       01953021
 0000E8 5811 0000      00000         495          L     JA,DX0(JA)                  GET COS ADDR FROM CONTROL    01960021
 0000EC 5010 C814      017A4         496        ST    JA,COSADR                   STORE COS ADDR                 01967021
1PH1A     IKFCBL10                                                                                              PAGE   13
-  LOC  OBJECT CODE    ADDR1 ADDR2  STMT   SOURCE STATEMENT                                       ASM 0201 11.03 02/14/15
00000F0 D213 C818 112C 017A8 0012C   497          MVC   ADPRIM(LX20),APRIME                                      01974021
                                     498 *                                                                       01981021
                                     499 *=2         INITIALIZE TAMER                                            01988021
 0000F6 9102 11A3      001A3         500          TM    PHZSW,LIBR                PRE-PROCESSOR CALLED?          01995021
 0000FA 4710 D0D4      00104         501          BO    NOTAMIN                   YES-SKIP TAMEIN CALL           02002021
 0000FE 58F0 C828      017B8         502        L     JQ,ADTAMN                  CALL TAMEIN                     02009021
 000102 05EF                         503        BALR  JP,JQ                 BRANCH TO TAMEIN                     02016021
 000104                              504 NOTAMIN  DS    0H                        X                              02023021
                                     505 *=2         PRIME OF TAMER TABLES                                       02030021
 000104 4110 C82C      017BC         506        LA    JA,PARQLT                   PRIME QLTABL                   02037021
 000108 58F0 C818      017A8         507        L     JQ,ADPRIM                                                  02044021
 00010C 05EF                         508        BALR  JP,JQ                 PRIME TABLES                         02051021
 00010E 5810 C82C      017BC         509        L     R1,QLTCON                  INSERT                          02058021
 000112 4100 0002      00002         510          LA    R0,DX2(JR)                  OF TWO                       02065021
 000116 58F0 C81C      017AC         511        L     R15,ADSERT                   IN QLTABL                     02072021
 00011A 05EF                         512        BALR  R14,R15               ADSERT                               02079021
 00011C 58F0 C814      017A4         513         L  JQ,COSADR                                                    02086021
 000120 5810 D41C      0044C         514         L  JA,ADPB12                                                    02093021
 000124 050F                         515         BALR  R0,JQ                CALL PHASE 0                         02100021
 000126 06                           516         DC  X'06'                  READ FROM SYSOUT                     02107021
 000127 00
 000128 58F0 D838      00868         517          L     JQ,SVREG+NX56                                            02114021
                                     518 *                                                                       02121021
                                     519 ***        SET UP FOR DOUBLE QUOTE                                      02128021
                                     520 *                                                                       02135021
 00012C 5810 C814      017A4         521        L     R1,COSADR                  DSECT BASE                      02142021
 000130 9104 11A4      001A4         522        TM    PHZSW1,APOST               SINGLE QUOTE                    02149021
 000134 4770 D12C      0015C         523        BC    NOTZER,RSTRJQ              YES - SKIP DOUBLE INIT          02156021
 000138 9207 C4D9      01469         524          MVI   TBQUT1,XX07               NO - SET TRT TAB FOR           02163021
 00013C 9203 C4DB      0146B         525          MVI   TBQUT2,XX03                 DOUBLE & SINGLE QUOTE        02170021
 000140 927F C579      01509         526          MVI   KQUOTE+NX1,XX7F       CHNGE BLNK-QUOTE TO BLNK-DBQT      02177021
 000144 927F A34D      02F3D         527        MVI   QUOCON+NX1,XX7F           SINGLE TO DOUBLE QUOTES     9638 02184021
 000148 927F A4CD      030BD         528        MVI   QUOSCN+NX1,XX7F           SINGLE TO DOUBLE QUOTES     9638 02191021
 00014C 927F CD69      01CF9         529          MVI   SNGLQ2,XX7F                                              02198021
 000150 58F0 C044      00FD4         530        L     JQ,GETADR                  BASE FOR GETWD                  02205021
                             03AF8   531        USING UNLVSN,JQ                                                  02212021
 000154 927F F000      03AF8         532          MVI   SNGLQT,XX7F               SINGLE TO DOUBLE               02219021
                                     533        DROP  JQ                                                         02226021
 000158 58F0 D838      00868         534          L     JQ,SVREG+NX56             BASE                           02233021
 00015C                              535 RSTRJQ DS    0H                                                         02240021
                                     536 *                                                                       02247021
                                     537 *=2         SETUP AND TEST OF FIRST CARD READ     ID                    02254021
                                     538 *                                                                       02261021
 00015C D21E D377 C663 003A7 015F3   539        MVC   DIVNM,IDD                  PUT 02ID IN DIVNM               02268021
                                     540 **     BAL   14,CHNGQT                  -QUOTE                          02275021
                                     541 **     BAL   14,CHGFOR                  -DEC  COMMA                     02282021
                                     542 *                                                                       02289021
                                     543 *        READ 1ST CARD AND CHECK IF A BASIS CARD                        02296021
                                     544 *                                                                       02303021
 000162 9602 D350      00380         545          OI    FXCDSW,XX02               SET 'ON' FXCDSW                02310021
 000166 45E0 B022      01F3A         546        BAL   JP,GETCRD                  -GETCRD   (READ 1ST CARD)       02317021
 00016A 94FD D350      00380         547          NI    FXCDSW,XXFD               SET 'OFF' FXCDSW               02324021
                             0000C   548 D12    EQU  12                                                          02331021
 00016E 5840 D848      00878         549        L   R4,SAVREG+D12          ADDR COL 1 IN BUFFER                  02338021
 000172 1B11                         550        SR   R1,R1                 CLEAR REG1 FOR TRT                    02345021
1PH1A     IKFCBL10                                                                                              PAGE   14
-  LOC  OBJECT CODE    ADDR1 ADDR2  STMT   SOURCE STATEMENT                                       ASM 0201 11.03 02/14/15
0000174 DD47 4000 C45C 00000 013EC   551          TRT   DX0(LX72,R4),UNONB    SCAN BUFFER FOR NON BLANK          02352021
 00017A D505 1000 D9C5 00000 009F5   552        CLC   DX0(LX6,R1),BASISK         IS IT BASIS?              0335  02359021
                                     553 *  AFTER ALLOWING BASIS AND LIBRARY NAME TO BE COLUMN INDEPENDENT,      02366021
                                     554 *  REALIGN THEM IN COMWRK TO COLUMNS 1 AND 8 SO THAT GETWD AND          02373021
                                     555 *  OTHER ROUTINES THAT ASSUME THESE POSITIONS CAN BE UTILIZED.          02380021
 000180 4770 D164      00194         556          BC    NOTEQ,BASNO         NO,BR AROUND SAVING BASIS NAME       02387021
                                     557 *        THE BASIS/COPY FUNCTIONS ARE HANDLED BY PHASE 0. A BASIS       02394021
                                     558 *        CARD ENCOUNTERED BY PHASE 1 MEANS THE USER DID NOT             02401021
                                     559 *        SPECIFY THE LIB OPTION. THE FOLLOWING CALL TO PHASE 0 TO       02408021
                                     560 *        READ BASIS WITH AN INVALID LIBNAME WILL CAUSE PHASE 0 TO       02415021
                                     561 *        ISSUE A MESSAGE AND TERMINATE. NO RETURN TO PHASE 1.           02422021
 000184 5880 C814      017A4         562          L     R8,COSADR           ADDR OF COS                          02429021
 000188 0508                         563          BALR  R0,R8               READ INVALID BASIS                   02436021
 00018A 09                           564          DC    X'09'               TO ISSUE MSG AND TERM                02443021
 00018B 4040404040404040             565          DC    CL8' '              INVALID LIBNAME                      02450021
 000193 C2                           566          DC    C'B'                TELLS PHASE0 IT IS BASIS             02457021
                                     567 *                                                                       02464021
                                     568 *        SET UP NEXT + CURRENT CELLS, GETDLM AND EXIT                   02471021
                                     569 *                                                                       02478021
 000194 D205 CE3C 4000 01DCC 00000   570 BASNO          MVC NMCRD4(DX6),DX0(R4) SETUP 1ST SEQ-NUM                02485021
 00019A D505 CE3C D683 01DCC 006B3   571          CLC   NMCRD4(LX6),UBLNK         SEQ-NUM BLANK                  02492021
 0001A0 4780 D17A      001AA         572        BC    EQ,BASYES                    YES-BASYES                    02499021
 0001A4 D205 D67D CE3C 006AD 01DCC   573          MVC   SVCSEQ(LX6),NMCRD4        SAVE SEQ-NUM                   02506021
 0001AA 4110 D664      00694         574 BASYES LA    R1,COMWRK+NX73            INITIALIZE NBLPTR          7641  02513021
 0001AE 5010 DAC8      00AF8         575        ST    R1,NBLPTR                 TO COL 74                  7641  02520021
 0001B2 45E0 B000      01F18         576        BAL   JP,GETWD                  GETWD (SET UP NEXT CELL)   7641  02527021
 0001B6 45E0 B000      01F18         577        BAL   JP,GETWD                   -GETWD    (SET UP CUR CELL)     02534021
 0001BA 9110 C6E6      01676         578        TM    CURBCD,XX10               DIVISION HEADER                  02541021
 0001BE 4780 D1AA      001DA         579        BC    ZERO,NOTHDR               NO-NOTHDR                        02548021
 0001C2 95F1 C6E5      01675         580        CLI   CURN,XXF1                 ID-DIV HEADER                    02555021
 0001C6 4780 D1AE      001DE         581        BC    EQ,GTDLM1                 YES-GETDLM                       02562021
 0001CA 45E0 DC50      00C80         582        BAL   JP,MSG129                 ID DIV MISSING OR MISPLACED      02569021
 0001CE 45E0 DBD0      00C00         583        BAL   JP,MSG97                  PROG-ID MISSING                  02576021
 0001D2 9610 D35A      0038A         584        OI    PRIDSW,XX10               FORCE ON PROGID FOUND SW   3816  02583021
 0001D6 47F0 D1AE      001DE         585        BC    UNCOND,GTDLM1             CONTINUE-GETDLM                  02590021
 0001DA 45E0 DC50      00C80         586 NOTHDR BAL   JP,MSG129                 ID DIV MISSING OR MISPLACED      02597021
 0001DE 45E0 ACB4      038A4         587 GTDLM1 BAL   JP,GETDLM                 -GETDLM                          02604021
 0001E2 07FF                         588        BCR   UNCOND,JQ                   -EXIT TO DIVISION IN EFFEC     02611021
                                     589 *                                                                       02618021
1PH1A     IKFCBL10                                                                                              PAGE   15
-  LOC  OBJECT CODE    ADDR1 ADDR2  STMT   SOURCE STATEMENT                                       ASM 0201 11.03 02/14/15
0                                    591 *                                                                       02632021
                                     592 *=2         ROUTINES FOR CHANGING FROM DIV TO DIV ID   ENV  DATA        02639021
                                     593 *                                                                       02646021
 0001E4 50E0 D878      008A8         594 CWENVD ST    JP,SV1F01                  SAVE LINK REG                   02653021
 0001E8 5810 C814      017A4         595        L       JA,COSADR                                                02660021
 0001EC D20B 118C C2D8 0018C 01268   596          MVC   DATE-COS(LX12,JA),ZEROCS                                 02667021
 0001F2 58F0 C818      017A8         597        L     JQ,ADPRIM                  ADDR OF PRIME                   02674021
 0001F6 4110 C834      017C4         598        LA    JA,PARQNM                  QNMTBL                          02681021
 0001FA 05EF                         599        BALR  JP,JQ                            PRIME                     02688021
 0001FC 4110 C844      017D4         600        LA    JA,PARENV                  ENVTBL                          02695021
 000200 05EF                         601        BALR  JP,JQ                            PRIME                     02702021
                                     602 *       LA   JA,PARAPP                 APPTBL                           02709021
                                     603 *      BALR  JP,JQ                           PRIME                      02716021
 000202 4110 C884      01814         604        LA    JA,PARSPN                  SPNTBL                          02723021
 000206 05EF                         605        BALR  JP,JQ                            PRIME                     02730021
 000208 4110 C864      017F4         606        LA    JA,PARCKP                  CKPTBL                          02737021
 00020C 05EF                         607        BALR  JP,JQ                            PRIME                     02744021
 00020E 4110 C854      017E4         608        LA    JA,PARSA                   SATBL                           02751021
 000212 05EF                         609        BALR  JP,JQ                 PRIME                                02758021
 000214 4110 C85C      017EC         610        LA    JA,PARSRA                  SRATBL                          02765021
 000218 05EF                         611        BALR  JP,JQ                 PRIME                                02772021
 00021A 58F0 C034      00FC4         612        L     JQ,ENVDIV                  SET BASE REG VALUES             02779021
 00021E 50F0 D838      00868         613          ST    JQ,SVREG+NX56             SAVE NEW VALUE                 02786021
 000222 5890 C038      00FC8         614        L     JJ,ENVDV1                  ADDR OF APPSCN                  02793021
 000226 5090 D820      00850         615          ST    JJ,SVREG+NX32             STORE IN SAVE AREA             02800021
 00022A 50F0 DA18      00A48         616        ST    JQ,LNKR15                  SET-UP LINK REG15 AREA          02807021
 00022E 9240 A023      02C13         617          MVI   IDKON,XX40                KILL ID                        02814021
 000232 58E0 D878      008A8         618        L     JP,SV1F01                  RESTORE LINK REG                02821021
 000236 07FE                         619        BCR   UNCOND,JP                   -RETURN                        02828021
                                     620 *                                                                       02835021
 000238 50E0 D878      008A8         621 CWDATD ST    JP,SV1F01                  SAVE LINK REG                   02842021
 00023C 58F0 C820      017B0         622        L     JQ,ADSTAC                                                  02849021
 000240 5810 C844      017D4         623        L     JA,ENVCON                  ENVTBL                          02856021
 000244 05EF                         624        BALR  JP,JQ                            STATIC                    02863021
                                     625 *       L    JA,APPCON                 APPTBL                           02870021
                                     626 *       BALR JP,JQ                                STATIC                02877021
 000246 5810 C884      01814         627        L     JA,SPNCON                  SPNTBL                          02884021
 00024A 05EF                         628        BALR  JP,JQ                            STATIC                    02891021
 00024C 5810 C864      017F4         629        L     JA,CKPCON                  CKPTBL                          02898021
 000250 05EF                         630        BALR  JP,JQ                            STATIC                    02905021
 000252 58F0 C824      017B4         631        L     JQ,ADTREL                                                  02912021
 000256 5810 C854      017E4         632        L     JA,SACON                   SATBL                           02919021
 00025A 05EF                         633        BALR  JP,JQ                 STATIC                               02926021
 00025C 5810 C85C      017EC         634        L     JA,SRACON                  SRATBL                          02933021
 000260 05EF                         635        BALR  JP,JQ                 STATIC                               02940021
 000262 58F0 C818      017A8         636        L     JQ,ADPRIM                  ADDR OF PRIME                   02947021
 000266 4110 C86C      017FC         637        LA    JA,PAROD2                  OD2TBL                          02954021
 00026A 05EF                         638        BALR  JP,JQ                            PRIME                     02961021
 00026C 4110 C84C      017DC         639        LA    JA,PARPIO                  PIOTBL                          02968021
 000270 05EF                         640        BALR  JP,JQ                            PRIME                     02975021
 000272 4110 C874      01804         641        LA    JA,PARFNT                  FNTBL                           02982021
 000276 05EF                         642        BALR  JP,JQ                            PRIME                     02989021
 000278 4110 C87C      0180C         643        LA    JA,PARRCD                  RCDTBL                          02996021
 00027C 05EF                         644        BALR  JP,JQ                            PRIME                     03003021
 00027E 4110 C894      01824         645        LA    JA,PARKEY                 KEY TABLE                        03010021
1PH1A     IKFCBL10                                                                                              PAGE   16
-  LOC  OBJECT CODE    ADDR1 ADDR2  STMT   SOURCE STATEMENT                                       ASM 0201 11.03 02/14/15
0000282 05EF                         646        BALR  JP,JQ                           PRIME                      03017021
 000284 4110 C89C      0182C         647        LA    JA,PARIND                 INDEX TABLE                      03024021
 000288 05EF                         648        BALR  JP,JQ                           PRIME                      03031021
 00028A 4110 C88C      0181C         649        LA    JA,PARTOT                  TOTTBL                          03038021
 00028E 05EF                         650        BALR  JP,JQ                             PRIME                    03045021
 000290 58F0 C040      00FD0         651        L     JQ,DATDIV                  SET BASE REG VAL FOR DATA D     03052021
 000294 5890 C010      00FA0         652        L     JJ,DATDV1                                                  03059021
 000298 5880 C014      00FA4         653        L     JH,DATDV2                                                  03066021
 00029C 50F0 D838      00868         654          ST    JQ,SVREG+NX56             ADJ SAVE REG AREA              03073021
 0002A0 9089 D81C      0084C         655          STM   JH,JJ,SVREG+NX28            ADJ SAVE REG AREA            03080021
 0002A4 50F0 DA18      00A48         656        ST    JQ,LNKR15                  SET-UP LINK REG15 AREA          03087021
 0002A8 D202 A15B C588 02D4B 01518   657          MVC   DATACD(LX3),DATCON        CWT VALUE FOR DATA             03094021
 0002AE 58E0 D878      008A8         658        L     JP,SV1F01                  RESTORE LINK REG                03101021
 0002B2 07FE                         659        BCR   UNCOND,JP                   -RETURN                        03108021
                                     660 *                                                                       03115021
 0002B4 50E0 D878      008A8         661 CWPRCD ST    JP,SV1F01                  SAVE LINK REG                   03122021
 0002B8 9101 D34F      0037F         662          TM    RPTWSW,XX01               REPORT SECTION                 03129021
 0002BC 4780 D306      00336         663        BC    ZERO,NORW                  NO -CONTINUE                    03136021
 0002C0 94FD D353      00383         664          NI    RWLTSW,XXFD               SET 'OFF' RWLTSW               03143021
 0002C4 9140 D36C      0039C         665          TM    FRSTRD,XX40               RD                             03150021
 0002C8 4780 D2B0      002E0         666        BC    ZERO,NORL                  NO CONTINUE                     03157021
 0002CC 5880 C014      00FA4         667        L    JH,DATDV2                                                   03164021
                             04D60   668        USING DDSCN,JQ                                                   03171021
                             05EA0   669        USING RDSCAN,JJ                                                  03178021
                             06BB0   670        USING FLUSH,JH                                                   03185021
 0002D0 45E0 8000      06BB0         671        BAL   JP,FLUSH              FLUSH                                03192021
 0002D4 9120 D360      00390         672          TM    GOODRD,XX20               GOOD RD                        03199021
 0002D8 4780 D2B0      002E0         673        BC    ZERO,NORL                  NO                              03206021
 0002DC 45E0 8396      06F46         674        BAL   JP,GNSPRT                  GEN SPES ROUTS                  03213021
                                     675        DROP JQ                                                          03220021
                                     676        DROP JJ                                                          03227021
                                     677        DROP JH                                                          03234021
 0002E0 58F0 C824      017B4         678 NORL   L     JQ,ADTREL                  ADDR OF TABREL                  03241021
 0002E4 5810 C8D4      01864         679        L     JA,NPTCON                  NPTTBL                          03248021
 0002E8 05EF                         680        BALR  JP,JQ                 RELEASE NPTTBL                       03255021
 0002EA 5810 C904      01894         681        L     JA,GCNCON                 RELEASE                          03262021
 0002EE 05EF                         682        BALR  JP,JQ                         GCNTBL                       03269021
 0002F0 5810 C8E4      01874         683        L     JA,QALCON                 RELEASE                          03276021
 0002F4 05EF                         684        BALR  JP,JQ                         QALTBL                       03283021
 0002F6 5810 C8BC      0184C         685        L     JA,ROLCON                   ROLTBL                         03290021
 0002FA 05EF                         686        BALR  JP,JQ                 RELEASE                              03297021
 0002FC 5810 C8B4      01844         687        L     JA,CTLCON                   CTLTBL                         03304021
 000300 05EF                         688        BALR  JP,JQ                 RELEASE                              03311021
 000302 5810 C8DC      0186C         689        L     JA,SUMCON                   SUMTBL                         03318021
 000306 05EF                         690        BALR  JP,JQ                 RELEASE                              03325021
 000308 5810 C8EC      0187C         691        L     JA,SRCCON                  SOURCE TABLE                    03332021
 00030C 05EF                         692        BALR  JP,JQ                 RELEASE                              03339021
 00030E 5810 C8F4      01884         693        L     JA,SMSCON                 SMSTBL                           03346021
 000312 05EF                         694        BALR  JP,JQ                 RELEASE                              03353021
 000314 5810 C8FC      0188C         695        L     JA,SNMCON                 SNMTBL                           03360021
 000318 05EF                         696        BALR  JP,JQ                 RELEASE                              03367021
 00031A 58F0 C820      017B0         697        L     JQ,ADSTAC                                                  03374021
 00031E 5810 C8A4      01834         698        L     JA,RNMCON                  RNMTBL                          03381021
 000322 05EF                         699        BALR  JP,JQ                 RELEASE                              03388021
 000324 5810 C8AC      0183C         700        L     JA,RWRCON                  RWRTBL                          03395021
1PH1A     IKFCBL10                                                                                              PAGE   17
-  LOC  OBJECT CODE    ADDR1 ADDR2  STMT   SOURCE STATEMENT                                       ASM 0201 11.03 02/14/15
0000328 05EF                         701        BALR  JP,JQ                 RELEASE                              03402021
 00032A 5810 C8C4      01854         702        L     JA,ROUCON                  ROUTBL                          03409021
 00032E 05EF                         703        BALR  JP,JQ                 RELEASE                              03416021
 000330 5810 C8CC      0185C         704        L     JA,DETCON                  DETTBL                          03423021
 000334 05EF                         705        BALR  JP,JQ                 RELEASE                              03430021
 000336 58F0 C824      017B4         706 NORW   L     JQ,ADTREL                  ADDR OF TABREL                  03437021
 00033A 5810 C834      017C4         707        L     JA,QNMCON                  QNMTBL                          03444021
 00033E 05EF                         708        BALR  JP,JQ                            RELEASE                   03451021
 000340 5810 C844      017D4         709        L     JA,ENVCON                  ENVTBL                          03458021
 000344 05EF                         710        BALR  JP,JQ                            RELEASE                   03465021
 000346 5810 C894      01824         711        L     JA,KYCON                  KEY TABLE                        03472021
 00034A 05EF                         712        BALR  JP,JQ                           RELEASE                    03479021
 00034C 5810 C89C      0182C         713        L     JA,INDCON                 INDEX TABLE                      03486021
 000350 05EF                         714        BALR  JP,JQ                           RELEASE                    03493021
 000352 58F0 C820      017B0         715        L     JQ,ADSTAC                                                  03500021
 000356 5810 C874      01804         716        L     JA,FNTCON                  FNTBL                           03507021
 00035A 05EF                         717        BALR  JP,JQ                            STATIC                    03514021
 00035C 5810 C86C      017FC         718        L     JA,OD2CON                 OD2TBL                           03521021
 000360 05EF                         719       BALR  JP,JQ                              STATIC                   03528021
 000362 5810 C84C      017DC         720        L     JA,PIOCON                 PIOTBL                           03535021
 000366 05EF                         721        BALR  JP,JQ                             STATIC                   03542021
 000368 5810 C87C      0180C         722        L     JA,RCDCON                  RCDTBL                          03549021
 00036C 05EF                         723        BALR  JP,JQ                            STATIC                    03556021
 00036E 5810 C88C      0181C         724        L     JA,TOTCON                  TOTTBL                          03563021
 000372 05EF                         725        BALR  JP,JQ                             STATIC                   03570021
 000374 58E0 D878      008A8         726        L     JP,SV1F01                  RESTORE LINK REG                03577021
 000378 07FE                         727        BCR   UNCOND,JP                   -RETURN                        03584021
                                     728 *=1    EQUATES                                                          03591021
                                     729 *                                                                       03598021
                                     730 ******    DATA AREA FOR PHASE 1    ******                               03605021
                                     731 *                                                                       03612021
                                     732 *                                                                       03619021
                                     733 *=2         SWITCHES                              ID   ENV  DATA PR     03626021
                                     734 *                                                                       03633021
                                     735 *                        BIT 0                                          03640021
                                     736 *                        BIT 1                                          03647021
                                     737 *                        BIT 2                                          03654021
 00037C                              738 LINKSW DS    0F          BIT 3     10   EF                              03661021
 00037C                              739 MSG4SW DS    0F          BIT 4     08   F7                              03668021
 00037C                              740 MSG1SW DS    0F          BIT 5     04   FB                              03675021
 00037C                              741 NAMDSW DS    0F          BIT 6     02   FD                              03682021
 00037C                              742 CFGSW  DS    0F          BIT 7     01   FE                              03689021
 00037C 0000000000000000             743 SWBYTS DC   5F'0'                      20 BYTES FOR SWITCHES            03696021
                             0037D   744 IOSW   EQU   SWBYTS+1    BIT 0                                          03703021
                             0037D   745 SCHSW  EQU   SWBYTS+1    BIT 1                                          03710021
                             0037D   746 RCMDSW EQU   SWBYTS+1    BIT 2     20   DF                              03717021
                             0037D   747 RCDSW  EQU   SWBYTS+1    BIT 3                                          03724021
                             0037D   748 BLKSW  EQU   SWBYTS+1    BIT 4                                          03731021
                             0037D   749 LBLSW  EQU   SWBYTS+1    BIT 5                                          03738021
                             0037D   750 DATASW EQU   SWBYTS+1    BIT 6                                          03745021
                             0037D   751 RPTSW  EQU   SWBYTS+1    BIT 7                                          03752021
                             0037E   752 FDMSW  EQU   SWBYTS+2    BIT 0                                          03759021
                             0037E   753 QUALSW EQU   SWBYTS+2    BIT 1                                          03766021
                             0037E   754 INSRSW EQU   SWBYTS+2    BIT 2                                          03773021
                             0037E   755 OD2SW  EQU   SWBYTS+2    BIT 3                                          03780021
1PH1A     IKFCBL10                                                                                              PAGE   18
-  LOC  OBJECT CODE    ADDR1 ADDR2  STMT   SOURCE STATEMENT                                       ASM 0201 11.03 02/14/15
0                            0037E   756 DHDRSW EQU   SWBYTS+2    BIT 4     08   F7                              03787021
                             0037E   757 PRDSW  EQU   SWBYTS+2    BIT 5     04   FB                              03794021
                             0037E   758 FSTLHN EQU   SWBYTS+2    BIT 6     02   FD                              03801021
                             0037E   759 PLHNSW EQU   SWBYTS+2    BIT 7     01   FE                              03808021
                             0037F   760 DSQLSW EQU   SWBYTS+3    BIT 0     80   7F                              03815021
                             0037F   761 QLPNSW EQU   SWBYTS+3    BIT 1     40   BF                              03822021
                             0037F   762 LCRDSW EQU   SWBYTS+3    BIT 2     20   DF                              03829021
                             0037F   763 DEBGSW EQU   SWBYTS+3    BIT 3     10   EF                              03836021
                             0037F   764 MSGPSW EQU   SWBYTS+3    BIT 4     08   F7   STOPS ERROR MSGS           03843021
                             0037F   765 REWRSW EQU   SWBYTS+3    BIT 5     04   FB                              03850021
                             0037F   766 DATCSW EQU   SWBYTS+3    BIT 6     02   FD                              03857021
                             0037F   767 RPTWSW EQU   SWBYTS+3    BIT 7     01   FE                              03864021
                             00380   768 SOCMSW EQU   SWBYTS+4    BIT 0     80   7F                              03871021
                             00380   769 COPYSW EQU   SWBYTS+4    BIT 1     40   BF   COPY-LIBRARY IN ACTION     03878021
                             00380   770 BASISW EQU   SWBYTS+4    BIT 2     20   DF   IN BASIS LIBRARY           03885021
                             00380   771 BGNDSW EQU   SWBYTS+4    BIT 3     10   EF       BEGIN AND ENDING       03892021
                             00380   772 DEBEOS EQU   SWBYTS+4    BIT 4     08   F7   STOPS EOSGEN ON DEBUG      03899021
                             00380   773 DEBULS EQU   SWBYTS+4    BIT 5     04   FB   STOPS ULSCAN FOR *DEBU     03906021
                             00380   774 FXCDSW EQU   SWBYTS+4    BIT 6     02   FD   INDICATES 1ST CARD REA     03913021
                             00380   775 CPYXSW EQU   SWBYTS+4    BIT 7     01   FE   COPY STATEMENT FOUND       03920021
                             00381   776 INDLSW EQU   SWBYTS+5    BIT 0     80   7F   LOOK FOR INSERT/DELETE     03927021
                             00381   777 INSTSW EQU   SWBYTS+5    BIT 1     40   BF   CARDS TO BE INSERTED       03934021
                             00381   778 INDERR EQU   SWBYTS+5    BIT 2     20   DF   INS/DEL ERROR MSG WENT     03941021
                             00381   779 INOWSW EQU   SWBYTS+5    BIT 3     10   EF   INSERT IN PROGRESS         03948021
                             00381   780 DELSW1 EQU   SWBYTS+5    BIT 4     08   F7   DELETE CARD                03955021
                             00381   781 DELSW2 EQU   SWBYTS+5    BIT 5     04   FB   DELETE THRU CARD           03962021
                             00381   782 DELSW3 EQU   SWBYTS+5    BIT 6     02   FD   DELETE THRU IN PROGRES     03969021
                             00381   783 CPYCSW EQU   SWBYTS+5    BIT 7     01   FE   COPY CHECK FROM CUR CE     03976021
                             00382   784 SYSISW EQU   SWBYTS+6    BIT 0     80   7F   SYSIN                      03983021
                             00382   785 SYSOSW EQU   SWBYTS+6    BIT 1     40   BF   SYSOUT                     03990021
                             00382   786 SYSPSW EQU   SWBYTS+6    BIT 2     20   DF   SYSPUNCH                   03997021
                             00382   787 SYSCSW EQU   SWBYTS+6    BIT 3     10   EF   CONSOLE                    04004021
                             00382   788 DUPMSG EQU   SWBYTS+6    BIT 4     08   F7   SP-NAMES DUP MSG           04011021
                             00382   789 FD01SW EQU   SWBYTS+6    BIT 5     04   FB   FD WAS LAST FILE-SCT L     04018021
                             00382   790 NOTESW EQU   SWBYTS+6    BIT 6     02   FD   IN A NOTE IN P.D.          04025021
                             00382   791 REDFSW EQU   SWBYTS+6    BIT 7     01   FE   NOT 1ST TIME THRU LEVE     04032021
                             00383   792 NOLHSW EQU   SWBYTS+7    BIT 0     80   7F   NOT PRECEDED BY LHN-NO     04039021
                             00383   793 IOCSW  EQU   SWBYTS+7    BIT 1     40   BF   I-O-CONTROL                04046021
                             00383   794 LCDXSW EQU   SWBYTS+7    BIT 2     20   DF   LAST CARD DURING INS/D     04053021
                             00383   795 RPORSW EQU   SWBYTS+7    BIT 3     10   EF   REPORTS CLAUSE             04060021
                             00383   796 DMSGSW EQU   SWBYTS+7    BIT 4     08   F7   MSG FOR DELETE CARD        04067021
                             00383   797 SELNSW EQU   SWBYTS+7    BIT 5     04   FB   MSGS FOR SELECT            04074021
                             00383   798 RWLTSW EQU   SWBYTS+7    BIT 6     02   FD   IN RW IN DATA DIV ONLY     04081021
                             00383   799 FRGNSW EQU   SWBYTS+7    BIT 7     01   FE   DECIMAL IS COMMA           04088021
                             00384   800 ACCSW  EQU   SWBYTS+8    BIT 0     80   7F   ACCESS                     04095021
                             00384   801 ORGSW  EQU   SWBYTS+8    BIT 1     40   BF   ORGAN                      04102021
                             00384   802 RESSW  EQU   SWBYTS+8    BIT 2     20   DF   RESERVE                    04109021
                             00384   803 FLTSW  EQU   SWBYTS+8    BIT 3     10   EF   FILE-LIMIT                 04116021
                             00384   804 DUMUSE EQU   SWBYTS+8    BIT 4     08   F7   SECTION-NAME FOR USE V     04123021
                             00384   805 VALXW  EQU   SWBYTS+8    BIT 5     04   FB   VALUE CLAUSE               04130021
                             00384   806 RMULSW EQU   SWBYTS+8    BIT 6     02   FD   MULTIPLE VALUES            04137021
                             00384   807 DDQSW  EQU   SWBYTS+8    BIT 7     01   FE   QUAL NM IN DATA DIV        04144021
                             00385   808 TOTUSD EQU   SWBYTS+9    BIT 0     80   7F   TOTALED SPEC'D             04151021
                             00385   809 THRUSW EQU   SWBYTS+9    BIT 1     40   BF   FILE-LIMITS THRU FOUND     04158021
                             00385   810 USEPDL EQU   SWBYTS+9    BIT 3     10   EF   USE IN  PD FOR LABELS      04165021
1PH1A     IKFCBL10                                                                                              PAGE   19
-  LOC  OBJECT CODE    ADDR1 ADDR2  STMT   SOURCE STATEMENT                                       ASM 0201 11.03 02/14/15
0                            00385   811 USEPDE EQU   SWBYTS+9    BIT 4     08   F7   USE IN   PD FOR ERROR      04172021
                             00385   812 SRTSW  EQU   SWBYTS+9    BIT 5     04   FB   SORT SW                    04179021
                             00385   813 CRSGSW EQU   SWBYTS+9    BIT 6     02   FD   CURRENCY SIGN SW           04186021
                             00385   814 CCWSW  EQU   SWBYTS+9    BIT 7     01   FE   CARR-CTL SPEC-NM           04193021
                             00387   815 DPSW   EQU   SWBYTS+11   BIT 0     80   7F   USED FOR OCCURS CL         04200021
                             00387   816 ASDESW EQU   SWBYTS+11    BIT 1     40   BF                             04207021
                             00387   817 INDXSW EQU   SWBYTS+11    BIT 2     20   DF                             04214021
                             00387   818 TOSW   EQU   SWBYTS+11    BIT 3     10   EF                             04221021
                                     819 *        CONTINUATION OF DATA AREA FOR PH1A                             04228021
                             00387   820 REPSW  EQU   SWBYTS+11   BIT 4     08   F7   REPLACING IN COPY CL       04235021
                             00387   821 BYSW   EQU   SWBYTS+11   BIT 5     04   FB   BY IN COPY CLAUSE          04242021
                             00387   822 WD1SW  EQU   SWBYTS+11   BIT 6     02   FD   OBJECT OF REPLACE-COPY     04249021
                             00387   823 WD2SW  EQU   SWBYTS+11   BIT 7     01   FE   OBJECT OF BY IN COPY       04256021
                             00388   824 CDSURP EQU   SWBYTS+12   BIT 0     80   7F   SURPRESS GTCARD CALL       04263021
                             00388   825 BUF2SW EQU   SWBYTS+12   BIT 1     40   BF   2 TEMP BUFF FOR COP RE     04270021
                             00388   826 BUF3SW EQU   SWBYTS+12   BIT 2     20   DF   3 BUF FOR COPY REPLACI     04277021
                             00388   827 BUF4SW EQU   SWBYTS+12   BIT 3     10   EF   MORE THAN 3 WK BUF NEE     04284021
                             00388   828 CONTSW EQU   SWBYTS+12   BIT 4     08   F7   CONTINUATION ON NXT CD     04291021
                             00388   829 CPERSW EQU   SWBYTS+12   BIT 5     04   FB   NO MEMBER IN COPY LIB      04298021
                             00388   830 CPYQSW EQU   SWBYTS+12   BIT 6     02   FD   COPY IN 01                 04305021
                             00388   831 REPQSW EQU   SWBYTS+12   BIT 7     01   FE   QUALIFIED WD REPLACING     04312021
                             00389   832 CON2SW EQU   SWBYTS+13   BIT 0     80   7F   USASIA CONTINUATION        04319021
                             00389   833 NWCDSW EQU   SWBYTS+13   BIT 1     40   BF   CONTINUATION OF WD RTN     04326021
                             00389   834 SKCDSW EQU   SWBYTS+13   BIT 2     20   DF   SKIP CARD GET IN GETWD     04333021
                             00389   835 GTRTSW EQU   SWBYTS+13   BIT 3     10   EF   GETWD CALLED BY GTCD       04340021
                             00389   836 LASTSW EQU   SWBYTS+13   BIT 4     08   F7   LAST WD PROC FOR COPYR     04347021
                             00389   837 CRCDSW EQU   SWBYTS+13   BIT 5     04   FB   COPY WD NOT ENT RECTBL     04354021
                             00389   838 MVLASW EQU   SWBYTS+13   BIT 6     02   FD   LAST CARD HIT IN COPY      04361021
                             00389   839 DBRDSW EQU   SWBYTS+13   BIT 7     01   FE   DOUBLE BUFFER IN COP R     04368021
                             0038A   840 CNRDSW EQU  SWBYTS+14    BIT 0     80   7F   SKIP READ AT END OF CO     04375021
                             0038A   841 SURPSW EQU   SWBYTS+14   BIT 1     40   BF   SUPPRESS COPY LIB          04382021
                             0038A   842 BUF5SW EQU   SWBYTS+14   BIT 2     20   DF   4 WK AREA FOR COPYR        04389021
                             0038A   843 PRIDSW   EQU   SWBYTS+14    BIT 3  10  EF PROG-ID SWITCH                04396021
                                     844 *            SWBYTS+14   BIT 4     USED IN PH1B                         04403021
                             0038A   845 OCCURNUM EQU   SWBYTS+14  BIT 5  04  FB OCCURS CLAUSE IN EFFECT         04410021
                             0038A   846 CMNTCDSW EQU SWBYTS+14   BIT 6     02   FD   DELETING COMMENT CARD      04417021
                                     847 *REPORT WRITER SWITCHES                                                 04424021
 000390 00000000                     848 RDSW   DC    F'0'                       RESET ON NEW RD                 04431021
                             00390   849 FRST01 EQU   RDSW                       80                              04438021
                             00390   850 RDCLSW EQU   RDSW                       40                              04445021
                             00390   851 GOODRD EQU   RDSW                       20                              04452021
                             00390   852 CPRDSW EQU   RDSW                       10        COPY                  04459021
                             00390   853 PGLMIT EQU   RDSW                 BIT 4     08   INT-1 ONLY             04466021
                             00390   854 ROLSW  EQU   RDSW                       04                              04473021
                             00390   855 SCNDFD EQU   RDSW              BIT 6    02   2ND FILE-NM SPECIFIED      04480021
                             00390   856 SCNDTM EQU   RDSW             BIT 7     01       2ND TIME THRU SW       04487021
                             00391   857 PFSW   EQU   RDSW+1                     80                              04494021
                             00391   858 PHSW   EQU   RDSW+1                     40                              04501021
                             00391   859 RHSW   EQU   RDSW+1                     20                              04508021
                             00391   860 RFSW   EQU   RDSW+1                     10                              04515021
                             00391   861 CHFSW  EQU   RDSW+1                     O8                              04522021
                             00391   862 CFFSW  EQU   RDSW+1                     O4                              04529021
                             00391   863 SCNDWR EQU   RDSW+1           BIT 6     02                              04536021
                             00391   864 CTLSUB EQU   RDSW+1           BIT 7     01   INDICATE SUBS CTL-NM       04543021
                             00392   865 NOPGHD EQU   RDSW+2                BIT 0     80   NO PH ALLOWED         04550021
1PH1A     IKFCBL10                                                                                              PAGE   20
-  LOC  OBJECT CODE    ADDR1 ADDR2  STMT   SOURCE STATEMENT                                       ASM 0201 11.03 02/14/15
0                            00392   866 NOPGFT EQU   RDSW+2                BIT 1     40   NO PF ALLOWED         04557021
                             00392   867 PGESW  EQU   RDSW+2           BIT 2     20   PAGE CLAUSE SPECIFIED      04564021
                             00392   868 RELABS EQU   RDSW+2           BIT 3     10   FLAG BAD ABS LINES         04571021
                                     869 ***  NOTE XFTFNL AND XFTFN2 MUST REMAIN TOGETHER  *****************     04578021
                             00392   870 XFTFNL EQU   RDSW+2           BIT 4     08   FINAL XFTNG ONLY   ***     04585021
                             00392   871 XFTFN2 EQU   RDSW+2           BIT 5     04   FINAL XFTNG + CTLS ***     04592021
                                     872 *******************************************************************     04599021
                                     873 *                             BIT 6     02                              04606021
                                     874 *                             BIT 7     01                              04613021
                             00393   875 CODSW  EQU   RDSW+3           BIT 0     80   CODE CLAUSE SPECIFIED      04620021
                                     876 *                             BIT 1     40                              04627021
                                     877 *                             BIT 2     20                              04634021
                                     878 *                             BIT 3     10                              04641021
                                     879 *                             BIT 4     08                              04648021
                                     880 *                             BIT 5     04                              04655021
                                     881 *                             BIT 6     02                              04662021
                                     882 *                             BIT 7     01                              04669021
 000394 0000000000000000             883 RWSWA  DC    2F'0'                                                      04676021
                             00394   884 SCAN02 EQU   RWSWA            BIT 0     80   IN PROC02 SCAN             04683021
                             00394   885 INDOCT EQU   RWSWA            BIT 1     40   IN DOCTL ROUTINE           04690021
                             00394   886 SCAN01 EQU   RWSWA            BIT 2     20   IN PROC01 SCAN             04697021
                             00394   887 PGHXIT EQU   RWSWA            BIT 3     10   IN PH EXIT CODE            04704021
                             00394   888 INRLSR EQU   RWSWA            BIT 4     08   IN RLS-ROUT                04711021
                             00394   889 FSTLNA EQU   RWSWA            BIT 5     04  FIRST ABS LINE              04718021
                             00394   890 FSTLNR EQU   RWSWA            BIT 6     02  FIRST RELATIVE LINE         04725021
                             00394   891 BADLNA EQU   RWSWA            BIT 7     01   IGNORE ABS LINE            04732021
                             00395   892 COLCLS EQU   RWSWA+1          BIT 0     80  COL CLS SPEC IN RPT-GRP     04739021
                             00395   893 CTLSW  EQU   RWSWA+1               1         40                         04746021
                             00395   894 NGINT  EQU   RWSWA+1          BIT 2     20   IN NEXT GROUP INTEGER      04753021
                             00395   895 NXGPSW EQU   RWSWA+1                         10                         04760021
                             00395   896 LNSW   EQU   RWSWA+1                         08                         04767021
                             00395   897 TPSW   EQU   RWSWA+1                         04                         04774021
                             00395   898 INTPSW EQU   RWSWA+1                    02                              04781021
                             00395   899 USMRSW EQU   RWSWA+1          BIT 7     01   IN USM-ROUT                04788021
                                     900 * NOTE  BYTE RNSWA+2 MUST REMAIN TOGETHER AS SPECIFIED                  04795021
                                     901 *      INTFSW, INTDSW, INTESW, AND INTHSW MUST REPRESENT                04802021
                                     902 *      BITS 0, 1, 2, AND 7 RESPECTIVELY                                 04809021
                             00396   903 INTFSW EQU   RWSWA+2                    80                              04816021
                             00396   904 INTDSW EQU   RWSWA+2                    40                              04823021
                             00396   905 INTESW EQU   RWSWA+2                    20                              04830021
                             00396   906 DNSW   EQU   RWSWA+2                    10                              04837021
                             00396   907 LN01SW EQU   RWSWA+2                    08                              04844021
                             00396   908 NGPSW  EQU   RWSWA+2                    04                              04851021
                             00396   909 ELEM01 EQU   RWSWA+2          BIT 6     02   ELEMENTARY 01 ITEM         04858021
                             00396   910 INTHSW EQU   RWSWA+2              BIT 7      01  INT-2 THRU INT-5       04865021
                             00397   911 COLSW  EQU   RWSWA+3                    80                              04872021
                             00397   912 GINSW  EQU   RWSWA+3                    40                              04879021
                             00397   913 BWZSW  EQU   RWSWA+3                    20                              04886021
                             00397   914 RSTSW  EQU   RWSWA+3                    10                              04893021
                             00397   915 PICSW  EQU   RWSWA+3                    08                              04900021
                             00397   916 SRCSW  EQU   RWSWA+3                    04                              04907021
                             00397   917 SUMSW  EQU   RWSWA+3                    02                              04914021
                             00397   918 VALSW  EQU   RWSWA+3                    01                              04921021
                             00398   919 JUSSW  EQU   RWSWA+4                    80                              04928021
                             00398   920 LN2SW  EQU   RWSWA+4                    40                              04935021
1PH1A     IKFCBL10                                                                                              PAGE   21
-  LOC  OBJECT CODE    ADDR1 ADDR2  STMT   SOURCE STATEMENT                                       ASM 0201 11.03 02/14/15
0                            00398   921 DUP2SW EQU   RWSWA+4                    20        ERROR IN VAL,PICT     04942021
                             00398   922 SUMSW1 EQU   RWSWA+4          10        END OF SUMTBL FOR SUMTB1        04949021
                             00398   923 SUMSW2 EQU   RWSWA+4          08        END OF SUMTBL FOR SUMTB2        04956021
                             00398   924 SUMSW3 EQU   RWSWA+4          04        ENTRY WAS MADE IN ROLTBL        04963021
                             00398   925 SUMSWS EQU   RWSWA+4          02       NO SEARCH - S.NAME               04970021
                             00398   926 INSBSW EQU   RWSWA+4                    01                              04977021
                             00399   927 SRCQSW EQU   RWSWA+5                    80                              04984021
                             00399   928 SRCSSW EQU   RWSWA+5                    40                              04991021
                             00399   929 SUBSW  EQU   RWSWA+5                    20                              04998021
                             00399   930 EL01OK EQU   RWSWA+5          BIT 3     10   ELEMENTARY 01 OK           05005021
                             00399   931 ELEMNN EQU   RWSWA+5          BIT 4     08   ELEMENTARY NN ITEM         05012021
                             00399   932 VALALL EQU   RWSWA+5          BIT 5     04   VALUE ALL SWITCH           05019021
                             00399   933 PRSWCF EQU   RWSWA+5          BIT 6     02   CF EXIT CODE               05026021
                             00399   934 RSETSW EQU   RWSWA+5          BIT 7     01   RESET SPECIFIED            05033021
                             0039A   935 BADGRP EQU   RWSWA+6          BIT 0     80   BAD REPORT GROUP SW        05040021
 00039C 00000000                     936 RWSWB  DC    F'0'                       RW SWITCHES FOR PROC DIV        05047021
                             0039C   937 INITSW EQU   RWSWB                      80 -- 7F                        05054021
                             0039C   938 GENSW1 EQU   RWSWB                      40                              05061021
                             0039C   939 FRSTRD EQU   GENSW1                     40 USED AS FIRST RD             05068021
                             0039C   940 GENSW2 EQU   RWSWB                      20                              05075021
                                     941 *                                                                       05082021
 0003A0 00                           942 QLRTSW DC    X'00'                      QUALIFIED-NAME ROUTINE SWIT     05089021
 0003A1 00                           943 AMARSW DC    X'00'  BIT0-STD WD, 1-BCD NAME, 2-INT-NUM-LIT, O-DECLA     05096021
 0003A2 00                           944 PICTSW DC    X'0'                                                       05103021
 0003A3 00                           945 SIGNSW DC    X'00'                                                      05110021
 0003A4 00                           946 DECSW  DC    X'00'                MUST FOLLOW SIGNSW                    05117021
                                     947 *                                                                       05124021
                                     948 *                                                                       05131021
                                     949 * SIGNIFICANT NAMES. FIRST BYTE CONTAINS COUNT OF CHARS IN NAME.        05138021
                                     950 *                                                                       05145021
 0003A5 0F                           951 DIVCOD DC    X'0F'  CODE TO TEST WHICH DIVISION IS IN EFFECT            05152021
 0003A6 23                           952        DC    X'23'                                                      05159021
 0003A7                              953 DIVNM  DS    CL31   NAME OF  CURRENT DIVISION                           05166021
 0003C6 23                           954        DC    X'23'                                                      05173021
 0003C7                              955 SECTNM DS    CL31   NAME OF  CURRENT SECTION                            05180021
 0003E6 23                           956        DC    X'23'                                                      05187021
 0003E7                              957 PARNM  DS    CL31   NAME OF  CURRENT PARAGRAPH                          05194021
 000406 23                           958        DC    X'23'                                                      05201021
 000407                              959 CLSNM  DS    CL31   NAME OF  CURRENT CLAUSE                             05208021
 000426 23                           960        DC    X'23'                                                      05215021
 000427                              961 VERBNM DS    CL31   NAME OF  CURRENT VERB                               05222021
                                     962 *                                                                       05229021
 000446 0000
 000448 00000F90                     963 HSKP1   DC   A(IDDIV1)          ***MUST BE IN PH1SAV USING***           05236021
 00044C 00000000                     964 ADPB12 DC    A(PBEG12)                                                  05243021
                                     965 *=2      COMMON WORK AREA SPACE                                         05250021
                                     966 *                                                                       05257021
 000450 0003                         967 ICTEXT DC    H'3'                       CONSTANT OF '0003'              05264021
 000452                              968        DS    CL230                                                      05271021
                                     969 *                                                                       05278021
                                     970 *=2         FS TEXT BUILD AREA                         ENV              05285021
                                     971 *                                                                       05292021
                             00451   972 FSCONS EQU   ICTEXT+1         1         IC-TEXT LEVEL CODE              05299021
                             00452   973 FSN    EQU   ICTEXT+2         1         SIZE OF FS-TEXT                 05306021
                             00453   974 FSLEV  EQU   ICTEXT+3         1         LEVEL NUMBER  FD                05313021
1PH1A     IKFCBL10                                                                                              PAGE   22
-  LOC  OBJECT CODE    ADDR1 ADDR2  STMT   SOURCE STATEMENT                                       ASM 0201 11.03 02/14/15
0                                    975 *                                                                       05320021
                             00454   976 FSEGSN EQU   ICTEXT+4         2         GEN CARD NUMBER                 05327021
                             00456   977 FSEEXT EQU   ICTEXT+6         7        EXTERNAL NAME                    05334021
                             0045C   978 FSEEXB EQU   ICTEXT+12        1        BLANK IF SYSNNN IS FSEEXT        05341021
                             0045D   979 FSESYS EQU   ICTEXT+13        1         SYS NUMBER                      05348021
                             0045E   980 FSEACC EQU   ICTEXT+14   10    1   80   ACCESS 0-SEQ,1-RAN              05355021
                             0045E   981 FSEORG EQU   ICTEXT+14         3   70   ORGAN  0-SEQ,1-IND,2-DIR,4-     05362021
                             0045E   982 FSEDCL EQU   ICTEXT+14         3   0E   DEV-CL       1-DIR,2-U.R,4-     05369021
                             0045E   983 FSERVS EQU   ICTEXT+14         1   01   RESERVE                         05376021
                             0045F   984 FSEOPT EQU   ICTEXT+15         1   80   SELECT OPTIONAL-DOS             05383021
                             0045F   985 FSESMS EQU   ICTEXT+15         1   40   SAME AREA SW                    05390021
                             0045F   986 FSEESS EQU   ICTEXT+15         1   20   EXTENDED SEARCH SW              05397021
                             0045F   987 FSESRS EQU   ICTEXT+15             1    10   SAME REC AREA SW           05404021
                             0045F   988 FSESSS EQU   ICTEXT+15             1    08   SAME SORT AREA SW          05411021
                             0045F   989 FSECHP EQU   ICTEXT+15         1   04   CKPTBL SW                       05418021
                             0045F   990 FSEPIO EQU   ICTEXT+15         1   02   PIOTBL SW                       05425021
                             0045F   991 FSEAPP EQU   ICTEXT+15         1   01   RANDOM PROCESSING               05432021
                             00460   992 FSEDVC   EQU   ICTEXT+16                DEVICE NUMBER CODE              05439021
                             00460   993 FSEAPT EQU   ICTEXT+16   12   2         APPTBL PTR                      05446021
                             00462   994 FSEPIT EQU   ICTEXT+18   14   2         PIOTBL PTR                      05453021
                             00464   995 FSERES EQU   ICTEXT+20   16   1         RESERVE BIN-NUM                 05460021
                             00465   996 FSEDUM EQU   ICTEXT+21   17   1                DUMMY-BYTE               05467021
                             00466   997 FSETLM EQU   ICTEXT+22   18   2         TRACK-LIMIT BIN NUM-OS          05474021
                             00468   998 FSEESH EQU   ICTEXT+24   20   2         EXTENDED-SEARCH BIN NUM-OS      05481021
                             0046A   999 FSECPT EQU   ICTEXT+26   22   2         CKPTBL PTR                      05488021
                             0046C  1000 FSESAM EQU   ICTEXT+28   24   1         SAME BIN-NUM                    05495021
                             0046D  1001 FSETKA EQU   ICTEXT+29   25    2   C0   TRK-AR SW    1-DNM,2-INT        05502021
                                    1002 *                              1       UNUSED                           05509021
                             0046D  1003 FSENOM EQU   ICTEXT+29         1   10   NOMKEY SW                       05516021
                             0046D  1004 FSEACT EQU   ICTEXT+29         1   08   ACTKEY SW                       05523021
                             0046D  1005 FSEREC EQU   ICTEXT+29         1   04   RECKEY SW                       05530021
                             0046D  1006 FSEWRT EQU   ICTEXT+29         1   02   WRONLY SW                       05537021
                             0046D  1007 FSERPT EQU   ICTEXT+29         1   01   RECPRT SW                       05544021
                             0046E  1008 FSEWRV EQU   ICTEXT+30   26    1   80   WRITE VERIFY SW                 05551021
                             0046E  1009 FSECOS EQU   ICTEXT+30         1   40   CYL OVERFLOW SW                 05558021
                             0046E  1010 FSEMFT EQU   ICTEXT+30         1   08   MULTIPLE FILE TAPE SW           05565021
                             0046E  1011 FSEMSI EQU   ICTEXT+30         1   04   MASTER INDEX SW                 05572021
                             0046E  1012 FSECYI EQU   ICTEXT+30        1    02   CYL-INDEX                       05579021
                             0046E  1013 FSEROS EQU   ICTEXT+30         1   01   RECORD OVERFLOW SW-OS           05586021
                             0046F  1014 FSESWU EQU   ICTEXT+31   27    4   FO   NO OF SORT WORK UNITS           05593021
                             0046F  1015 FSEICI EQU   ICTEXT+31        1    08   CORE-INDEX                      05600021
                             0046F  1016 FSEREO EQU   ICTEXT+31         1   04  REORG-CRITERIA                   05607021
                                    1017 *                              2       UNUSED BITS                      05614021
                             00470  1018 FSESRA EQU   ICTEXT+32   28   1         SAME RECORD AREA BIN NUM        05621021
                             00471  1019 FSEPIN EQU   ICTEXT+33   29   1         POSITION INTEGER                05628021
                             00472  1020 FSECOT EQU   ICTEXT+34   30   1         CYL OVERFLOW TRACKS-DOS         05635021
                             00473  1021 FSEDTC EQU   ICTEXT+35   31   1         DEVICE TYPE CODE-DOS            05642021
                             00474  1022 FSEDHI EQU   ICTEXT+36   32   1         DEVICE OF HIGHEST INDEX-DOS     05649021
                             00475  1023 FSESOT EQU   ICTEXT+37   33   1         SAME SORT AREA-BIN NUM          05656021
                             00476  1024 FSEFN  EQU   ICTEXT+38   34  32         FILENAME                        05663021
                             00496  1025 FSETAN EQU   ICTEXT+70   66   4         TRK-AR SIZE PTR                 05670021
                             0049A  1026 FSENMK EQU   ICTEXT+74   70   4         NOMKEY SIZE PTR                 05677021
                             0049E  1027 FSEACK EQU   ICTEXT+78   74   4         ACTKEY SIZE PTR                 05684021
                             004A2  1028 FSERCK EQU   ICTEXT+82   78   4         RECKEY SIZE PTR                 05691021
                             004A6  1029 FSEDCI EQU   ICTEXT+86   82   4         DN FROM APPLY CYLINDEX SIZE     05698021
1PH1A     IKFCBL10                                                                                              PAGE   23
-  LOC  OBJECT CODE    ADDR1 ADDR2  STMT   SOURCE STATEMENT                                       ASM 0201 11.03 02/14/15
0                            004A6  1030 FSERED EQU   ICTEXT+86   82   4        DN FOR APP REORG-CRIT            05705021
                                    1031 *                                                                       05712021
                                    1032 *=2         FS TEXT BUILD AREA     FD                       DATA        05719021
                                    1033 *                                                                       05726021
                             00465  1034 FSDCPY EQU   ICTEXT+21         1   80   COPY   SW                       05733021
                             00465  1035 FSDBCC EQU   ICTEXT+21         2   18   BLOCK        1-REC,2-CHR        05740021
                             00465  1036 FSDLRD EQU   ICTEXT+21         2   06   LABEL    1-STD,2-OMT,3-DNM      05747021
                             00465  1037 FSDRPT EQU   ICTEXT+21         1   01   REPORTS                         05754021
                             00466  1038 FSDBLC EQU   ICTEXT+22        2         BLOCK-CONT    BIN-NUM           05761021
                             00468  1039 FSDRC1 EQU   ICTEXT+24        2         RECORD-CONT-1 BIN-NUM           05768021
                             0046A  1040 FSDRC2 EQU   ICTEXT+26        2         RECORD-CONT-2 BIN-NUM           05775021
                             0047C  1041 FSDBLM EQU   ICTEXT+44       2         BLOCK CONTAINS MAX CT BIN-NU     05782021
                             0047E  1042 FSDTOG EQU   ICTEXT+46         1        TOTALING AREA                   05789021
                             0047E  1043 FSDTOD EQU   ICTEXT+46             1        TOTALED AREA                05796021
                             0047E  1044 FSDRCM EQU   ICTEXT+46        4        MODE 20-F 10-V 08-U 04-S 00-     05803021
                             004AA  1045 FSDTDN EQU   ICTEXT+90             4  TOTALING AR DN SIZE/PTR           05810021
                             004B6  1046 FSDLRC EQU   ICTEXT+102       4        LAB-REC SIZE/PTR                 05817021
                             0047F  1047 FSDFN  EQU   ICTEXT+47                                                  05824021
                             0049E  1048 FSDDN  EQU   ICTEXT+78                 DN PTR/SIZE FROM ENVTBL          05831021
                                    1049 *                                                                       05838021
                             00451  1050 FSTXT0 EQU   FSCONS           * THESE EQU'S *                           05845021
                             00454  1051 FSTXT1 EQU   FSEGSN            ARE USED                                 05852021
                             00465  1052 FSTXT2 EQU   FSEDUM            FOR PUT OF                               05859021
                             0046C  1053 FSTXT3 EQU   FSESAM            CONSTANT FSTEXT AREA                     05866021
                             0047F  1054 FSTXT4 EQU   ICTEXT+47                                                  05873021
                             00054  1055 FSENGT EQU   FSEDCI+4-FSEEXT                                            05880021
                                    1056 *                                                                       05887021
                                    1057 *=2         FS TEXT BUILD AREA     SA + SD                  DATA        05894021
                                    1058 *                                                                       05901021
 000538 0331                        1059 SADCON DC    X'0331'                   LEVEL CODE AND SIZE              05908021
                                    1060 *                                                                       05915021
                             00456  1061 SADCOD EQU   ICTEXT+6         2         LEVEL-CODE AND LENGTH           05922021
                             00458  1062 SADLEV EQU   ICTEXT+8         1         LEVEL-NUM                       05929021
                             00459  1063 SADSWU EQU   ICTEXT+9           4       NO OF SORT WORK UNITS           05936021
                             00459  1064 SADLBR EQU   ICTEXT+9           2       LABEL RECDS 01-STAND 10-OMI     05943021
                             00459  1065 SADSRS EQU   ICTEXT+9          1       SAME REC SW                      05950021
                             00459  1066 SADSTS EQU   ICTEXT+9          1       SAME SORT SW                     05957021
                             0045A  1067 SADGCN EQU   ICTEXT+10        20        GEN-CARD-NUM                    05964021
                             0045C  1068 SADNM1 EQU   ICTEXT+12        20        1ST INT                         05971021
                             0045E  1069 SADNM2 EQU   ICTEXT+14        20        2ND INT                         05978021
                             00460  1070 SADDVC EQU   ICTEXT+16          3       DEVICE CLASS                    05985021
                             00460  1071 SADMOD EQU   ICTEXT+16         4       REC MODE                         05992021
                                    1072 *                              1       UNUSED                           05999021
                             00461  1073 SADSRA EQU   ICTEXT+17        1        SAME REC NO                      06006021
                             00462  1074 SADEXN EQU   ICTEXT+18         8       EXTERNAL NAME                    06013021
                             0046A  1075 SADBCD EQU   ICTEXT+26         31      BCD NAME                         06020021
                                    1076 *                                                                       06027021
                                    1077 *=2         LD TEXT BUILD AREA     01-49,77,88              DATA        06034021
                                    1078 *                                                                       06041021
                             00451  1079 LDCONS EQU   ICTEXT+1         1                                         06048021
                             00452  1080 LDN    EQU   ICTEXT+2         1                                         06055021
                             00453  1081 LDLEV  EQU   ICTEXT+3         1                                         06062021
                             00454  1082 LDCDN  EQU   ICTEXT+4         2                                         06069021
                             00456  1083 LBZ    EQU   ICTEXT+6         1                                         06076021
                             00457  1084 LOD1   EQU   ICTEXT+7           6                                       06083021
1PH1A     IKFCBL10                                                                                              PAGE   24
-  LOC  OBJECT CODE    ADDR1 ADDR2  STMT   SOURCE STATEMENT                                       ASM 0201 11.03 02/14/15
0                            00457  1085 LRNS   EQU   ICTEXT+7           1       RENAMES                         06090021
                             00457  1086 LSYN   EQU   ICTEXT+7           1       SYNCHRONIZED                    06097021
                             00458  1087 LOH    EQU   ICTEXT+8         2                                         06104021
                             0045A  1088 LSLR   EQU   ICTEXT+10          1       0 IS LEFT, 1 IS RIGHT           06111021
                             0045A  1089 LRNT   EQU   ICTEXT+10          1       RENAMES THRU                    06118021
                             0045A  1090 LOCCRS EQU   ICTEXT+10         1        ENTRY BYTE9/BIT5 OCCURS   47955 06125021
                             0045B  1091 LNIND  EQU   ICTEXT+11         1        NO OF INDEXES                   06132021
                             0045C  1092 LNKEY  EQU   ICTEXT+12         1        NO OF KEYS                      06139021
                             0045D  1093 LD     EQU   ICTEXT+13        31        DATANAME                        06146021
                             0047C  1094 LP2    EQU   ICTEXT+44        31        PICTURE                         06153021
                             0049B  1095 LV2    EQU   ICTEXT+75       121        VALUE                           06160021
                             00514  1096 LR2    EQU   ICTEXT+196       31        REDEFINES                       06167021
                             00533  1097 LOD2   EQU   ICTEXT+227        2        PTR TO OD2TBL OR INTERNAL R     06174021
                             000E3  1098 LDLNGT EQU   LOD2+2-LDN                                                 06181021
                             00030  1099 SDLNGT EQU   SADBCD+31-SADSWU                                           06188021
                                    1100 *                                                                       06195021
                                    1101 *=2         E-TEXT MESSAGE PARAM                  ID   ENV  DATA PR     06202021
                                    1102 *                                                                       06209021
 00053A 000600                      1103 MSGDEF DC    X'000600'             MESSAGE DEFINITION                   06216021
 00053D 0000                        1104 MSGNUM DC    X'0000'                    MSG NUMBER                      06223021
 00053F 0000                        1105 MSGGCN DC    X'0000'                    GEN SEQ NUMBER                  06230021
 000541 01                          1106 MSGSP  DC    X'01'                      SEVERITY - PHASE NUMBER         06237021
 000542 0000                        1107 EPARNN DC    X'0000'                    E-TEXT PARAM                    06244021
 000544 0000                        1108 EPARAM DC    X'0000'                    -PARAM                          06251021
 000546                             1109        DS    CL120                         CONTINUED                    06258021
 0005BE 0000000000000000            1110 SECPAR DC    2XL16'0'                   SECOND PARAM                    06265021
 000000                             1111 ENFSDS DSECT                                                            06272021
 000000                             1112 ENFGSN DS    2X                         GENERATED CARD NO               06279021
 000002                             1113 ENFEXT DS    7X                         EXTERNAL NAME                   06286021
 000009                             1114 ENFSYS DS    1X                         SYS NO                          06293021
 00000A                             1115 ENFFL1 DS    1X                         FLAG1                           06300021
                             00080  1116 ENFACC EQU   X'80'                      ACCESS                          06307021
                             00070  1117 ENFORG EQU   X'70'                      ORGAN                           06314021
                             0000E  1118 ENFDCL EQU   X'0E'                      DEV-CL                          06321021
                             00001  1119 ENFRVS EQU   X'01'                      RESERVE                         06328021
 00000B                             1120 ENFFL2 DS    1X                         FLAG2                           06335021
                             00080  1121 ENFOPT EQU   X'80'                      OPTIONAL                        06342021
                             00040  1122 ENFSMS EQU   X'40'                      SAME AREA                       06349021
                             00020  1123 ENFESS EQU   X'20'                      EXTENDED SEARCH                 06356021
                             00010  1124 ENFSRS EQU   X'10'                      SAME REC AREA SW                06363021
                             00008  1125 ENFSSS EQU   X'08'                      SAME SORT AREA SW               06370021
                             00004  1126 ENFCHP EQU   X'04'                      CKPTBL                          06377021
                             00002  1127 ENFPIO EQU   X'02'                      PIOTBL                          06384021
                             00001  1128 ENFAPP EQU   X'01'                      RANDOM PROCESSING               06391021
 00000C                             1129 ENFAPT DS    2X                         APPTBL PTR                      06398021
 00000E                             1130 ENFPIT DS    2X                         PIOTBL PTR                      06405021
 000010                             1131 ENFRES DS    1X                         RESERVE NO                      06412021
 000011                             1132 ENFDUM DS    1X                         DUMMY BYTE                      06419021
 000012                             1133 ENFTLM DS    2X                         TRACKLIMIT NUM                  06426021
 000014                             1134 ENFESH DS    2X                         EXT-SEARCH NUM                  06433021
 000016                             1135 ENFCPT DS    2X                         CKPTBL                          06440021
 000018                             1136 ENFSAM DS    1X                         SAM NUM                         06447021
 000019                             1137 ENFFL3 DS    1X                                                         06454021
                             000C0  1138 ENFTKA EQU   X'C0'                      TRK-AREA                        06461021
                                    1139 *                                                                       06468021
1PH1A     IKFCBL10                                                                                              PAGE   25
-  LOC  OBJECT CODE    ADDR1 ADDR2  STMT   SOURCE STATEMENT                                       ASM 0201 11.03 02/14/15
0                            00010  1140 ENFNOM EQU   X'10'                      NOMINAL KEY                     06475021
                             00008  1141 ENFACT EQU   X'08'                      ACTUAL KEY                      06482021
                             00004  1142 ENFREC EQU   X'04'                      RECORD KEY                      06489021
                             00002  1143 ENFWRT EQU   X'02'                      WRITE ONLY                      06496021
                             00001  1144 ENFRPT EQU   X'01'                      RECORD PROTECT                  06503021
 00001A                             1145 ENFFL4 DS    1X                         FLAG 4                          06510021
                             00080  1146 ENFWRV EQU   X'80'                      WRITE VERIFY                    06517021
                             00040  1147 ENFCOS EQU   X'40'                      CYL OVERFLOW                    06524021
                             00030  1148 ENFSRM EQU   X'30'                      TO TEST BOTH SAMES              06531021
                             00008  1149 ENFMFT EQU   X'08'                      MULTIPLE FILE TAPE              06538021
                             00004  1150 ENFMSI EQU   X'04'                      MASTERINDEX                     06545021
                             00002  1151 ENFCYI EQU   X'02'                     CYL-INDEX                        06552021
                             00001  1152 ENFROS EQU   X'01'                      RECORD OVERFLOW                 06559021
 00001B                             1153 ENFFL5 DS    1X                         FLAG5                           06566021
                             000F0  1154 ENFSWU EQU   X'F0'                      NO OF SORT WORK UNITS           06573021
                             00008  1155 ENFICI EQU   X'08'                     CORE-INDEX                       06580021
                             00004  1156 ENFREO EQU   X'04'                     REORG-CRITERIA                   06587021
                                    1157 *                                                                       06594021
 00001C                             1158 ENFSRA DS    1X                         SAME RECORD AREA                06601021
 00001D                             1159 ENFPIN DS    1X                         POSITION INTEGER                06608021
 00001E                             1160 ENFCOT DS    1X                         CYL OVERFLOW TRACKS             06615021
 00001F                             1161 ENFDTC DS    1X                         DEVICE TYPE CODE                06622021
 000020                             1162 ENFDHI DS    1X                         DEVICE OF HIGHEST INDEX         06629021
 000021                             1163 ENFSOT DS    1X                         SAME SORT AREA                  06636021
 000022                             1164 ENFFN  DS    32X                        FILENAME                        06643021
 000042                             1165 ENFTAN DS    4X                         TRACK-AREA SIZE PTR             06650021
 000046                             1166 ENFNMK DS    4X                         NOMKEY SIZE PTR                 06657021
 00004A                             1167 ENFACK DS    4X                         ACKKEY SIZE PTR                 06664021
 00004E                             1168 ENFRCK DS    4X                         RECKEY SIZE PTR                 06671021
 000052                             1169 ENFDCI DS    4X                         DN FROM APP CYL-IND SIZE PT     06678021
                             00052  1170 ENFRED EQU   ENFDCI                    DN FOR APP REORG-CRIT            06685021
1PH1A     IKFCBL10                                                                                              PAGE   26
-  LOC  OBJECT CODE    ADDR1 ADDR2  STMT   SOURCE STATEMENT                                       ASM 0201 11.03 02/14/15
00005DE                             1172 IKF101 CSECT                                                            06699021
                                    1173 **********                                                              06706021
                                    1174 *                                                                       06713021
                                    1175 *=2      INPUT-RECORD WORK AREA FOR LISTING                             06720021
                                    1176 *                                                                       06727021
 0005DE                             1177 COMWK2 DS    CL80                       DOUBLE BUF AREA IN COP REPL     06734021
 00062E 0000001C                    1178 INCRONE  DC    X'0000001C'                                              06741021
 000632 001C                        1179 SVCINC DC    X'001C'                    FOR GCN                         06748021
 000638                             1180        DS    0D                         ALIGN OF SVCPCK FOLLOWING       06755021
 000638 000000000000000C            1181 SVCPCK DC    X'000000000000000C'        DW FOR PACK OF GCN              06762021
 000640 0000000000000000            1182 SVCUPK DC    D'0'                       DW FOR UNPACK OF GCN            06769021
                             00643  1183 SVCGCN EQU   SVCUPK+3                   START OF 5 DIGIT GCN            06776021
 000648 404040                      1184 SVCTYP DC    X'404040'                  3 BLANKS BETWEEN NUMBERS        06783021
 00064B 4040404040404040            1185 SVCCRD DC    5CL16' '                   START OF 80 CHAR RECORD         06790021
                             00649  1186 COMMOV EQU   SVCTYP+1                                                   06797021
                             0064B  1187 COMWRK EQU   SVCTYP+3                                                   06804021
 00069B 5CC5D9D9D6D940D5            1188 SVCERR DC    C'*ERROR NO.'         ERROR MESSAGE NUMBER                 06811021
 0006A5 4040406B4040405C            1189        DC    C'   ,   *'           STATMENT CLAUSE                      06818021
 0006AD 000000000000                1190 SVCSEQ DC    XL6'00'                    SAVED SEQ NUMBER                06825021
 0006B3 4040404040404040            1191 UBLNK  DC    C'                '        16 BLANKS                       06832021
 0006C3 4040                        1192 TWOTRE DC    X'4040'                    SAVE AREA TO RESTORE PRINT      06839021
                                    1193 *                                                                       06846021
                                    1194 *=2      SPECIAL-NAMES TABLE WORK AREA                 ENV              06853021
                                    1195 *                                                                       06860021
 0006C5                             1196 SPNWRK DS    CL34                       WORK AREA FOR                   06867021
                             006C8  1197 SPNNAM EQU   SPNWRK+3                    SPECIAL-NAMES TABLE ENTRY      06874021
                                    1198 *                                                                       06881021
                                    1199 *=2         APPLY TABLE ENTRY WORK AREA                ENV              06888021
                                    1200 *                                                                       06895021
                                    1201 *APWTBL DS   0F                        APPLY WORK AREA                  06902021
                                    1202 *APWRPD DC   H'0'                     RPD NUMBER                        06909021
                                    1203 *APWCYL DC   X'0005'                   CONSTANT OFR 5 CYCLES            06916021
                                    1204 *APWSN  DS   CL31                      SECTION NAME /N/BCD-SN-30BLK     06923021
                                    1205 *APWSAN DS   CL31                      SAVE-AREA NAME /N/BCD-SAN-30     06930021
                                    1206 *                                                                       06937021
                                    1207 *=2         FNTBL WORK AREA                                 DATA        06944021
                                    1208 *                                                                       06951021
 0006E8                             1209        DS    0H                                                         06958021
 0006E8 0000000000000000            1210 FNWA   DC    XL17'0'               00000000000000000 FIELD LENGTH       06965021
 0006F9                             1211 FNWFN  DS    CL32                      N'1' FN '30'                     06972021
                             00000  1212 FNPIOT EQU   0                          PIOTBL PTR                      06979021
                             00002  1213 FNRPDN EQU   2                          RPD NO                          06986021
                             00004  1214 FNAPPT EQU   4                          APPTBL PTR                      06993021
                             00006  1215 FNGNSE EQU   6                          GN FOR STANDARD ERROR           07000021
                             00008  1216 FNGNHL EQU   8                          GN FOR HEADER LABELS            07007021
                             0000A  1217 FNGNTL EQU   10                         GN FOR TRAILER LABELS           07014021
                             0000C  1218 FNGNEV EQU   12                         GN FOR END OF VOLUME LABELS     07021021
                             0000E  1219 FNGNBV EQU   14                         GN FOR BEG.OF VOLUME LABELS     07028021
                             006F8  1220 FNFLG1 EQU   FNWA+16                                                    07035021
                             00010  1221 FNFL1  EQU   16                         FLAG1                           07042021
                             00080  1222 FNACR  EQU   X'80'              1       ACCESS RANDOM                   07049021
                             00040  1223 FNMSF  EQU   X'40'              1       MASS STORAGE FILE               07056021
                             00020  1224 FNLRS  EQU   X'20'              1       LABEL RECORDS STANDARD          07063021
                             00010  1225 FNLRO  EQU   X'10'              1       LABEL RECORDS OMITTED           07070021
                             00008  1226 FNBEF  EQU   X'08'              1      BEFORE IN USE                    07077021
1PH1A     IKFCBL10                                                                                              PAGE   27
-  LOC  OBJECT CODE    ADDR1 ADDR2  STMT   SOURCE STATEMENT                                       ASM 0201 11.03 02/14/15
0                            00004  1227 FNAFT  EQU   X'04'              1      AFTER IN USE                     07084021
                             00002  1228 FNRDP  EQU   X'02'              1       RECORD PROTECT                  07091021
                             00001  1229 FNPMR  EQU   X'01'              1       PROC MODE RANDOM                07098021
                             00011  1230 FNWFND EQU   17                                                         07105021
                             00056  1231 ENVSIZ EQU   86                                                         07112021
                             00030  1232 FNSIZ  EQU   48                         SIZE OF FNTBL                   07119021
                                    1233 *                                                                       07126021
 000719                             1234 LDMUL  DS    CL1                       WORK AREA FOR MULT VALUE LD      07133021
 00071A                             1235 LDMULV DS    CL121                 PRINT AREA                           07140021
                                    1236 ******                                                                  07147021
                                    1237 *********                                                               07154021
                                    1238 *=2         RCDTBL WORK AREA                                DATA        07161021
 000793 00000000                    1239 RNWA   DC    XL4'0'     /FNTBL-PTR-2/N-1/BCD-NAME-31ZEROES/             07168021
 000797                             1240        DS    CL30                  PRINT AREA                           07175021
                                    1241 *=2    TOTTBL WORK AREA                                DATA             07182021
                                    1242 *****                                                                   07189021
 0007B5 00
 0007B6 0002                        1243 TOTCOT DC    H'2'                  POINTER TO TOTAL COUNT               07196021
                             007B7  1244 TOTCT  EQU   TOTCOT+1                                                   07203021
 0007B8                             1245 TOTPTR DS    1H                         PTR TO FNTBL ENTRY              07210021
 0007BA                             1246 TOTDA  DS    31C                        TOTALED DATANAME                07217021
                                    1247 *****    PROCEDURE NAME WORK AREA FOR ENTRY TO'PNTABL OR PNQTBL'  *     07224021
                                    1248 ********** OR QUALIFIED NAME WORK AREA FOR ENTRY TO QLTABL              07231021
 0007D9 000000
 0007DC 00000000                    1249 PNBC   DC    F'0'                  TOTAL COUNT EQUAL TO '0002'          07238021
                             007DF  1250 PNBCT  EQU   PNBC+3                    TOTAL COUNT                      07245021
 0007E0 0000000000000000            1251 PNBCDN DC    8F'0'               * BCD NAME            //N/NAME//       07252021
 000800 0000                        1252 PNCHAR DC    H'0'                * S,T,P,A,G,E,-,- * B,U,X,D,K,L,M,     07259021
                                    1253 *      B-REF*D  U-DEF*D  X-DUMM  D-DECL  K-ERR  L-LAB  M-RAND  N-RE     07266021
 000802 00                          1254 PNOLD  DC    X'00'                      NEW/OLD CODE                    07273021
 000803 22                          1255 PNQLCD DC    X'22'                      QUALIFIER CODE                  07280021
 000804 0000000000000000            1256 PNBCDQ DC    8F'0'                      * BCD NAME QUALIFIER //N/NA     07287021
 000824 0007E0                      1257 PNBCNN DC    AL3(PNBCDN)                ADDR OF PN BCD                  07294021
 000827 000804                      1258 PNBCQN DC    AL3(PNBCDQ)                ADDR OF QUALIFIER BCD           07301021
 00082A 810000                      1259 CRDGCN DC    X'810000'                  GCN TEXT FOR FILE 2             07308021
1PH1A     IKFCBL10                                                                                              PAGE   28
-  LOC  OBJECT CODE    ADDR1 ADDR2  STMT   SOURCE STATEMENT                                       ASM 0201 11.03 02/14/15
0                                   1261 *                                                                       07322021
                                    1262 *=1    COMMON WORK AND SAVE AREAS                 ID   ENV  DATA PR     07329021
                                    1263 *                                                                       07336021
 000830                             1264 SVREG  DS    15F                   LINK REG SAVE                        07343021
 00086C                             1265 SAVREG DS    15F                        ULSCN ROUTINE REG SAVE          07350021
 0008A8                             1266 SV1F01 DS    F                          LINK REG SAVE                   07357021
 0008AC                             1267 SV1F02 DS    F                          LINK REG SAVE                   07364021
 0008B0                             1268 SV1F03 DS    F                          LINK REG SAVE                   07371021
 0008B4                             1269 SV4F04 DS    4F                         LINK REG SAVE                   07378021
 0008C4                             1270 SV1F11 DS    F                          LINK REG SAVE                   07385021
 0008C8                             1271 SV3F12 DS    3F                    LINK REG SAVE                        07392021
 0008D4                             1272 SV1F15 DS    F                     LINK REG SAVE                        07399021
 0008D8                             1273 SV1F16 DS    F                     SAVE JP SAVE AREA                    07406021
 0008DC                             1274 JPSAVE DS    F                          SAVE XR JP FOR ROUTS USED B     07413021
 0008E0                             1275 JPNGPS DS    F                          NX GP ROUT SAVE AREA            07420021
 0008E4                             1276 JPNPTS DS    F                          N. ROUT SAVE JP                 07427021
 0008E8                             1277 JPNOPS DS    F                          SAVE JP NOP ROUT                07434021
 0008EC                             1278 JPCTGS DS    F                          SAVE JP IN GETCTL ROUTINE       07441021
 0008F0                             1279 JPSAV1 DS    F                     SAVE JP SAVE AREA 1                  07448021
 0008F4                             1280 JPSAV2 DS    F                     SAVE JP SAVE AREA 2                  07455021
 0008F8                             1281 JPHDSV DS    F                     SAVE JP HDR ROUTINE                  07462021
 0008FC                             1282 JPLNSV DS    F                          SAVE JP LINE ROUTINE            07469021
 000900                             1283 JDSAV1 DS    F                          SAVE XR4                        07476021
 000904                             1284 JPN02S DS    F                          SAVE JP END OF 02               07483021
 000908                             1285 JPCTSV DS    F                          SAVE JP CTL CLAUSE              07490021
 00090C                             1286 JPIFLC DS    F                     SAVE JP FILE LENGTH CTR              07497021
 000910                             1287 SAVEJQ DS    F                     SAVE JP REG                          07504021
 000914                             1288 JPSPRT DS    F                     SAVE JP SPEC NAMES RTN               07511021
 000918                             1289 JPSUBS DS    F                     SAVE JP SUBROUTINES                  07518021
 00091C                             1290 JPIFNT DS    F                     SAVE JP FILE NAMES                   07525021
 000920                             1291 SV1REG   DS    F                   SAVE AREA FOR 1 REGISTER        9015 07532021
                                    1292 *        COMMON WORK AREAS CON'T                                        07539021
 000924                             1293 JPMUSV DS    F                         SAVE FOR MULT VALUES             07546021
 000928                             1294 PUTNSV DS    F                          RW PUTN JP SAVE AREA            07553021
 00092C                             1295 LASTWD DS    XL68'0'                   SAVE AREA FOR LASTWD ON CARD9610 07560021
 000970                             1296 SVRPRG DS    F                          ADDR OF COPYWD IN BUFFER        07567021
 000974                             1297 CPYSAV DS    8F                         COP RTN SAVE AREA               07574021
                                    1298 *                                                                       07581021
                                    1299 *                                                                       07588021
 000994                             1300 SVREAD DS    F                          LINK REG SAVE FOR (READI)       07595021
                                    1301 *                                                                       07602021
 000998 0000000000000000            1302 VALNLT DC    D'0'                       DOUBLEWORD SAVE FOR VAL NUM     07609021
 0009A0                             1303 GDLWKA DS    D                          DOUBLEWORD WORK AREA GETDLM     07616021
 0009A8 0000000000000000            1304 WORKDA DC    D'0'                       DOUBLEWORD WORK AREA 'A'        07623021
 0009B0 00000000                    1305 REGWOK DC    F'0'                       FULLWORD REGISTER WORK AREA     07630021
 0009B4 00000000                    1306 REGWEK DC    F'0'                       FOR FLT-PT-RTN                  07637021
 0009B8 00000000                    1307 WORKFB DC    F'0'                  WORKFB SAVE AREA                     07644021
 0009BC 0000                        1308 WORKHC DC    H'0'                  WORKHC SAVE AREA                     07651021
 0009BE 0000                        1309 SMPNT  DC    H'0000'                    POINTER TO SAME TBLS            07658021
 0009C0 00                          1310 SMTEMP DC    X'00'                      TEMP AREA                       07665021
 0009C1 00                          1311 SMCT   DC    X'00'                      CT OF FILES IN SAME CLAUSE      07672021
 0009C2 0000                        1312 SMCDNO DC    X'0000'                    CARDNO OF SAME CLAUSE           07679021
 0009C4                             1313 SMTIB  DS    F                     SMTIB  SAVE AREA                     07686021
 0009C8                             1314 SRADIS DS    F                     SRADIS SAVE AREA                     07693021
 0009CC                             1315 SADISP DS    F                     SAVE AREA FOR DISPLAY                07700021
1PH1A     IKFCBL10                                                                                              PAGE   29
-  LOC  OBJECT CODE    ADDR1 ADDR2  STMT   SOURCE STATEMENT                                       ASM 0201 11.03 02/14/15
00009D0 00                          1316 YESNO  DC    X'00'                 SWITCH FOR DATANAME                  07707021
                                    1317 *                                                                       07714021
 0009D1                             1318 ETYPE  DS    CL10                  16--BYTE WORK AREA                   07721021
 0009DB 00                          1319 SMECTR DC    X'00'                      SAME COUNTER                    07728021
 0009DC                             1320 APTRSV DS    F                          APPSCN SAVE SIZE AND ADDRES     07735021
 0009E0 00000000                    1321 RPOSAV DC    F'0'                       POINTER-SIZE OF SAVED RPT-N     07742021
 0009E4 00000000                    1322 SCHPTR DC    F'0'                       SIZE + PTR OF SCHENV 'FIND'     07749021
                                    1323 *    *    *  CONSTANTS    * *    *                                      07756021
 0009E8                             1324 SVCALP DS    F                     SVC WORK AREA                        07763021
 0009EC 00004C38                    1325 ADPROM DC    A(PRONAQ)             PROGRAM ADCON                        07770021
 0009F0 00                          1326 DNSW1  DC    X'00'                 DATANAME SW                          07777021
                             009F0  1327 FSTRC  EQU   DNSW1                      BIT0 IS ON IF RWRTB IS PRM      07784021
                                    1328 *      DNSW1 BIT 6 ON IF NO CONTROLS CLAUSE SPECIFIED                   07791021
                                    1329 *      DNSW1 BIT 7 ON FOR DATANAME IN SUM CLAUSE                        07798021
                             009F0  1330 DNMSW  EQU   DNSW1            BIT 1     40   DATA NAME ON 01 LVL        07805021
 0009F1 00                          1331 EOPPHX DC    X'00'                 END-OF-PAGE SW                       07812021
 0009F2 000000                      1332 TEMPSW DC    3X'00'                TEMP SW                              07819021
 0009F5 C2C1E2C9E240                1333 BASISK DC    CL6'BASIS '           BASIS LIBRARY CALL-NAME        0335  07826021
                             00003  1334 PIOSIZ EQU   3                                                          07833021
 0009FB 00
 0009FC 00000000                    1335 ABSADD DC    F'0'                       TAMER ABSOLUTE ADDRESS SAVE     07840021
 000A00 0000                        1336 SAVSIZ DC    H'0'                       SIZE OF LAST TAMER ENTRY        07847021
 000A02 0000                        1337 PONTER DC    H'0'                       POINTER OF LAST TAMER ENTRY     07854021
 000A04 0000                        1338 SCHSAV DC    H'0'                       SAVE ADJ FACTOR FOR SEARCH      07861021
 000A06                             1339 USEFL1 DS    1X                        USEFLAG                          07868021
 000A07 031C01                      1340 WORKR1 DC    X'031C01'                 01 FOR              1 OF 4       07875021
 000A0A 0000002000000000            1341 WORKR2 DC    X'000000200000000000'       REPORT            2 OF 4       07882021
 000A13 050000000000                1342 WORKR3 DC    X'050000000000'               CLAUSE          3 OF 4       07889021
 000A19 08E74D0000000000            1343 WORKR4 DC    X'08E74D00000000005D000000'     IN FD         4 OF 4       07896021
 000A25 F0F0F1F3F3                  1344 RWK133 DC    X'F0F0F1F3F3'             DEFAULT 01 SIZE FOR REPORT       07903021
 000A2A 0085                        1345 RWB133 DC    X'0085'                   BINARY EQUIVALENT FOR 133        07910021
 000A2C 00000100                    1346 DECSIZ DC    X'00000100'                COMMUNICATION AREA  1           07917021
                             00A2D  1347 TOTSIZ EQU   DECSIZ+1                    FOR FLOATING-      2           07924021
 000A30                             1348 FLPWK  DS    CL22                         POINT ROUTINE     3           07931021
 000A48                             1349 LNKR15 DS    F                          STORE AREA FOR LINK REG15       07938021
                             00001  1350 R1442  EQU   1                                                          07945021
                             00001  1351 PRNT   EQU   1                                                          07952021
                             00003  1352 R2520  EQU   3                                                          07959021
                             00005  1353 R2540  EQU   5                                                          07966021
                             00007  1354 X2501  EQU   7                                                          07973021
                             00008  1355 X1403  EQU   8                                                          07980021
                             00009  1356 X1404  EQU   9                                                          07987021
                             0000A  1357 X1443  EQU   10                                                         07994021
                             0000B  1358 X1445  EQU   11                                                         08001021
                             0000F  1359 X2301  EQU   15                                                         08008021
                             00010  1360 X2302  EQU   16                                                         08015021
                             00011  1361 X2303  EQU   17                                                         08022021
                             00012  1362 X2311  EQU   18                                                         08029021
                             00013  1363 X2311E EQU   19                                                         08036021
                             00014  1364 X2314  EQU   20                                                         08043021
                             00015  1365 X2321  EQU   21                                                         08050021
                             00016  1366 X2400  EQU   22                                                         08057021
1PH1A     IKFCBL10                                                                                              PAGE   30
-  LOC  OBJECT CODE    ADDR1 ADDR2  STMT   SOURCE STATEMENT                                       ASM 0201 11.03 02/14/15
0000A4C                             1368 INTCNT DS    H                     INTERNAL COUNT AREA                  08071021
 000A4E                             1369 DECCNT DS    H                     DECIMAL COUNT AREA                   08078021
 000A50                             1370 UNPWRK DS    CL3                   UNPACK WORK AREA                     08085021
 000A53                             1371 UNPSUB DS    CL15                  UNPACK SUBTRACT AREA                 08092021
 000A62                             1372 UNPEND DS    CL1                   UNPACK END AREA                      08099021
 000A63                             1373 PAKWRK DS    CL2                   UNPACK END AREA                      08106021
 000A65                             1374 PAKSUB DS    CL8                   UNPACK SUBTRACT AREA                 08113021
 000A6D                             1375 PAKEND DS    CL1                   PACK AREA                            08120021
 000A6E                             1376 WRK2   DS    CL2                   2-BYTE WORK AREA                     08127021
 000A70                             1377 WRK3   DS    CL3                   3-BYTE WORK AREA                     08134021
 000A74                             1378 SAVER8 DS    F                     REG-8 SAVE AREA                      08141021
 000A78                             1379 RSAVE2 DS    F                     REG 2 SAVEAREA                 47955 08148021
                                    1380 *                                                                       08155021
 000A7C 3401                        1381 ALREF  DC    X'3401'                   ALPHA LITERAL OF LENGTH OF O     08162021
1PH1A     IKFCBL10                                                                                              PAGE   31
-  LOC  OBJECT CODE    ADDR1 ADDR2  STMT   SOURCE STATEMENT                                       ASM 0201 11.03 02/14/15
0                                   1383 *=1    ERROR MESSAGES                                                   08176021
                                    1384 *                                                                       08183021
                                    1385 *        ERROR MSG NUMBER TABLE                                         08190021
 000A80                             1386        DS    0F                        START MSGS ON FULL WORD          08197021
                                    1387 *                                                                       08204021
                                    1388 *=E       1 NUM-LIT NOT RECOG AS LEV-NUM,BECAUSE '-' ILLEGAL AS USE     08211021
 000A80 45F0 DD64      00D94        1389 MSG1   BAL   JQ,PARMN              WRITE ERR MSG                        08218021
                                    1390 *=E  02  02 '-' SECTION HEADER MISSING. ASSUMED PRESENT.                08225021
 000A84 45F0 DD9E      00DCE        1391 MSG2   BAL   JQ,PARM2              WRITE ERR MSG                        08232021
                                    1392 *=E  03  03 '-' PARAGRAPH NAME MISSING. ASSUMED PRESENT.                08239021
 000A88 45F0 DDA8      00DD8        1393 MSG3   BAL   JQ,PARM3              WRITE ERR MSG                        08246021
                                    1394 *=E      04 INVALID WORD '-'. SKIP TO NEXT LEVEL, SECTION, DIVISION     08253021
 000A8C 45F0 DD48      00D78        1395 MSG4   BAL   JQ,PARMC              WRITE ERR MSG                        08260021
                                    1396 *=E  05  05 INVALID ORDER IN ENVIRONMENT DIV. SKIPPING TO NEXT DIV.     08267021
 000A90 45F0 DECA      00EFA        1397 MSG5   BAL   JQ,WRTMSG             WRITE ERR MSG                        08274021
 000A94                             1398          DS    F                                                  55881 08281021
                                    1399 *=E      7 '--' NOT PRECEDED BY A SPACE.  ASSUME SPACE.                 08288021
 000A98 45F0 DD64      00D94        1400 MSG7   BAL   JQ,PARMN              WRITE ERR MSG                        08295021
                                    1401 *=E      8 RIGHT PAREN SHOULD NOT BE PRECEDED BY A SPACE.               08302021
 000A9C 45F0 DEB6      00EE6        1402 MSG8   BAL   JQ,WRNMSG             WRITE ERR MSG                        08309021
 000AA0 00000000                    1403 FINDSV DC    F'0'                      DELETE CARD POINTER SAVE         08316021
                                    1404 *=E     10 LEFT PAREN SHOULD NOT BE FOLLOWED BY A SPACE.                08323021
 000AA4 45F0 DEB6      00EE6        1405 MSG10  BAL   JQ,WRNMSG             WRITE ERR MSG                        08330021
                                    1406 *=E      11 RECORDING MODE SPECIFICATION IS INVALID. ASSUMED VARIAB     08337021
 000AA8 45F0 DECA      00EFA        1407 MSG11  BAL   JQ,WRTMSG             WRITE ERR MSG                        08344021
                                    1408 *=E  0C  12 FILE-NAME NOT UNIQUE. USING FIRST DEFINITION OF FILE-NA     08351021
 000AAC 45F0 DECA      00EFA        1409 MSG12  BAL   JQ,WRTMSG             WRITE ERR MSG                        08358021
                                    1410 *=E  0D  13 CHARACTER LENGTH IN SPECIAL-NAMES SHOULD ONE.               08365021
 000AB0 45F0 DECA      00EFA        1411 MSG13  BAL   JQ,WRTMSG             WRITE ERR MSG                        08372021
                                    1412 *=E  0E   14 FILE NOT PRESENT IN MULTIPLE FILE CLAUSE.   ASSUMED        08379021
                                    1413 *=E          PRESENT.                                                   08386021
 000AB4 45F0 DECA      00EFA        1414 MSG14  BAL   JQ,WRTMSG             WRITE ERR MSG                        08393021
                                    1415 *=E  0F  15 EXTERNAL NAME '-' IN PROGRAM-ID,LIBRARY REFERENCE           08400021
                                    1416 *=E         OR SYSTEM-NAME INVALID. EXTERNAL NAME IGNORED.              08407021
 000AB8 45F0 DD48      00D78        1417 MSG15  BAL   JQ,PARMC              WRITE ERR MSG                        08414021
                                    1418 *=E  10  16 MORE THAN ONE '-' CLAUSE. SKIPPING TO NEXT CLAUSE.          08421021
 000ABC 45F0 DDB2      00DE2        1419 MSG16  BAL   JQ,PARM4              WRITE ERR MSG                        08428021
                                    1420 *=E  11  17 INVALID WORD IN '-' CLAUSE. SKIPPING TO NEXT CLAUSE.        08435021
 000AC0 45F0 DD94      00DC4        1421 MSG17  BAL   JQ,PARM1C             WRITE ERR MSG                        08442021
                                    1422 *=E  12  18 COPY LIBRARY NOT FOUND/NOLIBR IN EFFECT                     08449021
 000AC4 45F0 DECA      00EFA        1423 MSG18  BAL   JQ,WRTMSG             WRITE ERR MSG                        08456021
                                    1424 *=E  13  19 COPY CLAUSE IGNORED DUE TO NO LIBRARY NAME.                 08463021
 000AC8 45F0 DECA      00EFA        1425 MSG19  BAL   JQ,WRTMSG             WRITE ERR MSG                        08470021
 000ACC                             1426 GDLRSV DS    3F                        GET DELIM 3 REG SAVE AREA        08477021
 000AD8                             1427 QUOTSV DS    2F                        SAVE REGS FOR QUOTE(GETWD)       08484021
                                    1428 *=E  19  25 REDEFINES CLS NOT 1ST CLS FOLLOWING DATA-NM. ASSUMED 1S     08491021
 000AE0 45F0 DECA      00EFA        1429 MSG25  BAL   JQ,WRTMSG             WRITE ERR MSG                        08498021
                                    1430 *=E    26    TOTALED AND TOTALING AREA MUST BOTH BE SPEC'D FOR FILE     08505021
 000AE4 45F0 DECA      00EFA        1431 MSG26  BAL   JQ,WRTMSG             WRITE ERR MSG                        08512021
 000AE8                             1432 GETCSV DS    F                         SAVE LINK REG FOR GETCRD         08519021
                                    1433 *=E  1C  28 '-' SENTENCE IMPROPERLY WRITTEN. SENTENCE IGNORED.          08526021
 000AEC 45F0 DDBC      00DEC        1434 MSG28  BAL   JQ,PARM5              WRITE ERR MSG                        08533021
                                    1435 *=E  1D  29 '-' IN '-' SENTENCE NOT DEFINED AS FILE-NAME. NAME IGNO     08540021
 000AF0 45F0 DDC6      00DF6        1436 MSG29  BAL   JQ,PARM6C             WRITE ERR MSG                        08547021
                                    1437 *=E      30 '-' IN '-' SENTENCE IS INVALID AS USED.SKIP NXT CL SCT      08554021
1PH1A     IKFCBL10                                                                                              PAGE   32
-  LOC  OBJECT CODE    ADDR1 ADDR2  STMT   SOURCE STATEMENT                                       ASM 0201 11.03 02/14/15
0000AF4 45F0 DDC6      00DF6        1438 MSG30  BAL   JQ,PARM6C             WRITE ERR MSG                        08561021
 000AF8                             1439 NBLPTR DS    F                         ADDR OF GETWD WORD IN BUFFER     08568021
 000AFC                             1440 SKCTAD DS    F                         ADDR PAST CONTINUATION           08575021
                                    1441 *=E    33    FILENAME ALREADY ASSIGNED THIS SAME CLAUSE OPTION  USE     08582021
 000B00 45F0 DD48      00D78        1442 MSG33  BAL   JQ,PARMC              WRITE ERR MSG                        08589021
                                    1443 *=E  22  34 '-' CLAUSE IN '-' LEVEL IS TREATED AS COMMENTS IN OS.       08596021
                                    1444 *=E         NEXT CLAUSE.                                                08603021
 000B04 45F0 DDC6      00DF6        1445 MSG34  BAL   JQ,PARM6C             WRITE ERR MSG                        08610021
                                    1446 *=E  23   35 INTEGER NOT FOUND FOLLOWING POSITION IN MULTIPLE FILE      08617021
                                    1447 *=E          CLAUSE. POSITION OF FILE NAME IN CLAUSE ASSUMED.           08624021
 000B08 45E0 DECA      00EFA        1448 MSG35  BAL   JP,WRTMSG             WRITE ERR MSG                        08631021
                                    1449 *=E  24  36 QUALIFIED NAME FOLLOWING LEVEL NO. INVALID.USING LOW NA     08638021
 000B0C 45F0 DECA      00EFA        1450 MSG36  BAL   JQ,WRTMSG             WRITE ERR MSG                        08645021
                                    1451 *=E  25  37 '-' INVALID IN DATA DESCRIPTION. NEXT CLAUSE.               08652021
 000B10 45F0 DD48      00D78        1452 MSG37  BAL   JQ,PARMC              WRITE ERR MSG                        08659021
                                    1453 *=E  26  38 '-' INVALID FOLLOWING LEVEL NO. NEXT LEVEL.                 08666021
 000B14 45F0 DD48      00D78        1454 MSG38  BAL   JQ,PARMC              WRITE ERR MSG                        08673021
                                    1455 *=E  27  39 DATA-NAME IN '-' CLAUSE SHOULD BE UNQUAL. USING LOW NAM     08680021
 000B18 45F0 DDB2      00DE2        1456 MSG39  BAL   JQ,PARM4              WRITE ERR MSG                        08687021
                                    1457 *=E  28  40 IMPROPER LEVEL NO. FOR FILE-SECTION.                        08694021
 000B1C 45F0 DECA      00EFA        1458 MSG40  BAL   JQ,WRTMSG             WRITE ERR MSG                        08701021
                                    1459 *=E  29  41 '-' INVALID IN '-' SECTION. NEXT LEVEL, SECTION, DIVISI     08708021
 000B20 45F0 DDD0      00E00        1460 MSG41  BAL   JQ,PARM7C             WRITE ERR MSG                        08715021
                                    1461 *=E      42 ASSIGN CLAUSE MISSING IN SELECT. CONTINUE                   08722021
 000B24 45F0 DECA      00EFA        1462 MSG42  BAL   JQ,WRTMSG             WRITE ERR MSG                        08729021
                                    1463 *=E  2B  43 END OF SENTENCE SHOULD PRECEDE '-'. ASSUMED PRESENT.        08736021
 000B28 45F0 DD48      00D78        1464 MSG43  BAL   JQ,PARMC              WRITE ERR MSG                        08743021
                                    1465 *=E      44  INVALID WORD. SKIP TO NEXT LEVEL SECTION OR DIVISION       08750021
 000B2C 45F0 DD48      00D78        1466 MSG44    BAL   JQ,PARMC            BR, TO MSG SET-UP ROUTINE            08757021
                                    1467 *=E      45 INVALID ORDER IN '-' SECTION.                               08764021
 000B30 45F0 DD9E      00DCE        1468 MSG45  BAL   JQ,PARM2              WRITE ERR MSG                        08771021
                                    1469 *=E      46 MEMBER NOT FOUND IN LIBRARY. IGNORING COPY.                 08778021
 000B34 45F0 DECA      00EFA        1470 MSG46  BAL   JQ,WRTMSG             WRITE ERR MSG                        08785021
                                    1471 *=E      47 LIBRARY NOT FOUND ON SYSTEM. IGNORING COPY.                 08792021
 000B38 45F0 DECA      00EFA        1472 MSG47  BAL   JQ,WRTMSG             WRITE ERR MSG                        08799021
                                    1473 *=E      48 LIBRARY MEMBER HAS BAD TRACK. IGNORING REST OF COPY.        08806021
 000B3C 45F0 DECA      00EFA        1474 MSG48  BAL   JQ,WRTMSG             WRITE ERR MSG                        08813021
                                    1475 *=E  31   49 ****  FILE-NAME ALREADY ASSIGNED THIS MULTIPLE FILE        08820021
                                    1476 *=E          CLAUSE OPTION. USING FIRST ONE.                            08827021
 000B40 45E0 DD48      00D78        1477 MSG49  BAL   JP,PARMC              WRITE ERR MSG                        08834021
                                    1478 *=E         '-' FILE ALREADY ASSIGNED THIS APPLY OPTION.FILE-NAME I     08841021
 000B44 45F0 DD48      00D78        1479 MSG50  BAL   JQ,PARMC              WRITE ERR MSG                        08848021
 000B48                             1480        DS    2F                    PARAMETER AREA                       08855021
                                    1481 *=E  35  53  '-' CLAUSE INVALID. CLAUSE IGNORED                         08862021
 000B50 45F0 DDB2      00DE2        1482 MSG53  BAL   JQ,PARM4              WRITE ERR MSG                        08869021
                                    1483 *=E      54 SELECT SENTENCE FOR '-' IGNORED, NOT LEGAL FOR SD OR SA     08876021
 000B54 45F0 DD48      00D78        1484 MSG54  BAL   JQ,PARMC              WRITE ERR MSG                        08883021
                                    1485 *=E  37  55 FILE-NAME NOT PRESENT. DESCRIPTION IGNORED.                 08890021
 000B58 45F0 DECA      00EFA        1486 MSG55  BAL   JQ,WRTMSG             WRITE ERR MSG                        08897021
                                    1487 *=E  38  56 FILE-NAME NOT DEFINED IN A SELECT. DESCRIP IGNORED.         08904021
 000B5C 45F0 DECA      00EFA        1488 MSG56  BAL   JQ,WRTMSG             WRITE ERR MSG                        08911021
                                    1489 *=E      57  FIRST WORD IN REPORT SECTION NOT 'RD'. IGNORED.            08918021
 000B60 45F0 DECA      00EFA        1490 MSG57  BAL   JQ,WRTMSG             WRITE ERR MSG                        08925021
                                    1491 *=E      58  NO REPORTS CLAUSE IN FILE SECTION. REPORT SECTION IGNO     08932021
 000B64 45F0 DECA      00EFA        1492 MSG58  BAL   JQ,WRTMSG             WRITE ERR MSG                        08939021
1PH1A     IKFCBL10                                                                                              PAGE   33
-  LOC  OBJECT CODE    ADDR1 ADDR2  STMT   SOURCE STATEMENT                                       ASM 0201 11.03 02/14/15
0                                   1493 *=E      59  NO REPORT CLAUSE FOR RD. RD IGNORED.                       08946021
 000B68 45F0 DECA      00EFA        1494 MSG59  BAL   JQ,WRTMSG             WRITE ERR MSG                        08953021
 000B6C                             1495        DS    F                     WRTMSG-F                             08960021
                                    1496 *=E      61  DUPLICATE CLAUSE. DROPPED.                                 08967021
 000B70 45F0 DECA      00EFA        1497 MSG61  BAL   JQ,WRTMSG             WRITE ERR MSG                        08974021
                                    1498 *=E      62    '-' IN COPY REPLACING STMT INVALID AS BCD NAME.          08981021
 000B74 45F0 DD48      00D78        1499 MSG62    BAL   JQ,PARMC            BR, TO MSG SET-UP ROUTINE            08988021
                                    1500 *=E      63  DUPLICATE ENTRY IN PAGE CLAUSE. DROPPED                    08995021
 000B78 45F0 DECA      00EFA        1501 MSG63  BAL   JQ,WRTMSG             WRITE ERR MSG                        09002021
                                    1502 *=E      64  NO TYPE CLAUSE SPECIFIED.                                  09009021
 000B7C 45F0 DECA      00EFA        1503 MSG64  BAL   JQ,WRTMSG             WRITE ERR MSG                        09016021
                                    1504 *=E      65  INTEGER MISSING IN PAGE CLAUSE. ENTRY IGNORED.             09023021
 000B80 45F0 DECA      00EFA        1505 MSG65  BAL   JQ,WRTMSG             WRITE ERR MSG                        09030021
                                    1506 *=E      66   INVALID WORD IN PGE CL-SKIP TO NXT RECOGNIZABLE WD        09037021
 000B84 45F0 DECA      00EFA        1507 MSG66  BAL   JQ,WRTMSG             WRITE ERR MSG                        09044021
                                    1508 *=E      67   INVALID HEADER-SKIPPING TO NXT RECOGNIZABLE WORD          09051021
 000B88 45F0 DECA      00EFA        1509 MSG67  BAL   JQ,WRTMSG             WRITE ERR MSG                        09058021
 000B8C                             1510        DS    F                     WRTMSG-F                             09065021
                                    1511 *=E      69  INVALID TYPE CLAUSE. DROPPED.                              09072021
 000B90 45F0 DECA      00EFA        1512 MSG69  BAL   JQ,WRTMSG             WRITE ERR MSG                        09079021
                                    1513 *=E  46  70 FLOAT-POINT LIT MANTISSA EXC 16 DIG. TRUNC TO 16.           09086021
 000B94 45F0 DEB6      00EE6        1514 MSG70  BAL   JQ,WRNMSG             WRITE ERR MSG                        09093021
                                    1515 *=E  47  71 FLOAT-POINT LIT EXPONT EXC 2 DIG. TRUNC TO 2. RESCAN AT     09100021
 000B98 45F0 DEB6      00EE6        1516 MSG71  BAL   JQ,WRNMSG             WRITE ERR MSG                        09107021
                                    1517 *=E  48  72 FLOAT-POINT LIT EXPONT FOLL BY NONBLANK. RESCAN AT NONB     09114021
 000B9C 45F0 DEB6      00EE6        1518 MSG72  BAL   JQ,WRNMSG             WRITE ERR MSG                        09121021
                                    1519 *=E  49  73 FLT PNT LIT'E'FOLLOWED BY INVALID,CALC LIT,RESCAN AT 'E     09128021
 000BA0 45F0 DEB6      00EE6        1520 MSG73  BAL   JQ,WRNMSG             WRITE ERR MSG                        09135021
                                    1521 *=E  4A  74 FLT PNT LIT SIGN FOLLOWED BY INVALID,CALC LIT,RESCAN AT     09142021
 000BA4 45F0 DEB6      00EE6        1522 MSG74  BAL   JQ,WRNMSG             WRITE ERR MSG                        09149021
                                    1523 *=E  4B  75 FLT PNT LIT EXCEEDS LIM,ASSUME MAX OR MIN ON 'E' SIGN.      09156021
 000BA8 45F0 DEB6      00EE6        1524 MSG75  BAL   JQ,WRNMSG             WRITE ERR MSG                        09163021
                                    1525 *=E  4C  76 ALPHAMERIC-LIT EXCEEDS 120 CHAR. TRUNCATED TO 120.          09170021
 000BAC 45F0 DEB6      00EE6        1526 MSG76  BAL   JQ,WRNMSG             WRITE ERR MSG                        09177021
                                    1527 *=E  4D  77 ALPHAMERIC-LIT CONTINUED IN A-MARGIN. ASSUMMED B-MARGIN     09184021
 000BB0 45F0 DEB6      00EE6        1528 MSG77  BAL   JQ,WRNMSG             WRITE ERR MSG                        09191021
                                    1529 *=E  4E  78 ALPHA-LIT CONTINUED WITH MISSING HYPHEN OR QUOTE. ASSUM     09198021
 000BB4 45F0 DEB6      00EE6        1530 MSG78  BAL   JQ,WRNMSG             WRITE ERR MSG                        09205021
                                    1531 *=E  4F  79 ALPHAMERIC-LIT HAS ZERO LENGTH. ASSUME 1 BLANK CHAR.        09212021
 000BB8 45F0 DEB6      00EE6        1532 MSG79  BAL   JQ,WRNMSG             WRITE ERR MSG                        09219021
                                    1533 *=E  50  80 PERIOD PRECEEDED BY BLANK. ASSUMED EOS.                     09226021
 000BBC 45F0 DEB6      00EE6        1534 MSG80  BAL   JQ,WRNMSG             WRITE ERR MSG                        09233021
                                    1535 *=E  51  81 PERIOD NOT FOLLOWED BY BLANK. ASSUMED EOS.                  09240021
 000BC0 45F0 DEB6      00EE6        1536 MSG81  BAL   JQ,WRNMSG             WRITE ERR MSG                        09247021
                                    1537 *=E  52  82 NUM-LIT EXCEEDS 18 DIGITS. TRUNCATED TO 18 DIGITS.          09254021
 000BC4 45F0 DEB6      00EE6        1538 MSG82  BAL   JQ,WRNMSG             WRITE ERR MSG                        09261021
                                    1539 *=E  53  83 ILLEGAL CHARACTER, SCAN RESUMED AT NEXT VALID CHARACTER     09268021
 000BC8 45F0 DEB6      00EE6        1540 MSG83  BAL   JQ,WRNMSG             WRITE ERR MSG                        09275021
                                    1541 *=E  54  84 COMMA SHOULD NOT BE PRECEEDED BY BLANK. ASSUMED OK.         09282021
 000BCC 45F0 DEB6      00EE6        1542 MSG84  BAL   JQ,WRNMSG             WRITE ERR MSG                        09289021
                                    1543 *=E      85 WORD OR PICTURE EXCEEDS 30 CHAR. TRUNCATED TO 30 CHAR.      09296021
 000BD0 45F0 DEB6      00EE6        1544 MSG85  BAL   JQ,WRNMSG             WRITE ERR MSG                        09303021
                                    1545 *=E  56  86 '-' SHOULD BE IN A-MARGIN.                                  09310021
 000BD4 45F0 DD64      00D94        1546 MSG86  BAL   JQ,PARMN              WRITE ERR MSG                        09317021
                                    1547 *=E  57  87 '-' SHOULD NOT BE IN A-MARGIN.                              09324021
1PH1A     IKFCBL10                                                                                              PAGE   34
-  LOC  OBJECT CODE    ADDR1 ADDR2  STMT   SOURCE STATEMENT                                       ASM 0201 11.03 02/14/15
0000BD8 45F0 DD64      00D94        1548 MSG87  BAL   JQ,PARMN              WRITE ERR MSG                        09331021
                                    1549 *=E      88 NO INS/DEL NUMBER. PASSING CARDS TO BE INSERTED.            09338021
 000BDC 45F0 DDE4      00E14        1550 MSG88  BAL   JQ,PARMID             WRITE ERR MSG                        09345021
                                    1551 *=E      89 INSERT DEL NUMBER OUT OF SEQ. NEXT INS/DEL NUMBER.          09352021
 000BE0 45F0 DDE4      00E14        1552 MSG89  BAL   JQ,PARMID             WRITE ERR MSG                        09359021
                                    1553 *=E      90 DELETE THRU NUMBER OUT OF SEQ. NEXT INS/DEL NUMBER.         09366021
 000BE4 45F0 DDE4      00E14        1554 MSG90  BAL   JQ,PARMID             WRITE ERR MSG                        09373021
 000BE8                             1555 JPGNSP DS    F                         SAVE JP-SPECIAL ROUTINES   7641  09380021
 000BEC                             1556 JPINSV DS    F                         SAVE JP-INSERT ROUT TBL    7641  09387021
 000BF0                             1557        DS    F                     PARM-ID FULLWORD                     09394021
                                    1558 *=E      94  NEXT GROUP INT DOES NOT CONFORM TO PAGE CLAUSE SPECS       09401021
 000BF4 45F0 DECA      00EFA        1559 MSG94  BAL   JQ,WRTMSG             WRITE ERR MSG                        09408021
                                    1560 *=E  5F  95 WORD SECTION OR DIVISION MISSING. ASSUMED PRESENT.          09415021
 000BF8 45F0 DEB6      00EE6        1561 MSG95  BAL   JQ,WRNMSG             WRITE ERR MSG                        09422021
                                    1562 *=E      96 NOT DNM FOR DE. UPON IGNORED FOR THIS SUM CLAUSE            09429021
 000BFC 45F0 DED0      00F00        1563 MSG96  BAL   JQ,WRTRSV             WRITE ERR MSG                        09436021
                                    1564 *=E  61  97  PROGRAM-ID MISSING OR MISPLACED. IF PROGRAM-ID DOES NO     09443021
                                    1565 *=E          IMMEDIATELY FOLLOW IDENTIFICATION DIVISION, IT WILL BE     09450021
                                    1566 *=E          IGNORED.                                                   09457021
 000C00 45F0 DECA      00EFA        1567 MSG97  BAL   JQ,WRTMSG             WRITE ERR MSG                        09464021
                                    1568 *=E  4E  98 ALPHM-LIT NOT CONT WITH HYPHEN + QUOTE.END LIT ON LAST      09471021
 000C04 45F0 DECA      00EFA        1569 MSG98  BAL   JQ,WRTMSG             WRITE ERR MSG                        09478021
                                    1570 *=E  63  99 '-' IS INVALID AS USED.                                     09485021
 000C08 45F0 DD64      00D94        1571 MSG99  BAL   JQ,PARMN              WRITE ERR MSG                        09492021
                                    1572 *=E     100 '-' IS NOT A POSITIVE INTEGRAL NUMBER. ASSUMING A ONE I     09499021
 000C0C 45F0 DD64      00D94        1573 MSG100 BAL   JQ,PARMN              WRITE ERR MSG                        09506021
                                    1574 *=E     101   NEXT PAGE NOT I  1ST LINE CLAUSE-IGNORED                  09513021
 000C10 45F0 DECA      00EFA        1575 MSG101 BAL   JQ,WRTMSG             WRITE ERR MSG                        09520021
                                    1576 *=E     102   INCOMPLETE 02 LEVEL-ASSUME VALUE SPACES                   09527021
 000C14 45F0 DECA      00EFA        1577 MSG102 BAL   JQ,WRTMSG             WRITE ERR MSG                        09534021
                                    1578 *=E     103   GROUP TYPE ALLOWED ONCE FOR RD-IGNORED                    09541021
 000C18 45F0 DECA      00EFA        1579 MSG103 BAL   JQ,WRTMSG             WRITE ERR MSG                        09548021
                                    1580 *=E     104   CONTROL NAME NOT SPECIFIED IN RD-SKIPPING TO NEXT 01.     09555021
 000C1C 45F0 DECA      00EFA        1581 MSG104 BAL   JQ,WRTMSG             WRITE ERR MSG                        09562021
                                    1582 *=E     105   LEVEL 02 EXPECTED-ASSUMED                                 09569021
 000C20 45F0 DECA      00EFA        1583 MSG105 BAL   JQ,WRTMSG             WRITE ERR MSG                        09576021
 000C24                             1584        DS    F                                                          09583021
                                    1585 *=E     107 'NXT GRP'CLS ILLEGAL FOR THIS RPT-GRP.  IGNORED             09590021
 000C28 45F0 DECA      00EFA        1586 MSG107 BAL   JQ,WRTMSG             WRITE ERR MSG                        09597021
                                    1587 *=E     108  '-' IS NOT A POSITIVE INTEGRAL NUMBER. ASSUMING 1.         09604021
 000C2C 45F0 DD64      00D94        1588 MSG108 BAL   JQ,PARMN              WRITE ERR MSG                        09611021
                                    1589 *=E     109   DUPLICATE USE OF CONTROL NAME-SKIPPING TO NEXT 01.        09618021
 000C30 45F0 DECA      00EFA        1590 MSG109 BAL   JQ,WRTMSG             WRITE ERR MSG                        09625021
                                    1591 *=E     110   INVALID USE OF SUM CLAUSE. CONTINUE.                      09632021
 000C34 45F0 DECA      00EFA        1592 MSG110 BAL   JQ,WRTMSG             WRITE ERR MSG                        09639021
                                    1593 *=E     111   ELEMENTARY LEVEL WITHOUT COLUMN OR SUM CLAUSE-DROPPED     09646021
 000C38 45F0 DECA      00EFA        1594 MSG111 BAL   JQ,WRTMSG             WRITE ERR MSG                        09653021
                                    1595 *=E 112 RPT-NAME ALREADY SPECIFIED IN TWO FILE DESCRIPTION ENTRIES      09660021
 000C3C 45F0 DD80      00DB0        1596 MSG112 BAL   JQ,PARMRW                 RPT-NAME IN MORE THAN 2 FD'S     09667021
                                    1597 *=E     113 EXPECT 6 DIG-SEQ-NUM.SKIP TO NEXT INS/DEL NUMBER.           09674021
 000C40 45F0 DDE4      00E14        1598 MSG113 BAL   JQ,PARMID             WRITE ERR MSG                        09681021
                                    1599 *=E     114 EXTRANEOUS COMMA / HYPHEN ON DEL CD. IGNOREING IT.          09688021
 000C44 45F0 DDE4      00E14        1600 MSG114 BAL   JQ,PARMID             WRITE ERR MSG                        09695021
                                    1601 *=E     115 NO BLANK COMMA OR HYPHEN FOLLOW SEQ-NUM. ASSUME BLANK       09702021
 000C48 45F0 DDE4      00E14        1602 MSG115 BAL   JQ,PARMID             WRITE ERR MSG                        09709021
1PH1A     IKFCBL10                                                                                              PAGE   35
-  LOC  OBJECT CODE    ADDR1 ADDR2  STMT   SOURCE STATEMENT                                       ASM 0201 11.03 02/14/15
0                                   1603 *=E     116 EXPECT 6 DIG-SEQ-NUM AFTER HYPHEN.IGNORE DEL FROM THRU      09716021
 000C4C 45F0 DDE4      00E14        1604 MSG116 BAL   JQ,PARMID             WRITE ERR MSG                        09723021
                                    1605 *=E     117 DELETE NUM GREATER THAN LAST SEQ-NUM.STOP INS/DEL.          09730021
 000C50 45F0 DDE4      00E14        1606 MSG117 BAL   JQ,PARMID             WRITE ERR MSG                        09737021
                                    1607 *=E     118 INSERT NUM GREATER THAN THAN LAST SEQ-NUM.STOP INS/DEL      09744021
 000C54 45F0 DDE4      00E14        1608 MSG118 BAL   JQ,PARMID             WRITE ERR MSG                        09751021
                                    1609 *=E     119  INTEGER IN LINE-CLS DOES NOT CONFORM TO PG-CLS SPECS       09758021
 000C58 45F0 DECA      00EFA        1610 MSG119 BAL   JQ,WRTMSG             WRITE ERR MSG                        09765021
                                    1611 *=E     120 COMMA NOT FOLLOWED BY BLANK. ASSUME SPACE.                  09772021
 000C5C 45F0 DEB6      00EE6        1612 MSG120 BAL   JQ,WRNMSG             WRITE ERR MSG                        09779021
                                    1613 *=E      121  PERIOD OR COMMA INVALID AS USED IN PICTURE CLAUSE.        09786021
 000C60 45F0 DEB6      00EE6        1614 MSG121 BAL   JQ,WRNMSG             WRITE ERR MSG                        09793021
                                    1615 *=E    122 EXTERNAL-NAME USED OUTSIDE OF RERUN CLAUSE. SENTENCE         09800021
                                    1616 *=E         IGNORED.                                                    09807021
 000C64 45F0 DECA      00EFA        1617 MSG122 BAL   JQ,WRTMSG             WRITE ERR MSG                        09814021
                                    1618 *=E    123 NUMBER IS ZERO OR NEGATIVE. SENTENCE IGNORED.                09821021
 000C68 45F0 DECA      00EFA        1619 MSG123 BAL   JQ,WRTMSG             WRITE ERR MSG                        09828021
                                    1620 *=E    124 NUMBER TOO LARGE FOR RERUN. SENTENCE IGNORED.                09835021
 000C6C 45F0 DECA      00EFA        1621 MSG124 BAL   JQ,WRTMSG             WRITE ERR MSG                        09842021
                                    1622 *=E     125 '-' FILE-NAME USED IN PREVIOUS RERUN. USING FIRST ONE.      09849021
 000C70 45F0 DD48      00D78        1623 MSG125 BAL   JQ,PARMC              WRITE ERR MSG                        09856021
                                    1624 *=E     126 '-' FILE-NAME SPECIFIED IN BOTH RERUN AND USING OR GIVING   09863021
                                    1625 *=E         OPTION .  RERUN IGNORED.                                    09870021
 000C74 45F0 DD48      00D78        1626 MSG126 BAL   JQ,PARMC              WRITE ERR MSG                        09877021
                                    1627 *=E      127   '-' INVALID IN '-' SENTENCE. REST OF SENTENCE            09884021
                                    1628 *=E            IGNORED.                                                 09891021
 000C78 45F0 DDDA      00E0A        1629 MSG127   BAL   JQ,PARM8C           WRITE ERR MSG                        09898021
                                    1630 *=E 128 FOUND **.  EXPECTING ENVIRONMENT.  ALL ENV. DIV. STATEMENTS     09905021
                                    1631 *=E         IGNORED.                                                    09912021
 000C7C 45F0 DD48      00D78        1632 MSG128 BAL   JQ,PARMC                  MSG128                           09919021
                                    1633 *=E 129 ID DIV HEADER EXTRANEOUS,MISSING OR MISPLACED.ONE ASSUMED 8930  09926021
 000C80 45F0 DECA      00EFA        1634 MSG129 BAL   JQ,WRTMSG                 MSG129                           09933021
                                    1635 *=E 130 ** DIV. HEADER MISSING.  WORDS IN ** STATEMENTS ARE INVALID.    09940021
 000C84 45F0 DECA      00EFA        1636 MSG130 BAL   JQ,WRTMSG                 MSG130                           09947021
 000C88                             1637        DS    F                                                          09954021
                                    1638 *=E      132  INVALID IMPLEMENTOR NAME. SKIPPING TO NEXT CLAUSE.        09961021
 000C8C 45F0 DECA      00EFA        1639 MSG132 BAL   JQ,WRTMSG             WRITE ERR MSG                        09968021
 000C90                             1640        DS    2F                    WRTMSG-2F                            09975021
                                    1641 *=E      135   INTEGER-1 OUTSIDE OF ALLOWABLE LIMITS. DEFAULT TAKEN     09982021
 000C98 45F0 DECA      00EFA        1642 MSG135 BAL   JQ,WRTMSG             WRITE ERR MSG                        09989021
                                    1643 *=E     136 DNM ALREADY SPECIFIED FOR A TYPE DE RPT-GRP.                09996021
                                    1644 *=E         SKIPPING TO NEW 01, RD, SECTION                             10003021
 000C9C 45F0 DECA      00EFA        1645 MSG136 BAL   JQ,WRTMSG             WRITE ERR MSG                        10010021
                                    1646 *=E    137   MINIMUM NUMBER OF OCCURRENCES IN OCCURS CLAUSE NOT LESS    10017021
                                    1647 *=E          THAN MAXIMUM NUMBER,  CONTINUING.                          10024021
 000CA0 45F0 DECA      00EFA        1648 MSG137 BAL   JQ,WRTMSG             WRITE ERR MSG                        10031021
                                    1649 *=E 138 APPLY ** FEATURE IS A FUNCTION OF JCL IN OS.                    10038021
 000CA4 45F0 DECA      00EFA        1650 MSG138 BAL   JQ,WRTMSG                 MSG 138                          10045021
 000CA8                             1651        DS    F                     WRTMSG-F                             10052021
                                    1652 *=E        NUMERIC LITERAL EXCEEDS 32K                                  10059021
 000CAC 45F0 DD48      00D78        1653 MSG140 BAL   JQ,PARMC                                                   10066021
                                    1654 *=E     141  FILE ORGANIZATION FIELD INVALID IN IMPLEMENTOR NAME.       10073021
                                    1655 *=E         SEQUENTIAL ASSUMED.                                         10080021
 000CB0 45F0 DECA      00EFA        1656 MSG141 BAL   JQ,WRTMSG             WRITE ERR MSG                        10087021
 000CB4                             1657        DS    3F                    WRTMSG-3F                            10094021
1PH1A     IKFCBL10                                                                                              PAGE   36
-  LOC  OBJECT CODE    ADDR1 ADDR2  STMT   SOURCE STATEMENT                                       ASM 0201 11.03 02/14/15
0                                   1658 *=E    145   '-' DUPLICATELY DEFINED IN SPEC-NMS PARA. SENT IGNORED     10101021
 000CC0 45F0 DD48      00D78        1659 MSG145 BAL   JQ,PARMC              WRITE ERR MSG                        10108021
 000CC4                             1660        DS    F                                                          10115021
                                    1661 *=E    147   SD ILLEGALLY SPECD IN SAME AREA. CLAUSE FOR SD IGNORED     10122021
 000CC8 45F0 DD48      00D78        1662 MSG147 BAL   JQ,PARMC              WRITE ERR MSG                        10129021
                                    1663 *=E    148   INVALID SEGMENT LIMIT.  50 ASSUMED.                        10136021
 000CCC 45F0 DECA      00EFA        1664 MSG148 BAL   JQ,WRTMSG             WRITE ERR MSG                        10143021
                                    1665 *=E    149   ILLEGAL COMBINATION OF SAME AREA AND SAME RECORD/SAME      10150021
                                    1666 *=E          SORT AREA CLAUSES. SAME REC-SAME SORT CLAUSE IGNORED       10157021
 000CD0 45F0 DED0      00F00        1667 MSG149 BAL   JQ,WRTRSV             WRITE ERR MSG                        10164021
 000CD4                             1668        DS    F                     RSVMSG-F                             10171021
                                    1669 *=E    151   ILLEGAL CHAR IN CURRENCY SIGN CLAUSE  CLAUSE IGNORED       10178021
 000CD8 45F0 DECA      00EFA        1670 MSG151 BAL   JQ,WRTMSG             WRITE ERR MSG                        10185021
                                    1671 *=E    152   ON AND/OR OFF STATUS CLAUSE MUST BE SPECIFIED.             10192021
                                    1672 *=E          SPECIAL NAME IGNORED                                       10199021
 000CDC 45F0 DECA      00EFA        1673 MSG152 BAL   JQ,WRTMSG             WRITE ERR MSG                        10206021
 000CE0                             1674        DS    2F                    WRTMSG-F                             10213021
                                    1675 *=E     155 DEVICE CLASS INVALID IN IMPLEMENTOR NAME.  SKIPPING         10220021
                                    1676 *=E         TO NEXT FIELD.                                              10227021
 000CE8 45F0 DECA      00EFA        1677 MSG155 BAL   JQ,WRTMSG             WRITE ERR MSG                        10234021
                                    1678 *=E     156 DEVICE NUMBER INVALID IN IMPLEMENTOR NAME. '-' ASSUMED.     10241021
 000CEC 45F0 DD56      00D86        1679 MSG156 BAL   JQ,PARMC2             WRITE ERR MSG                        10248021
                                    1680 *=E     157  EXTERNAL FILE NAME NOT PRESENT IN IMPLEMENTOR NAME.        10255021
                                    1681 *=E          CONTINUING.                                                10262021
 000CF0 45F0 DECA      00EFA        1682 MSG157 BAL   JQ,WRTMSG             WRITE ERR MSG                        10269021
 000CF4                             1683        DS    F                                                          10276021
                                    1684 *=E    159   PAGE LIMIT INTEGER-1 NOT SPECIFIED. ASSUME HIGH VALUE      10283021
 000CF8 45F0 DECA      00EFA        1685 MSG159 BAL   JQ,WRTMSG             WRITE ERR MSG                        10290021
                                    1686 *=E     160  CONTINUATION OF WORD FOUND IN A MARGIN.                    10297021
 000CFC 45F0 DECA      00EFA        1687 MSG160 BAL   JQ,WRTMSG             WRITE ERR MSG                        10304021
 000D00                             1688        DS    F                                                          10311021
                                    1689 *=E     162 *INTEGER IN LINE CLAUSE LESS THAN PREVIOUS VALUE IGNORE     10318021
 000D04 45F0 DECA      00EFA        1690 MSG162 BAL   JQ,WRTMSG             WRITE ERR MSG                        10325021
                                    1691 *=E     163 ABS LINE PRECEEDED BY REL LINE. ASSUME LINE PLUS 1          10332021
 000D08 45F0 DECA      00EFA        1692 MSG163 BAL   JQ,WRTMSG             WRITE ERR MSG                        10339021
                                    1693 *=E     164 NO PG-CLS. ALL LINES MUST BE LINE PLUS INT. IGNORED         10346021
 000D0C 45F0 DECA      00EFA        1694 MSG164 BAL   JQ,WRTMSG             WRITE ERR MSG                        10353021
                                    1695 *=E     165 1ST-DE NOT SPEC IN PG-CLS. PH ILLEGAL. CONTINUING           10360021
 000D10 45F0 DECA      00EFA        1696 MSG165 BAL   JQ,WRTMSG             WRITE ERR MSG                        10367021
                                    1697 *=E     166 LST-DE AND FTNG NOT SPEC. PF ILLEGAL. CONTINUING            10374021
 000D14 45F0 DECA      00EFA        1698 MSG166 BAL   JQ,WRTMSG             WRITE ERR MSG                        10381021
                                    1699 *=E     167 'LINE NXT PG' CLS ILLEGAL FOR THIS RPT-GRP.  IGNORED        10388021
 000D18 45F0 DECA      00EFA        1700 MSG167 BAL   JQ,WRTMSG             WRITE ERR MSG                        10395021
                                    1701 *=E     168 RD ALREADY SPECIFIED IN RPT-SECTION. SKIP TO NEW RD         10402021
 000D1C 45F0 DECA      00EFA        1702 MSG168 BAL   JQ,WRTMSG             WRITE ERR MSG                        10409021
                                    1703 *                                                                       10416021
 000D20                             1704        DS    F                                                          10423021
                                    1705 *=E      170 DE GRP SPECIFIED WITH NO DNM. CONTINUING                   10430021
 000D24 45F0 DECA      00EFA        1706 MSG170 BAL   JQ,WRTMSG             WRITE ERR MSG                        10437021
                                    1707 *=E      171 INTEGERS IN PAGE CLAUSE NOT IN ASCENDING ORDER. CONTIN     10444021
 000D28 45F0 DECA      00EFA        1708 MSG171 BAL   JQ,WRTMSG             WRITE ERR MSG                        10451021
                                    1709 *=E      172 WORD IVALID AS RPT-NM. IGNORED                             10458021
 000D2C 45F0 DECA      00EFA        1710 MSG172 BAL   JQ,WRTMSG             WRITE ERR MSG                        10465021
                                    1711 *=E      173 GROUP INDICATE IS ILLEGAL FOR THIS REPORT GROUP            10472021
 000D30 45F0 DECA      00EFA        1712 MSG173 BAL   JQ,WRTMSG             WRITE ERR MSG                        10479021
1PH1A     IKFCBL10                                                                                              PAGE   37
-  LOC  OBJECT CODE    ADDR1 ADDR2  STMT   SOURCE STATEMENT                                       ASM 0201 11.03 02/14/15
0                                   1713 *=E      174 NO LINE CLS IN PRECEEDING RPT-GRP                          10486021
 000D34 45F0 DECA      00EFA        1714 MSG174 BAL   JQ,WRTMSG             WRITE ERR MSG                        10493021
                                    1715 *=E      175 DNM FOR THIS RPT-GRP NOT UNIQUE. SKIP TO NEW 01 ETC        10500021
 000D38 45F0 DECA      00EFA        1716 MSG175 BAL   JQ,WRTMSG             WRITE ERR MSG                        10507021
                                    1717 *                                                                       10514021
                                    1718 *                                                                       10521021
 000D3C                             1719        DS    F                     WRT MSG-F                            10528021
                                    1720 *                                                                       10535021
 000D40                             1721        DS    F                                                          10542021
                                    1722 *=E     178 RESET SPEC, ILLEGAL EITHER NO SUM OR WRONG GROUP            10549021
 000D44 45F0 DECA      00EFA        1723 MSG178 BAL   JQ,WRTMSG             WRITE ERR MSG                        10556021
                                    1724 *=E     179 COLUMN NUMBER ILLEGAL. ASSUME COLUMN 1                      10563021
 000D48 45F0 DECA      00EFA        1725 MSG179 BAL   JQ,WRTMSG             WRITE ERR MSG                        10570021
                                    1726 *=E     180 SYNTAX OF COMMENT IS INCORRECT.  SKIPPING TO NEXT CLAUSE.   10577021
 000D4C 45F0 DECA      00EFA        1727 MSG180 BAL   JQ,WRTMSG             WRITE ERR MSG                        10584021
 000D50                             1728        DS    F                           ALIGN MSG 189 PROPERLY   4668  10591021
 000D54 00000000                    1729 ZERWRD DC    F'0'                      ZEROWORD CONSTANT          9321  10598021
 000D58 00000000                    1730 REGWRK DC    F'0'                      WORK REG                   9321  10605021
 000D5C                             1731 JPMVNT DS    F                         SAVE JP MVN ROUTINE        9321  10612021
 000D60                             1732 JPUBRS DS    F                         SAVE JP UBR ROUTINE        9321  10619021
 000D64                             1733 JPCLRS DS    F                         SAVE JP CLR ROUTINE        9321  10626021
 000D68                             1734 JPCRDS DS    F                         SAVE JP                    9321  10633021
 000D6C                             1735 JPFLSV DS    F                         SAVE JP FL SAVE ROUTINE    9321  10640021
                                    1736 *=E     189 'TO *' PORTION OF APPLY CORE-INDEX CLAUSE IGNORED.    9321  10647021
 000D70 45F0 DD64      00D94        1737 MSG189 BAL   JQ,PARMN                  WRITE ERR MSG              9321  10654021
                                    1738 *=E      190 'OF FILENAME' PORTION OF RERUN CLAUSE MISSING. RERUN 9321  10661021
                                    1739 *=E          IGNORED.                                             9321  10668021
 000D74 45F0 DECA      00EFA        1740 MSG190 BAL   JQ,WRTMSG                 WRITE ERR MSG              9321  10675021
1PH1A     IKFCBL10                                                                                              PAGE   38
-  LOC  OBJECT CODE    ADDR1 ADDR2  STMT   SOURCE STATEMENT                                       ASM 0201 11.03 02/14/15
0                                   1742 *                                                                       10689021
                                    1743 *        PARAM LOADING ROUTINS                                          10696021
                                    1744 *                                                                       10703021
 000D78 D279 D514 C6E4 00544 01674  1745 PARMC    MVC   EPARAM(LX122),CURCOD                                     10710021
 000D7E 9532 C6E4      01674        1746          CLI   CURCOD,XX32               NUM-LIT                        10717021
 000D82 4770 DECA      00EFA        1747        BC    NOTEQ,WRTMSG                NO-WRTMSG                      10724021
 000D86 9223 D514      00544        1748 PARMC2   MVI   EPARAM,XX23               SET UP                         10731021
 000D8A D213 D515 C6C2 00545 01652  1749          MVC   EPARAM+NX1(LX20),CURCNT     IN BCD                       10738021
 000D90 47F0 DECA      00EFA        1750        BC    UNCOND,WRTMSG         WRITE ERR MSG                        10745021
                                    1751 *                                                                       10752021
 000D94 D279 D514 C79A 00544 0172A  1752 PARMN    MVC   EPARAM(LX122),NXTCOD                                     10759021
 000D9A 9532 C79A      0172A        1753          CLI   NXTCOD,XX32               NUM-LIT                        10766021
 000D9E 4770 DEB6      00EE6        1754        BC    NOTEQ,WRNMSG                NO-WRNMSG                      10773021
 000DA2 9223 D514      00544        1755          MVI   EPARAM,XX23               SET UP                         10780021
 000DA6 D213 D515 C778 00545 01708  1756          MVC   EPARAM+NX1(LX20),NXTCNT     IN BCD                       10787021
 000DAC 47F0 DEB6      00EE6        1757        BC    UNCOND,WRNMSG         WRITE ERR MSG                        10794021
                                    1758 *                                                                       10801021
                             00DB0  1759 PARMRW EQU   *                                                          10808021
 000DB0 D201 D50F D424 0053F 00454  1760          MVC   MSGGCN(LX2),FSEGSN       GCN FROM 'SELECT' TO MSG        10815021
 000DB6 9223 D514      00544        1761          MVI   EPARAM,XX23              SET UP IN BCD                   10822021
 000DBA D21E D515 7000 00545 00000  1762          MVC   EPARAM+NX1(LX31),DX0(JG)  RPT-NAME TO WORK-AREA          10829021
 000DC0 47F0 DED0      00F00        1763        BC    UNCOND,WRTRSV         WRITE ERR MSG                        10836021
                                    1764 *                                                                       10843021
 000DC4 D21F D58E D3D6 005BE 00406  1765 PARM1C   MVC   SECPAR(LX32),CLSNM-NX1                                   10850021
 000DCA 47F0 DD48      00D78        1766        BC    UNCOND,PARMC          GET PARAM FOR MSG                    10857021
                                    1767 *                                                                       10864021
 000DCE D21F D514 D396 00544 003C6  1768 PARM2    MVC   EPARAM(LX32),SECTNM-NX1                                  10871021
 000DD4 47F0 DECA      00EFA        1769        BC    UNCOND,WRTMSG         WRITE ERR MSG                        10878021
                                    1770 *                                                                       10885021
 000DD8 D21F D514 D3B6 00544 003E6  1771 PARM3    MVC   EPARAM(LX32),PARNM-NX1                                   10892021
 000DDE 47F0 DECA      00EFA        1772        BC    UNCOND,WRTMSG         WRITE ERR MSG                        10899021
                                    1773 *                                                                       10906021
 000DE2 D21F D514 D3D6 00544 00406  1774 PARM4    MVC   EPARAM(LX32),CLSNM-NX1                                   10913021
 000DE8 47F0 DECA      00EFA        1775        BC    UNCOND,WRTMSG         WRITE ERR MSG                        10920021
                                    1776 *                                                                       10927021
 000DEC D21F D514 D3F6 00544 00426  1777 PARM5    MVC   EPARAM(LX32),VERBNM-NX1                                  10934021
 000DF2 47F0 DECA      00EFA        1778        BC    UNCOND,WRTMSG         WRITE ERR MSG                        10941021
                                    1779 *                                                                       10948021
 000DF6 D21F D58E D3F6 005BE 00426  1780 PARM6C   MVC   SECPAR(LX32),VERBNM-NX1                                  10955021
 000DFC 47F0 DD48      00D78        1781        BC    UNCOND,PARMC          GET PARAM FOR MSG                    10962021
                                    1782 *                                                                       10969021
 000E00 D21F D58E D396 005BE 003C6  1783 PARM7C   MVC   SECPAR(LX32),SECTNM-NX1                                  10976021
 000E06 47F0 DD48      00D78        1784        BC    UNCOND,PARMC          GET PARAM FOR MSG                    10983021
 000E0A D21F D58E D3F6 005BE 00426  1785 PARM8C   MVC   SECPAR(LX32),VERBNM-NX1                                  10990021
 000E10 47F0 DD64      00D94        1786          BC    UNCOND,PARMN        GET PARAM FOR MSG                    10997021
                                    1787 *                                                                       11004021
 000E14 D201 D514 C59F 00544 0152F  1788 PARMID   MVC   EPARAM(LX2),CARDCN        SET UP CARD IMAGE              11011021
 000E1A D24F D516 CDEC 00546 01D7C  1789          MVC   EPARAM+NX2(LX80),SIDEWK     FROM SIDEWK                  11018021
 000E20 47F0 DEC0      00EF0        1790        BC    UNCOND,WRDMSG               -WRDMSG                        11025021
                                    1791 *                                                                       11032021
 000E24 00                          1792 SEVLST DC    X'00'                 SEVCODE                              11039021
                                    1793 *                                                                       11046021
                                    1794 *               1 2 3 4 5 6 7 8 910111213141516                         11053021
 000E25 1101012121210101            1795        DC    X'11010121212101012101112121012121'  MSGS   1 -  16        11060021
                                    1796 *                                                                       11067021
1PH1A     IKFCBL10                                                                                              PAGE   39
-  LOC  OBJECT CODE    ADDR1 ADDR2  STMT   SOURCE STATEMENT                                       ASM 0201 11.03 02/14/15
0                                   1797 *              17181920212223242526272829303132                         11074021
 000E35 2121212121012121            1798        DC    X'21212121210121211101012121211121'  MSGS  17 -  32        11081021
                                    1799 *                                                                       11088021
                                    1800 *              33343536373839404142434445464748                         11095021
 000E45 0101211121210121            1801        DC    X'01012111212101212121012121212121'  MSGS  33 - 48         11102021
                                    1802 *                                                                       11109021
                                    1803 *              49505152535455565758596061626364                         11116021
 000E55 2121212121212121            1804        DC    X'21212121212121212121212121212121'  MSGS  49 -  64        11123021
                                    1805 *                                                                       11130021
                                    1806 *              65666768697071727374757677787980                         11137021
 000E65 2121212121111111            1807        DC    X'21212121211111111111111111011101'  MSGS  65 -  80        11144021
                                    1808 *                                                                       11151021
                                    1809 *              81828384858687888990919293949596                         11158021
 000E75 0111110111010121            1810        DC    X'01111101110101212121112121210121'  MSGS  81 -  96        11165021
                                    1811 *                                                                       11172021
                                    1812 *              979899 0 1 2 3 4 5 6 7 8 9101112                         11179021
 000E85 2121211121012121            1813        DC    X'21212111210121210121112121210121'  MSGS  97 - 112        11186021
                                    1814 *                                                                       11193021
                                    1815 *              13141516171819202122232425262728                         11200021
 000E95 2111212121212101            1816        DC    X'21112121212121010101012121212101'  MSGS 113-128          11207021
                                    1817 *                                                                       11214021
                                    1818 *              29303132333435363738394041424344                         11221021
 000EA5 1121012101010121            1819        DC    X'11210121010101210101212101010101'  MSGS 129 - 144  47935 11228021
                                    1820 *                                                                       11235021
                                    1821 *              45464748495051525354555657585960                         11242021
 000EB5 0101010101010101            1822        DC    X'01010101010101010101010121010101'  MSGS 145 - 160   8061 11249021
                                    1823 *                                                                       11256021
                                    1824 *              61626364656667686970717273747576                         11263021
 000EC5 0121212121211121            1825        DC    X'01212121212111210121212121212101'  MSGS 161 - 176        11270021
                                    1826 *                                                                       11277021
                                    1827 *              77787980818283848586878889909192                         11284021
 000ED5 2121210101010101            1828        DC    X'21212101010101010101010101210101'  MSG 177 - 192   9321  11291021
1PH1A     IKFCBL10                                                                                              PAGE   40
-  LOC  OBJECT CODE    ADDR1 ADDR2  STMT   SOURCE STATEMENT                                       ASM 0201 11.03 02/14/15
0                                   1830 *                                                                       11305021
                                    1831 *        GCN LOADING FOR NEXT-WORD                                      11312021
                                    1832 *                                                                       11319021
 000EE5 00
 000EE6 D201 D50F C798 0053F 01728  1833 WRNMSG   MVC   MSGGCN(LX2),NXTGCN        GCN TO MSG-TEXT                11326021
 000EEC 47F0 DED0      00F00        1834        BC    UNCOND,WRTRSV               -WRTRSV                        11333021
                                    1835 *        GCN LOADING FOR INSERT / DELETE                                11340021
 000EF0 D201 D50F C14C 0053F 010DC  1836 WRDMSG   MVC   MSGGCN(LX2),HWZERO        ZERO GCN FOR INS/DEL           11347021
 000EF6 47F0 DED0      00F00        1837        BC    UNCOND,WRTRSV               -WRTRSV                        11354021
                                    1838 *        GCN LOADING FOR CUR-WORD                                       11361021
 000EFA D201 D50F C6E2 0053F 01672  1839 WRTMSG   MVC   MSGGCN(LX2),CURGCN        GCN TO MSG-TEXT                11368021
                                    1840 *        CALC MSG NUMBER AND LOAD MSGNUM                                11375021
 000F00 9013 D898      008C8        1841 WRTRSV STM   JA,JC,SV3F12               SAVE REG                        11382021
 000F04 9102 D352      00382        1842          TM    NOTESW,XX02               NOTESW 'ON'                    11389021
 000F08 4710 DF5A      00F8A        1843        BC    ONES,WRTXTA                 YES-WRTXTA                     11396021
 000F0C 4110 DA50      00A80        1844        LA    JA,MSG1                    ADDR OF START OF MSGS           11403021
 000F10 41FF 0000      00000        1845          LA    JQ,DX0(JQ)                CLEAR HI ORDER BYTE            11410021
 000F14 1BF1                        1846        SR    JQ,JA                      GET DISPLACEMENT                11417021
 000F16 88F0 0002      00002        1847          SRL   JQ,DX2(JR)                 DIVIDE BY 4                   11424021
 000F1A 42F0 D50E      0053E        1848          STC   JQ,MSGNUM+NX1             STORE MSG-NUM IN MSG-TEXT      11431021
 000F1E 4110 DDF4      00E24        1849        LA    JA,SEVLST                  ADDR OF SEVLST                  11438021
 000F22 433F 1000      00000        1850          IC    JC,DX0(JQ,JA)             GET SEVERITY CODE              11445021
 000F26 4230 D511      00541        1851        STC   JC,MSGSP                   STORE SEVERITY IN MSG-TEXT      11452021
                                    1852 *        WRITE OF ERROR MSG                                             11459021
 000F2A 5830 C814      017A4        1853        L     JC,COSADR                  WRITE OUT                       11466021
 000F2E 4120 D50A      0053A        1854        LA    JB,MSGDEF                   MSG ON                         11473021
 000F32 0503                        1855        BALR  JR,JC                         FILE                         11480021
 000F34 23                          1856 WRERR1 DC    X'23'                         XX                           11487021
                                    1857 *        SET UP OF PARAM LENGTH                                         11494021
 000F35 00
 000F36 9500 D514      00544        1858 WRTSEC   CLI   EPARAM,XX00               PARAM PRESENT                  11501021
 000F3A 4780 DF56      00F86        1859        BC    EQ,WRTEXT                   NO-WRTEXT                      11508021
 000F3E 95B9 D514      00544        1860          CLI   EPARAM,XXB9               CODE FOR INVALID WORD          11515021
 000F42 4770 DF1C      00F4C        1861        BC    NOTEQ,WRTADR                NO-WRTADR                      11522021
 000F46 D201 D514 D515 00544 00545  1862          MVC   EPARAM(LX2),EPARAM+NX1     MOVE CODE OVER ONE            11529021
 000F4C 4120 D514      00544        1863 WRTADR LA    JB,EPARAM                  ADDR OF EPARAM                  11536021
 000F50 1711                        1864        XR    JA,JA                      CLEAR REG                       11543021
 000F52 4312 0000      00000        1865          IC    JA,DX0(JB)                GET IC-TEXT CODE               11550021
 000F56 8810 0006      00006        1866          SRL   JA,DX6(JR)                 SHIFT RIGHT 6                 11557021
 000F5A 1211                        1867        LTR   JA,JA                      TEST IF ZERO                    11564021
 000F5C 4770 DF38      00F68        1868        BC    NOTZER,WRTADJ               NO-WRTADJ                      11571021
 000F60 4312 0001      00001        1869          IC    JA,DX1(JB)                GET IC-TEXT 'N'                11578021
 000F64 4111 0001      00001        1870          LA    JA,DX1(JA)                ADJ LENGTH FOR 'N'             11585021
 000F68 4111 0001      00001        1871 WRTADJ   LA    JA,DX1(JA)                ADJ LENGTH FOR CODE            11592021
 000F6C 4210 D513      00543        1872          STC   JA,EPARNN+NX1             STORE IN PARAM 'N' FIELD       11599021
                                    1873 *        WRITE OF PARAM                                                 11606021
 000F70 4120 D512      00542        1874        LA    JB,EPARNN                  WRITE OUT                       11613021
 000F74 0503                        1875        BALR  JR,JC                        PARAM ON                      11620021
 000F76 23                          1876 WRERR2 DC    X'23'                        FILE XX                       11627021
                                    1877 *        LOAD OF SECOND PARAM TO FIRST                                  11634021
 000F77 00
 000F78 D21F D514 D58E 00544 005BE  1878          MVC   EPARAM(LX32),SECPAR       MOVE SECOND PARAM TO FIRST     11641021
 000F7E 9200 D58E      005BE        1879          MVI   SECPAR,XX00               ZERO SECPAR                    11648021
 000F82 47F0 DF06      00F36        1880        BC    UNCOND,WRTSEC               -WRTSEC                        11655021
                                    1881 *        EXIT FROM ERROR MSG ROUTINE                                    11662021
1PH1A     IKFCBL10                                                                                              PAGE   41
-  LOC  OBJECT CODE    ADDR1 ADDR2  STMT   SOURCE STATEMENT                                       ASM 0201 11.03 02/14/15
0000F86 9813 D898      008C8        1882 WRTEXT LM    JA,JC,SV3F12               RESTORE REGS                    11669021
 000F8A 58F0 DA18      00A48        1883 WRTXTA L     JQ,LNKR15                  RESTORE BASE REG15              11676021
 000F8E 07FE                        1884        BCR   UNCOND,JP                   -RETURN                        11683021
                                    1885 *                                                                       11690021
1PH1A     IKFCBL10                                                                                              PAGE   42
-  LOC  OBJECT CODE    ADDR1 ADDR2  STMT   SOURCE STATEMENT                                       ASM 0201 11.03 02/14/15
0000F90                             1887 IKF102 CSECT                                                            11704021
                                    1888 *                                                                       11711021
                                    1889 *=2         COMMON CONSTANT AREA                  ID   ENV  DATA PR     11718021
                                    1890 *                                                                       11725021
                             00F90  1891 IDDIV1 EQU   *                                                          11732021
 000F90                             1892        DS    CL15                        OF CURRENT DATE                11739021
 000F9F 00
 000FA0 00005EA0                    1893 DATDV1 DC    A(RDSCAN)             PTR TO RDSCN                         11746021
 000FA4 00006BB0                    1894 DATDV2 DC    A(FLUSH)              PTR TO FLUSH                         11753021
 000FA8 00008650                    1895 DATDV4 DC    A(SPCRTS)                 ADDR OF SPECIAL ROUTS CSECT      11760021
 000FAC 000091A0                    1896 DATDV5 DC    A(DOROL)              PTR TO DORO1                         11767021
 000FB0 00007888                    1897 DATDV3 DC    A(PROC01)             PTR TO PROC01                        11774021
 000FB4 0000AA78                    1898 IDDIV  DC    A(IDDSCN)                  ADDR OF IDDSCN                  11781021
 000FB8 00001F18                    1899 HSKP2  DC    A(GETWD)              PTR TO GETWD                         11788021
 000FBC 000038A4                    1900 HSKP3  DC    A(GETDLM)             PTR TO GETDLM                        11795021
 000FC0 00004438                    1901 GTD1   DC    A(LETTER)             PTR TO LETTER                        11802021
 000FC4 000095B8                    1902 ENVDIV DC    A(ENVSCN)                  ADDR OF ENV DIV                 11809021
 000FC8 0000A330                    1903 ENVDV1 DC    A(APPSCN)             PTR TO APDSCN                        11816021
 000FCC 00002BF0                    1904 ACBW   DC    A(COBWRD)             PTR TO COBWRD                        11823021
 000FD0 00004D60                    1905 DATDIV DC    A(DDSCN)                   ADDR OF DAT DIV                 11830021
 000FD4 00003AF8                    1906 GETADR DC    A(UNLVSN)                  ADDR OF UNIT LEVEL SCAN         11837021
                                    1907 *                                                                       11844021
 000FD8                             1908 SV1F13 DS    15F                        SAVE FOR CALLING COPY           11851021
 001014                             1909 GTWDSV DS    15F                        SAVE AREA FOR GETWD  REGS       11858021
 001050                             1910 GTCDSV DS    15F                        SAVE FOR GTCD REGS              11865021
 00108C                             1911 SAVECD DS    CL80                  80-BYTE CARD SAVE AREA               11872021
                                    1912 *                                                                       11879021
 0010DC 0000                        1913 HWZERO DC    H'0'                       HALFWORD OF ZEROS               11886021
 0010DE 0001                        1914 HWONE  DC    H'1'                       HALFWORD OF +1                  11893021
                             010DE  1915 H1     EQU   HWONE                                                      11900021
                             010DE  1916 HW1    EQU   HWONE                                                      11907021
 0010E0 0002                        1917 HWTWO  DC    H'2'                       HALFWORD OF 2                   11914021
                             010E0  1918 H2     EQU   HWTWO                                                      11921021
 0010E2 0003                        1919 HWTHRE DC    H'3'                       HALFWORD OF +3                  11928021
                             010E2  1920 HW3    EQU   HWTHRE                                                     11935021
 0010E4 0004                        1921 HWFOUR DC    H'4'                       HALFWORD OF '4'                 11942021
 0010E6 0005                        1922 H5     DC    H'5'                  HALFWORD CONSTANT                    11949021
 0010E8 000A                        1923 HWTEN  DC    H'10'                     HALFWORD OF TEN                  11956021
 0010EA 0022                        1924 HW034  DC    H'34'                      HALFWORD OF 34                  11963021
 0010EC 0041                        1925 HW65   DC    H'65'                      HALF WORD OF 66                 11970021
 0010EE 0008                        1926 HW8    DC    H'8'                      HALFWORD OF EIGHT                11977021
 0010F0 0031                        1927 HW49     DC    H'49'               HALFWORD OF 49                  9015 11984021
 0010F2 7FFF                        1928 CON32K   DC    H'32767'            MAX SIZE FOR HALFWORD           9015 11991021
 0010F4 049F                        1929 L049   DC    X'049F'                   HALFWORD OF 49                   11998021
 0010F6 066F                        1930 L066   DC    X'066F'                   HALFWORD OF 66                   12005021
 0010F8 077F                        1931 L077   DC    X'077F'                   HALFWORD OF 77                   12012021
 0010FA 088F                        1932 L088   DC    X'088F'                   HALFOWRD OF 88                   12019021
 0010FC 05A2                        1933 H1442  DC    H'1442'               HALFWORD CONSTANT                    12026021
 0010FE 057B                        1934 H1403  DC    H'1403'               HALFWORD CONSTANT                    12033021
 001100 057C                        1935 H1404  DC    H'1404'               HALFWORD CONSTANT                    12040021
 001102 05A3                        1936 H1443  DC    H'1443'               HALFWORD CONSTANT                    12047021
 001104 05A5                        1937 H1445  DC    H'1445'                   HALFWORD CONSTANT                12054021
 001106 08FD                        1938 HW2301 DC    H'2301'                    HALF WD FOR BINARY 2301         12061021
 001108 08FE                        1939 HW2302 DC    H'2302'                   HALF WD FOR 2302                 12068021
 00110A 08FF                        1940 HW2303 DC    H'2303'                    HALF WD FOR BIN    2303         12075021
1PH1A     IKFCBL10                                                                                              PAGE   43
-  LOC  OBJECT CODE    ADDR1 ADDR2  STMT   SOURCE STATEMENT                                       ASM 0201 11.03 02/14/15
000110C 09C5                        1941 H2501  DC    H'2501'               HALFWORD CONSTANT                    12082021
 00110E 09D8                        1942 H2520  DC    H'2520'               HALFWORD CONSTANT                    12089021
 001110 09EC                        1943 H2540  DC    H'2540'               HALFWORD CONSTANT                    12096021
 001112 0960                        1944 HW2400 DC    H'2400'               HALFWORD CONSTANT                    12103021
 001114 0907                        1945 HW2311 DC    H'2311'               HALFWORD CONSTANT                    12110021
 001116 090A                        1946 HW2314 DC    H'2314'               HALFWORD CONSTANT                    12117021
 001118 0911                        1947 HW2321 DC    H'2321'               HALFWORD CONSTANT                    12124021
 00111A E4D9                        1948 UNITRC DC    C'UR'                 UNIT-RECORD SCAN CON                 12131021
 00111C E4E3                        1949 UTILTY DC    C'UT'                 UTILITY SCAN CON                     12138021
 00111E C4C1                        1950 DIRACC DC    C'DA'                 DIRECT ACCESS SCAN CON               12145021
 001120 F1F4F0F3                    1951 S1403  DC    C'1403'               PRINTER CON                          12152021
 001124 F2F3F1F1C5                  1952 S2311  DC    C'2311E'                   2311 , 2311E CONFIGURATION      12159021
 001129 F2F5F4F0                    1953 S2540  DC    C'2540'               READER CON                           12166021
                                    1954 *                                                                       12173021
 00112D 420226                      1955 FILE54 DC    X'420226'                  AFTER I-O-CONTROL               12180021
 001130 40C9D540                    1956 CINCON DC    C' IN '               CINCON AREA                          12187021
 001134                             1957 SVCURR DS    CL181                     SAVE AREA FOR CURENT CELLS       12194021
 0011E9                             1958 CPQCNT DS    CL1                        SAVE CURCNT                     12201021
 0011EA                             1959 CPQWD  DS    CL30                       SAVE CURWD                      12208021
 001208 4040404040404040            1960 CPYQNM DC    CL30' '                    SAVE 01 DATANM FROM COPYLIB     12215021
 001226 0000
 001228 00000001                    1961 F1     DC    F'1'                  F1 CON                               12222021
 00122C FFFFFFFF                    1962 ALLFF  DC    F'-1'                 ALL FF CON                           12229021
 001230 00000002                    1963 K2     DC    F'2'                  K2 CON                               12236021
 001234 00000007                    1964 K7     DC    F'7'                  K7 CON                               12243021
 001238 00000010                    1965 K16    DC    F'16'                 K16 CON                              12250021
 00123C 00000011                    1966 K17    DC    F'17'                 K17 CON                              12257021
 001240 00000012                    1967 K18    DC    F'18'                 K18 CON                              12264021
 001244 0000001E                    1968 K30    DC    F'30'                 K30 CON                              12271021
 001248 00000030                    1969 FWCONS DC    F'48'                      FULLWORD OF 00000030            12278021
 00124C 00000078                    1970 K120   DC    F'120'                     FULWORD OF 120                  12285021
 001250 000000FF                    1971 NU255  DC    F'255'                     FULLWORD WITH 255               12292021
 001254 01000000                    1972 TWOP24 DC    F'16777216'           CONSTANT                             12299021
 001258 3B9ACA00                    1973 TNPW9  DC    F'1000000000'         CONSTANT                             12306021
 00125C 00000000
 001260 4110000000000000            1974 FLTONE DC    D'1'                  FL-PT CON                            12313021
 001268 0000000C                    1975 ZEROCS DC    X'0000000C'           ZEROES CON                           12320021
 00126C 0000000C                    1976        DC    X'0000000C'           ZEROES CON                           12327021
 001270 0000000C                    1977        DC    X'0000000C'                                                12334021
                                    1978 *                                                                       12341021
                                    1979 * TABLES                                                                12348021
                                    1980 *                                                                       12355021
 001274 4AA7A358                    1981 PLSTBL DC    E'7.2E11'             PLSTBL CONSTANT AREA                 12362021
 001278 6533A850                    1982        DC    E'7.2E43'             INDEX                                12369021
 00127C 7272B3DF                    1983        DC    E'7.2E59'             INDEX                                12376021
 001280 792ABAE5                    1984        DC    E'7.2E67'             INDEX                                12383021
 001284 7C685249                    1985        DC    E'7.2E71'             INDEX                                12390021
 001288 7E28C024                    1986        DC    E'7.2E73'             INDEX                                12397021
 00128C 7F197817                    1987        DC    E'7.2E74'             INDEX                                12404021
                                    1988 *                                                                       12411021
 001290 351851C7                    1989 NEGTBL DC    E'5.4E-15'            INDEX                                12418021
 001294 1A4EEBCC                    1990        DC    E'5.4E-47'            INDEX                                12425021
 001298 0D238AFB                    1991        DC    E'5.4E-63'            INDEX                                12432021
 00129C 065F68E5                    1992        DC    E'5.4E-71'            INDEX                                12439021
 0012A0 03271470                    1993        DC    E'5.4E-75'            INDEX                                12446021
1PH1A     IKFCBL10                                                                                              PAGE   44
-  LOC  OBJECT CODE    ADDR1 ADDR2  STMT   SOURCE STATEMENT                                       ASM 0201 11.03 02/14/15
00012A4 01640B5C                    1994        DC    E'5.4E-77'            INDEX                                12453021
 0012A8 00A0122C                    1995        DC    E'5.4E-78'            INDEX                                12460021
                                    1996 *                                                                       12467021
 0012AC 00000000
 0012B0 76184F03E93FF9F5            1997 PWRTBL DC    D'1E64'               INDEX                                12474021
 0012B8 5B4EE2D6D415B85B            1998        DC    D'1E32'               INDEX                                12481021
 0012C0 4E2386F26FC10000            1999        DC    D'1E16'               INDEX                                12488021
 0012C8 475F5E1000000000            2000        DC    D'1E8'                INDEX                                12495021
 0012D0 4427100000000000            2001        DC    D'1E4'                INDEX                                12502021
 0012D8 4264000000000000            2002        DC    D'1E2'                INDEX                                12509021
 0012E0 41A0000000000000            2003        DC    D'1E1'                INDEX                                12516021
                                    2004 *                                                                       12523021
 0012E8 000012E8                    2005 TBLEND DC    A(PWRTBL+56)          PTR TO END OF TB1                    12530021
                                    2006 *                                                                       12537021
                                    2007 ****************                                                        12544021
                                    2008 *                                                                       12551021
                                    2009 * TRT TABLE - SCANNING TO NON-DIGIT                                     12558021
                                    2010 *                                                                       12565021
                             012EC  2011 NONLDH EQU   *                          SCAN TO NON LETTER DIGIT HY     12572021
 0012EC 0404040404040404            2012 UDIGT  DC    5X'040404040404040404040404040404'                         12579021
 001337 03                          2013        DC    X'03'                      PERIOD                          12586021
 001338 0404040404040404            2014        DC    2X'04040404040404040404'                                   12593021
 00134C 02                          2015 TBHYPN DC    X'02'                      MINUS SIGN                      12600021
 00134D 0404040404040404            2016        DC    6X'04040404040404040404040404040404'                       12607021
 0013AD 0101010101010101            2017 MSKLT1 DC    X'010101010101010101'      LETTERS                         12614021
 0013B6 04040404040404              2018        DC    X'04040404040404'                                          12621021
 0013BD 0101010101010101            2019 MSKLT2 DC    X'010101010101010101'      LETTERS                         12628021
 0013C6 0404040404040404            2020        DC    X'0404040404040404'                                        12635021
 0013CE 0101010101010101            2021 MSKLT3 DC    X'0101010101010101'        LETTERS                         12642021
 0013D6 040404040404                2022        DC    X'040404040404'                                            12649021
 0013DC 0000000000000000            2023        DC    X'00000000000000000000'                                    12656021
 0013E6 040404040404                2024        DC    X'040404040404'                                            12663021
                                    2025 ****************                                                        12670021
                                    2026 *                                                                       12677021
                                    2027 ***   TRT TABLE SCANNING TO NON-BLAND     **********                    12684021
                                    2028 *                                                                       12691021
                                    2029 *                                                                       12698021
 0013EC 0707070707070707            2030 UNONB  DC    4X'07070707070707070707070707070707' ILLEGAL CHARACTER     12705021
 00142C 00                          2031        DC    X'00'                          BLANK                       12712021
 00142D 0707070707070707            2032        DC    X'07070707070707070707'                                    12719021
 001437 04                          2033        DC    X'04'                          PERIOD                      12726021
 001438 06                          2034        DC    X'06'                          LESS THAN SIGN              12733021
 001439 06                          2035        DC    X'06'                          LEFT PAREN                  12740021
 00143A 05                          2036        DC    X'05'                          PLUS SIGN                   12747021
 00143B 0707070707070707            2037        DC    X'070707070707070707070707'                                12754021
 001447 07                          2038        DC    X'07'                          DOLLAR SIGN-ILLEGAL         12761021
 001448 06                          2039        DC    X'06'                          ASTERISK                    12768021
 001449 06                          2040        DC    X'06'                          RIGHT PAREN                 12775021
 00144A 08                          2041        DC    X'08'                          SEMI-COLON                  12782021
 00144B 07                          2042        DC    X'07'                                                      12789021
 00144C 05                          2043        DC    X'05'                          MINUS SIGN                  12796021
 00144D 06                          2044        DC    X'06'                          SLASH                       12803021
 00144E 0707070707070707            2045        DC    X'070707070707070707'                                      12810021
 001457 08                          2046        DC    X'08'                          COMMA                       12817021
 001458 0707                        2047        DC    X'0707'                                                    12824021
1PH1A     IKFCBL10                                                                                              PAGE   45
-  LOC  OBJECT CODE    ADDR1 ADDR2  STMT   SOURCE STATEMENT                                       ASM 0201 11.03 02/14/15
000145A 06                          2048        DC    X'06'                          GREATER THAN SIGN           12831021
 00145B 0707070707070707            2049        DC    X'0707070707070707070707070707'                            12838021
 001469 03                          2050 TBQUT1 DC    X'03'                          QUOTE                       12845021
 00146A 06                          2051        DC    X'06'                          EQUAL SIGN                  12852021
 00146B 07                          2052 TBQUT2 DC    X'07'                           DOUBLE QUOTE               12859021
 00146C 0707070707070707            2053        DC    13X'0707070707'       LETTERS                              12866021
 0014AD 0101010101010101            2054 LETMSK DC    X'010101010101010101'          LETTERS                     12873021
 0014B6 07070707070707              2055        DC    X'07070707070707'     LETTERS                              12880021
 0014BD 0101010101010101            2056        DC    X'010101010101010101'          LETTERS                     12887021
 0014C6 0707070707070707            2057        DC    X'0707070707070707'   LETTERS                              12894021
 0014CE 0101010101010101            2058        DC    X'0101010101010101'            LETTERS                     12901021
 0014D6 070707070707                2059        DC    X'070707070707'       LETTERS                              12908021
 0014DC 0202020202020202            2060        DC    X'02020202020202020202'        DIGITS                      12915021
 0014E6 070707070707                2061        DC    X'070707070707'       LETTERS                              12922021
                                    2062 *                                                                       12929021
 0014EC 07                          2063 RSEV   DC    X'07'                      BYTE OF 7                       12936021
                                    2064 *                                                                       12943021
                             013C3  2065 MSKLTP EQU   MSKLT2+6                                                   12950021
                             013C5  2066 MSKLTR EQU   MSKLT2+8                                                   12957021
 0014ED 32F2E1E0DFDE2607            2067 USETBL DC    XL14'32F2E1E0DFDE2607060504030201' USAGE TBL  & CONSTA     12964021
 001500                             2068        DS    0D                                                         12971021
 001500 7FFFFFFFFFFFFFFF            2069 MAXFLT DC    X'7FFFFFFFFFFFFFFF'   FLT CON FIELD                        12978021
                             00060  2070 KHYPHN EQU   X'60'                                                      12985021
 001508 407D                        2071 KQUOTE DC    X'407D'                    BLANK-QUOTE FOR COL 73+74       12992021
 00150A C9D540                      2072 INKON  DC    C'IN '                SWITCH                               12999021
 00150D D6C640                      2073 OFKON  DC    C'OF '                SWITCH                               13006021
 001510 4B6B                        2074 KDECML DC    X'4B6B'                    CONSTANT FOR PERIOD-COMA        13013021
 001512 42FF1E                      2075 EOPCON DC    X'42FF1E'                  CONSTANT FOR EOP                13020021
 001515 54D604                      2076 REPCON DC    X'54D604'                  CONSTANT FOR REPORT NOT AS      13027021
 001518 540104                      2077 DATCON DC    X'540104'                  CONSTANT FOR'DATA'IN DATA D     13034021
 00151B 2301                        2078 MODBYT DC    X'2301'                    CONSTANT FOR 1 CHAR-BCD         13041021
 00151D 4406                        2079 EOSCON DC    X'4406'                    CONSTANT FOR 'PERIOD'           13048021
 00151F 00
 001520 0000                        2080 FRHWZ  DC    H'0'                  HALFWORD                             13055021
 001522 420B                        2081 RSECT  DC    X'420B'                    REPORT SECTION HEADER           13062021
 001524 0301001C                    2082 INLONE DC    X'0301001C'                INT-NUM-LIT OF ONE FOR          13069021
 001528 00000000000006              2083 BUGCON DC    X'00000000000006'          1-USED FOR *DEBUG FOLLOWED      13076021
 00152F 2348                        2084 CARDCN DC    X'2348'                    CONST FOR WRITE OF INC/DEL CD   13083021
 001531 32050400                    2085 INTNL4 DC    X'32050400'                CONSTANT FOR 'INTEG NUM LIT     13090021
 001535 C9D5E2C5D9E340              2086 INSKON DC    C'INSERT '                 CONSTANT OF 'INSERT'      41557 13097021
 00153C C4C5D3C5E3C540              2087 DELKON DC    C'DELETE '                 CONSTANT OF 'DELETE'      41557 13104021
                                    2088 ***********************CURRENCY SIGN TABLE********************          13111021
 001543 F0                          2089 CURSGT DC    C'0'                  CURRENCY TABLE FIELD                 13118021
 001544 F1                          2090        DC    C'1'                  CURRENCY TABLE FIELD                 13125021
 001545 F2                          2091        DC    C'2'                  CURRENCY TABLE FIELD                 13132021
 001546 F3                          2092        DC    C'3'                  CURRENCY TABLE FIELD                 13139021
 001547 F4                          2093        DC    C'4'                  CURRENCY TABLE FIELD                 13146021
 001548 F5                          2094        DC    C'5'                  CURRENCY TABLE FIELD                 13153021
 001549 F6                          2095        DC    C'6'                  CURRENCY TABLE FIELD                 13160021
 00154A F7                          2096        DC    C'7'                  CURRENCY TABLE FIELD                 13167021
 00154B F8                          2097        DC    C'8'                  CURRENCY TABLE FIELD                 13174021
 00154C F9                          2098        DC    C'9'                  CURRENCY TABLE FIELD                 13181021
 00154D C1                          2099        DC    C'A'                  CURRENCY TABLE FIELD                 13188021
 00154E C2                          2100        DC    C'B'                  CURRENCY TABLE FIELD                 13195021
 00154F C3                          2101        DC    C'C'                  CURRENCY TABLE FIELD                 13202021
1PH1A     IKFCBL10                                                                                              PAGE   46
-  LOC  OBJECT CODE    ADDR1 ADDR2  STMT   SOURCE STATEMENT                                       ASM 0201 11.03 02/14/15
0001550 C4                          2102        DC    C'D'                  CURRENCY TABLE FIELD                 13209021
 001551 D7                          2103        DC    C'P'                  CURRENCY TABLE FIELD                 13216021
 001552 D9                          2104        DC    C'R'                  CURRENCY TABLE FIELD                 13223021
 001553 E2                          2105        DC    C'S'                  CURRENCY TABLE FIELD                 13230021
 001554 E5                          2106        DC    C'V'                  CURRENCY TABLE FIELD                 13237021
 001555 E7                          2107        DC    C'X'                  CURRENCY TABLE FIELD                 13244021
 001556 E9                          2108        DC    C'Z'                  CURRENCY TABLE FIELD                 13251021
 001557 40                          2109        DC    C' '                  CURRENCY TABLE FIELD                 13258021
 001558 5C                          2110        DC    C'*'                  CURRENCY TABLE FIELD                 13265021
 001559 4E                          2111        DC    C'+'                  CURRENCY TABLE FIELD                 13272021
 00155A 60                          2112        DC    C'-'                  CURRENT  FIELD                       13279021
 00155B 6B                          2113        DC    C','                  CURRENT  FIELD                       13286021
 00155C 4B                          2114        DC    C'.'                  CURRENT  FIELD                       13293021
 00155D 5E                          2115        DC    C';'                  CURRENT  FIELD                       13300021
 00155E 4D                          2116        DC    C'('                  CURRENT  FIELD                       13307021
 00155F 5D                          2117        DC    C')'                  CURRENT  FIELD                       13314021
 001560 7F                          2118        DC    C'"'                  CURRENT  FIELD                       13321021
                             01561  2119 CURSGE EQU   *                                                          13328021
 001561 0A                          2120 CPARAG DC    AL1(10)                    CONSTANT OF '10PARAGRAPH'       13335021
 001562 D7C1D9C1C7D9C1D7            2121        DC    C'PARAGRAPH'                                               13342021
 00156B 08                          2122 CSENTE DC    AL1(8)                     CONSTANT OF '8SENTENCE'         13349021
 00156C E2C5D5E3C5D5C3C5            2123        DC    C'SENTENCE'                                                13356021
 001574 06                          2124 CCLAUS DC    AL1(6)                     CONSTANT OF '6CLAUSE'           13363021
 001575 C3D3C1E4E2C5                2125        DC    C'CLAUSE'                                                  13370021
 00157B 0D                          2126 CFG13  DC    AL1(13)                    CONSTANT OF '13CONFIGURATIO     13377021
 00157C C3D6D5C6C9C7E4D9            2127        DC    C'CONFIGURATION'                                           13384021
 001589 00                          2128 EXTRSW DC    X'00'                     BIT 1 = 1 IF EXT-NM IN RERUN     13391021
 00158A 04                          2129 DAT4   DC    AL1(4)                     CONSTANT OF '4DATA'             13398021
 00158B C4C1E3C1                    2130        DC    C'DATA'                                                    13405021
 00158F 0B                          2131 ENV11  DC    AL1(11)                    CONSTANT OF '11ENVIRONMENT'     13412021
 001590 C5D5E5C9D9D6D5D4            2132        DC    C'ENVIRONMENT'                                             13419021
 00159B 04                          2133 FILE4  DC    AL1(4)                     CONSTANT OF '4FILE'             13426021
 00159C C6C9D3C5                    2134        DC    C'FILE'                                                    13433021
 0015A0 0C                          2135 FCTL12 DC    AL1(12)                    CONSTANT OF '12FILE-CONTROL     13440021
 0015A1 C6C9D3C560C3D6D5            2136        DC    C'FILE-CONTROL'                                            13447021
 0015AD 0C                          2137 INOT12 DC    AL1(12)                    CONSTANT OF '12INPUT-OUTPUT     13454021
 0015AE C9D5D7E4E360D6E4            2138        DC    C'INPUT-OUTPUT'                                            13461021
 0015BA 0B                          2139 IOCT11 DC    AL1(11)                    CONSTANT OF '11I-O-CONTROL'     13468021
 0015BB C960D660C3D6D5E3            2140        DC    C'I-O-CONTROL'                                             13475021
 0015C6 06                          2141 REPRT6 DC    AL1(6)                     CONSTANT OF '6REPORT'           13482021
 0015C7 D9C5D7D6D9E3                2142        DC    C'REPORT'                                                  13489021
 0015CD 0D                          2143 SPNM13 DC    AL1(13)                   CONSTANT OF 'SPECIAL-NAMES'      13496021
 0015CE E2D7C5C3C9C1D360            2144        DC    C'SPECIAL-NAMES'                                           13503021
 0015DB 0F                          2145 WKST15 DC    AL1(15)                    CONSTANT OF '15WORKING-STOR     13510021
 0015DC E6D6D9D2C9D5C760            2146        DC    C'WORKING-STORAGE'                                         13517021
 0015EB 07                          2147 RENAM7 DC    AL1(7)                    CONSTANT OF '7RENAMES'      7869 13524021
 0015EC D9C5D5C1D4C5E2              2148        DC    C'RENAMES'                                            7869 13531021
 0015F3 02                          2149 IDD    DC    AL1(2)                     CONSTANT OF '2ID'               13538021
 0015F4 C9C4                        2150        DC    C'ID'                                                      13545021
 0015F6 09                          2151 PRCD9  DC    AL1(9)                    CONSTANT OF '9PROCEDURE'         13552021
 0015F7 D7D9D6C3C5C4E4D9            2152        DC    C'PROCEDURE'                                               13559021
 001600 0F                          2153 ESCH15 DC    AL1(15)                   CONSTANT OF '15EXTENDED-SEARCH'  13566021
 001601 C5E7E3C5D5C4C5C4            2154        DC    C'EXTENDED-SEARCH'                                         13573021
 001610 0C                          2155 CYOV12 DC    AL1(12)                   CONSTANT OF '12CYL-OVERFLOW'     13580021
 001611 C3E8D360D6E5C5D9            2156        DC    C'CYL-OVERFLOW'                                            13587021
1PH1A     IKFCBL10                                                                                              PAGE   47
-  LOC  OBJECT CODE    ADDR1 ADDR2  STMT   SOURCE STATEMENT                                       ASM 0201 11.03 02/14/15
000161D 0C                          2157 MSTX12 DC    AL1(12)                   CONSTANT OF '12MASTER-INDEX'     13594021
 00161E D4C1E2E3C5D960C9            2158        DC    C'MASTER-INDEX'                                            13601021
 00162A 09                          2159 CYLX9  DC    AL1(9)                    CONSTANT OF '9CYL-INDEX'         13608021
 00162B C3E8D360C9D5C4C5            2160        DC    C'CYL-INDEX'                                               13615021
 001634 0C                          2161 WVER12 DC    AL1(12)                   CONSTANT OF '12WRITE-VERIFY'     13622021
 001635 E6D9C9E3C560E5C5            2162        DC    C'WRITE-VERIFY'                                            13629021
 001641 0A                          2163 CORX10 DC    AL1(10)                   CONSTANT OF '10CORE-INDEX'       13636021
 001642 C3D6D9C560C9D5C4            2164        DC    C'CORE-INDEX'                                              13643021
                                    2165 * CURRENT WORD INFORMATION                                              13650021
 00164C                             2166        DS    0F                                                         13657021
 00164C F0F0F0F0F0F0                2167 CURNUM DC    C'000000'             6-BYTE CURNUM                        13664021
 001652                             2168 CURCNT DS    CL1                   1-BYTE AREA FOR COUNT                13671021
 001653                             2169 CURWD  DS    CL30                  LENGTH OF CURWORD                    13678021
 001671                             2170 CURSW  DS    CL1                   1-BYTE SWITCH AREA                   13685021
 001672 0000                        2171 CURGCN DC    H'0'                      GENERATED CARD NUMBER            13692021
 001674                             2172 CURCOD DS    CL1                   1-BYTE CODE                          13699021
 001675                             2173 CURN   DS    CL1                   1-BYTE AREA                          13706021
 001676                             2174 CURDCD DS    0CL1            CURDCD EQU CURBCD FIRST BYTE               13713021
 001676                             2175 CURBCD DS    CL120                 120 BYTE BCD NAME FIELD              13720021
 0016EE                             2176 CURXNL DS    CL19                      EXTERNAL-NUM-LIT IN BCD W/SI     13727021
                                    2177 * NEXT WORD INFORMATION                                                 13734021
 001702                             2178        DS    0H                                                         13741021
 001702 F0F0F0F0F0F0                2179 NXTNUM DC    C'000000'             6-BYTE FIELD                         13748021
 001708                             2180 NXTCNT DS    CL1                   7-BYTE AREA                          13755021
 001709                             2181 NXTWD  DS    CL30                  30 WORD AREA                         13762021
 001727 00                          2182 NXTSW  DC    X'00'           80-BCD,08-INL,04-NONBLK,02-LHNP,01-A-M     13769021
 001728 0000                        2183 NXTGCN DC    H'0'                      GENERATED CARD NUMBER            13776021
 00172A F0                          2184 NXTCOD DC    CL1'0'                CODE SWITCH                          13783021
 00172B                             2185 NXTN   DS    CL1                   7-BYTE FIELD                         13790021
 00172C                             2186 NXTBCD DS    CL120                 120-BYTE BCD NAME FIELD              13797021
                                    2187 *                                                                       13804021
                                    2188 *      THESE EQUATES ARE USED FOR IMPLEMENTOR NAME SCAN IN THE          13811021
                                    2189 *            SELECT SENTENCE SCAN                                       13818021
                                    2190 *                                                                       13825021
                             016EF  2191 CURLIT EQU   CURXNL+1                                                   13832021
                             0167D  2192 HYPH2  EQU   CURBCD+7                                                   13839021
                             01679  2193 NNN    EQU   CURBCD+3                                                   13846021
                                    2194 *                                                                       13853021
                             0167D  2195 BCDP   EQU   CURBCD+7                                                   13860021
                             00030  2196 MAJ0     EQU   X'30'                                               2768 13867021
1PH1A     IKFCBL10                                                                                              PAGE   48
-  LOC  OBJECT CODE    ADDR1 ADDR2  STMT   SOURCE STATEMENT                                       ASM 0201 11.03 02/14/15
0                                   2198 *                                                                       13881021
                                    2199 *=2         TAMER ADCONS AND CONSTANTS            ID   ENV  DATA PR     13888021
                                    2200 *                                                                       13895021
 0017A4                             2201        DS    0F                                                         13902021
                                    2202 *                                                                       13909021
 0017A4 00000000                    2203 COSADR DC    A(0)                       ADDR OF COS                     13916021
                                    2204 *                                                                       13923021
 0017A8 0000012C                    2205 ADPRIM DC    A(PRIME)                   PRIME                           13930021
 0017AC 00000130                    2206 ADSERT DC    A(INSERT)                  INSERT                          13937021
 0017B0 00000134                    2207 ADSTAC DC  A(STATIC)               STATIC PTR                           13944021
 0017B4 00000138                    2208 ADTREL DC    A(TABREL)                  TABREL                          13951021
 0017B8 0000013C                    2209 ADTAMN DC    A(TAMEIN)                  TAMEIN                          13958021
                                    2210 *                                                                       13965021
 0017BC                             2211        DS    0F                                                         13972021
                             00014  2212 QLTABL EQU    TIB1-COS                                                  13979021
                             017BC  2213 QLTCON EQU   *                                                          13986021
 0017BC 00                          2214 PARQLT DC    X'00'                      PARAM FOR QLTABL                13993021
 0017BD 000014                      2215        DC    AL3(QLTABL)                                                14000021
 0017C0 00640020                    2216        DC    X'00640020'                100 BYTES                       14007021
                             0001C  2217 QNMTBL  EQU   TIB2-COS                                                  14014021
                             017C4  2218 QNMCON EQU   *                                                          14021021
 0017C4 0F                          2219 PARQNM DC    X'0F'                      PARAM FOR QNMTBL                14028021
 0017C5 00001C                      2220        DC    AL3(QNMTBL)                                                14035021
 0017C8 01000040                    2221        DC    X'01000040'                256 BYTES                       14042021
                             0001C  2222 P1BTBL EQU   TIB2-COS                                                   14049021
                             017CC  2223 P1BCON EQU   *                                                          14056021
 0017CC 00                          2224 PARP1B DC    X'00'                 1-BYTE CON                           14063021
 0017CD 00001C                      2225        DC    AL3(P1BTBL)                                                14070021
 0017D0 02000000                    2226        DC    X'02000000'                512 BYTES                       14077021
                             00024  2227 ENVTBL EQU  TIB3-COS                                                    14084021
                             017D4  2228 ENVCON EQU   *                                                          14091021
 0017D4 56                          2229 PARENV DC    X'56'                      PARAM FOR ENVTBL                14098021
 0017D5 000024                      2230        DC    AL3(ENVTBL)                                                14105021
 0017D8 026E0056                    2231        DC    X'026E0056'                450 BYTES  5 ENTRIES            14112021
                                    2232 *APPTBL EQU  TIB4-COS                                                   14119021
                                    2233 *APPCON EQU  *                                                          14126021
                                    2234 *PARAPP DC   X'42'                     PARAM FOR APPTBL                 14133021
                                    2235 *       DC   AL3(APPTBL)                                                14140021
                                    2236 *       DC   X'014A0042'               330 BYTES  5 ENTRIES             14147021
                             00034  2237 PNTABL EQU   TIB5-COS                                                   14154021
                             0003C  2238 PNQTBL EQU   TIB6-COS                                                   14161021
                             00044  2239 PIOTBL EQU   TIB7-COS                                                   14168021
                             017DC  2240 PIOCON EQU   *                                                          14175021
 0017DC 03                          2241 PARPIO DC    X'03'                      PARAM FOR PIOTBL                14182021
 0017DD 000044                      2242        DC    AL3(PIOTBL)                                                14189021
 0017E0 00360000                    2243        DC    X'00360000'                60 BYTES  20 ENTRIES            14196021
                             00034  2244 SATBL  EQU   TIB5-COS                                                   14203021
                             017E4  2245 SACON   EQU  *                                                          14210021
 0017E4 00                          2246 PARSA  DC    X'00'                      PARAM FOR SATBL                 14217021
 0017E5 000034                      2247        DC    AL3(SATBL)                                                 14224021
 0017E8 00800020                    2248        DC    X'00800020'           4-BYTE CON                           14231021
                             0003C  2249 SRATBL EQU   TIB6-COS                                                   14238021
                             017EC  2250 SRACON EQU   *                                                          14245021
 0017EC 00                          2251 PARSRA DC    X'00'                      PARAM FOR SRATBL                14252021
 0017ED 00003C                      2252        DC    AL3(SRATBL)                                                14259021
1PH1A     IKFCBL10                                                                                              PAGE   49
-  LOC  OBJECT CODE    ADDR1 ADDR2  STMT   SOURCE STATEMENT                                       ASM 0201 11.03 02/14/15
00017F0 00800020                    2253        DC    X'00800020'           4-BYTE CON                           14266021
                             0004C  2254 CKPTBL EQU   TIB8-COS                                                   14273021
                             017F4  2255 CKPCON EQU   *                                                          14280021
 0017F4 10                          2256 PARCKP   DC    X'10'               PARAM FOR CKPTBL                     14287021
 0017F5 00004C                      2257        DC    AL3(CKPTBL)                                                14294021
 0017F8 00500010                    2258          DC    X'00500010'         80 BYTES 5 ENTRIES                   14301021
                             00054  2259 OD2TBL EQU TIB9-COS                                                     14308021
                             017FC  2260 OD2CON EQU   *                                                          14315021
 0017FC 20                          2261 PAROD2 DC    X'20'                      PARAM FOR OD2TBL                14322021
 0017FD 000054                      2262        DC    AL3(OD2TBL)                                                14329021
 001800 01000064                    2263        DC    X'01000064'                256 BYTES                       14336021
                             0005C  2264 FNTBL  EQU   TIB10-COS                                                  14343021
                             01804  2265 FNTCON EQU   *                                                          14350021
 001804 30                          2266 PARFNT DC    X'30'                     PARAM FOR FNTBL                  14357021
 001805 00005C                      2267        DC    AL3(FNTBL)                                                 14364021
 001808 00F00030                    2268        DC    X'00F00030'               240 BYTES 5 ENTRIES              14371021
                             00064  2269 RCDTBL EQU   TIB11-COS                                                  14378021
                             0180C  2270 RCDCON EQU   *                                                          14385021
 00180C 22                          2271 PARRCD DC    X'22'                      PARAM FOR RCDTBL                14392021
 00180D 000064                      2272        DC    AL3(RCDTBL)                                                14399021
 001810 02A80022                    2273        DC    X'02A80022'                680 BYTES   20 ENTRIES          14406021
                             000B4  2274 SPNTBL EQU   TIB21-COS                                                  14413021
                             01814  2275 SPNCON EQU   *                                                          14420021
 001814 22                          2276 PARSPN DC    X'22'                      PARAM FOR SPNTBL                14427021
 001815 0000B4                      2277        DC    AL3(SPNTBL)                                                14434021
 001818 01540022                    2278        DC    X'01540022'                340 BYTES   10 ENTRIES          14441021
                             0010C  2279 TOTTBL EQU   TIB32-COS                                                  14448021
                             0181C  2280 TOTCON EQU   *                                                          14455021
 00181C 22                          2281 PARTOT DC    X'22'                 2-BYTE FIELD                         14462021
 00181D 00010C                      2282        DC    AL3(TOTTBL)                                                14469021
 001820 00880022                    2283        DC    X'00880022'               136 BYTES 4 ENTRIES              14476021
                             000DC  2284 KEYTAB EQU   TIB26-COS                  KEYTABLE                        14483021
                             01824  2285 KYCON  EQU   *                                                          14490021
 001824 00                          2286 PARKEY DC    X'00'                      PARAM FOR KEY TABLE             14497021
 001825 0000DC                      2287        DC    AL3(KEYTAB)                                                14504021
 001828 001E0000                    2288        DC    X'001E0000'                30 BYTES                        14511021
                             000E4  2289 INDXTB EQU   TIB27-COS                  INDEX TABLE                     14518021
                             0182C  2290 INDCON EQU   *                                                          14525021
 00182C 00                          2291 PARIND DC    X'00'                      PARAM FOR INDEX TABLE           14532021
 00182D 0000E4                      2292        DC    AL3(INDXTB)                                                14539021
 001830 001E0000                    2293        DC    X'001E0000'                30 BYTES                        14546021
1PH1A     IKFCBL10                                                                                              PAGE   50
-  LOC  OBJECT CODE    ADDR1 ADDR2  STMT   SOURCE STATEMENT                                       ASM 0201 11.03 02/14/15
0                                   2295 *                                                                       14560021
                                    2296 *                                                                       14567021
                                    2297 *=1    REPORT WRITER TAMER ADCONS AND CONSTANTS                         14574021
                                    2298 *                                                                       14581021
                             0006C  2299 RNMTBL EQU   TIB12-COS                                                  14588021
                             01834  2300 RNMCON EQU   *                                                          14595021
 001834 23                          2301 RNMTB  DC    X'23'                 2-BYTE FIELD                         14602021
 001835 00006C                      2302        DC    AL3(RNMTBL)                                                14609021
 001838 00D20023                    2303        DC    X'00D20023'               6 ENTRIES                        14616021
                             00074  2304 RWRTBL EQU   TIB13-COS                                                  14623021
                             0183C  2305 RWRCON EQU   *                                                          14630021
 00183C 30                          2306 RWRTB  DC    X'30'                     MAIN REPORT-WRITER TBL           14637021
 00183D 000074                      2307        DC    AL3(RWRTBL)                                                14644021
 001840 00C00030                    2308        DC    X'00C00030'               4 ENTRIES                        14651021
                             0007C  2309 CTLTBL EQU   TIB14-COS                                                  14658021
                             01844  2310 CTLCON EQU   *                                                          14665021
 001844 38                          2311 CTLTB  DC    X'38'                     TBL OF CTL-NMS                   14672021
 001845 00007C                      2312        DC    AL3(CTLTBL)                                                14679021
 001848 01500038                    2313        DC    X'01500038'               6 ENTRIES                        14686021
                             00084  2314 ROLTBL EQU   TIB15-COS                                                  14693021
                             0184C  2315 ROLCON EQU   *                                                          14700021
 00184C 10                          2316 ROLTB  DC    X'10'                 2-BYTE FIELD                         14707021
 00184D 000084                      2317        DC    AL3(ROLTBL)                                                14714021
 001850 01E00040                    2318        DC    X'01E00040'                10 ENTRIES                      14721021
                             0008C  2319 ROUTBL EQU   TIB16-COS                                                  14728021
                             01854  2320 ROUCON EQU   *                                                          14735021
 001854 22                          2321 ROUTB  DC    X'22'                      TABLE OF PROCEDURE NAMES        14742021
 001855 00008C                      2322        DC    AL3(ROUTBL)                FOR OVFLO,PAGE,ETC. ROUTINE     14749021
 001858 00880022                    2323        DC    X'00880022'                                                14756021
                             00094  2324 DETTBL EQU   TIB17-COS                                                  14763021
                             0185C  2325 DETCON EQU   *                                                          14770021
 00185C 26                          2326 DETTB  DC    X'26'                      TBL OF PROC NAMES               14777021
 00185D 000094                      2327        DC    AL3(DETTBL)                FOR DETAIL ROUTINES             14784021
 001860 017C0026                    2328        DC    X'017C0026'                10 ENTRIES                      14791021
                             0009C  2329 NPTTBL EQU   TIB18-COS                                                  14798021
                             01864  2330 NPTCON EQU   *                                                          14805021
 001864 08                          2331 NPTTB  DC    X'08'                 2-BYTE FIELD                         14812021
 001865 00009C                      2332        DC    AL3(NPTTBL)                                                14819021
 001868 00A00008                    2333        DC    X'00A00008'                20 ENTRIES                      14826021
                             000A4  2334 SUMTBL EQU   TIB19-COS                                                  14833021
                             0186C  2335 SUMCON EQU   *                                                          14840021
 00186C 2C                          2336 SUMTB  DC    X'2C'                      TABLE OF SUM COUNTERS           14847021
 00186D 0000A4                      2337        DC    AL3(SUMTBL)                                                14854021
 001870 01820040                    2338        DC    X'01820040'                10 ENTRIES                      14861021
                             000C4  2339 QALTBL EQU   TIB23-COS                                                  14868021
                             01874  2340 QALCON EQU   *                                                          14875021
 001874 50                          2341 QALTB  DC    X'50'                     WORK TBL FOR QUAL/SUBS/INDX      14882021
 001875 0000C4                      2342        DC    AL3(QALTBL)                                                14889021
 001878 00500050                    2343        DC    X'00500050'               1 ENTRY                          14896021
                             000BC  2344 SRCTBL EQU   TIB22-COS                                                  14903021
                             0187C  2345 SRCCON EQU   *                                                          14910021
 00187C 20                          2346 SRCTB  DC    X'20'                 2-BYTE FIELD                         14917021
 00187D 0000BC                      2347        DC    AL3(SRCTBL)                                                14924021
 001880 01400020                    2348        DC    X'01400020'               10 ENTRIES                       14931021
                             000EC  2349 SMSTBL EQU   TIB28-COS                                                  14938021
1PH1A     IKFCBL10                                                                                              PAGE   51
-  LOC  OBJECT CODE    ADDR1 ADDR2  STMT   SOURCE STATEMENT                                       ASM 0201 11.03 02/14/15
0                            01884  2350 SMSCON EQU   *                                                          14945021
 001884 38                          2351 SMSTB  DC    X'38'                     TBL OF SUM OPERANDS              14952021
 001885 0000EC                      2352        DC    AL3(SMSTBL)                                                14959021
 001888 01500038                    2353        DC    X'01500038'               6 ENTRIES                        14966021
                             00124  2354 SNMTBL EQU   TIB35-COS                                                  14973021
                             0188C  2355 SNMCON EQU   *                                                          14980021
 00188C 23                          2356 SNMTB  DC    X'23'                     TBL OF SUM NAMES                 14987021
 00188D 000124                      2357        DC    AL3(SNMTBL)                                                14994021
 001890 00D20023                    2358        DC    X'00D20023'               6 ENTRIES                        15001021
                             000CC  2359 GCNTBL EQU   TIB24-COS                                                  15008021
                             01894  2360 GCNCON EQU   *                                                          15015021
 001894 06                          2361 GCNTB  DC    X'06'                     TBL OF GCNS FOR BAD ABS LINE     15022021
 001895 0000CC                      2362        DC    AL3(GCNTBL)               THAT CONFLICT WITH PAGE LIM      15029021
 001898 001E0006                    2363        DC    X'001E0006'               10 ENTRIES                       15036021
                                    2364 *                                                                       15043021
1PH1A     IKFCBL10                                                                                              PAGE   52
-  LOC  OBJECT CODE    ADDR1 ADDR2  STMT   SOURCE STATEMENT                                       ASM 0201 11.03 02/14/15
0                                   2366 *=2         REPORT WRITER CONSTANTS                                     15057021
                                    2367 *                  AND WORK AREAS                                       15064021
 00189C F040404040404040            2368 CTLENT DC    3CL16'0'                   CTLTBL ENTRY                    15071021
 0018CC 000000000000                2369        DC    XL6'0'                6-BYTE FIELD                         15078021
                             0189C  2370 RWRENT EQU   CTLENT                    MAIN RPT-WTR TABLE ENTRY         15085021
 0018D2 0000000000000000            2371 DETENT DC    3XL16'0'                  DETAIL  TABLE ENTRY              15092021
                                    2372 *                                                                       15099021
 001902 00                          2373 LVCNT  DC    X'00'                 7-BYTE FIELD                         15106021
                                    2374 *CURRENT RD                                                             15113021
 001903 0000000000000000            2375 CURRD  DC    2XL16'0'                                                   15120021
                             01905  2376 CURRDN EQU   CURRD+2                                                    15127021
 001923 2207                        2377 GRPNCN DC    X'2207'                   GRP.IND CONSTANT                 15134021
 001925 C7D9D74BC9D5C4              2378        DC    C'GRP.IND'                                                 15141021
 00192C 0002                        2379 DUMENT DC    X'0002'                   DUMMY ENTRY                      15148021
 00192E D54B                        2380        DC    CL2'N.'                       FOR SMSTBL                   15155021
 001930                             2381 DRWDSP DS    0H                         RD-NAME DISP IN RWTBL FOR D     15162021
 001930 0000                        2382        DC    X'0000'                                                    15169021
 001932                             2383 RRWDSP DS    0H                                                         15176021
 001932 0000                        2384        DC    X'0000'                                                    15183021
 001934                             2385 RWGCNS DS    0H               * MUST STAY *  ACCUMULATOR FOR GCNS       15190021
 001934 0000                        2386        DC    X'0000'          * TOGETHER  *  USED FOR RW ROUTINES       15197021
 001938                             2387 SVJA   DS    F                         SAVE JA IN RDGCN ROUTINE         15204021
 00193C 0000                        2388 DETSAV DC    H'0'                      DISPL INTO DETTBL FOR SRCTBL     15211021
 00193E 0000                        2389 SVRDCN DC    X'0000'                    SV RD CDN                       15218021
 001940 0000                        2390 CGCNSAV  DC    X'0000'             SAVE CURGCN                          15225021
                                    2391 *                                                                       15232021
                                    2392 *CURRENT 01 CLAUSE                                                      15239021
 001942                             2393 CUR01  DS    0H                                                         15246021
 001942 00                          2394 LN01   DC    X'00'                      LINE CLAUSE 00-NEXT PAGE        15253021
 001943 0000000000000000            2395        DC    2XL10'0'                   01-INTEGER 02-PLUS INTEGER      15260021
 001957 00
 001958 0000                        2396 LINBI  DC    H'0'                       LINE INTEGER                    15267021
 00195A 0000                        2397 LPINBI DC    H'0'                       SAVE LIN +INT AS BINARY NO      15274021
 00195C 00                          2398 NG01   DC    X'00'                      NXT-GP CLAUSE 00- NEXT PAGE     15281021
 00195D 0000000000000000            2399        DC    2XL10'0'                   01-INTEGER 02-PLUS INTEGER      15288021
 001971 00
 001972 0000                        2400 NPINBI DC    H'0'                       SAVE NXTGP+INT AS BINARY NO     15295021
 001974                             2401        DS    0F                                                         15302021
 001974 0000                        2402 TYPECD DC    X'0000'                                                    15309021
                                    2403 *RH          X'80'                                                      15316021
                                    2404 *RF          X'40'                                                      15323021
                                    2405 *PH          X'20'                                                      15330021
                                    2406 *PF          X'10'                                                      15337021
                                    2407 *CH          X'08'                                                      15344021
                                    2408 *CF          X'04'                                                      15351021
                                    2409 *DE          X'02'                                                      15358021
                                    2410 *CHF         X'0080'                    CTL HDG FINAL                   15365021
                                    2411 *CFF         X'0040'                    CTL FTG FINAL                   15372021
                                    2412 *                                                                       15379021
                                    2413 *CURRENT 02 CLAUSE                                                      15386021
 001976                             2414 CUR02  DS    0H                                                         15393021
 001976 00                          2415 GPIND  DC    X'00'                      80-GPIND                        15400021
                             01976  2416 TP02   EQU   GPIND                      40-SOURCE,20-SUM,10-VALUE       15407021
 001977 0000000000000000            2417 GNM02E DC    XL8'0'                     E.NNNN                          15414021
 00197F 0000000000000000            2418 GNM02S DC    XL8'0'                     S.NNNN                          15421021
1PH1A     IKFCBL10                                                                                              PAGE   53
-  LOC  OBJECT CODE    ADDR1 ADDR2  STMT   SOURCE STATEMENT                                       ASM 0201 11.03 02/14/15
0001987 0000000000000000            2419 VAL02  DC    7XL16'0'                                                   15428021
 0019F7 0000000000000000            2420        DC    XL10'0'                                                    15435021
                             01987  2421 SRCNM  EQU   VAL02                                                      15442021
                                    2422 *                                                                       15449021
 001A01 32040200052C                2423 PRAMP  DC    X'32040200052C'            MAX LINES                       15456021
 001A07                             2424        DS    CL14                                                       15463021
 001A15 320301001C                  2425 PRAMH  DC    X'320301001C'              1ST HDG                         15470021
 001A1A                             2426        DS    CL15                                                       15477021
 001A29 320301001C                  2427 PRAMD  DC    X'320301001C'              1ST DET                         15484021
 001A2E                             2428        DS    CL15                                                       15491021
 001A3D 32040200048C                2429 PRAME  DC    X'32040200048C'            LST DET                         15498021
 001A43                             2430        DS    CL14                                                       15505021
 001A51 32040200048C                2431 PRAMF  DC    X'32040200048C'            LST FTG                         15512021
 001A57                             2432        DS    CL14                                                       15519021
 001A65                             2433 PRMDM1 DS    CL20                  VALUE FIELD CON AND AREA             15526021
                                    2434 *                                                                       15533021
                                    2435 *STANDARD ASSUMPTIONS FOR PAGE CLAUSE                                   15540021
 001A79 320607009999999C            2436 PRAMPS DC    X'320607009999999C'        INTEGER-1 HIGH VALUE            15547021
 001A81 320301001C                  2437 PRAMHS DC    X'320301001C'             INTEGER-2 VALUE 1                15554021
 001A86                             2438 INT1BN DS    CL2                       PAGE LIMIT IN BINARY             15561021
 001A88                             2439 INT2BN DS    CL2                       HEADING    IN BINARY             15568021
 001A8A                             2440 INT3BN DS    CL2                       1ST DETAIL IN BINARY             15575021
 001A8C                             2441 INT4BN DS    CL2                       LST DETAIL IN BINARY             15582021
 001A8E                             2442 INT5BN DS    CL2                       FOOTING    IN BINARY             15589021
 001A90 0000                        2443 SVLNBI DC    X'0000'                   SAVE PREVIOUS ABS LINE           15596021
                                    2444 *                                                                       15603021
                                    2445 *TABLE ENTRY MUST STAY TOGETHER                                         15610021
 001A92 0000000000000000            2446 RWDN   DC    2XL16'0'                   DATA-NM FOLL LVL *30 FOR 01     15617021
                             01A94  2447 RWDN1  EQU   RWDN+2                     30 CHARS FOR DETAIL-NM TBL      15624021
 001AB2 0000                        2448 RWDNPR DC    X'0000'                    PAR  NAME                       15631021
 001AB4 00                          2449 ORGFLG DC    X'00'                      00 = NO SVE                     15638021
                                    2450 *SPECIAL REPORT WRITER VERBS                                            15645021
                                    2451 *RCALL DC    X'444F'                                                    15652021
 001AB5 4450                        2452 RSVE0  DC    X'4450'                    RPT-SAVE-0                      15659021
 001AB7 4451                        2453 RSVE1  DC    X'4451'                    RPT-SAVE-1                      15666021
 001AB9 4452                        2454 RSVE2  DC    X'4452'                    RPT-SAVE-2                      15673021
 001ABB 4453                        2455 RSVE3  DC    X'4453'                    RPT-SAVE-3                      15680021
 001ABD 4454                        2456 RSVE4  DC    X'4454'                    RPT-SAVE-4                      15687021
 001ABF 4455                        2457 RSVE5  DC    X'4455'                    RPT-SAVE-5                      15694021
 001AC1 4456                        2458 RRTN0  DC    X'4456'                    RPT-RETURN-0                    15701021
 001AC3 4457                        2459 RRTN1  DC    X'4457'                    RPT-RETURN-1                    15708021
 001AC5 4458                        2460 RRTN2  DC    X'4458'                    RPT-RETURN-2                    15715021
 001AC7 4459                        2461 RRTN3  DC    X'4459'                    RPT-RETURN-3                    15722021
 001AC9 445A                        2462 RRTN4  DC    X'445A'                    RPT-RETURN-4                    15729021
 001ACB 445B                        2463 RRTN5  DC    X'445B'                    RPT-RETURN-5                    15736021
 001ACD 4433                        2464 RNOP   DC    X'4433'                    NOP                             15743021
                                    2465 *GENERATED NAMES FOR STANDARD ROUTINES                                  15750021
                                    2466 *                                                                       15757021
 001ACF 0000                        2467 GNRH   DC    X'0000'               15 2-BYTE CON FOLLOW                 15764021
 001AD1 0000                        2468 GNRF   DC    X'0000'                                                    15771021
 001AD3 0000                        2469 GNPH   DC    X'0000'                                                    15778021
 001AD5 0000                        2470 GNPF   DC    X'0000'                                                    15785021
 001AD7 0000                        2471 GNFRST DC    X'0000'                                                    15792021
 001AD9 0000                        2472 GNLAST DC    X'0000'                                                    15799021
 001ADB 0000                        2473 GNWR   DC    X'0000'                                                    15806021
1PH1A     IKFCBL10                                                                                              PAGE   54
-  LOC  OBJECT CODE    ADDR1 ADDR2  STMT   SOURCE STATEMENT                                       ASM 0201 11.03 02/14/15
0001ADD 0000                        2474 GNWR1  DC    X'0000'                   GN FOR SKIP TO CHANNEL 1         15813021
 001ADF 0000                        2475 GNWR2  DC    X'0000'                   GN FOR LAST PART OF WRT-ROUT     15820021
 001AE1 0000                        2476 GNCTLB DC    X'0000'                                                    15827021
 001AE3 0000                        2477 GNROL  DC    X'0000'                                                    15834021
 001AE5 0000                        2478 GNRST  DC    X'0000'                                                    15841021
 001AE7 0000                        2479 GNRST1 DC    X'0000'                                                    15848021
 001AE9 0000                        2480 GNCSUM DC    X'0000'                                                    15855021
 001AEB 0000                        2481 GNUSUM DC    X'0000'                                                    15862021
 001AED 0000                        2482 GNCHF  DC    X'0000'                                                    15869021
 001AEF 0000                        2483 GNCFF  DC    X'0000'                                                    15876021
 001AF1 0000                        2484 GNPH1  DC    X'0000'                    PH ENTRY FROM RH                15883021
 001AF3 0000                        2485 GNROL1 DC    X'0000'                    ENTRY FOR LAST CTL BRK          15890021
 001AF5 0000                        2486 GNINT  DC    X'0000'                   GN FOR INT-ROUT                  15897021
 001AF7 0000                        2487 GNALS  DC    X'0000'                   GN FOR ABS LIN SPACE ROUT        15904021
 001AF9 0000                        2488 GNRLS  DC    X'0000'                   GN FOR REL LIN SPACE ROUT        15911021
 001AFB 0000                        2489 GNSAV  DC    X'0000'                   GN FOR SAV OF CUR CTL-NMS        15918021
 001AFD 0000                        2490 GNRET  DC    X'0000'                   GN FOR RETURN CUR CTL-NMS        15925021
                                    2491 *      CODES FOR BLOCK ID'S                                             15932021
 001AFF D9D7C8                      2492 RHCOD  DC    C'RPH'                     RPT HEADING                     15939021
 001B02 D7C7C8                      2493 PHCOD  DC    C'PGH'                     PGE HEADING                     15946021
 001B05 D7C7C6                      2494 PFCOD  DC    C'PGF'                     PAGE FOOTING                    15953021
 001B08 C4C5E3                      2495 DECOD  DC    C'DET'                     DETAIL                          15960021
 001B0B D9D7C6                      2496 RFCOD  DC    C'RPF'                     REPORT FOOTING                  15967021
 001B0E E6D9E3                      2497 WRCOD  DC    C'WRT'                                                     15974021
 001B11 C3E3C2                      2498 CTBCOD DC   C'CTB'                      CONTROL BREAK                   15981021
 001B14 C3E2D4                      2499 CSMCOD DC   C'CSM'                      COMMON SUM                      15988021
 001B17 E4E2D4                      2500 USMCOD DC    C'USM'                     UPON SUM                        15995021
 001B1A D9E2E3                      2501 RSTCOD DC    C'RST'                     RESET                           16002021
 001B1D F1E2E3                      2502 FSTCOD DC    C'1ST'                     FIRST                           16009021
 001B20 D3E2E3                      2503 LSTCOD DC    C'LST'                     LAST                            16016021
 001B23 C3E3C8                      2504 CHCOD  DC    C'CTH'                     CONTROL HEADING                 16023021
 001B26 C3E3C6                      2505 CFCOD  DC    C'CTF'                     CONTROL FOOTING                 16030021
 001B29 D9D6D3                      2506 ROLCOD DC    C'ROL'                     ROLL                            16037021
 001B2C C3C8C6                      2507 CHFCOD DC    C'CHF'                     CTL-HDG FINAL                   16044021
 001B2F C3C6C6                      2508 CFFCOD DC    C'CFF'                     CTL-FTG FINAL                   16051021
 001B32 C9D5E3                      2509 INTCOD DC    C'INT'                    INITIATE ROUTINE                 16058021
 001B35 C1D3E2                      2510 ALSCOD DC    C'ALS'                    ABS LIN SPACE ROUT               16065021
 001B38 D9D3E2                      2511 RLSCOD DC    C'RLS'                    REL LIN SPACE ROUT               16072021
 001B3B E2C1E5                      2512 SAVCOD DC    C'SAV'                    SAVE CTL-NM ROUT                 16079021
 001B3E D9C5E3                      2513 RETCOD DC    C'RET'                    RETURN CTL-NM ROUT               16086021
                                    2514 *                                                                       16093021
                                    2515 *                                                                       16100021
                                    2516 *                                                                       16107021
 001B41 230C                        2517 PAGCN  DC    X'230C'                   CONSTANT FOR                     16114021
 001B43 D7C1C7C560C3D6E4            2518        DC    C'PAGE-COUNTER'             PAGE-COUNTER                   16121021
                                    2519 *                                                                       16128021
 001B4F 230C                        2520 LINCN  DC    X'230C'                   CONSTANT FOR                     16135021
 001B51 D3C9D5C560C3D6E4            2521        DC    C'LINE-COUNTER'             LINE-COUNTER                   16142021
                                    2522 *                                                                       16149021
 001B5D 230C                        2523 PRSWCN DC    X'230C'               AREA                                 16156021
 001B5F D7D9C9D5E360E2E6            2524        DC    C'PRINT-SWITCH'                                            16163021
 001B6B 320301001C                  2525 ICONE  DC    X'320301001C'                                              16170021
 001B70 3401F2                      2526 ICTWO  DC    X'3401F2'                  TWO                             16177021
 001B73 0000000000000000            2527 LNVAL  DC    2XL10'0'                                                   16184021
                                    2528 *RSDUP LD TEXT AREA                                                     16191021
1PH1A     IKFCBL10                                                                                              PAGE   55
-  LOC  OBJECT CODE    ADDR1 ADDR2  STMT   SOURCE STATEMENT                                       ASM 0201 11.03 02/14/15
0001B88                             2529        DS    0F                                                         16198021
 001B88 03                          2530 DUPTXT DC    X'03'                                                      16205021
 001B89 00                          2531 DTXTCT DC    X'00'                                                      16212021
 001B8A 38                          2532        DC    X'38'                                                      16219021
 001B8B 0000                        2533 DUPCDN DC    X'0000'                                                    16226021
 001B8D 05                          2534        DC    X'05'                                                      16233021
 001B8E 60                          2535 DUPNM  DC    C'-'                                                       16240021
 001B8F 00000000                    2536        DC    X'00000000'                                                16247021
 001B93 00                          2537 ORGCT  DC    X'00'                                                      16254021
 001B94 0000000000000000            2538 ORGNM  DC    2XL16'0'                                                   16261021
 001BB4 000000                      2539 QPTR   DC    X'000000'                  THIS + LAST 32 USED IN QNM-     16268021
                                    2540 * GROUP INDICATE  GRP.IND                                               16275021
 001BB7 03                          2541 GRPIND DC    X'03'                                                      16282021
 001BB8 16                          2542        DC    X'16'                                                      16289021
 001BB9 01                          2543        DC    X'01'                                                      16296021
 001BBA 0000                        2544 GPCDN  DC    X'0000'                                                    16303021
 001BBC 00000000                    2545        DC    X'00000000'                                                16310021
 001BC0 000000                      2546        DC    X'000000'                                                  16317021
 001BC3 07                          2547 GPCON  DC    X'07'                                                      16324021
 001BC4 C7D9D74BC9D5C4              2548        DC    C'GRP.IND'                                                 16331021
 001BCB 00000000                    2549        DC    X'00000000'                                                16338021
                                    2550 *                                                                       16345021
                                    2551 * UNIQUE GRP.NNN  AS MANY AS NEEDED                                     16352021
 001BCF 03                          2552 GRPNNN DC    X'03'                                                      16359021
 001BD0 18                          2553        DC    X'18'                                                      16366021
 001BD1 02                          2554        DC    X'02'                                                      16373021
 001BD2 0000                        2555 GPNCDN DC    X'0000'                                                    16380021
 001BD4 2820                        2556        DC    X'2820'                                                    16387021
 001BD6 0000000000                  2557        DC    X'0000000000'                                              16394021
 001BDB 07                          2558 GPNCON DC    X'07'                                                      16401021
 001BDC C7D74BD5D5D5D5              2559 GPNAME DC    C'GP.NNNN'                                                 16408021
                                    2560 *                                                                       16415021
 001BE3 01E7                        2561        DC    X'01E7'                                                    16422021
 001BE5 01F0                        2562        DC    X'01F0'                                                    16429021
 001BE7 0000                        2563        DC    X'0000'                                                    16436021
                                    2564 *                                                                       16443021
                                    2565 *N.NNNN -NUMBER OF LINES                                                16450021
 001BE9 03                          2566 NPLDTX DC    X'03'                                                      16457021
 001BEA 1C01                        2567        DC    X'1C01'                                                    16464021
 001BEC 0000                        2568 NPTCN  DC    X'0000'                                                    16471021
 001BEE 1220                        2569        DC    X'1220'                    VAL NUM LIT,USAGE-COMP,PIC      16478021
 001BF0 0000000000                  2570        DC    X'0000000000'                                              16485021
 001BF5 06                          2571        DC    X'06'                                                      16492021
 001BF6 D54BD5D5D5D5                2572 NPTNM  DC    C'N.NNNN'                                                  16499021
 001BFC 03E2F9F9                    2573        DC    X'03E2F9F9'                PICT S99                        16506021
 001C00 040200                      2574        DC    X'040200'                                                  16513021
 001C03 000C                        2575 NPTV   DC    X'000C'                                                    16520021
 001C05 0000                        2576        DC    X'0000'                                                    16527021
                                    2577 *                                                                       16534021
 001C08                             2578 NPTEMP DS    H                                                          16541021
 001C0A 000000000000
 001C10 0000000000000000            2579 NPLDVL DC    D'0'                       USED FOR CVD                    16548021
                             01C16  2580 NPLDV1 EQU   NPLDVL+6                   LINES COUNT IN DECIMAL          16555021
 001C18 0000                        2581 NGPCNT DC    H'0'                                                       16562021
 001C1A 0000
1PH1A     IKFCBL10                                                                                              PAGE   56
-  LOC  OBJECT CODE    ADDR1 ADDR2  STMT   SOURCE STATEMENT                                       ASM 0201 11.03 02/14/15
0001C1C 00000000                    2582 PLINNM DC    F'0'                                                       16569021
 001C20 0000                        2583        DC    H'0'                                                       16576021
 001C22 0000                        2584 LPCNT  DC    H'0'                                                       16583021
                                    2585 *                                                                       16590021
 001C24 23                          2586 EPTIC  DC    X'23'                                                      16597021
 001C25 06                          2587 EPTLD  DC    X'06'                                                      16604021
 001C26 C54B                        2588 EPTID  DC    C'E.'                                                      16611021
 001C28 00000000                    2589 EPTID1 DC    X'00000000'                                                16618021
 001C2C 00000C                      2590 EPTVAL DC    X'00000C'                                                  16625021
                                    2591 *                                                                       16632021
 001C2F 23                          2592 NPTIC  DC    X'23'                                                      16639021
 001C30 06                          2593 NPTLD  DC    X'06'                                                      16646021
 001C31 D54B                        2594 NPTID  DC    C'N.'                                                      16653021
 001C33 00000000                    2595 NPTID1 DC    X'00000000'                                                16660021
 001C37 00000C                      2596 NPTVAL DC    X'00000C'                                                  16667021
                                    2597 *                                                                       16674021
 001C3A 23                          2598 SPTIC  DC    X'23'                                                      16681021
 001C3B 06                          2599 SPTLD  DC    X'06'                                                      16688021
 001C3C E24B                        2600 SPTID  DC    C'S.'                                                      16695021
 001C3E 00000000                    2601 SPTID1 DC    X'00000000'                                                16702021
 001C42 00000C                      2602 SPTVAL DC    X'00000C'                                                  16709021
                                    2603 *                                                                       16716021
 001C45 23                          2604 GRPIC  DC    X'23'                                                      16723021
 001C46 07                          2605 GRPLD  DC    X'07'                                                      16730021
 001C47 C7D74B                      2606 GRPID  DC    C'GP.'                                                     16737021
 001C4A 00000000                    2607 GRPID1 DC    X'00000000'                                                16744021
 001C4E 00000C                      2608 GRPVAL DC    X'00000C'                                                  16751021
                                    2609 *                                                                       16758021
                                    2610 *                                                                       16765021
 001C52                             2611        DS    0H                                                         16772021
 001C52 00                          2612        DC    X'00'                                                      16779021
 001C53 88                          2613 GPTID  DC    X'88'                      USED TO GEN G.NNNN AT DEF       16786021
 001C54 0000                        2614 GPTID1 DC    X'0000'                                                    16793021
                                    2615 *      REPORT CALL AREA                                                 16800021
 001C56 05                          2616 PUTCT3 DC    X'05'                                                      16807021
 001C57 444F                        2617 RCALL  DC    X'444F'                                                    16814021
 001C59 AA                          2618        DC    X'AA'                                                      16821021
 001C5A 0000                        2619 RCGN   DC    X'0000'                                                    16828021
                                    2620 *      REPORT GO AREA                                                   16835021
 001C5C 07                          2621 PUTCT4 DC   X'07'                                                       16842021
 001C5D 4411                        2622 GOGEN  DC    X'4411'                                                    16849021
 001C5F 549B                        2623        DC    X'549B'                                                    16856021
 001C61 AA                          2624 GOGNA  DC    X'AA'                                                      16863021
 001C62 0000                        2625 GOGN   DC    X'0000'                                                    16870021
                                    2626 *      CODING BLOCK ID FOR FILE 4                                       16877021
 001C64 0A                          2627 PUTCT6   DC    X'0A'                    COUNT FOR FILE 4 PUTN           16884021
 001C65 37                          2628 TPCODE   DC    X'37'                    LISTING A-TEXT CODE             16891021
 001C66 08                          2629 TPID     DC    X'08'                    XXX-ROUT,XXX IS DET RPH ETC     16898021
 001C67 F04040                      2630 TPCOD  DC    CL3'0'                                                     16905021
 001C6A 60D9D6E4E3                  2631        DC    C'-ROUT'                                                   16912021
                                    2632 *      ELEMENTARY LEVEL CODE ID FOR FILE 4                              16919021
 001C6F 0A                          2633 PUTCT8   DC    X'0A'               COUNT FOR FILE 4 PUTN                16926021
 001C70 37                          2634 ELTXTCD  DC    X'37'                    LISTING A-TEXT CODE             16933021
 001C71 08                          2635 ELTXT    DC    X'08'                    IDENTIFIES CODING FOR 02 LE     16940021
 001C72 4040F0F240D3E5D3            2636        DC    C'  02 LVL'                                                16947021
1PH1A     IKFCBL10                                                                                              PAGE   57
-  LOC  OBJECT CODE    ADDR1 ADDR2  STMT   SOURCE STATEMENT                                       ASM 0201 11.03 02/14/15
0                                   2637 *                                                                       16954021
 001C7A 23                          2638 XPXOUT DC    X'23'                                                      16961021
 001C7B 0000000000000000            2639        DC    XL8'0'                                                     16968021
                                    2640 *                                                                       16975021
 001C83 88                          2641 PAROUT DC    X'88'                      GN PAR NM OUT-PUT AREA          16982021
 001C84 0000                        2642        DC    X'0000'                                                    16989021
                                    2643 *                                                                       16996021
                                    2644 *WORK AREA AND CONSTS FOR MANIPULATING SUM ROLL AND CONTROLS TABLES     17003021
 001C86 00                          2645 CTLV01 DC    X'00'                      LEVEL FROM 01 TYPE CTL          17010021
 001C87 00                          2646 RSTLVL DC    X'00'                     RESET LEVEL                      17017021
 001C88                             2647 JPCKRN DS    F                          SAVE 14 FOR CHECK RNMTBL        17024021
 001C8C                             2648 JPCKDE DS    F                          SAVE 14 FOR CHECK DETTBL        17031021
 001C90                             2649 JPGTLV DS    F                          SAVE 14 LVL IC GEN ROUT         17038021
 001C94                             2650 JPQLSV DS    F                          SV JP IN QUAL NM ROUTINE        17045021
 001C98                             2651 JPROLS DS    F                                                          17052021
 001C9C                             2652 JASMSV DS    F                                                          17059021
 001CA0                             2653 JBSMSV DS    F                                                          17066021
                                    2654 *  THE FOLLOWING SHOULD ALWAYS BE ON A HALFWORD BOUNDRY                 17073021
 001CA4 0000                        2655 SMOPSV DC    X'0000'                    SAVE SUM OPND PTR-BLD ROLL      17080021
 001CA6 0000                        2656 CHLPL1 DC    X'0000'                    SAVE PAR-NM OF HDNG LVL +1      17087021
 001CA8 0000                        2657 CFLMI1 DC    X'0000'                    SAVE PAR-NM OF FTNG LVL -1      17094021
 001CAA 0000                        2658 GNCH   DC    X'0000'                    CTL HDG THIS LEVEL              17101021
 001CAC 0000                        2659 GNCFH  DC    X'0000'                    GNCF HIGHEST LVL                17108021
 001CAE 0000                        2660 GNCHM  DC    X'0000'                    CTL HDNG GN FOR MAJOR           17115021
 001CB0 0000                        2661 GNNUM  DC    X'0000'                    GN FOR GNPSCK ROUTINE           17122021
 001CB2 0000                        2662 GCOUNT DC    X'0000'                   GROUP INDICATE COUNTER           17129021
 001CB4 0000                        2663 SVGNM1 DC    X'0000'                                                    17136021
 001CB6 0000                        2664 SVGNM2 DC    X'0000'                                                    17143021
 001CB8 4472                        2665 WRITER DC    X'4472'                   RERUN WRITE CODE                 17150021
 001CBC                             2666 JASV   DS    F                          SAVE JA SEARCH ROLL             17157021
 001CC0                             2667 JBSV   DS    F                          SAVE JA SEARCH ROLL             17164021
                                    2668 *   JACTS AND JBCTS MUST REMAIN TOGETHER *************************      17171021
 001CC4                             2669 JACTS  DS    F                          START OF CTLTBL                 17178021
 001CC8                             2670 JBCTS  DS    F                          END OF CTLTBL                   17185021
                                    2671 ***************                          *************************      17192021
 001CCC                             2672 JACTS1 DS    F                          JA WORK AREA FOR UNUSED CTL     17199021
 001CD0                             2673 JASCSS DS    F                          SV JA SUM TBL COM SUM ROUT      17206021
 001CD4                             2674 JBSCSS DS    F                          SAVE JB SUM TBL COM SUM ROU     17213021
 001CD8                             2675 JAGRSV DS    F                          SAVE PTR TO ENT OF ROLL TBL     17220021
 001CDC 0000000000                  2676 SMCSSV DC    XL5'0'                     SV SM NM PTR COM SUM ROUT       17227021
                                    2677 * ABSERR AND ABERCN MUST REMAIN TOGETHER***************************     17234021
                                    2678 *                                                                       17241021
                                    2679 * 1ST 4 BYTES ARE THE MESSAGE ADDRESS                                   17248021
                                    2680 * LAST 2 BYTES ARE GCN FOR CARD CONTAINING ERROR                        17255021
                                    2681 *                                                                       17262021
 001CE4                             2682 ABSERR DS    F                         BUFFER FOR GCNTBL                17269021
 001CE8                             2683 ABERCN DS    H                         GCN                              17276021
                                    2684 *                                                                       17283021
 001CEC                             2685 JPGTOS DS    F                          SV JP-GET OPND ROUTINE          17290021
 001CF0 FFFF                        2686 FFFF   DC    X'FFFF'                                                    17297021
 001CF2 0000                        2687 JDHW   DC    H'0'                       HW TO SV JD ON COM SUM ROUT     17304021
 001CF4 0000                        2688 HWPTR  DC    H'0'                       USM ROUT DET DISPL PER RD       17311021
 001CF6                             2689 RWLOD2 DS    1H                                                         17318021
 001CF8 00                          2690 SVCTLV DC    X'00'                      LEVEL OF CTL FOR RESET          17325021
 001CF9 7D                          2691 SNGLQ2 DC    X'7D'                                                      17332021
1PH1A     IKFCBL10                                                                                              PAGE   58
-  LOC  OBJECT CODE    ADDR1 ADDR2  STMT   SOURCE STATEMENT                                       ASM 0201 11.03 02/14/15
0001CFC                             2692 SPTRA  DS    F                          RST ROUT SUMTBL                 17339021
 001D00                             2693 SPTRB  DS    F                          RST ROUT SUMTBL                 17346021
 001D04 32040300                    2694 SCTLIC DC    X'32040300'                CTLVL IN IC TEXT                17353021
 001D08 0000                        2695        DC    X'0000'                    MUST FOLLOW SCTLIC              17360021
 001D0C                             2696 JARST  DS    F                          RST ROUT CTLTBL                 17367021
 001D10                             2697 JBRST  DS    F                          RST ROUT CTLTBL                 17374021
 001D14                             2698 RNPTR  DS    H                                                          17381021
 001D16 0000                        2699 QXPTR  DC    H'0'                                                       17388021
 001D18 0000                        2700 SNMPTR DC    H'0'                       ROLL ROUT                       17395021
 001D1A                             2701 NXTSUM DS    H                          PTR TO NEXT SUM ENT             17402021
 001D1C 00                          2702 PIC02  DC    X'00'                      PICTURE SAVED FROM 02           17409021
 001D1D F9F9F9F9F9F9F9F9            2703        DC    3C'9999999999'             PICTURE                         17416021
 001D3B F04040                      2704 SUMNML DC    CL3'0'                     LEVEL NUMBER  1                 17423021
 001D3E F040                        2705 SUMNM1 DC    CL2'0'                       SUM-NAME    2                 17430021
 001D40 F0404040                    2706 SUMNM2 DC    CL4'0'                     SUN-NAME FOR ROLTBL OPRAND      17437021
 001D44 00000000                    2707 RNSTRT DC    F'0'                       SAVE AREA FOR CALC POINTERS     17444021
 001D48 00000000                    2708 RNINST DC    F'0'                       SAVE AREA FOR CALC POINTERS     17451021
 001D4C 0000                        2709 CELL1  DC    H'0'                       PTR FOR SUMTB1                  17458021
 001D4E 0000                        2710 CELL2  DC    H'0'                       PTR FOR SUMTB2                  17465021
 001D50 0000                        2711 CTSVDP DC    H'0'                      SAVE LAST VALID CTLTBL DISPL     17472021
 001D52 0000                        2712 CELL3  DC    H'0'                       PTR FOR SUMTB3-4-5              17479021
 001D54 0000                        2713 RWLREC DC    H'0'                      SIZE OF 01 FOR REPORT            17486021
 001D56 0000                        2714 CTSDSP DC    H'0'                                                       17493021
 001D58 270F                        2715 K9999  DC    X'270F'                   BINARY CONSTANT OF 9999          17500021
 001D5A 0000                        2716 SAVDSP DC    X'0000'                                                    17507021
 001D5C 0000                        2717 PRVENT DC    H'0'                                                       17514021
 001D60                             2718 JCSAVE DS    F                          FULL WD IN ROLL ROUT ELSE H     17521021
 001D64                             2719 JDSAVE DS    F                          SAVE JD ROLL ROUT               17528021
 001D68 0000000000000000            2720 UPNSAV DC    3F'0'                      SAVE AREA FOR GEN UPON SUM      17535021
                             01D72  2721 UPNCLL EQU   UPNSAV+10                  UPON PTR CEL USE ONLY           17542021
 001D74 00000000                    2722 SM45SV DC    F'0'                       SAVE LINK REG FOR SUM45,SUM     17549021
 001D78 0000                        2723 LSTSUM DC    H'0'                       PTR TO LAST SUMTBL ENTRY        17556021
 001D7A C940                        2724 SIDMOV DC    X'C940'                          CARD IDENT FOR            17563021
 001D7C                             2725 SIDEWK  DS   CL80                      INSER0 CARD WORKAREA             17570021
 001DCC 000000000000                2726 NMCRD4 DC    3H'0'                     NUMBER OF NEW MAIKN CARD         17577021
 001DD4                             2727 PSA    DS    F                                                          17584021
 001DD8                             2728 PSAVE    DS   F                                                         17591021
                             00FB0  2729 ADPR01  EQU  DATDV3                                                     17598021
                             00FA8  2730 ADSPRT EQU   DATDV4                                                     17605021
                             00FAC  2731 ADROLL EQU   DATDV5                                                     17612021
                             00FD4  2732 ADUNLV  EQU  GETADR                                                     17619021
                             00FD0  2733 ADSCN  EQU  DATDIV                                                      17626021
 001DDC                             2734 SVCAL5 DS    F                                                          17633021
 001DE0                             2735 SVCAL6 DS    F                                                          17640021
 001DE4 0000AC80                    2736 ADFLCL DC    A(FILCOQ)                                                  17647021
 001DE8 0000AB58                    2737 ADCON2 DC    A(LEVENQ)                                                  17654021
 001DEC 0D                          2738 SPNCN    DC    AL1(13)                                                  17661021
 001DED E2D7C5C3C9C1D360            2739          DC    C'SPECIAL-NAMES'    CONSTANT OF 13SPECIAL-NAMES          17668021
 001DFC                             2740 SVCAL2 DS    1F                                                         17675021
 001E00 50F0 CE6C      01DFC        2741 LEVENC ST    JQ,SVCAL2                                                  17682021
 001E04 58F0 CE58      01DE8        2742        L     JQ,ADCON2                                                  17689021
 001E08 50F0 DA18      00A48        2743        ST    JQ,LNKR15                                                  17696021
                             01E0C  2744        USING *,JQ                                                       17703021
 001E0C 07FF                        2745        BCR   UNCOND,JQ             LEVENQ - LIT TO LEV NO               17710021
                                    2746        DROP JQ                                                          17717021
1PH1A     IKFCBL10                                                                                              PAGE   59
-  LOC  OBJECT CODE    ADDR1 ADDR2  STMT   SOURCE STATEMENT                                       ASM 0201 11.03 02/14/15
0                                   2747 **********************                                                  17724021
                             01E0E  2748 SASCN  EQU   *                                                          17731021
                             01E0E  2749 SDSCN  EQU   *                                                          17738021
 001E0E 58F0 CE54      01DE4        2750        L     JQ,ADFLCL                                                  17745021
 001E12 50F0 DA18      00A48        2751        ST    JQ,LNKR15                                                  17752021
                             0AC80  2752        USING FILCOQ,JQ                                                  17759021
 001E16 47F0 F2DA      0AF5A        2753        B     SADSNQ                SA + SD SCAN                         17766021
                                    2754        DROP  JQ                                                         17773021
                                    2755 *                                                                       17780021
 001E1A 0000                        2756 NXASUM DC    H'0'                       SIZE OF LAST SUMTBL ENTRY       17787021
                                    2757 *                                                                       17794021
 001E1C 50F0 D9B8      009E8        2758 CQLFNM ST      JQ,SVCALP                SAVE R15                        17801021
 001E20 58F0 D9BC      009EC        2759        L     JQ,ADPROM                  ADDR OF PN & QN SCAN            17808021
 001E24 50F0 DA18      00A48        2760        ST    JQ,LNKR15                  SAVE IN KINK REG AREA           17815021
                             04C38  2761        USING PRONAQ,JQ                                                  17822021
 001E28 47F0 F062      04C9A        2762        B     CQLFAQ                     QUAL NM SCAN FOR COPYR          17829021
                                    2763        DROP  JQ                                                         17836021
 001E2C 9101 C6E1      01671        2764 PRONAM   TM    CURSW,XX01                                               17843021
 001E30 471E 0004      00004        2765          BO    DX4(JP)          RETURN                                  17850021
 001E34 50F0 D9B8      009E8        2766        ST    JQ,SVCALP                                                  17857021
 001E38 58F0 D9BC      009EC        2767        L     JQ,ADPROM                                                  17864021
 001E3C 50F0 DA18      00A48        2768        ST    JQ,LNKR15                                                  17871021
                             04C38  2769        USING PRONAQ,JQ                                                  17878021
 001E40 47F0 F000      04C38        2770        B     PRONAQ                PROC NAME + QUAL NME SCN             17885021
                                    2771        DROP  JQ                                                         17892021
 001E44 50F0 D9B8      009E8        2772 QLFNAM ST    JQ,SVCALP                                                  17899021
 001E48 58F0 D9BC      009EC        2773        L     JQ,ADPROM                                                  17906021
 001E4C 50F0 DA18      00A48        2774        ST    JQ,LNKR15                                                  17913021
                             04C38  2775        USING PRONAQ,JQ                                                  17920021
 001E50 47F0 F066      04C9E        2776        B     QLFNAQ                QLFNAQ                               17927021
                                    2777        DROP  JQ                                                         17934021
                                    2778 *********************************                                       17941021
                                    2779 *                                                                       17948021
                                    2780 *                                                                       17955021
                                    2781 *                                                                       17962021
                             04D60  2782          USING DDSCN,JQ                                                 17969021
 001E54 58E0 D880      008B0        2783 FDEOJ    L     JP,SV1F03                  RESTORE LINK REG              17976021
 001E58 07FE                        2784          BCR   UNCOND,JP                   -RETURN                      17983021
                                    2785 *                                                                       17990021
                                    2786 *                                                                       17997021
                                    2787 *                                                                       18004021
 001E5A 5050 CEE0      01E70        2788 BRDSCD   ST    R5,SAVER5                R5= BASE IN DSCRD01             18011021
 001E5E 5850 CEDC      01E6C        2789          L     R5,ADSCRD01               ADDR OF DSCRD01                18018021
 001E62 05E5                        2790          BALR  JP,R5                      GO THERE                      18025021
 001E64 5850 CEE0      01E70        2791          L     R5,SAVER5                  RESTORE REG5                  18032021
 001E68 47F0 CEC4      01E54        2792          B     FDEOJ                       BR TO RETURN                 18039021
                                    2793 *                                                                       18046021
 001E6C 00005D70                    2794 ADSCRD01 DC    A(DSCRD01)               ADDR OF DSCRD01 RTN             18053021
 001E70 00000000                    2795 SAVER5   DC    F'0'                     R5 SAVEAREA                     18060021
1PH1A     IKFCBL10                                                                                              PAGE   60
-  LOC  OBJECT CODE    ADDR1 ADDR2  STMT   SOURCE STATEMENT                                       ASM 0201 11.03 02/14/15
0001E78                             2797 IKF103 CSECT                                                            18074021
                                    2798 *                                                                       18081021
                                    2799 **********                                                              18088021
                                    2800 *                                                                       18095021
                                    2801 *             PATCH AREA                                                18102021
                                    2802 *                                                                       18109021
 001E78 0000000000000000            2803 PATCH1 DC    40F'0'                    PATCH AREA FOR 1A                18116021
                                    2804 *                                                                       18123021
                                    2805 *                                                                       18130021
                                    2806 **********                                                              18137021
                                    2807 *=1    COMMON ROUTINES                                                  18144021
                                    2808 *                                                                       18151021
                                    2809 *        CALLING ROUTINE FOR GET-WORD                                   18158021
                                    2810 *                                                                       18165021
 001F18 901F D800      00830        2811 GETWD  STM   JA,JQ,SVREG                SAVE CALLING ROUTINES REGS      18172021
 001F1C 981F D83C      0086C        2812        LM    JA,JQ,SAVREG               SETUP GETWD REGS                18179021
 001F20 50F0 DA18      00A48        2813        ST    JQ,LNKR15                  SET-UP LINK REG15 AREA          18186021
 001F24 58F0 C044      00FD4        2814        L     JQ,GETADR                                                  18193021
                             03AF8  2815        USING   UNLVSN,JQ                                                18200021
 001F28 47F0 F00E      03B06        2816        BC    UNCOND,GTWORD               -GTWORD                        18207021
                                    2817        DROP    JQ                                                       18214021
 001F2C 901F D83C      0086C        2818 WRDEXT STM   JA,JQ,SAVREG               SAVE GETWD REGS                 18221021
 001F30 981F D800      00830        2819        LM    JA,JQ,SVREG                RESTORE CALLING ROUTINES RE     18228021
 001F34 50F0 DA18      00A48        2820        ST    JQ,LNKR15                  SET-UP LINK REG15 AREA          18235021
 001F38 07FE                        2821        BCR   UNCOND,JP                   -RETURN                        18242021
                                    2822 *                                                                       18249021
                                    2823 *        CALLING ROUTINE FOR GET-CARD    (EXTERNAL FROM GET-WORD)       18256021
                                    2824 *                                                                       18263021
 001F3A 901F D800      00830        2825 GETCRD STM   JA,JQ,SVREG                                                18270021
 001F3E 981F D83C      0086C        2826        LM    JA,JQ,SAVREG                                               18277021
 001F42 50F0 DA18      00A48        2827        ST    JQ,LNKR15                  SET-UP LINK REG15 AREA          18284021
 001F46 58F0 C044      00FD4        2828        L     JQ,GETADR                                                  18291021
                             03AF8  2829        USING   UNLVSN,JQ                                                18298021
 001F4A 45E0 F306      03DFE        2830        BAL   JP,GTCARD                  -GTCARD                         18305021
                                    2831        DROP    JQ                                                       18312021
 001F4E 47F0 B014      01F2C        2832        BC    UNCOND,WRDEXT               -WRDEXT                        18319021
                                    2833 *                                                                       18326021
                                    2834 *****    CHECK DIVISION NAME    *****                                   18333021
                                    2835 *                                                                       18340021
 001F52 50E0 D894      008C4        2836 CHKDIV ST    JP,SV1F11                  SAVE LINK REG                   18347021
 001F56 D21E D377 C6C2 003A7 01652  2837          MVC   DIVNM(LX31),CURCNT        SAVE DIVISION NAME             18354021
 001F5C 47F0 B0AC      01FC4        2838        BC    UNCOND,CHKGET               -CHKGET                        18361021
                                    2839 *                                                                       18368021
                                    2840 *****     EXIT FROM COMMON ROUTINES     *****                           18375021
                                    2841 *                                                                       18382021
 001F60 D501 C79A A836 0172A 03426  2842 CHKGOT CLC   NXTCOD(LX2),PROCCD        PROCEDURE IN NEXT CELLS          18389021
 001F66 4780 B05C      01F74        2843          BE    CHKPROC             BYPASS GETWD                    7865 18396021
 001F6A 45E0 B000      01F18        2844          BAL   JP,GETWD            GET ANOTHER WORD                7865 18403021
 001F6E 58E0 D894      008C4        2845 CHKEXT L     JP,SV1F11                  RESTORE LINK REG                18410021
 001F72 07FE                        2846        BCR   UNCOND,JP                  -RETURN                         18417021
 001F74 D2A1 C6BC C772 0164C 01702  2847 CHKPROC  MVC   CURNUM(LX162),NXTNUM                                7865 18424021
                                    2848 *  THIS MOVE IS DONE TO MAKE IT TRANSPARENT TO THE RTN WHICH BUILDS7865 18431021
                                    2849 *  THE P1BTBL SINCE IT EXPECTS 'PROCEDURE' IN THE CURRENT CELLS.   7865 18438021
                                    2850 *  IF, HOWEVER,WE DID GO TO GETWD TO TRULY GET 'PROCEDURE' IN      7865 18445021
                                    2851 *  CURRENT CELLS AND THERE IS NO PERIOD OR USING ON THE CARD, THEN 7865 18452021
1PH1A     IKFCBL10                                                                                              PAGE   61
-  LOC  OBJECT CODE    ADDR1 ADDR2  STMT   SOURCE STATEMENT                                       ASM 0201 11.03 02/14/15
0                                   2852 *  ANOTHER CARD WILL BE READ AND WE WILL PASS THE WRONG CARD TO THE7865 18459021
                                    2853 *  NEXT PHASE.  WE SHOULD PASS THE PROCEDURE DIV CARD IN P1BTBL.   7865 18466021
 001F7A 47F0 B056      01F6E        2854          BC    UNCOND,CHKEXT       RETURN                          7865 18473021
                                    2855 *                                                                       18480021
                                    2856 *****    CHECK SECTION NAME    *****                                    18487021
                                    2857 *                                                                       18494021
 001F7E 50E0 D894      008C4        2858 CHKSCT ST    JP,SV1F11                  SAVE LINK REG                   18501021
 001F82 D21E D397 C6C2 003C7 01652  2859          MVC   SECTNM(LX31),CURCNT       SAVE SECTION NAME              18508021
 001F88 47F0 B0AC      01FC4        2860        BC    UNCOND,CHKGET         GET NXT WD AND CHK EOS               18515021
                                    2861 *                                                                       18522021
                                    2862 *                                                                       18529021
                                    2863 *****    CHECK PARAGRAPH NAME    *****                                  18536021
                                    2864 *                                                                       18543021
 001F8C 50E0 D894      008C4        2865 CHKPAR ST    JP,SV1F11                  SAVE LINK REG                   18550021
 001F90 D21E D3B7 C6C2 003E7 01652  2866          MVC   PARNM(LX31),CURCNT        SAVE PARAGRAPH NAME            18557021
 001F96 D209 D9A1 C5D1 009D1 01561  2867          MVC   ETYPE(LX10),CPARAG        INDICATE PARAGRAPH IN EFFEC    18564021
 001F9C 47F0 B0AC      01FC4        2868        BC    UNCOND,CHKGET         GET NXT WD AND CHK EOS               18571021
                                    2869 *                                                                       18578021
                                    2870 *****     CHECK IF NAME IS UNQUAL-BCD, IF QUAL, MSG39 AND MAKE UNQU     18585021
                                    2871 *                                                                       18592021
 001FA0 50E0 D894      008C4        2872 CHKBCD ST    JP,SV1F11                  SAVE LINK REG                   18599021
 001FA4 9523 C6E4      01674        2873          CLI   CURCOD,XX23               UNQUAL-BCD-NAME                18606021
 001FA8 078E                        2874        BCR   EQ,JP                       YES-RETURN                     18613021
 001FAA 95A2 C6E4      01674        2875          CLI   CURCOD,XXA2               QUAL-BCD-NAME                  18620021
 001FAE 477E 0004      00004        2876          BC    NOTEQ,DX4(JP)              NO--RETURN+4                  18627021
 001FB2 45E0 DAE8      00B18        2877        BAL   JP,MSG39                   -MSG39                          18634021
 001FB6 9223 C6E4      01674        2878          MVI   CURCOD,XX23               MAKE NAME UNQUAL               18641021
 001FBA 58E0 D894      008C4        2879        L     JP,SV1F11                  RESTORE LINK REG                18648021
 001FBE 07FE                        2880        BCR   UNCOND,JP                   -RETURN                        18655021
                                    2881 *                                                                       18662021
                                    2882 *****     GET NEXT WORD + CHECK EOS     *****                           18669021
                                    2883 *                                                                       18676021
 001FC0 50E0 D894      008C4        2884 CHKEOS ST    JP,SV1F11                  SAVE LINK REG                   18683021
 001FC4 45E0 B000      01F18        2885 CHKGET BAL   JP,GETWD                   -GETWD                          18690021
 001FC8 47F0 B0B8      01FD0        2886        BC    UNCOND,CHKEO2               -CHKEO2                        18697021
 001FCC 50E0 D894      008C4        2887 EOSTST ST    JP,SV1F11                  SAVE LINK REG                   18704021
 001FD0 D501 C6E4 C58D 01674 0151D  2888 CHKEO2   CLC   CURCOD(LX2),EOSCON        EOS                            18711021
 001FD6 4770 B0C6      01FDE        2889        BC    NOTEQ,CHKEO1                NO-CHKEO1                      18718021
 001FDA 47F0 B048      01F60        2890        BC    UNCOND,CHKGOT               -CHKGOT                        18725021
 001FDE 45E0 DAF8      00B28        2891 CHKEO1 BAL   JP,MSG43                   -MSG43                          18732021
 001FE2 47F0 B056      01F6E        2892        BC    UNCOND,CHKEXT               -CHKEXT                        18739021
                                    2893 *                                                                       18746021
                                    2894 *****    CHECK VERB NAME    *****                                       18753021
                                    2895 *                                                                       18760021
 001FE6 D21E D3F7 C6C2 00427 01652  2896 CHKVRB   MVC   VERBNM(LX31),CURCNT       SAVE VERB NAME                 18767021
 001FEC D209 D9A1 C5DB 009D1 0156B  2897          MVC   ETYPE(LX10),CSENTE        INDICATE VERB IN EFFECT        18774021
 001FF2 07FE                        2898        BCR   UNCOND,JP                   -RETURN                        18781021
                                    2899 *                                                                       18788021
                                    2900 *****    CHECK CLAUSE NAME    *****                                     18795021
                                    2901 *                                                                       18802021
 001FF4 D21E D3D7 C6C2 00407 01652  2902 CHKCLS   MVC   CLSNM(LX31),CURCNT        SAVE CLAUSE NAME               18809021
 001FFA D209 D9A1 C5E4 009D1 01574  2903          MVC   ETYPE(LX10),CCLAUS        INDICATE CLAUSE IN EFFECT      18816021
 002000 07FE                        2904        BCR   UNCOND,JP                   -RETURN                        18823021
                                    2905 *                                                                       18830021
                                    2906 ******    CHECK CONFIGURATION    ******                                 18837021
1PH1A     IKFCBL10                                                                                              PAGE   62
-  LOC  OBJECT CODE    ADDR1 ADDR2  STMT   SOURCE STATEMENT                                       ASM 0201 11.03 02/14/15
0                                   2907 *                                                                       18844021
 002002 50E0 D894      008C4        2908 CHKCFG ST    JP,SV1F11                  SAVE LINK REG                   18851021
 002006 D50D D397 C5EB 003C7 0157B  2909          CLC   SECTNM(LX14),CFG13        13CONFIGURATION                18858021
 00200C 4780 B056      01F6E        2910        BC    EQ,CHKEXT                  YES - RETURN                    18865021
 002010 D20D D397 C5EB 003C7 0157B  2911          MVC   SECTNM(LX14),CFG13        PUT 13CONFIG IN SECTION NAM    18872021
 002016 45E0 DA54      00A84        2912        BAL   JP,MSG2                    MSG 2                           18879021
 00201A 9601 D34C      0037C        2913          OI    CFGSW,XX01                SET CONFIG SW ON               18886021
 00201E 47F0 B056      01F6E        2914        BC    UNCOND,CHKEXT              RETURN                          18893021
                                    2915 *                                                                       18900021
                                    2916 ******    CHECK FILE-CONTROL    ******                                  18907021
                                    2917 *                                                                       18914021
 002022 50E0 D894      008C4        2918 CHKFC  ST    JP,SV1F11                  SAVE LINK REG                   18921021
 002026 D50C D3B7 C610 003E7 015A0  2919          CLC   PARNM(LX13),FCTL12        12 FILE CONTROL                18928021
 00202C 4780 B056      01F6E        2920        BC    EQ,CHKEXT                  YES - RETURN                    18935021
 002030 D20C D3B7 C610 003E7 015A0  2921          MVC   PARNM(LX13),FCTL12        FILE-CONTROL TO SECTION NAM    18942021
 002036 45E0 DA58      00A88        2922        BAL   JP,MSG3                    MSG 13                          18949021
 00203A 9680 D34D      0037D        2923          OI    IOSW,XX80                 SET I-O SW ON                  18956021
 00203E 47F0 B056      01F6E        2924        BC    UNCOND,CHKEXT              RETURN                          18963021
                                    2925 *                                                                       18970021
                                    2926 ******    CHECK INPUT-OUTPUT    ******                                  18977021
                                    2927 *                                                                       18984021
 002042 50E0 D894      008C4        2928 CHKIO  ST    JP,SV1F11                  SAVE LINK REG                   18991021
 002046 D50C D397 C61D 003C7 015AD  2929          CLC   SECTNM(LX13),INOT12       12INPUT-OUTPUT                 18998021
 00204C 4780 B056      01F6E        2930        BC    EQ,CHKEXT                  YES - RETURN                    19005021
 002050 D20C D397 C61D 003C7 015AD  2931          MVC   SECTNM(LX13),INOT12       PUT 12 IN-OUTPUT IN SECT NA    19012021
 002056 45E0 DA54      00A84        2932        BAL   JP,MSG2                    MSG 2                           19019021
 00205A 9680 D34D      0037D        2933          OI    IOSW,XX80                 SET I-O SW ON                  19026021
 00205E 47F0 B056      01F6E        2934        BC    UNCOND,CHKEXT              RETURN                          19033021
                                    2935 *                                                                       19040021
                                    2936 ******    CHECK I-O-CONTROL    ******                                   19047021
                                    2937 *                                                                       19054021
 002062 50E0 D894      008C4        2938 CHKIOC ST    JP,SV1F11                  SAVE LINK REG                   19061021
 002066 D50B D3B7 C62A 003E7 015BA  2939          CLC   PARNM(LX12),IOCT11        11I-O-CONTROL                  19068021
 00206C 4780 B056      01F6E        2940        BC    EQ,CHKEXT                  YES - RETURN                    19075021
 002070 D20B D3B7 C62A 003E7 015BA  2941          MVC   PARNM(LX12),IOCT11        UU I-O-CONTROL TO SECTION N    19082021
 002076 45E0 DA58      00A88        2942        BAL   JP,MSG3                    MSG 3                           19089021
 00207A 9640 D353      00383        2943          OI    IOCSW,XX40                SET 'ON' IOCSW                 19096021
 00207E 47F0 B056      01F6E        2944        BC    UNCOND,CHKEXT         EXIT FROM COMMON RTNS                19103021
                                    2945 *                                                                       19110021
                                    2946 ******    CHECK KEY    ******                                           19117021
                                    2947 *                                                                       19124021
 002082 50E0 D894      008C4        2948 CHKKEY ST    JP,SV1F11                  SAVE LINK REG                   19131021
 002086 D501 C79A A100 0172A 02CF0  2949          CLC   NXTCOD(LX2),KEYCON                                       19138021
 00208C 4770 B192      020AA        2950          BC    NOTEQ,CHKIS+NX4     CHECK FOR 'IS'                       19145021
 002090 47F0 B048      01F60        2951        BC    UNCOND,CHKGOT         EXIT FROM COMMON RTNS                19152021
                                    2952 *                                                                       19159021
                                    2953 ******    CHECK FOR    ******                                           19166021
                                    2954 *                                                                       19173021
 002094 50E0 D894      008C4        2955 CHKFOR ST    JP,SV1F11                  SAVE LINK REG                   19180021
 002098 D501 C79A A0F4 0172A 02CE4  2956          CLC   NXTCOD(LX2),FORCON                                       19187021
 00209E 4770 B056      01F6E        2957        BC    NOTEQ,CHKEXT          EXIT FROM COMMON RTNS                19194021
 0020A2 47F0 B048      01F60        2958        BC    UNCOND,CHKGOT         EXIT FROM COMMON RTNS                19201021
                                    2959 *                                                                       19208021
                                    2960 ******    CHECK 'IS'    ******                                          19215021
                                    2961 *                                                                       19222021
1PH1A     IKFCBL10                                                                                              PAGE   63
-  LOC  OBJECT CODE    ADDR1 ADDR2  STMT   SOURCE STATEMENT                                       ASM 0201 11.03 02/14/15
00020A6 50E0 D894      008C4        2962 CHKIS  ST    JP,SV1F11                  SAVE LINK REG                   19229021
 0020AA D501 C79A A034 0172A 02C24  2963          CLC   NXTCOD(LX2),ISCON                                        19236021
 0020B0 4770 B056      01F6E        2964        BC    NOTEQ,CHKEXT          EXIT FROM COMMON RTNS                19243021
 0020B4 47F0 B048      01F60        2965        BC    UNCOND,CHKGOT         EXIT FROM COMMON RTNS                19250021
                                    2966 *                                                                       19257021
                                    2967 *                                                                       19264021
                                    2968 ******    CHECK TO    ******                                            19271021
                                    2969 *                                                                       19278021
 0020B8 50E0 D894      008C4        2970 CHKTO  ST    JP,SV1F11                  SAVE LINK REG                   19285021
 0020BC D501 C79A A06B 0172A 02C5B  2971          CLC   NXTCOD(LX2),TOCON                                        19292021
 0020C2 4770 B056      01F6E        2972        BC    NOTEQ,CHKEXT          EXIT FROM COMMON RTNS                19299021
 0020C6 47F0 B048      01F60        2973        BC    UNCOND,CHKGOT         EXIT FROM COMMON RTNS                19306021
                                    2974 *                                                                       19313021
                                    2975 *****     CHECK ON     *****                                            19320021
                                    2976 *                                                                       19327021
 0020CA 50E0 D894      008C4        2977 CHKON  ST    JP,SV1F11                  SAVE LINK REG                   19334021
 0020CE D501 C79A A043 0172A 02C33  2978          CLC   NXTCOD(LX2),ONCON                                        19341021
 0020D4 4770 B056      01F6E        2979        BC    NOTEQ,CHKEXT          EXIT FROM COMMON RTNS                19348021
 0020D8 47F0 B048      01F60        2980        BC    UNCOND,CHKGOT         EXIT FROM COMMON RTNS                19355021
                                    2981 *                                                                       19362021
                                    2982 *****     GENERATE DIV OR SECT HEADER     *****                         19369021
                                    2983 *                                                                       19376021
 0020DC 9003 D884      008B4        2984 GENER1 STM   JR,JC,SV4F04                 SAVE LINK REGS                19383021
 0020E0 5810 C814      017A4        2985        L     JA,COSADR                   GENERATE                       19390021
 0020E4 182E                        2986        LR    JB,JP                        DIVISION  OR SECTION          19397021
 0020E6 0501                        2987        BALR  JR,JA                          HEADER                      19404021
 0020E8 23                          2988        DC    X'23'                         ON FILE 3                    19411021
 0020E9 00
 0020EA 9803 D884      008B4        2989        LM    JR,JC,SV4F04                 RESTORE LINK REGS             19418021
 0020EE 47FE 0002      00002        2990          BC    UNCOND,DX2(JP)             -RETURN-JP+2                  19425021
                                    2991 *                                                                       19432021
                                    2992 *                                                                       19439021
                                    2993 *****     CHECK FOR VALID EXTERNAL-NAME     *****                       19446021
                                    2994 *                                                                       19453021
 0020F2 50E0 D894      008C4        2995 EXTNA3 ST    JP,SV1F11                                                  19460021
 0020F6 9534 C6E4      01674        2996          CLI   CURCOD,XX34              IS IT ALPHALT(CALL ENTRY)       19467021
 0020FA 4770 B274      0218C        2997        BNE   ERMSGA                    NO                               19474021
 0020FE 47F0 B20C      02124        2998        B     EXTNA4                EXTNA4                               19481021
 002102 50E0 D894      008C4        2999 EXTNAM ST    JP,SV1F11                  SAVE LINK REG                   19488021
 002106 9108 C6E1      01671        3000          TM    CURSW,XX08                INT NUM LIT                    19495021
 00210A 4780 B200      02118        3001        BZ    EXTNA5                    NO                               19502021
 00210E D21E C6E5 C6C2 01675 01652  3002          MVC   CURN(LX31),CURCNT        MAKE NUM LIT INTO BCD FORM      19509021
 002114 47F0 B208      02120        3003        B     EXTNA6                EXTNA6                               19516021
 002118 9523 C6E4      01674        3004 EXTNA5   CLI   CURCOD,XX23              BCD NAME                        19523021
 00211C 4770 B1DE      020F6        3005        BNE   EXTNA3+4                  NO                               19530021
 002120 9234 C6E4      01674        3006 EXTNA6   MVI   CURCOD,XX34                                              19537021
 002124 9508 C6E5      01675        3007 EXTNA4   CLI   CURN,XX08                LENGTH GREATER THAN 8           19544021
 002128 47D0 B218      02130        3008        BC    NOTHI,ELENOK          IS FIRST CHAR LETTER                 19551021
 00212C 9208 C6E5      01675        3009          MVI   CURN,XX08                                                19558021
 002130 95F9 C6E6      01676        3010 ELENOK   CLI   CURBCD,XXF9              IS 1ST CHAR GREATER THAN 9      19565021
 002134 4720 B238      02150        3011        BH    EXTNA1                    YES                              19572021
 002138 95F0 C6E6      01676        3012          CLI   CURBCD,XXF0              IS 1ST CHAR LESS THAN 0         19579021
 00213C 4740 B238      02150        3013        BL    EXTNA1                    YES                              19586021
 002140 4780 B234      0214C        3014        BE    EXTNA2                EXTNA2                               19593021
 002144 94CF C6E6      01676        3015          NI    CURBCD,XXCF              MAKE FIRST CHAR A LETTER        19600021
1PH1A     IKFCBL10                                                                                              PAGE   64
-  LOC  OBJECT CODE    ADDR1 ADDR2  STMT   SOURCE STATEMENT                                       ASM 0201 11.03 02/14/15
0002148 47F0 B238      02150        3016        B     EXTNA1                EXTNA1                               19607021
 00214C 92D1 C6E6      01676        3017 EXTNA2   MVI   CURBCD,XXD1               MAKE FIRST CHAR = J            19614021
 002150 1722                        3018 EXTNA1 XR    JB,JB                                                      19621021
 002152 DD00 C6E6 C45C 01676 013EC  3019          TRT   CURBCD(LX1),UNONB         STARTS WITH LETTER             19628021
 002158 4620 B274      0218C        3020        BCT   JB,ERMSGA                   NO-ERMSGA (IF LETTER,JB HA     19635021
 00215C                             3021 EXTHYP DS    0H                                                         19642021
 00215C 4320 C6E5      01675        3022        IC    JB,CURN                    GET SIZE                        19649021
 002160 0620                        3023        BCTR  JB,JR                       REDUCE SIZE FOR 'EX'           19656021
 002162 45E0 B3D0      022E8        3024        BAL   JP,NOLDI                    (SET UP TBL FOR NON L-D)       19663021
 002166 4420 B280      02198        3025        EX    JB,EXTRTS                  TEST FOR LEGAL CHARACTERS       19670021
 00216A 45E0 B3E8      02300        3026        BAL   JP,NOLDO                    (RESET TBL)                    19677021
 00216E 4780 B26A      02182        3027        BC    ZERO,EXTNOH                YES - BLNKRTN                   19684021
 002172 9560 1000      00000        3028          CLI   DX0(R1),XX60              NO - HYPHEN ?                  19691021
 002176 4770 B274      0218C        3029        BNE   ERMSGA                     NO - ERROR                      19698021
 00217A 92F0 1000      00000        3030          MVI   DX0(R1),XXF0              YES - TO ZERO                  19705021
 00217E 47F0 B244      0215C        3031        B     EXTHYP                     RESCAN                          19712021
 002182                             3032 EXTNOH DS    0H                                                         19719021
 002182 45E0 B664      0257C        3033        BAL   JP,BLNKRT                  -BLNKRT  (SET UP WITH BLANK     19726021
 002186 58E0 D894      008C4        3034        L     JP,SV1F11                  RESTORE LINK REG                19733021
 00218A 07FE                        3035        BCR   UNCOND,JP                   -RETURN                        19740021
 00218C 45E0 DA88      00AB8        3036 ERMSGA BAL   JP,MSG15                   -MSG15                          19747021
 002190 58E0 D894      008C4        3037        L     JP,SV1F11                  RESTORE LINK REG                19754021
 002194 47FE 0004      00004        3038          BC    UNCOND,DX4(JP)             -RETURN+4                     19761021
 002198 DD00 C6E6 C35C 01676 012EC  3039 EXTRTS   TRT   CURBCD(LX0),NONLDH        'EX' TEST FOR LEGAL CHARACT    19768021
                                    3040 *                                                                       19775021
                                    3041 *****     CHECK FOR COPY LIBRARY-NAME     *****                         19782021
                                    3042 *                                                                       19789021
                                    3043 *                                                                       19796021
 00219E 901F C048      00FD8        3044 CPYNXT STM   R1,R15,SV1F13              SAVE CALLING REGS               19803021
 0021A2 D501 C79A A14D 0172A 02D3D  3045          CLC   NXTCOD(LX2),COPYCN        NEXT IS COPY ?                 19810021
 0021A8 4770 B3A4      022BC        3046        BC    NOTEQ,COPYNO                NO-COPYNO                      19817021
 0021AC 9501 D423      00453        3047          CLI   LDLEV,XX01                O1 LEVEL ?                     19824021
 0021B0 4770 B2C4      021DC        3048          BNE   CPYCKA              CHECK IF VALID COPY                  19831021
 0021B4 9523 C6E4      01674        3049          CLI   CURCOD,XX23               BCD NM ?                       19838021
 0021B8 4770 B2C4      021DC        3050          BNE   CPYCKA              CHECK IF VALID COPY                  19845021
 0021BC D21E C259 C6C2 011E9 01652  3051          MVC   CPQCNT(LX31),CURCNT       SAVE SOURCE O1 DATANAME        19852021
 0021C2 9602 D358      00388        3052          OI    CPYQSW,XX02               SET  SW ON                     19859021
 0021C6 47F0 B2C4      021DC        3053        BC    UNCOND,CPYCKA               -CPYCKA                        19866021
                                    3054 *                                                                       19873021
 0021CA 901F C048      00FD8        3055 CPYCUR STM   R1,R15,SV1F13              SAVE CALLING REGS               19880021
 0021CE D501 C6E4 A14D 01674 02D3D  3056          CLC   CURCOD(LX2),COPYCN        CURRENT IS COPY ?              19887021
 0021D4 4770 B3A4      022BC        3057        BC    NOTEQ,COPYNO                NO-COPYNO                      19894021
 0021D8 9601 D351      00381        3058          OI    CPYCSW,XX01               SET 'ON' CPYCSW                19901021
                                    3059 *                                                                       19908021
 0021DC 94FE D350      00380        3060 CPYCKA   NI    CPYXSW,XXFE         INITIALIZE CPYXSW                    19915021
 0021E0 9120 D359      00389        3061 CPYCKB1  TM    SKCDSW,XX20         IS CARD SAVED                        19922021
 0021E4 47E0 B2D6      021EE        3062          BNO   CPYCKB              NO                                   19929021
 0021E8 D201 D665 B3B6 00695 022CE  3063          MVC   COMWRK+NX74(LX2),IDCOPY RESTORE COPY STMT ID             19936021
 0021EE 94BF D359      00389        3064 CPYCKB   NI    NWCDSW,XXBF         SET NEW CD SW OFF                    19943021
 0021F2 D501 D665 B3B2 00695 022CA  3065          CLC   COMWRK+NX74(LX2),BADCOPY    GOOD COPY                    19950021
 0021F8 4780 B34A      02262        3066          BE    CPERR               NO - GET NEXT CLAUSE                 19957021
 0021FC D501 D665 B3B0 00695 022C8  3067          CLC   COMWRK+NX74(LX2),COPYCON COPY STATEMENT                  19964021
 002202 4770 B2FA      02212        3068          BNE   CPYCKD              NO                                   19971021
 002206 9601 D350      00380        3069          OI    CPYXSW,XX01         SET ON CPYXSW                        19978021
 00220A 45E0 B31C      02234        3070          BAL   JP,CPYLST           GET NEXT CARD                        19985021
1PH1A     IKFCBL10                                                                                              PAGE   65
-  LOC  OBJECT CODE    ADDR1 ADDR2  STMT   SOURCE STATEMENT                                       ASM 0201 11.03 02/14/15
000220E 47F0 B2C8      021E0        3071          B     CPYCKB1       CONTINUE SCAN                        08009 19992021
                                    3072 *                                                                       19999021
 002212 9101 D350      00380        3073 CPYCKD   TM    CPYXSW,XX01         GOOD COPY                            20006021
 002216 47E0 B378      02290        3074          BNO   CPYCKC              NO - ISSUE DIAGNOSTIC                20013021
 00221A D501 D665 B3B4 00695 022CC  3075          CLC   COMWRK+NX74(LX2),NOCPYMEM  NO COPY MEMBER FOUND          20020021
 002220 4770 B380      02298        3076          BNE   CPYCKE              RETURN                               20027021
 002224 94FD D358      00388        3077          NI    CPYQSW,XXFD         REINITIALIZE CPYQSW            51336 20034021
 002228 9604 D358      00388        3078          OI    CPERSW,XX04         INDICATE NO MEMBER FOUND             20041021
 00222C 45E0 B31C      02234        3079          BAL   JP,CPYLST           BYPASS DUMMY, GET NEXT REC     05338 20048021
 002230 47F0 B380      02298        3080          B     CPYCKE              RETURN                               20055021
                                    3081 *                                                                       20062021
 002234 50E0 D940      00970        3082 CPYLST   ST    JP,SVRPRG           SAVE LINK REGISTER                   20069021
 002238 9120 D359      00389        3083          TM    SKCDSW,XX20         IS CARD SAVED                        20076021
 00223C 47E0 B330      02248        3084          BNO   CPYLST1             NO - GETCARD                         20083021
 002240 45E0 B000      01F18        3085          BAL   JP,GETWD            GET LAST WORD                        20090021
 002244 47F0 B33C      02254        3086          B     CPYLST2             RETURN                               20097021
 002248 45E0 B022      01F3A        3087 CPYLST1  BAL   JP,GETCRD           GET NEXT CARD                        20104021
 00224C 4170 D664      00694        3088          LA    R7,COMWRK+NX73      AVOID GETTING LAST-WORD-SAVED        20111021
 002250 5070 DAC8      00AF8        3089          ST    R7,NBLPTR           IF CARD FOLLOWING COPY IS BLANK      20118021
 002254 9120 D34F      0037F        3090 CPYLST2  TM    LCRDSW,XX20         LAST CD SET ON                       20125021
 002258 4710 B356      0226E        3091          BO    CNXCL               WRAP UP                              20132021
 00225C 58E0 D940      00970        3092          L     JP,SVRPRG           RESTORE LINK REGISTER                20139021
 002260 07FE                        3093          BR    JP                  RETURN                               20146021
                                    3094 *                                                                       20153021
 002262 45E0 B31C      02234        3095 CPERR    BAL   JP,CPYLST           GET NEXT CARD                        20160021
 002266 45E0 B000      01F18        3096          BAL   JP,GETWD            GET A WORD                           20167021
 00226A 94FD D358      00388        3097 CPERR2   NI    CPYQSW,XXFD         REINITIALIZE CPYQSW            51336 20174021
 00226E D501 C79A A836 0172A 03426  3098 CNXCL    CLC   NXTCOD(LX2),PROCCD PROCEDURE IN NEXT               09266 20181021
 002274 94FE D350      00380        3099          NI    CPYXSW,XXFE              SET OFF CPYXSW            09266 20188021
 002278 4780 B388      022A0        3100          BE    CPYCKG          YES-EXIT                           09266 20195021
 00227C 45E0 B000      01F18        3101          BAL   JP,GETWD        GET A WORD                         09266 20202021
 002280 45E0 CE70      01E00        3102        BAL   JP,LEVENC                  CK FOR LEVEL NO.                20209021
 002284 9130 C6E4      01674        3103          TM    CURCOD,XX30               MAJOR IS ZERO ?                20216021
 002288 4780 B3A4      022BC        3104          BC    ZERO,COPYNO   EXIT                                       20223021
 00228C 47F0 B356      0226E        3105          B     CNXCL         GET WORD UNTIL NEW CLAUSE                  20230021
                                    3106 *                                                                       20237021
 002290 45E0 DA94      00AC4        3107 CPYCKC BAL   JP,MSG18                   -MSG18                          20244021
 002294 47F0 B352      0226A        3108        B     CPERR2                     SCAN TO NEXT CLAUSE       51336 20251021
 002298 94FB C797      01727        3109 CPYCKE   NI    NXTSW,XXFB                SET 'OFF' NONBLANK SW          20258021
 00229C 45E0 B000      01F18        3110        BAL   JP,GETWD                   -GETWD                          20265021
 0022A0 D201 C6E4 C58D 01674 0151D  3111 CPYCKG   MVC   CURCOD(LX2),EOSCON  EOS IN CURCOD                  09266 20272021
 0022A6 9101 D351      00381        3112          TM    CPYCSW,XX01               CPYCSW 'ON' (FOR CUR CELL L    20279021
 0022AA 4780 B39E      022B6        3113        BC    ZERO,CPYCKF                 NO-CPYCKF                      20286021
 0022AE 94FE D351      00381        3114          NI    CPYCSW,XXFE               SET 'OFF' CPYCSW               20293021
 0022B2 45E0 B000      01F18        3115        BAL   JP,GETWD                   -GETWD    (LOAD CUR CELL)       20300021
                                    3116 *                                                                       20307021
 0022B6 981F C048      00FD8        3117 CPYCKF LM    R1,R15,SV1F13              RESTORE CALLING REGS            20314021
 0022BA 07FE                        3118        BCR   UNCOND,JP                   -RETURN                        20321021
 0022BC 94FE D350      00380        3119 COPYNO   NI    CPYXSW,XXFE               SET 'OFF' CPYXSW               20328021
 0022C0 94FE D351      00381        3120          NI    CPYCSW,XXFE              SET CPYCSW OFF                  20335021
 0022C4 47F0 B39E      022B6        3121        B    CPYCKF                     EXIT                             20342021
                                    3122 *   THE FOLLOWING CONSTANTS ARE PASSED TO                               20349021
                                    3123 *   PHASE 1 IN COLUMNS 74 - 75 OF THE CARD IMAGE.                       20356021
 0022C8 C3D6                        3124 COPYCON  DC    CL2'CO'                   PRE-PROCESSOR COPY             20363021
 0022CA C3D7                        3125 BADCOPY  DC    C'CP'               BAD COPY INDICATOR                   20370021
1PH1A     IKFCBL10                                                                                              PAGE   66
-  LOC  OBJECT CODE    ADDR1 ADDR2  STMT   SOURCE STATEMENT                                       ASM 0201 11.03 02/14/15
00022CC C3D5                        3126 NOCPYMEM DC    C'CN'               NO COPY MEMBER FOUND                 20377021
 0022CE                             3127 IDCOPY   DS    CL2                 SAVE FOR COPY STMT ID                20384021
                                    3128 *                                                                       20391021
                                    3129 *                                                                       20398021
                                    3130 *****    DECIMAL IS COMMA SETUP ROUTINE                                 20405021
                                    3131 *                                                                       20412021
 0022D0 5810 C814      017A4        3132 CHGFRN L     JA,COSADR                  ADDR OF COS                     20419021
 0022D4 D201 11C4 C580 001C4 01510  3133          MVC   COMMAD(LX2),KDECML                                       20426021
 0022DA 926B C580      01510        3134          MVI   KDECML,XX6B               MAKE DECIMAL TO COMMA          20433021
 0022DE 9601 D353      00383        3135          OI    FRGNSW,XX01               SET 'ON' FRGNSW                20440021
 0022E2 07FE                        3136        BCR   UNCOND,JP             RETURN                               20447021
                                    3137 *                                                                       20454021
                                    3138 *****     CHANGE UDIGT TBL TO NONLDH AND BACK AGAIN                     20461021
                                    3139 *                                                                       20468021
 0022E4 9400 C3BC      0134C        3140 NOLDHI   NI    TBHYPN,XX00               SET MINUS TO '0'               20475021
 0022E8 D708 C41D C41D 013AD 013AD  3141 NOLDI    XC    MSKLT1(LX9),MSKLT1        SET LETTERS TO '0'             20482021
 0022EE D708 C42D C42D 013BD 013BD  3142          XC    MSKLT2(LX9),MSKLT2        SET LETTERS TO '0'             20489021
 0022F4 D707 C43E C43E 013CE 013CE  3143          XC    MSKLT3(LX8),MSKLT3                                       20496021
 0022FA 07FE                        3144        BCR   UNCOND,JP                   -RETURN                        20503021
                                    3145 *                                                                       20510021
 0022FC 9202 C3BC      0134C        3146 NOLDHO   MVI   TBHYPN,XX02               RESTORE MINUS TO '2'           20517021
 002300 D208 C41D C51D 013AD 014AD  3147 NOLDO    MVC   MSKLT1(LX9),LETMSK        RESTORE LETTERS TO '1'         20524021
 002306 D208 C42D C51D 013BD 014AD  3148          MVC   MSKLT2(LX9),LETMSK        RESTORE LETTERS TO '1'         20531021
 00230C D207 C43E C51D 013CE 014AD  3149          MVC   MSKLT3(LX8),LETMSK        RESTORE LETTERS TO '1'         20538021
 002312 07FE                        3150        BCR   UNCOND,JP                   -RETURN                        20545021
                                    3151 *                                                                       20552021
                                    3152 *                                                                       20559021
                                    3153 *                                                                       20566021
 002314 45E0 DA5C      00A8C        3154 DDERRM BAL   JP,MSG4                   -MSG4                            20573021
 002318 45E0 ACDE      038CE        3155        BAL   JP,SKIPGT                 -SKIPGT                          20580021
 00231C 58E0 B40C      02324        3156        L     JP,ADDSLEV                RETURN ADDRESS                   20587021
 002320 07FE                        3157        BR    JP                        RETURN                           20594021
                                    3158 *                                                                       20601021
 002322 0000
 002324 00004DC8                    3159 ADDSLEV  DC    A(DDSFSH)                                          08623 20608021
                                    3160 *                                                                       20615021
1PH1A     IKFCBL10                                                                                              PAGE   67
-  LOC  OBJECT CODE    ADDR1 ADDR2  STMT   SOURCE STATEMENT                                       ASM 0201 11.03 02/14/15
0                                   3162 *******************************************************************     20629021
                                    3163 *                                                                       20636021
                                    3164 *   REG 'JB' -- ADDRESS OF 'MOVE TO' FIELD                              20643021
                                    3165 *   REG 'JD' -- SIZE OF 'MOVE FROM' FIELD                               20650021
                                    3166 *   REG 'JG' -- ADDRESS OF 'MOVE FROM' FIELD                            20657021
                                    3167 *                                                                       20664021
                                    3168 *   ENTRY    SET REG    SET SWITCH                                      20671021
                                    3169 *      A     JB         INSRSW  X'20'                                   20678021
                                    3170 *      B     JB         INSRSW  X'20'                                   20685021
                                    3171 *      C     JB,JD,JG                                                   20692021
                                    3172 *      D     JB,JD,JG                                                   20699021
                                    3173 *      E     JB,JD,JG                                                   20706021
                                    3174 *      F     JB,JD,JG                                                   20713021
                                    3175 *                                                                       20720021
                                    3176 *******************************************************************     20727021
                                    3177 ******  A-CHECK FOR QUAL OR UNQUAL BCD NAME                             20734021
                                    3178 *                                                                       20741021
 002328 9523 C6E4      01674        3179 MVQLCK   CLI   CURCOD,XX23               UNQUAL BCD NAME                20748021
 00232C 4770 B436      0234E        3180        BC    NOTEQ,MVQUAL                NO-MVQUAL                      20755021
 002330 1744                        3181        XR    JD,JD                      CLEAR REG JD                    20762021
 002332 4340 C6E5      01675        3182        IC    JD,CURN                    SIZE OF NAME TO JD              20769021
 002336 4170 C6E5      01675        3183        LA    JG,CURN                    ADDR OF NAME TO JG              20776021
 00233A 9110 D34E      0037E        3184          TM    OD2SW,XX10                TEST IF OD2                    20783021
 00233E 4780 B42E      02346        3185        BC    ZERO,MVBYTN                 NO-MVBYTN                      20790021
 002342 4144 0001      00001        3186          LA    JD,DX1(JD)                ADJ SIZE FOR LAST '0'          20797021
 002346 4144 0001      00001        3187 MVBYTN   LA    JD,DX1(JD)                ADJ SIZE FOR LAST 'N'          20804021
 00234A 47F0 B458      02370        3188        BC    UNCOND,MVISRT               -MVISRT                        20811021
 00234E 95A2 C6E4      01674        3189 MVQUAL   CLI   CURCOD,XXA2               QUAL BCD NAME                  20818021
 002352 4770 B51A      02432        3190        BC    NOTEQ,MVEREX                NO-MVEREX                      20825021
                                    3191 *                                                                       20832021
                                    3192 ******  B-GET ADDRESS AND SIZE OF ENTRY IN 'QLTABL'                     20839021
                                    3193 *                                                                       20846021
 002356 5870 C82C      017BC        3194 MVQLTA L     JG,QLTCON                  QLTABL TIB                      20853021
 00235A 5877 0000      00000        3195          L     JG,DX0(JG)                TAMM                           20860021
 00235E 4847 0004      00004        3196          LH    JD,DX4(JG)                SIZE                           20867021
 002362 5877 0000      00000        3197          L     JG,DX0(JG)                START                          20874021
 002366 4174 7000      00000        3198          LA    JG,DX0(JD,JG)             END + 1                        20881021
 00236A 9640 D34E      0037E        3199          OI    QUALSW,XX40               SET QUALSW 'ON'                20888021
 00236E 0640                        3200        BCTR  JD,JR                       REDUCE SIZE BY '1' FOR '35     20895021
 002370 4040 D9D0      00A00        3201 MVISRT STH   JD,SAVSIZ                  SAVE SIZE                       20902021
 002374 9120 D34E      0037E        3202          TM    INSRSW,XX20               CALL INSERT                    20909021
 002378 4780 B496      023AE        3203        BC    ZERO,MVQLMV                 NO-MVQLMV                      20916021
                                    3204 *                                                                       20923021
                                    3205 ******  C-CALL INSERT FOR SPECIFIED TAMER TABLE                         20930021
                                    3206 *                                                                       20937021
 00237C 1812                        3207 MVSERT LR    JA,JB                      ADDR OF TABLE                   20944021
 00237E 58F0 C81C      017AC        3208 MVSRT2 L     JQ,ADSERT                  ADDR OF INSERT                  20951021
 002382 9200 1000      00000        3209          MVI   DX0(JA),XX00              SET TIB 'N' TO '0'             20958021
 002386 9110 D34E      0037E        3210          TM    OD2SW,XX10                TEST IF OD2                    20965021
 00238A 4780 B47A      02392        3211        BC    ZERO,MVSERA                 NO-MVSERA                      20972021
 00238E 4144 0002      00002        3212          LA    JD,DX2(JD)                ADJ SIZE FOR COUNT HW          20979021
 002392 1804                        3213 MVSERA LR    JR,JD                      SIZE OF ENTRY TO REG JR         20986021
 002394 50E0 D980      009B0        3214        ST    JP,REGWOK                  SAVE RETURN REG                 20993021
 002398 05EF                        3215        BALR  JP,JQ                      CALL INSERT TO TAMMER           21000021
 00239A 58E0 D980      009B0        3216        L     JP,REGWOK                  RESTORE RETURN REG              21007021
1PH1A     IKFCBL10                                                                                              PAGE   68
-  LOC  OBJECT CODE    ADDR1 ADDR2  STMT   SOURCE STATEMENT                                       ASM 0201 11.03 02/14/15
000239E 58F0 D838      00868        3217          L     JQ,SVREG+NX56             RESTORE REG 15                 21014021
 0023A2 4122 0000      00000        3218          LA    JB,DX0(JB)                CLEARS HI-ORDER BYTE           21021021
 0023A6 5020 D9CC      009FC        3219        ST    JB,ABSADD                  SAV ABSOLUTE ADDR OF ENTRY      21028021
 0023AA 4030 D9D2      00A02        3220        STH   JC,PONTER                  SAVE POINTER (SIZE) OF ENTR     21035021
 0023AE 9110 D34E      0037E        3221 MVQLMV   TM    OD2SW,XX10                TEST IF OD2                    21042021
 0023B2 4780 B4B0      023C8        3222        BC    ZERO,MVQLMT                 NO-MVQLMT                      21049021
 0023B6 D201 2000 D9D0 00000 00A00  3223          MVC   DX0(LX2,JB),SAVSIZ         PUT QUAL-NAMES SIZE IN TABL   21056021
 0023BC 4122 0002      00002        3224          LA    JB,DX2(JB)                ADJ ADDR PAST COUNT HW         21063021
 0023C0 4040 D9D0      00A00        3225        STH   JD,SAVSIZ                  SAVE ADJ SIZE                   21070021
 0023C4 4B40 C150      010E0        3226        SH    JD,HWTWO                   REDUCE SIZE FOR COUNT HW        21077021
 0023C8 9140 D34E      0037E        3227 MVQLMT   TM    QUALSW,XX40               QLTABL MOVE                    21084021
 0023CC 4780 B4F0      02408        3228        BC    ZERO,MVSTOR                 NO-MVSTOR                      21091021
 0023D0 5870 C82C      017BC        3229        L     JG,QLTCON                  QLTABL TIB                      21098021
 0023D4 5877 0000      00000        3230          L     JG,DX0(JG)                TAMM                           21105021
 0023D8 4847 0004      00004        3231          LH    JD,DX4(JG)                SIZE                           21112021
 0023DC 5877 0000      00000        3232          L     JG,DX0(JG)                START                          21119021
 0023E0 4174 7000      00000        3233          LA    JG,DX0(JD,JG)             END + 1                        21126021
                                    3234 *                                                                       21133021
                                    3235 ******  D-MOVE FROM 'QLTABL' IN REVERSE ORDER TO ANY AREA               21140021
 0023E4 0670                        3236 MVAGAN BCTR  JG,JR                       ADJ ADDR TO 'N' BYTE           21147021
 0023E6 1744                        3237        XR    JD,JD                      CLEAR REG JD                    21154021
 0023E8 4347 0000      00000        3238          IC    JD,DX0(JG)                PUT 'N' IN JD                  21161021
 0023EC 4242 0000      00000        3239          STC   JD,DX0(JB)                PUT 'N' IN OUTPUT AREA         21168021
 0023F0 9500 7000      00000        3240          CLI   DX0(JG),XX00              END OF QUAL NAME               21175021
 0023F4 4780 B514      0242C        3241        BC    EQ,MVEXIT                   YES-MVEXIT                     21182021
 0023F8 4A20 C14E      010DE        3242        AH    JB,HWONE                   ADJ ADDR PAST 'N' BYTE          21189021
 0023FC 1B74                        3243        SR    JG,JD                      ADJ ADDR TO START OF NAME       21196021
 0023FE 4440 B522      0243A        3244        EX    JD,TXMOVE                  NAME TO OUTPUT AREA             21203021
 002402 1A24                        3245        AR    JB,JD                      ADJ ADDR PAST NAME              21210021
 002404 47F0 B4CC      023E4        3246        BC    UNCOND,MVAGAN         MVAGAN                               21217021
                                    3247 *                                                                       21224021
                                    3248 ******  E-MOVE ANY SIZE AREA TO ANY OTHER AREA                          21231021
                                    3249 *                                                                       21238021
 002408 5940 C2C0      01250        3250 MVSTOR C     JD,NU255                   MORE THAN 255 BYTES TO MOVE     21245021
 00240C 47D0 B50E      02426        3251        BC    NOTHI,MVTXMV                NO-MVTXMV                      21252021
 002410 D2FE 2000 7000 00000 00000  3252          MVC   DX0(LX255,JB),DX0(JG)      MOVE 255 BYTES TO OUTPUT AR   21259021
 002416 5E70 C2C0      01250        3253        AL    JG,NU255                   INCREASE 'FROM' ADDR BY 255     21266021
 00241A 5E20 C2C0      01250        3254        AL    JB,NU255                   INCREASE 'TO' ADDR BY 255       21273021
 00241E 5B40 C2C0      01250        3255        S     JD,NU255                   REDUCE SIZE BY 255              21280021
 002422 47F0 B4F0      02408        3256        BC    UNCOND,MVSTOR               -MVSTOR                        21287021
 002426 0640                        3257 MVTXMV BCTR  JD,JR                       REDUCE SIZE FOR EXECUTE MO     21294021
 002428 4440 B522      0243A        3258        EX    JD,TXMOVE                  EXECUTE MOVE TO OUTPUT          21301021
 00242C 948F D34E      0037E        3259 MVEXIT   NI    OD2SW,XX8F                SET'OFF' QUAL INSR OD2SW       21308021
 002430 07FE                        3260        BCR   UNCOND,JP                   -RETURN                        21315021
 002432 948F D34E      0037E        3261 MVEREX   NI    OD2SW,XX8F                SET'OFF' QUAL INSR OD2SW       21322021
 002436 47FE 0004      00004        3262          BC    UNCOND,DX4(JP)             -RETURN +4 'ERROR'            21329021
                                    3263 *                                                                       21336021
                                    3264 ******  F-EXECUTE 'MOVE' INSTRUCTION                                    21343021
                                    3265 *                                                                       21350021
 00243A D200 2000 7000 00000 00000  3266 TXMOVE   MVC   DX0(LX0,JB),DX0(JG)        'EXECUTE MOVE' INSTRUCTION    21357021
                                    3267 *                                                                       21364021
1PH1A     IKFCBL10                                                                                              PAGE   69
-  LOC  OBJECT CODE    ADDR1 ADDR2  STMT   SOURCE STATEMENT                                       ASM 0201 11.03 02/14/15
0                                   3269 *                                                                       21378021
                                    3270 ******    CONVERT INTEGRAL NUMERIC LITERAL TO BINARY    ******          21385021
                                    3271 *                                                                       21392021
 002440 1F11                        3272 CNVBIN SLR   JA,JA                      CLEAR REG                       21399021
 002442 4310 C6E5      01675        3273        IC    JA,CURN                    N TO REG                        21406021
 002446 4B10 C152      010E2        3274        SH    JA,HWTHRE                  ADJUST FOR 2ND LENGTH           21413021
 00244A 5610 C2B8      01248        3275        O     JA,FWCONS                  ADJUST FOR FIRST LENGTH         21420021
 00244E 4410 B560      02478        3276        EX    JA,ROPUT                   MODIFY LGNTH                    21427021
 002452 4F20 D978      009A8        3277          CVB   JB,WORKDA           CONVERT                              21434021
 002456 9104 D35A      0038A        3278          TM    OCCURNUM,XX04       IS AN OCCURS CLAUSE IN EFFECT        21441021
 00245A 4780 B55E      02476        3279          BZ    CNVBNOUT            NO - DONT CHECK FOR 32K MAX          21448021
 00245E 4920 C162      010F2        3280          CH    JB,CON32K           CHECK FOR TOO LARGE NUMBER      9015 21455021
 002462 47D0 B55E      02476        3281          BNH   CNVBNOUT            SIZE OK THEN BRANCH             9015 21462021
 002466 50E0 D8F0      00920        3282          ST    JP,SV1REG           SAVE R14                        9015 21469021
 00246A 45E0 DC7C      00CAC        3283          BAL   JP,MSG140           NUM LIT TOO BIG                 9015 21476021
 00246E 4820 C162      010F2        3284          LH    JB,CON32K           USE MAX SIZE FOR HALFWORD       9015 21483021
 002472 58E0 D8F0      00920        3285          L     JP,SV1REG           RESTORE R14                     9015 21490021
 002476 07FE                        3286 CNVBNOUT BCR   UNCOND,JP           RETURN TO CALLER                9015 21497021
 002478 F870 D978 C6E8 009A8 01678  3287 ROPUT    ZAP   WORKDA,CURBCD+NX2(LX0)    LITERAL TO WORKA               21504021
 00247E 50E0 D8C0      008F0        3288 RDNT11 ST    JP,JPSAV1                 SAVE LINK REGISTER          7869 21511021
 002482 9523 C6E4      01674        3289        CLI   CURCOD,XX23               BCD NAME?                   7869 21518021
 002486 4770 B582      0249A        3290        BC    NOTEQ,RDENT4              NO - RDENT4                 7869 21525021
 00248A 45E0 B000      01F18        3291        BAL   JP,GETWD                  GET WORD                    7869 21532021
 00248E 45E0 CE70      01E00        3292        BAL   JP,LEVENC                 - LEVENC                    7869 21539021
 002492 9130 C6E4      01674        3293        TM    CURCOD,XX30               IS IT MAJOR ZERO?           7869 21546021
 002496 4780 B59A      024B2        3294        BC    ZERO,RDNT22               YES - RDNT22                7869 21553021
 00249A 45E0 DA5C      00A8C        3295 RDENT4 BAL   JP,MSG4                   MSG INVALID WORD            7869 21560021
 00249E 45E0 B000      01F18        3296 RDENT3 BAL   JP,GETWD                  GET WORD                    7869 21567021
 0024A2 45E0 CE70      01E00        3297        BAL   JP,LEVENC                 - LEVENC                    7869 21574021
 0024A6 9130 C6E4      01674        3298        TM    CURCOD,XX30               IS IT MAJOR ZERO?           7869 21581021
 0024AA 4780 B59A      024B2        3299        BC    ZERO,RDNT22               YES - RDNT22                7869 21588021
 0024AE 47F0 B586      0249E        3300        B     RDENT3                    - RDENT3                    7869 21595021
 0024B2 58E0 D8C0      008F0        3301 RDNT22 L     JP,JPSAV1                 RESTORE LINK REGISTER       7869 21602021
 0024B6 07FE                        3302        BCR   UNCOND,JP                 RETURN                      7869 21609021
1PH1A     IKFCBL10                                                                                              PAGE   70
-  LOC  OBJECT CODE    ADDR1 ADDR2  STMT   SOURCE STATEMENT                                       ASM 0201 11.03 02/14/15
0                                   3304 *                                                                       21623021
                                    3305 *****     SEARCH OF ANY CONSTANT ENTRY SIZE TAMER TABLE     *****       21630021
                                    3306 *                                                                       21637021
                                    3307 *    ADDR OF NAME TO BE LOOKED UP MUST BE IN REG JG                     21644021
                                    3308 *    NAME IS IN FORM OF  N/NAME - ONLY'NAME'IS COMPARED                 21651021
                                    3309 *    REG USED JB JC JD JE JF                                            21658021
                                    3310 *    REG JB HAS ADDR OF ENTRY START ON EXIT                             21665021
 0024B8 4140 0022      00022        3311 SCHENV LA    JD,DX34                   DISP OF FIELNAME ENTRY           21672021
 0024BC 4150 0056      00056        3312        LA    JE,ENVSIZ                  SIZE OF ENTRY                   21679021
 0024C0 5860 C844      017D4        3313 SCHENV1 L    JF,ENVCON                 LOAD ENVTBL TIB ADDR       4780  21686021
 0024C4 47F0 B5EC      02504        3314        BC    UNCOND,SCHSCN          -SCHSCN                             21693021
 0024C8 4140 0002      00002        3315 EXTENV LA    JD,DX2                    DISP OF FILENM IN ENTRY          21700021
 0024CC 47F0 B5A8      024C0        3316        B     SCHENV1                   - SCHENV1                  4780  21707021
                                    3317 *                                                                       21714021
                                    3318 *                                                                       21721021
                                    3319 *SCHAPT L    JF,APPCON                 APPTBL TIB                       21728021
                                    3320 *       LA   JE,66                     SIZE OFENTRY                     21735021
                                    3321 *       LA   JD,4                      DISP OF SN  IN ENTRY             21742021
                                    3322 *       B    SCHSCN                    SEARCH TABLE      RY             21749021
                                    3323 *                                                                       21756021
 0024D0                             3324 SCHFNT DS    0H                                                         21763021
 0024D0 5860 C874      01804        3325        L     JF,FNTCON                 FNTBL TIB                        21770021
 0024D4 4150 0030      00030        3326        LA    JE,FNSIZ                  ENTRY SIZE                       21777021
 0024D8 4140 0011      00011        3327        LA    JD,FNWFND                 DISPLACEMENT                     21784021
 0024DC 47F0 B5EC      02504        3328        B     SCHSCN                    SEARCH TBL                       21791021
 0024E0 9523 C6E4      01674        3329 SCHSPN   CLI   CURCOD,XX23              BCD NAME                        21798021
 0024E4 4780 B5D6      024EE        3330        BE    SCHSP2                    YES                              21805021
 0024E8 94BF D34D      0037D        3331          NI    SCHSW,XXBF               NAME NOT FOUND                  21812021
 0024EC 07FE                        3332        BR    JP                    RETURN                               21819021
 0024EE 4140 0003      00003        3333 SCHSP2   LA    JD,DX3                   DISP OF MNEMONIC NAME           21826021
 0024F2 5860 C884      01814        3334 SCHSP1 L     JF,SPNCON                 SPNTBL TIB                       21833021
 0024F6 4150 0022      00022        3335          LA    JE,DX34                   SIZE OF ENTRY                  21840021
 0024FA 47F0 B5EC      02504        3336        B     SCHSCN                SEARCH SCAN                          21847021
                                    3337 *                                                                       21854021
 0024FE 1B44                        3338 SCHSPT SR    JD,JD                     DISP OF WORD IN ENTRY            21861021
 002500 47F0 B5DA      024F2        3339        B     SCHSP1                SCHSP1                               21868021
                                    3340 *****     SEARCH SCAN     *****                                         21875021
                                    3341 *                                                                       21882021
 002504                             3342 SCHSCN DS    0H                                                         21889021
 002504 5866 0000      00000        3343          L     JF,DX0(JF)                ADDR OF TAMM                   21896021
 002508 5826 0000      00000        3344          L     JB,DX0(JF)                ADDR OF START OF TABLE         21903021
 00250C 4124 2000      00000        3345          LA    JB,DX0(JD,JB)             ADDR OF FIELD IN ENTRY         21910021
 002510 4866 0004      00004        3346          LH    JF,DX4(JF)                SIZE OF TABLE                  21917021
 002514 1266                        3347        LTR   JF,JF                      IS TABLE EMPTY                  21924021
 002516 4780 B65A      02572        3348        BC    ZERO,SCHZER                 YES-SCHZER                     21931021
 00251A 4040 D9D4      00A04        3349        STH   JD,SCHSAV                  SAVE ADJ FACTOR                 21938021
 00251E 1B33                        3350        SR    JC,JC                      CLEAR REG                       21945021
 002520 1B44                        3351        SR    JD,JD                      CLEAR REG                       21952021
 002522 9101 C5F9      01589        3352        TM    EXTRSW,XX01               EXT-NM OF RERUN ?          4780  21959021
 002526 4780 B61A      02532        3353        BZ    CCCWTST                   NO - CCCWTST               4780  21966021
 00252A 4140 0007      00007        3354        LA    JD,DX7                    SET UP FOR EX INSTR        4780  21973021
 00252E 47F0 B62E      02546        3355        B     SCHCM2                    - SCHCM2                   4780  21980021
                             02532  3356 CCCWTST EQU  *                                                    4780  21987021
 002532 9101 D355      00385        3357          TM    CCWSW,XX01               CARR-CTL SPEC-NM SW ON          21994021
 002536 4780 B62A      02542        3358        BZ    SCHCM1                    NO                               22001021
1PH1A     IKFCBL10                                                                                              PAGE   71
-  LOC  OBJECT CODE    ADDR1 ADDR2  STMT   SOURCE STATEMENT                                       ASM 0201 11.03 02/14/15
000253A 4140 0002      00002        3359          LA    JD,DX2                   LENGTH OF CARR-CTL NAME         22008021
 00253E 47F0 B62E      02546        3360        B     SCHCM2                SCHCM2                               22015021
 002542 4347 0000      00000        3361 SCHCM1   IC    JD,DX0(JG)               SIZE OF NAME                    22022021
 002546 4040 D9B4      009E4        3362 SCHCM2 STH   JD,SCHPTR                 SAVE SIZE  E                     22029021
 00254A 4440 B646      0255E        3363 SCHCOM EX    JD,SCHCMP                  NAMES EQUAL                     22036021
 00254E 4770 B64C      02564        3364        BC    NOTEQ,SCHNXT                NO-SCHNXT                      22043021
 002552 9640 D34D      0037D        3365 RCDNQL   OI    SCHSW,XX40               YES SET SWITCH ON               22050021
 002556 4030 D9B6      009E6        3366          STH   JC,SCHPTR+NX2             SAVE DISPLACEMENT              22057021
 00255A 47F0 B65E      02576        3367        BC    UNCOND,SCHEXT               -SCHEXT                        22064021
 00255E D500 2000 7000 00000 00000  3368 SCHCMP   CLC   DX0(LX0,JB),DX0(JG)        COMPARE OF'NAME''EX'          22071021
 002564 4125 2000      00000        3369 SCHNXT   LA    JB,DX0(JE,JB)             GET NEXT ADDRESS               22078021
 002568 4135 3000      00000        3370          LA    JC,DX0(JE,JC)             ACCUMULATE SIZE                22085021
 00256C 1936                        3371        CR    JC,JF                      SIZE EQUAL-END OF TABLE         22092021
 00256E 4740 B632      0254A        3372        BC    LO,SCHCOM                   NO-SCHCOM                      22099021
 002572 94BF D34D      0037D        3373 SCHZER   NI    SCHSW,XXBF                NAME NOT FOUND - SWITCH 'OF    22106021
 002576 4B20 D9D4      00A04        3374 SCHEXT SH    JB,SCHSAV                  ADJ ADDR TO START OF ENTRY      22113021
 00257A 07FE                        3375        BCR   UNCOND,JP                   -EXIT                          22120021
                                    3376 *                                                                       22127021
                                    3377 *****     BLNKRT - SET UP CURBCD W/BLANKS IN CURWD     *****            22134021
                                    3378 *                                                                       22141021
 00257C 9240 C6C3      01653        3379 BLNKRT   MVI   CURWD,XX40                SET CURWD (30 BYTES)           22148021
 002580 D21C C6C4 C6C3 01654 01653  3380          MVC   CURWD+NX1(LX29),CURWD        TO BLANKS                   22155021
 002586 4340 C6E5      01675        3381        IC    JD,CURN                    GET LENGTH OF WORD              22162021
 00258A 4120 C6C2      01652        3382        LA    JB,CURCNT                  GET ADDR OF CURCNT              22169021
 00258E 4170 C6E5      01675        3383        LA    JG,CURN                    GET ADDR OF CURN                22176021
 002592 4440 B522      0243A        3384        EX    JD,TXMOVE                  EX - MOVE NAME TO BLANK FIE     22183021
 002596 07FE                        3385        BCR   UNCOND,JP                   -RETURN                        22190021
                                    3386 *                                                                       22197021
                                    3387 *****     GENA-B-R  PUT ON FILE TWO     *****                           22204021
                                    3388 *                                                                       22211021
 002598 4160 C6E4      01674        3389 GENA   LA    JF,CURCOD                  ADDR OF CURCOD TO BE PUT        22218021
 00259C 9003 D884      008B4        3390 GENB   STM   JR,JC,SV4F04                 SAVE REG                      22225021
 0025A0 5810 C814      017A4        3391        L     JA,COSADR                   ADDR OF COS                    22232021
 0025A4 1826                        3392        LR    JB,JF                       PUT TO                         22239021
 0025A6 9101 D354      00384        3393          TM    DDQSW,XX01                QUAL NM TEST SW ON FOR DD      22246021
 0025AA 4770 B6A0      025B8        3394        BC    NOTZER,GENDD               YES - WRITE FILE 3              22253021
 0025AE 0501                        3395        BALR  JR,JA                         FILE                         22260021
 0025B0 22                          3396        DC    X'22'                        TWO                           22267021
 0025B1 00
 0025B2 9803 D884      008B4        3397 GLOAD  LM    JR,JC,SV4F04               RESTORE REGS                    22274021
 0025B6 07FE                        3398        BCR   UNCOND,JP                   -RETURN                        22281021
 0025B8 0501                        3399 GENDD  BALR  JR,JA                      WRITE FILE                      22288021
 0025BA 23                          3400        DC    X'23'                      THREE                           22295021
 0025BB 00
 0025BC 47F0 B69A      025B2        3401        B     GLOAD                      RESTORE & RETURN                22302021
                                    3402 *                                                                       22309021
                                    3403 *                                                                       22316021
                                    3404 *RSTLD -- INITIALIZE LD TEXT AREA                                       22323021
 0025C0                             3405 RSTLD  DS    0H                                                         22330021
 0025C0 D7E2 D422 D422 00452 00452  3406        XC    LDN(LDLNGT),LDN           ZERO OUT LDTEXT AREA             22337021
 0025C6 D201 D424 C6E2 00454 01672  3407        MVC   LDCDN,CURGCN               CARD NO TO LD TEXT              22344021
 0025CC 07FE                        3408        BCR   UNCOND,JP             RETURN                               22351021
                                    3409 *                                                                       22358021
 0025CE                             3410 CLRTBL DS    0H                         CLEAR TABLES                    22365021
 0025CE 5811 0000      00000        3411          L     JA,DX0(JA)                                               22372021
1PH1A     IKFCBL10                                                                                              PAGE   72
-  LOC  OBJECT CODE    ADDR1 ADDR2  STMT   SOURCE STATEMENT                                       ASM 0201 11.03 02/14/15
00025D2 D201 1004 C14C 00004 010DC  3412          MVC   DX4(LX2,JA),HWZERO                                       22379021
 0025D8 07FE                        3413        BCR   UNCOND,JP             RETURN                               22386021
                                    3414 *                                                                       22393021
                                    3415 *      GENERATE UNIQUE DATA-NAME                                        22400021
 0025DA                             3416 GENNM  DS    0H                                                         22407021
 0025DA D503 B6F4 B6F8 0260C 02610  3417          CLC   GENID1(LX4),GENCON                                       22414021
 0025E0 4720 B6DE      025F6        3418        BC    HI,GENCHG             GENGCH                               22421021
 0025E4 FA20 B6FC B6FF 02614 02617  3419 GENNM1   AP    GENVAL(LX3),GENSTP(LX1)                                  22428021
 0025EA F332 B6F4 B6FC 0260C 02614  3420          UNPK  GENID1(LX4),GENVAL(LX3)                                  22435021
 0025F0 96F0 B6F7      0260F        3421          OI    GENID1+NX3,XXF0                                          22442021
 0025F4                             3422 GENXIT DS    0H                                                         22449021
 0025F4 07FE                        3423        BCR   UNCOND,JP             RETURN                               22456021
 0025F6 924E B6F3      0260B        3424 GENCHG   MVI   GENID,XX4E                                               22463021
 0025FA D703 B6F4 B6F4 0260C 0260C  3425          XC    GENID1(LX4),GENID1                                       22470021
 002600 47F0 B6CC      025E4        3426        BC    UNCOND,GENNM1         GEN UNIQUE DATA NAME                 22477021
 002604                             3427 GENSV  DS    F                     GENSAV AREA                          22484021
 002608 00                          3428        DC    X'00'                 GEN CON                              22491021
 002609 23                          3429 GENIC  DC    X'23'                 BCD CON                              22498021
 00260A 05                          3430 GENLD  DC    X'05'                 LD CON                               22505021
 00260B 60                          3431 GENID  DC    C'-'                  ID CON                               22512021
 00260C 00000000                    3432 GENID1 DC    X'00000000'           4-BYTE FIELD                         22519021
 002610 F9F9F9F9                    3433 GENCON DC    X'F9F9F9F9'           4-BYTE FIELD                         22526021
 002614 00000C                      3434 GENVAL DC    X'00000C'             3-BYTE FIELD                         22533021
 002617 1C                          3435 GENSTP DC    X'1C'                 CON                                  22540021
                                    3436 *                                                                       22547021
                                    3437 ***GENERATE UNIQUE E.NNNN NAME                                          22554021
                                    3438 *                                                                       22561021
 002618                             3439 EPTGN  DS    0H                                                         22568021
 002618 FA20 CC9C B6FF 01C2C 02617  3440          AP    EPTVAL(LX3),GENSTP(LX1)                                  22575021
 00261E F332 CC98 CC9C 01C28 01C2C  3441          UNPK  EPTID1(LX4),EPTVAL(LX3)                                  22582021
 002624 96F0 CC9B      01C2B        3442          OI    EPTID1+NX3,XXF0                                          22589021
 002628 07FE                        3443        BR    JP                        RETURN                           22596021
                                    3444 *                                                                       22603021
                                    3445 ***GENERATE UNIQUE N.NNNN NAME                                          22610021
                                    3446 *                                                                       22617021
 00262A                             3447 NPTGN  DS    0H                                                         22624021
 00262A FA20 CCA7 B6FF 01C37 02617  3448          AP    NPTVAL(LX3),GENSTP(LX1)                                  22631021
 002630 F332 CCA3 CCA7 01C33 01C37  3449          UNPK  NPTID1(LX4),NPTVAL(LX3)                                  22638021
 002636 96F0 CCA6      01C36        3450          OI    NPTID1+NX3,XXF0                                          22645021
 00263A 07FE                        3451        BR    JP                        RETURN                           22652021
                                    3452 *                                                                       22659021
                                    3453 ***GENERATE UNIQUE S.NNNN NAME                                          22666021
                                    3454 *                                                                       22673021
 00263C                             3455 SPTGN  DS    0H                                                         22680021
 00263C FA20 CCB2 B6FF 01C42 02617  3456          AP    SPTVAL(LX3),GENSTP(LX1)                                  22687021
 002642 F332 CCAE CCB2 01C3E 01C42  3457          UNPK  SPTID1(LX4),SPTVAL(LX3)                                  22694021
 002648 96F0 CCB1      01C41        3458          OI    SPTID1+NX3,XXF0                                          22701021
 00264C 07FE                        3459        BR    JP                        RETURN                           22708021
                                    3460 *                                                                       22715021
                                    3461 *GENERATE UNIQUE GN FOR PROCEDURE NAME                                  22722021
                                    3462 *                                                                       22729021
 00264E 5810 C814      017A4        3463 GNGN   L     JA,COSADR                                                  22736021
 002652 4830 115E      0015E        3464        LH    JC,GNCTR                                                   22743021
 002656 4133 0001      00001        3465          LA    JC,DX1(JC)                                               22750021
 00265A 4030 115E      0015E        3466        STH   JC,GNCTR                                                   22757021
1PH1A     IKFCBL10                                                                                              PAGE   73
-  LOC  OBJECT CODE    ADDR1 ADDR2  STMT   SOURCE STATEMENT                                       ASM 0201 11.03 02/14/15
000265E 4030 CCC4      01C54        3467        STH   JC,GPTID1                                                  22764021
 002662 07FE                        3468        BCR   UNCOND,JP             RETURN                               22771021
                                    3469 *                                                                       22778021
                                    3470 *** GENERATE UNIQUE GP.NNNN NAME                                        22785021
 002664                             3471 GRPTGN DS    0H                                                         22792021
 002664 FA20 CCBE B6FF 01C4E 02617  3472          AP    GRPVAL(LX3),GENSTP(LX1)                                  22799021
 00266A F332 CCBA CCBE 01C4A 01C4E  3473          UNPK  GRPID1(LX4),GRPVAL(LX3)                                  22806021
 002670 96F0 CCBD      01C4D        3474          OI    GRPID1+NX3,XXF0                                          22813021
 002674 4830 CD22      01CB2        3475        LH    JC,GCOUNT                                                  22820021
 002678 4133 0001      00001        3476          LA    JC,DX1(JC)                                               22827021
 00267C 4030 CD22      01CB2        3477        STH   JC,GCOUNT                                                  22834021
 002680 07FE                        3478        BR    JP                        RETURN                           22841021
                                    3479 *                                                                       22848021
                                    3480 *REPORT CALL G.NNNN                                                     22855021
                                    3481 *  G.NNN IS IN RCGN - ROUTINE GENERATES RPT-CALL G.NNN ON FILE-2        22862021
 002682                             3482 GNRCLL DS    0H                                                         22869021
 002682 4120 CCC7      01C57        3483        LA    JB,RCALL                                                   22876021
 002686 1733                        3484        XR    JC,JC                                                      22883021
 002688 4330 CCC6      01C56        3485        IC    JC,PUTCT3                                                  22890021
 00268C                             3486 GNRCL1 DS    0H                                                         22897021
 00268C 50E0 D8AC      008DC        3487        ST    JP,JPSAVE                 SAVE RETURN                      22904021
 002690 45E0 B790      026A8        3488        BAL   JP,RPTN               RPTN                                 22911021
 002694 58E0 D8AC      008DC        3489        L     JP,JPSAVE                                                  22918021
 002698 07FE                        3490        BCR   UNCOND,JP             RETURN                               22925021
                                    3491 *                                                                       22932021
                                    3492 *GO TO G.NNNN                                                           22939021
                                    3493 *  G.NNNN IS IN GOGN - ROUTINE GENERATES GO TO G.NNN ON FILE-2          22946021
 00269A                             3494 GNGO   DS    0H                                                         22953021
 00269A 4120 CCCD      01C5D        3495        LA    JB,GOGEN                                                   22960021
 00269E 1733                        3496        XR    JC,JC                                                      22967021
 0026A0 4330 CCCC      01C5C        3497        IC    JC,PUTCT4                                                  22974021
 0026A4 47F0 B774      0268C        3498        BC    UNCOND,GNRCL1              GO TO GENRL PUT N               22981021
                                    3499 *                                                                       22988021
                                    3500 *RPTN  RW PUTN                                                          22995021
 0026A8                             3501 RPTN   DS    0H                                                         23002021
                                    3502 *                                                                       23009021
 0026A8 5810 C814      017A4        3503        L     JA,COSADR                                                  23016021
 0026AC 0501                        3504        BALR  JR,JA                 PHASE 0                              23023021
 0026AE 12                          3505        DC    X'12'                                                      23030021
 0026AF 00
 0026B0 07FE                        3506        BCR   UNCOND,JP             RETURN                               23037021
                                    3507 *GEN NOP AT START OF 01 ROUTINE CODE                                    23044021
 0026B2                             3508 GNOP   DS    0H                                                         23051021
 0026B2 50E0 D8B8      008E8        3509        ST    JP,JPNOPS                                                  23058021
 0026B6 4160 CB3D      01ACD        3510        LA    JF,RNOP                                                    23065021
 0026BA                             3511 GNOPX  DS    0H                                                         23072021
 0026BA 45E0 B684      0259C        3512        BAL   JP,GENB               PUT ON FILE 2                        23079021
 0026BE 58E0 D8B8      008E8        3513        L     JP,JPNOPS                                                  23086021
 0026C2 07FE                        3514        BCR   UNCOND,JP             RETURN                               23093021
                                    3515 *                                                                       23100021
                                    3516 *RW COMMON ROUTINES                                                     23107021
                                    3517 *                                                                       23114021
                                    3518 *GENERATE 'IF'                                                          23121021
 0026C4                             3519 GNIF   DS    0H                                                         23128021
 0026C4 4160 A02A      02C1A        3520        LA    JF,IFCON                                                   23135021
1PH1A     IKFCBL10                                                                                              PAGE   74
-  LOC  OBJECT CODE    ADDR1 ADDR2  STMT   SOURCE STATEMENT                                       ASM 0201 11.03 02/14/15
00026C8                             3521 CGNXIT DS    0H                                                         23142021
 0026C8 50E0 D8C0      008F0        3522        ST    JP,JPSAV1                 SAVE RETURN                      23149021
 0026CC 45E0 B684      0259C        3523        BAL   JP,GENB                   GEN -                            23156021
 0026D0 58E0 D8C0      008F0        3524        L     JP,JPSAV1                                                  23163021
 0026D4 07FE                        3525        BCR   UNCOND,JP             RETURN                               23170021
                                    3526 *GENERATE 'RPT-NM'                                                      23177021
 0026D6                             3527 GNRPN  DS    0H                                                         23184021
 0026D6 4160 C973      01903        3528        LA    JF,CURRD                                                   23191021
 0026DA 47F0 B7B0      026C8        3529        BC    UNCOND,CGNXIT         CGNXIT                               23198021
                                    3530 *GENERATE GREATER THAN                                                  23205021
 0026DE                             3531 GNGRTH DS    0H                                                         23212021
 0026DE 4160 A5D2      031C2        3532        LA    JF,GRTCON                                                  23219021
 0026E2 47F0 B7B0      026C8        3533        BC    UNCOND,CGNXIT         CGNXIT                               23226021
                                    3534 *GENERATE LINE-COUNTER                                                  23233021
 0026E6                             3535 GNLCTR DS    0H                                                         23240021
 0026E6 4160 CBBF      01B4F        3536        LA    JF,LINCN                  GEN LINE-COUNTER                 23247021
 0026EA 47F0 B7B0      026C8        3537        BC    UNCOND,CGNXIT         CGNXIT                               23254021
                                    3538 * GENERATE PAGE-COUNTER                                                 23261021
 0026EE                             3539 GNPCTR DS    0H                                                         23268021
 0026EE 4160 CBB1      01B41        3540        LA    JF,PAGCN                  GEN                              23275021
 0026F2 47F0 B7B0      026C8        3541        B     CGNXIT                        PAGE-COUNTER                 23282021
                                    3542 *GENERATE MOVE                                                          23289021
 0026F6                             3543 GNMOVE DS    0H                                                         23296021
 0026F6 4160 A1C4      02DB4        3544        LA    JF,MOVECN                                                  23303021
 0026FA 47F0 B7B0      026C8        3545        BC    UNCOND,CGNXIT         CGNXIT                               23310021
                                    3546 *GENERATE TO                                                            23317021
 0026FE                             3547 GNTO   DS    0H                                                         23324021
 0026FE 4160 A06B      02C5B        3548        LA    JF,TOCON                                                   23331021
 002702 47F0 B7B0      026C8        3549        BC    UNCOND,CGNXIT         CGNXIT                               23338021
                                    3550 *GENERATE PERIOD                                                        23345021
 002706                             3551 GNPER  DS    0H                                                         23352021
 002706 4160 C58D      0151D        3552        LA    JF,EOSCON                                                  23359021
 00270A 47F0 B7B0      026C8        3553        BC    UNCOND,CGNXIT         CGNXIT                               23366021
                                    3554 *GENERATE LESS THAN                                                     23373021
 00270E                             3555 GNLSTH DS    0H                                                         23380021
 00270E 4160 A1A8      02D98        3556        LA    JF,LESCON                                                  23387021
 002712 47F0 B7B0      026C8        3557        BC    UNCOND,CGNXIT         CGNXIT                               23394021
                                    3558 *GENERATE XXX.XXX                                                       23401021
 002716                             3559 GNXPX  DS    0H                                                         23408021
 002716 50E0 D8B8      008E8        3560        ST    JP,JPNOPS                  ***EXIT VIA GNOP ROUT           23415021
 00271A D207 CCEB 3000 01C7B 00000  3561          MVC   XPXOUT+NX1(LX8),DX0(JC)                                  23422021
 002720 45E0 B7BE      026D6        3562        BAL   JP,GNRPN                   GEN RPT-NAME                    23429021
 002724 4160 CCEA      01C7A        3563        LA    JF,XPXOUT                                                  23436021
 002728 47F0 B7A2      026BA        3564        BC    UNCOND,GNOPX          GNOPX                                23443021
                                    3565 *GENERATE ADD                                                           23450021
 00272C                             3566 GNADD  DS    0H                                                         23457021
 00272C 4160 A076      02C66        3567        LA    JF,ADDCN                                                   23464021
 002730 47F0 B7B0      026C8        3568        BC    UNCOND,CGNXIT         CGNXIT                               23471021
                                    3569 *GENERATE ONE                                                           23478021
 002734                             3570 GNONE  DS    0H                                                         23485021
 002734 4160 CBDB      01B6B        3571        LA    JF,ICONE                                                   23492021
 002738 47F0 B7B0      026C8        3572        BC    UNCOND,CGNXIT         CGNXIT                               23499021
                                    3573 *GENERATE ZERO                                                          23506021
 00273C                             3574 GNZER  DS    0H                                                         23513021
 00273C 4160 A26C      02E5C        3575        LA    JF,ZECON                                                   23520021
1PH1A     IKFCBL10                                                                                              PAGE   75
-  LOC  OBJECT CODE    ADDR1 ADDR2  STMT   SOURCE STATEMENT                                       ASM 0201 11.03 02/14/15
0002740 47F0 B7B0      026C8        3576        BC    UNCOND,CGNXIT         CGNXIT                               23527021
                                    3577 *GENERATE EQUAL                                                         23534021
 002744                             3578 GNEQ   DS    0H                                                         23541021
 002744 4160 A2E4      02ED4        3579        LA    JF,EQCON                                                   23548021
 002748 47F0 B7B0      026C8        3580        BC    UNCOND,CGNXIT         CGNXIT                               23555021
                                    3581 *GENERATE ELSE                                                          23562021
 00274C                             3582 GNELSE DS    0H                                                         23569021
 00274C 4160 A170      02D60        3583        LA    JF,ELSCON                                                  23576021
 002750 47F0 B7B0      026C8        3584        BC    UNCOND,CGNXIT         CGNXIT                               23583021
                                    3585 *                                                                       23590021
                                    3586 *      GTLVIC WITH ADR OF 1 BYTE NO IN JD GENERATE AS DEC IC TEXT       23597021
 002754                             3587 GTLVIC DS    0H                         GEN CT LV NO AS IC TXT          23604021
 002754 50E0 CD00      01C90        3588        ST    JP,JPGTLV                                                  23611021
 002758 D701 CC78 CC78 01C08 01C08  3589        XC    NPTEMP,NPTEMP              CLEAR FIELD HW                  23618021
 00275E D200 CC79 4000 01C09 00000  3590          MVC   NPTEMP+NX1(LX1),DX0(JD)     MOVE LV 1 CHR TO HW          23625021
 002764 4850 CC78      01C08        3591        LH    JE,NPTEMP                  LOAD FIELD                      23632021
 002768 4E50 CC80      01C10        3592        CVD   JE,NPLDVL                  CONVERT TO DEC                  23639021
 00276C D201 CD78 CC86 01D08 01C16  3593          MVC   SCTLIC+NX4(LX2),NPLDVL+NX6 MOVE TO IC TEXT AREA          23646021
 002772 4160 CD74      01D04        3594        LA    JF,SCTLIC                  GEN LV AS IC TEXT               23653021
 002776 45E0 B684      0259C        3595        BAL   JP,GENB               PUT ON FILE 2                        23660021
 00277A 58E0 CD00      01C90        3596        L     JP,JPGTLV                  EXIT                            23667021
 00277E 07FE                        3597        BCR   UNCOND,JP             RETURN                               23674021
                                    3598 *                                                                       23681021
                                    3599 *DONPT -PREPARE TO GENERATE N. NAME - PUT N.NAME + COUNT IN TABLE       23688021
 002780                             3600 DONPT  DS    0H                                                         23695021
 002780 50E0 D8B4      008E4        3601        ST    JP,JPNPTS                                                  23702021
 002784 4140 0008      00008        3602          LA    JD,DX8(JR)                                               23709021
 002788 5820 C8D4      01864        3603        L     JB,NPTCON                                                  23716021
 00278C 4175 0000      00000        3604          LA    JG,DX0(JE)                                               23723021
 002790 45E0 B464      0237C        3605        BAL   JP,MVSERT             CALL INSERT FOR SPEC TAMER TBL       23730021
 002794 58E0 D8B4      008E4        3606        L     JP,JPNPTS                                                  23737021
 002798 07FE                        3607        BCR   UNCOND,JP             RETURN                               23744021
                                    3608 *                                                                       23751021
                                    3609 ***    INSERT ENTRY INTO ROUTBL                                         23758021
 00279A 50E0 DBBC      00BEC        3610 INSROU ST    JP,JPINSV                                                  23765021
 00279E 4140 0030      00030        3611          LA    JD,DX48(JR)              LENGTH OF ENTRY                 23772021
 0027A2 5820 C8C4      01854        3612        L     JB,ROUCON                                                  23779021
 0027A6 4170 CB3F      01ACF        3613        LA    JG,GNRH                                                    23786021
 0027AA 45E0 B464      0237C        3614        BAL   JP,MVSERT             CALL INSERT FOR SPEC TAMER TBL       23793021
 0027AE 5810 C8AC      0183C        3615        L     JA,RWRCON                  RWRTBL TIB                      23800021
 0027B2 5811 0000      00000        3616          L     JA,DX0(JA)                TAMM                           23807021
 0027B6 5811 0000      00000        3617          L     JA,DX0(JA)                START OF TBL                   23814021
 0027BA 4830 C9A0      01930        3618        LH    JC,DRWDSP                  GET RD NM DISPL IN RWRTBL       23821021
 0027BE 4121 302E      0002E        3619          LA    JB,DX46(JA,JC)           ADDR OF PTR TO ROUT TBL         23828021
 0027C2 D201 2000 C9A2 00000 01932  3620          MVC   DX0(LX2,JB),RRWDSP         MOVE ROUT ENT DISPL TO 'JB'   23835021
 0027C8 4830 C9A2      01932        3621        LH    JC,RRWDSP                  GET LAST DISP                   23842021
 0027CC 4133 0030      00030        3622          LA    JC,DX48(JC)              STEP ROUT ENTRY DISPL           23849021
 0027D0 4030 C9A2      01932        3623        STH   JC,RRWDSP                                                  23856021
 0027D4 58E0 DBBC      00BEC        3624        L     JP,JPINSV                                                  23863021
 0027D8 07FE                        3625        BCR   UNCOND,JP             RETURN                               23870021
                                    3626 *                                                                       23877021
                                    3627 *GET N.NAMES FROM TABLE AND GENERATE LD TEXT                            23884021
                                    3628 *                                                                       23891021
 0027DA                             3629 GNLDNP DS    0H                                                         23898021
 0027DA 50E0 D8B4      008E4        3630        ST    JP,JPNPTS                                                  23905021
1PH1A     IKFCBL10                                                                                              PAGE   76
-  LOC  OBJECT CODE    ADDR1 ADDR2  STMT   SOURCE STATEMENT                                       ASM 0201 11.03 02/14/15
00027DE 5810 C8D4      01864        3631        L     JA,NPTCON                  NPTTBL TIB                      23912021
 0027E2 45E0 BCC2      02BDA        3632        BAL   JP,TBLNIT                   GET START ETC.                 23919021
 0027E6 4780 B916      0282E        3633        BC    ZERO,NPTXIT                NO ENTRIES                      23926021
 0027EA 4122 1000      00000        3634          LA    JB,DX0(JB,JA)             LAST ENT IN TBL                23933021
 0027EE D205 CC66 1000 01BF6 00000  3635 GNLDN1   MVC   NPTNM(LX6),DX0(JA)         PUT NAME FROM TBL IN LD TXT   23940021
 0027F4 D201 CC78 1006 01C08 00006  3636          MVC   NPTEMP(LX2),DX6(JA)                                      23947021
 0027FA 4850 CC78      01C08        3637        LH    JE,NPTEMP                                                  23954021
 0027FE 4E50 CC80      01C10        3638        CVD   JE,NPLDVL                                                  23961021
 002802 F311 CC73 CC86 01C03 01C16  3639          UNPK  NPTV(LX2),NPLDV1(LX2)     N.NM LINES VALUE               23968021
 002808 5010 D8D0      00900        3640        ST    JA,JDSAV1                  SVE JA ALSO USED TO SVE JD      23975021
 00280C 5020 D8B0      008E0        3641        ST    JB,JPNGPS                  SAVE JB ALSO USED TO >AVE J     23982021
 002810 5810 C814      017A4        3642        L     JA,COSADR                                                  23989021
 002814 4120 CC59      01BE9        3643        LA    JB,NPLDTX                                                  23996021
 002818 0501                        3644        BALR  JR,JA                 PHASE 0                              24003021
 00281A 23                          3645        DC    X'23'                                                      24010021
 00281B 00
 00281C 5810 D8D0      00900        3646        L     JA,JDSAV1                  RESET JA                        24017021
 002820 5820 D8B0      008E0        3647        L     JB,JPNGPS                  RESET JB                        24024021
 002824 4111 0008      00008        3648          LA    JA,DX8(JA)                GET NEXT ENTRY                 24031021
 002828 1912                        3649        CR    JA,JB                                                      24038021
 00282A 4740 B8D6      027EE        3650        BC    LO,GNLDN1             GNLON1                               24045021
 00282E                             3651 NPTXIT DS    0H                                                         24052021
                                    3652 *      CLEAR N.NAME TABLE FOR NEXT RD                                   24059021
 00282E 5810 C8D4      01864        3653        L     JA,NPTCON                  NPTTBL TIB                      24066021
 002832 5811 0000      00000        3654          L     JA,DX0(JA)                NPTTBL TAMM                    24073021
 002836 D201 1004 C14C 00004 010DC  3655          MVC   DX4(LX2,JA),HWZERO         SET DISP TO ZERO              24080021
 00283C 58E0 D8B4      008E4        3656        L     JP,JPNPTS                                                  24087021
 002840 07FE                        3657        BCR   UNCOND,JP             RETURN                               24094021
                                    3658 *                                                                       24101021
 002842                             3659 GNGPLD DS    0H                                                         24108021
                                    3660 *                                                                       24115021
                                    3661 * GEN GP.NNNN NAMES                                                     24122021
                                    3662 * GCOUNT HAS NUMBER OF NAMES                                            24129021
                                    3663 *                                                                       24136021
 002842 50E0 D8B4      008E4        3664        ST    JP,JPNPTS                 SAVE RETURN                      24143021
 002846 4120 CC27      01BB7        3665        LA    JB,GRPIND                 GEN 01 GRP.IND                   24150021
 00284A 5810 C814      017A4        3666        L     JA,COSADR                                                  24157021
 00284E 0501                        3667        BALR  JR,JA                 PHASE 0                              24164021
 002850 23                          3668        DC    X'23'                                                      24171021
 002851 00
 002852 4850 CD22      01CB2        3669        LH    JE,GCOUNT                 NUMBER OF GP.NNNN NAMES          24178021
 002856 4120 CC3F      01BCF        3670        LA    JB,GRPNNN                 ADDR OF LD TEXT FOR GP.NNNN      24185021
 00285A 1255                        3671        LTR   JE,JE                     ANY GROUP INDICATES              24192021
 00285C 4720 B960      02878        3672        BC    POS,GNGP12                YES..CONTINUE                    24199021
 002860 4150 0001      00001        3673          LA    JE,DX1(JR)               NO...MAKE ONE ENTRY             24206021
 002864 47F0 B956      0286E        3674        BC    UNCOND,GNGP11             GO GEN                           24213021
 002868                             3675 GNGP10 DS    0H                                                         24220021
 002868 FB20 CCBE B6FF 01C4E 02617  3676          SP    GRPVAL(LX3),GENSTP(LX1)  SUBTRACT 1                      24227021
 00286E                             3677 GNGP11 DS    0H                                                         24234021
 00286E F332 CCBA CCBE 01C4A 01C4E  3678          UNPK  GRPID1(LX4),GRPVAL(LX3)  UNPACK                          24241021
 002874 96F0 CCBD      01C4D        3679          OI    GRPID1+NX3,XXF0          SET SIGN POSITIVE               24248021
 002878                             3680 GNGP12 DS    0H                                                         24255021
 002878 D203 CC4F CCBA 01BDF 01C4A  3681          MVC   GPNAME+NX3(LX4),GRPID1    NNNN TO GPNAME                 24262021
 00287E 5810 C814      017A4        3682        L     JA,COSADR                                                  24269021
 002882 0501                        3683        BALR  JR,JA                 PHASE 0                              24276021
1PH1A     IKFCBL10                                                                                              PAGE   77
-  LOC  OBJECT CODE    ADDR1 ADDR2  STMT   SOURCE STATEMENT                                       ASM 0201 11.03 02/14/15
0002884 23                          3684        DC    X'23'                 BCD CONSTANT                         24283021
 002885 00
 002886 4650 B950      02868        3685        BCT   JE,GNGP10                 GEN AS MANY AS NEEDED            24290021
 00288A 58E0 D8B4      008E4        3686        L    JP,JPNPTS                  RETURN                           24297021
 00288E 07FE                        3687        BCR   UNCOND,JP                    ON JP                         24304021
                                    3688 *                                                                       24311021
 002890 50E0 CDE4      01D74        3689 SUM45  ST    JP,SM45SV                  SAVE LINK REG                   24318021
 002894 5810 C8DC      0186C        3690        L     JA,SUMCON                  SUMTBL TIB                      24325021
 002898 5821 0000      00000        3691          L     JB,DX0(JA)                TAMM                           24332021
 00289C 5822 0000      00000        3692          L     JB,DX0(JB)                START                          24339021
 0028A0 4A20 CDE8      01D78        3693        AH    JB,LSTSUM                  ADR OF LAST ENTRY               24346021
 0028A4 D201 2000 CE8A 00000 01E1A  3694          MVC   DX0(LX2,JB),NXASUM         STORE PTR TO NEXT ENTRY       24353021
                                    3695 *                                                                       24360021
 0028AA 9200 1000      00000        3696          MVI   DX0(JA),XX00              SET TIB N TO 0                 24367021
 0028AE 4100 002D      0002D        3697          LA    JR,DX45(JR)                SIZE OF ENTRY TO REG JR       24374021
 0028B2 4000 CE8A      01E1A        3698        STH   JR,NXASUM                  SET NXASUM TO 45                24381021
 0028B6 58F0 C81C      017AC        3699        L     JQ,ADSERT                  ADR OF INSERT                   24388021
 0028BA 05EF                        3700        BALR  JP,JQ                      -INSERT                         24395021
 0028BC 58F0 D838      00868        3701          L     JQ,SVREG+NX56             RESTORE                        24402021
 0028C0 4030 CDE8      01D78        3702        STH   JC,LSTSUM                  SAVE PTR TO ENTRY               24409021
 0028C4 D201 2000 C14C 00000 010DC  3703          MVC   DX0(LX2,JB),HWZERO         CLEAR PTR TO NEXT ENTRY IN    24416021
 0028CA 58E0 CDE4      01D74        3704        L     JP,SM45SV                  RESTORE LINK REG                24423021
 0028CE 07FE                        3705        BCR   UNCOND,JP             RETURN                               24430021
                                    3706 *                                                                       24437021
 0028D0 50E0 CDE4      01D74        3707 SUM02  ST    JP,SM45SV                  SAVE LINK REG                   24444021
 0028D4 5810 C8DC      0186C        3708        L     JA,SUMCON                  SUMTBL TIB                      24451021
 0028D8 4100 0002      00002        3709          LA    JR,DX2(JR)                 SIZE OF ENTRY TO REG JR       24458021
 0028DC 58F0 C81C      017AC        3710        L     JQ,ADSERT                  ADR OF INSERT                   24465021
 0028E0 05EF                        3711        BALR  JP,JQ                      -INSERT                         24472021
 0028E2 58F0 D838      00868        3712          L     JQ,SVREG+NX56             RESTORE                        24479021
 0028E6 D201 2000 CDCA 00000 01D5A  3713          MVC   DX0(LX2,JB),SAVDSP        STORE PTR IN TBL               24486021
 0028EC 4810 CE8A      01E1A        3714        LH    JA,NXASUM                  ADD TWO                         24493021
 0028F0 4111 0002      00002        3715          LA    JA,DX2(JA)                 TO                            24500021
 0028F4 4010 CE8A      01E1A        3716        STH   JA,NXASUM                    NXASUM                        24507021
 0028F8 58E0 CDE4      01D74        3717        L     JP,SM45SV                  RESTORE LINK REG                24514021
 0028FC 07FE                        3718        BCR   UNCOND,JP                   -RETURN                        24521021
                                    3719 *                                                                       24528021
 0028FE 5820 C8DC      0186C        3720 SUMPON L     JB,SUMCON                  SUMTBL TIB                      24535021
 002902 5822 0000      00000        3721          L     JB,DX0(JB)                TAMM                           24542021
 002906 5822 0000      00000        3722          L     JB,DX0(JB)                START                          24549021
 00290A 4122 0000      00000        3723          LA    JB,DX0(JB)                CLEAR FOR ADD                  24556021
 00290E 4A20 CDE8      01D78        3724        AH    JB,LSTSUM                  ADR OF LAST ENTRY               24563021
 002912 07FE                        3725        BCR   UNCOND,JP             RETURN                               24570021
                                    3726 *                                                                       24577021
                                    3727 *                                                                       24584021
                                    3728 * PUT QUAL-NAME IN QALTBL AND RETURN PTR IN QXPTR HW                    24591021
                                    3729 *                                                                       24598021
 002914 50E0 CD04      01C94        3730 QRTN1  ST    JP,JPQLSV                  SAVE LINK REG                   24605021
 002918 5820 C8E4      01874        3731        L     JB,QALCON                  QALTBL TIB                      24612021
 00291C 9620 D34E      0037E        3732          OI    INSRSW,XX20               SET 'ON' INSRSW                24619021
 002920 45E0 B410      02328        3733        BAL   JP,MVQLCK                  -MVQLCK                         24626021
 002924 D201 CD86 D9D2 01D16 00A02  3734          MVC   QXPTR(LX2),PONTER         SAVE PTR TO ENTRY              24633021
 00292A 58E0 CD04      01C94        3735        L     JP,JPQLSV                  RESTORE LINK REG                24640021
 00292E 07FE                        3736        BCR   UNCOND,JP                   -RETURN                        24647021
                                    3737 *                                                                       24654021
1PH1A     IKFCBL10                                                                                              PAGE   78
-  LOC  OBJECT CODE    ADDR1 ADDR2  STMT   SOURCE STATEMENT                                       ASM 0201 11.03 02/14/15
0                                   3738 * GEN OUT QUAL-NAME AS 22,22,- - ,23 FROM QALTBL, USING PTR IN QXPT     24661021
                                    3739 *                                                                       24668021
 002930 50E0 CD04      01C94        3740 QRTN2  ST    JP,JPQLSV                  SAVE LINK REG                   24675021
 002934 5870 C8E4      01874        3741        L     JG,QALCON                  QALTBL TIB                      24682021
 002938 5877 0000      00000        3742          L     JG,DX0(JG)                TAMM                           24689021
 00293C 5877 0000      00000        3743          L     JG,DX0(JG)                START                          24696021
 002940 4177 0000      00000        3744          LA    JG,DX0(JG)                CLEAR FOR ADD                  24703021
 002944 4A70 CD86      01D16        3745        AH    JG,QXPTR                   ADR OF ENTRY                    24710021
 002948 4160 D7D3      00803        3746        LA    JF,PNQLCD                  ADR OF 22 FIELD FOR GENB        24717021
 00294C 4120 D7D4      00804        3747        LA    JB,PNBCDQ                  ADR OF N IN FIELD               24724021
 002950 1744                        3748        XR    JD,JD                      CLEAR JD                        24731021
 002952 4347 0000      00000        3749 QRTN2A   IC    JD,DX0(JG)                GET N                          24738021
 002956 4154 7001      00001        3750          LA    JE,DX1(JD,JG)             ADR OF NEXT N                  24745021
 00295A 4440 BAAA      029C2        3751        EX    JD,RDXMOV                  MOVE N AND NAME TO 22 FIELD     24752021
 00295E 4144 0001      00001        3752          LA    JD,DX1(JD)               ADD 1 FOR MOVE                  24759021
 002962 4111 0001      00001        3753          LA    JA,DX1(JA)               ADD 1 TO NUM OF DATA-NMS        24766021
 002966 9500 5000      00000        3754          CLI   DX0(JE),XX00              IS IT ZERO                     24773021
 00296A 4780 BA76      0298E        3755        BC    EQ,QRTN2B                   YES-QRTN2B                     24780021
 00296E 9140 D364      00394        3756          TM    INDOCT,XX40              IN DOCTL ROUT                   24787021
 002972 4780 BA6C      02984        3757        BC    ZERO,QRTN21               NO...DO GENB                     24794021
 002976 4440 BAB0      029C8        3758        EX    JD,RDXMV                  MOVE TO TBL                      24801021
 00297A 4134 3001      00001        3759          LA    JC,DX1(JD,JC)            POINT TO START OF NXT ENTRY     24808021
 00297E 1744                        3760        XR    JD,JD                                                      24815021
 002980 47F0 BA70      02988        3761        BC    UNCOND,QRTN22             GO FINISH                        24822021
 002984                             3762 QRTN21 DS    0H                                                         24829021
 002984 45E0 B684      0259C        3763        BAL   JP,GENB                    -GENB     22 WORD               24836021
 002988                             3764 QRTN22 DS    0H                                                         24843021
 002988 1875                        3765        LR    JG,JE                      ADR OF NEXT N                   24850021
 00298A 47F0 BA3A      02952        3766        BC    UNCOND,QRTN2A               -QRTN2A                        24857021
 00298E 9223 6000      00000        3767 QRTN2B   MVI   DX0(JF),XX23              MAKE CODE 23                   24864021
 002992 9140 D364      00394        3768          TM    INDOCT,XX40              IN DOCTL ROUT                   24871021
 002996 4780 BA9C      029B4        3769        BC    ZERO,QRTN23               NO...DO GENB                     24878021
 00299A 4440 BAB0      029C8        3770        EX    JD,RDXMV                  YES..DO MOVE OF 23...            24885021
 00299E 5820 C8B4      01844        3771        L     JB,CTLCON                 CTLTBL TIB                       24892021
 0029A2 5822 0000      00000        3772          L     JB,DX0(JB)               TAMM                            24899021
 0029A6 4832 0004      00004        3773          LH    JC,DX4(JB)               DISPLACEMENT                    24906021
 0029AA 1A13                        3774        AR    JA,JC                     ADD NUM OF DATA-NMS              24913021
 0029AC 4012 0004      00004        3775          STH   JA,DX4(JB)               PUT IN CORRECT DISPLACEMENT     24920021
 0029B0 47F0 BAA0      029B8        3776        BC    UNCOND,QRTN24             GO FINISH                        24927021
 0029B4                             3777 QRTN23 DS    0H                                                         24934021
 0029B4 45E0 B684      0259C        3778        BAL   JP,GENB                    -GENB     23 WORD               24941021
 0029B8                             3779 QRTN24 DS    0H                                                         24948021
 0029B8 9222 6000      00000        3780          MVI   DX0(JF),XX22              RESTORE CODE 22                24955021
 0029BC 58E0 CD04      01C94        3781        L     JP,JPQLSV                  RESTORE LINK REG                24962021
 0029C0 07FE                        3782        BCR   UNCOND,JP                   -RETURN                        24969021
 0029C2 D200 2000 7000 00000 00000  3783 RDXMOV   MVC   DX0(LX0,JB),DX0(JG)         EX-MOVE                      24976021
 0029C8 D200 3000 6000 00000 00000  3784 RDXMV    MVC   DX0(LX0,JC),DX0(JF)       MOVE 22... 23 TO CTLTBL        24983021
                                    3785 *  JA POINTS TO CUR CTL-NAME                                            24990021
                                    3786 *  JB POINTS TO TEMP CTL-NM                                             24997021
 0029CE D500 2000 101A 00000 0001A  3787 TMPCMP   CLC   DX0(LX0,JB),DX26(JA)      COMPARE CTL-NM TO TEMP NAME    25004021
                                    3788 *                                                                       25011021
                                    3789 *                                                                       25018021
                                    3790 *ROUTINE ALLOWS IDENTIFICATION OF CODING BLOCKS BY INSERTING            25025021
                                    3791 *TYPE CODE NEXT TO CODING  EG. RPH-ROUT, DET- ROUT ETC.                 25032021
 0029D4 50E0 D8AC      008DC        3792 GNPAR  ST    JP,JPSAVE                                                  25039021
1PH1A     IKFCBL10                                                                                              PAGE   79
-  LOC  OBJECT CODE    ADDR1 ADDR2  STMT   SOURCE STATEMENT                                       ASM 0201 11.03 02/14/15
00029D8 5040 D8D0      00900        3793        ST    JD,JDSAV1                  SAVE XR 4                       25046021
 0029DC D202 CCD7 5000 01C67 00000  3794          MVC   TPCOD,DX0(JE)             PUT CODE IN PAR TEXT           25053021
 0029E2 D201 CB22 4000 01AB2 00000  3795          MVC   RWDNPR(LX2),DX0(JD)        SAVE PAR NM                   25060021
 0029E8 D201 D7FB C6E2 0082B 01672  3796          MVC   CRDGCN+NX1(LX2),CURGCN     PUT CARD SER NO ON FILE 2     25067021
 0029EE 4160 D7FA      0082A        3797        LA    JF,CRDGCN                                                  25074021
 0029F2 45E0 B684      0259C        3798        BAL   JP,GENB               GENERATE NAME                        25081021
 0029F6 5810 C814      017A4        3799        L     JA,COSADR                   PUT PAR ID ON FILE 4           25088021
 0029FA 9101 11C6      001C6        3800          TM    PHZSW3,VERBR             LISTING A-TEXT OPTION           25095021
 0029FE 47E0 BAF8      02A10        3801          BNO   GNPAR1                   NO                              25102021
 002A02 4120 CCD5      01C65        3802          LA    JB,TPCODE           ADDR OF TEXT                         25109021
 002A06 1733                        3803        XR    JC,JC                      CLEAR XR3                       25116021
 002A08 4330 CCD4      01C64        3804        IC    JC,PUTCT6                                                  25123021
 002A0C 0501                        3805        BALR  JR,JA                 PHASE 0                              25130021
 002A0E 12                          3806          DC    X'12'               WRITE ON SYSUT2                      25137021
 002A0F 00
 002A10 5840 D8D0      00900        3807 GNPAR1   L     JD,JDSAV1                RESTORE XR 4                    25144021
 002A14 D201 CCF4 4000 01C84 00000  3808          MVC   PAROUT+NX1(LX2),DX0(JD)    MOVE GN=N TO PAR ID AREA      25151021
 002A1A 4160 CCF3      01C83        3809        LA    JF,PAROUT                  PAR ID AREA                     25158021
 002A1E 45E0 B684      0259C        3810        BAL   JP,GENB               GENERATE NAME                        25165021
 002A22 58E0 D8AC      008DC        3811        L     JP,JPSAVE                                                  25172021
 002A26 07FE                        3812        BCR   UNCOND,JP             RETURN                               25179021
                                    3813 *                                                                       25186021
                                    3814 *GET CONTROL NAME + PARA NAME                                           25193021
                                    3815 *SAVE LEVEL FOR SUM CLAUSE PROCESSING                                   25200021
 002A28                             3816 GETCTL DS    0H                                                         25207021
 002A28 50E0 D8BC      008EC        3817        ST    JP,JPCTGS                                                  25214021
 002A2C 5810 C8B4      01844        3818        L     JA,CTLCON                  CTLTBL TIB                      25221021
 002A30 45E0 BCC2      02BDA        3819        BAL   JP,TBLNIT             LOCATE START AND END TABLE           25228021
 002A34 4780 BB5E      02A76        3820        BC    ZERO,GTCTMS                NO ENTS IN TBL-ERROR            25235021
 002A38 4850 CDBC      01D4C        3821        LH    JE,CELL1                  SIZE OF TEMP ENTRY               25242021
 002A3C 1B25                        3822        SR    JB,JE                     GET DISPL OF TEMP ENTRY          25249021
 002A3E 4020 CDC2      01D52        3823        STH   JB,CELL3                  SAVE DISPL OF TEMP ENTRY         25256021
 002A42 0650                        3824        BCTR  JE,JR                     SUBTRACT 1 FOR COMPARE           25263021
                                    3825 *  JE HAS TEMP ENTRY SIZE-1                                             25270021
                                    3826 *  JA HAS ADDRESS OF START OF TBL                                       25277021
 002A44 4122 1000      00000        3827          LA    JB,DX0(JB,JA)             LAST ADR OF TBL                25284021
                                    3828 *  JB HAS ADDRESS OF TEMP ENTRY                                         25291021
                                    3829 *                                                                       25298021
 002A48                             3830 GETCT1 DS    0H                                                         25305021
 002A48 4450 BAB6      029CE        3831        EX    JE,TMPCMP                 COMPARE CTL-NM TO TEMP NAME      25312021
 002A4C 4780 BB78      02A90        3832        BC    EQ,GTCTXT                 EQ...FINISH UP                   25319021
 002A50                             3833 GETCT2 DS    0H                                                         25326021
 002A50 9180 D364      00394        3834          TM    SCAN02,XX80              IN 02 SCAN                      25333021
 002A54 4710 BB46      02A5E        3835        BC    ONES,GTCTX4               YES..SKIP MOVE                   25340021
 002A58 D201 CD18 1014 01CA8 00014  3836          MVC   CFLMI1(LX2),DX20(JA)      SAVE FTNG OF LVL-1             25347021
 002A5E                             3837 GTCTX4 DS    0H                                                         25354021
 002A5E D201 CDBE 1000 01D4E 00000  3838          MVC   CELL2(LX2),DX0(JA)        PUT ON HALF WORD BOUNDARY      25361021
 002A64 4830 CDBE      01D4E        3839        LH    JC,CELL2                  GET SIZE OF THIS ENTRY           25368021
 002A68 4113 1000      00000        3840          LA    JA,DX0(JC,JA)            STEP TO NEXT ENTRY              25375021
 002A6C 1912                        3841        CR    JA,JB                      OUT OF TBL                      25382021
 002A6E 4740 BB30      02A48        3842        BC    LO,GETCT1                  NO LOOK AGAIN                   25389021
 002A72 45E0 BBA6      02ABE        3843        BAL   JP,GTCTX1                 GO RESET DISPLACEMENT            25396021
 002A76                             3844 GTCTMS DS    0H                                                         25403021
 002A76 45E0 DBEC      00C1C        3845        BAL   JP,MSG104                 DIAGNOSE                         25410021
 002A7A 9180 D364      00394        3846          TM    SCAN02,XX80              IN 02 SCAN                      25417021
1PH1A     IKFCBL10                                                                                              PAGE   80
-  LOC  OBJECT CODE    ADDR1 ADDR2  STMT   SOURCE STATEMENT                                       ASM 0201 11.03 02/14/15
0002A7E 4780 BB74      02A8C        3847        BC    ZERO,GTCMS1               NO                               25424021
 002A82 9601 D364      00394        3848          OI    BADLNA,XX01              YES                             25431021
 002A86 58E0 D8BC      008EC        3849        L     JP,JPCTGS                 RETURN                           25438021
 002A8A 07FE                        3850        BCR   UNCOND,JP                     ON JP                        25445021
 002A8C                             3851 GTCMS1 DS    0H                                                         25452021
                             06BB0  3852        USING   FLUSH,JH                                                 25459021
 002A8C 47F0 8C92      07842        3853        BC    UNCOND,RCOV1               RECOVER AT NEW O1 OR RD         25466021
                                    3854        DROP JH                                                          25473021
 002A90                             3855 GTCTXT DS    0H                                                         25480021
 002A90 9180 D364      00394        3856          TM    SCAN02,XX80              IN 02 SCAN                      25487021
 002A94 4780 BB88      02AA0        3857        BC    ZERO,GTCTX2               NO...CONTINUE                    25494021
 002A98 4111 0011      00011        3858          LA    JA,DX17(JA)              YES..GET ADDR OF CTL-LVL        25501021
 002A9C 47F0 BBA2      02ABA        3859        BC    UNCOND,GTCTX3             CONTINUE                         25508021
 002AA0                             3860 GTCTX2 DS    0H                                                         25515021
 002AA0 D200 CCF6 1011 01C86 00011  3861          MVC   CTLV01,DX17(JA)          GET LVL NUMBER FOR THIS CTL     25522021
 002AA6 D201 CDBE 1000 01D4E 00000  3862          MVC   CELL2(LX2),DX0(JA)        PUT ON HALF WORD BOUNDARY      25529021
 002AAC 4830 CDBE      01D4E        3863        LH    JC,CELL2                  GET SIZE OF THIS ENTRY           25536021
 002AB0 4133 1012      00012        3864          LA    JC,DX18(JC,JA)           POINT TO HDNG OF NEXT CTL-NM    25543021
 002AB4 D201 CD16 3000 01CA6 00000  3865          MVC   CHLPL1(LX2),DX0(JC)       SAVE HDNG OF NEXT CTL-NM       25550021
 002ABA                             3866 GTCTX3 DS    0H                                                         25557021
                                    3867 *  MUST RESET DISPLACEMENT IN CTLTBL TO REMOVE TEMP NAME                25564021
 002ABA 58E0 D8BC      008EC        3868        L     JP,JPCTGS                 SET UP FOR RETURN                25571021
 002ABE                             3869 GTCTX1 DS    0H                                                         25578021
 002ABE 5820 C8B4      01844        3870        L     JB,CTLCON                 TIB                              25585021
 002AC2 5822 0000      00000        3871          L     JB,DX0(JB)               TAMM                            25592021
 002AC6 D201 2004 CDC2 00004 01D52  3872          MVC   DX4(LX2,JB),CELL3         RESET TO LAST VALID DISPL      25599021
 002ACC 9200 CB24      01AB4        3873          MVI   ORGFLG,XX00               SET ORG TO +0-NO SAVE          25606021
 002AD0 07FE                        3874        BCR   UNCOND,JP             RETURN                               25613021
                                    3875 *                                                                       25620021
                                    3876 *CHKRNT -SEE IF NAME ALREADY IN RN TABLE                                25627021
                                    3877 *        IF IN GET DISP ELSE INSERT AND GIVE DISP                       25634021
 002AD2                             3878 CHKRNT DS    0H                                                         25641021
 002AD2 50E0 CCF8      01C88        3879        ST    JP,JPCKRN                                                  25648021
 002AD6 5810 C8FC      0188C        3880        L     JA,SNMCON                 SNMTBL TIB                       25655021
 002ADA 45E0 BCC2      02BDA        3881        BAL   JP,TBLNIT                  GET START ETC                   25662021
 002ADE 5010 CDB4      01D44        3882        ST    JA,RNSTRT                  SAVE START                      25669021
 002AE2 4122 1000      00000        3883          LA    JB,DX0(JB,JA)             LAST ADR OF TABLE              25676021
 002AE6                             3884 CHKRN1 DS    0H                                                         25683021
 002AE6 9101 D9C0      009F0        3885          TM    DNSW1,XX01                DATA NAME                      25690021
 002AEA 4780 BBE0      02AF8        3886        BC    ZERO,CHKRNA                NO                              25697021
 002AEE D51F CB02 1000 01A92 00000  3887          CLC   RWDN(LX32),DX0(JA)         YES..IS NAME IN TABLE         25704021
 002AF4 47F0 BBE6      02AFE        3888        BC    UNCOND,CHKRNB         CHKRNB                               25711021
 002AF8 D51F C6E4 1000 01674 00000  3889 CHKRNA   CLC   CURCOD(LX32),DX0(JA)       RNM FOUND                     25718021
 002AFE 5010 CDB8      01D48        3890 CHKRNB ST    JA,RNINST                  SAVE FOUND POINT                25725021
 002B02 4780 BC2C      02B44        3891        BC    EQ,CHKRN3             CHKRN3                               25732021
 002B06 4111 0023      00023        3892          LA    JA,DX35(JA)               GET NEXT ENTRY                 25739021
 002B0A 1912                        3893        CR    JA,JB                      OUT OF TABLE                    25746021
 002B0C 4740 BBCE      02AE6        3894        BC    LO,CHKRN1                  LOOK AGAIN                      25753021
 002B10                             3895 CHKRN2 DS    0H                         NAME NOT IN TABLE INSERT        25760021
 002B10 4140 0023      00023        3896          LA    JD,DX35(JR)                                              25767021
 002B14 5820 C8FC      0188C        3897        L     JB,SNMCON                 SNMTBL TIB                       25774021
 002B18 9101 D9C0      009F0        3898          TM    DNSW1,XX01                DATA NAME                      25781021
 002B1C 4780 BC10      02B28        3899        BC    ZERO,CHKRNC                NO                              25788021
 002B20 4170 CB02      01A92        3900        LA    JG,RWDN                    YES..SET UP FOR DN INSERT       25795021
 002B24 47F0 BC14      02B2C        3901        BC    UNCOND,CHKRND         CHKRND                               25802021
1PH1A     IKFCBL10                                                                                              PAGE   81
-  LOC  OBJECT CODE    ADDR1 ADDR2  STMT   SOURCE STATEMENT                                       ASM 0201 11.03 02/14/15
0002B28 4170 C6E4      01674        3902 CHKRNC LA    JG,CURCOD                  SET UP FOR BCD NM INSERT        25809021
 002B2C                             3903 CHKRND DS    0H                                                         25816021
 002B2C 45E0 B464      0237C        3904        BAL   JP,MVSERT             CALL INSERT                          25823021
                                    3905 *    GET START OF TABLE AGAIN AFTER INSERT                              25830021
 002B30 5810 C8FC      0188C        3906        L     JA,SNMCON                 SNMTBL TIB                       25837021
 002B34 45E0 BCC2      02BDA        3907        BAL   JP,TBLNIT             LOCATE START AND END OF TABLE        25844021
 002B38 5010 CDB4      01D44        3908        ST    JA,RNSTRT                                                  25851021
 002B3C 5820 D9CC      009FC        3909        L     JB,ABSADD                  SAVE INSERT ADR                 25858021
 002B40 47F0 BC30      02B48        3910        BC    UNCOND,CHKRN4         CHKRN4                               25865021
 002B44 5820 CDB8      01D48        3911 CHKRN3 L     JB,RNINST                  LOAD INSERT ADR                 25872021
 002B48 5B20 CDB4      01D44        3912 CHKRN4 S     JB,RNSTRT                  SUB START                       25879021
 002B4C 4020 CDB4      01D44        3913        STH   JB,RNSTRT                                                  25886021
                                    3914 *DISP OF NAME IS IN XR JB ON EXIT                                       25893021
 002B50 58E0 CCF8      01C88        3915        L     JP,JPCKRN                                                  25900021
 002B54 07FE                        3916        BCR   UNCOND,JP             RETURN                               25907021
                                    3917 *                                                                       25914021
                                    3918 *CHKDET SEE IF NAME ALREADY IN DETAIL TABLE                             25921021
                                    3919 *       IF NOT INSERT AND SAVE DISPL                                    25928021
                                    3920 *                                                                       25935021
 002B56                             3921 CHKDET DS    0H                                                         25942021
 002B56 50E0 CCFC      01C8C        3922        ST    JP,JPCKDE                                                  25949021
 002B5A 5810 C8CC      0185C        3923        L     JA,DETCON                  TIB                             25956021
 002B5E 45E0 BCC2      02BDA        3924        BAL   JP,TBLNIT                  GET STRT ETC                    25963021
 002B62 5010 CDB4      01D44        3925        ST    JA,RNSTRT                  SAVE START                      25970021
 002B66 4122 1000      00000        3926          LA    JB,DX0(JB,JA)             END OF TABLE                   25977021
 002B6A D51D C6E6 1000 01676 00000  3927 CHKDE1   CLC   CURBCD(LX30),DX0(JA)       DET NM FOUND                  25984021
 002B70 5010 CDB8      01D48        3928        ST    JA,RNINST                  SAVE FOUND POINT                25991021
 002B74 4780 BC98      02BB0        3929        BC    EQ,CHKDE3                  YES                             25998021
 002B78 4111 0026      00026        3930          LA    JA,DX38(JA)               GET NEXT ENTRY                 26005021
 002B7C 1912                        3931        CR    JA,JB                      OUT OF TABLE                    26012021
 002B7E 4740 BC52      02B6A        3932        BC    LO,CHKDE1             CHKDE1                               26019021
 002B82                             3933 CHKDE2 DS    0H                         NAME NOT IN TBL-INSERT          26026021
 002B82 4140 0026      00026        3934          LA    JD,DX38(JR)                                              26033021
 002B86 5820 C8CC      0185C        3935        L     JB,DETCON                                                  26040021
 002B8A 4170 C6E6      01676        3936        LA    JG,CURBCD                                                  26047021
 002B8E 45E0 B464      0237C        3937        BAL   JP,MVSERT             CALL INSERT                          26054021
                                    3938 *  JB HAS STARTING ADDRESS FOR THIS ENTRY                               26061021
 002B92 96FF 2021      00021        3939          OI    DX33(JB),XXFF            INDICATE ENTRY MADE BY SUM      26068021
 002B96 D200 201E C6E5 0001E 01675  3940          MVC   DX30(LX1,JB),CURN         DNM LENGTH TO ENTRY            26075021
                                    3941 *    GET START OF TABLE AGAIN AFTER INSERT                              26082021
 002B9C 5810 C8CC      0185C        3942        L     JA,DETCON                                                  26089021
 002BA0 45E0 BCC2      02BDA        3943        BAL   JP,TBLNIT             LOCATE START AND END OF TABLE        26096021
 002BA4 5010 CDB4      01D44        3944        ST    JA,RNSTRT                                                  26103021
 002BA8 5820 D9CC      009FC        3945        L     JB,ABSADD                  SAVE INSERT ADR                 26110021
 002BAC 47F0 BC9C      02BB4        3946        BC    UNCOND,CHKDE4         CHKDE4                               26117021
 002BB0 5820 CDB8      01D48        3947 CHKDE3 L     JB,RNINST                  LOAD INSERT ADR                 26124021
 002BB4 5B20 CDB4      01D44        3948 CHKDE4 S     JB,RNSTRT                  SUB START                       26131021
 002BB8 4920 CD64      01CF4        3949        CH    JB,HWPTR                  DETAIL ENTRY IN THIS RD          26138021
 002BBC 47B0 BCB8      02BD0        3950        BNL   CHKDE5                    YES..OK                          26145021
 002BC0 D201 D50F C6E2 0053F 01672  3951          MVC   MSGGCN(LX2),CURGCN       CURGCN TO MSG                   26152021
 002BC6 45E0 DBCC      00BFC        3952        BAL   JP,MSG96                  NO...DIAGNOSE AND IGNORE         26159021
 002BCA D201 CDB4 C14C 01D44 010DC  3953          MVC   RNSTRT(LX2),HWZERO       ZERO OUT DISPLACEMENT           26166021
 002BD0                             3954 CHKDE5 DS    0H                                                         26173021
 002BD0 4020 CDB4      01D44        3955        STH   JB,RNSTRT                                                  26180021
 002BD4 58E0 CCFC      01C8C        3956        L     JP,JPCKDE                                                  26187021
1PH1A     IKFCBL10                                                                                              PAGE   82
-  LOC  OBJECT CODE    ADDR1 ADDR2  STMT   SOURCE STATEMENT                                       ASM 0201 11.03 02/14/15
0002BD8 07FE                        3957        BCR   UNCOND,JP             RETURN                               26194021
                                    3958 *                                                                       26201021
                                    3959 *                                                                       26208021
                                    3960 *ROUTINE TO LOCATE START AND END OF TABLE                               26215021
 002BDA                             3961 TBLNIT DS    0H                                                         26222021
 002BDA 5811 0000      00000        3962          L     JA,DX0(JA)                TAMM                           26229021
 002BDE 4821 0004      00004        3963          LH    JB,DX4(JA)                DISPL OF TBL                   26236021
 002BE2 5811 0000      00000        3964          L     JA,DX0(JA)                START OF TABLE                 26243021
 002BE6 4111 0000      00000        3965          LA    JA,DX0(JA)               CLEAR HI-ORDER BYTE             26250021
 002BEA 1222                        3966        LTR   JB,JB                      TEST IF TBL EMPTY               26257021
                                    3967 ***    CALLING ROUTINE MUST TEST FOR CONDITION ZERO ON RETURN           26264021
 002BEC 07FE                        3968        BCR   UNCOND,JP             RETURN                               26271021
1PH1A     IKFCBL10                                                                                              PAGE   83
-  LOC  OBJECT CODE    ADDR1 ADDR2  STMT   SOURCE STATEMENT                                       ASM 0201 11.03 02/14/15
0002BF0                             3970 IKF104 CSECT                                                            26285021
                                    3971 *                                                                       26292021
                                    3972 *=1    COBOL WORD TABLE                           ID   ENV  DATA PR     26299021
                                    3973 *                                                                       26306021
 002BF0 C1E3                        3974 COBWRD DC    C'AT'                 COBOL WORD AREA FOLLOWS              26313021
 002BF2 547002                      3975        DC    X'547002'            AT                                    26320021
 002BF5 C2E8                        3976        DC    C'BY'                 2-BYTE COBOL WORDS FOLLOW            26327021
 002BF7 547F0A                      3977 BYCON  DC    X'547F0A'                 BY                               26334021
 002BFA C3C6                        3978        DC    C'CF'                                                      26341021
 002BFC 54F804                      3979        DC    X'54F804'            CF                                    26348021
 002BFF C3C8                        3980        DC    C'CH'                                                      26355021
 002C01 54F604                      3981        DC    X'54F604'            CH                                    26362021
 002C04 C4C5                        3982        DC    C'DE'                                                      26369021
 002C06 54EA04                      3983        DC    X'54EA04'            DE              SAME AS 'DETAIL'      26376021
 002C09 C6C4                        3984        DC    C'FD'                                                      26383021
 002C0B 433884                      3985        DC    X'433884'            FD                                    26390021
 002C0E C7D6                        3986        DC    C'GO'                                                      26397021
 002C10 441102                      3987        DC    X'441102'            GO                                    26404021
 002C13 C9C4                        3988 IDKON  DC    C'ID'                                                      26411021
 002C15 42F111                      3989 IDCON  DC    X'42F111'            ID              SAME AS 'IDENTIFI     26418021
 002C18 C9C6                        3990        DC    C'IF'                                                      26425021
 002C1A 440702                      3991 IFCON  DC    X'440702'                  IF                              26432021
 002C1D C9D5                        3992        DC    C'IN'                                                      26439021
 002C1F 54A40C                      3993 INCON  DC    X'54A40C'            IN          SAME AS 'OF'              26446021
 002C22 C9E2                        3994 ISKON  DC    C'IS'                                                      26453021
 002C24 549C0E                      3995 ISCON  DC    X'549C0E'            IS              SAME AS 'ARE'         26460021
 002C27 D5D6                        3996        DC    C'NO'                                                      26467021
 002C29 549E0A                      3997 NOCON  DC    X'549E0A'            NO                                    26474021
 002C2C D6C6                        3998        DC    C'OF'                                                      26481021
 002C2E 54A40C                      3999 OFCON  DC    X'54A40C'            OF         SMAE AS 'IN'               26488021
 002C31 D6D5                        4000        DC    C'ON'                                                      26495021
 002C33 542B0E                      4001 ONCON  DC    X'542B0E'            ON              442B  DEBUG ON        26502021
 002C36 D6D9                        4002        DC    C'OR'                                                      26509021
 002C38 545E02                      4003 ORCON  DC   X'545E02'             OR                                    26516021
 002C3B D7C6                        4004        DC    C'PF'                                                      26523021
 002C3D 54FA04                      4005        DC    X'54FA04'            PF                                    26530021
 002C40 D7C8                        4006        DC    C'PH'                                                      26537021
 002C42 54F404                      4007        DC    X'54F404'            PH                                    26544021
 002C45 D9C4                        4008        DC    C'RD'                                                      26551021
 002C47 433484                      4009        DC    X'433484'            RD                                    26558021
 002C4A D9C6                        4010        DC    C'RF'                                                      26565021
 002C4C 540E04                      4011        DC    X'540E04'            RF                                    26572021
 002C4F D9C8                        4012        DC    C'RH'                                                      26579021
 002C51 54F304                      4013        DC    X'54F304'            RH                                    26586021
 002C54 E2C4                        4014        DC    C'SD'                                                      26593021
 002C56 433684                      4015        DC    X'433684'            SD                                    26600021
 002C59 E3D6                        4016        DC    C'TO'                                                      26607021
 002C5B 549B0E                      4017 TOCON  DC    X'549B0E'            TO                                    26614021
 002C5E E4D7                        4018        DC    C'UP'                 2-BYTE COBOL WORDS PRECEDE           26621021
 002C60 543A02                      4019        DC    X'543A02'                  UP                              26628021
 002C63 C1C4C4                      4020 COB3   DC    C'ADD'                3-BYTE COBOL WORDS FOLLOW            26635021
 002C66 440002                      4021 ADDCN  DC    X'440002'            ADD                                   26642021
 002C69 C1D3D3                      4022        DC    C'ALL'                                                     26649021
 002C6C 547902                      4023 ALLCON DC    X'547902'            ALL                                   26656021
 002C6F C1D5C4                      4024        DC    C'AND'                                                     26663021
1PH1A     IKFCBL10                                                                                              PAGE   84
-  LOC  OBJECT CODE    ADDR1 ADDR2  STMT   SOURCE STATEMENT                                       ASM 0201 11.03 02/14/15
0002C72 545D02                      4025        DC    X'545D02'            AND                                   26670021
 002C75 C1D9C5                      4026        DC    C'ARE'                                                     26677021
 002C78 549C0E                      4027 ARECON DC    X'549C0E'            ARE                                   26684021
 002C7B C3F0F1                      4028        DC    C'C01'                                                     26691021
 002C7E 550108                      4029 C01CON DC    X'550108'                  C01                             26698021
 002C81 C3F0F2                      4030        DC    C'C02'                                                     26705021
 002C84 550208                      4031        DC    X'550208'                  C02                             26712021
 002C87 C3F0F3                      4032        DC    C'C03'                                                     26719021
 002C8A 550308                      4033        DC    X'550308'                  C03                             26726021
 002C8D C3F0F4                      4034        DC    C'C04'                                                     26733021
 002C90 550408                      4035        DC    X'550408'                  C04                             26740021
 002C93 C3F0F5                      4036        DC    C'C05'                                                     26747021
 002C96 550508                      4037        DC    X'550508'                  C05                             26754021
 002C99 C3F0F6                      4038        DC    C'C06'                                                     26761021
 002C9C 550608                      4039        DC    X'550608'                  C06                             26768021
 002C9F C3F0F7                      4040        DC    C'C07'                                                     26775021
 002CA2 550708                      4041        DC    X'550708'                  C07                             26782021
 002CA5 C3F0F8                      4042        DC    C'C08'                                                     26789021
 002CA8 550808                      4043        DC    X'550808'                  C08                             26796021
 002CAB C3F0F9                      4044        DC    C'C09'                                                     26803021
 002CAE 550908                      4045        DC    X'550908'                  C09                             26810021
 002CB1 C3F1F0                      4046        DC    C'C10'                                                     26817021
 002CB4 550A08                      4047        DC    X'550A08'                  C10                             26824021
 002CB7 C3F1F1                      4048        DC    C'C11'                                                     26831021
 002CBA 550B08                      4049        DC    X'550B08'                  C11                             26838021
 002CBD C3F1F2                      4050        DC    C'C12'                                                     26845021
 002CC0 550C08                      4051        DC    X'550C08'                  C12                             26852021
 002CC3 C3E2D7                      4052        DC    C'CSP'                                                     26859021
 002CC6 550008                      4053        DC    X'550008'                  CSP                             26866021
 002CC9 E2F0F1                      4054        DC    C'S01'                                                     26873021
 002CCC 550D08                      4055        DC    X'550D08'                  S01                             26880021
 002CCF E2F0F2                      4056        DC    C'S02'                                                     26887021
 002CD2 550E08                      4057        DC    X'550E08'                  S02                             26894021
 002CD5 C5D5C4                      4058        DC    C'END'                                                     26901021
 002CD8 54A10A                      4059 ENDCD  DC    X'54A10A'            END                                   26908021
 002CDB C5D6D7                      4060        DC    C'EOP'                                                     26915021
 002CDE 545A02                      4061        DC    X'545A02'                  EOP- SAME AS END-OF-PAGE        26922021
 002CE1 C6D6D9                      4062        DC    C'FOR'                                                     26929021
 002CE4 54A30A                      4063 FORCON DC    X'54A30A'            FOR                                   26936021
 002CE7 C960D6                      4064        DC    C'I-O'                                                     26943021
 002CEA 546B02                      4065        DC    X'546B02'            I-O                                   26950021
 002CED D2C5E8                      4066        DC    C'KEY'                                                     26957021
 002CF0 549F0A                      4067 KEYCON DC    X'549F0A'            KEY                                   26964021
 002CF3 D5D6E3                      4068        DC    C'NOT'                                                     26971021
 002CF6 545C02                      4069 NOTCON DC    X'545C02'            NOT                                   26978021
 002CF9 D6C6C6                      4070        DC    C'OFF'                                                     26985021
 002CFC 543808                      4071 OFFCON DC    X'543808'                  OFF                             26992021
 002CFF D7C9C3                      4072        DC    C'PIC'                                                     26999021
 002D02 54D804                      4073        DC    X'54D804'                  SAME AS PICTURE-PIC             27006021
 002D05 D9E4D5                      4074        DC    C'RUN'                                                     27013021
 002D08 548502                      4075        DC    X'548502'            RUN                                   27020021
 002D0B E2C5E3                      4076        DC    C'SET'                                                     27027021
 002D0E 446102                      4077        DC    X'446102'                  SET                             27034021
 002D11 E2E4D4                      4078        DC    C'SUM'                                                     27041021
 002D14 54FF04                      4079        DC    X'54FF04'            SUM                                   27048021
1PH1A     IKFCBL10                                                                                              PAGE   85
-  LOC  OBJECT CODE    ADDR1 ADDR2  STMT   SOURCE STATEMENT                                       ASM 0201 11.03 02/14/15
0002D17 E4E2C5                      4080        DC    C'USE'                3-BYTE COBOL WORDS PRECEDE           27055021
 002D1A 443102                      4081 USECON DC    X'443102'            USE                                   27062021
                                    4082 *                        VIA REMOVED FROM KEYWORD                       27069021
                                    4083 *                             LIST AT THIS POINT                        27076021
 002D1D C1D9C5C1                    4084 COB4   DC    C'AREA'               4-BYTE COBOL WORDS FOLLOW            27083021
 002D21 54BF08                      4085 AREACN DC    X'54BF08'            AREA            SAME AS 'AREAS'       27090021
 002D24 C3C1D3D3                    4086        DC    C'CALL'                                                    27097021
 002D28 442D02                      4087        DC    X'442D02'            CALL                                  27104021
 002D2B C3D6C4C5                    4088        DC    C'CODE'                                                    27111021
 002D2F 54E504                      4089        DC    X'54E504'            CODE                                  27118021
 002D32 C3D6D4D7                    4090        DC    C'COMP'                                                    27125021
 002D36 54DE04                      4091        DC    X'54DE04'                  SAME AS COMPUTATIONAL-COMP      27132021
 002D39 C3D6D7E8                    4092        DC    C'COPY'                                                    27139021
 002D3D 44F50E                      4093 COPYCN DC    X'44F50E'                 COPY                             27146021
 002D40 C3D6D9D9                    4094        DC    C'CORR'                                                    27153021
 002D44 547A02                      4095        DC    X'547A02'                  SAME AS CORRESPONDING           27160021
 002D47 C4C1E3C1                    4096        DC    C'DATA'                                                    27167021
 002D4B 42011C                      4097 DATACD DC    X'42011C'            DATA            540104 IN DATA DI     27174021
 002D4E C4C9E2D7                    4098        DC    C'DISP'                                                    27181021
 002D52 544C02                      4099        DC    X'544C02'                 DISP                             27188021
 002D55 C4D6E6D5                    4100        DC    C'DOWN'                                                    27195021
 002D59 543B02                      4101        DC    X'543B02'                  DOWN                            27202021
 002D5C C5D3E2C5                    4102        DC    C'ELSE'                                                    27209021
 002D60 440802                      4103 ELSCON DC    X'440802'            ELSE           SAME AS OTHERWISE      27216021
 002D63 C5E7C9E3                    4104        DC    C'EXIT'                                                    27223021
 002D67 443202                      4105        DC    X'443202'            EXIT                                  27230021
 002D6A C6C9D3C5                    4106        DC    C'FILE'                                                    27237021
 002D6E 543C08                      4107 FILECD DC    X'543C08'                  FILE IN ENV DIV '420226' IN     27244021
 002D71 C6D9D6D4                    4108        DC    C'FROM'                                                    27251021
 002D75 549D0E                      4109 FROMCN DC    X'549D0E'             FROM                                 27258021
 002D78 C9D5E3D6                    4110        DC    C'INTO'                                                    27265021
 002D7C 546F02                      4111        DC    X'546F02'            INTO                                  27272021
 002D7F D1E4E2E3                    4112        DC    C'JUST'                                                    27279021
 002D83 54DB04                      4113        DC    X'54DB04'                  SAME AS JUSTIFIED-JUST          27286021
 002D86 D3C1E2E3                    4114        DC    C'LAST'                                                    27293021
 002D8A 54EB04                      4115        DC    X'54EB04'            LAST                                  27300021
 002D8D D3C5C6E3                    4116        DC    C'LEFT'                                                    27307021
 002D91 54E404                      4117 LFTCON DC    X'54E404'                 LEFT                             27314021
 002D94 D3C5E2E2                    4118        DC    C'LESS'                                                    27321021
 002D98 500A02                      4119 LESCON DC    X'500A02'            LESS                                  27328021
 002D9B D3C9D5C5                    4120 LNCON  DC    C'LINE'                                                    27335021
 002D9F 549504                      4121 LINCON DC    X'549504'            LINE       SAME AS 'LINES'            27342021
 002DA2 D3D6C3D2                    4122        DC    C'LOCK'                                                    27349021
 002DA6 547602                      4123        DC    X'547602'            LOCK                                  27356021
 002DA9 D4D6C4C5                    4124        DC    C'MODE'                                                    27363021
 002DAD 541504                      4125 MODECN DC    X'541504'            MODE                                  27370021
 002DB0 D4D6E5C5                    4126        DC    C'MOVE'                                                    27377021
 002DB4 441D02                      4127 MOVECN DC    X'441D02'            MOVE                                  27384021
 002DB7 D5C5E7E3                    4128        DC    C'NEXT'                                                    27391021
 002DBB 549706                      4129        DC    X'549706'            NEXT                                  27398021
 002DBE D5D6E3C5                    4130        DC    C'NOTE'                                                    27405021
 002DC2 44F702                      4131        DC    X'44F702'            NOTE                                  27412021
 002DC5 D6D7C5D5                    4132        DC    C'OPEN'                                                    27419021
 002DC9 442102                      4133        DC    X'442102'            OPEN                                  27426021
 002DCC D7C1C7C5                    4134 PGCON  DC    C'PAGE'                                                    27433021
1PH1A     IKFCBL10                                                                                              PAGE   86
-  LOC  OBJECT CODE    ADDR1 ADDR2  STMT   SOURCE STATEMENT                                       ASM 0201 11.03 02/14/15
0002DD0 54E604                      4135        DC    X'54E604'            PAGE                                  27440021
 002DD3 D7D3E4E2                    4136        DC    C'PLUS'                                                    27447021
 002DD7 54F004                      4137        DC    X'54F004'            PLUS                                  27454021
 002DDA D9C5C1C4                    4138        DC    C'READ'                                                    27461021
 002DDE 442002                      4139        DC    X'442002'            READ                                  27468021
 002DE1 D9C5C5D3                    4140        DC    C'REEL'                                                    27475021
 002DE5 54170A                      4141 REELCN DC    X'54170A'            REEL                                  27482021
 002DE8 E2C1D4C5                    4142        DC    C'SAME'                                                    27489021
 002DEC 44F308                      4143        DC    X'44F308'            SAME                                  27496021
 002DEF E2C5C5D2                    4144        DC    C'SEEK'                                                    27503021
 002DF3 446302                      4145        DC    X'446302'                  SEEK                            27510021
 002DF6 E2C9C7D5                    4146        DC    C'SIGN'                                                    27517021
 002DFA 54AB08                      4147 SGNCON DC    X'54AB08'                  SIGN                            27524021
 002DFD E2C9E9C5                    4148        DC    C'SIZE'                                                    27531021
                             02E01  4149 SIZECN EQU   *                                                          27538021
 002E01 54830A                      4150        DC    X'54830A'                  SIZE                            27545021
 002E04 E2D6D9E3                    4151        DC    C'SORT'                                                    27552021
 002E08 54AC0A                      4152 SORCON DC    X'54AC0A'                  SORT      IN PD 4436            27559021
 002E0B E2E3D6D7                    4153        DC    C'STOP'                                                    27566021
 002E0F 441002                      4154        DC    X'441002'            STOP                                  27573021
 002E12 E2E8D5C3                    4155        DC    C'SYNC'                                                    27580021
 002E16 543704                      4156        DC    X'543704'                  SYNC-SAME AS SYNCHRONIZED       27587021
 002E19 E3C1D7C5                    4157        DC    C'TAPE'                                                    27594021
 002E1D 544008                      4158 TAPCON DC    X'544008'             TAPE                                 27601021
 002E20 E3C8C1D5                    4159        DC    C'THAN'                                                    27608021
 002E24 545302                      4160 THNCON DC    X'545302'            THAN                                  27615021
 002E27 E3C8C5D5                    4161        DC    C'THEN'                                                    27622021
 002E2B 545002                      4162        DC    X'545002'            THEN                                  27629021
 002E2E E3C8D9E4                    4163        DC    C'THRU'                                                    27636021
 002E32 548706                      4164 THRUCN DC    X'548706'                 THRU                             27643021
 002E35 E3E8D7C5                    4165        DC    C'TYPE'                                                    27650021
 002E39 54EF04                      4166        DC    X'54EF04'            TYPE                                  27657021
 002E3C E4D5C9E3                    4167        DC    C'UNIT'                                                    27664021
 002E40 54A20A                      4168 UNTCON DC    X'54A20A'            UNIT            SAME AS 'UNITS'       27671021
 002E43 E4D7D6D5                    4169        DC    C'UPON'                                                    27678021
 002E47 549806                      4170 UPONCN DC    X'549806'             UPON                                 27685021
 002E4A E6C8C5D5                    4171        DC    C'WHEN'                                                    27692021
 002E4E 54E206                      4172 WHNCON DC    X'54E206'                 WHEN                             27699021
 002E51 E6C9E3C8                    4173        DC    C'WITH'                                                    27706021
 002E55 546C02                      4174        DC    X'546C02'            WITH                                  27713021
 002E58 E9C5D9D6                    4175        DC    C'ZERO'               4-BYTE COBOL WORDS PRECEDE           27720021
 002E5C 75F006                      4176 ZECON  DC    X'75F006'            ZERO           SAME AS 'ZEROS-ES'     27727021
 002E5F C1C6E3C5D9                  4177 COB5   DC    C'AFTER'              5-BYTE COBOL WORDS FOLLOW            27734021
 002E64 547202                      4178 AFTCON DC    X'547202'            AFTER                                 27741021
 002E67 C1D3E3C5D9                  4179        DC    C'ALTER'                                                   27748021
 002E6C 441C02                      4180        DC    X'441C02'            ALTER                                 27755021
 002E6F C1D7D7D3E8                  4181        DC    C'APPLY'                                                   27762021
 002E74 44F408                      4182        DC    X'44F408'            APPLY                                 27769021
 002E77 C1D9C5C1E2                  4183        DC    C'AREAS'                                                   27776021
 002E7C 54BF08                      4184        DC    X'54BF08'            AREAS           SAME AS 'AREA'        27783021
 002E7F C2C1E2C9E2                  4185        DC   C'BASIS'               00 INDICATES THAT BASIS CAN'T        27790021
 002E84 54B700                      4186        DC   X'54B700'              BE USED IN ANY DIVISION OR AS        27797021
                                    4187 *                                  A DATA NAME.                         27804021
 002E87 C2D3C1D5D2                  4188        DC    C'BLANK'                                                   27811021
 002E8C 54D904                      4189 BLNKCN DC    X'54D904'            BLANK                                 27818021
1PH1A     IKFCBL10                                                                                              PAGE   87
-  LOC  OBJECT CODE    ADDR1 ADDR2  STMT   SOURCE STATEMENT                                       ASM 0201 11.03 02/14/15
0002E8F C2D3D6C3D2                  4190        DC    C'BLOCK'                                                   27825021
 002E94 54CC04                      4191 BLKCON DC    X'54CC04'                 BLOCK                            27832021
 002E97 C3D3D6E2C5                  4192        DC    C'CLOSE'                                                   27839021
 002E9C 442202                      4193        DC    X'442202'            CLOSE                                 27846021
 002E9F C3D6C2D6D3                  4194        DC    C'COBOL'                                                   27853021
 002EA4 548A02                      4195        DC    X'548A02'            COBOL                                 27860021
 002EA7 C3D6D4D4C1                  4196        DC    C'COMMA'                                                   27867021
 002EAC 541208                      4197 COMMCN DC    X'541208'            COMMA                                 27874021
 002EAF C4C5C2E4C7                  4198        DC   C'DEBUG'               CAN'T BE USED IN ANY DIVISION        27881021
 002EB4 54B800                      4199        DC   X'54B800'              OR AS A DATA NAME                    27888021
 002EB7 C5D1C5C3E3                  4200 EJCON  DC    C'EJECT'                                                   27895021
 002EBC 540500                      4201        DC    X'540500'                  EJECT                           27902021
 002EBF C5D5E3C5D9                  4202        DC    C'ENTER'                                                   27909021
 002EC4 442E02                      4203        DC    X'442E02'            ENTER                                 27916021
 002EC7 C5D5E3D9E8                  4204        DC    C'ENTRY'                                                   27923021
 002ECC 442C02                      4205        DC    X'442C02'            ENTRY                                 27930021
 002ECF C5D8E4C1D3                  4206        DC    C'EQUAL'                                                   27937021
 002ED4 500602                      4207 EQCON  DC    X'500602'            EQUAL                                 27944021
 002ED7 C5D9D9D6D9                  4208        DC    C'ERROR'                                                   27951021
 002EDC 548402                      4209        DC    X'548402'            ERROR                                 27958021
 002EDF C5E5C5D9E8                  4210        DC    C'EVERY'                                                   27965021
 002EE4 549A0A                      4211 EVYCON DC    X'549A0A'            EVERY                                 27972021
 002EE7 C6C9D5C1D3                  4212        DC    C'FINAL'                                                   27979021
 002EEC 54E704                      4213        DC    X'54E704'            FINAL                                 27986021
 002EEF C6C9D9E2E3                  4214        DC    C'FIRST'                                                   27993021
 002EF4 549606                      4215        DC    X'549606'            FIRST                                 28000021
 002EF7 C7D9D6E4D7                  4216        DC    C'GROUP'                                                   28007021
 002EFC 54EE04                      4217        DC    X'54EE04'            GROUP                                 28014021
 002EFF C9D5C4C5E7                  4218        DC    C'INDEX'                                                   28021021
 002F04 543204                      4219        DC    X'543204'                  INDEX                           28028021
 002F07 C9D5D7E4E3                  4220        DC    C'INPUT'                                                   28035021
 002F0C 546602                      4221        DC    X'546602'            INPUT                                 28042021
 002F0F D3C1C2C5D3                  4222        DC    C'LABEL'                                                   28049021
 002F14 54D106                      4223 LABCON DC    X'54D106'                 LABEL     SAME AS 'LABELS'       28056021
 002F17 D3C5C1E5C5                  4224        DC    C'LEAVE'                                                   28063021
 002F1C 544A02                      4225        DC    X'544A02'                 LEAVE                            28070021
 002F1F D3C9D4C9E3                  4226        DC    C'LIMIT'                                                   28077021
 002F24 545F04                      4227        DC    X'545F04'            LIMIT          SAME AS LIMITS         28084021
 002F27 D3C9D5C5E2                  4228        DC    C'LINES'                                                   28091021
 002F2C 549506                      4229        DC    X'549506'            LINES           SAME AS 'LINE'        28098021
 002F2F D5C1D4C5C4                  4230        DC    C'NAMED'                                                   28105021
 002F34 549002                      4231 NAMCON DC    X'549002'            NAMED                                 28112021
 002F37 D8E4D6E3C5                  4232        DC    C'QUOTE'                                                   28119021
 002F3C 757D06                      4233 QUOCON DC    X'757D06'                 QUOTE       SAME AS QUOTES  9638 28126021
 002F3F D9C5C1C4E8                  4234        DC    C'READY'                                                   28133021
 002F44 442902                      4235        DC    X'442902'            READY                                 28140021
 002F47 D9C5D9E4D5                  4236        DC    C'RERUN'                                                   28147021
 002F4C 44F208                      4237        DC    X'44F208'            RERUN                                 28154021
 002F4F D9C5E2C5E3                  4238        DC    C'RESET'                                                   28161021
 002F54 542806                      4239 RSETCD DC    X'542806'            RESET           4428 IN PROC DIV'     28168021
 002F57 D9C9C7C8E3                  4240        DC    C'RIGHT'                                                   28175021
 002F5C 54E304                      4241 RITCON DC    X'54E304'            RIGHT                                 28182021
 002F5F E2D2C9D7F1                  4242 SK1CON DC    C'SKIP1'                                                   28189021
 002F64 540200                      4243        DC    X'540200'                  SKIP1                           28196021
 002F67 E2D2C9D7F2                  4244 SK2CON DC    C'SKIP2'                                                   28203021
1PH1A     IKFCBL10                                                                                              PAGE   88
-  LOC  OBJECT CODE    ADDR1 ADDR2  STMT   SOURCE STATEMENT                                       ASM 0201 11.03 02/14/15
0002F6C 540300                      4245        DC    X'540300'                  SKIP2                           28210021
 002F6F E2D2C9D7F3                  4246 SK3CON DC    C'SKIP3'                                                   28217021
 002F74 540400                      4247        DC    X'540400'                  SKIP3                           28224021
 002F77 E2D7C1C3C5                  4248        DC    C'SPACE'                                                   28231021
 002F7C 754006                      4249 SPCCON DC    X'754006'            SPACE          SAME AS 'SPACES'       28238021
 002F7F E2E8E2C9D5                  4250        DC    C'SYSIN'                                                   28245021
 002F84 54180A                      4251        DC    X'54180A'                  SYSIN                           28252021
 002F87 E2E3C1D9E3                  4252        DC    C'START'                                                   28259021
 002F8C 446402                      4253        DC    X'446402'                  START                           28266021
 002F8F E3C1D3D3E8                  4254        DC    C'TALLY'                                                   28273021
 002F94 790502                      4255 TALCON DC    X'790502'            TALLY                                 28280021
 002F97 E3C9D4C5E2                  4256        DC    C'TIMES'                                                   28287021
 002F9C 549306                      4257 TIMCON DC    X'549306'            TIMES                                 28294021
 002F9F E3D9C1C3C5                  4258        DC    C'TRACE'                                                   28301021
 002FA4 548E02                      4259        DC    X'548E02'            TRACE                                 28308021
 002FA7 E3D9C1C3D2                  4260        DC    C'TRACK'                   TRACK                           28315021
 002FAC 54C408                      4261        DC    X'54C408'                                                  28322021
 002FAF E4D5E3C9D3                  4262        DC    C'UNTIL'                                                   28329021
 002FB4 547D02                      4263        DC    X'547D02'            UNTIL                                 28336021
                             02FB7  4264 USGCON   EQU   *                                                        28343021
 002FB7 E4E2C1C7C5                  4265        DC    C'USAGE'                                                   28350021
 002FBC 54DD04                      4266        DC    X'54DD04'            USAGE                                 28357021
 002FBF E4E2C9D5C7                  4267        DC    C'USING'                                                   28364021
 002FC4 548902                      4268 USICON DC    X'548902'                 USING                            28371021
 002FC7 E5C1D3E4C5                  4269        DC    C'VALUE'                                                   28378021
 002FCC 54CA04                      4270        DC    X'54CA04'            VALUE                                 28385021
 002FCF E6D6D9C4E2                  4271        DC    C'WORDS'                                                   28392021
                             02FD4  4272 WRDCON EQU   *                                                          28399021
 002FD4 543608                      4273        DC    X'543608'                  WORDS                           28406021
 002FD7 E6D9C9E3C5                  4274        DC    C'WRITE'                                                   28413021
 002FDC 442302                      4275 WRCON  DC    X'442302'            WRITE                                 28420021
 002FDF E9C5D9D6E2                  4276        DC    C'ZEROS'              5-BYTE COBOL WORDS PRECEDE           28427021
 002FE4 75F006                      4277        DC    X'75F006'            ZEROS           SAME AS 'ZERO-S-E     28434021
 002FE7 C1C3C3C5D7E3                4278 COB6   DC    C'ACCEPT'             6-BYTE COBOL WORDS FOLLOW            28441021
 002FED 442502                      4279        DC    X'442502'            ACCEPT                                28448021
 002FF0 C1C3C3C5E2E2                4280        DC    C'ACCESS'                                                  28455021
 002FF6 54B208                      4281        DC    X'54B208'            ACCESS                                28462021
 002FF9 C1C3E3E4C1D3                4282        DC    C'ACTUAL'                                                  28469021
 002FFF 54B608                      4283        DC    X'54B608'            ACTUAL                                28476021
 003002 C1E2E2C9C7D5                4284        DC    C'ASSIGN'                                                  28483021
 003008 54B108                      4285 ASGNCN DC    X'54B108'            ASSIGN                                28490021
 00300B C1E4E3C8D6D9                4286        DC    C'AUTHOR'                                                  28497021
 003011 42F341                      4287        DC    X'42F341'            AUTHOR                                28504021
 003014 C2C5C6D6D9C5                4288        DC    C'BEFORE'                                                  28511021
 00301A 546902                      4289 BEFCON DC    X'546902'                 BEFORE                           28518021
 00301D C3D6D3E4D4D5                4290        DC    C'COLUMN'                                                  28525021
 003023 54FC04                      4291        DC    X'54FC04'            COLUMN                                28532021
 003026 C3D6D4D760F1                4292        DC    C'COMP-1'                                                  28539021
 00302C 54DF04                      4293        DC    X'54DF04'                  COMP-1-SAME AS COMPUTATIONA     28546021
 00302F C3D6D4D760F2                4294        DC    C'COMP-2'                                                  28553021
 003035 54E004                      4295        DC    X'54E004'                  COMP-2-SAME AS COMPUTATIONA     28560021
 003038 C3D6D4D760F3                4296        DC    C'COMP-3'                                                  28567021
 00303E 54E104                      4297        DC    X'54E104'                  COMP-3-SAME AS COMPUTATIONA     28574021
                                    4298 *CYCLON  DC    C'CYCLES'                                                28581021
                                    4299 *        DC    X'54C608'                CYCLES                          28588021
1PH1A     IKFCBL10                                                                                              PAGE   89
-  LOC  OBJECT CODE    ADDR1 ADDR2  STMT   SOURCE STATEMENT                                       ASM 0201 11.03 02/14/15
0003041 C4C5D3C5E3C5                4300        DC   C'DELETE'              CAN'T BE USED IN ANY DIVISION        28595021
 003047 54B900                      4301        DC   X'54B900'              OR AS A DATA NAME                    28602021
 00304A C4C5E3C1C9D3                4302        DC    C'DETAIL'                                                  28609021
 003050 54EA04                      4303        DC    X'54EA04'            DETAIL          SAME AS 'DE'          28616021
 003053 C4C9E5C9C4C5                4304        DC    C'DIVIDE'                                                  28623021
 003059 440302                      4305        DC    X'440302'            DIVIDE                                28630021
 00305C C5D5C4C9D5C7                4306        DC    C'ENDING'                                                  28637021
 003062 546202                      4307        DC    X'546202'            ENDING                                28644021
 003065 C6C9D3D3C5D9                4308        DC    C'FILLER'                                                  28651021
 00306B 54AF04                      4309        DC    X'54AF04'            FILLER                                28658021
 00306E C7C9E5C9D5C7                4310        DC    C'GIVING'                                                  28665021
 003074 548102                      4311 GIVCON DC    X'548102'                 GIVING                           28672021
 003077 C7D6C2C1C3D2                4312        DC    C'GOBACK'                                                  28679021
 00307D 447302                      4313        DC    X'447302'                 GOBACK                           28686021
 003080 C9D5E2C5D9E3                4314        DC   C'INSERT'              CAN'T BE USED IN ANY DIVISION        28693021
 003086 54BB00                      4315        DC   X'54BB00'              OR AS A DATA NAME                    28700021
 003089 D3C9D4C9E3E2                4316        DC    C'LIMITS'                                                  28707021
 00308F 545F04                      4317        DC    X'545F04'            LIMITS         SAME AS LIMIT          28714021
 003092 D4C5D4D6D9E8                4318        DC    C'MEMORY'                                                  28721021
                             03098  4319 MEMCON EQU   *                                                          28728021
 003098 543508                      4320        DC    X'543508'                  MEMORY                          28735021
 00309B D5E4D4C2C5D9                4321        DC    C'NUMBER'                                                  28742021
 0030A1 544400                      4322        DC    X'544400'                  NUMBER                          28749021
 0030A4 D6C3C3E4D9E2                4323        DC    C'OCCURS'                                                  28756021
 0030AA 54DA04                      4324        DC    X'54DA04'            OCCURS                                28763021
 0030AD D6E4E3D7E4E3                4325        DC    C'OUTPUT'                                                  28770021
 0030B3 546402                      4326        DC    X'546402'            OUTPUT                                28777021
 0030B6 D8E4D6E3C5E2                4327        DC    C'QUOTES'                                                  28784021
 0030BC 757D06                      4328 QUOSCN DC    X'757D06'                 QUOTES       SAME AS QUOTE  9638 28791021
 0030BF D9C1D5C4D6D4                4329        DC    C'RANDOM'                                                  28798021
 0030C5 54670A                      4330 RANDCN DC    X'54670A'            RANDOM                                28805021
 0030C8 D9C5C3D6D9C4                4331        DC    C'RECORD'                                                  28812021
 0030CE 54CD0E                      4332 RECCON DC    X'54CD0E'                  RECORD                          28819021
 0030D1 D9C5D7D6D9E3                4333        DC    C'REPORT'                                                  28826021
 0030D7 420524                      4334 REPTCD DC    X'420524'            REPORT          54D604 IN RPT SCT     28833021
 0030DA D9C5D9C5C1C4                4335        DC    C'REREAD'                                                  28840021
 0030E0 544B02                      4336        DC    X'544B02'                 REREAD                           28847021
 0030E3 D9C5E3E4D9D5                4337        DC    C'RETURN'                                                  28854021
 0030E9 442A02                      4338        DC    X'442A02'            RETURN                                28861021
 0030EC D9C5E6C9D5C4                4339        DC    C'REWIND'                                                  28868021
 0030F2 546D02                      4340        DC    X'546D02'            REWIND                                28875021
 0030F5 E2C5C1D9C3C8                4341        DC    C'SEARCH'                                                  28882021
 0030FB 445E02                      4342 SEACON DC    X'445E02'                 SEARCH                           28889021
 0030FE E2C5D3C5C3E3                4343        DC    C'SELECT'                                                  28896021
 003104 44F108                      4344 SELCON   DC    X'44F108'           SELECT                               28903021
 003107 E2D6E4D9C3C5                4345        DC    C'SOURCE'                                                  28910021
 00310D 54FE04                      4346        DC    X'54FE04'            SOURCE                                28917021
 003110 E2D7C1C3C5E2                4347        DC    C'SPACES'                                                  28924021
 003116 754006                      4348        DC    X'754006'            SPACES          SAME AS 'SPACE'       28931021
 003119 E2E3C1E3E4E2                4349        DC    C'STATUS'                                                  28938021
 00311F 543300                      4350 STATCN DC   X'543300'              STATUS-NO DIV OR DATA NAME           28945021
 003122 E2E8E2C9D7E3                4351        DC   C'SYSIPT'                                                   28952021
 003128 54180A                      4352        DC   X'54180A'                                                   28959021
 00312B E2E8E2D3E2E3                4353        DC   C'SYSLST'                                                   28966021
 003131 54190A                      4354        DC   X'54190A'                                                   28973021
1PH1A     IKFCBL10                                                                                              PAGE   90
-  LOC  OBJECT CODE    ADDR1 ADDR2  STMT   SOURCE STATEMENT                                       ASM 0201 11.03 02/14/15
0003134 E2E8E2D6E4E3                4355        DC    C'SYSOUT'                                                  28980021
 00313A 54190A                      4356        DC    X'54190A'                  SYSOUT                          28987021
 00313D E2E8E2D7C3C8                4357        DC   C'SYSPCH'                                                   28994021
 003143 54770A                      4358        DC   X'54770A'                                                   29001021
 003146 E3D9C1C3D2E2                4359        DC    C'TRACKS'                                                  29008021
 00314C 54C408                      4360 TRKCON DC    X'54C408'            TRACKS                                29015021
 00314F E5C1D3E4C5E2                4361        DC    C'VALUES'                                                  29022021
 003155 54CA04                      4362        DC    X'54CA04'                  VALUES-SAME AS VALUE            29029021
 003158 E9C5D9D6C5E2                4363        DC    C'ZEROES'             6-BYTE COBOL WORDS PRECEDE           29036021
 00315E 75F006                      4364        DC    X'75F006'            ZEROES          SAME AS 'ZERO-S'      29043021
 003161 C3C8C1D5C7C5C4              4365 COB7   DC    C'CHANGED'            7-BYTE COBOL WORDS FOLLOW            29050021
 003168 548F02                      4366 CHGCON DC    X'548F02'            CHANGED                               29057021
 00316B C1C4C4D9C5E2E2              4367        DC    C'ADDRESS'                                                 29064021
 003172 544200                      4368        DC    X'544200'                  ADDRESS                         29071021
 003175 C3D6D4D7E4E3C5              4369        DC    C'COMPUTE'                                                 29078021
 00317C 440402                      4370        DC    X'440402'            COMPUTE                               29085021
 00317F C3D6D5E2D6D3C5              4371        DC    C'CONSOLE'                                                 29092021
 003186 54780A                      4372        DC    X'54780A'            CONSOLE                               29099021
 003189 C3D6D5E3D9D6D3              4373        DC    C'CONTROL'                                                 29106021
 003190 54D004                      4374        DC    X'54D004'            CONTROL         SAME AS 'CONTROLS     29113021
 003193 C4C9E2D7D3C1E8              4375        DC    C'DISPLAY'                                                 29120021
 00319A 542606                      4376 DISPCD DC    X'542606'            DISPLAY         4426 IN'PROC DIV'     29127021
 00319D C5E7C1D4C9D5C5              4377        DC    C'EXAMINE'                                                 29134021
 0031A4 441E02                      4378        DC    X'441E02'            EXAMINE                               29141021
 0031A7 C5E7C8C9C2C9E3              4379        DC    C'EXHIBIT'                                                 29148021
 0031AE 442702                      4380        DC    X'442702'            EXHIBIT                               29155021
 0031B1 C6D6D6E3C9D5C7              4381        DC    C'FOOTING'                                                 29162021
 0031B8 54EC04                      4382        DC    X'54EC04'            FOOTING                               29169021
 0031BB C7D9C5C1E3C5D9              4383        DC    C'GREATER'                                                 29176021
 0031C2 500802                      4384 GRTCON DC    X'500802'            GREATER                               29183021
 0031C5 C8C5C1C4C9D5C7              4385        DC    C'HEADING'                                                 29190021
 0031CC 54E904                      4386        DC    X'54E904'            HEADING                               29197021
 0031CF C9D5C4C5E7C5C4              4387        DC    C'INDEXED'                                                 29204021
 0031D6 54BC08                      4388        DC    X'54BC08'            INDEXED                               29211021
 0031D9 C9D5E5C1D3C9C4              4389        DC    C'INVALID'                                                 29218021
 0031E0 547102                      4390        DC    X'547102'            INVALID                               29225021
 0031E3 D3C5C1C4C9D5C7              4391        DC    C'LEADING'                                                 29232021
 0031EA 547C02                      4392        DC    X'547C02'            LEADING                               29239021
 0031ED D3C9D5D2C1C7C5              4393        DC    C'LINKAGE'                                                 29246021
 0031F4 420426                      4394 LINKCD DC    X'420426'            LINKAGE         5491 IN 'PD'          29253021
 0031F7 D4D6C4E4D3C5E2              4395        DC    C'MODULES'                                                 29260021
                             031FE  4396 MODCON EQU   *                                                          29267021
 0031FE 543408                      4397        DC    X'543408'                  MODULES                         29274021
 003201 D5D6D4C9D5C1D3              4398        DC    C'NOMINAL'                                                 29281021
 003208 54B508                      4399        DC    X'54B508'                  NOMINAL                         29288021
 00320B D5E4D4C5D9C9C3              4400        DC    C'NUMERIC'                                                 29295021
 003212 545602                      4401        DC    X'545602'            NUMERIC                               29302021
 003215 D6D4C9E3E3C5C4              4402        DC    C'OMITTED'                                                 29309021
 00321C 54D404                      4403 OMTCON DC    X'54D404'                  OMITTED                         29316021
 00321F D7C5D9C6D6D9D4              4404        DC    C'PERFORM'                                                 29323021
 003226 443802                      4405        DC    X'443802'            PERFORM                               29330021
 003229 D7C9C3E3E4D9C5              4406        DC    C'PICTURE'                                                 29337021
 003230 54D804                      4407 PICTCD DC    X'54D804'            PICTURE                               29344021
 003233 D7D9D6C3C5C5C4              4408        DC    C'PROCEED'                                                 29351021
 00323A 548602                      4409 PRCDCN DC    X'548602'            PROCEED                               29358021
1PH1A     IKFCBL10                                                                                              PAGE   91
-  LOC  OBJECT CODE    ADDR1 ADDR2  STMT   SOURCE STATEMENT                                       ASM 0201 11.03 02/14/15
000323D D7D9D6C7D9C1D4              4410        DC    C'PROGRAM'                                                 29365021
 003244 540D02                      4411        DC    X'540D02'                 PROGRAM                          29372021
 003247 D9C5C3D6D9C4E2              4412        DC    C'RECORDS'                                                 29379021
 00324E 54CF04                      4413 RCDSCO DC    X'54CF04'            RECORDS                               29386021
 003251 D9C5D3C5C1E2C5              4414        DC    C'RELEASE'                                                 29393021
 003258 443702                      4415        DC    X'443702'            RELEASE                               29400021
 00325B D9C5D4C1D9D2E2              4416        DC    C'REMARKS'                                                 29407021
 003262 42FE41                      4417        DC    X'42FE41'             REMARKS                              29414021
 003265 D9C5D5C1D4C5E2              4418        DC    C'RENAMES'                                                 29421021
 00326C 543904                      4419        DC    X'543904'                  RENAMES                         29428021
 00326F D9C5D7D6D9E3E2              4420        DC    C'REPORTS'                                                 29435021
 003276 54D604                      4421 REPTCN DC    X'54D604'            REPORTS         SAME AS'REPORT'IN     29442021
 003279 D9C5E2C5D9E5C5              4422        DC    C'RESERVE'                                                 29449021
 003280 54B408                      4423        DC    X'54B408'            RESERVE                               29456021
 003283 D9C5E6D9C9E3C5              4424        DC    C'REWRITE'                                                 29463021
 00328A 442402                      4425        DC    X'442402'            REWRITE                               29470021
 00328D D9D6E4D5C4C5C4              4426        DC    C'ROUNDED'                                                 29477021
 003294 548202                      4427        DC    X'548202'            ROUNDED                               29484021
 003297 E2C5C3E3C9D6D5              4428 SCTKON DC    C'SECTION'                                                 29491021
 00329E 54A50E                      4429 SCTCON DC    X'54A50E'            SECTION                               29498021
 0032A1 E3C8D9D6E4C7C8              4430        DC    C'THROUGH'                                                 29505021
 0032A8 548702                      4431        DC    X'548702'                  THROUGH-SAME AS THRU            29512021
 0032AB E3D6E3C1D3C5C4              4432        DC    C'TOTALED'                                                 29519021
 0032B2 541104                      4433 TODCON DC    X'541104'                  TOTALED                         29526021
 0032B5 E5C1D9E8C9D5C7              4434        DC    C'VARYING'            7-BYTE COBOL WORDS PRECEDE           29533021
 0032BC 548802                      4435        DC    X'548802'            VARYING                               29540021
 0032BF C3D6D5E3C1C9D5E2            4436 COB8   DC    C'CONTAINS'           8-BYTE COBOL WORDS FOLLOW            29547021
 0032C7 54D304                      4437 CONTCN DC    X'54D304'            CONTAINS                              29554021
 0032CA C3D6D5E3D9D6D3E2            4438        DC    C'CONTROLS'                                                29561021
 0032D2 54D004                      4439        DC    X'54D004'            CONTROLS        SAME AS 'CONTROL'     29568021
 0032D5 C3E4D9D9C5D5C3E8            4440        DC    C'CURRENCY'                                                29575021
 0032DD 543008                      4441        DC    X'543008'                  CURRENCY                        29582021
 0032E0 C4C9E5C9E2C9D6D5            4442 DIVKON DC    C'DIVISION'                                                29589021
 0032E8 54A70F                      4443 DIVCON DC    X'54A70F'            DIVISION                              29596021
 0032EB C7C5D5C5D9C1E3C5            4444        DC    C'GENERATE'                                                29603021
 0032F3 443402                      4445        DC    X'443402'            GENERATE                              29610021
 0032F6 C9D5C4C9C3C1E3C5            4446        DC    C'INDICATE'                                                29617021
 0032FE 54FD04                      4447        DC    X'54FD04'            INDICATE                              29624021
 003301 C9D5C9E3C9C1E3C5            4448        DC    C'INITIATE'                                                29631021
 003309 443302                      4449        DC    X'443302'            INITIATE                              29638021
 00330C D4E4D3E3C9D7D3E8            4450        DC    C'MULTIPLY'                                                29645021
 003314 440202                      4451        DC    X'440202'            MULTIPLY                              29652021
 003317 D5C5C7C1E3C9E5C5            4452        DC    C'NEGATIVE'                                                29659021
 00331F 545802                      4453        DC    X'545802'            NEGATIVE                              29666021
 003322 D6D7E3C9D6D5C1D3            4454        DC    C'OPTIONAL'                                                29673021
 00332A 543D08                      4455 OPTCON DC    X'543D08'                 OPTIONAL                         29680021
 00332D D4E4D3E3C9D7D3C5            4456 MULTCN DC    C'MULTIPLE'                                                29687021
 003335 54AD08                      4457 MULCON DC    X'54AD08'                  MULTIPLE                        29694021
 003338 D7D6E2C9E3C9D6D5            4458        DC    C'POSITION'                                                29701021
 003340 543F08                      4459 POSICN DC    X'543F08'             POSITION                             29708021
 003343 D7D6E2C9E3C9E5C5            4460        DC    C'POSITIVE'                                                29715021
 00334B 545702                      4461        DC    X'545702'            POSITIVE                              29722021
 00334E D9C5E5C5D9E2C5C4            4462        DC    C'REVERSED'                                                29729021
 003356 546E02                      4463        DC    X'546E02'            REVERSED                              29736021
 003359 E2C5C3E4D9C9E3E8            4464        DC    C'SECURITY'                                                29743021
1PH1A     IKFCBL10                                                                                              PAGE   92
-  LOC  OBJECT CODE    ADDR1 ADDR2  STMT   SOURCE STATEMENT                                       ASM 0201 11.03 02/14/15
0003361 42F041                      4465        DC    X'42F041'            SECURITY                              29750021
 003364 E2C5D5E3C5D5C3C5            4466        DC    C'SENTENCE'                                                29757021
 00336C 54FB02                      4467        DC    X'54FB02'            SENTENCE                              29764021
 00336F E2E3C1D5C4C1D9C4            4468        DC    C'STANDARD'                                                29771021
 003377 54D506                      4469 STDCON DC    X'54D506'                  STANDARD                        29778021
 00337A E2E4C2E3D9C1C3E3            4470        DC    C'SUBTRACT'                                                29785021
 003382 440102                      4471 SUBCON DC    X'440102'                 SUBTRACT                         29792021
 003385 E2E4D7D7D9C5E2E2            4472        DC    C'SUPPRESS'                                                29799021
 00338D 54070F                      4473 SURPCN DC    X'54070F'             SUPPRESS                             29806021
 003390 E2E8E2D7E4D5C3C8            4474        DC    C'SYSPUNCH'                                                29813021
 003398 54770A                      4475        DC    X'54770A'                  SYSPUNCH                        29820021
 00339B E3D6E3C1D3C9D5C7            4476        DC    C'TOTALING'                                                29827021
 0033A3 541004                      4477 TOGCON DC    X'541004'                  TOTALING                        29834021
 0033A6 E3C1D3D3E8C9D5C7            4478        DC    C'TALLYING'           8-BYTE COBOL WORDS PRECEDE           29841021
 0033AE 547B02                      4479        DC    X'547B02'            TALLYING                              29848021
 0033B1 C1C4E5C1D5C3C9D5            4480 COB9   DC    C'ADVANCING'          9-BYTE COBOL WORDS FOLLOW            29855021
 0033BA 547302                      4481 ADVCON DC    X'547302'                 ADVANCING                        29862021
 0033BD C1D3E3C5D9D5C1E3            4482        DC    C'ALTERNATE'                                               29869021
 0033C6 54BE08                      4483        DC    X'54BE08'            ALTERNATE                             29876021
 0033C9 C1E2C3C5D5C4C9D5            4484        DC    C'ASCENDING'                                               29883021
 0033D2 548D02                      4485        DC    X'548D02'            ASCENDING                             29890021
 0033D5 C2C5C7C9D5D5C9D5            4486        DC    C'BEGINNING'                                               29897021
 0033DE 546102                      4487        DC    X'546102'            BEGINNING                             29904021
 0033E1 C3E8D360C9D5C4C5            4488        DC    C'CYL-INDEX'                                               29911021
 0033EA 545108                      4489        DC    X'545108'                  CYL-INDEX                       29918021
 0033ED C4C5D7C5D5C4C9D5            4490        DC    C'DEPENDING'                                               29925021
 0033F6 549406                      4491 DEPNCN DC    X'549406'            DEPENDING                             29932021
 0033F9 D1E4E2E3C9C6C9C5            4492        DC    C'JUSTIFIED'                                               29939021
 003402 54DB04                      4493        DC    X'54DB04'            JUSTIFIED                             29946021
 003405 D3D6E660E5C1D3E4            4494        DC    C'LOW-VALUE'                                               29953021
 00340E 750006                      4495        DC    X'750006'            LOW-VALUE       SAME AS 'LOW-VALU     29960021
 003411 D6E3C8C5D9E6C9E2            4496        DC    C'OTHERWISE'                                               29967021
 00341A 440802                      4497        DC    X'440802'            OTHERWISE       SAME AS 'ELSE'        29974021
 00341D D7D9D6C3C5C4E4D9            4498        DC    C'PROCEDURE'                                               29981021
 003426 42061E                      4499 PROCCD DC    X'42061E'            PROCEDURE      549902 IN 'PD'         29988021
 003429 D9C5C3D6D9C4C9D5            4500        DC    C'RECORDING'                                               29995021
 003432 541604                      4501        DC    X'541604'            RECORDING                             30002021
 003435 D9C5C4C5C6C9D5C5            4502        DC    C'REDEFINES'                                               30009021
 00343E 54D704                      4503        DC    X'54D704'            REDEFINES                             30016021
 003441 D9C5D4C1C9D5C4C5            4504        DC    C'REMAINDER'                                               30023021
 00344A 543E00                      4505        DC    X'543E00'             REMAINDER                            30030021
 00344D D9C5D7D3C1C3C9D5            4506        DC    C'REPLACING'                                               30037021
 003456 547E02                      4507 REPCN  DC    X'547E02'        REPLACING                                 30044021
 003459 D9C5D7D6D9E3C9D5            4508        DC    C'REPORTING'                                               30051021
 003462 546A02                      4509        DC    X'546A02'            REPORTING                             30058021
 003465 E3C5D9D4C9D5C1E3            4510        DC    C'TERMINATE'                                               30065021
 00346E 443502                      4511        DC    X'443502'            TERMINATE                             30072021
 003471 E3D9C1D5E2C6D6D9            4512        DC    C'TRANSFORM'          9-BYTE COBOL WORDS PRECEDE           30079021
 00347A 441F02                      4513        DC    X'441F02'            TRANSFORM                             30086021
 00347D C1D3D7C8C1C2C5E3            4514 COB10  DC    C'ALPHABETIC'         10-BYTE COBOL WORDS FOLLOW           30093021
 003487 545502                      4515        DC    X'545502'            ALPHABETIC                            30100021
 00348A C3C8C1D9C1C3E3C5            4516        DC    C'CHARACTERS'                                              30107021
 003494 54920E                      4517 CHARCN DC    X'54920E'                 CHARACTERS                       30114021
 003497 C3D6D9C560C9D5C4            4518        DC    C'CORE-INDEX'                                              30121021
 0034A1 540C08                      4519        DC    X'540C08'                 CORE-INDEX                       30128021
1PH1A     IKFCBL10                                                                                              PAGE   93
-  LOC  OBJECT CODE    ADDR1 ADDR2  STMT   SOURCE STATEMENT                                       ASM 0201 11.03 02/14/15
00034A4 C4C5E2C3C5D5C4C9            4520        DC    C'DESCENDING'                                              30135021
 0034AE 548C02                      4521        DC    X'548C02'            DESCENDING                            30142021
 0034B1 C4C9E2D7D3C1E860            4522        DC    C'DISPLAY-ST'                                              30149021
 0034BB 54F204                      4523        DC    X'54F204'            DISPLAY-ST                            30156021
 0034BE C6C9D3C560D3C9D4            4524        DC    C'FILE-LIMIT'                                              30163021
 0034C8 541408                      4525        DC    X'541408'            FILE-LIMIT                            30170021
 0034CB C8C9C7C860E5C1D3            4526        DC    C'HIGH-VALUE'                                              30177021
 0034D5 75FF06                      4527        DC    X'75FF06'            HIGH-VALUE      SAME AS 'HIGH-VAL     30184021
 0034D8 D3D6E660E5C1D3E4            4528        DC    C'LOW-VALUES'                                              30191021
 0034E2 750006                      4529        DC    X'750006'            LOW-VALUES      SAME AS 'LOW-VALU     30198021
 0034E5 D5E2E3C460D9C5C5            4530        DC   C'NSTD-REELS'                                               30205021
 0034EF 540602                      4531        DC   X'540602'                                                   30212021
 0034F2 D7D9D6C3C5E2E2C9            4532        DC    C'PROCESSING'                                              30219021
 0034FC 546808                      4533        DC   X'546808'              PROCESSING                           30226021
 0034FF D7D9D6C7D9C1D460            4534        DC    C'PROGRAM-ID'                                              30233021
 003509 42F241                      4535        DC    X'42F241'            PROGRAM-ID                            30240021
 00350C E2C5D8E4C5D5E3C9            4536        DC    C'SEQUENTIAL'                                              30247021
                             03516  4537 SEQUCN EQU   *                                                          30254021
 003516 54BA08                      4538        DC    X'54BA08'            SEQUENTIAL                            30261021
 003519 E3D9C1C3D260C1D9            4539        DC    C'TRACK-AREA'                                              30268021
 003523 541A08                      4540        DC    X'541A08'            TRACK-AREA                            30275021
 003526 E6D9C9E3C560D6D5            4541        DC    C'WRITE-ONLY'         10-BYTE COBOL WORDS PRECEDE          30282021
 003530 540F08                      4542        DC    X'540F08'            WRITE-ONLY                            30289021
 003533 C3D3D6C3D260E4D5            4543 COB11  DC    C'CLOCK-UNITS'        11-BYTE COBOL WORDS FOLLOW           30296021
 00353E 54C100                      4544        DC   X'54C100'              CLOCK UNITS,NO DIV OR DATA NM        30303021
 003541 C5D5E5C9D9D6D5D4            4545        DC    C'ENVIRONMENT'                                             30310021
 00354C 42F418                      4546 ENVRCN DC    X'42F418'            ENVIRONMENT                           30317021
 00354F C5D5C460D6C660D7            4547        DC    C'END-OF-PAGE'                                             30324021
 00355A 545A02                      4548        DC    X'545A02'                  END-OF-PAGE- SAME AS EOP        30331021
 00355D C6C9D3C560D3C9D4            4549        DC    C'FILE-LIMITS'                                             30338021
                             03568  4550 FILMCN EQU   *                                                          30345021
 003568 541408                      4551        DC    X'541408'                  FILE-LIMITS-SAME AS FILE-LI     30352021
 00356B C8C9C7C860E5C1D3            4552        DC    C'HIGH-VALUES'                                             30359021
 003576 75FF06                      4553        DC    X'75FF06'            HIGH-VALUES     SAME AS 'HIGH-VAL     30366021
 003579 C960D660C3D6D5E3            4554        DC    C'I-O-CONTROL'                                             30373021
 003584 42FA48                      4555        DC    X'42FA48'            I-O-CONTROL                           30380021
 003587 D4D6D9C560D3C1C2            4556        DC    C'MORE-LABELS'                                             30387021
 003592 546302                      4557        DC    X'546302'            MORE-LABELS                           30394021
 003595 D7D6E2C9E3C9D6D5            4558 POSCON DC    C'POSITIONING'                                             30401021
 0035A0 54DC02                      4559        DC    X'54DC02'                  POSITIONING                     30408021
                             035A3  4560 RETCON EQU   *                         CONSTANT                         30415021
 0035A3 D9C5E3E4D9D560C3            4561        DC    C'RETURN-CODE'                                             30422021
 0035AE 54A002                      4562        DC    X'54A002'                 RETURN-CODE                      30429021
                             035B1  4563 SRETCN EQU   *                         CONSTANT                         30436021
 0035B1 E2D6D9E360D9C5E3            4564        DC    C'SORT-RETURN'                                             30443021
 0035BC 544802                      4565        DC    X'544802'                  SORT-RETURN                     30450021
                             035BF  4566 TODTCN EQU   *                         CONSTANT                         30457021
 0035BF E3C9D4C560D6C660            4567        DC    C'TIME-OF-DAY'                                             30464021
 0035CA 544602                      4568        DC    X'544602'                  TIME-OF-DAY                     30471021
 0035CD E3D9C1C3D260D3C9            4569        DC    C'TRACK-LIMIT'        11-BYTE COBOL WORDS PRECEDE          30478021
 0035D8 541C08                      4570        DC    X'541C08'                 TRACK-LIMIT                      30485021
 0035DB C4C1E3C560E6D9C9            4571 COB12  DC    C'DATE-WRITTEN'       12-BYTE COBOL WORDS FOLLOW           30492021
 0035E7 42FC41                      4572        DC    X'42FC41'             DATE-WRITTEN                         30499021
                             035EA  4573 CRDTCN EQU   *                         CONSTANT                         30506021
 0035EA C3E4D9D9C5D5E360            4574        DC    C'CURRENT-DATE'                                            30513021
1PH1A     IKFCBL10                                                                                              PAGE   94
-  LOC  OBJECT CODE    ADDR1 ADDR2  STMT   SOURCE STATEMENT                                       ASM 0201 11.03 02/14/15
00035F6 544502                      4575        DC    X'544502'                  CURRENT-DATE                    30520021
 0035F9 C3E8D360D6E5C5D9            4576        DC    C'CYL-OVERFLOW'                                            30527021
 003605 544F08                      4577        DC    X'544F08'                  CYL-OVERFLOW                    30534021
 003608 C4C5C3D3C1D9C1E3            4578 DECLKN DC    C'DECLARATIVES'                                            30541021
 003614 420742                      4579 DECLCD DC    X'420742'            DECLARATIVES                          30548021
 003617 C6C9D3C560C3D6D5            4580        DC    C'FILE-CONTROL'                                            30555021
 003623 42F948                      4581        DC    X'42F948'            FILE-CONTROL                          30562021
 003626 C9D5D7E4E360D6E4            4582        DC    C'INPUT-OUTPUT'                                            30569021
 003632 42F828                      4583        DC    X'42F828'            INPUT-OUTPUT                          30576021
 003635 C9D5E2E3C1D3D3C1            4584        DC    C'INSTALLATION'                                            30583021
 003641 42FD41                      4585        DC    X'42FD41'             INSTALLATION                         30590021
                             03644  4586 LBRTCN EQU   *                         CONSTANT                         30597021
 003644 D3C1C2C5D360D9C5            4587        DC    C'LABEL-RETURN'                                            30604021
 003650 54A602                      4588        DC    X'54A602'             LABEL-RETURN                         30611021
 003653 D3C9D5C560C3D6E4            4589 LCTRKN DC    C'LINE-COUNTER'                                            30618021
 00365F 790102                      4590        DC    X'790102'            LINE-COUNTER                          30625021
 003662 D4C1E2E3C5D960C9            4591        DC    C'MASTER-INDEX'                                            30632021
 00366E 544E08                      4592        DC    X'544E08'                  MASTER-INDEX                    30639021
 003671 D7C1C7C560C3D6E4            4593 PCTRKN DC    C'PAGE-COUNTER'                                            30646021
 00367D 790202                      4594        DC    X'790202'            PAGE-COUNTER                          30653021
 003680 D7D9C9D5E360E2E6            4595 PTSWKN DC    C'PRINT-SWITCH'                                            30660021
 00368C 54CB02                      4596 PSCON  DC    X'54CB02'            PRINT-SWITCH                          30667021
 00368F E2E8D5C3C8D9D6D5            4597        DC    C'SYNCHRONIZED'                                            30674021
 00369B 543704                      4598        DC    X'543704'                  SYNCHRONIZED                    30681021
 00369E E6D9C9E3C560E5C5            4599        DC    C'WRITE-VERIFY'       12-BYTE COBOL WORDS PRECEDE          30688021
 0036AA 545208                      4600        DC    X'545208'                  WRITE-VERIFY                    30695021
 0036AD C3D6D4D7E4E3C1E3            4601 COB13  DC    C'COMPUTATIONAL'      13-BYTE COBOL WORDS FOLLOW           30702021
 0036BA 54DE04                      4602        DC    X'54DE04'            COMPUTATIONAL                         30709021
 0036BD C3D6D5C6C9C7E4D9            4603        DC    C'CONFIGURATION'                                           30716021
 0036CA 42F528                      4604        DC    X'42F528'            CONFIGURATION                         30723021
 0036CD C3D6D9D9C5E2D7D6            4605        DC    C'CORRESPONDING'                                           30730021
 0036DA 547A02                      4606        DC    X'547A02'            CORRESPONDING                         30737021
 0036DD C4C1E3C560C3D6D4            4607        DC    C'DATE-COMPILED'                                           30744021
 0036EA 420F41                      4608 DATECN DC    X'420F41'            DATE-COMPILED                         30751021
 0036ED C4C5C3C9D4C1D360            4609        DC    C'DECIMAL-POINT'                                           30758021
 0036FA 541308                      4610        DC    X'541308'            DECIMAL-POINT                         30765021
 0036FD E2C5C7D4C5D5E360            4611        DC    C'SEGMENT-LIMIT'                                           30772021
 00370A 446208                      4612 SEGTCN DC    X'446208'                 SEGMENT-LIMIT                    30779021
 00370D E2D7C5C3C9C1D360            4613        DC    C'SPECIAL-NAMES'      13-BYTE COBOL WORDS PRECEDE          30786021
 00371A 42FB48                      4614        DC    X'42FB48'            SPECIAL-NAMES                         30793021
 00371D C9C4C5D5E3C9C6C9            4615 COB14  DC    C'IDENTIFICATION'     14-BYTE COBOL WORDS FOLLOW           30800021
 00372B 42F111                      4616        DC    X'42F111'            IDENTIFICATION                        30807021
                             0372E  4617 SFILCN EQU   *                         CONSTANT                         30814021
 00372E E2D6D9E360C6C9D3            4618        DC    C'SORT-FILE-SIZE'                                          30821021
 00373C 54A802                      4619        DC    X'54A802'                  SORT-FILE-SIZE                  30828021
                             0373F  4620 SCORCN EQU   *                         CONSTANT                         30835021
 00373F E2D6D9E360C3D6D9            4621        DC    C'SORT-CORE-SIZE'                                          30842021
 00374D 54A902                      4622        DC    X'54A902'                  SORT-CORE-SIZE                  30849021
                             03750  4623 SMODCN EQU   *                         CONSTANT                         30856021
 003750 E2D6D9E360D4D6C4            4624        DC    C'SORT-MODE-SIZE'                                          30863021
 00375E 54AA02                      4625        DC    X'54AA02'                  SORT-MODE-SIZE                  30870021
 003761 D9C5D6D9C760C3D9            4626        DC    C'REORG-CRITERIA'     14-BYTE COBOL WORDS PRECEDE          30877021
 00376F 542508                      4627        DC    X'542508'                 REORG-CRITERIA                   30884021
 003772 C3D6D4D7E4E3C1E3            4628 COB15  DC    C'COMPUTATIONAL-1'    15-BYTE COBOL WORDS FOLLOW           30891021
 003781 54DF04                      4629        DC    X'54DF04'            COMPUTATIONAL-1                       30898021
1PH1A     IKFCBL10                                                                                              PAGE   95
-  LOC  OBJECT CODE    ADDR1 ADDR2  STMT   SOURCE STATEMENT                                       ASM 0201 11.03 02/14/15
0003784 C3D6D4D7E4E3C1E3            4630        DC    C'COMPUTATIONAL-2'                                         30905021
 003793 54E004                      4631        DC    X'54E004'            COMPUTATIONAL-2                       30912021
 003796 C3D6D4D7E4E3C1E3            4632        DC    C'COMPUTATIONAL-3'                                         30919021
 0037A5 54E104                      4633        DC    X'54E104'            COMPUTATIONAL-3                       30926021
 0037A8 C5E7E3C5D5C4C5C4            4634        DC    C'EXTENDED-SEARCH'                                         30933021
 0037B7 544D08                      4635        DC    X'544D08'                  EXTENDED-SEARCH                 30940021
 0037BA D6C2D1C5C3E360C3            4636        DC    C'OBJECT-COMPUTER'                                         30947021
 0037C9 42F748                      4637        DC    X'42F748'            OBJECT-COMPUTER                       30954021
 0037CC E2D6E4D9C3C560C3            4638        DC    C'SOURCE-COMPUTER'                                         30961021
 0037DB 42F648                      4639        DC    X'42F648'            SOURCE-COMPUTER                       30968021
 0037DE D9C5C3D6D9C460D6            4640        DC    C'RECORD-OVERFLOW'                                         30975021
 0037ED 545408                      4641        DC    X'545408'                  RECORD-OVERFLOW                 30982021
 0037F0 E6D6D9D2C9D5C760            4642        DC    C'WORKING-STORAGE'                                         30989021
 0037FF 420324                      4643 WRKSCD DC    X'420324'            WORKING-STORAGE                       30996021
 003802 C5D5C4                      4644 TBEND  DC    C'END'                15-BYTE COBOL WORDS PRECEDE          31003021
1PH1A     IKFCBL10                                                                                              PAGE   96
-  LOC  OBJECT CODE    ADDR1 ADDR2  STMT   SOURCE STATEMENT                                       ASM 0201 11.03 02/14/15
0                                   4646 *=2      TRT AND SPECIAL CHARACTER TABLES                               31017021
                                    4647 *                                                                       31024021
                                    4648 *  TABLE FOR LOCATIONG ADDRESS OF PROPER LENGTH COBOL WORD              31031021
                                    4649 *                                                                       31038021
 003805 000000
 003808 00000002                    4650 ADTAB  DC    F'2'                  XX                                   31045021
 00380C 00002BF0                    4651        DC    A(COBWRD)             XX                                   31052021
 003810 00000003                    4652        DC    F'3'                  XX                                   31059021
 003814 00002C63                    4653        DC    A(COB3)               XX                                   31066021
 003818 00000004                    4654        DC    F'4'                  XX                                   31073021
 00381C 00002D1D                    4655        DC    A(COB4)               XX                                   31080021
 003820 00000005                    4656        DC    F'5'                  XX                                   31087021
 003824 00002E5F                    4657        DC    A(COB5)               XX                                   31094021
 003828 00000006                    4658        DC    F'6'                  XX                                   31101021
 00382C 00002FE7                    4659        DC    A(COB6)               XX                                   31108021
 003830 00000007                    4660        DC    F'7'                  XX                                   31115021
 003834 00003161                    4661        DC    A(COB7)               XX                                   31122021
 003838 00000008                    4662        DC    F'8'                  XX                                   31129021
 00383C 000032BF                    4663        DC    A(COB8)               XX                                   31136021
 003840 00000009                    4664        DC    F'9'                  XX                                   31143021
 003844 000033B1                    4665        DC    A(COB9)               XX                                   31150021
 003848 0000000A                    4666        DC    F'10'                 XX                                   31157021
 00384C 0000347D                    4667        DC    A(COB10)              XX                                   31164021
 003850 0000000B                    4668        DC    F'11'                 XX                                   31171021
 003854 00003533                    4669        DC    A(COB11)              XX                                   31178021
 003858 0000000C                    4670        DC    F'12'                 XX                                   31185021
 00385C 000035DB                    4671        DC    A(COB12)              XX                                   31192021
 003860 0000000D                    4672        DC    F'13'                 XX                                   31199021
 003864 000036AD                    4673        DC    A(COB13)              XX                                   31206021
 003868 0000000E                    4674        DC    F'14'                 XX                                   31213021
 00386C 0000371D                    4675        DC    A(COB14)              XX                                   31220021
 003870 0000000F                    4676        DC    F'15'                 XX                                   31227021
 003874 00003772                    4677        DC    A(COB15)              XX                                   31234021
 003878 00000000                    4678        DC    F'0'                  XX                                   31241021
 00387C 00003802                    4679        DC    A(TBEND)              XX                                   31248021
1PH1A     IKFCBL10                                                                                              PAGE   97
-  LOC  OBJECT CODE    ADDR1 ADDR2  STMT   SOURCE STATEMENT                                       ASM 0201 11.03 02/14/15
0                                   4681 *                                                                       31262021
                                    4682 *  SPECIAL CHARACTER TABLE                                              31269021
                                    4683 *                                                                       31276021
 003880 0000389C                    4684 SPTBAD DC    A(SPCTBL+24)     ADDR OF LAST ITEM IN TABLE                31283021
                                    4685 *                                                                       31290021
 003884 7E                          4686 SPCTBL DC    X'7E'            EQUAL                                     31297021
 003885 5006                        4687        DC    X'5006'               XX                                   31304021
 003887 5C                          4688        DC    X'5C'            ASTERISK                                  31311021
 003888 5302                        4689        DC    X'5302'               XX                                   31318021
 00388A 4D                          4690        DC    X'4D'            LEFT PARENTHESIS                          31325021
 00388B 5200                        4691 LPREN  DC    X'5200'               XX                                   31332021
 00388D 5D                          4692        DC    X'5D'            RIGHT PARENTHESIS                         31339021
 00388E 5201                        4693 RPREN  DC    X'5201'               XX                                   31346021
 003890 61                          4694        DC    X'61'            SLASH                                     31353021
 003891 5303                        4695        DC    X'5303'               XX                                   31360021
 003893 4C                          4696        DC    X'4C'            LESS THAN                                 31367021
 003894 500A                        4697        DC    X'500A'               XX                                   31374021
 003896 6E                          4698        DC    X'6E'            GREATER THAN                              31381021
 003897 5008                        4699        DC    X'5008'               XX                                   31388021
 003899 4E                          4700        DC    X'4E'            PLUS                                      31395021
 00389A 5300                        4701 PLUSCD DC    X'5300'               XX                                   31402021
 00389C 60                          4702        DC    X'60'            MINUS                                     31409021
 00389D 5301                        4703 MINCD  DC    X'5301'               XX                                   31416021
                                    4704 * * * * *                                                               31423021
 00389F 5C5C                        4705 EXPOKD DC    X'5C5C'          **  'EXPONENTIATE'                        31430021
 0038A1 5304                        4706 EXPOCD DC    X'5304'               XX                                   31437021
1PH1A     IKFCBL10                                                                                              PAGE   98
-  LOC  OBJECT CODE    ADDR1 ADDR2  STMT   SOURCE STATEMENT                                       ASM 0201 11.03 02/14/15
0                                   4708 *                                                                       31451021
                                    4709 *=1    GETDLM ROUTINE                             ID   ENV  DATA PR     31458021
                                    4710 *                                                                       31465021
 0038A3 00
 0038A4 90E0 DA9C      00ACC        4711 GETDLM STM   JP,JR,GDLRSV         SAVE REGS                             31472021
 0038A8 D501 C6E4 C58D 01674 0151D  4712          CLC   CURCOD(LX2),EOSCON        EOS                            31479021
 0038AE 4770 ACC6      038B6        4713        BC    NOTEQ,GDL1                 NO                              31486021
 0038B2 45E0 B000      01F18        4714        BAL   JP,GETWD                   GETWD                           31493021
 0038B6 94F3 D34C      0037C        4715 GDL1     NI    MSG4SW,XXF3               SET 'OFF' MSG4SW + MSG1SW      31500021
 0038BA 947F AF02      03AF2        4716        NI    DSCRDSW,XX7F               SET OFF DISCARD01 SW            31507021
 0038BE 47F0 ACEA      038DA        4717        BC    UNCOND,GDLMAJ         TEST MAJOR 0                         31514021
 0038C2 90EF DA9C      00ACC        4718 SKIP   STM   JP,JQ,GDLRSV               SAVE REGS                       31521021
 0038C6 9608 D34C      0037C        4719          OI    MSG4SW,XX08               SET MSG4SW ON                  31528021
 0038CA 47F0 ACEA      038DA        4720        BC    UNCOND,GDLMAJ         TEST MAJOR 0                         31535021
 0038CE 90E0 DA9C      00ACC        4721 SKIPGT STM   JP,JR,GDLRSV               SAVE REGS                       31542021
 0038D2 9608 D34C      0037C        4722          OI    MSG4SW,XX08               SET 'ON' MSG4 SW               31549021
 0038D6 45E0 B000      01F18        4723 GDLGET BAL   JP,GETWD                   GETWD                           31556021
 0038DA 9130 C6E4      01674        4724 GDLMAJ   TM    CURCOD,XX30               MAJOR IS O                     31563021
 0038DE 4770 AD08      038F8        4725        BC    NOTZER,GDL3                NO                              31570021
 0038E2 D501 C6E4 C58D 01674 0151D  4726          CLC   CURCOD(LX2),EOSCON        EOS                            31577021
 0038E8 4770 AD40      03930        4727        BNE   GDLIDD                     NO                              31584021
 0038EC 9180 AF02      03AF2        4728        TM    DSCRDSW,XX80               DISCARD 01?                     31591021
 0038F0 47E0 ACE6      038D6        4729        BNO   GDLGET                     NO                              31598021
 0038F4 47F0 AEFC      03AEC        4730        B     GDLXIT                     RETURN EOS IN CUR               31605021
 0038F8 9504 D377      003A7        4731 GDL3     CLI   DIVNM,XX04              * IN DATA DIV                    31612021
 0038FC 4770 AD1C      0390C        4732        BC    NOTEQ,GDLMST               NO                              31619021
 003900 45E0 CE70      01E00        4733        BAL   JP,LEVENC                  ENCODE AS LEVEL NUMBER          31626021
 003904 9130 C6E4      01674        4734          TM    CURCOD,XX30               MAJOR IS 0                     31633021
 003908 4780 AEFC      03AEC        4735        BC    ZERO,GDLXIT                 YES-EXIT                       31640021
 00390C 9108 D34C      0037C        4736 GDLMST   TM    MSG4SW,XX08               TEST MSG4SW                    31647021
 003910 4710 ACE6      038D6        4737        BC    ONES,GDLGET                SWITCH ON                       31654021
 003914 9608 D34C      0037C        4738          OI    MSG4SW,XX08               SET MSG4SW ON                  31661021
 003918 9104 D34C      0037C        4739          TM    MSG1SW,XX04               MSG1SW 'ON'                    31668021
 00391C 4710 AD38      03928        4740        BC    ONES,GDLMS1                 YES-GDLMS1                     31675021
 003920 45E0 DA5C      00A8C        4741        BAL   JP,MSG4                    MSG4                            31682021
 003924 47F0 ACE6      038D6        4742        BC    UNCOND,GDLGET         GETWD, TEST MAJOR 0                  31689021
 003928 45E0 DA50      00A80        4743 GDLMS1 BAL   JP,MSG1                     MSG1                           31696021
 00392C 47F0 ACE6      038D6        4744        BC    UNCOND,GDLGET               -GDLGET                        31703021
 003930 9502 D377      003A7        4745 GDLIDD   CLI   DIVNM,XX02              * IN ID DIV                      31710021
 003934 4770 AD66      03956        4746        BC    NOTEQ,GDLENV               NO                              31717021
 003938 9110 C6E6      01676        4747          TM    CURBCD,XX10               DIVISION HEADER                31724021
 00393C 4780 AEFC      03AEC        4748        BC    ZERO,GDLXIT                 NO-GDLXIT                      31731021
 003940 95F1 C6E5      01675        4749          CLI   CURN,XXF1                 ID-DIV HEADER                  31738021
 003944 4780 AEFC      03AEC        4750        BC    EQ,GDLXIT                   YES-GDLXIT                     31745021
 003948 45E0 D1B4      001E4        4751        BAL   JP,CWENVD                  CHANGE CW TBL FOR ENV DIV       31752021
 00394C 18EF                        4752        LR    JP,JQ                      SET EXIT AND                    31759021
 00394E 90EF DA9C      00ACC        4753        STM   JP,JQ,GDLRSV               BASE FOR ENVSCN                 31766021
 003952 47F0 AD7E      0396E        4754        BC    UNCOND,GDL6           ENV DIV HEADER?                      31773021
 003956 950B D377      003A7        4755 GDLENV   CLI   DIVNM,XX0B              * IN ENV DIV                     31780021
 00395A 4770 ADA8      03998        4756        BC    NOTEQ,GDLDAT               NO                              31787021
 00395E 9108 C6E6      01676        4757          TM    CURDCD,XX08               OK FOR ENV DIV                 31794021
 003962 4780 AD1C      0390C        4758        BC    ZERO,GDLMST                 NO-GDLMST                      31801021
 003966 9110 C6E6      01676        4759          TM    CURDCD,XX10               DIV HDR                        31808021
 00396A 4780 AEFC      03AEC        4760        BC    ZERO,GDLXIT                 NO-GDLXIT                      31815021
 00396E 95F4 C6E5      01675        4761 GDL6     CLI   CURN,XXF4                 ENV DIV HDR                    31822021
1PH1A     IKFCBL10                                                                                              PAGE   99
-  LOC  OBJECT CODE    ADDR1 ADDR2  STMT   SOURCE STATEMENT                                       ASM 0201 11.03 02/14/15
0003972 4780 AEFC      03AEC        4762        BC    EQ,GDLXIT                   YES-GDLXIT                     31829021
 003976 50F0 CE4C      01DDC        4763        ST    JQ,SVCAL5                                                  31836021
 00397A 5090 CE50      01DE0        4764        ST    JJ,SVCAL6                  SAVE BASE                       31843021
 00397E 58F0 C034      00FC4        4765        L     JQ,ENVDIV                                                  31850021
 003982 5890 C038      00FC8        4766        L     JJ,ENVDV1                  APPLY SCN BASE                  31857021
                             095B8  4767        USING ENVSCN,JQ                                                  31864021
                             0A330  4768        USING APPSCN,JJ                                                  31871021
 003986 45E0 956E      0A89E        4769        BAL   JP,SAMEND             SAMEND                               31878021
                                    4770        DROP  JQ                                                         31885021
                                    4771        DROP  JJ                                                         31892021
 00398A 45E0 D208      00238        4772        BAL   JP,CWDATD                  CHANGE CW TBL FOR DATA DIV      31899021
 00398E 18EF                        4773        LR    JP,JQ                      SET EXIT AND                    31906021
 003990 90EF DA9C      00ACC        4774        STM   JP,JQ,GDLRSV               BASE FOR DDSCN                  31913021
 003994 47F0 ADC8      039B8        4775        BC    UNCOND,GDL8           DATA DIV HEADER?                     31920021
 003998 9504 D377      003A7        4776 GDLDAT   CLI   DIVNM,XX04              * IN DATA DIV                    31927021
 00399C 4770 AD1C      0390C        4777        BC    NOTEQ,GDLMST                NO-GDLMST                      31934021
 0039A0 9543 C6E4      01674        4778          CLI   CURCOD,XX43               LEVEL NUMBER                   31941021
 0039A4 4780 AEFC      03AEC        4779        BC    EQ,GDLXIT                  YES, EXIT                       31948021
 0039A8 9104 C6E6      01676        4780          TM    CURDCD,XX04               OK FOR DATA DIV                31955021
 0039AC 4780 AD1C      0390C        4781        BC    ZERO,GDLMST                 NO-GDLMST                      31962021
 0039B0 9110 C6E6      01676        4782          TM    CURDCD,XX10               DIV HDR                        31969021
 0039B4 4780 AEFC      03AEC        4783        BC    ZERO,GDLXIT                 NO-GDLXIT                      31976021
 0039B8 9501 C6E5      01675        4784 GDL8     CLI   CURN,XX01                 DATA DIV HDR                   31983021
 0039BC 4780 AEF6      03AE6        4785        BE    GDLXT1                     YES - FILE TO '420226' - EX     31990021
 0039C0 950F D375      003A5        4786        CLI   DIVCOD,XX0F               LAST WAS ID DIV                  31997021
 0039C4 4780 ADE4      039D4        4787        BC    EQ,WASIDD                 YES-WASIDD                       32004021
 0039C8 950E D375      003A5        4788        CLI   DIVCOD,XX0E               LAST WAS ENV DIV.                32011021
 0039CC 4780 ADE8      039D8        4789        BC    EQ,NODATA                 YES-NODATA                       32018021
 0039D0 47F0 AE00      039F0        4790        BC    UNCOND,TOPRCD             CONTINUE-PROCD DIV.              32025021
 0039D4 45E0 DC4C      00C7C        4791 WASIDD BAL   JP,MSG128                 MESSAGE FOR MISSING ENV          32032021
 0039D8 D204 D515 C5FA 00545 0158A  4792 NODATA MVC   EPARAM+NX1(LX5),DAT4      SET UP MESSAGE                   32039021
 0039DE 9223 D514      00544        4793        MVI   EPARAM,XX23               SET UP MESSAGE                   32046021
 0039E2 D204 D58F C5FA 005BF 0158A  4794        MVC   SECPAR+NX1(LX5),DAT4      SET UP MESSAGE                   32053021
 0039E8 9223 D58E      005BE        4795        MVI   SECPAR,XX23               SET UP MESSAGE                   32060021
 0039EC 45E0 DC54      00C84        4796        BAL   JP,MSG130                 MESSAGE FOR MISSING DATA         32067021
 0039F0 95FF C6E5      01675        4797 TOPRCD CLI   CURN,XXFF                 IS THIS LAST CARD                32074021
 0039F4 4770 AE20      03A10        4798        BC    NOTEQ,TOPRD1              NO-TOPRD1                        32081021
 0039F8 D209 D515 C666 00545 015F6  4799        MVC   EPARAM+NX1(DX10),PRCD9    SET UP MESSAGE                   32088021
 0039FE 9223 D514      00544        4800        MVI   EPARAM,XX23               SET UP MESSAGE                   32095021
 003A02 D209 D58F C666 005BF 015F6  4801        MVC   SECPAR+NX1(DX10),PRCD9    SET UP MESSAGE                   32102021
 003A08 9223 D58E      005BE        4802        MVI   SECPAR,XX23               SET UP MESSAGE                   32109021
 003A0C 45E0 DC54      00C84        4803        BAL   JP,MSG130                 MESSAGE FOR MISSING PRCD         32116021
 003A10 45E0 D284      002B4        4804 TOPRD1 BAL   JP,CWPRCD                 RELEASE + STATIC                 32123021
 003A14 5880 C814      017A4        4805        L     JH,COSADR                  YES                             32130021
 003A18 D203 8190 C2D8 00190 01268  4806          MVC   DATE+NX4-COS(LX4,JH),ZEROCS ZERO 2ND FIELD IN COS DT     32137021
 003A1E D203 8194 D60C 00194 0063C  4807          MVC   NUMCDS(LX4,JH),SVCPCK+NX4  SAVE NUM OF CARDS             32144021
 003A24 95FF C6E5      01675        4808          CLI   CURN,XXFF                 EOP                            32151021
 003A28 4770 AE44      03A34        4809        BNE   PH1BTB                     NO                              32158021
 003A2C 9602 81D3      001D3        4810        OI    PH1BYTE-COS(JH),EOPPH1    TURN ON EOP BIT IN COMMON        32165021
 003A30                             4811 PH1BCL DS    0H                                                         32172021
 003A30 0508                        4812          BALR  JR,JH            PHASE 0                                 32179021
 003A32 A0                          4813        DC    X'A0'                 RETURN TO PH00                       32186021
 003A34                             4814 PH1BTB DS    0H                                                         32193021
 003A34 9101 D34F      0037F        4815        TM    RPTWSW,XX01               RPTWSW 'ON'?                     32200021
 003A38 4780 AE52      03A42        4816        BC    ZERO,NORW1                NO - NORW1                       32207021
1PH1A     IKFCBL10                                                                                              PAGE  100
-  LOC  OBJECT CODE    ADDR1 ADDR2  STMT   SOURCE STATEMENT                                       ASM 0201 11.03 02/14/15
0003A3C 45E0 B1C4      020DC        4817        BAL   JP,GENER1                 GENERATE                         32214021
 003A40 420C                        4818 RPENHD DC    X'420C'                   END OF REPORT SECTION HEADER     32221021
 003A42 9108 D351      00381        4819 NORW1  TM    DELSW1,XX08               DELETE CARD IN SIDEWK            32228021
 003A46 4780 AE74      03A64        4820          BZ    FINDEX              NO - LEAVE SIDEWK ALONE         1917 32235021
 003A4A 5830 DA70      00AA0        4821        L     R3,FINDSV                  DELETE POINTER                  32242021
 003A4E 4120 CDF3      01D83        4822          LA    R2,SIDEWK+NX7             CARD ADDR                      32249021
 003A52 1932                        4823 FINDCK CR    R3,R2                      POINTER GREATER THAN CD         32256021
 003A54 47D0 AE74      03A64        4824        BNH   FINDEX                     NO - SKIP BLANK OUT             32263021
 003A58 9240 2000      00000        4825          MVI   DX0(R2),XX40              BLANK                          32270021
 003A5C 4122 0001      00001        4826          LA    R2,DX1(R2)                                               32277021
 003A60 47F0 AE62      03A52        4827        B     FINDCK                FINDCK                               32284021
 003A64                             4828 FINDEX DS    0H                                                         32291021
 003A64 58F0 C818      017A8        4829        L     JQ,ADPRIM                                                  32298021
 003A68 4110 C83C      017CC        4830        LA  JA,PARP1B                    P1BTBL                          32305021
 003A6C 05EF                        4831        BALR  JP,JQ                 PRIME                                32312021
 003A6E 58F0 C81C      017AC        4832        L     JQ,ADSERT                  INSERT                          32319021
 003A72 5810 C83C      017CC        4833        L     JA,P1BCON                  P1BTBL                          32326021
 003A76 4100 00D7      000D7        4834          LA    JR,DX215                                                 32333021
 003A7A 05EF                        4835        BALR  JP,JQ                 INSERT                               32340021
 003A7C D201 2000 AEF4 00000 03AE4  4836          MVC   DX0(LX2,JB),P1BSIZ                                       32347021
 003A82 D27A 2002 D608 00002 00638  4837          MVC   DX2(LX123,JB),SVCPCK                                     32354021
 003A88 D257 207D CDEA 0007D 01D7A  4838          MVC   DX125(LX88,JB),SIDMOV                                    32361021
 003A8E D201 20D5 D350 000D5 00380  4839          MVC   DX213(LX2,JB),SOCMSW                                     32368021
 003A94 5810 C83C      017CC        4840        L     JA,P1BCON                                                  32375021
 003A98 4100 00DD      000DD        4841          LA    JR,DX221                  SIZE OF INSERT                 32382021
 003A9C 05EF                        4842        BALR  JP,JQ                 INSERT                               32389021
 003A9E 58F0 C044      00FD4        4843        L     JQ,GETADR                                                  32396021
                             03AF8  4844        USING UNLVSN,JQ                                                  32403021
 003AA2 D203 2072 F3A4 00072 03E9C  4845          MVC   DX114(LX4,JB),SVF4PTR    PASS FILE 4 PTR                 32410021
 003AA8 D200 207A D34F 0007A 0037F  4846          MVC   DX122(LX1,JB),RPTWSW                                     32417021
 003AAE D200 207B D355 0007B 00385  4847          MVC   DX123(LX1,JB),TOTUSD                                     32424021
 003AB4 D201 207C C6E2 0007C 01672  4848          MVC   DX124(LX2,JB),CURGCN                                     32431021
 003ABA D203 207E D357 0007E 00387  4849          MVC   DX126(LX4,JB),REPSW        SAVE COPY SWS                 32438021
 003AC0 D24F 2082 D5AE 00082 005DE  4850          MVC   DX130(LX80,JB),COMWK2      SAVE DB IN COPYR              32445021
                                    4851 *      NOTE BYTES 210 THRU 211 ARE NOT USED                             32452021
                                    4852 *                                                                       32459021
                                    4853 * NOTE BYTES 212 THRU 217 ARE NOT USED                                  32466021
                                    4854 *                                                                       32473021
 003AC6 D201 20DA D693 000DA 006C3  4855          MVC   DX218(LX2,JB),TWOTRE       SAVE 2 BYTES IN COL 72        32480021
 003ACC D200 20DC D353 000DC 00383  4856          MVC   DX220(LX1,JB),FRGNSW       SAVE FOREIGN SW               32487021
 003AD2 58F0 C820      017B0        4857        L     JQ,ADSTAC                                                  32494021
 003AD6 5810 C83C      017CC        4858        L     JA,P1BCON                                                  32501021
 003ADA 05EF                        4859        BALR  JP,JQ                 MAKE STATIC                          32508021
 003ADC 58F0 D838      00868        4860          L     JQ,SVREG+NX56                                            32515021
 003AE0 47F0 AE40      03A30        4861        B     PH1BCL                CALL PHASE 0                         32522021
                                    4862        DROP  JQ                                                         32529021
 003AE4 01B4                        4863 P1BSIZ DC    H'436'                     SIZE OF TABLE                   32536021
 003AE6 D202 A17E C19D 02D6E 0112D  4864 GDLXT1   MVC   FILECD(LX3),FILE54        CHANGE FILE 54 TO 42           32543021
 003AEC 98E0 DA9C      00ACC        4865 GDLXIT LM    JP,JR,GDLRSV               RESTORE REGS                    32550021
 003AF0 07FE                        4866        BCR   UNCOND,JP             RETURN                               32557021
                                    4867 *                                                                       32564021
 003AF2 00                          4868 DSCRDSW  DC    X'00'               DISCARD 01                           32571021
                                    4869 *                                                                       32578021
1PH1A     IKFCBL10                                                                                              PAGE  101
-  LOC  OBJECT CODE    ADDR1 ADDR2  STMT   SOURCE STATEMENT                                       ASM 0201 11.03 02/14/15
0003AF8                             4871 IKF105 CSECT                                                            32592021
                                    4872 *=1    UNIT LEVEL SCAN                                                  32599021
                             03AF8  4873        USING UNLVSN,JQ                                                  32606021
                             04438  4874        USING LETTER,JJ                                                  32613021
                                    4875 *                                                                       32620021
                                    4876 * UNIT LEVEL SCAN INITIALIZATION                                        32627021
                                    4877 *                                                                       32634021
                                    4878 *                                                                       32641021
                                    4879 *  INITIALIZATION ROUTINE TO CONVERT SINGLE STROKE QUOTE MARK X'7D'     32648021
                                    4880 *   TO DOUBLE STROKE QUOTE MARK X'7F' IN PHASE 1                        32655021
                                    4881 *                                                                       32662021
 003AF8                             4882 UNLVSN DS    0H                         START OF UNIT LEVEL SCAN        32669021
                                    4883 *CHNGQT MVI   TBQUT1+2,X'03'                                            32676021
                                    4884 *       MVI   TBQUT1,X'07'                                              32683021
                                    4885 *       MVI   SNGLQT,X'7F'                                              32690021
                                    4886 *       BCR   UNCOND,R14                                                32697021
 003AF8 7D                          4887 SNGLQT DC    X'7D'                 TEST FOR SINGLE QUOTE                32704021
                                    4888 *                                                                       32711021
                                    4889 *                                                                       32718021
                                    4890 * UNIT LEVEL SCAN OF SOURCE CARD                                        32725021
                                    4891 *                                                                       32732021
                                    4892 *                                                                       32739021
                                    4893 * IF LAST WORD WAS A NUM LIT, SAVE IT IN EXTERNAL FORM 'BCD W/SIGN'     32746021
                                    4894 *                                                                       32753021
 003AF9 00
 003AFA 9610 D359      00389        4895 GETWD2   OI    GTRTSW,XX10               SET GET CD RETURN SW ON        32760021
 003AFE 901F C0C0      01050        4896        STM   R1,R15,GTCDSV              SAVE GET CD REGS                32767021
 003B02 981F C084      01014        4897        LM    R1,R15,GTWDSV              RESTORE GETWD REGD              32774021
 003B06 D2A1 C6BC C772 0164C 01702  4898 GTWORD   MVC   CURNUM(LX162),NXTNUM      NXTFLD TO CUR-FLD              32781021
 003B0C 9532 C79A      0172A        4899          CLI   NXTCOD,XX32          LAST WORD WAS NUM LIT               32788021
 003B10 4770 F052      03B4A        4900        BC    NOTEQ,ULSC1            NO-ULSC1                            32795021
 003B14 9102 D353      00383        4901          TM    RWLTSW,XX02               IN RPT SCT                     32802021
 003B18 4780 F03E      03B36        4902        BC    ZERO,NORPWT                 NO-NORPWT                      32809021
 003B1C 9108 C6E1      01671        4903          TM    CURSW,XX08                INT-NUM-LIT                    32816021
 003B20 4710 F03E      03B36        4904        BC    ONES,NORPWT                 YES-NORPWT                     32823021
 003B24 9104 D354      00384        4905          TM    VALXW,XX04                VALUE CLAUSE                   32830021
 003B28 4710 F03E      03B36        4906        BC    ONES,NORPWT                 YES-NORPWT                     32837021
 003B2C 45E0 DBFC      00C2C        4907        BAL   JP,MSG108                  -MSG108                         32844021
 003B30 D203 C6E5 C594 01675 01524  4908          MVC   CURN(LX4),INLONE          MAKE INL OF ONE                32851021
 003B36 5820 D968      00998        4909 NORPWT L     R2,VALNLT                  ADDR OF UNPWKW 'FROM'           32858021
 003B3A 4110 C75F      016EF        4910          LA    R1,CURXNL+NX1        ADDR OF CURXNL 'TO'                 32865021
 003B3E 5880 D96C      0099C        4911          L     R8,VALNLT+NX4        SIZE OF FIELD                       32872021
 003B42 4280 C75E      016EE        4912        STC   R8,CURXNL             STORE SIZE                           32879021
 003B46 4480 F2F8      03DF0        4913        EX    R8,NLMOVE             EX MOVE OF NUM LIT                   32886021
                                    4914 *                                                                       32893021
                                    4915 * IF '*DEBUG' IS SET UP IN NXTCOD LEAVE UNIT LEVEL SCAN                 32900021
                                    4916 *                                                                       32907021
 003B4A 9104 D350      00380        4917 ULSC1    TM    DEBULS,XX04               *DEBUG                         32914021
 003B4E 4780 F062      03B5A        4918        BC    ZERO,ULSC12                 NO-ULSC12                      32921021
 003B52 94FB D350      00380        4919          NI    DEBULS,XXFB               SET 'OFF' DEBULS               32928021
 003B56 47F0 97DE      04C16        4920        BC    UNCOND,ULSOUT               -ULSOUT                        32935021
                                    4921 *                                                                       32942021
 003B5A 9120 D34F      0037F        4922 ULSC12   TM    LCRDSW,XX20               ALL CARDS ARE READ             32949021
 003B5E 4710 97DE      04C16        4923        BC    ONES,ULSOUT                 YES-ULSOUT                     32956021
 003B62 9101 D359      00389        4924          TM    DBRDSW,XX01               DOUBLE BUFF FOR COPYR ?        32963021
1PH1A     IKFCBL10                                                                                              PAGE  102
-  LOC  OBJECT CODE    ADDR1 ADDR2  STMT   SOURCE STATEMENT                                       ASM 0201 11.03 02/14/15
0003B66 4770 F0FE      03BF6        4925        BC    NOTZER,ULSCR0              YES - SKIP LAST WD SAVE         32970021
 003B6A 9160 D359      00389        4926          TM    SWBYTS+NX13,XX60          SKIP LASTWD SAVE               32977021
 003B6E 4740 F102      03BFA        4927        BM    ULSCRG                     YES- SCAN CD                    32984021
 003B72 D505 1000 D9C5 00000 009F5  4928        CLC   DX0(LX6,R1),BASISK         IS IT BASIS?              0335  32991021
 003B78 4780 F102      03BFA        4929        BE    ULSCRG                     YES - NO LASTWD SAVE            32998021
 003B7C 9640 D359      00389        4930          OI    NWCDSW,XX40               SET NEW CD SW ON               33005021
 003B80 0670                        4931        BCTR  R7,R0                      ADDR OF COL 73                  33012021
 003B82 0670                        4932 ULSGLS BCTR  R7,R0                      COL 72                          33019021
 003B84 1975                        4933          CR    R7,R5               IS CARD BLANK?                       33026021
 003B86 4740 F128      03C20        4934          BL    ULS13A                   YES-GO SKIP CARD          2689  33033021
 003B8A 9540 7000      00000        4935          CLI   DX0(R7),XX40              BLANK ?                        33040021
 003B8E 4780 F08A      03B82        4936        BE    ULSGLS                     YES - TRY AGAIN                 33047021
 003B92 954B 7000      00000        4937          CLI   DX0(R7),XX4B              WD ENDING WITH PERIOD ?        33054021
 003B96 4780 F0FE      03BF6        4938        BE    ULSCR0                     YES - DON'T SAVE IT             33061021
 003B9A 956B 7000      00000        4939          CLI   DX0(R7),XX6B              COMMA ?                        33068021
 003B9E 4780 F0FE      03BF6        4940        BE    ULSCR0                     YES - DON'T SAVE LAST WD        33075021
 003BA2 4147 0001      00001        4941          LA    R4,DX1(R7)                SAVE END ADDR                  33082021
 003BA6 47F0 F0B4      03BAC        4942        B     ULSG2A                     SKIP DECREMENT                  33089021
 003BAA 0670                        4943 ULSGL2 BCTR  R7,R0                      NXT LOCATION AFTER NON-BLK      33096021
 003BAC 9540 7000      00000        4944 ULSG2A   CLI   DX0(R7),XX40              BLANK ?                        33103021
 003BB0 4780 F0CA      03BC2        4945        BE    ULSCR1                     YES - BEGIN SAVE WD RT          33110021
 003BB4 D500 7000 F000 00000 03AF8  4946          CLC   DX0(LX1,R7),SNGLQT         QUOTE HIT                     33117021
 003BBA 4770 F0B2      03BAA        4947        BNE   ULSGL2                     NO CONTINUE LOOP                33124021
 003BBE 47F0 F0FE      03BF6        4948        B     ULSCR0                     YES - RESTORE COL74 IN R7       33131021
 003BC2 4177 0001      00001        4949 ULSCR1   LA    R7,DX1(R7)                BEGINNING ADDR                 33138021
 003BC6 1976                        4950        CR    R7,R6                      LAST WD IN A-MARGIN ?           33145021
 003BC8 4740 F0FE      03BF6        4951        BL    ULSCR0                     YES - NORMAL PROCESS            33152021
 003BCC D507 7000 A6F0 00000 032E0  4952          CLC   DX0(LX8,R7),DIVKON         DIVISION LAST WD ?            33159021
 003BD2 4780 F0FE      03BF6        4953        BE    ULSCR0                     YES - LEAVE ON CARD             33166021
 003BD6 D506 7000 A6A7 00000 03297  4954          CLC   DX0(LX7,R7),SCTKON         SECTION LAST WD               33173021
 003BDC 4780 F0FE      03BF6        4955        BE    ULSCR0                     YES - LEAVE ON CARD             33180021
 003BE0 1B47                        4956        SR    R4,R7                      DISPLACEMENT                    33187021
 003BE2 4240 D8FC      0092C        4957        STC   R4,LASTWD                  STORE SIZE                      33194021
 003BE6 0640                        4958        BCTR  R4,R0                     DECREMENT 1 FOR EX INSTR.   9610 33201021
 003BE8 4440 F0F8      03BF0        4959        EX    R4,MVLSWD                 EX INSTR. TO SAVE LAST WORD 9610 33208021
 003BEC 47F0 F102      03BFA        4960        B     ULSCRG                     SKIP INST.                      33215021
 003BF0 D200 D8FD 7000 0092D 00000  4961 MVLSWD MVC   LASTWD+NX1(DX0),DX0(R7)   SAVE LAST WORD              9610 33222021
 003BF6 5870 F544      0403C        4962 ULSCR0   L     R7,SETREG+NX8             R7 SET TO COL 74               33229021
                                    4963 *                                                                       33236021
                                    4964 * SCAN TO NEXT UNIT ON CARD                                             33243021
                                    4965 *                                                                       33250021
 003BFA 1B22                        4966 ULSCRG SR    R2,R2                      ZERO REG                        33257021
 003BFC 1B11                        4967        SR    R1,R1                      CLEAR REG                       33264021
 003BFE DD4F 5000 C45C 00000 013EC  4968          TRT   DX0(LX80,R5),UNONB    SCAN TO NON-BLANK                  33271021
 003C04 5010 DAC8      00AF8        4969        ST    R1,NBLPTR                  SAVE ADDR                       33278021
 003C08 1851                        4970        LR    R5,R1                 SAVE ADDR OF NON-BLANK               33285021
 003C0A 1917                        4971        CR    R1,R7                 IS IT IN COL-74                      33292021
 003C0C 4740 F23E      03D36        4972        BC    LO,ULSC1A                   NO-ULSC1A                      33299021
 003C10 9180 D358      00388        4973          TM    CDSURP,XX80               CARD SURPRESS SW ON            33306021
 003C14 4780 F128      03C20        4974        BC    ZERO,ULS13A                NO - CONTINUE                   33313021
 003C18 947F D358      00388        4975          NI    CDSURP,XX7F               SET SW OFF                     33320021
 003C1C 47F0 97DE      04C16        4976        B     ULSOUT                     RETURN TO CALLING               33327021
 003C20 94BF D359      00389        4977 ULS13A   NI    NWCDSW,XXBF               SET NEW CD SW OFF              33334021
 003C24 9120 D359      00389        4978          TM    SKCDSW,XX20               SW ON                          33341021
 003C28 4780 F15A      03C52        4979        BC    ZERO,ULSC13                NO - GTCARD                     33348021
1PH1A     IKFCBL10                                                                                              PAGE  103
-  LOC  OBJECT CODE    ADDR1 ADDR2  STMT   SOURCE STATEMENT                                       ASM 0201 11.03 02/14/15
0003C2C 94DF D359      00389        4980          NI    SKCDSW,XXDF               YES - SET SW OFF               33355021
 003C30 9857 F53C      04034        4981        LM    R5,R7,SETREG               SET UP REGS FOR NEW CD SCN      33362021
 003C34 D24F D61B C0FC 0064B 0108C  4982          MVC   COMWRK(LX80),SAVECD       RESTORE CARD                   33369021
 003C3A 9180 D359      00389        4983          TM    CON2SW,XX80               CONTINUE SW ON                 33376021
 003C3E 4780 F236      03D2E        4984        BC    ZERO,ULSC14                NO - SCAN CD                    33383021
 003C42 947F D359      00389        4985          NI    CON2SW,XX7F               YES- SET SW OFF                33390021
 003C46 5850 DACC      00AFC        4986        L     R5,SKCTAD                  YES - NEXT POSITION ON CD       33397021
 003C4A 47F0 F236      03D2E        4987        B     ULSC14                ULSC14                               33404021
 003C4E 941F D359      00389        4988 ULS13B   NI    SWBYTS+NX13,XX1F          SET OFF CON2SW, NWCDSW, SKC    33411021
 003C52 D201 B3B6 D665 022CE 00695  4989 ULSC13   MVC   IDCOPY(LX2),COMWRK+NX74 SAVE POSSIBLE COPY STMT ID       33418021
 003C58 45E0 F306      03DFE        4990          BAL   R14,GTCARD          -GTCARD                              33425021
 003C5C 9108 D34F      0037F        4991          TM    MSGPSW,XX08               COMMENTS IN ID DIV             33432021
 003C60 4770 F236      03D2E        4992        BC    NOTZER,ULSC14              YES - SKIP IF AREA A BLANK      33439021
 003C64 5970 DAC8      00AF8        4993        C     R7,NBLPTR                  COL 74 HIT                      33446021
 003C68 4780 F236      03D2E        4994        BE    ULSC14                     YES - ALPHA LITERAL OR A-MA     33453021
 003C6C 0650                        4995        BCTR  R5,R0                      SET POINTER TO COL 7            33460021
 003C6E 9560 5000      00000        4996          CLI   DX0(R5),XX60              HYPEN IN COL 7                 33467021
 003C72 4770 F18A      03C82        4997        BNE   STSKSW                     NO - SKIP SW SET                33474021
 003C76 9180 D359      00389        4998          TM    CON2SW,XX80               CONT SW ON               57023 33481021
 003C7A 4780 F18A      03C82        4999          BC    ZERO,STSKSW               NO- SKIP SW SET          57023 33488021
 003C7E 9680 D359      00389        5000          OI    CON2SW,XX80               YES - SET CONTINUE SWITCH O    33495021
 003C82 9620 D359      00389        5001 STSKSW   OI    SKCDSW,XX20               SET SKIP CD SW ON              33502021
 003C86 4155 0001      00001        5002          LA    R5,DX1(R5)                SET R5 BACK TO COL 8           33509021
 003C8A D24F C0FC D61B 0108C 0064B  5003          MVC   SAVECD(LX80),COMWRK       SAVE CARD                      33516021
 003C90 9240 D61B      0064B        5004          MVI   COMWRK,XX40               BLANK OUT                      33523021
 003C94 D24E D61C D61B 0064C 0064B  5005          MVC   COMWRK+NX1(LX79),COMWRK     COMWRK AREA                  33530021
 003C9A D201 D663 C578 00693 01508  5006          MVC   COMWRK+NX72(LX2),KQUOTE  DELIMIT FOR TRT           2689  33537021
 003CA0 1B44                        5007        SR    R4,R4                      CLEAR REG                       33544021
 003CA2 4340 D8FC      0092C        5008        IC    R4,LASTWD                  SIZE OF SAVED WD                33551021
 003CA6 0640                        5009        BCTR  R4,R0                      REDUCE LAST WD SIZE BY 1        33558021
 003CA8 4440 F1DE      03CD6        5010        EX    R4,LSTCRD                  MOVE IT TO COL 12 OF COMWRK     33565021
 003CAC 9180 D359      00389        5011          TM    CON2SW,XX80               CONTINUE SW ON ?               33572021
 003CB0 4780 F236      03D2E        5012        BC    ZERO,ULSC14                NO - SCAN PHONEY CARD           33579021
 003CB4 DD50 C103 C45C 01093 013EC  5013          TRT   SAVECD+NX7(LX81),UNONB     SCAN TO FIRST WD ON CD        33586021
 003CBA 4120 C107      01097        5014          LA    R2,SAVECD+NX11            ADDR OF COL 12                 33593021
 003CBE 1912                        5015        CR    R1,R2                      IN A-MARGIN                     33600021
 003CC0 47B0 F1E4      03CDC        5016        BNL   COL74T                     NO - SKIP MSG                   33607021
 003CC4 45E0 DCCC      00CFC        5017        BAL   JP,MSG160                  CONT WD IN A-MARGIN             33614021
 003CC8 947F D359      00389        5018 CDBLAK   NI    CON2SW,XX7F               SET OFF CONTINUE SW            33621021
 003CCC 47F0 F236      03D2E        5019        B     ULSC14                     BEGIN NEW SCAN OF PHONEY CD     33628021
                                    5020 *                                                                       33635021
 003CD0 D200 2000 3000 00000 00000  5021 COMPWD   MVC   DX0(LX0,R2),DX0(R3)        CONT WD TO COMWRK             33642021
 003CD6 D200 6000 D8FD 00000 0092D  5022 LSTCRD   MVC   DX0(LX0,R6),LASTWD+NX1     LASTWD TO COMWRK              33649021
                                    5023 *                                                                       33656021
 003CDC 4120 C145      010D5        5024 COL74T   LA    R2,SAVECD+NX73            ADDR OF COL 74 IN CD SAVE      33663021
 003CE0 1912                        5025        CR    R1,R2                      COL 74 HIT ?                    33670021
 003CE2 47B0 F1D0      03CC8        5026        BNL   CDBLAK                     YES - CARD IS BLANK             33677021
 003CE6 1831                        5027        LR    R3,R1                      SAVE ADDR                       33684021
 003CE8 45E0 B3CC      022E4        5028        BAL   JP,NOLDHI                  SET UP TABLE FOR NON D,L,H      33691021
 003CEC DD4F 1000 C35C 00000 012EC  5029          TRT   DX0(LX80,R1),NONLDH        SCAN TO NON DIGIT, LETTER,    33698021
 003CF2 45E0 B3E4      022FC        5030        BAL   JP,NOLDHO                  RESET                           33705021
 003CF6 1801                        5031        LR    R0,R1                      END OF CONTINUATION             33712021
 003CF8 1B13                        5032        SR    R1,R3                      SIZE OF CONTINUATION            33719021
 003CFA 4124 6001      00001        5033          LA    R2,DX1(R4,R6)             ENDING ADDR OF CONTINUED WD    33726021
 003CFE 18E2                        5034        LR    JP,R2                      JP=ADDR COMWRK RECEIV.FLD 2623  33733021
1PH1A     IKFCBL10                                                                                              PAGE  104
-  LOC  OBJECT CODE    ADDR1 ADDR2  STMT   SOURCE STATEMENT                                       ASM 0201 11.03 02/14/15
0003D00 1AE1                        5035        AR    JP,R1                      JP=END ADDR RECEIVING FLD 2623  33740021
 003D02 41EE 0001      00001        5036        LA    JP,DX1(JP)                 SETREG+8 IS 1 GT A(COL73) 2623  33747021
 003D06 59E0 F544      0403C        5037        C     JP,SETREG+NX8              END SPILL OVER COMWRK?    2623  33754021
 003D0A 4740 F222      03D1A        5038        BL    COL74U                     NO-CONTINUE               2623  33761021
 003D0E 5BE0 F544      0403C        5039        S     JP,SETREG+NX8              JP=AM'T EXCESS            2623  33768021
 003D12 1B1E                        5040        SR    R1,JP                      ADJUST LENGTH             2623  33775021
 003D14 D201 D663 C578 00693 01508  5041        MVC   COMWRK+NX72(LX2),KQUOTE    DELIMIT FOR TRT           2623  33782021
 003D1A 4410 F1D8      03CD0        5042 COL74U EX    R1,COMPWD                  MOVE CONT. TO COMWRK      2623  33789021
 003D1E 4120 C0FC      0108C        5043        LA    R2,SAVECD                  BEGIN ADDR                      33796021
 003D22 1B02                        5044        SR    R0,R2                      DISPLACE IN WORK                33803021
 003D24 4120 D61C      0064C        5045          LA    R2,COMWRK+NX1             COMWRK ADDR                    33810021
 003D28 1A20                        5046        AR    R2,R0                      POINTER TO NXT POSITION ON      33817021
 003D2A 5020 DACC      00AFC        5047        ST    R2,SKCTAD                  SAVE PTR                        33824021
 003D2E 94FB C6E1      01671        5048 ULSC14   NI    CURSW,XXFB                RESET NON-BLANK SW             33831021
 003D32 47F0 F052      03B4A        5049        BC    UNCOND,ULSC1           -ULSC1                              33838021
 003D36 9400 C797      01727        5050 ULSC1A   NI    NXTSW,XX00           RESET SWITCHES IN NXTSW             33845021
 003D3A 1916                        5051        CR    R1,R6                 IS WORD IN A-MARGIN                  33852021
 003D3C 47B0 F25A      03D52        5052        BC    NOTLO,ULSC1B                NO-ULSC1B                      33859021
 003D40 D505 1000 D9C5 00000 009F5  5053        CLC   DX0(LX6,R1),BASISK         IS IT BASIS?              0335  33866021
 003D46 4780 F262      03D5A        5054        BE    ULSC2                      YES - NO A-MARGIN SW SET        33873021
 003D4A 9601 C797      01727        5055          OI    NXTSW,XX01           SET A-MARGIN SW 'ON'                33880021
 003D4E 47F0 F262      03D5A        5056        BC    UNCOND,ULSC2                -ULSC2                         33887021
 003D52 9108 D34F      0037F        5057 ULSC1B   TM    MSGPSW,XX08               MSGPSW 'ON'                    33894021
 003D56 4710 F156      03C4E        5058        BC    ONES,ULS13B                NO - ULS13B                     33901021
                                    5059 *                                                                       33908021
                                    5060 * ROUTINE TO PROCESS 'PICTURE' CLAUSE                                   33915021
                                    5061 *                                                                       33922021
 003D5A 9101 D372      003A2        5062 ULSC2    TM    PICTSW,XX01          IS PICTURE SW 'ON'                  33929021
 003D5E 4780 F2B4      03DAC        5063        BC    ZERO,PRVPCT            NO-PRVPCT                           33936021
 003D62 94FE D372      003A2        5064          NI    PICTSW,XXFE          SET PICTURE SW 'OFF'                33943021
 003D66 9540 1000      00000        5065 PICTRT   CLI   DX0(R1),XX40         IS POINTER AT A BLANK               33950021
 003D6A 4780 F29E      03D96        5066        BC    EQ,MVPCCD              YES-MVPCCD                          33957021
 003D6E 954B 1000      00000        5067          CLI   DX0(R1),XX4B         IS POINTER AT A PERIOD              33964021
 003D72 4780 F28E      03D86        5068        BC    EQ,PICBLK              YES-PICBLK                          33971021
 003D76 955E 1000      00000        5069          CLI   DX0(R1),XX5E        IS POINTER AT A SEMI-COLON           33978021
 003D7A 4780 F28E      03D86        5070        BC    EQ,PICBLK            YES-PICBLK                            33985021
 003D7E 956B 1000      00000        5071          CLI   DX0(R1),XX6B         IS POINTER AT A COMMA               33992021
 003D82 4770 F296      03D8E        5072        BC    NOTEQ,PCTCNT           NO-PCTCNT                           33999021
 003D86 9540 1001      00001        5073 PICBLK   CLI   DX1(R1),XX40         DOES BLANK FOLLOW                   34006021
 003D8A 4780 F29E      03D96        5074        BC    EQ,MVPCCD              YES-MVPCCD                          34013021
 003D8E 4111 0001      00001        5075 PCTCNT   LA    R1,DX1(R1)           ADD '1' TO POINTER                  34020021
 003D92 47F0 F26E      03D66        5076        BC    UNCOND,PICTRT         REPEAT LOOP                          34027021
 003D96 1881                        5077 MVPCCD LR    R8,R1                 CALCULATE LENGTH                     34034021
 003D98 1B85                        5078        SR    R8,R5                 -OF PICTURE                          34041021
 003D9A 1288                        5079        LTR     R8,R8              IS LENGTH EQ TO ZERO                  34048021
 003D9C 4780 F2AC      03DA4        5080        BC    ZERO,PICMSG          YES                                   34055021
 003DA0 47F0 94F0      04928        5081        BC    UNCOND,BCDNAM          -BCDNAM                             34062021
 003DA4 45E0 DC30      00C60        5082 PICMSG BAL   JP,MSG121             ERROR MSG                            34069021
 003DA8 47F0 F2CC      03DC4        5083        BC    UNCOND,ULSC2A         ULSC2A                               34076021
                                    5084 *                                                                       34083021
 003DAC D502 C6E4 A640 01674 03230  5085 PRVPCT   CLC   CURCOD(LX3),PICTCD   WAS PREVIOUS WORD 'PICTURE'         34090021
 003DB2 4770 F2CC      03DC4        5086        BC    NOTEQ,ULSC2A           NO-RESUME SCAN                      34097021
 003DB6 D501 5000 A032 00000 02C22  5087          CLC   DX0(LX2,R5),ISKON     IS PRESENT WORD 'IS'               34104021
 003DBC 4770 F26E      03D66        5088        BC    NOTEQ,PICTRT           NO-RESUME SCAN                      34111021
 003DC0 9601 D372      003A2        5089          OI    PICTSW,XX01          SET PICTURE SW 'ON'                 34118021
1PH1A     IKFCBL10                                                                                              PAGE  105
-  LOC  OBJECT CODE    ADDR1 ADDR2  STMT   SOURCE STATEMENT                                       ASM 0201 11.03 02/14/15
0003DC4 8B20 0002      00002        5090 ULSC2A   SLA   R2,DX2               MULT CODE FROM UNONB TABLE BY 4     34125021
 003DC8 47F2 F2D4      03DCC        5091          BC    UNCOND,TRNSFR-NX4(R2) -BR TO APPROPRIATE ROUTINE         34132021
                                    5092 *                                                                       34139021
 003DCC 47F0 F052      03B4A        5093        BC    UNCOND,ULSC1          LINKAGE BACK TO SCAN                 34146021
 003DD0 47F0 9000      04438        5094 TRNSFR BC    UNCOND,LETTER         LETTER                               34153021
 003DD4 47F0 902C      04464        5095        BC    UNCOND,DIGIT          DIGIT                                34160021
 003DD8 47F0 90CE      04506        5096        BC    UNCOND,QUOTE          QUOTE                                34167021
 003DDC 47F0 91FE      04636        5097        BC    UNCOND,PERIOD         PERIOD                               34174021
 003DE0 47F0 923A      04672        5098        BC    UNCOND,SIGN           SIGN                                 34181021
 003DE4 47F0 93FA      04832        5099        BC    UNCOND,SPECL          SPECL                                34188021
 003DE8 47F0 943A      04872        5100        BC    UNCOND,ILLEGL         ILLEGL                               34195021
 003DEC 47F0 945C      04894        5101        BC    UNCOND,COMMA          COMMA                                34202021
 003DF0 D200 1000 2000 00000 00000  5102 NLMOVE   MVC   DX0(LX0,R1),DX0(R2)   EX-MOVE                            34209021
1PH1A     IKFCBL10                                                                                              PAGE  106
-  LOC  OBJECT CODE    ADDR1 ADDR2  STMT   SOURCE STATEMENT                                       ASM 0201 11.03 02/14/15
0                                   5104 *                                                                       34223021
                                    5105 *        GET NEXT CARD                                                  34230021
                                    5106 *                                                                       34237021
 003DF6 94FD D35A      0038A        5107 GTCMCD1  NI    CMNTCDSW,XXFD       TURN OFF DELETING A COMMENT CARD SW  34244021
 003DFA 47F0 F30A      03E02        5108          BC    UNCOND,GTCMCD       CONTINUE PROCESSING                  34251021
 003DFE 50E0 DAB8      00AE8        5109 GTCARD ST    JP,GETCSV                  SAVE LINK REG                   34258021
 003E02 5880 C814      017A4        5110 GTCMCD L     R8,COSADR                  ADDR OF COS                     34265021
 003E06 94FB C6E1      01671        5111          NI    CURSW,XXFB                RESET NONBLANK SW              34272021
 003E0A 955C D621      00651        5112          CLI   COMWRK+NX6,XX5C     COMMENT CARD?                  46185 34279021
 003E0E 4780 F322      03E1A        5113          BE    GTCMCD2             PRINT COMMENT CARD EVEN IF     46185 34286021
                                    5114 *                                  DATE-COMPILED COMMENT-ENTRIES  46185 34293021
                                    5115 *                                  ARE NOW BEING PROCESSED        46185 34300021
 003E12 9102 D34F      0037F        5116          TM    DATCSW,XX02               DATE-COMP SW 'ON'              34307021
 003E16 4710 F34A      03E42        5117        BC    ONES,GTLAST                 YES-GTLAST                     34314021
 003E1A D201 D663 D693 00693 006C3  5118 GTCMCD2  MVC   SVCCRD+NX72(LX2),TWOTRE  RESTORE 2 BYTES           46185 34321021
 003E20 9102 D350      00380        5119          TM    FXCDSW,XX02         IS IT FIRST CARD                     34328021
 003E24 4710 F34A      03E42        5120          BO    GTLAST                    YES                            34335021
 003E28 1818                        5121          LR    R1,R8               PHZSW1 ADDRESSABILITY                34342021
 003E2A 9102 11A3      001A3        5122          TM    PHZSW,LIBR                BASIS/COPY?                    34349021
 003E2E 4710 F34A      03E42        5123          BO    GTLAST                    SOURCE WRITTEN BY PRE-PR       34356021
                                    5124 *       CARD TO PRINT AREA                                              34363021
 003E32 4120 D613      00643        5125        LA    R2,SVCGCN                  ADDR OF CARD                    34370021
 003E36 4130 0058      00058        5126          LA    R3,DX88(JR)                SIZE                          34377021
 003E3A 0508                        5127        BALR  R0,R8                      CARD TO                         34384021
 003E3C 16                          5128        DC    X'16'                       PRINT                          34391021
                                    5129 *       PRINT CARD                                                      34398021
 003E3D 00
 003E3E 0508                        5130        BALR  R0,R8                      PRINT                           34405021
 003E40 86                          5131        DC    X'86'                       CARD                           34412021
                                    5132 *                                                                       34419021
                                    5133 *                                                                       34426021
 003E42                             5134 GTLAST DS    0H                                                         34433021
 003E42 5880 C814      017A4        5135          L     R8,COSADR                 ADDRESS OF COS                 34440021
 003E46 1818                        5136          LR    R1,R8                     PHZSW1 ADDRESSABILITY          34447021
 003E48 9120 D353      00383        5137          TM    LCDXSW,XX20               NO MORE CARDS                  34454021
 003E4C 4710 F3B0      03EA8        5138          BC    ONES,REDLCD               YES                            34461021
 003E50 9102 11A3      001A3        5139          TM    PHZSW,LIBR          BASIS/COPY?                          34468021
 003E54 4780 F3A8      03EA0        5140          BZ    REGRED                    NO                             34475021
 003E58 9102 D350      00380        5141          TM    FXCDSW,XX02         IS IT FIRST CARD                     34482021
 003E5C 47E0 F376      03E6E        5142          BNO   GTLAST2             NO - GET RECORD PTR                  34489021
 003E60 0508                        5143 GTLAST1  BALR  R0,R8               READ INPUT FROM FILE 4               34496021
 003E62 04                          5144          DC    X'04'                     X                              34503021
 003E63 00
 003E64 4780 F3B0      03EA8        5145          BZ    REDLCD              LAST CARD READ                       34510021
 003E68 1840                        5146          LR    R4,R0                     R4 = ADDR RECORD               34517021
 003E6A 5040 F3A4      03E9C        5147          ST    R4,SVF4PTR          SAVE RECORD PTR                      34524021
 003E6E 5840 F3A4      03E9C        5148 GTLAST2  L     R4,SVF4PTR          GET RECORD PTR                       34531021
 003E72 95FF 4000      00000        5149          CLI   DX0(R4),XXFF        END OF BUFFER FILE 4                 34538021
 003E76 4780 F368      03E60        5150          BE    GTLAST1             READ FILE 4                          34545021
 003E7A D24F D61B 4000 0064B 00000  5151          MVC   COMWRK(LX80),DX0(R4)      MOVE TO WORKAREA               34552021
 003E80 4144 0050      00050        5152          LA    R4,LX80(R4)         POINT NEXT LOGICAL RECORD            34559021
 003E84 5040 F3A4      03E9C        5153          ST    R4,SVF4PTR          SAVE RECORD PTR                      34566021
 003E88 D201 C798 D669 01728 00699  5154          MVC   NXTGCN(LX2),COMWRK+XX4E INT SEQ NUMBER                   34573021
 003E8E 4810 C798      01728        5155          LH    R1,NXTGCN           GET GCN FROM NXTGCN                  34580021
 003E92 4E10 D608      00638        5156          CVD   R1,SVCPCK           FOR SOURCE STATISTICS                34587021
1PH1A     IKFCBL10                                                                                              PAGE  107
-  LOC  OBJECT CODE    ADDR1 ADDR2  STMT   SOURCE STATEMENT                                       ASM 0201 11.03 02/14/15
0003E96 47F0 F442      03F3A        5157          B     REGRED6A            WRAP UP                              34594021
                                    5158 *                                                                       34601021
 003E9C                             5159 SVF4PTR  DS    F                   FILE 4 RECORD PTR                    34608021
                                    5160 *                                                                       34615021
                                    5161 *                                                                       34622021
                                    5162 *        READ SYSIN CARD - NO BASIS LIBRARY                             34629021
                                    5163 *                                                                       34636021
 003EA0 0508                        5164 REGRED BALR  R0,R8                      READ CARD                       34643021
 003EA2 75                          5165        DC    X'75'                       FROM SYSIN                     34650021
 003EA3 00
 003EA4 4770 F3C8      03EC0        5166        BC    NOTZER,REGRD1              NOT LAST CARD - REGRD1          34657021
 003EA8 9620 D34F      0037F        5167 REDLCD   OI    LCRDSW,XX20               LAST CARD - SET 'ON' LCRDSW    34664021
 003EAC D202 C79A C582 0172A 01512  5168          MVC   NXTCOD(LX3),EOPCON        SETUP EOPCON IN NEXT           34671021
 003EB2 9201 C797      01727        5169          MVI   NXTSW,XX01                SET 'ON' NXTSW                 34678021
 003EB6 D201 C798 C14C 01728 010DC  5170          MVC   NXTGCN(LX2),HWZERO        ZERO NXTGCN                    34685021
 003EBC 47F0 97DE      04C16        5171        BC    UNCOND,ULSOUT               -ULSOUT                        34692021
                                    5172 *                                                                       34699021
 003EC0 1840                        5173 REGRD1 LR    R4,R0                      ADDR OF CARD IN BUFFER          34706021
 003EC2 D24F F554 4000 0404C 00000  5174          MVC   MAINWK(LX80),DX0(R4)       CARD TO MAINWK                34713021
 003EC8 9102 D350      00380        5175          TM    FXCDSW,XX02               FIRST CARD READ                34720021
 003ECC 4710 F416      03F0E        5176        BC    ONES,REGR5A                 YES-REGR5A                     34727021
                                    5177 *                                                                       34734021
 003ED0 D205 CE3C 4000 01DCC 00000  5178          MVC   NMCRD4(LX6),DX0(R4)        SET UP NEW SEQ-NUM            34741021
                                    5179 *                                                                       34748021
                                    5180 *                                                                       34755021
 003ED6 D505 CE3C D683 01DCC 006B3  5181 REGRD4   CLC   NMCRD4(LX6),UBLNK         SEQ-NUM BLANK                  34762021
 003EDC 4780 F416      03F0E        5182        BC    EQ,REGR5A                   YES-REGR5A                     34769021
 003EE0 D505 CE3C D67D 01DCC 006AD  5183          CLC   NMCRD4(LX6),SVCSEQ        IN SEQUENCE                    34776021
 003EE6 4720 F410      03F08        5184        BC    HI,REGRD5                   YES-REGRD5                     34783021
 003EEA 5820 C814      017A4        5185        L     R2,COSADR                  ADDR OF COS                     34790021
 003EEE 9108 21A3      001A3        5186        TM    PHZSW-COS(R2),SEQ                                          34797021
 003EF2 4780 F410      03F08        5187        BC    ZERO,REGRD5           NO                                   34804021
 003EF6 4812 0180      00180        5188        LH    R1,SEQERR-COS(R2)                                          34811021
 003EFA 4111 0001      00001        5189          LA    R1,DX1(R1)                 COUNT OF                      34818021
 003EFE 4012 0180      00180        5190        STH   R1,SEQERR-COS(R2)                                          34825021
 003F02 D201 F552 ACAF 0404A 0389F  5191          MVC   MAIMOV(LX2),EXPOKD   PUT SEQ ERROR SYMBOL IN LINE        34832021
 003F08 D205 D67D CE3C 006AD 01DCC  5192 REGRD5   MVC   SVCSEQ(LX6),NMCRD4        SAVE NEW SEQUENCE NUMBER       34839021
 003F0E D251 D619 F552 00649 0404A  5193 REGR5A   MVC   COMMOV(LX82),MAIMOV       MAIMOV TO COMMOV               34846021
 003F14 D201 F552 D683 0404A 006B3  5194          MVC   MAIMOV(LX2),UBLNK         CLEAR SEQ-ERR SYMBOL           34853021
 003F1A                             5195 REGR5B   DS    0H                                                       34860021
 003F1A 45E0 F46C      03F64        5196        BAL   JP,SKPEJT                  CK FOR SKIP OR EJECT            34867021
 003F1E 58E0 DAB8      00AE8        5197        L     JP,GETCSV                                                  34874021
                                    5198 *                                                                       34881021
 003F22 FA31 D60C D602 0063C 00632  5199 REGRD6   AP    SVCPCK+NX4(LX4),SVCINC    INCREASE GEN-NUM               34888021
 003F28 F373 D610 D60C 00640 0063C  5200          UNPK  SVCUPK(LX8),SVCPCK+NX4(LX4) SET-UP GEN IN SAVE AREA      34895021
 003F2E 96F0 D617      00647        5201          OI    SVCUPK+NX7,XXF0           GET RID OF SIGN                34902021
 003F32 4F10 D608      00638        5202        CVB   R1,SVCPCK                  CONVERT TO BINARY               34909021
 003F36 4010 C798      01728        5203        STH   R1,NXTGCN                  STORE GCN IN NXTGCN             34916021
 003F3A D201 D693 D663 006C3 00693  5204 REGRED6A MVC   TWOTRE(LX2),SVCCRD+NX72 SAVE 2 BYTES                     34923021
 003F40 D201 D663 C578 00693 01508  5205 REGRD7   MVC   COMWRK+NX72(LX2),KQUOTE    BLANK + QUOTE TO COL 73 + 7   34930021
 003F46 9857 F53C      04034        5206        LM    R5,R7,SETREG               SET UP REG FOR COL 8-12-74      34937021
 003F4A 9017 D83C      0086C        5207        STM   R1,R7,SAVREG               SET-UP SAVE AREA FOR NEW CA     34944021
 003F4E 9108 D357      00387        5208          TM    REPSW,XX08                REPLACING OPTION ?             34951021
 003F52 477E 0000      00000        5209          BC    NOTZER,DX0(JP)            YES - RETURN TO POINT OF CA    34958021
 003F56 9102 D35A      0038A        5210          TM    CMNTCDSW,XX02       DELETING A COMMENT CARD              34965021
1PH1A     IKFCBL10                                                                                              PAGE  108
-  LOC  OBJECT CODE    ADDR1 ADDR2  STMT   SOURCE STATEMENT                                       ASM 0201 11.03 02/14/15
0003F5A 4710 F2FE      03DF6        5211          BO    GTCMCD1             YES GET NEXT CARD                    34972021
 003F5E 58E0 DAB8      00AE8        5212 REG7RT L     JP,GETCSV                  RESTORE LINK REG                34979021
 003F62 07FE                        5213        BCR   UNCOND,JP                   -RETURN                        34986021
                                    5214 *                                                                       34993021
                                    5215 ***     THIS  ROUTINE CHECKS FOR SKIP1, SKIP2, SKIP3                    35000021
                                    5216 ***                EJECT, OR '*'(COMMENTS) IN COL 7.                    35007021
                                    5217 *  BECAUSE EJECT, SKIPS 1, 2, AND 3, AND * IN COL 7 CAN APPEAR ANYWHERE 35014021
                                    5218 *  IN THE SOURCE PROGRAM, THEY MIGHT APPEAR BEFORE THE IDENTIFICATION   35021021
                                    5219 *  DIVISION CARD.  ALLOWING FOR THIS POSSIBILITY, WHEN ANY OF THESE     35028021
                                    5220 *  CARDS IS READ, ONE MUST BE SURE THAT THE FIRST CARD SWITCH IS OFF.   35035021
                                    5221 *                                                                       35042021
 003F64 94FD D35A      0038A        5222 SKPEJT   NI    CMNTCDSW,XXFD       AVOID LOSS OF PREVIOUS               35049021
 003F68 94FD D350      00380        5223          NI    FXCDSW,XXFD         TURN OFF FIRST CARD SW               35056021
 003F6C 955C D621      00651        5224          CLI   COMWRK+NX6,XX5C           ASTERISK IN COL 7?             35063021
 003F70 4770 F484      03F7C        5225        BNE   SKPTRT                     NO - CK FOR SKP - EJECT         35070021
 003F74 9602 D35A      0038A        5226          OI    CMNTCDSW,XX02       TURN ON DELETING A CARD SW           35077021
 003F78 47FE 0000      00000        5227          B     DX0(JP)             RETURN TO CALLING ROUTINE            35084021
 003F7C                             5228 SKPTRT DS    0H                                                         35091021
 003F7C 4150 D663      00693        5229          LA    R5,COMWRK+NX72      SET COL 73 LIMIT                     35098021
 003F80 DD4F D622 C45C 00652 013EC  5230          TRT   COMWRK+NX7(LX80),UNONB   SCAN TO NON BLANK               35105021
 003F86 1915                        5231          CR    R1,R5               PAST COL 73                          35112021
 003F88 47BE 0000      00000        5232          BNL   DX0(JP)             BLANK CARD                           35119021
 003F8C 1831                        5233        LR    R3,R1                      SAVE BEGIN ADDR                 35126021
 003F8E 4111 0005      00005        5234          LA    R1,DX5(R1)                SKIPN OR EJECT LENGTH          35133021
 003F92 DD4F 1000 C45C 00000 013EC  5235          TRT   DX0(LX80,R1),UNONB         SCAN TO NON BLANK             35140021
 003F98 1915                        5236        CR    R1,R5                      CARD BLANK ?                    35147021
 003F9A 474E 0000      00000        5237        BL    0(JP)                      NO - RETURN TO CALLING          35154021
 003F9E D504 3000 A2C7 00000 02EB7  5238          CLC   DX0(LX5,R3),EJCON          EJECT HIT ?                   35161021
 003FA4 4780 F50A      04002        5239        BE    PEJECT                     YES - CALL TO EJECT             35168021
 003FA8 D504 3000 A36F 00000 02F5F  5240          CLC   DX0(LX5,R3),SK1CON         SKIP1  HIT                    35175021
 003FAE 4780 F4F6      03FEE        5241        BE    PSKIP1                     YES - CALL TO SKIP 1 LINE       35182021
 003FB2 D504 3000 A377 00000 02F67  5242          CLC   DX0(LX5,R3),SK2CON         SKIP2 HIT                     35189021
 003FB8 4780 F4E2      03FDA        5243        BE    PSKIP2                     YES - CALL TO SKIP 2 LINES      35196021
 003FBC D504 3000 A37F 00000 02F6F  5244          CLC   DX0(LX5,R3),SK3CON         SKIP3 HIT                     35203021
 003FC2 477E 0000      00000        5245        BNE   0(JP)                      NO -RETURN TO CALLING           35210021
                                    5246 *                                                                       35217021
 003FC6 50E0 F538      04030        5247        ST    JP,SKEJSAVE                SAVE RETURN REGISTER      46150 35224021
 003FCA 45E0 F51E      04016        5248        BAL   JP,TESTLIST                CHECK FOR NOSOURCE        46150 35231021
 003FCE 58E0 F538      04030        5249        L     JP,SKEJSAVE                RESTORE JP                46150 35238021
 003FD2 0508                        5250        BALR  R0,R8                      SKIP                            35245021
 003FD4 D603                        5251        DC    X'D603'                     3 LINES                        35252021
 003FD6 47F0 F34A      03E42        5252        B     GTLAST                     GET ANOTHER CARD                35259021
                                    5253 *                                                                       35266021
 003FDA 50E0 F538      04030        5254 PSKIP2 ST    JP,SKEJSAVE                SAVE RETURN REGISTER      46150 35273021
 003FDE 45E0 F51E      04016        5255        BAL   JP,TESTLIST                CHECK FOR NOSOURCE        46150 35280021
 003FE2 58E0 F538      04030        5256        L     JP,SKEJSAVE                RESTORE JP                46150 35287021
 003FE6 0508                        5257        BALR  R0,R8                      SKIP                      46150 35294021
 003FE8 D602                        5258        DC    X'D602'                     2 LINES                        35301021
 003FEA 47F0 F34A      03E42        5259        B     GTLAST                     GET ANOTHER CARD                35308021
                                    5260 *                                                                       35315021
 003FEE 50E0 F538      04030        5261 PSKIP1 ST    JP,SKEJSAVE                SAVE RETURN REGISTER      46150 35322021
 003FF2 45E0 F51E      04016        5262        BAL   JP,TESTLIST                CHECK FOR NOSOURCE        46150 35329021
 003FF6 58E0 F538      04030        5263        L     JP,SKEJSAVE                RESTORE JP                46150 35336021
 003FFA 0508                        5264        BALR  R0,R8                      SKIP                      46150 35343021
 003FFC D601                        5265        DC    X'D601'                     1 LINES                        35350021
1PH1A     IKFCBL10                                                                                              PAGE  109
-  LOC  OBJECT CODE    ADDR1 ADDR2  STMT   SOURCE STATEMENT                                       ASM 0201 11.03 02/14/15
0003FFE 47F0 F34A      03E42        5266        B     GTLAST                     GET ANOTHER CARD                35357021
                                    5267 *                                                                       35364021
 004002 50E0 F538      04030        5268 PEJECT ST    JP,SKEJSAVE                SAVE RETURN REGISTER      46150 35371021
 004006 45E0 F51E      04016        5269        BAL   JP,TESTLIST                CHECK FOR NOSOURCE        46150 35378021
 00400A 58E0 F538      04030        5270        L     JP,SKEJSAVE                RESTORE JP                46150 35385021
 00400E 0508                        5271        BALR  R0,R8                      EJECT                     46150 35392021
 004010 D600                        5272        DC    X'D600'                     PAGE                           35399021
 004012 47F0 F34A      03E42        5273        B     GTLAST                     GET ANOTHER CARD                35406021
                                    5274 *****                                                             46150 35413021
 004016 1881                        5275 TESTLIST LR    R8,R1               SAVE R1                        46150 35420021
 004018 5810 C814      017A4        5276          L     R1,COSADR           SET UP COMMON ADDRESSABILITY   46150 35427021
 00401C 9180 11A3      001A3        5277          TM    PHZSW,LIST          NOSOURCE?                      46150 35434021
 004020 1818                        5278          LR    R1,R8               RESTORE R1                     46150 35441021
 004022 5880 C814      017A4        5279          L     R8,COSADR           RESTORE R8                     46150 35448021
 004026 071E                        5280          BCR   ONES,JP             SOURCE - HONOR SK/EJ REQUEST   46150 35455021
 004028 58E0 F538      04030        5281          L     JP,SKEJSAVE         RESTORE JP                     46150 35462021
 00402C 47F0 F34A      03E42        5282          B     GTLAST              NOSOURCE - GET ANOTHER CARD    46150 35469021
                                    5283 *                                                                 46150 35476021
 004030 00000000                    5284 SKEJSAVE DC    F'0'                SAVEAREA FOR JP                46150 35483021
                                    5285 *****                                                             46150 35490021
                                    5286 *                                                                       35497021
                                    5287 *                                                                       35504021
 004034 00000652                    5288 SETREG DC    A(COMWRK+7)                ADDR OF COL 8                   35511021
 004038 00000656                    5289        DC    A(COMWRK+11)               ADDR OF COL 12                  35518021
 00403C 00000694                    5290        DC    A(COMWRK+73)               ADDR OF COL 74                  35525021
 004040 00001DC5                    5291 SIDEND DC    A(SIDEWK+73)               ADDR OF CCOL 74                 35532021
                                    5292 *                                                                       35539021
 004044 000000000000                5293 NMLST5 DC    3H'0'                      NUMBER OF OLD MAIN CARD         35546021
                                    5294 *                                                                       35553021
                                    5295 *                                                                       35560021
 00404A 4040                        5296 MAIMOV DC    X'4040'                    CARD IDENT FOR                  35567021
 00404C                             5297 MAINWK DS    CL80                        MAIN CARD WORK AREA            35574021
                                    5298 *                                                                       35581021
                                    5299 *                                                                       35588021
1PH1A     IKFCBL10                                                                                              PAGE  110
-  LOC  OBJECT CODE    ADDR1 ADDR2  STMT   SOURCE STATEMENT                                       ASM 0201 11.03 02/14/15
0                                   5301 *                                                                       35602021
                                    5302 *   ROUTINE TO CONVERT EXTERNAL FLOATING POINT NUMBER TO                35609021
                                    5303 *   INTERNAL PLOATING POINT                                             35616021
                                    5304 *                                                                       35623021
                                    5305 *                                                                       35630021
 00409C 4140 DA00      00A30        5306 FLOPNT LA    R4,FLPWK                   ADDR OF FLPWK                   35637021
 0040A0 5050 DD28      00D58        5307        ST    R5,REGWRK                  SAVE PTR TO START OF WORD       35644021
 0040A4 5030 D980      009B0        5308        ST    R3,REGWOK                  SAVE PTR TO DECIMAL             35651021
 0040A8 5010 D984      009B4        5309        ST    R1,REGWEK                  SAVE PTR TO 'E'                 35658021
 0040AC 924E 4000      00000        5310          MVI   DX0(R4),XX4E              SET UP 1ST PLUS SIGN           35665021
 0040B0 9101 D373      003A3        5311          TM    SIGNSW,XX01               HAS FLO-PT-NUM A SIGN          35672021
 0040B4 4780 F5CA      040C2        5312        BC    ZERO,FLPNTA                 NO-FLPNTA                      35679021
 0040B8 D200 4000 5000 00000 00000  5313          MVC   DX0(LX1,R4),DX0(R5)        PUT MANTIS SIGN IN FLPWK      35686021
 0040BE 4155 0001      00001        5314          LA    R5,DX1(R5)                MOVE PTR PAST SIGN OF WORD     35693021
 0040C2 4144 0001      00001        5315 FLPNTA   LA    R4,DX1(R4)                MOVE PTR PAST SIGN OF FLPWK    35700021
 0040C6 1B13                        5316        SR    R1,R3             CALC NO OF DECIMALS                      35707021
 0040C8 0610                        5317        BCTR  R1,JR                 SUBTRACT 1 FROM R1                   35714021
 0040CA 4210 D9FC      00A2C        5318        STC   R1,DECSIZ         STORE DECIMAL SIZE                       35721021
 0040CE 5810 D984      009B4        5319        L     R1,REGWEK         PTR TO 'E'                               35728021
 0040D2 1B15                        5320        SR    R1,R5                      CALC LENGTH OF MANTIS W/O S     35735021
 0040D4 5050 D83C      0086C        5321        ST    R5,SAVREG         SAVE REG 5                               35742021
 0040D8 5A50 C2AC      0123C        5322        A     R5,K17            ADD MAX MAN LGN TO BEG ADRS              35749021
 0040DC 5550 D984      009B4        5323        CL    R5,REGWEK         IS ADRS BEYOND 'E'                       35756021
 0040E0 47B0 F60A      04102        5324        BC    NOTLO,FLPTA1      YES- MANTIS NOT LARGER THAN 16           35763021
 0040E4 45E0 DB64      00B94        5325        BAL   R14,MSG70         NO- MANTIS LARGER THAN 16                35770021
 0040E8 4310 C2AF      0123F        5326          IC    R1,K17+NX3                SET SIZE TO 16                 35777021
 0040EC 5B50 D980      009B0        5327        S     R5,REGWOK         CALC NO OF DECIMALS                      35784021
 0040F0 47D0 F606      040FE        5328        BC    NOTPOS,FLPTA4     DEC PT AT/BEYOND TRUNCATION PT           35791021
 0040F4 0650                        5329        BCTR  R5,JR                 SUBTRACT 1 FROM R1                   35798021
 0040F6 4250 D9FC      00A2C        5330        STC   R5,DECSIZ         STORE DECIMAL SIZE                       35805021
 0040FA 47F0 F60A      04102        5331        BC    UNCOND,FLPTA1         FLPTA1                               35812021
 0040FE 9200 D9FC      00A2C        5332 FLPTA4   MVI   DECSIZ,XX00      SET DECSIZ TO 0                         35819021
 004102 5850 D83C      0086C        5333 FLPTA1 L     R5,SAVREG         RESTORE REG 5                            35826021
 004106 4410 F654      0414C        5334        EX    R1,FLOMOV         PUT MANTIS IN FLPWK                      35833021
 00410A 1A41                        5335        AR    R4,R1                      MOVE PTR PAST MANTIS IN FLP     35840021
 00410C 924E 4000      00000        5336          MVI   DX0(R4),XX4E              SET UP 2ND PLUS SIGN           35847021
 004110 5810 D984      009B4        5337        L     R1,REGWEK                  PTR TO 'E'                      35854021
 004114 DD00 1001 C35C 00001 012EC  5338          TRT   DX1(LX1,R1),UDIGT          IS CHAR AFTER 'E' A DIGIT     35861021
 00411A 4780 F674      0416C        5339        BC    EQ,FLPNTD                   YES-FLPNTD                     35868021
 00411E 954E 1000      00000        5340          CLI   DX0(R1),XX4E              IS IT A PLUSSIGN               35875021
 004122 4780 F65E      04156        5341        BC    EQ,FLPNTC                   YES-FLPNTC                     35882021
 004126 9560 1000      00000        5342          CLI   DX0(R1),XX60              IS IT A MINUS SIGN             35889021
 00412A 4780 F65A      04152        5343        BC    EQ,FLPNTB                   YES-FLPNTB                     35896021
 00412E 45E0 DB70      00BA0        5344        BAL   JP,MSG73                   -MSG73                          35903021
 004132 4B10 C150      010E0        5345        SH    R1,HWTWO                   SET PTR IN FRONT OF 'E'         35910021
 004136 5830 D980      009B0        5346 FLPTA2 L     R3,REGWOK                  SET PTR TO DECIMAL              35917021
 00413A 1913                        5347        CR    R1,R3                      IS PTR R1 AT DECIMAL            35924021
 00413C 4780 F64C      04144        5348        BC    EQ,FLPTA3                   YES-FLPTA3                     35931021
 004140 4111 0001      00001        5349          LA    R1,DX1(R1)                MOVE PTR PAST LAST DIGIT       35938021
 004144 5850 DD28      00D58        5350 FLPTA3 L     R5,REGWRK                  SET PTR TO START OF LITERAL     35945021
 004148 47F0 928E      046C6        5351        BC    UNCOND,NUMLIT               -NUMLIT                        35952021
                                    5352 *                                                                       35959021
 00414C D200 4000 5000 00000 00000  5353 FLOMOV   MVC   DX0(LX0,R4),DX0(R5)                                      35966021
                                    5354 *                                                                       35973021
 004152 9260 4000      00000        5355 FLPNTB   MVI   DX0(R4),XX60              PUT EXP SIGN IN FLPWK          35980021
1PH1A     IKFCBL10                                                                                              PAGE  111
-  LOC  OBJECT CODE    ADDR1 ADDR2  STMT   SOURCE STATEMENT                                       ASM 0201 11.03 02/14/15
0004156 DD00 1001 C35C 00001 012EC  5356 FLPNTC   TRT   DX1(LX1,R1),UDIGT          IS CHAR AFTER SIGN A DIGIT    35987021
 00415C 4780 F674      0416C        5357        BC    EQ,FLPNTD                   YES-FLPNTD                     35994021
 004160 45E0 DB74      00BA4        5358        BAL   JP,MSG74                   -MSG74                          36001021
 004164 4B10 C152      010E2        5359        SH    R1,HWTHRE                  SET PTR IN FRONT OF 'E'         36008021
 004168 47F0 F63E      04136        5360        BC    UNCOND,FLPTA2               -FLPTA2                        36015021
                                    5361 *                                                                       36022021
 00416C 4144 0001      00001        5362 FLPNTD   LA    R4,DX1(R4)                MOVE PTR PAST SIGN OF WORK     36029021
 004170 4111 0001      00001        5363          LA    R1,DX1(R1)                MOVE PTR TO 1ST EXP DIG WD     36036021
 004174 5010 D984      009B4        5364        ST    R1,REGWEK                  SAVE PTR TO 1ST EXP DIG  WO     36043021
 004178 DD4F 1000 C35C 00000 012EC  5365          TRT   DX0(LX80,R1),UDIGT         SCAN TO NON-DIGIT             36050021
 00417E 9540 1000      00000        5366          CLI   DX0(R1),XX40              NON-DIGIT IS A BLANK           36057021
 004182 4780 F6AA      041A2        5367        BC    EQ,FLPTD1                   YES-FLPTD1                     36064021
 004186 954B 1000      00000        5368          CLI   DX0(R1),XX4B              NON-DIGIT IS A PERIOD          36071021
 00418A 4780 F6AA      041A2        5369        BC    EQ,FLPTD1                   YES-FLPTD1                     36078021
 00418E 956B 1000      00000        5370          CLI   DX0(R1),XX6B              NON-DIGIT IS A COMMA           36085021
 004192 4780 F6AA      041A2        5371        BC    EQ,FLPTD1                   YES-FLPTD1                     36092021
 004196 955D 1000      00000        5372          CLI   DX0(R1),XX5D              NON-DIGIT IS A RIGHT PAREN     36099021
 00419A 4780 F6AA      041A2        5373        BC    EQ,FLPTD1                   YES-FLPTD1                     36106021
 00419E 45E0 DB6C      00B9C        5374        BAL   R14,MSG72                  -MSG72                          36113021
 0041A2 1831                        5375 FLPTD1 LR    R3,R1                      CALC NUMBER                     36120021
 0041A4 5810 D984      009B4        5376        L     R1,REGWEK                   OF DIGITS                      36127021
 0041A8 1B31                        5377        SR    R3,R1                        IN EXP                        36134021
 0041AA 5530 C2A0      01230        5378        CL    R3,K2                      SIZE EQUALS---                  36141021
 0041AE 4780 F6C2      041BA        5379        BC    EQ,FLPNTE                   2-FLPNTE                       36148021
 0041B2 4740 F6D0      041C8        5380        BC    LO,FLPNTF                   1-FLPNTF                       36155021
 0041B6 45E0 DB68      00B98        5381        BAL   JP,MSG71                   -MSG71                          36162021
                                    5382 *                                                                       36169021
 0041BA D201 4000 1000 00000 00000  5383 FLPNTE   MVC   DX0(LX2,R4),DX0(R1)        PUT 2 DIGIT EXP IN FLPWK      36176021
 0041C0 4111 0002      00002        5384          LA    R1,DX2(R1)                MOVE PTR PAST 2ND DIGIT  WO    36183021
 0041C4 47F0 F6DE      041D6        5385        BC    UNCOND,FLPNTG               -FLPNTG                        36190021
                                    5386 *                                                                       36197021
 0041C8 9200 4000      00000        5387 FLPNTF   MVI   DX0(R4),XX00              MOVE IN BYTE OF ZERO           36204021
 0041CC D200 4001 1000 00001 00000  5388          MVC   DX1(LX1,R4),DX0(R1)         FOLLOWED BY 1 DIG EXP  FLP   36211021
 0041D2 4111 0001      00001        5389          LA    R1,DX1(R1)                MOVE PTR PAST EXP DIG  WORD    36218021
                                    5390 *                                                                       36225021
 0041D6 4144 0002      00002        5391 FLPNTG   LA    R4,DX2(R4)                MOVE PTR PAST EXP DIG IN FL    36232021
 0041DA 4130 DA00      00A30        5392        LA    R3,FLPWK                   ADDR OF START OF WORK           36239021
 0041DE 1B43                        5393        SR    R4,R3                      CALC SIZE OF FL-PT-NUM          36246021
 0041E0 4240 D9FD      00A2D        5394        STC   R4,TOTSIZ                   STORE IN TOTSIZ                36253021
 0041E4 5850 DD28      00D58        5395        L     R5,REGWRK                  RESTORE PTR TO START OF WOR     36260021
 0041E8 9018 D83C      0086C        5396        STM   R1,R8,SAVREG               SAVE REGS 1-8                   36267021
 0041EC 9102 D352      00382        5397          TM    NOTESW,XX02            IS NOTE SW ON               10    36274021
 0041F0 4710 F922      0441A        5398        BC    ONES,EXITC                YES                       10     36281021
 0041F4 4160 D9FC      00A2C        5399        LA    R6,DECSIZ                  ADDR OF PARAM                   36288021
                                    5400 *                                                                       36295021
                                    5401 * THIS ROUTINE CONVERTS AN EXTERNAL FLOATING POINT NUMBER INTO          36302021
                                    5402 *     AN INTERNAL FLOATING POINT NO IN FPREG 0 - DBL PRFC               36309021
                                    5403 *  REGISTER USAGE IS AS FOLLOWS                                         36316021
                                    5404 *     R0 - BINARY INTERMEDIATE                                          36323021
                                    5405 *     R1 -   OR FINAL RESULT                                            36330021
                                    5406 *     R2 - EFP EXPONENT                                                 36337021
                                    5407 *     R3 - POINTER TO EFP NO                                            36344021
                                    5408 *     R4 - WORK FOR LENGTHS OF EXECUTED MOVES                           36351021
                                    5409 *     R5 - POINTER TO WORKB                                             36358021
                                    5410 *     R6 - POINTER TO WORKA                                             36365021
1PH1A     IKFCBL10                                                                                              PAGE  112
-  LOC  OBJECT CODE    ADDR1 ADDR2  STMT   SOURCE STATEMENT                                       ASM 0201 11.03 02/14/15
0                                   5411 *     R7 - WORK                                                         36372021
                                    5412 *     R8 - WORK                                                         36379021
                                    5413 *     R9 - WORK                                                         36386021
                                    5414 *                                                                       36393021
                                    5415 *                                                                       36400021
                                    5416 *   IT IS ESSENTIALLY IDENTICAL TO OBJECT-TIME SUBROUTINE IHDFEFIF      36407021
                                    5417 *       CODING FROM 'SR 8,8' TO EXITA1 IS FROM EFIF                     36414021
                                    5418 *                   EXITA1      EXITB          EDBI                     36421021
                                    5419 *                   EXITB       TOOBIG         BIIF                     36428021
                                    5420 *                                                                       36435021
                                    5421 *                                                                       36442021
                                    5422 * INITIALIZATION ROUTINE TO DEVELOP FLOATING POINT PARAMFIERS           36449021
                                    5423 *                                                                       36456021
 0041F8 1B88                        5424        SR    JH,JH              CLEAR WORK REG                          36463021
 0041FA 4386 0000      00000        5425          IC    JH,DX0(JF)        MANTISSA DECIMALS                      36470021
 0041FE 408D 008A      0008A        5426        STH   JH,MANDEC(JN)     STORE                                    36477021
 004202 4386 0001      00001        5427          IC    JH,DX1(JF)        TOTAL EFP LENGTH                       36484021
 004206 408D 0090      00090        5428        STH   JH,TOTLNG(JN)     STORE                                    36491021
 00420A 4B80 C156      010E6        5429        SH    JH,H5             SUBTR 5 FROM TOT LENGTH                  36498021
 00420E 9101 6002      00002        5430          TM    DX2(JF),XX01     TEST REAL DEC PT                        36505021
 004212 4710 F722      0421A        5431          BC    ONES,*+NX8                REAL PT                        36512021
 004216 4188 0001      00001        5432          LA    JH,DX1(JH)         IMPLIFD - ADD 1 BACK IN               36519021
 00421A 408D 008E      0008E        5433        STH   JH,MANLEN(JN)     STORE MANTISSA LENGTH                    36526021
 00421E 4B8D 008A      0008A        5434        SH    JH,MANDEC(JN)     SUBTR NO. OF DECIMALS                    36533021
 004222 408D 008C      0008C        5435        STH   JH,MANINT(JN)     STORE NO. OF INTEGERS                    36540021
 004226 4386 0003      00003        5436          IC    JH,DX3(JF)        DECIMALS IN ID OR BI NO.               36547021
 00422A 408D 0092      00092        5437        STH   JH,RESDEC(JN)     STORE RESULT DECIMALS                    36554021
                                    5438 *                                                                       36561021
                                    5439 * ROUTINE TO MOVE EFP MANTISSA TO WORKB - 16 BYTES                      36568021
                                    5440 *                                                                       36575021
 00422E 1883                        5441        LR    JH,JC              SAVE POINTER-TO EFP                     36582021
 004230 4133 0001      00001        5442          LA    JC,DX1(JC)        PNTR TO FIRST DIG OF MANT              36589021
 004234 415D 0070      00070        5443          LA    JE,WORKB+NX16(JN) PNTR TO BYTE AFTER WORKB               36596021
 004238 4B5D 008E      0008E        5444        SH    JE,MANLEN(JN)     SUBTR MANT LENGTH                        36603021
 00423C 1875                        5445        LR    JG,JE              SAVE POINTER TO WORKB MANT              36610021
 00423E 9101 6002      00002        5446          TM    DX2(JF),XX01     TEST FOR REAL DEC PT.                   36617021
 004242 4710 F75C      04254        5447          BC    ONES,REALDC      YES                                     36624021
 004246 484D 008E      0008E        5448 SUBMV  LH    JD,MANLEN(JN)      NO - LOAD MANLEN                        36631021
 00424A 0640                        5449        BCTR  JD,JR              SUBTR 1 TO EX                           36638021
 00424C 4440 F7A2      0429A        5450 MOVE   EX    JD,MVTOB          MOVE MANT TO WORKB                       36645021
 004250 47F0 F7A8      042A0        5451          BC    UNCOND,RESTOR    GO CONVERT EXP                          36652021
 004254 D500 3000 C580 00000 01510  5452 REALDC   CLC   DX0(LX1,JC),KDECML IS FIRST CHAR A DEC PT                36659021
 00425A 4770 F76E      04266        5453          BC    NOTEQ,INDEC      NO-DEC PT IS IMB                        36666021
 00425E 4133 0001      00001        5454 MOVESB   LA    JC,DX1(JC)        MV PNTR PAST DEC PNT.                  36673021
 004262 47F0 F74E      04246        5455          BC    UNCOND,SUBMV      GO MOVE                                36680021
 004266 484D 008C      0008C        5456 INDEC  LH    JD,MANINT(JN)     LOAD NO. OF INTEGERS                     36687021
 00426A 1244                        5457        LTR   JD,JD                                                      36694021
 00426C 4780 F77E      04276        5458          BC    EQ,HERE          GO TO HERE                              36701021
 004270 0640                        5459        BCTR  JD,JR              SUBTR 1 TO EX                           36708021
 004272 4440 F7A2      0429A        5460        EX    JD,MVTOB          MOVE MANT TO WORKB                       36715021
 004276 9500 D08B      0008B        5461 HERE     CLI   MANDEC+NX1(JN),XX00 TEST ZERO DECIMALS                   36722021
 00427A 4780 F7A8      042A0        5462          BC    EQ,RESTOR        YES                                     36729021
 00427E 4A5D 008C      0008C        5463        AH    JE,MANINT(JN)     INCR WORKB POINTER                       36736021
 004282 484D 008A      0008A        5464        LH    JD,MANDEC(JN)     LOAD NO OF DECIMALS                      36743021
 004286 4A3D 008C      0008C        5465        AH    JC,MANINT(JN)     INCREMENT EFP POINTER                    36750021
1PH1A     IKFCBL10                                                                                              PAGE  113
-  LOC  OBJECT CODE    ADDR1 ADDR2  STMT   SOURCE STATEMENT                                       ASM 0201 11.03 02/14/15
000428A 4133 0001      00001        5466          LA    JC,DX1(JC)         TO DECIMAL PART                       36757021
 00428E 0640                        5467        BCTR  JD,JR              SUBTR 1 TO EX                           36764021
 004290 47F0 F754      0424C        5468          BC    UNCOND,MOVE      GO MOVE DEC PART                        36771021
                                    5469 *                                                                       36778021
 004294 D200 6000 5000 00000 00000  5470 MVTOA    MVC   DX0(LX0,R6),DX0(JE)       MOVE B TO A                    36785021
 00429A D200 5000 3000 00000 00000  5471 MVTOB    MVC   DX0(LX0,JE),DX0(JC) MOVE EFP MANT OT WORKB               36792021
                                    5472 *                                                                       36799021
 0042A0 1838                        5473 RESTOR LR    JC,JH              RESTORE POINTER TO EFP MANT SIGN        36806021
 0042A2 1857                        5474        LR    JE,JG              RESTORE POINTER TO FIRST BYTE IN WO     36813021
                                    5475 *                                                                       36820021
                                    5476 * ROUTINE TO CONVERT EFP EXPONENT TO SIGNED INTEGER IN GP REG 2         36827021
                                    5477 *                                                                       36834021
 0042A4 4A8D 0090      00090        5478        AH    JH,TOTLNG(JN)     POINT TO BYTE AFTER EFP                  36841021
 0042A8 4B80 C150      010E0        5479        SH    JH,H2             POINT TO FIRST DIG OF EXP.               36848021
 0042AC F271 D048 8000 00048 00000  5480          PACK  WORKA(LX8,JN),DX0(LX2,JH) PACK EXP                       36855021
 0042B2 0680                        5481        BCTR  JH,JR              POINT TO SIGN                           36862021
 0042B4 94FC D04F      0004F        5482          NI    WORKA+NX7(JN),XXFC MAKE SIGN POS                         36869021
 0042B8 4F2D 0048      00048        5483        CVB   JB,WORKA(JN)      CONV EXP TO BIN                          36876021
 0042BC 9560 8000      00000        5484          CLI   DX0(JH),XX60     TEST FOR NEG                            36883021
 0042C0 4770 F7CE      042C6        5485          BC    NOTEQ,EXITA      POS - EXITA                             36890021
 0042C4 1122                        5486        LNR   JB,JB              MAKE NEG                                36897021
                                    5487 *                                                                       36904021
 0042C6 4B2D 008A      0008A        5488 EXITA  SH    JB,MANDEC(JN)     SUBTR MANT DECIMALS FROM EXP             36911021
 0042CA 416D 005A      0005A        5489          LA    JF,WORKA+NX18(JN) LOAD ADDR OF WORKA END                 36918021
 0042CE 4B6D 008E      0008E        5490        SH    JF,MANLEN(JN)     POINT TO FIRST DIGIT OF MANT IN WORK     36925021
 0042D2 484D 008E      0008E        5491        LH    JD,MANLEN(JN)     LOAD LENGTH TO EXECUTE MOVE TO WORKA     36932021
 0042D6 0640                        5492        BCTR  JD,JR              SUBTR 1 TO EX                           36939021
 0042D8 92F0 D048      00048        5493          MVI   WORKA(JN),XXF0         INIT WORKA A                      36946021
 0042DC D210 D049 D048 00049 00048  5494          MVC   WORKA+NX1(LX17,JN),WORKA(JN) TO ZERO                     36953021
 0042E2 4440 F79C      04294        5495        EX    JD,MVTOA          MOVE MANT OT WORKA                       36960021
 0042E6 94CF D059      00059        5496          NI    WORKA+NX17(JN),XXCF MAKE SIGN PLUS                       36967021
 0042EA 9560 3000      00000        5497          CLI   DX0(JC),XX60     TEST FOR ACTUAL MINUS                   36974021
 0042EE 4770 F7FE      042F6        5498          BC    NOTEQ,EXITA1     NO - PLUS - EXITA                       36981021
 0042F2 9610 D059      00059        5499          OI    WORKA+NX17(JN),XX10 NEG                                  36988021
                                    5500 *                                                                       36995021
                                    5501 * THIS ROUTINE CONVERTS AN 18 BYTE EXTERNAL DECIMAL NUMBER INTO A       37002021
                                    5502 *  DOUBLE PRECISION BINARY NUMBER IN REGS 0,1. THE DEC FIELD STARTS     37009021
                                    5503 *  THE DECIMAL FIELD STARTS IN WORKA(13)                                37016021
                                    5504 *                                                                       37023021
 0042F6 F278 D058 D051 00058 00051  5505 EXITA1   PACK  WORKA3(LX8,JN),WORKA2+NX1(LX9,JN) PACK LO-ORD 9 DIGITS   37030021
 0042FC F278 D050 D048 00050 00048  5506          PACK  WORKA2(LX8,JN),WORKA(LX9,JN) PACK HI-ORD 9 DIGS          37037021
 004302 D100 D057 D05F 00057 0005F  5507          MVN   WORKA2+NX7(LX1,JN),WORKA3+NX7(JN) MOVE SIGN TO HI-ORD FI 37044021
 004308 502D 0080      00080        5508 COMMON ST    JB,SVREG2(JN)     SAVE REG2                                37051021
 00430C 4F1D 0050      00050        5509        CVB   JA,WORKA2(JN)     CONV HI-ORD 9 DIGS                       37058021
 004310 4F2D 0058      00058        5510        CVB   JB,WORKA3(JN)     CONV LO-ORD 9 DIGS                       37065021
 004314 5C00 C2C8      01258        5511        M     JR,TNPW9          MULT HI-ORD 9 DIGS BY 10 **9 IN REGS     37072021
 004318 1222                        5512        LTR   JB,JB             IF 9 TRAILING ZEROES, ALL DONE           37079021
 00431A 4780 F83C      04334        5513        BC    ZERO,EXITB            EXITB                                37086021
 00431E 1E12                        5514        ALR   JA,JB              ADD IN LO-ORD 9 DIGS                    37093021
 004320 47C0 F830      04328        5515          BC    R12,*+NX8       NO CARRY OUT                             37100021
 004324 4A00 C14E      010DE        5516        AH    JR,H1             CARRY OUT - ADD 1 TO HI-ORDER            37107021
 004328 9101 D05F      0005F        5517          TM    WORKA3+NX7(JN),XX01      IS SIGN MINUS                   37114021
 00432C 47E0 F83C      04334        5518          BC    NOTONE,EXITB     NO - ALL                                37121021
 004330 4B00 C14E      010DE        5519        SH    JR,H1              NEG - SUBTR 1                           37128021
 004334 582D 0080      00080        5520 EXITB  L     JB,SVREG2(JN)     RESTORE REG 2                            37135021
1PH1A     IKFCBL10                                                                                              PAGE  114
-  LOC  OBJECT CODE    ADDR1 ADDR2  STMT   SOURCE STATEMENT                                       ASM 0201 11.03 02/14/15
0                                   5521 *                                                                       37142021
                                    5522 * THIS CONVERTS THE BINARY NUMBER IN REGISTERS 0-1 TO A DOUBLE-         37149021
                                    5523 *      PRECISION FLOATING-POINT NUMBER IN FLOATING-POINT REGISTER 0     37156021
                                    5524 *                                                                       37163021
                                    5525 *                                                                       37170021
 004338 9400 D088      00088        5526          NI    SYGNSW(JN),XX00 SET MANT SW SIGN POS                     37177021
 00433C 924E D089      00089        5527          MVI   FLTEXP(JN),XX4E INITIALIZE EXP TO ZERO                   37184021
 004340 1200                        5528        LTR   JR,JR              TEST MANTISSA SIGN                      37191021
 004342 47A0 F866      0435E        5529          BC    R10,POSMAN       POSITIVE                                37198021
 004346 9601 D088      00088        5530          OI    SYGNSW(JN),XX01 SET MANTISSA SW NEGATIVE                 37205021
 00434A 5700 C29C      0122C        5531        X     JR,ALLFF           NEG - INVERT MANTISSA HI-ORD            37212021
 00434E 5710 C29C      0122C        5532        X     JA,ALLFF           INVERT LO-ORD                           37219021
 004352 5E10 C298      01228        5533        AL    JA,F1             ADD 1                                    37226021
 004356 47C0 F866      0435E        5534          BC    R12,POSMAN      NO CARRY                                 37233021
 00435A 5E00 C298      01228        5535        AL    JR,F1             CARRY - ADD 1 TO HI-ORD                  37240021
 00435E 5900 C2C4      01254        5536 POSMAN C     JR,TWOP24         COMP TO 2 ** 24                          37247021
 004362 4740 F886      0437E        5537          BC    MIXED,STORE      8 HI BITS ARE CLEAR                     37254021
 004366 8C00 0004      00004        5538          SRDL  JR,DX4           SHIFT RIGHT 4 BITS                      37261021
 00436A 924F D089      00089        5539          MVI   FLTEXP(JN),XX4F MAKE EXP 1                               37268021
 00436E 5900 C2C4      01254        5540        C     JR,TWOP24         COMP AGAIN                               37275021
 004372 4740 F886      0437E        5541          BC    MIXED,STORE      8 HI BITS ARE CLEAR                     37282021
 004376 8C00 0004      00004        5542          SRDL  JR,DX4           SHIFT RIGHT 4 BITS                      37289021
 00437A 9250 D089      00089        5543          MVI   FLTEXP(JN),XX50 MAKE EXP 2                               37296021
 00437E 9001 D048      00048        5544 STORE  STM   JR,JA,WORKA(JN)    STORE BINARY DBL WORD                   37303021
 004382 D200 D048 D089 00048 00089  5545          MVC   WORKA(LX1,JN),FLTEXP(JN) INSERT FLT PNT EXP              37310021
 004388 680D 0048      00048        5546        LD    FJR,WORKA(JN)      LOAD UNNORMALIZED FLT PT NO.            37317021
 00438C 6C00 C2D0      01260        5547        MD    FJR,FLTONE         MULT BY 1 TO NORMALIZE                  37324021
 004390 2200                        5548        LTDR  FJR,FJR              TEST FOR 0 VALUE                      37331021
 004392 4780 F922      0441A        5549          BC    ZERO,EXITC       IF 0, EXITC                             37338021
 004396 1202                        5550        LTR   JR,JB              SHIFT EXP TO R0, TEST SIGN              37345021
 004398 4740 F8D6      043CE        5551          BC    MIXED,EXPNEG     GO TO NEG EXP RT                        37352021
 00439C 4110 C2E4      01274        5552        LA    JA,PLSTBL          POSITIVE  -LOAD POINTER TO TEST TAB     37359021
 0043A0 4120 C320      012B0        5553        LA    JB,PWRTBL         LOAD POINTER TO POWER-OF-10 TABLE        37366021
 0043A4 8900 0019      00019        5554          SLL   JR,DX25          PREPARE FOR MULT LOOP                   37373021
 0043A8 1E00                        5555 PLLOOP ALR   JR,JR              ADD EXP TO ITSELF - IF NO CARRY,        37380021
 0043AA 47C0 F8C2      043BA        5556          BC    R12,NOMULT       THAT BIT NOT ON - DON'T MULTIPLY        37387021
 0043AE 7901 0000      00000        5557          CE    FJR,DX0(JA)        TEST FOR TOO BIG                      37394021
 0043B2 4720 F91A      04412        5558          BC    POS,TOOBIG       YEP, TOO BIG                            37401021
 0043B6 6C02 0000      00000        5559          MD    FJR,DX0(JB)        MULT BY APPROPRIATE POWER-OF-10       37408021
 0043BA 4111 0004      00004        5560 NOMULT   LA    JA,DX4(JA)        INCREMENT TABLE                        37415021
 0043BE 4122 0008      00008        5561          LA    JB,DX8(JB)         POINTERS                              37422021
 0043C2 5920 C358      012E8        5562        C     JB,TBLEND         TEST 7 TIMES THRU LOOP                   37429021
 0043C6 4770 F8B0      043A8        5563          BC    NOTEQ,PLLOOP     NO - REPEAT                             37436021
 0043CA 47F0 F906      043FE        5564          BC    UNCOND,FINAL     YES-GO TO FINISH                        37443021
 0043CE 4110 C300      01290        5565 EXPNEG LA    JA,NEGTBL         ADDR OF TABLE FOR NEG EXPONS             37450021
 0043D2 4120 C320      012B0        5566        LA    JB,PWRTBL         ADDR OF POWER-OF-10 TABLE                37457021
 0043D6 1000                        5567        LPR   JR,JR              MAKE REG POS                            37464021
 0043D8 8900 0019      00019        5568          SLL   JR,DX25          PREP TO DIVIDE                          37471021
 0043DC 1E00                        5569 NGLOOP ALR   JR,JR              ADD EXP TO ITSELF - IF NO CARRY         37478021
 0043DE 47C0 F8F6      043EE        5570          BC    R12,NODIV        THAT BIT NOT ON - DON'T DIVIDE          37485021
 0043E2 7901 0000      00000        5571          CE    FJR,DX0(JA)        TEST FOR TOO SMALL                    37492021
 0043E6 4740 F914      0440C        5572          BC    NEG,TOOWEE       YEP, TOO SMALL                          37499021
 0043EA 6D02 0000      00000        5573          DD    FJR,DX0(JB)        DIVIDE BY APPROP POWER-OF-10          37506021
 0043EE 4111 0004      00004        5574 NODIV    LA    JA,DX4(JA)        INCREMENT TABLE                        37513021
 0043F2 4122 0008      00008        5575          LA    JB,DX8(JB)         POINTERS                              37520021
1PH1A     IKFCBL10                                                                                              PAGE  115
-  LOC  OBJECT CODE    ADDR1 ADDR2  STMT   SOURCE STATEMENT                                       ASM 0201 11.03 02/14/15
00043F6 5920 C358      012E8        5576        C     JB,TBLEND         TEST END OF TABLE                        37527021
 0043FA 4770 F8E4      043DC        5577          BC    NOTEQ,NGLOOP     NO - REPEAT                             37534021
 0043FE 9101 D088      00088        5578 FINAL    TM    SYGNSW(JN),XX01 TEST MANTISSA SIGN                       37541021
 004402 4780 F922      0441A        5579          BC    ZERO,EXITC       POS - EXITC                             37548021
 004406 2100                        5580        LNDR  FJR,FJR              NEG - CONVERT                         37555021
 004408 47F0 F922      0441A        5581          BC    UNCOND,EXITC     EXITC                                   37562021
 00440C 2B00                        5582 TOOWEE SDR   FJR,FJR              SET FP RESULT TO ZERO                 37569021
 00440E 47F0 F91E      04416        5583          BC    UNCOND,EXITC1    -EXITC1                                 37576021
 004412 6800 C570      01500        5584 TOOBIG LD    FJR,MAXFLT         SET FP RESULT TO MAX SIZE               37583021
                                    5585 *                                                                       37590021
 004416 45E0 DB78      00BA8        5586 EXITC1 BAL   R14,MSG75                  -MSG75                          37597021
 00441A 9233 C79A      0172A        5587 EXITC    MVI   NXTCOD,XX33               SET CODE                       37604021
 00441E 9208 C79B      0172B        5588          MVI   NXTN,XX08                 SET N TO 8                     37611021
 004422 600D 0048      00048        5589        STD   FJR,WORKA(JN)                SET DBL PREC FP-NUM           37618021
 004426 D207 C79C D048 0172C 00048  5590          MVC   NXTBCD(LX8),WORKA(JN)      IN NXTBCD                     37625021
 00442C 9818 D83C      0086C        5591        LM    R1,R8,SAVREG               RESTORE REGS 1-8                37632021
 004430 47F0 9746      04B7E        5592        BC    UNCOND,EXIT                 -EXIT                          37639021
                                    5593 *                                                                       37646021
1PH1A     IKFCBL10                                                                                              PAGE  116
-  LOC  OBJECT CODE    ADDR1 ADDR2  STMT   SOURCE STATEMENT                                       ASM 0201 11.03 02/14/15
0004438                             5595 IKF106 CSECT                                                            37660021
                                    5596 *                                                                       37667021
                                    5597 *  CHARACTER IS A LETTER                                                37674021
                                    5598 *                                                                       37681021
 004438 45E0 B3CC      022E4        5599 LETTER BAL   JP,NOLDHI                   (SET UP TBL FOR NON L-D-H)     37688021
 00443C DD4F 1000 C35C 00000 012EC  5600          TRT   DX0(LX80,R1),NONLDH        SCAN TO NON-LETTER,DIGIT,HY   37695021
 004442 45E0 B3E4      022FC        5601        BAL   JP,NOLDHO                   (RESET TBL)                    37702021
 004446 0610                        5602 LETHYP BCTR  R1,JR                       SET POINTER BACK ONE           37709021
 004448 9110 D359      00389        5603          TM    GTRTSW,XX10               CALLED BY COPY REPLACING       37716021
 00444C 4770 9020      04458        5604        BC    NOTZER,LTHYSK              YES - DON'T CK FOR HYPHEN       37723021
 004450 9560 1000      00000        5605          CLI   DX0(R1),KHYPHN            IS IT AN ENDING HYPHEN         37730021
 004454 4780 900E      04446        5606        BC    EQ,LETHYP                   YES-LETHYP                     37737021
 004458 4111 0001      00001        5607 LTHYSK   LA    R1,DX1(R1)                SET PTR PAST WD                37744021
 00445C 1881                        5608        LR    R8,R1                      COMPUTE                         37751021
 00445E 1B85                        5609        SR    R8,R5                       LENGTH                         37758021
 004460 47F0 964C      04A84        5610        BC    UNCOND,QLRTNE               -QLRTNE  (TEST FOR OF/IN)      37765021
                                    5611 *                                                                       37772021
                                    5612 *  CHARACTER IS A DIGIT                                                 37779021
                                    5613 *                                                                       37786021
 004464 1722                        5614 DIGIT  XR    R2,R2                      CLEAR REG                       37793021
 004466 DD4F 5000 C35C 00000 012EC  5615          TRT   DX0(LX80,R5),UDIGT         SCAN TO NON-DIGIT             37800021
 00446C 8B20 0002      00002        5616          SLA   R2,DX2                    MULTI CHAR-CODE BY 4           37807021
 004470 47F2 9038      04470        5617          BC    UNCOND,DIGBR-NX4(R2)       -ROUTINE FOR NON-DIGIT        37814021
 004474 47F0 9000      04438        5618 DIGBR  BC    UNCOND,LETTER               -LETTER                        37821021
 004478 47F0 904C      04484        5619        BC    UNCOND,DIGHYP               -HYPHEN                        37828021
 00447C 47F0 907E      044B6        5620        BC    UNCOND,DIGDEC               -DECIMAL                       37835021
 004480 47F0 90A8      044E0        5621        BC    UNCOND,DIGCOM               -COMMA                         37842021
                                    5622 *                                                                       37849021
 004484 1831                        5623 DIGHYP LR    R3,R1                      SAVE PTR TO HYPHEN              37856021
 004486 9200 C3BC      0134C        5624          MVI   UDIGT+NX96,XX00           ELIMINATE HYPHEN FROM TABLE    37863021
 00448A 1722                        5625        XR    R2,R2                      CLEAR REG                       37870021
 00448C DD4F 1000 C35C 00000 012EC  5626          TRT   DX0(LX80,R1),UDIGT         SCAN TO NON (DIGIT OR HYPHE   37877021
 004492 9202 C3BC      0134C        5627          MVI   UDIGT+NX96,XX02           REPLACE HYPHEN IN TABLE        37884021
 004496 4620 9066      0449E        5628          BCT   R2,*+NX8                  IS IT A LETTER                 37891021
 00449A 47F0 9000      04438        5629        BC    UNCOND,LETTER               YES-LETTER    (ASSUME A WO     37898021
 00449E 9509 D377      003A7        5630          CLI   DIVNM,XX09                IN PD                          37905021
 0044A2 4770 9078      044B0        5631        BC    NOTEQ,DIGNUM                NO-DIGNUM                      37912021
 0044A6 4123 0001      00001        5632          LA    R2,DX1(R3)                POSITION AFTER HYPHEN          37919021
 0044AA 1921                        5633        CR    R2,R1                       OK                             37926021
 0044AC 4770 9000      04438        5634        BC    NOTEQ,LETTER                YES-LETTER                     37933021
 0044B0 1813                        5635 DIGNUM LR    R1,R3                      RESTORE PTR TO HYPHEN           37940021
 0044B2 47F0 928E      046C6        5636        BC    UNCOND,NUMLIT               -NUMLIT                        37947021
                                    5637 *                                                                       37954021
 0044B6 9101 D353      00383        5638 DIGDEC   TM    FRGNSW,XX01               FRGNSW 'ON'                    37961021
 0044BA 4710 928E      046C6        5639        BC    ONES,NUMLIT              YES-NUMLIT                        37968021
 0044BE 1831                        5640 DIGPER LR    R3,R1                      SAVE PTR TO PERIOD              37975021
 0044C0 9601 D374      003A4        5641          OI    DECSW,XX01                SET 'ON' DECSW                 37982021
 0044C4 DD00 1001 C35C 00001 012EC  5642          TRT   DX1(LX1,R1),UDIGT          IS CHAR AFTER PERIOD A DIGI   37989021
 0044CA 4780 90BC      044F4        5643        BC    ZERO,DGSCN2                 YES-DGSCN2                     37996021
 0044CE 9400 D374      003A4        5644          NI    DECSW,XX00                SET 'OFF' DECSW                38003021
 0044D2 95C5 1000      00000        5645          CLI   DX0(R1),XXC5              IS CHAR AFTER PERIOD LETTER    38010021
 0044D6 4780 F5A4      0409C        5646        BC    EQ,FLOPNT                   YES-FLOPNT    (FLOAT-POINT     38017021
 0044DA 0610                        5647 DIGXIT BCTR  R1,JR                       SET PTR BACK ONE               38024021
 0044DC 47F0 928E      046C6        5648        BC    UNCOND,NUMLIT               -NUMLIT       (NUM-LITERAL     38031021
                                    5649 *                                                                       38038021
1PH1A     IKFCBL10                                                                                              PAGE  117
-  LOC  OBJECT CODE    ADDR1 ADDR2  STMT   SOURCE STATEMENT                                       ASM 0201 11.03 02/14/15
00044E0 9101 D353      00383        5650 DIGCOM   TM    FRGNSW,XX01               FRGNSW 'ON'                    38045021
 0044E4 4780 928E      046C6        5651          BC    ZERO,NUMLIT         NO FOREIGN CURRENCY                  38052021
 0044E8 9540 1000      00000        5652          CLI   DX0(R1),XX40        IS NEXT CH A BLANK                   38059021
 0044EC 4780 928E      046C6        5653          BC    EQ,NUMLIT           YES - NUMLIT                         38066021
 0044F0 47F0 9086      044BE        5654          BC    UNCOND,DIGPER       CHECK NUMBER                         38073021
                                    5655 *                                                                       38080021
 0044F4 DD4F 1001 C35C 00001 012EC  5656 DGSCN2   TRT   DX1(LX80,R1),UDIGT         SCAN TO NON-DIGIT             38087021
 0044FA 95C5 1000      00000        5657          CLI   DX0(R1),XXC5              IS NON-DIGIT A LETTER 'E'      38094021
 0044FE 4780 F5A4      0409C        5658        BC    EQ,FLOPNT                   YES-FLOPNT    (FLOAT-POINT     38101021
 004502 47F0 928E      046C6        5659        BC    UNCOND,NUMLIT               -NUMLIT       (NUM-LITERAL     38108021
1PH1A     IKFCBL10                                                                                              PAGE  118
-  LOC  OBJECT CODE    ADDR1 ADDR2  STMT   SOURCE STATEMENT                                       ASM 0201 11.03 02/14/15
0                                   5661 *                                                                       38122021
                                    5662 *  ROUTINE FOR A QUOTE SIGN -- ALPHAMERIC LITERAL                       38129021
                                    5663 *                                                                       38136021
 004506 1B33                        5664 QUOTE  SR    R3,R3                      CLEAR REG                       38143021
 004508 9234 C79A      0172A        5665          MVI   NXTCOD,XX34               CODE AS ALPHMERIC LIT          38150021
 00450C 4140 C79C      0172C        5666        LA    R4,NXTBCD                  SET UP REG TO STORE LIT         38157021
 004510 4111 0001      00001        5667 QUSCAN   LA    R1,DX1(R1)                STEP REG TO NEXT CHARATER      38164021
 004514 9102 D352      00382        5668          TM    NOTESW,XX02               NOTESW 'ON'                    38171021
 004518 4710 97CA      04C02        5669        BC    ONES,EXIT5C                 YES-EXIT5C                     38178021
 00451C D500 1000 F000 00000 03AF8  5670          CLC   DX0(LX1,R1),SNGLQT         IS IT A QUOTE                 38185021
 004522 4770 90D8      04510        5671        BNE   QUSCAN                    NO  -  CONTINEU LOOP             38192021
 004526 1881                        5672 QUSN1B LR    R8,R1                     ADDR OF ENDING QUOTE             38199021
 004528 1B85                        5673        SR    R8,R5                      SIZE FROM QUOTE THRU QUOTE      38206021
 00452A 4280 C79B      0172B        5674        STC   R8,NXTN                    SAVE SIZE FOR COPY REPLACIN     38213021
 00452E 0680                        5675        BCTR  R8,JR                       ADJ TO ACTUAL SIZE             38220021
 004530 1917                        5676        CR    R1,R7                      TEST IF COL 74                  38227021
 004532 47B0 912A      04562        5677        BC    NOTLO,QUCNLT                YES-QUCNLT                     38234021
 004536 1A38                        5678        AR    R3,R8                      SAVE SIZE                       38241021
 004538 45E0 91C4      045FC        5679        BAL   JP,QZ120                   -QZ120    SIZE NOT OVER 120     38248021
 00453C 45E0 91E4      0461C        5680        BAL   JP,QZERO                   -QZERO   SIZE GREATER THAN      38255021
                                    5681 *                                                                       38262021
 004540 4980 C14C      010DC        5682 QUCN1  CH    R8,HWZERO                  LENGTH OF CONTINUATION IS Z     38269021
 004544 4780 911E      04556        5683        BC    EQ,QUCN1A                   YES-QUCN1A                     38276021
 004548 9110 D359      00389        5684          TM    GTRTSW,XX10               GTWD CALLED BY GTCARD          38283021
 00454C 4770 9122      0455A        5685        BC    NOTZER,CPREXT              YES - EXIT                      38290021
 004550 0680                        5686        BCTR  R8,JR                       REDUCE LENGTH FOR 'EX'         38297021
 004552 4480 91F8      04630        5687        EX    R8,MOVLIT                  LIT TO BCD FIELD                38304021
 004556 4230 C79B      0172B        5688 QUCN1A STC   R3,NXTN                    SIZE TO N FIELD                 38311021
 00455A 4111 0001      00001        5689 CPREXT   LA    R1,DX1(R1)                MOVE PTR PAST LAST QUOTE       38318021
 00455E 47F0 977E      04BB6        5690        BC    UNCOND,EXIT5                -EXIT5                         38325021
                                    5691 *                                                                       38332021
                                    5692 * ROUTINE FOR LIT THAT CONTINUES ON NEXT CARD                           38339021
 004562 0680                        5693 QUCNLT BCTR  R8,JR                       ADJ FOR COL 73                 38346021
 004564 1A38                        5694        AR    R3,R8                      SAVE SIZE                       38353021
 004566 45E0 91C4      045FC        5695        BAL   JP,QZ120                   -QZ120    SIZE NOT OVER 120     38360021
 00456A 1233                        5696        LTR   R3,R3                      LENGTH IS ZERO                  38367021
 00456C 4780 9152      0458A        5697        BC    ZERO,QCNLT1                 YES-QCNLT1                     38374021
 004570 9110 D359      00389        5698          TM    GTRTSW,XX10               GETWD CALLED BY GETCD          38381021
 004574 4780 9148      04580        5699        BC    ZERO,QUGTCD                NO - CALL GTCD                  38388021
 004578 4230 C79B      0172B        5700        STC   R3,NXTN                    SAVE SIZE FOR GTCARD            38395021
 00457C 47F0 97CA      04C02        5701        B     EXIT5C                EXIT5C                               38402021
 004580 0680                        5702 QUGTCD BCTR  R8,JR                      LENGTH - 1 FOR EX               38409021
 004582 4480 91F8      04630        5703        EX    R8,MOVLIT                  LIT TO BCD FIELD                38416021
 004586 4148 4001      00001        5704          LA    R4,DX1(R8,R4)             INCREMENT PTR TO BCD FIELD     38423021
 00458A 9034 DAA8      00AD8        5705 QCNLT1 STM   R3,R4,QUOTSV               SAVE REGS                       38430021
 00458E 45E0 F306      03DFE        5706        BAL   R14,GTCARD                 -GTCARD                         38437021
 004592 9234 C79A      0172A        5707          MVI   NXTCOD,XX34               YES - SET CODE TO ALPHA LIT    38444021
 004596 9834 DAA8      00AD8        5708        LM    R3,R4,QUOTSV               RESTORE REGS                    38451021
                                    5709 *                                                                       38458021
                                    5710 * CONTINUED LITERAL CHECK FOR CONTINUATION HYPHEN AND QUOTE             38465021
 00459A 0650                        5711        BCTR  R5,JR                       ADDR OF COL 7                  38472021
 00459C DD4F 5001 C45C 00001 013EC  5712          TRT   DX1(LX80,R5),UNONB         SCAN TO NON-BLANK             38479021
 0045A2 D500 1000 F000 00000 03AF8  5713          CLC   DX0(LX1,R1),SNGLQT         QUOTE                         38486021
 0045A8 4770 91A0      045D8        5714        BNE   QUSNAD                QUSNAD                               38493021
 0045AC 1917                        5715 QUSN1C CR    R1,R7                      ADDR COL 74?              50174 38500021
1PH1A     IKFCBL10                                                                                              PAGE  119
-  LOC  OBJECT CODE    ADDR1 ADDR2  STMT   SOURCE STATEMENT                                       ASM 0201 11.03 02/14/15
00045AE 4740 9184      045BC        5716        BL    QUSN2C                      NO                       50174 38507021
 0045B2 45E0 DB84      00BB4        5717        BAL   JP,MSG78                    YES-BLANK CARD/ASSUME    50174 38514021
 0045B6 1816                        5718        LR    R1,R6                       OPEN QUOTE IN COLUMN 12  50174 38521021
 0045B8 47F0 9190      045C8        5719        B     QUSNAB                      CONTINUE                 50174 38528021
 0045BC 9560 5000      00000        5720 QUSN2C CLI   DX0(R5),XX60                HYPHEN IN COLUMN 7?      50174 38535021
 0045C0 4780 9190      045C8        5721        BC    EQ,QUSNAB                   YES-QUSNAB                     38542021
 0045C4 45E0 DB84      00BB4        5722 QUSNAA BAL   JP,MSG78                   -MSG78                          38549021
 0045C8 1851                        5723 QUSNAB LR    R5,R1                      SET R5 TO QUOTE                 38556021
 0045CA 1916                        5724 QUSNAC CR    R1,R6                      IN A-MARGIN                     38563021
 0045CC 47B0 90D8      04510        5725        BC    NOTLO,QUSCAN                NO-QUSCAN                      38570021
 0045D0 45E0 DB80      00BB0        5726        BAL   JP,MSG77                   -MSG77                          38577021
 0045D4 47F0 90D8      04510        5727        BC    UNCOND,QUSCAN               -QUSCAN                        38584021
                                    5728 *                                                                       38591021
 0045D8 9560 5000      00000        5729 QUSNAD   CLI   DX0(R5),XX60              HYPHEN COL 7                   38598021
 0045DC 4780 91B8      045F0        5730        BC    EQ,QUSNAE                   YES-QUSNAE                     38605021
 0045E0 45E0 DBD4      00C04        5731        BAL   JP,MSG98                   -MSG98                          38612021
 0045E4 45E0 91E4      0461C        5732        BAL   JP,QZERO                   -QZERO                          38619021
 0045E8 4230 C79B      0172B        5733        STC   R3,NXTN                    STORE SIZE                      38626021
 0045EC 47F0 977E      04BB6        5734        BC    UNCOND,EXIT5                -EXIT5                         38633021
                                    5735 *                                                                       38640021
 0045F0 45E0 DB84      00BB4        5736 QUSNAE BAL   JP,MSG78                   -MSG78                          38647021
 0045F4 1851                        5737        LR    R5,R1                      SET R5 TO NON-BLANK             38654021
 0045F6 0650                        5738        BCTR  R5,JR                       MOVE PTR TO QUOTE POSITION     38661021
 0045F8 47F0 9192      045CA        5739        BC    UNCOND,QUSNAC               -QUSNAC                        38668021
                                    5740 *                                                                       38675021
                                    5741 * ROUTINE TO TEST IF LIT IS OVER 120 CHARACTERS                         38682021
 0045FC 5930 C2BC      0124C        5742 QZ120  C     R3,K120                    OVER 120 CHARACTERS             38689021
 004600 07DE                        5743        BCR   NOTHI,JP                    NO-RETURN                      38696021
 004602 45E0 DB7C      00BAC        5744        BAL   JP,MSG76                   -MSG76                          38703021
 004606 1B38                        5745        SR    R3,R8                      SUBTRACT LAST LENGTH            38710021
 004608 5880 C2BC      0124C        5746        L     R8,K120                    CALC DIFFERENCE BETWEEN         38717021
 00460C 1B83                        5747        SR    R8,R3                       PREVIOUS LENGTH AND 120        38724021
 00460E 5830 C2BC      0124C        5748        L     R3,K120                    SET LENGTH TO 120               38731021
 004612 1917                        5749        CR    R1,R7                      IS IT COL 74                    38738021
 004614 4740 9108      04540        5750        BC    LO,QUCN1                    NO-QUCN1                       38745021
 004618 4610 9108      04540        5751        BCT   R1,QUCN1                    -QUCN1   MOVE PTR BACK ONE     38752021
                                    5752 *                                                                       38759021
                                    5753 * ROUTINE TO TEST IF LIT IS ZERO LENGTH                                 38766021
 00461C 1233                        5754 QZERO  LTR   R3,R3                      SIZE IS ZERO                    38773021
 00461E 077E                        5755        BCR   NOTZER,JP                   NO-RETURN                      38780021
 004620 45E0 DB88      00BB8        5756        BAL   JP,MSG79                   -MSG79                          38787021
 004624 9240 C79C      0172C        5757          MVI   NXTBCD,XX40               PUT BLANK IN FIELD             38794021
 004628 4133 0001      00001        5758          LA    R3,DX1(R3)                SET SIZE TO  1                 38801021
 00462C 47F0 911E      04556        5759        BC    UNCOND,QUCN1A               -QUCN1A                        38808021
                                    5760 *                                                                       38815021
 004630 D200 4000 5001 00000 00001  5761 MOVLIT   MVC   DX0(LX0,R4),DX1(R5)        EX MOVE FOR LIT               38822021
1PH1A     IKFCBL10                                                                                              PAGE  120
-  LOC  OBJECT CODE    ADDR1 ADDR2  STMT   SOURCE STATEMENT                                       ASM 0201 11.03 02/14/15
0                                   5763 *                                                                       38836021
                                    5764 *   ROUTINE FOR A PERIOD                                                38843021
                                    5765 *                                                                       38850021
 004636 9101 D353      00383        5766 PERIOD   TM    FRGNSW,XX01               FRGNSW 'ON'                    38857021
 00463A 4780 920E      04646        5767        BC    ZERO,DIGAFT                 NO-DIGAFT                      38864021
 00463E 4111 0001      00001        5768          LA    R1,DX1(R1)                SET PTR TO POS AFTER PERIOD    38871021
 004642 47F0 9218      04650        5769        BC    UNCOND,TSTAFT               -TSTAFT                        38878021
 004646 DD00 1001 C35C 00001 012EC  5770 DIGAFT   TRT   DX1(LX1,R1),UDIGT          IS NEXT A DIGIT               38885021
 00464C 4780 9086      044BE        5771        BC    EQ,DIGPER                   YES-DIGPER                     38892021
 004650 9540 1000      00000        5772 TSTAFT   CLI   DX0(R1),XX40    IS POSITION AFTER PERIOD BLANK           38899021
 004654 4780 9224      0465C        5773        BC    EQ,EOSENT         YES  BRANCH TO END OF SENT ROUT          38906021
 004658 45E0 DB90      00BC0        5774        BAL   JP,MSG81         ERR MESS- PERIOD NOT FOLLOWED BY BLAN     38913021
 00465C D201 C79A C58D 0172A 0151D  5775 EOSENT   MVC   NXTCOD(LX2),EOSCON MOVE EOS CODE                         38920021
 004662 9104 C6E1      01671        5776          TM    CURSW,XX04                IS POSITION BEFORE PERIOD B    38927021
 004666 4710 97CA      04C02        5777        BC    ONES,EXIT5C                 NO-EXIT5C                      38934021
 00466A 45E0 DB8C      00BBC        5778        BAL   R14,MSG80                  -MSG80                          38941021
 00466E 47F0 97CA      04C02        5779        BC    UNCOND,EXIT5C               -EXIT5C                        38948021
                                    5780 *                                                                       38955021
                                    5781 *                                                                       38962021
                                    5782 * ROUTINE FOR PLUS OR MINUS SIGN                                        38969021
                                    5783 *                                                                       38976021
 004672 9601 D373      003A3        5784 SIGN     OI    SIGNSW,XX01               SET 'ON' SIGNSW                38983021
 004676 DD00 1001 C35C 00001 012EC  5785          TRT   DX1(LX1,R1),UDIGT          DIGIT FOLLOWING SIGN          38990021
 00467C 4780 927A      046B2        5786        BC    ZERO,SIGNC                  YES-SIGNC                      38997021
 004680 D500 1000 C580 00000 01510  5787          CLC   DX0(LX1,R1),KDECML         PERIOD FOLLOWING SIGN         39004021
 004686 4770 925E      04696        5788        BC    NOTEQ,SIGNA                 NO-SIGNA                       39011021
 00468A DD00 1001 C35C 00001 012EC  5789          TRT   DX1(LX1,R1),UDIGT          DIGIT FOLLOWIN PERIOD         39018021
 004690 4780 9086      044BE        5790        BC    ZERO,DIGPER                 YES-DIGPER                     39025021
 004694 0610                        5791        BCTR  R1,JR                       (SET PTR BACK TO PERIOD)       39032021
                                    5792 *                                                                       39039021
 004696 9560 5000      00000        5793 SIGNA    CLI   DX0(R5),XX60              MINUS SIGN                     39046021
 00469A 4780 9270      046A8        5794        BC    EQ,SIGNB                    YES-SIGNB                      39053021
 00469E D201 C79A ACAA 0172A 0389A  5795          MVC   NXTCOD(LX2),PLUSCD        CODE AS PLUS SIGN              39060021
 0046A4 47F0 9746      04B7E        5796        BC    UNCOND,EXIT                 -EXIT                          39067021
 0046A8 D201 C79A ACAD 0172A 0389D  5797 SIGNB    MVC   NXTCOD(LX2),MINCD         CODE AS MINUS SIGN             39074021
 0046AE 47F0 9746      04B7E        5798        BC    UNCOND,EXIT                 -EXIT                          39081021
                                    5799 *                                                                       39088021
 0046B2 DD4F 1001 C35C 00001 012EC  5800 SIGNC    TRT   DX1(LX80,R1),UDIGT         SCAN TO NON-DIGIT             39095021
 0046B8 D500 1000 C580 00000 01510  5801          CLC   DX0(LX1,R1),KDECML         PERIOD FOLLOWING LAST DIGIT   39102021
 0046BE 4780 9086      044BE        5802        BC    EQ,DIGPER                   YES-DIGPER                     39109021
 0046C2 47F0 928E      046C6        5803        BC    UNCOND,NUMLIT               -NUMLIT                        39116021
1PH1A     IKFCBL10                                                                                              PAGE  121
-  LOC  OBJECT CODE    ADDR1 ADDR2  STMT   SOURCE STATEMENT                                       ASM 0201 11.03 02/14/15
0                                   5805 *                                                                       39130021
                                    5806 * GENERAL ROUTINE FOR NUMERIC LITERALS  -- ROUTINE IS ENTERED FROM      39137021
                                    5807 *  SIGN, PERIOD, AND DIGIT ROUTINES.  A SWITCH IS SET IF THERE IS A     39144021
                                    5808 *  SIGN OR A DECIMAL.  R5 POINTS TO THE FIRST CHARACTER,  R3 POINTS     39151021
                                    5809 *  THE DECIMAL, AND R1 POINTS TO THE CHARACTER AFTER THE LITERAL        39158021
                                    5810 *                                                                       39165021
 0046C6 5050 DD28      00D58        5811 NUMLIT ST    R5,REGWRK        SAVE R5                                   39172021
 0046CA 1881                        5812        LR    R8,R1                      GET TOTAL                       39179021
 0046CC 1B85                        5813        SR    R8,R5                       LIT SIZE                       39186021
 0046CE 4280 C778      01708        5814        STC   R8,NXTCNT                  STORE IN NXTCNT                 39193021
 0046D2 D211 C779 5000 01709 00000  5815          MVC   NXTWD(LX18),DX0(R5)        STORE LIT IN NXTWD            39200021
 0046D8 9101 D373      003A3        5816          TM    SIGNSW,XX01               SIGNED LIT                     39207021
 0046DC 47E0 92AE      046E6        5817        BC    NOTONE,NUMLTA               NO-NUMLTA                      39214021
 0046E0 4155 0001      00001        5818          LA    R5,DX1(R5)                MOVE R5 PTR                    39221021
 0046E4 0680                        5819        BCTR  R8,JR                       REDUCE SIXE                    39228021
 0046E6 9101 D374      003A4        5820 NUMLTA   TM    DECSW,XX01                IS THERE DEC                   39235021
 0046EA 47E0 92B8      046F0        5821          BC    NOTONE,*+NX6     NO                                      39242021
 0046EE 0680                        5822        BCTR  R8,JR              YES - SUBTRACT 1 FROM LENGTH            39249021
 0046F0 5580 C2B0      01240        5823        CL    R8,K18           COMP TO 18                                39256021
 0046F4 47D0 92C8      04700        5824          BC    NOTHI,*+NX12    LENGTH IS OK                             39263021
 0046F8 45E0 DB94      00BC4        5825        BAL   JP,MSG82         -MSG82                                    39270021
 0046FC 4180 0012      00012        5826          LA    R8,DX18         LIT TOO LONG, TRUNCATE TO 18             39277021
 004700 5080 DA44      00A74        5827        ST    R8,SAVER8        SAVE LITERAL LENGTH                       39284021
 004704 9200 DA20      00A50        5828          MVI   UNPWRK,XX00        SET 18 BYTE WORK AREA TO ZERO         39291021
 004708 D210 DA21 DA20 00A51 00A50  5829          MVC   UNPWRK+NX1(LX17),UNPWRK AREA TO ZERO                     39298021
 00470E D203 DA1C DD24 00A4C 00D54  5830          MVC   INTCNT(LX4),ZERWRD CLEAR COUNTERS                        39305021
 004714 4140 DA32      00A62        5831        LA    R4,UNPEND        SET UP R4 TO POINT TO                     39312021
 004718 1B48                        5832        SR    R4,R8             1ST POS OF WORK AREA                     39319021
 00471A 5040 D968      00998        5833        ST    R4,VALNLT        SAVE R4 FOR VALUE CLAUSE                  39326021
 00471E 5080 D96C      0099C        5834          ST    R8,VALNLT+NX4   SAVE R8 FOR VALUE CLAUSE                 39333021
 004722 9101 D374      003A4        5835          TM    DECSW,XX01      TEST DECIMAL AGAIN                       39340021
 004726 4710 930A      04742        5836        BC    ONES,NLTDEC       YES                                      39347021
 00472A 4080 DA1C      00A4C        5837        STH   R8,INTCNT        SAVE NO OF INTS                           39354021
 00472E 4480 92FE      04736        5838        EX    R8,MVPAK1        NO - ONLY INTEGERS - MV TO WORK AREA      39361021
 004732 47F0 9356      0478E        5839        BC    UNCOND,LITCOM    GO TO COMMON ROUTINE                      39368021
 004736 D200 4000 5000 00000 00000  5840 MVPAK1   MVC   DX0(LX0,R4),DX0(R5)                                      39375021
 00473C D200 4000 3000 00000 00000  5841 MVPAK2   MVC   DX0(LX0,R4),DX0(R3)                                      39382021
                                    5842 *                                                                       39389021
                                    5843 *  ROUTINE FOR NUMERIC LIT WITH DECIMALS                                39396021
                                    5844 *                                                                       39403021
 004742 1B22                        5845 NLTDEC SR    R2,R2                                                      39410021
 004744 1953                        5846 INTLP1 CR    R5,R3            IS POINTER AT DEC YET                     39417021
 004746 4780 9330      04768        5847        BC    EQ,SAVINT         YES                                      39424021
 00474A D200 4000 5000 00000 00000  5848          MVC   DX0(LX1,R4),DX0(R5) NO - MV 1 DIG TO WORK                39431021
 004750 4122 0001      00001        5849          LA    R2,DX1(R2)      ADD 1 TO INT COUNT                       39438021
 004754 4155 0001      00001        5850          LA    R5,DX1(R5)      ADD 1 TO POINTER                         39445021
 004758 4144 0001      00001        5851          LA    R4,DX1(R4)      ADD 1 TO WORK AREA PNTR                  39452021
 00475C 4680 930C      04744        5852        BCT   R8,INTLP1        TEST 18 CHARS MOVED                       39459021
 004760 4020 DA1C      00A4C        5853        STH   R2,INTCNT                                                  39466021
 004764 47F0 9356      0478E        5854        BC    UNCOND,LITCOM      YES  GO TO COMMON ROUTINE               39473021
 004768 4020 DA1C      00A4C        5855 SAVINT STH   R2,INTCNT        SAVE INTEGER COUNT                        39480021
 00476C 1B22                        5856        SR    R2,R2            CLEAR FOR DEC COUNT                       39487021
 00476E 4155 0001      00001        5857 DECLP1   LA    R5,DX1(R5)      MV POINTER PAST DEC                      39494021
 004772 1951                        5858        CR    R5,R1            TEST END OF LIT                           39501021
 004774 4780 9352      0478A        5859        BC    EQ,SAVDEC         YES                                      39508021
1PH1A     IKFCBL10                                                                                              PAGE  122
-  LOC  OBJECT CODE    ADDR1 ADDR2  STMT   SOURCE STATEMENT                                       ASM 0201 11.03 02/14/15
0004778 D200 4000 5000 00000 00000  5860          MVC   DX0(LX1,R4),DX0(R5) NO - MV 1 DIG TO WORK                39515021
 00477E 4122 0001      00001        5861          LA    R2,DX1(R2)      ADD 1 TO DEC COUNT                       39522021
 004782 4144 0001      00001        5862          LA    R4,DX1(R4)      ADD 1 TO WORK AREA PNTR                  39529021
 004786 4680 9336      0476E        5863        BCT   R8,DECLP1        TEST 18 CHARS MOVED                       39536021
 00478A 4020 DA1E      00A4E        5864 SAVDEC STH   R2,DECCNT        SAVE DEC COUNT                            39543021
 00478E 5880 DA44      00A74        5865 LITCOM L     R8,SAVER8        RESTORE LENGTH OF LIT                     39550021
 004792 F27E DA35 DA23 00A65 00A53  5866        PACK  PAKSUB,UNPSUB    PACK RIGHT MOST 15 DIGS                   39557021
 004798 F212 DA3E DA20 00A6E 00A50  5867        PACK  WRK2,UNPWRK      PACK LEFT 3 DIGS                          39564021
 00479E F121 DA40 DA3E 00A70 00A6E  5868        MVO   WRK3,WRK2        ELIM SIGN                                 39571021
 0047A4 D201 DA33 DA40 00A63 00A70  5869          MVC   PAKWRK(LX2),WRK3 AND SHIFT 4 BITS                        39578021
 0047AA 5850 DD28      00D58        5870        L     R5,REGWRK        RSTORE R5                                 39585021
 0047AE 9101 D373      003A3        5871          TM    SIGNSW,XX01     TEST SIGN                                39592021
 0047B2 47E0 93F2      0482A        5872        BC    NOTONE,NLTPH1             NO SIGN                          39599021
 0047B6 954E 5000      00000        5873          CLI   DX0(R5),XX4E              IS IT A +                      39606021
 0047BA 4780 9392      047CA        5874        BC    EQ,NLTPLS         YES                                      39613021
 0047BE 94FD DA3C      00A6C        5875          NI    PAKEND-NX1,XXFD NO - MAKE SIGN MINUS                     39620021
 0047C2 94DF DA31      00A61        5876          NI    UNPEND-NX1,XXDF SET SIGN IN BCD TO MINUS                 39627021
 0047C6 47F0 939A      047D2        5877          BC    UNCOND,*+NX12      SKIP TO SHIFT RIGHT                   39634021
 0047CA 94CF DA31      00A61        5878 NLTPLS   NI    UNPEND-NX1,XXCF           SET SIGN IN BCD TO +           39641021
 0047CE 94FC DA3C      00A6C        5879 NLTPLU   NI    PAKEND-NX1,XXFC           MAKE SIGN +                    39648021
 0047D2 8A80 0001      00001        5880          SRA   R8,DX1         DIV LIT LENGTH BY 2                       39655021
 0047D6 4188 0001      00001        5881          LA    R8,DX1(R8)      ADD 1 GIVING NO OF PACKED BYTES          39662021
 0047DA 4130 DA3D      00A6D        5882        LA    R3,PAKEND        SET POINTER TO FIRST                      39669021
 0047DE 1B38                        5883        SR    R3,R8             PACKED BYTE                              39676021
 0047E0 4140 C79E      0172E        5884          LA    R4,NXTBCD+NX2   LOAD STARTING ADD FOR PACKED DEC         39683021
 0047E4 4480 9304      0473C        5885        EX    R8,MVPAK2        MV PACKED DEC TO COMM CELL                39690021
 0047E8 4188 0002      00002        5886          LA    R8,DX2(R8)      DEVELOP NEXTN AND                        39697021
 0047EC 4280 C79B      0172B        5887        STC   R8,NXTN                    STORE SIZE IN NXTN              39704021
 0047F0 9232 C79A      0172A        5888          MVI   NXTCOD,XX32     STOR CODE FOR NUM LIT                    39711021
 0047F4 D200 C79C DA1D 0172C 00A4D  5889          MVC   NXTN+NX1(LX1),INTCNT+NX1 STORE NO OF INTS                39718021
 0047FA D200 C79D DA1F 0172D 00A4F  5890          MVC   NXTN+NX2(LX1),DECCNT+NX1 STORE NO OF DECS                39725021
 004800 1881                        5891        LR    R8,R1                      PUT BCD                         39732021
 004802 1B85                        5892        SR    R8,R5                       FORM                           39739021
 004804 4280 C778      01708        5893        STC   R8,NXTCNT                    IN NEXT                       39746021
 004808 D213 C779 5000 01709 00000  5894          MVC   NXTWD(LX20),DX0(R5)           WORD                       39753021
 00480E 9101 D374      003A4        5895          TM    DECSW,XX01                IS THERE A DECIMAL             39760021
 004812 4710 9628      04A60        5896        BC    ONES,TWDBNT                 YES-TWDBNT                     39767021
 004816 9101 D373      003A3        5897          TM    SIGNSW,XX01               IS THERE A SIGN                39774021
 00481A 4710 9628      04A60        5898        BC    ONES,TWDBNT                 YES-TWDBNT                     39781021
 00481E 9604 D371      003A1        5899 INLCKC   OI    AMARSW,XX04               UNSIGNED NUM-LIT W/O DEC       39788021
 004822 9608 C797      01727        5900          OI    NXTSW,XX08      SET SW FOR NUM LIT                       39795021
 004826 47F0 9628      04A60        5901        BC    UNCOND,TWDBNT               -TWDBNT                        39802021
                                    5902 *                                                                       39809021
 00482A 94FF DA3C      00A6C        5903 NLTPH1   NI    PAKEND-NX1,XXFF          MAKE SIGN 'F'                   39816021
 00482E 47F0 939A      047D2        5904          B     NLTPLU+LX4          BR BACK TO DIVIDE LIT ROUTINE        39823021
1PH1A     IKFCBL10                                                                                              PAGE  123
-  LOC  OBJECT CODE    ADDR1 ADDR2  STMT   SOURCE STATEMENT                                       ASM 0201 11.03 02/14/15
0                                   5906 *                                                                       39837021
                                    5907 * SPECIAL CHARACTER ROUTINE                                             39844021
                                    5908 *                                                                       39851021
 004832 4140 AC94      03884        5909 SPECL  LA    R4,SPCTBL        TABL ADDRESS TO REG                       39858021
 004836 5830 AC90      03880        5910        L     R3,SPTBAD        PUT TABLE END IN REGISTER                 39865021
 00483A 4120 0003      00003        5911          LA    R2,DX3          SET UP FOR 3 BYTE INDESING               39872021
 00483E D501 1000 ACAF 00000 0389F  5912          CLC   DX0(LX2,R1),EXPOKD IS IT A DOUBLE ASTERISK               39879021
 004844 4770 941E      04856        5913        BC    NOTEQ,SPLOOP      NO-SPLOOP                                39886021
 004848 D201 C79A ACB1 0172A 038A1  5914          MVC   NXTCOD(LX2),EXPOCD CODE AS 'EXPONENTIATE'                39893021
 00484E 4111 0002      00002        5915          LA    R1,DX2(R1)      ADD 2 TO POINTER                         39900021
 004852 47F0 9746      04B7E        5916        BC    UNCOND,EXIT       -EXIT                                    39907021
 004856 D500 4000 1000 00000 00000  5917 SPLOOP   CLC   DX0(LX1,R4),DX0(R1) COMP CHAR TO TABL CHAR               39914021
 00485C 4780 942C      04864        5918        BC    EQ,SPHIT              SPHIT                                39921021
 004860 8742 941E      04856        5919        BXLE  R4,R2,SPLOOP          SPLOOP                               39928021
 004864 D201 C79A 4001 0172A 00001  5920 SPHIT    MVC   NXTCOD(LX2),DX1(R4) SAVE CODE                            39935021
 00486A 4111 0001      00001        5921          LA    R1,DX1(R1)      ADD 1  TO POINTER                        39942021
 00486E 47F0 9746      04B7E        5922        BC    UNCOND,EXIT           EXIT                                 39949021
                                    5923 *                                                                       39956021
                                    5924 *  ROUTINE FOR ILLEGAL CHARACTER                                        39963021
                                    5925 *                                                                       39970021
 004872 45E0 DB98      00BC8        5926 ILLEGL BAL   JP,MSG83         ERR MESS- ILLEGAL CHAR                    39977021
 004876 4111 0001      00001        5927 ILLEG1   LA    R1,DX1(R1)      ADD1                                     39984021
 00487A 1B22                        5928        SR    R2,R2            CLEAR R2                                  39991021
 00487C DD00 1000 C45C 00000 013EC  5929          TRT   DX0(LX1,R1),UNONB TEST NEXT CHARACTER                    39998021
 004882 4780 9456      0488E        5930        BC    ZERO,ILLEG2       BLANK                                    40005021
 004886 5920 C2A4      01234        5931        C     R2,K7            IS IT ILLEGAL                             40012021
 00488A 4780 943E      04876        5932        BC    EQ,ILLEG1         YES - REPEAT LOOP                        40019021
 00488E 1851                        5933 ILLEG2 LR    R5,R1            ANY LEGAL CHAR                            40026021
 004890 47F0 F052      03B4A        5934        BC    UNCOND,ULSC1     GO TO RESUME SCAZ                         40033021
                                    5935 *                                                                       40040021
                                    5936 *   ROUTINE FOR A COMMA                                                 40047021
                                    5937 *                                                                       40054021
 004894 9101 D353      00383        5938 COMMA    TM    FRGNSW,XX01     IS IT A FOREIGN LANG                     40061021
 004898 4780 9470      048A8        5939        BC    ZERO,COMPRE                 NO-COMPRE                      40068021
 00489C DD00 1001 C35C 00001 012EC  5940          TRT   DX1(LX1,R1),UDIGT          NEXT CHAR IS A DIGIT          40075021
 0048A2 4780 9086      044BE        5941        BC    ZERO,DIGPER                 YES-DIGPER                     40082021
 0048A6 0610                        5942        BCTR  R1,JR                 SUBTRACT 1 FROM R1                   40089021
 0048A8 0610                        5943 COMPRE BCTR  R1,JR                       SET PTR BACK ONE               40096021
 0048AA 9540 1000      00000        5944          CLI   DX0(R1),XX40              BLANK BEFORE COMMA             40103021
 0048AE 4770 947E      048B6        5945        BC    NOTEQ,COMEX                 NO-COMEX                       40110021
 0048B2 45E0 DB9C      00BCC        5946        BAL   JP,MSG84                   -MSG84                          40117021
 0048B6 4111 0002      00002        5947 COMEX    LA    R1,DX2(R1)                SET PTR PAST COMMA             40124021
 0048BA 1851                        5948        LR    R5,R1                      SET POINTER                     40131021
 0048BC 9540 1000      00000        5949 COMFOL   CLI   DX0(R1),XX40              BLANK FOLLOWING COMMA          40138021
 0048C0 4780 F236      03D2E        5950        BC    EQ,ULSC14                   YES-ULSC14                     40145021
 0048C4 45E0 DC2C      00C5C        5951        BAL   JP,MSG120                  -MSG120                         40152021
 0048C8 47F0 F236      03D2E        5952        BC    UNCOND,ULSC14               -ULSC14                        40159021
1PH1A     IKFCBL10                                                                                              PAGE  124
-  LOC  OBJECT CODE    ADDR1 ADDR2  STMT   SOURCE STATEMENT                                       ASM 0201 11.03 02/14/15
0                                   5954 *                                                                       40173021
                                    5955 *  SUBROUTINE TO TEST FOR A COBOL WORD                                  40180021
                                    5956 *                                                                       40187021
 0048CC 1B33                        5957 TSTCOB SR    R3,R3                                                      40194021
 0048CE 5980 C2A8      01238        5958        C     R8,K16           IS WORD LENGTH                            40201021
 0048D2 47B0 94F0      04928        5959        BC    NOTLO,BCDNAM      BDTWEEN                                  40208021
 0048D6 5980 C2A0      01230        5960        C     R8,K2              2 AND                                   40215021
 0048DA 4740 94F0      04928        5961        BC    LO,BCDNAM           15                                     40222021
 0048DE 5983 AC18      03808        5962 ADLOOP C     R8,ADTAB(R3)     IF YES                                    40229021
 0048E2 4780 94B6      048EE        5963        BC    EQ,MOVAD          WHICH                                    40236021
 0048E6 4133 0008      00008        5964          LA    R3,DX8(R3)          LENGTH                               40243021
 0048EA 47F0 94A6      048DE        5965        BC    UNCOND,ADLOOP         FIND WORD LENGTH                     40250021
 0048EE 5843 AC1C      0380C        5966 MOVAD    L     R4,ADTAB+NX4(R3) LOAD ADDR OF VRST WORD THAT LENGTH      40257021
 0048F2 5823 AC24      03814        5967          L     R2,ADTAB+NX12(R3) ADDR OF FIRST WORD OF NEXT LENGTH      40264021
 0048F6 1838                        5968        LR     R3,R8           TRANSFER LENGTH TO WORK REG               40271021
 0048F8 0630                        5969        BCTR  R3,JR            SUBRRACT 1 FOR EXECUTE COMPARE            40278021
 0048FA 4430 94CE      04906        5970 TBLOOP EX     R3,COMP                                                   40285021
 0048FE 4780 94E4      0491C        5971        BC    EQ,WRDHIT             WORD FOUND IN COBOL LIST             40292021
 004902 47F0 94D4      0490C        5972        BC    UNCOND,NOHIT          WORD NOT FOUND                       40299021
                                    5973 *                                                                       40306021
 004906 D500 5000 4000 00000 00000  5974 COMP     CLC   DX0(LX0,R5),DX0(R4) COMP THIS UNIT TO TABLWORD           40313021
                                    5975 *                                                                       40320021
 00490C 1A48                        5976 NOHIT  AR    R4,R8            ADD WORD LENGTH TO TABL POINTER           40327021
 00490E 4144 0003      00003        5977          LA    R4,DX3(R4)      ADD 3                                    40334021
 004912 1942                        5978        CR    R4,R2            TEST FOR END OF TABLE                     40341021
 004914 4780 94F0      04928        5979        BC    EQ,BCDNAM        END OF TABLE                              40348021
 004918 47F0 94C2      048FA        5980        BC    UNCOND,TBLOOP         COMPARE TO TABLE WORD                40355021
 00491C 1A48                        5981 WRDHIT AR    R4,R8            ADD WORD LENGTH TO TABLE POINTER          40362021
 00491E D202 C79A 4000 0172A 00000  5982          MVC   NXTCOD(LX3),DX0(R4) MOVE CODE                            40369021
 004924 47F0 9526      0495E        5983        BC    UNCOND,CHKIDD         CHECK ID DIVISION                    40376021
                                    5984 *                                                                       40383021
                                    5985 *****     ROUTINE FOR BCD-NAME     *****                                40390021
                                    5986 *                                                                       40397021
 004928 9223 C79A      0172A        5987 BCDNAM   MVI   NXTCOD,XX23               CODE AS BCD-NAME               40404021
 00492C 5980 C2B4      01244        5988        C     R8,K30                     OVER 30  CHARACTERS             40411021
 004930 47D0 9500      04938        5989        BC    NOTHI,BCDSTN                NO-BCDSTN                      40418021
 004934 5880 C2B4      01244        5990        L     R8,K30                     SET SIZE TO 30                  40425021
 004938 4280 C79B      0172B        5991 BCDSTN STC   R8,NXTN                    STORE SIZE IN 'N'               40432021
 00493C D777 C79C C79C 0172C 0172C  5992          XC    NXTBCD(LX120),NXTBCD      CLEAR AREA                     40439021
 004942 4130 C79C      0172C        5993        LA    R3,NXTBCD                  ADDR OF NXTBCD                  40446021
 004946 0680                        5994        BCTR  R8,JR                       ADJ SIZE FOR 'EX'              40453021
 004948 4480 9520      04958        5995        EX    R8,MVNAM                   NAME TO NXTBC                   40460021
 00494C 9602 D371      003A1        5996          OI    AMARSW,XX02               SET SW FOR BCDNAME             40467021
 004950 9680 C797      01727        5997          OI    NXTSW,XX80                SET NXTSW FOR BCD-NAME         40474021
 004954 47F0 9628      04A60        5998        BC    UNCOND,TWDBNT               -TWDBNT                        40481021
                                    5999 *                                                                       40488021
 004958 D200 3000 5000 00000 00000  6000 MVNAM    MVC   DX0(LX0,R3),DX0(R5)                                      40495021
1PH1A     IKFCBL10                                                                                              PAGE  125
-  LOC  OBJECT CODE    ADDR1 ADDR2  STMT   SOURCE STATEMENT                                       ASM 0201 11.03 02/14/15
0                                   6002 *                                                                       40509021
                                    6003 * IF IN ID-DIV, CHECK FOR DATE-COMPILED AND INSERT CURRENT DATE AFT     40516021
                                    6004 *    BLANKING REST OF CARD. SKIP LIST OF CARDS UNTIL MAJ-0 IN A-MAR     40523021
 00495E 9502 D377      003A7        6005 CHKIDD   CLI   DIVNM,XX02                IN ID-DIVISION                 40530021
 004962 4770 956E      049A6        6006        BNE   TWDANT                     NO                              40537021
 004966 9102 D34F      0037F        6007          TM    DATCSW,XX02               DATCSW 'ON'                    40544021
 00496A 4710 956E      049A6        6008        BC    ONES,TWDANT                 YES,TWDANT                     40551021
 00496E 9101 C797      01727        6009          TM    NXTSW,XX01                IN A-MARGIN                    40558021
 004972 4780 9746      04B7E        6010        BC    ZERO,EXIT                   NO-EXIT                        40565021
 004976 D501 C79A AAFA 0172A 036EA  6011          CLC   NXTCOD(LX2),DATECN        DATE-COMPILED                  40572021
 00497C 4770 956E      049A6        6012        BC    NOTEQ,TWDANT                NO-TWDANT                      40579021
 004980 D20D D622 5000 00652 00000  6013          MVC   SVCCRD+NX7(LX14),DX0(R5)   PUT DATE-COMPILED. IN COL 8   40586021
 004986 9240 D630      00660        6014          MVI   SVCCRD+NX21,XX40          INSERT BLANK                   40593021
 00498A D231 D631 D630 00661 00660  6015          MVC   SVCCRD+NX22(LX50),SVCCRD+NX21 CLEAR REST OF CARD AREA    40600021
 004990 5840 C814      017A4        6016        L     R4,COSADR                  ADDR OF COS                     40607021
 004994 D20E D631 418C 00661 0018C  6017          MVC   SVCCRD+NX22(LX15),DATE-COS(R4)                           40614021
 00499A 45E0 F306      03DFE        6018 IDGET  BAL   R14,GTCARD                 -GTCARD                         40621021
 00499E 9602 D34F      0037F        6019          OI    DATCSW,XX02               SET 'ON' DATCSW                40628021
 0049A2 47F0 F052      03B4A        6020        BC    UNCOND,ULSC1                -ULSC1                         40635021
                                    6021 * IF IN PROCEDURE DIV                                                   40642021
                                    6022 *                                                                       40649021
 0049A6 9542 C79A      0172A        6023 TWDANT   CLI   NXTCOD,XX42          CODE IS '42'                        40656021
 0049AA 4780 9590      049C8        6024        BC    EQ,TWDIVN              YES-TWDIVN                          40663021
 0049AE 9543 C79A      0172A        6025          CLI   NXTCOD,XX43          CODE IS '43'                        40670021
 0049B2 4770 9628      04A60        6026        BC    NOTEQ,TWDBNT           NO-TWDBNT                           40677021
 0049B6 9504 D377      003A7        6027        CLI   DIVNM,XX04             DATA DIVISION?                4675  40684021
 0049BA 4770 9628      04A60        6028        BNE   TWDBNT                 NO                            4675  40691021
 0049BE 5840 C814      017A4        6029 TWDNT1   L     R4,COSADR                                          7080  40698021
 0049C2 FA33 418C D5FE 0018C 0062E  6030          AP    DATE-COS(LX4,R4),INCRONE DN COUNT +1 FOR FD,SD,RD        40705021
 0049C8 9130 C79C      0172C        6031 TWDIVN   TM    NXTBCD,XX30               DIV OR SECT HEADER             40712021
 0049CC 4770 95A8      049E0        6032        BC    NOTZER,TWDCHK          YES-TWDCHK                          40719021
 0049D0 9101 C797      01727        6033          TM    NXTSW,XX01           IN A-MARGIN                         40726021
 0049D4 4710 9746      04B7E        6034        BC    ONES,EXIT              YES-EXIT                            40733021
 0049D8 45E0 DBA4      00BD4        6035        BAL   JP,MSG86              -MSG86 'SHOULD BE IN A-MARGIN'       40740021
 0049DC 47F0 9746      04B7E        6036        BC    UNCOND,EXIT            -EXIT                               40747021
                                    6037 *                                                                       40754021
 0049E0 5010 DD28      00D58        6038 TWDCHK ST    R1,REGWRK             SAVE R1                              40761021
 0049E4 DD4F 1000 C45C 00000 013EC  6039          TRT   DX0(LX80,R1),UNONB         SCAN TO NON-BLANK             40768021
 0049EA 9120 C79C      0172C        6040          TM    NXTBCD,XX20          SECTION HEADER                      40775021
 0049EE 4710 95CC      04A04        6041        BC    ONES,TWDSCT            YES-TWDSCT                          40782021
 0049F2 D507 1000 A6F0 00000 032E0  6042          CLC   DX0(LX8,R1),DIVKON    WORD IS DIVISION                   40789021
 0049F8 4770 9602      04A3A        6043        BC    NOTEQ,TWDAMG           NO-TWDAMG                           40796021
 0049FC 4111 0008      00008        6044          LA    R1,DX8(R1)           SET R1 TO PASS DIVISION             40803021
 004A00 47F0 95DA      04A12        6045        BC    UNCOND,TWDMRG          -TWDMRG                             40810021
 004A04 D506 1000 A6A7 00000 03297  6046 TWDSCT   CLC   DX0(LX7,R1),SCTKON    WORD IS SECTION                    40817021
 004A0A 4770 95EA      04A22        6047        BC    NOTEQ,TWDRPT           NO-TWDRPT                           40824021
 004A0E 4111 0007      00007        6048          LA    R1,DX7(R1)           SET R1 TO PASS SECTION              40831021
 004A12 9101 C797      01727        6049 TWDMRG   TM    NXTSW,XX01           IN A-MARGIN                         40838021
 004A16 4710 974C      04B84        6050        BC    ONES,EXIT1             YES-EXIT1                           40845021
 004A1A 45E0 DBA4      00BD4        6051        BAL   JP,MSG86              -MSG86 'SHOULD BE IN A-MARGIN'       40852021
 004A1E 47F0 974C      04B84        6052        BC    UNCOND,EXIT1           -EXIT1                              40859021
 004A22 D501 C79A A4E7 0172A 030D7  6053 TWDRPT   CLC   NXTCOD(LX2),REPTCD   WORD IS 'REPORT' (SCT)              40866021
 004A28 4770 9602      04A3A        6054        BC    NOTEQ,TWDAMG           NO-TWDAMG                           40873021
 004A2C D202 C79A C585 0172A 01515  6055          MVC   NXTCOD(LX3),REPCON        CHANGE CODE TO PLAIN'REPORT    40880021
 004A32 5810 DD28      00D58        6056        L     R1,REGWRK                  RESTORE REG                     40887021
1PH1A     IKFCBL10                                                                                              PAGE  126
-  LOC  OBJECT CODE    ADDR1 ADDR2  STMT   SOURCE STATEMENT                                       ASM 0201 11.03 02/14/15
0004A36 47F0 9628      04A60        6057        BC    UNCOND,TWDBNT          -TWDBNT                             40894021
 004A3A 9101 C797      01727        6058 TWDAMG   TM    NXTSW,XX01           IN A-MARGIN                         40901021
 004A3E 4780 961A      04A52        6059        BC    ZERO,TWDM99            NO-TWDM99                           40908021
 004A42 45E0 DBC8      00BF8        6060        BAL   JP,MSG95              -MSG95 'WORD SECT OR DIV MISSING     40915021
 004A46 5810 DD28      00D58        6061        L     R1,REGWRK                  RESTORE R1                      40922021
 004A4A 47F0 9746      04B7E        6062        BC    UNCOND,EXIT                 -EXIT                          40929021
 004A4E 9100 C79C      0172C        6063 DVXTST   TM    NXTBCD,XX00               'EX' TEST OK FOR DIV           40936021
                                    6064 *                                                                       40943021
                                    6065 *****    INVALID WORD -WRONG DIVISION OR USE-    *****                  40950021
                                    6066 *                                                                       40957021
 004A52 45E0 DBD8      00C08        6067 TWDM99 BAL   JP,MSG99              -MSG99 'WORD INVALID AS USED'        40964021
 004A56 5810 DD28      00D58        6068        L     R1,REGWRK                  RESTORE REG                     40971021
 004A5A 1851                        6069        LR    R5,R1                       TO SCAN                        40978021
 004A5C 47F0 F052      03B4A        6070        BC    UNCOND,ULSC1                 NEXT WORD                     40985021
                                    6071 *                                                                       40992021
                                    6072 *                                                                       40999021
                                    6073 *****    TEST IF WORD IS IN A-MARGIN AND BELONGS THERE    *****         41006021
                                    6074 *                                                                       41013021
 004A60 9101 C797      01727        6075 TWDBNT   TM    NXTSW,XX01                IN A-MARGIN                    41020021
 004A64 4780 9746      04B7E        6076        BC    ZERO,EXIT                   NO-EXIT                        41027021
 004A68 9504 D377      003A7        6077          CLI   DIVNM,XX04                IN DATA DIVISION               41034021
 004A6C 4780 9640      04A78        6078        BC    EQ,TWDNLT                   YES-TWDNLT                     41041021
 004A70 45E0 DBA8      00BD8        6079 TWDM87 BAL   R14,MSG87                  -MSG87 (WORD ILLEGAL IN A-M     41048021
 004A74 47F0 9746      04B7E        6080        BC    UNCOND,EXIT                 -EXIT                          41055021
                                    6081 *        IN DATA + PROCEDURE DIVISION CHECK THE FOLLOWING               41062021
 004A78 9108 C797      01727        6082 TWDNLT   TM    NXTSW,XX08                INTEGRAL-NUMERIC-LITERAL       41069021
 004A7C 4780 9638      04A70        6083        BC    ZERO,TWDM87                 NO-TWDM87                      41076021
 004A80 47F0 9746      04B7E        6084        BC    UNCOND,EXIT                 YES-EXIT                       41083021
                                    6085 *                                                                       41090021
1PH1A     IKFCBL10                                                                                              PAGE  127
-  LOC  OBJECT CODE    ADDR1 ADDR2  STMT   SOURCE STATEMENT                                       ASM 0201 11.03 02/14/15
0                                   6087 *                                                                       41104021
                                    6088 *****     QUALIFIED NAME ROUTINE     *****                              41111021
                                    6089 *                                                                       41118021
 004A84 D502 5000 C57D 00000 0150D  6090 QLRTNE   CLC   DX0(LX3,R5),OFKON          WORD IS 'OF'                  41125021
 004A8A 4780 9660      04A98        6091        BC    EQ,QLROFA                   YES-QLROFA                     41132021
 004A8E D502 5000 C57A 00000 0150A  6092          CLC   DX0(LX3,R5),INKON          WORD IS 'IN'                  41139021
 004A94 4770 9494      048CC        6093        BC    NOTEQ,TSTCOB                NO-TSTCOB                      41146021
                                    6094 *        CHECK IF FIRST 'OF/IN' OR TWO 'OF/IN'S IN A ROW                41153021
 004A98 9501 D370      003A0        6095 QLROFA   CLI   QLRTSW,XX01               IS 'OF/IN' EXPECTED            41160021
 004A9C 4780 9674      04AAC        6096        BC    EQ,QLROFB                   YES-QLROFB  (NOT THE  FIRS     41167021
 004AA0 4720 972A      04B62        6097        BC    HI,QLRERR                   TWO 'OF/IN' IN A ROW-QLRER     41174021
 004AA4 9188 C6E1      01671        6098          TM    CURSW,XX88                CUR-WD BCD-NAME OR INT-NUM-    41181021
 004AA8 4780 9730      04B68        6099        BC    ZERO,QLRCOD                 NO-QLRCOD                      41188021
 004AAC 9602 D370      003A0        6100 QLROFB   OI    QLRTSW,XX02               SET QLRTSW TO '3'              41195021
 004AB0 1851                        6101        LR    R5,R1                      SET PTR PAST WORD 'OF-IN'       41202021
 004AB2 47F0 F052      03B4A        6102        BC    UNCOND,ULSC1                -ULSC1                         41209021
                                    6103 *        CHECK FOR BCD-NAME OR INT-NUM-LIT AND PUT IN QLTABL            41216021
 004AB6 9502 D370      003A0        6104 QLRWRD   CLI   QLRTSW,XX02               WAS LAST WORD 'OF/IN'          41223021
 004ABA 4740 973E      04B76        6105        BC    LO,QLREND                   NO-QLREND                      41230021
 004ABE 4780 9696      04ACE        6106        BC    EQ,QLRWDA                   YES-QLRWDA  (FIRST ONE)        41237021
 004AC2 9188 C797      01727        6107          TM    NXTSW,XX88                NXT-WD BCD-NAME OR INT-NUM-    41244021
 004AC6 4780 972A      04B62        6108        BC    ZERO,QLRERR                 NO-QLRERR                      41251021
 004ACA 47F0 96C4      04AFC        6109        BC    UNCOND,QLRWDB               YES-QLRWDB                     41258021
 004ACE 9188 C797      01727        6110 QLRWDA   TM    NXTSW,XX88                NXT-WD BCD-NAME OR INT-NUM-    41265021
 004AD2 4780 972A      04B62        6111        BC    ZERO,QLRERR                 NO-QLRERR                      41272021
 004AD6 92A2 C6E4      01674        6112          MVI   CURCOD,XXA2               CURCOD TO 'A2'                 41279021
 004ADA 5840 C82C      017BC        6113        L     R4,QLTCON                  ADDR OF TIB                     41286021
 004ADE 5844 0000      00000        6114          L     R4,DX0(R4)                ADDR OF TAMM                   41293021
 004AE2 D201 4004 C150 00004 010E0  6115          MVC   DX4(LX2,R4),HWTWO          SET DISPLACEMENT TO '2'       41300021
 004AE8 5844 0000      00000        6116          L     R4,DX0(R4)                ADDR OF TABLE                  41307021
 004AEC 9235 4000      00000        6117          MVI   DX0(R4),XX35              SET UP                         41314021
 004AF0 9200 4001      00001        6118          MVI   DX1(R4),XX00                3500                         41321021
 004AF4 4140 C6C2      01652        6119        LA    R4,CURCNT                  ADDR OF CURCNT                  41328021
 004AF8 45E0 96F8      04B30        6120        BAL   R14,QLTAME                 -QLTAME (ENTER CURWD+CNT)       41335021
 004AFC 4140 C778      01708        6121 QLRWDB LA    R4,NXTCNT                  ADDR OF NXTCNT                  41342021
 004B00 D51D C278 C779 01208 01709  6122        CLC   CPYQNM,NXTWD               IF COPY CK IF QUALIFIER         41349021
 004B06 4770 96DE      04B16        6123        BNE   QLRWSK                      AN 01 DATANM THAT WAS          41356021
 004B0A D21E C778 C259 01708 011E9  6124          MVC   NXTCNT(LX31),CPQCNT        REPLACED - IF YEA - REPLAC    41363021
 004B10 D21E C79B C259 0172B 011E9  6125          MVC   NXTN(LX31),CPQCNT          QUALIFIER NM .                41370021
 004B16 9104 C797      01727        6126 QLRWSK   TM    NXTSW,XX04                 BLANK FOLLOW END OF Q-NAME    41377021
 004B1A 4780 96EA      04B22        6127          BC    ZERO,*+NX8                YES-*+8                        41384021
 004B1E 9604 C6E1      01671        6128          OI    CURSW,XX04                 NO-MAKE IT NONBLANK           41391021
 004B22 45E0 96F8      04B30        6129        BAL   R14,QLTAME                 -QLTAME (ENTER NXTWD+CNT)       41398021
 004B26 1851                        6130        LR    R5,R1                      SET PTR PAST WORD               41405021
 004B28 9201 D370      003A0        6131          MVI   QLRTSW,XX01               SET QLRTSW TO '1'              41412021
 004B2C 47F0 F052      03B4A        6132        BC    UNCOND,ULSC1                -ULSC1                         41419021
                                    6133 *                                                                       41426021
 004B30 901F D83C      0086C        6134 QLTAME STM   R1,R15,SAVREG              SAVE REGS                       41433021
 004B34 1755                        6135        XR    R5,R5                      CLEAR REG                       41440021
 004B36 4354 0000      00000        6136          IC    R5,DX0(R4)                GET 'N'                        41447021
 004B3A 4105 0001      00001        6137          LA    R0,DX1(R5)                ADJ BY ONE                     41454021
 004B3E 5810 C82C      017BC        6138        L     R1,QLTCON                  CALL                            41461021
 004B42 58F0 C81C      017AC        6139        L     R15,ADSERT                  INSERT                         41468021
 004B46 05EF                        6140        BALR  R14,R15                      QLTABL                        41475021
 004B48 58F0 D874      008A4        6141          L     R15,SAVREG+NX56           RESTORE REG 15                 41482021
1PH1A     IKFCBL10                                                                                              PAGE  128
-  LOC  OBJECT CODE    ADDR1 ADDR2  STMT   SOURCE STATEMENT                                       ASM 0201 11.03 02/14/15
0004B4C 4450 9724      04B5C        6142        EX    R5,QLRMOV                  STORE 'WORD' IN QLTABL          41489021
 004B50 1A25                        6143        AR    R2,R5                      ADJ TABLE ADDR                  41496021
 004B52 4252 0000      00000        6144          STC   R5,DX0(R2)                PUT 'CNT' IN QLTABL            41503021
 004B56 981F D83C      0086C        6145        LM    R1,R15,SAVREG              RESTORE REGS                    41510021
 004B5A 07FE                        6146        BCR   UNCOND,R14                  -RETURN                        41517021
 004B5C D200 2000 4001 00000 00001  6147 QLRMOV   MVC   DX0(LX0,R2),DX1(R4)        EX-MOVE                       41524021
                                    6148 *        EXIT ROUTINE TO END QUALIFIED NAME                             41531021
 004B62 0650                        6149 QLRERR   BCTR  R5,R0               POINTER TO START - 1                 41538021
 004B64 1815                        6150        LR    R1,R5                POINTER TO START - 1                  41545021
 004B66 0650                        6151          BCTR  R5,R0               POINTER TO START - 2                 41552021
                             04B68  6152 QLRCOD EQU   *                                                          41559021
                             04B68  6153 QLRC1D EQU   *                                                          41566021
 004B68 D202 C79A A03E 0172A 02C2E  6154          MVC   NXTCOD(LX3),OFCON         CODE NXTCOD AS 'OF/IN' (NOT    41573021
 004B6E 9200 D370      003A0        6155          MVI   QLRTSW,XX00         RESET QLRTSW                         41580021
 004B72 47F0 9526      0495E        6156        BC    UNCOND,CHKIDD         CHECK ID DIVISION                    41587021
 004B76 9200 D370      003A0        6157 QLREND   MVI   QLRTSW,XX00         RESET QLRTSW                         41594021
 004B7A 47F0 97D8      04C10        6158        BC    UNCOND,EXIT5D         EXIT 5D                              41601021
1PH1A     IKFCBL10                                                                                              PAGE  129
-  LOC  OBJECT CODE    ADDR1 ADDR2  STMT   SOURCE STATEMENT                                       ASM 0201 11.03 02/14/15
0                                   6160 *                                                                       41615021
                                    6161 *   COMMON EXIT ROUTINE                                                 41622021
                                    6162 *                                                                       41629021
                                    6163 *        CALCULATE LENGTH AND MSG BCD-NAME                              41636021
 004B7E 1881                        6164 EXIT   LR    R8,R1                      ENDING ADDR                     41643021
 004B80 47F0 9750      04B88        6165        BC    UNCOND,EXIT1A               -EXIT1A                        41650021
 004B84 5880 DD28      00D58        6166 EXIT1  L     R8,REGWRK                  ENDING ADDR                     41657021
 004B88 1B85                        6167 EXIT1A SR    R8,R5                      COMPUTE SIZE                    41664021
 004B8A 5980 C2B4      01244        6168        C     R8,K30                     OVER 30 CHARACTERS              41671021
 004B8E 47D0 976A      04BA2        6169        BC    NOTHI,EXIT2                 NO-EXIT2                       41678021
 004B92 9523 C79A      0172A        6170          CLI   NXTCOD,XX23               BCD-NAME                       41685021
 004B96 4770 9766      04B9E        6171        BC    NOTEQ,EXIT1B                NO-EXIT1B                      41692021
 004B9A 45E0 DBA0      00BD0        6172        BAL   R14,MSG85                  -MSG85                          41699021
 004B9E 5880 C2B4      01244        6173 EXIT1B L     R8,K30                     MAKE SIZE 30                    41706021
                                    6174 *        SET UP OF NXTCNT AND NXTWD                                     41713021
 004BA2 D71D C779 C779 01709 01709  6175 EXIT2    XC    NXTWD(LX30),NXTWD         CLEAR NXTWD                    41720021
 004BA8 4280 C778      01708        6176        STC   R8,NXTCNT                  STORE SIZE                      41727021
 004BAC 0680                        6177        BCTR  R8,JR                       ADJ SIZE FOR 'EX'              41734021
 004BAE 4130 C779      01709        6178        LA    R3,NXTWD                   ADDR OF NXTWD                   41741021
 004BB2 4480 97F4      04C2C        6179        EX    R8,STUNIT                  STORE WORD                      41748021
                                    6180 *        ENTRY FROM ALPHAMERIC AND QUALIFIED WORD ROUTINES              41755021
                                    6181 *               CHECK POS AFTER UNIT, QUAL ROUTINE AND RESET SWITCH     41762021
 004BB6 D501 C79A AC9B 0172A 0388B  6182 EXIT5    CLC   NXTCOD(LX2),LPREN         LEFT PAREN                     41769021
 004BBC 4770 9798      04BD0        6183        BC    NOTEQ,EXIT5A                NO-EXIT5A                      41776021
 004BC0 9540 1000      00000        6184          CLI   DX0(R1),XX40              POSITION AFTER IS BLANK        41783021
 004BC4 4770 97BE      04BF6        6185        BC    NOTEQ,EXIT5B                NO-EXIT5B                      41790021
 004BC8 45E0 DA74      00AA4        6186        BAL   R14,MSG10                  -MSG10                          41797021
 004BCC 47F0 97BE      04BF6        6187        BC    UNCOND,EXIT5B               -EXIT5B                        41804021
                                    6188 *                                                                       41811021
 004BD0 9540 1000      00000        6189 EXIT5A   CLI   DX0(R1),XX40              POSITION AFTER IS BLANK        41818021
 004BD4 4780 97A4      04BDC        6190        BC    EQ,EXIT51                   YES-EXIT51                     41825021
 004BD8 9604 C797      01727        6191          OI    NXTSW,XX04                SET 'ON' NXTSW FOR NON-BLAN    41832021
                                    6192 *                                                                       41839021
 004BDC D501 C79A AC9E 0172A 0388E  6193 EXIT51   CLC   NXTCOD(LX2),RPREN         RIGHT PATEN                    41846021
 004BE2 4770 97BE      04BF6        6194        BC    NOTEQ,EXIT5B                NO-EXIT5B                      41853021
 004BE6 9104 C6E1      01671        6195          TM    CURSW,XX04                POSITION BEFORE IS BLANK       41860021
 004BEA 4710 97CA      04C02        6196        BC    ONES,EXIT5C                 NO-EXIT5C                      41867021
 004BEE 45E0 DA6C      00A9C        6197        BAL   R14,MSG8                   -MSG8                           41874021
 004BF2 47F0 97CA      04C02        6198        BC    UNCOND,EXIT5C               -EXIT5C                        41881021
                                    6199 *                                                                       41888021
 004BF6 9104 C6E1      01671        6200 EXIT5B   TM    CURSW,XX04                POSITION BEFORE IS BLANK       41895021
 004BFA 4780 97CA      04C02        6201        BC    ZERO,EXIT5C                 YES-EXIT5C                     41902021
 004BFE 45E0 DA68      00A98        6202        BAL   R14,MSG7                   -MSG7                           41909021
                                    6203 *                                                                       41916021
 004C02 D201 D373 C14C 003A3 010DC  6204 EXIT5C   MVC   SIGNSW(LX2),HWZERO        RESET SIGN + DEC SWITCHES      41923021
 004C08 9103 D370      003A0        6205          TM    QLRTSW,XX03               IN QUAL-NAME ROUTINE           41930021
 004C0C 4770 967E      04AB6        6206        BC    NOTZER,QLRWRD               YES-QLRWRD                     41937021
 004C10 9400 D371      003A1        6207 EXIT5D   NI    AMARSW,XX00               RESET AMARSW                   41944021
 004C14 1851                        6208        LR    R5,R1                      SET PTR TO POSITION AFTER U     41951021
                                    6209 *                                                                       41958021
                                    6210 *                                                                       41965021
                             04C16  6211 ULSOUT EQU   *                                                          41972021
 004C16 9110 D359      00389        6212          TM    GTRTSW,XX10               SHOULD GETCD GET CONTROL       41979021
 004C1A 4780 B014      01F2C        6213        BC    ZERO,WRDEXT                NO - EXIT                       41986021
 004C1E 901F C084      01014        6214        STM   R1,R15,GTWDSV              SAVE GETWD REGS                 41993021
1PH1A     IKFCBL10                                                                                              PAGE  130
-  LOC  OBJECT CODE    ADDR1 ADDR2  STMT   SOURCE STATEMENT                                       ASM 0201 11.03 02/14/15
0004C22 981F C0C0      01050        6215        LM    R1,R15,GTCDSV              YES - RESTORE GETCD REGS        42000021
 004C26 94EF D359      00389        6216          NI    GTRTSW,XXEF               SET SW OFF                     42007021
 004C2A 07FE                        6217        BR    JP                         GET CARD RTN                    42014021
                                    6218 *                                                                       42021021
 004C2C D200 3000 5000 00000 00000  6219 STUNIT   MVC   DX0(LX0,R3),DX0(R5)                                      42028021
                                    6220 *                                                                       42035021
1PH1A     IKFCBL10                                                                                              PAGE  131
-  LOC  OBJECT CODE    ADDR1 ADDR2  STMT   SOURCE STATEMENT                                       ASM 0201 11.03 02/14/15
0004C38                             6222 IKF107 CSECT                                                            42049021
                                    6223 *=2          PROCEDURE NAME                                             42056021
                                    6224 *                                                                       42063021
                                    6225 *****    PROCEDURE NAME + QUAL NAME SCAN    *****                       42070021
                             04C38  6226        USING *,JQ                                                       42077021
                             04C38  6227 PRONAQ EQU   *                                                          42084021
 004C38 50E0 D880      008B0        6228 PRONMD ST    JP,SV1F03                  SAVE LINK REG                   42091021
 004C3C 9110 D35A      0038A        6229          TM    PRIDSW,XX10          WAS PROG-ID FOUND                   42098021
 004C40 4710 F010      04C48        6230          BC    ONES,PDSCA          YES                                  42105021
 004C44 9610 D35A      0038A        6231          OI    PRIDSW,XX10          SET SWITCH ON                       42112021
                             04C48  6232 PDSCA    EQU   *                                                        42119021
 004C48 943F D34F      0037F        6233          NI    DSQLSW,XX3F               SET DSQLSW + QLPNSW 'OFF'      42126021
 004C4C D71F D7D4 D7D4 00804 00804  6234          XC    PNBCDQ(LX32),PNBCDQ                                      42133021
 004C52 95A2 C6E4      01674        6235          CLI   CURCOD,XXA2               QUAL BCD NAME                  42140021
 004C56 4780 F06A      04CA2        6236        BC    EQ,PROQLF                   YES-PROQLF                     42147021
 004C5A 9523 C6E4      01674        6237          CLI   CURCOD,XX23               BCD NAME                       42154021
 004C5E 4780 F044      04C7C        6238        BC    EQ,PROGEN                   YES-PROGEN                     42161021
 004C62 9108 C6E1      01671        6239          TM    CURSW,XX08                INT-NUM-LIT                    42168021
 004C66 4770 F03A      04C72        6240        BC    NOTZER,PROCOD              YES - BCD NM CODE               42175021
 004C6A 41EE 0004      00004        6241          LA    JP,DX4(JP)                BUMP RET +4                    42182021
 004C6E 47F0 F054      04C8C        6242        B     PROSK2                     RETURN SET UP                   42189021
 004C72 D21E C6E5 C6C2 01675 01652  6243 PROCOD   MVC   CURN(LX31),CURCNT         MAKE NUM-LIT BCD FORM          42196021
 004C78 9223 C6E4      01674        6244          MVI   CURCOD,XX23               CODE AS BCD-NAME               42203021
 004C7C 45E0 B680      02598        6245 PROGEN BAL   JP,GENA                    -GENA                           42210021
 004C80 47F0 F050      04C88        6246        B     PROGSK                PROGSK                               42217021
 004C84 9818 D944      00974        6247 PROGN2 LM    R1,R8,CPYSAV               RESTORE REGS 1 - 8              42224021
                             04C88  6248 PROGSK EQU   *                                                          42231021
 004C88 58E0 D880      008B0        6249        L     JP,SV1F03                  RESTORE LINK REG                42238021
 004C8C 94FE D354      00384        6250 PROSK2   NI    DDQSW,XXFE                SET OF DD QUAL SW              42245021
 004C90 58F0 D9B8      009E8        6251        L     JQ,SVCALP                                                  42252021
 004C94 50F0 DA18      00A48        6252        ST    JQ,LNKR15                                                  42259021
 004C98 07FE                        6253        BCR   UNCOND,JP                   -RETURN                        42266021
                                    6254 *                                                                       42273021
 004C9A 9018 D944      00974        6255 CQLFAQ STM   R1,R8,CPYSAV               STORE   COPY REGS 1 - 8         42280021
 004C9E 50E0 D880      008B0        6256 QLFNAQ ST    JP,SV1F03                                                  42287021
 004CA2 947F D34F      0037F        6257 PROQLF   NI    DSQLSW,XX7F               SET DSQLSW 'OFF'               42294021
 004CA6 5860 C82C      017BC        6258        L     JF,QLTCON                  ADDR OF TIB                     42301021
 004CAA 5866 0000      00000        6259          L     JF,DX0(JF)                ADDR OF TAMM                   42308021
 004CAE 5856 0000      00000        6260          L     JE,DX0(JF)                ADDR OF TABLE START            42315021
 004CB2 4846 0004      00004        6261          LH    JD,DX4(JF)                SIZE OF TABLE                  42322021
 004CB6 4174 5000      00000        6262          LA    JG,DX0(JD,JE)             ADDR OF TABLE END+1            42329021
 004CBA 9101 D358      00388        6263          TM    REPQSW,XX01               CALLED BY COPY-REPLACING RT    42336021
 004CBE 4780 F092      04CCA        6264        BC    ZERO,QPNBLD                NO - SKIP                       42343021
 004CC2 4194 3000      00000        6265          LA    R9,DX0(JD,R3)            ADDR FOR ENTRY  IN COPY WK A    42350021
 004CC6 5090 D954      00984        6266          ST    R9,CPYSAV+NX16            SAVE END ADDR IN R5            42357021
 004CCA 4150 D7D4      00804        6267 QPNBLD LA    JE,PNBCDQ                  ADDR OF BCD NM IN WK AREA       42364021
 004CCE 4160 D7D3      00803        6268        LA    JF,PNQLCD                  ADDR OF WORK AREA               42371021
 004CD2 1711                        6269        XR    JA,JA                      CLEAR REG                       42378021
 004CD4 1744                        6270        XR    JD,JD                      CLEAR REG                       42385021
 004CD6 1788                        6271        XR    JH,JH                      CLEAR REG                       42392021
 004CD8 0670                        6272        BCTR  JG,JR                       ADJ ADDR TO 'N' BYTE           42399021
 004CDA 4347 0000      00000        6273 QLFGET   IC    JD,DX0(JG)                PUT 'N' IN JD                  42406021
 004CDE 9261 7000      00000        6274          MVI   DX0(JG),XX61              MOVE'/'BETWEEN NAMES FOR       42413021
 004CE2 1B74                        6275        SR    JG,JD                      ADJ ADDR TO START OF NAME       42420021
 004CE4 1A14                        6276        AR    JA,JD                      ADD NAME LENGTH FOR             42427021
1PH1A     IKFCBL10                                                                                              PAGE  132
-  LOC  OBJECT CODE    ADDR1 ADDR2  STMT   SOURCE STATEMENT                                       ASM 0201 11.03 02/14/15
0004CE6 9101 D358      00388        6277          TM    REPQSW,XX01               CALLED BY COPY-REPLACING RT    42434021
 004CEA 4780 F0B8      04CF0        6278        BC    ZERO,QNBCTR                NO - SKIP                       42441021
 004CEE 1B94                        6279        SR    R9,JD                      ADDR OF ENTRY IN COPY WK AR     42448021
 004CF0 0670                        6280 QNBCTR BCTR  JG,JR                      ADJ ADDR TO 'N' BYTE            42455021
 004CF2 9500 7000      00000        6281          CLI   DX0(JG),XX00              END OF QUAL NAMES              42462021
 004CF6 4780 F102      04D3A        6282        BC    EQ,QLTEND                   YES-QLTEND                     42469021
 004CFA 4111 0001      00001        6283          LA    JA,DX1(JA)                ADD ONE FOR 'N' BYTE           42476021
 004CFE 4245 0000      00000        6284          STC   JD,DX0(JE)                PUT 'N' IN OUTPUT AREA         42483021
 004D02 0640                        6285        BCTR  JD,JR                       ADJ SIZE FOR 'EX'              42490021
                                    6286 *                                                                       42497021
                                    6287 ***        THE FOLLOWING CODE MOVES  THE CONTENTS OF QLTAB TO           42504021
                                    6288 ****        AN AREA WITHIN PH 1 .  AFTER MOVE WDS APPEAR IN       *     42511021
                                    6289 *****            WORK AREA AS THEY WOULD ON SOURCE CARD.          *     42518021
                                    6290 *                                                                       42525021
 004D04 9101 D358      00388        6291          TM    REPQSW,XX01               REPLACING OPTION ?             42532021
 004D08 4780 F0E6      04D1E        6292        BC    ZERO,QNORML                NORMAL QUALIFIER                42539021
 004D0C 4440 F0F6      04D2E        6293        EX    JD,QLPMV2                                                  42546021
 004D10 4B90 C154      010E4        6294        SH    R9,HWFOUR                  ADDR OF INCON MOVE              42553021
 004D14 D203 9000 C1A0 00000 01130  6295          MVC   DX0(LX4,R9),CINCON         MOVE ' IN '                   42560021
 004D1A 47F0 F0A2      04CDA        6296        B     QLFGET                     LOOP AGAIN                      42567021
                                    6297 *                                                                       42574021
 004D1E 4440 F0FC      04D34        6298 QNORML EX    JD,QLPMOV                 BCD NM TO OUTPUT AREA            42581021
 004D22 4188 0001      00001        6299          LA    JH,DX1(JH)                COUNT NUMBER OF QUAL NAMES     42588021
 004D26 45E0 B684      0259C        6300        BAL   JP,GENB                    -GENB                           42595021
 004D2A 47F0 F0A2      04CDA        6301        BC    UNCOND,QLFGET               -QLFGET                        42602021
                                    6302 *                                                                       42609021
 004D2E D200 9000 7001 00000 00001  6303 QLPMV2   MVC   DX0(LX0,R9),DX1(JG)        MOVE TO WORK AREA             42616021
                                    6304 *                                                                       42623021
 004D34 D200 5001 7001 00001 00001  6305 QLPMOV   MVC   DX1(LX0,JE),DX1(JG)        'EX' MOVE                     42630021
                                    6306 *                                                                       42637021
 004D3A 9101 D358      00388        6307 QLTEND   TM    REPQSW,XX01               REPLACING                      42644021
 004D3E 4780 F114      04D4C        6308        BC    ZERO,QLTEN2                NO                              42651021
 004D42 0640                        6309        BCTR  JD,JR                      REDUCE FOR EX                   42658021
 004D44 4440 F0F6      04D2E        6310        EX    JD,QLPMV2                                                  42665021
 004D48 47F0 F04C      04C84        6311        B     PROGN2                PROGN2                               42672021
 004D4C 4980 C14E      010DE        6312 QLTEN2 CH    JH,HWONE                   MORE THAN ONE QUAL NM           42679021
 004D50 4780 F120      04D58        6313        BC    EQ,PROQSW                   NO-PROQSW                      42686021
 004D54 9680 D34F      0037F        6314          OI    DSQLSW,XX80               SET DSQLSW 'ON'                42693021
 004D58 9640 D34F      0037F        6315 PROQSW   OI    QLPNSW,XX40               SET QLPNSW 'ON'                42700021
 004D5C 47F0 F03A      04C72        6316        BC    UNCOND,PROCOD               -PROCOD                        42707021
                                    6317        DROP  JQ                                                         42714021
1PH1A     IKFCBL10                                                                                              PAGE  133
-  LOC  OBJECT CODE    ADDR1 ADDR2  STMT   SOURCE STATEMENT                                       ASM 0201 11.03 02/14/15
0004D60                             6319 IKF108 CSECT                                                            42728021
                                    6320 *=1    DATA DIVISION SCAN                                               42735021
                             04D60  6321        USING DDSCN,JQ                                                   42742021
                             05EA0  6322        USING RDSCAN,JJ                                                  42749021
                             06BB0  6323        USING FLUSH,JH                                                   42756021
                                    6324 *                                                                       42763021
                                    6325 **************************************                                  42770021
                                    6326 ******    DATA DIVISION SCAN    ******                                  42777021
                                    6327 **************************************                                  42784021
 004D60 950E D375      003A5        6328 DDSCN  CLI   DIVCOD,XX0E               LAST WAS ENV DIV.                42791021
 004D64 4780 F00C      04D6C        6329        BC    EQ,WASENV                 YES-WASENV                       42798021
 004D68 45E0 DC4C      00C7C        6330        BAL   JP,MSG128                 MESSAGE FOR MISSING ENV          42805021
 004D6C 9206 D375      003A5        6331 WASENV MVI   DIVCOD,XX06               SET DIVCOD TO '06'               42812021
 004D70 9110 D35A      0038A        6332          TM    PRIDSW,XX10          WAS PROG-ID FOUND                   42819021
 004D74 4710 F01C      04D7C        6333          BC    ONES,DDSCA          YES                                  42826021
 004D78 9610 D35A      0038A        6334          OI    PRIDSW,XX10          SET SWITCH ON                       42833021
                             04D7C  6335 DDSCA    EQU   *                                                        42840021
 004D7C 45E0 B03A      01F52        6336        BAL   JP,CHKDIV                  -CHKDIV                         42847021
 004D80 45E0 B1C4      020DC        6337        BAL   JP,GENER1                  -GENER1                         42854021
 004D84 4201                        6338 DADHDR DC    X'4201'                                                    42861021
 004D86 45E0 ACB4      038A4        6339        BAL   JP,GETDLM                  GETDLM                          42868021
 004D8A 9543 C6E4      01674        6340          CLI   CURCOD,XX43             * LEVEL NUMBER                   42875021
 004D8E 4770 F068      04DC8        6341        BC    NOTEQ,DDSFSH               NO                              42882021
 004D92 9534 C6E5      01675        6342 DDSE     CLI   CURN,XX34                 LEVEL RD                       42889021
 004D96 4720 F04C      04DAC        6343        BC    HI,DSFSCT                  HIGH                            42896021
 004D9A 4780 F05A      04DBA        6344        BC    EQ,DSRSCT                  EQUAL                           42903021
 004D9E D20F D397 C64B 003C7 015DB  6345          MVC   SECTNM(LX16),WKST15       PUT 15WORKINGSTORAGE IN SEC    42910021
 004DA4 45E0 DA54      00A84        6346        BAL   JP,MSG2                    MSG2                            42917021
 004DA8 47F0 F146      04EA6        6347        BC    UNCOND,DDSW2          DDSW2                                42924021
 004DAC D204 D397 C60B 003C7 0159B  6348 DSFSCT   MVC   SECTNM(LX5),FILE4         PUT 4FILE IN SECTNM            42931021
 004DB2 45E0 DA54      00A84        6349        BAL   JP,MSG2                    MSG2                            42938021
 004DB6 47F0 F076      04DD6        6350        BC    UNCOND,DDSF2          DDSF2                                42945021
 004DBA D206 D397 C636 003C7 015C6  6351 DSRSCT   MVC   SECTNM(LX7),REPRT6        PUT 6REPORT IN SECTNM          42952021
 004DC0 45E0 DA54      00A84        6352        BAL   JP,MSG2                    MSG2                            42959021
 004DC4 47F0 F1E4      04F44        6353        BC    UNCOND,DDSR2          DDSR2                                42966021
 004DC8 D501 C6E4 F07A 01674 04DDA  6354 DDSFSH   CLC   CURCOD(LX2),FLSHDR      * FILE SECTION HEADER            42973021
 004DCE 4770 F138      04E98        6355        BC    NOTEQ,DDSWSH               NO                              42980021
 004DD2 45E0 B066      01F7E        6356        BAL   JP,CHKSCT                  CHKSCT                          42987021
 004DD6 45E0 B1C4      020DC        6357 DDSF2  BAL   JP,GENER1                  GENERATE FILE SECY HEADER       42994021
 004DDA 4202                        6358 FLSHDR DC    X'4202'                                                    43001021
 004DDC 45E0 ACB4      038A4        6359 DSGET1 BAL   JP,GETDLM                  GETDLM                          43008021
 004DE0 9543 C6E4      01674        6360 DDSLEV   CLI   CURCOD,XX43               LEVEL NUMBER                   43015021
 004DE4 4780 F0B2      04E12        6361        BC    EQ,DDSL35                  YES                             43022021
 004DE8 D501 C6E4 F14A 01674 04EAA  6362          CLC   CURCOD(LX2),WSSHDR        W/S HEADER                     43029021
 004DEE 4780 F142      04EA2        6363        BC    EQ,DDWSCT                   YES-DDWSCT                     43036021
 004DF2 D501 C6E4 F1D0 01674 04F30  6364          CLC   CURCOD(LX2),LNKHDR        LINK HEADER                    43043021
 004DF8 4780 F1C4      04F24        6365        BC    EQ,DDLSCT                   YES-DDLSCT                     43050021
 004DFC D501 C6E4 F1E8 01674 04F48  6366          CLC   CURCOD(LX2),RPTHDR        REPORT HEADER                  43057021
 004E02 4780 F1E0      04F40        6367        BC    EQ,DDSRPH                   YES-DDSRPH                     43064021
 004E06 45E0 DAF0      00B20        6368        BAL   JP,MSG41                   -MSG41                          43071021
 004E0A 45E0 ACDE      038CE        6369        BAL   JP,SKIPGT                  -SKIPGT                         43078021
 004E0E 47F0 F080      04DE0        6370        BC    UNCOND,DDSLEV               -DSGT1A                        43085021
 004E12 94FB D352      00382        6371 DDSL35   NI    FD01SW,XXFB               SET 'OFF' FD01SW               43092021
 004E16 9535 C6E5      01675        6372          CLI   CURN,XX35                 LEVEL SA                       43099021
 004E1A 4770 F0C6      04E26        6373        BC    NOTEQ,DDSL36               NO                              43106021
1PH1A     IKFCBL10                                                                                              PAGE  134
-  LOC  OBJECT CODE    ADDR1 ADDR2  STMT   SOURCE STATEMENT                                       ASM 0201 11.03 02/14/15
0004E1E 45E0 CE7E      01E0E        6374        BAL   JP,SASCN                   -SASCN                          43113021
 004E22 47F0 F0EE      04E4E        6375        BC    UNCOND,DSEST1         DSEST1                               43120021
 004E26 9536 C6E5      01675        6376 DDSL36   CLI   CURN,XX36                 LEVEL SD                       43127021
 004E2A 4770 F0D6      04E36        6377        BC    NOTEQ,DDSL37               NO                              43134021
 004E2E 45E0 CE7E      01E0E        6378        BAL   JP,SDSCN                   -SDSCN                          43141021
 004E32 47F0 F0EE      04E4E        6379        BC    UNCOND,DSEST1         DSEST1                               43148021
 004E36 9538 C6E5      01675        6380 DDSL37   CLI   CURN,XX38                 LEVEL FD                       43155021
 004E3A 4770 F0E6      04E46        6381        BC    NOTEQ,DSMG40               NO                              43162021
 004E3E 45E0 FEFC      05C5C        6382        BAL   JP,FDSCN                   -FDSCN                          43169021
 004E42 47F0 F0EE      04E4E        6383        BC    UNCOND,DSEST1         DSEST1                               43176021
 004E46 45E0 DAEC      00B1C        6384 DSMG40 BAL   JP,MSG40                   MSG40                           43183021
 004E4A 47F0 F032      04D92        6385        BC    UNCOND,DDSE           DDSE                                 43190021
 004E4E 45E0 B0B4      01FCC        6386 DSEST1 BAL   JP,EOSTST                  EOSTST                          43197021
 004E52 45E0 ACB4      038A4        6387 DSGET2 BAL   JP,GETDLM                  GETDLM                          43204021
 004E56 9543 C6E4      01674        6388          CLI   CURCOD,XX43               LEVEL NUMBER                   43211021
 004E5A 4780 F114      04E74        6389        BC    EQ,DDSL32                  YES                             43218021
 004E5E D501 C6E4 F07A 01674 04DDA  6390          CLC   CURCOD(LX2),FLSHDR        FILE SECT HEADER               43225021
 004E64 4770 F138      04E98        6391        BC    NOTEQ,DDSWSH               NO                              43232021
 004E68 45E0 DAF0      00B20        6392        BAL   JP,MSG41                   MSG41                           43239021
 004E6C 45E0 ACDE      038CE        6393        BAL   JP,SKIPGT                  -SKIPGT                         43246021
 004E70 47F0 F0F2      04E52        6394        BC    UNCOND,DSGET2         DSGET2                               43253021
 004E74 9532 C6E5      01675        6395 DDSL32   CLI   CURN,XX32                 LEVEL 77                       43260021
 004E78 47B0 F124      04E84        6396        BC    NOTLO,DDSL33               NOT LOW                         43267021
 004E7C 45E0 F1F4      04F54        6397 DDSFLV BAL   JP,FLVSCN                  -FLVSCN                         43274021
 004E80 47F0 F0EE      04E4E        6398        BC    UNCOND,DSEST1         DSEST1                               43281021
 004E84 9533 C6E5      01675        6399 DDSL33   CLI   CURN,XX33                 LEVEL 88                       43288021
 004E88 4780 F11C      04E7C        6400        BE    DDSFLV                     YES - RECORD LEVEL SCN          43295021
 004E8C 9539 C6E5      01675        6401          CLI   CURN,XX39                 LEVEL 66                       43302021
 004E90 4770 F0B2      04E12        6402        BNE   DDSL35                     NO                              43309021
 004E94 47F0 F11C      04E7C        6403        BC    UNCOND,DDSFLV         DDSFLV                               43316021
 004E98 D501 C6E4 F14A 01674 04EAA  6404 DDSWSH   CLC   CURCOD(LX2),WSSHDR      * WORKING STORAGE HEADER         43323021
 004E9E 4770 F1BA      04F1A        6405        BC    NOTEQ,DDSL                 NO                              43330021
 004EA2 45E0 B066      01F7E        6406 DDWSCT BAL   JP,CHKSCT                  -CHKSCT                         43337021
 004EA6 45E0 B1C4      020DC        6407 DDSW2  BAL   JP,GENER1                  GENERATE WS HEADER              43344021
 004EAA 4203                        6408 WSSHDR DC    X'4203'               HEADER FOR WORKING STORAGE           43351021
 004EAC 45E0 ACB4      038A4        6409 DSGET3 BAL   JP,GETDLM                  GETDLM                          43358021
 004EB0 9543 C6E4      01674        6410 DSGT3A   CLI   CURCOD,XX43               LEVEL NUMBER                   43365021
 004EB4 4770 F18C      04EEC        6411        BC    NOTEQ,DDSFWS               NO                              43372021
 004EB8 9534 C6E5      01675        6412          CLI   CURN,XX34                 LEVEL RD                       43379021
 004EBC 4740 F180      04EE0        6413        BC    LO,DDSWLV                  LOW                             43386021
 004EC0 4780 F032      04D92        6414        BC    EQ,DDSE                    EQUAL                           43393021
 004EC4 9539 C6E5      01675        6415          CLI   CURN,XX39                 LEVEL 66 ?                     43400021
 004EC8 4780 F180      04EE0        6416        BE    DDSWLV                     YES - RECORD LEVEL SCAN         43407021
 004ECC 9539 C6E5      01675        6417          CLI   CURN,XX39                 LEVEL 66                       43414021
 004ED0 4780 F180      04EE0        6418        BE    DDSWLV                     YES - RECORD-LEVEL SCAN         43421021
 004ED4 45E0 DAF0      00B20        6419        BAL   JP,MSG41                   -MSG41                          43428021
 004ED8 45E0 ACDE      038CE        6420 DSSKP1 BAL   JP,SKIPGT                  -SKIPGT                         43435021
 004EDC 47F0 F150      04EB0        6421        BC    UNCOND,DSGT3A               -DSGT3A                        43442021
 004EE0 45E0 F1F4      04F54        6422 DDSWLV BAL   JP,WLVSCN                  WLVSCN                          43449021
 004EE4 45E0 B0B4      01FCC        6423        BAL   JP,EOSTST                  EOSTST                          43456021
 004EE8 47F0 F14C      04EAC        6424        BC    UNCOND,DSGET3         DSGET3                               43463021
 004EEC D501 C6E4 F07A 01674 04DDA  6425 DDSFWS   CLC   CURCOD(LX2),FLSHDR        FILE SECT HEADER               43470021
 004EF2 4780 F1B2      04F12        6426        BC    EQ,DSM41B                   YES-DSM41B                     43477021
 004EF6 D501 C6E4 F1E8 01674 04F48  6427          CLC   CURCOD(LX2),RPTHDR        REPORT HEADER                  43484021
 004EFC 4780 F1E0      04F40        6428        BC    EQ,DDSRPH                   YES-DDSRPH                     43491021
1PH1A     IKFCBL10                                                                                              PAGE  135
-  LOC  OBJECT CODE    ADDR1 ADDR2  STMT   SOURCE STATEMENT                                       ASM 0201 11.03 02/14/15
0004F00 9110 D34C      0037C        6429          TM    LINKSW,XX10               LINKSW 'ON'                    43498021
 004F04 4710 F1B2      04F12        6430        BC    ONES,DSM41B                 YES-DSM41B                     43505021
 004F08 D501 C6E4 F1D0 01674 04F30  6431          CLC   CURCOD(LX2),LNKHDR        LINK HEADER                    43512021
 004F0E 4780 F1C4      04F24        6432        BC    EQ,DDLSCT                   YES-DDLSCT                     43519021
 004F12 45E0 DAF0      00B20        6433 DSM41B BAL   JP,MSG41                   -MSG41                          43526021
 004F16 47F0 F178      04ED8        6434        BC    UNCOND,DSSKP1         DSSKP1                               43533021
 004F1A D501 C6E4 F1D0 01674 04F30  6435 DDSL     CLC   CURCOD(LX2),LNKHDR        LINK HEADER                    43540021
 004F20 4770 F1D6      04F36        6436        BC    NOTEQ,DDRSCT                NO-DDESCT                      43547021
 004F24 45E0 B066      01F7E        6437 DDLSCT BAL   JP,CHKSCT                  -CHKSCT                         43554021
 004F28 9610 D34C      0037C        6438          OI    LINKSW,XX10               SET 'ON' LINKSW                43561021
 004F2C 45E0 B1C4      020DC        6439        BAL   JP,GENER1                  GENERATE LINK HEADER            43568021
 004F30 4204                        6440 LNKHDR DC    X'4204'               HEADER FOR LINK                      43575021
 004F32 47F0 F14C      04EAC        6441        BC    UNCOND,DSGET3         DSGET3                               43582021
 004F36 D501 C6E4 F1E8 01674 04F48  6442 DDRSCT   CLC   CURCOD(LX2),RPTHDR        REPORT HEADER                  43589021
 004F3C 4770 B3FC      02314        6443        BC    NOTEQ,DDERRM                NO-DDERRM                      43596021
 004F40 45E0 B066      01F7E        6444 DDSRPH BAL   JP,CHKSCT                  CHKSCT                          43603021
 004F44 45E0 B1C4      020DC        6445 DDSR2  BAL   JP,GENER1                  GENERATE REPORT HEADER          43610021
 004F48 4205                        6446 RPTHDR DC    X'4205'               HEADER FOR REPORT                    43617021
 004F4A D202 A4E7 A686 030D7 03276  6447          MVC   REPTCD(LX3),REPTCN        SET REPORT CODE TO 54D6        43624021
 004F50 47F0 9000      05EA0        6448        BC    UNCOND,RDSCAN              GO TO REPORT WRITER CODING      43631021
                                    6449 *DEL                                                                    43638021
                                    6450 *DEL                                                                    43645021
                                    6451 *DEL                                                                    43652021
1PH1A     IKFCBL10                                                                                              PAGE  136
-  LOC  OBJECT CODE    ADDR1 ADDR2  STMT   SOURCE STATEMENT                                       ASM 0201 11.03 02/14/15
0                                   6453 *=2          RECORD LEVEL SCAN                                          43666021
                                    6454 *                                                                       43673021
                                    6455 ******    RECORD-LEVEL SCAN    ******                                   43680021
                                    6456 *                                                                       43687021
                             04F54  6457 FLVSCN EQU   *                                                          43694021
                             04F54  6458 RLVSCN EQU   *                                                          43701021
                             04F54  6459 WLVSCN EQU   *                                                          43708021
                                    6460 *                                                                       43715021
 004F54 50E0 D878      008A8        6461 RCDSCN ST    JP,SV1F01                  SAVE LINK REG                   43722021
 004F58 45E0 B6A8      025C0        6462        BAL   JP,RSTLD                   -RSTLD  (RESTORE LD-TEXT)       43729021
 004F5C 5810 C814      017A4        6463        L       JA,COSADR                                                43736021
 004F60 FA33 118C D5FE 0018C 0062E  6464          AP    DATE-COS(LX4,JA),INCRONE DN COUNT +1 FOR FD,SD,RD        43743021
 004F66 D200 D423 C6E5 00453 01675  6465          MVC   LDLEV(LX1),CURN           LEVEL-NUM                      43750021
 004F6C 94FE D352      00382        6466          NI    REDFSW,XXFE               SET 'OFF' REDFSW               43757021
 004F70 45E0 B000      01F18        6467        BAL   JP,GETWD                   GETWD                           43764021
 004F74 9102 D358      00388        6468          TM    CPYQSW,XX02               COPY IN 01 ?                   43771021
 004F78 4780 F22A      04F8A        6469        BC    ZERO,RCD1                  NO - DON'T SAVE                 43778021
 004F7C D21D C278 C6C3 01208 01653  6470        MVC   CPYQNM,CURWD               SAVE O1 COPY DATANM             43785021
 004F82 9604 D359      00389        6471          OI    CRCDSW,XX04               DO NOT ENTER IN RCDTBL         43792021
 004F86 94FD D358      00388        6472          NI    CPYQSW,XXFD               SET SW OFF                     43799021
 004F8A 9523 C6E4      01674        6473 RCD1     CLI   CURCOD,XX23               UNQUAL BCD NAME                43806021
 004F8E 4780 F23E      04F9E        6474        BE    RLDMV                      YES - NAME TO LD                43813021
 004F92 9539 D423      00453        6475          CLI   LDLEV,XX39                LEVEL 66 ITEM                  43820021
 004F96 4780 F292      04FF2        6476        BE    RM38                       NO - ERROR                      43827021
 004F9A 47F0 F282      04FE2        6477        B     RFILL                 IS CUR A COBOL WORD?                 43834021
 004F9E D21E D42D C6E5 0045D 01675  6478 RLDMV    MVC   LD(LX31),CURN             TO D FIELD                     43841021
 004FA4 9504 D397      003C7        6479          CLI   SECTNM,XX04               IN FILE SECTION                43848021
 004FA8 4770 F2B0      05010        6480        BC    NOTEQ,RAENT                 NO-RAENT                       43855021
 004FAC 9104 D352      00382        6481          TM    FD01SW,XX04               FD01SW 'ON'   (FOLLOWING A     43862021
 004FB0 4780 F27A      04FDA        6482          BC    ZERO,RCDOFF         NO - RETURN                     9025 43869021
 004FB4 9501 D423      00453        6483          CLI   LDLEV,XX01                IS IT '01' LEVEL               43876021
 004FB8 4770 F2B0      05010        6484        BC    NOTEQ,RAENT                 NO-RAENT                       43883021
 004FBC D21E D765 C6E5 00795 01675  6485          MVC   RNWA+NX2(LX31),CURN        SIZE AND WORD TO RNWA         43890021
 004FC2 4140 0022      00022        6486          LA    JD,DX34(JR)                GET SIZE OF RNWA              43897021
 004FC6 5820 C87C      0180C        6487        L     JB,RCDCON                  ADDR OF TIB 'RCDTBL'            43904021
 004FCA 4170 D763      00793        6488        LA    JG,RNWA                    ADDR OF RNWA                    43911021
 004FCE 9104 D359      00389        6489          TM    CRCDSW,XX04               IS NOT ENTER SW ON             43918021
 004FD2 4770 F27A      04FDA        6490        BC    NOTZER,RCDOFF              YES - DO NOT ENTER              43925021
 004FD6 45E0 B464      0237C        6491        BAL   JP,MVSERT                  CALL INSERT TO RCDTBL           43932021
 004FDA 94FB D359      00389        6492 RCDOFF   NI    CRCDSW,XXFB               SET SW OFF                     43939021
 004FDE 47F0 F2B0      05010        6493        BC    UNCOND,RAENT                -RAENT                         43946021
 004FE2 9554 C6E4      01674        6494 RFILL    CLI   CURCOD,XX54               SP COBOL WORD                  43953021
 004FE6 4770 F292      04FF2        6495        BC    NOTEQ,RM38                 NO                              43960021
 004FEA 95AF C6E5      01675        6496          CLI   CURN,XXAF                 FILLER                         43967021
 004FEE 4780 F29E      04FFE        6497        BC    EQ,RDZIP                   YES                             43974021
 004FF2 45E0 DAE4      00B14        6498 RM38   BAL   JP,MSG38                   MSG 38                          43981021
 004FF6 45E0 ACD2      038C2        6499        BAL   JP,SKIP                    SKIP                            43988021
 004FFA 47F0 FA7C      057DC        6500        BC    UNCOND,RCDEOJ         IN REPORT SECTION?                   43995021
 004FFE D21E D42D C6C2 0045D 01652  6501 RDZIP    MVC   LD(LX31),CURCNT           FILLER TO D FIELD              44002021
 005004 47F0 F2B0      05010        6502        BC    UNCOND,RAENT          IN REPORT SECTION?                   44009021
 005008 45E0 DA8C      00ABC        6503 RCENT  BAL   JP,MSG16                   MSG 16                          44016021
 00500C 9620 D368      00398        6504          OI    DUP2SW,XX20               SET 'ON' DUP2SW                44023021
 005010 94FB D359      00389        6505 RAENT    NI    CRCDSW,XXFB         SET SW OFF                           44030021
 005014 9101 D34F      0037F        6506          TM    RPTWSW,XX01         IN REPORT SECTION                    44037021
 005018 4780 F2C2      05022        6507        BC    ZERO,RAENT1                 NO-RAENT1                      44044021
1PH1A     IKFCBL10                                                                                              PAGE  137
-  LOC  OBJECT CODE    ADDR1 ADDR2  STMT   SOURCE STATEMENT                                       ASM 0201 11.03 02/14/15
000501C 58E0 D8AC      008DC        6508        L     JP,JPSAVE                  RESTORE LINK REG                44051021
 005020 07FE                        6509        BCR   UNCOND,JP                   -RETURN                        44058021
 005022 9101 D352      00382        6510 RAENT1   TM    REDFSW,XX01               REDFSW 'ON'                    44065021
 005026 4710 F304      05064        6511        BC    ONES,RAENT3                 YES-RAENT3                     44072021
 00502A 9501 D423      00453        6512          CLI   LDLEV,XX01                LEVEL IS '01'                  44079021
 00502E 4780 F2DA      0503A        6513        BC    EQ,RAENT2                   YES-RAENT2                     44086021
 005032 9532 D423      00453        6514          CLI   LDLEV,XX32                LEVEL IS '77'                  44093021
 005036 4770 F304      05064        6515        BC    NOTEQ,RAENT3                NO-RAENT3                      44100021
 00503A 45E0 B286      0219E        6516 RAENT2 BAL   JP,CPYNXT                  -CPYNXT                         44107021
 00503E 9101 D350      00380        6517          TM    CPYXSW,XX01               COPY IN '01-77'                44114021
 005042 4780 F304      05064        6518        BC    ZERO,RAENT3                 NO-RAENT3                      44121021
 005046 9104 D358      00388        6519          TM    CPERSW,XX04               WAS MEMBER FND IN LIBRARY      44128021
 00504A 4770 F2FC      0505C        6520        BC    NOTZER,RAEN2B              NO - DON'T SET COPY BIT ON      44135021
 00504E 9610 D427      00457        6521          OI    LOD1,XX10                 SET 'ON' COPY BIT              44142021
 005052 D201 C6E4 C58D 01674 0151D  6522 RAEN2A   MVC   CURCOD(LX2),EOSCON        SET UP PERIOD IN CURCELL       44149021
 005058 47F0 F320      05080        6523        B     RTABWT                RTABWT                               44156021
 00505C 94FB D358      00388        6524 RAEN2B   NI    CPERSW,XXFB               SET OFF CPY ERROR SW           44163021
 005060 47F0 F2F2      05052        6525        B     RAEN2A                     SET UP PERIOD                   44170021
 005064 45E0 B000      01F18        6526 RAENT3 BAL   JP,GETWD                   -GETWD                          44177021
 005068 94FB D358      00388        6527          NI    CPERSW,XXFB               SET OFF NO-MEMBER SW           44184021
 00506C 9554 C6E4      01674        6528 RA1ENT   CLI   CURCOD,XX54               COBOL WORD                     44191021
 005070 4780 F3C8      05128        6529        BC    EQ,RREDEF                  YES                             44198021
 005074 45E0 CE70      01E00        6530 RA2ENT BAL   JP,LEVENC                  ENCODE AS LEVEL #               44205021
 005078 9130 C6E4      01674        6531          TM    CURCOD,XX30               MAJOR IS 0                     44212021
 00507C 4770 F3BC      0511C        6532        BC    NOTZER,REENT               NO                              44219021
 005080 45E0 F9FE      0575E        6533 RTABWT BAL   JP,RDUCE                   CONTROL RETURNS IF RMULSW O     44226021
                                    6534 ***    IF KEYS OR INDEXED TABLES ARE BUILT RMULTSW IS SET ON AND        44233021
                                    6535 ***          REDUCE  RETURNS CONTROL SO THAT LOGICAL RECORDS            44240021
                                    6536 ***              MAY BE WRITTEN FOR KEYS AND INDEXES                    44247021
                                    6537 *                                                                       44254021
 005084 1B55                        6538        SR    R5,R5                     CLEAR COUNT REG                  44261021
 005086 9500 D42B      0045B        6539          CLI   LNIND,XX00                INDEX IN LD WK = 0 ?           44268021
 00508A 4780 F36C      050CC        6540        BE    RKEYCT                     YES - WRITE KEYS                44275021
 00508E 5830 C89C      0182C        6541        L     R3,INDCON                  TIB ADDR IN REG FOR INDEX T     44282021
 005092 4350 D42B      0045B        6542        IC    R5,LNIND                   NO. OF INDEXES                  44289021
                                    6543 *                                                                       44296021
 005096 5833 0000      00000        6544 RRTELM   L     R3,DX0(R3)                TAMM ADDR                      44303021
 00509A 5823 0000      00000        6545          L     R2,DX0(R3)          START OF TABLE                  4197 44310021
 00509E 4122 0000      00000        6546          LA    R2,DX0(R2)          ZERO OUT HIORDER BYTE           4197 44317021
 0050A2 45E0 FA60      057C0        6547 RTELEM BAL   JP,WRTMUL                  WRITE TABLE ELEMENT ON FILE     44324021
 0050A6 4362 0001      00001        6548          IC    R6,DX1(R2)               SIZE OF ELEMENT LESS 1          44331021
 0050AA 4126 2002      00002        6549          LA    R2,DX2(R6,R2)             NEXT ELEMENT IN TABLE          44338021
 0050AE 4650 F342      050A2        6550        BCT   R5,RTELEM                  WRITE                           44345021
 0050B2 D201 3005 C14C 00005 010DC  6551          MVC   DX5(LX2,R3),HWZERO        MOVE FOR ZERO TAB DISPLACE     44352021
 0050B8 9500 D42B      0045B        6552          CLI   LNIND,XX00                INDEX IN LD WK = 0             44359021
 0050BC 4780 F7D2      05532        6553        BE    RRETDD                     RETURN TO CALLING               44366021
 0050C0 9500 D42C      0045C        6554          CLI   LNKEY,XX00               KEY COUNT = 0                   44373021
 0050C4 4780 F7D2      05532        6555        BE    RRETDD                    YES RETURN TO CALLING            44380021
 0050C8 9200 D42B      0045B        6556          MVI   LNIND,XX00                0 INDEX CNT FLD IN LD WK       44387021
                                    6557 *                                                                       44394021
 0050CC 5830 C894      01824        6558 RKEYCT L     R3,KYCON                   TIB ADDR FOR KEY TABLE          44401021
 0050D0 4350 D42C      0045C        6559        IC    R5,LNKEY                   NO. OF KEYS                     44408021
 0050D4 47F0 F336      05096        6560        B     RRTELM                     WRITE TABLE BY ELEMENT          44415021
                                    6561 *                                                                       44422021
                                    6562 *                                                                       44429021
1PH1A     IKFCBL10                                                                                              PAGE  138
-  LOC  OBJECT CODE    ADDR1 ADDR2  STMT   SOURCE STATEMENT                                       ASM 0201 11.03 02/14/15
00050D8 94FD D354      00384        6563 RBENT1   NI    RMULSW,XXFD               SET MULT SW OFF                44436021
 0050DC 45E0 DA90      00AC0        6564 RBENT  BAL   JP,MSG17                   MSG 17                          44443021
 0050E0 9620 D368      00398        6565          OI    DUP2SW,XX20               SET 'ON' DUP2SW                44450021
 0050E4 9101 D34F      0037F        6566          TM    RPTWSW,XX01               IN REPORT SECTION              44457021
 0050E8 4780 F392      050F2        6567        BC    ZERO,RDENT                  NO-RDENT                       44464021
 0050EC 58E0 D8AC      008DC        6568        L     JP,JPSAVE                  RESTORE LINK REG                44471021
 0050F0 07FE                        6569        BCR   UNCOND,JP                   -RETURN                        44478021
 0050F2 9554 C6E4      01674        6570 RDENT    CLI   CURCOD,XX54               SP COBOL WORD                  44485021
 0050F6 4780 F3C8      05128        6571        BC    EQ,RREDEF                  YES                             44492021
 0050FA 45E0 CE70      01E00        6572        BAL   JP,LEVENC                  CHECK FOR LEVEL NUMBER          44499021
 0050FE 9130 C6E4      01674        6573          TM    CURCOD,XX30               MAJOR IS 0                     44506021
 005102 4770 F3C0      05120        6574        BC    NOTZER,RGETA               NO                              44513021
 005106 9102 D354      00384        6575 RDENT2 TM    RMULSW,XX02               MULTIPLE VALUE              7869 44520021
 00510A 4780 FA02      05762        6576        BC    ZERO,REDUCE               NO - REDUCE                      44527021
 00510E D501 D42B C14C 0045B 010DC  6577          CLC   LNIND(LX2),HWZERO        KEY OR INDEX IN TABLE           44534021
 005114 4770 F320      05080        6578        BNE   RTABWT                    PUT OUT LD & LOGICAL RECORDS     44541021
 005118 47F0 F7D2      05532        6579        B     RRETDD                    RETURN TO CALLING                44548021
 00511C 45E0 DAE0      00B10        6580 REENT  BAL   JP,MSG37                   MSG 37                          44555021
 005120 45E0 B000      01F18        6581 RGETA  BAL   JP,GETWD                   GETWD                           44562021
 005124 47F0 F392      050F2        6582        BC    UNCOND,RDENT          IS CUR A COBOL WORD?                 44569021
 005128 95D7 C6E5      01675        6583 RREDEF   CLI   CURN,XXD7               * REDEFINES                      44576021
 00512C 4780 F3D8      05138        6584        BC    EQ,REDEF1                   YES-REDEF1                     44583021
 005130 9601 D352      00382        6585          OI    REDFSW,XX01                NO-SET 'ON' REDFSW            44590021
 005134 47F0 F42E      0518E        6586        BC    UNCOND,RPICT                -RPICT                         44597021
 005138 9101 D352      00382        6587 REDEF1   TM    REDFSW,XX01               REDFSW 'ON'                    44604021
 00513C 4780 F3E4      05144        6588        BC    ZERO,REDEF2                 NO-REDEF2                      44611021
 005140 45E0 DAB0      00AE0        6589        BAL   JP,MSG25                   -MSG25                          44618021
 005144 9601 D352      00382        6590 REDEF2   OI    REDFSW,XX01               SET 'ON' REDFSW                44625021
 005148 D21E D3D7 C6C2 00407 01652  6591          MVC   CLSNM(LX31),CURCNT        SET UP CLSNM                   44632021
 00514E 45E0 B000      01F18        6592        BAL   JP,GETWD                   GETWD                           44639021
 005152 45E0 B088      01FA0        6593        BAL   JP,CHKBCD                  -CHKBCD                         44646021
 005156 47F0 F3FE      0515E        6594        BC    UNCOND,RR2ZIP               -RR2ZIP                        44653021
 00515A 47F0 F37C      050DC        6595        BC    UNCOND,RBENT                -RBENT                         44660021
 00515E 9500 D4E4      00514        6596 RR2ZIP   CLI   LR2,XX00                  R2 FIELD IS 0                  44667021
 005162 4770 F2A8      05008        6597        BC    NOTEQ,RCENT                NO                              44674021
 005166 4120 D4E4      00514        6598        LA    JB,LR2                     ADDRESS OF LR2 TO REG           44681021
 00516A 4170 C6E5      01675        6599        LA    JG,CURN                    ADDRESS OF CURN TO REG          44688021
 00516E 4340 C6E5      01675        6600        IC    JD,CURN                    COUNT TO REG                    44695021
 005172 4440 B522      0243A        6601        EX    JD,TXMOVE                  COUNT AND BCD NAME TO LR2       44702021
 005176 9640 D427      00457        6602          OI    LOD1,XX40                 SET R1 TO 1                    44709021
 00517A 9501 D423      00453        6603          CLI   LDLEV,XX01          LEVEL IS '01'                        44716021
 00517E 4780 F2DA      0503A        6604          BE    RAENT2              DOES COPY FOLLOW REDEFINES           44723021
 005182 9532 D423      00453        6605          CLI   LDLEV,XX32          LEVEL IS '77'                        44730021
 005186 4780 F2DA      0503A        6606          BE    RAENT2              DOES COPY FOLLOW REDEFINES           44737021
 00518A 47F0 F2B0      05010        6607        BC    UNCOND,RAENT          IN  REPORT SECTION?                  44744021
 00518E 95D8 C6E5      01675        6608 RPICT    CLI   CURN,XXD8               * PICTURE                        44751021
 005192 4770 F46E      051CE        6609        BC    NOTEQ,RBLANK               NO                              44758021
 005196 50E0 D8AC      008DC        6610 RPICT1 ST    JP,JPSAVE                  SAVE LINK REG                   44765021
 00519A D21E D3D7 C6C2 00407 01652  6611          MVC   CLSNM(LX31),CURCNT        SET UP CLSNM                   44772021
 0051A0 45E0 B18E      020A6        6612        BAL   JP,CHKIS                   CHKIS                           44779021
 0051A4 45E0 B000      01F18        6613        BAL   JP,GETWD              GET NEXT WORD                        44786021
 0051A8 9554 C6E4      01674        6614          CLI   CURCOD,XX54               SP COBOL WORD                  44793021
 0051AC 4780 F37C      050DC        6615        BC    EQ,RBENT                   YES                             44800021
 0051B0 9130 C6E4      01674        6616          TM    CURCOD,XX30         MAJOR IS ZERO                        44807021
 0051B4 4780 F37C      050DC        6617        BC    ZERO,RBENT           YES-RBENT                             44814021
1PH1A     IKFCBL10                                                                                              PAGE  139
-  LOC  OBJECT CODE    ADDR1 ADDR2  STMT   SOURCE STATEMENT                                       ASM 0201 11.03 02/14/15
00051B8 9500 D44C      0047C        6618          CLI   LP2,XX00                  P2 FIELD IS 0                  44821021
 0051BC 4770 F2A8      05008        6619        BC    NOTEQ,RCENT                NO                              44828021
 0051C0 D21E D44C C6E5 0047C 01675  6620          MVC   LP2(LX31),CURN            TO P2 FIELD                    44835021
 0051C6 9620 D427      00457        6621          OI    LOD1,XX20                 SET P1 TO 1                    44842021
 0051CA 47F0 F2B0      05010        6622        BC    UNCOND,RAENT          IN REPORT SECTION?                   44849021
 0051CE 95D9 C6E5      01675        6623 RBLANK   CLI   CURN,XXD9               * BLANK                          44856021
 0051D2 4770 F4B2      05212        6624        BC    NOTEQ,ROCCUR               NO                              44863021
 0051D6 50E0 D8AC      008DC        6625 RBLNK1 ST    JP,JPSAVE                  SAVE LINK REG                   44870021
 0051DA D21E D3D7 C6C2 00407 01652  6626          MVC   CLSNM(LX31),CURCNT        SET UP CLSNM                   44877021
 0051E0 45E0 B000      01F18        6627        BAL   JP,GETWD                   GETWD                           44884021
 0051E4 D501 C6E4 A25E 01674 02E4E  6628          CLC   CURCOD(LX2),WHNCON        WHEN                           44891021
 0051EA 4770 F492      051F2        6629        BC    NOTEQ,RZERO                NO                              44898021
 0051EE 45E0 B000      01F18        6630        BAL   JP,GETWD                   GETWD                           44905021
 0051F2 9575 C6E4      01674        6631 RZERO    CLI   CURCOD,XX75               FIGCON                         44912021
 0051F6 4770 F37C      050DC        6632        BC    NOTEQ,RBENT                NO                              44919021
 0051FA 95F0 C6E5      01675        6633          CLI   CURN,XXF0                 ZERO                           44926021
 0051FE 4770 F37C      050DC        6634        BC    NOTEQ,RBENT                NO                              44933021
 005202 9180 D426      00456        6635          TM    LBZ,XX80                  BZ FIELD IS 0                  44940021
 005206 4770 F2A8      05008        6636        BC    NOTZER,RCENT               NO                              44947021
 00520A 9680 D426      00456        6637          OI    LBZ,XX80                  SET BZ TO 1                    44954021
 00520E 47F0 F2B0      05010        6638        BC    UNCOND,RAENT          IN REPORT SECTION?                   44961021
 005212 95DA C6E5      01675        6639 ROCCUR   CLI   CURN,XXDA               * OCCURS                         44968021
 005216 4770 F6EE      0544E        6640        BC    NOTEQ,RVALUE               NO                              44975021
 00521A D21E D3D7 C6C2 00407 01652  6641          MVC   CLSNM(LX31),CURCNT        SET UP CLSNM                   44982021
 005220 940F D357      00387        6642          NI    SWBYTS+NX11,XX0F          SET OCCURS SWITCHES OFF        44989021
 005224 9604 D42A      0045A        6643          OI    LOCCRS,XX04               TURN ON LD ENTRY OCCURS  47955 44996021
                                    6644 *                                        BIT FOR PH2 PROCESSING   47955 45003021
 005228 45E0 B000      01F18        6645 RTOTIM BAL   JP,GETWD                   GET WORD                        45010021
 00522C 9108 C6E1      01671        6646          TM    CURSW,XX08                INT-NUM LIT                    45017021
 005230 4780 F37C      050DC        6647        BC    ZERO,RBENT                  NO-RBENT                       45024021
 005234 D501 D428 C14C 00458 010DC  6648          CLC   LOH(LX2),HWZERO           O FIELD IS ZERO                45031021
 00523A 4770 F4EE      0524E        6649        BNE   RTOMSG                     NO - CK TOSW                    45038021
 00523E 9604 D35A      0038A        6650          OI    OCCURNUM,XX04       TURN ON  OCCURS CLAUSE SW            45045021
 005242 45E0 B528      02440        6651        BAL   JP,CNVBIN                  CNVBIN                          45052021
 005246 94FB D35A      0038A        6652          NI    OCCURNUM,XXFB       TURN OFF OCCURS CLAUSE SW            45059021
 00524A 47F0 F516      05276        6653        B     RSTLOH                     STORE IN LOH                    45066021
 00524E                             6654 RTOMSG DS    0H                                                         45073021
 00524E 9110 D357      00387        6655          TM    TOSW,XX10                 INT-1 TO INT-2 ?               45080021
 005252 4770 F4FE      0525E        6656        BC    NOTZER,RPUTO               YES - NO MSG                    45087021
 005256 45E0 DA8C      00ABC        6657        BAL   JP,MSG16                   MSG 16                          45094021
 00525A 47F0 F392      050F2        6658        BC    UNCOND,RDENT          IS CUR COBOL WORD?                   45101021
 00525E 9604 D35A      0038A        6659 RPUTO    OI    OCCURNUM,XX04       TURN ON  OCCURS CLAUSE SW            45108021
 005262 45E0 B528      02440        6660          BAL   JP,CNVBIN           CONVERT TO BINARY                    45115021
 005266 94FB D35A      0038A        6661          NI    OCCURNUM,XXFB       TURN OFF OCCURS CLAUSE SW            45122021
 00526A 4920 D428      00458        6662        CH    JB,LOH                     2ND GREATER THAN 1ST ?          45129021
 00526E 4720 F516      05276        6663        BH    RSTLOH                     YES - OK FOR STORE              45136021
 005272 45E0 DC70      00CA0        6664        BAL   JP,MSG137                  NO - ERROR                      45143021
 005276                             6665 RSTLOH DS    0H                                                         45150021
 005276 4020 D428      00458        6666        STH   JB,LOH                     LITERAL TO O FIELD              45157021
 00527A 45E0 B000      01F18        6667        BAL   JP,GETWD                   GETWD                           45164021
 00527E D501 C6E4 A3AC 01674 02F9C  6668          CLC   CURCOD(LX2),TIMCON        TIMES                          45171021
 005284 4770 F52C      0528C        6669        BNE   ROCCHK                     NO - CK FOR OTHER COB WDS       45178021
 005288 45E0 B000      01F18        6670 ROCGTW BAL   JP,GETWD                   GET WORD                        45185021
 00528C 9554 C6E4      01674        6671 ROCCHK   CLI   CURCOD,XX54               COBOL WORD                     45192021
 005290 4770 F314      05074        6672        BNE   RA2ENT                     ENCODE AS LEVEL #               45199021
1PH1A     IKFCBL10                                                                                              PAGE  140
-  LOC  OBJECT CODE    ADDR1 ADDR2  STMT   SOURCE STATEMENT                                       ASM 0201 11.03 02/14/15
0005294 9594 C6E5      01675        6673 RDEPEN   CLI   CURN,XX94                 DEPENDING HIT ?                45206021
 005298 4770 F5E4      05344        6674        BNE   RASCEN                     NO - CK ASCENDING               45213021
 00529C 9180 D357      00387        6675          TM    DPSW,XX80                 DEPENDING SWITCH ON            45220021
 0052A0 4770 F37C      050DC        6676        BC    NOTZER,RBENT               YES - DEPEND HIT TWICE IN C     45227021
 0052A4 9680 D357      00387        6677          OI    DPSW,XX80                 SET DEPD SW ON                 45234021
 0052A8 45E0 B000      01F18        6678        BAL   JP,GETWD                   GETWD                           45241021
 0052AC D501 C6E4 A043 01674 02C33  6679          CLC   CURCOD(LX2),ONCON         ON                             45248021
 0052B2 4770 F55A      052BA        6680        BC    NOTEQ,RBCDQ                NO                              45255021
 0052B6 45E0 B000      01F18        6681        BAL   JP,GETWD                   GETWD                           45262021
 0052BA 9501 D423      00453        6682 RBCDQ    CLI   LDLEV,XX01                                               45269021
 0052BE 4780 F2B0      05010        6683        BE    RAENT                      OCCURS NO GOOD IN LEVEL 1       45276021
 0052C2 9532 D423      00453        6684          CLI   LDLEV,XX32                                               45283021
 0052C6 4780 F2B0      05010        6685        BE    RAENT                      OCCURS NO GOOD IN LEVEL 77      45290021
 0052CA 5820 C86C      017FC        6686        L     JB,OD2CON                  OCCURS-DEPENDING TABLE AD       45297021
 0052CE 9620 D34E      0037E        6687          OI    INSRSW,XX20               TO TAMER TABLE                 45304021
 0052D2 9610 D34E      0037E        6688          OI    OD2SW,XX10                SET OD2 SWITCH                 45311021
 0052D6 45E0 B410      02328        6689        BAL   JP,MVQLCK                  QUAL-UNQUAL NAME TO QNMTBL      45318021
 0052DA 47F0 F582      052E2        6690          BC    UNCOND,*+NX8              NAME STORED                    45325021
 0052DE 47F0 F37C      050DC        6691        BC    UNCOND,RBENT               NOT BCD NAME - RBENT            45332021
                                    6692 *                                                                       45339021
                                    6693 *   SEARCH OF OD2TBL TO ELIMINATE DUPLICATE ENTRIES                     45346021
                                    6694 *                                                                       45353021
 0052E2 5810 C86C      017FC        6695        L     JA,OD2CON                  OD2TBL TIB                      45360021
 0052E6 5811 0000      00000        6696          L     JA,DX0(JA)                ADDR OF TAMM                   45367021
 0052EA 5821 0000      00000        6697          L     JB,DX0(JA)                ADDR OF TABLE                  45374021
 0052EE 4122 0000      00000        6698          LA    JB,DX0(JB)                CLEARS HI-ORDER BYTE           45381021
 0052F2 5830 D9CC      009FC        6699        L     JC,ABSADD                  ADDR OF LAST ENTRY              45388021
 0052F6 1923                        6700 RCOMP1 CR    JB,JC                      IS THIS THE LAST ENTRY          45395021
 0052F8 4780 F5D6      05336        6701        BC    EQ,RCOMP4                   YES-RCOMP4                     45402021
 0052FC D201 D98C 2000 009BC 00000  6702          MVC   WORKHC(LX2),DX0(JB)        GET HW COUNT OF ENTRY         45409021
 005302 4840 D98C      009BC        6703        LH    JD,WORKHC                   AND PUT IN REG JD              45416021
 005306 D501 2000 3000 00000 00000  6704          CLC   DX0(LX2,JB),DX0(JC)        ARE COUNTS EQUAL              45423021
 00530C 4780 F5BE      0531E        6705        BC    EQ,RCOMP3                   YES-RCOMP3                     45430021
 005310 4124 2002      00002        6706 RCOMP2   LA    JB,DX2(JD,JB)             GET ADDR OF NEXT ENTRY         45437021
 005314 47F0 F596      052F6        6707        BC    UNCOND,RCOMP1               -RCOMP1                        45444021
 005318 D500 2001 3001 00001 00001  6708 RCOMPX   CLC   DX1(LX0,JB),DX1(JC)                                      45451021
 00531E 4440 F5B8      05318        6709 RCOMP3 EX    JD,RCOMPX                  ARE ENTRIES EQUAL               45458021
 005322 4770 F5B0      05310        6710        BC    NOTEQ,RCOMP2                NO-RCOMP2                      45465021
 005326 5841 0000      00000        6711          L     JD,DX0(JA)                ADDR OF TABLE START            45472021
 00532A 1B34                        6712        SR    JC,JD                      GET TABLE SIZE W/O LAST ENT     45479021
 00532C 4031 0004      00004        6713          STH   JC,DX4(JA)                 AND PUT INTO TAMM             45486021
 005330 1B24                        6714        SR    JB,JD                      GET DISPLACEMENT OF FOUND E     45493021
 005332 4020 D9D2      00A02        6715        STH   JB,PONTER                   AND PUT INTO PONTER            45500021
 005336 D201 D503 D9D2 00533 00A02  6716 RCOMP4   MVC   LOD2(LX2),PONTER          POINTER TO LOD2                45507021
                                    6717 *                                                                       45514021
                                    6718 *                                                                       45521021
 00533C 9680 D427      00457        6719          OI    LOD1,XX80                 SET OD1 TO''1'                 45528021
 005340 47F0 F528      05288        6720        B     ROCGTW                     MORE WDS FOR OCCURS             45535021
 005344 958D C6E5      01675        6721 RASCEN   CLI   CURN,XX8D                 ASCENDING HIT ?                45542021
 005348 4770 F618      05378        6722        BNE   RDESCN                     NO - CK DESCENDING              45549021
 00534C 4160 0001      00001        6723          LA    R6,DX1                    SET ASCEND CODE IN REG         45556021
 005350 9140 D357      00387        6724 RKEYCK   TM    ASDESW,XX40               ASCEND-DESCED SWITCH ON ?      45563021
 005354 4770 F37C      050DC        6725        BC    NOTZER,RBENT               YES - ASCDES HIT TWICE          45570021
 005358 D501 C79A A100 0172A 02CF0  6726          CLC   NXTCOD(LX2),KEYCON        KEY HIT ?                      45577021
 00535E 4770 F606      05366        6727        BNE   RCKIS                      NO -CHKIS                       45584021
1PH1A     IKFCBL10                                                                                              PAGE  141
-  LOC  OBJECT CODE    ADDR1 ADDR2  STMT   SOURCE STATEMENT                                       ASM 0201 11.03 02/14/15
0005362 45E0 B000      01F18        6728        BAL   JP,GETWD              GET NEXT WORD                        45591021
 005366 45E0 B18E      020A6        6729 RCKIS  BAL   JP,CHKIS              IS NEXT 'IS'?                        45598021
 00536A 5810 C894      01824        6730        L     R1,KYCON                   ADDR OF KEY TABLE               45605021
 00536E 1B55                        6731        SR    R5,R5                      ZERO REG                        45612021
 005370 4350 D42C      0045C        6732        IC    R5,LNKEY                   GET # OF KEYS                   45619021
 005374 47F0 F628      05388        6733        B     RBLDTB                     BUILD KEY OR INDEX TABLE        45626021
 005378 958C C6E5      01675        6734 RDESCN   CLI   CURN,XX8C                 DESCENDING HIT ?               45633021
 00537C 4770 F696      053F6        6735        BNE   RINDEX                     NO - CK FOR INDEXED             45640021
 005380 4160 0002      00002        6736          LA    R6,DX2                    SET DESCEND CODE IN REG        45647021
 005384 47F0 F5F0      05350        6737        B     RKEYCK                     CK IF HIT BEFORE                45654021
 005388 9523 C79A      0172A        6738 RBLDTB   CLI   NXTCOD,XX23               BCD NAME ?                     45661021
 00538C 4780 F640      053A0        6739          BE    RBLDN               RBLDN                                45668021
 005390 95A2 C79A      0172A        6740          CLI   NXTCOD,XXA2               IS IT QUAL BCD           58972 45675021
 005394 4780 F640      053A0        6741          BE    RBLDN                      YES, BR                 58972 45682021
 005398 45E0 B000      01F18        6742          BAL   JP,GETWD            GET NEXT WORD                        45689021
 00539C 47F0 F37C      050DC        6743          B RBENT                   MSG17 ERROR                          45696021
 0053A0 45E0 B000      01F18        6744 RBLDN  BAL   JP,GETWD                   GET WORD                        45703021
 0053A4 9523 C6E4      01674        6745          CLI   CURCOD,XX23               BCD NAME ?                     45710021
 0053A8 4780 F65C      053BC        6746          BE    RBLDN1                          YES, BR            58972 45717021
 0053AC 95A2 C6E4      01674        6747          CLI   CURCOD,XXA2              IS IT QUAL BCD            58972 45724021
 0053B0 4770 F67A      053DA        6748          BNE   RBLDEX                   NO - EXIT FROM RTN        58972 45731021
 0053B4 45E0 DAE8      00B18        6749          BAL   JP,MSG39                    MSG 39                 58972 45738021
 0053B8 9223 C6E4      01674        6750          MVI   CURCOD,XX23              MAKE UNQUAL BCD           58972 45745021
                             053BC  6751 RBLDN1   EQU   *                                                  58972 45752021
 0053BC 4260 C6E4      01674        6752        STC   R6,CURCOD                  STORE ASC,DES OR INDEX CODE     45759021
 0053C0 1B44                        6753        SR    R4,R4                     ZERO REG FOR SIZE INSERT         45766021
 0053C2 4340 C6E5      01675        6754        IC    R4,CURN                    SIZE OF CURRENT BCD NM          45773021
 0053C6 4144 0002      00002        6755          LA    R4,DX2(R4)                INCREASE BY 2 FOR CURN& COD    45780021
 0053CA 4170 C6E4      01674        6756        LA    R7,CURCOD                  ADDR OF MOVE FROM FIELD         45787021
 0053CE 45E0 B466      0237E        6757        BAL   JP,MVSRT2                  CALL INSERT & ENTER IN TABL     45794021
 0053D2 4155 0001      00001        6758          LA    R5,DX1(R5)                BUMP COUNT BY 1                45801021
 0053D6 47F0 F640      053A0        6759        B     RBLDN                      NEXT ELEMENT                    45808021
                                    6760 *                                                                       45815021
 0053DA 9602 D354      00384        6761 RBLDEX   OI    RMULSW,XX02               MAKE REDUCE RETURN CONTROL     45822021
 0053DE 9120 D357      00387        6762          TM    INDXSW,XX20               INDEX SW ON                    45829021
 0053E2 4770 F68E      053EE        6763        BC    NOTZER,RINDCT              YES - ST CNT IN D               45836021
 0053E6 4250 D42C      0045C        6764        STC   R5,LNKEY                   YES - ST IN KEY LD              45843021
 0053EA 47F0 F52C      0528C        6765        B     ROCCHK                     CK FOR COB WD                   45850021
 0053EE 4250 D42B      0045B        6766 RINDCT STC   R5,LNIND                   ST CNT IN INDEX LD              45857021
 0053F2 47F0 F52C      0528C        6767        B     ROCCHK                     CK COB WD                       45864021
 0053F6 95BC C6E5      01675        6768 RINDEX   CLI   CURN,XXBC                 INDEXED  HIT ?                 45871021
 0053FA 4770 F6CA      0542A        6769        BNE   RTO                        NO - CK FOR TO                  45878021
 0053FE 9120 D357      00387        6770          TM    INDXSW,XX20               MORE THAN 1 IN SAME CLAUSE     45885021
 005402 4770 F37C      050DC        6771        BC    NOTZER,RBENT               ERROR IN OCCURS CLAUSE          45892021
 005406 9640 D357      00387        6772          OI    ASDESW,XX40               SET ON SW                      45899021
 00540A 9620 D357      00387        6773          OI    INDXSW,XX20               SET SW ON                      45906021
 00540E D500 C79A A007 0172A 02BF7  6774        CLC   NXTCOD,BYCON               BY IN NEXT                      45913021
 005414 4770 F6BC      0541C        6775        BNE   RIDTIB                     NO - LOAD TIB ADDR              45920021
 005418 45E0 B000      01F18        6776        BAL   JP,GETWD                   GET WORD                        45927021
 00541C 5810 C89C      0182C        6777 RIDTIB L     R1,INDCON                  TIB ADDR IN REG                 45934021
 005420 1B55                        6778        SR    R5,R5                      ZERO COUNT REG                  45941021
 005422 4160 0004      00004        6779          LA    R6,DX4                    04 CODE FOR INDEX              45948021
 005426 47F0 F628      05388        6780        B     RBLDTB                     BEGIN TABLE BUILD               45955021
 00542A 959B C6E5      01675        6781 RTO      CLI   CURN,XX9B                 TO HIT ?                       45962021
 00542E 4770 F6E2      05442        6782        BNE   RODOCK                     CK FOR OCCURS DEPEND            45969021
1PH1A     IKFCBL10                                                                                              PAGE  142
-  LOC  OBJECT CODE    ADDR1 ADDR2  STMT   SOURCE STATEMENT                                       ASM 0201 11.03 02/14/15
0005432 9110 D357      00387        6783          TM    TOSW,XX10                 TO HIT TWICE IN SAME CLAUSE    45976021
 005436 4770 F37C      050DC        6784        BC    NOTZER,RBENT               ERROR IN OCCURS CLAUSE          45983021
 00543A 9610 D357      00387        6785          OI    TOSW,XX10                 SET SW ON                      45990021
 00543E 47F0 F4C8      05228        6786        B     RTOTIM                     OCCURS LIT TO LIT TIMES ?       45997021
 005442 9110 D427      00457        6787 RODOCK   TM    LOD1,XX10                 ODO ON IN LD WK AREA           46004021
 005446 4780 F30C      0506C        6788        BC    ZERO,RA1ENT                NO - CK FOR REDEFINES,ETC.      46011021
 00544A 47F0 F2B0      05010        6789        B     RAENT                      YES - ASSUME LEV # FOLLOWS      46018021
 00544E 95CA C6E5      01675        6790 RVALUE   CLI   CURN,XXCA               * VALUE                          46025021
 005452 4770 F9B8      05718        6791        BNE   RSYNC                     NO CHECK FOR SYNC                46032021
 005456 50E0 D8AC      008DC        6792 RVAL11 ST    JP,JPSAVE                  SAVE LINK REG                   46039021
 00545A D21E D3D7 C6C2 00407 01652  6793          MVC   CLSNM(LX31),CURCNT        SET UP CLSNM                   46046021
 005460 45E0 B18E      020A6        6794        BAL   JP,CHKIS                   CHKIS                           46053021
 005464 9604 D354      00384        6795 RVAL12   OI    VALXW,XX04                SET ON VALSW                   46060021
 005468 45E0 B000      01F18        6796        BAL   JP,GETWD                   GETWD                           46067021
 00546C 94FB D354      00384        6797          NI    VALXW,XXFB                SET 'OFF' VALSW                46074021
 005470 9534 C6E4      01674        6798          CLI   CURCOD,XX34             - ALPHAMERIC LITERAL             46081021
 005474 4770 F7EC      0554C        6799        BC    NOTEQ,RNLIT                NO                              46088021
 005478 9500 D46B      0049B        6800          CLI   LV2,XX00                  V2 FIELD IS 0                  46095021
 00547C 4770 F2A8      05008        6801        BC    NOTEQ,RCENT                NO                              46102021
 005480 D279 C9F7 C6E4 01987 01674  6802          MVC   VAL02(LX122),CURCOD       SAVE ALPHA-LIT                 46109021
 005486 9608 D426      00456        6803          OI    LBZ,XX08                  SET V1 TO 1                    46116021
 00548A D278 D46B C6E5 0049B 01675  6804 RALPMV   MVC   LV2(LX121),CURN           TO V2 F&ELD                    46123021
 005490 9533 D423      00453        6805 RMUTCK   CLI   LDLEV,XX33                88 LEVEL ?                     46130021
 005494 4770 F2B0      05010        6806        BNE   RAENT                 IN REPORT SECTION?                   46137021
 005498 D501 C79A A242 0172A 02E32  6807          CLC   NXTCOD(LX2),THRUCN        THRU IN NEXT                   46144021
 00549E 4770 F74A      054AA        6808        BNE   RALLCK                    NO - CHECK FOR ALL               46151021
 0054A2 4120 0018      00018        6809          LA    R2,DX24                   THRU CODE IN REG               46158021
 0054A6 47F0 F780      054E0        6810        B     RMULT2                     YES - SET UP MULTIPLE LD        46165021
 0054AA D501 C79A A07C 0172A 02C6C  6811 RALLCK   CLC   NXTCOD(LX2),ALLCON        ALL ?                          46172021
 0054B0 4780 F77C      054DC        6812        BE    RMULT                     YES-SET UP MULT LD               46179021
                                    6813 *                                                                       46186021
 0054B4 9534 C79A      0172A        6814 RALPCK   CLI   NXTCOD,XX34               ALPHANUM LIT ?                 46193021
 0054B8 4780 F77C      054DC        6815        BE    RMULT                     YES-SET UP MULT LD               46200021
                                    6816 *                                                                       46207021
 0054BC 9532 C79A      0172A        6817 RNUMCK   CLI   NXTCOD,XX32               NUM LIT ?                      46214021
 0054C0 4780 F77C      054DC        6818        BE    RMULT                     YES-SET UP MULT LD               46221021
                                    6819 *                                                                       46228021
 0054C4 9533 C79A      0172A        6820 RFPTCK   CLI   NXTCOD,XX33               FLOAT PT LIT ?                 46235021
 0054C8 4780 F77C      054DC        6821        BE    RMULT                     YES-SET UP MULT LD               46242021
                                    6822 *                                                                       46249021
 0054CC 9575 C79A      0172A        6823 RFIGCK   CLI   NXTCOD,XX75               FIG CONSTANT FOLLOW OTHER V    46256021
 0054D0 4780 F77C      054DC        6824        BE    RMULT                     MULT VALUE RTN                   46263021
 0054D4 9102 D354      00384        6825          TM    RMULSW,XX02              MULTIPLE VALUE SW ON ?          46270021
 0054D8 4780 F2B0      05010        6826        BC    ZERO,RAENT                NO - WRITE LD TEXT               46277021
                                    6827 *                                                                       46284021
                                    6828 ***     MORE THAN ONE VALUE FOR A CONDITION NAME                ***     46291021
                                    6829 *                                                                       46298021
 0054DC 4120 0010      00010        6830 RMULT    LA    R2,DX16                   NO THRU CODE                   46305021
 0054E0 4310 D426      00456        6831 RMULT2 IC    R1,LBZ                     CURRENT LBZ                     46312021
 0054E4 8910 001A      0001A        6832          SLL   R1,DX26                   /SOLATE VALUE CODE             46319021
 0054E8 8810 001D      0001D        6833          SRL   R1,DX29                                                  46326021
 0054EC 1A12                        6834        AR    R1,R2                                                      46333021
 0054EE 4210 D6E9      00719        6835        STC   R1,LDMUL                   STORE CODE IN WK AREA           46340021
 0054F2 D278 D6EA D46B 0071A 0049B  6836          MVC   LDMULV(LX121),LV2         COUNT & VAR VALUE TO MULT W    46347021
 0054F8 D779 D46B D46B 0049B 0049B  6837          XC    LV2(LX122),LV2           ZERO OUT LV2                    46354021
1PH1A     IKFCBL10                                                                                              PAGE  143
-  LOC  OBJECT CODE    ADDR1 ADDR2  STMT   SOURCE STATEMENT                                       ASM 0201 11.03 02/14/15
00054FE 9102 D354      00384        6838          TM    RMULSW,XX02              MULTIPLE VALUE SW ON ?          46361021
 005502 4770 F7B2      05512        6839        BC    NOTZER,RWTMUL             YES - SKIP LD WRITE              46368021
 005506 9638 D426      00456        6840          OI    LBZ,XX38                  SET V1 TO 7 FOR MULTIPLE VA    46375021
 00550A 9602 D354      00384        6841          OI    RMULSW,XX02              SET ON MULT VAL SW              46382021
 00550E 45E0 F9FE      0575E        6842        BAL JP,RDUCE                    WRITE LD TEXT                    46389021
 005512 4120 D6E9      00719        6843 RWTMUL LA    JB,LDMUL                   ADDR OF MULT VALUE WK AREA      46396021
 005516 45E0 FA60      057C0        6844        BAL   JP,WRTMUL                  WRITE                           46403021
 00551A D779 D6E9 D6E9 00719 00719  6845          XC    LDMUL(LX122),LDMUL       ZERO OUT LDMUL                  46410021
 005520 9200 D426      00456        6846          MVI   LBZ,XX00                 ZERO LBZ, VALUE , REDEF, ETC    46417021
 005524 D501 C79A C58D 0172A 0151D  6847          CLC   NXTCOD(LX2),EOSCON                                       46424021
 00552A 4770 F7DA      0553A        6848        BNE   RTHRU                 RTHRU                                46431021
 00552E 45E0 B000      01F18        6849        BAL   JP,GETWD              GET NEXT WORD                        46438021
 005532 94FD D354      00384        6850 RRETDD   NI    RMULSW,XXFD               SET MULT SW TO 0               46445021
 005536 47F0 FA7C      057DC        6851        B     RCDEOJ                    RETURN TO CALLING                46452021
 00553A D501 C79A A242 0172A 02E32  6852 RTHRU    CLC   NXTCOD(LX2),THRUCN        THRU FOLLOWING ?               46459021
 005540 4770 F704      05464        6853        BNE   RVAL12                     NO- SCAN FOR NEXT LITERAL       46466021
 005544 45E0 B000      01F18        6854        BAL   JP,GETWD                   YES - GET THRU                  46473021
 005548 47F0 F704      05464        6855        B     RVAL12                     SCAN FOR NEXT LITERAL           46480021
 00554C 9532 C6E4      01674        6856 RNLIT    CLI   CURCOD,XX32             - NUMERIC LITERAL                46487021
 005550 4770 F828      05588        6857        BC    NOTEQ,RFPLIT               NO                              46494021
 005554 9500 D46B      0049B        6858          CLI   LV2,XX00                  V2 FIELD IS 0                  46501021
 005558 4770 F2A8      05008        6859        BC    NOTEQ,RCENT                NO                              46508021
 00555C D20E C9F7 C6E4 01987 01674  6860          MVC   VAL02(LX15),CURCOD        SAVE NUM-LIT                   46515021
 005562 4340 C75E      016EE        6861        IC    JD,CURXNL                  LENGTH OF LIT                   46522021
 005566 4170 C75F      016EF        6862          LA    JG,CURXNL+NX1             ADDR OF NUM LIT IN BCD FORM    46529021
 00556A 4120 C6E8      01678        6863          LA    JB,CURN+NX3               ADDR OF CURN+3                 46536021
 00556E 4440 B522      0243A        6864        EX    JD,TXMOVE        EX MOVE TO CUR FIELD OF NUM LIT           46543021
 005572 4144 0002      00002        6865          LA    JD,DX2(JD)      GET 'N'                                  46550021
 005576 4240 C6E5      01675        6866        STC   JD,CURN          STORE 'N'                                 46557021
 00557A 9610 D426      00456        6867          OI    LBZ,XX10                  SET V1 TO 2                    46564021
 00557E D21E D46B C6E5 0049B 01675  6868          MVC   LV2(LX31),CURN            TO V2 FIELD                    46571021
 005584 47F0 F730      05490        6869        B     RMUTCK                     CK FOR MULTIPLE VALUES          46578021
 005588 9533 C6E4      01674        6870 RFPLIT   CLI   CURCOD,XX33             - FLOAT POINT LITERAL            46585021
 00558C 4770 F84C      055AC        6871        BC    NOTEQ,RFGCON               NO                              46592021
 005590 9500 D46B      0049B        6872          CLI   LV2,XX00                  V2 FIELD IS 0                  46599021
 005594 4770 F2A8      05008        6873        BC    NOTEQ,RCENT                NO                              46606021
 005598 D209 C9F7 C6E4 01987 01674  6874          MVC   VAL02(LX10),CURCOD        SAVE FLT-PT-LIT                46613021
 00559E 9618 D426      00456        6875          OI    LBZ,XX18                  SET V1 TO 3                    46620021
 0055A2 D21E D46B C6E5 0049B 01675  6876          MVC   LV2(LX31),CURN            TO V2 FIELD                    46627021
 0055A8 47F0 F730      05490        6877        B     RMUTCK                     CK FOR MULTIPLE VALUES          46634021
 0055AC 9575 C6E4      01674        6878 RFGCON   CLI   CURCOD,XX75               FIGCON                         46641021
 0055B0 4770 F880      055E0        6879        BC    NOTEQ,RFGALL                NO-RFGALL                      46648021
 0055B4 9500 D46B      0049B        6880          CLI   LV2,XX00                  V2 FIELD IS 0                  46655021
 0055B8 4770 F2A8      05008        6881        BC    NOTEQ,RCENT                 NO-RCENT                       46662021
 0055BC 95F0 C6E5      01675        6882 RZERCK   CLI   CURN,XXF0                 ZERO HIT ?                     46669021
 0055C0 D201 C9F7 C6E4 01987 01674  6883          MVC   VAL02(LX2),CURCOD        SAVE FIGCON                     46676021
 0055C6 4770 F86E      055CE        6884        BC    NOTEQ,RFNZER              NOT ZERO                         46683021
 0055CA 9628 D426      00456        6885          OI    LBZ,XX28                  SET V1 TO 5 FOR ZERO           46690021
 0055CE 9620 D426      00456        6886 RFNZER   OI    LBZ,XX20                  SET V1 TO 4 FOR FIGCON         46697021
 0055D2 D200 D46C C6E5 0049C 01675  6887          MVC   LV2+NX1(LX1),CURN          CODE TO LV2+1                 46704021
 0055D8 9201 D46B      0049B        6888          MVI   LV2,XX01                 SET LENGTH TO 1                 46711021
 0055DC 47F0 F730      05490        6889        B     RMUTCK                     CK FOR MULTIPLE VALUES          46718021
 0055E0 D501 C6E4 A07C 01674 02C6C  6890 RFGALL   CLC   CURCOD(LX2),ALLCON        ALL                            46725021
 0055E6 4770 F378      050D8        6891        BNE   RBENT1                     NO - ERROR                      46732021
 0055EA 9500 D46B      0049B        6892          CLI   LV2,XX00                  V2 FIELD IS 0                  46739021
1PH1A     IKFCBL10                                                                                              PAGE  144
-  LOC  OBJECT CODE    ADDR1 ADDR2  STMT   SOURCE STATEMENT                                       ASM 0201 11.03 02/14/15
00055EE 4770 F2A8      05008        6893        BC    NOTEQ,RCENT                 NO-RCENT                       46746021
 0055F2 45E0 B000      01F18        6894        BAL   JP,GETWD                   -GETWD                          46753021
 0055F6 9534 C6E4      01674        6895          CLI   CURCOD,XX34               ALPHAMERIC LIT                 46760021
 0055FA 4770 F8C0      05620        6896        BNE   RFGCK                      NO - CK FOR FIG CONSTANT        46767021
 0055FE 9275 C9F7      01987        6897          MVI   VAL02,XX75                SET UP FIGCON                  46774021
 005602 9101 D34F      0037F        6898          TM    RPTWSW,XX01              IN REPORT SECTION               46781021
 005606 4780 F8B2      05612        6899        BC    ZERO,RFGAL1               NO...CONTINUE                    46788021
 00560A 9604 D369      00399        6900          OI    VALALL,XX04              YES..TURN ON VALUE ALL SW       46795021
 00560E 9234 C9F7      01987        6901          MVI   VAL02,XX34               SET UP FOR P-0 TEXT             46802021
 005612                             6902 RFGAL1 DS    0H                                                         46809021
 005612 D278 C9F8 C6E5 01988 01675  6903          MVC   VAL02+NX1(LX121),CURN      MOVE ALPHA LIT                46816021
 005618 9620 D426      00456        6904          OI    LBZ,XX20                 SET V1 TO 4 FOR ALL             46823021
 00561C 47F0 F72A      0548A        6905        B     RALPMV                     SET UP V2 FIELD                 46830021
 005620 9575 C6E4      01674        6906 RFGCK    CLI   CURCOD,XX75               FIGURATIVE CONSTANT ?          46837021
 005624 4780 F85C      055BC        6907        BE    RZERCK                     YES- SET UP LD WORK AREA        46844021
 005628 47F0 F378      050D8        6908        B     RBENT1                     NO - ERROR                      46851021
 00562C 95DB C6E5      01675        6909 RJUST    CLI   CURN,XXDB               * JUSTIFIED                      46858021
 005630 4770 F900      05660        6910        BNE   RENAMS                     NO - RENAMES                    46865021
 005634 50E0 D8AC      008DC        6911 RJUST1 ST    JP,JPSAVE                  SAVE LINK REG                   46872021
 005638 D21E D3D7 C6C2 00407 01652  6912          MVC   CLSNM(LX31),CURCNT        SET UP CLSNM                   46879021
 00563E D501 C79A A36C 0172A 02F5C  6913        CLC   NXTCOD(LX2),RITCON        RIGHT?                           46886021
 005644 4780 F8EC      0564C        6914        BC    EQ,RJUST2                 YES - RJUST2                     46893021
 005648 47F0 F8F0      05650        6915        BC    UNCOND,RJUST3             - RJUST3                         46900021
 00564C 45E0 B000      01F18        6916 RJUST2 BAL   JP,GETWD                  GETWD                            46907021
 005650 9140 D426      00456        6917 RJUST3 TM    LBZ,XX40                  J FIELD IS 0                     46914021
 005654 4770 F2A8      05008        6918        BC    NOTZER,RCENT               NO                              46921021
 005658 9640 D426      00456        6919          OI    LBZ,XX40                  SET J TO 1                     46928021
 00565C 47F0 F2B0      05010        6920        BC    UNCOND,RAENT          IN REPORT SECTION?                   46935021
 005660 9539 C6E5      01675        6921 RENAMS   CLI   CURN,XX39                 RENAMES HIT ?                  46942021
 005664 4770 F96E      056CE        6922        BNE   RUSAGE                     NO - CK FOR USAGE               46949021
 005668 9539 D423      00453        6923          CLI   LDLEV,XX39                66 LEVEL NUMBER                46956021
 00566C 4770 F292      04FF2        6924        BNE   RM38                       NO - ERROR                      46963021
 005670 9602 D427      00457        6925          OI    LRNS,XX02                 SET ON RENAMES IN LD           46970021
 005674 D21E D3D7 C6C2 00407 01652  6926          MVC   CLSNM(LX31),CURCNT        SET UP  CLAUSE NAME            46977021
 00567A 45E0 B000      01F18        6927        BAL   JP,GETWD              GET NEXT WORD                        46984021
 00567E D501 C79A A242 0172A 02E32  6928          CLC   NXTCOD(LX2),THRUCN        THRU FOLLOWING ?               46991021
 005684 4770 F92C      0568C        6929        BNE   RSETUP                     NO - SET UP LD FOR WRITE        46998021
 005688 9640 D42A      0045A        6930          OI    LRNT,XX40                 YES - SET ON RENAMES THRU L    47005021
 00568C 9602 D354      00384        6931 RSETUP   OI    RMULSW,XX02               MAKE REDUCE RETURN CONTROL     47012021
 005690 45E0 F9FE      0575E        6932        BAL   JP,RDUCE                   WRITE LD TEXT                   47019021
 005694 9601 D354      00384        6933 RQLNM    OI    DDQSW,XX01                SET ON DATA DIV QUAL-NM SW     47026021
 005698 45E0 CE9C      01E2C        6934        BAL   JP,PRONAM             PRONAM                               47033021
 00569C 47F0 F956      056B6        6935        B     RTHRUR                     CK THRU                         47040021
 0056A0 47F0 F37C      050DC        6936        B     RBENT                      ERROR - NOT BCD OR QUAL BCD     47047021
 0056A4 D507 D3D7 C65B 00407 015EB  6937 RDENT1 CLC   CLSNM(LX8),RENAM7         RENAMES CLAUSE              7869 47054021
 0056AA 4770 F392      050F2        6938        BC    NOTEQ,RDENT               NO - RDENT                  7869 47061021
 0056AE 45E0 B566      0247E        6939        BAL   JP,RDNT11                 - RDNT11                    7869 47068021
 0056B2 47F0 F3A6      05106        6940        B     RDENT2                    - RDENT2                    7869 47075021
 0056B6 9140 D42A      0045A        6941 RTHRUR   TM    LRNT,XX40                 THRU FOLLOWING                 47082021
 0056BA 4780 F944      056A4        6942        BC    ZERO,RDENT1               NO - RDENT1                 7869 47089021
 0056BE 45E0 B000      01F18        6943 RGETWS BAL   JP,GETWD                   SKIP THRU                       47096021
 0056C2 45E0 B000      01F18        6944        BAL   JP,GETWD                   GET NEXT DATA NM                47103021
 0056C6 94BF D42A      0045A        6945          NI    LRNT,XXBF                SET OFF FOR RETURN              47110021
 0056CA 47F0 F934      05694        6946        B     RQLNM                      WRITE RENAMED THRU NAME         47117021
                                    6947 *                                                                       47124021
1PH1A     IKFCBL10                                                                                              PAGE  145
-  LOC  OBJECT CODE    ADDR1 ADDR2  STMT   SOURCE STATEMENT                                       ASM 0201 11.03 02/14/15
00056CE 95DD C6E5      01675        6948 RUSAGE   CLI   CURN,XXDD               * USAGE                          47131021
 0056D2 4770 F97E      056DE        6949        BC    NOTEQ,RDPLAY               NO                              47138021
 0056D6 45E0 B18E      020A6        6950        BAL   JP,CHKIS                   CHKIS                           47145021
 0056DA 45E0 B000      01F18        6951        BAL   JP,GETWD                   GETWD                           47152021
 0056DE 1722                        6952 RDPLAY XR    JB,JB                      CLEAR REG                       47159021
 0056E0 4110 C563      014F3        6953          LA    JA,USETBL+NX6             ADDR OF UNIQUE IDENT BYTE I    47166021
 0056E4 4320 C55C      014EC        6954        IC    JB,RSEV                    COUNT NO. OF TYPES              47173021
 0056E8 D500 C6E5 1000 01675 00000  6955 RDISPL   CLC   CURN(LX1),DX0(JA)          TEST FOR DISPLAY ETC          47180021
 0056EE 4780 F99C      056FC        6956        BC    EQ,RUFLD                   YES                             47187021
 0056F2 0610                        6957        BCTR  JA,JR                       REDUCE TABLE ADDR BY 1         47194021
 0056F4 4620 F988      056E8        6958        BCT   JB,RDISPL                  COUNT SIX TIMES                 47201021
 0056F8 47F0 F3BC      0511C        6959        BC    UNCOND,REENT          ERR MSG37                            47208021
 0056FC 9205 D3D7      00407        6960 RUFLD    MVI   CLSNM,XX05                                               47215021
 005700 D204 D3D8 A3C7 00408 02FB7  6961          MVC   CLSNM+NX1(LX5),USGCON                                    47222021
 005706 9107 D426      00456        6962          TM    LBZ,XX07                                                 47229021
 00570A 4770 F2A8      05008        6963        BC    NOTZER,RCENT               NO                              47236021
 00570E D600 D426 1007 00456 00007  6964          OC    LBZ(LX1),DX7(JA)           CODE TO USAGE FIELD           47243021
 005714 47F0 F2B0      05010        6965        BC    UNCOND,RAENT          IN REPORT SECTION?                   47250021
 005718 9537 C6E5      01675        6966 RSYNC    CLI   CURN,XX37                * SYNC                          47257021
 00571C 4770 F8CC      0562C        6967        BNE   RJUST                     NO                               47264021
 005720 D21E D3D7 C6C2 00407 01652  6968          MVC   CLSNM(LX31),CURCNT        SET UP CLAUSE NAME             47271021
 005726 9101 D427      00457        6969          TM    LSYN,XX01                 SYNC HIT MORE THAN ONCE        47278021
 00572A 4770 F2A8      05008        6970        BC    NOTZER,RCENT               YES - ERROR                     47285021
 00572E 9601 D427      00457        6971          OI    LSYN,XX01                 NO - SET SYNC BIT ON           47292021
 005732 D501 C79A A36C 0172A 02F5C  6972          CLC   NXTCOD(LX2),RITCON        RIGHT HIT ?                    47299021
 005738 4770 F9E8      05748        6973        BNE   RRSYNC                     NO - CK LEFT                    47306021
 00573C 9680 D42A      0045A        6974          OI    LSLR,XX80                 TURN RIGHT BIT ON              47313021
 005740 45E0 B000      01F18        6975 RAGET  BAL   JP,GETWD                   GET WORD                        47320021
 005744 47F0 F2B0      05010        6976        B     RAENT                 IN REPORT SECTION?                   47327021
 005748 D501 C79A A1A1 0172A 02D91  6977 RRSYNC   CLC   NXTCOD(LX2),LFTCON        LEFT  HIT ?                    47334021
 00574E 4780 F9E0      05740        6978        BE    RAGET                     GETWD THEN RAENT                 47341021
 005752 47F0 F2B0      05010        6979        B     RAENT                     RAENT                            47348021
 005756 50E0 D8AC      008DC        6980 RWDUCE ST    JP,JPSAVE                  SAVE LINK REG                   47355021
 00575A 47F0 FA02      05762        6981        B     REDUCE                    SKIP INST.                       47362021
 00575E 50E0 D8F4      00924        6982 RDUCE  ST    JP,JPMUSV                 RETURN FOR MULT VAL CHECK        47369021
 005762 1722                        6983 REDUCE XR    JB,JB                      CLEAR REG                       47376021
 005764 1744                        6984        XR    JD,JD                      CLEAR REG                       47383021
 005766 1766                        6985        XR    JF,JF                      CLEAR REG                       47390021
 005768 4120 D42D      0045D        6986        LA    JB,LD                      COMPRESS LD TEXT                47397021
 00576C 4150 FA1E      0577E        6987        LA    JE,RSUBRA                  LOAD ADDR OF RSUBRA REG 5       47404021
 005770 4340 2000      00000        6988 RTINE    IC    JD,DX0(JR,JB)              INSERT COUNT OF LD REG        47411021
 005774 4A40 C14E      010DE        6989        AH    JD,HWONE                   ADJ SIZE FOR BYTE OF N          47418021
 005778 1A64                        6990 RTINEA AR    JF,JD                      ACCUM TOTAL LENGTH IN REG       47425021
 00577A 1E24                        6991        ALR   JB,JD                      GET END OF FIELD IN REG         47432021
 00577C 07F5                        6992        BCR   UNCOND,JE                  GO TO SUBROUTINE                47439021
 00577E D21E 2000 D44C 00000 0047C  6993 RSUBRA   MVC   DX0(LX31,JB),LP2         - MOVE LP2 UP                   47446021
 005784 4550 FA10      05770        6994        BAL   JE,RTINE                   BAL TO ROUTINE                  47453021
 005788 D278 2000 D46B 00000 0049B  6995          MVC   DX0(LX121,JB),LV2        - MOVE LV2 UP                   47460021
 00578E 4550 FA10      05770        6996        BAL   JE,RTINE                   BAL TO ROUTINE                  47467021
 005792 D21E 2000 D4E4 00000 00514  6997          MVC   DX0(LX31,JB),LR2         - MOVE LR2 UP                   47474021
 005798 4550 FA10      05770        6998        BAL   JE,RTINE                   BAL TO ROUTINE                  47481021
 00579C 4A60 C158      010E8        6999 RSUBRE AH    JF,HWTEN                  ADD CONSTANT PORTION TO COUN     47488021
 0057A0 9188 D427      00457        7000          TM    LOD1,XX88                 OD NAME OR RW REDEF PRESENT    47495021
 0057A4 4770 FA6A      057CA        7001        BC    NOTZER,RCDTAM               YES-RCDTAM                     47502021
 0057A8 4A60 C14E      010DE        7002        AH    JF,HWONE                   ADD ONE FOR OD2 FIELD ZERO      47509021
1PH1A     IKFCBL10                                                                                              PAGE  146
-  LOC  OBJECT CODE    ADDR1 ADDR2  STMT   SOURCE STATEMENT                                       ASM 0201 11.03 02/14/15
00057AC 9200 2000      00000        7003          MVI   DX0(JB),XX00            - MOVE BYTE OF '0' FOR OD2 FI    47516021
 0057B0 4260 D422      00452        7004        STC   JF,LDN                     STORE TOTAL                     47523021
 0057B4 45E0 FA5C      057BC        7005        BAL   JP,WRITE                   WRITE                           47530021
 0057B8 47F0 FA7C      057DC        7006        BC    UNCOND,RCDEOJ               -RCDEOJ                        47537021
                                    7007 *                                                                       47544021
 0057BC 4120 D421      00451        7008 WRITE  LA    JB,LDCONS                 LD-TEXT ADDR                     47551021
 0057C0 5810 C814      017A4        7009 WRTMUL L     JA,COSADR                 WRITE LD TEXT                    47558021
 0057C4 0501                        7010        BALR  JR,JA                          CONSTANT AREA               47565021
 0057C6 23                          7011        DC    X'23'                      PUT TO FILE 3                   47572021
 0057C7 00
 0057C8 07FE                        7012        BCR   UNCOND,JP                   -JP                            47579021
                                    7013 *                                                                       47586021
 0057CA 4A60 C150      010E0        7014 RCDTAM AH    JF,HWTWO                   ADD 2 FOR OD2 PTR FIELD         47593021
 0057CE D201 2000 D503 00000 00533  7015          MVC   DX0(LX2,JB),LOD2           MOVE UP OD2 FIELD             47600021
 0057D4 4260 D422      00452        7016        STC   JF,LDN                     STORE                           47607021
 0057D8 45E0 FA5C      057BC        7017        BAL   JP,WRITE                   -WRITE                          47614021
 0057DC 9101 D34F      0037F        7018 RCDEOJ   TM    RPTWSW,XX01               IN REPORT SECTION              47621021
 0057E0 4780 FA8A      057EA        7019        BC    ZERO,RCDEJ1                 NO-RCDEJ1                      47628021
 0057E4 58E0 D8AC      008DC        7020        L     JP,JPSAVE                  RESTORE LINK REG                47635021
 0057E8 07FE                        7021        BCR   UNCOND,JP                   -RETURN                        47642021
 0057EA 9102 D354      00384        7022 RCDEJ1   TM    RMULSW,XX02              MULTIPLE VALUES ?               47649021
 0057EE 4780 FA98      057F8        7023        BC    ZERO,RCDEJ                NO - RCDEJ                       47656021
 0057F2 58E0 D8F4      00924        7024        L     JP,JPMUSV                 MULT VAL RTN ADDR                47663021
 0057F6 07FE                        7025        BR   JP                     RETURN                               47670021
 0057F8 58E0 D878      008A8        7026 RCDEJ  L     JP,SV1F01                 RESTORE LINK REG                 47677021
 0057FC 07FE                        7027        BCR   UNCOND,JP             RETURN                               47684021
1PH1A     IKFCBL10                                                                                              PAGE  147
-  LOC  OBJECT CODE    ADDR1 ADDR2  STMT   SOURCE STATEMENT                                       ASM 0201 11.03 02/14/15
0                                   7029 *=2          FILE SCAN                                                  47698021
                                    7030 *                                                                       47705021
                                    7031 *****    FILE SCAN    *****                                             47712021
                                    7032 *                                                                       47719021
 0057FE 50E0 D87C      008AC        7033 FILSCN ST    JP,SV1F02                                                  47726021
 005802 45E0 B0CE      01FE6        7034        BAL   JP,CHKVRB                  -CHKVRB                         47733021
 005806 D750 D435 D435 00465 00465  7035          XC    FSDCPY(LX81),FSDCPY       ZERO OUT FD AREA               47740021
 00580C 94C0 D34D      0037D        7036          NI    RCMDSW,XXC0               RESET RCM,RCD,BLK,LBL,DAT,R    47747021
 005810 45E0 B000      01F18        7037        BAL   JP,GETWD                   -GETWD                          47754021
 005814 9523 C6E4      01674        7038          CLI   CURCOD,XX23               UNQUAL NAME                    47761021
 005818 4780 FAC8      05828        7039        BC    EQ,FILFN                    YES-FILFN                      47768021
 00581C 95A2 C6E4      01674        7040          CLI   CURCOD,XXA2               QUAL NAME                      47775021
 005820 4770 FEEE      05C4E        7041        BC    NOTEQ,FILEXX                NO-FILEXX                      47782021
 005824 45E0 DADC      00B0C        7042        BAL   JP,MSG36                   -MSG36                          47789021
 005828 45E0 B664      0257C        7043 FILFN  BAL   JP,BLNKRT                  -BLNKRT-SET UP NAME WITH BL     47796021
 00582C D21E D44F C6C2 0047F 01652  7044          MVC   FSDFN(LX31),CURCNT        FN W/BLANKS TO FSDFN           47803021
 005832 45E0 B286      0219E        7045        BAL   JP,CPYNXT                  -CPYNXT                         47810021
 005836 9101 D350      00380        7046          TM    CPYXSW,XX01               COPY CLAUSE                    47817021
 00583A 4780 FAE2      05842        7047        BC    ZERO,FLAENT                 NO-FLAENT                      47824021
 00583E 9680 D435      00465        7048          OI    FSDCPY,XX80               SET 'ON' FSDCPY                47831021
 005842 45E0 B000      01F18        7049 FLAENT BAL   JP,GETWD                   -GETWD                          47838021
 005846 947F D34E      0037E        7050 FLA2NT   NI    FDMSW,XX7F                SET 'OFF' FDMSW                47845021
 00584A 9554 C6E4      01674        7051 FLA3NT   CLI   CURCOD,XX54               COBOL WORD                     47852021
 00584E 4780 FB16      05876        7052        BC    EQ,FLSPCL                   YES-FLSPCL                     47859021
 005852 45E0 CE70      01E00        7053        BAL   JP,LEVENC                  -LEVENC                         47866021
 005856 9130 C6E4      01674        7054          TM    CURCOD,XX30               MAJOR IS 0                     47873021
 00585A 4780 FEF6      05C56        7055        BC    ZERO,FILEXT                 YES-FILEXT                     47880021
 00585E 9180 D34E      0037E        7056 FLA4NT   TM    FDMSW,XX80                FD MSG SW 'ON'                 47887021
 005862 4710 FB0A      0586A        7057        BC    ONES,FLMENT                 YES-FLMENT                     47894021
 005866 45E0 DAE0      00B10        7058        BAL   JP,MSG37                   -MSG37                          47901021
 00586A 9680 D34E      0037E        7059 FLMENT   OI    FDMSW,XX80                SET FD MSG SWITCH ON           47908021
 00586E 45E0 B000      01F18        7060        BAL   JP,GETWD                   -GETWD                          47915021
 005872 47F0 FAEA      0584A        7061        BC    UNCOND,FLA3NT               -FLA3NT                        47922021
 005876 45E0 B0DC      01FF4        7062 FLSPCL BAL   JP,CHKCLS                  -CHKCLS                         47929021
 00587A 9516 C6E5      01675        7063 FLRDNG   CLI   CURN,XX16               * RECORDING                      47936021
 00587E 4770 FB2E      0588E        7064        BC    NOTEQ,FLRCRD                NO-FLRCRD                      47943021
 005882 9120 D34D      0037D        7065          TM    RCMDSW,XX20               RCMDSW 'ON'                    47950021
 005886 4780 FC28      05988        7066        BC    ZERO,FLRCMD                 NO-FLRCMD                      47957021
 00588A 47F0 FC20      05980        7067        BC    UNCOND,FLMS16               -FLMS16                        47964021
 00588E 95CD C6E5      01675        7068 FLRCRD   CLI   CURN,XXCD               * RECORD                         47971021
 005892 4770 FB42      058A2        7069        BC    NOTEQ,FLBLCK                NO-FLBLCK                      47978021
 005896 9110 D34D      0037D        7070          TM    RCDSW,XX10                RCDSW 'ON'                     47985021
 00589A 4780 FC9C      059FC        7071        BC    ZERO,FLRENT                 NO-FLRENT                      47992021
 00589E 47F0 FC20      05980        7072        BC    UNCOND,FLMS16               -FLMS16                        47999021
 0058A2 95CC C6E5      01675        7073 FLBLCK   CLI   CURN,XXCC               * BLOCK                          48006021
 0058A6 4770 FB56      058B6        7074        BC    NOTEQ,FLABEL                NO-FLABEL                      48013021
 0058AA 9108 D34D      0037D        7075          TM    BLKSW,XX08                BLKSW 'ON'                     48020021
 0058AE 4780 FD08      05A68        7076        BC    ZERO,FLBENT                 NO-FLBENT                      48027021
 0058B2 47F0 FC20      05980        7077        BC    UNCOND,FLMS16               -FLMS16                        48034021
 0058B6 95D1 C6E5      01675        7078 FLABEL   CLI   CURN,XXD1               * LABEL                          48041021
 0058BA 4770 FB6A      058CA        7079        BC    NOTEQ,FLDATA                NO-FLDATA                      48048021
 0058BE 9104 D34D      0037D        7080          TM    LBLSW,XX04                LBLSW 'ON'                     48055021
 0058C2 4780 FD7E      05ADE        7081        BC    ZERO,FLLENT                 NO-FLLENT                      48062021
 0058C6 47F0 FC20      05980        7082        BC    UNCOND,FLMS16               -FLMS16                        48069021
 0058CA 9501 C6E5      01675        7083 FLDATA   CLI   CURN,XX01               * DATA                           48076021
1PH1A     IKFCBL10                                                                                              PAGE  148
-  LOC  OBJECT CODE    ADDR1 ADDR2  STMT   SOURCE STATEMENT                                       ASM 0201 11.03 02/14/15
00058CE 4770 FB7E      058DE        7084        BC    NOTEQ,FLRPT                 NO-FLRPT                       48083021
 0058D2 9102 D34D      0037D        7085          TM    DATASW,XX02               DATASW 'ON'                    48090021
 0058D6 4780 FEAE      05C0E        7086        BC    ZERO,FLDENT                 NO-FLDENT                      48097021
 0058DA 47F0 FC20      05980        7087        BC    UNCOND,FLMS16               -FLMS16                        48104021
 0058DE 95D6 C6E5      01675        7088 FLRPT    CLI   CURN,XXD6               * REPORT                         48111021
 0058E2 4770 FBAC      0590C        7089        BC    NOTEQ,FLVAL                NO-FLVAL                        48118021
 0058E6 9180 D9C0      009F0        7090          TM    FSTRC,XX80                IS THIS FIRST REPORTS CLAU     48125021
 0058EA 4710 FBA0      05900        7091        BC    ONES,FLRPT1                NO                              48132021
 0058EE 9680 D9C0      009F0        7092          OI    FSTRC,XX80                YES, PRIME RWRTBL              48139021
 0058F2 58F0 C818      017A8        7093        L     JQ,ADPRIM                                                  48146021
 0058F6 4110 C8AC      0183C        7094        LA    JA,RWRTB                                                   48153021
 0058FA 05EF                        7095        BALR  JP,JQ                 PRIME                                48160021
 0058FC 58F0 C040      00FD0        7096        L     JQ,DATDIV                  RESTORE BASE REG                48167021
 005900 9101 D34D      0037D        7097 FLRPT1   TM    RPTSW,XX01                RPTSW 'ON '                    48174021
 005904 4780 FBBC      0591C        7098        BC    ZERO,FLPENT                 NO-FLPENT                      48181021
 005908 47F0 FC20      05980        7099        BC    UNCOND,FLMS16               -FLMS15                        48188021
 00590C 95CA C6E5      01675        7100 FLVAL    CLI   CURN,XXCA                 * VALUE                        48195021
 005910 4770 FAFE      0585E        7101        BC    NOTEQ,FLA4NT               NO                              48202021
 005914 45E0 B000      01F18        7102        BAL   JP,GETWD              GET NEXT WORD                        48209021
 005918 47F0 FB0A      0586A        7103        BC    UNCOND,FLMENT         FLMENT                               48216021
 00591C 45E0 B18E      020A6        7104 FLPENT BAL   JP,CHKIS                   -CHKIS                          48223021
 005920 45E0 B000      01F18        7105        BAL   JP,GETWD                   -GETWD                          48230021
 005924 9523 C6E4      01674        7106          CLI   CURCOD,XX23               BCD-NAME                       48237021
 005928 4770 FD00      05A60        7107        BC    NOTEQ,FLIENT                NO-FLIENT                      48244021
 00592C 9610 D353      00383        7108          OI    RPORSW,XX10               SET 'ON' RPORSW                48251021
 005930 9601 D34D      0037D        7109          OI    RPTSW,XX01                SET 'ON' RPTSW                 48258021
 005934 9601 D435      00465        7110          OI    FSDRPT,XX01               SET 'ON' FDSRPT                48265021
 005938 D201 D9DA C6E2 00A0A 01672  7111          MVC   WORKR2(LX2),CURGCN        SET UP GCN                     48272021
 00593E 5820 C834      017C4        7112        L     JB,QNMCON                  ADDR OF QNMTBL                  48279021
 005942 4140 001F      0001F        7113          LA    JD,DX31(JR)              SIZE OF 31                      48286021
 005946 4170 C6C2      01652        7114        LA    JG,CURCNT                 FROM CURCOUNT                    48293021
 00594A 45E0 B464      0237C        7115        BAL   JP,MVSERT                  -MVSERT                         48300021
 00594E D201 D9B0 D9D2 009E0 00A02  7116          MVC   RPOSAV(LX2),PONTER        SAVE POINTER                   48307021
 005954 4810 D9B2      009E2        7117 FLPANT   LH    JA,RPOSAV+NX2             COUNT                          48314021
 005958 4111 0001      00001        7118          LA    JA,DX1(JA)                 NUMBER OF                     48321021
 00595C 4010 D9B2      009E2        7119          STH   JA,RPOSAV+NX2               ENTIES                       48328021
 005960 45E0 B000      01F18        7120        BAL   JP,GETWD                   -GETWD                          48335021
 005964 9523 C6E4      01674        7121          CLI   CURCOD,XX23               BCD-NAME                       48342021
 005968 4770 FAE6      05846        7122        BC    NOTEQ,FLA2NT                NO-FLA2NT                      48349021
 00596C 5820 C834      017C4        7123        L     JB,QNMCON                  ADDR OF QNMTBL                  48356021
 005970 4140 001F      0001F        7124          LA    JD,DX31(JR)              SIZE OF 31                      48363021
 005974 4170 C6C2      01652        7125        LA    JG,CURCNT                 FROM CURCOUNT                    48370021
 005978 45E0 B464      0237C        7126        BAL   JP,MVSERT                  -MVSERT                         48377021
 00597C 47F0 FBF4      05954        7127        BC    UNCOND,FLPANT               -FLPANT                        48384021
 005980 45E0 DA8C      00ABC        7128 FLMS16 BAL   JP,MSG16                   -MSG 16                         48391021
 005984 47F0 FB0A      0586A        7129        BC    UNCOND,FLMENT               -FLMENT                        48398021
 005988 9554 C79A      0172A        7130 FLRCMD   CLI   NXTCOD,XX54               MODE                           48405021
 00598C 4770 FC34      05994        7131        BC    NOTEQ,FLRCM1                NO-FLRCM1                      48412021
 005990 45E0 B000      01F18        7132        BAL   JP,GETWD                   -GETWD                          48419021
 005994 45E0 B18E      020A6        7133 FLRCM1 BAL   JP,CHKIS                   -CHKIS                          48426021
 005998 45E0 B000      01F18        7134        BAL   JP,GETWD                   -GETWD                          48433021
 00599C 9523 C6E4      01674        7135          CLI   CURCOD,XX23               BCD-NAME                       48440021
 0059A0 4770 FC90      059F0        7136        BC    NOTEQ,FLMG11                NO-FLMG11                      48447021
 0059A4 9501 C6E5      01675        7137          CLI   CURN,XX01                 SINGLE CHARACTER               48454021
 0059A8 4770 FC90      059F0        7138        BC    NOTEQ,FLMG11                NO-FLMG11                      48461021
1PH1A     IKFCBL10                                                                                              PAGE  149
-  LOC  OBJECT CODE    ADDR1 ADDR2  STMT   SOURCE STATEMENT                                       ASM 0201 11.03 02/14/15
00059AC 95C6 C6E6      01676        7139          CLI   CURBCD,XCF                'F'                            48468021
 0059B0 4770 FC5C      059BC        7140        BC    NOTEQ,FLRCM2                NO-FLRCM2                      48475021
 0059B4 9620 D44E      0047E        7141          OI    FSDRCM,XX20              F-20                            48482021
 0059B8 47F0 FC88      059E8        7142        BC    UNCOND,FLRCM4               -FLRCM4                        48489021
 0059BC 95E4 C6E6      01676        7143 FLRCM2   CLI   CURBCD,XCU                U                              48496021
 0059C0 4770 FC6C      059CC        7144        BNE   FLRCM5                    NO-FLRCM4                        48503021
 0059C4 9608 D44E      0047E        7145          OI    FSDRCM,XX08              U-08                            48510021
 0059C8 47F0 FC88      059E8        7146        BC    UNCOND,FLRCM4               -FLRCM4                        48517021
 0059CC 95E2 C6E6      01676        7147 FLRCM5   CLI   CURBCD,XCS               'S'                             48524021
 0059D0 4770 FC7C      059DC        7148        BNE   FLRCM3                    NO-FLRCM3                        48531021
 0059D4 9604 D44E      0047E        7149          OI    FSDRCM,XX04              S-04                            48538021
 0059D8 47F0 FC88      059E8        7150        B     FLRCM4                FLRCM4                               48545021
 0059DC 95E5 C6E6      01676        7151 FLRCM3   CLI   CURBCD,XCV                V                              48552021
 0059E0 4770 FC90      059F0        7152        BC    NOTEQ,FLMG11                NO-FLMG11                      48559021
 0059E4 9610 D44E      0047E        7153          OI    FSDRCM,XX10              V-10                            48566021
 0059E8 9620 D34D      0037D        7154 FLRCM4   OI    RCMDSW,XX20               SET RCMDSW 'ON'                48573021
 0059EC 47F0 FAE2      05842        7155        BC    UNCOND,FLAENT               -FLAENT                        48580021
 0059F0 45E0 DA78      00AA8        7156 FLMG11 BAL   JP,MSG11                   -MSG11                          48587021
 0059F4 9680 D34E      0037E        7157          OI    FDMSW,XX80                SET FDMSW 'ON'                 48594021
 0059F8 47F0 FAE6      05846        7158        BC    UNCOND,FLA2NT              -FLA2NT                         48601021
 0059FC 45E0 B000      01F18        7159 FLRENT BAL   JP,GETWD                   -GETWD                          48608021
 005A00 D501 C6E4 A6D7 01674 032C7  7160          CLC   CURCOD(LX2),CONTCN        CONTAINS                       48615021
 005A06 4770 FCAE      05A0E        7161        BC    NOTEQ,FLINTL                NO-FLINTL                      48622021
 005A0A 45E0 B000      01F18        7162        BAL   JP,GETWD                   -GETWD                          48629021
 005A0E 9532 C6E4      01674        7163 FLINTL   CLI   CURCOD,XX32               NUMERIC LITERAL                48636021
 005A12 4770 FD00      05A60        7164        BC    NOTEQ,FLIENT                NO-FLIENT                      48643021
 005A16 9500 C6E7      01677        7165          CLI   CURBCD+NX1,XX00           INTEGRAL                       48650021
 005A1A 4770 FD00      05A60        7166        BC    NOTEQ,FLIENT                NO-FLIENT                      48657021
 005A1E 45E0 B528      02440        7167        BAL   JP,CNVBIN                  CONVERT TO BINARY               48664021
 005A22 4020 D438      00468        7168        STH   JB,FSDRC1                  PUT IN FSDRC1                   48671021
 005A26 9610 D34D      0037D        7169 FLCKI2   OI    RCDSW,XX10               SET RCDSW ON                    48678021
 005A2A 9620 D435      00465        7170          OI    FSDBCC,XX20        SW ON                                 48685021
 005A2E 45E0 B1A0      020B8        7171        BAL   JP,CHKTO                   -CHKTO                          48692021
 005A32 45E0 B000      01F18        7172        BAL   JP,GETWD                   -GETWD                          48699021
 005A36 9532 C6E4      01674        7173          CLI   CURCOD,XX32               NUMERIC LITERAL                48706021
 005A3A 4770 FCF2      05A52        7174        BC    NOTEQ,FLCHAR                NO-FLCHAR                      48713021
 005A3E 9500 C6E7      01677        7175          CLI   CURBCD+NX1,XX00           INTEGRAL                       48720021
 005A42 4770 FCF2      05A52        7176        BC    NOTEQ,FLCHAR                NO-FLCHAR                      48727021
 005A46 45E0 B528      02440        7177        BAL   JP,CNVBIN                  CONVERT TO BINARY               48734021
 005A4A 4020 D43A      0046A        7178        STH   JB,FSDRC2                  PUT IN FSDRC2                   48741021
 005A4E 45E0 B000      01F18        7179        BAL   JP,GETWD                   -GETWD                          48748021
 005A52 D501 C6E4 A8A4 01674 03494  7180 FLCHAR   CLC   CURCOD(LX2),CHARCN        CHARACTERS                     48755021
 005A58 4780 FAE2      05842        7181        BC    EQ,FLAENT                   YES-FLAENT                     48762021
 005A5C 47F0 FAE6      05846        7182        BC    UNCOND,FLA2NT               -FLA2NT                        48769021
 005A60 45E0 DB20      00B50        7183 FLIENT BAL   JP,MSG53                   -MSG 53                         48776021
 005A64 47F0 FAE6      05846        7184        BC    UNCOND,FLA2NT               -FLA2NT                        48783021
 005A68 45E0 B000      01F18        7185 FLBENT BAL   JP,GETWD                   -GETWD                          48790021
 005A6C D501 C6E4 A6D7 01674 032C7  7186          CLC   CURCOD(LX2),CONTCN        CONTAINS                       48797021
 005A72 4770 FD1A      05A7A        7187        BC    NOTEQ,FLNUML                NO-FLNUML                      48804021
 005A76 45E0 B000      01F18        7188        BAL   JP,GETWD                   -GETWD                          48811021
 005A7A 9532 C6E4      01674        7189 FLNUML   CLI   CURCOD,XX32               NUMERIC LITERAL                48818021
 005A7E 4770 FD00      05A60        7190        BC    NOTEQ,FLIENT                NO-FLIENT                      48825021
 005A82 9500 C6E7      01677        7191          CLI   CURBCD+NX1,XX00         * INTEGRAL                       48832021
 005A86 4770 FD00      05A60        7192        BC    NOTEQ,FLIENT                NO-FLIENT                      48839021
 005A8A 45E0 B528      02440        7193        BAL   JP,CNVBIN                  -CNVBIN-CONVERT TO BINARY       48846021
1PH1A     IKFCBL10                                                                                              PAGE  150
-  LOC  OBJECT CODE    ADDR1 ADDR2  STMT   SOURCE STATEMENT                                       ASM 0201 11.03 02/14/15
0005A8E 4020 D436      00466        7194        STH   JB,FSDBLC                 MIN CT OR ONLY NUM SPEC'D        48853021
 005A92 9608 D34D      0037D        7195          OI    BLKSW,XX08               SET BLKSW ON                    48860021
 005A96 45E0 B1A0      020B8        7196        BAL   JP,CHKTO                   -CHKTO                          48867021
 005A9A 45E0 B000      01F18        7197        BAL   JP,GETWD                   -GETWD                          48874021
 005A9E 9532 C6E4      01674        7198          CLI   CURCOD,XX32               NUMERIC LITERAL                48881021
 005AA2 4770 FD5A      05ABA        7199        BC    NOTEQ,FLSCO                NO                              48888021
 005AA6 9500 C6E7      01677        7200          CLI   CURBCD+NX1,XX00           INTEGRAL                       48895021
 005AAA 4770 FD5A      05ABA        7201        BC    NOTEQ,FLSCO                NO                              48902021
 005AAE 45E0 B528      02440        7202        BAL   JP,CNVBIN                  CONVERT TO BINARY               48909021
 005AB2 4020 D44C      0047C        7203        STH   JB,FSDBLM                 MAX CT                           48916021
 005AB6 45E0 B000      01F18        7204        BAL   JP,GETWD                   -GETWD                          48923021
 005ABA D501 C6E4 A65E 01674 0324E  7205 FLSCO    CLC   CURCOD(LX2),RCDSCO        RECORDS                        48930021
 005AC0 4770 FD6C      05ACC        7206        BC    NOTEQ,FLCHAT                NO-FLCHAT                      48937021
 005AC4 9608 D435      00465        7207          OI    FSDBCC,XX08               SET BIT TO '1' FOR RECORD      48944021
 005AC8 47F0 FAE2      05842        7208        BC    UNCOND,FLAENT               -FLAENT                        48951021
 005ACC 9610 D435      00465        7209 FLCHAT   OI    FSDBCC,XX10               SET BIT TO '2' FOR CHARACTE    48958021
 005AD0 D501 C6E4 A8A4 01674 03494  7210          CLC   CURCOD(LX2),CHARCN        CHARACTERS                     48965021
 005AD6 4770 FAE6      05846        7211        BC    NOTEQ,FLA2NT                NO-FLA2NT                      48972021
 005ADA 47F0 FAE2      05842        7212        BC    UNCOND,FLAENT               -FLAENT                        48979021
 005ADE 9554 C79A      0172A        7213 FLLENT   CLI   NXTCOD,XX54               NEXT IS COBOL WORD             48986021
 005AE2 4770 FD9A      05AFA        7214        BC    NOTEQ,FLARE                 NO-FLARE                       48993021
 005AE6 95CD C79B      0172B        7215          CLI   NXTN,XXCD                 NEXT IS RECORD                 49000021
 005AEA 4780 FD96      05AF6        7216        BC    EQ,FLLGET                   YES-FLLGET                     49007021
 005AEE 95CF C79B      0172B        7217          CLI   NXTN,XXCF                 NEXT IS RECORDS                49014021
 005AF2 4770 FD9A      05AFA        7218        BC    NOTEQ,FLARE                 NO-FLARE                       49021021
 005AF6 45E0 B000      01F18        7219 FLLGET BAL   JP,GETWD                   -GETWD                          49028021
 005AFA 45E0 B18E      020A6        7220 FLARE  BAL   JP,CHKIS                   -CHKIS                          49035021
 005AFE 45E0 B000      01F18        7221        BAL   JP,GETWD                   -GETWD                          49042021
 005B02 9554 C6E4      01674        7222          CLI   CURCOD,XX54               COBOL WORD                     49049021
 005B06 4770 FDCA      05B2A        7223        BC    NOTEQ,FLBCDN                NO-FLBCDN                      49056021
 005B0A 95D4 C6E5      01675        7224          CLI   CURN,XXD4                 OMITTED                        49063021
 005B0E 4770 FDBA      05B1A        7225        BC    NOTEQ,FLSTRD                NO-FLSTRD                      49070021
 005B12 9604 D435      00465        7226          OI    FSDLRD,XX04               SET BIT TO '2' FOR OMITTED     49077021
 005B16 47F0 FEA6      05C06        7227        BC    UNCOND,FLSWLA               NO-FLSWLA                      49084021
 005B1A 95D5 C6E5      01675        7228 FLSTRD   CLI   CURN,XXD5                 STANDARD                       49091021
 005B1E 4770 FD00      05A60        7229        BC    NOTEQ,FLIENT                NO-FLIENT                      49098021
 005B22 9602 D435      00465        7230          OI    FSDLRD,XX02               SET BIT TO '1' FOR STANDARD    49105021
 005B26 47F0 FEA6      05C06        7231        BC    UNCOND,FLSWLA               -FLSWLA                        49112021
 005B2A 45E0 B088      01FA0        7232 FLBCDN BAL   JP,CHKBCD                  BCD-NAME CHECK QUAL AND UNQ     49119021
 005B2E 47F0 FDD6      05B36        7233          BC    UNCOND,*+NX8               YES-*+8                       49126021
 005B32 47F0 FD00      05A60        7234        BC    UNCOND,FLIENT               NO-FLIENT                      49133021
 005B36 9606 D435      00465        7235          OI    FSDLRD,XX06               SET BIT TO '1' FOR LABEL-RE    49140021
 005B3A 5820 C834      017C4        7236        L     JB,QNMCON                  ADDR OF QNMTBL                  49147021
 005B3E 9620 D34E      0037E        7237          OI    INSRSW,XX20               INSERT BCD-NAME                49154021
 005B42 45E0 B410      02328        7238        BAL   JP,MVQLCK                  -MVQLCK-IN QNMTBL               49161021
 005B46 D201 D488 D9D2 004B8 00A02  7239          MVC   FSDLRC+NX2(LX2),PONTER     PTR TO LRC+2 FIELD            49168021
 005B4C 4860 D9D0      00A00        7240        LH    JF,SAVSIZ                  SAVE SIZE OF NAME               49175021
 005B50 45E0 B000      01F18        7241 FLBGET BAL   JP,GETWD                   -GETWD                          49182021
 005B54 45E0 B088      01FA0        7242        BAL   JP,CHKBCD                  BCD - NAME ?                    49189021
 005B58 47F0 FE00      05B60        7243          B     *+NX8            ADDR QNMTBL                             49196021
 005B5C 47F0 FE14      05B74        7244        B     FLSWLB                FLSWLB                               49203021
 005B60 5820 C834      017C4        7245        L     JB,QNMCON                  ADDR OF QNMTBL                  49210021
 005B64 9620 D34E      0037E        7246          OI    INSRSW,XX20               INSERT BCD-NAME                49217021
 005B68 45E0 B410      02328        7247        BAL   JP,MVQLCK                  -MVQLCK-IN QNMTBL               49224021
 005B6C 4A60 D9D0      00A00        7248 FLSAV  AH    JF,SAVSIZ                  ADD SIZE                        49231021
1PH1A     IKFCBL10                                                                                              PAGE  151
-  LOC  OBJECT CODE    ADDR1 ADDR2  STMT   SOURCE STATEMENT                                       ASM 0201 11.03 02/14/15
0005B70 47F0 FDF0      05B50        7249        BC    UNCOND,FLBGET               -FLBGET                        49238021
 005B74 4060 D486      004B6        7250 FLSWLB STH   JF,FSDLRC                  SIZE TO LRC FIELD               49245021
 005B78 9604 D34D      0037D        7251          OI    LBLSW,XX04                SET 'ON' LBLSW                 49252021
 005B7C 47F0 FE24      05B84        7252        B     TODCHK                TOODHK                               49259021
 005B80 45E0 B000      01F18        7253 TODGTC BAL   JP,GETWD              GET NEXT WORD                        49266021
 005B84 9201 D9C2      009F2        7254 TODCHK   MVI   TEMPSW,XX01                                              49273021
 005B88 D501 C6E4 A6C2 01674 032B2  7255          CLC   CURCOD(LX2),TODCON        TOTALED                        49280021
 005B8E 4780 FE40      05BA0        7256        BE    TODARE                     YES                             49287021
 005B92 9202 D9C2      009F2        7257 TOGCHK   MVI   TEMPSW,XX02                                              49294021
 005B96 D501 C6E4 A7B3 01674 033A3  7258          CLC   CURCOD(LX2),TOGCON        TOTALING                       49301021
 005B9C 4770 FAE6      05846        7259        BNE   FLA2NT                     NO                              49308021
 005BA0 D501 C79A A131 0172A 02D21  7260 TODARE   CLC   NXTCOD(LX2),AREACN        YES                            49315021
 005BA6 4770 FE4E      05BAE        7261        BNE   TODIS                 TODIS                                49322021
 005BAA 45E0 B000      01F18        7262        BAL   JP,GETWD              GET NEXT WD                          49329021
 005BAE 45E0 B18E      020A6        7263 TODIS  BAL   JP,CHKIS              CHECK IS                             49336021
 005BB2 45E0 B000      01F18        7264        BAL   JP,GETWD              GET WORD                             49343021
 005BB6 9101 D9C2      009F2        7265          TM    TEMPSW,XX01              TOTALING AREA                   49350021
 005BBA 4780 FE82      05BE2        7266        BZ    TOGARE                    YES                              49357021
 005BBE 45E0 B088      01FA0        7267        BAL   JP,CHKBCD                  BCD NAME                        49364021
 005BC2 47F0 FE6A      05BCA        7268          B     *+NX8            TURN OFF TEMPSW                         49371021
 005BC6 47F0 FAE6      05846        7269        B     FLA2NT                     NO                              49378021
 005BCA D700 D9C2 D9C2 009F2 009F2  7270          XC    TEMPSW(LX1),TEMPSW                                       49385021
 005BD0 D21E D78A C6E5 007BA 01675  7271          MVC   TOTDA(LX31),CURN          STORE DN                       49392021
 005BD6 9640 D44E      0047E        7272          OI    FSDTOD,XX40              TOTALED AREA BIT ON             49399021
 005BDA 45E0 B000      01F18        7273        BAL   JP,GETWD              GET WORD                             49406021
 005BDE 47F0 FE32      05B92        7274        B     TOGCHK                TOGCHK                               49413021
 005BE2 5820 C834      017C4        7275 TOGARE L     JB,QNMCON                  ENTER IN QNMTBL                 49420021
 005BE6 D700 D9C2 D9C2 009F2 009F2  7276          XC    TEMPSW(LX1),TEMPSW                                       49427021
 005BEC 9610 D34E      0037E        7277          OI    OD2SW,XX10                                               49434021
 005BF0 9620 D34E      0037E        7278          OI    INSRSW,XX20                                              49441021
 005BF4 45E0 B410      02328        7279        BAL   JP,MVQLCK             MVQLCK                               49448021
 005BF8 D203 D47A D9D0 004AA 00A00  7280          MVC   FSDTDN(LX4),SAVSIZ        SAVE SIZE AND PTR              49455021
 005BFE 9680 D44E      0047E        7281          OI    FSDTOG,XX80               TOTALING AREA BIT ON           49462021
 005C02 47F0 FE20      05B80        7282        B     TODGTC                TODGTC                               49469021
 005C06 9604 D34D      0037D        7283 FLSWLA   OI    LBLSW,XX04                SET 'ON' LBLSW                 49476021
 005C0A 47F0 FAE2      05842        7284        BC    UNCOND,FLAENT         FLAENT                               49483021
 005C0E 9554 C79A      0172A        7285 FLDENT   CLI   NXTCOD,XX54               NEXT IS COBOL WORD             49490021
 005C12 4770 FECA      05C2A        7286        BC    NOTEQ,FLDCIS                NO-FLDCIS                      49497021
 005C16 95CD C79B      0172B        7287          CLI   NXTN,XXCD                 NEXT IS RECORD                 49504021
 005C1A 4780 FEC6      05C26        7288        BC    EQ,FLDGTW                   YES-FLDGTW                     49511021
 005C1E 95CF C79B      0172B        7289          CLI   NXTN,XXCF                 NEXT IS RECORDS                49518021
 005C22 4770 FECA      05C2A        7290        BC    NOTEQ,FLDCIS                NO-FLDCIS                      49525021
 005C26 45E0 B000      01F18        7291 FLDGTW BAL   JP,GETWD                   -GETWD                          49532021
 005C2A 45E0 B18E      020A6        7292 FLDCIS BAL   JP,CHKIS                   -CHKIS                          49539021
 005C2E 45E0 B000      01F18        7293        BAL   JP,GETWD                   -GETWD                          49546021
 005C32 9523 C6E4      01674        7294          CLI   CURCOD,XX23               UNQUAL BCD-NAME                49553021
 005C36 4770 FD00      05A60        7295        BC    NOTEQ,FLIENT                NO-FLIENT                      49560021
 005C3A 9602 D34D      0037D        7296          OI    DATASW,XX02               SET 'ON' DATASW                49567021
 005C3E 45E0 B000      01F18        7297 FLDGET BAL   JP,GETWD                   -GETWD                          49574021
 005C42 9523 C6E4      01674        7298          CLI   CURCOD,XX23               UNQUAL BCD-NAME                49581021
 005C46 4780 FEDE      05C3E        7299        BC    EQ,FLDGET                   YES-FLDGET                     49588021
 005C4A 47F0 FAE6      05846        7300        BC    UNCOND,FLA2NT               -FLA2NT                        49595021
 005C4E 45E0 DB28      00B58        7301 FILEXX BAL   JP,MSG55                   -MSG55                          49602021
 005C52 47F0 FFF6      05D56        7302        BC    UNCOND,BRDSCRD              DISCARD 01 BRANCHING RTN 4264  49609021
 005C56 58E0 D87C      008AC        7303 FILEXT L     JP,SV1F02                  RESTORE LINK REG                49616021
1PH1A     IKFCBL10                                                                                              PAGE  152
-  LOC  OBJECT CODE    ADDR1 ADDR2  STMT   SOURCE STATEMENT                                       ASM 0201 11.03 02/14/15
0005C5A 07FE                        7304        BCR   UNCOND,JP                   -RETURN                        49623021
                                    7305 *                                                                 4264  49630021
                                    7306 *                                                                 4264  49637021
                                    7307 *DEL                                                                    49644021
                                    7308 *DEL                                                                    49651021
                                    7309 *                                                                 4264  49658021
                                    7310 *                                                                 4264  49665021
1PH1A     IKFCBL10                                                                                              PAGE  153
-  LOC  OBJECT CODE    ADDR1 ADDR2  STMT   SOURCE STATEMENT                                       ASM 0201 11.03 02/14/15
0                                   7312 *=2          FD SCAN                                                    49679021
                                    7313 *                                                                       49686021
                                    7314 *****    FD SCAN    *****                                               49693021
                                    7315 *                                                                       49700021
 005C5C 50E0 D880      008B0        7316 FDSCN  ST    JP,SV1F03                  SAVE LINK REG                   49707021
 005C60 9238 D423      00453        7317          MVI   FSLEV,XX38                SET LEVEL FOR 'FD'             49714021
 005C64 45E0 FA9E      057FE        7318 FDAENT BAL   JP,FILSCN                  -FILSCN                         49721021
 005C68 9500 D44F      0047F        7319 FDBENT   CLI   FSDFN,XX00                FILE-NAME                      49728021
 005C6C 4770 FF18      05C78        7320        BC    NOTEQ,FDSCH                 YES-FDSCH                      49735021
 005C70 45E0 DB28      00B58        7321        BAL   JP,MSG55                   -MSG55                          49742021
 005C74 47F0 FFF6      05D56        7322        BC    UNCOND,BRDSCRD              DISCARD 01 BRANCHING RTN 4264  49749021
 005C78 4170 D44F      0047F        7323 FDSCH  LA    JG,FSDFN                   ADDR OF FILE-NAME               49756021
 005C7C 45E0 B5A0      024B8        7324        BAL   JP,SCHENV                  -SCHENV                         49763021
 005C80 9140 D34D      0037D        7325          TM    SCHSW,XX40                TEST 'IF ZERO' NOT FOUND       49770021
 005C84 4710 FF30      05C90        7326        BC    ONES,FDFOND                 FOUND-FDFOND                   49777021
 005C88 45E0 DB2C      00B5C        7327        BAL   JP,MSG56                   -MSG56                          49784021
 005C8C 47F0 FFF6      05D56        7328        BC    UNCOND,BRDSCRD              DISCARD 01 BRANCHING RTN 4264  49791021
 005C90 9604 D352      00382        7329 FDFOND   OI    FD01SW,XX04               SET 'ON' FD01SW                49798021
 005C94 D72F D6B8 D6B8 006E8 006E8  7330        XC    FNWA(FNSIZ),FNWA          SET FNWA TO ZEROS                49805021
                             00000  7331        USING ENFSDS,JB                                                  49812021
 005C9A 9101 2019      00019        7332        TM    ENFFL3,ENFRPT             NO REC PROT BIT ON IN ENVTBL     49819021
 005C9E 4780 FF46      05CA6        7333        BZ    FDEFN1                    NO                               49826021
 005CA2 9602 D6C8      006F8        7334        OI    FNFLG1,FNRDP              TURN ON NO REC PROT BIT IN F     49833021
 005CA6 9101 200B      0000B        7335 FDEFN1 TM    ENFFL2,ENFAPP             RANDOM PROCESSING                49840021
 005CAA 4780 FF52      05CB2        7336        BZ    FDEFN2                    NO                               49847021
 005CAE 9601 D6C8      006F8        7337        OI    FNFLG1,FNPMR              TURN ON RAND PROC BIT            49854021
 005CB2 9180 200A      0000A        7338 FDEFN2 TM    ENFFL1,ENFACC             RANDOM ACCESS                    49861021
 005CB6 4780 FF5E      05CBE        7339        BZ    FDEFN3                FDEFN3                               49868021
 005CBA 9680 D6C8      006F8        7340        OI    FNFLG1,FNACR              TURN ON RAND ACCESS BIT          49875021
 005CBE 9102 200A      0000A        7341 FDEFN3   TM    ENFFL1,XX02              DIRECT ACCESS FILE              49882021
 005CC2 4780 FF6A      05CCA        7342        BZ    FDEFN4                    NO                               49889021
 005CC6 9640 D6C8      006F8        7343        OI    FNFLG1,FNMSF              MASS STORAGE BIT ON              49896021
 005CCA 9106 D435      00465        7344 FDEFN4   TM    FSDLRD,XX06              LABEL RECS DN OR NO SPECD       49903021
 005CCE 4790 FF86      05CE6        7345          BC    R9,FDEFN5                YES                             49910021
 005CD2 9102 D435      00465        7346          TM    FSDLRD,XX02              LABEL RECORDS STANDARD          49917021
 005CD6 4710 FF82      05CE2        7347        BO    FDEFN6                    YES                              49924021
 005CDA 9610 D6C8      006F8        7348        OI    FNFLG1,FNLRO              LABEL RECS OMITTED BIT ON        49931021
 005CDE 47F0 FF86      05CE6        7349        B     FDEFN5                FDEFN5                               49938021
 005CE2 9620 D6C8      006F8        7350 FDEFN6 OI    FNFLG1,FNLRS              LAB RECS STAND BIT ON            49945021
                             05CE6  7351 FDEFN5 EQU   *                                                          49952021
                                    7352 *       TM   ENFFL2,ENFAPP             IS THERE APPTBL ENTRY FOR FI     49959021
                                    7353 *       BZ   FDGPIO                    NO                               49966021
                                    7354 *       LH   JC,ENFAPT                 GET DISP IN APPTBL               49973021
                                    7355 *       L    JA,APPCON                 APPTBL TIB                       49980021
                                    7356 *       L    JA,0(JA)                  TAMM                             49987021
                                    7357 *       L    JA,0(JA)                  TABLE                            49994021
                                    7358 *       LA   JA,0(JA,JC)               ADDR OF ENTRY                    50001021
                                    7359 *       MVC  FNWA+2(2),0(JA)           RPDNUM TO WORK AREA              50008021
 005CE6 5020 DA48      00A78        7360 FDGPIO ST    JB,RSAVE2                  ADDR OF ENVTBL ENTRY            50015021
 005CEA 5820 C84C      017DC        7361        L     JB,PIOCON                  ADDR OF TIB ENVTBL ENTRY        50022021
 005CEE 4140 0003      00003        7362        LA    JD,PIOSIZ                  SIZE OF 3                       50029021
 005CF2 4170 D6C9      006F9        7363        LA    JG,FNWFN                   ADDR OF FN                      50036021
 005CF6 45E0 B464      0237C        7364        BAL   JP,MVSERT                  CALL INSERT TO PIOTBL           50043021
 005CFA 5840 DA48      00A78        7365        L     JD,RSAVE2                  ADDR OF ENVTBL ENTRY            50050021
 005CFE 9104 400B      0000B        7366          TM    DX11(JD),XX04             RERUN FILE                     50057021
1PH1A     IKFCBL10                                                                                              PAGE  154
-  LOC  OBJECT CODE    ADDR1 ADDR2  STMT   SOURCE STATEMENT                                       ASM 0201 11.03 02/14/15
0005D02 4780 FFAA      05D0A        7367        BZ    FDPIO                      NO - FDPIO                      50064021
 005D06 9680 2001      00001        7368          OI    DX1(JB),XX80              SET ON RERUN IN PIOTBL         50071021
 005D0A D201 D6B8 D9D2 006E8 00A02  7369 FDPIO    MVC   FNWA(LX2),PONTER          PUT PIOTBL PTR IN FNWA         50078021
 005D10 D21E D6C9 D44F 006F9 0047F  7370          MVC   FNWFN(LX31),FSDFN         FN W/BLANKS TO FNTBL WA        50085021
 005D16 5820 C874      01804        7371        L     JB,FNTCON                  ADDR OF TIB 'FNTBL'             50092021
 005D1A 4140 0030      00030        7372        LA    JD,FNSIZ                  SIZE OF FNTBL                    50099021
 005D1E 4170 D6B8      006E8        7373        LA    JG,FNWA                    ADDR OF FNWA FIELD              50106021
 005D22 45E0 B464      0237C        7374        BAL   JP,MVSERT                  CALL INSERT TO FNTBL            50113021
 005D26 D201 D763 D9D2 00793 00A02  7375          MVC   RNWA(LX2),PONTER          SAVE FNTBL PTR IN RNWA 'RNT    50120021
 005D2C 91C0 D44E      0047E        7376          TM    FSDTOD,XXC0              TOTALED AND TOTALING SPEC'D     50127021
 005D30 4740 FFFA      05D5A        7377        BM    FDTOTM                    BOTH NOT SPEC'D                  50134021
 005D34 4780 FFFE      05D5E        7378        BZ    FILCOL                    NEITHER WAS SPEC'D               50141021
 005D38 9680 D355      00385        7379          OI    TOTUSD,XX80              TURN ON TOTALED BIT OF PROGR    50148021
 005D3C D201 D788 D9D2 007B8 00A02  7380          MVC   TOTPTR(LX2),PONTER       SAVE PONTER TO FNTBL            50155021
 005D42 5820 C88C      0181C        7381        L     JB,TOTCON                                                  50162021
 005D46 4140 0022      00022        7382          LA    JD,DX34                   LENGTH OF ENTRY                50169021
 005D4A 4170 D787      007B7        7383        LA    JG,TOTCT                  ENTER IN TABLE                   50176021
 005D4E 45E0 B464      0237C        7384        BAL   JP,MVSERT             MVSERT                               50183021
 005D52 47F0 FFFE      05D5E        7385        B     FILCOL                FILCOL                               50190021
                                    7386 **********************                                                  50197021
                                    7387 *                                                                       50204021
                                    7388 *                                                                       50211021
                                    7389 *                                                                       50218021
 005D56 47F0 CECA      01E5A        7390 BRDSCRD  BC    UNCOND,BRDSCD                 BR                         50225021
                                    7391 *                                                                       50232021
                                    7392 *                                                                       50239021
                                    7393 *                                                                       50246021
                                    7394 *********************                                                   50253021
 005D5A 45E0 DAB4      00AE4        7395 FDTOTM BAL   JP,MSG26              ERROR MSG                            50260021
                                    7396 ******************                                                      50267021
 005D5E 58F0 CE54      01DE4        7397 FILCOL L     JQ,ADFLCL                                                  50274021
 005D62 50F0 DA18      00A48        7398        ST    JQ,LNKR15                                                  50281021
                             0AC80  7399        USING FILCOQ,JQ                                                  50288021
 005D66 45E0 F000      0AC80        7400        BAL   JP,FILCOQ             FILCOQ                               50295021
                                    7401        DROP  JQ                                                         50302021
                                    7402 ********************                                                    50309021
                             04D60  7403        USING DDSCN,JQ                                                   50316021
 005D6A 58E0 D880      008B0        7404          L     JP,SV1F03                RESTORE LNK REG                 50323021
 005D6E 07FE                        7405        BCR    UNCOND,JP                  -RETURN                        50330021
                                    7406 *                                                                       50337021
                                    7407 *DEL                                                                    50344021
                                    7408 *DEL                                                                    50351021
                                    7409 *DEL                                                                    50358021
                                    7410 *DEL                                                                    50365021
                                    7411 *DEL                                                                    50372021
                                    7412 *DEL                                                                    50379021
                                    7413 *DEL                                                                    50386021
1PH1A     IKFCBL10                                                                                              PAGE  155
-  LOC  OBJECT CODE    ADDR1 ADDR2  STMT   SOURCE STATEMENT                                       ASM 0201 11.03 02/14/15
0005D70                             7415 IKF108A  CSECT                                                    4264  50400021
                                    7416 *                                                                 4264  50407021
                                    7417 *        ROUTINE USED TO DISCARD LEVEL 01 AND ALL SUBORDINATE     4264  50414021
                                    7418 *        LEVELS ASSOCIATED WITH DISCARDED FD,SD                   4264  50421021
                                    7419 *        (MESSAGES 55,56)                                         4264  50428021
                                    7420 *                                                                 4264  50435021
                             05D70  7421          USING *,R5                                               4264  50442021
 005D70 50E0 5088      05DF8        7422 DSCRD01  ST    JP,SAVEJP           SAVE RETURN REGISTER           4264  50449021
 005D74 9130 C6E4      01674        7423 DSCRD011 TM    CURCOD,XX30         MAJOR 0?                       4264  50456021
 005D78 4770 503A      05DAA        7424          BC    NOTZER,TESTNEXT     NO - TEST 'NEXT' FIELDS        4264  50463021
 005D7C D501 C6E4 C58D 01674 0151D  7425          CLC   CURCOD(LX2),EOSCON  END-OF-SENTENCE?               4264  50470021
 005D82 4780 503A      05DAA        7426          BE    TESTNEXT            YES-POSSIBLE 01 IN NEXT        4264  50477021
 005D86 9543 C6E4      01674        7427          CLI   CURCOD,XX43         LEVEL NUMBER?                  4264  50484021
 005D8A 4770 5080      05DF0        7428          BNE   RETRTNE             NO-MAJ0 BUT NOT EOS OR LEV.NO. 4264  50491021
 005D8E 9531 C6E5      01675        7429          CLI   CURN,XX31           LEVEL 01 - 49?                 4264  50498021
 005D92 47D0 5070      05DE0        7430          BNH   BSKIPGT             YES - DISCARD                  4264  50505021
 005D96 9533 C6E5      01675        7431          CLI   CURN,XX33           LEVEL 88?                      4264  50512021
 005D9A 4780 5070      05DE0        7432          BE    BSKIPGT             YES - DISCARD                  4264  50519021
 005D9E 9539 C6E5      01675        7433          CLI   CURN,XX39           LEVEL 66?                      4264  50526021
 005DA2 4780 5070      05DE0        7434          BE    BSKIPGT             YES - DISCARD                  4264  50533021
 005DA6 47F0 5080      05DF0        7435          B     RETRTNE             ELSE - RETURN                  4264  50540021
                                    7436 *                                                                 4264  50547021
 005DAA 9130 C79A      0172A        7437 TESTNEXT TM    NXTCOD,XX30         MAJOR 0?                       4264  50554021
 005DAE 4770 5070      05DE0        7438          BC    NOTZER,BSKIPGT      NO-DISCARD UNTIL MAJOR 0       4264  50561021
 005DB2 D501 C79A C58D 0172A 0151D  7439          CLC   NXTCOD(LX2),EOSCON  END-OF-SENTENCE?               4264  50568021
 005DB8 4780 5070      05DE0        7440          BE    BSKIPGT             YES-POSSIBLE 01 FOLLOWING      4264  50575021
 005DBC 9543 C79A      0172A        7441          CLI   NXTCOD,XX43         LEVEL NUMBER?                  4264  50582021
 005DC0 4770 5080      05DF0        7442          BNE   RETRTNE             NO-MAJ0 BUT NOT EOS OR LEV.NO. 4264  50589021
 005DC4 9531 C79B      0172B        7443          CLI   NXTN,XX31           LEVEL 01 - 49?                 4264  50596021
 005DC8 47D0 5070      05DE0        7444          BNH   BSKIPGT             YES - DISCARD                  4264  50603021
 005DCC 9533 C79B      0172B        7445          CLI   NXTN,XX33           LEVEL 88?                      4264  50610021
 005DD0 4780 5070      05DE0        7446          BE    BSKIPGT             YES - DISCARD                  4264  50617021
 005DD4 9539 C79B      0172B        7447          CLI   NXTN,XX39           LEVEL 66?                      4264  50624021
 005DD8 4780 5070      05DE0        7448          BE    BSKIPGT             YES - DISCARD                  4264  50631021
 005DDC 47F0 5080      05DF0        7449          B     RETRTNE             ELSE RETURN                    4264  50638021
                                    7450 *                                                                 4264  50645021
 005DE0 9680 AF02      03AF2        7451 BSKIPGT  OI    DSCRDSW,XX80        RETURN EOS IN CUR                    50652021
 005DE4 45E0 ACDE      038CE        7452          BAL   JP,SKIPGT           GET NEXT MAJOR 0                     50659021
 005DE8 947F AF02      03AF2        7453          NI    DSCRDSW,XX7F        REINIT SWITCH                        50666021
 005DEC 47F0 5004      05D74        7454          B     DSCRD011            PROCESS IT                     4264  50673021
                                    7455 *                                                                 4264  50680021
 005DF0 58E0 5088      05DF8        7456 RETRTNE  L     JP,SAVEJP           RESTORE RETURN REGISTER        4264  50687021
 005DF4 07FE                        7457          BR    JP                  RETURN TO CALLING ROUTINE      4264  50694021
                                    7458 *                                                                 4264  50701021
 005DF6 0000
 005DF8 00000000                    7459 SAVEJP   DC    F'0'                R14 SAVEAREA                   4264  50708021
                                    7460 *                                                                 4264  50715021
                                    7461          DROP  R5                                                 4264  50722021
1PH1A     IKFCBL10                                                                                              PAGE  156
-  LOC  OBJECT CODE    ADDR1 ADDR2  STMT   SOURCE STATEMENT                                       ASM 0201 11.03 02/14/15
0005E00                             7463 IKF109 CSECT                                                            50736021
                                    7464 *                                                                       50743021
                                    7465 **********                                                              50750021
                                    7466 *                                                                       50757021
                                    7467 *             PATCH AREA                                                50764021
                                    7468 *                                                                       50771021
 005E00 0000000000000000            7469 PATCH2 DC    40F'0'                    PATCH AREA FOR REPORT WRITER     50778021
                                    7470 *                                                                       50785021
                                    7471 *                                                                       50792021
                                    7472 **********                                                              50799021
                                    7473 *=1    REPORT WRITER SCAN                                               50806021
                                    7474 ****                  REPORT SECTION ANALYSIS                           50813021
                                    7475 *                                                                       50820021
                                    7476 *                                                                       50827021
                                    7477 *                                                                       50834021
                                    7478 *                                                                       50841021
                                    7479 *      RDSCN -- SCANS AND ANALYZES REPORT DESCRIPTION                   50848021
                                    7480 *               ENTRIES. BUILDS TABLE FOR REPORT,AND                    50855021
                                    7481 *               SAVES PARAMETERS TO BE USED WHEN                        50862021
                                    7482 *               GENERATING INTERNAL PROCEDURE TEXT FOR                  50869021
                                    7483 *               EACH GROUP OF THE REPORT                                50876021
                                    7484 *                                                                       50883021
                                    7485 *               PRAMP = NO OF LINES ON PAGE                             50890021
                                    7486 *               PRAMH = 1ST HEADING LINE                                50897021
                                    7487 *               PRAMD = 1ST DETAIL LINE                                 50904021
                                    7488 *               PRAME = LAST DETAIL LINE                                50911021
                                    7489 *               PRAMF = LAST FOOTING LINE                               50918021
                                    7490 *                                                                       50925021
                                    7491 *               CONTROLS GO INTO CONTROLS TABLE -CTLTBL                 50932021
                                    7492 *               REPORT-NAME GOES INTO RW TABLE  -RWRTBL                 50939021
                                    7493 *               CODE GOES INTO REPORTS TABLE    -RPTTBL                 50946021
                             05EA0  7494 RDSCAN EQU   *                                                          50953021
                                    7495 * IF RWRTBL IS NOT PRIMED, REPORT SECTION IS NOT ALLOWED.               50960021
                                    7496 *                                                                       50967021
                                    7497 *                                                                       50974021
 005EA0 9180 D9C0      009F0        7498          TM    FSTRC,XX80               WAS RWRTBL PRIMED               50981021
 005EA4 4780 8C2A      077DA        7499        BC    ZERO,RDER07               NO...NO REPORTS ALLOWED          50988021
 005EA8 4160 C592      01522        7500        LA    JF,RSECT                   GEN REPORT SECT HDR             50995021
 005EAC 45E0 B684      0259C        7501        BAL   JP,GENB               GENB                                 51002021
 005EB0 D20B AA63 D683 03653 006B3  7502          MVC   LCTRKN(LX12),UBLNK        REMOVE LINE-COUNTER FROM CW    51009021
 005EB6 D20B AA81 D683 03671 006B3  7503          MVC   PCTRKN(LX12),UBLNK        REMOVE PAGE-COUNTER FROM CW    51016021
 005EBC D20B AA90 D683 03680 006B3  7504          MVC   PTSWKN(LX12),UBLNK        REMOVE PRINT-SWITCH FROM CW    51023021
 005EC2 D20A A9B3 D683 035A3 006B3  7505          MVC   RETCON(LX11),UBLNK       REMOVE RETURN-CODE              51030021
 005EC8 D20A A9C1 D683 035B1 006B3  7506          MVC   SRETCN(LX11),UBLNK       REMOVE SORT-RETURN              51037021
 005ECE D20A A9CF D683 035BF 006B3  7507          MVC   TODTCN(LX11),UBLNK       REMOVE TIME-OF-DAY              51044021
 005ED4 D20B A9FA D683 035EA 006B3  7508          MVC   CRDTCN(LX12),UBLNK       REMOVE CURRENT-DATE             51051021
 005EDA D20D AB3E D683 0372E 006B3  7509          MVC   SFILCN(LX14),UBLNK       REMOVE SORT-FILE-SIZE           51058021
 005EE0 D20D AB4F D683 0373F 006B3  7510          MVC   SCORCN(LX14),UBLNK       REMOVE SORT-CORE-SIZE           51065021
 005EE6 D20D AB60 D683 03750 006B3  7511          MVC   SMODCN(LX14),UBLNK       REMOVE SORT-MODE-SIZE           51072021
 005EEC D20B AA54 D683 03644 006B3  7512          MVC   LBRTCN(LX12),UBLNK              LABEL-RETURN             51079021
 005EF2 5810 C814      017A4        7513        L     JA,COSADR                   SET CODE TO GEN RPTSVE/RPT     51086021
 005EF6 92FF 11B4      001B4        7514          MVI   RPTSAV,XXFF                                              51093021
 005EFA 58F0 C818      017A8        7515        L     JQ,ADPRIM                                                  51100021
 005EFE 4110 C8B4      01844        7516        LA    JA,CTLTB                    PRIME CONTROLS TABLE           51107021
 005F02 05EF                        7517        BALR  JP,JQ                 PRIME                                51114021
1PH1A     IKFCBL10                                                                                              PAGE  157
-  LOC  OBJECT CODE    ADDR1 ADDR2  STMT   SOURCE STATEMENT                                       ASM 0201 11.03 02/14/15
0005F04 4110 C8C4      01854        7518        LA    JA,ROUTB                    PRIME ROUTINE TABLE            51121021
 005F08 05EF                        7519        BALR  JP,JQ                 PRIME                                51128021
 005F0A 4110 C8CC      0185C        7520        LA    JA,DETTB                    PRIME DETAIL TABLE             51135021
 005F0E 05EF                        7521        BALR  JP,JQ                 PRIME                                51142021
 005F10 4110 C8EC      0187C        7522          LA    R1,SRCTB                  PRIME SOURCE TABLE             51149021
 005F14 05EF                        7523          BALR  R14,R15          PRIME TABLE                             51156021
 005F16 4110 C8DC      0186C        7524        LA    JA,SUMTB                    PRIME SUM TABLE                51163021
 005F1A 05EF                        7525        BALR  JP,JQ                 PRIME                                51170021
 005F1C 4110 C8BC      0184C        7526        LA    JA,ROLTB                    PRIME ROLL TABLE               51177021
 005F20 05EF                        7527        BALR  JP,JQ                 PRIME                                51184021
 005F22 4110 C8A4      01834        7528        LA    JA,RNMTB                    PRIME RPT-NAME TABLE           51191021
 005F26 05EF                        7529        BALR  JP,JQ                 PRIME                                51198021
 005F28 4110 C8E4      01874        7530        LA    JA,QALTB                    PRIME QUAL NM(RW) TABLE        51205021
 005F2C 05EF                        7531        BALR  JP,JQ                 PRIME                                51212021
 005F2E 4110 C8D4      01864        7532        LA    JA,NPTTB                    PRIME N PT TABLE               51219021
 005F32 05EF                        7533        BALR  JP,JQ                 PRIME                                51226021
 005F34 4110 C904      01894        7534        LA    JA,GCNTB                  PRIME                            51233021
 005F38 05EF                        7535        BALR  JP,JQ                         GCNTBL                       51240021
 005F3A 4110 C8F4      01884        7536        LA    JA,SMSTB                  PRIME SUM-SOURCE TBL             51247021
 005F3E 05EF                        7537        BALR  JP,JQ                 PRIME                                51254021
 005F40 4110 C8FC      0188C        7538        LA    JA,SNMTB                  PRIME SUM NAME TBL               51261021
 005F44 05EF                        7539        BALR  JP,JQ                 PRIME                                51268021
 005F46 58F0 C81C      017AC        7540        L     JQ,ADSERT                  ADR OF INSERT                   51275021
 005F4A 5810 C8A4      01834        7541        L     JA,RNMCON                   CAL INSERT                     51282021
 005F4E 05EF                        7542        BALR  JP,JQ                       TO RNMTBL                      51289021
 005F50 58F0 D838      00868        7543          L     JQ,SVREG+NX56                                            51296021
 005F54 D20F 2000 D683 00000 006B3  7544          MVC   DX0(LX16,JB),UBLNK         DUMMY 1ST ENTRY TO RNMTBL     51303021
 005F5A 58F0 C81C      017AC        7545        L     JQ,ADSERT                 ADR OF INSERT                    51310021
 005F5E 5810 C8FC      0188C        7546        L     JA,SNMCON                 SNMTBL                           51317021
 005F62 05EF                        7547        BALR  JP,JQ                     CALL INSERT                      51324021
 005F64 58F0 D838      00868        7548          L     JQ,SVREG+NX56            RESTORE 15                      51331021
 005F68 D20F 2000 D683 00000 006B3  7549          MVC   DX0(LX16,JB),UBLNK        DUMMY 1ST ENTRY IN SNMTBL      51338021
 005F6E 4140 0026      00026        7550          LA    JD,DX38(JR)                INSERT DUMMY ENT -DETTBL      51345021
 005F72 5820 C8CC      0185C        7551        L     JB,DETCON                                                  51352021
 005F76 4170 C942      018D2        7552        LA    JG,DETENT                                                  51359021
 005F7A 45E0 B464      0237C        7553        BAL   JP,MVSERT             MVSERT                               51366021
 005F7E 5810 C8F4      01884        7554        L     JA,SMSCON                 SMSTBL TIB                       51373021
 005F82 9200 1000      00000        7555          MVI   DX0(JA),XX00             VARIABLE LENGTH TBL             51380021
 005F86 4100 0004      00004        7556          LA    JR,DX4(JR)               SIZE OF 4                       51387021
 005F8A 58F0 C81C      017AC        7557        L     JQ,ADSERT                 ADDRESS OF INSERT                51394021
 005F8E 05EF                        7558        BALR  JP,JQ                     GET ADDRESS                      51401021
 005F90 58F0 D838      00868        7559          L     JQ,SVREG+NX56            RESTORE BASE                    51408021
 005F94 D203 2000 C99C 00000 0192C  7560          MVC   DX0(LX4,JB),DUMENT        DUMMY ENTRY TO SMSTBL          51415021
 005F9A D201 9C94 C6E2 06B34 01672  7561          MVC   PSCDN(LX2),CURGCN         GENERATE PRINT-SW LD TXT ON    51422021
 005FA0 D201 9C07 C6E2 06AA7 01672  7562          MVC   LNCDN(LX2),CURGCN                                        51429021
 005FA6 D201 9BE4 C6E2 06A84 01672  7563          MVC   ABSCDN(LX2),CURGCN       GCN TO ABS.LIN                  51436021
 005FAC 1733                        7564        XR    JC,JC                                                      51443021
 005FAE 4330 9B52      069F2        7565        IC    JC,PUTCT9                                                  51450021
 005FB2 4120 9C91      06B31        7566        LA    JB,PRSWLD                                                  51457021
 005FB6 45E0 99C6      06866        7567        BAL   JP,PUTF3A             PUTF3A                               51464021
 005FBA 9534 C6E5      01675        7568          CLI   CURN,XX34                 1ST WORD = RD                  51471021
 005FBE 4770 8C12      077C2        7569        BC    NOTEQ,RSECER               NO - MESSAGE                    51478021
 005FC2 9601 D34F      0037F        7570 RDSCNA   OI    RPTWSW,XX01               SET ON REPORT SECTION SWITC    51485021
 005FC6 9602 D353      00383        7571          OI    RWLTSW,XX02               SET 'ON' RWLTSW                51492021
                             05FCA  7572 RDSCN  EQU   *                                                          51499021
1PH1A     IKFCBL10                                                                                              PAGE  158
-  LOC  OBJECT CODE    ADDR1 ADDR2  STMT   SOURCE STATEMENT                                       ASM 0201 11.03 02/14/15
0005FCA 5880 C014      00FA4        7573        L    JH,DATDV2                                                   51506021
 005FCE 45E0 8000      06BB0        7574        BAL   JP,FLUSH                   GEN RPT-CALL GNWR               51513021
                                    7575 *IF NOT FIRST RD,GEN ROUTINES TO COMPLETE PREVIOUS RD                   51520021
 005FD2 9140 D36C      0039C        7576          TM    FRSTRD,XX40              1ST RD ALREADY PROCESSED        51527021
 005FD6 4780 919A      0603A        7577        BC    ZERO,RDSCNB               NO...CONTINUE                    51534021
 005FDA 9120 D360      00390        7578          TM    GOODRD,XX20              YES..WAS IT A GOOD RD           51541021
 005FDE 4780 919A      0603A        7579        BC    ZERO,RDSCNB               NO...DO NOT FINISH LAST RD       51548021
 005FE2 45E0 8396      06F46        7580        BAL   JP,GNSPRT                  GEN SPEC ROUTS-SUM,RESET,RO     51555021
 005FE6 5810 C8B4      01844        7581        L     JA,CTLCON                  CLEAR CTLTBL                    51562021
 005FEA 45E0 B6B6      025CE        7582        BAL   JP,CLRTBL             CLEAR TABLES                         51569021
 005FEE 5810 C8BC      0184C        7583        L     JA,ROLCON                  CLEAR ROLLTBL                   51576021
 005FF2 45E0 B6B6      025CE        7584        BAL   JP,CLRTBL             CLEAR TABLES                         51583021
 005FF6 5810 C8DC      0186C        7585        L     JA,SUMCON                  CLEAR SUMTBL                    51590021
 005FFA 45E0 B6B6      025CE        7586        BAL   JP,CLRTBL             CLEAR TABLES                         51597021
 005FFE 5810 C8E4      01874        7587        L     JA,QALCON                  CLEAR QUAL NM (RW) TABLE        51604021
 006002 45E0 B6B6      025CE        7588        BAL   JP,CLRTBL             CLEAR TABLES                         51611021
 006006 5810 C904      01894        7589        L     JA,GCNCON                 CLEAR                            51618021
 00600A 45E0 B6B6      025CE        7590        BAL   JP,CLRTBL                     GCNTBL                       51625021
 00600E 5810 C8EC      0187C        7591        L     JA,SRCCON                 CLEAR SRCTBL                     51632021
 006012 45E0 B6B6      025CE        7592        BAL   JP,CLRTBL             CLEAR TABLES                         51639021
 006016 5810 C8F4      01884        7593        L     JA,SMSCON                 RESET                            51646021
 00601A 45E0 B6B6      025CE        7594        BAL   JP,CLRTBL                    SMSTBL AND INSERT             51653021
 00601E 9204 1005      00005        7595          MVI   DX5(JA),XX04                   DUMMY ENTRY               51660021
 006022 5810 C8FC      0188C        7596        L     JA,SNMCON                 RESET                            51667021
 006026 45E0 B6B6      025CE        7597        BAL   JP,CLRTBL                    SNMTBL AND INSERT             51674021
 00602A 9223 1005      00005        7598          MVI   DX5(JA),XX23                   DUMMY ENTRY               51681021
 00602E D201 CDE8 C14C 01D78 010DC  7599        MVC   LSTSUM,HWZERO              RESET PTR TO LST SUM ENT        51688021
 006034 D201 CE8A C14C 01E1A 010DC  7600        MVC   NXASUM,HWZERO              RESET SIZE OF LAST SUM TBL      51695021
 00603A D703 D360 D360 00390 00390  7601 RDSCNB XC    RDSW,RDSW                  RESET RD SWITCHES               51702021
 006040 D701 CD22 CD22 01CB2 01CB2  7602        XC    GCOUNT,GCOUNT             RESET GROUP INDICATE CTR         51709021
 006046 D701 CDC0 CDC0 01D50 01D50  7603        XC    CTSVDP,CTSVDP             RESET TO ZERO                    51716021
 00604C 45E0 B000      01F18        7604        BAL   JP,GETWD                   GET REPORT NAME                 51723021
 006050 9523 C6E4      01674        7605          CLI   CURCOD,XX23               IS WORD BCD NAME               51730021
 006054 4770 8C0A      077BA        7606        BC    NOTEQ,NMERR                NO- ILLEGAL NAME                51737021
 006058 D21F C973 C6E4 01903 01674  7607          MVC   CURRD(LX32),CURCOD        PUT  CURRENT RD IN CURRD       51744021
                                    7608 *GET NAME FROM RWRTABLE                                                 51751021
 00605E 5810 C8AC      0183C        7609        L     JA,RWRCON                  RWRTBL TIB                      51758021
 006062 45E0 BCC2      02BDA        7610        BAL   JP,TBLNIT                  GET START ETC                   51765021
 006066 4780 8C2A      077DA        7611        BC    ZERO,RDER07                YES EXIT NO RPTS ALLOWED        51772021
 00606A 4122 1000      00000        7612          LA    JB,DX0(JB,JA)              LAST ADR OF TABLE             51779021
 00606E D201 C9A0 C14C 01930 010DC  7613          MVC   DRWDSP(LX2),HWZERO        RESET RD DISP IN TBL           51786021
 006074 D51D C6C3 1000 01653 00000  7614 RDSCN1   CLC   CURWD(LX30),DX0(JA)        RD NAME FOUND                 51793021
 00607A 4780 91F8      06098        7615        BC    EQ,RDSCN2                  YES                             51800021
 00607E 4111 0030      00030        7616          LA    JA,DX48(JA)              SET JA TO NEXT ENTRY            51807021
 006082 4830 C9A0      01930        7617        LH    JC,DRWDSP                  STEP DISPL IN RWRTBL            51814021
 006086 4133 0030      00030        7618          LA    JC,DX48(JC)                                              51821021
 00608A 4030 C9A0      01930        7619        STH   JC,DRWDSP                                                  51828021
 00608E 1912                        7620        CR    JA,JB                      OUT OF TABLE                    51835021
 006090 4740 91D4      06074        7621        BC    LO,RDSCN1                  NO-LOOK AGAIN                   51842021
 006094 47F0 8C36      077E6        7622        BC    UNCOND,RDER08              LAST-EXIT                       51849021
 006098                             7623 RDSCN2 DS    0H                                                         51856021
 006098 91FF 102E      0002E        7624          TM    DX46(JA),XXFF            WAS RD ALREADY PROCESSED        51863021
 00609C 4710 9208      060A8        7625        BO    RDSCN4                    NO...OK...CONTINUE               51870021
 0060A0 45E0 DCEC      00D1C        7626        BAL   JP,MSG168                 YES..ERROR                       51877021
 0060A4 47F0 8C3A      077EA        7627        B     RDER8                     GO SKIP TILL NEW RD              51884021
1PH1A     IKFCBL10                                                                                              PAGE  159
-  LOC  OBJECT CODE    ADDR1 ADDR2  STMT   SOURCE STATEMENT                                       ASM 0201 11.03 02/14/15
00060A8                             7628 RDSCN4 DS    0H                                                         51891021
 0060A8 D204 9AEE 101E 0698E 0001E  7629          MVC   RDRN1+NX1(LX5),DX30(JA)    SAVE REC NAME                 51898021
 0060AE D201 9AFA 1023 0699A 00023  7630          MVC   RDFNP(LX2),DX35(JA)        GET FILE NAME PTR             51905021
 0060B4 D201 CDC4 1025 01D54 00025  7631          MVC   RWLREC(LX2),DX37(JA)      SAVE REC-SIZE IN BINARY        51912021
 0060BA 9500 1027      00027        7632          CLI   DX39(JA),XX00             2ND FILE-NAME SPECIFIED        51919021
 0060BE 4780 9232      060D2        7633        BC    EQ,RDSC2A                  NO                              51926021
 0060C2 9602 D360      00390        7634          OI    SCNDFD,XX02               YES..TURN ON 2ND-FILE SW       51933021
 0060C6 D204 9AF5 1027 06995 00027  7635          MVC   RDRN22+NX1(LX5),DX39(JA)   GET 2ND RECORD-NAME           51940021
 0060CC D201 9AFC 102C 0699C 0002C  7636          MVC   RDFNP2(LX2),DX44(JA)       GET 2ND FILE-NAME-PTR         51947021
 0060D2                             7637 RDSC2A DS    0H                                                         51954021
 0060D2 5810 C874      01804        7638        L     JA,FNTCON                  FNTBL TIB                       51961021
 0060D6 45E0 BCC2      02BDA        7639        BAL   JP,TBLNIT                 GET START ETC                    51968021
 0060DA 4830 9AFA      0699A        7640        LH    JC,RDFNP                  GET DISPC IN  FNTBL              51975021
 0060DE 4123 1000      00000        7641          LA    JB,DX0(JC,JA)            POINT TO ENTRY IN FNTBL         51982021
 0060E2 D21E 9AAD 2011 0694D 00011  7642          MVC   RDFLN1(LX31),FNWFND(JB)   GET FILE NAME FROM FNTBL       51989021
 0060E8 9102 D360      00390        7643          TM    SCNDFD,XX02              2ND FILE-NAME SPECIFIED         51996021
 0060EC 4780 925E      060FE        7644        BC    ZERO,RDSCN3               NO...BYPASS 2ND MOVE             52003021
 0060F0 4830 9AFC      0699C        7645        LH    JC,RDFNP2                 GET 2ND DISPL IN FNTBL           52010021
 0060F4 4123 1000      00000        7646          LA    JB,DX0(JC,JA)            POINT TO ENTRY IN FNTBL         52017021
 0060F8 D21E 9ACD 2011 0696D 00011  7647          MVC   RDFLN2(LX31),FNWFND(JB)  GET FILE NAME FROM FNTBL        52024021
 0060FE D703 D364 D364 00394 00394  7648 RDSCN3 XC    RWSWA,RWSWA                SET OFF ALL COMMON RD SWITC     52031021
 006104 9222 C973      01903        7649          MVI   CURRD,XX22                MASK WITH QUAL CODE            52038021
 006108 D201 9B2B C6E2 069CB 01672  7650          MVC   RDCDNO(LX2),CURGCN                                       52045021
 00610E D201 C9AE C6E2 0193E 01672  7651          MVC   SVRDCN(LX2),CURGCN         SV RD-CD-NO                   52052021
 006114 9640 D36C      0039C        7652          OI    FRSTRD,XX40                                              52059021
                                    7653 * INITIALIZE STANDARD PAR NAMES                                         52066021
 006118 4150 0018      00018        7654          LA    JE,DX24(JR)              GENERATE 24 GNS FOR ROUTINES    52073021
 00611C 4140 CB3F      01ACF        7655        LA    JD,GNRH                                                    52080021
 006120 45E0 B736      0264E        7656 RDINIT BAL   JP,GNGN               GNGN                                 52087021
 006124 D201 4000 CCC4 00000 01C54  7657          MVC   DX0(LX2,JD),GPTID1                                       52094021
 00612A 4144 0002      00002        7658          LA    JD,DX2(JD)                                               52101021
 00612E 4650 9280      06120        7659        BCT   JE,RDINIT             RDINIT                               52108021
 006132 1733                        7660        XR    JC,JC                      CLEAR XR3                       52115021
 006134 4330 C6C2      01652        7661        IC    JC,CURCNT                  GET COUNT                       52122021
 006138 4430 96D0      06570        7662        EX    JC,MVRN                    MOVE RD NAME TO TEXT            52129021
 00613C 1766                        7663        XR    JF,JF                      CLEAR XR6                       52136021
 00613E 4360 9B2D      069CD        7664        IC    JF,RDNMCT                  GET COUNT                       52143021
 006142 4166 0005      00005        7665          LA    JF,DX5(JF)                ADD 5                          52150021
 006146 4260 9B29      069C9        7666        STC   JF,RDCT                    PUT IN LD TXT COUNT             52157021
 00614A 4120 9B28      069C8        7667        LA    JB,RDLD                                                    52164021
 00614E 45E0 99D0      06870        7668        BAL   JP,PUTF3B             PUTF3B                               52171021
 006152 D201 9BA7 C6E2 06A47 01672  7669          MVC   LSVCDN(LX2),CURGCN       CUR GCN TO LIN.SAV              52178021
 006158 D201 9BCA C6E2 06A6A 01672  7670          MVC   FGPCDN(LX2),CURGCN       CUR GCN TO FRS.GRP              52185021
 00615E D201 CC42 C6E2 01BD2 01672  7671          MVC   GPNCDN(LX2),CURGCN       CUR GCN TO GP.NNNN              52192021
 006164 D201 9B03 C6E2 069A3 01672  7672        MVC   PGCTCN,CURGCN                                              52199021
 00616A D201 9B56 C6E2 069F6 01672  7673          MVC   CTCDN(LX2),CURGCN                                        52206021
 006170 D201 9B8D C6E2 06A2D 01672  7674          MVC   FGCDN(LX2),CURGCN                                        52213021
 006176 D201 9B73 C6E2 06A13 01672  7675          MVC   TERCN(LX2),CURGCN                                        52220021
 00617C D201 CC2A C6E2 01BBA 01672  7676          MVC   GPCDN(LX2),CURGCN                                        52227021
 006182 D201 9C28 C6E2 06AC8 01672  7677          MVC   RPCDN(LX2),CURGCN                                        52234021
 006188 D201 9C40 C6E2 06AE0 01672  7678          MVC   CODCN(LX2),CURGCN                                        52241021
 00618E D201 9C59 C6E2 06AF9 01672  7679          MVC   CTLCN(LX2),CURGCN                                        52248021
 006194 D201 9C73 C6E2 06B13 01672  7680          MVC   RPLCN(LX2),CURGCN                                        52255021
 00619A 4120 9B53      069F3        7681        LA    JB,CTLV                     FOR EACH RD ON FILE 3          52262021
 00619E 1733                        7682        XR    JC,JC                                                      52269021
1PH1A     IKFCBL10                                                                                              PAGE  160
-  LOC  OBJECT CODE    ADDR1 ADDR2  STMT   SOURCE STATEMENT                                       ASM 0201 11.03 02/14/15
00061A0 4330 9B50      069F0        7683        IC    JC,PUTCT1                                                  52276021
 0061A4 45E0 99C6      06866        7684        BAL   JP,PUTF3A             PUTF3A                               52283021
 0061A8 9620 D360      00390        7685          OI    GOODRD,XX20              SET ON GOOD RD                  52290021
 0061AC 9554 C79A      0172A        7686 RDCPA    CLI   NXTCOD,XX54               NEXT IS COBOL WORD             52297021
 0061B0 4770 9338      061D8        7687        BC    NOTEQ,RDCPC                 NO-RDCPC                       52304021
 0061B4 956C C79B      0172B        7688          CLI   NXTN,XX6C                 NEXT IS WITH                   52311021
 0061B8 4770 9324      061C4        7689        BC    NOTEQ,RDCPB                 NO-RDCPB                       52318021
 0061BC 45E0 B000      01F18        7690        BAL   JP,GETWD                   -GETWD                          52325021
 0061C0 47F0 930C      061AC        7691        BC    UNCOND,RDCPA                RDCPA                          52332021
 0061C4 95E5 C79B      0172B        7692 RDCPB    CLI   NXTN,XXE5                 NEXT IS CODE                   52339021
 0061C8 4770 9338      061D8        7693        BC    NOTEQ,RDCPC                 NO-RDCPC                       52346021
 0061CC 45E0 B000      01F18        7694        BAL   JP,GETWD                   -GETWD                          52353021
 0061D0 9610 D360      00390        7695          OI    CPRDSW,XX10               SET 'ON' CPRDSW                52360021
 0061D4 47F0 939E      0623E        7696        BC    UNCOND,DOCODE               -DOCODE                        52367021
 0061D8 45E0 B286      0219E        7697 RDCPC  BAL   JP,CPYNXT                  -CPYNXT                         52374021
 0061DC                             7698 RDPERD DS    0H                                                         52381021
 0061DC 9110 D360      00390        7699          TM    CPRDSW,XX10               CPRDSW 'ON'                    52388021
 0061E0 4780 934C      061EC        7700        BC    ZERO,RDCPD                  NORDCPD                        52395021
 0061E4 94EF D360      00390        7701          NI    CPRDSW,XXEF               SET 'OFF' CPRDSW               52402021
 0061E8 47F0 9338      061D8        7702        BC    UNCOND,RDCPC                -RDCPC                         52409021
 0061EC 45E0 B000      01F18        7703 RDCPD  BAL   JP,GETWD                   -GETWD                          52416021
 0061F0                             7704 RDCLA  DS    0H                                                         52423021
 0061F0 9180 D364      00394        7705          TM    SCAN02,XX80              IN PROC02 SCAN                  52430021
 0061F4 4710 8C66      07816        7706        BC    ONES,CLER2                YES..ERROR..DIAGNOSE             52437021
 0061F8 9120 D364      00394        7707          TM    SCAN01,XX20              IN PROC01 SCAN                  52444021
 0061FC 4710 8C5A      0780A        7708        BC    ONES,CLER1                YES..ERROR..DIAGNOSE             52451021
 006200 D501 C6E4 C58D 01674 0151D  7709          CLC   CURCOD(LX2),EOSCON        PERIOD FOUND                   52458021
 006206 4780 99BE      0685E        7710        BC    EQ,EORDA                   YES                             52465021
                                    7711 *EXPECT CODE,CONTROL,OR PAGE CLAUSE                                     52472021
 00620A 9554 C6E4      01674        7712 RDCL     CLI   CURCOD,XX54               IS WORD COBOL WORD             52479021
 00620E 4770 9392      06232        7713        BNE   RDCLE                 RDCLE                                52486021
 006212 95E5 C6E5      01675        7714 RDCLI    CLI   CURN,XXE5                 MUST BE ONE OF RD CLAUSES-C    52493021
 006216 4780 939E      0623E        7715        BC    EQ,DOCODE                  CODE ROUTINE                    52500021
 00621A 95D0 C6E5      01675        7716          CLI   CURN,XXD0                 CONTROL                        52507021
 00621E 4780 93E2      06282        7717        BC    EQ,DOCTL              DOCTL                                52514021
 006222 95E6 C6E5      01675        7718          CLI   CURN,XXE6                 PAGE                           52521021
 006226 4780 96D6      06576        7719        BC    EQ,DOPAGE             DOPAGE                               52528021
 00622A 956C C6E5      01675        7720          CLI   CURN,XX6C                 WITH                           52535021
 00622E 4780 933C      061DC        7721        BC    EQ,RDPERD             RDPERD                               52542021
 006232                             7722 RDCLE  DS    0H                                                         52549021
 006232 45E0 DAFC      00B2C        7723        BAL   JP,MSG44                  ERROR                            52556021
 006236                             7724 RDCLE1 DS    0H                                                         52563021
 006236 45E0 99DA      0687A        7725        BAL   JP,EORDB                   GEN 02 FOR CTL.CHR + RPT.LI     52570021
 00623A 47F0 9992      06832        7726        BC    UNCOND,RCKLV          RCKLV                                52577021
                                    7727 *PROCESS CODE CLAUSE                                                    52584021
                             0623E  7728 DOCODE EQU   *                                                          52591021
 00623E 45E0 B18E      020A6        7729        BAL   JP,CHKIS              CHKIS                                52598021
 006242 9180 D363      00393        7730          TM    CODSW,XX80                CODE CLAUSE ALRDY DONE         52605021
 006246 4710 8BEE      0779E        7731        BC    ONES,DUPER                YES..DUP ERROR                   52612021
 00624A 45E0 B000      01F18        7732        BAL   JP,GETWD                  GET NEXT WORD                    52619021
 00624E 9523 C6E4      01674        7733          CLI   CURCOD,XX23               BCD NAME                       52626021
 006252 4770 9392      06232        7734        BC    NOTEQ,RDCLE                NO-ERROR                        52633021
 006256 4170 C6E5      01675        7735        LA    JG,CURN                   ADDR OF MNEMONIC NAME            52640021
 00625A 45E0 B5C8      024E0        7736        BAL   JP,SCHSPN                  GET CODE FROM SP-NMS            52647021
 00625E 9140 D34D      0037D        7737          TM    SCHSW,XX40               FOUND                           52654021
1PH1A     IKFCBL10                                                                                              PAGE  161
-  LOC  OBJECT CODE    ADDR1 ADDR2  STMT   SOURCE STATEMENT                                       ASM 0201 11.03 02/14/15
0006262 4780 9392      06232        7738        BZ    RDCLE                     NO                               52661021
 006266 D202 C6E4 2000 01674 00000  7739 PRCDE1   MVC   CURCOD(LX3),DX0(JB)       MOVE CODE                      52668021
 00626C 9534 C6E4      01674        7740          CLI   CURCOD,XX34               ALPHA LIT                      52675021
 006270 4770 9392      06232        7741        BC    NOTEQ,RDCLE                NO-ERROR                        52682021
 006274 D200 9C53 2002 06AF3 00002  7742          MVC   CODVAL(LX1),DX2(JB)       MOVE 1 CHARACTER LITERAL       52689021
 00627A 9680 D363      00393        7743          OI    CODSW,XX80                SETON CODE SWITCH              52696021
 00627E 47F0 933C      061DC        7744        BC    UNCOND,RDPERD         RDPERD                               52703021
                                    7745 *PROCESS CONTROL CLAUSE                                                 52710021
                             06282  7746 DOCTL  EQU   *                                                          52717021
 006282 9200 C972      01902        7747          MVI   LVCNT,XX00                RESET CTL LEV TO 0             52724021
 006286 45E0 B18E      020A6        7748        BAL   JP,CHKIS              CHECK IS                             52731021
 00628A 9140 D365      00395        7749          TM    CTLSW,XX40                CTL CLAUSE ALRDY DONE          52738021
 00628E 4710 8BEE      0779E        7750        BC    ONES,DUPER                YES..DUP ERROR                   52745021
 006292 9640 D365      00395        7751          OI    CTLSW,XX40               SET ON CONTROL SWITCH           52752021
 006296 95E7 C79B      0172B        7752          CLI   NXTN,XXE7                IS NEXT FINAL                   52759021
 00629A 4770 9402      062A2        7753        BC    NOTEQ,DOCTL2              NO...NO SKIP                     52766021
 00629E 45E0 B000      01F18        7754        BAL   JP,GETWD                  YES..SKIP                        52773021
 0062A2                             7755 DOCTL2 DS    0H                                                         52780021
 0062A2 5810 C8B4      01844        7756        L     JA,CTLCON                 CTLTIB                           52787021
 0062A6 45E0 BCC2      02BDA        7757        BAL   JP,TBLNIT                 GET START, ETC                   52794021
 0062AA 4720 9414      062B4        7758        BC    POS,DOCT22                TBL NOT EMPTY..NO RESET          52801021
 0062AE D201 CDCC C14E 01D5C 010DE  7759          MVC   PRVENT(LX2),HWONE        MOVE ONE TO PREV ENTRY SIZE     52808021
 0062B4                             7760 DOCT22 DS    0H                                                         52815021
 0062B4 4020 CDC6      01D56        7761        STH   JB,CTSDSP                 SAVE DISPLACEMENT INTO TBL       52822021
 0062B8 D71F CC04 CC04 01B94 01B94  7762          XC    ORGNM(LX32),ORGNM         SET DUP FIELD TO ZERO          52829021
 0062BE D735 C90C C90C 0189C 0189C  7763          XC    CTLENT(LX54),CTLENT      RESET                           52836021
 0062C4 94FE D361      00391        7764          NI    CTLSUB,XXFE              RESET                           52843021
 0062C8 94FE D360      00390        7765          NI    SCNDTM,XXFE              RESET                           52850021
 0062CC 9180 D364      00394        7766          TM    SCAN02,XX80              IN PROC02 SCAN                  52857021
 0062D0 4710 9444      062E4        7767        BC    ONES,DOCTL3               YES..DO GETWD                    52864021
 0062D4 9102 D366      00396        7768          TM    ELEM01,XX02              IN ELEMENTARY 01 SCAN           52871021
 0062D8 4710 9444      062E4        7769        BC    ONES,DOCTL3               YES..DO GETWD                    52878021
 0062DC 9120 D364      00394        7770          TM    SCAN01,XX20              NO...IS IT PROC01 SCAN          52885021
 0062E0 4710 9448      062E8        7771        BC    ONES,DOCTL4               YES..SKIP GETWD                  52892021
 0062E4                             7772 DOCTL3 DS    0H                                                         52899021
 0062E4 45E0 B000      01F18        7773        BAL   JP,GETWD              GET WORD                             52906021
 0062E8                             7774 DOCTL4 DS    0H                                                         52913021
 0062E8 D501 C79A AC9B 0172A 0388B  7775          CLC   NXTCOD(LX2),LPREN        IS NEXT LEFT PAREN              52920021
 0062EE 4770 9462      06302        7776        BC    NOTEQ,PRCT10              NO                               52927021
 0062F2 9601 D361      00391        7777          OI    CTLSUB,XX01              YES..TURN ON SWITCH             52934021
 0062F6 9680 C91C      018AC        7778          OI    CTLENT+NX16,XX80         INDICATE SUB/INDX CTL-NAME      52941021
 0062FA 47F0 9462      06302        7779        BC    UNCOND,PRCT10         PRCT10                               52948021
 0062FE                             7780 PRCT1  DS    0H                                                         52955021
 0062FE 45E0 B000      01F18        7781        BAL   JP,GETWD              GET WORD                             52962021
 006302                             7782 PRCT10 DS    0H                                                         52969021
 006302 9523 C6E4      01674        7783          CLI   CURCOD,XX23               BCD NAME                       52976021
 006306 4780 9510      063B0        7784        BC    EQ,PRCT2                  YES..PROCESS BCD NAME            52983021
 00630A 95A2 C6E4      01674        7785          CLI   CURCOD,XXA2               QUALIFIED NAME                 52990021
 00630E 4780 96C2      06562        7786        BC    EQ,CTLQL                   YES                             52997021
 006312 D501 C6E4 A3A4 01674 02F94  7787          CLC   CURCOD(LX2),TALCON       TALLY                           53004021
 006318 4780 9510      063B0        7788        BC    EQ,PRCT2                  YES..SAME AS BCD                 53011021
 00631C 9101 D361      00391        7789          TM    CTLSUB,XX01              IS CTL-NM SUBS OR INDEXED       53018021
 006320 4780 9350      061F0        7790        BC    ZERO,RDCLA                NO                               53025021
 006324 D501 C6E4 AC9B 01674 0388B  7791          CLC   CURCOD(LX2),LPREN        LEFT PAREN                      53032021
 00632A 4780 963C      064DC        7792        BC    EQ,PRCT3                  YES                              53039021
1PH1A     IKFCBL10                                                                                              PAGE  162
-  LOC  OBJECT CODE    ADDR1 ADDR2  STMT   SOURCE STATEMENT                                       ASM 0201 11.03 02/14/15
000632E 9553 C6E4      01674        7793          CLI   CURCOD,XX53              PLUS OR MINUS                   53046021
 006332 4780 963C      064DC        7794        BC    EQ,PRCT3                  YES                              53053021
 006336 9532 C6E4      01674        7795          CLI   CURCOD,XX32              NUMERIC LITERAL                 53060021
 00633A 4780 9648      064E8        7796        BC    EQ,PRCT5                  YES..SAME AS BCD NAME            53067021
 00633E D501 C6E4 AC9E 01674 0388E  7797          CLC   CURCOD(LX2),RPREN        RIGHT PAREN                     53074021
 006344 4780 94CA      0636A        7798        BE    PRCT11                    YES                              53081021
 006348 9180 D364      00394        7799          TM    SCAN02,XX80              NO...ERROR...IN PROC02 SCAN     53088021
 00634C 4710 8C66      07816        7800        BO    CLER2                     YES                              53095021
 006350 9120 D364      00394        7801          TM    SCAN01,XX20              NO...IN PROC01 SCAN             53102021
 006354 4710 8C5A      0780A        7802        BO    CLER1                     YES                              53109021
 006358 5810 C8B4      01844        7803        L     JA,CTLCON                 CTLTBL TIB                       53116021
 00635C 5811 0000      00000        7804          L     JA,DX0(JA)               CTLTBL TAMM                     53123021
 006360 D201 1004 CDC0 00004 01D50  7805          MVC   DX4(LX2,JA),CTSVDP        RESET TO LAST VALID CTL-NAME   53130021
 006366 47F0 9392      06232        7806        B     RDCLE                     NO...ERROR IN CONTROL CLAUSE     53137021
 00636A                             7807 PRCT11 DS    0H                                                         53144021
 00636A 4150 0001      00001        7808          LA    JE,DX1(JR)               YES..DO PUT OF RIGHT PAREN      53151021
 00636E 4100 0002      00002        7809          LA    JR,DX2(JR)                                               53158021
 006372 45E0 9670      06510        7810        BAL   JP,PUTCTL                 DO PUT                           53165021
 006376                             7811 PRCT4  DS    0H                                                         53172021
 006376 5810 C8B4      01844        7812        L     JA,CTLCON                 CTLTBL TIB                       53179021
 00637A 45E0 BCC2      02BDA        7813        BAL   JP,TBLNIT                 GET START, ETC                   53186021
 00637E 4A10 CDC6      01D56        7814        AH    JA,CTSDSP                 JA POINTS TO THIS ENTRY          53193021
 006382 4B20 CDC6      01D56        7815        SH    JB,CTSDSP                 JB HAS SIZE OF THIS ENTRY        53200021
 006386 91A0 D364      00394        7816          TM    SCAN01,XXA0              IN PROC01 OR PROC02 SCAN        53207021
 00638A 4780 94F8      06398        7817        BC    ZERO,PRCT41               NO...IN RD SCAN...CONTINUE       53214021
 00638E 4020 CDBC      01D4C        7818        STH   JB,CELL1                  YES..SAVE SIZE OF TEMP ENTRY     53221021
 006392 58E0 D8BC      008EC        7819        L     JP,JPCTGS                 RETURN                           53228021
 006396 07FE                        7820        BCR   UNCOND,JP                   ON JP                          53235021
 006398                             7821 PRCT41 DS    0H                                                         53242021
 006398 4020 CDC6      01D56        7822        STH   JB,CTSDSP                 SAVE FOR MOVE TO TBL             53249021
 00639C D201 1000 CDC6 00000 01D56  7823          MVC   DX0(LX2,JA),CTSDSP        MOVE SIZE TO ENTRY             53256021
 0063A2 D201 1018 CDCC 00018 01D5C  7824          MVC   DX24(LX2,JA),PRVENT       PREVIOUS ENTRY SIZE TO TBL     53263021
 0063A8 4020 CDCC      01D5C        7825        STH   JB,PRVENT                 SAVE PREVIOUS ENTRY SIZE         53270021
 0063AC 47F0 9402      062A2        7826        BC    UNCOND,DOCTL2             CHECK FOR MORE CTL-NAMES         53277021
 0063B0                             7827 PRCT2  DS    0H                                                         53284021
 0063B0 91A0 D364      00394        7828          TM    SCAN01,XXA0              IN PROC01 OR PROC02 SCAN        53291021
 0063B4 4770 9648      064E8        7829        BC    NOTZER,PRCT5              YES..INSERT                      53298021
 0063B8 9101 D361      00391        7830          TM    CTLSUB,XX01              IS CTL-NM SUBS OR INDEXED       53305021
 0063BC 4780 9528      063C8        7831        BC    ZERO,PRCT20               NO...PUT COMPLETE ENTRY          53312021
 0063C0 9101 D360      00390        7832          TM    SCNDTM,XX01              IN SUBS/INDEX PART              53319021
 0063C4 4710 9648      064E8        7833        BC    ONES,PRCT5                YES..INSERT                      53326021
 0063C8                             7834 PRCT20 DS    0H                                                         53333021
 0063C8 D21F C926 C6E4 018B6 01674  7835          MVC   CTLENT+NX26(LX32),CURCOD  CURCOD TO CTLENT               53340021
 0063CE 94FD D361      00391        7836          NI    SCNDWR,XXFD              TURN OFF 2ND WRITE SWITCH       53347021
 0063D2                             7837 PRCT21 DS    0H                                                         53354021
 0063D2 45E0 B6C2      025DA        7838        BAL   JP,GENNM                  -NAME FOR SAVE OF OLD CTL-NM     53361021
 0063D6 D204 CBFE B6F3 01B8E 0260B  7839          MVC   DUPNM(LX5),GENID                                         53368021
 0063DC D201 CBFB C6E2 01B8B 01672  7840          MVC   DUPCDN(LX2),CURGCN                                       53375021
 0063E2 9102 D361      00391        7841          TM    SCNDWR,XX02              IN 2ND WRITE                    53382021
 0063E6 4710 95A0      06440        7842        BC    ONES,PRCT25               YES..SKIP UNNECESSARY INSTRS     53389021
 0063EA D206 C90E B6F1 0189E 02609  7843          MVC   CTLENT+NX2(LX7),GENIC     NO...DO ALL...DUP NAME         53396021
 0063F0 1733                        7844        XR    JC,JC                      CLEAR XR3                       53403021
 0063F2 4330 C6C2      01652        7845        IC    JC,CURCNT                  GET COUNT                       53410021
 0063F6 4430 96CA      0656A        7846        EX    JC,MVDUP                   MOVE DUP TO TEXT                53417021
 0063FA 1766                        7847        XR    JF,JF                      CLEAR XR6                       53424021
1PH1A     IKFCBL10                                                                                              PAGE  163
-  LOC  OBJECT CODE    ADDR1 ADDR2  STMT   SOURCE STATEMENT                                       ASM 0201 11.03 02/14/15
00063FC 95A2 C6E4      01674        7848          CLI   CURCOD,XXA2               QUAL NAME                      53431021
 006400 4780 956C      0640C        7849        BC    EQ,PRCT22                 YES                              53438021
 006404 4360 CC03      01B93        7850        IC    JF,ORGCT                   LOAD COUNT                      53445021
 006408 4166 0002      00002        7851          LA    JF,DX2(JF)                 ADD 2 WILL ADD 9 MORE         53452021
 00640C                             7852 PRCT22 DS    0H                                                         53459021
 00640C 4166 0009      00009        7853          LA    JF,DX9(JF)                ADD 9                          53466021
 006410 4260 CBF9      01B89        7854        STC   JF,DTXTCT                  STORE IN DUP LD TEXT            53473021
 006414                             7855 PRCT23 DS    0H                                                         53480021
 006414 4120 CBF8      01B88        7856        LA    JB,DUPTXT                                                  53487021
 006418 45E0 99D0      06870        7857        BAL   JP,PUTF3B             PUTF3B                               53494021
 00641C 95A2 C6E4      01674        7858          CLI   CURCOD,XXA2               QUAL NAME                      53501021
 006420 4770 9590      06430        7859        BC    NOTEQ,PRCT24          PRCT24                               53508021
 006424 4830 D9D0      00A00        7860        LH    JC,SAVSIZ                   QUAL NM SIZE                   53515021
 006428 5820 D9CC      009FC        7861        L     JB,ABSADD                                                  53522021
 00642C 45E0 99C6      06866        7862        BAL   JP,PUTF3A             PUTF3A                               53529021
 006430                             7863 PRCT24 DS    0H                                                         53536021
 006430 9102 D361      00391        7864          TM    SCNDWR,XX02              2ND WRITE DONE                  53543021
 006434 4710 95AA      0644A        7865        BC    ONES,PRCT26               YES..CONTINUE                    53550021
 006438 9602 D361      00391        7866          OI    SCNDWR,XX02              NO...TURN SW ON AND DO 2ND      53557021
 00643C 47F0 9532      063D2        7867        BC    UNCOND,PRCT21                 WRITE                        53564021
 006440                             7868 PRCT25 DS    0H                                                         53571021
 006440 D206 C915 B6F1 018A5 02609  7869          MVC   CTLENT+NX9(LX7),GENIC     SAVE NAME TO ENTRY             53578021
 006446 47F0 9574      06414        7870        BC    UNCOND,PRCT23         PRCT23                               53585021
 00644A                             7871 PRCT26 DS    0H                                                         53592021
 00644A 45E0 B736      0264E        7872        BAL   JP,GNGN                    GET G.NAME                      53599021
 00644E D201 C91E CCC4 018AE 01C54  7873          MVC   CTLENT+NX18(LX2),GPTID1   GN FOR CH                      53606021
 006454 94FD D361      00391        7874          NI    SCNDWR,XXFD              RESET                           53613021
 006458 1766                        7875        XR    JF,JF                      CLEAR XR6                       53620021
 00645A 4360 C972      01902        7876        IC    JF,LVCNT                    GET LAST LEV                   53627021
 00645E 1266                        7877        LTR   JF,JF                      IS THIS MAJOR CONTROL           53634021
 006460 4770 95CE      0646E        7878        BC    NOTZER,PRCT27             NO                               53641021
 006464 D201 CD1E CCC4 01CAE 01C54  7879          MVC   GNCHM(LX2),GPTID1         SAVE CTL HDNG GN FOR MAJ       53648021
 00646A 9602 D9C0      009F0        7880          OI    DNSW1,XX02                TURN  'ON' MAJOR CONTROL       53655021
 00646E                             7881 PRCT27 DS    0H                                                         53662021
 00646E 4166 0001      00001        7882          LA    JF,DX1(JF)                ADD 1                          53669021
 006472 4260 C972      01902        7883        STC   JF,LVCNT                    SAVE AS LAST LEV               53676021
 006476 4260 C91D      018AD        7884          STC   JF,CTLENT+NX17           PUT LVL IN ENTRY                53683021
 00647A 45E0 B736      0264E        7885        BAL   JP,GNGN                    GET G.NAME                      53690021
 00647E D201 C920 CCC4 018B0 01C54  7886          MVC   CTLENT+NX20(LX2),GPTID1   GN FOR CF                      53697021
 006484 D201 CD1C CCC4 01CAC 01C54  7887          MVC   GNCFH(LX2),GPTID1         SAVE LOWEST LV CF              53704021
 00648A 4140 001A      0001A        7888          LA    JD,DX26(JR)              INSERT CTL-NAME                 53711021
 00648E 95A2 C6E4      01674        7889          CLI   CURCOD,XXA2              QUAL NAME                       53718021
 006492 4780 960A      064AA        7890        BC    EQ,PRCT28                 YES..INSERT 26 BYTES             53725021
 006496 1755                        7891        XR    JE,JE                     RESET                            53732021
 006498 D501 C6E4 A3A4 01674 02F94  7892          CLC   CURCOD(LX2),TALCON       TALLY                           53739021
 00649E 4780 9606      064A6        7893        BC    EQ,PRCT2A                 YES..ADJUST BY 2                 53746021
 0064A2 4350 C6C2      01652        7894        IC    JE,CURCNT                 LENGTH OF CURWORD                53753021
 0064A6                             7895 PRCT2A DS    0H                                                         53760021
 0064A6 4145 4002      00002        7896          LA    JD,DX2(JE,JD)            GET ENTRY LENGTH IN JD          53767021
 0064AA                             7897 PRCT28 DS    0H                                                         53774021
 0064AA 5820 C8B4      01844        7898        L     JB,CTLCON                  HDG AND FTNG PROC NAMES         53781021
 0064AE 5812 0000      00000        7899          L     JA,DX0(JB)               CTLTBL TAMM                     53788021
 0064B2 D201 CDC0 1004 01D50 00004  7900          MVC   CTSVDP(LX2),DX4(JA)       SAVE LAST VALID CTL-NM DISPL   53795021
 0064B8 4170 C90C      0189C        7901        LA    JG,CTLENT                  INTO CONTROLS TABLE             53802021
 0064BC 45E0 B464      0237C        7902        BAL   JP,MVSERT             MVSERT                               53809021
1PH1A     IKFCBL10                                                                                              PAGE  164
-  LOC  OBJECT CODE    ADDR1 ADDR2  STMT   SOURCE STATEMENT                                       ASM 0201 11.03 02/14/15
00064C0 95A2 C6E4      01674        7903          CLI   CURCOD,XXA2              QUAL NAME                       53816021
 0064C4 4770 962C      064CC        7904        BC    NOTEQ,PRCT29              NO...CONTINUE                    53823021
 0064C8 45E0 9670      06510        7905        BAL   JP,PUTCTL                 YES..PUT QUAL NAME IN TBL        53830021
 0064CC                             7906 PRCT29 DS    0H                                                         53837021
 0064CC 9101 D361      00391        7907          TM    CTLSUB,XX01              SUBS/INDEXED CTL-NM             53844021
 0064D0 4780 94D6      06376        7908        BC    ZERO,PRCT4                NO...PUT ENTRY SIZE IN ENTRY     53851021
 0064D4 9601 D360      00390        7909          OI    SCNDTM,XX01              TURN ON 2ND TIME THRU SWITCH    53858021
 0064D8 47F0 945E      062FE        7910        BC    UNCOND,PRCT1              PROCESS REST OF CTL-NM           53865021
 0064DC                             7911 PRCT3  DS    0H                                                         53872021
 0064DC 4150 0001      00001        7912          LA    JE,DX1(JR)               JE IS 1 FOR MOVE                53879021
 0064E0 4100 0002      00002        7913          LA    JR,DX2(JR)               JR IS 2 FOR SIZE OF MOVE        53886021
 0064E4 47F0 9660      06500        7914        BC    UNCOND,PRCT50         PRCT50                               53893021
 0064E8                             7915 PRCT5  DS    0H                                                         53900021
 0064E8 D501 C6E4 A3A4 01674 02F94  7916          CLC   CURCOD(LX2),TALCON       TALLY                           53907021
 0064EE 4780 963C      064DC        7917        BC    EQ,PRCT3                  YES..INSERT ONLY 2               53914021
 0064F2 1755                        7918        XR    JE,JE                     RESET                            53921021
 0064F4 4350 C6E5      01675        7919        IC    JE,CURN                   GET LENGTH                       53928021
 0064F8 4155 0001      00001        7920          LA    JE,DX1(JE)               ADJUST FOR MOVE                 53935021
 0064FC 4105 0001      00001        7921          LA    JR,DX1(JE)               ADJUST FOR LENGTH OF INSERT     53942021
 006500                             7922 PRCT50 DS    0H                                                         53949021
 006500 45E0 9670      06510        7923        BAL   JP,PUTCTL             PUTCTL                               53956021
                                    7924 *  JE HAS LENGTH-1 FOR INSERT                                           53963021
 006504 91A0 D364      00394        7925          TM    SCAN01,XXA0              IN PROC01 OR PROC02 SCAN        53970021
 006508 4780 945E      062FE        7926        BC    ZERO,PRCT1                NO...CONTINUE                    53977021
 00650C 47F0 962C      064CC        7927        BC    UNCOND,PRCT29             YES..CHECK REST                  53984021
 006510                             7928 PUTCTL DS    0H                                                         53991021
                                    7929 *  JR HAS LENGTH OF INSERT                                              53998021
 006510 50E0 DD34      00D64        7930        ST    JP,JPCLRS                                                  54005021
 006514 5810 C8B4      01844        7931        L     JA,CTLCON                 CTLTBL TIB                       54012021
 006518 9200 1000      00000        7932          MVI   DX0(JA),XX00             VARIABLE LENGTH TABLE           54019021
 00651C 95A2 C6E4      01674        7933          CLI   CURCOD,XXA2              QUAL NAME                       54026021
 006520 4770 968E      0652E        7934        BC    NOTEQ,PUTCL1              NO...CONTINUE                    54033021
 006524 4850 D9D0      00A00        7935        LH    JE,SAVSIZ                 YES..GET SIZE OF QUAL NAME       54040021
 006528 0650                        7936        BCTR  JE,JR                     SUBTRACT 1 FOR 00 AT END         54047021
 00652A 1805                        7937        LR    JR,JE                     GET SIZE OF INSERT IN JE         54054021
 00652C 0650                        7938        BCTR  JE,JR                     SUBTRACT 1 FOR EXEC OF MOVE      54061021
 00652E                             7939 PUTCL1 DS    0H                                                         54068021
 00652E 58F0 C81C      017AC        7940        L     JQ,ADSERT                 CALL                             54075021
 006532 05EF                        7941        BALR  JP,JQ                       INSERT                         54082021
 006534 58F0 D838      00868        7942          L     JQ,SVREG+NX56            RESTORE JQ                      54089021
                                    7943 *  JB HAS STARTING ADDRESS FOR INSERT INTO CTLTBL                       54096021
 006538 4170 C6E4      01674        7944        LA    JG,CURCOD                 ADDRESS OF DATA TO BE MOVED      54103021
 00653C 95A2 C6E4      01674        7945          CLI   CURCOD,XXA2              QUAL NAME                       54110021
 006540 4770 96B8      06558        7946        BC    NOTEQ,PUTCL2              NO...CONTINUE                    54117021
 006544 1711                        7947        XR    JA,JA                                                      54124021
 006546 1832                        7948        LR    JC,JB                     STARTING ADDRESS IN JC           54131021
 006548 9640 D364      00394        7949          OI    INDOCT,XX40              TURN ON IN DOCTL ROUT           54138021
 00654C 45E0 BA18      02930        7950        BAL   JP,QRTN2                  GO PUT IN TBL AS 22...23         54145021
 006550 94BF D364      00394        7951          NI    INDOCT,XXBF              RESET SWITCH                    54152021
 006554 47F0 96BC      0655C        7952        BC    UNCOND,PUTCL3             GO EXIT                          54159021
 006558                             7953 PUTCL2 DS    0H                                                         54166021
 006558 4450 BAAA      029C2        7954        EX    JE,RDXMOV                 EXEC MOVE TO CTLTBL              54173021
 00655C                             7955 PUTCL3 DS    0H                                                         54180021
 00655C 58E0 DD34      00D64        7956        L     JP,JPCLRS                 RETURN                           54187021
 006560 07FE                        7957        BCR   UNCOND,JP                     ON JP                        54194021
