1PH1B     IKFCBL1B                                                                                              PAGE  183
-  LOC  OBJECT CODE    ADDR1 ADDR2  STMT   SOURCE STATEMENT                                       ASM 0201 11.03 02/14/15
00063B8                             7957 IKF10A   CSECT                                                    8922  67720021
                                    7958 *                                                                 8922  67730021
                                    7959 *        DEBUG COLUMN INDEPENDENT ROUTINE                         8922  67740021
                                    7960 *                                                                 8922  67750021
                             063B8  7961          USING *,R5                                               8922  67760021
 0063B8 9024 5098      06450        7962 DEBRTN   STM   R2,R4,DEBSAVE                                      8922  67770021
 0063BC 50E0 50A4      0645C        7963          ST    JP,DEBJP                                           8922  67780021
 0063C0 D201 50B4 D4C3 0646C 00D63  7964          MVC   TWOTRE1(LX2),SVCCRD+NX72 SAVE 2 BYTES              8922  67790021
 0063C6 D201 D4C3 C4E8 00D63 01B48  7965          MVC   COMWRK+NX72(LX2),KQUOTE  DELIMIT CARD              8922  67800021
 0063CC 1841                        7966          LR    R4,R1                    R4 = ADDR 'DEBUG'         8922  67810021
 0063CE 1B11                        7967          SR    R1,R1                    CLEAR R1 FOR TRT          8922  67820021
 0063D0 DD4F 4006 C3DC 00006 01A3C  7968          TRT   DX6(LX80,R4),UNONB       SCAN TO PROC-NM           8922  67830021
 0063D6 4130 D4C3      00D63        7969          LA    R3,COMWRK+NX72           R3 = ADDR END-OF-CARD     8922  67840021
 0063DA 1913                        7970          CR    R1,R3                    IS PROC-NM MISSING?       8922  67850021
 0063DC 47B0 5084      0643C        7971          BNL   DEBRETN                  YES                       8922  67860021
 0063E0 1841                        7972          LR    R4,R1                    R4 = BEG. ADDR OF PROC-NM 8922  67870021
 0063E2 45E0 B2F6      0225E        7973          BAL   JP,NOLDHI                PREPARE SCAN END PROC-NM  8922  67880021
 0063E6 1B11                        7974          SR    R1,R1                    CLEAR R1 FOR TRT          8922  67890021
 0063E8 DD4F 4000 C2DC 00000 0193C  7975          TRT   DX0(LX80,R4),NONLDH      FIND END ADDR OF PROC-NM  8922  67900021
 0063EE 45E0 B30E      02276        7976          BAL   JP,NOLDHO                RESTORE TRT TABLE         8922  67910021
 0063F2 1831                        7977          LR    R3,R1                    R3 = END ADDR PROC-NM     8922  67920021
 0063F4 1B34                        7978          SR    R3,R4                    R3 = LENGTH PROC-NM       8922  67930021
 0063F6 41E0 0000      00000        7979          LA    JP,DX0                   JP = 0                    8922  67940021
 0063FA 193E                        7980          CR    R3,JP                    NON-BLANK AND NONLDH      8922  67950021
                                    7981 *                                       POINT TO SAME LOCATION    8922  67960021
                                    7982 *                                       E.G. USER HAS CODED       8922  67970021
                                    7983 *                                       DEBUG  ,                  8922  67980021
 0063FC 4780 504A      06402        7984          BE    EXMOVE                   REGISTER ALREADY ZERO     8922  67990021
 006400 0630                        7985          BCTR  R3,R0                    DECREMENT LENGTH FOR EXEC 8922  68000021
 006402 4430 50A8      06460        7986 EXMOVE   EX    R3,DEBMOVE               PROC-NM TO COMWRK COL 8   8922  68010021
 006406 D206 D47B C510 00D1B 01B70  7987          MVC   COMWRK(LX7),DEBKON       'DEBUG' TO COL 1          8922  68020021
 00640C 4110 D482      00D22        7988          LA    R1,COMWRK+NX7                                      8922  68030021
 006410 1A13                        7989          AR    R1,R3                    R1 = NEW END ADDR PROC-NM 8922  68040021
 006412 4130 D4C2      00D62        7990          LA    R3,COMWRK+NX71           R3 = ADDR COL 72          8922  68050021
 006416 1B31                        7991          SR    R3,R1                    R3 = LENGTH REMAINDER     8922  68060021
 006418 1233                        7992          LTR   R3,R3                                              8922  68070021
 00641A 4780 5070      06428        7993          BC    R8,RETJP                 NO REMAINDER              8922  68080021
 00641E 9240 1001      00001        7994          MVI   DX1(R1),XX40             PROPAGATE BLANKS          8922  68090021
 006422 0630                        7995          BCTR  R3,R0                    DECREMENT LENGTH FOR EXEC 8922  68100021
 006424 4430 50AE      06466        7996          EX    R3,BLNKCOM               X                         8922  68110021
 006428 D201 D4C3 50B4 00D63 0646C  7997 RETJP    MVC   SVCCRD+NX72(LX2),TWOTRE1 RESTORE 2 BYTES           8922  68120021
 00642E 9824 5098      06450        7998          LM    R2,R4,DEBSAVE            RESTORE REGISTERS         8922  68130021
 006432 58E0 50A4      0645C        7999          L     JP,DEBJP                 X                         8922  68140021
 006436 4110 D47B      00D1B        8000          LA    R1,COMWRK                R1 = ADDR DEBUG IN COL 1  8922  68150021
 00643A 07FE                        8001          BR    JP                       RETURN                    8922  68160021
 00643C 9240 D47B      00D1B        8002 DEBRETN  MVI   COMWRK,XX40              NO PROC-NM                8922  68170021
 006440 D24E D47C D47B 00D1C 00D1B  8003          MVC   COMWRK+NX1(LX79),COMWRK  BLANK OUT COMWRK          8922  68180021
 006446 D206 D47B C510 00D1B 01B70  8004          MVC   COMWRK(LX7),DEBKON       'DEBUG' TO COL 1          8922  68190021
 00644C 47F0 5070      06428        8005          B     RETJP                    RETURN                    8922  68200021
                                    8006 *                                                                 8922  68210021
                                    8007 *                                                                 8922  68220021
 006450 0000000000000000            8008 DEBSAVE  DC    3F'0'                   DEBUG COL INDEP. SAVEAREA  8922  68230021
 00645C 00000000                    8009 DEBJP    DC    1F'0'                   X                          8922  68240021
 006460 D200 D482 4000 00D22 00000  8010 DEBMOVE  MVC   COMWRK+NX7(LX0),DX0(R4)  MOVE PROC-NM TO COL 8     8922  68250021
 006466 D200 1002 1001 00002 00001  8011 BLNKCOM  MVC   DX2(LX0,R1),DX1(R1)      PROPAGATE BLANKS IN COMWRK8922  68260021
1PH1B     IKFCBL1B                                                                                              PAGE  184
-  LOC  OBJECT CODE    ADDR1 ADDR2  STMT   SOURCE STATEMENT                                       ASM 0201 11.03 02/14/15
000646C 4040                        8012 TWOTRE1  DC    XL2'4040'                X                         8922  68270021
                                    8013          DROP  R5                                                 8922  68280021
                                    8014 *                                                                 8922  68290021
                                    8015 *                                                                 8922  68300021
 006470                             8016 THEEND DS    0F                                                         68310021
                             00000  8017 DX0      EQU   0                                                        68320021
                             00000  8018 LX0      EQU   0                                                        68330021
                             00001  8019 DX1      EQU   1                                                        68340021
                             00001  8020 NX1      EQU   1                                                        68350021
                             00002  8021 DX2      EQU   2                                                        68360021
                             00002  8022 NX2      EQU   2                                                        68370021
                             00002  8023 LX2      EQU   2                                                        68380021
                             00003  8024 DX3      EQU   3                                                        68390021
                             00003  8025 NX3      EQU   3                                                        68400021
                             00004  8026 DX4      EQU   4                                                        68410021
                             00004  8027 NX4      EQU   4                                                        68420021
                             00004  8028 LX4      EQU   4                                                        68430021
                             00005  8029 DX5      EQU   5                                                        68440021
                             00005  8030 NX5      EQU   5                                                        68450021
                             00006  8031 DX6      EQU   6                                                        68460021
                             00006  8032 NX6      EQU   6                                                        68470021
                             00007  8033 DX7      EQU   7                                                        68480021
                             00007  8034 NX7      EQU   7                                                        68490021
                             00008  8035 DX8      EQU   8                                                        68500021
                             00008  8036 NX8      EQU   8                                                        68510021
                             00008  8037 LX8      EQU   8                                                        68520021
                             00009  8038 LX9      EQU   9                                                        68530021
                             0000B  8039 NX11     EQU   11                                                       68540021
                             0000C  8040 DX12     EQU   12                                                       68550021
                             0000C  8041 NX12     EQU   12                                                       68560021
                             0000D  8042 NX13     EQU   13                                                       68570021
                             0000E  8043 NX14     EQU   14                                                       68580021
                             0000F  8044 DX15     EQU   15                                                       68590021
                             00010  8045 NX16     EQU   16                                                       68600021
                             00011  8046 NX17     EQU   17                                                       68610021
                             00012  8047 DX18     EQU   18                                                       68620021
                             00012  8048 NX18     EQU   18                                                       68630021
                             00014  8049 NX20     EQU   20                                                       68640021
                             00019  8050 DX25     EQU   25                                                       68650021
                             0001F  8051 DX31     EQU   31                                                       68660021
                             00020  8052 DX32     EQU   32                                                       68670021
                             00021  8053 DX33     EQU   33                                                       68680021
                             00022  8054 DX34     EQU   34                                                       68690021
                             00023  8055 DX35     EQU   35                                                       68700021
                             00024  8056 DX36     EQU   36                                                       68710021
                             00026  8057 DX38     EQU   38                                                       68720021
                             0002E  8058 DX46     EQU   46                                                       68730021
                             00030  8059 DX48     EQU   48                                                       68740021
                             00038  8060 NX56     EQU   56                                                       68750021
                             0003B  8061 DX59     EQU   59                                                       68760021
                             00047  8062 NX71     EQU   71                                                 8922  68770021
                             00048  8063 NX72     EQU   72                                                       68780021
                             00049  8064 NX73     EQU   73                                                       68790021
                             0004A  8065 NX74     EQU   74                                                       68800021
                             00058  8066 DX88     EQU   88                                                       68810021
1PH1B     IKFCBL1B                                                                                              PAGE  185
-  LOC  OBJECT CODE    ADDR1 ADDR2  STMT   SOURCE STATEMENT                                       ASM 0201 11.03 02/14/15
0                            00060  8067 NX96     EQU   96                                                       68820021
                             0007D  8068 DX125    EQU   125                                                      68830021
                             00094  8069 DX148    EQU   148                                                      68840021
                             000D5  8070 DX213    EQU   213                                                      68850021
                             000D7  8071 DX215    EQU   215                                                      68860021
                             00141  8072 DX321    EQU   321                                                      68870021
                             00149  8073 DX329    EQU   329                                                      68880021
                             00151  8074 DX337    EQU   337                                                      68890021
                             00152  8075 DX338    EQU   338                                                      68900021
                             00153  8076 DX339    EQU   339                                                      68910021
                             00155  8077 DX341    EQU   341                                                      68920021
                             00159  8078 DX345    EQU   345                                                      68930021
                             001A9  8079 DX425    EQU   425                                                      68940021
                             001B1  8080 DX433    EQU   433                                                      68950021
                             001B3  8081 DX435    EQU   435                                                      68960021
                             00000  8082 XX0      EQU   X'00'                                                    68970021
                             00001  8083 XX01     EQU   X'01'                                                    68980021
                             00080  8084 XX80     EQU   X'80'                                                    68990021
                             0006B  8085 XX6B     EQU   X'6B'                                                    69000021
                             00007  8086 XX07     EQU   X'07'                                                    69010021
                             00003  8087 XX03     EQU   X'03'                                                    69020021
                             0007F  8088 XX7F     EQU   X'7F'                                                    69030021
                             00032  8089 XX32     EQU   X'32'                                                    69040021
                             00023  8090 XX23     EQU   X'23'                                                    69050021
                             00002  8091 XX02     EQU   X'02'                                                    69060021
                             00000  8092 XX00     EQU   X'00'                                                    69070021
                             000B9  8093 XXB9     EQU   X'B9'                                                    69080021
                             000A2  8094 XXA2     EQU   X'A2'                                                    69090021
                             00022  8095 XX22     EQU   X'22'                                                    69100021
                             00034  8096 XX34     EQU   X'34'                                                    69110021
                             00008  8097 XX08     EQU   X'08'                                                    69120021
                             000F9  8098 XXF9     EQU   X'F9'                                                    69130021
                             000F0  8099 XXF0     EQU   X'F0'                                                    69140021
                             000CF  8100 XXCF     EQU   X'CF'                                                    69150021
                             000D1  8101 XXD1     EQU   X'D1'                                                    69160021
                             00060  8102 XX60     EQU   X'60'                                                    69170021
                             00040  8103 XX40     EQU   X'40'                                                    69180021
                             00004  8104 XX04     EQU   X'04'                                                    69190021
                             000FC  8105 XXFC     EQU   X'FC'                                                    69200021
                             000FB  8106 XXFB     EQU   X'FB'                                                    69210021
                             00033  8107 XX33     EQU   X'33'                                                    69220021
                             000FE  8108 XXFE     EQU   X'FE'                                                    69230021
                             0004D  8109 XX4D     EQU   X'4D'                                                    69240021
                             0004E  8110 XX4E     EQU   X'4E'                                                    69250021
                             0005D  8111 XX5D     EQU   X'5D'                                                    69260021
                             00030  8112 XX30     EQU   X'30'                                                    69270021
                             00010  8113 XX10     EQU   X'10'                                                    69280021
                             0008F  8114 XX8F     EQU   X'8F'                                                    69290021
                             000BF  8115 XXBF     EQU   X'BF'                                                    69300021
                             000F3  8116 XXF3     EQU   X'F3'                                                    69310021
                             000FF  8117 XXFF     EQU   X'FF'                                                    69320021
                             00020  8118 XX20     EQU   X'20'                                                    69330021
                             0004B  8119 XX4B     EQU   X'4B'                                                    69340021
                             000DF  8120 XXDF     EQU   X'DF'                                                    69350021
                             0001F  8121 XX1F     EQU   X'1F'                                                    69360021
1PH1B     IKFCBL1B                                                                                              PAGE  186
-  LOC  OBJECT CODE    ADDR1 ADDR2  STMT   SOURCE STATEMENT                                       ASM 0201 11.03 02/14/15
0                            000EF  8122 XXEF     EQU   X'EF'                                                    69370021
                             000F7  8123 XXF7     EQU   X'F7'                                                    69380021
                             000FD  8124 XXFD     EQU   X'FD'                                                    69390021
                             000C3  8125 XXC3     EQU   X'C3'                                                    69400021
                             0000C  8126 XX0C     EQU   X'0C'                                                    69410021
                             00054  8127 XX54     EQU   X'54'                                                    69420021
                             000F1  8128 XXF1     EQU   X'F1'                                                    69430021
                             0005C  8129 XX5C     EQU   X'5C'                                                    69440021
                             0004F  8130 XX4F     EQU   X'4F'                                                    69450021
                             00050  8131 XX50     EQU   X'50'                                                    69460021
                             000C5  8132 XXC5     EQU   X'C5'                                                    69470021
                             00042  8133 XX42     EQU   X'42'                                                    69480021
                             00043  8134 XX43     EQU   X'43'                                                    69490021
                             00088  8135 XX88     EQU   X'88'                                                    69500021
                             00035  8136 XX35     EQU   X'35'                                                    69510021
                             00044  8137 XX44     EQU   X'44'                                                    69520021
                             0007D  8138 XX7D     EQU   X'7D'               QUOTE                          51354 69530021
                             00069  8139 XX69     EQU   X'69'                                                    69540021
                             000A3  8140 XXA3     EQU   X'A3'                                                    69550021
                             00072  8141 XX72     EQU   X'72'                                                    69560021
                             0006A  8142 XX6A     EQU   X'6A'                                                    69570021
                             000D5  8143 XXD5     EQU   X'D5'                                                    69580021
                             00084  8144 XX84     EQU   X'84'                                                    69590021
                             00061  8145 XX61     EQU   X'61'                                                    69600021
                             00062  8146 XX62     EQU   X'62'                                                    69610021
                             0003C  8147 XX3C     EQU   X'3C'                                                    69620021
                             00017  8148 XX17     EQU   X'17'                                                    69630021
                             00099  8149 XX99     EQU   X'99'                                                    69640021
                             00064  8150 XX64     EQU   X'64'                                                    69650021
                             00066  8151 XX66     EQU   X'66'                                                    69660021
                             000E0  8152 XXE0     EQU   X'E0'                                                    69670021
                             00005  8153 XX05     EQU   X'05'                                                    69680021
                             0003F  8154 XX3F     EQU   X'3F'                                                    69690021
                             00031  8155 XX31     EQU   X'31'                                                    69700021
                             0002F  8156 XX2F     EQU   X'2F'                                                    69710021
                             00011  8157 XX11     EQU   X'11'                                                    69720021
                             0001C  8158 XX1C     EQU   X'1C'                                                    69730021
                             00038  8159 XX38     EQU   X'38'                                                    69740021
                             0005E  8160 XX5E     EQU   X'5E'                                                    69750021
                             0002E  8161 XX2E     EQU   X'2E'                                                    69760021
                             00029  8162 XX29     EQU   X'29'                                                    69770021
                             0003B  8163 XX3B     EQU   X'3B'                                                    69780021
                             00027  8164 XX27     EQU   X'27'                                                    69790021
                             00021  8165 XX21     EQU   X'21'                                                    69800021
                             00024  8166 XX24     EQU   X'24'                                                    69810021
                             0002D  8167 XX2D     EQU   X'2D'                                                    69820021
                             00036  8168 XX36     EQU   X'36'                                                    69830021
                             00026  8169 XX26     EQU   X'26'                                                    69840021
                             0002C  8170 XX2C     EQU   X'2C'                                                    69850021
                             00025  8171 XX25     EQU   X'25'                                                    69860021
                             00063  8172 XX63     EQU   X'63'                                                    69870021
                             000F5  8173 XXF5     EQU   X'F5'                                                    69880021
                             00006  8174 XX06     EQU   X'06'                                                    69890021
                             0005F  8175 XX5F     EQU   X'5F'                                                    69900021
                             0000A  8176 XX0A     EQU   X'0A'                                                    69910021
1PH1B     IKFCBL1B                                                                                              PAGE  187
-  LOC  OBJECT CODE    ADDR1 ADDR2  STMT   SOURCE STATEMENT                                       ASM 0201 11.03 02/14/15
0                            00079  8177 XX79     EQU   X'79'                                                    69920021
                             0006E  8178 XX6E     EQU   X'6E'                                                    69930021
                             0006C  8179 XX6C     EQU   X'6C'                                                    69940021
                             0009E  8180 XX9E     EQU   X'9E'                                                    69950021
                             00076  8181 XX76     EQU   X'76'                                                    69960021
                             0006D  8182 XX6D     EQU   X'6D'                                                    69970021
                             00089  8183 XX89     EQU   X'89'                                                    69980021
                             00081  8184 XX81     EQU   X'81'                                                    69990021
                             00065  8185 XX65     EQU   X'65'                                                    70000021
                             00075  8186 XX75     EQU   X'75'                                                    70010021
                             00071  8187 XX71     EQU   X'71'                                                    70020021
                             00009  8188 XX09     EQU   X'09'                                                    70030021
                             0009D  8189 XX9D     EQU   X'9D'                                                    70040021
                             000F0  8190 XC0      EQU   C'0'                                                     70050021
                             00004  8191 RWRON  EQU   X'04'                 TURN ON REWRITE VERB SWITCH          70060021
                             000FB  8192 RWROFF EQU   X'FB'                 TURN OFF REWRITE VERB SWITCH         70070021
                             00080  8193 FREON  EQU   X'80'                 TURN ON FREE VERB SWITCH             70080021
                             0007F  8194 FREOFF EQU   X'7F'                 TURN OFF FREE VERB SWITCH            70090021
                             00001  8195 LX1      EQU   1                                                        70100021
                             00003  8196 LX3      EQU   3                                                        70110021
                             00005  8197 LX5      EQU   5                                                        70120021
                             00006  8198 LX6      EQU   6                                                        70130021
                             00007  8199 LX7      EQU   7                                                        70140021
                             0000A  8200 LX10     EQU   10                                                       70150021
                             0000C  8201 LX12     EQU   12                                                       70160021
                             00011  8202 LX17     EQU   17                                                       70170021
                             00012  8203 LX18     EQU   18                                                       70180021
                             00014  8204 LX20     EQU   20                                                       70190021
                             0001A  8205 LX26     EQU   26                                                       70200021
                             0001D  8206 LX29     EQU   29                                                       70210021
                             0001E  8207 LX30     EQU   30                                                       70220021
                             0001F  8208 LX31     EQU   31                                                       70230021
                             00020  8209 LX32     EQU   32                                                       70240021
                             00030  8210 LX48     EQU   48                                                       70250021
                             0003B  8211 LX59     EQU   59                                                       70260021
                             00041  8212 LX65     EQU   65                                                       70270021
                             00042  8213 LX66     EQU   66                                                       70280021
                             00043  8214 LX67     EQU   67                                                       70290021
                             0004F  8215 LX79     EQU   79                                                       70300021
                             00050  8216 LX80     EQU   80                                                       70310021
                             00051  8217 LX81     EQU   81                                                       70320021
                             00052  8218 LX82     EQU   82                                                       70330021
                             00058  8219 LX88     EQU   88                                                       70340021
                             0006A  8220 LX106    EQU   106                                                      70350021
                             00078  8221 LX120    EQU   120                                                      70360021
                             0007A  8222 LX122    EQU   122                                                      70370021
                             0007B  8223 LX123    EQU   123                                                      70380021
                             00086  8224 LX134    EQU   134                                                      70390021
                             000A2  8225 LX162    EQU   162                                                      70400021
                             000B5  8226 LX181    EQU   181                                                      70410021
                             000C8  8227 LX200    EQU   200                                                      70420021
                             000C9  8228 LX201    EQU   201                                                      70430021
                             000FF  8229 LX255    EQU   255                                                      70440021
 000878                             8230        END   PH1B                                                       70450021
1PH1B                                              RELOCATION DICTIONARY                                        PAGE  188
-POS.ID   REL.ID   FLAGS   ADDRESS                                                                ASM 0201 11.03 02/14/15
0 0001     0001      0C     000210
  0001     0001      0C     000214
  0001     0001      0C     000218
  0001     0001      0C     00021C
  0001     0001      0C     000220
  0001     0001      0C     000224
  0001     0001      0C     0002D0
  0001     0001      0C     00036C
  0001     0001      0C     00062C
  0001     0001      0C     0007A8
  0001     0001      0C     000870
  0002     0001      0C     000EAC
  0002     0002      0C     000884
  0002     0002      0C     000B60
  0002     0002      08     000DC9
  0002     0002      08     000DCD
  0002     0002      08     000E80
  0002     0002      08     000E83
  0002     0002      08     000E86
  0002     0003      0C     000C08
  0002     0008      0C     00106C
  0002     000A      0C     001658
  0003     0001      0C     001D14
  0003     0001      0C     001D2C
  0003     0001      0C     001D30
  0003     0001      0C     001D34
  0003     0001      0C     001D38
  0003     0001      0C     001D3C
  0003     0001      0C     001D40
  0003     0001      0C     001D44
  0003     0003      0C     001938
  0003     0004      0C     001674
  0003     0005      0C     001678
  0003     0005      0C     001680
  0003     0006      0C     001688
  0003     0007      0C     00167C
  0003     0008      0C     001684
  0003     0009      0C     001670
  0003     000A      0C     00168C
  0005     0005      0C     003068
  0005     0005      0C     003070
  0005     0005      0C     003078
  0005     0005      0C     003080
  0005     0005      0C     003088
  0005     0005      0C     003090
  0005     0005      0C     003098
  0005     0005      0C     0030A0
  0005     0005      0C     0030A8
  0005     0005      0C     0030B0
  0005     0005      0C     0030B8
  0005     0005      0C     0030C0
  0005     0005      0C     0030C8
  0005     0005      0C     0030D0
  0005     0005      0C     0030D8
  0005     0005      0C     0030DC
1PH1B                                              RELOCATION DICTIONARY                                        PAGE  189
-POS.ID   REL.ID   FLAGS   ADDRESS                                                                ASM 0201 11.03 02/14/15
0 0006     0002      0C     0036E0
  0006     0002      0C     0036E4
  0006     0002      0C     0036E8
  0006     0003      0C     0036EC
  0006     000B      0C     003610
  000A     0008      0C     0063B4

1PH1B                                              ASSEMBLER DIAGNOSTICS AND STATISTICS                         PAGE  190
-                                                                                                 ASM 0201 11.03 02/14/15
0NO STATEMENTS FLAGGED IN THIS ASSEMBLY
 HIGHEST SEVERITY WAS    0
 OPTIONS FOR THIS ASSEMBLY
   ALIGN, ALOGIC, BUFSIZE(STD), DECK, ESD, FLAG(0), LINECOUNT(55), LIST, NOMCALL, YFLAG, WORKSIZE(2097152)
   NOMLOGIC, NONUMBER, NOOBJECT, NORENT, RLD, NOSTMT, NOLIBMAC, NOTERMINAL, NOTEST, NOXREF(SHORT)
   SYSPARM()
 WORK FILE BUFFER SIZE/NUMBER = 2558/ 1
 TOTAL RECORDS READ FROM SYSTEM INPUT       7052
 TOTAL RECORDS READ FROM SYSTEM LIBRARY     1315
 TOTAL RECORDS PUNCHED                       486
 TOTAL RECORDS PRINTED                      8660
