1         ARITHMETIC / MOVE / SUBSCRIPT  ROUTINES                                                               PAGE  185
-  LOC  OBJECT CODE    ADDR1 ADDR2  STMT   SOURCE STATEMENT                                       ASM 0201 11.03 02/14/15
0005C52 950D 401C      0001C        8222          CLI   Y1IRX(XR4),XX0D                                          64064021
 005C56 4780 F2D6      05C9E        8223        BC    XZERO,XGSTER          OPERAND IS STERLING                  64072021
                                    8224 *  SET NON NUMERIC ITEM SWITCH ON.                                      64080021
 005C5A 96F0 401C      0001C        8225          OI    Y1IRX(XR4),XXF0                                          64088021
 005C5E 95F5 401C      0001C        8226          CLI   Y1IRX(XR4),XXF5                                          64096021
 005C62 4780 F2B0      05C78        8227        BC    XZERO,XGNN12          OPERAND IS REPORT ITEM               64104021
 005C66 95F6 401C      0001C        8228          CLI   Y1IRX(XR4),XXF6                                          64112021
 005C6A 4770 F164      05B2C        8229        BC    XNOEQ,XG044           OPERAND IS NOT STERLING REP ITEM     64120021
 005C6E D200 4025 300D 00025 0000D  8230          MVC   Y1DBS+NX1(LX1,XR4),DX13(XR3)                             64128021
 005C74 47F0 F164      05B2C        8231        BC    UNCON,XG044           GET NEXT OPERAND                     64136021
                             05C78  8232 XGNN12 EQU   *                                                          64144021
                                    8233 *  GET CHARACTERISTICS OF A REPORT ITEM---- DIGIT LENGHT AND            64152021
                                    8234 *  SCALING FACTOR                                                       64160021
 005C78 D200 4023 3009 00023 00009  8235          MVC   Y1FBS+NX1(LX1,XR4),DX9(XR3)                              64168021
 005C7E 941F 4023      00023        8236          NI    Y1FBS+NX1(XR4),XX1F                                      64176021
 005C82 9180 300A      0000A        8237          TM    DX10(XR3),XX80                                           64184021
 005C86 4710 F2CC      05C94        8238        BC    XTHRE,XGNN01          GET SCALING FACTOR                   64192021
 005C8A D200 4025 300A 00025 0000A  8239          MVC   Y1DBS+NX1(LX1,XR4),DX10(XR3)                             64200021
 005C90 47F0 F12E      05AF6        8240        BC    UNCON,XG050           GENERATE MAX OPERAND                 64208021
 005C94 D200 4027 300A 00027 0000A  8241 XGNN01   MVC   Y1ALP+NX1(LX1,XR4),DX10(XR3)                             64216021
 005C9A 47F0 F120      05AE8        8242        BC    UNCON,XG0PMV          GENERATE MAX OPERAND                 64224021
0
                                    8244 *  CONVERT STERLING NON REPORT FIELD TO ID EXEPT IF IT IS USED AS A     64240021
                                    8245 *  TARGET FIELD OF A MOVE.                                              64248021
                                    8246 *      CALL OBJECT TIME SUBROUTINE                                      64256021
                                    8247 *                           LA   0,STERLING-FIELD                       64264021
                                    8248 *                           L    15,V(STTOID)                           64272021
                                    8249 *                           BALR 14,15                                  64280021
                                    8250 *                           DC   AL4(IDRESULTFIELD)                     64288021
                                    8251 *                           DC   XL2  2 BYTES OF INFO.                  64296021
                                    8252 *                                                                       64304021
                                    8253 *                                                                       64312021
 005C9E 45E0 83D0      01200        8254 XGSTER BAL   XRSUB,XSTOMV          CHECK FOR A STORE OR MOVE OPER       64320021
 005CA2 47F0 F330      05CF8        8255        BC    UNCON,XG070           YES IT IS                            64328021
 005CA6 1B66                        8256 XG071  SR    XR6,XR6                    GET  ID LENGHT OF CONVERTED     64336021
                                    8257 *                                       STERLING FIELD OUT OF           64344021
 005CA8 4363 0009      00009        8258          IC    XR6,DX9(XR3)              ATTRIBUTES.                    64352021
 005CAC 8860 0003      00003        8259          SRL   XR6,DX3                                                  64360021
                                    8260 *                                       NUMBER OF DIGITS IN ID WILL     64368021
 005CB0 D200 4025 3008 00025 00008  8261          MVC   Y1DBS+NX1(LX1,XR4),DX8(XR3) M+N+3                        64376021
 005CB6 941F 4025      00025        8262          NI    Y1DBS+NX1(XR4),XX1F       M DIGITS IN POUND FIELD        64384021
 005CBA 4A64 0024      00024        8263        AH    XR6,Y1DBS(XR4)             N DIGITS IN DECIMAL FIELD       64392021
 005CBE 4166 0003      00003        8264          LA    XR6,DX3(XR6)                                             64400021
 005CC2 4064 0022      00022        8265        STH   XR6,Y1FBS(XR4)                                             64408021
                                    8266 *                                                                       64416021
                                    8267 *                                                                       64424021
                                    8268 *                                                                       64432021
                                    8269 *                                                                       64440021
 005CC6 9108 D483      0854B        8270          TM    XSESWT,XX08               IF TARGET FIELD  DO  NOT       64448021
 005CCA 4710 F12E      05AF6        8271        BC    XTHRE,XG050                CONVERT IT.                     64456021
 005CCE 920C 401C      0001C        8272        MVI   Y1IRX(XR4),XGINDC          SET ID MODE                     64464021
 005CD2 45E0 7850      00850        8273        BAL   XRSUB,XE16D                ASK  A  16 BYTES FIELD TO       64472021
 005CD6 D203 4018 D442 00018 0850A  8274          MVC   Y1TEL(LX4,XR4),XYTEL      STORE  THE CONVERTED RESULT    64480021
 005CDC 5030 D138      08200        8275        ST    XR3,XOP1                                                   64488021
1         ARITHMETIC / MOVE / SUBSCRIPT  ROUTINES                                                               PAGE  186
-  LOC  OBJECT CODE    ADDR1 ADDR2  STMT   SOURCE STATEMENT                                       ASM 0201 11.03 02/14/15
0005CE0 45E0 BBDE      0226E        8276        BAL   XRSUB,LA                          LA   0, ST.              64496021
 005CE4 45E0 8792      015C2        8277        BAL   XRSUB,VBADCE          L   15,V(STI0)                       64504021
 005CE8 E2E3C9F0                    8278        DC    C'STI0'              BALR  14,15                           64512021
 005CEC 4520 840C      0123C        8279        BAL   XR2,SUBST1            GENERATE DC                          64520021
 005CF0 4520 842A      0125A        8280        BAL   XR2,SUBST2            GENERATE DC                          64528021
 005CF4 47F0 F12E      05AF6        8281        BC    UNCON,XG050           GENERATE MAX OPERAND                 64536021
0
 005CF8 5940 C8C0      07E50        8283 XG070  C     XR4,XAVAL1                                                 64552021
 005CFC 4780 F340      05D08        8284        BC    XZERO,XG073           1ST OPERAND BEING PROCESSED          64560021
 005D00 9608 D483      0854B        8285          OI    XSESWT,XX08               IT IS A TARGET FIELD.          64568021
 005D04 47F0 F2DE      05CA6        8286        BC    UNCON,XG071           GET ATTRIBUTES                       64576021
 005D08 F300 D410 D73B 084D8 08803  8287 XG073    UNPK  XGTEM2(LX1),DOP2+XGMINC  GET MINOR CODE OF DOP2          64584021
 005D0E 940F D410      084D8        8288          NI    XGTEM2,XX0F                                              64592021
 005D12 9503 D410      084D8        8289        CLI   XGTEM2,XGALN                   IS OP2 ALPHANUMERIC         64600021
 005D16 4780 F164      05B2C        8290        BC    XZERO,XG044                     YES                        64608021
 005D1A 9501 D410      084D8        8291        CLI   XGTEM2,XGGPFL                  IS OP2 FIXED LEN GROUP      64616021
 005D1E 4780 F164      05B2C        8292        BC    XZERO,XG044                     YES                        64624021
 005D22 9504 D410      084D8        8293        CLI   XGTEM2,XGGPVL                  IS OP2 VAR LEN GROUP        64632021
 005D26 4780 F164      05B2C        8294        BC    XZERO,XG044                     YES                        64640021
 005D2A 47F0 F2DE      05CA6        8295        BC    UNCOND,XG071                   NO,RETURN                   64648021
0
-
0
 005D2E                             8298        DS    0H                                                         64672021
 005D2E F8F0 4000 3004 00000 00004  8299 XGZAP    ZAP   DX0(LX16,XR4),XGLITV(LX0,XR3)                            64680021
-
-
-

 005D38                             8301 IKF50E CSECT                                                            64696021
                             05D38  8302 FPLLOD EQU   *                                                          64704021
                             05D38  8303        USING *,XRVAR                                                    64712021
                                    8304 * ROUTINE TO GENERATE PACK INSTRUCTIONS FOR EXT DEC ITEMS               64720021
                                    8305 *                                                                       64728021
 005D38 4140 D4E8      085B0        8306 XPPACK LA    XR4,X1VAL                                                  64736021
 005D3C 5830 C8C8      07E58        8307        L     XR3,XAOPE1                                                 64744021
 005D40 9508 401C      0001C        8308 XPPA01 CLI   Y1IRX(XR4),XGEXDC                                          64752021
 005D44 4770 F084      05DBC        8309        BC    XNOEQ,XPPA00          OPERAND NOT EXT DEC                  64760021
 005D48 D200 D469 401F 08531 0001F  8310          MVC   XELEN+NX1(LX1),Y1LBS+NX1(XR4)                            64768021
 005D4E 45E0 7848      00848        8311        BAL   XRSUB,XTAMPO          GET TEMP STOR                        64776021
 005D52 4860 D446      0850E        8312        LH    XR6,XEREL1                                                 64784021
 005D56 4824 0022      00022        8313        LH    XR2,Y1FBS(XR4)                                             64792021
 005D5A 9510 4023      00023        8314          CLI   Y1FBS+NX1(XR4),XX10                                      64800021
 005D5E 4720 F044      05D7C        8315        BC    XTWO,XG052            OPERAND > 16 DIGITS                  64808021
1         ARITHMETIC / MOVE / SUBSCRIPT  ROUTINES                                                               PAGE  187
-  LOC  OBJECT CODE    ADDR1 ADDR2  STMT   SOURCE STATEMENT                                       ASM 0201 11.03 02/14/15
0005D62 4060 D14A      08212        8316        STH   XR6,XWC1                                                   64816021
 005D66 D200 D149 D443 08211 0850B  8317          MVC   XL1+NX1(LX1),XYTEL+NX1                                   64824021
 005D6C 4020 D190      08258        8318        STH   XR2,XL2                                                    64832021
 005D70 5030 D138      08200        8319        ST    XR3,XJOP1                                                  64840021
 005D74 45E0 BACA      0215A        8320        BAL   XRSUB,PACK            GENERATE PACK                        64848021
 005D78 47F0 F07A      05DB2        8321        BC    UNCON,XG053           SET BUFFER ATTRIBUTES                64856021
 005D7C 920F D149      08211        8322 XG052    MVI   XL1+NX1,XX0F                                             64864021
 005D80 4B20 C3B2      07942        8323        SH    XR2,XC002                                                  64872021
 005D84 4020 D190      08258        8324        STH   XR2,XL2                                                    64880021
 005D88 4060 D14A      08212        8325        STH   XR6,XWC1                                                   64888021
 005D8C 5030 D138      08200        8326        ST    XR3,XJOP1                                                  64896021
 005D90 45E0 BACA      0215A        8327        BAL   XRSUB,PACK            GENERATE PACK                        64904021
 005D94 9202 D149      08211        8328          MVI   XL1+NX1,XX02                                             64912021
 005D98 4A60 C872      07E02        8329        AH    XR6,XC014                                                  64920021
 005D9C 4060 D14A      08212        8330        STH   XR6,XWC1                                                   64928021
 005DA0 0620                        8331        BCTR  XR2,RW0               SUBTRACT 1 FROM LENGTH               64936021
 005DA2 4220 D1C5      0828D        8332          STC   XR2,PLUS2+NX2                                            64944021
 005DA6 9203 D191      08259        8333          MVI   XL2+NX1,XX03                                             64952021
 005DAA 5030 D138      08200        8334        ST    XR3,XJOP1                                                  64960021
 005DAE 45E0 BACA      0215A        8335        BAL   XRSUB,PACK            GENERATE PACK                        64968021
                             05DB2  8336 XG053  EQU   *                                                          64976021
 005DB2 D203 4018 D442 00018 0850A  8337          MVC   Y1TEL(LX4,XR4),XYTEL                                     64984021
 005DB8 920C 401C      0001C        8338        MVI   Y1IRX(XR4),XGINDC                                          64992021
 005DBC 5940 C8C4      07E54        8339 XPPA00 C     XR4,XAVAL2                                                 65000021
 005DC0 4780 F0A0      05DD8        8340        BC    XZERO,XPPEXT          2ND OPERAND HAS BEEN PROCESSED       65008021
 005DC4 45E0 83D0      01200        8341        BAL   XRSUB,XSTOMV          IS OPERATION A STORE OR MOVE         65016021
 005DC8 47F0 F0A0      05DD8        8342        BC    UNCON,XPPEXT          YES                                  65024021
 005DCC 4140 D520      085E8        8343        LA    XR4,X2VAL                                                  65032021
 005DD0 5830 C8CC      07E5C        8344        L     XR3,XAOPE2                                                 65040021
 005DD4 47F0 F008      05D40        8345        BC    UNCON,XPPA01          CHECK 2ND OPERAND                    65048021
 005DD8 980F C548      07AD8        8346 XPPEXT LM    XR0,XR15,XGSAV6                                            65056021
 005DDC 07FE                        8347        BCR   UNCON,XRSUB           RETURN                               65064021
1         ARITHMETIC / MOVE / SUBSCRIPT  ROUTINES                                                               PAGE  188
-  LOC  OBJECT CODE    ADDR1 ADDR2  STMT   SOURCE STATEMENT                                       ASM 0201 11.03 02/14/15
0                                   8349 *                                                                       65080021
                             05DDE  8350 XBIIDU EQU   *                                                          65088021
 005DDE 9109 301D      0001D        8351          TM    Y1IRX+NX1(XR3),XX09       XG2IRX+XINREG.                 65096021
 005DE2 4710 F0BE      05DF6        8352        BC    XTHRE,XBID01          OPERAND IS DP AND IN 2 REG           65104021
 005DE6 4770 F118      05E50        8353        BC    XNOEQ,XBID11          OPERAND IS NOT DP OR IN 2 REG        65112021
                                    8354 *                                                                       65120021
 005DEA 9504 3021      00021        8355          CLI   Y1BBS+NX1(XR3),XX04                                      65128021
 005DEE 47C0 F114      05E4C        8356        BC    XLOEQ,XBID10          OPERAND <= 4 BYTES IN LENGTH         65136021
 005DF2 45E0 80F6      00F26        8357        BAL   XRSUB,XSLODB          LOAD OPERAND IN 2 REG                65144021
                                    8358 *                                                                       65152021
                                    8359 *                                                                       65160021
 005DF6 45E0 81E4      01014        8360 XBID01 BAL   XRSUB,XZWHIR          GET REG TBL OF REG USED              65168021
 005DFA 5840 D464      0852C        8361        L     XR4,XLIRP                  XR4 HAS REG. INFORMATION TA     65176021
 005DFE 9502 4003      00003        8362          CLI   DX3(XR4),XX02                                            65184021
 005E02 4720 F0DE      05E16        8363        BC    XTWO,XBID02                CALL  DP  CONVERT ROUTINE B     65192021
 005E06 4740 F0EA      05E22        8364        BC    XONE,XBID03                TO ID                           65200021
 005E0A 45E0 8792      015C2        8365        BAL   XRSUB,VBADCE          L   15,V(BID2)                       65208021
 005E0E C2C9C4F2                    8366        DC    CL4'BID2'                     BALR  14,15                  65216021
 005E12 47F0 F0F2      05E2A        8367        BC    UNCON,XBID04               X                               65224021
 005E16 45E0 8792      015C2        8368 XBID02 BAL   XRSUB,VBADCE         IN BIDN, N IS THE NUMBER OF           65232021
 005E1A C2C9C4F0                    8369        DC    C'BID0'              THE EVEN REGISTER                     65240021
 005E1E 47F0 F0F2      05E2A        8370        BC    UNCON,XBID04               X                               65248021
 005E22 45E0 8792      015C2        8371 XBID03 BAL   XRSUB,VBADCE               X                               65256021
 005E26 C2C9C4F1                    8372        DC    C'BID1'                                                    65264021
0
                             05E2A  8374 XBID04 EQU   *                                                          65280021
 005E2A 45E0 851C      0134C        8375        BAL   XRSUB,WKZAP           GENERATE ZAP OUT OF WORK AREA        65288021
 005E2E 5864 0004      00004        8376          L     XR6,DX4(XR4)              RELEASE REG. AND RESET FLAG    65296021
 005E32 D702 6000 6000 00000 00000  8377          XC    DX0(LX3,XR6),DX0(XR6)                                    65304021
 005E38 D702 4000 4000 00000 00000  8378 XBID20   XC    DX0(LX3,XR4),DX0(XR4)                                    65312021
 005E3E 94F6 301D      0001D        8379          NI    Y1IRX+NX1(XR3),XIN2RX                                    65320021
 005E42 920C 301C      0001C        8380          MVI   Y1IRX(XR3),XX0C                                          65328021
 005E46 980F C5C8      07B58        8381        LM    XR0,XR15,XGSAV8            EXIT.                           65336021
 005E4A 07FE                        8382        BCR   UNCON,XRSUB                X                               65344021
0
                                    8384 *                                                                       65360021
                                    8385 *                                                                       65368021
 005E4C 45E0 8106      00F36        8386 XBID10   BAL   XRSUB,XSLOAS        GENERATE LOAD INSTRUCTION            65376021
 005E50 45E0 81E4      01014        8387 XBID11 BAL   XRSUB,XZWHIR               X                               65384021
 005E54 5840 D464      0852C        8388        L     XR4,XLIRP                  3(XR4)  HAS REG NUMBER.         65392021
 005E58 D200 D188 4003 08250 00003  8389          MVC   XREG1(LX1),DX3(XR4)          GENERATE                    65400021
 005E5E 9208 D469      08531        8390          MVI   XELEN+NX1,XX08                   CVD  XRN,TEMP           65408021
 005E62 45E0 7848      00848        8391        BAL   XRSUB,XTAMPO               X                               65416021
 005E66 D201 D14A D446 08212 0850E  8392          MVC   XWC1(LX2),XEREL1          X                              65424021
 005E6C 45E0 BAEA      0217A        8393        BAL   XRSUB,CVD                  X                               65432021
 005E70 D203 3018 D442 00018 0850A  8394          MVC   Y1TEL(LX4,XR3),XYTEL      UPDATE   XIVAL BUFFER          65440021
                                    8395 *                                                                       65448021
                                    8396 *                                                                       65456021
 005E76 47F0 F100      05E38        8397        BC    UNCON,XBID20               GO AND UPDATE TYPE .            65464021
1         ARITHMETIC / MOVE / SUBSCRIPT  ROUTINES                                                               PAGE  189
-  LOC  OBJECT CODE    ADDR1 ADDR2  STMT   SOURCE STATEMENT                                       ASM 0201 11.03 02/14/15
0                            05E7A  8399 XIDBIU EQU   *                                                          65480021
 005E7A 9504 D419      084E1        8400          CLI   XGTEM2+NX9,XX04                                          65488021
 005E7E 4720 F1B0      05EE8        8401        BC    XTWO,XID000                DP CONVERSION.                  65496021
 005E82 45E0 8076      00EA6        8402        BAL   XRSUB,XRSASG               SINGLE PRECISION CONVERSION     65504021
 005E86 5840 D464      0852C        8403        L     XR4,XLIRP                                                  65512021
 005E8A D200 D485 D43B 0854D 08503  8404          MVC   XYLEN(LX1),XZLENG+NX1             ZAP  TEMP(8),OP        65520021
 005E90 41E0 F16A      05EA2        8405        LA    XRSUB,XID002                                               65528021
 005E94 D500 D485 3011 0854D 00011  8406          CLC   XYLEN(LX1),Y1LAS+NX1(XR3)         CVB  XRN,TEMP          65536021
 005E9A 4770 7D08      00D08        8407        BC    XNOEQ,XYOBF           GENERATE ZAP INTO TEMP STOR          65544021
 005E9E 47F0 7CFE      00CFE        8408        BC    UNCON,XYOAF           GENERATE ZAP INTO TEMP STOR          65552021
                                    8409 *                                                                       65560021
                                    8410 *                                                                       65568021
 005EA2 4860 D446      0850E        8411 XID002 LH    XR6,XEREL1                                                 65576021
 005EA6 9508 D443      0850B        8412          CLI   XYTEL+NX1,XX08                                           65584021
 005EAA 47C0 F17A      05EB2        8413        BC    XLOEQ,XID006          LENGTH IS <= 8 BYTES                 65592021
 005EAE 4A60 C868      07DF8        8414        AH    XR6,XC008                                                  65600021
 005EB2 4060 D14A      08212        8415 XID006 STH   XR6,XWC1                                                   65608021
 005EB6 D200 D188 4003 08250 00003  8416          MVC   XREG1(LX1),DX3(XR4)                                      65616021
 005EBC 45E0 BAE2      02172        8417        BAL   XRSUB,CVB                  X                               65624021
 005EC0 920B 301C      0001C        8418 XID010   MVI   Y1IRX(XR3),XX0B                                          65632021
 005EC4 45E0 81E4      01014        8419        BAL   XRSUB,XZWHIR          GET REG TBL OF REG USED              65640021
 005EC8 9504 D419      084E1        8420          CLI   XGTEM2+NX9,XX04           SET FLAGS IN REG TABLE.        65648021
 005ECC 47D0 F1AA      05EE2        8421        BC    XNOGT,XID100               X                               65656021
 005ED0 9608 4002      00002        8422          OI    DX2(XR4),XRDPRE           X                              65664021
 005ED4 5864 0004      00004        8423          L     XR6,DX4(XR4)              X                              65672021
 005ED8 D202 6000 4000 00000 00000  8424          MVC   DX0(LX3,XR6),DX0(XR4)                                    65680021
 005EDE 9601 301D      0001D        8425          OI    Y1IRX+NX1(XR3),XG2IRX     X                              65688021
                             05EE2  8426 XID100 EQU   *                          X                               65696021
 005EE2 980F C5C8      07B58        8427        LM    XR0,XR15,XGSAV8                                            65704021
 005EE6 07FE                        8428        BCR   UNCON,XRSUB           RETURN                               65712021
0
 005EE8 9200 D48A      08552        8430 XID000   MVI   XREGNO,XX00                                              65728021
 005EEC 45E0 8394      011C4        8431        BAL   XRSUB,XFREEP               FREE  PAIR  0,1                 65736021
 005EF0 92D0 D14E      08216        8432          MVI   BDISP1,XXD0                                              65744021
 005EF4 9260 D14F      08217        8433          MVI   BDISP1+NX1,WORKA          GENERATE    ZAP  WORKA(10,1    65752021
 005EF8 920A D149      08211        8434          MVI   XL1+NX1,XX0A                                        O    65760021
 005EFC 4850 C892      07E22        8435        LH    XR5,XMINFV                 X                               65768021
 005F00 45E0 781A      0081A        8436        BAL   XRSUB,XZNIII               X                               65776021
 005F04 4800 D190      08258        8437        LH    XR0,XL2                                                    65784021
 005F08 4B00 C86C      07DFC        8438        SH    XR0,XC010                                                  65792021
 005F0C 47D0 F1E0      05F18        8439        BC    XNOGT,XID003          GENERATE ZAP                         65800021
 005F10 4200 D1C5      0828D        8440          STC   XR0,XPLUS2+NX2                                           65808021
 005F14 920A D191      08259        8441          MVI   XL2+NX1,XX0A                                             65816021
                             05F18  8442 XID003 EQU   *                                                          65824021
 005F18 45E0 B000      01690        8443        BAL   XRSUB,ZAP             GENERATE ZAP                         65832021
 005F1C 4960 C878      07E08        8444        CH    XR6,XC018                                                  65840021
 005F20 47D0 F1FC      05F34        8445        BC    XNOGT,XID005          OPERAND <= 18 CALL SUBROUTINE        65848021
 005F24 9260 D14F      08217        8446          MVI   BDISP1+NX1,WORKA                                         65856021
 005F28 92D0 D14E      08216        8447          MVI   BDISP1,XXD0                                              65864021
 005F2C 920F D189      08251        8448          MVI   XIMM,XX0F                                                65872021
 005F30 45E0 BB3E      021CE        8449        BAL   XRSUB,NI              GENERATE NI                          65880021
                             05F34  8450 XID005 EQU   *                                                          65888021
 005F34 45E0 8792      015C2        8451        BAL   XRSUB,VBADCE         L  15,V(IDB0)                         65896021
 005F38 C9C4C2F0                    8452        DC    C'IDB0'              BALR  14,15                           65904021
1         ARITHMETIC / MOVE / SUBSCRIPT  ROUTINES                                                               PAGE  190
-  LOC  OBJECT CODE    ADDR1 ADDR2  STMT   SOURCE STATEMENT                                       ASM 0201 11.03 02/14/15
0005F3C 4140 D650      08718        8453        LA    XR4,XRAU14                                                 65912021
 005F40 9208 3021      00021        8454          MVI   Y1BBS+NX1(XR3),XX08                                      65920021
 005F44 9208 3013      00013        8455          MVI   Y1BAS+NX1(XR3),XX08                                      65928021
 005F48 47F0 F188      05EC0        8456        BC    UNCON,XID010          SET FLAGS IN REG TBL                 65936021
-
-
-

                             05F4C  8458 XFREEU EQU   *                                                          65952021
 005F4C 45E0 8264      01094        8459        BAL   XRSUB,XLWHIR               GET REG. TABLE ADDRESS.         65960021
 005F50 5840 D464      0852C        8460        L     XR4,XLIRP                                                  65968021
 005F54 9104 4002      00002        8461          TM    DX2(XR4),XRFREE                                          65976021
 005F58 4780 F228      05F60        8462        BC    XZERO,XFR001          REG IS FREE                          65984021
 005F5C 45E0 80DC      00F0C        8463        BAL   XRSUB,XRSTOR               GENERATE   ST  XRN ,TEMP        65992021
                             05F60  8464 XFR001 EQU   *                          OR,  STM   XR2P,XR2P+1,TEMP     66000021
 005F60 1200                        8465        LTR   XR0,XR0                       OR      ST  XR2P ,TEMP       66008021
 005F62 4780 F242      05F7A        8466        BC    XZERO,XFR010                          ST  XR2P+1, TEMP     66016021
 005F66 5844 0004      00004        8467          L     XR4,DX4(XR4)              X                              66024021
 005F6A 9104 4002      00002        8468          TM    DX2(XR4),XRFREE           X                              66032021
 005F6E 4780 F23E      05F76        8469        BC    XZERO,XFR002               X                               66040021
 005F72 45E0 80DC      00F0C        8470        BAL   XRSUB,XRSTOR               X                               66048021
 005F76 5844 0004      00004        8471 XFR002   L     XR4,DX4(XR4)              X                              66056021
0
 005F7A 9853 C488      07A18        8473 XFR010 LM    XR5,XR3,XGSAV3             X  EXIT                         66072021
 005F7E 07FE                        8474        BCR   UNCON,XRSUB                X                               66080021
-
0
                             05F80  8476 XSSPRO EQU   *                                                          66096021
                                    8477 *                                                                       66104021
 005F80 9102 3007      00007        8478          TM    DX7(XR3),XX02             Q BIT ON.                      66112021
 005F84 4780 F28C      05FC4        8479        BC    XZERO,XSSP02               NO-                             66120021
 005F88 1B66                        8480 LSSPRO SR    XR6,XR6              CALL Q-RTNS                           66128021
 005F8A 4363 0001      00001        8481          IC    XR6,DX1(XR3)                     L    2,GNREF            66136021
 005F8E 4B60 C3BA      0794A        8482        SH    XR6,XC004                         BALR  2,2                66144021
 005F92 1A63                        8483        AR    XR6,XR3                    AND AS MANY  BALR  2,2 AS       66152021
 005F94 9202 D188      08250        8484          MVI   XREG1,XX02                SPECIFIED IN ATTRIBUTE.        66160021
 005F98 D201 D172 6001 0823A 00001  8485          MVC   XGN1(LX2),DX1(XR6)                                       66168021
 005F9E 45E0 B000      01690        8486        BAL   XRSUB,LOAD            GENERATE A LOAD INSTRUCTION          66176021
 005FA2 1B11                        8487        SR    XR1,XR1                                                    66184021
 005FA4 4316 0000      00000        8488          IC    XR1,DX0(XR6)                                             66192021
 005FA8 4111 0001      00001        8489          LA    XR1,DX1(XR1)                                             66200021
 005FAC 45E0 8846      01676        8490        BAL   XRSUB,WRKLRG          KILL SUBS                            66208021
 005FB0 9202 D188      08250        8491 XSSP03   MVI   XREG1,XX02                                               66216021
 005FB4 9202 D1D0      08298        8492          MVI   XREG2,XX02                                               66224021
 005FB8 45E0 BC7A      0230A        8493        BAL   XRSUB,BRNLNK          GENERATE A BAL INSTRUCTION           66232021
1         ARITHMETIC / MOVE / SUBSCRIPT  ROUTINES                                                               PAGE  191
-  LOC  OBJECT CODE    ADDR1 ADDR2  STMT   SOURCE STATEMENT                                       ASM 0201 11.03 02/14/15
0005FBC 4610 F278      05FB0        8494        BCT   XR1,XSSP03            FALL THRU WHEN SUFFIC BALRS GEN      66240021
 005FC0 47F0 F316      0604E        8495          B     XSSPXT             BRANCH TO XSSPXT RTN                  66248021
                             05FC4  8496 XSSP02 EQU   *                                                          66256021
 005FC4 45E0 802C      00E5C        8497        BAL   XRSUB,XLENGH          GET LENGTHS OF OPERAND               66264021
 005FC8 D505 D450 C850 08518 07DE0  8498          CLC   XIDBY(LX6),XC000                                         66272021
 005FCE 4780 F31C      06054        8499        BC    XZERO,XSSP04          NON ARITHMETIC                       66280021
 005FD2 9500 3008      00008        8500          CLI   XGSCAL(XR3),XX00                                         66288021
 005FD6 4780 F2B2      05FEA        8501        BC    XZERO,XSSPD1          NO SCALING                           66296021
 005FDA 9180 3008      00008        8502          TM    XGSCAL(XR3),XX80                                         66304021
 005FDE 4710 F2B2      05FEA        8503        BC    XTHRE,XSSPD1          SCALING                              66312021
 005FE2 9101 3003      00003        8504 XSSP07   TM    DX3(XR3),XX01             REDEFINE FLAG ON.              66320021
 005FE6 4780 F316      0604E        8505        BC    XZERO,XSSPXT               NO-                             66328021
 005FEA 1B11                        8506 XSSPD1 SR    XR1,XR1                                                    66336021
 005FEC 4313 0001      00001        8507          IC    XR1,DX1(XR3)                                             66344021
 005FF0 0610                        8508        BCTR  XR1,XR0               SUBTRACT ONE TO GET DICT PTR         66352021
 005FF2 1A13                        8509        AR    XR1,XR3                                                    66360021
 005FF4 D202 D429 1000 084F1 00000  8510          MVC   XCON+NX1(LX3),DX0(XR1)    MOVE DICT PTR                  66368021
 005FFA 9200 D428      084F0        8511          MVI   XCON,XX00                                                66376021
                                    8512 *                                                                       66384021
 005FFE 5810 C904      07E94        8513        L     XR1,XASCRP                 FIND BEG.AND DISPLT.OF SUBS     66392021
 006002 45E0 7E1C      00E1C        8514        BAL   XRSUB,XTBDEB               IN XR2 AND XR3.                 66400021
 006006 1852                        8515        LR    XR5,XR2                                                    66408021
 006008 1802                        8516        LR    XR0,XR2                                                    66416021
 00600A 1A03                        8517        AR    XR0,XR3                                                    66424021
 00600C 1902                        8518        CR    XR0,XR2                                                    66432021
 00600E 4780 F316      0604E        8519        BC    XZERO,XSSPXT          RETURN                               66440021
0
 006012 D501 5000 C870 00000 07E00  8521 XSU00    CLC   DX0(LX2,XR5),XC012   ANY SUBS IDKS IN ENTRY...           66456021
 006018 4770 F2EC      06024        8522        BNE   XSU10                YES, TEST FOR A MATCH                 66464021
 00601C 4A50 C870      07E00        8523        AH    XR5,XC012            NO, SKIP THIS ENTRY                   66472021
 006020 47F0 F30C      06044        8524        B     XSUTST               TEST FOR END OF TABLE                 66480021
                             06024  8525 XSU10  EQU   *                                                          66488021
 006024 4865 0002      00002        8526          LH    XR6,DX2(XR5)        PICK UP NUMB OF SUBS                 66496021
 006028 1845                        8527        LR    XR4,XR5                    RY.                             66504021
 00602A 4A50 C870      07E00        8528        AH    XR5,XC012                  SET XR5 TO THE FIRST SUBS O     66512021
 00602E D503 5000 D428 00000 084F0  8529 XSU03    CLC   DX0(LX4,XR5),XCON          TRY. IS THERE A MATCH         66520021
 006034 4780 F37A      060B2        8530        BC    XZERO,XSU01                YES                             66528021
 006038 4B60 C3AE      0793E        8531        SH    XR6,XC001                  NO-TRY NEXT SUBS.               66536021
 00603C 4770 F372      060AA        8532        BC    XNOEQ,XSU02                NO MORE SUBS.FOR THIS ENTRY     66544021
 006040 4A50 C3BA      0794A        8533        AH    XR5,XC004                  NEXT ENTRY .                    66552021
 006044 1950                        8534 XSUTST CR    XR5,XR0                    NO MORE  ENTRY.                 66560021
 006046 4770 F2DA      06012        8535        BC    XNOEQ,XSU00                NO                              66568021
 00604A 45E0 F334      0606C        8536        BAL   XRSUB,XUPRET          UPDATE REGISTER TABLE          9     66576021
 00604E 980F C408      07998        8537 XSSPXT  LM   XR0,XR15,XGSAV1                                            66584021
 006052 07FE                        8538        BCR   UNCON,XRSUB           RETURN                               66592021
 006054 9501 D410      084D8        8539 XSSP04 CLI   XGTEM2,XGGPFL                                              66600021
 006058 4780 F32C      06064        8540        BC    XZERO,XSSP06          FIXED LENGTH GROUP                   66608021
 00605C 9504 D410      084D8        8541        CLI   XGTEM2,XGGPVL                                              66616021
 006060 4770 F2AA      05FE2        8542        BC    XNOEQ,XSSP07          NOT A VARIABLE LENGTH GROUP          66624021
 006064 45E0 7DEC      00DEC        8543 XSSP06 BAL   XRSUB,KILSUB               FOR GROUP KILL SUB. TABLE.      66632021
 006068 47F0 F316      0604E        8544        BC    UNCON,XSSPXT          RETURN                               66640021
                                    8545 *  THIS RTN INSERTED TO FIX P9553.                                      66648021
                             0606C  8546 XUPRET EQU   *                                                          66656021
 00606C 180E                        8547        LR    XR0,XRSUB             SAVE REG14-LINKAGE REG               66664021
1         ARITHMETIC / MOVE / SUBSCRIPT  ROUTINES                                                               PAGE  192
-  LOC  OBJECT CODE    ADDR1 ADDR2  STMT   SOURCE STATEMENT                                       ASM 0201 11.03 02/14/15
000606E 5810 C904      07E94        8548        L     XR1,XASCRP                                                 66672021
 006072 45E0 7E1C      00E1C        8549        BAL   XRSUB,XTBDEB          GET SUBSCRIPT TBL INFO               66680021
 006076 1852                        8550        LR    XR5,XR2               SAVE ADDR OF BEG OF TABLE            66688021
 006078 1A32                        8551        AR    XR3,XR2               GET ADDR OF END OF TABLE             66696021
 00607A 4862 0000      00000        8552 XAGAIN   LH    XR6,DX0(XR2)         GET LENGTH OF ENTRY                 66704021
 00607E 9130 2005      00005        8553          TM    DX5(XR2),XRRRFL      TEST IF ENTRY IS FLAGGED FOR REG    66712021
 006082 47E0 F366      0609E        8554        BC    NOTHR,XUPTES          NO,BRANCH                            66720021
 006086 D200 D48A 2006 08552 00006  8555          MVC   XREGNO(LX1),DX6(XR2)  YES,MOVE REG= WHERE SUBSCRIPT IS   66728021
 00608C 45E0 8264      01094        8556        BAL   XRSUB,XLWHIR          GET ADDRESS OF REG TBL               66736021
 006090 5840 D464      0852C        8557        L     XR4,XLIRP             GET ADDR OF IRTBL THAT MATCHES X     66744021
 006094 4112 0004      00004        8558          LA    XR1,DX4(XR2)         GET ADDR OF 2ND WD IN ENTRY         66752021
 006098 1B15                        8559        SR    XR1,XR5               GET DISP OF ENTRY FROM BEG OF TB     66760021
 00609A 4014 0000      00000        8560          STH   XR1,DX0(XR4)         ENTER DISP IN IR TABLE              66768021
 00609E 1A26                        8561 XUPTES AR    XR2,XR6               ADD LENGTH OF ENTRY TO GET NEXT      66776021
 0060A0 1923                        8562        CR    XR2,XR3               IS IT END OF TABLE                   66784021
 0060A2 4740 F342      0607A        8563        BC    XONE,XAGAIN           NO,BRANCH                            66792021
 0060A6 18E0                        8564        LR    XRSUB,XR0             YES,EXIT                             66800021
 0060A8 07FE                        8565        BCR   UNCOND,XRSUB          RETURN                               66808021
0
 0060AA 4A50 C3BA      0794A        8567 XSU02  AH    XR5,XC004                  TRY NEXT SUBSCRIPT              66824021
 0060AE 47F0 F2F6      0602E        8568        BC    UNCON,XSU03           LOOP                                 66832021
0
 0060B2 4864 0000      00000        8570 XSU01    LH    XR6,DX0(XR4)              MATCH HAS BEEN FOUND           66848021
 0060B6 9130 4005      00005        8571          TM    DX5(XR4),XX30                                            66856021
 0060BA 47E0 F39A      060D2        8572        BC    NOTHR,XSU09                RELEASE ANY REGISTER USED       66864021
 0060BE D200 D48A 4006 08552 00006  8573          MVC   XREGNO(LX1),DX6(XR4)        BY THIS PARTICULAR ENTRY.    66872021
 0060C4 45E0 8264      01094        8574        BAL   XRSUB,XLWHIR          GET ADDRESS OF REG TBL               66880021
 0060C8 5850 D464      0852C        8575        L     XR5,XLIRP                                                  66888021
 0060CC D202 5000 C850 00000 07DE0  8576          MVC   DX0(LX3,XR5),XC000                                       66896021
                             060D2  8577 XSU09  EQU   *                                                          66904021
 0060D2 1854                        8578        LR    XR5,XR4                    ERASE THIS ENTRY BY PUSHING     66912021
 0060D4 1A56                        8579        AR    XR5,XR6                    BACK TABLE.                     66920021
 0060D6 1824                        8580        LR    XR2,XR4                    X                               66928021
 0060D8 1950                        8581 XSU04  CR    XR5,XR0                    X                               66936021
 0060DA 4780 F3B8      060F0        8582        BC    XZERO,XSU05                X                               66944021
 0060DE D203 4000 5000 00000 00000  8583          MVC   DX0(LX4,XR4),DX0(XR5)      X                             66952021
 0060E4 4A50 C3BA      0794A        8584        AH    XR5,XC004                  X                               66960021
 0060E8 4A40 C3BA      0794A        8585        AH    XR4,XC004                  X                               66968021
 0060EC 47F0 F3A0      060D8        8586        BC    UNCON,XSU04                X                               66976021
 0060F0 1B36                        8587 XSU05  SR    XR3,XR6                    UPDATE DISPLACT.OF TABLE AN     66984021
 0060F2 4031 0004      00004        8588          STH   XR3,DX4(XR1)              CHECK  IF OTHER ENTRIES CON    66992021
 0060F6 1852                        8589        LR    XR5,XR2                    THIS DATA-NAME SUBSCRIPT.       67000021
 0060F8 1B06                        8590        SR    XR0,XR6                    X                               67008021
 0060FA 47F0 F30C      06044        8591        BC    UNCON,XSUTST               X                               67016021
1         ARITHMETIC / MOVE / SUBSCRIPT  ROUTINES                                                               PAGE  193
-  LOC  OBJECT CODE    ADDR1 ADDR2  STMT   SOURCE STATEMENT                                       ASM 0201 11.03 02/14/15
-
-
                             060FE  8594 LOADEB EQU   *                                                          67040021
 0060FE 91D0 301D      0001D        8595          TM    Y1IRX+NX1(XR3),XZGNLT                                    67048021
 006102 4780 F3DA      06112        8596        BC    XZERO,XL009           OPERAND NOT A LITERAL                67056021
 006106 1853                        8597        LR    XR5,XR3                                                    67064021
 006108 45E0 7648      00648        8598        BAL   XRSUB,XIDSZ           GET SIZES OF OPERAND                 67072021
 00610C D201 D43A D452 08502 0851A  8599          MVC   XZLENG(LX2),XBDBY                                        67080021
                             06112  8600 XL009  EQU   *                                                          67088021
 006112 4850 C88C      07E1C        8601        LH    XR5,XMINTW                                                 67096021
 006116 9102 D486      0854E        8602        TM    XSLSW,XLASRX               SET XRS TO POINTER TO THE       67104021
 00611A 4780 F3EE      06126        8603        BC    XZERO,XL003                GIVEN IR IF IT IS THE CASE.     67112021
 00611E 45E0 8264      01094        8604        BAL   XRSUB,XLWHIR          GET ADDRESS OF REG TBL               67120021
 006122 5840 D464      0852C        8605        L     XR4,XLIRP                                                  67128021
 006126 9101 D486      0854E        8606 XL003  TM    XSLSW,XL2REG                                               67136021
 00612A 4780 F4DA      06212        8607        BC    XZERO,XL001                SINGLE LOAD WANTED.             67144021
 00612E 9101 301D      0001D        8608          TM    Y1IRX+NX1(XR3),XG2IRX                                    67152021
 006132 4780 F454      0618C        8609        BC    XZERO,XL002           OPERAND NOT DP                       67160021
 006136 9102 D486      0854E        8610 XL006  TM    XSLSW,XLASRX               IF OP IS ALREADY IN A DOUBL     67168021
 00613A 4780 F44E      06186        8611        BC    XZERO,XLEXIT               EXIT IF THE IR IS NOT IMPOS     67176021
 00613E 45E0 81E4      01014        8612        BAL   XRSUB,XZWHIR          GET ADDRESS OF REG TBL               67184021
 006142 5810 D464      0852C        8613        L     XR1,XLIRP                                                  67192021
 006146 1941                        8614        CR    XR4,XR1                                                    67200021
 006148 4780 F44E      06186        8615        BC    XZERO,XLEXIT          RETURN                               67208021
 00614C 45E0 F4FE      06236        8616        BAL   XRSUB,XLSETA                    LR RGIVEN,R                67216021
 006150 9101 D486      0854E        8617        TM    XSLSW,XL2REG                                               67224021
 006154 4780 F4F6      0622E        8618        BC    XZERO,XL005                SINGLE  LOAD - OUT.             67232021
 006158 5811 0004      00004        8619          L     XR1,DX4(XR1)                                             67240021
 00615C D200 D1D0 1003 08298 00003  8620          MVC   XREG2(LX1),DX3(XR1)        2ND LOAD FOR DOUBLE REG LOA   67248021
 006162 5864 0004      00004        8621          L     XR6,DX4(XR4)                     LR   RGIV,R             67256021
 006166 D200 D188 6003 08250 00003  8622          MVC   XREG1(LX1),DX3(XR6)                                      67264021
 00616C 45E0 B000      01690        8623        BAL   XRSUB,LOAD            GENERATE A LOAD INSTRUCTION          67272021
                                    8624 *                                                                       67280021
 006170 5864 0004      00004        8625 XL004    L     XR6,DX4(XR4)                                             67288021
 006174 45E0 F88C      065C4        8626        BAL   XRSUB,FPLLN                SET FLAGS.                      67296021
 006178 9608 4002      00002        8627          OI    DX2(XR4),XRDPRE            DOUBLE REG. FLAG.             67304021
 00617C D202 6000 4000 00000 00000  8628          MVC   DX0(LX3,XR6),DX0(XR4)                                    67312021
 006182 9601 301D      0001D        8629          OI    Y1IRX+NX1(XR3),XG2IRX                                    67320021
0
 006186 980F C488      07A18        8631 XLEXIT LM    XR0,XR15,XGSAV3                                            67336021
 00618A 07FE                        8632        BCR   UNCON,XRSUB           RETURN                               67344021
0
 00618C 9102 D486      0854E        8634 XL002  TM    XSLSW,XLASRX                                               67360021
 006190 4780 F496      061CE        8635        BC    XZERO,XL007           NOT LOADED USING AFTER SCALING L     67368021
 006194 9504 D43B      08503        8636 XL021    CLI   XZLENG+NX1,XX04                                          67376021
 006198 4720 F47A      061B2        8637        BC    XTWO,XL008            LENGTH > 4 BYTES                     67384021
 00619C 45E0 F4FE      06236        8638 XL014  BAL   XRSUB,XLSETA                     L    R,OP                 67392021
 0061A0 9220 D14F      08217        8639 XL020    MVI   BDISP1+NX1,XX20                                          67400021
 0061A4 D200 D188 4003 08250 00003  8640          MVC   XREG1(LX1),DX3(XR4)            SRDA   R,32               67408021
1         ARITHMETIC / MOVE / SUBSCRIPT  ROUTINES                                                               PAGE  194
-  LOC  OBJECT CODE    ADDR1 ADDR2  STMT   SOURCE STATEMENT                                       ASM 0201 11.03 02/14/15
00061AA 45E0 BBE6      02276        8641        BAL   XRSUB,SRDA            GENERATE SRDA                        67416021
 0061AE 47F0 F438      06170        8642        BC    UNCON,XL004           SET FLAGS                            67424021
                                    8643 *                                                                       67432021
                                    8644 *   LM  R2P,R2P+1,OP                                                    67440021
                                    8645 *                                                                       67448021
 0061B2 D200 D188 4003 08250 00003  8646 XL008    MVC   XREG1(LX1),DX3(XR4)                                      67456021
 0061B8 5864 0004      00004        8647          L     XR6,DX4(XR4)                                             67464021
 0061BC D200 D1D0 6003 08298 00003  8648          MVC   XREG2(LX1),DX3(XR6)                                      67472021
 0061C2 45E0 7812      00812        8649        BAL   XRSUB,XZNLB           SET A-TEXT                           67480021
 0061C6 45E0 BBEE      0227E        8650        BAL   XRSUB,LM              GENERATE LM                          67488021
 0061CA 47F0 F438      06170        8651        BC    UNCON,XL004           SET FLAGS                            67496021
0
 0061CE 9108 301D      0001D        8653 XL007    TM    Y1IRX+NX1(XR3),XINREG                                    67512021
 0061D2 4780 F4CE      06206        8654        BC    XZERO,XL023           OPERAND NOT IN A REG                 67520021
0
                                    8656 *                                                                       67536021
                                    8657 *    IS THE OTHER REG OF THE PAIR FREE.                                 67544021
                                    8658 *   YES   GENERATE      SRDA   REVEN,32    OR    LR   REVEN,RODD        67552021
                                    8659 *                                                SRDA   REVEN,32        67560021
                                    8660 *                                                                       67568021
 0061D6 45E0 81E4      01014        8661          BAL   XRSUB,XZWHIR        GET ADDRESS OF REG TBL               67576021
 0061DA 5840 D464      0852C        8662        L     XR4,XLIRP                                                  67584021
 0061DE 5864 0004      00004        8663          L     XR6,DX4(XR4)                                             67592021
 0061E2 9104 6002      00002        8664          TM    DX2(XR6),XRFREE                                          67600021
 0061E6 4780 F4BE      061F6        8665          BZ    XL010               REGISTER IS FREE               51355 67608021
 0061EA 45E0 8144      00F74        8666          BAL   XRSUB,XRDBIR        ASSIGN AN EVEN-ODD PAIR        51355 67616021
 0061EE 5840 D464      0852C        8667          L     XR4,XLIRP                                          51355 67624021
 0061F2 47F0 F464      0619C        8668          B     XL014               GEN  LR  EVENREG,REG           51355 67632021
 0061F6                             8669 XL010    DS    0H                                                 51355 67640021
 0061F6 9101 6003      00003        8670          TM    DX3(XR6),XX01                                            67648021
 0061FA 4710 F468      061A0        8671        BC    XTHRE,XL020           REG ODD                              67656021
 0061FE 45E0 7830      00830        8672        BAL   XRSUB,XZX4X6          SWITCH REG TBL ADDRESSES             67664021
 006202 47F0 F464      0619C        8673        BC    UNCON,XL014           GENERATE LOAD INSTRUCTION            67672021
0
 006206 45E0 8144      00F74        8675 XL023  BAL   XRSUB,XRDBIR          ASSIGN AN EVEN-ODD REG PAIR          67688021
 00620A 5840 D464      0852C        8676        L     XR4,XLIRP                                                  67696021
 00620E 47F0 F45C      06194        8677        BC    UNCON,XL021           GENERATE LOAD INSTRUCTION            67704021
0
 006212 9108 301D      0001D        8679 XL001    TM    Y1IRX+NX1(XR3),XINREG                                    67720021
 006216 4710 F3FE      06136        8680        BC    XTHRE,XL006           OPERAND IN A REG                     67728021
 00621A 9102 D486      0854E        8681        TM    XSLSW,XLASRX                                               67736021
 00621E 4710 F4F2      0622A        8682        BC    XTHRE,XL030           OPER LOADED USING AFTER SCALE LN     67744021
 006222 45E0 8076      00EA6        8683        BAL   XRSUB,XRSASG               L  XR, OP   OR   LR  RGV,R      67752021
 006226 5840 D464      0852C        8684        L     XR4,XLIRP                                                  67760021
 00622A 45E0 F4FE      06236        8685 XL030  BAL   XRSUB,XLSETA          GENERATE LOAD INSTRUCTION            67768021
 00622E 45E0 F88C      065C4        8686 XL005  BAL   XRSUB,FPLLN           SET FLAGS                            67776021
 006232 47F0 F44E      06186        8687        BC    UNCON,XLEXIT          RETURN                               67784021
0
 006236 50E0 C650      07BE0        8689 XLSETA ST    XRSUB,XVARS3                                               67800021
 00623A D200 D188 4003 08250 00003  8690          MVC   XREG1(LX1),DX3(XR4)                                      67808021
1         ARITHMETIC / MOVE / SUBSCRIPT  ROUTINES                                                               PAGE  195
-  LOC  OBJECT CODE    ADDR1 ADDR2  STMT   SOURCE STATEMENT                                       ASM 0201 11.03 02/14/15
0006240 45E0 7812      00812        8691        BAL   XRSUB,XZNLB           SET A-TEXT                           67816021
 006244 45E0 B000      01690        8692        BAL   XRSUB,LOAD            GENERATE LOAD INSTRUCTION            67824021
 006248 58E0 C650      07BE0        8693        L     XRSUB,XVARS3                                               67832021
 00624C 07FE                        8694        BCR   UNCON,XRSUB           RETURN                               67840021
1         ARITHMETIC / MOVE / SUBSCRIPT  ROUTINES                                                               PAGE  196
-  LOC  OBJECT CODE    ADDR1 ADDR2  STMT   SOURCE STATEMENT                                       ASM 0201 11.03 02/14/15
0                            0624E  8696 XZBEG  EQU   *                                                          67856021
0
 00624E 9101 D487      0854F        8698          TM    XZCSW,XX01                                               67872021
 006252 4780 F564      0629C        8699        BC    XZERO,XZ10FL               NOT SCALING                     67880021
 006256 4863 0026      00026        8700        LH    XR6,Y1ALP(XR3)             GENERATE POWER OF TEN           67888021
 00625A 1006                        8701        LPR   XR0,XR6                                                    67896021
 00625C 4780 F6CE      06406        8702        BC    XZERO,XZ1EX           RETURN                               67904021
-
0
                                    8704 *      XB10PW   -GENERATE POWER OF TEN IN BINARY.                       67920021
-
0
 006260 9202 D438      08500        8706          MVI   XCONL,XX02                X                              67936021
 006264 4900 C3BA      0794A        8707        CH    XR0,XC004                                                  67944021
 006268 47C0 F538      06270        8708        BC    XLOEQ,XB10P3          GENERATE HALF WORD CONSTANT          67952021
 00626C 9204 D438      08500        8709          MVI   XCONL,XX04                                               67960021
                             06270  8710 XB10P3 EQU   *                                                          67968021
 006270 4810 C3AE      0793E        8711        LH    XR1,XC001                                                  67976021
 006274 4C10 C86C      07DFC        8712 XB10P1 MH    XR1,XC010                  COMPUTE POWER OF TEN.           67984021
 006278 4600 F53C      06274        8713          BCT   XR0,XB10P1              LOOP                             67992021
 00627C D20F D428 C850 084F0 07DE0  8714          MVC   XCON(LX16),XC000          RESET RECEIVING ZONE.          68000021
 006282 5010 D434      084FC        8715          ST    XR1,XCON+NX12             SET XCON  ZONE                 68008021
 006286 1266                        8716        LTR   XR6,XR6                                                    68016021
 006288 4740 F786      064BE        8717        BC    XONE,XZDIV            NEG SCALING                          68024021
                                    8718 *                                                                       68032021
                                    8719 *                                                                       68040021
 00628C 9118 D482      0854A        8720        TM    XOPMOD,XMUDV               DIVISOR OR OPERAND OF MULTI     68048021
 006290 4770 F56C      062A4        8721        BC    XNOEQ,XZ10FN               YES                             68056021
 006294 9120 D482      0854A        8722        TM    XOPMOD,XDIVFL              DIVIDEND                        68064021
 006298 4710 F570      062A8        8723        BC    XTHRE,XZ100                YES                             68072021
 00629C 9504 D56B      08633        8724 XZ10FL   CLI   XFBAS+NX1,XX04            RESULT IS DP                   68080021
 0062A0 4720 F570      062A8        8725        BC    XTWO,XZ100                 YES                             68088021
 0062A4 9608 D487      0854F        8726 XZ10FN   OI    XZCSW,XX08                NO-RESULT WANTED IN ONE WOR    68096021
0
 0062A8 9108 301D      0001D        8728 XZ100    TM    Y1IRX+NX1(XR3),XINREG                                    68112021
 0062AC 4710 F58C      062C4        8729        BC    XTHRE,XZ102           OPERAND IN REG                       68120021
 0062B0 9101 D487      0854F        8730          TM    XZCSW,XX01                                               68128021
 0062B4 4710 F5A4      062DC        8731        BC    XTHRE,XZ104           SCALING                              68136021
 0062B8 9108 501D      0001D        8732          TM    Y1IRX+NX1(XR5),XINREG                                    68144021
 0062BC 4780 F5A4      062DC        8733        BC    XZERO,XZ104           OPERAND NOT IN REG                   68152021
 0062C0 45E0 7828      00828        8734        BAL   XRSUB,XZX3X5          SWITCH OPERANDS                      68160021
 0062C4 9602 D487      0854F        8735 XZ102    OI    XZCSW,XX02                1ST OP IN REG.                 68168021
 0062C8 9101 D487      0854F        8736          TM    XZCSW,XX01                                               68176021
 0062CC 4710 F5A4      062DC        8737        BC    XTHRE,XZ104           SCALING                              68184021
 0062D0 9108 501D      0001D        8738          TM    Y1IRX+NX1(XR5),XINREG                                    68192021
 0062D4 4780 F5A4      062DC        8739        BC    XZERO,XZ104           OPERAND NOT IN REG                   68200021
 0062D8 9604 D487      0854F        8740          OI    XZCSW,XX04                2OP IN REG.                    68208021
1         ARITHMETIC / MOVE / SUBSCRIPT  ROUTINES                                                               PAGE  197
-  LOC  OBJECT CODE    ADDR1 ADDR2  STMT   SOURCE STATEMENT                                       ASM 0201 11.03 02/14/15
00062DC 9108 D487      0854F        8742 XZ104    TM    XZCSW,XX08                                               68224021
 0062E0 4780 F644      0637C        8743        BC    XZERO,XZ106           RESULT NOT WANTED IN 1 WORD          68232021
                                    8744 *                                                                       68240021
                                    8745 *  RESULT WANTED IN A WORD - TRY TO GENERATE MH.                        68248021
                                    8746 *                                                                       68256021
 0062E4 9106 D487      0854F        8747          TM    XZCSW,XX06                                               68264021
 0062E8 4780 F5E4      0631C        8748        BC    XZERO,XZ107                NO OP. IN REG.                  68272021
 0062EC 4710 F644      0637C        8749        BC    XTHRE,XZ106           BOTH IN REG                          68280021
 0062F0 45E0 81E4      01014        8750 XZ114  BAL   XRSUB,XZWHIR          GET ADDRESS OF REG TBL               68288021
 0062F4 5840 D464      0852C        8751        L     XR4,XLIRP                                                  68296021
 0062F8 1864                        8752        LR    XR6,XR4                                                    68304021
 0062FA 45E0 F766      0649E        8753        BAL   XRSUB,XZSIZ2          TEST SIZE OF 2ND OPERAND             68312021
 0062FE 47F0 F644      0637C        8754        BC    UNCON,XZ106                2ND OP. IS A FULL WORD -NO      68320021
 006302 9101 D487      0854F        8755          TM    XZCSW,XX01                MH POSSIBLE.                   68328021
 006306 4710 F5DA      06312        8756        BC    XTHRE,XZ108           MULTIPLY OPERATION                   68336021
 00630A 45E0 77FA      007FA        8757 XZ113  BAL   XRSUB,XZBINA               SET A-TEXT                      68344021
 00630E 47F0 F69E      063D6        8758        BC    UNCON,XZ123                GO TO MULT. GENERATION.         68352021
 006312 D210 D160 D428 08228 084F0  8759 XZ108    MVC   XCON1(LX17),XCON                                         68360021
 006318 47F0 F69E      063D6        8760        BC    UNCON,XZ123           GENERATE MULTIPLY INSTRUCTION        68368021
 00631C 9101 D487      0854F        8761 XZ107    TM    XZCSW,XX01                                               68376021
 006320 4710 F60A      06342        8762        BC    XTHRE,XZ109           MULTIPLY OPERATION                   68384021
 006324 D500 3013 5013 00013 00013  8763          CLC   Y1BAS+NX1(LX1,XR3),Y1BAS+NX1(XR5)                        68392021
 00632A 4720 F5FA      06332        8764        BC    XTWO,XZ110                 LOAD BIGGER OP IN A REG IF      68400021
                                    8765 *                                       OP IS A HALF WORD.              68408021
 00632E 45E0 7828      00828        8766        BAL   XRSUB,XZX3X5          SWITCH OPERANDS                      68416021
 006332 9502 5013      00013        8767 XZ110    CLI   Y1BAS+NX1(XR5),XX02                                      68424021
 006336 4720 F644      0637C        8768        BC    XTWO,XZ106            LENGTH > HALF WORD                   68432021
 00633A 45E0 8106      00F36        8769 XZ1100 BAL   XRSUB,XSLOAS          GENERATE LOAD AFTER SCALING          68440021
 00633E 47F0 F5B8      062F0        8770        BC    UNCON,XZ114           GET ADDRESS OF REG TBL               68448021
                                    8771 *                                                                       68456021
                                    8772 *                                                                       68464021
 006342 9502 D438      08500        8773 XZ109    CLI   XCONL,XX02                                               68472021
 006346 47D0 F602      0633A        8774        BC    XNOGT,XZ1100          LENGTH <= 2 BYTES                    68480021
 00634A 9502 3021      00021        8775          CLI   Y1BBS+NX1(XR3),XX02                                      68488021
 00634E 4720 F644      0637C        8776        BC    XTWO,XZ106            OPERAND > 2 BYTES                    68496021
 006352 45E0 8076      00EA6        8777        BAL   XRSUB,XRSASG          ASSIGN A REG                         68504021
 006356 5840 D464      0852C        8778        L     XR4,XLIRP                                                  68512021
 00635A 1864                        8779        LR    XR6,XR4                                                    68520021
 00635C D200 D188 4003 08250 00003  8780          MVC   XREG1(LX1),DX3(XR4)                                      68528021
 006362 D210 D160 D428 08228 084F0  8781          MVC   XCON1(LX17),XCON                                         68536021
 006368 45E0 B000      01690        8782        BAL   XRSUB,LOAD            GENERATE A LOAD INSTRUCTION          68544021
 00636C 4850 C88C      07E1C        8783        LH    XR5,XMINTW                                                 68552021
 006370 45E0 77F2      007F2        8784        BAL   XRSUB,XZBINB          SET A-TEXT                           68560021
 006374 45E0 81E4      01014        8785        BAL   XRSUB,XZWHIR               SET FLAF IN OPERANF             68568021
 006378 47F0 F69E      063D6        8786        BC    UNCON,XZ123           GENERATE A MULTIPLY INSTRUCTION      68576021
                                    8787 *                                                                       68584021
                                    8788 *  GENERATE  M  OR  MR                                                  68592021
                                    8789 *                                                                       68600021
 00637C 9204 D438      08500        8790 XZ106    MVI   XCONL,XX04                                               68608021
 006380 9106 D487      0854F        8791          TM    XZCSW,XX06                                               68616021
 006384 4780 F6FA      06432        8792        BC    XZERO,XZ116           BOTH OPERANDS NOT IN A REG           68624021
 006388 4710 F72A      06462        8793        BC    XTHRE,XZ117                BOTH OP IN REG                  68632021
 00638C 45E0 81E4      01014        8794 XZ129  BAL   XRSUB,XZWHIR               CHECK IF OTHER REG OF           68640021
 006390 5840 D464      0852C        8795        L     XR4,XLIRP                  PAIR IS FREE.                   68648021
 006394 5864 0004      00004        8796          L     XR6,DX4(XR4)                                             68656021
1         ARITHMETIC / MOVE / SUBSCRIPT  ROUTINES                                                               PAGE  198
-  LOC  OBJECT CODE    ADDR1 ADDR2  STMT   SOURCE STATEMENT                                       ASM 0201 11.03 02/14/15
0006398 9104 6002      00002        8797          TM    DX2(XR6),XRFREE                                          68664021
 00639C 4710 F6FA      06432        8798        BC    XTHRE,XZ116           REG NOT FREE                         68672021
                                    8799 *                                                                       68680021
                                    8800 *  THE OTHER REGISTER OF THE PAIR TO WHICH ONE OPERAND                  68688021
                                    8801 *  BELONGS IS INOCCUPIED. - GENERATE                                    68696021
                                    8802 *                            LH   R,OP2  OR  LR   R,R1                  68704021
                                    8803 *                            MR              M                          68712021
                                    8804 *                                                                       68720021
 0063A0 9101 6003      00003        8805 XZ153    TM    DX3(XR6),XX01             MAKE SURE THAT XR4             68728021
 0063A4 4710 F674      063AC        8806        BC    XTHRE,XZ118                POINTS TO THE EVEN REG AND      68736021
 0063A8 45E0 7830      00830        8807        BAL   XRSUB,XZX4X6               XR6 TO THE ODD.                 68744021
 0063AC D200 D48A 6003 08552 00003  8808 XZ118    MVC   XREGNO(LX1),DX3(XR6)                                     68752021
 0063B2 45E0 F766      0649E        8809        BAL   XRSUB,XZSIZ2               OTHER OP IS A FULL WORD.        68760021
 0063B6 47F0 F6EA      06422        8810        BC    UNCON,XZ120                OTHER OP IS A HALF WORD,        68768021
                                    8811 *                                       LOAD IT IN INOCCUPIED           68776021
                                    8812 *                                       REGISTER OF THE PAIR.           68784021
 0063BA 45E0 7828      00828        8813        BAL   XRSUB,XZX3X5          SWITCH OPERANDS                      68792021
 0063BE 9104 6002      00002        8814          TM    DX2(XR6),XRFREE                                          68800021
 0063C2 4780 F694      063CC        8815        BC    XZERO,XZ126           REG IS FREE                          68808021
 0063C6 D200 D48A 4003 08552 00003  8816          MVC   XREGNO(LX1),DX3(XR4)                                     68816021
 0063CC 45E0 80FE      00F2E        8817 XZ126  BAL   XRSUB,XSLGVX          GENERATE A LOAD INSTRUCTION          68824021
 0063D0 D200 D1D0 4003 08298 00003  8818 XZ125    MVC   XREG2(LX1),DX3(XR4)                                      68832021
 0063D6 D200 D188 4003 08250 00003  8819 XZ123    MVC   XREG1(LX1),DX3(XR4)        GENERATE M  OR  MR.           68840021
 0063DC 45E0 BABA      0214A        8820          BAL   XRSUB,MULT               GENERATE MULTIPLY               68848021
0
                                    8822 *                                                                       68864021
                                    8823 *  UPDATE FLAG IN REG TABLE AND IN RESULT BUFFER.                       68872021
                                    8824 *                                                                       68880021
 0063E0 9708 301D      0001D        8825          XI    Y1IRX+NX1(XR3),XINREG    UPDATE FLAG IN OPERANDS AND     68888021
 0063E4 D702 4000 4000 00000 00000  8826          XC    DX0(LX3,XR4),DX0(XR4)      RESULT BUFFER , AND ALSO      68896021
 0063EA 9108 D487      0854F        8827          TM    XZCSW,XX08                IN REG. INFORMATION TABLE.     68904021
 0063EE 4780 F6D4      0640C        8828        BC    XZERO,XZ180           RESULT NOT WANTED IN A WORD          68912021
 0063F2 1846                        8829        LR    XR4,XR6                                                    68920021
 0063F4 45E0 81E4      01014        8830        BAL   XRSUB,XZWHIR          GET ADDRESS OF REG TBL               68928021
 0063F8 9101 D487      0854F        8831 XZFINL   TM    XZCSW,XX01                                               68936021
 0063FC 4710 F6CE      06406        8832        BC    XTHRE,XZ1EX           SCALING, EXIT                        68944021
 006400 D201 D574 301C 0863C 0001C  8833          MVC   XFIRX(LX2),Y1IRX(XR3)     SET RESULT BUFFER.             68952021
 006406 980F C448      079D8        8834 XZ1EX  LM    XR0,XR15,XGSAV2                                            68960021
 00640A 07FE                        8835        BCR   UNCON,XRSUB           RETURN                               68968021
 00640C 45E0 81E4      01014        8836 XZ180  BAL   XRSUB,XZWHIR          GET ADDRESS OF REG TBL               68976021
 006410 9608 4002      00002        8837          OI    DX2(XR4),XRDPRE                                          68984021
 006414 D202 6000 4000 00000 00000  8838          MVC   DX0(LX3,XR6),DX0(XR4)                                    68992021
 00641A 9601 301D      0001D        8839          OI    Y1IRX+NX1(XR3),XG2IRX                                    69000021
 00641E 47F0 F6C0      063F8        8840        BC    UNCON,XZFINL          SET RESULT BUFFER IF MULT            69008021
0
 006422 45E0 80FE      00F2E        8842 XZ120    BAL   XRSUB,XSLGVX        MAKE SURE THAT AT LEAST              69024021
 006426 9101 D487      0854F        8843          TM    XZCSW,XX01                ONE OF THE OPERAND IS IN       69032021
 00642A 4710 F5DA      06312        8844        BC    XTHRE,XZ108                THE ODD REGISTER OF THE         69040021
 00642E 47F0 F5D2      0630A        8845        BC    UNCON,XZ113                PAIR.                           69048021
0
                                    8847 *                                                                       69064021
                                    8848 *  ASK  A  NEW  PAIR  OF  REG.                                          69072021
1         ARITHMETIC / MOVE / SUBSCRIPT  ROUTINES                                                               PAGE  199
-  LOC  OBJECT CODE    ADDR1 ADDR2  STMT   SOURCE STATEMENT                                       ASM 0201 11.03 02/14/15
0                                   8849 *                                                                       69080021
 006432 45E0 8144      00F74        8850 XZ116  BAL   XRSUB,XRDBIR               ASK A NEW PAIR                  69088021
 006436 5840 D464      0852C        8851        L     XR4,XLIRP                  XR4 HAS EVEN REG. TABLE         69096021
 00643A 5864 0004      00004        8852          L     XR6,DX4(XR4)              XR6 HAS ODD --.                69104021
 00643E D200 D48A 6003 08552 00003  8853          MVC   XREGNO(LX1),DX3(XR6)                                     69112021
 006444 9101 D487      0854F        8854          TM    XZCSW,XX01                LOAD SMALLER OPERAND IN        69120021
 006448 4710 F722      0645A        8855        BC    XTHRE,XZ194                THE ODD OF THE                  69128021
 00644C D500 3013 5013 00013 00013  8856          CLC   Y1BAS+NX1(LX1,XR3),Y1BAS+NX1(XR5) PAIR.                  69136021
 006452 47C0 F722      0645A        8857        BC    XLOEQ,XZ194           LOAD OPERAND ADDRESSED IN XR3        69144021
 006456 45E0 7828      00828        8858        BAL   XRSUB,XZX3X5          SWITCH OPERANDS                      69152021
 00645A 45E0 80FE      00F2E        8859 XZ194  BAL   XRSUB,XSLGVX          GENERATE A LOAD INSTRUCTION          69160021
 00645E 47F0 F674      063AC        8860        BC    UNCON,XZ118           CHECK SIZE OF 2ND OPERAND            69168021
0
 006462 45E0 81E4      01014        8862 XZ117  BAL   XRSUB,XZWHIR               IF BOTH OPERAND ARE             69184021
 006466 5840 D464      0852C        8863        L     XR4,XLIRP                  IN REG                          69192021
 00646A 5864 0004      00004        8864          L     XR6,DX4(XR4)              A( IF THEY ARE IN THE          69200021
 00646E 45E0 7828      00828        8865        BAL   XRSUB,XZX3X5               SAME PAIR -MR  REV,REV          69208021
 006472 45E0 81E4      01014        8866        BAL   XRSUB,XZWHIR          GET ADDRESS OF REG TBL               69216021
 006476 5960 D464      0852C        8867        C     XR6,XLIRP                  B) IF ONE OF THEM IS IN         69224021
 00647A 4770 F756      0648E        8868        BC    XNOEQ,XZ150                A PAIR WITH AN INOCCUPIED       69232021
 00647E 9101 6003      00003        8869          TM    DX3(XR6),XX01             REGISTER PROCEED AS            69240021
 006482 4710 F698      063D0        8870        BC    XTHRE,XZ125                IN Z106.                        69248021
 006486 45E0 7830      00830        8871        BAL   XRSUB,XZX4X6          SWITCH REG TBL ADDRESSES             69256021
 00648A 47F0 F698      063D0        8872        BC    UNCON,XZ125           GENERATE MULTIPLY                    69264021
 00648E 9104 6002      00002        8873 XZ150    TM    DX2(XR6),XRFREE                                          69272021
 006492 4710 F654      0638C        8874        BC    XTHRE,XZ129           CHECK OTHER REG OF PAIR              69280021
 006496 45E0 7828      00828        8875        BAL   XRSUB,XZX3X5          SWITCH OPERANDS                      69288021
 00649A 47F0 F668      063A0        8876        BC    UNCON,XZ153           GENERATE MULT                        69296021
0
0
 00649E 9101 D487      0854F        8879 XZSIZ2   TM    XZCSW,XX01                TEST SIZE OF 2ND OPERAND.      69320021
 0064A2 4710 F77E      064B6        8880        BC    XTHRE,XZSIZ3               IF IT IS A FULL WORD OR         69328021
 0064A6 9108 501D      0001D        8881          TM    Y1IRX+NX1(XR5),XINREG     IF IT IS IN REG RETURN AT      69336021
 0064AA 071E                        8882        BCR   XTHRE,XRSUB                0(XRSUB) - OTHERWISE            69344021
 0064AC 9502 5013      00013        8883          CLI   Y1BAS+NX1(XR5),XX02       RETURN AT 4(XRSUB).            69352021
 0064B0 072E                        8884 XZSIZ4 BCR   XTWO,XRSUB            RETURN                               69360021
 0064B2 47FE 0004      00004        8885          B     DX4(XRSUB)         RETURN TO CALLER                      69368021
 0064B6 9502 D438      08500        8886 XZSIZ3   CLI   XCONL,XX02                                               69376021
 0064BA 47F0 F778      064B0        8887        BC    UNCON,XZSIZ4          RETURN                               69384021
-
0
 0064BE 45E0 80F6      00F26        8889 XZDIV    BAL   XRSUB,XSLODB        GENERATE A DP LOAD                   69400021
                                    8890 *                                       DIVIDE BY POWER OF              69408021
                                    8891 *                                       TEN IN XCON                     69416021
 0064C2 9204 D438      08500        8892          MVI   XCONL,XX04                                               69424021
 0064C6 4850 C88A      07E1A        8893        LH    XR5,XMINON                                                 69432021
 0064CA 45E0 77F2      007F2        8894        BAL   XRSUB,XZBINB          SET A-TEXT                           69440021
 0064CE 45E0 BAC2      02152        8895        BAL   XRSUB,DIV             GENERATE A DIVIDE INSTRUCTION        69448021
 0064D2 4510 7D8A      00D8A        8896        BAL   XR1,XODDRG                 GET ODD REGISTER = QUOTIENT     69456021
1         ARITHMETIC / MOVE / SUBSCRIPT  ROUTINES                                                               PAGE  200
-  LOC  OBJECT CODE    ADDR1 ADDR2  STMT   SOURCE STATEMENT                                       ASM 0201 11.03 02/14/15
00064D6 45E0 F88C      065C4        8897        BAL   XRSUB,FPLLN           SET FLAGS IN REG TBL                 69464021
 0064DA 9701 301D      0001D        8898          XI    Y1IRX+NX1(XR3),XG2IRX                                    69472021
 0064DE 47F0 F6CE      06406        8899        BC    UNCON,XZ1EX           RETURN                               69480021
1         ARITHMETIC / MOVE / SUBSCRIPT  ROUTINES                                                               PAGE  201
-  LOC  OBJECT CODE    ADDR1 ADDR2  STMT   SOURCE STATEMENT                                       ASM 0201 11.03 02/14/15
0                                   8901 *                                                                       69496021
                                    8902 *                                                                       69504021
                             064E2  8903 FPLLLB EQU   *                                                          69512021
 0064E2 9102 D486      0854E        8904          TM    XSLSW,XX02                                               69520021
 0064E6 4780 F7F4      0652C        8905        BC    XZERO,FPL02           SHORT FORM                           69528021
 0064EA 9101 301D      0001D        8906          TM    Y1IRX+NX1(XR3),XG2IRX     OPERAND ALREADY CORRECTLY L    69536021
 0064EE 4710 F7DE      06516        8907        BC    XTHRE,FPLLEX               EXIT.                           69544021
                                    8908 *                                                                       69552021
                                    8909 *   LOAD IN A REG LONG FORM                                             69560021
                                    8910 *                                                                       69568021
 0064F2 45E0 8050      00E80        8911        BAL   XRSUB,XRSASF               ASK A REG - XR4 WILL POINT      69576021
                                    8912 *                                       CORRESPONDING IR TABLE.         69584021
 0064F6 5840 D464      0852C        8913        L     XR4,XLIRP                                                  69592021
 0064FA 9104 301D      0001D        8914 FPL11    TM    Y1IRX+NX1(XR3),XGDPFP                                    69600021
 0064FE 4780 F7E4      0651C        8915        BC    XZERO,FPL03           NOT DP                               69608021
 006502 45E0 F874      065AC        8916        BAL   XRSUB,FPLLL           SET A-TEXT BUFFER.                   69616021
 006506 45E0 BCDE      0236E        8917        BAL   XRSUB,LDFLL                           LD  XR,OP            69624021
                                    8918 *                                                  LDR  XR,XN           69632021
 00650A 45E0 F88C      065C4        8919 FPL04  BAL   XRSUB,FPLLN                SET FLAGS IN OPERAND BUFFER     69640021
 00650E 9608 4002      00002        8920          OI    DX2(XR4),XRDPRE           IR TABLE.                      69648021
 006512 9605 301D      0001D        8921          OI    Y1IRX+NX1(XR3),FP2DP                                     69656021
0
 006516 980F C488      07A18        8923 FPLLEX LM    XR0,XR15,XGSAV3                                            69672021
 00651A 07FE                        8924        BCR   UNCON,XRSUB           RETURN                               69680021
0
                                    8926 *   LOAD A SHORT OPERAND IN A REG. LONG FORM.                           69696021
                                    8927 *                                             SDR   XR,XR               69704021
                                    8928 *                                             LE    XR,OP  OR  LER      69712021
 00651C 45E0 F8C6      065FE        8929 FPL03  BAL   XRSUB,FPSDR           GENERATE SDR                         69720021
 006520 45E0 F874      065AC        8930        BAL   XRSUB,FPLLL           SET A-TEXT                           69728021
 006524 45E0 BD2E      023BE        8931        BAL   XRSUB,LDFLS           GENERATE A LOAD FL PT                69736021
 006528 47F0 F7D2      0650A        8932        BC    UNCON,FPL04           SET FLAGS                            69744021
0
                                    8934 *   LOAD IN A  REG.- SHORT FORM                                         69760021
                                    8935 *                                                                       69768021
 00652C 9101 D486      0854E        8936 FPL02    TM    XSLSW,XX01                                               69776021
 006530 4780 F83C      06574        8937        BC    XZERO,FPL05           LOAD IN 0 LONG FORM                  69784021
 006534 9101 301D      0001D        8938          TM    Y1IRX+NX1(XR3),XG2IRX                                    69792021
 006538 4780 F814      0654C        8939        BC    XZERO,FPL06                OPERAND IS IN A REG LONG-FO     69800021
 00653C 9705 301D      0001D        8940          XI    Y1IRX+NX1(XR3),FP2DP      JUST CHANGE FLAG TO SHORT-F    69808021
 006540 45E0 81E4      01014        8941        BAL   XRSUB,XZWHIR          FLAGS.                               69816021
 006544 5850 D464      0852C        8942        L     XR5,XLIRP                  X                               69824021
 006548 9708 5002      00002        8943          XI    DX2(XR5),XRDPRE           X                              69832021
 00654C 9108 301D      0001D        8944 FPL06    TM    Y1IRX+NX1(XR3),XINREG                                    69840021
 006550 4710 F7DE      06516        8945        BC    XTHRE,FPLLEX          OPERAND IN REG                       69848021
 006554 45E0 8050      00E80        8946 FPL09  BAL   XRSUB,XRSASF          ASSIGN A REG                         69856021
                                    8947 *                                       LE  XR,OP   OR                  69864021
                                    8948 *                                       LER XR,XN                       69872021
 006558 5840 D464      0852C        8949        L     XR4,XLIRP                                                  69880021
 00655C 45E0 F874      065AC        8950        BAL   XRSUB,FPLLL           SET A-TEXT                           69888021
 006560 45E0 BD2E      023BE        8951        BAL   XRSUB,LDFLS           GENERATE A LOAD FL PT                69896021
 006564 45E0 F88C      065C4        8952        BAL   XRSUB,FPLLN           SET FLAGS                            69904021
1         ARITHMETIC / MOVE / SUBSCRIPT  ROUTINES                                                               PAGE  202
-  LOC  OBJECT CODE    ADDR1 ADDR2  STMT   SOURCE STATEMENT                                       ASM 0201 11.03 02/14/15
0006568 9180 D486      0854E        8953          TM    XSLSW,XX80                                               69912021
 00656C 4710 F83C      06574        8954        BC    XTHRE,FPL05           GENERATE SDR                         69920021
 006570 47F0 F7DE      06516        8955        BC    UNCON,FPLLEX          RETURN                               69928021
0
                                    8957 *   LOAD IN 0  LONG  FORM                                               69944021
                                    8958 *                                       LDR  0,XN     OR  SDR 0,0       69952021
                                    8959 *                                                        LE(R) 0,OP     69960021
                                    8960 *                                       OR IF OP IS IN 0 SHORT FORM     69968021
                                    8961 *                                               LER  XR,0               69976021
                                    8962 *                                              SDR   0,0                69984021
                                    8963 *                                               LER  0,XR               69992021
 006574 4140 D400      084C8        8964 FPL05  LA    XR4,FPRTB0                                                 70000021
 006578 9104 4002      00002        8965          TM    DX2(XR4),XRFREE                                          70008021
 00657C 4780 F7C2      064FA        8966        BC    XZERO,FPL11           REG 0 IS FREE                        70016021
 006580 9108 301D      0001D        8967          TM    Y1IRX+NX1(XR3),XINREG                                    70024021
 006584 4780 F86C      065A4        8968        BC    XZERO,FPL08           OPERAND NOT IN A REG                 70032021
 006588 45E0 81E4      01014        8969        BAL   XRSUB,XZWHIR          GET ADDRESS OF REG TBL               70040021
                                    8970 *                                                                       70048021
 00658C 5940 D464      0852C        8971        C     XR4,XLIRP                                                  70056021
 006590 4770 F86C      065A4        8972        BC    XNOEQ,FPL08           OPERAND NOT IN REG 0                 70064021
 006594 9101 301D      0001D        8973          TM    Y1IRX+NX1(XR3),XG2IRX                                    70072021
 006598 4710 F7DE      06516        8974        BC    XTHRE,FPLLEX          RETURN                               70080021
 00659C 9680 D486      0854E        8975          OI    XSLSW,XX80                                               70088021
 0065A0 47F0 F81C      06554        8976        BC    UNCON,FPL09           ASSIGN A REG                         70096021
                             065A4  8977 FPL08  EQU   *                                                          70104021
 0065A4 45E0 80DC      00F0C        8978        BAL   XRSUB,XRSTOR          STORE REG 0                          70112021
 0065A8 47F0 F7C2      064FA        8979        BC    UNCON,FPL11           GENERATE A LOAD INSTRUCTION          70120021
0
                                    8981 *   SET -ATEXT FOR LOAD.                                                70136021
                                    8982 *                                                                       70144021
 0065AC 50E0 C658      07BE8        8983 FPLLL  ST    XRSUB,XVARS5                                               70152021
 0065B0 D200 D188 4003 08250 00003  8984          MVC   XREG1(LX1),DX3(XR4)                                      70160021
 0065B6 4850 C88C      07E1C        8985        LH    XR5,XMINTW                                                 70168021
 0065BA 45E0 77DA      007DA        8986        BAL   XRSUB,FPSETA          SET A-TEXT                           70176021
 0065BE 58E0 C658      07BE8        8987        L     XRSUB,XVARS5                                               70184021
 0065C2 07FE                        8988        BCR   UNCON,XRSUB           RETURN                               70192021
0
                                    8990 *   UPDATE  FLAG IN REGISTER TABLE.                                     70208021
                                    8991 *                                                                       70216021
 0065C4 50E0 C658      07BE8        8992 FPLLN  ST    XRSUB,XVARS5                                               70224021
 0065C8 9108 301D      0001D        8993          TM    Y1IRX+NX1(XR3),XINREG                                    70232021
 0065CC 4780 F8BC      065F4        8994        BC    XZERO,FPLLN0          OPERAND NOT IN A REG                 70240021
 0065D0 45E0 81E4      01014        8995        BAL   XRSUB,XZWHIR          GET ADDRESS OF REG TBL               70248021
 0065D4 5850 D464      0852C        8996        L     XR5,XLIRP                                                  70256021
 0065D8 9108 5002      00002        8997          TM    DX2(XR5),XRDPRE                                          70264021
 0065DC 4780 F8B2      065EA        8998        BC    XZERO,FPLLN1          NOT DP                               70272021
 0065E0 58E5 0004      00004        8999          L     XRSUB,DX4(XR5)                                           70280021
 0065E4 D402 E000 C8B7 00000 07E47  9000          NC    DX0(LX3,XRSUB),XREMK6                                    70288021
                             065EA  9001 FPLLN1 EQU   *                                                          70296021
 0065EA D402 5000 C8B7 00000 07E47  9002          NC    DX0(LX3,XR5),XREMK6                                      70304021
 0065F0 9708 301D      0001D        9003          XI    Y1IRX+NX1(XR3),XINREG                                    70312021
 0065F4 45E0 81E4      01014        9004 FPLLN0 BAL   XRSUB,XZWHIR          GET ADDRESS OF REG TBL               70320021
1         ARITHMETIC / MOVE / SUBSCRIPT  ROUTINES                                                               PAGE  203
-  LOC  OBJECT CODE    ADDR1 ADDR2  STMT   SOURCE STATEMENT                                       ASM 0201 11.03 02/14/15
00065F8 58E0 C658      07BE8        9005        L     XRSUB,XVARS5                                               70328021
 0065FC 07FE                        9006        BCR   UNCON,XRSUB           RETURN                               70336021
0
                                    9008 *   GENERATE   SDR  XR,XR                                               70352021
                                    9009 *                                                                       70360021
 0065FE 50E0 C658      07BE8        9010 FPSDR  ST    XRSUB,XVARS5                                               70368021
 006602 D200 D188 4003 08250 00003  9011          MVC   XREG1(LX1),DX3(XR4)                                      70376021
 006608 D200 D1D0 4003 08298 00003  9012          MVC   XREG2(LX1),DX3(XR4)                                      70384021
 00660E 45E0 BD4E      023DE        9013        BAL   XRSUB,SUBNL           GENERATE SDR                         70392021
 006612 58E0 C658      07BE8        9014        L     XRSUB,XVARS5                                               70400021
 006616 07FE                        9015        BCR   UNCON,XRSUB           RETURN                               70408021
-
0
                                    9017 *                                                                       70424021
                             06618  9018 BIIFPD EQU   *                                                          70432021
                                    9019 *                                                                       70440021
                                    9020 *  BINARY TO IFP  -  XR3 POINTS TO  X(I)VAL  I =1 OR 2                  70448021
                                    9021 *                                                                       70456021
 006618 45E0 F940      06678        9022        BAL   XRSUB,FPFRE0          FREE FL PT REG 0                     70464021
 00661C 9200 D48A      08552        9023          MVI   XREGNO,XX00                                              70472021
 006620 9504 3021      00021        9024          CLI   Y1BBS+NX1(XR3),XX04                                      70480021
 006624 4720 F908      06640        9025        BC    XTWO,BIIFP0           DP                                   70488021
 006628 45E0 838A      011BA        9026        BAL   XRSUB,XFREER          FREE REG 0                           70496021
 00662C 9200 D48A      08552        9027          MVI   XREGNO,XX00                                              70504021
 006630 45E0 80FE      00F2E        9028          BAL   XRSUB,XSLGVX        L  0,OP  OR  LR  0,XN                70512021
 006634 45E0 8792      015C2        9029        BAL   XRSUB,VBADCE          CALL CONVERSION SUBROUTINE           70520021
 006638 C2C9C9F0                    9030        DC    C'BII0'                                                    70528021
 00663C 47F0 F91C      06654        9031        BC    UNCON,BIIFP1          GENERATE DC                          70536021
                                    9032 *                                                                       70544021
                                    9033 *                                 L  15,V(BII0) OR V(BII1)              70552021
                                    9034 *                                          BALR 14,5                    70560021
 006640 45E0 8394      011C4        9035 BIIFP0 BAL   XRSUB,XFREEP          FREE REG 0 AND 1                     70568021
 006644 9200 D48B      08553        9036          MVI   XREGNP,XX00                                              70576021
 006648 45E0 80E8      00F18        9037        BAL   XRSUB,XSLGVB          GENERATE DP LOAD                     70584021
 00664C 45E0 8792      015C2        9038        BAL   XRSUB,VBADCE          CALL CONVERSION SUBROUTINE           70592021
 006650 C2C9C9F1                    9039        DC    C'BII1'                                                    70600021
 006654 4803 0026      00026        9040 BIIFP1 LH    XR0,Y1ALP(XR3)                                             70608021
 006658 4B03 0024      00024        9041        SH    XR0,Y1DBS(XR3)                                             70616021
 00665C 4000 D428      084F0        9042        STH   XR0,XCON                                                   70624021
 006660 D201 D161 D428 08229 084F0  9043          MVC   XCON1+NX1(LX2),XCON                                      70632021
 006666 9202 D160      08228        9044          MVI   XCON1,XX02                                               70640021
 00666A 45E0 FB24      0685C        9045        BAL   XRSUB,XDCGEN               GENERATE   DC  DEC'S - P'S      70648021
                             0666E  9046 BIIFP2 EQU   *                                                          70656021
 00666E 45E0 FB36      0686E        9047        BAL   XRSUB,FPNFL                SET FP FLAG.                    70664021
0
 006672 980F C5C8      07B58        9049 FPCEXT LM    XR0,XR15,XGSAV8            GENERAL EXIT.                   70680021
 006676 07FE                        9050        BCR   UNCON,XRSUB                X                               70688021
1         ARITHMETIC / MOVE / SUBSCRIPT  ROUTINES                                                               PAGE  204
-  LOC  OBJECT CODE    ADDR1 ADDR2  STMT   SOURCE STATEMENT                                       ASM 0201 11.03 02/14/15
0006678 50E0 C64C      07BDC        9052 FPFRE0 ST    XRSUB,XVARS2                                               70704021
 00667C 4140 D400      084C8        9053        LA    XR4,FPRTB0                                                 70712021
 006680 9104 4002      00002        9054          TM    DX2(XR4),XRFREE                                          70720021
 006684 4780 F954      0668C        9055        BC    XZERO,FPPPP1          REG FREE                             70728021
 006688 45E0 80DC      00F0C        9056        BAL   XRSUB,XRSTOR          FREE REG                             70736021
 00668C 58E0 C64C      07BDC        9057 FPPPP1 L     XRSUB,XVARS2                                               70744021
 006690 07FE                        9058        BCR   UNCON,XRSUB           RETURN                               70752021
0
                             06692  9060 IDIFPD EQU   *                                                          70768021
                                    9061 *                                                                       70776021
                                    9062 *  ID TO FP  -  XR3 POINTS TO  X(I)VAL ,I=1 OR 2 .                      70784021
                                    9063 *                                                                       70792021
 006692 45E0 F940      06678        9064        BAL   XRSUB,FPFRE0               TAKE CARE OF ZERO LITREAL.      70800021
 006696 9180 301D      0001D        9065          TM    Y1IRX+NX1(XR3),XLITZR                                    70808021
 00669A 4780 F96E      066A6        9066        BC    XZERO,IDIFD0          NOT A ZERO LITERAL                   70816021
 00669E 45E0 F8C6      065FE        9067        BAL   XRSUB,FPSDR           GENERATE SDR                         70824021
 0066A2 47F0 F936      0666E        9068        BC    UNCON,BIIFP2          SET FLAGS                            70832021
                             066A6  9069 IDIFD0 EQU   *                                                          70840021
 0066A6 9260 D14F      08217        9070          MVI   BDISP1+NX1,WORKA                                         70848021
 0066AA 92D0 D14E      08216        9071          MVI   BDISP1,XXD0                                              70856021
                                    9072 *                                                                       70864021
                                    9073 *  ZAP   WORKA(16,10),OP(L)                                             70872021
                                    9074 *                                                                       70880021
 0066AE 9210 D149      08211        9075          MVI   XL1+NX1,XX10                                             70888021
 0066B2 4850 C892      07E22        9076        LH    XR5,XMINFV                                                 70896021
 0066B6 45E0 7802      00802        9077        BAL   XRSUB,XZSIDB          SET A-TEXT                           70904021
 0066BA 45E0 B000      01690        9078        BAL   XRSUB,ZAP             GENERATE ZAP INTO WORK AREA          70912021
                                    9079 *                                                                       70920021
                                    9080 * L  15,V(DCI1)                                                         70928021
                                    9081 *  BALR 14,15                                                           70936021
                                    9082 *                                                                       70944021
 0066BE 45E0 8792      015C2        9083        BAL   XRSUB,VBADCE          CALL CONVERSION SUBROUTINE           70952021
 0066C2 C4C3C9F1                    9084        DC    C'DCI1'                                                    70960021
 0066C6 47F0 F91C      06654        9085        BC    UNCON,BIIFP1          GENERATE DC                          70968021
-
0
                             066CA  9087 EFPIFD EQU   *                                                          70984021
                                    9088 *                                                                       70992021
                                    9089 *  EFP   TO  IFP  XR3 POINTS TO  X(I)VAL  I=1 OR 2 .                    71000021
                                    9090 *                                                                       71008021
 0066CA 9203 D48A      08552        9091          MVI   XREGNO,XX03                                              71016021
 0066CE 45E0 838A      011BA        9092        BAL   XRSUB,XFREER          FREE REG 3                           71024021
 0066D2 45E0 F940      06678        9093        BAL   XRSUB,FPFRE0          FREE FL PT REG 0                     71032021
 0066D6 D203 D138 3030 08200 00030  9094          MVC   XOP1(LX4),Y1INPT(XR3)                                    71040021
 0066DC 9203 D188      08250        9095          MVI   XREG1,XX03                                               71048021
 0066E0 45E0 BBDE      0226E        9096        BAL   XRSUB,LA              GENERATE LA                          71056021
                                    9097 *                                                                       71064021
                                    9098 *   LA    3,A(EFPNUMBER)                                                71072021
                                    9099 *  L  15,V(EFL0)                                                        71080021
                                    9100 *   BALR 14,15                                                          71088021
                                    9101 *   DC   XL1      DEC IN EFP MANTISSA.                                  71096021
1         ARITHMETIC / MOVE / SUBSCRIPT  ROUTINES                                                               PAGE  205
-  LOC  OBJECT CODE    ADDR1 ADDR2  STMT   SOURCE STATEMENT                                       ASM 0201 11.03 02/14/15
0                                   9102 *   DC   XL1      TOTAL LENGHT OF EFP                                   71104021
                                    9103 *   DC   XL1      EFP PARAMETER CODE                                    71112021
                                    9104 *   DC   XL1      SLACK BYTE                                            71120021
                                    9105 *                                                                       71128021
 0066E4 45E0 8792      015C2        9106        BAL   XRSUB,VBADCE          CALL SUBROUTINE                      71136021
 0066E8 C5C6D3F0                    9107        DC    C'EFL0'                                                    71144021
 0066EC 5863 0030      00030        9108        L     XR6,Y1INPT(XR3)                                            71152021
 0066F0 45E0 FB5C      06894        9109        BAL   XRSUB,EFPDC                GENERATE  DC'S.                 71160021
 0066F4 45E0 FB36      0686E        9110        BAL   XRSUB,FPNFL                SET FLAGS.                      71168021
 0066F8 47F0 F93A      06672        9111        BC    UNCON,FPCEXT          RETURN                               71176021
-
0
                             066FC  9113 IFPEFD EQU   *                                                          71192021
                                    9114 *                                                                       71200021
                                    9115 *   IFP  TO  EFP    XR3 POINTS TO XNVAL BUFFER OF IFP OPERAND.          71208021
                                    9116 *                   XR5   -    -    -      -      EFP     -  .          71216021
                                    9117 *   CONVERTED RESULT  WILL BE MOVED IN TARGET FIELD.                    71224021
                                    9118 *                                                                       71232021
 0066FC 45E0 8134      00F64        9119        BAL   XRSUB,FPLD0                LOAD  IFP IN 0  LONG FORM.      71240021
 006700 9218 D189      08251        9120          MVI   XIMM,XX18                                                71248021
                                    9121 * CNOP  6,8                                                             71256021
                                    9122 *                                                                       71264021
 006704 45E0 BDC4      02454        9123        BAL   XRSUB,CNOP            GENERATE CNOP                        71272021
 006708 45E0 8792      015C2        9124        BAL   XRSUB,VBADCE         L  15,V(TEF3)                         71280021
 00670C E3C5C6F3                    9125        DC    C'TEF3'                                                    71288021
 006710 5865 0030      00030        9126        L     XR6,Y1INPT(XR5)                                            71296021
 006714 45E0 FB54      0688C        9127        BAL   XRSUB,EFPDC1               GENERATE  DC'S.                 71304021
 006718 4010 D148      08210        9128        STH   XR1,XL1                                                    71312021
 00671C 5060 D138      08200        9129        ST    XR6,XOP1                                                   71320021
                                    9130 *  MVC  OP2(L2),WORKL(13)                                               71328021
                                    9131 *                                                                       71336021
 006720 92D0 D196      0825E        9132          MVI   BDISP2,XXD0                                              71344021
 006724 9278 D197      0825F        9133          MVI   BDISP2+NX1,WORKL                                         71352021
 006728 45E0 B18C      0181C        9134        BAL   XRSUB,MVC             GENERATE MVC                         71360021
 00672C 47F0 FA70      067A8        9135        BC    UNCON,FPCEXS          SET REG FLAGS                        71368021
-
0
                             06730  9137 IFPBID EQU   *                                                          71384021
                                    9138 *                                                                       71392021
                                    9139 *  IFP TO BINARY    XR3  POINTS TO XNVAL OF FP OPERAND.                 71400021
                                    9140 *                   XR5     -       -       BI    -   .                 71408021
 006730 9200 D48A      08552        9141          MVI   XREGNO,XX00                                              71416021
 006734 45E0 8394      011C4        9142        BAL   XRSUB,XFREEP          FREE REG 0 AND 1                     71424021
 006738 45E0 FB0E      06846        9143        BAL   XRSUB,IFPBIC          LOAD OPERAND INTO REG 0              71432021
 00673C 920B 301C      0001C        9144        MVI   Y1IRX(XR3),XGBINR                                          71440021
 006740 9201 301D      0001D        9145          MVI   Y1IRX+NX1(XR3),XG2IRX                                    71448021
 006744 4140 D650      08718        9146        LA    XR4,XRAU14                                                 71456021
 006748 45E0 81E4      01014        9147        BAL   XRSUB,XZWHIR          GET ADDRESS OF REG TBL               71464021
 00674C 9608 4002      00002        9148          OI    DX2(XR4),XRDPRE                                          71472021
1         ARITHMETIC / MOVE / SUBSCRIPT  ROUTINES                                                               PAGE  206
-  LOC  OBJECT CODE    ADDR1 ADDR2  STMT   SOURCE STATEMENT                                       ASM 0201 11.03 02/14/15
0006750 5864 0004      00004        9149          L     XR6,DX4(XR4)                                             71480021
 006754 D602 6000 4000 00000 00000  9150          OC    DX0(LX3,XR6),DX0(XR4)                                    71488021
 00675A 45E0 8792      015C2        9151        BAL   XRSUB,VBADCE          CALL SUBROUTINE                      71496021
 00675E C9C6C2F1                    9152        DC    C'IFB1'                                                    71504021
 006762 45E0 FAEA      06822        9153        BAL   XRSUB,FPCV10          GENERATE DC                          71512021
                                    9154 *                                                                       71520021
                                    9155 *  SET  CHARACT. OF CONVERTED OPERAND. AND CHECK FOR SIZE ERROR DUR     71528021
                                    9156 *  THE CONVERSION                                                       71536021
                                    9157 *                                                                       71544021
 006766 9102 D481      08549        9158 FPCV12 TM    XGSWT,XSIZER                                               71552021
 00676A 4780 FA54      0678C        9159        BC    XZERO,FPCV11          NO SIZE ERROR IN SOURCE              71560021
 00676E 920F D188      08250        9160          MVI   XREG1,XX0F                                               71568021
 006772 920F D1D0      08298        9161          MVI   XREG2,XX0F                LTR   15,15                    71576021
 006776 45E0 BACA      0215A        9162        BAL   XRSUB,LTR                  BC    XZERO,ONSIZE ERROR        71584021
 00677A 9208 D188      08250        9163        MVI   XREG1,XZERO                                                71592021
 00677E 4520 84AE      012DE        9164        BAL   XR2,XZRDVV            GET SIZE ERROR TRANSFER              71600021
 006782 D201 D172 D496 0823A 0855E  9165          MVC   XGN1(LX2),XZRTRA                                         71608021
 006788 45E0 BC10      022A0        9166        BAL   XRSUB,BC              GENERATE BC                          71616021
                                    9167 *                                                                       71624021
 00678C 9212 3023      00023        9168 FPCV11   MVI   Y1FBS+NX1(XR3),XX12                                      71632021
 006790 D203 3024 5024 00024 00024  9169          MVC   Y1DBS(LX4,XR3),Y1DBS(XR5)                                71640021
 006796 920A 301F      0001F        9170          MVI   Y1LBS+NX1(XR3),XX0A                                      71648021
 00679A 9208 3021      00021        9171          MVI   Y1BBS+NX1(XR3),XX08                                      71656021
 00679E F8F9 3000 C822 00000 07DB2  9172          ZAP   DX0(LX16,XR3),XC9999+NX6(LX10)                           71664021
 0067A4 940F 3006      00006        9173          NI    DX6(XR3),XX0F                                            71672021
 0067A8 4140 D400      084C8        9174 FPCEXS LA    XR4,FPRTB0                                                 71680021
 0067AC D402 4000 C8B7 00000 07E47  9175          NC    DX0(LX3,XR4),XREMK6                                      71688021
 0067B2 47F0 F93A      06672        9176        BC    UNCON,FPCEXT          RETURN                               71696021
-
0
                             067B6  9178 IFPIDB EQU   *                                                          71712021
                                    9179 *  IFP TO ID  - SAME  SET-UP AS FOR  IFP TO BINARY.                     71720021
 0067B6 45E0 FB0E      06846        9180        BAL   XRSUB,IFPBIC               SET  ID FLAG                    71728021
 0067BA 920C 301C      0001C        9181        MVI   Y1IRX(XR3),XGINDC          X                               71736021
 0067BE 9200 301D      0001D        9182          MVI   Y1IRX+NX1(XR3),XX00       X                              71744021
 0067C2 45E0 8792      015C2        9183        BAL   XRSUB,VBADCE          CALL SUBROUTINE                      71752021
 0067C6 C9C6C4F0                    9184        DC    C'IFD0'                                                    71760021
 0067CA 45E0 FAEA      06822        9185        BAL   XRSUB,FPCV10          GENERATE DC                          71768021
 0067CE 45E0 851C      0134C        9186        BAL   XRSUB,WKZAP                ZAP  TEMP(16),WORKA(10,13)      71776021
 0067D2 47F0 FA2E      06766        9187        BC    UNCON,FPCV12          CHECK FOR SIZE ERROR                 71784021
-
0
                                    9189 *  GENERATE  A POWER OF TEN IN FLOATING POINT.                          71800021
                                    9190 *                                                                       71808021
 0067D6 D70F D428 D428 084F0 084F0  9191 FP10PW   XC    XCON(LX16),XCON                                          71816021
 0067DC 9241 D428      084F0        9192          MVI   XCON,XX41                 XCON  HAS   1 IN IFP .         71824021
 0067E0 9241 D430      084F8        9193          MVI   XCON+NX8,XX41             XCON+8 HAS  10 IN IFP.         71832021
 0067E4 9210 D429      084F1        9194          MVI   XCON+NX1,XX10             P                              71840021
 0067E8 92A0 D431      084F9        9195          MVI   XCON+NX9,XXA0                                            71848021
1         ARITHMETIC / MOVE / SUBSCRIPT  ROUTINES                                                               PAGE  207
-  LOC  OBJECT CODE    ADDR1 ADDR2  STMT   SOURCE STATEMENT                                       ASM 0201 11.03 02/14/15
00067EC 6800 D428      084F0        9196        LD    FRW0,XCON                     GENERATE   DC XL8  CONTA     71856021
 0067F0 1200                        9197        LTR   XR0,XR0                    A DBL PREC FLT NO 10** X WH     71864021
 0067F2 4780 FAE8      06820        9198        BC    XZERO,FPCV20               X IS VALUE IN XR1= DEC'S -      71872021
 0067F6 4740 FACE      06806        9199        BC    XONE,FPCV21           EXPONENT NEG                         71880021
 0067FA 6C00 D430      084F8        9200 FPCV22   MD    FRW0,XCON+NX8                                            71888021
 0067FE 4600 FAC2      067FA        9201        BCT   XR0,FPCV22            FALL THRU WHEN GENERATION THRU       71896021
 006802 47F0 FAE4      0681C        9202        BC    UNCON,FPCV23          STORE CONSTANT                       71904021
 006806 1300                        9203 FPCV21 LCR   XR0,XR0                                                    71912021
 006808 6C00 D430      084F8        9204 FPCV24   MD    FRW0,XCON+NX8                                            71920021
 00680C 4600 FAD0      06808        9205        BCT   XR0,FPCV24            FALL THRU WHEN GENERATION THRU       71928021
 006810 6000 D430      084F8        9206          STD   FRW0,XCON+NX8                                            71936021
 006814 6800 D428      084F0        9207        LD    FRW0,XCON                                                  71944021
 006818 6D00 D430      084F8        9208          DD    FRW0,XCON+NX8                                            71952021
 00681C 6000 D428      084F0        9209 FPCV23 STD   FRW0,XCON                                                  71960021
                             06820  9210 FPCV20 EQU   *                                                          71968021
 006820 07FE                        9211        BCR   UNCON,XRSUB           RETURN                               71976021
0
                                    9213 *                                                                       71992021
 006822 50E0 C650      07BE0        9214 FPCV10 ST    XRSUB,XVARS3                                               72000021
 006826 4805 0024      00024        9215        LH    XR0,Y1DBS(XR5)             GENERATE                        72008021
 00682A 4B05 0026      00026        9216        SH    XR0,Y1ALP(XR5)                    DC  XL8    CONTAININ     72016021
 00682E 45E0 FA9E      067D6        9217        BAL   XRSUB,FP10PW                10 ** X  IN FP LONG FORM       72024021
 006832 D207 D161 D428 08229 084F0  9218          MVC   XCON1+NX1(LX8),XCON         WHERE   X = DFC OF TARGET    72032021
 006838 9208 D160      08228        9219          MVI   XCON1,XX08                 OR        = - P'S    -        72040021
 00683C 45E0 FB24      0685C        9220        BAL   XRSUB,XDCGEN          GENERATE DC                          72048021
 006840 58E0 C650      07BE0        9221        L     XRSUB,XVARS3                                               72056021
 006844 07FE                        9222        BCR   UNCON,XRSUB           RETURN                               72064021
0
                                    9224 *                                                                       72080021
 006846 50E0 C654      07BE4        9225 IFPBIC ST    XRSUB,XVARS4                                               72088021
 00684A 45E0 8134      00F64        9226        BAL   XRSUB,FPLD0                       LD  0, OP                72096021
 00684E 9210 D189      08251        9227          MVI   XIMM,XX10                      CNOP  2,8                 72104021
 006852 45E0 BDC4      02454        9228        BAL   XRSUB,CNOP            GENERATE CNOP                        72112021
 006856 58E0 C654      07BE4        9229        L     XRSUB,XVARS4                                               72120021
 00685A 07FE                        9230        BCR   UNCON,XRSUB           RETURN                               72128021
0
                                    9232 *                                                                       72144021
 00685C 50E0 C658      07BE8        9233 XDCGEN ST    XRSUB,XVARS5                                               72152021
 006860 9224 D189      08251        9234        MVI   XIMM,MDC                                                   72160021
 006864 45E0 BD8A      0241A        9235        BAL   XRSUB,MACRO                  GENERATE  DC                  72168021
 006868 58E0 C658      07BE8        9236        L     XRSUB,XVARS5                                               72176021
 00686C 07FE                        9237        BCR   UNCON,XRSUB           RETURN                               72184021
0
                                    9239 *                                                                       72200021
 00686E 50E0 C654      07BE4        9240 FPNFL  ST    XRSUB,XVARS4               CHANGE FLAG TO  DP FLT. OPE     72208021
 006872 4140 D400      084C8        9241        LA    XR4,FPRTB0                 IN  REG  0 .                    72216021
 006876 45E0 F88C      065C4        9242        BAL   XRSUB,FPLLN                X                               72224021
 00687A 920A 301C      0001C        9243        MVI   Y1IRX(XR3),XGINFP          X                               72232021
 00687E 922D 301D      0001D        9244          MVI   Y1IRX+NX1(XR3),XX2D       XFTPT+XGDPFP+XINREG+XG2IRX.    72240021
 006882 9608 4002      00002        9245          OI    DX2(XR4),XRDPRE                                          72248021
 006886 58E0 C654      07BE4        9246        L     XRSUB,XVARS4                                               72256021
1         ARITHMETIC / MOVE / SUBSCRIPT  ROUTINES                                                               PAGE  208
-  LOC  OBJECT CODE    ADDR1 ADDR2  STMT   SOURCE STATEMENT                                       ASM 0201 11.03 02/14/15
000688A 07FE                        9247        BCR   UNCON,XRSUB           RETURN                               72264021
0
                                    9249 *                                                                       72280021
 00688C 9201 D486      0854E        9250 EFPDC1   MVI   XSLSW,XX01                                               72288021
 006890 47F0 FB60      06898        9251        BC    UNCON,EFPDCH          SHORT FORM                           72296021
 006894 9200 D486      0854E        9252 EFPDC    MVI   XSLSW,XX00                                               72304021
 006898 50E0 C654      07BE4        9253 EFPDCH ST    XRSUB,XVARS4                                               72312021
 00689C 9204 D160      08228        9254          MVI   XCON1,XX04                                               72320021
 0068A0 4800 C892      07E22        9255        LH    XR0,XMINFV                                                 72328021
 0068A4 9101 6007      00007        9256          TM    DX7(XR6),XX01                                            72336021
 0068A8 4710 FB78      068B0        9257        BC    XTHRE,EFPDC0          PIC CONTAINS PLUS SIGN               72344021
 0068AC 9604 D163      0822B        9258          OI    XCON1+NX3,XX04            SIGN OF MANTISSA IS -  .       72352021
 0068B0 9180 6008      00008        9259 EFPDC0   TM    DX8(XR6),XX80                                            72360021
 0068B4 4710 FB84      068BC        9260        BC    XTHRE,EFPDC4          EXPONENT CONTAINS PLUS SIGN          72368021
 0068B8 9602 D163      0822B        9261          OI    XCON1+NX3,XX02            SIGN OF EXP.  IS -  .          72376021
 0068BC 9140 6008      00008        9262 EFPDC4   TM    DX8(XR6),XX40                                            72384021
 0068C0 4780 FB92      068CA        9263        BC    XZERO,EFPDC2          IMPLIED DEC POINT                    72392021
 0068C4 9601 D163      0822B        9264          OI    XCON1+NX3,XX01            REAL DEC. POINT .              72400021
 0068C8 0600                        9265        BCTR  XR0,RW0               SET XRO = -6                         72408021
 0068CA D200 D162 6009 0822A 00009  9266 EFPDC2   MVC   XCON1+NX2(LX1),DX9(XR6)    TOTAL LENGHT OF EFP NO.       72416021
 0068D0 1B11                        9267        SR    XR1,XR1                                                    72424021
 0068D2 4310 D162      0822A        9268          IC    XR1,XCON1+NX2                                            72432021
 0068D6 D200 D161 6008 08229 00008  9269          MVC   XCON1+NX1(LX1),DX8(XR6)                                  72440021
 0068DC 943F D161      08229        9270          NI    XCON1+NX1,XX3F            DEC. IN EFP MANTISSA.          72448021
 0068E0 9101 D486      0854E        9271          TM    XSLSW,XX01                                               72456021
 0068E4 4780 FBC0      068F8        9272        BC    XZERO,EFPDC3          LONG INTO REG 0                      72464021
 0068E8 1A01                        9273        AR    XR0,XR1                                                    72472021
 0068EA 45E0 FA9E      067D6        9274        BAL   XRSUB,FP10PW          GENERATE A POWER OF 10 IN FL PT      72480021
 0068EE 920C D160      08228        9275          MVI   XCON1,XX0C                                               72488021
 0068F2 D207 D165 D428 0822D 084F0  9276          MVC   XCON1+NX5(LX8),XCON                                      72496021
 0068F8 45E0 FB24      0685C        9277 EFPDC3 BAL   XRSUB,XDCGEN          GENERATE DC                          72504021
 0068FC 58E0 C654      07BE4        9278        L     XRSUB,XVARS4                                               72512021
 006900 07FE                        9279        BCR   UNCON,XRSUB           RETURN                               72520021
-
0
                                    9281 *                                                                       72536021
                                    9282 *  CONVERT TO IFP OPERANDS OF A STRING. ENTRY POINT IS FPCVBG-          72544021
                                    9283 *                                                                       72552021
 006902 9120 301D      0001D        9284 FPCVBH   TM    Y1IRX+NX1(XR3),XFTPT                                     72560021
 006906 4710 FC38      06970        9285        BC    XTHRE,FPCV50               ALREADY FP.                     72568021
 00690A D100 D492 301C 0855A 0001C  9286          MVN   X1TYP(LX1),Y1IRX(XR3)                                    72576021
 006910 41E0 FC38      06970        9287        LA    XRSUB,FPCV50                                               72584021
 006914 950B D492      0855A        9288        CLI   X1TYP,XGBINR                                               72592021
 006918 4780 8306      01136        9289        BC    XZERO,BIIFP                GO TO BINARY TO IFP .           72600021
 00691C 950C D492      0855A        9290        CLI   X1TYP,XGINDC                                               72608021
 006920 4780 8312      01142        9291        BC    XZERO,IDIFP                ID TO IFP.                      72616021
 006924 9509 D492      0855A        9292        CLI   X1TYP,XGEXFP                                               72624021
 006928 4780 831E      0114E        9293        BC    XZERO,EFPIFP               EFP TO IFP.                     72632021
                                    9294 *                                                                       72640021
                                    9295 *      LOGIC ERROR NUMBER 8.                                            72648021
                                    9296 *                                                                       72656021
1         ARITHMETIC / MOVE / SUBSCRIPT  ROUTINES                                                               PAGE  209
-  LOC  OBJECT CODE    ADDR1 ADDR2  STMT   SOURCE STATEMENT                                       ASM 0201 11.03 02/14/15
000692C 45E0 7AC0      00AC0        9297        BAL   XRSUB,ERRPRO          GENERATE ERROR MESSAGE               72664021
 006930 08                          9298        DC    AL1(ERRN08)                                                72672021
 006931 08                          9299        DC    AL1(8)                                                     72680021
0
                                    9301 *  MAKE SURE THAT BOTH FP OPERANDS HAVE THE SAME FORM.                  72696021
                                    9302 *                                                                       72704021
                                    9303 *                                                                       72712021
 006932 9104 301D      0001D        9304 FPCV51   TM    Y1IRX+NX1(XR3),XGDPFP                                    72720021
 006936 4710 FC28      06960        9305        BC    XTHRE,FPCV53          OPERAND IS DP                        72728021
 00693A 9104 501D      0001D        9306          TM    Y1IRX+NX1(XR5),XGDPFP                                    72736021
 00693E 4710 FC10      06948        9307        BC    XTHRE,FPCV54          OPERAND IS DP                        72744021
                                    9308 *                                                                       72752021
                                    9309 *  BOTH SHORT FORM -EXIT                                                72760021
                                    9310 *                                                                       72768021
 006942 980F C588      07B18        9311 FPCV56 LM    XR0,XR15,XGSAV7                                            72776021
 006946 07FE                        9312        BCR   UNCON,XRSUB           RETURN                               72784021
0
 006948 9140 D481      08549        9314 FPCV54 TM    XGSWT,XAROPE                                               72800021
 00694C 4710 FC20      06958        9315        BC    XTHRE,FPCV55          ARITHMETIC OPERATION                 72808021
 006950 9150 501D      0001D        9316          TM    Y1IRX+NX1(XR5),XGCOLT                                    72816021
 006954 4710 FC50      06988        9317        BC    XTHRE,FPCV57          OPERAND IS A CONSTANT                72824021
 006958 45E0 812C      00F5C        9318 FPCV55 BAL   XRSUB,FPLDL           LOAD IN LONG FORM                    72832021
 00695C 47F0 FC0A      06942        9319        BC    UNCON,FPCV56          RETURN                               72840021
 006960 9104 501D      0001D        9320 FPCV53   TM    Y1IRX+NX1(XR5),XGDPFP                                    72848021
 006964 4710 FC0A      06942        9321        BC    XTHRE,FPCV56          DP, RETURN                           72856021
 006968 45E0 7828      00828        9322        BAL   XRSUB,XZX3X5          SWITCH OPERANDS                      72864021
 00696C 47F0 FC10      06948        9323        BC    UNCON,FPCV54          CHECK FOR ARITH OPER                 72872021
0
 006970 45E0 83D0      01200        9325 FPCV50 BAL   XRSUB,XSTOMV          CHECK FOR STORE OR MOVE              72888021
 006974 47F0 FC0A      06942        9326        BC    UNCON,FPCV56          YES                                  72896021
 006978 5930 C8C4      07E54        9327        C     XR3,XAVAL2                 OTHERWISE  CHECK  2ND OPERA     72904021
 00697C 4780 FBFA      06932        9328        BC    XZERO,FPCV51          CHECK FOR DP                         72912021
 006980 45E0 7828      00828        9329        BAL   XRSUB,XZX3X5          SWITCH OPERANDS                      72920021
 006984 47F0 FBCA      06902        9330        BC    UNCON,FPCVBH          CHECK IF BOTH OPNDS THE SAME         72928021
 006988 9704 501D      0001D        9331 FPCV57   XI    Y1IRX+NX1(XR5),XGDPFP                                    72936021
 00698C 47F0 FC0A      06942        9332        BC    UNCON,FPCV56          RETURN                               72944021
-
0
 006990                             9334 IKF50F CSECT                                                            72960021
                             06990  9335        USING *,XRVAR                                                    72968021
                             06990  9336 XSSBG2 EQU   *                                                          72976021
                                    9337 * SET LENGTHS                                                           72984021
 006990 9110 D488      08550        9338 XZDB1    TM    XZSWT,XX10                IS LENGHT PRESET.              72992021
 006994 4710 F03C      069CC        9339        BC    XTHRE,XZ000                YES-                            73000021
 006998 9108 D488      08550        9340          TM    XZSWT,XX08                NO,IS IT AFTER SCALING         73008021
 00699C 4710 F028      069B8        9341        BC    XTHRE,XZDB2                YES-                            73016021
 0069A0 D201 D43A 3020 08502 00020  9342          MVC   XZLENG(LX2),Y1BBS(XR3)                                   73024021
 0069A6 9101 D488      08550        9343          TM    XZSWT,XX01                NO,IS BINARY.                  73032021
 0069AA 4710 F03C      069CC        9344        BC    XTHRE,XZ000           YES                                  73040021
1         ARITHMETIC / MOVE / SUBSCRIPT  ROUTINES                                                               PAGE  210
-  LOC  OBJECT CODE    ADDR1 ADDR2  STMT   SOURCE STATEMENT                                       ASM 0201 11.03 02/14/15
00069AE D201 D43A 301E 08502 0001E  9345          MVC   XZLENG(LX2),Y1LBS(XR3)   SET LENGTH                      73048021
 0069B4 47F0 F03C      069CC        9346        BC    UNCON,XZ000                X                               73056021
 0069B8 D201 D43A 3012 08502 00012  9347 XZDB2    MVC   XZLENG(LX2),Y1BAS(XR3)                                   73064021
 0069BE 9101 D488      08550        9348          TM    XZSWT,XX01                                               73072021
 0069C2 4710 F03C      069CC        9349        BC    XTHRE,XZ000           BINARY                               73080021
 0069C6 D201 D43A 3010 08502 00010  9350          MVC   XZLENG(LX2),Y1LAS(XR3)   SET LENGTH                      73088021
0
 0069CC 4950 C890      07E20        9352 XZ000  CH    XR5,XMINFO                 IS FIRST OPERAND A CONSTANT     73104021
 0069D0 4720 F048      069D8        9353        BC    XTWO,XZ00C                 IN IR-NO.                       73112021
 0069D4 9680 D488      08550        9354          OI    XZSWT,XX80                YES-SET SWITH XR3 IS 2ND OP    73120021
 0069D8 9500 3019      00019        9355 XZ00C    CLI   Y1TEL+NX1(XR3),XX00       IS THAT OP. IN TEMP            73128021
 0069DC 4780 F0EC      06A7C        9356        BC    XZERO,XZ002                NO-                             73136021
 0069E0 45E0 7DC0      00DC0        9357        BAL   XRSUB,XEWCL                GET DISPLACEMENT IN TEMP        73144021
 0069E4 4863 0018      00018        9358        LH    XR6,Y1TEL(XR3)             GET UNUSED LENGTH IN THIS T     73152021
 0069E8 4B60 D43A      08502        9359        SH    XR6,XZLENG                 ENTRY                           73160021
 0069EC 4840 D446      0850E        9360        LH    XR4,XEREL1                                                 73168021
 0069F0 9104 D488      08550        9361          TM    XZSWT,XX04                                               73176021
 0069F4 4710 F06A      069FA        9362        BC    XTHRE,XZF01           FL PT OPERATION                      73184021
 0069F8 1A46                        9363        AR    XR4,XR6                                                    73192021
                             069FA  9364 XZF01  EQU   *                                                          73200021
 0069FA 9101 D488      08550        9365          TM    XZSWT,XX01                IS IT A BIN. OP.               73208021
 0069FE 4780 F08A      06A1A        9366        BC    XZERO,XZ003           NO                                   73216021
 006A02 9180 D488      08550        9367          TM    XZSWT,XX80                IS 2ND OPERAND ADDRESS         73224021
 006A06 4710 F084      06A14        9368        BC    XTHRE,XZ0044               YES-                            73232021
 006A0A D200 D14C D43B 08214 08503  9369          MVC   XWC1+NX2(LX1),XZLENG+NX1   NO,SET BINARY LENGTH IN WC    73240021
 006A10 47F0 F08A      06A1A        9370        BC    UNCON,XZ003                X                               73248021
 006A14 D200 D194 D43B 0825C 08503  9371 XZ0044   MVC   XWC2+NX2(LX1),XZLENG+NX1   X                             73256021
0
 006A1A 9180 D488      08550        9373 XZ003    TM    XZSWT,XX80                SET  L1 AND L2 FOR ID OPERA    73272021
 006A1E 4710 F0B4      06A44        9374        BC    XTHRE,XZ004                OR ONLY L1 FOR LOGICALOPERA     73280021
 006A22 9102 D488      08550        9375          TM    XZSWT,XX02                X                              73288021
 006A26 4710 F0A2      06A32        9376        BC    XTHRE,XZ007                X                               73296021
 006A2A 9105 D488      08550        9377          TM    XZSWT,XX05                                               73304021
 006A2E 4770 F0A8      06A38        9378        BC    XNOEQ,XZ005           FL PT OR BINARY                      73312021
 006A32 D201 D148 D43A 08210 08502  9379 XZ007    MVC   XL1(LX2),XZLENG                                          73320021
 006A38 4040 D14A      08212        9380 XZ005  STH   XR4,XWC1                                                   73328021
 006A3C 9680 D488      08550        9381          OI    XZSWT,XX80                                               73336021
 006A40 47F0 F0C6      06A56        9382        BC    UNCON,XZ009           CHECK FOR IMMEDIATE INST             73344021
 006A44 9107 D488      08550        9383 XZ004    TM    XZSWT,XX07                                               73352021
 006A48 4770 F0C2      06A52        9384        BC    XNOEQ,XZ008           FL PT OR BINARY OR LOG OPER          73360021
 006A4C D201 D190 D43A 08258 08502  9385          MVC   XL2(LX2),XZLENG                                          73368021
 006A52 4040 D192      0825A        9386 XZ008  STH   XR4,XWC2                                                   73376021
0
 006A56 9500 D189      08251        9388 XZ009    CLI   XIMM,XX00                 IF IT IS THE 2ND OPERAND EX    73392021
 006A5A 4770 F0DC      06A6C        9389        BC    XNOEQ,XZEXIT               IF NOT START AGAIN FOR          73400021
 006A5E 1255                        9390 XZ0098 LTR   XR5,XR5                    2ND OPERAND.                    73408021
 006A60 4740 F1A2      06B32        9391        BC    XONE,XZ0100                X                               73416021
 006A64 9120 D488      08550        9392          TM    XZSWT,XX20                                               73424021
 006A68 4780 F0E2      06A72        9393        BC    XZERO,XZFF1           BOTH OPERANDS NOT FINISHED           73432021
0
 006A6C 980F C608      07B98        9395 XZEXIT   LM    XR0,XR15,XESAV      EXIT                                 73448021
1         ARITHMETIC / MOVE / SUBSCRIPT  ROUTINES                                                               PAGE  211
-  LOC  OBJECT CODE    ADDR1 ADDR2  STMT   SOURCE STATEMENT                                       ASM 0201 11.03 02/14/15
0006A70 07FE                        9396        BCR   UNCON,XRSUB           RETURN                               73456021
0
                             06A72  9398 XZFF1  EQU   *                                                          73472021
 006A72 1835                        9399        LR    XR3,XR5                    X                               73480021
 006A74 9620 D488      08550        9400          OI    XZSWT,XX20                X                              73488021
 006A78 47F0 F000      06990        9401        BC    UNCON,XZDB1                X                               73496021
0
 006A7C 9108 301D      0001D        9403 XZ002    TM    Y1IRX+NX1(XR3),XINREG     IS OP IN IR.                   73512021
 006A80 4780 F120      06AB0        9404        BC    XZERO,XZ011                NO-                             73520021
 006A84 45E0 81E4      01014        9405        BAL   XRSUB,XZWHIR          GET ADDRESS OF REG TBL               73528021
 006A88 4950 C88C      07E1C        9406        CH    XR5,XMINTW                 IS FIRST OP A CONST. IN IR      73536021
 006A8C 4780 F116      06AA6        9407        BC    XZERO,XZ012                YES-                            73544021
 006A90 9140 D488      08550        9408          TM    XZSWT,XX40                IS IT THE 2ND IR OPERAND.      73552021
 006A94 4710 F116      06AA6        9409        BC    XTHRE,XZ012                YES                             73560021
 006A98 D200 D188 D48A 08250 08552  9410          MVC   XREG1(LX1),XREGNO         NO,SET XREGN1 FOR A-TEXT.      73568021
 006A9E 9640 D488      08550        9411          OI    XZSWT,XX40                SET SWITCH                     73576021
 006AA2 47F0 F0CE      06A5E        9412        BC    UNCON,XZ0098          TEST 2ND OPERAND                     73584021
 006AA6 D200 D1D0 D48A 08298 08552  9413 XZ012    MVC   XREG2(LX1),XREGNO         SET XREG2 (REG. INDICATOR F    73592021
                                    9414 *                                       A-TEXT ROUTINE).                73600021
 006AAC 47F0 F0DC      06A6C        9415        BC    UNCON,XZEXIT               X EXIT                          73608021
0
 006AB0 9140 301D      0001D        9417 XZ011    TM    Y1IRX+NX1(XR3),XGNCON     IS IT A GN  CONSTANT.          73624021
 006AB4 4710 F148      06AD8        9418        BC    XTHRE,XZ030                YES                             73632021
 006AB8 5863 0030      00030        9419        L     XR6,Y1INPT(XR3)            NO- SET POINTER TO DATA-NAM     73640021
 006ABC 1B44                        9420        SR XR4,XR4                       IN A-TEXT BUFFER.               73648021
 006ABE D503 D138 C850 08200 07DE0  9421          CLC   XJOP1(LX4),XC000                                         73656021
 006AC4 4780 F140      06AD0        9422        BC    XZERO,XZ014           OPERAND 1 NOT USED YET IN INST       73664021
 006AC8 5060 D13C      08204        9423        ST    XR6,XJOP2                                                  73672021
 006ACC 47F0 F08A      06A1A        9424        BC    UNCON,XZ003                SET LENGTH.                     73680021
 006AD0 5060 D138      08200        9425 XZ014  ST    XR6,XJOP1                                                  73688021
 006AD4 47F0 F08A      06A1A        9426        BC    UNCON,XZ003           WAS IT 2ND OPERAND                   73696021
0
 006AD8 4120 F15A      06AEA        9428 XZ030  LA    XR2,XZ06N                                                  73712021
 006ADC 9101 D488      08550        9429          TM    XZSWT,XX01                                               73720021
 006AE0 4710 8452      01282        9430        BC    XTHRE,XCONLV          BINARY                               73728021
 006AE4 D20F D428 3000 084F0 00000  9431          MVC   XCON(LX16),DX0(XR3)                                      73736021
                             06AEA  9432 XZ06N  EQU   *                                                          73744021
 006AEA D200 D438 D43B 08500 08503  9433          MVC   XCONL(LX1),XZLENG+NX1      MOVE  IT IN XCON1 OR  XCON2   73752021
 006AF0 9104 D488      08550        9434          TM    XZSWT,XX04                                               73760021
 006AF4 4780 F17E      06B0E        9435        BC    XZERO,XZAB20          NOT FL PT                            73768021
 006AF8 9208 D438      08500        9436          MVI   XCON+NX16,XX08            FP LITERAL                     73776021
 006AFC 9104 301D      0001D        9437          TM    Y1IRX+NX1(XR3),XGDPFP                                    73784021
 006B00 4710 F17E      06B0E        9438        BC    XTHRE,XZAB20               LONG FP FORM.                   73792021
 006B04 9204 D438      08500        9439          MVI   XCON+NX16,XX04            SHORT FP FORM.                 73800021
 006B08 D203 D434 D430 084FC 084F8  9440          MVC   XCON+NX12(LX4),XCON+NX8                                  73808021
0
                             06B0E  9442 XZAB20 EQU   *                                                          73824021
 006B0E 9180 D488      08550        9443          TM    XZSWT,XX80                X                              73832021
 006B12 4710 F198      06B28        9444        BC    XTHRE,XZ031                X                               73840021
 006B16 D210 D160 D428 08228 084F0  9445          MVC   XCON1(LX17),XCON          X                              73848021
1         ARITHMETIC / MOVE / SUBSCRIPT  ROUTINES                                                               PAGE  212
-  LOC  OBJECT CODE    ADDR1 ADDR2  STMT   SOURCE STATEMENT                                       ASM 0201 11.03 02/14/15
0006B1C D201 D43B D438 08503 08500  9446 XZEX00   MVC   XZLENG+NX1,XCON+NX16                                     73856021
 006B22 1B44                        9447        SR    XR4,XR4                                                    73864021
 006B24 47F0 F08A      06A1A        9448        BC    UNCON,XZ003           WAS IT 2ND OPERAND                   73872021
 006B28 D210 D1A8 D428 08270 084F0  9449 XZ031    MVC   XCON2(LX17),XCON          X                              73880021
 006B2E 47F0 F18C      06B1C        9450        BC    UNCON,XZEX00          SET LENGTH                           73888021
 006B32 4950 C890      07E20        9451 XZ0100 CH    XR5,XMINFO                                                 73896021
 006B36 4770 F1BA      06B4A        9452        BC    XNOEQ,XZAB10          NOT CONSTANT                         73904021
 006B3A D210 D160 D428 08228 084F0  9453          MVC   XCON1(LX17),XCON                                         73912021
 006B40 D200 D149 D438 08211 08500  9454          MVC   XL1+NX1(LX1),XCONL                                       73920021
 006B46 47F0 F0DC      06A6C        9455        BC    UNCON,XZEXIT          RETURN                               73928021
 006B4A 4950 C88A      07E1A        9456 XZAB10 CH    XR5,XMINON                                                 73936021
 006B4E 4770 F0DC      06A6C        9457        BC    XNOEQ,XZEXIT          RETURN                               73944021
 006B52 1B55                        9458        SR    XR5,XR5                                                    73952021
 006B54 9620 D488      08550        9459          OI    XZSWT,XX20                                               73960021
 006B58 47F0 F17E      06B0E        9460        BC    UNCON,XZAB20          CHECK FOR 2ND OPERAND                73968021
1         ARITHMETIC / MOVE / SUBSCRIPT  ROUTINES                                                               PAGE  213
-  LOC  OBJECT CODE    ADDR1 ADDR2  STMT   SOURCE STATEMENT                                       ASM 0201 11.03 02/14/15
0                            06B5C  9462 XSUDB2 EQU   *                                                          73984021
 006B5C D20B D450 C850 08518 07DE0  9463          MVC   XIDBY(LX12),XC000         RESET OUTPUT AREA.             73992021
 006B62 D202 D415 3007 084DD 00007  9464          MVC   XGTEM2+NX5(LX3),XGSCIN(XR3) PICK LENGHT FOR GROUP ITEM   74000021
                                    9465 *                                      NOT SIGNIFICANT FOR ELEMENTARY   74008021
 006B68 F300 D410 3003 084D8 00003  9466          UNPK  XGTEM2(LX1),XGMINC(LX1,XR3)                              74016021
 006B6E 940F D410      084D8        9467          NI    XGTEM2,XX0F                                              74024021
 006B72 9501 D410      084D8        9468        CLI   XGTEM2,XGGPFL                                              74032021
 006B76 4780 F284      06C14        9469        BC    XZERO,XLEN00               FIXED LENGHT GROUP              74040021
                                    9470 *                                                                       74048021
                                    9471 *                                                                       74056021
 006B7A 9503 D410      084D8        9472        CLI   XGTEM2,XGALN                                               74064021
 006B7E 47C0 F294      06C24        9473        BC    XLOEQ,XLEN01               ALPHA. ITEM.                    74072021
 006B82 9504 D410      084D8        9474        CLI   XGTEM2,XGGPVL                                              74080021
 006B86 4780 F29E      06C2E        9475        BC    XZERO,XLEN02               VARIABLE LENGHT GROUP.          74088021
 006B8A 9506 D410      084D8        9476          CLI   XGTEM2,XX06                                              74096021
 006B8E 47C0 F2CC      06C5C        9477        BC    XLOEQ,XLEN06               REPORT ITEM.                    74104021
 006B92 9509 D410      084D8        9478        CLI   XGTEM2,XGEXFP                                              74112021
 006B96 4780 F2AE      06C3E        9479        BC    XZERO,XLEN04               EXTERNAL FLOATING POINT ITE     74120021
 006B9A 950A D410      084D8        9480        CLI   XGTEM2,XGINFP                                              74128021
 006B9E 4780 F2B8      06C48        9481        BC    XZERO,XLEN05               INTERNAL FLOATING POINT ITE     74136021
 006BA2 950D D410      084D8        9482          CLI   XGTEM2,XX0D                                              74144021
 006BA6 4780 F2D6      06C66        9483        BC    XZERO,XLEN07               STERLING NON REPORT.            74152021
 006BAA 950E D410      084D8        9484          CLI   XGTEM2,XGANE                                             74160021
 006BAE 4780 F2E4      06C74        9485          BE    XLEN16                  ALPHANUMERIC EDITED              74168021
                                    9486 *       IT IS  NOW A NUMERIC ITEM  - BI,ID,OR,ED.                       74176021
0
 006BB2 1B11                        9488        SR    XR1,XR1                                                    74192021
 006BB4 4313 0009      00009        9489        IC    XR1,XGDGLG(XR3)            GET NUMBER OF DIGITS.           74200021
 006BB8 9202 D453      0851B        9490          MVI   XBDBY+NX1,XX02                                           74208021
 006BBC 4910 C3BA      0794A        9491        CH    XR1,XC004                                                  74216021
 006BC0 47C0 F244      06BD4        9492        BC    XLOEQ,XLEN09               HALF WORD.                      74224021
 006BC4 9204 D453      0851B        9493          MVI   XBDBY+NX1,XX04                                           74232021
 006BC8 4910 C86A      07DFA        9494        CH    XR1,XC009                                                  74240021
 006BCC 47C0 F244      06BD4        9495        BC    XLOEQ,XLEN09               WORD.                           74248021
 006BD0 9208 D453      0851B        9496          MVI   XBDBY+NX1,XX08            DOUBLE WORD.                   74256021
                                    9497 *                                                                       74264021
                                    9498 *                                                                       74272021
 006BD4 4010 D454      0851C        9499 XLEN09 STH   XR1,XIDDN                  SET NUMBER OF DIGIT CELL.       74280021
 006BD8 8A10 0001      00001        9500          SRA   XR1,DX1                   SET ID LENGHT.                 74288021
 006BDC 4111 0001      00001        9501          LA    XR1,DX1(XR1)              X                              74296021
 006BE0 4010 D450      08518        9502        STH   XR1,XIDBY                  X                               74304021
 006BE4 D201 D45A D452 08522 0851A  9503          MVC   XOPLGH+NX2(LX2),XBDBY                                    74312021
 006BEA 950B D410      084D8        9504        CLI   XGTEM2,XGBINR              BINARY                          74320021
 006BEE 4780 F27E      06C0E        9505        BC    XZERO,XLEN10          YES                                  74328021
 006BF2 9507 D410      084D8        9506          CLI   XGTEM2,XX07         INDEX DATA ITEM...                   74336021
 006BF6 4780 F27E      06C0E        9507          BE    XLEN10                  YES, TREAT AS BI                 74344021
                                    9508 *                                                                       74352021
                                    9509 *                                                                       74360021
                                    9510 *                                                                       74368021
 006BFA D201 D45A D450 08522 08518  9511          MVC   XOPLGH+NX2(LX2),XIDBY                                    74376021
 006C00 950C D410      084D8        9512        CLI   XGTEM2,XGINDC                                              74384021
 006C04 4780 F27E      06C0E        9513        BC    XZERO,XLEN10               ID.                             74392021
 006C08 D201 D45A D454 08522 0851C  9514          MVC   XOPLGH+NX2(LX2),XIDDN      ED.                           74400021
                                    9515 *                                                                       74408021
1         ARITHMETIC / MOVE / SUBSCRIPT  ROUTINES                                                               PAGE  214
-  LOC  OBJECT CODE    ADDR1 ADDR2  STMT   SOURCE STATEMENT                                       ASM 0201 11.03 02/14/15
0                                   9516 *                                                                       74416021
 006C0E 980F C488      07A18        9517 XLEN10 LM    XR0,XR15,XGSAV3                                            74424021
 006C12 07FE                        9518        BCR   UNCON,XRSUB                X                               74432021
0
 006C14 D401 D414 C3AE 084DC 0793E  9520 XLEN00   NC    XGTEM2+NX4(LX2),XC001      FIXED LENGHT GROUP LENGHT.    74448021
 006C1A D203 D458 D414 08520 084DC  9521 XLEN14   MVC   XOPLGH(LX4),XGTEM2+NX4     X                             74456021
 006C20 47F0 F27E      06C0E        9522        BC    UNCON,XLEN10               X                               74464021
0
 006C24 D401 D414 C850 084DC 07DE0  9524 XLEN01   NC    XGTEM2+NX4(LX2),XC000                                    74480021
 006C2A 47F0 F28A      06C1A        9525        BC    UNCON,XLEN14               ALPHA. ITEM LENGHT.             74488021
0
 006C2E D402 D414 C8B4 084DC 07E44  9527 XLEN02   NC    XGTEM2+NX4(LX3),XSUMK5                                   74504021
 006C34 D201 D456 D416 0851E 084DE  9528          MVC   XOPVLC(LX2),XGTEM2+NX6     VARIABLE LENGHT GROUP.        74512021
 006C3A 47F0 F27E      06C0E        9529        BC    UNCON,XLEN10          RETURN                               74520021
0
 006C3E D402 D414 C850 084DC 07DE0  9531 XLEN04   NC    XGTEM2+NX4(LX3),XC000      EXTERNAL FLOATING-POINT.      74536021
 006C44 47F0 F28A      06C1A        9532        BC    UNCON,XLEN14          SET LENGTH                           74544021
0
 006C48 9204 D45B      08523        9534 XLEN05   MVI   XOPLGH+NX3,XX04           INTERNAL FLOAT. POINT.         74560021
 006C4C 9101 3009      00009        9535          TM    XGDGLG(XR3),XX01                                         74568021
 006C50 4780 F27E      06C0E        9536        BC    XZERO,XLEN10          RETURN                               74576021
                                    9537 *                                                                       74584021
 006C54 9208 D45B      08523        9538          MVI   XOPLGH+NX3,XX08                                          74592021
 006C58 47F0 F27E      06C0E        9539        BC    UNCON,XLEN10               X                               74600021
0
 006C5C D200 D45B 300B 08523 0000B  9541 XLEN06   MVC   XOPLGH+NX3(LX1),DX11(XR3)                                74616021
                                    9542 *                                       REPORT ITEM.                    74624021
 006C62 47F0 F27E      06C0E        9543        BC    UNCON,XLEN10               X                               74632021
0
                             06C66  9545 XLEN07 EQU   *                                                          74648021
 006C66 D200 D45B 300A 08523 0000A  9546          MVC   XOPLGH+NX3(LX1),DX10(XR3)                                74656021
                                    9547 *                                       STERLING NON REPORT             74664021
 006C6C 941F D45B      08523        9548          NI    XOPLGH+NX3,XX1F                                          74672021
 006C70 47F0 F27E      06C0E        9549        BC    UNCON,XLEN10          RETURN                               74680021
 006C74 D201 D45A 3009 08522 00009  9550 XLEN16   MVC   XOPLGH+NX2(LX2),DX9(XR3)  ALPHANUM. EDIT. PICK UP LENGTH 74688021
 006C7A 47F0 F27E      06C0E        9551          B     XLEN10                  EXIT                             74696021
-
-
-

                             06C7E  9553 XSUDB3 EQU   *                                                          74712021
 006C7E 1854                        9554        LR    XR5,RW4                                                    74720021
1         ARITHMETIC / MOVE / SUBSCRIPT  ROUTINES                                                               PAGE  215
-  LOC  OBJECT CODE    ADDR1 ADDR2  STMT   SOURCE STATEMENT                                       ASM 0201 11.03 02/14/15
0006C80 9579 5000      00000        9555          CLI   DX0(XR5),XSTDTN                                          74728021
 006C84 4770 F2FE      06C8E        9556          BNE   XIS306              NOT TALLY                            74736021
 006C88 D218 5000 C82C 00000 07DBC  9557          MVC   DX0(LX25,XR5),XTALLV                                     74744021
                             06C8E  9558 XIS306 EQU   *                                                          74752021
 006C8E 9539 D0D1      08199        9559          CLI   HEADER+NX1,XX39           IS IT A SUBSCRIPT COMPUTATI    74760021
 006C92 4780 F3AA      06D3A        9560        BC    XZERO,XISEXT               YES EXIT.                       74768021
 006C96 9515 D0D1      08199        9561          CLI   HEADER+NX1,XX15           EVAL STRING .                  74776021
 006C9A 4780 F3AA      06D3A        9562        BC    XZERO,XISEXT               X                               74784021
 006C9E 9521 5000      00000        9563          CLI   DX0(XR5),MSFN        IS THIS OP A FILE NAME REF...       74792021
 006CA2 4780 F3D0      06D60        9564        BE    XISFN                 YES, PUT OUT PROC-A TEXT             74800021
 006CA6 9531 5000      00000        9565          CLI   DX0(XR5),XX31             IS THIS OPERAND A SUBSC. DT    74808021
 006CAA 4770 F3B0      06D40        9566          BNE   XIS305              NO - CHECK REC'D NAME                74816021
 006CAE 5810 C90C      07E9C        9567        L     XR1,XASNT                  YES- GET CHAR.OF TABLE CONT     74824021
 006CB2 45E0 7E1C      00E1C        9568        BAL   XRSUB,XTBDEB               SUBSC. COMBINATION  NUMBER.     74832021
                                    9569 *                                                                       74840021
 006CB6 1803                        9570        LR    XR0,XR3                                                    74848021
 006CB8 1A32                        9571        AR    XR3,XR2                    INITIALIZE SCAN  OF TABLE.      74856021
 006CBA 1923                        9572 XISTST CR    XR2,XR3                                                    74864021
 006CBC 4780 F3FE      06D8E        9573        BC    XZERO,XIS3LG               LOGIC ERROR.                    74872021
 006CC0 D501 2000 5005 00000 00005  9574          CLC   DX0(LX2,XR2),XDIDK+NX1(XR5)                              74880021
 006CC6 4780 F342      06CD2        9575        BC    XZERO,XIS300               MATCH FOUND                     74888021
 006CCA 4122 0004      00004        9576          LA    XR2,DX4(XR2)                                             74896021
 006CCE 47F0 F32A      06CBA        9577        BC    UNCON,XISTST               KEEP SCANING                    74904021
0
 006CD2 4862 0002      00002        9579 XIS300   LH    XR6,DX2(XR2)              XR6 HAS POINTER TO UPDATED     74920021
 006CD6 4142 0004      00004        9580          LA    XR4,DX4(XR2)              KILL THIS ENTRY IN SUBS.COM    74928021
 006CDA 1943                        9581 XIS302 CR    XR4,XR3                    NUMBER TABLE                    74936021
 006CDC 4780 F362      06CF2        9582        BC    XZERO,XIS301               X                               74944021
 006CE0 D203 2000 4000 00000 00000  9583          MVC   DX0(LX4,XR2),DX0(XR4)      X                             74952021
 006CE6 4122 0004      00004        9584          LA    XR2,DX4(XR2)              X                              74960021
 006CEA 4144 0004      00004        9585          LA    XR4,DX4(XR4)                                             74968021
 006CEE 47F0 F34A      06CDA        9586        BC    UNCON,XIS302               X                               74976021
0
 006CF2 4B00 C3BA      0794A        9588 XIS301 SH    XR0,XC004                  UPDATE LENGHT OF TABLE.         74992021
 006CF6 4001 0004      00004        9589          STH   XR0,DX4(XR1)              X                              75000021
 006CFA 5810 C904      07E94        9590        L     XR1,XASCRP                 GET CHAR. OF SUBSC. TABLE       75008021
 006CFE 45E0 7E1C      00E1C        9591        BAL   XRSUB,XTBDEB               X                               75016021
 006D02 1A26                        9592        AR    XR2,XR6                    XR2 HAS ABSOLUTE POINTER TO     75024021
 006D04 D202 5004 2001 00004 00001  9593          MVC   XDIDK(LX3,XR5),DX1(XR2)    UPDATED I,D,K- UPDATE INPUT   75032021
 006D0A 9230 5000      00000        9594          MVI   DX0(XR5),XX30             ELEMENT.                       75040021
 006D0E 4110 D46C      08534        9595        LA    XR1,XSID1                  SET TABLE CONTAINING ADDRES     75048021
 006D12 4120 D480      08548        9596        LA    XR2,XSIEND                                                 75056021
 006D16 D503 1000 C850 00000 07DE0  9597 XIS304   CLC   DX0(LX4,XR1),XC000         OF SUBCRIPTED ELEMENT ACTUA   75064021
 006D1C 4780 F39E      06D2E        9598        BC    XZERO,XIS303               USED                            75072021
 006D20 4111 0004      00004        9599          LA    XR1,DX4(XR1)              X                              75080021
 006D24 1912                        9600        CR    XR1,XR2                    X                               75088021
 006D26 4780 F3FE      06D8E        9601        BC    XZERO,XIS1LG               X                               75096021
 006D2A 47F0 F386      06D16        9602        BC    UNCON,XIS304               X                               75104021
0
 006D2E 4061 0000      00000        9604 XIS303   STH   XR6,DX0(XR1)              SET POINT TO UPDATED I,D,K     75120021
 006D32 5B50 C8C8      07E58        9605        S     XR5,XAOPE1                 SET DISPLT. OF INPUT ELEMEN     75128021
 006D36 4051 0002      00002        9606          STH   XR5,DX2(XR1)              WITHIN INPUT STRING.           75136021
1         ARITHMETIC / MOVE / SUBSCRIPT  ROUTINES                                                               PAGE  216
-  LOC  OBJECT CODE    ADDR1 ADDR2  STMT   SOURCE STATEMENT                                       ASM 0201 11.03 02/14/15
0006D3A 980F C408      07998        9608 XISEXT LM    XR0,XR15,XGSAV1            EXIT                            75152021
 006D3E 07FE                        9609        BCR   UNCON,XRSUB                X                               75160021
 006D40                             9610 XIS305   DS    0H                                                       75168021
 006D40 9523 D0D1      08199        9611          CLI   HEADER+1,XX23       IS OP'D FROM WRITE...                75176021
 006D44 4780 F3C0      06D50        9612          BE    XIS307              YES                            59733 75184021
 006D48 9524 D0D1      08199        9613          CLI   HEADER+NX1,XX24          OPRND FROM REWRITE...     59733 75192021
 006D4C 4770 F3AA      06D3A        9614          BNE   XISEXT              NO                             59733 75200021
 006D50                             9615 XIS307   DS    0H                                                 59733 75208021
 006D50 9101 D681      08749        9616          TM    WRITSW,XX01         SECOND WRIT/REWRIT STRING...   59733 75216021
 006D54 4710 F3AA      06D3A        9617          BO    XISEXT              YES                            59733 75224021
 006D58 9530 5000      00000        9618          CLI   DX0(XR5),MDN        REC'D NAME XREF...                   75232021
 006D5C 4770 F3AA      06D3A        9619          BNE   XISEXT              NO                                   75240021
 006D60 9180 A1A4      001A4        9620 XISFN  TM    PHZSW1,XREF          FILE REF SWITCH ON...                 75248021
 006D64 4780 F3AA      06D3A        9621        BZ    XISEXT               NO                                    75256021
 006D68 9218 D189      08251        9622        MVI   GMCTYP,MADCON                                              75264021
 006D6C 9280 D150      08218        9623          MVI   RELAD1,XX80         INDICATE XREF ELE                    75272021
 006D70 9202 D151      08219        9624          MVI   RELAD1+NX1,XX02     INDICATE DICT PTR                    75280021
 006D74 1B11                        9625        SR    XR1,XR1                                                    75288021
 006D76 4315 0001      00001        9626        IC    XR1,XGNBYT(XR5)                                            75296021
 006D7A 4B10 C3AE      0793E        9627        SH    XR1,XC001                                                  75304021
 006D7E 1A51                        9628        AR    XR5,XR1                                                    75312021
 006D80 D202 D152 5000 0821A 00000  9629          MVC   RELAD1+NX2(LX3),DX0(XR5) PICK UP DICT PTR                75320021
 006D86 45E0 BD8A      0241A        9630        BAL   RETRG,MACRO           GENERATE ADCON                       75328021
 006D8A 47F0 F3AA      06D3A        9631        B     XISEXT                RETURN                               75336021
                                    9632 *                                                                       75344021
                                    9633 *      LOGIC ERROR NUMBER 9.                                            75352021
                                    9634 *                                                                       75360021
                             06D8E  9635 XIS3LG EQU   *                                                          75368021
                             06D8E  9636 XIS1LG EQU   *                                                          75376021
 006D8E 45E0 7AC0      00AC0        9637        BAL   XRSUB,ERRPRO          GENERATE ERROR MESSAGE               75384021
 006D92 09                          9638        DC    AL1(ERRN09)                                                75392021
 006D93 08                          9639        DC    AL1(8)                                                     75400021
-
-
-

                             06D94  9641 XSUDB4 EQU   *                                                          75416021
 006D94 9120 4002      00002        9642          TM    DX2(XR4),XRSUBS           IS THIS REG USED BY THE RES    75424021
 006D98 4710 F4D6      06E66        9643        BC    XTHRE,XRS004               OF ADDRESS COMPUTATION DUE      75432021
0
 006D9C 45E0 7858      00858        9645        BAL   XRSUB,XE8DB                NO-ASK 8 BYTES IN TEMP.         75448021
 006DA0 9101 4002      00002        9646          TM    DX2(XR4),XRVAL1     WAS IT OP1 IN THE REGISTER           75456021
 006DA4 4130 D4E8      085B0        9647        LA    XR3,XVAL1                                                  75464021
 006DA8 4710 F432      06DC2        9648        BC    XTHRE,XRS011               YES                             75472021
0
 006DAC 4130 D520      085E8        9650          LA    XR3,XVAL2                                                75488021
 006DB0 9102 4002      00002        9651          TM    DX2(XR4),XRVAL2                                          75496021
1         ARITHMETIC / MOVE / SUBSCRIPT  ROUTINES                                                               PAGE  217
-  LOC  OBJECT CODE    ADDR1 ADDR2  STMT   SOURCE STATEMENT                                       ASM 0201 11.03 02/14/15
0006DB4 4710 F432      06DC2        9652        BC    XTHRE,XRS011          2ND OPERAND IN THIS REG              75504021
                                    9653 *                                                                       75512021
0
 006DB8 4864 0000      00000        9655          LH    XR6,DX0(XR4)                                             75528021
 006DBC 45E0 8000      00E30        9656        BAL   XRSUB,XINSCN          FIND INTR RESULT                     75536021
 006DC0 1836                        9657        LR    XR3,XR6                                                    75544021
 006DC2 940F 301C      0001C        9658 XRS011   NI    XNIRX(XR3),XX0F           UPDATE INFO IN                 75552021
 006DC6 94F6 301D      0001D        9659          NI    XNIRX+NX1(XR3),XIN2RX     INTER. RES. TABLE              75560021
 006DCA D203 3018 D442 00018 0850A  9660          MVC   XNTEL(LX4,XR3),XYTEL                                     75568021
                                    9661 *                                                                       75576021
0
 006DD0 9108 4002      00002        9663          TM    DX2(XR4),XRDPRE     WAS IT A DP REG                      75592021
 006DD4 4710 F482      06E12        9664        BC    XTHRE,XRS020               YES. GENERATE STM               75600021
 006DD8 4830 D446      0850E        9665        LH    XR3,XEREL1      NO GENERATE ST.                            75608021
 006DDC D200 D188 4003 08250 00003  9666          MVC   XREG1(LX1),DX3(XR4)                                      75616021
 006DE2 D402 4000 C8B7 00000 07E47  9667          NC    DX0(LX3,XR4),XREMK6                                      75624021
 006DE8 9180 4002      00002        9668          TM    DX2(XR4),XX80                                            75632021
 006DEC 4780 F46C      06DFC        9669        BC    XZERO,XRSF01          NOT FL PT                            75640021
 006DF0 4030 D14A      08212        9670        STH   XR3,XWC1                                                   75648021
 006DF4 45E0 BDFA      0248A        9671        BAL   XRSUB,STORFS          GENERATE STORE FL PT                 75656021
 006DF8 47F0 F47C      06E0C        9672        BC    UNCON,XSTEXI          RETURN                               75664021
                             06DFC  9673 XRSF01 EQU   *                                                          75672021
 006DFC 4A30 C3BA      0794A        9674        AH    XR3,XC004                  SET                             75680021
 006E00 4030 D14A      08212        9675        STH   XR3,XWC1                   PARAMETERS                      75688021
 006E04 9204 D14C      08214        9676          MVI   XWC1+NX2,XX04             FOR  A-TEXT GENERATOR.         75696021
                                    9677 *                                       REG.                            75704021
                                    9678 *      GENERATE    ST    AND  EXIT.                                     75712021
                             06E08  9679 XRS006 EQU   *                                                          75720021
 006E08 45E0 B040      016D0        9680        BAL   XRSUB,ST              GENERATE ST                          75728021
 006E0C 980F C508      07A98        9681 XSTEXI LM    XR0,XR15,XGSAV5            RETURN.                         75736021
 006E10 07FE                        9682        BCR   UNCON,XRSUB           RETURN                               75744021
-
 006E12 D201 D14A D446 08212 0850E  9684 XRS020   MVC   XWC1(LX2),XEREL1         COMPILE                         75760021
 006E18 9180 4002      00002        9685          TM    DX2(XR4),XX80                                            75768021
 006E1C 4780 F49E      06E2E        9686        BC    XZERO,XRSF02          NOT FL PT                            75776021
 006E20 D200 D188 4003 08250 00003  9687          MVC   XREG1(LX1),DX3(XR4)                                      75784021
 006E26 45E0 BE02      02492        9688        BAL   XRSUB,STORFL          GENERATE STORE FL PT                 75792021
 006E2A 47F0 F4C4      06E54        9689        BC    UNCON,XRSF03          SET FLAGS                            75800021
                             06E2E  9690 XRSF02 EQU   *                                                          75808021
                                    9691 *                                        STM  XREVEN,XRODD,TEMP         75816021
 006E2E 9101 4003      00003        9692          TM    DX3(XR4),XX01             X                              75824021
 006E32 4710 F4CE      06E5E        9693        BC    XTHRE,XRS022               X                               75832021
 006E36 D200 D188 4003 08250 00003  9694 XRS024   MVC   XREG1(LX1),DX3(XR4)        X                             75840021
 006E3C 5844 0004      00004        9695          L     XR4,DX4(XR4)              X                              75848021
 006E40 D200 D1D0 4003 08298 00003  9696          MVC   XREG2(LX1),DX3(XR4)        X                             75856021
 006E46 45E0 BBF6      02286        9697        BAL   XRSUB,STM                  X                               75864021
                                    9698 *                                                                       75872021
 006E4A D402 4000 C8B7 00000 07E47  9699          NC    DX0(LX3,XR4),XREMK6 RESET SWITCHES IN THOSE NEWLY        75880021
                                    9700 *                                       ASSIGNED IR                     75888021
 006E50 5844 0004      00004        9701          L     XR4,DX4(XR4)              X                              75896021
                             06E54  9702 XRSF03 EQU   *                                                          75904021
1         ARITHMETIC / MOVE / SUBSCRIPT  ROUTINES                                                               PAGE  218
-  LOC  OBJECT CODE    ADDR1 ADDR2  STMT   SOURCE STATEMENT                                       ASM 0201 11.03 02/14/15
0006E54 D402 4000 C8B7 00000 07E47  9703          NC    DX0(LX3,XR4),XREMK6        X                             75912021
 006E5A 47F0 F47C      06E0C        9704        BC    UNCON,XSTEXI          RETURN                               75920021
 006E5E 5844 0004      00004        9705 XRS022   L     XR4,DX4(XR4)                                             75928021
 006E62 47F0 F4A6      06E36        9706        BC    UNCON,XRS024          GENERATE STM                         75936021
                                    9707 *                                       SUBSCRIPTING - YES - XRS004     75944021
                             06E66  9708 XRS004 EQU   *                                                          75952021
 006E66 5810 C904      07E94        9709        L     XR1,XASCRP                                                 75960021
 006E6A 45E0 7E1C      00E1C        9710        BAL   XRSUB,XTBDEB               XR2 HAS BEGINING OF             75968021
 006E6E 4834 0000      00000        9711          LH    XR3,DX0(XR4)                                             75976021
 006E72 1A23                        9712        AR    XR2,XR3                    TABLE-XR3 HAS ADDRESS OF        75984021
                                    9713 *                                       UPDATED I,D,K FIELD FOR THI     75992021
 006E74 4122 0001      00001        9714          LA    XR2,DX1(XR2)                                             76000021
                                    9715 *                                       SUBSCRIPT COMBINATION.          76008021
 006E78 4800 D46A      08532        9716        LH    XR0,XCSCEL                 TAKE NUMBER OF LAST CURRENT     76016021
 006E7C 4A00 C3AE      0793E        9717        AH    XR0,XC001                  CELL. INCREASE IT BY ONE.       76024021
 006E80 4000 D46A      08532        9718        STH   XR0,XCSCEL                 IS IT THE NAXIMUM.              76032021
 006E84 4900 A228      00228        9719          CH    XR0,SUBCTR          NUMBER OF SS CELLS AT THAT           76040021
 006E88 47D0 F500      06E90        9720        BC    XNOGT,XRS005               POINT.                          76048021
 006E8C 4000 A228      00228        9721          STH   XR0,SUBCTR          YES, UPDATE MAX NUMBER OF            76056021
                             06E90  9722 XRS005 EQU   *                                                          76064021
                                    9723 *                                       CELL.                           76072021
 006E90 D200 D188 4003 08250 00003  9724          MVC   XREG1,DX3(XR4)            SET A-TEXT  FOR                76080021
 006E96 922C D178      08240        9725          MVI   XCNTR1,XX2C               STORE.                         76088021
 006E9A D201 D179 D46A 08241 08532  9726          MVC   XCNTR1+NX1(LX2),XCSCEL     X                             76096021
 006EA0 D201 2001 D46A 00001 08532  9727          MVC   DX1(LX2,XR2),XCSCEL        UPDATE I,D,K FIELD.           76104021
 006EA6 948F 2000      00000        9728          NI    DX0(XR2),XX8F             X                              76112021
 006EAA 9660 2000      00000        9729          OI    DX0(XR2),XSUCFL           X                              76120021
 006EAE D202 4000 C850 00000 07DE0  9730          MVC   DX0(LX3,XR4),XC000         RESET REGISTER FLAGS.         76128021
 006EB4 4150 D46C      08534        9731        LA    XR5,XSID1                  UPDATE ALSO I,D,K FIELD OF      76136021
 006EB8 4110 D6BC      08784        9732          LA    XR1,DOP1                                                 76144021
 006EBC 4160 D480      08548        9733        LA    XR6,XSIEND                 ACTUAL OPERAND OF THE STRIN     76152021
 006EC0 4805 0000      00000        9734 XRS008   LH    XR0,DX0(XR5)              IN PROCESS WHICH WERE USING    76160021
 006EC4 4900 C850      07DE0        9735        CH    XR0,XC000                  THE SAME REGISTER IN THEIR      76168021
 006EC8 4780 F478      06E08        9736        BC    XZERO,XRS006               K FIELD.                        76176021
 006ECC 1903                        9737        CR    XR0,XR3                    X                               76184021
 006ECE 4770 F552      06EE2        9738        BC    XNOEQ,XRS007               X                               76192021
 006ED2 4805 0002      00002        9739          LH    XR0,DX2(XR5)              X                              76200021
 006ED6 4110 D6BC      08784        9740          LA    XR1,DOP1            RESET TO BEGINNING OF OPERANDS       76208021
 006EDA 1A10                        9741        AR    XR1,XR0                    X                               76216021
 006EDC D202 1004 2000 00004 00000  9742          MVC   XDIDK(LX3,XR1),DX0(XR2)    X                             76224021
 006EE2 4A50 C3BA      0794A        9743 XRS007 AH    XR5,XC004                  X                               76232021
 006EE6 1956                        9744        CR    XR5,XR6                    X                               76240021
 006EE8 4780 F478      06E08        9745        BC    XZERO,XRS006               X                               76248021
 006EEC 47F0 F530      06EC0        9746        BC    UNCON,XRS008               X                               76256021
1         ARITHMETIC / MOVE / SUBSCRIPT  ROUTINES                                                               PAGE  219
-  LOC  OBJECT CODE    ADDR1 ADDR2  STMT   SOURCE STATEMENT                                       ASM 0201 11.03 02/14/15
0006EF0 91D0 301D      0001D        9748 XX000    TM    Y1IRX+NX1(XR3),XZGNLT     IS FIRST OP. A NUM. LITERAL    76272021
 006EF4 4780 F596      06F26        9749        BC    XZERO,XXM00                NO,                             76280021
 006EF8 1255                        9750        LTR   XR5,XR5                    YES,IS 2ND OP A CONSTANT.       76288021
 006EFA 4740 F57E      06F0E        9751        BC    XONE,XXM01                 YES                             76296021
 006EFE 91D0 501D      0001D        9752          TM    Y1IRX+NX1(XR5),XZGNLT     IS 2ND   OP. A NUM. LITERAL    76304021
 006F02 4780 F596      06F26        9753        BC    XZERO,XXM00           NO                                   76312021
 006F06 920C D574      0863C        9754        MVI   XFIRX,XGINDC                                               76320021
 006F0A 4130 D558      08620        9755        LA    XR3,XFVAL                                                  76328021
0
 006F0E 9640 301D      0001D        9757 XXM01    OI    Y1IRX+NX1(XR3),XGNCON     FOR SCALING IF OP. IS A CON    76344021
 006F12 F9F0 3000 C80F 00000 07D9F  9758          CP    DX0(LX16,XR3),XINDCZ      DO NOT GENERATE OBJECT CODE    76352021
 006F18 4770 F590      06F20        9759        BC    XNOEQ,XXEXIT               BUT SET FLAG INDICATING THA     76360021
 006F1C 9680 301D      0001D        9760          OI    Y1IRX+NX1(XR3),XLITZR     THIS CONSTANT WILL HAVE TO     76368021
 006F20 980F C448      079D8        9761 XXEXIT LM    XR0,XR15,XGSAV2            GENERATED AT OBJECT TIME.       76376021
 006F24 07FE                        9762        BCR   UNCON,XRSUB           RETURN                               76384021
0
                                    9764 *                                                                       76400021
                                    9765 *                                                                       76408021
 006F26 1255                        9766 XXM00  LTR   XR5,XR5                                                    76416021
 006F28 4740 F5F0      06F80        9767        BC    XONE,XXM04                 SCALING.                        76424021
 006F2C 41E0 F5BA      06F4A        9768          LA    XRSUB,XXM07                                              76432021
 006F30 9508 5011      00011        9769          CLI   Y1LAS+NX1(XR5),XX08                                      76440021
 006F34 4720 7828      00828        9770        BC    XTWO,XZX3X5           DP, SWITCH OPERANDS                  76448021
 006F38 9508 3011      00011        9771          CLI   Y1LAS+NX1(XR3),XX08                                      76456021
 006F3C 4720 F5BA      06F4A        9772        BC    XTWO,XXM07            DP, DO NOT TEMP STOR SIZES           76464021
 006F40 D500 3019 5019 00019 00019  9773          CLC   Y1TEL+NX1(LX1,XR3),Y1TEL+NX1(XR5)                        76472021
 006F46 4740 7828      00828        9774        BC    XONE,XZX3X5           SWITCH OPERANDS                      76480021
 006F4A 4815 0010      00010        9775 XXM07  LH    XR1,Y1LAS(XR5)             COMPUTE SIZE OF PRODUCT.        76488021
 006F4E 4823 0014      00014        9776        LH    XR2,Y1FAS(XR3)                                             76496021
 006F52 45E0 7D98      00D98        9777        BAL   XRSUB,XWLDZ           SET MULT LENGTH                      76504021
 006F56 D200 D485 D449 0854D 08511  9778          MVC   XYLEN(LX1),XMPLEN+NX1                                    76512021
 006F5C 45E0 7CFE      00CFE        9779        BAL   XRSUB,XYOAF                GENERATE  ZAP TEMP,OP1 IF N     76520021
 006F60 4863 0010      00010        9780        LH    XR6,Y1LAS(XR3)                                             76528021
 006F64 D201 3010 D448 00010 08510  9781          MVC   Y1LAS(LX2,XR3),XMPLEN     SET LENGHT OF OP1 TO LENGHT    76536021
 006F6A 45E0 780A      0080A        9782        BAL   XRSUB,XZSIDA          SET A-TEXT                           76544021
 006F6E 45E0 BABA      0214A        9783        BAL   XRSUB,MP                   PRODUCT(MAKE SURE TO HAVE       76552021
 006F72 4063 0010      00010        9784        STH   XR6,Y1LAS(XR3)             LEADING 0)  AND  GEN            76560021
 006F76 D204 D570 3018 08638 00018  9785          MVC   XFTEL(LX5),Y1TEL(XR3)                                    76568021
 006F7C 47F0 F590      06F20        9786        BC    UNCON,XXEXIT          RETURN                               76576021
0
                                    9788 *                                                                       76592021
                                    9789 *                                                                       76600021
0
 006F80 951D 3015      00015        9791 XXM04    CLI   Y1FAS+NX1(XR3),XX1D                                      76616021
 006F84 47A0 F6A6      07036        9792        BC    XGTEQ,XXM0P           DP MULT                              76624021
 006F88 9508 D438      08500        9793          CLI   XCONL,XX08                                               76632021
 006F8C 4720 F62A      06FBA        9794        BC    XTWO,XXM012                YES-                            76640021
 006F90 4850 C88A      07E1A        9795        LH    XR5,XMINON                                                 76648021
 006F94 1B11                        9796        SR    XR1,XR1                                                    76656021
 006F96 4310 D438      08500        9797        IC    XR1,XCONL                                                  76664021
 006F9A 4823 0022      00022        9798        LH    XR2,Y1FBS(XR3)                                             76672021
1         ARITHMETIC / MOVE / SUBSCRIPT  ROUTINES                                                               PAGE  220
-  LOC  OBJECT CODE    ADDR1 ADDR2  STMT   SOURCE STATEMENT                                       ASM 0201 11.03 02/14/15
0006F9E 45E0 7D98      00D98        9799        BAL   XRSUB,XWLDZ           SET MULT LENGTH                      76680021
 006FA2 D200 D485 D449 0854D 08511  9800          MVC   XYLEN(LX1),XMPLEN+NX1       GENERATE ZAP TEMP,OP1 IF N   76688021
 006FA8 45E0 7D08      00D08        9801        BAL   XRSUB,XYOBF                SSARY.                          76696021
 006FAC 4863 001E      0001E        9802        LH    XR6,Y1LBS(XR3)             SET LENGHT TO LENGHT+ONE        76704021
 006FB0 D201 301E D448 0001E 08510  9803          MVC   Y1LBS(LX2,XR3),XMPLEN     LEADING ZERO.                  76712021
 006FB6 47F0 F680      07010        9804        BC    UNCON,XXM013          SET A-TEXT                           76720021
0
 006FBA 4813 001E      0001E        9806 XXM012 LH    XR1,Y1LBS(XR3)                                             76736021
 006FBE 4823 0026      00026        9807        LH    XR2,Y1ALP(XR3)                                             76744021
 006FC2 4122 0001      00001        9808          LA    XR2,DX1(XR2)                                             76752021
 006FC6 45E0 7D98      00D98        9809        BAL   XRSUB,XWLDZ           SET MULT LENGTH                      76760021
 006FCA D200 D469 D449 08531 08511  9810          MVC   XELEN+NX1(LX1),XMPLEN+NX1                                76768021
 006FD0 45E0 7848      00848        9811        BAL   XRSUB,XTAMPO          GET TEMP STOR                        76776021
 006FD4 D201 D14A D446 08212 0850E  9812          MVC   XWC1(LX2),XEREL1                                         76784021
 006FDA D200 D149 D443 08211 0850B  9813          MVC   XL1+NX1(LX1),XYTEL+NX1                                   76792021
 006FE0 D200 D191 D438 08259 08500  9814          MVC   XL2+NX1(LX1),XCONL                                       76800021
 006FE6 D210 D1A8 D428 08270 084F0  9815          MVC   XCON2(LX17),XCON                                         76808021
 006FEC 45E0 B000      01690        9816        BAL   XRSUB,ZAP             GENERATE ZAP                         76816021
 006FF0 4860 D446      0850E        9817        LH    XR6,XEREL1                                                 76824021
 006FF4 4A60 D442      0850A        9818        AH    XR6,XYTEL                                                  76832021
 006FF8 4B60 D448      08510        9819        SH    XR6,XMPLEN                 SET  A-TEXT BUFFER FOR CONS     76840021
 006FFC 4060 D14A      08212        9820        STH   XR6,XWC1                   IN TEMP.                        76848021
 007000 D201 D148 D448 08210 08510  9821          MVC   XL1(LX2),XMPLEN           X                              76856021
 007006 4850 C892      07E22        9822        LH    XR5,XMINFV                  X                              76864021
 00700A D205 D410 D442 084D8 0850A  9823          MVC   XGTEM2(LX6),XYTEL                                        76872021
0
 007010 45E0 7802      00802        9825 XXM013 BAL   XRSUB,XZSIDB               SET-UP A-TEXT BUFFER.           76888021
 007014 45E0 BABA      0214A        9826        BAL   XRSUB,MP                   GENERATE  MP.                   76896021
 007018 4950 C88A      07E1A        9827        CH    XR5,XMINON                 IF FIRST OPERAND WAS THE CO     76904021
 00701C 4780 F69E      0702E        9828        BC    XZERO,XXM014               UPDATE  INFORMATION BUFFER      76912021
 007020 D205 D442 D410 0850A 084D8  9829          MVC   XYTEL(LX6),XGTEM2                                        76920021
 007026 45E0 7D54      00D54        9830        BAL   XRSUB,XUPDT                OTHER OPERAND.                  76928021
 00702A 47F0 F590      06F20        9831        BC    UNCON,XXEXIT               X                               76936021
 00702E 4063 001E      0001E        9832 XXM014 STH   XR6,Y1LBS(XR3)             RESET LENGTH WITHOUT  LEADI     76944021
 007032 47F0 F590      06F20        9833        BC    UNCON,XXEXIT               ZERO.                           76952021
 007036 4100 0010      00010        9834 XXM0P    LA    XR0,DX16                                                 76960021
 00703A 45E0 F8CA      0725A        9835        BAL   XRSUB,XDP10M          DP MULT                              76968021
 00703E 47F0 F590      06F20        9836        BC    UNCON,XXEXIT          RETURN                               76976021
1         ARITHMETIC / MOVE / SUBSCRIPT  ROUTINES                                                               PAGE  221
-  LOC  OBJECT CODE    ADDR1 ADDR2  STMT   SOURCE STATEMENT                                       ASM 0201 11.03 02/14/15
0007042 4130 D4E8      085B0        9838 XWW00  LA    XR3,XVAL1                  XR3 HAS FIRST OPERAND.          76992021
0
 007046 910B 301C      0001C        9840 XW004  TM    Y1IRX(XR3),XGBINR          IF ONE OPERAND IS               77008021
 00704A 47E0 F6F4      07084        9841        BC    NOTHR,XW005                BINARY- CONVERT TO              77016021
 00704E 9102 301D      0001D        9842          TM    Y1IRX+NX1(XR3),XGOVFL     ID FIRST OR SCALE IN BI AND    77024021
 007052 4710 F6F0      07080        9843        BC    XTHRE,XW007                CONVERT TO ID AFTER.            77032021
 007056 45E0 82A0      010D0        9844        BAL   XRSUB,XSCBOA               WOULD SCALING BE POSSIBLE I     77040021
 00705A 47F0 F6F0      07080        9845        BC    UNCON,XW007                NO                              77048021
 00705E 9504 3013      00013        9846          CLI   Y1BAS+NX1(XR3),XX04       YES, BUT IS SCALED OP A SIN    77056021
 007062 4720 F6F0      07080        9847        BC    XTWO,XW007                 WORD - NO                       77064021
 007066 4860 D56A      08632        9848        LH    XR6,XFBAS                  YES, SCALE IN BINARY            77072021
 00706A D201 D56A 3012 08632 00012  9849          MVC   XFBAS(LX2),Y1BAS(XR3)                                    77080021
 007070 45E0 8288      010B8        9850        BAL   XRSUB,XZSCL           GENERATE CODING FOR SCALING          77088021
 007074 4060 D56A      08632        9851        STH   XR6,XFBAS                                                  77096021
 007078 45E0 82CA      010FA        9852          BAL   XRSUB,XBIIDB        CONVERT BINARY TO ID                 77104021
 00707C 47F0 F736      070C6        9853        BC    UNCON,XWINCR          CHECK FOR STORE OR MOVE              77112021
                             07080  9854 XW007  EQU   *                                                          77120021
 007080 45E0 82CA      010FA        9855        BAL   XRSUB,XBIIDB          CONVERT BINARY TO ID                 77128021
0
 007084 9102 301D      0001D        9857 XW005    TM    Y1IRX+NX1(XR3),XGOVFL     OVERFLOW-- TRUNCATE FIRST      77144021
 007088 4710 F754      070E4        9858        BC    XTHRE,XW003           YES                                  77152021
 00708C 4853 0026      00026        9859 XW006  LH    XR5,Y1ALP(XR3)                                             77160021
 007090 1255                        9860        LTR   XR5,XR5                                                    77168021
 007092 4740 F818      071A8        9861        BC    XONE,XW002                 DIVIDE  ( MVO'S )               77176021
 007096 4780 F736      070C6        9862        BC    XZERO,XWINCR          CHECK FOR STORE OR MOVE              77184021
0
                                    9864 *                                                                       77200021
 00709A F8F0 D428 C811 084F0 07DA1  9865          ZAP   XCON(LX16),XIDONE(LX1)                                   77208021
 0070A0 FCF0 D428 C810 084F0 07DA0  9866 XN10P1   MP    XCON(LX16),XIDCNQ(LX1)    MULTIPLY BY TEN.               77216021
 0070A6 FAFF D428 D428 084F0 084F0  9867          AP    XCON(LX16),XCON(LX16)                                    77224021
 0070AC 4650 F710      070A0        9868          BCT   XR5,XN10P1               DECREASE XR5                    77232021
0
 0070B0 4150 D428      084F0        9870        LA    XR5,XCON                                                   77248021
 0070B4 45E0 7648      00648        9871        BAL   XRSUB,XIDSZ           GET SIZES OF OPERAND                 77256021
 0070B8 D200 D438 D451 08500 08519  9872          MVC   XCONL(LX1),XIDBY+NX1                                     77264021
 0070BE 4850 C88A      07E1A        9873        LH    XR5,XMINON                 GENERATE     MP OP,10**S        77272021
                                    9874 *                                                                       77280021
 0070C2 45E0 7DB4      00DB4        9875        BAL   XRSUB,XXMPL                X                               77288021
                                    9876 *                                                                       77296021
0
 0070C6 45E0 83D0      01200        9878 XWINCR BAL   XRSUB,XSTOMV          CHECK FOR STORE OR MOVE              77312021
 0070CA 47F0 F746      070D6        9879        BC    UNCON,XWEXIT          YES                                  77320021
 0070CE 5930 C8C0      07E50        9880        C     XR3,XAVAL1                 IS IT 2ND OP.                   77328021
 0070D2 4780 F74C      070DC        9881        BC    XZERO,XW0044               NO-                             77336021
 0070D6 980F C408      07998        9882 XWEXIT LM    XR0,XR15,XGSAV1            YES- EXIT.                      77344021
 0070DA 07FE                        9883        BCR   UNCON,XRSUB                X                               77352021
0
 0070DC 4130 D520      085E8        9885 XW0044 LA    XR3,XVAL2                  XR3 HAS 2ND OP.                 77368021
 0070E0 47F0 F6B6      07046        9886        BC    UNCON,XW004                SCALE IT.                       77376021
1         ARITHMETIC / MOVE / SUBSCRIPT  ROUTINES                                                               PAGE  222
-  LOC  OBJECT CODE    ADDR1 ADDR2  STMT   SOURCE STATEMENT                                       ASM 0201 11.03 02/14/15
-
                             070E4  9889 XW003  EQU   *                                                          77400021
 0070E4 9500 302F      0002F        9890          CLI   Y1IND+NX1(XR3),XX00       ANY INTEGER TO TRUNCATE.       77408021
 0070E8 4780 F804      07194        9891        BC    XZERO,XW013           NO                                   77416021
 0070EC 91D0 301D      0001D        9892          TM    Y1IRX+NX1(XR3),XZGNLT                                    77424021
 0070F0 4780 F79E      0712E        9893        BC    XZERO,XW0PR           OPERAND NOT A LITERAL                77432021
                                    9894 *                                                                       77440021
                                    9895 *      ERROR NUMBER 10.                                                 77448021
                                    9896 *                                                                       77456021
 0070F4 45E0 7AC0      00AC0        9897        BAL   XRSUB,ERRPRO          GENERATE ERROR MESSAGE               77464021
 0070F8 0A                          9898        DC    AL1(ERRN10)                                                77472021
 0070F9 01                          9899        DC    AL1(1)                                                     77480021
 0070FA 4863 0026      00026        9900        LH    XR6,Y1ALP(XR3)                                             77488021
 0070FE 4A63 0022      00022        9901        AH    XR6,Y1FBS(XR3)                                             77496021
 007102 4960 C87E      07E0E        9902        CH    XR6,XC030                                                  77504021
 007106 4720 F78E      0711E        9903        BC    XTWO,XW0PR2           MORE THAN 30 DIGITS                  77512021
 00710A 4863 0026      00026        9904        LH    XR6,Y1ALP(XR3)                                             77520021
 00710E 1326                        9905        LCR   XR2,XR6                                                    77528021
 007110 4023 0026      00026        9906        STH   XR2,Y1ALP(XR3)                                             77536021
 007114 1853                        9907        LR    XR5,XR3                                                    77544021
 007116 45E0 774E      0074E        9908        BAL   XRSUB,XSCAL           SCALE OPERAND                        77552021
 00711A 4063 0026      00026        9909        STH   XR6,Y1ALP(XR3)                                             77560021
 00711E 9210 D485      0854D        9910 XW0PR2   MVI   XYLEN,XX10                                               77568021
 007122 45E0 7D08      00D08        9911        BAL   XRSUB,XYOBF           GENERATE ZAP                         77576021
 007126 940F 301D      0001D        9912          NI    Y1IRX+NX1(XR3),XX0F                                      77584021
 00712A 47F0 F7A4      07134        9913        BC    UNCON,XW0PR1          CHECK TRUNC VALUE                    77592021
                                    9914 *-------------------------------------        GIVE A MESSAGE            77600021
 00712E 45E0 7AC0      00AC0        9915 XW0PR  BAL   XRSUB,ERRPRO          GENERATE ERROR MESSAGE               77608021
 007132 0B                          9916        DC    AL1(ERRN11)                                                77616021
 007133 00                          9917        DC    AL1(0)                                                     77624021
                             07134  9918 XW0PR1 EQU   *                                                          77632021
 007134 4863 0022      00022        9919        LH    XR6,Y1FBS(XR3)                                             77640021
 007138 4B63 002E      0002E        9920        SH    XR6,Y1IND(XR3)                                             77648021
 00713C 4720 F7B2      07142        9921          BH    XW0X01              MAKE SURE DIGITS >= 0                77656021
 007140 1B66                        9922        SR    XR6,XR6                                                    77664021
                             07142  9923 XW0X01 EQU   *                                                          77672021
 007142 4063 0022      00022        9924        STH   XR6,Y1FBS(XR3)                                             77680021
 007146 8A60 0001      00001        9925          SRA   XR6,DX1                                                  77688021
 00714A 4166 0001      00001        9926          LA    XR6,DX1(XR6)                                             77696021
 00714E D200 D485 301F 0854D 0001F  9927          MVC   XYLEN(LX1),Y1LBS+NX1(XR3)                                77704021
 007154 45E0 7D08      00D08        9928        BAL   XRSUB,XYOBF           GENERATE ZAP                         77712021
 007158 4810 D442      0850A        9929        LH    XR1,XYTEL                                                  77720021
 00715C 1B16                        9930        SR    XR1,XR6                                                    77728021
 00715E 4780 F7E6      07176        9931        BC    XZERO,XW010           NO XC NEEDED                         77736021
 007162 4010 D148      08210        9932        STH   XR1,XL1                                                    77744021
 007166 D201 D14A D446 08212 0850E  9933          MVC   XWC1(LX2),XEREL1                                         77752021
 00716C D201 D192 D446 0825A 0850E  9934          MVC   XWC2(LX2),XEREL1                                         77760021
 007172 45E0 BB06      02196        9935        BAL   XRSUB,EXORLG          GENERATE XC                          77768021
 007176 4063 001E      0001E        9936 XW010  STH   XR6,Y1LBS(XR3)                                             77776021
 00717A 9101 3023      00023        9937          TM    Y1FBS+NX1(XR3),XX01                                      77784021
 00717E 4710 F804      07194        9938        BC    XTHRE,XW013           NUMBER OF DIGITS ODD                 77792021
 007182 4210 D17D      08245        9939          STC   XR1,XPLUS1+NX2                                           77800021
 007186 D201 D14A D446 08212 0850E  9940          MVC   XWC1(LX2),XEREL1                                         77808021
1         ARITHMETIC / MOVE / SUBSCRIPT  ROUTINES                                                               PAGE  223
-  LOC  OBJECT CODE    ADDR1 ADDR2  STMT   SOURCE STATEMENT                                       ASM 0201 11.03 02/14/15
000718C 920F D189      08251        9941          MVI   XIMM,XX0F                                                77816021
 007190 45E0 BB3E      021CE        9942        BAL   XRSUB,NI              GENERATE NI                          77824021
0
                             07194  9944 XW013  EQU   *                          SCALE TRUNCATED RESULT.         77840021
 007194 951E 3015      00015        9945          CLI   Y1FAS+NX1(XR3),XX1E                                      77848021
 007198 47C0 F6FC      0708C        9946        BC    XLOEQ,XW006           NUMBER OF DIGITS NOT > 30            77856021
 00719C 4100 0020      00020        9947          LA    XR0,DX32                                                 77864021
 0071A0 45E0 F8CA      0725A        9948        BAL   XRSUB,XDP10M          DP MULT                              77872021
 0071A4 47F0 F736      070C6        9949        BC    UNCON,XWINCR          CHECK FOR STORE OR MOVE              77880021
0
0
 0071A8 91D0 301D      0001D        9952 XW002    TM    Y1IRX+NX1(XR3),XZGNLT    DROP DECIMAL.                   77904021
 0071AC 4780 F848      071D8        9953        BC    XZERO,XW0PQ     IF LITERAL DO IT AT COMPILE TIME.          77912021
 0071B0 45E0 83D0      01200        9954        BAL   XRSUB,XSTOMV          CHECK FOR STORE OR MOVE              77920021
 0071B4 47F0 F746      070D6        9955        BC    UNCON,XWEXIT          YES                                  77928021
 0071B8 5930 C8C4      07E54        9956        C     XR3,XAVAL2          IS THIS THE 2ND OPERAND                77936021
 0071BC 4770 F838      071C8        9957        BNE   XW008               NO                                     77944021
 0071C0 95BC D738      08800        9958        CLI   DOP2,TEMRES         YES, IS IT A TEMP RESULT               77952021
 0071C4 4780 F746      070D6        9959        BE    XWEXIT              YES, RETURN                            77960021
                             071C8  9960 XW008  EQU   *                                                          77968021
 0071C8 45E0 7828      00828        9961        BAL   XRSUB,XZX3X5          SWITCH OPERANDS                      77976021
 0071CC 45E0 774E      0074E        9962        BAL   XRSUB,XSCAL           SCALE OPERAND                        77984021
 0071D0 45E0 7828      00828        9963        BAL   XRSUB,XZX3X5          SWITCH OPERANDS                      77992021
 0071D4 47F0 F736      070C6        9964        BC    UNCON,XWINCR          CHECK FOR STORE OR MOVE              78000021
                             071D8  9965 XW0PQ  EQU   *                                                          78008021
 0071D8 D200 D485 301F 0854D 0001F  9966          MVC   XYLEN(LX1),Y1LBS+NX1(XR3)                                78016021
 0071DE 45E0 7D08      00D08        9967        BAL   XRSUB,XYOBF                      GENERATE  MVO'S.          78024021
 0071E2 4840 D446      0850E        9968        LH    XR4,XEREL1                                                 78032021
 0071E6 4853 0026      00026        9969        LH    XR5,Y1ALP(XR3)             DECIMAL IS TO BE LOST. ONE      78040021
 0071EA 1355                        9970        LCR   XR5,XR5                    WILL DO IT. IF NOT TWO ARE      78048021
 0071EC 4953 0022      00022        9971        CH    XR5,Y1FBS(XR3)                                             78056021
 0071F0 4740 F884      07214        9972        BC    XONE,XW0022           SCALING < DIGITS                     78064021
 0071F4 4040 D14A      08212        9973        STH   XR4,XWC1                                                   78072021
 0071F8 F8F0 D1A8 C80F 08270 07D9F  9974          ZAP   XCON2(LX16),XINDCZ(LX1)                                  78080021
 0071FE 9201 D1B8      08280        9975          MVI   XCON2+NX16,XX01                                          78088021
 007202 9201 D191      08259        9976          MVI   XL2+NX1,XX01                                             78096021
 007206 D200 D149 D443 08211 0850B  9977          MVC   XL1+NX1(LX1),XYTEL+NX1                                   78104021
 00720C 45E0 B000      01690        9978        BAL   XRSUB,ZAP             GENERATE ZAP                         78112021
 007210 47F0 F736      070C6        9979        BC    UNCON,XWINCR          CHECK FOR STORE OR MOVE              78120021
                             07214  9980 XW0022 EQU   *                                                          78128021
 007214 1B00                        9981        SR    XR0,XR0                                                    78136021
 007216 9101 3027      00027        9982          TM    Y1ALP+NX1(XR3),XX01                                      78144021
 00721A 4780 F892      07222        9983        BC    XZERO,XW020           SCALING NOT ODD                      78152021
 00721E 4155 0001      00001        9984          LA    XR5,DX1(XR5)                                             78160021
 007222 8A50 0001      00001        9985 XW020    SRA   XR5,DX1                                                  78168021
 007226 4040 D14A      08212        9986 XW0025 STH   XR4,XWC1                                                   78176021
 00722A 4040 D192      0825A        9987        STH   XR4,XWC2                                                   78184021
 00722E 4820 D442      0850A        9988        LH    XR2,XYTEL                                                  78192021
 007232 4020 D148      08210        9989        STH   XR2,XL1                                                    78200021
 007236 1B25                        9990        SR    XR2,XR5                                                    78208021
 007238 4020 D190      08258        9991        STH   XR2,XL2                                                    78216021
 00723C 45E0 BAD2      02162        9992        BAL   XRSUB,MVO            MVO  TEMP(L),TEMP(L-A)                78224021
1         ARITHMETIC / MOVE / SUBSCRIPT  ROUTINES                                                               PAGE  224
-  LOC  OBJECT CODE    ADDR1 ADDR2  STMT   SOURCE STATEMENT                                       ASM 0201 11.03 02/14/15
0                                   9993 *                            WHERE  A= XIALP/2, OR = XIALP+1/2          78232021
                                    9994 *                            DEPENDING ON XIALP BEIING EVEN OR ODD.     78240021
 007240 1200                        9995        LTR   XR0,XR0                                                    78248021
 007242 4770 F736      070C6        9996        BC    XNOEQ,XWINCR          CHECK FOR STORE OR MOVE              78256021
 007246 9101 3027      00027        9997          TM    Y1ALP+NX1(XR3),XX01                                      78264021
 00724A 4710 F736      070C6        9998        BC    XTHRE,XWINCR          SCALING ODD                          78272021
 00724E 4800 C3AE      0793E        9999        LH    XR0,XC001                                                  78280021
 007252 4150 0001      00001       10000          LA    XR5,DX1        IF XIALP IS EVEN GENERATE AN AXTRA MVO    78288021
 007256 47F0 F896      07226       10001        BC    UNCON,XW0025            MVO   TEMP(L),TEMP(L-1)  .         78296021
-
0
                                   10003 * DOUBLE PRECISION MULITPLY. 30 DIGITS BY 30 DIGITS.                    78312021
                                   10004 * PRODUCT TRUNCATED TO 30 DIGITS.                                       78320021
 00725A 900F C588      07B18       10005 XDP10M STM   XR0,XR15,XGSAV7                                            78328021
 00725E 4900 C876      07E06       10006        CH    XR0,XC016                                                  78336021
 007262 47D0 F8E6      07276       10007        BC    XNOGT,XDP10A          <= 16 BYTES NEEDED                   78344021
 007266 45E0 85A0      013D0       10008        BAL   XRSUB,XBDSET          SET A-TEXT                           78352021
 00726A 9260 D14F      08217       10009          MVI   BDISP1+NX1,WORKA                                         78360021
 00726E 9260 D197      0825F       10010          MVI   BDISP2+NX1,WORKA                                         78368021
 007272 47F0 F8F6      07286       10011        BC    UNCON,XDP10B          SET LENGTH                           78376021
 007276 45E0 7850      00850       10012 XDP10A BAL   XRSUB,XE16D           GET 16 BYTES OF TEMP STOR            78384021
 00727A D201 D14A D446 08212 0850E 10013          MVC   XWC1(LX2),XEREL1                                         78392021
 007280 D201 D192 D446 0825A 0850E 10014          MVC   XWC2(LX2),XEREL1                                         78400021
 007286 4000 D148      08210       10015 XDP10B STH   XR0,XL1                                                    78408021
 00728A 45E0 BB06      02196       10016        BAL   XRSUB,EXORLG          GENERATE XC                          78416021
 00728E 92F0 D487      0854F       10017          MVI   XZCSW,XXF0                                               78424021
 007292 1B22                       10018        SR    XR2,XR2                                                    78432021
 007294 4813 0026      00026       10019        LH    XR1,Y1ALP(XR3)                                             78440021
 007298 9101 3027      00027       10020          TM    Y1ALP+NX1(XR3),XX01                                      78448021
 00729C 4780 F922      072B2       10021        BC    XZERO,XDP300          SCALING EVEN                         78456021
 0072A0 920F D487      0854F       10022          MVI   XZCSW,XX0F                                               78464021
 0072A4 9101 3023      00023       10023          TM    Y1FBS+NX1(XR3),XX01                                      78472021
 0072A8 4780 F920      072B0       10024        BC    XZERO,XDP30A          NUMBER OF DIGITS EVEN                78480021
 0072AC 4120 0001      00001       10025          LA    XR2,DX1                                                  78488021
                             072B0 10026 XDP30A EQU   *                                                          78496021
 0072B0 0610                       10027        BCTR  XR1,RW0               SET LENGTH AND DISP                  78504021
 0072B2 8A10 0001      00001       10028 XDP300   SRA   XR1,DX1                                                  78512021
 0072B6 1840                       10029        LR    XR4,XR0                                                    78520021
 0072B8 1B41                       10030        SR    XR4,XR1                                                    78528021
 0072BA 1864                       10031        LR    XR6,XR4                                                    78536021
 0072BC 1B62                       10032        SR    XR6,XR2                                                    78544021
 0072BE 4853 001E      0001E       10033        LH    XR5,Y1LBS(XR3)                                             78552021
 0072C2 1B65                       10034        SR    XR6,XR5                                                    78560021
 0072C4 1A52                       10035        AR    XR5,XR2                                                    78568021
 0072C6 4260 D17D      08245       10036          STC   XR6,XPLUS1+NX2                                           78576021
 0072CA 4050 D148      08210       10037        STH   XR5,XL1                                                    78584021
 0072CE 45E0 F9BE      0734E       10038        BAL   XRSUB,XDP30Q          SET LOCATION                         78592021
 0072D2 D205 D410 D442 084D8 0850A 10039          MVC   XGTEM2(LX6),XYTEL                                        78600021
 0072D8 4850 C892      07E22       10040        LH    XR5,XMINFV                                                 78608021
 0072DC 45E0 7802      00802       10041        BAL   XRSUB,XZSIDB          SET A-TEXT                           78616021
 0072E0 9101 3027      00027       10042          TM    Y1ALP+NX1(XR3),XX01                                      78624021
 0072E4 4780 F960      072F0       10043        BC    XZERO,XDP305          SCALING EVEN                         78632021
1         ARITHMETIC / MOVE / SUBSCRIPT  ROUTINES                                                               PAGE  225
-  LOC  OBJECT CODE    ADDR1 ADDR2  STMT   SOURCE STATEMENT                                       ASM 0201 11.03 02/14/15
00072E8 45E0 BAD2      02162       10044        BAL   XRSUB,MVO             GENERATE MVO                         78640021
 0072EC 47F0 F968      072F8       10045        BC    UNCON,XDP30R          GENERATE MVN                         78648021
 0072F0 9200 D191      08259       10046 XDP305   MVI   XL2+NX1,XX00                                             78656021
 0072F4 45E0 B18C      0181C       10047        BAL   XRSUB,MVC             GENERATE MVC                         78664021
                             072F8 10048 XDP30R EQU   *                                                          78672021
 0072F8 4850 C892      07E22       10049        LH    XR5,XMINFV                                                 78680021
 0072FC 45E0 7802      00802       10050        BAL   XRSUB,XZSIDB          SET A-TEXT                           78688021
 007300 4850 D190      08258       10051        LH    XR5,XL2                                                    78696021
 007304 0650                       10052        BCTR  XR5,RW0               SET DISP                             78704021
 007306 4250 D1C5      0828D       10053          STC   XR5,XPLUS2+NX2                                           78712021
 00730A 9200 D191      08259       10054          MVI   XL2+NX1,XX00                                             78720021
 00730E 9201 D149      08211       10055          MVI   XL1+NX1,XX01                                             78728021
 007312 1850                       10056        LR    XR5,XR0                                                    78736021
 007314 0650                       10057        BCTR  XR5,RW0               SET DISP                             78744021
 007316 4250 D17D      08245       10058          STC   XR5,XPLUS1+NX2                                           78752021
 00731A 4900 C876      07E06       10059        CH    XR0,XC016                                                  78760021
 00731E 4720 F99C      0732C       10060        BC    XTWO,XDP306           SIZE > 16 BYTES                      78768021
 007322 D205 D442 D410 0850A 084D8 10061          MVC   XYTEL(LX6),XGTEM2                                        78776021
 007328 45E0 7D54      00D54       10062        BAL   XRSUB,XUPDT           UPDATE TEMP STOP PTRS                78784021
 00732C 45E0 F9BE      0734E       10063 XDP306 BAL   XRSUB,XDP30Q          SET LOCATION                         78792021
 007330 45E0 BB16      021A6       10064        BAL   XRSUB,MVN             GENERATE MVN                         78800021
 007334 0640                       10065        BCTR  XR4,RW0               SET DISP                             78808021
 007336 4240 D17D      08245       10066          STC   XR4,XPLUS1+NX2                                           78816021
 00733A D200 D189 D487 08251 0854F 10067          MVC   XIMM(LX1),XZCSW                                          78824021
 007340 45E0 F9BE      0734E       10068        BAL   XRSUB,XDP30Q          SET LOCATION                         78832021
 007344 45E0 BB3E      021CE       10069        BAL   XRSUB,NI              GENERATE NI                          78840021
 007348 980F C588      07B18       10070        LM    XR0,XR15,XGSAV7                                            78848021
 00734C 07FE                       10071        BCR   UNCON,XRSUB           RETURN                               78856021
-
0
-
0
 00734E 4900 C876      07E06       10074 XDP30Q CH    XR0,XC016                                                  78880021
 007352 4720 F9CE      0735E       10075        BC    XTWO,XDPQQ1           SIZE > 16 BYTES                      78888021
 007356 D201 D14A D446 08212 0850E 10076          MVC   XWC1(LX2),XEREL1                                         78896021
 00735C 07FE                       10077        BCR   UNCON,XRSUB           RETURN                               78904021
 00735E 92D0 D14E      08216       10078 XDPQQ1   MVI   BDISP1,XXD0                                              78912021
 007362 9260 D14F      08217       10079          MVI   BDISP1+NX1,WORKA                                         78920021
 007366 07FE                       10080        BCR   UNCON,XRSUB           RETURN                               78928021
1         ARITHMETIC / MOVE / SUBSCRIPT  ROUTINES                                                               PAGE  226
-  LOC  OBJECT CODE    ADDR1 ADDR2  STMT   SOURCE STATEMENT                                       ASM 0201 11.03 02/14/15
0                                  10082 *      XHSMD    - ROUTINE WHICH DETERMINES THE MODE(ID OR BINARY) I     78944021
                                   10083 *               - WHICH THE ARITHMETIC OPERATIONS WILL BE PERFORMED     78952021
                                   10084 *               - THE INPUT TO THIS ROUTINE  IS MAINLY '                78960021
                                   10085 *               -     A)  SIZE OF THE RESULT OF THIS OPERATION.         78968021
                                   10086 *               -     B)  MODE OF BOTH OPERANDS.                        78976021
                                   10087 *               -     C)  CONTEXT IN WHICH THE RESULT WILL BE USED      78984021
                                   10088 *               -         LATER ON.                                     78992021
                                   10089 *               -     D)  NATURE OF THIS OPERATION (ADD,MULT.,DIV,E     79000021
                                   10090 *               - THE OUTPUT IS  A  FLAG SET IN THE GENERAL SWITCH      79008021
-
0
                             07368 10092 XHSMD  EQU   *                                                          79024021
 007368 9200 D484      0854C       10093          MVI   XHINTS,XX00                                              79032021
 00736C 4330 D504      085CC       10094        IC    XR3,X1IRX                  XR3 AND XR4                     79040021
 007370 8930 001C      0001C       10095          SLL   XR3,DX28                  WILL HAVE THE TYPE             79048021
 007374 4340 D53C      08604       10096        IC    XR4,X2IRX                  OF VAL1 AND                     79056021
 007378 8940 001C      0001C       10097          SLL   XR4,DX28                  VAL2.                          79064021
 00737C 1534                       10098        CLR   XR3,XR4                    DO BOTH OPERANDS HAVE THE S     79072021
 00737E 4770 FA4E      073DE       10099        BC    XNOEQ,XH001                TYPE - NO,                      79080021
 007382 5730 C8A4      07E34       10100        X     XR3,XHMK1                  YES,ARE THEY BOTH BINARY.       79088021
 007386 4770 FA0A      0739A       10101        BC    XNOEQ,XH025                NO,THEY ARE BOTH ID -SET ID     79096021
 00738A 9140 D481      08549       10102 XH002  TM    XGSWT,XAROPE               YES,IS IT AN ARITH. OPERATI     79104021
 00738E 47E0 FB30      074C0       10103        BC    NOTHR,XH008                NO ,IT IS A RELATIONAL- SET     79112021
                                   10104 *                                       BINARY MODE.                    79120021
0
 007392 9508 D56B      08633       10106          CLI   XFBAS+NX1,XX08      YES, IS RESULT > 8 BYTES             79136021
 007396 47C0 FA14      073A4       10107        BC    XLOEQ,XH020                NO,                             79144021
 00739A 9620 D481      08549       10108 XH025  OI    XGSWT,XIDMOD               YES- SET ID MODE.               79152021
0
 00739E 980F C408      07998       10110 XHEXI  LM    XR0,XR15,XGSAV1            RETURN                          79168021
 0073A2 07FE                       10111        BCR   UNCON,XRSUB                X                               79176021
0
 0073A4 9504 D56B      08633       10113 XH020    CLI   XFBAS+NX1,XX04            IS RESULT = 4 BYTES.           79192021
 0073A8 47D0 FB28      074B8       10114          BNH   XH003               NO, SET BINARY MODE                  79200021
 0073AC 4120 FA42      073D2       10115          LA    XR2,XH022                LOAD TRANSFER                   79208021
 0073B0 4110 FA36      073C6       10116        LA    XR1,XH026                  INDEXES.                        79216021
 0073B4 9504 D4FB      085C3       10117 XH027    CLI   X1BAS+NX1,XX04            CHECK IF BOTH OP.ARE LESS T    79224021
 0073B8 0722                       10118        BCR   XTWO,XR2                   4 BYTES-   NO                   79232021
 0073BA 9504 D533      085FB       10119          CLI   X2BAS+NX1,XX04                                           79240021
 0073BE 0722                       10120        BCR   XTWO,XR2                   NO                              79248021
 0073C0 45E0 FAE6      07476       10121 XH023  BAL   XRSUB,XH016                GET INTERSTRING INFORMATION     79256021
 0073C4 07F1                       10122        BCR   UNCON,XR1             TRANSFER                             79264021
 0073C6 9106 D484      0854C       10123 XH026  TM    XHINTS,XHCLUE              IS RESULT USED WITH A BINAR     79272021
 0073CA 4710 FB30      074C0       10124        BC    XTHRE,XH008                OPERAND IN AN ADD,RELATIONA     79280021
 0073CE 47F0 FA0A      0739A       10125        BC    UNCON,XH025                OR STORE - IF YES SET BINAR     79288021
                                   10126 *                                       MODE. ID OTHERWISE.             79296021
 0073D2 9128 D482      0854A       10127 XH022  TM    XOPMOD,XMUDVF                                              79304021
 0073D6 4780 FA30      073C0       10128        BC    XZERO,XH023                PRECISION AND IF OPERATION      79312021
 0073DA 47F0 FA0A      0739A       10129        BC    UNCON,XH025                NOT ADD OR SUB SET ID MODE.     79320021
1         ARITHMETIC / MOVE / SUBSCRIPT  ROUTINES                                                               PAGE  227
-  LOC  OBJECT CODE    ADDR1 ADDR2  STMT   SOURCE STATEMENT                                       ASM 0201 11.03 02/14/15
0                                  10130 *                                       OTHERWISE TAKE TEST AT XH02     79328021
 0073DE 91D0 D505      085CD       10131 XH001    TM    X1IRX+NX1,XZGNLT          IF ONE OPERAND IS A LITERAL    79336021
 0073E2 4770 F9FA      0738A       10132        BC    XNOEQ,XH002                OR A FIGCON ASSUME              79344021
                                   10133 *                                       IT HAS THE TYPE OF FIRST OP     79352021
 0073E6 91D0 D53D      08605       10134          TM    X2IRX+NX1,XZGNLT                                         79360021
 0073EA 4770 F9FA      0738A       10135        BC    XNOEQ,XH002                X                               79368021
 0073EE 9140 D481      08549       10136          TM    XGSWT,XAROPE                                             79376021
 0073F2 4710 FA82      07412       10137        BC    XTHRE,XH006                MIXED TYPE AND ARITH OPERAT     79384021
                                   10138 *                                       MIXED TYPE AND RELATIONAL       79392021
 0073F6 5730 C8A4      07E34       10139        X     XR3,XHMK1                  YES,ARE THEY BOTH BINARY.       79400021
 0073FA 4770 FA7A      0740A       10140        BC    XNOEQ,XH007                OP1 IS NOT BINARY               79408021
 0073FE 9504 D533      085FB       10141          CLI   X2BAS+NX1,XX04            IS THE ID OPERAND SINGLE       79416021
                                   10142 *                                       PRECISION IN BINARY             79424021
 007402 47C0 FB30      074C0       10143 XH009  BC    XLOEQ,XH008               YES,SET BINARY MODE.             79432021
 007406 47F0 FA0A      0739A       10144        BC    UNCON,XH025                NO                              79440021
                                   10145 *                                                                       79448021

 00740A 9504 D4FB      085C3       10147 XH007    CLI   X1BAS+NX1,XX04            OP1 IS THE ID OPERAND.         79464021
 00740E 47F0 FA72      07402       10148        BC    UNCON,XH009           TEST CONDITION CODE                  79472021
0
                                   10150 *                              MIXED MODE AND ARITH.OPERATION.          79488021
 007412 9508 D56B      08633       10151 XH006    CLI   XFBAS+NX1,XX08            IF RESULT = 2 WORDS            79496021
 007416 4720 FA0A      0739A       10152        BC    XTWO,XH025                 SET ID MODE.                    79504021
 00741A 9128 D482      0854A       10153        TM    XOPMOD,XMUDVF             IS IT A MULT.OR A DIVISION.      79512021
 00741E 4780 FAB2      07442       10154        BC    XZERO,XH030                NO,                             79520021
 007422 4120 FA0A      0739A       10155        LA    XR2,XH025                  YES,LOAD TRANSFER               79528021
 007426 4110 FA9E      0742E       10156        LA    XR1,XH032                  INDEXES.                        79536021
 00742A 47F0 FA24      073B4       10157        BC    UNCON,XH027                IF BOTH OPERAND ARE NOT SIN     79544021
                                   10158 *                                       PRECISION -SET ID MODE-AND      79552021
                                   10159 *                                       THEY ARE AND IF THE RESULT      79560021
 00742E 9504 D56B      08633       10160 XH032    CLI   XFBAS+NX1,XX04            ALSO SINGLE PRECISION TAKE     79568021
 007432 4720 FA36      073C6       10161        BC    XTWO,XH026                 AT XH033,IFNOT TAKE TEST XH     79576021
0
 007436 9102 D484      0854C       10163 XH033  TM    XHINTS,XHDNBI              IF RESULT  USED WITH BINARY     79592021
 00743A 4780 FA0A      0739A       10164        BC    XZERO,XH025                OPERAND IN ANY OPERATION SE     79600021
 00743E 47F0 FB30      074C0       10165        BC    UNCON,XH008                BINARY MODE - ID OTHERWISE      79608021
0
 007442 4110 FAA6      07436       10167 XH030  LA    XR1,XH033                  RELOAD TRANSFER INDEX.          79624021
 007446 9504 D56B      08633       10168          CLI   XFBAS+NX1,XX04            IF RESULT SINGLE PRECISION     79632021
 00744A 47D0 FA30      073C0       10169        BC    XNOGT,XH023           CHECK FUTURE USE                     79640021
 00744E 4120 FAC6      07456       10170        LA    XR2,XH034                  IF RESULT DOUBLE PRECISION      79648021
 007452 47F0 FA24      073B4       10171        BC    UNCON,XH027                BOTH OPERANDS SINGLE TAKE X     79656021
 007456 5730 C8A4      07E34       10172 XH034  X     XR3,XHMK1                  IF RES. DP AND                  79664021
 00745A 4780 FADE      0746E       10173        BC    XZERO,XH035                IF THE ID OPERAND IS DOUBLE     79672021
 00745E 9504 D509      085D1       10174          CLI   X1BBS+NX1,XX04            PRECISON IN ID SET ID          79680021
 007462 4720 FA0A      0739A       10175 XH036  BC    XTWO,XH025                 MODE. BINARY OTHERWISE          79688021
 007466 4110 FA36      073C6       10176          LA    XR1,XH026                                                79696021
 00746A 47F0 FA30      073C0       10177        BC    UNCON,XH023                X                               79704021
 00746E 9504 D541      08609       10178 XH035    CLI   X2BBS+NX1,XX04                                           79712021
 007472 47F0 FAD2      07462       10179        BC    UNCON,XH036                X                               79720021
1         ARITHMETIC / MOVE / SUBSCRIPT  ROUTINES                                                               PAGE  228
-  LOC  OBJECT CODE    ADDR1 ADDR2  STMT   SOURCE STATEMENT                                       ASM 0201 11.03 02/14/15
0                                  10181 *      XH016   -ROUTINE WHICH COLLECTS INFORMATION RELATIVE  TO THE     79736021
                                   10182 *               FUTURE  USE OF THE RESULT OF THE PRESENT OPERATION.     79744021
-
                             07476 10184 XH016  EQU   *                                                          79760021
                                   10185 *                                                                       79768021
                                   10186 *                                                                       79776021
                                   10187 *                                       SET PROPER SWITSH ON IF RES     79784021
 007476 9501 D832      088FA       10188          CLI   DOP4+NX2,XX01       WILL BE USED IN AN ADD, SUBTRACT     79792021
 00747A 47C0 FAFE      0748E       10189        BC    XLOEQ,XH011                A RELATIONAL                    79800021
 00747E 9504 D832      088FA       10190          CLI   DOP4+NX2,XX04                                            79808021
 007482 47C0 FB02      07492       10191        BC    XLOEQ,XH012                X                               79816021
 007486 950B D832      088FA       10192          CLI   DOP4+NX2,XX0B                                            79824021
 00748A 4720 FB02      07492       10193        BC    XTWO,XH012                 X                               79832021
 00748E 9604 D484      0854C       10194 XH011  OI    XHINTS,XHADST              X                               79840021
                             07492 10195 XH012  EQU   *                          SET OTHER SWITCH ON IF RESU     79848021
 007492 9530 D8AC      08974       10196          CLI   DOP5,XGDTN          WILL BE USED WITH A BINARY           79856021
 007496 4780 FB1C      074AC       10197        BC    XZERO,XH013                DATA NAME ,OR A FIGURATIVE      79864021
 00749A 9532 D8AC      08974       10198          CLI   DOP5,XGNLT          CONSTANT OR A LITERAL                79872021
 00749E 4780 FB22      074B2       10199        BC    XZERO,XH014                X                               79880021
 0074A2 9575 D8AC      08974       10200          CLI   DOP5,XGFCT                                               79888021
 0074A6 4780 FB22      074B2       10201        BC    XZERO,XH014                X                               79896021
 0074AA 07FE                       10202        BCR   UNCON,XRSUB           RETURN                               79904021
 0074AC 91B0 D8AF      08977       10203 XH013    TM    DOP5+XGMINC,XXB0                                         79912021
 0074B0 07EE                       10204        BCR   NOTHR,XRSUB           NOT BINARY, RETURN                   79920021
                                   10205 *                                                                       79928021
                                   10206 *                                                                       79936021
 0074B2 9602 D484      0854C       10207 XH014  OI    XHINTS,XHDNBI              X                               79944021
 0074B6 07FE                       10208        BCR   UNCON,XRSUB                X                               79952021
 0074B8                            10209 XH003    DS    0H                                                       79960021
 0074B8 9120 D482      0854A       10210          TM    XOPMOD,XDIVFL       IS THIS A DIVISION OPERATION         79968021
 0074BC 4710 FA7A      0740A       10211          BO    XH007               YES                                  79976021
 0074C0 9504 D509      085D1       10212 XH008    CLI   X1BBS+NX1,XX04            CHECK IF ONE OF THE OPERAND    79984021
 0074C4 4720 FB5C      074EC       10213        BC    XTWO,XHZ00                 WILL NEED A SCALING IN DP.      79992021
 0074C8 9509 D50F      085D7       10214          CLI   X1ALP+NX1,XX09            IF YES,GO TO ID MODE. IF NO    80000021
 0074CC 4720 FA0A      0739A       10215        BC    XTWO,XH025                 SET BINARY MODE                 80008021
 0074D0 9504 D541      08609       10216 XHZ02    CLI   X2BBS+NX1,XX04            X                              80016021
 0074D4 4720 FB68      074F8       10217        BC    XTWO,XHZ01                 X                               80024021
 0074D8 9509 D547      0860F       10218          CLI   X2ALP+NX1,XX09            X                              80032021
 0074DC 4720 FA0A      0739A       10219        BC    XTWO,XH025                 X                               80040021
 0074E0 9512 D56D      08635       10220 XHZ03    CLI   XFFAS+NX1,XX12                                           80048021
 0074E4 4720 FA0A      0739A       10221        BC    XTWO,XH025            RESULT > 18 DIGITS                   80056021
                                   10222 *                                                                       80064021
 0074E8 47F0 FA0E      0739E       10223        BC    UNCON,XHEXI                X                               80072021
 0074EC 9500 D50F      085D7       10224 XHZ00    CLI   X1ALP+NX1,XX00                                           80080021
 0074F0 47D0 FB40      074D0       10225        BC    XNOGT,XHZ02                X                               80088021
 0074F4 47F0 FA0A      0739A       10226        BC    UNCON,XH025                X                               80096021
 0074F8 9500 D547      0860F       10227 XHZ01    CLI   X2ALP+NX1,XX00                                           80104021
 0074FC 47D0 FB50      074E0       10228        BC    XNOGT,XHZ03                X                               80112021
 007500 47F0 FA0A      0739A       10229        BC    UNCON,XH025                X                               80120021
1         ARITHMETIC / MOVE / SUBSCRIPT  ROUTINES                                                               PAGE  229
-  LOC  OBJECT CODE    ADDR1 ADDR2  STMT   SOURCE STATEMENT                                       ASM 0201 11.03 02/14/15
0                            07504 10231        USING   *,HCOMSR                                                 80136021
 007504 50E0 C6BC      07C4C       10232 DICNOQ ST      RETRG,SVDIS6                                             80144021
 007508 9208 D189      08251       10233          MVI   IMM,XX08             CODE FOR '2,4' FOR CNOP             80152021
 00750C 45E0 BDC4      02454       10234        BAL     RETRG,CNOP              GEN...   CNOP    2,4             80160021
 007510 58E0 C6BC      07C4C       10235        L       RETRG,SVDIS6                                             80168021
 007514 58F0 C71C      07CAC       10236        L     XRVAR,SVWJH7          DICNOP                               80176021
 007518 07FE                       10237        BCR   UNCOND,RETRG          RETURN TO CALLER                     80184021
                             0751A 10238        USING   *,HCOMSR                                                 80192021
 00751A 50E0 C6BC      07C4C       10239 DIBALQ ST      RETRG,SVDIS6                                             80200021
                                   10240 *  UPON ENTRY, RW3 POINTS TO LAST 4 CHAR OF VIRT. XREG1 ALREADY SET     80208021
 00751E D507 D158 C370 08220 07900 10241          CLC   GVIRT1(LX8),GZERO    VIRT ALREADY SET UP...              80216021
 007524 4770 F01A      07534       10242        BC    NOTEQ,DIBA01           YES, USE IT                         80224021
 007528 D203 D158 C914 08220 07EA4 10243          MVC   GVIRT1(LX4),VIRTHD   FIRST 4 CHAR OF VIRT                80232021
 00752E D203 D15C 3000 08224 00000 10244          MVC   GVIRT1+NX4(LX4),DX0(RW3) LAST 4 CHAR OF VIRT             80240021
                             07534 10245 DIBA01 EQU   *                                                          80248021
 007534 D201 D156 A162 0821E 00162 10246          MVC   VIRTC1+NX2(LX2),VIRCTR SET VIRTUAL NUMBER                80256021
 00753A 4330 D188      08250       10247        IC    RW3,XREG1             SAVE XREG1 FOR BALR                  80264021
 00753E 950D D188      08250       10248          CLI   XREG1,XX0D                                               80272021
 007542 4720 F05E      07578       10249        BC    HI,DIBAQ1             REG 14 OR 15 ...                     80280021
 007546 5040 C778      07D08       10250        ST    RW4,SVWJHP            PRESERVE REG'S OVER XFREER           80288021
 00754A 4230 D48A      08552       10251        STC   RW3,XREGNO             NO, FREE UP REG                     80296021
 00754E 45E0 838A      011BA       10252        BAL   RETRG,XFREER          FREE REGISTERS                       80304021
 007552 5840 C778      07D08       10253        L     RW4,SVWJHP            PRESERVE REG'S OVER XFREER           80312021
                             07556 10254 DIBAQ2 EQU   *                                                          80320021
 007556 920F D188      08250       10255          MVI   XREG1,XX0F                                               80328021
 00755A 45E0 B000      01690       10256        BAL   RETRG,LOAD            *    L    15,VIRTUAL                 80336021
 00755E 4230 D188      08250       10257        STC   RW3,XREG1             RESTORE XREG1 FOR BALR               80344021
 007562 920F D1D0      08298       10258          MVI   XREG2,XX0F                                               80352021
 007566 45E0 BC7A      0230A       10259        BAL   RETRG,BAL             *    BALR X,15  WHERE X = 1 OR 1     80360021
 00756A 45E0 8820      01650       10260          BAL   RETRG,GDES15        DESTROY REGISTERS                    80368021
 00756E 58E0 C6BC      07C4C       10261        L       RETRG,SVDIS6                                             80376021
 007572 58F0 C720      07CB0       10262        L     XRVAR,SVWJH8           DIBALR                              80384021
 007576 07FE                       10263        BCR     UNCOND,RETRG        RETURN TO CALLER                     80392021
 007578 4230 D685      0874D       10264 DIBAQ1 STC   RW3,A48CH1                                                 80400021
 00757C 9230 D683      0874B       10265        MVI   A48CH2,MDESTR                                              80408021
 007580 45E0 87C4      015F4       10266        BAL   RETRG,GATXTV          *                                    80416021
 007584 0000                       10267        DC    AL2(ATXT48-ATXTBV)    *MACRO CODING GENERATION             80424021
 007586 0004                       10268        DC    AL2(ZTXT48-ATXT48)    *                                    80432021
 007588 47F0 F03C      07556       10269        BC    UNCOND,DIBAQ2         GENERATE LOAD AND BALR               80440021
1         CONSTANTS FOR PH5CTL AND ARITHMETIC VERBS                                                             PAGE  230
-  LOC  OBJECT CODE    ADDR1 ADDR2  STMT   SOURCE STATEMENT                                       ASM 0201 11.03 02/14/15
0                                  10271 *=1   CONSTANT AREA.                                                    80456021
                                   10272 *                                                                       80464021
                                   10273 *                                                                       80472021
 007590                            10274 IKF504 CSECT                                                            80480021
                             07590 10275 COMON4 EQU     *                                                        80488021
                             07590 10276        USING *,XRCONS                                                   80496021
 007590                            10277 ZAPZAP DS    100F     ************ USE FOR SUPERZAP ************        80504021
 007720 00000000                   10278 COSADR DC    A(0)                                                       80512021
                                   10279 ******** VERB TRANSFER VECTOR TABLE ** KEEP TOGETHER ****************** 80520021
 007724 0000376A                   10280 ADCN00   DC    A(XOTADD)           ADCN00                               80528021
 007728 00003770                   10281          DC    A(XOTSUB)           ADCN01                               80536021
 00772C 00002CB6                   10282 ADCN02   DC    A(XOTMUL)           ADCN02                               80544021
 007730 00003300                   10283 ADCN03   DC    A(XOTDIV)           ADCN03                               80552021
 007734 00002EB0                   10284          DC    A(EXPONE)           ADCN04                               80560021
 007738 00005834                   10285          DC    A(STOREE)           ADCN05                               80568021
 00773C 00004008                   10286          DC    A(PEQNUM)           ADCN06                               80576021
 007740 00004024                   10287          DC    A(NEQNUM)           ADCN07                               80584021
 007744 00004040                   10288          DC    A(PGTNUM)           ADCN08                               80592021
 007748 0000405C                   10289          DC    A(NGTNUM)           ADCN09                               80600021
 00774C 00004078                   10290          DC    A(PLTNUM)           ADCN0A                               80608021
 007750 00004094                   10291          DC    A(NLTNUM)           ADCN0B                               80616021
 007754 000003BA                   10292          DC    A(PALFA)            ADCN0C                               80624021
 007758 000003BA                   10293          DC    A(NALFA)            ADCN0D                               80632021
 00775C 000003BA                   10294          DC    A(PNUMRC)           ADCN0E                               80640021
 007760 000003BA                   10295 ADCN0F   DC    A(NNUMRC)           ADCN0F                               80648021
 007764 000003BA                   10296          DC    A(STOP)             ADCN10                               80656021
 007768 000003BA                   10297          DC    A(GO)               ADCN11                               80664021
 00776C 000003BA                   10298          DC    A(GODEP1)           ADCN12                               80672021
 007770 000003BA                   10299          DC    A(GODEPM)           ADCN13                               80680021
 007774 000003BA                   10300          DC    A(GODEPL)           ADCN14                               80688021
 007778 000025E8                   10301          DC    A(XEVAL)            ADCN15                               80696021
 00777C 000003BA                   10302          DC    A(PEQNNU)           ADCN16                               80704021
 007780 000003BA                   10303          DC    A(NEQNNU)           ADCN17                               80712021
 007784 000003BA                   10304          DC    A(PGTNNU)           ADCN18                               80720021
 007788 000003BA                   10305          DC    A(NGTNNU)           ADCN19                               80728021
 00778C 000003BA                   10306          DC    A(PLTNNU)           ADCN1A                               80736021
 007790 000003BA                   10307          DC    A(NLTNNU)           ADCN1B                               80744021
 007794 000003BA                   10308          DC    A(MOVE4)            ADCN1C                               80752021
 007798 00004450                   10309 ADCN1D   DC    A(MOVE)             ADCN1D                               80760021
 00779C 000003BA                   10310          DC    A(EXAMIN)           ADCN1E                               80768021
 0077A0 000003BA                   10311          DC    A(TRANSF)           ADCN1F                               80776021
 0077A4 000003BA                   10312 ADCN20   DC    A(READ)             ADCN20                               80784021
 0077A8 000003BA                   10313 ADCN21   DC    A(OPEN)             ADCN21                               80792021
 0077AC 000003BA                   10314          DC    A(CLOSE)            ADCN22                               80800021
 0077B0 00003FE0                   10315 ADCN23   DC    A(WRITE)            ADCN23                               80808021
 0077B4 00003FE0                   10316          DC    A(REWRIT)           ADCN24                               80816021
 0077B8 000003BA                   10317          DC    A(ACCEPT)           ADCN25                               80824021
 0077BC 000003BA                   10318          DC    A(DISPLA)           ADCN26                               80832021
 0077C0 000003BA                   10319          DC    A(EXHIBI)           ADCN27                               80840021
 0077C4 000003BA                   10320          DC    A(RESET)            ADCN28                               80848021
 0077C8 000003BA                   10321          DC    A(READY)            ADCN29                               80856021
 0077CC 000003BA                   10322          DC    A(RETURN)           ADCN2A                               80864021
 0077D0 000003BA                   10323          DC    A(ON)               ADCN2B                               80872021
 0077D4 000003BA                   10324          DC    A(ENTRY)            ADCN2C                               80880021
 0077D8 000003BA                   10325 ADCN2D   DC    A(CALL)             ADCN2D                               80888021
1         CONSTANTS FOR PH5CTL AND ARITHMETIC VERBS                                                             PAGE  231
-  LOC  OBJECT CODE    ADDR1 ADDR2  STMT   SOURCE STATEMENT                                       ASM 0201 11.03 02/14/15
00077DC 000003BA                   10326          DC    A(ENTER)            ADCN2E                               80896021
 0077E0 0000000A                   10327          DC    A(PH5CTL)           ADCN2F                               80904021
 0077E4 0000000A                   10328          DC    A(PH5CTL)           ADCN30                               80912021
 0077E8 000003BA                   10329          DC    A(USE)              ADCN31                               80920021
 0077EC 000003BA                   10330          DC    A(EXIT)             ADCN32                               80928021
 0077F0 000003BA                   10331          DC    A(RPTNOP)           ADCN33                               80936021
 0077F4 0000000A                   10332          DC    A(PH5CTL)           ADCN34                               80944021
 0077F8 0000000A                   10333          DC    A(PH5CTL)           ADCN35                               80952021
 0077FC 000003BA                   10334          DC    A(SORT)             ADCN36                               80960021
 007800 000003BA                   10335          DC    A(RELEES)           ADCN37                               80968021
 007804 000003BA                   10336          DC    A(PERFOR)           ADCN38                               80976021
 007808 000026AE                   10337 ADCN39   DC    A(SSCRPT)           ADCN39                               80984021
 00780C 000003BA                   10338          DC    A(LINKK)            ADCN3A                               80992021
 007810 000003BA                   10339          DC    A(ADEBUG)           ADCN3B                               81000021
 007814 0000000A                   10340          DC    A(PH5CTL)           ADCN3C                               81008021
 007818 000003BA                   10341          DC    A(TRACE)            ADCN3D                               81016021
 00781C 000003BA                   10342          DC    A(EQUATE)           ADCN3E                               81024021
 007820 0000000A                   10343          DC    A(PH5CTL)           ADCN3F MOVE1(RPT WRITER)             81032021
 007824 000003BA                   10344          DC    A(QINITV)           ADCN40                               81040021
 007828 000003BA                   10345          DC    A(QINCRA)           ADCN41                               81048021
 00782C 000003BA                   10346          DC    A(QSTEPV)           ADCN42                               81056021
 007830 000003BA                   10347 ADCN43   DC    A(QUPDAT)           ADCN43                               81064021
 007834 000003BA                   10348          DC    A(USE5)             ADCN44                               81072021
 007838 000003BA                   10349          DC    A(ENDUS5)           ADCN45                               81080021
 00783C 000003BA                   10350          DC    A(USE1)             ADCN46                               81088021
 007840 000003BA                   10351          DC    A(ENDUS1)           ADCN47                               81096021
 007844 0000000A                   10352          DC    A(PH5CTL)           ADCN48                               81104021
 007848 0000000A                   10353          DC    A(PH5CTL)           ADCN49                               81112021
 00784C 0000000A                   10354          DC    A(PH5CTL)           ADCN4A USE4(RPT DECL)                81120021
 007850 000003BA                   10355          DC    A(ENDUS4)           ADCN4B END USE BEFORE REPTING        81128021
 007854 000003BA                   10356          DC    A(QCALLV)           ADCN4C                               81136021
 007858 000003BA                   10357          DC    A(QRET2V)           ADCN4D                               81144021
 00785C 000003BA                   10358          DC    A(QRETUV)           ADCN4E                               81152021
 007860 000003BA                   10359          DC    A(RPTCAL)           ADCN4F                               81160021
 007864 000003BA                   10360          DC    A(RPTSV)            ADCN50                               81168021
 007868 000003BA                   10361          DC    A(RPTSV)            ADCN51                               81176021
 00786C 000003BA                   10362          DC    A(RPTSV)            ADCN52                               81184021
 007870 000003BA                   10363          DC    A(RPTSV)            ADCN53                               81192021
 007874 000003BA                   10364          DC    A(RPTSV)            ADCN54                               81200021
 007878 000003BA                   10365          DC    A(RPTSV)            ADCN55                               81208021
 00787C 000003BA                   10366          DC    A(RPTRET)           ADCN56                               81216021
 007880 000003BA                   10367          DC    A(RPTRET)           ADCN57                               81224021
 007884 000003BA                   10368          DC    A(RPTRET)           ADCN58                               81232021
 007888 000003BA                   10369          DC    A(RPTRET)           ADCN59                               81240021
 00788C 000003BA                   10370          DC    A(RPTRET)           ADCN5A                               81248021
 007890 000003BA                   10371          DC    A(RPTRET)           ADCN5B                               81256021
 007894 000003BA                   10372          DC    A(RPTORG)           ADCN5C                               81264021
 007898 000003BA                   10373          DC    A(RPTRRG)           ADCN5D                               81272021
                                   10374 *                                                                       81280021
 00789C 00003BA0                   10375          DC    A(SEARCHAL)         ADCN5E                               81288021
 0078A0 00003F2A                   10376          DC    A(ENDSCHAL)         ADCN5F                               81296021
 0078A4 000003BA                   10377          DC    A(SET1)             ADCN60                               81304021
 0078A8 000003BA                   10378          DC    A(SET2UP)           ADCN61                               81312021
 0078AC 0000000A                   10379          DC    A(PH5CTL)           ADCN62                               81320021
 0078B0 0000000A                   10380          DC    A(PH5CTL)           ADCN63                               81328021
1         CONSTANTS FOR PH5CTL AND ARITHMETIC VERBS                                                             PAGE  232
-  LOC  OBJECT CODE    ADDR1 ADDR2  STMT   SOURCE STATEMENT                                       ASM 0201 11.03 02/14/15
00078B4 000003BA                   10381          DC    A(START)            ADCN64                               81336021
 0078B8 0000000A                   10382          DC    A(PH5CTL)           ADCN65                               81344021
 0078BC 000041F2                   10383          DC    A(IFINEQUA)         ADCN66                               81352021
 0078C0 000041FE                   10384          DC    A(IFINNEQU)         ADCN67                               81360021
 0078C4 0000420A                   10385          DC    A(IFINGREA)         ADCN68                               81368021
 0078C8 00004216                   10386          DC    A(IFINNGRE)         ADCN69                               81376021
 0078CC 00004222                   10387          DC    A(IFINLESS)         ADCN6A                               81384021
 0078D0 0000422E                   10388          DC    A(IFINNLES)         ADCN6B                               81392021
 0078D4 000003BA                   10389          DC    A(VIRTDEF)          ADCN6C                               81400021
 0078D8 00003CB6                   10390          DC    A(EQUSCHR)          ADCN6D                               81408021
 0078DC 000003BA                   10391          DC    A(SET2DOWN)         ADCN6E                               81416021
 0078E0 000003BA                   10392          DC    A(SEGCAL)           ADCN6F                               81424021
 0078E4 0000000A                   10393          DC    A(PH5CTL)           ADCN70                               81432021
 0078E8 000003BA                   10394          DC    A(READCHCK)         ADCN71                               81440021
 0078EC 000003BA                   10395 ADCN72   DC    A(WRITCHCK)         ADCN72                               81448021
 0078F0 000003BA                   10396 ADCN73   DC    A(GOBACK)           ADCN73                               81456021
 0078F4 000003BA                   10397        DC    A(EXITPGM)                 ADCN74                          81464021
 0078F8 0000000A                   10398          DC    A(PH5CTL)           ADCN75                               81472021
                                   10399 *                                                                       81480021
                                   10400 *                                                                       81488021
 0078FC 000050C8                   10401 ARPMOV DC    A(RPMOVE)                                                  81496021
                                   10402 *                                                                       81504021
 007900                            10403        DS    0F                                                         81512021
 007900 0000000000000000           10404 GZERO  DC    XL15'0'                                                    81520021
 00790F 0000000000000000           10405        DC    XL15'0'                                                    81528021
 00791E 0000000000000000           10406        DC      XL15'0'                                                  81536021
 00792D 0000000000000000           10407        DC    XL15'0'                                                    81544021
 00793C 00000001                   10408 FW001    DC    F'1'                FULL WORD CONSTANT = 1               81552021
 007940 00000002                   10409 FW002    DC    F'2'                FULL WORD CONSTANT = 2               81560021
 007944 00001000                   10410 FW4096 DC    F'4096'                                                    81568021
                                   10411 *                                                                       81576021
                                   10412 *                                                                       81584021
 007948 00000004                   10413 GFOUR  DC    F'4'                                                       81592021
 00794C 0014                       10414 G20    DC      XL2'14'                                                  81600021
                                   10415 *                                                                       81608021
 007950                            10416        DS      0F                                                       81616021
 007950 000032767C                 10417 GHFHI  DC    X'000032767C'   MAXIMUM BINARY HALFWORD VALUE              81624021
 007955 000032768D                 10418 GHFLO  DC    X'000032768D'   MINIMUM BINARY HALFWORD VALUE              81632021
 00795A 0000000002147483           10419 GFLHI  DC    X'0000000002147483647C'  MAXIMUM BINARY FULLWORD VALUE     81640021
 007964 0000000002147483           10420 GFLLO  DC    X'0000000002147483648D'  MINIMUM BINARY FULLWORD VALUE     81648021
 00796E 0000
 007970 3B9ACA00                   10421 TENPW9 DC    F'1000000000'   10 TO THE NINTH POWER                      81656021
 007974 4420                       10422 G4420  DC    X'4420'                                                    81664021
 007976 4206                       10423 G4206  DC    X'4206'                                                    81672021
                                   10424 *                                                                       81680021
                                   10425 *        SAVE AREAS - PRESERVE INDEXES FOR SUBROUTINES                  81688021
                                   10426 **********************************                                      81696021
 007978                            10427 SVWJHE DS    4D                   USED BY MUTUALLY EXCLUSIVE IO SR'     81704021
 007998                            10428 XGSAV1 DS    16F                   X                                    81712021
 0079D8                            10429 XGSAV2 DS    16F                   X                                    81720021
 007A18                            10430 XGSAV3 DS    16F                   X                                    81728021
 007A58                            10431 XGSAV4 DS    16F                   X                                    81736021
 007A98                            10432 XGSAV5 DS    16F                   X                                    81744021
 007AD8                            10433 XGSAV6 DS    16F                   X                                    81752021
 007B18                            10434 XGSAV7 DS    16F                   X                                    81760021
1         CONSTANTS FOR PH5CTL AND ARITHMETIC VERBS                                                             PAGE  233
-  LOC  OBJECT CODE    ADDR1 ADDR2  STMT   SOURCE STATEMENT                                       ASM 0201 11.03 02/14/15
0007B58                            10435 XGSAV8 DS    16F                   X                                    81768021
 007B98                            10436 XESAV DS     16F                   X                                    81776021
 007BD8                            10437 XVARS1 DS    1F                    X                                    81784021
 007BDC                            10438 XVARS2 DS    1F                    X                                    81792021
 007BE0                            10439 XVARS3 DS    1F                    X                                    81800021
 007BE4                            10440 XVARS4 DS    1F                    X                                    81808021
 007BE8                            10441 XVARS5 DS    1F                    X                                    81816021
                                   10442 **********************************                                      81824021
                                   10443 *                                                                       81832021
                                   10444 *          REGISTER SAVERS                                              81840021
 007BEC                            10445 SVDIS1 DS    7F                    X                                    81848021
 007C08                            10446 SVDIS2 DS    6F                    X                                    81856021
 007C20                            10447 SVDIS3 DS    4F                    X                                    81864021
 007C30                            10448 SVDIS4 DS    1F                    X                                    81872021
 007C34                            10449 SVDIS5 DS    6F                    X                                    81880021
 007C4C                            10450 SVDIS6 DS    1F                    X                                    81888021
 007C50                            10451 SVGETD DS    16F                  GETDOP SAVER                          81896021
 007C90                            10452 SVGETS DS    1F                   SAVE GETSW RW2                        81904021
 007C94                            10453 SVWJH1 DS    1F                    X                                    81912021
 007C98                            10454 SVWJH2 DS    1F                    X                                    81920021
 007C9C                            10455 SVWJH3 DS    1F                    X                                    81928021
 007CA0                            10456 SVWJH4 DS    1F                    X                                    81936021
 007CA4                            10457 SVWJH5 DS    1F                    X                                    81944021
 007CA8                            10458 SVWJH6 DS    1F                    X                                    81952021
 007CAC                            10459 SVWJH7 DS    1F                    X                                    81960021
 007CB0                            10460 SVWJH8 DS    1F                    X                                    81968021
 007CB4                            10461 SVWJH9 DS    1F                    X                                    81976021
 007CB8                            10462 SVWJHA DS    1F                    X                                    81984021
 007CBC                            10463 SVWJHB DS    1F                    X                                    81992021
 007CC0                            10464 SVWJHC DS    1F                    X                                    82000021
 007CC4                            10465 SVWJHD DS    1F                    X                                    82008021
 007CC8                            10466 SVWJHG DS    1F                    X                                    82016021
 007CCC                            10467 SVWJHH DS    1F                    X                                    82024021
 007CD0                            10468 SVWJHI DS    7F                   SAVER FOR ADETER                      82032021
 007CEC                            10469 SVWJHJ DS    1F                    X                                    82040021
 007CF0                            10470 SVWJHK DS    1F                    X                                    82048021
 007CF4                            10471 SVWJHL DS    2F                    X                                    82056021
 007CFC                            10472 SVWJHM DS    1F                    X                                    82064021
 007D00                            10473 SVWJHN DS    1F                    X                                    82072021
 007D04                            10474 SVWJHO DS    1F                    X                                    82080021
 007D08                            10475 SVWJHP DS    7F                   SAVE REG'S OVER XFREER                82088021
 007D24                            10476 SVWJHQ DS    3F                    X                                    82096021
 007D30                            10477 SVWJHR   DS    8F                                                       82104021
 007D50                            10478 SVWJHS DS    2F                    X                                    82112021
 007D58                            10479 SVWJHT DS    1F                    X                                    82120021
 007D5C                            10480 SVWJHU DS    1F                   SAVER FRO REGMAC RTN                  82128021
 007D60                            10481 SVSO14 DS    6F                   CALCLG SAVER                          82136021
 007D78                            10482 SVGATX DS  6F                      X                                    82144021
 007D90                            10483 DWB      DS    1D                      I/O SAVE AREA                    82152021
 007D98                            10484 CLSSV  DS    1F                    X                                    82160021
1         CONSTANTS FOR PH5CTL AND ARITHMETIC VERBS                                                             PAGE  234
-  LOC  OBJECT CODE    ADDR1 ADDR2  STMT   SOURCE STATEMENT                                       ASM 0201 11.03 02/14/15
0                                  10486 *=1  CONSTANT AREA FOR ARITHMETIC.                                      82176021
 007D9C 9F                         10487 XGNEUF DC    X'9F'            9 IN PACK DECIMAL .                       82184021
 007D9D 010F                       10488 XGTEN  DC    X'010F'          10 INPACK DECIMAL .                       82192021
 007D9F 0F                         10489 XINDCZ DC    X'0F'            0  INPACK DECIMAL .                       82200021
 007DA0 5F                         10490 XIDCNQ DC    X'5F'           5 IN PACK DECIMAL.                         82208021
 007DA1 1C                         10491 XIDONE DC    X'1C'                 1 IN PACKED DEC                      82216021
                                   10492 *                                                                       82224021
                             07952 10493 XIHAF  EQU   GHFHI+2                                                    82232021
                             0795E 10494 XI1WO  EQU   GFLHI+4                                                    82240021
 007DA2 9223372036854775           10495 XI2WO  DC    X'9223372036854775807F'          - DOUBLE WORD  -          82248021
 007DAC 0999999999999999           10496 XC9999 DC    X'0999999999999999999999999999999F'   MAX. IR PERMITED     82256021
 007DBC 300B00B0300D4C04           10497 XTALLV DC    X'300B00B0300D4C040005FFFFFF'                              82264021
 007DC9 00                         10498 REG      DC    X'00'                                              51894 82272021
 007DCA 00                         10499 XRESTGSW DC    X'00'                                              51894 82280021
 007DCB 320607                     10500 SCHLITX  DC    X'320607'                                          51894 82288021
0
 007DCE 00                         10502 XITAB  DC    X'00'            TRT TABLE  FOR XIDSZ ROUTINE.             82304021
 007DCF 01                         10503        DC    X'01'            X                                         82312021
 007DD0 02                         10504        DC    X'02'            X                                         82320021
 007DD1 03                         10505        DC    X'03'            X                                         82328021
 007DD2 04                         10506        DC    X'04'            X                                         82336021
 007DD3 05                         10507        DC    X'05'            X                                         82344021
 007DD4 06                         10508        DC    X'06'            X                                         82352021
 007DD5 07                         10509        DC    X'07'            X                                         82360021
 007DD6 08                         10510        DC    X'08'            X                                         82368021
 007DD7 09                         10511        DC    X'09'            X                                         82376021
 007DD8 0A                         10512        DC    X'0A'            X                                         82384021
 007DD9 0B                         10513        DC    X'0B'            X                                         82392021
 007DDA 0C                         10514        DC    X'0C'            X                                         82400021
 007DDB 0D                         10515        DC    X'0D'            X                                         82408021
 007DDC 0E                         10516        DC    X'0E'            X                                         82416021
 007DDD 0F                         10517        DC    X'0F'            X                                         82424021
                                   10518 *******************************                                         82432021
                                   10519 *      INTEGER  CONSTANTS                                               82440021
                                   10520 *DEL                                                               5189 82448021
 007DDE 0000
 007DE0 0000000000000000           10521 XC000  DC    4F'0'                 FOUR FULL WORDS OF 0                 82456021
                             0793E 10522 XC001  EQU   FW001+2               HALF WD = 1                          82464021
                             07942 10523 XC002  EQU   FW002+2               HALF WD = 2                          82472021
 007DF0 0003                       10524 XC003  DC    1H'3'                 HALF WD = 3                          82480021
                             0794A 10525 XC004  EQU   GFOUR+2               HALF WD = 4                          82488021
 007DF2 0005                       10526 XC005  DC    1H'5'                                                      82496021
 007DF4 0006                       10527 XC006  DC    1H'6'                                                      82504021
 007DF6 0007                       10528 XC007  DC    1H'7'                                                      82512021
 007DF8 0008                       10529 XC008  DC    1H'8'                                                      82520021
 007DFA 0009                       10530 XC009  DC    1H'9'                                                      82528021
 007DFC 000A                       10531 XC010  DC    1H'10'                                                     82536021
 007DFE 000B                       10532 XC011  DC    1H'11'                                                     82544021
 007E00 000C                       10533 XC012  DC    1H'12'                                                     82552021
 007E02 000E                       10534 XC014  DC    1H'14'                                                     82560021
 007E04 000F                       10535 XC015  DC    1H'15'                                                     82568021
 007E06 0010                       10536 XC016  DC    1H'16'                                                     82576021
 007E08 0012                       10537 XC018  DC    1H'18'                                                     82584021
 007E0A 001C                       10538 XC028  DC    H'0028'                                                    82592021
1         CONSTANTS FOR PH5CTL AND ARITHMETIC VERBS                                                             PAGE  235
-  LOC  OBJECT CODE    ADDR1 ADDR2  STMT   SOURCE STATEMENT                                       ASM 0201 11.03 02/14/15
0007E0C 001D                       10539 XC029  DC    1H'29'                                                     82600021
 007E0E 001E                       10540 XC030  DC    1H'30'                                                     82608021
 007E10 0020                       10541 XC032  DC    1H'32'                                                     82616021
 007E12 003C                       10542 XC060  DC    1H'60'                                                     82624021
 007E14 007A                       10543 XC0122   DC    1H'122'                                                  82632021
 007E16 00FF                       10544 XC0255   DC    1H'255'                                                  82640021
 007E18 0FFF                       10545 XC4095 DC    1H'4095'                                                   82648021
                             07946 10546 XC4096 EQU   FW4096+2              HALF WD = 4096                       82656021
                                   10547 ******************************                                          82664021
                             07942 10548 GTWO   EQU   XC002                                                      82672021
                             07DF0 10549 GTHREE EQU   XC003                                                      82680021
                             07DF2 10550 GFIVE  EQU   XC005                                                      82688021
                             07DF6 10551 GSEVEN EQU   XC007                                                      82696021
                             07E06 10552 GSXTEN EQU   XC016                                                      82704021
0
 007E1A FFFF                       10554 XMINON DC    1H'-1'                HALF WD                              82720021
 007E1C FFFE                       10555 XMINTW DC    1H'-2'                NEGATIVE                             82728021
 007E1E FFFD                       10556 XMINTH DC    1H'-3'                CONSTANTS                            82736021
 007E20 FFFC                       10557 XMINFO DC    1H'-4'                                                     82744021
 007E22 FFFB                       10558 XMINFV DC    1H'-5'                                                     82752021
 007E24                            10559 XLEN1    DS    1H                                                       82760021
 007E26                            10560 XLEN2    DS    1H                  LGTH RECEIV FLD IN ALPHA MVE         82768021
 007E28 00                         10561 SAVTYP   DC    X'00'               RECEIV FLD DATA TYPE-ALPHA MVE       82776021
0
                                   10563 ******************************                                          82792021
                                   10564 *      VARIOUS MASKS                                                    82800021
 007E2C                            10565        DS    0F                                                         82808021
 007E2C 00FFFFFF                   10566 XEMK1  DC    X'00FFFFFF'                                                82816021
 007E30 000000F0                   10567 XIMK1  DC    X'000000F0'                                                82824021
 007E34 B0000000                   10568 XHMK1  DC    X'B0000000'      BINARY MASK.                              82832021
                                   10569 *                                                                       82840021
                                   10570 *                                                                       82848021
 007E38 80000000                   10571 XSUMK1 DC    1X'80000000'                                               82856021
                                   10572 *DEL                                                               4430 82864021
 007E3C 00F00000                   10573 XSUMK3 DC    1X'00F00000'                                               82872021
 007E40 00800000                   10574 XSUMK4 DC    1X'00800000'                                               82880021
 007E44 00000F                     10575 XSUMK5 DC    1X'00000F'                                                 82888021
 007E47 000080                     10576 XREMK6 DC    X'000080'                                                  82896021
-
-
-

                                   10578 *      VARIOUS  ADCON .                                                 82912021
                                   10579 *                                                                       82920021
                                   10580 *                                                                       82928021
 007E4A 0000
 007E4C 00006990                   10581 XSSDB2 DC    A(XSSBG2)                                                  82936021
1         CONSTANTS FOR PH5CTL AND ARITHMETIC VERBS                                                             PAGE  236
-  LOC  OBJECT CODE    ADDR1 ADDR2  STMT   SOURCE STATEMENT                                       ASM 0201 11.03 02/14/15
0007E50 000085B0                   10582 XAVAL1 DC    A(XVAL1)         ADDRESSES OF OPERAND INFOR. BUFFERS.      82944021
 007E54 000085E8                   10583 XAVAL2 DC    A(XVAL2)         X                                         82952021
 007E58 00008784                   10584 XAOPE1   DC    A(DOP1)             INPUT BUFFER ADDRESSES               82960021
 007E5C 00008800                   10585 XAOPE2   DC    A(DOP2)                                                  82968021
 007E60 0000887C                   10586 XAOPE3   DC    A(DOP3)                                                  82976021
 007E64 000088F8                   10587 XAOPE4   DC    A(DOP4)                                                  82984021
 007E68 00008974                   10588 XAOPE5   DC    A(DOP5)                                                  82992021
 007E6C 00003ED4                   10589 AIMINIT0 DC    A(IMINIT0)                                               83000021
0
 007E70 00003774                   10591 XATADD DC    A(XOTDDD)                                                  83016021
 007E74 00005D38                   10592 FPALOD DC    A(FPLLOD)                                                  83024021
 007E78 000059C8                   10593 XASETV DC    A(XSETVL)                                                  83032021
                                   10594 *                                                                       83040021
                                   10595 *                                                                       83048021
                                   10596 *                                                                       83056021
 007E7C 000003BA                   10597 XALAMA   DC    A(PH5BVB)               ADCON                            83064021
 007E80 000040B2                   10598 XCAMPR DC    A(XCOMBG)                                                  83072021
                                   10599 *                                                                       83080021
0
                                   10601 *      TAMER PARAMETER LIST                                             83096021
                                   10602 *                                                                       83104021
 007E84                            10603        DS    0F                                                         83112021
                             07E84 10604 XAAVAL EQU   *                                                          83120021
 007E84 02                         10605 PARAV  DC    X'02'            AVAIL. TABLE  PARAM.LIST FOR PRIME.       83128021
 007E85 00001C                     10606        DC    AL3(XAVAL)       X                                         83136021
 007E88 0190                       10607        DC    X'0190'          X                                         83144021
 007E8A 0028                       10608        DC    X'0028'          X                                         83152021
0
                             07E8C 10610 XAINTR EQU   *                                                          83168021
 007E8C 20                         10611 PARAM  DC    X'20'            INT. RES. TABLE PARAM.LIST FOR PRIME.     83176021
 007E8D 000014                     10612        DC    AL3(XINTR)       X                                         83184021
 007E90 0C80                       10613        DC    X'0C80'          X                                         83192021
 007E92 0280                       10614        DC    X'0280'          X                                         83200021
0
                             07E94 10616 XASCRP EQU   *                                                          83216021
 007E94 00                         10617 XLPSUB DC    X'00'                      SUBSCRIPT TABLE.                83224021
 007E95 000024                     10618        DC    AL3(XSCRPT)           TIB NUMBER                           83232021
 007E98 07D0                       10619        DC    1H'2000'              LENGTH FOR PRIMING TBL               83240021
 007E9A 03E8                       10620        DC    1H'1000'              GROWTH FACTOR                        83248021
0
                             07E9C 10622 XASNT  EQU   *                                                          83264021
 007E9C 04                         10623 XLSSPT DC    X'04'                      SUBS ID-TABLE.                  83272021
 007E9D 00002C                     10624        DC    AL3(XSSNT)            X                                    83280021
 007EA0 0190                       10625        DC    1H'400'               X                                    83288021
 007EA2 00C8                       10626        DC    1H'200'               X                                    83296021
1         CONSTANTS FOR PH5CTL AND ARITHMETIC VERBS                                                             PAGE  237
-  LOC  OBJECT CODE    ADDR1 ADDR2  STMT   SOURCE STATEMENT                                       ASM 0201 11.03 02/14/15
0                                  10628 *        NON-ARITHMETIC CONSTANT AREA                                   83312021
                                   10629 *                                                                       83320021
 007EA4 C9D3C2D6                   10630 VIRTHD DC    C'ILBO'              FIRST 4 CHAR OF ALL SUBROUTINES       83328021
 007EA8 C4E2D7F0                   10631 DIA1C1 DC    C'DSP0'              DISPLAY   VIRTUAL  NAME               83336021
 007EAC E3C5C6F3                   10632 DIFPVI DC    C'TEF3'              IFP TO EFP     -    -                 83344021
 007EB0 E2D9E3F0                   10633 SORTC1 DC    C'SRT0'              SORT INTERFACE -    -                 83352021
 007EB4 C1C3D7F0                   10634 ACCPVI DC    C'ACP0'              ACCEPT         -    -                 83360021
 007EB8 E2C1D4D9                   10635 BSAMREAD DC    C'SAMR'                  BSAM SPANNED READ ROUTINE       83368021
 007EBC 00007504                   10636 ADCON7 DC      A(DICNOQ)           THE                                  83376021
 007EC0 0000751A                   10637 ADCON8 DC      A(DIBALQ)           PHASE                                83384021
 007EC4                            10638 IMWORK   DS    25C                     WORK AREA                        83392021
 007EE0                            10639 IMLSAV   DS    2F                      SAVE AREA                        83400021
 007EE8 00000001                   10640 HWDONE DC    XL4'00000001'         FULL WORD CONSTANT OF ONE            83408021
 007EEC 80000000                   10641 EXHIC1 DC    XL4'80000000'         FULL WD CONSTANT FOR EXHIBIT         83416021
 007EF0 00000003                   10642 FWDTHR DC    XL4'3'                FULL WORD CONSTANT OF 3              83424021
                             07946 10643 HW4096 EQU   FW4096+2                                                   83432021
 007EF4 00                         10644 LBLSW    DC    X'00'                   NONSTANDARD LABEL SWITCH         83440021
 007EF6                            10645        DS      0H                                                       83448021
 007EF6 01F0                       10646 GETDC1 DC      AL2(4*LDOP)              DISPLACEMENT OF LAST OF 5 O     83456021
 007EF8 0174                       10647 GETDC2   DC    AL2(3*LDOP)                                              83464021
 007EFA 3408                       10648 STOPRU DC      XL2'3408'      **   DUMMY AN LIT FOR STOP RUN    **      83472021
 007EFC E2E3D6D740D9E4D5           10649        DC      CL8'STOP RUN'  **        KEEP TWO DC'S TOGETHER  **      83480021
 007F04 1C00                       10650 DILGC1   DC    XL2'1C00'                                                83488021
 007F06 2000                       10651 DILGC2   DC    XL2'2000'                                                83496021
 007F08 0000                       10652 DITYTB DC      1H'00'              THIS TABLE                           83504021
 007F0A 0000                       10653        DC      XL2'00'               MUST REMAIN                        83512021
 007F0C 0000                       10654        DC      XL2'00'                INTACT.                           83520021
 007F0E 0000                       10655        DC      XL2'00'                 . ....                           83528021
 007F10 0020                       10656        DC      XL2'20'                  .                               83536021
 007F12 000F                       10657        DC      XL2'0F'                   .                              83544021
 007F14 000F                       10658        DC      XL2'0F'                  .                               83552021
 007F16 0000                       10659        DC      XL2'00'                                                  83560021
 007F18 000F                       10660        DC      XL2'0F'                 .                                83568021
 007F1A 000F                       10661        DC      XL2'0F'                .                                 83576021
 007F1C 0008                       10662        DC      XL2'08'                 .                                83584021
 007F1E 0001                       10663        DC      XL2'01'                  .                               83592021
 007F20 0002                       10664        DC      XL2'02'                   .                              83600021
 007F22 000F                       10665        DC      XL2'0F'                  .                               83608021
 007F24 0000                       10666        DC    XL2'00'                    .                               83616021
 007F26 02FFFF                     10667 DISPC1 DC      XL3'02FFFF'                                              83624021
 007F29 00040000                   10668 ENTRC1 DC    XL4'00040000'                                              83632021
 007F2D 0000                       10669 VIRDEFI  DC    XL2'0000'           USED BY 'STOP' VERB                  83640021
 007F2F 0000                       10670 VIRTNO   DC    XL2'0000'           HOLDS VIRTUAL ID NUMBER              83648021
 007F31 C9D3C2D6E2E3D7F1           10671          DC    CL8'ILBOSTP1'       'STOP' SUBR                          83656021
                                   10672 *        COBOL WORDS NEEDED BY PHASE 5                                  83664021
 007F3A                            10673        DS      0H                                                       83672021
 007F3A 548D                       10674 CBASCD DC      XL2'548D'           ASCENDING                            83680021
 007F3C 548F                       10675 CBCHGD DC      XL2'548F'           CHANGED                              83688021
 007F3E 5478                       10676 CBCNSL DC      XL2'5478'           CONSOLE C.W.                         83696021
 007F40 548C                       10677 CBDSCD DC      XL2'548C'           DESCENDING                           83704021
 007F42 54A1                       10678 CBEND  DC      XL2'54A1'           END                                  83712021
 007F44 5496                       10679 CBFRST DC    XL2'5496'             'FIRST'  USED AS AN ID FOR CONT      83720021
 007F46 5481                       10680 CBGIVG DC      XL2'5481'           GIVING                               83728021
 007F48 5490                       10681 CBNAMD DC      XL2'5490'           NAMED                                83736021
 007F4A 5485                       10682 CBRUN  DC      XL2'5485'           RUN                                  83744021
1         CONSTANTS FOR PH5CTL AND ARITHMETIC VERBS                                                             PAGE  238
-  LOC  OBJECT CODE    ADDR1 ADDR2  STMT   SOURCE STATEMENT                                       ASM 0201 11.03 02/14/15
0007F4C 5477                       10683 CBSYSP DC      XL2'5477'           SYSPCH C.W.                          83752021
 007F4E 5489                       10684 CBUSIN DC      XL2'5489'           USING                                83760021
 007F50 75F0                       10685 ONZERO DC      XL2'75F0'           F.C. ZERO                            83768021
                                   10686 *                                                                       83776021
                                   10687 * NON-ALLIGNED CONSTANTS                                                83784021
 007F52 E9C4                       10688 SORBZD DC    CL2'ZD'               SORT KEY TYPE CODES                  83792021
 007F54 C3C8                       10689 SORBCH DC    CL2'CH'               SORT KEY TYPE CODES                  83800021
 007F56 C6D3                       10690 SORBFL DC    CL2'FL'               SORT KEY TYPE CODES                  83808021
 007F58 D7C4                       10691 SORBPD DC    CL2'PD'               SORT KEY TYPE CODES                  83816021
 007F5A C6C9                       10692 SORBBI DC    CL2'FI'               SIGNED BINARY                        83824021
 007F5C 4444                       10693 SEGBRK DC    X'4444'              PROC ATXT FOR SEGM CONTROL BREAK      83832021
 007F5E 3418                       10694 DIWTC1 DC    XL2'3418'                 *** KEEP TOGETHER ***            83840021
 007F60 C9D2C6F9F9F0C46B           10695        DC    CL8'IKF990D,'        *** KEEP TOGETHER ***                 83848021
 007F68 40C1E6C1C9E3C9D5           10696        DC    CL16' AWAITING REPLY.'    *** KEEP TOGETHER ***            83856021
 007F78 C9D2C6F0F0F0C16B           10697 STOPC1 DC    CL9'IKF000A, '        STOP 'LIT' MESSAGE CODE              83864021
                             07F81 10698 RECLIT EQU   *                                                          83872021
 007F81 40D9C5C3D6D9C440           10699        DC    C' RECORD TYPE=F,LENGTH=('                                 83880021
 007F98 3400                       10700 SORLIT DC    XL2'3400'             SORT CONTROL                         83888021
 007F9A 40E2D6D9E340C6C9           10701        DC    C' SORT FIELDS=('     CARD                                 83896021
 007FA8 5D40                       10702 SORCL3 DC    C') '                 LITERALS                             83904021
 007FAA 5D6BC3D2D7E340             10703 SCHKPT DC    C'),CKPT '            X                                    83912021
 007FB1 6B6B6B                     10704 SORCL4 DC    C',,,'                X                                    83920021
 007FB4                            10705 SORLG2 DS    XL5'0'                MINIMUM RECORD LENGTH-SORT           83928021
 007FB9 F140F060                   10706 WRISC1 DC    CL4'1 0-'             CARR CONTROL CHAR SET                83936021
 007FBD 35014D                     10707 PR35C1 DC      XL3'35014D'                                              83944021
 007FC0 35015D                     10708 PR35C2 DC      XL3'35015D'                                              83952021
 007FC8                            10709        DS    0D                                   *** KEEP TOGETHER     83960021
 007FC8                            10710 DIFPC2 DS    0D                                                         83968021
 007FC8 475F5E1000000000           10711        DC    X'475F5E1000000000'                                        83976021
 007FD0 4F16345785D8A000           10712        DC    X'4F16345785D8A000'                                        83984021
 007FD8 080E0700                   10713 DIFPC1 DC    X'080E0700'             *****  KEEP TOGETHER ***           83992021
 007FDC 11170700                   10714        DC    X'11170700'             *****  KEEP TOGETHER ***           84000021
 007FE0 3502                       10715 PR35CB DC    XL2'3502'                        ****     KEEP TOGETHE     84008021
 007FE2 6B40                       10716        DC    CL2', '                          ****     KEEP TOGETHE     84016021
                                   10717 * KEEP NEXT 6 CARDS TOGETHER                                            84024021
 007FE4 D05E                       10718 SPREGC DC    X'D05E'              BASE & DISPL FOR SORT-RETURN          84032021
 007FE6 D058                       10719        DC    X'D058'               -      -    -   SORT-CORE-SIZE       84040021
 007FE8 D190                       10720        DC    X'D190'               -      -    -   SORT-FILE-SIZE       84048021
 007FEA D194                       10721        DC    X'D194'               -      -    -   SORT-MODE-SIZE       84056021
 007FEC D1A6                       10722        DC    X'D1A6'              BASE & DISPL FOR LABEL-RETURN         84064021
 007FEE D05C                       10723        DC    X'D05C'               -      -    -   RETURN-CODE          84072021
                                   10724 * KEEP ABOVE SIX CARDS TOGETHER.                                        84080021
 007FF0 00                         10725 CODE     DC    X'00'               CODE FOR EOV AND EOF                 84088021
 007FF1 0000                       10726 I3927    DC    X'0000'                                            40317 84096021
 007FF3 3927                       10727 XX3927   DC    X'3927'                                            40317 84104021
0
1         DIRECT A-TEXT CONSTANT TEXT    C  O  N  S  T  A  N  T                                                 PAGE  239
-  LOC  OBJECT CODE    ADDR1 ADDR2  STMT   SOURCE STATEMENT                                       ASM 0201 11.03 02/14/15
0                                  10730 * DIRECT A-TEXT WRITE OUT CONSTANTS. THOSE DIRECT A-TEXT STRINGS        84128021
                                   10731 *   REQUIRING CHANGES ARE IN VARIABLE DATA AREA.                        84136021
                                   10732 *                                                                       84144021
                             07FF5 10733 ATXTBC EQU   *                     START OF CONSTANT DIRECT A-TEXT      84152021
 007FF5 000000
 007FF8 0000887D                   10734 ARPPTM DC    A(RPPATM)                                                  84160021
                                   10735 *                                                                       84168021
                                   10736 * CONSTANTS FOR SPECIAL REPORT WRITER VERBS                             84176021
                                   10737 *                                                                       84184021
                                   10738 *                         PHASE INITIALIZATION                          84192021
                                   10739 *                                                                       84200021
                             07FFC 10740 PHASE50  EQU   *                                                        84208021
 007FFC 90EC D00C      0000C       10741          STM   R14,R12,DX12(R13)    SAVE REG'S IN PHO SAVE AREA         84216021
 008000 0560                       10742          BALR  RW6,RW0            PICK UP LOCA-CTR INTO REG6            84224021
                             08002 10743        USING *,RW6                                                      84232021
 008002 182D                       10744          LR    RW2,R13                                                  84240021
 008004 58D0 60BA      080BC       10745          L     R13,PHAS5X SET UP REG 13 AS BASE FOR PH5SAV              84248021
 008008 50ED 000C      0000C       10746          ST    R14,DX12(R13) SAVE SYSTEM RETURN ADR IN PHASE SV AREA    84256021
 00800C 502D 0004      00004       10747          ST    RW2,DX4(R13) PUT PTR TO PH0 SV AREA IN PHASE SV AREA     84264021
 008010 50D2 0008      00008       10748          ST    R13,DX8(RW2) PUT PTR TO PHASE SV AREA IN PH0 SV AREA     84272021
 008014 9878 60A6      080A8       10749        LM      XRBAS1,RB1,ACOMN1                                        84280021
 008018 98BD 60AE      080B0       10750        LM      GBRG1,XRDATA,ACOMN3                                      84288021
 00801C 1831                       10751        LR    RW3,RW1                                                    84296021
 00801E 5811 0000      00000       10752          L     RW1,DX0(RW1)                                             84304021
 008022 5010 C190      07720       10753        ST    RW1,COSADR                                                 84312021
 008026 5813 001C      0001C       10754        L     RW1,SEGSAV(RW3)      SAVE ADDR OF AREA IN PH0 WHICH        84320021
 00802A 5010 D0B8      08180       10755        ST    RW1,ADSEGSV          WILL HAVE DISKADR FOR SEGTBL          84328021
 00802E 58A0 C190      07720       10756        L     XRBAS2,COSADR                                              84336021
 008032 5810 60A6      080A8       10757        L     RW1,ACOMN1                                                 84344021
 008036 050A                       10758          BALR  RW0,XRBAS2         PERFORM PH0                           84352021
 008038 06                         10759        DC    X'06'                                                      84360021
 008039 00
 00803A D201 D46A C850 08532 07DE0 10760          MVC   XCSCEL(LX2),XC000                                        84368021
 008040 9200 D48D      08555       10761          MVI   XGNSW,XX00                                               84376021
                                   10762 *  PRIME TABLES USED BY PHASE5                                          84384021
 008044 5810 C190      07720       10763          L     RW1,COSADR          'RELOCATE' TIB ADDRESS               84392021
 008048 5820 60BE      080C0       10764          L     RW2,ARNTBL              FOR RUNTBL.                      84400021
 00804C 1A21                       10765          AR    RW2,RW1                                                  84408021
 00804E 5020 60BE      080C0       10766          ST    RW2,ARNTBL                                               84416021
 008052 4110 C904      07E94       10767        LA    RW1,XLPSUB                                                 84424021
 008056 58F0 A12C      0012C       10768        L     XRVAR,XPRIM                                                84432021
 00805A 05EF                       10769          BALR  RETRG,XRVAR        PERFORM SUB PRIM IN PH0               84440021
 00805C 4110 C90C      07E9C       10770        LA    RW1,XLSSPT                                                 84448021
 008060 58F0 A12C      0012C       10771        L     XRVAR,XPRIM                                                84456021
 008064 05EF                       10772          BALR  RETRG,XRVAR        PERFORM SUB PRIM IN PH0               84464021
 008066 4110 C8F4      07E84       10773        LA    RW1,PARAV                                                  84472021
 00806A 58F0 A12C      0012C       10774        L     XRVAR,XPRIM                                                84480021
 00806E 05EF                       10775          BALR  RETRG,XRVAR        PERFORM SUB PRIM IN PH0               84488021
 008070 4110 C8FC      07E8C       10776        LA    RW1,PARAM                                                  84496021
 008074 58F0 A12C      0012C       10777        L     XRVAR,XPRIM                                                84504021
 008078 05EF                       10778          BALR  RETRG,XRVAR        PERFORM SUB PRIM IN PH0               84512021
 00807A 45E0 75E8      005E8       10779          BAL   XRSUB,XINITM       INITIALIZE REGISTERS                  84520021
 00807E 45E0 7626      00626       10780          BAL   XRSUB,XINITF       INITIALIZE FLOATING POINT REG         84528021
 008082 4130 D6BC      08784       10781        LA    RW3,ELEMTB      SET REG  EQ TO BASE OF OUTPUT AREA         84536021
 008086 9203 A166      00166       10782          MVI   WCMAX,XX03                                               84544021
1         DIRECT A-TEXT CONSTANT TEXT    C  O  N  S  T  A  N  T                                                 PAGE  240
-  LOC  OBJECT CODE    ADDR1 ADDR2  STMT   SOURCE STATEMENT                                       ASM 0201 11.03 02/14/15
000808A 5810 C190      07720       10783        L     RW1,COSADR                                                 84552021
 00808E 0501                       10784          BALR  RW0,RW1            PERFORM PHASE 0 TO READ               84560021
 008090 01                         10785          DC    X'01'                   READ P2 TEXT FROM FILE 1         84568021
 008091 00
 008092 5000 D0B0      08178       10786        ST    RW0,PNTIN                                                  84576021
 008096 48E0 A162      00162       10787        LH    RETRG,VIRCTR             INITIALLY UP VIRCTR BY ONE        84584021
 00809A 41EE 0001      00001       10788          LA    RETRG,DX1(RETRG)                                         84592021
 00809E 40E0 A162      00162       10789        STH   RETRG,VIRCTR                                               84600021
 0080A2 47F0 700A      0000A       10790          B     PH5CTL             RETURN TO PHASE 5 CONTROL             84608021
-

 0080A6 0000
 0080A8 00000000                   10792 ACOMN1 DC      A(COMON1)           BEGIN OF FIRST CSECT                 84624021
 0080AC 00000E30                   10793        DC      A(COMON2)           BEGIN OF SECOND CSECT                84632021
 0080B0 00001690                   10794 ACOMN3 DC      A(COMON3)           BEGIN OF THIRD CSECT                 84640021
 0080B4 00007590                   10795        DC      A(COMON4)           BEG OF CONSTANTS CSECT               84648021
 0080B8 000080C8                   10796        DC      A(COMON5)           BEG OF DATA AREA CSECT               84656021
 0080BC 000080C8                   10797 PHAS5X DC      A(PH5SAV)           BEG OF DATA AREA CSECT               84664021
 0080C0 00000124                   10798 ARNTBL   DC    A(RUNTBL)                                                84672021
1         A-TEXT GENERATOR AND ARITHMETIC CONSTANTS                                                             PAGE  241
-  LOC  OBJECT CODE    ADDR1 ADDR2  STMT   SOURCE STATEMENT                                       ASM 0201 11.03 02/14/15
00080C4                            10800        DS    0F                                                         84688021
 0080C8                            10801 IKF505 CSECT                                                            84696021
                             080C8 10802 COMON5 EQU     *                                                        84704021
                             080C8 10803        USING *,XRDATA                                                   84712021
                                   10804 ******************************   DATA  AREA *********************       84720021
                                   10805 *=1  DATA AREA.                                                         84728021
 0080C8                            10806 PH5SAV DS    18F                   USED BY PHASE0 TO SAVE PH5 REGS      84736021
 008110                            10807 ZAPZAP2 DS   25F      ************ USE FOR SUPERZAP ************        84744021
1         A-TEXT GENERATOR AND ARITHMETIC CONSTANTS                                                             PAGE  242
-  LOC  OBJECT CODE    ADDR1 ADDR2  STMT   SOURCE STATEMENT                                       ASM 0201 11.03 02/14/15
0008174                            10809        DS      0H                                                       84760021
 008174 0000                       10810 BYTCNT DC    XL2'0'           BYTE COUNT OF CURRENT ENTITY              84768021
                             001EE 10811 CARDNO   EQU CURCRD               CURRENT CARD NUMBER                   84776021
 008176 0000
 008178 00000000                   10812 PNTIN  DC    A(0)                  PTR TO NXT ELEM OF P2 TEXT           84784021
 00817C 0000                       10813 BYTES  DC    XL2'0'                LNGTH OF CURRENT ELEM                84792021
 00817E 00                         10814 GANLNO DC    X'00'                 CODE OF VERB BEING PROCESSED         84800021
 00817F 00
 008180 00000000                   10815 ADSEGSV  DC  A(0)                 ADDR OF AREA IN PH0 WHICH WILL        84808021
                                   10816 *                                 WILL CONTAIN RESULT OF 'NOTE'         84816021
 008184 00                         10817 SEGSW  DC    X'0'                 ******************************        84824021
                                   10818 *******************************************************************     84832021
                                   10819 *       RESERVE  STORAGE  AREAS                                         84840021
 008185 00
 008186 0000                       10820 AXTLENG  DC    H'0'                LGTH ALL KEYS IN SEARCH ALL          84848021
 008188 0000                       10821 AXTKEYN  DC    H'0'                NUMB OF KEYS IN SEARCH ALL           84856021
 00818A 0000                       10822 AXTCKEY  DC    H'0'                                                     84864021
 00818C 0000                       10823 AXTDISP  DC    H'0'                                                     84872021
 00818E 64300000                   10824 AXTC01   DC    X'64300000'         PROC-A CODE FOR TEMPSTOR 2           84880021
 008192 64240000                   10825 AXTC02   DC    X'64240000'         PROC-A CODE FOR TEMP STORAGE         84888021
 008198                            10826          DS    0F                                                       84896021
 008198                            10827 HEADER DS    1F                    HOLDS VERB STRING HEADER             84904021
 00819C                            10828 CONSTS DS    F                                                          84912021
 0081A0                            10829 GSVR1  DS    F                    ERRPRO SAVES R3 HERE                  84920021
 0081A4                            10830        DS    1C                   ***** KEEP WITH GSVR1*******          84928021
 0081A8                            10831 GSVRG  DS    16F                                                        84936021
 0081E8                            10832 GCOSAV DS    6F                                                         84944021
                                   10833 * PARAMETERS USED AS INPUT TO THE A-TEXT GENERATOR                      84952021
                                   10834 *                                                                       84960021
 008200 00000000                   10835 OP1    DC    F'0'                  FIRST DATA OPERAND                   84968021
 008204 00000000                   10836 OP2    DC    F'0'                  SECOND DATA OPERAND                  84976021
 008208 000082A7                   10837 OP3    DC    A(GADPAR)             ADDR OF OUTPUT AREA                  84984021
 008210                            10838        DS    0D                                                         84992021
 008210 0000                       10839 XL1    DC    H'0'                  LENGTH IN INSTR WHICH REQUIRE        85000021
                                   10840 * A-TXT GEN WILL SUBTRACT 1 FROM THIS LENGTH FOR YOU                    85008021
 008212 000000                     10841 XWC1   DC    XL3'0'                TEMP STORAGE REFERENCE               85016021
 008215 00                         10842 TALLY1 DC    X'00'                 TALLY REF                            85024021
 008216 0000                       10843 BDISP1 DC    XL2'0'                BASE AND DISPL                       85032021
 008218 00000000                   10844 RELAD1 DC    F'0'                  RELATIVE ADDR                        85040021
 00821C 00000000                   10845 VIRTC1 DC    F'0'                  VIRTUAL ID NUMBER                    85048021
 008220 0000000000000000           10846 GVIRT1 DC    2F'0'                 VIRTUAL NAME IN BCD                  85056021
 008228 0000000000000000           10847 XCON1  DC    XL14'0'               LITERALS AND                         85064021
 008236 000000                     10848        DC    XL3'0'                DC'S                                 85072021
 008239 00
 00823A 0000                       10849 XGN1   DC    H'0'                  GN REF                               85080021
 00823C 00000000                   10850 XPN1     DC    F'0'                     HOLDS PN PRIORITY AND NUMBE     85088021
 008240 000000                     10851 XCNTR1 DC    XL3'0'                GLOBAL TBL-VARIABLE PORTION          85096021
 008243 000000                     10852 PLUS1  DC    XL3'0'                ADDRESS INCREMENT                    85104021
 008246 0000
 008248 00000000                   10853 XVN1   DC    F'0'                  VN REF                               85112021
 00824C 0000                       10854 GDEBG1 DC    XL2'0'                GLOBAL TBL-FIXED PORTION             85120021
 00824E 0000                       10855 BLREF1 DC    XL2'0'                BASE LOCATOR                         85128021
 008250 00                         10856 XREG1  DC    XL1'0'                REGISTER NUMBER                      85136021
 008251 00                         10857 IMM    DC    X'00'                 'IMMEDIATE' FLD IN INSTR             85144021
 008252 00                         10858 XXREG  DC    X'00'                 INDEX REG                            85152021
1         A-TEXT GENERATOR AND ARITHMETIC CONSTANTS                                                             PAGE  243
-  LOC  OBJECT CODE    ADDR1 ADDR2  STMT   SOURCE STATEMENT                                       ASM 0201 11.03 02/14/15
0008258                            10859        DS    0D                                                         85160021
 008258 0000                       10860 XL2    DC    H'0'                  SAME                                 85168021
 00825A 000000                     10861 XWC2   DC    XL3'0'                 AS                                  85176021
 00825D 00                         10862 TALLY2 DC    X'00'                   XL1                                85184021
 00825E 0000                       10863 BDISP2 DC    XL2'0'                   THRU                              85192021
 008260 00000000                   10864 RELAD2 DC    F'0'                      XREG1                            85200021
 008264 00000000                   10865 VIRTC2 DC    F'0'                       BUT                             85208021
 008268 0000000000000000           10866 GVIRT2 DC    2F'0'                       FOR                            85216021
 008270 0000000000000000           10867 XCON2  DC    XL14'0'                      SECOND                        85224021
 00827E 000000                     10868        DC    XL3'0'                        OPERAND                      85232021
 008281 00
 008282 0000                       10869 XGN2   DC    H'0'                  X                                    85240021
 008284 00000000                   10870 XPN2   DC    F'0'                  X                                    85248021
 008288 000000                     10871 XCNTR2 DC    XL3'0'                X                                    85256021
 00828B 000000                     10872 PLUS2  DC    XL3'0'                X                                    85264021
 00828E 0000
 008290 00000000                   10873 XVN2   DC    F'0'                  X                                    85272021
 008294 0000                       10874 GDEBG2 DC    XL2'0'                X                                    85280021
 008296 0000                       10875 BLREF2 DC    XL2'0'                X                                    85288021
 008298 00                         10876 XREG2  DC    X'00'                 X                                    85296021
 008299 000000
 00829C 00000000                   10877 GFLWD  DC    F'0'            FOR INTERMEDIATE RESULTS                   85304021
 0082A0 00                         10878 GBIT1  DC    X'00'   THE BITS OF GBIT1 HAVE THE FOLLOWING MEANING       85312021
                                   10879 *   BIT0 HALFWORD TEST WANTED                                           85320021
                                   10880 *   BIT1 SS TYPE INSTR   (2ADDRESSES WANTED)                            85328021
                                   10881 *   BIT2 BINARY INSTR  (IF NUMLIT CONVERT TO BINARY)                    85336021
                                   10882 *   BIT3 DOUBLE FLOATING POINT INSTR                                    85344021
                                   10883 *   BIT4 FLOATING POINT INSTR                                           85352021
                                   10884 *   BIT5 DECIMAL MODE WANTED                                            85360021
                                   10885 *   BIT7 ADDRESS 1 COMPLETED                                            85368021
 0082A1 00                         10886 GBIT2  DC    X'00'           BIT 0 ON MEANS REL ADR                     85376021
                                   10887 *                            BIT1 ON MEANS MACRO                        85384021
                                   10888 *                            BIT 6 ON MEANS FULL WD ALIGNMENT           85392021
                                   10889 *                            BIT 7 ON MEANS DEFINITE HALFWD INSTR       85400021
 0082A2 0005                       10890 COUNT  DC    H'5'  COUNT THRU GADPAR IS WHERE A TEXT FORMS OUTPUT       85408021
 0082A4 48                         10891        DC    X'48'  OPCODE                                              85416021
 0082A5                            10892 OPCOD  DS    CL1                                                        85424021
 0082A6 00                         10893 GABS   DC    X'00'                                                      85432021
 0082A7                            10894 GADPAR DS    CL256                                                      85440021
 0083A7 00
 0083A8 00000000                   10895 GLTSAV DC    F'0'                                                       85448021
 0083AC 0000                       10896 GHFWD  DC    H'0'            FOR INTERMEDIATE RESULTS                   85456021
 0083AE 5463                       10897 MSKMORLB DC    X'5463'                  COBOL WORD 'MORE-LABELS'        85464021
 0083B0 1810                       10898 PUTIOSRA DC    X'1810'                 * LR 1,0                         85472021
 0083B2 45E0F004                   10899 PUTIOCN  DC    X'45E0F004'             *  BAL  14,4(15)                 85480021
 0083B6 05EF                       10900 PUTOUTCN DC    X'05EF'                 *  BALR  14,15                   85488021
 0083B8 0700                       10901          DC    X'0700'                 * BCR 0,0                        85496021
 0083BA 0005340000                 10902 GLGNCN DC    X'0005340000'                                              85504021
 0083BF 00004858F0000000           10903 GCNGBR DC    X'00004858F000000048000F'                                  85512021
 0083CA 00004858F0000000           10904 GCPNVNBR DC    X'00004858F00000000048070F' 'BCR' WITH PN OR VN REF      85520021
 0083D8                            10905 PNOUT  DS    F                                                          85528021
 0083DC                            10906 SCHOLD DS    F                    SAVE XRVERB FROM SEARCHAL             85536021
 0083E0                            10907 SCHLD2 DS    F                    SAVE R14 FROM SEARCHAL TO SSCRPT      85544021
 0083E4 000000                     10908 GNHOLD DC    XL3'0'                                                     85552021
 0083E7 320301001C                 10909 SCHLIT DC    X'320301001C'        P2 TXT FOR LIT=1                      85560021
1         A-TEXT GENERATOR AND ARITHMETIC CONSTANTS                                                             PAGE  244
-  LOC  OBJECT CODE    ADDR1 ADDR2  STMT   SOURCE STATEMENT                                       ASM 0201 11.03 02/14/15
00083F0                            10910        DS    0D                                                         85568021
 0083F0 0000000000000000           10911 GTEMP  DC    XL8'0'          FOR CONVERSIONS                            85576021
 0083F8                            10912        DS    0F                                                         85584021
 0083F8 28064418B8000000           10913 FILEREF DC    X'28064418B8000000'  SPECIAL FILE REF TEXT                85592021
                             083FD 10914 FILEREF1 EQU   FILEREF+5                                                85600021
                             00040 10915 SYNCHRO  EQU   X'40'                                                    85608021
 008400                            10916 AXTE00   DS    1F                                                       85616021
 008404 64540001                   10917 AXTC00   DC    X'64540001'         PROC-A TXT FOR TEMP STOR 3 #1        85624021
                             00020 10918 AXSTORE  EQU   X'20'                                                    85632021
                             00010 10919 AXSTMLM  EQU   X'10'                                                    85640021
                             00010 10920 DFPXXX   EQU   X'10'                                                    85648021
                             00008 10921 SFPXXX   EQU   X'08'                                                    85656021
 008408                            10922          DS    0F                                                       85664021
 008408                            10923 OTPT   DS    24F                   ATXT GEN OUTPUT AREA                 85672021
                                   10924 *=1  DATA AREA FOR ARITHMETIC.                                          85680021
 008468                            10925 WRITES DS    F                                                          85688021
 00846C                            10926        DS    0H                                                         85696021
 00846C                            10927 PUTSAV DS    6F                    REG SAVER                            85704021
 008484 0001                       10928 PUTH1  DC    H'1'                                                       85712021
 008486 0000                       10929 GNCNT  DC    H'0'                  NO. GN'S IN EQUATE STRING TBL        85720021
 008488                            10930        DS    0F                                                         85728021
 008488 0000                       10931        DC    H'0'                  HOLDS CODE FOR EQUATE STRINGS        85736021
 00848C                            10932 GNLIST DS    6F                    PN GN EQUATE STRINGS BUILT HERE      85744021
 0084A4                            10933 GETSAV DS    F                                                          85752021
 0084A8                            10934 SAVEOP   DS    F'0'                USED BY SEARCH EQU VERB        45693 85760021
 0084AC                            10935 ALIGN    DS    F                   WORK AREA                      45693 85768021
0
 0084B0                            10937        DS    0F                         FP.REG INFO. TABLE              85784021
 0084B0                            10938 FPRTB2 DS    1H                    INTERMED RESULT PTR                  85792021
 0084B2 80                         10939        DC    X'80'                 FLAG TO INDICATE FLOAT PT            85800021
 0084B3 02                         10940        DC    X'02'                 REG NUMB                             85808021
 0084B4 000084D0                   10941        DC    A(FPRTBD)             PTR TO OTHER REG OF PAIR             85816021
 0084B8                            10942 FPRTB4 DS    1H                         SEE                             85824021
 0084BA 80                         10943        DC    X'80'                      ABOVE                           85832021
 0084BB 04                         10944        DC    X'04'                         X                            85840021
 0084BC 000084D0                   10945        DC    A(FPRTBD)                     X                            85848021
 0084C0                            10946 FPRTB6 DS    1H                         SEE                             85856021
 0084C2 80                         10947        DC    X'80'                      ABOVE                           85864021
 0084C3 06                         10948        DC    X'06'                         X                            85872021
 0084C4 000084D0                   10949        DC    A(FPRTBD)                     X                            85880021
 0084C8                            10950 FPRTB0 DS    1H                         SEE                             85888021
 0084CA 80                         10951        DC    X'80'                      ABOVE                           85896021
 0084CB 00                         10952        DC    X'00'                         X                            85904021
 0084CC 000084D0                   10953        DC    A(FPRTBD)                     X                            85912021
 0084D0 00000000                   10954 FPRTBD DC    1F'0'                                                      85920021
0
                                   10956 *      COMPILE TIME WORK AREA.                                          85936021
                                   10957 *                                                                       85944021
                                   10958 *                                                                       85952021
 0084D8                            10959 XGTEM2 DS    2D               16 BYTES FIELD.                           85960021
 0084E8                            10960 XUTEL  DS    1H               SAVE AREA.                                85968021
 0084EA                            10961 XUTEM  DS    1H               X                                         85976021
 0084F0                            10962 XCON   DS    2D               USED BY GENERATED CONSTANTS.              85984021
1         A-TEXT GENERATOR AND ARITHMETIC CONSTANTS                                                             PAGE  245
-  LOC  OBJECT CODE    ADDR1 ADDR2  STMT   SOURCE STATEMENT                                       ASM 0201 11.03 02/14/15
0008500                            10963 XCONL  DS    1C               X                                         85992021
 008502                            10964 XZLENG DS    1H               SAVE AREA FOR LENGHT OF ITEM.             86000021
 008504                            10965 XEEMN  DS    1H               SAVE AREA FOR POINTER TO TS.              86008021
                                   10966 *                                                                       86016021
0
                                   10968 ******************************                                          86032021
                                   10969 *      GENERAL COMMUNICATION CELLS.                                     86040021
                                   10970 *                                                                       86048021
 008506                            10971 XRDMX  DS    1H               MAX.NUMBER OF DECIMAL PLACES.             86056021
 008508                            10972 XGDRE  DS    1H               NUMBER OF DECIMAL PLACES IN RESULT.       86064021
                                   10973 *                                                                       86072021
                                   10974 *                                                                       86080021
 00850A                            10975 XYTEL  DS    1H               LENGHT       OF A    -       -      -     86088021
 00850C                            10976 XEREL  DS    1H               REL. POINTER TO A WORKING STORAGE ENT     86096021
 00850E                            10977 XEREL1 DS    1H               DISPLACEMENT OF A    -       -      -     86104021
 008510                            10978 XMPLEN DS    1H               LENGHT OF PRODUCT FOR ID MULTIPLY.        86112021
 008514                            10979        DS    0F                                                         86120021
 008514                            10980 XTDDD  DS    1H               OUTPUT OF TRUNCATE ROUTINE.               86128021
 008516                            10981 XTIII  DS    1H                  -          -        -                  86136021
 008518                            10982 XIDBY  DS    1H               OUTPUT OF XIDSZ ROUTINE (SIZES).          86144021
 00851A                            10983 XBDBY  DS    1H                 -         -      -      -    .          86152021
 00851C                            10984 XIDDN  DS    1H                 -         -      -       -   .          86160021
 00851E                            10985 XOPVLC DS    1H              VARIABLE LENGHT CELL NUMBER.               86168021
 008520                            10986 XOPLGH DS    1F              FIXED LENGH VALUE.                         86176021
 008524                            10987 XTDEC  DS    1H               INPUT OF TRUNCATE ROUTINE .               86184021
 008526                            10988 XTINI  DS    1H                 -         -        -    .               86192021
 008528                            10989 XGNTMP DS    1H               SAVE  VALUE OF GENERATED NAME.            86200021
 00852C                            10990 XLIRP  DS    1F                                                         86208021
 008530                            10991 XELEN  DS    1H               LENGHT REQUIRED IN TEMP.                  86216021
0
 008532                            10993 XCSCEL DS    1H                                                         86232021
0
 008534                            10995        DS    0F                                                         86248021
 008534                            10996 XSID1  DS    1H               POINTER OT UPDATED I,D,K.                 86256021
 008536                            10997        DS    1H               DISPLACT. TO OP1                          86264021
 008538                            10998 XSID2  DS    1H                                                         86272021
 00853A                            10999        DS    1H                    DISPL TO OP2                         86280021
 00853C                            11000 XSID3  DS    1H                                                         86288021
 00853E                            11001        DS    1H                    DISPL TO OP3                         86296021
 008540                            11002 XSID4  DS    1H                                                         86304021
 008542                            11003        DS    1H                    DISPL TO OP4                         86312021
 008544                            11004 XSID5  DS    1H                                                         86320021
 008546                            11005        DS    1H                    DISPL TO OP5                         86328021
                             08548 11006 XSIEND EQU   *                                                          86336021
                                   11007 ******************************                                          86344021
                                   11008 *      SWITCHES                                                         86352021
                                   11009 *                                                                       86360021
 008548                            11010 XXXYY  DS    1C                                                         86368021
 008549                            11011 XGSWT  DS    1C               GENERAL SWITCH FOR THE COMPUTE STAT.      86376021
 00854A                            11012 XOPMOD DS    1C               GENERAL SWITCH FOR ONE OPERATION   .      86384021
 00854B                            11013 XSESWT DS    1C               SWITCH FOR SETVAL ROUTINE.                86392021
                                   11014 *                                                                       86400021
1         A-TEXT GENERATOR AND ARITHMETIC CONSTANTS                                                             PAGE  246
-  LOC  OBJECT CODE    ADDR1 ADDR2  STMT   SOURCE STATEMENT                                       ASM 0201 11.03 02/14/15
000854C                            11015 XHINTS DS    1C               SWITCH FOR SETMODE ROUTINE.               86408021
 00854D                            11016 XYLEN  DS    1C               LENGHT OF TS.WANTED.                      86416021
 00854E                            11017 XSLSW  DS    1C               SWITCH FOR LOAD REGISTER ROUTINE.         86424021
 00854F                            11018 XZCSW  DS    1C               SWITCH FOR BINARY MULTIPLY ROUTINE.       86432021
 008550                            11019 XZSWT  DS    1C               SWITCH FOR A-TEXT SET-UP XZBINA ROUTI     86440021
 008551                            11020 XSTRSW   DS    1C           SW TO INDICATE BEG OF STRING IN CALL        86448021
 008552                            11021 XREGNO DS    1C               REG NUMBER NEWLY ASSIGNED.                86456021
 008553                            11022 XREGNP DS    1C               EVEN REG NUMBER OF A PAIR NEWLY ASSIG     86464021
 008554                            11023 XMONDD DS    1C                         DIVIDE  STATEMENT ALL BY IT     86472021
                                   11024 *                                                                       86480021
 008555 00                         11025 XGNSW  DC    X'00'                                                      86488021
 008556 00                         11026 RJSW     DC    X'00'                                                    86496021
 008557 00                         11027 PADSW    DC    X'00'                                                    86504021
 008558 00                         11028 SCHSW  DC    X'00'                USED IN SSCRPT TO TELL IF CONTROL     86512021
                                   11029 *                                 HAS COME FROMSEARCHAL                 86520021
 008559 00                         11030 INDXSW DC    X'0'                 INDEXNAME FOLLOWED BY LITERAL SW      86528021
 00855A 00                         11031 X1TYP  DC    X'00'                                                      86536021
 00855B 00                         11032 X2TYP  DC    X'00'                                                      86544021
 00855C                            11033 XSZTRA DS    1H              ON SIZE TRANSFER VALUE.                    86552021
 00855E                            11034 XZRTRA DS    1H                                                         86560021
 008560 00                         11035 IFINCODE DC X'00'                  HOLDS BRANCHING CODE FOR             86568021
 008561 00                         11036 IFINCOD2 DC    X'00'               'IF INDEX-NM'                        86576021
 008562                            11037 XT3    DS    1C                                                         86584021
 008563                            11038 XCPSW  DS    1C                                                         86592021
 008564                            11039 XSPSW  DS    1C                                                         86600021
                                   11040 *                                                                       86608021
                                   11041 *      ERROR MESSAGES BUFFER.                                           86616021
 008565 000600                     11042 XMSGDF DC    X'000600'             CODE FOR ERROR MSG                   86624021
 008568 0000                       11043        DC    X'0000'                    MESSAGE NUMBER.                 86632021
 00856A 0000                       11044        DC    X'0000'                    CARD NUMBER.                    86640021
 00856C 05                         11045        DC    X'05'                      SEVERITY,PHASE NUMBER.          86648021
 008570                            11046 XSTORE   DS    2F                                                       86656021
                                   11047 **************************                                              86664021
                                   11048 *                                                                       86672021
                             0005C 11049 INCODE   EQU   X'5C'                                                    86680021
                             00038 11050 TS4DATA  EQU   X'38'                                                    86688021
                             00030 11051 TS2CODE  EQU   X'30'                                                    86696021
                             00054 11052 TS3CODE  EQU   X'54'                                                    86704021
                             00058 11053 TS4CODE  EQU   X'58'                                                    86712021
                             00010 11054 SCHASCN  EQU   X'10'                                                    86720021
 008578                            11055          DS    0F                                                       86728021
 008578 00                         11056 AXTIDK   DC    X'00'               IDK OF TABLE IN                      86736021
 008579 000000                     11057          DC    X'000000'           SEARCH ALL                           86744021
 00857C                            11058 KEYDC  DS    12F                 USED BY SEARCH ALL PROCESSING          86752021
0
                                   11060 *      OPERAND  INFORMATION BUFFERS.                                    86768021
                                   11061 *                                                                       86776021
 0085B0                            11062        DS    0D                                                         86784021
                             085B0 11063 XBSW1  EQU   *                                                          86792021
 0085B0                            11064 X1VAL  DS    2D               COMPILE-TIME VALUE IN ID.                 86800021
 0085C0                            11065 X1LAS  DS    1H               LENGHT AFTER SCALING IN ID.               86808021
 0085C2                            11066 X1BAS  DS    1H                 -      -      -    IN BINARY.           86816021
 0085C4                            11067 X1FAS  DS    1H               NUMBER OF DIGITS AFTER SCALING.           86824021
 0085C6                            11068 X1DAS  DS    1H               NUMBER OF DECIMAL PLACES AFTER SCALIN     86832021
1         A-TEXT GENERATOR AND ARITHMETIC CONSTANTS                                                             PAGE  247
-  LOC  OBJECT CODE    ADDR1 ADDR2  STMT   SOURCE STATEMENT                                       ASM 0201 11.03 02/14/15
00085C8                            11069 X1TEL  DS    1H               LENGHT OCCUPIED IN WORKING STORAGE.       86840021
 0085CA                            11070 X1TEM  DS    1H               RELATIVE POINTER IN WORKING STORAGE.      86848021
 0085CC                            11071 X1IRX  DS    1H               RX NUMBER - FLAGS CONCERNING OPERAND.     86856021
 0085CE                            11072 X1LBS  DS    1H               LENGHT BEFORE SCALING IN ID.              86864021
 0085D0                            11073 X1BBS  DS    1H                 -      -      -     IN BINARY.          86872021
 0085D2                            11074 X1FBS  DS    1H               NUMBER OF DIGIT BEFORE SCALING.           86880021
 0085D4                            11075 X1DBS  DS    1H                 -    -  DECIMAL  -     -                86888021
 0085D6                            11076 X1ALP  DS    1H               SCALING FACTOR .                          86896021
 0085D8                            11077 X1IRN  DS    1H                                                         86904021
 0085DA                            11078 X1NPS  DS    1H                                                         86912021
 0085DC                            11079 X1DDP  DS    1H               NUMBER OF DECIMAL TO BE DROPPED AFTER     86920021
 0085DE                            11080 X1IND  DS    1H                   -  -  INTEGERS -  -    -      -       86928021
                                   11081 *                                                                       86936021
                                   11082 *                                                                       86944021
 0085E0                            11083 X1INPT DS    1F                                                         86952021
                             085E4 11084 XBSW2  EQU   *                                                          86960021
                             00034 11085 XLEVAL EQU   XBSW2-XBSW1                                                86968021
0
 0085E8                            11087 X2VAL  DS    2D               **  2ND OPERAND BUFFER  **                86984021
 0085F8                            11088 X2LAS  DS    1H                                                         86992021
 0085FA                            11089 X2BAS  DS    1H                                                         87000021
 0085FC                            11090 X2FAS  DS    1H                                                         87008021
 0085FE                            11091 X2DAS  DS    1H                    SEE                                  87016021
 008600                            11092 X2TEL  DS    1H                     FIRST                               87024021
 008602                            11093 X2TEM  DS    1H                       OPERAND                           87032021
 008604                            11094 X2IRX  DS    1H                        BUFFER                           87040021
 008606                            11095 X2LBS  DS    1H                                                         87048021
 008608                            11096 X2BBS  DS    1H                                                         87056021
 00860A                            11097 X2FBS  DS    1H                                                         87064021
 00860C                            11098 X2DBS  DS    1H                                                         87072021
 00860E                            11099 X2ALP  DS    1H                                                         87080021
 008610                            11100 X2IRN  DS    1H                                                         87088021
 008612                            11101 X2NPS  DS    1H                                                         87096021
 008614                            11102 X2DDP  DS    1H                                                         87104021
 008616                            11103 X2IND  DS    1H                                                         87112021
                                   11104 *                                                                       87120021
                                   11105 *                                                                       87128021
 008618                            11106 X2INPT DS    1F                                                         87136021
 008620                            11107        DS    0D                                                         87144021
0
                             08620 11109 XBSW3  EQU   *                                                          87160021
 008620                            11110 XFVAL  DS    2D               **  RESULT FIELD BUFFER  **               87168021
 008630                            11111 XFLAS  DS    1H                                                         87176021
 008632                            11112 XFBAS  DS    1H                                                         87184021
 008634                            11113 XFFAS  DS    1H                    SEE                                  87192021
 008636                            11114 XFDAS  DS    1H                     FIRST                               87200021
 008638                            11115 XFTEL  DS    1H                      OPERAND                            87208021
 00863A                            11116 XFTEM  DS    1H                       BUFFER                            87216021
 00863C                            11117 XFIRX  DS    1H                                                         87224021
 00863E                            11118 XFIRN  DS    1H                                                         87232021
 008640                            11119 XFDDP  DS    1H                                                         87240021
 008642                            11120 XFIND  DS    1H                                                         87248021
                             08644 11121 XEBSW1 EQU   *                                                          87256021
1         A-TEXT GENERATOR AND ARITHMETIC CONSTANTS                                                             PAGE  248
-  LOC  OBJECT CODE    ADDR1 ADDR2  STMT   SOURCE STATEMENT                                       ASM 0201 11.03 02/14/15
0                            00024 11122 XFLVAL EQU   XEBSW1-XBSW3                                               87264021
                             00094 11123 XLSW1  EQU   XEBSW1-XBSW1                                               87272021
                                   11124 *                                                                       87280021
 008648                            11125        DS    0D                                                         87288021
 008648                            11126 XRVAL  DS    2D                   ** TEMPORARY RESULT BUFFER **         87296021
 008658                            11127 XRLAS  DS    1H                                                         87304021
 00865A                            11128 XRBAS  DS    1H                                                         87312021
 00865C                            11129 XRFAS  DS    1H                                                         87320021
 00865E                            11130 XRDAS  DS    1H                    SEE                                  87328021
 008660 0000                       11131 XRTEL  DC    H'0'                   FIRST                               87336021
 008662                            11132 XRTEM  DS    1H                      OPERAND                            87344021
 008664                            11133 XRIRX  DS    1H                       BUFFER                            87352021
 008666                            11134 XRLBS  DS    1H                                                         87360021
 008668                            11135 XRBBS  DS    1H                                                         87368021
 00866A                            11136 XRFBS  DS    1H                                                         87376021
 00866C                            11137 XRDBS  DS    1H                                                         87384021
 00866E                            11138 XRALP  DS    1H                                                         87392021
 008670                            11139 XRIRN  DS    1H                                                         87400021
 008672                            11140 XRNPS  DS    1H                                                         87408021
 008674                            11141 XRDDP  DS    1H                                                         87416021
 008676                            11142 XRIND  DS    1H                                                         87424021
 008678                            11143 XRINPT DS    1F                                                         87432021
0
 008680                            11145 XQSW     DS    0D                                                 41562 87448021
 008680                            11146 XQVAL    DS    2D        TEMPORARY RESULT FOR DIVIDE REMAINDER    41562 87456021
 008690                            11147 XQLAS    DS    H                       DIVISOR                    41562 87464021
 008692                            11148 XQBAS    DS    H                                                  41562 87472021
 008694                            11149 XQFAS    DS    H                                                  41562 87480021
 008696                            11150 XQDAS    DS    H                                                  41562 87488021
 008698                            11151 XQTEL    DS    H                                                  41562 87496021
 00869A                            11152 XQTEM    DS    H                                                  41562 87504021
 00869C                            11153 XQIRX    DS    H                                                  41562 87512021
 00869E                            11154 XQLBS    DS    H                                                  41562 87520021
 0086A0                            11155 XQBBS    DS    H                                                  41562 87528021
 0086A2                            11156 XQFBS    DS    H                                                  41562 87536021
 0086A4                            11157 XQDBS    DS    H                                                  41562 87544021
 0086A6                            11158 XQALP    DS    H                                                  41562 87552021
 0086A8                            11159 XQIRN    DS    H                                                  41562 87560021
 0086AA                            11160 XQNPS    DS    H                                                  41562 87568021
 0086AC                            11161 XQDDP    DS    H                                                  41562 87576021
 0086AE                            11162 XQIND    DS    H                                                  41562 87584021
 0086B0                            11163 XQINPT   DS    F                                                  41562 87592021
0
 0086B8                            11165 XKVAL    DS    2D        TEMPORARY RESULT FOR DIVIDE REMAINDER    41562 87608021
 0086C8                            11166 XKLAS    DS    H                      DIVIDEND                    41562 87616021
 0086CA                            11167 XKBAS    DS    H                                                  41562 87624021
 0086CC                            11168 XKFAS    DS    H                                                  41562 87632021
 0086CE                            11169 XKDAS    DS    H                                                  41562 87640021
 0086D0                            11170 XKTEL    DS    H                                                  41562 87648021
 0086D2                            11171 XKTEM    DS    H                                                  41562 87656021
 0086D4                            11172 XKIRX    DS    H                                                  41562 87664021
 0086D6                            11173 XKLBS    DS    H                                                  41562 87672021
 0086D8                            11174 XKBBS    DS    H                                                  41562 87680021
1         A-TEXT GENERATOR AND ARITHMETIC CONSTANTS                                                             PAGE  249
-  LOC  OBJECT CODE    ADDR1 ADDR2  STMT   SOURCE STATEMENT                                       ASM 0201 11.03 02/14/15
00086DA                            11175 XKFBS    DS    H                                                  41562 87688021
 0086DC                            11176 XKDBS    DS    H                                                  41562 87696021
 0086DE                            11177 XKALP    DS    H                                                  41562 87704021
 0086E0                            11178 XKIRN    DS    H                                                  41562 87712021
 0086E2                            11179 XKNPS    DS    H                                                  41562 87720021
 0086E4                            11180 XKDDP    DS    H                                                  41562 87728021
 0086E6                            11181 XKIND    DS    H                                                  41562 87736021
 0086E8                            11182 XKINPT   DS    F                                                  41562 87744021
                             086EC 11183 XKSW     EQU   *                                                  41562 87752021
                             0006C 11184 XQKLEN   EQU   XKSW-XQSW                                          41562 87760021
 0086EC 00                         11185 DIVREMSW DC    X'00'                                              41562 87768021
                             086ED 11186 XEBSW4 EQU   *                                                          87776021
1         A-TEXT GENERATOR AND ARITHMETIC CONSTANTS                                                             PAGE  250
-  LOC  OBJECT CODE    ADDR1 ADDR2  STMT   SOURCE STATEMENT                                       ASM 0201 11.03 02/14/15
00086ED                      085B0 11188          ORG   XBSW1              OVERLAY ARITH BUF FOR SUBSCRIPTS      87792021
                                   11189 ****************************************************************  44300 87800021
 0085B0                            11190 XSL1   DS    1F               LENGTH FOR 1ST LEVEL SUBSCRIPT      44300 87808021
 0085B4                            11191 XSL2   DS    1F               LENGTH FOR 2ND LEVEL SUBSCRIPT      44300 87816021
 0085B8                            11192 XSL3   DS    1F               LENGTH FOR 3RD LEVEL SUBSCRIPT      44300 87824021
                                   11193 ****************************************************************  44300 87832021
 0085BC                            11194 XSVLC1 DS    1H               VLC    FOR FIRST LEVEL SUBSCRIPT.         87840021
 0085BE                            11195 XSVLC2 DS    1H               VLC    FOR SECOND LEVEL SUBSCRIPT.        87848021
 0085C0                            11196 XSVLC3 DS    1H               VLC    FOR THIRD LEVEL SUBSCRIPT.         87856021
                                   11197 ****************************************************************  44300 87864021
 0085C2                            11198 IXLIT1 DS    1H          IF RELATIVE INDEXING IS BEING USED       44300 87872021
 0085C4                            11199 IXLIT2 DS    1H               E.G.  A (INDEX + 4)                 44300 87880021
 0085C6                            11200 IXLIT3 DS    1H          THE LITERALS ARE SAVED IN THIS TABLE     44300 87888021
                                   11201 ****************************************************************        87896021
                                   11202 *  SUBSCRIPT AND INDEX TABLE  (XSCRPT)                                  87904021
                                   11203 *                                                                       87912021
                                   11204 *DEL                                                               4430 87920021
 0085C8                            11205 XSSUBN DS    1F                   BYTE 0-1  ENTRY LENGTH                87928021
                                   11206 *                                      2-3  NUMB OF SS OR INDEXES       87936021
 0085CC                            11207 XSNIDK DS    1F                   UPDATED I,D,K                         87944021
                                   11208 *                                 IF COMPUTAT IS IN A REG-              87952021
                                   11209 *                                           BYTE 1 - 30                 87960021
                                   11210 *                                                2 - REG NUMB           87968021
                                   11211 *                                 IF COMPUTAT IS IN A SS CELL           87976021
                                   11212 *                                           BYTE 1 - 60                 87984021
                                   11213 *                                           BTS 2,3 - SBS NUMB          87992021
 0085D0                            11214 XSOIDK DS    1F                   OLD DICT PTR                          88000021
                                   11215 * FOR NEXT THREE ENTRIES-IF DATA-NAME SUBS OR INDEX-NAME -              88008021
                                   11216 *                                      DICT PTR                         88016021
                                   11217 *                        IF LITERAL SUBS -                              88024021
                                   11218 *                                      BINARY VALUE, BYTE0- '80'        88032021
 0085D4                            11219 XSSKK  DS    1F                   FIRST LEVEL SS OR INDEX               88040021
 0085D8                            11220 XSSJJ  DS    1F                   SECOND  -   -  -    -                 88048021
 0085DC                            11221 XSSII  DS    1F                   THIRD   -   -  -    -                 88056021
                                   11222 ****************************************************************        88064021
                                   11223 *DEL                                                               4430 88072021
 0085E0                            11224 XSUCNT DS    1H               SUBSCRIPT COUNT.                          88080021
 0085E4                            11225 XSENPT DS    1F                                                         88088021
                                   11226 ****************************************************************        88096021
                                   11227 *  SUBSCRIPT AND INDEX ID TABLE  (XSSNT)                                88104021
                                   11228 *                                                                       88112021
 0085E8                            11229 XSIDNB DS    1H                   ID NUMB OF SUBS OR INDEX COMP         88120021
 0085EA                            11230 XSNPT  DS    1H                   PTR TO OLD DICT PTR ENTRY IN          88128021
                                   11231 *                                 XSCRPT TABLE                          88136021
                                   11232 ****************************************************************        88144021
 0085EC                            11233 XSOPT  DS    1H               POINTER  TO  OLD  I,D,K                   88152021
 0085F0                            11234 XSUTMP DS    2D                                                         88160021
                                   11235 ****************************************************************  44300 88168021
 008600                            11236 SAVER0 DS    1F                                                   44300 88176021
 008604                            11237 SAVER1 DS    1F                                                   44300 88184021
                                   11238 ****************************************************************  44300 88192021
                                   11239 *DEL                                                               4430 88200021
 008608                      086ED 11240          ORG   XEBSW4             REPOSITION AFTER ARITH BUFFER         88208021
1         A-TEXT GENERATOR AND ARITHMETIC CONSTANTS                                                             PAGE  251
-  LOC  OBJECT CODE    ADDR1 ADDR2  STMT   SOURCE STATEMENT                                       ASM 0201 11.03 02/14/15
0                                  11242 *      REGISTER  TABLES .                                               88224021
                                   11243 *                                                                       88232021
 0086F0                            11244        DS    0F                                                         88240021
 0086F0                            11245 XRAUR2 DS    1H               INTER. RESULT POINTER IF USED BY AN I     88248021
 0086F2                            11246          DS    1CL1                FLAG WORD FOR THIS REGISTER          88256021
 0086F3 03                         11247          DC    X'3'                REGISTER NUMBER                      88264021
 0086F4 00008708                   11248          DC    A(XRAU22)           POINTER TO OTHER REGISTER OF PAIR    88272021

 0086F8                            11250 XRAUR1 DS    1H                    SEE ABOVE                            88288021
 0086FA                            11251          DS    1CL1                                                     88296021
 0086FB 05                         11252          DC    X'5'                                                     88304021
 0086FC 00008710                   11253          DC    A(XRAUR4)                                                88312021

 008700                            11255 XRAUR3 DS    1H                    SEE ABOVE                            88328021
 008702                            11256          DS    1CL1                                                     88336021
 008703 01                         11257          DC    X'1'                                                     88344021
 008704 00008718                   11258          DC    A(XRAU14)                                                88352021

 008708                            11260 XRAU22 DS    1H                    SEE ABOVE                            88368021
 00870A                            11261          DS    1CL1                                                     88376021
 00870B 02                         11262          DC    X'2'                                                     88384021
 00870C 000086F0                   11263          DC    A(XRAUR2)                                                88392021

 008710                            11265 XRAUR4 DS    1H                    SEE ABOVE                            88408021
 008712                            11266          DS    1CL1                                                     88416021
 008713 04                         11267          DC    X'4'                                                     88424021
 008714 000086F8                   11268          DC    A(XRAUR1)                                                88432021

 008718                            11270 XRAU14 DS    1H                    SEE ABOVE                            88448021
 00871A                            11271          DS    1CL1                                                     88456021
 00871B 00                         11272          DC    X'0'                                                     88464021
 00871C 00008700                   11273          DC    A(XRAUR3)                                                88472021
0
                                   11275 *=1  DATA AREA FOR NON ARITHMETIC (BILL).                               88488021
 008720                            11276        DS      0F                                                       88496021
 008720 00000004                   11277 LENGTH DC      1F'00000004'       *** DUMMY *** DUMMY *** DUMMY ***     88504021
 008724                            11278 DISPNN DS      1F                    TOTAL OPERAND COUNTER              88512021
 008728                            11279 EXHIBP DS    1F                    BIT PATTERN BUILD CELL               88520021
 00872C 0000                       11280 DIFPNN DC    XL2'0000'                                                  88528021
 00872E 0000                       11281 DIPARE DC    1H'0000'                                                   88536021
 008730 00000038                   11282 MASKOP   DC    F'56'                   MASK                             88544021
                                   11283 *    NON-ALIGNED WORK CELLS                                             88552021
 008734                            11284        DS    0F                                                         88560021
 008734                            11285 SORSFN DS    5C                    SAVES FRON OF SFN - KEEP WD BOUN     88568021
 008739 00                         11286 DNMINR DC    XL1'00'               CALCLG SAVES MINOR OF DN'S HERE      88576021
 00873A 000000000000               11287 SORDN1 DC    XL6'00'               SORT RECORD DN THRU BL NUMBER        88584021
 008740 87                         11288 ASRLAS DC    XL1'87'               LAST HEADER                          88592021
 008742                            11289 PR35M  DS      1H                                                       88600021
 008744 00                         11290 CDNOSW DC      XL1'0'              CARD NUMBER PRECEEDS STRING SW.      88608021
 008745 00                         11291 FLAGSW DC    XL1'00'                                                    88616021
 008746 00                         11292 LOOKAH DC      XL1'00'             LOOK AHEAD SW                        88624021
 008747 00                         11293 MADCSW DC    X'00'     DSPLTP SW                                        88632021
 008748 00                         11294 QRTNSW DC    XL1'00'               Q-ROUTINES IN EFFECT WHEN SW SWT     88640021
 008749 00                         11295 WRITSW   DC    XL1'00'             WRITE/REWRITE FLAGS            59733 88648021
1         DIRECT A-TEXT VARIABLE TEXT    V  A  R  I  A  B  L  E                                                 PAGE  252
-  LOC  OBJECT CODE    ADDR1 ADDR2  STMT   SOURCE STATEMENT                                       ASM 0201 11.03 02/14/15
0                                  11297 *                                                                       88664021
                                   11298 *                                                                       88672021
                                   11299 * DIRECT A-TEXT WRITE OUT STRINGS REQUIRING CHANGES. THOSE STRINGS      88680021
                                   11300 *   NOT REQUIRING CHANGES ARE IN THE CONSTANT AREA                      88688021
                                   11301 *                                                                       88696021
                                   11302 *   TO ADD NEW DIRECT A-TEXT STRINGS, USE THE NEXT HIGHEST NUMBER,      88704021
                                   11303 *            BEYOND THE HIGHEST PREVIOUS NUMBER USED, =MM.              88712021
                                   11304 *      A)    SET UP TEXT IN THE... CONSTANT AREA IF NO BYTE IS CHAN     88720021
                                   11305 *                              ... DATA AREA IF ONE OR MORE BYTES C     88728021
                                   11306 *            FORMAT...                                                  88736021
                                   11307 *            ATXTNN  EQU  *                                             88744021
                                   11308 *                    DC    XL'...       ONE DC PER INSTRUCTION...       88752021
                                   11309 *            ZTXTNN  EQU  *                                             88760021
                                   11310 *                      (IF ANY BYTE IS CHANGABLE, LABEL IT ANNCH1,      88768021
                                   11311 *      B)    THE CALLING SEQUENCE IS...                                 88776021
                                   11312 *                                  BAL  RETRG,GATXTC       (OR, GAT     88784021
                                   11313 *                                  DC   AL2(ATXTNN-ATXTBC) (OR, GAT     88792021
                                   11314 *                                  DC   AL2(ZTXTNN-ATXTNN)              88800021
                                   11315 *...... THE FOLLOWING ARE POINTERS TO AREAS OF CHANGES...               88808021
                                   11316 *                                  CONSTANT A-TEXT STARTING POINT       88816021
                                   11317 *                                  VARIABLE A-TEXT FOLLOWS...           88824021
                                   11318 *                                                                       88832021
                             0874A 11319 ATXTBV EQU   *                                                          88840021
                             0874A 11320 ATXT48 EQU   *                                                          88848021
 00874A 44                         11321        DC    XL1'44'               FREE, RESERVE, DESTROY               88856021
 00874B 00                         11322 A48CH2 DC    XL1'00'                                                    88864021
 00874C A0                         11323        DC    XL1'A0'               REGISTER REF                         88872021
 00874D 00                         11324 A48CH1 DC    XL1'00'          FREE, RESERVE OR DESTROY MACRO, ANY R     88880021
                             0874E 11325 ZTXT48 EQU   *                                                          88888021
                             0874E 11326 ATXT49   EQU   *                                                        88896021
 00874E 4858F0                     11327          DC    X'4858F0'               L  15,GN                         88904021
 008751 50                         11328          DC    X'50'                   GN                               88912021
 008752 0000                       11329 A49CH1   DC    X'0000'                 CODE                             88920021
 008754 48051F                     11330          DC    X'48051F'               BALR 1,15                        88928021
 008757 4430                       11331          DC    X'4430'                 DESTROY 15                       88936021
 008759 A00F                       11332          DC    X'A00F'                 CODE FOR R15                     88944021
 00875B 48D20A70E00C70D0           11333          DC    X'48D20A70E00C70D000'   MVC 12(11,14),0(13)              88952021
 008764 4430                       11334          DC    X'4430'                 MACRO CODE                       88960021
 008766 A00E                       11335          DC    X'A00E'                 DESTROY 14                       88968021
 008768 34                         11336          DC    X'34'                   GN DEF   SVC                     88976021
 008769 0000                       11337 A49CH2   DC    X'0000'                 ENTER GN HERE                    88984021
 00876B 480A05                     11338          DC    X'480A05'               VERB CODE                        88992021
                             0876E 11339 ZTXT49   EQU   *                                                        89000021
                             0876E 11340 ATXT50   EQU   *                                                        89008021
 00876E 485810700014               11341          DC    X'485810700014'         L  1,20                          89016021
 008774 480A21                     11342          DC    X'480A21'               SVC                              89024021
                             08777 11343 ZTXT50   EQU   *                                                        89032021
 008777 00
 008778 00000000                   11344 PR35SV DC      1F'00000000'                                             89040021
 00877C                            11345 REMLGH   DS    1F                                                       89048021
 008780                            11346 MYSAVE DS    1F                   TSTRPD RTN SAVES R14 HERE             89056021
 008784                            11347        DS    0F                                                         89064021
 008784                            11348 ELEMTB DS    620C                  DOPS 1 THRU 5 HERE                   89072021
                             089F0 11349 RPEQU  EQU   *                                                          89080021
                                   11350 *                                                                       89088021
1         DIRECT A-TEXT VARIABLE TEXT    V  A  R  I  A  B  L  E                                                 PAGE  253
-  LOC  OBJECT CODE    ADDR1 ADDR2  STMT   SOURCE STATEMENT                                       ASM 0201 11.03 02/14/15
0                                  11351 *=1    DATA AREAS FOR REPORT MOVE ANALYZER                              89096021
                                   11352 *                                                                       89104021
                                   11353 *                                                                       89112021
                                   11354 *                                                                       89120021
 0089F0                      0890A 11355        ORG   *-230            ALLOWS FOR EDIT PATTERN > DOP3 AREA       89128021
 00890C                            11356        DS    0F                                                         89136021
                             0890C 11357 RPDATA EQU   *                                                          89144021
                                   11358 *                                                                       89152021
                                   11359 * GENERATION SWITCHES.  IF OFF, = 0.                                    89160021
                                   11360 *                       IF ON,  = LENGTH OF ASSOC. INSTRUCTION(S).      89168021
                                   11361 *                       FOR SPECIFIC INSTRUCTIONS, SEE COMMENTS TO      89176021
                                   11362 *                       RPGEN.                                          89184021
                                   11363 *                                                                       89192021
 00890C                            11364 RBWZL1 DS    1H                                                         89200021
 00890E                            11365 RBWZL2 DS    1H                                                         89208021
 008910                            11366 RBWZL3 DS    1H                                                         89216021
 008912                            11367 RBWZL4 DS    1H                                                         89224021
 008914                            11368 RSGNL1 DS    1H                                                         89232021
 008916                            11369 RSGNL2 DS    1H                                                         89240021
 008918                            11370 RSGNL3 DS    1H                                                         89248021
 00891A                            11371 RINSL1 DS    1H                                                         89256021
 00891C                            11372 RINSL2 DS    1H                                                         89264021
                                   11373 *                                                                       89272021
 00891E                            11374 RBWZIL DS    1H                                                         89280021
 008920                            11375 RFLTIL DS    1H                                                         89288021
 008922                            11376 RSGNIL DS    1H                                                         89296021
 008924                            11377 RDOLIL DS    1H                                                         89304021
 008926                            11378 RINSIL DS    1H                                                         89312021
 008928                            11379 RPTOTL DS    1H                                                         89320021
                                   11380 *                                                                       89328021
                                   11381 * DISPLACEMENTS IN TEMPORARY STORAGE                                    89336021
                                   11382 *                                                                       89344021
 00892A                            11383 RPIDD  DS    1H                    SOURCE FIELD (IN TS1)                89352021
 00892C                            11384 RPTS2D DS    1H                    PATTERN                              89360021
 00892E                            11385 RPSGND DS    1H                    SIGN                                 89368021
 008930                            11386 RPDECD DS    1H                    DECIMAL POINT                        89376021
 008932                            11387 RPDOLD DS    1H                    DOLLAR SIGN                          89384021
 008934                            11388 RPLAD  DS    1H                    ADDR FOR INITIALIZING LA IF PRES     89392021
 008936                            11389 RPLSTD DS    1H                    LAST NUM POS AT GIVEN TIME IN SC     89400021
                                   11390 * LENGTHS AND COUNTS                                                    89408021
                                   11391 *                                                                       89416021
 008938                            11392 RPLM1  DS    1H                    NO. INS. CHARS. TO OVERLAY W. FI     89424021
 00893A                            11393 RPLINL DS    1H                    COUNT OF LEFT HAND INS. CHARS.       89432021
 00893C                            11394 RPRINL DS    1H                    COUNT OF RIGHT HAND INS. CHARS.      89440021
 00893E                            11395 RPEVNL DS    1H                    = 1 IF NO. SRC DIGITS IS EVEN        89448021
 008940                            11396 RPNMCT DS    1H                    COUNT OF NUMERIC POSITIONS           89456021
                                   11397 *                                                                       89464021
                                   11398 * SWITCHES                                                              89472021
                                   11399 *                                                                       89480021
 008942                            11400 RPNUMS DS    1C                    TURNED ON BY 1ST NUM. CHAR.          89488021
 008943                            11401 RPSTRS DS    1C                    ON IF FLT. OR SUPP. STRING GOING     89496021
 008944                            11402 RPCHAR DS    1C                    CHAR TO BE PROPAGATED BY RPPROP      89504021
 008945                            11403 RPSIGN DS    1C                    + OR -                               89512021
 008946                            11404 RPBCHR DS    1C                    SUPPRESSION CHAR. (BLANK OR *)       89520021
 008947                            11405 RTSEDS DS    1C                    IF ON, SOURCE IS IN TS1              89528021
1         DIRECT A-TEXT VARIABLE TEXT    V  A  R  I  A  B  L  E                                                 PAGE  254
-  LOC  OBJECT CODE    ADDR1 ADDR2  STMT   SOURCE STATEMENT                                       ASM 0201 11.03 02/14/15
0                                  11406 *                                                                       89536021
                                   11407 * SAVED ADDRESSES                                                       89544021
                                   11408 *                                                                       89552021
 008948                            11409 RPLAST DS    1F                    ADDR OF FINAL RPT PICTURE CHAR       89560021
 00894C                            11410 RPLSTN DS    1F                    ADDR OF LAST NUM CHAR SCANNED        89568021
 008950                            11411 RPSNSV DS    1F                    TO SAVE XRSUB ON ENTRY TO RPSNM      89576021
 008954                      089F0 11412          ORG   RPEQU              REPOSITION AFTER ALL DC AND DS        89584021
                                   11413 *                                                                       89592021
1         E  Q  U  A  T  E  S                                                                                   PAGE  255
-  LOC  OBJECT CODE    ADDR1 ADDR2  STMT   SOURCE STATEMENT                                       ASM 0201 11.03 02/14/15
0                            00000 11415 RW0    EQU   0                                                          89608021
                             00000 11416 R0     EQU     0     'ACCUMULATOR'                                      89616021
                             00001 11417 RW1    EQU     1      INDEX AND WORK REGISTERS                          89624021
                             00002 11418 RW2    EQU     2      *                                                 89632021
                             00003 11419 RW3    EQU     3      *                                                 89640021
                             00004 11420 RW4    EQU     4      *                                                 89648021
                             00005 11421 RW5    EQU     5      *                                                 89656021
                             00006 11422 RW6    EQU     6      *                                                 89664021
                             00008 11423 RB1    EQU   8                                                          89672021
                             00009 11424 STNGR  EQU   9                                                          89680021
                             00081 11425 MCARD  EQU     X'81'   CARD NUMBER CODE                                 89688021
                             00037 11426 MATEXT   EQU   X'37'                                                    89696021
                             0007C 11427 OPSIZ  EQU   124   MAX SIZE NEEDED FOR ENTRIES IN ELEMTB                89704021
                             08199 11428 ANALNO EQU     HEADER+1 ANALYZER NUMBER                                 89712021
                             0819A 11429 ELEMCT EQU     HEADER+2 ELEMENT COUNT                                   89720021
                                   11430 *        EQUATES FOR EXAMINE ANALYZER AND A TEXT GENERATOR              89728021
                             00004 11431 OPD1   EQU   4                                                          89736021
                             00005 11432 OPD2   EQU   5                                                          89744021
                             00006 11433 OPD3   EQU   6                                                          89752021
                             00000 11434 GR1    EQU   0                                                          89760021
                             0000F 11435 GR15   EQU     15                                                       89768021
                             00000 11436 GRX    EQU   0                                                          89776021
                             00001 11437 GRX1   EQU   1                                                          89784021
                             00002 11438 GRY    EQU   2                                                          89792021
                             00003 11439 GRY1   EQU   3                                                          89800021
                             00009 11440 GXRA   EQU   9                                                          89808021
                             00080 11441 HFWORD EQU     X'80'         1 IF HALFWORD WANTED                       89816021
                             00040 11442 TWOADR EQU     X'40'         1 IF SS TYPE INSTRUCTION                   89824021
                             00001 11443 GAD1DN EQU   1        1 IF ADR 1 DONE                                   89832021
                             00020 11444 DECBIN EQU   X'20'           1 IF WANT DEC TO BIN CONVERSION            89840021
                             00010 11445 DBLFPT EQU   X'10'           1 IF DOUBLE FLOATING POINT                 89848021
                             00004 11446 DECOP  EQU   X'04'           1 IF DECIMAL OP                            89856021
                             000FF 11447 SPREG  EQU   X'FF'                'I' FLD IN SPEC REG IDK               89864021
                             0000E 11448 RETRG  EQU   14                                                         89872021
                             00001 11449 XRA    EQU   1                                                          89880021
                             00002 11450 XRB    EQU   2                                                          89888021
                             00001 11451 XRC    EQU   1                                                          89896021
                             0000B 11452 GBRG1  EQU   11              BASE REGISTER FOR EXAMINE AND A TEXT       89904021
                             00003 11453 GR14   EQU   3                                                          89912021
                             00001 11454 QR     EQU   1                     Q ROUTINE REGISTER ASSIGNMENTS       89920021
                             00002 11455 QR2    EQU   2                                                          89928021
                             00003 11456 QR3    EQU   3                                                          89936021
1         E  Q  U  A  T  E  S                                                                                   PAGE  256
-  LOC  OBJECT CODE    ADDR1 ADDR2  STMT   SOURCE STATEMENT                                       ASM 0201 11.03 02/14/15
0                                  11458 *   STANDARD EQUATES FOR BC INSTRUCTIONS                                89952021
                             0000F 11459 UNCOND EQU   15                                                         89960021
                             00002 11460 HI     EQU   2                                                          89968021
                             00004 11461 LO     EQU   4                                                          89976021
                             00008 11462 EQ     EQU   8                                                          89984021
                             0000D 11463 NOTHI  EQU   13                                                         89992021
                             0000B 11464 NOTLO  EQU   11                                                         90000021
                             00007 11465 NOTEQ  EQU   7                                                          90008021
                             00004 11466 NEG    EQU   4                                                          90016021
                             00008 11467 ZERO   EQU   8                                                          90024021
                             0000B 11468 NOTNEG EQU   11                                                         90032021
                             00007 11469 NOTZER EQU   7                                                          90040021
                             00001 11470 ONE      EQU   1                                                        90048021
                             00001 11471 ONES   EQU   1                                                          90056021
                             00004 11472 MIXED  EQU   4                                                          90064021
                             0000E 11473 NOTONE EQU   14                                                         90072021
                             0000B 11474 NOTMXD EQU   11                                                         90080021
                             00000 11475 NOP    EQU   0                                                          90088021
                             08251 11476 GMCTYP EQU   IMM                                                        90096021
                             08784 11477 DOP1   EQU   ELEMTB                                                     90104021
                             08800 11478 DOP2   EQU   ELEMTB+OPSIZ*1                                             90112021
                             0887C 11479 DOP3   EQU   ELEMTB+OPSIZ*2                                             90120021
                             088F8 11480 DOP4   EQU   ELEMTB+OPSIZ*3                                             90128021
                             08974 11481 DOP5   EQU   ELEMTB+OPSIZ*4                                             90136021
                             088F8 11482 SBEGIN EQU   ELEMTB+OPSIZ*3       BEG OF SORT WORK BUFFER               90144021
                             0887E 11483 RPPAT  EQU   DOP3+2                                                     90152021
                             0887D 11484 RPPATM EQU   DOP3+1                                                     90160021
                             0015E 11485 FIVEGN EQU   GNCTR                                                      90168021
                             00093 11486 GCNLGN EQU   COUNT-XL1+1     LENGTH FOR CLEARING WORK AREA              90176021
                             0000A 11487 DON    EQU   PH5CTL                                                     90184021
                             00001 11488 SIGNED EQU   1                                                          90192021
                             0000F 11489 POSI   EQU   X'0F'                                                      90200021
                             0000F 11490 HIBITS EQU   X'0F'               TURN OFF HIGH ORDER 4 BITS             90208021
1         E  Q  U  A  T  E  S                                                                                   PAGE  257
-  LOC  OBJECT CODE    ADDR1 ADDR2  STMT   SOURCE STATEMENT                                       ASM 0201 11.03 02/14/15
0                                  11492 *=1  EQU'S FOR ARITHMETIC.                                              90224021
                                   11493 *      TAMER  DEFINITION  OF TIB  -                                     90232021
                                   11494 *                                                                       90240021
                             00084 11495 XSEGM  EQU   TIB15-COS                                                  90248021
                             00014 11496 XINTR  EQU   TIB1-COS              INTERMEDIATE RESULT TABLE            90256021
                             0001C 11497 XAVAL  EQU   TIB2-COS              TEMP. STORAGE AVAL. TABLE            90264021
                             00024 11498 XSCRPT EQU   TIB3-COS              SUBSCRIPT-INDEX TABLE                90272021
                             0002C 11499 XSSNT  EQU   TIB4-COS              SUBSCRIPT-INDEX ID TABLE             90280021
                             0003C 11500 PNUTBL EQU   TIB6-COS              PN USE TABLE                         90288021
                             00124 11501 RUNTBL   EQU   TIB35-COS                                                90296021
                                   11502 *                                                                       90304021
                                   11503 *  TAMER ADCONS                                                         90312021
                             0012C 11504 XPRIM  EQU   APRIME                                                     90320021
                             00130 11505 XINST EQU   AINSRT                                                      90328021
                             00138 11506 XTABL  EQU   RELADD                                                     90336021
                                   11507 ******************************                                          90344021
                                   11508 *                                                                       90352021
                                   11509 *                                                                       90360021
                                   11510 *      ERROR MESSAGES NUMBER.                                           90368021
                                   11511 *                                                                       90376021
                             00001 11512 ERRN01 EQU   1                                                          90384021
                                   11513 *               ERROR NO  1.LOGIC ERROR IN XRDBIR ROUTINE.              90392021
                             00002 11514 ERRN02 EQU   2                                                          90400021
                                   11515 *               ERROR NO  2.LOGIC ERROR IN SSCRPT ROUTINE.              90408021
                             00003 11516 ERRN03 EQU   3                                                          90416021
                                   11517 *               ERROR NO  3.LEVEL 1 - DIVISOR IS 0.                     90424021
                             00004 11518 ERRN04 EQU   4                                                          90432021
                                   11519 *                 ERROR NO. 4. TRUNCATION OF AN. SENDING FIELD          90440021
                             00005 11520 ERRN05 EQU   5                                                          90448021
                                   11521 *               ERROR NO  5.LOGIC ERROR IN MOVE PROCESSOR.              90456021
                             00006 11522 ERRN06 EQU   6                                                          90464021
                                   11523 *               ERROR NO  6.LOGIC ERROR IN MOVE OR STORE PROCESSOR.     90472021
                             00007 11524 ERRN07 EQU   7                                                          90480021
                                   11525 *               ERROR NO 7.LOGIC ERROR IN XSETVL ROUTINE.               90488021
                             00008 11526 ERRN08 EQU   8                                                          90496021
                                   11527 *               ERROR NO  8.LOGIC ERROR IN FPCVBH ROUTINE.              90504021
                             00009 11528 ERRN09 EQU   9                                                          90512021
                                   11529 *               ERROR NO  9.LOGIC ERROR IN XSUDB3 ROUTINE.              90520021
                             0000A 11530 ERRN10 EQU   10                                                         90528021
                                   11531 *               ERROR NO 10.LEVEL 1.TRUNCATION OF A LIT INT. RES.       90536021
                             0000B 11532 ERRN11 EQU   11                                                         90544021
                                   11533 *               ERROR NO 11.LEVEL 0. POSSIBLE TRUNCATION OF AN IN.      90552021
                                   11534 *                                                                       90560021
                             0000C 11535 ERRN12 EQU   12                                                         90568021
                                   11536 *               ERROR NO 12.LOGIC ERROR.LOST IR IN XINTR TABLE(XINS     90576021
                             0000D 11537 ERRN13 EQU   13                                                         90584021
                                   11538 *            ERROR NUMB.13 COMPARISON OF TWO LITERALS  LEVEL 1          90592021
                             0000E 11539 ERRN14   EQU   14                                                       90600021
                                   11540 *              ERROR NO 14. KEY IN SEARCH ALL AT INVALID OFFSET         90608021
                             0000F 11541 ERRN15 EQU   15                                                         90616021
                                   11542 *              ERROR NO 15. INVALID USE OF SPECIAL REGISTER             90624021
                             00010 11543 ERRN16 EQU   16                                                         90632021
                                   11544 *              ERROR NO. 16. MORE THAN 255 SUBSCRIPT CELLS USED.        90640021
                             00011 11545 ERRN17 EQU   17                                                         90648021
                                   11546 *              ERROR NO. 17. EXHIBIT CHANGED OPERAND GR                 90656021
1         E  Q  U  A  T  E  S                                                                                   PAGE  258
-  LOC  OBJECT CODE    ADDR1 ADDR2  STMT   SOURCE STATEMENT                                       ASM 0201 11.03 02/14/15
0                                  11547 *                  THAN 256 BYTES. ASSUME 256.                          90664021
                             00012 11548 ERRN18 EQU   18                                                         90672021
                                   11549 *            NAME OF IDENTIFIER IN EXHIBIT EXCEEDS MAXIMUM.             90680021
                                   11550 *            TRUNCATED TO 120.                                          90688021
0
                                   11552 *      REG.DEFINITION-                                                  90704021
                                   11553 *      WORK REGISTERS-                                                  90712021
                             00000 11554 XR0    EQU   0                                                          90720021
                             00001 11555 XR1    EQU   1                                                          90728021
                             00002 11556 XR2    EQU   2                                                          90736021
                             00003 11557 XR3    EQU   3                                                          90744021
                             00004 11558 XR4    EQU   4                                                          90752021
                             00005 11559 XR5    EQU   5                                                          90760021
                             00006 11560 XR6    EQU   6                                                          90768021
                             00001 11561 R1       EQU   1                                                  45693 90776021
                             00002 11562 R2       EQU   2                                                  45693 90784021
                             00003 11563 R3       EQU   3                                                  45693 90792021
                             00004 11564 R4       EQU   4                                                  45693 90800021
                             00005 11565 R5       EQU   5                                                  45693 90808021
                             00006 11566 R6       EQU   6                                                  45693 90816021
                             0000D 11567 R13    EQU   13                                                         90824021
                             00000 11568 FRW0   EQU   0                                                          90832021
                             0000F 11569 XR15   EQU   15                                                         90840021
0
                                   11571 *      BASE REGISTERS-                                                  90856021
                             00007 11572 XRBAS1 EQU   7                BASE REG FOR ARITH.                       90864021
                             0000A 11573 XRBAS2 EQU   10                 -   -    -   -  .                       90872021
                             0000D 11574 XRDATA EQU   13                                                         90880021
                             0000C 11575 XRCONS EQU   12                 -   -    - CONSTANTS.                   90888021
                             0000F 11576 XRVAR  EQU   15               VARIABLE BASE REG.                        90896021
                             00009 11577 XRVERB EQU   STNGR            VERBE REGISTER.                           90904021
                             0000E 11578 XRSUB  EQU   14               LINKAGE REGISTER.                         90912021
                             0000F 11579 R15      EQU   15                                                       90920021
                             00060 11580 WORKAB   EQU   96                                                       90928021
0
                                   11582 *************************                                               90944021
                                   11583 *      TRANSFER CODES                                                   90952021
0
                             0000F 11585 UNCON  EQU   15                                                         90968021
                             0000E 11586 NOTHR  EQU   X'E'                                                       90976021
                             00008 11587 XZERO  EQU   8                                                          90984021
                             00004 11588 XONE   EQU   4                                                          90992021
                             00002 11589 XTWO   EQU   2                                                          91000021
                             00001 11590 XTHRE  EQU   1                                                          91008021
                             00007 11591 XNOEQ  EQU   7                                                          91016021
                             0000D 11592 XNOGT  EQU   X'D'                                                       91024021
                             0000C 11593 XLOEQ  EQU   X'C'                                                       91032021
                             0000A 11594 XGTEQ  EQU   X'A'                                                       91040021

                                   11596 *      FLAG IN XGSWT                                                    91056021
                                   11597 *                     1) FLAGS ATTACHED TO THE WHOLE COMPUTE OR IF      91064021
1         E  Q  U  A  T  E  S                                                                                   PAGE  259
-  LOC  OBJECT CODE    ADDR1 ADDR2  STMT   SOURCE STATEMENT                                       ASM 0201 11.03 02/14/15
0                            00001 11598 XROUND EQU   1                ROUND OPTION                              91072021
                             00002 11599 XSIZER EQU   2                ON SIZE ERROR OPTION.                     91080021
                             00004 11600 XADDCR EQU   4                         ADD CORRESPONDING (END OF).      91088021
                             00008 11601 XRFLPT EQU   8                         STORE FIELD IS FLOATING POIN     91096021
                                   11602 *                     2) FLAGS ATTACHED TO AN OPERATION.                91104021
                             00010 11603 XSNONU EQU   X'10'           USED FOR SIZE ERROR IN FP CONVERSION       91112021
                             00020 11604 XIDMOD EQU   X'20'            ID MODE.                                  91120021
                             00040 11605 XAROPE EQU   X'40'            ARITH. OPERATION.                         91128021
                             00080 11606 XBIMOD EQU   X'80'            BINARY MODE.                              91136021
                                   11607 *                                                                       91144021
                                   11608 *                                                                       91152021
                                   11609 *               FLAGS IN XGNSW                                          91160021
                                   11610 *      EQU   1                          USED BY XOTSEM ROUTINE.         91168021
                             00002 11611 XZRDIV EQU   2                                                          91176021
                                   11612 *      EQU   4                          USED FOR ADD CORRESPONDING.     91184021
                             00008 11613 XADABA EQU   8                                                          91192021
                             00010 11614 XDIVON EQU   X'10'                      FLAG FOR MINUS EXPONENT         91200021
                                   11615 *      EQU   X'20'           MESSAGE 11 ALREADY PRINTED.                91208021
                             00040 11616 DIVREM EQU   X'40'               THIS IS DIVIDE ROUNDED REMAINDER       91216021
                             00080 11617 ADDONE EQU   X'80'               ONE HAS BEEN ADDED TO # OF DEC         91224021
0
                                   11619 *      FLAGS IN XOPMOD.                                                 91240021
                                   11620 *                                                                       91248021
                                   11621 *      EQU   1                          NOT USED.                       91256021
                             00002 11622 XFLOAT EQU   2                FLOATING-POINT MODE OPERAND.              91264021
                             00004 11623 XADDFL EQU   4                ADD OR SUB OPERATION.                     91272021
                             00008 11624 XMULFL EQU   8                MULTIPLY OP.                              91280021
                             00010 11625 XDIVOR EQU   X'10'            DIVISOR.                                  91288021
                             00020 11626 XDIVFL EQU   X'20'            DIVISION OP.                              91296021
                             00040 11627 XXSUB  EQU   X'40'            SUBSTRACTION FLAG.                        91304021
                             00080 11628 XALLSN EQU   X'80'                      ALL  SUBSCRIPTS ARE NUMERIC     91312021
0
                             00018 11630 XMUDV  EQU   XMULFL+XDIVOR                                              91328021
                             00028 11631 XMUDVF EQU   XMULFL+XDIVFL                                              91336021
0
                                   11633 *      FLAGS  IN  X1IRX+1 IN OPERAND INFOR. BUFFER.                     91352021
                                   11634 *                                                                       91360021
                             00001 11635 XG2IRX EQU   1                REG USED IN DP MODE.                      91368021
                             00002 11636 XGOVFL EQU   2                OVERFLOW MIGHT OCCUR IN THE OPERATION     91376021
                                   11637 *                             PROCESS ON THIS OPERAND.                  91384021
                             00004 11638 XGDPFP EQU   4                DP FLOATING POINT.                        91392021
                             00008 11639 XINREG EQU   8                OPERAND IS IN A REG.                      91400021
                             00010 11640 XLITER EQU   X'10'            OP. IS A LITERAL.                         91408021
                             00020 11641 XFTPT  EQU   X'20'                      OP. IS FP.                      91416021
                             00040 11642 XGNCON EQU   X'40'            OP. IS A GENERATED CONSTANT.              91424021
                             00080 11643 XLITZR EQU   X'80'            OP. IS A ZERO LITERAL.                    91432021
0
                             00009 11645 XIN2RE EQU   XINREG+XG2IRX                                              91448021
                             00050 11646 XGCOLT EQU   XGNCON+XLITER                                              91456021
                             000D0 11647 XZGNLT EQU   XGCOLT+XLITZR                                              91464021
                                   11648 *                                                                       91472021
1         E  Q  U  A  T  E  S                                                                                   PAGE  260
-  LOC  OBJECT CODE    ADDR1 ADDR2  STMT   SOURCE STATEMENT                                       ASM 0201 11.03 02/14/15
0                            00005 11649 FP2DP  EQU   XG2IRX+XGDPFP                                              91480021
0
0
                                   11652 *      TYPES                                                            91504021
                                   11653 *                                                                       91512021
                             00001 11654 XGGPFL EQU   1                FIXED LENGHT GROUP.                       91520021
                             00002 11655 XGALB  EQU   2                ALPHABETIC.                               91528021
                             00003 11656 XGALN  EQU   3                ALPHANUMERIC.                             91536021
                             00004 11657 XGGPVL EQU   4                VARIABLE LENGHT GROUP.                    91544021
                             00008 11658 XGEXDC EQU   8                EXTERNAL DECIMAL.                         91552021
                             00009 11659 XGEXFP EQU   9                   -     FLOATING POINT.                  91560021
                             0000A 11660 XGINFP EQU   X'0A'            INTERNAL   -       -   .                  91568021
                             0000B 11661 XGBINR EQU   X'0B'            BINARY.                                   91576021
                             0000C 11662 XGINDC EQU   X'0C'            INTERNAL DECIMAL.                         91584021
                             0000E 11663 XGANE    EQU   X'0E'                                                    91592021
0
                                   11665 *      INPUT CODES DEFINITION.                                          91608021
                                   11666 *                                                                       91616021
                             000BA 11667 XGIRI  EQU   X'BA'                                                      91624021
                             000BC 11668 TEMRES EQU   X'BC'                P2 TEXT FOR TEMPORARY RESULT          91632021
                             00030 11669 XGDTN  EQU   X'30'            DATA NAME.                                91640021
                             00033 11670 XGFPL  EQU   X'33'            FLOATIND-POINT LITERAL.                   91648021
                             00036 11671 INDXNM EQU   X'36'                P-2 TEXT FOR INDEX-NAME               91656021
                             00075 11672 XGFCT  EQU   X'75'            FIGURATIVE CONSTANT.                      91664021
                             00039 11673 PLFCON EQU   X'39'                P2 TXT PLURAL FIGCON                  91672021
                             00079 11674 XSTDTN EQU   X'79'            STANDART DATA-NAME.                       91680021
                             00034 11675 XGALC  EQU   X'34'            ALPHA NUMERIC CONSTANT.                   91688021
                             00032 11676 XGNLT  EQU   X'32'            NUMERIC LITERAL.                          91696021
                             000C7 11677 PNDEF    EQU   X'C7'                    P-2 TEXT CODE FOR PN DEF        91704021
                                   11678 *                                                                       91712021
                             00088 11679 GNDEF    EQU   X'88'                     -   -    -    -  GN   -        91720021
                             000C9 11680 VNDEF    EQU   X'C9'                      -  -    -    -  VN   -        91728021
                             000D4 11681 DUMMYPN  EQU   X'D4'         P2 TEXT CODE FOR DUMMY PN REF         2962 91736021
                             000DB 11682 VNREF  EQU   X'DB'                   P-2TEXT CODE FOR VN REFERENCE      91744021
                             000AA 11683 GNREF  EQU   X'AA'                                                      91752021
                             000FA 11684 PFMSAV EQU   X'FA'                                                      91760021
                             00030 11685 PAPNDEF  EQU   X'30'                    PROC-A TEXT CODE FOR PN DEF     91768021
                             00034 11686 PAGNDEF  EQU   X'34'                     -   -   -    -   -  GN   -     91776021
                             00038 11687 PAVNDEF  EQU   X'38'                     -   -   -    -   -  VN   -     91784021
                             0004C 11688 PAPNREF  EQU   X'4C'                   PROC-A TEXT CODE FOR PN REFE     91792021
                             00054 11689 PAVNREF EQU  X'54'                   PROC-A TEXT CODE FOR VN REF.       91800021
                             00007 11690 SETINDI  EQU   7                                                        91808021
0
                                   11692 *      VALUE  OF DISPLACEMENTS IN INPUT STRING                          91824021
                                   11693 *                                                                       91832021
                             00001 11694 XGIRNU EQU   1                DISPLACT. TO GET IR NUMBER.               91840021
                             00003 11695 XGMINC EQU   3                      -       -     MINOR CODE.           91848021
                             00004 11696 XDIDK  EQU   4                DISPLACT.OF ADDRESSING PARAMETERS .       91856021
                             00007 11697 XGSCIN EQU   7                      -       -     SCALE INDICATOR.      91864021
                             00008 11698 XGSCAL EQU   8                      -       -     SCALE VALUE    .      91872021
                             00009 11699 XGDGLG EQU   9                      -       -     DIGIT LENGHT .        91880021
1         E  Q  U  A  T  E  S                                                                                   PAGE  261
-  LOC  OBJECT CODE    ADDR1 ADDR2  STMT   SOURCE STATEMENT                                       ASM 0201 11.03 02/14/15
0                            00004 11700 XGLITV EQU   4                      -       -     LITERAL VALUE.        91888021
                             00001 11701 XGNBYT EQU   1                      -       -     NUMBER OF BYTES       91896021
                             00003 11702 XLIDEC EQU   3                      -       -     DEC.  -    -          91904021
                             00020 11703 XIRNLG EQU   32                                                         91912021
0
                             00080 11705 XGSCSG EQU   X'80'            SCALE SIGN.                               91928021
                             00001 11706 XS2OP  EQU   1                                                          91936021
0
                                   11708 *                                                                       91952021
                                   11709 *      DISPLACT. IN OPERAND INFORMATION BUFFER.                         91960021
                                   11710 *                                                                       91968021
                             00010 11711 Y1LAS  EQU   X1LAS-X1VAL                                                91976021
                             00012 11712 Y1BAS  EQU   X1BAS-X1VAL                                                91984021
                             00014 11713 Y1FAS  EQU   X1FAS-X1VAL                                                91992021
                             00016 11714 Y1DAS  EQU   X1DAS-X1VAL                                                92000021
                             00018 11715 Y1TEL  EQU   X1TEL-X1VAL                                                92008021
                             0001A 11716 Y1TEM  EQU   X1TEM-X1VAL                                                92016021
                             0001C 11717 Y1IRX  EQU   X1IRX-X1VAL                                                92024021
                             0001E 11718 Y1LBS  EQU   X1LBS-X1VAL                                                92032021
                             00020 11719 Y1BBS  EQU   X1BBS-X1VAL                                                92040021
                             00022 11720 Y1FBS  EQU   X1FBS-X1VAL                                                92048021
                             00024 11721 Y1DBS  EQU   X1DBS-X1VAL                                                92056021
                             00026 11722 Y1ALP  EQU   X1ALP-X1VAL                                                92064021
                             00028 11723 Y1IRN  EQU   X1IRN-X1VAL                                                92072021
                             0002A 11724 Y1NPS  EQU   X1NPS-X1VAL                                                92080021
                             0002C 11725 Y1DDP  EQU   X1DDP-X1VAL                                                92088021
                             0002E 11726 Y1IND  EQU   X1IND-X1VAL                                                92096021
                                   11727 *                                                                       92104021
                                   11728 *                                                                       92112021
                             00030 11729 Y1INPT EQU   X1INPT-X1VAL                                               92120021
0
                                   11731 *                                                                       92136021
                                   11732 *      DISPLACT. IN INTERMEDIATE RESULT TABLE.                          92144021
                                   11733 *                                                                       92152021
                             00018 11734 XNTEL  EQU   Y1TEL                                                      92160021
                             0001C 11735 XNIRX  EQU   Y1IRX                                                      92168021
0
0
                                   11738 *                                                                       92192021
                                   11739 *      FLAGS FOR REGISTER ASSIGNATOR.                                   92200021
                                   11740 *                                                                       92208021
                             00001 11741 XRVAL1 EQU   1                OP1 IS IN THIS REGISTER.                  92216021
                             00002 11742 XRVAL2 EQU   2                OP2  -  -  -      -    .                  92224021
                             00004 11743 XRFREE EQU   4                THIS REGISTER IS NOT AVAILABLE.           92232021
                             00008 11744 XRDPRE EQU   8                THIS REGISTER IS USED IN DP MODE.         92240021
                             00010 11745 XRIRNT EQU   X'10'            THIS REGISTER IS USED BY AN INTER.RES     92248021
                             00020 11746 XRSUBS EQU   X'20'            REGISTER USED BY A SUBSCRIPT COMPUTAT     92256021
                             00040 11747 XSUBAC EQU   X'40'            SUBS BEEING COMPUTED.                     92264021
                             00080 11748 FPREGF EQU   X'80'            PERMANENT FLAG FOR FLOATING POINT REG     92272021
1         E  Q  U  A  T  E  S                                                                                   PAGE  262
-  LOC  OBJECT CODE    ADDR1 ADDR2  STMT   SOURCE STATEMENT                                       ASM 0201 11.03 02/14/15
0                            00024 11750 XRFSUB EQU   XRFREE+XRSUBS                                              92288021
                             00003 11751 XRVA12 EQU   XRVAL1+XRVAL2                                              92296021
                             0000B 11752 XRVADP EQU   XRVA12+XRDPRE                                              92304021
                             000F6 11753 XIN2RX EQU   X'F6'                                                      92312021
                             0004B 11754 XRVADS EQU   XRVADP+XSUBAC                                              92320021
                             00043 11755 XSVA12 EQU   XRVA12+XSUBAC                                              92328021
                             00008 11756 XRNEXI EQU   XRAUR1-XRAUR2                                              92336021
0
                             00005 11758 XFIVE  EQU   5                                                          92352021
                             00060 11759 WORKA  EQU   96              DISPLACT. IN TGT OF PARAM AREA.            92360021
                             00070 11760 WORKB  EQU   112                                                        92368021
                             00090 11761 WORKC  EQU   144                                                        92376021
                             000A0 11762 WORKD  EQU   160                                                        92384021
                             000B0 11763 WORKE  EQU   176                                                        92392021
                             00080 11764 WORKF  EQU   128                                                        92400021
                             00078 11765 WORKL  EQU   120                                                        92408021
                             00068 11766 WORKP  EQU   WORKA+8                                                    92416021
0
                                   11768 *      FLAGS FOR SET-MODE ROUTINE.                                      92432021
                                   11769 *                                                                       92440021
                             00002 11770 XHDNBI EQU   2                                                          92448021
                             00004 11771 XHADST EQU   4                                                          92456021

                             00006 11773 XHCLUE EQU   XHDNBI+XHADST                                              92472021
0
0
                                   11776 *      LOAD  REGISTER ROUTINES FLAGS.                                   92496021
                                   11777 *                                                                       92504021
                             00002 11778 XLASRX EQU   2                                                          92512021
                             00001 11779 XL2REG EQU   1                                                          92520021
                             00003 11780 XL2RSX EQU   3                                                          92528021
0
                             00030 11782 XRRRFL EQU   X'30'            2ND BYTE OF I,D,K FIELD IS A REG NUMB     92544021
                             00060 11783 XSUCFL EQU   X'60'            TWO LAST BYTES OF I,D,K = SUBCRIPT CE     92552021
-
0
                             08200 11785 XOP1   EQU   OP1                                                        92568021
                             08204 11786 XOP2   EQU   OP2                                                        92576021
                             085B0 11787 XVAL1  EQU   X1VAL                                                      92584021
                             085E8 11788 XVAL2  EQU   X2VAL                                                      92592021
                             016D0 11789 LPR    EQU   LPRBI                                                      92600021
                             08563 11790 XT1    EQU   XCPSW                                                      92608021
                             08564 11791 XT2    EQU   XSPSW                                                      92616021
-
                                   11793 ******************************                                          92632021
1         E  Q  U  A  T  E  S                                                                                   PAGE  263
-  LOC  OBJECT CODE    ADDR1 ADDR2  STMT   SOURCE STATEMENT                                       ASM 0201 11.03 02/14/15
0                                  11794 *      A-TEXT  ENTRY POINTS.                                            92640021
                                   11795 *                                                                       92648021
                             0212A 11796 A      EQU   ADD                                                        92656021
                             0212A 11797 AP     EQU   ADD                                                        92664021
                             0212A 11798 AR     EQU   ADD                                                        92672021
                             02132 11799 AL     EQU   ADDLBI                                                     92680021
                             0230A 11800 BALR   EQU   BRNLNK                                                     92688021
                             02326 11801 BCTR   EQU   BRNCNT                                                     92696021
                             016C8 11802 SR     EQU   SUB                                                        92704021
                             0214A 11803 M      EQU   MULT                                                       92712021
                             0214A 11804 MR     EQU   MULT                                                       92720021
                             0214A 11805 MH     EQU   MULT                                                       92728021
                             0214A 11806 MP     EQU   MULT                                                       92736021
                             02152 11807 D      EQU   DIV                                                        92744021
                             02152 11808 DP     EQU   DIV                                                        92752021
                             01690 11809 L      EQU   LOAD                                                       92760021
                             01690 11810 LR     EQU   LOAD                                                       92768021
                             01690 11811 LH     EQU   LOAD                                                       92776021
                             0216A 11812 LCR    EQU   LCRBI                                                      92784021
                             01690 11813 ZAP    EQU   LOAD                                                       92792021
                             02162 11814 MVO    EQU   LNRBI                                                      92800021
                             02172 11815 CVB    EQU   CVBBI                                                      92808021
                             0217A 11816 CVD    EQU   CVDBI                                                      92816021
                             016D0 11817 ST     EQU   STORE                                                      92824021
                             016D0 11818 STH    EQU   STORE                                                      92832021
                             022A0 11819 BC     EQU   BRANCH                                                     92840021
                             017E8 11820 CLC    EQU   COMPLG                                                     92848021
                             0215A 11821 LTR    EQU   LTRBI                                                      92856021
                             0215A 11822 PACK   EQU   LTRBI                                                      92864021
                             08200 11823 XJOP1  EQU   OP1                                                        92872021
                             08204 11824 XJOP2  EQU   OP2                                                        92880021
                             08251 11825 XIMM   EQU   IMM                                                        92888021
                             08243 11826 XPLUS1 EQU   PLUS1                                                      92896021
                             0828B 11827 XPLUS2 EQU   PLUS2                                                      92904021
                                   11828 *                                                                       92912021
                                   11829 *                                                                       92920021
                                   11830 ******************************                                          92928021
                             0001C 11831 SEGSAV EQU   28                                                         92936021
                             0793E 11832 GONE     EQU   XC001                                                    92944021
                             0230A 11833 BAL    EQU     BRNLNK                                                   92952021
                             00009 11834 GVERB  EQU     XRVERB                                                   92960021
                             0000F 11835 HCOMSR EQU     XRVAR                                                    92968021
                             000B8 11836 FREF   EQU   X'B8'                 PROC-A FILE REF CODE                 92976021
                             00001 11837 MSWON  EQU     1                                                        92984021
                             000FE 11838 MSWOFF EQU     254                                                      92992021
                             00002 11839 SSWON  EQU   X'02'            SECONDARY BIT SWITCH MASTER - SETTING     93000021
                             000FD 11840 SSWOFF EQU   X'FD'            SECONDARY BIT SWITCH MASTER - RESETTI     93008021
                             00030 11841 MDN    EQU     X'30'                                                    93016021
                             00032 11842 MNLIT  EQU     X'32'                                                    93024021
                             00033 11843 MFPLIT EQU     X'33'                                                    93032021
                             00034 11844 MANLIT EQU     X'34'                                                    93040021
                             00075 11845 MFIGC  EQU     X'75'                                                    93048021
                             00021 11846 MSFN   EQU     X'21'                                                    93056021
                             0007C 11847 LDOP   EQU     OPSIZ               SIZE OF THE DOP AREAS                93064021
                             07F42 11848 HTERM  EQU     CBEND                                                    93072021
1         E  Q  U  A  T  E  S                                                                                   PAGE  264
-  LOC  OBJECT CODE    ADDR1 ADDR2  STMT   SOURCE STATEMENT                                       ASM 0201 11.03 02/14/15
0                            0793E 11849 G1       EQU   GONE                                                     93080021
                             07942 11850 G2       EQU   GTWO                                                     93088021
                             08228 11851 GMACDC EQU     XCON1                                                    93096021
                             08218 11852 GMADCN EQU     RELAD1                                                   93104021
                             00018 11853 MADCON EQU     X'18'                                                    93112021
                             00024 11854 MDC    EQU     X'24'                                                    93120021
                             00004 11855 MENTRY EQU     X'04'                                                    93128021
                             00008 11856 MBLCHG EQU   X'08'                 BLCHNG MACRO TYPE                    93136021
                             00033 11857 MFLIT  EQU     X'33'                                                    93144021
                             00034 11858 MALIT  EQU     X'34'                                                    93152021
                             00075 11859 MFGCON EQU     X'75'                                                    93160021
                             00035 11860 MDNNM  EQU   X'35'                 DN NAME FOR EXHIBIT NAMED            93168021
                             000AA 11861 MRGN   EQU   X'AA'                 RIGHT HAND GN REF                    93176021
                             00218 11862 SWCOUN EQU   XSWCTR                                                     93184021
-
0
1         E  Q  U  A  T  E  S                                                                                   PAGE  265
-  LOC  OBJECT CODE    ADDR1 ADDR2  STMT   SOURCE STATEMENT                                       ASM 0201 11.03 02/14/15
0                            0003E 11865 GCNLN2 EQU   XREG1-XWC1      LENGTH FOR CHANGING ADR TWOS TO ADR ON     93208021
                             00210 11866 ONCTRN EQU   ONCTR           COMMON CELL                                93216021
                             00030 11867 MSDN   EQU   MDN                                                        93224021
                             00021 11868 MFN    EQU     X'21'                                                    93232021
                             07EB0 11869 SORTVI EQU   SORTC1                                                     93240021
                             08739 11870 DIMINR EQU   DNMINR                                                     93248021
                             077D8 11871 ADCALL EQU   ADCN2D                CALL                                 93256021
                             08946 11872 SORCC1 EQU   ELEMTB+450  SORT CONTROL CARD  ELEMTB+620-12*14-2          93264021
                             08947 11873 SORCC2 EQU   SORCC1+1               IMAGE BUILD-UP AREA                 93272021
                             00080 11874 MBDAM  EQU   X'80'                                                      93280021
                             00040 11875 MBSAM  EQU   X'40'                                                      93288021
                             00020 11876 MBISAM EQU   X'20'                                                      93296021
                             00010 11877 MQISAM EQU   X'10'                                                      93304021
                             000E0 11878 MNOQQI EQU   X'E0'                                                      93312021
                             00001 11879 MSYSOU EQU   1  DEVICE CODE FOR    SYSOUT                               93320021
                             00002 11880 MCNSLE EQU   2  DEVICE CODE FOR    CONSOLE                              93328021
                             00003 11881 MSYSPH EQU   3  DEVICE CODE FOR    SYSPCH                               93336021
                             00004 11882 MSYSIN EQU   4  DEVICE CODE FOR    SYSIN                                93344021
                             0000E 11883 FPLENS EQU   14                    SHORT FP LEN AFTER CONV IN PARAM     93352021
                             00017 11884 FPLENL EQU   23                     LONG FP LEN AFTER CONV IN PARAM     93360021
                             00078 11885 MWORKA EQU   120                   DISPLACEMENT OF OTSR WORK AREA       93368021
                             00080 11886 MCLREL EQU   X'80'                 CLOSE REEL (INFO BYTE)               93376021
                             00003 11887 MCLCLR EQU   MSWON+SSWON                                                93384021
                             00002 11888 MAWO   EQU   X'02'                 APPLY WRITE ONLY BIT IN DOP(FN)+     93392021
                             000FA 11889 MPARMA EQU   X'FA'                 PARAM HEADER FROM IC TEXT            93400021
                             00030 11890 MDESTR EQU   X'30'                 MACRO CODE...    DESTROY REGISTE     93408021
                             00028 11891 MRESRV EQU   X'28'                 MACRO CODE...   RESERVE REGISTER     93416021
                             0002C 11892 MFREE  EQU   X'2C'                 MACRO CODE... FREE RESERVED REGS     93424021
                             00031 11893 ADRPLX EQU   PLUS1-XWC1                                                 93432021
                             00008 11894 ADRPLY EQU   XREG1-XVN1                                                 93440021
                             07978 11895 RUNSAV   EQU   SVWJHE                  CHECKPOINT SAVE AREA             93448021
                             089F0 11896 END    EQU   *                                                          93456021
                             00007 11897 R7       EQU   7                                                        93464021
                             00008 11898 R8       EQU   8                                                        93472021
                             0000C 11899 R12      EQU   12                                                       93480021
                             00000 11900 DX0      EQU   0                                                        93488021
                             00000 11901 LX0      EQU   0                                                        93496021
                             00001 11902 DX1      EQU   1                                                        93504021
                             00001 11903 NX1      EQU   1                                                        93512021
                             00001 11904 LX1      EQU   1                                                        93520021
                             00002 11905 DX2      EQU   2                                                        93528021
                             00002 11906 NX2      EQU   2                                                        93536021
                             00002 11907 LX2      EQU   2                                                        93544021
                             00003 11908 DX3      EQU   3                                                        93552021
                             00003 11909 NX3      EQU   3                                                        93560021
                             00003 11910 LX3      EQU   3                                                        93568021
                             00004 11911 DX4      EQU   4                                                        93576021
                             00004 11912 NX4      EQU   4                                                        93584021
                             00004 11913 LX4      EQU   4                                                        93592021
                             00005 11914 DX5      EQU   5                                                        93600021
                             00005 11915 NX5      EQU   5                                                        93608021
                             00005 11916 LX5      EQU   5                                                        93616021
                             00006 11917 DX6      EQU   6                                                        93624021
                             00006 11918 NX6      EQU   6                                                        93632021
                             00006 11919 LX6      EQU   6                                                        93640021
1         E  Q  U  A  T  E  S                                                                                   PAGE  266
-  LOC  OBJECT CODE    ADDR1 ADDR2  STMT   SOURCE STATEMENT                                       ASM 0201 11.03 02/14/15
0                            00007 11920 DX7      EQU   7                                                        93648021
                             00007 11921 NX7      EQU   7                                                        93656021
                             00007 11922 LX7      EQU   7                                                        93664021
                             00008 11923 DX8      EQU   8                                                        93672021
                             00008 11924 NX8      EQU   8                                                        93680021
                             00008 11925 LX8      EQU   8                                                        93688021
                             00009 11926 DX9      EQU   9                                                        93696021
                             00009 11927 NX9      EQU   9                                                        93704021
                             00009 11928 LX9      EQU   9                                                        93712021
                             0000A 11929 DX10     EQU   10                                                       93720021
                             0000A 11930 NX10     EQU   10                                                       93728021
                             0000A 11931 LX10     EQU   10                                                       93736021
                             0000B 11932 DX11     EQU   11                                                       93744021
                             0000B 11933 NX11     EQU   11                                                       93752021
                             0000C 11934 DX12     EQU   12                                                       93760021
                             0000C 11935 NX12     EQU   12                                                       93768021
                             0000D 11936 DX13     EQU   13                                                       93776021
                             0000D 11937 NX13     EQU   13                                                       93784021
                             0000E 11938 DX14     EQU   14                                                       93792021
                             0000E 11939 NX14     EQU   14                                                       93800021
                             0000F 11940 DX15     EQU   15                                                       93808021
                             0000F 11941 NX15     EQU   15                                                       93816021
                             0000F 11942 LX15     EQU   15                                                       93824021
                             00010 11943 DX16     EQU   16                                                       93832021
                             00010 11944 NX16     EQU   16                                                       93840021
                             00010 11945 LX16     EQU   16                                                       93848021
                             00012 11946 DX18     EQU   18                                                       93856021
                             00013 11947 LX19     EQU   19                                                       93864021
                             00014 11948 DX20     EQU   20                                                       93872021
                             00015 11949 DX21     EQU   21                                                       93880021
                             00016 11950 DX22     EQU   22                                                       93888021
                             00017 11951 DX23     EQU   23                                                       93896021
                             00018 11952 DX24     EQU   24                                                       93904021
                             0001A 11953 DX26     EQU   26                                                       93912021
                             0001A 11954 LX26     EQU   26                                                       93920021
                             0001B 11955 DX27     EQU   27                                                 49550 93928021
                             0001C 11956 DX28     EQU   28                                                       93936021
                             0001D 11957 DX29     EQU   29                                                       93944021
                             0001E 11958 DX30     EQU   30                                                       93952021
                             0001E 11959 LX30     EQU   30                                                       93960021
                             0001E 11960 NX30     EQU   30                                                       93968021
                             00020 11961 DX32     EQU   32                                                       93976021
                             00020 11962 LX32     EQU   32                                                       93984021
                             00021 11963 DX33     EQU   33                                                       93992021
                             00023 11964 DX35     EQU   35                                                       94000021
                             00027 11965 DX39     EQU   39                                                       94008021
                             0002A 11966 DX42     EQU   42                                                       94016021
                             00032 11967 LX50     EQU   50                                                       94024021
                             00038 11968 NX56   EQU   56                                                         94032021
                             00078 11969 NX120    EQU   120                                                      94040021
                             00079 11970 NX121    EQU   121                                                      94048021
                             0007A 11971 NX122    EQU   122                                                      94056021
                             0007B 11972 NX123    EQU   123                                                      94064021
                             0007C 11973 LX124    EQU   124                                                      94072021
                             00100 11974 DX256    EQU   256                                                      94080021
1         E  Q  U  A  T  E  S                                                                                   PAGE  267
-  LOC  OBJECT CODE    ADDR1 ADDR2  STMT   SOURCE STATEMENT                                       ASM 0201 11.03 02/14/15
0                            00000 11975 XX00     EQU   X'00'                                                    94088021
                             00084 11976 XX84     EQU   X'84'                                                    94096021
                             00070 11977 XX70     EQU   X'70'                                                    94104021
                             00003 11978 XX03     EQU   X'03'                                                    94112021
                             00044 11979 XX44     EQU   X'44'                                                    94120021
                             0004C 11980 XX4C     EQU   X'4C'                                                    94128021
                             000C0 11981 XXC0     EQU   X'C0'                                                    94136021
                             000FF 11982 XXFF     EQU   X'FF'                                                    94144021
                             00081 11983 XX81     EQU   X'81'                                                    94152021
                             00042 11984 XX42     EQU   X'42'                                                    94160021
                             00007 11985 XX07     EQU   X'07'                                                    94168021
                             00008 11986 XX08     EQU   X'08'                                                    94176021
                             0000A 11987 XX0A     EQU   X'0A'                                                    94184021
                             00040 11988 XX40     EQU   X'40'                                                    94192021
                             0000D 11989 XX0D     EQU   X'0D'                                                    94200021
                             00001 11990 XX01     EQU   X'01'                                                    94208021
                             0002C 11991 XX2C     EQU   X'2C'                                                    94216021
                             00048 11992 XX48     EQU   X'48'                                                    94224021
                             00014 11993 XX14     EQU   X'14'                                                    94232021
                             0007F 11994 XX7F     EQU   X'7F'                                                    94240021
                             0000C 11995 XX0C     EQU   X'0C'                                                    94248021
                             0000F 11996 XX0F     EQU   X'0F'                                                    94256021
                             00002 11997 XX02     EQU   X'02'                                                    94264021
                             00004 11998 XX04     EQU   X'04'                                                    94272021
                             0000B 11999 XX0B     EQU   X'0B'                                                    94280021
                             00009 12000 XX09     EQU   X'09'                                                    94288021
                             00011 12001 XX11     EQU   X'11'                                                    94296021
                             00010 12002 XX10     EQU   X'10'                                                    94304021
                             000FE 12003 XXFE     EQU   X'FE'                                                    94312021
                             00005 12004 XX05     EQU   X'05'                                                    94320021
                             00020 12005 XX20     EQU   X'20'                                                    94328021
                             00080 12006 XX80     EQU   X'80'                                                    94336021
                             000EF 12007 XXEF     EQU   X'EF'                                                    94344021
                             000FD 12008 XXFD     EQU   X'FD'                                                    94352021
                             0002F 12009 XX2F     EQU   X'2F'                                                    94360021
                             0001D 12010 XX1D     EQU   X'1D'                                                    94368021
                             0006D 12011 XX6D     EQU   X'6D'                                                    94376021
                             00064 12012 XX64     EQU   X'64'                                                    94384021
                             0001E 12013 XX1E     EQU   X'1E'                                                    94392021
                             000D0 12014 XXD0     EQU   X'D0'                                                    94400021
                             00060 12015 XX60     EQU   X'60'                                                    94408021
                             000D2 12016 XXD2     EQU   X'D2'                                                    94416021
                             0000E 12017 XX0E     EQU   X'0E'                                                    94424021
                             00018 12018 XX18     EQU   X'18'                                                    94432021
                             00021 12019 XX21     EQU   X'21'                                                    94440021
                             00022 12020 XX22     EQU   X'22'                                                    94448021
                             0004E 12021 XX4E     EQU   X'4E'                                                    94456021
                             000FC 12022 XXFC     EQU   X'FC'                                                    94464021
                             00030 12023 XX30     EQU   X'30'                                                    94472021
                             0001C 12024 XX1C     EQU   X'1C'                                                    94480021
                             00023 12025 XX23     EQU   X'23'                                                    94488021
                             000A0 12026 XXA0     EQU   X'A0'                                                    94496021
                             0001B 12027 XX1B     EQU   X'1B'                                                    94504021
                             00036 12028 XX36     EQU   X'36'                                                    94512021
                             00034 12029 XX34     EQU   X'34'                                                    94520021
1         E  Q  U  A  T  E  S                                                                                   PAGE  268
-  LOC  OBJECT CODE    ADDR1 ADDR2  STMT   SOURCE STATEMENT                                       ASM 0201 11.03 02/14/15
0                            00032 12030 XX32     EQU   X'32'                                                    94528021
                             00033 12031 XX33     EQU   X'33'                                                    94536021
                             00075 12032 XX75     EQU   X'75'                                                    94544021
                             000FA 12033 XXFA     EQU   X'FA'                                                    94552021
                             000F9 12034 XXF9     EQU   X'F9'                                                    94560021
                             00015 12035 XX15     EQU   X'15'                                                    94568021
                             00012 12036 XX12     EQU   X'12'                                                    94576021
                             00050 12037 XX50     EQU   X'50'                                                    94584021
                             00078 12038 XX78     EQU   X'78'                                                    94592021
                             000A4 12039 XXA4     EQU   X'A4'                                                    94600021
                             000F0 12040 XXF0     EQU   X'F0'                                                    94608021
                             0006C 12041 XX6C     EQU   X'6C'                                                    94616021
                             00038 12042 XX38     EQU   X'38'                                                    94624021
                             00058 12043 XX58     EQU   X'58'                                                    94632021
                             0005C 12044 XX5C     EQU   X'5C'                                                    94640021
                             0007C 12045 XX7C     EQU   X'7C'                                                    94648021
                             000B0 12046 XXB0     EQU   X'B0'                                                    94656021
                             000B4 12047 XXB4     EQU   X'B4'                                                    94664021
                             00024 12048 XX24     EQU   X'24'                                                    94672021
                             00041 12049 XX41     EQU   X'41'                                                    94680021
                             000C1 12050 XXC1     EQU   X'C1'                                                    94688021
                             000B8 12051 XXB8     EQU   X'B8'                                                    94696021
                             00006 12052 XX06     EQU   X'06'                                                    94704021
                             000E0 12053 XXE0     EQU   X'E0'                                                    94712021
                             00088 12054 XX88     EQU   X'88'                                                    94720021
                             00068 12055 XX68     EQU   X'68'                                                    94728021
                             000C8 12056 XXC8     EQU   X'C8'                                                    94736021
                             00090 12057 XX90     EQU   X'90'                                                    94744021
                             0001A 12058 XX1A     EQU   X'1A'                                                    94752021
                             0001F 12059 XX1F     EQU   X'1F'                                                    94760021
                             00019 12060 XX19     EQU   X'19'                                                    94768021
                             00013 12061 XX13     EQU   X'13'                                                    94776021
                             0004F 12062 XX4F     EQU   X'4F'                                                    94784021
                             00016 12063 XX16     EQU   X'16'                                                    94792021
                             00017 12064 XX17     EQU   X'17'                                                    94800021
                             00092 12065 XX92     EQU   X'92'                                                    94808021
                             00095 12066 XX95     EQU   X'95'                                                    94816021
                             00096 12067 XX96     EQU   X'96'                                                    94824021
                             00097 12068 XX97     EQU   X'97'                                                    94832021
                             00094 12069 XX94     EQU   X'94'                                                    94840021
                             00091 12070 XX91     EQU   X'91'                                                    94848021
                             00043 12071 XX43     EQU   X'43'                                                    94856021
                             0008E 12072 XX8E     EQU   X'8E'                                                    94864021
                             00098 12073 XX98     EQU   X'98'                                                    94872021
                             00028 12074 XX28     EQU   X'28'                                                    94880021
                             0003A 12075 XX3A     EQU   X'3A'                                                    94888021
                             0002A 12076 XX2A     EQU   X'2A'                                                    94896021
                             0003B 12077 XX3B     EQU   X'3B'                                                    94904021
                             0002B 12078 XX2B     EQU   X'2B'                                                    94912021
                             0003F 12079 XX3F     EQU   X'3F'                                                    94920021
                             00039 12080 XX39     EQU   X'39'                                                    94928021
                             00029 12081 XX29     EQU   X'29'                                                    94936021
                             0003C 12082 XX3C     EQU   X'3C'                                                    94944021
                             0003D 12083 XX3D     EQU   X'3D'                                                    94952021
                             0002D 12084 XX2D     EQU   X'2D'                                                    94960021
1         E  Q  U  A  T  E  S                                                                                   PAGE  269
-  LOC  OBJECT CODE    ADDR1 ADDR2  STMT   SOURCE STATEMENT                                       ASM 0201 11.03 02/14/15
0                            00031 12085 XX31     EQU   X'31'                                                    94968021
                             000DF 12086 XXDF     EQU   X'DF'                                                    94976021
                             000F6 12087 XXF6     EQU   X'F6'                                                    94984021
                             000F5 12088 XXF5     EQU   X'F5'                                                    94992021
                             000F3 12089 XXF3     EQU   X'F3'                                                    95000021
                             00074 12090 XX74     EQU   X'74'                                                    95008021
                             0008F 12091 XX8F     EQU   X'8F'                                                    95016021
                             000C5 12092 XXC5     EQU   X'C5'                                                    95024021
                             00035 12093 XX35     EQU   X'35'                                                    95032021
                             000BF 12094 XXBF     EQU   X'BF'                                                    95040021
                             00025 12095 XX25     EQU   X'25'                                                    95048021
                             0006B 12096 XX6B     EQU   X'6B'                                                    95056021
                             000CE 12097 XXCE     EQU   X'CE'                                                    95064021
                             00082 12098 XX82     EQU   X'82'                                                    95072021
                             0006E 12099 XX6E     EQU   X'6E'                                                    95080021
                             00051 12100 XX51     EQU   X'51'                                                    95088021
                             00055 12101 XX55     EQU   X'55'                                                    95096021
                             000BB 12102 XXBB     EQU   X'BB'                                                    95104021
                             0007A 12103 XX7A     EQU   X'7A'                                                    95112021
                             0004B 12104 XX4B     EQU   X'4B'                                                    95120021
                             0006F 12105 XX6F     EQU   X'6F'                                                    95128021
                             00073 12106 XX73     EQU   X'73'                                                    95136021
                             00027 12107 XX27     EQU   X'27'                                                    95144021
                             00072 12108 XX72     EQU   X'72'                                                    95152021
                             000AA 12109 XXAA     EQU   X'AA'                                                    95160021
                             000F0 12110 XC0      EQU   C'0'                                                     95168021
                             000F9 12111 XC9      EQU   C'9'                                                     95176021
                             000E9 12112 XCZ      EQU   C'Z'                                                     95184021
                             000D4 12113 XCM      EQU   C'M'                                                     95192021
                             000C5 12114 XCE      EQU   C'E'                                                     95200021
                             000E6 12115 XCW      EQU   C'W'                                                     95208021
                             000C9 12116 XCI      EQU   C'I'                                                     95216021
                             000E4 12117 XCU      EQU   C'U'                                                     95224021
                             000C6 12118 XCF      EQU   C'F'                                                     95232021
                             000E5 12119 XCV      EQU   C'V'                                                     95240021
                             000C1 12120 XCA      EQU   C'A'                                                     95248021
                             000C4 12121 XCD      EQU   C'D'                                                     95256021
                             0000B 12122 LX11     EQU   11                                                       95264021
                             0000C 12123 LX12     EQU   12                                                       95272021
                             0000E 12124 LX14     EQU   14                                                       95280021
                             00011 12125 LX17     EQU   17                                                       95288021
                             00012 12126 LX18     EQU   18                                                       95296021
                             00014 12127 LX20     EQU   20                                                       95304021
                             00017 12128 LX23     EQU   23                                                       95312021
                             00019 12129 LX25     EQU   25                                                       95320021
                             0001F 12130 LX31     EQU   31                                                       95328021
                             00046 12131 LX70     EQU   70                                                       95336021
                             0005A 12132 LX90     EQU   90                                                       95344021
                             00078 12133 LX120    EQU   120                                                      95352021
                             00052 12134 XX52     EQU   X'52'                                                    95360021
 007FFC                            12135          END   PHASE50                                                  95368021
1                                                  RELOCATION DICTIONARY                                        PAGE  270
-POS.ID   REL.ID   FLAGS   ADDRESS                                                                ASM 0201 11.03 02/14/15
0 000B     0001      0C     007754
  000B     0001      0C     007758
  000B     0001      0C     00775C
  000B     0001      0C     007760
  000B     0001      0C     007764
  000B     0001      0C     007768
  000B     0001      0C     00776C
  000B     0001      0C     007770
  000B     0001      0C     007774
  000B     0001      0C     00777C
  000B     0001      0C     007780
  000B     0001      0C     007784
  000B     0001      0C     007788
  000B     0001      0C     00778C
  000B     0001      0C     007790
  000B     0001      0C     007794
  000B     0001      0C     00779C
  000B     0001      0C     0077A0
  000B     0001      0C     0077A4
  000B     0001      0C     0077A8
  000B     0001      0C     0077AC
  000B     0001      0C     0077B8
  000B     0001      0C     0077BC
  000B     0001      0C     0077C0
  000B     0001      0C     0077C4
  000B     0001      0C     0077C8
  000B     0001      0C     0077CC
  000B     0001      0C     0077D0
  000B     0001      0C     0077D4
  000B     0001      0C     0077D8
  000B     0001      0C     0077DC
  000B     0001      0C     0077E0
  000B     0001      0C     0077E4
  000B     0001      0C     0077E8
  000B     0001      0C     0077EC
  000B     0001      0C     0077F0
  000B     0001      0C     0077F4
  000B     0001      0C     0077F8
  000B     0001      0C     0077FC
  000B     0001      0C     007800
  000B     0001      0C     007804
  000B     0001      0C     00780C
  000B     0001      0C     007810
  000B     0001      0C     007814
  000B     0001      0C     007818
  000B     0001      0C     00781C
  000B     0001      0C     007820
  000B     0001      0C     007824
  000B     0001      0C     007828
  000B     0001      0C     00782C
  000B     0001      0C     007830
  000B     0001      0C     007834
  000B     0001      0C     007838
  000B     0001      0C     00783C
  000B     0001      0C     007840
1                                                  RELOCATION DICTIONARY                                        PAGE  271
-POS.ID   REL.ID   FLAGS   ADDRESS                                                                ASM 0201 11.03 02/14/15
0 000B     0001      0C     007844
  000B     0001      0C     007848
  000B     0001      0C     00784C
  000B     0001      0C     007850
  000B     0001      0C     007854
  000B     0001      0C     007858
  000B     0001      0C     00785C
  000B     0001      0C     007860
  000B     0001      0C     007864
  000B     0001      0C     007868
  000B     0001      0C     00786C
  000B     0001      0C     007870
  000B     0001      0C     007874
  000B     0001      0C     007878
  000B     0001      0C     00787C
  000B     0001      0C     007880
  000B     0001      0C     007884
  000B     0001      0C     007888
  000B     0001      0C     00788C
  000B     0001      0C     007890
  000B     0001      0C     007894
  000B     0001      0C     007898
  000B     0001      0C     0078A4
  000B     0001      0C     0078A8
  000B     0001      0C     0078AC
  000B     0001      0C     0078B0
  000B     0001      0C     0078B4
  000B     0001      0C     0078B8
  000B     0001      0C     0078D4
  000B     0001      0C     0078DC
  000B     0001      0C     0078E0
  000B     0001      0C     0078E4
  000B     0001      0C     0078E8
  000B     0001      0C     0078EC
  000B     0001      0C     0078F0
  000B     0001      0C     0078F4
  000B     0001      0C     0078F8
  000B     0001      0C     007E7C
  000B     0001      0C     0080A8
  000B     0002      0C     0080AC
  000B     0003      0C     0080B0
  000B     0004      0C     00772C
  000B     0004      0C     007734
  000B     0004      0C     007778
  000B     0004      0C     007808
  000B     0005      0C     007724
  000B     0005      0C     007728
  000B     0005      0C     007730
  000B     0005      0C     0077B0
  000B     0005      0C     0077B4
  000B     0005      0C     00789C
  000B     0005      0C     0078A0
  000B     0005      0C     0078D8
  000B     0005      0C     007E6C
  000B     0005      0C     007E70
1                                                  RELOCATION DICTIONARY                                        PAGE  272
-POS.ID   REL.ID   FLAGS   ADDRESS                                                                ASM 0201 11.03 02/14/15
0 000B     0006      0C     00773C
  000B     0006      0C     007740
  000B     0006      0C     007744
  000B     0006      0C     007748
  000B     0006      0C     00774C
  000B     0006      0C     007750
  000B     0006      0C     0078BC
  000B     0006      0C     0078C0
  000B     0006      0C     0078C4
  000B     0006      0C     0078C8
  000B     0006      0C     0078CC
  000B     0006      0C     0078D0
  000B     0006      0C     007E80
  000B     0007      0C     007798
  000B     0008      0C     007738
  000B     0008      0C     0078FC
  000B     0008      0C     007E78
  000B     0009      0C     007E74
  000B     000A      0C     007E4C
  000B     000A      0C     007EBC
  000B     000A      0C     007EC0
  000B     000B      0C     0080B4
  000B     000C      0C     007E50
  000B     000C      0C     007E54
  000B     000C      0C     007E58
  000B     000C      0C     007E5C
  000B     000C      0C     007E60
  000B     000C      0C     007E64
  000B     000C      0C     007E68
  000B     000C      0C     007FF8
  000B     000C      0C     0080B8
  000B     000C      0C     0080BC
  000C     000C      0C     008208
  000C     000C      0C     0084B4
  000C     000C      0C     0084BC
  000C     000C      0C     0084C4
  000C     000C      0C     0084CC
  000C     000C      0C     0086F4
  000C     000C      0C     0086FC
  000C     000C      0C     008704
  000C     000C      0C     00870C
  000C     000C      0C     008714
  000C     000C      0C     00871C

1                                                  ASSEMBLER DIAGNOSTICS AND STATISTICS                         PAGE  273
-                                                                                                 ASM 0201 11.03 02/14/15
0NO STATEMENTS FLAGGED IN THIS ASSEMBLY
 HIGHEST SEVERITY WAS    0
 OPTIONS FOR THIS ASSEMBLY
   ALIGN, ALOGIC, BUFSIZE(STD), DECK, ESD, FLAG(0), LINECOUNT(55), LIST, NOMCALL, YFLAG, WORKSIZE(2097152)
   NOMLOGIC, NONUMBER, NOOBJECT, NORENT, RLD, NOSTMT, NOLIBMAC, NOTERMINAL, NOTEST, NOXREF(SHORT)
   SYSPARM()
 WORK FILE BUFFER SIZE/NUMBER = 2558/ 1
 TOTAL RECORDS READ FROM SYSTEM INPUT      11921
 TOTAL RECORDS READ FROM SYSTEM LIBRARY      218
 TOTAL RECORDS PUNCHED                       622
 TOTAL RECORDS PRINTED                     12984
