1         IKFCBL51: WRITE VERB PROCESSOR W R I T E/R E W R I T E                                                PAGE  174
-  LOC  OBJECT CODE    ADDR1 ADDR2  STMT   SOURCE STATEMENT                                       ASM 0201 11.03 02/14/15
0                            05846  8045 REWR08   EQU   *                                                        54810021
 005846 45E0 78D2      008D2        8046          BAL   RETRG,GATXTV            *  MVI  5(3),WRITE-ADD-CODE      54817021
 00584A 000D                        8047          DC    AL2(IOTXTC-ATXTBV)                                       54824021
 00584C 0006                        8048          DC    AL2(IOTXTD-IOTXTC)                                       54831021
 00584E 9101 D61C      081B4        8049          TM    REWRSW,MSWON        REWRITE...                           54838021
 005852 4710 95C8      05868        8050          BO    REWR07E             YES                                  54845021
 005856 9108 DD52      088EA        8051          TM    DOP1+NX6,XX08            BDAM-D?                         54852021
 00585A 47E0 95C8      05868        8052          BNO   REWR07E                 NO, SKIP GN DEF                  54859021
 00585E D201 D305 D819 07E9D 083B1  8053          MVC   GLGNCN+NX3(LX2),IOTXTDD4                                 54866021
 005864 45E0 BA24      0189C        8054          BAL   RETRG,GNOPT3            GN2DEF                           54873021
 005868                             8055 REWR07E  DS    0H                                                       54880021
 005868 45E0 7A28      00A28        8056          BAL   RETRG,INVCK         INVALID KEY CODED...           58971 54887021
 00586C 4770 95D4      05874        8057          BNE   REWR07B            NO INVALID KEY                        54894021
 005870 45E0 7A10      00A10        8058          BAL   RETRG,INVKEY            YES                              54901021
 005874                             8059 REWR07B  DS    0H                                                       54908021
 005874 9102 D61E      081B6        8060          TM    RECMODE,UTYPE                                            54915021
 005878 4710 9600      058A0        8061        BC    ONES,WRIT17          YES                                   54922021
 00587C 9101 D61E      081B6        8062          TM    RECMODE,STYPE            SPANNED?                        54929021
 005880 4710 95EC      0588C        8063          BC    ONES,REWR07F              YES                            54936021
 005884 9108 D61E      081B6        8064          TM    RECMODE,VTYPE                                            54943021
 005888 47E0 9610      058B0        8065          BC    NOTONE,WRIT22       IF NOT VTYPE,  GO TO WRIT22          54950021
 00588C                             8066 REWR07F  DS    0H                                                       54957021
 00588C 9201 D198      07D30        8067          MVI   XREG1,XX01                                               54964021
 005890 45E0 96E0      05980        8068          BAL   RETRG,WRIS04            *  L  1,RCDLNGTH                 54971021
 005894 45E0 78D2      008D2        8069        BAL   RETRG,GATXTV          PUT A TEXT                           54978021
 005898 0066                        8070        DC    AL2(IOTXTL-ATXTBV)                                         54985021
 00589A 001E                        8071        DC    AL2(IOTXTM-IOTXTL)                                         54992021
 00589C 47F0 9610      058B0        8072        BC    UNCOND,WRIT22         GO TO WRIT22                         54999021
0
 0058A0                             8074 WRIT17   DS    0H                                                       55013021
 0058A0 9201 D198      07D30        8075          MVI   XREG1,XX01                                               55020021
 0058A4 45E0 96E0      05980        8076          BAL   RETRG,WRIS04            *  L  1,RCDLNGTH                 55027021
 0058A8 45E0 78C6      008C6        8077          BAL   RETRG,GATXTC            *  STH  1,6(4)                   55034021
 0058AC 0132                        8078        DC    AL2(ATXT86-ATXTBC)                                         55041021
 0058AE 0006                        8079        DC    AL2(ZTXT86-ATXT86)                                         55048021
 0058B0 45E0 78D2      008D2        8080 WRIT22 BAL   RETRG,GATXTV          PUT A TEXT                           55055021
 0058B4 0033                        8081        DC    AL2(IOTXTI-ATXTBV)                                         55062021
 0058B6 0020                        8082        DC    AL2(IOTXTJ-IOTXTI)                                         55069021
 0058B8 45E0 7CCC      00CCC        8083        BAL   RETRG,WRKLRX         DESTROY 14, 15                        55076021
 0058BC 47F0 9806      05AA6        8084          B     REWREX             GO TO REWREX                          55083021
                                    8085 *                                                                       55090021
                                    8086 *        BSAM  BY DEFAULT                                               55097021
                                    8087 *                                                                       55104021
 0058C0 D501 DEC0 C834 08A58 07664  8088 WRIT16   CLC   DOP4(LX2),ONZERO     IS MOVE EXPECTED...                 55111021
 0058C6 4780 9632      058D2        8089          BE    WRIT35                  NO                               55118021
 0058CA 45E0 7884      00884        8090          BAL   RETRG,IOQRTN            CALL QRTNS                       55125021
 0058CE 47F0 700A      0000A        8091          B     DON                 RETURN PHASE 5 CONTROL               55132021
-
 0058D2 94FE D61D      081B5        8093 WRIT35 NI    WRITSW,MSWOFF          NO, OR COMPLETED                    55146021
 0058D6 910B D61E      081B6        8094          TM    RECMODE,VTYPE+UTYPE+STYPE                                55153021
 0058DA 4780 9646      058E6        8095          BC    ZERO,WRIT35AA       GO TO WRIT35AA                       55160021
 0058DE 9202 D198      07D30        8096          MVI   XREG1,XX02                                               55167021
1         IKFCBL51: WRITE VERB PROCESSOR W R I T E/R E W R I T E                                                PAGE  175
-  LOC  OBJECT CODE    ADDR1 ADDR2  STMT   SOURCE STATEMENT                                       ASM 0201 11.03 02/14/15
00058E2 45E0 96E0      05980        8097        BAL   RETRG,WRIS04         *    L    2,RCD-LNG                   55174021
 0058E6 4120 DD4C      088E4        8098 WRIT35AA LA    RW2,DOP1                                                 55181021
 0058EA 45E0 7BEE      00BEE        8099        BAL   RETRG,IOBS01          GENERATE CALLING SEQ TO 'BSAMRT'     55188021
 0058EE 47F0 9806      05AA6        8100        BC    UNCOND,REWREX         GO TO REWREX FOR EXIT                55195021
0
 0058F2 94FE D618      081B0        8102 WRIT02   NI    WRSW01,MSWOFF       INDICATE PATH THRU WRIT03 SEQUEN     55209021
 0058F6 47F0 9242      054E2        8103          BC    UNCOND,WRIT03       GO TO WRIT03                         55216021
0
 0058FA 45E0 9788      05A28        8105 WRIT04   BAL   RETRG,WRIS05        *    MVC  RN(1),DN+LENGTH-1          55230021
 0058FE 47F0 9242      054E2        8106          BC    UNCON,WRIT20        GO TO WRIT20                         55237021
                                    8107 *              THESE ROUTINES DEVELOP A-TEXT FOR THE                    55244021
                                    8108 *               MORE INVOLVED GENERATED INSTRUCTIONS.                   55251021
 005902 50E0 C400      07230        8109 WRIS01   ST    RETRG,SVWJHE             COMMON SAVER                    55258021
 005906 1BEE                        8110        SR    RETRG,RETRG                                                55265021
 005908 43E0 DE48      089E0        8111          IC    RETRG,DOP3+NX4  DETERMINE CARRIAGE CONTROL CHARACTER     55272021
 00590C 88E0 0004      00004        8112          SRL   RETRG,DX4                                                55279021
 005910 41EE C89D      076CD        8113        LA    RETRG,WRISC1(RETRG)                                        55286021
 005914 D200 D199 E000 07D31 00000  8114          MVC   IMM(LX1),DX0(RETRG)                                      55293021
 00591A 41E0 DF3C      08AD4        8115          LA    RETRG,DOP5                                               55300021
 00591E 50E0 D148      07CE0        8116          ST    RETRG,OP1                                                55307021
 005922 45E0 BABC      01934        8117          BAL   RETRG,MVI           *    MVI  RCD-NAME,X'C-C'            55314021
 005926 58E0 C400      07230        8118          L     RETRG,SVWJHE                                             55321021
 00592A 07FE                        8119          BCR   UNCON,RETRG         GO TO CALLER                         55328021
 00592C 50E0 C400      07230        8120 WRIS02   ST    RETRG,SVWJHE                                             55335021
 005930 D200 D7C2 DD51 0835A 088E9  8121          MVC   IOTXTAA1(LX1),DOP1+NX5    DCB NO.                        55342021
 005936 45E0 78D2      008D2        8122          BAL   RETRG,GATXTV        PUT A TEXT                           55349021
 00593A 0190                        8123          DC    AL2(IOTXTAA-ATXTBV)     *  L  1,DCBADR                   55356021
 00593C 000A                        8124          DC    AL2(IOTXTBB-IOTXTAA)    *  LR  2,1                       55363021
 00593E 9101 D61C      081B4        8125          TM    REWRSW,MSWON        REWRITE...                     49529 55370021
 005942 4710 96DA      0597A        8126          BO    WRIS02A             YES                            49529 55377021
 005946 45E0 98EA      05B8A        8127          BAL   RETRG,TSTEOP        TEST FOR GEN CODE                    55384021
 00594A 4770 96DA      0597A        8128          BC    NOTEQ,WRIS02A       IF NOT GO TO WRIS02A                 55391021
 00594E 9102 DD52      088EA        8129          TM    DOP1+NX6,MAWO            AWO                             55398021
 005952 4710 96BE      0595E        8130          BO    WRIS02C                 YES                              55405021
 005956 9108 DD56      088EE        8131          TM    DOP1+NX10,XX08           SRA OR ADVANCING                55412021
 00595A 4780 96CE      0596E        8132          BZ    WRIS02B                 NO                               55419021
 00595E                             8133 WRIS02C  DS    0H                                                       55426021
 00595E 9240 D17C      07D14        8134          MVI   XCON1+NX12,XX40                                          55433021
 005962 9204 D180      07D18        8135          MVI   XCON1+NX16,XX04                                          55440021
 005966 9202 D198      07D30        8136          MVI   XREG1,XX02                                               55447021
 00596A 45E0 BA9C      01914        8137          BAL   RETRG,ORLG              *  O  2,=X'40000000'             55454021
                                    8138 *        SIGNA L TO ILBOPTV FOR SPECIAL TREATMENT                       55461021
 00596E                             8139 WRIS02B  DS    0H                                                       55468021
 00596E 4130 C768      07598        8140          LA    RW3,PTOVCON1                                             55475021
 005972 45E0 77DE      007DE        8141          BAL   RETRG,VBALRE            GEN BRANCH TO ILBOPTV1           55482021
 005976 45E0 7CCC      00CCC        8142        BAL   RETRG,WRKLRX         DESTROY 14, 15                        55489021
                             0597A  8143 WRIS02A  EQU   *                                                        55496021
 00597A 58E0 C400      07230        8144          L     RETRG,SVWJHE                                             55503021
 00597E 07FE                        8145          BCR   UNCOND,RETRG        RETURN TO CALLER                     55510021
 005980 90E4 C400      07230        8146 WRIS04   STM   RETRG,RW4,SVWJHE                                         55517021
 005984 47F0 9752      059F2        8147          B     WRS044              EXIT FROM ROUTINE              44682 55524021
 005988 4770 9752      059F2        8148          BNZ   WRS044                  NO                               55531021
 00598C 9102 DD52      088EA        8149          TM    DOP1+NX6,MAWO            APPLY WRITE ONLY?               55538021
1         IKFCBL51: WRITE VERB PROCESSOR W R I T E/R E W R I T E                                                PAGE  176
-  LOC  OBJECT CODE    ADDR1 ADDR2  STMT   SOURCE STATEMENT                                       ASM 0201 11.03 02/14/15
0005990 47E0 9752      059F2        8150          BNO   WRS044                  NO                               55545021
 005994 4120 DF3C      08AD4        8151          LA    RW2,DOP5                POINT TO RN                      55552021
 005998 D200 DDE6 D198 0897E 07D30  8152          MVC   DOP2+NX30(LX1),XREG1      SAVE XREG1                     55559021
 00599E 45E0 77F0      007F0        8153          BAL   RETRG,CALCLG            GET LENGTH OR VLC                55566021
 0059A2 47F0 9752      059F2        8154          B     WRS044                  NOT A PROPER ITEM                55573021
 0059A6 9180 D550      080E8        8155          TM    LENGTH,XX80              ODO?                            55580021
 0059AA 47E0 9752      059F2        8156          BNO   WRS044                  NO SKIP SPECIAL PROCESSING       55587021
 0059AE D201 D189 D552 07D21 080EA  8157          MVC   XCNTR1+NX1(LX2),LENGTH+NX2 VLC NUMBER                    55594021
 0059B4 9204 D188      07D20        8158          MVI   XCNTR1,XX04                                              55601021
 0059B8 4120 DEC0      08A58        8159          LA    RW2,DOP4                POINT TO DN                      55608021
 0059BC 45E0 77F0      007F0        8160          BAL   RETRG,CALCLG            GET VLC NUMBER FOR DN            55615021
 0059C0 47F0 9752      059F2        8161          B     WRS044                  NOT A PROPER ITEM                55622021
 0059C4 9180 D550      080E8        8162          TM    LENGTH,XX80              ODO?                            55629021
 0059C8 47E0 973A      059DA        8163          BNO   WRS047                  NO, MUST BE A CONSTANT           55636021
 0059CC D201 D1D1 D552 07D69 080EA  8164          MVC   XCNTR2+NX1(LX2),LENGTH+NX2 VLC NUMBER                    55643021
 0059D2 9204 D1D0      07D68        8165          MVI   XCNTR2,XX04                                              55650021
 0059D6 47F0 9744      059E4        8166          B     WRS048              GO TO WRS048                         55657021
0
 0059DA                             8168 WRS047   DS    0H                                                       55671021
 0059DA D201 D1C6 D552 07D5E 080EA  8169          MVC   XCON2+NX14(LX2),LENGTH+NX2 LENGTH IS CONSTANT            55678021
 0059E0 9202 D1C8      07D60        8170          MVI   XCON2+NX16,XX02          LENGTH OF CONSTANT IS 2         55685021
 0059E4                             8171 WRS048   DS    0H                                                       55692021
 0059E4 9202 D159      07CF1        8172          MVI   XL1+NX1,XX02             LENGTH OF RECEIVING FIELD IS 2  55699021
 0059E8 45E0 B18C      01004        8173          BAL   RETRG,MVC               *  MVC  VLC-FOR-FILE,CONSTANT    55706021
                                    8174 *                                 OR  *  MVC  VLC-FOR-FILE,VLC-FOR-DN   55713021
 0059EC D200 D198 DDE6 07D30 0897E  8175          MVC   XREG1,DOP2+NX30          RESTORE XREG1                   55720021
 0059F2                             8176 WRS044   DS    0H                                                       55727021
 0059F2 4120 DF3C      08AD4        8177        LA    RW2,DOP5              POINTER TO RECORD, ASSUMED VL        55734021
 0059F6 45E0 77F0      007F0        8178          BAL   RETRG,CALCLG        OBTAIN LENGTH VLC                    55741021
 0059FA 47F0 9774      05A14        8179          BC    UNCOND,WRS041        NOT PROPER ITEM, BYPASS             55748021
 0059FE 9180 D550      080E8        8180          TM    LENGTH,XX80          IS THIS PARTICULAR REC VL...        55755021
 005A02 4780 977A      05A1A        8181        BC    ZERO,WRS042             NO                                 55762021
 005A06 D201 D189 D552 07D21 080EA  8182          MVC   XCNTR1+NX1(LX2),LENGTH+NX2 VLC NUMBER                    55769021
 005A0C 9204 D188      07D20        8183          MVI   XCNTR1,XX04                                              55776021
                             05A10  8184 WRS043 EQU   *                     *    LH   0,LIT=LENGTH  ... OR .     55783021
 005A10 45E0 B000      00E78        8185          BAL   RETRG,LOAD          *    L    0,VLC=RECORD               55790021
 005A14 98E4 C400      07230        8186 WRS041   LM    RETRG,RW4,SVWJHE                                         55797021
 005A18 07FE                        8187          BCR   UNCON,RETRG         RETURN TO CALLER                     55804021
 005A1A D201 D17E D552 07D16 080EA  8188 WRS042   MVC   XCON1+NX14(LX2),LENGTH+NX2                               55811021
 005A20 9202 D180      07D18        8189          MVI   XCON1+NX16,XX02                                          55818021
 005A24 47F0 9770      05A10        8190        BC    UNCOND,WRS043         GO TO WRS04                          55825021
0
 005A28 90E2 C400      07230        8192 WRIS05   STM   RETRG,RW2,SVWJHE                                         55839021
 005A2C 9201 D159      07CF1        8193          MVI   XL1+NX1,XX01                                             55846021
 005A30 4120 DF3C      08AD4        8194          LA    RW2,DOP5                                                 55853021
 005A34 5020 D148      07CE0        8195          ST    RW2,OP1                                                  55860021
 005A38 4120 DE44      089DC        8196          LA    RW2,DOP3                                                 55867021
 005A3C 5020 D14C      07CE4        8197          ST    RW2,OP2                                                  55874021
 005A40 45E0 77F0      007F0        8198          BAL   RETRG,CALCLG        GET LENGTH OF DN IN DOP3             55881021
 005A44 47F0 97A8      05A48        8199          BC    UNCOND,WRIT19       IMPOSSIBLE                           55888021
 005A48 5820 D550      080E8        8200 WRIT19   L     RW2,LENGTH          GET DISPL OF LOW ORDER               55895021
 005A4C 0620                        8201        BCTR  RW2,RW0                BYTE OF DN                          55902021
 005A4E 5020 D338      07ED0        8202          ST    RW2,GTEMP                                                55909021
1         IKFCBL51: WRITE VERB PROCESSOR W R I T E/R E W R I T E                                                PAGE  177
-  LOC  OBJECT CODE    ADDR1 ADDR2  STMT   SOURCE STATEMENT                                       ASM 0201 11.03 02/14/15
0005A52 D202 D1D3 D339 07D6B 07ED1  8203          MVC   PLUS2(LX3),GTEMP+NX1                                     55916021
 005A58 45E0 B18C      01004        8204          BAL   RETRG,MVC      *    MVC  RN(1),DN+LENGTH-1               55923021
 005A5C 98E2 C400      07230        8205          LM    RETRG,RW2,SVWJHE                                         55930021
 005A60 07FE                        8206          BCR   UNCON,RETRG         RETURN TO CALLER                     55937021
 005A62                             8207 REWR01   DS    0H                                                       55944021
                                    8208 *                            *****************************************  55951021
                                    8209 *                            * QSAM/QISAM REWRITE WITH SRA           *  55958021
                                    8210 *                            *****************************************  55965021
                                    8211 *                                                                       55972021
 005A62 9108 DD56      088EE        8212          TM    DOP1+NX10,XX08      SRA...                         49529 55979021
 005A66 4780 97FE      05A9E        8213          BZ    REWR04              NO                             49529 55986021
 005A6A 91F0 DD52      088EA        8214          TM    DOP1+NX6,XXF0       QSAM ? (TO REWRITE WSAM RECORD)      55993021
 005A6E 4770 97EE      05A8E        8215        BNZ   REWR02                    NO,  GO TO REWR02                56000021
 005A72 45E0 78C6      008C6        8216        BAL   RETRG,GATXTC              *  L  1,76(1)   DCBRECAD         56007021
 005A76 030E                        8217        DC    AL2(ATXT116-ATXTBC)                                        56014021
 005A78 0006                        8218        DC    AL2(ZTXT116-ATXT116)                                       56021021
 005A7A 9108 D61E      081B6        8219        TM    RECMODE,VTYPE        VARIABLE TYPE RECORD OF QSAM ?        56028021
 005A7E 47E0 97F6      05A96        8220        BNO   REWR03                    NO,  GO TO REWR03                56035021
 005A82 45E0 78D2      008D2        8221        BAL   RETRG,GATXTV              *   LA  1,4(1)  ACTUAL RECAD     56042021
 005A86 0078                        8222        DC    AL2(IOTXTL1-ATXTBV)                                        56049021
 005A88 0006                        8223        DC    AL2(IOTXTL2-IOTXTL1)                                       56056021
 005A8A 47F0 97F6      05A96        8224        B     REWR03                GO TO REWR03                         56063021
0
 005A8E                             8226 REWR02 DS    0H                   TO REWRITE QISAM RECORD               56077021
 005A8E 45E0 78C6      008C6        8227        BAL   RETRG,GATXTC              *   L  3,228(1)  POINTER TO WA   56084021
 005A92 0314                        8228        DC    AL2(ATXT117-ATXTBC)       *   L  1,112(3)  DCBDBUFN        56091021
 005A94 000C                        8229        DC    AL2(ZTXT117-ATXT117)                                       56098021
 005A96                             8230 REWR03 DS    0H                   PLUG IN UPDATED RECORD IN BUFFER      56105021
 005A96 45E0 7ADA      00ADA        8231        BAL   RETRG,WRITMOVE            FOR QISAM AND QSAM REWRITE       56112021
                                    8232 *DEL                                                               4952 56119021
                                    8233 *DEL                                                               4952 56126021
                                    8234 *DEL                                                               4952 56133021
 005A9A 45E0 968C      0592C        8235          BAL   RETRG,WRIS02        LOAD DCB ADRESS                49529 56140021
 005A9E                             8236 REWR04   DS    0H                                                 49529 56147021
 005A9E 45E0 78C6      008C6        8237          BAL   RETRG,GATXTC        PUT A TEXT                           56154021
 005AA2 00E1                        8238          DC    AL2(ATXT72-ATXTBC)      *  L  15,48(1)                   56161021
 005AA4 000C                        8239          DC    AL2(ZTXT72-ATXT72)      *  BAL  14,4(15)                 56168021
 005AA6                             8240 REWREX   DS    0H                                                       56175021
 005AA6 9101 D61C      081B4        8241          TM    REWRSW,MSWON        REWRITE...                           56182021
 005AAA 4780 9816      05AB6        8242          BZ    REWREX3             NO                                   56189021
 005AAE 94FE D61C      081B4        8243          NI    REWRSW,MSWOFF       YES, TURN OFF REWRITE SWITCH         56196021
 005AB2 47F0 9822      05AC2        8244          B     REWREX2             BYPASS GN CODING                     56203021
 005AB6                             8245 REWREX3  DS    0H                                                       56210021
 005AB6 9110 DD52      088EA        8246          TM    DOP1+NX6,XX10       QISAM...                        1139 56217021
 005ABA 4780 9822      05AC2        8247          BZ    REWREX2             NO                              1139 56224021
 005ABE 45E0 BA24      0189C        8248          BAL   RETRG,GNOPT3        * GN(NO BL'S)  EQU  *           1139 56231021
 005AC2                             8249 REWREX2  DS    0H                                                  1139 56238021
 005AC2 922C DA34      085CC        8250        MVI   A48CH2,MFREE                                               56245021
 005AC6 45E0 79D2      009D2        8251        BAL   RETRG,REGMAC          PUT A TEXT FOR MACRO                 56252021
 005ACA 45E0 7CDE      00CDE        8252          BAL   RETRG,ISINVK        INVALID KEY ???                      56259021
 005ACE 4770 9836      05AD6        8253          BC    NOTEQ,REWREX1       IF NOT INVALID KEY                   56266021
 005AD2 45E0 7A8C      00A8C        8254          BAL   RETRG,ENDINVKY      IF INVALID,  PUT A TEXT              56273021
                             05AD6  8255 REWREX1  EQU   *                                                        56280021
 005AD6 45E0 98EA      05B8A        8256          BAL   RETRG,TSTEOP        TEST FOR GN-CODE                     56287021
1         IKFCBL51: WRITE VERB PROCESSOR W R I T E/R E W R I T E                                                PAGE  178
-  LOC  OBJECT CODE    ADDR1 ADDR2  STMT   SOURCE STATEMENT                                       ASM 0201 11.03 02/14/15
0005ADA 4770 700A      0000A        8257          BC    NOTEQ,DON               NO                               56294021
 005ADE D201 D182 5001 07D1A 00001  8258          MVC   XGN1(LX2),DX1(RW5)        YES                            56301021
 005AE4 45E0 B000      00E78        8259          BAL   RETRG,LOAD              *  L  0,GN-EOP                   56308021
 005AE8 9201 D198      07D30        8260          MVI   XREG1,XX01                                               56315021
 005AEC D201 D182 DDC9 07D1A 08961  8261          MVC   XGN1(LX2),DOP2+NX1                                       56322021
 005AF2 45E0 B000      00E78        8262          BAL   RETRG,LOAD              *  L  1,GN-NOT-EOP               56329021
 005AF6 4130 C76C      0759C        8263          LA    RW3,PTOVCON2                                             56336021
 005AFA 45E0 77DE      007DE        8264          BAL   RETRG,VBALRE        VBALRE XXXXX                         56343021
 005AFE 45E0 7CCC      00CCC        8265        BAL   RETRG,WRKLRX         DESTROY 14, 15                        56350021
 005B02 47F0 700A      0000A        8266        BC    UNCOND,DON            *** LEAVE REWRITE ***                56357021
                             05B06  8267 WRIT25 EQU   *                     APPLY WRITE ONLY                     56364021
 005B06 D501 DEC0 C834 08A58 07664  8268          CLC   DOP4(LX2),ONZERO     MOVE EXPECTED...                    56371021
 005B0C 4770 700A      0000A        8269        BC    NOTEQ,DON              YES, GO PROCESS MOVE                56378021
 005B10 94FE D61D      081B5        8270 WRIT26 NI    WRITSW,MSWOFF          NO, CONTINUE                        56385021
 005B14 45E0 7CCC      00CCC        8271        BAL   RETRG,WRKLRG          KILL 0-5, 14, 15                     56392021
 005B18 91E0 DD52      088EA        8272          TM    DOP1+NX6,MNOQQI      QSAM OR QISAM...                    56399021
 005B1C 4770 98A8      05B48        8273        BC    NOTZER,WRIT33         NO                                   56406021
 005B20 9102 DD52      088EA        8274          TM    DOP1+NX6,XX02        APPLY WRITE ONLY...                 56413021
 005B24 4780 921E      054BE        8275        BC    ZERO,WRIT21            NO                                  56420021
 005B28 95AA DE44      089DC        8276          CLI   DOP3,MRGN               APPLY WRITE ONLY, AFTER POSI     56427021
 005B2C 4780 98D6      05B76        8277          BE    WRIT42                   NO                              56434021
 005B30 9530 DE44      089DC        8278          CLI   DOP3,MDN                AWO, AFTER POSITIONING DN        56441021
 005B34 4780 98A0      05B40        8279        BC    EQ,WRIT28              YES                                 56448021
 005B38 45E0 9662      05902        8280        BAL   RETRG,WRIS01          *    MVI  RN,C'N'                    56455021
 005B3C 47F0 98D6      05B76        8281          B     WRIT42             BRANCH TO WRIT42 TO PUT A TEXT        56462021
 005B40 45E0 9788      05A28        8282 WRIT28 BAL   RETRG,WRIS05          *    MVC  RN(1),DN+LENGTH-1          56469021
 005B44 47F0 98D6      05B76        8283          B     WRIT42             BRANCH TO WRIT42 TO PUT A TEXT        56476021
 005B48 9120 DD52      088EA        8284 WRIT33   TM    DOP1+NX6,MBISAM                                          56483021
 005B4C 4710 941C      056BC        8285        BC    ONES,WRBI00          BISAM 2ND STRING                      56490021
 005B50 9180 DD52      088EA        8286          TM    DOP1+NX6,MBDAM                                           56497021
 005B54 4710 94F6      05796        8287        BC    ONES,WRIT34          B D A M    SECOND STRING              56504021
 005B58 47F0 9632      058D2        8288        BC    UNCOND,WRIT35              B S A M   SECOND STRING         56511021
 005B5C                             8289 WRIT40   DS    0H                                                       56518021
 005B5C D200 D7C2 DD51 0835A 088E9  8290          MVC   IOTXTAA1(LX1),DOP1+NX5     DCB NUMBER                    56525021
 005B62 45E0 78D2      008D2        8291          BAL   RETRG,GATXTV             *                               56532021
 005B66 0190                        8292          DC    AL2(IOTXTAA-ATXTBV)      * L    R1,DCBADR                56539021
 005B68 0007                        8293          DC    AL2(IOTXTAB-IOTXTAA)     *                               56546021
 005B6A                             8294 WRIT40A  DS    0H                                                 43505 56553021
 005B6A 45E0 78C6      008C6        8295          BAL   RETRG,GATXTC            *  L  15,48(1)                   56560021
 005B6E 0271                        8296          DC    AL2(ATXT107-ATXTBC)     *   EX  0,96(1)                  56567021
 005B70 001E                        8297          DC    AL2(ZTXT107-ATXT107)                                     56574021
 005B72 47F0 9336      055D6        8298          B     WRIT41                  RETURN TO INLINE CODE            56581021
 005B76                             8299 WRIT42   DS    0H                                                       56588021
 005B76 45E0 78D2      008D2        8300          BAL   RETRG,GATXTV        PUT A TEXT                           56595021
 005B7A 0190                        8301          DC    AL2(IOTXTAA-ATXTBV)                                      56602021
 005B7C 000A                        8302          DC    AL2(IOTXTBB-IOTXTAA)                                     56609021
 005B7E 45E0 78C6      008C6        8303          BAL   RETRG,GATXTC        PUT A TEXT                           56616021
 005B82 02F3                        8304          DC    AL2(ATXT118-ATXTBC)                                      56623021
 005B84 0014                        8305          DC    AL2(ZTXT118-ATXT118)                                     56630021
 005B86 47F0 9806      05AA6        8306          B     REWREX              GO TO REWREX                         56637021
                             05B8A  8307 TSTEOP   EQU   *                                                        56644021
 005B8A 1B55                        8308          SR    RW5,RW5                                                  56651021
 005B8C 4350 DF3D      08AD5        8309          IC    RW5,DOP5+NX1                                             56658021
 005B90 4155 DF3B      08AD3        8310          LA    RW5,DOP5-NX1(RW5)                                        56665021
 005B94 95AA 5000      00000        8311          CLI   DX0(RW5),MRGN                                            56672021
1         IKFCBL51: WRITE VERB PROCESSOR W R I T E/R E W R I T E                                                PAGE  179
-  LOC  OBJECT CODE    ADDR1 ADDR2  STMT   SOURCE STATEMENT                                       ASM 0201 11.03 02/14/15
0005B98 07FE                        8312          BCR   UNCOND,RETRG       RETURN TO CALLER                      56679021
0
 005B9A 9180 DD4E      088E6        8314 MSUB2    TM    DOP1+NX2,XX80   BEFORE OPTION                            56693021
 005B9E 4780 9906      05BA6        8315         BC     ZERO,MSUB2A    NO,AFTER OPTION                           56700021
 005BA2 4122 0004      00004        8316          LA    RW2,DX4(RW2)    POINT TO SECOND HALF OF TABLE            56707021
 005BA6 4122 99DE      05C7E        8317 MSUB2A  LA     RW2,CCTABLE(RW2)                                         56714021
 005BAA D200 D199 2000 07D31 00000  8318          MVC   IMM(LX1),DX0(RW2)                                        56721021
 005BB0 4120 DF3C      08AD4        8319         LA     RW2,DOP5                                                 56728021
 005BB4 5020 D148      07CE0        8320         ST     RW2,OP1                                                  56735021
 005BB8 45E0 BABC      01934        8321         BAL    RETRG,MVI      **   MVI  RN,CODE **                      56742021
 005BBC 47F0 91EC      0548C        8322         BC     UNCOND,MWRIT03      GO TO MWRIT03                        56749021
-
 005BC0                             8324 WRIT13   DS    0H                                                 48426 56763021

                                    8326 *                                                                 48426 56777021
                                    8327 * ROUTINE TO HANDLE APPLY WRITE-ONLY AND POSITIONING              48426 56784021
                                    8328 *                                                                 48426 56791021

 005BC0 9101 D61D      081B5        8330          TM    WRITSW,MSWON        2ND ENTRY                      48426 56805021
 005BC4 4710 99AE      05C4E        8331          BO    WRIT14              YES                            48426 56812021
 005BC8 9601 D61D      081B5        8332          OI    WRITSW,MSWON        INDICATE FIRST TIME ENTRY      48426 56819021
 005BCC 45E0 968C      0592C        8333          BAL   RETRG,WRIS02        LOAD DCB ADDR, CALL PTV1       48426 56826021
 005BD0 9203 D198      07D30        8334          MVI   XREG1,XX03          INDICATE REG 3                 48426 56833021
 005BD4 45E0 96E0      05980        8335          BAL   RETRG,WRIS04        INSERTION OF LENGTH            48426 56840021
 005BD8 45E0 78C6      008C6        8336          BAL   RETRG,GATXTC             *                         48426 56847021
 005BDC 0265                        8337          DC    AL2(ATXT104-ATXTBC)      * LA   3,4(3)             48426 56854021
 005BDE 000C                        8338          DC    AL2(ZTXT105-ATXT104)     * STH  3,82(2)            48426 56861021
 005BE0 45E0 78C6      008C6        8339          BAL   RETRG,GATXTC             *                         48426 56868021
 005BE4 0271                        8340          DC    AL2(ATXT107-ATXTBC)      * GENERATE PUT SEQUENCE   48426 56875021
 005BE6 001E                        8341          DC    AL2(ZTXT107-ATXT107)     *                         48426 56882021
 005BE8 9210 D15E      07CF6        8342          MVI   BDISP1,XX10                                        48426 56889021
 005BEC 9204 D15F      07CF7        8343          MVI   BDISP1+NX1,XX04                                    48426 56896021
 005BF0 9201 D198      07D30        8344          MVI   XREG1,XX01                                         48426 56903021
 005BF4 45E0 BB7C      019F4        8345          BAL   RETRG,LA                 * LA    1,4(1)            48426 56910021
 005BF8 D200 D9D6 DD51 0856E 088E9  8346          MVC   A07CH1(LX1),DOP1+NX5     INSERT DCB NUMBER         48426 56917021
 005BFE 45E0 BDD0      01C48        8347          BAL   RETRG,GNSTEP             BUMP GNCTR                48426 56924021
 005C02 D201 D305 A15E 07E9D 0015E  8348          MVC   GLGNCN+NX3(LX2),GNCTR    INSERT AND SAVE           48426 56931021
 005C08 D201 D9E1 A15E 08579 0015E  8349          MVC   A07CH2(LX2),GNCTR           GN NUMBER              48426 56938021
 005C0E 45E0 78D2      008D2        8350          BAL   RETRG,GATXTV             *                         48426 56945021
 005C12 03A4                        8351          DC    AL2(ATXT07-ATXTBV)       * GENERATE ERROR TEST     48426 56952021
 005C14 001C                        8352          DC    AL2(ZTXT07-ATXT07)       *                         48426 56959021
 005C16 45E0 78BC      008BC        8353          BAL   RETRG,IOSTBL             BL UPDATE                 48426 56966021
 005C1A 45E0 BA24      0189C        8354          BAL   RETRG,GNOPT3             * GN(IOERROR) EQU *       48426 56973021
 005C1E 9201 D198      07D30        8355          MVI   XREG1,XX01                                         48426 56980021
 005C22 D200 D197 2004 07D2F 00004  8356          MVC   BLREF1+NX1(LX1),DX4(RW2)                           48426 56987021
 005C28 45E0 B000      00E78        8357          BAL   RETRG,LOAD               * L    1,BL-FILE          48426 56994021
 005C2C 9201 D198      07D30        8358          MVI   XREG1,XX01                                         48426 57001021
 005C30 9204 D17F      07D17        8359          MVI   XCON1+NX15,XX04                                    48426 57008021
 005C34 9202 D180      07D18        8360          MVI   XCON1+NX16,XX02                                    48426 57015021
 005C38 45E0 BB5C      019D4        8361          BAL   RETRG,SHALF              * SH   1,=H'4'            48426 57022021
 005C3C 45E0 78C6      008C6        8362          BAL   RETRG,GATXTC             *                         48426 57029021
 005C40 005D                        8363          DC    AL2(ATXT41-ATXTBC)       * SETUP RDW FOR PUT       48426 57036021
1         IKFCBL51: WRITE VERB PROCESSOR W R I T E/R E W R I T E                                                PAGE  180
-  LOC  OBJECT CODE    ADDR1 ADDR2  STMT   SOURCE STATEMENT                                       ASM 0201 11.03 02/14/15
0005C42 0024                        8364          DC    AL2(ZTXT42-ATXT41)       *                         48426 57043021
 005C44 D501 DEC0 C834 08A58 07664  8365          CLC   DOP4(LX2),ONZERO    MOVE EXPECTED...               48426 57050021
 005C4A 4770 700A      0000A        8366          BNE   PH5CTL              YES, DO SO                     48426 57057021
-
 005C4E                             8368 WRIT14   DS    0H                                                 48426 57071021

                                    8370 *                                                                 48426 57085021
                                    8371 * SECOND STRING FOR APPLY WRITE-ONLY AND POSITIONING              48426 57092021
                                    8372 *                                                                 48426 57099021

 005C4E 94FE D61D      081B5        8374          NI    WRITSW,MSWOFF       TURN OFF SWITCH                48426 57113021
 005C52 45E0 7CCC      00CCC        8375          BAL   RETRG,WRKLRG             * DESTROY 14,15           48426 57120021
 005C56 9530 DE44      089DC        8376          CLI   DOP3,MDN            DATANAME POSITIONING...        48426 57127021
 005C5A 4770 99C6      05C66        8377          BNE   WRIT18              NO, MUST BE INTEGER            48426 57134021
 005C5E 45E0 9788      05A28        8378          BAL   RETRG,WRIS05             * MVC  RECORD(1),DN+LEN-1 48426 57141021
 005C62 47F0 99CA      05C6A        8379          B     WRIT27              COMMON CODE                    48426 57148021
 005C66                             8380 WRIT18   DS    0H                                                 48426 57155021
 005C66 45E0 9662      05902        8381          BAL   RETRG,WRIS01             * MVI  RECORD,X'C-C'      48426 57162021
 005C6A                             8382 WRIT27   DS    0H                                                 48426 57169021
 005C6A 45E0 7884      00884        8383          BAL   RETRG,IOQRTN        Q-ROUTINES                     48426 57176021
 005C6E 47F0 9836      05AD6        8384          B     REWREX1             EXIT CODING, LEAVE ROUTINE     48426 57183021
 005C74                             8385 INTEGER DS     F                                                        57190021
 005C78 F870 C688 DE48 074B8 089E0  8386 ZAPMM    ZAP   DWB,DOP3+NX4(LX0)                                        57197021
 005C7E 4E40F060                    8387 CCTABLE DC     C'+ 0-'        AFTER OPTION                              57204021
 005C82 01091119                    8388         DC     X'01091119'    BEFORE OPTION                             57211021
 005C86 4EF1F2F3F4F5F6F7            8389 MNCTABLE DC    C'+123456789'  AFTER OPTION                              57218021
 005C90 C1C2C3E5E6                  8390          DC    X'C1C2C3E5E6'  *                                         57225021
 005C95 01899199A1A9B1B9            8391          DC    X'01899199A1A9B1B9C1C9D1D9E1E5E6'  BEFORE OPTION         57232021
 005CA4                             8392 OPTNBYTE DS    XL1                                                      57239021
 005CA5 00                          8393          DC    X'00'                                                    57246021
                             00008  8394 VTYPE    EQU   X'08'                                                    57253021
                             00004  8395 FTYPE    EQU   X'04'                                                    57260021
                             00002  8396 UTYPE    EQU   X'02'                                                    57267021
                             00001  8397 STYPE    EQU   X'01'                                                    57274021
 005CA6 320301000F                  8398 CSPSUBST DC    X'320301000F'                                            57281021
 005CAB 00
 005CAC 47F0 C000      06E30        8399          B     ZAPZAP              ZAPZAP                               57288021
 005CB0 47F0 D048      07BE0        8400          B     ZAPZAP2             ZAPZAP2                              57295021
1         ACCEPT VERB ANALYZER    A  C  C  E  P  T                                                              PAGE  181
-  LOC  OBJECT CODE    ADDR1 ADDR2  STMT   SOURCE STATEMENT                                       ASM 0201 11.03 02/14/15
0                                   8402 *=1    ACCEPT VERB                 ACCEPT DN DEVICE HTERM               57309021
                                    8403 *******************************************************************     57316021
                                    8404 *      A C C E P T                                                      57323021
                                    8405 *******************************************************************     57330021
                                    8406 *                   INPUT STRINGS... ACCEPT 03 DN DEVICE END            57337021
                                    8407 *                          OR...     ACCEPT 02 DN END                   57344021
                                    8408 *                   (LATTER CASE, DEVICE = CONSOLE)                     57351021
                             05CB4  8409 ACCEPT EQU   *               OR    ACCEPT DN HTERM       (DEV=CONSO     57358021
                             05CB4  8410        USING *,GVERB                                                    57365021
 005CB4 D501 DDC8 C822 08960 07652  8411          CLC   DOP2(LX2),CBCNSL     CONSOLE...                          57372021
 005CBA 4770 904A      05CFE        8412        BC    NOTEQ,ACCE04           NO                                  57379021
 005CBE 4120 DD4C      088E4        8413 ACCE05 LA    RW2,DOP1               YES                                 57386021
 005CC2 5020 D148      07CE0        8414        ST    RW2,OP1               PRE-PAD ITEM TO BE ACCEPTED INTO     57393021
 005CC6 9240 D199      07D31        8415          MVI   IMM,XX40                                                 57400021
 005CCA 45E0 BABC      01934        8416        BAL   RETRG,MVI             *    MVI  DN,X' '                    57407021
 005CCE 45E0 77F0      007F0        8417        BAL   RETRG,CALCLG          GET LENGTH OF ITEM                   57414021
 005CD2 4700 0000      00000        8418          NOP   DX0(RW0)            NULL OPERATION                       57421021
 005CD6 48E0 D552      080EA        8419          LH    RETRG,LENGTH+NX2                                         57428021
 005CDA 06E0                        8420        BCTR  RETRG,RW0             LENGTH + 2 - 1                       57435021
 005CDC 12EE                        8421        LTR   RETRG,RETRG           IF LENGTH = 1 PADDING IS COMPLET     57442021
 005CDE 4780 9042      05CF6        8422        BC    EQ,ACCE07              YES                                 57449021
 005CE2 42E0 D159      07CF1        8423          STC   RETRG,XL1+NX1                                            57456021
 005CE6 5020 D148      07CE0        8424        ST    RW2,OP1                                                    57463021
 005CEA 5020 D14C      07CE4        8425        ST    RW2,OP2                                                    57470021
 005CEE 9201 D18D      07D25        8426          MVI   PLUS1+NX2,XX01                                           57477021
 005CF2 45E0 B18C      01004        8427        BAL   RETRG,MVC             *    MVC  DN+1(L-1),DN               57484021
 005CF6 45E0 7D5C      00D5C        8428 ACCE07 BAL   RETRG,DIWTOR          *    WTOR                            57491021
                                    8429 *                                  *    WAIT                            57498021
 005CFA 47F0 9074      05D28        8430        BC    UNCOND,ACCE06         BYPASS CONSOLE CODING                57505021
 005CFE D501 DDC8 C826 08960 07656  8431 ACCE04   CLC   DOP2(LX2),CBEND      CONSOLE IMPLIED...                  57512021
 005D04 4780 900A      05CBE        8432        BC    EQ,ACCE05              YES                                 57519021
                                    8433 *                                   NO                                  57526021
 005D08 4130 C758      07588        8434        LA    RW3,ACCPVI            *    L    15,VIRT='ACCPRT'           57533021
 005D0C 45E0 77D0      007D0        8435        BAL   RETRG,VBALR1          *    BALR 1,15                       57540021
 005D10 9204 D172      07D0A        8436          MVI   XCON1+NX2,MSYSIN                                         57547021
 005D14 9202 D170      07D08        8437          MVI   XCON1,XX02                                               57554021
 005D18 9224 D199      07D31        8438        MVI   GMCTYP,MDC                                                 57561021
 005D1C 45E0 BD28      01BA0        8439        BAL   RETRG,MACRO           *    DC   XL2'DEVICE'                57568021
 005D20 4120 DD4C      088E4        8440        LA    RW2,DOP1              POINTER TO DN                        57575021
 005D24 45E0 7786      00786        8441        BAL   RETRG,DIINFO          *    DC   XL10'OPERAND-INFO'         57582021
 005D28                             8442 ACCE06   DS    0H                                                 51302 57589021
 005D28 9102 2007      00007        8443          TM    DX7(RW2),XX02       GENERATE CALL TO Q-RTNS        51302 57596021
 005D2C 4780 700A      0000A        8444          BZ    PH5CTL              NO                             51302 57603021
 005D30 45E0 75A2      005A2        8445          BAL   XRSUB,LSPRO         YES                            51302 57610021
 005D34 47F0 700A      0000A        8446          B     PH5CTL              RETURN                         51302 57617021
                                    8447 *DEL                                                               5130 57624021
                                    8448 *DEL                                                               5130 57631021
1          Q - R O U T I N E  V E R B S                                                                         PAGE  182
-  LOC  OBJECT CODE    ADDR1 ADDR2  STMT   SOURCE STATEMENT                                       ASM 0201 11.03 02/14/15
0005D38                             8450 IKF50L CSECT                                                            57645021
                                    8451 *=1    Q-ROUTINE VERBS...  INIT, INCRA, STEP, UPDATE, QCALL, QRET,Q     57652021
                             05D38  8452        USING *,GVERB                                                    57659021
 005D38                             8453 QINITV   DS    0H                      I N I T ...                      57666021
 005D38 9201 D198      07D30        8454          MVI   XREG1,QR                INDICATE REGISTER 1              57673021
 005D3C D201 D17E DDC9 07D16 08961  8455          MVC   XCON1+NX14(LX2),DOP2+NX1                                 57680021
 005D42 9202 D180      07D18        8456          MVI   XCON1+NX16,XX02                                          57687021
 005D46 45E0 B000      00E78        8457        BAL   RETRG,LOAD            *    LH   R,LIT=...   (DOP2)         57694021
 005D4A D202 D188 DD4D 07D20 088E5  8458          MVC   XCNTR1(LX3),DOP1+NX1                                     57701021
 005D50 9201 D198      07D30        8459        MVI   XREG1,QR                                                   57708021
 005D54 45E0 B040      00EB8        8460        BAL   RETRG,STORE           *    STH  R,VLC=...  (DOP1)          57715021
 005D58 47F0 700A      0000A        8461          B     PH5CTL                  RETURN FOR NEXT STRING           57722021
                             05D5C  8462        USING *,GVERB                                                    57729021
 005D5C                             8463 QINCRA   DS    0H                      I N C R A ...                    57736021
 005D5C 9201 D198      07D30        8464        MVI   XREG1,QR                                                   57743021
 005D60 D203 D148 C700 07CE0 07530  8465          MVC   OP1(LX4),XAOPE1                                          57750021
 005D66 45E0 BB7C      019F4        8466        BAL   RETRG,LA              *    LA   R,ON=...   (DOP1)          57757021
 005D6A 9201 D198      07D30        8467        MVI   XREG1,QR                                                   57764021
 005D6E D202 D188 DDC9 07D20 08961  8468          MVC   XCNTR1(LX3),DOP2+NX1                                     57771021
 005D74 45E0 BA38      018B0        8469        BAL   RETRG,ADD             *    AH   R,VLC=...  (DOP2)          57778021
 005D78 9201 D198      07D30        8470        MVI   XREG1,QR                                                   57785021
 005D7C D201 D196 DE46 07D2E 089DE  8471          MVC   BLREF1(LX2),DOP3+NX2                                     57792021
 005D82 45E0 B040      00EB8        8472        BAL   RETRG,STORE           *    ST   R,SBL=...  (DOP3)          57799021
 005D86 9500 DEC2      08A5A        8473          CLI   DOP4+NX2,XX00        MORE THAN ONE SBL?              475 57806021
 005D8A 4780 700A      0000A        8474          BE    PH5CTL                  NO, RETURN FOR NEXT STRING  4758 57813021
 005D8E 1B11                        8475          SR    RW1,RW1             YES, GEN INSTR'S FOR EACH ONE   4758 57820021
 005D90 4310 DE47      089DF        8476          IC    RW1,DOP3+NX3         GET SBL NUMBER                  475 57827021
 005D94 1B22                        8477          SR    RW2,RW2                                             4758 57834021
 005D96 4320 DEC2      08A5A        8478          IC    RW2,DOP4+NX2         GET SBL COUNT                   475 57841021
 005D9A                             8479 QINCR1   DS    0H                                                 4758  57848021
 005D9A 4111 0001      00001        8480          LA    RW1,DX1(RW1)            INCREASE SBL NUMBER        4758  57855021
 005D9E 4210 D3FD      07F95        8481          STC   RW1,SBLOP+NX1        SAVE FOR STORE INSTR            475 57862021
 005DA2 9210 D17E      07D16        8482          MVI   XCON1+NX14,XX10                                      475 57869021
 005DA6 9202 D180      07D18        8483          MVI   XCON1+NX16,XX02                                      475 57876021
 005DAA 9201 D198      07D30        8484          MVI   XREG1,QR                                            4758 57883021
 005DAE 45E0 BA38      018B0        8485          BAL   RETRG,ADD           AH   QR,=4096                   4758 57890021
 005DB2 9201 D198      07D30        8486          MVI   XREG1,QR                                            4758 57897021
 005DB6 D201 D196 D3FC 07D2E 07F94  8487          MVC   BLREF1(LX2),SBLOP                                    475 57904021
 005DBC 45E0 B040      00EB8        8488          BAL   RETRG,STORE         ST   QR,SBL=...                 4758 57911021
 005DC0 4620 903E      05D9A        8489          BCT   RW2,QINCR1          LOOP CONTROL                    4758 57918021
 005DC4 47F0 700A      0000A        8490          B     PH5CTL                  RETURN FOR NEXT STRING           57925021
                             05DC8  8491        USING *,GVERB                                                    57932021
 005DC8                             8492 QSTEPV   DS    0H                      S T E P ...                      57939021
 005DC8 9201 D198      07D30        8493        MVI   XREG1,QR                                                   57946021
 005DCC D202 D188 DD4D 07D20 088E5  8494          MVC   XCNTR1(LX3),DOP1+NX1                                     57953021
 005DD2 45E0 B000      00E78        8495        BAL   RETRG,LOAD            *    LH   R,VLC...  (DOP1)           57960021
 005DD6 9201 D198      07D30        8496        MVI   XREG1,QR                                                   57967021
 005DDA 95BB DDC8      08960        8497          CLI   DOP2,XXBB                                                57974021
 005DDE 4780 9036      05DFE        8498          BE    QESTP                   BYPASS AH AND STH INSTRS         57981021
 005DE2 D202 D188 DDC9 07D20 08961  8499          MVC   XCNTR1(LX3),DOP2+NX1                                     57988021
 005DE8                             8500 QESTP2   DS    0H                                                       57995021
 005DE8 45E0 BA38      018B0        8501        BAL   RETRG,ADD             *    AH   R,VLC... OR LIT...  (D     58002021
 005DEC 9201 D198      07D30        8502        MVI   XREG1,QR                                                   58009021
 005DF0 D202 D188 DD4D 07D20 088E5  8503          MVC   XCNTR1(LX3),DOP1+NX1                                     58016021
 005DF6 45E0 B040      00EB8        8504        BAL   RETRG,STORE           *    STH  R,VLC...  (DOP1)           58023021
1          Q - R O U T I N E  V E R B S                                                                         PAGE  183
-  LOC  OBJECT CODE    ADDR1 ADDR2  STMT   SOURCE STATEMENT                                       ASM 0201 11.03 02/14/15
0005DFA 47F0 700A      0000A        8505          B     PH5CTL                  RETURN FOR NEXT STRING           58030021
 005DFE                             8506 QESTP    DS    0H                                                       58037021
 005DFE D201 D17E DDC9 07D16 08961  8507          MVC   XCON1+NX14(LX2),DOP2+NX1                                 58044021
 005E04 9204 D180      07D18        8508          MVI   XCON1+NX16,XX04                                          58051021
 005E08 47F0 9020      05DE8        8509          B     QESTP2             GO TO QESTP2                          58058021
                                    8510 * UPDATE VERB                                                           58065021
                             05E0C  8511        USING *,GVERB                                                    58072021
 005E0C                             8512 QUPDAT   DS    0H                      U P D A T E ...                  58079021
 005E0C 9530 DDC8      08960        8513          CLI   DOP2,XX30       IS ITEM A DATA NAME                      58086021
 005E10 4770 9010      05E1C        8514          BNE   QUPD3                   NO                               58093021
 005E14 9104 DDCA      08962        8515          TM    DOP2+NX2,XX04      IS ITEM IN WORKING-STORAGE            58100021
 005E18 4710 9044      05E50        8516          BO    QUPD4             YES, DO NOT GEN LA,  TM                58107021
 005E1C                             8517 QUPD3    DS    0H                                                       58114021
 005E1C D501 DD4D C38C 088E5 071BC  8518          CLC   DOP1+NX1(LX2),GZERO   IS MAX OCCURS SIGNIFICANT...       58121021
 005E22 4780 9044      05E50        8519          BE    QUPD4                   NO                               58128021
 005E26 D201 D17E DD4D 07D16 088E5  8520          MVC   XCON1+NX14(LX2),DOP1+NX1                                 58135021
 005E2C 9202 D180      07D18        8521          MVI   XCON1+NX16,XX02                                          58142021
 005E30 9201 D198      07D30        8522          MVI   XREG1,XX01                                               58149021
 005E34 45E0 B000      00E78        8523        BAL   RETRG,LH             * LH  1,LIT=MAX REC SIZE              58156021
 005E38 45E0 BDD0      01C48        8524        BAL   RETRG,GNSTEP          BUMP GN COUNTER                      58163021
 005E3C D201 DA41 A15E 085D9 0015E  8525          MVC   A51CH2(LX2),FIVEGN                                       58170021
 005E42 D201 D55C A15E 080F4 0015E  8526          MVC   GNSTRE(LX2),FIVEGN        SAVE GN                        58177021
 005E48 45E0 78D2      008D2        8527          BAL   RETRG,GATXTV            * TM   SWITCH+1,X'01'            58184021
 005E4C 040B                        8528          DC    AL2(ATXT51-ATXTBV)      * L    15,GN(MAX-REC-SIZE)       58191021
 005E4E 000F                        8529          DC    AL2(ZTXT51-ATXT51)      * BCR  1,15                      58198021
 005E50                             8530 QUPD4    DS    0H                                                       58205021
 005E50 D201 D55E DD4D 080F6 088E5  8531          MVC   QRETGN(LX2),DOP1+NX1         SAVE DOP1                   58212021
 005E56 9201 D198      07D30        8532        MVI   XREG1,QR                                                   58219021
 005E5A 9530 DDC8      08960        8533          CLI   DOP2,XX30            ON                                  58226021
 005E5E 4780 9124      05F30        8534          BE    QEDN1                   IF SAME GO TO QEDN1              58233021
 005E62 D202 D188 DDC9 07D20 08961  8535          MVC   XCNTR1(LX3),DOP2+NX1                                     58240021
 005E68 45E0 B000      00E78        8536        BAL   RETRG,LOAD            *    LH   R,VLC... OR DN... (DOP     58247021
 005E6C                             8537 QEDN4    DS    0H                                                       58254021
 005E6C D501 D55E C38C 080F6 071BC  8538          CLC   QRETGN(LX2),GZERO        WAS REF TO GNX GENERATED        58261021
 005E72 4780 9084      05E90        8539          BE    QUPD5               NO                                   58268021
 005E76 9530 DDC8      08960        8540          CLI   DOP2,XX30       IS ITEM A DATA NAME                      58275021
 005E7A 4770 907A      05E86        8541          BNE   QUPD6               NO                                   58282021
 005E7E 9104 DDCA      08962        8542          TM    DOP2+NX2,XX04      IS ITEM IN WORKING-STORAGE            58289021
 005E82 4710 9084      05E90        8543          BO    QUPD5             YES, DO NOT GEN GN DEF                 58296021
 005E86                             8544 QUPD6    DS    0H                                                       58303021
 005E86 D201 D305 D55C 07E9D 080F4  8545          MVC   GLGNCN+NX3(LX2),GNSTRE     RESTORE GN DATA               58310021
 005E8C 45E0 BA24      0189C        8546        BAL   RETRG,GNOPT3          * GNXXXX  EQU  *                     58317021
 005E90                             8547 QUPD5    DS    0H                                                       58324021
 005E90 9201 D198      07D30        8548        MVI   XREG1,QR                                                   58331021
 005E94 95BB DE44      089DC        8549          CLI   DOP3,XXBB                                                58338021
 005E98 4780 9116      05F22        8550          BE    QUPD1                   IF SAME GO TO QUPD1              58345021
 005E9C D202 D188 DE45 07D20 089DD  8551          MVC   XCNTR1(LX3),DOP3+NX1                                     58352021
 005EA2                             8552 QUPD2    DS    0H                                                       58359021
 005EA2 45E0 BA58      018D0        8553        BAL   RETRG,MULT            *    MH   R,LIT... OR VLC... (DO     58366021
 005EA6 9201 D198      07D30        8554        MVI   XREG1,QR                                                   58373021
 005EAA D203 D148 C70C 07CE0 0753C  8555          MVC   OP1(LX4),XAOPE4                                          58380021
 005EB0 45E0 BA38      018B0        8556        BAL   RETRG,ADD             *    AH   R,VLC...          (DOP     58387021
 005EB4 9201 D198      07D30        8557        MVI   XREG1,QR                                                   58394021
 005EB8 D202 D188 DEC1 07D20 08A59  8558          MVC   XCNTR1(LX3),DOP4+NX1                                     58401021
 005EBE 45E0 B040      00EB8        8559        BAL   RETRG,STORE           *    STH  R,VLC...          (DOP     58408021
1          Q - R O U T I N E  V E R B S                                                                         PAGE  184
-  LOC  OBJECT CODE    ADDR1 ADDR2  STMT   SOURCE STATEMENT                                       ASM 0201 11.03 02/14/15
0005EC2 9102 D562      080FA        8560          TM    QRETSW,XX02         WAS STM GENED...                9030 58415021
 005EC6 4780 90DE      05EEA        8561          BZ    QEDN3               NO                              9030 58422021
 005ECA 45E0 BDD0      01C48        8562          BAL   RETRG,GNSTEP        YES, BUMP GN CTR                9030 58429021
 005ECE D201 DA41 A15E 085D9 0015E  8563          MVC   A51CH2(LX2),FIVEGN      INSERT GN NUMBER            9030 58436021
 005ED4 D201 D564 A15E 080FC 0015E  8564          MVC   GNLMSV(LX2),FIVEGN       SAVE GN NUMBER             9030 58443021
 005EDA 92FF DA45      085DD        8565          MVI   ATXT51A+NX8,XXFF    INDIC COND OF 15                9030 58450021
 005EDE 45E0 78D2      008D2        8566          BAL   RETRG,GATXTV        *  GENERATE:                    9030 58457021
 005EE2 0411                        8567          DC    AL2(ATXT51A-ATXTBV) * L    15,GN(FOR LM)            9030 58464021
 005EE4 0009                        8568          DC    AL2(ZTXT51-ATXT51A) * BCR  15,15                    9030 58471021
 005EE6 921F DA45      085DD        8569          MVI   ATXT51A+NX8,XX1F    INDIC COND OF 1                 9030 58478021
 005EEA                             8570 QEDN3    DS    0H                                                  9030 58485021
 005EEA 9101 D562      080FA        8571          TM    QRETSW,XX01         WAS IF NUM GENERATED...         9030 58492021
 005EEE 4780 90F4      05F00        8572          BZ    QEDN2               NO                              9030 58499021
 005EF2 94FE D562      080FA        8573          NI    QRETSW,XXFE                                         9030 58506021
 005EF6 D201 D305 D560 07E9D 080F8  8574          MVC   GLGNCN+NX3(LX2),GNRETU   GN DEF                     9030 58513021
 005EFC 45E0 BA24      0189C        8575          BAL   RETRG,GNOPT3        GENERATE GN DEF                 9030 58520021
 005F00                             8576 QEDN2    DS    0H                                                  9030 58527021
 005F00 9102 D562      080FA        8577          TM    QRETSW,XX02         WAS STM GENED...                9030 58534021
 005F04 4780 9112      05F1E        8578          BZ    QEDN5               NO, DONT GEN LM                 9030 58541021
 005F08 94FD D562      080FA        8579          NI    QRETSW,XXFD         TURN OFF STM INDICATOR          9030 58548021
 005F0C 45E0 78C6      008C6        8580          BAL   RETRG,GATXTC             *                          9030 58555021
 005F10 0307                        8581          DC    AL2(ATXT114-ATXTBC)      * LM   2,4,96(13)          9030 58562021
 005F12 0007                        8582          DC    AL2(ZTXT114-ATXT114)     *                          9030 58569021
 005F14 D201 D305 D564 07E9D 080FC  8583          MVC   GLGNCN+NX3(LX2),GNLMSV        INSERT GN NUMBER      9030 58576021
 005F1A 45E0 BA24      0189C        8584          BAL   RETRG,GNOPT3        * GN(LM) EQU  *                 9030 58583021
 005F1E                             8585 QEDN5    DS    0H                                                  9030 58590021
 005F1E 47F0 700A      0000A        8586          B     PH5CTL                  RETURN FOR NEXT STRING           58597021
 005F22                             8587 QUPD1    DS    0H                                                       58604021
 005F22 D201 D17E DE45 07D16 089DD  8588          MVC   XCON1+NX14(LX2),DOP3+NX1                                 58611021
 005F28 9202 D180      07D18        8589          MVI   XCON1+NX16,XX02                                          58618021
 005F2C 47F0 9096      05EA2        8590          B     QUPD2              GO TO QUPD2                           58625021
 005F30                             8591 QEDN1    DS    0H                                                       58632021
 005F30 91B0 DDCB      08963        8592          TM    DOP2+NX3,XXB0           IS IT BINARY...                  58639021
 005F34 4710 9162      05F6E        8593        BO    QBIN                      YES                              58646021
 005F38 45E0 78C6      008C6        8594        BAL   RETRG,GATXTC          *                                    58653021
 005F3C 02C8                        8595          DC    AL2(ATXT113-ATXTBC)     *  STM  2,4,96(13)               58660021
 005F3E 0007                        8596        DC    AL2(ZTXT113-ATXT113)  *                                    58667021
 005F40 9602 D562      080FA        8597          OI    QRETSW,XX02         INDIC STM GENED                 9030 58674021
 005F44 920F D0B6      07C4E        8598          MVI   GANLNO,XX0F              NO-GENERATE IF NUMERIC          58681021
 005F48 D27B DD4C DDC8 088E4 08960  8599          MVC   DOP1(LX124),DOP2         MOVE DATANAME TO DOP1           58688021
 005F4E 45E0 BDD0      01C48        8600        BAL   RETRG,GNSTEP              GET GN FOR IF NUM                58695021
 005F52 D201 DDC9 A15E 08961 0015E  8601          MVC   DOP2+NX1(LX2),FIVEGN       STORE GN IN DOP2              58702021
 005F58 D201 D560 A15E 080F8 0015E  8602          MVC   GNRETU(LX2),FIVEGN       SAVE GN FOR DEF IN QRETUV       58709021
 005F5E 9601 D562      080FA        8603          OI    QRETSW,XX01               TURN ON QUPDAT SW              58716021
 005F62 5890 C1D0      07000        8604        L     GVERB,ADCN0F              GO TO                            58723021
 005F66 07F9                        8605        BR    GVERB                            NUMERIC CLASS TEST        58730021
 005F68                             8606 QBINR    DS    0H                                                       58737021
 005F68 D201 DDC9 DD4D 08961 088E5  8607          MVC   DOP2+NX1(LX2),DOP1+NX1  RESTORE DOP2                     58744021
 005F6E                             8608 QBIN     DS    0H                                                       58751021
 005F6E 4130 DDC8      08960        8609          LA    RW3,DOP2                                                 58758021
 005F72 45E0 BE32      01CAA        8610        BAL   XRSUB,DNTOR1          TALLY CODING                         58765021
 005F76 9102 D562      080FA        8611          TM    QRETSW,XX02         WAS STM GENED...                9030 58772021
 005F7A 4780 9060      05E6C        8612          BZ    QEDN4               NO, DONT GEN LM                 9030 58779021
 005F7E 45E0 78C6      008C6        8613          BAL   RETRG,GATXTC             *                          9030 58786021
 005F82 0307                        8614          DC    AL2(ATXT114-ATXTBC)      * LM   2,4,96(13)          9030 58793021
1          Q - R O U T I N E  V E R B S                                                                         PAGE  185
-  LOC  OBJECT CODE    ADDR1 ADDR2  STMT   SOURCE STATEMENT                                       ASM 0201 11.03 02/14/15
0005F84 0007                        8615          DC    AL2(ZTXT114-ATXT114)     *                          9030 58800021
 005F86 47F0 9060      05E6C        8616          B    QEDN4                CHECK IF GN GEN'ED,ETC          9030 58807021
                             05F8A  8617        USING *,GVERB         QCALL                                      58814021
 005F8A                             8618 QCALLV   DS    0H                                                       58821021
 005F8A 9203 D198      07D30        8619        MVI   XREG1,QR3                                                  58828021
 005F8E D201 D182 DD4D 07D1A 088E5  8620          MVC   XGN1(LX2),DOP1+NX1                                       58835021
 005F94 45E0 B000      00E78        8621        BAL   RETRG,LOAD            *    L    R3,GN...       (DOP1)      58842021
 005F98 9203 D198      07D30        8622        MVI   XREG1,QR3                                                  58849021
 005F9C 9203 D1E0      07D78        8623        MVI   XREG2,QR3                                                  58856021
 005FA0 45E0 BC18      01A90        8624        BAL   RETRG,BRNLNK          *    BALR R3,R3                      58863021
 005FA4 47F0 700A      0000A        8625          B     PH5CTL                  RETURN FOR NEXT STRING           58870021
                             05FA8  8626        USING *,GVERB              Q R E T 2                             58877021
 005FA8                             8627 QRET2V   DS    0H                                                       58884021
 005FA8 9202 D198      07D30        8628        MVI   XREG1,QR2                                                  58891021
 005FAC 9202 D1E0      07D78        8629        MVI   XREG2,QR2                                                  58898021
 005FB0 45E0 BC18      01A90        8630        BAL   RETRG,BRNLNK               *    BALR  2,2                  58905021
 005FB4 47F0 700A      0000A        8631          B     PH5CTL                  RETURN FOR NEXT STRING           58912021
                             05FB8  8632        USING *,GVERB              Q R E T                               58919021
 005FB8                             8633 QRETUV   DS    0H                                                       58926021
 005FB8 920F D198      07D30        8634          MVI   XREG1,UNCOND                                             58933021
 005FBC 9203 D1E0      07D78        8635        MVI   XREG2,QR3                                                  58940021
 005FC0 45E0 BBAE      01A26        8636        BAL   RETRG,BRANCH          *    BCR  UNCOND,R3                  58947021
 005FC4 47F0 700A      0000A        8637        BC    UNCOND,DON            BACK TO PH5CTL FOR NEXT STRING       58954021
                                    8638 *                                                                       58961021
                             05FC8  8639        USING *,GVERB                                                    58968021
                                    8640 *                                 Q RTNE  FOR RENAMES                   58975021
                                    8641 *                            EX-  A RENAMES B THRU C                    58982021
                                    8642 *              FORMULA- LENGTHOF A= ADDR C-ADDR B+LENGTH OF C           58989021
 005FC8                             8643 QRNAM    DS    0H                                                       58996021
 005FC8 9201 D198      07D30        8644        MVI   XREG1,RW1                                                  59003021
 005FCC D201 D196 DDCA 07D2E 08962  8645          MVC   BLREF1(LX2),DOP2+NX2                                     59010021
 005FD2 45E0 B000      00E78        8646        BAL   RETRG,LOAD           * L   R1,SBL OR BL FOR C              59017021
 005FD6 9201 D198      07D30        8647          MVI   XREG1,XX01                                               59024021
 005FDA D201 D196 DE46 07D2E 089DE  8648          MVC   BLREF1(LX2),DOP3+NX2                                     59031021
 005FE0 45E0 B038      00EB0        8649        BAL   RETRG,SUB            * S   R1,SBL OR BL FOR C              59038021
 005FE4 95FA DEC0      08A58        8650          CLI   DOP4,XXFA           IS DOP4 A VLC REF...                 59045021
 005FE8 4770 9032      05FFA        8651        BNE   QRNAM1               NO,A DUMMY-(C IS FIXED LENGTH)        59052021
 005FEC 9201 D198      07D30        8652        MVI   XREG1,RW1                                                  59059021
 005FF0 D202 D188 DEC1 07D20 08A59  8653          MVC   XCNTR1(LX3),DOP4+NX1                                     59066021
 005FF6 45E0 BA38      018B0        8654        BAL   RETRG,ADD            * A   R1,VLC                          59073021
 005FFA                             8655 QRNAM1   DS    0H                                                       59080021
 005FFA 9201 D198      07D30        8656          MVI   XREG1,XX01                                               59087021
 005FFE 9202 D180      07D18        8657          MVI   XCON1+NX16,XX02                                          59094021
 006002 D201 D17E DF3D 07D16 08AD5  8658          MVC   XCON1+NX14(LX2),DOP5+NX1                                 59101021
 006008 45E0 BA38      018B0        8659        BAL   RETRG,ADD            * A   R1,LITERAL                      59108021
                                    8660 *                             IF DOP4 IS A DUMMY LITERAL REPRESENTS     59115021
                                    8661 *                                  ADDRC - ADDRB + LENGTHC              59122021
                                    8662 *                             IF DOP4 IS A VLC   LITERAL REPRESENTS     59129021
                                    8663 *                                  ADDRC - ADDRB                        59136021
 00600C 9201 D198      07D30        8664        MVI   XREG1,RW1                                                  59143021
 006010 D202 D188 DD4D 07D20 088E5  8665          MVC   XCNTR1(LX3),DOP1+NX1                                     59150021
 006016 45E0 B040      00EB8        8666        BAL   RETRG,STORE          * ST  R1,VLC FOR A                    59157021
 00601A 47F0 700A      0000A        8667        B     PH5CTL               EXIT                                  59164021
1         DISPLAY/EXHIBIT/STOP/TRACE SUBROUTINES                                                                PAGE  186
-  LOC  OBJECT CODE    ADDR1 ADDR2  STMT   SOURCE STATEMENT                                       ASM 0201 11.03 02/14/15
0                                   8669 *=2            SUBROUTINES TO BUILD DN - INFO PARAMETER STRINGS         59178021
                                    8670 *=             FOR DISPLAY, EXHIBIT, STOP AND TRACE.                    59185021
                                    8671 *                                                                       59192021
                                    8672 *      GENERATE THE DC PARAMER STRING (IN LINE) FOR DISPLAY SR          59199021
                                    8673 *            CALLING SEQUENCES.  BEFORE ENTERING DO...                  59206021
                                    8674 *      LA    RW4,N*LOPD                                                 59213021
                                    8675 *                            WHERE N IS THE OPERAND (0 TO 4)            59220021
                                    8676 *                                WHICH IS TO BE FIRST.                  59227021
                                    8677 *                                                                       59234021
                                    8678 *       USED BY DISPLAY, EXHIBIT, STOP                                  59241021
                                    8679 *                                                                       59248021
                             0601E  8680        USING   *,HCOMSR                                                 59255021
 00601E 90E2 C528      07358        8681 DIDNIQ STM     RETRG,RW2,SVDIS5    GEN...  DN-INFO FOR EACH DN          59262021
 006022 4124 DD4C      088E4        8682 DISP07 LA    RW2,DOP1(RW4)                                              59269021
 006026 D501 2000 C826 00000 07656  8683          CLC   DX0(LX2,RW2),HTERM    END OF OPERANDS...                 59276021
 00602C 4780 F01E      0603C        8684        BC      EQ,DISP05            YES                                 59283021
 006030 45E0 7786      00786        8685        BAL     RETRG,DIINFO        GEN... 12 BYTES OF DN-INFO           59290021
 006034 45E0 77FA      007FA        8686        BAL     RETRG,GETDOP        UPDATE DISPLACEMENT REGISTER         59297021
 006038 47F0 F004      06022        8687        BC      UNCOND,DISP07       LOOP BACK FOR NEXT DN, ETC.          59304021
 00603C 98E2 C528      07358        8688 DISP05 LM      RETRG,RW2,SVDIS5                                         59311021
 006040 58F0 C588      073B8        8689        L     XRVAR,SVWJH1           DIDNIN                              59318021
 006044 07FE                        8690        BCR     UNCOND,RETRG        *** LEAVE DIDNIN ***                 59325021
1         DISPLAY/EXHIBIT/STOP/TRACE SUBROUTINES                                                                PAGE  187
-  LOC  OBJECT CODE    ADDR1 ADDR2  STMT   SOURCE STATEMENT                                       ASM 0201 11.03 02/14/15
0                                   8692 *              BUILD 12 BYTES OF DATA INFO FOR DN                       59339021
                                    8693 *                POINTED TO BY RW2. A-TEXT IS GENERATED.                59346021
                                    8694 *                                                                       59353021
                             06046  8695        USING   *,HCOMSR                                                 59360021
 006046 50E0 C524      07354        8696 DIINFQ ST      RETRG,SVDIS4                                             59367021
 00604A 9535 2000      00000        8697          CLI   DX0(RW2),MDNNM       35 TYPE AN LIT...                   59374021
 00604E 4770 F07E      060C4        8698        BC    NOTEQ,DIINF1           NO                                  59381021
 006052 D201 D5F6 C3CE 0818E 071FE  8699          MVC   PR35M(LX2),XC002    INITIALIZE 35 BUILDER, M = 2         59388021
 006058 9234 DF3C      08AD4        8700          MVI   DOP5,XX34            HEADER, MAKE 34                     59395021
 00605C 45E0 F0BC      06102        8701        BAL   RETRG,PR3501          MOVE IN THIS 35                      59402021
 006060 45E0 77FA      007FA        8702        BAL   RETRG,GETDOP          GET NEXT ELEMENT                     59409021
 006064 4124 DD4C      088E4        8703        LA    RW2,DOP1(RW4)                                              59416021
 006068 D502 C8A1 2000 076D1 00000  8704          CLC   PR35C1(LX3),DX0(RW2)  =X'35014D' LEFT PARAN...           59423021
 00606E 4770 F0AC      060F2        8705        BC    NOTEQ,PR3503           NO                                  59430021
 006072 45E0 F0BC      06102        8706        BAL   RETRG,PR3501           YES, ADD TO BUILD                   59437021
 006076 47F0 F040      06086        8707        BC    UNCOND,PR3509         BYPASS COMMA INSERTION FOR FIRST     59444021
 00607A 45E0 F0BC      06102        8708 PR3505 BAL   RETRG,PR3501           YES, ADD IT TO BUILD                59451021
 00607E 4120 C8C0      076F0        8709        LA    RW2,PR35CB            =', '                                59458021
 006082 45E0 F0BC      06102        8710        BAL   RETRG,PR3501          ADD ', ' TO BUILD                    59465021
 006086 45E0 77FA      007FA        8711 PR3509 BAL   RETRG,GETDOP          GET NEXT ELEMENT                     59472021
 00608A 4124 DD4C      088E4        8712        LA    RW2,DOP1(RW4)                                              59479021
 00608E 9532 2000      00000        8713          CLI   DX0(RW2),MNLIT       NUM LIT...                          59486021
 006092 4780 F0B4      060FA        8714        BC    EQ,PR3504              YES                                 59493021
 006096 D502 C8A4 2000 076D4 00000  8715          CLC   PR35C2(LX3),DX0(RW2)  =X'35015D' RIGHT PARAN...          59500021
 00609C 4770 F034      0607A        8716        BC    NOTEQ,PR3505           NO, MUST BE 35 FOR DN, ADD TO B     59507021
 0060A0 4810 D5F6      0818E        8717        LH    RW1,PR35M             NEGATE LAST ', '                     59514021
 0060A4 4B10 C3CE      071FE        8718        SH    RW1,XC002                                                  59521021
 0060A8 4010 D5F6      0818E        8719        STH   RW1,PR35M                                                  59528021
 0060AC 45E0 F0BC      06102        8720        BAL   RETRG,PR3501          RIGHT PARAN ALWAYS SENT BY PH4.      59535021
 0060B0 4810 D5F6      0818E        8721 PR3506 LH    RW1,PR35M             M                                    59542021
 0060B4 4B10 C3CE      071FE        8722        SH    RW1,XC002             M-2                                  59549021
 0060B8 4210 DF3D      08AD5        8723          STC   RW1,DOP5+NX1         SET AS LENGTH OF BUILD (MAX 120)    59556021
 0060BC 5020 DD40      088D8        8724        ST    RW2,PR35SV            SAVE CURRENT RW2                     59563021
 0060C0 4120 DF3C      08AD4        8725        LA    RW2,DOP5              SET RW2 POINTING TO BUILT 35 (34     59570021
                             060C4  8726 DIINF1 EQU   *                                                          59577021
 0060C4 45E0 7790      00790        8727        BAL     RETRG,DITYPE        GENERATE APPROPRIATE DC              59584021
 0060C8 45E0 779A      0079A        8728        BAL     RETRG,DILGTH        GENERATE APPROPRIATE DC              59591021
 0060CC 45E0 77A4      007A4        8729        BAL     RETRG,DIBDIS        GENERATE APPROPRIATE DC              59598021
 0060D0 45E0 77C2      007C2        8730          BAL   RETRG,CLSQDP        GENERATE APPROPRIATE DC              59605021
 0060D4 D503 DD40 C38C 088D8 071BC  8731          CLC   PR35SV(LX4),GZERO    IS RW2 A DUMMY FOR EXHIBIT...       59612021
 0060DA 4780 F0A2      060E8        8732        BC      EQ,DIINF2            NO                                  59619021
 0060DE 5820 DD40      088D8        8733        L       RW2,PR35SV           YES, RESTORE RW2                    59626021
 0060E2 D203 DD40 C38C 088D8 071BC  8734          MVC   PR35SV(LX4),GZERO                                        59633021
 0060E8 58E0 C524      07354        8735 DIINF2 L       RETRG,SVDIS4                                             59640021
 0060EC 58F0 C58C      073BC        8736        L     XRVAR,SVWJH2           DIINFO                              59647021
 0060F0 07FE                        8737        BCR     UNCOND,RETRG        RETURN TO CALLER                     59654021
 0060F2 9601 D620      081B8        8738 PR3503 OI    LOOKAH,MSWON          INDICATE A LOOK-AHEAD IS IN EFFE     59661021
 0060F6 47F0 F06A      060B0        8739        BC    UNCOND,PR3506         CHECK M, WITH LOOK-AHEAD             59668021
 0060FA 45E0 78EE      008EE        8740 PR3504 BAL   RETRG,CVNLIT          CONVERT NUM LIT TO ZD W/DEC PT 3     59675021
 0060FE 47F0 F034      0607A        8741        BC    UNCOND,PR3505          LAID OVER ORIG NUM LIT.             59682021
 006102 9046 C400      07230        8742 PR3501   STM   RW4,RW6,SVWJHE                                           59689021
 006106 957A D5F7      0818F        8743          CLI   PR35M+NX1,XX7A       ALREADY STORED 120 CHAR?            59696021
 00610A 078E                        8744          BCR   EQ,RETRG            YES, DONT STORE ANY MORE             59703021
 00610C 1B55                        8745        SR    RW5,RW5                                                    59710021
 00610E 4352 0001      00001        8746          IC    RW5,DX1(RW2)         GET LENGTH N OF BCD TEXT            59717021
1         DISPLAY/EXHIBIT/STOP/TRACE SUBROUTINES                                                                PAGE  188
-  LOC  OBJECT CODE    ADDR1 ADDR2  STMT   SOURCE STATEMENT                                       ASM 0201 11.03 02/14/15
0006112 0650                        8747        BCTR  RW5,RW0                   N-1                              59724021
 006114 4860 D5F6      0818E        8748        LH    RW6,PR35M                                                  59731021
 006118 4166 DF3C      08AD4        8749        LA    RW6,DOP5(RW6)                                              59738021
 00611C 4145 0001      00001        8750          LA    RW4,DX1(RW5)         CALCULATE NUMBER WE CAN STORE       59745021
 006120 4A40 D5F6      0818E        8751          AH    RW4,PR35M           WITHOUT GOING OVER 120 CHAR          59752021
 006124 4940 C6DC      0750C        8752          CH    RW4,XC0122                                               59759021
 006128 47D0 F0FA      06140        8753          BNH   PR35X2             LESS THAN 122                         59766021
 00612C 45E0 7520      00520        8754        BAL   RETRG,ERRPRO         PUT OUT MSG. MORE THAN                59773021
 006130 12                          8755        DC    AL1(ERRN18)            120 CHARACTERS.                     59780021
 006131 00                          8756        DC    AL1(0)                                                     59787021
 006132 4850 C6DC      0750C        8757          LH    RW5,XC0122                                               59794021
 006136 4B50 D5F6      0818E        8758          SH    RW5,PR35M                                                59801021
 00613A 0650                        8759          BCTR  RW5,RW0            DECREMENT BY ONE                      59808021
 00613C 4840 C6DC      0750C        8760          LH    RW4,XC0122                                               59815021
 006140 4040 D5F6      0818E        8761 PR35X2   STH   RW4,PR35M                                                59822021
 006144 4450 F108      0614E        8762        EX    RW5,PR35MV                MOVE                             59829021
 006148 9846 C400      07230        8763          LM    RW4,RW6,SVWJHE                                           59836021
 00614C 07FE                        8764          BCR   UNCOND,RETRG       RETURN TO CALLER                      59843021
 00614E D200 6000 2002 00000 00002  8765 PR35MV   MVC   DX0(LX1,RW6),DX2(RW2) *** EXECUTED MVC ***               59850021
                                    8766 *                                                                       59857021
                                    8767 ***********************************************************             59864021
                                    8768 *      LA      RW2,DOP-I               TYPE  DC  BUILDER                59871021
                                    8769 *      BAL     RETRG,DITYPE                                             59878021
                                    8770 *                                                                       59885021
                                    8771 *                                                                       59892021
                             06154  8772        USING   *,HCOMSR                                                 59899021
 006154 90E4 C4E0      07310        8773 DITYPQ STM     RETRG,RW4,SVDIS1                                         59906021
 006158 9530 2000      00000        8774          CLI   DX0(RW2),MDN                                             59913021
 00615C 4780 F038      0618C        8775        BC      EQ,DITY01           DN FOUND                             59920021
 006160 9532 2000      00000        8776          CLI   DX0(RW2),MNLIT                                           59927021
 006164 4780 F0C6      0621A        8777        BC      EQ,DITY10           NUM LIT                              59934021
 006168 9533 2000      00000        8778          CLI   DX0(RW2),MFPLIT                                          59941021
 00616C 4780 F0CE      06222        8779        BC      EQ,DITY11           FP LIT                               59948021
 006170 9534 2000      00000        8780          CLI   DX0(RW2),MANLIT                                          59955021
 006174 4780 F098      061EC        8781        BC    EQ,DITY03             AN LITERAL                           59962021
 006178 9575 2000      00000        8782          CLI   DX0(RW2),MFIGC                                           59969021
 00617C 4780 F090      061E4        8783        BC    EQ,DITY09             FIGCON                               59976021
 006180 95FA 2000      00000        8784          CLI   DX0(RW2),MPARMA      IFP IN PARAM AREA...                59983021
 006184 4780 F088      061DC        8785        BC    EQ,DITY04                  YES                             59990021
 006188 47F0 F09C      061F0        8786          B     DITYEX              GENERATE SAVE MACRO                  59997021
 00618C D502 2004 C69A 00004 074CA  8787 DITY01   CLC   DX4(LX3,RW2),XTALLV+NX4 TALLY...                         60004021
 006192 4780 F122      06276        8788        BC      EQ,DITY16            YES                                 60011021
 006196 1B33                        8789          SR    RW3,RW3              NO, NORMAL DN                       60018021
 006198 4332 0003      00003        8790          IC    RW3,DX3(RW2)                                             60025021
 00619C 8830 0004      00004        8791          SRL   RW3,DX4              MINOR*2 FOR INDEXED LOAD            60032021
 0061A0 8930 0001      00001        8792          SLL   RW3,DX1                                                  60039021
 0061A4 4843 C7EC      0761C        8793        LH      RW4,DITYTB(RW3)                                          60046021
 0061A8 4930 C3D8      07208        8794          CH    RW3,G20             SPECIAL CASES...                     60053021
 0061AC 4740 F09C      061F0        8795        BC      LO,DITYEX            NO, GET OUT                         60060021
 0061B0 4780 F078      061CC        8796        BC      EQ,DITY07            YES, SET PRECISION BIT              60067021
 0061B4 4930 C6D2      07502        8797        CH    RW3,XC028            IS IT ANE...                          60074021
 0061B8 4780 F09C      061F0        8798        BE    DITYEX               YES                                   60081021
 0061BC 9101 2007      00007        8799          TM    DX7(RW2),XX01         YES, CHECK FOR S IN PICTURE        60088021
 0061C0 4780 F09C      061F0        8800        BC      ZERO,DITYEX         GENERATE SAVE MACRO                  60095021
 0061C4 5640 C3D4      07204        8801 DITY08   O     RW4,GFOUR           SET SIGNED/DOUBLE PRECISION BIT      60102021
1         DISPLAY/EXHIBIT/STOP/TRACE SUBROUTINES                                                                PAGE  189
-  LOC  OBJECT CODE    ADDR1 ADDR2  STMT   SOURCE STATEMENT                                       ASM 0201 11.03 02/14/15
00061C8 47F0 F09C      061F0        8802        BC      UNCOND,DITYEX    *** LEAVE DITYPE ***                    60109021
 0061CC 9101 2009      00009        8803 DITY07   TM    DX9(RW2),XX01        DOUBLE PRECISION...                 60116021
 0061D0 4710 F070      061C4        8804        BC      ONES,DITY08          YES                                 60123021
 0061D4 47F0 F09C      061F0        8805        BC      UNCOND,DITYEX        NO                                  60130021
 0061D8 9234 2000      00000        8806          MVI   DX0(RW2),MANLIT     MAKE NUM AND FP LITS LOOK LIKE       60137021
 0061DC                             8807 DITY04   DS    0H                                                       60144021
 0061DC 4140 001F      0001F        8808          LA    RW4,XX1F            NUM, FP LITS AND FP DN'S             60151021
 0061E0 47F0 F09C      061F0        8809        BC      UNCOND,DITYEX       GENERATE SAVE MACRO                  60158021
 0061E4                             8810 DITY09   DS    0H                                                       60165021
 0061E4 4140 0090      00090        8811          LA    RW4,XX90            SET FIGCON BIT,TYPE DIRECT BIT       60172021
 0061E8 47F0 F09C      061F0        8812        BC    UNCOND,DITYEX         GENERATE SAVE MACRO                  60179021
 0061EC                             8813 DITY03   DS    0H                                                       60186021
 0061EC 4140 0010      00010        8814          LA    RW4,XX10            DIRECT,READY-TO-PRINT,BREAKABLE      60193021
 0061F0 4040 D56C      08104        8815 DITYEX STH     RW4,DITYSV          SAVE TYPE                            60200021
 0061F4 4040 D170      07D08        8816        STH     RW4,GMACDC          GEN...   DC     XL1'TYPE'            60207021
 0061F8 9201 D170      07D08        8817          MVI   GMACDC,XX01                                              60214021
 0061FC 9103 7BD4      00BD4        8818          TM    NREADSW,READVSON+SCNDSRA      V/S READ,NO SRA...   58932 60221021
 006200 47B0 F0B4      06208        8819          BNM   DITY02              NOT SUITABLE CONDITIONS        58932 60228021
 006204 9640 D171      07D09        8820          OI    GMACDC+NX1,XX40     SIGNAL RECORD TO VMO           58932 60235021
 006208                             8821 DITY02   DS    0H                                                 58932 60242021
 006208 9224 D199      07D31        8822        MVI     GMCTYP,MDC                                               60249021
 00620C 45E0 BD28      01BA0        8823        BAL     RETRG,MACRO         GENERATE MACRO CODING                60256021
 006210 98E4 C4E0      07310        8824        LM      RETRG,RW4,SVDIS1                                         60263021
 006214 58F0 C590      073C0        8825        L     XRVAR,SVWJH3           DITYPE                              60270021
 006218 07FE                        8826        BCR     UNCOND,RETRG        RETURN TO CALLER                     60277021
 00621A 45E0 78EE      008EE        8827 DITY10 BAL     RETRG,CVNLIT        CONVERT NUM LIT TO AN FORMAT         60284021
 00621E 47F0 F088      061DC        8828        BC      UNCOND,DITY04       GIVE NUM TYPE                        60291021
 006222 9234 2000      00000        8829 DITY11   MVI   DX0(RW2),MANLIT      CHANGE HEADER FROM FP TO AN LIT     60298021
 006226 9190 2002      00002        8830          TM    DX2(RW2),XX90        HI-SIGN OK...                       60305021
 00622A 47B0 F088      061DC        8831        BC      NOTMXD,DITY04        YES                                 60312021
 00622E 91E0 2002      00002        8832          TM    DX2(RW2),XXE0        S/B '+'...                          60319021
 006232 47E0 F0EA      0623E        8833        BC      NOTONE,DITY12        NO                                  60326021
 006236 924E 2002      00002        8834          MVI   DX2(RW2),XX4E                                            60333021
 00623A 47F0 F088      061DC        8835        BC      UNCOND,DITY04       REVERT TO SAVE MACRO                 60340021
 00623E 9170 2002      00002        8836 DITY12   TM    DX2(RW2),XX70        S/B '-'...                          60347021
 006242 4710 F11A      0626E        8837        BC      ONES,DITY13          YES                                 60354021
 006246 954B 2002      00002        8838          CLI   DX2(RW2),XX4B        FIRST CHAR '.'...                   60361021
 00624A 4770 F11A      0626E        8839        BC      NOTEQ,DITY13         NO, JUST CHANGE TO '-'              60368021
 00624E 1BEE                        8840        SR      RETRG,RETRG                                              60375021
 006250 43E2 0001      00001        8841          IC    RETRG,DX1(RW2)       SHIFT TO NEW AREA, LEAVE  LEADIN    60382021
 006254 41EE 0001      00001        8842          LA    RETRG,DX1(RETRG)      IN DOP CELL                        60389021
 006258 42E2 0021      00021        8843          STC   RETRG,DX33(RW2)       FOR SIGN                           60396021
 00625C D200 2000 2020 00000 00020  8844          MVC   DX0(LX1,RW2),DX32(RW2)                                   60403021
 006262 D21D 2002 2023 00002 00023  8845          MVC   DX2(LX30,RW2),DX35(RW2)                                  60410021
 006268 D21F 2000 2020 00000 00020  8846          MVC   DX0(LX32,RW2),DX32(RW2) MOVE BACK TO START OF CURRENT DO 60417021
 00626E 9260 2002      00002        8847 DITY13   MVI   DX2(RW2),XX60                                            60424021
 006272 47F0 F088      061DC        8848        BC      UNCOND,DITY04       REVERT TO SAVE MACRO                 60431021
 006276                             8849 DITY16   DS    0H                                                       60438021
 006276 4140 0011      00011        8850          LA    RW4,XX11            TALLY, DIRECT, AND BINARY            60445021
 00627A 47F0 F09C      061F0        8851          BC    UNCOND,DITYEX       GENERATE SAVE MACRO                  60452021
1         DISPLAY/EXHIBIT/STOP/TRACE SUBROUTINES                                                                PAGE  190
-  LOC  OBJECT CODE    ADDR1 ADDR2  STMT   SOURCE STATEMENT                                       ASM 0201 11.03 02/14/15
0                                   8853 *                                                                       60466021
                                    8854 *                     LENGTH DC BUILDER                                 60473021
                                    8855 *                                                                       60480021
                                    8856 *                                                                       60487021
                             0627E  8857        USING   *,HCOMSR                                                 60494021
 00627E 90E3 C4FC      0732C        8858 DILGTQ STM     RETRG,RW3,SVDIS2                                         60501021
 006282 45E0 77F0      007F0        8859        BAL     RETRG,CALCLG        DN'S, FIND LENGTH OR VLC             60508021
 006286 4700 0000      00000        8860          NOP   DX0(RW0)            NULL OPERATION                       60515021
 00628A 9120 D56D      08105        8861 SKPSTR TM    DITYSV+NX1,XX20           TEST TYPE                        60522021
 00628E 4710 F066      062E4        8862        BC      ONES,DILG02         VL W/VLC NUMBER IN LENGTH            60529021
 006292 9103 D56D      08105        8863          TM    DITYSV+NX1,XX03                                          60536021
 006296 47B0 F046      062C4        8864        BC      NOTMXD,DILG03       NOT ID AND NOT BIN                   60543021
 00629A 1B11                        8865        SR      RW1,RW1             ID OR BIN, OBTAIN 9'S LENGTH         60550021
 00629C 4312 0009      00009        8866          IC    RW1,DX9(RW2)         9'S LENGTH                          60557021
 0062A0 5830 D550      080E8        8867        L       RW3,LENGTH          COMBINE THE 2 LENGTHS                60564021
 0062A4 8930 0010      00010        8868          SLL   RW3,DX16                                                 60571021
 0062A8 1631                        8869        OR      RW3,RW1                                                  60578021
 0062AA 5030 D170      07D08        8870 DILG07 ST      RW3,GMACDC                                               60585021
 0062AE 9203 D170      07D08        8871          MVI   GMACDC,XX03          GEN...  DC  XL1'BYTE-LENGTH'        60592021
 0062B2 9224 D199      07D31        8872        MVI     GMCTYP,MDC                 DC  XL2'9-LENGTH'             60599021
 0062B6 45E0 BD28      01BA0        8873 DILG04 BAL     RETRG,MACRO         GENERATE MACRO CODING                60606021
 0062BA 98E3 C4FC      0732C        8874          LM    RETRG,RW3,SVDIS2                                         60613021
 0062BE 58F0 C594      073C4        8875        L     XRVAR,SVWJH4           DILGTH                              60620021
 0062C2 07FE                        8876        BCR     UNCOND,RETRG        *** LEAVE DILGTH ***                 60627021
 0062C4 5830 D550      080E8        8877 DILG03 L       RW3,LENGTH          GEN...  DC  XL3'LENGTH'              60634021
 0062C8 95FA 2000      00000        8878          CLI   DX0(RW2),MPARMA      IFP IN PARAM AREA...                60641021
 0062CC 4770 F02C      062AA        8879        BC    NOTEQ,DILG07               NO                              60648021
 0062D0 4130 000E      0000E        8880        LA    RW3,FPLENS             YES, PUT EFP LENGTH IN RW3          60655021
 0062D4 951D 2001      00001        8881          CLI   DX1(RW2),XX1D             SINGLE PREC FP...              60662021
 0062D8 4780 F02C      062AA        8882        BC    EQ,DILG07              SIMGE PREC = 14                     60669021
 0062DC 4130 0017      00017        8883        LA    RW3,FPLENL             DOUBLE PREC = 23                    60676021
 0062E0 47F0 F02C      062AA        8884        BC      UNCOND,DILG07       COMMON CODING                        60683021
 0062E4 D201 D160 C7E8 07CF8 07618  8885 DILG02   MVC   GMADCN(LX2),DILGC1  VL C1=X'1C00'                        60690021
 0062EA D201 D162 D552 07CFA 080EA  8886          MVC   GMADCN+NX2(LX2),LENGTH+NX2                               60697021
 0062F0 9218 D199      07D31        8887        MVI     GMCTYP,MADCON                                            60704021
 0062F4 47F0 F038      062B6        8888        BC      UNCOND,DILG04       GEN...  DC  AL3(VLC)                 60711021
                                    8889 *         GEN   TGT POINTER AND DISPLACEMENT ADCONS                     60718021
                             062F8  8890        USING   *,HCOMSR                                                 60725021
 0062F8 90E1 C514      07344        8891 DIBDIQ STM     RETRG,RW1,SVDIS3                                         60732021
 0062FC 45E0 781E      0081E        8892        BAL   RETRG,DRELAD          GO SET UP RELAD1 FOR CURR UNIT       60739021
 006300 9218 D199      07D31        8893        MVI   GMCTYP,MADCON                                              60746021
 006304 45E0 BD28      01BA0        8894        BAL   RETRG,MACRO           *    DC   AL4(TGT-CELL)              60753021
 006308 45E0 7814      00814        8895        BAL   RETRG,DDISPM          GO SET UP GMACDC WITH                60760021
 00630C 9224 D199      07D31        8896        MVI   GMCTYP,MDC                                                 60767021
 006310 45E0 BD28      01BA0        8897        BAL   RETRG,MACRO           *    DC   XL2'DISP'                  60774021
 006314 98E1 C514      07344        8898        LM    RETRG,RW1,SVDIS3                                           60781021
 006318 58F0 C598      073C8        8899        L     XRVAR,SVWJH5             DIBDIS                            60788021
 00631C 07FE                        8900        BCR   UNCOND,RETRG          *** LEAVE DIBDIS ***                 60795021
                                    8901 *      SET UP RELAD1 FOR THE VARIOUS BL REFERENCES                      60802021
                             0631E  8902        USING *,HCOMSR                                                   60809021
                             0631E  8903 DRELAQ EQU   *                                                          60816021
 00631E 5010 C5E8      07418        8904        ST    RW1,SVWJHK                                                 60823021
 006322 95FA 2000      00000        8905          CLI   DX0(RW2),MPARMA      IFP IN PARAM AREA...                60830021
 006326 4780 F0A2      063C0        8906        BC    EQ,DREL01                  YES                             60837021
 00632A 9530 2000      00000        8907          CLI   DX0(RW2),MDN         DN...                               60844021
1         DISPLAY/EXHIBIT/STOP/TRACE SUBROUTINES                                                                PAGE  191
-  LOC  OBJECT CODE    ADDR1 ADDR2  STMT   SOURCE STATEMENT                                       ASM 0201 11.03 02/14/15
000632E 4770 F092      063B0        8908        BC    NOTEQ,DIBD01          NO                                   60851021
 006332 D502 2004 C69A 00004 074CA  8909          CLC   DX4(LX3,RW2),XTALLV+NX4 TALLY...                         60858021
 006338 4780 F0D0      063EE        8910        BC    EQ,DREL03              YES                                 60865021
 00633C 9170 2004      00004        8911          TM    DX4(RW2),XX70         YES                                60872021
 006340 4780 F05E      0637C        8912        BC      ZERO,DIBD02         BL                                   60879021
 006344 9160 2004      00004        8913          TM    DX4(RW2),XX60        SUBSCTRIPED...                      60886021
 006348 4710 F076      06394        8914         BC   ONES,DIBD0A            YES                                 60893021
 00634C 9110 2004      00004        8915          TM    DX4(RW2),XX10                                            60900021
 006350 4710 F066      06384        8916        BC      ONES,DIBD03         BLL                                  60907021
 006354 9120 2004      00004        8917          TM    DX4(RW2),XX20                                            60914021
 006358 4710 F06E      0638C        8918        BC      ONES,DIBD04         BLS                                  60921021
 00635C 4110 0014      00014        8919          LA    RW1,XX14            SBL BY ELIMINATION                   60928021
                             06360  8920 DIBD05   EQU   *                                                        60935021
 006360 8910 0008      00008        8921 DIBD06   SLL   RW1,DX8                                                  60942021
 006364 4010 D160      07CF8        8922        STH   RW1,GMADCN            SET TT CODE                          60949021
 006368 9201 D161      07CF9        8923          MVI   GMADCN+NX1,XX01           SET BASE CODE FOR CALLING S    60956021
 00636C D200 D163 2006 07CFB 00006  8924          MVC   GMADCN+NX3(LX1),DX6(RW2) SET NUMBER                      60963021
 006372 58F0 C5B8      073E8        8925 DIBD09 L     HCOMSR,SVWJHD                                              60970021
 006376 5810 C5E8      07418        8926        L     RW1,SVWJHK                                                 60977021
 00637A 07FE                        8927        BCR   UNCOND,RETRG        *** LEAVE DRELAD SR ***                60984021
 00637C                             8928 DIBD02   DS    0H                                                       60991021
 00637C 4110 000C      0000C        8929          LA    RW1,XX0C            BL                                   60998021
 006380 47F0 F042      06360        8930        BC      UNCOND,DIBD05            I/O CHECK                       61005021
 006384                             8931 DIBD03   DS    0H                                                       61012021
 006384 4110 0028      00028        8932          LA    RW1,XX28            BLL                                  61019021
 006388 47F0 F042      06360        8933        BC      UNCOND,DIBD06            BYPASS I/O CHECK                61026021
 00638C                             8934 DIBD04   DS    0H                                                       61033021
 00638C 4110 0024      00024        8935          LA    RW1,XX24            SBL                                  61040021
 006390 47F0 F042      06360        8936        BC      UNCOND,DIBD06            BYPASS I/O CHECK                61047021
 006394 9260 D160      07CF8        8937 DIBD0A   MVI   GMADCN,XX60          SUBSCRIPT  TT                       61054021
 006398 9201 D161      07CF9        8938          MVI   GMADCN+NX1,XX01           SET BASE CODE FOR CALLING S    61061021
 00639C D201 D338 2005 07ED0 00005  8939          MVC   GTEMP(LX2),DX5(RW2)   SUBSCRIPT CELL (SBS) NO.           61068021
 0063A2 940F D338      07ED0        8940          NI    GTEMP,XX0F           CLEAR OUT I OF IDK FIELD            61075021
 0063A6 D201 D162 D338 07CFA 07ED0  8941          MVC   GMADCN+NX2(LX2),GTEMP CELL NUMBER IS IN D PART OF IDK    61082021
 0063AC 47F0 F054      06372        8942        BC    UNCOND,DIBD09         EXIT FROM ROUTINE                    61089021
                             063B0  8943 DIBD01 EQU   *                                                          61096021
 0063B0 922C D160      07CF8        8944          MVI   GMADCN,XX2C           NO, ASSUME LITERAL OR FIGCON       61103021
 0063B4 9201 D161      07CF9        8945          MVI   GMADCN+NX1,XX01           SET BASE CODE FOR CALLING S    61110021
 0063B8 5020 D148      07CE0        8946        ST      RW2,OP1                                                  61117021
 0063BC 47F0 F054      06372        8947        BC      UNCOND,DIBD09       EXIT FROM ROUTINE                    61124021
 0063C0 9208 D160      07CF8        8948 DREL01   MVI   GMADCN,XX08          SET UP PARAM ADCON                  61131021
 0063C4 9201 D161      07CF9        8949          MVI   GMADCN+NX1,XX01           SET BASE CODE FOR CALLING S    61138021
 0063C8 D201 D18C D5E2 07D24 0817A  8950          MVC   PLUS1+NX1(LX2),DIFPNN                                    61145021
 0063CE 9201 D163      07CFB        8951          MVI   GMADCN+NX3,XX01                                          61152021
 0063D2 4810 D5E2      0817A        8952        LH      RW1,DIFPNN               UP N BY LENGTH OF EFP           61159021
 0063D6 4111 000E      0000E        8953        LA      RW1,FPLENS(RW1)                                          61166021
 0063DA 951D 2001      00001        8954          CLI   DX1(RW2),XX1D             SINGLE PRECISION...            61173021
 0063DE 4780 F0C8      063E6        8955        BC    EQ,DREL02               YES                                61180021
 0063E2 4111 0009      00009        8956        LA    RW1,FPLENL-FPLENS(RW1)                                     61187021
 0063E6 4010 D5E2      0817A        8957 DREL02 STH     RW1,DIFPNN                                               61194021
 0063EA 47F0 F054      06372        8958        BC    UNCOND,DIBD09         EXIT FROM ROUTINE                    61201021
 0063EE 9204 D160      07CF8        8959 DREL03   MVI   GMADCN,XX04          TALLY RELAD SETUP                   61208021
 0063F2 9201 D161      07CF9        8960          MVI   GMADCN+NX1,XX01           SET BASE CODE FOR CALLING S    61215021
 0063F6 47F0 F054      06372        8961        BC    UNCOND,DIBD09         EXIT FROM ROUTINE                    61222021
                                    8962 *      ISOLATE DISPLACEMENT AND PUT IT INTO CELL GMACDC (XCON1)         61229021
1         DISPLAY/EXHIBIT/STOP/TRACE SUBROUTINES                                                                PAGE  192
-  LOC  OBJECT CODE    ADDR1 ADDR2  STMT   SOURCE STATEMENT                                       ASM 0201 11.03 02/14/15
0                                   8963 *                                                                       61236021
                                    8964 *      *** DOES NOT SAVE REGISTERS. DO NOT CHANGE TO USE REG'S ***      61243021
                                    8965 *                                                                       61250021
                             063FA  8966        USING *,HCOMSR                                                   61257021
 0063FA 9530 2000      00000        8967 DDISPQ   CLI   DX0(RW2),MDN         DN...                               61264021
 0063FE 4770 F024      0641E        8968        BC    NOTEQ,DIBD10           NO, LIT FIGCON TALL ALL DISP =      61271021
 006402 D502 2004 C69A 00004 074CA  8969          CLC   DX4(LX3,RW2),XTALLV+NX4 TALLY...                         61278021
 006408 4780 F024      0641E        8970        BC    EQ,DIBD10                   YES, DISPLACEMENT = 0          61285021
 00640C 9160 2004      00004        8971          TM    DX4(RW2),XX60        SUBSCRIPTED...                      61292021
 006410 4710 F024      0641E        8972        BC    ONES,DIBD10            YES, DISPLACEMENT = 0 FOR SUBSC     61299021
 006414 D201 D171 2004 07D09 00004  8973          MVC   GMACDC+NX1(LX2),DX4(RW2) ISOLATE DISPLACEMENT            61306021
 00641A 940F D171      07D09        8974          NI    GMACDC+NX1,XX0F      CLEAR OUT BL PORTION OF BDISP       61313021
 00641E 9202 D170      07D08        8975 DIBD10   MVI   GMACDC,XX02                                              61320021
 006422 58F0 C5B8      073E8        8976        L     HCOMSR,SVWJHD                                              61327021
 006426 94FD D61B      081B3        8977        NI    DIFPSW,SSWOFF         CANCEL FP SPECIAL CASE SW            61334021
 00642A 07FE                        8978        BCR   UNCOND,RETRG          *** EXIT FROM DDISPM ***             61341021
1         DISPLAY/EXHIBIT/STOP/TRACE SUBROUTINES                                                                PAGE  193
-  LOC  OBJECT CODE    ADDR1 ADDR2  STMT   SOURCE STATEMENT                                       ASM 0201 11.03 02/14/15
0                                   8980 *                           CODING S.R.'S -PRODUCE BITS AND PIECES      61355021
                                    8981 *                                          OF CODING.                   61362021
                             0642C  8982        USING   *,HCOMSR                                                 61369021
 00642C 50E0 C540      07370        8983 DICO1Q ST    RETRG,SVDIS6                                               61376021
 006430 920E D198      07D30        8984          MVI   XREG1,XX0E           *    L    14,GND                    61383021
 006434 45E0 BDD0      01C48        8985        BAL     RETRG,GNSTEP        GET A GN FOR GND                     61390021
 006438 D201 D182 A15E 07D1A 0015E  8986          MVC   XGN1(LX2),FIVEGN                                         61397021
 00643E D201 D570 A15E 08108 0015E  8987        MVC     DISGND,FIVEGN                                            61404021
 006444 45E0 B000      00E78        8988        BAL     RETRG,LOAD          L       14,GND                       61411021
 006448 45E0 79A6      009A6        8989          BAL   RETRG,GDES14        DESTROY REGISTERS                    61418021
 00644C 58E0 C540      07370        8990        L     RETRG,SVDIS6                                               61425021
 006450 58F0 C59C      073CC        8991        L     XRVAR,SVWJH6           DICOA1                              61432021
 006454 07FE                        8992        BCR     UNCOND,RETRG        RETURN TO CALLER                     61439021
                             06456  8993        USING   *,HCOMSR                                                 61446021
 006456 50E0 C540      07370        8994 DICNOQ ST      RETRG,SVDIS6                                             61453021
 00645A 9208 D199      07D31        8995          MVI   IMM,XX08             CODE FOR '2,4' FOR CNOP             61460021
 00645E 45E0 BD62      01BDA        8996        BAL     RETRG,CNOP              GEN...   CNOP    2,4             61467021
 006462 58E0 C540      07370        8997        L       RETRG,SVDIS6                                             61474021
 006466 58F0 C5A0      073D0        8998        L     XRVAR,SVWJH7          DICNOP                               61481021
 00646A 07FE                        8999        BCR   UNCOND,RETRG          RETURN TO CALLER                     61488021
                             0646C  9000        USING *,HCOMSR                                                   61495021
 00646C 91CE 2000      00000        9001 CLSQDQ   TM    DX0(RW2),XXCE        TO SEE IF 21,30,31 ELEMENT          61502021
 006470 4770 F032      0649E        9002          BC    NOTEQ,CLSQRT       NO,RETURN                             61509021
 006474 5060 C690      074C0        9003          ST    RW6,CLSSV                                                61516021
 006478 1B66                        9004          SR    RW6,RW6                                                  61523021
 00647A 4362 0001      00001        9005          IC    RW6,DX1(RW2)                                             61530021
 00647E 0660                        9006          BCTR  RW6,RW0             DECREASE COUNT BY 1                  61537021
 006480 4166 2000      00000        9007          LA    RW6,DX0(RW6,RW2)                                         61544021
 006484 D202 D162 6000 07CFA 00000  9008          MVC   GMADCN+NX2(LX3),DX0(RW6)                                 61551021
 00648A 9218 D199      07D31        9009          MVI   GMCTYP,MADCON                                            61558021
 00648E 9202 D161      07CF9        9010          MVI   GMADCN+NX1,XX02                                          61565021
 006492 5020 D148      07CE0        9011          ST    RW2,OP1                                                  61572021
 006496 45E0 BD28      01BA0        9012          BAL   RETRG,MACRO         GENERATE MACRO CODING                61579021
 00649A 5860 C690      074C0        9013          L     RW6,CLSSV                                                61586021
 00649E 98EF C648      07478        9014 CLSQRT   LM    RETRG,XRVAR,SVWJHS                                       61593021
 0064A2 07FE                        9015          BCR   UNCOND,RETRG        RETURN TO CALLER                     61600021
                             064A4  9016        USING   *,HCOMSR                                                 61607021
 0064A4 50E0 C540      07370        9017 DIBALQ ST      RETRG,SVDIS6                                             61614021
                                    9018 *  UPON ENTRY, RW3 POINTS TO LAST 4 CHAR OF VIRT. XREG1 ALREADY SET     61621021
 0064A8 D507 D168 C38C 07D00 071BC  9019          CLC   GVIRT1(LX8),GZERO    VIRT ALREADY SET UP...              61628021
 0064AE 4770 F01A      064BE        9020        BC    NOTEQ,DIBA01           YES, USE IT                         61635021
 0064B2 D203 D168 C748 07D00 07578  9021          MVC   GVIRT1(LX4),VIRTHD   FIRST 4 CHAR OF VIRT                61642021
 0064B8 D203 D16C 3000 07D04 00000  9022          MVC   GVIRT1+NX4(LX4),DX0(RW3) LAST 4 CHAR OF VIRT             61649021
                             064BE  9023 DIBA01 EQU   *                                                          61656021
 0064BE D201 D166 A162 07CFE 00162  9024          MVC   VIRTC1+NX2(LX2),VIRCTR SET VIRTUAL NUMBER                61663021
 0064C4 4330 D198      07D30        9025        IC    RW3,XREG1             SAVE XREG1 FOR BALR                  61670021
 0064C8 950D D198      07D30        9026          CLI   XREG1,XX0D                                               61677021
 0064CC 4720 F056      064FA        9027        BC    HI,DIBAQ1             REG 14 OR 15 ...                     61684021
 0064D0 5040 C600      07430        9028        ST    RW4,SVWJHP            PRESERVE REG'S OVER XFREER           61691021
 0064D4 5840 C600      07430        9029        L     RW4,SVWJHP            PRESERVE REG'S OVER XFREER           61698021
                             064D8  9030 DIBAQ2 EQU   *                                                          61705021
 0064D8 920F D198      07D30        9031          MVI   XREG1,XX0F                                               61712021
 0064DC 45E0 B000      00E78        9032        BAL   RETRG,LOAD            *    L    15,VIRTUAL                 61719021
 0064E0 4230 D198      07D30        9033        STC   RW3,XREG1             RESTORE XREG1 FOR BALR               61726021
 0064E4 920F D1E0      07D78        9034          MVI   XREG2,XX0F                                               61733021
1         DISPLAY/EXHIBIT/STOP/TRACE SUBROUTINES                                                                PAGE  194
-  LOC  OBJECT CODE    ADDR1 ADDR2  STMT   SOURCE STATEMENT                                       ASM 0201 11.03 02/14/15
00064E8 45E0 BC18      01A90        9035        BAL   RETRG,BAL             *    BALR X,15  WHERE X = 1 OR 1     61740021
 0064EC 45E0 79AE      009AE        9036          BAL   RETRG,GDES15        DESTROY REGISTERS                    61747021
 0064F0 58E0 C540      07370        9037        L       RETRG,SVDIS6                                             61754021
 0064F4 58F0 C5A4      073D4        9038        L     XRVAR,SVWJH8           DIBALR                              61761021
 0064F8 07FE                        9039        BCR     UNCOND,RETRG        RETURN TO CALLER                     61768021
 0064FA 4230 DA36      085CE        9040 DIBAQ1 STC   RW3,A48CH1                                                 61775021
 0064FE 9230 DA34      085CC        9041        MVI   A48CH2,MDESTR                                              61782021
 006502 45E0 78D2      008D2        9042        BAL   RETRG,GATXTV          *                                    61789021
 006506 0407                        9043        DC    AL2(ATXT48-ATXTBV)    *MACRO CODING GENERATION             61796021
 006508 0004                        9044        DC    AL2(ZTXT48-ATXT48)    *                                    61803021
 00650A 47F0 F034      064D8        9045        BC    UNCOND,DIBAQ2         GENERATE LOAD AND BALR               61810021
                             0650E  9046        USING   *,HCOMSR                                                 61817021
 00650E 50E0 C540      07370        9047 DICO8Q ST      RETRG,SVDIS6                                             61824021
 006512 D201 D305 D570 07E9D 08108  9048          MVC   GLGNCN+NX3(LX2),DISGND GND EQU *                         61831021
 006518 45E0 BA24      0189C        9049        BAL     RETRG,GNOPT3        GENERATE GN CODING                   61838021
 00651C 58E0 C540      07370        9050        L       RETRG,SVDIS6                                             61845021
 006520 58F0 C5A8      073D8        9051        L     XRVAR,SVWJH9           DICOA8                              61852021
 006524 07FE                        9052        BCR     UNCOND,RETRG        RETURN TO CALLER                     61859021
1         DISPLAY/EXHIBIT/STOP/TRACE SUBROUTINES                                                                PAGE  195
-  LOC  OBJECT CODE    ADDR1 ADDR2  STMT   SOURCE STATEMENT                                       ASM 0201 11.03 02/14/15
0                                   9054 *=2            CALCLG      CALCULATE THE CURRENT DN'S LENGTH            61873021
                             06526  9055        USING   *,HCOMSR                                                 61880021
                                    9056 *                                                                       61887021
                                    9057 *                                                                       61894021
                                    9058 *        CALCULATES THE LENGTH OF  CURRENT UNIT.                        61901021
                             06526  9059 CALCLQ EQU     *                                                        61908021
 006526 90E3 C658      07488        9060          STM   RETRG,RW3,SVSO14                                         61915021
 00652A 1B11                        9061        SR    RW1,RW1                                                    61922021
 00652C 4210 D5ED      08185        9062        STC   RW1,DNMINR                                                 61929021
 006530 1812                        9063        LR      RW1,RW2                                                  61936021
 006532 9530 1000      00000        9064          CLI   DX0(RW1),MDN         MUST BE A DN                        61943021
 006536 4770 F05E      06584        9065        BC      NOTEQ,CALG01        NOT A DN                             61950021
                                    9066 * FIND THE LENGTH FROM MINOR,DN'S ONLY                                  61957021
 00653A 1832                        9067        LR    RW3,RW2               SET UP RW3 FOR NEXT SR               61964021
 00653C 45E0 7596      00596        9068        BAL   RETRG,XLENGH          GET LENGTH OF DN                     61971021
 006540 D501 C38C D51E 071BC 080B6  9069          CLC   GZERO(LX2),XOPVLC    VLC...                              61978021
 006546 D200 D5ED C378 08185 071A8  9070          MVC   DNMINR(LX1),XGTEM2   SAVE MINOR                          61985021
 00654C 4780 F036      0655C        9071        BC    EQ,SOR24               NO                                  61992021
 006550 4820 D51E      080B6        9072        LH    RW2,XOPVLC             YES, PUT VLC NUMBER INTO LENGTH     61999021
 006554 5620 C7D0      07600        9073        O     RW2,EXHIC1            SET HI ORDER (SIGN) BIT              62006021
 006558 47F0 F03A      06560        9074        BC    UNCOND,SOR22          ALREADY HAVE LENGTH                  62013021
 00655C 5820 D520      080B8        9075 SOR24  L     RW2,XOPLGH                                                 62020021
 006560 5020 D550      080E8        9076 SOR22  ST      RW2,LENGTH          SAVE LENGTH                          62027021
 006564 98E3 C658      07488        9077 SOREX1   LM    RETRG,RW3,SVSO14                                         62034021
 006568 58F0 C5AC      073DC        9078        L     XRVAR,SVWJHA                                               62041021
 00656C 47FE 0004      00004        9079          BC    UNCOND,DX4(RETRG)   LENGTH FOUND EXIT                    62048021
 006570 1B22                        9080 SOR21  SR      RW2,RW2             ERROR                                62055021
 006572 5020 D550      080E8        9081        ST      RW2,LENGTH          MAKE LENGTH = 0                      62062021
 006576 98E3 C658      07488        9082          LM    RETRG,RW3,SVSO14                                         62069021
 00657A 58F0 C5AC      073DC        9083        L     XRVAR,SVWJHA                                               62076021
 00657E 07FE                        9084          BR    RETRG               ERROR EXIT                           62083021
 006580 5620 C7D0      07600        9085        O     RW2,EXHIC1            SET VAR LEN BIT (HIGH ORDER BIT)     62090021
 006584 9532 1000      00000        9086 CALG01   CLI   DX0(RW1),MNLIT                                           62097021
 006588 4780 F09C      065C2        9087        BC      EQ,CALG02           NUM LIT                              62104021
 00658C 9533 1000      00000        9088          CLI   DX0(RW1),MFLIT                                           62111021
 006590 4780 F09C      065C2        9089        BC      EQ,CALG02           FL PT LIT                            62118021
 006594 9534 1000      00000        9090          CLI   DX0(RW1),MALIT                                           62125021
 006598 4780 F09C      065C2        9091        BC      EQ,CALG02           AN LIT                               62132021
 00659C 95FA 1000      00000        9092          CLI   DX0(RW1),XXFA        CONVERTED FP IN PRM AREA...         62139021
 0065A0 4780 F0A6      065CC        9093        BC    EQ,CALG05              YES                                 62146021
 0065A4 9539 1000      00000        9094          CLI   DX0(RW1),PLFCON                                          62153021
 0065A8 4780 F0BA      065E0        9095        BE    CALG06                BRANCH TO DOP LENGTH                 62160021
 0065AC 9575 1000      00000        9096          CLI   DX0(RW1),MFGCON                                          62167021
 0065B0 4770 F04A      06570        9097        BC    NOTEQ,SOR21           NOT A TYPE ITEM THAT HAS LENGTH      62174021
 0065B4 9201 D553      080EB        9098          MVI   LENGTH+NX3,XX01      FIG-CON, LENGTH = 1                 62181021
 0065B8 D702 D550 D550 080E8 080E8  9099          XC    LENGTH(LX3),LENGTH                                       62188021
 0065BE 47F0 F03E      06564        9100        BC      UNCOND,SOREX1       TAKE 'YES' EXIT                      62195021
                             065C2  9101 CALG02 EQU   *                                                          62202021
 0065C2 1B22                        9102        SR      RW2,RW2                                                  62209021
 0065C4 4321 0001      00001        9103          IC    RW2,DX1(RW1)                                             62216021
 0065C8 47F0 F03A      06560        9104        BC      UNCOND,SOR22        ALREADY HAVE LENGTH                  62223021
 0065CC 4120 0004      00004        9105 CALG05   LA    RW2,DX4              SINGLE PREC FP LEN                  62230021
 0065D0 9101 1001      00001        9106          TM    DX1(RW1),XX01         SINGLE PREC...                     62237021
 0065D4 4710 F03A      06560        9107        BC    ONES,SOR22             YES                                 62244021
 0065D8 4120 0008      00008        9108          LA    RW2,DX8                NO, DOUBLE PREC IFP LEN           62251021
1         DISPLAY/EXHIBIT/STOP/TRACE SUBROUTINES                                                                PAGE  196
-  LOC  OBJECT CODE    ADDR1 ADDR2  STMT   SOURCE STATEMENT                                       ASM 0201 11.03 02/14/15
00065DC 47F0 F03A      06560        9109        BC    UNCOND,SOR22          ALREADY HAVE LENGTH                  62258021
 0065E0 1B22                        9110 CALG06 SR    RW2,RW2                                                    62265021
 0065E2 4320 DD4D      088E5        9111          IC    RW2,DOP1+NX1                                             62272021
 0065E6 47F0 F03A      06560        9112        B     SOR22                 ALREADY HAVE LENGTH                  62279021
1         DISPLAY/EXHIBIT/STOP/TRACE SUBROUTINES                                                                PAGE  197
-  LOC  OBJECT CODE    ADDR1 ADDR2  STMT   SOURCE STATEMENT                                       ASM 0201 11.03 02/14/15
0                            065EA  9114        USING *,HCOMSR                                                   62293021
                             065EA  9115 ADETEQ EQU   *                                                          62300021
 0065EA 90E4 C5C8      073F8        9116        STM   RETRG,RW4,SVWJHI                                           62307021
 0065EE 9101 D60A      081A2        9117        TM    ADESW1,MSWON          FOLLOWS A DEBUG PACKET...            62314021
 0065F2 4710 F05C      06646        9118        BC    ONES,ADET01            YES                                 62321021
 0065F6 95C7 D5F5      0818D        9119        CLI   ASRLAS,PNDEF         LAST HEADER PN...                     62328021
 0065FA 4780 F04E      06638        9120        BE    ADET03               YES, GOBACK REQUIRED                  62335021
 0065FE 9588 D5F5      0818D        9121        CLI   ASRLAS,GNDEF         LAST HEADER GN...                     62342021
 006602 4780 F04E      06638        9122        BE    ADET03               YES, GOBACK REQUIRED                  62349021
 006606 9511 D0B6      07C4E        9123          CLI   GANLNO,XX11          LAST INSTR 'GO'...                  62356021
 00660A 4780 F06A      06654        9124          BC    EQ,ADET02           YES, GOBACK NOT REQUIRED             62363021
 00660E 956F D0B6      07C4E        9125          CLI   GANLNO,XX6F         LAST INSTR SEGMENTATN GO TO..        62370021
 006612 4780 F06A      06654        9126        BE    ADET02               YES, GOBACK NOT REQUIRED              62377021
 006616 9510 D0B6      07C4E        9127          CLI   GANLNO,XX10          STOP...                             62384021
 00661A 4770 F03E      06628        9128        BNE   ADET04                NOT A STOP                           62391021
 00661E D501 DD4C C82E 088E4 0765E  9129          CLC   DOP1(LX2),CBRUN     YES,WAS IT A STOP 'RUN'              62398021
 006624 4780 F06A      06654        9130          BC    EQ,ADET02           YES,SKIP REDUNDANT GOBACK            62405021
                             06628  9131 ADET04 EQU   *                                                          62412021
 006628 9573 D0B6      07C4E        9132          CLI   GANLNO,XX73         LAST INSTR A GOBACK...               62419021
 00662C 4780 F06A      06654        9133        BE    ADET02               YES, SKIP REDUNDANT GOBACK            62426021
 006630 9574 D0B6      07C4E        9134          CLI   GANLNO,XX74         LAST INSTR AN EXIT PGM...            62433021
 006634 4780 F06A      06654        9135        BE    ADET02               YES, SKIP GOBACK                      62440021
                             06638  9136 ADET03 EQU   *                                                          62447021
 006638 9601 D60B      081A3        9137          OI    ADESW2,MSWON        NO, GENERATE A GOBACK                62454021
 00663C 5090 C5E4      07414        9138        ST    STNGR,SVWJHJ                                               62461021
 006640 5890 C360      07190        9139          L     STNGR,ADCN73        =A(GOBACK)                           62468021
 006644 07F9                        9140          BCR   UNCOND,STNGR        SIMULATE A GOBACK TO ANALYZER        62475021
                                    9141 *                                                                       62482021
                                    9142 *                                                                       62489021
                                    9143 * GENERATE RETURN FROM A DEBUG PACKET. THE GN BRANCHED TO WAS           62496021
                                    9144 * SAVED BY THE DEBUG VERB ANALYZER.                                     62503021
 006646 D201 D182 D568 07D1A 08100  9145 ADET01   MVC   XGN1(LX2),LSTDBG                                         62510021
 00664C 920F D198      07D30        9146        MVI   XREG1,XRVAR           * L   15,GN                          62517021
 006650 45E0 BBAE      01A26        9147        BAL   RETRG,BRANCH          * BCR 15,15                          62524021
                                    9148 * ('BRANCH' PUTS OUT DESTROY FOR R15)                                   62531021
                             06654  9149 ADET02 EQU   *                                                          62538021
 006654 98E4 C5C8      073F8        9150        LM    RETRG,RW4,SVWJHI                                           62545021
 006658 58F0 C5C4      073F4        9151        L     XRVAR,SVWJHH                                               62552021
 00665C 07FE                        9152        BCR   UNCOND,RETRG          *** EXIT ADETER ***                  62559021
                                    9153 *******************************************************************     62566021
                                    9154 *                                                                       62573021
                                    9155 *      GETDOP ROUTINE DEVELOPS IN RW4 THE DISPLACEMENT OF THE           62580021
                                    9156 *              NEXT DOP AREA.  IF END OF STRING IT GETS NEXT ONE.       62587021
                                    9157 *******************************************************************     62594021
                                    9158 *                                                                       62601021
                             0665E  9159        USING   *,HCOMSR                                                 62608021
                             0665E  9160 GETDOQ EQU     *                                                        62615021
 00665E 50E0 C544      07374        9161        ST      RETRG,SVGETD        ENTRY WHEN OPERAND COUNT  NEEDED     62622021
 006662 9101 D620      081B8        9162        TM      LOOKAH,MSWON        IN A LOOK AHEAD...                   62629021
 006666 4780 F014      06672        9163        BC      ZERO,GETD04          NO                                  62636021
 00666A 94FE D620      081B8        9164        NI      LOOKAH,MSWOFF        YES                                 62643021
 00666E 47F0 F040      0669E        9165        BC      UNCOND,GETD03       EXIT FROM ROUTINE                    62650021
                             06672  9166 GETD04 EQU     *                                                        62657021
 006672 58E0 D554      080EC        9167        L       RETRG,DISPNN             UP OPERAND COUNTER BY 1         62664021
 006676 41EE 0001      00001        9168          LA    RETRG,DX1(RETRG)                                         62671021
1         DISPLAY/EXHIBIT/STOP/TRACE SUBROUTINES                                                                PAGE  198
-  LOC  OBJECT CODE    ADDR1 ADDR2  STMT   SOURCE STATEMENT                                       ASM 0201 11.03 02/14/15
000667A 50E0 D554      080EC        9169        ST      RETRG,DISPNN                                             62678021
 00667E 58E0 C544      07374        9170        L       RETRG,SVGETD                                             62685021
 006682 9536 D0B6      07C4E        9171          CLI   GANLNO,XX36          SORT SPECIAL CASE ...               62692021
 006686 4780 F06A      066C8        9172          BE    GETD05                  YES                              62699021
 00668A 9527 D0B6      07C4E        9173          CLI   GANLNO,XX27          EXHIBIT...                          62706021
 00668E 4780 F05A      066B8        9174          BE    GETD02                  YES, SPECIAL CASE                62713021
 006692 4940 C7DA      0760A        9175        CH    RW4,GETDC1             NO                                  62720021
 006696 4780 F046      066A4        9176        BC      EQ,GETD01                NEED NEXT STRING                62727021
 00669A 4144 007C      0007C        9177        LA    RW4,LDOP(RW4)              UP DOP DISPLACEMENT             62734021
 00669E 58F0 C5B0      073E0        9178 GETD03 L     XRVAR,SVWJHB                                               62741021
 0066A2 07FE                        9179        BCR   UNCOND,RETRG          *** LEAVE GETDOP ***                 62748021
 0066A4 900F C544      07374        9180 GETD01 STM   RW0,XRVAR,SVGETD      SAVE ALL REG'S                       62755021
 0066A8 47F0 700A      0000A        9181        BC      UNCOND,DON               ENTER SUPER FOR NEXT STRING     62762021
 0066AC 980F C544      07374        9182 NXTSTQ LM    RW0,XRVAR,SVGETD      RETURN FROM SUPER, REINSTATE REG     62769021
 0066B0 1B44                        9183        SR      RW4,RW4             INITIALIZE DOP DISP = 0              62776021
 0066B2 58F0 C5B0      073E0        9184        L     XRVAR,SVWJHB           GETDOP                              62783021
 0066B6 07FE                        9185        BCR     UNCOND,RETRG        *** LEAVE GETDOP ***                 62790021
 0066B8 4144 007C      0007C        9186 GETD02 LA    RW4,LDOP(RW4)                                              62797021
 0066BC 4940 C7DA      0760A        9187        CH    RW4,GETDC1                                                 62804021
 0066C0 4780 F046      066A4        9188          BE    GETD01                  NEED ANOTHER EXAMINE STRING      62811021
 0066C4 47F0 F040      0669E        9189        BC    UNCOND,GETD03         OK                                   62818021
 0066C8 4144 007C      0007C        9190 GETD05   LA    RW4,LDOP(RW4)           SORT SPECIAL CASE, ONLY 3 DOPS   62825021
 0066CC 4940 C7DC      0760C        9191          CH    RW4,GETDC2              ARE PASSED TO PH5 AT ONE TIME    62832021
 0066D0 4780 F046      066A4        9192          BE    GETD01                  NEED ANOTHER SORT STRING         62839021
 0066D4 47F0 F040      0669E        9193          B     GETD03                  OK                               62846021
                                    9194 *        THIS ROUTINE GETS A SW NUMBER FROM XSASW AND UPS XSASW         62853021
                             066D8  9195        USING   *,HCOMSR                                                 62860021
 0066D8 5020 C584      073B4        9196 GETSWQ ST      RW2,SVGETS          UP COMMON'S XSA SW COUNTER           62867021
 0066DC 4820 A218      00218        9197        LH    RW2,XSWCTR            AFTER PLACING NEXT                   62874021
 0066E0 4020 A218      00218        9198        STH     RW2,SWCOUN            XSA CTR NUMBER INTO                62881021
 0066E4 4122 0001      00001        9199          LA    RW2,DX1(RW2)                  SWCOUN                     62888021
 0066E8 4020 A218      00218        9200        STH   RW2,XSWCTR                                                 62895021
 0066EC 5820 C584      073B4        9201        L       RW2,SVGETS                                               62902021
 0066F0 58F0 C5B4      073E4        9202        L     XRVAR,SVWJHC           GETSW                               62909021
 0066F4 07FE                        9203        BCR     UNCOND,RETRG        RETURN TO CALLER                     62916021
                             066F6  9204        USING *,XRVAR                                                    62923021
 0066F6                             9205 IOQRTQ   DS    0H                                                       62930021
 0066F6 45E0 7CCC      00CCC        9206          BAL   RETRG,WRKLRG        KILL SS, 14, 15                      62937021
 0066FA 94FE D622      081BA        9207        NI    IODOSW,MSWOFF    RESET ODO CONTROL SW                      62944021
 0066FE 9523 D0B6      07C4E        9208          CLI   GANLNO,XX23     WRITE...                                 62951021
 006702 4780 F028      0671E        9209        BC    EQ,IOQD01          YES                                     62958021
 006706 9572 D0B6      07C4E        9210          CLI   GANLNO,XX72          CHECKPOINT WRITE?                   62965021
 00670A 4780 F028      0671E        9211          BC    EQ,IOQD01           YES.                                 62972021
 00670E 9521 D0B6      07C4E        9212          CLI   GANLNO,XX21     OPEN...                                  62979021
 006712 4770 F04C      06742        9213        BC    NOTEQ,IOQD02       NO                                      62986021
 006716 910F 2002      00002        9214          TM    DX2(RW2),XX0F            OPENED OUTPUT?                  62993021
 00671A 47E0 F04C      06742        9215        BC    NOTONE,IOQD02      NO                                      63000021
 00671E 91C0 2006      00006        9216 IOQD01   TM    DX6(RW2),XXC0   BSAM OR BDAM                             63007021
 006722 4770 F038      0672E        9217        BC    NOTZER,IOQD03      YES                                     63014021
 006726 9102 2006      00006        9218          TM    DX6(RW2),XX02   APPLY WRITE ONLY                         63021021
 00672A 4710 F04C      06742        9219        BC    ONES,IOQD02        YES                                     63028021
                             0672E  9220 IOQD03 EQU   *                                                          63035021
 00672E 9601 D622      081BA        9221        OI    IODOSW,MSWON     SET ODO CONTROL SW                        63042021
 006732 9201 D199      07D31        9222          MVI   IMM,XX01                                                 63049021
 006736 9204 D194      07D2C        9223          MVI   GDEBG1,XX04                                              63056021
1         DISPLAY/EXHIBIT/STOP/TRACE SUBROUTINES                                                                PAGE  199
-  LOC  OBJECT CODE    ADDR1 ADDR2  STMT   SOURCE STATEMENT                                       ASM 0201 11.03 02/14/15
000673A 9201 D195      07D2D        9224          MVI   GDEBG1+NX1,XX01                                          63063021
 00673E 45E0 BACC      01944        9225        BAL   RETRG,OI         *    OI   SWITCH+1,X'01'                  63070021
 006742 1B55                        9226 IOQD02 SR    RW5,RW5                                                    63077021
 006744 4353 0000      00000        9227          IC    RW5,DX0(RW3)             GN COUNT FOR ODO                63084021
 006748 D201 D182 3001 07D1A 00001  9228          MVC   XGN1(LX2),DX1(RW3)        FIRST GN NUMBER                63091021
 00674E 9202 D198      07D30        9229          MVI   XREG1,XX02                                               63098021
 006752 45E0 B000      00E78        9230        BAL   RETRG,LOAD            *    L    2,GN=XX                    63105021
 006756 4155 0001      00001        9231          LA    RW5,DX1(RW5)                                             63112021
 00675A                             9232 IOQR01   DS    0H                                                       63119021
 00675A 9202 D198      07D30        9233          MVI   XREG1,XX02                                               63126021
 00675E 9202 D1E0      07D78        9234          MVI   XREG2,XX02                                               63133021
 006762 45E0 BC18      01A90        9235        BAL   RETRG,BALR            *   BALR  3,2                        63140021
 006766 4650 F064      0675A        9236        BCT   RW5,IOQR01            TEST FOR MORE BALR'S                 63147021
 00676A 9101 D622      081BA        9237        TM    IODOSW,MSWON          WAS SW SET...                        63154021
 00676E 4780 F08C      06782        9238        BC    ZERO,IOQD04            NO                                  63161021
 006772 92FE D199      07D31        9239          MVI   IMM,XXFE              YES, GEN RESET                     63168021
 006776 9204 D194      07D2C        9240          MVI   GDEBG1,XX04                                              63175021
 00677A 9201 D195      07D2D        9241          MVI   GDEBG1+NX1,XX01                                          63182021
 00677E 45E0 BADC      01954        9242        BAL   RETRG,NI              *    NI   SWITCH+1,X'FE'             63189021
                             06782  9243 IOQD04 EQU   *                                                          63196021
 006782 98E5 C628      07458        9244          LM    RETRG,RW5,SVWJHR        RESTORE REGISTERS                63203021
 006786 07FE                        9245        BCR   UNCOND,RETRG          *** LEAVE IOQRTN ***                 63210021
                             06788  9246        USING *,XRVAR                                                    63217021
 006788 9056 C408      07238        9247 IOSTBQ   STM   RW5,RW6,SVWJHE+NX8 *** USES SAME SAVE CELLS AS IOQRTN ** 63224021
 00678C 9856 C38C      071BC        9248        LM    RW5,RW6,GZERO                                              63231021
 006790 D200 D338 2003 07ED0 00003  9249          MVC   GTEMP(LX1),DX3(RW2)                                      63238021
 006796 940F D338      07ED0        9250          NI    GTEMP,XX0F                                               63245021
 00679A 4350 D338      07ED0        9251        IC    RW5,GTEMP                                                  63252021
 00679E 4362 0004      00004        9252          IC    RW6,DX4(RW2)                                             63259021
 0067A2 4060 D196      07D2E        9253 IOSTB2 STH   RW6,BLREF1                                                 63266021
 0067A6 9101 2002      00002        9254          TM    DX2(RW2),XX01        SD...                               63273021
 0067AA 4780 F02E      067B6        9255        BC    ZERO,IOSTB3             NO                                 63280021
 0067AE 9601 D196      07D2E        9256          OI    BLREF1,XX01           YES, SET I=1    (BLL)              63287021
 0067B2 4860 D196      07D2E        9257        LH    RW6,BLREF1            REFLECT NEW I REF IN RW6             63294021
                             067B6  9258 IOSTB3 EQU   *                                                          63301021
 0067B6 9201 D198      07D30        9259          MVI   XREG1,XX01                                               63308021
 0067BA 45E0 B040      00EB8        9260        BAL   RETRG,STORE           *    ST   1,BL                       63315021
 0067BE 9208 D199      07D31        9261        MVI   GMCTYP,MBLCHG                                              63322021
 0067C2 4060 D196      07D2E        9262        STH   RW6,BLREF1                                                 63329021
 0067C6 45E0 BD28      01BA0        9263        BAL   RETRG,MACRO           BLCHNG FOR THIS BL                   63336021
 0067CA 4650 F050      067D8        9264        BCT   RW5,IOSTB1            TEST FOR MORE BL'S                   63343021
 0067CE 9856 C408      07238        9265          LM    RW5,RW6,SVWJHE+NX8                                       63350021
 0067D2 98EF C400      07230        9266        LM    RETRG,XRVAR,SVWJHE                                         63357021
 0067D6 07FE                        9267        BCR   UNCOND,RETRG         *** LEAVE IOSTBL ***                  63364021
 0067D8 4166 0001      00001        9268 IOSTB1   LA    RW6,DX1(RW6)                                             63371021
 0067DC 9210 D17E      07D16        9269          MVI   XCON1+NX14,XX10      =4096 IN DEC                        63378021
 0067E0 9202 D180      07D18        9270          MVI   XCON1+NX16,XX02                                          63385021
 0067E4 9201 D198      07D30        9271          MVI   XREG1,XX01                                               63392021
 0067E8 45E0 BA38      018B0        9272        BAL   RETRG,ADD             *    AH   1,=4096                    63399021
 0067EC 47F0 F01A      067A2        9273        BC    UNCOND,IOSTB2         GO THRU ST, BLCHNG LOOP AGAIN        63406021
1         DISPLAY/EXHIBIT/STOP/TRACE SUBROUTINES                                                                PAGE  200
-  LOC  OBJECT CODE    ADDR1 ADDR2  STMT   SOURCE STATEMENT                                       ASM 0201 11.03 02/14/15
00067F0 0590                        9275        BALR  STNGR,RW0             SET UP ADDRESSABILITY                63420021
                             067F2  9276        USING *,STNGR                                                    63427021
                             067F2  9277 EOS    EQU   *                                                          63434021
                             067F2  9278 COMPUT EQU   *                                                          63441021
                             067F2  9279 ALTER  EQU   *                                                          63448021
                             067F2  9280 EXIT   EQU   *                                                          63455021
                             067F2  9281 ENTER  EQU   *                                                          63462021
                             067F2  9282 RETUR  EQU   *                                                          63469021
                             067F2  9283 GENERA EQU   *                                                          63476021
                             067F2  9284 TERMIN EQU   *                                                          63483021
                             067F2  9285 ELSE   EQU   *                                                          63490021
                             067F2  9286 IF     EQU   *                                                          63497021
                             067F2  9287 USE    EQU   *                                                          63504021
 0067F2 47F0 700A      0000A        9288        BC    UNCOND,PH5CTL         BACK TO PH5CTL FOR NEXT STRING       63511021
1         GO TO VERB ANALYZER     G  O     T  O                                                                 PAGE  201
-  LOC  OBJECT CODE    ADDR1 ADDR2  STMT   SOURCE STATEMENT                                       ASM 0201 11.03 02/14/15
00067F8                             9290        DS    0F                                                         63525021
                             067F8  9291        USING *,STNGR                                                    63532021
                                    9292 *=1    GO ANALYZER                                                      63539021
                                    9293 *                                                                       63546021
                                    9294 *        PNREF, GNREF OR VNREF IN DOP1                                  63553021
                                    9295 *                                                                       63560021
                                    9296 *                                                                       63567021
                             067F8  9297 GO     EQU   *                                                          63574021
 0067F8 95D0 DD4C      088E4        9298          CLI   DOP1,PNREF                PN...                          63581021
 0067FC 4770 9012      0680A        9299        BC    NOTEQ,BGO2                 NO                              63588021
 006800 D202 D185 DD4D 07D1D 088E5  9300          MVC   XPN1+NX1(LX3),DOP1+NX1                                   63595021
 006806 47F0 9086      0687E        9301        BC    UNCOND,BGO3           BRANCH TO PN CODING                  63602021
 00680A 95AA DD4C      088E4        9302 BGO2     CLI   DOP1,XXAA                                                63609021
 00680E 4780 9080      06878        9303        BC    EQ,BGO4         BRANCH IF GN                               63616021
 006812 D500 DD4C D2F6 088E4 07E8E  9304          CLC   DOP1,MSKMORLB            MORE-LABELS                     63623021
 006818 4770 9050      06848        9305          BC    NOTEQ,BGO5               NO,MUST BE VN                   63630021
 00681C 45E0 78C6      008C6        9306          BAL   RETRG,GATXTC             SET RETURN CODE IN REG 15       63637021
 006820 0234                        9307          DC    AL2(ATXT96-ATXTBC)        X                              63644021
 006822 001C                        9308          DC    AL2(ZTXT96-ATXT96)        X                              63651021
 006824 9205 D198      07D30        9309          MVI   XREG1,XX05                                               63658021
 006828 9250 D15E      07CF6        9310          MVI   BDISP1,XX50                                              63665021
 00682C 9204 D15F      07CF7        9311          MVI   BDISP1+NX1,XX04          *  LA  5,4(5)                   63672021
 006830 45E0 BB7C      019F4        9312          BAL   RETRG,LA                  XXXX                           63679021
 006834 45E0 78C6      008C6        9313          BAL   RETRG,GATXTC             GEN CODE TO RESTORE BLL1,2,     63686021
 006838 01F7                        9314          DC    AL2(ATXT95B-ATXTBC)      RECHAIN PTRS,RESTORE SA1,EX     63693021
 00683A 003D                        9315          DC    AL2(ATXT95F-ATXT95B)    X                                63700021
 00683C 45E0 78C6      008C6        9316          BAL   RETRG,GATXTC        * LR 15,5 / LR 14,4                  63707021
 006840 02B9                        9317          DC    AL2(ATXT112-ATXTBC) * LM 2,5,28(13)                      63714021
 006842 000F                        9318          DC    AL2(ZTXT112-ATXT112)  BCR 15,14                          63721021
 006844 47F0 700A      0000A        9319          BC    UNCOND,DON          RETURN TO PH5CTL                     63728021
                             06848  9320 BGO5     EQU   *                                                        63735021
 006848 D202 D191 DD4D 07D29 088E5  9321          MVC   XVN1+NX1(LX3),DOP1+NX1                                   63742021
 00684E 95FF A1D0      001D0        9322          CLI   SEGLMT,XXFF         IS PROGRAM SEGMENTED...              63749021
 006852 4780 9086      0687E        9323        BE    BGO3                 NO, NORMAL PROCESSING                 63756021
 006856 45E0 B000      00E78        9324        BAL   RETRG,LOAD           GGEN..L   R0,VN-NO.                   63763021
 00685A 45E0 7854      00854        9325        BAL   RETRG,VBADCE              L    R15,V(SGM0)                 63770021
 00685E E2C7D4F2                    9326          DC    C'SGM2'             BALR 14,15                     59713 63777021
 006862 9202 D170      07D08        9327          MVI   XCON1,XX02               DC   XL2'PTY00'                 63784021
 006866 D200 D171 D321 07D09 07EB9  9328          MVC   XCON1+NX1(LX1),PNOUT+NX1 (CALL TO SEGMENTATION OBJECT    63791021
 00686C 9224 D199      07D31        9329        MVI   GMCTYP,MDC            TIME SUBROUTINE)                     63798021
 006870 45E0 BD28      01BA0        9330        BAL   RETRG,MACRO           GENERATE MACRO CODING                63805021
 006874 47F0 700A      0000A        9331        B     PH5CTL                RETURN TO PH5CTL                     63812021
 006878 D201 D182 DD4D 07D1A 088E5  9332 BGO4     MVC   XGN1(LX2),DOP1+NX1                                       63819021
 00687E 9201 D198      07D30        9333 BGO3   MVI   XREG1,XRA                                                  63826021
 006882 45E0 B000      00E78        9334        BAL   RETRG,LOAD      DO L XRA,PN OR VN                          63833021
 006886 920F D198      07D30        9335        MVI   XREG1,UNCOND                                               63840021
 00688A 9201 D1E0      07D78        9336        MVI   XREG2,XRA                                                  63847021
 00688E 45E0 BBAE      01A26        9337        BAL   RETRG,BRANCH    DO BCR  UNCOND,XRA                         63854021
 006892 47F0 700A      0000A        9338        BC    UNCOND,DON      EXIT                                       63861021
0
                                    9340 *=1    GODEP1 ANALYZER                                                  63875021
                                    9341 *                                                                       63882021
                                    9342 *        COUNT OF PN S IN DOP1+2                                        63889021
                                    9343 *        DN IN DOP2                                                     63896021
1         GO TO VERB ANALYZER     G  O     T  O                                                                 PAGE  202
-  LOC  OBJECT CODE    ADDR1 ADDR2  STMT   SOURCE STATEMENT                                       ASM 0201 11.03 02/14/15
0                                   9344 *                                                                       63903021
                                    9345 *                                                                       63910021
 006898                             9346        DS    0F                                                         63917021
                             06898  9347        USING *,STNGR                                                    63924021
 006898 9201 C388      071B8        9348 GODEP1   MVI   XREGNO,XX01                                              63931021
                                    9349 * GEN. L R1,DN, PLUS ANY CODING NECESS TO CONVERT DN TO BINARY          63938021
 00689C 4130 DDC8      08960        9350        LA    RW3,DOP2                                                   63945021
 0068A0 45E0 BE32      01CAA        9351        BAL   RETRG,DNTOR1          ATXT GENERATOR PROCESSING            63952021
 0068A4 9203 D198      07D30        9352          MVI   XREG1,XX03                                               63959021
 0068A8 D203 D184 C3C8 07D1C 071F8  9353          MVC   XPN1,FW001                                               63966021
 0068AE 45E0 BB7C      019F4        9354          BAL   RETRG,LA                     LA  3,PN1                   63973021
 0068B2 9201 D198      07D30        9355        MVI   XREG1,XRA                                                  63980021
 0068B6 D201 D17E DD4E 07D16 088E6  9356          MVC   XCON1+NX14(LX2),DOP1+NX2 COUNT OF PN S                   63987021
 0068BC 9202 D180      07D18        9357          MVI   XCON1+NX16,XX02                                          63994021
 0068C0 45E0 BA50      018C8        9358        BAL   RETRG,COMP                           CH   1,=N             64001021
 0068C4 1B11                        9359          SR    RW1,RW1                 CALCULATE NUMBER OF PN'S         64008021
 0068C6 4810 DD4E      088E6        9360          LH    RW1,DOP1+NX2        MULT BY 2 PLUS 26 FOR DISP     10    64015021
 0068CA 8910 0001      00001        9361          SLL   RW1,DX1                  TO NEXT STATEMENT-USED IN BC    64022021
 0068CE 4111 001A      0001A        9362          LA    RW1,DX26(RW1)            INSTRUCTIONS                    64029021
 0068D2 95FF A1D0      001D0        9363          CLI   SEGLMT,XXFF         IS PROGRAM SEGMENTED...              64036021
 0068D6 4780 9046      068DE        9364        BE    GODEP2               NO                                    64043021
 0068DA 4111 0006      00006        9365          LA    RW1,DX6(RW1)        DISPL INCL CALL TO SUBROUTINE        64050021
                             068DE  9366 GODEP2 EQU   *                                                          64057021
 0068DE 4010 D4DC      08074        9367          STH   RW1,GOCON1+NX4                                           64064021
 0068E2 9620 D4DC      08074        9368          OI    GOCON1+NX4,XX20                                          64071021
 0068E6 D201 D4E8 D4DC 08080 08074  9369          MVC   GOCON2+NX4(LX2),GOCON1+NX4                               64078021
 0068EC 4120 D4D5      0806D        9370        LA    RW2,GOCON                                                  64085021
 0068F0 95FF A1D0      001D0        9371          CLI   SEGLMT,XXFF                                              64092021
 0068F4 4770 9070      06908        9372        BNE   GODEP3               PROGRAM IS SEGMENTED                  64099021
 0068F8 4130 002A      0002A        9373          LA    RW3,DX42                                                 64106021
 0068FC 9218 D4EF      08087        9374          MVI   GOCON2+NX11,XX18    SET DISPL IN GENERATED TEXT          64113021
 006900 45E0 7376      00376        9375        BAL   RETRG,PUTA            GO TO GENERATE RTN (SEE CONSTANT     64120021
 006904 47F0 700A      0000A        9376        BC    UNCOND,PH5CTL           FOR DESCR OF INSTRUCTIONS GENE     64127021
 006908 4130 0027      00027        9377 GODEP3   LA    RW3,DX39            GEN ATXT WITHOUT 'BCR 15,1'          64134021
 00690C 921E D4EF      08087        9378          MVI   GOCON2+NX11,XX1E    SET DISPL IN GENERATED TEXT          64141021
 006910 45E0 7376      00376        9379        BAL   RETRG,PUTA            WRITE PROC-ATXTX ELEMENT             64148021
 006914 9201 D1E0      07D78        9380          MVI   XREG2,XX01                                               64155021
 006918 45E0 B000      00E78        9381          BAL   RETRG,LR                 * LR   0,1                59713 64162021
 00691C D203 D168 C748 07D00 07578  9382          MVC   GVIRT1(LX4),VIRTHD        L     15,V(SEGM)               64169021
 006922 D203 D16C 9244 07D04 06ADC  9383          MVC   GVIRT1+NX4(LX4),SEGMDC     BCR   15,15                   64176021
                                    9384 * SEGMDC IS DEFINED IN THE CALL TO SEGMENTATION INIT. ROUTINE           64183021
 006928 D201 D166 A162 07CFE 00162  9385          MVC   VIRTC1+NX2(LX2),VIRCTR ...CALL TO SEGMENTATION           64190021
 00692E 920F D198      07D30        9386          MVI   XREG1,XX0F             INITIALIZATION OBJECT TIME        64197021
 006932 45E0 B000      00E78        9387        BAL   RETRG,LOAD              SUBROUTINE...                      64204021
 006936 45E0 79AE      009AE        9388        BAL   RETRG,GDES15         DESTROY 15                            64211021
 00693A 920F D198      07D30        9389          MVI   XREG1,XX0F                                               64218021
 00693E 920F D1E0      07D78        9390          MVI   XREG2,XX0F                                               64225021
 006942 45E0 BBAE      01A26        9391        BAL   RETRG,BRANCH          GENERATE BRANCH INSTR.               64232021
 006946 47F0 700A      0000A        9392        B     PH5CTL                RETURN TO PH5CTL                     64239021
1         GO TO VERB ANALYZER     G  O     T  O                                                                 PAGE  203
-  LOC  OBJECT CODE    ADDR1 ADDR2  STMT   SOURCE STATEMENT                                       ASM 0201 11.03 02/14/15
0                                   9394 *=1    GODEPM ANALYZER                                                  64253021
                                    9395 *                                                                       64260021
                                    9396 *        PN IN DOP1                                                     64267021
                                    9397 *                                                                       64274021
                                    9398 *                                                                       64281021
 00694C                             9399        DS    0F                                                         64288021
                             0694C  9400        USING *,STNGR                                                    64295021
                             0694C  9401 GODEPM EQU   *                                                          64302021
                             0694C  9402 GODEPL EQU   *                                                          64309021
 00694C 9218 D199      07D31        9403          MVI   GMCTYP,MADCON                                            64316021
 006950 D202 D185 DD4D 07D1D 088E5  9404          MVC   XPN1+NX1(LX3),DOP1+NX1                                   64323021
 006956 D203 D148 C700 07CE0 07530  9405          MVC   OP1(LX4),XAOPE1               STORE 'DOP1 IN OP1         64330021
 00695C 45E0 BD28      01BA0        9406          BAL   RETRG,MACRO             GENERATE MACRO FOR ADCON OF      64337021
 006960 47F0 700A      0000A        9407          BC    UNCOND,DON          RETURN TO PH5CTL                     64344021
0
                                    9409 *=1    MOVE4 ANALYZER                                                   64358021
                                    9410 *                                                                       64365021
                                    9411 *        PN, VN, GN, OR PFMSAV IN DOP1                                  64372021
                                    9412 *        VN OR PFMSAV IN DOP2                                           64379021
                                    9413 *                                                                       64386021
                                    9414 *                                                                       64393021
                             06964  9415        USING *,STNGR                                                    64400021
                             06964  9416 MOVE4  EQU   *                                                          64407021
 006964 95FA DD4C      088E4        9417        CLI   DOP1,PFMSAV           PERFORM SAVE AREA......              64414021
 006968 4780 9046      069AA        9418        BC    EQ,MOVE4B       BR IF YES                                  64421021
 00696C 95DB DD4C      088E4        9419        CLI   DOP1,VNREF                                                 64428021
 006970 4780 902E      06992        9420        BC    EQ,MOVE4D       BRANCH IF VN                               64435021
 006974 95AA DD4C      088E4        9421        CLI   DOP1,GNREF                                                 64442021
 006978 4780 905A      069BE        9422        BC    EQ,MOVE4L       GRANCH IF GN                               64449021
 00697C D202 D185 DD4D 07D1D 088E5  9423          MVC   XPN1+NX1(LX3),DOP1+NX1     MOVE PN                       64456021
 006982 45E0 B000      00E78        9424 MOVE4M BAL   RETRG,LOAD       GENERATE            L    0,GN OR PN       64463021
 006986 95FA DDC8      08960        9425        CLI   DOP2,PFMSAV              BRANCH IF PFMSAV                  64470021
 00698A 4780 9038      0699C        9426        BC    EQ,MOVE4E       BRANCH IF PFMSAV                           64477021
 00698E 47F0 9050      069B4        9427        BC    UNCOND,MOVE4F         NOT PFMSAV                           64484021
 006992 D202 D191 DD4D 07D29 088E5  9428 MOVE4D   MVC   XVN1+NX1(LX3),DOP1+NX1  MOVE VN TO ADDR OPERAND          64491021
 006998 45E0 B000      00E78        9429        BAL   RETRG,LOAD       GENERATE            L    0,VN             64498021
 00699C D203 D148 C704 07CE0 07534  9430 MOVE4E   MVC   OP1(LX4),XAOPE2                                          64505021
                             069A2  9431 MOVE4C EQU   *                                                          64512021
 0069A2 45E0 B040      00EB8        9432        BAL   RETRG,STORE      GENERATE            ST   0,PFMSAV OR      64519021
 0069A6 47F0 700A      0000A        9433        BC    UNCOND,DON            RETURN TO PH5CTL                     64526021
 0069AA D203 D148 C700 07CE0 07530  9434 MOVE4B   MVC   OP1(LX4),XAOPE1                                          64533021
 0069B0 45E0 B000      00E78        9435        BAL   RETRG,LOAD       GENERATE            L    0,PFMSAV         64540021
 0069B4 D202 D191 DDC9 07D29 08961  9436 MOVE4F   MVC   XVN1+NX1(LX3),DOP2+NX1                                   64547021
 0069BA 47F0 903E      069A2        9437        BC    UNCOND,MOVE4C         BRANCH TO GEN. ST INSTR.             64554021
 0069BE D201 D182 DD4D 07D1A 088E5  9438 MOVE4L   MVC   XGN1(LX2),DOP1+NX1                                       64561021
 0069C4 47F0 901E      06982        9439        BC    UNCOND,MOVE4M         BRANCH TO GEN. L INSTR.              64568021
1         GO TO VERB ANALYZER     G  O     T  O                                                                 PAGE  204
-  LOC  OBJECT CODE    ADDR1 ADDR2  STMT   SOURCE STATEMENT                                       ASM 0201 11.03 02/14/15
0                                   9441 *=1    EQUATE ANALYZER                                                  64582021
                                    9442 *                                                                       64589021
                                    9443 *        VN IN DOP1                                                     64596021
                                    9444 *        GN OR PN IN DOP2                                               64603021
                                    9445 *                                                                       64610021
                                    9446 *                                                                       64617021
                             069C8  9447        USING *,STNGR                                                    64624021
 0069C8 9238 DD4C      088E4        9448 EQUATE MVI   DOP1,PAVNDEF            VNDEF....                          64631021
 0069CC 4120 DD4C      088E4        9449        LA    RW2,DOP1                                                   64638021
 0069D0 45E0 739C      0039C        9450        BAL   RETRG,PUTDEF          PUT OUT TEXT DEF.                    64645021
 0069D4 9200 D199      07D31        9451          MVI   GMCTYP,XX00    EQUATE                                    64652021
 0069D8 95AA DDC8      08960        9452          CLI   DOP2,XXAA            IS IT A GN                          64659021
 0069DC 4780 9026      069EE        9453          BC    EQ,EEQ002           YES                                  64666021
 0069E0 D202 D185 DDC9 07D1D 08961  9454          MVC   XPN1+NX1(LX3),DOP2+NX1     MOVE PN                       64673021
                             069E6  9455 EEQ001   EQU   *                                                        64680021
 0069E6 45E0 BD28      01BA0        9456        BAL   RETRG,MACRO     DO AN  EQU  PN                             64687021
 0069EA 47F0 700A      0000A        9457        BC    UNCOND,DON            RETURN TO PH5CTL                     64694021
                             069EE  9458 EEQ002   EQU   *                                                        64701021
 0069EE D201 D182 DDC9 07D1A 08961  9459          MVC   XGN1(LX2),DOP2+NX1    DO AN EQU GN                       64708021
 0069F4 47F0 901E      069E6        9460          BC    UNCOND,EEQ001       GENERATE CORRECT MACRO               64715021
0
                                    9462 *=1    PERFORM  X TIMES ANALYZER                                        64729021
                                    9463 *                                                                       64736021
                                    9464 *            PN IN DOP1                                                 64743021
                                    9465 *            DN,LIT, OR TALLY IN DOP2  (THE 'X' TIMES)                  64750021
                                    9466 *            LGN IN DOP3                                                64757021
                                    9467 *                                                                       64764021
                                    9468 *                                                                       64771021
                             069F8  9469        USING *,STNGR                                                    64778021
                             069F8  9470 PERFOR EQU   *                                                          64785021
 0069F8 9532 DDC8      08960        9471          CLI   DOP2,XX32                                                64792021
 0069FC 4780 906E      06A66        9472        BC    EQ,PEFRM2       BR IF LIT                                  64799021
 006A00 4130 DDC8      08960        9473        LA    RW3,DOP2                                                   64806021
 006A04 45E0 BE32      01CAA        9474        BAL   RETRG,DNTOR1          ATXT GENERATOR PROCESSING            64813021
 006A08 9201 D198      07D30        9475 PEFRM3 MVI   XREG1,XRC                                                  64820021
 006A0C 920C D188      07D20        9476          MVI   XCNTR1,XX0C    PFMCTL                                    64827021
 006A10 48E0 A212      00212        9477        LH    RETRG,PFMCTR    STEP PFMCTR BY 1                           64834021
 006A14 41EE 0001      00001        9478          LA    RETRG,DX1(RETRG)                                         64841021
 006A18 40E0 A212      00212        9479        STH   RETRG,PFMCTR                                               64848021
 006A1C 40E0 D338      07ED0        9480        STH   RETRG,GTEMP                                                64855021
 006A20 D201 D189 D338 07D21 07ED0  9481          MVC   XCNTR1+NX1(LX2),GTEMP                                    64862021
 006A26 45E0 B040      00EB8        9482        BAL   RETRG,STORE     DO A ST  XRC,PRMCTL                        64869021
 006A2A D201 D305 DE45 07E9D 089DD  9483          MVC   GLGNCN+NX3(LX2),DOP3+NX1                                 64876021
 006A30 45E0 BA24      0189C        9484        BAL   RETRG,GNOPT3    DO AN LGN                                  64883021
 006A34 95FF A1D0      001D0        9485          CLI   SEGLMT,XXFF                                              64890021
 006A38 4770 9080      06A78        9486        BNE   PEFRM4                BR,PROGRAM IS SEGMENTED              64897021
 006A3C D201 D504 D338 0809C 07ED0  9487          MVC   PFMCON+NX5(LX2),GTEMP MOVE PFMCTR NUM TO DIRECT A-TEXT   64904021
 006A42 D201 D50E D338 080A6 07ED0  9488          MVC   PFMCN1+NX5(LX2),GTEMP                                    64911021
 006A48 4120 D4FF      08097        9489        LA    RW2,PFMCON            (SEE PFMCON FOR DESCR OF A-TEXT)     64918021
 006A4C 4130 0014      00014        9490          LA    RW3,DX20                                                 64925021
 006A50 45E0 7376      00376        9491        BAL   RETRG,PUTA            GO TO GENERATE DIRECT A-TEXT         64932021
 006A54 920B D198      07D30        9492        MVI   XREG1,NOTNEG                                               64939021
 006A58 D202 D185 DD4D 07D1D 088E5  9493          MVC   XPN1+NX1(LX3),DOP1+NX1     MOVE PN                       64946021
 006A5E 45E0 BBAE      01A26        9494        BAL   RETRG,BRANCH    DO A   BCR    NOTNEG,PN                    64953021
1         GO TO VERB ANALYZER     G  O     T  O                                                                 PAGE  205
-  LOC  OBJECT CODE    ADDR1 ADDR2  STMT   SOURCE STATEMENT                                       ASM 0201 11.03 02/14/15
0006A62 47F0 700A      0000A        9495        BC    UNCOND,DON            RETURN TO PH5CTL                     64960021
 006A66 9201 D198      07D30        9496 PEFRM2 MVI   XREG1,XRC                                                  64967021
 006A6A D203 D148 C704 07CE0 07534  9497          MVC   OP1(LX4),XAOPE2                                          64974021
 006A70 41E0 9010      06A08        9498        LA    RETRG,PEFRM3                                               64981021
 006A74 47F0 B000      00E78        9499        BC    UNCOND,LOAD           GEN. PROPER L INSTR.                 64988021
                                    9500 *  SEGMENTED PROGRAM                                                    64995021
 006A78 D202 DC51 DD4D 087E9 088E5  9501 PEFRM4   MVC   A110CH1(LX3),DOP1+NX1 MOVE PN TO DIRECT ATXT             65002021
 006A7E D201 DC5D D338 087F5 07ED0  9502          MVC   A110CH2(LX2),GTEMP  MOVE PFMCTR TO DIRECT ATXT           65009021
 006A84 D201 DC67 D338 087FF 07ED0  9503          MVC   A110CH3(LX2),GTEMP                                       65016021
 006A8A 45E0 78D2      008D2        9504        BAL   RETRG,GATXTV         GEN ATXT                              65023021
 006A8E 0621                        9505        DC    AL2(ATXT110-ATXTBV)   SEE ATXT FOR DESCRIPTION             65030021
 006A90 0023                        9506        DC    AL2(ZTXT110-ATXT110)  *                                    65037021
 006A92 D201 D338 DD4E 07ED0 088E6  9507          MVC   GTEMP(LX2),DOP1+NX2                                      65044021
 006A98 4830 D338      07ED0        9508        LH    RW3,GTEMP                                                  65051021
 006A9C 45E0 74B2      004B2        9509        BAL   RETRG,PNUSED         MARK PN AS BEING REFERENCED           65058021
 006AA0 D203 D168 C748 07D00 07578  9510          MVC   GVIRT1(LX4),VIRTHD                                       65065021
 006AA6 D203 D16C 90E4 07D04 06ADC  9511          MVC   GVIRT1+NX4(LX4),SEGMDC  SET UP VIRTUAL                   65072021
                                    9512 *                                                                       65079021
                                    9513 * SEGMDC IS DEFINED IN ROUTINE 'SEGCAL' KEEP THIS RTNE                  65086021
                                    9514 * IN SAME CSECT.                                                        65093021
                                    9515 *                                                                       65100021
 006AAC D201 D166 A162 07CFE 00162  9516          MVC   VIRTC1+NX2(LX2),VIRCTR                                   65107021
 006AB2 920F D198      07D30        9517          MVI   XREG1,XX0F                                               65114021
 006AB6 45E0 B000      00E78        9518        BAL   RETRG,LOAD           * L     15,V(SGM0)                    65121021
 006ABA 45E0 79AE      009AE        9519        BAL   RETRG,GDES15         DESTROY 15                            65128021
 006ABE 920B D198      07D30        9520        MVI   XREG1,NOTNEG                                               65135021
 006AC2 920F D1E0      07D78        9521          MVI   XREG2,XX0F                                               65142021
 006AC6 45E0 BBAE      01A26        9522        BAL   RETRG,BC             * BCR  NOTNEG,15                      65149021
 006ACA 47F0 700A      0000A        9523        B     PH5CTL               EXIT                                  65156021
1         GO TO VERB ANALYZER     G  O     T  O                                                                 PAGE  206
-  LOC  OBJECT CODE    ADDR1 ADDR2  STMT   SOURCE STATEMENT                                       ASM 0201 11.03 02/14/15
0                                   9525 *******************************************************************     65170021
                                    9526 *                           -SEGCAL-                              *     65177021
                                    9527 *  GENERATE A CALL TO THE OBJECT TIME SUBROUTINE 'XXXXSEGM'*      *     65184021
                                    9528 *  WHICH LOADS A PROGRAM SEGMENT INTO CORE.                       *     65191021
                                    9529 *        INPUT...IN DOP1-PNDEF,PRIORITY,PN-NO.                          65198021
                                    9530 *        OUTPUT..GENERATED CODE- L    0,PN-NO.                          65205021
                                    9531 *                                 LCR  0,0                        *     65212021
                                    9532 *                                 L    15,V(XXXSGM0)*             *     65219021
                                    9533 *                                 BALR 14,15                      *     65226021
                                    9534 *  * XXXX= VIRTHD                                                 *     65233021
                                    9535 *                                                                 *     65240021
                                    9536 * KEEP THIS ROUTINE IN THE SAME CSECT AS 'GO DEPENDING ON'.             65247021
                                    9537 * AND 'PERFORM X TIMES'.                                                65254021
                                    9538 * 'SEGMDC' IS USED BY BOTH ROUTINES                                     65261021
                                    9539 *******************************************************************     65268021
 006ACE D201 D186 DD4E 07D1E 088E6  9540 SEGCAL   MVC   XPN1+NX2(LX2),DOP1+NX2                                   65275021
 006AD4 45E0 B000      00E78        9541          BAL   RETRG,LOAD          GEN..  L R0,PN-NO.                   65282021
                                    9542 *DEL                                                                    65289021
 006AD8 45E0 7854      00854        9543          BAL   RETRG,VBADCE       GEN...  L     R15,V(XXXXSGM0)         65296021
 006ADC E2C7D4F1                    9544 SEGMDC   DC    C'SGM1'             BALR 14,15                     59713 65303021
 006AE0 47F0 700A      0000A        9545          B     PH5CTL              RETURN TO PH5CTL                     65310021
1         REPORT WRITER ROUTINES                                                                                PAGE  207
-  LOC  OBJECT CODE    ADDR1 ADDR2  STMT   SOURCE STATEMENT                                       ASM 0201 11.03 02/14/15
0                                   9547 *                                                                       65324021
                                    9548 *=1    ANALYZERS FOR SPECIAL REPORT WRITER VERBS                        65331021
                                    9549 *                                                                       65338021
                                    9550 *                                                                       65345021
                                    9551 * REPORT CALL                                                           65352021
                                    9552 *                                                                       65359021
                             06AE4  9553        USING *,XRVERB                                                   65366021
 006AE4 920F DA36      085CE        9554 RPTCAL   MVI   A48CH1,XX0F                                              65373021
 006AE8 9230 DA34      085CC        9555          MVI   A48CH2,XX30                                              65380021
 006AEC 45E0 78D2      008D2        9556        BAL   RETRG,GATXTV          GEN... DESTROY REG 15                65387021
 006AF0 0407                        9557        DC    AL2(ATXT48-ATXTBV)                                         65394021
 006AF2 0004                        9558        DC    AL2(ZTXT48-ATXT48)                                         65401021
                                    9559 *                                                                       65408021
 006AF4 D201 D182 DD4D 07D1A 088E5  9560          MVC   XGN1(LX2),DOP1+NX1                                       65415021
 006AFA 920F D198      07D30        9561          MVI   XREG1,XX0F                                               65422021
 006AFE 45E0 B000      00E78        9562        BAL   XRSUB,LOAD            L     15,GNREF                       65429021
                                    9563 *                                                                       65436021
 006B02 9201 D198      07D30        9564          MVI   XREG1,XX01                                               65443021
 006B06 920F D1E0      07D78        9565          MVI   XREG2,XX0F                                               65450021
 006B0A 45E0 BC18      01A90        9566        BAL   XRSUB,BALR            BALR  1,15                           65457021
                                    9567 *                                                                       65464021
 006B0E 47F0 700A      0000A        9568        BC    UNCOND,PH5CTL         GET NXT P2TXT ELEMENT                65471021
                                    9569 *                                                                       65478021
                                    9570 * REPORT SAVE                                                           65485021
                                    9571 *                                                                       65492021
                             06B12  9572        USING *,XRVERB                                                   65499021
 006B12 1B66                        9573 RPTSV  SR    XR6,XR6                                                    65506021
 006B14 9244 D188      07D20        9574          MVI   XCNTR1,XX44                                              65513021
 006B18 4360 D0E1      07C79        9575          IC    XR6,HEADER+NX1                                           65520021
 006B1C 4B60 CC2E      07A5E        9576        SH    XR6,SXC04F                                                 65527021
 006B20 4260 D18A      07D22        9577          STC   XR6,XCNTR1+NX2                                           65534021
 006B24 9201 D198      07D30        9578          MVI   XREG1,XX01                                               65541021
 006B28 45E0 B040      00EB8        9579        BAL   XRSUB,STORE           ST    1,GTREF                        65548021
 006B2C 47F0 700A      0000A        9580        BC    UNCOND,PH5CTL         GET NXT P2TXT ELEMENT                65555021
                                    9581 *                                                                       65562021
                                    9582 * REPORT RETURN                                                         65569021
                                    9583 *                                                                       65576021
                             06B30  9584        USING *,XRVERB                                                   65583021
 006B30 1B66                        9585 RPTRET SR    XR6,XR6                                                    65590021
 006B32 9244 D188      07D20        9586          MVI   XCNTR1,XX44                                              65597021
 006B36 4360 D0E1      07C79        9587          IC    XR6,HEADER+NX1                                           65604021
 006B3A 4B60 CC30      07A60        9588        SH    XR6,SXC055                                                 65611021
 006B3E 4260 D18A      07D22        9589          STC   XR6,XCNTR1+NX2                                           65618021
 006B42 9201 D198      07D30        9590          MVI   XREG1,XX01                                               65625021
 006B46 45E0 B000      00E78        9591        BAL   XRSUB,LOAD            L     1,GTREF                        65632021
                                    9592 *                                                                       65639021
 006B4A 920F D198      07D30        9593          MVI   XREG1,XX0F                                               65646021
 006B4E 9201 D1E0      07D78        9594          MVI   XREG2,XX01                                               65653021
 006B52 45E0 BBAE      01A26        9595        BAL   XRSUB,BRANCH          BCR   UNCOND,1                       65660021
                                    9596 *                                                                       65667021
 006B56 47F0 700A      0000A        9597        BC    UNCOND,PH5CTL         GET NXT P2TXT ELEMENT                65674021
                                    9598 *                                                                       65681021
                                    9599 * REPORT MACRO ORIGIN                                                   65688021
                                    9600 *                                                                       65695021
                             06B5A  9601        USING *,XRVERB                                                   65702021
1         REPORT WRITER ROUTINES                                                                                PAGE  208
-  LOC  OBJECT CODE    ADDR1 ADDR2  STMT   SOURCE STATEMENT                                       ASM 0201 11.03 02/14/15
0006B5A 4120 CC32      07A62        9602 RPTORG LA    XR2,RPTMOG                                                 65709021
 006B5E 4130 0002      00002        9603          LA    XR3,DX2                                                  65716021
 006B62 4500 7504      00504        9604        BAL   RW0,WRITE3            4438      MACRO-ORIGIN               65723021
 006B66 4120 DD4C      088E4        9605        LA    XR2,DOP1                                                   65730021
 006B6A 4130 0003      00003        9606          LA    XR3,DX3                                                  65737021
 006B6E 9250 DD4C      088E4        9607          MVI   DOP1,XX50                                                65744021
 006B72 4500 7504      00504        9608        BAL   RW0,WRITE3            50NNNN    GNREF                      65751021
 006B76 D203 DD4C D3F8 088E4 07F90  9609          MVC   DOP1(LX4),PNUX80                                         65758021
 006B7C D501 DDC8 CC3D 08960 07A6D  9610          CLC   DOP2(LX2),RPWZER                                         65765021
 006B82 4780 9030      06B8A        9611        BC    EQ,RPTOG1             IF FIGCON EQ ZERO,SKIP NXT INS.      65772021
 006B86 9204 DD4F      088E7        9612          MVI   DOP1+NX3,XX04                                            65779021
 006B8A 4130 0004      00004        9613 RPTOG1   LA    XR3,DX4                                                  65786021
 006B8E 4120 DD4C      088E4        9614        LA    XR2,DOP1                                                   65793021
 006B92 4500 7504      00504        9615        BAL   RW0,WRITE3            PLUS 0 OR 4                          65800021
 006B96 D202 D185 DE45 07D1D 089DD  9616          MVC   XPN1+NX1(LX3),DOP3+NX1     MOVE PN                       65807021
 006B9C 9202 D198      07D30        9617          MVI   XREG1,XX02                                               65814021
 006BA0 45E0 B000      00E78        9618        BAL   XRSUB,LOAD            L     2,PNREF                        65821021
 006BA4 47F0 700A      0000A        9619        BC    UNCOND,PH5CTL         GET NXT P2TXT ELEMENT                65828021
 006BA8                             9620        DS    0H                                                         65835021
                             06BA8  9621        USING *,XRVERB                                                   65842021
 006BA8 4120 9010      06BB8        9622 ENDUS4 LA    XR2,RPTNDU                                                 65849021
 006BAC 4130 000A      0000A        9623          LA    XR3,DX10                                                 65856021
 006BB0 45E0 7376      00376        9624          BAL   RETRG,PUTA          PUT OUT A-TEXT                 7898  65863021
 006BB4 47F0 700A      0000A        9625        BC    UNCOND,PH5CTL         GET NXT P2TXT ELEMENT                65870021
 006BB8 48582064440007              9626 RPTNDU DC    X'48582064440007'                                          65877021
 006BBF 4807F2                      9627        DC    X'4807F2'                                                  65884021
                                    9628 *                                                                       65891021
                                    9629 * REPORT MACRO RE-ORIGIN                                                65898021
                                    9630 *                                                                       65905021
                             06BC2  9631        USING *,XRVERB                                                   65912021
 006BC2 4120 CC34      07A64        9632 RPTRRG LA    XR2,RPTMRG                                                 65919021
 006BC6 4130 0009      00009        9633          LA    XR3,DX9                                                  65926021
 006BCA 4500 7504      00504        9634        BAL   RW0,WRITE3            443C      MACRO-REORIGIN             65933021
 006BCE 47F0 700A      0000A        9635        BC    UNCOND,PH5CTL         GET NXT P2TXT ELEMENT                65940021
                             06BD2  9636        USING *,XRVERB                                                   65947021
 006BD2 4160 000A      0000A        9637 RPTNOP   LA    XR6,DX10                                                 65954021
 006BD6 9210 D15E      07CF6        9638          MVI   BDISP1,XX10                                              65961021
 006BDA D501 DD4C CC3D 088E4 07A6D  9639          CLC   DOP1(LX2),RPWZER                                         65968021
 006BE0 4770 901A      06BEC        9640        BC    NOTEQ,RPTNO2          IF FIGCON NOT ZERO,SKIP NXT INS      65975021
 006BE4 4166 0004      00004        9641          LA    XR6,DX4(XR6)                                             65982021
 006BE8 92F0 D15E      07CF6        9642          MVI   BDISP1,XXF0                                              65989021
 006BEC 4260 D15F      07CF7        9643 RPTNO2   STC   XR6,BDISP1+NX1                                           65996021
 006BF0 920F D198      07D30        9644        MVI   XREG1,UNCOND                                               66003021
 006BF4 45E0 BBAE      01A26        9645        BAL   XRSUB,BRANCH          GEN ATXT FOR BRANCH INSTRUC          66010021
 006BF8 9202 D198      07D30        9646          MVI   XREG1,XX02                                               66017021
 006BFC 9202 D1E0      07D78        9647          MVI   XREG2,XX02                                               66024021
 006C00 45E0 BC18      01A90        9648        BAL   XRSUB,BALR            GEN ATXT FOR BALR INSTRUC            66031021
 006C04 9200 D198      07D30        9649          MVI   XREG1,NOP                                                66038021
 006C08 9200 D15F      07CF7        9650          MVI   BDISP1+NX1,XX00                                          66045021
 006C0C 9210 D15E      07CF6        9651          MVI   BDISP1,XX10                                              66052021
 006C10 D501 DD4C CC3D 088E4 07A6D  9652          CLC   DOP1(LX2),RPWZER                                         66059021
 006C16 4770 904C      06C1E        9653          BC    NOTEQ,RPTNO3        FIGCON NOT ZERO,SKIP NXT INS         66066021
 006C1A 92F0 D15E      07CF6        9654          MVI   BDISP1,XXF0                                              66073021
 006C1E 45E0 BBAE      01A26        9655 RPTNO3   BAL   XRSUB,BRANCH             GENERATE DUMMY BRANCH           66080021
 006C22 47F0 700A      0000A        9656        BC    UNCOND,PH5CTL         GET NXT P2TXT ELEM                   66087021
1         IKFCBL51: SET VERB ANALYZERS   S  E  T                                                                PAGE  209
-  LOC  OBJECT CODE    ADDR1 ADDR2  STMT   SOURCE STATEMENT                                       ASM 0201 11.03 02/14/15
0                                   9658 *                                                                       66101021
                                    9659 *                                                                       66108021
                                    9660 *                                                                       66115021
                                    9661 *   SET  FORMAT-1:  THE FOLLOWING FORMULAS ARE USED                     66122021
                                    9662 *                         INDEX1 = INDEX2 * L1 / L2.                    66129021
                                    9663 *                         INDEX1 = INDEX-DATA-ITEM2                     66136021
                                    9664 *                         INDEX1 =(IDENTIFIER2 - 1)* L1.                66143021
                                    9665 *                 INDEX-DATA-ITEM= OPERAND2.                            66150021
                                    9666 *                     IDENTIFIER1= INDEX2 /L2 +1.                       66157021
                                    9667 * INPUT: DOP1= RECEIVING    DOP2 = SENDING                              66164021
                                    9668 *                                                                       66171021
                                    9669 *                                                                       66178021
 006C28                             9670 IKF50M CSECT                                                            66185021
                                    9671 *                                                                       66192021
                                    9672 *                                                                       66199021
                             06C28  9673          USING *,XRVERB                                                 66206021
 006C28 9201 C388      071B8        9674 SET1     MVI   XREGNO,XX01                                              66213021
 006C2C 4140 DD4C      088E4        9675          LA    RW4,DOP1                                                 66220021
 006C30 4160 DDC8      08960        9676          LA    RW6,DOP2                                                 66227021
 006C34 9536 4000      00000        9677          CLI   DX0(RW4),XX36             FIRST OP IS INDEX-NAME.        66234021
 006C38 4770 917E      06DA6        9678          BNE   SET100                   NO                              66241021
 006C3C 9536 6000      00000        9679          CLI   DX0(RW6),XX36             2ND OP IS INDEX-NAME.          66248021
 006C40 4770 912C      06D54        9680          BNE   SET101                   NO                              66255021
 006C44 D500 4002 6002 00002 00002  9681          CLC   DX2(LX1,RW4),DX2(RW6)      SAME TYPE OF INDEX-NAME.      66262021
 006C4A 4770 9044      06C6C        9682          BNE   SET102                   NO                              66269021
 006C4E D501 4005 6005 00005 00005  9683          CLC   DX5(LX2,RW4),DX5(RW6)      SAME ENTRY LENGTH             66276021
 006C54 4770 9044      06C6C        9684          BNE   SET102              ATXT TO SET INDEXNM TO INNM TBL      66283021
                                    9685 *                                                                       66290021
                                    9686 *                                                                       66297021
 006C58 5040 D148      07CE0        9687 SET104   ST    RW4,OP1                  MVC  OP1(4),OP2 - MOVE WITH     66304021
 006C5C 5060 D14C      07CE4        9688          ST    RW6,OP2                  CONVERSION.                     66311021
 006C60 9204 D159      07CF1        9689          MVI   XL1+NX1,XX04                                             66318021
 006C64 45E0 B18C      01004        9690          BAL   XRSUB,MVC           GEN ATXT FOR MVC INSTRUC             66325021
 006C68 47F0 90E2      06D0A        9691          B     SET114             KILL SUBS & INDX OPTIMIZ TBL          66332021
                                    9692 *                                                                       66339021
                                    9693 * INDEX-NAME SET TO AN INDEX-NAME FROM AN OTHER TABLE.                  66346021
                                    9694 *                                                                       66353021
                                    9695 *                    L  1,INDX2                                         66360021
                                    9696 *                    LH 2,L1                                            66367021
                                    9697 *                    MR 0,2                                             66374021
                                    9698 *                    LH 2,L2                                            66381021
                                    9699 *                    DR 0,2                                             66388021
                                    9700 *                    ST 0,INDX1                                         66395021
                                    9701 *                                                                       66402021
                                    9702 *                                                                       66409021
 006C6C 9202 C388      071B8        9703 SET102   MVI   XREGNO,XX02                                              66416021
 006C70 1834                        9704          LR    RW3,RW4                  PRESERVE R4 OVER XFREER         66423021
 006C72 9201 D198      07D30        9705          MVI   XREG1,XX01                                               66430021
 006C76 5060 D148      07CE0        9706          ST    RW6,OP1                  L  1,INDX2                      66437021
 006C7A 45E0 B000      00E78        9707          BAL   XRSUB,LOAD          GEN ATXT FOR LOAD INSTRUC            66444021
 006C7E 1843                        9708          LR    RW4,RW3                  RESTORE R4                      66451021
 006C80 45E0 75BE      005BE        9709          BAL   XRSUB,SETLEN             LH  2,L1                        66458021
 006C84 9202 D198      07D30        9710          MVI   XREG1,XX02                                               66465021
 006C88 45E0 BB4C      019C4        9711          BAL   XRSUB,LHALF         GEN ATXT FOR LH INSTRUC              66472021
 006C8C 9202 D1E0      07D78        9712          MVI   XREG2,XX02                                               66479021
1         IKFCBL51: SET VERB ANALYZERS   S  E  T                                                                PAGE  210
-  LOC  OBJECT CODE    ADDR1 ADDR2  STMT   SOURCE STATEMENT                                       ASM 0201 11.03 02/14/15
0006C90 45E0 BA58      018D0        9713          BAL   XRSUB,MULT               MR  0,2                         66486021
 006C94 1836                        9714 SET109   LR    RW3,RW6                                                  66493021
 006C96 45E0 75BE      005BE        9715          BAL   XRSUB,SETLEN       SET ATXT BUFFER FOR LIT OR VLC        66500021
 006C9A 9202 D198      07D30        9716          MVI   XREG1,XX02                                               66507021
 006C9E 45E0 BB4C      019C4        9717          BAL   XRSUB,LHALF              LH  2,L2                        66514021
 006CA2 9202 D1E0      07D78        9718          MVI   XREG2,XX02                                               66521021
 006CA6 45E0 BA60      018D8        9719          BAL   XRSUB,DIV                DR  0,2                         66528021
                                    9720 *                                                                       66535021
                                    9721 *                                                                       66542021
 006CAA 9201 D198      07D30        9722          MVI   XREG1,XX01                                               66549021
 006CAE 9536 4000      00000        9723          CLI   DX0(RW4),XX36                                            66556021
 006CB2 4780 9120      06D48        9724          BE    SET110              FOR INDXNMREF,GEN ST 1,INDX1         66563021
 006CB6 9202 D180      07D18        9725          MVI   XCON1+NX16,XX02           IF  RECEIVING IS AN IDENTIF    66570021
 006CBA 9201 D17F      07D17        9726          MVI   XCON1+NX15,XX01           GENERATE:                      66577021
 006CBE 45E0 BA38      018B0        9727          BAL   XRSUB,ADD                           AH  1,=1 .           66584021
 006CC2 950B C378      071A8        9728          CLI   XGTEM2,XGBINR      IS RECEIVING BINARY...                66591021
 006CC6 4780 911C      06D44        9729          BE    SET111             YES, GEN A DIRECT ST INTO RECEIV      66598021
 006CCA 9201 D198      07D30        9730          MVI   XREG1,XX01                                               66605021
 006CCE 9230 D188      07D20        9731          MVI   XCNTR1,TS2CODE                                           66612021
 006CD2 9201 D18A      07D22        9732          MVI   XCNTR1+NX2,XX01                                          66619021
 006CD6 45E0 BA88      01900        9733          BAL   XRSUB,CVD          *  CVD  1,TEMP-STOR2                  66626021
 006CDA D501 A16A C6C0 0016A 074F0  9734          CLC   TS2MAX(LX2),XC008                                        66633021
 006CE0 47B0 90C0      06CE8        9735          BNL   SET112             IF CTR FOR TS2 IS LOWER THAN 8,       66640021
 006CE4 9208 A16B      0016B        9736          MVI   TS2MAX+NX1,XX08     SET IT TO 8                          66647021
 006CE8 D200 D159 D523 07CF1 080BB  9737 SET112   MVC   XL1+NX1(LX1),XOPLGH+NX3 SET LENGTH                       66654021
 006CEE 9208 D1A1      07D39        9738          MVI   XL2+NX1,XX08                                             66661021
 006CF2 5040 D148      07CE0        9739          ST    RW4,OP1                                                  66668021
 006CF6 9230 D1D0      07D68        9740          MVI   XCNTR2,TS2CODE                                           66675021
 006CFA 9201 D1D2      07D6A        9741          MVI   XCNTR2+NX2,XX01                                          66682021
 006CFE 950C C378      071A8        9742          CLI   XGTEM2,XGINDC      IS RECEIV INTERNAL DEC...             66689021
 006D02 4770 90E6      06D0E        9743          BNE   SET113             NO, MUST BE EXT DEC                   66696021
 006D06 45E0 B000      00E78        9744          BAL   XRSUB,ZAP          *  ZAP  RECEIV,TEMP-STOR2             66703021
                             06D0A  9745 SET114   EQU   *                                                        66710021
 006D0A 47F0 700A      0000A        9746          B     PH5CTL             EXIT                                  66717021
 006D0E 9208 D1A1      07D39        9747 SET113   MVI   XL2+NX1,XX08                                             66724021
 006D12 45E0 BA78      018F0        9748          BAL   XRSUB,LCRBI        *  UNPK  RECEIV,TS2                   66731021
 006D16 9101 4007      00007        9749          TM    XGSCIN(RW4),XX01    RF SIGNED...                         66738021
 006D1A 4710 90E2      06D0A        9750          BO    SET114              YES                                  66745021
 006D1E 5040 D148      07CE0        9751          ST    RW4,OP1             NO, GEN OI                           66752021
 006D22 92F0 D199      07D31        9752          MVI   IMM,XXF0                                                 66759021
 006D26 950C C378      071A8        9753          CLI   XGTEM2,XGINDC       ID                                   66766021
 006D2A 4770 910A      06D32        9754          BNE   SET130              NO                                   66773021
 006D2E 920F D199      07D31        9755          MVI   IMM,XX0F                                                 66780021
 006D32                             9756 SET130   DS    0H                                                       66787021
 006D32 4850 D522      080BA        9757          LH    RW5,XOPLGH+NX2      GET LENGTH                           66794021
 006D36 0650                        9758          BCTR  RW5,RW0             SUBTRACT ONE                         66801021
 006D38 4250 D18D      07D25        9759          STC   RW5,PLUS1+NX2                                            66808021
 006D3C 45E0 BACC      01944        9760          BAL   XRSUB,OI            GENERATE OI                          66815021
 006D40 47F0 90E2      06D0A        9761          B     SET114             CLEAN UP AND EXIT                     66822021
 006D44 9201 D198      07D30        9762 SET111   MVI   XREG1,XX01                                               66829021
 006D48 5040 D148      07CE0        9763 SET110   ST    RW4,OP1                                                  66836021
 006D4C 45E0 B040      00EB8        9764          BAL   XRSUB,STORE              ST  1,INDX1.                    66843021
 006D50 47F0 90E2      06D0A        9765          B     SET114                OR                                 66850021
                                    9766 *                                       ST  1,IDENTIFIER1.              66857021
                                    9767 *                                                                       66864021
1         IKFCBL51: SET VERB ANALYZERS   S  E  T                                                                PAGE  211
-  LOC  OBJECT CODE    ADDR1 ADDR2  STMT   SOURCE STATEMENT                                       ASM 0201 11.03 02/14/15
0                                   9768 *    INDEX -NAME   SET  TO  INDEX-DATA ITEM OR  IDENTIFIER OR LITER     66871021
                                    9769 *                                                                       66878021
 006D54 1836                        9770 SET101   LR    RW3,RW6                                                  66885021
 006D56 9532 6000      00000        9771          CLI   DX0(RW6),XX32                                            66892021
 006D5A 4780 9176      06D9E        9772          BE    SET106              IF NUMLIT,GEN L,BCTR,MH,ST,L INS     66899021
 006D5E 9575 6000      00000        9773          CLI   DX0(RW6),XGFCT      FIGCON...                            66906021
 006D62 4770 914C      06D74        9774        BNE   SET101A              NO                                    66913021
 006D66 D203 6000 D32F 00000 07EC7  9775          MVC   DX0(LX4,RW6),SCHLIT  YES,CHANGE TO LITERAL OF 0 WHICH    66920021
 006D6C 920C 6004      00004        9776          MVI   DX4(RW6),XX0C       IS ONLY VALID FIGCON USE HERE        66927021
 006D70 47F0 9176      06D9E        9777        B     SET106               AND PROCESS AS LITERAL                66934021
                             06D74  9778 SET101A  EQU *                                                          66941021
 006D74 45E0 7596      00596        9779          BAL   XRSUB,XLENGH        GET LENGTH OF DNM                    66948021
 006D78 9507 C378      071A8        9780          CLI   XGTEM2,SETINDI                                           66955021
 006D7C 4780 9030      06C58        9781          BE    SET104                   INDEX TO INDEX DATA ITEM.       66962021
                                    9782 *                                                                       66969021
                                    9783 *    INDEX TO IDENTIFIER OR  LITERAL                                    66976021
                                    9784 *                                                                       66983021
 006D80 45E0 BE32      01CAA        9785          BAL   XRSUB,DNTOR1             LOAD AND CONVERT TO BI IF N     66990021
                                    9786 *                                       L  1,IDENT1                     66997021
 006D84 9201 D198      07D30        9787 SET107   MVI   XREG1,XX01                                               67004021
 006D88 45E0 BC34      01AAC        9788          BAL   XRSUB,BRNCNT             BCTR  1,0                       67011021
 006D8C 1834                        9789          LR    RW3,RW4                                                  67018021
 006D8E 45E0 75BE      005BE        9790          BAL   XRSUB,SETLEN        SET ATXT BUFFER FOR FXED OR VLC      67025021
 006D92 9201 D198      07D30        9791          MVI   XREG1,XX01                                               67032021
 006D96 45E0 BA58      018D0        9792          BAL   XRSUB,MULT               MH  1,L1                        67039021
 006D9A 47F0 911C      06D44        9793          B     SET111                   ST  1,INDX1                     67046021
 006D9E 45E0 75DE      005DE        9794 SET106 BAL RETRG,LOADLIT          L  1,LITERAL                          67053021
 006DA2 47F0 915C      06D84        9795          B     SET107              GEN BCTR,MH,ST FOR LITERAL           67060021
                                    9796 *                                                                       67067021
                                    9797 *    INDEX DATA ITEM TO  INDEX NAME  OR                                 67074021
                                    9798 *    IDENTIFIER  TO  INDEX NAME.                                        67081021
                                    9799 *                                                                       67088021
 006DA6 1834                        9800 SET100   LR    RW3,RW4                                                  67095021
 006DA8 45E0 7596      00596        9801          BAL   XRSUB,XLENGH        GET LENGTH OF DNM                    67102021
 006DAC 9507 C378      071A8        9802          CLI   XGTEM2,SETINDI                                           67109021
 006DB0 4780 9030      06C58        9803          BE    SET104                   INDEX DATA ITEM IS REC.         67116021
                                    9804 *                                                                       67123021
                                    9805 *   RECEIVING IS  IDENTIFIER                                            67130021
 006DB4 1843                        9806          LR    RW4,RW3                  RESTORE R4 AFTER XFREER         67137021
 006DB6 45E0 B038      00EB0        9807          BAL   XRSUB,SUB                SR  0,0                         67144021
 006DBA 45E0 75DE      005DE        9808        BAL RETRG,LOADLIT          L  1,INDX2                            67151021
 006DBE 47F0 906C      06C94        9809          B     SET109                   LH 2,L2                         67158021
                                    9810 *                                       DR 0,2                          67165021
                                    9811 *                                       AH 1,=1                         67172021
                                    9812 *                                       ST 1,IDENT1                     67179021
                                    9813 *                                                                       67186021
                             00007  9814 SETINDI  EQU   7                                                        67193021
1         IKFCBL51: SET VERB ANALYZERS   S  E  T                                                                PAGE  212
-  LOC  OBJECT CODE    ADDR1 ADDR2  STMT   SOURCE STATEMENT                                       ASM 0201 11.03 02/14/15
0                                   9816 *                                                                       67207021
                                    9817 *   SET  FORMAT2    FORMULAS USED :                                     67214021
                                    9818 *                                                                       67221021
                                    9819 *               1) UP BY      INDX1 = INDX1+(IDENT2  )* L1.             67228021
                                    9820 *               2) DOWN BY    INDX1 = INDX1-(IDENT2  )* L1.             67235021
                                    9821 *INPUT: DOP1= INDX1    DOP2= IDENT2                                     67242021
                                    9822 *                                                                       67249021
                             06DC2  9823          USING *,XRVERB                                                 67256021
 006DC2 1B22                        9824 SET2UP   SR    RW2,RW2                                                  67263021
 006DC4 47F0 900C      06DCE        9825          B     SETCOM              BR TO GEN UP BY CODE                 67270021
                                    9826 *                                                                       67277021
                                    9827 *                                                                       67284021
                             06DC8  9828          USING *,XRVERB                                                 67291021
 006DC8 1829                        9829 SET2DOWN LR    RW2,XRVERB                                               67298021
 006DCA 47F0 9006      06DCE        9830          B     SETCOM              BR TO GEN DOWN BY CODE               67305021
                                    9831 *                                                                       67312021
                                    9832 *                                                                       67319021
 006DCE 0590                        9833 SETCOM   BALR  XRVERB,RW0          ESTABLISH ADDRESSABILITY             67326021
                             06DD0  9834          USING *,XRVERB                                                 67333021
                                    9835 *                                                                       67340021
                                    9836 *                                                                       67347021
 006DD0 4140 DD4C      088E4        9837          LA    RW4,DOP1                                                 67354021
 006DD4 4130 DDC8      08960        9838          LA    RW3,DOP2                                                 67361021
 006DD8 9532 3000      00000        9839          CLI   DX0(RW3),XX32                                            67368021
 006DDC 4780 9054      06E24        9840          BE    SET200              IF DOP NUMLIT,GEN L 1,LIT            67375021
 006DE0 45E0 BE32      01CAA        9841          BAL   XRSUB,DNTOR1             L  1,IDENT2                     67382021
 006DE4 1834                        9842 SET202   LR    RW3,RW4                                                  67389021
 006DE6 45E0 75BE      005BE        9843          BAL   XRSUB,SETLEN        SET ATXT BUFFER FOR DOPS             67396021
 006DEA 9201 D198      07D30        9844          MVI   XREG1,XX01                MH 1,L1                        67403021
 006DEE 45E0 BA58      018D0        9845          BAL   XRSUB,MULT          GEN ATXT FOR MULTIPLY INSTRUC        67410021
 006DF2 5040 D148      07CE0        9846          ST    RW4,OP1                                                  67417021
 006DF6 9201 D198      07D30        9847          MVI   XREG1,XX01                                               67424021
 006DFA 41E0 9044      06E14        9848          LA    XRSUB,SET201                                             67431021
 006DFE 1222                        9849          LTR   RW2,RW2                  A  1,INDX1                      67438021
 006E00 4780 BA38      018B0        9850          BZ    ADD                      ST 1,INDX1                      67445021
 006E04 45E0 B038      00EB0        9851          BAL   XRSUB,SUB                           OR                   67452021
 006E08 9201 D198      07D30        9852          MVI   XREG1,XX01                                               67459021
 006E0C 9201 D1E0      07D78        9853          MVI   XREG2,XX01                S  1,INDX1                     67466021
 006E10 45E0 BA78      018F0        9854          BAL   XRSUB,LCRBI              LCR 1,1                         67473021
 006E14 5040 D148      07CE0        9855 SET201   ST    RW4,OP1                  ST 1,INDX1                      67480021
 006E18 9201 D198      07D30        9856          MVI   XREG1,XX01                                               67487021
 006E1C 45E0 B040      00EB8        9857          BAL   XRSUB,STORE         GEN ATXT FOR STORE INSTR             67494021
 006E20 47F0 700A      0000A        9858          B     PH5CTL              GEN NXT P2TXT ELEMENT                67501021
                                    9859 *                                                                       67508021
 006E24 1863                        9860 SET200   LR    RW6,RW3                  IF OP1 IS A LITERAL...          67515021
 006E26 45E0 75DE      005DE        9861          BAL   RETRG,LOADLIT            L   1,LITERAL                   67522021
 006E2A 47F0 9014      06DE4        9862          B     SET202              GEN ATXT FOR MH 1,L1                 67529021
1         IKFCBL51: SET VERB ANALYZERS   S  E  T                                                                PAGE  213
-  LOC  OBJECT CODE    ADDR1 ADDR2  STMT   SOURCE STATEMENT                                       ASM 0201 11.03 02/14/15
0                                   9864 *DEL                                                               5189 67543021
                                    9865 *DEL                                                               5189 67550021
                                    9866 *DEL                                                               5189 67557021
                                    9867 *DEL                                                               5189 67564021
                                    9868 *DEL                                                               5189 67571021
                                    9869 *DEL                                                               5189 67578021
                                    9870 *DEL                                                               5189 67585021
                                    9871 *DEL                                                               5189 67592021
                                    9872 *DEL                                                               5189 67599021
                                    9873 *DEL                                                               5189 67606021
                                    9874 *DEL                                                               5189 67613021
                                    9875 *DEL                                                               5189 67620021
                                    9876 *DEL                                                               5189 67627021
                                    9877 *DEL                                                               5189 67634021
                                    9878 *DEL                                                               5189 67641021
                                    9879 *DEL                                                               5189 67648021
                                    9880 *DEL                                                               5189 67655021
                                    9881 *DEL                                                               5189 67662021
                                    9882 *DEL                                                               5189 67669021
                                    9883 *DEL                                                               5189 67676021
                                    9884 *DEL                                                               5189 67683021
                                    9885 *DEL                                                               5189 67690021
                                    9886 *DEL                                                               5189 67697021
                                    9887 *DEL                                                               5189 67704021
                                    9888 *DEL                                                               5189 67711021
                                    9889 *DEL                                                               5189 67718021
                                    9890 *DEL                                                               5189 67725021
                                    9891 *DEL                                                               5189 67732021
                                    9892 *DEL                                                               5189 67739021
                                    9893 *DEL                                                               5189 67746021
                                    9894 *DEL                                                               5189 67753021
                                    9895 *DEL                                                               5189 67760021
                                    9896 *DEL                                                               5189 67767021
                                    9897 *DEL                                                               5189 67774021
                                    9898 *DEL                                                               5189 67781021
                                    9899 *DEL                                                               5189 67788021
                                    9900 *DEL                                                               5189 67795021
                                    9901 *DEL                                                               5189 67802021
                                    9902 *DEL                                                               5189 67809021
                                    9903 *DEL                                                               5189 67816021
                                    9904 *DEL                                                               5189 67823021
                                    9905 *DEL                                                               5189 67830021
                                    9906 *DEL                                                               5189 67837021
                                    9907 *DEL                                                               5189 67844021
                                    9908 *DEL                                                               5189 67851021
                                    9909 *DEL                                                               5189 67858021
                                    9910 *DEL                                                               5189 67865021
                                    9911 *DEL                                                               5189 67872021
                                    9912 *DEL                                                               5189 67879021
                                    9913 *DEL                                                               5189 67886021
                                    9914 *DEL                                                               5189 67893021
                                    9915 *DEL                                                               5189 67900021
                                    9916 *DEL                                                               5189 67907021
                                    9917 *DEL                                                               5189 67914021
                                    9918 *DEL                                                               5189 67921021
1         IKFCBL51: SET VERB ANALYZERS   S  E  T                                                                PAGE  214
-  LOC  OBJECT CODE    ADDR1 ADDR2  STMT   SOURCE STATEMENT                                       ASM 0201 11.03 02/14/15
0                                   9919 *DEL                                                               5189 67928021
                                    9920 *DEL                                                               5189 67935021
                                    9921 *DEL                                                               5189 67942021
                                    9922 *DEL                                                               5189 67949021
                                    9923 *DEL                                                               5189 67956021
                                    9924 *DEL                                                               5189 67963021
                                    9925 *DEL                                                               5189 67970021
                                    9926 *DEL                                                               5189 67977021
                                    9927 *DEL                                                               5189 67984021
                                    9928 *DEL                                                               5189 67991021
                                    9929 *DEL                                                               5189 67998021
                                    9930 *DEL                                                               5189 68005021
                                    9931 *DEL                                                               5189 68012021
                                    9932 *DEL                                                               5189 68019021
                                    9933 *DEL                                                               5189 68026021
                                    9934 *DEL                                                               5189 68033021
                                    9935 *DEL                                                               5189 68040021
                                    9936 *DEL                                                               5189 68047021
                                    9937 *DEL                                                               5189 68054021
                                    9938 *DEL                                                               5189 68061021
                                    9939 *DEL                                                               5189 68068021
                                    9940 *DEL                                                               5189 68075021
                                    9941 *DEL                                                               5189 68082021
                                    9942 *DEL                                                               5189 68089021
                                    9943 *DEL                                                               5189 68096021
                                    9944 *DEL                                                               5189 68103021
                                    9945 *DEL                                                               5189 68110021
                                    9946 *DEL                                                               5189 68117021
                                    9947 *DEL                                                               5189 68124021
                                    9948 *DEL                                                               5189 68131021
                                    9949 *DEL                                                               5189 68138021
                                    9950 *DEL                                                               5189 68145021
                                    9951 *DEL                                                               5189 68152021
                                    9952 *DEL                                                               5189 68159021
                                    9953 *DEL                                                               5189 68166021
                                    9954 *DEL                                                               5189 68173021
                                    9955 *DEL                                                               5189 68180021
                                    9956 *DEL                                                               5189 68187021
                                    9957 *DEL                                                               5189 68194021
                                    9958 *DEL                                                               5189 68201021
                                    9959 *DEL                                                               5189 68208021
                                    9960 *DEL                                                               5189 68215021
                                    9961 *DEL                                                               5189 68222021
                                    9962 *DEL                                                               5189 68229021
                                    9963 *DEL                                                               5189 68236021
                                    9964 *DEL                                                               5189 68243021
                                    9965 *DEL                                                               5189 68250021
                                    9966 *DEL                                                               5189 68257021
                                    9967 *DEL                                                               5189 68264021
                                    9968 *DEL                                                               5189 68271021
                                    9969 *DEL                                                               5189 68278021
                                    9970 *DEL                                                               5189 68285021
                                    9971 *DEL                                                               5189 68292021
                                    9972 *DEL                                                               5189 68299021
                                    9973 *DEL                                                               5189 68306021
1         IKFCBL51: SET VERB ANALYZERS   S  E  T                                                                PAGE  215
-  LOC  OBJECT CODE    ADDR1 ADDR2  STMT   SOURCE STATEMENT                                       ASM 0201 11.03 02/14/15
0                                   9974 *DEL                                                               5189 68313021
                                    9975 *DEL                                                               5189 68320021
                                    9976 *DEL                                                               5189 68327021
                                    9977 *DEL                                                               5189 68334021
                                    9978 *DEL                                                               5189 68341021
                                    9979 *DEL                                                               5189 68348021
                                    9980 *DEL                                                               5189 68355021
                                    9981 *DEL                                                               5189 68362021
                                    9982 *DEL                                                               5189 68369021
                                    9983 *DEL                                                               5189 68376021
                                    9984 *DEL                                                               5189 68383021
                                    9985 *DEL                                                               5189 68390021
                                    9986 *DEL                                                               5189 68397021
                                    9987 *DEL                                                               5189 68404021
                                    9988 *DEL                                                               5189 68411021
                                    9989 *DEL                                                               5189 68418021
                                    9990 *DEL                                                               5189 68425021
                                    9991 *DEL                                                               5189 68432021
                                    9992 *DEL                                                               5189 68439021
                                    9993 *DEL                                                               5189 68446021
                                    9994 *DEL                                                               5189 68453021
                                    9995 *DEL                                                               5189 68460021
                                    9996 *DEL                                                               5189 68467021
                                    9997 *DEL                                                               5189 68474021
                                    9998 *DEL                                                               5189 68481021
1         IKFCBL51: SET VERB ANALYZERS   S  E  T                                                                PAGE  216
-  LOC  OBJECT CODE    ADDR1 ADDR2  STMT   SOURCE STATEMENT                                       ASM 0201 11.03 02/14/15
0                                  10000 *   THESE VERBS SHOULD NOT BE PASSED TO PHASE 51                        68495021
                             00000 10001 XOTADD   EQU   0                                                        68502021
                             00000 10002 XOTSUB   EQU   0                                                        68509021
                             00000 10003 XOTMUL   EQU   0                                                        68516021
                             00000 10004 XOTDIV   EQU   0                                                        68523021
                             00000 10005 EXPONE   EQU   0                                                        68530021
                             00000 10006 STOREE   EQU   0                                                        68537021
                             00000 10007 SEARCHAL EQU   0                                                        68544021
                             00000 10008 POVFLO   EQU   0                                                        68551021
                             00000 10009 PEQNUM   EQU   0                                                        68558021
                             00000 10010 NEQNUM   EQU   0                                                        68565021
                             00000 10011 PGTNUM   EQU   0                                                        68572021
                             00000 10012 NGTNUM   EQU   0                                                        68579021
                             00000 10013 PLTNUM   EQU   0                                                        68586021
                             00000 10014 NLTNUM   EQU   0                                                        68593021
                             00000 10015 XEVAL    EQU   0                                                        68600021
                             00000 10016 SSCRPT   EQU   0                                                        68607021
                             00000 10017 ENDSCHAL EQU   0                                                        68614021
                             00000 10018 EQUSCHR  EQU   0                                                        68621021
                             00000 10019 IFINEQUA EQU   0                                                  51894 68628021
                             00000 10020 IFINNEQU EQU   0                                                  51894 68635021
                             00000 10021 IFINGREA EQU   0                                                  51894 68642021
                             00000 10022 IFINNGRE EQU   0                                                  51894 68649021
                             00000 10023 IFINLESS EQU   0                                                  51894 68656021
                             00000 10024 IFINNLES EQU   0                                                  51894 68663021
                             00000 10025 RPMOVE   EQU   0                                                        68670021
                                   10026 *DEL                                                               5189 68677021
                                   10027 *DEL                                                               5189 68684021
                                   10028 *DEL                                                               5189 68691021
                                   10029 *DEL                                                               5189 68698021
                                   10030 *DEL                                                               5189 68705021
                                   10031 *DEL                                                               5189 68712021
                                   10032 *DEL                                                               5189 68719021
                                   10033 *DEL                                                               5189 68726021
                                   10034 *DEL                                                               5189 68733021
                                   10035 *DEL                                                               5189 68740021
                                   10036 *DEL                                                               5189 68747021
                                   10037 *DEL                                                               5189 68754021
                                   10038 *DEL                                                               5189 68761021
                                   10039 *DEL                                                               5189 68768021
                                   10040 *DEL                                                               5189 68775021
                                   10041 *DEL                                                               5189 68782021
                                   10042 *DEL                                                               5189 68789021
1         IKFCBL51: SET VERB ANALYZERS   S  E  T                                                                PAGE  217
-  LOC  OBJECT CODE    ADDR1 ADDR2  STMT   SOURCE STATEMENT                                       ASM 0201 11.03 02/14/15
0006E30                            10044 IKF504 CSECT                                                            68803021
                             06E30 10045 COMON4 EQU     *                                                        68810021
                             06E30 10046        USING *,XRCONS                                                   68817021
 006E30                            10047 ZAPZAP DS    100F     ************ USE FOR SUPERZAP ************        68824021
 006FC0 00000000                   10048 COSADR DC    A(0)                                                       68831021
                                   10049 ******** VERB TRANSFER VECTOR TABLE ** KEEP TOGETHER ****************** 68838021
 006FC4 00000000                   10050 ADCN00   DC    A(XOTADD)           ADCN00                               68845021
 006FC8 00000000                   10051          DC    A(XOTSUB)           ADCN01                               68852021
 006FCC 00000000                   10052 ADCN02   DC    A(XOTMUL)           ADCN02                               68859021
 006FD0 00000000                   10053 ADCN03   DC    A(XOTDIV)           ADCN03                               68866021
 006FD4 00000000                   10054          DC    A(EXPONE)           ADCN04                               68873021
 006FD8 00000000                   10055          DC    A(STOREE)           ADCN05                               68880021
 006FDC 00000000                   10056          DC    A(PEQNUM)           ADCN06                               68887021
 006FE0 00000000                   10057          DC    A(NEQNUM)           ADCN07                               68894021
 006FE4 00000000                   10058          DC    A(PGTNUM)           ADCN08                               68901021
 006FE8 00000000                   10059          DC    A(NGTNUM)           ADCN09                               68908021
 006FEC 00000000                   10060          DC    A(PLTNUM)           ADCN0A                               68915021
 006FF0 00000000                   10061          DC    A(NLTNUM)           ADCN0B                               68922021
 006FF4 000027C8                   10062          DC    A(PALFA)            ADCN0C                               68929021
 006FF8 000027D4                   10063          DC    A(NALFA)            ADCN0D                               68936021
 006FFC 000027E0                   10064          DC    A(PNUMRC)           ADCN0E                               68943021
 007000 000027EC                   10065 ADCN0F   DC    A(NNUMRC)           ADCN0F                               68950021
 007004 000030D8                   10066          DC    A(STOP)             ADCN10                               68957021
 007008 000067F8                   10067          DC    A(GO)               ADCN11                               68964021
 00700C 00006898                   10068          DC    A(GODEP1)           ADCN12                               68971021
 007010 0000694C                   10069          DC    A(GODEPM)           ADCN13                               68978021
 007014 0000694C                   10070          DC    A(GODEPL)           ADCN14                               68985021
 007018 00000000                   10071          DC    A(XEVAL)            ADCN15                               68992021
 00701C 00001F48                   10072          DC    A(PEQNNU)           ADCN16                               68999021
 007020 00001F50                   10073          DC    A(NEQNNU)           ADCN17                               69006021
 007024 00001F58                   10074          DC    A(PGTNNU)           ADCN18                               69013021
 007028 00001F60                   10075          DC    A(NGTNNU)           ADCN19                               69020021
 00702C 00001F68                   10076          DC    A(PLTNNU)           ADCN1A                               69027021
 007030 00001F70                   10077          DC    A(NLTNNU)           ADCN1B                               69034021
 007034 00006964                   10078          DC    A(MOVE4)            ADCN1C                               69041021
 007038 000020F4                   10079 ADCN1D   DC    A(MOVE)             ADCN1D                               69048021
 00703C 00002B62                   10080          DC    A(EXAMIN)           ADCN1E                               69055021
 007040 00002950                   10081          DC    A(TRANSF)           ADCN1F                               69062021
 007044 00004F58                   10082 ADCN20   DC    A(READ)             ADCN20                               69069021
 007048 0000425E                   10083 ADCN21   DC    A(OPEN)             ADCN21                               69076021
 00704C 00004238                   10084          DC    A(CLOSE)            ADCN22                               69083021
 007050 000052A0                   10085 ADCN23   DC    A(WRITE)            ADCN23                               69090021
 007054 00005282                   10086          DC    A(REWRIT)           ADCN24                               69097021
 007058 00005CB4                   10087          DC    A(ACCEPT)           ADCN25                               69104021
 00705C 00002FF6                   10088          DC    A(DISPLA)           ADCN26                               69111021
 007060 00003234                   10089          DC    A(EXHIBI)           ADCN27                               69118021
 007064 00003882                   10090          DC    A(RESET)            ADCN28                               69125021
 007068 00003892                   10091          DC    A(READY)            ADCN29                               69132021
 00706C 00003A9A                   10092          DC    A(RETURN)           ADCN2A                               69139021
 007070 00003548                   10093          DC    A(ON)               ADCN2B                               69146021
 007074 000040B2                   10094          DC    A(ENTRY)            ADCN2C                               69153021
 007078 000038A2                   10095 ADCN2D   DC    A(CALL)             ADCN2D                               69160021
 00707C 000067F2                   10096          DC    A(ENTER)            ADCN2E                               69167021
 007080 0000000A                   10097          DC    A(PH5CTL)           ADCN2F                               69174021
 007084 0000000A                   10098          DC    A(PH5CTL)           ADCN30                               69181021
1         IKFCBL51: SET VERB ANALYZERS   S  E  T                                                                PAGE  218
-  LOC  OBJECT CODE    ADDR1 ADDR2  STMT   SOURCE STATEMENT                                       ASM 0201 11.03 02/14/15
0007088 000067F2                   10099          DC    A(USE)              ADCN31                               69188021
 00708C 000067F2                   10100          DC    A(EXIT)             ADCN32                               69195021
 007090 00006BD2                   10101          DC    A(RPTNOP)           ADCN33                               69202021
 007094 0000000A                   10102          DC    A(PH5CTL)           ADCN34                               69209021
 007098 0000000A                   10103          DC    A(PH5CTL)           ADCN35                               69216021
 00709C 00003C36                   10104          DC    A(SORT)             ADCN36                               69223021
 0070A0 00003B4E                   10105          DC    A(RELEES)           ADCN37                               69230021
 0070A4 000069F8                   10106          DC    A(PERFOR)           ADCN38                               69237021
 0070A8 00000000                   10107 ADCN39   DC    A(SSCRPT)           ADCN39                               69244021
 0070AC 00003A82                   10108          DC    A(LINKK)            ADCN3A                               69251021
 0070B0 00003200                   10109          DC    A(ADEBUG)           ADCN3B                               69258021
 0070B4 0000000A                   10110          DC    A(PH5CTL)           ADCN3C                               69265021
 0070B8 00003862                   10111          DC    A(TRACE)            ADCN3D                               69272021
 0070BC 000069C8                   10112          DC    A(EQUATE)           ADCN3E                               69279021
 0070C0 0000000A                   10113          DC    A(PH5CTL)           ADCN3F MOVE1(RPT WRITER)             69286021
 0070C4 00005D38                   10114          DC    A(QINITV)           ADCN40                               69293021
 0070C8 00005D5C                   10115          DC    A(QINCRA)           ADCN41                               69300021
 0070CC 00005DC8                   10116          DC    A(QSTEPV)           ADCN42                               69307021
 0070D0 00005E0C                   10117 ADCN43   DC    A(QUPDAT)           ADCN43                               69314021
 0070D4 00002EB0                   10118          DC    A(USE5)             ADCN44                               69321021
 0070D8 00002FC2                   10119          DC    A(ENDUS5)           ADCN45                               69328021
 0070DC 00002E0A                   10120          DC    A(USE1)             ADCN46                               69335021
 0070E0 00002F82                   10121          DC    A(ENDUS1)           ADCN47                               69342021
 0070E4 0000000A                   10122          DC    A(PH5CTL)           ADCN48                               69349021
 0070E8 0000000A                   10123          DC    A(PH5CTL)           ADCN49                               69356021
 0070EC 00002EA0                   10124          DC    A(USE4)             ADCN4A (RPT DECL)              43521 69363021
 0070F0 00006BA8                   10125          DC    A(ENDUS4)           ADCN4B END USE BEFORE REPTING        69370021
 0070F4 00005F8A                   10126          DC    A(QCALLV)           ADCN4C                               69377021
 0070F8 00005FA8                   10127          DC    A(QRET2V)           ADCN4D                               69384021
 0070FC 00005FB8                   10128          DC    A(QRETUV)           ADCN4E                               69391021
 007100 00006AE4                   10129          DC    A(RPTCAL)           ADCN4F                               69398021
 007104 00006B12                   10130          DC    A(RPTSV)            ADCN50                               69405021
 007108 00006B12                   10131          DC    A(RPTSV)            ADCN51                               69412021
 00710C 00006B12                   10132          DC    A(RPTSV)            ADCN52                               69419021
 007110 00006B12                   10133          DC    A(RPTSV)            ADCN53                               69426021
 007114 00006B12                   10134          DC    A(RPTSV)            ADCN54                               69433021
 007118 00006B12                   10135          DC    A(RPTSV)            ADCN55                               69440021
 00711C 00006B30                   10136          DC    A(RPTRET)           ADCN56                               69447021
 007120 00006B30                   10137          DC    A(RPTRET)           ADCN57                               69454021
 007124 00006B30                   10138          DC    A(RPTRET)           ADCN58                               69461021
 007128 00006B30                   10139          DC    A(RPTRET)           ADCN59                               69468021
 00712C 00006B30                   10140          DC    A(RPTRET)           ADCN5A                               69475021
 007130 00006B30                   10141          DC    A(RPTRET)           ADCN5B                               69482021
 007134 00006B5A                   10142          DC    A(RPTORG)           ADCN5C                               69489021
 007138 00006BC2                   10143          DC    A(RPTRRG)           ADCN5D                               69496021
                                   10144 *                                                                       69503021
 00713C 00000000                   10145          DC    A(SEARCHAL)         ADCN5E                               69510021
 007140 00000000                   10146          DC    A(ENDSCHAL)         ADCN5F                               69517021
 007144 00006C28                   10147          DC    A(SET1)             ADCN60                               69524021
 007148 00006DC2                   10148          DC    A(SET2UP)           ADCN61                               69531021
 00714C 0000000A                   10149          DC    A(PH5CTL)           ADCN62                               69538021
 007150 0000000A                   10150          DC    A(PH5CTL)           ADCN63                               69545021
 007154 00004D92                   10151          DC    A(START)            ADCN64                               69552021
 007158 0000000A                   10152          DC    A(PH5CTL)           ADCN65                               69559021
 00715C 00000000                   10153          DC    A(IFINEQUA)         ADCN66                               69566021
1         IKFCBL51: SET VERB ANALYZERS   S  E  T                                                                PAGE  219
-  LOC  OBJECT CODE    ADDR1 ADDR2  STMT   SOURCE STATEMENT                                       ASM 0201 11.03 02/14/15
0007160 00000000                   10154          DC    A(IFINNEQU)         ADCN67                               69573021
 007164 00000000                   10155          DC    A(IFINGREA)         ADCN68                               69580021
 007168 00000000                   10156          DC    A(IFINNGRE)         ADCN69                               69587021
 00716C 00000000                   10157          DC    A(IFINLESS)         ADCN6A                               69594021
 007170 00000000                   10158          DC    A(IFINNLES)         ADCN6B                               69601021
 007174 00001DC8                   10159          DC    A(VIRTDEF)          ADCN6C                               69608021
 007178 00000000                   10160          DC    A(EQUSCHR)          ADCN6D                               69615021
 00717C 00006DC8                   10161          DC    A(SET2DOWN)         ADCN6E                               69622021
 007180 00006ACE                   10162          DC    A(SEGCAL)           ADCN6F                               69629021
 007184 0000000A                   10163          DC    A(PH5CTL)           ADCN70                               69636021
 007188 00004DCC                   10164          DC    A(READCHCK)         ADCN71                               69643021
 00718C 00004DE8                   10165 ADCN72   DC    A(WRITCHCK)         ADCN72                               69650021
 007190 00003156                   10166 ADCN73   DC    A(GOBACK)           ADCN73                               69657021
 007194 000031B8                   10167        DC    A(EXITPGM)                 ADCN74                          69664021
 007198 0000000A                   10168          DC    A(PH5CTL)           ADCN75                               69671021
 00719C 00005FC8                   10169          DC    A(QRNAM)            ADCN76                               69678021
                                   10170 *                                                                       69685021
                                   10171 *DEL                                                               5189 69692021
                                   10172 *DEL                                                               5189 69699021
                             00005 10173 XFIVE    EQU   5                                                        69706021
 0071A0                            10174 XSTRSW   DS    1C                      SW TO IND BEG OF STRING IN CALL  69713021
 0071A8                            10175 XGTEM2   DS    2D                      SAVE AREA                        69720021
 0071B8                            10176 XREGNO   DS    1C                      REG NO NEWLY ASSIGNED            69727021
                                   10177 *DEL                                                               5189 69734021
                                   10178 *DEL                                                               5189 69741021
 0071B9 00000F                     10179 XSUMK5   DC    X'00000F'                                                69748021
                                   10180 *DEL                                                               5189 69755021
                                   10181 *DEL                                                               5189 69762021
                                   10182 *DEL                                                               5189 69769021
                                   10183 *DEL                                                               5189 69776021
                                   10184 *DEL                                                               5189 69783021
                                   10185 *DEL                                                               5189 69790021
 0071BC                            10186        DS    0F                                                         69797021
 0071BC 0000000000000000           10187 GZERO  DC    XL15'0'                                                    69804021
 0071CB 0000000000000000           10188        DC    XL15'0'                                                    69811021
 0071DA 0000000000000000           10189        DC      XL15'0'                                                  69818021
 0071E9 0000000000000000           10190        DC    XL15'0'                                                    69825021
 0071F8 00000001                   10191 FW001    DC    F'1'                FULL WORD CONSTANT = 1               69832021
 0071FC 00000002                   10192 FW002    DC    F'2'                FULL WORD CONSTANT = 2               69839021
 007200 00001000                   10193 FW4096 DC    F'4096'                                                    69846021
                                   10194 *                                                                       69853021
                                   10195 *                                                                       69860021
 007204 00000004                   10196 GFOUR  DC    F'4'                                                       69867021
 007208 0014                       10197 G20    DC      XL2'14'                                                  69874021
                                   10198 *                                                                       69881021
 00720C                            10199        DS      0F                                                       69888021
 00720C 000032767C                 10200 GHFHI  DC    X'000032767C'   MAXIMUM BINARY HALFWORD VALUE              69895021
 007211 000032768D                 10201 GHFLO  DC    X'000032768D'   MINIMUM BINARY HALFWORD VALUE              69902021
 007216 0000000002147483           10202 GFLHI  DC    X'0000000002147483647C'  MAXIMUM BINARY FULLWORD VALUE     69909021
 007220 0000000002147483           10203 GFLLO  DC    X'0000000002147483648D'  MINIMUM BINARY FULLWORD VALUE     69916021
 00722A 0000
 00722C 3B9ACA00                   10204 TENPW9 DC    F'1000000000'   10 TO THE NINTH POWER                      69923021
                                   10205 *DEL                                                               5189 69930021
                                   10206 *DEL                                                               5189 69937021
                                   10207 *                                                                       69944021
1         IKFCBL51: SET VERB ANALYZERS   S  E  T                                                                PAGE  220
-  LOC  OBJECT CODE    ADDR1 ADDR2  STMT   SOURCE STATEMENT                                       ASM 0201 11.03 02/14/15
0                                  10208 *        SAVE AREAS - PRESERVE INDEXES FOR SUBROUTINES                  69951021
                                   10209 **********************************                                      69958021
 007230                            10210 SVWJHE DS    4D                   USED BY MUTUALLY EXCLUSIVE IO SR'     69965021
 007250                            10211 XGSAV1 DS    16F                   X                                    69972021
                                   10212 *DEL                                                               5189 69979021
 007290                            10213 XGSAV3 DS    16F                   X                                    69986021
                                   10214 *DEL                                                               5189 69993021
                                   10215 *DEL                                                               5189 70000021
                                   10216 *DEL                                                               5189 70007021
                                   10217 *DEL                                                               5189 70014021
 0072D0                            10218 XGSAV8 DS    16F                   X                                    70021021
                                   10219 *DEL                                                               5189 70028021
                                   10220 *DEL                                                               5189 70035021
                                   10221 *DEL                                                               5189 70042021
                                   10222 *DEL                                                               5189 70049021
                                   10223 *DEL                                                               5189 70056021
                                   10224 *DEL                                                               5189 70063021
                                   10225 **********************************                                      70070021
                                   10226 *                                                                       70077021
                                   10227 *          REGISTER SAVERS                                              70084021
 007310                            10228 SVDIS1 DS    7F                    X                                    70091021
 00732C                            10229 SVDIS2 DS    6F                    X                                    70098021
 007344                            10230 SVDIS3 DS    4F                    X                                    70105021
 007354                            10231 SVDIS4 DS    1F                    X                                    70112021
 007358                            10232 SVDIS5 DS    6F                    X                                    70119021
 007370                            10233 SVDIS6 DS    1F                    X                                    70126021
 007374                            10234 SVGETD DS    16F                  GETDOP SAVER                          70133021
 0073B4                            10235 SVGETS DS    1F                   SAVE GETSW RW2                        70140021
 0073B8                            10236 SVWJH1 DS    1F                    X                                    70147021
 0073BC                            10237 SVWJH2 DS    1F                    X                                    70154021
 0073C0                            10238 SVWJH3 DS    1F                    X                                    70161021
 0073C4                            10239 SVWJH4 DS    1F                    X                                    70168021
 0073C8                            10240 SVWJH5 DS    1F                    X                                    70175021
 0073CC                            10241 SVWJH6 DS    1F                    X                                    70182021
 0073D0                            10242 SVWJH7 DS    1F                    X                                    70189021
 0073D4                            10243 SVWJH8 DS    1F                    X                                    70196021
 0073D8                            10244 SVWJH9 DS    1F                    X                                    70203021
 0073DC                            10245 SVWJHA DS    1F                    X                                    70210021
 0073E0                            10246 SVWJHB DS    1F                    X                                    70217021
 0073E4                            10247 SVWJHC DS    1F                    X                                    70224021
 0073E8                            10248 SVWJHD DS    1F                    X                                    70231021
 0073EC                            10249 SVWJHF   DS    1F                  X                              37374 70238021
 0073F0                            10250 SVWJHG DS    1F                    X                                    70245021
 0073F4                            10251 SVWJHH DS    1F                    X                                    70252021
 0073F8                            10252 SVWJHI DS    7F                   SAVER FOR ADETER                      70259021
 007414                            10253 SVWJHJ DS    1F                    X                                    70266021
 007418                            10254 SVWJHK DS    1F                    X                                    70273021
 00741C                            10255 SVWJHL DS    2F                    X                                    70280021
 007424                            10256 SVWJHM DS    1F                    X                                    70287021
 007428                            10257 SVWJHN DS    1F                    X                                    70294021
 00742C                            10258 SVWJHO DS    1F                    X                                    70301021
 007430                            10259 SVWJHP DS    7F                   SAVE REG'S OVER XFREER                70308021
 00744C                            10260 SVWJHQ DS    3F                    X                                    70315021
 007458                            10261 SVWJHR   DS    8F                                                       70322021
 007478                            10262 SVWJHS DS    2F                    X                                    70329021
1         IKFCBL51: SET VERB ANALYZERS   S  E  T                                                                PAGE  221
-  LOC  OBJECT CODE    ADDR1 ADDR2  STMT   SOURCE STATEMENT                                       ASM 0201 11.03 02/14/15
0007480                            10263 SVWJHT DS    1F                    X                                    70336021
 007484                            10264 SVWJHU DS    1F                   SAVER FRO REGMAC RTN                  70343021
 007488                            10265 SVSO14 DS    6F                   CALCLG SAVER                          70350021
 0074A0                            10266 SVGATX DS  6F                      X                                    70357021
 0074B8                            10267 DWB      DS    1D                      I/O SAVE AREA                    70364021
 0074C0                            10268 CLSSV  DS    1F                    X                                    70371021
 0074C4                            10269 LRECLTMP DS    1H                  WORK AREA FOR DCBLRECL CALC     5962 70378021
1         IKFCBL51: SET VERB ANALYZERS   S  E  T                                                                PAGE  222
-  LOC  OBJECT CODE    ADDR1 ADDR2  STMT   SOURCE STATEMENT                                       ASM 0201 11.03 02/14/15
0                                  10271 *DEL                                                               5189 70392021
                                   10272 *DEL                                                               5189 70399021
                                   10273 *DEL                                                               5189 70406021
                                   10274 *DEL                                                               5189 70413021
                                   10275 *DEL                                                               5189 70420021
                                   10276 *DEL                                                               5189 70427021
                                   10277 *DEL                                                               5189 70434021
                                   10278 *DEL                                                               5189 70441021
                                   10279 *DEL                                                               5189 70448021
                                   10280 *DEL                                                               5189 70455021
                                   10281 *DEL                                                               5189 70462021
 0074C6 300B00B0300D4C04           10282 XTALLV DC    X'300B00B0300D4C040005FFFFFF'                              70469021
0
                                   10284 *DEL                                                               5189 70483021
                                   10285 *DEL                                                               5189 70490021
                                   10286 *DEL                                                               5189 70497021
                                   10287 *DEL                                                               5189 70504021
                                   10288 *DEL                                                               5189 70511021
                                   10289 *DEL                                                               5189 70518021
                                   10290 *DEL                                                               5189 70525021
                                   10291 *DEL                                                               5189 70532021
                                   10292 *DEL                                                               5189 70539021
                                   10293 *DEL                                                               5189 70546021
                                   10294 *DEL                                                               5189 70553021
                                   10295 *DEL                                                               5189 70560021
                                   10296 *DEL                                                               5189 70567021
                                   10297 *DEL                                                               5189 70574021
                                   10298 *DEL                                                               5189 70581021
                                   10299 *DEL                                                               5189 70588021
                                   10300 *******************************                                         70595021
                                   10301 *      INTEGER  CONSTANTS                                               70602021
 0074D8                            10302        DS    0D                                                         70609021
 0074D8 0000000000000000           10303 XC000  DC    4F'0'                 FOUR FULL WORDS OF 0                 70616021
                             071FA 10304 XC001  EQU   FW001+2               HALF WD = 1                          70623021
                             071FE 10305 XC002  EQU   FW002+2               HALF WD = 2                          70630021
 0074E8 0003                       10306 XC003  DC    1H'3'                 HALF WD = 3                          70637021
                             07206 10307 XC004  EQU   GFOUR+2               HALF WD = 4                          70644021
 0074EA 0005                       10308 XC005  DC    1H'5'                                                      70651021
 0074EC 0006                       10309 XC006  DC    1H'6'                                                      70658021
 0074EE 0007                       10310 XC007  DC    1H'7'                                                      70665021
 0074F0 0008                       10311 XC008  DC    1H'8'                                                      70672021
 0074F2 0009                       10312 XC009  DC    1H'9'                                                      70679021
 0074F4 000A                       10313 XC010  DC    1H'10'                                                     70686021
 0074F6 000B                       10314 XC011  DC    1H'11'                                                     70693021
 0074F8 000C                       10315 XC012  DC    1H'12'                                                     70700021
 0074FA 000E                       10316 XC014  DC    1H'14'                                                     70707021
 0074FC 000F                       10317 XC015  DC    1H'15'                                                     70714021
 0074FE 0010                       10318 XC016  DC    1H'16'                                                     70721021
 007500 0012                       10319 XC018  DC    1H'18'                                                     70728021
 007502 001C                       10320 XC028  DC    H'0028'                                                    70735021
 007504 001D                       10321 XC029  DC    1H'29'                                                     70742021
 007506 001E                       10322 XC030  DC    1H'30'                                                     70749021
 007508 0020                       10323 XC032  DC    1H'32'                                                     70756021
 00750A 003C                       10324 XC060  DC    1H'60'                                                     70763021
1         IKFCBL51: SET VERB ANALYZERS   S  E  T                                                                PAGE  223
-  LOC  OBJECT CODE    ADDR1 ADDR2  STMT   SOURCE STATEMENT                                       ASM 0201 11.03 02/14/15
000750C 007A                       10325 XC0122   DC    1H'122'                                                  70770021
 00750E 00FF                       10326 XC0255   DC    1H'255'                                                  70777021
 007510 0FFF                       10327 XC4095 DC    1H'4095'                                                   70784021
                             07202 10328 XC4096 EQU   FW4096+2              HALF WD = 4096                       70791021
                                   10329 ******************************                                          70798021
                             071FE 10330 GTWO   EQU   XC002                                                      70805021
                             074E8 10331 GTHREE EQU   XC003                                                      70812021
                             074EA 10332 GFIVE  EQU   XC005                                                      70819021
                             074EE 10333 GSEVEN EQU   XC007                                                      70826021
                             074FE 10334 GSXTEN EQU   XC016                                                      70833021
0
 007512                            10336 XLEN1    DS    1H                                                       70847021
 007514                            10337 XLEN2    DS    1H                  LGTH RECEIV FLD IN ALPHA MVE         70854021
 007516 00                         10338 SAVTYP   DC    X'00'               RECEIV FLD DATA TYPE-ALPHA MVE       70861021
 007518                            10339 GNSAVE   DS    2F                        SAVE REGS FOR CALL QRTNS  7330 70868021
 007520                            10340 TAMSAV   DS    1F                  SAVE ADDRESS OF TAMM           01041 70875021
0
                                   10342 ******************************                                          70889021
                                   10343 *      VARIOUS MASKS                                                    70896021
 007524                            10344        DS    0F                                                         70903021
 007524 00FFFFFF                   10345 XEMK1  DC    X'00FFFFFF'                                                70910021
 007528 000080                     10346 XREMK6 DC    X'000080'                                                  70917021
-
-
-

                                   10348 *      VARIOUS  ADCON .                                                 70931021
                                   10349 *                                                                       70938021
                                   10350 *                                                                       70945021
 00752B 00
 00752C 00001E26                   10351 XSSDB2   DC    A(XSUDB2)                                                70952021
                                   10352 *DEL                                                               5189 70959021
                                   10353 *DEL                                                               5189 70966021
 007530 000088E4                   10354 XAOPE1   DC    A(DOP1)             INPUT BUFFER ADDRESSES               70973021
 007534 00008960                   10355 XAOPE2   DC    A(DOP2)                                                  70980021
 007538 000089DC                   10356 XAOPE3   DC    A(DOP3)                                                  70987021
 00753C 00008A58                   10357 XAOPE4   DC    A(DOP4)                                                  70994021
 007540 00008AD4                   10358 XAOPE5   DC    A(DOP5)                                                  71001021
 007544 000025A8                   10359 AIMINIT0 DC    A(IMINIT0)                                               71008021
0
 007548 00001DE8                   10361 FPALOD DC    A(LSSPRO)                                                  71022021
 00754C 000020F4                   10362 XALAMA DC    A(XALAMV)                                                  71029021
                                   10363 *      TAMER PARAMETER LIST                                             71036021
                                   10364 *                                                                       71043021
 007550                            10365        DS    0F                                                         71050021
                             07550 10366 XAAVAL EQU   *                                                          71057021
1         IKFCBL51: SET VERB ANALYZERS   S  E  T                                                                PAGE  224
-  LOC  OBJECT CODE    ADDR1 ADDR2  STMT   SOURCE STATEMENT                                       ASM 0201 11.03 02/14/15
0007550 02                         10367 PARAV  DC    X'02'            AVAIL. TABLE  PARAM.LIST FOR PRIME.       71064021
 007551 00001C                     10368        DC    AL3(XAVAL)       X                                         71071021
 007554 0190                       10369        DC    X'0190'          X                                         71078021
 007556 0028                       10370        DC    X'0028'          X                                         71085021
0
                             07558 10372 XAINTR EQU   *                                                          71099021
 007558 20                         10373 PARAM  DC    X'20'            INT. RES. TABLE PARAM.LIST FOR PRIME.     71106021
 007559 000014                     10374        DC    AL3(XINTR)       X                                         71113021
 00755C 0C80                       10375        DC    X'0C80'          X                                         71120021
 00755E 0280                       10376        DC    X'0280'          X                                         71127021
0
 007560 04                         10378 PNUPRM DC    X'04'            PARAM LIST FOR PNUTBL                     71141021
 007561 00003C                     10379        DC    AL3(PNUTBL)           X                                    71148021
 007564 0000                       10380        DC    H'0'                  X                                    71155021
 007566 0004                       10381        DC    H'4'                  X                                    71162021
                             07560 10382 PNUTBA EQU   PNUPRM                X                                    71169021
 007568 05                         10383 SEGPRM DC    X'05'                 SEGMENT ADDR TABLE                   71176021
 007569 000084                     10384        DC    AL3(XSEGM)            X                                    71183021
 00756C 001E                       10385        DC    H'30'                 X                                    71190021
 00756E 0014                       10386        DC    H'20'                 X                                    71197021
                                   10387 ******************************                                          71204021
-
 007570                            10389 GNCALPRM DS    0F                        PARM LIST FOR GNCALTBL    7330 71218021
 007570 03                         10390          DC    X'03'                         X                     7330 71225021
 007571 00008C                     10391          DC    AL3(GNCALTBL)                 X                     7330 71232021
 007574 0009                       10392          DC    H'9'                          X                     7330 71239021
 007576 0003                       10393          DC    H'3'                          X                     7330 71246021
1         IKFCBL51: SET VERB ANALYZERS   S  E  T                                                                PAGE  225
-  LOC  OBJECT CODE    ADDR1 ADDR2  STMT   SOURCE STATEMENT                                       ASM 0201 11.03 02/14/15
0                                  10395 *        NON-ARITHMETIC CONSTANT AREA                                   71260021
                                   10396 *                                                                       71267021
 007578 C9D3C2D6                   10397 VIRTHD DC    C'ILBO'              FIRST 4 CHAR OF ALL SUBROUTINES       71274021
 00757C C4E2D7F0                   10398 DIA1C1 DC    C'DSP0'              DISPLAY   VIRTUAL  NAME               71281021
 007580 E3C5C6F3                   10399 DIFPVI DC    C'TEF3'              IFP TO EFP     -    -                 71288021
 007584 E2D9E3F0                   10400 SORTC1 DC    C'SRT0'              SORT INTERFACE -    -                 71295021
 007588 C1C3D7F0                   10401 ACCPVI DC    C'ACP0'              ACCEPT         -    -                 71302021
 00758C E2C1D4F0                   10402 BSAMVI   DC    C'SAM0'             BSAM                                 71309021
 007590 E2D7C1F0                   10403 SPACCON  DC    C'SPA0'             SPACE SUBR                           71316021
 007594 E2C1D4D9                   10404 BSAMREAD DC    C'SAMR'                  BSAM SPANNED READ ROUTINE       71323021
 007598 D7E3E5F1                   10405 PTOVCON1 DC    C'PTV1'                                                  71330021
 00759C D7E3E5F2                   10406 PTOVCON2 DC    C'PTV2'                                                  71337021
 0075A0 C5D9D9F5                   10407 ERBICON  DC    C'ERR5'                                                  71344021
 0075A4 C3D2D7F0                   10408 CHPTCON  DC    C'CKP0'                 CHECKPOINT SUBRTN                71351021
 0075A8 40404040                   10409 SPACES DC      CL4'    '                                                71358021
 0075AC 0000601E                   10410 ADCON1 DC      A(DIDNIQ)           COMMONLY                             71365021
 0075B0 00006046                   10411 ADCON2 DC      A(DIINFQ)           USED                                 71372021
 0075B4 00006154                   10412 ADCON3 DC      A(DITYPQ)           SUB-                                 71379021
 0075B8 0000627E                   10413 ADCON4 DC      A(DILGTQ)           ROUTINES                             71386021
 0075BC 000062F8                   10414 ADCON5 DC      A(DIBDIQ)           WITH-                                71393021
 0075C0 0000642C                   10415 ADCON6 DC      A(DICO1Q)           IN                                   71400021
 0075C4 00006456                   10416 ADCON7 DC      A(DICNOQ)           THE                                  71407021
 0075C8 000064A4                   10417 ADCON8 DC      A(DIBALQ)           PHASE                                71414021
 0075CC 0000650E                   10418 ADCON9 DC      A(DICO8Q)           X                                    71421021
 0075D0 00006526                   10419 ADCONA DC      A(CALCLQ)           X                                    71428021
 0075D4 000066F6                   10420 ADCONB DC    A(IOQRTQ)             X                                    71435021
 0075D8 00006788                   10421 ADCONC DC    A(IOSTBQ)             X                                    71442021
 0075DC 0000665E                   10422 ADCONG DC      A(GETDOQ)           X                                    71449021
 0075E0 000066D8                   10423 ADCONH DC      A(GETSWQ)           X                                    71456021
 0075E4 0000631E                   10424 ADCONI DC    A(DRELAQ)             X                                    71463021
 0075E8 000066AC                   10425 ADCONK DC    A(NXTSTQ)             X                                    71470021
 0075EC 000038BC                   10426 ADCONL DC    A(CALL01)             X                                    71477021
 0075F0 000065EA                   10427 ADCONM DC    A(ADETEQ)             X                                    71484021
 0075F4 000063FA                   10428 ADCONN DC    A(DDISPQ)             X                                    71491021
 0075F8 0000646C                   10429 ADCONP   DC    A(CLSQDQ)           X                                    71498021
 0075FC 00000001                   10430 HWDONE DC    XL4'00000001'         FULL WORD CONSTANT OF ONE            71505021
 007600 80000000                   10431 EXHIC1 DC    XL4'80000000'         FULL WD CONSTANT FOR EXHIBIT         71512021
 007604 00000003                   10432 FWDTHR DC    XL4'3'                FULL WORD CONSTANT OF 3              71519021
                             07202 10433 HW4096 EQU   FW4096+2                                                   71526021
 007608 00                         10434 LBLSW    DC    X'00'                   NONSTANDARD LABEL SWITCH         71533021
 00760A                            10435        DS      0H                                                       71540021
 00760A 01F0                       10436 GETDC1 DC      AL2(4*LDOP)              DISPLACEMENT OF LAST OF 5 O     71547021
 00760C 0174                       10437 GETDC2   DC    AL2(3*LDOP)                                              71554021
 00760E 3408                       10438 STOPRU DC      XL2'3408'      **   DUMMY AN LIT FOR STOP RUN    **      71561021
 007610 E2E3D6D740D9E4D5           10439        DC      CL8'STOP RUN'  **        KEEP TWO DC'S TOGETHER  **      71568021
 007618 1C00                       10440 DILGC1   DC    XL2'1C00'                                                71575021
 00761A 2000                       10441 DILGC2   DC    XL2'2000'                                                71582021
 00761C 0000                       10442 DITYTB DC      1H'00'              THIS TABLE                           71589021
 00761E 0000                       10443        DC      XL2'00'               MUST REMAIN                        71596021
 007620 0000                       10444        DC      XL2'00'                INTACT.                           71603021
 007622 0000                       10445        DC      XL2'00'                 . ....                           71610021
 007624 0020                       10446        DC      XL2'20'                  .                               71617021
 007626 000F                       10447        DC      XL2'0F'                   .                              71624021
 007628 000F                       10448        DC      XL2'0F'                  .                               71631021
 00762A 0000                       10449        DC      XL2'00'                                                  71638021
1         IKFCBL51: SET VERB ANALYZERS   S  E  T                                                                PAGE  226
-  LOC  OBJECT CODE    ADDR1 ADDR2  STMT   SOURCE STATEMENT                                       ASM 0201 11.03 02/14/15
000762C 000F                       10450        DC      XL2'0F'                 .                                71645021
 00762E 000F                       10451        DC      XL2'0F'                .                                 71652021
 007630 0008                       10452        DC      XL2'08'                 .                                71659021
 007632 0001                       10453        DC      XL2'01'                  .                               71666021
 007634 0002                       10454        DC      XL2'02'                   .                              71673021
 007636 000F                       10455        DC      XL2'0F'                  .                               71680021
 007638 0000                       10456        DC    XL2'00'                    .                               71687021
 00763A 02FFFF                     10457 DISPC1 DC      XL3'02FFFF'                                              71694021
 00763D 00040000                   10458 ENTRC1 DC    XL4'00040000'                                              71701021
 007641 0000                       10459 VIRDEFI  DC    XL2'0000'           USED BY 'STOP' VERB                  71708021
 007643 0000                       10460 VIRTNO   DC    XL2'0000'           HOLDS VIRTUAL ID NUMBER              71715021
 007645 C9D3C2D6E2E3D7F1           10461          DC    CL8'ILBOSTP1'       'STOP' SUBR                          71722021
                                   10462 *        COBOL WORDS NEEDED BY PHASE 5                                  71729021
 00764E                            10463        DS      0H                                                       71736021
 00764E 548D                       10464 CBASCD DC      XL2'548D'           ASCENDING                            71743021
 007650 548F                       10465 CBCHGD DC      XL2'548F'           CHANGED                              71750021
 007652 5478                       10466 CBCNSL DC      XL2'5478'           CONSOLE C.W.                         71757021
 007654 548C                       10467 CBDSCD DC      XL2'548C'           DESCENDING                           71764021
 007656 54A1                       10468 CBEND  DC      XL2'54A1'           END                                  71771021
 007658 5496                       10469 CBFRST DC    XL2'5496'             'FIRST'  USED AS AN ID FOR CONT      71778021
 00765A 5481                       10470 CBGIVG DC      XL2'5481'           GIVING                               71785021
 00765C 5490                       10471 CBNAMD DC      XL2'5490'           NAMED                                71792021
 00765E 5485                       10472 CBRUN  DC      XL2'5485'           RUN                                  71799021
 007660 5477                       10473 CBSYSP DC      XL2'5477'           SYSPCH C.W.                          71806021
 007662 5489                       10474 CBUSIN DC      XL2'5489'           USING                                71813021
 007664 75F0                       10475 ONZERO DC      XL2'75F0'           F.C. ZERO                            71820021
                                   10476 *                                                                       71827021
                                   10477 * NON-ALLIGNED CONSTANTS                                                71834021
 007666 E9C4                       10478 SORBZD DC    CL2'ZD'               SORT KEY TYPE CODES                  71841021
 007668 C3C8                       10479 SORBCH DC    CL2'CH'               SORT KEY TYPE CODES                  71848021
 00766A C6D3                       10480 SORBFL DC    CL2'FL'               SORT KEY TYPE CODES                  71855021
 00766C D7C4                       10481 SORBPD DC    CL2'PD'               SORT KEY TYPE CODES                  71862021
 00766E C6C9                       10482 SORBBI DC    CL2'FI'               SIGNED BINARY                        71869021
 007670 4444                       10483 SEGBRK DC    X'4444'              PROC ATXT FOR SEGM CONTROL BREAK      71876021
 007672 3418                       10484 DIWTC1 DC    XL2'3418'                 *** KEEP TOGETHER ***            71883021
 007674 C9D2C6F9F9F0C46B           10485        DC    CL8'IKF990D,'        *** KEEP TOGETHER ***                 71890021
 00767C 40C1E6C1C9E3C9D5           10486        DC    CL16' AWAITING REPLY.'    *** KEEP TOGETHER ***            71897021
 00768C C9D2C6F0F0F0C16B           10487 STOPC1 DC    CL9'IKF000A, '        STOP 'LIT' MESSAGE CODE              71904021
                             07695 10488 RECLIT EQU   *                                                          71911021
 007695 40D9C5C3D6D9C440           10489        DC    C' RECORD TYPE=F,LENGTH=('                                 71918021
 0076AC 3400                       10490 SORLIT DC    XL2'3400'             SORT CONTROL                         71925021
 0076AE 40E2D6D9E340C6C9           10491        DC    C' SORT FIELDS=('     CARD                                 71932021
 0076BC 5D40                       10492 SORCL3 DC    C') '                 LITERALS                             71939021
 0076BE 5D6BC3D2D7E340             10493 SCHKPT DC    C'),CKPT '            X                                    71946021
 0076C5 6B6B6B                     10494 SORCL4 DC    C',,,'                X                                    71953021
 0076C8                            10495 SORLG2 DS    XL5'0'                MINIMUM RECORD LENGTH-SORT           71960021
 0076CD F140F060                   10496 WRISC1 DC    CL4'1 0-'             CARR CONTROL CHAR SET                71967021
 0076D1 35014D                     10497 PR35C1 DC      XL3'35014D'                                              71974021
 0076D4 35015D                     10498 PR35C2 DC      XL3'35015D'                                              71981021
 0076D8                            10499        DS    0D                                   *** KEEP TOGETHER     71988021
 0076D8                            10500 DIFPC2 DS    0D                                                         71995021
 0076D8 475F5E1000000000           10501        DC    X'475F5E1000000000'                                        72002021
 0076E0 4F16345785D8A000           10502        DC    X'4F16345785D8A000'                                        72009021
 0076E8 080E0700                   10503 DIFPC1 DC    X'080E0700'             *****  KEEP TOGETHER ***           72016021
 0076EC 11170700                   10504        DC    X'11170700'             *****  KEEP TOGETHER ***           72023021
1         IKFCBL51: SET VERB ANALYZERS   S  E  T                                                                PAGE  227
-  LOC  OBJECT CODE    ADDR1 ADDR2  STMT   SOURCE STATEMENT                                       ASM 0201 11.03 02/14/15
00076F0 3502                       10505 PR35CB DC    XL2'3502'                        ****     KEEP TOGETHE     72030021
 0076F2 6B40                       10506        DC    CL2', '                          ****     KEEP TOGETHE     72037021
                                   10507 * KEEP NEXT 6 CARDS TOGETHER                                            72044021
 0076F4 D05E                       10508 SPREGC DC    X'D05E'              BASE & DISPL FOR SORT-RETURN          72051021
 0076F6 D058                       10509        DC    X'D058'               -      -    -   SORT-CORE-SIZE       72058021
 0076F8 D190                       10510        DC    X'D190'               -      -    -   SORT-FILE-SIZE       72065021
 0076FA D194                       10511        DC    X'D194'               -      -    -   SORT-MODE-SIZE       72072021
 0076FC D1A6                       10512        DC    X'D1A6'              BASE & DISPL FOR LABEL-RETURN         72079021
 0076FE D05C                       10513        DC    X'D05C'               -      -    -   RETURN-CODE          72086021
                                   10514 * KEEP ABOVE SIX CARDS TOGETHER.                                        72093021
 007700 00                         10515 CODE     DC    X'00'               CODE FOR EOV AND EOF                 72100021
 007701 00
 007702 0000                       10516 LBDCLCTR DC    H'0'                USED TO INDEX USETBL - INDI    43521 72107021
                                   10517 *        CATES THE CURRENT DECLARATIVE BEING PROCESSED (IN        43521 72114021
                                   10518 *        NUMERICAL ORDER AS THEY APPEAR IN THE SOURCE).           43521 72121021
0
1         IKFCBL51: CONSTANT A-TEXT C O N S T A N T                                                             PAGE  228
-  LOC  OBJECT CODE    ADDR1 ADDR2  STMT   SOURCE STATEMENT                                       ASM 0201 11.03 02/14/15
0                                  10521 * DIRECT A-TEXT WRITE OUT CONSTANTS. THOSE DIRECT A-TEXT STRINGS        72142021
                                   10522 *   REQUIRING CHANGES ARE IN VARIABLE DATA AREA.                        72149021
                                   10523 *                                                                       72156021
                             07704 10524 ATXTBC EQU   *                     START OF CONSTANT DIRECT A-TEXT      72163021
 007704 4805EF                     10525 ATXT01 DC    XL3'4805EF'                               BALR 14,15       72170021
                             07707 10526 ZTXT01 EQU   *                  Z'S USED TO CALCULATE LENGTH IN EQU     72177021
                             07707 10527 ATXT37 EQU   *                                                          72184021
 007707 48582070104C               10528        DC    XL6'48582070104C'     *    L    2,76(1)                    72191021
 00770D 484B20701052               10529        DC    XL6'484B20701052'     *    SH   2,82(1)                    72198021
 007713 48502070104C               10530        DC    XL6'48502070104C'     *    ST   2,76(1)                    72205021
                             07719 10531 ZTXT37 EQU   *                                                          72212021
                             07719 10532 ATXT38 EQU   *                                                          72219021
 007719 485810702014               10533        DC    XL6'485810702014'     *    L    1,20(2)                    72226021
 00771F 489601702017               10534        DC    XL6'489601702017'     *    OI    23(2),1                   72233021
 007725 481B44                     10535          DC    XL3'481B44'         * SR   4,4                     37073 72240021
 007728 484340701005               10536          DC    XL6'484340701005'   * IC   4,5(1)                  37073 72247021
 00772E 484C40701006               10537        DC    XL6'484C40701006'     *    MH   4,6(1)                     72254021
 007734 4841007040                 10538          DC    XL5'4841007040'     LA  0,8 OR 16(4)                     72261021
 007739 00                         10539 ATXT380  DC    XL1'00'                                                  72268021
 00773A 484110701000               10540        DC    XL6'484110701000'     *    LA   1,0(1)                     72275021
 007740 480A0A                     10541        DC    XL3'480A0A'           *    SVC   10                        72282021
                             07743 10542 ZTXT38 EQU   *                                                          72289021
                             07743 10543 ATXT40 EQU   *                                                          72296021
 007743 484230705001               10544          DC    X'484230705001'         *  STC  3,1(5)                   72303021
 007749 488830700008               10545        DC    XL6'488830700008'     *    SRL  3,8                        72310021
 00774F 484230705000               10546          DC    X'484230705000'         *  STC  3,0(5)                   72317021
 007755 489200705002               10547          DC    X'489200705002'          *  MVI  2(5),X'00'              72324021
 00775B 489200705003               10548          DC    X'489200705003'          *  MVI  2(3),X'00'              72331021
                             07761 10549 ZTXT40 EQU   *                                                          72338021
                             07761 10550 ATXT41 EQU   *                                                          72345021
 007761 484230701001               10551        DC    XL6'484230701001'     *    STC  3,1(1)                     72352021
 007767 488830700008               10552        DC    XL6'488830700008'     *    SRL  3,8                        72359021
 00776D 484230701000               10553        DC    XL6'484230701000'     *    STC  3,0(1)                     72366021
                             07773 10554 ZTXT41 EQU   *                                                          72373021
                             07773 10555 ATXT42   EQU   *                                                  48426 72380021
 007773 489200701002               10556          DC    X'489200701002'          * MVI  2(1),X'00'         48426 72387021
 007779 489200701003               10557          DC    X'489200701003'          * MVI  3(1),X'00'         48426 72394021
 00777F 484110701004               10558          DC    X'484110701004'          * LA   1,4(0,1)           48426 72401021
                             07785 10559 ZTXT42   EQU   *                                                  48426 72408021
                             07785 10560 ATXT46 EQU   *                                                          72415021
 007785 4890EC70D00C               10561        DC    XL6'4890EC70D00C'     *    STM  14,12,12(13)               72422021
 00778B 48185D                     10562        DC    XL3'48185D'           *    LR   5,13                       72429021
 00778E 4805F0                     10563        DC    X'4805F0'            *    BALR 15,0                        72436021
 007791 4845E070F008               10564        DC    X'4845E070F008'      *    BAL  14,8(15)                    72443021
 007797 44188400040000             10565        DC    X'44188400040000'    *    DC   A(INIT1)                    72450021
 00779E 4858F070E000               10566        DC    X'4858F070E000'      *    L    15,0(14)                    72457021
 0077A4 48989F70F01C               10567          DC    XL6'48989F70F01C'     * LM 9,15,28(15)                   72464021
 0077AA 4430A00F                   10568        DC    X'4430A00F'          * DESTROY 15                          72471021
 0077AE 4805EF                     10569        DC    XL3'4805EF'           *    BALR 14,15                      72478021
                             077B1 10570 ZTXT46 EQU   *                                                          72485021
                             077B1 10571 ATXT47 EQU   *                                                          72492021
 0077B1 48584070D004               10572        DC    XL6'48584070D004'     *    L    4,4(13)                    72499021
 0077B7 485840704018               10573        DC    XL6'485840704018'     *    L    4,24(4)                    72506021
                             077BD 10574 ZTXT47 EQU   *                                                          72513021
                             077BD 10575 ATX50A EQU   *                                                          72520021
1         IKFCBL51: CONSTANT A-TEXT C O N S T A N T                                                             PAGE  229
-  LOC  OBJECT CODE    ADDR1 ADDR2  STMT   SOURCE STATEMENT                                       ASM 0201 11.03 02/14/15
00077BD 484100700001               10576        DC      X'484100700001'    LA   0,1                              72527021
 0077C3 480A01                     10577        DC      X'480A01'          SVC   1                               72534021
                             077C6 10578 ATX50B EQU   *                                                          72541021
                             077C6 10579 ATXT55 EQU   *                                                          72548021
 0077C6 4805EF                     10580        DC    X'4805EF'            * BALR 14,15                          72555021
 0077C9 4840F070D05C               10581        DC    X'4840F070D05C'      * STH  15,92(13)                      72562021
                             077CF 10582 ZTXT55 EQU   *                                                          72569021
                             077CF 10583 ATXT57 EQU   *                                                          72576021
 0077CF 48420264300001             10584        DC    X'48420264300001'     * STC   2,TS2=1                      72583021
 0077D6 480610                     10585        DC    X'480610'             * BCTR  1,0                          72590021
 0077D9 481211                     10586        DC    X'481211'             * LTR   1,1                          72597021
 0077DC 4807B3                     10587        DC    X'4807B3'             * BCR   11,3                         72604021
                             077DF 10588 ZTXT57 EQU   *                                                          72611021
 0077DF 485810703010               10589 ATXT60 DC    X'485810703010'     * L    1,16(3)                         72618021
                             077E5 10590 ZTXT60 EQU   *                                                          72625021
                                   10591 *                                                                       72632021
                             077E5 10592 ATXT72   EQU   *                                                        72639021
 0077E5 4858F0701030               10593          DC    X'4858F0701030'         *  L  15,48(1)                   72646021
 0077EB 4845E070F004               10594          DC    X'4845E070F004'         *  BAL  14,4(15)                 72653021
                             077F1 10595 ZTXT72   EQU   *                                                        72660021
 0077F1 4807C1                     10596 ATXT73   DC    X'4807C1'                BCR  12,1                       72667021
                             077F4 10597 ZTXT73   EQU   *                                                        72674021
 0077F4 481424                     10598 ATXT76   DC    X'481424'                NR   2,4                        72681021
 0077F7 480771                     10599          DC    X'480771'                BCR  7,1                        72688021
                             077FA 10600 ZTXT76   EQU   *                                                        72695021
 0077FA 4847C0703008               10601 ATXT74   DC    X'4847C0703008'          BC  12,8(3)                     72702021
                             07800 10602 ZTXT74   EQU   *                                                        72709021
 007800 481424                     10603 ATXT77   DC    X'481424'            NR   2,4                            72716021
 007803 480781                     10604          DC    X'480781'                BCR  8,1                        72723021
                             07806 10605 ZTXT77   EQU   *                                                        72730021
 007806 480741                     10606 ATXT78   DC    X'480741'                BCR  4,1                        72737021
 007809 48478070300A               10607          DC    X'48478070300A'          BC   8,10(3)                    72744021
                             0780F 10608 ZTXT78   EQU   *                                                        72751021
 00780F 480781                     10609 ATXT79   DC    X'480781'                BCR  8,1                        72758021
 007812 48474070300A               10610          DC    X'48474070300A'          BC   4,10(3)                    72765021
                             07818 10611 ZTXT79   EQU   *                                                        72772021
                             07818 10612 ATXT82   EQU   *                                                        72779021
 007818 48585070300C               10613          DC    X'48585070300C'         *  L  5,12(3)                    72786021
 00781E 4858105C0000               10614 ATX82B DC    X'4858105C0000'      *    L    1,BL=                       72793021
                             07824 10615 ZTXT82 EQU   *                                                          72800021
                             07824 10616 ATXT83 EQU   *                                                          72807021
 007824 48501070300C               10617        DC    X'48501070300C'      *    ST   1,12(3)                     72814021
                             0782A 10618 ZTXT83 EQU   *                                                          72821021
                             0782A 10619 ATXT84   EQU   *                                                        72828021
 00782A 48505070300C               10620          DC    X'48505070300C'         *  ST  5,12(3)                   72835021
                             07830 10621 ZTXT84 EQU   *                                                          72842021
                                   10622 *                                                                       72849021
 007830 489280703004               10623 ATXT85 DC    X'489280703004'      * MVI 4(3),X'80'                      72856021
                             07836 10624 ZTXT85 EQU   *                                                          72863021
                             07836 10625 ATXT86   EQU   *                                                        72870021
 007836 484010703006               10626          DC    X'484010703006'         *  STH  1,6(3)                   72877021
                             0783C 10627 ZTXT86 EQU   *                                                          72884021
 00783C 485A3070104C               10628 ATXT87 DC    XL6'485A3070104C'    * A 3,76(1)                           72891021
 007842 484B30701052               10629        DC    XL6'484B30701052'    * SH 3,82(1)                          72898021
 007848 48503070104C               10630        DC    XL6'48503070104C'    * ST 3,76(1)                          72905021
1         IKFCBL51: CONSTANT A-TEXT C O N S T A N T                                                             PAGE  230
-  LOC  OBJECT CODE    ADDR1 ADDR2  STMT   SOURCE STATEMENT                                       ASM 0201 11.03 02/14/15
000784E 485030701048               10631        DC    XL6'485030701048'    * ST 3,72(1)                          72912021
                             07854 10632 ZTXT87 EQU   *                                                          72919021
                                   10633 *                                                                       72926021
 007854 48412064200001             10634 ATXT89 DC    XL7'48412064200001'  * LA   2,WORKCELL=1                   72933021
                             0785B 10635 ZTXT89 EQU   *                                                          72940021
                             0785B 10636 ATXT92  EQU    *                                                        72947021
 00785B 484210641C000280           10637          DC    X'484210641C000280000003'        *   STC  1,PARAM#2+     72954021
                             07866 10638 ZTXT92  EQU    *                                                        72961021
                             07866 10639 ATXT93   EQU   *                                                        72968021
 007866 484110641C0001             10640          DC    X'484110641C0001'       *  LA  1,PARAM#1                 72975021
                             0786D 10641 ZTXT93   EQU   *                                                        72982021
                             0786D 10642 ATXT94E  EQU   *                                                  43521 72989021
 00786D 489180701004               10643          DC    X'489180701004'          TM   4(1),X'80'           43521 72996021
 007873 48078E                     10644          DC    X'48078E'                BCR  0,14                 43521 73003021
                             07876 10645 ATXT94   EQU   *                                                        73010021
 007876 481BFF                     10646          DC    X'481BFF'               *  SR  15,15                     73017021
 007879 489400701000               10647          DC    X'489400701000'         *  NI  0(1),0                    73024021
 00787F 4859F0701000               10648          DC    X'4859F0701000'         *  C  15,0(1)                    73031021
 007885 48078E                     10649          DC    X'48078E'               *  BCR  EQ,14                    73038021
 007888 489180701008               10650          DC    X'489180701008'         *  TM  8(1),X'80'                73045021
 00788E 48071E                     10651          DC    X'48071E'               *  BCR  ONE,14                   73052021
                             07891 10652 ATXT94A  EQU   *                                                        73059021
                             07891 10653 ATXT94C  EQU   *                                                        73066021
 007891 48D2025C0101               10654          DC    X'48D2025C0101'         *  MVC  BLL1+1(3),1(2)           73073021
 007897 80000001702001             10655          DC    X'80000001702001'                                        73080021
 00789E 48D2025C0102               10656          DC    X'48D2025C0102'         * MVC BLL2+1(3),13(2)            73087021
 0078A4 8000000170200D             10657          DC    X'8000000170200D'                                        73094021
                             078AB 10658 ATXT94D  EQU   *                                                        73101021
 0078AB 48071E                     10659          DC    X'48071E'                * BCR 1,14                      73108021
                             078AE 10660 ZTXT94   EQU   *                                                        73115021
                             078AE 10661 ATXT95   EQU   *                                                        73122021
 0078AE 48184E                     10662          DC    X'48184E'               *  LR  4,14                      73129021
 0078B1 481821                     10663          DC    X'481821'                * LR 2,1                        73136021
                             078B4 10664 ATXT95E  EQU   *                                                        73143021
 0078B4 484100700088               10665          DC    XL6'484100700088'       LA  0,136(0)               34733 73150021
 0078BA 481110                     10666          DC    X'481110'                * LNR 1,0                       73157021
 0078BD 480A0A                     10667          DC    X'480A0A'                * SVC 10                        73164021
 0078C0 48D203701048643C           10668          DC    X'48D203701048643C0001'  * MVC 72(4,1),SA2               73171021
 0078CA 485010643C0001             10669          DC    X'485010643C0001'        * ST  1,SA2                     73178021
 0078D1 485040701000               10670          DC    X'485040701000'         *  ST  4,0(1)                    73185021
 0078D7 48D24370100470D0           10671          DC    X'48D24370100470D004'    * MVC 4(68,1),4(13)             73192021
 0078E0 48D23B70104C70D1           10672          DC    XL9'48D23B70104C70D128' MVC 76(60,1),316(13)       34733 73199021
                             078E9 10673 ATXT95A  EQU   *                                                        73206021
 0078E9 48D2037010547020           10674          DC    X'48D203701054702004'    * MVC 84(4,1),4(2)              73213021
 0078F2 48D20770104C5C01           10675          DC    X'48D20770104C5C0101'   * MVC 76(8,1),BLL1               73220021
                             078FB 10676 ATXT95B  EQU   *                                                        73227021
 0078FB 485840701000               10677          DC    X'485840701000'         *  L  4,0(1)                     73234021
 007901 48D24370D0047010           10678          DC    X'48D24370D004701004'    * MVC 4(68,13),4(1)             73241021
 00790A 48D23B70D1287010           10679          DC    XL9'48D23B70D12870104C' MVC 316(60,13),76(1)       34733 73248021
                             07913 10680 ATXT95C  EQU   *                                                        73255021
 007913 48D2035C01017010           10681          DC    X'48D2035C010170104C'   *  MVC  BLL1(4),76(1)            73262021
 00791C 48D2035C01027010           10682          DC    X'48D2035C0102701050'   * MVC BLL2(4),80(1)              73269021
                             07925 10683 ATXT95D  EQU   *                                                        73276021
 007925 48D203643C000170           10684          DC    X'48D203643C0001701048'  * MVC  SA2(4),72(1)             73283021
 00792F 484100700088               10685          DC    XL6'484100700088'       LA  0,136(0)               34733 73290021
1         IKFCBL51: CONSTANT A-TEXT C O N S T A N T                                                             PAGE  231
-  LOC  OBJECT CODE    ADDR1 ADDR2  STMT   SOURCE STATEMENT                                       ASM 0201 11.03 02/14/15
0007935 480A0A                     10686          DC    X'480A0A'                * SVC  10                       73297021
                             07938 10687 ATXT95F  EQU   *                                                        73304021
                             07938 10688 ZTXT95   EQU   *                                                        73311021
                             07938 10689 ATXT96   EQU   *                                        LOAD LBL-RE     73318021
 007938 485810643C0001             10690          DC    X'485810643C0001'        *  L  1,SA2     CODE  INTO      73325021
                             0793F 10691 ATXT96A  EQU   *                                            X           73332021
 00793F 481B55                     10692          DC    X'481B55'               *  SR  5,5    X                  73339021
 007942 485820701054               10693          DC    X'485820701054'          *  L  2,84(1)       X           73346021
 007948 485820702024               10694          DC    X'485820702024'          *  L  2,36(2)       X           73353021
 00794E 484350702025               10695          DC    X'484350702025'         *  IC  5,37(2)  X                73360021
                             07954 10696 ZTXT96   EQU   *                                            X           73367021
                             07954 10697 ATXT98   EQU   *                                                        73374021
 007954 4805E0                     10698          DC    X'4805E0'               *  BALR  14,0                    73381021
 007957 4895F070D1A6               10699          DC    X'4895F070D1A6'         *  CLI  422(13),C'0'             73388021
 00795D 48478070E00C               10700          DC    X'48478070E00C'         *  BE  12(14)                    73395021
 007963 484150700010               10701          DC    X'484150700010'         *  LA  5,16                      73402021
                             07969 10702 ZTXT98   EQU   *                                                        73409021
                             07969 10703 ATXT104  EQU   *                                                  48426 73416021
 007969 484130703004               10704          DC    X'484130703004'          * LA   3,4(0,3)           48426 73423021
                             0796F 10705 ZTXT104  EQU   *                                                  48426 73430021
                             0796F 10706 ATXT105  EQU   *                                                        73437021
 00796F 484030702052               10707          DC    X'484030702052'         *  STH  3,82(2)                  73444021
                             07975 10708 ZTXT105  EQU   *                                                        73451021
                             07975 10709 ATXT107  EQU   *                                                        73458021
 007975 48580070104C               10710          DC    X'48580070104C'         X   L  0,76                      73465021
 00797B 4428A00F                   10711          DC    XL4'4428A00F'       * RESERVE 15                         73472021
 00797F 4858F0701030               10712          DC    X'4858F0701030'         *  L  15,48(1)                   73479021
 007985 484400701060               10713          DC    X'484400701060'         *   EX  0,96(1)                  73486021
 00798B 4430A00E                   10714          DC    XL4'4430A00E'       * DESTROY 14                         73493021
 00798F 442CA00F                   10715          DC    XL4'442CA00F'       * FREE 15                            73500021
                             07993 10716 ZTXT107  EQU   *                                                        73507021
                             07993 10717 ATXT108  EQU   *                                                        73514021
 007993 4892F070D1A6               10718          DC    X'4892F070D1A6'         *  MVI  422(13),C'0'             73521021
                             07999 10719 ZTXT108  EQU   *                                                        73528021
                             07999 10720 ATXT109  EQU   *                                                        73535021
 007999 485810703014               10721          DC    X'485810703014'         *  L  1,20(3)                    73542021
 00799F 48D20370301C7010           10722          DC    X'48D20370301C701000'   *  MVC  28(4,3),0(1)             73549021
                             079A8 10723 ZTXT109  EQU   *                                                        73556021
                             079A8 10724 ATXT111  EQU   *                                                        73563021
 0079A8 48184E                     10725          DC    X'48184E'               *  LR  4,14                      73570021
 0079AB 4818D0                     10726          DC    X'4818D0'               *  LR  13,0                      73577021
 0079AE 4841F07000FF               10727          DC    X'4841F07000FF'         *  LA  15,X'FF'                  73584021
 0079B4 4889F0700018               10728          DC    X'4889F0700018'         *  SLL  15,24                    73591021
 0079BA 480A44                     10729          DC    X'480A44'               *  SVC  68                       73598021
                             079BD 10730 ZTXT111  EQU   *                                                        73605021
                             079BD 10731 ATXT112  EQU   *                                                        73612021
 0079BD 4818F5                     10732          DC    X'4818F5'               *  LR  15,5                      73619021
                             079C0 10733 ATXT112A EQU   *                                                        73626021
 0079C0 4818E4                     10734          DC    X'4818E4'               *  LR  14,4                      73633021
 0079C3 48982570D138               10735          DC    X'48982570D138'         LM   2,5,312(13)           44674 73640021
 0079C9 4807FE                     10736          DC    X'4807FE'               *  BCR  15,14                    73647021
                             079CC 10737 ZTXT112  EQU   *                                                        73654021
                             079CC 10738 ATXT113 EQU  *                                                          73661021
 0079CC 48902464200001             10739          DC    X'48902464200001'       *  STM  2,4,96(13) WORKING CLLS  73668021
                             079D3 10740 ZTXT113 EQU  *                                                          73675021
1         IKFCBL51: CONSTANT A-TEXT C O N S T A N T                                                             PAGE  232
-  LOC  OBJECT CODE    ADDR1 ADDR2  STMT   SOURCE STATEMENT                                       ASM 0201 11.03 02/14/15
0                            079D3 10741 ATXT116A  EQU  *                                                        73682021
 0079D3 48D20370104C7010           10742          DC    X'48D20370104C70105C' MVC 76(4,1)92(1) R1=DCB            73689021
 0079DC 48D20370300C7010           10743          DC    X'48D20370300C701064' MVC 12(4,3),100(1) R3=DECB         73696021
                             079E5 10744 ZTXT116A EQU  *                                                         73703021
                             079E5 10745 ATXT117A  EQU  *                                                        73710021
 0079E5 48584070105C               10746          DC    X'48584070105C'         L R4,92(R1) R1=DCB               73717021
 0079EB 484140704012               10747          DC    X'484140704012'         LA R4,18(R4)                     73724021
 0079F1 48504070300C               10748          DC    X'48504070300C'         ST R4,12(R3) R3=DECB             73731021
                             079F7 10749 ZTXT117A  EQU  *                                                        73738021
                             079F7 10750 ATXT118  EQU   *                                                        73745021
                                   10751 *DEL                                                               4350 73752021
 0079F7 4428A00F                   10752          DC    XL4'4428A00F'       * RESERVE 15                         73759021
 0079FB 4858F0701030               10753          DC    X'4858F0701030'         X   L  15,48(1)                  73766021
 007A01 484400701062               10754          DC    X'484400701062'         *   EX  0,98(1)                  73773021
 007A07 442CA00F                   10755          DC    XL4'442CA00F'       * FREE 15                            73780021
                             07A0B 10756 ZTXT118  EQU   *                                                        73787021
                             07A0B 10757 ATXT114 EQU  *                                                          73794021
 007A0B 48982464200001             10758          DC    X'48982464200001'       *  LM  2,4,96(13) WKNG CELLS     73801021
                             07A12 10759 ZTXT114 EQU  *                                                          73808021
                             07A12 10760 ATXT116 EQU  *                                                          73815021
 007A12 48581070104C               10761        DC    X'48581070104C'           *   L  1,76(1)                   73822021
                             07A18 10762 ZTXT116 EQU  *                                                          73829021
                             07A18 10763 ATXT117 EQU  *                                                          73836021
 007A18 4858307010E44858           10764        DC    X'4858307010E4485810703070'    *   L  3,228(1)             73843021
                                   10765 *                                           *   L  1,112(3)             73850021
                             07A24 10766 ZTXT117 EQU  *                                                          73857021
                             07A24 10767 ATXT119  EQU   *                                                        73864021
 007A24 481B11                     10768          DC    X'481B11'                SR   1,1                        73871021
                             07A27 10769 ZTXT119  EQU   *                                                        73878021
 007A27 00
 007A28 000089DD                   10770 ARPPTM DC    A(RPPATM)                                                  73885021
                                   10771 *                                                                       73892021
                                   10772 ***                                                                     73899021
                                   10773 ***      PATCH AREA FOR CONSTANT ATEXT                                  73906021
                                   10774 ***      MUST BE KEPT AT END OF TEXT AREA                               73913021
                                   10775 ***                                                                     73920021
 007A2C 4040404040404040           10776 CTXTPTCH DC    CL50' '             PATCH AREA                           73927021
                                   10777 *        CONSTANTS FOR SPECIAL REPORT WRITER VERBS                      73934021
0
                                   10779 *                                                                       73948021
 007A5E                            10780        DS    0H                                                         73955021
 007A5E 004F                       10781 SXC04F DC    X'004F'                                                    73962021
 007A60 0055                       10782 SXC055 DC    X'0055'                                                    73969021
 007A62 4438                       10783 RPTMOG DC    X'4438'               REPORT MACRO ORIGIN                  73976021
 007A64 443C                       10784 RPTMRG DC    X'443C'               REPORT MACRO RE-ORIGIN               73983021
 007A66 48502064440007             10785        DC    X'48502064440007'     * ST  2,RPTSAV=7                     73990021
 007A6D 75F0                       10786 RPWZER DC    X'75F0'               FIGCON ZERO                          73997021
                                   10787 *                                                                       74004021
 007A6F 44504C                     10788 DUMPNDEF DC    XL3'44504C'             DUMMY PN CODE FOR XREF           74011021
1         IKFCBL51: CONSTANT A-TEXT C O N S T A N T                                                             PAGE  233
-  LOC  OBJECT CODE    ADDR1 ADDR2  STMT   SOURCE STATEMENT                                       ASM 0201 11.03 02/14/15
0                                  10790 *                                                                       74025021
                                   10791 *                                                                       74032021
                                   10792 *      TABLES FOR ALPHANUMERIC IF                                       74039021
                                   10793 *                                                                       74046021
                                   10794 *            TABLE FORMAT IS AS FOLLOWS                                 74053021
                                   10795 *             WORD 0                                                    74060021
                                   10796 *                   BYTE 0                                              74067021
                                   10797 *                             BIT 1 IS 1 IF EXTRA LENGTH AFFECTS CO     74074021
                                   10798 *                             BITS 4-7 IS CODE INDICATING RELATIONA     74081021
                                   10799 *                                       1 FOR EQ                        74088021
                                   10800 *                                       2 FOR NOT EQ                    74095021
                                   10801 *                                       3 FOR LT                        74102021
                                   10802 *                                       4 FOR NOT LT                    74109021
                                   10803 *                                       5 FOR GT                        74116021
                                   10804 *                                       6 FOR NOT GT                    74123021
                                   10805 *                   BYTES 1-3  CONTAINS ADDR OF TABLE FOR OPPOSITE      74130021
                                   10806 *                   BYTES 1-3  CONTAIN ADDR OF TABLE FOR OPPOSITE       74137021
                                   10807 *                              RELATIONAL                               74144021
                                   10808 *                                                                       74151021
                                   10809 *             WORDS 1-2  INDICATE BRANCHES TO BE GENERATE FOLLOWING     74158021
                                   10810 *                        COMPARISON. THE FIRST WORD IS USED IF          74165021
                                   10811 *                        COMPARE WAS NOT FOR TRAILING SPACES. THE       74172021
                                   10812 *                        SECOND WORD IS USED IF THE COMPARE WAS FOR     74179021
                                   10813 *                        TRAILING SPACES. WITHIN EACH WORD THE FIRS     74186021
                                   10814 *                        HALF-WORD IS USED IF THERE ARE MORE COMPAR     74193021
                                   10815 *                        TO BE GENERATED (IE, THE AREA BEING COMPAR     74200021
                                   10816 *                        IS GT 256 BYTES AND THE COMPARE JUST GENER     74207021
                                   10817 *                        DOES NOT COMPARE THE LAST PART OF THE AREA     74214021
                                   10818 *                        WITHIN EACH HALF-WORD THE VALUES ARE USED      74221021
                                   10819 *                        FOLLOWS                                        74228021
                                   10820 *                   BYTE 0  IS THE COND CODE TO BE USED IN THE BRAN     74235021
                                   10821 *                           TO THE GN CREATED BY PH5. IF IT IS ZERO     74242021
                                   10822 *                           THE BRANCH IS NOT GENERATED.                74249021
                                   10823 *                   BYTE 1  IS THE COND CODE TO BE USED IN THE BRAN     74256021
                                   10824 *                           TO THE GN WHICH PH4 PASSED TO PH5 IN TH     74263021
                                   10825 *                           VERB STRING. IF IT IS ZERO NO BRANCH IS     74270021
                                   10826 *                           GENERATED.                                  74277021
 007A74                            10827        DS    0F                                                         74284021
 007A74 41                         10828 IFEQT  DC    X'41'                                                      74291021
 007A75 007A74                     10829        DC    AL3(IFEQT)                                                 74298021
 007A78 0007                       10830        DC    X'0007'                                                    74305021
 007A7A 0800                       10831        DC    X'0800'                                                    74312021
 007A7C 0007                       10832        DC    X'0007'                                                    74319021
 007A7E 0800                       10833        DC    X'0800'                                                    74326021
 007A80 42                         10834 IFNEQT DC    X'42'                                                      74333021
 007A81 007A80                     10835        DC    AL3(IFNEQT)                                                74340021
 007A84 0700                       10836        DC    X'0700'                                                    74347021
 007A86 0700                       10837        DC    X'0700'                                                    74354021
 007A88 0700                       10838        DC    X'0700'                                                    74361021
 007A8A 0700                       10839        DC    X'0700'                                                    74368021
 007A8C 43                         10840 IFNLTT DC    X'43'                                                      74375021
 007A8D 007AA4                     10841        DC    AL3(IFNGTT)                                                74382021
 007A90 0204                       10842        DC    X'0204'                                                    74389021
 007A92 0B00                       10843        DC    X'0B00'                                                    74396021
 007A94 0402                       10844        DC    X'0402'                                                    74403021
1         IKFCBL51: CONSTANT A-TEXT C O N S T A N T                                                             PAGE  234
-  LOC  OBJECT CODE    ADDR1 ADDR2  STMT   SOURCE STATEMENT                                       ASM 0201 11.03 02/14/15
0007A96 0D00                       10845        DC    X'0D00'                                                    74410021
 007A98 44                         10846 IFGTT  DC    X'44'                                                      74417021
 007A99 007AB0                     10847        DC    AL3(IFLTT)                                                 74424021
 007A9C 0204                       10848        DC    X'0204'                                                    74431021
 007A9E 0200                       10849        DC    X'0200'                                                    74438021
 007AA0 0402                       10850        DC    X'0402'                                                    74445021
 007AA2 0400                       10851        DC    X'0400'                                                    74452021
 007AA4 45                         10852 IFNGTT DC    X'45'                                                      74459021
 007AA5 007A8C                     10853        DC    AL3(IFNLTT)                                                74466021
 007AA8 0402                       10854        DC    X'0402'                                                    74473021
 007AAA 0D00                       10855        DC    X'0D00'                                                    74480021
 007AAC 0204                       10856        DC    X'0204'                                                    74487021
 007AAE 0B00                       10857        DC    X'0B00'                                                    74494021
 007AB0 46                         10858 IFLTT  DC    X'46'                                                      74501021
 007AB1 007A98                     10859        DC    AL3(IFGTT)                                                 74508021
 007AB4 0402                       10860        DC    X'0402'                                                    74515021
 007AB6 0400                       10861        DC    X'0400'                                                    74522021
 007AB8 0204                       10862        DC    X'0204'                                                    74529021
 007ABA 0200                       10863        DC    X'0200'                                                    74536021
1         PHASE INITIALIZATION ROUTINE                                                                          PAGE  235
-  LOC  OBJECT CODE    ADDR1 ADDR2  STMT   SOURCE STATEMENT                                       ASM 0201 11.03 02/14/15
0                                  10865 *                                                                       74550021
                                   10866 *                         PHASE INITIALIZATION                          74557021
                                   10867 *                                                                       74564021
 007ABC                            10868 PH51     DS    0H                                                       74571021
                             07ABC 10869 PHASE51  EQU   *                                                        74578021
                             07ABC 10870 IKFCBL51 EQU   PH51                                                     74585021
 007ABC 90EC D00C      0000C       10871          STM   R14,R12,DX12(R13)    SAVE REG'S IN PHO SAVE AREA         74592021
 007AC0 0560                       10872          BALR  RW6,RW0            PICK UP LOCA-CTR INTO REG6            74599021
                             07AC2 10873        USING *,RW6                                                      74606021
 007AC2 182D                       10874          LR    RW2,R13                                                  74613021
 007AC4 58D0 60CA      07B8C       10875          L     R13,PHAS5X SET UP REG 13 AS BASE FOR PH5SAV              74620021
 007AC8 50ED 000C      0000C       10876          ST    R14,DX12(R13) SAVE SYSTEM RETURN ADR IN PHASE SV AREA    74627021
 007ACC 502D 0004      00004       10877          ST    RW2,DX4(R13) PUT PTR TO PH0 SV AREA IN PHASE SV AREA     74634021
 007AD0 50D2 0008      00008       10878          ST    R13,DX8(RW2) PUT PTR TO PHASE SV AREA IN PH0 SV AREA     74641021
 007AD4 5870 60BA      07B7C       10879          L     XRBAS1,ACOMN1                                            74648021
 007AD8 98BD 60BE      07B80       10880        LM      GBRG1,XRDATA,ACOMN3                                      74655021
 007ADC 1831                       10881        LR    RW3,RW1                                                    74662021
 007ADE 5811 0000      00000       10882          L     RW1,DX0(RW1)                                             74669021
 007AE2 5010 C190      06FC0       10883        ST    RW1,COSADR                                                 74676021
 007AE6 5813 001C      0001C       10884        L     RW1,SEGSAV(RW3)      SAVE ADDR OF AREA IN PH0 WHICH        74683021
 007AEA 5010 D0B8      07C50       10885        ST    RW1,ADSEGSV          WILL HAVE DISKADR FOR SEGTBL          74690021
 007AEE 58A0 C190      06FC0       10886        L     XRBAS2,COSADR                                              74697021
 007AF2 5810 60BA      07B7C       10887        L     RW1,ACOMN1                                                 74704021
 007AF6 050A                       10888          BALR  RW0,XRBAS2         PERFORM PH0                           74711021
 007AF8 06                         10889        DC    X'06'                                                      74718021
                                   10890 *DEL                                                               5189 74725021
                                   10891 *DEL                                                               5189 74732021
                                   10892 *  PRIME TABLES USED BY PHASE5                                          74739021
 007AF9 00
 007AFA 5810 C190      06FC0       10893          L     RW1,COSADR          'RELOCATE' TIB ADDRESS               74746021
 007AFE 5820 60CE      07B90       10894          L     RW2,ARNTBL              FOR RUNTBL.                      74753021
 007B02 1A21                       10895          AR    RW2,RW1                                                  74760021
 007B04 5020 60CE      07B90       10896          ST    RW2,ARNTBL                                               74767021
 007B08 5820 60D2      07B94       10897          L     RW2,AUSETBL         RELOCATE TIB                   43521 74774021
 007B0C 1A21                       10898          AR    RW2,RW1                  ADDRESS FOR               43521 74781021
 007B0E 5020 60D2      07B94       10899          ST    RW2,AUSETBL                   USETBL               43521 74788021
 007B12 4110 C740      07570       10900          LA    RW1,GNCALPRM                                       37330 74795021
 007B16 58F0 A12C      0012C       10901          L     XRVAR,XPRIM                                        37330 74802021
 007B1A 05EF                       10902          BALR  RETRG,XRVAR               PRIME GNCALTBL            7330 74809021
 007B1C 95FF A1D0      001D0       10903          CLI   SEGLMT,XXFF          IS PROGRAM SEGMENTED                74816021
 007B20 4780 606C      07B2E       10904          BC    R8,HSKLP1            NO,BRANCH                           74823021
 007B24 4110 C738      07568       10905        LA    RW1,SEGPRM            YES,GET PARLIST ADDRESS              74830021
 007B28 58F0 A12C      0012C       10906        L     XRVAR,XPRIM                                                74837021
 007B2C 05EF                       10907        BALR  RETRG,XRVAR           PRIME SEGTBL                         74844021
                             07B2E 10908 HSKLP1 EQU   *                                                          74851021
 007B2E 4830 A15C      0015C       10909        LH    RW3,PNCTR        CALC NUM BYTES REQUIRED FOR TABLE         74858021
 007B32 1B22                       10910        SR    RW2,RW2            = BYTES CALCULATED AS NUMBER OF WOR     74865021
 007B34 5D20 D3F4      07F8C       10911        D     RW2,PNU32          PLUS 1 TIMES 4 TO INSURE MULTIPLE O     74872021
 007B38 4133 0001      00001       10912          LA    RW3,DX1(RW3)      4                                      74879021
 007B3C 1843                       10913        LR    RW4,RW3          PUT = WORDS IN RW3                        74886021
 007B3E 8930 0002      00002       10914          SLL   RW3,DX2                                                  74893021
 007B42 4030 C734      07564       10915          STH   RW3,PNUPRM+NX4  SAVE AS PRIME FACTOR                     74900021
 007B46 4110 C730      07560       10916        LA    RW1,PNUPRM         PRIME                                   74907021
 007B4A 58F0 A12C      0012C       10917        L     XRVAR,XPRIM                                                74914021
 007B4E 05EF                       10918          BALR  RETRG,XRVAR        PERFORM SUB PRIM IN PH0               74921021
1         PHASE INITIALIZATION ROUTINE                                                                          PAGE  236
-  LOC  OBJECT CODE    ADDR1 ADDR2  STMT   SOURCE STATEMENT                                       ASM 0201 11.03 02/14/15
0                                  10919 *                        LOOP TO INSURE ENTIRE TABLE SET TO ZERO        74928021
 007B50 5810 C730      07560       10920 HSKLP  L     RW1,PNUTBA         INSERT                                  74935021
 007B54 58F0 A130      00130       10921        L     XRVAR,XINST                                                74942021
 007B58 05EF                       10922          BALR  RETRG,XRVAR        PERFORM SUB PRIM IN PH0               74949021
 007B5A D703 2000 2000 00000 00000 10923          XC    DX0(LX4,RW2),DX0(RW2) SET ENTRY TO ZERO                  74956021
 007B60 4640 608E      07B50       10924        BCT   RW4,HSKLP        LOOP  TO ZERO EACH ENTRY                  74963021
                                   10925 *DEL                                                               5189 74970021
                                   10926 *DEL                                                               5189 74977021
 007B64 4130 DD4C      088E4       10927        LA    RW3,ELEMTB      SET REG  EQ TO BASE OF OUTPUT AREA         74984021
 007B68 9203 A166      00166       10928          MVI   WCMAX,XX03                                               74991021
 007B6C 5810 C190      06FC0       10929        L     RW1,COSADR                                                 74998021
 007B70 0501                       10930          BALR  RW0,RW1            PERFORM PHASE 0 TO READ               75005021
 007B72 02                         10931        DC    X'02'                READ P-2 TEXT FROM FILE 2             75012021
 007B73 00
 007B74 5000 D0B0      07C48       10932        ST    RW0,PNTIN                                                  75019021
 007B78 47F0 700A      0000A       10933          B     PH5CTL             RETURN TO PHASE 5 CONTROL             75026021
-

 007B7C 00000000                   10935 ACOMN1 DC      A(COMON1)           BEGIN OF FIRST CSECT                 75040021
 007B80 00000E78                   10936 ACOMN3 DC      A(COMON3)           BEGIN OF THIRD CSECT                 75047021
 007B84 00006E30                   10937        DC      A(COMON4)           BEG OF CONSTANTS CSECT               75054021
 007B88 00007B98                   10938        DC      A(COMON5)           BEG OF DATA AREA CSECT               75061021
 007B8C 00007B98                   10939 PHAS5X DC      A(PH5SAV)           BEG OF DATA AREA CSECT               75068021
 007B90 00000124                   10940 ARNTBL   DC    A(RUNTBL)                                                75075021
 007B94 000000DC                   10941 AUSETBL  DC    A(USETBL)                                          43521 75082021
1         A-TEXT GENERATOR AND ARITHMETIC CONSTANTS                                                             PAGE  237
-  LOC  OBJECT CODE    ADDR1 ADDR2  STMT   SOURCE STATEMENT                                       ASM 0201 11.03 02/14/15
0007B98                            10943        DS    0F                                                         75096021
 007B98                            10944 IKF505 CSECT                                                            75103021
                             07B98 10945 COMON5 EQU     *                                                        75110021
                             07B98 10946        USING *,XRDATA                                                   75117021
                                   10947 ******************************   DATA  AREA *********************       75124021
                                   10948 *=1  DATA AREA.                                                         75131021
 007B98                            10949 PH5SAV DS    18F                   USED BY PHASE0 TO SAVE PH5 REGS      75138021
 007BE0                            10950 ZAPZAP2 DS   25F      ************ USE FOR SUPERZAP ************        75145021
1         A-TEXT GENERATOR AND ARITHMETIC CONSTANTS                                                             PAGE  238
-  LOC  OBJECT CODE    ADDR1 ADDR2  STMT   SOURCE STATEMENT                                       ASM 0201 11.03 02/14/15
0007C44                            10952        DS      0H                                                       75159021
 007C44 0000                       10953 BYTCNT DC    XL2'0'           BYTE COUNT OF CURRENT ENTITY              75166021
                             001EE 10954 CARDNO   EQU CURCRD               CURRENT CARD NUMBER                   75173021
 007C46 0000
 007C48 00000000                   10955 PNTIN  DC    A(0)                  PTR TO NXT ELEM OF P2 TEXT           75180021
 007C4C 0000                       10956 BYTES  DC    XL2'0'                LNGTH OF CURRENT ELEM                75187021
 007C4E 00                         10957 GANLNO DC    X'00'                 CODE OF VERB BEING PROCESSED         75194021
 007C4F 00                         10958 DECLSW   DC    XL1'00'             USED IN DELCARATIVES           43113 75201021
                             00001 10959 INDCL    EQU   X'01'               INDICATES WITHIN DECLARATIVE   43113 75208021

 007C50 00000000                   10961 ADSEGSV  DC  A(0)                 ADDR OF AREA IN PH0 WHICH WILL        75222021
                                   10962 *                                 WILL CONTAIN RESULT OF 'NOTE'         75229021
 007C54 00                         10963 SEGSW  DC    X'0'                 ******************************        75236021
 007C55 00                         10964 STRTSW   DC    X'00'               INDICATOR FOR START MACRO       7898 75243021
                             00080 10965 HIORDON  EQU   X'80'              SWITCH FOR HIGH-ORDER BYTE       7898 75250021
 007C56 4420                       10966 STRTCN DC    X'4420'               PROC-A TXT=START                     75257021
                             00040 10967 BETWPDSD EQU   X'40'                                              7898  75264021
                             00020 10968 BETWRWPD EQU   X'20'                                              7898  75271021
 007C58                            10969 STRTSAVE DS    3F                                                 7898  75278021
 007C64 0006                       10970 H6       DC    H'6'                                               7898  75285021
                                   10971 *******************************************************************     75292021
                                   10972 *       RESERVE  STORAGE  AREAS                                         75299021
 007C66 0000                       10973 AXTLENG  DC    H'0'                LGTH ALL KEYS IN SEARCH ALL          75306021
 007C68 0000                       10974 AXTKEYN  DC    H'0'                NUMB OF KEYS IN SEARCH ALL           75313021
 007C6A 0000                       10975 AXTCKEY  DC    H'0'                                                     75320021
 007C6C 0000                       10976 AXTDISP  DC    H'0'                                                     75327021
 007C6E 64300000                   10977 AXTC01   DC    X'64300000'         PROC-A CODE FOR TEMPSTOR 2           75334021
 007C72 64240000                   10978 AXTC02   DC    X'64240000'         PROC-A CODE FOR TEMP STORAGE         75341021
 007C78                            10979          DS    0F                                                       75348021
 007C78                            10980 HEADER DS    1F                    HOLDS VERB STRING HEADER             75355021
 007C7C                            10981 CONSTS DS    F                                                          75362021
 007C80                            10982 GSVR1  DS    F                    ERRPRO SAVES R3 HERE                  75369021
 007C84                            10983        DS    1C                   ***** KEEP WITH GSVR1*******          75376021
 007C88                            10984 GSVRG  DS    16F                                                        75383021
 007CC8                            10985 GCOSAV DS    6F                                                         75390021
                                   10986 * PARAMETERS USED AS INPUT TO THE A-TEXT GENERATOR                      75397021
                                   10987 *                                                                       75404021
 007CE0 00000000                   10988 OP1    DC    F'0'                  FIRST DATA OPERAND                   75411021
 007CE4 00000000                   10989 OP2    DC    F'0'                  SECOND DATA OPERAND                  75418021
 007CE8 00007D87                   10990 OP3    DC    A(GADPAR)             ADDR OF OUTPUT AREA                  75425021
 007CF0                            10991        DS    0D                                                         75432021
 007CF0 0000                       10992 XL1    DC    H'0'                  LENGTH IN INSTR WHICH REQUIRE        75439021
                                   10993 * A-TXT GEN WILL SUBTRACT 1 FROM THIS LENGTH FOR YOU                    75446021
 007CF2 000000                     10994 XWC1   DC    XL3'0'                TEMP STORAGE REFERENCE               75453021
 007CF5 00                         10995 TALLY1 DC    X'00'                 TALLY REF                            75460021
 007CF6 0000                       10996 BDISP1 DC    XL2'0'                BASE AND DISPL                       75467021
 007CF8 00000000                   10997 RELAD1 DC    F'0'                  RELATIVE ADDR                        75474021
 007CFC 00000000                   10998 VIRTC1 DC    F'0'                  VIRTUAL ID NUMBER                    75481021
 007D00 0000000000000000           10999 GVIRT1 DC    2F'0'                 VIRTUAL NAME IN BCD                  75488021
 007D08 0000000000000000           11000 XCON1  DC    XL14'0'               LITERALS AND                         75495021
 007D16 000000                     11001        DC    XL3'0'                DC'S                                 75502021
 007D19 00
 007D1A 0000                       11002 XGN1   DC    H'0'                  GN REF                               75509021
 007D1C 00000000                   11003 XPN1     DC    F'0'                     HOLDS PN PRIORITY AND NUMBE     75516021
 007D20 000000                     11004 XCNTR1 DC    XL3'0'                GLOBAL TBL-VARIABLE PORTION          75523021
1         A-TEXT GENERATOR AND ARITHMETIC CONSTANTS                                                             PAGE  239
-  LOC  OBJECT CODE    ADDR1 ADDR2  STMT   SOURCE STATEMENT                                       ASM 0201 11.03 02/14/15
0007D23 000000                     11005 PLUS1  DC    XL3'0'                ADDRESS INCREMENT                    75530021
 007D26 0000
 007D28 00000000                   11006 XVN1   DC    F'0'                  VN REF                               75537021
 007D2C 0000                       11007 GDEBG1 DC    XL2'0'                GLOBAL TBL-FIXED PORTION             75544021
 007D2E 0000                       11008 BLREF1 DC    XL2'0'                BASE LOCATOR                         75551021
 007D30 00                         11009 XREG1  DC    XL1'0'                REGISTER NUMBER                      75558021
 007D31 00                         11010 IMM    DC    X'00'                 'IMMEDIATE' FLD IN INSTR             75565021
 007D32 00                         11011 XXREG  DC    X'00'                 INDEX REG                            75572021
 007D38                            11012        DS    0D                                                         75579021
 007D38 0000                       11013 XL2    DC    H'0'                  SAME                                 75586021
 007D3A 000000                     11014 XWC2   DC    XL3'0'                 AS                                  75593021
 007D3D 00                         11015 TALLY2 DC    X'00'                   XL1                                75600021
 007D3E 0000                       11016 BDISP2 DC    XL2'0'                   THRU                              75607021
 007D40 00000000                   11017 RELAD2 DC    F'0'                      XREG1                            75614021
 007D44 00000000                   11018 VIRTC2 DC    F'0'                       BUT                             75621021
 007D48 0000000000000000           11019 GVIRT2 DC    2F'0'                       FOR                            75628021
 007D50 0000000000000000           11020 XCON2  DC    XL14'0'                      SECOND                        75635021
 007D5E 000000                     11021        DC    XL3'0'                        OPERAND                      75642021
 007D61 00
 007D62 0000                       11022 XGN2   DC    H'0'                  X                                    75649021
 007D64 00000000                   11023 XPN2   DC    F'0'                  X                                    75656021
 007D68 000000                     11024 XCNTR2 DC    XL3'0'                X                                    75663021
 007D6B 000000                     11025 PLUS2  DC    XL3'0'                X                                    75670021
 007D6E 0000
 007D70 00000000                   11026 XVN2   DC    F'0'                  X                                    75677021
 007D74 0000                       11027 GDEBG2 DC    XL2'0'                X                                    75684021
 007D76 0000                       11028 BLREF2 DC    XL2'0'                X                                    75691021
 007D78 00                         11029 XREG2  DC    X'00'                 X                                    75698021
 007D79 000000
 007D7C 00000000                   11030 GFLWD  DC    F'0'            FOR INTERMEDIATE RESULTS                   75705021
 007D80 00                         11031 GBIT1  DC    X'00'   THE BITS OF GBIT1 HAVE THE FOLLOWING MEANING       75712021
                                   11032 *   BIT0 HALFWORD TEST WANTED                                           75719021
                                   11033 *   BIT1 SS TYPE INSTR   (2ADDRESSES WANTED)                            75726021
                                   11034 *   BIT2 BINARY INSTR  (IF NUMLIT CONVERT TO BINARY)                    75733021
                                   11035 *   BIT3 DOUBLE FLOATING POINT INSTR                                    75740021
                                   11036 *   BIT4 FLOATING POINT INSTR                                           75747021
                                   11037 *   BIT5 DECIMAL MODE WANTED                                            75754021
                                   11038 *   BIT7 ADDRESS 1 COMPLETED                                            75761021
 007D81 00                         11039 GBIT2  DC    X'00'           BIT 0 ON MEANS REL ADR                     75768021
                                   11040 *                            BIT1 ON MEANS MACRO                        75775021
                                   11041 *                            BIT 6 ON MEANS FULL WD ALIGNMENT           75782021
                                   11042 *                            BIT 7 ON MEANS DEFINITE HALFWD INSTR       75789021
 007D82 0005                       11043 COUNT  DC    H'5'  COUNT THRU GADPAR IS WHERE A TEXT FORMS OUTPUT       75796021
 007D84 48                         11044        DC    X'48'  OPCODE                                              75803021
 007D85                            11045 OPCOD  DS    CL1                                                        75810021
 007D86 00                         11046 GABS   DC    X'00'                                                      75817021
 007D87                            11047 GADPAR DS    CL256                                                      75824021
 007E87 00
 007E88 00000000                   11048 GLTSAV DC    F'0'                                                       75831021
 007E8C 0000                       11049 GHFWD  DC    H'0'            FOR INTERMEDIATE RESULTS                   75838021
 007E8E 5463                       11050 MSKMORLB DC    X'5463'                  COBOL WORD 'MORE-LABELS'        75845021
 007E90 1810                       11051 PUTIOSRA DC    X'1810'                 * LR 1,0                         75852021
 007E92 45E0F004                   11052 PUTIOCN  DC    X'45E0F004'             *  BAL  14,4(15)                 75859021
 007E96 05EF                       11053 PUTOUTCN DC    X'05EF'                 *  BALR  14,15                   75866021
 007E98 0700                       11054          DC    X'0700'                 * BCR 0,0                        75873021
1         A-TEXT GENERATOR AND ARITHMETIC CONSTANTS                                                             PAGE  240
-  LOC  OBJECT CODE    ADDR1 ADDR2  STMT   SOURCE STATEMENT                                       ASM 0201 11.03 02/14/15
0007E9A 0005340000                 11055 GLGNCN DC    X'0005340000'                                              75880021
 007E9F 00004858F0000000           11056 GCNGBR DC    X'00004858F000000048000F'                                  75887021
 007EAA 00004858F0000000           11057 GCPNVNBR DC    X'00004858F00000000048070F' 'BCR' WITH PN OR VN REF      75894021
 007EB8                            11058 PNOUT  DS    F                                                          75901021
 007EBC                            11059 SCHOLD DS    F                    SAVE XRVERB FROM SEARCHAL             75908021
 007EC0                            11060 SCHLD2 DS    F                    SAVE R14 FROM SEARCHAL TO SSCRPT      75915021
 007EC4 000000                     11061 GNHOLD DC    XL3'0'                                                     75922021
 007EC7 320301001C                 11062 SCHLIT DC    X'320301001C'        P2 TXT FOR LIT=1                      75929021
 007ED0                            11063        DS    0D                                                         75936021
 007ED0 0000000000000000           11064 GTEMP  DC    XL8'0'          FOR CONVERSIONS                            75943021
 007ED8                            11065        DS    0F                                                         75950021
                             00040 11066 SYNCHRO  EQU   X'40'                                                    75957021
 007ED8                            11067 AXTE00   DS    1F                                                       75964021
 007EDC 64540001                   11068 AXTC00   DC    X'64540001'         PROC-A TXT FOR TEMP STOR 3 #1        75971021
                             00020 11069 AXSTORE  EQU   X'20'                                                    75978021
                             00010 11070 AXSTMLM  EQU   X'10'                                                    75985021
                             00010 11071 DFPXXX   EQU   X'10'                                                    75992021
                             00008 11072 SFPXXX   EQU   X'08'                                                    75999021
 007EE0                            11073          DS    0F                                                       76006021
 007EE0                            11074 OTPT   DS    24F                   ATXT GEN OUTPUT AREA                 76013021
                                   11075 *=1  DATA AREA FOR ARITHMETIC.                                          76020021
 007F40                            11076 WRITES DS    F                                                          76027021
 007F44                            11077        DS    0H                                                         76034021
 007F44                            11078 PUTSAV DS    6F                    REG SAVER                            76041021
 007F5C 0001                       11079 PUTH1  DC    H'1'                                                       76048021
 007F5E 0000                       11080 GNCNT  DC    H'0'                  NO. GN'S IN EQUATE STRING TBL        76055021
 007F60                            11081        DS    0F                                                         76062021
 007F60 0000                       11082        DC    H'0'                  HOLDS CODE FOR EQUATE STRINGS        76069021
 007F64                            11083 GNLIST DS    6F                    PN GN EQUATE STRINGS BUILT HERE      76076021
 007F7C                            11084 GETSAV DS    F                                                          76083021
 007F80                            11085 PNUSAV DS    3F                                                         76090021
 007F8C 00000020                   11086 PNU32  DC    F'32'                                                      76097021
 007F90 80000000                   11087 PNUX80 DC    X'80000000'           USED BY PNUSED ROUTINE               76104021
 007F94 0400                       11088 SBLOP    DC    X'0400'             USED FOR MORE THAN ONE SBL      4758 76111021
                                   11089 *                       CONSTANTS FOR TRANSFORM                         76118021
 007F98                            11090        DS    0F                                                         76125021
 007F98 C9D3C2D6E3D9D5F0           11091 TRNAM DC     C'ILBOTRN0'          TRANSFORM TBL VIRTUAL NAME            76132021
 007FA0 E5E3D9F0                   11092 TRVLNM DC    C'VTR0'              VL TRANSFORM VIRTUAL NAME             76139021
 007FA4 0000                       11093 TRINC4 DC    H'0'                                                       76146021
 007FA6 0000                       11094 TRLNG3 DC    H'0'                                                       76153021
                                   11095 *                        CONSTANTS FOR IF CLASS TEST                    76160021
 007FA8 C3D3E2F0                   11096 CLVLNM DC    C'CLS0'              VL CLASS TEST VIRTUAL NAME            76167021
 007FAC C108                       11097 CLATB  DC    X'C108'               CLASS TEST SR NAME & BRANCH CDE      76174021
 007FAE C107                       11098 CLNATB DC    X'C107'               CLASS TEST SR NAME & BRANCH CDE      76181021
 007FB0 C5                         11099 NORNNT   DC    X'C5'               CLASS TEST SR NAME & BRANCH CDE      76188021
 007FB1 00                         11100 CLCOND DC    X'0'     ********MUST FOLLOW NORNNT ****************       76195021
 007FB2 3008                       11101 CLBDSP   DC    X'3008'                                                  76202021
 007FB4 C9D3C2D640E3C2F0           11102 CLTBNM DC    C'ILBO TB0'           VIRTUAL= CLASS TEST TBL              76209021
 007FBC 0104                       11103 CLCNF1 DC    X'0104'                                                    76216021
                                   11104 *                        CONSTANTS FOR ALPHAN IF AND MOVE               76223021
 007FBE 0000
 007FC0 000024AE                   11105 IMADCN DC    A(IMGEN+2)                                                 76230021
 007FC4                            11106 IMCONS DS    0F                                                         76237021
 007FC4 E5D3E7E7                   11107 IMOTS  DC    CL4'VLXX'             14 BYTES OVERLAID FOR IF AND MOV     76244021
 007FC8 00000000                   11108 IMIRTN DC    A(0)                                                       76251021
1         A-TEXT GENERATOR AND ARITHMETIC CONSTANTS                                                             PAGE  241
-  LOC  OBJECT CODE    ADDR1 ADDR2  STMT   SOURCE STATEMENT                                       ASM 0201 11.03 02/14/15
0007FCC 00000000                   11109        DC    A(0)                                                       76258021
                             07FC5 11110 IMVRBC EQU   IMOTS+1                                                    76265021
 007FD0 E000                       11111 IMBDSP DC    X'E000'                                                    76272021
 007FD4                            11112 MVCONS DS    0F                                                         76279021
 007FD4 E5D4D6F0                   11113        DC    C'VMO0'              VL MOVE       VIRTUAL NAME            76286021
 007FD8 00001004                   11114        DC    A(MVC)                                                     76293021
 007FDC 00001934                   11115        DC    A(MVI)                                                     76300021
 007FE0 E01E                       11116        DC    X'E01E'                                                    76307021
                                   11117 *                                                                       76314021
 007FE4                            11118 IFCONS DS    0F                                                         76321021
 007FE4 E5C3D6F0                   11119        DC    C'VCO0'              VL COMPARE    VIRTUAL NAME            76328021
 007FE8 00000FD0                   11120        DC    A(CLC)                                                     76335021
 007FEC 0000193C                   11121        DC    A(CLI)                                                     76342021
 007FF0 E024                       11122        DC    X'E024'                                                    76349021
                                   11123 *                                                                       76356021
 007FF4                            11124 IMAREA DS    0F                    USED                                 76363021
 007FF4                            11125 IMLCH  DS    F                      BY                                  76370021
 007FF8                            11126 IMICH1 DS    F                        ALPHA                             76377021
 007FFC                            11127 IMICH2 DS    F                        IF                                76384021
 008000                            11128 IMLFC  DS    F                         AND                              76391021
 008004                            11129 IMIFC1 DS    F                          MOVE                            76398021
 008008                            11130 IMIFC2 DS    F                           COMMON                         76405021
 00800C                            11131 IMIFSW DS    C                            ROUTINE                       76412021
                                   11132 *                                                                       76419021
 008010                            11133 IMPTR1 DS    F                     USED                                 76426021
 008014                            11134 IMPTR2 DS    F                      BY                                  76433021
 008018                            11135 IMPTR3 DS    F                       ALPHA                              76440021
 00801C                            11136 IMRTRN DS    2F                       IF                                76447021
 008024                            11137 IMSAVE DS    2F                        AND                              76454021
 00802C                            11138 IMWORK DS    25C                        MOVE                            76461021
 008048                            11139 IMLSAV DS    2F                          COMMON                         76468021
 008050                            11140 PLUSST  DS   F                            ROUTINE                       76475021
 008054 0004                       11141 H4     DC    H'4'                  HALF WORD = 4                        76482021
 008056 0100                       11142 H256   DC    H'256'                HALF WORD = 256                      76489021
 008058                            11143 IMCHAR DS    C                     TELLS IF VERB IS MOVE OR IF          76496021
                                   11144 *                        CONSTANTS FOR EXAMINE                          76503021
 008059 00
 00805A 0000                       11145 EXDSP1 DC    H'0'                                                       76510021
 00805C 0000                       11146 EXDSP2 DC    H'0'                                                       76517021
 00805E 0000                       11147 EXDSP3 DC    H'0'                                                       76524021
 008060 0000                       11148 EXDSP4 DC    H'0'                                                       76531021
 008062 0000                       11149 EXDSPX DC    H'0'                                                       76538021
 008064 3012                       11150 EX3012   DC    X'3012'                                                  76545021
 008066 00                         11151 EXCOND DC    X'00'                                                      76552021
 008067 00                         11152 EXCND2 DC    X'00'                                                      76559021
 008068                            11153 IMGSAV DS    F                     SAVE AREA FOR EXHIBIT                76566021
                                   11154 *                       CONSTANTS FOR GO                                76573021
 00806C                            11155        DS    0H                                                         76580021
 00806C                            11156        DS    C                                                          76587021
 00806D 480520                     11157 GOCON  DC    X'480520'        BALR 2,0            BALR 2,0              76594021
 008070 484720702000               11158 GOCON1 DC    X'484720702000'                      BC   HI,DISP(2)       76601021
 008076 488B10700001               11159          DC    X'488B10700001'          SLA  1,1                        76608021
 00807C 4847C0702000               11160 GOCON2   DC    X'4847C0702000'              BC 12,DISP(2)               76615021
 008082 484811702018               11161          DC    X'484811702018'              LH 1,24(1,2)                76622021
 008088 488910700002               11162          DC    X'488910700002'              SLL 1,2                     76629021
1         A-TEXT GENERATOR AND ARITHMETIC CONSTANTS                                                             PAGE  242
-  LOC  OBJECT CODE    ADDR1 ADDR2  STMT   SOURCE STATEMENT                                       ASM 0201 11.03 02/14/15
000808E 485811703000               11163        DC    X'485811703000'           L   1,0(1,3)                     76636021
 008094 4807F1                     11164        DC    X'4807F1'                 BCR 15,1                         76643021
                                   11165 *                       CONSTANTS FOR PERFORM                           76650021
 008097 485800640C0000             11166 PFMCON DC    X'485800640C0000'                    L    0,PFMCTL         76657021
 00809E 480600                     11167        DC    X'480600'                            BCTR 0,0              76664021
 0080A1 485000640C0000             11168 PFMCN1 DC    X'485000640C0000'                    ST   0,PFMCTL         76671021
 0080A8 481200                     11169        DC    X'481200'                            LTR  0,0              76678021
                                   11170 *                   CONSTANTS FOR  USE, ENDUSE                          76685021
                                   11171 *                                                                       76692021
 0080AB 4434                       11172 USCON3 DC    X'4434'              INIT MACRO-LOAD PERM REGS             76699021
                                   11173 *                                                                       76706021
                                   11174 *                                                                       76713021
0
                                   11176 *DEL                                                               5189 76727021
                                   11177 *DEL                                                               5189 76734021
                                   11178 *DEL                                                               5189 76741021
                                   11179 *DEL                                                               5189 76748021
                                   11180 *DEL                                                               5189 76755021
                                   11181 *DEL                                                               5189 76762021
                                   11182 *DEL                                                               5189 76769021
                                   11183 *DEL                                                               5189 76776021
                                   11184 *DEL                                                               5189 76783021
                                   11185 *DEL                                                               5189 76790021
                                   11186 *DEL                                                               5189 76797021
                                   11187 *DEL                                                               5189 76804021
                                   11188 *DEL                                                               5189 76811021
                                   11189 *DEL                                                               5189 76818021
                                   11190 *DEL                                                               5189 76825021
                                   11191 *DEL                                                               5189 76832021
                                   11192 *DEL                                                               5189 76839021
 0080B0                            11193        DS    0F                                                         76846021
                                   11194 *DEL                                                               5189 76853021
                                   11195 *DEL                                                               5189 76860021
 0080B0                            11196 XIDBY  DS    1H               OUTPUT OF XIDSZ ROUTINE (SIZES).          76867021
 0080B2                            11197 XBDBY  DS    1H                 -         -      -      -    .          76874021
 0080B4                            11198 XIDDN  DS    1H                 -         -      -       -   .          76881021
 0080B6                            11199 XOPVLC DS    1H              VARIABLE LENGHT CELL NUMBER.               76888021
 0080B8                            11200 XOPLGH DS    1F              FIXED LENGH VALUE.                         76895021
                                   11201 *DEL                                                               5189 76902021
                                   11202 *DEL                                                               5189 76909021
                                   11203 *DEL                                                               5189 76916021
                                   11204 *DEL                                                               5189 76923021
                                   11205 *DEL                                                               5189 76930021
                                   11206 *DEL                                                               5189 76937021
                                   11207 *DEL                                                               5189 76944021
                                   11208 *DEL                                                               5189 76951021
                                   11209 *DEL                                                               5189 76958021
                                   11210 *DEL                                                               5189 76965021
                                   11211 *DEL                                                               5189 76972021
                                   11212 *DEL                                                               5189 76979021
                                   11213 *DEL                                                               5189 76986021
                                   11214 *DEL                                                               5189 76993021
                                   11215 *DEL                                                               5189 77000021
                                   11216 *DEL                                                               5189 77007021
1         A-TEXT GENERATOR AND ARITHMETIC CONSTANTS                                                             PAGE  243
-  LOC  OBJECT CODE    ADDR1 ADDR2  STMT   SOURCE STATEMENT                                       ASM 0201 11.03 02/14/15
0                                  11217 *DEL                                                               5189 77014021
                                   11218 *DEL                                                               5189 77021021
                                   11219 *DEL                                                               5189 77028021
                                   11220 *DEL                                                               5189 77035021
                                   11221 *DEL                                                               5189 77042021
                                   11222 *DEL                                                               5189 77049021
                                   11223 *DEL                                                               5189 77056021
                                   11224 *DEL                                                               5189 77063021
                                   11225 *DEL                                                               5189 77070021
                                   11226 *DEL                                                               5189 77077021
                                   11227 *DEL                                                               5189 77084021
                                   11228 *DEL                                                               5189 77091021
                                   11229 *DEL                                                               5189 77098021
                                   11230 *DEL                                                               5189 77105021
                                   11231 *DEL                                                               5189 77112021
                                   11232 *DEL                                                               5189 77119021
                                   11233 *DEL                                                               5189 77126021
                                   11234 *DEL                                                               5189 77133021
                                   11235 *DEL                                                               5189 77140021
                                   11236 *                                                                       77147021
                                   11237 *      ERROR MESSAGES BUFFER.                                           77154021
 0080BC 000600                     11238 XMSGDF DC    X'000600'             CODE FOR ERROR MSG                   77161021
 0080BF 0000                       11239        DC    X'0000'                    MESSAGE NUMBER.                 77168021
 0080C1 0000                       11240        DC    X'0000'                    CARD NUMBER.                    77175021
 0080C3 05                         11241        DC    X'05'                      SEVERITY,PHASE NUMBER.          77182021
 0080C4                            11242 XSTORE   DS    2F                                                       77189021
                                   11243 **************************                                              77196021
                                   11244 *                                                                       77203021
                             0005C 11245 INCODE   EQU   X'5C'                                                    77210021
                             00038 11246 TS4DATA  EQU   X'38'                                                    77217021
                             00030 11247 TS2CODE  EQU   X'30'                                                    77224021
                                   11248 *DEL                                                               5189 77231021
                                   11249 *DEL                                                               5189 77238021
                                   11250 *DEL                                                               5189 77245021
                                   11251 *DEL                                                               5189 77252021
                                   11252 *DEL                                                               5189 77259021
                                   11253 *DEL                                                               5189 77266021
                                   11254 *DEL                                                               5189 77273021
                                   11255 *DEL                                                               5189 77280021
                                   11256 *DEL                                                               5189 77287021
                                   11257 *DEL                                                               5189 77294021
                                   11258 *DEL                                                               5189 77301021
 0080CC 00000000                   11259 X1VAL    DC    F'0'                                               51894 77308021
                                   11260 *DEL                                                               5189 77315021
                                   11261 *DEL                                                               5189 77322021
                                   11262 *DEL                                                               5189 77329021
                                   11263 *DEL                                                               5189 77336021
                                   11264 *DEL                                                               5189 77343021
                                   11265 *DEL                                                               5189 77350021
                                   11266 *DEL                                                               5189 77357021
                                   11267 *DEL                                                               5189 77364021
                                   11268 *DEL                                                               5189 77371021
                                   11269 *DEL                                                               5189 77378021
                                   11270 *DEL                                                               5189 77385021
                                   11271 *DEL                                                               5189 77392021
1         A-TEXT GENERATOR AND ARITHMETIC CONSTANTS                                                             PAGE  244
-  LOC  OBJECT CODE    ADDR1 ADDR2  STMT   SOURCE STATEMENT                                       ASM 0201 11.03 02/14/15
0                                  11272 *DEL                                                               5189 77399021
                                   11273 *DEL                                                               5189 77406021
                                   11274 *DEL                                                               5189 77413021
                                   11275 *DEL                                                               5189 77420021
                                   11276 *DEL                                                               5189 77427021
                                   11277 *DEL                                                               5189 77434021
                                   11278 *DEL                                                               5189 77441021
                                   11279 *DEL                                                               5189 77448021
                                   11280 *DEL                                                               5189 77455021
                                   11281 *DEL                                                               5189 77462021
                                   11282 *DEL                                                               5189 77469021
                                   11283 *DEL                                                               5189 77476021
                                   11284 *DEL                                                               5189 77483021
                                   11285 *DEL                                                               5189 77490021
                                   11286 *DEL                                                               5189 77497021
                                   11287 *DEL                                                               5189 77504021
                                   11288 *DEL                                                               5189 77511021
                                   11289 *DEL                                                               5189 77518021
                                   11290 ***************************************************************** 42646 77525021
                                   11291 *                                                               * 42646 77532021
                                   11292 *                   SAVE AREAS USED BY I-O SUBROUTINES          * 42646 77539021
                                   11293 *                                                               * 42646 77546021
                                   11294 ***************************************************************** 42646 77553021
-
 0080D0                            11296 IOSAVE01 DS    F                   USED BY SORTXSA                42646 77567021
 0080D4                            11297 IOSAVE02 DS    F                   USED BY SORTXSA                42646 77574021
 0080D8                            11298 IOSAVE03 DS    F                   USED BY SORTXSA                42646 77581021
1         A-TEXT GENERATOR AND ARITHMETIC CONSTANTS                                                             PAGE  245
-  LOC  OBJECT CODE    ADDR1 ADDR2  STMT   SOURCE STATEMENT                                       ASM 0201 11.03 02/14/15
0                                  11300 ***************************************************************** 42646 77595021
                                   11301 *                                                               * 42646 77602021
                                   11302 *                   ADCONS USED BY I-O SUBROUTINES              * 42646 77609021
                                   11303 *                                                               * 42646 77616021
                                   11304 ***************************************************************** 42646 77623021
-
 0080DC 00001D60                   11306 IOADCN01 DC    A(SORTXSA)          IOADCN01                       42646 77637021
1         A-TEXT GENERATOR AND ARITHMETIC CONSTANTS                                                             PAGE  246
-  LOC  OBJECT CODE    ADDR1 ADDR2  STMT   SOURCE STATEMENT                                       ASM 0201 11.03 02/14/15
0                                  11308 *=1  DATA AREA FOR NON ARITHMETIC (BILL).                               77651021
 0080E0                            11309        DS      0F                                                       77658021
 0080E0 00000000                   11310 ONBCON DC      XL4'0'              B FACTOR                             77665021
 0080E4 00000000                   11311 ONCCON DC      XL4'0'              C FACTOR                             77672021
 0080E8 00000004                   11312 LENGTH DC      1F'00000004'       *** DUMMY *** DUMMY *** DUMMY ***     77679021
 0080EC                            11313 DISPNN DS      1F                    TOTAL OPERAND COUNTER              77686021
 0080F0                            11314 EXHIBP DS    1F                    BIT PATTERN BUILD CELL               77693021
 0080F4                            11315 GNSTRE DS    1H                                  SAVE GN IN QUPDAT      77700021
 0080F6                            11316 QRETGN   DS  1H                        SAVE GN IN QUPDAT                77707021
 0080F8                            11317 GNRETU DS    1H              SAVE GN FOR DEF IN QRETUV                  77714021
 0080FA 00                         11318 QRETSW   DC    X'00'                   BIT 1 ON IF IN QUPDAT            77721021
 0080FC                            11319 GNLMSV   DS    1H                  SAVE GN FOR LM GENERATION       9030 77728021
 008100                            11320 LSTDBG DS    1F                    HOLDS PFMCTR NUMBER FOR LAST *DE     77735021
 008104                            11321        DS    0H                    FORCE HALF WORD BOUNDARY             77742021
 008104 0000                       11322 DITYSV DC      XL2'0000'           SAVES DN-INFO TYPE FOR DISPLAY       77749021
 008106 0000                       11323 EXPARC DC      1H'0000'            PARAM COUNT FOR LOCAL EXHIBIT        77756021
 008108                            11324 DISGND DS      1H                    GN2                                77763021
 00810A 0000                       11325 ONCOUL DC      XL2'0'              ON-CTR-NO, LOW LVL COUNTER           77770021
 00810C 0000                       11326 ONCOUH DC      XL2'0'              ON-CTR-NO, HI LVL COUNTER            77777021
0
                                   11328 *                                                                 42646 77791021
                                   11329 * DATA AREA FOR SORT PROCESSING                                   42646 77798021
                                   11330 *                                                                 42646 77805021
 00810E                            11331 SORGN3 DS      1H                  SORT'S GN3                           77812021
 008110                            11332 SORGN4 DS      1H                  SORT'S GN4                           77819021
 008112                            11333 SDISPL DS    H                    DISPL INTO SORT WORK BUFFER           77826021
 008114 0001                       11334 SPARAM DC    H'1'                 PARAM CELL NUMB (SORT)                77833021
                             08116 11335 SORSSS EQU   *                                                          77840021
 008116 0000000000                 11336 SORLG1 DC    XL5'0'               MAX (OR ONLY)RECORD LENGTH-SORT       77847021
 00811B 0000                       11337 SORTSW   DC    XL2'00'             OPTION AND STATUS SWITCH FOR SORT    77854021
                             00001 11338 NX1      EQU   1                                                  42646 77861021
                             0811C 11339 SORTSW1  EQU   SORTSW+NX1                                         42646 77868021
                             0811D 11340 SORTTT EQU   *                                                          77875021
                             00007 11341 SLENGT EQU   SORTTT-SORSSS                                              77882021
                                   11342 * MASKS FOR SORTSW                                                      77889021
                             00001 11343 SINPT  EQU   X'01'                INPUT PROCEDURE                       77896021
                             00002 11344 SOTPT  EQU   X'02'                OUTPUT PROCEDURE                      77903021
                             00004 11345 SUSING EQU   X'04'                USING (COMPILER GEN INPUT PROC)       77910021
                             00008 11346 SGVING EQU   X'08'                GIVING (COMPILER GEN OUTPUT PROC)     77917021
                             00010 11347 SORTVL EQU   X'10'                VAR. LENGTH OR SPANNED RECS           77924021
                             00020 11348 SNDONE EQU   X'20'                                                      77931021
                             00040 11349 SASCEN EQU   X'40'                ASCENDING KEY                         77938021
                             00080 11350 SFIRST EQU   X'80'                FIRST TIME LOGIC                      77945021
                                   11351 * MASKS FOR SORTSW1:                                              42646 77952021
                             00001 11352 CELLALOC EQU   X'01'          XSACELLS HAVE BEEN ALLOCATED        42646 77959021
                             00002 11353 SORTRTRN EQU   X'02'          WITHIN A RETURN VERB                42646 77966021
                             00004 11354 SORTRLSE EQU   X'04'          WITHIN A RELEASE VERB               42646 77973021
                             00008 11355 SORTVERB EQU   X'08'     ALERTS OTHER ANALYZERS A SORT IS ACTIVE  42646 77980021
                             00080 11356 SORTSRA  EQU   X'80'     SAME RECORD AREA SPECIFIED FOR SD        42646 77987021
 00811D 34                         11357 STOMSG DC    X'34'                                                      77994021
 00811E 46                         11358 STLNG  DC    AL1(SORTDD-SORTCC)             TOTAL LITERAL COUNT         78001021
                             0811F 11359 SORTCC EQU   *                                                          78008021
 00811F 0042                       11360        DC    AL2(SORTBB-SORTAA+4)                                       78015021
 008121 8000                       11361        DC    X'8000'                        MCS FLAG                    78022021
1         A-TEXT GENERATOR AND ARITHMETIC CONSTANTS                                                             PAGE  247
-  LOC  OBJECT CODE    ADDR1 ADDR2  STMT   SOURCE STATEMENT                                       ASM 0201 11.03 02/14/15
0                            08123 11362 SORTAA EQU   *                                                          78029021
 008123 C9D2C6F8F8F8C940           11363        DC     C'IKF888I UNSUCCESSFUL SORT FOR '                         78036021
 008141 4040404040404040           11364 SRTNME DC    32C' '                                                     78043021
                             08161 11365 SORTBB EQU   *                                                          78050021
 008161 04004020                   11366 MSGCDE   DC    X'04004020'         SEE NOTE                             78057021
                             08165 11367 SORTDD EQU   *                                                          78064021
 008165 40004020                   11368 MSGCDERP DC    X'40004020'                                              78071021
                                   11369 * NOTE - 4000 - DESCRIPTOR CODE - IMMEDIATE ACTION REQUIRED             78078021
                                   11370 * NOTE - 0400 - DESCRIPTOR CODE - JOB STATUS                            78085021
                                   11371 *     -4020-ROUTING CODE-MASTER CONSOLE + SYSOUT                        78092021
                                   11372 *                                                                       78099021
                                   11373 * CELLS CONTAINING NUMBERS OF XSACELLS ASSIGNED TO SORT:          42646 78106021
 008169 00
 00816A 0000                       11374 XSASORT  DC    H'00'          USED FOR SORT VERB                  42646 78113021
 00816C 0000                       11375 XSARTRN  DC    H'00'          USED FOR RETURN VERB                42646 78120021
 00816E 0000                       11376 XSARLSE  DC    H'00'          USED FOR RELEASE VERB               42646 78127021
                                   11377 * SAVE AREAS FOR GN NUMBERS - RELEASE VERB                        42646 78134021
 008170                            11378 RLSEGN1  DS    2C             USED FOR INLINE                     42646 78141021
 008172                            11379 RLSEGN2  DS    2C                F OR V LENGTH TEST               42646 78148021
 008174 0000                       11380 EXHIT1 DC   H'0'                                                        78155021
 008176                            11381 IOPARM DS    1H                                                         78162021
 008178                            11382 DISPL    DS    H                                                        78169021
                             00001 11383 MCLOSLCK EQU   1                                                        78176021
 00817A 0000                       11384 DIFPNN DC    XL2'0000'                                                  78183021
 00817C 0000                       11385 DIPARE DC    1H'0000'                                                   78190021
                                   11386 *    NON-ALIGNED WORK CELLS                                             78197021
 008180                            11387        DS    0F                                                         78204021
 008180                            11388 SORSFN DS    5C                    SAVES FRON OF SFN - KEEP WD BOUN     78211021
 008185 00                         11389 DNMINR DC    XL1'00'               CALCLG SAVES MINOR OF DN'S HERE      78218021
 008186 000000000000               11390 SORDN1 DC    XL6'00'               SORT RECORD DN THRU BL NUMBER        78225021
 00818C FF                         11391 IOCODE DC    XL1'FF'                                                    78232021
 00818D 87                         11392 ASRLAS DC    XL1'87'               LAST HEADER                          78239021
 00818E                            11393 PR35M  DS      1H                                                       78246021
                                   11394 *              SWITCHES                                                 78253021
                                   11395 * KEEP ALL FOLLOWING SW'S STARTING 'ON....' TOGETHER FOR COMMON CLE     78260021
 008190                            11396        DS    0H                                                         78267021
                             08190 11397 ONSWIT EQU   *                                                          78274021
 008190                            11398 ONSWNU DS    1H                                                         78281021
 008192                            11399 ONTYSW DS    2C                                                         78288021
 008194                            11400 ONESW  DS    1C                                                         78295021
                             08190 11401 CALLXN EQU   ONSWIT      TEMP HOLDER FOR XN'S, OVERLAYS ON SWITCHES     78302021
 008195                            11402 ONBSW  DS    1C                                                         78309021
 008196                            11403 ONI2SW DS    1C                                                         78316021
 008197                            11404 ONI3SW DS    1C                                                         78323021
 008198                            11405 ONGFSW DS    1C                                                         78330021
 008199                            11406 ONSWSW DS    1C                                                         78337021
                                   11407 *            END OF ON SWITCHES                                         78344021
 00819A 00                         11408 CALLSW DC      XL1'0'         CALL OR LINK SW                           78351021
 00819B 00                         11409 CDNOSW DC      XL1'0'              CARD NUMBER PRECEEDS STRING SW.      78358021
 00819C 00                         11410 EXHBSN DC      XL1'00'             EXHIBIT NAMED SWITCH                 78365021
 00819D 00                         11411 EXHBSC DC      XL1'00'             EXHIBIT CHANGED SWITCH               78372021
 00819E 00                         11412 DISPS1 DC      XL1'00'             DISPLAY                              78379021
 00819F 00                         11413 PERF1S DC      XL1'00'             PERFORM                              78386021
 0081A0 00                         11414 FLAGSW DC    XL1'00'                                                    78393021
 0081A1 00                         11415 READSW   DC    X'00'                   FIRST/SECOND TIME SW FOR READ    78400021
1         A-TEXT GENERATOR AND ARITHMETIC CONSTANTS                                                             PAGE  248
-  LOC  OBJECT CODE    ADDR1 ADDR2  STMT   SOURCE STATEMENT                                       ASM 0201 11.03 02/14/15
00081A2 00                         11416 ADESW1 DC    XL1'00'               ADETER SW                            78407021
 0081A3 00                         11417 ADESW2 DC    XL1'00'               ADETER SW                            78414021
 0081A4 00                         11418 ENTSW  DC    X'00'                USED IN ENTRY                         78421021
                                   11419 *                                                                       78428021
                                   11420 *        MASKS FOR ENTSW:                                               78435021
                             00080 11421 FRSTON   EQU   X'80'                   FIRST TIME THROUGH ENTRY         78442021
                             0007D 11422 FRSTOFF  EQU   X'7D'               TURN FIRST TIME, GN SWITCH OFF       78449021
 0081A8                            11423 ENTRSPAC DS    2F                 WORK AREA FOR ENTRY-POINT NAME   1155 78456021

                             00002 11425 ENTRYGN  EQU   X'02'               INDIC A GN IS TO BE GEN'ED           78470021
 0081B0                            11426 WRSW01   DS    1C                                                       78477021
 0081B1 00                         11427 IOMVSW DC    1X'00'                MOVE FOR 'INTO', 'FROM' CONTROL      78484021
 0081B2 00                         11428 OPENSW DC    X'00'                                                      78491021
 0081B3 00                         11429 DIFPSW DC    XL1'00'                                                    78498021
 0081B4 00                         11430 REWRSW DC    XL1'00'                                                    78505021
 0081B5 00                         11431 WRITSW   DC    XL1'00'                                                  78512021
 0081B6                            11432 RECMODE  DS    XL1                                                      78519021
 0081B7 00                         11433 CLOSSW DC    XL1'00'               CLOSE SWITCH                         78526021
 0081B8 00                         11434 LOOKAH DC      XL1'00'             LOOK AHEAD SW                        78533021
 0081B9 00                         11435 STOPSW DC    XL1'00'               STOP SPECIAL CASE FOR ACCEPT         78540021
 0081BA                            11436 IODOSW DS      1C                                                       78547021
 0081BB 00                         11437 MADCSW DC    X'00'     DSPLTP SW                                        78554021
 0081BC 00                         11438 CLSSW  DC    X'0'                 CLASS TEST SWITCH                     78561021
 0081BD 00                         11439 QRTNSW DC    XL1'00'               Q-ROUTINES IN EFFECT WHEN SW SWT     78568021
 0081BE 00                         11440 DIWOSW DC  XL1'00'                 ALTERNATE MESSAGE FOR WTOR SW        78575021
 0081BF 00                         11441 QREFSW DC    XL1'00'              SW FOR O-O-L REF OF I-L ODO OBJ       78582021
 0081C0 00                         11442 CPFLAG   DC    X'00'                                                    78589021
 0081C1 00                         11443 USESW    DC    X'00'                   SWITCH FOR USE...STD ERROR       78596021
 0081C2                            11444 HALFWD   DS    H                                                        78603021
1         IKFCBL51: VARIABLE A-TEXT V A R I A B L E                                                             PAGE  249
-  LOC  OBJECT CODE    ADDR1 ADDR2  STMT   SOURCE STATEMENT                                       ASM 0201 11.03 02/14/15
0                                  11446 *                                                                       78617021
                                   11447 *                                                                       78624021
                                   11448 * DIRECT A-TEXT WRITE OUT STRINGS REQUIRING CHANGES. THOSE STRINGS      78631021
                                   11449 *   NOT REQUIRING CHANGES ARE IN THE CONSTANT AREA                      78638021
                                   11450 *                                                                       78645021
                                   11451 *   TO ADD NEW DIRECT A-TEXT STRINGS, USE THE NEXT HIGHEST NUMBER,      78652021
                                   11452 *            BEYOND THE HIGHEST PREVIOUS NUMBER USED, =MM.              78659021
                                   11453 *      A)    SET UP TEXT IN THE... CONSTANT AREA IF NO BYTE IS CHAN     78666021
                                   11454 *                              ... DATA AREA IF ONE OR MORE BYTES C     78673021
                                   11455 *            FORMAT...                                                  78680021
                                   11456 *            ATXTNN  EQU  *                                             78687021
                                   11457 *                    DC    XL'...       ONE DC PER INSTRUCTION...       78694021
                                   11458 *            ZTXTNN  EQU  *                                             78701021
                                   11459 *                      (IF ANY BYTE IS CHANGABLE, LABEL IT ANNCH1,      78708021
                                   11460 *      B)    THE CALLING SEQUENCE IS...                                 78715021
                                   11461 *                                  BAL  RETRG,GATXTC       (OR, GAT     78722021
                                   11462 *                                  DC   AL2(ATXTNN-ATXTBC) (OR, GAT     78729021
                                   11463 *                                  DC   AL2(ZTXTNN-ATXTNN)              78736021
                                   11464 *...... THE FOLLOWING ARE POINTERS TO AREAS OF CHANGES...               78743021
                                   11465 *                                  CONSTANT A-TEXT STARTING POINT       78750021
                                   11466 *                                  VARIABLE A-TEXT FOLLOWS...           78757021
                                   11467 *                                                                       78764021
                             081C4 11468 ATXTBV EQU   *                                                          78771021
 0081C4 48583064140000             11469 IOTXTA DC    X'48583064140000'         L    3,DECBADR                   78778021
                             081CB 11470 IOTXTB EQU   *                                                          78785021
 0081CB 485820703008               11471        DC    X'485820703008'           L    2,8(3)                      78792021
 0081D1 489200703005               11472 IOTXTC DC    X'489200703005'           MVI  5(3),CODE                   78799021
                             081D7 11473 IOTXTD   EQU   *                                                        78806021
 0081D7 48581064000000             11474 IOTXTE DC    X'48581064000000'         L    1,DCBADR                    78813021
 0081DE 481821                     11475          DC    X'481821'               *  LR  2,1                       78820021
                             081E1 11476 IOTXTF   EQU   *                                                        78827021
 0081E1 48D20270202150             11477          DC    X'48D20270202150'       *  MVC  33(3,2),GN-EODATA        78834021
 0081E8 000080000001               11478          DC    X'000080000001'                                          78841021
 0081EE 4858F0701030               11479 IOTXTG DC    X'4858F0701030'           L    15,48(1)                    78848021
 0081F4 4805EF                     11480        DC    X'4805EF'                 BALR 14,15                       78855021
                             081F7 11481 IOTXTH   EQU   *                                                        78862021
 0081F7 481813                     11482 IOTXTI DC    X'481813'                 LR   1,3                         78869021
                             081FA 11483 IOTXIA EQU   *                                                          78876021
 0081FA 4858F0702030               11484        DC    X'4858F0702030'           L    15 ,48(2)                   78883021
 008200 4805EF                     11485        DC    X'4805EF'                 BALR 14,15                       78890021
 008203 481813                     11486        DC    X'481813'                 LR   1,3                         78897021
                             08206 11487 IOTXIB EQU   *                                                          78904021
 008206 4858F0702034               11488        DC    X'4858F0702034'           L    15,52(2)                    78911021
 00820C 4805EF                     11489        DC    X'4805EF'                 BALR 14,15                       78918021
 00820F 4430A00E                   11490          DC    XL4'4430A00E'         DESTROY 14                         78925021
 008213 4430A00F                   11491          DC    XL4'4430A00F'         DESTROY 15                         78932021
                             08217 11492 IOTXTJ   EQU   *                                                        78939021
 008217 48585070300C               11493        DC    X'48585070300C'           L    5,12(3)                     78946021
 00821D 48D2                       11494          DC    X'48D2'                 *  MVC  SYM-KEY(6),BUFFER        78953021
 00821F 0078                       11495 IOTXTJ1  DC    X'0078'                 LENGTH                           78960021
 008221 000000FFFFFF7050           11496 IOTXTJ2  DC    X'000000FFFFFF705000'   IDK FOR ACT.KEY+4                78967021
 00822A 48585070300C               11497 IOTXTL DC    X'48585070300C'           L    5,12(3)                     78974021
 008230 484110701004               11498          DC    X'484110701004'         *  LA  1,4(1)                    78981021
 008236 484010705004               11499          DC    X'484010705004'         *  STH  1,4(5)                   78988021
                             0823C 11500 IOTXTL1 EQU  *                                                          78995021
1         IKFCBL51: VARIABLE A-TEXT V A R I A B L E                                                             PAGE  250
-  LOC  OBJECT CODE    ADDR1 ADDR2  STMT   SOURCE STATEMENT                                       ASM 0201 11.03 02/14/15
000823C 484110701004               11501          DC    X'484110701004'         *  LA  1,4(1)                    79002021
                             08242 11502 IOTXTL2 EQU  *                                                          79009021
 008242 484010705000               11503          DC    X'484010705000'         *  STH  1,0(5)                   79016021
                             08248 11504 IOTXTM   EQU   *                                                        79023021
                             08248 11505 IOTXTO  EQU    *                                                        79030021
 008248 48D203641C00015C           11506          DC    X'48D203641C00015C'          * MVC PARAM#1,BL            79037021
 008250 00                         11507 IOTXTOA1 DC    X'00'                   BL TYPE                          79044021
 008251 00                         11508 IOTXTOA  DC    X'00'                   BL NUMBER                        79051021
 008252 4892                       11509         DC     X'4892'        DCB NO.      * MVI PARAM#1,OPTNCODE       79058021
 008254 00641C0001                 11510 IOTXTOC DC     X'00641C0001'                                            79065021
 008259 48D203641C000364           11511          DC    X'48D203641C0003640000'   *  MVC  PARAM#3,DCBADR         79072021
 008263 00                         11512 IOTXTOB  DC    X'00'                   DCB NO.                          79079021
 008264 485010641C00               11513 IOTXTOD  DC    X'485010641C00'         *  ST  1,PARAM#4                 79086021
 00826A 00                         11514 IOTXTOE  DC    X'00'                                                    79093021
                             0826B 11515 IOTXTOF EQU    *                                                        79100021
 00826B 48411070                   11516          DC    X'48411070'             *  LA  1,INTEGER                 79107021
 00826F 0000                       11517 IOTXTOG DC     X'0000'                                                  79114021
                             08271 11518 IOTXTOH EQU    *                                                        79121021
 008271 4892                       11519         DC     X'4892'                  *MVI PARAM#2+3  ,MNEUMONIC-     79128021
 008273 00                         11520 IOTXTOI DC     X'00'                                                    79135021
 008274 641C000280000003           11521         DC     X'641C000280000003'                                      79142021
                             0827C 11522 IOTXTOJ EQU    *                                                        79149021
                             0827C 11523 IOTXTP   EQU   *                                                        79156021
 00827C 485840702024               11524          DC    X'485840702024'         *  L  4,36(2)                    79163021
                             08282 11525 IOTXTP2  EQU   *                                                  49518 79170021
 008282 48D20270401950             11526          DC    X'48D20270401950'       *  MVC  25(3,4),GN-INVKEY+1      79177021
 008289 0000                       11527 IOTXTP1  DC    X'0000'                                                  79184021
 00828B 80000001                   11528          DC    X'80000001'                                              79191021
                             0828F 11529 IOTXTQ   EQU   *                                                        79198021
 00828F 4891FD703018               11530          DC    X'4891FD703018'     * TM   24(3),X'FD'              1139 79205021
 008295 4428A00E                   11531          DC    XL4'4428A00E'       * RESERVE 14                    1139 79212021
 008299 4858E050                   11532          DC    X'4858E050'         * L    14,                      1139 79219021
 00829D 0000                       11533 IOTXTQA  DC    X'0000'             *         GN(BAD BL'S)          1139 79226021
 00829F 48077E                     11534          DC    X'48077E'           * BCR  7,14                     1139 79233021
 0082A2 442CA00E                   11535          DC    XL4'442CA00E'       * FREE 14                       1139 79240021
                             082A6 11536 IOTXTR   EQU   *                                                        79247021
 0082A6 48960170401B               11537          DC    X'48960170401B'         *  OI  27(4),1                   79254021
                             082AC 11538 IOTXTRPR EQU   *                                                        79261021
 0082AC 48585050                   11539          DC    X'48585050'             *  L  5,GN-NEXT-SENTENCE         79268021
 0082B0 0000                       11540 IOTXTR1  DC    X'0000'                                                  79275021
 0082B2 4807F5                     11541          DC    X'4807F5'               *   BCR  15,5                    79282021
                             082B5 11542 IOTXTS   EQU   *                                                        79289021
 0082B5 485840701024               11543          DC    X'485840701024'          *L 4,36(1)                      79296021
                             082BB 11544 IOTXTS1  EQU   *                                                        79303021
 0082BB 489480704004               11545          DC    X'489480704004'          NI   4(4),X'80'                 79310021
 0082C1 48D2007040087010           11546          DC    X'48D200704008701078'    MVC  8(1,4),120(1)              79317021
                             082CA 11547 IOTXTT   EQU   *                                                        79324021
 0082CA 4858F0701054               11548          DC    X'4858F0701054'         *  L  15,84(1)                   79331021
 0082D0 4805EF                     11549          DC    X'4805EF'               *  BALR  14,15                   79338021
 0082D3 4430A00E                   11550          DC    X'4430A00E'              DESTROY   14                    79345021
 0082D7 4430A00F                   11551          DC    X'4430A00F'              DESTROY   15                    79352021
 0082DB 484100700080               11552          DC    X'484100700080'         *  LA  0,128                     79359021
 0082E1 4428A00F                   11553          DC    X'4428A00F'              RESERVE   15                    79366021
 0082E5 4805F0                     11554          DC    X'4805F0'                BALR 15,0                       79373021
 0082E8 489110702010               11555          DC    X'489110702010'          TM   36(2),X'10'                79380021
1         IKFCBL51: VARIABLE A-TEXT V A R I A B L E                                                             PAGE  251
-  LOC  OBJECT CODE    ADDR1 ADDR2  STMT   SOURCE STATEMENT                                       ASM 0201 11.03 02/14/15
00082EE 48471070F00E               11556          DC    X'48471070F00E'          BO   14(15)                     79387021
 0082F4 484110700008               11557          DC    X'484110700008'          LA   1,8(0,0)                   79394021
 0082FA 481601                     11558          DC    X'481601'                OR   0,1                        79401021
 0082FD 442CA00F                   11559          DC    X'442CA00F'              FREE      15                    79408021
 008301 488900700018               11560          DC    X'488900700018'         *  SLL 0,24                      79415021
 008307 485600702100               11561          DC    X'485600702100'         *  O  0,256(2)                   79422021
 00830D 481812                     11562          DC    X'481812'                LR   1,2                        79429021
 008310 4858F070104C               11563          DC    X'4858F070104C'         *  L  15,76(1)                   79436021
 008316 4805EF                     11564          DC    X'4805EF'               *  BALR  14,15                   79443021
                             08319 11565 IOTXTU   EQU   *                                                        79450021
 008319 4892                       11566          DC    X'4892'                 *  MVI  50(1),CODE               79457021
 00831B 00                         11567          DC    X'00'               CODE                                 79464021
 00831C 701032                     11568          DC    X'701032'                                                79471021
 00831F 4892                       11569          DC    X'4892'                 *  MVI  51(1),CODE               79478021
 008321 00                         11570          DC    X'00'               CODE                                 79485021
 008322 701033                     11571          DC    X'701033'                                                79492021
 008325 485810640000               11572          DC    X'485810640000'         *  L  1,DCBADR                   79499021
 00832B 00                         11573 IOTXTWC1 DC    X'00'                   DCB NUMBER                       79506021
 00832C 4858205C                   11574          DC    X'4858205C'             *  L  2,BL                       79513021
 008330 0000                       11575 IOTXTWC2 DC    X'0000'                 BL TYPE                          79520021
 008332 00                         11576 IOTXTWC3 DC    X'00'                   BL NUMBER                        79527021
 008333 48412070                   11577          DC    X'48412070'             *  LA  2,  DISP(2)               79534021
 008337 2000                       11578 IOTXTWC4 DC    X'2000'                                                  79541021
 008339 48D2017020007010           11579          DC    X'48D2017020007010E0'   *  MVC  0(2,2),224(1)            79548021
 008342 48D2017020027010           11580          DC    X'48D2017020027010CE'   *  MVC  2(2,2),206(1)            79555021
 00834B 48D2037020047010           11581          DC    X'48D203702004701098'      *  MVC  4(4,2),152(1)         79562021
                             08354 11582 IOTXTAA  EQU   *                                                        79569021
 008354 485810640000               11583          DC    X'485810640000'         *  L  1,DCBADR                   79576021
 00835A 00                         11584 IOTXTAA1 DC    X'00'                   DCB NUMBER                       79583021
                             0835B 11585 IOTXTAB  EQU   *                                                        79590021
 00835B 481821                     11586          DC    X'481821'               *  LR  2,1                       79597021
                             0835E 11587 IOTXTBB  EQU   *                                                        79604021
 00835E 48415078                   11588          DC    X'48415078'             *  LA  5,ACT.KEY                 79611021
 008362 000000                     11589 IOTXTBB1 DC    X'000000'               KEY IDK                          79618021
 008365 FFFFFF                     11590          DC    X'FFFFFF'               NO DICT POINTER                  79625021
                             08368 11591 IOTXTCC  EQU   *                                                        79632021
 008368 48411078                   11592          DC    X'48411078'             *  LA  1,ACT-KEY+4               79639021
 00836C 000000FFFFFF               11593 IOTXTCC1 DC    X'000000FFFFFF'                                          79646021
 008372 485010703014               11594          DC    X'485010703014'         *  ST  1,20(3)                   79653021
 008378 48D20370301C78             11595          DC    X'48D20370301C78'       *  MVC  28(4,3),ACT-KEY          79660021
 00837F 000000FFFFFF               11596 IOTXTCC2 DC    X'000000FFFFFF'                                          79667021
                                   11597 *                                                                       79674021
                             08385 11598 IOTXTDD  EQU   *                                                        79681021
 008385 489108703005               11599          DC    X'489108703005'         *  TM  5(3),X'08'                79688021
 00838B 48585050                   11600          DC    X'48585050'             *  L  5,GN                       79695021
 00838F 0000                       11601 IOTXTDD3 DC    X'0000'                 GN NUMBER                        79702021
 008391 4807E5                     11602          DC    X'4807E5'               *  BCR  NOTONE,5                 79709021
 008394 485810703024               11603          DC    X'485810703024'         *  L  1,36(3)                    79716021
 00839A 489200703005               11604 IOTXTDD1 DC    X'489200703005'         *  MVI  5(3),UPDATE-CODE         79723021
 0083A0 48D5007010007800           11605 IOTXTDD2 DC    X'48D50070100078000000FFFFFF'    *  CLC 0(KL+4,1),AC     79730021
 0083AD 48585050                   11606          DC    X'48585050'             *  L  5,GN2                      79737021
 0083B1 0000                       11607 IOTXTDD4 DC    X'0000'                 GN2 NUMBER                       79744021
 0083B3 480785                     11608          DC    X'480785'               *  BCR  EQ,5                     79751021
                             083B6 11609 IOTXTEE  EQU   *                                                        79758021
 0083B6 485850703024               11610          DC    X'485850703024'         *  L  5,36(3)                    79765021
1         IKFCBL51: VARIABLE A-TEXT V A R I A B L E                                                             PAGE  252
-  LOC  OBJECT CODE    ADDR1 ADDR2  STMT   SOURCE STATEMENT                                       ASM 0201 11.03 02/14/15
00083BC 48D2                       11611          DC    X'48D2'                 *  MVC  0(KL+4,5),ACT-KEY        79772021
 0083BE 0070500078                 11612 IOTXTEE1 DC    X'0070500078'           KL+4                             79779021
 0083C3 000000FFFFFF               11613 IOTXTEE2 DC    X'000000FFFFFF'         IDK FOR ACT-KEY                  79786021
                             083C9 11614 IOTXTFF  EQU   *                                                        79793021
 0083C9 0402                       11615          DC    X'0402'                                                  79800021
 0083CB 2E                         11616          DC    AL1(IOTXTFF0-IOTXTFF1)  LITERAL LNGTH                    79807021
                             083CC 11617 IOTXTFF1 EQU   *                                                        79814021
 0083CC 002A                       11618          DC    AL2(IOTXTFF7-IOTXTFF1)  TOTL LNGTH OF CNT+MSG            79821021
 0083CE 8000                       11619          DC    X'8000'                                                  79828021
                             083D0 11620 IOTXTFF3 EQU   *                                                        79835021
 0083D0 C9D2C6F9F9F9C940           11621          DC    C'IKF999I UNSUCCESSFUL OPEN FOR '                        79842021
                             083EE 11622 IOTXTFF2 EQU   *                                                        79849021
 0083EE 0000000000000000           11623          DC    8X'0'                                                    79856021
 0083F6                            11624 IOTXTFF7 DS    CL4                     MCSCODE GO HERE                  79863021
                             083FA 11625 IOTXTFF0 EQU   *                                                        79870021
 0083FA 48582050                   11626          DC    X'48582050'             *   L  I,GN                      79877021
 0083FE 0000                       11627 IOTXTFF5 DC    X'0000'                                                  79884021
 008400 489110701030               11628          DC    X'489110701030'         *  TM  48(1),X'10'               79891021
 008406 480712                     11629          DC    X'480712'               *  BCR  1,2                      79898021
 008409 48D2                       11630          DC    X'48D2'                 *   MVC  TS2#1(MSGLNGTH),LIT     79905021
 00840B 2D                         11631          DC    AL1(IOTXTFF0-IOTXTFF1-1)                                 79912021
 00840C 6430000168                 11632          DC    X'6430000168'                                            79919021
 008411 0000                       11633 IOTXTFF6 DC    X'0000'            LITERAL ID                            79926021
 008413 48D2076430                 11634          DC    X'48D2076430'           *  MVC  TS2#MSGLNGTH,DDNAME      79933021
 008418 0023                       11635          DC    AL2(IOTXTFF2-IOTXTFF1+1)                                 79940021
 00841A 701028                     11636          DC    X'701028'                                                79947021
 00841D 48411064300001             11637          DC    X'48411064300001'                                        79954021
 008424 480A23                     11638          DC    X'480A23'          *   SVC  35                           79961021
 008427 34                         11639          DC    X'34'                                                    79968021
 008428 0000                       11640 IOTXTFF4 DC    X'0000'            GN NUMBER                             79975021
                             0842A 11641 IOTXTGG  EQU   *                                                        79982021
 00842A 4841107000                 11642          DC    X'4841107000'           *  LA  1,CODE                    79989021
 00842F 00                         11643 IOTXTGG1 DC    X'00'                   CODE                             79996021
 008430 488910700018               11644          DC    X'488910700018'         *  SLL  1,24                     80003021
 008436 485610640000               11645          DC    X'485610640000'         *  O  1,DCBADR                   80010021
 00843C 00                         11646 IOTXTGG2 DC    X'00'                   DCB NUMBER                       80017021
                             0843D 11647 IOTXTHH  EQU   *                                                        80024021
                             0843D 11648 IOTXTII1 EQU   *                                                        80031021
 00843D 4858F050                   11649          DC    X'4858F050'             * L   15,                        80038021
 008441 0000                       11650          DC    X'0000'                 *        GN-BYPASS               80045021
 008443 4807FF                     11651          DC    X'4807FF'               * BCR 15,15                      80052021
                             08446 11652 IOTXTII2 EQU   *                                                        80059021
1         IKFCBL51: VARIABLE A-TEXT V A R I A B L E                                                             PAGE  253
-  LOC  OBJECT CODE    ADDR1 ADDR2  STMT   SOURCE STATEMENT                                       ASM 0201 11.03 02/14/15
0                                  11654 *                                                                 37374 80073021
                                   11655 *                                                                 37374 80080021
                                   11656 *      ATXT02 THRU ZTXT02 IS GENERATED DURING CLOSE PROCESSING OF 37374 80087021
                                   11657 *      BISAM FILES FOR WHICH THE OPTIONS 'TRACK-AREA IS INTEGER'  37374 80094021
                                   11658 *      OR 'APPLY CORE-INDEX' HAVE BEEN SPECIFIED. THE CODE RESULTS37374 80101021
                                   11659 *      IN FREEMAINS OF STORAGE REQUESTED WHEN THE FILE WAS OPENED 37374 80108021
                                   11660 *                                                                 37374 80115021
0
                             08446 11662 ATXT02   EQU   *                                                  37374 80129021
 008446 4858107020                 11663          DC    X'4858107020'            L     1,        (2)       41095 80136021
 00844B 48                         11664 A02CH2   DC    X'48'                            72.OR.64          41095 80143021
 00844C 484110701000               11665          DC    X'484110701000'          LA   1,0(1)               41095 80150021
 008452 481211                     11666          DC    XL3'481211'              LTR   1,1                 41095 80157021
 008455 4428A00F                   11667          DC    XL4'4428A00F'            RESERVE 15                41095 80164021
                             08459 11668 ATXT02A  EQU   *                                                  41095 80171021
 008459 48078F                     11669          DC    XL3'48078F'              BCR 8,15                  41095 80178021
 00845C 442CA00F                   11670          DC    XL4'442CA00F'            FREE 15                   41095 80185021
 008460 481B00                     11671          DC    X'481B00'                SR   0,0                  41095 80192021
 008463 4843007020                 11672          DC    X'4843007020'            IC   0,        (2)        41095 80199021
 008468 44                         11673 A02CH1   DC    XL1'44'                    68.OR.70                37374 80206021
 008469 488900700008               11674          DC    X'488900700008'          SLL  0,8                  41095 80213021
 00846F 4843007020                 11675          DC    X'4843007020'            IC   0,        (2)        41095 80220021
 008474 45                         11676 A02CH3   DC    X'45'                           69.OR.71           41095 80227021
 008475 480A0A                     11677          DC    XL3'480A0A'         SVC  10                        37374 80234021
 008478 48D7037020                 11678          DC    X'48D7037020'       XC           (3,2),            41095 80241021
 00847D 48                         11679 A02CH4   DC    X'48'                    72.OR.64                  41095 80248021
 00847E 7020                       11680          DC    X'7020'                                        (2) 41095 80255021
 008480 48                         11681 A02CH5   DC    X'48'                                  72.OR.64    41095 80262021
                             08481 11682 ZTXT02   EQU   *                                                  41095 80269021
0
                             08481 11684 ATXT03   EQU   *                                                        80283021

                                   11686 *                                                                       80297021
                                   11687 *        THIS TEXT IS GENERATED DURING OPEN PROCESSING FOR A BISAM      80304021
                                   11688 *        FILE FOR WHICH THE OPTION 'TRACK-AREA IS INTEGER' HAS          80311021
                                   11689 *        BEEN SPECIFIED, AND CONSISTS OF A CONDITIONAL GETMAIN          80318021
                                   11690 *        FOR THE STORAGE REQUESTES BY INTEGER.                          80325021
                                   11691 *                                                                       80332021

 008481 485830640000               11693          DC    XL6'485830640000'       L    3,DCBADR                    80346021
 008487 00                         11694 A03CH1   DC    XL1'00'                               NUMBER             80353021
 008488 48D70B641C000164           11695          DC    XL11'48D70B641C0001641C0001'  XC PARMS(12),PARMS         80360021
 008493 489220641C0003             11696          DC    XL7'489220641C0003'      MVI   PARM3,X'20'               80367021
 00849A 48D201                     11697          DC    XL3'48D201'              MVC          (2),               80374021
 00849D 641C000180000002           11698          DC    XL8'641C000180000002'         PARM1+2                    80381021
 0084A5 703046                     11699          DC    XL3'703046'                               70(3)          80388021
 0084A8 484100641C0002             11700          DC    X'484100641C0002'       LA   0,PARM2                     80395021
 0084AF 485000641C0002             11701          DC    X'485000641C0002'       ST   0,PARM2                     80402021
 0084B6 484110641C0001             11702          DC    XL7'484110641C0001'      LA  1,PARM1                     80409021
 0084BD 4428A00F                   11703          DC    XL4'4428A00F'            RESERVE 15                      80416021
 0084C1 480A04                     11704          DC    XL3'480A04'              SVC  4                          80423021
 0084C4 4430A00E                   11705          DC    XL4'4430A00E'            DESTROY 14                      80430021
                             084C8 11706 ATXT03A  EQU   *                                                        80437021
1         IKFCBL51: VARIABLE A-TEXT V A R I A B L E                                                             PAGE  254
-  LOC  OBJECT CODE    ADDR1 ADDR2  STMT   SOURCE STATEMENT                                       ASM 0201 11.03 02/14/15
00084C8 4812FF                     11707          DC    XL3'4812FF'              LTR   15,15                     80444021
 0084CB 48077E                     11708          DC    XL3'48077E'              BCR   7,14                      80451021
 0084CE 4430A00E                   11709          DC    XL4'4430A00E'            DESTROY 14                      80458021
 0084D2 442CA00F                   11710          DC    XL4'442CA00F'            FREE 15                         80465021
 0084D6 48D203                     11711          DC    XL3'48D203'              MVC   (4,                       80472021
 0084D9 703040                     11712          DC    XL3'703040'                  64   3),                    80479021
 0084DC 641C0002                   11713          DC    XL4'641C0002'                        PARM2               80486021
                             084E0 11714 ZTXT03   EQU   *                                                        80493021
0
                                   11716 *                                                                 43113 80507021
                                   11717 *      ATXT04 THRU ZTXT04 IS GENERATED FOR THE EXIT PROGRAM AND   43113 80514021
                                   11718 *      GOBACK VERBS WHEN THE VERB APPEARS WITHIN A LABEL OR ERROR 43113 80521021
                                   11719 *      DECLARATIVE.                                               43113 80528021
                                   11720 *                                                                 43113 80535021

                             084E0 11722 ATXT04A  EQU   *                                                  43113 80549021
 0084E0 4805F0                     11723          DC    X'4805F0'                BALR 15,0                 43113 80556021
                             084E3 11724 ATXT04   EQU   *                                                  43113 80563021
 0084E3 48910170104B               11725          DC    X'48910170104B'          TM   75(1),X'01'          43113 80570021
 0084E9 48471070F0                 11726          DC    X'48471070F0'            BO           (15)         43113 80577021
 0084EE 1E                         11727 A04CH1   DC    X'1E'                         30.OR.14             43113 80584021
 0084EF 485810701048               11728          DC    X'485810701048'          L    1,72(1)              43113 80591021
 0084F5 4847F070F0                 11729          DC    X'4847F070F0'            B            (15)         43113 80598021
 0084FA 0E                         11730 A04CH2   DC    X'0E'                         14.OR.00             43113 80605021
 0084FB 48D24370D0047010           11731          DC    X'48D24370D004701004'    MVC  4(68,13),4(1)        43113 80612021
                             08504 11732 ZTXT04   EQU   *                                                  43113 80619021
0
 008504 4848307030                 11734 ATXT22   DC    X'4848307030'           LH   3,110                       80633021
 008509 00                         11735 A22CH1 DC    XL1'00'           OR...         3,254(3)                   80640021
 00850A 484140701008               11736        DC      XL6'484140701008'        LA   4,8(1)                     80647021
 008510 484020701004               11737        DC      XL6'484020701004'        STH  2,4(1)                     80654021
 008516 484030701006               11738        DC      XL6'484030701006'        STH  3,6(1)                     80661021
 00851C 480550                     11739        DC    XL3'480550'                BALR 5,0                        80668021
 00851F 485040701000               11740        DC      XL6'485040701000'        ST   4,0(1)                     80675021
 008525 481814                     11741        DC    XL3'481814'                LR   1,4                        80682021
 008528 481A43                     11742        DC    XL3'481A43'                AR   4,3                        80689021
 00852B 480625                     11743        DC    XL3'480625'                BCTR 2,5                        80696021
 00852E 485020701000               11744        DC    XL6'485020701000'          ST   2,0(1)                     80703021
                             08534 11745 ZTXT22 EQU   *                                                          80710021
                             08534 11746 ATXT05   EQU   *                                                  42646 80717021

                                   11748 *                                                                 42646 80731021
                                   11749 * THIS TEXT IS GENERATED FOR THE RELEASE VERB WHEN THE VERB IS    42646 80738021
                                   11750 * ACTUALLY PART OF A DUMMY (GENERATED) OUTPUT PROCEDURE           42646 80745021
                                   11751 *                                                                 42646 80752021

 008534 4891806418                 11753          DC    X'4891806418'              TM          ,X'80'      42646 80766021
 008539 0000                       11754 A05CH1   DC    X'0000'                       XSARLSE              42646 80773021
 00853B 48071E                     11755          DC    X'48071E'           BCR   ONES,14                  42646 80780021
 00853E 4858206418                 11756          DC    X'4858206418'       L    2,                        42646 80787021
 008543 0000                       11757 A05CH2   DC    X'0000'                     XSARLSE                42646 80794021
 008545 481B33                     11758          DC    X'481B33'           SR    3,3                      42646 80801021
 008548 484330702000               11759          DC    X'484330702000'            IC   3,0(2)             42646 80808021
1         IKFCBL51: VARIABLE A-TEXT V A R I A B L E                                                             PAGE  255
-  LOC  OBJECT CODE    ADDR1 ADDR2  STMT   SOURCE STATEMENT                                       ASM 0201 11.03 02/14/15
000854E 488930700008               11760          DC    X'488930700008'            SLL  3,8                42646 80815021
 008554 484330702001               11761          DC    X'484330702001'            IC   3,1(2)             42646 80822021
                             0855A 11762 ZTXT05   EQU   *                                                  42646 80829021
0
                             0855A 11764 ATXT06   EQU   *                                                  42646 80843021

                                   11766 *                                                                 42646 80857021
                                   11767 * THIS TEXT IS GENERATED FOR A READ WHEN THE VERB IS ACTUALLY     42646 80864021
                                   11768 * PART OF A DUMMY (GENERATED) INPUT PROCEDURE                     42646 80871021
                                   11769 *                                                                 42646 80878021

 00855A 4850106418                 11771          DC    X'4850106418'              ST   1,                 42646 80892021
 00855F 0000                       11772 A06CH1   DC    X'0000'                           XSARLSE          42646 80899021
 008561 48                         11773          DC    X'48'                    *                               80906021
 008562 00                         11774 A06CH4   DC    X'00'               OI.OR.NI                             80913021
 008563 00                         11775 A06CH2   DC    X'00'                           FLAG,              42646 80920021
 008564 6418                       11776          DC    X'6418'                              XSA           42646 80927021
 008566 0000                       11777 A06CH3   DC    X'000'                                  RLSE       42646 80934021
                             08568 11778 ZTXT06   EQU   *                                                  42646 80941021
0
                             08568 11780 ATXT07   EQU   *                                                  48401 80955021

                                   11782 *                                                                 48401 80969021
                                   11783 *        THIS CODING IS GENERATED FOLLOWING A QSAM WRITE AND TESTS48401 80976021
                                   11784 *        FOR AN I-O ERROR ON THAT WRITE BEFORE DOING A BL-UPDATE. 48401 80983021
                                   11785 *                                                                 48401 80990021
 008568 485820640000               11786          DC    X'485820640000'         L    2,                    48401 80997021
 00856E 00                         11787 A07CH1   DC    X'00'                          DCBADR              48401 81004021
 00856F 489140702079               11788          DC    X'489140702079'         TM   121(2),X'40'          48401 81011021
 008575 48585050                   11789          DC    X'48585050'              L    5,                   48426 81018021
 008579 0000                       11790 A07CH2   DC    X'0000'                        GN(IOERROR)         48401 81025021
 00857B 489200702079               11791          DC    X'489200702079'         MVI  121(2),X'00'          48401 81032021
 008581 480715                     11792          DC    X'480715'                BCR  1,5                  48426 81039021
                             08584 11793 ZTXT07   EQU   *                                                  48401 81046021
0
                             08584 11795 ATXT08   EQU   *                                                  58971 81060021
 008584 485810640000               11796          DC    X'485810640000'          * L    1,                 58971 81067021
 00858A 00                         11797 A08CH1   DC    X'00'                             DCBADDR          58971 81074021
 00858B 485840701024               11798          DC    X'485840701024'          * L    4,36(1)            58971 81081021
 008591 48960170401B               11799          DC    X'48960170401B'          * OI   27(4),X'01'        58971 81088021
                             08597 11800 ZTXT08   EQU   *                                                  58971 81095021
                             08597 11801 ATXT35 EQU   *                                                          81102021
 008597 48583070102C               11802          DC    X'48583070102C'         *  L  3,44(1)                    81109021
 00859D 48910F70300C               11803          DC    X'48910F70300C'         *  TM  12(3),X'0F'               81116021
 0085A3 480550                     11804        DC    XL3'480550'           *    BALR 5,0                        81123021
 0085A6 4847E07050                 11805        DC    XL5'4847E07050'                                            81130021
 0085AB 00                         11806 A35CH1 DC    XL1'00'               *    BC   14,A35CH1(5)  = 16, 18     81137021
                             085AC 11807 ZTXT35 EQU   *                                                          81144021
                             085AC 11808 ATXT25 EQU   *                                                          81151021
 0085AC 48411064400001             11809          DC    X'48411064400001'       *  LA  1,SA3                     81158021
 0085B3 480A                       11810        DC    XL2'480A'                                                  81165021
 0085B5 00                         11811 A25CH1 DC    XL1'00'               *    SVC  19   OR 20                 81172021
1         IKFCBL51: VARIABLE A-TEXT V A R I A B L E                                                             PAGE  256
-  LOC  OBJECT CODE    ADDR1 ADDR2  STMT   SOURCE STATEMENT                                       ASM 0201 11.03 02/14/15
0                            085B6 11812 ZTXT25 EQU   *                                                          81179021
                             085B6 11813 ATX35A   EQU   *                                                        81186021
 0085B6 48583070102C               11814          DC    X'48583070102C'         *  L  3,44(1)                    81193021
 0085BC 48910F70300C               11815          DC    X'48910F70300C'         *  TM  12(3),X'0F'               81200021
 0085C2 485850500000               11816 A35LGN   DC    X'485850500000'     *    L    5,GN                       81207021
 0085C8 4807E5                     11817          DC    X'4807E5'           *    BCR  14,5                       81214021
                             085CB 11818 ZTX35A   EQU   *                                                        81221021
                             085CB 11819 ATXT48 EQU   *                                                          81228021
 0085CB 44                         11820        DC    XL1'44'               FREE, RESERVE, DESTROY               81235021
 0085CC 00                         11821 A48CH2 DC    XL1'00'                                                    81242021
 0085CD A0                         11822        DC    XL1'A0'               REGISTER REF                         81249021
 0085CE 00                         11823 A48CH1 DC    XL1'00'          FREE, RESERVE OR DESTROY MACRO, ANY R     81256021
                             085CF 11824 ZTXT48 EQU   *                                                          81263021
                             085CF 11825 ATXT51 EQU   *                                                          81270021
 0085CF 489101600401               11826        DC    X'489101600401'       *    TM   SWITCH+1,X'01'             81277021
                             085D5 11827 ATXT51A  EQU   *                                                   9030 81284021
 0085D5 4858F050                   11828        DC    X'4858F050'                                                81291021
 0085D9 0000                       11829 A51CH2 DC    X'0000'               *    L    15,GN=A48CH2     GN NU     81298021
 0085DB 48071F                     11830        DC    X'48071F'             *    BCR  ONES,15                    81305021
                             085DE 11831 ZTXT51 EQU   *                                                          81312021
                             085DE 11832 ATXT52A  EQU   *                                                   4774 81319021
 0085DE 48D203641C00015C           11833          DC    X'48D203641C00015C00'    * MVC  PARAM1(4),          4774 81326021
 0085E7 00                         11834 A52CH2   DC    X'00'                                     BL        4774 81333021
                             085E8 11835 ATXT52 EQU   *                                                          81340021
 0085E8 484100641C                 11836          DC    X'484100641C'            * LA   R0,PARAM            4774 81347021
 0085ED 0001                       11837 A52CH6   DC    X'0001'                                 1.OR.2      4774 81354021
 0085EF 481810                     11838        DC    X'481810'            LR   1,0                              81361021
 0085F2 4841107010                 11839        DC    X'4841107010'        LA   1,XXX(1)      END SORT LIT       81368021
 0085F7 00                         11840 A52CH1 DC    X'00'                    (XXX=LENGTH SORT LIT)             81375021
 0085F8 48412070100F               11841        DC    X'48412070100F'      LA   R2,15(R1)   BEG REC LIT          81382021
                             085FE 11842 ATXT52B  EQU   *                                                   4774 81389021
 0085FE 481111                     11843          DC    X'481111'                * LNR  1,1                 4774 81396021
                             08601 11844 ATXT52C  EQU   *                                                   4774 81403021
 008601 4841307020                 11845        DC    X'4841307020'        LA   3,YYY(2)      END REC LIT        81410021
 008606 00                         11846 A52CH3 DC    X'00'                     (YYY=LENGTH REC LIT)             81417021
 008607 48584050                   11847        DC    X'48584050'          L   4,                                81424021
 00860B 0000                       11848 A52CH4 DC    X'0000'                    GN=INPUT PROC                   81431021
 00860D 48585050                   11849        DC    X'48585050'          L   5,                                81438021
 008611 0000                       11850 A52CH5 DC    X'0000'                    GN=OUTPUT PROC                  81445021
                             08613 11851 ZTXT52 EQU   *                                                          81452021
                                   11852 *      REG SAVERS                                                       81459021
                             08613 11853 ATXT56 EQU   *                                                          81466021
 008613 48411070                   11854        DC    X'48411070'                                                81473021
 008617 0000                       11855 A56CH1 DC    X'0000'                         *    LA   1,LENGTH-1 *     81480021
 008619 481B22                     11856        DC    X'481B22'                       *    SR   2,2              81487021
 00861C 442CA003                   11857        DC    X'442CA003'                     *    FREE 3                81494021
 008620 480530                     11858        DC    X'480530'                       *    BALR 3,0              81501021
                             08623 11859 ZTXT56 EQU   *                                                          81508021
                             08623 11860 ATXT59 EQU   *                                                          81515021
 008623 481B33                     11861        DC    X'481B33'                       *    SR   XRD,XRD          81522021
 008626 4843306428                 11862        DC    X'4843306428'                   *    IC   XRD,XSASW  *     81529021
 00862B 0000                       11863 A59CH1 DC    X'0000'                         *    OI   XSASW,MSWON*     81536021
 00862D 4896016428                 11864        DC    X'4896016428'                        (XRD=3)               81543021
 008632 0000                       11865 A59CH2 DC    X'0000'                                                    81550021
                             08634 11866 ZTXT59 EQU   *                                                          81557021
1         IKFCBL51: VARIABLE A-TEXT V A R I A B L E                                                             PAGE  257
-  LOC  OBJECT CODE    ADDR1 ADDR2  STMT   SOURCE STATEMENT                                       ASM 0201 11.03 02/14/15
0                            08634 11867 ATXT62 EQU   *                                                          81564021
 008634 484110701001               11868        DC    X'484110701001'                 *    LA   XRA,1(XRA)       81571021
 00863A 4850106408                 11869        DC    X'4850106408'                   *    ST   XRA,ONCT=HI*     81578021
 00863F 0000                       11870 A62CH1 DC    X'0000'                              (XRA = 1)             81585021
                             08641 11871 ZTXT62 EQU   *                                                          81592021
                             08641 11872 ATXT63 EQU   *                                                          81599021
 008641 4430A00F                   11873        DC    X'4430A00F'           *    DESTROY    15                   81606021
 008645 4858F050                   11874          DC    X'4858F050'       * L   15,GN=                           81613021
 008649 0000                       11875 A63CH2   DC    X'0000'                                                  81620021
 00864B 48078F                     11876          DC    X'48078F'         * BCR  8,15                            81627021
 00864E 4858106408                 11877        DC    X'4858106408'                                              81634021
 008653 0000                       11878 A63CH1 DC    X'0000'               *    L    XRA,ONCTR=LO               81641021
                             08655 11879 ZTXT63 EQU   *                                                          81648021
                             08655 11880 ATXT66 EQU   *                                                          81655021
 008655 48078F                     11881          DC    X'48078F'         * BCR  8,15                            81662021
 008658 484110701001               11882        DC    X'484110701001'       *    LA   XRA,1(XRA)                 81669021
 00865E 4850106408                 11883        DC    X'4850106408'                                              81676021
 008663 0000                       11884 A66CH1 DC    X'0000'               *    ST   XRA,ONCTR=LO               81683021
 008665 4807F2                     11885        DC    X'4807F2'             *    BCR  UNCOND,XRB                 81690021
 008668 34                         11886          DC    X'34'                                                    81697021
 008669 0000                       11887 A66CH3   DC    X'0000'           GN DEF                                 81704021
 00866B 481B11                     11888        DC    X'481B11'             *    SR   XRA,XRA                    81711021
 00866E 4850106408                 11889        DC    X'4850106408'                                              81718021
 008673 0000                       11890 A66CH2 DC    X'0000'               *    ST   XRA,ONCTR=L/               81725021
                             08675 11891 ZTXT66 EQU   *                                                          81732021
                                   11892 *      NOTE... XRA IS ASSUMED = 1, XRB = 2.                             81739021
                             08675 11893 ATXT65 EQU   *                                                          81746021
 008675 4858F050                   11894        DC    X'4858F050'                L   15,GN             CH2*      81753021
 008679 0000                       11895 A65CH2 DC    X'0000'                                                    81760021
 00867B 4850F0600800               11896        DC    X'4850F0600800'            ST  15,SORTSAVE                 81767021
 008681 4430A00F                   11897        DC    X'4430A00F'                DESTROY 15                      81774021
 008685 4858E06418                 11898        DC    X'4858E06418'              L   14,XSA                      81781021
 00868A 0000                       11899 A65CH1 DC    X'0000'                                          CH1*      81788021
 00868C 4428A00E                   11900        DC    X'4428A00E'                RESERVE 14                      81795021
 008690 48052E                     11901        DC    X'48052E'                  BALR 2,14                       81802021
 008693 4858F0600800               11902        DC    X'4858F0600800'            L   15,SORTSAVE                 81809021
 008699 4430A00F                   11903        DC    X'4430A00F'                DESTROY 15                      81816021
 00869D 4807FF                     11904        DC    X'4807FF'                  BCR 15,15                       81823021
 0086A0 4850E06418                 11905        DC    X'4850E06418'              ST  14,XSA            CH3*      81830021
 0086A5 0000                       11906 A65CH3 DC    X'0000'                                                    81837021
 0086A7 442CA00E                   11907        DC    X'442CA00E'          FREE 14                               81844021
                             086AB 11908 ZTXT65 EQU   *                                                          81851021
                             086AB 11909 ATXT67 EQU   *                                                          81858021
 0086AB 484110641C0001             11910        DC    X'484110641C0001'          *    LA   1,PARAM=1             81865021
 0086B2 48D70F7010007010           11911        DC    X'48D70F701000701000'      *    XC   0(16,1),0(1)          81872021
 0086BB 485010701008               11912        DC    X'485010701008'            *    ST   1,8(1)                81879021
 0086C1 484110701001               11913        DC    X'484110701001'            *    LA   1,1(1)                81886021
 0086C7 485020701003               11914        DC    X'485020701003'      * ST 2,3(1)                           81893021
 0086CD 484110701003               11915        DC    X'484110701003'      * LA   1,3(1)                         81900021
 0086D3 4892                       11916        DC    X'4892'                                                    81907021
 0086D5 00                         11917 A67CH2 DC    X'00'                      *    MVI  0(1),1 .OR. ,LENG     81914021
 0086D6 701000                     11918        DC    X'701000'                                                  81921021
 0086D9 4892                       11919        DC    X'4892'                                                    81928021
 0086DB 00                         11920 A67CH3 DC    X'00'                                                      81935021
 0086DC 701009                     11921        DC    X'701009'             *    MVI   9(1),28   OR   ALT. L     81942021
1         IKFCBL51: VARIABLE A-TEXT V A R I A B L E                                                             PAGE  258
-  LOC  OBJECT CODE    ADDR1 ADDR2  STMT   SOURCE STATEMENT                                       ASM 0201 11.03 02/14/15
00086DF 48928070100A               11922          DC    X'48928070100A'         *  MVI  10(1),X'80'              81949021
 0086E5 480A23                     11923        DC    X'480A23'                  *    SVC  35                    81956021
 0086E8 484110641C0001             11924        DC    X'484110641C0001'          *    LA   1,PARAM=1             81963021
 0086EF 484100700001               11925        DC    X'484100700001'            *    LA   0,1                   81970021
 0086F5 480A01                     11926        DC    X'480A01'                  *    SVC  1                     81977021
                             086F8 11927 ZTXT67 EQU   *                                                          81984021
                                   11928 *                                                                       81991021
                             086F8 11929 ATXT68   EQU   *                                                  7882  81998021
 0086F8 4850106418                 11930          DC    X'4850106418'       * ST   1,XSA-CELL              7882  82005021
 0086FD 0000                       11931 A68CH1   DC    X'0000'             *                NUMBER        7882  82012021
                             086FF 11932 ZTXT68   EQU   *                                                  7882  82019021
                             086FF 11933 ATXT69   EQU   *                                                        82026021
 0086FF 48D2007030057020           11934          DC    X'48D2007030057020FC'   *  MVC  5(1,3),252(2)            82033021
                             08708 11935 ZTXT69   EQU   *                                                        82040021
                                   11936 *                                                                       82047021
 008708 489200703005               11937 ATXT70 DC    X'489200703005'               * MVI  5(3),CODE             82054021
                             0870E 11938 ZTXT70 EQU   *                                                          82061021
                             0870E 11939 ATXT71   EQU   *                                                  7882  82068021
 00870E 4858406418                 11940          DC    X'4858406418'       L     4,XSA-CELL               43150 82075021
 008713 0000                       11941 A71CH1   DC    X'0000'             *                NUMBER        7882  82082021
                             08715 11942 ZTXT71   EQU   *                                                  7882  82089021
                             08715 11943 ATXT75   EQU   *                                                  7882  82096021
 008715 481B33                     11944          DC    X'481B33'           SR    3,3                      43150 82103021
 008718 484330704000               11945          DC    X'484330704000'     IC    3,0(0,4)                 43150 82110021
 00871E 488930700008               11946          DC    X'488930700008'     SLL   3,8                      43150 82117021
 008724 484330704001               11947          DC    X'484330704001'     IC    3,1(0,4)                 43150 82124021
                             0872A 11948 ZTXT75   EQU   *                                                  7882  82131021
                             0872A 11949 ATXT100  EQU   *                                                        82138021
 00872A 4428A00F                   11950          DC    X'4428A00F'        RESERVE 15                            82145021
 00872E 4858F070D1B0               11951          DC    X'4858F070D1B0'         L  15,1B0(13) ADDR INIT1    9652 82152021
 008734 48900E70F038               11952          DC    XL6'48900E70F038'       STM  0,14,SAVEP2            9652 82159021
 00873A 485810643C0001             11953          DC    X'485810643C0001'        L    1,SAVE-2             43113 82166021
 008741 4805F0                     11954          DC    XL3'4805F0'         BALR 15,0                            82173021
 008744 489110600400               11955          DC    XL6'489110600400'   TM SWITCH,X'10'                      82180021
 00874A 4847E070F00E               11956          DC    XL6'4847E070F00E'       BC  OFF,14(15)              9652 82187021
 008750 4858F058                   11957          DC    XL4'4858F058'       * L    15,=V(ILBOSTP1)               82194021
 008754 0000                       11958 A100CH1  DC    XL2'0000'                                                82201021
 008756 4807FF                     11959          DC    XL3'4807FF'         BCR 15,15                            82208021
                             08759 11960 ZTXT100  EQU   *                                                        82215021
                             08759 11961 ATXT101  EQU   *                                                        82222021
 008759 4848F070D05C               11962          DC    XL6'4848F070D05C'   * LH   15,92(13)                     82229021
                                   11963 *DEL                                                               4311 82236021
 00875F 4858D070D004               11964          DC    XL6'4858D070D004'   L 13,4(13)                           82243021
 008765 48980C70D014               11965          DC    XL6'48980C70D014'   * LM   0,12,20(13)                   82250021
 00876B 4858E070D00C               11966          DC    X'4858E070D00C'    * L  14,12(13)                        82257021
                                   11967 *DEL                                                               4311 82264021
 008771 4807FE                     11968          DC    XL3'4807FE'         BCR 15,14                            82271021
 008774 4430A00E                   11969          DC    X'4430A00E'              DESTROY 14                43113 82278021
 008778 442CA00F                   11970          DC    X'442CA00F'              FREE    15                43113 82285021
                             0877C 11971 ZTXT101  EQU   *                                                        82292021
                             0877C 11972 ATXT102  EQU   *                                                        82299021
 00877C 4428A00F                   11973          DC    X'4428A00F'        RESERVE 15                            82306021
 008780 485810643C0001             11974          DC    X'485810643C0001'        L    1,SAVE-2             43113 82313021
 008787 4805F0                     11975          DC    XL3'4805F0'         BALR 15,0                            82320021
 00878A 489110600400               11976          DC    XL6'489110600400'   TM SWITCH,X'10'                      82327021
1         IKFCBL51: VARIABLE A-TEXT V A R I A B L E                                                             PAGE  259
-  LOC  OBJECT CODE    ADDR1 ADDR2  STMT   SOURCE STATEMENT                                       ASM 0201 11.03 02/14/15
0008790 48471070F0                 11977          DC    X'48471070F0'            BC   ON,        (15)      43113 82334021
 008795 22                         11978 A102CH1  DC    X'22'                            30.OR.58          60604 82341021
 008796 4858F070D1B0               11979          DC    X'4858F070D1B0'          L 15,1B0(13)                    82348021
 00879C 48900E70F038               11980          DC    X'48900E70F038'          STM  0,14,SAVEP2                82355021
                             087A2 11981 ZTXT102  EQU   *                                                        82362021
                             087A2 11982 ATXT103  EQU   *                                                        82369021
 0087A2 4858F058                   11983          DC    XL4'4858F058'       * L    15,=V(ILBOSTP1)               82376021
 0087A6 0000                       11984 A103CH1  DC    XL2'0000'                                                82383021
 0087A8 4807FF                     11985          DC    XL3'4807FF'        BCR 15,15                             82390021
                             087AB 11986 ZTXT103  EQU   *                                                        82397021
 0087AB 480008                     11987 ATXT99 DC    X'480008'            * CNOP 2,4  GET DC ON FULL-WD         82404021
 0087AE 480530                     11988        DC    X'480530'            * BALR 3,0                            82411021
 0087B1 484780703018               11989        DC    X'484780703018'      * BC  8,24(3) BR 6 BYTES PAST OR      82418021
 0087B7 4847F070300C               11990        DC    X'4847F070300C'      * BC  15,12(3)                        82425021
 0087BD 44246C04                   11991        DC    X'44246C04'          * DC OF ....                          82432021
 0087C1 00000000                   11992 A99CH1 DC    X'00000000'               LITERAL-Q                        82439021
 0087C5 485800703008               11993        DC    X'485800703008'      * L  0,8(3) PICK UP LIT-Q             82446021
 0087CB 481610                     11994        DC    X'481610'            * OR 1,0                              82453021
                             087CE 11995 ZTXT99 EQU   *                                                          82460021
                             087CE 11996 ATXT106  EQU   *                                                        82467021
 0087CE 48581064500000             11997 A106CH1  DC    X'48581064500000'   L    1,CKPTSV#X PICK UP COUNTER      82474021
 0087D5 48585050                   11998          DC    X'48585050'                                              82481021
 0087D9 0000                       11999 A106CH2  DC    X'0000'                 GN NUMBER                        82488021
 0087DB 480615                     12000          DC    X'480615'                                                82495021
 0087DE 48581064000000             12001 A106CH3  DC    X'48581064000000'   L    1,DCBADR#N  COUNTER=ZERO        82502021
                             087E5 12002 ZTXT106  EQU   *                                                        82509021
                             087E5 12003 ATXT110  EQU   *                                                        82516021
 0087E5 4858004C                   12004          DC    X'4858004C'        * L    0,                             82523021
 0087E9 000000                     12005 A110CH1  DC    X'000000'                    PN                          82530021
                                   12006 *DEL                                                                    82537021
 0087EC 4428A00E                   12007          DC    X'4428A00E'        RESERVE 14                            82544021
 0087F0 4858E0640C                 12008          DC    X'4858E0640C'      * L    14,                            82551021
 0087F5 0000                       12009 A110CH2  DC    X'0000'                      PFMCTL                      82558021
 0087F7 4806E0                     12010          DC    X'4806E0'          * BCTR 14,0                           82565021
 0087FA 4850E0640C                 12011          DC    X'4850E0640C'      * ST   14,                            82572021
 0087FF 0000                       12012 A110CH3  DC    X'0000'                       PFMCTL                     82579021
 008801 4812EE                     12013          DC    X'4812EE'          * LTR  14,14                          82586021
 008804 442CA00E                   12014          DC    X'442CA00E'        FREE 14                               82593021
                             08808 12015 ZTXT110  EQU   *                                                        82600021
                             08808 12016 ATXT115  EQU   *                                                        82607021
 008808 481B00                     12017          DC   X'481B00'                * SR   0,0                       82614021
 00880B 48490070D05E               12018          DC   X'48490070D05E'          * CH   0,SORT-RETURN             82621021
 008811 48581050                   12019          DC   X'48581050'              * L    1,                        82628021
 008815 0000                       12020 A115CH1  DC   X'0000'                  *        GN                      82635021
 008817 480781                     12021          DC   X'480781'                * BCR  EQUAL,1                   82642021
                             0881A 12022 ZTXT115  EQU   *                                                        82649021
                             0881A 12023 IOTXTZ9  EQU   *                                                        82656021
 00881A 484350704014               12024          DC    X'484350704014'         *  IC  5,20(4)                   82663021
 008820 489200704014               12025          DC    X'489200704014'          MVI  20(4),X'00'                82670021
 008826 480A1F                     12026          DC    X'480A1F'               *  SVC  31                       82677021
 008829 484250704014               12027          DC    X'484250704014'         *  STC  5,20(4)                  82684021
                             0882F 12028 IOTXTZ99 EQU   *                                                        82691021
                             0882F 12029 IOTXTZA1 EQU   *                                                        82698021
 00882F 48412064200009             12030          DC    X'48412064200009'   LA  2,WS+8 (THIRD WORD)              82705021
 008836 48502064200001             12031          DC    X'48502064200001'   ST  2,WS (FIRST WORD)                82712021
1         IKFCBL51: VARIABLE A-TEXT V A R I A B L E                                                             PAGE  260
-  LOC  OBJECT CODE    ADDR1 ADDR2  STMT   SOURCE STATEMENT                                       ASM 0201 11.03 02/14/15
000883D 485820640000               12032          DC    X'485820640000'     L   2,DCBADD                         82719021
                             08843 12033 IOTXTZA2 EQU   *                                                        82726021
 008843 00                         12034          DC    X'00'               DCB #                                82733021
 008844 484110702068               12035          DC    X'484110702068'     LA  1,104(2)                         82740021
 00884A 4841F064200001             12036          DC    X'4841F064200001'   LA  15,WS                            82747021
 008851 480A06                     12037          DC    X'480A06'           SVC 6                                82754021
                             08854 12038 IOTXTZA3 EQU   *                                                        82761021
                             08854 12039 IOTXTZZ1 EQU   *                                                   1139 82768021
 008854 4891C0702051               12040          DC    X'4891C0702051'     * TM   81(2),X'C0'              1139 82775021
 00885A 4428A00E                   12041          DC    XL4'4428A00E'       * RESERVE 14                    1139 82782021
 00885E 4858E050                   12042          DC    X'4858E050'         * L    14,                      1139 82789021
 008862 0000                       12043 IOTXTZZ2 DC    X'0000'             *         GNADR                 1139 82796021
 008864 48077E                     12044          DC    X'48077E'           * BCR  7,14                     1139 82803021
 008867 442CA00E                   12045          DC    XL4'442CA00E'       * FREE 14                       1139 82810021
                             0886B 12046 IOTXTZZ3 EQU   *                                                   1139 82817021
1         MORE CONSTANTS                                                                                        PAGE  261
-  LOC  OBJECT CODE    ADDR1 ADDR2  STMT   SOURCE STATEMENT                                       ASM 0201 11.03 02/14/15
0                            0886B 12048 IOTXTOP1 EQU   *                                                        82831021
 00886B 4858407010                 12049          DC    X'4858407010'           L 4,100 OR 92(1)                 82838021
                             08870 12050 IOTXTOP2 EQU   *                                                        82845021
 008870 00                         12051          DC    X'00'                                                    82852021
 008871 48D2037040047010           12052          DC    X'48D203704004701068'    MVC  4(4,4),104(1)              82859021
 00887A 481854                     12053          DC    X'481854'                * LR  R5,R4                     82866021
 00887D 48415070500C               12054          DC    X'48415070500C'          * LA  R5,12(R5)                 82873021
 008883 485050704000               12055          DC    X'485050704000'          * ST  R5,0(R4)                  82880021
 008889 48D7077040087040           12056          DC    X'48D707704008704008'    * XC  8(8,R4),8(R4)             82887021
                             08892 12057 IOTXTOP3 EQU   *                                                        82894021
 008892 485840701070               12058 IOTXTZB1 DC    X'485840701070'    * L R4,112(R1) R4=A(RCD)              82901021
 008898 4892                       12059          DC    X'4892'            * MVI 0(R4),X'00' OR X'40'            82908021
 00889A 00                         12060 ZB1CHNG  DC    X'00'                                                    82915021
 00889B 704000                     12061          DC    X'704000'                                                82922021
                             0889E 12062 IOTXTZB2 EQU   *                                                        82929021
                                   12063 ***                                                                     82936021
                                   12064 ***      PATCH AREA FOR VARIABLE ATEXT                                  82943021
                                   12065 ***      MUST BE KEPT AT END OF TEXT AREA                               82950021
                                   12066 ***                                                                     82957021
 00889E 4040404040404040           12067 VTXTPTCH DC    CL50' '             PATCH AREA                           82964021
0
 0088D0 C9C7C7F0F1F9C2F0           12069 MODCON   DC    CL8'IGG019B0'       BUFFER AND RECORD CONTROL INITIALIZE 82978021
 0088D8 00000000                   12070 PR35SV DC      1F'00000000'                                             82985021
 0088DC                            12071 REMLGH   DS    1F                                                       82992021
 0088E0                            12072 MYSAVE DS    1F                   TSTRPD RTN SAVES R14 HERE             82999021
 0088E4                            12073        DS    0F                                                         83006021
 0088E4                            12074 ELEMTB DS    620C                  DOPS 1 THRU 5 HERE                   83013021
1         E  Q  U  A  T  E  S                                                                                   PAGE  262
-  LOC  OBJECT CODE    ADDR1 ADDR2  STMT   SOURCE STATEMENT                                       ASM 0201 11.03 02/14/15
0                            00000 12076 RW0    EQU   0                                                          83027021
                             00000 12077 R0     EQU     0     'ACCUMULATOR'                                      83034021
                             00001 12078 RW1    EQU     1      INDEX AND WORK REGISTERS                          83041021
                             00002 12079 RW2    EQU     2      *                                                 83048021
                             00003 12080 RW3    EQU     3      *                                                 83055021
                             00004 12081 RW4    EQU     4      *                                                 83062021
                             00005 12082 RW5    EQU     5      *                                                 83069021
                             00006 12083 RW6    EQU     6      *                                                 83076021
                             00008 12084 RB1    EQU   8                                                          83083021
                             00009 12085 STNGR  EQU   9                                                          83090021
                             00081 12086 MCARD  EQU     X'81'   CARD NUMBER CODE                                 83097021
                             0007C 12087 OPSIZ  EQU   124   MAX SIZE NEEDED FOR ENTRIES IN ELEMTB                83104021
                             07C79 12088 ANALNO EQU     HEADER+1 ANALYZER NUMBER                                 83111021
                             07C7A 12089 ELEMCT EQU     HEADER+2 ELEMENT COUNT                                   83118021
                                   12090 *        EQUATES FOR EXAMINE ANALYZER AND A TEXT GENERATOR              83125021
                             00004 12091 OPD1   EQU   4                                                          83132021
                             00005 12092 OPD2   EQU   5                                                          83139021
                             00006 12093 OPD3   EQU   6                                                          83146021
                             00000 12094 GR1    EQU   0                                                          83153021
                             0000F 12095 GR15   EQU     15                                                       83160021
                             00000 12096 GRX    EQU   0                                                          83167021
                             00001 12097 GRX1   EQU   1                                                          83174021
                             00002 12098 GRY    EQU   2                                                          83181021
                             00003 12099 GRY1   EQU   3                                                          83188021
                             00009 12100 GXRA   EQU   9                                                          83195021
                             00080 12101 HFWORD EQU     X'80'         1 IF HALFWORD WANTED                       83202021
                             00040 12102 TWOADR EQU     X'40'         1 IF SS TYPE INSTRUCTION                   83209021
                             00001 12103 GAD1DN EQU   1        1 IF ADR 1 DONE                                   83216021
                             00020 12104 DECBIN EQU   X'20'           1 IF WANT DEC TO BIN CONVERSION            83223021
                             00010 12105 DBLFPT EQU   X'10'           1 IF DOUBLE FLOATING POINT                 83230021
                             00004 12106 DECOP  EQU   X'04'           1 IF DECIMAL OP                            83237021
                             000FF 12107 SPREG  EQU   X'FF'                'I' FLD IN SPEC REG IDK               83244021
                             0000E 12108 RETRG  EQU   14                                                         83251021
                             00001 12109 XRA    EQU   1                                                          83258021
                             00002 12110 XRB    EQU   2                                                          83265021
                             00001 12111 XRC    EQU   1                                                          83272021
                             0000B 12112 GBRG1  EQU   11              BASE REGISTER FOR EXAMINE AND A TEXT       83279021
                             00003 12113 GR14   EQU   3                                                          83286021
                             00001 12114 QR     EQU   1                     Q ROUTINE REGISTER ASSIGNMENTS       83293021
                             00002 12115 QR2    EQU   2                                                          83300021
                             00003 12116 QR3    EQU   3                                                          83307021
1         E  Q  U  A  T  E  S                                                                                   PAGE  263
-  LOC  OBJECT CODE    ADDR1 ADDR2  STMT   SOURCE STATEMENT                                       ASM 0201 11.03 02/14/15
0                                  12118 *   STANDARD EQUATES FOR BC INSTRUCTIONS                                83321021
                             0000F 12119 UNCOND EQU   15                                                         83328021
                             00002 12120 HI     EQU   2                                                          83335021
                             00004 12121 LO     EQU   4                                                          83342021
                             00008 12122 EQ     EQU   8                                                          83349021
                             0000D 12123 NOTHI  EQU   13                                                         83356021
                             0000B 12124 NOTLO  EQU   11                                                         83363021
                             00007 12125 NOTEQ  EQU   7                                                          83370021
                             00004 12126 NEG    EQU   4                                                          83377021
                             00008 12127 ZERO   EQU   8                                                          83384021
                             0000B 12128 NOTNEG EQU   11                                                         83391021
                             00007 12129 NOTZER EQU   7                                                          83398021
                             00001 12130 ONE      EQU   1                                                        83405021
                             00001 12131 ONES   EQU   1                                                          83412021
                             00004 12132 MIXED  EQU   4                                                          83419021
                             0000E 12133 NOTONE EQU   14                                                         83426021
                             0000B 12134 NOTMXD EQU   11                                                         83433021
                             00000 12135 NOP    EQU   0                                                          83440021
                             07D31 12136 GMCTYP EQU   IMM                                                        83447021
                             088E4 12137 DOP1   EQU   ELEMTB                                                     83454021
                             08960 12138 DOP2   EQU   ELEMTB+OPSIZ*1                                             83461021
                             089DC 12139 DOP3   EQU   ELEMTB+OPSIZ*2                                             83468021
                             08A58 12140 DOP4   EQU   ELEMTB+OPSIZ*3                                             83475021
                             08AD4 12141 DOP5   EQU   ELEMTB+OPSIZ*4                                             83482021
                             08A58 12142 SBEGIN EQU   ELEMTB+OPSIZ*3       BEG OF SORT WORK BUFFER               83489021
                             089DE 12143 RPPAT  EQU   DOP3+2                                                     83496021
                             089DD 12144 RPPATM EQU   DOP3+1                                                     83503021
                             0015E 12145 FIVEGN EQU   GNCTR                                                      83510021
                             00093 12146 GCNLGN EQU   COUNT-XL1+1     LENGTH FOR CLEARING WORK AREA              83517021
                             0000A 12147 DON    EQU   PH5CTL                                                     83524021
                             00001 12148 SIGNED EQU   1                                                          83531021
                             0000F 12149 POSI   EQU   X'0F'                                                      83538021
                             0000F 12150 HIBITS EQU   X'0F'               TURN OFF HIGH ORDER 4 BITS             83545021
1         E  Q  U  A  T  E  S                                                                                   PAGE  264
-  LOC  OBJECT CODE    ADDR1 ADDR2  STMT   SOURCE STATEMENT                                       ASM 0201 11.03 02/14/15
0                                  12152 *=1  EQU'S FOR ARITHMETIC.                                              83559021
                                   12153 *      TAMER  DEFINITION  OF TIB  -                                     83566021
                                   12154 *                                                                       83573021
                             00084 12155 XSEGM  EQU   TIB15-COS                                                  83580021
                             00014 12156 XINTR  EQU   TIB1-COS              INTERMEDIATE RESULT TABLE            83587021
                             0001C 12157 XAVAL  EQU   TIB2-COS              TEMP. STORAGE AVAL. TABLE            83594021
                             0002C 12158 XSSNT  EQU   TIB4-COS              SUBSCRIPT-INDEX ID TABLE             83601021
                             0003C 12159 PNUTBL EQU   TIB6-COS              PN USE TABLE                         83608021
                             00124 12160 RUNTBL   EQU   TIB35-COS                                                83615021
                             0008C 12161 GNCALTBL EQU    TIB16-COS                GN CALL TABLE             7330 83622021
                             000DC 12162 USETBL   EQU   TIB26-COS           DECLARATIVE PN/ATTRIBUTE TABLE 43521 83629021
                                   12163 *                                                                       83636021
                                   12164 *  TAMER ADCONS                                                         83643021
                             0012C 12165 XPRIM  EQU   APRIME                                                     83650021
                             00130 12166 XINST EQU   AINSRT                                                      83657021
                             00138 12167 XTABL  EQU   RELADD                                                     83664021
                                   12168 ******************************                                          83671021
                                   12169 *                                                                       83678021
                                   12170 *                                                                       83685021
                                   12171 *      ERROR MESSAGES NUMBER.                                           83692021
                                   12172 *                                                                       83699021
                             00001 12173 ERRN01 EQU   1                                                          83706021
                                   12174 *               ERROR NO  1.LOGIC ERROR IN XRDBIR ROUTINE.              83713021
                             00002 12175 ERRN02 EQU   2                                                          83720021
                                   12176 *               ERROR NO  2.LOGIC ERROR IN SSCRPT ROUTINE.              83727021
                             00003 12177 ERRN03 EQU   3                                                          83734021
                                   12178 *               ERROR NO  3.LEVEL 1 - DIVISOR IS 0.                     83741021
                             00004 12179 ERRN04 EQU   4                                                          83748021
                                   12180 *                 ERROR NO. 4. TRUNCATION OF AN. SENDING FIELD          83755021
                             00005 12181 ERRN05 EQU   5                                                          83762021
                                   12182 *               ERROR NO  5.LOGIC ERROR IN MOVE PROCESSOR.              83769021
                             00006 12183 ERRN06 EQU   6                                                          83776021
                                   12184 *               ERROR NO  6.LOGIC ERROR IN MOVE OR STORE PROCESSOR.     83783021
                             00007 12185 ERRN07 EQU   7                                                          83790021
                                   12186 *               ERROR NO 7.LOGIC ERROR IN XSETVL ROUTINE.               83797021
                             00008 12187 ERRN08 EQU   8                                                          83804021
                                   12188 *               ERROR NO  8.LOGIC ERROR IN FPCVBH ROUTINE.              83811021
                             00009 12189 ERRN09 EQU   9                                                          83818021
                                   12190 *               ERROR NO  9.LOGIC ERROR IN XSUDB3 ROUTINE.              83825021
                             0000A 12191 ERRN10 EQU   10                                                         83832021
                                   12192 *               ERROR NO 10.LEVEL 1.TRUNCATION OF A LIT INT. RES.       83839021
                             0000B 12193 ERRN11 EQU   11                                                         83846021
                                   12194 *               ERROR NO 11.LEVEL 0. POSSIBLE TRUNCATION OF AN IN.      83853021
                                   12195 *                                                                       83860021
                             0000C 12196 ERRN12 EQU   12                                                         83867021
                                   12197 *               ERROR NO 12.LOGIC ERROR.LOST IR IN XINTR TABLE(XINS     83874021
                             0000D 12198 ERRN13 EQU   13                                                         83881021
                                   12199 *            ERROR NUMB.13 COMPARISON OF TWO LITERALS  LEVEL 1          83888021
                             0000E 12200 ERRN14   EQU   14                                                       83895021
                                   12201 *              ERROR NO 14. KEY IN SEARCH ALL AT INVALID OFFSET         83902021
                             0000F 12202 ERRN15 EQU   15                                                         83909021
                                   12203 *              ERROR NO 15. INVALID USE OF SPECIAL REGISTER             83916021
                             00010 12204 ERRN16 EQU   16                                                         83923021
                                   12205 *              ERROR NO. 16. MORE THAN 255 SUBSCRIPT CELLS USED.        83930021
                             00011 12206 ERRN17 EQU   17                                                         83937021
1         E  Q  U  A  T  E  S                                                                                   PAGE  265
-  LOC  OBJECT CODE    ADDR1 ADDR2  STMT   SOURCE STATEMENT                                       ASM 0201 11.03 02/14/15
0                                  12207 *              ERROR NO. 17. EXHIBIT CHANGED OPERAND GR                 83944021
                                   12208 *                  THAN 256 BYTES. ASSUME 256.                          83951021
                             00012 12209 ERRN18 EQU   18                                                         83958021
                                   12210 *            NAME OF IDENTIFIER IN EXHIBIT EXCEEDS MAXIMUM.             83965021
                                   12211 *            TRUNCATED TO 120.                                          83972021
0
                                   12213 *      REG.DEFINITION-                                                  83986021
                                   12214 *      WORK REGISTERS-                                                  83993021
                             00000 12215 XR0    EQU   0                                                          84000021
                             00001 12216 XR1    EQU   1                                                          84007021
                             00002 12217 XR2    EQU   2                                                          84014021
                             00003 12218 XR3    EQU   3                                                          84021021
                             00004 12219 XR4    EQU   4                                                          84028021
                             00005 12220 XR5    EQU   5                                                          84035021
                             00006 12221 XR6    EQU   6                                                          84042021
                                   12222 *                                                                       84049021
                             0000D 12223 R13    EQU   13                                                         84056021
                             00000 12224 FRW0   EQU   0                                                          84063021
                             0000F 12225 XR15   EQU   15                                                         84070021
0
                                   12227 *      BASE REGISTERS-                                                  84084021
                             00007 12228 XRBAS1 EQU   7                BASE REG FOR ARITH.                       84091021
                             0000A 12229 XRBAS2 EQU   10                 -   -    -   -  .                       84098021
                             0000D 12230 XRDATA EQU   13                                                         84105021
                             0000C 12231 XRCONS EQU   12                 -   -    - CONSTANTS.                   84112021
                             0000F 12232 XRVAR  EQU   15               VARIABLE BASE REG.                        84119021
                             00009 12233 XRVERB EQU   STNGR            VERBE REGISTER.                           84126021
                             0000E 12234 XRSUB  EQU   14               LINKAGE REGISTER.                         84133021
                             0000E 12235 R14      EQU   14                                                       84140021
                             0000F 12236 R15      EQU   15                                                       84147021
                             00060 12237 WORKAB   EQU   96                                                       84154021
0
                                   12239 *************************                                               84168021
                                   12240 *      TRANSFER CODES                                                   84175021
0
                             0000F 12242 UNCON  EQU   15                                                         84189021
                             0000E 12243 NOTHR  EQU   X'E'                                                       84196021
                             00008 12244 XZERO  EQU   8                                                          84203021
                             00004 12245 XONE   EQU   4                                                          84210021
                             00002 12246 XTWO   EQU   2                                                          84217021
                             00001 12247 XTHRE  EQU   1                                                          84224021
                             00007 12248 XNOEQ  EQU   7                                                          84231021
                             0000D 12249 XNOGT  EQU   X'D'                                                       84238021
                             0000C 12250 XLOEQ  EQU   X'C'                                                       84245021
                             0000A 12251 XGTEQ  EQU   X'A'                                                       84252021
                                   12252 *DEL                                                               5189 84259021
                                   12253 *DEL                                                               5189 84266021
                                   12254 *DEL                                                               5189 84273021
                                   12255 *DEL                                                               5189 84280021
                                   12256 *DEL                                                               5189 84287021
                                   12257 *DEL                                                               5189 84294021
1         E  Q  U  A  T  E  S                                                                                   PAGE  266
-  LOC  OBJECT CODE    ADDR1 ADDR2  STMT   SOURCE STATEMENT                                       ASM 0201 11.03 02/14/15
0                                  12258 *DEL                                                               5189 84301021
                                   12259 *DEL                                                               5189 84308021
                                   12260 *DEL                                                               5189 84315021
                                   12261 *DEL                                                               5189 84322021
                                   12262 *DEL                                                               5189 84329021
                                   12263 *DEL                                                               5189 84336021
                                   12264 *DEL                                                               5189 84343021
                                   12265 *DEL                                                               5189 84350021
                                   12266 *DEL                                                               5189 84357021
                                   12267 *DEL                                                               5189 84364021
                                   12268 *DEL                                                               5189 84371021
                                   12269 *DEL                                                               5189 84378021
                                   12270 *DEL                                                               5189 84385021
                                   12271 *DEL                                                               5189 84392021
                                   12272 *DEL                                                               5189 84399021
                                   12273 *DEL                                                               5189 84406021
                                   12274 *DEL                                                               5189 84413021
                                   12275 *DEL                                                               5189 84420021
                                   12276 *DEL                                                               5189 84427021
                                   12277 *DEL                                                               5189 84434021
                                   12278 *DEL                                                               5189 84441021
                                   12279 *DEL                                                               5189 84448021
                                   12280 *DEL                                                               5189 84455021
                                   12281 *DEL                                                               5189 84462021
                                   12282 *DEL                                                               5189 84469021
                                   12283 *DEL                                                               5189 84476021
                                   12284 *DEL                                                               5189 84483021
                                   12285 *DEL                                                               5189 84490021
                                   12286 *DEL                                                               5189 84497021
                                   12287 *DEL                                                               5189 84504021
                                   12288 *DEL                                                               5189 84511021
                                   12289 *DEL                                                               5189 84518021
                                   12290 *DEL                                                               5189 84525021
                                   12291 *DEL                                                               5189 84532021
                                   12292 *DEL                                                               5189 84539021
                                   12293 *DEL                                                               5189 84546021
                                   12294 *DEL                                                               5189 84553021
                                   12295 *DEL                                                               5189 84560021
                                   12296 *DEL                                                               5189 84567021
                                   12297 *DEL                                                               5189 84574021
                                   12298 *DEL                                                               5189 84581021
                                   12299 *DEL                                                               5189 84588021
                                   12300 *DEL                                                               5189 84595021
                                   12301 *DEL                                                               5189 84602021
                                   12302 *DEL                                                               5189 84609021
                                   12303 *DEL                                                               5189 84616021
                                   12304 *DEL                                                               5189 84623021
                                   12305 *DEL                                                               5189 84630021
                                   12306 *DEL                                                               5189 84637021
0
0
                                   12309 *      TYPES                                                            84658021
                                   12310 *                                                                       84665021
1         E  Q  U  A  T  E  S                                                                                   PAGE  267
-  LOC  OBJECT CODE    ADDR1 ADDR2  STMT   SOURCE STATEMENT                                       ASM 0201 11.03 02/14/15
0                            00001 12311 XGGPFL EQU   1                FIXED LENGHT GROUP.                       84672021
                             00002 12312 XGALB  EQU   2                ALPHABETIC.                               84679021
                             00003 12313 XGALN  EQU   3                ALPHANUMERIC.                             84686021
                             00004 12314 XGGPVL EQU   4                VARIABLE LENGHT GROUP.                    84693021
                             00005 12315 XGRPT  EQU   5                REPORT ITEM.                              84700021
                             00008 12316 XGEXDC EQU   8                EXTERNAL DECIMAL.                         84707021
                             00009 12317 XGEXFP EQU   9                   -     FLOATING POINT.                  84714021
                             0000A 12318 XGINFP EQU   X'0A'            INTERNAL   -       -   .                  84721021
                             0000B 12319 XGBINR EQU   X'0B'            BINARY.                                   84728021
                             0000C 12320 XGINDC EQU   X'0C'            INTERNAL DECIMAL.                         84735021
                             0000E 12321 XGANE    EQU   X'0E'                                                    84742021
0
                                   12323 *      INPUT CODES DEFINITION.                                          84756021
                                   12324 *                                                                       84763021
                             000BA 12325 XGIRI  EQU   X'BA'                                                      84770021
                             000BC 12326 TEMRES EQU   X'BC'                P2 TEXT FOR TEMPORARY RESULT          84777021
                             00030 12327 XGDTN  EQU   X'30'            DATA NAME.                                84784021
                             00033 12328 XGFPL  EQU   X'33'            FLOATIND-POINT LITERAL.                   84791021
                             00036 12329 INDXNM EQU   X'36'                P-2 TEXT FOR INDEX-NAME               84798021
                             00075 12330 XGFCT  EQU   X'75'            FIGURATIVE CONSTANT.                      84805021
                             00039 12331 PLFCON EQU   X'39'                P2 TXT PLURAL FIGCON                  84812021
                             00079 12332 XSTDTN EQU   X'79'            STANDART DATA-NAME.                       84819021
                             00034 12333 XGALC  EQU   X'34'            ALPHA NUMERIC CONSTANT.                   84826021
                             00032 12334 XGNLT  EQU   X'32'            NUMERIC LITERAL.                          84833021
                             000C7 12335 PNDEF    EQU   X'C7'                    P-2 TEXT CODE FOR PN DEF        84840021
                             00088 12336 GNDEF    EQU   X'88'                     -   -    -    -  GN   -        84847021
                             000C9 12337 VNDEF    EQU   X'C9'                      -  -    -    -  VN   -        84854021
                             000D0 12338 PNREF    EQU   X'D0'                   P-2 TEXT CODE FOR PN REFEREN     84861021
                             000D4 12339 DUMMYPN  EQU   X'D4'         P2 TEXT CODE FOR DUMMY PN REF         2962 84868021
                             000DB 12340 VNREF  EQU   X'DB'                   P-2TEXT CODE FOR VN REFERENCE      84875021
                             000AA 12341 GNREF  EQU   X'AA'                                                      84882021
                             000FA 12342 PFMSAV EQU   X'FA'                                                      84889021
                             00030 12343 PAPNDEF  EQU   X'30'                    PROC-A TEXT CODE FOR PN DEF     84896021
                             00034 12344 PAGNDEF  EQU   X'34'                     -   -   -    -   -  GN   -     84903021
                             00038 12345 PAVNDEF  EQU   X'38'                     -   -   -    -   -  VN   -     84910021
                             0004C 12346 PAPNREF  EQU   X'4C'                   PROC-A TEXT CODE FOR PN REFE     84917021
                             00054 12347 PAVNREF EQU  X'54'                   PROC-A TEXT CODE FOR VN REF.       84924021
0
                                   12349 *      VALUE  OF DISPLACEMENTS IN INPUT STRING                          84938021
                                   12350 *                                                                       84945021
                             00001 12351 XGIRNU EQU   1                DISPLACT. TO GET IR NUMBER.               84952021
                             00003 12352 XGMINC EQU   3                      -       -     MINOR CODE.           84959021
                             00004 12353 XDIDK  EQU   4                DISPLACT.OF ADDRESSING PARAMETERS .       84966021
                             00007 12354 XGSCIN EQU   7                      -       -     SCALE INDICATOR.      84973021
                             00008 12355 XGSCAL EQU   8                      -       -     SCALE VALUE    .      84980021
                             00009 12356 XGDGLG EQU   9                      -       -     DIGIT LENGHT .        84987021
                                   12357 *DEL                                                               5189 84994021
                                   12358 *DEL                                                               5189 85001021
                                   12359 *DEL                                                               5189 85008021
                                   12360 *DEL                                                               5189 85015021
                                   12361 *DEL                                                               5189 85022021
                                   12362 *DEL                                                               5189 85029021
                                   12363 *DEL                                                               5189 85036021
1         E  Q  U  A  T  E  S                                                                                   PAGE  268
-  LOC  OBJECT CODE    ADDR1 ADDR2  STMT   SOURCE STATEMENT                                       ASM 0201 11.03 02/14/15
0                                  12364 *DEL                                                               5189 85043021
                                   12365 *DEL                                                               5189 85050021
                                   12366 *DEL                                                               5189 85057021
                                   12367 *DEL                                                               5189 85064021
                                   12368 *DEL                                                               5189 85071021
                                   12369 *DEL                                                               5189 85078021
                                   12370 *DEL                                                               5189 85085021
                                   12371 *DEL                                                               5189 85092021
                                   12372 *DEL                                                               5189 85099021
                                   12373 *DEL                                                               5189 85106021
                                   12374 *DEL                                                               5189 85113021
                                   12375 *DEL                                                               5189 85120021
                                   12376 *DEL                                                               5189 85127021
                                   12377 *DEL                                                               5189 85134021
                                   12378 *DEL                                                               5189 85141021
                                   12379 *DEL                                                               5189 85148021
                                   12380 *DEL                                                               5189 85155021
                                   12381 *DEL                                                               5189 85162021
                                   12382 *DEL                                                               5189 85169021
-
                                   12384 ******************************                                          85183021
                                   12385 *      A-TEXT  ENTRY POINTS.                                            85190021
                                   12386 *                                                                       85197021
                             018B0 12387 A      EQU   ADD                                                        85204021
                             018B0 12388 AP     EQU   ADD                                                        85211021
                             018B0 12389 AR     EQU   ADD                                                        85218021
                             018B8 12390 AL     EQU   ADDLBI                                                     85225021
                             01A90 12391 BALR   EQU   BRNLNK                                                     85232021
                             01AAC 12392 BCTR   EQU   BRNCNT                                                     85239021
                             00EB0 12393 SR     EQU   SUB                                                        85246021
                             018D0 12394 M      EQU   MULT                                                       85253021
                             018D0 12395 MR     EQU   MULT                                                       85260021
                             018D0 12396 MH     EQU   MULT                                                       85267021
                             018D0 12397 MP     EQU   MULT                                                       85274021
                             018D8 12398 D      EQU   DIV                                                        85281021
                             018D8 12399 DP     EQU   DIV                                                        85288021
                             00E78 12400 L      EQU   LOAD                                                       85295021
                             00E78 12401 LR     EQU   LOAD                                                       85302021
                             00E78 12402 LH     EQU   LOAD                                                       85309021
                             018F0 12403 LCR    EQU   LCRBI                                                      85316021
                             00E78 12404 ZAP    EQU   LOAD                                                       85323021
                             018E8 12405 MVO    EQU   LNRBI                                                      85330021
                             018F8 12406 CVB    EQU   CVBBI                                                      85337021
                             01900 12407 CVD    EQU   CVDBI                                                      85344021
                             00EB8 12408 ST     EQU   STORE                                                      85351021
                             00EB8 12409 STH    EQU   STORE                                                      85358021
                             01A26 12410 BC     EQU   BRANCH                                                     85365021
                             00FD0 12411 CLC    EQU   COMPLG                                                     85372021
                             018E0 12412 LTR    EQU   LTRBI                                                      85379021
                             018E0 12413 PACK   EQU   LTRBI                                                      85386021
                             07CE0 12414 XJOP1  EQU   OP1                                                        85393021
                             07CE4 12415 XJOP2  EQU   OP2                                                        85400021
                             07D31 12416 XIMM   EQU   IMM                                                        85407021
1         E  Q  U  A  T  E  S                                                                                   PAGE  269
-  LOC  OBJECT CODE    ADDR1 ADDR2  STMT   SOURCE STATEMENT                                       ASM 0201 11.03 02/14/15
0                            07D23 12417 XPLUS1 EQU   PLUS1                                                      85414021
                             07D6B 12418 XPLUS2 EQU   PLUS2                                                      85421021
                                   12419 *                                                                       85428021
                             0001C 12420 SEGSAV EQU   28                                                         85435021
                             071FA 12421 GONE     EQU   XC001                                                    85442021
                             01A90 12422 BAL    EQU     BRNLNK                                                   85449021
                             00009 12423 GVERB  EQU     XRVERB                                                   85456021
                             0000F 12424 HCOMSR EQU     XRVAR                                                    85463021
                             000B8 12425 FREF   EQU   X'B8'                 PROC-A FILE REF CODE                 85470021
                             00001 12426 MSWON  EQU     1                                                        85477021
                             000FE 12427 MSWOFF EQU     254                                                      85484021
                             00002 12428 SSWON  EQU   X'02'            SECONDARY BIT SWITCH MASTER - SETTING     85491021
                             000FD 12429 SSWOFF EQU   X'FD'            SECONDARY BIT SWITCH MASTER - RESETTI     85498021
                             00030 12430 MDN    EQU     X'30'                                                    85505021
                             00032 12431 MNLIT  EQU     X'32'                                                    85512021
                             00033 12432 MFPLIT EQU     X'33'                                                    85519021
                             00034 12433 MANLIT EQU     X'34'                                                    85526021
                             00075 12434 MFIGC  EQU     X'75'                                                    85533021
                             00021 12435 MSFN   EQU     X'21'                                                    85540021
                             0007C 12436 LDOP   EQU     OPSIZ               SIZE OF THE DOP AREAS                85547021
                             07656 12437 HTERM  EQU     CBEND                                                    85554021
                             071FA 12438 G1       EQU   GONE                                                     85561021
                             071FE 12439 G2       EQU   GTWO                                                     85568021
                             07D08 12440 GMACDC EQU     XCON1                                                    85575021
                             07CF8 12441 GMADCN EQU     RELAD1                                                   85582021
                             00018 12442 MADCON EQU     X'18'                                                    85589021
                             00024 12443 MDC    EQU     X'24'                                                    85596021
                             00004 12444 MENTRY EQU     X'04'                                                    85603021
                             00008 12445 MBLCHG EQU   X'08'                 BLCHNG MACRO TYPE                    85610021
                             00033 12446 MFLIT  EQU     X'33'                                                    85617021
                             00034 12447 MALIT  EQU     X'34'                                                    85624021
                             00075 12448 MFGCON EQU     X'75'                                                    85631021
                             00035 12449 MDNNM  EQU   X'35'                 DN NAME FOR EXHIBIT NAMED            85638021
                             000AA 12450 MRGN   EQU   X'AA'                 RIGHT HAND GN REF                    85645021
                             00218 12451 SWCOUN EQU   XSWCTR                                                     85652021
-
0
1         E  Q  U  A  T  E  S                                                                                   PAGE  270
-  LOC  OBJECT CODE    ADDR1 ADDR2  STMT   SOURCE STATEMENT                                       ASM 0201 11.03 02/14/15
0                            0003E 12454 GCNLN2 EQU   XREG1-XWC1      LENGTH FOR CHANGING ADR TWOS TO ADR ON     85673021
                             00210 12455 ONCTRN EQU   ONCTR           COMMON CELL                                85680021
                             00030 12456 MSDN   EQU   MDN                                                        85687021
                             00021 12457 MFN    EQU     X'21'                                                    85694021
                             07584 12458 SORTVI EQU   SORTC1                                                     85701021
                             08185 12459 DIMINR EQU   DNMINR                                                     85708021
                             07078 12460 ADCALL EQU   ADCN2D                CALL                                 85715021
                             08AA6 12461 SORCC1 EQU   ELEMTB+450  SORT CONTROL CARD  ELEMTB+620-12*14-2          85722021
                             08AA7 12462 SORCC2 EQU   SORCC1+1               IMAGE BUILD-UP AREA                 85729021
                             00080 12463 MBDAM  EQU   X'80'                                                      85736021
                             00040 12464 MBSAM  EQU   X'40'                                                      85743021
                             00020 12465 MBISAM EQU   X'20'                                                      85750021
                             00010 12466 MQISAM EQU   X'10'                                                      85757021
                             000E0 12467 MNOQQI EQU   X'E0'                                                      85764021
                             00001 12468 MSYSOU EQU   1  DEVICE CODE FOR    SYSOUT                               85771021
                             00002 12469 MCNSLE EQU   2  DEVICE CODE FOR    CONSOLE                              85778021
                             00003 12470 MSYSPH EQU   3  DEVICE CODE FOR    SYSPCH                               85785021
                             00004 12471 MSYSIN EQU   4  DEVICE CODE FOR    SYSIN                                85792021
                             0000E 12472 FPLENS EQU   14                    SHORT FP LEN AFTER CONV IN PARAM     85799021
                             00017 12473 FPLENL EQU   23                     LONG FP LEN AFTER CONV IN PARAM     85806021
                             00078 12474 MWORKA EQU   120                   DISPLACEMENT OF OTSR WORK AREA       85813021
                             00080 12475 MCLREL EQU   X'80'                 CLOSE REEL (INFO BYTE)               85820021
                             00003 12476 MCLCLR EQU   MSWON+SSWON                                                85827021
                             00002 12477 MAWO   EQU   X'02'                 APPLY WRITE ONLY BIT IN DOP(FN)+     85834021
                             000FA 12478 MPARMA EQU   X'FA'                 PARAM HEADER FROM IC TEXT            85841021
                             00030 12479 MDESTR EQU   X'30'                 MACRO CODE...    DESTROY REGISTE     85848021
                             00028 12480 MRESRV EQU   X'28'                 MACRO CODE...   RESERVE REGISTER     85855021
                             0002C 12481 MFREE  EQU   X'2C'                 MACRO CODE... FREE RESERVED REGS     85862021
                             00031 12482 ADRPLX EQU   PLUS1-XWC1                                                 85869021
                             00008 12483 ADRPLY EQU   XREG1-XVN1                                                 85876021
                             07230 12484 RUNSAV   EQU   SVWJHE                  CHECKPOINT SAVE AREA             85883021
                             08B50 12485 END    EQU   *                                                          85890021
                             0000B 12486 LX11     EQU   11                                                       85897021
                             0000E 12487 LX14     EQU   14                                                       85904021
                             0005A 12488 LX90     EQU   90                                                       85911021
                             00019 12489 LX25     EQU   25                                                       85918021
                             00012 12490 LX18     EQU   18                                                       85925021
                             00078 12491 LX120    EQU   120                                                      85932021
                             0001F 12492 LX31     EQU   31                                                       85939021
                             00017 12493 LX23     EQU   23                                                       85946021
                             00052 12494 XX52     EQU   82                                                       85953021
                             00054 12495 XX54     EQU   X'54'                                                    85960021
                             00007 12496 R7       EQU   7                                                        85967021
                             00008 12497 R8       EQU   8                                                        85974021
                             0000C 12498 R12      EQU   12                                                       85981021
                             00000 12499 DX0      EQU   0                                                        85988021
                             00000 12500 LX0      EQU   0                                                        85995021
                             00001 12501 DX1      EQU   1                                                        86002021
                             00001 12502 LX1      EQU   1                                                        86009021
                             00002 12503 DX2      EQU   2                                                        86016021
                             00002 12504 NX2      EQU   2                                                        86023021
                             00002 12505 LX2      EQU   2                                                        86030021
                             00003 12506 DX3      EQU   3                                                        86037021
                             00003 12507 NX3      EQU   3                                                        86044021
                             00003 12508 LX3      EQU   3                                                        86051021
1         E  Q  U  A  T  E  S                                                                                   PAGE  271
-  LOC  OBJECT CODE    ADDR1 ADDR2  STMT   SOURCE STATEMENT                                       ASM 0201 11.03 02/14/15
0                            00004 12509 DX4      EQU   4                                                        86058021
                             00004 12510 NX4      EQU   4                                                        86065021
                             00004 12511 LX4      EQU   4                                                        86072021
                             00005 12512 DX5      EQU   5                                                        86079021
                             00005 12513 NX5      EQU   5                                                        86086021
                             00005 12514 LX5      EQU   5                                                        86093021
                             00006 12515 DX6      EQU   6                                                        86100021
                             00006 12516 NX6      EQU   6                                                        86107021
                             00006 12517 LX6      EQU   6                                                        86114021
                             00007 12518 DX7      EQU   7                                                        86121021
                             00007 12519 NX7      EQU   7                                                        86128021
                             00007 12520 LX7      EQU   7                                                        86135021
                             00008 12521 DX8      EQU   8                                                        86142021
                             00008 12522 NX8      EQU   8                                                        86149021
                             00008 12523 LX8      EQU   8                                                        86156021
                             00009 12524 DX9      EQU   9                                                        86163021
                             00009 12525 NX9      EQU   9                                                        86170021
                             00009 12526 LX9      EQU   9                                                        86177021
                             0000A 12527 DX10     EQU   10                                                       86184021
                             0000A 12528 NX10     EQU   10                                                       86191021
                             0000A 12529 LX10     EQU   10                                                       86198021
                             0000B 12530 DX11     EQU   11                                                       86205021
                             0000B 12531 NX11     EQU   11                                                       86212021
                             0000C 12532 DX12     EQU   12                                                       86219021
                             0000C 12533 NX12     EQU   12                                                       86226021
                             0000C 12534 LX12     EQU   12                                                       86233021
                             0000D 12535 DX13     EQU   13                                                       86240021
                             0000D 12536 NX13     EQU   13                                                       86247021
                             0000E 12537 DX14     EQU   14                                                       86254021
                             0000E 12538 NX14     EQU   14                                                       86261021
                             0000F 12539 DX15     EQU   15                                                       86268021
                             0000F 12540 NX15     EQU   15                                                       86275021
                             0000F 12541 LX15     EQU   15                                                       86282021
                             00010 12542 DX16     EQU   16                                                       86289021
                             00010 12543 NX16     EQU   16                                                       86296021
                             00010 12544 LX16     EQU   16                                                       86303021
                             00012 12545 DX18     EQU   18                                                       86310021
                             00013 12546 LX19     EQU   19                                                       86317021
                             00014 12547 DX20     EQU   20                                                       86324021
                             00015 12548 DX21     EQU   21                                                       86331021
                             00016 12549 DX22     EQU   22                                                       86338021
                             00017 12550 DX23     EQU   23                                                       86345021
                             00018 12551 DX24     EQU   24                                                       86352021
                             0001A 12552 DX26     EQU   26                                                       86359021
                             0001A 12553 LX26     EQU   26                                                       86366021
                             0001C 12554 DX28     EQU   28                                                       86373021
                             0001D 12555 DX29     EQU   29                                                       86380021
                             0001E 12556 DX30     EQU   30                                                       86387021
                             0001E 12557 LX30     EQU   30                                                       86394021
                             0001E 12558 NX30     EQU   30                                                       86401021
                             00020 12559 DX32     EQU   32                                                       86408021
                             00020 12560 LX32     EQU   32                                                       86415021
                             00021 12561 DX33     EQU   33                                                       86422021
                             00023 12562 DX35     EQU   35                                                       86429021
                             00027 12563 DX39     EQU   39                                                       86436021
1         E  Q  U  A  T  E  S                                                                                   PAGE  272
-  LOC  OBJECT CODE    ADDR1 ADDR2  STMT   SOURCE STATEMENT                                       ASM 0201 11.03 02/14/15
0                            0002A 12564 DX42     EQU   42                                                       86443021
                             00032 12565 LX50     EQU   50                                                       86450021
                             00038 12566 NX56   EQU   56                                                         86457021
                             00078 12567 NX120    EQU   120                                                      86464021
                             00079 12568 NX121    EQU   121                                                      86471021
                             0007A 12569 NX122    EQU   122                                                      86478021
                             0007B 12570 NX123    EQU   123                                                      86485021
                             0007C 12571 LX124    EQU   124                                                      86492021
                             00100 12572 DX256    EQU   256                                                      86499021
                             00000 12573 XX00     EQU   X'00'                                                    86506021
                             00084 12574 XX84     EQU   X'84'                                                    86513021
                             00070 12575 XX70     EQU   X'70'                                                    86520021
                             00003 12576 XX03     EQU   X'03'                                                    86527021
                             00044 12577 XX44     EQU   X'44'                                                    86534021
                             00045 12578 XX45     EQU   X'45'                                              41095 86541021
                             00046 12579 XX46     EQU   X'46'                                              37374 86548021
                             00047 12580 XX47     EQU   X'47'                                              41095 86555021
                             0004C 12581 XX4C     EQU   X'4C'                                                    86562021
                             000C0 12582 XXC0     EQU   X'C0'                                                    86569021
                             000FF 12583 XXFF     EQU   X'FF'                                                    86576021
                             00081 12584 XX81     EQU   X'81'                                                    86583021
                             00042 12585 XX42     EQU   X'42'                                                    86590021
                             00007 12586 XX07     EQU   X'07'                                                    86597021
                             00008 12587 XX08     EQU   X'08'                                                    86604021
                             0000A 12588 XX0A     EQU   X'0A'                                                    86611021
                             00040 12589 XX40     EQU   X'40'                                                    86618021
                             0000D 12590 XX0D     EQU   X'0D'                                                    86625021
                             00001 12591 XX01     EQU   X'01'                                                    86632021
                             0002C 12592 XX2C     EQU   X'2C'                                                    86639021
                             00048 12593 XX48     EQU   X'48'                                                    86646021
                             00014 12594 XX14     EQU   X'14'                                                    86653021
                             0007F 12595 XX7F     EQU   X'7F'                                                    86660021
                             0000C 12596 XX0C     EQU   X'0C'                                                    86667021
                             0000F 12597 XX0F     EQU   X'0F'                                                    86674021
                             00002 12598 XX02     EQU   X'02'                                                    86681021
                             00004 12599 XX04     EQU   X'04'                                                    86688021
                             0000B 12600 XX0B     EQU   X'0B'                                                    86695021
                             00009 12601 XX09     EQU   X'09'                                                    86702021
                             00011 12602 XX11     EQU   X'11'                                                    86709021
                             00010 12603 XX10     EQU   X'10'                                                    86716021
                             000FE 12604 XXFE     EQU   X'FE'                                                    86723021
                             00005 12605 XX05     EQU   X'05'                                                    86730021
                             00020 12606 XX20     EQU   X'20'                                                    86737021
                             00080 12607 XX80     EQU   X'80'                                                    86744021
                             000EF 12608 XXEF     EQU   X'EF'                                                    86751021
                             000FD 12609 XXFD     EQU   X'FD'                                                    86758021
                             0002F 12610 XX2F     EQU   X'2F'                                                    86765021
                             0001D 12611 XX1D     EQU   X'1D'                                                    86772021
                             0006D 12612 XX6D     EQU   X'6D'                                                    86779021
                             00064 12613 XX64     EQU   X'64'                                                    86786021
                             0001E 12614 XX1E     EQU   X'1E'                                                    86793021
                             000D0 12615 XXD0     EQU   X'D0'                                                    86800021
                             00060 12616 XX60     EQU   X'60'                                                    86807021
                             00061 12617 XX61     EQU   X'61'                                              7898  86814021
                             000D2 12618 XXD2     EQU   X'D2'                                                    86821021
1         E  Q  U  A  T  E  S                                                                                   PAGE  273
-  LOC  OBJECT CODE    ADDR1 ADDR2  STMT   SOURCE STATEMENT                                       ASM 0201 11.03 02/14/15
0                            0000E 12619 XX0E     EQU   X'0E'                                                    86828021
                             00018 12620 XX18     EQU   X'18'                                                    86835021
                             00021 12621 XX21     EQU   X'21'                                                    86842021
                             00022 12622 XX22     EQU   X'22'                                                    86849021
                             0004E 12623 XX4E     EQU   X'4E'                                                    86856021
                             000FC 12624 XXFC     EQU   X'FC'                                                    86863021
                             00030 12625 XX30     EQU   X'30'                                                    86870021
                             0001C 12626 XX1C     EQU   X'1C'                                                    86877021
                             00023 12627 XX23     EQU   X'23'                                                    86884021
                             000A0 12628 XXA0     EQU   X'A0'                                                    86891021
                             0001B 12629 XX1B     EQU   X'1B'                                                    86898021
                             00036 12630 XX36     EQU   X'36'                                                    86905021
                             00034 12631 XX34     EQU   X'34'                                                    86912021
                             00032 12632 XX32     EQU   X'32'                                                    86919021
                             00033 12633 XX33     EQU   X'33'                                                    86926021
                             00075 12634 XX75     EQU   X'75'                                                    86933021
                             000FA 12635 XXFA     EQU   X'FA'                                                    86940021
                             000F9 12636 XXF9     EQU   X'F9'                                                    86947021
                             00015 12637 XX15     EQU   X'15'                                                    86954021
                             00012 12638 XX12     EQU   X'12'                                                    86961021
                             00050 12639 XX50     EQU   X'50'                                                    86968021
                             00078 12640 XX78     EQU   X'78'                                                    86975021
                             000A4 12641 XXA4     EQU   X'A4'                                                    86982021
                             000F0 12642 XXF0     EQU   X'F0'                                                    86989021
                             000F1 12643 XXF1     EQU   X'F1'                                                    86996021
                             0006C 12644 XX6C     EQU   X'6C'                                                    87003021
                             00038 12645 XX38     EQU   X'38'                                                    87010021
                             00058 12646 XX58     EQU   X'58'                                                    87017021
                             0005C 12647 XX5C     EQU   X'5C'                                                    87024021
                             0007C 12648 XX7C     EQU   X'7C'                                                    87031021
                             000B0 12649 XXB0     EQU   X'B0'                                                    87038021
                             000B4 12650 XXB4     EQU   X'B4'                                                    87045021
                             00024 12651 XX24     EQU   X'24'                                                    87052021
                             00041 12652 XX41     EQU   X'41'                                                    87059021
                             000C1 12653 XXC1     EQU   X'C1'                                                    87066021
                             000B8 12654 XXB8     EQU   X'B8'                                                    87073021
                             00006 12655 XX06     EQU   X'06'                                                    87080021
                             000E0 12656 XXE0     EQU   X'E0'                                                    87087021
                             00088 12657 XX88     EQU   X'88'                                                    87094021
                             00068 12658 XX68     EQU   X'68'                                                    87101021
                             000C8 12659 XXC8     EQU   X'C8'                                                    87108021
                             00090 12660 XX90     EQU   X'90'                                                    87115021
                             0001A 12661 XX1A     EQU   X'1A'                                                    87122021
                             0001F 12662 XX1F     EQU   X'1F'                                                    87129021
                             00019 12663 XX19     EQU   X'19'                                                    87136021
                             00013 12664 XX13     EQU   X'13'                                                    87143021
                             0004F 12665 XX4F     EQU   X'4F'                                                    87150021
                             00016 12666 XX16     EQU   X'16'                                                    87157021
                             00017 12667 XX17     EQU   X'17'                                                    87164021
                             00092 12668 XX92     EQU   X'92'                                                    87171021
                             00095 12669 XX95     EQU   X'95'                                                    87178021
                             00096 12670 XX96     EQU   X'96'                                                    87185021
                             00097 12671 XX97     EQU   X'97'                                                    87192021
                             00094 12672 XX94     EQU   X'94'                                                    87199021
                             00091 12673 XX91     EQU   X'91'                                                    87206021
1         E  Q  U  A  T  E  S                                                                                   PAGE  274
-  LOC  OBJECT CODE    ADDR1 ADDR2  STMT   SOURCE STATEMENT                                       ASM 0201 11.03 02/14/15
0                            00043 12674 XX43     EQU   X'43'                                                    87213021
                             0008E 12675 XX8E     EQU   X'8E'                                                    87220021
                             00098 12676 XX98     EQU   X'98'                                                    87227021
                             0009C 12677 XX9C     EQU   X'9C'                                              7898  87234021
                             00028 12678 XX28     EQU   X'28'                                                    87241021
                             0003A 12679 XX3A     EQU   X'3A'                                                    87248021
                             0002A 12680 XX2A     EQU   X'2A'                                                    87255021
                             0003B 12681 XX3B     EQU   X'3B'                                                    87262021
                             0002B 12682 XX2B     EQU   X'2B'                                                    87269021
                             0003F 12683 XX3F     EQU   X'3F'                                                    87276021
                             00039 12684 XX39     EQU   X'39'                                                    87283021
                             00029 12685 XX29     EQU   X'29'                                                    87290021
                             0003C 12686 XX3C     EQU   X'3C'                                                    87297021
                             0003D 12687 XX3D     EQU   X'3D'                                                    87304021
                             0002D 12688 XX2D     EQU   X'2D'                                                    87311021
                             00031 12689 XX31     EQU   X'31'                                                    87318021
                             000DF 12690 XXDF     EQU   X'DF'                                                    87325021
                             000F6 12691 XXF6     EQU   X'F6'                                                    87332021
                             000F5 12692 XXF5     EQU   X'F5'                                                    87339021
                             000F3 12693 XXF3     EQU   X'F3'                                                    87346021
                             00074 12694 XX74     EQU   X'74'                                                    87353021
                             0008F 12695 XX8F     EQU   X'8F'                                                    87360021
                             000C5 12696 XXC5     EQU   X'C5'                                                    87367021
                             00035 12697 XX35     EQU   X'35'                                                    87374021
                             000BF 12698 XXBF     EQU   X'BF'                                                    87381021
                             00025 12699 XX25     EQU   X'25'                                                    87388021
                             0006B 12700 XX6B     EQU   X'6B'                                                    87395021
                             000CE 12701 XXCE     EQU   X'CE'                                                    87402021
                             00082 12702 XX82     EQU   X'82'                                                    87409021
                             0006E 12703 XX6E     EQU   X'6E'                                                    87416021
                             00051 12704 XX51     EQU   X'51'                                                    87423021
                             00055 12705 XX55     EQU   X'55'                                                    87430021
                             000BB 12706 XXBB     EQU   X'BB'                                                    87437021
                             0007A 12707 XX7A     EQU   X'7A'                                                    87444021
                             0004B 12708 XX4B     EQU   X'4B'                                                    87451021
                             0006F 12709 XX6F     EQU   X'6F'                                                    87458021
                             00073 12710 XX73     EQU   X'73'                                                    87465021
                             00027 12711 XX27     EQU   X'27'                                                    87472021
                             00072 12712 XX72     EQU   X'72'                                                    87479021
                             000AA 12713 XXAA     EQU   X'AA'                                                    87486021
                             000F0 12714 XC0      EQU   C'0'                                                     87493021
                             000F9 12715 XC9      EQU   C'9'                                                     87500021
                             000E9 12716 XCZ      EQU   C'Z'                                                     87507021
                             000D4 12717 XCM      EQU   C'M'                                                     87514021
                             000C5 12718 XCE      EQU   C'E'                                                     87521021
                             000E6 12719 XCW      EQU   C'W'                                                     87528021
                             000C9 12720 XCI      EQU   C'I'                                                     87535021
                             000E4 12721 XCU      EQU   C'U'                                                     87542021
                             000C6 12722 XCF      EQU   C'F'                                                     87549021
                             000E5 12723 XCV      EQU   C'V'                                                     87556021
                             000C1 12724 XCA      EQU   C'A'                                                     87563021
                             000C4 12725 XCD      EQU   C'D'                                                     87570021
 007ABC                            12726          END   PHASE51                                                  87577021
1                                                  RELOCATION DICTIONARY                                        PAGE  275
-POS.ID   REL.ID   FLAGS   ADDRESS                                                                ASM 0201 11.03 02/14/15
0 000C     0001      0C     007080
  000C     0001      0C     007084
  000C     0001      0C     007094
  000C     0001      0C     007098
  000C     0001      0C     0070B4
  000C     0001      0C     0070C0
  000C     0001      0C     0070E4
  000C     0001      0C     0070E8
  000C     0001      0C     00714C
  000C     0001      0C     007150
  000C     0001      0C     007158
  000C     0001      0C     007184
  000C     0001      0C     007198
  000C     0001      0C     007B7C
  000C     0002      0C     007B80
  000C     0004      0C     007174
  000C     0004      0C     00752C
  000C     0004      0C     007548
  000C     0005      0C     00701C
  000C     0005      0C     007020
  000C     0005      0C     007024
  000C     0005      0C     007028
  000C     0005      0C     00702C
  000C     0005      0C     007030
  000C     0005      0C     007038
  000C     0005      0C     007544
  000C     0005      0C     00754C
  000C     0006      0C     006FF4
  000C     0006      0C     006FF8
  000C     0006      0C     006FFC
  000C     0006      0C     007000
  000C     0006      0C     007004
  000C     0006      0C     00703C
  000C     0006      0C     007040
  000C     0006      0C     00705C
  000C     0006      0C     007060
  000C     0006      0C     0070B0
  000C     0006      0C     0070D4
  000C     0006      0C     0070D8
  000C     0006      0C     0070DC
  000C     0006      0C     0070E0
  000C     0006      0C     0070EC
  000C     0006      0C     007190
  000C     0006      0C     007194
  000C     0007      0C     007064
  000C     0007      0C     007068
  000C     0007      0C     00706C
  000C     0007      0C     007070
  000C     0007      0C     007074
  000C     0007      0C     007078
  000C     0007      0C     00709C
  000C     0007      0C     0070A0
  000C     0007      0C     0070AC
  000C     0007      0C     0070B8
  000C     0007      0C     0075EC
1                                                  RELOCATION DICTIONARY                                        PAGE  276
-POS.ID   REL.ID   FLAGS   ADDRESS                                                                ASM 0201 11.03 02/14/15
0 000C     0008      0C     007044
  000C     0008      0C     007048
  000C     0008      0C     00704C
  000C     0008      0C     007054
  000C     0008      0C     007154
  000C     0008      0C     007188
  000C     0008      0C     00718C
  000C     0009      0C     007050
  000C     0009      0C     007058
  000C     000A      0C     007008
  000C     000A      0C     00700C
  000C     000A      0C     007010
  000C     000A      0C     007014
  000C     000A      0C     007034
  000C     000A      0C     00707C
  000C     000A      0C     007088
  000C     000A      0C     00708C
  000C     000A      0C     007090
  000C     000A      0C     0070A4
  000C     000A      0C     0070BC
  000C     000A      0C     0070C4
  000C     000A      0C     0070C8
  000C     000A      0C     0070CC
  000C     000A      0C     0070D0
  000C     000A      0C     0070F0
  000C     000A      0C     0070F4
  000C     000A      0C     0070F8
  000C     000A      0C     0070FC
  000C     000A      0C     007100
  000C     000A      0C     007104
  000C     000A      0C     007108
  000C     000A      0C     00710C
  000C     000A      0C     007110
  000C     000A      0C     007114
  000C     000A      0C     007118
  000C     000A      0C     00711C
  000C     000A      0C     007120
  000C     000A      0C     007124
  000C     000A      0C     007128
  000C     000A      0C     00712C
  000C     000A      0C     007130
  000C     000A      0C     007134
  000C     000A      0C     007138
  000C     000A      0C     007180
  000C     000A      0C     00719C
  000C     000A      0C     0075AC
  000C     000A      0C     0075B0
  000C     000A      0C     0075B4
  000C     000A      0C     0075B8
  000C     000A      0C     0075BC
  000C     000A      0C     0075C0
  000C     000A      0C     0075C4
  000C     000A      0C     0075C8
  000C     000A      0C     0075CC
  000C     000A      0C     0075D0
1                                                  RELOCATION DICTIONARY                                        PAGE  277
-POS.ID   REL.ID   FLAGS   ADDRESS                                                                ASM 0201 11.03 02/14/15
0 000C     000A      0C     0075D4
  000C     000A      0C     0075D8
  000C     000A      0C     0075DC
  000C     000A      0C     0075E0
  000C     000A      0C     0075E4
  000C     000A      0C     0075E8
  000C     000A      0C     0075F0
  000C     000A      0C     0075F4
  000C     000A      0C     0075F8
  000C     000B      0C     007144
  000C     000B      0C     007148
  000C     000B      0C     00717C
  000C     000C      08     007A75
  000C     000C      08     007A81
  000C     000C      08     007A8D
  000C     000C      08     007A99
  000C     000C      08     007AA5
  000C     000C      08     007AB1
  000C     000C      0C     007B84
  000C     000D      0C     007530
  000C     000D      0C     007534
  000C     000D      0C     007538
  000C     000D      0C     00753C
  000C     000D      0C     007540
  000C     000D      0C     007A28
  000C     000D      0C     007B88
  000C     000D      0C     007B8C
  000D     0002      0C     007FD8
  000D     0002      0C     007FDC
  000D     0002      0C     007FE8
  000D     0002      0C     007FEC
  000D     0003      0C     0080DC
  000D     0005      0C     007FC0
  000D     000D      0C     007CE8

1                                                  ASSEMBLER DIAGNOSTICS AND STATISTICS                         PAGE  278
-                                                                                                 ASM 0201 11.03 02/14/15
0NO STATEMENTS FLAGGED IN THIS ASSEMBLY
 HIGHEST SEVERITY WAS    0
 OPTIONS FOR THIS ASSEMBLY
   ALIGN, ALOGIC, BUFSIZE(STD), DECK, ESD, FLAG(0), LINECOUNT(55), LIST, NOMCALL, YFLAG, WORKSIZE(2097152)
   NOMLOGIC, NONUMBER, NOOBJECT, NORENT, RLD, NOSTMT, NOLIBMAC, NOTERMINAL, NOTEST, NOXREF(SHORT)
   SYSPARM()
 WORK FILE BUFFER SIZE/NUMBER = 2558/ 1
 TOTAL RECORDS READ FROM SYSTEM INPUT      12524
 TOTAL RECORDS READ FROM SYSTEM LIBRARY      218
 TOTAL RECORDS PUNCHED                       653
 TOTAL RECORDS PRINTED                     13420
