1PH40                                           EXTERNAL SYMBOL DICTIONARY                                      PAGE    1
-SYMBOL   TYPE  ID   ADDR  LENGTH LDID                                                            ASM 0201 11.03 02/14/15
0IKF40A    SD  0001 000000 000C78
 PH4       LD       0087D0        000A
 CBLIKF40  LD       0087D0        000A
 PHINIT    LD       0087D0        000A
 IKF40B    SD  0002 000C78 00113E
 IKF40C    SD  0003 001DB8 000CD0
 IKF40D    SD  0004 002A88 000D0A
 IKF40E    SD  0005 003798 000B8A
 IKF40F    SD  0006 004328 000C8E
 IKF401    SD  0007 004FB8 000FFE
 IKF402    SD  0008 005FB8 000E9E
 IKF403    SD  0009 006E58 000EA0
 IKF404    SD  000A 007CF8 000BB4
 IKF405    SD  000B 0088B0 000FDD
1PH40                                                                                                           PAGE    2
-  LOC  OBJECT CODE    ADDR1 ADDR2  STMT   SOURCE STATEMENT                                       ASM 0201 11.03 02/14/15
0                                      1 *$MODULE       PHASE4                                                   00006021
 000000                                2 IKF40A CSECT                                                            00012021
                             00000     3 PH4BEG EQU   *                                                          00018021
                                       4        ENTRY PH4                                                        00024021
                                       5        ENTRY CBLIKF40                                                   00030021
                                       6          ENTRY  PHINIT                                                  00036021
 000000 C9D2C6C3C2D3F4F0               7        DC    C'IKFCBL40'           PHASE NAME                           00042021
 000008 C2                             8        DC    C'B'                  BUILD                                00048021
 000009 1E                             9        DC    X'1E'                 BUILD NUMBER                         00054021
                                      10 *                                                                       00060021
                                      11 *                                                                       00066021
                                      12 *                                                                       00072021
                                      13 *                                                                       00078021
                                      14 *                                                                       00084021
                                      15 *                                                                       00090021
                                      16 *                                                                       00096021
                                      17 *                                                                       00102021
                                      18 *                                                                       00108021
                                      19 *=3                                                                     00114021
                                      20 *                                                                       00120021
                                      21 *TITLE:                                                                 00126021
                                      22 *                                                                       00132021
                                      23 *   'IKFCBL40'                                                          00138021
                                      24 *                                                                       00144021
                                      25 *STATUS:                                                                00150021
                                      26 *                                                                       00156021
                                      27 *   CHANGE LEVEL 000                                                    00162021
                                      28 *                                                                       00168021
                                      29 *FUNCTION/OPERATION:                                                    00174021
                                      30 *                                                                       00180021
                                      31 *   CHECKS SYNTAX OF PROCEDURE DIVISION. SUPPRESSES INCORRECT OUTPU     00186021
                                      32 *   REDUCES P1 TO P2 TEXT BY ELIMINATING NON-ESSENTIAL WORDS AND        00192021
                                      33 *   ATOMIZING EACH STATEMENT INTO A SERIES OF VERB STRINGS, I.E.,       00198021
                                      34 *   VERB FOLLOWED BY ITS OPERANDS.                                      00204021
                                      35 *                                                                       00210021
                                      36 *ENTRY POINTS:                                                          00216021
                                      37 *                                                                       00222021
                                      38 *        PH4                                                            00228021
                                      39 *                                                                       00234021
                                      40 *INPUT:                                                                 00240021
                                      41 *                                                                       00246021
                                      42 *   FILE-3, I-C (P1) TEXT REDUCTION OF PROCEDURE DIVISION.              00252021
                                      43 *                                                                       00258021
                                      44 *OUTPUT:                                                                00264021
                                      45 *                                                                       00270021
                                      46 *  FILE-2, I-C ( P2 ) TEXT TRANSFORMATION OF PROCEDURE DIVISION         00276021
                                      47 *                                                                       00282021
                                      48 *EXTERNAL ROUTINES:                                                     00288021
                                      49 *                                                                       00294021
                                      50 *        COS       LINK TO I-O AND INTERPHASE COMMON REGION             00300021
                                      51 *  (COS IS ALTERNATE NAME FOR PHASE 00 )                                00306021
                                      52 *        PRIME     *              *     PREPARE TABLE                   00312021
                                      53 *        INSERT    *TABLE-HANDLING*     PROVIDE ROOM                    00318021
                                      54 *        TABREL    *              *     RELEASE TABLE                   00324021
                                      55 *                                                                       00330021
1PH40                                                                                                           PAGE    3
-  LOC  OBJECT CODE    ADDR1 ADDR2  STMT   SOURCE STATEMENT                                       ASM 0201 11.03 02/14/15
0                                     56 *EXITS-NORMAL:     VIA COS TO PHASE 5        L      1,=A(COS)           00336021
                                      57 *                                            BALR   0,1                 00342021
                                      58 *                                            DC     X'0A'               00348021
                                      59 *EXIT-ERROR-       COMPILER ERROR MSG WHEN IC-TEXT COUNT FIELD = 0,     00354021
                                      60 *                   THEN SKIP TO PHASE 5                                00360021
                                      61 *                                                                       00366021
                                      62 *TABLES/WORK AREAS:                                                     00372021
                                      63 *                                                                       00378021
                                      64 *   ALL EXTENSIVE WORK-AREAS ARE TAMER TABLES, DESCRIBED IN DETAIL      00384021
                                      65 *   AT LOC TAMDEF. SMALL WORK-AREAS START AT LOC DATA.                  00390021
                                      66 *                                                                       00396021
                                      67 *ATTRIBUTES:                                                            00402021
                                      68 *                                                                       00408021
                                      69 *   NOT REUSABLE                                                        00414021
                                      70 *                                                                       00420021
                                      71 *NOTES:                                                                 00426021
                                      72 *                                                                       00432021
                                      73 *   GENERAL ORGANIZATION: 1. VERB ANALYZERS                             00438021
                                      74 *                           A. DATA-MANIPULATION VERBS                  00444021
                                      75 *                           B. PROCEDURE-NAME-HANDLING VERBS            00450021
                                      76 *                           C. ARITHMETIC VERBS, IF, AND ELSE           00456021
                                      77 *                           D. DEBUGGING VERBS                          00462021
                                      78 *                           E. SORT VERBS                               00468021
                                      79 *                           F. COMPILER-DIRECTING VERBS                 00474021
                                      80 *                           G. I-O VERBS                                00480021
                                      81 *                         2. PHASE CONTROLLER                           00486021
                                      82 *                         3. SUBROUTINES                                00492021
                                      83 *                         4. CONSTANTS                                  00498021
                                      84 *                         5. DATA                                       00504021
                                      85 *                         6. INITIALIZATION (OVERLAYS DATA)             00510021
                                      86 *                                                                       00516021
                                      87 *   BASE-REGISTERS FOR 2-6 ARE LOADED DURING INITIALIZATION AND NEV     00522021
                                      88 *      CHANGED.                                                         00528021
                                      89 *   BASE-REGISTER FOR VERB-ANALYZER (RVRB) IS LOADED BY PHASE-CONTR     00534021
                                      90 *      LER EACH TIME A VERB IS FOUND.                                   00540021
                                      91 *   REGISTER 13 IS NOT USED.                                            00546021
                                      92 *   VERB ANALYZERS DO NOT STORE-RESTORE REGISTERS.                      00552021
                                      93 *   ALL PHASE 4 INTERNAL SUBROUTINES SAVE AND RESTORE ALL REGISTERS     00558021
                                      94 *      (EXCEPT FOR THOSE WHICH ADVANCE THE INPUT POINTER RIN).          00564021
                                      95 *      BUT EXTERNAL SUBROUTINE COS CLOBBERS REGISTERS 0 AND 1           00570021
                                      96 *      AND TAMER INSERT ROUTINE MODIFIES REGISTERS 0,2, AND 3.          00576021
                                      97 *      PHASE 4 SUBROUTINES,HOWEVER, WHICH CALL COS AND TAMER DO         00582021
                                      98 *      SAVE  REGISTERS 0 - 3.                                           00588021
                                      99 *                                                                       00594021
1PH40     IKFCBL40                                                                                              PAGE    4
-  LOC  OBJECT CODE    ADDR1 ADDR2  STMT   SOURCE STATEMENT                                       ASM 0201 11.03 02/14/15
0                                    101 *                         5. PHASE INITIALIZATION                       00606021
                                     102 *                         6. DATA                                       00612021
                                     103 *                                                                       00618021
                                     104 *   VERB ANALYZERS ARE GROUPED INTO SEVERAL CSECTS WHICH MAY BE REO     00624021
                                     105 *      GANIZED AT WILL,SINCE EACH VERB HAS ITS OWN BASE. SUBROUTINE     00630021
                                     106 *      CONSTANTS,AND DATA ARE SIMILARLY GROUPED INTO CSECT1 - CSECT     00636021
                                     107 *      WHOSE FIRST LABEL IS, RESPECTIVELY,COMON1 - COMON5. IF REOR-     00642021
                                     108 *      GANIZATION IS NECESSARY, CARE MUST BE TAKEN WITH THESE 5 LAB     00648021
                                     109 *      SINCE IT IS THEIR ADDRESSES THAT GO INTO THE 5 PERMANENT BAS     00654021
                                     110 *      REGISTERS. ALSO, ALL ADCONS SHOULD BE KEPT TOGETHER IN CSECT     00660021
                                     111 *      AND ALL VARIABLE DATA IN CSECT5.                                 00666021
                                     112 *                                                                       00672021
                                     113 *                                                                       00678021
                                     114 *                                                                       00684021
                                     115 *   GENERAL CONSIDERATIONS IN ERROR PROCESSING                          00690021
                                     116 *                                                                       00696021
                                     117 *      ALMOST NO ASSUMPTIONS - 'ERROR RECOVERIES' FOR THE SOURCE PR     00702021
                                     118 *   GRAM - ARE MADE.  OUR HOPE IS TO CHECK AS MUCH AS CAN REASONABL     00708021
                                     119 *   BE CHECKED SO AS TO SAVE REPEATED RECOMPILATIONS. IT IS  N O T      00714021
                                     120 *   TO GUESS WHAT THE PROGRAMMER MAY HAVE INTENDED AND CORRECT HIS      00720021
                                     121 *   MISTAKES.                                                           00726021
                                     122 *      WE PROCESS IN SEQUENCE FORWARD, ALWAYS ASKING 'GIVEN WHAT WE     00732021
                                     123 *   HAVE SO FAR, WHAT IS THE NEXT ELEMENT WE CAN EXPECT?'  WHEN WE      00738021
                                     124 *   FAIL TO FIND IT WE DO NOT GO BACK AND READJUST OUR EXPECTATION.     00744021
                                     125 *   (LIMITED CORE PREVENTS THIS SOPHISTICATION.) WE DELETE.             00750021
                                     126 *      WE ATTEMPT TO CORRECT ONLY IN THE SIMPLEST CASES -- E.G.,        00756021
                                     127 *   UNPAIRED PARENTHESES,MISSING REQUIRED COBOL WORDS WHEN THERE IS     00762021
                                     128 *   NO CHOICE OF OPTIONS.                                               00768021
                                     129 *        IN THE MOST GENERAL TERMS: A WRONG OPERAND WHICH IS ONE OF     00774021
                                     130 *   SERIES (ADD X Y Z TO A) IS DISCARDED. A WRONG OPERAND WHICH IS      00780021
                                     131 *   SINGLE CAUSES THE ENTIRE VERB STATEMENT TO BE DELETED. A WRONG      00786021
                                     132 *   MISSING REQUIRED COBOL WORD IS ASSUMED.AN OPTIONAL CLAUSE CONTA     00792021
                                     133 *   ING WRONG OPERANDS IS DISCARDED.                                    00798021
                                     134 *      WE SEND TO PHASE 5 ONLY CORRECT OUTPUT AS FAR AS WE KNOW. IT     00804021
                                     135 *   CAN BE STUPID BUT SHOULD BE ACCEPTABLE TO THEIR ANALYZERS.          00810021
                                     136 *      WE WRITE NO MESSAGE  IF THE UNWELCOME-UNEXPECTED ELEMENT IS      00816021
                                     137 *   'ERROR-SYMBOL', ASSUMING A PREVIOUS PHASE HAS COMMENTED IT.         00822021
                                     138 *   WE SIMPLY APPEND TO THE OTHER PHASES'S MESSAGE THE ACTION WE AR     00828021
                                     139 *   TAKING, E.G., DELETING STATEMENT,DISCARDING OPTION,ETC.             00834021
                                     140 *      IN A FEW CASES -- NOTABLY THE COMPLEX, POSSIBLY LENGTHY, VER     00840021
                                     141 *   IF AND PERFORM AND THE ARITHMETIC VERBS -- WE SUBSTITUTE ARBITR     00846021
                                     142 *   FOR ILLEGAL OPERANDS. THIS IS MERELY TO FACILITATE OUR CONTINUE     00852021
                                     143 *   PROCESSING AND DOES NOT REPRESENT  AN ATTEMPTED 'CORRECTION'.       00858021
                                     144 *      WE DISCARD MEANINGLESS OPTIONAL WORDS WITHOUT REGARD TO THE      00864021
                                     145 *   INAPPROPRIATENESS OF THEIR USE (E.G., 'IS','ARE','THEN').           00870021
                                     146 *                                                                       00876021
                                     147 *                                                                       00882021
1PH40     IKFCBL40                                                                                              PAGE    5
-  LOC  OBJECT CODE    ADDR1 ADDR2  STMT   SOURCE STATEMENT                                       ASM 0201 11.03 02/14/15
0                                    149 *=2                                                                     00894021
                                     150 *                 ABSOLUTE EQUATED VALUES                               00900021
                                     151 *                                                                       00906021
-
0
                                     153 *                                                                       00918021
                                     154 *              STANDARD EQUATES FOR BC INSTRUCTIONS                     00924021
                                     155 *                                                                       00930021
                             0000F   156 UNCOND EQU   15                                                         00936021
                             00002   157 HI     EQU   2                                                          00942021
                             00004   158 LO     EQU   4                                                          00948021
                             00008   159 EQ     EQU   8                                                          00954021
                             0000D   160 NOTHI  EQU   13                                                         00960021
                             0000B   161 NOTLO  EQU   11                                                         00966021
                             00007   162 NOTEQ  EQU   7                                                          00972021
                             00001   163 OV     EQU   1                                                          00978021
                             00002   164 POS    EQU   2                                                          00984021
                             00004   165 NEG    EQU   4                                                          00990021
                             00008   166 ZERO   EQU   8                                                          00996021
                             0000E   167 NOTOV  EQU   14                                                         01002021
                             0000D   168 NOTPOS EQU   13                                                         01008021
                             0000B   169 NOTNEG EQU   11                                                         01014021
                             00007   170 NOTZER EQU   7                                                          01020021
                             00001   171 ONES   EQU   1                                                          01026021
                             00004   172 MIXED  EQU   4                                                          01032021
                             0000E   173 NOTONE EQU   14                                                         01038021
                             0000B   174 NOTMXD EQU   11                                                         01044021
                             00000   175 NOP    EQU   0                                                          01050021
1PH40     IKFCBL40                                                                                              PAGE    6
-  LOC  OBJECT CODE    ADDR1 ADDR2  STMT   SOURCE STATEMENT                                       ASM 0201 11.03 02/14/15
0                                    177 *                                                                       01062021
                                     178 *                 REGISTER NAMES                                        01068021
                                     179 *                                                                       01074021
                             00000   180 RA0    EQU   0                'ACCUMULATOR'                             01080021
                             00001   181 RW1    EQU   1                INDEX AND WORK REGISTERS                  01086021
                             00002   182 RW2    EQU   2                                                          01092021
                             00003   183 RW3    EQU   3                                                          01098021
                             00004   184 RW4    EQU   4                                                          01104021
                             00005   185 RW5    EQU   5                                                          01110021
                             00006   186 RW6    EQU     6                                                        01116021
                             00007   187 RB1    EQU   7           BASE REGISTERS                                 01122021
                             00008   188 RB2    EQU   8                                                          01128021
                             00009   189 RB3    EQU   9                                                          01134021
                             0000A   190 RB4    EQU     10                                                       01140021
                             0000B   191 RB5    EQU     11                                                       01146021
                             0000C   192 RIN    EQU     12            CURRENT-INPUT POINTER                      01152021
                             0000D   193 R13    EQU   13                                                         01158021
                             0000E   194 RCS    EQU   14          CALL REGISTER FOR SUBROUTINES                  01164021
                             0000F   195 RAS    EQU     15            BASE FOR INTERPHASE AND INFREQUENT         01170021
                             0000F   196 RVRB   EQU     15                  BASE FOR VERB ANALYZERS              01176021
                                     197        IHBCOB                                                           01182021
                                     198+*     THIS IS A MACRO GENERATING COBOL COMMON AS A DSECT USED
                                     199+*      BY EVERY PHASE OF THE COBOL COMPILER
                                     200+*
                                     201+***********************************************************************
                                     202+*      COMMON - THE COMMUNICATIONS AREA
                                     203+***********************************************************************
                                     204+*      THIS TABLE IS LOCATED IN PH0 FOLLOWING THE ENTRY POINT- COS.
                                     205+*      AT ENTRY TO EACH PHASE R1 POINTS TO THE SLOT CONTAINING COSADDR.
 000000                              206+COS    DSECT
 000000                              207+       DS    3F          EXECUTABLE CODE IN PH0
 00000C                              208+TIB0     DS    2F
 000014                              209+TIB1     DS    2F
 00001C                              210+TIB2     DS    2F
 000024                              211+TIB3     DS    2F
 00002C                              212+TIB4     DS    2F
 000034                              213+TIB5     DS    2F
 00003C                              214+TIB6     DS    2F
 000044                              215+TIB7     DS    2F
 00004C                              216+TIB8     DS    2F
 000054                              217+TIB9     DS    2F
 00005C                              218+TIB10    DS    2F
 000064                              219+TIB11    DS    2F
 00006C                              220+TIB12    DS    2F
 000074                              221+TIB13    DS    2F
 00007C                              222+TIB14    DS    2F
 000084                              223+TIB15    DS    2F
 00008C                              224+TIB16    DS    2F
 000094                              225+TIB17    DS    2F
 00009C                              226+TIB18    DS    2F
 0000A4                              227+TIB19    DS    2F
 0000AC                              228+TIB20    DS    2F
 0000B4                              229+TIB21    DS    2F
 0000BC                              230+TIB22    DS    2F
 0000C4                              231+TIB23    DS    2F
1PH40     IKFCBL40                                                                                              PAGE    7
-  LOC  OBJECT CODE    ADDR1 ADDR2  STMT   SOURCE STATEMENT                                       ASM 0201 11.03 02/14/15
00000CC                              232+TIB24    DS    2F
 0000D4                              233+TIB25    DS    2F
 0000DC                              234+TIB26    DS    2F
 0000E4                              235+TIB27    DS    2F
 0000EC                              236+TIB28    DS    2F
 0000F4                              237+TIB29    DS    2F
 0000FC                              238+TIB30    DS    2F
 000104                              239+TIB31    DS    2F
 00010C                              240+TIB32    DS    2F
 000114                              241+TIB33    DS    2F
 00011C                              242+TIB34    DS    2F
 000124                              243+TIB35    DS    2F
 00012C                              244+APRIME DS    F           ADDRESS OF SUBROUTINE-PRIME   IN TAMER
 000130                              245+AINSRT DS    F           ADDRESS OF SUBROUTINE-INSERT  IN TAMER
 000134                              246+ADSTAT DS    F           ADDRESS OF SUBROUTINE-STATIC  IN TAMER
 000138                              247+RELADD DS    F           ADDRESS OF SUBROUTINE-TABREL  IN TAMER
 00013C                              248+TAMNAD DS    F
 000140                              249+ACCESW DS    C           ACCESS INITIALIZATION SWITCH
 000141                              250+AMAINF   DS    CL3       POINTER TO THE MAIN FREE AREA FOR TABLES/DICT.
 000144                              251+ALSTAM DS    F           POINTER TO THE LAST ENTRY IN TAMM
 000148                              252+LOCCTR DS    F           RELATIVE ADDRESS OF THE NEXT AVAILABLE LOC
 00014C                              253+LOCCTR1  DS    F
 000150                              254+PROGID   DS    CL8       PROGRAM-ID FROM THE IDENTICATION DIVISION
 000158                              255+LABELS DS    H           CONTAINS LABEL INFORMATION.
 00015A                              256+SEGCNTR  DS    H         NUMBER OF SEGMENTS HIGHER THAN SEGMENT LIMIT -
                                     257+*                        USED BY PHASE 6
 00015C                              258+PNCTR  DS    H           COUNTER FOR ASSIGNING PB NUMBERS TO PROC.NAMES
 00015E                              259+GNCTR  DS    H           CTR. ASSIGNING GN NO.TO GENERATED PROC. NAMES
 000160                              260+DCBCTR DS    H           CTR. ASSIGNING ID.NO.TO DCB'S
 000162                              261+VIRCTR DS    H           CTR. ASSIGNING ID.NO.TO VIRTUALS
 000164                              262+LTLCTR DS    H           CTR. ASSIGNING ID.NO.TO LITERALS
 000166                              263+WCMAX  DS    H           SIZE OF THE LARGEST WORK AREA FOR LIBRARY SUBR
 000168                              264+TSMAX  DS    H           SIZE OF THE TEMP. STORAGE FOR ARITHM. STMNTS
 00016A                              265+TS2MAX DS    H           SAME AS ABOVE FOR NON-ARITHMETIC STATEMENTS
 00016C                              266+ODOCTR DS    H           NUMBER OF Q-ROUTINES
 00016E                              267+CKPCTR DS    H           NUMBER OF CHECKPOINT REQUESTS
 000170                              268+INDCTR DS    H           AVAILABLE
 000172                              269+SBLOMX   DS    H                   AVAILABLE
 000174                              270+VLCOMX   DS    H                   AVAILABLE
 000176                              271+SBLIMX DS    H           SAME AS SBLOMX FOR IN-LINE PROC.
 000178                              272+VLCIMX DS    H           SAME AS VLCOMX FOR IN-LINE PROC.
 00017A                              273+SBLCTR DS    H           COUNTER FOR ASSIGNING  SBL'S
 00017C                              274+VLCCTR DS    H           USED TO DETERMINE VLCOMX AND VLCIMX
 00017E                              275+BLLCTR DS    H           CTR. FOR ASSIGNING ID. NO.TO LINKAGE SEC. BL'S
 000180                              276+SEQERR DS    H           NO. OF OUT-OF-SEQUENCE CARDS
 000182                              277+SWITCH   DS    H
                                     278+*                        BITS MARKED BY * MAY STILL BE IN USE BY
                                     279+*                        COBOLF - ASSIGN THESE AS A LAST RESORT
                             00080   280+SWTRCE EQU   X'80'       BIT 0  TRACE
                                     281+*              *         BIT 1
                                     282+*              *         BIT 2
                             00010   283+SPILL    EQU   X'10'     BIT 3  SET IF DICTIONARY SPILL
                                     284+*              *         BIT 4
                             00004   285+MQVAR    EQU   X'04'     BIT 5  SET IF PH2 BUILDS A QVAR TABLE
                                     286+*              *         BIT 6
1PH40     IKFCBL40                                                                                              PAGE    8
-  LOC  OBJECT CODE    ADDR1 ADDR2  STMT   SOURCE STATEMENT                                       ASM 0201 11.03 02/14/15
0                            00001   287+MQFILE   EQU   X'01'     BIT 7  SET IF PH2 BUILDS A QFILE TABLE
                                     288+*
                                     289+*                        SECOND BYTE OF SWITCH
                                     290+*              *         BIT 0
                                     291+*              *         BIT 1
                             00020   292+SORTRTN  EQU   X'20'     BIT 2  SORT RETURN SET BY PHASE2 USED BY PH5
                             00010   293+RERUNN   EQU   X'10'     BIT 3  RERUN USED BY PHASE 1, 2 AND 5
                             00008   294+DSOU     EQU   X'08'     BIT 4  SOURCE INDICATOR FOR STATISTICS
                             00004   295+NOFITSW  EQU   X'04'     BIT 5  SET BY PH6 IF E-TEXT ON FILE3
                                     296+*                               USED BY PH7 & PH00
                             00002   297+DOPH7    EQU   X'02'     BIT 6  PH6 LOOK AHEAD FOR PH7 YES OR NO
                             00001   298+RDERRFIL EQU   X'01'     BIT 7  PH6 INPUT INDICATOR
 000184                              299+DICND2 DS    F           DICTIONARY POINTER USED IN PH2
 000188                              300+DICND1 DS    F           DICTIONARY POINTER USED IN PH1
 00018C                              301+DATE     DS    CL15      DATE/TIME OF COMPILATION
                                     302+*                        REUSED IN PHASE1 AS FOLLOWS
                                     303+*                                  BYTES 1-4 NUMBER OF DATA NAMES
                                     304+*                                        5-8 NUMBER OF VERBS
                                     305+*                                        9-12 NUMBER OF SOURCE CARDS
                                     306+*                                       13-15 NOT USED
 00019B                              307+WSDEF  DS    0CL7        LAST 7 BYTES OF DATA A-TEXT EL.FOR WORK.ST.SEC
 00019B                              308+         DS    CL3
 00019E                              309+WSBL   DS    C
 00019F                              310+WSSIZE   DS    CL3
 0001A2                              311+ERRSEV DS    C           HIGHEST ERROR SEVERITY LEVEL
 0001A3                              312+PHZSW  DS    C           OPTIONS SWITCH :
                             00080   313+LIST     EQU X'80'       SOURCE(OS)
                             00040   314+LISTX    EQU   X'40'     PMAP
                             00020   315+DECK     EQU   X'20'
                             00010   316+LINK     EQU   X'10'     LOAD
                             00008   317+SEQ      EQU   X'08'
                             00004   318+FLAGW    EQU   X'04'
                             00002   319+LIBR     EQU   X'02'
                             00001   320+ZWB      EQU   X'01'
 0001A4                              321+PHZSW1 DS    C
                             00080   322+XREF     EQU   X'80'
                             00040   323+CLIST    EQU   X'40'
                             00020   324+SYM      EQU   X'20'      DMAP
                             00010   325+PDT      EQU   X'10'
                             00004   326+APOST    EQU   X'04'
                             00002   327+MAPSP    EQU     X'02'
                             00001   328+TRUNC    EQU   X'01'
 0001A5                              329+PHZSW2   DS    C         RESERVED FOR ADDITIONAL OPTIONS
                             00080   330+STAT     EQU   X'80'     RESERVED FOR STATEMENT NUMBER OPTION
                             00002   331+NO6A     EQU   X'02'     SET BY PH6 TO TELL PH7 THAT PH6A WAS BYPASSED
 0001A8                              332+DICADR DS    F
 0001AC                              333+DLSVAL DS    F           ACCESS RTN. COMMUNICATION CELL
 0001B0                              334+DICPTR DS    C           ACCESS RTN. COMMUNICATION CELL
 0001B1                              335+DCPTR  DS    3C          ACCESS RTN. COMMUNICATION CELL
 0001B4                              336+RPTSAV DS    H           REPORT SAVE AREA CELL
 0001B6                              337+BLSCTR   DS    H         AVAILABLE
 0001B8                              338+LCSECT   DS    F
 0001BC                              339+PH7LOD   DS    F
 0001C0                              340+RGNCTR DS    H           COUNT OF UNIQUE GN'S
 0001C2                              341+ERF4SW DS    C           SWITCH USED BY PH6/PH7
1PH40     IKFCBL40                                                                                              PAGE    9
-  LOC  OBJECT CODE    ADDR1 ADDR2  STMT   SOURCE STATEMENT                                       ASM 0201 11.03 02/14/15
00001C3                              342+PTYNO    DS    C                   CURRENT PRIORITY NO
                                     343+*                                  SET BY PH5  USED BY PH00
 0001C4                              344+COMMAD   DS    H
 0001C6                              345+PHZSW3   DS    C                   OPTION SWITCH
                             00001   346+VERBR    EQU   X'01'               LISTING A-TEXT
 0001C7                              347+PHZSW4   DS    C                   RESERVED FOR ADDITIONAL OPTIONS
 0001C8                              348+AMOVDC   DS    F
 0001CC                              349+SDSIZ    DS    F         BIGGEST SD IN PGM.
 0001D0                              350+SEGLMT   DS    C
 0001D1                              351+DTFNUM   DS    C
 0001D2                              352+CURSGN   DS    C
 0001D3                              353+PH1BYTE  DS    C         PHASE 1 COMMUNICATION TO PHASE 2
                             00001   354+UPSIBT   EQU   X'01'     PASSES INFORMATION FROM PHASE 1A TO PHASE 2
                             00002   355+EOPPH1   EQU   X'02'     PASSES INFORMATION FROM PHASE 1A TO PHASE 1B
                             00004   356+INITBIT  EQU   X'04'     PASSES INFORMATION FROM PHASE 1A TO PHASE 2
                             00008   357+BASINSQ  EQU   X'08'           PH1A TO PH1B
                             00020   358+BASIS    EQU   X'20'
                             00080   359+F3TEXT   EQU   X'80'
 0001D4                              360+DECBCT   DS    H         NO OF DECB'S FOR PGM
 0001D6                              361+INDEXS   DS    H         AVAILABLE
 0001D8                              362+INDEX1   DS    H        # INDEX NAMES DEFNED IN IN-LINE FILES
 0001DA                              363+CYCTOTAL DS    H         AVAILABLE
 0001DC                              364+IOPTRCTR DS    H        # I/O POINTERS FOR APPLY-WRITE-ONLY
 0001DE                              365+TS3MAX   DS    H
 0001E0                              366+TS4MAX   DS    H
 0001E4                              367+BUFSIZE  DS    F         USED FOR STATISTICS
 0001E8                              368+CORESIZE DS    F         USED FOR STATISTICS
 0001EC                              369+CNTLINE  DS    H         USED FOR STATISTICS
 0001EE                              370+CURCRD   DS    H
 0001F0                              371+SPACING  DS    C         USED FOR STATISTICS
 0001F1                              372+PDTCHR   DS    C                   SET BY PH01 USED BY PH6
 0001F2                              373+         DS    H
 0001F4                              374+BASINS   DS    1F
 0001F8                              375+         DS    1F
                                     376+*
                                     377+*
 0001FC                              378+         DS    0F
 0001FC                              379+AGETALL  DS    F                   ADDRESS OF TAMER RTN - GETALL
 000200                              380+         DS    F                   AVAILABLE
 000204                              381+RPDNUM   DS    H         AVAILABLE
 000206                              382+CYCNUM   DS    H         AVAILABLE
 000208                              383+IDENTL DS    F           REL. LOC. OF CODING IN OBJECT MODULE FOR THE
                                     384+*                        RANDOM PROC IDENTIFIED IN RPDNUM
 00020C                              385+BLCTR  DS    H           ID NO ASSIGNED TO BL'S FOR FILES
 00020E                              386+VNCTR  DS    H           COUNTER FOR ASSIGNING VN NUMBERS
 000210                              387+ONCTR  DS    H           COUNTER FOR ASSIGNING ID NO.TO ON CONTROL CELL
 000212                              388+PFMCTR DS    H           COUNTER FOR ASSIGNING ID NO.TO PERFORM CELLS
 000214                              389+PSVCTR DS    H           CTR FOR ASSIGNING ID'S TO PERFORM SAVE CELLS
 000216                              390+XSACTR DS    H           LOC  WITHIN EXHIBIT OR SORT SAVE AREA
 000218                              391+XSWCTR DS    H           CTR FOR ASSIGNING ID'S TO EXHIBIT/ON SWITCHES
 00021C                              392+RELLOC DS    F           DISPL OF TGT/SGT FROM THE BEG. OF OBJECT MOD.
 000220                              393+GTLNG  DS    H           LENGTH OF TGT OR SGT SPECIFIED IN RELLOC
 000222                              394+RPILOC   DS    H         AVAILABLE
 000224                              395+VNILOC DS    H           DISPL OF VNI FIELDS IN PGT
 000226                              396+VNLOC  DS    H           DISPL OF VN FIELDS IN TGT OR SGT
1PH40     IKFCBL40                                                                                              PAGE   10
-  LOC  OBJECT CODE    ADDR1 ADDR2  STMT   SOURCE STATEMENT                                       ASM 0201 11.03 02/14/15
0000228                              397+SUBCTR DS    H           CTR TO ASSIGN ID'S TO SUBSCRIPTED REFERENCES
 00022A                              398+PARMAX DS    H           SIZE OF PARAMETER AREA
 00022C                              399+BLSVAL   DS    H         AVAILABLE
 00022E                              400+BLSLOC   DS    H         AVAILABLE
 000230                              401+CMTBSW   DS    H         AVAILABLE
 000232                              402+SA2CTR DS    H           SET IF OPTION 2 OF USE  SPECIFIED
 000234                              403+SA3CTR DS    H           SET IF OPTION 5 OF USE  SPECIFIED
 000236                              404+BLSEND   DS    H         AVAILABLE
 000238                              405+INDEX    DS    F
 00023C                              406+INDEX0   DS    H         AVAILABLE
 000240                              407+       DS    6F
                                     408+*
                                     409+*      END OF COMMON
                                     410+*
                                     411+*
1PH40     IKFCBL40                                                                                              PAGE   11
-  LOC  OBJECT CODE    ADDR1 ADDR2  STMT   SOURCE STATEMENT                                       ASM 0201 11.03 02/14/15
1PH40     IKFCBL40                                                                                              PAGE   12
-  LOC  OBJECT CODE    ADDR1 ADDR2  STMT   SOURCE STATEMENT                                       ASM 0201 11.03 02/14/15
0                                    414 *                 PHASE-4 EQU'S FOR TIBS                                01194021
                                     415 *                                                                       01200021
                             00054   416 STRING EQU   TIB9-COS                                                   01206021
                             0005C   417 VARYTB EQU   TIB10-COS                                                  01212021
                             00064   418 VNTBL  EQU   TIB11-COS                                                  01218021
                             0006C   419 PFMTBL EQU   TIB12-COS                                                  01224021
                             00074   420 DBGTBL EQU   TIB13-COS                                                  01230021
                             0007C   421 PNOUNT EQU   TIB14-COS                                                  01236021
                             00084   422 PSIGNT EQU   TIB15-COS                                                  01242021
                             0008C   423 PTRFLS EQU   TIB16-COS                                                  01248021
                             00094   424 PSHTBL EQU   TIB17-COS                                                  01254021
                             0009C   425 DEFSBS EQU   TIB18-COS                                                  01260021
                             000AC   426 KEYTBL EQU   TIB20-COS                                                  01266021
                             000B4   427 SETTBL EQU   TIB21-COS                                                  01272021
                                     428 *                                                                       01278021
                                     429 *              OTHER EQU'S USED AS IMMEDIATE VALUES IN INSTRUCTIONS     01284021
                                     430 *                                                                       01290021
                             00001   431 MSWON  EQU     1                                                        01296021
                             000FE   432 MSWOFF EQU     254                                                      01302021
                             00010   433 MASTER EQU     X'10'              USED TO TEST PSHTBL AND PTRFLS        01308021
                             00006   434 MPND   EQU     X'6'                                                     01314021
                             00020   435 MPNU   EQU     X'20'                                                    01320021
                             00088   436 MLGN   EQU     X'88'              GNDEF                                 01326021
                             00044   437 MVERB    EQU   68                                                       01332021
                             00084   438 MVBOUT EQU     X'84'                                                    01338021
                             00050   439 MREL   EQU     X'50'              ORDINARY RELATIONAL                   01344021
                             00051   440 MCNDRL   EQU   X'51'          RELATION FROM CONDITION-NAME              01350021
                             00001   441 MNEGRL EQU     X'01'               NOT-BIT FOR IF RELATIONAL            01356021
                             000F0   442 MF0    EQU   X'F0'                                                      01362021
                             000FF   443 MFF      EQU   255                                                      01368021
                             00042   444 MBREAK EQU   X'42'                                                      01374021
                             00081   445 MCARD  EQU   X'81'                                                      01380021
                             00020   446 MOP    EQU     X'20'                                                    01386021
                             00030   447 MDN      EQU   X'30'                                                    01392021
                             00021   448 MFILE  EQU     X'21'                                                    01398021
                             00021   449 MSFN   EQU     X'21'                                                    01404021
                             000F8   450 MGDN     EQU   X'F8'                                                    01410021
                             000BA   451 MIR    EQU     X'BA'                                                    01416021
                             00031   452 MSS      EQU   X'31'                                                    01422021
                             00032   453 MNLIT    EQU   X'32'                                                    01428021
                             00033   454 MFLIT    EQU   X'33'                                                    01434021
                             00034   455 MALIT    EQU   X'34'                                                    01440021
                             00037   456 MATEXT   EQU   X'37'               LISTING A-TEXT                       01446021
                             0003F   457 MOWNLT EQU     X'3F'                                                    01452021
                             00075   458 MFGCON   EQU   X'75'                                                    01458021
                             00053   459 MSIGN    EQU   X'53'                                                    01464021
                             000FA   460 MGLTBC EQU     X'FA'              GLOBAL-TABLE CELL                     01470021
                             00001   461 MINCOD EQU     1                                                        01476021
                             00003   462 MDVCOD EQU     3                                                        01482021
                             00001   463 MINMSK EQU     X'1'               USED TO CHANGE SIGN OF LITERAL        01488021
                             00001   464 MLITBT EQU     1                                                        01494021
                             0000F   465 UNSIGN EQU   X'0F'                                                      01500021
                             00080   466 MDNUM  EQU     128                MODE-BYTE FOR NUMERIC DATA-NAME       01506021
                             00020   467 MDREP  EQU     32                               REPORT   .              01512021
                             0000E   468 MNUMVB EQU     X'0E'              CODE FOR RELAT. VERB 'NUMERIC'        01518021
1PH40     IKFCBL40                                                                                              PAGE   13
-  LOC  OBJECT CODE    ADDR1 ADDR2  STMT   SOURCE STATEMENT                                       ASM 0201 11.03 02/14/15
0                            0000C   469 MALFVB EQU     X'0C'              CODE FOR RELAT. VERB 'ALPHABETIC'     01524021
                             00003   470 MANMOD EQU     3                MODE+1 FOR ALPHANUMERIC                 01530021
                             00002   471 MALMOD EQU     2                           ALPHABETIC                   01536021
                             0000C   472 MIDMOD EQU     12                          INT. DECIMAL                 01542021
                             00008   473 MEDMOD EQU     8                           EXT. DECIMAL                 01548021
                             00009   474 MEFMOD EQU     9                            EXT. FLOATING               01554021
                             0000D   475 MSNMOD EQU     X'D'                          STERLING NON-REPORT        01560021
                             00080   476 MNUMBT EQU     128              BIT IN MODE FOR NUMERIC                 01566021
                             00070   477 MGRPBT EQU 112                                                          01572021
                             00020   478 MNONBT EQU     32               BIT IN MODE FOR NON-NUMERIC             01578021
                             00040   479 MRPAL  EQU     64            MODE BIT COMMON TO AN,AL, GRP              01584021
                             00003   480 MFGMOD EQU     3               BITS IN MODE FOR FIGCON                  01590021
                             00004   481 MGRPV    EQU   4                  MODE FOR GROUP-VARIABLE DN            01596021
                             00001   482 MFPRBT EQU     X'1'        FLOATING-POINT PRECISION                     01602021
                             00080   483 MFGZRO EQU     128                 BIT IN MODE OFR FIGCON ZERO          01608021
                             00040   484 MFGALP EQU     64                  BIT IN MODE FOR FIGCON AL AND SP     01614021
                             00010   485 MSKALF EQU     X'10'           BIT IN RELAT.VERB FOR NON-NUMERIC        01620021
                             000EF   486 MNOALF EQU     X'EF'              TURNS OFF MSKALF                      01626021
                             0000A   487 MIFMOD EQU     X'0A'            VALUE OF MODE FOR INT. FLOATING         01632021
                             0000B   488 MNUMRL EQU     X'0B'            HIGHEST CODE FOR NUMERIC RELATIONAL     01638021
                             0007E   489 MOPLNG EQU     126          LENGTH OF LONGEST IF OPERAND + 4 FOR IT     01644021
                             00009   490 MDUGPK EQU     X'09'               DEBUG PACKET CODE                    01650021
                             00008   491 MERDCL EQU     X'08'         ERROR-DECL BIT IN FILE ATTRIBUTES          01656021
                             00002   492 MASYNC EQU     2                  MAJOR-CODE BIT FOR ASYNCH. FILE       01662021
                             00008   493 MENDCL EQU     X'08'               END DECLARATIVES CODE                01668021
                             00007   494 MDECL  EQU     X'07'               DECLARATIVE CODE                     01674021
                             00006   495 MPRDIV EQU     X'06'              START OF SOURCE PROCEDURE DIVISIO     01680021
                             0000A   496 MQRT   EQU     X'0A'              START OF Q- ROUTINES, END OF SOUR     01686021
                             00040   497 MSNBIT EQU     X'40'              SECTION-NAME BIT IN LHN,RHN           01692021
                             00080   498 MDBGBT EQU     X'80'         DEBUG BIT FOR LHN,RHN REFERENCED IN DE     01698021
                             00040   499 MDBUGU EQU     X'40'         DEBUG BIT FOR LHN,RHN DEFINED IN DEBUG     01704021
                             00010   500 MALTBT EQU     X'10'              ALTER BIT FOR LHN,RHN                 01710021
                             00020   501 MPFMBT EQU     X'20'            PERFORM BIT FOR LHN,RHN                 01716021
                             00020   502 MDUMBT EQU     X'20'              DUMMY-NAME BIT FOR LHN                01722021
                             00001   503 MRPTBT EQU     X'01'              REPORT DECLARATIVE BIT FOR RHN        01728021
                             00004   504 MLABIT EQU     X'04'              PN BIT,DEFINED IN ERROR DECLARATI     01734021
                             00010   505 MDCLPN EQU     X'10'              PN BIT, DEFINED IN ANY DECLARATIV     01740021
                             00005   506 MLABRP EQU     X'05'          COMBINATION OF PN LABEL AND REPORT BI     01746021
                             0004C   507 MELDB  EQU     X'4C'       COMBINES ERR, LAB,DEBUG PN BITS              01752021
                             00008   508 MGOBIT EQU     8                                                        01758021
                             00004   509 MEXTBT EQU     4                  EXIT BIT FOR LHN                      01764021
                             00004   510 MNDPFM EQU     X'04'               USED BY IDLHN TO MARK END-PERFOR     01770021
                             00070   511 USINDX EQU    X'70'                USAGE IS INDEX                       01776021
                                     512 *                                                                       01782021
                             0009F   513 MNOIND EQU   X'9F'                                                      01788021
                             00014   514 MB20   EQU     20                                                       01794021
                             00018   515 MB24   EQU     24                  BINARY 00011000                      01800021
                             00080   516 MB128  EQU     128                 BINARY 10000000                      01806021
                             00060   517 MSKIND EQU   X'60'      THIS PLUS REL. CODE GIVES INDEX RELCODE         01812021
                             00036   518 MINDNM EQU   X'36'                 FIRST BYTE OF INDEXNAME              01818021
                             00008   519 INDMD1 EQU   X'08'                FIRST BYTE MODE FOR INDEXNAME         01824021
                             00010   520 INDNMD1 EQU   X'10'          FIRST BYTE MODE INDEX DATA ITEM            01830021
                             0007F   521 M7F    EQU     X'7F'                                                    01836021
                             00014   522 GODL   EQU     X'14'                                                    01842021
                             000F7   523 MVLC EQU       X'F7'                                                    01848021
1PH40     IKFCBL40                                                                                              PAGE   14
-  LOC  OBJECT CODE    ADDR1 ADDR2  STMT   SOURCE STATEMENT                                       ASM 0201 11.03 02/14/15
0                            00000   524 MZERO  EQU     X'00'                                                    01854021
                             00001   525 MB1    EQU     1                                                        01860021
                             00002   526 MB2    EQU     2                                                        01866021
                             00003   527 MB3    EQU     3                                                        01872021
                             00004   528 MB4    EQU     4                                                        01878021
                             00005   529 MB5    EQU     5                                                        01884021
                             00006   530 MB6    EQU     6                                                        01890021
                             00007   531 MB7    EQU     7                                                        01896021
                             00008   532 MB8    EQU     8                   BINARY 00001000                      01902021
                             00009   533 MB9    EQU     9                                                        01908021
                             0000A   534 MB10    EQU    10                                                       01914021
                             0000B   535 MB11   EQU     11                                                       01920021
                             0000C   536 MB12   EQU     12                                                       01926021
                             0000D   537 MB13   EQU     13                                                       01932021
                             0000E   538 MB14   EQU 14                                                           01938021
                             00023   539 MB35   EQU   35                                                         01944021
                             00010   540 MB16   EQU     16                   BINARY 00010000                     01950021
                             00020   541 MB32   EQU     32                   BINARY 00100000                     01956021
                             00040   542 MB64   EQU     64                   BINARY 01000000                     01962021
                             00032   543 INDEP   EQU  50          INDICATES MINIMUM PTY VALUE FOR INDEP SEGT     01968021
                             0000D   544 SEGBK  EQU   X'0D'           SEGMENTATION CONTROL BREAK                 01974021
                             000FF   545 NONSEG EQU X'FF'         VALUE IN SEGLMT FOR NON-SEGT PGM               01980021
                             000C1   546 MC1    EQU     X'C1'                C1=A                                01986021
                             000E9   547 ME9    EQU     X'E9'                E9=Z                                01992021
                             000F9   548 MF9    EQU     X'F9'                F9=9                                01998021
                             00080   549 MREEL  EQU     X'80'            *  OPTION CODE FOR CLOSE                02004021
                             00030   550 MCLNOR EQU     X'30'            *                                       02010021
                             00040   551 MRWND   EQU    X'40'              CLOSE REWIND                          02016021
                             00060   552 MVREC  EQU     X'60'        MODE-V BIT IN FN ATTRIBUTES                 02022021
                             000F0   553 MQSAM  EQU     X'F0'         * FILE TYPE IN FN ATTRIBUTES               02028021
                             00040   554 MBSAM  EQU     X'40'        *                                           02034021
                             00020   555 MBISAM EQU     X'20'         *                                          02040021
                             00010   556 MQISAM EQU     X'10'         *                                          02046021
                             00080   557 MBDAM  EQU     X'80'        *                                           02052021
                             000A0   558 MBIBD    EQU   X'A0'               BITS BISAM AND BDAM                  02058021
                             000B0   559 MQSBS    EQU   X'B0'               BITS NOT QSAM OR BSAM                02064021
                             00004   560 MBDREL EQU     X'04'               BDAM RELATIVE TRACK BITS             02070021
                             0008C   561 DBDMW  EQU    X'8C'        DIRECT BDAM W ACCESS METHOD                  02076021
                             00084   562 BDMDIR EQU    X'84'               DIRECT BDAM ACCESS METHOD             02082021
                             00079   563 MSPDN  EQU     X'79'               SPECIAL DN'S= TALLY ETC.             02088021
                             0000F   564 MOUOPT EQU   X'0F'       *    OPTION CODES OFR OPEN                     02094021
                             00000   565 MINOPT EQU    X'00'      *                                              02100021
                             00004   566 MIOOPT EQU    X'04'     **                                              02106021
                             00001   567 MRVOPT EQU    X'01'     **                                              02112021
                             00030   568 MLEAVE EQU    X'30'     *    ADDNL OPEN OPTIONS                         02118021
                             00010   569 MRERD  EQU    X'10'    *                                                02124021
                             00000   570 MDISP  EQU    X'00'   *                                                 02130021
                             00009   571 ADVNCNG EQU  X'09'       TESTS IF ADV OPT EVER USED IN WRITE            02136021
                             00001   572 AFTADV  EQU  X'01'       TESTS IF AFTER ADV EVER USED                   02142021
                             00055   573 CARGCN  EQU  X'55'       MNEMONIC NAME  ADV OPTION                      02148021
                             00080   574 BEFBIT EQU X'80'                                                        02154021
                             00002   575 MAPP5  EQU     X'02'         ON QSAM,QISAM,BISAM, WRITE-ONLY BIT        02160021
                             00007   576 MWONLY EQU     X'07'              MAJOR CODE FOR DN OF WRITE-ONLY F     02166021
                             00008   577 MLEV1  EQU   X'08'       LEVEL 01                                       02172021
                             0000C   578 MLV177 EQU  X'0C'    LEVEL 01 OR 77                                     02178021
1PH40     IKFCBL40                                                                                              PAGE   15
-  LOC  OBJECT CODE    ADDR1 ADDR2  STMT   SOURCE STATEMENT                                       ASM 0201 11.03 02/14/15
0                            000F0   579 MBLI   EQU   X'F0'                 IS BASE LOCATOR A BLI                02184021
                             000FB   580 WRTOLV EQU   X'FB'  USED TO 'AND' LEV 77 BIT OFF WRITEONLY              02190021
                             00009   581 MSDMAJ EQU     9                  MAJOR CODE FOR SORT FILE              02196021
                             00001   582 USOPT  EQU   X'01'           USING FOUND IN SORT STATEMENT              02202021
                             00010   583 GVOPT  EQU   X'10'      GIVING IN SORT STATEMENT                        02208021
                             0000C   584 TAMNUM  EQU  12        NO. TABLES ALWAYS PRIMED/RELEASED                02214021
                             00008   585 NEXSN  EQU   8                                                          02220021
                             00001   586 PRIOTY EQU   1                                                          02226021
                             00002   587 PROCNM EQU   2                                                          02232021
                             00004   588 PNIDEN EQU   4                                                          02238021
                             00007   589 PTYPN  EQU   7                                                          02244021
                             00000   590 PROCED EQU   0                                                          02250021
                             00000   591 R0       EQU   0                                                        02256021
                             00000   592 DX0      EQU   0                                                        02262021
                             00000   593 LX0      EQU   0                                                        02268021
                             00001   594 DX1      EQU   1                                                        02274021
                             00001   595 NX1      EQU   1                                                        02280021
                             00001   596 LX1      EQU   1                                                        02286021
                             00002   597 DX2      EQU   2                                                        02292021
                             00002   598 NX2      EQU   2                                                        02298021
                             00002   599 LX2      EQU   2                                                        02304021
                             00003   600 DX3      EQU   3                                                        02310021
                             00003   601 NX3      EQU   3                                                        02316021
                             00003   602 LX3      EQU   3                                                        02322021
                             00004   603 DX4      EQU   4                                                        02328021
                             00004   604 NX4      EQU   4                                                        02334021
                             00004   605 LX4      EQU   4                                                        02340021
                             00005   606 DX5      EQU   5                                                        02346021
                             00005   607 NX5      EQU   5                                                        02352021
                             00005   608 LX5      EQU   5                                                        02358021
                             00006   609 DX6      EQU   6                                                        02364021
                             00006   610 NX6      EQU   6                                                        02370021
                             00006   611 LX6      EQU   6                                                        02376021
                             00007   612 DX7      EQU   7                                                        02382021
                             00007   613 NX7      EQU   7                                                        02388021
                             00008   614 DX8      EQU   8                                                        02394021
                             00008   615 NX8      EQU   8                                                        02400021
                             00008   616 LX8      EQU   8                                                        02406021
                             00009   617 DX9      EQU   9                                                        02412021
                             0000A   618 DX10     EQU   10                                                       02418021
                             0000A   619 NX10     EQU   10                                                       02424021
                             0000A   620 LX10     EQU   10                                                       02430021
                             0000B   621 DX11     EQU   11                                                       02436021
                             0000C   622 DX12     EQU   12                                                       02442021
                             0000C   623 NX12     EQU   12                                                       02448021
                             0000D   624 DX13     EQU   13                                                       02454021
                             0000D   625 NX13     EQU   13                                                       02460021
                             0000E   626 DX14     EQU   14                                                       02466021
                             0000E   627 NX14     EQU   14                                                       02472021
                             00010   628 NX16     EQU   16                                                       02478021
                             00010   629 LX16     EQU   16                                                       02484021
                             0007A   630 LX122    EQU   122                                                      02490021
                             0007C   631 LX124    EQU   124                                                      02496021
                             00100   632 LX256    EQU   256                                                      02502021
                             00100   633 DX256    EQU   256                                                      02508021
1PH40     IKFCBL40                                                                                              PAGE   16
-  LOC  OBJECT CODE    ADDR1 ADDR2  STMT   SOURCE STATEMENT                                       ASM 0201 11.03 02/14/15
0                            00000   634 XX0      EQU   X'00'                                                    02514021
                             000F0   635 XXF0     EQU   X'F0'                                                    02520021
                             0000C   636 XX0C     EQU   X'0C'                                                    02526021
                             0000E   637 XX0E   EQU     X'0E'                                                    02532021
                             00000   638 XX00     EQU   X'00'                                                    02538021
                             00002   639 XX02     EQU   X'02'                                                    02544021
                             00003   640 XX03     EQU   X'03'                                                    02550021
                             00006   641 XX06     EQU   X'06'                                                    02556021
                             00008   642 XX08     EQU   X'08'                                                    02562021
                             00004   643 XX04     EQU   X'04'                                                    02568021
                             00039   644 XX39     EQU   X'39'                                                    02574021
                             00009   645 XX09     EQU   X'09'                                                    02580021
                             00035   646 XX35     EQU   X'35'                                                    02586021
                             00040   647 XX40     EQU   X'40'                                                    02592021
                             0000F   648 XX0F     EQU   X'0F'                                                    02598021
                             00001   649 XX01     EQU   X'01'                                                    02604021
                             00007   650 XX07     EQU   X'07'                                                    02610021
                             00084   651 XX84     EQU   X'84'                                                    02616021
                             00011   652 XX11     EQU   X'11'                                                    02622021
                             00010   653 XX10     EQU   X'10'                                                    02628021
                             0001F   654 XX1F     EQU   X'1F'                                                    02634021
                             00030   655 XX30     EQU   X'30'                                                    02640021
                             00036   656 XX36     EQU   X'36'                                                    02646021
                             00005   657 XX05     EQU   X'05'                                                    02652021
                             000BB   658 XXBB     EQU   X'BB'                                                    02658021
                             00060   659 XX60     EQU   X'60'                                                    02664021
                             000A0   660 XXA0     EQU   X'A0'                                                    02670021
                             000B0   661 XXB0     EQU   X'B0'                                                    02676021
                             00090   662 XX90     EQU   X'90'                                                    02682021
                             00020   663 XX20     EQU   X'20'                                                    02688021
                             00080   664 XX80     EQU   X'80'                                                    02694021
                             00046   665 XX46     EQU   X'46'                                                    02700021
                             00018   666 XX18     EQU   X'18'                                                    02706021
                             000FE   667 XXFE     EQU   X'FE'                                                    02712021
                             00089   668 XX89     EQU   X'89'                                                    02718021
                             000EF   669 XXEF     EQU   X'EF'                                                    02724021
                             000FD   670 XXFD     EQU   X'FD'                                                    02730021
                             000DF   671 XXDF     EQU   X'DF'                                                    02736021
                             0007F   672 XX7F     EQU   X'7F'                                                    02742021
                             0000A   673 XX0A     EQU   X'0A'                                                    02748021
                             0004D   674 XX4D     EQU   X'4D'                                                    02754021
                             0005D   675 XX5D     EQU   X'5D'                                                    02760021
                             00079   676 XX79     EQU   X'79'                                                    02766021
                             000FF   677 XXFF     EQU   X'FF'                                                    02772021
                             00072   678 XX72     EQU   X'72'                                                    02778021
                             00081   679 XX81     EQU   X'81'                                                    02784021
                             00061   680 XX61     EQU   X'61'                                                    02790021
                             000A3   681 XXA3     EQU   X'A3'                                                    02796021
                             00063   682 XX63     EQU   X'63'                                                    02802021
                             00070   683 XX70     EQU   X'70'                                                    02808021
                             0000D   684 XX0D     EQU   X'0D'                                                    02814021
                             00023   685 XX23     EQU   X'23'                                                    02820021
                             0001D   686 XX1D     EQU   X'1D'                                                    02826021
                             0001E   687 XX1E     EQU   X'1E'                                                    02832021
                             0002A   688 XX2A     EQU   X'2A'                                                    02838021
1PH40     IKFCBL40                                                                                              PAGE   17
-  LOC  OBJECT CODE    ADDR1 ADDR2  STMT   SOURCE STATEMENT                                       ASM 0201 11.03 02/14/15
0                            00032   689 XX32     EQU   X'32'                                                    02844021
                             000F0   690 XC0      EQU   C'0'                                                     02850021
1PH40     IKFCBL40                                                                                              PAGE   18
-  LOC  OBJECT CODE    ADDR1 ADDR2  STMT   SOURCE STATEMENT                                       ASM 0201 11.03 02/14/15
000000A                              692 IKF40A CSECT                                                            02862021
                             04FB8   693        USING   COMON1,RB1                                               02868021
                             05FB8   694        USING   COMON2,RB2                                               02874021
                             06E58   695        USING   COMON3,RB3                                               02880021
                             07CF8   696        USING   COMON4,RB4                                               02886021
                             088B0   697        USING   COMON5,RB5                                               02892021
                                     698 *                                                                       02898021
                             0988B   699        USING   GOTTEN,RIN                                               02904021
                             00000   700        USING    COS,RW1                                                 02910021
-
-
-
-
                                     702 *******************************************************************     02922021
                                     703 *                                                                       02928021
                                     704 *                                                                       02934021
                                     705 *                   V E R B  A N A L Y Z E R S                          02940021
                                     706 *                                                                       02946021
                                     707 *      ALL VERB ANALYZERS START ' USING  *,RVRB '.                      02952021
                                     708 *      THEIR ADDRESSES ARE IN A LIST, ORDERED BY CODE, AT AVRB.         02958021
                                     709 *      IDENT LOADS RVRB FROM THE APPROPRIATE CELL OF THIS LIST, AND     02964021
                                     710 *        TURNS CONTROL OVER TO THE ANALYZER BY A  BCR  UNCOND,RVRB      02970021
                                     711 *                                                                       02976021
                                     712 *      EXIT FROM EACH ANALYZER IS TO IDENT.                             02982021
                                     713 *         BC   UNCOND,IDENT       NORMAL CASE                           02988021
                                     714 *         BC   UNCOND,IDERR       AFTER MSG HAS BEEN WRITTEN            02994021
                                     715 *                                                                       03000021
                                     716 *      VERB ANALYZERS DO NOT SAVE AND RESTORE REGISTERS EXCEPT FOR      03006021
                                     717 *        THEIR OWN CONVENIENCE.                                         03012021
                                     718 *                                                                       03018021
                                     719 *                                                                       03024021
                                     720 *******************************************************************     03030021
1PH40     IKFCBL40                                                                                              PAGE   19
-  LOC  OBJECT CODE    ADDR1 ADDR2  STMT   SOURCE STATEMENT                                       ASM 0201 11.03 02/14/15
0                                    722 *=1    MOVE    VERB                                                     03042021
                                     723 *******************************************************************     03048021
                                     724 *                                                                       03054021
                                     725 *                                                                       03060021
                                     726 *                                                                       03066021
                                     727 *                                  M O V E                              03072021
                                     728 *                                                                       03078021
                                     729 *                                                                       03084021
                                     730 *                                                                       03090021
                                     731 *** STRINGS PRODUCED                                                    03096021
                                     732 *      SOURCE - MOVE A TO B,C,D.                                        03102021
                                     733 *      OUTPUT - MOVE A B                                                03108021
                                     734 *               MOVE A C                                                03114021
                                     735 *               MOVE A D                                                03120021
                                     736 *                                                                       03126021
                                     737 *      SOURCE - MOVE CORRESPONDING A TO B,C.                            03132021
                                     738 *      OUTPUT - MOVE A1 B1    ('CORRESPONDING' OPERANDS GIVEN BY PH     03138021
                                     739 *               MOVE A2 B2                                              03144021
                                     740 *               .    .  .                                               03150021
                                     741 *               MOVE AN BN                                              03156021
                                     742 *               MOVE A1 C1                                              03162021
                                     743 *               MOVE A2 C2                                              03168021
                                     744 *               .    .  .                                               03174021
                                     745 *               MOVE AN CN                                              03180021
                                     746 *                                                                       03186021
                                     747 *                                                                       03192021
                                     748 *** SUBROUTINES CALLED                                                  03198021
                                     749 *      GETNXT,GETALL,RDUCOP,STOVRB,STOINP,GENSTR,ISOKMV,ERROR,OPERR     03204021
                                     750 *                                                                       03210021
                                     751 *                                                                       03216021
                                     752 *** ERROR PROCESSING                                                    03222021
                                     753 *      ASSUME 'TO' IF MISSING                                           03228021
                                     754 *      ACCEPT SUPERFLUOUS 'TO' BETWEEN MULTIPLE TARGETS                 03234021
                                     755 *      IF SOURCE-FIELD ILLEGAL, SKIP TILL NEXT STATEMENT                03240021
                                     756 *      IF TARGET-FIELD ILLEGAL, SKIP, SEEK LEGAL TARGET-FIELD           03246021
                                     757 *      IF SOURCE AND TARGET INCOMPATIBLE,SKIP,SEEK NEXT TARGET          03252021
                                     758 *                                                                       03258021
                                     759 *                                                                       03264021
                                     760 *                                                                       03270021
                                     761 *                                                                       03276021
                                     762 *                                                                       03282021
                                     763 *** NOTES                                                               03288021
                                     764 *    MOVSW1      IF ON, SECOND OPERAND WAS FOUND                        03294021
                                     765 *      DRYRUN  IF ON MEANS SOURCE FORM OF CORRESPONDING. CHECK SYNT     03300021
                                     766 *               BUT PRODUCE NO OUTPUT. TURNED OFF BY MOVE OR OPERR.     03306021
                                     767 *      CORRSW  IF ON MEANS PROCESSING PH3 EXPANSIONS. DO OUTPUT. TU     03312021
                                     768 *               OFF BY MOVE OR OPERR WHEN NEXT WORD 'CORRESPONDING'     03318021
                                     769 *               IS FOUND (PH3 INSERTS THIS AT END OF EACH EXPANSION     03324021
                                     770 *              SERIES).                                                 03330021
                                     771 *      OP1SS AND OP2SS ARE INITIALIZED OFF. TURNED ON IF SOURCE FOR     03336021
                                     772 *               OF CORRESPONDING HAS SUBSCRIPTED OP1 OR OP2,RESPECT     03342021
                                     773 *               LY. IF EITHER IS ON, OPSSSW IS TURNED ON BEFORE A       03348021
                                     774 *               CALL TO RDUCOP,TO TELL THE SUBSCRIPT ROUTINE TO FIN     03354021
                                     775 *               SUBSCRIPTS FOR EXPANSION OPERANDS NOT IN THE INPUT      03360021
                                     776 *               STREAM AS NORMALLY BUT AT LOC OPRND1 OR OPRND2 RES-     03366021
1PH40     IKFCBL40                                                                                              PAGE   20
-  LOC  OBJECT CODE    ADDR1 ADDR2  STMT   SOURCE STATEMENT                                       ASM 0201 11.03 02/14/15
0                                    777 *               PECTIVELY. SUBSCR TURNS OFF OPSSSW.                     03372021
                                     778 *      THISOP CONTAINS ADDR OF  OPRND1 OR OPRND2, RESPECTIVELY. TEL     03378021
                                     779 *               RDUCOP WHICH OPERAND IS BEING STORED (DRYRUN) OR        03384021
                                     780 *               PROCESSED (EXPANSIONS). TELLS OPERR WHETHER TO GIVE     03390021
                                     781 *               UP (OPRND1) OR SKIP TO NEXT OPERAND (OPRND2).           03396021
                                     782 *                                                                       03402021
                                     783 *                                                                       03408021
                                     784 *                                                                       03414021
                                     785 *******************************************************************     03420021
-
0
                             0000A   787        USING   *,RVRB                                                   03432021
                             0000A   788 MOVE   EQU     *                                                        03438021
                                     789 *                                                                       03444021
 00000A 94FE BFAB      0985B         790        NI      SKIPSW,MSWOFF                                            03450021
 00000E D701 BE60 BE60 09710 09710   791          XC    LEFTSS(LX2),LEFTSS   INIT TAMM-DISPL) SAVE AREAS         03456021
 000014 D701 BE8A BE8A 0973A 0973A   792          XC    LEFTDP(LX2),LEFTDP                                       03462021
 00001A 41E0 B770      09020         793        LA      RCS,OPRND1         TELL SUBSCR AND OPERR IT IS OP-1      03468021
 00001E 50E0 BC68      09518         794        ST      RCS,THISOP                                               03474021
 000022 94FE BF88      09838         795        NI    MOVSW1,MSWOFF         INITIALIZE SWITCH TO ZERO            03480021
 000026 D501 C000 A418 0988B 08110   796          CLC   GOTTEN(LX2),CBSAME   IS IT COBOL WORD 'SAME'             03486021
 00002C 4780 F158      00162         797        BC    EQ,MOVE48             YES - IT IS 'SAME'                   03492021
 000030 D501 C000 A340 0988B 08038   798          CLC   GOTTEN(LX2),CBCORR   IS IT COBOL WORD 'CORRESPONDING'    03498021
 000036 4770 F160      0016A         799        BC    NOTEQ,MOVE51          NO - CHECK IF CORR SWITCH ON         03504021
 00003A 45E0 7566      0551E         800        BAL   RCS,GETNXT            IS IT 'CORRESPONDING'                03510021
 00003E 45E0 88C0      06878         801        BAL     RCS,ISDTOP         IS IT A DATA OPERAND AT ALL           03516021
 000042 47F0 9DBC      07C14         802        BC      UNCOND,OPERR        NO - GIVE UP                         03522021
 000046 9601 BF93      09843         803        OI    DRYRUN,MSWON          SET ON, SOURCE-FORM OF CORRESPON     03528021
 00004A 94FE BF91      09841         804 MOVE04 NI    OP1SS,MSWOFF          INITIALIZE OP1SS SW                  03534021
                             0004E   805 MOVE07 EQU     *                                                        03540021
 00004E 45E0 81AC      06164         806        BAL   RCS,RDUCOP            IS IT A VALID DATA OPERAND AT AL     03546021
 000052 45E0 9DBC      07C14         807        BAL   RCS,OPERR             NO, GO TO OPERR SUBROUTINE           03552021
 000056 45E0 76EC      056A4         808        BAL     RCS,GETALL          YES, MOVE OPERAND TO SAVE AREA       03558021
 00005A 4120 B57C      08E2C         809        LA      RW2,PLEFT          SAVE OP1 FOR MSG                      03564021
 00005E D201 B5F8 BE64 08EA8 09714   810          MVC   MODEL(LX2),MODE      SAVE MODE OF OP1 FOR ISOKMV ROUT    03570021
 000064 D200 B5F7 BE66 08EA7 09716   811          MVC   DMAXL(LX1),DCURR                                         03576021
 00006A 9101 BF93      09843         812        TM    DRYRUN,MSWON                                               03582021
 00006E 4780 F178      00182         813        BC    ZERO,MOVE54           ORDINARY 'MOVE'                      03588021
 000072 9531 C000      0988B         814        CLI   GOTTEN,MSS            IS IT A SUSCRIPTED DN                03594021
 000076 4770 F074      0007E         815        BC    NOTEQ,MOVE10          NO, GET ANOTHER ENTITY               03600021
 00007A 9601 BF91      09841         816        OI    OP1SS,MSWON           GOT 1ST SS DN, TURN OP1SS SW ON      03606021
 00007E 45E0 7566      0551E         817 MOVE10 BAL   RCS,GETNXT            GO TO GETNXT ROUTINE                 03612021
 000082 41E0 B870      09120         818        LA      RCS,OPRND2         PROVIDE OPRND2 ADDR. TO SUBSCR        03618021
 000086 50E0 BC68      09518         819        ST      RCS,THISOP                                               03624021
 00008A 9101 BF7A      0982A         820        TM    CORRSW,MSWON                                               03630021
 00008E 4710 F11A      00124         821        BC    ONES,MOVE29           NOT A CORRESPONDING MOVE             03636021
 000092 94FE BF92      09842         822        NI    OP2SS,MSWOFF                                               03642021
 000096 D501 C000 A4E0 0988B 081D8   823 MOVE13   CLC   GOTTEN(LX2),CBTO     IS IT COBOL WORD 'TO'               03648021
 00009C 4780 F0AE      000B8         824        BC    EQ,MOVE16             YES, CHECK IF FIRST 'TO'             03654021
 0000A0 9101 BF88      09838         825        TM    MOVSW1,MSWON          NOT 'TO'                             03660021
 0000A4 4710 F0C6      000D0         826        BC    ONES,MOVE20           FOR DN-3,DN-4----ETC.                03666021
 0000A8 4100 A4E0      081D8         827        LA      RA0,CBTO           'TO' MISSING                          03672021
1PH40     IKFCBL40                                                                                              PAGE   21
-  LOC  OBJECT CODE    ADDR1 ADDR2  STMT   SOURCE STATEMENT                                       ASM 0201 11.03 02/14/15
00000AC 45E0 9BDA      07A32         828        BAL     RCS,ERROR           NOT 'TO' OR 2ND OPERAND- ERROR       03678021
 0000B0 4110 A02A      07D22         829        LA      RW1,ELST07                                               03684021
 0000B4 47F0 F0C6      000D0         830        BC    UNCOND,MOVE20         CHECK IF 2ND OPERAND IS VALID        03690021
 0000B8 9101 BF88      09838         831 MOVE16 TM    MOVSW1,MSWON                                               03696021
 0000BC 4780 F0C2      000CC         832        BC    ZERO,MOVE18           THE FIRST 'TO'                       03702021
 0000C0 4100 A4E0      081D8         833        LA      RA0,CBTO                                                 03708021
 0000C4 45E0 9BDA      07A32         834        BAL     RCS,ERROR          SUPERFLUOUS 'TO'                      03714021
 0000C8 4110 A033      07D2B         835        LA      RW1,ELST08                                               03720021
 0000CC 45E0 7566      0551E         836 MOVE18 BAL   RCS,GETNXT            GET NEXT INPUT                       03726021
 0000D0 45E0 81AC      06164         837 MOVE20 BAL   RCS,RDUCOP            IS IT A VALID DATA OPERAND           03732021
 0000D4 9601 BFAB      0985B         838        OI      SKIPSW,MSWON         NO                                  03738021
 0000D8 45E0 76EC      056A4         839        BAL     RCS,GETALL          YES, MOVE OPERAND TO SAVE AREA       03744021
 0000DC 4120 B5FA      08EAA         840        LA      RW2,PRIGHT         SAVE OP2 FOR MSG                      03750021
 0000E0 D201 B676 BE64 08F26 09714   841          MVC   MODER(LX2),MODE      SAVE MODE OF OP2 FOR ISOKMV ROUT    03756021
 0000E6 D200 B675 BE66 08F25 09716   842          MVC   DMAXR(LX1),DCURR                                         03762021
 0000EC 9101 BFAB      0985B         843        TM      SKIPSW,MSWON        WAS IT GOOD OPERAND                  03768021
 0000F0 4710 F12A      00134         844        BC      ONES,MOVE32          NO                                  03774021
 0000F4 9101 BE64      09714         845        TM      MODE,MLITBT          IS IT DN                            03780021
 0000F8 4710 F132      0013C         846        BC      ONES,MOVE35          NO - LITERAL - ERROR                03786021
 0000FC 9101 BF93      09843         847        TM    DRYRUN,MSWON                                               03792021
 000100 4780 F190      0019A         848        BC    ZERO,MOVE58           ORDINARY 'MOVE' DRYRUN OFF           03798021
 000104 9531 C000      0988B         849        CLI   GOTTEN,MSS            IS IT A SS DN                        03804021
 000108 4770 F106      00110         850        BC    NOTEQ,MOVE23          NO, NOT SUBSCRIPTED                  03810021
 00010C 9601 BF92      09842         851        OI    OP2SS,MSWON           GOT 2ND SS DN, TURN OP2SS SW ON      03816021
 000110 45E0 7566      0551E         852 MOVE23 BAL   RCS,GETNXT            GET NEXT INPUT                       03822021
 000114 94FE BF93      09843         853        NI    DRYRUN,MSWOFF         AFTER GOT 2 SS DN TURN DRYRUN SW     03828021
 000118 9601 BF7A      0982A         854        OI    CORRSW,MSWON           AND TURN CORRSW SW ON               03834021
 00011C 9601 BF73      09823         855        OI    GENRED,MSWON          DRYRUN ON, BUT NOT GENERATE YET,     03840021
                                     856 *                                  TURN GENRED ON TO TELL IDENT - -     03846021
                                     857 *                                  MESSAGE.                             03852021
 000120 47F0 7000      04FB8         858        BC    UNCOND,IDENT          EXIT                                 03858021
 000124 9101 BF92      09842         859 MOVE29 TM    OP2SS,MSWON           IS 2ND SS DN PROCESSED               03864021
 000128 4780 F08C      00096         860        BC    ZERO,MOVE13           NO                                   03870021
 00012C 9601 BF94      09844         861        OI    OPSSSW,MSWON          IT IS A SUBSCROPTED DN 'MOVE'        03876021
 000130 47F0 F08C      00096         862        BC    UNCOND,MOVE13         CHECK VALIDITY OF DN                 03882021
 000134 94FE BFAB      0985B         863 MOVE32 NI      SKIPSW,MSWOFF                                            03888021
 000138 45E0 9DBC      07C14         864        BAL     RCS,OPERR           YES                                  03894021
 00013C 45E0 9BDA      07A32         865 MOVE35 BAL     RCS,ERROR           OP-2 CANT BE RECEIVING FIELD         03900021
 000140 4110 A156      07E4E         866        LA      RW1,ELST34                                               03906021
 000144 9601 BF73      09823         867 MOVE38 OI    GENRED,MSWON          TURN ON FOR IDENT                    03912021
 000148 47F0 F1A4      001AE         868        BC    UNCOND,MOVE62         GET NEXT ENTITY                      03918021
 00014C D501 C000 A340 0988B 08038   869 MOVE45   CLC   GOTTEN(LX2),CBCORR   IS IT COBOL WORD 'CORRESPONDING'    03924021
 000152 4770 7000      04FB8         870        BC    NOTEQ,IDENT           NO, GO BACK TO IDENT                 03930021
 000156 45E0 7566      0551E         871        BAL   RCS,GETNXT            YES, DISCARD 'CORRESPONDING'         03936021
 00015A 94FE BF7A      0982A         872        NI    CORRSW,MSWOFF         IT IS CORRESPONDING 'MOVE'           03942021
 00015E 47F0 7000      04FB8         873        BC    UNCOND,IDENT          EXIT                                 03948021
 000162 9601 BF93      09843         874 MOVE48 OI    DRYRUN,MSWON          GOT COBOL WORD 'SAME' AFTER 'MOV     03954021
 000166 47F0 F074      0007E         875        BC    UNCOND,MOVE10         PROCESS NEXT OPERAND                 03960021
 00016A 9101 BF7A      0982A         876 MOVE51 TM    CORRSW,MSWON                                               03966021
 00016E 4780 F040      0004A         877        BC    ZERO,MOVE04           NOT A SOURCE OF CORRESPONDING        03972021
 000172 9101 BF91      09841         878        TM    OP1SS,MSWON                                                03978021
 000176 4780 F044      0004E         879        BC    ZERO,MOVE07           NOT SS DN OF CORRESPONDING           03984021
 00017A 9601 BF94      09844         880        OI    OPSSSW,MSWON          1ST SS OPRND WAS FOUND               03990021
 00017E 47F0 F044      0004E         881        BC    UNCOND,MOVE07         CHECK IF SS OPERAND VALID            03996021
 000182 45E0 8166      0611E         882 MOVE54 BAL   RCS,STOVRB            STORE VERB 'MOVE' ON STRING          04002021
1PH40     IKFCBL40                                                                                              PAGE   22
-  LOC  OBJECT CODE    ADDR1 ADDR2  STMT   SOURCE STATEMENT                                       ASM 0201 11.03 02/14/15
0000186 45E0 8048      06000         883        BAL   RCS,STOINP            STORE OPERAND-1 ON STRING            04008021
 00018A D201 BE8A B04C 0973A 088FC   884          MVC   LEFTDP(LX2),DSPSTR  SAVE DISPL. OF VERB + OPERAND1 FO    04014021
                                     885 *                                  REUSE IF SEVERAL TARGET FIELDS       04020021
 000190 D201 BE60 B094 09710 08944   886          MVC   LEFTSS(LX2),DSPSBS  SAVE OPERAND-1'S SBS DISPLACEMENT    04026021
 000196 47F0 F074      0007E         887        BC    UNCOND,MOVE10         GET 2ND OPERAND                      04032021
 00019A 45E0 9000      06E58         888 MOVE58 BAL     RCS,ISOKMV         ARE SOURCE AND TARGET COMPATIBLE      04038021
 00019E 47F0 F13A      00144         889        BC      UNCOND,MOVE38       NO                                   04044021
 0001A2 45E0 8048      06000         890        BAL     RCS,STOINP           YES - STORE OP2                     04050021
 0001A6 45E0 7766      0571E         891        BAL   RCS,GENSTR            GENERATE STRING TO OUTPUT            04056021
 0001AA 94FE BFCC      0987C         892        NI    CLEVMSG,MSWOFF                                             04062021
 0001AE 45E0 7566      0551E         893 MOVE62 BAL   RCS,GETNXT            GET THE NEXT ENTITY                  04068021
 0001B2 9101 BF7A      0982A         894        TM    CORRSW,MSWON                                               04074021
 0001B6 4710 F142      0014C         895        BC    ONES,MOVE45           CHECK IF 'CORRESPONDING'             04080021
 0001BA 5820 B048      088F8         896        L     RW2,ASTRNG            OFF, STORE LEFTDP (SIZE OF MOVE      04086021
 0001BE 5822 0000      00000         897          L     RW2,DX0(RW2)         OPERAND-1) INTO TAMER DISPLACEME    04092021
 0001C2 D201 2004 BE8A 00004 0973A   898          MVC   DX4(LX2,RW2),LEFTDP                                      04098021
 0001C8 D201 B04C BE8A 088FC 0973A   899          MVC   DSPSTR(LX2),LEFTDP                                       04104021
 0001CE 5820 B090      08940         900        L     RW2,ADFSBS            STORE LEFTSS (SAVED DISPSS FOR       04110021
 0001D2 5822 0000      00000         901          L     RW2,DX0(RW2)         OPERAND-1) INTO DEFSBS DISPLACEM    04116021
 0001D6 D201 2004 BE60 00004 09710   902          MVC   DX4(LX2,RW2),LEFTSS                                      04122021
 0001DC D201 B094 BE60 08944 09710   903          MVC   DSPSBS(LX2),LEFTSS                                       04128021
 0001E2 9601 BF88      09838         904        OI    MOVSW1,MSWON          2ND OPERAND WAS FOUND                04134021
 0001E6 47F0 F08C      00096         905        BC    UNCOND,MOVE13         IS THE OPERAND VALID                 04140021
1PH40     IKFCBL40                                                                                              PAGE   23
-  LOC  OBJECT CODE    ADDR1 ADDR2  STMT   SOURCE STATEMENT                                       ASM 0201 11.03 02/14/15
0                                    907 *=1    MOVRPT  VERB                                                     04152021
                                     908 *******************************************************************     04158021
                                     909 *                                                                       04164021
                                     910 *                      M O V R P T                                      04170021
                                     911 *                                                                       04176021
                                     912 *                                                                       04182021
                                     913 *      ANALYZER FOR SPECIAL INTERNAL VERBS FROM REPORT-WRITER AND       04188021
                                     914 *       Q-ROUTINES. CONSISTS SOLELY OF CHANGING VERB AND PN'S TO        04194021
                                     915 *       P-2 TEXT FORM AND MAKING SURE NO OPERANDS ARE UNDEFINED.        04200021
                                     916 *                                                                       04206021
                                     917 *                                                                       04212021
                                     918 *** SUBROUTINES CALLED                                                  04218021
                                     919 *      STOVRB,STPNIN,GETNXT,GENSTR                                      04224021
                                     920 *      ISINTG,ERROR,RDUCOP                                              04230021
                                     921 *                                                                       04236021
                                     922 *                                                                       04242021
                                     923 *******************************************************************     04248021
-
0
                             001EA   925        USING   *,RVRB                                                   04260021
                             001EA   926 UPDATE EQU     *             THE ONLY INTERNAL VERB THAT MAY HAVE       04266021
                                     927 *                             ERRORS                                    04272021
 0001EA 9601 BFC5      09875         928        OI      TEMPSW,MSWON                                             04278021
 0001EE 41FF 0008      00008         929        LA      RVRB,MOVRPT-UPDATE(RVRB)                                 04284021
                             001F2   930        USING   *,RVRB                                                   04290021
                             001F2   931 MOVRPT EQU     *                                                        04296021
 0001F2 45E0 8166      0611E         932        BAL     RCS,STOVRB          STORE VERB IN STRING                 04302021
 0001F6 1B55                         933        SR      RW5,RW5                                                  04308021
 0001F8 4350 BE4A      096FA         934          IC    RW5,VERB+NX2        RW5 CONTROLS LOOP                    04314021
 0001FC 1255                         935        LTR     RW5,RW5                                                  04320021
 0001FE 4780 F096      00288         936        BC      ZERO,MOVRP4          EXIT IF NO OPERANDS                 04326021
 000202 D500 C000 A52C 0988B 08224   937 MOVRP2   CLC   GOTTEN(LX1),ERSYMB                                       04332021
 000208 4780 720C      051C4         938        BC      EQ,IDERR             DONT GENR IF ANY IS UNDEFINED       04338021
 00020C 9530 C000      0988B         939        CLI     GOTTEN,MDN         IS IT DN FROM WRITE-ONLY RECORD       04344021
 000210 4770 F036      00228         940        BC      NOTEQ,MOVR2X         NO- OK                              04350021
 000214 9107 C002      00002         941          TM    DX2(RIN),MWONLY                                          04356021
 000218 47E0 F036      00228         942        BC      NOTONE,MOVR2X        NO- OK                              04362021
 00021C 45E0 9BDA      07A32         943        BAL     RCS,ERROR           YES - WARNING, MAY BE ILLEGAL        04368021
 000220 4110 A276      07F6E         944        LA      RW1,ELST5E                                               04374021
 000224 94F0 C002      00002         945          NI    DX2(RIN),XXF0       TURN OFF APPLY WRITEONLY BITS        04380021
                             00228   946 MOVR2X EQU     *                                                        04386021
 000228 45E0 8010      05FC8         947        BAL     RCS,STPNIN         STORE                                 04392021
 00022C 45E0 7566      0551E         948        BAL     RCS,GETNXT          GET THE NEXT ENTITY                  04398021
 000230 9101 BFC5      09875         949        TM      TEMPSW,MSWON       DID WE JUST GET 2ND OP FOR UPDATE     04404021
 000234 4780 F092      00284         950        BC      ZERO,MOVRP3          NO - CONTINUE                       04410021
 000238 94FE BFC5      09875         951        NI      TEMPSW,MSWOFF        YES - TEST IT FOR ERRORS            04416021
 00023C 9530 C000      0988B         952        CLI     GOTTEN,MDN                                               04422021
 000240 4770 F05A      0024C         953        BC      NOTEQ,UPDAT1        NOT A DN                             04428021
 000244 910C C003      00003         954          TM    DX3(RIN),XX0C       IS IT SUBSCRIPTED                    04434021
 000248 4770 F086      00278         955        BC      NOTZER,UPDAT2       YES - ERROR                          04440021
                             0024C   956 UPDAT1 EQU     *                                                        04446021
 00024C 95FA C000      0988B         957        CLI     GOTTEN,MGLTBC      IS IT VLC                             04452021
1PH40     IKFCBL40                                                                                              PAGE   24
-  LOC  OBJECT CODE    ADDR1 ADDR2  STMT   SOURCE STATEMENT                                       ASM 0201 11.03 02/14/15
0000250 4780 F092      00284         958        BC      EQ,MOVRP3            YES - OK                            04458021
 000254 45E0 81AC      06164         959        BAL     RCS,RDUCOP         DATA OPERAND                          04464021
 000258 47F0 F086      00278         960        BC      UNCOND,UPDAT2        NO - ERROR                          04470021
 00025C 45E0 8B64      06B1C         961        BAL     RCS,ISINT2         INTEGER                               04476021
 000260 47F0 F086      00278         962        BC      UNCOND,UPDAT2       NO - ERROR                           04482021
 000264 9531 C000      0988B         963        CLI     GOTTEN,MSS         SUBSCRIPTED                           04488021
 000268 4780 F086      00278         964        BC      EQ,UPDAT2           YES - ERROR                          04494021
 00026C 9101 BE64      09714         965        TM      MODE,MLITBT        DATA-NAME                             04500021
 000270 4770 F086      00278         966        BC      NOTZER,UPDAT2       NO - ERROR                           04506021
 000274 4650 F036      00228         967        BCT     RW5,MOVR2X          YES                                  04512021
 000278 45E0 9BDA      07A32         968 UPDAT2 BAL     RCS,ERROR          NO GOOD - SUBSTITUTR TALLY            04518021
 00027C 4110 A228      07F20         969        LA      RW1,ELST53                                               04524021
 000280 41C0 A4D0      081C8         970        LA      RIN,CBTALY                                               04530021
                             00284   971 MOVRP3 EQU     *                                                        04536021
 000284 4650 F010      00202         972        BCT     RW5,MOVRP2         RETURN FOR NEXT                       04542021
 000288 45E0 7766      0571E         973 MOVRP4 BAL     RCS,GENSTR         GENR WHOLE STRING                     04548021
 00028C 47F0 7000      04FB8         974        BC      UNCOND,IDENT        RETURN TO IDENT                      04554021
1PH40     IKFCBL40                                                                                              PAGE   25
-  LOC  OBJECT CODE    ADDR1 ADDR2  STMT   SOURCE STATEMENT                                       ASM 0201 11.03 02/14/15
0                                    976 *=1    TRFORM  VERB                                                     04566021
                                     977 *******************************************************************     04572021
                                     978 *                                                                       04578021
                                     979 *                                                                       04584021
                                     980 *                                                                       04590021
                                     981 *                        T R A N S F O R M                              04596021
                                     982 *                                                                       04602021
                                     983 *                                                                       04608021
                                     984 *** STRINGS PRODUCED                                                    04614021
                                     985 *      SOURCE - TRANSFORM DN3 (CHARACTERS) FROM OP1 TO OP2.             04620021
                                     986 *      OUTPUT - TRANSFORM INFO-NN DN3 OP1 OP2.                          04626021
                                     987 *                                                                       04632021
                                     988 *                                                                       04638021
                                     989 *                                                                       04644021
                                     990 *   NN =       IF 'FROM' OPERAND IS    AND    'TO' OPERAND IS           04650021
                                     991 *                                                                       04656021
                                     992 *    0         FIGCON                          FIGCON                   04662021
                                     993 *              NNL1=1                          NNL2=1                   04668021
                                     994 *                                                                       04674021
                                     995 *    4         FIGCON                          DN2=1                    04680021
                                     996 *              NNL1=1                                                   04686021
                                     997 *                                                                       04692021
                                     998 *    8         NNL1 GREATER THAN 1             NNL2 GREATER THAN 1      04698021
                                     999 *              DN1 GREATER THAN 1             DN2 GREATER THAN 1        04704021
                                    1000 *                                                                       04710021
                                    1001 *   12         NNL1 GREATER THAN 1            DN2 = 1                   04716021
                                    1002 *                                                                       04722021
                                    1003 *   16         NNL1 GREATER THAN 1            FIGCON                    04728021
                                    1004 *              DN1  GREATER THAN 1            NNL2 = 1                  04734021
                                    1005 *                                                                       04740021
                                    1006 *   20         DN1 = 1                        FIGCON                    04746021
                                    1007 *                                             NNL2 = 1                  04752021
                                    1008 *                                                                       04758021
                                    1009 *   24         DN1 = 1                        DN2 = 1                   04764021
                                    1010 *                                                                       04770021
                                    1011 *                                                                       04776021
                                    1012 *                                                                       04782021
                                    1013 *      ('1' ABOVE REFERS TO LENGTH OF THE ENTITY)                       04788021
                                    1014 *                                                                       04794021
                                    1015 *                                                                       04800021
                                    1016 *** SUBROUTINES CALLED                                                  04806021
                                    1017 *      GETNXT,RDUCOP,STOVRB,STOINP,STOR45,GENSTR,ERROR                  04812021
                                    1018 *                                                                       04818021
                                    1019 *                                                                       04824021
                                    1020 *** ERROR PROCESSING                                                    04830021
                                    1021 *      ASSUME 'TO' AND/OR 'FROM' IF MISSING                             04836021
                                    1022 *      IF DN3 NOT NON-NUMERIC DATA-NAME, OR                             04842021
                                    1023 *      IF OP1 NOT NON-NUMERIC OPERAND OF LEGAL LENGTH, OR               04848021
                                    1024 *      IF OP2  .   .    .       .     .  .     .     , OR               04854021
                                    1025 *      IF OP1 AND OP2 ARE INCOMPATIBLE IN LENGTH, SKIP TO NEXT STAT     04860021
                                    1026 *        MENT                                                           04866021
                                    1027 *      TRANSFORM EXT-DECIMAL-NAME FROM SPACES TO --, IS ACCEPTED WI     04872021
                                    1028 *       WARNING                                                         04878021
                                    1029 *                                                                       04884021
                                    1030 *                                                                       04890021
1PH40     IKFCBL40                                                                                              PAGE   26
-  LOC  OBJECT CODE    ADDR1 ADDR2  STMT   SOURCE STATEMENT                                       ASM 0201 11.03 02/14/15
0                                   1031 *** NOTES                                                               04896021
                                    1032 *      TFMSW1 IS ON TO TRIGGER MSG IF 'TO' OR 'FROM' MISSING            04902021
                                    1033 *      RW1 IS USED AS SWITCH,INDICATING OP1 IF 0, OP2 IF 2              04908021
                                    1034 *      RW2 IS A SUMMARY OF THE TYPES OF OPERANDS FOUND. AT THE END      04914021
                                    1035 *        THE STATEMENT IT = 0 IF NEITHER OP1 NOR OP2 IS DATA-NAME       04920021
                                    1036 *                           1 IF ONLY OP1 IS DATA-NAME                  04926021
                                    1037 *                           3 IF ONLY OP2 IS DATA-NAME                  04932021
                                    1038 *                           5 IF BOTH OP1 AND OP2 ARE DATANAMES         04938021
                                    1039 *                                                                       04944021
                                    1040 *                                                                       04950021
                                    1041 *                                                                       04956021
                                    1042 *******************************************************************     04962021
-
-
                             00290  1044        USING   *,RVRB                                                   04974021
                             00290  1045 TRFORM EQU     *                                                        04980021
 000290 94FE BF86      09836        1046        NI      TFMSW1,MSWOFF       INITIALIZE TFMSW1 OFF                04986021
 000294 9400 BED2      09782        1047          NI    ETOPTS+NX2,MZERO     ZERO LAST BYTE OF ETOPTS            04992021
 000298 94FE BF87      09837        1048          NI    TREDSW,MSWOFF      SWITCH FOR ED NAME                    04998021
 00029C 1B11                        1049        SR      RW1,RW1             RW1 USED AS INDEX TO INDICATE        05004021
                                    1050 *                                  WHETHER OPERAND 2 OR 3 IS BEING      05010021
                                    1051 *                                  PROCESSED                            05016021
 00029E 1B22                        1052        SR      RW2,RW2             FINAL VALUE INDICATES WHETHER        05022021
                                    1053 *                                  OPERAND 2 OR/AND 3 ARE DATA NAME     05028021
 0002A0 4100 A660      08358        1054        LA      RA0,BCDDN          PARAM FOR POSSIBLE MSG 32             05034021
 0002A4 45E0 81AC      06164        1055        BAL     RCS,RDUCOP         IS IT A VALID DATA-OPERAND AT ALL     05040021
 0002A8 47F0 7204      051BC        1056        BC      UNCOND,IDGVUP       NOT DATA OPERAND                     05046021
 0002AC 9101 BE64      09714        1057        TM      MODE,MLITBT        IS IT A DN                            05052021
 0002B0 4710 7204      051BC        1058        BC      ONES,IDGVUP          NO - GIVE UP                        05058021
 0002B4 9507 BE65      09715        1059          CLI   MODE+NX1,MB7                                             05064021
 0002B8 4740 F038      002C8        1060          BC    LO,TRFM02          AN,AL,OR GROUP OK                     05070021
 0002BC 9508 BE65      09715        1061          CLI   MODE+NX1,MEDMOD                                          05076021
 0002C0 4770 F0AC      0033C        1062          BC    NOTEQ,TRFM05       ILLEGAL MODE                          05082021
 0002C4 9601 BF87      09837        1063          OI    TREDSW,MSWON       ED, SPECIAL CASE                      05088021
 0002C8 45E0 8166      0611E        1064 TRFM02 BAL     RCS,STOVRB          STORE 'TRANSFORM' VERB ON STRING     05094021
 0002CC 4140 BED0      09780        1065        LA      RW4,ETOPTS                                               05100021
 0002D0 45E0 8000      05FB8        1066        BAL     RCS,STOR45         STORE ETOPTS IN STRING                05106021
 0002D4 45E0 8048      06000        1067        BAL     RCS,STOINP            STORE DATA NAME ON STRING          05112021
 0002D8 45E0 7566      0551E        1068        BAL     RCS,GETNXT          GET NEXT ENTITY                      05118021
 0002DC D501 C000 A33C 0988B 08034  1069          CLC   GOTTEN(LX2),CBCHAR     IS IT CHARACTERS                  05124021
 0002E2 4770 F05A      002EA        1070        BC      NOTEQ,TRFM03        NO                                   05130021
 0002E6 45E0 7566      0551E        1071        BAL     RCS,GETNXT          YES, GET NEXT ENTITY                 05136021
 0002EA D501 C000 A4E2 0988B 081DA  1072 TRFM03   CLC   GOTTEN(LX2),CBFROM     IS COBOL WORD 'FROM'              05142021
 0002F0 4770 F0B8      00348        1073        BC      NOTEQ,TRFM06        NO, ISSUE A WARNING MESSAGE          05148021
 0002F4 45E0 7566      0551E        1074        BAL     RCS,GETNXT            'FROM' IS FOUND, GET NEXT DATA     05154021
 0002F8 45E0 81AC      06164        1075 TRFM04 BAL     RCS,RDUCOP          IS IT A VALID DATA OPERAND           05160021
 0002FC 47F0 F0AC      0033C        1076        BC      UNCOND,TRFM05       NON-OPERAND                          05166021
 000300 1211                        1077        LTR     RW1,RW1                                                  05172021
 000302 4770 F090      00320        1078        BC      NOTZER,TRFM4X       IT IS OP2                            05178021
 000306 45E0 76EC      056A4        1079        BAL     RCS,GETALL         SAVE FROM-OPERAND FOR ERR. MSG        05184021
 00030A 4120 B57C      08E2C        1080        LA      RW2,PLEFT                                                05190021
1PH40     IKFCBL40                                                                                              PAGE   27
-  LOC  OBJECT CODE    ADDR1 ADDR2  STMT   SOURCE STATEMENT                                       ASM 0201 11.03 02/14/15
000030E 9101 BF87      09837        1081          TM    TREDSW,MSWON       WAS OPERAND 1 ED                      05196021
 000312 4780 F090      00320        1082          BC    ZERO,TRFM4X          NO                                  05202021
 000316 D501 C000 A4CA 0988B 081C2  1083          CLC   GOTTEN(LX2),CBSPCE   YES - IS THIS 'SPACE'               05208021
 00031C 4770 F0AC      0033C        1084          BC    NOTEQ,TRFM05          NO - DISCARD                       05214021
                             00320  1085 TRFM4X EQU     *                                                        05220021
 000320 9120 BE64      09714        1086        TM      MODE,MB32           IS DN NUMERIC                        05226021
 000324 4780 F0AC      0033C        1087        BC      ZERO,TRFM05         IT IS NUMERIC                        05232021
 000328 9101 BE64      09714        1088        TM      MODE,MB1                                                 05238021
 00032C 4780 F10C      0039C        1089        BC      ZERO,TRFM12        IT IS A DN                            05244021
 000330 9102 BE64      09714        1090        TM      MODE,MB2                                                 05250021
 000334 4710 F0C4      00354        1091        BC      ONES,TRFM07         FIG-CON                              05256021
 000338 4780 F0FE      0038E        1092        BC      ZERO,TRFM11         NON NUMERIC LITERAL                  05262021
 00033C 45E0 9BDA      07A32        1093 TRFM05 BAL     RCS,ERROR           ILLEGAL DATA OPERAND                 05268021
 000340 4110 A00F      07D07        1094        LA      RW1,ELST04                                               05274021
 000344 47F0 720C      051C4        1095        BC      UNCOND,IDERR        SKIP THE STATEMENT                   05280021
 000348 9601 BF86      09836        1096 TRFM06 OI      TFMSW1,MSWON          TURN ON IF 'FROM' MISSING          05286021
 00034C 4100 A4E2      081DA        1097        LA      RA0,CBFROM          FOR ERROR MESSAGE                    05292021
 000350 47F0 F068      002F8        1098        BC      UNCOND,TRFM04       CHECK THE OPERAND                    05298021
 000354 4830 A59C      08294        1099 TRFM07   LH    RW3,N1              PUT 1 INTO FIGCON LENGTH             05304021
 000358 4031 BC9C      0954C        1100          STH   RW3,SVTFLN(RW1)                                          05310021
 00035C 45E0 8048      06000        1101 TRFM08 BAL     RCS,STOINP          STORE CURRENT INPUT ON STRING        05316021
 000360 5910 A598      08290        1102        C       RW1,N0                TEST INDEX IF NOT 0 INDICATE       05322021
                                    1103 *                                    WHOLE STAEMENT IS BEING CHECKE     05328021
 000364 4770 F146      003D6        1104        BC      NOTEQ,TRFM16        CHECK THE WHOLE STATEMENT            05334021
 000368 45E0 7566      0551E        1105        BAL     RCS,GETNXT          GET THE NEXT ENTITY                  05340021
 00036C D501 C000 A4E0 0988B 081D8  1106          CLC   GOTTEN(LX2),CBTO       IS IT COBOL WORD 'TO'             05346021
 000372 4770 F0F2      00382        1107        BC      NOTEQ,TRFM10        NO, TURN THE SWITCH ON               05352021
 000376 45E0 7566      0551E        1108        BAL     RCS,GETNXT          GET THE NEXT ENTITY                  05358021
 00037A 4111 0002      00002        1109 TRFM09   LA    RW1,DX2(RW1)           INDEX INCREMENTED BY 2            05364021
 00037E 47F0 F068      002F8        1110        BC      UNCOND,TRFM04       IS THE 2ND OPERAND VALID             05370021
 000382 9601 BF86      09836        1111 TRFM10 OI      TFMSW1,MSWON          TURN ON INDICATE 'TO ' MISSING     05376021
 000386 4100 A4E0      081D8        1112        LA      RA0,CBTO            FOR ERROR MESSAGE                    05382021
 00038A 47F0 F0EA      0037A        1113        BC      UNCOND,TRFM09       IT IS SECOND OPERAND                 05388021
 00038E 1B33                        1114 TRFM11   SR    RW3,RW3                                                  05394021
 000390 4330 C001      0988C        1115          IC    RW3,GOTTEN+NX1       SAVE NON-NUM-LIT. LENGTH            05400021
 000394 4031 BC9C      0954C        1116          STH   RW3,SVTFLN(RW1)                                          05406021
 000398 47F0 F0CC      0035C        1117        BC      UNCOND,TRFM08       STORE NON-NUM-LIT. ON STRING         05412021
 00039C 4122 0001      00001        1118 TRFM12   LA    RW2,DX1(RW2)           GET CURRENT DATA NAME             05418021
 0003A0 1A21                        1119        AR      RW2,RW1               INDICATOR VALUE                    05424021
 0003A2 9501 BE65      09715        1120          CLI   MODE+NX1,MB1         IS IT DN GROUP FIXED                05430021
 0003A6 4780 F126      003B6        1121        BC      EQ,TRFM15           YES                                  05436021
 0003AA 9503 BE65      09715        1122          CLI   MODE+NX1,MB3         IS IT DN ALPHABETIC OR ALPHANUME    05442021
 0003AE 47D0 F12E      003BE        1123        BC      NOTHI,TRFM14        YES                                  05448021
 0003B2 47F0 F0AC      0033C        1124        BC      UNCOND,TRFM05       ILLEGAL OPERAND                      05454021
 0003B6 9101 C007      00007        1125 TRFM15   TM    DX7(RIN),MSWON      DOES BIT 47 HAVE 1                   05460021
 0003BA 4710 F1B8      00448        1126        BC      ONES,TRF19X        ERROR                                 05466021
 0003BE D501 C008 A5B8 00008 082B0  1127 TRFM14   CLC   DX8(LX2,RIN),N256    IS LENGTH OVER 256                  05472021
 0003C4 4720 F1B8      00448        1128        BC      HI,TRF19X           YES - ERROR                          05478021
 0003C8 4141 BC9C      0954C        1129        LA      RW4,SVTFLN(RW1)                                          05484021
 0003CC D201 4000 C008 00000 00008  1130          MVC   DX0(LX2,RW4),DX8(RIN) SAVE THE VALID LENGTH              05490021
 0003D2 47F0 F0CC      0035C        1131        BC      UNCOND,TRFM08       STORE OPERAND IN STRING              05496021
 0003D6 D501 BC9C BC9E 0954C 0954E  1132 TRFM16   CLC   SVTFLN(LX2),SVTFLN+NX2  COMPARE 2 OPERANDS' LENGTHS      05502021
 0003DC 4780 F1CC      0045C        1133        BC      EQ,TRFM21           EQUAL-LENGTH OPERANDS                05508021
 0003E0 4920 A5A2      0829A        1134        CH      RW2,N4                                                   05514021
 0003E4 4780 F1AC      0043C        1135        BC      EQ,TRFM19             BOTH OPERANDS ARE DN  ERROR        05520021
1PH40     IKFCBL40                                                                                              PAGE   28
-  LOC  OBJECT CODE    ADDR1 ADDR2  STMT   SOURCE STATEMENT                                       ASM 0201 11.03 02/14/15
00003E8 D501 BC9E A59C 0954E 08294  1136          CLC   SVTFLN+NX2(LX2),N1      IS 2ND OPERAND LENGTH IS 1       05526021
 0003EE 4770 F1AC      0043C        1137        BC      NOTEQ,TRFM19          ERROR                              05532021
 0003F2 4920 A5A0      08298        1138        CH      RW2,N3                                                   05538021
 0003F6 4780 F1C4      00454        1139        BC      EQ,TRFM20           2ND OPERAND IS DN                    05544021
 0003FA 9610 BED2      09782        1140          OI    ETOPTS+NX2,MB16        1ST OPER. EITHER DN1 OR NNL1      05550021
                                    1141 *                                    2ND OPER. EITHER FIGCON OR NNL     05556021
 0003FE 5840 B048      088F8        1142 TRFM17 L       RW4,ASTRNG                                               05562021
 000402 5844 0000      00000        1143          L     RW4,DX0(RW4)                                             05568021
 000406 5844 0000      00000        1144          L     RW4,DX0(RW4)                                             05574021
 00040A D200 4006 BED2 00006 09782  1145          MVC   DX6(LX1,RW4),ETOPTS+NX2 MOVE CURRENT ETOPTS+2 TO STRIN   05580021
 000410 9101 BF86      09836        1146        TM      TFMSW1,MSWON                                             05586021
 000414 4780 F190      00420        1147        BC      ZERO,TRFM18         OFF. GENERATE STRING TO OUTPUT       05592021
 000418 45E0 9BDA      07A32        1148        BAL     RCS,ERROR           'TO' AND/OR 'FROM' MISSING           05598021
 00041C 4110 A02A      07D22        1149        LA      RW1,ELST07                                               05604021
 000420 45E0 7766      0571E        1150 TRFM18 BAL     RCS,GENSTR            GENERATE STRING TO OUTPUT          05610021
 000424 45E0 7566      0551E        1151        BAL     RCS,GETNXT          GET NEXT ENTITY                      05616021
 000428 9101 BF87      09837        1152        TM      TREDSW,MSWON       WAS OPERAND 1 ED                      05622021
 00042C 4780 7000      04FB8        1153        BC      ZERO,IDENT          NO - EXIT                            05628021
 000430 45E0 9BDA      07A32        1154          BAL   RCS,ERROR            YES - WARNING                       05634021
 000434 4110 A264      07F5C        1155          LA    RW1,ELST5C                                               05640021
 000438 47F0 7000      04FB8        1156        BC      UNCOND,IDENT        EXIT                                 05646021
 00043C 45E0 9BDA      07A32        1157 TRFM19 BAL     RCS,ERROR           DN LENGTH IS GREATER THAN 256 OR     05652021
 000440 4110 A01B      07D13        1158        LA      RW1,ELST05           WRONG LENGTH                        05658021
 000444 47F0 720C      051C4        1159        BC      UNCOND,IDERR        ERROR EXIT                           05664021
 000448 45E0 9BDA      07A32        1160 TRF19X BAL     RCS,ERROR           LENGTH GREATER THAN 256              05670021
 00044C 4110 A1CB      07EC3        1161        LA      RW1,ELST47        OPERAND TOO LONG                       05676021
 000450 47F0 720C      051C4        1162        BC      UNCOND,IDERR        ERROR EXIT                           05682021
 000454 960C BED2      09782        1163 TRFM20   OI    ETOPTS+NX2,MB12        2ND OPERAND IS DN2                05688021
 000458 47F0 F16E      003FE        1164        BC      UNCOND,TRFM17       GENERATE THE STRING                  05694021
 00045C D501 BC9C A59C 0954C 08294  1165 TRFM21   CLC   SVTFLN(LX2),N1         IS 1ST OPERAND IS 1               05700021
 000462 4780 F1DE      0046E        1166        BC      EQ,TRFM22           YES                                  05706021
 000466 9608 BED2      09782        1167          OI    ETOPTS+NX2,MB8         1ST OPER. EITHER DN1 OR NNL1      05712021
 00046A 47F0 F16E      003FE        1168        BC      UNCOND,TRFM17         2ND OPER. EITHER NNL2 OR DN2       05718021
 00046E 5920 A598      08290        1169 TRFM22 C       RW2,N0                IS RW2 ZERO                        05724021
 000472 4780 F20A      0049A        1170        BC      EQ,TRFM25           YES, OP1 NOR OP2 ARE DN              05730021
 000476 4920 A5A0      08298        1171        CH      RW2,N3                IS RW2 = 3                         05736021
 00047A 4720 F1FA      0048A        1172        BC      HI,TRFM23           OP1 AND OP2 ARE DATA-NAMES           05742021
 00047E 4780 F202      00492        1173        BC      EQ,TRFM24           OP2 IS A DN                          05748021
 000482 9614 BED2      09782        1174          OI    ETOPTS+NX2,MB20        1ST OPERAND IS DN1                05754021
 000486 47F0 F16E      003FE        1175        BC      UNCOND,TRFM17         2ND OPER. IS EITHER FIGCON OR      05760021
 00048A 9618 BED2      09782        1176 TRFM23   OI    ETOPTS+NX2,MB24        BOTH OPERANDS ARE DN              05766021
 00048E 47F0 F16E      003FE        1177        BC      UNCOND,TRFM17       GENERATE THE STRING                  05772021
 000492 9604 BED2      09782        1178 TRFM24   OI    ETOPTS+NX2,MB4         2ND OPERAND IS DN                 05778021
 000496 47F0 F16E      003FE        1179        BC      UNCOND,TRFM17       GENERATE THE STRING                  05784021
 00049A 9600 BED2      09782        1180 TRFM25   OI    ETOPTS+NX2,MZERO       1ST OPER. EITHER FIGCON OR NNL    05790021
 00049E 47F0 F16E      003FE        1181        BC      UNCOND,TRFM17       GENERATE THE STRING                  05796021
1PH40     IKFCBL40                                                                                              PAGE   29
-  LOC  OBJECT CODE    ADDR1 ADDR2  STMT   SOURCE STATEMENT                                       ASM 0201 11.03 02/14/15
0                                   1183 *=1    EXAMIN  VERB                                                     05808021
                                    1184 *******************************************************************     05814021
                                    1185 *                                                                       05820021
                                    1186 *                                                                       05826021
                                    1187 *                                                                       05832021
                                    1188 *                          E X A M I N E                                05838021
                                    1189 *                                                                       05844021
                                    1190 *                                                                       05850021
                                    1191 *** STRINGS PRODUCED                                                    05856021
                                    1192 *      SOURCE - EXAMINE DN ... OPTIONS...CHAR1...OPTIONS ... CHAR2      05862021
                                    1193 *      OUTPUT -                                                         05868021
                                    1194 *        (WITH REPLACING)               (WITHOUT REPLACING)             05874021
                                    1195 *      EXAMINE                           EXAMINE                        05880021
                                    1196 *      INFO-XX                           INFO-XX                        05886021
                                    1197 *      CHAR-1                             CHAR-1                        05892021
                                    1198 *      CHAR-2                             CHAR-1                        05898021
                                    1199 *      DN                                 DN                            05904021
                                    1200 *                                                                       05910021
                                    1201 *                                                                       05916021
                                    1202 *                                                                       05922021
                                    1203 *         XX = BYTE    WHOSE MAKE UP IS                                 05928021
                                    1204 *                                                                       05934021
                                    1205 *         BIT 0 = 1     IF 'TALLYING'                                   05940021
                                    1206 *             1 = 1     IF 'REPLACING'                                  05946021
                                    1207 *             2 = 1     IF 'ALL'                                        05952021
                                    1208 *             3 = 1     IF 'LEADING'                                    05958021
                                    1209 *             4 = 1     IF 'UNTIL FIRST'                                05964021
                                    1210 *             5 = 1     IF 'FIRST'                                      05970021
                                    1211 *             6 = 0     ALWAYS                                          05976021
                                    1212 *             7 = 0     ALWAYS                                          05982021
                                    1213 *                                                                       05988021
                                    1214 *                                                                       05994021
                                    1215 *** SUBROUTINES CALLED                                                  06000021
                                    1216 *      GETNXT,RDUCOP,STOVRB,STOINP,STOR45,GETALL,SAVNXT,GENSTR,ERRO     06006021
                                    1217 *                                                                       06012021
                                    1218 *                                                                       06018021
                                    1219 *** ERROR PROCESSING                                                    06024021
                                    1220 *      IF 1ST OPERAND NOT DATA-NAME OR NOT USAGE DISPLAY, OR            06030021
                                    1221 *      CHARS 1 AND 2 NOT SINGLE-BYTE NON-NUMERIC LITERAL OR FIGCON,     06036021
                                    1222 *      CHAR1 OR CHAR2 INCOMPATIBLE IN MODE WITH DN, SKIP STATEMENT      06042021
                                    1223 *      IF NEITHER 'TALLYING' NOR 'REPLACING' FOUND, OR                  06048021
                                    1224 *      OPTION MISSING FOLLOWING THESE, SKIP STATEMENT                   06054021
                                    1225 *      IF 'BY' MISSING AFTER 'REPLACING' OR 'FIRST'AFTER 'UNTIL'        06060021
                                    1226 *      ASSUME IT                                                        06066021
                                    1227 *                                                                       06072021
                                    1228 *                                                                       06078021
                                    1229 *** NOTES                                                               06084021
                                    1230 *    EXMSW1 IS TURNED ON, TELLING CHAR-2 IS PROCESSED                   06090021
                                    1231 *    EXMSW2 IS TURNED ON, TELLING DN IS NUMERIC DISPLAY                 06096021
                                    1232 *    EXMSW3 IS TURNED ON, TELLING DN IS OTHER DISPLAY                   06102021
                                    1233 *                                                                       06108021
                                    1234 *                                                                       06114021
                                    1235 *                                                                       06120021
                                    1236 *******************************************************************     06126021
1PH40     IKFCBL40                                                                                              PAGE   30
-  LOC  OBJECT CODE    ADDR1 ADDR2  STMT   SOURCE STATEMENT                                       ASM 0201 11.03 02/14/15
0                            004A2  1238        USING   *,RVRB                                                   06138021
                             004A2  1239 EXAMIN EQU     *                                                        06144021
 0004A2 4100 A660      08358        1240        LA      RA0,BCDDN          PARAM FOR POSSIBLE MSG 32             06150021
 0004A6 45E0 81AC      06164        1241        BAL     RCS,RDUCOP         IS IT A VALID DATA-OPERAND AT ALL     06156021
 0004AA 47F0 7204      051BC        1242        BC      UNCOND,IDGVUP      NO                                    06162021
 0004AE 9101 BE64      09714        1243        TM      MODE,MB1            IS IT A DATA NAME                    06168021
 0004B2 4710 7204      051BC        1244        BC      ONES,IDGVUP         NO                                   06174021
 0004B6 94FE BF82      09832        1245        NI      EXMSW1,MSWOFF                                            06180021
 0004BA 94FE BF83      09833        1246        NI      EXMSW2,MSWOFF                                            06186021
 0004BE 94FE BF84      09834        1247        NI      EXMSW3,MSWOFF       INITIALIZE ALL SWITHCHES             06192021
 0004C2 9400 BED2      09782        1248          NI    ETOPTS+NX2,MZERO     ZERO ETOPTS LAST BYTE               06198021
 0004C6 45E0 8166      0611E        1249        BAL     RCS,STOVRB          STORE VERB IN STRING                 06204021
 0004CA 4140 BED0      09780        1250        LA      RW4,ETOPTS         STORE ETOPTS IN STRING                06210021
 0004CE 45E0 8000      05FB8        1251        BAL     RCS,STOR45          STORE ENTITY                         06216021
 0004D2 9580 BE64      09714        1252        CLI     MODE,MB128            IS DN NUMERIC                      06222021
 0004D6 4780 F24C      006EE        1253        BC      EQ,EXAM24           YES                                  06228021
 0004DA 9502 BE65      09715        1254          CLI   MODE+NX1,MB2                                             06234021
 0004DE 4780 F044      004E6        1255        BC      EQ,EXAM02           ALPHABETIC   USAGE DISPLAY           06240021
 0004E2 47F0 F0A6      00548        1256        BC      UNCOND,EXAM06       ALPHANUMERIC , GROUP OR REPORT       06246021
                                    1257 *                                  OTHER DISPLAY                        06252021
 0004E6 45E0 76EC      056A4        1258 EXAM02 BAL     RCS,GETALL          MOVE ENTITY TO SAVE AREA             06258021
 0004EA 4120 B57C      08E2C        1259        LA      RW2,PLEFT          SAVE THE DATA-NAME                    06264021
 0004EE 45E0 7566      0551E        1260        BAL     RCS,GETNXT          GET NEXT ENTITY                      06270021
 0004F2 D501 C000 A4D2 0988B 081CA  1261          CLC   GOTTEN(LX2),CBTLYG   IS IT COBOL WORD 'TALLYING'         06276021
 0004F8 4780 F0AE      00550        1262        BC      EQ,EXAM08           YES                                  06282021
 0004FC D501 C000 A410 0988B 08108  1263          CLC   GOTTEN(LX2),CBRPLC   IS IT COBOL WORD 'REPLACING'        06288021
 000502 4770 F092      00534        1264        BC      NOTEQ,EXAM04        ERROR, OPTION MISSING                06294021
 000506 9640 BED2      09782        1265          OI    ETOPTS+NX2,MB64      'REPLACING' PUT 1 TO BIT 1 OF ET    06300021
 00050A 45E0 7566      0551E        1266 EXAM03 BAL     RCS,GETNXT          GET NEXT ENTITY                      06306021
 00050E D501 C000 A338 0988B 08030  1267          CLC   GOTTEN(LX2),CBALL    IS COBOL WORD 'ALL'                 06312021
 000514 4780 F0B6      00558        1268        BC      EQ,EXAM09           'ALL' IS FOUND                       06318021
 000518 D501 C000 A358 0988B 08050  1269          CLC   GOTTEN(LX2),CBLEAD                                       06324021
 00051E 4780 F0BE      00560        1270        BC      EQ,EXAM10           'LEADING' IS FOUND                   06330021
 000522 D501 C000 A4E8 0988B 081E0  1271          CLC   GOTTEN(LX2),CBUNTL                                       06336021
 000528 4780 F0C6      00568        1272        BC      EQ,EXAM11           'UNTIL' IS FOUND                     06342021
 00052C 9140 BED2      09782        1273          TM    ETOPTS+NX2,MB64      IF BIT 1 IS ON, IT IS OPTION 2 W    06348021
 000530 4710 F0EC      0058E        1274        BC      ONES,EXAM13         'REPLACING'                          06354021
 000534 4100 A5DD      082D5        1275 EXAM04 LA      RA0,KEYWRD          OPTION KEYWORD MISSING               06360021
 000538 45E0 9BDA      07A32        1276        BAL     RCS,ERROR           ERROR                                06366021
 00053C 47F0 7204      051BC        1277        BC      UNCOND,IDGVUP       GIVE UP                              06372021
 000540 9601 BF83      09833        1278 EXAM05 OI      EXMSW2,MSWON        NUMERIC DISPLAY                      06378021
 000544 47F0 F044      004E6        1279        BC      UNCOND,EXAM02       SAVE THE ENTIRE ENTITY               06384021
 000548 9601 BF84      09834        1280 EXAM06 OI      EXMSW3,MSWON        OTHER DISPLAY                        06390021
 00054C 47F0 F044      004E6        1281        BC      UNCOND,EXAM02       SAVE THE ENTIRE ENTITY               06396021
 000550 9680 BED2      09782        1282 EXAM08   OI    ETOPTS+NX2,MB128     'TALLYING' IS FOUND, PUT 1 TO BI    06402021
                                    1283 *                                  0 OF ETOPTS                          06408021
 000554 47F0 F068      0050A        1284        BC      UNCOND,EXAM03       GET THE KEYWORD                      06414021
 000558 9620 BED2      09782        1285 EXAM09   OI    ETOPTS+NX2,MB32      'ALL' PUT 1 TO BIT 2 OF ETOPTS      06420021
 00055C 47F0 F0FA      0059C        1286        BC      UNCOND,EXAM14       GET NEXT ENTITY                      06426021
 000560 9610 BED2      09782        1287 EXAM10   OI    ETOPTS+NX2,MB16      'LEADING' 1 TO BIT 3 OF ETOPTS      06432021
 000564 47F0 F0FA      0059C        1288        BC      UNCOND,EXAM14       GET THE NEXT ENTITY                  06438021
 000568 45E0 7566      0551E        1289 EXAM11 BAL     RCS,GETNXT          GET THE NEXT ENTITY                  06444021
 00056C D501 C000 A34A 0988B 08042  1290          CLC   GOTTEN(LX2),CBFRST                                       06450021
 000572 4780 F0E4      00586        1291        BC      EQ,EXAM12           'FIRST' FOUND AFTER 'UNTIL'          06456021
 000576 4100 A34A      08042        1292        LA      RA0,CBFRST         'FIRST' MISSING AFTER 'UNTIL'         06462021
1PH40     IKFCBL40                                                                                              PAGE   31
-  LOC  OBJECT CODE    ADDR1 ADDR2  STMT   SOURCE STATEMENT                                       ASM 0201 11.03 02/14/15
000057A 45E0 9BDA      07A32        1293        BAL     RCS,ERROR           ERROR                                06468021
 00057E 4110 A02A      07D22        1294        LA      RW1,ELST07                                               06474021
 000582 9601 BF74      09824        1295        OI      NEXTIN,MSWON                                             06480021
 000586 9608 BED2      09782        1296 EXAM12   OI    ETOPTS+NX2,MB8       'UNTIL FIRST' 1 TO BIT 4 OF ETOP    06486021
 00058A 47F0 F0FA      0059C        1297        BC      UNCOND,EXAM14       GET THE NEXT ENTITY                  06492021
 00058E D501 C000 A34A 0988B 08042  1298 EXAM13   CLC   GOTTEN(LX2),CBFRST                                       06498021
 000594 4770 F092      00534        1299        BC      NOTEQ,EXAM04        'FIRST' OF OPTION 2 MISSING          06504021
 000598 9604 BED2      09782        1300          OI    ETOPTS+NX2,MB4       'FIRST' 1 TO BIT 5 OF ETOPTS        06510021
 00059C 45E0 7566      0551E        1301 EXAM14 BAL     RCS,GETNXT          GET THE NEXT ENTITY                  06516021
 0005A0 D501 C000 A338 0988B 08030  1302          CLC   GOTTEN(LX2),CBALL IS IT ALL 'CHAR'                       06522021
 0005A6 4770 F110      005B2        1303        BNE   EXAM14Y   NO- OK                                           06528021
 0005AA 45E0 9BDA      07A32        1304        BAL   RCS,ERROR   ISSUE WARNING BUT CONTINUE PROCESSING          06534021
 0005AE 4110 A1B6      07EAE        1305        LA    RW1,ELST43     GIVE WARNING-BUT PROCESS NORMALLY           06540021
 0005B2 45E0 81AC      06164        1306 EXAM14Y BAL  RCS,RDUCOP   SEE IF VALID DATA OPERAND                     06546021
 0005B6 47F0 F16C      0060E        1307        BC      UNCOND,EXM14X       NO,GIVE UP                           06552021
 0005BA D501 C000 BE96 0988B 09746  1308          CLC   GOTTEN(LX2),ALPNUM   TEST CHAR1 AND CHAR2 IF IT 1 BYT    06558021
 0005C0 4780 F178      0061A        1309        BC      EQ,EXAM15           ALPHANUMERIC LITERAL OR              06564021
 0005C4 D200 BE24 C001 096D4 0988C  1310          MVC   TEMP(LX1),GOTTEN+NX1   MOVE FIGCON CHARACTER TO TEMP     06570021
 0005CA 9575 C000      0988B        1311        CLI     GOTTEN,MFGCON       FIGURATIVE CONSTANT                  06576021
 0005CE 4780 F17E      00620        1312        BC      EQ,EXAM16           YES, CHECK MODE OF DN                06582021
 0005D2 D503 C000 BF54 0988B 09804  1313          CLC   GOTTEN(LX4),NUMLT1 IS IT INTEGRAL NUM LIT                06588021
 0005D8 4770 F16C      0060E        1314        BNE   EXM14X       NO- ERROR                                     06594021
 0005DC 910F C004      0988F        1315          TM    GOTTEN+NX4,UNSIGN                                        06600021
 0005E0 4710 F14E      005F0        1316        BO    EXM14Z                DN IS NOT SIGNED                     06606021
 0005E4 45E0 9BDA      07A32        1317        BAL   RCS,ERROR             INVALID LITERAL                      06612021
 0005E8 4110 A1AD      07EA5        1318        LA    RW1,ELST41                                                 06618021
 0005EC 960F C004      0988F        1319          OI    GOTTEN+NX4,UNSIGN  MAKE IT UNSIGNED                      06624021
 0005F0 F300 BE95 C004 09745 0988F  1320 EXM14Z   UNPK  FIGALL+NX1(LX1),GOTTEN+NX4(LX1)                          06630021
 0005F6 41C0 BE94      09744        1321        LA    RIN,FIGALL                                                 06636021
 0005FA 9101 BF83      09833        1322        TM    EXMSW2,MSWON  DNM NUMERIC OR ALNUM                         06642021
 0005FE 4710 F1C6      00668        1323        BO    EXAM20                NUMERIC                              06648021
 000602 9101 BF84      09834        1324        TM    EXMSW3,MSWON                                               06654021
 000606 4710 F1C6      00668        1325        BO    EXAM20                OTHER                                06660021
 00060A 47F0 F19E      00640        1326        B     EXAM17  NO-ERROR                                           06666021
                             0060E  1327 EXM14X EQU     *                                                        06672021
 00060E 45E0 9BDA      07A32        1328        BAL     RCS,ERROR           INVALID OPERAND                      06678021
 000612 4110 A03C      07D34        1329        LA      RW1,ELST09                                               06684021
 000616 47F0 720C      051C4        1330        BC      UNCOND,IDERR        ERROR EXIT                           06690021
 00061A D200 BE24 C002 096D4 0988D  1331 EXAM15   MVC   TEMP(LX1),GOTTEN+NX2 MOVE LITERAL CHARACTER TO TEMP      06696021
 000620 9101 BF84      09834        1332 EXAM16 TM      EXMSW3,MSWON                                             06702021
 000624 4710 F1C6      00668        1333        BC      ONES,EXAM20         DN IS ALPHANUMERIC                   06708021
 000628 9101 BF83      09833        1334        TM      EXMSW2,MSWON                                             06714021
 00062C 4710 F1B6      00658        1335        BC      ONES,EXAM19         DN IS NUMERIC                        06720021
 000630 95C1 BE24      096D4        1336        CLI     TEMP,MC1                                                 06726021
 000634 47B0 F1AA      0064C        1337        BC      NOTLO,EXAM18        TEST IS IT ALPHABETIC                06732021
 000638 9540 BE24      096D4        1338        CLI     TEMP,MB64          IS IT BLANK                           06738021
 00063C 4780 F1C6      00668        1339        BC      EQ,EXAM20           LITERAL IS BLANK                     06744021
 000640 45E0 9BDA      07A32        1340 EXAM17 BAL     RCS,ERROR           CHAR IS LIT. OR FIGCON BUT           06750021
 000644 4110 A048      07D40        1341        LA      RW1,ELST0B           DIFFERENT MODE FOR DN               06756021
 000648 47F0 720C      051C4        1342        BC      UNCOND,IDERR        ERROR EXIT                           06762021
 00064C 95E9 BE24      096D4        1343 EXAM18 CLI     TEMP,ME9                                                 06768021
 000650 47D0 F1C6      00668        1344        BC      NOTHI,EXAM20        DN IS ALPHABETIC                     06774021
 000654 4720 F19E      00640        1345        BC      HI,EXAM17           NO, ERROR                            06780021
 000658 95F0 BE24      096D4        1346 EXAM19 CLI     TEMP,MF0                                                 06786021
 00065C 4740 F19E      00640        1347        BC      LO,EXAM17           DN NOT NUMERIC - ERROR               06792021
1PH40     IKFCBL40                                                                                              PAGE   32
-  LOC  OBJECT CODE    ADDR1 ADDR2  STMT   SOURCE STATEMENT                                       ASM 0201 11.03 02/14/15
0000660 95F9 BE24      096D4        1348        CLI     TEMP,MF9                                                 06798021
 000664 4720 F19E      00640        1349        BC      HI,EXAM17           DN NOT NUMERIC - ERROR               06804021
 000668 45E0 8048      06000        1350 EXAM20 BAL     RCS,STOINP          STORE CHAR-1                         06810021
 00066C 9101 BF82      09832        1351        TM      EXMSW1,MSWON        IS THE 2ND TEST FOR CHARACTERS       06816021
 000670 4710 F1D6      00678        1352          BC    ONES,*+NX8           YES, SKIP TO STORE CHAR AGAIN       06822021
 000674 45E0 8048      06000        1353        BAL     RCS,STOINP          STORE CHARACTER-1 AGAIN              06828021
 000678 45E0 7566      0551E        1354        BAL     RCS,GETNXT          GET NEXT ENTITY                      06834021
 00067C 9101 BF82      09832        1355        TM      EXMSW1,MSWON                                             06840021
 000680 4710 F22A      006CC        1356        BC      ONES,EXAM23         CHAR-2 IS PROCESSED                  06846021
 000684 9140 BED2      09782        1357          TM    ETOPTS+NX2,MB64      TEST ETOPTS BIT 1 FOR 'REPLACING    06852021
 000688 4710 F1FC      0069E        1358        BC      ONES,EXAM21         ON                                   06858021
 00068C D501 C000 A410 0988B 08108  1359          CLC   GOTTEN(LX2),CBRPLC   OFF                                 06864021
 000692 4770 F22A      006CC        1360        BC      NOTEQ,EXAM23        'REPLACING' IS MISSING               06870021
 000696 9640 BED2      09782        1361          OI    ETOPTS+NX2,MB64      'REPLACING' 1 TO BIT 1 OF ETOPTS    06876021
 00069A 45E0 7566      0551E        1362        BAL     RCS,GETNXT          GET THE NEXT ENTITY                  06882021
                                    1363 *                                                                       06888021
 00069E D501 C000 A4E4 0988B 081DC  1364 EXAM21   CLC   GOTTEN(LX2),CBBY     IS IT COBOL WORD 'BY'               06894021
 0006A4 4780 F216      006B8        1365        BC    EQ,EXAM22             YES-BRANCH                           06900021
 0006A8 4100 A4E4      081DC        1366        LA      RA0,CBBY                                                 06906021
 0006AC 45E0 9BDA      07A32        1367        BAL     RCS,ERROR           'BY' MISSING - ISSUE WARNING         06912021
 0006B0 4110 A02A      07D22        1368        LA      RW1,ELST07                                               06918021
 0006B4 9601 BF74      09824        1369        OI      NEXTIN,MSWON                                             06924021
 0006B8 5810 B048      088F8        1370 EXAM22 L       RW1,ASTRNG          GIVE ADDRESS TO PREMVV               06930021
 0006BC 45E0 7D8E      05D46        1371        BAL     RCS,PREMVV          REMOVE VARIABLE LENGTH               06936021
 0006C0 4140 0000      00000        1372          LA    RW4,DX0               (DUMMY FOR CHARACTER-1)            06942021
 0006C4 9601 BF82      09832        1373        OI      EXMSW1,MSWON        SET EXMSW1 SWITCH ON FOR NEXT CH     06948021
 0006C8 47F0 F0FA      0059C        1374        BC      UNCOND,EXAM14       GET CHAR-2                           06954021
 0006CC 5830 B048      088F8        1375 EXAM23 L       RW3,ASTRNG          NEW ETOPTS+2 TO STRING-ETOPTS+2      06960021
 0006D0 5833 0000      00000        1376          L     RW3,DX0(RW3)                                             06966021
 0006D4 5823 0000      00000        1377          L     RW2,DX0(RW3)                                             06972021
 0006D8 D200 2006 BED2 00006 09782  1378          MVC   DX6(LX1,RW2),ETOPTS+NX2                                  06978021
 0006DE 4140 B57C      08E2C        1379        LA      RW4,PLEFT          STORE DN FROM SAVE AREA TO STRING     06984021
 0006E2 45E0 8000      05FB8        1380        BAL     RCS,STOR45          STORE DN                             06990021
 0006E6 45E0 7766      0571E        1381        BAL     RCS,GENSTR          GENERATE STRING                      06996021
 0006EA 47F0 7000      04FB8        1382        BC      UNCOND,IDENT        EXIT                                 07002021
 0006EE 9509 BE65      09715        1383 EXAM24   CLI   MODE+NX1,MB9                                             07008021
 0006F2 47D0 F09E      00540        1384        BC      NOTHI,EXAM05        NUMERIC DISPLAY                      07014021
 0006F6 950D BE65      09715        1385          CLI   MODE+NX1,MB13                                            07020021
 0006FA 4780 F09E      00540        1386        BC      EQ,EXAM05           STERLING NON-REPORT NUMERIC DISP     07026021
 0006FE 95FF C004      00004        1387          CLI   DX4(RIN),MFF        IS IT A SPECIAL REGISTER             07032021
 000702 4770 F270      00712        1388          BNE   EXAM25              NO                                   07038021
 000706 45E0 9BDA      07A32        1389          BAL   RCS,ERROR           YES                                  07044021
 00070A 4110 A2D9      07FD1        1390          LA    RW1,ELST73          WRITE ERROR MESSAGE                  07050021
 00070E 47F0 720C      051C4        1391        BC      UNCOND,IDERR        ERROR EXIT                           07056021
                             00712  1392 EXAM25 EQU     *                                                        07062021
 000712 45E0 9BDA      07A32        1393        BAL     RCS,ERROR          USEAGE NOT DISPLAY                    07068021
 000716 4110 A057      07D4F        1394        LA      RW1,ELST0E                                               07074021
 00071A 47F0 720C      051C4        1395        BC      UNCOND,IDERR        ERROR - DO NOT GENERATE              07080021
1PH40     IKFCBL40                                                                                              PAGE   33
-  LOC  OBJECT CODE    ADDR1 ADDR2  STMT   SOURCE STATEMENT                                       ASM 0201 11.03 02/14/15
0                                   1397 *=2    EOS     PERIOD HANDLING                                          07092021
                                    1398 *******************************************************************     07098021
                                    1399 *                                                                       07104021
                                    1400 *                                                                       07110021
                                    1401 *                                 E O S                                 07116021
                                    1402 *                                                                       07122021
                                    1403 *                                                                       07128021
                                    1404 *      GENERATES LABEL FOR NEXT-SENTENCE (NXTSNT),IF IT HAS BEEN        07134021
                                    1405 *       REFERENCED, AND ALL REMAINING LABELS IN PSHTBL STORED BY        07140021
                                    1406 *       IF AND RELATED ANALYZERS                                        07146021
                                    1407 *                                                                       07152021
                                    1408 *** SUBROUTINES CALLED                                                  07158021
                                    1409 *      GNXTST,SRCHTB,ERROR                                              07164021
                                    1410 *                                                                       07170021
                                    1411 *** ERROR PROCESSING                                                    07176021
                                    1412 *      IF LABELS ARE IN PSHTBL, OR IF NXTSNT IS NOT 0 -- THEN           07182021
                                    1413 *        IF PROGRAM-BREAK OTHER THAN END-DECLARATIVES FOLLOWS, WRIT     07188021
                                    1414 *          MSG AND PROVIDES 'STOP RUN'.                                 07194021
                                    1415 *        IF END-DECLARATIVES, OR SECTION-NAME WITHIN DECLARATIVES,      07200021
                                    1416 *          END-OF-RANGE OF PERFORM FOLLOWS, WRITES MSG THAT 'EXIT'      07206021
                                    1417 *          NEEDED AND PROVIDED.                                         07212021
                                    1418 *     IF PROGRAM BREAK IS SEGMENTATION, THIS IS VALID                   07218021
                                    1419 *                                                                       07224021
                                    1420 *******************************************************************     07230021
-
                             0071E  1422        USING   *,RVRB                                                   07242021
                             0071E  1423 EOS    EQU     *                                                        07248021
 00071E 45E0 9B86      079DE        1424        BAL   RCS,IFSRCH       BRANCH TO IF...SEARCH               5961  07254021
 000722 94FE BFDA      0988A        1425          NI    IFSW1,MSWOFF        RESET IFSW1                    99997 07260021
 000726 D501 BE18 A598 096C8 08290  1426          CLC   NXTSNT(LX2),N0      HAS NEXT SENTENCE BEEN CALLED        07266021
 00072C 4770 F01C      0073A        1427        BC      NOTEQ,EOS2           YES                                 07272021
 000730 D501 B08C A598 0893C 08290  1428          CLC   DSPUSH(LX2),N0      ARE THERE LABELS IN PSHTBL           07278021
 000736 4780 F0C2      007E0        1429        BC      EQ,EOS12             NO - NO ERRORS                      07284021
 00073A 9506 C000      0988B        1430 EOS2   CLI     GOTTEN,MPND        IS NEXT A PN                          07290021
 00073E 4780 F06E      0078C        1431        BC      EQ,EOS4              YES                                 07296021
 000742 D501 C000 A52A 0988B 08222  1432          CLC   GOTTEN(LX2),CBDBUG     IS IT DEBUG VERB                  07302021
 000748 4780 F05A      00778        1433        BC      EQ,EOS3X            YES                                  07308021
 00074C 9542 C000      0988B        1434        CLI     GOTTEN,MBREAK      IS IT A PROGRAM-BREAK                 07314021
 000750 4770 F0BA      007D8        1435        BC      NOTEQ,EOS10          NO - NO ERRORS                      07320021
 000754 9508 C001      0988C        1436          CLI   GOTTEN+NX1,MENDCL    IS IT END-DECLARATIVES              07326021
 000758 4780 F0AE      007CC        1437        BC    EQ,EOS8A              YES                                  07332021
 00075C 950D C001      0988C        1438          CLI   GOTTEN+NX1,SEGBK IS IT SEGMENTATION CONTROL BREAK        07338021
 000760 4780 F0BA      007D8        1439        BC    EQ,EOS10          YES- OK                                  07344021
                             00764  1440 EOS3   EQU     *                                                        07350021
 000764 9509 BF62      09812        1441          CLI   PGMBRK,MDUGPK   ARE WE PROCESSING *DEBUG PACKET          07356021
 000768 4780 F0BA      007D8        1442          BC    EQ,EOS10     YES                                         07362021
 00076C 45E0 9BDA      07A32        1443        BAL     RCS,ERROR           NO - ERROR                           07368021
 000770 4110 A000      07CF8        1444        LA      RW1,ELST01           MSG -- ASSUME STOP RUN              07374021
 000774 47F0 F0BA      007D8        1445        BC      UNCOND,EOS10        GO TO GENERATE LABELS                07380021
 000778 4810 BD42      095F2        1446 EOS3X    LH    RW1,SAVLHN+NX4      GET ID OF NEXT PN FOR *DEBUG         07386021
 00077C 4111 0001      00001        1447          LA    RW1,DX1(RW1)                                             07392021
 000780 4010 BE90      09740        1448        STH     RW1,SRCHNM                                               07398021
 000784 9601 BFCB      0987B        1449        OI      SWDBUG,MSWON        TURN DEBUG SWITCH                    07404021
1PH40     IKFCBL40                                                                                              PAGE   34
-  LOC  OBJECT CODE    ADDR1 ADDR2  STMT   SOURCE STATEMENT                                       ASM 0201 11.03 02/14/15
0000788 47F0 F074      00792        1450          BC    UNCOND,*+NX10        GO TO SEARCH TABLE                  07410021
 00078C D201 BE90 C004 09740 00004  1451 EOS4     MVC   SRCHNM(LX2),DX4(RIN) IS IT END OF PERFORM                07416021
 000792 5810 B060      08910        1452        L       RW1,APFMTB                                               07422021
 000796 45E0 7DF8      05DB0        1453        BAL     RCS,SRCHTB          SEARCH TABLE                         07428021
 00079A 47F0 F088      007A6        1454        BC      UNCOND,EOS6         IS IT 'DEBUG'                        07434021
 00079E 4100 A646      0833E        1455        LA      RA0,BCDPFD            YES - ERROR, NEED EXIT             07440021
 0007A2 47F0 F0B2      007D0        1456        BC      UNCOND,EOS9         ERROR FOUND                          07446021
 0007A6 9101 BFCB      0987B        1457 EOS6   TM      SWDBUG,MSWON                                             07452021
 0007AA 4710 F0BA      007D8        1458        BC      ONES,EOS10         (FOR DEBUG WE DONT HAVE PN IN INP     07458021
 0007AE 9140 C002      00002        1459          TM    DX2(RIN),MSNBIT     IS IT SECTION NAME                   07464021
 0007B2 4780 F0BA      007D8        1460        BC      ZERO,EOS10           NO - ALL OK                         07470021
 0007B6 9507 BF62      09812        1461        CLI     PGMBRK,MDECL       IS IT USE SECTION                     07476021
 0007BA 4780 F0AE      007CC        1462         BC    EQ,EOS8A             YES-ERROR - NEED EXIT                07482021
 0007BE D501 C008 A598 00008 08290  1463          CLC   NEXSN(LX2,RIN),N0    IS IT LAST OF PROGRAM               07488021
 0007C4 4780 F046      00764        1464        BC      EQ,EOS3               YES - NEED STOP RUN                07494021
 0007C8 47F0 F0BA      007D8        1465        BC      UNCOND,EOS10           NO - ALL OK                       07500021
 0007CC 4100 A652      0834A        1466 EOS8A  LA    RA0,BCDECL                                                 07506021
 0007D0 45E0 9BDA      07A32        1467 EOS9   BAL     RCS,ERROR           PROCESS ERROR                        07512021
 0007D4 4110 A1D1      07EC9        1468        LA      RW1,ELST48         MSG -- EXIT NEEDED                    07518021
 0007D8 45E0 7996      0594E        1469 EOS10  BAL     RCS,GNXTST         GENR ALL PENDING LABELS               07524021
 0007DC 9200 BFCB      0987B        1470          MVI   SWDBUG,XX00                                              07530021
 0007E0 9400 BD3E      095EE        1471 EOS12    NI    SAVLHN,XX00         ZERO ATTRIBUTES OF LAST LHN          07536021
 0007E4 94FE BF6B      0981B        1472        NI      PSKPGO,MSWOFF      REINIT SW FOR ELSE                    07542021
 0007E8 9601 BF73      09823        1473        OI      GENRED,MSWON                                             07548021
 0007EC 47F0 7000      04FB8        1474        BC      UNCOND,IDENT        EXIT                                 07554021
1PH40     IKFCBL40                                                                                              PAGE   35
-  LOC  OBJECT CODE    ADDR1 ADDR2  STMT   SOURCE STATEMENT                                       ASM 0201 11.03 02/14/15
0                                   1476 *=1    GO      VERB                                                     07566021
                                    1477 *******************************************************************     07572021
                                    1478 *                                                                       07578021
                                    1479 *                                   G O                                 07584021
                                    1480 *                                                                       07590021
                                    1481 *** STRINGS PRODUCED                                                    07596021
                                    1482 *                                                                       07602021
                                    1483 *        1. FOR ORDINARY 'GO'                                           07608021
                                    1484 *      GO,1                                                             07614021
                                    1485 *      RHN                                                              07620021
                                    1486 *                                                                       07626021
                                    1487 *        2. FOR ALTERED 'GO'                                            07632021
                                    1488 *      LHN                                                              07638021
                                    1489 *      GO,1                                                             07644021
                                    1490 *      VN          (VN IS FOUND IN VNTBL FOR ID OF LHN)                 07650021
                                    1491 *      EQU,2                                                            07656021
                                    1492 *      VN                                                               07662021
                                    1493 *      RHN                                                              07668021
                                    1494 *                                                                       07674021
                                    1495 *        3. FOR GO-DEPENDING-ON                                         07680021
                                    1496 *      GO-DEP-FIRST,2                                                   07686021
                                    1497 *      N       (RHN COUNT)                                              07692021
                                    1498 *      DATA-NAME                                                        07698021
                                    1499 *      GO-DEP-MIDDLE,1                                                  07704021
                                    1500 *      RHN1                                                             07710021
                                    1501 *      GO-DEP-MIDDLE,1                                                  07716021
                                    1502 *      RHN2                                                             07722021
                                    1503 *      .                                                                07728021
                                    1504 *      .                                                                07734021
                                    1505 *      GO-DEP-LAST,1                                                    07740021
                                    1506 *      RHNN                                                             07746021
                                    1507 *                                                                       07752021
                                    1508 *                                                                       07758021
                                    1509 *** SUBROUTINES CALLED                                                  07764021
                                    1510 *      GETNXT,STOVRB,STOR45,STPNIN,COPYIN,GENDAT,GENSTR,RDUCOP,ISIN     07770021
                                    1511 *      ISOKSC,GOBACK,ERROR                                              07776021
                                    1512 *                                                                       07782021
                                    1513 *                                                                       07788021
                                    1514 *** ERROR PROCESSING                                                    07794021
                                    1515 *      UNALTERED 'GO TO .',STATEMENT SKIPPED                            07800021
                                    1516 *      PROCEDURE-NAME DOES NOT FOLLOW GO(TO),STATEMENT SKIPPED          07806021
                                    1517 *      MISSING 'TO' ASSUMED                                             07812021
                                    1518 *      MISSING 'DEPENDING ON' ASSUMED IF MORE THAN ONE PN FOUND (AN     07818021
                                    1519 *        NON-PN COMPLETES THE SERIES)                                   07824021
                                    1520 *      ILLEGAL DATA-NAME REPLACED BY 'TALLY'                            07830021
                                    1521 *      BRANCH  TO ILLEGAL SECTION, STATEMENT GENERATED AFTER MSG        07836021
                                    1522 *      ALTERED GO-DEPENDING, NO MSG (ALTER WILL WRITE), GENERATE        07842021
                                    1523 *        ORDINARY NON-ALTERED GO STRING                                 07848021
                                    1524 *      ALTERED GO WHICH IS ALSO END-OF-RANGE OF PERFORM, TREAT AS       07854021
                                    1525 *        UNALTERED. LET ALTER ANALYZER WRITE MSG                        07860021
                                    1526 *                                                                       07866021
                                    1527 *                                                                       07872021
                                    1528 *** NOTES                                                               07878021
                                    1529 *      PSKPGO SWITCH IS TURNED ON IN CASES 1 AND 2, TELLING 'ELSE'      07884021
                                    1530 *        NOT TO GENERATE 'GO-TO-NEXT-SENTENCE'                          07890021
1PH40     IKFCBL40                                                                                              PAGE   36
-  LOC  OBJECT CODE    ADDR1 ADDR2  STMT   SOURCE STATEMENT                                       ASM 0201 11.03 02/14/15
0                                   1531 *      GOSW1   TURNED ON WHEN 2ND PN IS FOUND,INDICATES 'DEPENDING'     07896021
                                    1532 *              IS REQUIRED                                              07902021
                                    1533 *                                                                       07908021
                                    1534 *      PHASE 1 TURNS ON BIT 0 OF ATTRIBUTES FOR A PN WHICH HEADS A      07914021
                                    1535 *       SINGLE GO (AND THUS CAN BE ALTERED), AND BIT 7 FOR A PN         07920021
                                    1536 *       REFERENCED BY AN ALTER. IDENT SAVES EVERY NEW PNDEF AT SAVL     07926021
                                    1537 *       IF IT IS FOLLOWED BY ANY VERB BUT GO OR EXIT ITS ATTRIBUTES     07932021
                                    1538 *       ZEROED OUT. (GO ITSELF ZEROES THEM ON EXITING.) THUS IT IS      07938021
                                    1539 *       KNOWN THAT ANY GO- OR ALTER-BITS FOUND ARE FOR THE PARAGRAP     07944021
                                    1540 *       OF WHICH THE GO BEING PROCESSED IS THE FIRST VERB               07950021
                                    1541 *                                                                       07956021
                                    1542 *                                                                       07962021
                                    1543 *******************************************************************     07968021
-
-
                             007F0  1545          USING *,RVRB                                                   07980021
                             007F0  1546 GO       EQU   *                                                        07986021
 0007F0 9601 BF6B      0981B        1547        OI      PSKPGO,MSWON       TELL 'ELSE' NOT TO GENR.'GO-TO-NE     07992021
 0007F4 45E0 8166      0611E        1548        BAL     RCS,STOVRB          STORE VERB ROUTINE                   07998021
 0007F8 D201 BE0C A59C 096BC 08294  1549          MVC   GOCTR(LX2),N1       RESET COUNTER TO 1                   08004021
 0007FE D501 C000 A4E0 0988B 081D8  1550          CLC   GOTTEN(LX2),CBTO     IS IT COBOL WORD'TO'                08010021
 000804 4780 F028      00818        1551        BC      EQ,GO01             YES                                  08016021
 000808 4100 A4E0      081D8        1552        LA      RA0,CBTO                                                 08022021
 00080C 45E0 9BDA      07A32        1553        BAL     RCS,ERROR          'TO' MISSING                          08028021
 000810 4110 A02A      07D22        1554        LA      RW1,ELST07                                               08034021
 000814 47F0 F02C      0081C        1555        BC      UNCOND,GO05         IS IT PERIOD                         08040021
 000818 45E0 7566      0551E        1556 GO01   BAL     RCS,GETNXT          GET THE NEXT ENTITY                  08046021
 00081C D501 C000 A346 0988B 0803E  1557 GO05     CLC   GOTTEN(LX2),CBEOS    IS IT PERIOD                        08052021
 000822 4770 F0B2      008A2        1558        BC      NOTEQ,GO25          NOT PERIOD                           08058021
 000826 9110 BD40      095F0        1559          TM    LHN+NX2,MALTBT       IS STATEMENT ALTERED                08064021
 00082A 4780 F09A      0088A        1560        BC      ZERO,GO20           NO, ERROR                            08070021
                             0082E  1561 GO10   EQU     *                                                        08076021
 00082E 9120 BD40      095F0        1562          TM    LHN+NX2,MPFMBT       IS ALTERED GO ALSO END-OF-PERFOR    08082021
 000832 4780 F054      00844        1563        BC      ZERO,GO12             NO - OK                            08088021
 000836 D501 C000 A346 0988B 0803E  1564          CLC   GOTTEN(LX2),CBEOS      YES - SKIP ALTER CODING           08094021
 00083C 4780 7000      04FB8        1565        BC      EQ,IDENT                    EXIT FOR EOS                 08100021
 000840 47F0 F0FE      008EE        1566        BC      UNCOND,GO35                 TREAT PN AS UNALTERED        08106021
 000844 4140 BEAC      0975C        1567 GO12   LA      RW4,VNREF           STORE VN IN STRING (IDLHN SET IT     08112021
 000848 45E0 8000      05FB8        1568        BAL     RCS,STOR45          STORE IN STRING                      08118021
 00084C 4140 A561      08259        1569        LA      RW4,EQUVRB                                               08124021
 000850 45E0 8000      05FB8        1570        BAL     RCS,STOR45          STORE VN IN STRING                   08130021
 000854 4140 BEAC      0975C        1571        LA      RW4,VNREF          STORE - VN(REF) EQU PN(REF)           08136021
 000858 45E0 8000      05FB8        1572        BAL     RCS,STOR45          STORE IN STRING                      08142021
 00085C D501 C000 A346 0988B 0803E  1573          CLC   GOTTEN(LX2),CBEOS    IS THIS END OF SENTENCE             08148021
 000862 4780 F0A6      00896        1574        BE    GO21                  YES,GENERATE DUMMY PN REF            08154021
 000866 D201 BE76 C004 09726 00004  1575          MVC   TNUMER(LX2),PNIDEN(RIN)   SAVE PN NUM               2962 08160021
 00086C D200 BE75 C007 09725 00007  1576          MVC   TPRIOR(LX1),PTYPN(RIN)   SAVE PRIORITY              2962 08166021
 000872 45E0 8010      05FC8        1577        BAL     RCS,STPNIN          STORE P2-TEXT EQUIV. OF ENTITY       08172021
 000876 4140 BE74      09724        1578          LA    RW4,TRUREF        GENERATE DUMMY PNREF              2962 08178021
 00087A 45E0 8000      05FB8        1579          BAL    RCS,STOR45      FOR ALTERED GO                     2962 08184021
 00087E 45E0 7566      0551E        1580        BAL     RCS,GETNXT         DOES PERIOD FOLLOW THIS GO            08190021
1PH40     IKFCBL40                                                                                              PAGE   37
-  LOC  OBJECT CODE    ADDR1 ADDR2  STMT   SOURCE STATEMENT                                       ASM 0201 11.03 02/14/15
0000882 45E0 7766      0571E        1581 GO15   BAL     RCS,GENSTR          GENERATE STRING                      08196021
 000886 47F0 7000      04FB8        1582        BC      UNCOND,IDENT        EXIT                                 08202021
 00088A 45E0 9BDA      07A32        1583 GO20   BAL     RCS,ERROR           LHN A OR/AND G OFF ILLEGAL STATE     08208021
 00088E 4110 A060      07D58        1584        LA      RW1,ELST0F                                               08214021
 000892 47F0 720C      051C4        1585        BC      UNCOND,IDERR        ERROR EXIT                           08220021
 000896 4140 BEA8      09758        1586 GO21   LA    RW4,PNREF1            GET ADDR OF DUMMY PN REF             08226021
 00089A 45E0 8000      05FB8        1587        BAL   RCS,STOR45            STORE IN EQU STRING                  08232021
 00089E 47F0 F092      00882        1588        B     GO15                  GO TO MAIN LINE                      08238021
 0008A2 9520 C000      0988B        1589 GO25   CLI     GOTTEN,MPNU         IS IT A PN                           08244021
 0008A6 4780 F0EA      008DA        1590        BC      EQ,GO30             FIND THE PROCEDURE NAME              08250021
 0008AA D500 C000 BE01 0988B 096B1  1591          CLC   GOTTEN(LX1),GNREF    IS IT GN FROM INTERNAL VERBS        08256021
 0008B0 4780 F0D6      008C6        1592        BC      EQ,GO25X            YES - OK                             08262021
 0008B4 9104 BD41      095F1        1593          TM    SAVLHN+NX3,MLABIT                                        08268021
 0008B8 4780 F0E2      008D2        1594        BC      ZERO,GO26           ERROR                                08274021
 0008BC D501 C000 A4FE 0988B 081F6  1595          CLC   GOTTEN(LX2),CBMORL  WITHIN LABEL-DECL., MORE-LABELS L    08280021
 0008C2 4770 F0E2      008D2        1596        BC      NOTEQ,GO26          NO                                   08286021
                             008C6  1597 GO25X  EQU     *                                                        08292021
 0008C6 45E0 8048      06000        1598        BAL     RCS,STOINP          STORE INPUT IN STRING                08298021
 0008CA 45E0 7566      0551E        1599        BAL     RCS,GETNXT          GET INPUT                            08304021
 0008CE 47F0 F268      00A58        1600        BC      UNCOND,GO82        OK - WIND UP                          08310021
                             008D2  1601 GO26   EQU     *                                                        08316021
 0008D2 4100 A76C      08464        1602        LA      RA0,BCDPN                                                08322021
 0008D6 47F0 7204      051BC        1603        BC      UNCOND,IDGVUP       GIVE UP                              08328021
 0008DA 45E0 8E66      06E1E        1604 GO30   BAL     RCS,ISOKSC          IS PN IN ALLOWABLE SECTION           08334021
 0008DE 9110 BD40      095F0        1605          TM    LHN+NX2,MALTBT       IS STATEMENT AN ALTERED GO          08340021
 0008E2 4780 F0FE      008EE        1606        BC      ZERO,GO35           NO                                   08346021
 0008E6 9108 BD40      095F0        1607          TM    LHN+NX2,MGOBIT       YES,  IS IT A SINGLE GO PARAGRAP    08352021
 0008EA 4710 F03E      0082E        1608        BC      ONES,GO10           YES,OK (IF NO,ALTER WILL WRITE M     08358021
 0008EE 94FE BF7E      0982E        1609 GO35   NI      GOSW1,MSWOFF        SET SW OFF                           08364021
 0008F2 D500 C007 BF64 00007 09814  1610          CLC   PTYPN(LX1,RIN),PTYCEL ARE WE GOING TO PN SAME PTY        08370021
 0008F8 4780 F170      00960        1611        BE    GO38      YES-NORMAL PROCESSING                            08376021
 0008FC 45E0 76EC      056A4        1612        BAL   RCS,GETALL       SAVE THIS PN AND SEE IF NORMAL GO TO      08382021
 000900 4120 BAF4      093A4        1613        LA    RW2,CURENT      OR GO-DEP-ON                               08388021
 000904 45E0 7566      0551E        1614        BAL   RCS,GETNXT            GET THE NEXT ENTITY                  08394021
 000908 45E0 8C32      06BEA        1615        BAL   RCS,ISEND             IS THIS NORMAL GO                    08400021
 00090C 47F0 F158      00948        1616         B      GO37           NOT END - SEEK IF DEP.               0009 08406021
                                    1617 *****                                                             47933 08412021
                                    1618 *  GENERATES SEGMENT GO TO                                        47933 08418021
                                    1619 *****                                                             47933 08424021
 000910                             1620 GO35A    DS    0H                                                 47933 08430021
 000910 58C0 A324      0801C        1621        L     RIN,ACURNT     NORMAL GO                                   08436021
 000914 45E0 7734      056EC        1622 GO36   BAL    RCS,GENDAT   GENERATE SEGT GO VERB                        08442021
 000918 4120 BE4E      096FE        1623        LA    RW2,GOSEGT                                                 08448021
 00091C D200 BEA5 C007 09755 00007  1624          MVC   RPRIOR(LX1),PTYPN(RIN)  SET UP PN REF                    08454021
 000922 D201 BEA6 C004 09756 00004  1625          MVC   RNUMER(LX2),PNIDEN(RIN)                                  08460021
 000928 45E0 7734      056EC        1626        BAL    RCS,GENDAT           GENERATE PN REFERANCE                08466021
 00092C 4120 BEA4      09754        1627        LA    RW2,PNREF     GENERATE THE RHN                             08472021
 000930 58C0 BC70      09520        1628        L     RIN,TRUPNT    POINT RIN TO ENDWORD                         08478021
 000934 9601 BF73      09823        1629     OI    GENRED,MSWON                                                  08484021
 000938 9101 BFB7      09867        1630          TM    SEARCHSW,MSWON      IS THIS FROM SEARCH RTN        47933 08490021
 00093C 4780 7000      04FB8        1631          BZ    IDENT               NO,  RETURN TO IDENT RTN       47933 08496021
 000940 9601 BFB5      09865        1632          OI    GOSW,MSWON          YES, TRUN ON GOSW AND RETURN   47933 08502021
 000944 47F0 7000      04FB8        1633        BC    UNCOND,IDENT          EXIT                                 08508021
                             00948  1634 GO37    EQU    *                                                   0009 08514021
 000948 9101 BFB7      09867        1635          TM    SEARCHSW,MSWON      IS THIS FROM SEARCH RTN        47933 08520021
1PH40     IKFCBL40                                                                                              PAGE   38
-  LOC  OBJECT CODE    ADDR1 ADDR2  STMT   SOURCE STATEMENT                                       ASM 0201 11.03 02/14/15
000094C 4710 F120      00910        1636          BO    GO35A               YES,  GO TO GENERATE SEG. GO TO47933 08526021
 000950 58C0 A324      0801C        1637         L      RIN,ACURNT     ADDR OF SAVED PN                     0009 08532021
 000954 45E0 8010      05FC8        1638         BAL    RCS,STPNIN     STORE SAVED PN IN STRING             0009 08538021
 000958 58C0 BC70      09520        1639         L      RIN,TRUPNT     POINT RIN BACK TO CURRENT INPUT      0009 08544021
 00095C 47F0 F178      00968        1640         B      GO40                SEEK IF 'DEPENDING'             0009 08550021
 000960 45E0 8010      05FC8        1641 GO38   BAL    RCS,STPNIN           STORE P2 TEXT EQUIV. OF ENTITY       08556021
 000964 45E0 7566      0551E        1642        BAL     RCS,GETNXT          GET NEXT ENTITY                      08562021
 000968 D501 C000 A342 0988B 0803A  1643 GO40     CLC   GOTTEN(LX2),CBDEPN   IS COBOL WORD 'DEPENDING'           08568021
 00096E 4780 F270      00A60        1644        BC      EQ,GO86             YES, FOUND 'DEPENDING'               08574021
 000972 9520 C000      0988B        1645        CLI     GOTTEN,MPNU         NO -IS IT A PN                       08580021
 000976 4780 F278      00A68        1646        BC      EQ,GO90             IT IS A 'PN'                         08586021
 00097A 9120 C000      0988B        1647        TM      GOTTEN,MOP         IS IT PERHAPS DN,NUMLIT,ETC.          08592021
 00097E 4780 F1A6      00996        1648        BC      ZERO,GO42            NO                                  08598021
 000982 4100 A76C      08464        1649        LA      RA0,BCDPN            YES -DISCARD                        08604021
 000986 45E0 9BDA      07A32        1650        BAL     RCS,ERROR           ERROR                                08610021
 00098A 4110 A177      07E6F        1651        LA      RW1,ELST38                                               08616021
 00098E 45E0 7566      0551E        1652        BAL     RCS,GETNXT          GET THE NEXT ENTITY                  08622021
 000992 47F0 F178      00968        1653        BC      UNCOND,GO40  SEEK A BETTER ONE                           08628021
                             00996  1654 GO42   EQU     *                                                        08634021
 000996 9101 BF7E      0982E        1655        TM      GOSW1,MSWON         NOT A PN EITHER                      08640021
 00099A 4780 F2BA      00AAA        1656        BC    ZERO,GO96             NOT 'DEPENDING'                      08646021
 00099E 4100 A342      0803A        1657        LA      RA0,CBDEPN                                               08652021
 0009A2 45E0 9BDA      07A32        1658        BAL     RCS,ERROR           'DEPENDING' MISSING OR ILLEGAL       08658021
 0009A6 4110 A02A      07D22        1659        LA      RW1,ELST07                                               08664021
 0009AA D501 C000 A3FC 0988B 080F4  1660 GO45     CLC   GOTTEN(LX2),CBON     IS COBOL WORD 'ON'                  08670021
 0009B0 4770 F1C8      009B8        1661        BC      NOTEQ,GO50          NOT COBOL WORD 'ON'                  08676021
 0009B4 45E0 7566      0551E        1662        BAL     RCS,GETNXT          YES IT IS 'ON'  GET NEXT I/P         08682021
 0009B8 45E0 81AC      06164        1663 GO50   BAL     RCS,RDUCOP         IS IT VALID DATA OPERAND              08688021
 0009BC 47F0 F228      00A18        1664        BC      UNCOND,GO70          NO                                  08694021
 0009C0 5810 B048      088F8        1665        L       RW1,ASTRNG           YES - CHANGE LAST VERB TO GODL      08700021
 0009C4 45E0 7FCE      05F86        1666        BAL     RCS,GOBACK          STORE ADDR OF 2ND ENTRY              08706021
 0009C8 0002                        1667        DC      XL2'2'              ADDR OF 2ND ENTRY FROM END           08712021
 0009CA 5820 BC74      09524        1668        L     RW2,ADNTRY                                                 08718021
 0009CE 9214 2001      00001        1669          MVI   DX1(RW2),GODL                                            08724021
 0009D2 181C                        1670        LR      RW1,RIN                                                  08730021
 0009D4 9580 BE64      09714        1671        CLI     MODE,MB128         IS IT NUMERIC DN                      08736021
 0009D8 4770 F228      00A18        1672        BC      NOTEQ,GO70          NO - ERROR                           08742021
 0009DC 45E0 8B64      06B1C        1673        BAL     RCS,ISINT2         IS IT INTEGER                         08748021
 0009E0 47F0 F228      00A18        1674        BC      UNCOND,GO70         NO, DN IS NOT AN INTEGER             08754021
 0009E4 9579 1000      00000        1675          CLI   DX0(RW1),MSPDN      IS IT SPECIAL NAME LIKE 'TALLY'      08760021
 0009E8 4780 F234      00A24        1676        BC      EQ,GO76             YES, OK                              08766021
 0009EC 9504 1009      00009        1677          CLI   DX9(RW1),MB4         TEST DECIMAL DIGIT LENGTH OF ITE    08772021
 0009F0 4720 F228      00A18        1678        BC      HI,GO70             IS IT LESS THAN OR EQUAL TO 4        08778021
 0009F4 9180 1008      00008        1679          TM    DX8(RW1),MB128       TEST BIT 64 IS 1                    08784021
 0009F8 4780 F234      00A24        1680        BC      ZERO,GO76           SCALE IS ZERO, OK                    08790021
 0009FC 1B22                        1681        SR      RW2,RW2                                                  08796021
 0009FE D200 BE59 1008 09709 00008  1682          MVC   SCLVLU+NX1(LX1),DX8(RW1) MOVE SCALE TO HW BOUNDARY       08802021
 000A04 947F BE59      09709        1683          NI    SCLVLU+NX1,M7F                                           08808021
 000A08 4321 0009      00009        1684          IC    RW2,DX9(RW1)                                             08814021
 000A0C 4A20 BE58      09708        1685        AH      RW2,SCLVLU          BIT 64-71 ABS. VALUE + BITS 72-7     08820021
 000A10 4920 A5A2      0829A        1686        CH      RW2,N4                                                   08826021
 000A14 47D0 F234      00A24        1687        BC      NOTHI,GO76          IT IS VALID                          08832021
 000A18 45E0 9BDA      07A32        1688 GO70   BAL     RCS,ERROR           GO DEPENDING ON MUST BE FOLLOWED     08838021
 000A1C 4110 A0CC      07DC4        1689        LA      RW1,ELST22          NUMERIC INTEGER DN LESS THAN OR      08844021
 000A20 47F0 720C      051C4        1690        BC      UNCOND,IDERR        ERROR EXIT                           08850021
1PH40     IKFCBL40                                                                                              PAGE   39
-  LOC  OBJECT CODE    ADDR1 ADDR2  STMT   SOURCE STATEMENT                                       ASM 0201 11.03 02/14/15
0                            00A24  1691 GO76   EQU     *                  DN IS OK                              08856021
 000A24 D203 BC6C B090 0951C 08940  1692          MVC   ATIB(LX4),ADFSBS    GENR SUBSCRIPTS IF ANY               08862021
 000A2A 9601 BF8D      0983D        1693        OI      NOTRAL,MSWON       TELL GENALL NO TRAILING BYTE-COUN     08868021
 000A2E 45E0 786E      05826        1694        BAL     RCS,GENALL          WRITE TABLE TO OUTPUT                08874021
 000A32 94FE BF8D      0983D        1695        NI      NOTRAL,MSWOFF                                            08880021
 000A36 D701 B094 B094 08944 08944  1696          XC    DSPSBS(LX2),DSPSBS                                       08886021
 000A3C 45E0 7734      056EC        1697        BAL     RCS,GENDAT         GENR GO-DEPENDING-1ST                 08892021
 000A40 4120 BE07      096B7        1698        LA      RW2,GOD1                                                 08898021
 000A44 45E0 7734      056EC        1699        BAL     RCS,GENDAT          GENR GO-DEPENDING-MIDDLE             08904021
 000A48 4120 BE0A      096BA        1700          LA    RW2,GOD1+NX3                                             08910021
 000A4C 45E0 7754      0570C        1701        BAL     RCS,COPYIN         COPY INPUT (OBJECT OF 'DEPENDING      08916021
 000A50 45E0 7566      0551E        1702        BAL     RCS,GETNXT          GET THE NEXT ENTITY                  08922021
 000A54 94FE BF6B      0981B        1703        NI      PSKPGO,MSWOFF      ELSE MUST GIVE FALL-THRU BRANCH       08928021
                                    1704 *                                    FOR GO-DEPENDING-ON                08934021
 000A58 45E0 7766      0571E        1705 GO82   BAL     RCS,GENSTR          GENERATE STRING AND EXIT             08940021
 000A5C 47F0 7000      04FB8        1706        BC      UNCOND,IDENT        EXIT FOR EOS                         08946021
 000A60 45E0 7566      0551E        1707 GO86   BAL     RCS,GETNXT          FIND COBOL WORD 'DEPENDING'          08952021
 000A64 47F0 F1BA      009AA        1708        BC      UNCOND,GO45         TEST NEXT GOTTEN IS IT COBOL WOR     08958021
 000A68 9101 BF7E      0982E        1709 GO90   TM      GOSW1,MSWON                                              08964021
 000A6C 4710 F296      00A86        1710        BC      ONES,GO95           ON, OPTION 2 'GO' STATEMENT          08970021
 000A70 9601 BF7E      0982E        1711        OI      GOSW1,MSWON         OFF, TURN IT ON                      08976021
 000A74 5810 B048      088F8        1712        L       RW1,ASTRNG                                               08982021
 000A78 5811 0000      00000        1713          L     RW1,DX0(RW1)         CHANGE 1ST VERB CODE GOD1 TO GOD    08988021
 000A7C 5811 0000      00000        1714          L     RW1,DX0(RW1)                                             08994021
 000A80 D202 1000 BEEE 00000 0979E  1715          MVC   DX0(LX3,RW1),GODM                                        09000021
 000A86 4140 BEEE      0979E        1716 GO95   LA      RW4,GODM                                                 09006021
 000A8A 45E0 8000      05FB8        1717        BAL     RCS,STOR45          STORE GODM IN STRING                 09012021
 000A8E 45E0 8E66      06E1E        1718        BAL     RCS,ISOKSC          IS PN IN ALLOWABLE SECTION           09018021
 000A92 45E0 8010      05FC8        1719        BAL     RCS,STPNIN         STORE PN IN STRING                    09024021
 000A96 45E0 7566      0551E        1720        BAL     RCS,GETNXT          GET THE NEXT ENTITY                  09030021
 000A9A 4810 BE0C      096BC        1721        LH      RW1,GOCTR          UPDATE COUNTER                        09036021
 000A9E 4A10 A59C      08294        1722        AH      RW1,N1                                                   09042021
 000AA2 4010 BE0C      096BC        1723        STH     RW1,GOCTR                                                09048021
 000AA6 47F0 F178      00968        1724        BC      UNCOND,GO40         TEST NEXT DATA FOR 'PN' OR 'DEPN     09054021
 000AAA 9101 BFB7      09867        1725 GO96   TM    SEARCHSW,MSWON                                             09060021
 000AAE 4780 F268      00A58        1726        BZ    GO82                  OFF. GENERATE STRING AND EXIT        09066021
 000AB2 9601 BFB5      09865        1727        OI    GOSW,MSWON            LAST WAS GO                          09072021
 000AB6 47F0 F268      00A58        1728        B     GO82                  GENERATE STRING AND EXIT             09078021
1PH40     IKFCBL40                                                                                              PAGE   40
-  LOC  OBJECT CODE    ADDR1 ADDR2  STMT   SOURCE STATEMENT                                       ASM 0201 11.03 02/14/15
0                                   1730 *=1    ALTER   VERB                                                     09090021
                                    1731 *******************************************************************     09096021
                                    1732 *                                                                       09102021
                                    1733 *                                                                       09108021
                                    1734 *                              A L T E R                                09114021
                                    1735 *                                                                       09120021
                                    1736 *                                                                       09126021
                                    1737 *** STRINGS PRODUCED                                                    09132021
                                    1738 *      SOURCE - ALTER PN1 TO PROCEED TO PN2, PN3 TO PROCEED TO PN4,     09138021
                                    1739 *               ... PNM TO PROCEED TO PNN.                              09144021
                                    1740 *      OUTPUT - MOVE-4 PN2 VN1                                          09150021
                                    1741 *               MOVE-4 PN4 VN3                                          09156021
                                    1742 *               .      .   .                                            09162021
                                    1743 *               MOVE-4 PNN VNM                                          09168021
                                    1744 *                                                                       09174021
                                    1745 *                                                                       09180021
                                    1746 *          MOVE-4 IS A  SPECIAL INTERNAL MOVE VERB                      09186021
                                    1747 *          VN1,VN3,VNM ARE VN'S ASSOCIATED IN THE VNTBL WITH PN1,PN     09192021
                                    1748 *           PNN,RESPECTIVELY. THEY ARE ENTERED IN THE TABLE EITHER      09198021
                                    1749 *           DURING ALTER PROCESSING OR WHEN THEY TURN UP AT POINT O     09204021
                                    1750 *           DEFINITION,WHICHEVER OCCURS FIRST.                          09210021
                                    1751 *          WHEN ONE OF THESE THEN TURNS UP PRECEDING A GO (SEE GO       09216021
                                    1752 *           ANALYZER), GO VN RATHER THAN GO PN IS GENERATED.            09222021
                                    1753 *                                                                       09228021
                                    1754 *                                                                       09234021
                                    1755 *** SUBROUTINES CALLED                                                  09240021
                                    1756 *      GETNXT,STOVRB,STOR45,STPNIN,ISOKSC,SRCHTB,PNSRTF,PUPVNC,ERRO     09246021
                                    1757 *                                                                       09252021
                                    1758 *                                                                       09258021
                                    1759 *** ERROR PROCESSING                                                    09264021
                                    1760 *      ASSUME MISSING PARTS OR WHOLE OF 'TO PROCEED TO'                 09270021
                                    1761 *      GIVE UP (LET IDENT WRITE MSG) WHEN ANY OPERAND NOT PN            09276021
                                    1762 *      WRITE MSG BUT GENERATE STRING WHEN PN IS IN ILLEGAL SECTION      09282021
                                    1763 *      SKIP PAIR OF WHICH 1ST PN DOES NOT REFERENCE A SIMPLE 'GO' (     09288021
                                    1764 *                TURNED ON BY PHASE 1)                                  09294021
                                    1765 *      SKIP PAIR OF WHICH 1ST PN  IS END-OF-RANGE OF A PERFORM (BIT     09300021
                                    1766 *        TURNED ON BY PHASE 1)                                          09306021
                                    1767 *                                                                       09312021
                                    1768 *                                                                       09318021
                                    1769 *** NOTES                                                               09324021
                                    1770 *      ALTSW1 PREVENTS GENERATION IF 1ST PN OF PAIR IS NOT A 'GO'       09330021
                                    1771 *      ALTSW2 PRVENTS PROLIFERATION OF MESSAGES ABOUT 'TO-PROCEED-T     09336021
                                    1772 *                                                                       09342021
                                    1773 *                                                                       09348021
                                    1774 *******************************************************************     09354021
-
-
                             00ABA  1776          USING *,RVRB                                                   09366021
                             00ABA  1777 ALTER    EQU   *                                                        09372021
 000ABA 45E0 8166      0611E        1778        BAL     RCS,STOVRB          STORE VERB ROUTINE                   09378021
 000ABE 94FE BF7C      0982C        1779        NI      ALTSW1,MSWOFF       TURN SWITCHES OFF                    09384021
1PH40     IKFCBL40                                                                                              PAGE   41
-  LOC  OBJECT CODE    ADDR1 ADDR2  STMT   SOURCE STATEMENT                                       ASM 0201 11.03 02/14/15
0000AC2 94FE BF7D      0982D        1780        NI      ALTSW2,MSWOFF                                            09390021
                                    1781 *                                                                       09396021
                                    1782 *      IS ENTITY 1ST PN OF PAIR                                         09402021
                                    1783 *                                                                       09408021
 000AC6 9520 C000      0988B        1784 ALT    CLI     GOTTEN,MPNU              IS IT PN 1,3,5,ETC.             09414021
 000ACA 4780 F028      00AE2        1785        BC      EQ,ALT2             YES                                  09420021
                                    1786 *                                                                       09426021
                                    1787 *          PN NOT FOUND - END OF ALTER STATEMENT                        09432021
                                    1788 *                                                                       09438021
 000ACE 45E0 8C32      06BEA        1789        BAL     RCS,ISEND          IS IT END                             09444021
 000AD2 47F0 F020      00ADA        1790          BC    UNCOND,*+NX8         NO, GIVE UP                         09450021
 000AD6 47F0 7000      04FB8        1791        BC      UNCOND,IDENT         YES - OK                            09456021
 000ADA 4100 A76C      08464        1792        LA      RA0,BCDPN            NO - MSG AND GIVE UP                09462021
 000ADE 47F0 7204      051BC        1793        BC      UNCOND,IDGVUP       DISCARD TILL ENDWORD                 09468021
                                    1794 *                                                                       09474021
                                    1795 *              1ST PN OF PAIR FOUND                                     09480021
                                    1796 *                                                                       09486021
                                    1797 *                                                                       09492021
 000AE2 9108 C002      00002        1798 ALT2     TM    DX2(RIN),MGOBIT     IS ALTERED PN THAT OF A GO PARAGR    09498021
 000AE6 4780 F17A      00C34        1799        BC      ZERO,ALT60           NO- ERROR                           09504021
 000AEA 9120 C002      00002        1800          TM    DX2(RIN),MPFMBT     YES, BUT IS IT END OF PERFORM        09510021
 000AEE 4710 F1A2      00C5C        1801        BC      ONES,ALT65             YES- ERROR,SKIP                   09516021
 000AF2 45E0 76EC      056A4        1802        BAL     RCS,GETALL         SAVE FOR COMPARISON WITH PN2          09522021
 000AF6 4120 BAF4      093A4        1803        LA      RW2,CURENT                                               09528021
 000AFA D201 BE90 C004 09740 00004  1804          MVC   SRCHNM(LX2),DX4(RIN)                                     09534021
 000B00 5810 B058      08908        1805        L       RW1,AVNTBL                                               09540021
 000B04 45E0 7DF8      05DB0        1806        BAL     RCS,SRCHTB         IS IT IN VNTBL                        09546021
 000B08 47F0 F056      00B10        1807          BC    UNCOND,*+NX8         NO                                  09552021
 000B0C 47F0 F06A      00B24        1808        BC      UNCOND,ALT5         YES                                  09558021
 000B10 45E0 7D16      05CCE        1809        BAL     RCS,PNSRTF          NO - PUT IT IN                       09564021
 000B14 414C 0004      00004        1810          LA    RW4,DX4(RIN)                                             09570021
 000B18 45E0 9B1E      07976        1811        BAL     RCS,PUPVNC         UPDATE VN COUNTER                     09576021
 000B1C 45E0 7D16      05CCE        1812        BAL     RCS,PNSRTF          UPDATE ADDR OF TABLE                 09582021
 000B20 4140 BEC8      09778        1813        LA      RW4,VNNUM                                                09588021
 000B24 D201 BEAE BEC8 0975E 09778  1814 ALT5     MVC   VNID(LX2),VNNUM MOVE IT TO ITS HEADER                    09594021
 000B2A D200 BEAD C007 0975D 00007  1815          MVC   VNPTY(LX1),PTYPN(RIN) MOVE IN THE PRIORITY NUM OF PN1    09600021
 000B30 91FF BE51      09701        1816        TM    SEGLM,NONSEG    IS PROGRAM SEGMENTED                       09606021
 000B34 4710 F094      00B4E        1817        BO    ALT10         NO-EXIT                                      09612021
 000B38 9532 BEAD      0975D        1818        CLI   VNPTY,INDEP      IS ALTERED PN IN INDEP SEGT               09618021
 000B3C 4740 F094      00B4E        1819        BL    ALT10            NO-OK                                     09624021
 000B40 D500 BEAD BF64 0975D 09814  1820          CLC   VNPTY(LX1),PTYCEL                                        09630021
 000B46 4780 F094      00B4E        1821        BE    ALT10                 PRIORITY EQUAL                       09636021
 000B4A 47F0 F1B2      00C6C        1822        B     ALT71            UNEQUAL INDEP PRIORITIES-ERROR            09642021
 000B4E 94FE BF73      09823        1823 ALT10  NI    GENRED,MSWOFF                                              09648021
 000B52 D201 BE76 C004 09726 00004  1824          MVC   TNUMER(LX2),PNIDEN(RIN)                             2962 09654021
 000B58 D200 BE75 C007 09725 00007  1825          MVC   TPRIOR(LX1),PTYPN(RIN)                              2962 09660021
 000B5E 45E0 7566      0551E        1826        BAL   RCS,GETNXT            GET NEXT INPUT DATA                  09666021
                                    1827 *                                                                       09672021
                                    1828 *                 SEEK 'TO-PROCEED-TO'                                  09678021
                                    1829 *                                                                       09684021
 000B62 D501 C000 A4E0 0988B 081D8  1830          CLC   GOTTEN(LX2),CBTO     IS COBOL WORD 'TO'                  09690021
 000B68 4780 F0C4      00B7E        1831        BC      EQ,ALT15            YES                                  09696021
 000B6C 9601 BF7D      0982D        1832        OI      ALTSW2,MSWON        SET SW 2 ON FOR ERROR MESSAGE        09702021
 000B70 D501 C000 A52C 0988B 08224  1833          CLC   GOTTEN(LX2),ERSYMB   IS IT ERROR                         09708021
 000B76 4780 F0C4      00B7E        1834          BC    EQ,ALT15            YES-DISCARD                          09714021
1PH40     IKFCBL40                                                                                              PAGE   42
-  LOC  OBJECT CODE    ADDR1 ADDR2  STMT   SOURCE STATEMENT                                       ASM 0201 11.03 02/14/15
0000B7A 47F0 F0C8      00B82        1835        BC      UNCOND,ALT20        NO - NOT ERROR                       09720021
 000B7E 45E0 7566      0551E        1836 ALT15  BAL     RCS,GETNXT          GET THE NEXT ENTITY                  09726021
 000B82 D501 C000 A404 0988B 080FC  1837 ALT20    CLC   GOTTEN(LX2),CBPRCD   IS COBOL WORD PROCEED               09732021
 000B88 4780 F0E0      00B9A        1838        BC      EQ,ALT25            YES                                  09738021
 000B8C D501 C000 A52C 0988B 08224  1839          CLC   GOTTEN(LX2),ERSYMB   IS IT ERROR                         09744021
 000B92 4780 F0E0      00B9A        1840          BC    EQ,ALT25            YES-DISCARD                          09750021
 000B96 47F0 F104      00BBE        1841        BC    UNCOND,ALT40           PROCESS PN S                        09756021
 000B9A 45E0 7566      0551E        1842 ALT25  BAL     RCS,GETNXT          GET THE NEXT ENTITY                  09762021
 000B9E D501 C000 A4E0 0988B 081D8  1843 ALT30    CLC   GOTTEN(LX2),CBTO     IS COBOL WORD 'TO'                  09768021
 000BA4 4780 F100      00BBA        1844        BC      EQ,ALT35            YES                                  09774021
 000BA8 9601 BF7D      0982D        1845        OI      ALTSW2,MSWON                                             09780021
 000BAC D501 C000 A52C 0988B 08224  1846          CLC   GOTTEN(LX2),ERSYMB   IS IT ERROR                         09786021
 000BB2 4780 F100      00BBA        1847          BC    EQ,ALT35            YES-DISCARD                          09792021
 000BB6 47F0 F104      00BBE        1848        BC      UNCOND,ALT40        NO                                   09798021
 000BBA 45E0 7566      0551E        1849 ALT35  BAL     RCS,GETNXT          GET NEXT ENTITY                      09804021
                                    1850 *                                                                       09810021
                                    1851 *              SHOULD MSG BE WRITTEN ABOUT MISSING COBOL WORDS          09816021
                                    1852 *                                                                       09822021
 000BBE 9101 BF7C      0982C        1853 ALT40  TM      ALTSW1,MSWON                                             09828021
 000BC2 4710 F124      00BDE        1854        BC      ONES,ALT45          ALTSW1 ON, MSG SAID 'SKIPPING'       09834021
 000BC6 9101 BF7D      0982D        1855        TM      ALTSW2,MSWON        OFF    REF. 'GO'                     09840021
 000BCA 4780 F124      00BDE        1856        BC      ZERO,ALT45          OFF, COBOL WORD ARE OK               09846021
 000BCE 4100 A75C      08454        1857        LA      RA0,BCDTPR                                               09852021
 000BD2 45E0 9BDA      07A32        1858        BAL     RCS,ERROR           TO OR/AND PROCCED MISSING            09858021
 000BD6 4110 A02A      07D22        1859        LA      RW1,ELST07                                               09864021
 000BDA 94FE BF7D      0982D        1860        NI      ALTSW2,MSWOFF       TURN OFF SWITCH 2                    09870021
                                    1861 *                                                                       09876021
                                    1862 *                IS NEXT ENTITY 2ND PN OF PAIR                          09882021
                                    1863 *                                                                       09888021
 000BDE 9520 C000      0988B        1864 ALT45  CLI     GOTTEN,MPNU         IS IT PN 4,6,8 ETC.                  09894021
 000BE2 4770 F186      00C40        1865        BC      NOTEQ,ALT62         NOT SECOND PN                        09900021
 000BE6 9101 BF7C      0982C        1866        TM      ALTSW1,MSWON                                             09906021
 000BEA 4780 F140      00BFA        1867        BC      ZERO,ALT50            OFF, GOOD PNS.                     09912021
 000BEE 94FE BF7C      0982C        1868        NI      ALTSW1,MSWOFF       C BIT 4 IS ZERO, PN IS NOT STORE     09918021
 000BF2 9601 BF73      09823        1869        OI      GENRED,MSWON                                             09924021
 000BF6 47F0 F172      00C2C        1870        BC      UNCOND,ALT55        GO DISCARD                           09930021
 000BFA D703 BAF7 C003 093A7 00003  1871 ALT50    XC    CURENT+NX3(LX4),DX3(RIN) (3 RIN HAS DECL BITS, 6 RIN HAS 09936021
 000C00 9105 BAF7      093A7        1872          TM    CURENT+NX3,MLABRP      WAS ONE LABEL OR RPT DECL,OTHE    09942021
 000C04 4780 F156      00C10        1873        BC      ZERO,ALT54          NO                                   09948021
 000C08 45E0 9BDA      07A32        1874 ALT52  BAL     RCS,ERROR          WARNING MESSAGE                       09954021
 000C0C 4110 A063      07D5B        1875        LA      RW1,ELST10                                               09960021
 000C10 45E0 8010      05FC8        1876 ALT54  BAL     RCS,STPNIN         STORE PN2 IN STRING                   09966021
 000C14 4140 BEAC      0975C        1877        LA      RW4,VNREF          STORE ITS VN FROM TABLE               09972021
 000C18 45E0 8000      05FB8        1878        BAL     RCS,STOR45          STORE VN IN STRING                   09978021
 000C1C 4140 BE74      09724        1879          LA    RW4,TRUREF        GENER DUMMY PNREF                 2962 09984021
 000C20 45E0 8000      05FB8        1880          BAL   RCS,STOR45        FOR P1 FOR XREF                   2962 09990021
 000C24 45E0 7766      0571E        1881        BAL   RCS,GENSTR            GENERATE VERB-STRING TABLE           09996021
 000C28 45E0 8166      0611E        1882        BAL     RCS,STOVRB          PUT VERB BACK IN STRING              10002021
 000C2C 45E0 7566      0551E        1883 ALT55  BAL     RCS,GETNXT          SEEK NEXT PAIR OF PN,S.              10008021
 000C30 47F0 F00C      00AC6        1884        BC      UNCOND,ALT          PROCESS NEXT PAIR OF PNS             10014021
                                    1885 *                                                                       10020021
                                    1886 *      ERROR - 1ST PN OF PAIR IS NOT THAT OF A 'GO' STATEMENT           10026021
                                    1887 *                                                                       10032021
 000C34 45E0 9BDA      07A32        1888 ALT60  BAL     RCS,ERROR           ALTERED PN NOT OF GO PARAGRAPH       10038021
 000C38 4110 A0C3      07DBB        1889        LA      RW1,ELST1F                                               10044021
1PH40     IKFCBL40                                                                                              PAGE   43
-  LOC  OBJECT CODE    ADDR1 ADDR2  STMT   SOURCE STATEMENT                                       ASM 0201 11.03 02/14/15
0000C3C 47F0 F1AA      00C64        1890        BC      UNCOND,ALT70       DISCARD REST OF THIS PAIR             10050021
                                    1891 *                                                                       10056021
                                    1892 *      ERROR - 2ND OPERAND OF PAIR IS NOT A PN                          10062021
                                    1893 *                                                                       10068021
 000C40 4100 A76C      08464        1894 ALT62  LA      RA0,BCDPN                                                10074021
 000C44 45E0 9BDA      07A32        1895        BAL     RCS,ERROR           NOT A PN                             10080021
 000C48 4110 A144      07E3C        1896        LA      RW1,ELST32                                               10086021
 000C4C 94FE BF7C      0982C        1897        NI      ALTSW1,MSWOFF                                            10092021
 000C50 45E0 8C32      06BEA        1898        BAL     RCS,ISEND           IS THIS AN END OF 1 PAIR             10098021
 000C54 47F0 F172      00C2C        1899        BC      UNCOND,ALT55        YES                                  10104021
 000C58 47F0 720C      051C4        1900        BC      UNCOND,IDERR        NO - ERROR                           10110021
                                    1901 *                                                                       10116021
                                    1902 *              ERROR - ALTERED PN IS END OF PERFORM ALSO                10122021
                                    1903 *                                                                       10128021
 000C5C 45E0 9BDA      07A32        1904 ALT65  BAL     RCS,ERROR           WRITE ERROR MESSAGE                  10134021
 000C60 4110 A0C9      07DC1        1905        LA      RW1,ELST21                                               10140021
 000C64 9601 BF7C      0982C        1906 ALT70  OI      ALTSW1,MSWON       SWITCH SAYS DISCARD REST OF THIS      10146021
 000C68 47F0 F094      00B4E        1907        BC      UNCOND,ALT10        SKIP PAIR - GET NEXT ENTITY          10152021
 000C6C 45E0 9BDA      07A32        1908 ALT71  BAL   RCS,ERROR             PRIORITIES NOT EQUAL - ERROR         10158021
 000C70 4110 A291      07F89        1909        LA    RW1,ELST62                                                 10164021
 000C74 47F0 F1AA      00C64        1910        B     ALT70                 DISCARD REST OF PAIR                 10170021
1PH40     IKFCBL40                                                                                              PAGE   44
-  LOC  OBJECT CODE    ADDR1 ADDR2  STMT   SOURCE STATEMENT                                       ASM 0201 11.03 02/14/15
0000C78                             1912 IKF40B CSECT                                                            10182021
                                    1913 *=1    PRFORM  VERB                                                     10188021
                                    1914 *******************************************************************     10194021
                                    1915 *                                                                       10200021
                                    1916 *                                                                       10206021
                                    1917 *                            P R F O R M                                10212021
                                    1918 *                                                                       10218021
                                    1919 *                                                                       10224021
                                    1920 *      THE PN USED AS END-OF-RANGE (THE ONE AFTER 'THRU',OR THE ONL     10230021
                                    1921 *       ONE IF THERE IS NO 'THRU')  WAS   GIVEN A PERFORM-BIT IN IT     10236021
                                    1922 *       ATTRIBUTES BY PHASE 1. WHEN PHASE 4 FIRST COMES UPON IT,        10242021
                                    1923 *       WHETHER AS A LHN OR HERE IN THE PERFORM, IT PUTS THIS PN-ID     10248021
                                    1924 *       AND A NEW VN-NUMBER IN THE VNTBL. THIS VN-NUMBER IS THE ONE     10254021
                                    1925 *       REFERRED TO BELOW AS 'RETURN-VN'. IT IS THE SAME ONE ENTERE     10260021
                                    1926 *       IN THE PFMTBL ALONG WITH THE PN-ID OF THE 1ST PN AFTER THE      10266021
                                    1927 *       END-OF-RANGE OF THE PERFORM (THIS PROCESSING IS DONE BY IDE     10272021
                                    1928 *       WHICH PRODUCES THE CODING TO COME BACK AFTER A PERFORM, NAM     10278021
                                    1929 *       'GO VN').                                                       10284021
                                    1930 *                                                                       10290021
                                    1931 *                                                                       10296021
                                    1932 *** STRINGS PRODUCED (OPTIONS 1-3)                                      10302021
                                    1933 *                                                                       10308021
                                    1934 *      OPTION 1. PERFORM PN1 (THRU PN4).                                10314021
                                    1935 *                           MOVE RETURN-VN PFMSAV-N                     10320021
                                    1936 *                           MOVE GN-N RETURN-VN                         10326021
                                    1937 *                           GO PN1                                      10332021
                                    1938 *                      GN-N MOVE PFMSAV-N RETURN-VN                     10338021
                                    1939 *                                                                       10344021
                                    1940 *      OPTION 2. PERFORM PN1 (THRU PN4) X TIMES.                        10350021
                                    1941 *                           MOVE RETURN-VN PFMSAV-N                     10356021
                                    1942 *                           MOVE GN-N RETURN-VN                         10362021
                                    1943 *                           GO-TIMES PN1 X   (SPECIAL GO-VERB)          10368021
                                    1944 *                      GN-N MOVE PFMSAV-N RETURN-VN                     10374021
                                    1945 *                                                                       10380021
                                    1946 *      OPTION 3. PERFORM PN1 (THRU PN4) UNTIL A = B .                   10386021
                                    1947 *                           MOVE RETURN-VN PFMSAV-N                     10392021
                                    1948 *                           MOVE GN-N RETURN-VN                         10398021
                                    1949 *                      GN-N = A B GN-TRUE                               10404021
                                    1950 *                           GO PN1                                      10410021
                                    1951 *                   GN-TRUE MOVE PFMSAV-N RETURN-VN                     10416021
                                    1952 *                                                                       10422021
                                    1953 *                                                                       10428021
                                    1954 *      STRINGS FOR OPTION 4 WITH'VARYING' ARE DETAILED ABOVE THE CO     10434021
                                    1955 *        AT LOC VARY.                                                   10440021
                                    1956 *                                                                       10446021
                                    1957 *                                                                       10452021
                                    1958 *** SUBROUTINES CALLED                                                  10458021
                                    1959 *      GETNXT,GETALL,SAVNXT,STOR45,STLOOP,GENSTR,GENLAB,GENLST,GENG     10464021
                                    1960 *      GENMOV,GNARTH,PUPIR,PUPVNC,PUPLGN,INSERT,PNSRTF,PZSTRT,SRCHT     10470021
                                    1961 *      ISOKSC,ISEND,RDUCOP,OKPFOP,PMKTAL,DECMAX,GETPVN,ERROR            10476021
                                    1962 *                                                                       10482021
                                    1963 *                                                                       10488021
                                    1964 *** ERROR PROCESSING                                                    10494021
                                    1965 *      IF PN DOESNT FOLLOW VERB SKIP WHOLE STATEMENT                    10500021
                                    1966 *      IF PN DOESNT FOLLOW 'THRU' IGNORE 'THRU', CONSIDER STATEMENT     10506021
1PH40     IKFCBL40                                                                                              PAGE   45
-  LOC  OBJECT CODE    ADDR1 ADDR2  STMT   SOURCE STATEMENT                                       ASM 0201 11.03 02/14/15
0                                   1967 *       ENDED                                                           10512021
                                    1968 *      IF PN AFTER 'THRU' IS DEFINED AS PRECEDING PN BEFORE 'THRU',     10518021
                                    1969 *       GIVE WARNING BUT PROCESS NORMALLY                               10524021
                                    1970 *      IF THE 'THRU' PN (OR SINGLE PN) IS ALSO ALTERED PROCESS NORM     10530021
                                    1971 *       WITHOUT MSG. ALTER ANALYZER WILL ISSUE IT AND DELETE THE AL     10536021
                                    1972 *      IF EITHER PN IS IN ILLEGAL SECTION GIVE MSG BUT PROCESS NORM     10542021
                                    1973 *      ASSUME OPTION 1 IF 'VARYING', 'UNTIL', OR OPERAND DOES NOT       10548021
                                    1974 *       FOLLOW LAST PN (LET IDENT WRITE MSG IF IT IS GARBAGE)           10554021
                                    1975 *      ASSUME OPTION 2 IF OPERAND FOLLOWS. IF OPERAND ILLEGAL, SUBS     10560021
                                    1976 *       TUTE 'TALLY'                                                    10566021
                                    1977 *      ASSUME 'TIMES' IF MISSING IN OPTION 2                            10572021
                                    1978 *      ERRORS BETWEEN'UNTIL' AND END-OF-STATEMENT OR 'AFTER' ARE        10578021
                                    1979 *       HANDLED BY THE IF ANALYZER                                      10584021
                                    1980 *      WITHIN OPTION 4, ASSUME 'FROM', 'BY', 'UNTIL' IF MISSING WHE     10590021
                                    1981 *                        EXPECTED                                       10596021
                                    1982 *                       SUBSTITUTE 'TALLY' FOR ILLEGAL OPERANDS         10602021
                                    1983 *                       WARN BUT PROCESS VARIATIONS AFTER 3RD           10608021
                                    1984 *                                                                       10614021
                                    1985 *                                                                       10620021
                                    1986 *** NOTES                                                               10626021
                                    1987 *      PFMSAV-N IS A UNIQUE SAVE-AREA RESERVED BY UPPING THE PSVCTR     10632021
                                    1988 *        COMMON. GN'S ARE  PRODUCED AS NEEDED BY UPPING THE GNCTR.      10638021
                                    1989 *                                                                       10644021
                                    1990 *      FOR ALL OPTIONS, IDENT WILL PRODUCE JUST BEFORE PN2 (OR BEFO     10650021
                                    1991 *        PN5 IF THERE WAS 'THRU PN4')                                   10656021
                                    1992 *                                                                       10662021
                                    1993 *                           GO RETURN-VN                                10668021
                                    1994 *                           EQU RETURN-VN PN2 (OR PN5)                  10674021
                                    1995 *                                                                       10680021
                                    1996 *                                                                       10686021
                                    1997 *                                                                       10692021
                                    1998 *      CONDITIONS FOLLOWING 'UNTIL' ARE EVALUATED BY IF. BEFORE CAL     10698021
                                    1999 *        IF, PRFORM EFFECTIVELY NEGATES THE ENTIRE CONDITION, BECAU     10704021
                                    2000 *        HERE ONE FALLS THRU WHEN THE CONDITION FAILS, WHEREAS IN A     10710021
                                    2001 *        ORDINARY IF-STATEMENT ONE FALLS THRU IF THE CONDITION SUCC     10716021
                                    2002 *                                                                       10722021
                                    2003 *      PERFSW ON DIRECTS IF TO RETURN TO PRFORM RATHER THAN IDENT A     10728021
                                    2004 *        TO ACCEPT 'AFTER' AS A TERMINATOR.                             10734021
                                    2005 *                                                                       10740021
                                    2006 *      VARYSW FOR OPTIONS 1-3 IS USED TO SIGNIFY WHICH OPTION WAS       10746021
                                    2007 *        FOUND IN ORDER TO GENERATE WHATEVER IS SPECIAL TO ANY OPTI     10752021
                                    2008 *        (E.G., THE GO-TIMES VERB, OR THE RETURN-GN PRECEDING A         10758021
                                    2009 *        CONDITION.)                                                    10764021
                                    2010 *                                                                       10770021
                                    2011 *      SORTSW  ON SAYS CALL WAS FROM SORT. NOTHING IS GENERATED AND     10776021
                                    2012 *        RETURN IS TO SORT ANALYZER                                     10782021
                                    2013 *                                                                       10788021
                                    2014 *                                                                       10794021
                                    2015 *******************************************************************     10800021
-
0
1PH40     IKFCBL40                                                                                              PAGE   46
-  LOC  OBJECT CODE    ADDR1 ADDR2  STMT   SOURCE STATEMENT                                       ASM 0201 11.03 02/14/15
0                                   2018 *                                                                       10818021
                                    2019 *                                 PROCESS PN1 AND PN2                   10824021
                                    2020 *                                                                       10830021
 000C78                             2021        DS      0H                                                       10836021
                             00C78  2022        USING   *,RVRB                                                   10842021
                             012C2  2023        USING   CONDGN,RW2                                               10848021
                             00C78  2024 PRFORM EQU     *                                                        10854021
 000C78 94FE BFC9      09879        2025        NI    SPSEGT,MSWOFF                                              10860021
 000C7C D701 BF9E BF9E 0984E 0984E  2026          XC    VARYSW(LX2),VARYSW    INITIALIZE OPTION SWITCH           10866021
 000C82 4100 A76C      08464        2027        LA      RA0,BCDPN          PARAM FOR POSSIBLE MSG 32             10872021
 000C86 9520 C000      0988B        2028        CLI     GOTTEN,MPNU        IS INPUT A PN                         10878021
 000C8A 4780 F020      00C98        2029        BC      EQ,PERF2            YES                                  10884021
 000C8E D700 BFA0 BFA0 09850 09850  2030          XC    SORTSW(LX1),SORTSW NO - GIVE UP                          10890021
 000C94 47F0 7204      051BC        2031        BC      UNCOND,IDGVUP       GIVE UP PROCESSING                   10896021
                             00C98  2032 PERF2  EQU     *                                                        10902021
 000C98 9101 BFA0      09850        2033          TM    SORTSW,MSWON        IS FROM SORT                   50782 10908021
 000C9C 4780 F03C      00CB4        2034          BZ    PERF4               NO                             50782 10914021
 000CA0 9140 C002      00002        2035          TM    DX2(RIN),MSNBIT     SECTION NAME                   50782 10920021
 000CA4 4710 F03C      00CB4        2036          BO    PERF4               YES OK                         50782 10926021
 000CA8 4100 A7F4      084EC        2037          LA    RA0,BCDSEC          MSG PARM                       50782 10932021
 000CAC 45E0 9BDA      07A32        2038          BAL   RCS,ERROR           WRITE E MSG                    50782 10938021
 000CB0 4110 A2E2      07FDA        2039          LA    RW1,ELST83                                         50782 10944021
 000CB4                             2040 PERF4    DS    0H                                                 50782 10950021
 000CB4 D201 BEBA C004 0976A 00004  2041          MVC   SNUMER(LX2),PNIDEN(RIN) MOVE PN NUM INTO SAVEPN          10956021
 000CBA D200 BEB9 C007 09769 00007  2042          MVC   SPRIOR(LX1),PTYPN(RIN) MOVE PRIORITY NUM INTO SAVEPN     10962021
 000CC0 D209 BD4C C000 095FC 00000  2043          MVC   THRUPN(LX10),PROCED(RIN) SAVE PN TO SEARCH TABLES        10968021
 000CC6 45E0 7566      0551E        2044        BAL     RCS,GETNXT          GET NEXT ENTITY                      10974021
 000CCA D501 C000 A4D8 0988B 081D0  2045          CLC   GOTTEN(LX2),CBTHRU    DOES 'THRU' FOLLOW                 10980021
 000CD0 4770 F0B0      00D28        2046        BC    NOTEQ,PERF12          NO                                   10986021
 000CD4 9601 BFA1      09851        2047          OI    THRUSW,MSWON     INDICATE THAT THRU FOLLOWS         2962 10992021
 000CD8 45E0 7566      0551E        2048        BAL     RCS,GETNXT           YES - DOES ANOTHER PN               10998021
 000CDC 9520 C000      0988B        2049        CLI     GOTTEN,MPNU                                              11004021
 000CE0 4770 F098      00D10        2050        BC      NOTEQ,PERF8          NO- ERROR,DISCARD THRU              11010021
 000CE4 D201 BE76 C004 09726 00004  2051           MVC   TNUMER(LX2),PNIDEN(RIN)                            2962 11016021
 000CEA D200 BE75 C007 09725 00007  2052          MVC   TPRIOR(LX1),PTYPN(RIN)    SAVE PRIORITY OF PN2      2962 11022021
 000CF0 D501 C004 BEBA 00004 0976A  2053          CLC   PNIDEN(LX2,RIN),SNUMER IS PN AFTER 'THRU' GT PN1         11028021
 000CF6 47B0 F08A      00D02        2054        BC    NOTLO,PERF6            NO - OK                             11034021
 000CFA 45E0 9BDA      07A32        2055        BAL   RCS,ERROR              YES - WARNING                       11040021
 000CFE 4110 A0D5      07DCD        2056        LA      RW1,ELST24                                               11046021
 000D02 D209 BD4C C000 095FC 00000  2057 PERF6    MVC   THRUPN(LX10),PROCED(RIN) USE 2ND PN TO SEARCH TABLES     11052021
 000D08 45E0 7566      0551E        2058        BAL     RCS,GETNXT         DISCARD PN2                           11058021
 000D0C 47F0 F0B0      00D28        2059        BC    UNCOND,PERF12         PROCESS VN                           11064021
 000D10 4100 A4D8      081D0        2060 PERF8  LA      RA0,CBTHRU                                               11070021
 000D14 45E0 9BDA      07A32        2061        BAL     RCS,ERROR          MSG. NO PN AFTER 'THRU'               11076021
 000D18 4110 A0DE      07DD6        2062        LA      RW1,ELST25                                               11082021
 000D1C 9401 BFA1      09851        2063          NI    THRUSW,MSWON        RESET THRU SW                  12345 11088021
 000D20 4100 A76C      08464        2064          LA    RA0,BCDPN           PARAM FOR MSG 50               12345 11094021
 000D24 47F0 7204      051BC        2065          B     IDGVUP              DISCARD STATEMENT              12345 11100021
                                    2066 *                                                                       11106021
                                    2067 *                                 PN'S PROCESSED.  PUT OUT              11112021
                                    2068 *              MOVE VN PFMSAV                                           11118021
                                    2069 *                                                                       11124021
                             00D28  2070 PERF12 EQU     *                                                        11130021
 000D28 45E0 7E48      05E00        2071        BAL     RCS,GETPVN          GET VN                               11136021
 000D2C D201 BEBE BEC8 0976E 09778  2072          MVC   SVNID(LX2),VNNUM SAVE VNNUM                              11142021
1PH40     IKFCBL40                                                                                              PAGE   47
-  LOC  OBJECT CODE    ADDR1 ADDR2  STMT   SOURCE STATEMENT                                       ASM 0201 11.03 02/14/15
0000D32 D200 BEBD BD53 0976D 09603  2073          MVC   SVNPTY(LX1),THRPTY AND PTY OF THRUPN                     11148021
 000D38 5810 A328      08020        2074        L       RW1,COSADR         GET A NEW PFMSAV NUMBER               11154021
 000D3C 4820 1214      00214        2075        LH    RW2,PSVCTR                                                 11160021
 000D40 4122 0001      00001        2076          LA    RW2,DX1(RW2)                                             11166021
 000D44 4020 1214      00214        2077        STH   RW2,PSVCTR                                                 11172021
 000D48 4020 BECE      0977E        2078          STH   RW2,PFMSAV+NX2                                           11178021
 000D4C 45E0 8068      06020        2079        BAL     RCS,STLOOP         STORE MOVE-VN-PFMSAV                  11184021
 000D50 0003                        2080        DC    XL2'3'                STORE  3 ELEMENTS                    11190021
 000D52 4140 A56D      08265        2081        LA      RW4,MOVEVN                                               11196021
 000D56 4140 BEBC      0976C        2082        LA      RW4,SAVEVN                                               11202021
 000D5A 4140 BECC      0977C        2083        LA      RW4,PFMSAV                                               11208021
                                    2084 *                     DETERMINE WHICH OPTION                            11214021
                                    2085 *                                                                       11220021
 000D5E 45E0 8C32      06BEA        2086 PERFLR BAL   RCS,ISEND     IS THIS END OF PERFORM (OPT 1)               11226021
 000D62 47F0 F0F2      00D6A        2087          BC    UNCOND,*+NX8         NO                                  11232021
 000D66 47F0 F122      00D9A        2088        BC      UNCOND,PERF24        YES                                 11238021
 000D6A D501 C000 A4E8 0988B 081E0  2089          CLC   GOTTEN(LX2),CBUNTL  IS IT UNTIL (OPTION 3)               11244021
 000D70 4780 F11E      00D96        2090        BC      EQ,PERF22            YES                                 11250021
 000D74 D501 C000 A4DC 0988B 081D4  2091          CLC   GOTTEN(LX2),CBVARY  IS IT VARYING (OPTION 4)             11256021
 000D7A 4780 F264      00EDC        2092        BC      EQ,VARY              YES                                 11262021
 000D7E 45E0 81AC      06164        2093        BAL     RCS,RDUCOP         IS IT OPERAND                         11268021
 000D82 47F0 F122      00D9A        2094        BC      UNCOND,PERF24         NO-ASSUME OPTION 1                 11274021
 000D86 9601 BFA2      09852        2095        OI      INTGSW,MSWON       TELL OKPFOP MUST FIND INTEGER         11280021
 000D8A 45E0 8B94      06B4C        2096        BAL     RCS,OKPFOP           YES - OPTION 2. SEE THAT N IS O     11286021
                                    2097 *                                                                       11292021
                                    2098 *                                 PROCESS OPTIONS 1 - 3                 11298021
                                    2099 *                                                                       11304021
 000D8E 9202 BF9E      0984E        2100          MVI   VARYSW,XX02         SET SW = 2 FOR OPTION 2              11310021
 000D92 47F0 F122      00D9A        2101        BC      UNCOND,PERF24       GET NEW GN FOR OPTION 2              11316021
 000D96 9203 BF9E      0984E        2102 PERF22   MVI   VARYSW,XX03         SET SW = 3 FOR OPTION 3              11322021
 000D9A 45E0 9A72      078CA        2103 PERF24 BAL     RCS,PUPLGN         GET A NEW GN NUMBER                   11328021
 000D9E D201 BE02 BE1C 096B2 096CC  2104          MVC   GNREF+NX1(LX2),NXTLGN                                    11334021
 000DA4 D203 BE24 BEBC 096D4 0976C  2105          MVC   TEMP(LX4),SAVEVN     VN NOW GIVEN PTY OF PTYCEL          11340021
 000DAA D200 BE25 BF64 096D5 09814  2106          MVC   TEMP+NX1(LX1),PTYCEL                                     11346021
 000DB0 45E0 8068      06020        2107        BAL     RCS,STLOOP        STORE MOVE-GN-VN (RETURN FROM PERF     11352021
 000DB4 0003                        2108        DC    XL2'3'                STORE  3 ELEMENTS                    11358021
 000DB6 4140 A56D      08265        2109        LA      RW4,MOVEVN                                               11364021
 000DBA 4140 BE01      096B1        2110        LA      RW4,GNREF                                                11370021
 000DBE 4140 BE24      096D4        2111        LA    RW4,TEMP                                                   11376021
 000DC2 9502 BF9E      0984E        2112          CLI   VARYSW,XX02         WHICH OPTION                         11382021
 000DC6 4740 F168      00DE0        2113        BC      LO,PERF30            OPTION 1                            11388021
 000DCA 4780 F170      00DE8        2114        BC      EQ,PERF35            OPTION 2                            11394021
 000DCE D201 BDFF BE1C 096AF 096CC  2115          MVC   GNDEF+NX1(LX2),NXTLGN  OPTION 3                          11400021
 000DD4 45E0 7766      0571E        2116        BAL     RCS,GENSTR         CLEAR STRING (SORT NEVER USES)        11406021
 000DD8 45E0 7952      0590A        2117        BAL     RCS,GENLAB       GENR RETURN-VN BEFORE CONDITION         11412021
 000DDC 45E0 F1CE      00E46        2118        BAL     RCS,UNTIL               GO GENR STRINGS FOR CONDITIO     11418021
                                    2119 *BEFORE ISSUEING A GO PN1 WE MUST CHECK PTY OF PN1                      11424021
                                    2120 *COMPARING IT TO CURRENT PTY TO DETERMINE CORECT GO VERB                11430021
                                    2121 *AND TO PUT OUT INITIALIZATION VERB WHEN NECESSARY                      11436021
 000DE0 45E0 F230      00EA8        2122 PERF30 BAL RCS,PFMGOPN1            CHECK PRIORITY OF PN1                11442021
 000DE4 47F0 F182      00DFA        2123        BC      UNCOND,PERF40       CHECK SWITCH OPTION                  11448021
 000DE8 45E0 8068      06020        2124 PERF35 BAL     RCS,STLOOP         GENR  GOTIMES-N-PN1 FOR OPTION 2      11454021
 000DEC 0003                        2125        DC    XL2'3'                STORE  3 ELEMENTS                    11460021
 000DEE 4140 A570      08268        2126        LA      RW4,GOTIME                                               11466021
 000DF2 4140 BEB8      09768        2127        LA      RW4,SAVEPN                                               11472021
1PH40     IKFCBL40                                                                                              PAGE   48
-  LOC  OBJECT CODE    ADDR1 ADDR2  STMT   SOURCE STATEMENT                                       ASM 0201 11.03 02/14/15
0000DF6 414C 0000      00000        2128          LA    RW4,DX0(RIN)                                             11478021
 000DFA 9502 BF9E      0984E        2129 PERF40   CLI   VARYSW,XX02         WHICH OPTION                         11484021
 000DFE 4720 F1C2      00E3A        2130        BC      HI,PERF45            3                                   11490021
 000E02 4740 F1B0      00E28        2131        BC      LO,PERF43            1                                   11496021
 000E06 45E0 7566      0551E        2132        BAL     RCS,GETNXT           2 -- DOES 'TIMES' FOLLOW            11502021
 000E0A D501 C000 A4DA 0988B 081D2  2133          CLC   GOTTEN(LX2),CBTIME                                       11508021
 000E10 4780 F1AC      00E24        2134        BC      EQ,PERF42           TIMES - DISCARD                      11514021
 000E14 4100 A4DA      081D2        2135        LA      RA0,CBTIME         NO - ERROR, ASSUME IT                 11520021
 000E18 45E0 9BDA      07A32        2136        BAL     RCS,ERROR           WARNING MESSAGE                      11526021
 000E1C 4110 A02A      07D22        2137        LA      RW1,ELST07                                               11532021
 000E20 47F0 F1B0      00E28        2138        BC      UNCOND,PERF43       OPTION 1 OR 2                        11538021
 000E24 45E0 7566      0551E        2139 PERF42 BAL     RCS,GETNXT         DISCARD 'TIMES                        11544021
 000E28 D201 BDFF BE02 096AF 096B2  2140 PERF43   MVC   GNDEF+NX1(LX2),GNREF+NX1 FOR OPTIONS 1 AND 2             11550021
 000E2E 4140 BDFE      096AE        2141        LA      RW4,GNDEF          STORE RETURN-GN AS LGN                11556021
 000E32 45E0 8000      05FB8        2142        BAL     RCS,STOR45          STORE ENTITY IN STRING               11562021
 000E36 47F0 F1EA      00E62        2143        BC      UNCOND,ENDPFM       END OF PERFORM, PUT OUT              11568021
 000E3A 45E0 7766      0571E        2144 PERF45 BAL     RCS,GENSTR           3- GENR STRINGS                     11574021
 000E3E 45E0 7964      0591C        2145        BAL     RCS,GENLST            GENR PSHTBL LABELS FROM IF         11580021
 000E42 47F0 F1EA      00E62        2146        BC      UNCOND,ENDPFM       END OF PERFORM, PUT OUT              11586021
                                    2147 *                                                                       11592021
                                    2148 *                                                                       11598021
                                    2149 *                          'UNTIL' FOUND                                11604021
                                    2150 *                                                                       11610021
                                    2151 *                   GO TO IF TO EVALUATE CONDITION                      11616021
                                    2152 *                                                                       11622021
                                    2153 *                                                                       11628021
                             00E46  2154 UNTIL  EQU     *                                                        11634021
 000E46 90E6 B414      08CC4        2155        STM     RCS,RW6,SVUNTL     SAVE REGISTERS (IF USES THEM)         11640021
 000E4A 9601 BFA3      09853        2156        OI      PERFSW,MSWON       TELL 'IF' TO ACCEPT 'AFTER' AND       11646021
                                    2157 *                                   RETURN TO UNTIL2                    11652021
 000E4E 45E0 7566      0551E        2158        BAL     RCS,GETNXT         DISCARD 'UNTIL'                       11658021
 000E52 58F0 A308      08000        2159        L       RVRB,AIF           GO TO IF TO PRODUCE STRINGS FOR       11664021
 000E56 07FF                        2160        BCR     UNCOND,RVRB          CONDITION                           11670021
 000E58 94FE BFA3      09853        2161 UNTIL2 NI      PERFSW,MSWOFF                                            11676021
 000E5C 98E6 B414      08CC4        2162        LM      RCS,RW6,SVUNTL                                           11682021
 000E60 07FE                        2163        BCR     UNCOND,RCS          RETURN                               11688021
                                    2164 *                                                                       11694021
                                    2165 *                                                                       11700021
                                    2166 *              END OF ALL PERFORMS. PUT OUT                             11706021
                                    2167 *                                                                       11712021
                                    2168 *              MOVE-PFMSAV-VN  (FROM VNTBL)                             11718021
                                    2169 *                                                                       11724021
                                    2170 *                                                                       11730021
                                    2171 *      NOTE THAT FOR OPTIONS 3 AND 4, WHICH CALL IF, STRINGS HAVE B     11736021
                                    2172 *       GENERATED. FOR OPTIONS 1 AND 2 THEY ARE MERELY STORED. WHEN     11742021
                                    2173 *       CALL TO PERFORM IS FROM SORT, THEY ARE LEFT IN STRING TABLE     11748021
                                    2174 *       SORT ANALYZER TO HANDLE.                                        11754021
                             00E62  2175 ENDPFM EQU     *                                                        11760021
 000E62 45E0 8068      06020        2176        BAL     RCS,STLOOP         STORE MOVE-PFMSAV-VN                  11766021
 000E66 0003                        2177        DC    XL2'3'                STORE  3 ELEMENTS                    11772021
 000E68 4140 A56D      08265        2178        LA      RW4,MOVEVN                                               11778021
 000E6C 4140 BECC      0977C        2179        LA      RW4,PFMSAV                                               11784021
 000E70 4140 BEBC      0976C        2180        LA      RW4,SAVEVN                                               11790021
 000E74 9101 BFA1      09851        2181          TM    THRUSW,MSWON      IS IT OPTION 'THRU'               2962 11796021
 000E78 4780 F210      00E88        2182          BC    ZERO,ENDPFR       NO - GET OUT                      2962 11802021
1PH40     IKFCBL40                                                                                              PAGE   49
-  LOC  OBJECT CODE    ADDR1 ADDR2  STMT   SOURCE STATEMENT                                       ASM 0201 11.03 02/14/15
0000E7C 4140 BE74      09724        2183          LA    RW4,TRUREF        YES-GENERATE DUMMY PNREF          2962 11808021
 000E80 45E0 8000      05FB8        2184           BAL   RCS,STOR45       FOR THRU FOR XREF                 2962 11814021
 000E84 94FE BFA1      09851        2185          NI    THRUSW,MSWOFF                                       2962 11820021
 000E88 94FE BFA3      09853        2186 ENDPFR   NI    PERFSW,MSWOFF     OFF PERFSW TESTED IN IF           2962 11826021
 000E8C 94FE BFA2      09852        2187        NI    INTGSW,MSWOFF                                              11832021
 000E90 9101 BFA0      09850        2188        TM      SORTSW,MSWON      WAS PERFORM CALLED BY SORT             11838021
 000E94 4710 F228      00EA0        2189        BC      ONES,ENDPFS         YES                                  11844021
 000E98 45E0 7766      0571E        2190        BAL     RCS,GENSTR         NO - GENR STRINGS AND EXIT            11850021
 000E9C 47F0 7000      04FB8        2191        BC      UNCOND,IDENT        EXIT                                 11856021
                             02A88  2192        USING   SORT,RVRB                                                11862021
                             00EA0  2193 ENDPFS EQU     *                                                        11868021
 000EA0 58F0 A3C4      080BC        2194        L       RVRB,ASORT           YES - RETURN TO SORT ANALYZER       11874021
 000EA4 47F0 F210      02C98        2195          BC    UNCOND,SORBAK       RETURN TO SORT                       11880021
                             00C78  2196        USING   PRFORM,RVRB                                              11886021
                                    2197 *                                                                       11892021
                                    2198 *                                                                       11898021
                                    2199 *      PFMGOPN1                                                         11904021
                                    2200 *    CHECKS PRIORITY OF SAVEPN  (PN1)                                   11910021
                                    2201 *    ISSUES GO TO PN1  ACCORDING TO ITS                                 11916021
                                    2202 *   PRIORITY                                                            11922021
                                    2203 *   BAL   RCS,PFMGOPN1                                                  11928021
                                    2204 *   (RETURN)                                                            11934021
                                    2205 *                                                                       11940021
                                    2206 *                                                                       11946021
                             00EA8  2207 PFMGOPN1 EQU *                                                          11952021
 000EA8 50E0 B340      08BF0        2208        ST    RCS,PFMGOSV                                                11958021
 000EAC D500 BEB9 BF64 09769 09814  2209          CLC   SPRIOR(LX1),PTYCEL COMPARE PRIORITIES                    11964021
 000EB2 4780 F250      00EC8        2210        BE    PFMGO4    NORMAL GO VERB                                   11970021
 000EB6 45E0 8068      06020        2211 PFMGO2 BAL   RCS,STLOOP            STORE THE 2 ENTITIES                 11976021
 000EBA 0002                        2212        DC    XL2'2'                STORE  2 ELEMENTS                    11982021
 000EBC 4140 BE4E      096FE        2213        LA    RW4,GOSEGT    INIT NOT NEEDED SEGT GO                      11988021
 000EC0 4140 BEB8      09768        2214        LA    RW4,SAVEPN    STORE THE PN                                 11994021
 000EC4 47F0 F25E      00ED6        2215        B     PFMGO3                PN TO STORE                          12000021
 000EC8 45E0 8068      06020        2216 PFMGO4 BAL   RCS,STLOOP            STORE THE 2 ENTITIES                 12006021
 000ECC 0002                        2217        DC    XL2'2'                STORE  2 ELEMENTS                    12012021
 000ECE 4140 A55E      08256        2218        LA    RW4,CBGO                                                   12018021
 000ED2 4140 BEB8      09768        2219        LA    RW4,SAVEPN                                                 12024021
 000ED6 58E0 B340      08BF0        2220 PFMGO3 L     RCS,PFMGOSV                                                12030021
 000EDA 07FE                        2221        BR    RCS                   RETURN                               12036021
-
0
1PH40     IKFCBL40                                                                                              PAGE   50
-  LOC  OBJECT CODE    ADDR1 ADDR2  STMT   SOURCE STATEMENT                                       ASM 0201 11.03 02/14/15
0                                   2224 *                                                                       12054021
                                    2225 *                                 OPTION 4 -- VARYING                   12060021
                                    2226 *                                                                       12066021
-
                                    2228 *                                                                       12078021
                                    2229 *                                                                       12084021
                                    2230 *      THE STRINGS PRODUCED FOR OPTION 4 ARE, FOR EXAMPLE -             12090021
                                    2231 *                                                                       12096021
                                    2232 * PERFORM PN1 (THRU PN4) VARYING                                        12102021
                                    2233 *  X FROM N1 BY N2          X FROM N1 BY N2          X FROM N1 BY N     12108021
                                    2234 *    UNTIL A=B.               UNTIL A=B AFTER          UNTIL A=B AF     12114021
                                    2235 *                           Y FROM N3 BY N4          Y FROM N3 BY N     12120021
                                    2236 *                             UNTIL C=D.               UNTIL C=D AF     12126021
                                    2237 *                                                    Z FROM N5 BY N     12132021
                                    2238 *                                                      UNTIL E=F.       12138021
                                    2239 *                                                                       12144021
                                    2240 *                                                                       12150021
                                    2241 *        MOVE VN1 PFMSAV        MOVE VN1 PFMSAV       MOVE VN1 PFMS     12156021
                                    2242 *        MOVE N1 X              MOVE N1 X             MOVE N1 X         12162021
                                    2243 *        GO INIT1               GO INIT1              GO INIT1          12168021
                                    2244 *                                                                       12174021
                                    2245 * PLUS1. ADD N2 X         PLUS1.ADD N2 X        PLUS1.ADD N2 X          12180021
                                    2246 * COND1.= A B  TRUE1      COND1.= A B TRUE1     COND1.= A B TRUE1       12186021
                                    2247 *                               GO COND2              GO COND 2         12192021
                                    2248 *                                                                       12198021
                                    2249 *                         MOVE2.MOVE N3 Y       MOVE2.MOVE N3 Y         12204021
                                    2250 *                               GO VN2                GO VN2            12210021
                                    2251 *                         PLUS2.ADD N4 Y        PLUS2.ADD N4 Y          12216021
                                    2252 *                         COND2.= C D TRUE2     COND2.= C D TRUE2       12222021
                                    2253 *                                                     GO COND3          12228021
                                    2254 *                                                                       12234021
                                    2255 *                                               MOVE3.MOVE N5 Z         12240021
                                    2256 *                                                     GO VN3            12246021
                                    2257 *                                               PLUS3.ADD N6 Z          12252021
                                    2258 *                                               COND3.= E F TRUE3       12258021
                                    2259 *                                                                       12264021
                                    2260 *                                                                       12270021
                                    2261 *        GO PN1                 GO PN1                GO PN1            12276021
                                    2262 *                                                                       12282021
                                    2263 *                                                                       12288021
                                    2264 *                         INIT1.MOVE INIT2 VN2  INIT1.MOVE INIT2 VN     12294021
                                    2265 *                               GO MOVE2              MOVE MOVE3 VN     12300021
                                    2266 *                                                     GO MOVE2          12306021
                                    2267 *                                                                       12312021
                                    2268 * INIT1. MOVE PLUS1 VN1   INIT2.MOVE PLUS1 VN2  INIT2.MOVE PLUS1 VN     12318021
                                    2269 *        GO COND1               MOVE PLUS2 VN1        MOVE PLUS2 VN     12324021
                                    2270 *                               GO COND1              MOVE PLUS3 VN     12330021
                                    2271 *                                                     GO COND1          12336021
                                    2272 *                                                                       12342021
                                    2273 *                                               TRUE3.GO MOVE3          12348021
                                    2274 *                         TRUE2.GO MOVE2        TRUE2.GO MOVE2          12354021
                                    2275 *                                                                       12360021
                                    2276 * TRUE1. MOVE PFMSAV      TRUE1.MOVE PFMSAV     TRUE1.MOVE PFMSAV       12366021
1PH40     IKFCBL40                                                                                              PAGE   51
-  LOC  OBJECT CODE    ADDR1 ADDR2  STMT   SOURCE STATEMENT                                       ASM 0201 11.03 02/14/15
0                                   2277 *         VN1                    VN1                   VN1              12372021
                                    2278 *                                                                       12378021
                                    2279 *******************************************************************     12384021
                                    2280 *      (ALL LABELS IN THE EXAMPLES ABOVE ARE GN'S. VN1 IS THE RETUR     12390021
                                    2281 *        VN.)                                                           12396021
                                    2282 *                                                                       12402021
                                    2283 *      IF MORE THAN 3 DATA-NAMES ARE VARIED,A WARNING IS ISSUED BUT     12408021
                                    2284 *        CORRECT GENERATION (ON THE SAME PATTERN) CONTINUES.            12414021
                                    2285 *                                                                       12420021
                                    2286 *      THE VN COUNTER IS INCREMENTED ONCE FOR EACH LEVEL AFTER 1.       12426021
                                    2287 *      THE GN COUNTER IS INCREMENTED 3 TIMES FOR EACH LEVEL OF VARI     12432021
                                    2288 *       TION, AND ONCE MORE IF INIT2 IS NEEDED. LABELS ARE SAVED IN     12438021
                                    2289 *       TAMER-TABLE VARYTB IN THE FOLLOWING ORDER                       12444021
                                    2290 *                                                                       12450021
                                    2291 *                COND1      *                                           12456021
                                    2292 *                INIT1      * LEVEL 1 (INIT1 HAS POSITION OF UNUSED     12462021
                                    2293 *                PLUS1      *                                           12468021
                                    2294 *                                                                       12474021
                                    2295 *                MOVE2       *                                          12480021
                                    2296 *                COND2       * LEVEL 2                                  12486021
                                    2297 *                VN2         *                                          12492021
                                    2298 *                PLUS2       *                                          12498021
                                    2299 *                                                                       12504021
                                    2300 *                MOVE3        *                                         12510021
                                    2301 *                COND3        * LEVEL 3                                 12516021
                                    2302 *                VN3          *                                         12522021
                                    2303 *                PLUS3        *                                         12528021
                                    2304 *                                                                       12534021
                                    2305 *                .                                                      12540021
                                    2306 *                .                                                      12546021
                                    2307 *                .                                                      12552021
                                    2308 *                .                                                      12558021
                                    2309 *                MOVEN            *                                     12564021
                                    2310 *                CONDN            *  LEVEL N                            12570021
                                    2311 *                VN-N             *                                     12576021
                                    2312 *                PLUSN            *                                     12582021
                                    2313 *                                                                       12588021
                                    2314 *                INIT2                ( HAS POSITION OF MOVE FOR N+     12594021
                                    2315 *                      (UNUSED)                                         12600021
                                    2316 *                VN1        (RETURN-VN)                                 12606021
                                    2317 *                                                                       12612021
                                    2318 *                                                                       12618021
                                    2319 *        RW6  KEEPS TRACK OF THE NUMBER OF DN'S VARIED.                 12624021
                                    2320 *        WHENEVER RW6 GOES UP,RW2 (THE POINTER TO VARYTB)IS INCREME     12630021
                                    2321 *        BY 12. RW2 IS KEPT POINTING TO THE COND-LABEL OF THE CURRE     12636021
                                    2322 *        LEVEL.                                                         12642021
                                    2323 *                                                                       12648021
                                    2324 *      THE 4 LABELS ARE DEFINED WITH SYMBOLIC NAMES UNDER A 'USING      12654021
                                    2325 *        REFERENCE TO THEIR SYMBOLIC NAMES CAUSES THEM TO BE ADDRES     12660021
                                    2326 *        AT THE CURRENT LEVEL IN VARYTB.                                12666021
                                    2327 *                                                                       12672021
                                    2328 *        TRUE1,TRUE2,ETC., STAND FOR THE LABEL(S) PRODUCED BY IF AN     12678021
                                    2329 *          PLACED IN PSHTBL AS BYPASS BRANCHES FOR THE GIVEN CONDIT     12684021
                                    2330 *                                                                       12690021
                                    2331 *                                                                       12696021
1PH40     IKFCBL40                                                                                              PAGE   52
-  LOC  OBJECT CODE    ADDR1 ADDR2  STMT   SOURCE STATEMENT                                       ASM 0201 11.03 02/14/15
0                            00EDC  2333 VARY   EQU     *                                                        12708021
 000EDC 45E0 7766      0571E        2334        BAL     RCS,GENSTR         CLEAR OUT STRING (SORT NEVER USES     12714021
 000EE0 4160 0001      00001        2335          LA    RW6,DX1             RW6 IS VARYING COUNTER. INIT AT 1    12720021
 000EE4 94FE BFA4      09854        2336        NI      ERVASW,MSWOFF      OFF ERROR SWITCH FOR TOO MANY VAR     12726021
                                    2337 *VARYVN IS GN 1ST TIME- VN OTHER TIMES- DIFFERENT                       12732021
                                    2338 *LENGTH AND PRIORITY NUMBER IN VN NECESSITATE CHECK FOR 1ST TIME        12738021
 000EE8 9601 BFCE      0987E        2339        OI    VRY1ST,MSWON     TURN ON SWITCH FOR 1ST VARYING            12744021
 000EEC 920C BF9F      0984F        2340          MVI   VARYSW+NX1,XX0C     SET VARYSW TO COLLECT DATA-NAME      12750021
 000EF0 D700 BEE7 BEE6 09797 09796  2341          XC    DRSULT+NX1(LX1),DRSULT TURN OFF ROUND OPTION FOR ADD     12756021
 000EF6 9202 BEE2      09792        2342          MVI   EVAL+NX2,XX02         AND SIZE-ERROR OPTION              12762021
 000EFA 45E0 7F5C      05F14        2343        BAL     RCS,PZSTRT          REINITIALIZE TAMER TABLES            12768021
 000EFE 4110 B050      08900        2344        LA    RW1,AVARYT                                                 12774021
                                    2345 *                                                                       12780021
                                    2346 *              INITIALIZE BRANCH-TABLE FOR FIRST VARYING                12786021
                                    2347 *                                                                       12792021
 000F02 5810 B050      08900        2348        L       RW1,AVARYT                                               12798021
 000F06 9206 1000      00000        2349          MVI   DX0(RW1),XX06   TEMPORARILY GIVE TIB COUNT FOR 2 ENTR    12804021
 000F0A 50F0 B54C      08DFC        2350        ST      RVRB,VRBASE                                              12810021
 000F0E 58F0 A314      0800C        2351        L       RAS,ANSERT     MAKE ROOM FOR 1ST COND. AND INIT. BRA     12816021
 000F12 05EF                        2352        BALR    RCS,RAS             INITIALIZE TABLE                     12822021
 000F14 58F0 B54C      08DFC        2353        L     RVRB,VRBASE          RESTORE BASE                          12828021
 000F18 4133 0006      00006        2354          LA    RW3,DX6(RW3)                                             12834021
 000F1C 4030 B054      08904        2355        STH     RW3,DSPVAR         SAVE DISPL.                           12840021
 000F20 920C 1000      00000        2356          MVI   DX0(RW1),XX0C   RESTORE TO TIB NORMAL COUNT FOR 4 ENT    12846021
 000F24 45E0 9A72      078CA        2357        BAL     RCS,PUPLGN        MOVE 2 NEW GN-NUMBERS TO TABLE         12852021
 000F28 D201 2001 BE1C 00001 096CC  2358          MVC   DX1(LX2,RW2),NXTLGN                                      12858021
 000F2E 45E0 9A72      078CA        2359        BAL     RCS,PUPLGN          UPDATE GN NUMBER                     12864021
 000F32 D201 2004 BE1C 00004 096CC  2360          MVC   DX4(LX2,RW2),NXTLGN                                      12870021
 000F38 D200 2000 BE01 00000 096B1  2361          MVC   DX0(LX1,RW2),GNREF  MOVE IN THEIR HEADERS                12876021
 000F3E D200 2003 BE01 00003 096B1  2362          MVC   DX3(LX1,RW2),GNREF                                       12882021
                                    2363 *                                                                       12888021
                                    2364 *      FOR EACH VARYING SET UP BRANCHES AND PUT OUT --                  12894021
                                    2365 *                                                                       12900021
                                    2366 *              MOVE NI DN                                               12906021
                                    2367 *              GO VN                                                    12912021
                                    2368 *      PLUSGN  ADD N2 DN                                                12918021
                                    2369 *      CONDGN                                                           12924021
                                    2370 *                                                                       12930021
 000F44 5810 B050      08900        2371 VARY10 L       RW1,AVARYT         MAKE ROOM FOR NEXT 4 BRANCHES IN      12936021
 000F48 50F0 B54C      08DFC        2372        ST      RVRB,VRBASE                                              12942021
 000F4C 58F0 A314      0800C        2373        L       RAS,ANSERT           TABLE                               12948021
 000F50 05EF                        2374        BALR    RCS,RAS             INITIALIZE TABLE                     12954021
 000F52 58F0 B54C      08DFC        2375        L     RVRB,VRBASE                                                12960021
 000F56 4133 000C      0000C        2376          LA    RW3,DX12(RW3)                                            12966021
 000F5A 4030 B054      08904        2377        STH     RW3,DSPVAR         SAVE DISPL.                           12972021
                                    2378 *                                                                       12978021
 000F5E D200 2000 BE01 00000 096B1  2379          MVC   DX0(LX1,RW2),GNREF   PUT 3 GN HEADERS IN TABLE           12984021
 000F64 D200 2003 BE01 00003 096B1  2380          MVC   DX3(LX1,RW2),GNREF                                       12990021
 000F6A D200 2006 BE01 00006 096B1  2381          MVC   DX6(LX1,RW2),GNREF                                       12996021
 000F70 D200 2009 BEAC 00009 0975C  2382          MVC   DX9(LX1,RW2),VNREF    PUT VN HEADER IN 4TH SLOT          13002021
 000F76 4B20 A5A6      0829E        2383        SH      RW2,N6            POINT RW2 TO COND BRANCH FOR THIS      13008021
 000F7A 45E0 9A72      078CA        2384        BAL     RCS,PUPLGN         CREATE GN FOR PLUS GN                 13014021
 000F7E D201 2007 BE1C 012C9 096CC  2385          MVC   PLUSGN+NX1(LX2),NXTLGN                                   13020021
                                    2386 *                                                                       13026021
 000F84 45E0 F4F4      0116C        2387        BAL     RCS,VAROPS         GERR MOVE-N1-DN                       13032021
1PH40     IKFCBL40                                                                                              PAGE   53
-  LOC  OBJECT CODE    ADDR1 ADDR2  STMT   SOURCE STATEMENT                                       ASM 0201 11.03 02/14/15
0000F88 9101 BFCE      0987E        2388        TM    VRY1ST,MSWON    IS FIRST VARYING                           13038021
 000F8C 4710 F330      00FA8        2389        BC    ONES,INITVY    YES                                         13044021
 000F90 D201 BEAE 2004 0975E 012C6  2390          MVC   VNID(LX2),VARYVN+NX1 NO- MOVE VN NUMBER INTO VNREF       13050021
 000F96 D200 BEAD BF64 0975D 09814  2391          MVC   VNPTY(LX1),PTYCEL PRIORITY OF SECTION PERFORM IS  IN     13056021
 000F9C 45E0 79C8      05980        2392        BAL   RCS,GENGO   GENR GO-VN                                     13062021
 000FA0 4110 BEAC      0975C        2393        LA    RW1,VNREF                                                  13068021
 000FA4 47F0 F33E      00FB6        2394        BC    UNCOND,GNPLUS         GENR PLUSGN AS GN                    13074021
 000FA8 D202 B53C 2006 08DEC 012C8  2395 INITVY   MVC   GNSAV(LX3),PLUSGN          1ST PLUSGN                    13080021
 000FAE 45E0 79C8      05980        2396          BAL   RCS,GENGO      GENREATE GO GN                            13086021
 000FB2 4110 2003      012C5        2397        LA      RW1,VARYVN                                               13092021
 000FB6 D201 BDFF 2007 096AF 012C9  2398 GNPLUS   MVC   GNDEF+NX1(LX2),PLUSGN+NX1 GENR PLUSGN AS LGN             13098021
 000FBC 45E0 7952      0590A        2399        BAL     RCS,GENLAB          GENERATE LABEL                       13104021
 000FC0 4960 A5A0      08298        2400          CH    RW6,N3                                                   13110021
 000FC4 4780 F4B8      01130        2401          BE   VARY56          EQUAL                                     13116021
 000FC8 D202 B53F 2006 08DEF 012C8  2402          MVC   GNSAV+3(LX3),PLUSGN                                      13122021
 000FCE D201 B544 2004 08DF4 012C6  2403          MVC   VNSAV+2(LX2),VARYVN+1                                    13128021
 000FD4 D200 B543 BF64 08DF3 09814  2404          MVC   VNSAV+1(LX1),PTYCEL                                      13134021
 000FDA 45E0 F4F4      0116C        2405 VARY14   BAL   RCS,VAROPS                                               13140021
 000FDE D201 BDFF 2001 096AF 012C3  2406          MVC   GNDEF+NX1(LX2),CONDGN+NX1 GENR CONDGN AS LGN             13146021
 000FE4 45E0 7952      0590A        2407        BAL     RCS,GENLAB          GENERATE LABEL                       13152021
 000FE8 45E0 7566      0551E        2408        BAL     RCS,GETNXT          GET THE NEXT ENTITY                  13158021
 000FEC D501 C000 A4E8 0988B 081E0  2409          CLC   GOTTEN(LX2),CBUNTL IS NEXT 'UNTIL'                       13164021
 000FF2 4780 F38E      01006        2410        BC      EQ,VARY15           YES                                  13170021
 000FF6 4100 A4E8      081E0        2411        LA      RA0,CBUNTL           NO - ERROR. ASSUME IT               13176021
 000FFA 45E0 9BDA      07A32        2412        BAL     RCS,ERROR           WARNING MESSAGE                      13182021
 000FFE 4110 A02A      07D22        2413        LA      RW1,ELST07                                               13188021
 001002 9601 BF74      09824        2414        OI      NEXTIN,MSWON      ('UNTIL' WILL GET NEXT)                13194021
 001006 45E0 F1CE      00E46        2415 VARY15 BAL     RCS,UNTIL             GO TO IF TO EXPAND AND GENR CO     13200021
 00100A D501 C000 A534 0988B 0822C  2416          CLC   GOTTEN(LX2),CBAFTR  DOES'AFTER' FOLLOW CONDITION         13206021
 001010 4770 F3F4      0106C        2417        BC      NOTEQ,VARY30          NO - VARYINGS ARE FINISHED         13212021
                                    2418 *                                                                       13218021
                                    2419 *                                 'AFTER' FOUND                         13224021
                                    2420 *                                                                       13230021
                                    2421 *              FOR EACH 'AFTER' SET UP NEW VN AND GENR --               13236021
                                    2422 *                                                                       13242021
                                    2423 *              GO CONDGN (OF NEXT VARYING)                              13248021
                                    2424 *      MOVEGN                     NOTE. 1ST VARY HAS NO LGN ON MOVE     13254021
                                    2425 *                                                                       13260021
 001014 4960 A5A0      08298        2426        CH      RW6,N3             HAVE THERE BEEN 3 VARYINGS            13266021
 001018 4740 F3B8      01030        2427        BC      LO,VARY25            NO-OK                               13272021
 00101C 9101 BFA4      09854        2428        TM      ERVASW,MSWON         YES-ERROR                           13278021
 001020 4710 F3B8      01030        2429        BC      ONES,VARY25            DONT WRITE MSG MORE THAN ONCE     13284021
 001024 9601 BFA4      09854        2430        OI      ERVASW,MSWON                                             13290021
 001028 45E0 9BDA      07A32        2431        BAL     RCS,ERROR           ERROR                                13296021
 00102C 4110 A0D2      07DCA        2432        LA      RW1,ELST23           WARNING                             13302021
 001030 45E0 9A72      078CA        2433 VARY25 BAL     RCS,PUPLGN         CREATE GN FOR MOVE OF THIS            13308021
 001034 D201 200A BE1C 012CC 096CC  2434          MVC   MOVEGN+NX1(LX2),NXTLGN  LEVEL AND CONDITION OF NEXT      13314021
 00103A 45E0 9A72      078CA        2435        BAL     RCS,PUPLGN          CREATE GN                            13320021
 00103E D201 200D BE1C 012CF 096CC  2436          MVC   CONDGN+NX13(LX2),NXTLGN                                  13326021
 001044 45E0 79C8      05980        2437        BAL     RCS,GENGO          GENR GO-CONDGN                        13332021
 001048 4110 200C      012CE        2438          LA    RW1,CONDGN+NX12                                          13338021
 00104C D201 BDFF 200A 096AF 012CC  2439          MVC   GNDEF+NX1(LX2),MOVEGN+NX1 GENR MOVEGN AS LGN             13344021
 001052 45E0 7952      0590A        2440        BAL     RCS,GENLAB          GENERATE LABEL                       13350021
 001056 4166 0001      00001        2441          LA    RW6,DX1(RW6)        INCREMENT VARYING COUNTER            13356021
 00105A 45E0 9B1E      07976        2442        BAL     RCS,PUPVNC         GET NEW VN NUMBER,PUT IN TABLE        13362021
1PH40     IKFCBL40                                                                                              PAGE   54
-  LOC  OBJECT CODE    ADDR1 ADDR2  STMT   SOURCE STATEMENT                                       ASM 0201 11.03 02/14/15
000105E D201 2010 BEC8 012D2 09778  2443          MVC   VARYVN+NX13(LX2),VNNUM                                   13368021
 001064 94FE BFCE      0987E        2444        NI    VRY1ST,MSWOFF    TURN OFF SWITCH 1ST VARY                  13374021
 001068 47F0 F2CC      00F44        2445        BC      UNCOND,VARY10      LOOP BACK                             13380021
                                    2446 *                                                                       13386021
                                    2447 *                                                                       13392021
                                    2448 *                                 END OF VARYINGS.  GENR --             13398021
                                    2449 *                                                                       13404021
                                    2450 *              GO PN1                                                   13410021
                                    2451 *                                                                       13416021
                                    2452 *                                                                       13422021
                                    2453 *BEFORE ISSUEING A GO PN1 WE MUST CHECK PTY OF PN1                      13428021
                                    2454 *COMPARING IT TO CURRENT PTY TO DETERMINE CORECT GO VERB                13434021
                                    2455 *AND TO PUT OUT INITIALIZATION VERB WHEN NECESSARY                      13440021
 00106C 45E0 F230      00EA8        2456 VARY30 BAL RCS,PFMGOPN1            CHECK PRIORITY OF PN1                13446021
 001070 45E0 7766      0571E        2457        BAL   RCS,GENSTR            GENERATE STRING                      13452021
 001074 D201 2010 BEBE 012D2 0976E  2458          MVC   VARYVN+NX13(LX2),SVNID MOVE VN FROM VNTBL TO VARYTB      13458021
                                    2459 *                                                                       13464021
                                    2460 *                                                                       13470021
                                    2461 *      GENR INITIALIZATIONS FOR VN'S                                    13476021
                                    2462 *                                                                       13482021
                                    2463 *                                                                       13488021
 00107A 5850 B050      08900        2464        L       RW5,AVARYT         SET RW5 TO START ADDR. OF BRANCH      13494021
 00107E 5855 0000      00000        2465          L     RW5,DX0(RW5)          TABLE FOR USE IN BXH               13500021
 001082 5855 0000      00000        2466          L     RW5,DX0(RW5)                                             13506021
 001086 4122 0000      00000        2467          LA    RW2,DX0(RW2)        ZERO 1ST BYTE -- SAFETY FOR BXH      13512021
 00108A 4155 0000      00000        2468          LA    RW5,DX0(RW5)                                             13518021
 00108E 4840 A5AC      082A4        2469        LH      RW4,NDEC12         SET RW4 = -12 (1 BRANCH GROUP)FOR     13524021
 001092 1144                        2470        LNR     RW4,RW4                                                  13530021
 001094 D202 BDFF 5004 096AF 00004  2471          MVC   GNDEF+NX1,DX4(RW5)  GENR INITV1                          13536021
 00109A 45E0 7952      0590A        2472        BAL     RCS,GENLAB          GENERATE LABEL                       13542021
 00109E 1832                        2473        LR      RW3,RW2            SAVE RW2 TO RESTORE AFTER LOOPS       13548021
 0010A0 4960 A59C      08294        2474        CH      RW6,N1             HOW MANY VARYINGS                     13554021
 0010A4 4780 F48A      01102        2475        BC      EQ,VARY50          ONLY 1 - GO INIT. THE ONLY VN         13560021
                                    2476 *                                                                       13566021
 0010A8 45E0 9A72      078CA        2477        BAL     RCS,PUPLGN         CREATE BRANCH FOR INIT2               13572021
 0010AC D201 200A BE1C 012CC 096CC  2478          MVC   MOVEGN+NX1(LX2),NXTLGN                                   13578021
 0010B2 D201 BEAE 2004 0975E 012C6  2479 VARY45   MVC   VNID(LX2),VARYVN+NX1 SET UP VN FOR OUTPUT                13584021
 0010B8 D200 BEAD BF64 0975D 09814  2480          MVC   VNPTY(LX1),PTYCEL                                        13590021
 0010BE 45E0 79E8      059A0        2481        BAL   RCS,GENMOV   GENR MOVE MOVE-GN- VN FOR EACH VARYING        13596021
 0010C2 4110 2009      012CB        2482        LA      RW1,MOVEGN            EXCEPT 1ST                         13602021
 0010C6 4110 BEAC      0975C        2483        LA    RW1,VNREF                                                  13608021
 0010CA 5020 B538      08DE8        2484          ST    RW2,RW2SAV                                               13614021
 0010CE 45E0 7734      056EC        2485          BAL   RCS,GENDAT     WRITE TO FILE                             13620021
 0010D2 4120 A561      08259        2486          LA    RW2,EQUVRB     SOURCE ADDR                               13626021
 0010D6 45E0 7734      056EC        2487          BAL   RCS,GENDAT     WRITE TO FILE                             13632021
 0010DA 4120 BEAC      0975C        2488          LA    RW2,VNREF      VN REF                                    13638021
 0010DE 45E0 7734      056EC        2489          BAL   RCS,GENDAT     WRITE TO FILE                             13644021
 0010E2 4120 2009      012CB        2490          LA    RW2,MOVEGN                                               13650021
 0010E6 5820 B538      08DE8        2491          L     RW2,RW2SAV                                               13656021
 0010EA 8624 F43A      010B2        2492        BXH     RW2,RW4,VARY45      SET UP VN                            13662021
 0010EE 1823                        2493        LR      RW2,RW3            RESTORE RW2 TO LAST GROUP             13668021
 0010F0 45E0 79C8      05980        2494        BAL     RCS,GENGO          GENR GO-MOVEGN (OF 2ND VARY)          13674021
 0010F4 4115 0009      00009        2495          LA    RW1,DX9(RW5)                                             13680021
 0010F8 D201 BDFF 200A 096AF 012CC  2496          MVC   GNDEF+NX1(LX2),MOVEGN+NX1 GENR INITV2 AS LGN             13686021
 0010FE 45E0 7952      0590A        2497        BAL     RCS,GENLAB          GENERATE LABEL                       13692021
1PH40     IKFCBL40                                                                                              PAGE   55
-  LOC  OBJECT CODE    ADDR1 ADDR2  STMT   SOURCE STATEMENT                                       ASM 0201 11.03 02/14/15
0                                   2498 *                                                                       13698021
                             01102  2499 VARY50 EQU     *                                                        13704021
 001102 4B50 A5AC      082A4        2500        SH      RW5,NDEC12        (SET RW5 TO GO THRU LOOP ONCE MORE     13710021
                             01106  2501 VARY55 EQU     *                                                        13716021
 001106 D201 BEAE 2010 0975E 012D2  2502          MVC   VNID(LX2),VARYVN+NX13 SET UP VN REF                      13722021
 00110C D200 BEAD BF64 0975D 09814  2503          MVC   VNPTY(LX1),PTYCEL                                        13728021
 001112 45E0 79E8      059A0        2504        BAL     RCS,GENMOV         GENR MOVE-PLUSGN-VN FOR EACH VARY     13734021
 001116 4110 2006      012C8        2505        LA      RW1,PLUSGN                                               13740021
 00111A 4110 BEAC      0975C        2506        LA    RW1,VNREF                                                  13746021
 00111E 8624 F48E      01106        2507        BXH   RW2,RW4,VARY55        SET UP VN                            13752021
 001122 1823                        2508        LR    RW2,RW3               RESTORE RW2 TO LAST GROUP            13758021
 001124 45E0 79C8      05980        2509        BAL     RCS,GENGO          GENR GO-CONDGN (OF 1ST VARY)          13764021
 001128 4115 000C      0000C        2510          LA    RW1,DX12(RW5)                                            13770021
 00112C 47F0 F4E8      01160        2511        BC      UNCOND,VARY65       GENERATE BRANCHES                    13776021
 001130 D201 B548 2004 08DF8 012C6  2512 VARY56   MVC   VNSAV+6(LX2),VARYVN+1                                    13782021
 001136 D200 B547 BF64 08DF7 09814  2513          MVC   VNSAV+5(LX1),PTYCEL                                      13788021
 00113C 45E0 79E8      059A0        2514          BAL   RCS,GENMOV     GENERATE ALTER GN TO VN                   13794021
 001140 4110 B53F      08DEF        2515          LA    RW1,GNSAV+3                                              13800021
 001144 4110 B546      08DF6        2516          LA    RW1,VNSAV+4                                              13806021
 001148 45E0 79E8      059A0        2517          BAL   RCS,GENMOV     GENERATE ALTER GN TO VN                   13812021
 00114C 4110 B53C      08DEC        2518          LA    RW1,GNSAV                                                13818021
 001150 4110 B542      08DF2        2519          LA   RW1,VNSAV                                                 13824021
 001154 47F0 F362      00FDA        2520          B     VARY14         GO TO PROCESS VARYING                     13830021
                                    2521 *                                                                       13836021
                                    2522 *      PUT OUT BRANCHES IN PSHTBL PRODUCED BY UNTIL -                   13842021
                                    2523 *                                                                       13848021
 001158 45E0 79C8      05980        2524 VARY60 BAL     RCS,GENGO          GENR GO-MOVEGN OF CORRESPONDING V     13854021
 00115C 4110 2009      012CB        2525        LA      RW1,MOVEGN                                               13860021
 001160 45E0 7964      0591C        2526 VARY65 BAL     RCS,GENLST         GENR BRANCHES                         13866021
 001164 8624 F4E0      01158        2527        BXH     RW2,RW4,VARY60     PUT OUT A GO FOR EACH VARY EXCEPT     13872021
 001168 47F0 F1EA      00E62        2528        BC      UNCOND,ENDPFM       GENR OUTPUT-END OF PERFORM           13878021
                                    2529 *                                                                       13884021
                                    2530        DROP    RW2                                                      13890021
                                    2531 *      (SO THAT REFERENCES WITHIN VAROPS ARE ALL TO BASE REGISTER R     13896021
-
0
                                    2533 *                                                                       13908021
                                    2534 *      SUBROUTINE TO PROCESS THE 3 OPERANDS OF 'VARYING'                13914021
                                    2535 *                                                                       13920021
                                    2536 *      BAL     RCS,VAROPS                                               13926021
                                    2537 *      (RETURN)                                                         13932021
                                    2538 *                                                                       13938021
                                    2539 *      VARYSW KNOWS WHICH OPERAND IS TO BE PROCESSED                    13944021
                                    2540 *       IF IT = 12   IT IS THE VARIED DATA-NAME                         13950021
                                    2541 *               4              FROM-VALUE                               13956021
                                    2542 *               8              BY-VALUE                                 13962021
                                    2543 *                                                                       13968021
                                    2544 *      VARYSW IS INITIALIZED AT 12 WHEN 'VARYING IS FOUND. FROM THE     13974021
                                    2545 *        ON, VAROPS ITSELF SETS IT BEFORE EXIT.                         13980021
                                    2546 *                                                                       13986021
                             0116C  2547 VAROPS EQU     *                                                        13992021
 00116C 90E1 B464      08D14        2548        STM     RCS,RW1,SVVROP                                           13998021
1PH40     IKFCBL40                                                                                              PAGE   56
-  LOC  OBJECT CODE    ADDR1 ADDR2  STMT   SOURCE STATEMENT                                       ASM 0201 11.03 02/14/15
0001170 4810 BF9E      0984E        2549        LH    RW1,VARYSW           SW FOR TRANSFER VECTOR                14004021
                                    2550 *                                                                       14010021
                                    2551 *                                 INITIAL STEPS                         14016021
                                    2552 *                                                                       14022021
 001174 45E0 7566      0551E        2553 VROP12 BAL     RCS,GETNXT         GET OPERAND                           14028021
 001178 45E0 8B94      06B4C        2554 VROP15 BAL     RCS,OKPFOP         MAKE SURE OK (USE TALLY IF NOT)       14034021
 00117C 47F1 F504      0117C        2555        BC    UNCOND,*(RW1)        BRANCH ACCORDING TO FUNCTION          14040021
 001180 47F0 F574      011EC        2556        BC      UNCOND,VROP25          (PRODUCE MOVE STRING)             14046021
 001184 47F0 F5F0      01268        2557        BC      UNCOND,VROP30          (PRODUCE ADD STRING)              14052021
                                    2558 *                                                                       14058021
                                    2559 *      FIRST USE OF VAROPS, PROCESS VARIED DATA-NAME                    14064021
                                    2560 *                                                                       14070021
 001188 D701 BE60 BE60 09710 09710  2561          XC    LEFTSS(LX2),LEFTSS  INIT GNARTH VALUES POSSIBLY CLOBB    14076021
 00118E D701 BE8A BE8A 0973A 0973A  2562          XC    LEFTDP(LX2),LEFTDP     BY IF                             14082021
 001194 9101 BE64      09714        2563        TM      MODE,MLITBT        IS IT DATA-NAME                       14088021
 001198 4780 F530      011A8        2564        BC      ZERO,VROP20          YES - OK                            14094021
 00119C 45E0 9BDA      07A32        2565        BAL     RCS,ERROR            NO, LITERAL                         14100021
 0011A0 4110 A0E7      07DDF        2566        LA      RW1,ELST26                                               14106021
 0011A4 45E0 99FE      07856        2567        BAL     RCS,PMKTA2           SUBSTITUTE TALLY                    14112021
 0011A8 D201 BE60 B094 09710 08944  2568 VROP20   MVC   LEFTSS(LX2),DSPSBS  SAVE SS DISPL. FOR ADD-STRING LAT    14118021
 0011AE D200 BEE6 BE66 09796 09716  2569          MVC   DRSULT(LX1),DCURR    .      DRSULT  .   .    .           14124021
 0011B4 D200 BEE5 BE66 09795 09716  2570          MVC   DMAX(LX1),DCURR     INIT  DMAX      .   .    .           14130021
 0011BA 45E0 76EC      056A4        2571        BAL     RCS,GETALL          MOVE ENTITY TO SAVE AREA             14136021
 0011BE 4120 B678      08F28        2572        LA      RW2,PSTFLD         MOVE TO PSTFLD                        14142021
 0011C2 45E0 76EC      056A4        2573        BAL     RCS,GETALL          SAVE THE ENTITY                      14148021
 0011C6 4120 B6F4      08FA4        2574        LA      RW2,PRSULT         MOVE TO PRSULT TO SAVE FOR MOVE S     14154021
 0011CA 4110 0004      00004        2575          LA    RW1,DX4             SET SW TO PRODUCE MOVE STRING NEX    14160021
 0011CE 45E0 7566      0551E        2576        BAL     RCS,GETNXT          GET NEXT ENTITY                      14166021
 0011D2 D501 C000 A4E2 0988B 081DA  2577          CLC   GOTTEN(LX2),CBFROM  DOES 'FROM' FOLLOW                   14172021
 0011D8 4780 F4FC      01174        2578        BC      EQ,VROP12           YES, GO PROCESS N1                   14178021
 0011DC 4100 A4E2      081DA        2579        LA      RA0,CBFROM          NO - ERROR, ASSUME IT                14184021
 0011E0 45E0 9BDA      07A32        2580        BAL     RCS,ERROR           WRITE MESSAGE - WARNING              14190021
 0011E4 4110 A02A      07D22        2581        LA      RW1,ELST07                                               14196021
 0011E8 47F0 F500      01178        2582        BC      UNCOND,VROP15       IS OPERAND OK                        14202021
                                    2583 *                                                                       14208021
                                    2584 *      2ND OPERAND  FOUND. PRODUCE MOVE STRING                          14214021
                                    2585 *                                                                       14220021
 0011EC 9101 B4E8      08D98        2586 VROP25   TM    INDSW1,MSWON        INDEX NAME ?                         14226021
 0011F0 4780 F596      0120E        2587        BZ    VROP26         PRODUCE MOVE STRING                         14232021
 0011F4 94FE B4E8      08D98        2588          NI    INDSW1,MSWOFF       INDEX NAME ILLEGAL FOR OP3           14238021
 0011F8 45E0 8068      06020        2589        BAL   RCS,STLOOP             SET OP1 TO OP2                      14244021
 0011FC 0003                        2590        DC    XL2'3'                3 ENTITIES TO BE STORED              14250021
 0011FE 4140 BF42      097F2        2591        LA    RW4,SETP2                                                  14256021
 001202 4140 B6F4      08FA4        2592        LA    RW4,PRSULT                                                 14262021
 001206 414C 0000      00000        2593          LA    RW4,DX0(RIN)                                             14268021
 00120A 47F0 F5A8      01220        2594        B     VROP27                PRODUCE STRING                       14274021
 00120E 45E0 8068      06020        2595 VROP26 BAL   RCS,STLOOP            STORE 3 ELEMENTS IN STRING           14280021
 001212 0003                        2596        DC    XL2'3'                STORE  3 ELEMENTS                    14286021
 001214 4140 A56A      08262        2597        LA      RW4,MOVEVB      MOVE                                     14292021
 001218 414C 0000      00000        2598          LA    RW4,DX0(RIN)         N1                                  14298021
 00121C 4140 B6F4      08FA4        2599        LA      RW4,PRSULT       DN                                      14304021
 001220 45E0 7766      0571E        2600 VROP27 BAL   RCS,GENSTR            GENERATE STRING                      14310021
 001224 9208 BF9F      0984F        2601          MVI   VARYSW+NX1,XX08     SET SW TO PRODUCE ADD STRING NEXT    14316021
 001228 5810 B090      08940        2602        L     RW1,ADFSBS           SET DISPL OF DEFSBS TABLE TO INCL     14322021
 00122C 5811 0000      00000        2603          L     RW1,DX0(RW1)         SUBSCRIPTED DN IN THE ADD STRING    14328021
1PH40     IKFCBL40                                                                                              PAGE   57
-  LOC  OBJECT CODE    ADDR1 ADDR2  STMT   SOURCE STATEMENT                                       ASM 0201 11.03 02/14/15
0001230 D201 1004 BE60 00004 09710  2604          MVC   DX4(LX2,RW1),LEFTSS                                      14334021
 001236 D201 B094 BE60 08944 09710  2605          MVC   DSPSBS(LX2),LEFTSS                                       14340021
 00123C D701 BF4C BF4C 097FC 097FC  2606          XC    STRCNT(LX2),STRCNT  SAVE STARTING DEFSBS DISPL           14346021
 001242 45E0 97CA      07622        2607        BAL     RCS,DUPSS          DUPLICATE SS FOR STORE-TERM OF AD     14352021
 001246 45E0 7566      0551E        2608        BAL     RCS,GETNXT          GET NEXT ENTITY                      14358021
 00124A D501 C000 A4E4 0988B 081DC  2609          CLC   GOTTEN(LX2),CBBY    DOES 'BY' FOLLOW                     14364021
 001250 4780 F636      012AE        2610        BC      EQ,VROP50            YES-RETURN TO MAIN BODY TO GENR     14370021
 001254 4100 A4E4      081DC        2611        LA      RA0,CBBY                BRANCH AND LGN FOR ADD           14376021
 001258 45E0 9BDA      07A32        2612        BAL     RCS,ERROR            NO - ERROR,ASSUME IT                14382021
 00125C 4110 A02A      07D22        2613        LA      RW1,ELST07                                               14388021
 001260 9601 BF74      09824        2614        OI      NEXTIN,MSWON        SAVE THIS -- MAY BE N2               14394021
 001264 47F0 F636      012AE        2615        BC      UNCOND,VROP50          EXIT TO MAIN ROUTINE              14400021
                                    2616 *                                                                       14406021
                                    2617 *      3RD OPERAND FOUND. PRODUCE ADD STRING                            14412021
                                    2618 *                                                                       14418021
 001268 45E0 99DE      07836        2619 VROP30 BAL     RCS,DECMAX         UPDATE DMAX                           14424021
 00126C 9536 B6F4      08FA4        2620        CLI   PRSULT,MINDNM         IS INDEX NAME BEING VARIED           14430021
 001270 4780 F63C      012B4        2621        BE    VROP31                YES                                  14436021
 001274 45E0 9A2E      07886        2622        BAL     RCS,PUPIR          GET NEW IR                            14442021
 001278 45E0 8068      06020        2623        BAL     RCS,STLOOP   STORE IN STRING                             14448021
 00127C 0007                        2624        DC    XL2'7'                STORE  7 ELEMENTS                    14454021
 00127E 4140 A55B      08253        2625        LA      RW4,ADDVRB          ADD                                  14460021
 001282 414C 0000      00000        2626          LA    RW4,DX0(RIN)         N2                                  14466021
 001286 4140 B6F4      08FA4        2627        LA      RW4,PRSULT         DN                                    14472021
 00128A 4140 BE11      096C1        2628        LA      RW4,IR              IR                                   14478021
 00128E 4140 A558      08250        2629        LA      RW4,PSTVRB         STORE                                 14484021
 001292 4140 BE11      096C1        2630        LA      RW4,IR              IR                                   14490021
 001296 4140 B678      08F28        2631        LA      RW4,PSTFLD          DN                                   14496021
 00129A 45E0 7A16      059CE        2632        BAL     RCS,GNARTH         GENERATE WITH EVAL AND IR INFO        14502021
 00129E 45E0 7F5C      05F14        2633 VROP32 BAL   RCS,PZSTRT            CLEAR TABLES                         14508021
 0012A2 4120 B048      088F8        2634        LA    RW2,ASTRNG                                                 14514021
 0012A6 4110 B090      08940        2635        LA    RW1,ADFSBS                                                 14520021
 0012AA 920C BF9F      0984F        2636          MVI   VARYSW+NX1,XX0C    SET SW FOR 1ST OPERAND OF NEXT VAR    14526021
                                    2637 *                                                                       14532021
                                    2638 *                           EXIT TO MAIN ROUTINE                        14538021
                                    2639 *                                                                       14544021
 0012AE 98E1 B464      08D14        2640 VROP50 LM      RCS,RW1,SVVROP                                           14550021
 0012B2 07FE                        2641        BCR     UNCOND,RCS          EXIT TO MAIN RTN                     14556021
 0012B4 45E0 8068      06020        2642 VROP31 BAL   RCS,STLOOP            STORE IN STRING                      14562021
 0012B8 0003                        2643        DC    XL2'3'                3 ENTITIES TO BE STORED              14568021
 0012BA 4140 BF45      097F5        2644        LA    RW4,SETUP                                                  14574021
 0012BE 4140 B6F4      08FA4        2645        LA    RW4,PRSULT      SET OP1 UP BY OP2                          14580021
 0012C2 414C 0000      00000        2646          LA    RW4,DX0(RIN)                                             14586021
 0012C6 45E0 7766      0571E        2647        BAL   RCS,GENSTR            GENERATE STRING                      14592021
 0012CA 47F0 F626      0129E        2648        B     VROP32                CLEAR TABLES BEFORE EXIT             14598021
                                    2649 *                                                                       14604021
                                    2650 *              LABEL DEFINITIONS FOR VARYTB ENTRIES                     14610021
                                    2651 *                 D U M M Y - DONT USE OUTSIDE OF THIS ROUTINE          14616021
                                    2652 *                                                                       14622021
 0012CE                      012C2  2653        ORG     *-12                ORIGIN FOR VARYTB                    14628021
 0012C2                             2654 CONDGN DS    3C                    DUMMY FOR CONDITIONAL  GN            14634021
 0012C5                             2655 VARYVN DS    3C                    DUMMY FOR VARYVN                     14640021
 0012C8                             2656 PLUSGN DS    3C                    DUMMY FOR INCR GN                    14646021
 0012CB                             2657 MOVEGN DS    3C                    DUMMY MOVEGN                         14652021
1PH40     IKFCBL40                                                                                              PAGE   58
-  LOC  OBJECT CODE    ADDR1 ADDR2  STMT   SOURCE STATEMENT                                       ASM 0201 11.03 02/14/15
0                                   2659 *=1    STOP    VERB                                                     14664021
                                    2660 *******************************************************************     14670021
                                    2661 *                                                                       14676021
                                    2662 *                                                                       14682021
                                    2663 *                                 STOP                                  14688021
                                    2664 *                                                                       14694021
                                    2665 *                                                                       14700021
                                    2666 *** STRING PRODUCED                                                     14706021
                                    2667 *      SOURCE - STOP OP                                                 14712021
                                    2668 *      OUTPUT - STOP OP                                                 14718021
                                    2669 *                                                                       14724021
                                    2670 *                                                                       14730021
                                    2671 *** SUBROUTINES CALLED                                                  14736021
                                    2672 *      GETNXT,RDUCOP,STOVRB,STOINP,GENSTR,ERROR                         14742021
                                    2673 *                                                                       14748021
                                    2674 *                                                                       14754021
                                    2675 *** ERROR PROCESSING                                                    14760021
                                    2676 *      IF NEITHER 'RUN' NOR LITERAL NOR FIGCON FOLLOWS,SKIP STATEME     14766021
                                    2677 *      IF 'RUN' IS FOUND IN DECLARATIVE SECTION OTHER THAN ERROR-       14772021
                                    2678 *       PROCESSING,GENERATE ANYHOW                                      14778021
                                    2679 *                                                                       14784021
                                    2680 *                                                                       14790021
                                    2681 *** NOTES                                                               14796021
                                    2682 *                                                                       14802021
                                    2683 *                                                                       14808021
                                    2684 *      IF 'STOP RUN' IS FOUND,PSKPGO SWITCH IS TURNED ON, TELLING       14814021
                                    2685 *             'ELSE' NOT TO GENERATE 'GO-TO-NEXT-SENTENCE'              14820021
                                    2686 *                                                                       14826021
                                    2687 *                                                                       14832021
                                    2688 *******************************************************************     14838021
-
-
                             012CE  2690          USING *,RVRB                                                   14850021
                             012CE  2691 STOP   EQU   *                                                          14856021
 0012CE 45E0 8166      0611E        2692        BAL     RCS,STOVRB          STORE VERB                           14862021
 0012D2 45E0 81AC      06164        2693        BAL     RCS,RDUCOP         IS IT A VALID DATA-OPERAND AT ALL     14868021
 0012D6 47F0 F018      012E6        2694        BC      UNCOND,STOP1         NO                                  14874021
 0012DA 9101 BE64      09714        2695        TM      MODE,MLITBT                                              14880021
 0012DE 4710 F026      012F4        2696        BC      ONES,STOP2           YES                                 14886021
 0012E2 47F0 F036      01304        2697        BC      UNCOND,STOP4       ILLEGAL OPERAND                       14892021
 0012E6 D501 C000 A416 0988B 0810E  2698 STOP1    CLC   GOTTEN(LX2),CBRUN   IS IT 'RUN'                          14898021
 0012EC 4770 F036      01304        2699        BC      NOTEQ,STOP4        NEITHER 'RUN' NOR LIT - ERROR         14904021
 0012F0 9601 BF6B      0981B        2700        OI      PSKPGO,MSWON       AVOID 'GO NEXT' IN ELSE               14910021
                                    2701 *                                                                       14916021
                                    2702 *              OPERAND FOUND                                            14922021
                                    2703 *                                                                       14928021
 0012F4 45E0 8048      06000        2704 STOP2  BAL     RCS,STOINP    GENER STRING AND EXIT                      14934021
 0012F8 45E0 7766      0571E        2705        BAL     RCS,GENSTR          GENERATE STRING                      14940021
 0012FC 45E0 7566      0551E        2706        BAL     RCS,GETNXT          GET THE NEXT ENTITY                  14946021
 001300 47F0 7000      04FB8        2707        BC      UNCOND,IDENT       GETNXT. EXIT                          14952021
                                    2708 *                                                                       14958021
1PH40     IKFCBL40                                                                                              PAGE   59
-  LOC  OBJECT CODE    ADDR1 ADDR2  STMT   SOURCE STATEMENT                                       ASM 0201 11.03 02/14/15
0                                   2709 *                                 ERRONEOUS OPERAND                     14964021
                                    2710 *                                                                       14970021
 001304 45E0 9BDA      07A32        2711 STOP4  BAL     RCS,ERROR           SKIP THE STMNT & WRITE MSG           14976021
 001308 4110 A00F      07D07        2712        LA      RW1,ELST04                                               14982021
 00130C 47F0 720C      051C4        2713        BC      UNCOND,IDERR        ERROR EXIT                           14988021
                                    2714 *                                                                       14994021
1PH40     IKFCBL40                                                                                              PAGE   60
-  LOC  OBJECT CODE    ADDR1 ADDR2  STMT   SOURCE STATEMENT                                       ASM 0201 11.03 02/14/15
0                                   2716 *=1    ARITH   VERBS ADD,SUBTRACT,MULTIPLY,DIVIDE                       15006021
                                    2717 *                                                                       15012021
                                    2718 *                                                                       15018021
                                    2719 *******************************************************************     15024021
                                    2720 *                                                                       15030021
                                    2721 *                                                                       15036021
                                    2722 *                           ADD, SUBTR,MULT,DIV                         15042021
                                    2723 *                                                                       15048021
                                    2724 *      RW6 IS LOADED WITH 0 FOR ADD, 2 FOR SUBTR, 4 FOR MULT,6 FOR      15054021
                                    2725 *                                                                       15060021
                                    2726 *        AND ALL ARE PROCESSED BY SAME ANALYZER. AT END OF STMNT ST     15066021
                                    2727 *        CALLED TO PROCESS STORE AND SIZE-ERROR AND TO GENR STRINGS     15072021
                                    2728 *                                                                       15078021
                                    2729 *      ARITH JUDGES BY THE VALUE OF RW6 WHICH COBOL WORDS TO LOOK F     15084021
                                    2730 *        WHETHER MULTIPLE OPERANDS ARE LEGAL, WHEN 'GIVING' CAN BE      15090021
                                    2731 *        EXPECTED, ETC.                                                 15096021
                                    2732 *                                                                       15102021
                                    2733 *                                                                       15108021
                                    2734 *      N O T E .  PHASE 3 COPIES THE SOURCE FORM OF AN ADD- OR          15114021
                                    2735 *       SUBTRACT-CORRESPONDING STATEMENT BEFORE THE EXPANSIONS. THE     15120021
                                    2736 *       END OF A SERIES OF EXPANSIONS IS MARKED BY THE COBOL WORD       15126021
                                    2737 *       'CORRESPONDING', ADDED BY PHASE 3.                              15132021
                                    2738 *                                                                       15138021
                                    2739 *                                                                       15144021
                                    2740 *** STRINGS PRODUCED   (BY STORAN)                                      15150021
                                    2741 *                                                                       15156021
                                    2742 *  EVAL               EVAL          EVAL            EVAL                15162021
                                    2743 *  OPN                OPN           OP3(OR OP2)     OP3(OR OP2)         15168021
                                    2744 *  ADD,5              ADD,5         MULT,5          DIV,5               15174021
                                    2745 *  OP1                OP1           OP1             OP1                 15180021
                                    2746 *  OP2                OP2           OP2             OP2                 15186021
                                    2747 *  IR1                IR1           IR1             IR1                 15192021
                                    2748 *  +                  +             ST              ST                  15198021
                                    2749 *  OP3                OP3           OP3(OR OP2)     OP3(OR OP2)         15204021
                                    2750 *  ADD,5              ADD,5         STORE,2         STORE,2             15210021
                                    2751 *  IR1                IR1           IR1             IR1                 15216021
                                    2752 *  OP3                OP3           OP3(OR OP2)     OP3(OR OP2)         15222021
                                    2753 *  IR2                IR2                                               15228021
                                    2754 *  +                  +(OR - IF NEXT VERB IS SUBTR)                     15234021
                                    2755 *  OP4                OP4                                               15240021
                                    2756 *  .                  .                                                 15246021
                                    2757 *  .                  .                                                 15252021
                                    2758 *  ADD,5            SUBTR,5                                             15258021
                                    2759 *  IRK              IRK                                                 15264021
                                    2760 *  OPM              OPM                                                 15270021
                                    2761 *  IRL              IRL                                                 15276021
                                    2762 *  ST               ST                                                  15282021
                                    2763 *  OPN              OPN                                                 15288021
                                    2764 *  STORE,2          STORE,2                                             15294021
                                    2765 *  IRL              IRL                                                 15300021
                                    2766 *  OPN              OPN                                                 15306021
                                    2767 *                                                                       15312021
                                    2768 *                                                                       15318021
                                    2769 *** SUBROUTINES CALLED                                                  15324021
                                    2770 *      GETNXT,GETALL,STOVRB,STOINP,STOR45,RDUCOP,ISOPAR,ISOPST,PMKT     15330021
1PH40     IKFCBL40                                                                                              PAGE   61
-  LOC  OBJECT CODE    ADDR1 ADDR2  STMT   SOURCE STATEMENT                                       ASM 0201 11.03 02/14/15
0                                   2771 *      DECMAX,PUPIR,PREMVV,PNSRTF,GOBACK,OPERR,ERROR                    15336021
                                    2772 *                                                                       15342021
                                    2773 *                                                                       15348021
                                    2774 *** ERROR PROCESSING                                                    15354021
                                    2775 *      ASSUME MISSING 'BY','INTO'. ASSUME MISSING 'TO' OR 'FROM' ON     15360021
                                    2776 *       WITHIN ADD OR SUBTR CORRESPONDING.                              15366021
                                    2777 *      SUBSTITUTE 'TALLY' FOR ILLEGAL OPERANDS                          15372021
                                    2778 *      SKIP STATEMENT IF OPERAND MISSING OR IF 'FROM' OR 'TO (GIVIN     15378021
                                    2779 *       MISSING IN ORDINARY SUBTR OR ADD                                15384021
                                    2780 *      GIVE WARNING BUT ACCEPT 'ADD ... TO ... GIVING...'               15390021
                                    2781 *                                                                       15396021
                                    2782 *                                                                       15402021
                                    2783 *** NOTES                                                               15408021
                                    2784 *      SEE COMMENTS ON MOVE ANALYZER FOR USE OF DRYRUN,CORRSW,OP1(2     15414021
                                    2785 *       IN PROCESSING CORRESPONDING OPTION                              15420021
                                    2786 *      WHEN 'ROUNDED' IS FOUND BIT IS SET IN EVAL STRING                15426021
                                    2787 *      EXIT IS TO STORAN TO FORM EVAL STRING AND PROCESS SIZE ERROR     15432021
                                    2788 *      SUBTRACT WITH MULTIPLE OPERANDS PRODUCES A SERIES OF ADD STR     15438021
                                    2789 *       ONLY THE LAST USES THE SUBTRACT VERB                            15444021
                                    2790 *      DMAX IS COMPUTED FOR ALL OPERANDS INCLUDING STORE-FIELD,         15450021
                                    2791 *       E X C E P T  DENOMINATOR OF DIVIDE AND SOURCE FORM OF COR-      15456021
                                    2792 *       RESPONDING. DECIMAL PLACES OF STORE-FIELD GOES TO DRSULT.       15462021
                                    2793 *      FINAL RESULT (LAST IR) IS MOVED TO PRSULT, STORE-FIELD TO PS     15468021
                                    2794 *      WHEN STORE-FIELD IS IDENTICAL TO LAST ADDEND (SUBTRAHEND,ETC     15474021
                                    2795 *       I.E., WHEN 'GIVING' IS NOT PRESENT -- AND IS SUBSCRIPTED, T     15480021
                                    2796 *       SS DEFINING STRINGS WITH DISTINCT ID'S ARE PRODUCED. THE FI     15486021
                                    2797 *       GOES WITH THE LAST ARITHMETIC STRING, THE SECOND WITH THE S     15492021
                                    2798 *       STRING.                                                         15498021
                                    2799 *      WHEN MULTIPLE STOREFIELDS ARE PRESENT IN ADD AND                 15504021
                                    2800 *      SUBTRACT STATEMENTS AND THERE ARE 2 OR MORE OPERANDS             15510021
                                    2801 *      BEFORE THE 'TO', A TR IS MOVED INTO PSTFLD THE FIRST             15516021
                                    2802 *      TIME THUS STORING THE LAST IR BEFORE THE TO IN TR. CONTROL       15522021
                                    2803 *      IS RETURNED TO THIS ROUTINE FROM STORAN IF RECSW                 15528021
                                    2804 *      IS ON, INDICATING MORE THAN ONE STOREFIELD.  IN THE              15534021
                                    2805 *      CASE WHERE TR IS USED, TR IS ADDED TO EACH STOREFIELD            15540021
                                    2806 *      SPECIFIED IN SOURCE.  IF 1 OP PRECEDES 'TO', VERB AND OP1        15546021
                                    2807 *      DISPLACEMENT IN STRING AND DSP IN DEFSBS FOR OP1 ARE             15552021
                                    2808 *      SAVED IN LEFTDP AND LEFTSS AND ADDED TO EACH STOREFIELD.         15558021
                                    2809 *******************************************************************     15564021
-
-
                             01310  2811        USING   *,RVRB                                                   15576021
                             01310  2812 ADD    EQU     *                                                        15582021
                             01310  2813 SUBTR  EQU     *                                                        15588021
                             01310  2814 MULT   EQU     *                                                        15594021
                             01310  2815 DIV    EQU     *                                                        15600021
 001310 1B66                        2816        SR      RW6,RW6        RW6 USED AS INDEX, SET TO 2 * VERBCOD     15606021
 001312 4360 BE49      096F9        2817          IC    RW6,VERB+NX1                                             15612021
 001316 8B60 0001      00001        2818          SLA   RW6,DX1                                                  15618021
 00131A D701 BEE5 BEE5 09795 09795  2819          XC    DMAX(LX2),DMAX      ZERO DMAX AND DRSULT                 15624021
 001320 D700 BE66 BE66 09716 09716  2820          XC    DCURR(LX1),DCURR    ZERO DCURR                           15630021
1PH40     IKFCBL40                                                                                              PAGE   62
-  LOC  OBJECT CODE    ADDR1 ADDR2  STMT   SOURCE STATEMENT                                       ASM 0201 11.03 02/14/15
0001326 94FE BF7B      0982B        2821        NI      ADDSW,MSWOFF       ERROR SWITCH FOR 'TO' AND 'GIVING     15636021
 00132A 94FE BFBF      0986F        2822        NI    REMSW,MSWOFF                                               15642021
 00132E 94FE BF75      09825        2823        NI      PFNDOP,MSWOFF                                            15648021
 001332 94FE BF6C      0981C        2824        NI   RECSW,MSWOFF  SWITCH FOR MULT REC FIELDS                    15654021
 001336 94FE BF6D      0981D        2825        NI  STFLD1,MSWOFF  SWITCH INDICATES WHETHER FIRST OF MULT        15660021
                                    2826 *                         REC FIELDS WAS PROCESSED                      15666021
 00133A 94FE BF6E      0981E        2827        NI    RNDSW,MSWOFF                                               15672021
 00133E 94FE BF71      09821        2828        NI    GIVESW,MSWOFF                                              15678021
 001342 94FE BF6F      0981F        2829        NI    LITSW,MSWOFF    SET ON IF OP1 LITERAL                      15684021
 001346 D701 BED4 BED4 09784 09784  2830          XC    SETSVD(LX2),SETSVD   INITIALIZE SAVED DISP IN SETTBL     15690021
 00134C D701 BE8A BE8A 0973A 0973A  2831          XC    LEFTDP(LX2),LEFTDP  INITIALIZE SAVED DISP LEFT           15696021
 001352 D701 BE60 BE60 09710 09710  2832          XC    LEFTSS(LX2),LEFTSS FOR MULT REC FIELDS WITH 1 OP         15702021
                                    2833 *                           BEFORE THE 'TO'                             15708021
 001358 D700 BEEA BEEA 0979A 0979A  2834          XC    SDMAX(LX1),SDMAX                                         15714021
 00135E D700 BFD7 BFD7 09887 09887  2835          XC    FLPTSW(LX1),FLPTSW   ZERO OUT FLOATING POINT SW          15720021
 001364 94FE BFD9      09889        2836         NI     DIVSW,MSWOFF                                             15726021
 001368 94FE BFD4      09884        2837         NI     ONSIZER,MSWOFF                                           15732021
 00136C 41E0 B770      09020        2838        LA      RCS,OPRND1         INIT. FOR SUBSCR- CORRESPONDING       15738021
 001370 50E0 BC68      09518        2839        ST      RCS,THISOP                                               15744021
 001374 9101 BF7A      0982A        2840        TM      CORRSW,MSWON       ARE WE WITHIN CORRESPONDING-SERIE     15750021
 001378 4710 F0C0      013D0        2841        BC      ONES,ARTH06         YES-OPTIONS ALREADY INITIALIZED      15756021
 00137C D702 BEE7 BEE7 09797 09797  2842          XC    DRSULT+NX1(LX3),DRSULT+NX1                               15762021
 001382 94FE BF91      09841        2843        NI      OP1SS,MSWOFF       TURN OFF SS SWITCH FOR OP1 IN COR     15768021
 001386 4960 A59E      08296        2844        CH      RW6,N2             IS VERB + OR -                        15774021
 00138A 4720 F0CC      013DC        2845        BC      HI,ARTH09            * OR /. INITIALIZATION COMPLETE     15780021
                                    2846 *                                                                       15786021
                                    2847 *                           VERB IS ADD OR SUBTRACT                     15792021
                                    2848 *                                                                       15798021
 00138E D501 C000 A340 0988B 08038  2849          CLC   GOTTEN(LX2),CBCORR  IS A CORRESPONDING-SERIES STARTIN    15804021
 001394 4780 F094      013A4        2850        BC      EQ,ARTH03           YES                                  15810021
 001398 4140 A55B      08253        2851        LA      RW4,ADDVRB         NO-STORE VERB (SUBTR USES + TILL      15816021
 00139C 45E0 8000      05FB8        2852        BAL     RCS,STOR45                         LAST OPERAND)         15822021
 0013A0 47F0 F0D0      013E0        2853        BC      UNCOND,ARTH12       OP1 FOUND                            15828021
                                    2854 *                                                                       15834021
                                    2855 *              'CORRESPONDING' FOUND                                    15840021
                                    2856 *                                                                       15846021
 0013A4 45E0 7566      0551E        2857 ARTH03 BAL     RCS,GETNXT           DISCARD 'CORRESPONDING'             15852021
 0013A8 4100 A660      08358        2858        LA      RA0,BCDDN          PARAM FOR POSSIBLE MSG 32             15858021
 0013AC 45E0 88C0      06878        2859        BAL     RCS,ISDTOP         IS IT A DATA OPERAND AT ALL           15864021
 0013B0 47F0 7204      051BC        2860        BC      UNCOND,IDGVUP       NO - GIVE UP                         15870021
 0013B4 9601 BF93      09843        2861        OI      DRYRUN,MSWON        SWITCH SAYS DONT STORE OR GENR       15876021
 0013B8 45E0 81AC      06164        2862        BAL     RCS,RDUCOP          REDUCE SUBSCRIPT,IF ANY              15882021
 0013BC 47F0 9DBC      07C14        2863        BC      UNCOND,OPERR          SUBSCRIPTING ERROR,GIVE UP SER     15888021
 0013C0 9531 C000      0988B        2864        CLI     GOTTEN,MSS          WAS IT SUBSCRIPTED                   15894021
 0013C4 4770 F10C      0141C        2865        BC      NOTEQ,ARTH15         NO                                  15900021
 0013C8 9601 BF91      09841        2866        OI      OP1SS,MSWON           SW SAYS EACH OP1 IN SERIES MUS     15906021
 0013CC 47F0 F10C      0141C        2867        BC      UNCOND,ARTH15        MADE SSID. SEEK COBOL WORD          15912021
                                    2868 *                                                                       15918021
                                    2869 *                           INITIALIZATIONS COMPLETED                   15924021
                                    2870 *                                                                       15930021
 0013D0 9101 BF91      09841        2871 ARTH06 TM      OP1SS,MSWON        IN CORRESPONDING-SERIES TURN ON       15936021
 0013D4 4780 F0CC      013DC        2872        BC      ZERO,ARTH09         SWITCH FOR SUBSCR IF DRY-RUN         15942021
 0013D8 9601 BF94      09844        2873        OI      OPSSSW,MSWON        FOUND OP-1 TO BE SUBSCRIPTED         15948021
 0013DC 45E0 8166      0611E        2874 ARTH09 BAL     RCS,STOVRB     STORE *,/,+(CORR),-(CORR) IN STRING       15954021
                             013E0  2875 ARTH12 EQU     *                                                        15960021
1PH40     IKFCBL40                                                                                              PAGE   63
-  LOC  OBJECT CODE    ADDR1 ADDR2  STMT   SOURCE STATEMENT                                       ASM 0201 11.03 02/14/15
00013E0 45E0 8AE0      06A98        2876        BAL     RCS,ISOPAR         IS 1ST OPERAND LEGAL FOR ARITHMET     15966021
 0013E4 45E0 F59A      018AA        2877        BAL     RCS,ARTH90          NO- SEE IF RECOVERABLE ERROR         15972021
                                    2878 *                                                                       15978021
                                    2879 *                           LEGAL 1ST OPERAND FOUND                     15984021
                                    2880 *                                                                       15990021
 0013E8 4960 A5A6      0829E        2881        CH      RW6,N6             IS VERB DIVIDE                        15996021
 0013EC 4780 F6AE      019BE        2882        BC    EQ,ARDIVIDE           YES                                  16002021
 0013F0 45E0 99DE      07836        2883        BAL     RCS,DECMAX            NO - UPDATE DMAX OF STATEMENT      16008021
 0013F4 45E0 8048      06000        2884        BAL     RCS,STOINP         STORE OPRND IN STRING                 16014021
 0013F8 D201 BE8A B04C 0973A 088FC  2885          MVC   LEFTDP(LX2),DSPSTR SAVE DISP OF VERB AND OP1             16020021
 0013FE D201 BE60 B094 09710 08944  2886          MVC   LEFTSS(LX2),DSPSBS SAVE DISP FROM DEFSBS                 16026021
 001404 9101 BE64      09714        2887        TM    MODE,MLITBT   IS OP1 A LITERAL                             16032021
 001408 4780 F104      01414        2888        BZ    *+12    NO                                                 16038021
 00140C 9601 BF6F      0981F        2889        OI    LITSW,MSWON                                                16044021
 001410 47F0 F10C      0141C        2890        B     ARTH15                OP1 IS A LITERAL                     16050021
 001414 45E0 76EC      056A4        2891        BAL   RCS,GETALL            MOVE OP1 TO SAVE AREA                16056021
 001418 4120 BB70      09420        2892        LA    RW2,SAVE1OP    SAVE OP1 TO POSSIBLY STORE IN TR            16062021
 00141C 41E0 B870      09120        2893 ARTH15 LA      RCS,OPRND2         INIT. FOR SUBSCR-CORRESPONDING        16068021
 001420 50E0 BC68      09518        2894        ST      RCS,THISOP                                               16074021
 001424 9101 BF7A      0982A        2895        TM      CORRSW,MSWON       WITHIN CORRESPONDING SERIES TURN      16080021
 001428 4780 F12C      0143C        2896        BC      ZERO,ARTH18          SWITCH FOR SUBSCR IF DRY-RUN        16086021
 00142C 9101 BF92      09842        2897        TM      OP2SS,MSWON          FOUND OP-2 TO BE SUBSCRIPTED        16092021
 001430 4780 F130      01440        2898        BC      ZERO,ARTH21         NOT SUBSCRIPTED                      16098021
 001434 9601 BF94      09844        2899        OI      OPSSSW,MSWON                                             16104021
 001438 47F0 F130      01440        2900        BC      UNCOND,ARTH21       SW ON FOR SUBSCR RTN & GETNXT        16110021
 00143C 94FE BF92      09842        2901 ARTH18 NI      OP2SS,MSWOFF       TURN OFF SS SWITCH WHEN NOT IN CO     16116021
 001440 45E0 7566      0551E        2902 ARTH21 BAL     RCS,GETNXT          GET THE NEXT ENTITY                  16122021
                                    2903 *                                                                       16128021
                                    2904 *                           COBOL WORD EXPECTED                         16134021
                                    2905 *                                                                       16140021
 001444 4156 A4E0      081D8        2906 ARTH24 LA      RW5,CBTO(RW6)                                            16146021
 001448 D501 C000 5000 0988B 00000  2907          CLC   GOTTEN(LX2),DX0(RW5) IS IT APPROPRIATE COBOL WORD        16152021
 00144E 4780 F1C4      014D4        2908        BC      EQ,ARTH39           YES                                  16158021
 001452 9101 BF93      09843        2909        TM      DRYRUN,MSWON     NO - ARE WE IN SOURCE FORM OF 'CORR     16164021
 001456 4710 F1B4      014C4        2910        BC      ONES,ARTH36           IF SO-ERROR                        16170021
 00145A 4960 A59E      08296        2911        CH      RW6,N2               NO - IS VERB * OR /                 16176021
 00145E 4720 F1B4      014C4        2912        BC      HI,ARTH36            YES-ERROR                           16182021
 001462 4780 F18C      0149C        2913        BC      EQ,ARTH33           VERB IS -                            16188021
 001466 D501 C000 A34C 0988B 08044  2914          CLC   GOTTEN(LX2),CBGIVE  VERB IS +,'GIVING' POSSIBLE          16194021
 00146C 4770 F18C      0149C        2915        BC      NOTEQ,ARTH33        NO                                   16200021
 001470 9101 BF75      09825        2916        TM      PFNDOP,MSWON       YES, 'GIVING' - HAVE WE HAD 2 OPS     16206021
 001474 4780 F180      01490        2917        BC      ZERO,ARTH30          NO                                  16212021
 001478 4140 0002      00002        2918 ARTH26   LA    RW4,DX2              YES-REMOVE LAST 2 ENTRIES FROM      16218021
 00147C 5810 B048      088F8        2919 ARTH27 L       RW1,ASTRNG           STRING (ENTERED BY ARTHIR)          16224021
 001480 45E0 7D8E      05D46        2920        BAL     RCS,PREMVV          REMOVE VARIBLE-LENGTH                16230021
 001484 4140 0000      00000        2921          LA    RW4,DX0               (DUMMY)                            16236021
 001488 4640 F16C      0147C        2922        BCT     RW4,ARTH27          NO LOOP                              16242021
 00148C 47F0 F26E      0157E        2923        BC      UNCOND,ARTH57      GO STORE RESULT-FIELD IR              16248021
 001490 45E0 9BDA      07A32        2924 ARTH30 BAL     RCS,ERROR           WRITE ERROR MESSAGE                  16254021
 001494 4110 A093      07D8B        2925        LA      RW1,ELST18                                               16260021
 001498 47F0 720C      051C4        2926        BC      UNCOND,IDERR        ERROR EXIT                           16266021
                                    2927 *                                                                       16272021
                                    2928 *      OPERAND OF ADD- OR SUBTRACT-SERIES FOUND (I.E.,NO CB WORD YE     16278021
                                    2929 *                                                                       16284021
 00149C 94FE BF6F      0981F        2930 ARTH33 NI    LITSW,MSWOFF   NOT SINGLE LITERAL BEFORE TO                16290021
1PH40     IKFCBL40                                                                                              PAGE   64
-  LOC  OBJECT CODE    ADDR1 ADDR2  STMT   SOURCE STATEMENT                                       ASM 0201 11.03 02/14/15
00014A0 45E0 8AE0      06A98        2931        BAL   RCS,ISOPAR            IS IT LEGAL OPERAND                  16296021
 0014A4 45E0 F548      01858        2932          BAL   RCS,ARTH80          NO-SEE IF RECOVERABLE ERROR          16302021
 0014A8 45E0 F642      01952        2933        BAL     RCS,ARTHIR         YES- STORE IT AND NEW IR IN STRIN     16308021
 0014AC 4140 A55B      08253        2934        LA      RW4,ADDVRB         REPEAT ADD VERB IN STRING             16314021
 0014B0 45E0 8000      05FB8        2935        BAL     RCS,STOR45          STORE VERB IN STRING                 16320021
 0014B4 4140 BE11      096C1        2936        LA      RW4,IR             STORE IR AS 1ST OPRND OF NEW GROU     16326021
 0014B8 45E0 8000      05FB8        2937        BAL     RCS,STOR45          STORE IR IN STRING                   16332021
 0014BC 9601 BF75      09825        2938        OI      PFNDOP,MSWON       SW TESTED AT ARITH4 TO INSURE         16338021
                                    2939 *                                    2 OPERANDS FOR 'ADD...GIVING'      16344021
 0014C0 47F0 F134      01444        2940        BC      UNCOND,ARTH24       RETURN TO SEEK COBOL WORD            16350021
                                    2941 *                                                                       16356021
                                    2942 *              COBOL WORD MISSING FOR * OR /                            16362021
                                    2943 *                                                                       16368021
 0014C4 4106 A4E0      081D8        2944 ARTH36 LA      RA0,CBTO(RW6)                                            16374021
 0014C8 45E0 9BDA      07A32        2945        BAL     RCS,ERROR           WRITE MESSAGE                        16380021
 0014CC 4110 A02A      07D22        2946        LA      RW1,ELST07                                               16386021
 0014D0 47F0 F1C8      014D8        2947        BC      UNCOND,ARTH42       ASSUME IT AND SEEK STORE-FIELD       16392021
                                    2948 *                                                                       16398021
                                    2949 *                           APPROPRIATE COBOL WORD FOUND                16404021
                                    2950 *                                                                       16410021
 0014D4 45E0 7566      0551E        2951 ARTH39 BAL     RCS,GETNXT          DISCARD IT                           16416021
 0014D8 9101 BF93      09843        2952 ARTH42 TM      DRYRUN,MSWON       ARE WE IN SOURCE-FORM OF CORR.        16422021
 0014DC 4780 F1F4      01504        2953        BC      ZERO,ARTH45         NO - GO PROCESS STORE-FIELD          16428021
 0014E0 45E0 81AC      06164        2954        BAL     RCS,RDUCOP           YES- IS THIS LEGAL DATA-NAME        16434021
 0014E4 47F0 9DBC      07C14        2955        BC      UNCOND,OPERR           NO-DELETE WHOLE SERIES            16440021
 0014E8 9101 BE64      09714        2956        TM      MODE,MLITBT                                              16446021
 0014EC 4770 9DBC      07C14        2957        BC      NOTZER,OPERR           NO                                16452021
 0014F0 45E0 7566      0551E        2958        BAL     RCS,GETNXT          GET NEXT ENTITY                      16458021
 0014F4 9531 BAF4      093A4        2959        CLI     CURENT,MSS         WAS OPERAND SUBSCRIPTED               16464021
 0014F8 4770 F2C0      015D0        2960        BC      NOTEQ,ARTH66        NO - GO SEEK 'ROUNDED'               16470021
 0014FC 9601 BF92      09842        2961        OI      OP2SS,MSWON           YES-SW SAYS EACH OP2 IN SERIES     16476021
 001500 47F0 F2C0      015D0        2962        BC      UNCOND,ARTH66       MUST BE MADE SSID. SEEK 'ROUNDED     16482021
 001504 4960 A59E      08296        2963 ARTH45 CH      RW6,N2              WHICH VERB                           16488021
 001508 4740 F216      01526        2964        BC      LO,ARTH48             +                                  16494021
 00150C 4720 F21A      0152A        2965        BC      HI,ARTH54             * OR /                             16500021
                                    2966 *                                                                       16506021
                                    2967 *                           'FROM' FOUND FOR SUBTRACT                   16512021
                                    2968 *                                                                       16518021
 001510 5810 B048      088F8        2969        L       RW1,ASTRNG         CHANGE LAST VERB IN STRING AREA T     16524021
 001514 45E0 7FCE      05F86        2970        BAL     RCS,GOBACK         POINT RW1 TO LAST VERB                16530021
 001518 0002                        2971        DC    XL2'2'                GOBACK NEXT TO LAST                  16536021
 00151A 5820 BC74      09524        2972        L     RW2,ADNTRY                                                 16542021
 00151E 9201 2001      00001        2973          MVI   DX1(RW2),MINCOD     MAKE VERB MINUS                      16548021
 001522 47F0 F21A      0152A        2974        BC      UNCOND,ARTH54       PROCESS THE NEXT OPERAND             16554021
                                    2975 *                                                                       16560021
                                    2976 *                           SEEK STORE-FIELD                            16566021
                                    2977 *                                                                       16572021
 001526 9601 BF7B      0982B        2978 ARTH48 OI      ADDSW,MSWON       SWITCH INHIBITS 'GIVING' FOR ADD       16578021
 00152A D201 BF4C B094 097FC 08944  2979 ARTH54   MVC   STRCNT(LX2),DSPSBS  SAVE DEFSBS DISPL. FOR ARTH 69       16584021
 001530 D501 C000 A4E0 0988B 081D8  2980          CLC   GOTTEN(LX2),CBTO    IS THIS COBOL TO OF ADD        53115 16590021
 001536 4770 F23C      0154C        2981          BNE   ARTH48A             IT IS ERROR-SECOND TO OF ADD   53115 16596021
 00153A 180C                        2982          LR    RA0,RIN             THIS IS SECOND TO FOR ADD      53115 16602021
 00153C 45E0 9BDA      07A32        2983          BAL   RCS,ERROR           GENERATE E MSG FOR EXTRA TO    53115 16608021
 001540 4110 A02A      07D22        2984          LA    RW1,ELST07                                         53115 16614021
 001544 45E0 7566      0551E        2985          BAL   RCS,GETNXT          GET NEXT  INPUT TEXT           53115 16620021
1PH40     IKFCBL40                                                                                              PAGE   65
-  LOC  OBJECT CODE    ADDR1 ADDR2  STMT   SOURCE STATEMENT                                       ASM 0201 11.03 02/14/15
0001548 47F0 F502      01812        2986          B     AFTSTR              GO TO END OF STORE RTN         53115 16626021
 00154C                             2987 ARTH48A  DS    0H                                                 53115 16632021
 00154C 45E0 8AE0      06A98        2988        BAL     RCS,ISOPAR         IS NEXT A LEGAL ARITHMETIC OPERAN     16638021
 001550 45E0 F59A      018AA        2989        BAL     RCS,ARTH90         NO - SEE IF RECOVERABLE ERROR         16644021
 001554 45E0 76EC      056A4        2990        BAL   RCS,GETALL     YES-SAVE TEMPORARILY SINCE                  16650021
 001558 4120 BBEC      0949C        2991         LA  RW2,SAVESTOR      TR MIGHT BE NEEDED                        16656021
 00155C D200 BEEA BEE5 0979A 09795  2992          MVC   SDMAX(LX1),DMAX SAVE DMAX FOR OPS BEFORE TO              16662021
 001562 9101 BFD9      09889        2993         TM     DIVSW,MSWON         WAS IT DIVIDE                        16668021
 001566 4780 F26A      0157A        2994         BZ     ARTH55              NO                                   16674021
 00156A 9202 BFD6      09886        2995         MVI    MASK,MB2            SET UP MASK                          16680021
 00156E 5020 B558      08E08        2996         ST     RW2,RW2SAVE         SAVE RW2                             16686021
 001572 4120 BBEC      0949C        2997         LA     RW2,SAVESTOR        GET ADDR OF THE OPERAND              16692021
 001576 45E0 F806      01B16        2998         BAL    RCS,CHKFLPT         CHECK IF OPERAND IS FL PT            16698021
 00157A 45E0 F642      01952        2999 ARTH55  BAL    RCS,ARTHIR          UPDATE DECMAX,ADD IR TO STRING       16704021
 00157E D202 B6F4 BE11 08FA4 096C1  3000 ARTH57   MVC   PRSULT(LX3),IR      MOVE IR TO RESULT FIELD              16710021
                                    3001 *                                                                       16716021
                                    3002 *      WAS LAST THE REAL STORE-FIELD, OR IS THERE 'GIVING'              16722021
                                    3003 *                                                                       16728021
 001584 D501 C000 A34C 0988B 08044  3004          CLC   GOTTEN(LX2),CBGIVE  IS IT 'GIVING'                       16734021
 00158A 4770 F514      01824        3005        BC      NOTEQ,ARTH69       NO-MAKE SURE STORE-FIELD IS NOT A     16740021
 00158E 9101 BF7B      0982B        3006        TM      ADDSW,MSWON        YES - WAS THERE 'ADD TO ...'GIVIN     16746021
 001592 4780 F292      015A2        3007        BC      ZERO,ARTH60           NO - OK                            16752021
 001596 4100 A4E0      081D8        3008        LA      RA0,CBTO                                                 16758021
 00159A 45E0 9BDA      07A32        3009        BAL     RCS,ERROR           WRITE MESSAGE                        16764021
 00159E 4110 A033      07D2B        3010        LA      RW1,ELST08                                               16770021
 0015A2 45E0 7566      0551E        3011 ARTH60 BAL     RCS,GETNXT          GET NEXT ENTITY                      16776021
 0015A6 45E0 8A9C      06A54        3012        BAL     RCS,ISOPST         IS NEXT LEGAL STORE OPERAND           16782021
 0015AA 47F0 F396      016A6        3013        BC    UNCOND,ARTH61            CHECK IF IN SETTBL                16788021
 0015AE 9601 BF71      09821        3014        OI    GIVESW,MSWON                                               16794021
                             015B2  3015 ARTH625 EQU    *                                                        16800021
 0015B2 9101 BFD9      09889        3016         TM     DIVSW,MSWON         WAS IT DIVIDE                        16806021
 0015B6 4780 F2BA      015CA        3017         BZ     ARTH63              NO                                   16812021
                             015BA  3018 ARTH635 EQU    *                                                        16818021
 0015BA 9204 BFD6      09886        3019         MVI    MASK,MB4            SET UP MASK                          16824021
 0015BE 5020 B558      08E08        3020         ST     RW2,RW2SAVE         SAVE RW2                             16830021
 0015C2 4120 B678      08F28        3021         LA     RW2,PSTFLD          GET ADDRESS OF SAVED OPERAND         16836021
 0015C6 45E0 F806      01B16        3022         BAL    RCS,CHKFLPT         CHECK IF OPERAND IS FL PT            16842021
                                    3023 *                  EXIT  -  STORE-OPERAND ESTABLISHED                   16848021
                                    3024 *                                                                       16854021
 0015CA D200 BEE6 BE66 09796 09716  3025 ARTH63   MVC   DRSULT(LX1),DCURR   MOVE ITS DEC. LENGTH TO EVAL STRI    16860021
 0015D0 94FE BF6C      0981C        3026 ARTH66 NI    RECSW,MSWOFF                                               16866021
 0015D4 9101 BF7A      0982A        3027        TM    CORRSW,MSWON        IS IT CORRESPONDING                    16872021
 0015D8 4710 F2EC      015FC        3028        BO    ARITHMET            YES-LEAVE ROUNDED AS ORIG SET          16878021
 0015DC D700 BEE7 BEE7 09797 09797  3029          XC    DRSULT+NX1(LX1),DRSULT+NX1 NO- REINIT TO NOROUND         16884021
 0015E2 91FF BFD3      09883        3030        TM    SETRIN,MFF            ARE WE AT END OF SETTBL              16890021
 0015E6 4710 F330      01640        3031        BO    AREX0                 END OF SETTBMOVE STFLD AND EXIT      16896021
 0015EA D501 C000 A412 0988B 0810A  3032          CLC   GOTTEN(LX2),CBROUN IS IT ROUNDED                         16902021
 0015F0 4770 F2EC      015FC        3033        BNE  ARITHMET   NO-SEEK IF END                                   16908021
 0015F4 45E0 7566      0551E        3034        BAL  RCS,GETNXT    YES                                           16914021
 0015F8 9601 BEE7      09797        3035 RNDOP    OI    DRSULT+NX1,MSWON     TURN ON ROUNDED SW                  16920021
 0015FC 9101 BF93      09843        3036 ARITHMET TM  DRYRUN,MSWON  SOURCE FORM CORR                             16926021
 001600 4710 F338      01648        3037        BO AREX   YES- EXIT                                              16932021
 001604 9101 BF71      09821        3038        TM    GIVESW,MSWON    WAS THERE A GIVING                         16938021
 001608 4710 F33E      0164E        3039        BO    AREX1                 SEE IF DIVIDE                        16944021
 00160C 91FF BFD3      09883        3040          TM    SETRIN,MFF          IS THIS LAST                   55163 16950021
1PH40     IKFCBL40                                                                                              PAGE   66
-  LOC  OBJECT CODE    ADDR1 ADDR2  STMT   SOURCE STATEMENT                                       ASM 0201 11.03 02/14/15
0001610 4710 F330      01640        3041          BO    AREX0               YES BRANCH                     55163 16956021
 001614                             3042 CHKDN   DS   0H                                                   40183 16962021
 001614 9130 C000      0988B        3043        TM  GOTTEN,MDN   IS NEXT A POSSIBE STORE FIELD                   16968021
 001618 47E0 F330      01640        3044          BNO   AREX0               NOT DN                         53115 16974021
 00161C 4960 A5A2      0829A        3045         CH     RW6,N4              YES, WHICH VERB                      16980021
 001620 4740 F3AE      016BE        3046         BC     LO,ARTH68           + OR -                               16986021
 001624 4100 A34C      08044        3047         LA     RA0,CBGIVE                                               16992021
 001628 45E0 9BDA      07A32        3048         BAL    RCS,ERROR           ASSUME GIVING                        16998021
 00162C 4110 A02A      07D22        3049         LA     RW1,ELST07          ISSUE ERROR MESSAGE                  17004021
 001630 45E0 8A9C      06A54        3050         BAL    RCS,ISOPST          IS IT LEGAL STORE FIELD              17010021
 001634 47F0 720C      051C4        3051         BC     UNCOND,IDERR        NO, ERROR EXIT                       17016021
 001638 9601 BF71      09821        3052         OI     GIVESW,MSWON        YES, SET GIVESW ON                   17022021
 00163C 47F0 F2A2      015B2        3053         BC     UNCOND,ARTH625      PROCESS STORE FIELD                  17028021
                                    3054 *DEL                                                                    17034021
                                    3055 *DEL                                                                    17040021
                                    3056 *DEL                                                                    17046021
                                    3057 *DEL                                                                    17052021
                                    3058 *DEL                                                                    17058021
                                    3059 *DEL                                                                    17064021
                                    3060 *DEL                                                                    17070021
                                    3061 *DEL                                                                    17076021
                                    3062 *DEL                                                                    17082021
                                    3063 *DEL                                                                    17088021
                                    3064 *DEL                                                                    17094021
                                    3065 *DEL                                                                    17100021
                                    3066 *DEL                                                                    17106021
                                    3067 *DEL                                                                    17112021
                                    3068 *DEL                                                                    17118021
                                    3069 *DEL                                                                    17124021
                                    3070 *DEL                                                                    17130021
                                    3071 *DEL                                                                    17136021
                                    3072 *DEL                                                                    17142021
                                    3073 *DEL                                                                    17148021
                                    3074 *DEL                                                                    17154021
                                    3075 *DEL                                                                    17160021
 001640 45E0 F664      01974        3076 AREX0  BAL   RCS,ARTH665           NO                                   17166021
 001644 45E0 97CA      07622        3077        BAL   RCS,DUPSS       SUPPLY SS DUP FOR STFLD IF NEC             17172021
 001648 58F0 A300      07FF8        3078 AREX   L RVRB,ASTOR  EXIT TO STORAN                                     17178021
 00164C 07FF                        3079          BR    RVRB                STORE ANALYZER                       17184021
 00164E 4960 A5A6      0829E        3080 AREX1  CH    RW6,N6                IS IT DIVIDE                         17190021
 001652 4770 F338      01648        3081        BNE   AREX    NO- EXIT- STFLD ALREADY PROCESSED                  17196021
 001656 D501 C000 A52E 0988B 08226  3082          CLC   GOTTEN(LX2),CBREM    IS IT REMAINDER OPTION              17202021
 00165C 4770 F338      01648        3083        BNE   AREX                 NO                                    17208021
                                    3084 *  DIVIDE REMAINDER FOUND                                               17214021
 001660 45E0 7566      0551E        3085        BAL   RCS,GETNXT            SAVE REMAINDER STOREFIELD            17220021
 001664 45E0 76EC      056A4        3086        BAL   RCS,GETALL            MOVE REMAINDER TO SAVE AREA          17226021
 001668 4120 BBEC      0949C        3087        LA    RW2,SAVESTOR                                               17232021
 00166C 9208 BFD6      09886        3088         MVI    MASK,MB8            SET UP MASK                          17238021
 001670 5020 B558      08E08        3089         ST     RW2,RW2SAVE         SAVE RW2                             17244021
 001674 4120 BBEC      0949C        3090         LA     RW2,SAVESTOR        GET ADDR OF THE OPERAND              17250021
 001678 45E0 F806      01B16        3091         BAL    RCS,CHKFLPT         CHECK IF OPERAND IS FL PT            17256021
 00167C D201 BE60 B094 09710 08944  3092          MVC   LEFTSS(LX2),DSPSBS   SAVE SS DISP                        17262021
 001682 D201 BE8A B04C 0973A 088FC  3093          MVC   LEFTDP(LX2),DSPSTR   AND DISP IN STRING                  17268021
 001688 45E0 7566      0551E        3094        BAL   RCS,GETNXT            GET NEXT ENTITY                      17274021
 00168C 9601 BFBF      0986F        3095        OI    REMSW,MSWON           SIGNAL DIVIDE REM FOUNDP             17280021
1PH40     IKFCBL40                                                                                              PAGE   67
-  LOC  OBJECT CODE    ADDR1 ADDR2  STMT   SOURCE STATEMENT                                       ASM 0201 11.03 02/14/15
0001690 9500 BFD7      09887        3096         CLI    FLPTSW,MZERO        WAS THERE ANY FL PT DATA ITEM        17286021
 001694 4770 F338      01648        3097         BNE    AREX                YES - EXIT TO STORAN                 17292021
 001698 45E0 9A50      078A8        3098         BAL    RCS,PUPTR           GET UPDATED TR                       17298021
 00169C D201 BEE8 BE16 09798 096C6  3099          MVC   DRSULT+NX2(LX2),TR+NX1 SIGNAL TR IS USED IN REM CAL      17304021
 0016A2 47F0 F338      01648        3100        BC    UNCOND,AREX           EXIT                                 17310021
 0016A6 9101 BFD3      09883        3101 ARTH61 TM    SETRIN,MSWON         RIN IN SETTBL OR INPUT BUFFER         17316021
 0016AA 4780 720C      051C4        3102        BZ    IDERR            INPUT BUFFER- EXIT                        17322021
 0016AE 18C5                        3103        LR    RIN,RW5                                                    17328021
 0016B0 50C0 BC70      09520        3104        ST    RIN,TRUPNT          RESTORE RIN AND TRUPNT                 17334021
 0016B4 D700 BFD3 BFD3 09883 09883  3105          XC    SETRIN(LX1),SETRIN                                       17340021
 0016BA 47F0 720C      051C4        3106        B    IDERR           ERROR %EXIT                                 17346021
                                    3107 *                                                                       17352021
                                    3108 *                                                                       17358021
                                    3109 *ASSUME MORE THAN ONE STORE FIELD                                       17364021
                                    3110 *                                                                       17370021
                                    3111 *                                                                       17376021
 0016BE 9601 BF6C      0981C        3112 ARTH68 OI  RECSW,MSWON  SIGNAL TO STORAN TO RETURN TO THIS ROUTINE      17382021
 0016C2 9101 BF6D      0981D        3113        TM   STFLD1,MSWON   WAS 1ST ALREADY PROCESSED                    17388021
 0016C6 4710 F3C2      016D2        3114       BO  ADDREC   YES                                                  17394021
 0016CA 9101 BF6F      0981F        3115        TM    LITSW,MSWON  OP1 LITERAL                                   17400021
 0016CE 4780 F3D0      016E0        3116        BZ    AR000  NO- REMOVE LAST 4 ENTRIES- TR NEEDED                17406021
 0016D2 45E0 F664      01974        3117 ADDREC    BAL  RCS,ARTH665   NO- TR NOT NEEDED                          17412021
 0016D6 45E0 97CA      07622        3118        BAL   RCS,DUPSS       SUPPLY SS DUP FOR STFLD IF NEC             17418021
 0016DA 58F0 A300      07FF8        3119        L  RVRB,ASTOR                                                    17424021
 0016DE 07FF                        3120      BR RVRB                       STORE ANALYZER                       17430021
 0016E0 45E0 9A50      078A8        3121 AR000  BAL  RCS,PUPTR  YES- GET UPDATED TR                              17436021
 0016E4 D202 B678 BE15 08F28 096C5  3122          MVC   PSTFLD(LX3),TR MOVE TR TO STOREFIELD FIRST               17442021
 0016EA D700 BEE5 BEEA 09795 0979A  3123          XC    DMAX(LX1),SDMAX                                          17448021
 0016F0 D700 BEEA BEE5 0979A 09795  3124          XC    SDMAX(LX1),DMAX                                          17454021
 0016F6 D700 BEE5 BEEA 09795 0979A  3125          XC    DMAX(LX1),SDMAX                                          17460021
                                    3126 *  DMAX NOW CONTAINS MAX DEC FOR OPS BEFORE TO                          17466021
                                    3127 *  SDMAX HAS MAX DEC PLACES INCLUDING STFLD                             17472021
 0016FC D200 BEE6 BEE5 09796 09795  3128          MVC   DRSULT(LX1),DMAX                                         17478021
 001702 4140 0004      00004        3129          LA    RW4,DX4       REMOVE LAST FOUR ENTRIES FROM STRING       17484021
 001706 5810 B048      088F8        3130 AROUND L   RW1,ASTRNG                                                   17490021
 00170A 45E0 7D8E      05D46        3131        BAL   RCS,PREMVV            REMOVE VARIABLE-LENGTH               17496021
 00170E 4140 0000      00000        3132          LA    RW4,DX0                                                  17502021
 001712 4640 F3F6      01706        3133        BCT   RW4,AROUND            LOOP BACK UNTIL DONE                 17508021
 001716 4810 BE12      096C2        3134          LH    RW1,IR+NX1                                               17514021
 00171A 0610                        3135        BCTR  RW1,RA0               STORE IR'S                           17520021
 00171C 4010 BE12      096C2        3136          STH   RW1,IR+NX1                                               17526021
 001720 9101 BF75      09825        3137        TM    PFNDOP,MSWON   MORE THAN 1 OP BEFORE TO                    17532021
 001724 4710 F41C      0172C        3138        BO    *+8                   YES                                  17538021
 001728 45E0 F68A      0199A        3139        BAL    RCS,SVRES   1 OP BEFORE TO- MOVE OP1 TO PRSULT            17544021
 00172C D202 B6F4 BE11 08FA4 096C1  3140          MVC   PRSULT(LX3),IR                                           17550021
 001732 D701 BE62 BE62 09712 09712  3141          XC    TRSS(LX2),TRSS                                           17556021
 001738 9531 BBEC      0949C        3142        CLI   SAVESTOR,MSS    IS STOREFIELD SUBSCRIPTED                  17562021
 00173C 4770 F44A      0175A        3143        BNE   CKRND    NO SEE IF ROUNDED                                 17568021
 001740 D201 BE62 B094 09712 08944  3144          MVC   TRSS(LX2),DSPSBS   SAVE CURRENT DISPLACEMENT DEFSBS      17574021
 001746 D201 B094 BF4C 08944 097FC  3145          MVC   DSPSBS(LX2),STRCNT PUT PREVIOUS DISPLACEMENT IN DSPSB    17580021
                                    3146 *                          SO THAT GNARTH WILL NOT GENERATE LAST        17586021
 00174C 5810 B090      08940        3147        L     RW1,ADFSBS     GET TIB ADDRESS OF SS TAB                   17592021
 001750 5821 0000      00000        3148          L     RW2,DX0(RW1) ADDRESS OF TAMM                             17598021
 001754 D201 2004 BF4C 00004 097FC  3149          MVC   DX4(LX2,RW2),STRCNT DECREMENT DISPLACEMENT IN TAMM       17604021
 00175A 9101 BEE7      09797        3150 CKRND    TM    DRSULT+NX1,MSWON WAS 'ROUNDED' FOUND                     17610021
1PH40     IKFCBL40                                                                                              PAGE   68
-  LOC  OBJECT CODE    ADDR1 ADDR2  STMT   SOURCE STATEMENT                                       ASM 0201 11.03 02/14/15
000175E 4780 F45C      0176C        3151        BZ    AR001                 NO                                   17616021
 001762 9601 BF6E      0981E        3152        OI    RNDSW,MSWON      SET ROUND SWITCH ON  FOR NEXT EVAL        17622021
 001766 D700 BEE7 BEE7 09797 09797  3153          XC    DRSULT+NX1(LX1),DRSULT+NX1                               17628021
 00176C 58F0 A300      07FF8        3154 AR001  L   RVRB,ASTOR                                                   17634021
 001770 07FF                        3155        BR  RVRB  EXIT TO STORAN                                         17640021
                                    3156 *                                                                       17646021
                                    3157 *                                                                       17652021
                                    3158 *STORAN RETURNS HERE WHEN STFLD1 IS OFF- FIRST STORE FIELD              17658021
                                    3159 *HAS NOT YET BEEN ADDED TO STRING BUT HAS BEEN FOUND VALID              17664021
                                    3160 *                                                                       17670021
 001772 9531 BBEC      0949C        3161 AFTR   CLI   SAVESTOR,MSS   IS STOREFIELD SUBSCRIPTED                   17676021
 001776 4770 F48A      0179A        3162        BNE   DEFNIT    NO                                               17682021
 00177A D201 B094 BE62 08944 09712  3163          MVC   DSPSBS(LX2),TRSS RESOREORIGINAL TAMM DISP FOR PACKTB     17688021
 001780 5810 B090      08940        3164        L     RW1,ADFSBS                                                 17694021
 001784 5821 0000      00000        3165          L     RW2,DX0(RW1)  TAMM                                       17700021
 001788 D201 2004 BE62 00004 09712  3166          MVC   DX4(LX2,RW2),TRSS                                        17706021
 00178E 45E0 7EDC      05E94        3167        BAL   RCS,PACKTB      MAKE FIRST SS STRING FOR STFLD             17712021
                                    3168 *                          FIRST ENTRY IN DEFSBS TABLE                  17718021
 001792 4130 0000      00000        3169          LA    RW3,DX0                                                  17724021
 001796 4820 BF4C      097FC        3170        LH    RW2,STRCNT                                                 17730021
 00179A D701 BF4C BF4C 097FC 097FC  3171 DEFNIT   XC    STRCNT(LX2),STRCNT                                       17736021
 0017A0 45E0 F664      01974        3172        BAL   RCS,ARTH665    MOVE STOREFIELD TO PSTFLD                   17742021
 0017A4 45E0 97CA      07622        3173        BAL   RCS,DUPSS       SUPPLY SS DUP FOR STFLD IF NEC             17748021
 0017A8 4140 A55B      08253        3174        LA  RW4,ADDVRB                                                   17754021
 0017AC 4960 A59E      08296        3175        CH     RW6,N2                                                    17760021
 0017B0 4770 F4A8      017B8        3176        BNE  AFTR1                  NOT A SUBTRACT VERB                  17766021
 0017B4 4140 BEFB      097AB        3177        LA    RW4,SUBTRVB     MAKE VERB SUBTRACT                         17772021
 0017B8 45E0 8000      05FB8        3178 AFTR1  BAL  RCS,STOR45  STORE VERB IN STRING                            17778021
 0017BC 4140 BE15      096C5        3179        LA    RW4,TR                                                     17784021
 0017C0 45E0 8000      05FB8        3180        BAL   RCS,STOR45            STORE IN STRING                      17790021
 0017C4 D201 BE8A B04C 0973A 088FC  3181          MVC   LEFTDP(LX2),DSPSTR SAVE VERB AND TR IN LEFTDP            17796021
 0017CA 4140 BBEC      0949C        3182        LA    RW4,SAVESTOR   IF SSID, SAVESTOR HAS ONE WE WANT           17802021
 0017CE 45E0 8000      05FB8        3183        BAL   RCS,STOR45            STORE IN STRING                      17808021
 0017D2 D700 BEE5 BEEA 09795 0979A  3184          XC    DMAX(LX1),SDMAX                                          17814021
 0017D8 D700 BEEA BEE5 0979A 09795  3185          XC    SDMAX(LX1),DMAX                                          17820021
 0017DE D700 BEE5 BEEA 09795 0979A  3186          XC    DMAX(LX1),SDMAX                                          17826021
 0017E4 D200 BEE6 BE66 09796 09716  3187          MVC   DRSULT(LX1),DCURR                                        17832021
 0017EA 45E0 9A2E      07886        3188        BAL  RCS,PUPIR   UPDATE IR FOR RESULT                            17838021
 0017EE 4140 BE11      096C1        3189        LA  RW4,IR                                                       17844021
 0017F2 45E0 8000      05FB8        3190        BAL  RCS,STOR45             STORE IN STRING                      17850021
 0017F6 D202 B6F4 BE11 08FA4 096C1  3191          MVC   PRSULT(LX3),IR                                           17856021
 0017FC 9101 BF6E      0981E        3192        TM    RNDSW,MSWON     WAS ROUNDED FOUND                          17862021
 001800 4780 F4FC      0180C        3193        BZ    AFTR2    NO                                                17868021
 001804 9601 BEE7      09797        3194          OI    DRSULT+NX1,MSWON SET ON OPTION IN EVAL STRING            17874021
 001808 94FE BF6E      0981E        3195        NI    RNDSW,MSWOFF                                               17880021
 00180C 58F0 A300      07FF8        3196 AFTR2  L   RVRB,ASTOR                                                   17886021
 001810 07FF                        3197        BR  RVRB                    STORE ANALYZER                       17892021
                                    3198 *                                                                       17898021
                                    3199 *                                                                       17904021
                                    3200 *RETURN WHEN AT LEAST ONE STOREFIELD                                    17910021
                                    3201 *HAS BEEN ADDED TO STRING                                               17916021
                                    3202 *                                                                       17922021
 001812 D200 BEE5 BEEA 09795 0979A  3203 AFTSTR   MVC   DMAX(LX1),SDMAX                                          17928021
 001818 4960 A59E      08296        3204        CH    RW6,N2  WHICH VERB                                         17934021
 00181C 4770 F216      01526        3205        BNE  ARTH48                 NOT SUBTRACT                         17940021
1PH40     IKFCBL40                                                                                              PAGE   69
-  LOC  OBJECT CODE    ADDR1 ADDR2  STMT   SOURCE STATEMENT                                       ASM 0201 11.03 02/14/15
0001820 47F0 F21A      0152A        3206        B ARTH54                    YES - SUBTRACT VERB                  17946021
                                    3207 *                                                                       17952021
                                    3208 *                                                                       17958021
                                    3209 *              'GIVING' NOT FOUND.  CHECK STORE-FIELD FOR LITERAL       17964021
                                    3210 *               AND SUPPLY DISTINCT SSID FOR SUBSCRIPTED STORE-FIEL     17970021
                                    3211 *                                                                       17976021
 001824 9101 BE64      09714        3212 ARTH69 TM      MODE,MLITBT                                              17982021
 001828 4770 F520      01830        3213        BC      NOTZER,ARTH75        LITERAL - ERROR                     17988021
 00182C 47F0 F2BA      015CA        3214        BC      UNCOND,ARTH63       STORE OPERAND ESTABLISHED            17994021
                             01830  3215 ARTH75 EQU     *                                                        18000021
 001830 4100 BBEC      0949C        3216        LA    RA0,SAVESTOR                                               18006021
 001834 45E0 9BDA      07A32        3217        BAL     RCS,ERROR          STORE-FIELD IS LIT OR 'ZERO'          18012021
 001838 4110 A08A      07D82        3218        LA      RW1,ELST17                                               18018021
 00183C 9101 BFD3      09883        3219        TM    SETRIN,MSWON         RIN POINTING IN SETTBL                18024021
 001840 4780 720C      051C4        3220        BZ    IDERR                NO-ERROR EXIT NOW                     18030021
 001844 18C5                        3221        LR    RIN,RW5           RESTORE RIN TO REAL BEFORE EXITING       18036021
 001846 50C0 BC70      09520        3222        ST    RIN,TRUPNT                                                 18042021
 00184A D700 BFD3 BFD3 09883 09883  3223          XC    SETRIN(LX1),SETRIN                                       18048021
 001850 94FE BF70      09820        3224        NI    SIZERROR,MSWOFF                                            18054021
 001854 47F0 720C      051C4        3225        BC    UNCOND,IDERR          ERROR EXIT                           18060021
                                    3226 *                                                                       18066021
                                    3227 *                   LEGAL ARITHMETIC OPERAND NOT FOUND                  18072021
                                    3228 *                                                                       18078021
                             01858  3229 ARTH80   EQU   *                                                        18084021
 001858 9130 C000      0988B        3230          TM    GOTTEN,MDN          IS IT DATA OPERAND                   18090021
 00185C 4710 F5AA      018BA        3231          BC    ONES,ARTH93         YES                                  18096021
 001860 4106 A4E0      081D8        3232          LA    RA0,CBTO(RW6)       'TO(FROM)' MISSING FOR ADD(SUBTR     18102021
 001864 45E0 9BDA      07A32        3233          BAL   RCS,ERROR           WARNING MESSAGE                      18108021
 001868 4110 A02A      07D22        3234          LA    RW1,ELST07                                               18114021
 00186C 9101 BF75      09825        3235        TM    PFNDOP,MSWON    AT LEAST 2 OPS                             18120021
                                    3236 *  OTHERWISE WE CANNOT SAVE IT                                          18126021
 001870 4780 F5A2      018B2        3237        BZ    ARTH91        NO- GIVE UP                                  18132021
                                    3238 *                                                                       18138021
                                    3239 *        REINITIALIZE FOR RECOVERY FROM NO 'TO' FOR ADD                 18144021
                                    3240 *           OR NO 'FROM' FOR SUBTRACT FOUND                             18150021
                                    3241 *                                                                       18156021
 001874 9601 BF74      09824        3242          OI    NEXTIN,MSWON        SW INHIBITS 'GETNXT' AS HAVE NEX     18162021
 001878 4960 A59E      08296        3243          CH    RW6,N2              IS IT +                              18168021
 00187C 4740 F582      01892        3244          BC    LO,ARTH84           YES                                  18174021
 001880 5810 B048      088F8        3245          L     RW1,ASTRNG          CHANGE LAST VERB IN STRING TO -      18180021
 001884 45E0 7FCE      05F86        3246          BAL   RCS,GOBACK          POINT TO LAST VERB                   18186021
 001888 0006                        3247          DC    XL2'6'              6TH ENTITY FROM END                  18192021
 00188A 5820 BC74      09524        3248          L     RW2,ADNTRY                                               18198021
 00188E 9201 2001      00001        3249          MVI   DX1(RW2),MINCOD      MAKE VERB MINUS                     18204021
                             01892  3250 ARTH84   EQU   *                                                        18210021
 001892 D27B BBEC BAF4 0949C 093A4  3251          MVC   SAVESTOR(LX124),CURENT     PUT LAST OP IN SAVESTOR       18216021
 001898 D202 BE64 BE67 09714 09717  3252          MVC   MODE(LX3),CURMOD        AND ITS MODE IN MODE             18222021
 00189E 41C0 BAF4      093A4        3253          LA    RIN,CURENT          MAKE RIN POINT TO LAST OPERAND       18228021
 0018A2 45E0 7566      0551E        3254          BAL   RCS,GETNXT          GET NEXT ENTITY                      18234021
 0018A6 47F0 F168      01478        3255          BC    UNCOND,ARTH26       REMOVE ENTRIES FROM STRING           18240021
 0018AA 9130 C000      0988B        3256 ARTH90 TM      GOTTEN,MDN         IS IT DATA OPERAND                    18246021
 0018AE 4710 F5AA      018BA        3257        BC      ONES,ARTH93         YES                                  18252021
 0018B2 4100 A66C      08364        3258 ARTH91 LA    RA0,BCDNOP           NO- GIVE UP                           18258021
 0018B6 47F0 7204      051BC        3259        BC      UNCOND,IDGVUP       GIVE-UP ROUTINE                      18264021
 0018BA 50E0 B300      08BB0        3260 ARTH93 ST      RCS,SVISOP                                               18270021
1PH40     IKFCBL40                                                                                              PAGE   70
-  LOC  OBJECT CODE    ADDR1 ADDR2  STMT   SOURCE STATEMENT                                       ASM 0201 11.03 02/14/15
00018BE 45E0 99EE      07846        3261        BAL     RCS,PMKTAL           YES - SUBSTITUTE 'TALLY'            18276021
 0018C2 58E0 B300      08BB0        3262        L       RCS,SVISOP                                               18282021
 0018C6 07FE                        3263        BCR     UNCOND,RCS          STORE TEMPORARILY                    18288021
 0018C8 D27B B57C B678 08E2C 08F28  3264 DIVREM   MVC   PLEFT(LX124),PSTFLD  SAVE LAST STOREFIELD                18294021
 0018CE 9500 BFD7      09887        3265         CLI   FLPTSW,MZERO    WAS THERE ANY FLOATING PT OPERAND         18300021
 0018D2 4770 F7F0      01B00        3266         BNE    REMERR              YES, ERROR EXIT                      18306021
 0018D6 9601 BF74      09824        3267        OI    NEXTIN,MSWON                                               18312021
 0018DA 94FE BFBF      0986F        3268        NI    REMSW,MSWOFF                                               18318021
 0018DE D702 BEE7 BEE7 09797 09797  3269          XC    DRSULT+NX1(LX3),DRSULT+NX1                               18324021
 0018E4 41C0 BBEC      0949C        3270        LA    RIN,SAVESTOR          SEE IF OP AFTER REMAINDER            18330021
 0018E8 45E0 8A9C      06A54        3271        BAL   RCS,ISOPST            IS A VALID STOREFIELD                18336021
 0018EC 47F0 720C      051C4        3272        B    IDERR                  NO- ERROR EXIT                       18342021
 0018F0 5810 B048      088F8        3273        L    RW1,ASTRNG             YES- PROCESS                         18348021
 0018F4 45E0 7D8E      05D46        3274        BAL   RCS,PREMVV            REMOVE VARIABLE LENGTHS              18354021
 0018F8 4140 0000      00000        3275          LA    RW4,DX0              REMOVE LAST IR FROM STRING          18360021
 0018FC 45E0 7D8E      05D46        3276        BAL   RCS,PREMVV            REMOVE VARIABLE LENGTHS              18366021
 001900 4140 BB70      09420        3277        LA    RW4,SAVE1OP           SAVE DIVIDEND OF LAST DIVIDE         18372021
 001904 45E0 7FCE      05F86        3278        BAL   RCS,GOBACK            POINT TO LAST VERB                   18378021
 001908 0002                        3279        DC    XL2'2'                GO BACK 2                            18384021
 00190A 5820 BC74      09524        3280        L    RW2,ADNTRY             CHANGE VERB IN STRING TO MULTIPL     18390021
 00190E 9202 2001      00001        3281          MVI   DX1(RW2),XX02                                            18396021
                                    3282 *   EFFECTIVELY CREATE 'MULTIPLY DIVISOR BY QUOTIENT'                   18402021
 001912 4140 BE15      096C5        3283         LA     RW4,TR              YES, GET ADDR OF TR                  18408021
 001916 47F0 F60A      0191A        3284         B      ARTH100             STORE TR IN STRING                   18414021
 00191A 45E0 8000      05FB8        3285 ARTH100 BAL    RCS,STOR45          STORE OPERAND IN STRING              18420021
 00191E 45E0 9A2E      07886        3286        BAL   RCS,PUPIR            GET IR FOR STRING                     18426021
 001922 4140 BE11      096C1        3287        LA    RW4,IR                                                     18432021
 001926 45E0 8000      05FB8        3288        BAL   RCS,STOR45            STORE IT IN STRING                   18438021
                                    3289 *   EFFECTIVELY CREATE 'SUBTRACT MULTIPLICATION RESULT FROM DIVIDEN     18444021
 00192A 45E0 8068      06020        3290        BAL   RCS,STLOOP            STORE IN STRING                      18450021
 00192E 0003                        3291        DC    XL2'3'                STORE  3 ELEMENTS                    18456021
 001930 4140 BEFB      097AB        3292        LA    RW4,SUBTRVB          SUBTRACT                              18462021
 001934 4140 BE11      096C1        3293        LA    RW4,IR                LAST IR                              18468021
 001938 4140 BB70      09420        3294        LA    RW4,SAVE1OP               FROM DIVIDEND                    18474021
 00193C 45E0 9A2E      07886        3295        BAL   RCS,PUPIR             GET NEW IR FOR THIS RESULT           18480021
 001940 4140 BE11      096C1        3296        LA    RW4,IR                                                     18486021
 001944 45E0 8000      05FB8        3297        BAL   RCS,STOR45            STORE IT IN STRING                   18492021
 001948 D202 B6F4 BE11 08FA4 096C1  3298          MVC   PRSULT(LX3),IR       MOVE THIS IR TO PRSULT              18498021
 00194E 47F0 F338      01648        3299        B     AREX                  EXIT                                 18504021
                                    3300 *                                                                       18510021
                                    3301 *                                                                       18516021
                                    3302 *      UPDATES DMAX,STORES OPERAND IN STRING,STORES UPDATED IR IN       18522021
                                    3303 *        STRING, GETS NEXT, AND EXITS                                   18528021
                                    3304 *                                                                       18534021
                                    3305 *                                                                       18540021
                             01952  3306 ARTHIR EQU     *                                                        18546021
 001952 50E0 B300      08BB0        3307        ST      RCS,SVISOP                                               18552021
 001956 45E0 99DE      07836        3308        BAL     RCS,DECMAX         UPDATE DECMAX                         18558021
 00195A 45E0 8048      06000        3309        BAL     RCS,STOINP         STORE NEW OPERAND                     18564021
 00195E 45E0 9A2E      07886        3310        BAL     RCS,PUPIR          GET NEW IR                            18570021
 001962 4140 BE11      096C1        3311        LA      RW4,IR             STORE IR                              18576021
 001966 45E0 8000      05FB8        3312        BAL     RCS,STOR45          STORE IT IN STRING                   18582021
 00196A 45E0 7566      0551E        3313        BAL     RCS,GETNXT          GET NEXT ENTITY                      18588021
 00196E 58E0 B300      08BB0        3314        L       RCS,SVISOP                                               18594021
 001972 07FE                        3315        BCR     UNCOND,RCS          EXIT                                 18600021
1PH40     IKFCBL40                                                                                              PAGE   71
-  LOC  OBJECT CODE    ADDR1 ADDR2  STMT   SOURCE STATEMENT                                       ASM 0201 11.03 02/14/15
0                                   3316 *                                                                       18606021
                                    3317 *                                                                       18612021
                                    3318 *    MOVES VALID STORE OPERAND FROM SAVED AREA TO PSTFLD                18618021
                                    3319 *                                                                       18624021
                                    3320 *                                                                       18630021
 001974 50E0 B518      08DC8        3321 ARTH665 ST RCS,SVSTFD                                                   18636021
 001978 4120 BBEC      0949C        3322        LA  RW2,SAVESTOR                                                 18642021
 00197C 45E0 7F94      05F4C        3323        BAL  RCS,COUNT   GET BYTE COUNT                                  18648021
 001980 1B33                        3324        SR  RW3,RW3   CLEAR RW3                                          18654021
 001982 4A30 BE72      09722        3325        AH  RW3,BYTES                                                    18660021
 001986 4430 F684      01994        3326        EX RW3,MVSTORE                                                   18666021
 00198A 9601 BF6D      0981D        3327        OI  STFLD1,MSWON                                                 18672021
 00198E 58E0 B518      08DC8        3328        L  RCS,SVSTFD                                                    18678021
 001992 07FE                        3329       BR  RCS                      EXIT                                 18684021
 001994 D200 B678 BBEC 08F28 0949C  3330 MVSTORE  MVC   PSTFLD(LX1),SAVESTOR                                     18690021
 00199A 50E0 B51C      08DCC        3331 SVRES  ST    RCS,SVRSFD                                                 18696021
 00199E 4120 BB70      09420        3332        LA    RW2,SAVE1OP                                                18702021
 0019A2 45E0 7F94      05F4C        3333        BAL   RCS,COUNT             GET BYTE COUNT                       18708021
 0019A6 1B33                        3334        SR    RW3,RW3                                                    18714021
 0019A8 4A30 BE72      09722        3335        AH    RW3,BYTES                                                  18720021
 0019AC 4430 F6A8      019B8        3336        EX    RW3,MVRES                                                  18726021
 0019B0 58E0 B51C      08DCC        3337        L    RCS,SVRSFD                                                  18732021
 0019B4 47FE 0006      00006        3338        B     6(RCS)                EXIT                                 18738021
 0019B8 D200 B6F4 BB70 08FA4 09420  3339 MVRES    MVC   PRSULT(LX1),SAVE1OP                                      18744021
 0019BE 45E0 76EC      056A4        3340 ARDIVIDE  BAL  RCS,GETALL          MOVE ENTITY TO SAVE AREA             18750021
 0019C2 4120 BB70      09420        3341        LA    RW2,SAVE1OP    SAVE 1ST OP MAY BECOME SECOND OP            18756021
 0019C6 9601 BFD9      09889        3342         OI     DIVSW,MSWON         SIGNAL DIVIDE FOUND                  18762021
 0019CA 9201 BFD6      09886        3343         MVI    MASK,MB1            SET UP MASK                          18768021
 0019CE 5020 B558      08E08        3344         ST     RW2,RW2SAVE         SAVE RW2                             18774021
 0019D2 4120 BB70      09420        3345         LA     RW2,SAVE1OP         GET ADDR OF THE OPERAND              18780021
 0019D6 45E0 F806      01B16        3346         BAL    RCS,CHKFLPT         CHECK IF OPERAND IS FL PT            18786021
 0019DA 45E0 7566      0551E        3347        BAL   RCS,GETNXT            GET NEXT ENTITY                      18792021
 0019DE 4156 A4E0      081D8        3348        LA    RW5,CBTO(RW6)   WHICH DIVIDE OPTION                        18798021
 0019E2 D501 C000 5000 0988B 00000  3349          CLC   GOTTEN(LX2),DX0(RW5) IS IT  INTO                         18804021
 0019E8 4770 F6E8      019F8        3350        BNE    ARTHDIV1   NOT INTO   SEE IF BY                           18810021
 0019EC 4140 BB70      09420        3351        LA    RW4,SAVE1OP   INTO                                         18816021
 0019F0 45E0 8000      05FB8        3352        BAL   RCS,STOR45   STORE FIRST OP IN STRING                      18822021
 0019F4 47F0 F1C4      014D4        3353        B     ARTH39       CONTINUE NORMAL PROCESSING                    18828021
 0019F8 D501 C000 A4E4 0988B 081DC  3354 ARTHDIV1 CLC   GOTTEN(LX2),CBBY IS IT CB WD BY                          18834021
 0019FE 4770 F7E4      01AF4        3355        BNE   ARTHERDV      NO-ERROR                                     18840021
 001A02 45E0 99DE      07836        3356        BAL   RCS,DECMAX   BY FOUND REVERSE ORDER OF OPS IN STRING       18846021
 001A06 45E0 7566      0551E        3357        BAL   RCS,GETNXT    GET NEXT ELEMENT                             18852021
 001A0A 45E0 76EC      056A4        3358         BAL    RCS,GETALL     SAVE OPERAND                              18858021
 001A0E 4120 F768      01A78        3359         LA     RW2,SAVEOP     ADDRESS OF SAVE AREA                      18864021
 001A12 9202 BFD6      09886        3360         MVI    MASK,MB2       SET UP MASK                               18870021
 001A16 5020 B558      08E08        3361         ST     RW2,RW2SAVE         SAVE RW2                             18876021
 001A1A 4120 F768      01A78        3362         LA     RW2,SAVEOP          GET ADDR OF THE OPERAND              18882021
 001A1E 45E0 F806      01B16        3363         BAL    RCS,CHKFLPT    LINK TO CHECK FLOATING POINT              18888021
 001A22 D201 BF4C B094 097FC 08944  3364          MVC   STRCNT(LX2),DSPSBS                                       18894021
 001A28 45E0 8AE0      06A98        3365        BAL   RCS,ISOPAR   IS IT LEGAL OP                                18900021
 001A2C 45E0 F59A      018AA        3366        BAL   RCS,ARTH90   NO                                            18906021
 001A30 45E0 8048      06000        3367        BAL   RCS,STOINP   SORE OP2 AS 1ST OP                            18912021
 001A34 4140 BB70      09420        3368        LA    RW4,SAVE1OP   OP 1 BECOMES SECOND OP                       18918021
 001A38 45E0 8000      05FB8        3369        BAL   RCS,STOR45            STORE 2ND OPERAND IN STRING          18924021
 001A3C 45E0 9A2E      07886        3370        BAL   RCS,PUPIR             INCREAMENT IR BY 1                   18930021
1PH40     IKFCBL40                                                                                              PAGE   72
-  LOC  OBJECT CODE    ADDR1 ADDR2  STMT   SOURCE STATEMENT                                       ASM 0201 11.03 02/14/15
0001A40 4140 BE11      096C1        3371        LA    RW4,IR                                                     18936021
 001A44 45E0 8000      05FB8        3372        BAL   RCS,STOR45   STORE IT IN STRING (IR)                       18942021
 001A48 D202 B6F4 BE11 08FA4 096C1  3373          MVC   PRSULT(LX3),IR                                           18948021
 001A4E 45E0 7566      0551E        3374        BAL   RCS,GETNXT            GET NEXT ENTITY                      18954021
 001A52 D501 C000 A34C 0988B 08044  3375          CLC   GOTTEN(LX2),CBGIVE DOES GIVING FOLLOW                    18960021
 001A58 4780 F292      015A2        3376        BE    ARTH60   YES OK                                            18966021
 001A5C 4100 A34C      08044        3377        LA    RA0,CBGIVE                                                 18972021
 001A60 45E0 9BDA      07A32        3378        BAL    RCS,ERROR      ASSUME GIVING                              18978021
 001A64 4110 A02A      07D22        3379        LA    RW1,ELST07                                                 18984021
 001A68 45E0 8A9C      06A54        3380        BAL   RCS,ISOPST   IS THIS A VALID STORE FIELD                   18990021
 001A6C 47F0 720C      051C4        3381        BC    UNCOND,IDERR    NO-  ERROR EXIT                            18996021
 001A70 9601 BF71      09821        3382        OI    GIVESW,MSWON   YES  SET GIVESW ON                          19002021
 001A74 47F0 F2AA      015BA        3383          BC    UNCOND,ARTH635      PROCESS STORE OPERAND                19008021
 001A78                             3384 SAVEOP  DS     CL124                                                    19014021
 001AF4 4140 BB70      09420        3385 ARTHERDV  LA   RW4,SAVE1OP                                              19020021
 001AF8 45E0 8000      05FB8        3386        BAL   RCS,STOR45            STORE SAVED OP IN STRING             19026021
 001AFC 47F0 F1B4      014C4        3387          B     ARTH36              PROCESS ERROR                        19032021
                             01B00  3388 REMERR  EQU    *                                                        19038021
 001B00 D700 BFD7 BFD7 09887 09887  3389          XC    FLPTSW(LX1),FLPTSW   ZERO OUT FLOATING POINT SW          19044021
 001B06 45E0 9BDA      07A32        3390         BAL    RCS,ERROR      ISSUE ERROR MESSAGE                       19050021
 001B0A 4110 A1E0      07ED8        3391         LA     RW1,ELST4A                                               19056021
                             01BEC  3392         USING  STORAN,RVRB                                              19062021
 001B0E 58F0 A300      07FF8        3393         L      RVRB,ASTOR     ADDR OF STORAN                            19068021
 001B12 47F0 F12C      01D18        3394         BC     UNCOND,STOR108 CONTINUE PROCESS                          19074021
                             01310  3395         USING  ADD,RVRB                                                 19080021
                             01B16  3396 CHKFLPT EQU    *                                                        19086021
 001B16 5010 B554      08E04        3397         ST     RW1,RW1SAVE         SAVE RW1                             19092021
 001B1A 9530 2000      00000        3398          CLI   DX0(RW2),MDN         IS IT DATA NAME                     19098021
 001B1E 4780 F81C      01B2C        3399         BE   CHKMODE          YES - CHECK ITS MODE                      19104021
 001B22 9533 2000      00000        3400          CLI   DX0(RW2),MFLIT  IS IT FLOATING LITERAL                   19110021
 001B26 4780 F83A      01B4A        3401         BE   FLPTFND          YES                                       19116021
 001B2A 07FE                        3402         BR  RCS                    GO BACK TO MAIN LINE                 19122021
                             01B2C  3403 CHKMODE EQU    *                                                        19128021
 001B2C 1B11                        3404         SR   RW1,RW1          CLEAR RW1                                 19134021
 001B2E 4312 0003      00003        3405          IC    RW1,DX3(RW2)    LOAD DATA NAME'S MODE IN RW1             19140021
 001B32 8810 0004      00004        3406          SRL   RW1,DX4         RIGHT JUSTIFIED 4 DIGIT                  19146021
 001B36 4210 BFD8      09888        3407         STC   RW1,DNMODE      STORE MODE INTO DNMODE                    19152021
 001B3A 9509 BFD8      09888        3408         CLI   DNMODE,MB9      DATA NAME IS FLOATING POINT               19158021
 001B3E 4740 F840      01B50        3409         BL     NOTFLPT             IF MODE EQUALS 9 OR 10               19164021
 001B42 950A BFD8      09888        3410         CLI   DNMODE,MB10                                               19170021
 001B46 4720 F840      01B50        3411         BH   NOTFLPT               NOT FLOATING POINT DATA ITEM         19176021
                             01B4A  3412 FLPTFND EQU    *                                                        19182021
 001B4A D600 BFD7 BFD6 09887 09886  3413          OC    FLPTSW(LX1),MASK     SET UP PROPER SWITCH                19188021
                             01B50  3414 NOTFLPT EQU    *                                                        19194021
 001B50 9812 B554      08E04        3415         LM     RW1,RW2,RW1SAVE     RESTORE REGISTERS                    19200021
 001B54 07FE                        3416         BCR    UNCOND,RCS          RETURN                               19206021
1PH40     IKFCBL40                                                                                              PAGE   73
-  LOC  OBJECT CODE    ADDR1 ADDR2  STMT   SOURCE STATEMENT                                       ASM 0201 11.03 02/14/15
0                                   3418 *=1    COMPUT  VERB                                                     19218021
                                    3419 *******************************************************************     19224021
                                    3420 *                                                                       19230021
                                    3421 *                                                                       19236021
                                    3422 *                             C O M P U T                               19242021
                                    3423 *                                                                       19248021
                                    3424 *        SIMPLY CHECKS SYNTAX OF STATEMENT                              19254021
                                    3425 *      CALLS ON FORMLA TO ANALYZE ARITHMETIC,BUILD STRINGS, AND         19260021
                                    3426 *        STORE REDUCED OPERAND AT PRSULT                                19266021
                                    3427 *        CALLS ON STORAN TO ANALYZE STORE-FIELD AND OPTIONS             19272021
                                    3428 *                                                                       19278021
                                    3429 *                                                                       19284021
                                    3430 *** STRINGS PRODUCED                                                    19290021
                                    3431 *      EVAL DATA-NAME                                                   19296021
                                    3432 *      ARITH-VERB1,5                                                    19302021
                                    3433 *      OP2,OP1,IR1,IR1-VERB,IR1-OTHER OPERAND                           19308021
                                    3434 *      ARITH-VERB2,5                                                    19314021
                                    3435 *      OP4,OP3,IR2,IR2-VERB,IR2-OTHER OPERAND                           19320021
                                    3436 *      .                                                                19326021
                                    3437 *      .                                                                19332021
                                    3438 *      ARITH-VERBN,5                                                    19338021
                                    3439 *      OPN,OPM,IRL,IRL-VERB,IRL-OTHER OPERAND                           19344021
                                    3440 *      STORE,2                                                          19350021
                                    3441 *      IRL,DATA-NAME                                                    19356021
                                    3442 *                                                                       19362021
                                    3443 *                                                                       19368021
                                    3444 *** SUBROUTINES CALLED                                                  19374021
                                    3445 *      GETNXT,FORMLA,ISOPST,QTBHAS,PZSTRT,ERROR                         19380021
                                    3446 *                                                                       19386021
                                    3447 *                                                                       19392021
                                    3448 *** ERROR PROCESSING                                                    19398021
                                    3449 *      ASSUME MISSING '='                                               19404021
                                    3450 *      SUBSTITUTE TALLY FOR ILLEGAL OPERANDS                            19410021
                                    3451 *      SKIP STATEMENT IF OPERAND MISSING BEFORE OR AFTER '='            19416021
                                    3452 *                                                                       19422021
                                    3453 *                                                                       19428021
                                    3454 *** NOTES                                                               19434021
                                    3455 *      MOVES FINAL RESULT (LAST IR, OR SINGLE TERM) TO PRSULT, STOR     19440021
                                    3456 *        FIELD TO PSTFLD.                                               19446021
                                    3457 *      CALCULATES DMAX FOR ALL OPERANDS EXCEPT  EXPONENTS AND DIVIS     19452021
                                    3458 *                                                                       19458021
                                    3459 *                                                                       19464021
                                    3460 *******************************************************************     19470021
-
-
                             01B56  3462        USING   *,RVRB                                                   19482021
                             01B56  3463 COMPUT   EQU   *                                                        19488021
 001B56 D702 BEE5 BEE5 09795 09795  3464          XC    DMAX(LX3),DMAX      INIT. EVAL STRING                    19494021
 001B5C 94FE BFBF      0986F        3465          NI    REMSW,MSWOFF        REST SWITTCH                   46493 19500021
 001B60 45E0 7F5C      05F14        3466        BAL     RCS,PZSTRT          INITIALIZE TABLES                    19506021
 001B64 4120 B070      08920        3467        LA    RW2,APNOUN                                                 19512021
1PH40     IKFCBL40                                                                                              PAGE   74
-  LOC  OBJECT CODE    ADDR1 ADDR2  STMT   SOURCE STATEMENT                                       ASM 0201 11.03 02/14/15
0001B68 4110 B078      08928        3468        LA    RW1,APSGNT                                                 19518021
 001B6C D701 BE7C BE7C 0972C 0972C  3469          XC    PRNLEV(LX2),PRNLEV                                       19524021
 001B72 D701 BE7A BE7A 0972A 0972A  3470          XC    PNOUCT(LX2),PNOUCT                                       19530021
 001B78 D701 BF66 BF66 09816 09816  3471          XC    DMAXSW(LX2),DMAXSW                                       19536021
 001B7E 45E0 8A9C      06A54        3472        BAL     RCS,ISOPST         IS IT LEGAL STORE-FIELD               19542021
 001B82 47F0 720C      051C4        3473        BC      UNCOND,IDERR       NO - GIVE UP                          19548021
 001B86 D200 BEE6 BE66 09796 09716  3474          MVC   DRSULT(LX1),DCURR     YES                                19554021
 001B8C D501 C000 A412 0988B 0810A  3475          CLC   GOTTEN(LX2),CBROUN  IS IT 'ROUNDED'                      19560021
 001B92 4770 F048      01B9E        3476        BC      NOTEQ,CMPT4        NO                                    19566021
 001B96 9601 BEE7      09797        3477          OI    DRSULT+NX1,MSWON    YES - SET BIT IN EVAL STRING         19572021
 001B9A 45E0 7566      0551E        3478        BAL     RCS,GETNXT          GET NEXT ENTITY                      19578021
 001B9E D501 C000 A348 0988B 08040  3479 CMPT4    CLC   GOTTEN(LX2),CBEQSN  IS NEXT '='                          19584021
 001BA4 4770 F07A      01BD0        3480          BC    NOTEQ,CMPT10             NO - ERROR                      19590021
 001BA8 45E0 7566      0551E        3481          BAL   RCS,GETNXT          GET NEXT ENTITY                      19596021
 001BAC 45E0 939C      071F4        3482 CMPT6  BAL     RCS,FORMLA         IS NEXT A FORMULA 'MAKE STRINGS)      19602021
 001BB0 47F0 F08A      01BE0        3483        BC      UNCOND,CMPT12      NO - ERROR                            19608021
 001BB4 47F0 F08A      01BE0        3484        BC      UNCOND,CMPT12      NO - ERROR                            19614021
 001BB8 D501 B07C A598 0892C 08290  3485          CLC   DSPSGN(LX2),N0      IS SIGN TABLE EMPTY                  19620021
 001BBE 4780 F074      01BCA        3486        BC      EQ,CMPT8              YES - OK                           19626021
 001BC2 45E0 9BDA      07A32        3487        BAL     RCS,ERROR          EXTRA (S                              19632021
 001BC6 4110 A024      07D1C        3488        LA      RW1,ELST06                                               19638021
 001BCA 58F0 A300      07FF8        3489 CMPT8  L       RVRB,ASTOR         REDUCED OPERAND IS NOW AT PRSULT      19644021
 001BCE 07FF                        3490          BCR   UNCOND,RVRB         GO SEEK SIZE-ERROR,AND MAKE STOR     19650021
                                    3491 *                                   STRING                              19656021
                                    3492 *                                                                       19662021
                                    3493 *                      ' = '  MISSING                                   19668021
                                    3494 *                                                                       19674021
 001BD0 4100 A348      08040        3495 CMPT10 LA      RA0,CBEQSN                                               19680021
 001BD4 45E0 9BDA      07A32        3496        BAL     RCS,ERROR           WARNING MSG - '=' MISSING            19686021
 001BD8 4110 A02A      07D22        3497        LA      RW1,ELST07                                               19692021
 001BDC 47F0 F056      01BAC        3498        BC      UNCOND,CMPT6       ASSUME = AND CONTINUE                 19698021
                                    3499 *                                                                       19704021
                                    3500 *                                 ILLEGAL OPERAND                       19710021
                                    3501 *                                                                       19716021
 001BE0 45E0 9BDA      07A32        3502 CMPT12 BAL     RCS,ERROR           SUBSTITUTE TALLY FOR OPERAND         19722021
 001BE4 4110 A00F      07D07        3503        LA      RW1,ELST04                                               19728021
 001BE8 47F0 720C      051C4        3504        BC      UNCOND,IDERR        ERROR EXIT                           19734021
1PH40     IKFCBL40                                                                                              PAGE   75
-  LOC  OBJECT CODE    ADDR1 ADDR2  STMT   SOURCE STATEMENT                                       ASM 0201 11.03 02/14/15
0                                   3506 *=1    STORAN  END OF ARITH AND COMPUT                                  19746021
                                    3507 *******************************************************************     19752021
                                    3508 *                                                                       19758021
                                    3509 *                                                                       19764021
                                    3510 *                             S T O R A N                               19770021
                                    3511 *                                                                       19776021
                                    3512 *                           (STORE ANALYZER)                            19782021
                                    3513 *                                                                       19788021
                                    3514 *                                                                       19794021
                                    3515 *        ALL ARITHMETIC VERBS COME TO STORAN WHEN THEY FINISH           19800021
                                    3516 *                                                                       19806021
                                    3517 *        STORAN FINDS TARGET FIELD AT PSTFLD                            19812021
                                    3518 *                     RESULT FIELD AT PRSULT                            19818021
                                    3519 *                                                                       19824021
                                    3520 *        ANALYZES ON-SIZE-ERROR                                         19830021
                                    3521 *        CREATES STORE VERB-STRING, WITH NOT-SIZE-ERROR BRANCH IF       19836021
                                    3522 *          APPLICABLE                                                   19842021
                                    3523 *        CALLS GNARTH TO GENERATE ENTIRE SERIES OF VERB STRINGS         19848021
                                    3524 *                                                                       19854021
                                    3525 *                                                                       19860021
                                    3526 *** SUBROUTINES CALLED                                                  19866021
                                    3527 *      GETNXT,NEWNXT,STOR45,GNARTH                                      19872021
                                    3528 *                                                                       19878021
                                    3529 *                                                                       19884021
                                    3530 *** ERROR PROCESSING                                                    19890021
                                    3531 *      NONE - ARITH AND COMPUT PROVIDE CORRECT DATA                     19896021
                                    3532 *             ISIZER FINDS MISSING COBOL WORDS                          19902021
                                    3533 *             IDENT FINDS TRAILING GARBAGE                              19908021
                                    3534 *                                                                       19914021
                                    3535 *                                                                       19920021
                                    3536 *** NOTES                                                               19926021
                                    3537 *      (IF DRYRUN SWITCH ON - INDICATING SIMPLY SYNTAX ANALYSIS OF      19932021
                                    3538 *      OR SUBTRACT-CORRESPONDING STATEMENT,PROCESSES ON-SIZE-ERROR,     19938021
                                    3539 *      DOES NO GENERATING.)                                             19944021
                                    3540 *      IF DRYRUN IS ON TURNS IT OFF AND TURNS ON CORRSW                 19950021
                                    3541 *      DISCARDS THE 'CORRESPONDING' THAT ENDS CORRESPONDING EXPANSI     19956021
                                    3542 *        AND TURNS OFF CORRSW                                           19962021
                                    3543 *      NOT-SIZE-ERROR BRANCH IN ORDINARY CASES IS GN ATTACHED TO        19968021
                                    3544 *        NEXT SENTENCE. FOR CORRESPONDING SERIES IT IS SPECIAL GN       19974021
                                    3545 *        WITH ID OF FFFF FOR EACH EXPANSION EXCEPT THE LAST. FOR        19980021
                                    3546 *        THE LAST IT IS NORMAL NEXT-SENTENCE GN                         19986021
                                    3547 *                                                                       19992021
                                    3548 *                                                                       19998021
                                    3549 *******************************************************************     20004021
-
-
                             01BEC  3551          USING *,RVRB                                                   20016021
                             01BEC  3552 STORAN   EQU   *                                                        20022021
                                    3553 *                                                                       20028021
                                    3554 *                     PROVIDE SIZE-ERROR BRANCH IF NEEDED               20034021
                                    3555 *                                                                       20040021
1PH40     IKFCBL40                                                                                              PAGE   76
-  LOC  OBJECT CODE    ADDR1 ADDR2  STMT   SOURCE STATEMENT                                       ASM 0201 11.03 02/14/15
0001BEC 9101 BF6C      0981C        3556        TM   RECSW,MSWON  DOES STFLD FOLLOW THIS STFLD                   20046021
 001BF0 4710 F164      01D50        3557        BC    ONES,SIZERCK          YES, CHECK SIZE ERROR                20052021
 001BF4 9101 BF7A      0982A        3558        TM      CORRSW,MSWON       FOR ADD,SUBTR. CORRESPONDING, 'ON     20058021
 001BF8 4710 F02E      01C1A        3559        BC      ONES,STOR6      SIZE-ERROR' ANALYZED ALREADY             20064021
 001BFC 9101 BF70      09820        3560        TM    SIZERROR,MSWON    WAS LAST ADD SERIES                      20070021
 001C00 4710 F060      01C4C        3561        BC    ONES,STOR7     YES                                         20076021
 001C04 45E0 8CE0      06C98        3562        BAL     RCS,ISIZER         IS IT SIZE-ERROR                      20082021
 001C08 47F0 F096      01C82        3563        BC      UNCOND,STOR9         NO                                  20088021
 001C0C 45E0 9B3C      07994        3564        BAL     RCS,NEWNXT          YES - GIVE RGN OF NEXT SENTENCE      20094021
 001C10 D201 BE02 BE18 096B2 096C8  3565 STOR5    MVC   RGN+NX1(LX2),NXTSNT                                      20100021
 001C16 47F0 F096      01C82        3566        BC      UNCOND,STOR9        GENR ARTH STRING                     20106021
 001C1A D501 C000 A340 0988B 08038  3567 STOR6    CLC   GOTTEN(LX2),CBCORR  IS THIS END OF CORRESPONDING-SERI    20112021
 001C20 4770 F084      01C70        3568        BC      NOTEQ,STOR8          NO-SEE IF SIZE-ERROR-               20118021
 001C24 45E0 7566      0551E        3569        BAL     RCS,GETNXT           YES-DISCARD 'CORRESPONDING'         20124021
 001C28 94FE BF7A      0982A        3570        NI      CORRSW,MSWOFF        OFF SW USED BY ARITH                20130021
 001C2C 94FE BF91      09841        3571        NI      OP1SS,MSWOFF                                             20136021
 001C30 94FE BF92      09842        3572        NI      OP2SS,MSWOFF                                             20142021
 001C34 9502 BEE2      09792        3573          CLI   EVAL+NX2,XX02       WAS SIZE-ERROR FOUND                 20148021
 001C38 4780 F0AE      01C9A        3574        BC      EQ,STOR10           NO (COUNT=2)                         20154021
 001C3C 9601 BF9B      0984B        3575        OI      CONDSW,MSWON        YES,SW FOR INDENT,AND GIVE RGN O     20160021
 001C40 47F0 F024      01C10        3576        BC      UNCOND,STOR5        NEXT SENTENCE FOR LAST IN SERIES     20166021
                             01C44  3577 STOR14 EQU *                                                            20172021
                             01310  3578        USING ADD,RVRB                                                   20178021
 001C44 58F0 A2EC      07FE4        3579        L     RVRB,AVRB                                                  20184021
 001C48 47F0 F5B8      018C8        3580        BC    UNCOND,DIVREM         RETURN TO PROCESS DIVIDE REMAIND     20190021
                             01BEC  3581        USING  STORAN,RVRB                                               20196021
 001C4C 94FE BF70      09820        3582 STOR7  NI    SIZERROR,MSWOFF                                            20202021
 001C50 18C5                        3583        LR    RIN,RW5               RESTORE RIN TO TRUE VALUE            20208021
 001C52 D700 BFD3 BFD3 09883 09883  3584          XC    SETRIN(LX1),SETRIN   TURN OFF SETRIN                     20214021
 001C58 50C0 BC70      09520        3585        ST    RIN,TRUPNT                                                 20220021
 001C5C 9502 BEE2      09792        3586          CLI   EVAL+NX2,XX02 WAS SIZE ERROR FOUND                       20226021
 001C60 4780 F0AE      01C9A        3587        BE    STOR10     NOT FOUND                                       20232021
 001C64 45E0 7716      056CE        3588        BAL   RCS,THROWE   UPDATE RIN TO POINT TO NEXT VERB              20238021
 001C68 45E0 9B3C      07994        3589        BAL   RCS,NEWNXT            GIVE RGN OF NEXT SENTENCE            20244021
 001C6C 47F0 F024      01C10        3590        BC    UNCOND,STOR5          NXTSNT FOR LAST IN SERIES            20250021
 001C70 9502 BEE2      09792        3591 STOR8    CLI   EVAL+NX2,XX02       WAS SIZE-ERROR FOUND                 20256021
 001C74 4780 F0AE      01C9A        3592        BC      EQ,STOR10            NO                                  20262021
 001C78 D201 BE02 A5BE 096B2 082B6  3593 STOR85   MVC   RGN+NX1(LX2),NFFFF STANDARD RGN FOR SERIES (INCL. CORR)  20268021
 001C7E 47F0 F0AE      01C9A        3594        BC      UNCOND,STOR10       SIZE ERROR FOUND                     20274021
                                    3595 *                                                                       20280021
                                    3596 *                                 GENERATE ARITHMETIC STRINGS           20286021
                                    3597 *                                                                       20292021
 001C82 9101 BF93      09843        3598 STOR9  TM      DRYRUN,MSWON        -OR IS IT DRYRUN OF 'CORRESPONDI     20298021
 001C86 4780 F0AE      01C9A        3599        BC      ZERO,STOR10         NO                                   20304021
 001C8A 94FE BF93      09843        3600        NI      DRYRUN,MSWOFF        YES-DONT GENR.                      20310021
 001C8E 9601 BF7A      0982A        3601        OI      CORRSW,MSWON         TURN ON CORRSW FOR NEXT STATEME     20316021
 001C92 9601 BF73      09823        3602        OI      GENRED,MSWON        AVOID IDENT MESSAGE                  20322021
 001C96 47F0 7000      04FB8        3603        BC      UNCOND,IDENT        EXIT                                 20328021
 001C9A 4140 A558      08250        3604 STOR10 LA      RW4,PSTVRB         PUT INTO STRING AREA                  20334021
 001C9E 45E0 8000      05FB8        3605        BAL     RCS,STOR45          STORE STORE-VERB IN STRING           20340021
 001CA2 4140 B6F4      08FA4        3606        LA      RW4,PRSULT         RESULT-FIELD                          20346021
 001CA6 45E0 8000      05FB8        3607        BAL     RCS,STOR45          STORE RESULT FIELD IN STRING         20352021
 001CAA 4140 B678      08F28        3608        LA      RW4,PSTFLD                                               20358021
 001CAE 45E0 8000      05FB8        3609        BAL     RCS,STOR45          STORE STORE-FIELD IN STRING          20364021
 001CB2 45E0 7A16      059CE        3610          BAL   RCS,GNARTH          GENER. ENTIRE VERB STRING            20370021
1PH40     IKFCBL40                                                                                              PAGE   77
-  LOC  OBJECT CODE    ADDR1 ADDR2  STMT   SOURCE STATEMENT                                       ASM 0201 11.03 02/14/15
0001CB6 9101 BFD4      09884        3611         TM   ONSIZER,MSWON         WAS THERE ON SIZE ERROR IN DIV       20376021
 001CBA 4780 F10A      01CF6        3612         BZ   STOR105               NO                                   20382021
 001CBE 45E0 7734      056EC        3613         BAL    RCS,GENDAT     WRITE TO FILE TWO                         20388021
 001CC2 4120 A55E      08256        3614         LA     RW2,CBGO            ADDR OF VERB GO                      20394021
 001CC6 D201 B550 BE18 08E00 096C8  3615          MVC   GNSAVE(LX2),NXTSNT   SAVE GNDEF                          20400021
 001CCC 9601 BFD5      09885        3616         OI   GNDEFSW,MSWON         TURN ON GN DEF SWITCH                20406021
 001CD0 45E0 9A72      078CA        3617         BAL   RCS,PUPLGN           BUMP GN                              20412021
 001CD4 D201 BE02 BE1C 096B2 096CC  3618          MVC   RGN+NX1(LX2),NXTLGN  MOVE GN'S TO THEIR SLOTS            20418021
 001CDA D201 BDFF B550 096AF 08E00  3619          MVC   LGN+NX1(LX2),GNSAVE                                      20424021
 001CE0 45E0 7734      056EC        3620         BAL    RCS,GENDAT     WRITE TO FILE TWO                         20430021
 001CE4 4120 BE01      096B1        3621         LA     RW2,RGN        WRITE OUT GNREF                           20436021
 001CE8 45E0 7734      056EC        3622         BAL    RCS,GENDAT     WRITE TO FILE TWO                         20442021
 001CEC 4120 BDFE      096AE        3623         LA     RW2,LGN        WRITE OUT GNDEF                           20448021
 001CF0 D201 B550 BE1C 08E00 096CC  3624          MVC   GNSAVE(LX2),NXTLGN   SAVE GNDEF                          20454021
 001CF6 9101 BFBF      0986F        3625 STOR105 TM     REMSW,MSWON    DIVIDE REMAINDER                          20460021
 001CFA 4710 F058      01C44        3626        BO    STOR14                YES- GO TO BRANCH BACK               20466021
 001CFE 9101 BFD5      09885        3627         TM   GNDEFSW,MSWON         MORE THAN ONE GN NEEDED              20472021
 001D02 4780 F12C      01D18        3628         BZ   STOR108               NO                                   20478021
 001D06 94FE BFD5      09885        3629         NI   GNDEFSW,MSWOFF        YES, TURN OFF SW                     20484021
 001D0A D201 BDFF B550 096AF 08E00  3630          MVC   LGN+NX1(LX2),GNSAVE  GET GN NUMBER                       20490021
 001D10 45E0 7734      056EC        3631         BAL   RCS,GENDAT           WRITE TO FILE TWO                    20496021
 001D14 4120 BDFE      096AE        3632         LA   RW2,LGN                                                    20502021
 001D18 9101 BF6C      0981C        3633 STOR108 TM   RECSW,MSWON                                                20508021
 001D1C 4780 F160      01D4C        3634        BZ  STOR12  NO-RETURH TO IDENT                                   20514021
 001D20 45E0 864A      06602        3635        BAL   RCS,UPDTSET            RESTORE RIN TO PT TO BEG SETTBL     20520021
 001D24 45E0 7F5C      05F14        3636        BAL   RCS,PZSTRT      REINITIALIZE TABLES FOR NEXT STRING        20526021
 001D28 4110 B090      08940        3637        LA    RW1,ADFSBS                                                 20532021
 001D2C 9101 BF6D      0981D        3638        TM  STFLD1,MSWON                                                 20538021
 001D30 4710 F158      01D44        3639        BO  STOR11    YES                                                20544021
 001D34 45E0 7F5C      05F14        3640        BAL   RCS,PZSTRT    REINITIALIZE STRING TO WIPE OUT OP(S) 1      20550021
 001D38 4110 B048      088F8        3641        LA    RW1,ASTRNG                                                 20556021
                             01310  3642        USING ADD,RVRB                                                   20562021
 001D3C 58F0 A2EC      07FE4        3643        L  RVRB,AVRB                                                     20568021
 001D40 47F0 F462      01772        3644        B AFTR                      1ST STORE-FIELD NOT IN STRING        20574021
                             01D44  3645 STOR11 EQU *                                                            20580021
                             01310  3646        USING  ADD,RVRB                                                  20586021
 001D44 58F0 A2EC      07FE4        3647        L RVRB,AVRB                                                      20592021
 001D48 47F0 F502      01812        3648        B AFTSTR                    AT LEAST 1 STRFLD ADDED              20598021
                             01BEC  3649        USING STORAN,RVRB                                                20604021
                             01D4C  3650 STOR12 EQU *                                                            20610021
 001D4C 47F0 7000      04FB8        3651        B IDENT                     EXIT                                 20616021
 001D50 9101 BF70      09820        3652 SIZERCK TM   SIZERROR,MSWON       E- WAS SIZERROR CHECKED FOR           20622021
 001D54 4780 F170      01D5C        3653        BZ    SIZECHK               NO                                   20628021
 001D58 47F0 F084      01C70        3654        B     STOR8  YES  CHECK IF SIZE ERROR FOUND                      20634021
 001D5C 45E0 7F5C      05F14        3655 SIZECHK BAL   RCS,PZSTRT             INITIALIZE SETTBL                  20640021
 001D60 4110 B0A0      08950        3656        LA    RW1,ASETBL            TO HOLD STRFLDS                      20646021
 001D64 5810 B0A0      08950        3657        L     RW1,ASETBL                                                 20652021
 001D68 412C 0000      00000        3658 SIZE1    LA    RW2,DX0(RIN)                                             20658021
 001D6C 45E0 7F94      05F4C        3659        BAL   RCS,COUNT             COMPUTE TOTAL NO. OF BYTES           20664021
 001D70 D200 1000 BE73 00000 09723  3660          MVC   DX0(LX1,RW1),BYTES+NX1 GET BYTE COUNT FOR INSERT         20670021
 001D76 45E0 7D16      05CCE        3661        BAL   RCS,PNSRTF            INSERT ELEMENT IN SETTBL             20676021
 001D7A 414C 0000      00000        3662          LA    RW4,DX0(RIN)                                             20682021
 001D7E 45E0 7566      0551E        3663        BAL   RCS,GETNXT            GET NEXT ELEMENT                     20688021
 001D82 45E0 8CE0      06C98        3664        BAL   RCS,ISIZER            SEE IF SIZE ERROR                    20694021
 001D86 47F0 F1BE      01DAA        3665        B     SIZE2                 NO-  SEE IF END                      20700021
1PH40     IKFCBL40                                                                                              PAGE   78
-  LOC  OBJECT CODE    ADDR1 ADDR2  STMT   SOURCE STATEMENT                                       ASM 0201 11.03 02/14/15
0001D8A 5850 BC70      09520        3666 SIZE3  L     RW5,TRUPNT            SAVE TRUPNT                          20706021
 001D8E 5811 0000      00000        3667          L     RW1,DX0(RW1)         POINT RW1 TO TAMM                   20712021
 001D92 58C1 0000      00000        3668          L     RIN,DX0(RW1)         POINT RIN TO BEGIN TABLE            20718021
 001D96 50C0 BC70      09520        3669        ST    RIN,TRUPNT                                                 20724021
 001D9A 9601 BFD3      09883        3670        OI    SETRIN,MSWON          SIGNAL TO GETNXT AND ADD             20730021
 001D9E 9502 BEE2      09792        3671          CLI   EVAL+NX2,XX02       WAS SIZERROR FOUND                   20736021
 001DA2 4770 F08C      01C78        3672        BNE   STOR85           YES- GN FOR SIZERROR ID OF FFFF           20742021
 001DA6 47F0 F0AE      01C9A        3673        B     STOR10            SIZERR NOT FOUND -ISSUE STOREVB          20748021
 001DAA 45E0 8C32      06BEA        3674 SIZE2  BAL   RCS,ISEND            NOT SIZERROR- BUT IS ENDOWRD          20754021
 001DAE 47F0 F17C      01D68        3675        B     SIZE1               NO- SAVE THIS ELEMENT IN SETTBL        20760021
                                    3676 *             AND THEN CHECK NEXT FOR SIZERROR                          20766021
 001DB2 47F0 F19E      01D8A        3677        B     SIZE3                 NO SIZERROR                          20772021
1PH40     IKFCBL40                                                                                              PAGE   79
-  LOC  OBJECT CODE    ADDR1 ADDR2  STMT   SOURCE STATEMENT                                       ASM 0201 11.03 02/14/15
0001DB8                             3679 IKF40C CSECT                                                            20784021
                                    3680 *=1    IF      VERB                                                     20790021
                                    3681 *******************************************************************     20796021
                                    3682 *                                                                       20802021
                                    3683 *                                                                       20808021
                                    3684 *                                  I F                                  20814021
                                    3685 *                                                                       20820021
                                    3686 *        CHECKS SYNTAX OF IF STATEMENT,CALLING ON FORMLA TO ANALYZE     20826021
                                    3687 *              EXPRESSIONS                                              20832021
                                    3688 *        CALLS ON PUTSGN AND PUTNIN TO ENTER SIGNS AND OPERANDS IN      20838021
                                    3689 *              THE TABLES AND TO CREATE ARITHMETIC VERB STRINGS         20844021
                                    3690 *        WHEN PARENTHESES ARE FOUND, PUTSGN ADJUSTS THE PTRFLS LABE     20850021
                                    3691 *              TABLE TO REFLECT THE INFLUENCE OF 'NOT' AT THE NEW L     20856021
                                    3692 *        WHEN END,'AND',OR 'OR' IS FOUND,CALLS ON PFINDL TO ENTER T     20862021
                                    3693 *              APPROPRIATE BY-PASS LABELS IN THE PSHTBL PUSH-DOWN T     20868021
                                    3694 *              AND TO GENERATE THE APPROPRIATE FALL-THRU LABELS         20874021
                                    3695 *                                                                       20880021
                                    3696 *        IN GENERAL, 'BYPASS LABEL' IS THE BRANCH TAKEN WHEN A GIVE     20886021
                                    3697 *              CONDITION FAILS, 'FALL-THRU LABEL' WHEN IT IS SUCCES     20892021
                                    3698 *              FUL                                                      20898021
                                    3699 *                                                                       20904021
                                    3700 *                                                                       20910021
                                    3701 *        SYNTAX IS CHECKED BY THE FOLLOWING ALGORITHM                   20916021
                                    3702 *                                                                       20922021
                                    3703 *  IS IT                YES                             NO              20928021
                                    3704 *                                                                       20934021
                                    3705 *  1. 'NOT'    PROCESS,GETNXT,GO TO 2        GO TO 2                    20940021
                                    3706 *  2. (        PROCESS,GETNXT,GO TO 1        GO TO 3                    20946021
                                    3707 *  3. ALPHALIT PROCESS,GETNXT GO TO R1       GO TO 4                    20952021
                                    3708 *  4. FORMULA  GO TO 5                       E R R O R - - - - - -      20958021
                                    3709 *  5. ONLY DN  GO TO R2 (CLASS TEST)         GO TO 6                    20964021
                                    3710 *  6. ONLY NUM GO TO R5 (RELATION TEST)      GO TO R3 (SIGN TEST)       20970021
                                    3711 *                                                                       20976021
                                    3712 *****                       RELATIONALS                           *     20982021
                                    3713 *                                                                       20988021
                                    3714 * R1. LEV. 88  PROCESS ALL,GETNXT,GO TO R4   GO TO R5                   20994021
                                    3715 * R2. CLASS    PROCESS ALL,GETNXT,GO TO R4   GO TO R3                   21000021
                                    3716 * R3. SIGN     PROCESS ALL,GETNXT,GO TO R4   GO TO R5                   21006021
                                    3717 * R4. )        PROCESS,GETNXT,GO TO R4       TURN ON PNDREL, GO TO      21012021
                                    3718 * R5. RELAT.   TURN OFF PNDREL,PROCESS,      GO TO R7                   21018021
                                    3719 *              GETNXT,GO TO R6                                          21024021
                                    3720 * R6. PRTURN   ON - GO TO 7                  OFF - PROCESS LEFT,GO      21030021
                                    3721 * R7. PRTURN   ON - TURN OFF PRTURN,GO TO 1  OFF - GO TO R8             21036021
                                    3722 * R8. PNDREL   ON - E R R O R - - - - - - -  OFF - PROC. RIGHT,GO T     21042021
                                    3723 *                                                                       21048021
                                    3724 *****                                                             *     21054021
                                    3725 *                                                                       21060021
                                    3726 *  7. ALPHALIT PROCESS RIGHT,GETNXT,GO TO 9  GO TO 8                    21066021
                                    3727 *  8. FORMULA  PROCESS RIGHT,GETNXT,GO TO 9  E R R O R - - - - - -      21072021
                                    3728 *  9. END      PROCESS,GETNXT,EXIT           GO TO 10                   21078021
                                    3729 * 10. AND      PROCESS,GETNXT,GO TO 12       GO TO 11                   21084021
                                    3730 * 11. OR       PROCESS,GETNXT,GO TO 12       E R R O R - - - - - -      21090021
                                    3731 * 12. PNDREL   ON - PRTURN OFF,GO TO 1       OFF - PRTURN ON, GO TO     21096021
                                    3732 *                                                                       21102021
                                    3733 *                                                                       21108021
1PH40     IKFCBL40                                                                                              PAGE   80
-  LOC  OBJECT CODE    ADDR1 ADDR2  STMT   SOURCE STATEMENT                                       ASM 0201 11.03 02/14/15
0                                   3734 *** STRINGS PRODUCED                                                    21114021
                                    3735 *     (ARITHMETIC EXPRESSIONS ARE REDUCED BY FORMLA AND THE STRINGS     21120021
                                    3736 *        STORED)                                                        21126021
                                    3737 *      IF ITSELF PRODUCES ONLY A SIMPLE STRING. GNARTH GENRS THE        21132021
                                    3738 *       STRINGS (IF ANY) PRODUCED BY FORMLA FOLLOWED BY THE IF STRI     21138021
                                    3739 *      1. CONDITION TEST                                                21144021
                                    3740 *              RELATION-VERB  LITERAL  DATA-NAME  RGN-BYPASS            21150021
                                    3741 *      2. SIGN TEST                                                     21156021
                                    3742 *              RELATION-VERB   DATA-NAME ZERO     RGN-BYPASS            21162021
                                    3743 *      3. RELATION TEST                                                 21168021
                                    3744 *              RELATION-VERB   OPERAND OPERAND     RGN-BYPASS           21174021
                                    3745 *      4. CLASS TEST                                                    21180021
                                    3746 *              CLASS-VERB     DATA-NAME           RGN-BYPASS            21186021
                                    3747 *                                                                       21192021
                                    3748 *                                                                       21198021
                                    3749 *** SUBROUTINES CALLED                                                  21204021
                                    3750 *      GETNXT,SAVNXT,STOR45,PGONXT,FORMLA,PUTSGN,PUTNIN,PEMPTY,PFIN     21210021
                                    3751 *      COUNT,PCHCNT,PZSTRT,GETMOD,ISEND,ISNXTS,GENSTR,GNARTH,ERROR      21216021
                                    3752 *      PACKTB                                                           21222021
                                    3753 *                                                                       21228021
                                    3754 *                                                                       21234021
                                    3755 *** ERROR PROCESSING                                                    21240021
                                    3756 *      CERTAIN ERROR CONDITIONS ARE DIAGNOSED BY FORMLA AND PUTSGN,     21246021
                                    3757 *        Q.V.                                                           21252021
                                    3758 *      WHEN A NON-OPERAND IS FOUND WHERE AN OPERAND IS EXPECTED,SKI     21258021
                                    3759 *        TILL AND/OR/END                                                21264021
                                    3760 *      WHEN AND/OR/END NOT FOUND WHERE EXPECTED,SKIP TILL ONE IS FO     21270021
                                    3761 *      WHEN NO RELATIONAL IS FOUND WHERE EXPECTED ASSUME '='            21276021
                                    3762 *      WHEN 'NOT' PRECEDES RIGHT TERM, WARN, BUT TREAT AS THOUGH IT     21282021
                                    3763 *        NEGATED THE RELATIONAL                                         21288021
                                    3764 *      WHEN SEVERAL NOT'S FOLLOW EACH OTHER WITHOUT INTERVENING ('S     21294021
                                    3765 *        WARN BUT PROCESS NORMALLY                                      21300021
                                    3766 *      WHEN EXTRA 'IF' OR 'UNTIL' FOLLOWS AND/OR WARN,DISCARD,AND       21306021
                                    3767 *        CONTINUE NORMALLY                                              21312021
                                    3768 *      WHEN MODE OF LEFT AND RIGHT TERM ARE INCOMPATIBLE (ACCORDING     21318021
                                    3769 *        SRL MATRIX) SUBSTITUTE                                         21324021
                                    3770 *          'TALLY = ZERO'  IN CLASS OR SIGN TEST                        21330021
                                    3771 *          'SPACE' FOR RIGHT TERM IF LEFT IS ALPHABETIC IN REL. TES     21336021
                                    3772 *          'ZERO'  .   .     .    .  .    .  OTHER      .  .    .       21342021
                                    3773 *                                                                       21348021
                                    3774 *                                                                       21354021
                                    3775 *** NOTES                                                               21360021
                                    3776 *                                                                       21366021
                                    3777 *        THE SWITCHES PNDREL AND PRTURN ARE USED FOR HANDLING IMPLI     21372021
                                    3778 *          SUBJECTS AND RELATIONALS.                                    21378021
                                    3779 *              PNDREL IS TURNED ON WHENEVER AN IMPLIED SUBJECT WOUL     21384021
                                    3780 *                ILLEGAL, THAT IS, AT THE BEGINNING OF THE STATEMEN     21390021
                                    3781 *                AND AFTER A CONDITIONAL VARIABLE,SIGN TEST,OR CLAS     21396021
                                    3782 *                TEST IS FOUND. IT IS TURNED OFF WHEN A RELATIONAL      21402021
                                    3783 *                IS FOUND. IF PNDREL IS ON AND NO RELATIONAL IS FOU     21408021
                                    3784 *                IT IS AN ERROR.                                        21414021
                                    3785 *              PRTURN IS TURNED ON AFTER 'AND' OR 'OR' IF PNDREL IS     21420021
                                    3786 *                OFF. THEN THE PROGRAM BRANCHES DIRECTLY TO SEEK A      21426021
                                    3787 *                RELATIONAL. IF A RELATIONAL IS FOUND WHEN PRTURN I     21432021
                                    3788 *                ON,PROCESSING OF THE LEFT-HAND TERM IS INHIBITED.      21438021
1PH40     IKFCBL40                                                                                              PAGE   81
-  LOC  OBJECT CODE    ADDR1 ADDR2  STMT   SOURCE STATEMENT                                       ASM 0201 11.03 02/14/15
0                                   3789 *                PRTURN IS TURNED OFF (1) WHEN PNDREL IS TURNED ON,     21444021
                                    3790 *                (2) WHEN PNDREL IS OFF AND A RELATIONAL IS NOT FOU     21450021
                                    3791 *                NOW, THE NEXT TIME A RELATIONAL IS NOT FOUND AND       21456021
                                    3792 *                PNDREL IS OFF, THE PROGRAM BRANCHES TO HANDLE THE      21462021
                                    3793 *                OPERAND AS A RIGHT TERM                                21468021
                                    3794 *                                                                       21474021
                                    3795 *                                                                       21480021
                                    3796 *                                                                       21486021
                                    3797 *                                                                       21492021
                                    3798 *        HANDLING OF 'NOT' INVOLVES TWO SWITCHES, PNOTSW AND PNEGSW     21498021
                                    3799 *              PNOTSW IS TURNED ON WHEN 'NOT' IS FOUND,AND TURNED O     21504021
                                    3800 *               BY WHATEVER ROUTINE QUESTIONS IT. IF PUTSGN FINDS I     21510021
                                    3801 *               ON WHEN IT GETS A (, IT INVERTS THE POS-NEG BIT OF      21516021
                                    3802 *               PRECEDING LEVEL TO PRODUCE THE POS-NEG BIT OF THE N     21522021
                                    3803 *               LEVEL IN THE LABEL TABLE PTRFLS.                        21528021
                                    3804 *               IF PUTNIN FINDS IT ON IN PROCESSING AN OPERAND IT       21534021
                                    3805 *               INVERTS PNEGSW. WHEN IF FINDS IT ON IN PROCESSING       21540021
                                    3806 *               A RELATIONAL IT INVERTS THE RELATIONAL.                 21546021
                                    3807 *              PNEGSW IS INITIALIZED OFF, THEN INVERTED (ON-OFF-ON-     21552021
                                    3808 *               ETC.) AS NOTED ABOVE. IT IS ALSO INVERTED WHEN PUTS     21558021
                                    3809 *               FINDS A ) AND NOTES THAT THE POS-NEG BIT OF THIS LE     21564021
                                    3810 *               ON PTRFLS IS OPPOSITE TO THE POS-NEG BIT OF THE PRE     21570021
                                    3811 *               ING LEVEL.                                              21576021
                                    3812 *        AT THE END OF PROCESSING A SIMPLE CONDITION, IF PNEGSW IS      21582021
                                    3813 *          THE RELATIONAL IS REVERSED. PNEGSW HAS A PURELY LOCAL EF     21588021
                                    3814 *          AND DOES NOT CARRY TO THE IMPLIED RELATIONAL. THE PRESEN     21594021
                                    3815 *          OF THE NEG BIT ON THE CURRENT LEVEL OF PTRFLS HOWEVER CA     21600021
                                    3816 *          BOTH THE RELATIONAL TO BE REVERSED AND THE 'AND'S TO BEC     21606021
                                    3817 *          EFFECTIVELY 'OR'S AND VICE VERSA.                            21612021
                                    3818 *                                                                       21618021
                                    3819 *                                                                       21624021
                                    3820 *                                                                       21630021
                                    3821 *******************************************************************     21636021
-
-
                             01DB8  3823          USING *,RVRB                                                   21648021
                             01DB8  3824 IF       EQU   *                                                        21654021
 001DB8 9601 BF79      09829        3825        OI      PLOGIC,MSWON     SW TELLS SUBROUTINES WE ARE IN IF       21660021
 001DBC 9101 BFB7      09867        3826        TM    SEARCHSW,MSWON   CALLED BY SEARCH                    5961  21666021
 001DC0 4710 F018      01DD0        3827        BO    IF0              YES                                 5961  21672021
 001DC4 9101 BFB9      09869        3828        TM    SRCHALSW,MSWON   CALLED BY SEARCH ALL                5961  21678021
 001DC8 4710 F018      01DD0        3829        BO    IF0              YES                                 5961  21684021
 001DCC 9601 BFDA      0988A        3830        OI    IFSW1,MSWON      TURN ON IF SWITCH                   5961  21690021
 001DD0                             3831 IF0    DS    0H                                                   5961  21696021
 001DD0 9101 BFA3      09853        3832        TM      PERFSW,MSWON      IS CALL FROM PERFORM                   21702021
 001DD4 4710 F028      01DE0        3833          BC    ONES,*+NX12          YES                                 21708021
 001DD8 4100 BE56      09706        3834        LA      RA0,VERB44        PARAM FOR MSG 56                       21714021
 001DDC 45E0 8C54      06C0C        3835        BAL     RCS,ISTRUV          NO - CHECK IF CONDITION ALLOWED      21720021
 001DE0 5820 B080      08930        3836        L       RW2,APTFLS         STORE ZEROES IN PTRFLS TABLE          21726021
 001DE4 5822 0000      00000        3837          L     RW2,DX0(RW2)                                             21732021
 001DE8 4832 0004      00004        3838          LH    RW3,DX4(RW2)        RW3 GETS BYTES USED                  21738021
1PH40     IKFCBL40                                                                                              PAGE   82
-  LOC  OBJECT CODE    ADDR1 ADDR2  STMT   SOURCE STATEMENT                                       ASM 0201 11.03 02/14/15
0001DEC D201 2004 A5AA 00004 082A2  3839          MVC   DX4(LX2,RW2),N10     REDUCE COUNT-FIELD TO 2 ENTRIES     21744021
                                    3840 *                            THAT IS, 0 LEVEL AND POSSIBLE HIGHER H     21750021
                                    3841 *              (EXTRA ONE NEEDED WHEN AND,NOT AND, OR NOT OR FOUND)     21756021
 001DF2 D201 B084 A5AA 08934 082A2  3842          MVC   DSPTRF(LX2),N10     INIT SAVED DISPLACEMENT              21762021
 001DF8 5822 0000      00000        3843          L     RW2,DX0(RW2)        RW2 GETS ADDR. OF TABLE              21768021
 001DFC 1842                        3844        LR      RW4,RW2            SAVE START OF PTRFLS IN RW4           21774021
 001DFE 0630                        3845        BCTR  RW3,RA0               DECREAMENT COUNT BY 1                21780021
 001E00 4930 A5B8      082B0        3846 IF1    CH      RW3,N256           ZERO ALL ENTRIES USED                 21786021
 001E04 4740 F062      01E1A        3847        BC      LO,IF2              LESS THAN 256 BYTES LEFT             21792021
 001E08 D7FF 2000 2000 00000 00000  3848          XC    DX0(LX256,RW2),DX0(RW2)                                  21798021
 001E0E 4A20 A5B8      082B0        3849        AH      RW2,N256                                                 21804021
 001E12 4B30 A5B8      082B0        3850        SH      RW3,N256                                                 21810021
 001E16 47F0 F048      01E00        3851        BC      UNCOND,IF1          LOOP BACK                            21816021
 001E1A 1233                        3852 IF2    LTR     RW3,RW3             ARE ALL ENTRIES USED                 21822021
 001E1C 4780 F06C      01E24        3853          BC    ZERO,*+NX8          ALL ENTRIES USED                     21828021
 001E20 4430 A578      08270        3854        EX      RW3,CLEAN                                                21834021
 001E24 9101 BFA3      09853        3855        TM      PERFSW,MSWON       FOR 'UNTIL' IN PERFORM NEGATE THE     21840021
 001E28 4780 F078      01E30        3856          BC    ZERO,*+NX8           ENTIRE CONDITION BY PUTTING NEG     21846021
 001E2C 9601 4000      00000        3857          OI    DX0(RW4),MSWON       BIT AT LEVEL 0                      21852021
 001E30 45E0 7F5C      05F14        3858        BAL     RCS,PZSTRT         INIT. OTHER TABLES                    21858021
 001E34 4120 B070      08920        3859        LA    RW2,APNOUN                                                 21864021
 001E38 4110 B078      08928        3860        LA    RW1,APSGNT                                                 21870021
 001E3C 94FE BF78      09828        3861          NI    PNOTSW,MSWOFF       INITIALIZE SWITCHES                  21876021
 001E40 94FE BFCD      0987D        3862        NI      IFERSW,MSWOFF                                            21882021
 001E44 94FE BF8C      0983C        3863        NI      NOTRSW,MSWOFF                                            21888021
 001E48 D701 BF66 BF66 09816 09816  3864          XC    DMAXSW(LX2),DMAXSW                                       21894021
 001E4E 94FE BFA5      09855        3865        NI      PRERSW,MSWOFF                                            21900021
 001E52 94FE BF77      09827        3866          NI    PNEGSW,MSWOFF                                            21906021
 001E56 9601 BF69      09819        3867          OI    PNDREL,MSWON                                             21912021
 001E5A D701 BE7C BE7C 0972C 0972C  3868          XC    PRNLEV(LX2),PRNLEV    INITIALIZE LEVELS                  21918021
 001E60 D707 BE80 BE80 09730 09730  3869          XC    OPLEV(LX8),OPLEV    ERROR-CHECK LEVELS                   21924021
 001E66 D201 BE7E A5A4 0972E 0829C  3870          MVC   HILEV(LX2),N5                                            21930021
 001E6C D702 BEE5 BEE5 09795 09795  3871          XC    DMAX(LX3),DMAX      INIT. EVAL STRING                    21936021
 001E72 9202 BEE2      09792        3872          MVI   EVAL+NX2,XX02                                            21942021
 001E76 D701 BE8A BE8A 0973A 0973A  3873          XC    LEFTDP(LX2),LEFTDP  INIT. LEFT-TERM STRING POINTER       21948021
 001E7C D701 BE60 BE60 09710 09710  3874          XC    LEFTSS(LX2),LEFTSS    AND LEFT SUBSCRIPT POINTER         21954021
 001E82 D701 BE78 BE78 09728 09728  3875          XC    PRVSCT(LX2),PRVSCT                                       21960021
 001E88 D701 BE7A BE7A 0972A 0972A  3876          XC    PNOUCT(LX2),PNOUCT                                       21966021
                                    3877 *                                                                       21972021
                                    3878 *              SEEK NOT ( NOT ( NOT )))                                 21978021
                                    3879 *                                                                       21984021
                             01E8E  3880 IF10   EQU     *                                                        21990021
 001E8E 94FE BF6A      0981A        3881          NI    PRTURN,MSWOFF       REINITIALIZE FOR COMPOUND CONDS.     21996021
                                    3882 *                                                                       22002021
 001E92 45E0 F632      023EA        3883        BAL     RCS,ISPRNO         PROCESS 'NOT'S AND LEADING '('S       22008021
                                    3884 *                                                                       22014021
                                    3885 *        SEEK OPERAND (LEFT TERM IF PNDREL ON, OTHERWISE EITHER TER     22020021
                                    3886 *                                                                       22026021
 001E96 45E0 939C      071F4        3887        BAL     RCS,FORMLA         IS IT FORMULA                         22032021
 001E9A 47F0 F516      022CE        3888        BC      UNCOND,IFERR        NO - ERROR                           22038021
 001E9E 47F0 F116      01ECE        3889        BC      UNCOND,IF17         NO - NON-NUMERIC DATA OPERAND        22044021
 001EA2 D201 BE80 BE7C 09730 0972C  3890 IF16     MVC   OPLEV(LX2),PRNLEV     YES - SAVE LEVEL                   22050021
 001EA8 9530 B6F4      08FA4        3891        CLI     PRSULT,MDN         IS IT SINGLE DATA-NAME                22056021
 001EAC 4780 F122      01EDA        3892        BC      EQ,RELCLS          YES - SEEK CLASS,SIGN,OR RELATION     22062021
 001EB0 9531 B6F4      08FA4        3893        CLI     PRSULT,MSS                                               22068021
1PH40     IKFCBL40                                                                                              PAGE   83
-  LOC  OBJECT CODE    ADDR1 ADDR2  STMT   SOURCE STATEMENT                                       ASM 0201 11.03 02/14/15
0001EB4 4780 F122      01EDA        3894        BC      EQ,RELCLS           SEEK CLASS,SIGN OR RELATION          22074021
 001EB8 95BA B6F4      08FA4        3895        CLI     PRSULT,MIR         IS IT MULTI-OPERAND FORMULA           22080021
 001EBC 4780 F14E      01F06        3896        BC      EQ,RELSGN          YES - SEEK SIGN OR RELATION           22086021
 001EC0 D501 B6F4 A4D0 08FA4 081C8  3897          CLC   PRSULT(LX2),CBTALY    SAME FOR 'TALLY'                   22092021
 001EC6 4780 F14E      01F06        3898        BC      EQ,RELSGN           SEEK SIGN OR RELATION                22098021
 001ECA 47F0 F1D8      01F90        3899        BC      UNCOND,RELTST       NO - LIT, SEEK RELATION TEST         22104021
 001ECE 45E0 94F6      0734E        3900 IF17   BAL     RCS,PUTNIN          ENTER OPERAND IN PNOUNT              22110021
 001ED2 45E0 9790      075E8        3901        BAL     RCS,PEMPTY          EMPTY OUT PSIGNS TABLE               22116021
 001ED6 47F0 F0EA      01EA2        3902        BC      UNCOND,IF16         SAVE LEVEL OF DN                     22122021
                                    3903 *                                                                       22128021
                                    3904 *                                                                       22134021
                                    3905 *              PROCESS RELATIONALS                                      22140021
                                    3906 *                                                                       22146021
                                    3907 *                                                                       22152021
                                    3908 *        A SINGLE DATA-NAME MAY BE LEFT TERM OF CLASS,SIGN,OR RELAT     22158021
                                    3909 *        A SINGLE LITERAL                   CONDITION,SIGN,OR RELAT     22164021
                                    3910 *        A MULTI-OPERAND FORMULA                SIGN,OR RELATION        22170021
                                    3911 *                                                                       22176021
                                    3912 *        PRELAT IS A ONE-BYTE FIELD IN WHICH THE RELATIONAL-CODE IS     22182021
                                    3913 *          STORED. AT THE END OF EACH SIMPLE TEST PRELAT IS MOVED T     22188021
                                    3914 *          PRLVRB - THAT IS, THE VERB FOR THE CURRENT TEST, AND         22194021
                                    3915 *          THERE REVERSED IF PNEGSW IS ON. PRELAT ITSELF REMAINS IN     22200021
                                    3916 *          ITS ORIGINAL STATE FOR POSSIBLE USE AS AN IMPLIED RELATI     22206021
                                    3917 *                                                                       22212021
                                    3918 *        PLEFT HOLDS THE LEFT TERM AND PRIGHT THE RIGHT TERM WHEN T     22218021
                                    3919 *          HAVE BEEN DETERMINED. PLEFT IS NOT CHANGED UNLESS TWO        22224021
                                    3920 *          OPERANDS SEPARATED BY A RELATIONAL ARE FOUND. THUS IT        22230021
                                    3921 *          REMAINS INTACT AS AN IMPLIED SUBJECT IF NEEDED.              22236021
                                    3922 *                                                                       22242021
                                    3923 *                                                                       22248021
                                    3924 *                                                                       22254021
                                    3925 *****                                                             *     22260021
                                    3926 *                                                                       22266021
                                    3927 *                        IS IT CLASS TEST                               22272021
                                    3928 *                                                                       22278021
 001EDA 45E0 F678      02430        3929 RELCLS   BAL   RCS,ISISNO          (GET RID OF 'IS' AND 'NOT')          22284021
 001EDE D501 C000 A336 0988B 0802E  3930          CLC   GOTTEN(LX2),CBALF    IS IT 'ALPHABETIC'                  22290021
 001EE4 4780 F142      01EFA        3931        BC      EQ,RELCL2          YES                                   22296021
 001EE8 D501 C000 A3E6 0988B 080DE  3932          CLC   GOTTEN(LX2),CBNUM    IS IT 'NUMERIC'                     22302021
 001EEE 4770 F152      01F0A        3933        BC      NOTEQ,RELSG1       NO - SEEK SIGN TEST                   22308021
 001EF2 920E BED3      09783        3934        MVI     PRELAT,MNUMVB        RELAT. VERB FOR NUMERIC             22314021
 001EF6 47F0 F146      01EFE        3935        BC      UNCOND,RELCL4       NUMERIC VERB FOUND                   22320021
 001EFA 920C BED3      09783        3936 RELCL2 MVI     PRELAT,MALFVB        RELAT.VERB FOR ALPHABETIC           22326021
 001EFE 9601 BF8B      0983B        3937 RELCL4 OI      CLASSW,MSWON                                             22332021
 001F02 47F0 F194      01F4C        3938        BC      UNCOND,RELS12        GO PROCESS LEFT TERM                22338021
                                    3939 *                                                                       22344021
                                    3940 *                        IS IT SIGN TEST                                22350021
                                    3941 *                                                                       22356021
 001F06 45E0 F678      02430        3942 RELSGN   BAL   RCS,ISISNO          (GET RID OF 'IS' AND 'NOT')          22362021
 001F0A D501 C000 A402 0988B 080FA  3943 RELSG1   CLC   GOTTEN(LX2),CBPOS    IS IT 'POSITIVE'                    22368021
 001F10 4780 F17A      01F32        3944          BC    EQ,RELS4             YES                                 22374021
 001F14 D501 C000 A3DE 0988B 080D6  3945          CLC   GOTTEN(LX2),CBNEG    IS IT 'NEGATIVE'                    22380021
 001F1A 4780 F184      01F3C        3946          BC    EQ,RELS6             YES                                 22386021
 001F1E D501 C000 A4EA 0988B 081E2  3947          CLC   GOTTEN(LX2),CBZERO   IS IT 'ZERO'                        22392021
 001F24 4770 F1DC      01F94        3948          BC    NOTEQ,RELT1          NO - SEEK RELATION TEST             22398021
1PH40     IKFCBL40                                                                                              PAGE   84
-  LOC  OBJECT CODE    ADDR1 ADDR2  STMT   SOURCE STATEMENT                                       ASM 0201 11.03 02/14/15
0                                   3949 *                                                                       22404021
                                    3950 *              SUPPLY RELATIONAL AND RIGHT TERM 'ZERO' FOR SIGN TES     22410021
                                    3951 *                                                                       22416021
 001F28 D200 BED3 A349 09783 08041  3952          MVC   PRELAT(LX1),CBEQSN+NX1                                   22422021
 001F2E 47F0 F190      01F48        3953        BC      UNCOND,RELS10      FOR ZERO WRITE = 0                    22428021
 001F32 D200 BED3 A3C3 09783 080BB  3954 RELS4    MVC   PRELAT(LX1),CBMORE+NX1     'POSITIVE'    GREATER ZERO    22434021
 001F38 47F0 F18A      01F42        3955          BC    UNCOND,RELS8        SUPPLY 'ZERO'                        22440021
 001F3C D200 BED3 A35B 09783 08053  3956 RELS6    MVC   PRELAT(LX1),CBLESS+NX1     'NEGATIVE'    LESS    ZERO    22446021
 001F42 D201 C000 A4EA 00000 081E2  3957 RELS8    MVC   DX0(LX2,RIN),CBZERO  SUPPLY 'ZERO'                       22452021
 001F48 9601 BF8A      0983A        3958 RELS10 OI      SIGNSW,MSWON       SWITCH TESTED BY OKCOMP               22458021
                                    3959 *                                                                       22464021
                                    3960 *        PROCESS OPERANDS OF CONDITION,CLASS,OR SIGN TEST               22470021
                                    3961 *                                                                       22476021
 001F4C 9101 BF78      09828        3962 RELS12   TM    PNOTSW,MSWON                                             22482021
 001F50 4780 F1A4      01F5C        3963          BC    ZERO,RELS14         'NOT' NOT FOUND                      22488021
 001F54 94FE BF78      09828        3964          NI    PNOTSW,MSWOFF                                            22494021
 001F58 9701 BED3      09783        3965        XI      PRELAT,MNEGRL       REVERSE RELATIONAL IF 'NOT' PREC     22500021
 001F5C 9601 BF69      09819        3966 RELS14 OI      PNDREL,MSWON    TURN ON PNDREL,ILLEGALIZING IMPLIED      22506021
 001F60 94FE BF8C      0983C        3967        NI      NOTRSW,MSWOFF      ANY 'NOT' FOUND WAS OK                22512021
 001F64 94FE BF68      09818        3968        NI      PFNDIS,MSWOFF       'IS' WAS OK                          22518021
 001F68 D201 BE86 BE7C 09736 0972C  3969          MVC   RELLEV(LX2),PRNLEV  SAVE LEVEL FOR ERROR CHECK           22524021
 001F6E 45E0 F70C      024C4        3970        BAL     RCS,IFLEFT         GET LEFT TERM INTO PLEFT              22530021
 001F72 9101 BF8B      0983B        3971        TM      CLASSW,MSWON       WAS IT CLASS TEST                     22536021
 001F76 4780 F2C2      0207A        3972        BC      ZERO,IF22           NO - GO PUT RIGHT TERM IN PRIGHT     22542021
 001F7A 45E0 7566      0551E        3973        BAL     RCS,GETNXT          YES - NO RIGHT TERM BUT PROCESS      22548021
 001F7E D501 C000 A414 0988B 0810C  3974          CLC   GOTTEN(LX2),CBRPRN    TRAILING )'S                       22554021
 001F84 4770 F7A2      0255A        3975        BC      NOTEQ,OKCOMP        NO                                   22560021
 001F88 45E0 9546      0739E        3976        BAL     RCS,PUTSGN          YES, ENTER OPERATOR IN PSIGNT        22566021
 001F8C 47F0 F7A2      0255A        3977        BC      UNCOND,OKCOMP       IS IT LEGAL COMBINATION              22572021
                                    3978 *                                                                       22578021
                                    3979 *                        IS IT RELATION TEST                            22584021
                                    3980 *                                                                       22590021
 001F90 45E0 F678      02430        3981 RELTST   BAL   RCS,ISISNO          (GET RID OF 'IS' AND 'NOT')          22596021
 001F94 9550 C000      0988B        3982 RELT1  CLI     GOTTEN,MREL        IS IT A RELATIONAL                    22602021
 001F98 4770 F25E      02016        3983        BC      NOTEQ,RELT10         NO                                  22608021
 001F9C D200 BED3 C001 09783 0988C  3984          MVC   PRELAT(LX1),GOTTEN+NX1 YES - PUT ITS CODE IN PRELAT      22614021
 001FA2 45E0 7566      0551E        3985        BAL     RCS,GETNXT          GET NEXT INPUT                       22620021
 001FA6 D500 BED3 A349 09783 08041  3986          CLC   PRELAT(LX1),CBEQSN+NX1 IS IT 'EQUAL TO'                  22626021
 001FAC 4780 F202      01FBA        3987        BC      EQ,RELT2            YES                                  22632021
 001FB0 D501 C000 A4D4 0988B 081CC  3988          CLC   GOTTEN(LX2),CBTHAN    OR 'MORE (LESS) THAN'              22638021
 001FB6 47F0 F208      01FC0        3989        BC      UNCOND,RELT4        TAKE PROPER BRANCH                   22644021
 001FBA D501 C000 A4E0 0988B 081D8  3990 RELT2    CLC   GOTTEN(LX2),CBTO                                         22650021
 001FC0 4770 F210      01FC8        3991 RELT4  BC      NOTEQ,RELT6          NO                                  22656021
 001FC4 45E0 7566      0551E        3992        BAL     RCS,GETNXT           YES                                 22662021
                                    3993 *                                                                       22668021
                                    3994 *              RELATION-TEST FOUND                                      22674021
                                    3995 *                                                                       22680021
 001FC8 45E0 F6B0      02468        3996 RELT6  BAL     RCS,OKPREN          ARE PARENTHESIS OK                   22686021
 001FCC 02                          3997        DC    XL1'2'              CHECK END VS LAST REL LEVEL            22692021
 001FCD 0D                          3998        DC      AL1(NOTHI)         OK IF END = OR LOW                    22698021
 001FCE D201 BE86 BE7C 09736 0972C  3999          MVC   RELLEV(LX2),PRNLEV SAVE NEW REL LEVEL                    22704021
 001FD4 94FE BF68      09818        4000 RELT8    NI    PFNDIS,MSWOFF       TURN OFF ERROR SWITCH                22710021
 001FD8 94FE BF69      09819        4001          NI    PNDREL,MSWOFF       TURN OFF PNDREL,LEGALIZING IMPLI     22716021
 001FDC 94FE BF8C      0983C        4002        NI      NOTRSW,MSWOFF      ANY 'NOT' FOUND WAS OK                22722021
 001FE0 9101 BF6A      0981A        4003          TM    PRTURN,MSWON                                             22728021
1PH40     IKFCBL40                                                                                              PAGE   85
-  LOC  OBJECT CODE    ADDR1 ADDR2  STMT   SOURCE STATEMENT                                       ASM 0201 11.03 02/14/15
0001FE4 4780 F24A      02002        4004        BC    ZERO,RELT9            NOT 'AND' OR 'OR'                    22734021
 001FE8 45E0 F6B0      02468        4005        BAL     RCS,OKPREN          ARE PAREN OK                         22740021
 001FEC 00                          4006        DC      XL1'0'            CHECK END VS LAST LEFT LEVEL           22746021
 001FED 0B                          4007        DC    AL1(NOTLO)           OK IF END = OR HIGH                   22752021
 001FEE 9101 BF78      09828        4008        TM    PNOTSW,MSWON      WAS NOT FOUND                            22758021
 001FF2 4780 F2AE      02066        4009        BC    ZERO,IF20         NO                                       22764021
 001FF6 94FE BF78      09828        4010        NI    PNOTSW,MSWOFF                                              22770021
 001FFA 9701 BF77      09827        4011        XI    PNEGSW,MSWON          NEGATES JUST THIS RELATIONAL         22776021
 001FFE 47F0 F2AE      02066        4012        B     IF20                  SEEK RIGHT-TERM                      22782021
 002002 9101 BF78      09828        4013 RELT9  TM    PNOTSW,MSWON          WAS 'NOT' FOUND                      22788021
 002006 4780 F2AA      02062        4014        BC    ZERO,IF18             NO                                   22794021
 00200A 94FE BF78      09828        4015        NI    PNOTSW,MSWOFF                                              22800021
 00200E 9701 BED3      09783        4016        XI    PRELAT,MNEGRL       REL FOLLOWED BY SUBJ-                  22806021
                                    4017 *                                  NEGATES THE RELATIONAL               22812021
 002012 47F0 F2AA      02062        4018        B     IF18                  'NOT' FOUND                          22818021
                                    4019 *                                   NEW RIGHT-TERM                      22824021
                                    4020 *                                                                       22830021
                                    4021 *              NO RELATIONAL OF ANY KIND FOUND                          22836021
                                    4022 *                                                                       22842021
                                    4023 *                                                                       22848021
 002016 9101 BF68      09818        4024 RELT10   TM    PFNDIS,MSWON        WAS 'IS' FOUND                       22854021
 00201A 4780 F278      02030        4025          BC    ZERO,RELT12         NO                                   22860021
 00201E 45E0 9BC2      07A1A        4026 RELT11 BAL     RCS,ERRIF           YES - ERROR                          22866021
 002022 4110 A054      07D4C        4027        LA      RW1,ELST0D                                               22872021
 002026 D200 BED3 A349 09783 08041  4028          MVC   PRELAT(LX1),CBEQSN+NX1                                   22878021
 00202C 47F0 F210      01FC8        4029          BC    UNCOND,RELT6        RELATION OPERATOR FOUND              22884021
 002030 9101 BF78      09828        4030 RELT12   TM    PNOTSW,MSWON        WAS 'NOT' FOUND                      22890021
 002034 4780 F28C      02044        4031          BC    ZERO,RELT14         NO                                   22896021
 002038 9701 BF77      09827        4032        XI    PNEGSW,MSWON                                               22902021
 00203C 94FE BF8C      0983C        4033        NI    NOTRSW,MSWOFF      ALLOW NOT BEFORE OBJECT                 22908021
 002040 94FE BF78      09828        4034          NI    PNOTSW,MSWOFF                                            22914021
 002044 9101 BF69      09819        4035 RELT14   TM    PNDREL,MSWON        WAS RELATIONAL REQUIRED              22920021
 002048 4710 F266      0201E        4036        BC      ONES,RELT11        YES - ERROR, ASSUME '='               22926021
 00204C 9101 BF6A      0981A        4037          TM    PRTURN,MSWON        NO- IF PRTURN IS OFF GO PROCESS      22932021
 002050 4770 F0D6      01E8E        4038        BC      NOTZER,IF10         DO NOT PROCESS                       22938021
 002054 45E0 F6B0      02468        4039        BAL     RCS,OKPREN         CHECK END VS LAST LEFT AND REL LE     22944021
 002058 04                          4040        DC      XL1'4'              VS LAST LEFT AND REL LEVEL           22950021
 002059 0B                          4041        DC      AL1(NOTLO)         OK IF END = OR HIGH                   22956021
 00205A 47F0 F2CA      02082        4042        BC      UNCOND,IF26         GO TO PROCESS RIGHT TERM             22962021
 00205E 47F0 F0D6      01E8E        4043        BC      UNCOND,IF10        IF IT IS ON, GO SEEK AN OPERAND       22968021
                                    4044 *                                                                       22974021
                                    4045 *                                                                       22980021
                                    4046 ******                                                          ***     22986021
                                    4047 *                    RELATIONAL HAS NOW BEEN PROCESSED                  22992021
                                    4048 *      GET OPERANDS , GET BRANCH-IDENTIFIERS AND CREATE STRINGS         22998021
                                    4049 *                                                                       23004021
                                    4050 *****                                                            **     23010021
                                    4051 *                                                                       23016021
                                    4052 *              OPERAND IN NOUNS TABLE IS LEFT TERM                      23022021
                                    4053 *                                                                       23028021
 002062 45E0 F70C      024C4        4054 IF18   BAL     RCS,IFLEFT         GET LEFT TERM IN PLEFT                23034021
                                    4055 *                                                                       23040021
                                    4056 *                        SEEK RIGHT-TERM                                23046021
                                    4057 *                                                                       23052021
 002066 45E0 F632      023EA        4058 IF20   BAL     RCS,ISPRNO         PROCESS LEADING 'NOT'S AND '('S       23058021
1PH40     IKFCBL40                                                                                              PAGE   86
-  LOC  OBJECT CODE    ADDR1 ADDR2  STMT   SOURCE STATEMENT                                       ASM 0201 11.03 02/14/15
000206A 45E0 939C      071F4        4059        BAL     RCS,FORMLA         IS OPERAND A FORMULA                  23064021
 00206E 47F0 F516      022CE        4060        BC      UNCOND,IFERR        NO - ERROR                           23070021
 002072 47F0 F2C2      0207A        4061        BC      UNCOND,IF22         NO - NON-NUMERIC DATA OPERAND        23076021
 002076 47F0 F2CA      02082        4062        BC      UNCOND,IF26         YES                                  23082021
 00207A 45E0 94F6      0734E        4063 IF22   BAL     RCS,PUTNIN         YES - PUT IN NOUNS TABLE              23088021
 00207E 45E0 9790      075E8        4064          BAL   RCS,PEMPTY          EMPTY OUT PSIGNS TABLE               23094021
                                    4065 *                                                                       23100021
                                    4066 *                        PROCESS RIGHT TERM                             23106021
                                    4067 *                                                                       23112021
 002082 94FE BFCD      0987D        4068 IF26   NI      IFERSW,MSWOFF      IF WE GOT HERE WE'VE RECOVERED FR     23118021
                                    4069 *                                  ASSUMPTIONS MADE AT IFERR, IF AN     23124021
 002086 9101 BF8C      0983C        4070        TM      NOTRSW,MSWON        DID 'NOT' PRECEDE LAST OPERAND       23130021
 00208A 4780 F2E2      0209A        4071        BC      ZERO,IF27           NO -OK                               23136021
 00208E 94FE BF8C      0983C        4072        NI      NOTRSW,MSWOFF       YES -ERROR                           23142021
 002092 45E0 9BDA      07A32        4073        BAL     RCS,ERROR           ERROR                                23148021
 002096 4110 A0A5      07D9D        4074        LA      RW1,ELST1B                                               23154021
 00209A 45E0 F752      0250A        4075 IF27   BAL     RCS,IFRIT           MOVE RESULT TO PRIGHT                23160021
 00209E 47F0 F7A2      0255A        4076        BC      UNCOND,OKCOMP      SEE IF LEFT AND RIGHT ARE COMPATI     23166021
                                    4077 *******************************************************************     23172021
                                    4078 *                                                                       23178021
                                    4079 *                                                                       23184021
                                    4080 *              END OF TEST-PORTION OF IF STATEMENT                      23190021
                                    4081 *                                                                       23196021
                                    4082 *              'OR','AND',OR AN ENDWORD SHOULD FOLLOW                   23202021
                                    4083 *                                                                       23208021
                                    4084 *        BYPASS-BRANCHES WILL GO INTO PSHTBL, FALL-THRU BRANCHES        23214021
                                    4085 *         WILL BE GENERATED AS ATTACHED TO NEXT STATEMENT               23220021
                                    4086 *                                                                       23226021
                                    4087 *                                                                       23232021
                                    4088 *                                                                       23238021
 0020A2 9101 BFB9      09869        4089 IF28   TM    SRCHALSW,MSWON                                             23244021
 0020A6 4780 F2FA      020B2        4090        BZ    IF281                 NO                                   23250021
 0020AA 58F0 A468      08160        4091        L     RVRB,ASRCHAL                                               23256021
                             03C92  4092        USING SRCHAL,RVRB                                                23262021
 0020AE 47F0 F284      03F16        4093        B     AFTCM1                STORE IN STRING                      23268021
                             01DB8  4094        USING IF,RVRB                                                    23274021
                             020B2  4095 IF281  EQU   *                                                          23280021
 0020B2 D200 BE9E BED3 0974E 09783  4096          MVC   PRLVRB+NX1(LX1),PRELAT ATTACH RELATIONAL CODE TO VERB H  23286021
 0020B8 9101 BF77      09827        4097          TM    PNEGSW,MSWON                                             23292021
 0020BC 4780 F310      020C8        4098        BC      ZERO,IF29           SWITCH IS OFF                        23298021
 0020C0 94FE BF77      09827        4099          NI    PNEGSW,MSWOFF       PNEGSW ON,REVERSE VERB               23304021
 0020C4 9701 BE9E      0974E        4100          XI    PRLVRB+NX1,MNEGRL                                        23310021
 0020C8 4560 F31E      020D6        4101 IF29     BAL   RW6,IF30            LOAD RW6 WITH ADDR. OF PTRFLS GU     23316021
                                    4102 *                                                                       23322021
                                    4103 *                                                                       23328021
                                    4104 *  PTRFLS GUIDE                                                         23334021
                                    4105 *        START SEARCHING PTRFLS TABLE AT START+PRNLEV+BYTE1 FOR BYP     23340021
                                    4106 *                                        START+PRNLEV+BYTE2 FALL-TH     23346021
                                    4107 *        IF TERMINATOR IS                                               23352021
                                    4108 *                                                                       23358021
 0020CC 0301                        4109        DC      XL2'0301'       END                                      23364021
 0020CE 0306                        4110        DC      XL2'0306'       AND                                      23370021
 0020D0 0103                        4111        DC      XL2'0103'       OR                                       23376021
 0020D2 0608                        4112        DC      XL2'0608'       NOT AND                                  23382021
 0020D4 0306                        4113        DC      XL2'0306'       NOT OR                                   23388021
1PH40     IKFCBL40                                                                                              PAGE   87
-  LOC  OBJECT CODE    ADDR1 ADDR2  STMT   SOURCE STATEMENT                                       ASM 0201 11.03 02/14/15
0                                   4114 *                                                                       23394021
 0020D6 45E0 8C32      06BEA        4115 IF30   BAL     RCS,ISEND     IS IT ENDWORD                              23400021
 0020DA 47F0 F32A      020E2        4116          BC    UNCOND,*+NX8        NO                                   23406021
 0020DE 47F0 F384      0213C        4117          BC    UNCOND,IF34         YES                                  23412021
 0020E2 D501 C000 A3E0 0988B 080D8  4118          CLC   GOTTEN(LX2),CBNEXT   IS IT 'NEXT'                        23418021
 0020E8 4780 F384      0213C        4119          BC    EQ,IF34             YES - TREAT AS END                   23424021
 0020EC 9601 BF6A      0981A        4120          OI    PRTURN,MSWON                                             23430021
 0020F0 D501 C000 A33A 0988B 08032  4121          CLC   GOTTEN(LX2),CBAND    IS IT 'AND'                         23436021
 0020F6 4780 F3BC      02174        4122          BC    EQ,IF36             YES                                  23442021
 0020FA D501 C000 A3FE 0988B 080F6  4123          CLC   GOTTEN(LX2),CBOR     IS IT 'OR'                          23448021
 002100 4780 F3C8      02180        4124          BC    EQ,IF40             YES                                  23454021
 002104 9101 BFA3      09853        4125        TM      PERFSW,MSWON                                             23460021
 002108 4780 F35E      02116        4126        BC      ZERO,IF31           GET NEXT ENTITY                      23466021
 00210C D501 C000 A534 0988B 0822C  4127          CLC   GOTTEN(LX2),CBAFTR  IS IT 'AFTER' IN PERFORM             23472021
 002112 4780 F384      0213C        4128        BC      EQ,IF34            YES - TREAT AS END                    23478021
 002116 45E0 9BCE      07A26        4129 IF31   BAL     RCS,ERONCE         NO - WRITE MSG ONLY ONCE              23484021
 00211A 4110 A0BA      07DB2        4130        LA      RW1,ELST1E                                               23490021
 00211E 9101 BFB7      09867        4131        TM    SEARCHSW,MSWON                                             23496021
 002122 4780 F37C      02134        4132        BZ   IF32                   NOT ON                               23502021
 002126 D501 C000 A520 0988B 08218  4133          CLC   GOTTEN(LX2),CBWHEN                                       23508021
 00212C 4770 F37C      02134        4134        BNE   IF32                  NOT 'WHEN'                           23514021
 002130 47F0 F384      0213C        4135        B     IF34                  YES                                  23520021
 002134 45E0 7566      0551E        4136 IF32   BAL   RCS,GETNXT            GET NEXT INPUT                       23526021
 002138 47F0 F31E      020D6        4137          BC    UNCOND,IF30         CHECK IF ENEWORD                     23532021
                                    4138 *                                                                       23538021
                                    4139 *                     IF-TERMINATOR FOUND                               23544021
                                    4140 *                                                                       23550021
 00213C 94FE BF6A      0981A        4141 IF34     NI    PRTURN,MSWOFF       TURN OFF PRTURN. THIS IS END         23556021
 002140 D701 BE8A BE8A 0973A 0973A  4142          XC    LEFTDP(LX2),LEFTDP  NOTE-SINCE GNARTH AT END RESTORES    23562021
 002146 D701 BE60 BE60 09710 09710  4143          XC    LEFTSS(LX2),LEFTSS   THE TAMM DISPL. TO THEIR LEFT       23568021
                                    4144 *                                  VALUES, THIS CAUSES TABLES TO EM     23574021
 00214C D501 BE7C A598 0972C 08290  4145          CLC   PRNLEV(LX2),N0       IS PRN LEVEL 0                      23580021
 002152 4780 F3AC      02164        4146        BC      EQ,IF37              YES / OK                            23586021
 002156 45E0 9BDA      07A32        4147        BAL     RCS,ERROR           PRN LEVEL NOT 0                      23592021
 00215A 4110 A024      07D1C        4148        LA      RW1,ELST06                                               23598021
 00215E D701 BE7C BE7C 0972C 0972C  4149          XC    PRNLEV(LX2),PRNLEV                                       23604021
 002164 9101 BFA3      09853        4150 IF37   TM      PERFSW,MSWON                                             23610021
 002168 4710 F3EA      021A2        4151        BC      ONES,IF44          FOR UNTIL D O N ' T                   23616021
 00216C 9701 BE9E      0974E        4152          XI    PRLVRB+NX1,MNEGRL     FOR IF  D O                        23622021
 002170 47F0 F3EA      021A2        4153        BC      UNCOND,IF44              REVERSE RELATIONAL              23628021
 002174 4166 0002      00002        4154 IF36     LA    RW6,DX2(RW6)         RW6=2 FOR AND                       23634021
 002178 9701 BE9E      0974E        4155          XI    PRLVRB+NX1,MNEGRL   REVERSE RELATIONAL FOR 'AND'         23640021
 00217C 47F0 F3CC      02184        4156          BC    UNCOND,IF42         CREATE STRINGS                       23646021
 002180 4166 0004      00004        4157 IF40     LA    RW6,DX4(RW6)         RW6=4 FOR OR                        23652021
                                    4158 *                                                                       23658021
                                    4159 *                                                                       23664021
                                    4160 *                   CREATE STRINGS                                      23670021
                                    4161 *                                                                       23676021
                                    4162 *                                                                       23682021
 002184 4820 BE7C      0972C        4163 IF42     LH    RW2,PRNLEV          RW2 HOLDS PAREN LEVEL (KEPT IN       23688021
 002188 5810 B080      08930        4164        L       RW1,APTFLS            MULTIPLES OF 5)                    23694021
 00218C 5811 0000      00000        4165          L     RW1,DX0(RW1)                                             23700021
 002190 5811 0000      00000        4166          L     RW1,DX0(RW1)         RW1  ADDR. OF START OF TABLE        23706021
 002194 1A12                        4167          AR    RW1,RW2               +PAREN LEVEL                       23712021
 002196 9101 1000      00000        4168          TM    DX0(RW1),MSWON       IS 'NOT' ACTIVE AT THIS LEVEL       23718021
1PH40     IKFCBL40                                                                                              PAGE   88
-  LOC  OBJECT CODE    ADDR1 ADDR2  STMT   SOURCE STATEMENT                                       ASM 0201 11.03 02/14/15
000219A 4780 F3EA      021A2        4169          BC    ZERO,IF44           NO                                   23724021
 00219E 4166 0004      00004        4170          LA    RW6,DX4(RW6)         RW6=RW6+4 (I.E.,6'AND',8 'OR')      23730021
 0021A2 D200 BE89 6000 09739 00000  4171 IF44     MVC   PLOW+NX1(LX1),DX0(RW6) PLOW GETS 1ST BYTE OF PTRFLS GUID 23736021
 0021A8 9601 BF72      09822        4172          OI    IFBYPS,MSWON        INDICATE BYPASS PROCESSING   ( P     23742021
 0021AC 45E0 91B4      0700C        4173        BAL     RCS,PFINDL          GO PUT LABELS OF HIGHER LEVELS I     23748021
 0021B0 4140 BE9D      0974D        4174        LA      RW4,PRLVRB         STORE RELATIONAL VERB IN STRING       23754021
 0021B4 45E0 8000      05FB8        4175        BAL     RCS,STOR45          STORE IN STRING                      23760021
 0021B8 4140 B57C      08E2C        4176        LA      RW4,PLEFT                                                23766021
 0021BC 45E0 8000      05FB8        4177          BAL   RCS,STOR45          PUT LEFT TERM IN STRING              23772021
 0021C0 9101 BF8B      0983B        4178        TM      CLASSW,MSWON       IS IT CLASS TEST                      23778021
 0021C4 4780 F41E      021D6        4179        BC      ZERO,IF45            NO                                  23784021
 0021C8 94FE BF8B      0983B        4180        NI      CLASSW,MSWOFF                                            23790021
 0021CC 45E0 9A10      07868        4181        BAL     RCS,PCHCNT          YES - ELEMENT COUNT = 2              23796021
 0021D0 0002                        4182        DC      XL2'2'             ... NO RIGHT TERM                     23802021
 0021D2 47F0 F426      021DE        4183        BC      UNCOND,IF46         STORE RIGHT TERM                     23808021
 0021D6 4140 B5FA      08EAA        4184 IF45   LA      RW4,PRIGHT                                               23814021
 0021DA 45E0 8000      05FB8        4185          BAL   RCS,STOR45         PUT RIGHT TERM IN STRING              23820021
 0021DE 4140 BE01      096B1        4186 IF46   LA      RW4,RGN            PUT MASTER BYPASS-LABEL IN STRING     23826021
 0021E2 45E0 8000      05FB8        4187        BAL     RCS,STOR45          STORE GN IN STRING                   23832021
 0021E6 45E0 7A16      059CE        4188        BAL     RCS,GNARTH          GENERATE STRINGS                     23838021
                                    4189 *                                                                       23844021
                                    4190 *                        FINAL HOUSEKEEPING                             23850021
                                    4191 *                                                                       23856021
 0021EA D200 BE89 6001 09739 00001  4192          MVC   PLOW+NX1(LX1),DX1(RW6) MOVE BYTE2 OF PTRFLS GUIDE TO  P  23862021
 0021F0 D201 BF03 BE02 097B3 096B2  4193 IF50     MVC   WHENGN+NX1(LX2),RGN+NX1                                  23868021
 0021F6 45E0 91B4      0700C        4194        BAL   RCS,PFINDL            GENR FALL-THRU LABELS IF ANY         23874021
 0021FA 9101 BF6A      0981A        4195        TM      PRTURN,MSWON       WAS IT END OF STATEMENT               23880021
 0021FE 4710 F48A      02242        4196          BC    ONES,IF52           NO                                   23886021
 002202 94FE BF79      09829        4197        NI      PLOGIC,MSWOFF                                            23892021
 002206 94FE BFCD      0987D        4198        NI      IFERSW,MSWOFF                                            23898021
 00220A 9101 BFA3      09853        4199        TM      PERFSW,MSWON       WAS CALL FROM PERFORM                 23904021
 00220E 4710 F482      0223A        4200        BC      ONES,IF51             YES                                23910021
 002212 45E0 8C82      06C3A        4201          BAL   RCS,ISNXTS          YES- IS IT 'NEXT SENTENCE'           23916021
 002216 47F0 F472      0222A        4202        BC    UNCOND,IF50A          NOT 'NEXT'                           23922021
 00221A 45E0 8180      06138        4203          BAL   RCS,PGONXT          PROCESS NEXT SENTENCE                23928021
 00221E 45E0 7766      0571E        4204          BAL   RCS,GENSTR          GENR  GO TO NEXT SENTENCE            23934021
 002222 9601 BFB5      09865        4205        OI    GOSW,MSWON            LET SEARCH KNOW NEXT SENT GENR       23940021
 002226 9601 BF6B      0981B        4206          OI    PSKPGO,MSWON          AVOID REDUNDANT GO AT 'ELSE'       23946021
 00222A 9101 BFB7      09867        4207 IF50A  TM    SEARCHSW,MSWON                                             23952021
 00222E 4780 7000      04FB8        4208        BZ    IDENT                 EXIT                                 23958021
 002232 58F0 A464      0815C        4209        L     RVRB,ASRCH                                                 23964021
                             03798  4210        USING SEARCH,RVRB                                                23970021
 002236 47F0 F196      0392E        4211        B     SRCH10                GIVE CONTROL TO IMPER. STMT          23976021
                             01DB8  4212        USING IF,RVRB                                                    23982021
 00223A 58F0 A3CC      080C4        4213 IF51   L       RVRB,APRFRM                                              23988021
                             00C78  4214        USING   PRFORM,RVRB                                              23994021
 00223E 47F0 F1E0      00E58        4215        BC      UNCOND,UNTIL2       EVALUATE CONDITION                   24000021
                             01DB8  4216        USING   IF,RVRB                                                  24006021
                                    4217 *                                                                       24012021
                             02242  4218 IF52   EQU     *                                                        24018021
 002242 5810 B080      08930        4219        L       RW1,APTFLS         SHRINK BACK DISPL. FIELD OF PTRFL     24024021
 002246 5811 0000      00000        4220          L     RW1,DX0(RW1)          TAMM                               24030021
 00224A 4820 BE7C      0972C        4221        LH      RW2,PRNLEV                                               24036021
 00224E 4122 0005      00005        4222          LA    RW2,DX5(RW2)        KEEP HILEV ALWAYS AT PRNLEV+5        24042021
 002252 4020 BE7E      0972E        4223        STH     RW2,HILEV                                                24048021
1PH40     IKFCBL40                                                                                              PAGE   89
-  LOC  OBJECT CODE    ADDR1 ADDR2  STMT   SOURCE STATEMENT                                       ASM 0201 11.03 02/14/15
0002256 4122 0005      00005        4224          LA    RW2,DX5(RW2)        DISPL. OF TAMM IS HILEV+5            24054021
 00225A 4021 0004      00004        4225          STH   RW2,DX4(RW1)                                             24060021
 00225E 4020 B084      08934        4226        STH     RW2,DSPTRF                                               24066021
 002262 D201 BE82 BE7C 09732 0972C  4227          MVC   PRVLEV(LX2),PRNLEV   SAVE PAREN LEVEL IN CASE OF ERRO    24072021
 002268 5810 B078      08928        4228        L       RW1,APSGNT                                               24078021
 00226C 5811 0000      00000        4229          L     RW1,DX0(RW1)                                             24084021
 002270 D201 BE78 1004 09728 00004  4230          MVC   PRVSCT(LX2),DX4(RW1)   SAVE SIGN-TABLE DISPL.            24090021
 002276 D701 BF66 BF66 09816 09816  4231          XC    DMAXSW(LX2),DMAXSW  INIT. SW. FOR DIVISORS AND EXPONE    24096021
 00227C D701 BEE5 BEE5 09795 09795  4232          XC    DMAX(LX2),DMAX      REINIT. EVAL VERB                    24102021
 002282 949F BED3      09783        4233        NI    PRELAT,MNOIND                                              24108021
 002286 94EF BED3      09783        4234        NI      PRELAT,MNOALF      TURN OFF ALF BIT INCASE IMPLIED       24114021
 00228A 45E0 7566      0551E        4235          BAL   RCS,GETNXT               DISCARD TERMINATOR              24120021
 00228E 9101 BFA3      09853        4236        TM      PERFSW,MSWON        IS IT CALL FROM PERFORM              24126021
 002292 4780 F4F0      022A8        4237        BC      ZERO,IF54           NO                                   24132021
 002296 D501 C000 A4E8 0988B 081E0  4238          CLC   GOTTEN(LX2),CBUNTL  DOES EXTRA 'UNTIL' FOLLOW IN PERF    24138021
 00229C 4770 F50A      022C2        4239        BC      NOTEQ,IF58           NO OK                               24144021
 0022A0 4100 A4E8      081E0        4240        LA      RA0,CBUNTL           YES - TRIVIAL ERROR                 24150021
 0022A4 47F0 F4FE      022B6        4241        BC      UNCOND,IF56         WRITE MESSAGE                        24156021
 0022A8 D501 C000 A34E 0988B 08046  4242 IF54     CLC   GOTTEN(LX2),CBIF    DOES EXTRA 'IF' FOLLOW               24162021
 0022AE 4770 F50A      022C2        4243        BC      NOTEQ,IF58           NO - OK                             24168021
 0022B2 4100 A34E      08046        4244        LA      RA0,CBIF                                                 24174021
 0022B6 45E0 9BDA      07A32        4245 IF56   BAL     RCS,ERROR             YES-TRIVIAL ERROR                  24180021
 0022BA 4110 A033      07D2B        4246        LA      RW1,ELST08                                               24186021
 0022BE 45E0 7566      0551E        4247        BAL     RCS,GETNXT            DISCARD IT                         24192021
 0022C2 9101 BF69      09819        4248 IF58   TM      PNDREL,MSWON                                             24198021
 0022C6 4710 F0D6      01E8E        4249        BC      ONES,IF10          PNDREL ON - RETURN TO START           24204021
 0022CA 47F0 F1D8      01F90        4250        BC      UNCOND,RELTST        OFF - SEEK RELATIONAL               24210021
                                    4251 *                                                                       24216021
                                    4252 *        SYNTAX ERROR IN IF                                             24222021
                                    4253 *        UNACCEPTABLE RIGHT- OR LEFT-TERM, OR MISSING RELATIONAL        24228021
                                    4254 *                                                                       24234021
 0022CE 45E0 9BC2      07A1A        4255 IFERR  BAL     RCS,ERRIF           ERROR IN IF                          24240021
 0022D2 4110 A25E      07F56        4256        LA      RW1,ELST5B                                               24246021
 0022D6 9101 BFB9      09869        4257 IFERR2 TM    SRCHALSW,MSWON                                             24252021
 0022DA 4780 F52E      022E6        4258        BZ    IFER2                 THIS IS AN END                       24258021
 0022DE 58F0 A468      08160        4259        L     RVRB,ASRCHAL                                               24264021
                             03C92  4260        USING SRCHAL,RVRB                                                24270021
 0022E2 47F0 F280      03F12        4261        B     AFTCOM                INVALID COMPARISON                   24276021
                             01DB8  4262        USING IF,RVRB                                                    24282021
 0022E6 9601 BF73      09823        4263 IFER2  OI    GENRED,MSWON                                               24288021
 0022EA 45E0 8C32      06BEA        4264        BAL     RCS,ISEND               IS IT END                        24294021
 0022EE 47F0 F53E      022F6        4265          BC    UNCOND,IFERR3       NO                                   24300021
 0022F2 47F0 F590      02348        4266          BC    UNCOND,IFERR5            YES                             24306021
 0022F6 D501 C000 A3E0 0988B 080D8  4267 IFERR3   CLC   GOTTEN(LX2),CBNEXT  TREAT 'NEXT' AS END                  24312021
 0022FC 4780 F590      02348        4268        BC      EQ,IFERR5           IT IS NEXT                           24318021
 002300 9601 BF6A      0981A        4269        OI      PRTURN,MSWON                                             24324021
 002304 D501 C000 A33A 0988B 08032  4270          CLC   GOTTEN(LX2),CBAND    IS IT 'AND                          24330021
 00230A 4780 F5AA      02362        4271          BC    EQ,IFERR6                YES                             24336021
 00230E D501 C000 A3FE 0988B 080F6  4272          CLC   GOTTEN(LX2),CBOR     IS IT 'OR'                          24342021
 002314 4780 F5AA      02362        4273        BC      EQ,IFERR6               YES                              24348021
 002318 9101 BFB7      09867        4274        TM    SEARCHSW,MSWON                                             24354021
 00231C 4780 F576      0232E        4275        BZ    *+18                  IS IT SEARCH                         24360021
 002320 D501 C000 A520 0988B 08218  4276          CLC   GOTTEN(LX2),CBWHEN                                       24366021
 002326 4770 F588      02340        4277        BNE   IFERR4                NOT 'WHEN'                           24372021
 00232A 47F0 F590      02348        4278        B     IFERR5                YES 'WHEN'                           24378021
1PH40     IKFCBL40                                                                                              PAGE   90
-  LOC  OBJECT CODE    ADDR1 ADDR2  STMT   SOURCE STATEMENT                                       ASM 0201 11.03 02/14/15
000232E 9101 BFA3      09853        4279        TM      PERFSW,MSWON                                             24384021
 002332 4780 F588      02340        4280        BC    ZERO,IFERR4           NOT PERFORM                          24390021
 002336 D501 C000 A534 0988B 0822C  4281          CLC   GOTTEN(LX2),CBAFTR  IS IT 'AFTER' IN PERFORM             24396021
 00233C 4780 F590      02348        4282        BC      EQ,IFERR5           YES - TREAT AS END                   24402021
 002340 45E0 7566      0551E        4283 IFERR4 BAL   RCS,GETNXT            GET NEXT INPUT                       24408021
 002344 47F0 F51E      022D6        4284          BC    UNCOND,IFERR2       CHECK FOR SEARCH ALL                 24414021
 002348 D701 BE7C BE7C 0972C 0972C  4285 IFERR5   XC    PRNLEV(LX2),PRNLEV   ZERO PAREN LEVEL FOR END            24420021
 00234E 94FE BF6A      0981A        4286          NI    PRTURN,MSWOFF                                            24426021
 002352 D701 BE8A BE8A 0973A 0973A  4287          XC    LEFTDP(LX2),LEFTDP                                       24432021
 002358 D701 BE60 BE60 09710 09710  4288          XC    LEFTSS(LX2),LEFTSS                                       24438021
 00235E 47F0 F5EA      023A2        4289        BC      UNCOND,IFER20       FOUND TERMINATOR                     24444021
                                    4290 *                                                                       24450021
                                    4291 *                        TERMINATOR FOUND, CONTINUE NORMALLY            24456021
                                    4292 *                                                                       24462021
 002362 D201 BE7C BE82 0972C 09732  4293 IFERR6   MVC   PRNLEV(LX2),PRVLEV   RESTORE FORMER LEVEL FOR AND,OR     24468021
 002368 D201 BE86 BE7C 09736 0972C  4294          MVC   RELLEV(LX2),PRNLEV  HOPE AVOID MORE MSG BY MAKING REL    24474021
 00236E D201 BE84 BE7C 09734 0972C  4295          MVC   LFTLEV(LX2),PRNLEV   LFT LEV =                           24480021
 002374 94FE BF8C      0983C        4296        NI      NOTRSW,MSWOFF      TURN OFF ALL NEGATION SWITCHES        24486021
 002378 94FE BF77      09827        4297        NI      PNEGSW,MSWOFF                                            24492021
 00237C 94FE BF78      09828        4298        NI      PNOTSW,MSWOFF                                            24498021
 002380 45E0 7F5C      05F14        4299        BAL     RCS,PZSTRT          REINIT. TAMER TABLES                 24504021
 002384 4110 B070      08920        4300        LA    RW1,APNOUN                                                 24510021
 002388 D701 BE7A BE7A 0972A 0972A  4301          XC    PNOUCT(LX2),PNOUCT                                       24516021
 00238E 5810 B078      08928        4302          L     RW1,APSGNT          RESTORE SIGNS TO PREVIOUS COUNT      24522021
 002392 5811 0000      00000        4303          L     RW1,DX0(RW1)                                             24528021
 002396 D201 1004 BE78 00004 09728  4304          MVC   DX4(LX2,RW1),PRVSCT                                      24534021
 00239C D201 B07C BE78 0892C 09728  4305          MVC   DSPSGN(LX2),PRVSCT                                       24540021
 0023A2 5810 B048      088F8        4306 IFER20 L       RW1,ASTRNG         RESTORE TAMM AND SAVED DISPL. TO      24546021
 0023A6 5811 0000      00000        4307          L     RW1,DX0(RW1)         THAT OF LAST LEFT TERM              24552021
 0023AA D201 1004 BE8A 00004 0973A  4308          MVC   DX4(LX2,RW1),LEFTDP                                      24558021
 0023B0 D201 B04C BE8A 088FC 0973A  4309          MVC   DSPSTR(LX2),LEFTDP                                       24564021
 0023B6 5810 B090      08940        4310        L       RW1,ADFSBS                                               24570021
 0023BA 5811 0000      00000        4311          L     RW1,DX0(RW1)                                             24576021
 0023BE D201 1004 BE60 00004 09710  4312          MVC   DX4(LX2,RW1),LEFTSS                                      24582021
 0023C4 D201 B094 BE60 08944 09710  4313          MVC   DSPSBS(LX2),LEFTSS                                       24588021
 0023CA D201 BE88 A5A0 09738 08298  4314          MVC   PLOW(LX2),N3        ASSUME LEVEL 0 AND END FOR LABELS    24594021
 0023D0 9601 BF72      09822        4315          OI    IFBYPS,MSWON        STORE BY-PASS LABELS                 24600021
 0023D4 45E0 91B4      0700C        4316          BAL   RCS,PFINDL           (NEVER MIND NOT,ETC. THIS IS JU     24606021
 0023D8 D201 BE88 A59C 09738 08294  4317          MVC   PLOW(LX2),N1           TO AVOID UNDEFINED LABELS         24612021
 0023DE 94FE BFAC      0985C        4318        NI      MSGSW,MSWOFF                                             24618021
 0023E2 9601 BFCD      0987D        4319        OI      IFERSW,MSWON          AVOID CASCADING MESSAGES           24624021
 0023E6 47F0 F438      021F0        4320          BC    UNCOND,IF50         DO FINAL HOUSEKEEPING                24630021
                                    4321 *                                                                       24636021
                                    4322 *      SUB-SUB-ROUTINE TO PROCESS NOT ( NOT ( NOT ...                   24642021
                                    4323 *                                                                       24648021
                             023EA  4324 ISPRNO EQU     *                                                        24654021
 0023EA 50E0 B364      08C14        4325        ST      RCS,SVISPR                                               24660021
 0023EE D501 C000 A3E4 0988B 080DC  4326 ISPR2    CLC   GOTTEN(LX2),CBNOT     IS IT 'NOT'                        24666021
 0023F4 4770 F660      02418        4327        BC      NOTEQ,ISPR6         NO                                   24672021
 0023F8 9601 BF8C      0983C        4328        OI      NOTRSW,MSWON       YES - ERRSW IN CASE IT PRECEDES R     24678021
 0023FC 9101 BF78      09828        4329        TM      PNOTSW,MSWON       WAS PREVIOUS ALSO 'NOT'               24684021
 002400 4780 F654      0240C        4330        BC      ZERO,ISPR4         NO                                    24690021
 002404 45E0 9BDA      07A32        4331        BAL     RCS,ERROR           YES - ERROR                          24696021
 002408 4110 A0A8      07DA0        4332        LA      RW1,ELST1C                                               24702021
 00240C 9701 BF78      09828        4333 ISPR4  XI      PNOTSW,MSWON       REVERSE NOTSW                         24708021
1PH40     IKFCBL40                                                                                              PAGE   91
-  LOC  OBJECT CODE    ADDR1 ADDR2  STMT   SOURCE STATEMENT                                       ASM 0201 11.03 02/14/15
0002410 45E0 7566      0551E        4334        BAL     RCS,GETNXT          GET NEXT INPUT                       24714021
 002414 47F0 F636      023EE        4335        BC      UNCOND,ISPR2       SEEK ANOTHER 'NOT'                    24720021
 002418 D501 C000 A3BE 0988B 080B6  4336 ISPR6    CLC   GOTTEN(LX2),CBLPRN  IS IT (                              24726021
 00241E 4770 F672      0242A        4337        BC      NOTEQ,ISPR8          NO - EXIT                           24732021
 002422 45E0 9546      0739E        4338        BAL     RCS,PUTSGN           YES - PROCESS IT AND ALL FOLLOW     24738021
 002426 47F0 F636      023EE        4339        BC      UNCOND,ISPR2       SEE IF 'NOT' FOLLOWS                  24744021
 00242A 58E0 B364      08C14        4340 ISPR8  L       RCS,SVISPR                                               24750021
 00242E 07FE                        4341        BCR     UNCOND,RCS          EXIT                                 24756021
                                    4342 *                                                                       24762021
                                    4343 *    SUB-SUBROUTINE USED BY RELCLS,RELSGN,RELTST TO DISCARD 'IS','N     24768021
                                    4344 *                                                                       24774021
                             02430  4345 ISISNO   EQU   *                                                        24780021
 002430 50E0 B22C      08ADC        4346        ST      RCS,SVISNO                                               24786021
 002434 45E0 F632      023EA        4347 ISISN1 BAL     RCS,ISPRNO         PROCESS 'NOT'S AND '('S               24792021
 002438 D501 C000 A354 0988B 0804C  4348          CLC   GOTTEN(LX2),CBIS    IS INPUT 'IS'                        24798021
 00243E 4770 F6AA      02462        4349        BC      NOTEQ,ISISN4       NO - EXIT                             24804021
 002442 9101 BF68      09818        4350        TM      PFNDIS,MSWON        IS IT A REPEATED 'IS'                24810021
 002446 4780 F69E      02456        4351        BC      ZERO,ISISN2          NO                                  24816021
 00244A 4100 A354      0804C        4352        LA      RA0,CBIS                                                 24822021
 00244E 45E0 9BDA      07A32        4353        BAL     RCS,ERROR           YES - ERROR                          24828021
 002452 4110 A033      07D2B        4354        LA      RW1,ELST08                                               24834021
 002456 9601 BF68      09818        4355 ISISN2 OI      PFNDIS,MSWON       ERRSW IN CASE NO RELATIONAL FOUND     24840021
 00245A 45E0 7566      0551E        4356        BAL     RCS,GETNXT         DISCARD 'IS'                          24846021
 00245E 47F0 F67C      02434        4357        BC      UNCOND,ISISN1      SEEK FURTHER 'NOT'S AND '('S          24852021
 002462 58E0 B22C      08ADC        4358 ISISN4 L       RCS,SVISNO                                               24858021
 002466 07FE                        4359          BCR   UNCOND,RCS          EXIT                                 24864021
                                    4360 *                                                                       24870021
                                    4361 *                                                                       24876021
                                    4362 *                             O K P R E N                               24882021
                                    4363 *                                                                       24888021
                                    4364 *    SUB-SUBROUTINE TO CHECK LOGIC OF PARENTHESIS CHANGES FOR IMPLI     24894021
                                    4365 *       LEFT TERMS AND RELATIONALS                                      24900021
                                    4366 *                                                                       24906021
                                    4367 *      BAL     RCS,OKPREN                                               24912021
                                    4368 *      DC      XL1'N'                                                   24918021
                                    4369 *      DC      AL1(COND)                                                24924021
                                    4370 *      (RETURN)                                                         24930021
                                    4371 *                                                                       24936021
                                    4372 *              N=0 IF LFTLEV TO BE CHECKED                              24942021
                                    4373 *                2    RELLEV                                            24948021
                                    4374 *                4    BOTH                                              24954021
                                    4375 *                                                                       24960021
                                    4376 *              COND IS NOTLO OR NOTHI,WHICHEVER GIVES CORRECT BRANC     24966021
                                    4377 *              FROM    CLC   ENDLEV(2),LEV-IN-QUESTION                  24972021
                                    4378 *                                                                       24978021
                                    4379 *      IN PROCESSING IF, WHEN AND/OR IS FOUND PRNLEV GOES INTO ENDL     24984021
                                    4380 *                             RELATIONAL  .     .     .    .   RELL     24990021
                                    4381 *                             OPERAND     .     .     .    .   OPLE     24996021
                                    4382 *                             LEFT TERM   .   OPLEV   .    .   LFTL     25002021
                                    4383 *                                                                       25008021
                                    4384 *      SOMETHING IS ASSUMED TO BE ILLOGICAL ABOUT PARENTHETIZATION      25014021
                                    4385 *       WHEN                                                            25020021
                                    4386 *              A LEFT TERM IS FOUND AND LFTLEV (LEVEL OF LAST-FOUND     25026021
                                    4387 *                LEFT)IS LESS THAN ENDLEV (LEVEL OF LAST AND/OR)        25032021
                                    4388 *              A RELATIONAL IS FOUND AND RELLEV (LEVEL OF LAST RELA     25038021
1PH40     IKFCBL40                                                                                              PAGE   92
-  LOC  OBJECT CODE    ADDR1 ADDR2  STMT   SOURCE STATEMENT                                       ASM 0201 11.03 02/14/15
0                                   4389 *                TIONAL) IS LESS THAN ENDLEV                            25044021
                                    4390 *              A LEFT TERM IS IMPLIED AND LFTLEV IS GREATER THAN        25050021
                                    4391 *                ENDLEV                                                 25056021
                                    4392 *              A RELATIONAL IS IMPLIED AND RELLEV IS GREATER THAN       25062021
                                    4393 *                ENDLEV                                                 25068021
                                    4394 *                                                                       25074021
                                    4395 *                                                                       25080021
                             02468  4396 OKPREN EQU     *                                                        25086021
                                    4397 *                                                                       25092021
 002468 9101 BFA5      09855        4398        TM      PRERSW,MSWON       HAS A MSG ALREADY BEEN ISSUED         25098021
 00246C 471E 0002      00002        4399          BC    ONES,DX2(RCS)        YES - EXIT                          25104021
 002470 90E2 B368      08C18        4400        STM     RCS,RW2,SVOKPR                                           25110021
 002474 4100 0001      00001        4401          LA    RA0,DX1             RA0 CONTROLS LOOP                    25116021
 002478 482E 0000      00000        4402          LH    RW2,DX0(RCS)        RW2 HOLDS CONDITION FOR BRANCH       25122021
 00247C 8B20 0004      00004        4403          SLA   RW2,DX4                                                  25128021
 002480 1B11                        4404        SR      RW1,RW1                                                  25134021
 002482 431E 0000      00000        4405          IC    RW1,DX0(RCS)        RW1 INDICATES WHETHER RELLEV OR L    25140021
 002486 4111 BE84      09734        4406        LA      RW1,LFTLEV(RW1)                                          25146021
 00248A 9104 E000      00000        4407          TM    DX0(RCS),XX04       ARE 2 CHECKS NEEDED                  25152021
 00248E 4780 F6E2      0249A        4408        BC      ZERO,OKPR4           NO                                  25158021
 002492 4100 0002      00002        4409          LA    RA0,DX2               YES - SET RA0                      25164021
 002496 4B10 A59E      08296        4410 OKPR2  SH      RW1,N2               FOR DOUBLE-CHECK,POINT BACK HW      25170021
 00249A D501 BE82 1000 09732 00000  4411 OKPR4    CLC   ENDLEV(LX2),DX0(RW1) COMPARE LEVELS                      25176021
 0024A0 4420 F708      024C0        4412        EX      RW2,OKPR10           BRANCH ON CONDITION IN RW2          25182021
 0024A4 45E0 9BC2      07A1A        4413        BAL     RCS,ERRIF               NOT OK                           25188021
 0024A8 4110 A231      07F29        4414        LA      RW1,ELST54                                               25194021
 0024AC 9601 BFA5      09855        4415        OI      PRERSW,MSWON       AVOID FURTHER MSGS                    25200021
 0024B0 47F0 F700      024B8        4416        BC      UNCOND,OKPR8       DONT CHECK BOTH,1 MSG ENOUGH          25206021
 0024B4 4600 F6DE      02496        4417 OKPR6  BCT     RA0,OKPR2          GO BACK FOR 2ND COMPARISON            25212021
 0024B8 98E2 B368      08C18        4418 OKPR8  LM      RCS,RW2,SVOKPR                                           25218021
 0024BC 47FE 0002      00002        4419          BC    UNCOND,DX2(RCS)     EXIT                                 25224021
                                    4420 *                                                                       25230021
 0024C0 4700 F6FC      024B4        4421 OKPR10 BC      NOP,OKPR6          OK                                    25236021
                                    4422 *                                                                       25242021
                                    4423 *      SUB-SUBROUTINES OF IF TO MOVE RESULT (IN PRSULT) TO              25248021
                                    4424 *        PLEFT OR PRIGHT, ACCORDING AS IF HAS DETERMINED IT TO BE       25254021
                                    4425 *        LEFT OR RIGHT TERM                                             25260021
                                    4426 *                                                                       25266021
                                    4427 *      BAL     RCS,IFLEFT         BAL      RCS,IFRIT                    25272021
                                    4428 *      (RETURN)                   (RETURN)                              25278021
                                    4429 *                                                                       25284021
                                    4430 *                                                                       25290021
                                    4431 *      IN ADDITION IF LEFT -- WHICH ASSURES THAT A NEW LEFT TERM HA     25296021
                                    4432 *        BEEN FOUND -- DELETES ANY STRINGS THAT MAY HAVE BEEN PRESE     25302021
                                    4433 *        IN CASE THE PRECEDING LEFT TERM WAS AN IR THAT MIGHT HAVE      25308021
                                    4434 *        USED AS AN IMPLIED SUBJECT                                     25314021
                                    4435 *                                                                       25320021
                                    4436 *                                                                       25326021
                             024C4  4437 IFLEFT EQU     *                                                        25332021
 0024C4 50E0 B364      08C14        4438        ST      RCS,SVISPR                                               25338021
 0024C8 45E0 F6B0      02468        4439        BAL     RCS,OKPREN          IS PAREN OK                          25344021
 0024CC 00                          4440        DC      XL1'0'            CHECK END VS LAST LEFT LEVEL           25350021
 0024CD 0D                          4441        DC      AL1(NOTHI)         OK IF END = OR LOW                    25356021
 0024CE D201 BE84 BE80 09734 09730  4442          MVC   LFTLEV(LX2),OPLEV  SAVE NEW LEFT LEVEL                   25362021
 0024D4 5810 B048      088F8        4443        L       RW1,ASTRNG         MOVE STRING BACK FROM OLD LEFT DI     25368021
1PH40     IKFCBL40                                                                                              PAGE   93
-  LOC  OBJECT CODE    ADDR1 ADDR2  STMT   SOURCE STATEMENT                                       ASM 0201 11.03 02/14/15
00024D8 45E0 7EDC      05E94        4444        BAL     RCS,PACKTB           TO DISPL. 0, DELETING OLD LEFT      25374021
 0024DC 4820 BE8A      0973A        4445        LH      RW2,LEFTDP                                               25380021
 0024E0 4130 0000      00000        4446          LA    RW3,DX0                                                  25386021
 0024E4 D201 BE8A B04C 0973A 088FC  4447          MVC   LEFTDP(LX2),DSPSTR  SET LEFTDP TO NEW DISPL.             25392021
 0024EA 5810 B090      08940        4448        L       RW1,ADFSBS                                               25398021
 0024EE 45E0 7EDC      05E94        4449        BAL     RCS,PACKTB         DO SAME WITH DEFSBS TABLE             25404021
 0024F2 4820 BE60      09710        4450        LH      RW2,LEFTSS                                               25410021
 0024F6 4130 0000      00000        4451          LA    RW3,DX0                                                  25416021
 0024FA D201 BE60 B094 09710 08944  4452          MVC   LEFTSS(LX2),DSPSBS                                       25422021
 002500 58E0 B364      08C14        4453        L       RCS,SVISPR                                               25428021
 002504 1B11                        4454        SR      RW1,RW1                                                  25434021
 002506 47F0 F756      0250E        4455          BC    UNCOND,*+NX8        SAVE RETURN POINTER                  25440021
 00250A 4110 007E      0007E        4456 IFRIT  LA      RW1,MOPLNG         POINT RW1 TO RIGHT                    25446021
 00250E 50E0 B338      08BE8        4457        ST      RCS,SVIFRT                                               25452021
 002512 4111 B57C      08E2C        4458        LA      RW1,PLEFT(RW1)                                           25458021
 002516 4120 B6F4      08FA4        4459        LA      RW2,PRSULT                                               25464021
 00251A 45E0 7F94      05F4C        4460        BAL     RCS,COUNT           GET TOTAL OF BYTES                   25470021
 00251E 4820 BE72      09722        4461        LH      RW2,BYTES                                                25476021
 002522 4420 F79C      02554        4462        EX      RW2,IFMVC          MOVE PRSULT TO RESPECTIVE FIELD       25482021
 002526 D200 107B BEE5 0007B 09795  4463          MVC   MOPLNG-NX3(LX1,RW1),DMAX STORE RESPECTIVE DMAX           25488021
 00252C D700 BEE5 BEE5 09795 09795  4464          XC    DMAX(LX1),DMAX                                           25494021
 002532 9539 1000      00000        4465          CLI   DX0(RW1),XX39     IS IT SPEC ALL GT 1 CHAR               25500021
 002536 4770 F78C      02544        4466        BNE     *+NX14              NO - OK TO GETMOD                    25506021
 00253A D201 107C BE54 0007C 09704  4467          MVC   MOPLNG-NX2(LX2,RW1),ALLGTMD     GET MODE CANT HANDLE IT  25512021
 002540 47F0 F796      0254E        4468        B     IFLR            EXIT                                       25518021
 002544 45E0 8668      06620        4469        BAL     RCS,GETMOD          GET MODE                             25524021
 002548 D201 107C BE64 0007C 09714  4470          MVC   MOPLNG-NX2(LX2,RW1),MODE STORE RESPECTIVE MODE           25530021
 00254E 58E0 B338      08BE8        4471 IFLR   L    RCS,SVIFRT        XIT                                       25536021
 002552 07FE                        4472        BCR     UNCOND,RCS         RETURN                                25542021
                                    4473 *                                                                       25548021
 002554 D200 1000 B6F4 00000 08FA4  4474 IFMVC    MVC   DX0(LX1,RW1),PRSULT                                      25554021
                                    4475 *                                                                       25560021
                                    4476 *                                                                       25566021
                                    4477 *     SUBROUTINES TO COMPARE ATTRIBUTES OF LEFT AND RIGHT TERMS TO      25572021
                                    4478 *        INSURE LEGAL COMBINATION,AND TO CHANGE VERB FOR NON-NUMERI     25578021
                                    4479 *        COMPARISONS                                                    25584021
                                    4480 *      IF ILLEGAL COMBINATION IS FOUND, TALLY = ZERO  IS SUBSTITUTE     25590021
                                    4481 *        FOR THE TOTAL STRING                                           25596021
                                    4482 *      MODEL AND MODER CONTAIN ROUGH CLASSIFICATION (SEE GETMOD)        25602021
                                    4483 *      MODEL+1 AND MODER+1 CONTAIN ACTUAL MODE                          25608021
                                    4484 *                                                                       25614021
                                    4485 *                                                                       25620021
                                    4486 *                                                                       25626021
 00255A 9101 BF8B      0983B        4487 OKCOMP TM    CLASSW,MSWON          IS IT CLASS TEST                     25632021
 00255E 4710 F7BA      02572        4488        BC      ONES,OKCLAS          YES                                 25638021
 002562 9101 BF8A      0983A        4489        TM      SIGNSW,MSWON       IS IT SIGN                            25644021
 002566 4780 F80A      025C2        4490        BC      ZERO,OKRELT          NO - MUST BE RELATION TEST          25650021
 00256A 94FE BF8A      0983A        4491        NI      SIGNSW,MSWOFF        YES                                 25656021
 00256E 47F0 F7FA      025B2        4492        BC      UNCOND,OKSIGN       IS SIGN OK                           25662021
-
                                    4494 *                                                                       25674021
                                    4495 *      FOR CLASS TEST. NOTE WE ALREADY KNOW LEFT IS DN, OR IT NEVER     25680021
                                    4496 *        WOULD HAVE FOUND CLASS TEST.                                   25686021
1PH40     IKFCBL40                                                                                              PAGE   94
-  LOC  OBJECT CODE    ADDR1 ADDR2  STMT   SOURCE STATEMENT                                       ASM 0201 11.03 02/14/15
0                                   4497 *                                                                       25692021
 002572 9170 B5F8      08EA8        4498 OKCLAS TM    MODEL,MGRPBT          IS DNM A GROUP ITEM                  25698021
 002576 4710 F2EA      020A2        4499        BC    ONES,IF28          YES- OK                                 25704021
 00257A 9503 B5F9      08EA9        4500          CLI   MODEL+NX1,MANMOD                                         25710021
 00257E 4780 F2EA      020A2        4501        BC      EQ,IF28            AN OK FOR BOTH                        25716021
 002582 950E BED3      09783        4502        CLI     PRELAT,MNUMVB      IS IT 'NUMERIC'                       25722021
 002586 4740 F7E6      0259E        4503        BC      LO,OKCLS2           NO - ALPHABETIC                      25728021
 00258A 950C B5F9      08EA9        4504          CLI   MODEL+NX1,MIDMOD    'NUMERIC' NEEDS AN,ID,OR ED          25734021
 00258E 4780 F2EA      020A2        4505        BC      EQ,IF28            OK                                    25740021
 002592 9508 B5F9      08EA9        4506          CLI   MODEL+NX1,MEDMOD                                         25746021
 002596 4780 F2EA      020A2        4507        BC      EQ,IF28            OK                                    25752021
 00259A 47F0 F7EE      025A6        4508        BC      UNCOND,OKCLS3       NO - ERROR                           25758021
 00259E 9502 B5F9      08EA9        4509 OKCLS2   CLI   MODEL+NX1,MALMOD    'ALPHABETIC' NEEDS AN OR AL          25764021
 0025A2 4780 F2EA      020A2        4510        BC      EQ,IF28            OK                                    25770021
 0025A6 94FE BF8B      0983B        4511 OKCLS3 NI      CLASSW,MSWOFF      (AVOID SKIPPING RIGHT AT IF44)        25776021
 0025AA 4100 A5CE      082C6        4512        LA      RA0,BCDCLS                                               25782021
 0025AE 47F0 F94C      02704        4513        BC      UNCOND,LFTERR      ERROR                                 25788021
-
                                    4515 *                                                                       25800021
                                    4516 *      FOR SIGN TEST. WE ALREADY KNOW LEFT IS DN OR IR,RIGHT 'ZERO'     25806021
                                    4517 *                                                                       25812021
 0025B2 9180 B5F8      08EA8        4518 OKSIGN TM      MODEL,MNUMBT       IS LEFT NUMERIC                       25818021
 0025B6 4710 F2EA      020A2        4519        BC      ONES,IF28          OK                                    25824021
 0025BA 4100 A5D6      082CE        4520        LA      RA0,BCDSGN                                               25830021
 0025BE 47F0 F94C      02704        4521        BC      UNCOND,LFTERR      ERROR                                 25836021
                                    4522 *                                                                       25842021
                                    4523 *      FOR RELATION TEST WE KNOW AT THIS POINT ONLY THAT LEFT AND R     25848021
                                    4524 *        INDIVIDUALLY ARE LEGAL OPERANDS                                25854021
                                    4525 *                                                                       25860021
                             025C2  4526 OKRELT EQU     *                                                        25866021
 0025C2 9101 B5F8      08EA8        4527        TM      MODEL,MLITBT       BOTH CANNOT BE LITS (INCL. FIGCON     25872021
 0025C6 4780 F826      025DE        4528        BC      ZERO,OKREL2         OK                                   25878021
 0025CA 9101 B676      08F26        4529        TM      MODER,MLITBT                                             25884021
 0025CE 4780 F826      025DE        4530        BC      ZERO,OKREL2        NOT BOTH ANYHOW SO OK                 25890021
 0025D2 45E0 9BC2      07A1A        4531        BAL     RCS,ERRIF               2 LITERALS BEING COMPARED        25896021
 0025D6 4110 A051      07D49        4532        LA      RW1,ELST0C                                               25902021
 0025DA 47F0 F51E      022D6        4533        BC      UNCOND,IFERR2       SYNTAX ERROR IN IF                   25908021
                                    4534 *                                                                       25914021
                                    4535 *      IF EITHER IS GROUP, ALL COMPARISONS OK                           25920021
                                    4536 *          EXCEPT IF ONE IS INTERMEDIATE RESULT                         25926021
                                    4537 *                                                                       25932021
 0025DE 9170 B5F8      08EA8        4538 OKREL2 TM      MODEL,MGRPBT                                             25938021
 0025E2 4710 F854      0260C        4539          BC    ONES,OKRL2A         LEFT GROUP,ALPHANUMERIC COMPARIS     25944021
 0025E6 9170 B676      08F26        4540        TM      MODER,MGRPBT                                             25950021
 0025EA 47E0 F872      0262A        4541          BC    NOTONE,OKREL3       RIGHT GROUP,ALPHANUMERIC COMPARI     25956021
 0025EE 95BA B57C      08E2C        4542          CLI   PLEFT,MIR           IS LEFT AN INTERMEDIATE RESULT       25962021
 0025F2 4780 F958      02710        4543          BC    EQ,RITERR           YES,ERROR                            25968021
 0025F6 9536 B57C      08E2C        4544        CLI   PLEFT,MINDNM          IS IT INDEXNAME                      25974021
 0025FA 4780 F958      02710        4545        BE    RITERR                YES, ILLEGAL COMBINATION             25980021
 0025FE D501 B5F8 A586 08EA8 0827E  4546          CLC   MODEL(LX2),INDNMD    USAGE INDEX                         25986021
 002604 4780 F958      02710        4547        BE    RITERR                YES, ERROR                           25992021
 002608 47F0 F93C      026F4        4548          BC    UNCOND,CMPALF       NO,GOOD COMPARE                      25998021
 00260C 95BA B5FA      08EAA        4549 OKRL2A   CLI   PRIGHT,MIR          IS RIGHT INTERMEDIATE RESULT         26004021
1PH40     IKFCBL40                                                                                              PAGE   95
-  LOC  OBJECT CODE    ADDR1 ADDR2  STMT   SOURCE STATEMENT                                       ASM 0201 11.03 02/14/15
0002610 4780 F958      02710        4550          BC    EQ,RITERR           YES,ERROR                            26010021
 002614 9536 B5FA      08EAA        4551        CLI   PRIGHT,MINDNM                                              26016021
 002618 4780 F958      02710        4552        BE    RITERR                INDEX NAME - ERROR                   26022021
 00261C D501 B676 A586 08F26 0827E  4553          CLC   MODER(LX2),INDNMD                                        26028021
 002622 4780 F958      02710        4554        BE    RITERR                ERROR - USAGE INDEX                  26034021
 002626 47F0 F93C      026F4        4555          BC    UNCOND,CMPALF       NO,GOOD COMPARE                      26040021
                                    4556 *                                                                       26046021
                                    4557 *   OK IF BOTH ARE SAME CATEGORY (BOTH DN OR REAL LIT,BOTH NUMERIC      26052021
                                    4558 *                                  BOTH NON-NUMERIC)                    26058021
                             0262A  4559 OKREL3   EQU   *                                                        26064021
 00262A D200 BE24 B5F8 096D4 08EA8  4560          MVC   PTEMP(LX1),MODEL                                         26070021
 002630 D700 BE24 B676 096D4 08F26  4561          XC    PTEMP(LX1),MODER                                         26076021
 002636 4770 F8A2      0265A        4562        BC      NOTZER,OKREL4      NOT SAME                              26082021
 00263A 9180 B5F8      08EA8        4563        TM      MODEL,MNUMBT       ARE THEY NUMERIC                      26088021
 00263E 4710 F2EA      020A2        4564        BC      ONES,IF28          YES                                   26094021
 002642 9536 B57C      08E2C        4565        CLI   PLEFT,MINDNM          BOTH INDEX-NAMES                     26100021
 002646 4780 F944      026FC        4566        BC    EQ,CMPIND             YES- INDEX COMPARE                   26106021
 00264A 9110 B5F8      08EA8        4567        TM    MODEL,INDNMD1         ARE THEY INDEX DATA ITEMS            26112021
 00264E 4710 F944      026FC        4568        BO    CMPIND                YES, INDEX COMPARE                   26118021
 002652 47F0 F93C      026F4        4569        B     CMPALF                NO, ALPHANUMERIC COMPARISON          26124021
 002656 47F0 F93C      026F4        4570        BC      UNCOND,CMPALF        NO,ALPHANUMIC COMPARISON            26130021
                                    4571 *                                                                       26136021
                                    4572 *      THEY DIFFER IN MODE                                              26142021
                                    4573 *                                                                       26148021
                             0265A  4574 OKREL4 EQU     *                                                        26154021
 00265A 9108 BE24      096D4        4575        TM    PTEMP,INDMD1          IS ONE AN INDEX NAME                 26160021
 00265E 47E0 F8E8      026A0        4576        BC    NOTONE,OKREL6         NO                                   26166021
 002662 9110 BE24      096D4        4577        TM    PTEMP,INDNMD1         ONE IDEXNM- IS OTHER INDEX DNM       26172021
 002666 4710 F944      026FC        4578        BO    CMPIND                YES- INDEX COMPARE                   26178021
 00266A 9536 B57C      08E2C        4579        CLI   PLEFT,MINDNM          IS PLEFT THE INDEXNAME               26184021
 00266E 4770 F8C2      0267A        4580        BNE   *+12                  NO                                   26190021
 002672 4110 B5FA      08EAA        4581        LA    RW1,PRIGHT                                                 26196021
 002676 47F0 F8C6      0267E        4582        B     *+8                   PRIGHT IS INDEX-NAME                 26202021
 00267A 4110 B57C      08E2C        4583        LA    RW1,PLEFT             POINT RW1 TO OTHER OP                26208021
 00267E D501 1000 A4EA 00000 081E2  4584          CLC   DX0(LX2,RW1),CBZERO   IS OTHER OP FIGCN ZERO             26214021
 002684 4780 F944      026FC        4585        BE    CMPIND       THIS IS ALLOWABLE- INDEX COMPARE              26220021
 002688 D200 BE66 107B 09716 0007B  4586          MVC   DCURR(LX1),MOPLNG-NX3(RW1) SEE IF OTHER OP INTEGER       26226021
 00268E D201 BE64 107C 09714 0007C  4587          MVC   MODE(LX2),MOPLNG-NX2(RW1)                                26232021
 002694 45E0 8B64      06B1C        4588        BAL   RCS,ISINT2            IS OTHER OP INTEGER                  26238021
 002698 47F0 F958      02710        4589        B     RITERR                NOT INTEGER- ERROR                   26244021
 00269C 47F0 F944      026FC        4590        B     CMPIND               INTEGER- INEXNAME OK INDEX COMP       26250021
 0026A0 9110 BE24      096D4        4591 OKREL6 TM    PTEMP,INDNMD1         INDEX-NAME NOT FOUND                 26256021
                                    4592 *                                  IS ONE INDEX DATA ITEM               26262021
 0026A4 4710 F958      02710        4593        BO    RITERR                YES- ILLEGAL                         26268021
 0026A8 9180 BE24      096D4        4594        TM    PTEMP,MNUMBT          IS ONE NUMERIC  (INCLUDES SNR)       26274021
 0026AC 4710 F904      026BC        4595        BC    ONES,OKREL8           NUM VS NON NUM                       26280021
 0026B0 9180 B5F8      08EA8        4596        TM    MODEL,MNUMBT          PERHAPS NUM DNM VS NUM LIT/ZERO      26286021
 0026B4 4710 F2EA      020A2        4597        BO    IF28                 NUMERIC COMPARE                       26292021
 0026B8 47F0 F93C      026F4        4598        BC    UNCOND,CMPALF         NEITHER NUMERIC - NN COMPARE         26298021
                                    4599 *  ONE IS NUMERIC   ONE IS NOT                                          26304021
 0026BC 9180 B5F8      08EA8        4600 OKREL8 TM    MODEL,MNUMBT          IS LEFT NUMERIC                      26310021
 0026C0 47E0 F914      026CC        4601        BC    NOTONE,OKREL7         NO                                   26316021
 0026C4 4110 B57C      08E2C        4602        LA    RW1,PLEFT                                                  26322021
 0026C8 47F0 F918      026D0        4603        B     *+8                   YES, SEE IF RIGHT CLASS              26328021
 0026CC 4110 B5FA      08EAA        4604 OKREL7 LA    RW1,PRIGHT                                                 26334021
1PH40     IKFCBL40                                                                                              PAGE   96
-  LOC  OBJECT CODE    ADDR1 ADDR2  STMT   SOURCE STATEMENT                                       ASM 0201 11.03 02/14/15
00026D0 9508 107D      0007D        4605          CLI   MOPLNG-NX1(RW1),MEDMOD    IS IT ED                       26340021
 0026D4 4780 F93C      026F4        4606        BE    CMPALF          OK   NN COMPARE                            26346021
 0026D8 950D 107D      0007D        4607          CLI   MOPLNG-NX1(RW1),MSNMOD STERLING NON-REPORT               26352021
 0026DC 4780 F93C      026F4        4608        BE    CMPALF                OK NN                                26358021
 0026E0 9101 107C      0007C        4609          TM    MOPLNG-NX2(RW1),MLITBT NUM LIT OR FIGCON ZERO            26364021
 0026E4 4710 F93C      026F4        4610        BO    CMPALF          OK                                         26370021
 0026E8 9509 107D      0007D        4611          CLI   MOPLNG-NX1(RW1),XX09   EXTERNAL FLOAT                    26376021
 0026EC 4780 F93C      026F4        4612        BE    CMPALF             OK                                      26382021
 0026F0 47F0 F958      02710        4613        B     RITERR          ERROR                                      26388021
                                    4614 *                                                                       26394021
                                    4615 *                                                                       26400021
                                    4616 *                 CHANGE VERB-CODE FOR NON-NUMERIC COMPARISONS          26406021
                                    4617 *                                                                       26412021
 0026F4 9610 BED3      09783        4618 CMPALF OI      PRELAT,MSKALF                                            26418021
 0026F8 47F0 F2EA      020A2        4619        BC      UNCOND,IF28         END-PORTION OF IF                    26424021
 0026FC 9660 BED3      09783        4620 CMPIND OI    PRELAT,MSKIND                                              26430021
 002700 47F0 F2EA      020A2        4621        BC    UNCOND,IF28           END-PORTION OF IF                    26436021
                                    4622 *                                                                       26442021
                                    4623 *                        ILLEGAL COMBINATION FOUND                      26448021
                                    4624 *                                                                       26454021
                             02704  4625 LFTERR EQU     *                                                        26460021
 002704 45E0 9BC2      07A1A        4626        BAL     RCS,ERRIF           ERROR                                26466021
 002708 4110 A099      07D91        4627        LA      RW1,ELST1A                                               26472021
 00270C 47F0 F51E      022D6        4628        BC      UNCOND,IFERR2       ERROR                                26478021
                                    4629 *                                                                       26484021
                             02710  4630 RITERR EQU     *                                                        26490021
 002710 45E0 9BC2      07A1A        4631        BAL     RCS,ERRIF           ERROR                                26496021
 002714 4110 A0AB      07DA3        4632        LA      RW1,ELST1D                                               26502021
 002718 47F0 F51E      022D6        4633        BC      UNCOND,IFERR2       ERROR                                26508021
1PH40     IKFCBL40                                                                                              PAGE   97
-  LOC  OBJECT CODE    ADDR1 ADDR2  STMT   SOURCE STATEMENT                                       ASM 0201 11.03 02/14/15
0                                   4635 *=1    ELSE    VERB                                                     26520021
                                    4636 *******************************************************************     26526021
                                    4637 *                                                                       26532021
                                    4638 *                                  E L S E                              26538021
                                    4639 *                                                                       26544021
                                    4640 *** OUTPUT PRODUCED                                                     26550021
                                    4641 *        GENERATES 'GO TO NEXT SENTENCE' FOLLOWED BY LAST LABEL IN      26556021
                                    4642 *          PSHTBL AND ITS EQUS, IF 'ELSE'IS FOLLOWED BY VERB            26562021
                                    4643 *                                                                       26568021
                                    4644 *       (GENERATES ONLY THE LABELS IF LAST VERB WAS 'GO' OR 'STOP-R     26574021
                                    4645 *                                                                       26580021
                                    4646 *        GENERATES LABELS FOLLOWED BY 'GO TO NEXT SENTENCE' IF 'ELS     26586021
                                    4647 *          IS FOLLOWED BY 'NEXT SENTENCE'                               26592021
                                    4648 *                                                                       26598021
                                    4649 *                                                                       26604021
                                    4650 *** SUBROUTINES CALLED                                                  26610021
                                    4651 *      GENLST,PGONXT,GENSTR,ISNXTS,QTBHAS,ERROR                         26616021
                                    4652 *                                                                       26622021
                                    4653 *                                                                       26628021
                                    4654 *** ERROR PROCESSING                                                    26634021
                                    4655 *      GIVES MSG IF NO LABELS IN PSHTBL                                 26640021
                                    4656 *      GIVES WARNING IF VERB FOLLOWS 'NEXT SENTENCE'                    26646021
                                    4657 *      LEAVES FOR IDENT TO NOTICE IF SOMETHING OTHER THAN VERB  OR      26652021
                                    4658 *       'NEXT SENTENCE' FOLLOWS 'ELSE'                                  26658021
                                    4659 *                                                                       26664021
                                    4660 *                                                                       26670021
                                    4661 *** NOTES                                                               26676021
                                    4662 *      PSKPGO TURNED ON BY VERB WHEN GO OR STOP-RUN IS FOUND, ALSO      26682021
                                    4663 *       AND IN IF WHEN GO-NXT-SNT IS GENERATED. TURNED OFF BY IDENT     26688021
                                    4664 *       UPON FINDING ANY VERB BUT 'ELSE'.                               26694021
                                    4665 *                                                                       26700021
                                    4666 *                                                                       26706021
                                    4667 *                                                                       26712021
                                    4668 *                                                                       26718021
                                    4669 *                                                                       26724021
                                    4670 *******************************************************************     26730021
-
-
                             0271C  4672          USING *,RVRB                                                   26742021
                             0271C  4673 ELSE     EQU   *                                                        26748021
 00271C 45E0 9B86      079DE        4674        BAL   RCS,IFSRCH       BRANCH TO IF...SEARCH               5961  26754021
 002720 D501 B08C A598 0893C 08290  4675          CLC   DSPUSH(LX2),N0      ARE THERE ANY LABELS IN TABLE        26760021
 002726 4780 F070      0278C        4676        BC      EQ,ELSE12             NO - ERROR                         26766021
                                    4677 *                                                                       26772021
                                    4678 *                       'ELSE' IS LEGAL                                 26778021
                                    4679 *                                                                       26784021
 00272A 9544 C000      0988B        4680 ELSE1  CLI     GOTTEN,MVERB       DOES VERB FOLLOW                      26790021
 00272E 4780 F03C      02758        4681          BC    EQ,ELSE4            YES                                  26796021
 002732 45E0 8C82      06C3A        4682          BAL   RCS,ISNXTS          NO- DOES 'NEXT SENTENCE'             26802021
 002736 47F0 F050      0276C        4683        BC      UNCOND,ELSE6       NO (IDENT WILL FIND ERROR)            26808021
                                    4684 *                                                                       26814021
1PH40     IKFCBL40                                                                                              PAGE   98
-  LOC  OBJECT CODE    ADDR1 ADDR2  STMT   SOURCE STATEMENT                                       ASM 0201 11.03 02/14/15
0                                   4685 *                       'NEXT SENTENCE' FOLLOWS 'ELSE'                  26820021
                                    4686 *                                                                       26826021
 00273A D501 C000 A346 0988B 0803E  4687          CLC   GOTTEN(LX2),CBEOS    DOES . FOLLOW 'NEXT SENTENCE'       26832021
 002740 4780 F058      02774        4688        BC      EQ,ELSE7             YES - NO PROCESSING NEEDED          26838021
 002744 45E0 7964      0591C        4689        BAL     RCS,GENLST         GENR LAST SET OF BYPASS LABELS        26844021
 002748 45E0 8180      06138        4690          BAL   RCS,PGONXT          STORE 'GO NEXT SENTENCE'             26850021
 00274C 45E0 7766      0571E        4691          BAL   RCS,GENSTR          GENR. 'GO TO NEXT SENTENCE'          26856021
 002750 9601 BF6B      0981B        4692        OI      PSKPGO,MSWON       INHIBIT 'GO TO NEXT SENTENCE' ON      26862021
 002754 47F0 7000      04FB8        4693        BC      UNCOND,IDENT          NEXT ELSE.  EXIT                   26868021
                                    4694 *                                                                       26874021
                                    4695 *                        VERB FOLLOWS 'ELSE'                            26880021
                                    4696 *                                                                       26886021
 002758 D501 C000 A346 0988B 0803E  4697 ELSE4    CLC   GOTTEN(LX2),CBEOS    IS IT .                             26892021
 00275E 4780 7000      04FB8        4698        BC      EQ,IDENT           YES - ERROR (IDENT WILL FIND IT       26898021
 002762 D501 C000 A344 0988B 0803C  4699          CLC   GOTTEN(LX2),CBELSE   IS IT ANOTHER 'ELSE'                26904021
 002768 4780 F068      02784        4700        BC      EQ,ELSE10          YES - ERROR (IDENT WILL FIND IT       26910021
 00276C 9101 BF6B      0981B        4701 ELSE6    TM    PSKPGO,MSWON        OK VERB. WAS LAST VERB GO OR STO     26916021
 002770 4780 F060      0277C        4702        BC      ZERO,ELSE8         YES - OMIT 'GO TO NEXT...'            26922021
 002774 9601 BF73      09823        4703 ELSE7  OI      GENRED,MSWON       (AVOID 'INCOMPLETE' MSG FROM IDEN     26928021
 002778 47F0 F068      02784        4704        BC      UNCOND,ELSE10       GENERATE BYPASS LABELS               26934021
 00277C 45E0 8180      06138        4705 ELSE8  BAL     RCS,PGONXT         NO - GENR 'GO TO NEXT...'             26940021
 002780 45E0 7766      0571E        4706          BAL   RCS,GENSTR          GENERATE STRING                      26946021
 002784 45E0 7964      0591C        4707 ELSE10 BAL     RCS,GENLST         GENR. 1 SET OF BYPASS LABELS          26952021
 002788 47F0 7000      04FB8        4708        BC      UNCOND,IDENT       EXIT                                  26958021
                                    4709 *                                                                       26964021
                                    4710 *      ERROR - EXTRA ELSE FOUND , I.E., NO LABELS IN PSHTBL             26970021
                                    4711 *                                                                       26976021
 00278C 45E0 9BDA      07A32        4712 ELSE12 BAL     RCS,ERROR           PROCESS ERROR                        26982021
 002790 4110 A069      07D61        4713        LA      RW1,ELST11                                               26988021
 002794 9601 BF73      09823        4714        OI      GENRED,MSWON        AVOID IDENT MSG                      26994021
 002798 47F0 F00E      0272A        4715        BC      UNCOND,ELSE1        'ELSE' IS LEGAL                      27000021
1PH40     IKFCBL40                                                                                              PAGE   99
-  LOC  OBJECT CODE    ADDR1 ADDR2  STMT   SOURCE STATEMENT                                       ASM 0201 11.03 02/14/15
0                                   4717 *=1    DEBUG   VERB                                                     27012021
                                    4718 *******************************************************************     27018021
                                    4719 *                                                                       27024021
                                    4720 *                           D E B U G G                                 27030021
                                    4721 *                                                                       27036021
                                    4722 *                                                                       27042021
                                    4723 *** STRINGS PRODUCED                                                    27048021
                                    4724 *      SOURCE - *DEBUG PN1                                              27054021
                                    4725 *      OUTPUT - DEBUG RPD-NUM GNDEF                                     27060021
                                    4726 *              (AT PN1 A CALL TO THIS GNREF WAS PRODUCED)               27066021
                                    4727 *                                                                       27072021
                                    4728 *                                                                       27078021
                                    4729 *** SUBROUTINES CALLED                                                  27084021
                                    4730 *      GETNXT,STOVRB,STOR45,GENSTR,SRCHTB,ERROR                         27090021
                                    4731 *                                                                       27096021
                                    4732 *                                                                       27102021
                                    4733 *** ERROR PROCESSING                                                    27108021
                                    4734 *      SKIP STATEMENT IF PN MISSING                                     27114021
                                    4735 *                        PN IS REFERENCED BY ANOTHER DEBUG PACKET       27120021
                                    4736 *                        PN IS ITSELF DEFINED IN A DEBUG PACKET         27126021
                                    4737 *                                                                       27132021
                                    4738 *                                                                       27138021
                                    4739 *** NOTES                                                               27144021
                                    4740 *      TRY CAUSES TRYSW TO BE SET ON AND ERROR MESSAGE SEVERITIES       27150021
                                    4741 *        TO BE CHANGED TO 0.                                            27156021
                                    4742 *      THE GN AND RPD NUMBER USED ARE THOSE STORED IN DBGTBL AT THE     27162021
                                    4743 *        TIME IDENT FOUND THE PN AT POINT OF DEFINITION                 27168021
                                    4744 *                                                                       27174021
                                    4745 *                                                                       27180021
                                    4746 *******************************************************************     27186021
-
                             0279C  4748        USING *,RVRB                                                     27198021
                             0279C  4749 DEBUGG EQU     *                  START NEW PACKET                      27204021
 00279C 4810 BD42      095F2        4750          LH    RW1,SAVLHN+NX4   GET ID OF SN THAT WILL FOLLOW           27210021
 0027A0 4111 0001      00001        4751          LA    RW1,DX1(RW1)      ( 1 GREATER THAN LAST LHN FOUND)       27216021
 0027A4 4010 BD42      095F2        4752          STH   RW1,SAVLHN+NX4                                           27222021
 0027A8 45E0 72EE      052A6        4753        BAL     RCS,IDLH01  SEE IF END-OF-PERFORM CODING MUST PRECED     27228021
                                    4754 *                                   DEBUG CODING                        27234021
 0027AC 4100 A77D      08475        4755        LA      RA0,BCDPNU           PARAM FOR IDGVUP                    27240021
 0027B0 9520 C000      0988B        4756        CLI     GOTTEN,MPNU        IS INPUT A PN                         27246021
 0027B4 4770 7204      051BC        4757        BC      NOTEQ,IDGVUP         NO - GIVE UP                        27252021
 0027B8 9140 C003      00003        4758          TM    DX3(RIN),MDBUGU                                          27258021
 0027BC 4710 F06A      02806        4759        BC      ONES,DEBGE3         DONT ALLOW TO DEBUG A DEBUG PACK     27264021
 0027C0 D201 BE90 C004 09740 00004  4760          MVC   SRCHNM(LX2),DX4(RIN) YES- FIND IN DBGTBL                 27270021
 0027C6 5810 B068      08918        4761        L       RW1,ADBGTB                                               27276021
 0027CA 45E0 7DF8      05DB0        4762        BAL     RCS,SRCHTB          SEARCH TABLE FOR DEBUG - RPD         27282021
 0027CE 47F0 F05E      027FA        4763        BC      UNCOND,DEBGE2      IF NOT IN MEANS USED BEFORE           27288021
 0027D2 D700 BEB6 BEB6 09766 09766  4764          XC    RPDREF+NX2(LX1),RPDREF+NX2                               27294021
                             027D8  4765 DEBG02 EQU     *                  THEN                                  27300021
 0027D8 45E0 8166      0611E        4766        BAL     RCS,STOVRB                STORE 'DEBUG RPD'              27306021
 0027DC 4140 BEB4      09764        4767        LA      RW4,RPDREF                                               27312021
 0027E0 45E0 8000      05FB8        4768        BAL     RCS,STOR45          STORE IN STRING                      27318021
 0027E4 45E0 7766      0571E        4769        BAL     RCS,GENSTR                GENR STRING                    27324021
1PH40     IKFCBL40                                                                                              PAGE  100
-  LOC  OBJECT CODE    ADDR1 ADDR2  STMT   SOURCE STATEMENT                                       ASM 0201 11.03 02/14/15
00027E8 D201 BDFF BEC8 096AF 09778  4770          MVC   GNDEF+NX1(LX2),VNNUM                                     27330021
 0027EE 45E0 7952      0590A        4771        BAL     RCS,GENLAB                GENR GN(DEF) FROM TABLE        27336021
 0027F2 45E0 7566      0551E        4772        BAL     RCS,GETNXT          GET NEXT ENTITY                      27342021
 0027F6 47F0 7000      04FB8        4773        BC      UNCOND,IDENT        EXIT                                 27348021
                             027FA  4774 DEBGE2 EQU     *                                                        27354021
 0027FA 45E0 9BDA      07A32        4775        BAL     RCS,ERROR           PN USED IN ANOTHER DBG PACKET        27360021
 0027FE 4110 A1A1      07E99        4776        LA      RW1,ELST3F          SAME PN USED IN 2 PACKETS            27366021
 002802 47F0 720C      051C4        4777        BC      UNCOND,IDERR        ERROR EXIT                           27372021
 002806 45E0 9BDA      07A32        4778 DEBGE3 BAL     RCS,ERROR           PN IS DEFINED IN DEBUG PACKET        27378021
 00280A 4110 A216      07F0E        4779        LA      RW1,ELST50                                               27384021
 00280E 47F0 720C      051C4        4780        BC      UNCOND,IDERR        ERROR EXIT                           27390021
1PH40     IKFCBL40                                                                                              PAGE  101
-  LOC  OBJECT CODE    ADDR1 ADDR2  STMT   SOURCE STATEMENT                                       ASM 0201 11.03 02/14/15
0                                   4782 *=1    EXHIBT  VERB                                                     27402021
                                    4783 *                                                                       27408021
                                    4784 *                                                                       27414021
                                    4785 *******************************************************************     27420021
                                    4786 *                           E X H I B T                                 27426021
                                    4787 *                                                                       27432021
                                    4788 *                                                                       27438021
                                    4789 *** STRINGS PRODUCED                                                    27444021
                                    4790 *      SOURCE - EXHIBIT CHANGED DN1 DN2 'A' DN3 'B'                     27450021
                                    4791 *      OUTPUT - EXHIBIT 'FIRST' CHANGED DN1 DN2 'A'                     27456021
                                    4792 *               EXHIBIT DN3 'B' 'END'                                   27462021
                                    4793 *               EXHIBIT 'FIRST' CHANGED DN1 DN2 'A'                     27468021
                                    4794 *               EXHIBIT DN3 'B' 'END'                                   27474021
                                    4795 *                                                                       27480021
                                    4796 *      SOURCE - EXHIBIT NAMED DN1 DN2 'A' DN3                           27486021
                                    4797 *      OUTPUT - EXHIBIT 'FIRST' NAMED ''DN1'' DN1 ''DN2''               27492021
                                    4798 *               EXHIBIT DN2 'A' ''DN3'' DN3 'END'                       27498021
                                    4799 *               EXHIBIT 'FIRST' NAMED ''DN1'' DN1 ''DN2''               27504021
                                    4800 *               EXHIBIT DN2 'A' ''DN3'' DN3 'END'                       27510021
                                    4801 *                                                                       27516021
                                    4802 *      SOURCE - EXHIBIT CHANGED NAMED DN1                               27522021
                                    4803 *      OUTPUT - EXHIBIT 'FIRST' CHANGED NAMED ''DN1'' DN1               27528021
                                    4804 *               EXHIBIT 'END'                                           27534021
                                    4805 *               EXHIBIT 'FIRST' CHANGED NAMED ''DN1'' DN1               27540021
                                    4806 *               EXHIBIT 'END'                                           27546021
                                    4807 *                                                                       27552021
                                    4808 *      SOURCE - EXHIBIT DN1                                             27558021
                                    4809 *      OUTPUT - EXHIBIT 'FIRST' DN1 'END'                               27564021
                                    4810 *               EXHIBIT 'FIRST' DN1 'END'                               27570021
                                    4811 *                                                                       27576021
                                    4812 *** SUBROUTINES CALLED                                                  27582021
                                    4813 *      GETNXT,SAVCUR,STOVRB,STO5IN,STO545,RDUCOP,GNTWIC,ERROR           27588021
                                    4814 *       ISFLPT                                                          27594021
                                    4815 *                                                                       27600021
                                    4816 *                                                                       27606021
                                    4817 *** ERROR PROCESSING                                                    27612021
                                    4818 *      ACCEPT WITHOUT 'NAMED' OR 'CHANGED'                              27618021
                                    4819 *      ACCEPT WITH 'NAMED CHANGED' REVERSED                             27624021
                                    4820 *      STOP PROCESSING WHEN NON-OPERAND FOUND                           27630021
                                    4821 *                                                                       27636021
                                    4822 *                                                                       27642021
                                    4823 *** NOTES                                                               27648021
                                    4824 *     EXHIBIT... NOTE THAT THIS SCAN USES THE STRING SEGMENTATION       27654021
                                    4825 *      ROUTINES STO5IN, STOK45, AND STO5KN                              27660021
                                    4826 *      THE ENTIRE SERIES OF SUBSTRINGS IS STORED TILL END OF STATE-     27666021
                                    4827 *        MENT AND GENERATED TWICE.                                      27672021
                                    4828 *      PHASE 1 ATTACHES THE BCD FORM OF EACH DATA NAME FOLLOWING TH     27678021
                                    4829 *        IC-TEXT FORM OF THE DN IN THE NAMED OPTION.                    27684021
                                    4830 *      IF ANY DN IS INT. FLOATING POINT,EXHIBIT STRINGS ARE PRECEDE     27690021
                                    4831 *               MOVE DN PARAM                                           27696021
                                    4832 *      GNOUSW TELLS GENSTR TO GENERATE WHAT IT FINDS IN PNOUNT --,      27702021
                                    4833 *       THE MOVE STRINGS                                                27708021
                                    4834 *                                                                       27714021
                                    4835 *******************************************************************     27720021
1PH40     IKFCBL40                                                                                              PAGE  102
-  LOC  OBJECT CODE    ADDR1 ADDR2  STMT   SOURCE STATEMENT                                       ASM 0201 11.03 02/14/15
0                                   4837 *                                                                       27732021
                             02812  4838        USING *,RVRB                                                     27738021
                             02812  4839 EXHIBT EQU   *                                                          27744021
 002812 9601 BE9C      0974C        4840        OI    STO5CT,MSWON                                               27750021
 002816 9601 BFC0      09870        4841        OI      GNOUSW,MSWON       TELL GENSTR TO LOOK IN PNOUNS FOR     27756021
 00281A 45E0 7F5C      05F14        4842        BAL     RCS,PZSTRT              SOME OUTPUT                      27762021
 00281E 5810 B070      08920        4843        L     RW1,APNOUN                                                 27768021
 002822 D701 BE6C BE6C 0971C 0971C  4844          XC    PARSIZ(LX2),PARSIZ   RESTART PARAM DISPL. COUNT AT 0     27774021
 002828 45E0 813A      060F2        4845        BAL     RCS,STO5BG         STORE VERB AND 'FIRST'                27780021
 00282C D501 C000 A4F0 0988B 081E8  4846          CLC   GOTTEN(LX2),CBCHGD   ='CHANGED'...                       27786021
 002832 4770 F030      02842        4847        BC    NOTEQ,EXHB01           NO                                  27792021
 002836 9601 BF99      09849        4848        OI    EXHBCS,MSWON                                               27798021
 00283A 45E0 808C      06044        4849        BAL   RCS,STO5IN            STORE 'CHANGED'                      27804021
 00283E 45E0 7566      0551E        4850        BAL   RCS,GETNXT            GET NEXT ENTITY                      27810021
 002842 D501 C000 A502 0988B 081FA  4851 EXHB01   CLC   GOTTEN(LX2),CBNAMD   = 'NAMED' ...                       27816021
 002848 4770 F050      02862        4852        BC      NOTEQ,EXHB05         NO                                  27822021
 00284C 9601 BFA7      09857        4853        OI      EXHBNS,MSWON        SET NAMED SW                         27828021
 002850 45E0 808C      06044        4854        BAL   RCS,STO5IN            STORE 'NAMED'                        27834021
 002854 45E0 7566      0551E        4855        BAL   RCS,GETNXT            GET NEXT INPUT                       27840021
 002858 D501 C000 A4F0 0988B 081E8  4856          CLC   GOTTEN(LX2),CBCHGD   AGAIN, = 'CHANGED' ...              27846021
 00285E 4780 F0E4      028F6        4857        BC    EQ,EXHBE2             YES, OUT OF ORDER, BUT ACCEPT        27852021
 002862 9101 BF99      09849        4858 EXHB05 TM      EXHBCS,MSWON        WAS EITHER CHGD OR NMD GIVEN...      27858021
 002866 4710 F060      02872        4859        BC      ONES,EXHB07         YES                                  27864021
 00286A 9101 BFA7      09857        4860        TM      EXHBNS,MSWON                                             27870021
 00286E 4780 F0D8      028EA        4861        BC      ZERO,EXHBE1          NO, REQUIRED                        27876021
 002872 45E0 81AC      06164        4862 EXHB07 BAL     RCS,RDUCOP          IS DATA NAME VALID                   27882021
 002876 47F0 F0B0      028C2        4863        BC      UNCOND,EXHB06       NO                                   27888021
 00287A 45E0 8B02      06ABA        4864        BAL     RCS,ISFLPT         PROCESS FLOATING-POINT ITEMS          27894021
 00287E 9601 BF9A      0984A        4865        OI      EXHBS1,MSWON       SW SAYS LEGAL OPERAND FOUND           27900021
 002882 9101 BF99      09849        4866        TM      EXHBCS,MSWON                                             27906021
 002886 4780 F080      02892        4867        BC      ZERO,EXHB7X             EXHIBIT NAMED MAYBE              27912021
 00288A 9504 BE65      09715        4868          CLI   MODE+NX1,MGRPV      NO - CHANGED. IS THIS VAR. LNG. G    27918021
 00288E 4780 F0F8      0290A        4869        BC      EQ,EXHBE3           YES - ERROR                          27924021
                             02892  4870 EXHB7X EQU     *                                                        27930021
 002892 9101 BFA7      09857        4871        TM      EXHBNS,MSWON            IS IT NAMED                      27936021
 002896 4780 F0A4      028B6        4872        BC      ZERO,EXHB09               NO                             27942021
 00289A 9101 BE64      09714        4873        TM      MODE,MLITBT          YES IS CURRENT INPUT DN             27948021
 00289E 4710 F0A4      028B6        4874        BC      ONES,EXHB09           NO                                 27954021
 0028A2 4140 B57C      08E2C        4875        LA      RW4,PLEFT             YES, STORE ITS 35-EQUIVALENT F     27960021
 0028A6 4830 B96E      0921E        4876        LH      RW3,CNT35S            (SUBSCR PUT IT AT PLEFT)           27966021
 0028AA 45E0 8098      06050        4877 EXHB08 BAL     RCS,STO545          STORE 35-EQUIVAL.                    27972021
 0028AE 4A40 BE72      09722        4878        AH      RW4,BYTES                                                27978021
 0028B2 4630 F098      028AA        4879        BCT     RW3,EXHB08          RETURN TO STORE MORE                 27984021
 0028B6 45E0 808C      06044        4880 EXHB09 BAL   RCS,STO5IN            NOT SPECIAL CASE                     27990021
 0028BA 45E0 7566      0551E        4881        BAL     RCS,GETNXT          GET NEXT INPUT                       27996021
 0028BE 47F0 F060      02872        4882        BC    UNCOND,EXHB07         CHECK IF VALID OPERAND               28002021
 0028C2 45E0 8C32      06BEA        4883 EXHB06 BAL     RCS,ISEND          NON-OPERAND - IS IT END               28008021
 0028C6 47F0 F0F8      0290A        4884        BC      UNCOND,EXHBE3      NO - GO DISCARD                       28014021
 0028CA 9101 BF9A      0984A        4885        TM    EXHBS1,MSWON               IS SW SET...                    28020021
 0028CE 4780 F0C4      028D6        4886        BC      ZERO,EXHB11        NO - LET IDENT FIND ERROR             28026021
 0028D2 45E0 77EA      057A2        4887        BAL     RCS,GNTWIC         GENER WHOLE STRING OUTPUT TWICE       28032021
 0028D6 94FE BFC0      09870        4888 EXHB11 NI      GNOUSW,MSWOFF                                            28038021
 0028DA 94FE BFA7      09857        4889        NI      EXHBNS,MSWOFF      RESET ALL SWITCHES                    28044021
 0028DE 94FE BF99      09849        4890        NI      EXHBCS,MSWOFF                                            28050021
 0028E2 94FE BF9A      0984A        4891        NI      EXHBS1,MSWOFF                                            28056021
1PH40     IKFCBL40                                                                                              PAGE  103
-  LOC  OBJECT CODE    ADDR1 ADDR2  STMT   SOURCE STATEMENT                                       ASM 0201 11.03 02/14/15
00028E6 47F0 7000      04FB8        4892        BC      UNCOND,IDENT        *** EXIT FROM EXHIBIT VERB ***       28062021
                             028EA  4893 EXHBE1 EQU   *                     8C                                   28068021
 0028EA 45E0 9BDA      07A32        4894        BAL   RCS,ERROR             CHANGED OR NAMED MISSING             28074021
 0028EE 4110 A19B      07E93        4895        LA      RW1,ELST3D                                               28080021
 0028F2 47F0 F060      02872        4896        BC    UNCOND,EXHB07         CHECK IF VALID OP                    28086021
                             028F6  4897 EXHBE2 EQU   *                     8D                                   28092021
 0028F6 45E0 9BDA      07A32        4898        BAL   RCS,ERROR             'CHANGED' OUT OF ORDER, ACCEPT       28098021
 0028FA 4110 A19E      07E96        4899        LA      RW1,ELST3E                                               28104021
 0028FE 45E0 808C      06044        4900        BAL   RCS,STO5IN            EXHBE2                               28110021
 002902 45E0 7566      0551E        4901        BAL   RCS,GETNXT            GET NEXT INPUT                       28116021
 002906 47F0 F060      02872        4902        BC    UNCOND,EXHB07         CHECK IF VALID DATA-NAME             28122021
 00290A 45E0 9BDA      07A32        4903 EXHBE3 BAL     RCS,ERROR           NON-OPERAND FOUND                    28128021
 00290E 4110 A00F      07D07        4904        LA      RW1,ELST04                                               28134021
                             02912  4905 EXHBE4 EQU     *                                                        28140021
 002912 45E0 7566      0551E        4906        BAL     RCS,GETNXT          DISCARD                              28146021
 002916 9535 C000      0988B        4907          CLI   GOTTEN,XX35                                              28152021
 00291A 4780 F100      02912        4908        BC      EQ,EXHBE4          DON'T GO BACK WITH 35-EQUIVALENTS     28158021
 00291E 47F0 F060      02872        4909        BC      UNCOND,EXHB07       CHECK IF VALID DATA-NAME             28164021
1PH40     IKFCBL40                                                                                              PAGE  104
-  LOC  OBJECT CODE    ADDR1 ADDR2  STMT   SOURCE STATEMENT                                       ASM 0201 11.03 02/14/15
0                                   4911 *=1    RESET   VERB                                                     28176021
                                    4912 *=1    READY   VERB                                                     28182021
                                    4913 *                                                                       28188021
                                    4914 *                                                                       28194021
                                    4915 *******************************************************************     28200021
                                    4916 *                           R E A D Y                                   28206021
                                    4917 *                           R E S E T                                   28212021
                                    4918 *                                                                       28218021
                                    4919 *                                                                       28224021
                                    4920 *** STRINGS PRODUCED                                                    28230021
                                    4921 *      VERB ALONE CONSTITUTES STRING                                    28236021
                                    4922 *                                                                       28242021
                                    4923 *** SUBROUTINES CALLED                                                  28248021
                                    4924 *      GETNXT,STOVRB,GENSTR,ERROR                                       28254021
                                    4925 *                                                                       28260021
                                    4926 *                                                                       28266021
                                    4927 *** ERROR PROCESSING                                                    28272021
                                    4928 *      'TRACE' ASSUMED IF MISSING                                       28278021
                                    4929 *                                                                       28284021
                                    4930 *                                                                       28290021
                                    4931 *** NOTES                                                               28296021
                                    4932 *      PHASE 1 TURNS ON A SWITCH IN COMMON IF 'READY TRACE' OCCURS      28302021
                                    4933 *        WHERE IN THE PROCEDURE DIVISION.  IDENT TESTS THIS SWITCH      28308021
                                    4934 *        AND IF IT IS ON GENERATES A TRACE VERB FOR EVERY LHN.          28314021
                                    4935 *                                                                       28320021
                                    4936 *******************************************************************     28326021
                                    4937 *                                                                       28332021
                             02922  4938        USING *,RVRB                                                     28338021
                             02922  4939 READY  EQU   *                                                          28344021
                             02922  4940        USING *,RVRB                                                     28350021
                             02922  4941 RESET  EQU   *                                                          28356021
 002922 45E0 8166      0611E        4942        BAL   RCS,STOVRB            PUT VERB BACK ON STRING              28362021
 002926 D501 C000 A50E 0988B 08206  4943          CLC   GOTTEN(LX2),CBTRAC   IS IT TRACE...                      28368021
 00292C 4770 F01A      0293C        4944        BC    NOTEQ,RESTE2           NO, TO ERR2                         28374021
 002930 45E0 7566      0551E        4945        BAL   RCS,GETNXT            GET NEXT ENTITY                      28380021
 002934 45E0 7766      0571E        4946        BAL     RCS,GENSTR          GENERATE STRING                      28386021
 002938 47F0 7000      04FB8        4947        BC    UNCOND,IDENT           EXIT                                28392021
                             0293C  4948 RESTE2 EQU   *                     8F                                   28398021
 00293C 4100 A50E      08206        4949        LA      RA0,CBTRAC                                               28404021
 002940 45E0 9BDA      07A32        4950        BAL   RCS,ERROR             WARNING MESSAGE                      28410021
 002944 4110 A02A      07D22        4951        LA      RW1,ELST07                                               28416021
 002948 45E0 7766      0571E        4952        BAL   RCS,GENSTR            RESTE2                               28422021
 00294C 47F0 7000      04FB8        4953        BC    UNCOND,IDENT          EXIT                                 28428021
1PH40     IKFCBL40                                                                                              PAGE  105
-  LOC  OBJECT CODE    ADDR1 ADDR2  STMT   SOURCE STATEMENT                                       ASM 0201 11.03 02/14/15
0                                   4955 *=1    ON      VERB                                                     28440021
                                    4956 *                                                                       28446021
                                    4957 *                                                                       28452021
                                    4958 *******************************************************************     28458021
                                    4959 *                           O N   (VERB)                                28464021
                                    4960 *                                                                       28470021
                                    4961 *                                                                       28476021
                                    4962 *** STRINGS PRODUCED                                                    28482021
                                    4963 *      (DUMMY OPERAND 'ZERO' IS USED FOR ALL ABSENT INTEGERS)           28488021
                                    4964 *      SOURCE - ON 2                                                    28494021
                                    4965 *      OUTPUT - ONVRB 2 ZERO ZERO GN                                    28500021
                                    4966 *      SOURCE - ON 2 UNTIL 5                                            28506021
                                    4967 *      OUTPUT - ONVRB 2 ZERO 5 GN                                       28512021
                                    4968 *      SOURCE - ON 2 AND EVERY 1 UNTIL 5                                28518021
                                    4969 *      OUTPUT - ONVRB 2  1  5  GN                                       28524021
                                    4970 *                                                                       28530021
                                    4971 *                                                                       28536021
                                    4972 *** SUBROUTINES CALLED                                                  28542021
                                    4973 *      GETNXT, STOVRB,STODUM, STOINP, STOR45, INSERT, PUPLGN, ISNIL     28548021
                                    4974 *      GENSTR,ERROR                                                     28554021
                                    4975 *                                                                       28560021
                                    4976 *                                                                       28566021
                                    4977 *** ERROR PROCESSING                                                    28572021
                                    4978 *      IF OPERANDS 1 AND/OR 2 ARE NOT INTEGERS, 1 IS SUPPLIED           28578021
                                    4979 *      IF OPERAND 3 IS NOT AN INTEGER, THE UNTIL CLAUSE IS SKIPPED      28584021
                                    4980 *      MISSING 'AND' BEFORE 'EVERY' OR 'EVERY' AFTER 'AND' ASSUMED      28590021
                                    4981 *                                                                       28596021
                                    4982 *                                                                       28602021
                                    4983 *** NOTES                                                               28608021
                                    4984 *      THE GN USED IN THE STRING IS PLACED IN PSHTBL WITH A MASTER      28614021
                                    4985 *        AND IS GENERATED AS A LABEL WHEN 'ELSE' OR EOS IS FOUND        28620021
                                    4986 *                                                                       28626021
                                    4987 *                                                                       28632021
                                    4988 *******************************************************************     28638021
-
                                    4990 *                                                                       28650021
                             02950  4991        USING *,RVRB                                                     28656021
                             02950  4992 ONVRB  EQU   *                                                          28662021
 002950 4100 A3FC      080F4        4993        LA      RA0,CBON         PARAM FOR MSG 56                        28668021
 002954 45E0 8C54      06C0C        4994        BAL     RCS,ISTRUV       CHECK IF CONDITION ALLOWED              28674021
 002958 45E0 8166      0611E        4995        BAL   RCS,STOVRB            ENSTRING ON VERB                     28680021
 00295C 9601 BF79      09829        4996        OI      PLOGIC,MSWON       TELL GETNXT TO SEND BACK 'AND'        28686021
 002960 180C                        4997        LR      RA0,RIN            SET RA0 FOR MSG                       28692021
 002962 45E0 8E08      06DC0        4998        BAL     RCS,ISNIL           IS IT A POS NUM INT LIT ...          28698021
 002966 47F0 F0F4      02A44        4999        BC    UNCOND,ONERR1          NO, REQUIRED                        28704021
 00296A 45E0 8048      06000        5000        BAL   RCS,STOINP             YES                                 28710021
 00296E 45E0 7566      0551E        5001        BAL   RCS,GETNXT            GET NEXT ENTITY                      28716021
                             02972  5002 ONX1   EQU   *                                                          28722021
 002972 D501 C000 A33A 0988B 08032  5003          CLC   GOTTEN(LX2),CBAND    ='AND'...                           28728021
 002978 4770 F0D6      02A26        5004        BC    NOTEQ,ON1              NO                                  28734021
 00297C 45E0 7566      0551E        5005        BAL   RCS,GETNXT             YES,DISCARD                         28740021
 002980 D501 C000 A4F8 0988B 081F0  5006          CLC   GOTTEN(LX2),CBEVER   ='EVERY'...                         28746021
 002986 4780 F04A      0299A        5007          BC    EQ,ON2              'ON' FOLLOWED BY 'EVERY'             28752021
1PH40     IKFCBL40                                                                                              PAGE  106
-  LOC  OBJECT CODE    ADDR1 ADDR2  STMT   SOURCE STATEMENT                                       ASM 0201 11.03 02/14/15
000298A 4100 A4F8      081F0        5008          LA    RA0,CBEVER          NO, WORD 'EVERY' MISSING             28758021
 00298E 45E0 9BDA      07A32        5009          BAL   RCS,ERROR           WARNING MESSAGE                      28764021
 002992 4110 A02A      07D22        5010          LA    RW1,ELST07                                               28770021
 002996 47F0 F04E      0299E        5011          BC    UNCOND,*+NX8        IS IT AN INTEGER                     28776021
 00299A 45E0 7566      0551E        5012 ON2    BAL   RCS,GETNXT             YES, DISCARD                        28782021
 00299E 180C                        5013        LR      RA0,RIN            SET RA0 FOR MSG                       28788021
 0029A0 45E0 8E08      06DC0        5014        BAL     RCS,ISNIL           IS IT A POS NUM INT LIT ...          28794021
 0029A4 47F0 F118      02A68        5015        BC    UNCOND,ONERR4          NO, IGNORE CLAUSE                   28800021
 0029A8 45E0 8048      06000        5016        BAL   RCS,STOINP             YES, ENSTRING                       28806021
 0029AC 45E0 7566      0551E        5017        BAL   RCS,GETNXT            GET NEXT ENTITY                      28812021
 0029B0 D501 C000 A4E8 0988B 081E0  5018 ON3      CLC   GOTTEN(LX2),CBUNTL   ='UNTIL'...                         28818021
 0029B6 4770 F0E4      02A34        5019        BC    NOTEQ,ON4              NO                                  28824021
 0029BA 45E0 7566      0551E        5020        BAL   RCS,GETNXT             YES, DISCARD                        28830021
 0029BE 180C                        5021        LR      RA0,RIN            SET RA0 FOR MSG                       28836021
 0029C0 45E0 8E08      06DC0        5022        BAL     RCS,ISNIL           IS IT A POS NUM INT LIT ...          28842021
 0029C4 47F0 F12C      02A7C        5023        BC    UNCOND,ONERR5          NO, IGNORE CLAUSE                   28848021
 0029C8 45E0 8048      06000        5024        BAL   RCS,STOINP            STORE NIL                            28854021
 0029CC 45E0 7566      0551E        5025        BAL   RCS,GETNXT            GET NEXT ENTITY                      28860021
                                    5026 * AT THIS POINT,   TRUE BRANCH IS REACHED. TREAT LIKE IF.               28866021
 0029D0 45E0 9A72      078CA        5027 ON8    BAL   RCS,PUPLGN            GET LGN NUMBER                       28872021
 0029D4 5810 B088      08938        5028        L     RW1,APUSH             GN TO FALSE BRANCH                   28878021
 0029D8 50F0 B54C      08DFC        5029        ST      RVRB,VRBASE                                              28884021
 0029DC 58F0 A314      0800C        5030        L       RAS,ANSERT                                               28890021
 0029E0 05EF                        5031        BALR  RCS,RAS               BRANCH TO TARGET ADDRESS             28896021
 0029E2 58F0 B54C      08DFC        5032        L     RVRB,VRBASE                                                28902021
 0029E6 4133 0003      00003        5033          LA    RW3,DX3(RW3)                                             28908021
 0029EA 4030 B08C      0893C        5034        STH     RW3,DSPUSH         UPDATE SAVED DISPL.                   28914021
 0029EE D203 2000 BE1B 00000 096CB  5035          MVC   DX0(LX4,RW2),NXTLGN-NX1                                  28920021
 0029F4 9610 2000      00000        5036          OI    DX0(RW2),MASTER                                          28926021
 0029F8 D201 BE02 BE1C 096B2 096CC  5037          MVC   RGN+NX1(LX2),NXTLGN    SET UP RGN SKELETON               28932021
 0029FE 4140 BE01      096B1        5038        LA      RW4,RGN              ADDR OF RGN                         28938021
 002A02 45E0 8000      05FB8        5039        BAL   RCS,STOR45            ALSO ADD RGN TO STRING               28944021
 002A06 45E0 7766      0571E        5040        BAL     RCS,GENSTR          GENERATE STRING                      28950021
 002A0A 94FE BF79      09829        5041        NI      PLOGIC,MSWOFF      TELL GETNXT TO IGNORE 'AND' AGAIN     28956021
 002A0E 45E0 8C82      06C3A        5042        BAL     RCS,ISNXTS         DOES 'NEXT SENTENCE' FOLLOW           28962021
 002A12 47F0 7000      04FB8        5043        BC      UNCOND,IDENT        NO - EXIT                            28968021
 002A16 45E0 8180      06138        5044        BAL     RCS,PGONXT           YES - PRODUCE GO-STRING             28974021
 002A1A 45E0 7766      0571E        5045        BAL     RCS,GENSTR          GENERATE STRING                      28980021
 002A1E 9601 BF6B      0981B        5046        OI      PSKPGO,MSWON                                             28986021
 002A22 47F0 7000      04FB8        5047        BC      UNCOND,IDENT        EXIT                                 28992021
 002A26 D501 C000 A4F8 0988B 081F0  5048 ON1      CLC   GOTTEN(LX2),CBEVER   ='EVERY'...                         28998021
 002A2C 4770 F0EC      02A3C        5049        BC    NOTEQ,ON5              NO, ZEROES TO STRING                29004021
 002A30 47F0 F108      02A58        5050        BC    UNCOND,ONERR2          YES WORD'AND'MISSING                29010021
 002A34 45E0 8154      0610C        5051 ON4    BAL     RCS,STODUM          STORE DUMMY ELEMENT (FIGCON ZERO     29016021
 002A38 47F0 F080      029D0        5052        BC    UNCOND,ON8            GET LGN                              29022021
 002A3C 45E0 8154      0610C        5053 ON5    BAL     RCS,STODUM          STORE DUMMY ELEMENT (FIGCON ZERO     29028021
 002A40 47F0 F060      029B0        5054        BC    UNCOND,ON3            CHECK IF 'UNTIL' FOLLOWS             29034021
                                    5055 *  ERROR ROUTINES NEED MESSAGE GENERATION                               29040021
                             02A44  5056 ONERR1 EQU   *                     90                                   29046021
 002A44 45E0 9BDA      07A32        5057        BAL   RCS,ERROR             MESSAGE                              29052021
 002A48 4110 A1A4      07E9C        5058        LA      RW1,ELST40                                               29058021
 002A4C 4140 BF54      09804        5059        LA    RW4,NUMLT1            ONERR1                               29064021
 002A50 45E0 8000      05FB8        5060        BAL   RCS,STOR45            STORE ENTITY                         29070021
 002A54 47F0 F022      02972        5061        BC    UNCOND,ONX1           IS IT 'AND'                          29076021
                             02A58  5062 ONERR2 EQU   *                     94                                   29082021
1PH40     IKFCBL40                                                                                              PAGE  107
-  LOC  OBJECT CODE    ADDR1 ADDR2  STMT   SOURCE STATEMENT                                       ASM 0201 11.03 02/14/15
0002A58 4100 A33A      08032        5063        LA      RA0,CBAND                                                29088021
 002A5C 45E0 9BDA      07A32        5064        BAL   RCS,ERROR             ERROR                                29094021
 002A60 4110 A02A      07D22        5065        LA      RW1,ELST07                                               29100021
 002A64 47F0 F04A      0299A        5066        BC    UNCOND,ON2            ONERR2                               29106021
                             02A68  5067 ONERR4 EQU   *                     91                                   29112021
 002A68 45E0 9BDA      07A32        5068        BAL   RCS,ERROR             ERROR                                29118021
 002A6C 4110 A1A4      07E9C        5069        LA      RW1,ELST40                                               29124021
 002A70 4140 BF54      09804        5070        LA    RW4,NUMLT1            ONERR4                               29130021
 002A74 45E0 8000      05FB8        5071        BAL   RCS,STOR45            STORE ENTITY                         29136021
 002A78 47F0 F060      029B0        5072        BC    UNCOND,ON3            IS IT 'UNTIL'                        29142021
                             02A7C  5073 ONERR5 EQU   *                     92                                   29148021
 002A7C 45E0 9BDA      07A32        5074        BAL   RCS,ERROR             ERROR                                29154021
 002A80 4110 A192      07E8A        5075        LA      RW1,ELST3C                                               29160021
 002A84 47F0 F0E4      02A34        5076        BC      UNCOND,ON4          STORE ZERO                           29166021
1PH40     IKFCBL40                                                                                              PAGE  108
-  LOC  OBJECT CODE    ADDR1 ADDR2  STMT   SOURCE STATEMENT                                       ASM 0201 11.03 02/14/15
0002A88                             5078 IKF40D CSECT                                                            29178021
                                    5079 *=1    SORT    VERB                                                     29184021
                                    5080 *                                                                       29190021
                                    5081 *******************************************************************     29196021
                                    5082 *                                                                       29202021
                                    5083 *                                                                       29208021
                                    5084 *                                                                       29214021
                                    5085 *                                                                       29220021
                                    5086 *                           S O R T                                     29226021
                                    5087 *                                                                       29232021
                                    5088 *                                                                       29238021
                                    5089 *** STRINGS PRODUCED                                                    29244021
                                    5090 *      A SEGMENTED CONTINUOUS STRING IS PRODUCED FOR THE SORT-FILE,     29250021
                                    5091 *       SORT KEYS, AND 'USING' AND/OR 'GIVING' (EITHER OR BOTH OF       29256021
                                    5092 *       THESE IS REPLACED BY SPACE-HOLDER 'ZERO' IF ABSENT). AFTER      29262021
                                    5093 *       STRING, WHOSE LAST ELEMENT IS 'END', COMES -- IF THERE IS I     29268021
                                    5094 *       PROCEDURE -- A PERFORM STRING FOR THE SECTION NAME. THEN A      29274021
                                    5095 *       1-ELEMENT STRING 'SORT 'END''.  THEN IF THERE IS OUTPUT PRO     29280021
                                    5096 *       CEDURE ANOTHER PERFORM STRING AND ANOTHER 1-ELEMENT 'SORT       29286021
                                    5097 *       'END''                                                          29292021
                                    5098 *                                                                       29298021
                                    5099 *  ALWAYS PRESENT - SORT 'FIRST' SFN ASC DN DN...ASC DN DN... ZERO      29304021
                                    5100 *                                    DESC        DESC         USING     29310021
                                    5101 *                                                                       29316021
                                    5102 *                   ZERO   'END                                         29322021
                                    5103 *                   GIVING                                              29328021
                                    5104 *      (WITH SORT VERB REPEATED AFTER EVERY 4 ELEMENTS)                 29334021
                                    5105 *                                                                       29340021
                                    5106 *  THEN IF INPUT PROCEDURE                                              29346021
                                    5107 *                   MOVE-4 VN1 PFMSAV1                                  29352021
                                    5108 *                   MOVE-4 GN1 VN1                                      29358021
                                    5109 *                   GO  SN1                                             29364021
                                    5110 *               GN1 MOVE-4 PFMSAV1 VN1                                  29370021
                                    5111 *                   SORT 'END'                                          29376021
                                    5112 *                                                                       29382021
                                    5113 *  THEN IF OUTPUT PROCEDURE                                             29388021
                                    5114 *                   MOVE-4 VN2 PFMSAV2                                  29394021
                                    5115 *                   MOVE-4 GN2 VN2                                      29400021
                                    5116 *                   GO  SN2                                             29406021
                                    5117 *               GN2 MOVE-4 PFMSAV2 VN2                                  29412021
                                    5118 *                   SORT 'END                                           29418021
                                    5119 *                                                                       29424021
                                    5120 *      FOR EXAMPLE                                                      29430021
                                    5121 *      SOURCE - SORT SFIL ASCENDING A B DESCENDING C D INPUT            29436021
                                    5122 *                 PROCEDURE SN1 GIVING OUTFIL                           29442021
                                    5123 *      OUTPUT - SORT 'FIRST' SFIL ASCENDING A                           29448021
                                    5124 *               SORT B DESCENDING C D                                   29454021
                                    5125 *               SORT ZERO GIVING 'END'                                  29460021
                                    5126 *               MOVE-4 VN1 PFMSAV                                       29466021
                                    5127 *               MOVE-4 GN1 VN1                                          29472021
                                    5128 *           GN1 MOVE-4 PFMSAV VN1                                       29478021
                                    5129 *               SORT 'END'                                              29484021
                                    5130 *                                                                       29490021
                                    5131 *                                                                       29496021
                                    5132 *** SUBROUTINES CALLED                                                  29502021
1PH40     IKFCBL40                                                                                              PAGE  109
-  LOC  OBJECT CODE    ADDR1 ADDR2  STMT   SOURCE STATEMENT                                       ASM 0201 11.03 02/14/15
0                                   5133 *      GETNXT,STOVRB,STO5IN,STO545,STODUM,ISSORK,CALCLG,GENSTR,ERRO     29508021
                                    5134 *                                                                       29514021
                                    5135 *                                                                       29520021
                                    5136 *** ERROR PROCESSING                                                    29526021
                                    5137 *      IF FIRST OPERAND NOT SORT-FILE NAME SKIP STATEMENT               29532021
                                    5138 *      IF FIRST OPERAND AFTER 'ASCENDING' OR 'DESCENDING' (OR AFTER     29538021
                                    5139 *       SORT-FILE NAME IF THESE ARE MISSING) IS NOT A DATA-NAME, SK     29544021
                                    5140 *       STATEMENT                                                       29550021
                                    5141 *      IF ANY DATA-NAME IS NOT A SORT KEY SKIP STATEMENT                29556021
                                    5142 *      SKIP ALL SORT KEYS AFTER TOTAL BYTE-COUNT EXCEEDS 255            29562021
                                    5143 *      SKIP ALL SORT KEYS AFTER 12TH                                    29568021
                                    5144 *      ASSUME 'ASCENDING' IF NEITHER 'ASCENDING' NOR 'DESCENDING' G     29574021
                                    5145 *      ASSUME 'PROCEDURE' IF MISSING AFTER 'INPUT' OR 'OUTPUT'          29580021
                                    5146 *      ASSUME 'USING' IF 1ST CLAUSE MISSING                             29586021
                                    5147 *      ASSUME 'GIVING' IF 2ND CLAUSE MISSING                            29592021
                                    5148 *      PROCESS NORMALLY IF LEGAL FILE-NAME DOES NOT FOLLOW 'USING'/     29598021
                                    5149 *       'GIVING'                                                        29604021
                                    5150 *                                                                       29610021
                                    5151 *                                                                       29616021
                                    5152 *** NOTES                                                               29622021
                                    5153 *      PERFORM ANALYZER IS CALLED TO CREATE STRINGS FOR INPUT- AND      29628021
                                    5154 *       OUTPUT-PROCEDURE. SORTSW TELLS PERFORM TO RETURN HERE AND       29634021
                                    5155 *       TO STORE EVERYTHING WITHOUT GENERATING. PHASE 1 TREATS THE      29640021
                                    5156 *       SECTION-NAMES IN THE SORT STATEMENT AS IT DOES THE PN'S IN      29646021
                                    5157 *       PERFORM STATEMENTS, I.E., TURNS ON THE PERFORM BIT IN THEIR     29652021
                                    5158 *       ATTRIBUTES                                                      29658021
                                    5159 *      SO12SW IN SORT ANALYZER HAS 2 FUNCTIONS. INITIALIZED OFF, IT     29664021
                                    5160 *       IS TURNED ON WHEN THE NUMBER OF SORT KEYS EXCEEDS 12 OR THE     29670021
                                    5161 *       TOTAL-BYTE COUNT EXCEEDS 255 TO INHIBIT STORING FURTHER SOR     29676021
                                    5162 *       KEYS. SET OFF AFTER ALL SORT KEYS ARE PROCESSED, IT IS AGAI     29682021
                                    5163 *       TURNED ON WHEN THE OUTPUT/GIVING CLAUSE IS FOUND OR ASSUMED     29688021
                                    5164 *       AND TELLS THE ANALYZER WHICH OF THE DUMMY 'ZEROES' TO OVERL     29694021
                                    5165 *       AND WHEN THE STATEMENT IS COMPLETED.                            29700021
                                    5166 *      RW1 IS USED TO KEEP COUNT OF THE SORT KEYS.                      29706021
                                    5167 *     NOTE... THIS SCAN MAKES USE OF THE STRING SEGMENTATION            29712021
                                    5168 *          ROUTINES STO5XY, WHERE XY = IN, 45, OR NK.                   29718021
                                    5169 *                                                                       29724021
                                    5170 *******************************************************************     29730021
-
                             02A88  5172        USING *,RVRB                                                     29742021
                             02A88  5173 SORT   EQU   *                                                          29748021
 002A88 94FE BF8E      0983E        5174        NI    UGSW,MSWOFF       INITIALIZE                               29754021
 002A8C 94FE BFAB      0985B        5175        NI    SKIPSW,MSWOFF         INITIALIZE SKIPSW OFF                29760021
 002A90 D700 BF8F BF8F 0983F 0983F  5176          XC    SOROPT(LX1),SOROPT                                       29766021
 002A96 94FE BF90      09840        5177       NI    OSW,MSWOFF                                                  29772021
 002A9A 9507 BF62      09812        5178        CLI     PGMBRK,MDECL       ARE WE IN DECLARATIVES                29778021
 002A9E 4770 F022      02AAA        5179        BC      NOTEQ,SOR0           NO - OK                             29784021
 002AA2 45E0 9BDA      07A32        5180        BAL     RCS,ERROR            YES - WARN                          29790021
 002AA6 4110 A1DA      07ED2        5181        LA      RW1,ELST49                                               29796021
                             02AAA  5182 SOR0   EQU     *                                                        29802021
 002AAA 9601 BE9C      0974C        5183        OI    STO5CT,MSWON          CONTIN-SEGMENTED STRING SW           29808021
 002AAE 45E0 813A      060F2        5184        BAL     RCS,STO5BG         STORE VERB AND 'FIRST'                29814021
 002AB2 45E0 808C      06044        5185            BAL   RCS,STO5IN        STORE BCD NAME                       29820021
1PH40     IKFCBL40                                                                                              PAGE  110
-  LOC  OBJECT CODE    ADDR1 ADDR2  STMT   SOURCE STATEMENT                                       ASM 0201 11.03 02/14/15
0002AB6 45E0 7566      0551E        5186        BAL   RCS,GETNXT            POINT RIN TO SORTFILE                29826021
 002ABA 94FE BFA8      09858        5187        NI    SO12SW,MSWOFF         RESET 12 SW                          29832021
 002ABE 94FE BF75      09825        5188        NI      PFNDOP,MSWOFF                                            29838021
 002AC2 9521 C000      0988B        5189        CLI   GOTTEN,MSFN           SORT FN...                           29844021
 002AC6 4770 F5FE      03086        5190        BC    NOTEQ,SOER01          NO, SFN REQUIRED, GET OUT            29850021
 002ACA 9700 BEC0      09770        5191          XI    BLNUM,XX00                                               29856021
 002ACE D100 BEC0 C002 09770 00002  5192          MVN   BLNUM(LX1),DX2(RIN)                                      29862021
 002AD4 9509 BEC0      09770        5193        CLI     BLNUM,MSDMAJ       IS MAJOR CODE SD                      29868021
 002AD8 4770 F5FE      03086        5194        BC      NOTEQ,SOER01         NO - ORDINARY FILE                  29874021
 002ADC 1B11                        5195        SR    RW1,RW1               N=0 IN RW1                           29880021
 002ADE 5010 BE38      096E8        5196        ST      RW1,SO256           INITIALIZE 256 BYTE TEST             29886021
 002AE2 45E0 808C      06044        5197        BAL   RCS,STO5IN            SFN TO STRING                        29892021
 002AE6 45E0 76EC      056A4        5198        BAL   RCS,GETALL            SAVE INPUT                           29898021
 002AEA 4120 B57C      08E2C        5199        LA    RW2,PLEFT                                                  29904021
 002AEE D200 BEC2 C004 09772 00004  5200          MVC   BLNUM+NX2(LX1),DX4(RIN) SAVE BASE LOCATOR FOR CHECKING K 29910021
 002AF4 45E0 7566      0551E        5201        BAL   RCS,GETNXT            SFREC                                29916021
 002AF8 45E0 81AC      06164        5202        BAL   RCS,RDUCOP            SEE IF VALID SORT-REC FOLLOWS        29922021
 002AFC 9601 BFAB      0985B        5203        OI    SKIPSW,MSWON          INVALID- SIGNAL FOR USE/GIVE         29928021
 002B00 45E0 76EC      056A4        5204        BAL   RCS,GETALL            SAVE                                 29934021
 002B04 4120 B5FA      08EAA        5205        LA    RW2,PRIGHT                                                 29940021
 002B08 45E0 7566      0551E        5206        BAL   RCS,GETNXT            GET ASCENDING,DECENDING OR DN        29946021
 002B0C 45E0 81AC      06164        5207        BAL     RCS,RDUCOP         IS IT DN                              29952021
 002B10 47F0 F090      02B18        5208          BC    UNCOND,*+NX8        NO                                   29958021
 002B14 47F0 F60A      03092        5209        BC      UNCOND,SOER02        YES - ASSUME 'ASCENDING'            29964021
 002B18 D501 C000 A52C 0988B 08224  5210          CLC   GOTTEN(LX2),ERSYMB    NO                                 29970021
 002B1E 4770 F0A2      02B2A        5211        BC      NOTEQ,SOR1          NOT ERROR                            29976021
 002B22 45E0 7566      0551E        5212        BAL     RCS,GETNXT          GET NEXT INPUT                       29982021
 002B26 47F0 F60A      03092        5213        BC      UNCOND,SOER02      ASSUME ERSYMB IS 'ASCENDING'          29988021
 002B2A D501 C000 A3FC 0988B 080F4  5214 SOR1     CLC   GOTTEN(LX2),CBON                                         29994021
 002B30 4770 F0B0      02B38        5215          BC    NOTEQ,*+NX8         NOT 'ON'                             30000021
 002B34 45E0 7566      0551E        5216        BAL     RCS,GETNXT         DISCARD 'ON'                          30006021
 002B38 4140 A4EC      081E4        5217        LA      RW4,CBASCD         DONT STORE SEQ TILL KEY FOUND         30012021
 002B3C D501 C000 A4EC 0988B 081E4  5218          CLC   GOTTEN(LX2),CBASCD  IS IT ASCENDING                      30018021
 002B42 4780 F0F0      02B78        5219        BC    EQ,SOR2                YES                                 30024021
 002B46 4140 A4F4      081EC        5220        LA      RW4,CBDSCD                                               30030021
 002B4A D501 C000 A4F4 0988B 081EC  5221          CLC   GOTTEN(LX2),CBDSCD   IS IT 'DESCENDING'...               30036021
 002B50 4780 F0F0      02B78        5222        BC    EQ,SOR2                YES                                 30042021
 002B54 1211                        5223        LTR     RW1,RW1            WAS ANY KEY STORED                    30048021
 002B56 4770 F194      02C1C        5224        BC    NOTZER,SOR3           MAYBE END OF KEYS                    30054021
 002B5A D501 C000 A356 0988B 0804E  5225          CLC   GOTTEN(LX2),CBKEY    1ST KEY-MAYBE ASC/DESC OMITTED      30060021
 002B60 4770 F0E0      02B68        5226        BNE    SOR1A                NOT 'KEY'- SEE IF DATANAME           30066021
 002B64 45E0 7566      0551E        5227        BAL   RCS,GETNXT          DISCARD OPTIONAL WORD                  30072021
 002B68 9530 C000      0988B        5228 SOR1A  CLI   GOTTEN,MDN          IS IT PERHAPS 1ST KEY                  30078021
 002B6C 4780 F60A      03092        5229        BE    SOER02         YES-PERHAPS                                 30084021
 002B70 47F0 F61A      030A2        5230        B     SOER03               NO- GIVE UP                           30090021
 002B74 47F0 F194      02C1C        5231        BC    UNCOND,SOR3                             SEEK USE/I/P       30096021
                             02B78  5232 SOR2   EQU     *                                                        30102021
 002B78 45E0 7566      0551E        5233        BAL   RCS,GETNXT            GET NEXT INPUT                       30108021
 002B7C D501 C000 A356 0988B 0804E  5234 SOR4X    CLC   GOTTEN(LX2),CBKEY                                        30114021
 002B82 4770 F102      02B8A        5235          BC    NOTEQ,*+NX8         NOT 'KEY'                            30120021
 002B86 45E0 7566      0551E        5236        BAL     RCS,GETNXT         DISCARD 'KEY'                         30126021
 002B8A 1804                        5237          LR    RA0,RW4                                                  30132021
 002B8C 94FE BF75      09825        5238        NI      PFNDOP,MSWOFF      SW SAYS MUST NOW FIND KEY             30138021
                             02B90  5239 SOR4   EQU     *                                                        30144021
 002B90 45E0 9172      06FCA        5240        BAL     RCS,ISSORK          DETERMINE IF DN IS AN OPERAND        30150021
1PH40     IKFCBL40                                                                                              PAGE  111
-  LOC  OBJECT CODE    ADDR1 ADDR2  STMT   SOURCE STATEMENT                                       ASM 0201 11.03 02/14/15
0                                   5241 *                             DEFINED UNDER SD ENTRY FOR SFN FOUND      30156021
                                    5242 *                             AFTER VERB SORT.                          30162021
 002B94 47F0 F188      02C10        5243        BC      UNCOND,SOR5          NO - PERHAPS END OF KEYS            30168021
 002B98 9504 BE65      09715        5244          CLI   MODE+NX1,MGRPV      IS IT VARIABLE LENGTH                30174021
 002B9C 4780 F65E      030E6        5245        BC      EQ,SOER10             YES - ERROR                        30180021
 002BA0 45E0 984C      076A4        5246        BAL     RCS,CALCLG          FIND LENGTH OF THIS DN               30186021
 002BA4 47F0 F65E      030E6        5247        BC      UNCOND,SOER10       ILLEGAL MINOR                        30192021
 002BA8 5820 BE38      096E8        5248 SOR4W  L       RW2,SO256                                                30198021
 002BAC 5A20 BE3C      096EC        5249        A       RW2,LENGTH                                               30204021
 002BB0 4920 A5B8      082B0        5250        CH      RW2,N256           WILL THIS KEY MAKE MORE THAN 256      30210021
 002BB4 4720 F642      030CA        5251         BC     HI,SOER08           YES, DON'T USE                       30216021
 002BB8 4910 A5AC      082A4        5252        CH      RW1,NDEC12         ARE THERE ALREADY 12                  30222021
 002BBC 4780 F642      030CA        5253        BC      EQ,SOER08            YES - DONT USE                      30228021
 002BC0 D200 BEC0 BEC2 09770 09772  5254          MVC   BLNUM(LX1),BLNUM+NX2                                     30234021
 002BC6 D700 BEC0 C006 09770 00006  5255          XC    BLNUM(LX1),DX6(RIN)                                      30240021
 002BCC 4770 F67A      03102        5256        BC      NOTZER,SOER12        NO - ERROR                          30246021
 002BD0 9140 C004      00004        5257          TM    DX4(RIN),XX40       IS IT SBL                            30252021
 002BD4 4710 F67A      03102        5258        BC      ONES,SOER12          YES - ERROR                         30258021
 002BD8 D201 BEC0 C004 09770 00004  5259          MVC   BLNUM(LX2),DX4(RIN)                                      30264021
 002BDE 940F BEC0      09770        5260          NI    BLNUM,XX0F                                               30270021
 002BE2 D501 BEC0 A5BC 09770 082B4  5261          CLC   BLNUM(LX2),N4092    IS DISPL. FROM 01 OVER 4092          30276021
 002BE8 4720 F67A      03102        5262        BC      HI,SOER12            YES - ERROR                         30282021
 002BEC 4111 0001      00001        5263          LA    RW1,DX1(RW1)        UPDATE KEY COUNT                     30288021
 002BF0 5020 BE38      096E8        5264        ST      RW2,SO256               AND LENGTH COUNT                 30294021
 002BF4 9101 BF75      09825        5265        TM      PFNDOP,MSWON       IS THIS 1ST KEY AFTER ASC/DESC        30300021
 002BF8 4710 F17C      02C04        5266        BC      ONES,SOR4Y           NO                                  30306021
 002BFC 9601 BF75      09825        5267        OI      PFNDOP,MSWON         YES                                 30312021
 002C00 45E0 8098      06050        5268        BAL     RCS,STO545         STORE ASC/DESC                        30318021
 002C04 45E0 808C      06044        5269 SOR4Y  BAL     RCS,STO5IN         STORE KEY                             30324021
 002C08 45E0 7566      0551E        5270        BAL     RCS,GETNXT          GET NEXT INPUT                       30330021
 002C0C 47F0 F108      02B90        5271        BC      UNCOND,SOR4        RETURN FOR ANOTHER                    30336021
 002C10 9120 C000      0988B        5272 SOR5   TM      GOTTEN,MOP         IS THIS OPERAND (INCL. ERROR SYMB     30342021
 002C14 4780 F0A2      02B2A        5273        BC      ZERO,SOR1           NO - SEEK ASC/DESC AGAIN             30348021
 002C18 47F0 F65E      030E6        5274        BC      UNCOND,SOER10       YES - DISCARD                        30354021
 002C1C 94FE BFA8      09858        5275 SOR3   NI    SO12SW,MSWOFF          REUSE SO12SW                        30360021
 002C20 D201 BF5A B04C 0980A 088FC  5276          MVC   SORPX1(LX2),DSPSTR  SAVE ITS DISPL.                      30366021
 002C26 45E0 8154      0610C        5277        BAL   RCS,STODUM            I/P DUMMY                            30372021
 002C2A D201 BF5C B04C 0980C 088FC  5278          MVC   SORPX2(LX2),DSPSTR  SAVE ITS DISPL.                      30378021
 002C30 45E0 8154      0610C        5279        BAL   RCS,STODUM            O/P DUMMY                            30384021
 002C34 4140 A4F6      081EE        5280        LA    RW4,CBEND             SIMULATE STRING END                  30390021
 002C38 45E0 8098      06050        5281        BAL   RCS,STO545            SET J INTO STRING                    30396021
 002C3C 5810 B048      088F8        5282        L     RW1,ASTRNG                                                 30402021
 002C40 5811 0000      00000        5283          L     RW1,DX0(RW1)                                             30408021
 002C44 5811 0000      00000        5284          L     RW1,DX0(RW1)                                             30414021
 002C48 4A10 BE9A      0974A        5285        AH    RW1,STO5VE                                                 30420021
 002C4C D200 1002 BE99 00002 09749  5286          MVC   DX2(LX1,RW1),STO5J+NX1                                   30426021
 002C52 1BEE                        5287        SR    RCS,RCS                                                    30432021
 002C54 40E0 BE98      09748        5288        STH   RCS,STO5J             ZERO OUT J                           30438021
 002C58 D501 C000 A51E 0988B 08216  5289          CLC   GOTTEN(LX2),CBUSIN    IS IT USING...                     30444021
 002C5E 4780 F232      02CBA        5290        BC    EQ,SOR6A               YES                                 30450021
 002C62 D501 C000 A4FA 0988B 081F2  5291          CLC   GOTTEN(LX2),CBINPT    IS IT INPUT...                     30456021
 002C68 4770 F622      030AA        5292        BC    NOTEQ,SOER04            NO, STRUCT ERR, GET OUT            30462021
 002C6C 47F0 F1F0      02C78        5293        BC    UNCOND,SOR7A          1ST TIME THRU                        30468021
 002C70 9601 BFA8      09858        5294 SOR7   OI    SO12SW,MSWON          FLAG 2ND TIME THRU                   30474021
 002C74 9601 BF90      09840        5295        OI    OSW,MSWON               OUTPUT PROC                        30480021
1PH40     IKFCBL40                                                                                              PAGE  112
-  LOC  OBJECT CODE    ADDR1 ADDR2  STMT   SOURCE STATEMENT                                       ASM 0201 11.03 02/14/15
0                            02C78  5296 SOR7A  EQU   *                                                          30486021
 002C78 45E0 7566      0551E        5297        BAL   RCS,GETNXT            GET NEXT INPUT                       30492021
 002C7C D501 C000 A506 0988B 081FE  5298          CLC   GOTTEN(LX2),CBPROC   IS IT PROCEDURE...                  30498021
 002C82 4770 F632      030BA        5299        BC      NOTEQ,SOER06         NO, WARN AND ASSUME PROCEDURE       30504021
 002C86 45E0 7566      0551E        5300        BAL     RCS,GETNXT          DISCARD 'PROCEDURE'                  30510021
 002C8A 9601 BFA0      09850        5301 SOR8   OI    SORTSW,MSWON                                               30516021
 002C8E 94FE BFC2      09872        5302        NI    STO5SW,MSWOFF                                              30522021
 002C92 58F0 A3CC      080C4        5303        L     RVRB,APRFRM                                                30528021
 002C96 07FF                        5304        BCR   UNCOND,RVRB       *** GO TO PERFORM ANALYZER ***           30534021
 002C98 94FE BFA0      09850        5305 SORBAK NI    SORTSW,MSWOFF     *** RETURN FROM PERFORM    ***           30540021
 002C9C 9201 BE4A      096FA        5306          MVI   VERB+NX2,XX01                                            30546021
 002CA0 45E0 8166      0611E        5307        BAL   RCS,STOVRB            STORE PERFORM VERB IN STRING         30552021
 002CA4 1BEE                        5308        SR    RCS,RCS                                                    30558021
 002CA6 40E0 BE98      09748        5309        STH   RCS,STO5J                                                  30564021
 002CAA 4140 A4F6      081EE        5310        LA    RW4,CBEND                                                  30570021
 002CAE 45E0 8098      06050        5311        BAL   RCS,STO545            STORE PN                             30576021
 002CB2 47F0 F2CC      02D54        5312        BC    UNCOND,SOR10          IS THIS END                          30582021
 002CB6 9601 BFA8      09858        5313 SOR6   OI    SO12SW,MSWON                                               30588021
 002CBA 45E0 7566      0551E        5314 SOR6A  BAL   RCS,GETNXT            GET NEXT INPUT                       30594021
 002CBE 48E0 BF5A      0980A        5315        LH      RCS,SORPX1         PNTR TO DUMMY 1                       30600021
 002CC2 4140 A51E      08216        5316        LA    RW4,CBUSIN                                                 30606021
 002CC6 9101 BFA8      09858        5317        TM    SO12SW,MSWON                                               30612021
 002CCA 4710 F24E      02CD6        5318        BC    ONES,SORT6            SORT 12-COUNT SWITCH ON              30618021
 002CCE 9601 BF8F      0983F        5319        OI    SOROPT,USOPT                                               30624021
                                    5320 *                                                                       30630021
 002CD2 47F0 F25A      02CE2        5321        B     SOR6B                 DISPL OF TEXT WORD                   30636021
 002CD6 48E0 BF5C      0980C        5322 SORT6  LH    RCS,SORPX2           DISPL OF DUMMY-2                      30642021
 002CDA 4140 A34C      08044        5323        LA    RW4,CBGIVE                                                 30648021
 002CDE 9610 BF8F      0983F        5324        OI    SOROPT,GVOPT                                               30654021
                             02CE2  5325 SOR6B  EQU     *                  DISP OF TEXT WORD                     30660021
 002CE2 9521 C000      0988B        5326        CLI     GOTTEN,MFILE       FN...                                 30666021
 002CE6 4770 F652      030DA        5327        BC    NOTEQ,SOER09          NO                                   30672021
 002CEA 9107 C002      00002        5328          TM    DX2(RIN),XX07       IS IT FD                             30678021
 002CEE 4770 F652      030DA        5329        BC    NOTZER,SOER09          NOT FD FN, DISCARD                  30684021
 002CF2 91F0 C006      00006        5330          TM    DX6(RIN),MQSAM       IS IT A QSAM FILE                   30690021
 002CF6 4770 F652      030DA        5331        BC    NOTZER,SOER09         NO- STOP PROCESSING                  30696021
 002CFA 5820 B048      088F8        5332        L       RW2,ASTRNG         CHANGE DISPL IN RCS TO PNTR           30702021
 002CFE 5822 0000      00000        5333          L     RW2,DX0(RW2)                                             30708021
 002D02 5822 0000      00000        5334          L     RW2,DX0(RW2)                                             30714021
 002D06 1AE2                        5335        AR    RCS,RW2                                                    30720021
 002D08 9584 E000      00000        5336          CLI   DX0(RCS),XX84       DID VERB PRECEDE DUMMY               30726021
 002D0C 4770 F28C      02D14        5337          BC    NOTEQ,*+NX8         NO - OK                              30732021
 002D10 41EE 0004      00004        5338          LA    RCS,DX4(RCS)        YES - POINT TO NEXT ELEMENT (DUMM    30738021
 002D14 D201 E000 4000 00000 00000  5339          MVC   DX0(LX2,RCS),DX0(RW4) OVERWRITE ANLIT WITH USING, GIVI   30744021
 002D1A 9101 BFA8      09858        5340        TM    SO12SW,MSWON    GIVING                                     30750021
 002D1E 4710 F2CC      02D54        5341        BC    ONES,SOR10          AVOID OVERLAYING USE DATA              30756021
 002D22 45E0 76EC      056A4        5342        BAL   RCS,GETALL            SAVE IT                              30762021
 002D26 4120 BBEC      0949C        5343        LA    RW2,SAVESTOR                                               30768021
 002D2A 45E0 76EC      056A4        5344        BAL   RCS,GETALL         SAVE IT AGAIN                           30774021
 002D2E 4120 BDD6      09686        5345        LA    RW2,SVF1           TO USE AS IT IS                         30780021
 002D32 45E0 7566      0551E        5346        BAL   RCS,GETNXT            FN1REC                               30786021
 002D36 45E0 81AC      06164        5347        BAL   RCS,RDUCOP          SEE IF VALID D REC FOUND               30792021
 002D3A 47F0 F68A      03112        5348        B     SOER15                 NO- GIVE UP                         30798021
 002D3E 45E0 76EC      056A4        5349        BAL   RCS,GETALL            SAVE                                 30804021
 002D42 4120 BB70      09420        5350        LA    RW2,SAVE1OP                                                30810021
1PH40     IKFCBL40                                                                                              PAGE  113
-  LOC  OBJECT CODE    ADDR1 ADDR2  STMT   SOURCE STATEMENT                                       ASM 0201 11.03 02/14/15
0002D46 45E0 7566      0551E        5351        BAL   RCS,GETNXT            GNS                                  30816021
 002D4A D209 BC87 C002 09537 00002  5352          MVC   SVGNS(LX10),DX2(RIN)                                     30822021
 002D50 45E0 7566      0551E        5353        BAL   RCS,GETNXT         PT TO GIVE/OUTPUT                       30828021
                             02D54  5354 SOR10  EQU   *                                                          30834021
 002D54 9101 BFA8      09858        5355          TM    SO12SW,MSWON    ALL  FINISHED                            30840021
 002D58 4710 F2F8      02D80        5356          BC    ONES,SOR13      YES                                      30846021
 002D5C D501 C000 A34C 0988B 08044  5357          CLC   GOTTEN(LX2),CBGIVE   IS IT GIVING...                     30852021
 002D62 4780 F22E      02CB6        5358        BC    EQ,SOR6                YES, LOOP BACK TO CHECK FN          30858021
 002D66 D501 C000 A504 0988B 081FC  5359          CLC   GOTTEN(LX2),CBOUTP   IS IT OUTPUT...                     30864021
 002D6C 4770 F2EC      02D74        5360        BC    NOTEQ,SOR12           NO, CHECK IF END                     30870021
 002D70 47F0 F2F8      02D80        5361        B     SOR13          CLEAR OUT SORT STRING                       30876021
 002D74 45E0 8C32      06BEA        5362 SOR12  BAL   RCS,ISEND             IS IT END                            30882021
 002D78 47F0 F62A      030B2        5363        BC      UNCOND,SOER05        NO                                  30888021
 002D7C 47F0 F5FA      03082        5364        BC      UNCOND,SOR15X        YES - GIVE UP                       30894021
 002D80 9101 BFAB      0985B        5365 SOR13  TM    SKIPSW,MSWON          SHOULD STRING BE GENERATED           30900021
 002D84 4780 F308      02D90        5366        BZ    SOT14                 NO REASON NOT TO                     30906021
 002D88 9111 BF8F      0983F        5367          TM    SOROPT,XX11          IS THERE A USING OR GIVING          30912021
 002D8C 4770 F69C      03124        5368        BC    NOTZER,SOER16         YES- CANNOT PROCESS WITHOUT          30918021
                                    5369 *                                  B  VALID SORT-FILE-RECORD.ERROR      30924021
 002D90                             5370 SOT14  DS    0H                   GENERATE SORT STRING                  30930021
 002D90 45E0 7766      0571E        5371        BAL   RCS,GENSTR            GENERATE STRING                      30936021
 002D94 9101 BF90      09840        5372        TM    OSW,MSWON           HAS O/P BEEN GENERATED                 30942021
 002D98 4710 7000      04FB8        5373        BO    IDENT               OK- FINISHED                           30948021
                                    5374 *   O/P HAS NOT BEEN GENERATED                                          30954021
 002D9C 9111 BF8F      0983F        5375          TM    SOROPT,XX11        USE AND GIVE OPTIONS                  30960021
 002DA0 4780 F1E8      02C70        5376        BC    ZERO,SOR7       NEITHER- GENR O/P                          30966021
 002DA4 9200 BFC2      09872        5377        MVI   STO5SW,MZERO          KEEP STO5SW OFF FOR DUMPROC          30972021
 002DA8 4710 F32C      02DB4        5378        BC    ONES,SOT16            BOTH                                 30978021
 002DAC 9110 BF8F      0983F        5379          TM    SOROPT,XX10         IS IT GIVING                         30984021
 002DB0 4710 F33C      02DC4        5380        BO    SOT17                 SKIP USE CODE                        30990021
                             02DB4  5381 SOT16  EQU   *                                                          30996021
 002DB4 45E0 F376      02DFE        5382        BAL   RCS,DMPROC1       BRANCH TO USE/CODE                       31002021
 002DB8 9110 BF8F      0983F        5383          TM    SOROPT,XX10       IS THERE A GIVING                      31008021
 002DBC 47E0 F1E8      02C70        5384        BC    NOTONE,SOR7       GENR O/P                                 31014021
 002DC0 94FE BFC2      09872        5385        NI    STO5SW,MSWOFF         STO5SW MUST BE OFF FOR THIS          31020021
 002DC4 45E0 76EC      056A4        5386 SOT17  BAL   RCS,GETALL            SAVE IT                              31026021
 002DC8 4120 BBEC      0949C        5387        LA    RW2,SAVESTOR                                               31032021
 002DCC 45E0 76EC      056A4        5388        BAL   RCS,GETALL        SAVE IT AGAIN TO USE DIFFERNETLY         31038021
 002DD0 4120 BDD6      09686        5389        LA    RW2,SVF1                                                   31044021
 002DD4 45E0 7566      0551E        5390        BAL   RCS,GETNXT            FN2REC                               31050021
 002DD8 45E0 81AC      06164        5391        BAL   RCS,RDUCOP          SEE IF VALID D REC FOUND               31056021
 002DDC 47F0 F68A      03112        5392        B     SOER15                 NO- GIVE UP                         31062021
 002DE0 45E0 76EC      056A4        5393        BAL   RCS,GETALL            SAVE                                 31068021
 002DE4 4120 BB70      09420        5394        LA    RW2,SAVE1OP                                                31074021
 002DE8 45E0 7566      0551E        5395        BAL   RCS,GETNXT            GNS                                  31080021
 002DEC D209 BC87 C002 09537 00002  5396          MVC   SVGNS(LX10),DX2(RIN)                                     31086021
 002DF2 45E0 7566      0551E        5397        BAL   RCS,GETNXT            GET NEXT ENTITY                      31092021
 002DF6 45E0 F536      02FBE        5398        BAL   RCS,DMPROC2           OUTPUT PROC-DUMMY                    31098021
 002DFA 47F0 7000      04FB8        5399        B     IDENT                 EXIT                                 31104021
 002DFE 50E0 B454      08D04        5400 DMPROC1 ST    RCS,DMSRSV                                                31110021
 002E02 9400 BBEE      0949E        5401          NI    SAVESTOR+NX2,XX00    ZERO OUT  3RD  BYTE                 31116021
 002E06 9610 BBEE      0949E        5402          OI    SAVESTOR+NX2,MRERD   INPUT-REREAD OPTION                 31122021
 002E0A D201 BC79 BC7B 09529 0952B  5403 OPOP     MVC   DUMVB+NX1(LX2),OPEVB  MOVE  OPEN  VERB TO DUMVB          31128021
 002E10 4120 BBEC      0949C        5404        LA    RW2,SAVESTOR                                               31134021
 002E14 1B11                        5405        SR    RW1,RW1               CLEAR RW1 FOR IC                     31140021
1PH40     IKFCBL40                                                                                              PAGE  114
-  LOC  OBJECT CODE    ADDR1 ADDR2  STMT   SOURCE STATEMENT                                       ASM 0201 11.03 02/14/15
0002E16 4310 BBED      0949D        5406          IC    RW1,SAVESTOR+NX1         GET CT  BYTES FOLLOWING         31146021
 002E1A 1A21                        5407        AR    RW2,RW1         RW2 HAS ADDRESS OF DICT PTR                31152021
 002E1C 0620                        5408        BCTR    RW2,RA0             SUBTRACT ONE FROM RW2                31158021
 002E1E D202 200A 2000 0000A 00000  5409          MVC   DX10(LX3,RW2),DX0(RW2) MOVE  DICT  PTR DOWN 10 BYTES     31164021
 002E24 D209 2000 BC87 00000 09537  5410          MVC   DX0(LX10,RW2),SVGNS   TO ATTACH GNS                      31170021
 002E2A 4320 BBED      0949D        5411          IC    RW2,SAVESTOR+NX1     INCREMENT  CT FIELD                 31176021
 002E2E 4122 000A      0000A        5412          LA    RW2,DX10(RW2)        TO REFLECT  GNS                     31182021
 002E32 4220 BBED      0949D        5413          STC   RW2,SAVESTOR+NX1                                         31188021
                                    5414 *                                                                       31194021
                                    5415 * GNS  ATTACHED- CREATE  OPEN STRING                                    31200021
                                    5416 *                                                                       31206021
 002E36 4120 0002      00002        5417          LA    RW2,DX2                                                  31212021
 002E3A 45E0 8068      06020        5418 STOPEN BAL   RCS,STLOOP            STORE 4 ELEMENTS                     31218021
 002E3E 0004                        5419        DC    XL2'4'                STORE 4                              31224021
 002E40 4140 BC78      09528        5420        LA    RW4,DUMVB             OPEN                                 31230021
 002E44 4140 A34A      08042        5421        LA    RW4,CBFRST            FIRST                                31236021
 002E48 4140 BBEC      0949C        5422        LA    RW4,SAVESTOR          FN WITH GNS                          31242021
 002E4C 4140 A4F6      081EE        5423        LA    RW4,CBEND             END                                  31248021
 002E50 4620 F3B2      02E3A        5424        BCT   RW2,STOPEN            MUST  BE  GENERATED  TWICE           31254021
 002E54 45E0 7766      0571E        5425        BAL   RCS,GENSTR            GENERATE STRING                      31260021
 002E58 45E0 9A72      078CA        5426        BAL   RCS,PUPLGN            GET NEW GN NUMBER                    31266021
 002E5C D201 BC92 BE1C 09542 096CC  5427          MVC   GNSV1+NX1(LX2),NXTLGN SAVE  TO ISSUE LATER AS RGN        31272021
 002E62 D201 BDFF BE1C 096AF 096CC  5428          MVC   LGN+NX1(LX2),NXTLGN                                      31278021
 002E68 45E0 7734      056EC        5429        BAL   RCS,GENDAT            GENERATE LGN                         31284021
 002E6C 4120 BDFE      096AE        5430        LA    RW2,LGN               GENERATE  LGN1                       31290021
 002E70 45E0 7F5C      05F14        5431        BAL   RCS,PZSTRT            REINIT. TABLES                       31296021
 002E74 4110 B048      088F8        5432        LA    RW1,ASTRNG                                                 31302021
                                    5433 *                                                                       31308021
                                    5434 * SEE IF USING OR GIVING CALLED  OPEN                                   31314021
                                    5435 *                                                                       31320021
 002E78 9101 BF8E      0983E        5436          TM    UGSW,XX01                                                31326021
 002E7C 4710 F54A      02FD2        5437        BO    DMRTN                 USING/GIVING CALLED OPEN             31332021
                                    5438 *  PROCESS DUMMY READ                                                   31338021
 002E80 D201 BC79 BC7D 09529 0952D  5439          MVC   DUMVB+NX1(LX2),DUMRD  PUT READ VERB                      31344021
 002E86 4140 BC78      09528        5440        LA    RW4,DUMVB             IN  STRING                           31350021
 002E8A 45E0 8000      05FB8        5441        BAL   RCS,STOR45            STORE READ VERB IN STRING            31356021
 002E8E 4140 BDD6      09686        5442        LA    RW4,SVF1             STORE FN WITHOUT GNS ATTACHED         31362021
 002E92 45E0 8000      05FB8        5443        BAL   RCS,STOR45            STORE FN                             31368021
 002E96 45E0 9A72      078CA        5444        BAL   RCS,PUPLGN            GET NEW GN NUMBER                    31374021
 002E9A D201 BE02 BE1C 096B2 096CC  5445          MVC   RGN+NX1(LX2),NXTLGN                                      31380021
 002EA0 D201 BC95 BE1C 09545 096CC  5446          MVC   GNSV2+NX1(LX2),NXTLGN                                    31386021
 002EA6 4140 BE01      096B1        5447        LA    RW4,RGN               AT  END  GN                          31392021
 002EAA 45E0 8000      05FB8        5448        BAL   RCS,STOR45            STORE GN                             31398021
 002EAE 45E0 9A72      078CA        5449        BAL   RCS,PUPLGN            GET NEW GN NO.                       31404021
 002EB2 D201 BE02 BE1C 096B2 096CC  5450          MVC   RGN+NX1(LX2),NXTLGN                                      31410021
 002EB8 D201 BC98 BE1C 09548 096CC  5451          MVC   GNSV3+NX1(LX2),NXTLGN NEXT  SENT  GN                     31416021
 002EBE 4140 BE01      096B1        5452        LA    RW4,RGN               (POINTS  TO 'RELEASE'                31422021
 002EC2 45E0 8000      05FB8        5453        BAL   RCS,STOR45            STORE RGN                            31428021
 002EC6 4140 BB70      09420        5454        LA    RW4,SAVE1OP           STORE FN-1-REC                       31434021
 002ECA 45E0 8000      05FB8        5455        BAL   RCS,STOR45            STORE FN-1 REC                       31440021
 002ECE 4140 B5FA      08EAA        5456        LA    RW4,PRIGHT                                                 31446021
 002ED2 45E0 8000      05FB8        5457        BAL   RCS,STOR45            STORE   SORT-REC                     31452021
                                    5458 *  MOVE  FN-1-REC  TO  SORT-REC                                         31458021
 002ED6 45E0 8068      06020        5459        BAL   RCS,STLOOP            STORE 3 ELEMENTS                     31464021
 002EDA 0003                        5460        DC    XL2'3'                STORE  3 ELEMENTS                    31470021
1PH40     IKFCBL40                                                                                              PAGE  115
-  LOC  OBJECT CODE    ADDR1 ADDR2  STMT   SOURCE STATEMENT                                       ASM 0201 11.03 02/14/15
0002EDC 4140 A56A      08262        5461        LA    RW4,MOVEVB                                                 31476021
 002EE0 4140 BB70      09420        5462        LA    RW4,SAVE1OP                                                31482021
 002EE4 4140 B5FA      08EAA        5463        LA    RW4,PRIGHT                                                 31488021
 002EE8 45E0 7766      0571E        5464        BAL   RCS,GENSTR            GENERATES   READ AND MOVE            31494021
                                    5465 * READ MUST  BE GENERATED  AGAIN                                        31500021
 002EEC 5810 B048      088F8        5466        L     RW1,ASTRNG                                                 31506021
 002EF0 5811 0000      00000        5467          L     RW1,DX0(RW1)         TAMM                                31512021
 002EF4 5821 0000      00000        5468          L     RW2,DX0(RW1)         TABLE                               31518021
 002EF8 D501 2000 A56A 00000 08262  5469 GENTW    CLC   DX0(LX2,RW2),MOVEVB   IS IT MOVE                         31524021
 002EFE 4780 F48E      02F16        5470        BE    ENDRD                 YES-EXIT                             31530021
 002F02 45E0 7734      056EC        5471        BAL   RCS,GENDAT            NO-GENERATE                          31536021
 002F06 4122 0000      00000        5472          LA    RW2,DX0(RW2)                                             31542021
 002F0A 4A20 BE72      09722        5473        AH    RW2,BYTES                                                  31548021
 002F0E 4122 0001      00001        5474          LA    RW2,DX1(RW2)         INCREMENT  TO SKIP  TRAILING        31554021
 002F12 47F0 F470      02EF8        5475        B     GENTW                 BYTE  CT- PT  TO NEXT ELEMENT        31560021
 002F16 45E0 7734      056EC        5476 ENDRD  BAL   RCS,GENDAT            LGN  FOR  AT END                     31566021
 002F1A 4120 BC94      09544        5477        LA    RW2,GNSV2                                                  31572021
 002F1E 45E0 9A72      078CA        5478        BAL   RCS,PUPLGN            GENERATE  GO TO GN  WHERE GN         31578021
 002F22 D201 BC95 BE1C 09545 096CC  5479          MVC   GNSV2+NX1(LX2),NXTLGN POINTS  TO 'CLOSE'                 31584021
 002F28 D201 BE02 BE1C 096B2 096CC  5480          MVC   RGN+NX1(LX2),NXTLGN                                      31590021
 002F2E 45E0 79C8      05980        5481        BAL   RCS,GENGO             GENR. 'GO TO GN'                     31596021
 002F32 4110 BE01      096B1        5482        LA    RW1,RGN                                                    31602021
                                    5483 * ISSUE GN  FROM  GNSV3  AS NXTSNT LGN                                  31608021
 002F36 45E0 7734      056EC        5484        BAL   RCS,GENDAT            WRITE OUT NXTSNT GN                  31614021
 002F3A 4120 BC97      09547        5485        LA    RW2,GNSV3                                                  31620021
                                    5486 * RELEASE                                                               31626021
 002F3E D201 BC79 BC7F 09529 0952F  5487          MVC   DUMVB+NX1(LX2),RELDM  MOVE IN  RELEASE CODE              31632021
 002F44 45E0 7734      056EC        5488        BAL   RCS,GENDAT            WRITE DUMMY VERB                     31638021
 002F48 4120 BC78      09528        5489        LA    RW2,DUMVB                                                  31644021
 002F4C 45E0 7734      056EC        5490        BAL   RCS,GENDAT            WRITE SORT REC                       31650021
 002F50 4120 B5FA      08EAA        5491        LA    RW2,PRIGHT            SORT-REC                             31656021
                                    5492 * GENERATE A 'GO TO GN1' POINTING  TO  READ                             31662021
 002F54 45E0 79C8      05980        5493        BAL   RCS,GENGO             GENR. 'GO TO GN'                     31668021
 002F58 4110 BC91      09541        5494        LA    RW1,GNSV1                                                  31674021
                                    5495 * CLOSE                                                                 31680021
 002F5C 9400 BDD8      09688        5496 CLSST    NI    SVF1+NX2,XX00                                            31686021
 002F60 45E0 7734      056EC        5497        BAL   RCS,GENDAT            POINTS TO  CLOSE-GONE TO             31692021
 002F64 4120 BC94      09544        5498        LA    RW2,GNSV2             AT  END                              31698021
 002F68 9610 BDD8      09688        5499 CLSET    OI    SVF1+NX2,MRERD       DEFAULT OPTION                      31704021
 002F6C D201 BC79 BC81 09529 09531  5500          MVC   DUMVB+NX1(LX2),CLSDM  CLOSE  CODE  TO DUMMY              31710021
 002F72 4120 0002      00002        5501          LA    RW2,DX2                                                  31716021
 002F76 45E0 8068      06020        5502 STCLOS BAL   RCS,STLOOP            STORE 4 ELEMENTS                     31722021
 002F7A 0004                        5503        DC    XL2'4'                STORE 4                              31728021
 002F7C 4140 BC78      09528        5504        LA    RW4,DUMVB             CLOSE                                31734021
 002F80 4140 A34A      08042        5505        LA    RW4,CBFRST            FIRST                                31740021
 002F84 4140 BDD6      09686        5506        LA    RW4,SVF1              FD                                   31746021
 002F88 4140 A4F6      081EE        5507        LA    RW4,CBEND             END                                  31752021
 002F8C 4620 F4EE      02F76        5508        BCT   RW2,STCLOS            STORE TWICE                          31758021
 002F90 45E0 7766      0571E        5509        BAL   RCS,GENSTR            CLOSE  CODING EFFECTIVELY            31764021
                                    5510 *                                  GENERATED  TWICE                     31770021
 002F94 58C0 BC70      09520        5511        L     RIN,TRUPNT                                                 31776021
 002F98 45E0 7F5C      05F14        5512        BAL   RCS,PZSTRT            REINIT. STRING                       31782021
 002F9C 4110 B048      088F8        5513        LA    RW1,ASTRNG                                                 31788021
 002FA0 9201 BE4A      096FA        5514          MVI   VERB+NX2,XX01                                            31794021
 002FA4 45E0 7734      056EC        5515        BAL   RCS,GENDAT      GENR SORT 'E                               31800021
1PH40     IKFCBL40                                                                                              PAGE  116
-  LOC  OBJECT CODE    ADDR1 ADDR2  STMT   SOURCE STATEMENT                                       ASM 0201 11.03 02/14/15
0002FA8 4120 BE48      096F8        5516        LA    RW2,VERB                                                   31806021
 002FAC 45E0 7734      056EC        5517         BAL   RCS,GENDAT           GENR. END                            31812021
 002FB0 4120 A4F6      081EE        5518        LA    RW2,CBEND                                                  31818021
 002FB4 58E0 B454      08D04        5519        L    RCS,DMSRSV                                                  31824021
 002FB8 94FE BF8E      0983E        5520        NI    UGSW,MSWOFF                                                31830021
 002FBC 07FE                        5521         BR     RCS                 EXIT TO IDENT                        31836021
 002FBE 50E0 B454      08D04        5522 DMPROC2 ST    RCS,DMSRSV                                                31842021
                                    5523 * OUTPUT  PROC-DUMMY                                                    31848021
 002FC2 9400 BBEE      0949E        5524          NI    SAVESTOR+NX2,XX00                                        31854021
 002FC6 961F BBEE      0949E        5525          OI    SAVESTOR+NX2,XX1F    OUTPUT REREAD                       31860021
 002FCA 9601 BF8E      0983E        5526        OI    UGSW,MSWON                                                 31866021
 002FCE 47F0 F382      02E0A        5527        B     OPOP                  COMMON OPEN CODE                     31872021
                             02FD2  5528 DMRTN  EQU   *                     RETURN FROM OPEN-PROCESS             31878021
                                    5529 *                                  RETURN VERB                          31884021
 002FD2 D201 BC79 BC83 09529 09533  5530          MVC   DUMVB+NX1(LX2),DMRET                                     31890021
 002FD8 45E0 9A72      078CA        5531        BAL   RCS,PUPLGN            GN FOR NXTSNT                        31896021
 002FDC D201 BE02 BE1C 096B2 096CC  5532          MVC   RGN+NX1(LX2),NXTLGN                                      31902021
 002FE2 45E0 8068      06020        5533        BAL   RCS,STLOOP            STORE 7 ELEMENTS                     31908021
 002FE6 0007                        5534        DC    XL2'7'                STORE  7 ELEMENTS                    31914021
 002FE8 4140 BC78      09528        5535        LA    RW4,DUMVB             RETURN                               31920021
 002FEC 4140 B57C      08E2C        5536        LA    RW4,PLEFT             SFN                                  31926021
 002FF0 4140 A56A      08262        5537        LA    RW4,MOVEVB              MOVE                               31932021
 002FF4 4140 B5FA      08EAA        5538        LA    RW4,PRIGHT                                                 31938021
 002FF8 4140 BB70      09420        5539        LA    RW4,SAVE1OP                                                31944021
 002FFC 4140 BC78      09528        5540        LA    RW4,DUMVB            RETURN                                31950021
 003000 4140 BE01      096B1        5541        LA    RW4,RGN              GN NXTSNT                             31956021
 003004 45E0 7766      0571E        5542        BAL   RCS,GENSTR            GENERATE STRING                      31962021
 003008 D201 BC95 BE1C 09545 096CC  5543          MVC   GNSV2+NX1(LX2),NXTLGN SAVE NXTSNT GN TO ISSUE AS LGN     31968021
                                    5544 * GO TO  GN POINTING  TO  CLOSE                                         31974021
 00300E 45E0 9A72      078CA        5545        BAL   RCS,PUPLGN            GET NEW GN NO.                       31980021
 003012 D201 BE02 BE1C 096B2 096CC  5546          MVC   RGN+NX1(LX2),NXTLGN                                      31986021
 003018 45E0 79C8      05980        5547        BAL   RCS,GENGO             GENR. 'GO TO GN'                     31992021
 00301C 4110 BE01      096B1        5548        LA    RW1,RGN                                                    31998021
 003020 45E0 7734      056EC        5549        BAL   RCS,GENDAT            WRITE LGN                            32004021
 003024 4120 BC94      09544        5550        LA    RW2,GNSV2             LGN FOR WRITE                        32010021
 003028 D201 BC95 BE1C 09545 096CC  5551          MVC   GNSV2+NX1(LX2),NXTLGN SAVE RGN FOR CLOSE                 32016021
 00302E 45E0 7F5C      05F14        5552        BAL   RCS,PZSTRT            REINIT. STRING                       32022021
 003032 4110 B048      088F8        5553        LA    RW1,ASTRNG                                                 32028021
                                    5554 * WRITE                                                                 32034021
 003036 D201 BC79 BC85 09529 09535  5555          MVC   DUMVB+NX1(LX2),DMWR                                      32040021
 00303C 45E0 9A72      078CA        5556        BAL   RCS,PUPLGN            GET NEW GN NUMBER                    32046021
 003040 D201 BE02 BE1C 096B2 096CC  5557          MVC   RGN+NX1(LX2),NXTLGN                                      32052021
 003046 45E0 8068      06020        5558 STWRIT BAL   RCS,STLOOP            STORE 6 ELEMENTS                     32058021
 00304A 0006                        5559        DC    XL2'6'                STORE 6                              32064021
 00304C 4140 BC78      09528        5560        LA    RW4,DUMVB                                                  32070021
 003050 4140 BDD6      09686        5561        LA    RW4,SVF1            FN2                                    32076021
 003054 4140 BE01      096B1        5562        LA    RW4,RGN                                                    32082021
 003058 4140 BE01      096B1        5563        LA    RW4,RGN                                                    32088021
 00305C 4140 A4EA      081E2        5564        LA    RW4,CBZERO                                                 32094021
 003060 4140 BB70      09420        5565        LA    RW4,SAVE1OP           FN-2-REC                             32100021
 003064 45E0 7766      0571E        5566        BAL   RCS,GENSTR            GENR. STRING                         32106021
 003068 D201 BDFF BE1C 096AF 096CC  5567          MVC   LGN+NX1(LX2),NXTLGN                                      32112021
 00306E 45E0 7734      056EC        5568        BAL   RCS,GENDAT            NXTSNT GN(GO TO)                     32118021
 003072 4120 BDFE      096AE        5569        LA    RW2,LGN                                                    32124021
                                    5570 * GO  GN                                                                32130021
1PH40     IKFCBL40                                                                                              PAGE  117
-  LOC  OBJECT CODE    ADDR1 ADDR2  STMT   SOURCE STATEMENT                                       ASM 0201 11.03 02/14/15
0003076 45E0 79C8      05980        5571        BAL   RCS,GENGO             GO  TO  GN POINTING TO RETURN        32136021
 00307A 4110 BC91      09541        5572        LA    RW1,GNSV1                                                  32142021
 00307E 47F0 F4D4      02F5C        5573        BC    UNCOND,CLSST          CLOSE  COMMON CODE-GNDEF             32148021
                             03082  5574 SOR15X EQU     *                                                        32154021
 003082 47F0 7000      04FB8        5575        BC    UNCOND,IDENT    ******** LEAVE SORT SCAN ********          32160021
                             03086  5576 SOER01 EQU   *                     80                                   32166021
 003086 45E0 9BDA      07A32        5577        BAL   RCS,ERROR             ISSUE ERROR MESSAGE                  32172021
 00308A 4110 A16E      07E66        5578        LA      RW1,ELST36                                               32178021
 00308E 47F0 720C      051C4        5579        BC    UNCOND,IDERR          SOER01                               32184021
                             03092  5580 SOER02 EQU   *                     81                                   32190021
 003092 45E0 9BDA      07A32        5581        BAL   RCS,ERROR             ISSUE ERROR MESSAGE                  32196021
 003096 4110 A174      07E6C        5582        LA      RW1,ELST37                                               32202021
 00309A 4140 A4EC      081E4        5583        LA    RW4,CBASCD            SOER02                               32208021
 00309E 47F0 F0F4      02B7C        5584        BC      UNCOND,SOR4X        CHECK IF KEY FOLLOWS                 32214021
                             030A2  5585 SOER03 EQU   *                     82                                   32220021
 0030A2 4100 A67E      08376        5586        LA      RA0,BCDSRK                                               32226021
 0030A6 47F0 7204      051BC        5587        BC      UNCOND,IDGVUP       NOT KEY - GIVE UP                    32232021
                             030AA  5588 SOER04 EQU   *                     83                                   32238021
 0030AA 4100 A798      08490        5589        LA      RA0,BCDUSE                                               32244021
 0030AE 47F0 7204      051BC        5590        BC      UNCOND,IDGVUP       GIVE UP                              32250021
                             030B2  5591 SOER05 EQU   *                     84                                   32256021
 0030B2 4100 A7A9      084A1        5592        LA      RA0,BCDGIV                                               32262021
 0030B6 47F0 7204      051BC        5593        BC      UNCOND,IDGVUP       GIVE UP                              32268021
                             030BA  5594 SOER06 EQU   *                     85                                   32274021
 0030BA 4100 A506      081FE        5595        LA      RA0,CBPROC                                               32280021
 0030BE 45E0 9BDA      07A32        5596        BAL   RCS,ERROR             ERROR - ASSUME IT                    32286021
 0030C2 4110 A02A      07D22        5597        LA      RW1,ELST07                                               32292021
 0030C6 47F0 F202      02C8A        5598        BC    UNCOND,SOR8           SOER06                               32298021
                             030CA  5599 SOER08 EQU   *                     87                                   32304021
 0030CA 45E0 9BDA      07A32        5600        BAL   RCS,ERROR             SKIP SORT KEY-GT 256 C/12 KEYS       32310021
 0030CE 4110 A180      07E78        5601        LA      RW1,ELST39                                               32316021
 0030D2 45E0 7566      0551E        5602        BAL     RCS,GETNXT          GET NEXT ENTITY                      32322021
 0030D6 47F0 F108      02B90        5603        BC    UNCOND,SOR4           SOER08                               32328021
                             030DA  5604 SOER09 EQU   *                     88                                   32334021
 0030DA 45E0 9BDA      07A32        5605        BAL   RCS,ERROR             USING/GIVING MISSING                 32340021
 0030DE 4110 A186      07E7E        5606        LA      RW1,ELST3A                                               32346021
 0030E2 47F0 720C      051C4        5607        BC      UNCOND,IDERR        ERROR EXIT                           32352021
                             030E6  5608 SOER10 EQU   *                     89                                   32358021
 0030E6 45E0 9BDA      07A32        5609        BAL   RCS,ERROR             ILLEGAL OPERAND                      32364021
 0030EA 4110 A18C      07E84        5610        LA      RW1,ELST3B                                               32370021
 0030EE 45E0 8C32      06BEA        5611        BAL     RCS,ISEND           CHK IF VERB,LHN, OR BREAK            32376021
 0030F2 47F0 F672      030FA        5612          BC    UNCOND,*+NX8        NO                                   32382021
 0030F6 47F0 7000      04FB8        5613        BC      UNCOND,IDENT        YES, EXIT                            32388021
 0030FA 45E0 7566      0551E        5614        BAL     RCS,GETNXT         SEEK A BETTER KEY                     32394021
 0030FE 47F0 F108      02B90        5615        BC      UNCOND,SOR4         CHECK IF GOOD KEY                    32400021
 003102 45E0 9BDA      07A32        5616 SOER12 BAL     RCS,ERROR           KEY IN WRONG POSITION                32406021
 003106 4110 A258      07F50        5617        LA      RW1,ELST5A                                               32412021
 00310A 45E0 7566      0551E        5618        BAL     RCS,GETNXT          GET NEXT INPUT                       32418021
 00310E 47F0 F108      02B90        5619        BC      UNCOND,SOR4         CHECK IF GOOD KEY                    32424021
 003112 D27B B678 BBEC 08F28 0949C  5620 SOER15   MVC   PSTFLD(LX124),SAVESTOR MOVE SAVED FILE TO PSTFLD         32430021
 003118 45E0 9BDA      07A32        5621 SOER17 BAL   RCS,ERROR             RD MISSING OR ILLEGAL                32436021
 00311C 4110 A234      07F2C        5622        LA    RW1,ELST55                                                 32442021
 003120 47F0 720C      051C4        5623        BC    UNCOND,IDERR          ERROR EXIT                           32448021
 003124 D27B B678 B57C 08F28 08E2C  5624 SOER16   MVC   PSTFLD(LX124),PLEFT        MOVE SD TO PSTFLD             32454021
 00312A 47F0 F690      03118        5625        BC    UNCOND,SOER17         RD MISSING OR ILLEGAL                32460021
1PH40     IKFCBL40                                                                                              PAGE  118
-  LOC  OBJECT CODE    ADDR1 ADDR2  STMT   SOURCE STATEMENT                                       ASM 0201 11.03 02/14/15
0                                   5627 *=1    RETURN VERB                                                      32472021
                                    5628 *                                                                       32478021
                                    5629 *******************************************************************     32484021
                                    5630 *                                                                       32490021
                                    5631 *                                                                       32496021
                                    5632 *                                                                       32502021
                                    5633 *                           R E T U R N                                 32508021
                                    5634 *                                                                       32514021
                                    5635 *              RETURN VERB...  THIS VERB HAS TWO USES                   32520021
                                    5636 *                  SORT OUTPUT PROCEDURES, TO OBTAIN A SORTED RECOR     32526021
                                    5637 *      AND         LINKAGE, TO RETURN FROM A SUBPROGRAM.                32532021
                                    5638 *                                                                       32538021
                                    5639 *         NOTE... THIS ROUTINE USES THE SEGMENTED STRING                32544021
                                    5640 *           ROUTINES STO5XY WHERE XY = IN, 45, KN.                      32550021
                                    5641 *                                                                       32556021
                                    5642 *** STRINGS PRODUCED                                                    32562021
                                    5643 *      SOURCE - RETURN                                                  32568021
                                    5644 *      OUTPUT - RETURN 'END'                                            32574021
                                    5645 *      SOURCE - RETURN SORT-FILE AT END ...                             32580021
                                    5646 *      OUTPUT - RETURN SORT-FILE RGN 'END'                              32586021
                                    5647 *                                                                       32592021
                                    5648 *                                                                       32598021
                                    5649 *** SUBROUTINES CALLED                                                  32604021
                                    5650 *      GETNXT,STOVRB,STO5IN,STO5CU,ISATND,ERROR                         32610021
                                    5651 *                                                                       32616021
                                    5652 *                                                                       32622021
                                    5653 *** ERROR PROCESSING                                                    32628021
                                    5654 *      ASSUME LINKAGE MODE IF 'ENTER LINKAGE' NOT PREVIOUSLY FOUND      32634021
                                    5655 *       EVEN IF RETURN VERB IS FOLLOWED BY A GARBACEOUS OPERAND         32640021
                                    5656 *      MSG BUT NO SPECIAL EXPEDIENT WHEN 'AT END' IS MISSING            32646021
                                    5657 *                                                                       32652021
                                    5658 *                                                                       32658021
                                    5659 *** NOTES                                                               32664021
                                    5660 *      SPECIAL CASE OF 'AT END NEXY SENTENCE' PRODUCES                  32670021
                                    5661 *          RETURN SORT-FILE 'END'                                       32676021
                                    5662 *                                                                       32682021
                                    5663 *                                                                       32688021
                                    5664 *******************************************************************     32694021
-
                             0312E  5666        USING   *,RVRB                                                   32706021
                             0312E  5667 RETURN EQU     *                                                        32712021
 00312E 9201 BE4A      096FA        5668          MVI   VERB+NX2,XX01       SET ELEMENT COUNT TO 1         52761 32718021
 003132 9521 C000      0988B        5669        CLI     GOTTEN,MSFN         IS SORT-F-N NEXT...                  32724021
 003136 4770 F0EA      03218        5670        BC    NOTEQ,RETUE6          NO - ERROR                           32730021
 00313A 9109 C002      0988D        5671          TM    GOTTEN+NX2,XX09   TEST FOR SD NAME                       32736021
 00313E 47E0 F0EA      03218        5672          BC    NOTONE,RETUE6  BRANCH IF NOT SD NAME                     32742021
 003142 45E0 76EC      056A4        5673        BAL   RCS,GETALL                SAVE SD IN CASE BAD RECORD       32748021
 003146 4120 B678      08F28        5674        LA    RW2,PSTFLD                                                 32754021
 00314A 45E0 7566      0551E        5675        BAL     RCS,GETNXT          GET NEXT ENTITY                      32760021
 00314E 45E0 81AC      06164        5676        BAL   RCS,RDUCOP            GET ATTRIBUTES OF SFREC              32766021
 003152 9601 BFAB      0985B        5677        OI    SKIPSW,MSWON          INVALID REC-SET SW TO SKIP           32772021
 003156 D201 B5F8 BE64 08EA8 09714  5678          MVC   MODEL(LX2),MODE      SAVE RECORDNAME                     32778021
 00315C D27B B57C BAF4 08E2C 093A4  5679          MVC   PLEFT(LX124),CURENT     IN PLEFT AND ITS MODE -MODEL     32784021
1PH40     IKFCBL40                                                                                              PAGE  119
-  LOC  OBJECT CODE    ADDR1 ADDR2  STMT   SOURCE STATEMENT                                       ASM 0201 11.03 02/14/15
0                                   5680 *DEL                                                                    32790021
                                    5681 *DEL                                                                    32796021
 003162 45E0 7566      0551E        5682        BAL    RCS,GETNXT           GET NEXT ENTITY                      32802021
 003166 D501 C000 A40E 0988B 08106  5683          CLC   GOTTEN(LX2),CBRCRD   IS IT OPTIONAL CBWD RECORD          32808021
 00316C 4770 F046      03174        5684          BNE   RETNIA        NO-SEE IF INTO                       43983 32814021
 003170 45E0 7566      0551E        5685        BAL    RCS,GETNXT          DISCARD OPTIONAL WORD                 32820021
 003174                             5686 RETNIA   DS    0H                                                 43983 32826021
 003174 D501 C000 A4E6 0988B 081DE  5687          CLC   GOTTEN(LX2),CBINTO   DOES INTO FOLLOW                    32832021
 00317A 4770 F096      031C4        5688        BNE   RETU01                NO- GO PROCESS AT END                32838021
 00317E 9101 BFAB      0985B        5689        TM    SKIPSW,MSWON          YES-BUT WAS SFREC BAD                32844021
 003182 4780 F060      0318E        5690        BZ    RETN1                 NO- PROCESS RETURN INTO              32850021
 003186 94FE BFAB      0985B        5691        NI    SKIPSW,MSWOFF         YES- IGNORE OPTION                   32856021
 00318A 47F0 F0D6      03204        5692        B    RETUE4                 BAD RECORD NAME                      32862021
 00318E 45E0 7566      0551E        5693 RETN1   BAL   RCS,GETNXT           DATA NAME SHOULD FOLLOW              32868021
 003192 45E0 81AC      06164        5694        BAL   RCS,RDUCOP            SEE IF OK DATA OP                    32874021
 003196 47F0 F0E2      03210        5695        B    RETUE5                ERROR                                 32880021
 00319A D27B B5FA BAF4 08EAA 093A4  5696          MVC   PRIGHT(LX124),CURENT  OK-SAVE DATANAME IN PRIGHT         32886021
 0031A0 D201 B676 BE64 08F26 09714  5697          MVC   MODER(LX2),MODE     AND ITS MODE                         32892021
 0031A6 45E0 7566      0551E        5698          BAL   RCS,GETNXT           GET NEXT ELEMENT              43983 32898021
 0031AA 45E0 9000      06E58        5699        BAL   RCS,ISOKMV             SEE IF ALLOWABLE MOVE               32904021
 0031AE 47F0 F096      031C4        5700        B    RETN2                  MSG ALREADY WRITTEN- EXIT            32910021
 0031B2 45E0 8068      06020        5701        BAL   RCS,STLOOP            STORE MOVE STRING                    32916021
 0031B6 0003                        5702        DC    XL2'3'                                                     32922021
 0031B8 4140 A56A      08262        5703       LA    RW4,MOVEVB                                                  32928021
 0031BC 4140 B57C      08E2C        5704        LA RW4,PLEFT                SF REC  TO                           32934021
 0031C0 4140 B5FA      08EAA        5705        LA    RW4,PRIGHT            DATA NAM%E                           32940021
 0031C4                             5706 RETN2    DS    0H                                                 43983 32946021
 0031C4                             5707 RETU01   DS    0H                                                 52761 32952021
 0031C4 45E0 8166      0611E        5708          BAL   RCS,STOVRB                 STORE RETURN VERB             32958021
 0031C8 4100 A4F6      081EE        5709        LA    RA0,CBEND             SET RA0 FOR POSSIBLE MESSAGE         32964021
 0031CC 45E0 8D98      06D50        5710        BAL   RCS,ISATND            IS IT 'AT END'                       32970021
 0031D0 47F0 F0CA      031F8        5711        B     RETN5            AT END NOT FOUND OR NXT SENT FOLLOWS      32976021
 0031D4                             5712 RETN4    DS    0H                                                 52761 32982021
 0031D4 9202 BE4A      096FA        5713          MVI   VERB+NX2,XX02       SET ELEMENT COUNT 2            52761 32988021
 0031D8 45E0 7734      056EC        5714          BAL   RCS,GENDAT          PUT OUT  RETURN VERB           52761 32994021
 0031DC 4120 BE48      096F8        5715          LA    RW2,VERB            ADDR OF VERB                   43983 33000021
 0031E0 45E0 7734      056EC        5716          BAL   RCS,GENDAT             PUTOUT SFNM                 43983 33006021
 0031E4 4120 B678      08F28        5717          LA    RW2,PSTFLD                                         43983 33012021
 0031E8 45E0 7734      056EC        5718          BAL   RCS,GENDAT          GEN SF DATA ITEM               52761 33018021
 0031EC 4120 B57C      08E2C        5719          LA    RW2,PLEFT           SF DATA ITEM                   52761 33024021
 0031F0 45E0 7766      0571E        5720          BAL   RCS,GENSTR           GENERAT RETURN STRING         43983 33030021
 0031F4 47F0 7000      04FB8        5721        BC    UNCOND,IDENT         RETURN TO IDENT                       33036021
 0031F8 4140 A4F6      081EE        5722 RETN5  LA    RW4,CBEND           STORE 'END' INPLACE OF GN AT END       33042021
 0031FC 45E0 8000      05FB8        5723        BAL    RCS,STOR45           IN STRING                            33048021
 003200 47F0 F0A6      031D4        5724        BC    UNCOND,RETN4         GO TO GENERATE STRING                 33054021
 003204                             5725 RETUE4 DS    0H                                                         33060021
 003204 45E0 9BDA      07A32        5726        BAL   RCS,ERROR             ERROR - MSG 85                       33066021
 003208 4110 A234      07F2C        5727        LA    RW1,ELST55            ERROR EXIT                           33072021
 00320C 47F0 720C      051C4        5728          BC    UNCOND,IDERR        DISCARD TILL ENDWORD                 33078021
 003210 4100 A660      08358        5729 RETUE5      LA    RA0,BCDDN                                             33084021
 003214 47F0 7204      051BC        5730        BC    UNCOND,IDGVUP         GIVE UP                              33090021
 003218 45E0 9BDA      07A32        5731 RETUE6 BAL   RCS,ERROR             ERROR - MSG 54                       33096021
 00321C 4110 A16E      07E66        5732          LA    RW1,ELST36                                               33102021
 003220 47F0 720C      051C4        5733          BC    UNCOND,IDERR        ERROR EXIT                           33108021
1PH40     IKFCBL40                                                                                              PAGE  120
-  LOC  OBJECT CODE    ADDR1 ADDR2  STMT   SOURCE STATEMENT                                       ASM 0201 11.03 02/14/15
0                                   5735 *=1    RLEASE  VERB                                                     33120021
                                    5736 *******************************************************************     33126021
                                    5737 *                                                                       33132021
                                    5738 *                                                                       33138021
                                    5739 *                           R L E A S E                                 33144021
                                    5740 *                                                                       33150021
                                    5741 *                                                                       33156021
                                    5742 *** STRINGS PRODUCED                                                    33162021
                                    5743 *      SOURCE - RELEASE DN                                              33168021
                                    5744 *      OUTPUT - RELEASE DN                                              33174021
                                    5745 *                                                                       33180021
                                    5746 *                                                                       33186021
                                    5747 *** SUBROUTINES CALLED                                                  33192021
                                    5748 *      GETNXT,STOVRB,STOINP,ISSORK,GENSTR,ERROR                         33198021
                                    5749 *                                                                       33204021
                                    5750 *                                                                       33210021
                                    5751 *** ERROR PROCESSING                                                    33216021
                                    5752 *      SKIP STATEMENT IF DN IS NOT A LEGAL SORT KEY AT THE 01 LEVEL     33222021
                                    5753 *                                                                       33228021
                                    5754 *                                                                       33234021
                                    5755 *                                                                       33240021
                                    5756 *******************************************************************     33246021
-
                             03224  5758        USING   *,RVRB                                                   33258021
                             03224  5759 RLEASE EQU     *                                                        33264021
 003224 45E0 9172      06FCA        5760        BAL     RCS,ISSORK          IS DN A SORT KEY...                  33270021
 003228 47F0 F08C      032B0        5761        BC      UNCOND,RELEE1       NO                                   33276021
 00322C 9108 C007      00007        5762          TM    DX7(RIN),MLEV1 IS DN 01 LEVEL                            33282021
 003230 4780 F08C      032B0        5763        BC    ZERO,RELEE1    NO                                          33288021
 003234 45E0 76EC      056A4        5764        BAL   RCS,GETALL       SAVE DN                                   33294021
 003238 4120 BB70      09420        5765        LA    RW2,SAVE1OP                                                33300021
 00323C 45E0 7566      0551E        5766        BAL     RCS,GETNXT          GET NEXT ENTITY                      33306021
 003240 D501 C000 A4E2 0988B 081DA  5767          CLC   GOTTEN(LX2),CBFROM                                       33312021
 003246 4770 F064      03288        5768        BNE   RLSEXT                NO FROM- GENR STRING AND EXIT        33318021
 00324A D27B B5FA BAF4 08EAA 093A4  5769          MVC   PRIGHT(LX124),CURENT       SAVE SD REC                   33324021
 003250 D201 B676 BE64 08F26 09714  5770          MVC   MODER(LX2),MODE           AND ITS MODE IN PRIGHT         33330021
 003256 45E0 7566      0551E        5771        BAL   RCS,GETNXT            GET NEXT ENTITY                      33336021
 00325A 45E0 81AC      06164        5772        BAL    RCS,RDUCOP         SEE IF VALID DATANAME FOLLOWS          33342021
 00325E 47F0 F084      032A8        5773        B    RELEE2                ERROR                                 33348021
 003262 D27B B57C BAF4 08E2C 093A4  5774          MVC   PLEFT(LX124),CURENT        SAVE IT IN PLEFT              33354021
 003268 D201 B5F8 BE64 08EA8 09714  5775          MVC   MODEL(LX2),MODE                                          33360021
 00326E 45E0 9000      06E58        5776        BAL   RCS,ISOKMV        ARE THEY COMPATIBLE FOR MOVE             33366021
 003272 47F0 F070      03294        5777        B     RLSE1                 NO                                   33372021
 003276 45E0 8068      06020        5778        BAL     RCS,STLOOP     STORE 3 ELEMENTS IN STRING                33378021
 00327A 0003                        5779        DC    XL2'3'                                                     33384021
 00327C 4140 A56A      08262        5780        LA    RW4,MOVEVB       MOVE VERB                                 33390021
 003280 4140 B57C      08E2C        5781        LA      RW4,PLEFT      DATA NAME                                 33396021
 003284 4140 B5FA      08EAA        5782        LA    RW4,PRIGHT       SD REC                                    33402021
 003288                             5783 RLSEXT DS    0H                                                         33408021
 003288 45E0 8166      0611E        5784        BAL   RCS,STOVRB       STORE RELEASE VERB                        33414021
 00328C 4140 BB70      09420        5785        LA    RW4,SAVE1OP                                                33420021
 003290 45E0 8000      05FB8        5786        BAL   RCS,STOR45       STORE DN                                  33426021
 003294                             5787 RLSE1  DS    0H                                                         33432021
1PH40     IKFCBL40                                                                                              PAGE  121
-  LOC  OBJECT CODE    ADDR1 ADDR2  STMT   SOURCE STATEMENT                                       ASM 0201 11.03 02/14/15
0003294 9544 C000      0988B        5788        CLI   GOTTEN,MVERB     IS IT A VERB                              33438021
 003298 4780 F07C      032A0        5789        BE    RLSE2            YES, DON'T GET NEXT ELEMENT               33444021
 00329C 45E0 7566      0551E        5790        BAL   RCS,GETNXT       GET NEXT ELEMENT                          33450021
 0032A0                             5791 RLSE2  DS    0H                                                         33456021
 0032A0 45E0 7766      0571E        5792        BAL   RCS,GENSTR       GENR RELEASE STRING                       33462021
 0032A4 47F0 7000      04FB8        5793        BC    UNCOND,IDENT                    EXIT                       33468021
 0032A8 4100 A660      08358        5794 RELEE2 LA    RA0,BCDDN                                                  33474021
 0032AC 47F0 7204      051BC        5795        B    IDGVUP          ERROR EXIT                                  33480021
                             032B0  5796 RELEE1 EQU   *                     97                                   33486021
 0032B0 45E0 9BDA      07A32        5797        BAL   RCS,ERROR             ERROR - MSG 66                       33492021
 0032B4 4110 A1B0      07EA8        5798        LA      RW1,ELST42                                               33498021
 0032B8 47F0 720C      051C4        5799        BC    UNCOND,IDERR          RELEE1                               33504021
1PH40     IKFCBL40                                                                                              PAGE  122
-  LOC  OBJECT CODE    ADDR1 ADDR2  STMT   SOURCE STATEMENT                                       ASM 0201 11.03 02/14/15
1PH40     IKFCBL40                                                                                              PAGE  123
-  LOC  OBJECT CODE    ADDR1 ADDR2  STMT   SOURCE STATEMENT                                       ASM 0201 11.03 02/14/15
1PH40     IKFCBL40                                                                                              PAGE  124
-  LOC  OBJECT CODE    ADDR1 ADDR2  STMT   SOURCE STATEMENT                                       ASM 0201 11.03 02/14/15
0                                   5803 *=1    CALL    VERB                                                     33528021
                                    5804 *=1    LINK    VERB                                                     33534021
                                    5805 *=1    ENTRY   VERB                                                     33540021
                                    5806 *******************************************************************     33546021
                                    5807 *                                                                       33552021
                                    5808 *                                                                       33558021
                                    5809 *                           C A L L                                     33564021
                                    5810 *                           L I N K                                     33570021
                                    5811 *                           E N T R Y                                   33576021
                                    5812 *                                                                       33582021
                                    5813 *                                                                       33588021
                                    5814 *** STRINGS PRODUCED                                                    33594021
                                    5815 *      SOURCE - LINK 'EXT'                                              33600021
                                    5816 *      OUTPUT - LINK 'FIRST' 'EXT' 'END'                                33606021
                                    5817 *      SOURCE - CALL 'EXT' USING DN FN PN1 PN2 PN3                      33612021
                                    5818 *      OUTPUT - CALL 'FIRST' 'EXT' DN FN PN1                            33618021
                                    5819 *               CALL  PN2 PN3 'END'                                     33624021
                                    5820 *                                                                       33630021
                                    5821 *                                                                       33636021
                                    5822 *** SUBROUTINES CALLED                                                  33642021
                                    5823 *      GETNXT,STOVRB,STO5IN,ST5PNI,STO5CU,RDUCOP,ERROR                  33648021
                                    5824 *                                                                       33654021
                                    5825 *                                                                       33660021
                                    5826 *** ERROR PROCESSING                                                    33666021
                                    5827 *      SKIP STATEMENT IF FIRST OPERAND NOT AN EXTERNAL NAME             33672021
                                    5828 *      SKIP USING CLAUSE IF 1ST SUCCEEDING OPERAND IS NOT A LEGAL O     33678021
                                    5829 *      END USING CLAUSE AT FIRST ILLEGAL OPERAND - IDENT FINDS ERRO     33684021
                                    5830 *                                                                       33690021
                                    5831 *                                                                       33696021
                                    5832 *        THESE SHARE A COMMON SCAN AND USE THE STO5XY ROUTINES          33702021
                                    5833 *             FOR STRING SEGMENTATION.                                  33708021
                                    5834 *                                                                       33714021
                                    5835 *******************************************************************     33720021
-
                             032BC  5837        USING   *,RVRB                                                   33732021
                             032BC  5838 CALL   EQU     *                                                        33738021
                             032BC  5839 LINKVB EQU   *                                                          33744021
 0032BC 94FE BF97      09847        5840        NI      ENTRSW,MSWOFF       SWITCH OFF FOR CALL                  33750021
 0032C0 41FF 000C      0000C        5841        LA    RVRB,ENTRY-CALL(RVRB)         BRANCH TO ENTRY CODE         33756021
                             032C8  5842        USING ENTRY,RVRB                                                 33762021
 0032C4 47F0 F00C      032D4        5843        BC    UNCOND,ENTR01         ENTRY CODE                           33768021
                             032C8  5844        USING   *,RVRB                                                   33774021
                             032C8  5845 ENTRY  EQU     *                                                        33780021
 0032C8 91FF BE51      09701        5846        TM    SEGLM,NONSEG          IS PROGRAM SEGMENTED                 33786021
 0032CC 47E0 F062      0332A        5847        BC    NOTONE,ENTR2A     SEGMENTED                                33792021
 0032D0                             5848 ENTR1A DS    0H                                                         33798021
 0032D0 9601 BF97      09847        5849        OI      ENTRSW,MSWON        SWITCH ON FOR ENTRY                  33804021
 0032D4 45E0 813A      060F2        5850 ENTR01 BAL     RCS,STO5BG         STORE VERB AND 'FIRST'(KEEP INSTR     33810021
                                    5851 *                                    ENTRY+4)                           33816021
 0032D8 45E0 91A4      06FFC        5852        BAL     RCS,ISITXN          IS IT XN...                          33822021
 0032DC 47F0 F046      0330E        5853        BC    UNCOND,LKMDE4          NO                                  33828021
 0032E0 45E0 808C      06044        5854        BAL     RCS,STO5IN           YES,SAVE                            33834021
 0032E4 45E0 7566      0551E        5855        BAL     RCS,GETNXT          GET NEXT INPUT                       33840021
1PH40     IKFCBL40                                                                                              PAGE  125
-  LOC  OBJECT CODE    ADDR1 ADDR2  STMT   SOURCE STATEMENT                                       ASM 0201 11.03 02/14/15
00032E8 D501 C000 A51E 0988B 08216  5856          CLC   GOTTEN(LX2),CBUSIN   ='USING'...                         33846021
 0032EE 4770 F03E      03306        5857        BC      NOTEQ,ENTR02         NO,FINISHED                         33852021
 0032F2 94FE BF75      09825        5858        NI      PFNDOP,MSWOFF                                            33858021
                             032F6  5859 ENTR03 EQU     *                                                        33864021
 0032F6 45E0 7566      0551E        5860        BAL     RCS,GETNXT          GET NEXT INPUT                       33870021
 0032FA 45E0 F070      03338        5861        BAL     RCS,ENTR04          IS IT LEGAL OPERAND...               33876021
 0032FE 45E0 80A4      0605C        5862        BAL     RCS,ST5PNI            YES                                33882021
 003302 47F0 F02E      032F6        5863        BC      UNCOND,ENTR03        YES, LOOP THRU AGAIN                33888021
 003306 45E0 8108      060C0        5864 ENTR02 BAL     RCS,STO5CU          GEN STRING                           33894021
 00330A 47F0 7000      04FB8        5865        BC      UNCOND,IDENT        EXIT FROM CALL AND ENTRY VERBS..     33900021
                             0330E  5866 LKMDE4 EQU   *                     9A                                   33906021
 00330E 4100 A7BC      084B4        5867        LA      RA0,BCDXTN                                               33912021
 003312 45E0 9BDA      07A32        5868        BAL   RCS,ERROR             NOT EXTERNAL NAME, SKIP STMNT        33918021
 003316 4110 A144      07E3C        5869        LA      RW1,ELST32                                               33924021
 00331A 47F0 720C      051C4        5870        BC    UNCOND,IDERR          LKMDE4                               33930021
 00331E 45E0 9BDA      07A32        5871 ENTRER BAL   RCS,ERROR             CALL SEGMENTED, ERROR                33936021
 003322 4110 A2BE      07FB6        5872        LA    RW1,ELST6C                                                 33942021
 003326 47F0 720C      051C4        5873        B     IDERR       ERROR EXIT                                     33948021
 00332A                             5874 ENTR2A DS    0H                                                         33954021
 00332A D500 BF64 BE51 09814 09701  5875        CLC   PTYCEL(LX1),SEGLM     SEGMENT INDEP                        33960021
 003330 4740 F008      032D0        5876        BL    ENTR1A           YES - OK                                  33966021
 003334 47F0 F056      0331E        5877        B     ENTRER           NO - ERROR                                33972021
                                    5878 *                                                                       33978021
                                    5879 * ISIT TYPE ROUTINE FOR CHECKING CALL,ENTRY OPERANDS                    33984021
                                    5880 *                                                                       33990021
 003338 90E2 B3C8      08C78        5881 ENTR04 STM     RCS,RW2,SVSO14                                           33996021
 00333C 45E0 81AC      06164        5882        BAL     RCS,RDUCOP          IS IT A DN...                        34002021
 003340 47F0 F0AC      03374        5883        BC      UNCOND,ENTR4A       NO,PERHAPS APN,FN,ETC.               34008021
 003344 9101 BE64      09714        5884          TM    MODE,MLITBT                                              34014021
 003348 4710 F0EA      033B2        5885          BC    ONES,ENTR06         LITERAL -ERROR                       34020021
 00334C 9101 BF97      09847        5886        TM      ENTRSW,MSWON        YES, CALL OR ENTRY                   34026021
 003350 4780 F0C4      0338C        5887        BC      ZERO,ENTR4Y         CALL,ANY DN O.K.                     34032021
 003354 1B22                        5888        SR      RW2,RW2             ENTRY,ONLY LINKAGE O.K.              34038021
 003356 432C 0002      00002        5889          IC    RW2,DX2(RIN)                                             34044021
 00335A 41E0 0007      00007        5890          LA    RCS,DX7              MASK OUT MAJOR IN RW2               34050021
 00335E 142E                        5891        NR    RW2,RCS                                                    34056021
 003360 4920 A5A4      0829C        5892        CH      RW2,N5              MUST BE LINKAGE                      34062021
 003364 4770 F0CE      03396        5893        BC      NOTEQ,ENTR4N        NOT LEGAL                            34068021
 003368 910C C007      00007        5894          TM    DX7(RIN),MLV177 IS DN AT 01 OR 77 LEVEL                  34074021
 00336C 4780 F0CE      03396        5895        BC    ZERO,ENTR4N    NO-ERROR                                    34080021
 003370 47F0 F0C4      0338C        5896        BC    UNCOND,ENTR4Y         YES                                  34086021
 003374 9101 BF97      09847        5897 ENTR4A TM      ENTRSW,MSWON        IS IT ENTRY...                       34092021
 003378 4710 F0CE      03396        5898        BC      ONES,ENTR4N         YES,NOT LEGAL                        34098021
 00337C 9521 C000      0988B        5899        CLI     GOTTEN,MFILE       NO, FN...                             34104021
 003380 4780 F0C4      0338C        5900        BC      EQ,ENTR4Y           YES,OK                               34110021
 003384 9520 C000      0988B        5901        CLI     GOTTEN,MPNU        PN...                                 34116021
 003388 4770 F0CE      03396        5902        BC      NOTEQ,ENTR4N        NO                                   34122021
 00338C 98E2 B3C8      08C78        5903 ENTR4Y LM      RCS,RW2,SVSO14      YES                                  34128021
 003390 9601 BF75      09825        5904        OI      PFNDOP,MSWON       AT LEAST 1 FOUND                      34134021
 003394 07FE                        5905        BCR     UNCOND,RCS          RETURN                               34140021
 003396 45E0 8C32      06BEA        5906 ENTR4N BAL     RCS,ISEND          IS IT END                             34146021
 00339A 47F0 F0EA      033B2        5907        BC      UNCOND,ENTR06        NO                                  34152021
 00339E 9101 BF75      09825        5908        TM      PFNDOP,MSWON       WAS ANY OP FOUND AFTER 'USING'        34158021
 0033A2 4710 F03E      03306        5909        BC      ONES,ENTR02         YES - OK                             34164021
 0033A6 9601 BF74      09824        5910        OI      NEXTIN,MSWON        NO - LET IDENT COMMANT               34170021
1PH40     IKFCBL40                                                                                              PAGE  126
-  LOC  OBJECT CODE    ADDR1 ADDR2  STMT   SOURCE STATEMENT                                       ASM 0201 11.03 02/14/15
00033AA 41C0 A51E      08216        5911        LA      RIN,CBUSIN                                               34176021
 0033AE 47F0 F03E      03306        5912        BC      UNCOND,ENTR02       GENERATE STRING                      34182021
 0033B2 92FF BE65      09715        5913 ENTR06   MVI   MODE+NX1,MFF         MODE IRRELEVANT FOR MSG 4 HERE      34188021
 0033B6 45E0 9BDA      07A32        5914          BAL   RCS,ERROR           ERROR - MSG 4                        34194021
 0033BA 4110 A00F      07D07        5915        LA      RW1,ELST04                                               34200021
 0033BE 9601 BF75      09825        5916        OI      PFNDOP,MSWON       AVOID IDENT MSG                       34206021
 0033C2 47F0 F02E      032F6        5917        BC      UNCOND,ENTR03       GET NEXT                             34212021
1PH40     IKFCBL40                                                                                              PAGE  127
-  LOC  OBJECT CODE    ADDR1 ADDR2  STMT   SOURCE STATEMENT                                       ASM 0201 11.03 02/14/15
0                                   5919 *=1    EXIT    VERB                                                     34224021
                                    5920 *******************************************************************     34230021
                                    5921 *                                                                       34236021
                                    5922 *                                                                       34242021
                                    5923 *                                 E X I T                               34248021
                                    5924 *                                                                       34254021
                                    5925 *      NO STRING IS PRODUCED.                                           34260021
                                    5926 *                                                                       34266021
                                    5927 *** ERROR PROCESSING                                                    34272021
                                    5928 *      SYNTAX-CHECK MERELY MAKES SURE PN PRECEDES AND PERIOD FOLLOW     34278021
                                    5929 *                                                                       34284021
                                    5930 *** SUBROUTINES CALLED                                                  34290021
                                    5931 *      GETNXT,ERROR                                                     34296021
                                    5932 *                                                                       34302021
                                    5933 *                                                                       34308021
                                    5934 *                                                                       34314021
                                    5935 *******************************************************************     34320021
-
-
                             033C6  5937        USING   *,RVRB                                                   34332021
                             033C6  5938 EXIT   EQU     *                                                        34338021
 0033C6 9601 BF73      09823        5939        OI      GENRED,MSWON       AVOID 'INCOMPLETE MSG FROM IDENT      34344021
 0033CA 9500 BD3E      095EE        5940          CLI   SAVLHN,XX00         DID LHN PRECEDE                      34350021
 0033CE 4780 F048      0340E        5941        BC      EQ,EXIT4             NO -ERROR                           34356021
 0033D2 9400 BD3E      095EE        5942          NI    SAVLHN,XX00                                              34362021
 0033D6 D501 C000 A346 0988B 0803E  5943 EXIT1    CLC   GOTTEN(LX2),CBEOS      DOES PERIOD FOLLOW                34368021
 0033DC 4770 F054      0341A        5944        BC    NOTEQ,EXIT5           SEE IF PROGRAM FOLLOWS               34374021
 0033E0 45E0 7566      0551E        5945        BAL     RCS,GETNXT          YES, GET NEXT INPUT                  34380021
 0033E4 9601 BF74      09824        5946        OI      NEXTIN,MSWON                                             34386021
 0033E8 9506 C000      0988B        5947        CLI     GOTTEN,MPND          YES - DOES PN FOLLOW                34392021
 0033EC 4780 F03C      03402        5948        BC      EQ,EXIT2            YES                                  34398021
 0033F0 9542 C000      0988B        5949        CLI     GOTTEN,MBREAK        OR BREAK                            34404021
 0033F4 4780 F03C      03402        5950        BC      EQ,EXIT2            YES- BREAK                           34410021
 0033F8 D501 C000 A52A 0988B 08222  5951          CLC   GOTTEN(LX2),CBDBUG   OR *DEBUG                           34416021
 0033FE 4770 F044      0340A        5952        BC      NOTEQ,EXIT3         NO - ERROR                           34422021
 003402 41C0 A346      0803E        5953 EXIT2  LA      RIN,CBEOS                                                34428021
 003406 47F0 7000      04FB8        5954        BC      UNCOND,IDENT        EXIT                                 34434021
 00340A 41C0 A346      0803E        5955 EXIT3  LA      RIN,CBEOS                                                34440021
 00340E 45E0 9BDA      07A32        5956 EXIT4  BAL     RCS,ERROR          NO - ERROR                            34446021
 003412 4110 A087      07D7F        5957        LA      RW1,ELST16                                               34452021
 003416 47F0 7000      04FB8        5958        BC      UNCOND,IDENT        EXIT                                 34458021
 00341A D501 C000 A406 0988B 080FE  5959 EXIT5    CLC   GOTTEN(LX2),CBPROG                                       34464021
 003420 4770 F048      0340E        5960        BNE    EXIT4                NO - ERROR                           34470021
 003424 45E0 7734      056EC        5961        BAL   RCS,GENDAT            WRITE TO OUTPUT                      34476021
 003428 4120 A573      0826B        5962        LA    RW2,EXITPG                                                 34482021
 00342C 45E0 7566      0551E        5963        BAL   RCS,GETNXT            GET NEXT ENTITY                      34488021
 003430 47F0 F010      033D6        5964        B     EXIT1     SEE IF PERIOD FOLLOWS                            34494021
 003798                             5965 IKF40E CSECT                                                            34500021
                                    5966 *=1   SEARCH VERB                                                       34506021
                                    5967 *                                                                       34512021
                                    5968 *               SEARCH                                                  34518021
1PH40     IKFCBL40                                                                                              PAGE  128
-  LOC  OBJECT CODE    ADDR1 ADDR2  STMT   SOURCE STATEMENT                                       ASM 0201 11.03 02/14/15
0                                   5969 *                                                                       34524021
                                    5970 * STRINGS  PRODUCED-                                                    34530021
                                    5971 * SOURCE-SEARCH ID1 MAX-OCCUR  MIN-OCCUR VARYING INDNM1                 34536021
                                    5972 *         VARYING INDNM2;AT END  GO PN1 ; WHEN COND-1 GO PN2...         34542021
                                    5973 *         WHEN COND-N  GO  PNN.                                         34548021
                                    5974 *                                                                       34554021
                                    5975 *- OUTPUT                                                               34560021
                                    5976 *                GO  RGN1                                               34566021
                                    5977 *  RGN0                                                                 34572021
                                    5978 *                GO  PN1                                                34578021
                                    5979 *         LGN2                                                          34584021
                                    5980 *         WHEN COND-1                                                   34590021
                                    5981 *                IF  COND-1 NOT TRUE  RGN3                              34596021
                                    5982 *                GO  PN2                                                34602021
                                    5983 *         LGN3                                                          34608021
                                    5984 *         WHEN COND-N                                                   34614021
                                    5985 *                IF COND-N NOT  TRUE RGNN                               34620021
                                    5986 *                 GO  PNN                                               34626021
                                    5987 *         VARYINGS                                                      34632021
                                    5988 *         LGNN                                                          34638021
                                    5989 *                 SET INDNM1 UP BY 1                                    34644021
                                    5990 *                 SET INDNM2 UP BY 1                                    34650021
                                    5991 *  LGN1                                                                 34656021
                                    5992 *         IF  COND  FOR  AT END                                         34662021
                                    5993 *   IF INDNM 1 GT MAX-OCCUR RGN0                                        34668021
                                    5994 *                GO RGN2                                                34674021
                                    5995 *                                                                       34680021
                                    5996 * ERROR PROCESSING-                                                     34686021
                                    5997 *         IF IDENTIFIER-1 INVALID, GIVE UP.                             34692021
                                    5998 *         IF USER'S VARYING INVALID,DISCARD AND USE PH3 VARYING.        34698021
                                    5999 *         IF SEARCH CALLED BY PREVIOUS SEARCH,GIVE UP.                  34704021
                                    6000 *         IF GARBAGE BEFORE AT END,DISCARD TILL AT, WHEN,OR NEXT        34710021
                                    6001 *         VERB AND ISSUE MSG ONCE.IF VERB FOUND BEFORE AT OR            34716021
                                    6002 *         WHEN,GIVE UP.                                                 34722021
                                    6003 *         IF VERB DOES NOT FOLLOW 'AT END' OR 'WHEN',WRITE MSG          34728021
                                    6004 *         GENERATE GO NEXT SENTENCE, SEEK WHEN.                         34734021
                                    6005 *         IF WHEN NOT FOUND AT ALL,DISCARD TILL NEXT VERB               34740021
                                    6006 *         AND  GIVE UP.IF GARBAGE BETWEEN VERB FOLLOWING                34746021
                                    6007 *         AT END  OR VERB FOLLOWING PREVIOUS WHEN AND                   34752021
                                    6008 *         THIS WHEN,WRITE MSG,DISCARD TILL WHEN OR NEXT                 34758021
                                    6009 *         VERB.                                                         34764021
                                    6010 *                                                                       34770021
                                    6011 * ROUTINES CALLED: GETNXT,GETALL,ISTRUV,ISEND,NEWNXT,                   34776021
                                    6012 *         PGONXT,ERROR,ISINT,PUPLGN,STLOOP,STOR45,GENDAT,               34782021
                                    6013 *         GENSTR,ISDTOP,IF RTN TO PROCESS WHENS,ID5 OF                  34788021
                                    6014 *         IDENT TO INITIALIZE AND BRANCH TO VERBS                       34794021
                                    6015 *                                                                       34800021
                                    6016 * NOTES:  IF IMPERATIVE STATEMENTS AFTER WHEN,AT END DO                 34806021
                                    6017 *         NOT END WITH GO TO, THIS RTN GENERATES A                      34812021
                                    6018 *         GO TO NEXT SENTENCE.                                          34818021
                                    6019 *                                                                       34824021
                                    6020 * SWITCHES:                                                             34830021
                                    6021 *         ATNDFND- IF ON,PH4,NOT USER WROTE AT END CLAUSE               34836021
                                    6022 *         VRYIND2- '''',USER IS VARYIND INDEXNAME 2                     34842021
                                    6023 *         TWOVRY-  '''',TWO VARYINGS ARE PRESENT                        34848021
1PH40     IKFCBL40                                                                                              PAGE  129
-  LOC  OBJECT CODE    ADDR1 ADDR2  STMT   SOURCE STATEMENT                                       ASM 0201 11.03 02/14/15
0                                   6024 *         GOSW-    '''',IF ON,GO WAS LAST VERB AFTER COND               34854021
                                    6025 *                        GO NEXT SENT NOT NEEDED                        34860021
                                    6026 *         WHENSW-''''AT LEAST  ONE WHEN FOUND                           34866021
                                    6027 *         SEARCHSW-TURNED ON BY SEARCH VERB-                            34872021
                                    6028 *                   CHECKED BY IDENT,IF,SEARCH,GO                       34878021
                                    6029 *                                                                       34884021
                                    6030 *                                                                       34890021
                             03798  6031        USING *,RVRB                                                     34896021
                             03798  6032 SEARCH EQU   *                                                          34902021
                                    6033 *INITIALIZE SWITCHES                                                    34908021
 003798 94FE BFB6      09866        6034        NI    WHENSW,MSWOFF                                              34914021
 00379C 94FE BFAB      0985B        6035        NI    SKIPSW,MSWOFF                                              34920021
 0037A0 94FE BFB3      09863        6036        NI    TWOVRY,MSWOFF                                              34926021
 0037A4 94FE BFAD      0985D        6037        NI    ATNDFND,MSWOFF                                             34932021
 0037A8 94FE BFB1      09861        6038        NI    VRYIND2,MSWOFF                                             34938021
 0037AC 94FE BFB5      09865        6039        NI    GOSW,MSWOFF                                                34944021
 0037B0 94FE BFC4      09874        6040        NI    VRYSS,MSWOFF                                               34950021
 0037B4 D701 BF03 BF03 097B3 097B3  6041          XC    WHENGN+NX1(LX2),WHENGN+NX1                               34956021
 0037BA 45E0 9B58      079B0        6042        BAL   RCS,IFSRCH1      BRANCH TO SAVE GN'S                 5961  34962021
 0037BE 45E0 8C54      06C0C        6043        BAL   RCS,ISTRUV            SEE IF COND ALLOWED                  34968021
 0037C2 9601 BFB7      09867        6044        OI    SEARCHSW,MSWON                                             34974021
 0037C6 D702 BEE5 BEE5 09795 09795  6045          XC    DMAX(LX3),DMAX                                           34980021
                                    6046 *SEE IF IDENTIFIER-1 VALID                                              34986021
 0037CC 9530 C000      0988B        6047          CLI   GOTTEN,XX30                                              34992021
 0037D0 4770 F48C      03C24        6048        BNE   SRCHERR1              NO-GIVE UP                           34998021
 0037D4 45E0 7566      0551E        6049        BAL   RCS,GETNXT            YES, GET MAX-OCCUR                   35004021
 0037D8 45E0 76EC      056A4        6050        BAL   RCS,GETALL            SAVE MAX OCCUR OR OBJ OF ODO         35010021
 0037DC 4120 B970      09220        6051        LA    RW2,MAXSAVE                                                35016021
 0037E0 45E0 7566      0551E        6052        BAL   RCS,GETNXT            MUST BE VARYING-DISCARD              35022021
 0037E4 45E0 7566      0551E        6053        BAL   RCS,GETNXT            INDNM1                               35028021
 0037E8 45E0 76EC      056A4        6054        BAL   RCS,GETALL            SAVE 1ST VARY OP                     35034021
 0037EC 4120 BAE4      09394        6055        LA    RW2,INDVRY1                                                35040021
 0037F0 45E0 7566      0551E        6056        BAL   RCS,GETNXT            GET NEXT INPUT                       35046021
 0037F4 D501 C000 A4DC 0988B 081D4  6057          CLC   GOTTEN(LX2),CBVARY   IS THERE ANOTHER VARYING            35052021
 0037FA 4770 F0D6      0386E        6058        BNE   SRCH6                 NO                                   35058021
 0037FE 45E0 7566      0551E        6059        BAL   RCS,GETNXT              PT RIN TO OPERAND                  35064021
                                    6060 *VARYING  FOUND - THIS  IS THE USERS VARYING                            35070021
 003802 45E0 76EC      056A4        6061        BAL   RCS,GETALL            SAVE THE OPERAND                     35076021
 003806 4120 B9EC      0929C        6062        LA    RW2,VARY2SV                                                35082021
                                    6063 *    IF THIS OPERAND IS FOUND TO BE SUBSCRIPTED OR INDEXED              35088021
                                    6064 *   WE WANT TO PRESERVE THE SUBSCRIPTS IN SVSRCHT RATHER THAN IN        35094021
                                    6065 *   DEFSBS TABLE SINCE WE WILL NOT BE GENERATING STRING UNTIL           35100021
                                    6066 *   MUCH LATER- AND DEFSBS WILL BE USED BY VERB ANALYZERS FOLLOWING     35106021
                                    6067 *   AT END AND  WHEN- THEREFORE WE ARE USING A METHOD SIMILASR          35112021
                                    6068 *  TO MOVE OR ADD CORRESPONDING- TURNING ON DRYRUN HER%E-CORRSW         35118021
                                    6069 *   LATER AND OPSSSW IF NEC                                             35124021
 00380A 41E0 BA68      09318        6070        LA    RCS,SVSRCHT                                                35130021
 00380E 50E0 BC68      09518        6071        ST   RCS,THISOP         TELLS SUBSCR TO STORE SS HERE            35136021
 003812 9601 BF93      09843        6072        OI    DRYRUN,MSWON                                               35142021
 003816 45E0 81AC      06164        6073        BAL   RCS,RDUCOP          SEE IF VALID OPERAND                   35148021
 00381A 47F0 F0AE      03846        6074        B     ISINDX                NO-SEE IF INDEXNAME                  35154021
 00381E 45E0 8B64      06B1C        6075        BAL   RCS,ISINT2            IS IT A FIXED POINT INTEGER          35160021
 003822 47F0 F498      03C30        6076        B     SRCHERR2              NO-ISSUE WARNING AND IGNORE          35166021
 003826 9101 BE64      09714        6077        TM    MODE,MLITBT              IS OPERAND A LITERAL              35172021
 00382A 4710 F498      03C30        6078        BO    SRCHERR2             YES- NO GOOD                          35178021
1PH40     IKFCBL40                                                                                              PAGE  130
-  LOC  OBJECT CODE    ADDR1 ADDR2  STMT   SOURCE STATEMENT                                       ASM 0201 11.03 02/14/15
000382E 9531 C000      0988B        6079        CLI   GOTTEN,MSS       WAS IT SUBSCRIPTED                        35184021
 003832 4770 F0A2      0383A        6080        BNE   SRCH4                 NO - OK                              35190021
 003836 9601 BFC4      09874        6081        OI    VRYSS,MSWON           SIGNAL LATER IN SEARCH               35196021
 00383A 9601 BFB3      09863        6082 SRCH4  OI    TWOVRY,MSWON          TWO VALID VARYINGS                   35202021
 00383E 45E0 7566      0551E        6083        BAL   RCS,GETNXT            GET NEXT INPUT                       35208021
 003842 47F0 F0D6      0386E        6084        B     SRCH6                 GO TO STORE LGN                      35214021
 003846 9130 C000      0988B        6085 ISINDX TM    GOTTEN,MDN            DATA OP AT ALL                       35220021
 00384A 47E0 F498      03C30        6086        BC    NOTONE,SRCHERR2       NO-ERRMSG AND IGNORE                 35226021
 00384E 9570 C003      0988E        6087          CLI   GOTTEN+NX3,USINDX    IDEX DATA ITEM                      35232021
 003852 4770 F0C6      0385E        6088          BNE   SRCH41                     BR SRCH41               43954 35238021
 003856 9601 BFB2      09862        6089          OI    USINDX1,MSWON          SET DATA ITEM               43954 35244021
 00385A 47F0 F0A2      0383A        6090          B     SRCH4               BRANCH SRCH4                   43954 35250021
 00385E 9536 C000      0988B        6091 SRCH41   CLI   GOTTEN,XX36           IS IT A INDEX NAME           43954 35256021
 003862 4770 F498      03C30        6092        BNE   SRCHERR2              NO, ERROR                            35262021
 003866 9601 BFB1      09861        6093        OI    VRYIND2,MSWON         SECOND VARY IS INDNM                 35268021
 00386A 47F0 F0A2      0383A        6094        B     SRCH4                 IT IS VALID                          35274021
 00386E 45E0 9A72      078CA        6095 SRCH6  BAL   RCS,PUPLGN            STORELGN1 IN STRING                  35280021
 003872 D201 BE02 BE1C 096B2 096CC  6096          MVC   RGN+NX1(LX2),NXTLGN                                      35286021
 003878 94FE BF93      09843        6097        NI    DRYRUN,MSWOFF                                              35292021
 00387C 45E0 7734      056EC        6098        BAL   RCS,GENDAT            WRITE 'GO' TO OUTPUT                 35298021
 003880 4120 A55E      08256        6099        LA    RW2,CBGO                                                   35304021
 003884 45E0 7734      056EC        6100        BAL   RCS,GENDAT            WRITE RGN TO OUTPUT                  35310021
 003888 4120 BE01      096B1        6101        LA    RW2,RGN               GO RGN                               35316021
 00388C D201 BF06 BE02 097B6 096B2  6102          MVC   SVGN1+NX1(LX2),RGN+NX1 SAVE FOR LGN LATER                35322021
 003892 45E0 9A72      078CA        6103        BAL   RCS,PUPLGN            GET NEW GN NUMBER                    35328021
 003896 D201 BDFF BE1C 096AF 096CC  6104          MVC   LGN+NX1(LX2),NXTLGN                                      35334021
 00389C 45E0 7734      056EC        6105        BAL   RCS,GENDAT            WRITE LGN TO OUTPUT                  35340021
 0038A0 4120 BDFE      096AE        6106        LA    RW2,LGN        LGN PTS TO IMP STATEMENT ATEND              35346021
 0038A4 D201 BF09 BDFF 097B9 096AF  6107          MVC   SVGN2+NX1(LX2),LGN+NX1 SAVE TO REFERENCE LATER           35352021
 0038AA D501 C000 A4EE 0988B 081E6  6108          CLC   GOTTEN(LX2),CBAT     SEEK AT END (OPTIONAL)              35358021
 0038B0 4770 F120      038B8        6109          BNE   *+NX8               'AT' MISSING, BUT OPTIONAL           35364021
 0038B4 45E0 7566      0551E        6110 SRCH6A BAL   RCS,GETNXT            GET NEXT INPUT- IS IT END            35370021
 0038B8 D501 C000 A4F6 0988B 081EE  6111          CLC   GOTTEN(LX2),CBEND                                        35376021
 0038BE 4770 F14A      038E2        6112        BNE   SRCH9                 NOT 'END'                            35382021
                                    6113 *                                                                       35388021
 0038C2 45E0 9A72      078CA        6114 SRCH7  BAL   RCS,PUPLGN            GET NEXT NEW GN                      35394021
 0038C6 D201 BF03 BE1C 097B3 096CC  6115          MVC   WHENGN+NX1(LX2),NXTLGN SAVE RGNID FOR LGN BEFORE WHEN    35400021
 0038CC D201 BF0C BF03 097BC 097B3  6116          MVC   SVGN3+NX1(LX2),WHENGN+NX1 SAVE FOR FUTURE REF            35406021
 0038D2 9101 BFAD      0985D        6117        TM    ATNDFND,MSWON         USER'S OR PH4'S AT END               35412021
 0038D6 4710 F2C6      03A5E        6118        BO    SRCH20                MUST GENR GO NXTSENT-PH4 AT END      35418021
 0038DA 45E0 7566      0551E        6119        BAL   RCS,GETNXT            VERB SHOULD FOLLOW                   35424021
 0038DE 47F0 F196      0392E        6120        B     SRCH10                CHECK IF IT IS VERB                  35430021
                                    6121 *                                                                       35436021
                                    6122 *    AT OR END NOT FOUND-SEE IF NEXT ENTITY IS  WHEN,                   35442021
                                    6123 *    VERB,OR GARBAGE                                                    35448021
 0038E2 D501 C000 A520 0988B 08218  6124 SRCH9    CLC   GOTTEN(LX2),CBWHEN                                       35454021
 0038E8 4780 F18E      03926        6125        BE    SRCH9A                OK-AT END OPTIONAL                   35460021
 0038EC 45E0 9BDA      07A32        6126        BAL   RCS,ERROR             WHEN NOT FOUND - DISCARD             35466021
 0038F0 4110 A2A9      07FA1        6127        LA    RW1,ELST68                                                 35472021
 0038F4 45E0 8C32      06BEA        6128 SRCHE0 BAL   RCS,ISEND             IS IT VERB,AT END OR WHEN            35478021
 0038F8 47F0 F168      03900        6129        B     SRCHE1                IT IS NOT A VERB                     35484021
 0038FC 47F0 F2A2      03A3A        6130        B     SRCH19                VERB- GIVE UP                        35490021
 003900 D501 C000 A520 0988B 08218  6131 SRCHE1   CLC   GOTTEN(LX2),CBWHEN                                       35496021
 003906 4780 F18E      03926        6132        BE    SRCH9A                'WHEN' FOUND                         35502021
 00390A D501 C000 A4EE 0988B 081E6  6133          CLC   GOTTEN(LX2),CBAT     MAYBE GARBAGE BEFORE AT END         35508021
1PH40     IKFCBL40                                                                                              PAGE  131
-  LOC  OBJECT CODE    ADDR1 ADDR2  STMT   SOURCE STATEMENT                                       ASM 0201 11.03 02/14/15
0003910 4780 F11C      038B4        6134        BE    SRCH6A                'AT' FOUND                           35514021
 003914 D501 C000 A4F6 0988B 081EE  6135          CLC   GOTTEN(LX2),CBEND                                        35520021
 00391A 4780 F12A      038C2        6136        BE    SRCH7                 'END' FOUND                          35526021
 00391E 45E0 7566      0551E        6137        BAL   RCS,GETNXT            GET NEXT INPUT                       35532021
 003922 47F0 F15C      038F4        6138        BC    UNCOND,SRCHE0         SCAN TILL AT END,WHEN,OR VERB        35538021
 003926 9601 BFAD      0985D        6139 SRCH9A OI    ATNDFND,MSWON                                              35544021
 00392A 47F0 F12A      038C2        6140        B     SRCH7                 GET NEW GN NUMBER                    35550021
                                    6141 *                                                                       35556021
                                    6142 *      GIVE CONTROL  TO IMPERATIVE STATEMENT                            35562021
                                    6143 *      IF RETURNS CONTROL HERE                                          35568021
                                    6144 *                                                                       35574021
 00392E 9544 C000      0988B        6145 SRCH10 CLI   GOTTEN,MVERB                                               35580021
 003932 4770 F4B0      03C48        6146        BNE   SRCHERR3              ERROR-IMP.STATEMENT MUST FOLLOW      35586021
 003936 D501 C000 A346 0988B 0803E  6147          CLC   GOTTEN(LX2),CBEOS    CONDITION.                          35592021
 00393C 4780 F21E      039B6        6148        BE    SRCH1B                EOS                                  35598021
 003940 D501 C000 A526 0988B 0821E  6149 SRCH1A   CLC   GOTTEN(LX2),CBSRCH   IS VERB SEARCH                      35604021
 003946 4770 F1DA      03972        6150        BNE   CKSA                  MAKE SURE NOT SEARCHALL              35610021
 00394A 4100 A7D1      084C9        6151 SERR   LA    RA0,BCDIMPST                                               35616021
 00394E 45E0 7734      056EC        6152        BAL   RCS,GENDAT            WRITE GN1 TO OUTPUT                  35622021
 003952 4120 BF05      097B5        6153        LA    RW2,SVGN1                                                  35628021
 003956 45E0 7734      056EC        6154        BAL   RCS,GENDAT            WRITE WHEN TO OUTPUT                 35634021
 00395A 4120 BF02      097B2        6155        LA    RW2,WHENGN                                                 35640021
 00395E 45E0 F450      03BE8        6156        BAL   RCS,ZERPSH         PREVENT VARYGNS FROM BEING GENERATE     35646021
                                    6157 *                                  LATER                                35652021
 003962 94FE BFB7      09867        6158        NI    SEARCHSW,MSWOFF                                            35658021
 003966 94FE BFB9      09869        6159        NI    SRCHALSW,MSWOFF                                            35664021
 00396A 94FE BFB5      09865        6160        NI    GOSW,MSWOFF                                                35670021
 00396E 47F0 7204      051BC        6161        BC    UNCOND,IDGVUP         GIVE UP                              35676021
 003972 D501 C000 A528 0988B 08220  6162 CKSA     CLC   GOTTEN(LX2),CBSRCHA                                      35682021
 003978 4780 F1B2      0394A        6163        BE    SERR                ERROR- GIVE UP                         35688021
 00397C D501 C000 A34E 0988B 08046  6164          CLC   GOTTEN(LX2),CBIF    IS IT IF                             35694021
 003982 4780 F1B2      0394A        6165        BE    SERR               YES- DONT PROCESS IT                    35700021
 003986 94FE BFB5      09865        6166        NI    GOSW,MSWOFF                                                35706021
 00398A 47F0 7134      050EC        6167        B     ID5                   HAVE IDENT INITIALIZE AND BRANCH     35712021
                             0398E  6168 SRCH11 EQU   *                                                          35718021
                                    6169 *  VERB ANALYZER RETURNS HERE                                           35724021
 00398E D501 C000 A346 0988B 0803E  6170          CLC   GOTTEN(LX2),CBEOS                                        35730021
 003994 4780 F21E      039B6        6171        BE    SRCH1B                EOS                                  35736021
 003998 D501 C000 A344 0988B 0803C  6172          CLC   GOTTEN(LX2),CBELSE  4408 ELEMENT  COBOL ELSE       56177 35742021
 00399E 4770 F216      039AE        6173          BNE   SRCHVB              NOT ELSE                       56177 35748021
 0039A2 9101 BFDA      0988A        6174          TM    IFSW1,MSWON         THIS SEARCH IS IN IF IMP.      56177 35754021
 0039A6 4710 F216      039AE        6175          BO    SRCHVB              YES, FROM IF   PROCESS         56177 35760021
 0039AA 47F0 F498      03C30        6176          B     SRCHERR2            ELSE IS SPECIFIED IN SEARCH    56177 35766021
 0039AE                             6177 SRCHVB   DS    0H                                                 56177 35772021
 0039AE 9544 C000      0988B        6178        CLI   GOTTEN,MVERB                                               35778021
 0039B2 4780 F1A8      03940        6179        BE    SRCH1A                YES - VERB                           35784021
 0039B6 45E0 7F5C      05F14        6180 SRCH1B BAL   RCS,PZSTRT            REINIT. STRING AND DFSBS             35790021
 0039BA 4120 B048      088F8        6181        LA    RW2,ASTRNG                                                 35796021
 0039BE 4110 B090      08940        6182        LA    RW1,ADFSBS                                                 35802021
 0039C2 94FE BFC2      09872        6183        NI    STO5SW,MSWOFF                                              35808021
 0039C6 9101 BFB5      09865        6184        TM    GOSW,MSWON                                                 35814021
 0039CA 4780 F2C6      03A5E        6185        BZ    SRCH20                GENR GO NEXT SENTENCE                35820021
 0039CE 94FE BFB5      09865        6186        NI    GOSW,MSWOFF           LAST VERB WAS 'GO TO '               35826021
                                    6187 *                                                                       35832021
                                    6188 *      SEEK  WHEN                                                       35838021
1PH40     IKFCBL40                                                                                              PAGE  132
-  LOC  OBJECT CODE    ADDR1 ADDR2  STMT   SOURCE STATEMENT                                       ASM 0201 11.03 02/14/15
0                                   6189 *                                                                       35844021
 0039D2 D501 C000 A520 0988B 08218  6190 SRCH12   CLC   GOTTEN(LX2),CBWHEN                                       35850021
 0039D8 4770 F292      03A2A        6191        BNE   SRCH13                NOT 'WHEN'                           35856021
 0039DC 9101 BFB9      09869        6192 SRCH12A TM   SRCHALSW,MSWON                                             35862021
 0039E0 4710 F286      03A1E        6193        BO    SRCH12C               SWITCH IS ON                         35868021
 0039E4                             6194 SRCH12B  DS    0H                                                 58946 35874021
 0039E4 9101 BFB6      09866        6195          TM    WHENSW,MSWON        IS THIS FIRST WHEN OF SEARCH   58946 35880021
 0039E8 4710 F260      039F8        6196          BO    SRCH12E             NO, GO TO GEN GNLIST           58946 35886021
 0039EC 45E0 7734      056EC        6197          BAL   RCS,GENDAT          YES, GEN WHEN GN               58946 35892021
 0039F0 4120 BF02      097B2        6198          LA    RW2,WHENGN                                         58946 35898021
 0039F4 47F0 F264      039FC        6199          B     SRCH12F             BYPASS GENLIST                 58946 35904021
 0039F8                             6200 SRCH12E  DS    0H                                                 58946 35910021
 0039F8 45E0 7964      0591C        6201          BAL   RCS,GENLST          GENLIST FROM 2ND WHEN ON       58946 35916021
 0039FC                             6202 SRCH12F  DS    0H                                                 58946 35922021
 0039FC 9601 BFB6      09866        6203        OI    WHENSW,MSWON          AT LEAST 1 WHEN FOUND                35928021
 003A00 94FE BF9C      0984C        6204        NI    TRUVRB,MSWOFF                                              35934021
 003A04 45E0 7566      0551E        6205        BAL   RCS,GETNXT            GET NEXT INPUT                       35940021
 003A08 9101 BFB9      09869        6206         TM   SRCHALSW,MSWON        CHECK SRCHALL BEFORE                 35946021
 003A0C 4710 F27E      03A16        6207        BO    *+10                  BRANCH TO IF                         35952021
 003A10 58F0 A308      08000        6208        L     RVRB,AIF                                                   35958021
 003A14 07FF                        6209        BR    RVRB                  GO TO IF                             35964021
 003A16 58F0 A468      08160        6210         L    RVRB,ASRCHAL                                               35970021
                             03C92  6211         USING SRCHAL,RVRB                                               35976021
 003A1A 47F0 F0E2      03D74        6212         BC   UNCOND,WHEN0          WHAT IS FOUND AFTER 'WHEN'           35982021
                             03798  6213        USING  SEARCH,RVRB                                               35988021
 003A1E 9101 BFB6      09866        6214 SRCH12C TM   WHENSW,MSWON                                               35994021
 003A22 4780 F24C      039E4        6215        BZ    SRCH12B               THERE IS NOT EVEN 1 WHEN             36000021
 003A26 47F0 F3DE      03B76        6216        BC    UNCOND,SRCH30         LET IDENT  FIND GARBAGE              36006021
                                    6217 *                                                                       36012021
                                    6218 * WHEN NOT FOUND                                                        36018021
                                    6219 *                                                                       36024021
 003A2A 9101 BFB6      09866        6220 SRCH13 TM    WHENSW,MSWON          WAS THERE EVER A WHEN                36030021
 003A2E 4710 F2D2      03A6A        6221        BO    SRCH27                YES-PROCESS VARYINGS                 36036021
 003A32 9544 C000      0988B        6222        CLI   GOTTEN,MVERB          NO WHEN-IS THIS END                  36042021
 003A36 4770 F4D4      03C6C        6223        BNE   SRCHERR4              NO-SCAN TILL WHEN OR VERB            36048021
 003A3A 45E0 7734      056EC        6224 SRCH19 BAL   RCS,GENDAT            ERROR EXIT                           36054021
 003A3E 4120 BF05      097B5        6225        LA    RW2,SVGN1                                                  36060021
 003A42 94FE BFB7      09867        6226 SRCH19A NI   SEARCHSW,MSWOFF                                            36066021
 003A46 94FE BFB9      09869        6227         NI   SRCHALSW,MSWOFF                                            36072021
 003A4A 94FE BFB5      09865        6228        NI    GOSW,MSWOFF                                                36078021
 003A4E 9101 BFB6      09866        6229        TM    WHENSW,MSWON                                               36084021
 003A52 4710 720C      051C4        6230        BO    IDERR     SRCHALL ERROR- MSG ALREADY WRITTEN               36090021
 003A56 4100 A520      08218        6231        LA    RA0,CBWHEN                                                 36096021
 003A5A 47F0 7204      051BC        6232        BC    UNCOND,IDGVUP         LET IDENT WRITE MESSAGE              36102021
                                    6233 *                                                                       36108021
                                    6234 * GO TO NEXT SENTENCE NEEDED                                            36114021
                                    6235 *                                                                       36120021
 003A5E 45E0 8180      06138        6236 SRCH20 BAL   RCS,PGONXT            STORE 'GO NEXT SENTENCE'             36126021
 003A62 45E0 7766      0571E        6237        BAL   RCS,GENSTR            GENERATE STRING                      36132021
 003A66 47F0 F23A      039D2        6238        B     SRCH12                SEEK 'WHEN'                          36138021
                                    6239 *                                                                       36144021
                                    6240 * PROCESS VARYINGS                                                      36150021
                                    6241 *                                                                       36156021
                                    6242 *                                                                       36162021
 003A6A 9101 BFB9      09869        6243 SRCH27 TM    SRCHALSW,MSWON                                             36168021
1PH40     IKFCBL40                                                                                              PAGE  133
-  LOC  OBJECT CODE    ADDR1 ADDR2  STMT   SOURCE STATEMENT                                       ASM 0201 11.03 02/14/15
0003A6E 4710 F3DE      03B76        6244        BO    SRCH30    SKIP VARYINGS FOR SEACH-ALL                      36174021
 003A72 45E0 7964      0591C        6245          BAL   RCS,GENLST          GEN. GNDEF TXT  FROM TIB 17    38988 36180021
                                    6246 *                                                                 38988 36186021
 003A76 45E0 8068      06020        6247        BAL   RCS,STLOOP            STORE INDNM1,INDVRY1,NUM-LIT1        36192021
 003A7A 0003                        6248        DC    XL2'3'                STORE  3 ELEMENTS                    36198021
 003A7C 4140 BF45      097F5        6249        LA    RW4,SETUP             SET INDNM1 UP BY 1                   36204021
 003A80 4140 BAE4      09394        6250        LA    RW4,INDVRY1                                                36210021
 003A84 4140 BF54      09804        6251        LA    RW4,NUMLT1                                                 36216021
 003A88 45E0 7766      0571E        6252        BAL   RCS,GENSTR            GENERATE STRING                      36222021
 003A8C 9101 BFB3      09863        6253        TM    TWOVRY,MSWON          WERE THERE 2 VARYINGS                36228021
 003A90 4780 F3DE      03B76        6254        BZ    SRCH30                NO                                   36234021
 003A94 9101 BFB1      09861        6255        TM    VRYIND2,MSWON         IS SECOND AN INDEX-NAME              36240021
 003A98 4710 F326      03ABE        6256          BO    SRCH281             YES                            43954 36246021
 003A9C 9101 BFB2      09862        6257          TM    USINDX1,MSWON             INDEX-DATA-ITEM          43954 36252021
 003AA0 4780 F340      03AD8        6258          BZ    SRCH28               NO                            43954 36258021
 003AA4 45E0 8068      06020        6259          BAL   RCS,STLOOP        STORE SET VARY2,VARY1            43954 36264021
 003AA8 0003                        6260          DC    XL2'3'   STORE                                     43954 36270021
 003AAA 4140 BF42      097F2        6261          LA    RW4,SETP2           SET FORMAT 1                   43954 36276021
 003AAE 4140 B9EC      0929C        6262          LA    RW4,VARY2SV                                        43954 36282021
 003AB2 4140 BAE4      09394        6263          LA    RW4,INDVRY1                                        43954 36288021
 003AB6 45E0 7766      0571E        6264          BAL   RCS,GENSTR          GENERATE STRING                43954 36294021
 003ABA 47F0 F3DE      03B76        6265          BC    UNCOND,SRCH30            GO TO SERCH30             43954 36300021
                                    6266 *                                                                       36306021
 003ABE 45E0 8068      06020        6267 SRCH281  BAL   RCS,STLOOP                 OUTPUT STRING           43954 36312021
 003AC2 0003                        6268        DC    XL2'3'                STORE  3 ELEMENTS                    36318021
 003AC4 4140 BF45      097F5        6269        LA    RW4,SETUP                                                  36324021
 003AC8 4140 B9EC      0929C        6270        LA    RW4,VARY2SV                                                36330021
 003ACC 4140 BF54      09804        6271        LA    RW4,NUMLT1                                                 36336021
 003AD0 45E0 7766      0571E        6272        BAL   RCS,GENSTR            GENERATE STRING                      36342021
 003AD4 47F0 F3DE      03B76        6273        BC    UNCOND,SRCH30         SEARCHALL                            36348021
                                    6274 *                                                                       36354021
                                    6275 *                                                                       36360021
 003AD8 9101 BFC4      09874        6276 SRCH28 TM    VRYSS,MSWON          WAS OP FOUND TO BE SUBSCRIPTED        36366021
 003ADC 4780 F37E      03B16        6277        BZ    SRCH29                NO                                   36372021
 003AE0 41E0 BA68      09318        6278        LA    RCS,SVSRCHT       TELL SUBSCR TO BUILD A STRING            36378021
 003AE4 50E0 BC68      09518        6279        ST    RCS,THISOP                                                 36384021
 003AE8 41C0 B9EC      0929C        6280        LA    RIN,VARY2SV                                                36390021
 003AEC 9601 BF7A      0982A        6281        OI    CORRSW,MSWON                                               36396021
 003AF0 9601 BF94      09844        6282        OI    OPSSSW,MSWON                                               36402021
 003AF4 45E0 81AC      06164        6283        BAL   RCS,RDUCOP            IS IT VALID DATA OPERAND             36408021
 003AF8 47F0 F364      03AFC        6284          BC    UNCOND,*+NX4        NO, NOT A DATA OP                    36414021
 003AFC D27B B678 BAF4 08F28 093A4  6285          MVC   PSTFLD(LX124),CURENT                                     36420021
 003B02 D27B B9EC BAF4 0929C 093A4  6286          MVC   VARY2SV(LX124),CURENT                                    36426021
 003B08 D201 BF4C A598 097FC 08290  6287          MVC   STRCNT(LX2),N0                                           36432021
 003B0E 45E0 97CA      07622        6288        BAL   RCS,DUPSS             CREATE NEW SS-DEFINING STRING        36438021
 003B12 47F0 F384      03B1C        6289        B     SRCH29A               PROCESS NON-SUBSCR OP                36444021
                                    6290 * NON-SUBSCRIPTED OP                                                    36450021
 003B16 D27B B678 B9EC 08F28 0929C  6291 SRCH29   MVC   PSTFLD(LX124),VARY2SV                                    36456021
 003B1C D702 BEE5 BEE5 09795 09795  6292 SRCH29A  XC    DMAX(LX3),DMAX                                           36462021
 003B22 45E0 8068      06020        6293        BAL   RCS,STLOOP            STORE 6 ENTITIES                     36468021
 003B26 0006                        6294        DC    XL2'6'                STORE 6                              36474021
 003B28 4140 BEE0      09790        6295        LA    RW4,EVAL                                                   36480021
 003B2C 4140 BEE3      09793        6296          LA    RW4,EVAL+NX3                                             36486021
 003B30 4140 B678      08F28        6297        LA    RW4,PSTFLD                                                 36492021
 003B34 4140 A55B      08253        6298        LA    RW4,ADDVRB                                                 36498021
1PH40     IKFCBL40                                                                                              PAGE  134
-  LOC  OBJECT CODE    ADDR1 ADDR2  STMT   SOURCE STATEMENT                                       ASM 0201 11.03 02/14/15
0003B38 4140 BF54      09804        6299        LA    RW4,NUMLT1                                                 36504021
 003B3C 4140 B9EC      0929C        6300        LA    RW4,VARY2SV                                                36510021
 003B40 9230 B9EC      0929C        6301        MVI   VARY2SV,MDN                NO 31 HEADER HERE               36516021
 003B44 45E0 9A2E      07886        6302        BAL   RCS,PUPIR             INCREMENT IR BY 1                    36522021
 003B48 9205 BED2      09782        6303          MVI   IRINFO+NX2,XX05      MOVE CODE FOR STORE IN INRINFO      36528021
 003B4C 45E0 8068      06020        6304        BAL   RCS,STLOOP            STORE 6 ENTITIES                     36534021
 003B50 0006                        6305        DC    XL2'6'                STORE 6                              36540021
 003B52 4140 BE11      096C1        6306        LA    RW4,IR                                                     36546021
 003B56 4140 BED0      09780        6307        LA    RW4,IRINFO                                                 36552021
 003B5A 4140 B9EC      0929C        6308        LA    RW4,VARY2SV                                                36558021
 003B5E 4140 A558      08250        6309        LA    RW4,PSTVRB                                                 36564021
 003B62 4140 BE11      096C1        6310        LA    RW4,IR                                                     36570021
 003B66 4140 B678      08F28        6311        LA    RW4,PSTFLD                                                 36576021
 003B6A 45E0 7766      0571E        6312        BAL   RCS,GENSTR            GENERATE STRING                      36582021
 003B6E 94FE BF7A      0982A        6313        NI    CORRSW,MSWOFF                                              36588021
 003B72 58C0 BC70      09520        6314        L    RIN,TRUPNT                                                  36594021
                                    6315 *   OK EXIT                                                             36600021
 003B76 9101 BFB8      09868        6316 SRCH30 TM    SATOS,MSWON           WAS THIS ORIGINALLY SEARCHALL        36606021
 003B7A 4710 F3F6      03B8E        6317        BO    SRCH31                AVOID LGN BEFORE IF                  36612021
 003B7E 45E0 7734      056EC        6318        BAL    RCS,GENDAT           NO, WRITE TO OUTPUT                  36618021
 003B82 4120 BF05      097B5        6319        LA    RW2,SVGN1                                                  36624021
 003B86 9101 BFB9      09869        6320        TM    SRCHALSW,MSWON    CALL FROM SEARCHALL                      36630021
 003B8A 4710 F41C      03BB4        6321        BO    SRCH32                YES- AVOID IF CLAUSE                 36636021
 003B8E 45E0 8068      06020        6322 SRCH31 BAL   RCS,STLOOP            STORE 7 ENTITIES                     36642021
 003B92 0007                        6323        DC    XL2'7'                GREATER THAN MAXIMUM                 36648021
 003B94 4140 BEE0      09790        6324        LA    RW4,EVAL              NUMBER OCCURENCES                    36654021
 003B98 4140 BEE3      09793        6325          LA    RW4,EVAL+NX3         GO TO TEST WHEN                     36660021
 003B9C 4140 BAE4      09394        6326        LA    RW4,INDVRY1           CONDITION-ELSE FALL                  36666021
 003BA0 4140 BF3F      097EF        6327        LA    RW4,IFGTIND                                                36672021
 003BA4 4140 BAE4      09394        6328        LA    RW4,INDVRY1           STATEMENT.                           36678021
 003BA8 4140 B970      09220        6329        LA    RW4,MAXSAVE                                                36684021
 003BAC 4140 BF08      097B8        6330        LA    RW4,SVGN2                                                  36690021
 003BB0 45E0 7766      0571E        6331        BAL   RCS,GENSTR            GENERATE STRING                      36696021
 003BB4 45E0 7734      056EC        6332 SRCH32 BAL   RCS,GENDAT            WRITE GO TO OUTPUT                   36702021
 003BB8 4120 A55E      08256        6333        LA    RW2,CBGO                                                   36708021
 003BBC 45E0 7734      056EC        6334        BAL   RCS,GENDAT            WRITE LGN3 TO OUTPUT                 36714021
 003BC0 4120 BF0B      097BB        6335        LA    RW2,SVGN3                                                  36720021
 003BC4 94FE BFB7      09867        6336        NI    SEARCHSW,MSWOFF                                            36726021
 003BC8 9101 BFB8      09868        6337        TM    SATOS,MSWON           BAD SRCHLL                           36732021
 003BCC 4710 F466      03BFE        6338        BO    SRCH33                YES-ISSUE LGN1-SET IND TO 1          36738021
 003BD0 94FE BFB5      09865        6339        NI    GOSW,MSWOFF                                                36744021
 003BD4 94FE BFB9      09869        6340        NI    SRCHALSW,MSWOFF                                            36750021
 003BD8 9601 BF73      09823        6341        OI    GENRED,MSWON                                               36756021
 003BDC 94FE BF9B      0984B        6342        NI    CONDSW,MSWOFF                                              36762021
 003BE0 45E0 F450      03BE8        6343        BAL   RCS,ZERPSH      PREVENT VARYGNS FROM BEING GENERATED       36768021
                                    6344 *                                  LATER                                36774021
 003BE4 47F0 7000      04FB8        6345        B     IDENT                 EXIT                                 36780021
 003BE8 D201 B08C A598 0893C 08290  6346 ZERPSH   MVC   DSPUSH(LX2),N0                                           36786021
 003BEE 5810 B088      08938        6347        L     RW1,APUSH       TIB                                        36792021
 003BF2 5811 0000      00000        6348          L     RW1,DX0(RW1)   TAMM                                      36798021
 003BF6 D201 1004 A598 00004 08290  6349          MVC   DX4(LX2,RW1),N0         ZERO TAMM DISPLACEMENT           36804021
 003BFC 07FE                        6350        BR    RCS           RETURN                                       36810021
 003BFE 45E0 7734      056EC        6351 SRCH33 BAL   RCS,GENDAT            WRITE LGN1 TO OUTPUT                 36816021
 003C02 4120 BF05      097B5        6352        LA    RW2,SVGN1             NOW ISSUE LGN1                       36822021
 003C06 45E0 8068      06020        6353        BAL   RCS,STLOOP            STORE 3 ENTITIES                     36828021
1PH40     IKFCBL40                                                                                              PAGE  135
-  LOC  OBJECT CODE    ADDR1 ADDR2  STMT   SOURCE STATEMENT                                       ASM 0201 11.03 02/14/15
0003C0A 0003                        6354        DC    XL2'3'                STORE  3 ELEMENTS                    36834021
 003C0C 4140 BF42      097F2        6355        LA    RW4,SETP2              SET                                 36840021
 003C10 4140 BAE4      09394        6356        LA    RW4,INDVRY1           INDNM1   TO                          36846021
 003C14 4140 BF54      09804        6357        LA    RW4,NUMLT1                                                 36852021
 003C18 45E0 7766      0571E        6358        BAL   RCS,GENSTR            GENERATE STRING                      36858021
 003C1C 94FE BFB8      09868        6359        NI    SATOS,MSWOFF                                               36864021
 003C20 47F0 F41C      03BB4        6360        B     SRCH32                WRITE GO-LGN3 TO OUTPUT              36870021
                                    6361 *                                                                       36876021
                                    6362 * ERRORS FOUND WHILE  PROCESSING  SEARCH                                36882021
                                    6363 *                                                                       36888021
 003C24 94FE BFB7      09867        6364 SRCHERR1  NI SEARCHSW,MSWOFF                                            36894021
 003C28 4100 A660      08358        6365        LA    RA0,BCDDN             IDENTIFIER-1 INVALID                 36900021
 003C2C 47F0 7204      051BC        6366        BC    UNCOND,IDGVUP         GIVE UP                              36906021
 003C30 45E0 9BDA      07A32        6367 SRCHERR2  BAL  RCS,ERROR           WRITE MSG 4                          36912021
 003C34 4110 A00F      07D07        6368           LA   RW1,ELST04          USER-VARYING INVALID                 36918021
 003C38 9120 C000      0988B        6369        TM    GOTTEN,MOP         IS IT A DATA OPERAND                    36924021
 003C3C 4780 F0D6      0386E        6370        BZ    SRCH6               NO-SAVE                                36930021
 003C40 45E0 7566      0551E        6371        BAL   RCS,GETNXT           DISCARD INVALID OP                    36936021
 003C44 47F0 F0D6      0386E        6372        B     SRCH6                 USE PH3'S VARYING                    36942021
 003C48 9101 BFB5      09865        6373 SRCHERR3  TM  GOSW,MSWON           EXPECTING VERB TO FOLLOW COND        36948021
 003C4C 4710 F23A      039D2        6374            BO  SRCH12              MAYBE IF GENERATED NXTSNT            36954021
 003C50                             6375 SRCHE3A  DS    0H                                                 99998 36960021
 003C50 4100 A7E8      084E0        6376          LA    RA0,BCDOR           PARM = OR                      99998 36966021
 003C54 9101 BFB9      09869        6377          TM    SRCHALSW,MSWON      FROM SEARCH ALL                99998 36972021
 003C58 4780 F4C8      03C60        6378          BZ    SRCHE3B             NO                             99998 36978021
 003C5C 4100 A7F0      084E8        6379          LA    RA0,BCDBLNK         YES, RESET PARM EQ BLANK       99998 36984021
 003C60                             6380 SRCHE3B  DS    0H                                                 99998 36990021
 003C60 45E0 9BDA      07A32        6381          BAL   RCS,ERROR           WRITE ERROR MSG                99998 36996021
 003C64 4110 A0BA      07DB2        6382            LA  RW1,ELST1E                                               37002021
 003C68 47F0 F4E8      03C80        6383          B     SRCHE5              GEN. EMSG ERSYM                54395 37008021
 003C6C 45E0 9BDA      07A32        6384 SRCHERR4     BAL RCS,ERROR         EXPECTING WHEN (1ST)                 37014021
 003C70 4110 A2A9      07FA1        6385        LA    RW1,ELST68                                                 37020021
 003C74 45E0 8C32      06BEA        6386 SRCHE4 BAL   RCS,ISEND             VERB, LHN OR BREAK                   37026021
 003C78 47F0 F4E8      03C80        6387        B     SRCHE5                NOT A VERB                           37032021
 003C7C 47F0 F2A2      03A3A        6388        B     SRCH19                VERB-GIVE UP SINCE AT END            37038021
                                    6389 *                                  VERBS HAVE BEEN PROCESSED            37044021
                                    6390 *                                  AND 1ST WHEN NEVER APPEARED          37050021
 003C80 D501 C000 A520 0988B 08218  6391 SRCHE5   CLC   GOTTEN(LX2),CBWHEN                                       37056021
 003C86 4780 F244      039DC        6392        BE    SRCH12A               YES, WHEN                            37062021
 003C8A 45E0 7566      0551E        6393        BAL   RCS,GETNXT            GET NEXT INPUT                       37068021
 003C8E 47F0 F4DC      03C74        6394        BC    UNCOND,SRCHE4         SCAN TILL WHEN OR NEXT VERB          37074021
                                    6395 *=1                  SEARCHALL                                          37080021
                                    6396 *                                                                       37086021
                                    6397 *   SEARCH ALL                                                          37092021
                                    6398 *                                                                       37098021
                                    6399 * STRINGS PRODUCED-                                                     37104021
                                    6400 * SOURCE- SEARCHALL ID1  CT.OF KEYS KEYS INDNM1   MAX-OCCUR             37110021
                                    6401 *         MIN-OCCUR.; AT END GO PN1 ; WHEN KEY1=VALUE GO PN2            37116021
                                    6402 *                                                                       37122021
                                    6403 * OUTPUT   GO RGN1                                                      37128021
                                    6404 *LGN0      GO PN1                                                       37134021
                                    6405 *         LGN2                                                          37140021
                                    6406 *         WHENCOND- WHEN SIGNAL     ID1   MAX OCCUR  RGN0               37146021
                                    6407 *                  EVAL KEY1                                            37152021
                                    6408 *                  EQU  VALUE KEY1                                      37158021
1PH40     IKFCBL40                                                                                              PAGE  136
-  LOC  OBJECT CODE    ADDR1 ADDR2  STMT   SOURCE STATEMENT                                       ASM 0201 11.03 02/14/15
0                                   6409 *                  ENDWHEN                                              37164021
                                    6410 *          GO PN2                                                       37170021
                                    6411 *          LGN1-  GO RGN2                                               37176021
                                    6412 *                                                                       37182021
                                    6413 * ERROR PROCESSING-                                                     37188021
                                    6414 *        IF  ID1 INVALID,SKIP STATEMENT.                                37194021
                                    6415 *        IF  MORE THAN 12 KEYS,WRITE MSG, IGNORE-EXCESS.                37200021
                                    6416 *        IF  ERROR IN WHEN CONDITION,WRITE MSG, STOP SCAN.              37206021
                                    6417 *        IF  KEY FLOATING POINT  OR IF  KEY-N  TESTED BEFORE            37212021
                                    6418 *        KEY- N - 1, MSG AND CHANGE TO SEARCH FORMAT-1.                 37218021
                                    6419 *                                                                       37224021
                                    6420 * ROUTINES CALLED:GETNXT,GETALL,ERROR,STLOOP,GENDAT,GNARTH,OKCOMP O     37230021
                                    6421 *                 IF RTN.,SEARCH TO PROCESS AT END AND IMP. STATEMN     37236021
                                    6422 *                 AFTER CONDITIONS,FORMLA,GETMOD,DECMAX                 37242021
                                    6423 *                                                                       37248021
                                    6424 * SWITCHES:       FLKEY- IF KEY FOUND TO BE FLOAT PT                    37254021
                                    6425 *                 NOKEY- IF TERM OF WHEN IS NOT KEY                     37260021
                                    6426 *                 KEYFND- ............... IS A KEY                      37266021
                                    6427 *                 SRCHALSW-TO SHOW IN SEARCH ALL                        37272021
                                    6428 *                 LV88SW-FOR COND NM                                    37278021
                                    6429 *   SATOS-...................SEARCHALL HAS BEEN (WILL BE) CHANGED       37284021
                                    6430 *     TO SEARCH                                                         37290021
                                    6431 *      SPSALL- GETNXT AND GNARTH RECOGNIZE CALL FROM SEARCHALL          37296021
                                    6432 *                                                                       37302021
                                    6433 * NOTES- IF SEARCH ALL CHANGED TO SEARCH- SET INDNM TO 1                37308021
                                    6434 *     IS GENERATED IN SEARCH ROUTINE TO GIVE INDNM1 AN INITIAL VALU     37314021
                                    6435 *                                                                       37320021
                             03C92  6436        USING *,RVRB                                                     37326021
                             03C92  6437 SRCHAL EQU   *                                                          37332021
 003C92 4100 A660      08358        6438        LA    RA0,BCDDN                                                  37338021
 003C96 9530 C000      0988B        6439        CLI   GOTTEN,MDN            IS  ID1 VALID                        37344021
 003C9A 4770 7204      051BC        6440        BNE   IDGVUP                NO-GIVE UP                           37350021
 003C9E 45E0 76EC      056A4        6441        BAL   RCS,GETALL     SAVE ID1 TO PASS TO PH5                     37356021
 003CA2 4120 BA68      09318        6442        LA    RW2,SVSRCHT                                                37362021
                                    6443 *      INITIALIZE                                                       37368021
                                    6444 *                                                                       37374021
 003CA6 45E0 7F5C      05F14        6445        BAL   RCS,PZSTRT            REINITIALIZE TAMER TABLES            37380021
 003CAA 4110 B098      08948        6446        LA    RW1,AKEYTB                                                 37386021
 003CAE 94FE BFBC      0986C        6447        NI    FLKEY,MSWOFF                                               37392021
 003CB2 94FE BFBA      0986A        6448        NI    NOKEY,MSWOFF                                               37398021
 003CB6 94FE BFBB      0986B        6449        NI    KEYFND,MSWOFF                                              37404021
 003CBA 94FE BFB6      09866        6450        NI    WHENSW,MSWOFF                                              37410021
 003CBE 94FE BFB3      09863        6451        NI    TWOVRY,MSWOFF                                              37416021
 003CC2 94FE BFAD      0985D        6452        NI    ATNDFND,MSWOFF                                             37422021
 003CC6 94FE BFB8      09868        6453        NI    SATOS,MSWOFF                                               37428021
 003CCA 94FE BFBD      0986D        6454        NI    SPSALL,MSWOFF                                              37434021
 003CCE 94FE BF98      09848        6455        NI    ZERFOUN,MSWOFF                                             37440021
 003CD2 45E0 9B58      079B0        6456        BAL   RCS,IFSRCH1      BRANCH TO SAVE GN'S                 5961  37446021
 003CD6 45E0 8C54      06C0C        6457        BAL   RCS,ISTRUV           SEARCH-ALL  IS COND ALLOWED           37452021
 003CDA 45E0 7566      0551E        6458 SRCHA1 BAL   RCS,GETNXT            GET CT. OF # KEYS                    37458021
 003CDE 95BB C000      0988B        6459          CLI   GOTTEN,XXBB                                              37464021
 003CE2 4770 720C      051C4        6460        BNE   IDERR                 NOT NUMERIC LITERAL - ERROR          37470021
 003CE6 D201 BE4C C001 096FC 0988C  6461          MVC   KEYNO(LX2),GOTTEN+NX1  SAVE FOR LATER                    37476021
 003CEC 1B44                        6462        SR    RW4,RW4                                                    37482021
 003CEE 4840 BE4C      096FC        6463        LH    RW4,KEYNO           NO OF KEYS TO BE INSERTED              37488021
1PH40     IKFCBL40                                                                                              PAGE  137
-  LOC  OBJECT CODE    ADDR1 ADDR2  STMT   SOURCE STATEMENT                                       ASM 0201 11.03 02/14/15
0003CF2 45E0 7566      0551E        6464 GETKEY BAL   RCS,GETNXT            GET KEY                              37494021
 003CF6 1B33                        6465        SR    RW3,RW3                                                    37500021
 003CF8 4330 C001      0988C        6466          IC    RW3,GOTTEN+NX1       CT FOR KEY                          37506021
 003CFC 0630                        6467        BCTR   RW3,RA0              GET CT OF KEYS                       37512021
 003CFE 1A3C                        6468        AR    RW3,RIN               RW3 PTS TO DICT. PTR. FOR KEY        37518021
 003D00 D202 BAEE 3000 0939E 00000  6469          MVC   KEYSAV(LX3),DX0(RW3)                                     37524021
 003D06 5810 B098      08948        6470        L    RW1,AKEYTB                                                  37530021
 003D0A 45E0 7D16      05CCE        6471        BAL   RCS,PNSRTF            INSERT KEY WITH FLAG BYTE 0          37536021
 003D0E 4140 BAEE      0939E        6472        LA    RW4,KEYSAV                                                 37542021
 003D12 D300 BFC7 C003 09877 0988E  6473          MVZ   FLTST(LX1),GOTTEN+NX3   MAKE SURE KEY NOT FLOATING PT    37548021
 003D18 9560 BFC7      09877        6474          CLI   FLTST,XX60           OR STERLING-CHECK MONOR CODES       37554021
 003D1C 4780 F388      0401A        6475        BE    SRCHAR2A               INVALID FOR ARCHAL                  37560021
 003D20 95A0 BFC7      09877        6476          CLI   FLTST,XXA0          FLOATING POINT?                      37566021
 003D24 4780 F388      0401A        6477        BE    SRCHAR2A               INVALID FOR ARCHAL                  37572021
 003D28 94B0 BFC7      09877        6478          NI    FLTST,XXB0          SEE IF EXT FL OR STERL               37578021
 003D2C 9590 BFC7      09877        6479          CLI   FLTST,XX90          IS IT ONE OF THESE                   37584021
 003D30 4780 F388      0401A        6480        BE    SRCHAR2A               INVALID FOR ARCHAL                  37590021
 003D34 4640 F060      03CF2        6481        BCT   RW4,GETKEY            GET NEXT KEY                         37596021
                                    6482 * AT THIS POINT KEY TABLE HAS BEEN BUILT                                37602021
 003D38 45E0 7566      0551E        6483 AFTKY  BAL   RCS,GETNXT            GET NEXT INPUT                       37608021
 003D3C 9536 C000      0988B        6484          CLI   GOTTEN,XX36          IS IT INDNM OR SUPERFLUOUS KEY      37614021
 003D40 4770 F0A6      03D38        6485        BNE   AFTKY                 MSG HAS BEEN WRITTEN                 37620021
 003D44 45E0 76EC      056A4        6486        BAL   RCS,GETALL            SAVE INDNM                           37626021
 003D48 4120 BAE4      09394        6487        LA    RW2,INDVRY1                                                37632021
 003D4C 45E0 7566      0551E        6488        BAL   RCS,GETNXT            GET NEXT INPUT                       37638021
 003D50 45E0 76EC      056A4        6489        BAL   RCS,GETALL            SAVE INDVRY1                         37644021
 003D54 4120 B970      09220        6490        LA    RW2,MAXSAVE                                                37650021
 003D58 45E0 7566      0551E        6491        BAL   RCS,GETNXT            GET NEXT INPUT                       37656021
                                    6492 *  'AT END' OR  'WHEN' SHOULD FOLLOW                                    37662021
 003D5C 9101 BFBC      0986C        6493        TM    FLKEY,MSWON           CHANGING TO SEARCH                   37668021
 003D60 4710 F0D6      03D68        6494         BO     *+NX8               KEY IS FLOATING POINT                37674021
 003D64 9601 BFB9      09869        6495        OI    SRCHALSW,MSWON        LET SEARCH PROCESS 'AT END'          37680021
 003D68 9601 BFB7      09867        6496        OI    SEARCHSW,MSWON                                             37686021
 003D6C 58F0 A464      0815C        6497        L     RVRB,ASRCH                                                 37692021
                             03798  6498        USING SEARCH,RVRB                                                37698021
 003D70 47F0 F0D6      0386E        6499        BC    UNCOND,SRCH6          GO TO STORE LGN OF ORD. SEARCH       37704021
                             03C92  6500        USING SRCHAL,RVRB                                                37710021
                                    6501 *                                                                       37716021
                                    6502 *  SEARCH RETURNS HERE AFTER HAVING PROCESSED AT END AND AFTER          37722021
                                    6503 *  HAVING FOUND WHEN-RIN PTS TO NEXT AFTER WHEN                         37728021
                             03D74  6504 WHEN0  EQU   *                                                          37734021
 003D74 D700 BFD0 BFD0 09880 09880  6505          XC    SSKYSV(LX1),SSKYSV  INIT SS FOR KEY1 TO 0                37740021
 003D7A 94FE BFD2      09882        6506        NI    SRCHKEY,MSWOFF                                             37746021
 003D7E 9601 BFBD      0986D        6507        OI    SPSALL,MSWON                                               37752021
 003D82 9530 C000      0988B        6508 WHN1   CLI   GOTTEN,MDN       IS IT A DATA MAME                         37758021
 003D86 4770 F100      03D92        6509        BNE   WHN2               NO-CANNOT BE KEY                        37764021
 003D8A 9120 C007      09892        6510          TM    GOTTEN+NX7,XX20      IS DATA NAME A KEY                  37770021
 003D8E 4710 F17A      03E0C        6511        BO    VALKEY                SEE IF TESTED IN ORDER OF            37776021
                                    6512 *                                  SIGNIFICANCE AND IF KEY IS           37782021
                                    6513 *                                  1ST KEY IN THIS CONDITION            37788021
 003D92 9101 BFBA      0986A        6514 WHN2   TM    NOKEY,MSWON         WAS NONKEY FOUND LAST?                 37794021
 003D96 4710 F3A8      0403A        6515        BO    SRCHAR3               YES-ERROR-KEY MUST BE SUBJECT        37800021
                                    6516 *                                  OR OBJECT OF CONDITION               37806021
                                    6517 *    INITIALIZE TABLES AND SWITCHES BEFORE CALLING FORMLA               37812021
 003D9A D702 BEE5 BEE5 09795 09795  6518          XC    DMAX(LX3),DMAX                                           37818021
1PH40     IKFCBL40                                                                                              PAGE  138
-  LOC  OBJECT CODE    ADDR1 ADDR2  STMT   SOURCE STATEMENT                                       ASM 0201 11.03 02/14/15
0003DA0 45E0 7F5C      05F14        6519        BAL   RCS,PZSTRT            INITIALIZE TABLES FOR FORMLA         37824021
 003DA4 4120 B070      08920        6520        LA    RW2,APNOUN                                                 37830021
 003DA8 4110 B078      08928        6521        LA    RW1,APSGNT                                                 37836021
 003DAC D701 BE7C BE7C 0972C 0972C  6522          XC    PRNLEV(LX2),PRNLEV                                       37842021
 003DB2 D701 BE7A BE7A 0972A 0972A  6523          XC    PNOUCT(LX2),PNOUCT                                       37848021
 003DB8 D701 BF66 BF66 09816 09816  6524          XC    DMAXSW(LX2),DMAXSW                                       37854021
 003DBE 9202 BEE2      09792        6525          MVI   EVAL+NX2,XX02                                            37860021
 003DC2 45E0 939C      071F4        6526        BAL   RCS,FORMLA            GO TO FORMULA                        37866021
 003DC6 47F0 F3A8      0403A        6527        B     SRCHAR3               INVALID                              37872021
 003DCA 47F0 F170      03E02        6528        B     WHEN1B                NON-NUM DATA NAME                    37878021
 003DCE 4120 B6F4      08FA4        6529        LA    RW2,PRSULT            VALID FORMULA                        37884021
 003DD2 45E0 7F94      05F4C        6530 WHN1AA BAL   RCS,COUNT             GET THE COUNT OF BYTES               37890021
                                    6531 *                                                                       37896021
 003DD6 4150 B57C      08E2C        6532        LA    RW5,PLEFT                                                  37902021
                                    6533 *                                                                       37908021
 003DDA 4830 BE72      09722        6534        LH    RW3,BYTES                                                  37914021
 003DDE 4430 F16A      03DFC        6535        EX    RW3,WHENMV                                                 37920021
 003DE2 9601 BFBA      0986A        6536        OI    NOKEY,MSWON                                                37926021
 003DE6 1815                        6537        LR    RW1,RW5                                                    37932021
 003DE8 45E0 8668      06620        6538        BAL   RCS,GETMOD            GET MODE                             37938021
 003DEC D200 507B BEE5 0007B 09795  6539          MVC   MOPLNG-NX3(LX1,RW5),DMAX                                 37944021
 003DF2 D201 507C BE64 0007C 09714  6540          MVC   MOPLNG-NX2(LX2,RW5),MODE                                 37950021
 003DF8 47F0 F21C      03EAE        6541        B     WHEN1                 PLEFT/PRIGHT HAS BEEN PROCSD         37956021
 003DFC D200 B57C 2000 08E2C 00000  6542 WHENMV   MVC   PLEFT(LX1),DX0(RW2)                                      37962021
 003E02 182C                        6543 WHEN1B LR    RW2,RIN                                                    37968021
 003E04 45E0 7566      0551E        6544        BAL   RCS,GETNXT            GET NEXT INPUT                       37974021
 003E08 47F0 F140      03DD2        6545        BC    UNCOND,WHN1AA         GET BYTE COUNT                       37980021
                                    6546 *                                                                       37986021
                                    6547 *  KEY FOUND                                                            37992021
                                    6548 *                                                                       37998021
 003E0C 9101 BFBB      0986B        6549 VALKEY TM    KEYFND,MSWON          WAS 1ST TERM A KEY                   38004021
 003E10 4710 F3A8      0403A        6550        BO    SRCHAR3               ERROR                                38010021
 003E14 1B33                        6551        SR    RW3,RW3                                                    38016021
 003E16 4330 C001      0988C        6552          IC    RW3,GOTTEN+NX1       SEARCH TABLE FOR KEY                38022021
 003E1A 0630                        6553        BCTR   RW3,RA0              KEY FOUND                            38028021
 003E1C 1A3C                        6554        AR    RW3,RIN               RW3 PTS TO DICT PTR THIS KEY         38034021
 003E1E 5810 B098      08948        6555        L    RW1,AKEYTB                                                  38040021
 003E22 5811 0000      00000        6556          L     RW1,DX0(RW1)                                             38046021
 003E26 5821 0000      00000        6557          L     RW2,DX0(RW1)         RW2 PTS TO START OF TABLE           38052021
 003E2A 4122 0000      00000        6558        LA    RW2,DX0(RW2)          CLEAR OUT FIRST BYTE                 38058021
 003E2E 5020 BEC4      09774        6559        ST    RW2,TABADR            SAVE TO SEE WHEN KEY1 FOUND          38064021
 003E32 4841 0004      00004        6560        LH      RW4,DX4(RW1)        RW4 POINTS TO END                    38070021
 003E36 1A42                        6561        AR    RW4,RW2                                                    38076021
 003E38 D502 2000 3000 00000 00000  6562 SRCHVAL  CLC   DX0(LX3,RW2),DX0(RW3)                                    38082021
 003E3E 4770 F20E      03EA0        6563        BNE   VALKY1                IS NEXT KEY VALID                    38088021
 003E42 9101 2003      00003        6564 VALKY0   TM    DX3(RW2),MSWON       WAS IT USED BEFORE                  38094021
 003E46 4710 F39C      0402E        6565        BO    SRCHAR2               YES, ERROR                           38100021
 003E4A 9601 2003      00003        6566          OI    DX3(RW2),MSWON                                           38106021
 003E4E 45E0 76EC      056A4        6567        BAL   RCS,GETALL            NO, SAVE IT                          38112021
 003E52 4120 B5FA      08EAA        6568        LA    RW2,PRIGHT                                                 38118021
 003E56 45E0 99DE      07836        6569        BAL   RCS,DECMAX            UPDATE DMAX FIELD                    38124021
 003E5A 9601 BFBB      0986B        6570        OI    KEYFND,MSWON                                               38130021
 003E5E 5860 BEC4      09774        6571        L     RW6,TABADR                                                 38136021
 003E62 D502 2000 6000 00000 00000  6572          CLC   DX0(LX3,RW2),DX0(RW6) IS THIS FIRST KEY                  38142021
 003E68 4770 F206      03E98        6573        BNE    NOTKY1              NO                                    38148021
1PH40     IKFCBL40                                                                                              PAGE  139
-  LOC  OBJECT CODE    ADDR1 ADDR2  STMT   SOURCE STATEMENT                                       ASM 0201 11.03 02/14/15
0003E6C 9601 BFD1      09881        6574        OI    KEY1,MSWON        THIS SWITCH HAS SPECIAL MEANING FOR      38154021
                                    6575 *                             SUBSCRIPTING ROUTINE                      38160021
 003E70 45E0 81AC      06164        6576 RDUKEY BAL   RCS,RDUCOP        SEE IF VALID OP-REDUCE SS                38166021
 003E74 47F0 F3A8      0403A        6577        B     SRCHAR3             NO GOOD- ERROR EXIT                    38172021
 003E78 94FE BFD1      09881        6578        NI    KEY1,MSWOFF           1ST ALREADY PROCESSED                38178021
 003E7C 94FE BFD2      09882        6579        NI    SRCHKEY,MSWOFF         OFF TILL NEXT KEY FOUND             38184021
 003E80 4150 B5FA      08EAA        6580        LA    RW5,PRIGHT                                                 38190021
 003E84 D200 507B BE66 0007B 09716  6581          MVC   MOPLNG-NX3(LX1,RW5),DCURR                                38196021
 003E8A D201 507C BE64 0007C 09714  6582          MVC   MOPLNG-NX2(LX2,RW5),MODE                                 38202021
 003E90 45E0 7566      0551E        6583        BAL   RCS,GETNXT            GET NEXT INPUT                       38208021
 003E94 47F0 F21C      03EAE        6584        B     WHEN1                 PROCESS IT                           38214021
 003E98 9601 BFD2      09882        6585 NOTKY1 OI    SRCHKEY,MSWON       SPEC MEANING FOR SUBSCR                38220021
                                    6586 *                        SUBSCRIPTS CHECKED FOR BUT NOT PUT IN TABLE    38226021
 003E9C 47F0 F1DE      03E70        6587        B     RDUKEY                SEE IF VALID OPERAND                 38232021
 003EA0 4122 0004      00004        6588 VALKY1   LA    RW2,DX4(RW2)         PT  RW2 TO NEXT                     38238021
 003EA4 1924                        6589        CR    RW2,RW4                                                    38244021
 003EA6 4780 F3A8      0403A        6590        BE    SRCHAR3               ERROR EXIT                           38250021
 003EAA 47F0 F1A6      03E38        6591        B     SRCHVAL               OK, CHECK IF VALID KEY               38256021
                                    6592 *                                                                       38262021
                                    6593 * AT THIS POINT, PLEFT  AND/OR PRIGHT  HAVE BEEN PROCESSED              38268021
 003EAE D501 C000 A348 0988B 08040  6594 WHEN1    CLC   GOTTEN(LX2),CBEQSN                                       38274021
 003EB4 4770 F23C      03ECE        6595        BNE   WHEN2                 NOT AN EQUAL SIGN                    38280021
 003EB8 45E0 7566      0551E        6596        BAL   RCS,GETNXT            YES, GET NEXT INPUT                  38286021
 003EBC D501 C000 A4E0 0988B 081D8  6597          CLC   GOTTEN(LX2),CBTO                                         38292021
 003EC2 4770 F0F0      03D82        6598        BNE   WHN1                  NOT A 'TO'                           38298021
 003EC6 45E0 7566      0551E        6599        BAL   RCS,GETNXT            YES, GET NEXT INPUT                  38304021
 003ECA 47F0 F0F0      03D82        6600        BC    UNCOND,WHN1           CHECK IF DATA NAME                   38310021
 003ECE 9101 BFBA      0986A        6601 WHEN2  TM    NOKEY,MSWON           BOTH NOKEY AND KEYFND SHOULD         38316021
 003ED2 4780 F3A8      0403A        6602        BZ    SRCHAR3               BE ON NOW IF CORRECT                 38322021
 003ED6 9101 BFBB      0986B        6603        TM    KEYFND,MSWON                                               38328021
 003EDA 4780 F3A8      0403A        6604        BZ    SRCHAR3               ERROR                                38334021
 003EDE 94FE BFBB      0986B        6605        NI    KEYFND,MSWOFF                                              38340021
 003EE2 94FE BFBA      0986A        6606        NI    NOKEY,MSWOFF                                               38346021
 003EE6 45E0 8068      06020        6607        BAL   RCS,STLOOP            STORE EQU,PLEFT,PRIGHT,INFO-HD       38352021
 003EEA 0004                        6608        DC    XL2'4'                STORE 4                              38358021
 003EEC 4140 BF11      097C1        6609        LA    RW4,WHENEQU                                                38364021
 003EF0 4140 B57C      08E2C        6610        LA    RW4,PLEFT                                                  38370021
 003EF4 4140 B5FA      08EAA        6611        LA    RW4,PRIGHT                                                 38376021
 003EF8 4140 BEE3      09793        6612          LA    RW4,EVAL+NX3                                             38382021
 003EFC D700 BEE5 BEE5 09795 09795  6613          XC    DMAX(LX1),DMAX                                           38388021
 003F02 9101 BF89      09839        6614        TM    LV88SW,MSWON                                               38394021
 003F06 4710 F284      03F16        6615        BO    AFTCM1                COND NM FOUND - OK                   38400021
 003F0A 58F0 A308      08000        6616        L     RVRB,AIF                                                   38406021
                             01DB8  6617        USING IF,RVRB                                                    38412021
 003F0E 47F0 F826      025DE        6618        B     OKREL2                CHECK THE GROUP ITEM                 38418021
                             03C92  6619        USING SRCHAL,RVRB                                                38424021
 003F12 47F0 F3A8      0403A        6620 AFTCOM B     SRCHAR3               INVALID COMPARISON                   38430021
 003F16 94FE BF89      09839        6621 AFTCM1 NI    LV88SW,MSWOFF         OK-STORE IN STRING                   38436021
 003F1A D501 C000 A33A 0988B 08032  6622          CLC   GOTTEN(LX2),CBAND                                        38442021
 003F20 4770 F29A      03F2C        6623         BNE    *+NX12              NOT AN 'AND'                         38448021
 003F24 45E0 7566      0551E        6624        BAL   RCS,GETNXT            YES, GET NEXT INPUT                  38454021
 003F28 47F0 F0F0      03D82        6625        B     WHN1           836                                         38460021
 003F2C 9101 BFAB      0985B        6626        TM    SKIPSW,MSWON         SHOULD STRING B E GENR                38466021
 003F30 4710 F3A8      0403A        6627        BO    SRCHAR3             NO-ERRORMSG AND EXIT                   38472021
 003F34 4860 BE4C      096FC        6628        LH    RW6,KEYNO             GET NO. OF KEYS                      38478021
1PH40     IKFCBL40                                                                                              PAGE  140
-  LOC  OBJECT CODE    ADDR1 ADDR2  STMT   SOURCE STATEMENT                                       ASM 0201 11.03 02/14/15
0003F38 5810 B098      08948        6629        L    RW1,AKEYTB             SCAN KEYTBL TO SEE IF ANY KEYS       38484021
 003F3C 5811 0000      00000        6630          L     RW1,DX0(RW1)         NOT NAMED IN WHEN CONDITION         38490021
 003F40 5811 0000      00000        6631          L     RW1,DX0(RW1)         SHOULD HAVE BEEN. RW1 HAS @TBL      38496021
 003F44 D500 1003 A598 00003 08290  6632 KEYCK    CLC   DX3(LX1,RW1),N0       WAS THIS KEY FOUND                 38502021
 003F4A 4780 F2D0      03F62        6633        BE    ZERFND                NO- (FLAG BIT OFF)                   38508021
 003F4E 9101 BF98      09848        6634        TM    ZERFOUN,MSWON         YES-BUT WERE ALL PREV KEYS FOUND     38514021
 003F52 4710 F39C      0402E        6635        BO    SRCHAR2               NO- ERROR                            38520021
 003F56 4111 0004      00004        6636 KEYCK1   LA    RW1,DX4(RW1)         YES-PT RW1 TO NEXT ENTRY            38526021
 003F5A 4660 F2B2      03F44        6637        BCT    RW6,KEYCK            GO CHECK NEXT KEY                    38532021
 003F5E 47F0 F2D8      03F6A        6638        BC    UNCOND,AOK            NO ERRORS                            38538021
 003F62 9601 BF98      09848        6639 ZERFND OI    ZERFOUN,MSWON         THIS KEY WAS NOT TESTED              38544021
 003F66 47F0 F2C4      03F56        6640        B    KEYCK1                 SEE IF NEXT WAS                      38550021
 003F6A 9504 BFD0      09880        6641 AOK      CLI   SSKYSV,XX04                                              38556021
 003F6E 4740 F2EA      03F7C        6642        BL    AFTCMZ                KEY1 SS/INDEX TO BE PASSED-NO        38562021
 003F72 D200 BF10 BFD0 097C0 09880  6643          MVC   WHENVB+NX2(LX1),SSKYSV MOVE IN ELEM CT                   38568021
 003F78 47F0 F2EE      03F80        6644        B     AFTCMB                WRITE DATA                           38574021
 003F7C 9203 BF10      097C0        6645 AFTCMZ   MVI   WHENVB+NX2,XX03                                          38580021
 003F80 45E0 7734      056EC        6646 AFTCMB BAL   RCS,GENDAT            GENR BEGINNING WHEN SIGNAL           38586021
 003F84 4120 BF0E      097BE        6647        LA    RW2,WHENVB                                                 38592021
 003F88 45E0 7734      056EC        6648        BAL   RCS,GENDAT            WRITE ID1                            38598021
 003F8C 4120 BA68      09318        6649        LA    RW2,SVSRCHT                                                38604021
 003F90 45E0 7734      056EC        6650        BAL   RCS,GENDAT            WRITE DMAX                           38610021
 003F94 4120 B970      09220        6651        LA    RW2,MAXSAVE                                                38616021
 003F98 45E0 7734      056EC        6652        BAL   RCS,GENDAT            WRITE GN                             38622021
 003F9C 4120 BF08      097B8        6653        LA    RW2,SVGN2             GNREF FOR GN POINTING TO ATEND       38628021
 003FA0 9504 BFD0      09880        6654          CLI   SSKYSV,XX04   KEY1 SS OR INDEX TO BE PASSED              38634021
 003FA4 4740 F32E      03FC0        6655        BL    AFTCMA                NO                                   38640021
 003FA8 45E0 7734      056EC        6656        BAL   RCS,GENDAT            YES-GENR HIGHEST LEVEL               38646021
 003FAC 4120 B770      09020        6657        LA    RW2,OPRND1                                                 38652021
 003FB0 9504 BFD0      09880        6658          CLI   SSKYSV,XX04          DO WE NEED ANOTHER ONE              38658021
 003FB4 4780 F32E      03FC0        6659        BE    AFTCMA                NO                                   38664021
 003FB8 45E0 7734      056EC        6660        BAL    RCS,GENDAT           WRITE OP2                            38670021
 003FBC 4120 B870      09120        6661        LA    RW2,OPRND2            YES- GENR IT                         38676021
 003FC0 45E0 7A16      059CE        6662 AFTCMA BAL   RCS,GNARTH            GENERATE ARITHMETIC STRING           38682021
 003FC4 45E0 7734      056EC        6663        BAL   RCS,GENDAT            WRITE 'END WHEN'                     38688021
 003FC8 4120 BF14      097C4        6664        LA    RW2,ENDWHEN                                                38694021
 003FCC 45E0 7734      056EC        6665        BAL   RCS,GENDAT            AND LOWEST LEVEL SUBSCRIPT/INDEX     38700021
 003FD0 4120 BF17      097C7        6666        LA    RW2,SS1SV                                                  38706021
 003FD4 94FE BFBD      0986D        6667        NI    SPSALL,MSWOFF                                              38712021
 003FD8 9544 C000      0988B        6668        CLI   GOTTEN,MVERB                                               38718021
 003FDC 4770 F356      03FE8        6669        BNE   AFTCM2                NOT A VERB                           38724021
 003FE0 58F0 A464      0815C        6670 AFTCM0 L     RVRB,ASRCH                                                 38730021
                             03798  6671        USING SEARCH,RVRB                                                38736021
 003FE4 47F0 F196      0392E        6672        BC    UNCOND,SRCH10         CONTROL TO IMPERATIVE STMNT          38742021
                             03C92  6673        USING SRCHAL,RVRB                                                38748021
 003FE8 45E0 8C82      06C3A        6674 AFTCM2 BAL   RCS,ISNXTS            CHK IF 'NXT SENTENCE' FOLLOWS        38754021
                                    6675 *                                                                       38760021
 003FEC 47F0 F380      04012        6676        B     AFTCM3                NO                                   38766021
 003FF0 45E0 7734      056EC        6677        BAL   RCS,GENDAT            GENR GO NEXT                         38772021
 003FF4 4120 A55E      08256        6678        LA    RW2,CBGO                     SENT                          38778021
 003FF8 45E0 9B3C      07994        6679        BAL   RCS,NEWNXT            TEST NEXT SENTENCE                   38784021
 003FFC D201 BE02 BE18 096B2 096C8  6680          MVC   RGN+NX1(LX2),NXTSNT                                      38790021
 004002 45E0 7734      056EC        6681        BAL   RCS,GENDAT            WRITE GN TO FILE                     38796021
 004006 4120 BE01      096B1        6682        LA    RW2,RGN                                                    38802021
 00400A 9601 BFB5      09865        6683        OI    GOSW,MSWON                                                 38808021
1PH40     IKFCBL40                                                                                              PAGE  141
-  LOC  OBJECT CODE    ADDR1 ADDR2  STMT   SOURCE STATEMENT                                       ASM 0201 11.03 02/14/15
000400E 47F0 F34E      03FE0        6684        B     AFTCM0                LOOK FOR VERB                        38814021
 004012 58F0 A464      0815C        6685 AFTCM3 L     RVRB,ASRCH                                                 38820021
                             03798  6686        USING SEARCH,RVRB                                                38826021
 004016 47F0 F4B8      03C50        6687        BC    UNCOND,SRCHE3A        PROCESS ERROR                        38832021
                             03C92  6688        USING SRCHAL,RVRB                                                38838021
 00401A 45E0 9BDA      07A32        6689 SRCHAR2A BAL RCS,ERROR             ERROR                                38844021
 00401E 4110 A2C1      07FB9        6690        LA    RW1,ELST6D       W-LEVEL                                   38850021
 004022 9601 BFBC      0986C        6691        OI    FLKEY,MSWON                                                38856021
 004026 9601 BFB8      09868        6692        OI    SATOS,MSWON           BAD SEARCHALL CHANGED TO SEARCH      38862021
 00402A 47F0 F0A6      03D38        6693        B     AFTKY                 GO TO GET NEXT INPUT                 38868021
 00402E 45E0 9BDA      07A32        6694 SRCHAR2 BAL   RCS,ERROR            ERROR                                38874021
 004032 4110 A2C4      07FBC        6695        LA    RW1,ELST6E            ALL PREC. EKYS NOT TESTED            38880021
 004036 47F0 F3B0      04042        6696        BC    UNCOND,SRCHAR4        ERROR EXIT TO SEARCH                 38886021
 00403A 45E0 9BDA      07A32        6697 SRCHAR3 BAL  RCS,ERROR             ERROR                                38892021
 00403E 4110 A2C7      07FBF        6698        LA    RW1,ELST6F                                                 38898021
 004042 94FE BFBD      0986D        6699 SRCHAR4 NI    SPSALL,MSWOFF                                             38904021
 004046 94FE BFD1      09881        6700        NI    KEY1,MSWOFF                                                38910021
 00404A 94FE BFD2      09882        6701        NI    SRCHKEY,MSWOFF                                             38916021
 00404E 94FE BFCF      0987F        6702        NI    KEY10,MSWOFF                                               38922021
 004052 94FE BFAB      0985B        6703        NI    SKIPSW,MSWOFF        TURN OFF SKIPSW                       38928021
 004056 58F0 A464      0815C        6704        L     RVRB,ASRCH            ** BRANCH SRCH19                     38934021
                             03798  6705        USING SEARCH,RVRB                                                38940021
 00405A 47F0 F2A2      03A3A        6706        B     SRCH19                **                                   38946021
                                    6707 *=1             SET                                                     38952021
                                    6708 *                                                                       38958021
                                    6709 *       SET                                                             38964021
                                    6710 *                                                                       38970021
                                    6711 *  SOURCE-  SET INDNM1, INDNM2, INDNM3 TO ID2.                          38976021
                                    6712 *           SET     IDNM1 UP (DOWN) BY ID2.                             38982021
                                    6713 *                                                                       38988021
                                    6714 *   OUTPUT-                                                             38994021
                                    6715 *           SET INDNM1 ID2   SET INDNM2 ID2  SET INDNM3 ID2.            39000021
                                    6716 *            SETUP INDNM1 ID2.                                          39006021
                                    6717 *           SETDWN INDNM1 ID2.                                          39012021
                                    6718 *                                                                       39018021
                                    6719 * ROUTINES CALLED- GETNXT,GETALL,ERROR,RDUCOP,ISINTG,GENSTR             39024021
                                    6720 *                                                                       39030021
                                    6721 * ERROR PROCESSING- IF OP1 INCOMPATIBLE WITH OP2, MSG,                  39036021
                                    6722 *                   DISCARD OP1, SEEK NEW OP1.                          39042021
                                    6723 *                   IF OP2 INVALID, GIVE UP.                            39048021
                                    6724 *                   IF BY OMITTED, WARN BUT PROCESS.                    39054021
                                    6725 *                                                                       39060021
                                    6726 * NOTES- FORMAT2- OP1 INDNM AND OP2 INDEX DATA ITEM- WARN-PROCESS.      39066021
                             0405E  6727        USING *,RVRB                                                     39072021
                             0405E  6728 SET    EQU *                                                            39078021
 00405E 9601 BFAF      0985F        6729          OI    SETSW,MSWON         SET SETSW TO INDICATE FROM SET 58940 39084021
 004062 94FE BFAE      0985E        6730        NI    SETOO,MSWOFF                                               39090021
 004066 94FE BF85      09835        6731          NI    RW5SW,MSWOFF        RESET SWITCH                         39096021
 00406A 94FE BFB0      09860        6732        NI    ONESET,MSWOFF                                              39102021
 00406E D701 BE8A BE8A 0973A 0973A  6733          XC    LEFTDP(LX2),LEFTDP                                       39108021
 004074 D701 BED4 BED4 09784 09784  6734          XC    SETSVD(LX2),SETSVD   INITIALIZE SAVED DISP IN SETTBL     39114021
 00407A D701 BE60 BE60 09710 09710  6735          XC    LEFTSS(LX2),LEFTSS                                       39120021
 004080 45E0 7F5C      05F14        6736        BAL   RCS,PZSTRT          INITIALIZE SETTBL                      39126021
 004084 4110 B0A0      08950        6737        LA    RW1,ASETBL                                                 39132021
                                    6738 *                                                                       39138021
1PH40     IKFCBL40                                                                                              PAGE  142
-  LOC  OBJECT CODE    ADDR1 ADDR2  STMT   SOURCE STATEMENT                                       ASM 0201 11.03 02/14/15
0                                   6739 *                                                                       39144021
 004088 45E0 8C32      06BEA        6740 GETSET BAL   RCS,ISEND           SCAN FOR TO, UP, DOWN                  39150021
 00408C 47F0 F036      04094        6741        B     FNDOUT        NO- SEE IF ONE OF THE KEY WORDS              39156021
 004090 47F0 F238      04296        6742        B     SETERA           ENDWORD FOUND BEFORE KEYWORD-ERROR        39162021
                             04094  6743 FNDOUT EQU   *                                                          39168021
 004094 D501 C000 A4E0 0988B 081D8  6744          CLC   GOTTEN(LX2),CBTO                                         39174021
 00409A 4780 F1F2      04250        6745        BE    SETTO          FORMAT 1 ESTABLISHED                        39180021
 00409E D501 C000 A522 0988B 0821A  6746          CLC   GOTTEN(LX2),CBUP                                         39186021
 0040A4 4780 F1EA      04248        6747        BE    UPSET                 FORMAT 2 ESTABLISHED - UP            39192021
 0040A8 D501 C000 A524 0988B 0821C  6748          CLC   GOTTEN(LX2),CBDOWN                                       39198021
 0040AE 4780 F086      040E4        6749        BE    STDOWN                'DOWN' FOUND                         39204021
 0040B2 91C0 C000      0988B        6750          TM    GOTTEN,X'C0'        OTHER THAN IDENTIFIERS         P0571 39210021
 0040B6 47E0 F064      040C2        6751          BNO   FNDOUTA             IT IS POSSIBLE IDENTIFIER      P0571 39216021
 0040BA 4120 A009      07D01        6752          LA    RW2,ELST03          IF NOT SET ERROR MES           P0571 39222021
 0040BE 47F0 F244      042A2        6753          B     SETERC              GENERATE ERROR MESSAGE         P0571 39228021
 0040C2                             6754 FNDOUTA  DS    0H                                                 P0571 39234021
 0040C2 5810 B0A0      08950        6755        L     RW1,ASETBL            SAVE OPERAND                         39240021
 0040C6 412C 0000      00000        6756          LA    RW2,DX0(RIN)      GET BYTE COUNT FOR THIS ELEMENT        39246021
 0040CA 45E0 7F94      05F4C        6757        BAL   RCS,COUNT             HOW MANY BYTES IN OP                 39252021
 0040CE D200 1000 BE73 00000 09723  6758          MVC   DX0(LX1,RW1),BYTES+NX1       GIVE INSERT BYTE COUNT      39258021
 0040D4 45E0 7D16      05CCE        6759        BAL   RCS,PNSRTF            INSERT FIXED-LENGTH IN TIB           39264021
 0040D8 414C 0000      00000        6760          LA    RW4,DX0(RIN)         SETTBL                              39270021
 0040DC 45E0 7566      0551E        6761        BAL   RCS,GETNXT           SEE IF NEXT A KEY WORD                39276021
 0040E0 47F0 F02A      04088        6762        B     GETSET             TEST FOR KWEY WORD                      39282021
 0040E4 4140 BF48      097F8        6763 STDOWN LA    RW4,SETDWN                                                 39288021
 0040E8 45E0 8000      05FB8        6764 FNDOP0 BAL   RCS,STOR45         STORE VERB IN STRING                    39294021
 0040EC D201 BE8A B04C 0973A 088FC  6765          MVC   LEFTDP(LX2),DSPSTR   SAVE TO REUSE IF SEVERAL OP1'S      39300021
 0040F2 45E0 7566      0551E        6766        BAL   RCS,GETNXT            GET NEXT INPUT                       39306021
 0040F6 9101 BFAE      0985E        6767        TM    SETOO,MSWON      FORMAT 1                                  39312021
 0040FA 4710 F0AE      0410C        6768        BO    FNDOP1   SKIP 'BY' CHECK                                   39318021
 0040FE D501 C000 A4E4 0988B 081DC  6769          CLC   GOTTEN(LX2),CBBY                                         39324021
 004104 4770 F1DA      04238        6770        BNE    BYOMIT               NOT 'BY'                             39330021
 004108 45E0 7566      0551E        6771        BAL   RCS,GETNXT         DISCARD BY- GET OP2                     39336021
 00410C 45E0 76EC      056A4        6772 FNDOP1 BAL   RCS,GETALL         THIS IS OP2                             39342021
 004110 4120 B5FA      08EAA        6773        LA    RW2,PRIGHT        SAVE IT                                  39348021
 004114 45E0 81AC      06164        6774        BAL   RCS,RDUCOP            IS THIS VALID OP2                    39354021
 004118 47F0 F1FE      0425C        6775        B     IFIND           SEE IF INDEXNAME INDEX DATAITEM            39360021
 00411C 45E0 8B64      06B1C        6776        BAL   RCS,ISINT2      SEE IF INTEGER                             39366021
 004120 47F0 F238      04296        6777        B     SETERA       INVALID OP2                                   39372021
                                    6778 *                            RETURNS FROM INTERGER CHECK          44289 39378021
 004124 9531 C000      0988B        6779          CLI   GOTTEN,MSS          CHECK LAST INPUT WAS SUB DATA  44289 39384021
 004128 4770 F0DE      0413C        6780          BNE   FNDOP1A             NO  BRANCH                     44289 39390021
 00412C 182C                        6781          LR    RW2,RIN             YES  RW2 POINTS OUTPUT SUB DATA44289 39396021
 00412E 45E0 7F94      05F4C        6782          BAL   RCS,COUNT             GET LENGTH OF SUB DATA       44289 39402021
 004132 4820 BE72      09722        6783          LH    RW2,BYTES           PICK UP LENGTH OF SUB DATA     44289 39408021
 004136 0620                        6784          BCTR  RW2,RA0             DECREMENT BY 1                 44289 39414021
 004138 4420 F2B8      04316        6785          EX    RW2,SETMOVE         MOVE SUBDATA NAME PRIGHT       44289 39420021
 00413C                             6786 FNDOP1A  DS    0H                                                 44289 39426021
 00413C 9101 BE64      09714        6787        TM    MODE,MLITBT                                                39432021
 004140 4780 F14C      041AA        6788        BZ    FNDOP3           IS OP2 A LITERAL                    4189  39438021
 004144 1B33                        6789        SR    RW3,RW3                                                    39444021
 004146 433C 0001      00001        6790          IC    RW3,DX1(RIN)   SEE IF POSITIVE LITERAL                   39450021
 00414A 4B30 A5A0      08298        6791        SH    RW3,N3                                                     39456021
 00414E 4430 F2BE      0431C        6792        EX   RW3,ISPOS                                                   39462021
 004152 47B0 F238      04296        6793        BC   NOTLO,SETERA           NOT A POS LITERAL - ERROR            39468021
1PH40     IKFCBL40                                                                                              PAGE  143
-  LOC  OBJECT CODE    ADDR1 ADDR2  STMT   SOURCE STATEMENT                                       ASM 0201 11.03 02/14/15
0004156 45E0 7566      0551E        6794        BAL   RCS,GETNXT            GET NEXT INPUT                       39474021
 00415A D201 BE60 B094 09710 08944  6795 FNDOP2   MVC   LEFTSS(LX2),DSPSBS                                       39480021
 004160 D201 B676 BE64 08F26 09714  6796          MVC   MODER(LX2),MODE     SAVE MODE OF OP2                     39486021
 004166 5850 BC70      09520        6797        L     RW5,TRUPNT             SAVE TRUPNT                         39492021
 00416A 9601 BF85      09835        6798          OI    RW5SW,MSWON         SET SWITCH ON                        39498021
 00416E 5810 B0A0      08950        6799        L     RW1,ASETBL            ADDR TIB                             39504021
 004172 5811 0000      00000        6800          L     RW1,DX0(RW1)         TAMM                                39510021
 004176 58C1 0000      00000        6801          L     RIN,DX0(RW1)         POINT RIN TO START OF TABLE         39516021
 00417A 50C0 BC70      09520        6802        ST    RIN,TRUPNT          POINT TRUPNT TO START SETTBL           39522021
 00417E 4841 0004      00004        6803          LH    RW4,DX4(RW1)         DISPLACEMENT                        39528021
 004182 1A4C                        6804        AR    RW4,RIN               POINT RW4 TO END OF TABLE            39534021
 004184 94FE BF74      09824        6805        NI    NEXTIN,MSWOFF                                              39540021
 004188 9601 BFD3      09883        6806        OI    SETRIN,MSWON     SET SW FOR GETNXT                         39546021
 00418C 91FF BFD3      09883        6807 CKOP0    TM    SETRIN,XXFF         END OF TABLE                   45036 39552021
 004190 47E0 F154      041B2        6808          BNO   CKOP1               NO, IT IS NOT                  45036 39558021
 004194 5050 BC70      09520        6809        ST    RW5,TRUPNT             YES-RESTORE REAL TRUPNT             39564021
 004198 D700 BFD3 BFD3 09883 09883  6810          XC    SETRIN(LX1),SETRIN                                       39570021
 00419E 58C0 BC70      09520        6811        L     RIN,TRUPNT                                                 39576021
 0041A2 94FE BFAF      0985F        6812          NI    SETSW,MSWOFF        TURN OFF AT END OF SET VERB    58940 39582021
 0041A6 47F0 7000      04FB8        6813        BC    UNCOND,IDENT          EXIT                                 39588021
 0041AA                             6814 FNDOP3 DS    0H                                                   4189  39594021
 0041AA 45E0 7566      0551E        6815        BAL   RCS,GETNXT       GET NEXT ELEMENT                    4189  39600021
 0041AE 47F0 F0FC      0415A        6816        B     FNDOP2           BACK TO MAIN LINE                   4189  39606021
 0041B2 9536 C000      0988B        6817 CKOP1  CLI   GOTTEN,MINDNM        IS 1ST OP AN INDEXNAME                39612021
 0041B6 4780 F194      041F2        6818        BE    OPSOK          YES- OK ALL CASES                           39618021
 0041BA 9101 BFAE      0985E        6819        TM    SETOO,MSWON      SET 'TO' OPTION                           39624021
 0041BE 4780 F26C      042CA        6820        BZ    SETER1     NO-ERROR- ONLY SET 'TO' CAN HAVE                39630021
                                    6821 *                        OP1 OTHER THAN INDEXNAME                       39636021
 0041C2 45E0 81AC      06164        6822        BAL   RCS,RDUCOP            IS IT VALID DATA NAME                39642021
 0041C6 47F0 F28E      042EC        6823        B     IFIND1                NOT A DATA-OP                        39648021
 0041CA 45E0 8B64      06B1C        6824        BAL   RCS,ISINT2            YES-OK-CHECK IF INTEGER              39654021
 0041CE 47F0 F184      041E2        6825        B     SETERR         OP1 NOT INDEX OR NUMERIC-DISCARD            39660021
 0041D2 9101 BE64      09714        6826        TM    MODE,MLITBT                                                39666021
 0041D6 4710 F184      041E2        6827        BO    SETERR        OP1 CANNOT BE LITERAL                        39672021
 0041DA 9536 B5FA      08EAA        6828        CLI   PRIGHT,MINDNM       OP1 NUMERIC- IS OP2 INDEXNAME          39678021
 0041DE 4780 F194      041F2        6829        BE    OPSOK      YES-OK                                          39684021
                                    6830 *      INCOMPATIBLE                                                     39690021
 0041E2 45E0 9BDA      07A32        6831 SETERR BAL   RCS,ERROR             OP1 AND OP2 NOT COMPATIBLE           39696021
 0041E6 4110 A06C      07D64        6832        LA    RW1,ELST12        DISCARD OP1,SEEK NEW OP1                 39702021
 0041EA 45E0 7566      0551E        6833        BAL   RCS,GETNXT            GET NEXT INPUT                       39708021
 0041EE 47F0 F12E      0418C        6834        BC    UNCOND,CKOP0         SEEK NEXT OP                          39714021
 0041F2 45E0 8068      06020        6835 OPSOK  BAL   RCS,STLOOP            STORE 2 ENTITIES                     39720021
 0041F6 0002                        6836        DC    XL2'2'                STORE  2 ELEMENTS                    39726021
 0041F8 414C 0000      00000        6837          LA    RW4,DX0(RIN)                                             39732021
 0041FC 4140 B5FA      08EAA        6838        LA    RW4,PRIGHT         OP2                                     39738021
 004200 45E0 7766      0571E        6839        BAL   RCS,GENSTR            GENERATE STRING                      39744021
 004204 9601 BFB0      09860        6840        OI    ONESET,MSWON       AT LEAST ONE SET GENERATED              39750021
 004208 5820 B048      088F8        6841        L    RW2,ASTRNG                                                  39756021
 00420C 5822 0000      00000        6842          L     RW2,DX0(RW2)                                             39762021
 004210 D201 2004 BE8A 00004 0973A  6843          MVC   DX4(LX2,RW2),LEFTDP                                      39768021
 004216 D201 B04C BE8A 088FC 0973A  6844          MVC   DSPSTR(LX2),LEFTDP                                       39774021
 00421C 5820 B090      08940        6845        L     RW2,ADFSBS                                                 39780021
 004220 5822 0000      00000        6846          L     RW2,DX0(RW2)                                             39786021
 004224 D201 2004 BE60 00004 09710  6847          MVC   DX4(LX2,RW2),LEFTSS                                      39792021
 00422A D201 B094 BE60 08944 09710  6848          MVC   DSPSBS(LX2),LEFTSS                                       39798021
1PH40     IKFCBL40                                                                                              PAGE  144
-  LOC  OBJECT CODE    ADDR1 ADDR2  STMT   SOURCE STATEMENT                                       ASM 0201 11.03 02/14/15
0004230 45E0 7566      0551E        6849        BAL   RCS,GETNXT            GET NEXT INPUT                       39804021
 004234 47F0 F12E      0418C        6850        BC    UNCOND,CKOP0          SEE IF TABLE EXHAUSTED               39810021
                             04238  6851 BYOMIT EQU     *                                                   7875 39816021
 004238 4100 A4E4      081DC        6852        LA      RA0,CBBY                                            7875 39822021
 00423C 45E0 9BDA      07A32        6853        BAL     RCS,ERROR           'BY' MISSING                    7875 39828021
 004240 4110 A02A      07D22        6854        LA    RW1,ELST07                                                 39834021
 004244 47F0 F0AE      0410C        6855        B     FNDOP1                FIND 2ND OPERAND                     39840021
 004248 4140 BF45      097F5        6856 UPSET  LA    RW4,SETUP                                                  39846021
 00424C 47F0 F08A      040E8        6857        B    FNDOP0                 GO TO STORE 'UP'                     39852021
 004250 9601 BFAE      0985E        6858 SETTO  OI    SETOO,MSWON                                                39858021
 004254 4140 BF42      097F2        6859        LA    RW4,SETP2                                                  39864021
 004258 47F0 F08A      040E8        6860        B     FNDOP0                GO TO STORE 'TO'                     39870021
 00425C 9101 BFAE      0985E        6861 IFIND  TM    SETOO,MSWON     OPTION 1                                   39876021
 004260 4780 F278      042D6        6862        BZ    IFIND0   NO- CHECK ELSEWHERE                               39882021
 004264 9536 C000      0988B        6863        CLI   GOTTEN,MINDNM                                              39888021
 004268 4780 F2B0      0430E        6864        BE    FNDOP2A       OK                                           39894021
 00426C D501 BE64 A586 09714 0827E  6865          CLC   MODE(LX2),INDNMD INDEX DATA ITEM                         39900021
 004272 4770 F238      04296        6866          BNE SETERA                NO, NOT INDEX DATA ITEM              39906021
 004276 9104 C003      00003        6867          TM    DX3(RIN),DX4        SUBSCRIPTED ITEM                     39912021
 00427A 4780 F2B0      0430E        6868          BZ    FNDOP2A             NO, BRANCH OUT                       39918021
 00427E 45E0 81D2      0618A        6869          BAL   RCS,SUBSCR          YES,  IT IS SUBSCRIPTED I.D.I.       39924021
 004282 182C                        6870          LR    RW2,RIN             SET ADDR OF INDEX-ITEM               39930021
 004284 45E0 7F94      05F4C        6871          BAL   RCS,COUNT           GET LENGTH OF ITEM                   39936021
 004288 4820 BE72      09722        6872          LH    RW2,BYTES           PIC UP LENGTH                        39942021
 00428C 0620                        6873          BCTR  RW2,RA0             DECREMENT BY ONE                     39948021
 00428E 4420 F2B8      04316        6874          EX    RW2,SETMOVE         MOVE TEXT                            39954021
 004292 47F0 F2B0      0430E        6875          B     FNDOP2A             VALID OP2                            39960021
 004296 9101 BFAE      0985E        6876 SETERA TM    SETOO,MSWON          'TO' OPTION                           39966021
 00429A 4710 F264      042C2        6877        BO    SETERB            ISSUE ELST66                             39972021
 00429E 4120 A297      07F8F        6878        LA    RW2,ELST65          FORMAT 2                               39978021
 0042A2 45E0 9BDA      07A32        6879 SETERC BAL   RCS,ERROR             WRITE ERROR MSG                      39984021
 0042A6 4112 0000      00000        6880          LA    RW1,DX0(RW2)                                             39990021
 0042AA 9101 BF85      09835        6881          TM    RW5SW,MSWON         RESET BUFFER                         39996021
 0042AE 4780 F25C      042BA        6882          BZ    SETERC1             NO                                   40002021
 0042B2 94FE BF85      09835        6883          NI    RW5SW,MSWOFF        TURN SWITCH OFF                      40008021
 0042B6 5050 BC70      09520        6884          ST    RW5,TRUPNT          RESTORE BUFFER PTR                   40014021
 0042BA                             6885 SETERC1  DS    0H                                                       40020021
 0042BA 94FE BFD3      09883        6886          NI    SETRIN,MSWOFF       TURN OFF SET TABLE SWITCH            40026021
 0042BE 47F0 720C      051C4        6887        BC    UNCOND,IDERR          EXIT - ID ERROR                      40032021
 0042C2 4120 A29D      07F95        6888 SETERB LA    RW2,ELST66           FORMAT 1 MSG                          40038021
 0042C6 47F0 F244      042A2        6889        BC    UNCOND,SETERC         GO WRITE MSG AND EXIT                40044021
 0042CA 9130 C000      0988B        6890 SETER1 TM    GOTTEN,MDN                                                 40050021
 0042CE 4710 F184      041E2        6891        BO    SETERR                NOT COMPATIBLE                       40056021
 0042D2 47F0 F238      04296        6892        BC    UNCOND,SETERA         GIVE UP                              40062021
 0042D6 D501 BE64 A586 09714 0827E  6893 IFIND0   CLC   MODE(LX2),INDNMD                                         40068021
 0042DC 4770 F238      04296        6894        BNE SETERA      INVALID OP2                                      40074021
 0042E0 45E0 9BDA      07A32        6895        BAL   RCS,ERROR             ERROR                                40080021
 0042E4 4110 A2CA      07FC2        6896        LA    RW1,ELST70                                                 40086021
 0042E8 47F0 F2B0      0430E        6897        B     FNDOP2A               GET NEXT INPUT                       40092021
 0042EC D501 BE64 A586 09714 0827E  6898 IFIND1   CLC   MODE(LX2),INDNMD    CHECKS OP1- KNOW NOT INDEXNAME       40098021
 0042F2 4770 F26C      042CA        6899        BNE    SETER1     INVALID                                        40104021
 0042F6 9180 B676      08F26        6900        TM    MODER,MNUMBT         IS OP2 NUMERIC                        40110021
 0042FA 4710 F184      041E2        6901        BO    SETERR             INCOMPATIBLE                            40116021
 0042FE 9104 C003      00003        6902          TM    DX3(RIN),DX4        SUBSCRIPTED INDEX ITEM               40122021
 004302 4780 F194      041F2        6903          BZ    OPSOK               NO, IT IS NOT SUBSCRIPTED IDEX       40128021
1PH40     IKFCBL40                                                                                              PAGE  145
-  LOC  OBJECT CODE    ADDR1 ADDR2  STMT   SOURCE STATEMENT                                       ASM 0201 11.03 02/14/15
0004306 45E0 81D2      0618A        6904          BAL   RCS,SUBSCR          YES, SUBSCRIPTED INDEX ITEM          40134021
 00430A 47F0 F194      041F2        6905        B     OPSOK            OK                                        40140021
 00430E 45E0 7566      0551E        6906 FNDOP2A BAL   RCS,GETNXT          RIN SHOULD POINT TO EOS               40146021
 004312 47F0 F0FC      0415A        6907        B     FNDOP2                MODE OF OP2                          40152021
 004316 D200 B5FA C000 08EAA 00000  6908 SETMOVE  MVC   PRIGHT(R0),R0(RIN)                                 44289 40158021
 00431C F900 A5CA C004 082C2 00004  6909 ISPOS    CP    PAKZER(LX1),DX4(LX1,RIN)                                 40164021
 003434                             6910 IKF40D CSECT                                                            40170021
                                    6911 *=1    USE     VERB                                                     40176021
                                    6912 *******************************************************************     40182021
                                    6913 *                                                                       40188021
                                    6914 *                                                                       40194021
                                    6915 *                                 U S E                                 40200021
                                    6916 *                                                                       40206021
                                    6917 *                                                                       40212021
                                    6918 *** STRINGS PRODUCED                                                    40218021
                                    6919 *      VERB CONSTITUTES ENTIRE STRING.                                  40224021
                                    6920 *      THERE ARE 4 DIFFERENT USE VERBS FOR OUTPUT -- USE-LABELS         40230021
                                    6921 *                                                    USE-RANDOM         40236021
                                    6922 *                                                    USE-ERROR          40242021
                                    6923 *                                                    USE-REPORTING      40248021
                                    6924 *                                                                       40254021
                                    6925 *                                                                       40260021
                                    6926 *** SUBROUTINES CALLED                                                  40266021
                                    6927 *      GETNXT,GENDAT,ERROR                                              40272021
                                    6928 *                                                                       40278021
                                    6929 *                                                                       40284021
                                    6930 *** ERROR PROCESSING                                                    40290021
                                    6931 *      SKIP STATEMENT IF NOT IN DECLARATIVES PORTION OF PROGRAM         40296021
                                    6932 *      SKIP STATEMENT IF ONE OF THESE NOT FOUND -- BEGINNING            40302021
                                    6933 *                                                  ENDING               40308021
                                    6934 *                                                  RANDOM               40314021
                                    6935 *                                                  ERROR                40320021
                                    6936 *                                                  REPORTING            40326021
                                    6937 *      SKIP STATEMENT IF INPUT/OUTPUT MISSING AFTER BEGINNING/ENDIN     40332021
                                    6938 *      ASSUME 'PROCESSING' IF ABSENT AFTER 'RANDOM'                     40338021
                                    6939 *      WARN ABOUT CONTRADICTORY OPTIONAL WORDS (E.G., USE FOR ERROR     40344021
                                    6940 *        USE AFTER CREATING,...) BUT ACCEPT                             40350021
                                    6941 *      SKIP STATEMENT IF FILE-NAME NOT FOUND FOR LABEL OR ERROR DEC     40356021
                                    6942 *      TERMINATE ERROR DECL. AT FIRST NON-FILE-NAME.                    40362021
                                    6943 *      SKIP STATEMENT WITHOUT MSG IF RANDOM OPTION AND ITS SECTION      40368021
                                    6944 *       NAME SHOWS RPD =0,(SHOWING PH1 NEVER FOUND THE RIGHT APPLY      40374021
                                    6945 *       CLAUSE AND HAS ALREADY ISSUED MSG).                             40380021
                                    6946 *                                                                       40386021
                                    6947 *                                                                       40392021
                                    6948 *** NOTES                                                               40398021
                                    6949 *      ENDUSE+1 IS USED BOTH AS A SWITCH AND AS STORAGE FOR THE USE     40404021
                                    6950 *       VERB FINALLY DETERMINED. IT IS SET TO 0 AT THE START OF THE     40410021
                                    6951 *       ANALYZER,AND AT THE END IF NO VALID STATEMENT WAS FOUND. EA     40416021
                                    6952 *       OPTIONAL WORD FOUND CAUSES A TENTATIVE VERB-CODE TO BE STOR     40422021
                                    6953 *       IN IT. WHEN THE VERB HAS BEEN FINALLY DETERMINED AND GENERA     40428021
                                    6954 *       A 1 IS PUT IN THE LOW-ORDER BIT. THIS PRODUCES THE END-OF-U     40434021
                                    6955 *       VERB WHICH IS GENERATED BY IDENT WHEN IT FINDS THAT A DECLA     40440021
                                    6956 *       TIVE SECTION HAS ENDED. BEGINNING-USE VERBS ARE EVEN, END-U     40446021
                                    6957 *       ODD. IDENT KNOWS NOT TO GENR END-OF-USE IF ENDUSE+1=0. THIS     40452021
                                    6958 *       SAYS THERE HAS BEEN NO BEGINNING-USE.                           40458021
1PH40     IKFCBL40                                                                                              PAGE  146
-  LOC  OBJECT CODE    ADDR1 ADDR2  STMT   SOURCE STATEMENT                                       ASM 0201 11.03 02/14/15
0                                   6959 *                                                                       40464021
                                    6960 *                                                                       40470021
                                    6961 *******************************************************************     40476021
-
                             03434  6963        USING   *,RVRB                                                   40488021
                             03434  6964 USE    EQU     *                                                        40494021
 003434 9507 BF62      09812        6965        CLI     PGMBRK,MDECL       ARE WE IN DECLARATIVES                40500021
 003438 4780 F014      03448        6966        BC      EQ,USE2            YES-OK                                40506021
 00343C 45E0 9BDA      07A32        6967        BAL     RCS,ERROR          NO-SKIP STATEMENT                     40512021
 003440 4110 A13B      07E33        6968        LA      RW1,ELST30                                               40518021
 003444 47F0 720C      051C4        6969        BC      UNCOND,IDERR        ISSUE MESSAGE AND EXIT               40524021
                                    6970 *                                                                       40530021
                                    6971 *              INITIALIZE                                               40536021
                                    6972 *                                                                       40542021
                             03448  6973 USE2   EQU     *                                                        40548021
 003448 9400 BEF5      097A5        6974          NI    ENDUSE+NX1,XX00     ZERO VERB CODE USED AS SWITCH        40554021
 00344C 94FE BF75      09825        6975        NI      PFNDOP,MSWOFF      OFF SWITCH FOR FOUND A FILE-NAME      40560021
                                    6976 *      NI    HOLDSW,MSWOFF                                              40566021
 003450 94FE BFC3      09873        6977        NI      TRCUSW,MSWOFF      OFF SW INHIBITING TRACE CODING        40572021
 003454 D700 BED2 BED2 09782 09782  6978          XC    ETOPS+NX2(LX1),ETOPS+NX2                                 40578021
 00345A 9200 BEF6      097A6        6979          MVI   ENDUSE+NX2,XX00                                          40584021
 00345E 4100 A6C7      083BF        6980        LA    RA0,BCDOPT                                                 40590021
                                    6981 *                                                                       40596021
                                    6982 *              SEEK 'FOR', 'AFTER','BEFORE'                             40602021
                                    6983 *                                                                       40608021
 003462 D501 C000 A534 0988B 0822C  6984 USE6     CLC   GOTTEN(LX2),CBAFTR   IS IT AFTER                         40614021
 003468 4770 F046      0347A        6985        BNE   USE8          NO-SEE IF BEFORE                             40620021
 00346C D200 BEF5 A54E 097A5 08246  6986          MVC   ENDUSE+NX1(LX1),VBCODE+NX2 ASSUME USE AFTER ERROR        40626021
 003472 45E0 7566      0551E        6987        BAL   RCS,GETNXT            GET NEXT INPUT                       40632021
 003476 47F0 F05E      03492        6988        BC    UNCOND,USE14          SEEK KEY WORDS                       40638021
 00347A D501 C000 A536 0988B 0822E  6989 USE8     CLC   GOTTEN(LX2),CBEFOR   IS IT BEFORE                        40644021
 003480 4770 F05E      03492        6990        BNE   USE14           NO OPTIONAL WORDS-SEEK KEY WORDS           40650021
 003484 9680 BED2      09782        6991          OI    ETOPS+NX2,XX80     BEFORE FOUND-SET BIT ON BEF LABEL     40656021
 003488 45E0 7566      0551E        6992        BAL   RCS,GETNXT            GET NEXT INPUT                       40662021
 00348C D200 BEF5 A54C 097A5 08244  6993          MVC   ENDUSE+NX1(LX1),VBCODE SET VBCODE TO BEFORE REPORTING    40668021
                                    6994 *                                                                       40674021
                                    6995 *              SEEK OPTION                                              40680021
                                    6996 *                                                                       40686021
                             03492  6997 USE14  EQU     *                                                        40692021
 003492 4140 0008      00008        6998          LA    RW4,DX8               RW4  CONTROLS LOOP                 40698021
 003496 4130 0008      00008        6999          LA    RW3,DX8               RW3 PTS  TO WORD FOUND             40704021
 00349A 4120 A538      08230        7000        LA    RW2,CBSTND            RW2 PTS SUCCESSIVERLY TO WORDS       40710021
 00349E D501 C000 2000 0988B 00000  7001          CLC   GOTTEN(LX2),DX0(RW2) IS IT STANDARD                      40716021
 0034A4 4770 F078      034AC        7002        BNE   USE16                 NO, SEEK ANOTHER KEYWORD             40722021
 0034A8 45E0 7566      0551E        7003        BAL   RCS,GETNXT            GET NEXT INPUT                       40728021
 0034AC 4122 0002      00002        7004 USE16    LA    RW2,DX2(RW2)                                             40734021
 0034B0 D501 C000 2000 0988B 00000  7005          CLC   GOTTEN(LX2),DX0(RW2) IS IT ONE OF KEYWORDS               40740021
 0034B6 4780 F090      034C4        7006        BC      EQ,USE18            YES                                  40746021
 0034BA 0630                        7007        BCTR  RW3,RA0               NO                                   40752021
 0034BC 4640 F078      034AC        7008        BCT     RW4,USE16           IS IT A KEYWORD                      40758021
                                    7009 *      CLC   GOTTEN(2),CBRAND                                           40764021
                                    7010 *      BE    USE80                 IS IT RANDOM                         40770021
 0034C0 47F0 F34A      0377E        7011        BC      UNCOND,USE300      EXIT                                  40776021
1PH40     IKFCBL40                                                                                              PAGE  147
-  LOC  OBJECT CODE    ADDR1 ADDR2  STMT   SOURCE STATEMENT                                       ASM 0201 11.03 02/14/15
0                            034C4  7012 USE18  EQU     *                                                        40782021
 0034C4 4160 0002      00002        7013          LA    RW6,DX2                                                  40788021
 0034C8 1843                        7014        LR      RW4,RW3                                                  40794021
 0034CA 4B40 A5A8      082A0        7015        SH      RW4,N7                                                   40800021
 0034CE 4720 F0AA      034DE        7016        BC      POS,USE22          RW6=2 FOR ERROR OPTIONS               40806021
 0034D2 0660                        7017        BCTR  RW6,RA0               DECREMENT COUNT BY 1                 40812021
 0034D4 4A40 A5A4      0829C        7018        AH      RW4,N5                                                   40818021
 0034D8 47B0 F0AA      034DE        7019        BC      NOTNEG,USE22       RW6=1 FOR LABEL AND RANDOM OPTION     40824021
 0034DC 0660                        7020        BCTR  RW6,RA0              RW6=0 FOR REPORTING OPTION            40830021
                             034DE  7021 USE22  EQU     *                                                        40836021
 0034DE 4166 A54C      08244        7022        LA      RW6,VBCODE(RW6)                                          40842021
 0034E2 9500 BEF5      097A5        7023          CLI   ENDUSE+NX1,XX00 WAS ANY OPTIONAL WORD FOUND PREVIOUSL    40848021
 0034E6 4780 F0D4      03508        7024        BC    EQ,USE22A             YES                                  40854021
 0034EA D500 BEF5 6000 097A5 00000  7025          CLC   ENDUSE+NX1(LX1),DX0(RW6)   WAS IT COMPATIBLE WITH THIS   40860021
 0034F0 4780 F0DC      03510        7026        BC      EQ,USE24           YES-OK                                40866021
 0034F4 9546 6000      00000        7027          CLI   DX0(RW6),XX46     WAS IT USE FOR LABELS                  40872021
 0034F8 4780 F0DC      03510        7028        BE    USE24                  OK                                  40878021
 0034FC 45E0 9BDA      07A32        7029        BAL     RCS,ERROR          NO- TRIVIAL ERROR                     40884021
 003500 4110 A13E      07E36        7030        LA      RW1,ELST31                                               40890021
 003504 47F0 F0DC      03510        7031        B     USE24                 USE FOR LABELS                       40896021
 003508 9546 6000      00000        7032 USE22A   CLI   DX0(RW6),XX46       MUST KNOW IF BEFORE-AFTER LABEL      40902021
 00350C 4780 F34A      0377E        7033        BE    USE300                NO, ERROR                            40908021
 003510 D200 BEF5 6000 097A5 00000  7034 USE24    MVC   ENDUSE+NX1(LX1),DX0(RW6) SET  VERB CODE AS SWITCH        40914021
 003516 8B30 0002      00002        7035          SLA   RW3,DX2             RW3,USED IN BCT, SAYS WHICH KEY-W    40920021
 00351A 47F3 F0E6      0351A        7036        BC      UNCOND,*(RW3)      RW3 SAYS WHICH KEYWORD FOUND          40926021
 00351E 47F0 F10A      0353E        7037        BC      UNCOND,USE30       REPORTING                             40932021
 003522 47F0 F24C      03680        7038        BC    UNCOND,USE122         LABEL                                40938021
 003526 47F0 F214      03648        7039        BC    UNCOND,USE120         FILE                                 40944021
 00352A 47F0 F214      03648        7040        BC    UNCOND,USE120         REEL                                 40950021
 00352E 47F0 F214      03648        7041        BC    UNCOND,USE120         UNIT                                 40956021
 003532 47F0 F11E      03552        7042        BC    UNCOND,USE51          ENDING                               40962021
 003536 47F0 F116      0354A        7043        BC    UNCOND,USE50          BEGINNING                            40968021
 00353A 47F0 F136      0356A        7044        BC      UNCOND,USE100      ERROR                                 40974021
                                    7045 *                                                                       40980021
                                    7046 *              'REPORTING' FOUND                                        40986021
                                    7047 *                                                                       40992021
                             0353E  7048 USE30  EQU     *                                                        40998021
 00353E 9101 BD41      095F1        7049          TM    SAVLHN+NX3,MRPTBT      YES - DID PH1 LIKE IT             41004021
 003542 4710 F32A      0375E        7050        BC    ONES,USE200       OK- GENERATE                             41010021
 003546 47F0 F352      03786        7051        BC      UNCOND,USE302         NO - DONT GENR                     41016021
                                    7052 *                                                                       41022021
                                    7053 *      BEGINNING, ENDING   FOUND                                        41028021
                                    7054 *                                                                       41034021
 00354A 9640 BED2      09782        7055 USE50    OI    ETOPS+NX2,XX40                                           41040021
 00354E 47F0 F122      03556        7056         B      *+NX8               BEGINING FOUND, DISCARD IT           41046021
 003552 9620 BED2      09782        7057 USE51    OI    ETOPS+NX2,XX20                                           41052021
 003556 45E0 7566      0551E        7058        BAL   RCS,GETNXT            BEGINING/ENDING FOUND, DISCARD       41058021
 00355A 4140 0004      00004        7059          LA    RW4,DX4                                                  41064021
 00355E 4130 0005      00005        7060          LA    RW3,DX5                                                  41070021
 003562 4120 A53E      08236        7061          LA    RW2,CBREEL-NX2                                           41076021
 003566 47F0 F078      034AC        7062        BC      UNCOND,USE16        CHECK IF KEYWORD FOLLOWS             41082021
                                    7063 *                                                                       41088021
                                    7064 *              'RANDOM' FOUND                                           41094021
                                    7065 *                                                                       41100021
                                    7066 *USE80 EQU   *                                                          41106021
1PH40     IKFCBL40                                                                                              PAGE  148
-  LOC  OBJECT CODE    ADDR1 ADDR2  STMT   SOURCE STATEMENT                                       ASM 0201 11.03 02/14/15
0                                   7067 *      CLI   RPD,0                 WAS THERE AN APP-4CLAUSE             41112021
                                    7068 *      BC    EQ,USE302             NO-DONT GENR(PH1 NOTED ERR)          41118021
                                    7069 *      MVC   ENDUSE+1(1),VBCODE+3   SET  VERB CODE                      41124021
                                    7070 *      OI    SWUSRP,MSWON                                               41130021
                                    7071 *      CLC   GOTTEN(2),CBPRNG       IS IT PROCESSING                    41136021
                                    7072 *      BC    EQ,USE200              YES-OK EXIT                         41142021
                                    7073 *      LA    RA0,CBPRNG             NO-TRIVIAL ERROR                    41148021
                                    7074 *      BAL   RCS,ERROR                                                  41154021
                                    7075 *      LA    RW1,ELST07                                                 41160021
                                    7076 *      BC    UNCOND,USE202          EXIT-DONT GETNXT                    41166021
                                    7077 *                                                                       41172021
                                    7078 *              'ERROR' FOUND                                            41178021
                                    7079 *                                                                       41184021
 00356A 45E0 7566      0551E        7080 USE100 BAL   RCS,GETNXT            GET NEXT INPUT                       41190021
 00356E D501 C000 A506 0988B 081FE  7081          CLC   GOTTEN(LX2),CBPROC                                       41196021
 003574 4770 F148      0357C        7082          BC    NOTEQ,*+NX8         NOT 'PROCEDURE'                      41202021
 003578 45E0 7566      0551E        7083        BAL     RCS,GETNXT         DISCARD 'PROCEDURE'                   41208021
 00357C D501 C000 A3FC 0988B 080F4  7084          CLC   GOTTEN(LX2),CBON                                         41214021
 003582 4770 F156      0358A        7085          BC    NOTEQ,*+NX8         NOT 'ON'                             41220021
 003586 45E0 7566      0551E        7086        BAL     RCS,GETNXT         AND 'ON'                              41226021
 00358A 4100 A73C      08434        7087        LA      RA0,BCDFIL         SET RA0 FOR POSSIBLE MSG              41232021
 00358E 9521 C000      0988B        7088        CLI     GOTTEN,MFILE       DOES FILE-NAME FOLLOW                 41238021
 003592 4770 F202      03636        7089        BC    NOTEQ,USE104          NO                                   41244021
 003596 9601 BED2      09782        7090          OI    ETOPS+NX2,XX01       SET SW TO PH5-FILE  FOLLOWS         41250021
 00359A 9101 BFB4      09864        7091          TM    XREFSW,MSWON        XREF REQUESTED                 50787 41256021
 00359E 4780 F17C      035B0        7092          BZ    USE101B             NO, EXIT                       50787 41262021
 0035A2 D202 BEF8 C00B 097A8 0000B  7093          MVC   FILEREF1(LX3),DX11(RIN)                            50787 41268021
 0035A8 45E0 7734      056EC        7094          BAL   RCS,GENDAT          GEN FILE REF ELEMENT FOR XREF  50787 41274021
 0035AC 4120 BEF7      097A7        7095          LA    RW2,FILEREF         C8 ELEMENT                     50787 41280021
                             035B0  7096 USE101B  EQU   *                                                  50787 41286021
 0035B0 45E0 7566      0551E        7097        BAL   RCS,GETNXT            GET NEXT INPUT                       41292021
 0035B4 D501 C000 A34C 0988B 08044  7098          CLC   GOTTEN(LX2),CBGIVE   DOES  GIVING  FOLLOW                41298021
 0035BA 4780 F1B4      035E8        7099          BE    USE102              YES, LOOK FOR DATA NAME(S)           41304021
 0035BE 9521 C000      0988B        7100 USE101 CLI   GOTTEN,MFILE          FOUND FILE-NAME ?                    41310021
 0035C2 4770 F19A      035CE        7101        BNE   USE101A               NO, GO TO FINISH STRING              41316021
 0035C6 45E0 7566      0551E        7102        BAL   RCS,GETNXT            GET NEXT ELEMENT                     41322021
 0035CA 47F0 F18A      035BE        7103        B     USE101                BACK TO CHECK NEXT FILE              41328021
 0035CE 9202 BEF6      097A6        7104 USE101A  MVI   ENDUSE+NX2,XX02                                          41334021
 0035D2 45E0 8068      06020        7105        BAL   RCS,STLOOP            STORE USE,VERB-INFO, AND ZERO        41340021
 0035D6 0003                        7106        DC    XL2'3'                STORE  3 ELEMENTS                    41346021
 0035D8 4140 BEF4      097A4        7107        LA    RW4,ENDUSE                                                 41352021
 0035DC 4140 BED0      09780        7108        LA    RW4,ETOPS                                                  41358021
 0035E0 4140 A4EA      081E2        7109        LA    RW4,CBZERO                                                 41364021
 0035E4 47F0 F30A      0373E        7110        B     USE130                EXIT TO GENERATE STRING              41370021
 0035E8 9203 BEF6      097A6        7111 USE102   MVI   ENDUSE+NX2,XX03     TYPE OF OPTION                       41376021
 0035EC 4100 A660      08358        7112        LA    RA0,BCDDN             ERROR MESSAGE                        41382021
 0035F0 45E0 7566      0551E        7113        BAL   RCS,GETNXT            GET NEXT ELEMENT                     41388021
 0035F4 45E0 8068      06020        7114        BAL   RCS,STLOOP            STORE USE, VERB-INFO IN STRING       41394021
 0035F8 0002                        7115        DC    XL2'2'                STORE 2 ELEMENTS                     41400021
 0035FA 4140 BEF4      097A4        7116        LA    RW4,ENDUSE                                                 41406021
 0035FE 4140 BED0      09780        7117        LA    RW4,ETOPS             USE STD ERROR ETOPS                  41412021
 003602 9530 C000      0988B        7118        CLI   GOTTEN,MDN            IS IT DN                             41418021
 003606 4770 F34A      0377E        7119        BNE    USE300               NO, ERROR                            41424021
 00360A 184C                        7120        LR    RW4,RIN                                                    41430021
 00360C 45E0 8000      05FB8        7121        BAL   RCS,STOR45            STORE DN IN STRING                   41436021
1PH40     IKFCBL40                                                                                              PAGE  149
-  LOC  OBJECT CODE    ADDR1 ADDR2  STMT   SOURCE STATEMENT                                       ASM 0201 11.03 02/14/15
0003610 45E0 7566      0551E        7122        BAL   RCS,GETNXT            GET NEXT ELEMENT                     41442021
 003614 9530 C000      0988B        7123        CLI   GOTTEN,MDN            IS IT DN                             41448021
 003618 4770 F1F6      0362A        7124        BNE   USE103                NO, GO TO STORE ZERO IN STRING       41454021
 00361C 184C                        7125        LR    RW4,RIN                                                    41460021
 00361E 45E0 8000      05FB8        7126        BAL   RCS,STOR45            YES, STORE DN IN STRING              41466021
 003622 45E0 7566      0551E        7127        BAL   RCS,GETNXT            GET NEXT ELEMENT                     41472021
 003626 47F0 F30A      0373E        7128        B     USE130                GO TO GENERATE STRING                41478021
 00362A 4140 A4EA      081E2        7129 USE103 LA    RW4,CBZERO                                                 41484021
 00362E 45E0 8000      05FB8        7130        BAL   RCS,STOR45            STORE ZERO IN STRING                 41490021
 003632 47F0 F30A      0373E        7131        B     USE130                EXIT TO GENERATE STRING              41496021
 003636 D700 BED2 BED2 09782 09782  7132 USE104   XC    ETOPS+NX2(LX1),ETOPS+NX2                                 41502021
 00363C 9201 BEF6      097A6        7133          MVI   ENDUSE+NX2,XX01                                          41508021
 003640 45E0 7566      0551E        7134        BAL   RCS,GETNXT            GET NEXT ELEMENT                     41514021
 003644 47F0 F2FC      03730        7135        B     USE129A          GO GENR STRING                            41520021
                             03648  7136 USE120 EQU   *                     REEL,UNIT,FILE FOUND                 41526021
 003648 D501 C000 A544 0988B 0823C  7137          CLC   GOTTEN(LX2),CBFILE                                       41532021
 00364E 4780 F22A      0365E        7138        BE    USE121                FILE FOUND                           41538021
 003652 9610 BED2      09782        7139          OI    ETOPS+NX2,XX10       REEL OR   UNIT                      41544021
 003656 45E0 7566      0551E        7140        BAL   RCS,GETNXT            GET NEXT ELEMENT                     41550021
 00365A 47F0 F232      03666        7141        B     USE121A               CHECK IF 'LABELS' FOLLOW             41556021
 00365E 9608 BED2      09782        7142 USE121   OI    ETOPS+NX2,XX08       FILE                                41562021
 003662 45E0 7566      0551E        7143        BAL   RCS,GETNXT            GET NEXT ELEMENT                     41568021
 003666 D501 C000 A546 0988B 0823E  7144 USE121A  CLC   GOTTEN(LX2),CBLABL                                       41574021
 00366C 4780 F24C      03680        7145        BC      EQ,USE122           'LABELS' FOUND                       41580021
 003670 4100 A546      0823E        7146        LA      RA0,CBLABL         'LABELS' MISSING                      41586021
 003674 45E0 9BDA      07A32        7147        BAL     RCS,ERROR           ERROR                                41592021
 003678 4110 A02A      07D22        7148        LA      RW1,ELST07                                               41598021
 00367C 47F0 F250      03684        7149          BC    UNCOND,*+NX8        CHECK IF 'PROCEDURE'                 41604021
                             03680  7150 USE122 EQU     *                                                        41610021
 003680 45E0 7566      0551E        7151        BAL     RCS,GETNXT         DISCARD 'LABELS'                      41616021
 003684 D501 C000 A506 0988B 081FE  7152 USE123   CLC   GOTTEN(LX2),CBPROC                                       41622021
 00368A 4770 F25E      03692        7153         BNE    *+NX8               NO                                   41628021
 00368E 45E0 7566      0551E        7154        BAL   RCS,GETNXT            GET NEXT ELEMENT                     41634021
 003692 D501 C000 A3FC 0988B 080F4  7155          CLC   GOTTEN(LX2),CBON     IS IT 'ON'                          41640021
 003698 4770 F26C      036A0        7156          BC    NOTEQ,*+NX8         NOT 'ON'                             41646021
 00369C 45E0 7566      0551E        7157 USE123B BAL   RCS,GETNXT          DISCARD                               41652021
 0036A0 9521 C000      0988B        7158        CLI   GOTTEN,MFILE          FILENAME FOLLOWS   ?                 41658021
 0036A4 4770 F2AA      036DE        7159        BNE   USE124                NO                                   41664021
 0036A8 9101 BFB4      09864        7160          TM    XREFSW,MSWON        XREF REQUESTED                 50787 41670021
 0036AC 4780 F28A      036BE        7161          BZ    USE123BB            NO, EXIT                       50787 41676021
 0036B0 D202 BEF8 C00B 097A8 0000B  7162          MVC   FILEREF1(LX3),DX11(RIN)                            50787 41682021
 0036B6 45E0 7734      056EC        7163          BAL   RCS,GENDAT          GEN FILE XREF ELEMENT TEXT     50787 41688021
 0036BA 4120 BEF7      097A7        7164          LA    RW2,FILEREF         C8 ELEMENT                     50787 41694021
                             036BE  7165 USE123BB EQU   *                                                  50787 41700021
 0036BE 9130 C006      00006        7166          TM    DX6(RIN),XX30      ISAM FILE                             41706021
 0036C2 4770 F312      03746        7167        BC    NOTZER,ERRUS1         ILLEGAL HERE-MSG AND DISCARD FD      41712021
 0036C6 9110 BED2      09782        7168          TM    ETOPS+NX2,XX10       UNIT OR REEL                        41718021
 0036CA 4780 F2A2      036D6        7169        BZ    USE123A               NO                                   41724021
 0036CE 91B0 C006      00006        7170          TM    DX6(RIN),XXB0        UNIT OR REEL-QSAM,BSAM FILE         41730021
 0036D2 4770 F31E      03752        7171        BC    NOTZER,ERRUS2         ILLEGAL HERE-MSG AND DISCARD FD      41736021
                                    7172 *                                                                       41742021
 0036D6 9601 BF75      09825        7173 USE123A OI   PFNDOP,MSWON                                               41748021
 0036DA 47F0 F268      0369C        7174        B     USE123B               SEEK NEXT FILE                       41754021
 0036DE 9201 BEF6      097A6        7175 USE124   MVI   ENDUSE+NX2,XX01                                          41760021
 0036E2 9101 BF75      09825        7176        TM    PFNDOP,MSWON                                               41766021
1PH40     IKFCBL40                                                                                              PAGE  150
-  LOC  OBJECT CODE    ADDR1 ADDR2  STMT   SOURCE STATEMENT                                       ASM 0201 11.03 02/14/15
00036E6 4710 F2F0      03724        7177        BO    USE129              OK- GO GENR STRING AND EXIT            41772021
 0036EA 4100 A756      0844E        7178        LA    RA0,BCDINO                                                 41778021
 0036EE D501 C000 A4FA 0988B 081F2  7179          CLC   GOTTEN(LX2),CBINPT   IS IT 'INPUT'                       41784021
 0036F4 4770 F2CC      03700        7180        BNE   USE124A               NO, CHECK IF 'OUTPUT'                41790021
 0036F8 9604 BED2      09782        7181          OI    ETOPS+NX2,XX04      YES                                  41796021
 0036FC 47F0 F2EC      03720        7182        B     USE128                GO TO GET NEXT ELEMENT               41802021
 003700 D501 C000 A504 0988B 081FC  7183 USE124A  CLC   GOTTEN(LX2),CBOUTP   IS IT 'OUTPUT'                      41808021
 003706 4770 F2DE      03712        7184        BNE   USE124B               NO, CHECK TO SEE IF 'I/O'            41814021
 00370A 9602 BED2      09782        7185          OI    ETOPS+NX2,XX02      YES                                  41820021
 00370E 47F0 F2EC      03720        7186        B     USE128                GO TO GET NEXT INPUT                 41826021
 003712 D501 C000 A352 0988B 0804A  7187 USE124B  CLC   GOTTEN(LX2),CBIO     IS IT 'I/O'                         41832021
 003718 4770 F34A      0377E        7188        BNE     USE300              NO, ERROR                            41838021
 00371C 9601 BED2      09782        7189          OI    ETOPS+NX2,XX01                                           41844021
 003720 45E0 7566      0551E        7190 USE128 BAL     RCS,GETNXT          GET NEXT INPUT                       41850021
 003724 9118 BED2      09782        7191 USE129   TM    ETOPS+NX2,XX18     WAS REEL OR UNIT OR FILE SPECIFIED    41856021
 003728 4770 F2FC      03730        7192        BC    NOTZER,USE129A         YES- OK                             41862021
 00372C 9618 BED2      09782        7193          OI    ETOPS+NX2,XX18  NEITHER SPECOFIED- SIGNAL BOTH TO PH5    41868021
 003730 45E0 8068      06020        7194 USE129A BAL   RCS,STLOOP           STORE USE, VERB-INFO                 41874021
 003734 0002                        7195        DC    XL2'2'                STORE  2 ELEMENTS                    41880021
 003736 4140 BEF4      097A4        7196        LA    RW4,ENDUSE                                                 41886021
 00373A 4140 BED0      09780        7197        LA    RW4,ETOPS                                                  41892021
 00373E 45E0 7766      0571E        7198 USE130 BAL     RCS,GENSTR          GENERATE STRING                      41898021
 003742 47F0 F336      0376A        7199        B    USE203                 GO TO EXIT                           41904021
 003746 45E0 9BDA      07A32        7200 ERRUS1 BAL   RCS,ERROR             ERROR                                41910021
 00374A 4110 A2CD      07FC5        7201        LA    RW1,ELST71                ISAM FILE ILLEGAL/LABELS         41916021
 00374E 47F0 F268      0369C        7202        BC    UNCOND,USE123B       GET NEXT AND SEE IF OK                41922021
 003752 45E0 9BDA      07A32        7203 ERRUS2 BAL   RCS,ERROR             ERROR                                41928021
 003756 4110 A2D3      07FCB        7204        LA    RW1,ELST72          UNIT OR REEL ILLEGAL/BDAM FILE         41934021
 00375A 47F0 F268      0369C        7205        BC    UNCOND,USE123B        GET NEXT AND SEE IF OK               41940021
                                    7206 *                                                                       41946021
                                    7207 *              CORRECT EXIT                                             41952021
                                    7208 *                                                                       41958021
                             0375E  7209 USE200 EQU     *                                                        41964021
 00375E 45E0 7566      0551E        7210        BAL     RCS,GETNXT          GET NEXT INPUT                       41970021
 003762 45E0 7734      056EC        7211 USE202 BAL     RCS,GENDAT         GENR USE VERB AS ENTIRE STRING        41976021
 003766 4120 BEF4      097A4        7212        LA      RW2,ENDUSE                                               41982021
 00376A 9601 BEF5      097A5        7213 USE203   OI    ENDUSE+NX1,XX01                                          41988021
 00376E 9200 BEF6      097A6        7214          MVI   ENDUSE+NX2,XX00      ENDUSE MUST ALWAYSE BE ZERO         41994021
 003772 9601 BF73      09823        7215        OI      GENRED,MSWON       AVOID 'INCOMPLETE' MSG                42000021
 003776 45E0 7454      0540C        7216        BAL     RCS,IDLH09         PROVIDE TRACE CODING FOR SN IF NE     42006021
 00377A 47F0 7000      04FB8        7217          BC    UNCOND,IDENT        EXIT                                 42012021
                                    7218 *                                                                       42018021
                                    7219 *              ERROR EXIT - RA0 CONTAINS PARAMETER ADDRESS              42024021
                                    7220 *                                                                       42030021
                             0377E  7221 USE300 EQU     *                                                        42036021
 00377E 45E0 9BDA      07A32        7222        BAL     RCS,ERROR           WRITE ERROR MESSAGE                  42042021
 003782 4110 A144      07E3C        7223        LA      RW1,ELST32                                               42048021
                             03786  7224 USE302 EQU     *                                                        42054021
 003786 9400 BEF5      097A5        7225          NI    ENDUSE+NX1,XX00     SET USEVERB TO 0 SO IDENT WONT GE    42060021
 00378A 45E0 7454      0540C        7226        BAL     RCS,IDLH09         PROVIDE TRACE CODING FOR SN IF NE     42066021
 00378E 47F0 720C      051C4        7227        BC      UNCOND,IDERR        ERROR EXIT                           42072021
1PH40     IKFCBL40                                                                                              PAGE  151
-  LOC  OBJECT CODE    ADDR1 ADDR2  STMT   SOURCE STATEMENT                                       ASM 0201 11.03 02/14/15
1PH40     IKFCBL40                                                                                              PAGE  152
-  LOC  OBJECT CODE    ADDR1 ADDR2  STMT   SOURCE STATEMENT                                       ASM 0201 11.03 02/14/15
0004328                             7230 IKF40F CSECT                                                            42090021
                                    7231 *=1    DISPLA  VERB                                                     42096021
                                    7232 *******************************************************************     42102021
                                    7233 *                                                                       42108021
                                    7234 *                                                                       42114021
                                    7235 *                           D I S P L A                                 42120021
                                    7236 *                                                                       42126021
                                    7237 *                                                                       42132021
                                    7238 *  DISPLAY VERB ANALYZER. USES STO5 ENTRYS  TO STO ROUTINES.            42138021
                                    7239 *      USES CONTINUOUS SEGMENTED STRING.                                42144021
                                    7240 *                                                                       42150021
                                    7241 *** STRINGS PRODUCED                                                    42156021
                                    7242 *      SOURCE - DISPLAY DN1 'A'                                         42162021
                                    7243 *      OUTPUT - DISPLAY 'FIRST' 'ZERO' DN1 'A' 'END'                    42168021
                                    7244 *      SOURCE - DISPLAY DN1 'A' DN2 'B' DN3 'C' UPON CONSOLE            42174021
                                    7245 *      OUTPUT - DISPLAY 'FIRST' CONSOLE DN1 'A' DN2                     42180021
                                    7246 *               DISPLAY 'B' DN3 'C' 'END'                               42186021
                                    7247 *                                                                       42192021
                                    7248 *                                                                       42198021
                                    7249 *** SUBROUTINES CALLED                                                  42204021
                                    7250 *      GETNXT,STOVRB,STODUM,STO5IN,STO5CU,RDUCOP,ERROR                  42210021
                                    7251 *       ISFLPT                                                          42216021
                                    7252 *                                                                       42222021
                                    7253 *                                                                       42228021
                                    7254 *** ERROR PROCESSING                                                    42234021
                                    7255 *      SKIP STATEMENT IF 1ST OPERAND ILLEGAL                            42240021
                                    7256 *      ASSUME MISSING 'UPON'                                            42246021
                                    7257 *      ASSUME SYSOUT IF 'SYSPCH' OR 'CONSOLE' MISSING                   42252021
                                    7258 *                                                                       42258021
                                    7259 *                                                                       42264021
                                    7260 *** NOTES                                                               42270021
                                    7261 *      ZERO IS STORED AS 1ST ELEMENT FOR SYSOUT                         42276021
                                    7262 *      IF ANY DN IS INT. FLOATING POINT,DISPLAY STRINGS ARE PRECEDE     42282021
                                    7263 *               MOVE ELEMENT PARAM                                      42288021
                                    7264 *      GNOUSW TELLS GENSTR TO GENERATE WHAT IT FINDS IN PNOUNT -- I     42294021
                                    7265 *       THE MOVE STRINGS                                                42300021
                                    7266 *                                                                       42306021
                                    7267 *                                                                       42312021
                                    7268 *******************************************************************     42318021
-
                             04328  7270        USING   *,RVRB                                                   42330021
                             04328  7271 DISPLA EQU     *                                                        42336021
 004328 9601 BFC0      09870        7272        OI      GNOUSW,MSWON       ALERT GENSTR TO OUTPUT IN PNOUNS      42342021
 00432C 94FE BF75      09825        7273        NI      PFNDOP,MSWOFF                                            42348021
 004330 45E0 7F5C      05F14        7274        BAL     RCS,PZSTRT          REINITIALIZE TAMER TABLES            42354021
 004334 5810 B070      08920        7275        L     RW1,APNOUN                                                 42360021
 004338 D701 BE6C BE6C 0971C 0971C  7276          XC    PARSIZ(LX2),PARSIZ   RESTART PARAM DISPL. COUNT AT 0     42366021
 00433E 45E0 813A      060F2        7277        BAL     RCS,STO5BG         STORE VERB AND 'FIRST'                42372021
 004342 9601 BE9C      0974C        7278        OI      STO5CT,MSWON        INITIALIZE SWITCHES FOR STO5         42378021
 004346 1B11                        7279        SR      RW1,RW1            SW = 1 IF 'UPON' FOUND                42384021
                                    7280 *                                                                       42390021
                                    7281 *      PUT OUT SYSOUT DUMMY (FIGCON ZERO) TO BE OVERWRITTEN             42396021
                                    7282 *              IF ANOTHER OPTION IS ACTUALLY FOUND.                     42402021
1PH40     IKFCBL40                                                                                              PAGE  153
-  LOC  OBJECT CODE    ADDR1 ADDR2  STMT   SOURCE STATEMENT                                       ASM 0201 11.03 02/14/15
0004348 45E0 8154      0610C        7283        BAL     RCS,STODUM          PUT FIGCON 'ZERO' INTO STRING        42408021
 00434C 45E0 81AC      06164        7284 DISP02 BAL     RCS,RDUCOP          IS IT A VALID DATA NAME              42414021
 004350 47F0 F0D2      043FA        7285        BC      UNCOND,DISPE4       NOT DN, IS IT OPERAND                42420021
 004354 9601 BF75      09825        7286        OI      PFNDOP,MSWON       AT LEAST 1 GOOD OP FOUND              42426021
 004358 45E0 8B02      06ABA        7287        BAL     RCS,ISFLPT          IS IT FLOATING POINT                 42432021
 00435C 45E0 808C      06044        7288        BAL     RCS,STO5IN          STORE IT                             42438021
 004360 45E0 7566      0551E        7289        BAL     RCS,GETNXT          GET NEXT INPUT                       42444021
 004364 47F0 F024      0434C        7290        BC      UNCOND,DISP02       CHECK IF VALID DATA NAME             42450021
 004368 D501 C000 A51C 0988B 08214  7291 DISP01   CLC   GOTTEN(LX2),CBUPON   ='UPON'...                          42456021
 00436E 4780 F058      04380        7292        BC      EQ,DISP1X           YES                                  42462021
 004372 D501 C000 A3FC 0988B 080F4  7293          CLC   GOTTEN(LX2),CBON    IS IT BY NATURAL ERROR 'ON'          42468021
 004378 4770 F05E      04386        7294        BC      NOTEQ,DISP03         NO                                  42474021
 00437C 4111 0001      00001        7295          LA    RW1,DX1(RW1)         YES - SW WILL BECOME 1 AND CAUSE    42480021
                             04380  7296 DISP1X EQU     *                                                        42486021
 004380 45E0 7566      0551E        7297        BAL     RCS,GETNXT          DISCARD 'UPON'                       42492021
 004384 0610                        7298        BCTR  RW1,RA0              SET UPON SW                           42498021
 004386 D501 C000 A4CE 0988B 081C6  7299 DISP03   CLC   GOTTEN(LX2),CBSOUT  ='SYSOUT'                            42504021
 00438C 4780 F086      043AE        7300        BC      EQ,DISP3X           YES                                  42510021
 004390 D501 C000 A33E 0988B 08036  7301          CLC   GOTTEN(LX2),CBCNSL   ='CONSOLE'...                       42516021
 004396 4780 F08A      043B2        7302        BC      EQ,DISP04            YES                                 42522021
 00439A D501 C000 A50C 0988B 08204  7303          CLC   GOTTEN(LX2),CBSYSP   ='SYSPCH'...                        42528021
 0043A0 4780 F08A      043B2        7304        BC      EQ,DISP04           YES                                  42534021
 0043A4 1211                        7305        LTR     RW1,RW1            WAS UPON FOUND                        42540021
 0043A6 4780 F0A6      043CE        7306        BC      ZERO,DISP05         NO - OK,USE SYSOUT                   42546021
 0043AA 47F0 F0C6      043EE        7307        BC      UNCOND,DISPE3       YES - ERROR,THEN USE SYSOUT          42552021
 0043AE 41C0 A4EA      081E2        7308 DISP3X LA      RIN,CBZERO                                               42558021
                             043B2  7309 DISP04 EQU     *                                                        42564021
 0043B2 1211                        7310        LTR     RW1,RW1            WAS UPON FOUND                        42570021
 0043B4 4780 F0B6      043DE        7311        BC      ZERO,DISPE2         NO - TRIVIAL ERROR                   42576021
                             043B8  7312 DISP4X EQU     *                                                        42582021
 0043B8 5820 B048      088F8        7313        L       RW2,ASTRNG          CURRENT ORGIN OF STRING              42588021
 0043BC 5822 0000      00000        7314          L     RW2,DX0(RW2)                                             42594021
 0043C0 5822 0000      00000        7315          L     RW2,DX0(RW2)                                             42600021
 0043C4 D201 2007 C000 00007 00000  7316          MVC   DX7(LX2,RW2),DX0(RIN) OVERLAY SYSOUT WITH DEVICE FOUND   42606021
 0043CA 45E0 7566      0551E        7317        BAL     RCS,GETNXT          GET NEXT INPUT                       42612021
                             043CE  7318 DISP05 EQU     *                                                        42618021
 0043CE 45E0 8108      060C0        7319        BAL     RCS,STO5CU             CLEANUP                           42624021
 0043D2 94FE BE9C      0974C        7320        NI      STO5CT,MSWOFF       RESET CONTINUOUS-SEGMENTED SW        42630021
                             043D6  7321 DISPE1 EQU     *                                                        42636021
 0043D6 94FE BFC0      09870        7322        NI      GNOUSW,MSWOFF                                            42642021
 0043DA 47F0 7000      04FB8        7323        BC      UNCOND,IDENT     *** LEAVE DISPLAY VERB ***              42648021
                                    7324 *                                                                       42654021
                                    7325 *                           ERRORS                                      42660021
                                    7326 *                                                                       42666021
                             043DE  7327 DISPE2 EQU   *                     9D                                   42672021
 0043DE 4100 A51C      08214        7328        LA      RA0,CBUPON                                               42678021
 0043E2 45E0 9BDA      07A32        7329        BAL   RCS,ERROR             WARNING ERROR                        42684021
 0043E6 4110 A02A      07D22        7330        LA      RW1,ELST07                                               42690021
 0043EA 47F0 F090      043B8        7331        BC      UNCOND,DISP4X       LOOK FOR DEVICE                      42696021
                             043EE  7332 DISPE3 EQU   *                     9E                                   42702021
 0043EE 45E0 9BDA      07A32        7333        BAL   RCS,ERROR             ERROR EARNING                        42708021
 0043F2 4110 A1BF      07EB7        7334        LA      RW1,ELST45                                               42714021
 0043F6 47F0 F0A6      043CE        7335        BC    UNCOND,DISP05         DISPE3                               42720021
 0043FA 9120 C000      0988B        7336 DISPE4 TM      GOTTEN,MOP         IS IT OPERAND (EVEN NON-DATA)         42726021
 0043FE 4710 F0EE      04416        7337        BC      ONES,DISPE6         YES                                  42732021
1PH40     IKFCBL40                                                                                              PAGE  154
-  LOC  OBJECT CODE    ADDR1 ADDR2  STMT   SOURCE STATEMENT                                       ASM 0201 11.03 02/14/15
0004402 9101 BF75      09825        7338        TM      PFNDOP,MSWON        NO - WAS ANY FOUND                   42738021
 004406 4710 F040      04368        7339        BC      ONES,DISP01               YES - LOOK FOR 'UPON'          42744021
 00440A 45E0 8C32      06BEA        7340        BAL     RCS,ISEND           NO - IS THIS END                     42750021
 00440E 47F0 F0EE      04416        7341        BC      UNCOND,DISPE6        NOT END - DISCARD                   42756021
 004412 47F0 F0AE      043D6        7342        BC      UNCOND,DISPE1       END - GIVE UP                        42762021
 004416 45E0 9BDA      07A32        7343 DISPE6 BAL     RCS,ERROR           ERROR - DELETE                       42768021
 00441A 4110 A00F      07D07        7344        LA      RW1,ELST04                                               42774021
 00441E 45E0 7566      0551E        7345        BAL     RCS,GETNXT         DISCARD AND LOOK FOR ANOTHER OP       42780021
 004422 47F0 F024      0434C        7346        BC      UNCOND,DISP02       CHECK IF VALID DATA NAME             42786021
1PH40     IKFCBL40                                                                                              PAGE  155
-  LOC  OBJECT CODE    ADDR1 ADDR2  STMT   SOURCE STATEMENT                                       ASM 0201 11.03 02/14/15
0                                   7348 *=1    ACCEPT  VERB                                                     42798021
                                    7349 *                                                                       42804021
                                    7350 *******************************************************************     42810021
                                    7351 *                                                                       42816021
                                    7352 *                                                                       42822021
                                    7353 *                           A C C E P T                                 42828021
                                    7354 *                                                                       42834021
                                    7355 *                                                                       42840021
                                    7356 *** STRINGS PRODUCED                                                    42846021
                                    7357 *      SOURCE - ACCEPT DN                                               42852021
                                    7358 *      OUTPUT - ACCEPT DN 'END'                                         42858021
                                    7359 *      SOURCE - ACCEPT DN FROM CONSOLE                                  42864021
                                    7360 *      OUTPUT - ACCEPT DN CONSOLE 'END'                                 42870021
                                    7361 *                                                                       42876021
                                    7362 *                                                                       42882021
                                    7363 *** SUBROUTINES CALLED                                                  42888021
                                    7364 *      GETNXT,STOVRB,STO5IN,STO5CU,RDUCOP,CALCLG,ERROR                  42894021
                                    7365 *                                                                       42900021
                                    7366 *                                                                       42906021
                                    7367 *** ERROR PROCESSING                                                    42912021
                                    7368 *      ASSUME 'FROM' IF MISSING                                         42918021
                                    7369 *      SKIP STATEMENT IF OPERAND ILLEGAL OR TOO LONG                    42924021
                                    7370 *      SKIP 'FROM' OPTION IF DEVICE ILLEGAL                             42930021
                                    7371 *                                                                       42936021
                                    7372 *                                                                       42942021
                                    7373 *******************************************************************     42948021
-
                             04426  7375        USING   *,RVRB                                                   42960021
                             04426  7376 ACCEPT EQU     *                                                        42966021
 004426 9601 BFC2      09872        7377        OI      STO5SW,MSWON                                             42972021
 00442A 45E0 8166      0611E        7378        BAL     RCS,STOVRB          STORE VERB 'ACCEPT'                  42978021
 00442E 45E0 81AC      06164        7379        BAL     RCS,RDUCOP          IS THIS DN...                        42984021
 004432 47F0 F0AC      044D2        7380        BC      UNCOND,ACCEE1       NO                                   42990021
 004436 9101 BE64      09714        7381        TM      MODE,MLITBT                                              42996021
 00443A 4710 F0AC      044D2        7382        BC      ONES,ACCEE1          NO                                  43002021
 00443E 9503 BE65      09715        7383          CLI   MODE+NX1,MANMOD     AN,AL,FIXED-GROUP                    43008021
 004442 47D0 F030      04456        7384        BC      NOTHI,ACCE00         YES                                 43014021
 004446 9508 BE65      09715        7385          CLI   MODE+NX1,MEDMOD     ED                                   43020021
 00444A 4780 F030      04456        7386        BC      EQ,ACCE00             YES                                43026021
 00444E 9509 BE65      09715        7387          CLI   MODE+NX1,MEFMOD     EF                                   43032021
 004452 4770 F0AC      044D2        7388        BC      NOTEQ,ACCEE1          NO - NOT ACCEPTABLE                43038021
                             04456  7389 ACCE00 EQU     *                                                        43044021
 004456 45E0 984C      076A4        7390        BAL     RCS,CALCLG          YES,FIND LENGTH                      43050021
 00445A 47F0 F0AC      044D2        7391        BC      UNCOND,ACCEE1       ILLEGAL MINOR                        43056021
 00445E 45E0 7566      0551E        7392        BAL     RCS,GETNXT          GET NEXT INPUT                       43062021
 004462 1B11                        7393        SR      RW1,RW1            RW1 USED AS SW (NONZERO IF 'FROM'     43068021
 004464 D501 C000 A4E2 0988B 081DA  7394          CLC   GOTTEN(LX2),CBFROM    IS IT FROM                         43074021
 00446A 4770 F04E      04474        7395        BC      NOTEQ,ACCE02        NO                                   43080021
 00446E 0610                        7396        BCTR  RW1,RA0                YES,SET SW AND DISCARD              43086021
 004470 45E0 7566      0551E        7397        BAL     RCS,GETNXT          GET NEXT INPUT                       43092021
 004474 D501 C000 A33E 0988B 08036  7398 ACCE02   CLC   GOTTEN(LX2),CBCNSL  CONSOLE                              43098021
 00447A 4780 F06C      04492        7399        BC      EQ,ACCE04            YES                                 43104021
 00447E D501 C000 A4CC 0988B 081C4  7400          CLC   GOTTEN(LX2),CBSIN   IS SYSIN SPECIFIED                   43110021
1PH40     IKFCBL40                                                                                              PAGE  156
-  LOC  OBJECT CODE    ADDR1 ADDR2  STMT   SOURCE STATEMENT                                       ASM 0201 11.03 02/14/15
0004484 4780 F090      044B6        7401        BC      EQ,ACCE09            YES                                 43116021
 004488 1211                        7402        LTR     RW1,RW1              NO - WAS 'FROM' FOUND               43122021
 00448A 4780 F08C      044B2        7403        BC      ZERO,ACCE08               NO - OK                        43128021
 00448E 47F0 F0B8      044DE        7404        BC      UNCOND,ACCEE3             YES - TRIVIAL ERROR            43134021
                                    7405 *                                                                       43140021
                                    7406 *                           CONSOLE FOUND                               43146021
                                    7407 *                                                                       43152021
 004492 1211                        7408 ACCE04 LTR     RW1,RW1            DID 'FROM' PRECEDE                    43158021
 004494 4770 F07E      044A4        7409        BC      NOTZER,ACCE06       YES                                  43164021
 004498 4100 A4E2      081DA        7410        LA      RA0,CBFROM           NO - TRIVIAL ERROR                  43170021
 00449C 45E0 9BDA      07A32        7411        BAL     RCS,ERROR           PROCESS ERROR                        43176021
 0044A0 4110 A02A      07D22        7412        LA      RW1,ELST07                                               43182021
 0044A4 D503 BE3C A5C0 096EC 082B8  7413 ACCE06   CLC   LENGTH(LX4),ONE19   LEGAL LENGTH                         43188021
 0044AA 47D0 F094      044BA        7414        BC      NOTHI,ACCE10         YES - GO CREATE STRING              43194021
 0044AE 4720 F0C8      044EE        7415        BC      HI,ACCEE4            NO - GIVE UP                        43200021
                                    7416 *                                                                       43206021
                                    7417 *                           SYSIN ASSUMED OR FOUND                      43212021
                                    7418 *                                                                       43218021
 0044B2 9601 BF74      09824        7419 ACCE08 OI      NEXTIN,MSWON       SAVE CURRENT INPUT WHEN ASSUMED       43224021
 0044B6 41C0 A4EA      081E2        7420 ACCE09 LA      RIN,CBZERO          REPLACE BY SYSIN DUMMY               43230021
                                    7421 *                                                                       43236021
                                    7422 *                           CREATE STRING                               43242021
                                    7423 *                                                                       43248021
 0044BA 4140 BAF4      093A4        7424 ACCE10 LA      RW4,CURENT         DN                                    43254021
 0044BE 45E0 8098      06050        7425        BAL     RCS,STO545          STORE DN                             43260021
 0044C2 45E0 808C      06044        7426        BAL     RCS,STO5IN         DEVICE                                43266021
 0044C6 45E0 7566      0551E        7427        BAL     RCS,GETNXT          GET NEXT INPUT                       43272021
 0044CA 45E0 8108      060C0        7428        BAL     RCS,STO5CU          'END' INTO STRING                    43278021
 0044CE 47F0 7000      04FB8        7429        BC      UNCOND,IDENT        EXIT                                 43284021
                                    7430 *                                                                       43290021
                                    7431 *                           ERRORS                                      43296021
                                    7432 *                                                                       43302021
                             044D2  7433 ACCEE1 EQU   *                     A3                                   43308021
 0044D2 45E0 9BDA      07A32        7434        BAL   RCS,ERROR             NOT DN - SKIP STATEMENT              43314021
 0044D6 4110 A00F      07D07        7435        LA      RW1,ELST04                                               43320021
 0044DA 47F0 720C      051C4        7436        BC    UNCOND,IDERR          ACCEE1                               43326021
                             044DE  7437 ACCEE3 EQU   *                     A5                                   43332021
 0044DE 45E0 9BDA      07A32        7438        BAL   RCS,ERROR             WARNING MESSAGE                      43338021
 0044E2 4110 A1BF      07EB7        7439        LA      RW1,ELST45                                               43344021
 0044E6 45E0 7716      056CE        7440        BAL     RCS,THROWE          THROW OUT UNTIL ENDWORD              43350021
 0044EA 47F0 F08C      044B2        7441        BC      UNCOND,ACCE08       ASSUME OR FOUND SYSIN                43356021
 0044EE 4100 A699      08391        7442 ACCEE4 LA    RA0,EBCDFF            FIND DEVICE                          43362021
 0044F2 45E0 9BDA      07A32        7443        BAL     RCS,ERROR           ERROR - GIVE UP                      43368021
 0044F6 4110 A219      07F11        7444        LA      RW1,ELST51                                               43374021
 0044FA D503 BE3C A5C0 096EC 082B8  7445          CLC   LENGTH(LX4),ONE19     IS LENGTH OVER 114 CHAR            43380021
 004500 47D0 F094      044BA        7446        BC      NOTHI,ACCE10         NO                                  43386021
 004504 94FE BAFB      093AB        7447          NI    CURENT+NX7,XXFE       YES - CHANGE IT                    43392021
 004508 D201 BAFC A5C2 093AC 082BA  7448          MVC   CURENT+NX8(LX2),ONE19+NX2                                43398021
 00450E 47F0 F094      044BA        7449        BC      UNCOND,ACCE10       GO TO CREATE STRING                  43404021
                                    7450 *                                                                       43410021
                                    7451 * START                                                                 43416021
                                    7452 * SOURCE- START FILE INVALID KEY GO.. ADD                               43422021
                                    7453 * OUTPUT- START FILE RGN1  RGN2                                         43428021
                                    7454 * LGN1  GO...                                                           43434021
                                    7455 *  LGN2 ADD...                                                          43440021
1PH40     IKFCBL40                                                                                              PAGE  157
-  LOC  OBJECT CODE    ADDR1 ADDR2  STMT   SOURCE STATEMENT                                       ASM 0201 11.03 02/14/15
0                                   7456 *  NOTES- FILE MUST BE QISAM                                            43446021
                                    7457 *  IF INVALID KEY NOT PRESENT, GN1 AND 2 PT TO NEXT SENTENCE            43452021
                             04512  7458 START  EQU   *                                                          43458021
                             04512  7459         USING *,RVRB                                                    43464021
 004512 9521 C000      0988B        7460        CLI   GOTTEN,MFILE          IS IT AN FD                          43470021
 004516 4770 F0AE      045C0        7461        BNE    STERR                NO- GIVE UP                          43476021
 00451A 9114 C006      00006        7462          TM    DX6(RIN),XX10+XX04  QISAM WITH NOMINAL KEY         41077 43482021
 00451E 47E0 F0AE      045C0        7463          BNO   STERR               NO,  IT IS ERROR               41077 43488021
 004522 45E0 8166      0611E        7464        BAL   RCS,STOVRB           OK                                    43494021
 004526 45E0 8048      06000        7465        BAL   RCS,STOINP        STORE FD IN STRING                       43500021
 00452A 45E0 7566      0551E        7466          BAL   RCS,GETNXT          GET NEXT INPUT                 42031 43506021
 00452E D501 C000 A350 0988B 08048  7467          CLC   GOTTEN(LX2),CBINVL      IS IT 'INVALID'            42031 43512021
 004534 4770 F066      04578        7468          BNE   START1                   NO                        42031 43518021
 004538 45E0 7566      0551E        7469          BAL   RCS,GETNXT         YES  GET NEXT                   42031 43524021
 00453C D501 C000 A356 0988B 0804E  7470          CLC   GOTTEN(LX2),CBKEY         IS IT 'KEY'              42031 43530021
 004542 4770 F038      0454A        7471          BNE   START0                NO                           42031 43536021
 004546 45E0 7566      0551E        7472          BAL   RCS,GETNXT          YES GET NEXT INPUT             42031 43542021
 00454A 45E0 9A72      078CA        7473 START0   BAL   RCS,PUPLGN           GET GN OF INVALID             42031 43548021
 00454E D201 BE02 BE1C 096B2 096CC  7474          MVC   RGN+NX1(LX2),NXTLGN                                42031 43554021
 004554 D201 BD4C BE1C 095FC 096CC  7475          MVC   GNX(LX2),NXTLGN         SAVE GN FOR INVALID        42031 43560021
 00455A 4140 BE01      096B1        7476          LA    RW4,RGN                                            42031 43566021
 00455E 45E0 8000      05FB8        7477          BAL   RCS,STOR45          STORE GN IN STRING             42031 43572021
 004562 45E0 9B3C      07994        7478          BAL   RCS,NEWNXT          GET GN FOR NEXT SENTENCE       42031 43578021
 004566 D201 BE02 BE18 096B2 096C8  7479          MVC   RGN+NX1(LX2),NXTSNT                                42031 43584021
 00456C 4140 BE01      096B1        7480          LA    RW4,RGN                                            42031 43590021
 004570 45E0 8000      05FB8        7481          BAL   RCS,STOR45       STORE GN FOR NEXT SENTENCE        42031 43596021
 004574 47F0 F08C      0459E        7482          BC    UNCOND,START2      BRANCH TO START2                42031 43602021
 004578 45E0 9B3C      07994        7483 START1   BAL   RCS,NEWNXT          GET GN OF NEXT SENTENCE        42031 43608021
 00457C D201 BE02 BE1C 096B2 096CC  7484          MVC   RGN+NX1(LX2),NXTLGN                                42031 43614021
 004582 4140 BE01      096B1        7485          LA    RW4,RGN                                            42031 43620021
 004586 45E0 8000      05FB8        7486          BAL   RCS,STOR45           STORE GN OF NEXT SENTENCE     42031 43626021
 00458A D201 BE02 BE1C 096B2 096CC  7487          MVC   RGN+NX1(LX2),NXTLGN                                42031 43632021
 004590 D201 BD4C BE1C 095FC 096CC  7488          MVC   GNX(LX2),NXTLGN                                    42031 43638021
 004596 4140 BE01      096B1        7489          LA    RW4,RGN                                            42031 43644021
 00459A 45E0 8000      05FB8        7490          BAL   RCS,STOR45        SORE GN                          42031 43650021
 00459E 45E0 7766      0571E        7491 START2   BAL   RCS,GENSTR                                         42031 43656021
 0045A2 D501 BE18 BD4C 096C8 095FC  7492          CLC   NXTSNT(LX2),GNX     IS THERE DIFF INVLID KEY GN    42031 43662021
 0045A8 4780 7000      04FB8        7493        BE    IDENT          NO-EXIT WITH GN IN NXTSNT                   43668021
 0045AC D201 BDFF BD4C 096AF 095FC  7494          MVC   LGN+NX1(LX2),GNX          GENR LABEL FOR INVAL KEY 42031 43674021
 0045B2 45E0 7952      0590A        7495        BAL   RCS,GENLAB       GENR LGN FOR INVALID                      43680021
                                    7496 *                        (OR NEXT SENTENCE IF NO INVALID PRESENT)       43686021
 0045B6 D201 BE18 BE02 096C8 096B2  7497          MVC   NXTSNT(LX2),RGN+NX1  MOVE SECOND GN INTO NXTSNT          43692021
 0045BC 47F0 7000      04FB8        7498        BC    UNCOND,IDENT          EXIT                                 43698021
 0045C0 4100 A715      0840D        7499 STERR  LA    RA0,BCDQI                                                  43704021
 0045C4 47F0 7204      051BC        7500        BC    UNCOND,IDGVUP         GIVE UP                              43710021
                                    7501 *                                                                       43716021
                                    7502 *    FREE                                                               43722021
                                    7503 *   SOURCE-  FREE FILE RECORD                                           43728021
                                    7504 *  OUTPUT-  FREE FILE                                                   43734021
                                    7505 *  NOTES-  FILE MUST BE BISAM                                           43740021
                                    7506 *                                                                       43746021
                             045C8  7507 FREE   EQU   *                                                          43752021
                             045C8  7508        USING *,RVRB                                                     43758021
 0045C8 47F0 7000      04FB8        7509        B     IDENT                 EXIT                                 43764021
1PH40     IKFCBL40                                                                                              PAGE  158
-  LOC  OBJECT CODE    ADDR1 ADDR2  STMT   SOURCE STATEMENT                                       ASM 0201 11.03 02/14/15
0                                   7511 *******************************************************************     43776021
                                    7512 *                                                                       43782021
                                    7513 *                            O P E N  /  C L O S E                      43788021
                                    7514 *                                                                       43794021
                                    7515 *                                                                       43800021
                                    7516 *** STRINGS PRODUCED                                                    43806021
                                    7517 *      PRODUCES CONTINUOUS STRINGS OF 5 FILE-NAMES UNTIL END-OF-        43812021
                                    7518 *       STATEMENT IS REACHED. LAST OF THE STRINGS HAS CB WORD 'END'     43818021
                                    7519 *       FOLLOWING LAST FILE-NAME.                                       43824021
                                    7520 *                                                                       43830021
                                    7521 *      GENERATES THE WHOLE SERIES OF STRINGS TWICE.                     43836021
                                    7522 *      FOR EXAMPLE.                                                     43842021
                                    7523 *        SOURCE.  OPEN I-O FN1 FN2 FN3 FN4 FN5 FN6 FN7.                 43848021
                                    7524 *      OUTPUT -OPEN 'FIRST'FN1 FN2 FN3 FN4                              43854021
                                    7525 *              OPEN FN5 FN6 FN7 'END'                                   43860021
                                    7526 *              OPEN 'FIRST' FN1 FN2 FN3 FN4                             43866021
                                    7527 *              OPEN  FN5 FN6 FN7 'END'                                  43872021
                                    7528 *                                                                       43878021
                                    7529 *      PUTS OPTION IN 3RD BYTE, 1ST HALF-WORD OF EACH FILE-NAME         43884021
                                    7530 *    OPEN INPUT    - 0   CLOSE LOCK      - 0   CLOSE-REEL LOCK          43890021
                                    7531 *         REVERSED - 1         REWIND    - 1              REWIND        43896021
                                    7532 *          OUTPUT  -  F        NO-REWIND - 3              NO-REWIND     43902021
                                    7533 *          I-O     - 4                                                  43908021
                                    7534 *                                                                       43914021
                                    7535 *** SUBROUTINES CALLED                                                  43920021
                                    7536 *      GETNXT,SAVCUR,STOVRB,STO545,ISEND,ISOKFL,GNTWIC,ERROR            43926021
                                    7537 *                                                                       43932021
                                    7538 *                                                                       43938021
                                    7539 *** ERROR PROCESSING                                                    43944021
                                    7540 *      ASSUMES 'REWIND' IF 'NO' ALONE IS FOUND                          43950021
                                    7541 *      FOR ANY OTHER ERROR SKIPS THE FILE-NAME INVOLVED                 43956021
                                    7542 *      WRITES NO MESSAGE FOR FILES WHOSE 'ACCESS-METHOD' ATTRIBUTE=     43962021
                                    7543 *       'F' IS A SIGNAL THAT PHASE 2 HAS WRITTEN THE MESSAGE.           43968021
                                    7544 *      DIAGNOSES MISSING REQUIRED OPTIONS                               43974021
                                    7545 *                ILLEGAL OPERANDS (I.E., NON-FILE-NAMES)                43980021
                                    7546 *                I-O OPENED NO REWIND                                   43986021
                                    7547 *                I-O OR OUTPUT OPENED REVERSED                          43992021
                                    7548 *                QSAM OR V-TYPE-RECORD OPENED REVERSED                  43998021
                                    7549 *                                                                       44004021
                                    7550 *                                                                       44010021
                                    7551 *                                                                       44016021
                                    7552 *                                                                       44022021
                                    7553 *                                                                       44028021
                                    7554 *** NOTES                                                               44034021
                                    7555 *        OPTSW   ON     'INPUT','OUTPUT', OR 'I-O' WAS FOUND            44040021
                                    7556 *                OFF    OPTION NOT YET FOUND                            44046021
                                    7557 *        PFNDOP  ON     FILE-NAME (OR ERROR) FOUND AFTER OPTION         44052021
                                    7558 *                OFF    NOTHING FOUND AFTER OPTION                      44058021
                                    7559 *        SKIPSW  ON     CURRENT FILE-NAME SHOULD BE SKIPPED FOR ERR     44064021
                                    7560 *                OFF    CURRENT FILE-NAME OK                            44070021
                                    7561 *        SENDSW  ON     SOMETHING IS TO BE GENERATED                    44076021
                                    7562 *                OFF    STRING IS EMPTY                                 44082021
                                    7563 *        OPCLSW  ON     TELLS ISOKFL ROUTINE VERB IS OPEN OR CLOSE      44088021
                                    7564 *                                                                       44094021
                                    7565 *      STO5SW,STO5CT,MSGSW ARE AS IN OTHER ROUTINES                     44100021
1PH40     IKFCBL40                                                                                              PAGE  159
-  LOC  OBJECT CODE    ADDR1 ADDR2  STMT   SOURCE STATEMENT                                       ASM 0201 11.03 02/14/15
0                                   7566 *                                                                       44106021
                                    7567 *      RW6 SET TO 4 FOR OPEN                                            44112021
                                    7568 *                 0     CLOSE                                           44118021
                                    7569 *                                                                       44124021
                                    7570 *******************************************************************     44130021
-
0
                                    7572 *=1    CLOSE   VERB                                                     44142021
                             045CC  7573        USING   *,RVRB                                                   44148021
                             045CC  7574 CLOSE  EQU     *                                                        44154021
 0045CC 1B66                        7575        SR      RW6,RW6            TELLS ROUTINE VERB IS 'CLOSE'         44160021
 0045CE 9601 BFA9      09859        7576        OI      OPTSW,MSWON   **(TO GET PROPER MSG AT OPEN40)**          44166021
 0045D2 9603 BFBE      0986E        7577          OI    OPCLSW,XX03         TELL ISOKFL VERB IS CLOSE            44172021
 0045D6 41FF 0012      00012        7578        LA      RVRB,OPEN-CLOSE(RVRB)  SET BASE-REGISTER                 44178021
                             045DE  7579        USING   OPEN,RVRB                                                44184021
 0045DA 47F0 F010      045EE        7580        BC      UNCOND,OPEN2        GO TO PROCESS STRING                 44190021
-
                                    7582 *=1    OPEN    VERB                                                     44202021
                             045DE  7583 OPEN   EQU     *                                                        44208021
 0045DE 4160 0004      00004        7584          LA    RW6,DX4             TELLS ROUTINE VERB IS 'OPEN'         44214021
 0045E2 9601 BF75      09825        7585        OI      PFNDOP,MSWON       (AVOID MSG AFTER 1ST OPTION)          44220021
 0045E6 94FE BFA9      09859        7586        NI      OPTSW,MSWOFF        TO SAY IF IN,OUT,OR I-O EVER FOU     44226021
 0045EA 9601 BFBE      0986E        7587          OI    OPCLSW,XX01         TELL ISOKFL VERB IS OPEN             44232021
                             045EE  7588 OPEN2  EQU     *                                                        44238021
 0045EE 9601 BE9C      0974C        7589        OI      STO5CT,MSWON             CONTINUOUS STRING               44244021
 0045F2 94FE BFAA      0985A        7590        NI      SENDSW,MSWOFF      NOTHING IN STRING YET                 44250021
 0045F6 94FE BFAB      0985B        7591        NI      SKIPSW,MSWOFF      NO ERRORS IN FILE-NAME YET            44256021
 0045FA 45E0 813A      060F2        7592        BAL     RCS,STO5BG         STORE VERB AND 'FIRST'                44262021
 0045FE 1266                        7593        LTR     RW6,RW6                                                  44268021
 004600 4780 F092      04670        7594        BC      ZERO,OPEN18         BRANCH FOR 'CLOSE'                   44274021
                                    7595 *                                                                       44280021
                                    7596 *                           OPTION EXPECTED  (OPEN)                     44286021
                                    7597 *                                                                       44292021
 004604 D501 C000 A4FA 0988B 081F2  7598 OPEN5    CLC   GOTTEN(LX2),CBINPT   FOUND 'INPUT' ?                     44298021
 00460A 4780 F054      04632        7599        BC      EQ,OPEN12           YES, GO TO SET OPTION                44304021
 00460E D501 C000 A504 0988B 081FC  7600          CLC   GOTTEN(LX2),CBOUTP   FOUND 'OUTPUT' ?                    44310021
 004614 4780 F04C      0462A        7601        BC      EQ,OPEN10           YES, GO TO SET OPTION                44316021
 004618 D501 C000 A352 0988B 0804A  7602          CLC   GOTTEN(LX2),CBIO     FOUND 'I-O' ?                       44322021
 00461E 4770 F308      048E6        7603        BC      NOTEQ,OPEN38      INPUT IS NOT OPTION,SEEK FN OR END     44328021
                                    7604 *                                                                       44334021
                                    7605 *                           OPTION FOUND     (OPEN)                     44340021
                                    7606 *                                                                       44346021
 004622 9204 BED6      09786        7607        MVI     MSKOPT,MIOOPT     I-O =F                                 44352021
 004626 47F0 F058      04636        7608        BC      UNCOND,OPEN14       GO TO LOOK FOR FILE NAME(S)          44358021
 00462A 920F BED6      09786        7609 OPEN10 MVI     MSKOPT,MOUOPT     OUTPUT = 4                             44364021
 00462E 47F0 F058      04636        7610        BC      UNCOND,OPEN14       GO TO LOOK FOR FILE-NAME(S)          44370021
 004632 9200 BED6      09786        7611 OPEN12 MVI     MSKOPT,MINOPT     INPUT  = 0                             44376021
 004636 9101 BF75      09825        7612 OPEN14 TM      PFNDOP,MSWON      DID ANYTHING INTERVENE BETWEEN OPT     44382021
 00463A 4710 F06C      0464A        7613        BC      ONES,OPEN16          YES OK                              44388021
 00463E 4100 A6C7      083BF        7614        LA      RA0,BCDOPT                                               44394021
1PH40     IKFCBL40                                                                                              PAGE  160
-  LOC  OBJECT CODE    ADDR1 ADDR2  STMT   SOURCE STATEMENT                                       ASM 0201 11.03 02/14/15
0004642 45E0 9BDA      07A32        7615        BAL     RCS,ERROR            NO - MSG SUPERFLUOUS OPTION         44400021
 004646 4110 A033      07D2B        7616        LA      RW1,ELST08                                               44406021
 00464A 94FE BF75      09825        7617 OPEN16 NI      PFNDOP,MSWOFF     REINIT SW FOR ABOVE MSG                44412021
 00464E 9601 BFA9      09859        7618        OI      OPTSW,MSWON       INDICATE OPTION FOUND                  44418021
 004652 94FE BFAC      0985C        7619        NI      MSGSW,MSWOFF      REINIT SW FOR SINGLE MSG IN ERROR      44424021
                                    7620 *                                                                       44430021
                                    7621 *                           FILE-NAME EXPECTED                          44436021
                                    7622 *                                                                       44442021
 004656 45E0 7566      0551E        7623 OPEN17 BAL     RCS,GETNXT          GET NEXT ELEMENT                     44448021
 00465A 1266                        7624 OPN18X LTR     RW6,RW6             WHICH VERB                           44454021
 00465C 4780 F092      04670        7625        BC      ZERO,OPEN18           CLOSE, REINIT MSKOPT               44460021
 004660 910F BED6      09786        7626        TM      MSKOPT,MOUOPT       IS IT OPEN OUTPUT                    44466021
 004664 4716 F092      04670        7627        BC      ONES,OPEN18(RW6)      YES                                44472021
 004668 9104 BED6      09786        7628        TM      MSKOPT,MIOOPT       IS IT OPEN I-O                       44478021
 00466C 4716 F092      04670        7629        BC      ONES,OPEN18(RW6)      YES                                44484021
 004670 9400 BED6      09786        7630 OPEN18   NI    MSKOPT,XX00          REINIT MSKOPT, CLOSE OR OPEN INP    44490021
 004674 9521 C000      0988B        7631        CLI     GOTTEN,MFILE       IS INPUT FILE-NAME                    44496021
 004678 4780 F0A8      04686        7632        BC      EQ,OPEN19            YES                                 44502021
 00467C 1266                        7633        LTR     RW6,RW6              NO - WHICH VERB                     44508021
 00467E 4770 F026      04604        7634        BC      NOTZER,OPEN5            OPEN - SEEK NEXT CLAUSE          44514021
 004682 47F0 F308      048E6        7635        BC      UNCOND,OPEN38          CLOSE - ERROR OR END              44520021
 004686 9589 C002      0988D        7636 OPEN19   CLI   GOTTEN+NX2,XX89     IS IT A SORT FILE                    44526021
 00468A 4780 F350      0492E        7637        BE    FILERR               YES, ERROR                            44532021
 00468E 9601 BF75      09825        7638        OI    PFNDOP,MSWON                                               44538021
 004692 94FE BFAB      0985B        7639        NI      SKIPSW,MSWOFF        REINIT STORE SW FOR THIS FILE       44544021
 004696 94FE BFAC      0985C        7640        NI      MSGSW,MSWOFF                MSG SW FOR ERROR LOOP        44550021
 00469A 45E0 76D0      05688        7641        BAL     RCS,SAVCUR           SAVE FILE-NAME IN CURENT            44556021
 00469E 45E0 8C0C      06BC4        7642        BAL     RCS,ISOKFL         IS THIS OPEN ALLOWED                  44562021
 0046A2 9400 BAF6      093A6        7643          NI    CURENT+NX2,XX00                                          44568021
 0046A6 1266                        7644        LTR     RW6,RW6             WHICH VERB                           44574021
 0046A8 4780 F10E      046EC        7645        BC      ZERO,OPEN20         CLOSE - OK                           44580021
 0046AC 910F BED6      09786        7646 OPN19L TM    MSKOPT,MOUOPT                                              44586021
 0046B0 4780 F10E      046EC        7647        BC      ZERO,OPEN20         INPUT - ALL ACCESS METHODS OK        44592021
 0046B4 4710 F0F2      046D0        7648        BC      ONES,OPN19X         OUTPUT                               44598021
 0046B8 9140 BAFA      093AA        7649          TM    CURENT+NX6,MBSAM     I-O - IS IT BSAM                    44604021
 0046BC 4780 F10E      046EC        7650        BC      ZERO,OPEN20         NO,  OK                              44610021
 0046C0 4100 A352      0804A        7651        LA      RA0,CBIO            YES,  ERROR                          44616021
 0046C4 4120 A6F0      083E8        7652        LA      RW2,BCDBSA                                               44622021
 0046C8 45E0 F360      0493E        7653        BAL     RCS,E28OPN          PROCESS ERROR                        44628021
 0046CC 47F0 F10E      046EC        7654        BC      UNCOND,OPEN20       GO TO PROCESS ANYWAY                 44634021
 0046D0 91A0 BAFA      093AA        7655 OPN19X   TM    CURENT+NX6,MBIBD    OPENED OUTPUT/ IS BDAM OR BISAM      44640021
 0046D4 4780 F10E      046EC        7656        BC    ZERO,OPEN20           NO- OK                               44646021
 0046D8 9184 BAFA      093AA        7657          TM    CURENT+NX6,BDMDIR    IS IT DIRECT BDAM                   44652021
 0046DC 4710 F10E      046EC        7658        BC    ONES,OPEN20          YES-OK                                44658021
 0046E0 4100 A504      081FC        7659        LA      RA0,CBOUTP          YES,  ERROR                          44664021
 0046E4 4120 A54A      08242        7660        LA      RW2,CBRAND                                               44670021
 0046E8 45E0 F360      0493E        7661        BAL     RCS,E28OPN          GO TO PROCESS ERROR                  44676021
                                    7662 *                                                                       44682021
                                    7663 *              PROCESS OPTIONS FOLLOWING FILE-NAME                      44688021
                                    7664 *                                                                       44694021
 0046EC 45E0 7566      0551E        7665 OPEN20 BAL     RCS,GETNXT          GET NEXT ELEMENT                     44700021
 0046F0 1266                        7666        LTR     RW6,RW6            WHICH VERB                            44706021
 0046F2 4770 F148      04726        7667        BC      NOTZER,OPEN21           OPEN                             44712021
 0046F6 D501 C000 A542 0988B 0823A  7668          CLC   GOTTEN(LX2),CBUNIT    CLOSE - IS IT UNIT                 44718021
 0046FC 4780 F12C      0470A        7669          BC    EQ,*+NX14           YES                                  44724021
1PH40     IKFCBL40                                                                                              PAGE  161
-  LOC  OBJECT CODE    ADDR1 ADDR2  STMT   SOURCE STATEMENT                                       ASM 0201 11.03 02/14/15
0004700 D501 C000 A540 0988B 08238  7670          CLC   GOTTEN(LX2),CBREEL                  REEL                 44730021
 004706 4770 F148      04726        7671        BC      NOTEQ,OPEN21            NO - SEEK NO REWIND              44736021
 00470A 91B0 BAFA      093AA        7672          TM    CURENT+NX6,MQSBS     IS FILE QSAM OR BSAM                44742021
 00470E 4780 F140      0471E        7673          BC    ZERO,OPN21X           YES - OK                           44748021
 004712 45E0 9BDA      07A32        7674          BAL   RCS,ERROR           WRITE ERROR MESSAGE                  44754021
 004716 4110 A28B      07F83        7675          LA    RW1,ELST61                                               44760021
 00471A 47F0 F144      04722        7676          BC    UNCOND,*+NX8          NO - SKIP REEL OPTION              44766021
                             0471E  7677 OPN21X   EQU   *                                                        44772021
 00471E 9680 BED6      09786        7678        OI      MSKOPT,MREEL         UNIT-OR-REEL OPTION                 44778021
 004722 45E0 7566      0551E        7679        BAL     RCS,GETNXT          GET NEXT ELEMENT                     44784021
 004726 D501 C000 A4DE 0988B 081D6  7680 OPEN21   CLC   GOTTEN(LX2),CBWITH     WITH                              44790021
 00472C 4770 F156      04734        7681          BC    NOTEQ,*+NX8              NO                              44796021
 004730 45E0 7566      0551E        7682        BAL     RCS,GETNXT              YES                              44802021
 004734 D501 C000 A3E2 0988B 080DA  7683          CLC   GOTTEN(LX2),CBNO       NO                                44808021
 00473A 4770 F1B4      04792        7684        BC      NOTEQ,OPEN24            NO                               44814021
 00473E 45E0 7566      0551E        7685        BAL     RCS,GETNXT          YES, GET NEXT ELEMENT                44820021
 004742 D501 C000 A50A 0988B 08202  7686          CLC   GOTTEN(LX2),CBRWND     REWIND                            44826021
 004748 4780 F17E      0475C        7687        BC      EQ,OPEN22               YES                              44832021
 00474C 4100 A50A      08202        7688        LA      RA0,CBRWND              NO                               44838021
 004750 45E0 9BDA      07A32        7689        BAL     RCS,ERROR                'REWIND' MISSING                44844021
 004754 4110 A02A      07D22        7690        LA      RW1,ELST07                                               44850021
 004758 47F0 F182      04760        7691          BC    UNCOND,*+NX8        GO TO CHECK VERB                     44856021
 00475C 45E0 7566      0551E        7692 OPEN22 BAL     RCS,GETNXT        NO-RWND FOUND OR ASSUMED               44862021
 004760 1266                        7693        LTR     RW6,RW6            WHICH VERB                            44868021
 004762 4770 F1A0      0477E        7694        BC    NOTZER,OPEN23         OPEN                                 44874021
 004766 9180 BED6      09786        7695        TM    MSKOPT,MREEL           IS IT CLOSE REEL                    44880021
 00476A 47E0 F198      04776        7696          BC    NOTONE,*+NX12          OPTION CODES DIFFER FOR CLOSE     44886021
                                    7697 *                                  AND CLOSE REEL                       44892021
 00476E 9630 BED6      09786        7698        OI    MSKOPT,MLEAVE                                              44898021
 004772 47F0 F2D4      048B2        7699        B     OPEN33                PREPARE TO PUT OUT STRING            44904021
 004776 9630 BED6      09786        7700        OI      MSKOPT,MCLNOR         CLOSE - NO MORE OPTIONS            44910021
 00477A 47F0 F2D4      048B2        7701        B     OPEN33                GO TO PUT OUT STRING                 44916021
 00477E 9504 BED6      09786        7702 OPEN23 CLI   MSKOPT,MIOOPT        IS IT OPEN I/O                        44922021
 004782 4770 F1B4      04792        7703        BC      NOTEQ,OPEN24          NO - OK                            44928021
 004786 4120 A352      0804A        7704        LA      RW2,CBIO            YES, ERROR                           44934021
 00478A 4100 A6D0      083C8        7705        LA      RA0,BCDNOR                                               44940021
 00478E 45E0 F360      0493E        7706          BAL   RCS,E28OPN          WRONG ACCESS METHOD                  44946021
 004792 1266                        7707 OPEN24 LTR     RW6,RW6            WHICH VERB                            44952021
 004794 4770 F1D8      047B6        7708        BC      NOTZER,OPEN25       GO TO PROCESS ERROR                  44958021
 004798 D501 C000 A500 0988B 081F8  7709          CLC   GOTTEN(LX2),CBLOCK    CLOSE - IS IT LOCK                 44964021
 00479E 4770 F244      04822        7710        BC    NOTEQ,OPEN25B         NO, SEE IF DISP                      44970021
 0047A2 45E0 7566      0551E        7711        BAL     RCS,GETNXT             YES                               44976021
 0047A6 9180 BED6      09786        7712        TM    MSKOPT,MREEL                                               44982021
 0047AA 4710 F27C      0485A        7713        BO    OPN28P             TREAT AS NO OPTION FOR REEL             44988021
 0047AE 9601 BED6      09786        7714          OI    MSKOPT,XX01        01 FOR CLOSE LOCK                     44994021
 0047B2 47F0 F2D0      048AE        7715        B     OPEN32A            REWIND OPTION                           45000021
 0047B6 D501 C000 A508 0988B 08200  7716 OPEN25   CLC   GOTTEN(LX2),CBRVRS    OPEN - IS IT REVERSED              45006021
 0047BC 4770 F206      047E4        7717        BC    NOTEQ,OPEN25A        NO- SEE IF LEAVE, REREAD, DISP        45012021
 0047C0 910F BED6      09786        7718        TM      MSKOPT,MOUOPT         YES - WAS IT OPEN INPUT            45018021
 0047C4 4770 F290      0486E        7719        BC      NOTZER,OPEN26             NO- ERROR                      45024021
 0047C8 91F0 BAFA      093AA        7720          TM    CURENT+NX6,MQSAM         YES,OK,BUT IS IT QSAM FILE      45030021
 0047CC 4770 F2A4      04882        7721        BC      NOTZER,OPEN28             NO- ERROR                      45036021
 0047D0 9160 BAF7      093A7        7722          TM    CURENT+NX3,MVREC         YES,OK BUT IS RECORD TYPE V     45042021
 0047D4 4780 F2B4      04892        7723        BC      ZERO,OPEN30          YES - ERROR                         45048021
 0047D8 4710 F2AC      0488A        7724        BC    ONES,OPEN29           NO                                   45054021
1PH40     IKFCBL40                                                                                              PAGE  162
-  LOC  OBJECT CODE    ADDR1 ADDR2  STMT   SOURCE STATEMENT                                       ASM 0201 11.03 02/14/15
00047DC 9601 BED6      09786        7725        OI      MSKOPT,MRVOPT   REVERSED OPTION OK. MODIFY INPUT OPT     45060021
 0047E0 47F0 F10E      046EC        7726        BC      UNCOND,OPEN20    SEE IF  'NO REWIND' FOLLOWS             45066021
 0047E4 9504 BED6      09786        7727 OPEN25A CLI   MSKOPT,MIOOPT        FILE OPENED I/O                      45072021
 0047E8 4780 F2D4      048B2        7728          BE    OPEN33         DO NOT SEEK ADDNL OPTIONS                 45078021
 0047EC D501 C000 A512 0988B 0820A  7729          CLC   GOTTEN(LX2),CBLEAVE  IS IT 'LEAVE'                       45084021
 0047F2 4770 F220      047FE        7730         BNE    *+NX12              NO                                   45090021
 0047F6 9630 BED6      09786        7731        OI    MSKOPT,MLEAVE         SIGNAL 'LEAVE' FOUND                 45096021
 0047FA 47F0 F2C8      048A6        7732        B     OPEN34                PREPARE TO PUT OUT STRING            45102021
 0047FE D501 C000 A514 0988B 0820C  7733          CLC   GOTTEN(LX2),CBRERD    IS IT REREAD                       45108021
 004804 4770 F232      04810        7734         BNE    *+NX12              NO                                   45114021
 004808 9610 BED6      09786        7735        OI    MSKOPT,MRERD          SIGNAL 'REREAD' FOUND                45120021
 00480C 47F0 F2C8      048A6        7736        B     OPEN34                PREPARE TO PUT OUT STRING            45126021
 004810 D501 C000 A516 0988B 0820E  7737          CLC   GOTTEN(LX2),CBDISP     IS IT OPEN DISP                   45132021
 004816 4770 F2D4      048B2        7738          BNE   OPEN33         NO                                        45138021
 00481A 9600 BED6      09786        7739        OI    MSKOPT,MDISP          SIGNAL 'DISP' FOUND                  45144021
 00481E 47F0 F2C8      048A6        7740        B     OPEN34                GO TO PUT OUT STRING                 45150021
 004822 D501 C000 A516 0988B 0820E  7741 OPEN25B  CLC   GOTTEN(LX2),CBDISP                                       45156021
 004828 4770 F25E      0483C        7742          BNE   OPEN25C             NOT DISPLAY                          45162021
 00482C 9180 BED6      09786        7743        TM    MSKOPT,MREEL       DISP FOUND- MAKE SURE NOT REEL          45168021
 004830 4710 F284      04862        7744          BO    OPEN25D             YES - ERROR                          45174021
 004834 9600 BED6      09786        7745        OI    MSKOPT,MDISP                                               45180021
 004838 47F0 F2C8      048A6        7746          B     OPEN34              OK - PROCESS                         45186021
 00483C D501 C000 A51A 0988B 08212  7747 OPEN25C  CLC   GOTTEN(LX2),CBPOSN   IS IT 'POSITIONING'                 45192021
 004842 4770 F274      04852        7748        BNE   OPEN27              NO OPTIONS SEE IF REEL                 45198021
 004846 9180 BED6      09786        7749        TM    MSKOPT,MREEL      POSITIONING- MUST BE REEL                45204021
 00484A 4780 F284      04862        7750        BZ    OPEN25D               GO TO PROCESS ERROR                  45210021
 00484E 47F0 F2C8      048A6        7751        B     OPEN34                GO TO GENERATE STRING                45216021
 004852 9180 BED6      09786        7752 OPEN27 TM    MSKOPT,MREEL                                               45222021
 004856 47E0 F2D0      048AE        7753          BNO   OPEN32A             GO TO SET REWIND               52742 45228021
 00485A 9620 BED6      09786        7754 OPN28P   OI    MSKOPT,XX20         CLOSE REEL (LOCK)-------FEOV LEAVE   45234021
 00485E 47F0 F2D4      048B2        7755        B     OPEN33                GO TO GENERATE STRING                45240021
 004862 45E0 9BDA      07A32        7756 OPEN25D BAL   RCS,ERROR            ERROR                                45246021
 004866 4110 A168      07E60        7757        LA    RW1,ELST35                                                 45252021
 00486A 47F0 F078      04656        7758        B    OPEN17                 LOOK FOR ANOTHER FILE                45258021
                                    7759 *                                                                       45264021
                                    7760 *              ERROR FOUND IN OPTIONS-NO USE CONTINUING                 45270021
                                    7761 *                WRITE MSG AND RETURN TO SEEK NEXT FILE                 45276021
                                    7762 *                                                                       45282021
 00486E 47E0 F29C      0487A        7763 OPEN26   BC    NOTONE,*+NX12       GO TO GET OPTION IN ERROR            45288021
 004872 4120 A504      081FC        7764        LA      RW2,CBOUTP          RW2 POINTS TO 'OUTPUT'               45294021
 004876 47F0 F2B8      04896        7765        BC      UNCOND,OPEN31       ERROR                                45300021
 00487A 4120 A352      0804A        7766        LA    RW2,CBIO              RW2 POINTS TO 'I-O'                  45306021
 00487E 47F0 F2B8      04896        7767        BC      UNCOND,OPEN31       ERROR                                45312021
 004882 4120 A6DC      083D4        7768 OPEN28 LA    RW2,BCDNOQ            RW2 POINTS TO 'INPUT'                45318021
 004886 47F0 F2B8      04896        7769        BC      UNCOND,OPEN31       ERROR                                45324021
 00488A 4120 A733      0842B        7770 OPEN29 LA    RW2,BCDSPN                                                 45330021
 00488E 47F0 F2B8      04896        7771          B     OPEN31             S MODE                                45336021
 004892 4120 A6E7      083DF        7772 OPEN30 LA    RW2,BCDVMD                                                 45342021
 004896 4100 A508      08200        7773 OPEN31 LA      RA0,CBRVRS                                               45348021
 00489A 45E0 F360      0493E        7774        BAL     RCS,E28OPN          GO TO PROCESS ERROR                  45354021
 00489E 4110 A0F9      07DF1        7775        LA      RW1,ELST28                                               45360021
 0048A2 47F0 F078      04656        7776        BC      UNCOND,OPEN17      LOOK FOR ANOTHER FILE                 45366021
                                    7777 *                                                                       45372021
                                    7778 *      OPTIONS FOLLOWING FILE-NAME OK. SHALL FILE GO TO STRING          45378021
                                    7779 *       (IF NOT, MSG ALREADY WRITTEN BY PHASE 2 OR ISOKFL)              45384021
1PH40     IKFCBL40                                                                                              PAGE  163
-  LOC  OBJECT CODE    ADDR1 ADDR2  STMT   SOURCE STATEMENT                                       ASM 0201 11.03 02/14/15
00048A6 45E0 7566      0551E        7780 OPEN34 BAL   RCS,GETNXT            GET NEXT ELEMENT                     45390021
 0048AA 47F0 F2D4      048B2        7781        B     OPEN33                GO TO PUT OUT STRING                 45396021
 0048AE 9640 BED6      09786        7782 OPEN32A OI    MSKOPT,MRWND             REWIND                           45402021
                                    7783 *DEL                                                                    45408021
                                    7784 *DEL                                                                    45414021
 0048B2 9101 BFAB      0985B        7785 OPEN33 TM    SKIPSW,MSWON       WAS SECTION LEGAL                       45420021
 0048B6 4710 F07C      0465A        7786        BC      ONES,OPN18X         NO - SEEK NEXT FILE                  45426021
                                    7787 *                                                                       45432021
                                    7788 *              NO ERRORS FOUND. ADD THIS FILE TO STRING                 45438021
                                    7789 *                                                                       45444021
 0048BA D600 BAF6 BED6 093A6 09786  7790          OC    CURENT+NX2(LX1),MSKOPT PUT OPTION BITS INTO FN           45450021
 0048C0 4140 BAF4      093A4        7791        LA      RW4,CURENT         STORE FN                              45456021
 0048C4 45E0 8098      06050        7792        BAL     RCS,STO545          STORE FN IN STRING                   45462021
 0048C8 9601 BFAA      0985A        7793        OI      SENDSW,MSWON       INDICATE SOME OUTPUT TO GENER         45468021
 0048CC 47F0 F07C      0465A        7794        BC      UNCOND,OPN18X         SEEK NEXT FILE                     45474021
                                    7795 *                                                                       45480021
                                    7796 *                   CHECK IF WE ARE IN SERCH                            45486021
                                    7797 *                                                                       45492021
 0048D0                             7798 OPEN37 DS    0H                                                         45498021
 0048D0 9101 BFB7      09867        7799          TM    SEARCHSW,MSWON        ARE WE IN SEARCH                   45504021
 0048D4 4780 F328      04906        7800          BZ    OPEN40               NO                                  45510021
 0048D8 D501 C000 A520 0988B 08218  7801          CLC   GOTTEN(LX2),CBWHEN         IS IT WHEN                    45516021
 0048DE 4780 F310      048EE        7802          BE    OPEN39             YES                                   45522021
 0048E2 47F0 F328      04906        7803          B     OPEN40                 NO                                45528021
                                    7804 *                                                                       45534021
                                    7805 *             'INPUT','OUTPUT',OR 'I-O' NOT FOUND WHERE QUERIED         45540021
                                    7806 *                                                                       45546021
 0048E6 45E0 8C32      06BEA        7807 OPEN38 BAL     RCS,ISEND          IS THIS END OF STATEMENT              45552021
 0048EA 47F0 F2F2      048D0        7808          BC    UNCOND,OPEN37              NO                            45558021
 0048EE                             7809 OPEN39   DS    0H                                                       45564021
 0048EE 94FE BFAC      0985C        7810        NI      MSGSW,MSWOFF                                             45570021
 0048F2 9101 BFAA      0985A        7811        TM      SENDSW,MSWON         YES - IS THERE ANY GOOD OUTPUT      45576021
 0048F6 4780 7000      04FB8        7812        BC      ZERO,IDENT             NO (IDENT WILL WRITE MSG)         45582021
 0048FA 94FE BFAA      0985A        7813        NI      SENDSW,MSWOFF      OFF SWITCH FOR SAFETY                 45588021
 0048FE 45E0 77EA      057A2        7814        BAL     RCS,GNTWIC         GENERATE WHOLE STRING TWICE           45594021
 004902 47F0 7000      04FB8        7815        BC      UNCOND,IDENT        EXIT                                 45600021
                                    7816 *                                                                       45606021
                                    7817 *      SOME UNACCEPTABLE INPUT HAS TURNED UP                            45612021
                                    7818 *                                                                       45618021
 004906 9101 BFA9      09859        7819 OPEN40 TM      OPTSW,MSWON        WAS AN OPTION EVER FOUND              45624021
 00490A 4780 F340      0491E        7820        BC      ZERO,OPEN42             NO - KEEP LOOKING                45630021
 00490E 9601 BF75      09825        7821        OI      PFNDOP,MSWON            YES                              45636021
 004912 45E0 9BCE      07A26        7822        BAL     RCS,ERONCE              WRITE MSG ONLY ONCE              45642021
 004916 4110 A10B      07E03        7823        LA      RW1,ELST2A                                               45648021
 00491A 47F0 F078      04656        7824        BC      UNCOND,OPEN17      GO SEEK FILE-NAME                     45654021
 00491E 45E0 9BCE      07A26        7825 OPEN42 BAL     RCS,ERONCE         WRITE MSG ONLY ONCE                   45660021
 004922 4110 A105      07DFD        7826        LA      RW1,ELST29                                               45666021
 004926 45E0 7566      0551E        7827        BAL     RCS,GETNXT          GET NEXT ELEMENT                     45672021
 00492A 47F0 F026      04604        7828        BC      UNCOND,OPEN5       GO SEEK OPTION                        45678021
                                    7829 *                                                                       45684021
                                    7830 *     FILE FOUND IS A SORT FILE  WRITE MSG AND EXIT                     45690021
                                    7831 *                                                                       45696021
 00492E 4100 A626      0831E        7832 FILERR  LA    RA0,BCDOP                                                 45702021
 004932 45E0 9BDA      07A32        7833        BAL   RCS,ERROR             WRITE ERROR MESSAGE                  45708021
 004936 4110 A2B8      07FB0        7834        LA    RW1,ELST6B                                                 45714021
1PH40     IKFCBL40                                                                                              PAGE  164
-  LOC  OBJECT CODE    ADDR1 ADDR2  STMT   SOURCE STATEMENT                                       ASM 0201 11.03 02/14/15
000493A 47F0 F078      04656        7835        BC    UNCOND,OPEN17         LOOK FOR ANOTHER FILE                45720021
                                    7836 *              LOCAL SUBROUTINE TO FILL IN ELST28 AND WRITE MSG         45726021
                                    7837 *                                                                       45732021
                             0493E  7838 E28OPN EQU     *                                                        45738021
 00493E 90CE B50C      08DBC        7839        STM     RIN,RCS,SVE28       SAVE REGISTERS                       45744021
 004942 18C2                        7840        LR      RIN,RW2                                                  45750021
 004944 45E0 9BDA      07A32        7841        BAL     RCS,ERROR           WRITE ERROR MSG                      45756021
 004948 4110 A0F9      07DF1        7842        LA      RW1,ELST28                                               45762021
 00494C 9601 BFAB      0985B        7843        OI      SKIPSW,MSWON                                             45768021
 004950 9601 BF73      09823        7844        OI    GENRED,MSWON                                               45774021
 004954 98CE B50C      08DBC        7845        LM      RIN,RCS,SVE28                                            45780021
 004958 07FE                        7846          BCR   UNCOND,RCS          RETURN TO MAINLINE                   45786021
1PH40     IKFCBL40                                                                                              PAGE  165
-  LOC  OBJECT CODE    ADDR1 ADDR2  STMT   SOURCE STATEMENT                                       ASM 0201 11.03 02/14/15
0                                   7848 *                                                                       45798021
                                    7849 *                                                                       45804021
                                    7850 *                 R E A D / W R I T E / R E W R I T                     45810021
                                    7851 *                                                                       45816021
                                    7852 *                                                                       45822021
                                    7853 *** STRINGS PRODUCED                                                    45828021
                                    7854 *      AFTER VERB,                                                      45834021
                                    7855 *      1ST ELEMENT IS FILE-NAME                                         45840021
                                    7856 *      2ND            GN ATTACHED TO NEXT STATEMENT                     45846021
                                    7857 *      3RD            DATA-NAME OR LIT FOR 'AFTER ADVANCING'            45852021
                                    7858 *                     GN OF NEXT SENTENCE FOR 'AT END' OR 'INVALID      45858021
                                    7859 *                     GN OF NEXT STATEMENT WHEN NO OPTION               45864021
                                    7860 *      4TH            RECORD-NAME FOR READ                              45870021
                                    7861 *                     DATA-NAME FOR WRITE(REWRITE)-FROM                 45876021
                                    7862 *                     'ZERO' FOR WRITE(REWRITE) WITHOUT 'FROM'          45882021
                                    7863 *      5TH            'ZERO' FOR READ WITHOUT 'INTO'                    45888021
                                    7864 *                     DATA-NAME FOR READ-INTO                           45894021
                                    7865 *                     RECORD-NAME FOR ALL WRITE/REWRITE                 45900021
                                    7866 *                                                                       45906021
                                    7867 *      WHEN DATA-NAME OPTION IS USED, THIS 5-ELEMENT STRING APPEARS     45912021
                                    7868 *       TWICE, WITH A MOVE STRING INTERVENING                           45918021
                                    7869 *      IF DATA-NAME IS SUBSCRIPTED, THE SUBSCRIPT STRING PRECEDES T     45924021
                                    7870 *  FIRST I/O AND MOVE STRINGS, BUT THE SUBSCRIPT-FORM OF THE DN (HE     45930021
                                    7871 *       31) APPEARS ONLY IN THE MOVE STRING. HEADER 30 IS USED IN       45936021
                                    7872 *       THE I/O STRINGS.                                                45942021
                                    7873 *      IF, IN ADDITION, AFTER-ADVANCING HAS A SUBSCRIPTED OBJECT, T     45948021
                                    7874 *       SUBSCRIPT STRING IS REPEATED BEFORE THE SECOND I/O STRING.      45954021
                                    7875 *                                                                       45960021
                                    7876 *   FOR EXAMPLE                                                         45966021
                                    7877 *      SOURCE - READ INFILE AT END GO TO B,ADD ...  . GO ...            45972021
                                    7878 *      OUTPUT - READ INFILE RGN1 RGN2 ZERO LGN1 ADD ...   LGN2 GO .     45978021
                                    7879 *      SOURCE - READ INFILE INTO DN INVALID KEY GO TO B, ADD ...        45984021
                                    7880 *      OUTPUT - READ INFILE RGN1 RGN2 INRCRD DN                         45990021
                                    7881 *               MOVE INRCRD DN                                          45996021
                                    7882 *               READ INFILE RGN1 RGN2 INRCRD DN LGN1 ADD..LGN2 GO..     46002021
                                    7883 *      SOURCE - WRITE OUTFILE ADD ...  .                                46008021
                                    7884 *      OUTPUT - WRITE OUTFILE RGN1 RGN1 ZERO OUTRCRD LGN1 ADD ...       46014021
                                    7885 *      SOURCE - WRITE OUTFILE FROM DN INVALID KEY GO TO B,ADD ... .     46020021
                                    7886 *      OUTPUT - WRITE OUTFILE RGN1 RGN2 DN OUTRCRD                      46026021
                                    7887 *               MOVE DN OUTRCRD                                         46032021
                                    7888 *               WRITE OUTFILE RGN1 RGN2 DN OUTRCRD LGN1 ADD..LGN2..     46038021
                                    7889 *      SOURCE - WRITE OUTFILE AFTER ADVANCING 2 LINES,ADD...            46044021
                                    7890 *      OUTPUT - WRITE OUTFILE RGN1 2 ZERO OUTRCRD LGN1 ADD...           46050021
                                    7891 *                                                                       46056021
                                    7892 *                                                                       46062021
                                    7893 *** SUBROUTINES CALLED                                                  46068021
                                    7894 *      GETNXT,STOVRB,STOINP,STOR45,GETALL,GENLAB,GENSTR,PCHCNT,GETM     46074021
                                    7895 *      RDUCOP,CALCLG,ISOKFL,ISOKMV,ISATND,ERROR                         46080021
                                    7896 *                                                                       46086021
                                    7897 *                                                                       46092021
                                    7898 *** ERROR PROCESSING                                                    46098021
                                    7899 *      IF FILE-NAME NOT FOUND,SKIP TO NEXT STATEMENT                    46104021
                                    7900 *      IF RECORD-NAME NOT FOUND, SKIP TO NEXT STATEMENT                 46110021
                                    7901 *      IF INTO/FROM MISSING BEFORE DATA-NAME, ASSUME THEM               46116021
                                    7902 *      IF VALID DATA-NAME NOT FOUND AFTER INTO/FROM, IGNORE OPTION      46122021
1PH40     IKFCBL40                                                                                              PAGE  166
-  LOC  OBJECT CODE    ADDR1 ADDR2  STMT   SOURCE STATEMENT                                       ASM 0201 11.03 02/14/15
0                                   7903 *      IF RECORD-NAME AND DATA-NAME INCOMPATIBLE FOR MOVE,IGNORE OP     46128021
                                    7904 *      IF READ LACKS 'AT END' FOR BSAM,QSAM,OR QISAM FILE DONT GENR     46134021
                                    7905 *      IF READ OR REWRITE HAS BOTH INVALID KEY AND ERROR DECLARATIV     46140021
                                    7906 *        DONT GENR                                                      46146021
                                    7907 *      IF REWRITE BSAM FILE DONT GENR                                   46152021
                                    7908 *      IF PHASE 2 FOUND SERIOUS INCONSISTENCIES IN FILE (ACCESS MET     46158021
                                    7909 *        SET TO F) DONT GENR                                            46164021
                                    7910 *      IF OPERAND OF 'AFTER ADVANCING' ILLEGAL, SUBSTITUTE 1            46170021
                                    7911 *      IF WRITE WITHOUT 'AFTER' FOR FILE WHICH HAS ANY WRITE-AFTER,     46176021
                                    7912 *       ASSUME WRITE AFTER 1                                            46182021
                                    7913 *      IF WRITE WITHOUT 'FROM' FOR APPLY-WRITE-ONLY FILE,DON'T GENR     46188021
                                    7914 *                                                                       46194021
                                    7915 *                                                                       46200021
                                    7916 *** NOTES                                                               46206021
                                    7917 *      INTOSW  ON MEANS DATA-NAME OPTION FOUND                          46212021
                                    7918 *      SKIPSW  ON MEANS SERIOUS ERROR, KEEP SCANNING BUT DONT GENR      46218021
                                    7919 *      OPCLSW  SET OFF TELLS ISOKFL VERB IS READ,WRITE,OR REWRITE       46224021
                                    7920 *      PRECEDING PHASES HAVE INSERTED RECORD-NAME FOR READ AND FILE     46230021
                                    7921 *        NAME FOR WRITE/REWRITE, SO THAT INPUT IS ALWAYS VERB FILE      46236021
-
                                    7923 *=1    WRITE   VERB                                                     46248021
                             0495A  7924        USING   *,RVRB                                                   46254021
                             0495A  7925 WRITE  EQU     *                                                        46260021
 00495A 4130 0004      00004        7926          LA    RW3,DX4                   RW3=4 MEANS VERB IS WRITE      46266021
 00495E 41FF 000C      0000C        7927        LA      RVRB,REWRIT-WRITE(RVRB)                                  46272021
                             04966  7928        USING   REWRIT,RVRB                                              46278021
 004962 47F0 F004      0496A        7929        BC      UNCOND,REWRT2       PROCESS REWRITE VERB                 46284021
-
                                    7931 *=1    REWRIT  VERB                                                     46296021
                             04966  7932 REWRIT EQU     *                        RW3=8 MEANS VERB IS REWRITE     46302021
 004966 4130 0008      00008        7933          LA    RW3,DX8                                                  46308021
 00496A 4150 B57C      08E2C        7934 REWRT2 LA      RW5,PLEFT                   RW5 POINTS TO DATA-NAME      46314021
 00496E 4160 B5FA      08EAA        7935        LA      RW6,PRIGHT                  RW6           RECORD-NAM     46320021
 004972 4100 A4E2      081DA        7936        LA      RA0,CBFROM         SET RA0 FOR ERROR MSG                 46326021
 004976 41FF 001C      0001C        7937        LA      RVRB,READ-REWRIT(RVRB)                                   46332021
                             04982  7938        USING   READ,RVRB                                                46338021
 00497A 47F0 F00E      04990        7939        BC      UNCOND,READ2        GO TO STORE THE VERB                 46344021
                                    7940 *=1    READ FOR UPDATE VERB                                             46350021
                             0497E  7941 READUP EQU *              B                                             46356021
 00497E 41FF 0004      00004        7942        LA    RVRB,READ-READUP(RVRB)                                     46362021
                             04982  7943        USING READ,RVRB                                                  46368021
                                    7944 *=1    READ    VERB                                                     46374021
                             04982  7945 READ   EQU     *                                                        46380021
 004982 1B33                        7946        SR      RW3,RW3                  RW3=0 MEANS VERB IS READ        46386021
 004984 4150 B5FA      08EAA        7947        LA      RW5,PRIGHT                 RW5 POINTS TO DATA-NAME       46392021
 004988 4160 B57C      08E2C        7948        LA      RW6,PLEFT                  RW6           RECORD-NAME     46398021
 00498C 4100 A4E6      081DE        7949        LA      RA0,CBINTO         SET RA0 FOR ERROR MSG                 46404021
                                    7950 *                                                                       46410021
                                    7951 *                             INITIALIZE                                46416021
                                    7952 *                                                                       46422021
 004990 45E0 8166      0611E        7953 READ2  BAL     RCS,STOVRB          STORE VERB IN STRING                 46428021
