1PH20     IKFCBL20                                                                                              PAGE  190
-  LOC  OBJECT CODE    ADDR1 ADDR2  STMT   SOURCE STATEMENT                                       ASM 0201 11.03 02/14/15
00058FA 5A60 D414      0B954        7973 XTN13G   A     R6,EIGHT                                                 40728021
                                    7974 *                            BEFORE GENERATE A-TXT FOR CONTSTANT  38302 40734021
                                    7975 *                            CHECK LENGTH FIELD  ZERO             38302 40740021
 0058FE                             7976 CHKLGTH  DS    0H                                                 38302 40746021
 0058FE 91FF 1004      00004        7977          TM    DX4(R1),XXFF        IS THIS ALL CON                38302 40752021
 005902 47E0 F452      0591A        7978          BNO   CHKLGTH1            NOT,  BRANCH TO CHECK          38302 40758021
 005906 D500 1007 D3F4 00007 0B934  7979          CLC   DX7(LX1,R1),ZEROS   IS THIS ZERO LENGTH            38302 40764021
 00590C 4720 F45C      05924        7980          BH    CHKLGTH2            GENERATE A-TEST                38302 40770021
 005910 D200 1007 D3FB 00007 0B93B  7981          MVC   DX7(LX1,R1),ONE+DX3    INSERT LENGH ONE            38302 40776021
 005916 47F0 F45C      05924        7982          B     CHKLGTH2            GENERATE A-TEST                38302 40782021
 00591A                             7983 CHKLGTH1 DS    0H                                                 38302 40788021
 00591A D501 1005 D3F4 00005 0B934  7984          CLC   DX5(LX2,R1),ZEROS   CHECK ZERO IN NON-FIG. CON.    38302 40794021
 005920 47D0 F46E      05936        7985          BNH   XTN13D          DO NOT GENERATE A-TXT              38302 40800021
 005924                             7986 CHKLGTH2 DS    0H                                                 38302 40806021
 005924 5060 DE84      0C3C4        7987          ST    R6,NMPUT                                                 40812021
 005928 5010 DEEC      0C42C        7988          ST    R1,ADDRES                                                40818021
 00592C 58F0 DCAC      0C1EC        7989          L     R15,APUTOT                                               40824021
 005930 05EF                        7990          BALR  R14,R15             PUT OUT DATA-A TEXT                  40830021
 005932 58F0 DBC8      0C108        7991          L     R15,ADICTB                                               40836021
 005936 9104 9000      00000        7992 XTN13D   TM    DX0(R9),XX04         88'S UNDER GROUP                    40842021
 00593A 4780 F524      059EC        7993          BZ    XTN013              NO                                   40848021
 00593E 91FF 9022      00022        7994          TM    DX34(R9),XXFF        USAGE OTHER THAN DISPLAY            40854021
 005942 4780 F48C      05954        7995          BZ    XTN13K              NO                                   40860021
 005946 4780 F48C      05954        7996          BZ    XTN13K              NOT DISPLAY                          40866021
 00594A 4560 FAE0      05FA8        7997          BAL   R6,XTNERR           YES, ERROR                           40872021
 00594E 20C0                        7998          DC    X'20C0'             MSG 192                              40878021
 005950 47F0 F524      059EC        7999          B     XTN013              BRANCH                               40884021
 005954 5810 DB4C      0C08C        8000 XTN13K   L     R1,PVALTR           CHECK LENGTHS                        40890021
 005958 5811 0000      00000        8001          L     R1,DX0(R1)                                               40896021
 00595C 4861 0004      00004        8002          LH    R6,DX4(R1)           GET DISPL                           40902021
 005960 4960 DD68      0C2A8        8003          CH    R6,VALDSP     -                                          40908021
 005964 4780 F524      059EC        8004          BE    XTN013              NO                                   40914021
 005968 5811 0000      00000        8005          L     R1,DX0(R1)                                               40920021
 00596C 4111 0000      00000        8006          LA    R1,DX0(R1)                                               40926021
 005970 1861                        8007          LR    R6,R1                                                    40932021
 005972 5A60 DDAC      0C2EC        8008          A     R6,END88            POINT TO END                         40938021
 005976 5060 DDAC      0C2EC        8009          ST    R6,END88            SAVE TO CHECK                        40944021
 00597A 4A19 0020      00020        8010          AH    R1,DX32(R9)          POINT TO PROPER ENTRY               40950021
 00597E 9575 1001      00001        8011 XTN13E   CLI   DX1(R1),XX75         FIGCON                              40956021
 005982 4780 F4E8      059B0        8012          BE    XTN13F              GO CHECK NEXT                        40962021
 005986 D500 1002 9003 00002 00003  8013          CLC   DX2(LX1,R1),DX3(R9)   NO, CHECK LENGTH                   40968021
 00598C 4780 F4E8      059B0        8014          BE    XTN13F              BRANCH                               40974021
                                    8015 * LENGTH OF LITERAL DOES NOT EQUAL LENGTH OF GROUP                      40980021
                                    8016 *                                                                       40986021
 005990 D500 9003 D3F4 00003 0B934  8017          CLC   DX3(LX1,R9),ZEROS        IS GRP LGN 0              40625 40992021
 005996 4770 F4DE      059A6        8018          BNE   XTN13F1             BRANCH TO XTN13F1              40625 40998021
 00599A D200 9003 1002 00003 00002  8019          MVC   DX3(LX1,R9),DX2(R1) INSERT VALUE LENGTH            40625 41004021
 0059A0 D200 2008 1002 00008 00002  8020          MVC   DX8(LX1,R2),DX2(R1)    INSERT VAL LENGTH TO DIC    40625 41010021
 0059A6                             8021 XTN13F1  DS    0H                                                 40625 41016021
 0059A6 4560 FAE0      05FA8        8022          BAL   R6,XTNERR           GO GENERATE                          41022021
 0059AA 108D                        8023          DC    X'108D'             MSG 141                              41028021
 0059AC 47F0 F50A      059D2        8024          B     XTN13I              SET UP END                           41034021
 0059B0 1B66                        8025 XTN13F   SR    R6,R6                                                    41040021
 0059B2 4361 0000      00000        8026          IC    R6,DX0(R1)           GET COUNT OF ENTRY                  41046021
 0059B6 5460 D4D0      0BA10        8027          N     R6,MK2632           IN CASE VALUE THRU             09498 41052021
1PH20     IKFCBL20                                                                                              PAGE  191
-  LOC  OBJECT CODE    ADDR1 ADDR2  STMT   SOURCE STATEMENT                                       ASM 0201 11.03 02/14/15
00059BA 4116 1001      00001        8028          LA    R1,DX1(R6,R1) PT TO BYTE AFTER LAST VALTRU ENTRY   05913 41058021
 0059BE 95FF 1000      00000        8029          CLI   DX0(R1),XXFF  END OF ENTRY INDICATOR 'FF'?         05913 41064021
 0059C2 4770 F502      059CA        8030          BNE   XTN13F0       NO - CHK NXT VALUE IN SERIES OR THRU 05913 41070021
 0059C6 4111 0001      00001        8031          LA    R1,DX1(R1)    PT PAST 'FF' TO NEXT ENTRY           05913 41076021
                             059CA  8032 XTN13F0  EQU   *                                                  05913 41082021
 0059CA 5910 DDAC      0C2EC        8033          C     R1,END88            AT END OF GROUP                      41088021
 0059CE 4740 F4B6      0597E        8034          BL    XTN13E              GO CHECK NEXT                        41094021
 0059D2 D701 DDAC DDAC 0C2EC 0C2EC  8035 XTN13I   XC    END88(LX2),END88     CLEAR HIGH ORDER BYTES              41100021
 0059D8 D201 DDAE 9020 0C2EE 00020  8036          MVC   END88+NX2(LX2),DX32(R9) RESET PTR FOR ENTRY              41106021
 0059DE 9130 9000      00000        8037 XTN13J   TM    DX0(R9),XX30                                             41112021
 0059E2 4780 F524      059EC        8038          BZ    XTN013              NO                                   41118021
 0059E6 4560 FAE0      05FA8        8039          BAL   R6,XTNERR           GO GENERATE                          41124021
 0059EA 10BF                        8040          DC    X'10BF'               MSG 191                            41130021
 0059EC 9101 9001      00001        8041 XTN013   TM    DX1(R9),XX01                                             41136021
 0059F0 4780 F530      059F8        8042          BC    ZERO,XTN015         GO TO TEST FOR VAR. LGN GROUP        41142021
 0059F4 9601 2006      00006        8043          OI    DX6(R2),XX01                                             41148021
 0059F8 9140 9001      00001        8044 XTN015   TM    DX1(R9),XX40         IS LGS A VAR. LGN GROUP             41154021
 0059FC 47E0 F540      05A08        8045          BC    NOTONE,XTN016       NO                                   41160021
 005A00 9750 2001      00001        8046          XI    DX1(R2),XX50         YES, SET MINOR CODE TO VAR. LGN     41166021
 005A04 9601 D5AE      0BAEE        8047          OI    XTNSBL,XX01          TURN ON SW FOR ADPAR                41172021
 005A08 9140 9000      00000        8048 XTN016   TM    DX0(R9),XX40         IS Q-BIT ON IN LGS                  41178021
 005A0C 47E0 F54C      05A14        8049          BC    NOTONE,XTN16A       NO, BRANCH                           41184021
 005A10 9602 2006      00006        8050          OI    DX6(R2),XX02        YES, SET Q-BIT ON IN ATTRIB.         41190021
 005A14 D203 DDD8 D684 0C318 0BBC4  8051 XTN16A   MVC   PARAM1(LX4),DICPNT                                       41196021
 005A1A 9200 DDD4      0C314        8052          MVI   PARAM,XX00                                               41202021
 005A1E D202 DDD5 900D 0C315 0000D  8053          MVC   PARAM+NX1(LX3),DX13(R9)  DICT. POINTER OF GLS.           41208021
 005A24 4110 DDD4      0C314        8054          LA    R1,PARAM            SETUP THE PARAMETER LIST, AND        41214021
 005A28 58F0 DBF8      0C138        8055          L     R15,AENTDE          CALL ACCESS TO ENTER DICT.           41220021
 005A2C 05EF                        8056        BALR  R14,R15                  POINTER WHICH DELIMITS THE GR     41226021
 005A2E 58F0 DBC8      0C108        8057          L     R15,ADICTB                                               41232021
 005A32 9500 9018      00018        8058          CLI   DX24(R9),XX00        ANY IDS                             41238021
 005A36 4780 F6A0      05B68        8059          BE    XTN16C              NO                                   41244021
                                    8060 *                                                                       41250021
                                    8061 * FINISH PROCESSING FOR TABLE HANDLING                                  41256021
                                    8062 *                                                                       41262021
 005A3A D201 DFC8 9002 0C508 00002  8063          MVC   IDLNTH(LX2),DX2(R9)   SUBJECT LENGTH TO ATTRIB.          41268021
 005A40 5850 DB34      0C074        8064          L     R5,ATBLSH                                                41274021
 005A44 5855 0000      00000        8065          L     R5,DX0(R5)                                               41280021
 005A48 5855 0000      00000        8066          L     R5,DX0(R5)                                               41286021
 005A4C 4155 0000      00000        8067          LA    R5,DX0(R5)                                               41292021
 005A50 4A59 001A      0001A        8068          AH    R5,DX26(R9)          ADD DISPL FOR ENTRY                 41298021
 005A54 1B77                        8069          SR    R7,R7                                                    41304021
 005A56 4379 0018      00018        8070          IC    R7,DX24(R9)          COUNT OF ID NAMES                   41310021
 005A5A D202 DDD5 5009 0C315 00009  8071 XTN162   MVC   PARAM+NX1(LX3),DX9(R5) PTR TO INDEX NAME                 41316021
 005A60 4155 0003      00003        8072          LA    R5,DX3(R5)           INCREMENT                           41322021
 005A64 9204 DDD4      0C314        8073          MVI   PARAM,XX04                                               41328021
 005A68 4110 DDD4      0C314        8074          LA    R1,PARAM                                                 41334021
 005A6C 58F0 DBE4      0C124        8075          L     R15,ALATRP          LOCATE ATTRIBUTES                    41340021
 005A70 05EF                        8076          BALR  R14,R15             BRANCH TO LOCATE ATTRIBUTES          41346021
 005A72 58F0 DBC8      0C108        8077          L     R15,ADICTB                                               41352021
 005A76 9140 9001      00001        8078          TM    DX1(R9),XX40         VLC SUBJECT                         41358021
 005A7A 4780 F5BA      05A82        8079          BZ    XTN163              NO                                   41364021
 005A7E 9680 2001      00001        8080          OI    DX1(R2),XX80         SET FLAG ON                         41370021
                             05A82  8081 XTN163   EQU   *                                                        41376021
 005A82 D201 2004 DFC8 00004 0C508  8082          MVC   DX4(LX2,R2),IDATT+NX4 APPEND PROPER LENGTH               41382021
1PH20     IKFCBL20                                                                                              PAGE  192
-  LOC  OBJECT CODE    ADDR1 ADDR2  STMT   SOURCE STATEMENT                                       ASM 0201 11.03 02/14/15
0005A88 4670 F592      05A5A        8083          BCT   R7,XTN162           GO TO GET PTR TO INDEX NAME          41388021
 005A8C 9500 9019      00019        8084          CLI   DX25(R9),XX00        ANY KEYS                            41394021
 005A90 4780 F6A0      05B68        8085          BE    XTN16C              NO                                   41400021
 005A94 5810 DB34      0C074        8086          L     R1,ATBLSH                                                41406021
 005A98 5811 0000      00000        8087          L     R1,DX0(R1)                                               41412021
 005A9C 5811 0000      00000        8088          L     R1,DX0(R1)                                               41418021
 005AA0 4111 0000      00000        8089          LA    R1,DX0(R1)                                               41424021
 005AA4 4A19 001A      0001A        8090          AH    R1,DX26(R9)          POINT TO PROPER ENTRY               41430021
 005AA8 1B88                        8091          SR    R8,R8                                                    41436021
 005AAA 4381 0008      00008        8092          IC    R8,DX8(R1)           GET COUNT OF KEYS                   41442021
 005AAE 4168 8002      00002        8093          LA    R6,DX2(R8,R8)                                            41448021
 005AB2 4166 8000      00000        8094          LA    R6,DX0(R6,R8)                                            41454021
 005AB6 4186 1008      00008        8095          LA    R8,DX8(R6,R1)        POINTS TO 1ST KEY ENTRY             41460021
 005ABA 4379 0019      00019        8096          IC    R7,DX25(R9)          GET COUNT                           41466021
 005ABE 5850 DB3C      0C07C        8097          L     R5,AKEYTB                                                41472021
 005AC2 5855 0000      00000        8098          L     R5,DX0(R5)                                               41478021
 005AC6 5855 0000      00000        8099          L     R5,DX0(R5)                                               41484021
 005ACA 4155 0000      00000        8100          LA    R5,DX0(R5)                                               41490021
 005ACE 4A59 001C      0001C        8101          AH    R5,DX28(R9)          POINT TO PROPER ENTRY               41496021
 005AD2 5020 D998      0BED8        8102          ST    R2,RS3                                                   41502021
 005AD6 D721 DDEC DDEC 0C32C 0C32C  8103 XTNA16   XC    LITBUF(LX34),LITBUF  CLEAR AREA                          41508021
 005ADC 1B66                        8104          SR    R6,R6                                                    41514021
 005ADE 4365 0001      00001        8105          IC    R6,DX1(R5)           COUNT OF NAME                       41520021
 005AE2 4460 F678      05B40        8106          EX    R6,KEYFND           MOVE KEY                             41526021
 005AE6 4110 DDEC      0C32C        8107          LA    R1,LITBUF                                                41532021
 005AEA 5010 DF10      0C450        8108          ST    R1,WKAREA                                                41538021
 005AEE 920C DF10      0C450        8109          MVI   WKAREA,XX0C          SET                                 41544021
 005AF2 9200 DF14      0C454        8110          MVI   WKAREA+NX4,XX00        UP                                41550021
 005AF6 D202 DF15 900D 0C455 0000D  8111          MVC   WKAREA+NX5(LX3),DX13(R9)  PARAMETER                      41556021
 005AFC 4110 DF10      0C450        8112          LA    R1,WKAREA                                                41562021
 005B00 58F0 DBE8      0C128        8113          L     R15,ALATGP                                               41568021
 005B04 05EF                        8114          BALR  R14,R15             BRANCH TO ACCESS RTN 'LATGRP'        41574021
 005B06 55F0 D3F4      0B934        8115          CL    R15,ZEROS           ERROR FOUNR                          41580021
 005B0A 58F0 DBC8      0C108        8116          L     R15,ADICTB                                               41586021
 005B0E 4770 F684      05B4C        8117          BNE   XTNC16              YES                                  41592021
 005B12 9101 5000      00000        8118          TM    DX0(R5),ASCKEY       IS KEY ASCENDING                    41598021
 005B16 4780 F656      05B1E        8119          BZ    XTNB16              NO                                   41604021
 005B1A 9610 2005      00005        8120          OI    DX5(R2),ICLASC       SET ASC KEY BIT ON                  41610021
 005B1E 9620 2005      00005        8121 XTNB16   OI    DX5(R2),ICLKEY       SET KEY BIT ON                      41616021
 005B22 5030 D99C      0BEDC        8122          ST    R3,RS4                                                   41622021
 005B26 D202 8000 D99D 00000 0BEDD  8123          MVC   DX0(LX3,R8),RS4+NX1                                      41628021
 005B2C 4188 0003      00003        8124          LA    R8,DX3(R8)           INCREMENT                           41634021
 005B30 4155 6002      00002        8125          LA    R5,DX2(R5,R6)        POINT TO NEXT ENTRY                 41640021
 005B34 4670 F60E      05AD6        8126          BCT   R7,XTNA16           BRANCH                               41646021
                                    8127 *DEL                                                                    41652021
                                    8128 *DEL                                                                    41658021
                                    8129 *DEL                                                                    41664021
 005B38 5820 D998      0BED8        8130          L     R2,RS3                                                   41670021
 005B3C 47F0 F6A0      05B68        8131          B     XTN16C              BRANCH                               41676021
                                    8132 *                                                                       41682021
 005B40 D200 DDEC 5001 0C32C 00001  8133 KEYFND   MVC   LITBUF(LX1),DX1(R5)                                      41688021
 005B46 D200 1007 1008 00007 00008  8134 XTNLIT   MVC   DX7(LX0,R1),DX8(R1)                                      41694021
                                    8135 *                                                                       41700021
 005B4C 5820 DB34      0C074        8136 XTNC16   L     R2,ATBLSH                                                41706021
 005B50 5822 0000      00000        8137          L     R2,DX0(R2)                                               41712021
1PH20     IKFCBL20                                                                                              PAGE  193
-  LOC  OBJECT CODE    ADDR1 ADDR2  STMT   SOURCE STATEMENT                                       ASM 0201 11.03 02/14/15
0005B54 5822 0000      00000        8138          L     R2,DX0(R2)                                               41718021
 005B58 4122 0000      00000        8139          LA    R2,DX0(R2)                                               41724021
 005B5C 4A29 001A      0001A        8140          AH    R2,DX26(R9)          POINT TO PROPER ENTRY               41730021
 005B60 9601 2004      00004        8141          OI    DX4(R2),KEYERR       SET FLAG ON FOR PHASE3              41736021
 005B64 5820 D998      0BED8        8142          L     R2,RS3                                                   41742021
 005B68 9140 A001      00001        8143 XTN16C   TM    DX1(R10),XX40                                            41748021
 005B6C 4710 F996      05E5E        8144          BC    ONES,XTN300            BRANCH IF YES, OTHERWISE          41754021
 005B70 9501 9014      00014        8145          CLI   DX20(R9),XX01        IS LGS LEVEL 01                     41760021
 005B74 4770 F6B6      05B7E        8146          BC    NOTEQ,XTN16B        NO                                   41766021
 005B78 1B55                        8147          SR    R5,R5               YES, R4= LGN OF LGS                  41772021
 005B7A 47F0 F6C8      05B90        8148          BC    UNCOND,XTN17A            R5= 0 ( NO GIG )                41778021
                                    8149 *                                                                       41784021
                                    8150 *  VLC NOT ASSIGNED TO GIG, AND LGS NOT SUBJECT OF AN OCCURS CLAUSE     41790021
                                    8151 *                                                                       41796021
 005B7E 585A 0000      00000        8152 XTN16B   L     R5,DX0(R10)          GET L(GIG) IN R5 AND R8             41802021
 005B82 5450 D4E8      0BA28        8153          N     R5,MK1632                                                41808021
 005B86 1885                        8154          LR    R8,R5                                                    41814021
 005B88 5849 0000      00000        8155 XTN017   L     R4,DX0(R9)           L(LGS) IN R4                        41820021
 005B8C 5440 D4E8      0BA28        8156          N     R4,MK1632                                                41826021
 005B90 D502 900A D3F4 0000A 0B934  8157 XTN17A   CLC   DX10(LX3,R9),ZEROS    IF LGS IS SUBJECT OF REDEFINES     41832021
 005B96 4720 F936      05DFE        8158          BC    HI,XTN125             BRANCH                             41838021
 005B9A D501 9006 D3F4 00006 0B934  8159 XTN018   CLC   DX6(LX2,R9),ZEROS     IS THIS LGS SUBJECT OF AN OCCURS   41844021
 005BA0 4770 F6E2      05BAA        8160          BC    NOTEQ,XTN025          BRANCH                             41850021
 005BA4 1A54                        8161          AR    R5,R4               L(GIG) = L(GIG) + L(LGS)             41856021
 005BA6 47F0 F784      05C4C        8162          BC    UNCOND,XTN030       BRANCH                               41862021
                                    8163 *                                                                       41868021
                                    8164 *  VLC NOT ASSIGNED TO GIG, AND LGS IS SUBJECT OF OCCURS CLAUSE.        41874021
                                    8165 *                                                                       41880021
 005BAA 9608 D54B      0BA8B        8166 XTN025   OI    FES,XX08             ADPAR SW DENOTES APAF HAS           41886021
                                    8167 *                                      BEEN UPDATED                     41892021
 005BAE 4879 0006      00006        8168          LH    R7,DX6(R9)           GET NOC FROM LGS                    41898021
 005BB2 1817                        8169          LR    R1,R7                                                    41904021
 005BB4 4B70 D3FA      0B93A        8170          SH    R7,ONE+NX2           CALCULATE L(LGS) * (NOC-1)          41910021
 005BB8 1C64                        8171          MR    R6,R4               R7 HAS L(LGS) * (NOC-1) =X           41916021
 005BBA 1867                        8172          LR    R6,R7                                                    41922021
 005BBC 1856                        8173          LR    R5,R6                                                    41928021
 005BBE 5A70 DEBC      0C3FC        8174          A     R7,DISP             DISP = DISP + L(LGS) * (NOC-1)       41934021
 005BC2 5070 DEBC      0C3FC        8175          ST    R7,DISP             STORE UPDATED LENGTH IN DISP.        41940021
 005BC6 9110 9015      00015        8176          TM    DX21(R9),XX10        FOR ITEMS IN LINKAGE SECTION OR     41946021
 005BCA 4710 F730      05BF8        8177          BC    ONES,XTN026           SORT-DISCRIPTION, NO STORAGE S     41952021
 005BCE 9505 D81E      0BD5E        8178          CLI   PMCI,XX05            IS ITEM IN LINKAGE SECTION          41958021
 005BD2 4780 F730      05BF8        8179          BE    XTN026              YES, DON'T ADD TO LOCCTR             41964021
 005BD6 9500 D81E      0BD5E        8180          CLI   PMCI,XX00                IS IT THE FILE SECT       45078 41970021
 005BDA 4770 F728      05BF0        8181          BNE   XTN025C                     NO, BR                 45078 41976021
 005BDE D500 D5A8 D5A9 0BAE8 0BAE9  8182          CLC   FDDCBNO(LX1),PRDCBNO     YES, FIND OUT IF GRP      45078 41982021
                                    8183 *  BEING RESOLVED IS IN PRESENT FD OR PREV. FD                    45078 41988021
 005BE4 4740 F730      05BF8        8184          BL    XTN026                   PREV FD, DONT INCR LOCCTR 45078 41994021
 005BE8 9501 D688      0BBC8        8185          CLI   CILEV,XX01               PRES-IS CURR ITM A LEV 01 48456 42000021
 005BEC 4780 F730      05BF8        8186          BE    XTN026                   YES, DONT INCR LOCCTR     48456 42006021
                             05BF0  8187 XTN025C  EQU   *                                                  45078 42012021
 005BF0 5A50 B148      00148        8188          A     R5,LOCCTR                                                42018021
 005BF4 5050 B148      00148        8189          ST    R5,LOCCTR                                                42024021
 005BF8 5570 D478      0B9B8        8190 XTN026   CL    R7,CO4096           IS DISP GREATER THAN 4096            42030021
 005BFC 47B0 F748      05C10        8191          BNL   XTN027              EQUAL OR GREATER               57835 42036021
 005C00 D200 DEBA DEBF 0C3FA 0C3FF  8192          MVC   APAF+NX1(LX1),DISP+NX3 UPDATE D FIELD OF APAF.           42042021
1PH20     IKFCBL20                                                                                              PAGE  194
-  LOC  OBJECT CODE    ADDR1 ADDR2  STMT   SOURCE STATEMENT                                       ASM 0201 11.03 02/14/15
0005C06 D100 DEB9 DEBE 0C3F9 0C3FE  8193          MVN   APAF(LX1),DISP+NX2                                       42048021
 005C0C 47F0 F75C      05C24        8194          BC    UNCOND,XTN028       BRANCH                               42054021
 005C10 D203 DF00 D9D0 0C440 0BF10  8195 XTN027   MVC   WKAR(LX4),RS14B      SAVE R14                            42060021
 005C16 9036 D998      0BED8        8196          STM   R3,R6,RS3           SAVE REGS FOR ADP049 RESTORE         42066021
 005C1A 45E0 FE50      06318        8197          BAL   R14,ADP049          BRANCH                               42072021
 005C1E D203 D9D0 DF00 0BF10 0C440  8198          MVC   RS14B(LX4),WKAR                                          42078021
 005C24 D200 DF00 D60C 0C440 0BB4C  8199 XTN028   MVC   WKAR(LX1),COUNT      IF ITEM IS LINKAGE-WORKING STORA    42084021
 005C2A D700 DF00 D7A0 0C440 0BCE0  8200          XC    WKAR(LX1),PCOUNT      BOUNDARY SAVE UPDATED APAF         42090021
 005C30 940F DF00      0C440        8201          NI    WKAR,XX0F                                                42096021
 005C34 9501 DF00      0C440        8202          CLI   WKAR,XX01                                                42102021
 005C38 4770 F77A      05C42        8203          BC    NOTEQ,XTN029        NO                                   42108021
 005C3C D206 DED3 DEB9 0C413 0C3F9  8204          MVC   RAPAF(LX7),APAF      YES                                 42114021
 005C42 1C04                        8205 XTN029   MR    R0,R4               NOC * L(LGS) + L(GIG)                42120021
 005C44 5010 DF38      0C478        8206          ST    R1,MTEMP            SAVE NOC*L(LGS) IN CASE OF GIG V     42126021
 005C48 1A18                        8207          AR    R1,R8                                                    42132021
 005C4A 1851                        8208          LR    R5,R1                                                    42138021
 005C4C 9504 D81E      0BD5E        8209 XTN030   CLI   PMCI,XX04            MAJOR CODE FOR WS SECTION           42144021
 005C50 4780 F7AA      05C72        8210          BC    EQ,XTN035           YES, BRANCH ( IT IS WK-ST )          42150021
 005C54 9505 D81E      0BD5E        8211          CLI   PMCI,XX05            IN LINK AGE SECTION                 42156021
 005C58 4780 F7AA      05C72        8212          BE    XTN035              YES                                  42162021
 005C5C 5950 D470      0B9B0        8213 XTN032   C     R5,CON32K                                                42168021
 005C60 47D0 F7CC      05C94        8214          BC    NOTHI,XTN040        VAR GROUP IN W-S SECT OR GROUP       42174021
                                    8215 *                                  NOT IN WORK-ST G.T. 32767            42180021
 005C64 4560 FAE0      05FA8        8216          BAL   R6,XTNERR           GO GENERATE                          42186021
 005C68 2073                        8217          DC    X'2073'             MSG 115                              42192021
 005C6A 5850 D470      0B9B0        8218          L     R5,CON32K           RESET TO MAX VALUE                   42198021
 005C6E 47F0 F7CC      05C94        8219          B     XTN040              BRANCH                               42204021
 005C72 9140 9001      00001        8220 XTN035   TM    DX1(R9),XX40         VARIABLE GROUP                      42210021
 005C76 4710 F794      05C5C        8221          BC    ONES,XTN032         YES, BRANCH                          42216021
 005C7A 5A60 DE90      0C3D0        8222          A     R6,DS                                                    42222021
 005C7E 5060 DE90      0C3D0        8223          ST    R6,DS               DS=DS+L(LGS) * (NOC-1)               42228021
 005C82 5950 D480      0B9C0        8224          C     R5,CO131K                                                42234021
 005C86 47D0 F7CC      05C94        8225          BC    NOTHI,XTN040        FIXED GROUP IN W-S SECT G.T. 1310    42240021
 005C8A 4560 FAE0      05FA8        8226          BAL   R6,XTNERR           GO GENERATE                          42246021
 005C8E 2074                        8227          DC    X'2074'             MSG 116                              42252021
 005C90 5850 D480      0B9C0        8228          L     R5,CO131K           CHANGE TO MAX VALUE                  42258021
                                    8229 *                                                                       42264021
                                    8230 *  STORE LGS, AND UPDATE ALL POINTERS.                                  42270021
                                    8231 *                                                                       42276021
 005C94 9140 A001      00001        8232 XTN040   TM    DX1(R10),XX40                                            42282021
 005C98 4710 F9AC      05E74        8233          BC    ONES,XTN310         BRANCH IF GIG IS VAR. LGN GROUP      42288021
 005C9C 5050 DF38      0C478        8234          ST    R5,MTEMP                                                 42294021
 005CA0 D201 A002 DF3A 00002 0C47A  8235          MVC   DX2(LX2,R10),MTEMP+NX2                                   42300021
 005CA6 9101 DF39      0C479        8236          TM    MTEMP+NX1,XX01                                           42306021
 005CAA 4780 F7EA      05CB2        8237          BC    ZERO,XTN070         BRANCH                               42312021
 005CAE 9601 A001      00001        8238          OI    DX1(R10),XX01                                            42318021
 005CB2 D217 DE94 9000 0C3D4 00000  8239 XTN070   MVC   LID(LX24),DX0(R9)     MOVE LGS INTO LID(LAST ITEM DELE   42324021
 005CB8 D723 9000 9000 00000 00000  8240          XC    DX0(LX36,R9),DX0(R9)  CLEAR AREA                         42330021
 005CBE 189A                        8241          LR    R9,R10              GIG BECOMES NEW LGS.                 42336021
 005CC0 5090 DC6C      0C1AC        8242          ST    R9,LGS                                                   42342021
 005CC4 5BA0 D444      0B984        8243          S     R10,CON24           UPDATE GIG POINTER.                  42348021
 005CC8 50A0 DC70      0C1B0        8244          ST    R10,GIG                                                  42354021
 005CCC 5810 DAD4      0C014        8245          L     R1,GPARAM                                                42360021
 005CD0 5821 0000      00000        8246          L     R2,DX0(R1)           ADJUST DISPLACEMENT IN TAMM.        42366021
 005CD4 4812 0004      00004        8247          LH    R1,DX4(R2)                                               42372021
1PH20     IKFCBL20                                                                                              PAGE  195
-  LOC  OBJECT CODE    ADDR1 ADDR2  STMT   SOURCE STATEMENT                                       ASM 0201 11.03 02/14/15
0005CD8 4B10 D446      0B986        8248          SH    R1,CON24+NX2                                             42378021
 005CDC 4012 0004      00004        8249          STH   R1,DX4(R2)                                               42384021
 005CE0 D500 D688 9014 0BBC8 00014  8250          CLC   CILEV(LX1),DX20(R9)   COMPARE LEVEL NUMBERS              42390021
 005CE6 47D0 F240      05708        8251          BC    NOTHI,XTN001        BRANCH                               42396021
 005CEA 9506 D76F      0BCAF        8252          CLI   MCI,XX06                 IS CURR ITM IN RPT SCT    42027 42402021
 005CEE 4770 F838      05D00        8253          BNE   XTN070A                    NO, BR                  42027 42408021
 005CF2 9505 D81E      0BD5E        8254          CLI   PMCI,XX05                IS GRP BEING RESOLVED IN LS     42414021
 005CF6 4770 F838      05D00        8255          BNE   XTN070A                  NO, BR                    42027 42420021
 005CFA D206 DEB9 DEDF 0C3F9 0C41F  8256          MVC   APAF(LX7),APAFSV         YES, RESTORE APAF AS SHLD BE    42426021
                             05D00  8257 XTN070A  EQU   *                                                  42027 42432021
 005D00 58E0 D9D0      0BF10        8258          L     R14,RS14B                                                42438021
 005D04 07FE                        8259          BCR   UNCOND,R14          BRANCH                               42444021
                                    8260 *                                                                       42450021
                                    8261 *                                                                       42456021
                                    8262 *                                                                       42462021
                                    8263 *  LGL IS SUBJECT OF REDEFINED CLAUSE, AND IT IS OF FIXED LENGTH.       42468021
                                    8264 *                                                                       42474021
 005D06 9110 9001      00001        8265 XTN100   TM    DX1(R9),XX10         ERROR IF IT IS OF VARIABLE LENGT    42480021
 005D0A 4710 F854      05D1C        8266          BC    ONES,XTN101         NO, FIXED LGN                        42486021
 005D0E 4560 FAE0      05FA8        8267          BAL   R6,XTNERR           GO GENERATE                          42492021
 005D12 0079                        8268          DC    X'0079'             MSG 121                              42498021
 005D14 5849 0010      00010        8269          L     R4,DX16(R9)          GET MAX, LENGTH OF LGS              42504021
 005D18 47F0 F85C      05D24        8270          BC    UNCOND,XTN105       BRANCH                               42510021
 005D1C 5849 0000      00000        8271 XTN101   L     R4,DX0(R9)           LOAD  L(LGS)                        42516021
 005D20 5440 D4E8      0BA28        8272          N     R4,MK1632                                                42522021
 005D24 D501 9006 D3F4 00006 0B934  8273 XTN105   CLC   DX6(LX2,R9),ZEROS                                        42528021
 005D2A 4720 F86C      05D34        8274          BC    HI,XTN110           BRANCH                               42534021
 005D2E 1874                        8275          LR    R7,R4               NO OCCURS IN THIS LGS.               42540021
 005D30 47F0 F8BA      05D82        8276          BC    UNCOND,XTN120       BRANCH                               42546021
 005D34 4879 0006      00006        8277 XTN110   LH    R7,DX6(R9)                                               42552021
 005D38 1C64                        8278          MR    R6,R4               R7 HAS L(LGS) * NOC.                 42558021
 005D3A 1867                        8279          LR    R6,R7                   PUT LENGTH IN R6            3548 42564021
 005D3C 1B64                        8280          SR    R6,R4                   SUBTRACT ORIG LENGTH = DIFF 3548 42570021
 005D3E 1846                        8281          LR    R4,R6                   STORE  DIFF ALSO IN R4      3548 42576021
 005D40 5A40 DEBC      0C3FC        8282          A     R4,DISP                  ADD DISP TO  DIFF          3548 42582021
 005D44 5040 DEBC      0C3FC        8283          ST    R4,DISP                 STORE UPDATED LENGTH IN DISP3548 42588021
 005D48 4540 F93E      05E06        8284          BAL   R4,XTN200               ADJUST  APAF                3548 42594021
 005D4C 9505 D81E      0BD5E        8285          CLI   PMCI,XX05            IF NOT LINKAGE SECTION              42600021
 005D50 4770 F898      05D60        8286          BC    NOTEQ,XTN115        ADD L(LGS) * (NOC-1)                 42606021
 005D54 940F D7A0      0BCE0        8287          NI    PCOUNT,XX0F                                              42612021
 005D58 9505 D7A0      0BCE0        8288          CLI   PCOUNT,XX05                                              42618021
 005D5C 4780 F8BA      05D82        8289          BC    EQ,XTN120           BRANCH                               42624021
                             05D60  8290 XTN115   EQU   *                                                  45078 42630021
 005D60 9500 D81E      0BD5E        8291          CLI   PMCI,XX00                IS IT FILE SCT            45078 42636021
 005D64 4770 F8B2      05D7A        8292          BNE   XTN115A                    NO, BR                  45078 42642021
 005D68 D500 D5A8 D5A9 0BAE8 0BAE9  8293          CLC   FDDCBNO(LX1),PRDCBNO     YES, FIND OUT IF GRP      45078 42648021
                                    8294 *  BEING RESOLVED IS IN PRESENT FD OR PREV FD                     45078 42654021
 005D6E 4740 F8BA      05D82        8295          BL    XTN120                   PREV FD, DONT INCR LOCCTR 45078 42660021
 005D72 9501 D688      0BBC8        8296          CLI   CILEV,XX01               PRES-IS CURR ITM A LEV 01 48456 42666021
 005D76 4780 F8BA      05D82        8297          BE    XTN120                   YES, DONT INCR LOCCTR     48456 42672021
 005D7A 5A60 B148      00148        8298 XTN115A  A     R6,LOCCTR                UPDATE LOCATION CTR       45078 42678021
 005D7E 5060 B148      00148        8299          ST    R6,LOCCTR                                                42684021
 005D82 5810 DABC      0BFFC        8300 XTN120   L     R1,RDFPAR                                                42690021
 005D86 5821 0000      00000        8301          L     R2,DX0(R1)                                               42696021
 005D8A 5812 0000      00000        8302          L     R1,DX0(R2)                                               42702021
1PH20     IKFCBL20                                                                                              PAGE  196
-  LOC  OBJECT CODE    ADDR1 ADDR2  STMT   SOURCE STATEMENT                                       ASM 0201 11.03 02/14/15
0005D8E 5410 D4C4      0BA04        8303          N     R1,MK0932                                                42708021
 005D92 4A12 0004      00004        8304          AH    R1,DX4(R2)                                               42714021
 005D96 5B10 D424      0B964        8305 XT120A   S     R1,TWELVE           R1 POINTS TO LAST ENTRY ON RDFST     42720021
 005D9A D500 1000 9014 00000 00014  8306          CLC   DX0(LX1,R1),DX20(R9)  IS RDFSTK LEVEL = LGS LEVEL        42726021
 005DA0 4720 F8CE      05D96        8307          BC    HI,XT120A           NO TRY NEXT ONE                      42732021
 005DA4 5971 0008      00008        8308          C     R7,DX8(R1)           COMPARE LGN WITH LAST ENTRY         42738021
 005DA8 4780 F92C      05DF4        8309          BC    EQ,XTN121            L(SUBJ. RED) EQ L(OBJ. RED)         42744021
 005DAC 4720 F96C      05E34        8310          BC    HI,ERR06            L(SUBJ. RED.) GT L(OBJ. RED.)        42750021
 005DB0 5881 0008      00008        8311          L     R8,DX8(R1)           L(SUBJ. RED.) LT  L(OBJ. RED.)      42756021
 005DB4 1B87                        8312          SR    R8,R7                                                    42762021
                                    8313 *DEL                                                                    42768021
                                    8314 *DEL                                                                    42774021
                                    8315 *DEL                                                                    42780021
 005DB6 D206 DEB9 1001 0C3F9 00001  8316          MVC   APAF(LX7),DX1(R1)   RESTORE APAF FROM RDFSTK       61479 42786021
 005DBC 9505 D81E      0BD5E        8317          CLI   PMCI,XX05            IF NOT LINKAGE SECTION              42792021
 005DC0 4770 F908      05DD0        8318          BC    NOTEQ,XT120B          SECTION ADD TO LOCCTR              42798021
 005DC4 940F D7A0      0BCE0        8319          NI    PCOUNT,XX0F                                              42804021
 005DC8 9505 D7A0      0BCE0        8320          CLI   PCOUNT,XX05                                              42810021
 005DCC 4780 F92C      05DF4        8321          BC    EQ,XTN121           BRANCH                               42816021
 005DD0 9500 D81E      0BD5E        8322 XT120B   CLI   PMCI,XX00                 IS IT FILE SECT          43155 42822021
 005DD4 4770 F922      05DEA        8323          BNE   XT120C                    NO, BR                   43155 42828021
 005DD8 D500 D5A8 D5A9 0BAE8 0BAE9  8324          CLC   FDDCBNO(LX1),PRDCBNO     YES, FIND OUT IF GRP      43155 42834021
                                    8325 *  BEING RESOLVED IS IN PRESENT FD OR PREV FD                     43155 42840021
 005DDE 4740 F92C      05DF4        8326          BL    XTN121                   PREV FD, DONT INCR LOCCTR 43155 42846021
 005DE2 9501 D688      0BBC8        8327          CLI   CILEV,XX01               PRES-IS CURR ITM A LEV 01 48456 42852021
 005DE6 4780 F92C      05DF4        8328          BE    XTN121                   YES, DONT INCR LOCCTR     48456 42858021
 005DEA 5820 B148      00148        8329 XT120C   L     R2,LOCCTR                LOCATION COUNTER          43155 42864021
 005DEE 1A28                        8330          AR    R2,R8                                                    42870021
 005DF0 5020 B148      00148        8331          ST    R2,LOCCTR                                                42876021
 005DF4 D701 DF5C DF5C 0C49C 0C49C  8332 XTN121   XC    REDDIF(LX2),REDDIF   REDDIF =0                           42882021
 005DFA 47F0 F28E      05756        8333          BC    UNCOND,XTN010       BR TO CALL ACC FOR ATTRB ADDR        42888021
 005DFE 4A50 DF5C      0C49C        8334 XTN125   AH    R5,REDDIF           ADD DIFFERENCE OF L(RED. SUBJ.)      42894021
 005E02 47F0 F7CC      05C94        8335          BC    UNCOND,XTN040           L(RED. OBJ.) TO L(GIG)           42900021
 005E06 D503 DEBC D478 0C3FC 0B9B8  8336 XTN200   CLC   DISP,CO4096             COMPARE DISP TO MAXIMUM     3548 42906021
 005E0C 4740 F95E      05E26        8337          BL    XTN201              OK IF LOWER                    57835 42912021
 005E10 D203 DF00 D9D0 0C440 0BF10  8338          MVC   WKAR(LX4),RS14B          SAVE  RETURN REG SAVE       354 42918021
 005E16 9036 D998      0BED8        8339          STM   R3,R6,RS3                SAVE   REGS 3-6            3548 42924021
 005E1A 45E0 FE50      06318        8340          BAL   R14,ADP049              GO TO ADPAR FOR ADJUST      3548 42930021
 005E1E D203 D9D0 DF00 0BF10 0C440  8341          MVC   RS14B(LX4),WKAR          RESTORE  RETURN SAVE        354 42936021
 005E24 07F4                        8342          BCR   UNCOND,R4           BRANCH                          3548 42942021
 005E26 D200 DEBA DEBF 0C3FA 0C3FF  8343 XTN201   MVC   APAF+NX1(LX1),DISP+NX3      UPDATE DISPLACEMENT IN    35 42948021
 005E2C D100 DEB9 DEBE 0C3F9 0C3FE  8344          MVN   APAF(LX1),DISP+NX2        APAF  FIELD                 35 42954021
 005E32 07F4                        8345          BCR   UNCOND,R4           BRANCH                          3548 42960021
                                    8346 *                                                                       42966021
 005E34 4560 FAE0      05FA8        8347 ERR06    BAL   R6,XTNERR           GO GENERATE                          42972021
 005E38 1076                        8348          DC    X'1076'             MSG 118                              42978021
 005E3A 1887                        8349          LR    R8,R7               SAVE  LGS LGN                        42984021
 005E3C 5B71 0008      00008        8350          S     R7,DX8(R1)                                               42990021
 005E40 5081 0008      00008        8351          ST    R8,DX8(R1)               PT LARGER LGN IN RDFSTK         42996021
 005E44 4070 DF5C      0C49C        8352          STH   R7,REDDIF           SAVE DIFFERENCE IN REDDIF            43002021
 005E48 5A71 0004      00004        8353          A     R7,DX4(R1)                                               43008021
 005E4C 5071 0004      00004        8354          ST    R7,DX4(R1)                                               43014021
 005E50 4271 0002      00002        8355          STC   R7,DX2(R1)                                               43020021
 005E54 D100 1001 1006 00001 00006  8356          MVN   DX1(LX1,R1),DX6(R1)                                      43026021
 005E5A 47F0 F28E      05756        8357          BC    UNCOND,XTN010       BRANCH                               43032021
1PH20     IKFCBL20                                                                                              PAGE  197
-  LOC  OBJECT CODE    ADDR1 ADDR2  STMT   SOURCE STATEMENT                                       ASM 0201 11.03 02/14/15
0005E5E 585A 0010      00010        8358 XTN300   L     R5,DX16(R10)         R5= MAX LGN OF GIG (SO FAR)         43038021
 005E62 1885                        8359          LR    R8,R5                                                    43044021
 005E64 9140 9001      00001        8360          TM    DX1(R9),XX40         IS LGS A VAR. LGN. GROUP            43050021
 005E68 47E0 F6C0      05B88        8361          BC    NOTONE,XTN017       NO, BRANCH                           43056021
 005E6C 5849 0010      00010        8362          L     R4,DX16(R9)          R4= MAX LGN OF LGS                  43062021
 005E70 47F0 F6D2      05B9A        8363          BC    UNCOND,XTN018       BRANCH                               43068021
 005E74 505A 0010      00010        8364 XTN310   ST    R5,DX16(R10)         STORE L(GIG)+L(LGS)IN MAX LGN(GI    43074021
 005E78 D501 9006 D3F4 00006 0B934  8365          CLC   DX6(LX2,R9),ZEROS     IS LGS SUBJECT OF AN OCCURS        43080021
 005E7E 4770 F9E6      05EAE        8366          BC    NOTEQ,XTN312        YES, BRANCH                          43086021
 005E82 9140 9001      00001        8367          TM    DX1(R9),XX40         IS LGS A VAR. LGN. GROUP            43092021
 005E86 47E0 FA98      05F60        8368          BC    NOTONE,XTN320       NO, BRANCH                           43098021
 005E8A D207 D960 D569 0BEA0 0BAA9  8369          MVC   QTEXT(LX8),STEPVL    YES, PUT OUT STEP VERB Q-TEXT       43104021
                                    8370 *                                  MOVE STEP VERB MASK TO QTEXT         43110021
 005E90 D201 D964 A002 0BEA4 00002  8371          MVC   QTEXT+NX4(LX2),DX2(R10) MOVE GIG VLC= TO QTEXT           43116021
 005E96 D201 D968 9002 0BEA8 00002  8372          MVC   QTEXT+NX8(LX2),DX2(R9) MOVE LGS VLC= TO QTEXT            43122021
 005E9C 4130 000A      0000A        8373          LA    R3,DX10                                                  43128021
 005EA0 58F0 DC18      0C158        8374          L     R15,APTQRN                                               43134021
 005EA4 05EF                        8375          BALR  R14,R15             GO TO SPECIAL ITEM PROCESSING        43140021
 005EA6 58F0 DBC8      0C108        8376          L     R15,ADICTB                                               43146021
 005EAA 47F0 F7EA      05CB2        8377          BC    UNCOND,XTN070       BRANCH                               43152021
 005EAE 9120 9000      00000        8378 XTN312   TM    DX0(R9),XX20         IS LGS SUBJECT OF ODO               43158021
 005EB2 47E0 F9F8      05EC0        8379          BC    NOTONE,XTN313       NO                                   43164021
 005EB6 D201 D900 9004 0BE40 00004  8380          MVC   FULLWD(LX2),DX4(R9)   YES, GET OD2TBL DISP.              43170021
 005EBC 47F0 FA2A      05EF2        8381          BC    UNCOND,XTN314       BRANCH                               43176021
 005EC0 9140 9001      00001        8382 XTN313   TM    DX1(R9),XX40         IS LGS A VAR. LGN. GROUP            43182021
 005EC4 47E0 FA8E      05F56        8383          BC    NOTONE,XTN319       NO, BRANCH                           43188021
 005EC8 D20D D960 D571 0BEA0 0BAB1  8384          MVC   QTEXT(LX14),UPDTOC   YES, PUT OUT UPDATE VERB QTEXT      43194021
 005ECE D201 D967 9002 0BEA7 00002  8385          MVC   QTEXT+NX7(LX2),DX2(R9) VLC OF LGS                        43200021
 005ED4 D201 D96A 9006 0BEAA 00006  8386          MVC   QTEXT+NX10(LX2),DX6(R9) NOC                              43206021
 005EDA D201 D96E A002 0BEAE 00002  8387          MVC   QTEXT+NX14(LX2),DX2(R10) VLC OF GIG                      43212021
 005EE0 4130 0010      00010        8388          LA    R3,DX16                                                  43218021
 005EE4 58F0 DC18      0C158        8389          L     R15,APTQRN                                               43224021
 005EE8 05EF                        8390          BALR  R14,R15             GO TO SPECIAL ITEM PROCESSING        43230021
 005EEA 58F0 DBC8      0C108        8391          L     R15,ADICTB                                               43236021
 005EEE 47F0 F7EA      05CB2        8392          BC    UNCOND,XTN070       BRANCH                               43242021
 005EF2 D201 D599 9006 0BAD9 00006  8393 XTN314   MVC   ODOMAX(LX2),DX6(R9)   MOVE NOC OF LGS TO ODOMAX          43248021
 005EF8 9140 9001      00001        8394          TM    DX1(R9),XX40         DOES LGS HAVE A VLC                 43254021
 005EFC 47E0 FA5C      05F24        8395          BC    NOTONE,XTN316       NO, BRANCH                           43260021
 005F00 58F0 DC1C      0C15C        8396          L     R15,AUPDN           YES, PUT OUT UPDATE VERB AND DN      43266021
 005F04 05EF                        8397          BALR  R14,R15             LNK TO ADDR IN REG 15                43272021
 005F06 58F0 DBC8      0C108        8398          L     R15,ADICTB                                               43278021
 005F0A D205 D960 D56B 0BEA0 0BAAB  8399          MVC   QTEXT(LX6),STEPVL+NX2 MOVE VLC MASK TO QTECT             43284021
 005F10 D201 D962 9002 0BEA2 00002  8400          MVC   QTEXT+NX2(LX2),DX2(R9) LGS VLC=                          43290021
 005F16 D201 D966 A002 0BEA6 00002  8401          MVC   QTEXT+NX6(LX2),DX2(R10) GIG VLC =                        43296021
 005F1C 4130 0008      00008        8402          LA    R3,DX8                                                   43302021
 005F20 47F0 FA80      05F48        8403          BC    UNCOND,XTN318       BRANCH                               43308021
 005F24 58F0 DC1C      0C15C        8404 XTN316   L     R15,AUPDN                                                43314021
 005F28 05EF                        8405          BALR  R14,R15             BRANCH                               43320021
 005F2A 58F0 DBC8      0C108        8406          L     R15,ADICTB                                               43326021
 005F2E D204 D960 D57A 0BEA0 0BABA  8407          MVC   QTEXT(LX5),UPDTOC+NX9 MOVE LIT., VLC MASK TO QTEXT       43332021
 005F34 5040 D900      0BE40        8408          ST    R4,FULLWD                                                43338021
 005F38 D201 D961 D902 0BEA1 0BE42  8409          MVC   QTEXT+NX1(LX2),FULLWD+NX2 L(LGS)  LITERAL                43344021
 005F3E D201 D965 A002 0BEA5 00002  8410          MVC   QTEXT+NX5(LX2),DX2(R10) GIG VLC =                        43350021
 005F44 4130 0007      00007        8411          LA    R3,DX7                                                   43356021
 005F48 58F0 DC18      0C158        8412 XTN318   L     R15,APTQRN                                               43362021
1PH20     IKFCBL20                                                                                              PAGE  198
-  LOC  OBJECT CODE    ADDR1 ADDR2  STMT   SOURCE STATEMENT                                       ASM 0201 11.03 02/14/15
0005F4C 05EF                        8413          BALR  R14,R15             BRANCH                               43368021
 005F4E 58F0 DBC8      0C108        8414          L     R15,ADICTB                                               43374021
 005F52 47F0 F7EA      05CB2        8415          BC    UNCOND,XTN070       BRH TO MOVE LGS INTO LID             43380021
 005F56 D201 D967 DF3A 0BEA7 0C47A  8416 XTN319   MVC   QTEXT+NX7(LX2),MTEMP+NX2 MOVE NOC*L(LGS) TO LIT. OF STEP 43386021
 005F5C 47F0 FAA8      05F70        8417          BC    UNCOND,XTN321       BRANCH                               43392021
 005F60 D502 900A D3F4 0000A 0B934  8418 XTN320   CLC   DX10(LX3,R9),ZEROS  IS THIS SUBJ. OF REDEFINES?    02493 43398021
 005F66 4720 F7EA      05CB2        8419          BC    HI,XTN070           YES, DO NOT GENERATE STEP VERB 02493 43404021
                                    8420 *                                   TO INCREMENT VLC              02493 43410021
 005F6A D201 D967 9002 0BEA7 00002  8421          MVC   QTEXT+NX7(LX2),DX2(R9)  MOVE L(LGS) TO LIT. OF STEP02493 43416021
 005F70 D206 D960 D556 0BEA0 0BA96  8422 XTN321   MVC   QTEXT(LX7),INITVB    SET UP                              43422021
 005F76 9242 D961      0BEA1        8423          MVI   QTEXT+NX1,STEPVB       STEP VERB                         43428021
 005F7A D201 D964 A002 0BEA4 00002  8424          MVC   QTEXT+NX4(LX2),DX2(R10) GIG VLC                          43434021
 005F80 4130 0009      00009        8425          LA    R3,DX9                                                   43440021
 005F84 47F0 FA80      05F48        8426          BC    UNCOND,XTN318       PUT OUT STEP VERB                    43446021
                                    8427 *                                                                       43452021
 005F88                             8428 XTN500 DS    0H                                                         43458021
 005F88 5890 DAD4      0C014        8429        L     R9,GPARAM                                                  43464021
 005F8C 58A9 0000      00000        8430          L     R10,DX0(R9)               GET TBL ARD OF GLS             43470021
 005F90 589A 0000      00000        8431          L     R9,DX0(R10)               ADR OF LAST ENTRY IN GLS       43476021
 005F94 5490 D4C4      0BA04        8432        N     R9,MK0932                                                  43482021
 005F98 4A9A 0004      00004        8433          AH    R9,DX4(R10)                                              43488021
 005F9C 5B90 D444      0B984        8434        S     R9,CON24                                                   43494021
 005FA0 18A9                        8435        LR    R10,R9                                                     43500021
 005FA2 5BA0 D444      0B984        8436        S     R10,CON24                                                  43506021
 005FA6 07FE                        8437        BCR   UNCOND,R14            BRANCH                               43512021
 005FA8 D201 D67E D5C7 0BBBE 0BB07  8438 XTNERR   MVC   CARDXX(LX2),CARDNO   SAVE CURRENT CARD NUMBER            43518021
 005FAE D201 D5C7 9008 0BB07 00008  8439          MVC   CARDNO(LX2),DX8(R9)   REPLACE WITH LGS                   43524021
 005FB4 4806 0000      00000        8440          LH    R0,DX0(R6)           R0 = MSG NUMBER                     43530021
 005FB8 58F0 DBC0      0C100        8441          L     R15,AERRTN          GO GENERATE MSG                      43536021
 005FBC 05EF                        8442          BALR  R14,R15             GO GENERATE MSG                      43542021
 005FBE 58F0 DBC8      0C108        8443          L     R15,ADICTB                                               43548021
 005FC2 4166 0002      00002        8444          LA    R6,DX2(R6)                                               43554021
 005FC6 D201 D5C7 D67E 0BB07 0BBBE  8445          MVC   CARDNO(LX2),CARDXX   RETURN CARDNO                       43560021
 005FCC 07F6                        8446          BR    R6                  BRANCH                               43566021
1PH20     IKFCBL20                                                                                              PAGE  199
-  LOC  OBJECT CODE    ADDR1 ADDR2  STMT   SOURCE STATEMENT                                       ASM 0201 11.03 02/14/15
0                                   8448 *=2   ADDRESSING PARAMETER ASSIGNMENT ROUTINE (ADPAR)                   43578021
                                    8449 *                                                                       43584021
                                    8450 *  ADPAR ASSIGNS ADDRESSING PARAMETERS TO ALL GROUP,ELEMENTARY,AND      43590021
                                    8451 *    LEVEL-77 ITEMS. ABAS POINTS TO THE LAST ENTRY IN BASE ASSIGNME     43596021
                                    8452 *    STACK(BAS).                                                        43602021
                                    8453 *        INPUT - R0 AND CILEV HAS LEVEL NO OF CI.                       43608021
                                    8454 *                                                                       43614021
 005FCE 9036 D998      0BED8        8455 ADPAR    STM   R3,R6,RS3                                                43620021
 005FD2 58F0 DBC8      0C108        8456          L     R15,ADICTB                                               43626021
 005FD6 50E0 D9D0      0BF10        8457          ST    R14,RS14B                                                43632021
 005FDA 9102 D5AE      0BAEE        8458          TM    XTNSBL,XX02          IF SW ON DO NOT DO BAS PROC.        43638021
 005FDE 47E0 FB22      05FEA        8459          BC    NOTONE,ADP010       DO NOT DO BAS PROC                   43644021
 005FE2 94FD D5AE      0BAEE        8460          NI    XTNSBL,XXFD                                              43650021
 005FE6 47F0 FC6C      06134        8461          BC    UNCOND,ADP018       GO TO SEE IF ANY RDFSTK ENTRIES      43656021
 005FEA 1B11                        8462 ADP010   SR    R1,R1                                                    43662021
 005FEC 4310 D77C      0BCBC        8463          IC    R1,BASI                                                  43668021
 005FF0 4120 D778      0BCB8        8464          LA    R2,BAS                                                   43674021
 005FF4 1A21                        8465          AR    R2,R1                                                    43680021
 005FF6 D500 D688 2000 0BBC8 00000  8466          CLC   CILEV(LX1),DX0(R2)    IS CI LEVEL = L.T. OR = LAST ODO   43686021
 005FFC 47D0 FB5A      06022        8467          BC    NOTHI,ADP014        YES                                  43692021
 006000 9180 D677      0BBB7        8468          TM    ITMCLS+NX1,XX80      NO, IS ITEM AN ODO                  43698021
 006004 47E0 FB4E      06016        8469          BC    NOTONE,ADP012       NO                                   43704021
 006008 D200 2001 D688 00001 0BBC8  8470          MVC   DX1(LX1,R2),CILEV     YES, ADD CILEV TO BAS              43710021
 00600E 4111 0001      00001        8471          LA    R1,DX1(R1)                                               43716021
 006012 4210 D77C      0BCBC        8472          STC   R1,BASI                                                  43722021
 006016 9101 D5AE      0BAEE        8473 ADP012   TM    XTNSBL,XX01          WAS LID A VAR. LGN. GROUP           43728021
 00601A 47E0 FC6C      06134        8474          BC    NOTONE,ADP018       NO                                   43734021
 00601E 47F0 FB82      0604A        8475          BC    UNCOND,ADP015       YES                                  43740021
 006022 5B10 D3F8      0B938        8476 ADP014   S     R1,ONE                                                   43746021
 006026 5B20 D3F8      0B938        8477          S     R2,ONE              NEXT HIGHEST BAS ENTRY               43752021
 00602A D500 D688 2000 0BBC8 00000  8478          CLC   CILEV(LX1),DX0(R2)    IS CILEVEL  L.T. OR = LAST ODO L   43758021
 006030 47D0 FB5A      06022        8479          BC    NOTHI,ADP014        YES                                  43764021
 006034 9180 D677      0BBB7        8480          TM    ITMCLS+NX1,XX80      NO, IF CI IS ODO ADD LEV. NUM TO    43770021
 006038 47E0 FB7E      06046        8481          BC    NOTONE,ADP14A       NO                                   43776021
 00603C D200 2001 D688 00001 0BBC8  8482          MVC   DX1(LX1,R2),CILEV     YES                                43782021
 006042 4111 0001      00001        8483          LA    R1,DX1(R1)            ADD TO BAS                         43788021
 006046 4210 D77C      0BCBC        8484 ADP14A   STC   R1,BASI             RESET BASI                           43794021
 00604A 94FE D5AE      0BAEE        8485 ADP015   NI    XTNSBL,XXFE          TURN OFF SWITCH                     43800021
 00604E 9501 D688      0BBC8        8486          CLI   CILEV,XX01           IS CI LEVEL 01                      43806021
 006052 4780 FC6C      06134        8487          BC    EQ,ADP018           YES, NO SBL, 01 GETS LAST BL  OF     43812021
                                    8488 *                                   LAST 01 W/ DISP UP'D BY LAST 01     43818021
 006056 9532 D688      0BBC8        8489          CLI   CILEV,XX32               IS ITEM A 77              37093 43824021
 00605A 4780 FC6C      06134        8490          BE    ADP018                   YES, BR                   37093 43830021
 00605E D706 DEB9 DEB9 0C3F9 0C3F9  8491          XC    APAF(LX7),APAF                                           43836021
 006064 9640 DEB9      0C3F9        8492          OI    APAF,XX40            SET I-FIELD TO SBL                  43842021
 006068 4840 B17A      0017A        8493          LH    R4,SBLCTR                                                43848021
 00606C 4144 0001      00001        8494          LA    R4,DX1(R4)           GET NEXT SBL=                       43854021
 006070 4040 B17A      0017A        8495          STH   R4,SBLCTR                                                43860021
 006074 4240 DEBB      0C3FB        8496          STC   R4,APAF+NX2          PUT SBL= IN K FIELD                 43866021
                                    8497 *                                                                       43872021
                                    8498 *INITIALIZE SBL BY INCRA Q-TEXT                                         43878021
                                    8499 *                                                                       43884021
 006078 D201 D960 D554 0BEA0 0BA94  8500          MVC   QTEXT(LX2),INCRAV                                        43890021
 00607E 4130 0002      00002        8501          LA    R3,DX2                                                   43896021
 006082 58F0 DC18      0C158        8502          L     R15,APTQRN          PUT OUT INCRA VERB                   43902021
1PH20     IKFCBL20                                                                                              PAGE  200
-  LOC  OBJECT CODE    ADDR1 ADDR2  STMT   SOURCE STATEMENT                                       ASM 0201 11.03 02/14/15
0006086 05EF                        8503          BALR  R14,R15             GO TO PUT OUT Q-RNT TEXT             43908021
 006088 58F0 DBC8      0C108        8504          L     R15,ADICTB                                               43914021
                                    8505 *                                                                       43920021
                                    8506 *PUT IN  1ST OP OF INCRA                                                43926021
                                    8507 *                                                                       43932021
 00608C 5890 DAD4      0C014        8508          L     R9,GPARAM                                                43938021
 006090 58A9 0000      00000        8509          L     R10,DX0(R9)                                              43944021
 006094 589A 0000      00000        8510          L     R9,DX0(R10)                                              43950021
 006098 5490 D4C4      0BA04        8511          N     R9,MK0932                                                43956021
 00609C 4A9A 0004      00004        8512          AH    R9,DX4(R10)          R9= ADDRESS OF LAST ENTRY IN GPL    43962021
 0060A0 5B90 D444      0B984        8513          S     R9,CON24             (GOVERNING GROUP ITEM)              43968021
 0060A4 D202 DDD5 900D 0C315 0000D  8514          MVC   PARAM+NX1(LX3),DX13(R9) SET UP PARAMETER FOR LATRPT      43974021
 0060AA 9204 DDD4      0C314        8515          MVI   PARAM,XX04                                               43980021
 0060AE 4110 DDD4      0C314        8516          LA    R1,PARAM                                                 43986021
 0060B2 58F0 DBE4      0C124        8517          L     R15,ALATRP                                               43992021
 0060B6 05EF                        8518          BALR  R14,R15             CALL LATRPT TO LOCATE GROUP IN D     43998021
 0060B8 58F0 DBC8      0C108        8519          L     R15,ADICTB          RESET BASE REGISTER                  44004021
 0060BC D201 D960 D549 0BEA0 0BA89  8520          MVC   QTEXT(LX2),DNREF                                         44010021
 0060C2 D207 D962 2000 0BEA2 00000  8521          MVC   QTEXT+NX2(LX8),DX0(R2) MOVE ATTRIBUTES TO QTEXT AREA     44016021
 0060C8 D202 D964 9015 0BEA4 00015  8522          MVC   QTEXT+NX4(LX3),DX21(R9) MOVE GRP ADDR PARAM TO     57814 44022021
                                    8523 *                            QTEXT AREA IN CASE GRP RE-ALIGNED    57814 44028021
 0060CE D202 D96A 900D 0BEAA 0000D  8524          MVC   QTEXT+NX10(LX3),DX13(R9) ADD ON DICTIONARY POINTER       44034021
 0060D4 4130 000D      0000D        8525          LA    R3,DX13                                                  44040021
 0060D8 58F0 DC18      0C158        8526          L     R15,APTQRN                                               44046021
 0060DC 05EF                        8527          BALR  R14,R15             GO TO PUT OUT Q-RNT TEXT             44052021
 0060DE 58F0 DBC8      0C108        8528          L     R15,ADICTB                                               44058021
 0060E2 D205 D960 D563 0BEA0 0BAA3  8529          MVC   QTEXT(LX6),INCROP    MOVE INCRA OPERAND MASK TO QTEXT    44064021
 0060E8 D201 D962 9002 0BEA2 00002  8530          MVC   QTEXT+NX2(LX2),DX2(R9) AND FILL IN VLC= AND              44070021
 0060EE D201 D966 B17A 0BEA6 0017A  8531          MVC   QTEXT+NX6(LX2),SBLCTR                                    44076021
 0060F4 9604 D966      0BEA6        8532          OI    QTEXT+NX6,XX04       SET SBL BIT                         44082021
 0060F8 4130 0008      00008        8533          LA    R3,DX8                                                   44088021
 0060FC 58F0 DC18      0C158        8534          L     R15,APTQRN                                               44094021
 006100 05EF                        8535          BALR  R14,R15             GO TO PUT OUT Q-RNT TEXT             44100021
 006102 58F0 DBC8      0C108        8536          L     R15,ADICTB                                               44106021
 006106 9180 D5A3      0BAE3        8537          TM    PTBLSW,XX80          WAS QSBL TABLE PRIMED           475 44112021
 00610A 4710 FC58      06120        8538          BC    ONES,ADP016         YES                             4758 44118021
 00610E 4110 DB64      0C0A4        8539          LA    R1,QSBLPM           NO                              4758 44124021
 006112 58F0 DCE4      0C224        8540          L     R15,BPRIME           PRIME QSBL TABLE                475 44130021
 006116 05EF                        8541          BALR  R14,R15             GO TO PRINT ROUTINE             4758 44136021
 006118 58F0 DBC8      0C108        8542          L     R15,ADICTB                                          4758 44142021
 00611C 9680 D5A3      0BAE3        8543          OI    PTBLSW,XX80          SET PRIME SW                    475 44148021
 006120 5810 DB64      0C0A4        8544 ADP016   L     R1,QSBLPM                                           4758 44154021
 006124 58F0 DCE8      0C228        8545          L     R15,BINSRT                                          4758 44160021
 006128 05EF                        8546          BALR  R14,R15             GO TO INSERT ROUTINE            4758 44166021
 00612A 58F0 DBC8      0C108        8547          L     R15,ADICTB                                          4758 44172021
 00612E D200 2000 B17B 00000 0017B  8548          MVC   DX0(LX1,R2),SBLCTR+NX1    INSERT ENTRY IN TABLE       47 44178021
 006134 9120 D54B      0BA8B        8549 ADP018   TM    FES,XX20             ARE THERE ANY RDFSTK ENTRIES        44184021
 006138 4780 FD5C      06224        8550          BC    ZERO,ADP045            NO.                               44190021
 00613C 5890 DABC      0BFFC        8551          L     R9,RDFPAR                                                44196021
 006140 58A9 0000      00000        8552          L     R10,DX0(R9)                                              44202021
 006144 584A 0000      00000        8553          L     R4,DX0(R10)          GET ADDRESS OF LAST ENTRY ON RDF    44208021
 006148 5440 D4C4      0BA04        8554          N     R4,MK0932                                                44214021
 00614C 4A4A 0004      00004        8555          AH    R4,DX4(R10)                                              44220021
 006150 5B40 D424      0B964        8556 ADP020   S     R4,TWELVE                                                44226021
 006154 D500 D688 4000 0BBC8 00000  8557          CLC   CILEV(LX1),DX0(R4)    COMPARE LEVNO OF CI AND RDFSTK.    44232021
1PH20     IKFCBL20                                                                                              PAGE  201
-  LOC  OBJECT CODE    ADDR1 ADDR2  STMT   SOURCE STATEMENT                                       ASM 0201 11.03 02/14/15
000615A 4720 FD5C      06224        8558          BC    HI,ADP045           BR:CI SUBJ OF REDEF & DISP<4096      44238021
 00615E 4740 FCA2      0616A        8559          BC    LO,ADP035           BR:CI LEVEL < LAST ENTRY LEVEL       44244021
                                    8560 *                                                                       44250021
                                    8561 *  LEVEL OF CI IS EQUAL TO LEVEL OF LAST ENTRY ON RDFSTK.               44256021
                                    8562 *                                                                       44262021
 006162 9101 D60D      0BB4D        8563 ADP030   TM    MINCOD,XX01          IS CI SUBJECT OF REDEFINES.         44268021
 006166 4710 FD5C      06224        8564          BC    ONES,ADP045            YES                               44274021
                                    8565 *  LEVEL OF CI IS LOWER THAN LEVEL OF LAST ENTRY ON RDFSTK.             44280021
                                    8566 *                                                                       44286021
 00616A D200 DF00 D60C 0C440 0BB4C  8567 ADP035   MVC   WKAR(LX1),COUNT      IF CURRENT SECT. IS DIFF FROM       44292021
 006170 D700 DF00 D7A0 0C440 0BCE0  8568          XC    WKAR(LX1),PCOUNT        PREVIOUS SECTION,                44298021
 006176 940F DF00      0C440        8569          NI    WKAR,XX0F                                                44304021
 00617A 4780 FCE4      061AC        8570          BC    ZERO,ADP037         IF SAME SECTION BRANCH OR            44310021
 00617E 9502 DF00      0C440        8571          CLI   WKAR,XX02            IF WORKING-STOR. -REPORT SECTION    44316021
 006182 4780 FCE4      061AC        8572          BC    EQ,ADP037            BRANCH                              44322021
 006186 9501 DF00      0C440        8573          CLI   WKAR,XX01            IF WORKING-STOR.-LINKAGE SECTION    44328021
 00618A 4770 FCCC      06194        8574          BC    NOTEQ,ADP036        GO DELTE ALL BUT DUMMY RDFSTK        44334021
                                    8575 *DEL                                                                    44340021
                                    8576 *DEL                                                                    44346021
 00618E D206 DED3 4001 0C413 00001  8577          MVC   RAPAF(LX7),DX1(R4)    SAVE APAF FOR REPORT SECTION       44352021
 006194 D201 A004 D426 00004 0B966  8578 ADP036   MVC   DX4(LX2,R10),TWELVE+NX2 DELETE ALL BUT DUMMY RDFSTK ENTR 44358021
 00619A 5870 DAC4      0C004        8579          L     R7,RNMPAR                                                44364021
 00619E 5887 0000      00000        8580          L     R8,DX0(R7)                                               44370021
 0061A2 D201 8004 D40A 00004 0B94A  8581          MVC   DX4(LX2,R8),FIVE+NX2     DELETE ALL BUT DUMMY RNMTBL E   44376021
 0061A8 47F0 FD5C      06224        8582          BC    UNCOND,ADP045       BR:CI SUBJ OF REDEF & DISP<4096      44382021
 0061AC 9108 D54B      0BA8B        8583 ADP037   TM    FES,XX08             WAS APAF DISP UPDATED IN XTEN       44388021
 0061B0 4710 FD1E      061E6        8584          BO    ADP038              YES, BYPASS                          44394021
 0061B4 D206 DEB9 4001 0C3F9 00001  8585          MVC   APAF(LX7),DX1(R4)    NO, RESET APAF                      44400021
 0061BA 9106 D7A0      0BCE0        8586          TM    PCOUNT,XX06          IF LAST ITEM WAS IN REPORT SECT,    44406021
 0061BE 47E0 FD1E      061E6        8587          BC    NOTONE,ADP038       BR:DELETE LAST ENTRY ON RDFSKT       44412021
 0061C2 D703 DEBC DEBC 0C3FC 0C3FC  8588          XC    DISP(LX4),DISP                                           44418021
 0061C8 D200 DEBF DEBA 0C3FF 0C3FA  8589          MVC   DISP+NX3(LX1),APAF+NX1                                   44424021
 0061CE D100 DEBE DEB9 0C3FE 0C3F9  8590          MVN   DISP+NX2(LX1),APAF                                       44430021
 0061D4 D203 B148 DF60 00148 0C4A0  8591          MVC   LOCCTR(LX4),RPTLOC                                       44436021
 0061DA D703 DF60 DF60 0C4A0 0C4A0  8592          XC    RPTLOC(LX4),RPTLOC                                       44442021
 0061E0 D702 DEC1 DEC1 0C401 0C401  8593          XC    RPTRDF(LX3),RPTRDF                                       44448021
 0061E6 481A 0004      00004        8594 ADP038   LH    R1,DX4(R10)          DELETE THIS LAST ENTRY ON RDFSTK    44454021
 0061EA 4B10 D426      0B966        8595          SH    R1,TWELVE+NX2                                            44460021
 0061EE 401A 0004      00004        8596          STH   R1,DX4(R10)                                              44466021
 0061F2 5870 DAC4      0C004        8597          L     R7,RNMPAR              ALSO THE CORRESPONDING ENTRIE     44472021
 0061F6 5887 0000      00000        8598          L     R8,DX0(R7)              RNMTBL WITH EQ LEVNO AS RDFST    44478021
 0061FA 5878 0000      00000        8599          L     R7,DX0(R8)                                               44484021
 0061FE 5470 D4C4      0BA04        8600          N     R7,MK0932                                                44490021
 006202 4A78 0004      00004        8601          AH    R7,DX4(R8)                                               44496021
 006206 5B70 D408      0B948        8602 ADP040   S     R7,FIVE                                                  44502021
 00620A D500 7000 4000 00000 00000  8603          CLC   DX0(LX1,R7),DX0(R4)                                      44508021
 006210 4770 FC88      06150        8604          BC    NOTEQ,ADP020        GO TO COMPARE LEVNO CI & RDFSKT      44514021
 006214 4868 0004      00004        8605          LH    R6,DX4(R8)                                               44520021
 006218 4B60 D40A      0B94A        8606          SH    R6,FIVE+NX2                                              44526021
 00621C 4068 0004      00004        8607          STH   R6,DX4(R8)                                               44532021
 006220 47F0 FD3E      06206        8608          BC    UNCOND,ADP040       BRANCH                               44538021
                                    8609 *                                                                       44544021
                                    8610 *  CI IS SUBJECT OF REDEFINES, AND DISP IS LESS THAN 4096.              44550021
                                    8611 *                                                                       44556021
 006224 94F7 D54B      0BA8B        8612 ADP045   NI    FES,XXF7             TURN OFF ADPAR SW                   44562021
1PH20     IKFCBL20                                                                                              PAGE  202
-  LOC  OBJECT CODE    ADDR1 ADDR2  STMT   SOURCE STATEMENT                                       ASM 0201 11.03 02/14/15
0006228 9505 D76F      0BCAF        8613          CLI   MCI,XX05             LINKAGE SECT. ADDRESSING PARAMET    44568021
 00622C 4780 FF2A      063F2        8614          BC    EQ,ADP300              SPECIAL HANDLING.                 44574021
 006230 9501 D76F      0BCAF        8615          CLI   MCI,XX01                                                 44580021
 006234 4740 FD7C      06244        8616          BC    LO,ADP45A           FILE SECTION.                        44586021
 006238 4780 FFE2      064AA        8617          BC    EQ,ADP400           THIS IS SORT-DISCRIPTION ITEM.       44592021
 00623C 9502 D76F      0BCAF        8618          CLI   MCI,XX02                                                 44598021
 006240 4770 FD8E      06256        8619          BC    NOTEQ,ADP45B        NOT FD (RANDOM PROCESSING)           44604021
 006244 9501 D688      0BBC8        8620 ADP45A   CLI   CILEV,XX01                                               44610021
 006248 4770 FE12      062DA        8621          BC    NOTEQ,ADP050        BRANCH                               44616021
 00624C D206 DEB9 DEC5 0C3F9 0C405  8622          MVC   APAF(LX7),FAPAF                                          44622021
 006252 47F0 FE12      062DA        8623          BC    UNCOND,ADP050       BRANCH                               44628021
 006256 9501 D688      0BBC8        8624 ADP45B   CLI   CILEV,XX01                                               44634021
 00625A 4770 FE12      062DA        8625          BC    NOTEQ,ADP050        BRANCH                               44640021
 00625E 9140 DEB9      0C3F9        8626 ADP046   TM    APAF,XX40            IS APAF BL AN SBL                   44646021
 006262 47E0 FDCE      06296        8627          BC    NOTONE,ADP048       GO TO CHECK IF 01 LEVEL ITEM         44652021
 006266 5810 DEA8      0C3E8        8628          L     R1,LID+NX20          GET ADDR. PARAM OF LAST 01          44658021
 00626A 8810 0008      00008        8629          SRL   R1,DX8               SHIFT OUT K FIELD                   44664021
 00626E 5410 D4E4      0BA24        8630          N     R1,MK2132           D-FIELD IS IN R1                     44670021
 006272 5A10 DEA4      0C3E4        8631          A     R1,LID+NX16          ADD MAX LGN OF LAST 01 TO R1        44676021
 006276 5010 DEBC      0C3FC        8632          ST    R1,DISP             NEW DISP FIELD                       44682021
 00627A 94F0 DEA9      0C3E9        8633          NI    LID+NX21,XXF0                                            44688021
 00627E D200 DEB9 DEA9 0C3F9 0C3E9  8634          MVC   APAF(LX1),LID+NX21    RESET I-FIELD                      44694021
 006284 D200 DEBB DEAB 0C3FB 0C3EB  8635          MVC   APAF+NX2(LX1),LID+NX23 RESET K-FIELD                     44700021
 00628A D100 DEB9 DEBE 0C3F9 0C3FE  8636 ADP047   MVN   APAF(LX1),DISP+NX2    GET NEW D-FIELD < 4096             44706021
 006290 D200 DEBA DEBF 0C3FA 0C3FF  8637          MVC   APAF+NX1(LX1),DISP+NX3                                   44712021
 006296 9107 DEBA      0C3FA        8638 ADP048   TM    APAF+NX1,XX07        CHECK TO SEE IF 01 LEVEL ITEM       44718021
 00629A 4780 FE12      062DA        8639          BC    ZERO,ADP050            STARTS ON A DOUBLE WORD BOUND     44724021
 00629E 4350 DEBA      0C3FA        8640          IC    R5,APAF+NX1                                              44730021
 0062A2 5450 D410      0B950        8641          N     R5,SEVEN                                                 44736021
 0062A6 5860 D414      0B954        8642          L     R6,EIGHT            NO. OF SLACK BYTES ADDED             44742021
 0062AA 1B65                        8643          SR    R6,R5                  = 8 - REM (CURRENT ADDRESS/8)     44748021
 0062AC 5850 DEB8      0C3F8        8644          L     R5,APAF-NX1                                              44754021
 0062B0 8850 0008      00008        8645          SRL   R5,DX8                                                   44760021
 0062B4 5450 D4E4      0BA24        8646          N     R5,MK2132                                                44766021
 0062B8 1A56                        8647          AR    R5,R6                                                    44772021
 0062BA 4250 DEBA      0C3FA        8648          STC   R5,APAF+NX1                                              44778021
 0062BE 5050 DF38      0C478        8649          ST    R5,MTEMP                                                 44784021
 0062C2 D100 DEB9 DF3A 0C3F9 0C47A  8650          MVN   APAF(LX1),MTEMP+NX2                                      44790021
 0062C8 5850 DEBC      0C3FC        8651          L     R5,DISP                                                  44796021
 0062CC 1A56                        8652          AR    R5,R6               ADD THE SLACK BYTES TO DISP.         44802021
 0062CE 5050 DEBC      0C3FC        8653          ST    R5,DISP                                                  44808021
 0062D2 5A60 B148      00148        8654          A     R6,LOCCTR                                                44814021
 0062D6 5060 B148      00148        8655          ST    R6,LOCCTR         )                                      44820021
 0062DA 9501 D688      0BBC8        8656 ADP050   CLI   CILEV,XX01                                               44826021
 0062DE 4770 FE58      06320        8657          BC    NOTEQ,ADP058        BRANCH                               44832021
 0062E2 9204 D598      0BAD8        8658          MVI   VLCSET,XX04          NO, IN/LINE                         44838021
 0062E6 47F0 FE26      062EE        8659          BC    UNCOND,ADP053       BRANCH                               44844021
 0062EA 9234 D598      0BAD8        8660 ADP051   MVI   VLCSET,XX34          SET  ALL QRTN VLC                   44850021
 0062EE 4130 D555      0BA95        8661 ADP053   LA    R3,INITVB-NX1          CONSTANTS TO   FA04  INLINE       44856021
 0062F2 4140 0029      00029        8662          LA    R4,DX41                               FA34  OUTLINE      44862021
 0062F6 4133 0001      00001        8663 ADP054   LA    R3,DX1(R3)                                               44868021
 0062FA D500 3000 D597 00000 0BAD7  8664          CLC   DX0(LX1,R3),VLCCUR      AT EACH NEW 01 LEVEL             44874021
 006300 4770 FE42      0630A        8665          BC    NOTEQ,ADP055        BRANCH                               44880021
 006304 D200 3000 D598 00000 0BAD8  8666          MVC   DX0(LX1,R3),VLCSET                                       44886021
 00630A 4640 FE2E      062F6        8667 ADP055   BCT   R4,ADP054           BRANCH                               44892021
1PH20     IKFCBL20                                                                                              PAGE  203
-  LOC  OBJECT CODE    ADDR1 ADDR2  STMT   SOURCE STATEMENT                                       ASM 0201 11.03 02/14/15
000630E D200 D597 D598 0BAD7 0BAD8  8668          MVC   VLCCUR(LX1),VLCSET                                       44898021
 006314 47F0 FE58      06320        8669        BC    UNCOND,ADP058         BRANCH                               44904021
                                    8670 *                                                                       44910021
 006318 50E0 D9D0      0BF10        8671 ADP049 ST    R14,RS14B                                                  44916021
 00631C 58F0 DBC8      0C108        8672        L     R15,ADICTB                                                 44922021
 006320 D503 DEBC D478 0C3FC 0B9B8  8673 ADP058   CLC   DISP(LX4),CO4096                                         44928021
 006326 47B0 FE7A      06342        8674          BC    NOTLO,ADP100        BR: INCREMENT K FIELD OF APAF        44934021
 00632A 9501 D5B8      0BAF8        8675 ADP060   CLI   NXCISW,XX01          HAVE FOUND NEXT FD, PROCESSING L    44940021
 00632E 4780 FE70      06338        8676          BC    EQ,ADP062           YES, DON'T MOVE APAF INTO CI         44946021
 006332 D202 D60E DEB9 0BB4E 0C3F9  8677          MVC   ADDPAR(LX3),APAF     NO, ADDPAR IN CI = APAF             44952021
                             06338  8678 ADP062   EQU   *                                                        44958021
 006338 9836 D998      0BED8        8679          LM    R3,R6,RS3                                                44964021
 00633C 58E0 D9D0      0BF10        8680          L     R14,RS14B                                                44970021
 006340 07FE                        8681          BCR   UNCOND,R14          BRANCH                               44976021
 006342 5850 DEBC      0C3FC        8682 ADP100   L     R5,DISP             ADD 1 TO K FIELD OF APAF (BL=)       44982021
 006346 5B50 D478      0B9B8        8683          S     R5,CO4096                                                44988021
 00634A 5050 DEBC      0C3FC        8684          ST    R5,DISP             AND SUBTRACT 4096 FROM DISP.         44994021
 00634E 4250 DEBA      0C3FA        8685          STC   R5,APAF+NX1                                              45000021
 006352 D100 DEB9 DEBE 0C3F9 0C3FE  8686          MVN   APAF(LX1),DISP+NX2    SAVE ORIGINAL I FIELD.             45006021
 006358 1B55                        8687          SR    R5,R5               GET CURRENT BASE LOCATOR =           45012021
 00635A 4350 DEBB      0C3FB        8688          IC    R5,APAF+NX2                                              45018021
 00635E 9110 DEB9      0C3F9        8689          TM    APAF,XX10            UP THE K FIELD.                     45024021
 006362 4780 FEBE      06386        8690          BZ    ADP120              NO                                   45030021
 006366 4950 B17E      0017E        8691          CH    R5,BLLCTR                                                45036021
 00636A 4740 FF1E      063E6        8692          BC    LO,ADP140           YES, BRANCH                          45042021
 00636E 4800 DFA4      0C4E4        8693          LH    R0,BLLSAVE                                               45048021
 006372 5A00 D3F8      0B938        8694          A     R0,ONE              INCREMENT CTR                        45054021
 006376 4000 DFA4      0C4E4        8695          STH   R0,BLLSAVE          SAVE CTR                             45060021
 00637A 4000 B17E      0017E        8696          STH   R0,BLLCTR                                                45066021
 00637E 4200 DEBB      0C3FB        8697          STC   R0,APAF+NX2                                              45072021
 006382 47F0 FE58      06320        8698          BC    UNCOND,ADP058       BRANCH                               45078021
 006386 9140 DEB9      0C3F9        8699 ADP120   TM    APAF,XX40                                                45084021
 00638A 4780 FEE2      063AA        8700          BC    ZERO,ADP130         BRANCH                               45090021
 00638E 4950 B17A      0017A        8701          CH    R5,SBLCTR                                                45096021
 006392 4740 FF1E      063E6        8702          BC    LO,ADP140           YES, BRANCH                          45102021
 006396 4800 B17A      0017A        8703          LH    R0,SBLCTR                                                45108021
 00639A 5A00 D3F8      0B938        8704          A     R0,ONE                                                   45114021
 00639E 4000 B17A      0017A        8705          STH   R0,SBLCTR                                                45120021
 0063A2 4200 DEBB      0C3FB        8706          STC   R0,APAF+NX2                                              45126021
 0063A6 47F0 FE58      06320        8707          BC    UNCOND,ADP058       BRANCH                               45132021
 0063AA 4950 B20C      0020C        8708 ADP130   CH    R5,BLCTR                                                 45138021
 0063AE 4740 FF1E      063E6        8709          BC    LO,ADP140           YES, BRANCH                          45144021
 0063B2 4800 B20C      0020C        8710          LH    R0,BLCTR                                                 45150021
 0063B6 5A00 D3F8      0B938        8711          A     R0,ONE                                                   45156021
 0063BA 4000 B20C      0020C        8712          STH   R0,BLCTR                                                 45162021
 0063BE 4200 DEBB      0C3FB        8713          STC   R0,APAF+NX2                                              45168021
 0063C2 D700 D81E D81E 0BD5E 0BD5E  8714          XC    PMCI(LX1),PMCI               CLEAR PMCI            37352 45174021
 0063C8 D100 D81E D7A0 0BD5E 0BCE0  8715          MVN   PMCI(LX1),PCOUNT         MAJOR CDE OF PREV ITEM    37352 45180021
 0063CE 9504 D76F      0BCAF        8716          CLI   MCI,XX04                 IS CURRENT ITEM IN W.S.   37352 45186021
 0063D2 4770 FF1A      063E2        8717          BNE   ADP130A                  NO, BR                    37352 45192021
 0063D6 9500 D81E      0BD5E        8718          CLI   PMCI,XX00                IS PREV ITEM IN F.S.      37352 45198021
 0063DA 4770 FF1A      063E2        8719          BNE   ADP130A                   NO, BR                   37352 45204021
 0063DE 4200 DEC7      0C407        8720          STC   R0,FAPAF+NX2              RESET BLCTR IN FAPAF     37352 45210021
                             063E2  8721 ADP130A  EQU   *                                                  37352 45216021
 0063E2 47F0 FE58      06320        8722          BC    UNCOND,ADP058       BRANCH                               45222021
1PH20     IKFCBL20                                                                                              PAGE  204
-  LOC  OBJECT CODE    ADDR1 ADDR2  STMT   SOURCE STATEMENT                                       ASM 0201 11.03 02/14/15
00063E6 5A50 D3F8      0B938        8723 ADP140   A     R5,ONE              ITEM IS IN A REDEFINES SO COUNTE     45228021
 0063EA 4250 DEBB      0C3FB        8724          STC   R5,APAF+NX2           IS NOT INCREMENTED. ONLY K FIEL    45234021
 0063EE 47F0 FE58      06320        8725          BC    UNCOND,ADP058        IS INCREMENTED                      45240021
                                    8726 *                                                                       45246021
                                    8727 *  IN LINKAGE SECTION, EVERY 01 OR 77 ITEM GET A NEW BLLCTR ASSIGNE     45252021
                                    8728 *                                                                       45258021
 0063F2 9101 D60D      0BB4D        8729 ADP300   TM    MINCOD,XX01          IS CI SUBJECT OF REDEFINES.         45264021
 0063F6 4710 FE62      0632A        8730          BC    ONES,ADP060            YES,DO NOT ASSIGN ANOTHER BLL     45270021
 0063FA 9501 D688      0BBC8        8731          CLI   CILEV,XX01                                               45276021
 0063FE 4780 FF42      0640A        8732          BC    EQ,ADP310           BRANCH                               45282021
 006402 9532 D688      0BBC8        8733          CLI   CILEV,XX32                                               45288021
 006406 4770 FE12      062DA        8734          BC    NOTEQ,ADP050        BRANCH                               45294021
 00640A 9501 D5B9      0BAF9        8735 ADP310   CLI   NOADD,XX01           DON'T ASSIGN ANOTHER BLL NO IF      45300021
 00640E 4780 FE62      0632A        8736          BC    EQ,ADP060             DOING ALIGNMENT IN ELI5A           45306021
 006412 4810 B17E      0017E        8737          LH    R1,BLLCTR                                                45312021
 006416 9140 D5A1      0BAE1        8738          TM    LBLSW,XX40          IS THIS LABEL RECORD?                45318021
 00641A 4710 FFC8      06490        8739          BO    ADPLBL             YES.                                  45324021
 00641E 5830 DBA4      0C0E4        8740          L     R3,ATTLDTB         R3=A(TIB32)                           45330021
 006422 D502 3001 D3F4 00001 0B934  8741          CLC   DX1(LX3,R3),ZEROS                                        45336021
 006428 4780 FFA2      0646A        8742          BE    TLDTST3            YES, NO TABLE.                        45342021
 00642C 5833 0000      00000        8743          L     R3,DX0(R3)          NO, CHECK TAMM DISP FOR 0            45348021
 006430 D501 D3F4 3004 0B934 00004  8744          CLC   ZEROS(LX2),DX4(R3)                                       45354021
 006436 4780 FFA2      0646A        8745          BE    TLDTST3            DISP=0                                45360021
 00643A 9680 D5A4      0BAE4        8746          OI    PTBLSW+NX1,XX80     SET PRIMED TABLE SW ON.              45366021
 00643E 5843 0000      00000        8747          L     R4,DX0(R3)          R4=A(TABLE)---A(CURRENT ENTRY)       45372021
 006442 4863 0004      00004        8748          LH    R6,DX4(R3)                                               45378021
 006446 1A64                        8749          AR    R6,R4              R6=EOT                                45384021
 006448 D500 D5EC 4003 0BB2C 00003  8750 TLDTST1  CLC   NUMBCD(LX1),DX3(R4) NAME COUNT AGREE?                    45390021
 00644E 4770 FF98      06460        8751          BNE   TLDTST2            NO.                                   45396021
 006452 4350 D5EC      0BB2C        8752          IC    R5,NUMBCD          YES.                                  45402021
 006456 0650                        8753          BCTR  R5,R0               BRANCH                               45408021
 006458 4450 FFB6      0647E        8754          EX    R5,TLDCLC          COMPARE NAMES.                        45414021
 00645C 4780 FFBC      06484        8755          BE    TLDTST4            YES. TOTALED AREA.                    45420021
 006460 5A40 D44C      0B98C        8756 TLDTST2  A     R4,CON34                                                 45426021
 006464 1946                        8757          CR    R4,R6              ALL ENTRIES IN TABLE COMPARED.        45432021
 006466 47D0 FF80      06448        8758          BNH   TLDTST1             BRANCH                               45438021
 00646A 4810 DFA4      0C4E4        8759 TLDTST3  LH    R1,BLLSAVE         THIS IS NOT TTLD AREA                 45444021
 00646E 4111 0001      00001        8760          LA    R1,DX1(R1)                                               45450021
 006472 4010 B17E      0017E        8761          STH   R1,BLLCTR          UPDATE BLLCTR AND                     45456021
 006476 4010 DFA4      0C4E4        8762          STH   R1,BLLSAVE         BLLSAVE.                              45462021
 00647A 47F0 FFD0      06498        8763          B     ADP315              BRANCH                               45468021
 00647E D500 D5ED 4004 0BB2D 00004  8764 TLDCLC   CLC   BCDNAM(LX0),DX4(R4)                                      45474021
 006484                             8765 TLDTST4  DS    0H                                                       45480021
 006484 4110 0002      00002        8766          LA    R1,DX2              TOTALED AREA GETS BLL-2.             45486021
 006488 4010 B17E      0017E        8767          STH   R1,BLLCTR                                                45492021
 00648C 47F0 FFD0      06498        8768          B     ADP315              BRANCH                               45498021
 006490                             8769 ADPLBL   DS    0H                                                       45504021
 006490 4110 0001      00001        8770          LA    R1,DX1                                                   45510021
 006494 4010 B17E      0017E        8771          STH   R1,BLLCTR                                                45516021
 006498 D706 DEB9 DEB9 0C3F9 0C3F9  8772 ADP315   XC    APAF(LX7),APAF                                           45522021
 00649E 9610 DEB9      0C3F9        8773          OI    APAF,XX10            SET I-FIELD OF APAF TO INDICATE     45528021
 0064A2 4210 DEBB      0C3FB        8774          STC   R1,APAF+NX2             THAT ITEM IS IN LINKAGE SECTI    45534021
 0064A6 47F0 FE62      0632A        8775          BC    UNCOND,ADP060       GO TO FIND NEXT FD                   45540021
 0064AA 9501 D688      0BBC8        8776 ADP400   CLI   CILEV,XX01           LEVEL = 01.                         45546021
 0064AE 4770 FE12      062DA        8777          BC    NOTEQ,ADP050        BRANCH                               45552021
1PH20     IKFCBL20                                                                                              PAGE  205
-  LOC  OBJECT CODE    ADDR1 ADDR2  STMT   SOURCE STATEMENT                                       ASM 0201 11.03 02/14/15
00064B2 D206 DEB9 DECC 0C3F9 0C40C  8778 ADP410   MVC   APAF(LX7),SDAPAF                                         45558021
 0064B8 47F0 FE12      062DA        8779          BC    UNCOND,ADP050       BRANCH                               45564021
1PH20     IKFCBL20                                                                                              PAGE  206
-  LOC  OBJECT CODE    ADDR1 ADDR2  STMT   SOURCE STATEMENT                                       ASM 0201 11.03 02/14/15
0                                   8781 *=1   GROUP ITEM PROCESSING ROUTINE (GRIPR)                             45576021
                                    8782 *                                                                       45582021
                                    8783 *  GRIPR ROUTINE PROCESSES ALL CURRENT ITEMS THAT ARE GROUP ITEMS.      45588021
                                    8784 *        INPUT-- R0 ,CILEV HAS CI LEVEL NO.                             45594021
                                    8785 *                                                                       45600021
 0064C0                             8786 IKF209   CSECT                                                          45606021
                             064C0  8787        USING *,R15                                                      45612021
 0064C0 50E0 D9CC      0BF0C        8788 GRIPR    ST    R14,RS14A                                                45618021
 0064C4 9138 D676      0BBB6        8789          TM    ITMCLS,XX38          GROUP ITEM CANNOT HAVE VALUE CLA    45624021
 0064C8 4780 F0FC      065BC        8790          BC    ZERO,GRI010            CLAUSE IGNORED.                   45630021
 0064CC 95FF D5B7      0BAF7        8791          CLI   NXTLEV,XXFF                                              45636021
 0064D0 4780 F0FC      065BC        8792          BC    EQ,GRI010           BRANCH                               45642021
 0064D4 1B99                        8793          SR    R9,R9                      ROR                           45648021
 0064D6 4390 D676      0BBB6        8794          IC    R9,ITMCLS                                                45654021
 0064DA 8890 0003      00003        8795          SRL   R9,DX3               GET RID OF USAGE                    45660021
 0064DE 5490 D4C8      0BA08        8796          N     R9,MK3032           LOAD VALUE ONLY                      45666021
 0064E2 5990 D3F8      0B938        8797          C     R9,ONE              IS VALUE ALPHANUMERIC                45672021
 0064E6 4780 F070      06530        8798          BE    GRI002              YES                                  45678021
 0064EA 5990 D404      0B944        8799          C     R9,FOUR             FIGCON                               45684021
 0064EE 4780 F070      06530        8800          BE    GRI002              YES                                  45690021
 0064F2 5990 D408      0B948        8801          C     R9,FIVE             FIGCON ZERO                          45696021
 0064F6 4780 F070      06530        8802          BE    GRI002              YES                                  45702021
 0064FA 4540 F848      06D08        8803          BAL   R4,ERROR            CALL ERROR ROUTINE                   45708021
 0064FE 107F                        8804          DC    X'107F'                                                  45714021
 006500 5990 D410      0B950        8805          C     R9,SEVEN            VALUE IS SERIES                      45720021
 006504 4770 F0FC      065BC        8806          BNE   GRI010              NO                                   45726021
 006508 1B66                        8807          SR    R6,R6               YES, BYPASS                          45732021
 00650A 5870 D9F4      0BF34        8808          L     R7,BSAVE+NX28        MAKE SURE REG7 IS CORRECT           45738021
 00650E 4367 0001      00001        8809 GRI001   IC    R6,DX1(R7)           GET COUNT OF ENTRY                  45744021
 006512 58F0 DC88      0C1C8        8810          L     R15,ASRCHT                                               45750021
 006516 5850 DCB8      0C1F8        8811          L     R5,ACHNXT                                                45756021
 00651A 0535                        8812          BALR  R3,R5               GO BYPASS REST                       45762021
 00651C 58F0 DC10      0C150        8813          L     R15,AGRIPR                                               45768021
 006520 9110 7000      00000        8814          TM    DX0(R7),XX10         STILL VALUE THRU                    45774021
 006524 4710 F04E      0650E        8815          BO    GRI001              YES, GO GET NEXT                     45780021
 006528 5070 D9F4      0BF34        8816          ST    R7,BSAVE+NX28        CHANGE R7                           45786021
 00652C 47F0 F0FC      065BC        8817          B     GRI010              BRANCH                               45792021
 006530 9504 D76F      0BCAF        8818 GRI002   CLI   MCI,XX04             WORKING STORAGE                     45798021
 006534 4780 F08A      0654A        8819          BE    GRI003              YES                                  45804021
 006538 9506 D76F      0BCAF        8820          CLI   MCI,XX06             REPORT SECTION                      45810021
 00653C 4780 F08A      0654A        8821          BE    GRI003              YES                                  45816021
 006540 4540 F848      06D08        8822          BAL   R4,ERROR            CALL ERROR ROUTINE                   45822021
 006544 007D                        8823          DC    X'007D'             MSG 125                              45828021
 006546 47F0 F0FC      065BC        8824          B     GRI010              BRANCH                               45834021
 00654A 9101 D60D      0BB4D        8825 GRI003   TM    MINCOD,XX01          REDEFINES                           45840021
 00654E 4710 F0A6      06566        8826          BO    GRI004              YES, ERROR                           45846021
 006552 9102 D60D      0BB4D        8827          TM    MINCOD,XX02          OCCURS                              45852021
 006556 4710 F0F6      065B6        8828          BO    GRI008              YES, ERROR                           45858021
 00655A 9180 D677      0BBB7        8829          TM    ITMCLS+NX1,XX80      SUBJECT OF ODO                      45864021
 00655E 4780 F0B0      06570        8830          BZ    GRI005              NO                                   45870021
 006562 47F0 F0F6      065B6        8831          B     GRI008              YES, ERROR                           45876021
 006566 4540 F848      06D08        8832 GRI004   BAL   R4,ERROR            CALL ERROR ROUTINE                   45882021
 00656A 2077                        8833          DC    X'2077'                                                  45888021
 00656C 47F0 F0FC      065BC        8834          B     GRI010              BRANCH                               45894021
 006570 9120 D54B      0BA8B        8835 GRI005   TM    FES,XX20             ANY REDEFINES                       45900021
1PH20     IKFCBL20                                                                                              PAGE  207
-  LOC  OBJECT CODE    ADDR1 ADDR2  STMT   SOURCE STATEMENT                                       ASM 0201 11.03 02/14/15
0006574 4780 F0E6      065A6        8836          BZ    GRI006              NO                                   45906021
 006578 58A0 DABC      0BFFC        8837          L     R10,RDFPAR          YES, SEE IF SUBORDINATE              45912021
 00657C 58CA 0000      00000        8838          L     R12,DX0(R10)                                             45918021
 006580 58AC 0000      00000        8839          L     R10,DX0(R12)                                             45924021
 006584 54A0 D4C4      0BA04        8840          N     R10,MK0932                                               45930021
 006588 4AAC 0004      00004        8841          AH    R10,DX4(R12)                                             45936021
 00658C 5BA0 D424      0B964        8842          S     R10,TWELVE          POINT TO LAST ENTRY                  45942021
 006590 9500 A000      00000        8843          CLI   DX0(R10),XX00        ANY ENTRIES                         45948021
 006594 4780 F0E6      065A6        8844          BE    GRI006              NO                                   45954021
 006598 D500 D688 A000 0BBC8 00000  8845          CLC   CILEV(LX1),DX0(R10)                                      45960021
 00659E 47D0 F0E6      065A6        8846          BC    NOTHI,GRI006        NO                                   45966021
 0065A2 47F0 F0A6      06566        8847          B     GRI004              ERROR                                45972021
 0065A6 910E D60D      0BB4D        8848 GRI006   TM    MINCOD,XX0E                                              45978021
 0065AA 4770 F0F6      065B6        8849          BC    NOTZER,GRI008       BRH TO GI008, MSG 149                45984021
 0065AE 9631 DDD3      0C313        8850 GRI007   OI    GRPVAL,SWON         TURN SW ON                           45990021
 0065B2 47F0 F0FC      065BC        8851          B     GRI010              BRH, GET ADD OF LAST ENTRY           45996021
                                    8852 *                                                                       46002021
 0065B6 4540 F848      06D08        8853 GRI008   BAL   R4,ERROR            CALL ERROR ROUTINE                   46008021
 0065BA 2095                        8854          DC    X'2095'             MSG 149                              46014021
 0065BC 5890 DAD4      0C014        8855 GRI010   L     R9,GPARAM                                                46020021
 0065C0 58A9 0000      00000        8856          L     R10,DX0(R9)                                              46026021
 0065C4 589A 0000      00000        8857          L     R9,DX0(R10)          GET THE ADDRESS OF THE LAST ENTR    46032021
 0065C8 5490 D4C4      0BA04        8858          N     R9,MK0932              ON GROUP LENGTH STACK.            46038021
 0065CC 4A9A 0004      00004        8859          AH    R9,DX4(R10)                                              46044021
 0065D0 5B90 D444      0B984        8860          S     R9,CON24               R9 POINTS TO LGS.                 46050021
 0065D4 5090 DC6C      0C1AC        8861          ST    R9,LGS                                                   46056021
 0065D8 18A9                        8862 GRI011   LR    R10,R9              R10 POINTS TO GIG                    46062021
 0065DA 5BA0 D444      0B984        8863          S     R10,CON24                                                46068021
 0065DE D500 9014 D688 00014 0BBC8  8864          CLC   DX20(LX1,R9),CILEV                                       46074021
 0065E4 4740 F132      065F2        8865          BC    LO,GRI020           CI LEVEL IS GREATER,TRANSFER.        46080021
 0065E8 58F0 DC28      0C168        8866          L     R15,AXTEN           CALL XTEN ROUTINE                    46086021
 0065EC 05EF                        8867          BALR  R14,R15             GO TO XTEN ROUTINE                   46092021
 0065EE 58F0 DC10      0C150        8868          L     R15,AGRIPR                                               46098021
 0065F2 95FF D5B7      0BAF7        8869 GRI020   CLI   NXTLEV,XXFF          IS THIS THE LAST DUMMY ITEM.        46104021
 0065F6 4770 F14E      0660E        8870          BC    NOTEQ,GRI022        GO TO MAKE A GLS ENTRY               46110021
 0065FA 58F0 DC20      0C160        8871          L     R15,AADPAR                                               46116021
 0065FE 05EF                        8872          BALR  R14,R15             GO TO ASSIGN ADDRESSING PARAM        46122021
 006600 58F0 DC10      0C150        8873          L     R15,AGRIPR                                               46128021
 006604 980D D9D8      0BF18        8874          LM    R0,R13,BSAVE        THIS IS END OF PHASE                 46134021
 006608 58E0 D9D4      0BF14        8875          L     R14,RETURN          RETURN                               46140021
 00660C 07FE                        8876          BCR   UNCOND,R14            FROM HERE                          46146021
                                    8877 *                                                                       46152021
                                    8878 *  MAKE A GLS ENTRY.                                                    46158021
                                    8879 *                                                                       46164021
 00660E 45E0 F794      06C54        8880 GRI022   BAL   R14,INTVLC          SEE IF ITEM HAS OCCURS...DEP. ON     46170021
 006612 58F0 DC20      0C160        8881          L     R15,AADPAR          CALL ADPAR TO ASSIGN ADDR. PARAM     46176021
 006616 05EF                        8882          BALR  R14,R15             GO TO ASSIGN ADDRESSING PARAM        46182021
 006618 5810 DAD4      0C014        8883          L     R1,GPARAM                                                46188021
 00661C 58F0 DCE8      0C228        8884          L     R15,BINSRT                                               46194021
 006620 05EF                        8885          BALR  R14,R15             GO TO INSERT ROUTINE                 46200021
 006622 58F0 DC10      0C150        8886          L     R15,AGRIPR                                               46206021
 006626 9200 2000      00000        8887          MVI   DX0(R2),XX00                                             46212021
 00662A 1892                        8888          LR    R9,R2                                                    46218021
 00662C 18A9                        8889          LR    R10,R9                                                   46224021
 00662E 5BA0 D444      0B984        8890          S     R10,CON24           POINT TO PRIOR ENTRY                 46230021
1PH20     IKFCBL20                                                                                              PAGE  208
-  LOC  OBJECT CODE    ADDR1 ADDR2  STMT   SOURCE STATEMENT                                       ASM 0201 11.03 02/14/15
0006632 4820 D67C      0BBBC        8891          LH    R2,NOC                                                   46236021
 006636 4920 D3FA      0B93A        8892          CH    R2,ONE+NX2                                               46242021
 00663A 47D0 F190      06650        8893        BC    NOTHI,GRI025                OCCURS NOT MORE THAN ONCE      46248021
 00663E 1B22                        8894          SR    R2,R2                                                    46254021
 006640 4320 DEE8      0C428        8895          IC    R2,ALIGN                                                 46260021
 006644 5A20 D3F8      0B938        8896          A     R2,ONE                                                   46266021
 006648 4220 DEE8      0C428        8897          STC   R2,ALIGN                                                 46272021
 00664C 9680 9000      00000        8898          OI    DX0(R9),XX80         BOUNDARY ALIGNMENT NEEDED,          46278021
                                    8899 *                                                                       46284021
 006650 4320 D60D      0BB4D        8900 GRI025 IC R2,MINCOD                                                     46290021
 006654 4229 0001      00001        8901          STC   R2,DX1(R9)              MINCOD.                          46296021
 006658 D201 9002 D678 00002 0BBB8  8902          MVC   DX2(LX2,R9),CILGN        LENGTH.                         46302021
 00665E 9101 D612      0BB52        8903          TM    LEVNUM,XX01                                              46308021
 006662 4780 F1AE      0666E        8904          BC    ZERO,GRI026         BRANCH                               46314021
 006666 9601 9001      00001        8905          OI    DX1(R9),XX01                                             46320021
 00666A 47F0 F1B2      06672        8906          BC    UNCOND,GRI027       BRANCH                               46326021
                                    8907 *                                                                       46332021
 00666E 94FE 9001      00001        8908 GRI026   NI    DX1(R9),XXFE                                             46338021
 006672 D203 9004 D67A 00004 0BBBA  8909 GRI027   MVC   DX4(LX4,R9),OBJDIS    DISP IN OD2TBL, NOC                46344021
 006678 D201 9008 D5C7 00008 0BB07  8910          MVC   DX8(LX2,R9),CARDNO    CARD NUMBER                        46350021
 00667E D202 900A D681 0000A 0BBC1  8911          MVC   DX10(LX3,R9),OBJRED+NX1  DICT POINTER OF OBJ OF REDEF.   46356021
 006684 D202 900D D685 0000D 0BBC5  8912          MVC   DX13(LX3,R9),DICPNT+NX1  DICT POINTER OF THE ITEM.       46362021
 00668A D203 9010 D3F4 00010 0B934  8913          MVC   DX16(LX4,R9),ZEROS    INITIAL MAX LENGTH = 0.            46368021
 006690 D200 9014 D688 00014 0BBC8  8914          MVC   DX20(LX1,R9),CILEV       CI LEVEL NUMBER.                46374021
 006696 D202 9015 D60E 00015 0BB4E  8915          MVC   DX21(LX3,R9),ADDPAR   MOVE AADR. PARM. TO GPLSTK         46380021
 00669C D201 9018 DFD4 00018 0C514  8916          MVC   DX24(LX2,R9),NOIDNM   NO OF IDS AND KEYS                 46386021
 0066A2 D201 901A DFA0 0001A 0C4E0  8917          MVC   DX26(LX2,R9),IDDISP   START OF ENTRY IN TABLE            46392021
 0066A8 D201 901C DFA2 0001C 0C4E2  8918          MVC   DX28(LX2,R9),KEYDSP                                      46398021
 0066AE D200 9022 D771 00022 0BCB1  8919          MVC   DX34(LX1,R9),GUI      SAVE GROUP'S USAGE                 46404021
 0066B4 9131 DDD3      0C313        8920          TM    GRPVAL,SWON         VALUE ON GROUP                       46410021
 0066B8 4780 F280      06740        8921          BZ    GRI029              NO                                   46416021
 0066BC 9608 9000      00000        8922          OI    DX0(R9),XX08         YES, SET BIT ON                     46422021
 0066C0 9108 A000      00000        8923          TM    DX0(R10),XX08        VALUE ON LAST GROUP                 46428021
 0066C4 4780 F218      066D8        8924          BZ    GRI27A              NO                                   46434021
 0066C8 4540 F848      06D08        8925          BAL   R4,ERROR            YES, ERROR                           46440021
 0066CC 108C                        8926          DC    X'108C'             MSG 140                              46446021
 0066CE D700 DDD3 DDD3 0C313 0C313  8927          XC    GRPVAL(LX1),GRPVAL   TURN OFF SW                         46452021
 0066D4 47F0 F280      06740        8928          B     GRI029              GO OUT                               46458021
 0066D8 9120 D5A5      0BAE5        8929 GRI27A   TM    PTBLSW+NX2,XX20      TANLE PRIMED                        46464021
 0066DC 4710 F232      066F2        8930          BO    GRI028              YES                                  46470021
 0066E0 4110 DB5C      0C09C        8931          LA    R1,AVALGR                                                46476021
 0066E4 58F0 DCE4      0C224        8932          L     R15,BPRIME                                               46482021
 0066E8 05EF                        8933          BALR  R14,R15             GO PRIME TABEL                       46488021
 0066EA 58F0 DC10      0C150        8934          L     R15,AGRIPR                                               46494021
 0066EE 9620 D5A5      0BAE5        8935          OI    PTBLSW+NX2,XX20      SET PRIMED SW ON                    46500021
 0066F2 5810 DB5C      0C09C        8936 GRI028   L     R1,AVALGR                                                46506021
 0066F6 5811 0000      00000        8937          L     R1,DX0(R1)                                               46512021
 0066FA D201 901E 1004 0001E 00004  8938          MVC   DX30(LX2,R9),DX4(R1)  SAVE DISPL IN TABLE                46518021
 006700 1B66                        8939          SR    R6,R6                                                    46524021
 006702 4360 D6E6      0BC26        8940          IC    R6,LITVAL           COUNT OF LITERAL                     46530021
 006706 4106 0008      00008        8941          LA    R0,DX8(R6)           PLUS FIXED PORTION                  46536021
 00670A 5810 DB5C      0C09C        8942          L     R1,AVALGR                                                46542021
 00670E 58F0 DCE8      0C228        8943          L     R15,BINSRT                                               46548021
 006712 05EF                        8944          BALR  R14,R15             FIND WHERE TO INSERT                 46554021
 006714 58F0 DC10      0C150        8945          L     R15,AGRIPR                                               46560021
1PH20     IKFCBL20                                                                                              PAGE  209
-  LOC  OBJECT CODE    ADDR1 ADDR2  STMT   SOURCE STATEMENT                                       ASM 0201 11.03 02/14/15
0006718 9228 2000      00000        8946          MVI   DX0(R2),XX28         HEADER                              46566021
 00671C D202 2001 B149 00001 00149  8947          MVC   DX1(LX3,R2),LOCCTR+NX1 LOCATION COUNTER                  46572021
 006722 9120 D676      0BBB6        8948          TM    ITMCLS,XX20          FIGCON                              46578021
 006726 4710 F272      06732        8949          BO    GRI28A              YES                                  46584021
 00672A 9201 2004      00004        8950          MVI   DX4(R2),ANCODE                                           46590021
 00672E 47F0 F276      06736        8951          B     GRI28B              BRANCH TO INSERT LITERAL             46596021
 006732 92FF 2004      00004        8952 GRI28A   MVI   DX4(R2),XXFF        FIGCON                               46602021
 006736 4460 F342      06802        8953 GRI28B   EX    R6,VALMOV           INSERT LITERAL                       46608021
 00673A D700 DDD3 DDD3 0C313 0C313  8954          XC    GRPVAL(LX1),GRPVAL   TURN OFF SW                         46614021
 006740 9180 D677      0BBB7        8955 GRI029   TM    ITMCLS+NX1,XX80      IS ITEM SUBJECT OF ODO              46620021
 006744 4780 F28C      0674C        8956          BC    ZERO,GRI030         NO, BRANCH                           46626021
 006748 9620 9000      00000        8957          OI    DX0(R9),XX20         YES, SET ODO BIT IN GPLSTK          46632021
                                    8958 *                                                                       46638021
 00674C 9131 DDB4      0C2F4        8959 GRI030   TM    GRP88,SWON          88 UNDER GROUP                       46644021
 006750 4780 F2CE      0678E        8960          BZ    GRI031              NO                                   46650021
 006754 9604 9000      00000        8961          OI    DX0(R9),XX04         YES, TREAT LIKE VALTHRU             46656021
 006758 9180 D5A5      0BAE5        8962          TM    PTBLSW+NX2,XX80      TABLE PRIMED YET                    46662021
 00675C 4710 F2BA      0677A        8963          BO    GRI30A              YES                                  46668021
 006760 4110 DB4C      0C08C        8964          LA    R1,PVALTR                                                46674021
 006764 58F0 DCE4      0C224        8965          L     R15,BPRIME                                               46680021
 006768 05EF                        8966          BALR  R14,R15             GO TO PRIME ROUTINE                  46686021
 00676A 58F0 DC10      0C150        8967          L     R15,AGRIPR                                               46692021
 00676E 58E0 DCB4      0C1F4        8968          L     R14,AVALSR                                               46698021
 006772 50E0 DD64      0C2A4        8969          ST    R14,VALSAV          SET UP ADDRESSABILITY                46704021
 006776 9680 D5A5      0BAE5        8970          OI    PTBLSW+NX2,XX80      TURM SW ON                          46710021
 00677A 5810 DB4C      0C08C        8971 GRI30A   L     R1,PVALTR                                                46716021
 00677E 5811 0000      00000        8972          L     R1,DX0(R1)                                               46722021
 006782 D201 DD68 1004 0C2A8 00004  8973          MVC   VALDSP(LX2),DX4(R1)   SAVE DISPL IN TABLE                46728021
 006788 D201 9020 1004 00020 00004  8974          MVC   DX32(LX2,R9),DX4(R1)  SAVE DISPL IN TABLE                46734021
 00678E 9101 D677      0BBB7        8975 GRI031   TM    ITMCLS+NX1,ICLSYN    IS IT SYNCHRONIZED                  46740021
 006792 4780 F2DE      0679E        8976          BZ    GRI032              NO                                   46746021
 006796 9610 9000      00000        8977          OI    DX0(R9),XX10         SET BIT ON IN TABLE                 46752021
 00679A 9640 D611      0BB51        8978          OI    SYNCHR,XX40          SET BIT ON IN ATTRIBUTES            46758021
 00679E 18A9                        8979 GRI032   LR    R10,R9                                                   46764021
 0067A0 5BA0 D444      0B984        8980          S     R10,CON24           R10 POINTS TO PRIOR ENTRY            46770021
 0067A4 9110 A000      00000        8981          TM    DX0(R10),XX10        PREVIOUS GROUP SYNCHRONIZED         46776021
 0067A8 4780 F2F4      067B4        8982          BZ    GRI035              NO                                   46782021
 0067AC 9610 9000      00000        8983          OI    DX0(R9),XX10         YES, SET BITS ON                    46788021
 0067B0 9640 D611      0BB51        8984          OI    SYNCHR,XX40                                              46794021
 0067B4 9108 A000      00000        8985 GRI035   TM    DX0(R10),XX08        VALUE ON PREVIOUS GROUP             46800021
 0067B8 4780 F300      067C0        8986          BZ    GRI037              BR TO CHECK CI FOR ODO CLAUSE        46806021
 0067BC 9608 9000      00000        8987          OI    DX0(R9),XX08         YES, SET BIT ON                     46812021
 0067C0 9180 D677      0BBB7        8988 GRI037   TM    ITMCLS+NX1,XX80     DOES CI CONTAIN AN ODO CLAUSE ?      46818021
 0067C4 4780 F30C      067CC        8989          BZ    GRI040             NO- BRANCH.                           46824021
 0067C8 9601 9000      00000        8990          OI    DX0(R9),XX01        YES- SET BIT.                        46830021
 0067CC                             8991 GRI040   DS    0H                                                       46836021
 0067CC D200 DD00 DB7C 0C240 0C0BC  8992          MVC   ATRCNT(LX1),BCIPRM+NX4    DICTIONARY                     46842021
 0067D2 D203 DD04 D684 0C244 0BBC4  8993          MVC   PNTER(LX4),DICPNT                                        46848021
 0067D8 9210 DCFC      0C23C        8994          MVI   CICODE,XX10                                              46854021
 0067DC 9500 D468      0B9A8        8995          CLI   SRANO,XX00          SD SAME REC AREA NO. INDICATED ?     46860021
 0067E0 4780 F328      067E8        8996          BE    GRI040A             NO, BRANCH                           46866021
 0067E4 9601 D60C      0BB4C        8997          OI    COUNT,XX01          YES, SET LD OF SD BIT                46872021
 0067E8                             8998 GRI040A  DS    0H                                                       46878021
 0067E8 58F0 DBE0      0C120        8999          L     R15,AENTPT          LOAD ADD. OF ENTRY ACC               46884021
 0067EC 4110 DCFC      0C23C        9000          LA    R1,CIPARM                                                46890021
1PH20     IKFCBL20                                                                                              PAGE  210
-  LOC  OBJECT CODE    ADDR1 ADDR2  STMT   SOURCE STATEMENT                                       ASM 0201 11.03 02/14/15
00067F0 05EF                        9001          BALR  R14,R15             LNK TO ADDR IN REG 15                46896021
 0067F2 58F0 DC10      0C150        9002          L     R15,AGRIPR                                               46902021
 0067F6 D29F D780 D5EC 0BCC0 0BB2C  9003          MVC   PCI(LX160),CI              PCI = CI                      46908021
 0067FC 58E0 D9CC      0BF0C        9004 GRI050   L     R14,RS14A                                                46914021
 006800 07FE                        9005          BCR   UNCOND,R14          EXIT                                 46920021
                                    9006 *                                                                       46926021
 006802 D200 2007 D6E6 00007 0BC26  9007 VALMOV   MVC   DX7(LX0,R2),LITVAL                                       46932021
1PH20     IKFCBL20                                                                                              PAGE  211
-  LOC  OBJECT CODE    ADDR1 ADDR2  STMT   SOURCE STATEMENT                                       ASM 0201 11.03 02/14/15
0                                   9009 *=1   ELEMENTARY ITEM PROCESSING ROUTINE (ELIPR)                        46944021
                                    9010 *                                                                       46950021
                                    9011 *  ELIPR ROUTINE PROCESSES ALL CURRENT ITEMS (CI) WHICH ARE ELEMENT     46956021
                                    9012 *                                                                       46962021
 006808 908F D9AC      0BEEC        9013 ELIPR    STM   R8,R15,RS8                                               46968021
 00680C 58F0 DC10      0C150        9014          L     R15,AGRIPR                                               46974021
 006810 50E0 D9CC      0BF0C        9015          ST    R14,RS14A                                                46980021
 006814 5890 DAD4      0C014        9016 ELI000   L     R9,GPARAM                                                46986021
 006818 58A9 0000      00000        9017          L     R10,DX0(R9)          GET THE ADDRESS OF GLS.             46992021
 00681C 589A 0000      00000        9018          L     R9,DX0(R10)                                              46998021
 006820 5490 D4C4      0BA04        9019          N     R9,MK0932                                                47004021
 006824 5090 DF3C      0C47C        9020          ST    R9,MTEMP1           SAVE BEGINNING ADDRESS OF GLSTK      47010021
 006828 4A9A 0004      00004        9021          AH    R9,DX4(R10)                                              47016021
 00682C 5B90 D444      0B984        9022          S     R9,CON24            R9 POINTS TO LAST ENTRY OF GLS.      47022021
 006830 5090 DC6C      0C1AC        9023          ST    R9,LGS                                                   47028021
 006834 9110 9000      00000        9024          TM    DX0(R9),XX10         IS GROUP SYNCHRONIZED               47034021
 006838 4780 F384      06844        9025          BZ    ELI004              NO, BRANCH                           47040021
 00683C 9601 D677      0BBB7        9026          OI    ITMCLS+NX1,ICLSYN    YES, SET BIT ON                     47046021
 006840 47F0 F394      06854        9027          B     ELI005              GO COMPARE LEVEL NUMBERS             47052021
 006844 9101 D677      0BBB7        9028 ELI004   TM    ITMCLS+NX1,ICLSYN                                        47058021
 006848 4780 F394      06854        9029          BZ    ELI005              NO                                   47064021
 00684C 9620 9000      00000        9030          OI    DX0(R9),XX20         YES, SET GPLSTK BIT ON              47070021
 006850 9640 D611      0BB51        9031          OI    SYNCHR,XX40         SET SYNC BIT                         47076021
 006854 D500 D688 9014 0BBC8 00014  9032 ELI005   CLC   CILEV(LX1),DX20(R9)   COMPARE LEVEL NUMBERS              47082021
 00685A 4720 F3A8      06868        9033          BC    HI,ELI010           GO SEE IF BOUNDARY ALIGN NEEDED      47088021
 00685E 58F0 DC28      0C168        9034          L     R15,AXTEN                                                47094021
 006862 05EF                        9035          BALR  R14,R15             GO PROCESS GLS                       47100021
 006864 58F0 DC10      0C150        9036          L     R15,AGRIPR                                               47106021
                                    9037 *                                                                       47112021
                                    9038 *  IS BOUNDARY ALIGNMENT NECESSARY.                                     47118021
                                    9039 *                                                                       47124021
 006868 D600 9022 D771 00022 0BCB1  9040 ELI010   OC    DX34(LX1,R9),GUI                                         47130021
 00686E 9140 D676      0BBB6        9041          TM    ITMCLS,XX40          JUSTIFIED CLAUSE                    47136021
 006872 4780 F3BA      0687A        9042          BZ    ELI10B              NO                                   47142021
 006876 9608 9022      00022        9043          OI    DX34(R9),XX08        SET JUSTIFIED BIT ON                47148021
 00687A 9108 9000      00000        9044 ELI10B   TM    DX0(R9),XX08         VALUE ON GROUP                      47154021
 00687E 4780 F3D4      06894        9045          BZ    ELI10A              NO                                   47160021
 006882 9138 D676      0BBB6        9046          TM    ITMCLS,XX38          VALUE SPECIFIED                     47166021
 006886 4780 F3D4      06894        9047          BZ    ELI10A              NO                                   47172021
 00688A 4540 F848      06D08        9048          BAL   R4,ERROR            YES, ERROR                           47178021
 00688E 208C                        9049          DC    X'208C'             MSG 140                              47184021
 006890 94C7 D676      0BBB6        9050          NI    ITMCLS,XXC7          TURN OFF VALUE CLAUSE               47190021
 006894 9501 D688      0BBC8        9051 ELI10A   CLI   CILEV,XX01           IS THIS 01                          47196021
 006898 4770 F414      068D4        9052          BC    NOTEQ,ELI015        SEE IF CI REDF OR IN REDFS GRP       47202021
 00689C 9101 D677      0BBB7        9053          TM    ITMCLS+NX1,ICLSYN    SYNC                                47208021
 0068A0 4780 F3E8      068A8        9054          BZ    ELI10C              NO                                   47214021
 0068A4 9640 D611      0BB51        9055          OI    SYNCHR,XX40          YES, SET BIT ON                     47220021
 0068A8 9140 D5A1      0BAE1        9056 ELI10C   TM    LBLSW,XX40           LABEL RECORD                        47226021
 0068AC 4710 F4C0      06980        9057          BO    ELILBL1             BOUNDARY ALIGN NOT NEEDED            47232021
 0068B0 4810 D678      0BBB8        9058          LH    R1,CILGN            CHECK MAX.-MIN.. REC. LGN.           47238021
 0068B4 5410 D4E0      0BA20        9059          N     R1,MK1732           R1= 01 RECORD LENGTH (HALF WORD)     47244021
 0068B8 5510 DEB0      0C3F0        9060          CL    R1,MAXIM            IS R1 G.T. CURRENT MAX. REC. LGN     47250021
 0068BC 47D0 F404      068C4        9061          BC    NOTHI,ELI011        NO, BRANCH                           47256021
 0068C0 5010 DEB0      0C3F0        9062          ST    R1,MAXIM            YES, R1= NEW MAX. REC. LGN.          47262021
 0068C4 5510 DEB4      0C3F4        9063 ELI011   CL    R1,MINIM            IS R1 L.T. CURRENT MIN. REC. LGN     47268021
1PH20     IKFCBL20                                                                                              PAGE  212
-  LOC  OBJECT CODE    ADDR1 ADDR2  STMT   SOURCE STATEMENT                                       ASM 0201 11.03 02/14/15
00068C8 47B0 F4D4      06994        9064          BC    NOTLO,ELI020        NO, BRANCH                           47274021
 0068CC 5010 DEB4      0C3F4        9065          ST    R1,MINIM            YES, R1= NEW MIN. REC. LGN.          47280021
 0068D0 47F0 F4D4      06994        9066          BC    UNCOND,ELI020       BRANCH                               47286021
                                    9067 *                                                                  0026 47292021
                                    9068 *  DETERMINE IF CI  REDEFINES OR IN A REDEFINING GROUP.            0026 47298021
                                    9069 *                                                                  0026 47304021
 0068D4 9101 D60D      0BB4D        9070 ELI015   TM    MINCOD,XX01    IS ITEM SUBJ OF REDEFINES             002 47310021
 0068D8 4780 F420      068E0        9071          BC    ZERO,ELI151   NO,CHECK IF  SUBORDINATE TO REDEF.    0026 47316021
 0068DC 9620 DDD2      0C312        9072          OI    ITMCL3,XX20      ES,TURN ON SUBJ REDEF BIT           002 47322021
 0068E0 9120 D54B      0BA8B        9073 ELI151   TM    FES,XX20        IS RDFSTK PRIMES                     002 47328021
 0068E4 4780 F47C      0693C        9074          BC    ZERO,ELI153    NO, THEREFORE  NO  ENTRIES.          0026 47334021
 0068E8 5840 DABC      0BFFC        9075          L     R4,RDFPAR      YES,                                 0026 47340021
 0068EC 5854 0000      00000        9076          L     R5,DX0(R4)         GET POINTER                       002 47346021
 0068F0 5845 0000      00000        9077          L     R4,DX0(R5)           TO                              002 47352021
 0068F4 5440 D4C4      0BA04        9078          N      R4,MK0932            LAST                          0026 47358021
 0068F8 4A45 0004      00004        9079          AH    R4,DX4(R5)               ENTRY IN                    002 47364021
 0068FC 5B40 D424      0B964        9080          S      R4,TWELVE                RDFSTK.                   0026 47370021
 006900 9500 4000      00000        9081          CLI   DX0(R4),XX00    IS LAST ENTRY DELETED                002 47376021
 006904 4780 F47C      0693C        9082          BC    EQ,ELI153      YES,DELETED                          0026 47382021
 006908 D500 D688 4000 0BBC8 00000  9083          CLC   CILEV(LX1),DX0(R4) IS CI LEVEL GREATER                 0 47388021
 00690E 4720 F478      06938        9084          BH    ELI152        CI HI  SO SUBORDINATE                 0026 47394021
 006912 4740 F45E      0691E        9085          BL    ELI15B        CI  LO  SO RDFSTK NEEDS CLEARING      0026 47400021
 006916 9120 DDD2      0C312        9086          TM    ITMCL3,XX20          IS CI SUBJ OF RDF               002 47406021
 00691A 4710 F47C      0693C        9087          BO    ELI153        YES,GO TO CHECK ALIGNMENT             0026 47412021
 00691E 9602 D5AE      0BAEE        9088 ELI15B   OI    XTNSBL,XX02    SET SWITCHES  AND                     002 47418021
 006922 9201 D5B9      0BAF9        9089          MVI   NOADD,XX01         CALL  ADDPAR                      002 47424021
 006926 58F0 DC20      0C160        9090          L     R15,AADPAR        TO  CLEAN OUT RDFSTK              0026 47430021
 00692A 05EF                        9091          BALR  R14,R15           DOWN TO CURRENT LEVEL.            0026 47436021
 00692C 58F0 DC10      0C150        9092          L     R15,AGRIPR    RESET  BASE   REG.                    0026 47442021
 006930 9200 D5B9      0BAF9        9093          MVI   NOADD,XX00     RESET SWITCH FOR AADPAR.              002 47448021
 006934 47F0 F420      068E0        9094          BC    UNCOND,ELI151     CHECK RDFSTK AGAIN.               0026 47454021
 006938 9610 DDD2      0C312        9095 ELI152   OI    ITMCL3,XX10    SET  SUB TO GRP RDF SWITCH.           002 47460021
 00693C 1B22                        9096 ELI153   SR    R2,R2           CLEAR OUT R2                        0026 47466021
 00693E 9101 D677      0BBB7        9097          TM    ITMCLS+NX1,ICLSYN    SYNCHRONIZED                    002 47472021
 006942 4780 F4D4      06994        9098          BZ    ELI020              NO, ALIGNMENT NOT NEEDED             47478021
 006946 1B22                        9099          SR    R2,R2                                                    47484021
 006948 4320 D60D      0BB4D        9100          IC    R2,MINCOD                                                47490021
 00694C 8820 0004      00004        9101          SRL   R2,DX4(R0)          LEAVE MINCOD IN LOW ORDER 4 BITS.    47496021
 006950 5520 D410      0B950        9102          CL    R2,SEVEN            USAGE IS INDEX                 45694 47502021
 006954 4780 F4A8      06968        9103          BE    ELI153A            YES, BRANCH                     45694 47508021
 006958 5520 D418      0B958        9104          CL    R2,NINE                                                  47514021
 00695C 47D0 F4D4      06994        9105          BC    NOTHI,ELI020           ALIGNMENT NOT NEEDED.             47520021
 006960 5520 D420      0B960        9106          CL    R2,ELEVEN                                                47526021
 006964 4720 F4D4      06994        9107          BC    HI,ELI020           ALIGNMENT NOT NEEDED.                47532021
 006968                             9108 ELI153A  DS    0H                                                 45694 47538021
 006968 9640 D611      0BB51        9109          OI    SYNCHR,XX40          SET BIT ON                          47544021
 00696C 58F0 DC08      0C148        9110 ELI016   L     R15,AIRSBT                                               47550021
 006970 05EF                        9111          BALR  R14,R15             SEE IF SLACK BYTES NEEDED            47556021
 006972 58F0 DC10      0C150        9112          L     R15,AGRIPR                                               47562021
 006976 58F0 DBB4      0C0F4        9113          L     R15,ARDF10                                               47568021
 00697A 05EF                        9114          BALR  R14,R15             GET ADDRESS OF LGS                   47574021
 00697C 58F0 DC10      0C150        9115          L     R15,AGRIPR                                               47580021
                                    9116 *                                                                       47586021
                                    9117 *  BOUNDARY ALIGNMENT NOT NEEDED.                                       47592021
                                    9118 *                                                                       47598021
1PH20     IKFCBL20                                                                                              PAGE  213
-  LOC  OBJECT CODE    ADDR1 ADDR2  STMT   SOURCE STATEMENT                                       ASM 0201 11.03 02/14/15
0006980 4810 D678      0BBB8        9119 ELILBL1  LH    R1,CILGN                                                 47604021
 006984 5510 DEAC      0C3EC        9120          CL    R1,LBLMAX                                                47610021
 006988 4740 F4D4      06994        9121          BL    ELI020              RESTORE @ OF LGS AFTER ACCS RTN      47616021
 00698C 5010 DEAC      0C3EC        9122          ST    R1,LBLMAX                                                47622021
 006990 47F0 F4D4      06994        9123          B     ELI020              BRANCH                               47628021
 006994 D700 DFBB DFBB 0C4FB 0C4FB  9124 ELI020   XC    RDFSW(LX1),RDFSW     TURN OFF SW IF ON                   47634021
 00699A 45E0 F794      06C54        9125          BAL   R14,INTVLC          SEE IF ITEM HAS ODO                  47640021
 00699E 58F0 DC20      0C160        9126          L     R15,AADPAR          CALL ADPAR TO ASSIGN ADDR. PARAM     47646021
 0069A2 05EF                        9127          BALR  R14,R15             GO ASSIGN ADDR PARAM                 47652021
 0069A4 58F0 DC10      0C150        9128          L     R15,AGRIPR                                               47658021
 0069A8 9500 D5EC      0BB2C        9129          CLI   NUMBCD,XX00         FILLER IS NOT ENTERED INTO DICTIO    47664021
 0069AC 4780 F532      069F2        9130          BC    EQ,ELI24A           SEE IF CI IS AN OCCURS               47670021
 0069B0 D200 DD00 DB7C 0C240 0C0BC  9131 ELI02A   MVC   ATRCNT(LX1),BCIPRM+NX4 MOVE ATTRIBUTE LENGTH TO PARAM    47676021
 0069B6 D203 DD04 D684 0C244 0BBC4  9132          MVC   PNTER(LX4),DICPNT    MOVE DICT POINTER TO PARAMETER.     47682021
 0069BC 9210 DCFC      0C23C        9133          MVI   CICODE,XX10                                              47688021
 0069C0 9500 D468      0B9A8        9134          CLI   SRANO,XX00          SD SAME REC AREA NO. INDICATED ?     47694021
 0069C4 4780 F50C      069CC        9135          BE    ELI02A1             NO, BRANCH                           47700021
 0069C8 9601 D60C      0BB4C        9136          OI    COUNT,XX01          YES, SET LD OF SD BIT                47706021
 0069CC                             9137 ELI02A1  DS    0H                                                       47712021
 0069CC 4110 DCFC      0C23C        9138          LA    R1,CIPARM                                                47718021
 0069D0 58F0 DBE0      0C120        9139          L     R15,AENTPT          ENTER CI IN DICTIONARY.              47724021
 0069D4 05EF                        9140          BALR  R14,R15             BRANCH                               47730021
 0069D6 58F0 DC10      0C150        9141          L     R15,AGRIPR                                               47736021
 0069DA D29F D780 D5EC 0BCC0 0BB2C  9142 ELI02B   MVC   PCI(LX160),CI              PCI = CI                      47742021
 0069E0 58F0 DC5C      0C19C        9143          L     R15,AELIOD          CALL ELIODO TO SEE IF ELEMENTARY     47748021
 0069E4 05EF                        9144          BALR  R14,R15              ITEM IS AN ODO VARIABLE             47754021
 0069E6 58F0 DC10      0C150        9145          L     R15,AGRIPR                                               47760021
 0069EA 9101 D60D      0BB4D        9146          TM    MINCOD,XX01          IS CI A REDEFINES.                  47766021
 0069EE 4710 F67A      06B3A        9147          BC    ONES,ELI080         YES, BRANCH                          47772021
                             069F2  9148 ELI021   EQU   *                                                        47778021
 0069F2 9102 D60D      0BB4D        9149 ELI24A   TM    MINCOD,XX02          IS CI AN OCCURS.                    47784021
 0069F6 4710 F658      06B18        9150          BC    ONES,ELI050            YES                               47790021
 0069FA 9180 D677      0BBB7        9151 ELI24B   TM    ITMCLS+NX1,XX80      IS CI AN OCCURS-DEPEND-ON.          47796021
 0069FE 4710 F6A4      06B64        9152          BC    ONES,EDEF4             YES.                              47802021
 006A02 9138 D676      0BBB6        9153          TM    ITMCLS,XX38          IS VALUE CLAUSE GIVEN.              47808021
 006A06 4780 F59C      06A5C        9154          BC    ZERO,ELI025         BRANCH                               47814021
 006A0A 9532 D688      0BBC8        9155          CLI   CILEV,XX32    IS ITEM A 77                         06660 47820021
 006A0E 4780 F592      06A52        9156          BC    EQ,ELI24E     YES- DON'T CHECK REDEF               06660 47826021
 006A12 9130 DDD2      0C312        9157          TM    ITMCL3,XX30                                          002 47832021
 006A16 4780 F564      06A24        9158          BC    ZERO,ELI24C            OR IS SUBJECT OF REDEF, VALUE     47838021
 006A1A 4540 F848      06D08        9159          BAL   R4,ERROR            DROP VALUE CLAUSE                    47844021
 006A1E 2077                        9160          DC    X'2077'             119                                  47850021
 006A20 47F0 F59C      06A5C        9161          BC    UNCOND,ELI025       BRANCH                               47856021
                             06A24  9162 ELI24C   EQU   *                                                  06660 47862021
                                    9163 *DEL                                                                    47868021
 006A24 58F0 DBB4      0C0F4        9164          L     R15,ARDF10                                               47874021
 006A28 05EF                        9165          BALR  R14,R15             GET ADDRESS OF LGS                   47880021
 006A2A 58F0 DC10      0C150        9166          L     R15,AGRIPR                                               47886021
 006A2E 910C 9001      00001        9167          TM    DX1(R9),XX0C              ANY  OCCURRING GROUP       941 47892021
 006A32 4780 F580      06A40        9168          BC    ZERO,ELI24D        NO OK BRANCH AROUND ERROR        9418 47898021
 006A36 4540 F848      06D08        9169          BAL   R4,ERROR            YES, ERROR                           47904021
 006A3A 2095                        9170          DC    X'2095'             149                                  47910021
 006A3C 47F0 F59C      06A5C        9171          BC    UNCOND,ELI025       BRANCH                               47916021
 006A40 9101 DFE9      0C529        9172 ELI24D   TM    GNSW,XX01            IS VALUE CLAUSE IN VARIABLE PART    47922021
 006A44 47E0 F592      06A52        9173          BC    NOTONE,ELI24E        OF RECORD                           47928021
1PH20     IKFCBL20                                                                                              PAGE  214
-  LOC  OBJECT CODE    ADDR1 ADDR2  STMT   SOURCE STATEMENT                                       ASM 0201 11.03 02/14/15
0006A48 4540 F848      06D08        9174          BAL   R4,ERROR            YES                                  47934021
 006A4C 2096                        9175          DC    X'2096'             150                                  47940021
 006A4E 47F0 F59C      06A5C        9176          BC    UNCOND,ELI025       BRANCH                               47946021
 006A52 58F0 DC04      0C144        9177 ELI24E   L     R15,AVALGN                                               47952021
 006A56 05EF                        9178          BALR  R14,R15             PROCESS VALUE CLAUSE                 47958021
 006A58 58F0 DC10      0C150        9179          L     R15,AGRIPR                                               47964021
 006A5C 48C0 D678      0BBB8        9180 ELI025   LH    R12,CILGN                                                47970021
 006A60 54C0 D4E0      0BA20        9181          N     R12,MK1732          STOP SIGN BIT PROPAGATION IF ANY     47976021
 006A64 181C                        9182 ELI026   LR    R1,R12              R1,R12 BOTH HAVE CILGN               47982021
 006A66 5AC0 DEBC      0C3FC        9183          A     R12,DISP            DISP = DISP + CI LENGTH.             47988021
 006A6A 18A1                        9184          LR    R10,R1                                                   47994021
 006A6C 50C0 DEBC      0C3FC        9185          ST    R12,DISP            STORE UPDATED LENGTH IN DISP.        48000021
 006A70 9110 DEB9      0C3F9        9186          TM    APAF,XX10                                                48006021
 006A74 4710 F5C8      06A88        9187          BC    ONES,ELI030       SORT DISCRIPTION, NO STORAGE SAVED     48012021
 006A78 9505 D76F      0BCAF        9188          CLI   MCI,XX05             IS ITEM IN LINKAGE SECTION          48018021
 006A7C 4780 F5C8      06A88        9189          BE    ELI030              YES, DON'T ADD TO LOCCTR             48024021
 006A80 5AA0 B148      00148        9190          A     R10,LOCCTR                                               48030021
 006A84 50A0 B148      00148        9191          ST    R10,LOCCTR                                               48036021
 006A88 D503 DEBC D478 0C3FC 0B9B8  9192 ELI030   CLC   DISP(LX4),CO4096                                         48042021
 006A8E 4740 F5E0      06AA0        9193          BL    ELI035              LOWER THAN 4096                57835 48048021
 006A92 58F0 DC24      0C164        9194          L     R15,AADP49          BRANCH TO ADPAR FOR DISP GT 4096     48054021
 006A96 05EF                        9195          BALR  R14,R15             BRANCH                               48060021
 006A98 58F0 DC10      0C150        9196          L     R15,AGRIPR                                               48066021
 006A9C 47F0 F5EC      06AAC        9197          BC    UNCOND,ELI038       BRANCH                               48072021
                                    9198 *                                                                       48078021
 006AA0 D200 DEBA DEBF 0C3FA 0C3FF  9199 ELI035   MVC   APAF+NX1(LX1),DISP+NX3                                   48084021
 006AA6 D100 DEB9 DEBE 0C3F9 0C3FE  9200          MVN   APAF(LX1),DISP+NX2                                       48090021
 006AAC 18A1                        9201 ELI038   LR    R10,R1                                                   48096021
 006AAE 9504 D76F      0BCAF        9202          CLI   MCI,XX04             IF IN WK-STORAGE SECT, ADD TO DS    48102021
 006AB2 4770 F5FE      06ABE        9203          BC    NOTEQ,ELI040        BRANCH                               48108021
 006AB6 5A10 DE90      0C3D0        9204          A     R1,DS               DS = DS + CI LENGTH.                 48114021
 006ABA 5010 DE90      0C3D0        9205          ST    R1,DS                                                    48120021
 006ABE 58E0 D9CC      0BF0C        9206 ELI040   L     R14,RS14A                                                48126021
 006AC2 9532 D688      0BBC8        9207          CLI   CILEV,XX32                                               48132021
 006AC6 078E                        9208          BCR   EQ,R14              BRANCH                               48138021
 006AC8 9101 D60D      0BB4D        9209          TM    MINCOD,XX01          IF REDEFINES, BRANCH                48144021
 006ACC 4710 F64A      06B0A        9210          BC    ONES,ELI046         BRANCH                               48150021
 006AD0 186A                        9211 ELI045   LR    R6,R10                                                   48156021
 006AD2 58F0 DBB4      0C0F4        9212          L     R15,ARDF10                                               48162021
 006AD6 05EF                        9213          BALR  R14,R15             GET ADDRESS OF LGS                   48168021
 006AD8 58F0 DC10      0C150        9214          L     R15,AGRIPR                                               48174021
 006ADC 58E0 D9CC      0BF0C        9215          L     R14,RS14A                                                48180021
 006AE0 18A6                        9216          LR    R10,R6                                                   48186021
 006AE2 9140 9001      00001        9217          TM    DX1(R9),VLC          IS VLC ASSIGNED FOR LGS.            48192021
 006AE6 4710 F6E4      06BA4        9218          BC    ONES,EDEF6             YES                               48198021
 006AEA 5869 0000      00000        9219          L     R6,DX0(R9)           ADD LENGTH TO LGS.                  48204021
 006AEE 5460 D4E8      0BA28        9220          N     R6,MK1632                                                48210021
 006AF2 1A6A                        9221          AR    R6,R10                                                   48216021
 006AF4 5060 DF38      0C478        9222          ST    R6,MTEMP                                                 48222021
 006AF8 D201 9002 DF3A 00002 0C47A  9223          MVC   DX2(LX2,R9),MTEMP+NX2                                    48228021
 006AFE 9101 DF39      0C479        9224          TM    MTEMP+NX1,XX01                                           48234021
 006B02 078E                        9225          BCR   ZERO,R14            BRANCH                               48240021
 006B04 9601 9001      00001        9226          OI    DX1(R9),XX01                                             48246021
 006B08 07FE                        9227          BCR   UNCOND,R14          EXIT.                                48252021
 006B0A 9108 D677      0BBB7        9228 ELI046   TM    ITMCLS+NX1,XX08      REDEFINES IN REPORT SECTION         48258021
1PH20     IKFCBL20                                                                                              PAGE  215
-  LOC  OBJECT CODE    ADDR1 ADDR2  STMT   SOURCE STATEMENT                                       ASM 0201 11.03 02/14/15
0006B0E 071E                        9229          BCR   ONES,R14            YES, EXIT                            48264021
 006B10 58A0 DF5C      0C49C        9230          L     R10,REDDIF          ADD DIFF. OF RED. SUBJ. AND RED.     48270021
 006B14 47F0 F610      06AD0        9231          BC    UNCOND,ELI045        OBJ. IF FORMER IS LARGER            48276021
 006B18 48C0 D678      0BBB8        9232 ELI050   LH    R12,CILGN           GET CILGN * NOC                      48282021
 006B1C 4CC0 D67C      0BBBC        9233          MH    R12,NOC                                                  48288021
                                    9234 *                                                                       48294021
 006B20 9180 D677      0BBB7        9235          TM    ITMCLS+NX1,XX80      IS CI AN OCCURS-DEPEND-ON.          48300021
 006B24 4710 F6A4      06B64        9236          BC    ONES,EDEF4          BRANCH                               48306021
 006B28 9138 D676      0BBB6        9237 ELI060   TM    ITMCLS,XX38          IS VALUE CLAUSE PRESENT             48312021
 006B2C 4780 F5A4      06A64        9238          BC    ZERO,ELI026         BRANCH                               48318021
 006B30 4540 F848      06D08        9239          BAL   R4,ERROR            YES, ERROR                           48324021
 006B34 2095                        9240          DC    X'2095'             149                                  48330021
 006B36 47F0 F5A4      06A64        9241          BC    UNCOND,ELI026       BRH TO ELI026                        48336021
 006B3A 9138 D676      0BBB6        9242 ELI080   TM    ITMCLS,XX38          IS VALUE CLAUSE GIVEN               48342021
 006B3E 4780 F690      06B50        9243          BC    ZERO,ELI80A         NO                                   48348021
 006B42 9108 D677      0BBB7        9244          TM    ITMCLS+NX1,XX08      SUPPRESS ERROR MESSAGE IF REDEFI    48354021
 006B46 4710 F690      06B50        9245          BC    ONES,ELI80A            IS IN REPORT SECTION.             48360021
 006B4A 4540 F848      06D08        9246          BAL   R4,ERROR            DROP VALUE CLAUSE                    48366021
 006B4E 2077                        9247          DC    X'2077'             119                                  48372021
 006B50 48C0 D678      0BBB8        9248 ELI80A   LH    R12,CILGN                                                48378021
 006B54 9102 D60D      0BB4D        9249          TM    MINCOD,XX02                                              48384021
 006B58 4780 F6A0      06B60        9250          BC    ZERO,ELI081         BRANCH                               48390021
 006B5C 4CC0 D67C      0BBBC        9251          MH    R12,NOC                                                  48396021
 006B60 47F0 F5A4      06A64        9252 ELI081   BC    UNCOND,ELI026       BRANCH                               48402021
 006B64 D201 D900 D67A 0BE40 0BBBA  9253 EDEF4    MVC   FULLWD(LX2),OBJDIS   MOVE OD2TBL PTR TO FULLWD           48408021
 006B6A D201 D599 D67C 0BAD9 0BBBC  9254          MVC   ODOMAX(LX2),NOC      MOVE NOC OF CI TO ODOMAX            48414021
 006B70 45E0 F722      06BE2        9255          BAL   R14,UPDN            BRANCH                               48420021
 006B74 58F0 DBB4      0C0F4        9256          L     R15,ARDF10                                               48426021
 006B78 05EF                        9257          BALR  R14,R15             GET ADDRESS OF LGS                   48432021
 006B7A 58F0 DC10      0C150        9258          L     R15,AGRIPR                                               48438021
 006B7E D204 D960 D55E 0BEA0 0BA9E  9259          MVC   QTEXT(LX5),UPDTOP         MOVE UPDATE MASK TO QTEXT      48444021
 006B84 D201 D961 D678 0BEA1 0BBB8  9260          MVC   QTEXT+NX1(LX2),CILGN  FILL IN LITERAL AND                48450021
 006B8A D201 D965 9002 0BEA5 00002  9261          MVC   QTEXT+NX5(LX2),DX2(R9)  VLC= OF LGS                      48456021
 006B90 4130 0007      00007        9262          LA    R3,DX7                                                   48462021
 006B94 45E0 F83A      06CFA        9263          BAL   R14,PUTQRN          PUT OUT Q-RTN TEXT                   48468021
 006B98 47F0 F668      06B28        9264          BC    UNCOND,ELI060       SEE IF VALUE CLAUSE PRESENT          48474021
 006B9C 58F0 D420      0B960        9265 EDEF5    L     R15,ELEVEN                                               48480021
 006BA0 47F0 F848      06D08        9266          B     ERROR               BRANCH TO ERROR ROUTINE              48486021
 006BA4 5869 0010      00010        9267 EDEF6    L     R6,DX16(R9)          ADD ITEM LGN                        48492021
 006BA8 1A6A                        9268          AR    R6,R10                TO MAX LGN                         48498021
 006BAA 5069 0010      00010        9269          ST    R6,DX16(R9)              OF LGS                          48504021
 006BAE 9180 D677      0BBB7        9270          TM    ITMCLS+NX1,XX80      IS ITEM AN ODO                      48510021
 006BB2 47E0 F6FC      06BBC        9271          BC    NOTONE,EDEF6B       NO                                   48516021
 006BB6 58E0 D9CC      0BF0C        9272 EDEF6A   L     R14,RS14A           RETURN                               48522021
 006BBA 07FE                        9273          BCR   UNCOND,R14          BRANCH                               48528021
 006BBC D206 D960 D556 0BEA0 0BA96  9274 EDEF6B   MVC   QTEXT(LX7),INITVB    MOVE INIT VERB MASK TO QTEXT        48534021
 006BC2 9242 D961      0BEA1        9275          MVI   QTEXT+NX1,STEPVB      AND CHANGE VERB TO STEP            48540021
 006BC6 D201 D964 9002 0BEA4 00002  9276          MVC   QTEXT+NX4(LX2),DX2(R9) MOVE VLC= INTO MASK               48546021
 006BCC 50A0 D900      0BE40        9277          ST    R10,FULLWD                                               48552021
 006BD0 D201 D967 D902 0BEA7 0BE42  9278          MVC   QTEXT+NX7(LX2),FULLWD+NX2 AND CI LGN.                    48558021
 006BD6 4130 0009      00009        9279          LA    R3,DX9                                                   48564021
 006BDA 45E0 F83A      06CFA        9280          BAL   R14,PUTQRN          LNK TO SPECIAL ITEM PROCESS          48570021
 006BDE 47F0 F6F6      06BB6        9281          BC    UNCOND,EDEF6A       RETURN                               48576021
 006BE2 50E0 DA18      0BF58        9282 UPDN     ST    R14,TSAVER                                               48582021
 006BE6 58F0 DC10      0C150        9283          L     R15,AGRIPR                                               48588021
1PH20     IKFCBL20                                                                                              PAGE  216
-  LOC  OBJECT CODE    ADDR1 ADDR2  STMT   SOURCE STATEMENT                                       ASM 0201 11.03 02/14/15
0006BEA 50A0 DC70      0C1B0        9284          ST    R10,GIG             SAVE R10 FOR CALL FROM XTEN          48594021
 006BEE D201 D552 D599 0BA92 0BAD9  9285          MVC   UPDTVB+NX3(LX2),ODOMAX SET MAX OP OF UPDATE              48600021
 006BF4 D207 D960 D54C 0BEA0 0BA8C  9286          MVC   QTEXT(LX8),UPDTCD   MOVE CARD,VERB, + MAX TO QTEXT       48606021
 006BFA 4130 0008      00008        9287          LA    R3,DX8                                                   48612021
 006BFE 45E0 F83A      06CFA        9288          BAL   R14,PUTQRN          PUT OUT VERB                         48618021
 006C02 58A0 DBA0      0C0E0        9289          L     R10,AOD2TB          R10= A(OD2TBL'S TIB)                 48624021
 006C06 58AA 0000      00000        9290          L     R10,DX0(R10)         R10= A(OD2TBL'S TAMM)               48630021
 006C0A 58AA 0000      00000        9291          L     R10,DX0(R10)         R10= A(OD2TBL)                      48636021
 006C0E 4AA0 D900      0BE40        9292          AH    R10,FULLWD          R10= BCD NAME OF OBJECT OF ODO       48642021
 006C12 41AA 0002      00002        9293          LA    R10,DX2(R10)                                             48648021
 006C16 1B88                        9294          SR    R8,R8                                                    48654021
 006C18 438A 0000      00000        9295 UPDN1    IC    R8,DX0(R10)          R8= COUNT OF NAME                   48660021
 006C1C 4480 F78E      06C4E        9296          EX    R8,OD2MOV           MOVE NAME TO QTEXT                   48666021
 006C20 41AA 8001      00001        9297          LA    R10,DX1(R10,R8)      R10= COUNT OF NEXT NAME             48672021
 006C24 9222 D960      0BEA0        9298          MVI   QTEXT,XX22           QUAL CODE                           48678021
 006C28 9500 A000      00000        9299          CLI   DX0(R10),XX00        IS NAME A QUALIFIER                 48684021
 006C2C 4770 F774      06C34        9300          BC    NOTEQ,UPDN2         YES                                  48690021
 006C30 9223 D960      0BEA0        9301          MVI   QTEXT,XX23           NO                                  48696021
 006C34 4138 0002      00002        9302 UPDN2    LA    R3,DX2(R8)                                               48702021
 006C38 45E0 F83A      06CFA        9303          BAL   R14,PUTQRN          PUT OUT NAME                         48708021
 006C3C 9500 A000      00000        9304          CLI   DX0(R10),XX00        LAST NAME                           48714021
 006C40 4770 F758      06C18        9305          BC    NOTEQ,UPDN1         NO                                   48720021
 006C44 58E0 DA18      0BF58        9306          L     R14,TSAVER                                               48726021
 006C48 58A0 DC70      0C1B0        9307          L     R10,GIG             RESTORE R10 FOR XTEN                 48732021
 006C4C 07FE                        9308          BCR   UNCOND,R14          BRANCH                               48738021
 006C4E D200 D961 A000 0BEA1 00000  9309 OD2MOV   MVC   QTEXT+NX1(LX0),DX0(R10)                                  48744021
                                    9310 *=2  INITIALIZE VLC'S (VARIABLE LGN CELLS) IF ITEM HAS ODO CLAUSE       48750021
 006C54 9180 D677      0BBB7        9311 INTVLC   TM    ITMCLS+NX1,XX80      DOES ITEM HAVE ODO.                 48756021
 006C58 07EE                        9312          BCR   NOTONE,R14          NO, RETURN                           48762021
 006C5A D201 D54D D5C7 0BA8D 0BB07  9313          MVC   UPDTCD+NX1(LX2),CARDNO SAVE CARD NUM FOR UPDATE VERB     48768021
 006C60 50E0 DA8C      0BFCC        9314          ST    R14,QSAVE+NX60       SAVE INTVLC RETURN                  48774021
 006C64 4310 D5A0      0BAE0        9315          IC    R1,ODOCCT           ADD ONE TO ODOCCT FOR RECORD CON     48780021
 006C68 4111 0001      00001        9316          LA    R1,DX1(R1)           CHECKING IN FST000.                 48786021
 006C6C 4210 D5A0      0BAE0        9317          STC   R1,ODOCCT                                                48792021
 006C70 58F0 DC60      0C1A0        9318          L     R15,AQBUIL                                               48798021
 006C74 05EF                        9319          BALR  R14,R15             GO BUILD QRTN & QFILE TAB ENTRY      48804021
 006C76 58F0 DBB4      0C0F4        9320          L     R15,ARDF10                                               48810021
 006C7A 05EF                        9321          BALR  R14,R15             GET ADDRESS OF LGS                   48816021
 006C7C 58F0 DC10      0C150        9322          L     R15,AGRIPR                                               48822021
 006C80 58E0 DA8C      0BFCC        9323          L     R14,QSAVE+NX60                                           48828021
 006C84 5890 DC6C      0C1AC        9324          L     R9,LGS              YES, GET A(LGS) IN GPLSTK            48834021
 006C88 947F D98A      0BECA        9325          NI    REDFSW,XX7F         INITLZ REDEFINES SW OFF        61479 48840021
 006C8C 9500 9014      00014        9326 INTVL1   CLI   DX20(R9),XX00        IS LEVEL =0                         48846021
 006C90 078E                        9327          BCR   EQ,R14              YES, RETURN                          48852021
 006C92 9140 9001      00001        9328          TM    DX1(R9),VLC          NO, DOES GRP ITEM HAVE A VLC        48858021
 006C96 071E                        9329          BCR   ONES,R14            YES, RETURN                          48864021
 006C98 9180 D98A      0BECA        9330          TM    REDFSW,XX80         WAS INNER GROUP SUBJ. OF REDEFINES   48870021
 006C9C 4710 F812      06CD2        9331          BO    INTQ           IF SO, SKIP VLC CALC FOR OUTER GROUP61479 48876021
 006CA0 D502 900A D3F4 0000A 0B934  9332          CLC   DX10(LX3,R9),ZEROS  IS GROUP SUBJECT OF REDEFINES  61479 48882021
 006CA6 4780 F7EE      06CAE        9333          BE    NONRDF              NO,  DON'T SET SW ON           61479 48888021
 006CAA 9680 D98A      0BECA        9334          OI    REDFSW,XX80        YES, SET REDEFINES SW ON        61479 48894021
 006CAE                             9335 NONRDF   DS    0H                                                 61479 48900021
 006CAE 5819 0000      00000        9336          L     R1,DX0(R9)           NO, GET CURRENT                     48906021
 006CB2 5410 D4E8      0BA28        9337          N     R1,MK1632              GROUP LGN AND MOVE IT TO          48912021
 006CB6 5019 0010      00010        9338          ST    R1,DX16(R9)             MAX. LENGTH FIELD OF GPLSTK E    48918021
1PH20     IKFCBL20                                                                                              PAGE  217
-  LOC  OBJECT CODE    ADDR1 ADDR2  STMT   SOURCE STATEMENT                                       ASM 0201 11.03 02/14/15
0006CBA 9400 9001      00001        9339          NI    DX1(R9),XX00                                             48924021
 006CBE 9640 9001      00001        9340          OI    DX1(R9),XX40         SET MINOR TO VAR. LGN. GROUP        48930021
 006CC2 4820 B17C      0017C        9341          LH    R2,VLCCTR         )                                      48936021
 006CC6 4122 0001      00001        9342          LA    R2,DX1(R2)           GET VLC=  AND                       48942021
 006CCA 4029 0002      00002        9343          STH   R2,DX2(R9)            PUT IN GPLSTK ENTRY                48948021
 006CCE 4020 B17C      0017C        9344          STH   R2,VLCCTR      COM)                                      48954021
 006CD2                             9345 INTQ     DS    0H                                                 61479 48960021
 006CD2 D206 D960 D556 0BEA0 0BA96  9346          MVC   QTEXT(LX7),INITVB    MOVE INIT CODES  TO WORKAREA        48966021
 006CD8 4020 D964      0BEA4        9347          STH   R2,QTEXT+NX4         MOVE VLC= AND INIT VALUE TO         48972021
 006CDC D201 D967 9012 0BEA7 00012  9348          MVC   QTEXT+NX7(LX2),DX18(R9) QTEXT STRING                     48978021
 006CE2 4130 0009      00009        9349          LA    R3,DX9                                                   48984021
 006CE6 4120 D960      0BEA0        9350          LA    R2,QTEXT                                                 48990021
 006CEA 5810 DB84      0C0C4        9351          L     R1,COSADR                                                48996021
 006CEE 0501                        9352          BALR  R0,R1               PUTN Q-TEXT                          49002021
 006CF0 12                          9353          DC    X'12'                                                    49008021
 006CF1 00
 006CF2 5B90 D444      0B984        9354          S     R9,CON24                                                 49014021
 006CF6 47F0 F7CC      06C8C        9355          BC    UNCOND,INTVL1       BRANCH                               49020021
1PH20     IKFCBL20                                                                                              PAGE  218
-  LOC  OBJECT CODE    ADDR1 ADDR2  STMT   SOURCE STATEMENT                                       ASM 0201 11.03 02/14/15
0                                   9357 *                                                                       49032021
                                    9358 **=1  SPECIAL ITEM PROCESSING (SPIR)                                    49038021
                                    9359 *  THIS ROUTINE PROCESSES BOTH THE LEVEL 77 AND THE LEVEL 88 ITEMS.     49044021
                                    9360 *    FOR LEVEL 88'S, VALGEN IS CALLED TO CHECK THE VARIOUS TYPES OF     49050021
                                    9361 *    LITERALS, AND THEN THE CORRECT OR CORRECTED LITERAL IS PUT         49056021
                                    9362 *    INTO THE DICTIONARY IN IC-TEXT FORMAT.                             49062021
                                    9363 *    LEVEL 77'S ARE TREATED AS ELEMENTARY ITEMS, BUT THEIR LENGTHS      49068021
                                    9364 *    ARE NOT TAKEN INTO ACCOUNT IN GROUP LENGTH CALCULATION.            49074021
                                    9365 *       INPUT -- CILEV HAS CI LEVEL NUMBER.                             49080021
                                    9366 *                                                                       49086021
 006CFA 4120 D960      0BEA0        9367 PUTQRN   LA    R2,QTEXT                                                 49092021
 006CFE 5810 DB84      0C0C4        9368          L     R1,COSADR                                                49098021
 006D02 0501                        9369          BALR  R0,R1               BRANCH TO COMMON ROUTINE             49104021
 006D04 12                          9370          DC    X'12'                                                    49110021
 006D05 00
 006D06 07FE                        9371          BCR   UNCOND,R14          BRANCH                               49116021
 006D08 4804 0000      00000        9372 ERROR    LH    R0,DX0(R4)           R0= ERROR =                         49122021
 006D0C 58F0 DBC0      0C100        9373          L     R15,AERRTN          CALL ERROR RTN                       49128021
 006D10 05EF                        9374          BALR  R14,R15             BRANCH TO ERROR ROUTINE              49134021
 006D12 58F0 DC10      0C150        9375          L     R15,AGRIPR                                               49140021
 006D16 4144 0002      00002        9376          LA    R4,DX2(R4)                                               49146021
 006D1A 07F4                        9377          BCR   UNCOND,R4           RETURN                               49152021
 006D20                             9378 IKF210   CSECT                                                          49158021
                             06D20  9379          USING *,R15                                                    49164021
 006D20 50E0 D9CC      0BF0C        9380 SPIR     ST    R14,RS14A                                                49170021
 006D24 9533 D688      0BBC8        9381          CLI   CILEV,XX33           IS THIS A CONDITION-NAME.           49176021
 006D28 4770 F21A      06F3A        9382          BC    NOTEQ,SPI505        GO TO LEVEL 77 PROCESSING            49182021
 006D2C 9138 D676      0BBB6        9383          TM    ITMCLS,XX38          VALUE CLAUSE PRESENT FOR COND-NA    49188021
 006D30 4780 F1FA      06F1A        9384          BC    ZERO,SPI400         BRANCH                               49194021
 006D34 58F0 DC04      0C144        9385          L     R15,AVALGN          CALL VALGEN TO PROCESS LITERAL.      49200021
 006D38 05EF                        9386          BALR  R14,R15             BRANCH                               49206021
 006D3A 58F0 DC30      0C170        9387          L     R15,ASPIR                                                49212021
                                    9388 *                                  N.B. CONTROL IS NOT RETURN TO HE     49218021
                                    9389 *                                     IF LITERAL IS NUMERIC.            49224021
                                    9390 *                                                                       49230021
                                    9391 * ENTER CONDITION-NAME INTO THE DICTIONARY.                             49236021
                                    9392 *                                                                       49242021
 006D3E 920C D60C      0BB4C        9393 SPI100   MVI   COUNT,XX0C           PUT COUNT=0 AND MAJOR=C IN ATTRI    49248021
 006D42 1B11                        9394          SR    R1,R1                                                    49254021
 006D44 4310 D6E6      0BC26        9395          IC    R1,LITVAL           LIT LENGTH +9 = ATTRIB COUNT.        49260021
 006D48 1831                        9396          LR    R3,R1                                                    49266021
 006D4A 5A10 D418      0B958        9397          A     R1,NINE                                                  49272021
 006D4E 4210 DD00      0C240        9398          STC   R1,ATRCNT              ATTRIBUTES COUNT                  49278021
 006D52 9200 D611      0BB51        9399          MVI   ATTRIB+NX5,XX00                                          49284021
 006D56 4310 D6E6      0BC26        9400          IC    R1,LITVAL                                                49290021
 006D5A 9131 DD6C      0C2AC        9401          TM    VALTSW,SWON         VALUE IS SERIES                      49296021
 006D5E 4780 F0A0      06DC0        9402          BZ    SPI110              BRANCH                               49302021
 006D62 9131 DFC0      0C500        9403          TM    CHKLTH,SWON         NEED TO CHECK LENGTH                 49308021
 006D66 4780 F0A0      06DC0        9404          BZ    SPI110              NO                                   49314021
 006D6A D700 DFC0 DFC0 0C500 0C500  9405          XC    CHKLTH,CHKLTH       TURN OFF SW                          49320021
 006D70 9575 D613      0BB53        9406          CLI   ATTRIB+NX7,XX75      W                                   49326021
 006D74 4770 F06A      06D8A        9407          BNE   SPI001              NO                                   49332021
 006D78 D500 D614 D6E7 0BB54 0BC27  9408          CLC   ATTRIB+NX8(LX1),LITVAL+NX1                               49338021
 006D7E 4740 F09C      06DBC        9409          BL    SPI005              OK                                   49344021
 006D82 4520 F132      06E52        9410          BAL   R2,SPI300           ERROR                                49350021
1PH20     IKFCBL20                                                                                              PAGE  219
-  LOC  OBJECT CODE    ADDR1 ADDR2  STMT   SOURCE STATEMENT                                       ASM 0201 11.03 02/14/15
0006D86 47F0 F09C      06DBC        9411          B     SPI005              BRANCH                               49356021
 006D8A 1B44                        9412 SPI001   SR    R4,R4                                                    49362021
 006D8C 4340 D614      0BB54        9413          IC    R4,ATTRIB+NX8        COUNT OF FIRST                      49368021
 006D90 1914                        9414          CR    R1,R4                                                    49374021
 006D92 47D0 F078      06D98        9415          BNH   SPI002              TURN OFF THRU BIT                    49380021
 006D96 1814                        9416          LR    R1,R4                                                    49386021
 006D98 0610                        9417 SPI002   BCTR  R1,R0               BRANCH                               49392021
 006D9A 4410 F140      06E60        9418          EX    R1,COMPLT                                                49398021
 006D9E 4740 F09C      06DBC        9419          BL    SPI005              OK                                   49404021
 006DA2 4780 F08E      06DAE        9420          BE    SPI004              EQUAL CHECK LENGTHS                  49410021
 006DA6 4520 F132      06E52        9421          BAL   R2,SPI300           ERROR                                49416021
 006DAA 47F0 F09C      06DBC        9422          B     SPI005              BRANCH                               49422021
 006DAE D500 D614 D6E6 0BB54 0BC26  9423 SPI004   CLC   ATTRIB+NX8(LX1),LITVAL                                   49428021
 006DB4 47D0 F09C      06DBC        9424          BNH   SPI005              OK                                   49434021
 006DB8 4520 F132      06E52        9425          BAL   R2,SPI300           ERROR                                49440021
 006DBC 4310 D6E6      0BC26        9426 SPI005   IC    R1,LITVAL           COUNT OF LITERAL                     49446021
 006DC0 5A10 D3FC      0B93C        9427 SPI110   A     R1,TWO                                                   49452021
 006DC4 4210 D612      0BB52        9428          STC   R1,ATTRIB+NX6                                            49458021
 006DC8 D203 D60D D818 0BB4D 0BD58  9429          MVC   ATTRIB+NX1(LX4),PDICPT                                   49464021
 006DCE D200 D613 DCF8 0BB53 0C238  9430          MVC   ATTRIB+NX7(LX1),MCODE                                    49470021
 006DD4 4430 F214      06F34        9431          EX    R3,SPI990           MOVE THE LITERAL INTO CI.            49476021
 006DD8 9131 DDB4      0C2F4        9432          TM    GRP88,SWON          88 UNDER GROUP                       49482021
 006DDC 4710 F0C8      06DE8        9433          BO    SPI115              YES                                  49488021
 006DE0 9131 DD6C      0C2AC        9434          TM    VALTSW,SWON         IS THIS VALUE IS SERIES              49494021
 006DE4 4780 F112      06E32        9435          BZ    SPI150              NO                                   49500021
 006DE8 5810 DB4C      0C08C        9436 SPI115   L     R1,PVALTR                                                49506021
 006DEC 1B00                        9437          SR    R0,R0                                                    49512021
 006DEE 4300 D612      0BB52        9438          IC    R0,ATTRIB+NX6        COUNT OF ATTRIBUTES                 49518021
 006DF2 1840                        9439          LR    R4,R0                                                    49524021
 006DF4 5A00 D3F8      0B938        9440          A     R0,ONE              COUNT DOESN'T INCLUDE ITSELF         49530021
 006DF8 58F0 DCE8      0C228        9441          L     R15,BINSRT                                               49536021
 006DFC 05EF                        9442          BALR  R14,R15             GO TO INSERT ROUTINE                 49542021
 006DFE 58F0 DC30      0C170        9443          L     R15,ASPIR                                                49548021
 006E02 1810                        9444          LR    R1,R0                                                    49554021
 006E04 9108 DD6C      0C2AC        9445          TM    VALTSW,VALTHR       IS IT VALUE THRU                     49560021
 006E08 4780 F0F4      06E14        9446          BZ    SPI120              NO                                   49566021
 006E0C 9631 DFC0      0C500        9447          OI    CHKLTH,SWON         TURN SW ON                           49572021
 006E10 9680 D612      0BB52        9448          OI    ATTRIB+NX6,XX80      SET BIT ON                          49578021
 006E14 4440 F236      06F56        9449 SPI120   EX    R4,SPI999                                                49584021
 006E18 9131 DDB4      0C2F4        9450          TM    GRP88,SWON          88 UNDER GROUP                       49590021
 006E1C 4780 F10C      06E2C        9451          BZ    SPI130              NO                                   49596021
 006E20 9131 DD6C      0C2AC        9452          TM    VALTSW,SWON         IS IT VALUE THRU ALSO          09498 49602021
 006E24 4710 F10C      06E2C        9453          BO    SPI130              YES, DON'T UPDATE VALDSP       09498 49608021
 006E28 4030 DD68      0C2A8        9454          STH   R3,VALDSP           CHANGE DISPL IN TABLE                49614021
 006E2C 58E0 DCBC      0C1FC        9455 SPI130   L     R14,AVLT20                                               49620021
 006E30 07FE                        9456          BR    R14                 RETURN                               49626021
 006E32 58F0 DBFC      0C13C        9457 SPI150   L     R15,AENTNM          ENTER CONDITION NAME INTO DICTIO     49632021
 006E36 9200 DCFC      0C23C        9458          MVI   CICODE,XX00          ELEMENTARY ITEM CODE.               49638021
 006E3A 4110 DCFC      0C23C        9459          LA    R1,CIPARM                                                49644021
 006E3E 05EF                        9460          BALR  R14,R15             BR TO ENTER COND. NAME               49650021
 006E40 58F0 DC30      0C170        9461          L     R15,ASPIR                                                49656021
 006E44 5010 D684      0BBC4        9462          ST    R1,DICTPT           SAVE DICTIONARY POINTER              49662021
 006E48 5010 DF44      0C484        9463          ST    R1,REALPTR                                               49668021
 006E4C 58E0 D9CC      0BF0C        9464 SPI155 L     R14,RS14A                                                  49674021
 006E50 07FE                        9465          BCR   UNCOND,R14          RETURN TO CALLER.                    49680021
1PH20     IKFCBL20                                                                                              PAGE  220
-  LOC  OBJECT CODE    ADDR1 ADDR2  STMT   SOURCE STATEMENT                                       ASM 0201 11.03 02/14/15
0006E52 58F0 DC14      0C154        9466 SPI300   L     R15,AERROR                                               49686021
 006E56 054F                        9467          BALR  R4,R15              60 GENERATE                          49692021
 006E58 10C1                        9468          DC    X'10C1'             MSG 193                              49698021
 006E5A 58F0 DC30      0C170        9469          L     R15,ASPIR                                                49704021
 006E5E 07F2                        9470          BR    R2                  RETURN TO CALLER                     49710021
 006E60 D500 D615 D6E7 0BB55 0BC27  9471 COMPLT   CLC   ATTRIB+NX9(LX0),LITVAL+NX1                               49716021
                                    9472 *                                                                       49722021
                                    9473 *  ENTER CONDITION-NAME LITERAL AS FIGCON OF BLANKS INTO THE DICTIO     49728021
                                    9474 *                                                                       49734021
 006E66 9240 DCF9      0C239        9475 SPI200   MVI   FIGCOD,XX40          BLANK.                              49740021
 006E6A 920C D60C      0BB4C        9476 SPI210   MVI   COUNT,XX0C                                               49746021
 006E6E 9209 DD00      0C240        9477          MVI   ATRCNT,XX09             ATTRIB COUNT.                    49752021
 006E72 D203 D60D D818 0BB4D 0BD58  9478          MVC   ATTRIB+NX1(LX4),PDICPT                                   49758021
 006E78 9200 D611      0BB51        9479          MVI   ATTRIB+NX5,XX00                                          49764021
 006E7C 9131 DD6C      0C2AC        9480          TM    VALTSW,SWON         VALUE IS SERIES                      49770021
 006E80 4780 F19A      06EBA        9481          BZ    SPI214              NO                                   49776021
 006E84 9131 DFC0      0C500        9482          TM    CHKLTH,SWON         NEED TO CHECK LENGTH                 49782021
 006E88 4780 F19A      06EBA        9483          BZ    SPI214              NO                                   49788021
 006E8C D700 DFC0 DFC0 0C500 0C500  9484          XC    CHKLTH,CHKLTH       TURN OFF SW                          49794021
 006E92 9575 D613      0BB53        9485          CLI   ATTRIB+NX7,XX75      WAS LAST FIGCON                     49800021
 006E96 4770 F18C      06EAC        9486          BNE   SPI212              NO                                   49806021
 006E9A D500 D614 DCF9 0BB54 0C239  9487          CLC   ATTRIB+NX8(LX1),FIGCOD                                   49812021
 006EA0 4740 F19A      06EBA        9488          BL    SPI214              OK                                   49818021
 006EA4 4520 F132      06E52        9489          BAL   R2,SPI300           ER                                   49824021
 006EA8 47F0 F19A      06EBA        9490          B     SPI214              BRANCH                               49830021
 006EAC D500 D615 DCF9 0BB55 0C239  9491 SPI212   CLC   ATTRIB+NX9(LX1),FIGCOD                                   49836021
 006EB2 4740 F19A      06EBA        9492          BL    SPI214              BRANCH                               49842021
 006EB6 4520 F132      06E52        9493          BAL   R2,SPI300           ERROR                                49848021
 006EBA 9202 D612      0BB52        9494 SPI214   MVI   ATTRIB+NX6,XX02                                          49854021
 006EBE 9275 D613      0BB53        9495          MVI   ATTRIB+NX7,XX75      PUT IN FIGCON CODE.                 49860021
 006EC2 D200 D614 DCF9 0BB54 0C239  9496          MVC   ATTRIB+NX8(LX1),FIGCOD                                   49866021
 006EC8 9131 DDB4      0C2F4        9497          TM    GRP88,SWON          88 UNDER GROUP                       49872021
 006ECC 4710 F1B8      06ED8        9498          BO    SPI215              YES                                  49878021
 006ED0 9131 DD6C      0C2AC        9499          TM    VALTSW,SWON         NO, VALUE IS SERIES                  49884021
 006ED4 4780 F112      06E32        9500          BZ    SPI150              NO                                   49890021
                                    9501 *                                  YES, ENTER IN TABLE NOT IN           49896021
 006ED8 5810 DB4C      0C08C        9502 SPI215   L     R1,PVALTR               DICTIONARY                       49902021
 006EDC 4100 0003      00003        9503          LA    R0,DX3               COUNT OF ENTRY                      49908021
 006EE0 9108 DD6C      0C2AC        9504          TM    VALTSW,VALTHR       IS IT VALUE THRU                     49914021
 006EE4 4780 F1D0      06EF0        9505          BZ    SPI220              NO                                   49920021
 006EE8 9680 D612      0BB52        9506          OI    ATTRIB+NX6,XX80      YES, SET BIT ON                     49926021
 006EEC 9631 DFC0      0C500        9507          OI    CHKLTH,SWON         TURN SW ON                           49932021
 006EF0 58F0 DCE8      0C228        9508 SPI220   L     R15,BINSRT                                               49938021
 006EF4 05EF                        9509          BALR  R14,R15             GET ADD. TO INSERT ENTRY             49944021
 006EF6 58F0 DC30      0C170        9510          L     R15,ASPIR                                                49950021
 006EFA D202 2000 D612 00000 0BB52  9511          MVC   DX0(LX3,R2),ATTRIB+NX6   MOVE ATTIBUTES TO TABLE         49956021
 006F00 9131 DDB4      0C2F4        9512          TM    GRP88,SWON          88 UNDER GROUP                       49962021
 006F04 4780 F1F4      06F14        9513          BZ    SPI230              NO                                   49968021
 006F08 9131 DD6C      0C2AC        9514          TM    VALTSW,SWON         IS IT VALUE THRU ALSO          09498 49974021
 006F0C 4710 F1F4      06F14        9515          BO    SPI230              YES, DON'T UPDATE VALDSP       09498 49980021
 006F10 4030 DD68      0C2A8        9516          STH   R3,VALDSP           CHANGE DISPL IN TABLE                49986021
 006F14 58E0 DCBC      0C1FC        9517 SPI230   L     R14,AVLT20                                               49992021
 006F18 07FE                        9518          BR    R14                 RETURN TO CHECK NEXT                 49998021
                                    9519 *                                                                       50004021
                                    9520 *                                                                       50010021
1PH20     IKFCBL20                                                                                              PAGE  221
-  LOC  OBJECT CODE    ADDR1 ADDR2  STMT   SOURCE STATEMENT                                       ASM 0201 11.03 02/14/15
0                                   9521 *                                                                       50016021
                                    9522 *  NO VALUE GIVEN FOR CONDITION-NAME, VALUE ASSUMED TO BE ZERO OR B     50022021
                                    9523 *                                                                       50028021
 006F1A 1B55                        9524 SPI400   SR    R5,R5                                                    50034021
 006F1C 4350 D7A1      0BCE1        9525          IC    R5,PMINCD                                                50040021
 006F20 8850 0004      00004        9526          SRL   R5,DX4                                                   50046021
 006F24 5550 D400      0B940        9527          CL    R5,THREE                                                 50052021
 006F28 47D0 F146      06E66        9528          BC    NOTHI,SPI200        GO TO ENTER COND-NAME LIT            50058021
 006F2C 9200 DCF9      0C239        9529          MVI   FIGCOD,XX00                                              50064021
 006F30 47F0 F14A      06E6A        9530          BC    UNCOND,SPI210       BRANCH                               50070021
                                    9531 *                                                                       50076021
 006F34 D200 D614 D6E6 0BB54 0BC26  9532 SPI990   MVC   ATTRIB+NX8(LX0),LITVAL                                   50082021
 006F3A 9201 D688      0BBC8        9533 SPI505   MVI   CILEV,XX01           DUMMY LEVEL                         50088021
 006F3E 58F0 DC28      0C168        9534          L     R15,AXTEN                                                50094021
 006F42 05EF                        9535          BALR  R14,R15             BRANCH TO XTEN ROUTINE               50100021
 006F44 9232 D688      0BBC8        9536          MVI   CILEV,XX32                                               50106021
 006F48 58F0 DC30      0C170        9537          L     R15,ASPIR                   ADDRESSIBILITY               50112021
 006F4C 58E0 F23C      06F5C        9538          L     R14,AELI10                  LOAD REG 14                  50118021
 006F50 58F0 DC10      0C150        9539          L     R15,AGRIPR                ADDRESSIBILITY                 50124021
 006F54 07FE                        9540          BCR   UNCOND,R14          BRANCH                               50130021
 006F56 D200 2000 D612 00000 0BB52  9541 SPI999   MVC   DX0(LX0,R2),ATTRIB+NX6                                   50136021
 006F5C 00006894                    9542 AELI10   DC    A(ELI10A)                   ADDR OF ELI10A               50142021
1PH20     IKFCBL20                                                                                              PAGE  222
-  LOC  OBJECT CODE    ADDR1 ADDR2  STMT   SOURCE STATEMENT                                       ASM 0201 11.03 02/14/15
0                                   9544 *=2   REDEFINES CLAUSE PROCESSING ROUTINE (REDEF)                       50154021
                                    9545 *  THIS ROUTINE CHECK FOR SYNTAX ERRORS IN REDEFINES CLAUSES BY CAL     50160021
                                    9546 *    RDSYN ROUTINE, AND ALSO PUTS THE ADDRESS PARAMETER OF THE OBJE     50166021
                                    9547 *    OF THE REDEFINES IN THE ADDRESSING PARAMETER ASSIGNMENT FIELD      50172021
                                    9548 *                                                                       50178021
                                    9549 *                                                                       50184021
                             06F60  9550          USING *,R15                                                    50190021
                                    9551 *                                                                       50196021
 006F60 50E0 D9CC      0BF0C        9552 REDEF    ST    R14,RS14A                                                50202021
 006F64 D700 DFBC DFBC 0C4FC 0C4FC  9553          XC    RDFERR(LX1),RDFERR      TURN OFF SW                      50208021
 006F6A 50F0 DF3C      0C47C        9554          ST    R15,MTEMP1                                               50214021
 006F6E 45E0 F3DA      0733A        9555          BAL   R14,RDF105          GET ADDRESS OF LGS                   50220021
 006F72 D202 D990 DEA1 0BED0 0C3E1  9556          MVC   RS1(LX3),LID+NX13     SAVE REAL LID.                     50226021
 006F78 D500 D688 9014 0BBC8 00014  9557          CLC   CILEV(LX1),DX20(R9)   COMPARE LEVNO OF CI AND GLS.       50232021
 006F7E 47D0 F104      07064        9558          BC    NOTHI,RDF010        BRH TO RDF010                        50238021
                                    9559 *                                                                       50244021
                                    9560 *  PCI IS THE OBJECT OF REDEFINES.                                      50250021
                                    9561 *                                                                       50256021
 006F82 9108 D677      0BBB7        9562          TM    ITMCLS+NX1,XX08      IS CI A REPORT ITEM.                50262021
 006F86 4780 F07A      06FDA        9563          BC    ZERO,RDF002         BRANCH                               50268021
 006F8A D502 DEC1 D3F4 0C401 0B934  9564          CLC   RPTRDF(LX3),ZEROS       YES, DO SPECIAL PROCESSING IF    50274021
 006F90 4720 F3B0      07310        9565          BC    HI,RDF100           NOT THE 1ST ONE IN SERIES.           50280021
 006F94 D202 DEC1 D7A2 0C401 0BCE2  9566 RDF000   MVC   RPTRDF(LX3),PADDPR                                       50286021
 006F9A D202 DDEC DEC1 0C32C 0C401  9567          MVC   LITBUF(LX3),RPTRDF                                       50292021
 006FA0 D203 DF60 B148 0C4A0 00148  9568          MVC   RPTLOC(LX4),LOCCTR      OM)                              50298021
 006FA6 5800 DEC0      0C400        9569          L     R0,RPTRDF-NX1                                            50304021
 006FAA 8800 0008      00008        9570          SRL   R0,DX8                                                   50310021
 006FAE 5400 D4E4      0BA24        9571          N     R0,MK2132                                                50316021
 006FB2 4A00 DF5E      0C49E        9572          AH    R0,REDPLS           ADD DISPLACEMENT TO A(OBJ. OF RE     50322021
 006FB6 5000 DF00      0C440        9573          ST    R0,WKAR                                                  50328021
 006FBA 4200 DDED      0C32D        9574          STC   R0,LITBUF+NX1                                            50334021
 006FBE D100 DDEC DF02 0C32C 0C442  9575          MVN   LITBUF(LX1),WKAR+NX2                                     50340021
 006FC4 5900 D478      0B9B8        9576          C     R0,CO4096        IS THIS GREATER THAN 4096         32388 50346021
 006FC8 4740 F07A      06FDA        9577          BL    RDF002           DO NOT INCREMENT BL COUNT         32388 50352021
 006FCC 1BEE                        9578          SR    R14,R14          CLEAR REG 14                      32388 50358021
 006FCE 43E0 DDEE      0C32E        9579          IC    R14,LITBUF+NX2   INSERT CURRENT BL NO.             32388 50364021
 006FD2 41E0 E001      00001        9580          LA    R14,DX1(R0,R14)  INCREMENT BL NO. BY ONE           32388 50370021
 006FD6 42E0 DDEE      0C32E        9581          STC   R14,LITBUF+NX2   BL NO. IS UPDATED                 32388 50376021
 006FDA D500 D688 D81C 0BBC8 0BD5C  9582 RDF002   CLC   CILEV(LX1),PSRLEN                                        50382021
 006FE0 4780 F094      06FF4        9583          BC    EQ,RDF003           BR TO SEE IF OBJ RDF HAS ODO         50388021
 006FE4 4540 F51E      0747E        9584          BAL   R4,RERROR           LNK TO ERROR MSG RTN                 50394021
 006FE8 207A                        9585          DC    X'207A'             122                                  50400021
 006FEA 94FE D60D      0BB4D        9586          NI    MINCOD,XXFE          DELETE REDEFINES                    50406021
 006FEE 58E0 D9CC      0BF0C        9587          L     R14,RS14A                                                50412021
 006FF2 07FE                        9588          BCR   UNCOND,R14          BRANCH                               50418021
                                    9589 *                                                                       50424021
 006FF4 9180 D80B      0BD4B        9590 RDF003   TM    PITMCL+NX1,XX80     DOES OBJ OF REDEF CONTAIN AN ODO ?   50430021
 006FF8 4780 F0A0      07000        9591          BZ    RDF004             NO- BRANCH.                           50436021
 006FFC 47F0 F1C0      07120        9592          B     RD024A             YES- DELETE REDEF CLAUSE FROM CI.     50442021
                                    9593 *                                                                       50448021
 007000 5810 DAC4      0C004        9594 RDF004   L     R1,RNMPAR          GET RNMTBL ENTRY..                    50454021
 007004 58F0 DCE8      0C228        9595          L     R15,BINSRT                                               50460021
 007008 05EF                        9596          BALR  R14,R15             BRANCH                               50466021
 00700A 58F0 DF3C      0C47C        9597          L     R15,MTEMP1                                               50472021
 00700E 45E0 F3DA      0733A        9598          BAL   R14,RDF105          RESTORE ADDRESS OF LGS               50478021
1PH20     IKFCBL20                                                                                              PAGE  223
-  LOC  OBJECT CODE    ADDR1 ADDR2  STMT   SOURCE STATEMENT                                       ASM 0201 11.03 02/14/15
0007012 D200 2000 D81C 00000 0BD5C  9599 RDF005   MVC   DX0(LX1,R2),PSRLEN    MAKE ENTRIES IN RNMTBL--LEVEL NO   50484021
 007018 D202 2001 D819 00001 0BD59  9600          MVC   DX1(LX3,R2),PDICPT+NX1                                   50490021
 00701E D200 2004 D7A1 00004 0BCE1  9601          MVC   DX4(LX1,R2),PMINCD       MINOR CODE OF PCI.              50496021
 007024 48A0 D80C      0BD4C        9602          LH    R10,PCILGN          PCI LENGTH.                          50502021
 007028 50A0 DDDC      0C31C        9603          ST    R10,LREDEF          SAVE LGN OF OBJ. OF REDEFINES.       50508021
 00702C 9108 D677      0BBB7        9604          TM    ITMCLS+NX1,XX08                                          50514021
 007030 4710 F0DA      0703A        9605          BC    ONES,RDF008         BRANCH                               50520021
 007034 D202 DDEC D7A2 0C32C 0BCE2  9606          MVC   LITBUF(LX3),PADDPR                                       50526021
 00703A 9500 9014      00014        9607 RDF008   CLI   DX20(R9),XX00        IF LEVEL ON LGS = 0,NO LID EXIST    50532021
 00703E 4770 F146      070A6        9608          BC    NOTEQ,RDF020        GO MAKE ENTRY IN RDFSTK TABLE        50538021
 007042 4110 D828      0BD68        9609          LA    R1,REDEFA                                                50544021
 007046 5010 DDD4      0C314        9610          ST    R1,PARAM            CALL ACCESS FOR DICTPT OF OBJ. R     50550021
 00704A 5810 DC74      0C1B4        9611          L     R1,APARAM                                                50556021
 00704E 58F0 DBEC      0C12C        9612          L     R15,ALATRN                                               50562021
 007052 05EF                        9613          BALR  R14,R15             BR TO ACCESS ROUTINE 'LATRTN'        50568021
 007054 55F0 D3F4      0B934        9614          CL    R15,ZEROS                                                50574021
 007058 58F0 DF3C      0C47C        9615          L     R15,MTEMP1                                               50580021
 00705C 4780 F1D4      07134        9616          BC    EQ,RDF024           BRANCH                               50586021
 007060 47F0 F32A      0728A        9617          BC    UNCOND,RDF060       BRANCH                               50592021
                                    9618 *                                                                       50598021
                                    9619 *  LAST-ITEM-DELETED FROM GROUP LENGTH STACK IS THE OBJ. OF REDEFIN     50604021
                                    9620 *                                                                       50610021
 007064 58F0 DC28      0C168        9621 RDF010   L     R15,AXTEN                                                50616021
 007068 05EF                        9622          BALR  R14,R15             BRANCH TO XTEN ROUTINE               50622021
 00706A 58F0 DF3C      0C47C        9623          L     R15,MTEMP1                                               50628021
 00706E 5090 DC6C      0C1AC        9624          ST    R9,LGS                                                   50634021
 007072 9601 DEDD      0C41D        9625          OI    MSW,XX01             SET SW TO MAKE RNMTBL ENTRY LATE    50640021
 007076 9140 DE95      0C3D5        9626          TM    LID+NX1,XX40         IS LID VAR LNG?                     50646021
 00707A 4780 F132      07092        9627          BZ    RDF012                   BR TO CHK FOR ODO         39849 50652021
 00707E 4540 F51E      0747E        9628          BAL   R4,RERROR           YES - BAD NEWS USER                  50658021
 007082 207C                        9629          DC    X'207C'              MSG 124                             50664021
 007084 94FE DEDD      0C41D        9630          NI    MSW,XXFE                        TURN OFF SW        41532 50670021
                                    9631 *                INDICATING LID AS REDEF OBJECT                   41532 50676021
 007088 94FE D60D      0BB4D        9632          NI    MINCOD,XXFE          INDICATOR OFF                       50682021
 00708C 58E0 D9CC      0BF0C        9633          L     R14,RS14A           * RETURN                             50688021
 007090 07FE                        9634          BR    R14                 * TO CALLER                          50694021
                             07092  9635 RDF012   EQU   *                                                  39849 50700021
 007092 9101 DE94      0C3D4        9636          TM    LID,XX01                 DOES OBJ OF REDEF HAVE ODO39849 50706021
 007096 4710 F1C0      07120        9637          BO    RD024A                   YES, ISSUE MSG 10         39849 50712021
 00709A 5860 DE94      0C3D4        9638 RDF015   L     R6,LID              LID IS FIXED LENGTH GROUP            50718021
 00709E 5460 D4E8      0BA28        9639          N     R6,MK1632           SAVE LGN OF OBJ. OF REDEFINES.       50724021
 0070A2 5060 DDDC      0C31C        9640          ST    R6,LREDEF                                                50730021
                                    9641 *                                                                       50736021
                                    9642 *  MAKE AN ENTRY IN RDFSTK TABLE.                                       50742021
                                    9643 *                                                                       50748021
 0070A6 D203 DDD8 D684 0C318 0BBC4  9644 RDF020   MVC   PARAM1(LX4),DICPNT                                       50754021
 0070AC 9200 DDD4      0C314        9645          MVI   PARAM,XX00                                               50760021
 0070B0 5890 DC6C      0C1AC        9646          L     R9,LGS                                                   50766021
 0070B4 D502 900D D3F4 0000D 0B934  9647          CLC   DX13(LX3,R9),ZEROS                                       50772021
 0070BA 4770 F166      070C6        9648          BC    NOTEQ,RDF20A        BRANCH                               50778021
 0070BE 4190 DE94      0C3D4        9649          LA    R9,LID                                                   50784021
 0070C2 9601 D5B4      0BAF4        9650          OI    LIDLGS,XX01                                              50790021
 0070C6 D202 DDD5 900D 0C315 0000D  9651 RDF20A   MVC   PARAM+NX1(LX3),DX13(R9) DICTPTR OF PREVIOUS GROUP.       50796021
 0070CC 4110 DDD4      0C314        9652          LA    R1,PARAM            CALL ACCESS TO ENTRE DUMMY DELIM     50802021
 0070D0 58F0 DBF8      0C138        9653          L     R15,AENTDE                                               50808021
1PH20     IKFCBL20                                                                                              PAGE  224
-  LOC  OBJECT CODE    ADDR1 ADDR2  STMT   SOURCE STATEMENT                                       ASM 0201 11.03 02/14/15
00070D4 05EF                        9654          BALR  R14,R15             BRANCH TO ACCESS RTN 'ENTDEL'        50814021
 0070D6 58F0 DF3C      0C47C        9655        L     R15,MTEMP1           RESTORE BASE                          50820021
 0070DA 4110 D828      0BD68        9656 RDF021   LA    R1,REDEFA           CALL ACCESS TO GET THE DICTIONAR     50826021
 0070DE 5010 DF10      0C450        9657          ST    R1,WKAREA              POINTER FOR THE OBJECT OF RED     50832021
 0070E2 920C DF10      0C450        9658          MVI   WKAREA,XX0C                                              50838021
 0070E6 9200 DF14      0C454        9659          MVI   WKAREA+NX4,XX00                                          50844021
 0070EA 9101 D5B4      0BAF4        9660          TM    LIDLGS,XX01                                              50850021
 0070EE 4710 F19A      070FA        9661          BC    ONES,RDF022         BRANCH                               50856021
 0070F2 45E0 F3DA      0733A        9662          BAL   R14,RDF105          RESTORE ADDRESS OF LGS               50862021
 0070F6 47F0 F19E      070FE        9663          BC    UNCOND,RDF023       BRANCH                               50868021
 0070FA 94FE D5B4      0BAF4        9664 RDF022   NI    LIDLGS,XXFE          TURN OFF SW                         50874021
 0070FE D202 DF15 900D 0C455 0000D  9665 RDF023   MVC   WKAREA+NX5(LX3),DX13(R9)                                 50880021
 007104 4110 DF10      0C450        9666          LA    R1,WKAREA                                                50886021
 007108 58F0 DBE8      0C128        9667          L     R15,ALATGP                                               50892021
 00710C 05EF                        9668          BALR  R14,R15             BR TO ACCESS RTN 'LATGRP'            50898021
 00710E 185F                        9669          LR    R5,R15                          SAVE ERROR CODE          50904021
 007110 55F0 D3F4      0B934        9670          CL    R15,ZEROS                                                50910021
 007114 58F0 DF3C      0C47C        9671          L     R15,MTEMP1                                               50916021
 007118 4770 F33E      0729E        9672          BC    NOTEQ,RDF60A        UNIQUE NAME NOT FOUND                50922021
 00711C 47F0 F1D4      07134        9673          B     RDF024                    BR                       39849 50928021
                                    9674 *                                 YES- DELETE REDEF CLAUSE FROM CI.     50934021
 007120 4540 F51E      0747E        9675 RD024A   BAL   R4,RERROR            *   MSG                             50940021
 007124 200A                        9676          DC    X'200A'              *  # 10.                            50946021
 007126 94FE DEDD      0C41D        9677          NI    MSW,XXFE                        TURN OFF SW        41532 50952021
                                    9678 *                INDICATING LID AS REDEF OBJECT                   41532 50958021
 00712A 94FE D60D      0BB4D        9679          NI    MINCOD,XXFE         REDEF BIT OFF.                       50964021
 00712E 58E0 D9CC      0BF0C        9680          L     R14,RS14A            *  RETURN                           50970021
 007132 07FE                        9681          BR    R14                  *  TO CALLER.                       50976021
                                    9682 *                                                                       50982021
 007134 5030 DF00      0C440        9683 RDF024   ST    R3,WKAR             ACCESS RETURN DICTPTR IN R3.         50988021
 007138 D203 D680 DF00 0BBC0 0C440  9684          MVC   OBJRED(LX4),WKAR     PUT THE POINTER IN OBJRED OF CI.    50994021
 00713E 5810 DABC      0BFFC        9685          L     R1,RDFPAR                                                51000021
 007142 58F0 DCE8      0C228        9686          L     R15,BINSRT                                               51006021
 007146 05EF                        9687          BALR  R14,R15             BR TO INSERT RTN                     51012021
 007148 58F0 DF3C      0C47C        9688          L     R15,MTEMP1                                               51018021
 00714C 1842                        9689          LR    R4,R2                                                    51024021
 00714E 5B40 D424      0B964        9690 RDF025   S     R4,TWELVE                                                51030021
 007152 D500 4000 D688 00000 0BBC8  9691          CLC   DX0(LX1,R4),CILEV                                        51036021
 007158 4780 F2F8      07258        9692          BC    EQ,RDF091           BRANCH                               51042021
 00715C 4720 F248      071A8        9693          BC    HI,RDF030           BR TO DELETE ENTRY W/> LEVEL NO      51048021
 007160 D200 2000 D688 00000 0BBC8  9694 RDF028   MVC   DX0(LX1,R2),CILEV        LEVEL OF CI.                    51054021
 007166 D206 2001 DEB9 00001 0C3F9  9695          MVC   DX1(LX7,R2),APAF         CURRENT ADDRESSING PARAM.       51060021
 00716C D203 2008 DDDC 00008 0C31C  9696          MVC   DX8(LX4,R2),LREDEF       LGN OF OBJECT OF REDEFINES.     51066021
 007172 9101 DEDD      0C41D        9697 RDF029   TM    MSW,XX01             IS LID THE OBJ OF REDEFINES.        51072021
 007176 4780 F2BA      0721A        9698          BC    ZERO,RDF045            NO.                               51078021
 00717A 5810 DAC4      0C004        9699          L     R1,RNMPAR           MAKE A RNMTBL ENTRY,LID IS OBJRE     51084021
 00717E 58F0 DCE8      0C228        9700          L     R15,BINSRT                                               51090021
 007182 05EF                        9701          BALR  R14,R15             BR TO INSERT ROUTINE                 51096021
 007184 58F0 DF3C      0C47C        9702          L     R15,MTEMP1                                               51102021
 007188 D200 2000 DEA8 00000 0C3E8  9703          MVC   DX0(LX1,R2),LID+NX20          LEVEL NO. OF LID.          51108021
 00718E D202 2001 DEA1 00001 0C3E1  9704          MVC   DX1(LX3,R2),LID+NX13      DICTPTR OF LID.                51114021
 007194 D200 2004 DE95 00004 0C3D5  9705          MVC   DX4(LX1,R2),LID+NX1       MINCOD OF LID.                 51120021
 00719A D202 DDEC DEA9 0C32C 0C3E9  9706          MVC   LITBUF(LX3),LID+NX21                                     51126021
 0071A0 94FE DEDD      0C41D        9707          NI    MSW,XXFE             RESET SWITCH.                       51132021
 0071A4 47F0 F2BA      0721A        9708          BC    UNCOND,RDF045       BRANCH                               51138021
1PH20     IKFCBL20                                                                                              PAGE  225
-  LOC  OBJECT CODE    ADDR1 ADDR2  STMT   SOURCE STATEMENT                                       ASM 0201 11.03 02/14/15
00071A8 5870 DABC      0BFFC        9709 RDF030   L     R7,RDFPAR           DELETE ENTRY WITH HIGHER LEVEL N     51144021
 0071AC 5887 0000      00000        9710          L     R8,DX0(R7)                                               51150021
 0071B0 5878 0000      00000        9711          L     R7,DX0(R8)                                               51156021
 0071B4 5470 D4C4      0BA04        9712          N     R7,MK0932                                                51162021
 0071B8 4A78 0004      00004        9713          AH    R7,DX4(R8)                                               51168021
 0071BC 5B70 D424      0B964        9714          S     R7,TWELVE           R7 POINTS TO LAST ENTRY IN RDFST     51174021
 0071C0 4858 0004      00004        9715          LH    R5,DX4(R8)                                               51180021
 0071C4 5B50 D424      0B964        9716          S     R5,TWELVE                                                51186021
 0071C8 4058 0004      00004        9717          STH   R5,DX4(R8)                                               51192021
 0071CC 5B20 D424      0B964        9718          S     R2,TWELVE           R2 POINTS TO START OF NEXT NEW E     51198021
 0071D0 5850 DAC4      0C004        9719          L     R5,RNMPAR           DELETE ENTRIES IN RNMTBL WITH LO     51204021
 0071D4 5865 0000      00000        9720          L     R6,DX0(R5)              LEVEL NOS.                       51210021
 0071D8 5856 0000      00000        9721          L     R5,DX0(R6)                                               51216021
 0071DC 5450 D4C4      0BA04        9722          N     R5,MK0932                                                51222021
 0071E0 4A56 0004      00004        9723          AH    R5,DX4(R6)                                               51228021
 0071E4 5B50 D408      0B948        9724 RDF035   S     R5,FIVE             R5 POINTS TO LAST/NEXT ENTRY IN      51234021
 0071E8 D500 5000 D688 00000 0BBC8  9725          CLC   DX0(LX1,R5),CILEV     IS LEVNO LOWER THAN CI.            51240021
 0071EE 47D0 F1EE      0714E        9726          BC    NOTHI,RDF025        BRANCH                               51246021
 0071F2 4816 0004      00004        9727          LH    R1,DX4(R6)              ADJUST THE TAMM.                 51252021
 0071F6 5B10 D408      0B948        9728          S     R1,FIVE                                                  51258021
 0071FA 4016 0004      00004        9729          STH   R1,DX4(R6)                                               51264021
 0071FE 47F0 F284      071E4        9730          BC    UNCOND,RDF035       BRANCH                               51270021
                                    9731 *                                                                       51276021
 007202 5850 DABC      0BFFC        9732 RDF040   L     R5,RDFPAR                                                51282021
 007206 5865 0000      00000        9733          L     R6,DX0(R5)                                               51288021
 00720A 4856 0004      00004        9734          LH    R5,DX4(R6)           ADJUST TAMM DISP FOR ENTRY NOT P    51294021
 00720E 4B50 D426      0B966        9735          SH    R5,TWELVE+NX2                                            51300021
 007212 4056 0004      00004        9736          STH   R5,DX4(R6)                                               51306021
 007216 47F0 F212      07172        9737          BC    UNCOND,RDF029       BR TO SEE IF LID IS OBJ OF REDF      51312021
 00721A 45E0 F3F8      07358        9738 RDF045   BAL   R14,RDSYN           GO TO REDEFS SYNTAX CHECK.RTN        51318021
 00721E 5820 D994      0BED4        9739          L     R2,RS2                                                   51324021
 007222 58E0 D9CC      0BF0C        9740 RDF050   L     R14,RS14A                                                51330021
 007226 D202 DEB9 DDEC 0C3F9 0C32C  9741          MVC   APAF(LX3),LITBUF                                         51336021
 00722C 58A0 DDDC      0C31C        9742          L     R10,LREDEF                                               51342021
 007230 5880 DEBC      0C3FC        9743 RDF080   L     R8,DISP                                                  51348021
 007234 1B8A                        9744          SR    R8,R10                                                   51354021
 007236 47B0 F2E2      07242        9745          BC    NOTNEG,RDF090       BRH TO RDF090                        51360021
 00723A 5A80 D478      0B9B8        9746 RDF089   A     R8,CO4096           ADD 4096                             51366021
 00723E 4740 F2DA      0723A        9747          BC    NEG,RDF089           UNTIL G.T. OR = THAN ZERO           51372021
 007242 5080 DEBC      0C3FC        9748 RDF090   ST    R8,DISP                                                  51378021
 007246 9505 D76F      0BCAF        9749          CLI   MCI,XX05                  IF IN LINKAGE SECT             51384021
 00724A 078E                        9750        BCR   EQ,R14                      LEAVE                          51390021
 00724C 5880 B148      00148        9751          L     R8,LOCCTR                                                51396021
 007250 1B8A                        9752        SR      R8,R10                                                   51402021
 007252 5080 B148      00148        9753          ST    R8,LOCCTR        M)                                      51408021
 007256 07FE                        9754          BCR   UNCOND,R14          BRANCH                               51414021
 007258 D503 DDDC 4008 0C31C 00008  9755 RDF091   CLC   LREDEF(LX4),DX8(R4)                                      51420021
 00725E 47B0 F2A2      07202        9756          BC    NOTLO,RDF040        BRANCH                               51426021
 007262 5884 0008      00008        9757          L     R8,DX8(R4)                                               51432021
 007266 5B80 DDDC      0C31C        9758          S     R8,LREDEF            RED. SUBJ. L.T. RED. OBJ.           51438021
 00726A 9505 D76F      0BCAF        9759          CLI   MCI,XX05             IF LINKAGE SECTION                  51444021
 00726E 4780 F31C      0727C        9760          BC    EQ,RDF092             DON'T CHANGE LOCCTR                51450021
 007272 5890 B148      00148        9761          L     R9,LOCCTR                                                51456021
 007276 1B98                        9762          SR    R9,R8                                                    51462021
 007278 5090 B148      00148        9763          ST    R9,LOCCTR                                                51468021
1PH20     IKFCBL20                                                                                              PAGE  226
-  LOC  OBJECT CODE    ADDR1 ADDR2  STMT   SOURCE STATEMENT                                       ASM 0201 11.03 02/14/15
000727C 5890 DEBC      0C3FC        9764 RDF092   L     R9,DISP                                                  51474021
 007280 1B98                        9765          SR    R9,R8                                                    51480021
 007282 5090 DEBC      0C3FC        9766          ST    R9,DISP                                                  51486021
 007286 47F0 F2A2      07202        9767          BC    UNCOND,RDF040       BRANCH                               51492021
 00728A 4540 F51E      0747E        9768 RDF060   BAL  R4,RERROR            BRANCH                               51498021
 00728E 2078                        9769          DC    X'2078'             120                                  51504021
 007290 94FE DEDD      0C41D        9770          NI    MSW,XXFE                        TURN OFF SW        41532 51510021
                                    9771 *                INDICATING LID AS REDEF OBJECT                   41532 51516021
 007294 94FE D60D      0BB4D        9772          NI    MINCOD,XXFE          TURN OFF REDEFINES BIT              51522021
 007298 58E0 D9CC      0BF0C        9773          L     R14,RS14A                                                51528021
 00729C 07FE                        9774          BCR   UNCOND,R14          BRANCH                               51534021
 00729E 5550 D414      0B954        9775 RDF60A   CL    R5,EIGHT            DUPLICATE                            51540021
 0072A2 4780 F32A      0728A        9776          BE    RDF060              YES, ERROR                           51546021
 0072A6 9501 D688      0BBC8        9777          CLI   CILEV,XX01           IS IT AN 01 LEVEL ITEM              51552021
 0072AA 4770 F32A      0728A        9778          BC    NOTEQ,RDF060          NO - ERROR                         51558021
                                    9779 *        THE OBJECT PRECEDED THE LID IN A CHAIN OF REDEFINES,           51564021
                                    9780 *        WHICH IT DID IF ADDRESSING PARAMETERS ARE EQUAL IN LID         51570021
                                    9781 *        AND RNMTBL.  THIS ASSUMES LID IS ALWAYS LEVEL 01 WHEN CI       51576021
                                    9782 *        IS 01.                                                         51582021
 0072AE 5830 DAC4      0C004        9783          L     R3,RNMPAR          A(TIB12) FOR RNMTBL                   51588021
 0072B2 5813 0000      00000        9784          L     R1,DX0(R3)          A(TAMM)                              51594021
 0072B6 5831 0000      00000        9785          L     R3,DX0(R1)          A(ACTUAL RNMTBL)                     51600021
 0072BA 4811 0004      00004        9786          LH    R1,DX4(R1)          RNMTBL LENGTH                        51606021
 0072BE 5B10 D408      0B948        9787 RDF23A   S     R1,FIVE            BYPASS DUMMY FIRST ENTRY              51612021
 0072C2 4780 F39C      072FC        9788          BZ    RDF23B             RNMTBL IS EXHAUSTED                   51618021
 0072C6 5A30 D408      0B948        9789          A     R3,FIVE            NEXT RNMTBL ENTRY                     51624021
 0072CA D502 900A 3001 0000A 00001  9790          CLC   DX10(LX3,R9),DX1(R3) ADDRESSING PARAMS LID, RNMTBL       51630021
 0072D0 4770 F35E      072BE        9791          BNE   RDF23A                   LOOP THRU RNMTBL          46149 51636021
 0072D4 4110 D828      0BD68        9792          LA    R1,REDEFA                CURRENT OBJ NAME          46149 51642021
 0072D8 5010 DDD4      0C314        9793          ST    R1,PARAM                 PUT NAME ADDR IN PARAM    46149 51648021
 0072DC 5810 DC74      0C1B4        9794          L     R1,APARAM                PARAM ADDR IN R1          46149 51654021
 0072E0 58F0 DBEC      0C12C        9795          L     R15,ALATRN               BR TO ACCESS ROUTINE      46149 51660021
 0072E4 05EF                        9796          BALR  R14,R15                  TO LOCATE ATTRIBUTES      46149 51666021
 0072E6 55F0 D3F4      0B934        9797          CL    R15,ZEROS                IS OBJ NAME OK            46149 51672021
 0072EA 58F0 DF3C      0C47C        9798          L     R15,MTEMP1               RESTORE ADDRESSIBILITY    46149 51678021
 0072EE 4770 F32A      0728A        9799          BNE   RDF060                   NOT OK, ERROR             46149 51684021
 0072F2 D502 9015 2002 00015 00002  9800          CLC   DX21(LX3,R9),DX2(R2)     COMPARE ADDRESSING        46149 51690021
                                    9801 *  PARAMETERS OF LID AND CURRENT REDEF OBJECT                     46149 51696021
 0072F8 4780 F3A2      07302        9802          BE    RDF23C                   IF EQUAL, THEN REDEF VALID46149 51702021
 0072FC 4540 F51E      0747E        9803 RDF23B   BAL   R4,RERROR          NOT A VALID REDEFINES                 51708021
 007300 109A                        9804          DC    X'109A'            ERROR MESSAGE 154                     51714021
                             07302  9805 RDF23C   EQU   *                                                  46149 51720021
 007302 D202 DDD5 900D 0C315 0000D  9806          MVC   PARAM+NX1(LX3),DX13(R9)    USE LID AS REDEF        46149 51726021
 007308 5830 DDD4      0C314        9807          L     R3,PARAM                     OBJECT                46149 51732021
 00730C 47F0 F1D4      07134        9808          BC    UNCOND,RDF024         ASSUME CORRECT                     51738021
                                    9809 *                                                                       51744021
                                    9810 *  SPECIAL REDEFINES PROCESSING WHEN ITEM IS A REPORT ITEM. NO ERRO     51750021
                                    9811 *   CHECKING IS DONE.                                                   51756021
 007310 5880 DEC0      0C400        9812 RDF100   L     R8,RPTRDF-NX1                                            51762021
 007314 8880 0008      00008        9813          SRL   R8,DX8                                                   51768021
 007318 5480 D4E4      0BA24        9814          N     R8,MK2132                                                51774021
 00731C 4A80 DF5E      0C49E        9815          AH    R8,REDPLS                                                51780021
 007320 5080 DEBC      0C3FC        9816          ST    R8,DISP                                                  51786021
 007324 4280 DEBA      0C3FA        9817          STC   R8,APAF+NX1                                              51792021
 007328 D100 DEB9 DEBE 0C3F9 0C3FE  9818          MVN   APAF(LX1),DISP+NX2                                       51798021
1PH20     IKFCBL20                                                                                              PAGE  227
-  LOC  OBJECT CODE    ADDR1 ADDR2  STMT   SOURCE STATEMENT                                       ASM 0201 11.03 02/14/15
000732E D200 DEBB DEC3 0C3FB 0C403  9819          MVC   APAF+NX2(LX1),RPTRDF+NX2  RESTORE BL NUMBER              51804021
 007334 58E0 D9CC      0BF0C        9820          L     R14,RS14A                                                51810021
 007338 07FE                        9821          BCR   UNCOND,R14          BRANCH                               51816021
                                    9822 *                                                                       51822021
                                    9823 *  RESTORE ADDRESS OF LGS AFTER CALL TO ACCESS ROUTINE                  51828021
                                    9824 *                                                                       51834021
 00733A 5890 DAD4      0C014        9825 RDF105   L     R9,GPARAM           R9 = A(TIB)                          51840021
 00733E 58A9 0000      00000        9826          L     R10,DX0(R9)          R10 = A(TAMM)                       51846021
 007342 589A 0000      00000        9827          L     R9,DX0(R10)          R9 = 1-BYTE CODE + A(TABLE)         51852021
 007346 5490 D4C4      0BA04        9828          N     R9,MK0932           R9 = A(TABLE)                        51858021
 00734A 4A9A 0004      00004        9829          AH    R9,DX4(R10)          R9 = A(END OF TABLE)                51864021
 00734E 5B90 D444      0B984        9830          S     R9,CON24            R9 = A(LGS)                          51870021
 007352 5090 DC6C      0C1AC        9831          ST    R9,LGS                                                   51876021
 007356 07FE                        9832          BCR   UNCOND,R14          BRANCH                               51882021
1PH20     IKFCBL20                                                                                              PAGE  228
-  LOC  OBJECT CODE    ADDR1 ADDR2  STMT   SOURCE STATEMENT                                       ASM 0201 11.03 02/14/15
0                                   9834 *=2   REDEFINES SYNTAX CHECKING ROUTINE (RDSYN)                         51894021
                                    9835 *=E            SUBJECT OF REDEFINES HAS AN OCCURS-DEP-ON CLAUSE.        51900021
                                    9836 *=E            OBJECT OF REDEFINES NOT FOUND.                           51906021
                                    9837 *=E            SUBJECT AND OBJECT OF REDEFINES HAVE DIFF LEVEL NO.      51912021
                                    9838 *=E            OBJECT OF REDEFINES IS SUBSCRIPTED.                      51918021
                                    9839 *=E            OBJECT OF REDEFINES IS A VARIABLE LENGTH GROUP.          51924021
                                    9840 *=E            SUBJECT OF REDEFINES HAS GREATER LENGTH THAN ITS OBJ     51930021
                                    9841 *                                                                       51936021
                                    9842 *  THIS ROUTINE CHECKS THE SYNTAX OF OBJECT AND SUBJECT OF REDEFINE     51942021
                                    9843 *                                                                       51948021
 007358 50E0 D9C4      0BF04        9844 RDSYN    ST    R14,RS14                                                 51954021
 00735C 94FE DEDD      0C41D        9845          NI    MSW,XXFE             ERROR SW SET OFF                    51960021
 007360 D703 DF5C DF5C 0C49C 0C49C  9846          XC    REDDIF(LX4),REDDIF                                       51966021
 007366 9108 D677      0BBB7        9847          TM    ITMCLS+NX1,XX08      EXIT IF ITEM IS IN REPORT.          51972021
 00736A 071E                        9848          BCR   ONES,R14            BRANCH                               51978021
 00736C 9180 D677      0BBB7        9849          TM    ITMCLS+NX1,XX80      IS CI SUBJECT OF AN OCCURS-DEP-O    51984021
 007370 4780 F41A      0737A        9850          BC    ZERO,RDS010         BRANCH                               51990021
 007374 4540 F51E      0747E        9851          BAL   R4,RERROR           BRANCH                               51996021
 007378 0079                        9852          DC    X'0079'             121                                  52002021
 00737A 5850 DAC4      0C004        9853 RDS010   L     R5,RNMPAR                                                52008021
 00737E 5865 0000      00000        9854          L     R6,DX0(R5)                                               52014021
 007382 5856 0000      00000        9855          L     R5,DX0(R6)           GET TABLE ADDRESS FROM TAMM.        52020021
 007386 5450 D4C4      0BA04        9856          N     R5,MK0932                                                52026021
 00738A 1845                        9857          LR    R4,R5                                                    52032021
 00738C 4A56 0004      00004        9858          AH    R5,DX4(R6)                                               52038021
 007390 5B50 D408      0B948        9859          S     R5,FIVE                                                  52044021
 007394 9101 DEDD      0C41D        9860          TM    MSW,XX01             IS ERROR SW ON                      52050021
 007398 4710 F46C      073CC        9861          BC    ONES,RDS030         YES, BRANCH                          52056021
 00739C D500 D688 5000 0BBC8 00000  9862 RDS015   CLC   CILEV(LX1),DX0(R5)      FIND THE ENTRY WITH THE SAME L   52062021
 0073A2 4770 F45A      073BA        9863          BC    NOTEQ,RDS025        NO                                   52068021
 0073A6 D502 D681 5001 0BBC1 00001  9864          CLC   OBJRED+NX1(LX3),DX1(R5) IS DICTIONARY POINTER THE SAME   52074021
 0073AC 4780 F46C      073CC        9865          BC    EQ,RDS030           BRANCH                               52080021
 0073B0 5B50 D408      0B948        9866 RDS020   S     R5,FIVE                                                  52086021
 0073B4 1945                        9867          CR    R4,R5                                                    52092021
 0073B6 4770 F43C      0739C        9868          BC    NOTEQ,RDS015        BR TO FIND ENTRY WITH SAME LEVL      52098021
 0073BA 9501 5000      00000        9869 RDS025   CLI   DX0(R5),XX01         IS IT 01                            52104021
 0073BE 4540 F51E      0747E        9870 RDS026   BAL   R4,RERROR           LNK TO ERROR MSG RTN                 52110021
 0073C2 109A                        9871          DC    X'109A'             154                                  52116021
 0073C4 9601 DEDD      0C41D        9872          OI    MSW,XX01                                                 52122021
 0073C8 47F0 F41A      0737A        9873          BC    UNCOND,RDS010       BRANCH                               52128021
                                    9874 *                                                                       52134021
                                    9875 *  OBJECT OF REDEFINES FOUND IN RNMTBL. DO SYNTAX CHECKING.             52140021
                                    9876 *                                                                       52146021
 0073CC 910C 5004      00004        9877 RDS030   TM    DX4(R5),XX0C         MBS BITS OF OBJRED MUST BE 0.       52152021
 0073D0 4780 F47A      073DA        9878          BZ    RDS050              BRH ON 0 TO RDS050                   52158021
 0073D4 4540 F51E      0747E        9879          BAL   R4,RERROR           BRANCH                               52164021
 0073D8 007B                        9880          DC    X'007B'             123                                  52170021
 0073DA 5860 DABC      0BFFC        9881 RDS050   L     R6,RDFPAR                                                52176021
 0073DE 5876 0000      00000        9882          L     R7,DX0(R6)                                               52182021
 0073E2 5867 0000      00000        9883          L     R6,DX0(R7)                                               52188021
 0073E6 5460 D4C4      0BA04        9884          N     R6,MK0932                                                52194021
 0073EA 4A67 0004      00004        9885          AH    R6,DX4(R7)                                               52200021
 0073EE 5B60 D424      0B964        9886          S     R6,TWELVE           R6 POINTS TO LAST ENTRY IN RDFST     52206021
 0073F2 4820 D678      0BBB8        9887          LH    R2,CILGN            CILGN                                52212021
 0073F6 9102 D60D      0BB4D        9888          TM    MINCOD,XX02          OCCURS CLAUSE                       52218021
1PH20     IKFCBL20                                                                                              PAGE  229
-  LOC  OBJECT CODE    ADDR1 ADDR2  STMT   SOURCE STATEMENT                                       ASM 0201 11.03 02/14/15
00073FA 4780 F4A2      07402        9889          BC    ZERO,RDS051         NO                                   52224021
 0073FE 4C20 D67C      0BBBC        9890          MH    R2,NOC              CILGN*NOC                            52230021
 007402 5926 0008      00008        9891 RDS051   C     R2,DX8(R6)           IS L(SUBJ. RED.) =  L(OBJ. RED.)    52236021
 007406 4780 F514      07474        9892          BC    EQ,RDS060           BRANCH                               52242021
 00740A 4720 F4E2      07442        9893          BC    HI,RDS053           BRANCH                               52248021
 00740E 1222                        9894          LTR   R2,R2               IF CI HAS 0 LGN, IT IS GROUP ITE     52254021
 007410 4780 F514      07474        9895          BC    ZERO,RDS060         BRANCH                               52260021
 007414 5816 0008      00008        9896          L     R1,DX8(R6)           CALCULATE THE DIFFERENCE IN SIZE    52266021
 007418 1B12                        9897          SR    R1,R2                                                    52272021
 00741A 5820 B148      00148        9898          L     R2,LOCCTR                                                52278021
 00741E 1A21                        9899          AR    R2,R1                  AND UPDATE THE LOCCTR AND DIS     52284021
 007420 5020 B148      00148        9900          ST    R2,LOCCTR                                                52290021
 007424 9505 D76F      0BCAF        9901          CLI   MCI,XX05                 IS THIS LINK SECT         42660 52296021
 007428 4770 F4D6      07436        9902          BNE   RDS052                     NO, BR                  42660 52302021
 00742C 1821                        9903          LR    R2,R1                    PUT DIFF IN R2            42660 52308021
 00742E 5A20 DE8C      0C3CC        9904          A     R2,XTRA                  SAVE XTRA BYTES TO        42660 52314021
 007432 5020 DE8C      0C3CC        9905          ST    R2,XTRA                   SUBTRACT FROM LOCCTR     42660 52320021
                             07436  9906 RDS052   EQU   *                                                  42660 52326021
 007436 5A10 DEBC      0C3FC        9907          A     R1,DISP                                                  52332021
 00743A 5010 DEBC      0C3FC        9908          ST    R1,DISP                                                  52338021
 00743E 47F0 F514      07474        9909          BC    UNCOND,RDS060       BRANCH                               52344021
 007442 5816 0008      00008        9910 RDS053   L     R1,DX8(R6)           L(OBJ. REDEFINES)                   52350021
 007446 5026 0008      00008        9911          ST    R2,DX8(R6)                                               52356021
 00744A 1B12                        9912          SR    R1,R2               ADD DIFFERENCE TO LOCCTR             52362021
 00744C 1011                        9913          LPR   R1,R1                                                    52368021
 00744E 5010 DF5C      0C49C        9914          ST    R1,REDDIF           SAVE DIFFERENCE FOR ELIPR WHICH      52374021
                                    9915 *                                   ADD THIS TO LAST GROUP ITEM         52380021
 007452 4540 F51E      0747E        9916          BAL   R4,RERROR           BRANCH TO PUT ERR MSG & ERR RTN      52386021
 007456 0076                        9917          DC    X'0076'                                                  52392021
 007458 9505 D76F      0BCAF        9918          CLI   MCI,XX05             IF NOT IN LINKAGE SECTION           52398021
 00745C 4780 F514      07474        9919          BC    EQ,RDS060           BRANCH                               52404021
 007460 5826 0004      00004        9920          L     R2,DX4(R6)                                               52410021
 007464 1A21                        9921          AR    R2,R1                                                    52416021
 007466 5026 0004      00004        9922          ST    R2,DX4(R6)                                               52422021
 00746A 4226 0002      00002        9923          STC   R2,DX2(R6)           ADJUST APAF IN RDFSTK.              52428021
 00746E D100 6001 6006 00001 00006  9924          MVN   DX1(LX1,R6),DX6(R6)                                      52434021
 007474 58E0 D9C4      0BF04        9925 RDS060   L     R14,RS14                                                 52440021
 007478 94FE DEDD      0C41D        9926          NI    MSW,XXFE             TURN OFF ERROR SW IF ON             52446021
 00747C 07FE                        9927          BCR   UNCOND,R14          RETURN                               52452021
 00747E 4804 0000      00000        9928 RERROR   LH    R0,DX0(R4)           R0= ERROR MSG =                     52458021
 007482 58F0 DBC0      0C100        9929          L     R15,AERRTN                                               52464021
 007486 05EF                        9930          BALR  R14,R15             CALL ERROR RTOUINE                   52470021
 007488 58F0 DF3C      0C47C        9931          L     R15,MTEMP1                                               52476021
 00748C 4144 0002      00002        9932          LA    R4,DX2(R4)                                               52482021
 007490 07F4                        9933          BCR   UNCOND,R4           BRANCH                               52488021
1PH20     IKFCBL20                                                                                              PAGE  230
-  LOC  OBJECT CODE    ADDR1 ADDR2  STMT   SOURCE STATEMENT                                       ASM 0201 11.03 02/14/15
0                            07492  9935          USING *,R15                                                    52500021
 007492                             9936 VALSER   DS    0H                                                       52506021
 007492 50F0 DD64      0C2A4        9937          ST    R15,VALSAV                                               52512021
 007496 9131 DD6C      0C2AC        9938          TM    VALTSW,SWON         1ST TIME FOR ENTRY                   52518021
 00749A 4710 F038      074CA        9939          BO    VALT08              NO                                   52524021
 00749E 9180 D5A5      0BAE5        9940          TM    PTBLSW+NX2,XX80      TABLE PRIMED YET                    52530021
 0074A2 4710 F026      074B8        9941          BO    VALT05              YES                                  52536021
 0074A6 4110 DB4C      0C08C        9942          LA    R1,PVALTR                                                52542021
 0074AA 58F0 DCE4      0C224        9943          L     R15,BPRIME                                               52548021
 0074AE 05EF                        9944          BALR  R14,R15             GO PRIME TABLE                       52554021
 0074B0 58F0 DD64      0C2A4        9945          L     R15,VALSAV                                               52560021
 0074B4 9680 D5A5      0BAE5        9946          OI    PTBLSW+NX2,XX80      VALTHR PRIMED SW                    52566021
 0074B8 9631 DD6C      0C2AC        9947 VALT05   OI    VALTSW,SWON         TURN ON VALUE THRU SW                52572021
 0074BC 5810 DB4C      0C08C        9948          L     R1,PVALTR                                                52578021
 0074C0 5811 0000      00000        9949          L     R1,DX0(R1)                                               52584021
 0074C4 D201 DD68 1004 0C2A8 00004  9950          MVC   VALDSP(LX2),DX4(R1)   SAVE DISPL IN TABLE                52590021
 0074CA 4317 0001      00001        9951 VALT08   IC    R1,DX1(R7)           CONT OF ENTRY                       52596021
 0074CE 4410 F12A      075BC        9952          EX    R1,VALT90           MOVE VALUE CLAUSE                    52602021
 0074D2 1B11                        9953 VALT10   SR    R1,R1                                                    52608021
 0074D4 9431 DD6C      0C2AC        9954          NI    VALTSW,SWON                                              52614021
 0074D8 9108 7000      00000        9955          TM    DX0(R7),VALTHR       IS IT VALUE THRU                    52620021
 0074DC 4780 F052      074E4        9956          BZ    VALT12              NO                                   52626021
 0074E0 9608 DD6C      0C2AC        9957          OI    VALTSW,VALTHR       SET BIT ON                           52632021
 0074E4 D200 DD6D 7000 0C2AD 00000  9958 VALT12   MVC   VALSV1(LX1),DX0(R7)   MOVE LITERAL TYPE                  52638021
 0074EA 9407 DD6D      0C2AD        9959          NI    VALSV1,XX07          CLEAR OTHER BITS                    52644021
 0074EE 4310 DD6D      0C2AD        9960          IC    R1,VALSV1                                                52650021
 0074F2 8910 0002      00002        9961          SLL   R1,DX2               MULTIPLY BY 2                       52656021
 0074F6 5070 DDA4      0C2E4        9962          ST    R7,VALSV2                                                52662021
 0074FA D200 D60D D7A1 0BB4D 0BCE1  9963          MVC   MINCOD(LX1),PMINCD    SET MINOR CODE FIELD               52668021
 007500 9233 D688      0BBC8        9964          MVI   CILEV,XX33           RESET FIELDS                        52674021
 007504 D201 D678 D80C 0BBB8 0BD4C  9965          MVC   CILGN(LX2),PCILGN                                        52680021
 00750A 58F0 DC04      0C144        9966          L     R15,AVALGN                                               52686021
 00750E 5850 DCB0      0C1F0        9967          L     R5,AVAL30                                                52692021
 007512 07F5                        9968          BR    R5                  GO PROCESS LIKE NORMAL 88            52698021
 007514 58F0 DD64      0C2A4        9969 VALT20   L     R15,VALSAV                                               52704021
 007518 9139 DD6C      0C2AC        9970          TM    VALTSW,XX39         VAL SERIES OR VAL THRU?        05913 52710021
 00751C 4780 F0BA      0754C        9971          BZ    VALT40               NO, BRANCH                    05913 52716021
 007520 1B66                        9972          SR    R6,R6                                                    52722021
 007522 5870 DDA4      0C2E4        9973          L     R7,VALSV2                                                52728021
 007526 4367 0001      00001        9974          IC    R6,DX1(R7)           GET COUNT OF ENTRY                  52734021
 00752A 58F0 DC88      0C1C8        9975          L     R15,ASRCHT                                               52740021
 00752E 5850 DCB8      0C1F8        9976          L     R5,ACHNXT                                                52746021
 007532 0535                        9977          BALR  R3,R5               GO GET NEXT ELEMENT                  52752021
 007534 58F0 DD64      0C2A4        9978          L     R15,VALSAV                                               52758021
 007538 9110 D5AA      0BAEA        9979          TM    COPYSW,XX10          EOF                                 52764021
 00753C 47E0 F0B2      07544        9980          BC    NOTONE,VALT30       NO                                   52770021
 007540 47F0 F0BA      0754C        9981          B     VALT40              YES, GO ENTER COND NAME              52776021
                                    9982 *                                      IN DICTIONARY                    52782021
 007544 9110 7000      00000        9983 VALT30   TM    DX0(R7),XX10         STILL VALUE THRU                    52788021
 007548 4710 F038      074CA        9984          BO    VALT08              YES, GO PROCESS                      52794021
 00754C 9680 D611      0BB51        9985 VALT40   OI    ATTRIB+NX5,XX80      NO, END OF SERIES                   52800021
 007550 9202 D612      0BB52        9986          MVI   ATTRIB+NX6,XX02      COUNT OF FOLLOWING BYTES            52806021
 007554 D201 D613 DD68 0BB53 0C2A8  9987          MVC   ATTRIB+NX7(LX2),VALDSP MOVE LITERAL DSIPL IN TABLE       52812021
 00755A 4100 0001      00001        9988          LA    R0,DX1                                                   52818021
 00755E 5810 DB4C      0C08C        9989          L     R1,PVALTR                                                52824021
1PH20     IKFCBL20                                                                                              PAGE  231
-  LOC  OBJECT CODE    ADDR1 ADDR2  STMT   SOURCE STATEMENT                                       ASM 0201 11.03 02/14/15
0007562 58F0 DCE8      0C228        9990          L     R15,BINSRT                                               52830021
 007566 05EF                        9991          BALR  R14,R15             END OF TABLE ENTRY                   52836021
 007568 58F0 DD64      0C2A4        9992          L     R15,VALSAV                                               52842021
 00756C 92FF 2000      00000        9993          MVI   DX0(R2),XXFF         END OF THIS ENTRY                   52848021
 007570 4110 0009      00009        9994          LA    R1,DX9                                                   52854021
 007574 D203 D60D D818 0BB4D 0BD58  9995          MVC   ATTRIB+NX1(LX4),PDICPT RESET FIELD                       52860021
 00757A 4210 DD00      0C240        9996          STC   R1,ATRCNT                                                52866021
 00757E 58F0 DBFC      0C13C        9997          L     R15,AENTNM                                               52872021
 007582 9200 DCFC      0C23C        9998          MVI   CICODE,XX00                                              52878021
 007586 4110 DCFC      0C23C        9999          LA    R1,CIPARM                                                52884021
 00758A 05EF                       10000          BALR  R14,R15             ENTER COND. NAME IN DICTIONARY       52890021
 00758C 5010 D684      0BBC4       10001          ST    R1,DICTPT           SAVE DICT PTR                        52896021
 007590 5010 DF44      0C484       10002          ST    R1,REALPTR                                               52902021
 007594 58F0 DD64      0C2A4       10003          L     R15,VALSAV                                               52908021
 007598 D700 DD6C DD6C 0C2AC 0C2AC 10004          XC    VALTSW(LX1),VALTSW   TURN OOF SW                         52914021
 00759E D700 DFC0 DFC0 0C500 0C500 10005          XC    CHKLTH,CHKLTH            TURN SW OFF               37381 52920021
 0075A4 9102 D5AA      0BAEA       10006          TM    COPYSW,XX02              IS IT END OF SECT         43486 52926021
 0075A8 4710 F120      075B2       10007          BC    ONES,VALT50                 YES,BR                 43486 52932021
 0075AC D200 D5B7 7002 0BAF7 00002 10008          MVC   NXTLEV(LX1),DX2(R7)        SAVE NXT LEVEL NO       43486 52938021
                             075B2 10009 VALT50   EQU   *                                                  43486 52944021
 0075B2 5070 D9F4      0BF34       10010          ST    R7,BSAVE+NX28        CHANGE R7 FOR RETURN                52950021
                             075B6 10011 VALT80 EQU     *                                                        52956021
                                   10012 *VALT80  TM    COPYSW,XX10         WAS END OF FILE FOUND                52962021
                                   10013 *      BC      NOTONE,VALT85      NO,RETURN TO CALLER                   52968021
                                   10014 *      L       R15,APHTRM         YES                                   52974021
                                   10015 *      BR      R15                GO TO TERMINATE                       52980021
 0075B6 58E0 D9CC      0BF0C       10016 VALT85   L     R14,RS14A                                                52986021
 0075BA 07FE                       10017          BR    R14                 RETURN TO CALLER                     52992021
 0075BC D200 D6E6 7001 0BC26 00001 10018 VALT90   MVC   LITVAL(LX0),DX1(R7)       MOVE                     42093 52998021
1PH20     IKFCBL20                                                                                              PAGE  232
-  LOC  OBJECT CODE    ADDR1 ADDR2  STMT   SOURCE STATEMENT                                       ASM 0201 11.03 02/14/15
0                            075C2 10020          USING *,R15                                              42093 53010021
                             075C2 10021 FIGZERO  EQU   *                                                  42093 53016021
 0075C2 D501 D678 D3FA 0BBB8 0B93A 10022          CLC   CILGN(LX2),ONE+NX2        IS CI LGN = 1            42093 53022021
 0075C8 4780 F048      0760A       10023          BC    EQ,FIGZERO1                    YES, BR             42093 53028021
 0075CC 1B55                       10024          SR    R5,R5                         CLEAR REG 5          42093 53034021
 0075CE 4850 D678      0BBB8       10025          LH    R5,CILGN                     LENGTH                42093 53040021
 0075D2 0650                       10026          BCTR  R5,R0                     DECR LGN BY 1            42093 53046021
 0075D4 4050 F062      07624       10027          STH   R5,SAVE5                                           42093 53052021
 0075D8 D201 C004 F062 00004 07624 10028          MVC   DX4(LX2,R12),SAVE5          LGN FOR F0'S           42093 53058021
 0075DE 5840 B148      00148       10029          L     R4,LOCCTR                CURRENT LOCATION CTR      42093 53064021
 0075E2 1A54                       10030          AR    R5,R4                    LOCATION FOR C0 IN R5     42093 53070021
 0075E4 5050 F062      07624       10031          ST    R5,SAVE5                    SAVE IT                42093 53076021
 0075E8 45E0 F066      07628       10032          BAL   R14,PUTOUT1               WRITE OUT TEXT           42093 53082021
 0075EC 41C0 DDEC      0C32C       10033          LA    R12,LITBUF                 SET UP STARTING         42093 53088021
 0075F0 50C0 DEEC      0C42C       10034          ST    R12,ADDRES                ADDR OF DATA             42093 53094021
 0075F4 41C0 DDED      0C32D       10035          LA    R12,LITBUF+NX1                 LITBUF+NX1          42093 53100021
 0075F8 9228 DDEC      0C32C       10036          MVI   LITBUF,XX28              SET UP FOR C0 CONSTANT    42093 53106021
 0075FC D202 C000 F063 00000 07625 10037          MVC   DX0(LX3,R12),SAVE5+NX1   LOCATION FOR C0           42093 53112021
 007602 92FF C003      00003       10038          MVI   DX3(R12),FIGCON             FIGCON CODE            42093 53118021
 007606 9201 C006      00006       10039          MVI   DX6(R12),XX01                COUNT                 42093 53124021
 00760A D201 C004 D3FA 00004 0B93A 10040 FIGZERO1 MVC   DX4(LX2,R12),ONE+NX2     LENGTH = 1                53547 53130021
 007610 92C0 C007      00007       10041          MVI   DX7(R12),XXC0            SIGNED ZERO               53547 53136021
 007614 D203 DE84 D418 0C3C4 0B958 10042          MVC   NMPUT(R4),NINE            OUTPUT BYTE CNT          42093 53142021
 00761A 45E0 F066      07628       10043          BAL   R14,PUTOUT1                PUT OUT TEXT            42093 53148021
 00761E 58E0 D9D0      0BF10       10044          L     R14,RS14B                     RETURN ADDR          42093 53154021
 007622 07FE                       10045          BCR   UNCOND,R14                    RETURN               42093 53160021
 007624 00000000                   10046 SAVE5    DC    F'0'                         SAVE AREA             42093 53166021
1PH20     IKFCBL20                                                                                              PAGE  233
-  LOC  OBJECT CODE    ADDR1 ADDR2  STMT   SOURCE STATEMENT                                       ASM 0201 11.03 02/14/15
0                            07628 10048 PUTOUT1  EQU   *                                                  42093 53178021
 007628 5810 DB84      0C0C4       10049          L     R1,COSADR                                          42093 53184021
 00762C 5820 DEEC      0C42C       10050          L     R2,ADDRES                    STARTING ADDRESS      42093 53190021
 007630 5830 DE84      0C3C4       10051          L     R3,NMPUT                 NO. OF BYTES OF OUTPUT    42093 53196021
 007634 0501                       10052          BALR  R0,R1                         BR                   42093 53202021
 007636 14                         10053          DC    X'14'                       FILE 4                 42093 53208021
 007637 00
 007638 07FE                       10054          BCR   UNCOND,R14                       BR                42093 53214021
1PH20     IKFCBL20                                                                                              PAGE  234
-  LOC  OBJECT CODE    ADDR1 ADDR2  STMT   SOURCE STATEMENT                                       ASM 0201 11.03 02/14/15
1PH20     IKFCBL20                                                                                              PAGE  235
-  LOC  OBJECT CODE    ADDR1 ADDR2  STMT   SOURCE STATEMENT                                       ASM 0201 11.03 02/14/15
0                                  10057 *=1   VALUE CLAUSE PROCESSING CONTROL (VALGEN)                          53232021
                                   10058 *                                                                       53238021
                                   10059 *  VALGEN CALLS ON ANLIT, NUMLIT, FLPTLT, FIGNNM, AND FIGZER ROUTIN     53244021
                                   10060 *    TO DETERMINE THAT THE DIFFERENT TYPES OF LITERALS ASSOCIATED W     53250021
                                   10061 *    THE VALUE CLAUSE CONFORMS TO THE ATTRIBUTES FOR THE CURRENT IT     53256021
                                   10062 *    AND TO PAD OUT THE LITERAL WITH LEADING OR TRAILING ZEROES OR      53262021
                                   10063 *    TRAILING BLANKS IF REQUIRED.                                       53268021
                                   10064 *                                                                       53274021
 007640                            10065 IKF211   CSECT                                                          53280021
                             07640 10066          USING *,R15                                                    53286021
 007640 50E0 D9D0      0BF10       10067 VALGEN   ST    R14,RS14B           STORE RETURN ADDRESS                 53292021
 007644 9533 D688      0BBC8       10068          CLI   CILEV,XX33           IS THIS A CONDITION-NAME.           53298021
 007648 4770 F028      07668       10069          BC    NOTEQ,VAL010        BRANCH TO CHECK ITEM                 53304021
 00764C D200 D60D D7A1 0BB4D 0BCE1 10070          MVC   MINCOD(LX1),PMINCD   INITIALIZE.                         53310021
 007652 D201 D678 D80C 0BBB8 0BD4C 10071          MVC   CILGN(LX2),PCILGN                                        53316021
 007658 D200 D612 D7A6 0BB52 0BCE6 10072          MVC   LEVNUM(LX1),PLEVNM   SAVE SIGN                           53322021
 00765E D201 D613 D7A7 0BB53 0BCE7 10073          MVC   VILGN(LX2),PVILGN                                        53328021
 007664 47F0 F054      07694       10074          BC    UNCOND,VAL020       BR TO PUT LIT TYPE CODE IN REG       53334021
                             07668 10075 VAL010   EQU   *                                                        53340021
 007668 9504 D76F      0BCAF       10076          CLI   MCI,XX04             IS ITEM IN WORKING-STORAGE SECTI    53346021
 00766C 4780 F044      07684       10077          BC    EQ,VAL015           YES                                  53352021
 007670 9506 D76F      0BCAF       10078          CLI   MCI,XX06             IS ITEM IN REPORT SECTION           53358021
 007674 4780 F044      07684       10079          BC    EQ,VAL015           YES                                  53364021
                             07678 10080 VAL012   EQU   *                   VALUE CLAUSE IN LEGAL ONLY IN LE     53370021
 007678 4540 F098      076D8       10081          BAL   R4,VERROR               88 IN FILE SECT. AND LINKAGE     53376021
 00767C 007D                       10082          DC    X'007D'             MSG 125                              53382021
 00767E 58E0 D9D0      0BF10       10083 VAL013   L     R14,RS14B                                                53388021
 007682 07FE                       10084          BCR   UNCOND,R14          BRANCH                               53394021
 007684 41C0 DDED      0C32D       10085 VAL015   LA    R12,LITBUF+NX1                                           53400021
 007688 9228 DDEC      0C32C       10086          MVI   LITBUF,XX28                                              53406021
 00768C 4110 DDEC      0C32C       10087          LA    R1,LITBUF                                                53412021
 007690 5010 DEEC      0C42C       10088          ST    R1,ADDRES                                                53418021
 007694 1B11                       10089 VAL020   SR    R1,R1                                                    53424021
 007696 4310 D676      0BBB6       10090          IC    R1,ITMCLS           PUT LITERAL TYPE CODE IN REGISTE     53430021
 00769A 8810 0001      00001       10091          SRL   R1,DX1(R0)                                               53436021
 00769E 5410 D4DC      0BA1C       10092          N     R1,MK2830                                                53442021
 0076A2 1B55                       10093 VAL030   SR    R5,R5               CLEAR REGISTER FOR LATER ROUTINE     53448021
 0076A4 47F1 F064      076A4       10094          BC    UNCOND,*(R1)        BRANCH                               53454021
                                   10095 *  BRANCH ON TYPE OF LITERAL IN VALUE CLAUSE.                           53460021
                                   10096 *                                                                       53466021
 0076A8 47F0 F0AC      076EC       10097          BC    UNCOND,ANLIT        ALPHANUMERIC LITERAL.                53472021
 0076AC 47F0 F678      07CB8       10098          BC    UNCOND,NUMLIT       NUMERIC LITERAL.                     53478021
 0076B0 47F0 F2CA      0790A       10099          BC    UNCOND,FLPTLT       FLOATING POINT LITERAL.              53484021
 0076B4 47F0 F398      079D8       10100          BC    UNCOND,FIGNNM       FIGURATIVE NON-NUMERIC.              53490021
 0076B8 47F0 F4BA      07AFA       10101          BC    UNCOND,FIGZER       FIGURATIVE ZERO.                     53496021
 0076BC 58F0 DCB4      0C1F4       10102          L     R15,AVALSR          VALUE IS SERIES                      53502021
                                   10103 *                                      BRANCHING TABLE                  53508021
 0076C0 58F0 DCB4      0C1F4       10104          L     R15,AVALSR          NEED NOOP                            53514021
 0076C4 07FF                       10105          BR    R15                 BRANCH                               53520021
1PH20     IKFCBL20                                                                                              PAGE  236
-  LOC  OBJECT CODE    ADDR1 ADDR2  STMT   SOURCE STATEMENT                                       ASM 0201 11.03 02/14/15
1PH20     IKFCBL20                                                                                              PAGE  237
-  LOC  OBJECT CODE    ADDR1 ADDR2  STMT   SOURCE STATEMENT                                       ASM 0201 11.03 02/14/15
0                                  10108 *                                                                       53538021
                                   10109 *  THIS ROUTINE WRITES OUT A-TEXT ON FILE-4 BY CALLING COS ROUTINES     53544021
                                   10110 *        INPUT -- NMPUT HAS THE NO. OF BYTES TO BE PUT OUT              53550021
                                   10111 *                 THE STARTING ADDRESS OF DATA IS AT LITBUF             53556021
                                   10112 *                                                                       53562021
 0076C6 5810 DB84      0C0C4       10113 PUTOUT   L     R1,COSADR                                                53568021
 0076CA 5820 DEEC      0C42C       10114          L     R2,ADDRES           STARTING ADDRESS.                    53574021
 0076CE 5830 DE84      0C3C4       10115          L     R3,NMPUT            NO. OF BYTE OF OUTPUT                53580021
 0076D2 0501                       10116          BALR  R0,R1               BRANCH                               53586021
 0076D4 14                         10117          DC    X'14'               FILE 4                               53592021
 0076D5 00
 0076D6 07FE                       10118          BCR   UNCOND,R14          BRANCH                               53598021
                                   10119 *                                                                       53604021
 0076D8 4804 0000      00000       10120 VERROR   LH    R0,DX0(R4)           R0= ERROR =                         53610021
 0076DC 58F0 DBC0      0C100       10121          L     R15,AERRTN                                               53616021
 0076E0 05EF                       10122          BALR  R14,R15             CALL ERROR RTN                       53622021
 0076E2 58F0 DC04      0C144       10123          L     R15,AVALGN                                               53628021
 0076E6 4144 0002      00002       10124          LA    R4,DX2(R4)                                               53634021
 0076EA 07F4                       10125          BCR   UNCOND,R4           BRANCH                               53640021
1PH20     IKFCBL20                                                                                              PAGE  238
-  LOC  OBJECT CODE    ADDR1 ADDR2  STMT   SOURCE STATEMENT                                       ASM 0201 11.03 02/14/15
0                                  10127 *=2   ALPHANUMERIC LITERAL PROCESSING ROUTINE (ANLIT)                   53652021
                                   10128 *=E            LITERAL DOES NOT CONFORM TO SPECIFICATION,TRUNCATED      53658021
                                   10129 *=               THE LITERAL IS CHANGED TO ZERO.                        53664021
                                   10130 *                                                                       53670021
                                   10131 *  THIS ROUTINE IS CALLED BY VALGEN TO PROCESS ALPHANUMERIC LITERAL     53676021
                                   10132 *    ASSOCIATED WITH THE VALUE CLAUSE.                                  53682021
                                   10133 *                                                                       53688021
 0076EC 4350 D60D      0BB4D       10134 ANLIT    IC    R5,MINCOD           IS MINOR CODE ALPHANUMERIC.          53694021
 0076F0 8850 0004      00004       10135          SRL   R5,DX4(R0)                                               53700021
 0076F4 5550 D408      0B948       10136          CL    R5,FIVE             IS IT REPORT                         53706021
 0076F8 4780 F14A      0778A       10137          BE    ANL030              YES                                  53712021
 0076FC 5550 D40C      0B94C       10138          CL    R5,SIX              IS IT STERLING REPORT                53718021
 007700 4780 F14A      0778A       10139          BE    ANL030              YESA                                 53724021
 007704 9234 DCF8      0C238       10140          MVI   MCODE,XX34           ALPHANUMERIC CODE FOR COND-NAMES    53730021
 007708 5550 D400      0B940       10141          CL    R5,THREE                                                 53736021
 00770C 4780 F14A      0778A       10142          BC    EQ,ANL030              YES.                              53742021
 007710 5550 D42C      0B96C       10143          CL    R5,CON14                ALPHA-NUM EDITED                 53748021
 007714 4780 F14A      0778A       10144          BE    ANL030                  GO TO CHECK LENGTH               53754021
 007718 9131 DDB4      0C2F4       10145          TM    GRP88,SWON          88 UNDER GROUP                       53760021
 00771C 4710 F2B0      078F0       10146          BO    ANL160              GO OUTPUT AS IS                      53766021
 007720 5550 D3FC      0B93C       10147          CL    R5,TWO              IS MINOR CODE ALPHABETIC.            53772021
 007724 4770 F254      07894       10148          BC    NOTEQ,ANL100           ERROR IF NEITHER AL NOR AN.       53778021
                                   10149 *                                                                       53784021
                                   10150 *  MINOR CODE INDICATES AN ALPHABETIC LITERAL. CHECK IT.                53790021
                                   10151 *                                                                       53796021
 007728 4350 D6E6      0BC26       10152          IC    R5,LITVAL                                                53802021
 00772C 4120 D6E6      0BC26       10153          LA    R2,LITVAL           STARTING BYTE OF LITERAL.            53808021
 007730 1A52                       10154          AR    R5,R2                                                    53814021
 007732 5A20 D3F8      0B938       10155          A     R2,ONE                                                   53820021
 007736 5840 D3F8      0B938       10156          L     R4,ONE                                                   53826021
 00773A 9540 2000      00000       10157 ANL005   CLI   DX0(R2),XX40         IS THIS BYTE A BLANK.               53832021
 00773E 4780 F142      07782       10158          BC    EQ,ANL010              YES.                              53838021
 007742 4740 F250      07890       10159          BC    LO,ANL150              ILLEGAL CHAR, ERROR.              53844021
 007746 95C1 2000      00000       10160          CLI   DX0(R2),XXC1         IS THIS BYTE AN A                   53850021
 00774A 4740 F250      07890       10161          BC    LO,ANL150              NOT AL CHARACTER, ERROR.          53856021
 00774E 4780 F142      07782       10162          BC    EQ,ANL010              IT IS A                           53862021
 007752 95C9 2000      00000       10163          CLI   DX0(R2),XXC9                    OR                       53868021
 007756 47D0 F142      07782       10164          BC    NOTHI,ANL010                      B THROUGH I            53874021
 00775A 95D1 2000      00000       10165          CLI   DX0(R2),XXD1         IS THIS BYTE J TO R                 53880021
 00775E 4740 F250      07890       10166          BC    LO,ANL150              NOT AL, ERROR.                    53886021
 007762 4780 F142      07782       10167          BC    EQ,ANL010              IT IS J                           53892021
 007766 95D9 2000      00000       10168          CLI   DX0(R2),XXD9                    OR                       53898021
 00776A 47D0 F142      07782       10169          BC    NOTHI,ANL010                      K THROUGH R.           53904021
 00776E 95E2 2000      00000       10170          CLI   DX0(R2),XXE2         IS THIS BYTE S TO Z                 53910021
 007772 4740 F250      07890       10171          BC    LO,ANL150              NOT AL, ERROR.                    53916021
 007776 4780 F142      07782       10172          BC    EQ,ANL010              IT IS S                           53922021
 00777A 95E9 2000      00000       10173          CLI   DX0(R2),XXE9                    OR T THROUGH Z.          53928021
 00777E 4720 F250      07890       10174          BC    HI,ANL150              NOT AL, ERROR.                    53934021
 007782 8624 F14A      0778A       10175 ANL010   BXH   R2,R4,ANL030        GO COMPARE LNGTH OF LIT              53940021
 007786 47F0 F0FA      0773A       10176          BC    UNCOND,ANL005       GO CHECK NEXT BYTE.                  53946021
                                   10177 *                                                                       53952021
                                   10178 *  COMPARE LENGTH OF LITERAL WITH THE LENGTH SPECIED IN ATTRIBUTES.     53958021
                                   10179 *                                                                       53964021
 00778A 1B55                       10180 ANL030   SR    R5,R5                                                    53970021
 00778C 4350 D6E6      0BC26       10181          IC    R5,LITVAL                                                53976021
1PH20     IKFCBL20                                                                                              PAGE  239
-  LOC  OBJECT CODE    ADDR1 ADDR2  STMT   SOURCE STATEMENT                                       ASM 0201 11.03 02/14/15
0007790 4860 D678      0BBB8       10182          LH    R6,CILGN            LENGTH IN ATTRIBUTES.                53982021
 007794 1956                       10183          CR    R5,R6               COMPARE LENGTH.                      53988021
 007796 4780 F16C      077AC       10184          BC    EQ,ANL050              EQUAL                             53994021
 00779A 4740 F1B6      077F6       10185          BC    LO,ANL060              TOO SHORT,PAD WITH BLANKS.        54000021
                                   10186 *                                                                       54006021
                                   10187 *  LITERAL IS LONGER THAN SPECIFIED LENGTH, TRUNCATE IT.                54012021
                                   10188 *                                                                       54018021
 00779E 9533 D688      0BBC8       10189 ANL040   CLI   CILEV,XX33           HANDLE CONDITION-NAME SEPARATELY    54024021
 0077A2 4780 F2BA      078FA       10190          BC    EQ,ANL170           BRANCH                               54030021
 0077A6 4540 F098      076D8       10191          BAL   R4,VERROR           BR AND CALL ERR RTN                  54036021
 0077AA 107E                       10192          DC    X'107E'             126                                  54042021
                                   10193 *                                                                       54048021
                                   10194 *  PUT THE LITERAL OUT.                                                 54054021
 0077AC 9533 D688      0BBC8       10195 ANL050   CLI   CILEV,XX33           HANDLE CONDITION-NAME SEPARATELY    54060021
 0077B0 9234 DCF8      0C238       10196          MVI   MCODE,XX34                                               54066021
 0077B4 4780 F2B0      078F0       10197          BC    EQ,ANL160           BRANCH                               54072021
 0077B8 D202 C000 B149 00000 00149 10198          MVC   DX0(LX3,R12),LOCCTR+NX1                                  54078021
 0077BE 9201 C003      00003       10199          MVI   DX3(R12),ANCODE      TYPE CODE                           54084021
 0077C2 D501 D678 D3F4 0BBB8 0B934 10200          CLC   CILGN(LX2),ZEROS         IS CURR ITM LGN 0         40625 54090021
 0077C8 4770 F192      077D2       10201          BNE   ANL050A             NO, DO NOT INSERT LIT LENGTH   40625 54096021
 0077CC D200 D679 D6E6 0BBB9 0BC26 10202          MVC   CILGN+NX1(LX1),LITVAL INSERT LITERAL LENGTH        40625 54102021
 0077D2                            10203 ANL050A  DS    0H                                                 40625 54108021
 0077D2 D201 C004 D678 00004 0BBB8 10204          MVC   DX4(LX2,R12),CILGN       LENGTH OF LITERAL.              54114021
 0077D8 5AC0 D40C      0B94C       10205          A     R12,SIX                                                  54120021
 0077DC 5B60 D3F8      0B938       10206          S     R6,ONE                                                   54126021
 0077E0 4460 F24A      0788A       10207          EX    R6,ANL999                                                54132021
 0077E4 5A60 D414      0B954       10208 ANL055   A     R6,EIGHT            ADD 1 BYTE FOR CONDEF PREFIX COD     54138021
 0077E8 5060 DE84      0C3C4       10209 ANL058   ST    R6,NMPUT            CALL PUTOUT FOR A-TEXT OUT-PUT       54144021
 0077EC 45E0 F086      076C6       10210          BAL   R14,PUTOUT          PUT OUT Q-RTN TEXT                   54150021
 0077F0 58E0 D9D0      0BF10       10211          L     R14,RS14B                                                54156021
 0077F4 07FE                       10212          BCR   UNCOND,R14          RETURN                               54162021
                                   10213 *                                                                       54168021
                                   10214 *  LITERAL IS TOO SHORT, PAD WITH LOW ORDER BLANKS.                     54174021
                                   10215 *                                                                       54180021
 0077F6 9533 D688      0BBC8       10216 ANL060   CLI   CILEV,XX33           HANDLE CONDITION-NAME SEPARATELY    54186021
 0077FA 4780 F278      078B8       10217          BC    EQ,ANL140           BR TO PAD COND-NAME WITH BLANKS      54192021
 0077FE 5840 B148      00148       10218 ANL062   L     R4,LOCCTR                                                54198021
 007802 5040 D900      0BE40       10219          ST    R4,FULLWD             IN WORKAREA                        54204021
 007806 1B65                       10220          SR    R6,R5               R6= NO. OF BYTES TO PAD              54210021
 007808 9200 D6E5      0BC25       10221          MVI   LITVAL-NX1,XX00      USE LITVAL COUNT FOR CONDEF COUN    54216021
 00780C 9201 D6E4      0BC24       10222          MVI   LITVAL-NX2,ANCODE    1ST CONDEF IS USER'S LITERAL        54222021
 007810 9101 D612      0BB52       10223          TM    LEVNUM,XX01          IF JUST. RIGHT. CLAUSE, PAD LEAD    54228021
 007814 47E0 F1DA      0781A       10224          BC    NOTONE,ANL065       NO                                   54234021
 007818 1A46                       10225          AR    R4,R6               YES, OFFSET TARGET ADDR. BY PADD     54240021
 00781A 5040 D900      0BE40       10226 ANL065   ST    R4,FULLWD           TARGET                               54246021
 00781E 45E0 F222      07862       10227          BAL   R14,ANL075          PUT OUT USER LITERAL CONDEF          54252021
 007822 92FF D6E4      0BC24       10228          MVI   LITVAL-NX2,FIGCON    SET UP PADDING                      54258021
 007826 9201 D6E7      0BC27       10229          MVI   LITVAL+NX1,XX01      CONDEF COUNT                        54264021
 00782A 9240 D6E8      0BC28       10230          MVI   LITVAL+NX2,XX40      BLANKS TO PAD                       54270021
 00782E 9101 D612      0BB52       10231          TM    LEVNUM,XX01          IS IT JUST. RIGHT                   54276021
 007832 47E0 F200      07840       10232          BC    NOTONE,ANL070       NO                                   54282021
 007836 D203 D900 B148 0BE40 00148 10233          MVC   FULLWD(LX4),LOCCTR        )                              54288021
 00783C 47F0 F20A      0784A       10234          BC    UNCOND,ANL072       BRANCH                               54294021
 007840 5840 B148      00148       10235 ANL070   L     R4,LOCCTR        M)                                      54300021
 007844 1A45                       10236          AR    R4,R5                                                    54306021
1PH20     IKFCBL20                                                                                              PAGE  240
-  LOC  OBJECT CODE    ADDR1 ADDR2  STMT   SOURCE STATEMENT                                       ASM 0201 11.03 02/14/15
0007846 5040 D900      0BE40       10237          ST    R4,FULLWD                                                54312021
 00784A 4060 DF38      0C478       10238 ANL072   STH   R6,MTEMP                                                 54318021
 00784E D201 D6E5 DF38 0BC25 0C478 10239          MVC   LITVAL-NX1(LX2),MTEMP SET NO. OF PADDED BYTES            54324021
 007854 5850 D3FC      0B93C       10240          L     R5,TWO                                                   54330021
 007858 45E0 F222      07862       10241          BAL   R14,ANL075          PUT OUT PAD CONDEF                   54336021
 00785C 58E0 D9D0      0BF10       10242          L     R14,RS14B                                                54342021
 007860 07FE                       10243          BCR   UNCOND,R14          BRH TO RS14B                         54348021
 007862 9228 D6E0      0BC20       10244 ANL075   MVI   LITVAL-NX6,XX28      CONDEF CODE                         54354021
 007866 D202 D6E1 D901 0BC21 0BE41 10245          MVC   LITVAL-NX5(LX3),FULLWD+NX1 TARGET ADDR.                  54360021
 00786C 4135 0007      00007       10246          LA    R3,DX7(R5)           CONDEF LGN.                         54366021
 007870 4120 D6E0      0BC20       10247          LA    R2,LITVAL-NX6        CONDEF ADDR.                        54372021
 007874 5810 DB84      0C0C4       10248          L     R1,COSADR                                                54378021
 007878 0501                       10249          BALR  R0,R1               BRANCH TO COMMON                     54384021
 00787A 14                         10250          DC    X'14'                                                    54390021
 00787B 00
 00787C 07FE                       10251          BCR   UNCOND,R14          BRANCH                               54396021
                                   10252 *                                                                       54402021
                                   10253 *                                                                       54408021
 00787E D700 C000 C000 00000 00000 10254 ANL997   XC    DX0(LX0,R12),DX0(R12) ZERO OUT AN AREA.                  54414021
 007884 D200 C001 C000 00001 00000 10255 ANL998   MVC   DX1(LX0,R12),DX0(R12) MOVE IN BLANKS.                    54420021
 00788A D200 C000 D6E7 00000 0BC27 10256 ANL999   MVC   DX0(LX0,R12),LITVAL+NX1 MOVE IN THE LITERAL.             54426021
                                   10257 *                                                                       54432021
                                   10258 *                                                                       54438021
                                   10259 *  ALPHABETIC LITERAL CONTAINS NON-ALPHABETIC CHARACTER. LITERAL        54444021
                                   10260 *    IS CHANGED TO ALL BLANKS.                                          54450021
                                   10261 *                                                                       54456021
 007890 47F0 F42E      07A6E       10262 ANL150   BC    UNCOND,FIG050       BR TO CHK IF COND NAME               54462021
                                   10263 *                                                                       54468021
                                   10264 *                                                                       54474021
                                   10265 *  MINCOD INDICATES THAT THIS IS NEITHER AN ALPHANUMERIC NOR ALPHAB     54480021
                                   10266 *    LITERAL.  LITERAL IS CHANGED TO ZEROS.                             54486021
                                   10267 *                                                                       54492021
 007894 9533 D688      0BBC8       10268 ANL100   CLI   CILEV,XX33           HANDLE CONDITION-NAME SEPARATELY    54498021
 007898 4780 F266      078A6       10269          BC    EQ,ANL110           BRANCH                               54504021
 00789C 4540 F098      076D8       10270          BAL   R4,VERROR           GET ERROR MSG & CALL ERR RTN         54510021
 0078A0 1081                       10271          DC    X'1081'             129                                  54516021
 0078A2 47F0 F4F4      07B34       10272          BC    UNCOND,FIZ030       BRANCH                               54522021
 0078A6 5550 D408      0B948       10273 ANL110   CL    R5,FIVE             REPORT ITEM IS ALLOWED IN COND-N     54528021
 0078AA 4780 F14A      0778A       10274          BC    EQ,ANL030           GO COMPARE LENGTH OF LIT             54534021
 0078AE 4540 F098      076D8       10275          BAL   R4,VERROR           GET MSG & CALL ERR RTN               54540021
 0078B2 1081                       10276          DC    X'1081'             129                                  54546021
 0078B4 47F0 F4F4      07B34       10277          BC    UNCOND,FIZ030       BRANCH                               54552021
                                   10278 *                                                                       54558021
                                   10279 *  PAD CONDITION-NAME WITH BLANKS                                       54564021
                                   10280 *                                                                       54570021
 0078B8 4960 DDEA      0C32A       10281 ANL140   CH    R6,CON121+NX2        LITERAL LENGTH GT 121 CHAR          54576021
 0078BC 4740 F284      078C4       10282          BL    ANL145         NO                                   6998 54582021
 0078C0 4160 0078      00078       10283          LA    R6,DX120(R0)    YES - LOAD PRMSBLE LENGTH            699 54588021
 0078C4 4260 D6E6      0BC26       10284 ANL145   STC   R6,LITVAL      STORE LITERAL LENGTH=PIC LENGTH      6998 54594021
 0078C8 1B65                       10285          SR    R6,R5               R6 = NO. BYTES TO PAD                54600021
 0078CA 5B60 D3FC      0B93C       10286          S     R6,TWO                                                   54606021
 0078CE 4140 D6E6      0BC26       10287          LA    R4,LITVAL                                                54612021
 0078D2 1A45                       10288          AR    R4,R5                                                    54618021
 0078D4 4144 0001      00001       10289          LA    R4,DX1(R4)           R4 = ADDRESS TO PAD FROM            54624021
 0078D8 9240 4000      00000       10290          MVI   DX0(R4),XX40         PAD LITVAL WITH BLANKS              54630021
1PH20     IKFCBL20                                                                                              PAGE  241
-  LOC  OBJECT CODE    ADDR1 ADDR2  STMT   SOURCE STATEMENT                                       ASM 0201 11.03 02/14/15
00078DC 1266                       10291          LTR   R6,R6                                                    54636021
 0078DE 4740 F2B0      078F0       10292          BC    NEG,ANL160          ONLY WANT TO PAD ONE                 54642021
 0078E2 4460 F2AA      078EA       10293          EX    R6,ANLPAD                                                54648021
 0078E6 47F0 F2B0      078F0       10294          BC    UNCOND,ANL160       BRANCH                               54654021
 0078EA D200 4001 4000 00001 00000 10295 ANLPAD   MVC   DX1(LX0,R4),DX0(R4)                                      54660021
                                   10296 *                                                                       54666021
                                   10297 *  CONDITION-NAMES ARE HANDLED SEPARATELY IN SPIR ROUTINE.              54672021
                                   10298 *                                                                       54678021
 0078F0 58F0 DC30      0C170       10299 ANL160   L     R15,ASPIR                                                54684021
 0078F4 58E0 DC34      0C174       10300          L     R14,ASP100          OUTPUT COND-NAME LITERAL AS IT I     54690021
 0078F8 07FE                       10301          BCR   UNCOND,R14          BRANCH                               54696021
                                   10302 *                                                                       54702021
 0078FA 4540 F098      076D8       10303 ANL170   BAL   R4,VERROR                 BR TO ERR RTN            49536 54708021
 0078FE 1080                       10304          DC    X'1080'                  MSG. NO. 128              49536 54714021
 007900 58F0 DC30      0C170       10305          L     R15,ASPIR                RESTORE ADDRESSIBILITY    49536 54720021
 007904 58E0 DC3C      0C17C       10306          L     R14,ASP200          CHANGE COND-NAME LITERAL TO BLAN     54726021
 007908 07FE                       10307          BCR   UNCOND,R14          BRANCH                               54732021
                                   10308 *                                                                       54738021
                                   10309 *                                                                       54744021
1PH20     IKFCBL20                                                                                              PAGE  242
-  LOC  OBJECT CODE    ADDR1 ADDR2  STMT   SOURCE STATEMENT                                       ASM 0201 11.03 02/14/15
0                                  10311 *=2   FLOATING POINT LITERAL (FLPTLT)                                   54756021
                                   10312 *=E            LITERAL DOES NOT CONFORM TO SPECIFICATION,TRUNCATED      54762021
                                   10313 *=               THE LITERAL IS CHANGED TO ZERO.                        54768021
                                   10314 *                                                                       54774021
                                   10315 *  THIS ROUTINE IS CALLED BY VALGEN TO PROCESS FLOATING POINT LITER     54780021
                                   10316 *    ASSOCIATED WITH THE VALUE CLAUSE.                                  54786021
                                   10317 *                                                                       54792021
 00790A 4350 D60D      0BB4D       10318 FLPTLT   IC    R5,MINCOD           IS MINCOD INT. FLOATING POINT.       54798021
 00790E 9131 DDB4      0C2F4       10319          TM    GRP88,SWON          88 UNDER GROUP                       54804021
 007912 4710 F63C      07C7C       10320          BO    FIZ080              YES                                  54810021
 007916 8850 0004      00004       10321          SRL   R5,DX4(R0)                                               54816021
 00791A 9233 DCF8      0C238       10322          MVI   MCODE,XX33            FLOATING-PT CODE FOR COND-NAMES    54822021
 00791E 5550 D41C      0B95C       10323          CL    R5,TEN                                                   54828021
 007922 4770 F354      07994       10324          BC    NOTEQ,FLP060        BR TO CHECK IF GROUP ITEM            54834021
                                   10325 *                                                                       54840021
                                   10326 *  INTERNAL FLOATING POINT LITERAL. CHECK FOR FORMAT OF OUTPUT REQU     54846021
                                   10327 *                                                                       54852021
 007926 4350 D676      0BBB6       10328          IC    R5,ITMCLS                                                54858021
 00792A 5450 D4C8      0BA08       10329          N     R5,MK3032                                                54864021
 00792E 5550 D400      0B940       10330          CL    R5,THREE                                                 54870021
 007932 4780 F324      07964       10331          BC    EQ,FLP040           COMPUTATIONAL-1, FULL WORD WANTE     54876021
                                   10332 *                                                                       54882021
                                   10333 *  COMPUTATIONAL-2, OUTPUT DOUBLE-WORD.                                 54888021
                                   10334 *                                                                       54894021
 007936 9533 D688      0BBC8       10335 FLP010   CLI   CILEV,XX33           HANDLE CONDITION-NAME SEPARATELY    54900021
 00793A 4780 F2B0      078F0       10336          BC    EQ,ANL160           BRANCH                               54906021
 00793E D202 C000 B149 00000 00149 10337          MVC   DX0(LX3,R12),LOCCTR+NX1                                  54912021
 007944 9200 C003      00003       10338          MVI   DX3(R12),HEXCOD         TYPE CODE                        54918021
 007948 D201 C004 D416 00004 0B956 10339          MVC   DX4(LX2,R12),EIGHT+NX2   LENGTH OF LIT = 8.              54924021
 00794E D207 C006 D6E7 00006 0BC27 10340          MVC   DX6(LX8,R12),LITVAL+NX1  MOVE IN LITERAL                 54930021
 007954 D203 DE84 D430 0C3C4 0B970 10341          MVC   NMPUT(LX4),CON15                                         54936021
 00795A 45E0 F086      076C6       10342 FLP020   BAL   R14,PUTOUT          PUT OUT Q-RTN TEXT                   54942021
 00795E 58E0 D9D0      0BF10       10343          L     R14,RS14B                                                54948021
 007962 07FE                       10344          BCR   UNCOND,R14          EXIT                                 54954021
                                   10345 *                                                                       54960021
                                   10346 *  COMPUTATIONAL-1.  TRUNCATE LITERAL TO OUTPUT A FULL-WORD.            54966021
                                   10347 *                                                                       54972021
 007964 9533 D688      0BBC8       10348 FLP040   CLI   CILEV,XX33           HANDLE CONDITION-NAME SEPARATELY    54978021
 007968 4780 F34C      0798C       10349          BC    EQ,FLP045           BRANCH                               54984021
 00796C D202 C000 B149 00000 00149 10350          MVC   DX0(LX3,R12),LOCCTR+NX1                                  54990021
 007972 9200 C003      00003       10351          MVI   DX3(R12),HEXCOD        TYPE CODE                         54996021
 007976 D201 C004 D406 00004 0B946 10352          MVC   DX4(LX2,R12),FOUR+NX2    LENGTH OF LIT = 4.              55002021
 00797C D203 C006 D6E7 00006 0BC27 10353          MVC   DX6(LX4,R12),LITVAL+NX1  MOVE IN LITERAL (TRUNCATED)     55008021
 007982 D203 DE84 D420 0C3C4 0B960 10354          MVC   NMPUT(LX4),ELEVEN                                        55014021
 007988 47F0 F31A      0795A       10355          BC    UNCOND,FLP020       PUT OUT Q-RTN TEXT & RETURN          55020021
 00798C 9204 D6E6      0BC26       10356 FLP045   MVI   LITVAL,XX04                                              55026021
 007990 47F0 F2B0      078F0       10357          BC    UNCOND,ANL160       BRANCH                               55032021
                                   10358 *                                                                       55038021
                                   10359 *                                                                       55044021
                                   10360 *  LITERAL DOES NOT CONFORM TO ATTRIBUTES. LITERAL MAY BE CHANGED T     55050021
                                   10361 *    BLANKS OR ZEROS OR DROPPED DEPENDING ON TYPE IN MINCOD.            55056021
                                   10362 *                                                                       55062021
 007994 5550 D3F8      0B938       10363 FLP060   CL    R5,ONE                                                   55068021
 007998 4780 F378      079B8       10364          BC    EQ,FLP080           GROUP ITEM.                          55074021
 00799C 5550 D404      0B944       10365          CL    R5,FOUR                                                  55080021
1PH20     IKFCBL20                                                                                              PAGE  243
-  LOC  OBJECT CODE    ADDR1 ADDR2  STMT   SOURCE STATEMENT                                       ASM 0201 11.03 02/14/15
00079A0 4780 F378      079B8       10366          BC    EQ,FLP080           GROUP ITEM.                          55086021
 0079A4 5550 D414      0B954       10367          CL    R5,EIGHT                                                 55092021
 0079A8 4740 F384      079C4       10368          BC    LO,FLP100           NOT A GROUP ITEM, AND                55098021
 0079AC 5550 D428      0B968       10369          CL    R5,CON13                                                 55104021
 0079B0 4720 F384      079C4       10370          BC    HI,FLP100              NOT A NUMERIC ITEM.               55110021
                                   10371 *                                                                       55116021
                                   10372 *  MINCOD INDICATES NUMERIC LITERAL. CHANGE LITERAL TO ZEROS.           55122021
                                   10373 *                                                                       55128021
 0079B4 47F0 F4F4      07B34       10374          BC    UNCOND,FIZ030       BRANCH                               55134021
                                   10375 *                                                                       55140021
                                   10376 *  MINCOD INDICATES A GROUP ITEM. THE VALUE CLAUSE IS DROPPED.          55146021
                                   10377 *                                                                       55152021
 0079B8 4540 F098      076D8       10378 FLP080   BAL   R4,VERROR           PICK UP ERROR, CALL ERR RTN          55158021
 0079BC 107F                       10379          DC    X'107F'             MSG 127                              55164021
 0079BE 58E0 D9D0      0BF10       10380 FLP085   L     R14,RS14B                                                55170021
 0079C2 07FE                       10381          BCR   UNCOND,R14          RETURN                               55176021
                                   10382 *                                                                       55182021
                                   10383 *  MINCOD INDICATES AL OR AN LITERAL. CHANGE LITERAL TO BLANKS.         55188021
                                   10384 *                                                                       55194021
 0079C4 9533 D688      0BBC8       10385 FLP100   CLI   CILEV,XX33           HANDLE CONDITION-NAME SEPARATELY    55200021
 0079C8 4770 F250      07890       10386          BC    NOTEQ,ANL150        BRANCH                               55206021
 0079CC 5550 D408      0B948       10387          CL    R5,FIVE             REPORT ITEM IS ALLOWED FOR COND-     55212021
 0079D0 4780 F2B0      078F0       10388          BC    EQ,ANL160           BRANCH                               55218021
 0079D4 47F0 F2BA      078FA       10389          BC    UNCOND,ANL170       BRANCH                               55224021
1PH20     IKFCBL20                                                                                              PAGE  244
-  LOC  OBJECT CODE    ADDR1 ADDR2  STMT   SOURCE STATEMENT                                       ASM 0201 11.03 02/14/15
0                                  10391 *=2   FIGURATIVE NON-NUMERIC LITERAL (FIGNNM)                           55236021
                                   10392 *=E            LITERAL DOES NOT CONFORM TO SPECIFICATION,TRUNCATED      55242021
                                   10393 *=               THE LITERAL IS CHANGED TO ZERO.                        55248021
                                   10394 *                                                                       55254021
                                   10395 *  THIS ROUTINE IS CALLED BY VALEN TO PROCESS NON-NUMERIC FIGURATIV     55260021
                                   10396 *    CONSTANTS ASSOCIATED WITH VALUE CLAUSE.                            55266021
                                   10397 *                                                                       55272021
 0079D8 4350 D60D      0BB4D       10398 FIGNNM   IC    R5,MINCOD                                                55278021
 0079DC 9131 DDB4      0C2F4       10399          TM    GRP88,SWON                88 UNDER GROUP           43960 55284021
 0079E0 4710 F468      07AA8       10400          BO    FIG070                    YES, OUTPUT AS IS        43960 55290021
 0079E4 8850 0004      00004       10401          SRL   R5,DX4(R0)                                               55296021
 0079E8 5550 D3FC      0B93C       10402          CL    R5,TWO              IF MINCOD IS APHABETIC.              55302021
 0079EC 4780 F3D0      07A10       10403          BC    EQ,FIG030              CHECK FOR LEGAL CHARACTERS.       55308021
 0079F0 4740 F3C4      07A04       10404          BC    LO,FIG020              GROUP ITEM.ERROR.                 55314021
 0079F4 5550 D400      0B940       10405          CL    R5,THREE               OTHERWISE,                        55320021
 0079F8 4780 F468      07AA8       10406          BC    EQ,FIG070           IF MINCOD ALPHANUMERIC,OUTPUT LI     55326021
                                   10407 *                                                                       55332021
                                   10408 *  ERROR CONDITION IF MINCOD IS NEITHER AL NOR AN.                      55338021
                                   10409 *                                                                       55344021
 0079FC 5550 D404      0B944       10410          CL    R5,FOUR             IF MINCOD IS A GROUP ITEM,           55350021
 007A00 4770 F254      07894       10411          BC    NOTEQ,ANL100           THE VALUE CLAUSE IS DROPPED.      55356021
                                   10412 *                                                                       55362021
 007A04 4540 F098      076D8       10413 FIG020   BAL   R4,VERROR           GET ERR AND CALL  ERR RTN            55368021
 007A08 107F                       10414          DC    X'107F'             MSG 127                              55374021
 007A0A 58E0 D9D0      0BF10       10415 FIG025   L     R14,RS14B              ITEM AND EXIT.                    55380021
 007A0E 07FE                       10416          BCR   UNCOND,R14          BRANCH                               55386021
                                   10417 *                                                                       55392021
                                   10418 *  MINCOD IS ALPHABETIC. CHECK THE LITERAL FOR LETERS OR BLANKS.        55398021
                                   10419 *                                                                       55404021
 007A10 4350 D6E6      0BC26       10420 FIG030   IC    R5,LITVAL                                                55410021
 007A14 4120 D6E6      0BC26       10421          LA    R2,LITVAL           STARTING ADDRESS OF LITERAL          55416021
 007A18 1A52                       10422          AR    R5,R2                                                    55422021
 007A1A 5A20 D3F8      0B938       10423          A     R2,ONE                                                   55428021
 007A1E 5840 D3F8      0B938       10424          L     R4,ONE                                                   55434021
 007A22 9540 2000      00000       10425 FIG035   CLI   DX0(R2),XX40         IS THIS BYTE A BLANK                55440021
 007A26 4780 F426      07A66       10426          BE    FIG040              YES                                  55446021
 007A2A 95C1 2000      00000       10427          CLI   DX0(R2),XXC1         IS THIS A TO I                      55452021
 007A2E 4740 F42E      07A6E       10428          BC    LO,FIG050              NOT AL CHARACTER, ERROR.          55458021
 007A32 4780 F426      07A66       10429          BE    FIG040              IT IS A                              55464021
 007A36 95C9 2000      00000       10430          CLI   DX0(R2),XXC9                 OR                          55470021
 007A3A 47D0 F426      07A66       10431          BC    NOTHI,FIG040                    B THROUGH I              55476021
 007A3E 95D1 2000      00000       10432          CLI   DX0(R2),XXD1         IS THIS I TO R                      55482021
 007A42 4740 F42E      07A6E       10433          BC    LO,FIG050              NOT AL, ERROR.                    55488021
 007A46 4780 F426      07A66       10434          BE    FIG040              IT IS J                              55494021
 007A4A 95D9 2000      00000       10435          CLI   DX0(R2),XXD9                 OR                          55500021
 007A4E 47D0 F426      07A66       10436          BC    NOTHI,FIG040                    K THROUGH R              55506021
 007A52 95E2 2000      00000       10437          CLI   DX0(R2),XXE2         IS THIS S TO Z                      55512021
 007A56 4740 F42E      07A6E       10438          BC    LO,FIG050              NOT AL, ERROR.                    55518021
 007A5A 4780 F426      07A66       10439          BE    FIG040              IT IS S                              55524021
 007A5E 95E9 2000      00000       10440          CLI   DX0(R2),XXE9                 OR                          55530021
 007A62 4720 F42E      07A6E       10441          BH    FIG050              NOT AL, ERROR                        55536021
 007A66 8624 F468      07AA8       10442 FIG040   BXH   R2,R4,FIG070        CHECK                                55542021
 007A6A 47F0 F3E2      07A22       10443          B     FIG035              GO CHECK NEXT BYTE                   55548021
                                   10444 *                                                                       55554021
                                   10445 *  ILLEGAL CHARACTER AS FIGCON. CHANGE FIGCON TO BLANKS.                55560021
1PH20     IKFCBL20                                                                                              PAGE  245
-  LOC  OBJECT CODE    ADDR1 ADDR2  STMT   SOURCE STATEMENT                                       ASM 0201 11.03 02/14/15
0                                  10446 *                                                                       55566021
 007A6E 9533 D688      0BBC8       10447 FIG050   CLI   CILEV,XX33           HANDLE CONDITION-NAME SEPARATELY    55572021
 007A72 4780 F2BA      078FA       10448          BC    EQ,ANL170           BRANCH                               55578021
 007A76 4540 F098      076D8       10449          BAL   R4,VERROR           GET ERR AND CALL ERR RTN             55584021
 007A7A 1080                       10450          DC    X'1080'             128                                  55590021
 007A7C D202 C000 B149 00000 00149 10451 FIG055   MVC   DX0(LX3,R12),LOCCTR+NX1                                  55596021
 007A82 92FF C003      00003       10452          MVI   DX3(R12),FIGCON         TYPE CODE                        55602021
 007A86 D201 C004 D678 00004 0BBB8 10453          MVC   DX4(LX2,R12),CILGN       LENGTH                          55608021
 007A8C 1B66                       10454          SR    R6,R6                                                    55614021
 007A8E 4360 D6E6      0BC26       10455          IC    R6,LITVAL                                                55620021
 007A92 4460 F4B4      07AF4       10456          EX    R6,FIG090           MOVE LITERAL                         55626021
 007A96 5A60 D414      0B954       10457 FIG060   A     R6,EIGHT            FIXED COUNT                          55632021
 007A9A 5060 DE84      0C3C4       10458          ST    R6,NMPUT                                                 55638021
 007A9E 45E0 F086      076C6       10459          BAL   R14,PUTOUT          PUT OUT Q-RTN TEXT                   55644021
 007AA2 58E0 D9D0      0BF10       10460          L     R14,RS14B                                                55650021
 007AA6 07FE                       10461          BCR   UNCOND,R14          RETURN                               55656021
                                   10462 *                                                                       55662021
                                   10463 *  PUT OUT THE LEGAL LITERAL.                                           55668021
                                   10464 *                                                                       55674021
 007AA8 9533 D688      0BBC8       10465 FIG070   CLI   CILEV,XX33           HANDLE CONDITION-NAME SEPARATELY    55680021
 007AAC 4770 F496      07AD6       10466          BC    NOTEQ,FIG080        BRANCH                               55686021
 007AB0 9501 D6E6      0BC26       10467          CLI   LITVAL,XX01          COUNT = 1                           55692021
 007AB4 4780 F486      07AC6       10468          BE    FIG075              YES                                  55698021
 007AB8 9239 DCF8      0C238       10469          MVI   MCODE,XX39           SET UP CODE FOR ALL LITERAL         55704021
 007ABC 58F0 DC30      0C170       10470          L     R15,ASPIR                                                55710021
 007AC0 58E0 DC34      0C174       10471          L     R14,ASP100                                               55716021
 007AC4 07FE                       10472          BR    R14                 GO PROCESS ALL LITERAL               55722021
                             07AC6 10473 FIG075   EQU   *                                                        55728021
 007AC6 D200 DCF9 D6E7 0C239 0BC27 10474          MVC   FIGCOD(LX1),LITVAL+NX1                                   55734021
 007ACC 58F0 DC30      0C170       10475          L     R15,ASPIR                                                55740021
 007AD0 58E0 DC40      0C180       10476          L     R14,ASP210                                               55746021
 007AD4 07FE                       10477          BCR   UNCOND,R14          BRANCH                               55752021
 007AD6 D202 C000 B149 00000 00149 10478 FIG080   MVC   DX0(LX3,R12),LOCCTR+NX1                                  55758021
 007ADC 92FF C003      00003       10479          MVI   DX3(R12),FIGCON                                          55764021
 007AE0 D201 C004 D678 00004 0BBB8 10480          MVC   DX4(LX2,R12),CILGN                                       55770021
 007AE6 1B66                       10481          SR    R6,R6                                                    55776021
 007AE8 4360 D6E6      0BC26       10482          IC    R6,LITVAL                                                55782021
 007AEC 4460 F4B4      07AF4       10483          EX    R6,FIG090           MOVE LITERAL                         55788021
 007AF0 47F0 F456      07A96       10484          BC    UNCOND,FIG060       BR FOR FIXED COUNT                   55794021
 007AF4 D200 C006 D6E6 00006 0BC26 10485 FIG090   MVC   DX6(LX0,R12),LITVAL   COUNT AND LITERAL                  55800021
1PH20     IKFCBL20                                                                                              PAGE  246
-  LOC  OBJECT CODE    ADDR1 ADDR2  STMT   SOURCE STATEMENT                                       ASM 0201 11.03 02/14/15
0                                  10487 *=2   FIGURATIVE NUMERIC LITERAL (FIGNUM)                               55812021
                                   10488 *=E            LITERAL DOES NOT CONFORM TO SPECIFICATION,TRUNCATED      55818021
                                   10489 *=               THE LITERAL IS CHANGED TO ZERO.                        55824021
                                   10490 *                                                                       55830021
                                   10491 *  THIS ROUTINE IS CALLED BY VALGEN TO PROCESS NUMERIC FIGURATIVE       55836021
                                   10492 *    CONSTANTS ASSOCIATED WITH THE VALUE CLAUSE.                        55842021
                                   10493 *                                                                       55848021
 007AFA 4350 D60D      0BB4D       10494 FIGZER   IC    R5,MINCOD                                                55854021
 007AFE 9131 DDB4      0C2F4       10495          TM    GRP88,SWON          88 UNDER GROUP                       55860021
 007B02 4710 F62E      07C6E       10496          BO    FIZ070              YES, OUTPUT AS IS                    55866021
 007B06 8850 0004      00004       10497          SRL   R5,DX4(R0)                                               55872021
 007B0A 5550 D3FC      0B93C       10498          CL    R5,TWO              IS MINCOD ALPHABETIC.                55878021
 007B0E 47B0 F4DE      07B1E       10499          BC    NOTLO,FIZ020        NO, BRANCH                           55884021
 007B12 4540 F098      076D8       10500 FIZ010   BAL  R4,VERROR            ILLEGAL MINOR CODE                   55890021
 007B16 2082                       10501          DC    X'2082'             130                                  55896021
 007B18 58E0 D9D0      0BF10       10502          L     R14,RS14B              AND EXIT.                         55902021
 007B1C 07FE                       10503          BCR   UNCOND,R14          RETURN                               55908021
                                   10504 *                                                                       55914021
 007B1E 4720 F4F4      07B34       10505 FIZ020   BC    HI,FIZ030           NOT AL, CHECK FURTHER.               55920021
 007B22 4540 F098      076D8       10506          BAL   R4,VERROR           IT IS AL, GIVE MESSAGE AND           55926021
 007B26 1080                       10507          DC    X'1080'             128                                  55932021
 007B28 9533 D688      0BBC8       10508          CLI   CILEV,XX33           HANDLE 88 SEPARATELY                55938021
 007B2C 4780 F2BA      078FA       10509          BC    EQ,ANL170           BRANCH                               55944021
 007B30 47F0 F43C      07A7C       10510          BC    UNCOND,FIG055       CHANGE LITERAL TO BLANKS             55950021
 007B34 41C0 DDED      0C32D       10511 FIZ030   LA    R12,LITBUF+NX1       RESTORE INCASE DESTROYED            55956021
 007B38 5550 D400      0B940       10512          CL    R5,THREE                                                 55962021
 007B3C 4780 F468      07AA8       10513          BC    EQ,FIG070           BRANCH                               55968021
 007B40 5550 D414      0B954       10514          CL    R5,EIGHT            IS MINCOD EXT. DECIMAL               55974021
 007B44 4780 F5F6      07C36       10515          BC    EQ,FIZ060              YES, PUT IT OUT.                  55980021
 007B48 4720 F518      07B58       10516          BC    HI,FIZ031                   BR                     47924 55986021
 007B4C 5550 D408      0B948       10517          CL    R5,FIVE                   IS IT REPORT ITEM        47924 55992021
 007B50 4780 F5F6      07C36       10518          BC    EQ,FIZ060                YES, PUT IT OUT           47924 55998021
 007B54 47F0 F4D2      07B12       10519          BC    UNCOND,FIZ010             NO, ERR MSG              47924 56004021
                             07B58 10520 FIZ031   EQU   *                                                  47924 56010021
 007B58 5550 D418      0B958       10521          CL    R5,NINE             ERROR IF MINCOD IS EXT. FLPT.        56016021
 007B5C 4770 F52C      07B6C       10522          BC    NOTEQ,FIZ035        CHECK IF MINCOD INT.FLOAT PT         56022021
 007B60 4540 F098      076D8       10523 FIZ032   BAL   R4,VERROR           GET ERR AND CALL ERR RTN             56028021
 007B64 2082                       10524          DC    X'2082'             130                                  56034021
 007B66 58E0 D9D0      0BF10       10525          L     R14,RS14B                                                56040021
 007B6A 07FE                       10526          BCR   UNCOND,R14          EXIT                                 56046021
                                   10527 *                                                                       56052021
                                   10528 *  INTERAL FLOATING POINT WANTED.                                       56058021
                                   10529 *                                                                       56064021
 007B6C 5550 D41C      0B95C       10530 FIZ035   CL    R5,TEN              IS MINCOD INT. FLOATING POINT        56070021
 007B70 4770 F576      07BB6       10531          BC    NOTEQ,FIZ040        CHECK IF MINCOD BINARY               56076021
 007B74 9533 D688      0BBC8       10532          CLI   CILEV,XX33                                               56082021
 007B78 4780 F62E      07C6E       10533          BC    EQ,FIZ070           BRH TO MOVE X'F0' TO FIGCOD          56088021
 007B7C D202 C000 B149 00000 00149 10534          MVC   DX0(LX3,R12),LOCCTR+NX1                                  56094021
 007B82 9200 C003      00003       10535          MVI   DX3(R12),HEXCOD         TYPE CODE                        56100021
 007B86 4860 D678      0BBB8       10536          LH    R6,CILGN               LENGTH                            56106021
 007B8A D201 C004 D678 00004 0BBB8 10537          MVC   DX4(LX2,R12),CILGN                                       56112021
 007B90 D703 C006 C006 00006 00006 10538          XC    DX6(LX4,R12),DX6(R12)      TRUE ZERO               44258 56118021
 007B96 5960 D404      0B944       10539          C     R6,FOUR                                                  56124021
 007B9A 47D0 F564      07BA4       10540          BC    NOTHI,FIZ037        BRANCH                               56130021
 007B9E D703 C00A C00A 0000A 0000A 10541          XC    DX10(LX4,R12),DX10(R12)  DOUBLE PRECISION 0              56136021
1PH20     IKFCBL20                                                                                              PAGE  247
-  LOC  OBJECT CODE    ADDR1 ADDR2  STMT   SOURCE STATEMENT                                       ASM 0201 11.03 02/14/15
0007BA4 5A60 D410      0B950       10542 FIZ037   A     R6,SEVEN                                                 56142021
 007BA8 5060 DE84      0C3C4       10543          ST    R6,NMPUT                                                 56148021
 007BAC 45E0 F086      076C6       10544 FIZ039   BAL   R14,PUTOUT          PUT OUT Q-RTN TEXT                   56154021
 007BB0 58E0 D9D0      0BF10       10545          L     R14,RS14B                                                56160021
 007BB4 07FE                       10546          BCR   UNCOND,R14          RETURN                               56166021
                                   10547 *                                                                       56172021
                                   10548 *  BINARY LITERAL WANTED.                                               56178021
                                   10549 *                                                                       56184021
 007BB6 5550 D420      0B960       10550 FIZ040   CL    R5,ELEVEN           IS MINCOD BINARY.                    56190021
 007BBA 4770 F5A8      07BE8       10551          BC    NOTEQ,FIZ050        SEE IF MINCOD INT.DECIMAL            56196021
 007BBE 9533 D688      0BBC8       10552          CLI   CILEV,XX33                                               56202021
 007BC2 4780 F62E      07C6E       10553          BC    EQ,FIZ070           COND-NAME HAS VALUE 'ZERO'           56208021
 007BC6 D202 C000 B149 00000 00149 10554          MVC   DX0(LX3,R12),LOCCTR+NX1          MINCOD=BINARY,OUTPUT    56214021
 007BCC 92FF C003      00003       10555          MVI   DX3(R12),FIGCON        0 WITH LENGTH GIVEN IN ATTRIBU    56220021
 007BD0 D201 C004 D678 00004 0BBB8 10556          MVC   DX4(LX2,R12),CILGN       LENGTH.                         56226021
 007BD6 9201 C006      00006       10557          MVI   DX6(R12),XX01        COUNT                               56232021
 007BDA 9200 C007      00007       10558          MVI   DX7(R12),XX00        FIGCON = 0                          56238021
 007BDE D203 DE84 D418 0C3C4 0B958 10559          MVC   NMPUT(LX4),NINE                                          56244021
 007BE4 47F0 F56C      07BAC       10560          BC    UNCOND,FIZ039       PUT OUT Q-RTN TEXT                   56250021
                                   10561 *                                                                       56256021
                                   10562 *  INTERNAL DECIMAL WANTED.                                             56262021
                                   10563 *                                                                       56268021
 007BE8 5550 D424      0B964       10564 FIZ050   CL    R5,TWELVE           IS MINCOD INT. DECIMAL               56274021
 007BEC 4770 F520      07B60       10565          BC    NOTEQ,FIZ032        GET ERR, CALL ERR RTN                56280021
 007BF0 9533 D688      0BBC8       10566          CLI   CILEV,XX33                                               56286021
 007BF4 4780 F62E      07C6E       10567          BC    EQ,FIZ070           COND-NAME HAS VALUE 'ZERO'           56292021
 007BF8 4860 D678      0BBB8       10568          LH    R6,CILGN                                                 56298021
 007BFC D202 C000 B149 00000 00149 10569          MVC   DX0(LX3,R12),LOCCTR+NX1                                  56304021
 007C02 9200 C003      00003       10570          MVI   DX3(R12),HEXCOD      PUT OUT AN INTERNAL DECIMAL 0       56310021
 007C06 D201 C004 D678 00004 0BBB8 10571          MVC   DX4(LX2,R12),CILGN                                       56316021
 007C0C 5AC0 D40C      0B94C       10572          A     R12,SIX                                                  56322021
 007C10 4460 F23E      0787E       10573          EX    R6,ANL997                                                56328021
 007C14 1AC6                       10574          AR    R12,R6                                                   56334021
 007C16 5BC0 D3F8      0B938       10575          S     R12,ONE                                                  56340021
 007C1A 960C C000      00000       10576          OI    DX0(R12),XX0C           WITH A PLUS SIGN.                56346021
 007C1E 9101 D612      0BB52       10577          TM    LEVNUM,XX01        SIGNED ????                           56352021
 007C22 4710 F5EA      07C2A       10578          BO    FIZ055               YES, LEAVE 0C (SIGNED)              56358021
 007C26 960F C000      00000       10579          OI    DX0(R12),XX0F         NO, CHANGED                        56364021
 007C2A 5A60 D410      0B950       10580 FIZ055   A     R6,SEVEN                                                 56370021
 007C2E 5060 DE84      0C3C4       10581          ST    R6,NMPUT                                                 56376021
 007C32 47F0 F56C      07BAC       10582          BC    UNCOND,FIZ039       PUT OUT Q-RTN TEXT                   56382021
                                   10583 *                                                                       56388021
                                   10584 *  EXTERNAL DECIMAL OUTPUT WANTED.                                      56394021
                                   10585 *                                                                       56400021
 007C36 9533 D688      0BBC8       10586 FIZ060   CLI   CILEV,XX33                                               56406021
 007C3A 4780 F62E      07C6E       10587          BE    FIZ070             CONDITION-NAME  ? YES BRANCH          56412021
 007C3E D202 C000 B149 00000 00149 10588          MVC   DX0(3,R12),LOCCTR+NX1                                    56418021
 007C44 92FF C003      00003       10589          MVI   DX3(R12),FIGCON                                          56424021
 007C48 9201 C006      00006       10590          MVI   DX6(R12),XX01      COUNT                                 56430021
 007C4C 92F0 C007      00007       10591          MVI   DX7(R12),XXF0      FIGCON                                56436021
 007C50 D203 DE84 D418 0C3C4 0B958 10592          MVC   NMPUT(R4),NINE                                           56442021
 007C56 9101 D612      0BB52       10593          TM    VILGN-NX1,XX01           IS FIG ZERO SIGNED        42093 56448021
 007C5A 4780 F624      07C64       10594          BC    ZERO,FIZ065                   NO, BR               42093 56454021
 007C5E 58F0 FED0      08510       10595          L     R15,AFIGZERO              ADDRESSIBILITY           42093 56460021
 007C62 07FF                       10596          BR    R15                          BR                    42093 56466021
1PH20     IKFCBL20                                                                                              PAGE  248
-  LOC  OBJECT CODE    ADDR1 ADDR2  STMT   SOURCE STATEMENT                                       ASM 0201 11.03 02/14/15
0                            07C64 10597 FIZ065   EQU   *                                                  42093 56472021
 007C64 D201 C004 D678 00004 0BBB8 10598          MVC   DX4(LX2,R12),CILGN         CURRENT ITEM LGN        42093 56478021
 007C6A 47F0 F56C      07BAC       10599          B     FIZ039             SET BIT AND RETURN                    56484021
                                   10600 *                                                                       56490021
                                   10601 *  WHEN A CONDITION-NAME HAS VALUE 'ZERO',PHASE2 OUTPUT IS ALWAYS (     56496021
                                   10602 *                                                                       56502021
                             07C6E 10603 FIZ070   EQU   *                                                        56508021
 007C6E 92F0 DCF9      0C239       10604          MVI   FIGCOD,XXF0                                              56514021
 007C72 58F0 DC30      0C170       10605 FIZ075   L     R15,ASPIR                                                56520021
 007C76 58E0 DC40      0C180       10606          L     R14,ASP210                                               56526021
 007C7A 07FE                       10607          BCR   UNCOND,R14          GO ENTER COND-NAME LIT               56532021
                                   10608 *                                                                       56538021
                                   10609 *  WHEN CONDITION NAME UNDER GROUP HAS VALUE CLAUSE THAT IS             56544021
                                   10610 *   NUMERIC IT IS AN ERROR.                                             56550021
                                   10611 *                                                                       56556021
 007C7C 4540 F098      076D8       10612 FIZ080   BAL   R4,VERROR           CALL ERR RTN                         56562021
 007C80 2029                       10613          DC    X'2029'             MSG 41                               56568021
 007C82 5870 D8E8      0BE28       10614          L     R7,GETSAV           CORRECT R7                           56574021
 007C86 9138 D676      0BBB6       10615          TM    ITMCLS,XX38          VALUE IS SERIES                     56580021
 007C8A 47E0 F66A      07CAA       10616          BC    NOTONE,FIZ090       NO                                   56586021
 007C8E 1B66                       10617          SR    R6,R6               YES, BYPASS REST                     56592021
 007C90 4367 0001      00001       10618 FIZ085   IC    R6,DX1(R7)           COUNT OF ENTRY                      56598021
 007C94 58F0 DC88      0C1C8       10619          L     R15,ASRCHT                                               56604021
 007C98 5850 DCB8      0C1F8       10620          L     R5,ACHNXT                                                56610021
 007C9C 0535                       10621          BALR  R3,R5               GET NEXT ENTRY                       56616021
 007C9E 58F0 DC04      0C144       10622          L     R15,AVALGN                                               56622021
 007CA2 9110 7000      00000       10623          TM    DX0(R7),XX10         STILL VALUE THRU                    56628021
 007CA6 4710 F650      07C90       10624          BO    FIZ085              YES                                  56634021
 007CAA 9803 D9D8      0BF18       10625 FIZ090   LM    R0,R3,BSAVE                                              56640021
 007CAE 58F0 DCCC      0C20C       10626          L     R15,ABEGIN                                               56646021
 007CB2 5840 D8EC      0BE2C       10627          L     R4,GETSAV+NX4                                            56652021
 007CB6 07F4                       10628          BR    R4                  RETURN TO ORIGINAL CALLER            56658021
1PH20     IKFCBL20                                                                                              PAGE  249
-  LOC  OBJECT CODE    ADDR1 ADDR2  STMT   SOURCE STATEMENT                                       ASM 0201 11.03 02/14/15
0                                  10630 *=2   NUMERIC LITERAL (NUMLIT)                                          56670021
                                   10631 *=E            LITERAL DOES NOT CONFORM TO SPECIFICATION,TRUNCATED      56676021
                                   10632 *=               THE LITERAL IS CHANGED TO ZERO.                        56682021
                                   10633 *                                                                       56688021
                                   10634 *  THIS ROUTINE PROCESSES NUMERIC LITERALS ASSOCIATED WITH THE VALU     56694021
                                   10635 *    CLAUSE.  CONVERSION TO BINARY OR EXTERNAL DECIMAL FORM IS ALSO     56700021
                                   10636 *    DONE WHEN NECESSARY.                                               56706021
                                   10637 *    FOR CONDITION-NAMES, NO ERROR CHECKING IS DONE IN THIS ROUTINE     56712021
                                   10638 *    THE LITERAL IS CONVERTED INTO INTERNAL DECIMAL FORMAT AND PUT      56718021
                                   10639 *    INTO THE DICTIONARY IN IC-TEXT FORMAT.                             56724021
                                   10640 *                                                                       56730021
                                   10641 *                                                                       56736021
 007CB8 9131 DDB4      0C2F4       10642 NUMLIT   TM    GRP88,SWON          88 UNDER GROUP                       56742021
 007CBC 4710 F63C      07C7C       10643          BO    FIZ080              YES                                  56748021
 007CC0 4120 D6E6      0BC26       10644          LA    R2,LITVAL           SAVE THE SIGN FROM SOURCE.           56754021
 007CC4 1B33                       10645          SR    R3,R3                                                    56760021
 007CC6 4330 D6E6      0BC26       10646          IC    R3,LITVAL                                                56766021
 007CCA 1A23                       10647          AR    R2,R3                                                    56772021
 007CCC 9131 DD6C      0C2AC       10648          TM    VALTSW,SWON         VALUE IS SERIES                      56778021
 007CD0 4780 F6A0      07CE0       10649          BZ    NUMLT0              BRANCH TEST SIGN IN SOURCE           56784021
 007CD4 9101 D7A6      0BCE6       10650          TM    PVILGN-NX1,XX01      SIGN IN SOURCE                      56790021
 007CD8 4780 F6F0      07D30       10651          BZ    NUM001              GO FORCE SIGN TO F IF UNSIGNED       56796021
 007CDC 47F0 F6A8      07CE8       10652          B     NUMLT1              GO TEST SIGN IN VALUE CLAUSE         56802021
 007CE0 9101 D612      0BB52       10653 NUMLT0   TM    VILGN-NX1,XX01       SIGN IN SOURCE                      56808021
 007CE4 4780 F6F0      07D30       10654          BC    ZERO,NUM001         GO FORCE SIGN TO F IF UNSIGNED       56814021
 007CE8 91F0 2000      00000       10655 NUMLT1   TM    DX0(R2),XXF0         SIGN IN VALUE CLAUSE                56820021
 007CEC 47E0 F6BE      07CFE       10656          BC    NOTONE,NUMLT2       GO INSERT NEGATIVE 0                 56826021
 007CF0 4540 F098      076D8       10657          BAL   R4,VERROR           GENERATE                             56832021
 007CF4 00BE                       10658          DC    X'00BE'             MSG 190                              56838021
 007CF6 940F 2000      00000       10659          NI    DX0(R2),XX0F                                             56844021
 007CFA 96C0 2000      00000       10660          OI    DX0(R2),XXC0         ASSUME POSITIVE                     56850021
 007CFE 95D0 2000      00000       10661 NUMLT2   CLI   DX0(R2),XXD0         NEGATIVE ZERO                       56856021
 007D02 4770 F6E6      07D26       10662          BNE   NUMLT5              NO                                   56862021
 007D06 4140 D6E9      0BC29       10663          LA    R4,LITVAL+NX3        MAYBE                               56868021
 007D0A 95F0 4000      00000       10664 NUMLT3   CLI   DX0(R4),XXF0         ZERO                                56874021
 007D0E 4770 F6DA      07D1A       10665          BNE   NUMLT4              NO                                   56880021
 007D12 4144 0001      00001       10666          LA    R4,DX1(R4)           POINT TO NEXT                       56886021
 007D16 47F0 F6CA      07D0A       10667          B     NUMLT3              GO CHECK NEXT                        56892021
 007D1A 95D0 4000      00000       10668 NUMLT4   CLI   DX0(R4),XXD0         END OF STRING                       56898021
 007D1E 4770 F6E6      07D26       10669          BNE   NUMLT5              NO, NOT ZERO                         56904021
 007D22 92C0 4000      00000       10670          MVI   DX0(R4),XXC0         YES, MAKE POSITIVE                  56910021
 007D26 D200 DCFA 2000 0C23A 00000 10671 NUMLT5   MVC   NMSIGN(LX1),DX0(R2)   SAVE SIGN FROM SOURCE              56916021
 007D2C 47F0 F706      07D46       10672          BC    UNCOND,NUM003       SEE IF IT IS 88                      56922021
 007D30 92F0 DCFA      0C23A       10673 NUM001   MVI   NMSIGN,XXF0          FORCE SIGN TO F IF SIGN NOT GIVE    56928021
 007D34 91F0 2000      00000       10674          TM    DX0(R2),XXF0         WAS SIGN GIVEN IN VALUE CLAUSE L    56934021
 007D38 4710 F706      07D46       10675          BC    ONES,NUM003         NO, BRANCH                           56940021
 007D3C 96F0 2000      00000       10676          OI    DX0(R2),XXF0         YES, SET TO F                       56946021
 007D40 4540 F098      076D8       10677          BAL   R4,VERROR           CALL ERR RTN                         56952021
 007D44 009C                       10678          DC    X'009C'             MSG 156                              56958021
 007D46 9533 D688      0BBC8       10679 NUM003   CLI   CILEV,XX33           IS IT 88                            56964021
 007D4A 4780 FBFA      0823A       10680          BE    NUM400              YES, HANDLE SEPARATELY               56970021
 007D4E 4350 D60D      0BB4D       10681          IC    R5,MINCOD                                                56976021
 007D52 8850 0004      00004       10682          SRL   R5,DX4                                                   56982021
 007D56 5550 D414      0B954       10683          CL    R5,EIGHT                                                 56988021
 007D5A 4780 F77A      07DBA       10684          BC    EQ,NUM025           GO EXAMINE THE SCALE                 56994021
1PH20     IKFCBL20                                                                                              PAGE  250
-  LOC  OBJECT CODE    ADDR1 ADDR2  STMT   SOURCE STATEMENT                                       ASM 0201 11.03 02/14/15
0007D5E 4720 F76A      07DAA       10685          BC    HI,NUM020           BRANCH                               57000021
 007D62 5550 D3FC      0B93C       10686          CL    R5,TWO                                                   57006021
 007D66 4780 F760      07DA0       10687          BC    EQ,NUM010              ALPHABETIC                        57012021
 007D6A 5550 D400      0B940       10688          CL    R5,THREE                                                 57018021
 007D6E 4780 F760      07DA0       10689          BC    EQ,NUM010              ALPHANUMERIC                      57024021
 007D72 5550 D42C      0B96C       10690          CL    R5,CON14            APLHANUMERIC EDITED                  57030021
 007D76 4780 F760      07DA0       10691          BE    NUM010              YES, ERROR                           57036021
 007D7A 4540 F098      076D8       10692 NUM000   BAL   R4,VERROR           CALL ERR RTN                         57042021
 007D7E 20B8                       10693          DC    X'20B8'             184                                  57048021
 007D80 58E0 D9D0      0BF10       10694          L     R14,RS14B             ERROR IF USAGE IS FL. PT.          57054021
 007D84 07FE                       10695          BCR   UNCOND,R14          RETURN                               57060021
 007D86 4140 D6E9      0BC29       10696 NUM005   LA    R4,LITVAL+NX3       GET STARTING ADDRESS                 57066021
 007D8A 910F 4000      00000       10697 NUM007   TM    DX0(R4),TZERO       SEE IF ZERO                          57072021
 007D8E 4770 F73A      07D7A       10698          BNZ   NUM000              CALL ERR RTN                         57078021
 007D92 1542                       10699          CLR   R4,R2               AT END                               57084021
 007D94 4780 F52C      07B6C       10700          BE    FIZ035              YES, OK GO PROCESS LIKE ZERO         57090021
 007D98 4144 0001      00001       10701          LA    R4,DX1(R4)          POINT TO NEXT BYTE                   57096021
 007D9C 47F0 F74A      07D8A       10702          B     NUM007              CHECK NEXT BYTE                      57102021
 007DA0 4540 F098      076D8       10703 NUM010   BAL   R4,VERROR           CHANGE LITERAL TO BLANKS             57108021
 007DA4 1080                       10704          DC    X'1080'             128                                  57114021
 007DA6 47F0 F43C      07A7C       10705          BC    UNCOND,FIG055       BAD CHAR AS FIGCON, MAKE F. BLK      57120021
 007DAA 5550 D420      0B960       10706 NUM020   CL    R5,ELEVEN                                                57126021
 007DAE 4740 F746      07D86       10707          BL    NUM005              INT FLT PT                           57132021
                             0000F 10708 TZERO    EQU   X'0F'                                                    57138021
 007DB2 5550 D428      0B968       10709          CL    R5,CON13                                                 57144021
 007DB6 47B0 F73A      07D7A       10710          BC    NOTLO,NUM000        VALUE CLAUSE ILLEGAL                 57150021
 007DBA 9180 D613      0BB53       10711 NUM025   TM    VILGN,XX80           EXAMINE THE SCALE.                  57156021
 007DBE 4710 FB46      08186       10712          BC    ONES,NUM300            LESS THAN ZERO.                   57162021
 007DC2 9500 D613      0BB53       10713          CLI   VILGN,XX00                                               57168021
 007DC6 4720 F952      07F92       10714          BC    HI,NUM200              GREATER THAN 0.                   57174021
                                   10715 *                                                                       57180021
                                   10716 *  SCALE = 0, THE ITEM IS AN INTEGER DESCRIBED BY 9'S ONLY.             57186021
                                   10717 *                                                                       57192021
 007DCA 9500 D6E8      0BC28       10718 NUM030   CLI   LITVAL+NX2,XX00      DOES LITERAL HAVE DECIMALS.         57198021
 007DCE 4780 F7A4      07DE4       10719          BC    EQ,NUM040              ERROR AND                         57204021
 007DD2 4160 F7A4      07DE4       10720          LA    R6,NUM040                                                57210021
 007DD6 4540 FD58      08398       10721          BAL   R4,SETA             SEE IF DECIMAL DIGITS=0              57216021
 007DDA 4540 F098      076D8       10722          BAL   R4,VERROR           CALL ERR RTN                         57222021
 007DDE 1081                       10723          DC    X'1081'             129                                  57228021
 007DE0 47F0 F4F4      07B34       10724          BC    UNCOND,FIZ030          LITERAL IS CHANGED TO 0.          57234021
                                   10725 *                                                                       57240021
 007DE4 1B22                       10726 NUM040   SR    R2,R2                                                    57246021
 007DE6 4320 D614      0BB54       10727          IC    R2,VILGN+NX1                                             57252021
 007DEA 5020 DF3C      0C47C       10728          ST    R2,MTEMP1                                                57258021
 007DEE 1B11                       10729 NUM045   SR    R1,R1                                                    57264021
 007DF0 4310 D6E7      0BC27       10730          IC    R1,LITVAL+NX1                                            57270021
 007DF4 1921                       10731          CR    R2,R1                                                    57276021
 007DF6 4780 F83A      07E7A       10732          BC    EQ,NUM060           BRANCH                               57282021
 007DFA 4720 F7D0      07E10       10733          BC    HI,NUM048           BRANCH                               57288021
 007DFE 4160 F83A      07E7A       10734          LA    R6,NUM060                                                57294021
 007E02 4540 FDDC      0841C       10735          BAL   R4,SETD             SEE IF LEADING DIGITS=0              57300021
 007E06 4540 F098      076D8       10736          BAL   R4,VERROR           ERROR IF ATTRIB LGN IS SHORTER       57306021
 007E0A 1081                       10737          DC    X'1081'             129                                  57312021
 007E0C 47F0 F4F4      07B34       10738          BC    UNCOND,FIZ030          CHANGED LITERAL TO 0.             57318021
                             07E10 10739 NUM048   EQU   *                                                        57324021
1PH20     IKFCBL20                                                                                              PAGE  251
-  LOC  OBJECT CODE    ADDR1 ADDR2  STMT   SOURCE STATEMENT                                       ASM 0201 11.03 02/14/15
0007E10 41C0 DDF4      0C334       10740          LA    R12,LITBUF+NX8          LITERAL LENGTH.                  57330021
 007E14 1B44                       10741          SR    R4,R4                                                    57336021
 007E16 4340 D6E8      0BC28       10742          IC    R4,LITVAL+NX2       CALCULATE THE TOTAL LGN OF LITERA    57342021
 007E1A 1A42                       10743          AR    R4,R2                                                    57348021
 007E1C 1B21                       10744          SR    R2,R1                                                    57354021
 007E1E 92F0 C000      00000       10745          MVI   DX0(R12),XXF0                                            57360021
 007E22 5B20 D3FC      0B93C       10746          S     R2,TWO                                                   57366021
 007E26 4740 F7F4      07E34       10747          BC    NEG,NUM050          BRANCH                               57372021
 007E2A 4420 FCF4      08334       10748          EX    R2,NUM075                                                57378021
 007E2E 1AC2                       10749          AR    R12,R2                                                   57384021
 007E30 5AC0 D3F8      0B938       10750          A     R12,ONE                                                  57390021
 007E34 5AC0 D3F8      0B938       10751 NUM050   A     R12,ONE                                                  57396021
 007E38 4310 D6E7      0BC27       10752          IC    R1,LITVAL+NX1                                            57402021
 007E3C 1211                       10753          LTR   R1,R1                                                    57408021
 007E3E 4780 F806      07E46       10754          BC    ZERO,SKIPEX         YES SKIP NEXT INSTRUCTION            57414021
 007E42 4410 FCFA      0833A       10755          EX    R1,NUM076                                                57420021
 007E46 1AC1                       10756 SKIPEX   AR    R12,R1                                                   57426021
 007E48 9500 D6E8      0BC28       10757          CLI   LITVAL+NX2,XX00                                          57432021
 007E4C 4780 F824      07E64       10758          BC    EQ,NUM055           BRANCH                               57438021
 007E50 1B22                       10759          SR    R2,R2                                                    57444021
 007E52 4320 D6E8      0BC28       10760          IC    R2,LITVAL+NX2                                            57450021
 007E56 5B20 D3F8      0B938       10761          S     R2,ONE                                                   57456021
 007E5A 4130 D6E9      0BC29       10762          LA    R3,LITVAL+NX3                                            57462021
 007E5E 1A31                       10763          AR    R3,R1                                                    57468021
 007E60 4420 FD00      08340       10764          EX    R2,NUM077                                                57474021
 007E64 4120 DDF4      0C334       10765 NUM055   LA    R2,LITBUF+NX8                                            57480021
 007E68 1832                       10766          LR    R3,R2                                                    57486021
 007E6A 1814                       10767          LR    R1,R4                                                    57492021
 007E6C 4340 D75F      0BC9F       10768          IC    R4,NOOFPS           SUBTRACT SCALE FROM LIT. LGN. IF     57498021
 007E70 1B14                       10769          SR    R1,R4                THIS RTN ENTERED FOR  LEADING Z     57504021
 007E72 5010 DF3C      0C47C       10770          ST    R1,MTEMP1                                                57510021
 007E76 47F0 F848      07E88       10771          BC    UNCOND,NUM070       SEE WHAT FORM OUTPUT IS WANTED       57516021
 007E7A 41C0 DDF4      0C334       10772 NUM060   LA    R12,LITBUF+NX8                                           57522021
 007E7E 0620                       10773        BCTR  R2,R0                 BRANCH                               57528021
 007E80 4420 FCFA      0833A       10774          EX    R2,NUM076                                                57534021
 007E84 4120 DDF4      0C334       10775          LA    R2,LITBUF+NX8                                            57540021
 007E88 5550 D414      0B954       10776 NUM070   CL    R5,EIGHT                                                 57546021
 007E8C 4780 F86C      07EAC       10777          BC    EQ,NUM090           EXTERNAL DECIMAL OUTPUT WANTED.      57552021
 007E90 5550 D420      0B960       10778          CL    R5,ELEVEN                                                57558021
 007E94 4780 F8EE      07F2E       10779          BC    EQ,NUM170           BINARY OUTPUT WANTED.                57564021
 007E98 5550 D424      0B964       10780          CL    R5,TWELVE                                                57570021
 007E9C 4780 F8A8      07EE8       10781          BC    EQ,NUM100           INTERNAL DECIMAL OUTPUT WANTED.      57576021
 007EA0 4540 F098      076D8       10782 NUM080   BAL   R4,VERROR           CALL ERR RTN                         57582021
 007EA4 2082                       10783          DC    X'2082'             130                                  57588021
 007EA6 58E0 D9D0      0BF10       10784          L     R14,RS14B           OTHERWISE,VALUE IS DROPPED.          57594021
 007EAA 07FE                       10785          BCR   UNCOND,R14          RETURN                               57600021
 007EAC 18C2                       10786 NUM090   LR    R12,R2              WRITE OUT IN A-TEXT FORMAT.          57606021
 007EAE 5BC0 D410      0B950       10787          S     R12,SEVEN                                                57612021
 007EB2 9228 C000      00000       10788          MVI   DX0(R12),XX28                                            57618021
 007EB6 D202 C001 B149 00001 00149 10789          MVC   DX1(LX3,R12),LOCCTR+NX1                                  57624021
 007EBC 9200 C004      00004       10790          MVI   DX4(R12),HEXCOD                                          57630021
 007EC0 D201 C005 D678 00005 0BBB8 10791          MVC   DX5(LX2,R12),CILGN                                       57636021
 007EC6 50C0 DEEC      0C42C       10792          ST    R12,ADDRES                                               57642021
 007ECA 4810 D678      0BBB8       10793          LH    R1,CILGN                                                 57648021
 007ECE 5A10 D410      0B950       10794          A     R1,SEVEN                                                 57654021
1PH20     IKFCBL20                                                                                              PAGE  252
-  LOC  OBJECT CODE    ADDR1 ADDR2  STMT   SOURCE STATEMENT                                       ASM 0201 11.03 02/14/15
0007ED2 5010 DE84      0C3C4       10795          ST    R1,NMPUT                                                 57660021
 007ED6 45E0 F086      076C6       10796 NUM095   BAL   R14,PUTOUT          PUT OUT Q-RTN TEXT                   57666021
 007EDA 4120 DDEC      0C32C       10797          LA    R2,LITBUF                                                57672021
 007EDE 5020 DEEC      0C42C       10798          ST    R2,ADDRES                                                57678021
 007EE2 58E0 D9D0      0BF10       10799          L     R14,RS14B                                                57684021
 007EE6 07FE                       10800          BCR   UNCOND,R14          RETURN                               57690021
                                   10801 *                                                                       57696021
 007EE8 4130 DDF4      0C334       10802 NUM100   LA    R3,LITBUF+NX8                                            57702021
 007EEC 5810 DF3C      0C47C       10803 NUM110   L     R1,MTEMP1                                                57708021
 007EF0 45E0 FDF0      08430       10804          BAL   R14,EDID            CONVERT EXT DECIAML TO INT DEC       57714021
 007EF4 41C0 DF09      0C449       10805          LA    R12,WKAREA-NX7                                           57720021
 007EF8 9228 C000      00000       10806          MVI   DX0(R12),XX28                                            57726021
 007EFC D202 C001 B149 00001 00149 10807          MVC   DX1(LX3,R12),LOCCTR+NX1                                  57732021
 007F02 9200 C004      00004       10808          MVI   DX4(R12),HEXCOD                                          57738021
 007F06 D201 C005 D678 00005 0BBB8 10809          MVC   DX5(LX2,R12),CILGN                                       57744021
 007F0C 4860 D678      0BBB8       10810          LH    R6,CILGN                                                 57750021
 007F10 5A60 D410      0B950       10811          A     R6,SEVEN                                                 57756021
 007F14 5060 DE84      0C3C4       10812          ST    R6,NMPUT                                                 57762021
 007F18 50C0 DEEC      0C42C       10813          ST    R12,ADDRES                                               57768021
 007F1C 45E0 F086      076C6       10814          BAL   R14,PUTOUT          PUT OUT Q-RTN TEXT                   57774021
 007F20 4120 DDEC      0C32C       10815          LA    R2,LITBUF                                                57780021
 007F24 5020 DEEC      0C42C       10816          ST    R2,ADDRES                                                57786021
 007F28 58E0 D9D0      0BF10       10817          L     R14,RS14B                                                57792021
 007F2C 07FE                       10818          BCR   UNCOND,R14          RETURN                               57798021
                                   10819 *                                                                       57804021
 007F2E 4130 DDF4      0C334       10820 NUM170   LA    R3,LITBUF+NX8        OUTPUT LITERAL IN BINARY FORM.      57810021
 007F32 5810 DF3C      0C47C       10821 NUM175   L     R1,MTEMP1                                                57816021
 007F36 45E0 FDF0      08430       10822          BAL   R14,EDID            CONVERT EXT DECIMAL TO INT DEC       57822021
 007F3A 5810 DEF4      0C434       10823          L     R1,OUTPUT                                                57828021
 007F3E 4130 DF10      0C450       10824          LA    R3,WKAREA                                                57834021
 007F42 58F0 FE8C      084CC       10825          L     R15,AIDBI                 ADDRESSIBILITY                 57840021
 007F46 05EF                       10826          BALR  R14,R15                    BR TO RTN                     57846021
 007F48 58F0 DC04      0C144       10827          L     R15,AVALGN               RESTORE ADDRESSIBILITY          57852021
 007F4C D500 DEF4 D679 0C434 0BBB9 10828          CLC   OUTPUT(LX1),CILGN+NX1                                    57858021
 007F52 47D0 F922      07F62       10829          BC    NOTHI,NUM180        BRANCH                               57864021
 007F56 4540 F098      076D8       10830          BAL   R4,VERROR           CALL ERR RTN                         57870021
 007F5A 1080                       10831          DC    X'1080'             128                                  57876021
 007F5C 58E0 D9D0      0BF10       10832          L     R14,RS14B                                                57882021
 007F60 07FE                       10833          BR    R14                 BRANCH                               57888021
 007F62 9023 DDF4      0C334       10834 NUM180   STM   R2,R3,LITBUF+NX8                                         57894021
 007F66 4810 D678      0BBB8       10835          LH    R1,CILGN                                                 57900021
 007F6A 9502 D679      0BBB9       10836          CLI   CILGN+NX1,XX02                                           57906021
 007F6E 4780 F942      07F82       10837          BC    EQ,NUM182           GO GET 2 BYTES BINARY OUTPUT         57912021
 007F72 9504 D679      0BBB9       10838          CLI   CILGN+NX1,XX04                                           57918021
 007F76 4780 F94A      07F8A       10839          BC    EQ,NUM184           GO GET 4 BYTES BINARY OUTPUT         57924021
 007F7A 4120 DDF4      0C334       10840          LA    R2,LITBUF+NX8        8 BYTES OF OUTPUT.                  57930021
 007F7E 47F0 F86C      07EAC       10841          BC    UNCOND,NUM090       GO WRITE OUT IN A-TEXT FORMAT        57936021
 007F82 4120 DDF6      0C336       10842 NUM182   LA    R2,LITBUF+NX10       2 BYTES OF BINARY OUTPUT.           57942021
 007F86 47F0 F86C      07EAC       10843          BC    UNCOND,NUM090       GO WRITE OUT IN A-TEXT FORMAT        57948021
 007F8A 4120 DDF4      0C334       10844 NUM184   LA    R2,LITBUF+NX8        4 BYTES OF BINARY OUTPUT.           57954021
 007F8E 47F0 F86C      07EAC       10845          BC    UNCOND,NUM090       GO WRITE OUT IN A-TEXT FORMAT        57960021
                                   10846 *                                                                       57966021
                                   10847 *  SCALE IS GREATER THAN ZERO. VALUE OF SCALE = NO. OF P'S + NO. OF     57972021
                                   10848 *   TO THE RIGHT OF THE DEC. POINT. LIT OF FORM 99V9,V9, OR VP9  .      57978021
                                   10849 *                                                                       57984021
1PH20     IKFCBL20                                                                                              PAGE  253
-  LOC  OBJECT CODE    ADDR1 ADDR2  STMT   SOURCE STATEMENT                                       ASM 0201 11.03 02/14/15
0                            07F92 10850 NUM200   EQU   *                                                        57990021
 007F92 D500 D613 D6E8 0BB53 0BC28 10851 NUM210   CLC   VILGN(LX1),LITVAL+NX2 COMPARE SCALE WITH NO. OF DECIMA   57996021
 007F98 4720 F972      07FB2       10852          BC    HI,NUM220           SCALE GREATER, TRAILING 0 ADDED.     58002021
 007F9C 4780 F9CE      0800E       10853          BC    EQ,NUM230           SEE P'S PRESENT,CHECK CORR DIGT      58008021
 007FA0 4160 F9CE      0800E       10854          LA    R6,NUM230                                                58014021
 007FA4 4540 FDC4      08404       10855          BAL   R4,SETB             SEE IF EXTRA DECIMAL DIGITS=0        58020021
 007FA8 4540 F098      076D8       10856          BAL   R4,VERROR           CALL ERR RTN                         58026021
 007FAC 1081                       10857          DC    X'1081'             129                                  58032021
 007FAE 47F0 F4F4      07B34       10858          BC    UNCOND,FIZ030       BRANCH                               58038021
                                   10859 *                                                                       58044021
 007FB2 1B22                       10860 NUM220   SR    R2,R2                                                    58050021
 007FB4 1B77                       10861          SR    R7,R7                                                    58056021
 007FB6 4320 D613      0BB53       10862          IC    R2,VILGN            ADD TRAILING ZEROS TO LITERAL.       58062021
 007FBA 1B11                       10863          SR    R1,R1                                                    58068021
 007FBC 4310 D6E6      0BC26       10864          IC    R1,LITVAL                                                58074021
 007FC0 41C0 D6E6      0BC26       10865          LA    R12,LITVAL                                               58080021
 007FC4 1AC1                       10866          AR    R12,R1                                                   58086021
 007FC6 96F0 C000      00000       10867          OI    DX0(R12),XXF0        CHANGE THIS ZONE TO F.              58092021
 007FCA 5AC0 D3F8      0B938       10868          A     R12,ONE                                                  58098021
 007FCE 4310 D6E8      0BC28       10869          IC    R1,LITVAL+NX2                                            58104021
 007FD2 1B21                       10870          SR    R2,R1                                                    58110021
 007FD4 92F0 C000      00000       10871          MVI   DX0(R12),XXF0                                            58116021
 007FD8 5B20 D3FC      0B93C       10872          S     R2,TWO                                                   58122021
 007FDC 47B0 F9A8      07FE8       10873          BC    NOTNEG,NUM223       BRANCH                               58128021
 007FE0 5BC0 D3F8      0B938       10874          S     R12,ONE                                                  58134021
 007FE4 47F0 F9B4      07FF4       10875          BC    UNCOND,NUM226       BRANCH                               58140021
 007FE8 4420 FCF4      08334       10876 NUM223   EX    R2,NUM075                                                58146021
 007FEC 1A72                       10877          AR    R7,R2                                                    58152021
 007FEE 5A70 D3F8      0B938       10878          A     R7,ONE                                                   58158021
 007FF2 1AC2                       10879 NUM225   AR    R12,R2                                                   58164021
 007FF4 5AC0 D3F8      0B938       10880 NUM226   A     R12,ONE                                                  58170021
 007FF8 5A70 D3F8      0B938       10881          A     R7,ONE                                                   58176021
 007FFC D300 C000 DCFA 00000 0C23A 10882          MVZ   DX0(LX1,R12),NMSIGN                                      58182021
 008002 1B11                       10883          SR    R1,R1               UP THE DECIMAL COUNT AFTER PADDI     58188021
 008004 4310 D6E8      0BC28       10884          IC    R1,LITVAL+NX2                                            58194021
 008008 1A17                       10885          AR    R1,R7                                                    58200021
 00800A 4210 D6E8      0BC28       10886          STC   R1,LITVAL+NX2                                            58206021
 00800E 9500 D75F      0BC9F       10887 NUM230   CLI   NOOFPS,XX00          IF THERE ARE P'S PRESENT,  CHECK    58212021
 008012 4780 FB04      08144       10888          BC    EQ,NUM260              THE CORRESPONDING DIGITS.         58218021
 008016 1B22                       10889          SR    R2,R2                                                    58224021
 008018 4320 D75F      0BC9F       10890          IC    R2,NOOFPS              FOR ZERO                          58230021
 00801C 1BCC                       10891          SR    R12,R12            CLEAR REGISTER 12                     58236021
 00801E 43C0 D6E7      0BC27       10892          IC    R12,LITVAL+NX1     LOAD LEFT SCALE FACTOR                58242021
 008022 41CC D6E9      0BC29       10893          LA    R12,LITVAL+NX3(R12)   POINT CHAR AFTER DEC POINT         58248021
 008026 183C                       10894          LR    R3,R12             REG3 ALSO POINT TO CHAR RIGHT         58254021
 008028 910F C000      00000       10895 NUM240   TM    DX0(R12),XX0F                                            58260021
 00802C 4780 F9FA      0803A       10896        BC      ZERO,NUM250         BRANCH                               58266021
 008030 92F0 C000      00000       10897          MVI   DX0(R12),XXF0                                            58272021
 008034 4540 F098      076D8       10898          BAL   R4,VERROR           CALL ERR RTN                         58278021
 008038 1086                       10899          DC    X'1086'             134                                  58284021
 00803A 5AC0 D3F8      0B938       10900 NUM250   A     R12,ONE                                                  58290021
 00803E 4620 F9E8      08028       10901          BCT   R2,NUM240           BRANCH                               58296021
 008042 1B11                       10902          SR    R1,R1              CLEAR REG1                            58302021
 008044 4310 D6E8      0BC28       10903          IC    R1,LITVAL+NX2      NO OF RIGHT DIGITS FROM DEC POINT     58308021
 008048 0610                       10904          BCTR  R1,R0              DECREMENT ONE                         58314021
1PH20     IKFCBL20                                                                                              PAGE  254
-  LOC  OBJECT CODE    ADDR1 ADDR2  STMT   SOURCE STATEMENT                                       ASM 0201 11.03 02/14/15
000804A 4121 3000      00000       10905          LA    R2,DX0(R1,R3)      REGS POINT LAST CHAR OF INIT.         58320021
 00804E D200 D4B8 2000 0B9F8 00000 10906          MVC   SAVZONE(LX1),DX0(R2)    SAVE LAST CHAR OF INIT.          58326021
 008054 96F0 2000      00000       10907          OI    DX0(R2),XXF0       MAKE LAST CHAR TO -FN-                58332021
 008058 4310 D6E8      0BC28       10908          IC    R1,LITVAL+NX2                                            58338021
 00805C 1B22                       10909          SR    R2,R2              CLEAR REG2                            58344021
 00805E 4320 D75F      0BC9F       10910          IC    R2,NOOFPS          LOAD NO OF P'S TO REG2                58350021
 008062 1B12                       10911          SR    R1,R2              NO OF DIGIT TO BE MOVED               58356021
 008064 1211                       10912          LTR   R1,R1              TEST FOR POSITIVE                     58362021
 008066 4720 FA34      08074       10913          BH    MOVESIG            IF POSITIVE,  BRANCH TO MOVESIG       58368021
 00806A 1B11                       10914          SR    R1,R1              RESET REG1                            58374021
 00806C 41C0 D6E9      0BC29       10915          LA    R12,LITVAL+NX3                                           58380021
 008070 47F0 FA42      08082       10916          B     INSZEROS           BRANCG TO INSZEROS                    58386021
                                   10917 *                                                                       58392021
 008074                            10918 MOVESIG  DS    0H                                                       58398021
 008074 0610                       10919          BCTR  R1,R0              DECREMENT BY ONE                      58404021
 008076 4122 D6E9      0BC29       10920          LA    R2,LITVAL+NX3(R2)  NEXT CHAR OF LAST P                   58410021
 00807A 4410 FB40      08180       10921          EX    R1,ADJMOVE         MOVE NO P'S TO LEFT                   58416021
 00807E 41C1 2001      00001       10922          LA    R12,NX1(R1,R2)                                           58422021
 008082                            10923 INSZEROS DS    0H                                                       58428021
 008082 1B22                       10924          SR    R2,R2                                                    58434021
 008084 4320 D6E8      0BC28       10925          IC    R2,LITVAL+NX2      INSERT NO OF LEFT CONSTANT            58440021
 008088 0620                       10926          BCTR  R2,R0              DECREMENT ONE                         58446021
 00808A 4132 3000      00000       10927          LA    R3,DX0(R2,R3)      POINT LAST POSITION OF 9              58452021
 00808E 4120 0001      00001       10928          LA    R2,NX1             INSERT VALUE 1 TO REG2                58458021
 008092 92F0 C000      00000       10929          MVI   DX0(R12),XXF0      INSERT ZERO                           58464021
 008096 87C2 FA52      08092       10930          BXLE  R12,R2,*-NX4       REPEAT UNTIL                          58470021
 00809A 4320 D614      0BB54       10931          IC    R2,VILGN+NX1                                             58476021
 00809E 1B11                       10932          SR    R1,R1                                                    58482021
 0080A0 4310 D75F      0BC9F       10933          IC    R1,NOOFPS                                                58488021
 0080A4 4121 2000      00000       10934          LA    R2,DX0(R1,R2)                                            58494021
 0080A8 4110 D6E9      0BC29       10935          LA    R1,LITVAL+NX3                                            58500021
 0080AC 4121 2000      00000       10936          LA    R2,DX0(R1,R2)                                            58506021
 0080B0 0620                       10937          BCTR  R2,R0              DECREMENT ONE                         58512021
 0080B2 D300 2000 D4B8 00000 0B9F8 10938          MVZ   DX0(LX1,R2),SAVZONE                                      58518021
 0080B8 D300 3000 D4B8 00000 0B9F8 10939          MVZ   DX0(LX1,R3),SAVZONE     INSERT SIGN                      58524021
 0080BE 4120 D6E9      0BC29       10940 NUM255   LA    R2,LITVAL+NX3                                            58530021
 0080C2 1B11                       10941          SR    R1,R1                                                    58536021
 0080C4 4310 D75F      0BC9F       10942          IC    R1,NOOFPS                                                58542021
 0080C8 1B33                       10943          SR    R3,R3                                                    58548021
 0080CA 4330 D614      0BB54       10944          IC    R3,VILGN+NX1                                             58554021
 0080CE 1A13                       10945          AR    R1,R3               BRANCH                               58560021
 0080D0 5010 DF3C      0C47C       10946          ST    R1,MTEMP1                                                58566021
 0080D4 4130 D6E9      0BC29       10947          LA    R3,LITVAL+NX3                                            58572021
 0080D8 9180 D613      0BB53       10948          TM    VILGN,XX80                                               58578021
 0080DC 4710 FAC8      08108       10949          BC    ONES,NUM259         BRANCH                               58584021
 0080E0 9500 D613      0BB53       10950          CLI   VILGN,XX00                                               58590021
 0080E4 4780 FAE8      08128       10951          BC    EQ,NUM258           CHECK WHAT FORMAT OUTPUT WANTED      58596021
 0080E8 9500 D75F      0BC9F       10952          CLI   NOOFPS,XX00           SCALE IS GREATER THAN 0.           58602021
 0080EC 4780 FAE8      08128       10953          BC    EQ,NUM258           CHECK WHAT FORMAT OUTPUT WANTED      58608021
 0080F0 1B22                       10954 NUM256   SR    R2,R2                                                    58614021
 0080F2 4320 D75F      0BC9F       10955          IC    R2,NOOFPS                                                58620021
 0080F6 1A32                       10956          AR    R3,R2                                                    58626021
 0080F8 1823                       10957          LR    R2,R3                                                    58632021
 0080FA 1B11                       10958          SR    R1,R1                                                    58638021
 0080FC 4310 D614      0BB54       10959          IC    R1,VILGN+NX1                                             58644021
1PH20     IKFCBL20                                                                                              PAGE  255
-  LOC  OBJECT CODE    ADDR1 ADDR2  STMT   SOURCE STATEMENT                                       ASM 0201 11.03 02/14/15
0008100 5010 DF3C      0C47C       10960          ST    R1,MTEMP1                                                58650021
 008104 47F0 FAE8      08128       10961          BC    UNCOND,NUM258       CHECK WHAT FORMAT OUTPUT WANTED      58656021
 008108 9500 D75F      0BC9F       10962 NUM259   CLI   NOOFPS,XX00                                              58662021
 00810C 4780 FAE8      08128       10963          BC    EQ,NUM258           SET UP THE CORRECT SIGN FOR OUTP     58668021
 008110 1B22                       10964          SR    R2,R2                                                    58674021
 008112 4320 D614      0BB54       10965          IC    R2,VILGN+NX1                                             58680021
 008116 5020 DF3C      0C47C       10966          ST    R2,MTEMP1                                                58686021
 00811A 1A23                       10967          AR    R2,R3                                                    58692021
 00811C 5B20 D3F8      0B938       10968          S     R2,ONE                                                   58698021
 008120 D300 2000 DCFA 00000 0C23A 10969          MVZ   DX0(LX1,R2),NMSIGN                                       58704021
 008126 1823                       10970          LR    R2,R3                                                    58710021
 008128 5550 D414      0B954       10971 NUM258   CL    R5,EIGHT                                                 58716021
 00812C 4780 F86C      07EAC       10972          BC    EQ,NUM090           EXTERNAL DECIMAL OUTPUT.             58722021
 008130 5550 D420      0B960       10973          CL    R5,ELEVEN                                                58728021
 008134 4780 F8F2      07F32       10974          BC    EQ,NUM175           BINARY OUTPUT.                       58734021
 008138 5550 D424      0B964       10975          CL    R5,TWELVE                                                58740021
 00813C 4780 F8AC      07EEC       10976          BC    EQ,NUM110           INTERNAL DECIMAL OUTPUT.             58746021
 008140 47F0 F860      07EA0       10977          BC    UNCOND,NUM080       CALL ERR RTN                         58752021
                                   10978 *                                                                       58758021
                             08144 10979 NUM260   EQU   *                                                        58764021
 008144 1B11                       10980          SR    R1,R1                                                    58770021
 008146 1B22                       10981          SR    R2,R2                                                    58776021
 008148 4320 D614      0BB54       10982          IC    R2,VILGN+NX1         WHEN DEC DIGIT LGN IS GREATER TH    58782021
 00814C 4310 D613      0BB53       10983          IC    R1,VILGN               SCALE, THEN INTEGER DIGITS AR     58788021
 008150 1B21                       10984          SR    R2,R1                  PRESENT IN VALUE                  58794021
 008152 5020 DF38      0C478       10985          ST    R2,MTEMP                                                 58800021
 008156 D500 DF3B D6E7 0C47B 0BC27 10986          CLC   MTEMP+NX3(LX1),LITVAL+NX1                                58806021
 00815C 4780 FA7E      080BE       10987          BC    EQ,NUM255           BRANCH                               58812021
 008160 4720 F7AE      07DEE       10988          BC    HI,NUM045              LEADING 0 TO BE ADDED.            58818021
 008164 1222                       10989          LTR   R2,R2                    IS REG 2 ZERO             45674 58824021
 008166 4780 FB32      08172       10990          BC    ZERO,NUM265                YES, THEN ERROR         45674 58830021
 00816A 4160 FA7E      080BE       10991          LA    R6,NUM255                                                58836021
 00816E 4540 FDD6      08416       10992          BAL   R4,SETE             SEE IF EXTRA DIGITS=0                58842021
                             08172 10993 NUM265   EQU   *                                                  45674 58848021
 008172 4540 F098      076D8       10994          BAL   R4,VERROR           CALL ERR RTN                         58854021
 008176 1081                       10995          DC    X'1081'             129                                  58860021
 008178 41C0 DDED      0C32D       10996          LA    R12,LITBUF+NX1                                           58866021
 00817C 47F0 F4F4      07B34       10997          BC    UNCOND,FIZ030          VALUE TOO BIG, CHANGED TO 0.      58872021
 008180 D200 2000 C000 00000 00000 10998 ADJMOVE  MVC   DX0(0,R2),DX0(R12)                                       58878021
                                   10999 *                                                                       58884021
                                   11000 *  SCALE IS LESS THAN ZERO. ABSOLUTE VALUE OF SCALE IS THE NUMBER O     58890021
                                   11001 *    P'S TO THE LEFT OF THE DECIMAL POINT.  PICTURE OF FORM 99PV.       58896021
                                   11002 *                                                                       58902021
 008186 9500 D6E8      0BC28       11003 NUM300   CLI   LITVAL+NX2,XX00      ERROR IF THERE ARE DECIMAL DIGIT    58908021
 00818A 4780 FB60      081A0       11004          BC    EQ,NUM310              IN VALUE, CHANGE VALUE TO 0.      58914021
 00818E 4160 FB60      081A0       11005          LA    R6,NUM310                                                58920021
 008192 4540 FD58      08398       11006          BAL   R4,SETA             SEE IF DECIMAL DIGITS=0              58926021
 008196 4540 F098      076D8       11007          BAL   R4,VERROR           CALL ERR RTN                         58932021
 00819A 1081                       11008          DC    X'1081'             129                                  58938021
 00819C 47F0 F4F4      07B34       11009          BC    UNCOND,FIZ030       BRANCH                               58944021
 0081A0 9500 D75F      0BC9F       11010 NUM310   CLI   NOOFPS,XX00                                              58950021
 0081A4 4780 FBDA      0821A       11011          BC    EQ,NUM340           BRANCH                               58956021
 0081A8 41C0 D6E6      0BC26       11012          LA    R12,LITVAL          P'S ARE PRESENT IN PICTURE,CHECK     58962021
 0081AC 1B22                       11013          SR    R2,R2                  THE CORRESPONDING DIGITS FOR      58968021
 0081AE 4320 D6E7      0BC27       11014          IC    R2,LITVAL+NX1            CNT OF CHARS IN PIC       40336 58974021
1PH20     IKFCBL20                                                                                              PAGE  256
-  LOC  OBJECT CODE    ADDR1 ADDR2  STMT   SOURCE STATEMENT                                       ASM 0201 11.03 02/14/15
00081B2 95F0 C003      00003       11015 NM310    CLI   DX3(R12),XXF0            IS VALUE 0 SPEC'D         40336 58980021
 0081B6 4770 FBB0      081F0       11016          BNE   NUM315                     NO, BR                  40336 58986021
 0081BA 41CC 0001      00001       11017          LA    R12,DX1(R12)             YES, PT TO NXT CHAR       40336 58992021
 0081BE 4620 FB72      081B2       11018          BCT   R2,NM310                 CHK NXT UNTIL FINISHED    40336 58998021
 0081C2 41C0 D6E6      0BC26       11019          LA    R12,LITVAL                 RESTORE ADDR            40336 59004021
 0081C6 4320 D75F      0BC9F       11020          IC    R2,NOOFPS                 NO. OF P'S IN PIC        40336 59010021
 0081CA 5A20 D400      0B940       11021          A     R2,THREE                   ALTER VALUE             40336 59016021
 0081CE 422C 0000      00000       11022          STC   R2,DX0(R12)                  CLAUSE TEXT           40336 59022021
 0081D2 5B20 D3FC      0B93C       11023          S     R2,TWO                           TO INCLUDE        40336 59028021
 0081D6 422C 0001      00001       11024          STC   R2,DX1(R12)                    F0'S FOR            40336 59034021
 0081DA 1B22                       11025          SR    R2,R2                            EACH              40336 59040021
 0081DC 4320 D75F      0BC9F       11026          IC    R2,NOOFPS                     P IN PICTURE         40336 59046021
 0081E0 92F0 C004      00004       11027 NUM310A  MVI   DX4(R12),XXF0             WHEN VALUE IS 0          40336 59052021
 0081E4 41CC 0001      00001       11028          LA    R12,DX1(R12)                      IS               40336 59058021
 0081E8 4620 FBA0      081E0       11029          BCT   R2,NUM310A                   SPECIFIED             40336 59064021
 0081EC 47F0 FBDA      0821A       11030          B     NUM340                   BR AROUND CHK FOR F0'S    40336 59070021
                             081F0 11031 NUM315   EQU   *                                                  40336 59076021
 0081F0 4320 D6E6      0BC26       11032          IC    R2,LITVAL                                                59082021
 0081F4 1AC2                       11033          AR    R12,R2                                                   59088021
 0081F6 4320 D75F      0BC9F       11034          IC    R2,NOOFPS                                                59094021
 0081FA 41CC 0001      00001       11035          LA    R12,DX1(R12)                                             59100021
 0081FE 1BC2                       11036          SR    R12,R2                                                   59106021
 008200 910F C000      00000       11037 NUM320   TM    DX0(R12),XX0F                                            59112021
 008204 4780 FBD2      08212       11038        BC      ZERO,NUM330         BRANCH                               59118021
 008208 92F0 C000      00000       11039          MVI   DX0(R12),XXF0                                            59124021
 00820C 4540 F098      076D8       11040          BAL   R4,VERROR           CALL ERR RTN                         59130021
 008210 1086                       11041          DC    X'1086'             134                                  59136021
 008212 5AC0 D3F8      0B938       11042 NUM330   A     R12,ONE                                                  59142021
 008216 4620 FBC0      08200       11043          BCT   R2,NUM320           BRANCH                               59148021
 00821A 1B22                       11044 NUM340   SR    R2,R2                                                    59154021
 00821C 4320 D75F      0BC9F       11045          IC    R2,NOOFPS           P'S + DEC DIGIT LGN = TOTAL NO O     59160021
 008220 1B11                       11046          SR    R1,R1                  INTEGERS IN PICTURE.              59166021
 008222 4310 D614      0BB54       11047          IC    R1,VILGN+NX1                                             59172021
 008226 1A21                       11048          AR    R2,R1                                                    59178021
 008228 4220 DF38      0C478       11049          STC   R2,MTEMP                                                 59184021
 00822C D500 DF38 D6E7 0C478 0BC27 11050          CLC   MTEMP(LX1),LITVAL+NX1                                    59190021
 008232 4780 FA7E      080BE       11051          BC    EQ,NUM255           BRANCH                               59196021
 008236 47F0 F7AE      07DEE       11052          BC    UNCOND,NUM045       ADD LEADING 0 ON TO LITERAL.         59202021
                                   11053 *                                                                       59208021
                                   11054 *                                                                       59214021
                                   11055 *  NO CHECKING IS DONE FOR CONDITION-NAME LITERALS. LITERAL IS CONV     59220021
                                   11056 *    ED FROM EXT. DECIMAL FORM TO INTERNAL DECIMAL FORM PUT INTO        59226021
                                   11057 *    THE DICTIONARY IN IC-TEXT FORMAT.                                  59232021
                                   11058 *                                                                       59238021
 00823A 4130 D6E9      0BC29       11059 NUM400   LA    R3,LITVAL+NX3                                            59244021
 00823E 1B11                       11060          SR    R1,R1                                                    59250021
 008240 4310 D6E6      0BC26       11061          IC    R1,LITVAL                                                59256021
 008244 5B10 D3FC      0B93C       11062          S     R1,TWO              LENGTH OF LITERAL TO BE CONVERTE     59262021
 008248 45E0 FDF0      08430       11063          BAL   R14,EDID            CONVERT EXT DECIMAL TO INT DEC       59268021
 00824C 920C D60C      0BB4C       11064          MVI   COUNT,XX0C                                               59274021
 008250 5810 DEF4      0C434       11065          L     R1,OUTPUT                                                59280021
 008254 5A10 D420      0B960       11066          A     R1,ELEVEN                                                59286021
 008258 4210 DD00      0C240       11067          STC   R1,ATRCNT                                                59292021
 00825C D203 D60D D818 0BB4D 0BD58 11068          MVC   ATTRIB+NX1(LX4),PDICPT                                   59298021
 008262 9200 D611      0BB51       11069          MVI   ATTRIB+NX5,XX00                                          59304021
1PH20     IKFCBL20                                                                                              PAGE  257
-  LOC  OBJECT CODE    ADDR1 ADDR2  STMT   SOURCE STATEMENT                                       ASM 0201 11.03 02/14/15
0008266 5810 DEF4      0C434       11070          L     R1,OUTPUT                                                59310021
 00826A 9131 DD6C      0C2AC       11071          TM    VALTSW,SWON         VALUE IS SERIES                      59316021
 00826E 4780 FC86      082C6       11072          BZ    NUM440              NO                                   59322021
 008272 9131 DFC0      0C500       11073          TM    CHKLTH,SWON         NEED TO CHECK LENGTH                 59328021
 008276 4780 FC86      082C6       11074          BZ    NUM440              NO                                   59334021
 00827A D700 DFC0 DFC0 0C500 0C500 11075          XC    CHKLTH,CHKLTH       TURN OFF SW                          59340021
 008280 9575 D613      0BB53       11076          CLI   VILGN,XX75           FIGCON                              59346021
 008284 4770 FC54      08294       11077          BNE   NUM420              NO                                   59352021
 008288 95D0 DCFA      0C23A       11078          CLI   NMSIGN,XXD0          YES, NEGATIVE                       59358021
 00828C 4780 FCE0      08320       11079          BE    NUM460              YES, ERROR                           59364021
 008290 47F0 FC86      082C6       11080          B     NUM440              NO NEED TO CHECK                     59370021
 008294 9532 D613      0BB53       11081 NUM420   CLI   ATTRIB+NX7,XX32     IS FIRST VALUE A NUMBER        05824 59376021
 008298 4770 F73A      07D7A       11082          BNE   NUM000              NO, GO ISSUE DIAGNOSTIC        05824 59382021
 00829C 5B10 D3F8      0B938       11083          S     R1,ONE                                             05824 59388021
 0082A0 4210 DFBE      0C4FE       11084          STC   R1,CONDLT                                                59394021
 0082A4 4310 D614      0BB54       11085          IC    R1,ATTRIB+NX8        LENGTH OF FIRST                     59400021
 0082A8 5B10 D400      0B940       11086          S     R1,THREE            MINUS FIXED PORTION                  59406021
 0082AC 4210 DFBF      0C4FF       11087          STC   R1,CONDL1                                                59412021
 0082B0 F110 DFBD DFBF 0C4FD 0C4FF 11088          MVO   CONDLN(LX2),CONDL1(LX1) LENGTH OF BOTH IN ONE BYTE       59418021
 0082B6 4310 DFBE      0C4FE       11089          IC    R1,CONDLT                                                59424021
 0082BA 4410 FCEE      0832E       11090          EX    R1,COMVAL           COMPARE FIELDS                       59430021
 0082BE 47B0 FCE0      08320       11091          BNL   NUM460              ERROR, LND HIGH                      59436021
 0082C2 5810 DEF4      0C434       11092          L     R1,OUTPUT                                                59442021
 0082C6 5A10 D404      0B944       11093 NUM440   A     R1,FOUR             FIXED PORTION                        59448021
 0082CA 4210 D612      0BB52       11094          STC   R1,ATTRIB+NX6                                            59454021
 0082CE 9232 D613      0BB53       11095          MVI   ATTRIB+NX7,XX32                                          59460021
 0082D2 5B10 D3FC      0B93C       11096          S     R1,TWO                                                   59466021
 0082D6 4210 D614      0BB54       11097          STC   R1,ATTRIB+NX8                                            59472021
 0082DA D201 D615 D6E7 0BB55 0BC27 11098          MVC   ATTRIB+NX9(LX2),LITVAL+NX1 DEC AND INTEGER COUNT.        59478021
 0082E0 5810 DEF4      0C434       11099          L     R1,OUTPUT                                                59484021
 0082E4 5B10 D3F8      0B938       11100          S     R1,ONE                                                   59490021
 0082E8 4410 FD0C      0834C       11101          EX    R1,NUM450                                                59496021
 0082EC 50F0 DF3C      0C47C       11102          ST    R15,MTEMP1                                               59502021
 0082F0 9131 DD6C      0C2AC       11103          TM    VALTSW,SWON         IS THIS VALUE THRU                   59508021
 0082F4 4710 FD12      08352       11104          BO    NUM600              BRANCH                               59514021
 0082F8 9131 DDB4      0C2F4       11105          TM    GRP88,SWON          88 UNDER GROUP                       59520021
 0082FC 4710 FD12      08352       11106          BO    NUM600              YES                                  59526021
 008300 58F0 DBFC      0C13C       11107          L     R15,AENTNM          ENTER COND-NAME INTO DICTIONARY      59532021
 008304 9200 DCFC      0C23C       11108          MVI   CICODE,XX00                                              59538021
 008308 4110 DCFC      0C23C       11109          LA    R1,CIPARM                                                59544021
 00830C 05EF                       11110          BALR  R14,R15             GO ENTER COND-NAME IN DICT           59550021
 00830E 5010 D684      0BBC4       11111          ST    R1,DICTPT           SAVE DICTIONARY PTR OF 88            59556021
 008312 5010 DF44      0C484       11112          ST    R1,REALPTR                                               59562021
 008316 58F0 DF3C      0C47C       11113          L     R15,MTEMP1                                               59568021
 00831A 58E0 D9CC      0BF0C       11114 NUM500 L     R14,RS14A                                                  59574021
 00831E 07FE                       11115          BCR   UNCOND,R14          RETURN                               59580021
 008320 4540 F098      076D8       11116 NUM460   BAL   R4,VERROR           CALL ERR RTN                         59586021
 008324 10C1                       11117          DC    X'10C1'             MSG 193                              59592021
 008326 5810 DEF4      0C434       11118          L     R1,OUTPUT                                                59598021
 00832A 47F0 FC86      082C6       11119          B     NUM440              CONTINUE PROCESSING                  59604021
 00832E F900 D617 DF10 0BB57 0C450 11120 COMVAL   CP    ATTRIB+NX11(LX0),WKAREA(LX0)                             59610021
 008334 D200 C001 C000 00001 00000 11121 NUM075   MVC   DX1(LX0,R12),DX0(R12)                                    59616021
 00833A D200 C000 D6E9 00000 0BC29 11122 NUM076   MVC   DX0(LX0,R12),LITVAL+NX3 MOVE IN THE LITERAL.             59622021
 008340 D200 C000 3000 00000 00000 11123 NUM077   MVC   DX0(LX0,R12),DX0(R3)                                     59628021
 008346 D200 D6E9 DDED 0BC29 0C32D 11124 NUM078   MVC   LITVAL+NX3(LX0),LITBUF+NX1                               59634021
1PH20     IKFCBL20                                                                                              PAGE  258
-  LOC  OBJECT CODE    ADDR1 ADDR2  STMT   SOURCE STATEMENT                                       ASM 0201 11.03 02/14/15
000834C D200 D617 DF10 0BB57 0C450 11125 NUM450   MVC   ATTRIB+NX11(LX0),WKAREA                                  59640021
                                   11126 *                                                                       59646021
 008352 1B00                       11127 NUM600   SR    R0,R0                                                    59652021
 008354 5810 DB4C      0C08C       11128          L     R1,PVALTR                                                59658021
 008358 4300 D612      0BB52       11129          IC    R0,ATTRIB+NX6        COUNT OF ENTRY                      59664021
 00835C 1840                       11130          LR    R4,R0                                                    59670021
 00835E 5A00 D3F8      0B938       11131          A     R0,ONE              CONUT DOESN'T INCLUDE ITSELF         59676021
 008362 9108 DD6C      0C2AC       11132          TM    VALTSW,VALTHR       IS IT VALUE THRU                     59682021
 008366 4780 FD32      08372       11133          BZ    NUM650              NO                                   59688021
 00836A 9631 DFC0      0C500       11134          OI    CHKLTH,SWON         TURN SW ON                           59694021
 00836E 9680 D612      0BB52       11135          OI    ATTRIB+NX6,XX80      YES, SET BIT ON                     59700021
 008372 58F0 DCE8      0C228       11136 NUM650   L     R15,BINSRT                                               59706021
 008376 05EF                       11137          BALR  R14,R15             GET ADD TO INSERT                    59712021
 008378 58F0 DF3C      0C47C       11138          L     R15,MTEMP1                                               59718021
 00837C 4440 FD52      08392       11139          EX    R4,NUM900                                                59724021
 008380 9131 DDB4      0C2F4       11140          TM    GRP88,SWON          88 UNDER GROUP                       59730021
 008384 4780 FD4C      0838C       11141          BZ    NUM660              NO                                   59736021
 008388 4030 DD68      0C2A8       11142          STH   R3,VALDSP           CHANGE DISPL IN TABLE                59742021
 00838C 58E0 DCBC      0C1FC       11143 NUM660   L     R14,AVLT20                                               59748021
 008390 07FE                       11144          BR    R14                 RETURN TO CHECK NEXT                 59754021
 008392 D200 2000 D612 00000 0BB52 11145 NUM900   MVC   DX0(LX0,R2),ATTRIB+NX6                                   59760021
 008398 1B11                       11146 SETA     SR    R1,R1               PUT NUMBER OF DIGITS TO BE           59766021
 00839A 4310 D6E8      0BC28       11147          IC    R1,LITVAL+NX2             CHECKED IN R1                  59772021
 00839E 1B88                       11148          SR    R8,R8                                                    59778021
 0083A0 4380 D6E6      0BC26       11149 SETC     IC    R8,LITVAL           GET ADDRESS OF                       59784021
 0083A4 4170 D6E7      0BC27       11150          LA    R7,LITVAL+NX1             FIRST BYTE                     59790021
 0083A8 1A78                       11151          AR    R7,R8                         TO BE CHECKED              59796021
 0083AA 1B71                       11152          SR    R7,R1                              IN R7                 59802021
 0083AC 4210 DF41      0C481       11153 CHECKA   STC   R1,NUMSAV+NX1        NUMBER OF DIGITS CHECKED            59808021
 0083B0 95F0 7000      00000       11154 CHECK1   CLI   DX0(R7),XXF0         DIGIT = 0                           59814021
 0083B4 4780 FD7E      083BE       11155          BE    CHECK2              YES                                  59820021
 0083B8 9400 DF40      0C480       11156          NI    NUMSAV,XX00          NO-MAKE SURE SWITCH IS OFF          59826021
 0083BC 07F4                       11157          BR    R4                  RETURN-ERROR CONDITION               59832021
 0083BE 4177 0001      00001       11158 CHECK2   LA    R7,DX1(R7)           UPDATE POINTER TO NEXT DIGIT        59838021
 0083C2 4610 FD70      083B0       11159          BCT   R1,CHECK1           MORE TO CHECK? YES, BRANCH           59844021
 0083C6 1B88                       11160          SR    R8,R8                                                    59850021
 0083C8 4380 DF41      0C481       11161          IC    R8,NUMSAV+NX1        NO-NUMBER OF DIGITS CHECKED IN R8   59856021
 0083CC 4310 D6E6      0BC26       11162          IC    R1,LITVAL           PUT CORRECT NUMBER                   59862021
 0083D0 1B18                       11163          SR    R1,R8                    OF DIGITS IN                    59868021
 0083D2 4210 D6E6      0BC26       11164          STC   R1,LITVAL                     LITVAL FIELD               59874021
 0083D6 9180 DF40      0C480       11165          TM    NUMSAV,XX80          SWITCH ON, I.E., MUST WE MOVE?      59880021
 0083DA 4710 FDAA      083EA       11166          BO    MOVE                YES                                  59886021
 0083DE 4310 D6E8      0BC28       11167          IC    R1,LITVAL+NX2        UPDATE # OF DECIMALS FIELD          59892021
 0083E2 1B18                       11168          SR    R1,R8                    IN LITVAL                       59898021
 0083E4 4210 D6E8      0BC28       11169          STC   R1,LITVAL+NX2                                            59904021
 0083E8 07F6                       11170          BR    R6                  RETURN                               59910021
 0083EA 9400 DF40      0C480       11171 MOVE     NI    NUMSAV,XX00          TURN SWITCH OFF                     59916021
 0083EE 4310 D6E7      0BC27       11172          IC    R1,LITVAL+NX1        UPDATE # OF INTEGERS FIELD          59922021
 0083F2 1B18                       11173          SR    R1,R8                    IN LITVAL                       59928021
 0083F4 4210 D6E7      0BC27       11174          STC   R1,LITVAL+NX1                                            59934021
 0083F8 4380 D6E6      0BC26       11175          IC    R8,LITVAL                                                59940021
 0083FC 0680                       11176          BCTR  R8,R0               FIX R8 TO DO MOVE                    59946021
 0083FE 4480 FDEA      0842A       11177          EX    R8,DOMOVE           MOVE EXTRA ZERORS OUT                59952021
 008402 07F6                       11178          BR    R6                  RETURN                               59958021
 008404 1B11                       11179 SETB     SR    R1,R1                                                    59964021
1PH20     IKFCBL20                                                                                              PAGE  259
-  LOC  OBJECT CODE    ADDR1 ADDR2  STMT   SOURCE STATEMENT                                       ASM 0201 11.03 02/14/15
0008406 1B88                       11180          SR    R8,R8                                                    59970021
 008408 4380 D613      0BB53       11181          IC    R8,VILGN                                                 59976021
 00840C 4310 D6E8      0BC28       11182          IC    R1,LITVAL+NX2        NUMBER OF BYTES TO BE               59982021
 008410 1B18                       11183          SR    R1,R8                    CHECKED IN R1                   59988021
 008412 47F0 FD60      083A0       11184          B     SETC                GO SET UP R7                         59994021
 008416 1B11                       11185 SETE     SR    R1,R1                                                    60000021
 008418 4310 D6E7      0BC27       11186          IC    R1,LITVAL+NX1                                            60006021
 00841C 1B12                       11187 SETD     SR    R1,R2               NUMBER OF BYTES TO CHECK IN R1       60012021
 00841E 4170 D6E9      0BC29       11188          LA    R7,LITVAL+NX3        ADDRESS OF FIRST BYTE IN R7         60018021
 008422 9680 DF40      0C480       11189          OI    NUMSAV,XX80          SET SWITCH                          60024021
 008426 47F0 FD6C      083AC       11190          B     CHECKA              GO CHECK NUMBER OF DIGITS            60030021
 00842A D200 D6E9 7000 0BC29 00000 11191 DOMOVE   MVC   LITVAL+NX3(LX0),DX0(R7) MOVE DIGITS TO LEFT              60036021
1PH20     IKFCBL20                                                                                              PAGE  260
-  LOC  OBJECT CODE    ADDR1 ADDR2  STMT   SOURCE STATEMENT                                       ASM 0201 11.03 02/14/15
0                                  11193 *=2      CONVERT EXTERNAL DECIMAL TO INT. DECIMAL (EDID)                60048021
                                   11194 *                                                                       60054021
                                   11195 *  THIS ROUTINE CONVERTS ANY EXTERNAL DECIMAL NUMBER (UP TO 30 DIGI     60060021
                                   11196 *    AND A SIGN) TO INTERNAL DECIMAL FORMAT.                            60066021
                                   11197 *    INPUT : R1 HAS ED LENGTH, R3 HAS STARTING ADDRESS OF ED.           60072021
                                   11198 *    OUTPUT: WKAREA HAS CONVERTED DATA.                                 60078021
                                   11199 *             'OUTPUT' HAS OUTPUT LENGTH IN BYTES.                      60084021
                                   11200 *                                                                       60090021
 008430 5510 D434      0B974       11201 EDID     CL    R1,CON16            ED LENGTH LQ 16 BYTES.               60096021
 008434 4720 FE20      08460       11202          BC    HI,EDI010           ED LENGTH > 16 BYTES                 60102021
 008438 5010 DEF0      0C430       11203          ST    R1,INPUT                                                 60108021
 00843C 8810 0001      00001       11204          SRL   R1,DX1                                                   60114021
 008440 5A10 D3F8      0B938       11205          A     R1,ONE                                                   60120021
 008444 5010 DEF4      0C434       11206          ST    R1,OUTPUT                                                60126021
 008448 5B10 D3F8      0B938       11207          S     R1,ONE                                                   60132021
 00844C 8910 0004      00004       11208          SLL   R1,DX4                                                   60138021
 008450 5820 DEF0      0C430       11209          L     R2,INPUT                                                 60144021
 008454 5B20 D3F8      0B938       11210          S     R2,ONE                                                   60150021
 008458 1621                       11211          OR    R2,R1                                                    60156021
 00845A 4420 FE7E      084BE       11212          EX    R2,EDI200                                                60162021
 00845E 07FE                       11213          BCR   UNCOND,R14          BRANCH                               60168021
                                   11214 *                                                                       60174021
 008460 5010 DEF0      0C430       11215 EDI010   ST    R1,INPUT            ED LENGTH GREATER THAN 16 BYTES.     60180021
 008464 5040 D99C      0BEDC       11216          ST    R4,RS4                                                   60186021
 008468 5B10 D424      0B964       11217          S     R1,TWELVE                                                60192021
 00846C 8810 0001      00001       11218          SRL   R1,DX1                                                   60198021
 008470 0610                       11219        BCTR  R1,R0                 BRANCH                               60204021
 008472 8910 0004      00004       11220          SLL   R1,DX4                                                   60210021
 008476 5820 DEF0      0C430       11221          L     R2,INPUT                                                 60216021
 00847A 5B20 D430      0B970       11222          S     R2,CON15                                                 60222021
 00847E 1621                       11223          OR    R2,R1                                                    60228021
 008480 4420 FE7E      084BE       11224          EX    R2,EDI200                                                60234021
 008484 4140 DF10      0C450       11225          LA    R4,WKAREA                                                60240021
 008488 5820 DEF0      0C430       11226          L     R2,INPUT                                                 60246021
 00848C 5B20 D42C      0B96C       11227          S     R2,CON14                                                 60252021
 008490 8820 0001      00001       11228          SRL   R2,DX1                                                   60258021
 008494 4220 FE87      084C7       11229          STC   R2,EDI300+NX3                                            60264021
 008498 5820 DEF0      0C430       11230          L     R2,INPUT                                                 60270021
 00849C 5B20 D430      0B970       11231          S     R2,CON15                                                 60276021
 0084A0 4220 FE89      084C9       11232          STC   R2,EDI300+NX5                                            60282021
 0084A4 4400 FE84      084C4       11233          EX    R0,EDI300                                                60288021
 0084A8 5820 DEF0      0C430       11234          L     R2,INPUT                                                 60294021
 0084AC 8820 0001      00001       11235          SRL   R2,DX1                                                   60300021
 0084B0 5A20 D3F8      0B938       11236          A     R2,ONE                                                   60306021
 0084B4 5020 DEF4      0C434       11237          ST    R2,OUTPUT                                                60312021
 0084B8 5840 D99C      0BEDC       11238          L     R4,RS4                                                   60318021
 0084BC 07FE                       11239          BCR   UNCOND,R14          BRANCH                               60324021
                                   11240 *                                                                       60330021
 0084BE F200 DF10 3000 0C450 00000 11241 EDI200   PACK  WKAREA(LX0),DX0(LX0,R3)                                  60336021
 0084C4 F27E 4000 3000 00000 00000 11242 EDI300   PACK  DX0(LX8,R4),DX0(LX15,R3)                                 60342021
 0084CA 0000
 0084CC 00008870                   11243 AIDBI    DC    A(IDBI)                  ADDR OF BIN CONV RTN            60348021
1PH20     IKFCBL20                                                                                              PAGE  261
-  LOC  OBJECT CODE    ADDR1 ADDR2  STMT   SOURCE STATEMENT                                       ASM 0201 11.03 02/14/15
1PH20     IKFCBL20                                                                                              PAGE  262
-  LOC  OBJECT CODE    ADDR1 ADDR2  STMT   SOURCE STATEMENT                                       ASM 0201 11.03 02/14/15
0                                  11246 ****************************************************************        60366021
                                   11247 *                                                                       60372021
                                   11248 *                                                                       60378021
                             084D0 11249        USING   *,R15                                                    60384021
 0084D0 50E0 DF08      0C448       11250 XREFF  ST    R14,XREFSV                SAVE RETURN ADDRESS              60390021
 0084D4 9248 DDEC      0C32C       11251        MVI   LITBUF,XRFHDR             ENTER HEADER                     60396021
 0084D8 D201 DDED D5C7 0C32D 0BB07 11252          MVC   LITBUF+NX1(LX2),CARDNO          CARDNO                   60402021
 0084DE D202 DDEF D685 0C32F 0BBC5 11253          MVC   LITBUF+NX3(LX3),DICTPT+NX1      DICT PTR                 60408021
 0084E4 1B33                       11254        SR    R3,R3                                                      60414021
 0084E6 4331 0000      00000       11255          IC    R3,DX0(R1)               BCD NAME COUNT                  60420021
 0084EA 4430 F03A      0850A       11256        EX    R3,XRFMOV                 ADD NAME                         60426021
 0084EE 4133 0007      00007       11257          LA    R3,DX7(R3)               UPDATE COUNT                    60432021
 0084F2 5030 DE84      0C3C4       11258        ST    R3,NMPUT                                                   60438021
 0084F6 4130 DDEC      0C32C       11259        LA    R3,LITBUF                                                  60444021
 0084FA 5030 DEEC      0C42C       11260        ST    R3,ADDRES                                                  60450021
 0084FE 58F0 DCAC      0C1EC       11261        L     R15,APUTOT                                                 60456021
 008502 05EF                       11262        BALR  R14,R15               PUT OUT A-TEXT                       60462021
 008504 58E0 DF08      0C448       11263        L     R14,XREFSV                                                 60468021
 008508 07FE                       11264        BR    R14                       RETURN                           60474021
 00850A D200 DDF2 1000 0C332 00000 11265 XRFMOV   MVC   LITBUF+NX6(LX1),DX0(R1)                                  60480021
1PH20     IKFCBL20                                                                                              PAGE  263
-  LOC  OBJECT CODE    ADDR1 ADDR2  STMT   SOURCE STATEMENT                                       ASM 0201 11.03 02/14/15
0008510 000075C2                   11267 AFIGZERO DC    A(FIGZERO)               ADDR OF FIGZERO           42093 60492021
1PH20     IKFCBL20                                                                                              PAGE  264
-  LOC  OBJECT CODE    ADDR1 ADDR2  STMT   SOURCE STATEMENT                                       ASM 0201 11.03 02/14/15
0008518                            11269 IKF212   CSECT                                                    42093 60504021
                                   11270 *=2   INTRA RECORD SLACK BYTES IRSLBT)-- NO OCCURS CLAUSE.              60510021
                                   11271 *                                                                       60516021
                                   11272 *  THIS ROUTINE EXAMINES THE CONTENT OF THE LOCATION COUNTER BEFORE     60522021
                                   11273 *    ASSIGNING ADDRESSING PARAMETERS TO ANY COMP,COMP-1 OR COMP-2       60528021
                                   11274 *    FIELD, AND DECIDE IF SLACK BYTES ARE REQUIRED. SLACK BYTES MAY     60534021
                                   11275 *    BE ADDED TO THE RECORD IN ORDER TO INSURE PROPER ALIGNMENT OF      60540021
                                   11276 *    THE COMPUTATIONAL DATA ITEMS.                                      60546021
                                   11277 *    IF PCI IS AN ELEMENTARY ITEM, SLACK BYTES ARE ADDED TO THE PCI     60552021
                                   11278 *    ( PCI'S LENGTH IS UPDATED TO INCLUDE THE SLACK BYTES )             60558021
                                   11279 *        IF PCI IS A GROUP ITEM, SLACK BYTES ARE ADDED TO ALL THE N     60564021
                                   11280 *    ZERO-LENGTH GLS ENTRIES PRECEDING CI IN THE GROUP.                 60570021
                                   11281 *                                                                       60576021
                             08518 11282        USING *,R15                                                      60582021
                                   11283 *                                                                       60588021
 008518 50E0 D9D0      0BF10       11284 IRSLBT   ST    R14,RS14B                                                60594021
 00851C 9505 D76F      0BCAF       11285          CLI   MCI,XX05             ARE WE IN LINKAGE SECTION           60600021
 008520 4780 F01A      08532       11286          BE    IRSWAP              USE APAF IF YES                      60606021
 008524 D203 DE88 B148 0C3C8 00148 11287          MVC   TOTLGN(LX4),LOCCTR                                       60612021
 00852A 9110 DEB9      0C3F9       11288          TM    APAF,XX10            IF ITEM HAS LINKAGE BL ( LINK. S    60618021
 00852E 47E0 F026      0853E       11289          BC    NOTONE,IRS00A         OR SD ) ALIGN FROM D-FIELD OF      60624021
                             08532 11290 IRSWAP   EQU   *                                                        60630021
 008532 D201 DE8A DEB9 0C3CA 0C3F9 11291          MVC   TOTLGN+NX2(LX2),APAF                                     60636021
 008538 D403 DE88 D4E4 0C3C8 0BA24 11292          NC    TOTLGN(LX4),MK2132                                       60642021
 00853E 9500 DEE8      0C428       11293 IRS00A   CLI   ALIGN,XX00           WAS THERE ANY ALIGNMENT ASSIGNED    60648021
 008542 4780 F034      0854C       11294        BC    EQ,IRS000                  NO    / AN OCCURS GROUP         60654021
 008546 1B22                       11295 IRS00B   SR    R2,R2               CLEAR OUT R2                    9914 60660021
 008548 4320 DEE8      0C428       11296          IC    R2,ALIGN            GET MBS NO FOR OCCURRING GROUPS 9914 60666021
                                   11297 *                                                                  9914 60672021
                                   11298 *                                                                  9914 60678021
 00854C 1B33                       11299 IRS000   SR    R3,R3                                                    60684021
 00854E 4330 D60D      0BB4D       11300          IC    R3,MINCOD                                                60690021
 008552 8830 0004      00004       11301          SRL   R3,DX4                      COMP  COMP-1  OR COMP-2      60696021
 008556 5530 D410      0B950       11302          CL    R3,SEVEN            USAGE INDEX                    45694 60702021
 00855A 4780 F06A      08582       11303          BE    IRS004              USAGE INDEX AND SYNC OPTION    45694 60708021
 00855E 5530 D41C      0B95C       11304        CL    R3,TEN                                                     60714021
 008562 4770 F05A      08572       11305        BC    NOTEQ,IRS001                 COMPUTATIONAL                 60720021
 008566 9101 D614      0BB54       11306          TM    VILGN+NX1,XX01                                           60726021
 00856A 4710 F072      0858A       11307        BC    ONES,IRS008                 COMP-2  DW BOUNDARY            60732021
 00856E 47F0 F06A      08582       11308        BC    UNCOND,IRS004              COMP-1  FW BOUNDARY             60738021
 008572 9504 D679      0BBB9       11309 IRS001   CLI   CILGN+NX1,XX04            CHECK LENGTH                   60744021
 008576 47B0 F06A      08582       11310          BC    NOTLO,IRS004        IF LGN IS 4 OR MORE FULL WORD NE     60750021
                                   11311 *                                                                       60756021
                                   11312 *  ROUTINE SETS UP BOUNDARY REQUIREMENTS FOR OCCURRING GROUPS      9914 60762021
                                   11313 *   AND CALCULATES CORRECT SLACK BYTES TO BE ADDED FOR CI          9914 60768021
                                   11314 *                                                                       60774021
 00857A 4130 0002      00002       11315 IRS002   LA    R3,DX2         SET BOUND AS HALFWORD IN R3.          991 60780021
 00857E 47F0 F086      0859E       11316          BC    UNCOND,IRS010  GO TO COMMON RTN.                    9914 60786021
 008582 4130 0004      00004       11317 IRS004   LA    R3,DX4         SET BOUND AS FULLWORD IN R3.          991 60792021
 008586 47F0 F086      0859E       11318          BC    UNCOND,IRS010       GO TO COMMON RTN                9914 60798021
 00858A 4130 0008      00008       11319 IRS008   LA    R3,DX8         SET  TO  DOUBLEWORD  REQUIREMENT.     991 60804021
 00858E 47F0 F086      0859E       11320          BC    UNCOND,IRS010       GO TO COMMON RTN                9914 60810021
                                   11321 *                                                                  9914 60816021
                                   11322 *    THE FOLLOW THREE INSTRUCTIONS ARE EXECUTED BY THE IRS010 RTN  9914 60822021
                                   11323 *    USING  R3  AS THE OR REGISTER  FOR  THE SECOND BYTE.          9914 60828021
1PH20     IKFCBL20                                                                                              PAGE  265
-  LOC  OBJECT CODE    ADDR1 ADDR2  STMT   SOURCE STATEMENT                                       ASM 0201 11.03 02/14/15
0                                  11324 *                                                                  9914 60834021
 008592 9500 4000      00000       11325 EXCLI    CLI   DX0(R4),XX00   COMPARE CELL TO BOUND IN R3           991 60840021
 008596 9200 4000      00000       11326 EXMVI    MVI   DX0(R4),XX00   MOVE NEW BOUND TO CELL IN ALIGN       991 60846021
 00859A 9100 DE8B      0C3CB       11327 EXTM     TM    TOTLGN+NX3,XX00 TEST MASK BOUND-1  ON FIELD LENGTH   991 60852021
                                   11328 *                                                                  9914 60858021
                                   11329 *        COMMON BOUNDARY REQUIREMENT RTN.ADJUSTS CELLS IN ALIGN    9914 60864021
                                   11330 *                                                                  9914 60870021
 00859E 91FF DEE8      0C428       11331 IRS010   TM    ALIGN,XXFF     ARE THERE ANY OCCURS GROUPS.          991 60876021
 0085A2 4780 F0A6      085BE       11332          BC    ZERO,IRS012   NO,  ALIGN ELEMENTARY FIEM            9914 60882021
 0085A6 4150 DEE8      0C428       11333          LA    R5,ALIGN      YES, LOAD ADDR OF ALIGN TABLE TO R5.  9914 60888021
 0085AA 4145 2000      00000       11334 IRS011   LA    R4,DX0(R5,R2)  LOAD TO POINTER ALIGNS ADDR + INCR    991 60894021
 0085AE 4430 F07A      08592       11335          EX    R3,EXCLI      TO CELL TO BOUND COMPARISON           9914 60900021
 0085B2 47B0 F0A6      085BE       11336          BC    NOTLO,IRS012  SCAN FINISHED INCLUSIVE GROUP HAS BOUND.   60906021
 0085B6 4430 F07E      08596       11337          EX    R3,EXMVI      MOVE IN NEW BOUNDARY                  9914 60912021
 0085BA 4620 F092      085AA       11338          BCT   R2,IRS011     SUBTRACT ONE FROM POINTER INCREMENT   9914 60918021
                                   11339 *                            AND DO AGAIN. FALL THRU TO IRS012     9914 60924021
                                   11340 *                            WHEN R2 = 0.                          9914 60930021
                                   11341 *                                                                  9914 60936021
                                   11342 *        RTN TO CALCULATE SLACK BYTES NEEDED, TO BE PUT IN R6.     9914 60942021
                                   11343 *                                                                  9914 60948021
 0085BE 1863                       11344 IRS012   LR    R6,R3         LOAD BOUND TO R6.                     9914 60954021
 0085C0 0630                       11345          BCTR  R3,R0          SUBTRACT 1 FROM R3                    991 60960021
 0085C2 4430 F082      0859A       11346          EX    R3,EXTM       TEST IF ALREADY ALIGNED.              9914 60966021
 0085C6 078E                       11347          BCR   ZERO,R14      YES,EXIT FROM RTN.                    9914 60972021
 0085C8 4370 DE8B      0C3CB       11348          IC    R7,TOTLGN+NX3  GET LOW ORDER BYTE OF DISP.           991 60978021
 0085CC 1473                       11349          NR    R7,R3         AND OUT UNNEEDED BITS.                9914 60984021
 0085CE 1B67                       11350          SR    R6,R7         SUBTRACT FROM R6 TO GIVE SLACK BYTES  9914 60990021
                                   11351 *                                                                  9914 60996021
                                   11352 *                                                                       61002021
                                   11353 *  R6 HAS THE NO. OF SLACK BYTES TO BE ADDED.                           61008021
                                   11354 *  CHECK IF ITEM TO BE ALIGNED INVOLVED IN REDEFINES.              0026 61014021
                                   11355 *       ERROR IF  IT IS.                                           0026 61020021
 0085D0 9131 DFBB      0C4FB       11356          TM    RDFSW,SWON          FIRST UNDER REDEFINES                61026021
 0085D4 4780 F0D2      085EA       11357          BC    ZERO,IRS020         NO, PROCEED TO ALIGN            0026 61032021
 0085D8 58F0 DC14      0C154       11358           L    R15,AERROR                                          0026 61038021
 0085DC 054F                       11359          BALR   R4,R15         GO TO ERROR RTN                     0026 61044021
 0085DE 10C9                       11360          DC    X'10C9'             MSG 201                         0026 61050021
 0085E0 94BF D611      0BB51       11361          NI    SYNCHR,XXBF          TURN OFF BIT                    002 61056021
 0085E4 58E0 D9D0      0BF10       11362          L     R14,RS14B                                           0026 61062021
 0085E8 07FE                       11363          BR    R14                 RETURN                          0026 61068021
 0085EA 5890 DAD4      0C014       11364 IRS020   L     R9,GPARAM                                                61074021
 0085EE 58A9 0000      00000       11365          L     R10,DX0(R9)                                              61080021
 0085F2 589A 0000      00000       11366          L     R9,DX0(R10)                                              61086021
 0085F6 5490 D4C4      0BA04       11367          N     R9,MK0932                                                61092021
 0085FA 4A9A 0004      00004       11368          AH    R9,DX4(R10)                                              61098021
 0085FE 5B90 D444      0B984       11369          S     R9,CON24            R9 POINTS TO LAST ENTRY ON GLS.      61104021
 008602 1B77                       11370          SR    R7,R7                                                    61110021
 008604 4370 D7A1      0BCE1       11371          IC    R7,PMINCD                                                61116021
 008608 8870 0004      00004       11372          SRL   R7,DX4                                                   61122021
 00860C 5570 D3F8      0B938       11373          CL    R7,ONE              IS PCI A GROUP ITEM.                 61128021
 008610 4780 F130      08648       11374          BC    EQ,IRS040           GO TO COMMON RTN                     61134021
 008614 5570 D404      0B944       11375          CL    R7,FOUR                NO.                               61140021
 008618 4780 F130      08648       11376          BC    EQ,IRS040           GO TO COMMON RTN                     61146021
                                   11377 *                                                                       61152021
                                   11378 *  PCI IS AN ELEMENTARY ITEM, ADD SLACK BYTES TO LENGTH OF LGS, ALS     61158021
1PH20     IKFCBL20                                                                                              PAGE  266
-  LOC  OBJECT CODE    ADDR1 ADDR2  STMT   SOURCE STATEMENT                                       ASM 0201 11.03 02/14/15
0                                  11379 *    UPDATE THE APAF AND LOCATION COUNTER.                              61164021
                                   11380 *                                                                       61170021
 00861C 9140 9001      00001       11381 IRS030   TM    DX1(R9),XX40         IS LGS A VARIABLE LGN GROUP         61176021
 008620 4710 F1F0      08708       11382          BC    ONES,IRS060         YES, BRANCH                          61182021
 008624 5859 0000      00000       11383          L     R5,DX0(R9)           NO                                  61188021
 008628 5450 D4E8      0BA28       11384          N     R5,MK1632                                                61194021
 00862C 1A56                       11385          AR    R5,R6                                                    61200021
 00862E 5050 DF38      0C478       11386          ST    R5,MTEMP            ADD NO. OF SLACK BYTES TO LGS,       61206021
 008632 D201 9002 DF3A 00002 0C47A 11387          MVC   DX2(LX2,R9),MTEMP+NX2                                    61212021
 008638 9101 DF39      0C479       11388          TM    MTEMP+NX1,XX01                                           61218021
 00863C 4780 F1B0      086C8       11389          BC    ZERO,IRS050         GO ADD C(R6) TO D OF APAF            61224021
 008640 9601 9001      00001       11390          OI    DX1(R9),XX01                                             61230021
 008644 47F0 F1B0      086C8       11391          BC    UNCOND,IRS050       GO ADD C(R6) TO D OF APAF            61236021
                                   11392 *                                                                       61242021
                                   11393 *  PCI IS AGROUP ITEM, ADD SLACK BYTES TO THE LAST NON-ZERO LENGTH      61248021
                                   11394 *    ENTRY IN GLS, UPDATE THE ADDRESSING PARAMETER OF SUCCEDING GLS     61254021
                                   11395 *    ENTRIES, AND ALSO UPDATE THE APAF AND LOCATION COUNTER.            61260021
                                   11396 *                                                                       61266021
 008648 5849 0000      00000       11397 IRS040   L     R4,DX0(R9)           DOES THIS LGS HAVE 0 LENGTH.        61272021
 00864C 5440 D4E8      0BA28       11398          N     R4,MK1632                                                61278021
 008650 5540 D3F4      0B934       11399          CL    R4,ZEROS                                                 61284021
 008654 4720 F104      0861C       11400          BC    HI,IRS030              NO.                               61290021
 008658 9501 9014      00014       11401          CLI   DX20(R9),XX01        HAS END OF GROUP BEEN REACHED,      61296021
 00865C 4770 F168      08680       11402          BC    NOTEQ,IRS045           YES,ADD TO THIS 01 LEVEL ENTR     61302021
 008660 5859 0000      00000       11403          L     R5,DX0(R9)                                               61308021
 008664 5450 D4E8      0BA28       11404          N     R5,MK1632                                                61314021
 008668 1A56                       11405          AR    R5,R6                                                    61320021
 00866A 5050 DF38      0C478       11406          ST    R5,MTEMP                                                 61326021
 00866E D201 9002 DF3A 00002 0C47A 11407          MVC   DX2(LX2,R9),MTEMP+NX2                                    61332021
 008674 9101 DF39      0C479       11408          TM    MTEMP+NX1,XX01                                           61338021
 008678 4780 F168      08680       11409          BC    ZERO,IRS045         SKIP NEXT INSTRUCTION                61344021
 00867C 9601 9001      00001       11410          OI    DX1(R9),XX01                                             61350021
 008680 5839 0014      00014       11411 IRS045   L     R3,DX20(R9)             NO, ADD THE NO. OF SLACK BYTE    61356021
 008684 8830 0008      00008       11412          SRL   R3,DX8                    TO ADDRESSING PARAMETER OF     61362021
 008688 5430 D4E4      0BA24       11413          N     R3,MK2132                THIS LGS.                       61368021
 00868C 1A36                       11414          AR    R3,R6                                                    61374021
 00868E 4239 0016      00016       11415          STC   R3,DX22(R9)                                              61380021
 008692 94F0 9015      00015       11416          NI    DX21(R9),XXF0                                            61386021
 008696 5030 DF38      0C478       11417          ST    R3,MTEMP                                                 61392021
 00869A D403 DF38 D4E4 0C478 0BA24 11418          NC    MTEMP(LX4),MK2132        OFF OVFLOW BIT IF 4096    48449 61398021
 0086A0 D600 9015 DF3A 00015 0C47A 11419          OC    DX21(LX1,R9),MTEMP+NX2                                   61404021
                                   11420 *                                                                       61410021
 0086A6 5030 DF38      0C478       11421          ST    R3,MTEMP                 SET UP DISPLACEMENT       48449 61416021
 0086AA 5930 D478      0B9B8       11422          C     R3,CO4096                IS DISP GR OR EQ TO 4096  48449 61422021
 0086AE 4740 F1A8      086C0       11423          BL    IRS047                       NO, BR                48449 61428021
 0086B2 1B33                       11424          SR    R3,R3                    YES, MUST UPDATE BL       48449 61434021
 0086B4 4339 0017      00017       11425          IC    R3,DX23(R9)              3RD BYTE OF APAF(BL NO)   48449 61440021
 0086B8 4133 0001      00001       11426          LA    R3,DX1(R3)               UPDATE BL NO              48449 61446021
 0086BC 4239 0017      00017       11427          STC   R3,DX23(R9)              ST UPDATED BL IN GLSTK    48449 61452021
                             086C0 11428 IRS047   EQU   *                                                  48449 61458021
 0086C0 5B90 D444      0B984       11429          S     R9,CON24                                                 61464021
 0086C4 47F0 F130      08648       11430          BC    UNCOND,IRS040          UPDATE LGS POINTER.               61470021
                                   11431 *                                                                       61476021
 0086C8 5850 DEB8      0C3F8       11432 IRS050   L     R5,APAF-NX1          ADD C(R6) TO D OF APAF              61482021
 0086CC 8850 0008      00008       11433          SRL   R5,DX8(R0)                                               61488021
1PH20     IKFCBL20                                                                                              PAGE  267
-  LOC  OBJECT CODE    ADDR1 ADDR2  STMT   SOURCE STATEMENT                                       ASM 0201 11.03 02/14/15
00086D0 5450 D4E4      0BA24       11434          N     R5,MK2132                                                61494021
 0086D4 1A56                       11435          AR    R5,R6                                                    61500021
 0086D6 4250 DEBA      0C3FA       11436          STC   R5,APAF+NX1                                              61506021
 0086DA 5050 DF38      0C478       11437          ST    R5,MTEMP                                                 61512021
 0086DE D100 DEB9 DF3A 0C3F9 0C47A 11438          MVN   APAF(LX1),MTEMP+NX2                                      61518021
                                   11439 *                                                                       61524021
 0086E4 5850 DEBC      0C3FC       11440          L     R5,DISP             ADD C(R6) TO DISP OF APAF.           61530021
 0086E8 1A56                       11441          AR    R5,R6                                                    61536021
 0086EA 5050 DEBC      0C3FC       11442          ST    R5,DISP             IF DISP IS GREATER THAN 4096,        61542021
 0086EE 58E0 D9D0      0BF10       11443          L     R14,RS14B                                                61548021
 0086F2 9505 D76F      0BCAF       11444          CLI   MCI,XX05                  EXIT IF IN LINKAGE SECT        61554021
 0086F6 078E                       11445          BCR   EQ,R14              RETURN                               61560021
 0086F8 5850 B148      00148       11446          L     R5,LOCCTR                                                61566021
 0086FC 1A56                       11447          AR    R5,R6                                                    61572021
 0086FE 5050 B148      00148       11448          ST    R5,LOCCTR         )                                      61578021
 008702 58E0 D9D0      0BF10       11449          L     R14,RS14B                                                61584021
 008706 07FE                       11450          BCR   UNCOND,R14             EXIT.                             61590021
 008708 5859 0010      00010       11451 IRS060   L     R5,DX16(R9)          ADD SLACK BYTES TO                  61596021
 00870C 1A56                       11452          AR    R5,R6                 MAX LGN FIELD                      61602021
 00870E 5059 0010      00010       11453          ST    R5,DX16(R9)              OF LGS                          61608021
 008712 D207 D960 D556 0BEA0 0BA96 11454          MVC   QTEXT(LX8),INITVB                                        61614021
 008718 9242 D961      0BEA1       11455          MVI   QTEXT+NX1,STEPVB     SET UP STEP VERB                    61620021
 00871C D201 D964 9002 0BEA4 00002 11456          MVC   QTEXT+NX4(LX2),DX2(R9)   WITH VLC OF LGS                 61626021
 008722 4260 D968      0BEA8       11457          STC   R6,QTEXT+NX8             AND LITERAL= = OF SLACK BYTE    61632021
 008726 4120 D960      0BEA0       11458          LA    R2,QTEXT                                                 61638021
 00872A 4130 0009      00009       11459          LA    R3,DX9                                                   61644021
 00872E 5810 DB84      0C0C4       11460          L     R1,COSADR                                                61650021
 008732 0501                       11461          BALR  R0,R1               PUT OUT STEP VERB Q-TEXT ON FILE     61656021
 008734 12                         11462          DC    X'12'                                                    61662021
 008735 00
 008736 47F0 F1B0      086C8       11463          BC    UNCOND,IRS050       GO ADD C(R6) TO D OF APAF            61668021
1PH20     IKFCBL20                                                                                              PAGE  268
-  LOC  OBJECT CODE    ADDR1 ADDR2  STMT   SOURCE STATEMENT                                       ASM 0201 11.03 02/14/15
0                                  11465 *                                                                       61680021
                                   11466 *=2  TASSR ROUTINE.                                                     61686021
                                   11467 *  THIS ROUTINE --TASSR-- DOES BOUNDARY ALIGNMENT FOR GROUP ITEMS W     61692021
                                   11468 *    OCCURS CLAUSE.  SLACK-BYTES ARE ADDED AT THE END OF THE GROUP      61698021
                                   11469 *    ITEM CONTAINING THE OCCURS CLAUSE.                                 61704021
                                   11470 *                                                                       61710021
                             0873A 11471          USING *,R15                                                    61716021
                                   11472 *                                                                       61722021
                             0873A 11473 TASSR    EQU   *                                                        61728021
 00873A 1B11                       11474          SR    R1,R1                                                    61734021
 00873C 1B33                       11475          SR    R3,R3                                                    61740021
 00873E 4120 DEE8      0C428       11476          LA    R2,ALIGN            LOOK UP IN THE TABLE TO SEE IF       61746021
 008742 4330 DEE8      0C428       11477          IC    R3,ALIGN               ANY ALIGNMENT IS NEEDED.          61752021
 008746 1A23                       11478          AR    R2,R3                                                    61758021
 008748 9500 2000      00000       11479          CLI   DX0(R2),XX00                                             61764021
 00874C 4720 F01A      08754       11480          BC    HI,TAS010              ALIGN.                            61770021
 008750 47F0 F0F2      0882C       11481          BC    UNCOND,TAS110          NO ALIGNMENT NEEDED.              61776021
                                   11482 *                                                                       61782021
 008754 5890 DAD4      0C014       11483 TAS010   L     R9,GPARAM           GET THE ADDRESS OF THE GLS STACK     61788021
 008758 58A9 0000      00000       11484          L     R10,DX0(R9)                                              61794021
 00875C 589A 0000      00000       11485          L     R9,DX0(R10)                                              61800021
 008760 5490 D4C4      0BA04       11486          N     R9,MK0932                                                61806021
 008764 4A9A 0004      00004       11487          AH    R9,DX4(R10)          R9 POINTS TO LAST ENTRY IN GLS.     61812021
 008768 5B90 D444      0B984       11488          S     R9,CON24                                                 61818021
 00876C 9140 9001      00001       11489 TAS012   TM    DX1(R9),XX40         IS LGS A VARIABLE LGN GROUP         61824021
 008770 47E0 F042      0877C       11490          BC    NOTONE,TAS013       NO, BRANCH                           61830021
 008774 5849 0010      00010       11491          L     R4,DX16(R9)          YES, GET LGN FROM MAX LGN OF LGS    61836021
 008778 47F0 F04A      08784       11492          BC    UNCOND,TAS016       BRANCH                               61842021
 00877C 5849 0000      00000       11493 TAS013   L     R4,DX0(R9)           R4= LGN OF LGS                      61848021
 008780 5440 D4E8      0BA28       11494          N     R4,MK1632                                                61854021
 008784 5040 DE88      0C3C8       11495 TAS016   ST    R4,TOTLGN                                                61860021
 008788 9504 2000      00000       11496          CLI   DX0(R2),XX04                                             61866021
 00878C 4780 F06A      087A4       11497          BC    EQ,TAS040           FWB ALIGNMENT REQUIRED               61872021
 008790 4720 F084      087BE       11498          BC    HI,TAS080           DWB ALIGNMENT REQUIRED               61878021
                                   11499 *                                                                       61884021
                                   11500 *  HALF-WORD BOUNDARY ALIGNMENT REQUIRED.                               61890021
                                   11501 *                                                                       61896021
 008794 9101 DE8B      0C3CB       11502 TAS020   TM    TOTLGN+NX3,XX01      IF LENGTH IS EVEN,                  61902021
 008798 4780 F0F2      0882C       11503          BC    ZERO,TAS110         BR TO DELETE REQUIREMENT             61908021
 00879C 5860 D3F8      0B938       11504          L     R6,ONE                 NO. OF SLACK BYTES ADDED          61914021
 0087A0 47F0 F09A      087D4       11505          BC    UNCOND,TAS100          = 1                               61920021
                                   11506 *                                                                       61926021
                                   11507 *  FULL-WORD BOUNDARY ALIGNMENT REQUIRED.                               61932021
                                   11508 *                                                                       61938021
 0087A4 9103 DE8B      0C3CB       11509 TAS040   TM    TOTLGN+NX3,XX03      IF TOTLGN IS DIVISIBLE BY 4, THE    61944021
 0087A8 4780 F0F2      0882C       11510          BC    ZERO,TAS110         BR TO DELETE REQUIREMENT             61950021
 0087AC 5870 DE88      0C3C8       11511          L     R7,TOTLGN                                                61956021
 0087B0 5470 D400      0B940       11512          N     R7,THREE               NO. OF SLACK BYTES ADDED          61962021
 0087B4 5860 D404      0B944       11513          L     R6,FOUR                = 4 - (TOTAL GROUP LGN / 4 )      61968021
 0087B8 1B67                       11514          SR    R6,R7                                                    61974021
 0087BA 47F0 F09A      087D4       11515          BC    UNCOND,TAS100       GO ADD SLACK BYTES TO LTH OF GP      61980021
                                   11516 *                                                                       61986021
                                   11517 *  DOUBLE-WORD BOUNDARY ALIGNMENT REQUIRED.                             61992021
                                   11518 *                                                                       61998021
 0087BE 9107 DE8B      0C3CB       11519 TAS080   TM    TOTLGN+NX3,XX07      IF TOTLGN IS DIVISIBLE BY 7, THE    62004021
1PH20     IKFCBL20                                                                                              PAGE  269
-  LOC  OBJECT CODE    ADDR1 ADDR2  STMT   SOURCE STATEMENT                                       ASM 0201 11.03 02/14/15
00087C2 4780 F0F2      0882C       11520          BC    ZERO,TAS110         BR TO DELETE REQUIREMENT             62010021
 0087C6 5870 DE88      0C3C8       11521          L     R7,TOTLGN                                                62016021
 0087CA 5470 D410      0B950       11522          N     R7,SEVEN               NO. OF SLACK BYTES ADDED          62022021
 0087CE 5860 D414      0B954       11523          L     R6,EIGHT               = 8 - (TOTAL GROUP LGN / 8 )      62028021
 0087D2 1B67                       11524          SR    R6,R7                                                    62034021
                                   11525 *                                                                       62040021
 0087D4 1A46                       11526 TAS100   AR    R4,R6               ADD SLACK BYTES TO LENGTH OF GRO     62046021
 0087D6 5040 DE88      0C3C8       11527          ST    R4,TOTLGN                                                62052021
 0087DA 1876                       11528          LR    R7,R6                                                    62058021
 0087DC 5A60 DEBC      0C3FC       11529          A     R6,DISP             UPDATE THE DISP FIELD.               62064021
 0087E0 5060 DEBC      0C3FC       11530          ST    R6,DISP                                                  62070021
 0087E4 5850 DEB8      0C3F8       11531          L     R5,APAF-NX1          ADD THE SLACK BYTES TO APAF.        62076021
 0087E8 8850 0008      00008       11532          SRL   R5,DX8                                                   62082021
 0087EC 5450 D4E4      0BA24       11533          N     R5,MK2132                                                62088021
 0087F0 1A57                       11534          AR    R5,R7                                                    62094021
 0087F2 4250 DEBA      0C3FA       11535          STC   R5,APAF+NX1                                              62100021
 0087F6 5050 DF38      0C478       11536          ST    R5,MTEMP                                                 62106021
 0087FA D100 DEB9 DF3A 0C3F9 0C47A 11537          MVN   APAF(LX1),MTEMP+NX2                                      62112021
 008800 1867                       11538          LR    R6,R7               SAVE SLACK BYTE COUNT                62118021
 008802 9110 9015      00015       11539          TM    DX21(R9),XX10        IF IN LINKAGE SECTION               62124021
 008806 4710 F0D8      08812       11540          BC    ONES,TAS105           DON'T ADD TO LOCCTR                62130021
 00880A 5A70 B148      00148       11541          A     R7,LOCCTR                                                62136021
 00880E 5070 B148      00148       11542          ST    R7,LOCCTR         )                                      62142021
 008812 9140 9001      00001       11543 TAS105   TM    DX1(R9),XX40         IS LGS A VARIABLE LGN GROUP         62148021
 008816 4710 F100      0883A       11544          BC    ONES,TAS120         YES, BRANCH                          62154021
 00881A D201 9002 DE8A 00002 0C3CA 11545          MVC   DX2(LX2,R9),TOTLGN+NX2                                   62160021
 008820 9101 DE89      0C3C9       11546          TM    TOTLGN+NX1,XX01                                          62166021
 008824 4780 F0F2      0882C       11547          BC    ZERO,TAS110         BR TO DELETE REQUIREMENT             62172021
 008828 9601 9001      00001       11548          OI    DX1(R9),XX01                                             62178021
 00882C 5B30 D3F8      0B938       11549 TAS110   S     R3,ONE              DELETE THIS REQUIREMENT FROM WOR     62184021
 008830 4230 DEE8      0C428       11550          STC   R3,ALIGN               CELL AND ADJUST POINTER.          62190021
 008834 9400 2000      00000       11551          NI    DX0(R2),XX00                                             62196021
 008838 07FE                       11552          BCR   UNCOND,R14          BRANCH                               62202021
 00883A D203 9010 DE88 00010 0C3C8 11553 TAS120   MVC   DX16(LX4,R9),TOTLGN   STORE UP'D MAX LGN BACK IN LGS     62208021
 008840 D207 D960 D556 0BEA0 0BA96 11554          MVC   QTEXT(LX8),INITVB    MOVE STEP VERB MASK                 62214021
 008846 9242 D961      0BEA1       11555          MVI   QTEXT+NX1,STEPVB       TO QTEXT                          62220021
 00884A D201 D964 9002 0BEA4 00002 11556          MVC   QTEXT+NX4(LX2),DX2(R9) MOVE VLC OF LGS TO STEP MASK      62226021
 008850 4260 D968      0BEA8       11557          STC   R6,QTEXT+NX8         SLACK BYTES ARE LITERAL IN STEP     62232021
 008854 4120 D960      0BEA0       11558          LA    R2,QTEXT                                                 62238021
 008858 4130 0009      00009       11559          LA    R3,DX9                                                   62244021
 00885C 5810 DB84      0C0C4       11560          L     R1,COSADR           PUT OUT STEP VERB ON FILE 2          62250021
 008860 0501                       11561          BALR  R0,R1               BRANCH TO COMMON                     62256021
 008862 12                         11562          DC    X'12'                                                    62262021
 008863 00
 008864 4330 DEE8      0C428       11563        IC    R3,ALIGN                  INSERT                     34696 62268021
 008868 4123 DEE8      0C428       11564        LA    R2,ALIGN(R3)              GET ADDRESS                34696 62274021
 00886C 47F0 F0F2      0882C       11565          BC    UNCOND,TAS110       BR TO DELETE REQUIREMENT             62280021
1PH20     IKFCBL20                                                                                              PAGE  270
-  LOC  OBJECT CODE    ADDR1 ADDR2  STMT   SOURCE STATEMENT                                       ASM 0201 11.03 02/14/15
0                                  11567 *=2      CONVERSION FROM INT. DECIMAL TO BINARY (IDBI)                  62292021
                                   11568 *                                                                       62298021
                                   11569 *                                                                       62304021
                                   11570 *  THIS ROUTINE CONVERTS ANY INTERNAL DECIMAL NUMBER(UP TO 18           62310021
                                   11571 *    DECIMAL DIGITS + SIGN) TO BINARY FORM.                             62316021
                                   11572 *    INPUT  : R1 HAS ID LENGTH, R3 HAS STARTING ADDRESS OF IDOP.        62322021
                                   11573 *    OUTPUT : 'OUTPUT' HAS EITHER 2,4,OR 8 INDICATING WHETHER THE       62328021
                                   11574 *             BINARY RESULT IS CONTAINABLE IN HALF,FULL OR DOUBLE       62334021
                                   11575 *             WORD.  R2 OR R2,R3 HAS CONVERTED DATA.                    62340021
                                   11576 *                                                                       62346021
                             08870 11577          USING *,R15                                                    62352021
                             08870 11578 IDBI     EQU   *                                                        62358021
 008870 1873                       11579          LR    R7,R3                                                    62364021
 008872 5510 D408      0B948       11580          CL    R1,FIVE                                                  62370021
 008876 4720 F03C      088AC       11581          BC    HI,IDB100                IDOP > 5 BYTES &<= 10 BYTES     62376021
 00887A 5B10 D3F8      0B938       11582          S     R1,ONE                                                   62382021
 00887E 4410 F090      08900       11583          EX    R1,IDB200                    ZAP                         62388021
 008882 4F20 DF38      0C478       11584          CVB   R2,MTEMP                                                 62394021
 008886 4410 F09C      0890C       11585          EX    R1,HAFMAX                COMPARE MAXIMUM                 62400021
 00888A 4780 F02A      0889A       11586          BC    EQ,IDB020                      BR                        62406021
 00888E 4740 F030      088A0       11587          BC    LO,IDB040                      BR                        62412021
 008892 4410 F0A2      08912       11588          EX    R1,HAFMIN                  COMPARE MINIMUM               62418021
 008896 4720 F030      088A0       11589          BC    HI,IDB040                    BR                          62424021
 00889A 9202 DEF4      0C434       11590 IDB020   MVI   OUTPUT,XX02                                              62430021
 00889E 07FE                       11591          BCR   UNCOND,R14                    RETURN                     62436021
 0088A0 9204 DEF4      0C434       11592 IDB040   MVI   OUTPUT,XX04                                              62442021
 0088A4 07FE                       11593          BCR   UNCOND,R14                   RETURN                      62448021
 0088A6 9208 DEF4      0C434       11594 IDB080   MVI   OUTPUT,XX08                                              62454021
 0088AA 07FE                       11595          BCR   UNCOND,R14                   RETURN                      62460021
                                   11596 *                                                                       62466021
 0088AC 5010 DEF0      0C430       11597 IDB100   ST    R1,INPUT                 IDOP > 5 BYTES AND LT 10        62472021
 0088B0 5B10 D408      0B948       11598          S     R1,FIVE                  (18 DECIMAL DIGITS + SIGN)      62478021
 0088B4 4210 F09B      0890B       11599          STC   R1,IDB210+NX5                                            62484021
 0088B8 4400 F096      08906       11600          EX    R0,IDB210                     ZAP                        62490021
 0088BC 4F20 DF38      0C478       11601          CVB   R2,MTEMP                                                 62496021
 0088C0 8E20 0020      00020       11602          SRDA  R2,DX32                                                  62502021
 0088C4 5B10 D3F8      0B938       11603          S     R1,ONE                                                   62508021
 0088C8 4410 F0B4      08924       11604          EX    R1,MVO                    MOVE TO MTEMP                  62514021
 0088CC 4F50 DF38      0C478       11605          CVB   R5,MTEMP                                                 62520021
 0088D0 5C40 D484      0B9C4       11606          M     R4,TENPW9                                                62526021
 0088D4 1E35                       11607          ALR   R3,R5                                                    62532021
 0088D6 47C0 F06E      088DE       11608          BC    R12,IDB110                   BR                          62538021
 0088DA 4120 2001      00001       11609          LA    R2,DX1(R0,R2)                                            62544021
 0088DE 1A24                       11610 IDB110   AR    R2,R4                                                    62550021
 0088E0 5810 DEF0      0C430       11611          L     R1,INPUT                                                 62556021
 0088E4 5B10 D3F8      0B938       11612          S     R1,ONE                   -1 FOR CORRECT MACH LGN         62562021
 0088E8 4410 F0A8      08918       11613          EX    R1,FULMAX                 COMPARE MAXIMUM                62568021
 0088EC 4780 F030      088A0       11614          BC    EQ,IDB040                    BR                          62574021
 0088F0 4740 F036      088A6       11615          BC    LO,IDB080                    BR                          62580021
 0088F4 4410 F0AE      0891E       11616          EX    R1,FULMIN                    COMPARE MINIMUM             62586021
 0088F8 47D0 F030      088A0       11617          BC    NOTHI,IDB040                   BR                        62592021
 0088FC 47F0 F036      088A6       11618          BC    UNCOND,IDB080                  BR                        62598021
                                   11619 *                                                                       62604021
                                   11620 *                                                                       62610021
 008900 F870 DF38 7000 0C478 00000 11621 IDB200   ZAP   MTEMP(LX8),DX0(LX0,R7)                                   62616021
1PH20     IKFCBL20                                                                                              PAGE  271
-  LOC  OBJECT CODE    ADDR1 ADDR2  STMT   SOURCE STATEMENT                                       ASM 0201 11.03 02/14/15
0008906 F874 DF38 7000 0C478 00000 11622 IDB210   ZAP   MTEMP(LX8),DX0(LX5,R7)                                   62622021
 00890C F970 D488 7000 0B9C8 00000 11623 HAFMAX   CP    MAXHAF(LX8),DX0(LX0,R7)                                  62628021
 008912 F970 D490 7000 0B9D0 00000 11624 HAFMIN   CP    MINHAF(LX8),DX0(LX0,R7)                                  62634021
 008918 F9F0 D498 7000 0B9D8 00000 11625 FULMAX   CP    MAXFUL(LX16),DX0(LX0,R7)                                 62640021
 00891E F9F0 D4A8 7000 0B9E8 00000 11626 FULMIN   CP    MINFUL(LX16),DX0(LX0,R7)                                 62646021
 008924 F140 DF3B 7000 0C47B 00000 11627 MVO      MVO   MTEMP+NX3(LX5),DX0(LX0,R7)                               62652021
1PH20     IKFCBL20                                                                                              PAGE  272
-  LOC  OBJECT CODE    ADDR1 ADDR2  STMT   SOURCE STATEMENT                                       ASM 0201 11.03 02/14/15
1PH20     IKFCBL20                                                                                              PAGE  273
-  LOC  OBJECT CODE    ADDR1 ADDR2  STMT   SOURCE STATEMENT                                       ASM 0201 11.03 02/14/15
0                                  11630 *=2      WSEND- END OF WORKING STORAGE- RESOLVE KEYS, WSADEF            62670021
                                   11631 * THIS ROUTINE IS CALLED YB DICTBD TO PERFORM THE FOLLOWING IN FILE     62676021
                                   11632 *    1. ENTER OVERFOW-NAME, IF ANY, INTO THE DICTIONARY.                62682021
                                   11633 *    2. ENTER FD INTO THE DICT,AND ENTER DELIMETER.IF NEEDED.           62688021
                                   11634 *    3. CALL BKSIZE ROUTINE FOR BUFFER CALCULATIONS.                    62694021
                                   11635 *    4. CALL RECKEY ROUTINE TO RESOLVE FOR RECORD KEY LENGTH.           62700021
 008930                            11636 IKF216   CSECT                                                          62706021
                             08930 11637          USING *,R15                                                    62712021
 008930 900D D9D8      0BF18       11638 WSEND    STM   R0,R13,BSAVE                                             62718021
 008934 D201 D67E D5C7 0BBBE 0BB07 11639          MVC   CARDXX(LX2),CARDNO   SAVE CURRENT CARD NO.               62724021
 00893A 50E0 D9D4      0BF14       11640          ST    R14,RETURN                                               62730021
 00893E 50F0 D98C      0BECC       11641          ST    R15,RS0                                                  62736021
 008942 9200 DDE0      0C320       11642          MVI   WS,XX00              ZERO OUT WSADEF CODE                62742021
 008946 9101 D5A3      0BAE3       11643          TM    PTBLSW,XX01          IS THERE ANY KEYTBL TABLE ENTRY.    62748021
 00894A 4780 F4E4      08E14       11644          BC    ZERO,WSE100            NO.                               62754021
                                   11645 *                                                                       62760021
                                   11646 * PROCESS KEYTABL AND BSAMTABL                                          62766021
                                   11647 *                                                                       62772021
 00894E 9202 D677      0BBB7       11648          MVI   ITMCLS+NX1,XX02                                          62778021
 008952 5810 DAF4      0C034       11649          L     R1,SYMPAR                                                62784021
 008956 5821 0000      00000       11650          L     R2,DX0(R1)                                               62790021
 00895A 5812 0000      00000       11651          L     R1,DX0(R2)                                               62796021
 00895E 5410 D4C4      0BA04       11652          N     R1,MK0932                                                62802021
 008962 5010 DF3C      0C47C       11653          ST    R1,MTEMP1                                                62808021
 008966 4A12 0004      00004       11654          AH    R1,DX4(R2)                                               62814021
 00896A 18C1                       11655          LR    R12,R1                                                   62820021
 00896C 5810 DF3C      0C47C       11656          L     R1,MTEMP1                                                62826021
 008970 58F0 DC4C      0C18C       11657 WSE010   L     R15,AQUAL                                                62832021
 008974 05EF                       11658          BALR  R14,R15             RESOLVE FOR KEYS.                    62838021
 008976 55F0 D3F4      0B934       11659          CL    R15,ZEROS                                                62844021
 00897A 58F0 DC44      0C184       11660          L     R15,AWSEND                                               62850021
 00897E 4780 F074      089A4       11661          BC    EQ,WSE030           CONTINUE PROCESSING                  62856021
 008982 5840 DF3C      0C47C       11662          L     R4,MTEMP1           UP R4 TO                             62862021
 008986 D201 DDD4 4000 0C314 00000 11663          MVC   PARAM(LX2),DX0(R4)       DATA PART OF                    62868021
 00898C 4A40 DDD4      0C314       11664          AH    R4,PARAM                KEY ENTRY                        62874021
 008990 D201 D5C7 400E 0BB07 0000E 11665          MVC   CARDNO(LX2),DX14(R4)  GET  KEY CARD NO.                  62880021
 008996 4144 0010      00010       11666          LA    R4,DX16(R4)                                              62886021
 00899A 4560 F8B8      091E8       11667          BAL   R6,WSERR            BR TO ERROR ROUTINE                  62892021
 00899E 2035                       11668          DC    X'2035'             53                                   62898021
 0089A0 47F0 F1A6      08AD6       11669          BC    UNCOND,WSE056       GET NEXT KEYTBL ENTRY                62904021
 0089A4 5010 DF38      0C478       11670 WSE030   ST    R1,MTEMP                                                 62910021
 0089A8 5840 DF3C      0C47C       11671          L     R4,MTEMP1                                                62916021
 0089AC D201 DDD4 4000 0C314 00000 11672          MVC   PARAM(LX2),DX0(R4)    N.B. TABLE ENTRY DOES NOT ALWAYS   62922021
 0089B2 4A40 DDD4      0C314       11673          AH    R4,PARAM               START ON WORD BOUNDARY.           62928021
 0089B6 4144 0002      00002       11674          LA    R4,DX2(R4)                                               62934021
 0089BA D201 D5C7 400C 0BB07 0000C 11675          MVC   CARDNO(LX2),DX12(R4)                                     62940021
 0089C0 9101 4003      00003       11676          TM    DX3(R4),XX01        NOMINAL KEY=NO KEYLGN FIELD?         62946021
 0089C4 4710 F0EE      08A1E       11677          BO    WSNOMKY            YES - PROCESS NOMINAL KEY.            62952021
 0089C8 4B10 D406      0B946       11678 WSACTKY  SH    R1,FOUR+NX2         NO - PROCESS ACTUAL KEY              62958021
 0089CC 5910 D464      0B9A4       11679          C     R1,CON256          IS SIZE OF ACTKEY-4 G.T. 255?         62964021
 0089D0 4740 F0B2      089E2       11680          BL    WSACTK1             NO - OK                              62970021
 0089D4 4560 F8B8      091E8       11681          BAL   R6,WSERR           YES - ERROR.                          62976021
 0089D8 2088                       11682          DC    X'2088'            ERROR MESSAGE NO 136.                 62982021
 0089DA 4144 000E      0000E       11683          LA    R4,DX14(R4)         R4 POINTS TO THE NEXT ENTRY          62988021
 0089DE 47F0 F1A6      08AD6       11684          B     WSE056              GET NEXT KEYTBL ENTRY                62994021
1PH20     IKFCBL20                                                                                              PAGE  274
-  LOC  OBJECT CODE    ADDR1 ADDR2  STMT   SOURCE STATEMENT                                       ASM 0201 11.03 02/14/15
00089E2 5010 DDC8      0C308       11685 WSACTK1 ST     R1,ACTKEY                                                63000021
 0089E6 9228 DDEC      0C32C       11686          MVI   LITBUF,XX28                                              63006021
 0089EA D202 DDED 4001 0C32D 00001 11687          MVC   LITBUF+NX1(LX3),DX1(R4)                                  63012021
 0089F0 D203 DDCC 4000 0C30C 00000 11688          MVC   DCBSAV(LX4),DX0(R4)                                      63018021
 0089F6 5010 DF38      0C478       11689          ST    R1,MTEMP                                                 63024021
 0089FA 9200 DDF0      0C330       11690          MVI   LITBUF+NX4,HEXCOD                                        63030021
 0089FE D201 DDF1 D3FA 0C331 0B93A 11691          MVC   LITBUF+NX5(LX2),ONE+NX2                                  63036021
 008A04 D200 DDF3 DDCB 0C333 0C30B 11692          MVC   LITBUF+NX7(LX1),ACTKEY+NX3                               63042021
 008A0A 5810 DB84      0C0C4       11693          L     R1,COSADR                                                63048021
 008A0E 4120 DDEC      0C32C       11694          LA    R2,LITBUF                                                63054021
 008A12 5830 D414      0B954       11695          L     R3,EIGHT                                                 63060021
 008A16 0501                       11696          BALR  R0,R1               BR TO COMMON                         63066021
 008A18 14                         11697          DC    X'14'                                                    63072021
 008A19 00
 008A1A 47F0 F192      08AC2       11698          B     WSE045              CHECK FOR BSAM TBL                   63078021
                                   11699 *                                                                       63084021
                                   11700 *DEL                                                                    63090021
                                   11701 *           MAKE SURE NOMINAL KEY IS IN WORKING-STORAGE  *        51873 63096021
 008A1E 1B33                       11702 WSNOMKY  SR    R3,R3                                              51873 63102021
 008A20 4332 0000      00000       11703          IC    R3,DX0(R2)         PICK UP MAJOR CODE              51873 63108021
 008A24 8930 001C      0001C       11704          SLL   R3,DX28                                            51873 63114021
 008A28 8830 001C      0001C       11705          SRL   R3,DX28                                            51873 63120021
 008A2C 4930 DFA6      0C4E6       11706          CH    R3,WSREC           IS KEY IN WORKING-STORAGE       51873 63126021
 008A30 4780 F10A      08A3A       11707          BE    WSNOMK2            YES                             51873 63132021
 008A34 4560 F8B8      091E8       11708          BAL   R6,WSERR           NO.  ERROR                      51873 63138021
 008A38 20E6                       11709          DC    X'20E6'             MSG. 230                       51873 63144021
 008A3A 9102 4003      00003       11710 WSNOMK2  TM    DX3(R4),XX02       ISAM?                           51873 63150021
 008A3E 4710 F128      08A58       11711          BO    WSE039B             YES                                  63156021
 008A42 94F0 DF33      0C473       11712          NI    WKAREA+NX35,XXF0                                         63162021
 008A46 95B0 DF33      0C473       11713          CLI   WKAREA+NX35,XXB0    COMP?                                63168021
 008A4A 4780 F13A      08A6A       11714          BE    WSE039             YES.                                  63174021
 008A4E 4560 F8B8      091E8       11715 WSNOMER  BAL   R6,WSERR           NO - ERROR.                           63180021
 008A52 009D                       11716          DC    X'009D'            MSG NO=157                            63186021
 008A54 47F0 F142      08A72       11717          B     WSE040              CONTINUE PROCESSING                  63192021
 008A58 5910 D464      0B9A4       11718 WSE039B  C     R1,CON256                                                63198021
 008A5C 4740 F142      08A72       11719          BL    WSE040              CONTINUE PROCESSING                  63204021
 008A60 4560 F8B8      091E8       11720          BAL   R6,WSERR            ERROR RTN                            63210021
 008A64 2088                       11721          DC    X'2088'                                                  63216021
 008A66 47F0 F142      08A72       11722          B     WSE040              CONTINUE PROCESSING                  63222021
 008A6A 9508 DF31      0C471       11723 WSE039   CLI   WKAREA+NX33,XX08    S9(8) ?                              63228021
 008A6E 4770 F11E      08A4E       11724          BNE   WSNOMER            NO - ERROR.                           63234021
 008A72 5A40 D404      0B944       11725 WSE040   A     R4,FOUR            R4 POINTS TO REL LOC DECB KEYADR      63240021
 008A76 922C DDEC      0C32C       11726          MVI   LITBUF,XX2C                                              63246021
 008A7A 5820 DF34      0C474       11727          L     R2,WKAREA+NX36                                           63252021
 008A7E D202 DDED 4001 0C32D 00001 11728          MVC   LITBUF+NX1(LX3),DX1(R4)                                  63258021
 008A84 5420 D4C0      0BA00       11729          N     R2,MK2532                                                63264021
 008A88 1B33                       11730          SR    R3,R3                                                    63270021
 008A8A 4330 DEC7      0C407       11731          IC    R3,FAPAF+NX2                                             63276021
 008A8E 1B23                       11732          SR    R2,R3                                                    63282021
 008A90 4C20 D47A      0B9BA       11733          MH    R2,CO4096+NX2       RELATIVE LOCATION OF KEY =           63288021
 008A94 5830 DF34      0C474       11734          L     R3,WKAREA+NX36      (NO OF BL'S)*4096+DISP.              63294021
 008A98 8830 0008      00008       11735          SRL   R3,DX8                                                   63300021
 008A9C 5430 D4E4      0BA24       11736          N     R3,MK2132                                                63306021
 008AA0 1A23                       11737          AR    R2,R3                                                    63312021
 008AA2 5A20 DDE0      0C320       11738          A     R2,WS                                                    63318021
1PH20     IKFCBL20                                                                                              PAGE  275
-  LOC  OBJECT CODE    ADDR1 ADDR2  STMT   SOURCE STATEMENT                                       ASM 0201 11.03 02/14/15
0008AA6 5020 DDF0      0C330       11739          ST    R2,LITBUF+NX4                                            63324021
 008AAA 9204 DDF0      0C330       11740          MVI   LITBUF+NX4,XX04                                          63330021
 008AAE 5810 DB84      0C0C4       11741          L     R1,COSADR                                                63336021
 008AB2 4120 DDEC      0C32C       11742          LA    R2,LITBUF                                                63342021
 008AB6 5830 D414      0B954       11743          L     R3,EIGHT                                                 63348021
 008ABA 0501                       11744          BALR  R0,R1               BR TO COMMON                         63354021
 008ABC 14                         11745          DC    X'14'                                                    63360021
 008ABD 00
 008ABE 47F0 F196      08AC6       11746          B     WSE046              CONTINUE                             63366021
 008AC2 5A40 D404      0B944       11747 WSE045   A     R4,FOUR            SKIP A(KEY) FIELD FOR ACT-KEY         63372021
 008AC6 5A40 D404      0B944       11748 WSE046   A     R4,FOUR            R4 POINTS TO DISP IN BSAM TABLE       63378021
 008ACA 9101 4003      00003       11749          TM    DX3(R4),XX01        BSAM TABLE PRESENT?                  63384021
 008ACE 4780 F1B6      08AE6       11750          BE    WSBSAM0            YES - PROCESS IT.                     63390021
 008AD2 5A40 D40C      0B94C       11751 WSE055   A     R4,SIX             R4 POINTS TO THE NEXT ENTRY IF AN     63396021
 008AD6 194C                       11752 WSE056   CR    R4,R12             END OF KEYTBL REACHED?                63402021
 008AD8 47B0 F4D2      08E02       11753          BNL   WSE090             YES.                                  63408021
 008ADC 1814                       11754          LR    R1,R4              NO, PROCESS NEXT ENTRY.               63414021
 008ADE 5010 DF3C      0C47C       11755          ST    R1,MTEMP1          MTEMPI=A(NEXT ENTRY)                  63420021
 008AE2 47F0 F040      08970       11756          B     WSE010              BEGIN PROCESSING NEXT ENTRY          63426021
                                   11757 *                                                                       63432021
 008AE6 5870 DAFC      0C03C       11758 WSBSAM0  L     R7,BSMPAR          GET BLKSIZ FROM BSAMTB                63438021
 008AEA 5887 0000      00000       11759          L     R8,DX0(R7)                                               63444021
 008AEE 5878 0000      00000       11760          L     R7,DX0(R8)                                               63450021
 008AF2 5470 D4C4      0BA04       11761          N     R7,MK0932                                                63456021
 008AF6 D201 DDD4 4002 0C314 00002 11762          MVC   PARAM(LX2),DX2(R4)    ADD DISPLACEMENT PTR IN KEYTBL     63462021
 008AFC 4A70 DDD4      0C314       11763          AH    R7,PARAM               TO START OF BSAMTB.               63468021
 008B00 5850 B148      00148       11764          L     R5,LOCCTR                                                63474021
 008B04 9180 7011      00011       11765          TM    DX17(R7),XX80        BDAM-D                              63480021
 008B08 4710 F222      08B52       11766          BO    WSBSAM1             NO                                   63486021
 008B0C D202 D901 7003 0BE41 00003 11767          MVC   FULLWD+NX1(LX3),DX3(R7)                                  63492021
 008B12 D700 D900 D900 0BE40 0BE40 11768          XC    FULLWD(LX1),FULLWD                                       63498021
 008B18 5830 D900      0BE40       11769          L     R3,FULLWD                                                63504021
 008B1C 4133 0024      00024       11770          LA    R3,DX36(R3)         DECB+36                              63510021
 008B20 5030 DDEC      0C32C       11771          ST    R3,LITBUF          TARGET ADR                            63516021
 008B24 922C DDEC      0C32C       11772          MVI   LITBUF,XX2C                                              63522021
 008B28 9204 DDF0      0C330       11773          MVI   LITBUF+NX4,XX04     ADCON LGN = 4 BYTES                  63528021
 008B2C D202 DDF1 B149 0C331 00149 11774          MVC   LITBUF+NX5(LX3),LOCCTR+NX1                               63534021
 008B32 5810 DB84      0C0C4       11775          L     R1,COSADR                                                63540021
 008B36 4120 DDEC      0C32C       11776          LA    R2,LITBUF                                                63546021
 008B3A 5830 D414      0B954       11777          L     R3,EIGHT                                                 63552021
 008B3E 0501                       11778          BALR  R0,R1               BR TO COMMON                         63558021
 008B40 14                         11779          DC    X'14'                                                    63564021
 008B41 00
 008B42 5850 B148      00148       11780          L     R5,LOCCTR                                                63570021
 008B46 5A50 DF38      0C478       11781          A     R5,MTEMP           A-K LGN - 4                           63576021
 008B4A 4155 0004      00004       11782          LA    R5,DX4(R5)          LOCCTR+A-K LGN                       63582021
 008B4E 5050 B148      00148       11783          ST    R5,LOCCTR                                                63588021
 008B52 9101 7009      00009       11784 WSBSAM1  TM    DX9(R7),XX01        S-A?                                 63594021
 008B56 4710 F238      08B68       11785          BO    WSBSAM2            NO.                                   63600021
 008B5A D203 D900 7006 0BE40 00006 11786          MVC   FULLWD(LX4),DX6(R7)  YES.                                63606021
 008B60 5810 DADC      0C01C       11787          L     R1,PSAME                                                 63612021
 008B64 4560 F3FC      08D2C       11788          BAL   R6,SAMEKEY          PROCESS SAME AREA                    63618021
 008B68 9101 700D      0000D       11789 WSBSAM2  TM    DX13(R7),XX01       S-R-A?                               63624021
 008B6C 4710 F24E      08B7E       11790          BO    WSBSAM3            NO.                                   63630021
 008B70 D203 D900 700A 0BE40 0000A 11791          MVC   FULLWD(LX4),DX10(R7) YES.                                63636021
1PH20     IKFCBL20                                                                                              PAGE  276
-  LOC  OBJECT CODE    ADDR1 ADDR2  STMT   SOURCE STATEMENT                                       ASM 0201 11.03 02/14/15
0008B76 5810 DAE4      0C024       11792          L     R1,PSMRCD                                                63642021
 008B7A 4560 F3FC      08D2C       11793          BAL   R6,SAMEKEY          PROCESS SAME RECORD AREA             63648021
 008B7E 9204 DDEC      0C32C       11794 WSBSAM3  MVI   LITBUF,XX04                                              63654021
 008B82 D202 DDED 700E 0C32D 0000E 11795          MVC   LITBUF+NX1(LX3),DX14(R7) FD DICTIONARY POINTER           63660021
 008B88 4110 DDEC      0C32C       11796          LA    R1,LITBUF                                                63666021
 008B8C 58F0 DBE4      0C124       11797          L     R15,ALATRP         GET DICTIONARY ATTRIBUTE ADDRESS      63672021
 008B90 05EF                       11798          BALR  R14,R15            IN R2.                                63678021
 008B92 58F0 DC44      0C184       11799          L     R15,AWSEND                                               63684021
 008B96 D202 2009 DF35 00009 0C475 11800          MVC   DX9(LX3,R2),WKAREA+NX37 MOVE KEY ADPAR INTO FD DICTIONAR 63690021
 008B9C D200 200C DF3B 0000C 0C47B 11801          MVC   DX12(LX1,R2),MTEMP+NX3 MOVE KEY LGN INTO FD DICTIONARY.  63696021
 008BA2 5A50 DF38      0C478       11802          A     R5,MTEMP                                                 63702021
 008BA6 4155 0007      00007       11803          LA    R5,DX7(R5)                                               63708021
 008BAA 5450 D4F0      0BA30       11804          N     R5,MK0129                                                63714021
 008BAE 1865                       11805          LR    R6,R5                                                    63720021
 008BB0 9140 700E      0000E       11806 WSBSAM4  TM    DX14(R7),XX40       V?                                   63726021
 008BB4 4780 F28C      08BBC       11807          BZ    WSBSAM5             NO                                   63732021
 008BB8 5A50 D414      0B954       11808          A     R5,EIGHT           YES.                                  63738021
 008BBC 9160 7011      00011       11809 WSBSAM5  TM    DX17(R7),XX60        BDAM OR BSAM S-MODE                 63744021
 008BC0 4780 F298      08BC8       11810          BZ    *+8                 SKIP NEXT INSTRUCTION                63750021
 008BC4 5A50 D414      0B954       11811          A     R5,EIGHT                                                 63756021
 008BC8 9101 700D      0000D       11812          TM    DX13(R7),XX01                                            63762021
 008BCC 4780 F2AC      08BDC       11813          BZ    WSBSAM6             BRANCH                               63768021
 008BD0 9101 7009      00009       11814          TM    DX9(R7),XX01                                             63774021
 008BD4 4780 F414      08D44       11815          BZ    BDAMSM              TEST FOR S-MODE                      63780021
 008BD8 47F0 F2B8      08BE8       11816          B     WSE065              BRANCH                               63786021
 008BDC 9101 7009      00009       11817 WSBSAM6  TM    DX9(R7),XX01         S-A                                 63792021
 008BE0 4780 F41C      08D4C       11818          BZ    BDAMS1              YES, GEN BUFNO BUFLN                 63798021
 008BE4 47F0 F380      08CB0       11819          B     WSE085              NO, GO GEN SEG WK AREAP              63804021
 008BE8 5050 DF14      0C454       11820 WSE065   ST    R5,WKAREA+NX4       SAVE A(BUFFER) FOR BLKADEF           63810021
 008BEC 9180 7011      00011       11821          TM    DX17(R7),XX80        BDAM-D                              63816021
 008BF0 4780 F2C8      08BF8       11822          BZ    *+8                 NO                                   63822021
 008BF4 5B60 DF38      0C478       11823          S     R6,MTEMP            R6= A(BUFFER) FOR DECB               63828021
 008BF8 D202 D901 7003 0BE41 00003 11824          MVC   FULLWD+NX1(LX3),DX3(R7)                                  63834021
 008BFE 5810 D900      0BE40       11825          L     R1,FULLWD                                                63840021
 008C02 4111 000C      0000C       11826          LA    R1,DX12(R1)                                              63846021
 008C06 5010 DDEC      0C32C       11827          ST    R1,LITBUF                                                63852021
 008C0A 922C DDEC      0C32C       11828          MVI   LITBUF,XX2C                                              63858021
 008C0E 5060 DDF0      0C330       11829          ST    R6,LITBUF+NX4                                            63864021
 008C12 9204 DDF0      0C330       11830          MVI   LITBUF+NX4,XX04                                          63870021
 008C16 181B                       11831          LR    R1,RCOM                                                  63876021
 008C18 4120 DDEC      0C32C       11832          LA    R2,LITBUF                                                63882021
 008C1C 4130 0008      00008       11833          LA    R3,DX8                                                   63888021
 008C20 0501                       11834          BALR  R0,R1               BR TO COMMON                         63894021
 008C22 14                         11835          DC    X'14'                                                    63900021
                                   11836 *                                                                       63906021
                                   11837 *        PUT OUT BLKADEF FOR BUFFER ASSIGNED                            63912021
                                   11838 *                                                                       63918021
 008C23 00
 008C24 D703 DDF1 DDF1 0C331 0C331 11839          XC    LITBUF+NX5(LX4),LITBUF+NX5 ZERO OUT RPD AND DISP OF BLKA 63924021
 008C2A D201 DDEC 7000 0C32C 00000 11840          MVC   LITBUF(DX2),DX0(R7) GET BUFFER LENGTH IN BYTES     53116 63930021
 008C30 4810 DDEC      0C32C       11841          LH    R1,LITBUF                                          53116 63936021
 008C34 5A10 D400      0B940       11842          A     R1,THREE            CONVERT LENGTH FROM BYTES      53116 63942021
 008C38 8810 0002      00002       11843          SRL   R1,DX2              TO NO. OF WORDS                53116 63948021
 008C3C 4010 DDEC      0C32C       11844          STH   R1,LITBUF                                          53116 63954021
 008C40 D201 DDF3 DDEC 0C333 0C32C 11845          MVC   LITBUF+7(DX2),LITBUF   PUT LENGTH INTO BL CONST.   53116 63960021
1PH20     IKFCBL20                                                                                              PAGE  277
-  LOC  OBJECT CODE    ADDR1 ADDR2  STMT   SOURCE STATEMENT                                       ASM 0201 11.03 02/14/15
0008C46 D202 DDED DF15 0C32D 0C455 11846          MVC   LITBUF+NX1(LX3),WKAREA+NX5 REL. LOC. OF BUFFER           63966021
 008C4C 920C DDEC      0C32C       11847          MVI   LITBUF,XX0C          BLKADEF ATEXT CODE                  63972021
 008C50 D200 DDF0 7002 0C330 00002 11848          MVC   LITBUF+NX4(LX1),DX2(R7) BL FOR BUFFER                    63978021
 008C56 5810 DB84      0C0C4       11849 WSE080   L     R1,COSADR                                                63984021
 008C5A 4120 DDEC      0C32C       11850          LA    R2,LITBUF                                                63990021
 008C5E 4130 0009      00009       11851          LA    R3,DX9                                                   63996021
 008C62 0501                       11852          BALR  R0,R1               BR TO COMMON                         64002021
 008C64 14                         11853          DC    X'14'                                                    64008021
 008C65 00
 008C66 5850 DF14      0C454       11854          L     R5,WKAREA+NX4                                            64014021
 008C6A D201 D900 7000 0BE40 00000 11855          MVC   FULLWD(LX2),DX0(R7)                                      64020021
 008C70 4A50 D900      0BE40       11856          AH    R5,FULLWD                                                64026021
 008C74 5050 B148      00148       11857          ST    R5,LOCCTR         )                                      64032021
 008C78 9120 7011      00011       11858          TM    DX17(R7),XX20        BSAM SPANNED                        64038021
 008C7C 4780 F1A2      08AD2       11859          BZ    WSE055              NO                                   64044021
                                   11860 *                                                                       64050021
                                   11861 *                                                                       64056021
 008C80 5060 DDF0      0C330       11862          ST    R6,LITBUF+NX4        YES, PUT IN DCB + 100               64062021
 008C84 9204 DDF0      0C330       11863          MVI   LITBUF+NX4,XX04      A( LOG RCD AREA)                    64068021
 008C88 5830 DDCC      0C30C       11864          L     R3,DCBSAV           DCB + 16                             64074021
 008C8C 4133 0054      00054       11865          LA    R3,DX84(R3)          DCB + 100                           64080021
 008C90 5030 DDEC      0C32C       11866          ST    R3,LITBUF           TARGET ADDRESS                       64086021
 008C94 922C DDEC      0C32C       11867          MVI   LITBUF,XX2C          CODE                                64092021
 008C98 4120 DDEC      0C32C       11868          LA    R2,LITBUF                                                64098021
 008C9C 4130 0008      00008       11869          LA    R3,DX8                                                   64104021
 008CA0 5810 DB84      0C0C4       11870          L     R1,COSADR                                                64110021
 008CA4 0501                       11871          BALR  R0,R1               BR TO COMMON                         64116021
 008CA6 14                         11872          DC    X'14'                                                    64122021
 008CA7 00
 008CA8 9101 7009      00009       11873          TM    DX9(R7),XX01         S-A                                 64128021
 008CAC 4780 F1A2      08AD2       11874          BZ    WSE055              YES, GO OUT                          64134021
 008CB0 9120 7011      00011       11875 WSE085   TM    DX17(R7),XX20        BSAM SPANNED                        64140021
 008CB4 4780 F1A2      08AD2       11876          BZ    WSE055              NO. GO OUT                           64146021
 008CB8 5890 B148      00148       11877          L     R9,LOCCTR                                                64152021
 008CBC 4199 0007      00007       11878          LA    R9,DX7(R9)                                               64158021
 008CC0 5490 D4F0      0BA30       11879          N     R9,MK0129                                                64164021
 008CC4 5830 DDCC      0C30C       11880          L     R3,DCBSAV                                                64170021
 008CC8 4133 004C      0004C       11881          LA    R3,DX76(R3)          DCB + 92                            64176021
 008CCC 5030 DDEC      0C32C       11882          ST    R3,LITBUF           TARGET ADDRESS                       64182021
 008CD0 922C DDEC      0C32C       11883          MVI   LITBUF,XX2C          CODE                                64188021
 008CD4 5090 DDF0      0C330       11884          ST    R9,LITBUF+NX4                                            64194021
 008CD8 9204 DDF0      0C330       11885          MVI   LITBUF+NX4,XX04      ADCON LENGTH                        64200021
 008CDC 4120 DDEC      0C32C       11886          LA    R2,LITBUF                                                64206021
 008CE0 4130 0008      00008       11887          LA    R3,DX8                                                   64212021
 008CE4 5810 DB84      0C0C4       11888          L     R1,COSADR                                                64218021
 008CE8 0501                       11889          BALR  R0,R1               BR TO COMMON                         64224021
 008CEA 14                         11890          DC    X'14'                                                    64230021
 008CEB 00
 008CEC 5090 DDEC      0C32C       11891          ST    R9,LITBUF           A (SEG WK AREA)                      64236021
 008CF0 922C DDEC      0C32C       11892          MVI   LITBUF,XX2C                                              64242021
 008CF4 4129 000C      0000C       11893          LA    R2,DX12(R9)          A (SEG WK AREA + 12)                64248021
 008CF8 5020 DDF0      0C330       11894          ST    R2,LITBUF+NX4                                            64254021
 008CFC 9204 DDF0      0C330       11895          MVI   LITBUF+NX4,XX04      ADCON COUNT                         64260021
 008D00 4130 0008      00008       11896          LA    R3,DX8                                                   64266021
 008D04 4120 DDEC      0C32C       11897          LA    R2,LITBUF                                                64272021
1PH20     IKFCBL20                                                                                              PAGE  278
-  LOC  OBJECT CODE    ADDR1 ADDR2  STMT   SOURCE STATEMENT                                       ASM 0201 11.03 02/14/15
0008D08 5810 DB84      0C0C4       11898          L     R1,COSADR                                                64278021
 008D0C 0501                       11899          BALR  R0,R1               BR TO COMMON                         64284021
 008D0E 14                         11900          DC    X'14'                                                    64290021
 008D0F 00
 008D10 4199 0004      00004       11901          LA    R9,DX4(R9)           SEG WK AREA + 4                     64296021
 008D14 5090 DDEC      0C32C       11902          ST    R9,LITBUF                                                64302021
 008D18 4530 F45E      08D8E       11903          BAL   R3,BDAMS2           LNK TO BDAMS2                        64308021
 008D1C 4A90 DDD0      0C310       11904          AH    R9,SEGSAV           ADD SPACE SAVED                      64314021
 008D20 4199 000C      0000C       11905          LA    R9,DX12(R9)          MAXIM + 22                          64320021
 008D24 5090 B148      00148       11906          ST    R9,LOCCTR                                                64326021
 008D28 47F0 F1A2      08AD2       11907          B     WSE055              PROCESS NEXT ENTRY                   64332021
                                   11908 *                                                                       64338021
 008D2C 5811 0000      00000       11909 SAMEKEY  L     R1,DX0(R1)          R1=A(TAMM)                           64344021
 008D30 5811 0000      00000       11910          L     R1,DX0(R1)          R1=A(TABLE)                          64350021
 008D34 5410 D4C4      0BA04       11911          N     R1,MK0932                                                64356021
 008D38 5A10 D900      0BE40       11912          A     R1,FULLWD                                                64362021
 008D3C D200 1009 DF3B 00009 0C47B 11913          MVC   DX9(LX1,R1),MTEMP+NX3                                    64368021
 008D42 07F6                       11914          BR    R6                 RETURN                                64374021
 008D44 9160 7011      00011       11915 BDAMSM   TM    DX17(R7),XX60        S-MODE                              64380021
 008D48 4780 F1A2      08AD2       11916          BZ    WSE055              NO                                   64386021
 008D4C 9056 DD94      0C2D4       11917 BDAMS1   STM   R5,R6,RNMSAV        SAVE REGS                            64392021
 008D50 5890 DDCC      0C30C       11918          L     R9,DCBSAV           A(DCB + 16)                          64398021
 008D54 4199 0058      00058       11919          LA    R9,DX88(R9)          DCB + 104                           64404021
 008D58 5090 DDEC      0C32C       11920          ST    R9,LITBUF           TARGET ADDRESS                       64410021
 008D5C 4530 F45E      08D8E       11921          BAL   R3,BDAMS2           LNK TO BDAMS2                        64416021
 008D60 D203 D900 7006 0BE40 00006 11922          MVC   FULLWD(LX4),DX6(R7)   DISPL IN SAMETBL                   64422021
 008D66 5860 DADC      0C01C       11923          L     R6,PSAME                                                 64428021
 008D6A 5866 0000      00000       11924          L     R6,DX0(R6)                                               64434021
 008D6E 5866 0000      00000       11925          L     R6,DX0(R6)                                               64440021
 008D72 5460 D4C4      0BA04       11926          N     R6,MK0932           CLEAR TOP BYTE                       64446021
 008D76 5A60 D900      0BE40       11927          A     R6,FULLWD           DISPL FO ENTRY                       64452021
 008D7A 9640 600B      0000B       11928          OI    DX11(R6),BASICS     SET S BIT ON                         64458021
 008D7E 9856 DD94      0C2D4       11929          LM    R5,R6,RNMSAV                                             64464021
 008D82 9101 700D      0000D       11930          TM    DX13(R7),XX01        S-R-A                               64470021
 008D86 4780 F1A2      08AD2       11931          BZ    WSE055              YES GO OUT                           64476021
 008D8A 47F0 F2B8      08BE8       11932          B     WSE065              NO, RETURN                           64482021
 008D8E 5030 DEF0      0C430       11933 BDAMS2   ST    R3,INPUT            SAVE RETURN REG                      64488021
 008D92 D201 D900 7000 0BE40 00000 11934          MVC   FULLWD(LX2),DX0(R7)   BLKSIZ                             64494021
 008D98 4890 D900      0BE40       11935          LH    R9,FULLWD                                                64500021
                                   11936 *                                                                       64506021
 008D9C 910F 7011      00011       11937          TM    DX17(R7),XX0F        TRACK CAPACITY                      64512021
 008DA0 4780 F48E      08DBE       11938          BZ    BDAMS4              NO                                   64518021
 008DA4 4110 D286      0B7C6       11939          LA    R1,TRKCAP           A (TABLE)                            64524021
 008DA8 1A12                       11940          AR    R1,R2               POINT TO PROPER ENTRY                64530021
 008DAA 5420 D4CC      0BA0C       11941          N     R2,MK0015           GET RID OF OTHER BITS                64536021
 008DAE 1A12                       11942          AR    R1,R2               POINT TO PROPER ENTRY                64542021
 008DB0 4891 0000      00000       11943          LH    R9,DX0(R1)           ADD TRACK CAPACITY                  64548021
 008DB4 4991 0000      00000       11944          CH    R9,DX0(R1)           WANT MIN                            64554021
 008DB8 4740 F48E      08DBE       11945          BL    BDAMS4              LRECL MIN                            64560021
 008DBC 1891                       11946          LR    R9,R1               ADD TRACK CAPACITY                   64566021
 008DBE 4199 000A      0000A       11947 BDAMS4   LA    R9,DM10(R9)         ADD 10 FOR DATA MANG                 64572021
 008DC2 4090 DDD0      0C310       11948          STH   R9,SEGSAV                                                64578021
 008DC6 9228 DDEC      0C32C       11949          MVI   LITBUF,XX28          CODE                                64584021
 008DCA D202 DDF0 D405 0C330 0B945 11950          MVC   LITBUF+NX4(LX3),FOUR+NX1 COUNT                           64590021
 008DD0 5830 DDC8      0C308       11951          L     R3,ACTKEY           SIZE OF KEY                          64596021
1PH20     IKFCBL20                                                                                              PAGE  279
-  LOC  OBJECT CODE    ADDR1 ADDR2  STMT   SOURCE STATEMENT                                       ASM 0201 11.03 02/14/15
0008DD4 4A30 DDD0      0C310       11952          AH    R3,SEGSAV           BUFLN                                64602021
 008DD8 D201 DDF3 D3FA 0C333 0B93A 11953          MVC   LITBUF+NX7(LX2),ONE+NX2 BUFNO = 1                        64608021
 008DDE 4030 D900      0BE40       11954          STH   R3,FULLWD                                                64614021
 008DE2 D201 DDF5 D900 0C335 0BE40 11955          MVC   LITBUF+NX9(LX2),FULLWD                                   64620021
 008DE8 5810 DB84      0C0C4       11956          L     R1,COSADR                                                64626021
 008DEC 4120 DDEC      0C32C       11957          LA    R2,LITBUF                                                64632021
 008DF0 4130 000B      0000B       11958          LA    R3,DX11              COUNT                               64638021
 008DF4 0501                       11959          BALR  R0,R1               GEN FIELDS FOR DCB                   64644021
 008DF6 14                         11960          DC    X'14'                                                    64650021
 008DF7 00
 008DF8 5830 DEF0      0C430       11961          L     R3,INPUT            RESTORE RETURN REG                   64656021
 008DFC 5890 DDEC      0C32C       11962          L     R9,LITBUF           RESTORE ADD OF SEG WK AREA           64662021
 008E00 07F3                       11963          BR    R3                  RETURN                               64668021
 008E02 5810 DAF4      0C034       11964 WSE090   L     R1,SYMPAR           RELEASE KEYTBL TABLE,                64674021
 008E06 58F0 DCF0      0C230       11965          L     R15,BTABRL                                               64680021
 008E0A 05EF                       11966          BALR  R14,R15             BR TO TABLE RELEASE RTN              64686021
 008E0C 58F0 D98C      0BECC       11967          L     R15,RS0                                                  64692021
 008E10 94FE D5A3      0BAE3       11968          NI    PTBLSW,XXFE             AND SET SW TO INDICATE SO.       64698021
 008E14 9140 D5A3      0BAE3       11969 WSE100   TM    PTBLSW,XX40                                              64704021
 008E18 4780 F4F6      08E26       11970          BZ    WSSM01              NO                                   64710021
 008E1C 58F0 DBB0      0C0F0       11971          L     R15,ASAME                                                64716021
 008E20 05EF                       11972          BALR  R14,R15             YES. PROCESS SAME AREA               64722021
 008E22 58F0 DC44      0C184       11973          L     R15,AWSEND                                               64728021
 008E26 9120 D5A6      0BAE6       11974 WSSM01   TM    PRMSW,XX20                                               64734021
 008E2A 4780 F508      08E38       11975          BZ    WSSM02              NO                                   64740021
 008E2E 58F0 DBB8      0C0F8       11976          L     R15,ASAMER                                               64746021
 008E32 05EF                       11977          BALR  R14,R15             YES. PROCESS SAME RECORD AREA.       64752021
 008E34 58F0 DC44      0C184       11978          L     R15,AWSEND                                               64758021
 008E38 9140 D5A6      0BAE6       11979 WSSM02   TM    PRMSW,XX40                                               64764021
 008E3C 4780 F5C0      08EF0       11980          BZ    WSE104             NO.                                   64770021
 008E40 5810 DACC      0C00C       11981          L     R1,REORGPAR                                              64776021
 008E44 5821 0000      00000       11982          L     R2,DX0(R1)                                               64782021
 008E48 5812 0000      00000       11983          L     R1,DX0(R2)          R1 POINTS TO START OF REORG TBL.     64788021
 008E4C 5410 D4C4      0BA04       11984          N     R1,MK0932                                                64794021
 008E50 5010 DF3C      0C47C       11985          ST    R1,MTEMP1                                                64800021
 008E54 4A12 0004      00004       11986          AH    R1,DX4(R2)          R1=EOT                               64806021
 008E58 18C1                       11987          LR    R12,R1             R12=EOT                               64812021
 008E5A 5810 DF3C      0C47C       11988          L     R1,MTEMP1          MTEMP1=A(TABLE)---A(CURRENT ENTRY     64818021
 008E5E 58F0 DC4C      0C18C       11989 WSE100B  L     R15,AQUAL                                                64824021
 008E62 05EF                       11990          BALR  R14,R15            LOCATE THE QUAL-NAME                  64830021
 008E64 55F0 D3F4      0B934       11991          CL    R15,ZEROS                                                64836021
 008E68 58F0 DC44      0C184       11992          L     R15,AWSEND                                               64842021
 008E6C 4780 F562      08E92       11993          BE    WSE101             FOUND                                 64848021
 008E70 5840 DF3C      0C47C       11994          L     R4,MTEMP1          NOT FOUND - ERROR                     64854021
 008E74 D201 DDD4 4000 0C314 00000 11995          MVC   PARAM(LX2),DX0(R4)                                       64860021
 008E7A 4A40 DDD4      0C314       11996          AH    R4,PARAM                                                 64866021
 008E7E D201 D5C7 4005 0BB07 00005 11997          MVC   CARDNO(LX2),DX5(R4)  GET CARD NO.                        64872021
 008E84 4144 0007      00007       11998          LA    R4,DX7(R4)                                               64878021
 008E88 4560 F8B8      091E8       11999          BAL   R6,WSERR           REORG DATA NAME NOT FOUND OR          64884021
 008E8C 101C                       12000          DC    X'101C'             NOT UNIQUE                           64890021
 008E8E 47F0 F59E      08ECE       12001          B     WSE102             CHECK NEXT FIELD.                     64896021
 008E92 5010 DF38      0C478       12002 WSE101   ST    R1,MTEMP                                                 64902021
 008E96 5840 DF3C      0C47C       12003          L     R4,MTEMP1                                                64908021
 008E9A D201 DDD4 4000 0C314 00000 12004          MVC   PARAM(LX2),DX0(R4)   TABLE ENTRY MAY NOT BE ON WD-B.     64914021
 008EA0 4A40 DDD4      0C314       12005          AH    R4,PARAM                                                 64920021
1PH20     IKFCBL20                                                                                              PAGE  280
-  LOC  OBJECT CODE    ADDR1 ADDR2  STMT   SOURCE STATEMENT                                       ASM 0201 11.03 02/14/15
0008EA4 4144 0002      00002       12006          LA    R4,DX2(R4)                                               64926021
 008EA8 9204 DDEC      0C32C       12007          MVI   LITBUF,XX04                                              64932021
 008EAC D202 DDED 4000 0C32D 00000 12008          MVC   LITBUF+NX1(LX3),DX0(R4) DICTIONARY PTR                   64938021
 008EB2 4110 DDEC      0C32C       12009          LA    R1,LITBUF                                                64944021
 008EB6 58F0 DBE4      0C124       12010          L     R15,ALATRP         GET DICT-ATTRIB ADDRESS.              64950021
 008EBA 05EF                       12011          BALR  R14,R15             BR TO RTN                            64956021
 008EBC 58F0 DC44      0C184       12012          L     R15,AWSEND                                               64962021
 008EC0 D202 2009 DF35 00009 0C475 12013          MVC   DX9(LX3,R2),WKAREA+NX37 MOVE REORG ADPAR INTO DICT-ATTRI 64968021
 008EC6 9608 2004      00004       12014          OI    DX4(R2),XX08                                             64974021
 008ECA 4144 0005      00005       12015          LA    R4,DX5(R4)                                               64980021
 008ECE 194C                       12016 WSE102   CR    R4,R12             END OF REORG TBL                      64986021
 008ED0 47B0 F5AE      08EDE       12017          BNL   WSE103             YES, RELEASE TBL                      64992021
 008ED4 1814                       12018          LR    R1,R4              NO, PROCESS NEXT ENTRY.               64998021
 008ED6 5010 DF3C      0C47C       12019          ST    R1,MTEMP1          MTEMP1=A(NEXT ENTRY)                  65004021
 008EDA 47F0 F52E      08E5E       12020          B     WSE100B             PROCESS NEXT ENTRY                   65010021
 008EDE 5810 DACC      0C00C       12021 WSE103   L     R1,REORGPAR                                              65016021
 008EE2 58F0 DCF0      0C230       12022          L     R15,BTABRL         RELEASE REORG TBL                     65022021
 008EE6 05EF                       12023          BALR  R14,R15             BRANCH                               65028021
 008EE8 58F0 D98C      0BECC       12024          L     R15,RS0                                                  65034021
 008EEC 94BF D5A6      0BAE6       12025          NI    PRMSW,XXBF          SET PRMSW OFF                        65040021
                                   12026 *                                                                       65046021
                                   12027 *  PROCESS TRKTBL FOR TRACK AREA DATANAME ADDRESS AND LENGTH.           65052021
                                   12028 *                                                                       65058021
 008EF0 9120 D5A3      0BAE3       12029 WSE104   TM    PTBLSW,XX20                                              65064021
 008EF4 4780 F712      09042       12030          BC    ZERO,WSE130         CHECK FOR TOTALING AREA ENTRY        65070021
 008EF8 5890 DB0C      0C04C       12031          L     R9,TPARAM                                                65076021
 008EFC 58A9 0000      00000       12032          L     R10,DX0(R9)                                              65082021
 008F00 589A 0000      00000       12033          L     R9,DX0(R10)          R9 POINTS TO START OF TRKTBL.       65088021
 008F04 5490 D4C4      0BA04       12034          N     R9,MK0932                                                65094021
 008F08 1889                       12035          LR    R8,R9                                                    65100021
 008F0A 4A8A 0004      00004       12036          AH    R8,DX4(R10)          R8 POINTS TO END OF TABLE.          65106021
 008F0E 1B44                       12037 WSE105   SR    R4,R4                                                    65112021
 008F10 4349 0000      00000       12038          IC    R4,DX0(R9)           R4= TRACK-AREA DATA-NAME COUNT      65118021
 008F14 D71F DDEC DDEC 0C32C 0C32C 12039          XC    LITBUF(LX32),LITBUF                                      65124021
 008F1A 4440 F6F6      09026       12040          EX    R4,TRKMOV           MOVE DATA-NAME TO WORK-AREA          65130021
 008F1E 4110 DDEA      0C32A       12041          LA    R1,LITBUF-NX2        R1= A(WORKAREA)                     65136021
 008F22 58F0 DC4C      0C18C       12042          L     R15,AQUAL                                                65142021
 008F26 05EF                       12043          BALR  R14,R15             CALL QUAL FOR DATA-NAME LGN          65148021
 008F28 59F0 D3F4      0B934       12044          C     R15,ZEROS            AND ATTRIBUTES                      65154021
 008F2C 58F0 DC44      0C184       12045          L     R15,AWSEND                                               65160021
 008F30 4780 F614      08F44       12046        BC    EQ,WSE106            QUAL FOUND NO ERRORS                  65166021
 008F34 94F0 DF33      0C473       12047          NI    WKAREA+NX35,XXF0                                         65172021
 008F38 9540 DF33      0C473       12048          CLI   WKAREA+NX35,XX40                                         65178021
 008F3C 4780 F6B4      08FE4       12049        BC    EQ,WS111A            VARIABLE LENGTH - ERROR               65184021
 008F40 47F0 F6BC      08FEC       12050        BC    UNCOND,WS111B         ERROR                                65190021
 008F44 5910 D470      0B9B0       12051 WSE106 C     R1,CON32K            IS AREA OVER 32767                    65196021
 008F48 4720 F6C4      08FF4       12052        BC    HI,WS111C              YES - ERROR                         65202021
 008F4C 940F DF32      0C472       12053          NI    WKAREA+NX34,XX0F                                         65208021
 008F50 9504 DF32      0C472       12054          CLI   WKAREA+NX34,XX04     IS AREA IN WORKING-STORAGE SECTI    65214021
 008F54 4770 F6CC      08FFC       12055        BC    NOTEQ,WS111D           NO - ERROR                          65220021
 008F58 1B33                       12056        SR    R3,R3                GET LEVEL                             65226021
 008F5A 4332 0006      00006       12057          IC    R3,DX6(R2)                                               65232021
 008F5E 8A30 0002      00002       12058          SRA   R3,DX2                                                   65238021
 008F62 5930 D3F8      0B938       12059        C     R3,ONE                                                     65244021
 008F66 4780 F642      08F72       12060        BC    EQ,WS106A            LEVEL 01 OK                           65250021
1PH20     IKFCBL20                                                                                              PAGE  281
-  LOC  OBJECT CODE    ADDR1 ADDR2  STMT   SOURCE STATEMENT                                       ASM 0201 11.03 02/14/15
0008F6A 5930 D450      0B990       12061        C     R3,FIFTY                                                   65256021
 008F6E 4770 F6CC      08FFC       12062        BC    NOTEQ,WS111D         LEVEL NEITHER 01 NOT 77 - ERROR       65262021
                             08F72 12063 WS106A EQU   *                                                          65268021
 008F72 4194 9001      00001       12064          LA    R9,DX1(R4,R9)        YES, SET UP CONDEF FOR AREA SIZE    65274021
                                   12065 *CONDEF                                                SMSW IN DCB      65280021
 008F76 9228 DDEC      0C32C       12066          MVI   LITBUF,XX28          CONDEF CODE                         65286021
 008F7A D202 DDED 9005 0C32D 00005 12067          MVC   LITBUF+NX1(LX3),DX5(R9) RELLOC OF SMSW                   65292021
 008F80 D202 DDF0 D3FD 0C330 0B93D 12068          MVC   LITBUF+NX4(LX3),TWO+NX1 TYPE CODE=0   LGN=2              65298021
 008F86 5010 D900      0BE40       12069          ST    R1,FULLWD                                                65304021
 008F8A D201 DDF3 D902 0C333 0BE42 12070          MVC   LITBUF+NX7(LX2),FULLWD+NX2 AREA SIZE                     65310021
 008F90 5830 D418      0B958       12071          L     R3,NINE                                                  65316021
 008F94 4560 F6E8      09018       12072          BAL   R6,WSE119           PUT OUT A-TEXT                       65322021
                                   12073 *ADCONDEF                                                               65328021
 008F98 922C DDEC      0C32C       12074          MVI   LITBUF,XX2C          ADCONDEF CODE                       65334021
 008F9C D202 DDED 9001 0C32D 00001 12075          MVC   LITBUF+NX1(LX3),DX1(R9) RELLOC OF MSWA                   65340021
                                   12076 *DETERMINE ADDRESS                                                      65346021
 008FA2 5810 DF34      0C474       12077          L     R1,WKAREA+NX36       AREA'S ADDRESSING PARAMETERS        65352021
 008FA6 1B22                       12078          SR    R2,R2                                                    65358021
 008FA8 4320 DF37      0C477       12079          IC    R2,WKAREA+NX39       BL = FOR AREA                       65364021
 008FAC 1B33                       12080          SR    R3,R3                                                    65370021
 008FAE 4330 DDE4      0C324       12081          IC    R3,WS+NX4            1ST BL FOR WORK-STOR.               65376021
 008FB2 1B23                       12082          SR    R2,R3               NUMBER OF BL'S                       65382021
 008FB4 4C20 D47A      0B9BA       12083          MH    R2,CO4096+NX2        MULTIPLY BY 4096                    65388021
 008FB8 8810 0008      00008       12084 WSE107   SRL   R1,DX8               FIND DISP. FROM BL                  65394021
 008FBC 5410 D4E4      0BA24       12085          N     R1,MK2132                                                65400021
 008FC0 1A21                       12086          AR    R2,R1               REL LOC OF AREA =                    65406021
 008FC2 5A20 DDE0      0C320       12087          A     R2,WS                A(WORK. STOR.) + NO. OF BL'S *4     65412021
 008FC6 5020 DDF0      0C330       12088          ST    R2,LITBUF+NX4                        + DISP. FROM BL     65418021
 008FCA 9204 DDF0      0C330       12089          MVI   LITBUF+NX4,XX04      ADCON LGN                           65424021
 008FCE 4130 0008      00008       12090          LA    R3,DX8                                                   65430021
 008FD2 4560 F6E8      09018       12091          BAL   R6,WSE119           PUT OUT A-TEXT                       65436021
 008FD6 4199 000A      0000A       12092 WSE108   LA    R9,DX10(R9)          R9= A(NEXT ENTRY IN TABLE)          65442021
 008FDA 1998                       12093 WSE109   CR    R9,R8               END OF TABLE                         65448021
 008FDC 4740 F5DE      08F0E       12094          BC    LO,WSE105           NO                                   65454021
 008FE0 47F0 F6FC      0902C       12095          BC    UNCOND,WSE120       YES                                  65460021
 008FE4 4100 00B1      000B1       12096 WS111A LA    R0,X'B1'                                                   65466021
 008FE8 47F0 F6D0      09000       12097        BC    UNCOND,WSE111         CONTINUE                             65472021
 008FEC 4100 0033      00033       12098 WS111B LA   R0,X'33'                                                    65478021
 008FF0 47F0 F6D0      09000       12099        BC    UNCOND,WSE111         CONTINUE                             65484021
 008FF4 4100 00B0      000B0       12100 WS111C LA    R0,X'B0'                                                   65490021
 008FF8 47F0 F6D0      09000       12101        BC    UNCOND,WSE111         CONTINUE                             65496021
 008FFC 4100 0099      00099       12102 WS111D LA   R0,X'99'                                                    65502021
 009000 4194 9001      00001       12103 WSE111   LA    R9,DX1(R4,R9)        ERROR                               65508021
 009004 D201 D5C7 9008 0BB07 00008 12104          MVC   CARDNO(LX2),DX8(R9)                                      65514021
 00900A 5600 D47C      0B9BC       12105        O     R0,M8192             SEVERITY IS 2                         65520021
 00900E 4560 F8BC      091EC       12106          BAL   R6,WSERR+NX4        ERROR                                65526021
 009012 0700                       12107          BCR   M0,R0               2 BYTES NEEDED FOR CALLING SEQ       65532021
 009014 47F0 F6A6      08FD6       12108          BC    UNCOND,WSE108       GET NEXT ENTRY                       65538021
 009018 5810 DB84      0C0C4       12109 WSE119   L     R1,COSADR           PUT OUT A-TEXT                       65544021
 00901C 4120 DDEC      0C32C       12110          LA    R2,LITBUF             ON FILE 4                          65550021
 009020 0501                       12111          BALR  R0,R1               BR TO COMMON                         65556021
 009022 14                         12112          DC    X'14'                                                    65562021
 009023 00
 009024 07F6                       12113          BCR   UNCOND,R6           CONTINUE                             65568021
 009026 D200 DDEC 9000 0C32C 00000 12114 TRKMOV   MVC   LITBUF(LX0),DX0(R9)                                      65574021
1PH20     IKFCBL20                                                                                              PAGE  282
-  LOC  OBJECT CODE    ADDR1 ADDR2  STMT   SOURCE STATEMENT                                       ASM 0201 11.03 02/14/15
0                                  12115 *                                                                       65580021
 00902C 5810 DB0C      0C04C       12116 WSE120   L     R1,TPARAM           RELEASE TABLE.                       65586021
 009030 58F0 DCF0      0C230       12117          L     R15,BTABRL                                               65592021
 009034 05EF                       12118          BALR  R14,R15             RELEASE TABLE                        65598021
 009036 94DF D5A3      0BAE3       12119          NI    PTBLSW,XXDF                                              65604021
 00903A 58F0 DC44      0C184       12120          L     R15,AWSEND                                               65610021
 00903E 47F0 F712      09042       12121          BC    UNCOND,WSE130       CONTINUE                             65616021
                                   12122 *                                                                       65622021
                                   12123 *                                                                       65628021
 009042 9180 D5A6      0BAE6       12124 WSE130   TM    PRMSW,XX80          ANY TOTALING AREA ENTRY.             65634021
 009046 4780 F8A8      091D8       12125          BZ    WSE150             NO. GET OUT.                          65640021
 00904A 5890 DB44      0C084       12126          L     R9,TOTLPAR         YES. PROCESS.                         65646021
 00904E 58A9 0000      00000       12127          L     R10,DX0(R9)                                              65652021
 009052 589A 0000      00000       12128          L     R9,DX0(R10)         R9=A(TOTL TBL)                       65658021
 009056 5490 D4C4      0BA04       12129          N     R9,MK0932                                                65664021
 00905A 1889                       12130          LR    R8,R9                                                    65670021
 00905C 4A8A 0004      00004       12131          AH    R8,DX4(R10)         R8 POINTS TO END OF TABLE            65676021
 009060 1819                       12132 WSE130A  LR    R1,R9                                                    65682021
 009062 58F0 DC4C      0C18C       12133          L     R15,AQUAL          SEARCH TOTL-AREA DN IN DICT.          65688021
 009066 05EF                       12134          BALR  R14,R15             BRANCH                               65694021
 009068 12EF                       12135          LTR   R14,R15                                                  65700021
 00906A 58F0 DC44      0C184       12136          L     R15,AWSEND                                               65706021
 00906E 4780 F760      09090       12137          BZ    WSE131             DN FOUND                              65712021
 009072 D201 D900 9000 0BE40 00000 12138          MVC   FULLWD(LX2),DX0(R9)  DN NOT FOUND. DN-QUAL COUNT.        65718021
 009078 4A90 D900      0BE40       12139          AH    R9,FULLWD                                                65724021
 00907C D201 D5C7 9006 0BB07 00006 12140          MVC   CARDNO(LX2),DX6(R9)  MOVE CARD NO.                       65730021
 009082 4560 F8B8      091E8       12141          BAL   R6,WSERR           TOTL-AREA D-N NOT FOUND.              65736021
 009086 20E2                       12142          DC    X'20E2'                      MSG. NO. 226     2,7-RJ     65742021
 009088 4199 0008      00008       12143          LA    R9,DX8(R9)          R9 POINTS TO NEXT ENTRY              65748021
 00908C 47F0 F888      091B8       12144          B     WSE135             CHECK IF THERE ARE MORE ENTRIES.      65754021
 009090 940F DF32      0C472       12145 WSE131   NI    WKAREA+NX34,XX0F                                         65760021
 009094 9504 DF32      0C472       12146          CLI   WKAREA+NX34,XX04    WORKING-S-S? (MAJOR CODE 4)          65766021
 009098 4780 F78A      090BA       12147          BE    WSE132             YES - OK.                             65772021
 00909C D201 D900 9000 0BE40 00000 12148          MVC   FULLWD(LX2),DX0(R9)                                      65778021
 0090A2 4A90 D900      0BE40       12149          AH    R9,FULLWD                                                65784021
 0090A6 D201 D5C7 9006 0BB07 00006 12150          MVC   CARDNO(LX2),DX6(R9)  MOVE CARD NO.                       65790021
 0090AC 4560 F8B8      091E8       12151          BAL   R6,WSERR           TOTALING AREA DN NOT DEFINED IN       65796021
 0090B0 20E3                       12152          DC    X'20E3'                  WK-S-S    MSG. NO. 227          65802021
 0090B2 4199 0008      00008       12153          LA    R9,DX8(R9)          R9 POINTS TO NEXT ENTRY              65808021
 0090B6 47F0 F888      091B8       12154          B     WSE135              CHECK FOR END OF TABLE               65814021
 0090BA 94F0 DF33      0C473       12155 WSE132   NI    WKAREA+NX35,XXF0    TOTALING AREA                        65820021
 0090BE 9540 DF33      0C473       12156          CLI   WKAREA+NX35,XX40    VARIABLE LENGTH?                     65826021
 0090C2 4780 F874      091A4       12157          BE    WSE132E1           YES, ERROR.                           65832021
 0090C6 5910 D478      0B9B8       12158          C     R1,CO4096          NO. OK.  LESS THAN 4096?              65838021
 0090CA 4720 F87E      091AE       12159          BH    WSE132E2                    YES, ERROR.                  65844021
 0090CE 5010 DF38      0C478       12160          ST    R1,MTEMP           MTEMP = SIZE OF TOTALING AREA.        65850021
 0090D2 5810 DF34      0C474       12161          L     R1,WKAREA+NX36      AREA'S ADPAR                         65856021
 0090D6 1B22                       12162          SR    R2,R2                                                    65862021
 0090D8 4320 DF37      0C477       12163          IC    R2,WKAREA+NX39      BL#                                  65868021
 0090DC 1B33                       12164          SR    R3,R3                                                    65874021
 0090DE 4330 DDE4      0C324       12165          IC    R3,WS+NX4           1ST BL FOR WS                        65880021
 0090E2 1B23                       12166          SR    R2,R3                                                    65886021
 0090E4 4C20 D47A      0B9BA       12167          MH    R2,CO4096+NX2                                            65892021
 0090E8 8810 0008      00008       12168          SRL   R1,DX8                                                   65898021
 0090EC 5410 D4E4      0BA24       12169          N     R1,MK2132                                                65904021
1PH20     IKFCBL20                                                                                              PAGE  283
-  LOC  OBJECT CODE    ADDR1 ADDR2  STMT   SOURCE STATEMENT                                       ASM 0201 11.03 02/14/15
00090F0 1A21                       12170          AR    R2,R1              REL LOC OF AREA                       65910021
 0090F2 5A20 DDE0      0C320       12171          A     R2,WS              = A(WS)+NO OF BL'S*4096+DISP          65916021
 0090F6 5020 DDEC      0C32C       12172          ST    R2,LITBUF          TARGET ADR.                           65922021
 0090FA 9228 DDEC      0C32C       12173          MVI   LITBUF,XX28                                              65928021
 0090FE D202 DDF0 D3FD 0C330 0B93D 12174          MVC   LITBUF+NX4(LX3),TWO+NX1 SIZE = 2                         65934021
 009104 D201 DDF3 DF3A 0C333 0C47A 12175          MVC   LITBUF+NX7(LX2),MTEMP+NX2                                65940021
 00910A 181B                       12176          LR    R1,RCOM                                                  65946021
 00910C 4120 DDEC      0C32C       12177          LA    R2,LITBUF                                                65952021
 009110 4130 0009      00009       12178          LA    R3,DX9                                                   65958021
 009114 0501                       12179          BALR  R0,R1               BR TO COMMON                         65964021
 009116 14                         12180          DC    X'14'                                                    65970021
 009117 00
 009118 922C DDEC      0C32C       12181          MVI   LITBUF,XX2C                                              65976021
 00911C D201 D900 9000 0BE40 00000 12182          MVC   FULLWD(LX2),DX0(R9)                                      65982021
 009122 4820 D900      0BE40       12183          LH    R2,FULLWD                                                65988021
 009126 1A92                       12184          AR    R9,R2                                                    65994021
 009128 D203 D900 9002 0BE40 00002 12185          MVC   FULLWD(LX4),DX2(R9) REL LOC OF DCB IN FULLWD             66000021
 00912E 5820 D900      0BE40       12186          L     R2,FULLWD                                                66006021
 009132 4130 001B      0001B       12187          LA    R3,DX27                                                  66012021
 009136 1B23                       12188          SR    R2,R3              R2=REL LOC DCB - 20                   66018021
 009138 5020 DDEC      0C32C       12189          ST    R2,LITBUF          REL LOC OF A(TTL AREA)=DCB-20         66024021
 00913C 0620                       12190          BCTR  R2,R0               DECREMENT REG 2                      66030021
 00913E D707 DD38 DD38 0C278 0C278 12191          XC    TTLDC0A(LX8),TTLDC0A                                     66036021
 009144 5020 DD38      0C278       12192          ST    R2,TTLDC0A         TARGET = DCB-20                       66042021
 009148 922C DDEC      0C32C       12193          MVI   LITBUF,XX2C         ADCONDEF CODE                        66048021
 00914C 5810 DF34      0C474       12194          L     R1,WKAREA+NX36      AREA'S ADDRESSING PARAMETERS         66054021
 009150 1B22                       12195          SR    R2,R2                                                    66060021
 009152 4320 DF37      0C477       12196          IC    R2,WKAREA+NX39      BL NO FOR AREA                       66066021
 009156 1B33                       12197          SR    R3,R3                                                    66072021
 009158 4330 DDE4      0C324       12198          IC    R3,WS+NX4           1ST BL FOR WORK-STOR.                66078021
 00915C 1B23                       12199          SR    R2,R3              NUMBER OF BL'S                        66084021
 00915E 4C20 D47A      0B9BA       12200          MH    R2,CO4096+NX2       MULTIPLY BY 4096                     66090021
 009162 8810 0008      00008       12201          SRL   R1,DX8              FIND DISP. FROM BL.                  66096021
 009166 5410 D4E4      0BA24       12202          N     R1,MK2132                                                66102021
 00916A 1A21                       12203          AR    R2,R1              REL LOC OF AREA                       66108021
 00916C 5A20 DDE0      0C320       12204          A     R2,WS              =A(W-S)+NO OF BLS*4096                66114021
 009170 5020 DDF0      0C330       12205          ST    R2,LITBUF+NX4       +DISP. FROM BL                       66120021
 009174 9203 DDF0      0C330       12206          MVI   LITBUF+NX4,XX03     AL3                                  66126021
 009178 4130 0008      00008       12207          LA    R3,DX8              PUT OUT 8 BYTE ADCONDEF.             66132021
                                   12208 *                     PREPARE TO SET EXLIST CODE TO 0A.                 66138021
 00917C 9228 DD38      0C278       12209          MVI   TTLDC0A,XX28        CONDEF CODE                          66144021
 009180 9201 DD3E      0C27E       12210          MVI   TTLDCSZ+NX1,XX01    SIZE = 1                             66150021
 009184 920A DD3F      0C27F       12211          MVI   TTLVALU,XX0A                                             66156021
                                   12212 *                                                                       66162021
 009188 4560 F6E8      09018       12213          BAL   R6,WSE119          PUT OUT ADCONDEF                      66168021
 00918C 5810 DB84      0C0C4       12214          L     R1,COSADR                                                66174021
 009190 4120 DD38      0C278       12215          LA    R2,TTLDC0A                                               66180021
 009194 4130 0008      00008       12216          LA    R3,DX8                                                   66186021
 009198 0501                       12217          BALR  R0,R1              PUT OUT CONDEF FOR X'0A'              66192021
 00919A 14                         12218          DC    X'14'              FOR EXIT LIST CODE.                   66198021
 00919B 00
 00919C 4199 0008      00008       12219          LA    R9,DX8(R9)          R9 POINTS TO NEXT ENTRY              66204021
 0091A0 47F0 F888      091B8       12220          B     WSE135              CHECK FOR END OF TABLE               66210021
 0091A4 4560 F8B8      091E8       12221 WSE132E1 BAL   R6,WSERR            CALL ERR RTN                         66216021
 0091A8 206F                       12222          DC    X'206F'            TOTALING AREA SIZE                    66222021
1PH20     IKFCBL20                                                                                              PAGE  284
-  LOC  OBJECT CODE    ADDR1 ADDR2  STMT   SOURCE STATEMENT                                       ASM 0201 11.03 02/14/15
0                                  12223 *                                  VARIABLE.                            66228021
 0091AA 47F0 F888      091B8       12224          B     WSE135              SEE IF END OF TABLE                  66234021
 0091AE 4560 F8B8      091E8       12225 WSE132E2 BAL   R6,WSERR            CALL ERR RTN                         66240021
 0091B2 1057                       12226          DC    X'1057'            TOTALING AREA SIZE                    66246021
                                   12227 *                                 GREATER THAN 4095.                    66252021
 0091B4 47F0 F888      091B8       12228          B     WSE135              SEE IF END OF TABLE                  66258021
 0091B8 1989                       12229 WSE135   CR    R8,R9              END OF TABLE                          66264021
 0091BA 47D0 F892      091C2       12230          BNH   WSE139             YES                                   66270021
 0091BE 47F0 F730      09060       12231          B     WSE130A            NO                                    66276021
 0091C2 5810 DB44      0C084       12232 WSE139   L     R1,TOTLPAR         RELEASE TABL.                         66282021
 0091C6 58F0 DCF0      0C230       12233          L     R15,BTABRL                                               66288021
 0091CA 05EF                       12234          BALR  R14,R15             BRANCH TO RELEASE TBL                66294021
 0091CC 94EF D5A6      0BAE6       12235          NI    PRMSW,XXEF          SET TOTL TBL SW OFF                  66300021
 0091D0 58F0 DC44      0C184       12236          L     R15,AWSEND                                               66306021
 0091D4 47F0 F8A8      091D8       12237          B     WSE150              CONTINUE                             66312021
 0091D8 980C D9D8      0BF18       12238 WSE150   LM    R0,R12,BSAVE                                             66318021
 0091DC D201 D5C7 D67E 0BB07 0BBBE 12239          MVC   CARDNO(LX2),CARDXX   RESTORE CURRENT CARD NO.            66324021
 0091E2 58E0 D9D4      0BF14       12240          L     R14,RETURN                                               66330021
 0091E6 07FE                       12241          BCR   UNCOND,R14          RETURN                               66336021
                                   12242 *                                                                       66342021
 0091E8 4806 0000      00000       12243 WSERR    LH    R0,DX0(R6)           CALL ERROR ROUTINE                  66348021
 0091EC 58F0 DBC0      0C100       12244          L     R15,AERRTN                                               66354021
 0091F0 05EF                       12245          BALR  R14,R15             BR TO ERR RTN                        66360021
 0091F2 58F0 DC44      0C184       12246          L     R15,AWSEND                                               66366021
 0091F6 4166 0002      00002       12247          LA    R6,DX2(R6)                                               66372021
 0091FA 07F6                       12248          BCR   UNCOND,R6           RETURN                               66378021
 0091FC D200 DF10 9000 0C450 00000 12249 WSE999   MVC   WKAREA(LX0),DX0(R9)                                      66384021
                                   12250 *=2      FST000- FD SD SA DICTIONARY ACTION RTN                         66390021
1PH20     IKFCBL20                                                                                              PAGE  285
-  LOC  OBJECT CODE    ADDR1 ADDR2  STMT   SOURCE STATEMENT                                       ASM 0201 11.03 02/14/15
0009208                            12252 IKF213A  CSECT                                                          66402021
                             09208 12253          USING *,R15                                                    66408021
 009208 50E0 D9CC      0BF0C       12254 FST000   ST    R14,RS14A                                                66414021
 00920C D200 D989 D688 0BEC9 0BBC8 12255          MVC   SWKAR(LX1),CILEV          SAVE CUR LEVEL                 66420021
 009212 58A0 D89C      0BDDC       12256          L     R10,BUFCAS+NX20                                          66426021
 009216 9180 D5AA      0BAEA       12257          TM    FSTSW,XX80           IS THIS 1ST FD, SD, SA              66432021
 00921A 4780 F280      09488       12258          BC    ZERO,FST080         YES, BRANCH                          66438021
 00921E                            12259 FST001 DS    0H                                                         66444021
 00921E D200 D989 D688 0BEC9 0BBC8 12260          MVC   SWKAR(LX1),CILEV          SAVE CUR LEVEL                 66450021
 009224 9201 D5B8      0BAF8       12261          MVI   NXCISW,XX01          INDICATE NEXT FD IN CI FOR ADP04    66456021
 009228 9201 D688      0BBC8       12262          MVI   CILEV,XX01           SET LEVEL=1 SO THAT                 66462021
 00922C 58F0 DC28      0C168       12263          L     R15,AXTEN            XTEN CAN RESOLVE THE LGN            66468021
 009230 05EF                       12264          BALR  R14,R15              OF THE LAST 01 IN THE FD            66474021
 009232 58F0 DC54      0C194       12265          L     R15,AFST00          MAXIM WILL HAVE THE 01 LGN(LARGE     66480021
 009236 D200 D5A8 D5A9 0BAE8 0BAE9 12266          MVC   FDDCBNO(LX1),PRDCBNO     MVE PRESENT DCB NO TO     45078 66486021
                                   12267 *   DCB NO ASSOCIATED WITH THE RECORD                             45078 66492021
 00923C 9200 D5B8      0BAF8       12268          MVI   NXCISW,XX00                                              66498021
 009240 D201 D67E D5C7 0BBBE 0BB07 12269          MVC   CARDXX(LX2),CARDNO   SAVE CURRENT CARD NO. AND SUBSTI    66504021
 009246 D201 D5C7 D8A4 0BB07 0BDE4 12270          MVC   CARDNO(LX2),BUFCRD   FD, SD, SA CARD NO.                 66510021
 00924C 9502 D5A0      0BAE0       12271          CLI   ODOCCT,XX02          DID LAST 01 HAVE MORE THAN 1 OCC    66516021
                                   12272 *                                  DEPENDING ON CLAUSE SUBORDINATE      66522021
 009250 4740 F050      09258       12273          BC    LO,FST002           NO, BRANCH                           66528021
 009254 9601 D59F      0BADF       12274          OI    OD2SW,XX01           YES, SET SW FOR RECORD CONT. PRO    66534021
 009258 9200 D5A0      0BAE0       12275 FST002   MVI   ODOCCT,XX00          SET CTR TO 0                        66540021
 00925C 4310 D7A0      0BCE0       12276          IC    R1,PCOUNT           NO, WHAT TYPE IS IT (FROM MAJOR      66546021
 009260 5410 D4C8      0BA08       12277          N     R1,MK3032                 OF PREVIOUS ITEM)              66552021
 009264 5910 D3F8      0B938       12278          C     R1,ONE              IS IT SD                             66558021
 009268 4780 F188      09390       12279          BE    FST030              YES                                  66564021
 00926C 5910 D40C      0B94C       12280          C     R1,SIX         8    NO. IS IT RD                         66570021
 009270 4780 F27C      09484       12281          BE    FST070              YES                                  66576021
                                   12282 *FD                                IT IS FD                             66582021
 009274 9538 D989      0BEC9       12283 FST004   CLI   SWKAR,XX38           IS CI AN FD                         66588021
 009278 4770 F07E      09286       12284          BC    NOTEQ,FST005          NO - PROCESS LAST FD               66594021
 00927C 58F0 DBCC      0C10C       12285          L     R15,ADIC62          YES - RECALCULATE NO. OF BL'S        66600021
 009280 05EF                       12286          BALR  R14,R15             BRANCH                               66606021
 009282 58F0 DC54      0C194       12287          L     R15,AFST00                                               66612021
 009286 9701 DF49      0C489       12288 FST005   XI    FD+NX1,XX01                                              66618021
 00928A D600 DF49 DEDB 0C489 0C41B 12289          OC    FD+NX1(LX1),FDBLN                                        66624021
 009290 4540 F3F0      095F8       12290          BAL   R4,FST990           GET FD'S  ATTRIBUTES ADDRESS (DI     66630021
 009294 9108 D893      0BDD3       12291          TM    BUFOPT,XX08                                              66636021
 009298 4780 F0BA      092C2       12292          BZ    FST05A              PROCESS FD                           66642021
 00929C 5830 DACC      0C00C       12293          L     R3,REORGPAR                                              66648021
 0092A0 5843 0000      00000       12294          L     R4,DX0(R3)                                               66654021
 0092A4 5834 0000      00000       12295          L     R3,DX0(R4)                                               66660021
 0092A8 5840 D914      0BE54       12296          L     R4,REORGPS                                               66666021
 0092AC 5440 D4C4      0BA04       12297          N     R4,MK0932                                                66672021
 0092B0 1A34                       12298          AR    R3,R4                                                    66678021
 0092B2 D201 D900 3000 0BE40 00000 12299          MVC   FULLWD(LX2),DX0(R3)                                      66684021
 0092B8 4A30 D900      0BE40       12300          AH    R3,FULLWD                                                66690021
 0092BC D202 3002 DF69 00002 0C4A9 12301          MVC   DX2(LX3,R3),LASTDP+NX1 MOVE FD DICT PTR INTO TBL.        66696021
 0092C2 9501 DEDE      0C41E       12302 FST05A   CLI   COD01,XX01          01 IN FD                             66702021
 0092C6 4780 F0D4      092DC       12303        BC    EQ,FST5A                    YES                            66708021
 0092CA 9201 DF49      0C489       12304          MVI   FD+NX1,XX01                                              66714021
                                   12305 *           ERROR--NO 01 IN FD                                          66720021
 0092CE 4800 F186      0938E       12306        LH    R0,ERR183                                                  66726021
1PH20     IKFCBL20                                                                                              PAGE  286
-  LOC  OBJECT CODE    ADDR1 ADDR2  STMT   SOURCE STATEMENT                                       ASM 0201 11.03 02/14/15
00092D2 58F0 DBC0      0C100       12307        L     R15,AERRTN                                                 66732021
 0092D6 05EF                       12308        BALR  R14,R15               ERROR RTN                            66738021
 0092D8 58F0 DC54      0C194       12309        L     R15,AFST00                                                 66744021
 0092DC                            12310 FST5A  DS    0H                                                         66750021
 0092DC 9200 DEDE      0C41E       12311          MVI   COD01,XX00                 RESET 01 IN FD                66756021
 0092E0 9701 2001      00001       12312          XI    DX1(R2),XX01                                             66762021
 0092E4 D601 2001 DF49 00001 0C489 12313          OC    DX1(LX2,R2),FD+NX1                                       66768021
 0092EA 58F0 DCA0      0C1E0       12314        L     R15,ACHKEY           CHECK KEYS                            66774021
 0092EE 05EF                       12315        BALR  R14,R15               BRANCH                               66780021
 0092F0 58F0 DC54      0C194       12316        L     R15,AFST00                                                 66786021
 0092F4 58A0 D89C      0BDDC       12317          L     R10,BUFCAS+NX20                                          66792021
 0092F8 4540 F40A      09612       12318          BAL   R4,RECCON           CHECK RECORD CONTAINS CLAUSE         66798021
 0092FC 9102 D893      0BDD3       12319          TM    BUFOPT,XX02                                              66804021
 009300 4780 F102      0930A       12320          BZ    *+10                SKIP NEXT INSTRUCTION                66810021
 009304 D703 DEB4 DEB4 0C3F4 0C3F4 12321          XC    MINIM(LX4),MINIM                                         66816021
 00930A 4540 F3F0      095F8       12322          BAL   R4,FST990           GET FD,SD,SA ATTRIB                  66822021
 00930E D201 2006 DEB2 00006 0C3F2 12323          MVC   DX6(LX2,R2),MAXIM+NX2                                    66828021
 009314 4840 D890      0BDD0       12324          LH    R4,BKCON2                                                66834021
 009318 1244                       12325          LTR   R4,R4                                                    66840021
 00931A 4770 F11C      09324       12326          BNZ   CALLMODE            CONTINUE                             66846021
 00931E D201 D890 D88A 0BDD0 0BDCA 12327          MVC   BKCON2(LX2),BKCON1                                       66852021
 009324 4540 F47A      09682       12328 CALLMODE BAL   R4,MODE00          DECIDE RECORDING MODE                 66858021
 009328 45E0 F73A      09942       12329 FST012   BAL   R14,BKSIZE          CALL BKSIZE TO DETERMINE BUFFER      66864021
                                   12330 *                                   NEEDS AND TO FILL IN DCB AND DE     66870021
                                   12331 *                                   FIELDS REQUIRED FOR BUFFERS         66876021
 00932C 5830 D894      0BDD4       12332          L     R3,LOCDCB                                                66882021
 009330 4133 0024      00024       12333          LA    R3,DX36(R3)         RECFM=DCB+36                         66888021
 009334 5030 DD1C      0C25C       12334          ST    R3,FMCNST                                                66894021
 009338 9228 DD1C      0C25C       12335          MVI   FMCNST,XX28                                              66900021
 00933C 5810 DB84      0C0C4       12336          L    R1,COSADR                                                 66906021
 009340 4120 DD1C      0C25C       12337          LA    R2,FMCNST                                                66912021
 009344 4130 0008      00008       12338          LA    R3,DX8                                                   66918021
 009348 0501                       12339          BALR  R0,R1              PUT OUT CONSTANT DEF                  66924021
 00934A 14                         12340          DC    X'14'                                                    66930021
 00934B 00
 00934C 5830 D894      0BDD4       12341           L     R3,LOCDCB                                               66936021
 009350 4B30 D3FE      0B93E       12342          SH    R3,TWO+NX2                                               66942021
 009354 5030 DDEC      0C32C       12343          ST    R3,LITBUF                                                66948021
 009358 9228 DDEC      0C32C       12344          MVI   LITBUF,XX28                                              66954021
 00935C D203 DDF0 D3FD 0C330 0B93D 12345          MVC   LITBUF+NX4,TWO+NX1  TYPE=00, SIZE=2                      66960021
 009362 D201 DDF3 DEAE 0C333 0C3EE 12346          MVC   LITBUF+NX7(LX2),LBLMAX+NX2                               66966021
 009368 5830 D418      0B958       12347          L     R3,NINE                                                  66972021
 00936C 4120 DDEC      0C32C       12348          LA    R2,LITBUF                                                66978021
 009370 5810 DB84      0C0C4       12349          L     R1,COSADR                                                66984021
 009374 0501                       12350          BALR  R0,R1               BR TO COMMON                         66990021
 009376 14                         12351          DC    X'14'                                                    66996021
 009377 00
 009378 D703 DEAC DEAC 0C3EC 0C3EC 12352          XC    LBLMAX(LX4),LBLMAX                                       67002021
 00937E 9180 D8A0      0BDE0       12353          TM    ACCMTH,XX80                                 A3           67008021
 009382 4710 F280      09488       12354          BO    FST080             INITIALIZE ACCESS WORK AREAS.         67014021
 009386 9701 A013      00013       12355          XI    DX19(R10),XX01                                           67020021
 00938A 47F0 F280      09488       12356 FST020   BC    UNCOND,FST080       PROCESS RD                           67026021
                                   12357 *                                                                       67032021
 00938E 00B7                       12358 ERR183 DC    X'00B7'                                                    67038021
                                   12359 *                                                                       67044021
1PH20     IKFCBL20                                                                                              PAGE  287
-  LOC  OBJECT CODE    ADDR1 ADDR2  STMT   SOURCE STATEMENT                                       ASM 0201 11.03 02/14/15
0                                  12360 *SD                                                                     67050021
 009390 4540 F40A      09612       12361 FST030   BAL   R4,RECCON          CHECK RECORD CONTAINS CLAUSE          67056021
 009394 4540 F3F0      095F8       12362          BAL   R4,FST990          GET FD'S ATTRIB ADDRESS               67062021
 009398 9501 DEDE      0C41E       12363          CLI   COD01,XX01           01 IN SD                            67068021
 00939C 4780 F1A6      093AE       12364          BE    FST30A              YES                                  67074021
 0093A0 4800 F186      0938E       12365          LH    R0,ERR183                                                67080021
 0093A4 58F0 DBC0      0C100       12366          L     R15,AERRTN                                               67086021
 0093A8 05EF                       12367          BALR  R14,R15                                                  67092021
 0093AA 58F0 DC54      0C194       12368          L     R15,AFST00                                               67098021
                             093AE 12369 FST30A   EQU   *                                                        67104021
 0093AE 9500 D469      0B9A9       12370          CLI   PSRANO,XX00         PREVIOUS SD SRA NO. INDICATED ?      67110021
 0093B2 4780 F1EC      093F4       12371          BE    FST30B              NO,  BRANCH                          67116021
 0093B6 5020 D46C      0B9AC       12372          ST    R2,SREG2            SAVE DICTIONARY POINTER              67122021
 0093BA 58F0 DBCC      0C10C       12373          L     R15,ADIC62          LOAD ADDR. OF CALCULATING BL'S       67128021
 0093BE 05EF                       12374          BALR  R14,R15             PERFORM ABOVE RTN                    67134021
 0093C0 5820 D46C      0B9AC       12375          L     R2,SREG2            RESTORE DICTIONARY POINTER           67140021
 0093C4 58F0 DC54      0C194       12376          L     R15,AFST00          RESTORE BASE REGISTER                67146021
                                   12377 ***                                                                     67152021
                                   12378 * IF END OF FILE SECTION AND SD,  NO. OF BL HAVE TO BE ADJUSTED         67158021
                                   12379 ***                                                                     67164021
 0093C8 9120 D5AA      0BAEA       12380          TM    FSTSW,XX20          IS END OF FILE SECTION               67170021
 0093CC 4780 F1D4      093DC       12381          BZ    FST30A1             NO,  BRANCH                          67176021
 0093D0 1B44                       12382          SR    R4,R4               CLEAR REG 4                          67182021
 0093D2 4340 DEDB      0C41B       12383          IC    R4,FDBLN            INSERT NO. OF BL                     67188021
 0093D6 0640                       12384          BCTR  R4,R0               DECREAMENT ONE                       67194021
 0093D8 4240 DEDB      0C41B       12385          STC   R4,FDBLN                                                 67200021
 0093DC                            12386 FST30A1  DS    0H                                                       67206021
 0093DC D200 2002 DF4A 00002 0C48A 12387          MVC   DX2(LX1,R2),FD+NX2  INSERT FIRST BL NO                   67212021
 0093E2 D100 2001 DEDB 00001 0C41B 12388          MVN   DX1(LX1,R2),FDBLN   INSERT NO OF BL,S                    67218021
 0093E8 9689 2000      00000       12389          OI    DX0(R2),XX89        SET SD SRA & SD BITS IN DICT.        67224021
 0093EC 9680 2007      00007       12390          OI    DX7(R2),XX80             INDICATOR TO PH5-SD, SRA  39847 67230021
 0093F0 47F0 F1F8      09400       12391          B     FST30C              GO TO PROCESS SRA TABLE ENTRIES      67236021
 0093F4                            12392 FST30B   DS    0H                                                       67242021
 0093F4 D200 2002 DEDA 00002 0C41A 12393          MVC   DX2(LX1,R2),SDBLL                                        67248021
 0093FA D100 2001 DEDC 00001 0C41C 12394          MVN   DX1(LX1,R2),SDBLN                                        67254021
 009400                            12395 FST30C   DS    0H                                                       67260021
 009400 D201 2003 DEB2 00003 0C3F2 12396          MVC   DX3(LX2,R2),MAXIM+NX2 MAX RCD SIZE                       67266021
 009406 D201 2005 DEB6 00005 0C3F6 12397          MVC   DX5(LX2,R2),MINIM+NX2 MIN RCD SIZE                       67272021
 00940C 9102 D892      0BDD2       12398          TM    RCDFM,XX02                                               67278021
 009410 4780 F21E      09426       12399          BZ    FST031              CONTINUE                             67284021
 009414 4100 008C      0008C       12400          LA    R0,DX140                                                 67290021
 009418 58F0 DBC0      0C100       12401          L     R15,AERRTN                                               67296021
 00941C 05EF                       12402          BALR  R14,R15             BR TO ERROR RTN                      67302021
 00941E 58F0 DC54      0C194       12403          L     R15,AFST00                                               67308021
 009422 94FD D892      0BDD2       12404          NI    RCDFM,XXFD                                               67314021
 009426 4540 F47A      09682       12405 FST031   BAL   R4,MODE00           GET RECORDING MODE                   67320021
 00942A 58F0 DC54      0C194       12406          L     R15,AFST00          RESOTRE BASE REGISTER                67326021
                                   12407 *****                                                                   67332021
                                   12408 *                                                                       67338021
                                   12409 *   MAKES ENTRIES INTO SAME RECORD AREA TABLE FOR SD                    67344021
                                   12410 *                                                                       67350021
                                   12411 *****                                                                   67356021
 00942E 9500 D469      0B9A9       12412          CLI   PSRANO,XX00         SAME REC AREA INDICATED ?            67362021
 009432 4780 F280      09488       12413          BE    FST080              DO NOT PROCESS SRA TBL ENTRIES       67368021
 009436 D201 D952 DEB2 0BE92 0C3F2 12414          MVC   SMRCDRS+NX4(LX2),MAXIM+NX2   FD MAX                      67374021
1PH20     IKFCBL20                                                                                              PAGE  288
-  LOC  OBJECT CODE    ADDR1 ADDR2  STMT   SOURCE STATEMENT                                       ASM 0201 11.03 02/14/15
000943C D200 D954 DF4A 0BE94 0C48A 12415          MVC   SMRCDRS+NX6(LX1),FD+NX2  INSERT FIRST BL NO              67380021
 009442 9601 D955      0BE95       12416          OI    SMRCDRS+DX7,XX01    INDICATES SD SAME REC AREA           67386021
 009446 9108 D892      0BDD2       12417          TM    BUFCAS+DX10,XX08    FIXED RECORD FORMAT ?                67392021
 00944A 4710 F24A      09452       12418          BO    SKIPVF              DO NOT SET V BIT                     67398021
 00944E 9680 D956      0BE96       12419          OI    SMRCDRS+NX8,XX80    INDICATES V REC FORMAT               67404021
 009452                            12420 SKIPVF   DS    0H                                                       67410021
 009452 9120 D5A6      0BAE6       12421          TM    PRMSW,XX20          SMRDTBL TIB5 PRIMED ?                67416021
 009456 4710 F260      09468       12422          BO    SMRD1               YES, DO NOT PRIME                    67422021
 00945A 4110 DAE4      0C024       12423          LA    R1,PSMRCD           NO, DO PRIME TIB 5                   67428021
 00945E 58F0 DCE4      0C224       12424          L     R15,BPRIME          LOAD  PARAM TO PRIME                 67434021
 009462 05EF                       12425          BALR  R14,R15             PERFORM PRIME TIB 5                  67440021
 009464 9620 D5A6      0BAE6       12426          OI    PRMSW,XX20          SET TIB 5 PRIMED BIT                 67446021
 009468                            12427 SMRD1    DS    0H                                                       67452021
 009468 5810 DAE4      0C024       12428          L     R1,PSMRCD           TIB 5 PARAM                          67458021
 00946C 58F0 DCE8      0C228       12429          L     R15,BINSRT          LOAD INSERT RTN ADDRESS              67464021
 009470 05EF                       12430          BALR  R14,R15             INSERT GIVEN PARAMS INTO TIB 5       67470021
 009472 D209 2000 D94E 00000 0BE8E 12431          MVC   DX0(LX10,R2),SMRCDRS  MOVE IN SMRCDRS INTO TBLE          67476021
 009478 58F0 DC54      0C194       12432          L     R15,AFST00          RESTORE BASE REGISTER                67482021
 00947C 5030 D91C      0BE5C       12433          ST    R3,SMRCPT           SAVE ADD. RETURNED FROM INSERT RTN   67488021
 009480 47F0 F280      09488       12434          B     FST080              PROCESS RD                           67494021
                                   12435 *RD                                                                     67500021
 009484 47F0 F280      09488       12436 FST070   BC    UNCOND,FST080       PROCESS RD                           67506021
 009488 D703 DEB0 DEB0 0C3F0 0C3F0 12437 FST080   XC    MAXIM(LX4),MAXIM     SET MAXIM TO ALL ZEROS              67512021
 00948E D203 DEB4 D294 0C3F4 0B7D4 12438          MVC   MINIM(LX4),BPICTR    SET MINIM TO ALL ONES               67518021
 009494 94FD D5AC      0BAEC       12439          NI    NOFDSW,NOFDOFF      AN FD EXISTS-TURN OFF BIT BIT 6      67524021
 009498 9120 D5AA      0BAEA       12440          TM    FSTSW,XX20           END OF FILE SECTION                 67530021
 00949C 47E0 F2A0      094A8       12441          BC    NOTONE,FST085       NO                                   67536021
 0094A0 947F D5AA      0BAEA       12442          NI    FSTSW,XX7F           YES, SET SW FOR FIRST RD            67542021
 0094A4 47F0 F3DA      095E2       12443          BC    UNCOND,FST190        CI NOT FD, SD, SA, OR RD            67548021
 0094A8 9680 D5AA      0BAEA       12444 FST085   OI    FSTSW,XX80           SET 1ST FD,SD, SA SW ON             67554021
 0094AC 4310 D60C      0BB4C       12445          IC    R1,COUNT            WHAT TYPE IS CURRENT                 67560021
 0094B0 5410 D4C8      0BA08       12446          N     R1,MK3032                                                67566021
 0094B4 5910 D40C      0B94C       12447          C     R1,SIX                      IS IT RD               45078 67572021
 0094B8 4780 F3A0      095A8       12448          BE    FST160                     YES, BR                 45078 67578021
 0094BC D200 D5A8 D5A9 0BAE8 0BAE9 12449          MVC   FDDCBNO(LX1),PRDCBNO      MVE PRESENT DCB NO.      45078 67584021
                                   12450 *    TO DCB NO. ASSOCIATED WITH THE RECORD                        45078 67590021
 0094C2 5910 D3F8      0B938       12451          C     R1,ONE                   IS IT SD                  45078 67596021
 0094C6 4780 F33A      09542       12452          BE    FST120                     YES, BR                 45078 67602021
                                   12453 *FD                                IT IS FD                             67608021
 0094CA D21D D888 D8A8 0BDC8 0BDE8 12454 FST090   MVC   BUFCAS(LX30),BUFCAL  SAVE BUFFER INFO                    67614021
 0094D0 D209 D94E D944 0BE8E 0BE84 12455          MVC   SMRCDRS(LX10),SMRCDAR                                    67620021
 0094D6 D20B D92C D938 0BE6C 0BE78 12456          MVC   SAMERS(LX12),SAMEAR                                      67626021
 0094DC D203 D90C D908 0BE4C 0BE48 12457          MVC   BSAMPS(LX4),BSAMPT                                       67632021
 0094E2 D203 D914 D910 0BE54 0BE50 12458          MVC   REORGPS(LX4),REORGPT                                     67638021
 0094E8 D205 DAAC DAB4 0BFEC 0BFF4 12459          MVC   SVKYTB(LX6),FDKYTB   SAVE KEY TABLE DISPLS OF LAST FD    67644021
 0094EE D705 DAB4 DAB4 0BFF4 0BFF4 12460          XC    FDKYTB(LX6),FDKYTB                                       67650021
 0094F4 D207 DF48 D60C 0C488 0BB4C 12461          MVC   FD(LX8),ATTRIB            SAVE ATTRIBUTES                67656021
 0094FA D207 D918 D294 0BE58 0B7D4 12462          MVC   SMARPT(LX8),BPICTR  SET TBL DISP TO ODD NO.              67662021
 009500 D200 D469 D468 0B9A9 0B9A8 12463          MVC   PSRANO,SRANO        SAVE SAME REC AREA NO.               67668021
 009506 4810 B20C      0020C       12464          LH    R1,BLCTR        M)                                       67674021
 00950A 4111 0001      00001       12465          LA    R1,DX1(R1)                                               67680021
 00950E 4210 DF4A      0C48A       12466          STC   R1,FD+NX2                                                67686021
 009512 4010 B20C      0020C       12467          STH   R1,BLCTR                                                 67692021
 009516 4210 DEC7      0C407       12468          STC   R1,FAPAF+NX2                                             67698021
 00951A 9104 DEE6      0C426       12469          TM    FL4SAVE,XX04       WAS RECORD KEY SPEC'D           59737 67704021
1PH20     IKFCBL20                                                                                              PAGE  289
-  LOC  OBJECT CODE    ADDR1 ADDR2  STMT   SOURCE STATEMENT                                       ASM 0201 11.03 02/14/15
000951E 4780 F336      0953E       12470          BC    ZERO,FST091        NO, BRANCH                      59737 67710021
                                   12471 *    IF RECORD KEY WAS SPEC'D FOR THIS FILE WE NOW                59737 67716021
                                   12472 *    HAVE TO INSERT THE FIRST BL # FOR THIS FILE                  59737 67722021
                                   12473 *    IN THE LAST BYTE OF THE RCKTBL ENTRY FOR THIS                59737 67728021
                                   12474 *    PARTICULAR KEY - WE DO THIS BY GETTING THE                   59737 67734021
                                   12475 *    ADDR. OF THE END OF THE TABLE, SUBTRACTING                   59737 67740021
                                   12476 *    1 BYTE AND THEN INSERTING THE BL # .                         59737 67746021
 009522 5830 DAEC      0C02C       12477          L     R3,RPARAM          A(TIB) OF RCKTBL                59737 67752021
 009526 5833 0000      00000       12478          L     R3,DX0(R3)         A(TAMM)                         59737 67758021
 00952A 4843 0004      00004       12479          LH    R4,DX4(R3)         R4 = SIZE OF TABLE              59737 67764021
 00952E 5833 0000      00000       12480          L     R3,DX0(R3)         R3 = A(TABLE)                   59737 67770021
 009532 5430 D4C4      0BA04       12481          N     R3,MK0932          CLEAR 1ST BYTE                  59737 67776021
 009536 1A43                       12482          AR    R4,R3              R4 = A(END OF TBL)              59737 67782021
 009538 0640                       12483          BCTR  R4,R0              POINT TO BL# FOR FILE           59737 67788021
 00953A 4214 0000      00000       12484          STC   R1,DX0(R4)         INSERT 1ST BL# FOR FILE         59737 67794021
                             0953E 12485 FST091   EQU   *                                                  59737 67800021
 00953E 47F0 F3A4      095AC       12486        B     FST170                PROCESS FD                           67806021
                                   12487 *SD                                                                     67812021
 009542                            12488 FST120   DS    0H                                                       67818021
 009542 9500 D468      0B9A8       12489          CLI   SRANO,XX00          SD SAME REC AREA INDICATED ?         67824021
 009546 4780 F372      0957A       12490          BE    FST12A              NO, BRANCH                           67830021
 00954A D21D D888 D8A8 0BDC8 0BDE8 12491          MVC   BUFCAS(LX30),BUFCAL   SAVE BUFFER INFO OF FILE           67836021
 009550 D209 D94E D944 0BE8E 0BE84 12492          MVC   SMRCDRS(LX10),SMRCDAR   SAVE SRA INFO                    67842021
 009556 D207 DF48 D60C 0C488 0BB4C 12493          MVC   FD(LX8),ATTRIB      SAVE ATTRIBUTES                      67848021
 00955C 4810 B20C      0020C       12494          LH    R1,BLCTR            LOAD BL COUNTER                      67854021
 009560 4111 0001      00001       12495          LA    R1,DX1(R1)          ADD ONE TO BL COUNTER                67860021
 009564 4210 DF4A      0C48A       12496          STC   R1,FD+NX2           SAVE BL NO                           67866021
 009568 4010 B20C      0020C       12497          STH   R1,BLCTR            UPDATE BL COUNTER                    67872021
 00956C 4210 DECE      0C40E       12498          STC   R1,SDAPAF+NX2       SAVE BL NO                           67878021
 009570 D200 D469 D468 0B9A9 0B9A8 12499          MVC   PSRANO,SRANO        SAVE SAME REC AREA NO.               67884021
 009576 47F0 F3C2      095CA       12500          B     FST180              BRANCH TO FST180                     67890021
 00957A                            12501 FST12A   DS    0H                                                       67896021
 00957A 4810 B17E      0017E       12502          LH    R1,BLLCTR           LOAD BLL COUNTER                     67902021
 00957E 4111 0001      00001       12503          LA    R1,DX1(R1)                                               67908021
 009582 5910 D400      0B940       12504          C     R1,THREE            CHECK BLL IS GREATER THAN THREE32325 67914021
 009586 4720 F386      0958E       12505          BH    FST12B              YES,  BRANCH AND KEEP IT       32325 67920021
 00958A 5810 D400      0B940       12506          L     R1,THREE         INIT FIRST SD BLL NO. 3           32325 67926021
 00958E                            12507 FST12B   DS    0H                                                 32325 67932021
 00958E 4210 DEDA      0C41A       12508          STC   R1,SDBLL                                                 67938021
 009592 4010 B17E      0017E       12509          STH   R1,BLLCTR                                                67944021
 009596 4010 DFA4      0C4E4       12510          STH   R1,BLLSAVE          SAVE BLL NO                    32325 67950021
 00959A 4210 DECE      0C40E       12511          STC   R1,SDAPAF+NX2                                            67956021
 00959E 9610 DECC      0C40C       12512          OI    SDAPAF,XX10          SET I-FIELD FOR BLL                 67962021
 0095A2 D21D D888 D8A8 0BDC8 0BDE8 12513          MVC   BUFCAS(LX30),BUFCAL  SAVE BUFFER INFO                    67968021
                                   12514 *RD                                                                     67974021
 0095A8 47F0 F3C2      095CA       12515 FST160   BC    UNCOND,FST180       CONTINUE                             67980021
                                   12516 *                                                                       67986021
 0095AC 1B44                       12517 FST170 SR    R4,R4                CALCULATE ATTRIB COUNT FOR FD         67992021
 0095AE 1B11                       12518        SR    R1,R1                                                      67998021
 0095B0 4340 D614      0BB54       12519        IC    R4,FDVCNT            FIXED PORTION COUNT                   68004021
 0095B4 4310 D60C      0BB4C       12520        IC    R1,FDCUNT            VARIABLE PORTION COUNT                68010021
 0095B8 8810 0004      00004       12521          SRL   R1,DX4                                                   68016021
 0095BC 8840 0004      00004       12522          SRL   R4,DX4                                                   68022021
 0095C0 1A14                       12523        AR    R1,R4                ADD THEM TO GET TOTAL COUNT.          68028021
 0095C2 4210 DD00      0C240       12524        STC   R1,ATRCNT            STORE COUNT IN PARM LIST.             68034021
1PH20     IKFCBL20                                                                                              PAGE  290
-  LOC  OBJECT CODE    ADDR1 ADDR2  STMT   SOURCE STATEMENT                                       ASM 0201 11.03 02/14/15
00095C6 47F0 F3C6      095CE       12525        B     FST181                CONTINUE                             68040021
 0095CA 9208 DD00      0C240       12526 FST180   MVI   ATRCNT,XX08          ENTER FD,SD,SA INTO DICTIONARY      68046021
 0095CE D203 DD04 D684 0C244 0BBC4 12527 FST181   MVC   PNTER(LX4),DICTPT                                        68052021
 0095D4 9210 DCFC      0C23C       12528          MVI   CICODE,XX10                                              68058021
 0095D8 4110 DCFC      0C23C       12529          LA    R1,CIPARM                                                68064021
 0095DC 58F0 DBE0      0C120       12530          L     R15,AENTPT                                               68070021
 0095E0 05EF                       12531          BALR  R14,R15             BR TO DICT ENTRY RTN                 68076021
 0095E2 58E0 D9CC      0BF0C       12532 FST190   L     R14,RS14A                                                68082021
 0095E6 94FE D59F      0BADF       12533          NI    OD2SW,XXFE           TURN OFF OVER 1 ODO CLAUSE SW       68088021
 0095EA D201 D5C7 D67E 0BB07 0BBBE 12534          MVC   CARDNO(LX2),CARDXX   RESTORE CURRENT CARD NO             68094021
 0095F0 D200 D688 D989 0BBC8 0BEC9 12535          MVC   CILEV(LX1),SWKAR          RESTORE CUR LEVEL              68100021
 0095F6 07FE                       12536          BCR   UNCOND,R14          RETURN                               68106021
 0095F8 9204 DDD4      0C314       12537 FST990   MVI   PARAM,XX04           USING LAST DICT. PTR. AND LATRPT    68112021
 0095FC D202 DDD5 DF69 0C315 0C4A9 12538          MVC   PARAM+NX1(LX3),LASTDP+NX1 LOCATE                         68118021
 009602 4110 DDD4      0C314       12539          LA    R1,PARAM             THE FD,SD, SA ATTRIBUTES IN         68124021
 009606 58F0 DBE4      0C124       12540          L     R15,ALATRP           DICTIONARY                          68130021
 00960A 05EF                       12541          BALR  R14,R15              R2 WILL BE THAT LOCATION UPON       68136021
 00960C 58F0 DC54      0C194       12542          L     R15,AFST00           RETURN FROM LATRPT                  68142021
 009610 07F4                       12543          BCR   UNCOND,R4           RETURN                               68148021
                                   12544 *RECORD CONTAINS CHECKING                                               68154021
 009612 4830 D88C      0BDCC       12545 RECCON   LH    R3,RCON1            IS RECORD CONTAINS INT-2 SPECIFI     68160021
 009616 1233                       12546          LTR   R3,R3                                                    68166021
 009618 0784                       12547          BCR   ZERO,R4             NO, RETURN                           68172021
 00961A 4820 D88E      0BDCE       12548          LH    R2,RCON2            ONLY INT-2 SPEC'D                    68178021
 00961E 1222                       12549          LTR   R2,R2                                                    68184021
 009620 4780 F422      0962A       12550          BC    ZERO,RECC01         YES                                  68190021
 009624 1832                       12551          LR    R3,R2               NO, SET R3= INT-2                    68196021
 009626 47F0 F428      09630       12552          BC    UNCOND,RECC01+NX6   CONTINUE                             68202021
 00962A D201 D88C D3F4 0BDCC 0B934 12553 RECC01   MVC   RCON1(LX2),ZEROS     SET INT- TO ZERO                   68208021
 009630 5930 DEB0      0C3F0       12554          C     R3,MAXIM            YES, IS IT EQUAL TO     LARGEST      68214021
 009634 4780 F446      0964E       12555          BC    EQ,RECC02           YES                                  68220021
 009638 9101 D59F      0BADF       12556          TM    OD2SW,XX01           NO, ARE THRRE 2 OR MORE ODO IN R    68226021
 00963C 4710 F472      0967A       12557          BC    ONES,RECC04         YES                                  68232021
 009640 4100 0092      00092       12558          LA    R0,DX146             146  NO                             68238021
 009644 58F0 DBC0      0C100       12559          L     R15,AERRTN                                               68244021
 009648 05EF                       12560          BALR  R14,R15             ERROR                                68250021
 00964A 58F0 DC54      0C194       12561          L     R15,AFST00                                               68256021
 00964E 4830 D88C      0BDCC       12562 RECC02   LH    R3,RCON1            GET RECORD CONTAINS INT-1            68262021
 009652 1233                       12563          LTR   R3,R3               IS IT SPEC'D                         68268021
 009654 0784                       12564          BCR   ZERO,R4             NO, RETURN                           68274021
 009656 5930 DEB4      0C3F4       12565          C     R3,MINIM            YES, IS IT EQUAL TO SMALLEST REC     68280021
 00965A 4780 F470      09678       12566          BE    RECC03             YES, OK.                              68286021
 00965E 4720 F462      0966A       12567          BH    RECC02E            NO.                                   68292021
 009662 9102 D893      0BDD3       12568          TM    BUFOPT,XX02         INT-1 LT MINIM. ODO?                 68298021
 009666 4710 F470      09678       12569          BO    RECC03             YES, OK(MAYBE).                       68304021
 00966A 4100 0093      00093       12570 RECC02E  LA    R0,DX147                                                 68310021
 00966E 58F0 DBC0      0C100       12571          L     R15,AERRTN                                               68316021
 009672 05EF                       12572          BALR  R14,R15             ERROR                                68322021
 009674 58F0 DC54      0C194       12573          L     R15,AFST00                                               68328021
 009678 07F4                       12574 RECC03   BCR   UNCOND,R4           RETURN                               68334021
                             0967A 12575 RECC04   EQU   *                  MAX. FROM RCD CONTAINS CLAUSE         68340021
                                   12576 *                                 IF DESCRIPTION IS V.                  68346021
 00967A 5030 DEB0      0C3F0       12577          ST    R3,MAXIM                                                 68352021
 00967E 47F0 F446      0964E       12578          BC    UNCOND,RECC02       CONTINUE RECORD CONTAINS PROCESS     68358021
 009682 5040 D98C      0BECC       12579 MODE00   ST    R4,RS0              ING                                  68364021
1PH20     IKFCBL20                                                                                              PAGE  291
-  LOC  OBJECT CODE    ADDR1 ADDR2  STMT   SOURCE STATEMENT                                       ASM 0201 11.03 02/14/15
0009686 4540 F3F0      095F8       12580          BAL   R4,FST990          GET FD'S A(ATTRIB) IN R2              68370021
 00968A D700 DD23 DD23 0C263 0C263 12581          XC    RECFM(LX1),RECFM                                         68376021
 009690 9108 D892      0BDD2       12582          TM    RCDFM,XX08          MODE F?                              68382021
 009694 4780 F4A8      096B0       12583          BZ    MODE01             NO.                                   68388021
 009698 D503 DEB0 DEB4 0C3F0 0C3F4 12584          CLC   MAXIM(LX4),MINIM    YES. DESCRIPTION F?                  68394021
 00969E 4780 F4A8      096B0       12585          BE    MODE01                  YES, OK.                         68400021
                                   12586 *                                                                       68406021
 0096A2 4800 F738      09940       12587          LH    R0,MSG16                                                 68412021
 0096A6 58F0 DBC0      0C100       12588          L     R15,AERRTN         DATA RECORD DESCRIPTION IS            68418021
 0096AA 05EF                       12589          BALR  R14,R15            VARIABLE. MODE F IGNORED.             68424021
 0096AC 58F0 DC54      0C194       12590          L     R15,AFST00                                               68430021
 0096B0 910F D8A0      0BDE0       12591 MODE01   TM    ACCMTH,XX0F         QSAM?                                68436021
 0096B4 4780 F546      0974E       12592          BZ    MDQS00             YES.                                  68442021
 0096B8 910F D892      0BDD2       12593          TM    RCDFM,XX0F          NON-QSAM. IS MODE SPECIFIED?         68448021
 0096BC 4740 F4CE      096D6       12594          BM    MODE02                       YES.                        68454021
 0096C0 9110 D889      0BDC9       12595          TM    BLKLBL,XX10          BLK CONTAINS CHAR                   68460021
 0096C4 4710 F546      0974E       12596          BO    MDQS00              SEE IF MODE DECIDED                  68466021
 0096C8 D503 DEB0 DEB4 0C3F0 0C3F4 12597          CLC   MAXIM(LX4),MINIM    NO. DESCRIPTION V?                   68472021
 0096CE 4770 F4CE      096D6       12598          BNE   MODE02             YES. U(DIRECT)                        68478021
 0096D2 9608 D892      0BDD2       12599          OI    RCDFM,XX08          NO. SET F BIT ON.                    68484021
                                   12600 *        LA    R0,28                                                    68490021
                                   12601 *        L     R15,AERRTN         DATA RECORD DESCRIPTION IS            68496021
                                   12602 *        BALR  R14,R15            FIXED. RECORDING MODE F               68502021
                                   12603 *        L     R15,AFST00         ASSUMED.                              68508021
 0096D6 9103 D8A0      0BDE0       12604 MODE02   TM    ACCMTH,XX03         ISAM?                                68514021
 0096DA 4740 F532      0973A       12605          BM    MDIS00             YES.                                  68520021
 0096DE 9104 A008      00008       12606          TM    DX8(R10),XX04                                            68526021
 0096E2 4770 F4FC      09704       12607          BNZ   MDDI00             YES.                                  68532021
 0096E6 9108 D892      0BDD2       12608 MDRE00   TM    RCDFM,XX08          F                                    68538021
 0096EA 4710 F4F4      096FC       12609          BO    MDRE01             YES, OK.                              68544021
 0096EE 4800 F734      0993C       12610          LH    R0,MSG135          NO                                    68550021
 0096F2 58F0 DBC0      0C100       12611          L     R15,AERRTN  *****  ERROR: RCD DESCRIPTION V ILLEGAL      68556021
 0096F6 05EF                       12612          BALR  R14,R15            FOR RELATIVEFILE.                     68562021
 0096F8 58F0 DC54      0C194       12613          L     R15,AFST00                                               68568021
 0096FC 9608 D892      0BDD2       12614 MDRE01   OI    RCDFM,XX08          SET MODE = F                         68574021
 009700 47F0 F612      0981A       12615          B     MODE10              MODE PROCESSING                      68580021
 009704 910F D892      0BDD2       12616 MDDI00   TM    RCDFM,XX0F          MODE DECIDED                         68586021
 009708 4770 F508      09710       12617          BNZ   *+8                YES                                   68592021
 00970C 9602 D892      0BDD2       12618          OI    RCDFM,XX02          MODE IS U.                           68598021
 009710 9120 D892      0BDD2       12619          TM    RCDFM,XX20          RCD OVFL ?                           68604021
 009714 4780 F52A      09732       12620          BZ    MDDI01             NO                                    68610021
 009718 9108 D892      0BDD2       12621          TM    RCDFM,XX08          YES. MODE F                          68616021
 00971C 4710 F52A      09732       12622          BO    MDDI01             YES - OK.                             68622021
 009720 4100 008B      0008B       12623          LA    R0,MSG139          NO. RCD OVFL OK OM         NLY        68628021
 009724 58F0 DBC0      0C100       12624          L     R15,AERRTN         F MODE FOR BSAM,BDAM.                 68634021
 009728 05EF                       12625          BALR  R14,R15            ERROR: OPTION IGNORED.                68640021
 00972A 58F0 DC54      0C194       12626          L     R15,AFST00                                               68646021
 00972E 94DF D892      0BDD2       12627          NI    RCDFM,XXDF          SET OFF OVFL BIT                     68652021
 009732 9601 DD23      0C263       12628 MDDI01   OI    RECFM,XX01          KEY BIT                              68658021
 009736 47F0 F612      0981A       12629          B     MODE10              MODE PROCESSING                      68664021
 00973A 910F D892      0BDD2       12630 MDIS00   TM    RCDFM,XX0F          MODE DECIDED?                        68670021
 00973E 4770 F53E      09746       12631          BNZ   MDIS01             YES.                                  68676021
 009742 9604 D892      0BDD2       12632          OI    RCDFM,XX04          NO. DESCRIPTION V = MODE V           68682021
                                   12633 *        INDEXED FILE. MODE, TRACK AREA CHECKING.                       68688021
 009746 9601 DD23      0C263       12634 MDIS01   OI    RECFM,XX01          KEY BIT                              68694021
1PH20     IKFCBL20                                                                                              PAGE  292
-  LOC  OBJECT CODE    ADDR1 ADDR2  STMT   SOURCE STATEMENT                                       ASM 0201 11.03 02/14/15
000974A 47F0 F612      0981A       12635          B     MODE10              MODE PROCESSING                      68700021
 00974E 910F D892      0BDD2       12636 MDQS00   TM    RCDFM,XX0F          MODE DECIDED?                        68706021
 009752 4740 F5E8      097F0       12637          BM    MDQS09             YES.                                  68712021
 009756 9108 D889      0BDC9       12638          TM    BLKLBL,XX08         BLKCK CONT RECORD              00907 68718021
 00975A 4710 F5A6      097AE       12639          BO    MDQS03              YES, BRANCH                    00907 68724021
 00975E 4830 D890      0BDD0       12640          LH    R3,BKCON2          LOAD MAX LENGTH OF BLOCKED            68730021
 009762 D503 DEB0 DEB4 0C3F0 0C3F4 12641          CLC   MAXIM(LX4),MINIM   DIFFERENCE IN MAX AND MIN OF REC      68736021
 009768 4770 F570      09778       12642          BNE   MDQS01             SAME LENGTH, NOT VARI REC             68742021
 00976C 1233                       12643          LTR   R3,R3              MAX BLOCKED INDICATED ??              68748021
 00976E 4780 F5D0      097D8       12644          BZ    MDQS04             MEASN BLOCK 00 OR NO INDICATION       68754021
 009772 1233                       12645          LTR   R3,R3               TEST REG 3                           68760021
 009774 4780 F5B8      097C0       12646          BC    ZERO,MDQS3A         IF ZERO, BRANCH..                    68766021
 009778 D503 DEB0 DEB4 0C3F0 0C3F4 12647 MDQS01   CLC   MAXIM(LX4),MINIM    DESCRIPTION V?                       68772021
 00977E 5840 DEB0      0C3F0       12648          L     R4,MAXIM                                                 68778021
 009782 4780 F582      0978A       12649          BE    MDQS02             NO, F.                                68784021
 009786 4144 0004      00004       12650          LA    R4,DX4(R4)          YES.                                 68790021
 00978A 1934                       12651 MDQS02   CR    R3,R4              R3--INT-2 CHAR. R4--LRECL             68796021
 00978C 47B0 F5A6      097AE       12652          BNL   MDQS03             NOT S MODE. F OR V.                   68802021
 009790 1233                       12653          LTR   R3,R3                    BLOCK CONTAINS 0          41541 68808021
 009792 4780 F5A6      097AE       12654          BZ    MDQS03          YES,  MAKE RECFM V                 41541 68814021
 009796 9601 D892      0BDD2       12655          OI    RCDFM,XX01          SET S MODE BIT ON IN BUFCAS.         68820021
 00979A 910C D8A0      0BDE0       12656          TM    ACCMTH,XX0C          BASIC FILE                          68826021
 00979E 4780 F5E8      097F0       12657          BZ    MDQS09              NO                                   68832021
 0097A2 94E7 D889      0BDC9       12658          NI    BLKLBL,XXE7          YES, TIRN OFF BITS                  68838021
 0097A6 9601 DD23      0C263       12659          OI    RECFM,KEYFLG        SET KEY BIT ON                       68844021
 0097AA 47F0 F612      0981A       12660          B     MODE10              GO PROCESS REST                      68850021
 0097AE                            12661 MDQS03   DS    0H                                                 00907 68856021
 0097AE 9102 D893      0BDD3       12662          TM    BUFOPT,XX02         VARIABLE GROUP INDICATED       00907 68862021
 0097B2 4710 F5B8      097C0       12663          BO    MDQS3A              YES, MAKE RECFM = V            00907 68868021
 0097B6 D503 DEB0 DEB4 0C3F0 0C3F4 12664          CLC   MAXIM(LX4),MINIM    CHECK LENGTH FOR VARIABLE      00907 68874021
 0097BC 4780 F5D0      097D8       12665          BE    MDQS04             NO. ASSUME MODE F.                    68880021
 0097C0 9604 D892      0BDD2       12666 MDQS3A   OI    RCDFM,VMODE         YES, ASSUME V MODE                   68886021
 0097C4 910C D8A0      0BDE0       12667          TM    ACCMTH,XX0C          BASIC FILE                          68892021
 0097C8 4780 F5E8      097F0       12668          BZ    MDQS09              NO                                   68898021
 0097CC 94E7 D889      0BDC9       12669          NI    BLKLBL,XXE7          YES, TIRN OFF BITS                  68904021
 0097D0 9601 DD23      0C263       12670          OI    RECFM,KEYFLG        SET KEY BIT ON                       68910021
 0097D4 47F0 F612      0981A       12671          B     MODE10              GO PROCESS REST                      68916021
 0097D8 9608 D892      0BDD2       12672 MDQS04   OI    RCDFM,XX08          SET F BIT IN BUFCAS                  68922021
 0097DC 910C D8A0      0BDE0       12673          TM    ACCMTH,XX0C          BASIC FILE                          68928021
 0097E0 4780 F5E8      097F0       12674          BZ    MDQS09              NO                                   68934021
 0097E4 94E7 D889      0BDC9       12675          NI    BLKLBL,XXE7          YES, TURN OFF BITS                  68940021
 0097E8 9601 DD23      0C263       12676          OI    RECFM,KEYFLG        SET KEY BIT ON                       68946021
 0097EC 47F0 F612      0981A       12677          B     MODE10              GO PROCESS REST                      68952021
                                   12678 *                                 RECORDING MODE DECIDED BY NOW.        68958021
 0097F0 9180 D893      0BDD3       12679 MDQS09   TM    BUFOPT,XX80         APPLY WRITE ONLY?                    68964021
 0097F4 4780 F612      0981A       12680          BZ    MODE10             NO.                                   68970021
 0097F8 9104 D892      0BDD2       12681          TM    RCDFM,XX04          YES.  MODE V?                        68976021
 0097FC 4710 F60A      09812       12682          BO    MDQS10             YES - OK.                             68982021
 009800 4100 00B6      000B6       12683          LA    R0,X'00B6'         NO - CLAUSE IGNORED.                  68988021
 009804 58F0 DBC0      0C100       12684          L     R15,AERRTN                                               68994021
 009808 05EF                       12685          BALR  R14,R15             ERROR ROUTINE                        69000021
 00980A 58F0 DC54      0C194       12686          L     R15,AFST00                                               69006021
 00980E 47F0 F612      0981A       12687          B     MODE10              MODE PROCESSING                      69012021
 009812 9602 2004      00004       12688 MDQS10   OI    DX4(R2),XX02                                             69018021
 009816 47F0 F612      0981A       12689          B     MODE10              MODE PROCESSING                      69024021
1PH20     IKFCBL20                                                                                              PAGE  293
-  LOC  OBJECT CODE    ADDR1 ADDR2  STMT   SOURCE STATEMENT                                       ASM 0201 11.03 02/14/15
000981A 9108 D892      0BDD2       12690 MODE10   TM    RCDFM,XX08          MODE F?                              69030021
 00981E 4710 F6EE      098F6       12691          BO    MODEF              YES.                                  69036021
 009822 9104 D892      0BDD2       12692          TM    RCDFM,XX04          MODE V?                              69042021
 009826 4710 F6E6      098EE       12693          BO    MODEV              YES.                                  69048021
 00982A 9102 D892      0BDD2       12694          TM    RCDFM,XX02          MODE U?                              69054021
 00982E 4710 F6DA      098E2       12695          BO    MODEU              YES.                                  69060021
 009832 9140 D8A0      0BDE0       12696 MODES    TM    ACCMTH,BUFUR        UNIT RECORD                          69066021
 009836 4780 F644      0984C       12697          BZ    MODEES              NO, OK                               69072021
 00983A 4800 DFB2      0C4F2       12698          LH    R0,MSG195           ILLEGAL FOR S-MODE                   69078021
 00983E 58F0 DBC0      0C100       12699          L     R15,AERRTN                                               69084021
 009842 05EF                       12700          BALR  R14,R15             GO GEN MSG 26                        69090021
 009844 58F0 DC54      0C194       12701          L     R15,AFST00                                               69096021
 009848 47F0 F5B8      097C0       12702          B     MDQS3A              ASSUME V MODE                        69102021
 00984C 9660 2001      00001       12703 MODEES   OI    ONEE(R2),DICTS      S BY DEFAULT                         69108021
                                   12704 *        R2 POINTS TO THE LAST FD DICTIONARY ATTRIBUTE.                 69114021
 009850 9648 DD23      0C263       12705          OI    RECFM,XX48           V-S BITS                            69120021
 009854 910E D8A0      0BDE0       12706          TM    ACCMTH,XX0E          QSAM                                69126021
 009858 4740 F672      0987A       12707          BM    MODES1              NO                                   69132021
 00985C 9610 DD23      0C263       12708          OI    RECFM,XX10           YES, B BIT ON                       69138021
 009860 9104 D893      0BDD3       12709          TM    BUFOPT,TTLMSK      TOTALING AREA?                        69144021
 009864 4780 F6F6      098FE       12710          BZ    MODE11             NO, OK.                               69150021
 009868 4100 001A      0001A       12711          LA    R0,MSGTTL1         YES, ERROR                            69156021
 00986C 58F0 DBC0      0C100       12712          L     R15,AERRTN         TOTALING AREA IGNORED FOR FILE        69162021
 009870 05EF                       12713          BALR  R14,R15            WITH RECORDING MODE S.                69168021
 009872 58F0 DC54      0C194       12714          L     R15,AFST00         MSG NO 26                             69174021
 009876 47F0 F6F6      098FE       12715          B     MODE11              SET APPROPRIATE BITS ON IN RECFM     69180021
 00987A 94E7 D889      0BDC9       12716 MODES1   NI    BLKLBL,BLKOFF       TURN OFF BITS                        69186021
 00987E 9104 D8A0      0BDE0       12717          TM    ACCMTH,BLKBSAM      BSAM                                 69192021
 009882 9104 D8A0      0BDE0       12718          TM    ACCMTH,XX04          BSAM                                69198021
 009886 4710 F6AC      098B4       12719          BO    MODES4              YES, BUFNO = 0                       69204021
 00988A 5830 D894      0BDD4       12720          L     R3,LOCDCB           A (DCB)                              69210021
 00988E 4133 0014      00014       12721          LA    R3,DX20(R3)                + 20                          69216021
 009892 5030 DDEC      0C32C       12722          ST    R3,LITBUF                                                69222021
 009896 9228 DDEC      0C32C       12723          MVI   LITBUF,XX28          CODE                                69228021
 00989A D202 DDF0 D3F9 0C330 0B939 12724          MVC   LITBUF+NX4(LX3),ONE+NX1 COUNT                            69234021
 0098A0 9201 DDF3      0C333       12725          MVI   LITBUF+NX7,XX01      BUFNO = 1                           69240021
 0098A4 4130 0008      00008       12726          LA    R3,DX8               COUNT                               69246021
 0098A8 4120 DDEC      0C32C       12727          LA    R2,LITBUF                                                69252021
 0098AC 5810 DB84      0C0C4       12728          L     R1,COSADR                                                69258021
 0098B0 0501                       12729          BALR  R0,R1               GO GEN                               69264021
 0098B2 14                         12730          DC    X'14'                                                    69270021
 0098B3 00
 0098B4 5830 D894      0BDD4       12731 MODES4   L     R3,LOCDCB                                                69276021
 0098B8 4133 0020      00020       12732          LA    R3,DX32(R3)             + 32                             69282021
 0098BC 5030 DDEC      0C32C       12733          ST    R3,LITBUF                                                69288021
 0098C0 9228 DDEC      0C32C       12734          MVI   LITBUF,XX28                                              69294021
 0098C4 D202 DDF0 D3F9 0C330 0B939 12735          MVC   LITBUF+NX4(LX3),ONE+NX1 COUNT                            69300021
 0098CA 9220 DDF3      0C333       12736          MVI   LITBUF+NX7,XX20      SET FOR S-MODE BASIC FILES          69306021
 0098CE 4130 0008      00008       12737          LA    R3,DX8               COUNT                               69312021
 0098D2 4120 DDEC      0C32C       12738          LA    R2,LITBUF                                                69318021
 0098D6 5810 DB84      0C0C4       12739          L     R1,COSADR                                                69324021
 0098DA 0501                       12740          BALR  R0,R1               BR TO COMMON                         69330021
 0098DC 14                         12741          DC    X'14'                                                    69336021
 0098DD 00
 0098DE 47F0 F6F6      098FE       12742          B     MODE11               GO CHECK REST                       69342021
1PH20     IKFCBL20                                                                                              PAGE  294
-  LOC  OBJECT CODE    ADDR1 ADDR2  STMT   SOURCE STATEMENT                                       ASM 0201 11.03 02/14/15
00098E2 9640 2001      00001       12743 MODEU    OI    DX1(R2),XX40        U BIT ON IN DICT. ATTRIB.            69348021
 0098E6 96C0 DD23      0C263       12744          OI    RECFM,XXC0                                               69354021
 0098EA 47F0 F70A      09912       12745          B     MODE12             NO BLOCKING FOR U                     69360021
 0098EE 9640 DD23      0C263       12746 MODEV    OI    RECFM,XX40                                               69366021
 0098F2 47F0 F6F6      098FE       12747          B     MODE11              SET APPROPRIATE BITS ON IN RECFM     69372021
 0098F6 9620 2001      00001       12748 MODEF    OI    DX1(R2),XX20                                             69378021
 0098FA 9680 DD23      0C263       12749          OI    RECFM,XX80                                               69384021
                                   12750 *                                                                       69390021
 0098FE 9118 D889      0BDC9       12751 MODE11   TM    BLKLBL,XX18         BLOCKED FILE                         69396021
 009902 4780 F70A      09912       12752          BZ    MODE12              NO.                                  69402021
 009906 9102 D892      0BDD2       12753          TM    RCDFM,XX02         UNDEFINED RECFM ???                   69408021
 00990A 4710 F70A      09912       12754          BO    MODE12             DO NOT SET BLOCKED BIT ON             69414021
 00990E 9610 DD23      0C263       12755          OI    RECFM,XX10          B BIT ON                             69420021
 009912 9190 D892      0BDD2       12756 MODE12   TM    RCDFM,XX90          ASA CC?                              69426021
 009916 4780 F716      0991E       12757          BZ    MODE13             NO.                                   69432021
 00991A 9604 DD23      0C263       12758          OI    RECFM,XX04          YES.                                 69438021
 00991E 9140 D892      0BDD2       12759 MODE13   TM    RCDFM,XX40          MACHINE CC                           69444021
 009922 4780 F722      0992A       12760          BZ    MODE14             NO.                                   69450021
 009926 9602 DD23      0C263       12761          OI    RECFM,XX02          YES.                                 69456021
 00992A 9120 D892      0BDD2       12762 MODE14   TM    RCDFM,XX20          TRACK OVFL?                          69462021
 00992E 4780 F72E      09936       12763          BZ    MODE15             NO.                                   69468021
 009932 9620 DD23      0C263       12764          OI    RECFM,XX20          YES.                                 69474021
 009936 5840 D98C      0BECC       12765 MODE15   L     R4,RS0                                                   69480021
 00993A 07F4                       12766          BR    R4                 RETURN                                69486021
 00993C 1087                       12767 MSG135    DC   X'1087'             VARIABLE DISP FOR R OR I             69492021
 00993E 1006                       12768 MSG06    DC    X'1006'        BLK CON. CL. IGNORED FOR U          LCLIO 69498021
 009940 0010                       12769 MSG16    DC    X'0010'                                                  69504021
                             0008B 12770 MSG139   EQU   139                RCD OVFL FOR V OR U DIRECT FILE       69510021
                             0001A 12771 MSGTTL1  EQU   26   TOTALING AREA IGNORED FOR FILE WITH MODE S.         69516021
1PH20     IKFCBL20                                                                                              PAGE  295
-  LOC  OBJECT CODE    ADDR1 ADDR2  STMT   SOURCE STATEMENT                                       ASM 0201 11.03 02/14/15
0                                  12773 *=2      BKSIZE- BLKSIZE, BUFLN CALCULATIONS                            69528021
                                   12774 *  THIS ROUTINE CALCULATES THE LOGICAL RECORD LENGTH, BLOCK SIZE,       69534021
                                   12775 *    BUFFER LENGTH AND BUFFER POOL LENGTH IN FILE SECTION. IF A SAM     69540021
                                   12776 *    AREA CLAUSE IS PRESENT, THE BLOCKSIZE IS PUT INTO SAMTBL ENTRY     69546021
                                   12777 *    BUFFER-LENGTH AND BLOCK-SIZE IN DCB ARE PUT OUT AS CONDEFS IN      69552021
                                   12778 *    A-TEXT FORMAT.                                                     69558021
                                   12779 *                                                                       69564021
 009942 50E0 D9D0      0BF10       12780 BKSIZE   ST    R14,RS14B                                                69570021
 009946 50F0 D98C      0BECC       12781          ST    R15,RS0                                                  69576021
 00994A 9102 D892      0BDD2       12782          TM    RCDFM,XX02          MODE U?                              69582021
 00994E 4780 F764      0996C       12783          BZ    BKS000             NO.                                   69588021
 009952 9118 D889      0BDC9       12784          TM    BLKLBL,XX18                                              69594021
 009956 4780 F764      0996C       12785          BZ    BKS000             NO - OK.                              69600021
 00995A 4800 F736      0993E       12786          LH    R0,MSG06           ERROR BLOCK CONTAINS                  69606021
 00995E 58F0 DBC0      0C100       12787          L     R15,AERRTN         CLAUSE FOR U FILE IGNORED.            69612021
 009962 05EF                       12788          BALR  R14,R15             ERROR ROUTINE                        69618021
 009964 58F0 D98C      0BECC       12789          L     R15,RS0                                                  69624021
 009968 94EF DD23      0C263       12790          NI    RECFM,XXEF                                               69630021
 00996C 5840 DEB0      0C3F0       12791 BKS000   L     R4,MAXIM                                                 69636021
 009970 5040 DF38      0C478       12792          ST    R4,MTEMP                 SAVE REC LGN                    69642021
 009974 910A D892      0BDD2       12793          TM    RCDFM,XX0A           U OR F                              69648021
 009978 4740 F778      09980       12794          BM    BKS001              YES                                  69654021
 00997C 4144 0004      00004       12795          LA    R4,DX4(R4)          YES, LRECL=MAXIM+4.                  69660021
 009980 9108 D8A0      0BDE0       12796 BKS001   TM    ACCMTH,XX08         BDAM?                                69666021
 009984 4710 F7B0      099B8       12797          BO    BKS002              YES                                  69672021
 009988 5830 D894      0BDD4       12798          L     R3,LOCDCB          NO. PUT OUT LRECL                     69678021
 00998C 4133 0052      00052       12799          LA    R3,DX82(R3)         R3=A(DCBLRECL)=DCB+82                69684021
 009990 5030 DDEC      0C32C       12800          ST    R3,LITBUF                                                69690021
 009994 9228 DDEC      0C32C       12801          MVI   LITBUF,XX28                                              69696021
 009998 D202 DDF0 D3FD 0C330 0B93D 12802          MVC   LITBUF+NX4(LX3),TWO+NX1 TYPE=X'00' SIZE=2                69702021
 00999E 5040 DF38      0C478       12803          ST    R4,MTEMP                                                 69708021
 0099A2 D201 DDF3 DF3A 0C333 0C47A 12804          MVC   LITBUF+NX7(LX2),MTEMP+NX2                                69714021
 0099A8 5830 D418      0B958       12805          L     R3,NINE                                                  69720021
 0099AC 4120 DDEC      0C32C       12806          LA    R2,LITBUF                                                69726021
 0099B0 5810 DB84      0C0C4       12807          L     R1,COSADR                                                69732021
 0099B4 0501                       12808          BALR  R0,R1               BR TO COMMON                         69738021
 0099B6 14                         12809          DC    X'14'                                                    69744021
                                   12810 *                                                                       69750021
 0099B7 00
 0099B8 9118 D889      0BDC9       12811 BKS002   TM    BLKLBL,XX18                                              69756021
 0099BC 4780 F7C8      099D0       12812          BZ    BKS010             NO.                                   69762021
 0099C0 9108 D889      0BDC9       12813 BKS005   TM    BLKLBL,XX08         BLOCK CONTAINS RECORDS               69768021
 0099C4 4710 FE1C      0A024       12814          BC    ONES,BKS300         BLOCK CONTAINS RECORDS.              69774021
 0099C8 9110 D889      0BDC9       12815          TM    BLKLBL,XX10         BLOCK CONTAINS CHAR.                 69780021
                                   12816 *                                                                       69786021
 0099CC 4710 FE74      0A07C       12817          BC    ONES,BKS350         BLOCK CONTAINS CHARACTERS.           69792021
                                   12818 *                                                                       69798021
                                   12819 *  BLOCK-CONTAINS CLAUSE NOT PRESENT. RECORDING MODE = V.               69804021
                                   12820 *                                                                       69810021
 0099D0 9108 D892      0BDD2       12821 BKS010   TM    RCDFM,XX08          MODE F?                              69816021
 0099D4 4710 FE14      0A01C       12822          BO    BKS200             YES.                                  69822021
 0099D8 9102 D892      0BDD2       12823          TM    RCDFM,XX02          MODE U?                              69828021
 0099DC 4710 F7DC      099E4       12824          BO    BKS020             YES.                                  69834021
 0099E0 4144 0004      00004       12825          LA    R4,DX4(R4)           MODE V OR S MAXIM + 4 + 4           69840021
                                   12826 *                                                                       69846021
1PH20     IKFCBL20                                                                                              PAGE  296
-  LOC  OBJECT CODE    ADDR1 ADDR2  STMT   SOURCE STATEMENT                                       ASM 0201 11.03 02/14/15
00099E4 5940 D474      0B9B4       12827 BKS020   C     R4,C32760                                                69852021
 0099E8 47D0 F7F4      099FC       12828          BC    NOTHI,BKS030        BLKSIZE OK.                          69858021
 0099EC 4800 DFB0      0C4F0       12829          LH    R0,MSG50            BLKZ GT 32K                          69864021
 0099F0 1B11                       12830          SR    R1,R1                                                    69870021
 0099F2 58F0 DBC0      0C100       12831          L     R15,AERRTN                                               69876021
 0099F6 05EF                       12832          BALR  R14,R15             ERROR RTN                            69882021
 0099F8 58F0 D98C      0BECC       12833          L     R15,RS0                                                  69888021
                                   12834 *                                                                       69894021
 0099FC                            12835 BKS030   DS    0H                                                       69900021
 0099FC 9102 D892      0BDD2       12836          TM    RCDFM,XX02         UNDEFINED RECORD FORMAT ???           69906021
 009A00 47E0 F806      09A0E       12837          BNO   *+14               SKIP NEXT TWO INST.                   69912021
 009A04 D203 DF3C DF38 0C47C 0C478 12838          MVC   MTEMP1,MTEMP       MOVE REC LENGTH                       69918021
 009A0A 47F0 F80A      09A12       12839          B     *+8                SKIP NEXT INST                        69924021
 009A0E 5040 DF3C      0C47C       12840          ST    R4,MTEMP1          STORE BLOCK LENGTH                    69930021
 009A12 D201 DDF3 DF3E 0C333 0C47E 12841          MVC   LITBUF+NX7(LX2),MTEMP1+NX2                               69936021
 009A18 5830 D894      0BDD4       12842          L     R3,LOCDCB                                                69942021
 009A1C 4133 003E      0003E       12843          LA    R3,DX62(R3)         R3=A(DCBBKS)=DCB+62                  69948021
 009A20 5030 DDEC      0C32C       12844          ST    R3,LITBUF                                                69954021
 009A24 9228 DDEC      0C32C       12845          MVI   LITBUF,XX28                                              69960021
 009A28 D202 DDF0 D3FD 0C330 0B93D 12846          MVC   LITBUF+NX4(LX3),TWO+NX1                                  69966021
 009A2E 5830 D418      0B958       12847          L     R3,NINE            CONDEF FOR DCB BLKSIZE.               69972021
 009A32 4120 DDEC      0C32C       12848          LA    R2,LITBUF                                                69978021
 009A36 5810 DB84      0C0C4       12849          L     R1,COSADR                                                69984021
 009A3A 0501                       12850          BALR  R0,R1               BR TO COMMON                         69990021
 009A3C 14                         12851          DC    X'14'                                                    69996021
 009A3E                            12852 BKS031   DS    0H                                                       70002021
 009A3E D200 D936 D8A0 0BE76 0BDE0 12853          MVC   SAMERS+NX10(LX1),ACCMTH                                  70008021
 009A44 943F D936      0BE76       12854          NI    SAMERS+NX10,XX3F                                         70014021
 009A48 D200 D956 D936 0BE96 0BE76 12855          MVC   SMRCDRS+NX8(LX1),SAMERS+NX10                             70020021
 009A4E 910E D8A0      0BDE0       12856          TM    ACCMTH,XX0E                                              70026021
 009A52 4780 FA7A      09C82       12857          BC    ZERO,BKS072            IS ASSIGN BY THE SYSTEM,          70032021
 009A56 9101 D8A0      0BDE0       12858          TM    ACCMTH,XX01             SO LOCCTR IS NOT UPDATED.        70038021
 009A5A 4710 FA7A      09C82       12859          BC    ONES,BKS072         PROCESS QUEUED FILE                  70044021
 009A5E 9102 D8A0      0BDE0       12860 BKS040   TM    ACCMTH,XX02          IS ACCESS METHOD BISAM              70050021
 009A62 47E0 F862      09A6A       12861          BC    NOTONE,BKS045       NO, BLOCK LGN =BLKSIZE (BSAM, BS     70056021
 009A66 4144 0010      00010       12862          LA    R4,DX16(R4)          YES, BLOCK LGN= BLKSIZE+16          70062021
 009A6A 4144 0007      00007       12863 BKS045   LA    R4,DX7(R4)           BLKADEF DISP. =BLOCK LGN ROUNDED    70068021
 009A6E 5440 D4F0      0BA30       12864          N     R4,MK0129             UP TO MULTIPLE OF 8.               70074021
                                   12865 * BASIC FILE                                                            70080021
 009A72 9110 D893      0BDD3       12866 BKSSM0   TM    BUFOPT,XX10         S-R-A?                               70086021
 009A76 4710 FC2C      09E34       12867          BO    SAMERCD            YES.                                  70092021
 009A7A 9120 D893      0BDD3       12868 BKSSM1   TM    BUFOPT,XX20         S-A?                                 70098021
 009A7E 4710 FBCA      09DD2       12869          BO    BKS078              YES, PUT BLKSIZE IN SAMETBL          70104021
 009A82 9130 D8A0      0BDE0       12870 BKSKY0   TM    ACCMTH,XX30         KEY TO BE INCLUDED IN BUFF?          70110021
 009A86 4770 FDAA      09FB2       12871          BNZ   BKS130              YES                                  70116021
 009A8A 9120 D893      0BDD3       12872          TM    BUFOPT,XX20         S-A                                  70122021
 009A8E 4710 FB34      09D3C       12873          BO    BKS074              SEE IF S MODE                        70128021
 009A92 9110 D893      0BDD3       12874          TM    BUFOPT,XX10         S-R-A                                70134021
 009A96 4780 F89A      09AA2       12875          BZ    BKSKY1             NO                                    70140021
 009A9A 9103 A013      00013       12876          TM    DX19(R10),XX03      BISAM                                70146021
 009A9E 4740 FB2E      09D36       12877          BM    BKS073             NO, RETURN                            70152021
 009AA2 5850 D898      0BDD8       12878 BKSKY1   L     R5,LOCDEC                                                70158021
 009AA6 4155 000C      0000C       12879          LA    R5,DX12(R5)         R5=A(DECBUFADR)=DECB+12              70164021
 009AAA 1B66                       12880          SR    R6,R6                                                    70170021
 009AAC 4360 D8A1      0BDE1       12881          IC    R6,DECBLN           R6= DECB LGN                         70176021
1PH20     IKFCBL20                                                                                              PAGE  297
-  LOC  OBJECT CODE    ADDR1 ADDR2  STMT   SOURCE STATEMENT                                       ASM 0201 11.03 02/14/15
0009AB0 D203 B148 D904 00148 0BE44 12882 BKS048   MVC   LOCCTR(LX4),SAV01L       L                               70182021
 009AB6 5880 B148      00148       12883          L     R8,LOCCTR                                                70188021
 009ABA 4188 0007      00007       12884          LA    R8,DX7(R8)                                               70194021
 009ABE 5480 D4F0      0BA30       12885        N     R8,MK0129           R8 ON R0 BOUNDARY                      70200021
 009AC2 5050 DDEC      0C32C       12886 BKS049   ST    R5,LITBUF           TARGET ADDRESS                       70206021
 009AC6 5080 DDF0      0C330       12887          ST    R8,LITBUF+NX4        SOURCE ADDRESS                      70212021
 009ACA 922C DDEC      0C32C       12888          MVI   LITBUF,XX2C          ADCONDEF  CODE                      70218021
 009ACE 9204 DDF0      0C330       12889          MVI   LITBUF+NX4,XX04      ADCON LGN = 4                       70224021
 009AD2 5810 DB84      0C0C4       12890          L     R1,COSADR                                                70230021
 009AD6 4120 DDEC      0C32C       12891          LA    R2,LITBUF                                                70236021
 009ADA 4130 0008      00008       12892          LA    R3,DX8                                                   70242021
 009ADE 0501                       12893          BALR  R0,R1               PUT OUT ADCONDEF ON FILE 4           70248021
 009AE0 14                         12894          DC    X'14'                                                    70254021
                                   12895 *PUT OUT BLKADEF- BLOCK ADDRESS DEFINITION                              70260021
 009AE1 00
 009AE2 1898                       12896 BKS055   LR    R9,R8                                                    70266021
 009AE4 1A84                       12897          AR    R8,R4                                                    70272021
 009AE6 5080 B148      00148       12898          ST    R8,LOCCTR         )                                      70278021
 009AEA 5080 D904      0BE44       12899          ST    R8,SAV01L           AND SAV01L                           70284021
 009AEE 9102 D8A0      0BDE0       12900          TM    ACCMTH,XX02         IS IT BISAM                          70290021
 009AF2 47E0 F8FE      09B06       12901        BC    NOTONE,BKS056         NO                                   70296021
 009AF6 9110 D893      0BDD3       12902          TM    BUFOPT,XX10         S-R-A.                               70302021
 009AFA 4710 FB2E      09D36       12903          BO    BKS073              NO                                   70308021
 009AFE 4199 0010      00010       12904          LA    R9,DX16(R9)         YES, ADDR. IS A(BUFFER)+16           70314021
 009B02 47F0 F912      09B1A       12905        BC    UNCOND,BKS057         CONTINUE                             70320021
                             09B06 12906 BKS056 EQU   *                                                          70326021
 009B06 9104 D892      0BDD2       12907          TM    RCDFM,XX04          MODE V?                              70332021
 009B0A 4780 F912      09B1A       12908          BZ    BKS057             NO.                                   70338021
 009B0E 91C0 D892      0BDD2       12909          TM    RCDFM,XXC0           ADV                                 70344021
 009B12 4770 F912      09B1A       12910          BNZ   BKS057              NO                                   70350021
 009B16 4199 0008      00008       12911          LA    R9,DX8(R9)          YES. ADDRESS IS A(BUFFER)+8          70356021
 009B1A 9148 DD23      0C263       12912 BKS057   TM    RECFM,XX48           VRE                                 70362021
 009B1E 47E0 FA3E      09C46       12913          BC    NOTONE,BKS059       BRANCH                               70368021
 009B22 5830 D894      0BDD4       12914          L     R3,LOCDCB           YES, GEN A(AREA)                     70374021
 009B26 9104 D8A0      0BDE0       12915          TM    ACCMTH,XX04          BSAM                                70380021
 009B2A 4780 F93E      09B46       12916          BZ    BKS058              NO, QSAM                             70386021
 009B2E 4133 0064      00064       12917          LA    R3,DX100(R3)         DCB + 100                           70392021
 009B32 5820 B148      00148       12918          L     R2,LOCCTR                                                70398021
 009B36 4122 0004      00004       12919          LA    R2,DX4(R2)           UPDATE VALUE BY 4 MORE              70404021
 009B3A 5020 B148      00148       12920          ST    R2,LOCCTR           SAVE IT                              70410021
 009B3E 5020 D904      0BE44       12921          ST    R2,SAV01L                                                70416021
 009B42 47F0 F942      09B4A       12922          B     BKS58B              SKIP NEXT INSTRUCTION                70422021
 009B46 4133 0070      00070       12923 BKS058   LA    R3,DX112(R3)                                             70428021
 009B4A 5030 DDEC      0C32C       12924 BKS58B   ST    R3,LITBUF                                                70434021
 009B4E 922C DDEC      0C32C       12925          MVI   LITBUF,XX2C          ADDRESS CONSTANT                    70440021
 009B52 5090 DDF0      0C330       12926          ST    R9,LITBUF+NX4                                            70446021
 009B56 9204 DDF0      0C330       12927          MVI   LITBUF+NX4,XX04      ADCON LENGTH                        70452021
 009B5A 4130 0008      00008       12928          LA    R3,DX8               COUNT                               70458021
 009B5E 4120 DDEC      0C32C       12929          LA    R2,LITBUF                                                70464021
 009B62 5810 DB84      0C0C4       12930          L     R1,COSADR                                                70470021
 009B66 0501                       12931          BALR  R0,R1               GEN CONDEF                           70476021
 009B68 14                         12932          DC    X'14'                                                    70482021
 009B69 00
 009B6A 910E D8A0      0BDE0       12933          TM    ACCMTH,XX0E          QSAM                                70488021
 009B6E 4780 FA74      09C7C       12934          BZ    BKS066              YES, RETURN                          70494021
1PH20     IKFCBL20                                                                                              PAGE  298
-  LOC  OBJECT CODE    ADDR1 ADDR2  STMT   SOURCE STATEMENT                                       ASM 0201 11.03 02/14/15
0009B72 5880 B148      00148       12935          L     R8,LOCCTR                                                70500021
 009B76 4188 0007      00007       12936          LA    R8,DX7(R8)                                               70506021
 009B7A 5480 D4F0      0BA30       12937          N     R8,MK0129           GET ON DOUBLE WD                     70512021
 009B7E 5830 D894      0BDD4       12938          L     R3,LOCDCB           A(DCB)                               70518021
 009B82 4133 005C      0005C       12939          LA    R3,DX92(R3)          DCB + 92                            70524021
 009B86 5030 DDEC      0C32C       12940          ST    R3,LITBUF                                                70530021
 009B8A 922C DDEC      0C32C       12941          MVI   LITBUF,XX2C          CODE                                70536021
 009B8E 5080 DDF0      0C330       12942          ST    R8,LITBUF+NX4        A(SEG WK AREA)                      70542021
 009B92 9204 DDF0      0C330       12943          MVI   LITBUF+NX4,XX04      ADCON LENGTH                        70548021
 009B96 4130 0008      00008       12944          LA    R3,DX8               COUNT                               70554021
 009B9A 4120 DDEC      0C32C       12945          LA    R2,LITBUF                                                70560021
 009B9E 5810 DB84      0C0C4       12946          L     R1,COSADR                                                70566021
 009BA2 0501                       12947          BALR  R0,R1               GEN FOR DCB                          70572021
 009BA4 14                         12948          DC    X'14'                                                    70578021
 009BA5 00
 009BA6 5080 DDEC      0C32C       12949          ST    R8,LITBUF           TARGET ADDRESS                       70584021
 009BAA 922C DDEC      0C32C       12950          MVI   LITBUF,XX2C                                              70590021
 009BAE 4128 000C      0000C       12951          LA    R2,DX12(R8)          A (SEG WK AREA + 12)                70596021
 009BB2 5020 DDF0      0C330       12952          ST    R2,LITBUF+NX4                                            70602021
 009BB6 9204 DDF0      0C330       12953          MVI   LITBUF+NX4,XX04      ADCON COUNT                         70608021
 009BBA 4130 0008      00008       12954          LA    R3,DX8                                                   70614021
 009BBE 4120 DDEC      0C32C       12955          LA    R2,LITBUF                                                70620021
 009BC2 5810 DB84      0C0C4       12956          L     R1,COSADR                                                70626021
 009BC6 0501                       12957          BALR  R0,R1               BR TO COMMON                         70632021
 009BC8 14                         12958          DC    X'14'                                                    70638021
 009BC9 00
 009BCA 4188 0004      00004       12959          LA    R8,DX4(R8)           A(SEG WK AREA + 4)                  70644021
 009BCE 4560 F9CE      09BD6       12960          BAL   R6,BKS58D           GO GEN FIELDS                        70650021
 009BD2 47F0 FA2E      09C36       12961          B     BKS58G              BRANCH                               70656021
 009BD6 5080 DDEC      0C32C       12962 BKS58D   ST    R8,LITBUF                                                70662021
 009BDA 9228 DDEC      0C32C       12963          MVI   LITBUF,XX28          CODE                                70668021
 009BDE D202 DDF0 D405 0C330 0B945 12964          MVC   LITBUF+NX4(LX3),FOUR+NX1 COUNT                           70674021
 009BE4 D201 DDF3 D3FA 0C333 0B93A 12965          MVC   LITBUF+NX7(LX2),ONE+NX2 BUFNO = 1                        70680021
 009BEA 5840 DEB0      0C3F0       12966 BKS58E   L     R4,MAXIM                                                 70686021
 009BEE 4144 0008      00008       12967          LA    R4,DX8(R4)               PLUS 8                          70692021
 009BF2 910F D937      0BE77       12968          TM    SAMERS+NX11,XX0F    TRACK CAPACITY                       70698021
 009BF6 4780 FA0E      09C16       12969          BZ    BKS58F              NO                                   70704021
 009BFA 1B22                       12970          SR    R2,R2               YES, FIND MINIMUM                    70710021
 009BFC 4320 D937      0BE77       12971          IC    R2,SAMERS+NX11      KIND OF DEVICE                       70716021
 009C00 5420 D4CC      0BA0C       12972          N     R2,MK0015           GET RID OF OTHER BITS                70722021
 009C04 4110 D286      0B7C6       12973          LA    R1,TRKCAP           A(TABLE)                             70728021
 009C08 1A12                       12974          AR    R1,R2               POINT TO PROPER ENTRY                70734021
 009C0A 4941 0000      00000       12975          CH    R4,DX0(R1)           WANT MINIMUM                        70740021
 009C0E 4740 FA0E      09C16       12976          BL    BKS58F              LRECL MIN                            70746021
 009C12 4841 0000      00000       12977          LH    R4,DX0(R1)           ADD TRACK CAPACITY                  70752021
 009C16 4144 000A      0000A       12978 BKS58F   LA    R4,DM10(R4)         ADD 10 FOR DATA MANG                 70758021
 009C1A 4040 D900      0BE40       12979          STH   R4,FULLWD           SAVE TO GEN LATER                    70764021
 009C1E D201 DDF5 D900 0C335 0BE40 12980          MVC   LITBUF+NX9(LX2),FULLWD                                   70770021
 009C24 4130 000B      0000B       12981          LA    R3,DX11                                                  70776021
 009C28 4120 DDEC      0C32C       12982          LA    R2,LITBUF                                                70782021
 009C2C 5810 DB84      0C0C4       12983          L     R1,COSADR                                                70788021
 009C30 0501                       12984          BALR  R0,R1               BRANCH TO COMMON                     70794021
 009C32 14                         12985          DC    X'14'                                                    70800021
 009C33 00
 009C34 07F6                       12986          BR    R6                  RETURN TO CALLER                     70806021
1PH20     IKFCBL20                                                                                              PAGE  299
-  LOC  OBJECT CODE    ADDR1 ADDR2  STMT   SOURCE STATEMENT                                       ASM 0201 11.03 02/14/15
0009C36 4188 4008      00008       12987 BKS58G   LA    R8,DX8(R8,R4)        MAXIM + 22                          70812021
 009C3A 5080 B148      00148       12988          ST    R8,LOCCTR                                                70818021
 009C3E 5080 D904      0BE44       12989          ST    R8,SAV01L                                                70824021
 009C42 4199 0008      00008       12990          LA    R9,DX8(R9)           AREA + 8                            70830021
 009C46 5090 DDEC      0C32C       12991 BKS059   ST    R9,LITBUF                                                70836021
 009C4A 920C DDEC      0C32C       12992          MVI   LITBUF,XX0C          BLKADEF CODE                        70842021
 009C4E D200 DDF0 DF4A 0C330 0C48A 12993          MVC   LITBUF+NX4(LX1),FD+NX2 BL= (FIRST FOR FD)                70848021
 009C54 D201 DDF1 DF4E 0C331 0C48E 12994          MVC   LITBUF+NX5(LX2),FD+NX6 RPD=                              70854021
 009C5A 5840 DEB0      0C3F0       12995          L     R4,MAXIM                                                 70860021
 009C5E 8840 0002      00002       12996          SRL   R4,DX2       SIZE IN WORDS-BDAM BLO ALSO                 70866021
 009C62 4040 D900      0BE40       12997          STH   R4,FULLWD                                                70872021
 009C66 D201 DDF3 D900 0C333 0BE40 12998          MVC   LITBUF+NX7(LX2),FULLWD                                   70878021
 009C6C 5810 DB84      0C0C4       12999 BKS060   L     R1,COSADR                                                70884021
 009C70 4120 DDEC      0C32C       13000          LA    R2,LITBUF                                                70890021
 009C74 4130 0009      00009       13001          LA    R3,DX9                                                   70896021
 009C78 0501                       13002          BALR  R0,R1               PUT OUT BLKADEF ON FILE 4            70902021
 009C7A 14                         13003          DC    X'14'                                                    70908021
 009C7B 00
 009C7C 58E0 D9D0      0BF10       13004 BKS066   L     R14,RS14B                                                70914021
 009C80 07FE                       13005          BCR   UNCOND,R14          RETURN                               70920021
                                   13006 * QUEUED FILE                                                           70926021
 009C82 9110 D893      0BDD3       13007 BKS072   TM    BUFOPT,XX10         S-R-A?                               70932021
 009C86 4710 FC2C      09E34       13008          BO    SAMERCD            YES.                                  70938021
 009C8A 9120 D893      0BDD3       13009 BKSQSM   TM    BUFOPT,XX20         S-A?                                 70944021
 009C8E 4710 FB64      09D6C       13010          BO    QSAME              YES.                                  70950021
 009C92 91C1 D892      0BDD2       13011 BKSQSM1  TM    RCDFM,XXC1          S OR ADV?                            70956021
 009C96 4780 FB2E      09D36       13012          BZ    BKS073              NO                                   70962021
 009C9A 9101 D892      0BDD2       13013          TM    RCDFM,XX01           S MODE                              70968021
 009C9E 4780 FAC4      09CCC       13014          BZ    BKSQSMA             NO                                   70974021
 009CA2 5830 D894      0BDD4       13015          L     R3,LOCDCB           NO, SET BIT ON IN BUFTEX             70980021
 009CA6 4133 0020      00020       13016          LA    R3,DX32(R3)          DCB + 32                            70986021
 009CAA 5030 DDEC      0C32C       13017          ST    R3,LITBUF           ADDRESS                              70992021
 009CAE 9228 DDEC      0C32C       13018          MVI   LITBUF,XX28          CODE                                70998021
 009CB2 D202 DDF0 D3F9 0C330 0B939 13019          MVC   LITBUF+NX4(LX3),ONE+NX1 CONSTANT LENGTH                  71004021
 009CB8 9262 DDF3      0C333       13020          MVI   LITBUF+NX7,XX62                                          71010021
 009CBC 4120 DDEC      0C32C       13021          LA    R2,LITBUF                                                71016021
 009CC0 4130 0008      00008       13022          LA    R3,DX8                                                   71022021
 009CC4 5810 DB84      0C0C4       13023          L     R1,COSADR                                                71028021
 009CC8 0501                       13024          BALR  R0,R1               BRANCH TO COMMON                     71034021
 009CCA 14                         13025          DC    X'14'                                                    71040021
 009CCB 00
 009CCC 9110 D893      0BDD3       13026 BKSQSMA  TM    BUFOPT,XX10          S-R-A                               71046021
 009CD0 4710 FB2E      09D36       13027          BO    BKS073              YES, RCD AREA PROCESSING IN  WSEND   71052021
 009CD4 9120 D893      0BDD3       13028          TM    BUFOPT,XX20          S-A                                 71058021
 009CD8 4710 FADC      09CE4       13029          BO    BKSQSMB             YES, PROCESS RCD AREA                71064021
 009CDC 91C0 D892      0BDD2       13030          TM    RCDFM,XXC0           ADVANCING                           71070021
 009CE0 47B0 FB2E      09D36       13031          BC    NOTMXD,BKS073       NO                             07878 71076021
                                   13032 *DEL                                                                    71082021
 009CE4 D203 B148 D904 00148 0BE44 13033 BKSQSMB  MVC   LOCCTR(LX4),SAV01L                                       71088021
 009CEA 5880 B148      00148       13034          L     R8,LOCCTR                                                71094021
 009CEE 9101 D892      0BDD2       13035          TM    RCDFM,XX01           S                                   71100021
 009CF2 4780 FB0A      09D12       13036          BZ    BKSQSM2             NO                                   71106021
 009CF6 5480 D4EC      0BA2C       13037          N     R8,MK0930           YES, MAKE FULL NOT DOUBLE            71112021
 009CFA 9104 B14B      0014B       13038          TM    LOCCTR+NX3,XX04      ON DOUBLE                           71118021
 009CFE 4780 FB02      09D0A       13039          BZ    BKSMSQ3             YES                                  71124021
1PH20     IKFCBL20                                                                                              PAGE  300
-  LOC  OBJECT CODE    ADDR1 ADDR2  STMT   SOURCE STATEMENT                                       ASM 0201 11.03 02/14/15
0009D02 4188 0008      00008       13040          LA    R8,DX8(R8)           PUT ON NEXT FULL                    71130021
 009D06 47F0 FB12      09D1A       13041          B     BKSQSM6             PROCESS LIKE REST                    71136021
 009D0A 4188 0004      00004       13042 BKSMSQ3  LA    R8,DX4(R8)           GET OFF DOUBLE ON FULL              71142021
 009D0E 47F0 FB12      09D1A       13043          B     BKSQSM6             PROCESS LIKE REST                    71148021
 009D12 4188 0007      00007       13044 BKSQSM2  LA    R8,DX7(R8)           R8 ON F-WORD BOUNDARY               71154021
 009D16 5480 D4F0      0BA30       13045          N     R8,MK0129                                                71160021
 009D1A 5840 DEB0      0C3F0       13046 BKSQSM6  L     R4,MAXIM                                                 71166021
 009D1E 4144 0007      00007       13047          LA    R4,DX7(R4)                                               71172021
 009D22 5440 D4F0      0BA30       13048          N     R4,MK0129                                                71178021
 009D26 9101 D892      0BDD2       13049          TM    RCDFM,XX01           S                                   71184021
 009D2A 4780 F8DA      09AE2       13050          BZ    BKS055              NO                                   71190021
 009D2E 4144 0024      00024       13051          LA    R4,DX36(R4)          YES, ADD 36                         71196021
 009D32 47F0 F8DA      09AE2       13052          B     BKS055             GENERATE BLKDEF FOR RCD-AREA.         71202021
 009D36 58E0 D9D0      0BF10       13053 BKS073   L     R14,RS14B                                                71208021
 009D3A 07FE                       13054          BR    R14                RETURN.                               71214021
 009D3C 9101 D892      0BDD2       13055 BKS074   TM    RCDFM,XX01           S MODE                              71220021
 009D40 4780 FB2E      09D36       13056          BZ    BKS073              NO, GO OUT                           71226021
 009D44 5880 D894      0BDD4       13057          L     R8,LOCDCB           A(DCB)                               71232021
 009D48 4188 0068      00068       13058          LA    R8,DX104(R8)                   + 104                     71238021
 009D4C 4560 F9CE      09BD6       13059          BAL   R6,BKS58D           GEN FIELDS                           71244021
 009D50 5880 DADC      0C01C       13060          L     R8,PSAME                                                 71250021
 009D54 5888 0000      00000       13061          L     R8,DX0(R8)                                               71256021
 009D58 5888 0000      00000       13062          L     R8,DX0(R8)                                               71262021
 009D5C 5480 D4C4      0BA04       13063          N     R8,MK0932           CLEAR TOP BYTE                       71268021
 009D60 5A80 D918      0BE58       13064          A     R8,SMARPT           POINT TO PROPER ENTRY                71274021
 009D64 9640 800B      0000B       13065          OI    DX11(R8),BASICS     S-A BASIC FILE S-MODE                71280021
 009D68 47F0 FB2E      09D36       13066          B     BKS073              RESTORE @, RETURN                    71286021
 009D6C 4144 0007      00007       13067 QSAME    LA    R4,DX7(R4)                                               71292021
 009D70 5440 D4F0      0BA30       13068          N     R4,MK0129          BUFLN=BLKSIZE  MOD 8                  71298021
 009D74 9101 D8A0      0BDE0       13069          TM    ACCMTH,XX01         QISAM.                               71304021
 009D78 4780 FB78      09D80       13070          BZ    QSAME1             NO.                                   71310021
 009D7C 4144 0010      00010       13071          LA    R4,DX16(R4)                                              71316021
 009D80 5830 D894      0BDD4       13072 QSAME1   L     R3,LOCDCB                                                71322021
 009D84 4133 0018      00018       13073          LA    R3,DX24(R3)         DCB BUFLN=DCB+24                     71328021
 009D88 5030 DDEC      0C32C       13074          ST    R3,LITBUF                                                71334021
 009D8C 9228 DDEC      0C32C       13075          MVI   LITBUF,XX28           CODE                               71340021
 009D90 D203 DDF0 D3FD 0C330 0B93D 13076          MVC   LITBUF+NX4,TWO+NX1   CONSTANT LGN                        71346021
 009D96 4040 D900      0BE40       13077          STH   R4,FULLWD                                                71352021
 009D9A D201 DDF3 D900 0C333 0BE40 13078          MVC   LITBUF+NX7(LX2),FULLWD CONSTANT (BUFLN)                  71358021
 009DA0 4120 DDEC      0C32C       13079          LA    R2,LITBUF                                                71364021
 009DA4 4130 0009      00009       13080          LA    R3,DX9                                                   71370021
 009DA8 5810 DB84      0C0C4       13081          L     R1,COSADR           PUT OUT CONDEF ON FILE 4             71376021
 009DAC 0501                       13082          BALR  R0,R1               BR TO COMMON                         71382021
 009DAE 14                         13083          DC    X'14'                                                    71388021
 009DAF 00
 009DB0 D202 D92D D895 0BE6D 0BDD5 13084          MVC   SAMERS+NX1(LX3),LOCDCB+NX1                               71394021
 009DB6 91C1 D892      0BDD2       13085          TM    RCDFM,XXC1                                               71400021
 009DBA 4780 FBBA      09DC2       13086          BZ    *+8                 SKIP NEXT INSTRUCTION                71406021
 009DBE 9640 D936      0BE76       13087          OI    SAMERS+NX10,XX40    SET RECORD AREA BIT IN ENTRY.        71412021
 009DC2 9101 D892      0BDD2       13088          TM    RCDFM,XX01           S MODE                              71418021
 009DC6 4780 FBC6      09DCE       13089          BZ    *+8                 NO                                   71424021
 009DCA 9680 D937      0BE77       13090          OI    SAMERS+NX11,XX80    SET S-MODE BIT ON                    71430021
 009DCE 47F0 FBCA      09DD2       13091          BC    UNCOND,BKS078       CONTINUE PROCESSING                  71436021
                                   13092 *                                                                       71442021
                                   13093 *  SAME AREA CLAUSE GIVEN. BLKSIZE IS PUT INTO SAMETBL ENTRY.           71448021
1PH20     IKFCBL20                                                                                              PAGE  301
-  LOC  OBJECT CODE    ADDR1 ADDR2  STMT   SOURCE STATEMENT                                       ASM 0201 11.03 02/14/15
0                                  13094 *                                                                       71454021
 009DD2 4040 D932      0BE72       13095 BKS078   STH   R4,SAMERS+NX6        STORE BUFLN IN SAME AREA            71460021
 009DD6 D200 D934 DF4A 0BE74 0C48A 13096          MVC   SAMERS+NX8(LX1),FD+NX2 1ST BL NO.                        71466021
 009DDC 9104 D892      0BDD2       13097          TM    RCDFM,XX04          V MODE?                              71472021
 009DE0 4780 FBE0      09DE8       13098          BZ    *+8                 SKIP NEXT INSTRUCTION                71478021
 009DE4 9680 D936      0BE76       13099          OI    SAMERS+NX10,XX80                                         71484021
 009DE8 9140 D5A3      0BAE3       13100          TM    PTBLSW,XX40          IS SAMETB PRIMED.                   71490021
 009DEC 4710 FBF6      09DFE       13101          BC    ONES,BKS080            YES.                              71496021
 009DF0 4110 DADC      0C01C       13102          LA    R1,PSAME                PRIME SAMETB TABLE.              71502021
 009DF4 58F0 DCE4      0C224       13103          L     R15,BPRIME                                               71508021
 009DF8 05EF                       13104          BALR  R14,R15             BR TO PRIME RTN                      71514021
 009DFA 9640 D5A3      0BAE3       13105          OI    PTBLSW,XX40              AND SET SW TO INDICATE SO.      71520021
 009DFE 5810 DADC      0C01C       13106 BKS080   L     R1,PSAME                                                 71526021
 009E02 58F0 DCE8      0C228       13107          L     R15,BINSRT                                               71532021
 009E06 05EF                       13108          BALR  R14,R15             BR TO INSERT RTN                     71538021
 009E08 58F0 D98C      0BECC       13109          L     R15,RS0                                                  71544021
 009E0C 5030 D918      0BE58       13110          ST    R3,SMARPT          SAME TABLE DISPLACEMENT               71550021
 009E10 D20B 2000 D92C 00000 0BE6C 13111          MVC   DX0(LX12,R2),SAMERS ENTER                                71556021
 009E16 9103 A013      00013       13112          TM    DX19(R10),XX03      BASIC FILE                           71562021
 009E1A 4740 FC1A      09E22       13113          BM    BKS087              YES                                  71568021
 009E1E 47F0 FA8A      09C92       13114          B     BKSQSM1            NO.                                   71574021
 009E22 9101 D892      0BDD2       13115 BKS087   TM    BUFCAS+DX10,SMODE   S MODE                               71580021
 009E26 4780 F87A      09A82       13116          BZ    BKSKY0              NO                                   71586021
 009E2A D202 2001 D895 00001 0BDD5 13117          MVC   DX1(DX3,R2),LOCDCB+NX1  CHANGE TO ADD OF DCB             71592021
 009E30 47F0 F87A      09A82       13118          B     BKSKY0              CHECK IF KEY MUST BE RESOLVED        71598021
 009E34 9640 D936      0BE76       13119 SAMERCD  OI    SAMERS+NX10,XX40                                         71604021
 009E38 D201 D952 DEB2 0BE92 0C3F2 13120          MVC   SMRCDRS+NX4(LX2),MAXIM+NX2 FD MAX.                       71610021
 009E3E D200 D954 DF4A 0BE94 0C48A 13121          MVC   SMRCDRS+NX6(LX1),FD+NX2   1ST BL NO.                     71616021
 009E44 9105 D892      0BDD2       13122          TM    RCDFM,XX05                                               71622021
 009E48 4780 FC48      09E50       13123          BZ    *+8                 SKIP NEXT INSTRUCTION                71628021
 009E4C 9680 D956      0BE96       13124          OI    SMRCDRS+NX8,XX80                                         71634021
 009E50 9120 D5A6      0BAE6       13125          TM    PRMSW,XX20               TBL PRIMED?                     71640021
 009E54 4710 FC5E      09E66       13126          BO    SAMERCD1                YES.                             71646021
 009E58 4110 DAE4      0C024       13127          LA    R1,PSMRCD               NO.                              71652021
 009E5C 58F0 DCE4      0C224       13128          L     R15,BPRIME              PRIME SAME RCD TBL.              71658021
 009E60 05EF                       13129          BALR  R14,R15             BR TO PRIME RTN                      71664021
 009E62 9620 D5A6      0BAE6       13130          OI    PRMSW,XX20               TBL  PRIMED BIT ON.             71670021
 009E66 5810 DAE4      0C024       13131 SAMERCD1 L     R1,PSMRCD                                                71676021
 009E6A 58F0 DCE8      0C228       13132          L     R15,BINSRT                                               71682021
 009E6E 05EF                       13133          BALR  R14,R15             INSERT ENTRY INTO TBL                71688021
 009E70 58F0 D98C      0BECC       13134          L     R15,RS0                                                  71694021
 009E74 D209 2000 D94E 00000 0BE8E 13135          MVC   DX0(LX10,R2),SMRCDRS  MOVE ENTRY INTO TBL                71700021
 009E7A 5030 D91C      0BE5C       13136          ST    R3,SMRCPT               SM RCD TBL DISPLACEMENT          71706021
 009E7E 9103 A013      00013       13137          TM    DX19(R10),XX03           BASIC FILE?                     71712021
 009E82 4740 FD8C      09F94       13138          BM    SAMERCD4            YES                                  71718021
 009E86 4710 F872      09A7A       13139          BO    BKSSM1              TEST FOR SAME AREA                   71724021
 009E8A 9101 D892      0BDD2       13140          TM    RCDFM,SMODE         S MODE                               71730021
 009E8E 4780 FA82      09C8A       13141          BZ    BKSQSM              NO                                   71736021
 009E92 9680 2007      00007       13142          OI    DX7(R2),QSMODE      QSAM S BIT                           71742021
 009E96 9120 D893      0BDD3       13143          TM    BUFOPT,XX20          S-A                                 71748021
 009E9A 4710 FA82      09C8A       13144          BO    BKSQSM              BRANCH TO BKSQSM                     71754021
 009E9E D203 B148 D904 00148 0BE44 13145          MVC   LOCCTR(LX4),SAV01L                                       71760021
 009EA4 5880 B148      00148       13146          L     R8,LOCCTR                                                71766021
 009EA8 4188 0007      00007       13147          LA    R8,DX7(R8)           R8 ON WORD BOUNDARY                 71772021
 009EAC 5480 D4F0      0BA30       13148          N     R8,MK0129                                                71778021
1PH20     IKFCBL20                                                                                              PAGE  302
-  LOC  OBJECT CODE    ADDR1 ADDR2  STMT   SOURCE STATEMENT                                       ASM 0201 11.03 02/14/15
0009EB0 1898                       13149          LR    R9,R8                                                    71784021
 009EB2 4870 D930      0BE70       13150          LH    R7,SAMERS+NX4        BUFNO                               71790021
 009EB6 D201 DF3C DDF3 0C47C 0C333 13151          MVC   MTEMP1(LX2),LITBUF+NX7 BLKSZE                            71796021
 009EBC 4850 DF3C      0C47C       13152          LH    R5,MTEMP1                                                71802021
 009EC0 5090 DDF0      0C330       13153          ST    R9,LITBUF+NX4        A(EXT BUFCB)                        71808021
 009EC4 9203 DDF0      0C330       13154          MVI   LITBUF+NX4,XX03      COUNT                               71814021
 009EC8 5810 D894      0BDD4       13155          L     R1,LOCDCB           A(DCB)                               71820021
 009ECC 4111 0015      00015       13156          LA    R1,DX21(R1)                                              71826021
 009ED0 5010 DDEC      0C32C       13157          ST    R1,LITBUF           DCB + 21                             71832021
 009ED4 922C DDEC      0C32C       13158          MVI   LITBUF,XX2C          CODE                                71838021
 009ED8 4120 DDEC      0C32C       13159          LA    R2,LITBUF                                                71844021
 009EDC 4130 0008      00008       13160          LA    R3,DX8                                                   71850021
 009EE0 5810 DB84      0C0C4       13161          L     R1,COSADR                                                71856021
 009EE4 0501                       13162          BALR  R0,R1               GEN A( EXT BUFCB)                    71862021
 009EE6 14                         13163          DC    X'14'                                                    71868021
 009EE7 00
 009EE8 5090 DDF0      0C330       13164          ST    R9,LITBUF+NX4        BUFFER START                        71874021
 009EEC 5830 D894      0BDD4       13165          L     R3,LOCDCB                                                71880021
 009EF0 4133 0068      00068       13166          LA    R3,DX104(R3)         DCB + 104                           71886021
 009EF4 5030 DDEC      0C32C       13167          ST    R3,LITBUF                                                71892021
 009EF8 922C DDEC      0C32C       13168          MVI   LITBUF,XX2C          CODE                                71898021
 009EFC 4188 000C      0000C       13169          LA    R8,DX12(R8)          POINTS TO START OF BUFFER           71904021
                                   13170 *                                                                       71910021
 009F00 9204 DDF0      0C330       13171          MVI   LITBUF+NX4,XX04      COUNT                               71916021
 009F04 4120 DDEC      0C32C       13172          LA    R2,LITBUF                                                71922021
 009F08 4130 0008      00008       13173          LA    R3,DX8                                                   71928021
 009F0C 5810 DB84      0C0C4       13174          L     R1,COSADR                                                71934021
 009F10 0501                       13175          BALR  R0,R1               GEN A(BUFF)                          71940021
 009F12 14                         13176          DC    X'14'                                                    71946021
 009F13 00
 009F14 5830 D894      0BDD4       13177          L     R3,LOCDCB                                                71952021
 009F18 4133 006C      0006C       13178          LA    R3,DX108(R3)           DCB + 108                         71958021
 009F1C 5030 DDEC      0C32C       13179          ST    R3,LITBUF                                                71964021
 009F20 9228 DDEC      0C32C       13180          MVI   LITBUF,XX28          CODE                                71970021
 009F24 D202 DDF0 D419 0C330 0B959 13181          MVC   LITBUF+NX4(LX3),NINE+NX1                                 71976021
 009F2A 9200 DDF3      0C333       13182          MVI   LITBUF+NX7,XX00                                          71982021
 009F2E 4270 DDF4      0C334       13183          STC   R7,LITBUF+NX8        BUFNO                               71988021
 009F32 4050 DF3C      0C47C       13184          STH   R5,MTEMP1                                                71994021
 009F36 D201 DDF5 DF3C 0C335 0C47C 13185          MVC   LITBUF+NX9(LX2),MTEMP1 BUFLN                             72000021
 009F3C 9280 DDFB      0C33B       13186          MVI   LITBUF+NX15,XX80     FLAG BYTE                           72006021
 009F40 4120 DDEC      0C32C       13187          LA    R2,LITBUF                                                72012021
 009F44 4130 0010      00010       13188          LA    R3,DX16                                                  72018021
 009F48 5810 DB84      0C0C4       13189          L     R1,COSADR                                                72024021
 009F4C 0501                       13190          BALR  R0,R1               GEN BUFFER FIELDS                    72030021
 009F4E 14                         13191          DC    X'14'                                                    72036021
 009F4F 00
 009F50 5830 D894      0BDD4       13192          L     R3,LOCDCB                                                72042021
 009F54 4133 0018      00018       13193          LA    R3,DX24(R3)          DCB + 24                            72048021
 009F58 5030 DDEC      0C32C       13194          ST    R3,LITBUF                                                72054021
 009F5C 9228 DDEC      0C32C       13195          MVI   LITBUF,XX28          CODE                                72060021
 009F60 D203 DDF0 D3FD 0C330 0B93D 13196          MVC   LITBUF+NX4,TWO+NX1   LENGTH                              72066021
 009F66 D201 DDF3 DF3C 0C333 0C47C 13197          MVC   LITBUF+NX7(LX2),MTEMP1   BUFLN                           72072021
 009F6C 4120 DDEC      0C32C       13198          LA    R2,LITBUF                                                72078021
 009F70 4130 0009      00009       13199          LA    R3,DX9               COUNT                               72084021
 009F74 5810 DB84      0C0C4       13200          L     R1,COSADR                                                72090021
1PH20     IKFCBL20                                                                                              PAGE  303
-  LOC  OBJECT CODE    ADDR1 ADDR2  STMT   SOURCE STATEMENT                                       ASM 0201 11.03 02/14/15
0009F78 0501                       13201          BALR  R0,R1               GO GEN ELEMENT                       72096021
 009F7A 14                         13202          DC    X'14'                                                    72102021
 009F7B 00
 009F7C 4070 DF3C      0C47C       13203          STH   R7,MTEMP1                                                72108021
 009F80 4C50 DF3C      0C47C       13204          MH    R5,MTEMP1           LENGTH OF BUFFER                     72114021
 009F84 4188 5006      00006       13205          LA    R8,DX6(R8,R5)        POINTS TO END OF BUFFER             72120021
 009F88 5080 B148      00148       13206          ST    R8,LOCCTR                                                72126021
 009F8C 5080 D904      0BE44       13207          ST    R8,SAV01L                                                72132021
 009F90 47F0 FA82      09C8A       13208          B     BKSQSM              RETURN                               72138021
 009F94 9101 D892      0BDD2       13209 SAMERCD4 TM    BUFCAS+NX10,XX01     S-MODE                              72144021
 009F98 47E0 F87A      09A82       13210          BC    NOTONE,BKSKY0       NO                                   72150021
 009F9C 9104 2008      00008       13211          TM    DX8(R2),XX04         BSAM                                72156021
 009FA0 4780 F872      09A7A       13212          BZ    BKSSM1              NO                                   72162021
 009FA4 D202 2001 D895 00001 0BDD5 13213          MVC   DX1(DX3,R2),LOCDCB+NX1 CHANGE TO ADD OF DCB              72168021
 009FAA 9640 2007      00007       13214          OI    DX7(R2),XX40        BSAM S-MODE                          72174021
 009FAE 47F0 F872      09A7A       13215          B     BKSSM1              TEST FOR SAME AREA (QUEUED)          72180021
 009FB2 5870 DAFC      0C03C       13216 BKS130   L     R7,BSMPAR           R7= A(BSAM TABLE TIB)                72186021
 009FB6 5887 0000      00000       13217          L     R8,DX0(R7)                                               72192021
 009FBA 5878 0000      00000       13218          L     R7,DX0(R8)                                               72198021
 009FBE 5470 D4C4      0BA04       13219          N     R7,MK0932                                                72204021
 009FC2 5880 D90C      0BE4C       13220          L     R8,BSAMPS                                                72210021
 009FC6 5480 D4C4      0BA04       13221          N     R8,MK0932                                                72216021
 009FCA 1A78                       13222          AR    R7,R8                                                    72222021
 009FCC D201 7000 DF3E 00000 0C47E 13223          MVC   DX0(LX2,R7),MTEMP1+NX2 MOVE BLKSIZE TO BSAMTB (TABLE)    72228021
 009FD2 D200 7002 DF4A 00002 0C48A 13224          MVC   DX2(LX1,R7),FD+NX2    MOVE 1ST BL OF FD TO TABLE         72234021
 009FD8 D207 7006 D918 00006 0BE58 13225          MVC   DX6(LX8,R7),SMARPT   MOVE SAME AREA TBLS PTR INTO TBL.   72240021
 009FDE D202 700E DF69 0000E 0C4A9 13226          MVC   DX14(LX3,R7),LASTDP+NX1 MOVE DICTIONARY PTR FOR FD.      72246021
 009FE4 940F D937      0BE77       13227          NI    SAMERS+NX11,XX0F    TURN OFF OTHER BITS                  72252021
 009FE8 D600 7011 D937 00011 0BE77 13228          OC    DX17(LX1,R7),SAMERS+NX11  TRACK CAPACITY                 72258021
 009FEE 9104 D892      0BDD2       13229          TM    RCDFM,XX04          V-MODE?                              72264021
 009FF2 4780 FDF2      09FFA       13230          BZ    *+8                NO.                                   72270021
 009FF6 9640 700E      0000E       13231          OI    DX14(R7),XX40       YES, SET V BIT IN TABLE ENTRY.       72276021
 009FFA 9101 D892      0BDD2       13232          TM    RCDFM,SMODE         S MODE                               72282021
 009FFE 4780 FE0E      0A016       13233          BZ    BKS140              NO                                   72288021
 00A002 9104 D8A0      0BDE0       13234          TM    ACCMTH,BSAM         BSAM                                 72294021
 00A006 4780 FE0A      0A012       13235          BZ    BKS135              NO, BDAM                             72300021
 00A00A 9620 7011      00011       13236          OI    X17(R7),BSAMS       SET BIT ON                           72306021
 00A00E 47F0 FE0E      0A016       13237          B     BKS140              RETURN                               72312021
 00A012 9640 7011      00011       13238 BKS135   OI    X17(R7),SBDAM       SET BIT ON                           72318021
 00A016 58E0 D9D0      0BF10       13239 BKS140   L     R14,RS14B                                                72324021
 00A01A 07FE                       13240          BCR   UNCOND,R14          RETURN                               72330021
                                   13241 *                                                                       72336021
                                   13242 *                                                                       72342021
                                   13243 *  BLOCK-CONTAINS CLAUSE NOT PRESENT. RECORDING MODE = F.               72348021
                                   13244 *                                                                       72354021
 00A01C 5840 DEB0      0C3F0       13245 BKS200   L     R4,MAXIM           MODE F                                72360021
 00A020 47F0 F7DC      099E4       13246          B     BKS020              TEST FOR VALID BLKSIZE               72366021
                                   13247 *                                                                       72372021
                                   13248 *  BLOCK CONTAINS RECORDS.                                              72378021
                                   13249 *                                                                       72384021
 00A024 4840 D890      0BDD0       13250 BKS300   LH    R4,BKCON2                                                72390021
 00A028 1244                       13251 BKS301   LTR   R4,R4              BLOCK CONTAINS 0 RECORDS?             72396021
 00A02A 4720 FE50      0A058       13252          BP    BKS303             NO - OK                               72402021
 00A02E 9120 D893      0BDD3       13253          TM    BUFOPT,XX20         YES. SAME AREA?                      72408021
 00A032 4710 FE3A      0A042       13254          BO    BKS302                  YES - ERROR.                     72414021
1PH20     IKFCBL20                                                                                              PAGE  304
-  LOC  OBJECT CODE    ADDR1 ADDR2  STMT   SOURCE STATEMENT                                       ASM 0201 11.03 02/14/15
000A036 9102 D8A0      0BDE0       13255          TM    ACCMTH,XX02         BISAM?                               72420021
 00A03A 4710 FE3A      0A042       13256          BO    BKS302             YES - ERROR.                          72426021
                                   13257 *        LA    R0,X'00BC'         NO - LEAVE BLKSI ZERO.                72432021
                                   13258 *        L     R15,AERRTN         MSG NO. 188 WARNING.                  72438021
                                   13259 *        BALR  R14,R15            BLK CONTAINS 0 RECORDS SPECIFIED      72444021
                                   13260 *        L     R15,RS0            BLKSI MUST BE SPECIFIED IN DD         72450021
 00A03E 47F0 F7DC      099E4       13261          B     BKS020             CARD.                                 72456021
 00A042 4100 00BD      000BD       13262 BKS302   LA    R0,X'00BD'         MSG NO. 189 ERROR.                    72462021
 00A046 58F0 DBC0      0C100       13263          L     R15,AERRTN         BLK CONTAIN 0 RECORDS CLAUSE          72468021
 00A04A 05EF                       13264          BALR  R14,R15            ILLEGAL FOR BISAM OR WITH SAME        72474021
 00A04C 58F0 D98C      0BECC       13265          L     R15,RS0            AREA CLAUSE. BLOCK CONTAINS           72480021
 00A050 94E7 D889      0BDC9       13266          NI    BLKLBL,XXE7                                              72486021
 00A054 47F0 F7C8      099D0       13267          B     BKS010              PROCESS BLKSIZE                      72492021
                                   13268 *              ONLY F,V MODE REACHES HERE. U,S DELETED BY NOW.          72498021
 00A058 5840 DEB0      0C3F0       13269 BKS303   L     R4,MAXIM           MODE IS FOR S.                        72504021
 00A05C 9104 D892      0BDD2       13270          TM    RCDFM,XX04          V?                                   72510021
 00A060 4780 FE60      0A068       13271          BZ    *+8                 SKIP NEXT INSTRUCTION                72516021
 00A064 4144 0004      00004       13272          LA    R4,DX4(R4)                                               72522021
 00A068 4C40 D890      0BDD0       13273          MH    R4,BKCON2                                                72528021
 00A06C 9104 D892      0BDD2       13274          TM    RCDFM,XX04          MODE V?                              72534021
 00A070 4780 F7DC      099E4       13275          BZ    BKS020              NO                                   72540021
 00A074 4144 0004      00004       13276          LA    R4,DX4(R4)                                               72546021
 00A078 47F0 F7DC      099E4       13277          B     BKS020              YES                                  72552021
                                   13278 *                                                                       72558021
                                   13279 *  BLOCK CONTAINS CHARACTERS.                                           72564021
                                   13280 *                                                                       72570021
 00A07C 4840 D890      0BDD0       13281 BKS350   LH    R4,BKCON2                INTEGER 2                 51301 72576021
 00A080 1244                       13282          LTR   R4,R4                    BLK CONTAINS 0 CHARS      51301 72582021
 00A082 4720 FE92      0A09A       13283          BP    BKS355                      NO  -  OK              51301 72588021
 00A086 9120 D893      0BDD3       13284          TM    BUFOPT,XX20               YES- IS IT SAME AREA     51301 72594021
 00A08A 4710 FE3A      0A042       13285          BO    BKS302                    YES, ERROR               51301 72600021
 00A08E 9102 D8A0      0BDE0       13286          TM    ACCMTH,XX02              IS IT BISAM               51301 72606021
 00A092 4710 FE3A      0A042       13287          BO    BKS302                   YES, ERROR                51301 72612021
 00A096 47F0 F7DC      099E4       13288          B     BKS020                     BR                      51301 72618021
 00A09A 1B44                       13289 BKS355   SR    R4,R4                       CLEAR R4               51301 72624021
 00A09C 9108 D892      0BDD2       13290          TM    RCDFM,XX08          F?                                   72630021
 00A0A0 4710 FEBC      0A0C4       13291          BO    BKS370              YES                                  72636021
 00A0A4 9105 D892      0BDD2       13292          TM    RCDFM,XX05               RECORDING MODE V OR S     41529 72642021
 00A0A8 4740 FEA8      0A0B0       13293          BM    BKS360                   BR TO BKS360              41529 72648021
 00A0AC 5840 D404      0B944       13294          L     R4,FOUR                                                  72654021
 00A0B0 4A40 D890      0BDD0       13295 BKS360   AH    R4,BKCON2                                                72660021
 00A0B4 5940 D404      0B944       13296          C     R4,FOUR             LENGTH OF BLKSIZE = 4          38294 72666021
 00A0B8 4720 F7DC      099E4       13297          BH    BKS020              BLKSIZE GREATER THAN 0         38294 72672021
 00A0BC 5840 D3F4      0B934       13298          L     R4,ZEROS            IT IS BLOCK CONTAINS ZERO      38294 72678021
 00A0C0 47F0 F7DC      099E4       13299          B     BKS020              TEST FOR VALID BLKSIZE               72684021
 00A0C4 4850 D890      0BDD0       13300 BKS370   LH    R5,BKCON2                                                72690021
 00A0C8 D503 DEB0 D3F4 0C3F0 0B934 13301          CLC   MAXIM(LX4),ZEROS    IS LRECL IS ZERO LENGTH        40624 72696021
 00A0CE 4780 F7DC      099E4       13302          BE    BKS020                   YES-DONT CHK BLK FACTOR   40624 72702021
 00A0D2 5D40 DEB0      0C3F0       13303        D     R4,MAXIM                                                   72708021
 00A0D6 5940 D3F4      0B934       13304        C     R4,ZEROS              IS BLOCK SIZE DIVISIBLE BY LRECL     72714021
 00A0DA 4780 FEA8      0A0B0       13305        BC    EQ,BKS360               YES - OK                           72720021
 00A0DE 5A50 D3F8      0B938       13306        A     R5,ONE                NO-ADD 1 TO NUMBER OF BLOCKS         72726021
 00A0E2 5C40 DEB0      0C3F0       13307        M     R4,MAXIM              MULTIPLY BY NUMBER OF BYTES          72732021
 00A0E6 1845                       13308        LR    R4,R5                                                      72738021
 00A0E8 4100 005F      0005F       13309          LA    R0,DX95              95  BLOCK CONTAINS HAS WRONG        72744021
1PH20     IKFCBL20                                                                                              PAGE  305
-  LOC  OBJECT CODE    ADDR1 ADDR2  STMT   SOURCE STATEMENT                                       ASM 0201 11.03 02/14/15
000A0EC 1B11                       13310        SR    R1,R1                     NUMBER OF BYTES                  72750021
 00A0EE 58F0 DBC0      0C100       13311        L     R15,AERRTN                                                 72756021
 00A0F2 05EF                       13312        BALR  R14,R15               ERROR RTN                            72762021
 00A0F4 58F0 D98C      0BECC       13313        L     R15,RS0                                                    72768021
 00A0F8 47F0 F7DC      099E4       13314        BC    UNCOND,BKS020         TEST FOR VALID BLKSIZE               72774021
 00A0FC 47F0 F7DC      099E4       13315 BKSS20   B     BKS020             S MODE. R4=MAXIM=BLKSI                72780021
1PH20     IKFCBL20                                                                                              PAGE  306
-  LOC  OBJECT CODE    ADDR1 ADDR2  STMT   SOURCE STATEMENT                                       ASM 0201 11.03 02/14/15
0                                  13317 *=2      FSEND- END OF FILE SECTION- KEY TABLES SAME TABLE              72792021
                                   13318 *  THIS ROUTINE DOES END OF FILE SECTION PROCESSING, THEY INCLUDE -     72798021
                                   13319 *     1. CALLS SAME ROUTINE TO PROCESS SAMTBL ENTRIES, IF ANY.          72804021
                                   13320 *     2. PROCESS KEYRAN TABLE WHEN KEYS ARE PRESENT IN ASYCHRONOUS      72810021
                                   13321 *        PROCESSING.  KEY LENGTH IS PUT INTO DCB AND KEY ADDRESS IS     72816021
                                   13322 *        PUT INTO EACH DECB.                                            72822021
                                   13323 *     3. KEY LENGTH, IF ANY, IS ADDED TO BLKSIZ, AND BLKADEF IS PUT     72828021
                                   13324 *        OUT ON A-TEXT FILE.                                            72834021
                                   13325 *                                                                       72840021
 00A100                            13326 IKF213B  CSECT                                                          72846021
                             0A100 13327        USING *,R15                                                      72852021
 00A100 50E0 D8FC      0BE3C       13328 FSEND    ST    R14,FSESAV                                               72858021
 00A104 D201 D67E D5C7 0BBBE 0BB07 13329          MVC   CARDXX(LX2),CARDNO   SAVE CURRENT CARD NUMBER            72864021
 00A10A D200 D5A2 D5A1 0BAE2 0BAE1 13330          MVC   PLBLSW(LX1),LBLSW                                        72870021
 00A110 9400 D5A1      0BAE1       13331          NI    LBLSW,XX00                                               72876021
 00A114 D202 DFE6 DFE3 0C526 0C523 13332          MVC   LSTQUL(LX3),HIQUAL  SAVE DICT PTR                        72882021
 00A11A 1BEE                       13333          SR    R14,R14                     CLEAR REG 14           45078 72888021
 00A11C 43E0 D5A9      0BAE9       13334          IC    R14,PRDCBNO              PRESENT DCB NO            45078 72894021
 00A120 41EE 0001      00001       13335          LA    R14,DX1(R14)             INCR FLD FOR PURPOSES OF  45078 72900021
 00A124 42E0 D5A9      0BAE9       13336          STC   R14,PRDCBNO              RESOLVING PREV GRP,IF ANY 45078 72906021
 00A128 58F0 DC54      0C194       13337          L     R15,AFST00          PROCESS THE LAST FD.                 72912021
 00A12C 05EF                       13338          BALR  R14,R15             PROCESS FD                           72918021
 00A12E 58F0 DC48      0C188       13339          L     R15,AFSEND                                               72924021
 00A132 D501 DFA4 B17E 0C4E4 0017E 13340          CLC   BLLSAVE(LX2),BLLCTR                                      72930021
 00A138 47B0 F042      0A142       13341          BNL   *+10                SKIP NEXT INSTRUCTION                72936021
 00A13C D201 DFA4 B17E 0C4E4 0017E 13342          MVC   BLLSAVE(LX2),BLLCTR                                      72942021
 00A142 9120 D54B      0BA8B       13343          TM    FES,XX20             WAS THERE REDEFINES IN LAST FD      72948021
 00A146 47E0 F066      0A166       13344          BC    NOTONE,FSE005         NO                                 72954021
 00A14A 5810 DABC      0BFFC       13345          L     R1,RDFPAR           YES,DELETE ALL BUT                   72960021
 00A14E 5811 0000      00000       13346          L     R1,DX0(R1)             DUMMY RDFSTK ENTRY                72966021
 00A152 D201 1004 D426 00004 0B966 13347          MVC   DX4(LX2,R1),TWELVE+NX2                                   72972021
 00A158 5810 DAC4      0C004       13348          L     R1,RNMPAR           DELETE ALL BUT                       72978021
 00A15C 5811 0000      00000       13349          L     R1,DX0(R1)             DUMMY RNMTBL ENTRY                72984021
 00A160 D201 1004 D40A 00004 0B94A 13350          MVC   DX4(LX2,R1),FIVE+NX2                                     72990021
 00A166 94DF D5AA      0BAEA       13351 FSE005   NI    FSTSW,XXDF           SET OFF END-OF-FILE-SECTION SW      72996021
 00A16A 9104 D5A3      0BAE3       13352 FSE205   TM    PTBLSW,XX04          ARE THERE ANY RECORD KEYS TO PRO    73002021
 00A16E 4780 F19C      0A29C       13353          BC    ZERO,FSE210         NO, BRANCH                           73008021
                                   13354 *                                  YES                                  73014021
 00A172 5840 DAEC      0C02C       13355          L     R4,RPARAM           R4= A(TIB)                           73020021
 00A176 5844 0000      00000       13356          L     R4,DX0(R4)           R4= A(TAMM)                         73026021
 00A17A 4854 0004      00004       13357          LH    R5,DX4(R4)           R5= SIZE OF TABLE                   73032021
 00A17E 5844 0000      00000       13358          L     R4,DX0(R4)           R4= A(TABLE)                        73038021
 00A182 5440 D4C4      0BA04       13359          N     R4,MK0932                                                73044021
 00A186 1A54                       13360          AR    R5,R4               R5= A(EOT)                           73050021
 00A188 1814                       13361 FSE206   LR    R1,R4                                                    73056021
 00A18A 58F0 DC4C      0C18C       13362          L     R15,AQUAL           CALL QUAL TO FIND KEY AND ITS LG     73062021
 00A18E 05EF                       13363          BALR  R14,R15             BR TO QUAL RTN                       73068021
 00A190 12EF                       13364          LTR   R14,R15                                                  73074021
 00A192 58F0 DC48      0C188       13365          L     R15,AFSEND                                               73080021
 00A196 4780 F0E2      0A1E2       13366          BC    ZERO,FS206A         KEY FOUND                            73086021
 00A19A D201 D900 4000 0BE40 00000 13367          MVC   FULLWD(LX2),DX0(R4)   UP R4 TO DATA                      73092021
 00A1A0 4830 D900      0BE40       13368          LH    R3,FULLWD              PART OF ENTRY                     73098021
 00A1A4 4144 3002      00002       13369          LA    R4,DX2(R4,R3)                                            73104021
 00A1A8 D201 D5C7 4008 0BB07 00008 13370          MVC   CARDNO(LX2),DX8(R4)   GET KEY CARD NO.                   73110021
 00A1AE 59E0 D404      0B944       13371        C       R14,FOUR                                                 73116021
1PH20     IKFCBL20                                                                                              PAGE  307
-  LOC  OBJECT CODE    ADDR1 ADDR2  STMT   SOURCE STATEMENT                                       ASM 0201 11.03 02/14/15
000A1B2 4780 F0DA      0A1DA       13372        BC      EQ,FS206Y           NOT FOUND-MSG GIVEN BY CHEKEY        73122021
 00A1B6 59E0 D414      0B954       13373          C     R14,EIGHT                                                73128021
 00A1BA 4780 F0D4      0A1D4       13374          BE    FS206X              ERROR                                73134021
 00A1BE 94F0 DF34      0C474       13375          NI    WKAREA+NX36,XXF0   WAS KEY VARIABLE LENGTH         59737 73140021
 00A1C2 9540 DF34      0C474       13376          CLI   WKAREA+NX36,XX40                                   59737 73146021
 00A1C6 4770 F0D4      0A1D4       13377        BC      NOTEQ,FS206X         NO                                  73152021
 00A1CA 4560 F1C0      0A2C0       13378        BAL     R6,FSERR             YES - ERROR 179                     73158021
 00A1CE 20B3                       13379        DC      X'20B3'                                                  73164021
 00A1D0 47F0 F0DA      0A1DA       13380        BC      UNCOND,FS206Y       CONTINUE                             73170021
                             0A1D4 13381 FS206X EQU     *                                                        73176021
 00A1D4 4560 F1C0      0A2C0       13382          BAL   R6,FSERR            KEY NOT OFUND                        73182021
 00A1D8 2083                       13383          DC    X'2083'             131                                  73188021
                             0A1DA 13384 FS206Y EQU     *                                                        73194021
 00A1DA 4144 000B      0000B       13385          LA    R4,DX11(R4)         INCR RCKTBL POINTER            58357 73200021
 00A1DE 47F0 F110      0A210       13386          BC    UNCOND,FSE207       TEST FOR EOT                         73206021
                                   13387 *                                  FOUND KEY PUT OUT  KEYLEN RKP        73212021
 00A1E2 D201 D900 4000 0BE40 00000 13388 FS206A   MVC   FULLWD(LX2),DX0(R4)                                      73218021
 00A1E8 4830 D900      0BE40       13389          LH    R3,FULLWD                                                73224021
 00A1EC 4164 3002      00002       13390          LA    R6,DX2(R4,R3)        R6= A(KEY DATA)                     73230021
 00A1F0 D201 D5C7 6008 0BB07 00008 13391          MVC   CARDNO(LX2),DX8(R6)                                      73236021
 00A1F6 5910 D464      0B9A4       13392          C     R1,CON256           IS KEYLEN GT 255                     73242021
 00A1FA 4740 F12C      0A22C       13393          BC    LO,FSE209           NO                                   73248021
 00A1FE 1846                       13394        LR    R4,R6                                                      73254021
 00A200 4560 F1C0      0A2C0       13395          BAL   R6,FSERR            ERROR                                73260021
 00A204 2084                       13396          DC    X'2084'             132                                  73266021
 00A206 4110 00FF      000FF       13397          LA    R1,DX255        SUBSTITUTE 255                           73272021
 00A20A 1864                       13398        LR    R6,R4                                                      73278021
 00A20C 47F0 F12C      0A22C       13399        BC    UNCOND,FSE209         CONTINUE                             73284021
 00A210 1945                       13400 FSE207   CR    R4,R5               EOT                                  73290021
 00A212 47B0 F11A      0A21A       13401          BC    NOTLO,FSE208        YES                                  73296021
 00A216 47F0 F088      0A188       13402          BC    UNCOND,FSE206       NO                                   73302021
 00A21A 5810 DAEC      0C02C       13403 FSE208   L     R1,RPARAM                                                73308021
 00A21E 58F0 DCF0      0C230       13404          L     R15,BTABRL                                               73314021
 00A222 05EF                       13405          BALR  R14,R15             RELEASE TABLE                        73320021
 00A224 58F0 DC48      0C188       13406          L     R15,AFSEND                                               73326021
 00A228 47F0 F19C      0A29C       13407          BC    UNCOND,FSE210       CONTINUE PROCESSING                  73332021
 00A22C 9228 DDEC      0C32C       13408 FSE209   MVI   LITBUF,XX28          CONDEF CODE                         73338021
 00A230 D202 DDED 6001 0C32D 00001 13409          MVC   LITBUF+NX1(LX3),DX1(R6) REL. LOC. OF CONDEF              73344021
 00A236 D202 DDF0 D3F9 0C330 0B939 13410          MVC   LITBUF+NX4(LX3),ONE+NX1 CODE=0,  LGN=1                   73350021
 00A23C 4210 DDF3      0C333       13411          STC   R1,LITBUF+NX7        KEYLEN                              73356021
 00A240 4130 0008      00008       13412          LA    R3,DX8                                                   73362021
 00A244 4540 F190      0A290       13413          BAL   R4,FS209A           PUT OUT CONDEF FOR KEYLEN            73368021
 00A248 D202 DDED 6005 0C32D 00005 13414          MVC   LITBUF+NX1(LX3),DX5(R6) REL. LOC. OF CONDEF              73374021
 00A24E 9202 DDF2      0C332       13415          MVI   LITBUF+NX6,XX02      LGN=2                               73380021
 00A252 5820 DF34      0C474       13416          L     R2,WKAREA+NX36                                           73386021
 00A256 5420 D4C0      0BA00       13417          N     R2,MK2532                LEAVE ONLY BL NO IN R2    51326 73392021
 00A25A 1B33                       13418          SR    R3,R3                    CLEAR R3 AND GET          51326 73398021
 00A25C 4336 000A      0000A       13419          IC    R3,DX10(R6)              1ST BL NO OF FILE         51326 73404021
 00A260 1B23                       13420          SR    R2,R3                    CALCULATE RELATIVE        51326 73410021
 00A262 4C20 D47A      0B9BA       13421          MH    R2,CO4096+NX2               LOCATION OF            51326 73416021
 00A266 5830 DF34      0C474       13422          L     R3,WKAREA+NX36               KEY  -                51326 73422021
 00A26A 8830 0008      00008       13423          SRL   R3,DX8                   (NO OF BL'S)*4096         51326 73428021
 00A26E 5430 D4E4      0BA24       13424          N     R3,MK2132                       + DISP             51326 73434021
 00A272 1A23                       13425          AR    R2,R3                                              51326 73440021
 00A274 4020 D900      0BE40       13426        STH   R2,FULLWD                                                  73446021
1PH20     IKFCBL20                                                                                              PAGE  308
-  LOC  OBJECT CODE    ADDR1 ADDR2  STMT   SOURCE STATEMENT                                       ASM 0201 11.03 02/14/15
000A278 D201 DDF3 D900 0C333 0BE40 13427          MVC   LITBUF+NX7(LX2),FULLWD RKP                               73452021
 00A27E 4130 0009      00009       13428          LA    R3,DX9                                                   73458021
 00A282 4540 F190      0A290       13429          BAL   R4,FS209A           PUT OUT CONDEF FOR RKP               73464021
 00A286 4166 000B      0000B       13430          LA    R6,DX11(R6)              ADD FIXED PORTION SIZE    51326 73470021
 00A28A 1846                       13431          LR    R4,R6                                                    73476021
 00A28C 47F0 F110      0A210       13432          BC    UNCOND,FSE207       CHECK FOR EOT                        73482021
 00A290 4120 DDEC      0C32C       13433 FS209A   LA    R2,LITBUF                                                73488021
 00A294 181B                       13434          LR    R1,R11                                                   73494021
 00A296 0501                       13435          BALR  R0,R1               BR TO COMMON                         73500021
 00A298 14                         13436          DC    X'14'                                                    73506021
 00A299 00
 00A29A 07F4                       13437          BCR   UNCOND,R4           CONTINUE                             73512021
 00A29C 58E0 D8FC      0BE3C       13438 FSE210   L     R14,FSESAV                                               73518021
 00A2A0 D201 D5C7 D67E 0BB07 0BBBE 13439          MVC   CARDNO(LX2),CARDXX   RESTORE CURRENT CARD NO.            73524021
 00A2A6 D203 DDE0 D904 0C320 0BE44 13440          MVC   WS(LX4),SAV01L                                           73530021
 00A2AC D203 B148 D904 00148 0BE44 13441          MVC   LOCCTR(LX4),SAV01L                                       73536021
 00A2B2 D706 DEB9 DEB9 0C3F9 0C3F9 13442          XC    APAF(LX7),APAF       RESET APAF IF CHANGED BY XTEN RT    73542021
 00A2B8 D200 DEBB DEC7 0C3FB 0C407 13443          MVC   APAF+NX2(LX1),FAPAF+NX2 RESET BL=                        73548021
 00A2BE 07FE                       13444          BCR   UNCOND,R14          RETURN                               73554021
 00A2C0 9003 DE5C      0C39C       13445 FSERR    STM   R0,R3,LITBUF+NX112     SAVE REGS IN LITBUF +27 WDS.      73560021
 00A2C4 4806 0000      00000       13446          LH    R0,DX0(R6)           GET ERROR NUMBER.                   73566021
 00A2C8 58F0 DBC0      0C100       13447          L     R15,AERRTN                                               73572021
 00A2CC 05EF                       13448          BALR  R14,R15             ERROR                                73578021
 00A2CE 9803 DE5C      0C39C       13449          LM    R0,R3,LITBUF+NX112                                       73584021
 00A2D2 58F0 DC48      0C188       13450          L     R15,AFSEND                                               73590021
 00A2D6 4166 0002      00002       13451          LA    R6,DX2(R6)                                               73596021
 00A2DA 07F6                       13452          BCR   UNCOND,R6           RETURN                               73602021
                                   13453 *=2      SAME  - SAME AREA CLAUSE                                       73608021
1PH20     IKFCBL20                                                                                              PAGE  309
-  LOC  OBJECT CODE    ADDR1 ADDR2  STMT   SOURCE STATEMENT                                       ASM 0201 11.03 02/14/15
0                                  13455 *  THIS ROUTINE PROCESSES THE 'SAME AREA' CLAUSE OF FILE SECTION.       73620021
                                   13456 *    FILES WITH THE SAME AREA CLAUSE ARE ASSIGNED THE SAME MAIN STO     73626021
                                   13457 *    AREA FOR PROCESSING.                                               73632021
                                   13458 *                                                                       73638021
                             0A2DC 13459          USING *,R15                                                    73644021
                             0A2DC 13460 SAME     EQU   *                                                        73650021
 00A2DC 50E0 D9C4      0BF04       13461          ST    R14,RS14                                                 73656021
 00A2E0 5870 DADC      0C01C       13462          L     R7,PSAME            A(TIB)                               73662021
 00A2E4 5887 0000      00000       13463          L     R8,DX0(R7)           A(TAMM)                             73668021
 00A2E8 5878 0000      00000       13464          L     R7,DX0(R8)           A(TABLE)                            73674021
 00A2EC 5470 D4C4      0BA04       13465          N     R7,MK0932                                                73680021
 00A2F0 1B22                       13466          SR    R2,R2                                                    73686021
 00A2F2 4838 0004      00004       13467          LH    R3,DX4(R8)           R3= TABLE SIZE                      73692021
 00A2F6 5D20 D958      0BE98       13468          D     R2,SAMELN           R3 = NO OF ENTRIES                   73698021
 00A2FA 1893                       13469          LR    R9,R3                                                    73704021
 00A2FC 1867                       13470          LR    R6,R7                                                    73710021
 00A2FE 4A68 0004      00004       13471          AH    R6,DX4(R8)           R6= ADDRESS OF END OF TABLE         73716021
 00A302 1887                       13472          LR    R8,R7               R8= A(TABLE)                         73722021
 00A304 D703 DEF8 DEF8 0C438 0C438 13473 SAM000   XC    SAMLGN(LX4),SAMLGN                                       73728021
 00A30A D200 DF00 7000 0C440 00000 13474          MVC   WKAR(LX1),DX0(R7)     WKAR = SAME AREA UNIQUE =          73734021
 00A310 0690                       13475 SAM001 BCTR  R9,R0                 SUBTRACT 1 FROM R9                   73740021
 00A312 1B55                       13476          SR    R5,R5                                                    73746021
 00A314 4357 0009      00009       13477          IC    R5,DX9(R7)                                               73752021
 00A318 4A57 0006      00006       13478          AH    R5,DX6(R7)                                               73758021
 00A31C 4C57 0004      00004       13479          MH    R5,DX4(R7)                                               73764021
 00A320 910E 700A      0000A       13480 SAM010   TM    DX10(R7),XX0E       FOR QUEUED ADD 8 FOR BUFCB           73770021
 00A324 4770 F05C      0A338       13481          BC    NOTZER,SAM030       NO, NOT QUEUED                       73776021
 00A328 5A50 D414      0B954       13482          A     R5,EIGHT                                                 73782021
 00A32C 9180 700B      0000B       13483          TM    DX11(R7),QSMODE     SPANNED                              73788021
 00A330 4780 F05C      0A338       13484          BZ    SAM030              NO                                   73794021
 00A334 4155 0004      00004       13485          LA    R5,DX4(R5)           YES, ADD 4 MORE                     73800021
 00A338 9140 700B      0000B       13486 SAM030   TM    DX11(R7),BASICS     BASIC FILE S-MODE                    73806021
 00A33C 4780 F068      0A344       13487          BZ    SAM035              NO                                   73812021
 00A340 4155 0016      00016       13488          LA    R5,DM22(R5)         ADD 22 FOR BUFCB                     73818021
                             00004 13489 BLKBSAM  EQU   4                                                        73824021
                             0000A 13490 DM10     EQU   10                                                       73830021
                             00016 13491 DM22     EQU   22                                                       73836021
                             000E7 13492 BLKOFF   EQU   X'E7'                                                    73842021
 00A344 5550 DEF8      0C438       13493 SAM035   CL    R5,SAMLGN                                                73848021
 00A348 47D0 F074      0A350       13494          BC    NOTHI,SAM040        CONTINUE                             73854021
 00A34C 5050 DEF8      0C438       13495          ST    R5,SAMLGN           SAMLGN= LARGEST BUFFER POOL SIZE     73860021
 00A350 5A70 D958      0BE98       13496 SAM040   A     R7,SAMELN           GET NEXT ENTRY                       73866021
 00A354 1967                       13497          CR    R6,R7                                                    73872021
 00A356 47D0 F08C      0A368       13498          BC    NOTHI,SAM080        END OF TABLE FOR A  UNIQUE =         73878021
 00A35A D500 DF00 7000 0C440 00000 13499 SAM050   CLC   WKAR(LX1),DX0(R7)     SAME UNIQUE =                      73884021
 00A360 4780 F034      0A310       13500          BC    EQ,SAM001           YES                                  73890021
 00A364 4770 F074      0A350       13501          BC    NOTEQ,SAM040        NO                                   73896021
 00A368 1878                       13502 SAM080   LR    R7,R8               SEARCH TABLE FOR ALL ENTRIES OF      73902021
                                   13503 *                                   UNIQUE = THAT SAMLGN WAS JUST       73908021
                                   13504 *                                   CALCULATED FOR.                     73914021
 00A36A D500 7000 DF00 00000 0C440 13505 SAM085   CLC   DX0(LX1,R7),WKAR      IS THIS ONE OF THEM                73920021
 00A370 4780 F1B6      0A492       13506          BE    SAM116             YES.                                  73926021
 00A374 5A70 D958      0BE98       13507 SAM090   A     R7,SAMELN           NO                                   73932021
 00A378 1976                       13508          CR    R7,R6               END OF TABLE                         73938021
 00A37A 4740 F08E      0A36A       13509          BC    LO,SAM085           NO                                   73944021
1PH20     IKFCBL20                                                                                              PAGE  310
-  LOC  OBJECT CODE    ADDR1 ADDR2  STMT   SOURCE STATEMENT                                       ASM 0201 11.03 02/14/15
000A37E 47F0 F24E      0A52A       13510          BC    UNCOND,SAM140       YES                                  73950021
 00A382 5010 D6D0      0BC10       13511 SAM099   ST    R1,KEYLOC           YES                                  73956021
 00A386 9200 7000      00000       13512 SAM100   MVI   DX0(R7),XX00         ZERO UNIQUE = SO IT IS NOT USED     73962021
                                   13513 *                                    AGAIN ON NEXT SEARCH OF TABLE      73968021
 00A38A D203 D900 7000 0BE40 00000 13514          MVC   FULLWD(LX4),DX0(R7)                                      73974021
 00A390 58C0 D900      0BE40       13515          L     R12,FULLWD          R12= TARGET ADD.-A(BUFCB)/A(BUFF     73980021
 00A394 910E 700A      0000A       13516          TM    DX10(R7),XX0E                                            73986021
 00A398 4740 F142      0A41E       13517          BM    SAM101              YES. IT IS BDAM,BSAM OR BISAM        73992021
 00A39C 58C0 D900      0BE40       13518          L     R12,FULLWD                                               73998021
 00A3A0 41CC 006C      0006C       13519          LA    R12,DX108(R12)           DCB+108                         74004021
 00A3A4 9101 700A      0000A       13520          TM    DX10(R7),XX01                                            74010021
 00A3A8 4780 F0D4      0A3B0       13521          BZ    *+8                 SKIP NEXT INSTRUCTION                74016021
 00A3AC 41CC 0090      00090       13522          LA    R12,DX144(R12)       INCREMENT FOR QISAM                 74022021
 00A3B0 50C0 DDEC      0C32C       13523          ST    R12,LITBUF                                               74028021
 00A3B4 9228 DDEC      0C32C       13524          MVI   LITBUF,XX28                                              74034021
 00A3B8 D203 DDF3 7004 0C333 00004 13525          MVC   LITBUF+NX7(LX4),DX4(R7)                                  74040021
 00A3BE 9180 700B      0000B       13526          TM    DX11(R7),QSMODE     SPANNED                              74046021
 00A3C2 4780 F0FC      0A3D8       13527          BZ    SAM10A              NO                                   74052021
 00A3C6 D202 DDF0 D419 0C330 0B959 13528          MVC   LITBUF+NX4(LX3),NINE+NX1 YES                             74058021
 00A3CC 4130 0010      00010       13529          LA    R3,DX16              COUNT                               74064021
 00A3D0 9280 DDFB      0C33B       13530          MVI   LITBUF+NX15,XX80     INDICATE SA - S                     74070021
 00A3D4 47F0 F106      0A3E2       13531          B     SAM10C                                                   74076021
 00A3D8 D202 DDF0 D405 0C330 0B945 13532 SAM10A   MVC   LITBUF+NX4(LX3),FOUR+NX1 COUNT                           74082021
 00A3DE 4130 000B      0000B       13533          LA    R3,DX11              TOTAL COUNT                         74088021
 00A3E2 4120 DDEC      0C32C       13534 SAM10C   LA    R2,LITBUF                                                74094021
 00A3E6 181B                       13535          LR    R1,RCOM                                                  74100021
 00A3E8 0501                       13536          BALR  R0,R1               BR TO COMMON                         74106021
 00A3EA 14                         13537          DC    X'14'                                                    74112021
 00A3EB 00
 00A3EC 58C0 D900      0BE40       13538          L     R12,FULLWD          A(DCB)                               74118021
 00A3F0 41CC 0014      00014       13539          LA    R12,DX20(R12)        DCB + 20                            74124021
 00A3F4 50C0 DDEC      0C32C       13540          ST    R12,LITBUF                                               74130021
 00A3F8 9228 DDEC      0C32C       13541          MVI   LITBUF,XX28          CODE                                74136021
 00A3FC D202 DDF0 D3F9 0C330 0B939 13542          MVC   LITBUF+NX4(LX3),ONE+NX1 ONE BYTE FIELD                   74142021
 00A402 D200 DDF3 DDF4 0C333 0C334 13543          MVC   LITBUF+NX7(LX1),LITBUF+NX8                               74148021
 00A408 4130 0008      00008       13544          LA    R3,DX8               COUNT                               74154021
 00A40C 4120 DDEC      0C32C       13545          LA    R2,LITBUF                                                74160021
 00A410 181B                       13546          LR    R1,RCOM                                                  74166021
 00A412 0501                       13547          BALR  R0,R1               BR TO COMMON                         74172021
 00A414 14                         13548          DC    X'14'                                                    74178021
 00A415 00
 00A416 58C0 D900      0BE40       13549          L     R12,FULLWD                                               74184021
 00A41A 41CC 0008      00008       13550          LA    R12,DX8(R12)                                             74190021
 00A41E 9140 700B      0000B       13551 SAM101   TM    DX11(R7),BASICS     BASIC FILE S-MODE                    74196021
 00A422 4780 F15E      0A43A       13552          BZ    SAM102              NO                                   74202021
 00A426 9640 DFBA      0C4FA       13553          OI    SAMESW,BASICS       TURN BASIC SW ON                     74208021
 00A42A 41CC 0050      00050       13554          LA    R12,DX80(R12)        DCB + 92                            74214021
 00A42E 9104 700A      0000A       13555          TM    DX10(R7),XX04        BSAM                                74220021
 00A432 4710 F15E      0A43A       13556          BO    SAM102              YES, GO OUT                          74226021
 00A436 41CC 0008      00008       13557          LA    R12,DX8(R12)         NO, BDAM ADD 8 MORE                 74232021
 00A43A 41CC 000D      0000D       13558 SAM102   LA    R12,DX13(R12)                                            74238021
 00A43E 4857 0006      00006       13559          LH    R5,DX6(R7)           R5 = BUFLN /BLOCK LGN               74244021
 00A442 5810 D6D0      0BC10       13560 SAM105   L     R1,KEYLOC                                                74250021
 00A446 50C0 DDEC      0C32C       13561 SAM107   ST    R12,LITBUF          TARGET                               74256021
 00A44A 5010 DDF0      0C330       13562          ST    R1,LITBUF+NX4                                            74262021
1PH20     IKFCBL20                                                                                              PAGE  311
-  LOC  OBJECT CODE    ADDR1 ADDR2  STMT   SOURCE STATEMENT                                       ASM 0201 11.03 02/14/15
000A44E 922C DDEC      0C32C       13563          MVI   LITBUF,XX2C                                              74268021
 00A452 9203 DDF0      0C330       13564 SAM109   MVI   LITBUF+NX4,XX03                                          74274021
 00A456 4120 DDEC      0C32C       13565          LA    R2,LITBUF                                                74280021
 00A45A 4130 0008      00008       13566          LA    R3,DX8                                                   74286021
 00A45E 5810 DB84      0C0C4       13567          L     R1,COSADR                                                74292021
 00A462 0501                       13568          BALR  R0,R1               BR TO COMMON                         74298021
 00A464 14                         13569          DC    X'14'                                                    74304021
 00A465 00
 00A466 9180 700B      0000B       13570          TM    DX11(R7),QSMODE     QSAM S                               74310021
 00A46A 4780 F098      0A374       13571          BZ    SAM090              NO                                   74316021
 00A46E 41CC 0053      00053       13572          LA    R12,DX83(R12)        DCB + 104                           74322021
 00A472 50C0 DDEC      0C32C       13573          ST    R12,LITBUF                                               74328021
 00A476 922C DDEC      0C32C       13574          MVI   LITBUF,XX2C                                              74334021
 00A47A 9204 DDF0      0C330       13575          MVI   LITBUF+NX4,XX04      COUNT                               74340021
 00A47E 4120 DDEC      0C32C       13576          LA    R2,LITBUF                                                74346021
 00A482 4130 0008      00008       13577          LA    R3,DX8                                                   74352021
 00A486 5810 DB84      0C0C4       13578          L     R1,COSADR                                                74358021
 00A48A 0501                       13579          BALR  R0,R1               GO GEN A(BUFF)                       74364021
 00A48C 14                         13580          DC    X'14'                                                    74370021
 00A48D 00
 00A48E 47F0 F098      0A374       13581          B     SAM090              CHECK FOR EOT                        74376021
 00A492 5810 B148      00148       13582 SAM116   L     R1,LOCCTR                                                74382021
 00A496 5A10 D410      0B950       13583          A     R1,SEVEN                                                 74388021
 00A49A 5410 D4F0      0BA30       13584          N     R1,MK0129                                                74394021
 00A49E 5010 DA18      0BF58       13585          ST    R1,TSAVER                                                74400021
 00A4A2 1B22                       13586          SR    R2,R2                                                    74406021
 00A4A4 9140 700B      0000B       13587          TM    DX11(R7),BASICS     BASIC FILE S-MODE                    74412021
 00A4A8 4710 F0A6      0A382       13588          BO    SAM099              YES                                  74418021
 00A4AC 9102 700A      0000A       13589          TM    DX10(R7),XX02       IS IT BISAM                          74424021
 00A4B0 47E0 F1E0      0A4BC       13590        BC    NOTONE,SAM117         NO                                   74430021
 00A4B4 4111 0010      00010       13591          LA    R1,DX16(R1)         YES, ADDR. IS A(BUFFER)+16           74436021
 00A4B8 47F0 F1FA      0A4D6       13592        BC    UNCOND,SAM118         CONTINUE PROCESSING                  74442021
                             0A4BC 13593 SAM117 EQU   *                                                          74448021
 00A4BC 4327 0009      00009       13594          IC    R2,DX9(R7)                                               74454021
 00A4C0 9180 700A      0000A       13595          TM    DX10(R7),XX80                                            74460021
 00A4C4 4780 F1F0      0A4CC       13596          BZ    *+8                 SKIP NEXT INSTRUCTION                74466021
 00A4C8 4122 0008      00008       13597          LA    R2,DX8(R2)                                               74472021
 00A4CC 1A12                       13598          AR    R1,R2                                                    74478021
 00A4CE 5A10 D410      0B950       13599          A     R1,SEVEN                                                 74484021
 00A4D2 5410 D4F0      0BA30       13600          N     R1,MK0129                                                74490021
 00A4D6 5010 DDEC      0C32C       13601 SAM118   ST    R1,LITBUF           A(RECORD IN BUFFER)                  74496021
 00A4DA 920C DDEC      0C32C       13602          MVI   LITBUF,XX0C                                              74502021
 00A4DE 1B12                       13603          SR    R1,R2                                                    74508021
 00A4E0 4327 0009      00009       13604          IC    R2,DX9(R7)          KEYLNG.                              74514021
 00A4E4 9108 700A      0000A       13605          TM    DX10(R7),XX08       BDAM?                                74520021
 00A4E8 4780 F212      0A4EE       13606          BZ    *+6                 SKIP NEXT INSTRUCTION                74526021
 00A4EC 1A12                       13607          AR    R1,R2              YES, ADD KEYLNG BACK.                 74532021
 00A4EE 5010 D6D0      0BC10       13608          ST    R1,KEYLOC                                                74538021
 00A4F2 D200 DDF0 7008 0C330 00008 13609          MVC   LITBUF+NX4(LX1),DX8(R7) BL NO.                           74544021
 00A4F8 D703 DDF1 DDF1 0C331 0C331 13610          XC    LITBUF+NX5(LX4),LITBUF+NX5                               74550021
 00A4FE 910E 700A      0000A       13611          TM    DX10(R7),XX0E                                            74556021
 00A502 4780 F0AA      0A386       13612          BZ    SAM100              YES. IT IS A QUEUED FILE.            74562021
 00A506 9140 700A      0000A       13613          TM    DX10(R7),XX40                                            74568021
 00A50A 4780 F23A      0A516       13614          BZ    SAM120              NOT SPANNED RCD,ADV,OR SRA           74574021
 00A50E 9142 700A      0000A       13615          TM    DX10(R7),XX42                                            74580021
1PH20     IKFCBL20                                                                                              PAGE  312
-  LOC  OBJECT CODE    ADDR1 ADDR2  STMT   SOURCE STATEMENT                                       ASM 0201 11.03 02/14/15
000A512 4710 F0AA      0A386       13616          BO    SAM100              YES,IT IS BISAM & SR,ADV OR SRA      74586021
 00A516 5810 DB84      0C0C4       13617 SAM120   L     R1,COSADR                                                74592021
 00A51A 4120 DDEC      0C32C       13618          LA    R2,LITBUF                                                74598021
 00A51E 4130 0009      00009       13619          LA    R3,DX9                                                   74604021
 00A522 0501                       13620          BALR  R0,R1               BR TO COMMON                         74610021
 00A524 14                         13621          DC    X'14'                                                    74616021
 00A525 00
 00A526 47F0 F0AA      0A386       13622          B     SAM100              ZERO SAME AREA NO AND PROCESS        74622021
 00A52A 5840 DA18      0BF58       13623 SAM140   L     R4,TSAVER           UPDAYE LOCCTR-- A( BUFFER POOL )     74628021
 00A52E 5A40 DEF8      0C438       13624          A     R4,SAMLGN            BY BUFFER POOL LENGTH (MAX)         74634021
 00A532 5A40 D410      0B950       13625          A     R4,SEVEN                                                 74640021
 00A536 5040 B148      00148       13626          ST    R4,LOCCTR         )  RESTORE LOCCTR                      74646021
 00A53A 9140 DFBA      0C4FA       13627          TM    SAMESW,BASICS       WAS THERE BASIC FILE S MODE          74652021
 00A53E 4780 F294      0A570       13628          BZ    SAM145              NOS BASIC FILE S MODE                74658021
 00A542 D700 DFBA DFBA 0C4FA 0C4FA 13629          XC    SAMESW(LX1),SAMESW   YES TURN OFF SW                     74664021
 00A548 5810 D6D0      0BC10       13630          L     R1,KEYLOC           A (SEG WK AREA)                      74670021
 00A54C 5010 DDEC      0C32C       13631          ST    R1,LITBUF                                                74676021
 00A550 922C DDEC      0C32C       13632          MVI   LITBUF,XX2C                                              74682021
 00A554 4111 000C      0000C       13633          LA    R1,DX12(R1)                        + 12                  74688021
 00A558 5010 DDF0      0C330       13634          ST    R1,LITBUF+NX4                                            74694021
 00A55C 9204 DDF0      0C330       13635          MVI   LITBUF+NX4,XX04      ADCON COUNT                         74700021
 00A560 4130 0008      00008       13636          LA    R3,DX8                                                   74706021
 00A564 4120 DDEC      0C32C       13637          LA    R2,LITBUF                                                74712021
 00A568 5810 DB84      0C0C4       13638          L     R1,COSADR                                                74718021
 00A56C 0501                       13639          BALR  R0,R1               BR TO COMMON                         74724021
 00A56E 14                         13640          DC    X'14'                                                    74730021
 00A56F 00
 00A570 5590 D3F4      0B934       13641 SAM145   CL    R9,ZEROS                                                 74736021
 00A574 4780 F2B4      0A590       13642          BC    EQ,SAM160           BR TO EOT RTN                        74742021
 00A578 1878                       13643 SAM150   LR    R7,R8                                                    74748021
 00A57A 9500 7000      00000       13644 SAM151   CLI   DX0(R7),XX00                                             74754021
 00A57E 4770 F028      0A304       13645          BC    NOTEQ,SAM000        BR TO BEGINNING OF SA RTN            74760021
 00A582 5A70 D958      0BE98       13646          A     R7,SAMELN                                                74766021
 00A586 1976                       13647          CR    R7,R6                                                    74772021
 00A588 47B0 F2B4      0A590       13648          BNL   SAM160              EOT RTN                              74778021
 00A58C 47F0 F29E      0A57A       13649          BC    UNCOND,SAM151       CHECK NEXT ENTRY                     74784021
                                   13650 *                                                                       74790021
 00A590 94BF D5A3      0BAE3       13651 SAM160   NI    PTBLSW,XXBF          RELEASE SAME TABLE AND SET SW, E    74796021
 00A594 5810 DADC      0C01C       13652          L     R1,PSAME                                                 74802021
 00A598 50F0 DA18      0BF58       13653          ST    R15,TSAVER                                               74808021
 00A59C 58F0 DCF0      0C230       13654          L     R15,BTABRL                                               74814021
 00A5A0 05EF                       13655          BALR  R14,R15             RELEASE SAME AREA TABLE              74820021
 00A5A2 58F0 DA18      0BF58       13656          L     R15,TSAVER                                               74826021
 00A5A6 5880 B148      00148       13657          L     R8,LOCCTR         )                                      74832021
 00A5AA 5A80 D410      0B950       13658          A     R8,SEVEN                                                 74838021
 00A5AE 5480 D4F0      0BA30       13659          N     R8,MK0129                                                74844021
 00A5B2 5080 B148      00148       13660          ST    R8,LOCCTR                                                74850021
 00A5B6 58E0 D9C4      0BF04       13661          L     R14,RS14                                                 74856021
 00A5BA 07FE                       13662          BCR   UNCOND,R14          RETURN                               74862021
1PH20     IKFCBL20                                                                                              PAGE  313
-  LOC  OBJECT CODE    ADDR1 ADDR2  STMT   SOURCE STATEMENT                                       ASM 0201 11.03 02/14/15
0                                  13664 * THIS ROUTINE PROCESSES 'SAME RECORD AREA' TABL                        74874021
                             0A5BC 13665          USING *,R15                                                    74880021
 00A5BC 50E0 D9C4      0BF04       13666 SAMER    ST    R14,RS14                                                 74886021
 00A5C0 5870 DAE4      0C024       13667          L     R7,PSMRCD                                                74892021
 00A5C4 5887 0000      00000       13668          L     R8,DX0(R7)                                               74898021
 00A5C8 5878 0000      00000       13669          L     R7,DX0(R8)                                               74904021
 00A5CC 5470 D4C4      0BA04       13670          N     R7,MK0932          A(TABLE)                              74910021
 00A5D0 1B22                       13671          SR    R2,R2                                                    74916021
 00A5D2 4838 0004      00004       13672          LH    R3,DX4(R8)          TABLE SIZE                           74922021
 00A5D6 5D20 D95C      0BE9C       13673          D     R2,SRTBLN           R3 = NO OF ENTRIES                   74928021
 00A5DA 1893                       13674          LR    R9,R3                                                    74934021
 00A5DC 1867                       13675          LR    R6,R7                                                    74940021
 00A5DE 4A68 0004      00004       13676          AH    R6,DX4(R8)          R6=A(EOT)                            74946021
 00A5E2 1887                       13677          LR    R8,R7                                                    74952021
 00A5E4 D707 DEF8 DEF8 0C438 0C438 13678 SAMR000  XC    SAMLGN(LX8),SAMLGN                                       74958021
 00A5EA D200 DF00 7000 0C440 00000 13679          MVC   WKAR(LX1),DX0(R7)                                        74964021
 00A5F0 4857 0004      00004       13680 SAMR001  LH    R5,DX4(R7)          FDMAX                                74970021
 00A5F4 0690                       13681          BCTR  R9,R0               SUBTRACT 1 FROM NO OF ENTRIES        74976021
 00A5F6 5550 DEF8      0C438       13682          CL    R5,SAMLGN                                                74982021
 00A5FA 47D0 F046      0A602       13683          BNH   *+8                 SKIP NEXT INSTRUCTION                74988021
 00A5FE 5050 DEF8      0C438       13684          ST    R5,SAMLGN                                                74994021
 00A602 910C 7008      00008       13685          TM    DX8(R7),XX0C        BSAM OR BDAM                         75000021
 00A606 4780 F06C      0A628       13686          BZ    SAMR003            NO.                                   75006021
 00A60A 1B33                       13687          SR    R3,R3              YES.                                  75012021
 00A60C 4337 0009      00009       13688          IC    R3,DX9(R7)                                               75018021
 00A610 9180 7008      00008       13689          TM    DX8(R7),XX80        V-MODE                               75024021
 00A614 4780 F060      0A61C       13690          BZ    SAMR002            NO.                                   75030021
 00A618 4133 0008      00008       13691          LA    R3,DX8(R3)          YES.                                 75036021
 00A61C 5530 DEFC      0C43C       13692 SAMR002  CL    R3,SMKYLGN                                               75042021
 00A620 47D0 F06C      0A628       13693          BNH   *+8                 SKIP NEXT INSTRUCTION                75048021
 00A624 5030 DEFC      0C43C       13694          ST    R3,SMKYLGN                                               75054021
 00A628 9180 7007      00007       13695 SAMR003  TM    DX7(R7),QSMODE      QSAM-S                               75060021
 00A62C 4780 F07C      0A638       13696          BZ    SAMR004             NO                                   75066021
 00A630 4130 0020      00020       13697          LA    R3,DX32              RCD AREA PREFIX                     75072021
 00A634 5030 DEFC      0C43C       13698          ST    R3,SMKYLGN                                               75078021
 00A638 5A70 D95C      0BE9C       13699 SAMR004  A     R7,SRTBLN           GET NEXT ENTRY                       75084021
 00A63C 1967                       13700          CR    R6,R7                                                    75090021
 00A63E 47D0 F094      0A650       13701          BNH   SAMR080            END OF SAME RECORD TBL FOR AN         75096021
 00A642 D500 7000 DF00 00000 0C440 13702 SAMR050  CLC   DX0(LX1,R7),WKAR     UNIQUE NO.  SAME NO?                75102021
 00A648 4780 F034      0A5F0       13703          BE    SAMR001                        YES.                      75108021
 00A64C 47F0 F06C      0A628       13704          B     SAMR003                        NO.                       75114021
 00A650 1878                       13705 SAMR080  LR    R7,R8              SEARCH TBL FOR ALL ENTRIES OF UNIQUE  75120021
                                   13706 *                                 NO. FOR WHICH SAMLGN AND SMKEYLGN     75126021
                                   13707 *                                 WERE CALCULATED.                      75132021
 00A652 58C0 DEFC      0C43C       13708          L     R12,SMKYLGN                                              75138021
 00A656 5AC0 D410      0B950       13709          A     R12,SEVEN          SMKYLGN MADE MULTIPLE OF 8.           75144021
 00A65A 54C0 D4F0      0BA30       13710          N     R12,MK0129                                               75150021
 00A65E 50C0 DEFC      0C43C       13711          ST    R12,SMKYLGN                                              75156021
 00A662 D500 7000 DF00 00000 0C440 13712 SAMR085  CLC   DX0(LX1,R7),WKAR     IS THIS ONE OF THEM                 75162021
 00A668 4780 F0C2      0A67E       13713          BE    SAMR100            YES.                                  75168021
 00A66C 5A70 D95C      0BE9C       13714 SAMR090  A     R7,SRTBLN           NO, TRY NEXT ONE                     75174021
 00A670 58B0 DB84      0C0C4       13715          L     R11,COSADR                                               75180021
 00A674 1976                       13716          CR    R7,R6              EOT.                                  75186021
 00A676 4740 F0A6      0A662       13717          BL    SAMR085            NO.                                   75192021
 00A67A 47F0 F1B8      0A774       13718          B     SAMR140            YES.                                  75198021
1PH20     IKFCBL20                                                                                              PAGE  314
-  LOC  OBJECT CODE    ADDR1 ADDR2  STMT   SOURCE STATEMENT                                       ASM 0201 11.03 02/14/15
000A67E 9200 7000      00000       13719 SAMR100  MVI   DX0(R7),XX00                                             75204021
 00A682 D203 D900 7000 0BE40 00000 13720          MVC   FULLWD(LX4),DX0(R7)                                      75210021
 00A688 1B44                       13721          SR    R4,R4                                                    75216021
 00A68A 910C 7008      00008       13722          TM    DX8(R7),XX0C        BSAM OR BDAM?                        75222021
 00A68E 4780 F0F0      0A6AC       13723          BZ    SAMR101            NO.                                   75228021
 00A692 4347 0009      00009       13724          IC    R4,DX9(R7)          YES.                                 75234021
 00A696 9108 7008      00008       13725          TM    DX8(R7),XX08        BDAM?                                75240021
 00A69A 4780 F0E4      0A6A0       13726          BZ    *+6                NO.                                   75246021
 00A69E 1B44                       13727          SR    R4,R4              YES.                                  75252021
 00A6A0 9180 7008      00008       13728          TM    DX8(R7),XX80        V-MODE?                              75258021
 00A6A4 4780 F0F0      0A6AC       13729          BZ    SAMR101             NO                                   75264021
 00A6A8 4144 0008      00008       13730          LA    R4,DX8(R4)                                               75270021
 00A6AC                            13731 SAMR101  DS    0H                                                       75276021
 00A6AC D203 D46C B148 0B9AC 00148 13732          MVC   SREG2,LOCCTR        SAVE LOCCTR TO SREG2                 75282021
 00A6B2 58B0 B148      00148       13733          L     R11,LOCCTR          LOAD LOCCTR TO RE 11                 75288021
 00A6B6 41BB 0007      00007       13734 SAMR103  LA    R11,DX7(R11)                                             75294021
 00A6BA 54B0 D4F0      0BA30       13735          N     R11,MK0129                                               75300021
 00A6BE                            13736 SAMR104  DS    0H                                                       75306021
 00A6BE 54B0 D4F0      0BA30       13737          N     R11,MK0129                                               75312021
 00A6C2 50B0 DA18      0BF58       13738          ST    R11,TSAVER                                               75318021
 00A6C6 5AB0 DEFC      0C43C       13739          A     R11,SMKYLGN                                              75324021
 00A6CA 50B0 DDEC      0C32C       13740          ST    R11,LITBUF         REL LOC(RECORD AREA)                  75330021
 00A6CE 920C DDEC      0C32C       13741          MVI   LITBUF,XX0C                                              75336021
 00A6D2 D200 DDF0 7006 0C330 00006 13742          MVC   LITBUF+NX4(LX1),DX6(R7) BL #                             75342021
 00A6D8 D703 DDF1 DDF1 0C331 0C331 13743          XC    LITBUF+NX5(LX4),LITBUF+NX5                               75348021
 00A6DE 5810 DB84      0C0C4       13744          L     R1,COSADR                                                75354021
 00A6E2 4120 DDEC      0C32C       13745          LA    R2,LITBUF                                                75360021
 00A6E6 4130 0009      00009       13746          LA    R3,DX9                                                   75366021
 00A6EA 0501                       13747          BALR  R0,R1              PUT OUT BLKADR DEF                    75372021
 00A6EC 14                         13748          DC    X'14'                                                    75378021
                                   13749 *                                                                       75384021
 00A6ED 00
 00A6EE 910C 7008      00008       13750          TM    DX8(R7),XX0C        BSAM BDAM                      37348 75390021
                                   13751 *                                  ELSE QSAM,QISAM BISAM          37348 75396021
 00A6F2 4780 F17A      0A736       13752          BZ    SAMR130             BRANCH                               75402021
 00A6F6 1BB4                       13753          SR    R11,R4             YES.R11=A(RECORD AREA)-KEY/COUNT      75408021
 00A6F8 D203 D900 7000 0BE40 00000 13754          MVC   FULLWD(LX4),DX0(R7)                                      75414021
 00A6FE 58C0 D900      0BE40       13755          L     R12,FULLWD                                               75420021
 00A702 41CC 000D      0000D       13756          LA    R12,DX13(R12)       DECB+13=DECB A(AREA)                 75426021
 00A706 9140 7007      00007       13757          TM    DX7(R7),XX40        BSAM S-MODE                          75432021
 00A70A 4780 F156      0A712       13758          BZ    SAMR120             NO                                   75438021
 00A70E 41CC 0058      00058       13759          LA    R12,DX88(R12)        YES, DCB +100 IS TARGET             75444021
 00A712 50C0 DDEC      0C32C       13760 SAMR120  ST    R12,LITBUF          TARGET ADDRESS                       75450021
 00A716 922C DDEC      0C32C       13761          MVI   LITBUF,XX2C                                              75456021
 00A71A 50B0 DDF0      0C330       13762          ST    R11,LITBUF+NX4                                           75462021
 00A71E 9203 DDF0      0C330       13763          MVI   LITBUF+NX4,XX03                                          75468021
 00A722 4120 DDEC      0C32C       13764          LA    R2,LITBUF                                                75474021
 00A726 4130 0008      00008       13765          LA    R3,DX8                                                   75480021
 00A72A 5810 DB84      0C0C4       13766          L     R1,COSADR                                                75486021
 00A72E 0501                       13767          BALR  R0,R1               BR TO COMMON                         75492021
 00A730 14                         13768          DC    X'14'                                                    75498021
 00A731 00
 00A732 47F0 F0B0      0A66C       13769          B     SAMR090             PROCESS NEXT ENTRY                   75504021
 00A736 9180 7007      00007       13770 SAMR130  TM    DX7(R7),QSMODE      QSAM-S                               75510021
 00A73A 4780 F0B0      0A66C       13771          BZ    SAMR090             NO                                   75516021
1PH20     IKFCBL20                                                                                              PAGE  315
-  LOC  OBJECT CODE    ADDR1 ADDR2  STMT   SOURCE STATEMENT                                       ASM 0201 11.03 02/14/15
000A73E D202 DF3D 7001 0C47D 00001 13772          MVC   MTEMP1+NX1(LX3),DX1(R7) REL LOC OF DCB                   75522021
 00A744 5820 DF3C      0C47C       13773          L     R2,MTEMP1                                                75528021
 00A748 4122 0070      00070       13774          LA    R2,DX112(R2)         DCB + 112                           75534021
                                   13775 *  FILL IN REST OF DCB EXTENSION                                        75540021
                                   13776 *                                                                       75546021
 00A74C 5020 DDEC      0C32C       13777 SAMR133  ST    R2,LITBUF                                                75552021
 00A750 922C DDEC      0C32C       13778          MVI   LITBUF,XX2C          CODE                                75558021
 00A754 5BB0 DEFC      0C43C       13779          S     R11,SMKYLGN         START OF AREA                        75564021
 00A758 50B0 DDF0      0C330       13780          ST    R11,LITBUF+NX4                                           75570021
 00A75C 9204 DDF0      0C330       13781          MVI   LITBUF+NX4,XX04      ADCON LENGTH                        75576021
 00A760 4120 DDEC      0C32C       13782          LA    R2,LITBUF                                                75582021
 00A764 4130 0008      00008       13783          LA    R3,DX8                                                   75588021
 00A768 5810 DB84      0C0C4       13784          L     R1,COSADR                                                75594021
 00A76C 0501                       13785          BALR  R0,R1               BR TO COMMON                         75600021
 00A76E 14                         13786          DC    X'14'                                                    75606021
 00A76F 00
 00A770 47F0 F0B0      0A66C       13787          B     SAMR090             RETURN                               75612021
                                   13788 *                                                                       75618021
                                   13789 *                                                                       75624021
                                   13790 *                                                                       75630021
                                   13791 *                                                                       75636021
 00A774 5840 DA18      0BF58       13792 SAMR140  L     R4,TSAVER                                                75642021
 00A778 5A40 DEF8      0C438       13793          A     R4,SAMLGN                                                75648021
 00A77C 5A40 DEFC      0C43C       13794          A     R4,SMKYLGN                                               75654021
 00A780 5040 B148      00148       13795          ST    R4,LOCCTR                                                75660021
 00A784 5590 D3F4      0B934       13796          CL    R9,ZEROS           ANY MORE ENTRY?                       75666021
 00A788 4780 F1E8      0A7A4       13797          BE    SAMR160            NO.                                   75672021
 00A78C 1878                       13798 SAMR150  LR    R7,R8              YES.                                  75678021
 00A78E 9500 7000      00000       13799 SAMR151  CLI   DX0(R7),XX00                                             75684021
 00A792 4770 F028      0A5E4       13800          BNE   SAMR000             PROCESS NEXT ENTRY                   75690021
 00A796 5A70 D95C      0BE9C       13801          A     R7,SRTBLN                                                75696021
 00A79A 1976                       13802          CR    R7,R6                                                    75702021
 00A79C 47B0 F1E8      0A7A4       13803          BNL   SAMR160             BR TO EOT RTN                        75708021
 00A7A0 47F0 F1D2      0A78E       13804          B     SAMR151             CHECK NEXT ENTRY                     75714021
 00A7A4 94DF D5A6      0BAE6       13805 SAMR160  NI    PRMSW,XXDF          SET PRIMED SW OFF                    75720021
 00A7A8 5810 DAE4      0C024       13806          L     R1,PSMRCD                                                75726021
 00A7AC 50F0 DA18      0BF58       13807          ST    R15,TSAVER                                               75732021
 00A7B0 58F0 DCF0      0C230       13808          L     R15,BTABRL                                               75738021
 00A7B4 05EF                       13809          BALR  R14,R15             RELEASE SRA TBL                      75744021
 00A7B6 58F0 DA18      0BF58       13810          L     R15,TSAVER                                               75750021
 00A7BA 5880 B148      00148       13811          L     R8,LOCCTR                                                75756021
 00A7BE 5A80 D410      0B950       13812          A     R8,SEVEN                                                 75762021
 00A7C2 5480 D4F0      0BA30       13813          N     R8,MK0129                                                75768021
 00A7C6 5080 B148      00148       13814          ST    R8,LOCCTR                                                75774021
 00A7CA 58E0 D9C4      0BF04       13815          L     R14,RS14                                                 75780021
 00A7CE 07FE                       13816          BR    R14                 RETURN                               75786021
                                   13817 *                                                                       75792021
1PH20     IKFCBL20                                                                                              PAGE  316
-  LOC  OBJECT CODE    ADDR1 ADDR2  STMT   SOURCE STATEMENT                                       ASM 0201 11.03 02/14/15
1PH20     IKFCBL20                                                                                              PAGE  317
-  LOC  OBJECT CODE    ADDR1 ADDR2  STMT   SOURCE STATEMENT                                       ASM 0201 11.03 02/14/15
0                                  13820 *                                                                       75810021
                                   13821 *                                                                       75816021
                                   13822 *                                                                       75822021
                                   13823 *                                                                       75828021
                                   13824 *      DIAGNOSTIC ROUTINE FOR FILE KEYS                                 75834021
                                   13825 *      CALLED AFTER FD AND ALL ITS RECORDS HAVE BEEN PROCESSED          75840021
                                   13826 *      CHECKS THAT RECORD KEY IS IN FILE, SYMBOLIC OR ACTUAL IS NOT     75846021
                                   13827 *         IN FILE                                                       75852021
                                   13828 *                                                                       75858021
                             0A7D0 13829        USING *,R15                                                      75864021
                             0A7D0 13830 KEYCHK EQU   *                                                          75870021
 00A7D0 90E4 DA90      0BFD0       13831        STM   R14,R4,RS144                                               75876021
 00A7D4 1B33                       13832        SR    R3,R3            R3= 0 FOR RECORD KEY, 2 SYMBOLIC, 4 A     75882021
 00A7D6 4143 DAAC      0BFEC       13833 KEYCH2 LA    R4,SVKYTB(R3)         DID LAST FD HAVE KEY                 75888021
 00A7DA D501 4000 D3F4 00000 0B934 13834          CLC   DX0(LX2,R4),ZEROS                                        75894021
 00A7E0 4770 F02C      0A7FC       13835        BC    NOTEQ,KEYCH6            YES                                75900021
 00A7E4 4133 0002      00002       13836 KEYCH4   LA    R3,DX2(R3)             NO - POINT R3 AT NEXT TABLE DI    75906021
 00A7E8 5930 D404      0B944       13837        C     R3,FOUR               HAVE ALL 3 KEYS BEEN EXAMINED        75912021
 00A7EC 47D0 F006      0A7D6       13838        BC    NOTHI,KEYCH2           NO - RETURN FOR NEXT                75918021
 00A7F0 D707 DAAC DAAC 0BFEC 0BFEC 13839          XC    SVKYTB(LX8),SVKYTB     YES - ZERO SAVED DISPS. AND EX    75924021
 00A7F6 98E4 DA90      0BFD0       13840        LM    R14,R4,RS144                                               75930021
 00A7FA 07FE                       13841        BCR   UNCOND,R14            RETURN                               75936021
 00A7FC 5810 DAF4      0C034       13842 KEYCH6   L     R1,SYMPAR                                                75942021
 00A800 1233                       13843        LTR   R3,R3            GIVE R1 ADDR. OF APPLICABLE TIB           75948021
 00A802 4770 F03A      0A80A       13844          BC    NOTZER,*+NX8        CONTINUE                             75954021
 00A806 5810 DAEC      0C02C       13845        L     R1,RPARAM                                                  75960021
 00A80A 5811 0000      00000       13846          L     R1,DX0(R1)                                  TAMM         75966021
 00A80E 5811 0000      00000       13847          L     R1,DX0(R1)                                  TABLE        75972021
 00A812 4111 0000      00000       13848          LA    R1,DX0(R1)                                               75978021
 00A816 41F3 DAAD      0BFED       13849          LA    R15,SVKYTB+NX1(R3)                                       75984021
 00A81A 9701 F000      00000       13850          XI    DX0(R15),XX01                                            75990021
 00A81E 4A13 DAAC      0BFEC       13851        AH    R1,SVKYTB(R3)         + DISPL. SAVED BY KEYRTN             75996021
 00A822 58F0 DC4C      0C18C       13852        L     R15,AQUAL                                                  76002021
 00A826 05EF                       13853        BALR  R14,R15               FIND KEY IN DICT. (ADDR. IN R2)      76008021
 00A828 12EF                       13854        LTR   R14,R15                                                    76014021
 00A82A 58F0 DCA0      0C1E0       13855        L     R15,ACHKEY                                                 76020021
 00A82E 4780 F078      0A848       13856        BC    ZERO,KEYC10           RETURN CODE 0 - KEY FOUND            76026021
 00A832 59E0 D404      0B944       13857        C     R14,FOUR                                                   76032021
 00A836 4770 F014      0A7E4       13858        BC    NOTEQ,KEYCH4                      8 OR 12, HANDLE LATE     76038021
 00A83A 1233                       13859        LTR   R3,R3                             4 - KEY NOT FOUND        76044021
 00A83C 4770 F014      0A7E4       13860        BC    NOTZER,KEYCH4            OK FOR SYM. AND ACT.              76050021
 00A840 4800 F0CC      0A89C       13861 KEYCH8 LH    R0,ERR178                ERROR FOR REC. KEY                76056021
 00A844 47F0 F0BE      0A88E       13862        BC    UNCOND,KEYC16         ERROR RTN                            76062021
 00A848 D502 DEF5 DFE6 0C435 0C526 13863 KEYC10   CLC   INPUT+NX5(LX3),LSTQUL IS DICT PTR OF KEY IN LIMITS OF    76068021
 00A84E 47B0 F08C      0A85C       13864        BC    NOTLO,KEYC12      YES                                      76074021
 00A852 1233                       13865        LTR   R3,R3                NO                                    76080021
 00A854 4780 F070      0A840       13866        BC    ZERO,KEYCH8          ERROR FOR REC. KEY                    76086021
 00A858 47F0 F014      0A7E4       13867        BC    UNCOND,KEYCH4        OK FOR SYM. AND ACT. KEY              76092021
 00A85C 1233                       13868 KEYC12 LTR   R3,R3            KEY IS IN LAST FD                         76098021
 00A85E 4780 F09A      0A86A       13869        BC    ZERO,KEYC14          OK FOR REC. KEY                       76104021
 00A862 4800 F0D0      0A8A0       13870        LH    R0,ER181             ERROR FOR SYM. AND ACT. KEY           76110021
 00A866 47F0 F0BE      0A88E       13871        BC    UNCOND,KEYC16         ERROR RTN                            76116021
                                   13872 *                RECORD KEY IS LEGALLY WITHIN FILE                      76122021
 00A86A 5820 DEF0      0C430       13873 KEYC14 L     R2,INPUT             GET ADDR OF ATTRIBUTES IN DICT        76128021
 00A86E 9118 D889      0BDC9       13874          TM    BLKLBL,XX18         IS FILE BLOCKED?                     76134021
1PH20     IKFCBL20                                                                                              PAGE  318
-  LOC  OBJECT CODE    ADDR1 ADDR2  STMT   SOURCE STATEMENT                                       ASM 0201 11.03 02/14/15
000A872 4770 F014      0A7E4       13875        BC    NOTZER,KEYCH4         YES - OK                             76140021
 00A876 D201 DAB2 2002 0BFF2 00002 13876          MVC   SVKYWK(LX2),DX2(R2)                                      76146021
 00A87C 940F DAB2      0BFF2       13877          NI    SVKYWK,XX0F      ISOLATE D OF I/D/K                      76152021
 00A880 D501 DAB2 D3F4 0BFF2 0B934 13878          CLC   SVKYWK(LX2),ZEROS IS IT 0 - DOES KEY INCLUDE 1ST BYTE    76158021
 00A886 4770 F014      0A7E4       13879        BC    NOTEQ,KEYCH4        NO - OK                                76164021
 00A88A 4800 F0CE      0A89E       13880        LH    R0,ERR180               YES - ERROR                        76170021
 00A88E 58F0 DBC0      0C100       13881 KEYC16 L     R15,AERRTN                                                 76176021
 00A892 05EF                       13882        BALR  R14,R15               ERROR RTN                            76182021
 00A894 58F0 DCA0      0C1E0       13883        L     R15,ACHKEY                                                 76188021
 00A898 47F0 F014      0A7E4       13884        BC    UNCOND,KEYCH4    RETURN FOR NEXT TYPE OF KEY               76194021
                                   13885 *                                                                       76200021
 00A89C 20B2                       13886 ERR178 DC    X'20B2'                                                    76206021
 00A89E 20B4                       13887 ERR180 DC    X'20B4'                                                    76212021
 00A8A0 20B5                       13888 ER181  DC    X'20B5'                                                    76218021
                                   13889 *                                                                       76224021
1PH20     IKFCBL20                                                                                              PAGE  319
-  LOC  OBJECT CODE    ADDR1 ADDR2  STMT   SOURCE STATEMENT                                       ASM 0201 11.03 02/14/15
0                                  13891 *                                                                       76236021
1PH20     IKFCBL20                                                                                              PAGE  320
-  LOC  OBJECT CODE    ADDR1 ADDR2  STMT   SOURCE STATEMENT                                       ASM 0201 11.03 02/14/15
0                                  13893 *=2      QUAL-   FINDS KEYS IN DICTIONARY                               76248021
                                   13894 *  THIS ROUTINE RESOLVES FOR QUALIFIED KEY LENGTH AND ADDRESS BY CH     76254021
                                   13895 *    ING THAT THE KEY IS UNIQUELY DEFINED BY ITS HIERARCHY OF QUALI     76260021
                                   13896 *    THE LENGTH AND ADDRESS OF THE UNIQUE KEY IS THEN LOOKED UP IN      76266021
                                   13897 *    DICTIONARY.                                                        76272021
                                   13898 *      INPUT -  R1 HAS STATING ADDRESS OF QUALIFICATION CHAIN.          76278021
                                   13899 *      OUTPUT-  IF R15=0, R1 HAS KEY LENGTH , R2 HAS KEY ADDRESS        76284021
                                   13900 *               IF R15=NON-ZERO, R1,R2 HAVE MEANINGLESS INFORMATION     76290021
                                   13901 *                                                                       76296021
 00A8A8                            13902 IKF214   CSECT                                                          76302021
                             0A8A8 13903          USING *,R15                                                    76308021
 00A8A8 50E0 DDDC      0C31C       13904 QUAL     ST    R14,LREDEF                                               76314021
 00A8AC 903C D998      0BED8       13905          STM   R3,R12,RS3                                               76320021
 00A8B0 1891                       13906          LR    R9,R1                                                    76326021
 00A8B2 5A90 D3FC      0B93C       13907          A     R9,TWO                                                   76332021
 00A8B6 1B77                       13908          SR    R7,R7                                                    76338021
 00A8B8 4379 0000      00000       13909          IC    R7,DX0(R9)           MOVE BCD NAME TO WORK AREA.         76344021
 00A8BC 1849                       13910          LR    R4,R9                         AME TO                     76350021
 00A8BE D71F DF10 DF10 0C450 0C450 13911          XC    WKAREA(LX32),WKAREA                                      76356021
 00A8C4 4470 F266      0AB0E       13912          EX    R7,QUA999                                                76362021
 00A8C8 D203 DDD4 DC50 0C314 0C190 13913          MVC   PARAM(LX4),AWKARE                                        76368021
 00A8CE 9210 DDD4      0C314       13914          MVI   PARAM,XX10                                               76374021
 00A8D2 1849                       13915          LR    R4,R9                                                    76380021
 00A8D4 5810 DC74      0C1B4       13916          L     R1,APARAM                                                76386021
 00A8D8 58F0 DBF0      0C130       13917          L     R15,ALDELN          CHECK HIGHEST LEVEL QUALIFIER.       76392021
 00A8DC 05EF                       13918          BALR  R14,R15             BR TO LOCATE DEL GIVEN NAME          76398021
 00A8DE 185F                       13919          LR    R5,R15                                                   76404021
 00A8E0 5550 D3F4      0B934       13920 QUA000   CL    R5,ZEROS                                                 76410021
 00A8E4 58F0 DC4C      0C18C       13921          L     R15,AQUAL                                                76416021
 00A8E8 4720 F07E      0A926       13922          BC    HI,QUA040           CONTINUE                             76422021
 00A8EC 1B11                       13923 QUA010   SR    R1,R1                                                    76428021
 00A8EE 4314 0000      00000       13924          IC    R1,DX0(R4)           CHECK NEXT QUALIFIER IF ANY         76434021
 00A8F2 1A41                       13925          AR    R4,R1                                                    76440021
 00A8F4 5A40 D3F8      0B938       13926          A     R4,ONE                                                   76446021
 00A8F8 9500 4000      00000       13927          CLI   DX0(R4),XX00                                             76452021
 00A8FC 4780 F0A4      0A94C       13928          BC    EQ,QUA050           END OF QUAL STRING                   76458021
 00A900 4374 0000      00000       13929 QUA020   IC    R7,DX0(R4)           MOVE BCD NAME TO WORK AREA.         76464021
 00A904 D71F DF10 DF10 0C450 0C450 13930          XC    WKAREA(LX32),WKAREA                                      76470021
 00A90A 4470 F266      0AB0E       13931          EX    R7,QUA999                                                76476021
 00A90E 9208 DDD4      0C314       13932          MVI   PARAM,XX08                                               76482021
 00A912 5810 DC74      0C1B4       13933          L     R1,APARAM                                                76488021
 00A916 58F0 DBF4      0C134       13934          L     R15,ALATAC                                               76494021
 00A91A 05EF                       13935          BALR  R14,R15             BR-LOCATE ATTRIB USING ACC-PTR       76500021
 00A91C 185F                       13936          LR    R5,R15                                                   76506021
 00A91E 58F0 DC4C      0C18C       13937          L     R15,AQUAL                                                76512021
 00A922 47F0 F038      0A8E0       13938          BC    UNCOND,QUA000       CHECK ATTRIBUTES                     76518021
                                   13939 *                                                                       76524021
 00A926 58E0 DDDC      0C31C       13940 QUA040   L     R14,LREDEF                                               76530021
 00A92A 5550 D424      0B964       13941          CL    R5,TWELVE                                                76536021
 00A92E 58F0 DC4C      0C18C       13942          L     R15,AQUAL                                                76542021
 00A932 4770 F09C      0A944       13943          BC    NOTEQ,QUA045        BR TO GET RETURN CODE                76548021
 00A936 1A79                       13944          AR    R7,R9               IS THIS ITEM NOT QUALIFIED.          76554021
 00A938 9500 7001      00001       13945          CLI   DX1(R7),XX00                                             76560021
 00A93C 4770 F09C      0A944       13946          BC    NOTEQ,QUA045        BR TO GET RETURN CODE                76566021
 00A940 47F0 F0A4      0A94C       13947          BC    UNCOND,QUA050       END OF QUAL STRING                   76572021
1PH20     IKFCBL20                                                                                              PAGE  321
-  LOC  OBJECT CODE    ADDR1 ADDR2  STMT   SOURCE STATEMENT                                       ASM 0201 11.03 02/14/15
000A944 18F5                       13948 QUA045 LR    R15,R5                GET RETURN CODE FROM ACCESS          76578021
 00A946 983C D998      0BED8       13949 QUA046 LM      R3,R12,RS3                                               76584021
 00A94A 07FE                       13950          BCR   UNCOND,R14          RETURN                               76590021
                             00000 13951          USING ICDATT,R2                                                76596021
 00A94C 9023 DEF0      0C430       13952 QUA050   STM   R2,R3,INPUT         END OF QUAL. STRING, SAVE LATACP     76602021
 00A950 D201 DF32 2000 0C472 00000 13953          MVC   WKAREA+NX34(LX2),DX0(R2) SAVE MAJOR AND MINOR CODE OF I  76608021
 00A956 D200 DF31 2008 0C471 00008 13954          MVC   WKAREA+NX33(LX1),DX8(R2) DEC DIG LGN                     76614021
 00A95C 1B11                       13955          SR    R1,R1                                                    76620021
 00A95E 4312 0001      00001       13956          IC    R1,DX1(R2)                                               76626021
 00A962 8810 0004      00004       13957          SRL   R1,DX4               R1,= MINOR CODE                     76632021
 00A966 4131 D134      0B674       13958          LA    R3,KYLNTB(R1)                                            76638021
 00A96A 95FF 3000      00000       13959          CLI   DX0(R3),XXFF                                             76644021
 00A96E 4780 F09E      0A946       13960        BC      EQ,QUA046           ERROR IN KEY'S MINOR CODE            76650021
 00A972 4313 0000      00000       13961          IC    R1,DX0(R3)                                               76656021
 00A976 4401 F0E6      0A98E       13962          EX    R0,QUA100(R1)                                            76662021
 00A97A D203 DF34 2001 0C474 00001 13963          MVC   WKAREA+NX36(LX4),DX1(R2) SAVE KEY'S APAF FIELD           76668021
 00A980 983C D998      0BED8       13964          LM    R3,R12,RS3                                               76674021
 00A984 58E0 DDDC      0C31C       13965          L     R14,LREDEF                                               76680021
 00A988 58F0 D3F4      0B934       13966          L     R15,ZEROS                                                76686021
 00A98C 07FE                       13967          BCR   UNCOND,R14          RETURN                               76692021
 00A98E 4540 F10A      0A9B2       13968 QUA100   BAL   R4,QUA110           GR, AL, AN                           76698021
 00A992 4540 F13A      0A9E2       13969          BAL   R4,QUA120           ED                                   76704021
 00A996 4540 F148      0A9F0       13970          BAL   R4,QUA130           BIN                                  76710021
 00A99A 4540 F176      0AA1E       13971          BAL   R4,QUA140           ID                                   76716021
 00A99E 4540 F18E      0AA36       13972          BAL   R4,QUA150           REPORT                               76722021
                                   13973 *                                                                       76728021
 00A9A2 4540 F1B4      0AA5C       13974          BAL   R4,QUA160           ST. REP.                             76734021
 00A9A6 4540 F1DC      0AA84       13975          BAL   R4,QUA170           STERLING NON-REPORT                  76740021
 00A9AA 4540 F20A      0AAB2       13976          BAL   R4,QUA180           EXT. FLT. PT.                        76746021
 00A9AE 4540 F234      0AADC       13977          BAL   R4,QUA190           INT. FLT. PT.                        76752021
 00A9B2 D201 DDEC 2007 0C32C 00007 13978 QUA110   MVC   LITBUF(LX2),ICDPEN                                       76758021
 00A9B8 4810 DDEC      0C32C       13979          LH    R1,LITBUF                                                76764021
 00A9BC 5410 D4E8      0BA28       13980          N     R1,MK1632                                                76770021
 00A9C0 9104 D677      0BBB7       13981          TM    ITMCLS+NX1,XX04      IS THIS REPORT SECTION S.NAME       76776021
 00A9C4 47E0 F138      0A9E0       13982          BC    NOTONE,QUA115       NO                                   76782021
 00A9C8 5910 D418      0B958       13983          C     R1,NINE             YES, IS LGN G.T. 9 BYTES             76788021
 00A9CC 47D0 F12C      0A9D4       13984          BC    NOTHI,QUA113        NO                                   76794021
 00A9D0 5810 D418      0B958       13985          L     R1,NINE             YES, SET IT TO 9                     76800021
 00A9D4 1831                       13986 QUA113   LR    R3,R1               FIND NUMERIC LGN                     76806021
 00A9D6 8930 0001      00001       13987          SLL   R3,DX1                                                   76812021
 00A9DA 0630                       13988        BCTR  R3,R0                N.L. = 2(LGN) - 1   ( = OF DIGITS     76818021
 00A9DC 4230 D6AA      0BBEA       13989          STC   R3,IPLT+NX2          STORE N.L.                          76824021
 00A9E0 07F4                       13990 QUA115   BCR   UNCOND,R4           END OF GR,AL,AN RTN                  76830021
 00A9E2 4310 2008      00008       13991 QUA120   IC    R1,ICDNL                                                 76836021
 00A9E6 9104 D677      0BBB7       13992          TM    ITMCLS+NX1,XX04      IF REPORT S.NAME GO TO ID           76842021
 00A9EA 4710 F17A      0AA22       13993          BC    ONES,QUA140+NX4      YES                                 76848021
 00A9EE 07F4                       13994          BCR   UNCOND,R4           END OF ED RTN                        76854021
 00A9F0 4310 2008      00008       13995 QUA130   IC    R1,ICDNL            R1 = N.L.                            76860021
 00A9F4 9104 D677      0BBB7       13996          TM    ITMCLS+NX1,XX04      IF REPORT S.NAME GO TO ID           76866021
 00A9F8 4710 F17A      0AA22       13997          BC    ONES,QUA140+NX4      YES                                 76872021
 00A9FC 5910 D404      0B944       13998          C     R1,FOUR                                                  76878021
 00AA00 47D0 F16A      0AA12       13999          BC    NOTHI,QUA131        N.L. LE 4                            76884021
 00AA04 5910 D418      0B958       14000          C     R1,NINE             N.L.  GT  4                          76890021
 00AA08 47D0 F170      0AA18       14001          BC    NOTHI,QUA132        N.L. LE 9                            76896021
 00AA0C 5810 D414      0B954       14002          L     R1,EIGHT            N.L.  GT  9   M.L.=8                 76902021
1PH20     IKFCBL20                                                                                              PAGE  322
-  LOC  OBJECT CODE    ADDR1 ADDR2  STMT   SOURCE STATEMENT                                       ASM 0201 11.03 02/14/15
000AA10 07F4                       14003          BCR   UNCOND,R4           RETURN FROM BIN RTN                  76908021
                                   14004 *                                                                       76914021
 00AA12 5810 D3FC      0B93C       14005 QUA131   L     R1,TWO              N.L.  LT= 4   M.L.=2                 76920021
 00AA16 07F4                       14006          BCR   UNCOND,R4           RETURN FROM BIN RTN                  76926021
 00AA18 5810 D404      0B944       14007 QUA132   L     R1,FOUR             N.L.  LT= 9   M.L.=4                 76932021
 00AA1C 07F4                       14008          BCR   UNCOND,R4           RETURN FROM BIN RTN                  76938021
 00AA1E 4310 2008      00008       14009 QUA140   IC    R1,ICDNL            R1 = N.L.                            76944021
 00AA22 D202 D6A8 2006 0BBE8 00006 14010          MVC   IPLT(LX3),ICDNLS     MOVE N.L.AND SCALE                  76950021
 00AA28 9401 D6A8      0BBE8       14011          NI    IPLT,XX01            SAVE SIGN                           76956021
 00AA2C 8810 0001      00001       14012 QUA142   SRL   R1,DX1               R1 = N.L./2                         76962021
 00AA30 4111 0001      00001       14013          LA    R1,DX1(R1)           R1= N.L.12 +1                       76968021
 00AA34 07F4                       14014          BCR   UNCOND,R4           RETURN FROM ID RTN                   76974021
 00AA36 4310 200B      0000B       14015 QUA150   IC    R1,ICDLGN           GET TOTAL LGN.                       76980021
 00AA3A 9104 D677      0BBB7       14016          TM    ITMCLS+NX1,XX04      IS THIS REPORT S.NAME               76986021
 00AA3E 47E0 F1B2      0AA5A       14017          BC    NOTONE,QUA158       NO, BRANCH                           76992021
 00AA42 D200 D6A9 200A 0BBE9 0000A 14018          MVC   IPLT+NX1(LX1),ICDSCL  MOVE SCALE                         76998021
 00AA48 D200 D6AA 2009 0BBEA 00009 14019          MVC   IPLT+NX2(LX1),ICDNLN     AND NUM. LGN. TO AREA           77004021
 00AA4E 941F D6AA      0BBEA       14020          NI    IPLT+NX2,XX1F                                            77010021
 00AA52 4310 D6AA      0BBEA       14021          IC    R1,IPLT+NX2          GET NUM. LGN.                       77016021
 00AA56 47F0 F184      0AA2C       14022          BC    UNCOND,QUA142         AND CONVERT TO INT. DEC. (ID)      77022021
 00AA5A 07F4                       14023 QUA158   BCR   UNCOND,R4           RETURN FROM REPORT RTN               77028021
 00AA5C 4310 200B      0000B       14024 QUA160   IC    R1,ICDLGN           GET TOTAL LENGTH                     77034021
 00AA60 9104 D677      0BBB7       14025          TM    ITMCLS+NX1,XX04      IS THIS REPORT SECTION S.NAME       77040021
 00AA64 47E0 F1DA      0AA82       14026          BC    NOTONE,QUA168       NO                                   77046021
 00AA68 1B33                       14027          SR    R3,R3               YES                                  77052021
 00AA6A 4310 200D      0000D       14028          IC    R1,ICDNDC           GET NUM OF DEC. AND                  77058021
 00AA6E 4210 D6A9      0BBE9       14029          STC   R1,IPLT+NX1          STORE IN AREA                       77064021
 00AA72 4330 200C      0000C       14030          IC    R3,ICDNPD           GET NUM OF POUNDS DIG.               77070021
 00AA76 4111 3003      00003       14031          LA    R1,DX3(R1,R3)        N.L. = PENCE DEC. + POUNDS + 3      77076021
 00AA7A 4210 D6AA      0BBEA       14032          STC   R1,IPLT+NX2          STORE N.L.                          77082021
 00AA7E 47F0 F184      0AA2C       14033          BC    UNCOND,QUA142       CONVERT TO ID                        77088021
 00AA82 07F4                       14034 QUA168   BCR   UNCOND,R4           RETURN FROM ST.REP. RTN              77094021
 00AA84 4310 2009      00009       14035 QUA170   IC    R1,ICDNLN           GET TOTAL LGN                        77100021
 00AA88 9104 D677      0BBB7       14036          TM    ITMCLS+NX1,XX04      IS THIS REPORT SECTION S.NAME       77106021
 00AA8C 07E4                       14037          BCR   NOTONE,R4           NO                                   77112021
 00AA8E 1B33                       14038          SR    R3,R3               YES                                  77118021
 00AA90 4310 2008      00008       14039          IC    R1,ICDNL                                                 77124021
 00AA94 8810 0003      00003       14040          SRL   R1,DX3               R1= = OF POUND DIGITS               77130021
 00AA98 D200 D6A9 2007 0BBE9 00007 14041          MVC   IPLT+NX1(LX1),ICDPEN                                     77136021
 00AA9E 941F D6A9      0BBE9       14042          NI    IPLT+NX1,XX1F        = OF DEC. PENCE                     77142021
 00AAA2 4330 D6A9      0BBE9       14043          IC    R3,IPLT+NX1                                              77148021
 00AAA6 4111 3003      00003       14044          LA    R1,DX3(R1,R3)        N.L. = POUND + DEC. PENCE +3        77154021
 00AAAA 4210 D6AA      0BBEA       14045          STC   R1,IPLT+NX2          N.L.                                77160021
 00AAAE 47F0 F184      0AA2C       14046          BC    UNCOND,QUA142       CONVERT TO ID                        77166021
 00AAB2 4310 2008      00008       14047 QUA180   IC    R1,ICDNL            GET TOTAL LGN                        77172021
 00AAB6 9104 D677      0BBB7       14048          TM    ITMCLS+NX1,XX04      IS THIS REPORT SECTION S.NAME       77178021
 00AABA 07E4                       14049          BCR   NOTONE,R4           NO                                   77184021
 00AABC 5B10 D408      0B948       14050          S     R1,FIVE             YES, GET N.L.                        77190021
 00AAC0 9140 2007      00007       14051          TM    ICDPEN,XX40          IS THERE DEC. POINT                 77196021
 00AAC4 47E0 F222      0AACA       14052          BC    NOTONE,*+NX6         NO                                  77202021
 00AAC8 0610                       14053        BCTR  R1,R0                YES, SUBTRACT 1 FROM R1               77208021
 00AACA 4210 D6AA      0BBEA       14054          STC   R1,IPLT+NX2          SAVE N.L.                           77214021
 00AACE D200 D6A9 2007 0BBE9 00007 14055          MVC   IPLT+NX1(LX1),ICDPEN  SAVE SCALE                         77220021
 00AAD4 941F D6A9      0BBE9       14056          NI    IPLT+NX1,XX1F                                            77226021
 00AAD8 47F0 F184      0AA2C       14057          BC    UNCOND,QUA142       CONVERT TO ID                        77232021
1PH20     IKFCBL20                                                                                              PAGE  323
-  LOC  OBJECT CODE    ADDR1 ADDR2  STMT   SOURCE STATEMENT                                       ASM 0201 11.03 02/14/15
000AADC 4110 0004      00004       14058 QUA190   LA    R1,DX4               T.L. = 4  SHORT PREC.               77238021
 00AAE0 9101 2008      00008       14059          TM    ICDNL,XX01           8 = LONG  PREC                      77244021
 00AAE4 47E0 F244      0AAEC       14060          BC    NOTONE,QUA192       NO                                   77250021
 00AAE8 4110 0008      00008       14061          LA    R1,DX8                                                   77256021
 00AAEC 9104 D677      0BBB7       14062 QUA192   TM    ITMCLS+NX1,XX04      IS THIS ITEM REPORT SECTION S.NA    77262021
 00AAF0 07E4                       14063          BCR   NOTONE,R4           NO                                   77268021
 00AAF2 4111 0002      00002       14064          LA    R1,DX2(R1)           YES                                 77274021
 00AAF6 5910 D40C      0B94C       14065          C     R1,SIX              N.L.= 6 SHORT PREC.                  77280021
 00AAFA 4780 F25A      0AB02       14066          BC    EQ,QUA194               14 LONG   PREC.                  77286021
 00AAFE 4110 D42C      0B96C       14067          LA    R1,CON14                                                 77292021
 00AB02 4210 D6AA      0BBEA       14068 QUA194   STC   R1,IPLT+NX2          N.L. SAVE                           77298021
 00AB06 9200 D6A9      0BBE9       14069          MVI   IPLT+NX1,XX00        SCALE SAVE (0)                      77304021
 00AB0A 47F0 F184      0AA2C       14070          BC    UNCOND,QUA142       CONVERT TO ID                        77310021
 00AB0E D200 DF10 4000 0C450 00000 14071 QUA999   MVC   WKAREA(LX0),DX0(R4)                                      77316021
                                   14072          DROP  R2                                                       77322021
                                   14073 *                                                                       77328021
                                   14074 *ELIODO - SEE IF ITEM IS AN OCCURS DEPENDING VARIABLE BY SEARCHING      77334021
                                   14075 *         THE OD2TBL WHICH HAS THE OCCURS DEPENDING ON VARIABLES AN     77340021
                                   14076 *         THEIR QUALIFIERS IF ANY(TABLE BUILT BY PHASE 1)               77346021
                             0AB14 14077        USING *,R15                                                      77352021
 00AB14 9108 D5A4      0BAE4       14078 ELIODO   TM    PTBLSW+NX1,XX08      ARE THERE ANY ODO VARIABLES         77358021
 00AB18 078E                       14079          BCR   ZERO,R14            NO, RETURN                           77364021
 00AB1A 900E DA50      0BF90       14080          STM   R0,R14,QSAVE                                             77370021
 00AB1E 94FE D5A7      0BAE7       14081          NI    ODOVSW,XXFE                                              77376021
 00AB22 5840 DBA0      0C0E0       14082          L     R4,AOD2TB           YES, R4= A(TIB)                      77382021
 00AB26 5844 0000      00000       14083          L     R4,DX0(R4)           R4= A(TAMM)                         77388021
 00AB2A 4854 0004      00004       14084          LH    R5,DX4(R4)           R5= TABLE SIZE                      77394021
 00AB2E 5844 0000      00000       14085          L     R4,DX0(R4)           R4= P(OD2TBL)                       77400021
 00AB32 5440 D4C4      0BA04       14086          N     R4,MK0932                                                77406021
 00AB36 5040 D960      0BEA0       14087          ST    R4,QTEXT            SAVE A(OD2TBL)                       77412021
 00AB3A 1A54                       14088          AR    R5,R4               R5= A(END OF OD2TBL)                 77418021
 00AB3C 4174 0002      00002       14089 ELIOD1   LA    R7,DX2(R4)                                               77424021
 00AB40 1B66                       14090 ELIOD2   SR    R6,R6                                                    77430021
 00AB42 4367 0000      00000       14091          IC    R6,DX0(R7)                                               77436021
 00AB46 4176 7001      00001       14092          LA    R7,DX1(R6,R7)                                            77442021
 00AB4A 9500 7000      00000       14093          CLI   DX0(R7),XX00         IS THIS LAST NAME IN ENTRY          77448021
 00AB4E 4770 F02C      0AB40       14094          BC    NOTEQ,ELIOD2        NO, BRANCH                           77454021
 00AB52 1B76                       14095          SR    R7,R6               YES, SET R7 BACK TO COUNT OF LAS     77460021
 00AB54 0670                       14096        BCTR  R7,R0                  NAME                                77466021
 00AB56 4460 F1D0      0ACE4       14097          EX    R6,CMPOD2           IS ODZTBL NAME = CI NAME             77472021
 00AB5A 4780 F064      0AB78       14098          BC    EQ,ELIOD5           YES, SET UP FOR QUAL RTN             77478021
 00AB5E D201 D900 4000 0BE40 00000 14099 ELIOD3   MVC   FULLWD(LX2),DX0(R4)   NO                                 77484021
 00AB64 4A40 D900      0BE40       14100          AH    R4,FULLWD           GET TO NEXT ENTRY                    77490021
 00AB68 5A40 D3FC      0B93C       14101          A     R4,TWO                                                   77496021
 00AB6C 1945                       14102          CR    R4,R5               IS IT END OF TABLE                   77502021
 00AB6E 4740 F028      0AB3C       14103          BC    LO,ELIOD1           NO, LOOK AT NEXT ENTRY               77508021
 00AB72 980E DA50      0BF90       14104          LM    R0,R14,QSAVE        YES, RETURN TO CALLER                77514021
 00AB76 07FE                       14105          BCR   UNCOND,R14          RETURN                               77520021
 00AB78 5880 DAD4      0C014       14106 ELIOD5   L     R8,GPARAM           GET A(LGS)                           77526021
 00AB7C 5888 0000      00000       14107          L     R8,DX0(R8)           R8=A(TAMM)                          77532021
 00AB80 5898 0000      00000       14108          L     R9,DX0(R8)                                               77538021
 00AB84 5490 D4C4      0BA04       14109          N     R9,MK0932           R9= A(TABLE)  GPLSTK                 77544021
 00AB88 4A98 0004      00004       14110          AH    R9,DX4(R8)                                               77550021
 00AB8C 5B90 D444      0B984       14111          S     R9,CON24            R9= A(LGS)                           77556021
 00AB90 5090 DF64      0C4A4       14112          ST    R9,LGSSAV                                                77562021
1PH20     IKFCBL20                                                                                              PAGE  324
-  LOC  OBJECT CODE    ADDR1 ADDR2  STMT   SOURCE STATEMENT                                       ASM 0201 11.03 02/14/15
000AB94 9500 9014      00014       14113          CLI   DX20(R9),XX00        ANY GROUPS OVER THIS ITEM           77568021
 00AB98 4780 F0DC      0ABF0       14114          BC    EQ,ELID10           NO, BRANCH                           77574021
 00AB9C 5810 D684      0BBC4       14115          L     R1,DICTPT           DUMMY DELIMITOR IS CI                77580021
 00ABA0 5A10 D3F8      0B938       14116          A     R1,ONE                 DICT. PTR. +1                     77586021
 00ABA4 5010 DDD8      0C318       14117          ST    R1,PARAM1                                                77592021
 00ABA8 9200 DDD4      0C314       14118          MVI   PARAM,XX00                                               77598021
 00ABAC D202 DDD5 900D 0C315 0000D 14119 ELIOD8   MVC   PARAM+NX1(LX3),DX13(R9) GROUP DICT. PTR.                 77604021
 00ABB2 4110 DDD4      0C314       14120          LA    R1,PARAM                                                 77610021
 00ABB6 58F0 DBF8      0C138       14121          L     R15,AENTDE                                               77616021
 00ABBA 05EF                       14122          BALR  R14,R15             CALL ENTER DELIMITOR                 77622021
 00ABBC 58F0 DC5C      0C19C       14123          L     R15,AELIOD                                               77628021
 00ABC0 5B90 D444      0B984       14124          S     R9,CON24            GET NEXT HIGHER GROUP ON STACK       77634021
 00ABC4 9500 9014      00014       14125          CLI   DX20(R9),XX00        IS IT LEVEL 0 (DUMMY)               77640021
 00ABC8 4770 F098      0ABAC       14126          BC    NOTEQ,ELIOD8        NO                                   77646021
 00ABCC 9501 D76F      0BCAF       14127          CLI   MCI,XX01                 IS THIS FILE SCT WHERE FD,39847 77652021
 00ABD0 4720 F0DC      0ABF0       14128          BC    HI,ELID10                SD CAN BE QUALIFIERS      39847 77658021
 00ABD4 9102 D5AC      0BAEC       14129          TM    NOFDSW,NOFDBIT      IS THIS A RECORD WITH NO FD          77664021
 00ABD8 4710 F0DC      0ABF0       14130          BO    ELID10              YES-BYPASS ENTER DELIMITER RTN       77670021
 00ABDC D202 DDD5 DFE3 0C315 0C523 14131          MVC   PARAM+NX1(LX3),HIQUAL YES                                77676021
 00ABE2 4110 DDD4      0C314       14132          LA    R1,PARAM                                                 77682021
 00ABE6 58F0 DBF8      0C138       14133          L     R15,AENTDE                                               77688021
 00ABEA 05EF                       14134          BALR  R14,R15             BR TO ACCESS RTN 'ENTDEL'            77694021
 00ABEC 58F0 DC5C      0C19C       14135          L     R15,AELIOD                                               77700021
 00ABF0 1814                       14136 ELID10   LR    R1,R4                                                    77706021
 00ABF2 58F0 DC4C      0C18C       14137          L     R15,AQUAL           CALL QUAL TO SEE IF THIS IS          77712021
 00ABF6 05EF                       14138          BALR  R14,R15              ODO VARIABLE                        77718021
 00ABF8 121F                       14139          LTR   R1,R15                                                   77724021
 00ABFA 58F0 DC5C      0C19C       14140          L     R15,AELIOD                                               77730021
 00ABFE 4770 F04A      0AB5E       14141          BC    NOTZER,ELIOD3       NO                                   77736021
 00AC02 5890 DF64      0C4A4       14142 ELID12   L     R9,LGSSAV           YES                                  77742021
 00AC06 9823 DEF0      0C430       14143          LM    R2,R3,INPUT         R2= ADDR. OF DICT. ATTRIB. ODO V     77748021
                                   14144 *                                  R3= DICT. PTR. OF ODO VARIABLE       77754021
 00AC0A 5930 D684      0BBC4       14145          C     R3,DICTPT           IS THE ITEM FOUND REALLY THE ONE     77760021
 00AC0E 4770 F04A      0AB5E       14146          BC    NOTEQ,ELIOD3        NO, BRANCH             LOOKED FO     77766021
 00AC12 9602 2006      00006       14147          OI    DX6(R2),XX02        SET Q-BIT ON                         77772021
 00AC16 9500 9014      00014       14148 ELID14   CLI   DX20(R9),XX00        NO GROUPS OVER THIS ITEM            77778021
 00AC1A 4780 F14E      0AC62       14149          BC    EQ,ELID20           YES, BRANCH                          77784021
 00AC1E 9640 9000      00000       14150          OI    DX0(R9),XX40         SET Q-BIT IN ALL OF CI'S GROUPS     77790021
 00AC22 9140 9001      00001       14151          TM    DX1(R9),XX40         IS ODO VARIABLE IN VARIABLE PART    77796021
                                   14152 *                                    RECORD                             77802021
 00AC26 4710 F1B2      0ACC6       14153          BC    ONES,ELID35         YES, BRANCH                          77808021
 00AC2A 5B90 D444      0B984       14154 ELID16   S     R9,CON24            R9= A(NEXT GROUP) IN GPLSTK          77814021
 00AC2E 9500 9014      00014       14155          CLI   DX20(R9),XX00                                            77820021
 00AC32 4770 F102      0AC16       14156          BC    NOTEQ,ELID14        GO SEE IF GROUPS OVER THIS ITEM      77826021
 00AC36 9501 D76F      0BCAF       14157          CLI   MCI,XX01                 IF FILE SCT ENTER Q-BIT   39847 77832021
 00AC3A 4720 F14E      0AC62       14158          BC    HI,ELID20                IN FD, SD DICT ENTRY      39847 77838021
 00AC3E 9102 D5AC      0BAEC       14159          TM    NOFDSW,NOFDBIT      IS THIS A RECORD WITH NO FD          77844021
 00AC42 4710 F14E      0AC62       14160          BO    ELID20              YES-BYPASS.                          77850021
 00AC46 D202 DDD5 DFE3 0C315 0C523 14161          MVC   PARAM+NX1(LX3),HIQUAL                                    77856021
 00AC4C 9204 DDD4      0C314       14162          MVI   PARAM,XX04                                               77862021
 00AC50 4110 DDD4      0C314       14163          LA    R1,PARAM                                                 77868021
 00AC54 58F0 DBE4      0C124       14164          L     R15,ALATRP                                               77874021
 00AC58 05EF                       14165          BALR  R14,R15             GET A(ATTRIBUTES) OF FD, SD, SA      77880021
 00AC5A 58F0 DC5C      0C19C       14166          L     R15,AELIOD                                               77886021
 00AC5E 9680 2001      00001       14167          OI    DX1(R2),XX80         SET Q-BIT ON IN DICT. ATTR.         77892021
1PH20     IKFCBL20                                                                                              PAGE  325
-  LOC  OBJECT CODE    ADDR1 ADDR2  STMT   SOURCE STATEMENT                                       ASM 0201 11.03 02/14/15
000AC62 9110 D5A4      0BAE4       14168 ELID20   TM    PTBLSW+NX1,XX10      WAS QITBL PRIMED                    77898021
 00AC66 4710 F164      0AC78       14169          BC    ONES,ELID21         YES                                  77904021
 00AC6A 4110 DB24      0C064       14170          LA    R1,QITBLP           NO                                   77910021
 00AC6E 58F0 DCE4      0C224       14171          L     R15,BPRIME                                               77916021
 00AC72 05EF                       14172          BALR  R14,R15             BRANCH TO PRIME ROUTINE              77922021
 00AC74 9610 D5A4      0BAE4       14173          OI    PTBLSW+NX1,XX10      SET PRIME SW ON                     77928021
 00AC78 5810 DB24      0C064       14174 ELID21   L     R1,QITBLP                                                77934021
 00AC7C 58F0 DCE8      0C228       14175          L     R15,BINSRT                                               77940021
 00AC80 05EF                       14176          BALR  R14,R15             INSERT QITBL ENTRY                   77946021
 00AC82 58F0 DC5C      0C19C       14177          L     R15,AELIOD                                               77952021
 00AC86 1814                       14178          LR    R1,R4               R1IS A(ENTRY)                        77958021
 00AC88 5B10 D960      0BEA0       14179          S     R1,QTEXT            R1 IS DISP OF ODO VAR. IN OD2TBL     77964021
 00AC8C 5010 DDD8      0C318       14180          ST    R1,PARAM+NX4         MOVE OD2TBL DISP TO PARAM           77970021
 00AC90 D203 DDD4 D684 0C314 0BBC4 14181          MVC   PARAM(LX4),DICTPT    MOVE ODO VAR. DICT. PTR. TO PARA    77976021
 00AC96 D207 2000 DDD4 00000 0C314 14182          MVC   DX0(LX8,R2),PARAM                                        77982021
 00AC9C 9504 D76F      0BCAF       14183          CLI   MCI,XX04             IF ODO VARIABLE                     77988021
 00ACA0 4770 F1AC      0ACC0       14184          BC    NOTEQ,ELID30         IS IN WORKING STORAGE SECTION       77994021
 00ACA4 9138 D676      0BBB6       14185          TM    ITMCLS,XX38           AND HAS NO VALUE CLAUSE            78000021
 00ACA8 4770 F1AC      0ACC0       14186          BC    NOTZER,ELID30        INITIALIZE                          78006021
 00ACAC 9628 D676      0BBB6       14187          OI    ITMCLS,XX28           ITEM TO                            78012021
 00ACB0 D201 D6E6 D59B 0BC26 0BADB 14188          MVC   LITVAL(LX2),ODOFIG    ZERO THRU                          78018021
 00ACB6 58F0 DC04      0C144       14189          L     R15,AVALGN           VALGEN ROUTINE                      78024021
 00ACBA 05EF                       14190          BALR  R14,R15             BRANCH                               78030021
 00ACBC 94C7 D676      0BBB6       14191          NI    ITMCLS,XXC7          TURN OFF VALUE BITS                 78036021
 00ACC0 980E DA50      0BF90       14192 ELID30   LM    R0,R14,QSAVE                                             78042021
 00ACC4 07FE                       14193          BCR   UNCOND,R14          RETURN                               78048021
 00ACC6 9101 D5A7      0BAE7       14194 ELID35   TM    ODOVSW,XX01          WAS ERROR PUT OUT                   78054021
 00ACCA 4710 F116      0AC2A       14195          BC    ONES,ELID16         YES, RETURN                          78060021
 00ACCE 4800 F1D6      0ACEA       14196          LH    R0,ER158                                                 78066021
 00ACD2 58F0 DBC0      0C100       14197          L     R15,AERRTN                                               78072021
 00ACD6 05EF                       14198          BALR  R14,R15             BRANCH TO ERR RTN                    78078021
 00ACD8 58F0 DC5C      0C19C       14199          L     R15,AELIOD                                               78084021
 00ACDC 9601 D5A7      0BAE7       14200          OI    ODOVSW,XX01          SET SW ON                           78090021
 00ACE0 47F0 F116      0AC2A       14201          BC    UNCOND,ELID16       BRANCH                               78096021
 00ACE4 D500 D5EC 7000 0BB2C 00000 14202 CMPOD2   CLC   CI(LX0),DX0(R7)                                          78102021
 00ACEA 809E                       14203 ER158    DC    X'809E'                                                  78108021
                                   14204 *                                                                       78114021
                                   14205 *=2 QBUILD- BUILDS QRTN AND QFILE TABLE ENTRY WHEN AN ITEM WITH AN      78120021
                                   14206 *           OCCURS   DEPENDING ON CLAUSE IS ENCOUNTERED. QINIT A-TE     78126021
                                   14207 *           (QDEF) IS PUT OUT ON FILE 4 FOR ALL QRTNS WHICH MUST BE     78132021
                                   14208 *           EXECUTED AT INTIIALIZATION (Q-RTNS FOR ALL RECORDS OTHE     78138021
                                   14209 *           THAN QSAM AND QISAM)                                        78144021
                             0ACEC 14210          USING *,R15                                                    78150021
 00ACEC 900E DA50      0BF90       14211 QBUILD   STM   R0,R14,QSAVE                                             78156021
 00ACF0 9288 D592      0BAD2       14212          MVI   QCALL+NX2,XX88       SET GNDEF CODE                      78162021
 00ACF4 9120 D5A4      0BAE4       14213          TM    PTBLSW+NX1,XX20      HAS QRTN TABLE BEEN PRIMED          78168021
 00ACF8 4710 F030      0AD1C       14214          BC    ONES,QBLD01         YES                                  78174021
 00ACFC 4110 DB14      0C054       14215          LA    R1,QRTNPM           NO, PRIME QRTN TABLE                 78180021
 00AD00 58F0 DCE4      0C224       14216          L     R15,BPRIME                                               78186021
 00AD04 05EF                       14217          BALR  R14,R15             GO TO PRIME RTN                      78192021
 00AD06 58F0 DC60      0C1A0       14218          L     R15,AQBUIL                                               78198021
 00AD0A 9620 D5A4      0BAE4       14219          OI    PTBLSW+NX1,XX20      SET PRIME SW ON                     78204021
 00AD0E 4130 0002      00002       14220          LA    R3,DX2               PUT OUT                             78210021
 00AD12 4120 D595      0BAD5       14221          LA    R2,QRTNHD             QRTN                               78216021
 00AD16 181B                       14222          LR    R1,R11                  HEADER ON                        78222021
1PH20     IKFCBL20                                                                                              PAGE  326
-  LOC  OBJECT CODE    ADDR1 ADDR2  STMT   SOURCE STATEMENT                                       ASM 0201 11.03 02/14/15
000AD18 0501                       14223          BALR  R0,R1                      FILE 2                        78228021
 00AD1A 12                         14224          DC    X'12'                                                    78234021
 00AD1B 00
 00AD1C 9101 DFE9      0C529       14225 QBLD01   TM    GNSW,XX01            HAS A GN= BEEN ENTERED              78240021
 00AD20 4710 F14E      0AE3A       14226          BC    ONES,QBLD50         YES                                  78246021
 00AD24 4810 B15E      0015E       14227          LH    R1,GNCTR        M)  NO, GET A GN=                        78252021
 00AD28 5A10 D3F8      0B938       14228          A     R1,ONE                                                   78258021
 00AD2C 4010 B15E      0015E       14229          STH   R1,GNCTR         )                                       78264021
 00AD30 4010 DFEC      0C52C       14230          STH   R1,GNNUMB                                                78270021
 00AD34 D201 DFF0 D3F4 0C530 0B934 14231          MVC   GNDISP(LX2),ZEROS                                        78276021
 00AD3A D201 D593 DFEC 0BAD3 0C52C 14232          MVC   QCALL+NX3(LX2),GNNUMB PUT OUT                            78282021
 00AD40 4130 0003      00003       14233          LA    R3,DX3                 GNDEF                             78288021
 00AD44 4120 D592      0BAD2       14234          LA    R2,QCALL+NX2                                             78294021
 00AD48 181B                       14235          LR    R1,R11                    ON                             78300021
 00AD4A 0501                       14236          BALR  R0,R1                     FILE 2                         78306021
 00AD4C 12                         14237          DC    X'12'                                                    78312021
 00AD4D 00
 00AD4E 5810 DB14      0C054       14238          L     R1,QRTNPM                                                78318021
 00AD52 58F0 DCE8      0C228       14239          L     R15,BINSRT                                               78324021
 00AD56 05EF                       14240          BALR  R14,R15             CALL INSERT                          78330021
 00AD58 58F0 DC60      0C1A0       14241          L     R15,AQBUIL          RESET BASE REG.                      78336021
 00AD5C D203 2000 DFEC 00000 0C52C 14242          MVC   DX0(LX4,R2),GNNUMB    MOVE GN= AND N(COUNT) TO TABLE(Q   78342021
 00AD62 5A30 D3FC      0B93C       14243          A     R3,TWO                                                   78348021
 00AD66 4030 DFF0      0C530       14244          STH   R3,GNDISP           GNDISP= DISP OF N IN TABLE           78354021
 00AD6A 9601 DFE9      0C529       14245          OI    GNSW,XX01            SET GNSW ON                         78360021
 00AD6E 9502 D76F      0BCAF       14246          CLI   MCI,XX02             IS ODO UNDER FD                     78366021
 00AD72 4720 F18E      0AE7A       14247          BC    HI,QBLD60           NO                                   78372021
 00AD76 9102 D5AC      0BAEC       14248          TM    NOFDSW,NOFDBIT      IS THIS A RECORD WITH NO FD          78378021
 00AD7A 4710 F14E      0AE3A       14249          BO    QBLD50              YES-BYPASS QINIT & OBJSUB PROC       78384021
 00AD7E 47F0 F11E      0AE0A       14250          B     QBLD15              GO TO GENERATE INIT.                 78390021
 00AD82 9140 D5A4      0BAE4       14251 QBLD05   TM    PTBLSW+NX1,XX40      HAS QFILE TABLE BEEN PRIMED         78396021
 00AD86 4710 F0B4      0ADA0       14252          BC    ONES,QBLD10        YES- BRANCH.                          78402021
 00AD8A 4110 DB1C      0C05C       14253          LA    R1,QFILEP            *                                   78408021
 00AD8E 58F0 DCE4      0C224       14254          L     R15,BPRIME           *  PRIME                            78414021
 00AD92 05EF                       14255          BALR  R14,R15              *  QFILE TABLE.                     78420021
 00AD94 58F0 DC60      0C1A0       14256          L     R15,AQBUIL           *                                   78426021
 00AD98 9640 D5A4      0BAE4       14257          OI    PTBLSW+NX1,XX40     SET PRIMED SWITCH.                   78432021
                                   14258 *                                                                       78438021
 00AD9C 9601 B182      00182       14259          OI    SWITCH,XX01          QFILE TABLE EXISTS FOR PH3          78444021
                                   14260 *                                                                       78450021
                             0ADA0 14261 QBLD10   EQU   *                                                  39847 78456021
 00ADA0 9501 D76F      0BCAF       14262          CLI   MCI,XX01                 IS THIS FOR AN SD         39847 78462021
 00ADA4 4770 F0DC      0ADC8       14263          BNE   QBLD10A                     NO, BR                 39847 78468021
 00ADA8 9509 DFF2      0C532       14264          CLI   GNDCB,XX09    WAS LAST QFILE ENTRY FOR SD          06813 78474021
 00ADAC 4770 F0CE      0ADBA       14265          BNE   QBLD10Y       NO - MAKE NEW ENTRY FOR SD           06813 78480021
 00ADB0 D500 DFF3 DEDA 0C533 0C41A 14266          CLC   GNDCB+NX1(LX1),SDBLL     YS,HAS THIS BEEN ENTERED  39847 78486021
 00ADB6 4780 F132      0AE1E       14267          BE    QBLD20                       YES, BR               39847 78492021
                                   14268 *  NO, BUILD A NEW QFILE ENTRY FOR SD                             39847 78498021
                             0ADBA 14269 QBLD10Y  EQU   *                                                  06813 78504021
 00ADBA 9209 DFF2      0C532       14270          MVI   GNDCB,XX09               IDENTIFYING CDE FOR SD    39847 78510021
 00ADBE D200 DFF3 DEDA 0C533 0C41A 14271          MVC   GNDCB+NX1(LX1),SDBLL     FIRST BLL NO FOR SD       39847 78516021
 00ADC4 47F0 F0F8      0ADE4       14272          B     QBLD10B                       BR                   39847 78522021
                             0ADC8 14273 QBLD10A  EQU   *                                                  39847 78528021
 00ADC8 9509 DFF2      0C532       14274          CLI   GNDCB,XX09    WAS LAST QFILE ENTRY FOR SD          06813 78534021
 00ADCC 4780 F0EE      0ADDA       14275          BE    QBLD10Z       YES - MAKE NEW ENTRY FOR FD          06813 78540021
1PH20     IKFCBL20                                                                                              PAGE  327
-  LOC  OBJECT CODE    ADDR1 ADDR2  STMT   SOURCE STATEMENT                                       ASM 0201 11.03 02/14/15
000ADD0 D500 DFF3 DF4B 0C533 0C48B 14276          CLC   GNDCB+NX1(LX1),FD+NX3    HAS THIS DCB BEEN ENTERED 39847 78546021
 00ADD6 4780 F132      0AE1E       14277          BE    QBLD20             YES- BRANCH.                          78552021
                                   14278 *                                 NO- BUILD A NEW QFILE ENTRY           78558021
                             0ADDA 14279 QBLD10Z  EQU   *                                                  06813 78564021
 00ADDA 9200 DFF2      0C532       14280          MVI   GNDCB,XX00    INDICATE FD ENTRY                    06813 78570021
 00ADDE D200 DFF3 DF4B 0C533 0C48B 14281          MVC   GNDCB+NX1(LX1),FD+NX3                                    78576021
                             0ADE4 14282 QBLD10B  EQU   *                                                  39847 78582021
 00ADE4 D201 DFF4 DFEC 0C534 0C52C 14283          MVC   GNGN(LX2),GNNUMB    SAVE DCB NUMBER.                     78588021
 00ADEA 4100 0006      00006       14284          LA    R0,DX6                *                                  78594021
 00ADEE 5810 DB1C      0C05C       14285          L     R1,QFILEP            *  GET NEXT 6 BYTE ENTRY            78600021
 00ADF2 58F0 DCE8      0C228       14286          L     R15,BINSRT           *  USING THE VARIABLE               78606021
 00ADF6 05EF                       14287          BALR  R14,R15              *  LENGTH ENTRY OPTION.             78612021
 00ADF8 58F0 DC60      0C1A0       14288          L     R15,AQBUIL           *                                   78618021
 00ADFC D201 2000 DFF2 00000 0C532 14289          MVC   DX0(LX2,R2),GNDCB                                        78624021
 00AE02 4122 0002      00002       14290          LA    R2,DX2(R2)                                               78630021
 00AE06 47F0 F148      0AE34       14291          B     QBLD30              BRANCH                               78636021
 00AE0A 9680 DFEC      0C52C       14292 QBLD15   OI    GNNUMB,XX80          SET HIGH BIT ON                     78642021
 00AE0E 4540 F19E      0AE8A       14293          BAL   R4,QBLD70           GO GENERATE INIT                     78648021
 00AE12 947F DFEC      0C52C       14294          NI    GNNUMB,XX7F          TURN OFF                            78654021
 00AE16 947F DFF7      0C537       14295          NI    INITGN,XX7F                HIGH BIT                      78660021
 00AE1A 47F0 F096      0AD82       14296          B     QBLD05              SEE IF QFILE TABLE PRIMED YET        78666021
                                   14297 *                                                                       78672021
 00AE1E 4100 0002      00002       14298 QBLD20   LA    R0,DX2                                                   78678021
 00AE22 5810 DB1C      0C05C       14299          L     R1,QFILEP                                                78684021
 00AE26 58F0 DCE8      0C228       14300          L     R15,BINSRT                                               78690021
 00AE2A 05EF                       14301          BALR  R14,R15             CALL INSERT RTN                      78696021
 00AE2C 58F0 DC60      0C1A0       14302          L     R15,AQBUIL                                               78702021
 00AE30 5B20 D3FC      0B93C       14303          S     R2,TWO                                                   78708021
                                   14304 *                                                                       78714021
 00AE34 D203 2000 DFEC 00000 0C52C 14305 QBLD30   MVC   DX0(LX4,R2),GNNUMB                                       78720021
 00AE3A D703 DDD4 DDD4 0C314 0C314 14306 QBLD50   XC    PARAM(LX4),PARAM                                         78726021
 00AE40 D201 DDD6 D67A 0C316 0BBBA 14307          MVC   PARAM+NX2(LX2),OBJDIS MOVE ODZTBL PTR TO WORKAREA        78732021
 00AE46 5810 DB14      0C054       14308          L     R1,QRTNPM                                                78738021
 00AE4A 1841                       14309          LR    R4,R1                                                    78744021
 00AE4C 58F0 DCE8      0C228       14310          L     R15,BINSRT          MOVE OD2TBL PTR TO QRTN TABLE        78750021
 00AE50 05EF                       14311          BALR  R14,R15             CALL INSERT RTN                      78756021
 00AE52 58F0 DC60      0C1A0       14312          L     R15,AQBUIL                                               78762021
 00AE56 D203 2000 DDD4 00000 0C314 14313          MVC   DX0(LX4,R2),PARAM                                        78768021
 00AE5C 5844 0000      00000       14314          L     R4,DX0(R4)                A(TAMM)    QRTN TABLE          78774021
 00AE60 5844 0000      00000       14315          L     R4,DX0(R4)                A(TABLE)                       78780021
 00AE64 4A40 DFF0      0C530       14316          AH    R4,GNDISP                A(N-COUNT) IN CURRENT GN EN     78786021
 00AE68 4854 0000      00000       14317          LH    R5,DX0(R4)                ADD 1 TO N-COUNT               78792021
 00AE6C 5A50 D3F8      0B938       14318          A     R5,ONE                      IN ENTRY                     78798021
 00AE70 4054 0000      00000       14319          STH   R5,DX0(R4)                                               78804021
 00AE74 980E DA50      0BF90       14320          LM    R0,R14,QSAVE                                             78810021
 00AE78 07FE                       14321          BCR   UNCOND,R14          RETURN                               78816021
 00AE7A 9504 D76F      0BCAF       14322 QBLD60   CLI   MCI,XX04             IS ODO ITEM IN WORKING STORAGE      78822021
 00AE7E 4770 F14E      0AE3A       14323          BC    NOTEQ,QBLD50        NO                                   78828021
 00AE82 4540 F19E      0AE8A       14324          BAL   R4,QBLD70           YES, PUT OUT QINIT TEXT              78834021
 00AE86 47F0 F14E      0AE3A       14325          BC    UNCOND,QBLD50       BRANCH                               78840021
 00AE8A D201 DFF7 DFEC 0C537 0C52C 14326 QBLD70   MVC   INITGN(LX2),GNNUMB   NO, PUT OUT QDEF ON FILE 4          78846021
 00AE90 4130 0003      00003       14327          LA    R3,DX3                                                   78852021
 00AE94 4120 DFF6      0C536       14328          LA    R2,QDEFTX                                                78858021
 00AE98 5810 DB84      0C0C4       14329          L     R1,COSADR                                                78864021
 00AE9C 0501                       14330          BALR  R0,R1               BRANCH TO COMMON ROUTINE             78870021
1PH20     IKFCBL20                                                                                              PAGE  328
-  LOC  OBJECT CODE    ADDR1 ADDR2  STMT   SOURCE STATEMENT                                       ASM 0201 11.03 02/14/15
000AE9E 14                         14331          DC    X'14'                                                    78876021
 00AE9F 00
 00AEA0 4810 B16C      0016C       14332          LH    R1,ODOCTR     RCOM) ADD ONE TO ODOCTR IN COMMON          78882021
 00AEA4 5A10 D3F8      0B938       14333          A     R1,ONE                FOR EACH                           78888021
 00AEA8 4010 B16C      0016C       14334          STH   R1,ODOCTR       OM)  QINIT TEXT                          78894021
 00AEAC 07F4                       14335          BCR   UNCOND,R4           RETURN                               78900021
                                   14336 *                                                                       78906021
                                   14337 *=2    QVARBD-COMBINES QRTN TABLE AND QITBL INTO QVAR TABLE AND LEA     78912021
                                   14338 *              QVAR TABLE FOR PHASE 3.                                  78918021
                                   14339 *                                                                       78924021
                             0AEAE 14340          USING *,R15                                                    78930021
 00AEAE 900E DA50      0BF90       14341 QVARBD   STM   R0,R14,QSAVE                                             78936021
 00AEB2 9130 D5A4      0BAE4       14342          TM    PTBLSW+NX1,XX30     WERE QRTN,QITBL TABLES PRIMED? 55190 78942021
 00AEB6 07EE                       14343          BCR   NOTONE,R14          NO, RETURN                           78948021
 00AEB8 9500 DFB9      0C4F9       14344          CLI   ODOCT,XX00           ODO'S FOR TBLSRH                    78954021
 00AEBC 4780 F088      0AF36       14345          BE    QVAR09              NO                                   78960021
 00AEC0 5810 DB34      0C074       14346          L   R1,ATBLSH             YES                                  78966021
 00AEC4 5811 0000      00000       14347          L     R1,DX0(R1)                                               78972021
 00AEC8 5811 0000      00000       14348          L     R1,DX0(R1)                                               78978021
 00AECC 5870 DB24      0C064       14349          L     R7,QITBLP                GET QITBL                 34761 78984021
 00AED0 5887 0000      00000       14350          L     R8,DX0(R7)                         TABLE           34761 78990021
 00AED4 5878 0000      00000       14351          L     R7,DX0(R8)                 ADDRESS                 34761 78996021
 00AED8 5470 D4C4      0BA04       14352          N     R7,MK0932                CLEAR 1ST BYTE                  79002021
 00AEDC 1867                       14353          LR    R6,R7                    PUT IN R6                 34761 79008021
 00AEDE 4A78 0004      00004       14354          AH    R7,DX4(R8)               GET ADDR OF END OF        34761 79014021
 00AEE2 1857                       14355          LR    R5,R7                        TABLE IN R5           34761 79020021
 00AEE4 1876                       14356          LR    R7,R6                    R7 = BEGINNING OF TABLE   34761 79026021
 00AEE6 1B44                       14357          SR    R4,R4                                                    79032021
 00AEE8 4340 DFB9      0C4F9       14358          IC    R4,ODOCT            HOW MANY VARIABLES                   79038021
 00AEEC 9110 1004      00004       14359 QVAR03   TM    DX4(R1),XX10         THIS ENTRY HAVE PTR                 79044021
 00AEF0 4780 F068      0AF16       14360          BZ    QVAR04              NO                                   79050021
 00AEF4 D501 1005 7006 00005 00006 14361 QVAR06   CLC   DX5(LX2,R1),DX6(R7)   EQUAL                              79056021
 00AEFA 4780 F074      0AF22       14362          BE    QVAR07              YES                                  79062021
 00AEFE 4177 0008      00008       14363          LA    R7,DX8(R7)                                               79068021
 00AF02 1975                       14364          CR    R7,R5                    IS IT END OF QITBL        34761 79074021
 00AF04 4740 F046      0AEF4       14365          BL    QVAR06                   NO, CHECK NEXT            34761 79080021
 00AF08 9604 1004      00004       14366          OI    DX4(R1),XX04        YES, LET PH3 KNOW ODO          34761 79086021
                                   14367 *   OBJECT NOT DEFINED                                            34761 79092021
 00AF0C D702 1005 1005 00005 00005 14368          XC    DX5(LX3,R1),DX5(R1)      PUT ZEROS IN DICT PTR FLD 34761 79098021
 00AF12 47F0 F07A      0AF28       14369          B     QVAR08                   CHECK NEXT ENTRY          34761 79104021
 00AF16 1B88                       14370 QVAR04   SR    R8,R8                                                    79110021
 00AF18 4381 0000      00000       14371          IC    R8,DX0(R1)           COUNT OF ENTRY                      79116021
 00AF1C 1A18                       14372          AR    R1,R8                                                    79122021
 00AF1E 47F0 F03E      0AEEC       14373          B     QVAR03              CHECK NEXT ENTRY                     79128021
 00AF22 D202 1005 7001 00005 00001 14374 QVAR07   MVC   DX5(LX3,R1),DX1(R7)   MOVE DICT PTR                      79134021
 00AF28 1B88                       14375 QVAR08   SR    R8,R8                    CLEAR R8                  34761 79140021
 00AF2A 4381 0000      00000       14376          IC    R8,DX0(R1)           GET COUNT                           79146021
 00AF2E 1876                       14377          LR    R7,R6                                                    79152021
 00AF30 1A18                       14378          AR    R1,R8                                                    79158021
 00AF32 4640 F03E      0AEEC       14379          BCT   R4,QVAR03           SEE IF ENTRY HAD PTR                 79164021
                             0AF36 14380 QVAR09   EQU   *                                                        79170021
 00AF36 5810 DB14      0C054       14381          L     R1,QRTNPM           YES, ENTER EOT                       79176021
 00AF3A 4540 F326      0B1D4       14382          BAL   R4,QVAR90            VIA QVAR90                          79182021
                                   14383 *DEL                                                                    79188021
                                   14384 *DEL                                                                    79194021
1PH20     IKFCBL20                                                                                              PAGE  329
-  LOC  OBJECT CODE    ADDR1 ADDR2  STMT   SOURCE STATEMENT                                       ASM 0201 11.03 02/14/15
0                                  14385 *DEL                                                                    79200021
                                   14386 *DEL                                                                    79206021
 00AF3E 5810 DB24      0C064       14387 QVAR10   L     R1,QITBLP           ENTER EOT VIA                        79212021
 00AF42 4540 F326      0B1D4       14388          BAL   R4,QVAR90              QVAR90                            79218021
 00AF46 4110 DB2C      0C06C       14389          LA    R1,QVARPM           PRIME QVAR                           79224021
 00AF4A 58F0 DCE4      0C224       14390          L     R15,BPRIME                                               79230021
 00AF4E 05EF                       14391          BALR  R14,R15             CALL PRIME ROUTINE                   79236021
 00AF50 9604 B182      00182       14392          OI    SWITCH,XX04                                              79242021
 00AF54 58F0 DC64      0C1A4       14393          L     R15,AQVARB                                               79248021
 00AF58 1B77                       14394          SR    R7,R7                                                    79254021
 00AF5A 5850 DB24      0C064       14395 QVAR15   L     R5,QITBLP                                                79260021
 00AF5E 5855 0000      00000       14396          L     R5,DX0(R5)                                               79266021
 00AF62 5855 0000      00000       14397          L     R5,DX0(R5)           R5= A(QITBL)                        79272021
 00AF66 1B88                       14398          SR    R8,R8                                                    79278021
 00AF68 5B50 D414      0B954       14399          S     R5,EIGHT            R5= A(QITBL)-8                       79284021
 00AF6C 5B80 D414      0B954       14400          S     R8,EIGHT                                                 79290021
 00AF70 5860 DB14      0C054       14401 QVAR20   L     R6,QRTNPM                                                79296021
 00AF74 5866 0000      00000       14402          L     R6,DX0(R6)                                               79302021
 00AF78 5866 0000      00000       14403          L     R6,DX0(R6)           R6= A(QRTN TABLE)                   79308021
 00AF7C 1B99                       14404          SR    R9,R9                                                    79314021
 00AF7E D201 DFF4 D3F4 0C534 0B934 14405          MVC   GNGN(LX2),ZEROS                                          79320021
 00AF84 5A50 D414      0B954       14406          A     R5,EIGHT            GET NEXT QITBL ENTRY                 79326021
 00AF88 5A80 D414      0B954       14407          A     R8,EIGHT            ADD TO DISP IN QITBL OF NEXT         79332021
 00AF8C D503 5000 D3F4 00000 0B934 14408          CLC   DX0(LX4,R5),ZEROS     IS THIS EOT                        79338021
 00AF92 4780 F176      0B024       14409          BC    EQ,QVAR40           YES                                  79344021
 00AF96 4100 0004      00004       14410          LA    R0,DX4                                                   79350021
 00AF9A 5850 DB24      0C064       14411          L     R5,QITBLP           RESTORE QITBL ADDRESS AND            79356021
 00AF9E 4540 F338      0B1E6       14412          BAL   R4,QVAR91           CALL INSERT FOR SPACE IN QVAR TA     79362021
 00AFA2 1A58                       14413          AR    R5,R8                                                    79368021
 00AFA4 4540 F350      0B1FE       14414          BAL   R4,QVAR95           RESTORE QRTN  ADDRESS                79374021
 00AFA8 D203 2000 5000 00000 00000 14415          MVC   DX0(LX4,R2),DX0(R5)   INSERT DICT. PTR. OF ODO VAR.(FR   79380021
                                   14416 *                                  QITBL) INTO QVAR                     79386021
 00AFAE 48A6 0002      00002       14417 QVAR21   LH    R10,DX2(R6)          R10= NO. OF OD2TBL DISP. PTRS. I    79392021
                                   14418 *                                   THIS GN QRTN ENTRY                  79398021
 00AFB2 D201 DFEC 6000 0C52C 00000 14419          MVC   GNNUMB(LX2),DX0(R6)   PUT GN= FOR THIS ENTRY IN WKARA    79404021
 00AFB8 D503 6004 5004 00004 00004 14420 QVAR22   CLC   DX4(LX4,R6),DX4(R5)   COMPARE DISP. PTR. IN QRTN TO      79410021
                                   14421 *                                          DISP. PTR  IN QITBL          79416021
 00AFBE 4770 F13C      0AFEA       14422          BC    NOTEQ,QVAR24        NOT EQUAL, BRANCH                    79422021
 00AFC2 D501 DFF4 DFEC 0C534 0C52C 14423          CLC   GNGN(LX2),GNNUMB     IS THIS GN IN QVAR ALREADY(DUPLI    79428021
                                   14424 *                                   GN FOR A DICT. PTR)                 79434021
 00AFC8 4780 F13C      0AFEA       14425          BC    EQ,QVAR24           YES, BRANCH                          79440021
 00AFCC 4100 0002      00002       14426          LA    R0,DX2               NO, ENTER GN INTO QVAR              79446021
 00AFD0 5850 DB24      0C064       14427          L     R5,QITBLP           RESTORE QITBL ADDRESS                79452021
 00AFD4 4540 F338      0B1E6       14428          BAL   R4,QVAR91             (QVAR91 GETS SPACE)                79458021
 00AFD8 1A58                       14429          AR    R5,R8                                                    79464021
 00AFDA 4540 F350      0B1FE       14430          BAL   R4,QVAR95           RESTORE QRTN TABLE ADDRESS           79470021
 00AFDE D201 2000 DFEC 00000 0C52C 14431          MVC   DX0(LX2,R2),GNNUMB                                       79476021
 00AFE4 D201 DFF4 DFEC 0C534 0C52C 14432          MVC   GNGN(LX2),GNNUMB     GNGN IS USED FOR DUPLICATE GN CH    79482021
 00AFEA 46A0 F16A      0B018       14433 QVAR24   BCT   R10,QVAR25          BRANCH IF MORE OD2TBL DISP. PTRS     79488021
                                   14434 *                                   FOR CURRENT GN OTHERWISE            79494021
 00AFEE 5A60 D414      0B954       14435          A     R6,EIGHT            GET NEXT GN                          79500021
 00AFF2 5A90 D414      0B954       14436          A     R9,EIGHT            UP DISP OF QRTN ENTRY                79506021
 00AFF6 D503 6000 D3F4 00000 0B934 14437          CLC   DX0(LX4,R6),ZEROS     IS THIS EOT FOR QRTN TABLE         79512021
 00AFFC 4770 F100      0AFAE       14438          BC    NOTEQ,QVAR21        NO, BRANCH                           79518021
 00B000 4100 0002      00002       14439          LA    R0,DX2               YES, CALL INSERT FOR                79524021
1PH20     IKFCBL20                                                                                              PAGE  330
-  LOC  OBJECT CODE    ADDR1 ADDR2  STMT   SOURCE STATEMENT                                       ASM 0201 11.03 02/14/15
000B004 5850 DB24      0C064       14440          L     R5,QITBLP                RESTORE OF QITBL ADDRESS        79530021
 00B008 4540 F338      0B1E6       14441          BAL   R4,QVAR91                SPACE TO INSERT                 79536021
 00B00C D201 2000 D3F4 00000 0B934 14442          MVC   DX0(LX2,R2),ZEROS          END OF ENTRY IN QVAR          79542021
 00B012 1A58                       14443          AR    R5,R8                                                    79548021
 00B014 47F0 F0C2      0AF70       14444          BC    UNCOND,QVAR20       BRANCH                               79554021
 00B018 5A60 D404      0B944       14445 QVAR25   A     R6,FOUR             GET NEXT OD2TBL DISP. PTR. (QRTN     79560021
 00B01C 5A90 D404      0B944       14446          A     R9,FOUR                                                  79566021
 00B020 47F0 F10A      0AFB8       14447          BC    UNCOND,QVAR22       COMPARE DISP PTRS IN QRTN,QITBL      79572021
 00B024 4100 0004      00004       14448 QVAR40   LA    R0,DX4                                                   79578021
 00B028 5810 DB2C      0C06C       14449          L     R1,QVARPM                                                79584021
 00B02C 4540 F326      0B1D4       14450          BAL   R4,QVAR90           GO ENTER EOT                    3548 79590021
                                   14451 *                                                                       79596021
                                   14452 * QVAR IS NOW MODIFIED SUCH THAT EACH DICT. PTR. WILL HAVE ONLY 1 G     79602021
                                   14453 *      ASSOCIATED WITH IT. A CALL TO THAT GN= WILL CALL THE OTHER G     79608021
                                   14454 *                                                                       79614021
 00B030 5850 DB2C      0C06C       14455 QVAR50   L     R5,QVARPM                                                79620021
 00B034 5855 0000      00000       14456          L     R5,DX0(R5)                                               79626021
 00B038 D201 5004 D3F4 00004 0B934 14457          MVC   DX4(LX2,R5),ZEROS     SET QVAR TABLE DISP. IN TAMM =0    79632021
                                   14458 *                                   FOR IT IS GOING TO BE OVERLAID      79638021
 00B03E 5855 0000      00000       14459          L     R5,DX0(R5)           R5= A(QVAR)                         79644021
 00B042 4860 B15E      0015E       14460 QVAR52   LH    R6,GNCTR    (RCOM) GET A GN= FROM GNCTR                  79650021
 00B046 1B99                       14461          SR    R9,R9               INIT R9 TO SAVE R5 INCREMENT         79656021
 00B048 4166 0001      00001       14462          LA    R6,DX1(R6)                                               79662021
 00B04C 4060 B15E      0015E       14463          STH   R6,GNCTR                                                 79668021
 00B050 4060 DFEC      0C52C       14464          STH   R6,GNNUMB           SAVE IT                              79674021
 00B054 4540 F2E6      0B194       14465          BAL   R4,QVAR75           PUT OUT GNDEF                        79680021
 00B058 4165 0004      00004       14466          LA    R6,DX4(R5)           R6= A(GN=)  OR NEXT GN=             79686021
 00B05C 5A90 D404      0B944       14467          A     R9,FOUR                                                  79692021
 00B060 D501 6000 D3F4 00000 0B934 14468 QVAR54   CLC   DX0(LX2,R6),ZEROS     IS THERE ANOTHER GN                79698021
 00B066 4780 F1CC      0B07A       14469          BC    EQ,QVAR55           NO, BRANCH                           79704021
 00B06A 4540 F2FC      0B1AA       14470          BAL   R4,QVAR76           YES, PUT OUT CALLQ FOR GN            79710021
 00B06E 5A60 D3FC      0B93C       14471          A     R6,TWO                                                   79716021
 00B072 5A90 D3FC      0B93C       14472          A     R9,TWO                                                   79722021
 00B076 47F0 F1B2      0B060       14473          BC    UNCOND,QVAR54       SEE IF THERE IS ANOTHER GN           79728021
 00B07A 5A60 D3FC      0B93C       14474 QVAR55   A     R6,TWO              R6= A(NEXT DICT. PTR)                79734021
 00B07E 5A90 D3FC      0B93C       14475          A     R9,TWO                                                   79740021
 00B082 4540 F312      0B1C0       14476          BAL   R4,QVAR77           PUT OUT QRET2                        79746021
 00B086 D201 5004 DFEC 00004 0C52C 14477          MVC   DX4(LX2,R5),GNNUMB    MOVE NEW GN= TO 1ST OLD GN= IN Q   79752021
 00B08C 4100 0006      00006       14478          LA    R0,DX6                                                   79758021
 00B090 5850 DB2C      0C06C       14479          L     R5,QVARPM                                                79764021
 00B094 4540 F338      0B1E6       14480          BAL   R4,QVAR91           CALL INSERT AND PUT DICT. PTR AN     79770021
 00B098 1A57                       14481          AR    R5,R7                                                    79776021
 00B09A D205 2000 5000 00000 00000 14482          MVC   DX0(LX6,R2),DX0(R5)    IN NEW QVAR                       79782021
 00B0A0 1A59                       14483          AR    R5,R9                                                    79788021
 00B0A2 1A79                       14484          AR    R7,R9                                                    79794021
 00B0A4 D503 5000 D3F4 00000 0B934 14485          CLC   DX0(LX4,R5),ZEROS    IS THIS EOT QVAR ?                  79800021
 00B0AA 4770 F194      0B042       14486          BC    NOTEQ,QVAR52        NO, BRANCH                           79806021
 00B0AE 4100 0004      00004       14487          LA    R0,DX4               YES, CALL INSERT FOR SPACE          79812021
 00B0B2 5850 DB2C      0C06C       14488          L     R5,QVARPM                                                79818021
 00B0B6 4540 F338      0B1E6       14489          BAL   R4,QVAR91                TO ENTER                        79824021
 00B0BA D203 2000 D3F4 00000 0B934 14490          MVC   DX0(LX4,R2),ZEROS          EOT IN NEW QVAR               79830021
 00B0C0 1A57                       14491          AR    R5,R7                                                    79836021
 00B0C2 9140 D5A4      0BAE4       14492          TM    PTBLSW+NX1,XX40      WAS A QFILE TABLE CONSTRUCTED       79842021
 00B0C6 47E0 F2D0      0B17E       14493          BC    NOTONE,QVAR68       NO, BRANCH                           79848021
                                   14494 *                                                                       79854021
1PH20     IKFCBL20                                                                                              PAGE  331
-  LOC  OBJECT CODE    ADDR1 ADDR2  STMT   SOURCE STATEMENT                                       ASM 0201 11.03 02/14/15
0                                  14495 *        THERE IS A QFILE TABLE.                                        79860021
                                   14496 *                                                                       79866021
                                   14497 *        IT IS NOW MODIFIED SO THAT ALL RECORDS UNDER AN FD             79872021
                                   14498 *        WILL HAVE ONLY ONE GN NUMBER.   A CALL TO THAT GN              79878021
                                   14499 *        NUMBER WILL RESULT IN A CALL TO ALL OTHER GN NUMBERS           79884021
                                   14500 *        ASSOCIATED WITH THAT FD.                                       79890021
                                   14501 *                                                                       79896021
                                   14502 *        MODIFICATION OF THE QFILE TABLE IS SIMILAR TO THE              79902021
                                   14503 *        MODIFICATION OF THE QVAR TABLE ABOVE.   FOR EVERY              79908021
                                   14504 *        ENTRY IN THE ORIGINAL QFILE TABLE, A NEW GN NUMBER             79914021
                                   14505 *        IS ASSIGNED.   THE NEW GN NUMBER REPLACES ALL THE              79920021
                                   14506 *        GN NUMBERS IN THE ORIGINAL QFILE ENTRY.   THE NEW              79926021
                                   14507 *        QFILE TABLE IS BUILT OVERLAYING THE ORIGINAL.                  79932021
                                   14508 *        THE NEW QFILE TABLE HAS FIXED LENGTH ENTRIES 4 BYTES           79938021
                                   14509 *        LONG  /DTF NO/GN NO/ 2+2.                                      79944021
                                   14510 *                                                                       79950021
 00B0CA 4100 0004      00004       14511          LA    R0,DX4                *                                  79956021
 00B0CE 5810 DB1C      0C05C       14512          L     R1,QFILEP            *  GET NEXT 4 BYTE ENTRY            79962021
 00B0D2 5850 DB1C      0C05C       14513          L     R5,QFILEP            *  IN QFILE(I) TABLE.               79968021
 00B0D6 4540 F33C      0B1EA       14514          BAL   R4,QVAR92            *                                   79974021
 00B0DA D203 2000 D3F4 00000 0B934 14515          MVC   DX0(LX4,R2),ZEROS    ENTER EOT IN QFILE(I).              79980021
 00B0E0 5850 DB1C      0C05C       14516          L     R5,QFILEP            *  SET 'SET BYTES USED THUS FAR'    79986021
 00B0E4 5855 0000      00000       14517          L     R5,DX0(R5)            *  IN QFILE TAMM TO ZERO.          79992021
 00B0E8 D201 5004 D3F4 00004 0B934 14518          MVC   DX4(LX2,R5),ZEROS      *  QFILE TABLE WILL BE OVERLAID.  79998021
                                   14519 *                                                                       80004021
                                   14520 *        REBUILDING THE QFILE TABLE.                                    80010021
                                   14521 *                                                                       80016021
                                   14522 *        REGISTER ASSIGNMENTS:                                          80022021
                                   14523 *                                                                       80028021
                                   14524 *           R5 - ADDRESS OF CURRENT QFILE(I) TABLE ENTRY.               80034021
                                   14525 *           R7 - DISPLACEMENT OF CURRENT QFILE(I) ENTRY.                80040021
                                   14526 *           R6 - ADDRESS OF CURRENT SUBFIELD WITHIN QFILE(I) ENTRY.     80046021
                                   14527 *           R9 - DISPLACEMENT OF CURRENT SUBFIELD WITHIN                80052021
                                   14528 *                CURRENT QFILE(I) ENTRY.                                80058021
                                   14529 *           R2 - ADDRESS OF CURRENT QFILE(II) TABLE ENTRY.              80064021
                                   14530 *                                                                       80070021
 00B0EE 5855 0000      00000       14531          L     R5,DX0(R5)          ADDR OF QFILE TBL.                   80076021
 00B0F2 1B77                       14532          SR    R7,R7                *  INITIALIZE                       80082021
 00B0F4 1B99                       14533          SR    R9,R9                *  REGS.                            80088021
 00B0F6 4165 0002      00002       14534 QVAR60   LA    R6,DX2(R5)          ADDR OF 1ST GN SUBFIELD   * QFILE(I) 80094021
 00B0FA 4190 0002      00002       14535          LA    R9,DX2              DISP OF SAME IN NEW ENTRY * TABLE.   80100021
 00B0FE 4840 B15E      0015E       14536          LH    R4,GNCTR                                                 80106021
 00B102 4144 0001      00001       14537          LA    R4,DX1(R4)            *  GET A NEW GN NUMBER.            80112021
 00B106 4040 B15E      0015E       14538          STH   R4,GNCTR                                                 80118021
 00B10A 4040 DFEC      0C52C       14539          STH   R4,GNNUMB          SAVE IT.                              80124021
 00B10E 4540 F2E6      0B194       14540          BAL   R4,QVAR75          PUT OUT GNDEF FOR NEW GN.             80130021
 00B112 D501 6000 D3F4 00000 0B934 14541 QVAR64   CLC   DX0(LX2,R6),ZEROS    ANOTHER GN IN QFILE(I) ENTRY ?      80136021
 00B118 4780 F27E      0B12C       14542          BE    QVAR66             NO- BRANCH.                           80142021
 00B11C 4540 F2FC      0B1AA       14543          BAL   R4,QVAR76          YES- PUT OUT QCALL FOR OLD GN.        80148021
 00B120 4166 0002      00002       14544          LA    R6,DX2(R6)            *  INCREMENT TO NEXT SUBFIELD      80154021
 00B124 4199 0002      00002       14545          LA    R9,DX2(R9)            *  IN CURRENT QFILE(I) ENTRY.      80160021
 00B128 47F0 F264      0B112       14546          B     QVAR64             CHECK FOR MORE.                       80166021
                                   14547 *                        END OF QFILE(I) ENTRY.                         80172021
 00B12C 4166 0002      00002       14548 QVAR66   LA    R6,DX2(R6)            *  INCREMENT OVER ENTRY            80178021
 00B130 4199 0002      00002       14549          LA    R9,DX2(R9)            *  TERMINATION BYTE.               80184021
1PH20     IKFCBL20                                                                                              PAGE  332
-  LOC  OBJECT CODE    ADDR1 ADDR2  STMT   SOURCE STATEMENT                                       ASM 0201 11.03 02/14/15
000B134 4540 F312      0B1C0       14550          BAL   R4,QVAR77          PUT OUT Q-RETURN-2 VERB.              80190021
 00B138 D201 5002 DFEC 00002 0C52C 14551          MVC   DX2(LX2,R5),GNNUMB   NEW GN TO 1ST OLD GN IN QFILE(I) EN 80196021
 00B13E 4100 0004      00004       14552          LA    R0,DX4                *                                  80202021
 00B142 5810 DB1C      0C05C       14553          L     R1,QFILEP            *  GET NEXT 4 BYTE ENTRY IN         80208021
 00B146 5850 DB1C      0C05C       14554          L     R5,QFILEP            *  QFILE(II).  TBL ADDR IN R5.      80214021
 00B14A 4540 F33C      0B1EA       14555          BAL   R4,QVAR92            *                                   80220021
 00B14E 1A57                       14556          AR    R5,R7              ADDR OF CURRENT QFILE(I) ENTRY.       80226021
 00B150 D203 2000 5000 00000 00000 14557          MVC   DX0(LX4,R2),DX0(R5)  MOVE OLD DTF, NEW GN TO QFILE(II).  80232021
 00B156 1A59                       14558          AR    R5,R9                *  INCREMENT TO NEXT                80238021
 00B158 1A79                       14559          AR    R7,R9                *  QFILE(I) ENTRY.                  80244021
 00B15A D503 5000 D3F4 00000 0B934 14560          CLC   DX0(LX4,R5),ZEROS    IS THIS QFILE(I) EOT ?              80250021
 00B160 4770 F248      0B0F6       14561          BNE   QVAR60             NO- BRANCH.                           80256021
 00B164 4100 0004      00004       14562          LA    R0,DX4                *                                  80262021
 00B168 5810 DB1C      0C05C       14563          L     R1,QFILEP            *  GET NEXT 4 BYTE ENTRY IN         80268021
 00B16C 5850 DB1C      0C05C       14564          L     R5,QFILEP            *  QFILE(II).  TBL ADDR IN R5.      80274021
 00B170 4540 F33C      0B1EA       14565          BAL   R4,QVAR92            *                                   80280021
 00B174 D203 2000 D3F4 00000 0B934 14566          MVC   DX0(LX4,R2),ZEROS    ENTER QFILE(II) EOT.                80286021
 00B17A 4540 F326      0B1D4       14567          BAL   R4,QVAR90           GO INTER EOT                         80292021
 00B17E 5810 DB14      0C054       14568 QVAR68   L     R1,QRTNPM           RELEASE TABLES                       80298021
 00B182 58F0 DCF0      0C230       14569          L     R15,BTABRL              QRTN                             80304021
 00B186 05EF                       14570          BALR  R14,R15             BRANCH                               80310021
 00B188 5810 DB24      0C064       14571          L     R1,QITBLP               QITBL                            80316021
 00B18C 05EF                       14572          BALR  R14,R15             BRANCH                               80322021
 00B18E 980E DA50      0BF90       14573          LM    R0,R14,QSAVE                                             80328021
 00B192 07FE                       14574          BCR   UNCOND,R14          RETURN                               80334021
 00B194 D201 D593 DFEC 0BAD3 0C52C 14575 QVAR75   MVC   QCALL+NX3(LX2),GNNUMB PUT GN IN GNDEF                    80340021
 00B19A 9288 D592      0BAD2       14576          MVI   QCALL+NX2,XX88       SET GNDEF CODE                      80346021
 00B19E 4130 0003      00003       14577          LA    R3,DX3                                                   80352021
 00B1A2 4120 D592      0BAD2       14578          LA    R2,QCALL+NX2                                             80358021
 00B1A6 47F0 F31E      0B1CC       14579          BC    UNCOND,QVAR81       SET UP FOR CALL TO COMMON RTN        80364021
 00B1AA 924C D591      0BAD1       14580 QVAR76   MVI   QCALL+NX1,XX4C       SET UP QCALL VERB                   80370021
 00B1AE D201 D593 6000 0BAD3 00000 14581          MVC   QCALL+NX3(LX2),DX0(R6) PUT GN IN GNDEF                   80376021
 00B1B4 92AA D592      0BAD2       14582          MVI   QCALL+NX2,XXAA       SET GNREF CODE                      80382021
 00B1B8 4130 0005      00005       14583          LA    R3,DX5                                                   80388021
 00B1BC 47F0 F31A      0B1C8       14584          BC    UNCOND,QVAR80       BRANCH                               80394021
 00B1C0 924D D591      0BAD1       14585 QVAR77   MVI   QCALL+NX1,XX4D       SET UP QRET2 VERB                   80400021
 00B1C4 4130 0002      00002       14586          LA    R3,DX2                                                   80406021
 00B1C8 4120 D590      0BAD0       14587 QVAR80   LA    R2,QCALL            PUT AREA                             80412021
 00B1CC 181B                       14588 QVAR81   LR    R1,R11              COSADRESS                            80418021
 00B1CE 0501                       14589          BALR  R0,R1               GO TO COMMON RTN                     80424021
 00B1D0 12                         14590          DC    X'12'               PUT ON FILE 2                        80430021
 00B1D1 00
 00B1D2 07F4                       14591          BCR   UNCOND,R4           BRANCH                               80436021
 00B1D4 58F0 DCE8      0C228       14592 QVAR90   L     R15,BINSRT          ENTER EOT                            80442021
 00B1D8 05EF                       14593          BALR  R14,R15             CALL INSERT ROUTINE                  80448021
 00B1DA 58F0 DC64      0C1A4       14594          L     R15,AQVARB                                               80454021
 00B1DE D203 2000 D3F4 00000 0B934 14595          MVC   DX0(LX4,R2),ZEROS     EOT= FW ZEROS                      80460021
                             00003 14596 LX3      EQU   3                                                        80466021
                             00004 14597 LX4      EQU   4                                                        80472021
                             00006 14598 LX6      EQU   6                                                        80478021
                             00007 14599 LX7      EQU   7                                                        80484021
                             0000A 14600 LX10     EQU   10                                                       80490021
                             0000B 14601 LX11     EQU   11                                                       80496021
                             0000C 14602 LX12     EQU   12                                                       80502021
                             0000E 14603 LX14     EQU   14                                                       80508021
1PH20     IKFCBL20                                                                                              PAGE  333
-  LOC  OBJECT CODE    ADDR1 ADDR2  STMT   SOURCE STATEMENT                                       ASM 0201 11.03 02/14/15
0                            00011 14604 LX17     EQU   17                                                       80514021
                             00014 14605 LX20     EQU   20                                                       80520021
                             00018 14606 LX24     EQU   24                                                       80526021
                             0001E 14607 LX30     EQU   30                                                       80532021
                             0001F 14608 LX31     EQU   31                                                       80538021
                             00020 14609 LX32     EQU   32                                                       80544021
                             00022 14610 LX34     EQU   34                                                       80550021
                             00024 14611 LX36     EQU   36                                                       80556021
                             0002E 14612 LX46     EQU   46                         ***                           80562021
                             00042 14613 LX66     EQU   66                                                       80568021
                             00064 14614 LX100    EQU   100                                                      80574021
                             00085 14615 LX133    EQU   133                                                      80580021
                             00090 14616 DX144    EQU   144                                                      80586021
                             000D7 14617 LX215    EQU   215                                                      80592021
                             000D8 14618 LX216    EQU   216                                                      80598021
                             000DE 14619 LX222    EQU   222                                                      80604021
 00B1E4 07F4                       14620          BCR   UNCOND,R4           BRANCH                               80610021
 00B1E6 5810 DB2C      0C06C       14621 QVAR91   L     R1,QVARPM                                                80616021
 00B1EA 58F0 DCE8      0C228       14622 QVAR92   L     R15,BINSRT                                               80622021
 00B1EE 05EF                       14623          BALR  R14,R15             CALL INSERT ROUTINE                  80628021
 00B1F0 58F0 DC64      0C1A4       14624          L     R15,AQVARB                                               80634021
 00B1F4 5855 0000      00000       14625          L     R5,DX0(R5)           R5 = A(TAMM)                        80640021
 00B1F8 5855 0000      00000       14626          L     R5,DX0(R5)           R5 = A(TABLE)                       80646021
 00B1FC 07F4                       14627          BCR   UNCOND,R4           BRANCH                               80652021
 00B1FE 5860 DB14      0C054       14628 QVAR95   L     R6,QRTNPM           R6 = A(TIB)                          80658021
 00B202 5866 0000      00000       14629          L     R6,DX0(R6)           R6 = A(TAMM)                        80664021
 00B206 5866 0000      00000       14630          L     R6,DX0(R6)           R6 = A(QRTN TABLE)                  80670021
 00B20A 1A69                       14631          AR    R6,R9               R6 = A(THIS ENTRY)                   80676021
 00B20C 07F4                       14632          BCR   UNCOND,R4           BRANCH                               80682021
 00B210                            14633 PATCH1   DS    0F                                                       80688021
 00B210                            14634 IKFPATCH DS    0H                                                       80694021
 00B210 50F0 D048      0B588       14635 PATCH    ST    R15,PATCHRSV        SAVE REGISTER BEFORE RELOADING PATCH 80700021
 00B214 58F0 DC64      0C1A4       14636          L     R15,AQVARB          BASE REG POINTING TO QVARBD    PATCH 80706021
 00B218 47F0 F362      0B210       14637          B     IKFPATCH           THIS INSTR INDICATES DISPL            80712021
 00B21C FFFFFFFFFFFFFFFF           14638          DC    800X'FF'            PATCH SPACE                    PATCH 80718021
1PH20     IKFCBL20                                                                                              PAGE  334
-  LOC  OBJECT CODE    ADDR1 ADDR2  STMT   SOURCE STATEMENT                                       ASM 0201 11.03 02/14/15
000B540                            14640 IKF215   CSECT                                                          80730021
 00B540                            14641          DS    0F                                                       80736021
 00B540                            14642 PH2SAV DS    18F                                                        80742021
 00B588                            14643 PATCHRSV DS    F                   REG SAVE AREA FOR PATCHING     PATCH 80748021
 00B58C D7D7D7D7D7D7D7D7           14644 PATCH2   DC    160C'P'            PATCH AREA ADDRESSABLE BY R13   PATCH 80754021
 00B62C 5B                         14645 BRATAB   DC    C'$'                BRANCHING TABLE TO PROPER ROUTIN     80760021
 00B62D 0043B8                     14646          DC    AL3(BDOLLR)         DEPENDING ON CHARACTER               80766021
 00B630 5C                         14647          DC    C'*'                                                     80772021
 00B631 00448E                     14648          DC    AL3(BASTSK)                                              80778021
 00B634 E9                         14649          DC    C'Z'                                                     80784021
 00B635 00449A                     14650          DC    AL3(BZUPP)                                               80790021
 00B638 4E                         14651          DC    C'+'                                                     80796021
 00B639 004650                     14652          DC    AL3(BPLUSB)                                              80802021
 00B63C 60                         14653          DC    C'-'                                                     80808021
 00B63D 004650                     14654          DC    AL3(BPLUSB)                                              80814021
 00B640 F9                         14655          DC    C'9'                                                     80820021
 00B641 00450C                     14656          DC    AL3(BNINEB)                                              80826021
 00B644 C3                         14657          DC    C'C'                                                     80832021
 00B645 004606                     14658          DC    AL3(BCREDB)                                              80838021
 00B648 C4                         14659          DC    C'D'                                                     80844021
 00B649 004612                     14660          DC    AL3(BDEBIT)                                              80850021
 00B64C 6B                         14661 CONCOM   DC    C','                                                     80856021
 00B64D 0045A0                     14662          DC    AL3(BZEROB)                                              80862021
 00B650 F0                         14663          DC    C'0'                                                     80868021
 00B651 0045A0                     14664          DC    AL3(BZEROB)                                              80874021
 00B654 C2                         14665          DC    C'B'                                                     80880021
 00B655 0045A0                     14666          DC    AL3(BZEROB)                                              80886021
 00B658 D7                         14667          DC    C'P'                                                     80892021
 00B659 00453E                     14668          DC    AL3(BSCALB)                                              80898021
 00B65C 4B                         14669 CONPER   DC    C'.'                                                     80904021
 00B65D 0045BA                     14670          DC    AL3(BVVVVB)                                              80910021
 00B660 E5                         14671          DC    C'V'                                                     80916021
 00B661 0045BA                     14672          DC    AL3(BVVVVB)                                              80922021
 00B664                            14673          DS    0F                                                       80928021
 00B664 02                         14674 SECTTB   DC    X'02'               BRANCHING TABLE TO PROPER PROCES     80934021
 00B665 000B20                     14675          DC    AL3(FILEST)         DEPENDING ON TYPE OF CONTROL BRE     80940021
 00B668 03                         14676          DC    X'03'               AK                                   80946021
 00B669 000F62                     14677          DC    AL3(WSTSCT)                                              80952021
 00B66C 04                         14678          DC    X'04'                                                    80958021
 00B66D 000F2A                     14679          DC    AL3(LINKST)                                              80964021
 00B670 05                         14680          DC    X'05'                                                    80970021
 00B671 000D46                     14681          DC    AL3(REPORT)                                              80976021
 00B674 FF000000FF101400           14682 KYLNTB   DC    X'FF000000FF101400041C20080C18FFFF'                      80982021
                                   14683 *ACCESS METHOD TABLE                                                    80988021
 00B684                            14684 ACCTAB   DS    0F                                                       80994021
                                   14685 * QSAM                                                                  81000021
 00B684 0000                       14686          DC    X'0000'            KEY DISP                              81006021
 00B686 00                         14687          DC    X'00'              V-COUNT                               81012021
 00B687 F6                         14688          DC    X'F6'                     ILBOERR                  48401 81018021
 00B688 007A                       14689          DC    H'122'                     DCB LENGTH              48401 81024021
 00B68A 00                         14690          DC    X'00'              DECB                                  81030021
 00B68B 00                         14691          DC    X'00'              *                                     81036021
 00B68C 00                         14692          DC    X'00'              ACCESS                                81042021
 00B68D 4000000000014200           14693          DC    X'40000000000142000001'  DCB+26 - DCB+35                 81048021
 00B697 AD                         14694          DC    X'AD'              ACCESS TYPE                           81054021
1PH20     IKFCBL20                                                                                              PAGE  335
-  LOC  OBJECT CODE    ADDR1 ADDR2  STMT   SOURCE STATEMENT                                       ASM 0201 11.03 02/14/15
000B698 00                         14695          DC    X'00'              OPEN TABLE                            81060021
 00B699 00                         14696          DC    X'00'              MODE TABLE                            81066021
 00B69A                            14697          DS    3C                 *                                     81072021
 00B69D 00                         14698          DC    X'00'              OPTCD                                 81078021
 00B69E 8060                       14699          DC    X'8060'            CLSMSK                                81084021
 00B6A0 00000000                   14700          DC    F'0'               A(KEYRTN)                             81090021
                                   14701 * QISAM                                                                 81096021
 00B6A4 0000                       14702          DC    X'0000'                                                  81102021
 00B6A6 00                         14703          DC    X'00'                                                    81108021
 00B6A7 F4                         14704          DC    X'F4'                                                    81114021
 00B6A8 0104                       14705          DC    H'260'                                                   81120021
 00B6AA 00                         14706          DC    X'00'                                                    81126021
 00B6AB 00                         14707          DC    X'00'                                                    81132021
 00B6AC 10                         14708          DC    X'10'                                                    81138021
 00B6AD 8000000000014200           14709          DC    X'80000000000142000001'                                  81144021
 00B6B7 A1                         14710          DC    X'A1'                                                    81150021
 00B6B8 10                         14711          DC    X'10'                                                    81156021
 00B6B9 09                         14712          DC    X'09'                                                    81162021
 00B6BA                            14713          DS    3C                                                       81168021
 00B6BD 00                         14714          DC    X'00'                                                    81174021
 00B6BE 9441                       14715          DC    X'9441'                                                  81180021
 00B6C0 000038E2                   14716          DC    A(KEYRTN)                                                81186021
                                   14717 * BISAM                                                                 81192021
 00B6C4 0014                       14718          DC    X'0014'                                                  81198021
 00B6C6 30                         14719          DC    X'30'                                                    81204021
 00B6C7 F5                         14720          DC    X'F5'                                                    81210021
 00B6C8 0100                       14721          DC    H'256'                                                   81216021
 00B6CA 1C                         14722          DC    X'1C'                                                    81222021
 00B6CB 02                         14723          DC    X'02'                                                    81228021
 00B6CC 20                         14724          DC    X'20'                                                    81234021
 00B6CD 8000000000014200           14725          DC    X'80000000000142000001'                                  81240021
 00B6D7 1E                         14726          DC    X'1E'                                                    81246021
 00B6D8 20                         14727          DC    X'20'                                                    81252021
 00B6D9 09                         14728          DC    X'09'                                                    81258021
 00B6DA                            14729          DS    3C                                                       81264021
 00B6DD 00                         14730          DC    X'00'                                                    81270021
 00B6DE 1445                       14731          DC    X'1445'                                                  81276021
 00B6E0 000038E2                   14732          DC    A(KEYRTN)                                                81282021
                                   14733 * BSAM-R                                                                81288021
 00B6E4 0014                       14734          DC    X'0014'                                                  81294021
 00B6E6 00                         14735          DC    X'00'                                                    81300021
 00B6E7 F2                         14736          DC    X'F2'                                                    81306021
 00B6E8 0064                       14737          DC    H'100'                                                   81312021
 00B6EA 1C                         14738          DC    X'1C'                                                    81318021
 00B6EB 80                         14739          DC    X'80'                                                    81324021
 00B6EC 40                         14740          DC    X'40'                                                    81330021
 00B6ED 4000000000010000           14741          DC    X'40000000000100000001'                                  81336021
 00B6F7 00                         14742          DC    X'00'                                                    81342021
 00B6F8 30                         14743          DC    X'30'                                                    81348021
 00B6F9 12                         14744          DC    X'12'                                                    81354021
 00B6FA                            14745          DS    3C                                                       81360021
 00B6FD 00                         14746          DC    X'00'                                                    81366021
 00B6FE 1020                       14747          DC    X'1020'                                                  81372021
 00B700 000038E2                   14748          DC    A(KEYRTN)                                                81378021
                                   14749 * BSAM-D                                                                81384021
1PH20     IKFCBL20                                                                                              PAGE  336
-  LOC  OBJECT CODE    ADDR1 ADDR2  STMT   SOURCE STATEMENT                                       ASM 0201 11.03 02/14/15
000B704 0000                       14750          DC    X'0000'                                                  81390021
 00B706 40                         14751          DC    X'40'                                                    81396021
 00B707 F2                         14752          DC    X'F2'                                                    81402021
 00B708 007C                       14753          DC    H'124'                                                   81408021
 00B70A 1C                         14754          DC    X'1C'                                                    81414021
 00B70B 80                         14755          DC    X'80'                                                    81420021
 00B70C 44                         14756          DC    X'44'                                                    81426021
 00B70D 4000000000010000           14757          DC    X'40000000000100000001'                                  81432021
 00B717 00                         14758          DC    X'00'                                                    81438021
 00B718 30                         14759          DC    X'30'                                                    81444021
 00B719 1B                         14760          DC    X'1B'                                                    81450021
 00B71A                            14761          DS    3C                                                       81456021
 00B71D 00                         14762          DC    X'00'                                                    81462021
 00B71E 2860                       14763          DC    X'2860'                                                  81468021
 00B720 000038E2                   14764          DC    A(KEYRTN)                                                81474021
                                   14765 * BDAM-R                                                                81480021
 00B724 0000                       14766          DC    X'0000'                                                  81486021
 00B726 00                         14767          DC    X'00'                                                    81492021
 00B727 F3                         14768          DC    X'F3'                                                    81498021
 00B728 0068                       14769          DC    H'104'                                                   81504021
 00B72A 24                         14770          DC    X'24'                                                    81510021
 00B72B 00                         14771          DC    X'00'                                                    81516021
 00B72C 80                         14772          DC    X'80'                                                    81522021
 00B72D 2000000000010000           14773          DC    X'20000000000100000001'                                  81528021
 00B737 1C                         14774          DC    X'1C'                                                    81534021
 00B738 40                         14775          DC    X'40'                                                    81540021
 00B739 12                         14776          DC    X'12'                                                    81546021
 00B73A                            14777          DS    3C                                                       81552021
 00B73D 01                         14778          DC    X'01'                                                    81558021
 00B73E 1024                       14779          DC    X'1024'                                                  81564021
 00B740 000038E2                   14780          DC    A(KEYRTN)                                                81570021
                                   14781 * BDAM-W                                                                81576021
 00B744 0000                       14782          DC    X'0000'                                                  81582021
 00B746 40                         14783          DC    X'40'                                                    81588021
 00B747 F3                         14784          DC    X'F3'                                                    81594021
 00B748 0068                       14785          DC    H'104'                                                   81600021
 00B74A 24                         14786          DC    X'24'                                                    81606021
 00B74B 00                         14787          DC    X'00'                                                    81612021
 00B74C 84                         14788          DC    X'84'                                                    81618021
 00B74D 2000000000010000           14789          DC    X'20000000000100000001'                                  81624021
 00B757 1F                         14790          DC    X'1F'                                                    81630021
 00B758 50                         14791          DC    X'50'                                                    81636021
 00B759 1B                         14792          DC    X'1B'                                                    81642021
 00B75A                            14793          DS    3C                                                       81648021
 00B75D 00                         14794          DC    X'00'                                                    81654021
 00B75E 2822                       14795          DC    X'2822'                                                  81660021
 00B760 000038E2                   14796          DC    A(KEYRTN)                                                81666021
                                   14797 * BDAM-D                                                                81672021
 00B764 0000                       14798          DC    X'0000'                                                  81678021
 00B766 40                         14799          DC    X'40'                                                    81684021
 00B767 F3                         14800          DC    X'F3'                                                    81690021
 00B768 007C                       14801          DC    H'124'                                                   81696021
 00B76A 28                         14802          DC    X'28'                                                    81702021
 00B76B 00                         14803          DC    X'00'                                                    81708021
 00B76C 8C                         14804          DC    X'8C'                                                    81714021
1PH20     IKFCBL20                                                                                              PAGE  337
-  LOC  OBJECT CODE    ADDR1 ADDR2  STMT   SOURCE STATEMENT                                       ASM 0201 11.03 02/14/15
000B76D 2000000000010000           14805          DC    X'20000000000100000001'                                  81720021
 00B777 1F                         14806          DC    X'1F'                                                    81726021
 00B778 50                         14807          DC    X'50'                                                    81732021
 00B779 1B                         14808          DC    X'1B'                                                    81738021
 00B77A                            14809          DS    3C                                                       81744021
 00B77D 00                         14810          DC    X'00'                                                    81750021
 00B77E 2862                       14811          DC    X'2862'                                                  81756021
 00B780 000038E2                   14812          DC    A(KEYRTN)                                                81762021
 00B784                            14813 KEYMSK   DS    0CL4                MASK FOR:                            81768021
 00B784 00                         14814          DC    X'00'                                                    81774021
 00B785 04                         14815          DC    X'04'               RECORD KEY                           81780021
 00B786 08                         14816          DC    X'08'               ACTUAL KEY                           81786021
 00B787 10                         14817          DC    X'10'               SYMBOLIC KEY                         81792021
 00B788 CDB6B5                     14818 KYCODE   DC    X'CDB6B5'           COBOL WORD CODES                     81798021
                                   14819 *                                  CD = RECORD                          81804021
                                   14820 *                                  B6 = ACTUAL                          81810021
                                   14821 *                                  B5 = SYMBOLIC                        81816021
 00B78B 00                         14822 BLNTAB   DC    X'00'               NORM. LEVEL ='S TABLE                81822021
 00B78C 0000000000000000           14823          DC    49X'00'                                                  81828021
 00B7BD 2000000001000400           14824 BDAMS    DC    X'200000000100040001'                                    81834021
 00B7C6                            14825          DS    0H                  TRACK CAPACITY TABLE                 81840021
 00B7C6 0000                       14826 TRKCAP   DC    H'0'                                                     81846021
 00B7C8 5003                       14827          DC    H'20483'            2301                                 81852021
 00B7CA 1378                       14828          DC    H'4984'             2302                                 81858021
 00B7CC 131C                       14829          DC    H'4892'             2303                                 81864021
 00B7CE 0E29                       14830          DC    H'3625'             2311                                 81870021
 00B7D0 1C14                       14831          DC    H'7188'             2314                                 81876021
 00B7D2 07D0                       14832          DC    H'2000'             2321                                 81882021
 00B7D4                            14833 BPICTR   DS    0CL256              LEGAL PICTURE TABLE                  81888021
 00B7D4 FFFFFFFFFFFFFFFF           14834          DC    5X'FFFFFFFFFFFFFFFFFFFFFFFFFFFFFF'                       81894021
 00B81F 08FFFF08                   14835          DC    X'08FFFF08'         .  +                                 81900021
 00B823 FFFFFFFFFFFFFFFF           14836          DC    X'FFFFFFFFFFFFFFFFFFFFFFFF'                              81906021
 00B82F 1010FFFFFF08               14837          DC    X'1010FFFFFF08'     $*   -                               81912021
 00B835 10FFFFFFFFFFFFFF           14838          DC    X'10FFFFFFFFFFFFFFFFFF'  /                               81918021
 00B83F 10                         14839          DC    X'10'               ,                                    81924021
 00B840 FFFFFFFFFFFFFFFF           14840          DC    X'FFFFFFFFFFFFFFFFFFFFFFFFFFFF10'   COLON                81930021
 00B84F FFFFFFFFFFFFFFFF           14841          DC    X'FFFFFFFFFFFFFFFFFF10'             PENCE                81936021
 00B859 FFFFFFFFFFFFFFFF           14842          DC    X'FFFFFFFFFFFFFFFFFFFFFFFFFFFFFF'                        81942021
 00B868 FFFFFFFFFFFFFFFF           14843          DC    X'FFFFFFFFFFFFFFFFFFFFFFFFFFFF10'   SHILLING             81948021
 00B877 FFFFFFFFFFFFFFFF           14844          DC    X'FFFFFFFFFFFFFFFFFFFFFFFFFFFFFF'                        81954021
 00B886 FFFFFFFFFFFFFFFF           14845          DC    X'FFFFFFFFFFFFFFFFFFFFFFFFFFFFFF'                        81960021
 00B895 8010101020                 14846          DC    X'8010101020'       ABCDE                                81966021
 00B89A FFFFFFFFFFFFFFFF           14847          DC    X'FFFFFFFFFFFFFFFFFFFFFFFFFFFFFFFF'                      81972021
 00B8AA FF02FF10                   14848          DC    X'FF02FF10'          P R                                 81978021
 00B8AE FFFFFFFFFFFFFFFF           14849          DC    X'FFFFFFFFFFFFFFFF'                                      81984021
 00B8B6 01FFFF04FF40FF10           14850          DC    X'01FFFF04FF40FF10' S  V X Z                             81990021
 00B8BE FFFFFFFFFFFF               14851          DC    X'FFFFFFFFFFFF'                                          81996021
 00B8C4 10                         14852          DC    X'10'               0                                    82002021
 00B8C5 FFFFFFFFFF606010           14853          DC    X'FFFFFFFFFF606010'       6 7 8                    37098 82008021
 00B8CD 04                         14854          DC    X'04'               9                                    82014021
 00B8CE FFFFFFFFFFFF               14855          DC    X'FFFFFFFFFFFF'                                          82020021
                                   14856 *  PICTURE TYPE TABLE                                                   82026021
 00B8D4 0403050306030703           14857 PTYPTB   DC    X'040305030603070308040A040C040E04'                      82032021
 00B8E4 1004120414041604           14858          DC    X'100412041404160418041A041C041E04'                      82038021
 00B8F4 24052C0540024402           14859          DC    X'24052C05400244025008540880018402'                      82044021
1PH20     IKFCBL20                                                                                              PAGE  338
-  LOC  OBJECT CODE    ADDR1 ADDR2  STMT   SOURCE STATEMENT                                       ASM 0201 11.03 02/14/15
000B904 900874067506C402           14860          DC    X'900874067506C402D008D408'              **        37098 82050021
 00B910 00000000                   14861 BPICTB   DC    F'0'                BRANCHING TABLE                      82056021
 00B914 00003B66                   14862          DC    A(BALPHA)           FOR ANALYSIS                         82062021
 00B918 00003B66                   14863          DC    A(BALPHA)           OF PICTURE                           82068021
 00B91C 00003BFE                   14864          DC    A(BNUMER)           CLAUSES                              82074021
 00B920 000042C8                   14865          DC    A(BREPOR)                                                82080021
 00B924 00003E86                   14866          DC    A(BFLTPT)                                                82086021
 00B928 0000498A                   14867          DC    A(BSTERL)                                                82092021
 00B92C 00004CE8                   14868          DC    A(BSTREP)                                                82098021
 00B930 00004872                   14869          DC    A(BANRPT)                                                82104021
                                   14870 *  PROGRAM CONSTANTS.                                                   82110021
                                   14871 *                                                                       82116021
 00B934 00000000                   14872 ZEROS    DC    F'0'                                                     82122021
 00B938 00000001                   14873 ONE      DC    F'1'                                                     82128021
 00B93C 00000002                   14874 TWO      DC    F'2'                                                     82134021
 00B940 00000003                   14875 THREE    DC    F'3'                                                     82140021
 00B944 00000004                   14876 FOUR     DC    F'4'                                                     82146021
 00B948 00000005                   14877 FIVE     DC    F'5'                                                     82152021
 00B94C 00000006                   14878 SIX      DC    F'6'                                                     82158021
 00B950 00000007                   14879 SEVEN    DC    F'7'                                                     82164021
 00B954 00000008                   14880 EIGHT    DC    F'8'                                                     82170021
 00B958 00000009                   14881 NINE     DC    F'9'                                                     82176021
 00B95C 0000000A                   14882 TEN      DC    F'10'                                                    82182021
 00B960 0000000B                   14883 ELEVEN   DC    F'11'                                                    82188021
 00B964 0000000C                   14884 TWELVE   DC    F'12'                                                    82194021
 00B968 0000000D                   14885 CON13    DC    F'13'               CONSTANT 13.                         82200021
 00B96C 0000000E                   14886 CON14    DC    F'14'                                                    82206021
 00B970 0000000F                   14887 CON15    DC    F'15'                                                    82212021
 00B974 00000010                   14888 CON16    DC    F'16'                                                    82218021
 00B978 00000012                   14889 CON18    DC    F'18'                                                    82224021
 00B97C 00000013                   14890 CON19    DC    F'19'                                                    82230021
 00B980 00000014                   14891 TWENTY   DC    F'20'                                                    82236021
 00B984 00000024                   14892 CON24    DC    F'36'                                                    82242021
 00B988 00000017                   14893 CON23    DC    F'23'                                                    82248021
 00B98C 00000022                   14894 CON34    DC    F'34'                                                    82254021
 00B990 00000032                   14895 FIFTY  DC    F'50'                                                      82260021
 00B994 00000033                   14896 FIFTY1   DC    F'51'                                                    82266021
 00B998 00000039                   14897 FIFTY7   DC    F'00000057'                                              82272021
 00B99C 0000003C                   14898 CON60    DC    F'60'                                                    82278021
 00B9A0 00000080                   14899 CON128   DC    F'128'                                                   82284021
 00B9A4 00000100                   14900 CON256   DC    F'256'                                                   82290021
 00B9A8 00                         14901 SRANO    DC    X'00'               SAME RECORD AREA NO FOR SD           82296021
 00B9A9 00                         14902 PSRANO   DC    X'00'               PREVIOUS SRANO                       82302021
 00B9AC                            14903 SREG2    DS    F                                                        82308021
 00B9B0 00007FFF                   14904 CON32K   DC    F'32767'                                                 82314021
 00B9B4 00007FF8                   14905 C32760   DC    F'32760'                                                 82320021
 00B9B8 00001000                   14906 CO4096   DC    F'4096'             4096 IN MAGNITUTE.                   82326021
 00B9BC 00002000                   14907 M8192  DC    F'8192'                                                    82332021
 00B9C0 0001FFFF                   14908 CO131K   DC    F'131071'           131K IN MAGNITUDE.                   82338021
 00B9C4 3B9ACA00                   14909 TENPW9   DC    F'1000000000'       10 TO THE POWER OF 9.                82344021
 00B9C8 000000000032767C           14910 MAXHAF   DC    X'000000000032767C'                                      82350021
 00B9D0 000000000032768D           14911 MINHAF   DC    X'000000000032768D'                                      82356021
 00B9D8 0000000000000000           14912 MAXFUL   DC    X'0000000000000000000002147483647C'                      82362021
 00B9E8 0000000000000000           14913 MINFUL   DC    X'0000000000000000000002147483648D'                      82368021
 00B9F8                            14914 SAVZONE  DS    1C                                                       82374021
1PH20     IKFCBL20                                                                                              PAGE  339
-  LOC  OBJECT CODE    ADDR1 ADDR2  STMT   SOURCE STATEMENT                                       ASM 0201 11.03 02/14/15
000B9F9 000000
 00B9FC 00001970                   14915 ACKETXT  DC    A(CKETXT)                                                82380021
                                   14916 *                                                                       82386021
                                   14917 *  MASKS.                                                               82392021
                                   14918 *                                                                       82398021
 00BA00 000000FF                   14919 MK2532   DC    F'255'                                                   82404021
 00BA04 00FFFFFF                   14920 MK0932   DC    X'00FFFFFF'                                              82410021
 00BA08 00000007                   14921 MK3032   DC    X'00000007'                                              82416021
 00BA0C 0000000F                   14922 MK0015   DC    X'0000000F'                                              82422021
 00BA10 0000007F                   14923 MK2632   DC    X'0000007F'                                              82428021
 00BA14 000000F8                   14924 MK2529   DC    X'000000F8'                                              82434021
 00BA18 000000F0                   14925 MK2528   DC    X'000000F0'                                              82440021
 00BA1C 0000001C                   14926 MK2830   DC    X'0000001C'                                              82446021
 00BA20 0000FFFF                   14927 MK1732   DC    X'0000FFFF'         16 BITS,A HALF WORD.                 82452021
 00BA24 00000FFF                   14928 MK2132   DC    X'00000FFF'         SAVE ONLY LAST 12 BITS.              82458021
 00BA28 0001FFFF                   14929 MK1632   DC    X'0001FFFF'         17 BITS FROM BIT 16 TO 32.           82464021
 00BA2C 00FFFFFC                   14930 MK0930   DC    X'00FFFFFC'                                              82470021
 00BA30 FFFFFFF8                   14931 MK0129   DC    X'FFFFFFF8'                                              82476021
                                   14932 *                                                                       82482021
 00BA34 00001BD8                   14933 AMBSRN   DC    A(BMBSRN)                                                82488021
 00BA38 002080806060A0A0           14934 PRMTBL   DC  X'002080806060A0A00040C0E0A0A0C0C0'                        82494021
 00BA48 0101020001030300           14935 BRPTAB   DC    X'0101020001030300' SCALE LEGAL                          82500021
 00BA50 0102010000000000           14936 BPTABL   DC    X'0102010000000000' P TABLE                              82506021
 00BA58 0201000000020000           14937 BVTABL   DC    X'0201000000020000' V TABLE                              82512021
 00BA60 000000AAAAAABBBB           14938 BDPTAB   DC    X'000000AAAAAABBBBBBCCCCCC' DICT PTR TABLE FOR MBS       82518021
 00BA6C 5B4E60F95CE9               14939 BDECTB   DC    C'$+-9*Z'           NUMERIC TABLE                        82524021
 00BA72 00001000000000             14940 BASLOC   DC    X'00001000000000'                                        82530021
 00BA79 01F900010001               14941 BFIXCN   DC    X'01F900010001'     CONSTANT PICTURE FOR ERROR COND      82536021
 00BA7F C4C2                       14942 DEBIT    DC    C'DB'                                                    82542021
 00BA81 C3D9                       14943 CREDIT   DC    C'CR'                                                    82548021
 00BA83 015B                       14944 BDUMMY   DC    X'015B'           01USED BY PHTERM                       82554021
 00BA85 4848                       14945 X4848    DC    X'4848'                                                  82560021
 00BA87 4844                       14946 X4844    DC    X'4844'                                                  82566021
 00BA89 300B                       14947 DNREF    DC    X'300B'             FOR INCRA VERB                       82572021
 00BA8B 00                         14948 FES      DC    X'00'               USED BY FD ROUTINES                  82578021
 00BA8C 810000                     14949 UPDTCD DC      X'810000'     CARD NUM FOR UPDATE VERB                   82584021
 00BA8F 4443BB0000                 14950 UPDTVB   DC    X'4443BB0000'       Q                                    82590021
 00BA94 4441                       14951 INCRAV   DC    X'4441'             ROUTINE                              82596021
 00BA96 4440FA040000BB00           14952 INITVB   DC    X'4440FA040000BB00' VERBS                                82602021
 00BA9E BB0000FA04                 14953 UPDTOP   DC    X'BB0000FA04'                                            82608021
 00BAA3 FA040000FA2C               14954 INCROP   DC    X'FA040000FA2C'                                          82614021
 00BAA9 4442FA040000FA04           14955 STEPVL   DC    X'4442FA040000FA04'                                      82620021
 00BAB1 4443BB0000FA0400           14956 UPDTOC   DC    X'4443BB0000FA040000BB0000FA04'                          82626021
 00BABF 4476FA040000FA2C           14957 RNMQRN   DC    X'4476FA040000FA2C0000FA2C0000BB0000'                    82632021
 00BAD0 4400880000                 14958 QCALL    DC    X'4400880000'       END OF Q-ROUTINE VERBS               82638021
 00BAD5 420A                       14959 QRTNHD   DC    X'420A'             QRTN HEADER FOR P4 P5                82644021
 00BAD7 04                         14960 VLCCUR   DC    X'04'               SET Q RTN                            82650021
 00BAD8 00                         14961 VLCSET   DC    X'00'                 VLC                                82656021
 00BAD9                            14962 ODOMAX   DS    2C                  NOC FOR UPDATE VERB OP 1             82662021
 00BADB 01F0                       14963 ODOFIG   DC    X'01F0'             FIGURATIVE CONSTANT                  82668021
 00BADD 00                         14964 SECTSW   DC    X'00'               CURRENT SECTION                      82674021
 00BADE 00                         14965 SECTSAV  DC    X'00'                      SAVE SECTION CODE       44287 82680021
 00BADF 00                         14966 OD2SW    DC    X'00'               SW= 1 IF MORE THAN 1 ODO IN AN 0     82686021
 00BAE0 00                         14967 ODOCCT   DC    X'00'               = OF ODO IN AN 01                    82692021
 00BAE1 00                         14968 LBLSW    DC    X'00'               LABEL SWITCH                         82698021
1PH20     IKFCBL20                                                                                              PAGE  340
-  LOC  OBJECT CODE    ADDR1 ADDR2  STMT   SOURCE STATEMENT                                       ASM 0201 11.03 02/14/15
000BAE2 00                         14969 PLBLSW   DC    X'00'               PRIOR LABEL SWITCH                   82704021
 00BAE3                            14970 PTBLSW   DS    3C                                                       82710021
 00BAE6                            14971 PRMSW    DS    C                  BIT 0 TOTL TBL PRIMED                 82716021
 00BAE7 00                         14972 BPERRO   DC    X'00'               SA   6  PICTURE   7                  82722021
                             0BAE7 14973 ODOVSW   EQU   BPERRO              BIT 7= 1 ERROR 158 WAS PUT OUT       82728021
                                   14974 *                                         IN ELIODO RTN.                82734021
 00BAE8 00                         14975 FDDCBNO  DC    X'00'                    DCB NO ASSOCIATED WITH REC45078 82740021
 00BAE9 00                         14976 PRDCBNO  DC    X'00'                      PRESENT DCB NO          45078 82746021
 00BAEA                            14977 COPYSW   DS    C             LOW ORDER BIT IS COPY SWITCH               82752021
                             0BAEA 14978 FSTSW    EQU   COPYSW                                                   82758021
 00BAEB 00                         14979 WSRSW    DC    X'00'               WS SECTION AND REPORT SECTION        82764021
 00BAEC 00                         14980 NOFDSW   DC    X'00'               TURNED ON WHEN FIRST FD,SD,OR        82770021
                             00002 14981 NOFDBIT  EQU   X'02'                                                    82776021
                             00001 14982 FSTFDBIT EQU   X'01'                                                    82782021
                             000FD 14983 NOFDOFF  EQU   X'FD'                                                    82788021
                                   14984 *                                    SA FOUND, USED BY ELIODO           82794021
 00BAED 00                         14985 BRETSW   DC    X'00'                         SWITCH               47046 82800021
 00BAEE 00                         14986 XTNSBL   DC    X'00'                                                    82806021
 00BAEF 00                         14987 SW88     DC    X'00'               88 SWITCH                            82812021
 00BAF0 00                         14988 BYTESW   DC    X'00'               NUMERIC PICTURE ANALYSIS SWITCH      82818021
 00BAF1 00                         14989 DECSW    DC    X'00'               BNUMER DECIMAL SW                    82824021
 00BAF2 00                         14990 SCSIGN   DC    X'00'               BNUMER SEIGN SW                      82830021
 00BAF3 00                         14991 BEXPSW   DC    X'00'               BFLTPT SW FOR SIGN DEC 9 AND E       82836021
                             0BAF3 14992 BSTRSW   EQU   BEXPSW                                                   82842021
 00BAF4 00                         14993 LIDLGS   DC    X'00'               BIT 7 = 1 IF LAST GROUP ITEM'S       82848021
                                   14994 *                            DICT. PTR. SHOULD BE OBTAINED FROM         82854021
                                   14995 *                            LID(LAST ITEM DELETED). BIT 7 = 0 IF       82860021
                                   14996 *                            ABOVE SHOULD BE OBTAINED FROM GPLSTK T     82866021
                                   14997 *                            (USED IN REDEF ROUTINE).                   82872021
 00BAF5                            14998 ASYNSW   DS    C                                                        82878021
                             0BAF5 14999 BYTE67   EQU   ASYNSW                                                   82884021
 00BAF6                            15000 BVPCHK   DS    C                   PICT CHAR CHECK BYTE                 82890021
 00BAF7                            15001 NXTLEV   DS    C                   NEXT LEVEL NUMBER                    82896021
 00BAF8 00                         15002 NXCISW   DC    X'00'               INDICATES NEXT FD IN CI FOR ADP0     82902021
 00BAF9 00                         15003 NOADD    DC    X'00'          TELLS ADP310 NOT TO ASSIGN NEW BLLCTR     82908021
 00BAFA                            15004          DS    0H                                                       82914021
 00BAFA 00                         15005          DC    X'00'                                                    82920021
 00BAFB 0006000000000002           15006 MSGDEF   DC    X'0006000000000002' MESSAGE TEXT                         82926021
 00BB03 00025400                   15007 MSGPRM   DC    X'00025400'         MESSAGE PARAMETER FIELD              82932021
 00BB07                            15008 CARDNO   DS    2C                  CURRENT CARD NUMBER                  82938021
 00BB09                            15009 SAVCDNO  DS    2C                                                       82944021
                             0BB0B 15010 SASUMV   EQU   * STERLING REPORT PICTURE ASSUMED VALUES AND CONSTAN     82950021
 00BB0B 14                         15011          DC    X'14'              NO.OF PICTURE BYTES                   82956021
 00BB0C 00                         15012          DC    X'00'          NOT BLANK WHEN ZERO,SEPARATORD D          82962021
 00BB0D 5B0D0600                   15013          DC    X'5B0D0600'    FLOAT,LENGTH,NO.OF $,NO.OF DEC PENCE      82968021
 00BB11 5B06F9014001C401           15014 STLASM   DC    X'5B06F9014001C401'      POUNDS    $$$$$$9BD             82974021
 00BB19 E901F9014001C401           15015 STSASM   DC    X'E901F9014001C401'      SHILLINGS Z9BD                  82980021
 00BB21 E901F901                   15016 STPASM   DC    X'E901F901'              PENCE     Z9                    82986021
 00BB25 00
 00BB26 007F                       15017 HW127    DC    H'127'         127 IN HALF WORD                          82992021
 00BB28 0081                       15018 HW129  DC      H'129'             129 IN HALF WORD                      82998021
                                   15019 *                                                                       83004021
                                   15020 *  CURRENT ITEM  ( C I ).                                               83010021
                                   15021 *                                                                       83016021
 00BB2C                            15022          DS    0F                                                       83022021
1PH20     IKFCBL20                                                                                              PAGE  341
-  LOC  OBJECT CODE    ADDR1 ADDR2  STMT   SOURCE STATEMENT                                       ASM 0201 11.03 02/14/15
000BB2C                            15023 CI       DS    0CL160                   CURRENT ITEM SET UP AREA        83028021
 00BB2C                            15024 NUMBCD   DS    C                   SAVE AREA                            83034021
 00BB2D                            15025 BCDNAM   DS    31C                 FOR BCD-NAME                         83040021
 00BB4C                            15026 ATTRIB   DS    106C            DICT. ATTRIBUTE SET UP AREA        32352 83046021
                                   15027 *                                                                       83052021
                                   15028 *  LD DICTIONARY ENTRY ATTRIBUTE FORMAT                                 83058021
                                   15029 *                                                                       83064021
                             0BB4C 15030 COUNT  EQU   ATTRIB               COUNT+MAJOR CODE=4+4                  83070021
                             0BB4D 15031 MINCOD EQU   ATTRIB+1             MINCD+MBS+OCCURS+REDEF=4+2+1+1        83076021
                             0BB4E 15032 ADDPAR EQU   ATTRIB+2             ADDRESSING PARAMETER=24               83082021
                             0BB51 15033 SYNCHR EQU   ATTRIB+5             INDX+SYNCH+R/L+LABEL+X=1+1+1+1+4      83088021
                             0BB52 15034 LEVNUM EQU   ATTRIB+6             LEVNUM+Q-RTN+NEXT FIELD=6+1+1         83094021
                             0BB53 15035 VILGN  EQU   ATTRIB+7             INFO ON ITEM LENGTH, OCCURS PTR       83100021
                             0BB55 15036 REPPIC EQU   ATTRIB+9             AND REPORT PICTURE INFORMATION        83106021
                                   15037 *                                                                       83112021
                                   15038 * SD DICTIONARY ATTRIB                                                  83118021
                                   15039 *                                                                       83124021
                             0BB4C 15040 SDCOUNT  EQU   ATTRIB             COUNT+MAJOR CODE=4+4                  83130021
                             0BB4D 15041 SDNOBL   EQU   ATTRIB+1           X+MODE+X+NOBL=1+2+1+4                 83136021
                             0BB4E 15042 SDBLNO   EQU   ATTRIB+2           FIRST BL NO=8                         83142021
                             0BB4F 15043 SDMAX    EQU   ATTRIB+3           MAX RECORD LENGTH=2                   83148021
                             0BB51 15044 SDMIN    EQU   ATTRIB+5           MIN RECORD LENGTH=2                   83154021
                             0BB53 15045 SDUNU    EQU   ATTRIB+7           X=1                                   83160021
                                   15046 *                                                                       83166021
                                   15047 *  FD DICTIONARY ENTRY ATTRIBUTE FORMAT                                 83172021
                                   15048 *                                                                       83178021
                             0BB4C 15049 FDCUNT EQU   ATTRIB               COUNT+MAJOR CODE=4+4                  83184021
                             0BB4D 15050 FDNOBL EQU   ATTRIB+1             Q-RTN+MODE+PROTCT,NOBL=1+2+1+4        83190021
                             0BB4E 15051 FDBLNO EQU   ATTRIB+2             FIRST BL NO=8                         83196021
                             0BB4F 15052 FDCBNO EQU   ATTRIB+3             DCB NO=8                              83202021
                             0BB50 15053 FDACMT EQU   ATTRIB+4             ACCESS METHOD+OPTIONS=4+4             83208021
                             0BB51 15054 FDECNO EQU   ATTRIB+5             DECB NO=8                             83214021
                             0BB52 15055 FDMAX    EQU   ATTRIB+6           MAX. DATA RECORD SIZE=16              83220021
                             0BB54 15056 FDVCNT EQU   ATTRIB+8             VAR INFO CNT+SAME RCD+X=4+1+3         83226021
                             0BB55 15057 FDKEYADP EQU   ATTRIB+9           ACT-KEY IDK FOR DIRECT FILE=24        83232021
                             0BB55 15058 FDREORG  EQU   ATTRIB+9           REORG-DN IDK FOR BISAM FILE=24        83238021
                             0BB58 15059 FDKEYLNG EQU   ATTRIB+12          ACT-KEY LNG-4 FOR DIRECT FILE=24      83244021
 00BBB6                            15060          CNOP  2,4                                                      83250021
 00BBB6                            15061 ITMCLS   DS    2C                  ITEM CLASS                           83256021
 00BBB8                            15062 CILGN    DS    2C                  CURRENT ITEM LENGTH                  83262021
 00BBBA                            15063 OBJDIS   DS    2C                  DISPLACEMENT IN ODLTBL               83268021
 00BBBC                            15064 NOC      DS    2C                  NUMBER OF OCCURENCES                 83274021
 00BBBE                            15065 CARDXX   DS    2C                  *************************            83280021
 00BBC0                            15066 OBJRED   DS    4C                                                       83286021
 00BBC4                            15067 DICTPT   DS    4C                  DICTIONARY POINTER                   83292021
 00BBC8                            15068 SRCELN   DS    C                   LEVEL NUMBER                         83298021
                             0BBC8 15069 CILEV    EQU   SRCELN                                                   83304021
 00BBC9                            15070 ELITEM   DS    0CL216         ELEMENTARY ITEM WORK AREA                 83310021
 00BBC9                            15071 IPT      DS    31C            INITIAL PICTURE TABLE                     83316021
 00BBE8                            15072 IPLT     DS    31H            INITIAL PICTURE LENGTH TABLE              83322021
 00BC26                            15073 LITVAL   DS    121C           LITERAL OF VALUE CLAUSE                   83328021
 00BC9F                            15074 NOOFPS   DS    C              NUMBER OF P,S IN PICTURE                  83334021
 00BCA0                            15075 PCTYPE   DS    C              PICTURE TYPE CODE                         83340021
 00BCA1                      0BB55 15076        ORG   CI+41                FD WORK AREA                          83346021
 00BB58                            15077          DS    0F                                                       83352021
1PH20     IKFCBL20                                                                                              PAGE  342
-  LOC  OBJECT CODE    ADDR1 ADDR2  STMT   SOURCE STATEMENT                                       ASM 0201 11.03 02/14/15
000BB58                            15078 DCBCON   DS    7C                  IC-TEXT FOR DCB ADCON                83358021
 00BB5F                            15079 DCB      DS    102C                    DATA CONTROL BLOCK AREA          83364021
 00BBC8                            15080          DS    0F                                                       83370021
 00BBC8                            15081 DECBCN   DS    7C                  IC-TEXT FOR DECB ADCON               83376021
 00BBCF                            15082 DECB     DS    40C                 DATA EVENT CONTROL BLOCK             83382021
 00BBF8                            15083          DS    0F                                                       83388021
 00BBF8                            15084 DECBDF   DS    9C                  WORK AREA FOR DECB DEFINITION        83394021
                             0BBF8 15085 DCBDEF   EQU   DECBDF                            DCB  DEFINITION AN     83400021
                             0BBF8 15086 INDADF   EQU   DECBDF                            INDIRECT ADDRESS D     83406021
                             0BBF8 15087 ACONDF   EQU   DECBDF                            ADCON DEFINITIONS      83412021
 00BC04                            15088 DCBADD   DS    F                   RELATIVE LOC. OF CURRENT DCB         83418021
 00BC08                            15089 DECBAD   DS    F                   RELATIVE LOC. OF CURRENT DECB        83424021
 00BC0C                            15090 KEYINS   DS    0F                  INSERT TO BE MADE TO-                83430021
 00BC0C                            15091 KEYLGN   DS    F                       RCKTBL-RECORD KEY TABLE          83436021
 00BC10                            15092 KEYLOC   DS    F                       KEYTBL-SYM AND ACT KEY TABLE     83442021
 00BC14                            15093 KYDECB   DS    F                               SEQUENTIAL PROCESSIN     83448021
                             0BC14 15094 BSAMDP   EQU   KYDECB                  KEYRAN-SYM AND ACT KEY TABLE     83454021
 00BC18                            15095 NCYC     DS    H                               ASSYNCHRONOUS PROCES     83460021
 00BC1A                            15096 APPTSA   DS    2C                                                       83466021
 00BC1C                            15097 CARDKY   DS    2C                                                       83472021
                                   15098 *                                 *KEYLGN-THE REL LOC OF KEYLGN(DCB     83478021
                                   15099 *                                 *KEYLOC-THE REL LOC OF RKP(RECORD     83484021
                                   15100 *                                          DISP.)IN DCB                 83490021
                                   15101 *                                          OR                           83496021
                                   15102 *                                         THE REL LOC OF SYM/ACT KE     83502021
                                   15103 *                                          DECB                         83508021
                                   15104 *                                 *KYDECB-THE REL LOC OF RECORD KEY     83514021
                                   15105 *                                          DECB                         83520021
                                   15106 *                                 *BSAMDP-THE PTR TO BSAM TABLE IF      83526021
                                   15107 *                                          KEY IS USED IN BSAM DIRE     83532021
                                   15108 *                                 *NCYC  -THE NUMBER OF CYCLES IF       83538021
                                   15109 *                                          ASSYNCHRONOUS PROC.          83544021
                                   15110 *                                 *LDECB - THE LGN OF DECB IF ASSYN     83550021
                                   15111 *                                            RONOUS PROC.               83556021
                                   15112 *                                  *APPTSA- PTR TO SA THAT KEY SHOU     83562021
                                   15113 *                                           BE IN                       83568021
 00BC1E                      0BB55 15114        ORG   CI+41                CHECK POINT WORK AREA                 83574021
                                   15115 * DCB AND DECB FOR RERUN.                                               83580021
 00BB55 000000
 00BB58 00000000                   15116 DCBCCN   DC    F'0'                                                     83586021
 00BB5C 000064                     15117          DC    X'000064'                                                83592021
 00BB5F 0000000000000000           15118 DCBC     DC    X'00000000000000000000000000000000'                      83598021
 00BB6F 00000000000000             15119          DC    X'00000000000000'                                        83604021
 00BB76 01                         15120          DC    X'01'                         A(BUFCB)=1                 83610021
 00BB77 0000400000000001           15121          DC    X'000040000000000100000001'   DSORG=PS                   83616021
 00BB83 C0                         15122          DC    X'C0'                         RECFM=C0  UNDEFINED        83622021
 00BB84 0000000000000000           15123          DC    X'00000000000000000000000200'  DCB FLGS FOR RERUN        83628021
 00BB91 0020                       15124          DC    X'0020'            MACRF=WRITE                           83634021
 00BB93 00000001000000             15125          DC    X'00000001000000'                                        83640021
 00BB9A 01                         15126          DC    X'01'                         A(SYNAD)=1                 83646021
 00BB9B 0000                       15127          DC    X'0000'                                                  83652021
 00BB9D 0000                       15128          DC    X'0000'            BLKSIZE UNSPECIFIED                   83658021
 00BB9F 0000000000000001           15129          DC    X'00000000000000010000000100000001'                      83664021
 00BBAF 0000000000000001           15130          DC    X'00000000000000010000000000000000'                      83670021
 00BBBF 00000000                   15131          DC    X'00000000'                                              83676021
1PH20     IKFCBL20                                                                                              PAGE  343
-  LOC  OBJECT CODE    ADDR1 ADDR2  STMT   SOURCE STATEMENT                                       ASM 0201 11.03 02/14/15
000BBC3 00
 00BBC4 00000000                   15132 DECBCC   DC    F'0'                                                     83682021
 00BBC8 00001C                     15133          DC    X'00001C'                                                83688021
 00BBCB 00000000                   15134 DECBC    DC    X'00000000'                                              83694021
 00BBCF 0020                       15135          DC    X'0020'                                                  83700021
 00BBD1 0000                       15136          DC    X'0000'                                                  83706021
 00BBD3 00000000                   15137          DC    X'00000000'                                              83712021
 00BBD7 0000000000000000           15138          DC    X'0000000000000000'                                      83718021
 00BBDF 0000                       15139 WORKC    DC    X'0000'                       CHECK POINT WORK AREA      83724021
 00BBE1 8000                       15140          DC    X'8000'                                                  83730021
 00BBE3 00000000                   15141          DC    X'00000000'                                              83736021
 00BBE7                      0BCA1 15142          ORG   PCTYPE+1                                                 83742021
 00BCA4                            15143          DS    0F                                                       83748021
                                   15144 * WORK AREA FOR TRACK-AREA IS DATA-NAME CLAUSE                          83754021
 00BCA4                            15145 TRACK    DS    11C                                                      83760021
 00BCAF                            15146 SCAR     DS    0CL14                                                    83766021
 00BCAF                            15147 MCI      DS    C              MAJOR CODE INDICATOR                      83772021
                                   15148 *                             0    FD                                   83778021
                                   15149 *                             1    SD                                   83784021
                                   15150 *                             2   FD (ASSYNCHRONOUS PROCESSING)         83790021
                                   15151 *                             3    SA                                   83796021
                                   15152 *                             4    WORKING-STORAGE SECTION              83802021
                                   15153 *                             5    LINKAGE SECTION                      83808021
                                   15154 *                             6    REPORT SECTION                       83814021
 00BCB0                            15155 GLN      DS    C              LEVEL = OF CURRENT GROUP                  83820021
 00BCB1                            15156 GUI      DS    C              USAGE OF CURRENT GROUP                    83826021
                                   15157 *                             0    NO USAGE ON CURRENT GROUP            83832021
                                   15158 *                             1    DISPLAY                              83838021
                                   15159 *                             2    COMPUTATIONAL                        83844021
                                   15160 *                             3    COMPUTATIONAL-1                      83850021
                                   15161 *                             4    COMPUTATIONAL-2                      83856021
                                   15162 *                             5    COMPUTATIONAL-3                      83862021
                                   15163 *                             6    DISPLAY-ST                           83868021
 00BCB2                            15164 OLN      DS    4C             LEVEL ='S OF ITEMS WHICH HAVE OCCURS      83874021
                                   15165 *                             CLAUSES                                   83880021
 00BCB6                            15166 OCT      DS    C              NUMBER OF ENTRIES IN OLN                  83886021
 00BCB7                            15167 FESB     DS    C              FIRST ENTRY SWITCH                        83892021
                                   15168 *                             BIT0      UNUSED                          83898021
                                   15169 *                                1      UNUSED                          83904021
                                   15170 *                                2      UNUSED                          83910021
                                   15171 *                                3      UNUSED                          83916021
                                   15172 *                                4      UNUSED                          83922021
                                   15173 *                                5      UNUSED                          83928021
                                   15174 *                                6      LEVEL 01 HAS APPEARED           83934021
                                   15175 *                                7      LEVEL 77 HAS APPEARED           83940021
 00BCB8                            15176 BAS      DS    4C             LEVEL ='S OF ITEMS WITH OCCURS DEPEND     83946021
                                   15177 *                             ON CLAUSES                                83952021
 00BCBC                            15178 BASI     DS    C              COUNT OF NUMBER OF ENTRIES IN BAS         83958021
                                   15179 *                                                                       83964021
                                   15180 *  PREVIOUS TO CURRENT ITEM. ( P C I ).                                 83970021
                                   15181 *                                                                       83976021
 00BCC0                            15182          DS    0F                                                       83982021
 00BCC0                            15183 PCI      DS    0CL160                   PREV ITEM SET UP AREA           83988021
 00BCC0                            15184 PNMBCD   DS    C                   NO. OF BCD CHARACTERS IN NAME.       83994021
 00BCC1                            15185 PBCDNM   DS    30C                 BCD NAME.                            84000021
1PH20     IKFCBL20                                                                                              PAGE  344
-  LOC  OBJECT CODE    ADDR1 ADDR2  STMT   SOURCE STATEMENT                                       ASM 0201 11.03 02/14/15
000BCDF                            15186 PBLANK   DS    C                                                        84006021
 00BCE0                            15187 PATTRB   DS    106C                     PREV. ITEM SET UP AREA    32352 84012021
                                   15188 *                                                                       84018021
                                   15189 *  LD DICTIONARY ENTRY ATTRIBUTE FORMAT                                 84024021
                                   15190 *                                                                       84030021
                             0BCE0 15191 PCOUNT EQU   PATTRB                                                     84036021
                             0BCE1 15192 PMINCD EQU   PATTRB+1                                                   84042021
                             0BCE2 15193 PADDPR EQU   PATTRB+2                                                   84048021
                             0BCE5 15194 PSYNCH EQU   PATTRB+5                                                   84054021
                             0BCE6 15195 PLEVNM EQU   PATTRB+6                                                   84060021
                             0BCE7 15196 PVILGN EQU   PATTRB+7                                                   84066021
                             0BCE9 15197 PREPIC EQU   PATTRB+9                                                   84072021
 00BD4A                            15198            CNOP  2,4                  NON-FULL-WRD HALF-WRD BOUNDAR     84078021
 00BD4A                            15199 PITMCL   DS    2C                  CONTAINS CODE FOR PRESENCE OF CL     84084021
 00BD4C                            15200 PCILGN   DS    2C                  LN IN BYTES IF ELEM ITEM (MACH L     84090021
 00BD4E                            15201 POBJDS   DS    2C                  DISP IN QUITEM OF OBJ OF OCCURS.     84096021
 00BD50                            15202 PNOC     DS    2C                  NO. OF OCCURRENCES FOR OCCURS CL     84102021
 00BD52                            15203 PCARDN   DS    2C                  SOURCE CARD NUMBER.                  84108021
 00BD54                            15204 POBJRD   DS    4C                  DICT POINTER OF OBJECT OF REDEF.     84114021
 00BD58                            15205 PDICPT   DS    4C                  DICT POINTER OF CURRENT ITEM.        84120021
 00BD5C                            15206 PSRLEN   DS    C                   SOURCE LEVEL NUMBER,UNNORMALIZED     84126021
                                   15207 *                                                                       84132021
 00BD5D                            15208 BPCILN   DS    C              LEVEL NUMBER OF PREVIOUS ITEM             84138021
 00BD5E                            15209 PMCI     DS    C                                                        84144021
 00BD5F                            15210 BREPSW   DS    2C             BIT SWITCHES FOR REPORT PICTURE ANALY     84150021
                                   15211 *                             BIT 0 =1  IF FIXED $ APPEARED             84156021
                                   15212 *                                 1 =1  IF FIXED +OR- APPEARED          84162021
                                   15213 *                                 2 =1  ASSUMED V (FOR P9)              84168021
                                   15214 *                                 3 =1 IF V APPEARED                    84174021
                                   15215 *                                 4 =1  IF 9 APPEARED                   84180021
                                   15216 *                                 5 =1  IF . APPEARED                   84186021
                                   15217 *                                 6 =1  IF Z APPEARED                   84192021
                                   15218 *                                 7 =1  IF * APPEARED                   84198021
                                   15219 *                                 8 =1  IF CR APPEARED                  84204021
                                   15220 *                                 9 =1  IF DB APPEARED                  84210021
                                   15221 *                                10 =1  IF FLOATING STRING HAS APPE     84216021
                                   15222 *                                       AND 1 WAS SUBTRACTED FROM I     84222021
                                   15223 *                                       LENGTH  FOR NUMERIC LENGTH      84228021
                                   15224 *                                11 =1  IF THERE IS A SCALE             84234021
                                   15225 *                                12 =1  TO CHECK FOR 9P9                84240021
                                   15226 *                                13 =1  IF P APPEARED                   84246021
                                   15227 *                                14 =1  IF NUMERIC APPEARED             84252021
                                   15228 *                                15 =1  IF A DEC. PT (REAL, IMPLIED     84258021
                                   15229 *                                       ASSUMED) APPEARED.              84264021
                                   15230 *                                           V     RB-CN                 84270021
                                   15231 *                                                   1 V                 84276021
 00BD61                            15232 BDECCH   DS    C              CHAR AFTER DECIMAL POINT                  84282021
 00BD62                            15233 BFIRST   DS    C              FIRST CHAR                                84288021
 00BD63                            15234 BFLTST   DS    C                   FLOATING STRING CHARACTER $, +,      84294021
 00BD64 00                         15235 LEVSAV   DC    X'00'         SAVE LEVEL FOR COND VAR              07271 84300021
 00BD68                            15236          DS    0F                  SAVES LEVEL NUMBER FOR 88 ITEM       84306021
 00BD68                            15237 REDEFA   DS    32C                 BCDNAME FOR REDEFINES                84312021
 00BD88                            15238 BSAVEC   DS    32C            SAVE AREA FOR COPY NAME                   84318021
 00BDA8                            15239 OVERFL   DS    32C                 OVERFLOW NAME WORK AREA              84324021
 00BDC8                            15240          DS    0F                                                       84330021
1PH20     IKFCBL20                                                                                              PAGE  345
-  LOC  OBJECT CODE    ADDR1 ADDR2  STMT   SOURCE STATEMENT                                       ASM 0201 11.03 02/14/15
000BDC8                            15241 BUFCAS   DS    0CL30               BUFFER CALCULATION WORK AREA         84336021
 00BDC8                            15242 RESERV   DS    1C                     NO. OF BUFFERS.                   84342021
 00BDC9                            15243 BLKLBL   DS    C                   BLOCK LABEL                          84348021
 00BDCA                            15244 BKCON1   DS    2C                  BLOCK CONTAINS                       84354021
 00BDCC                            15245 RCON1    DS    2C                  REC. CONTAINS-1                      84360021
 00BDCE                            15246 RCON2    DS    2C                  REC. CONTAINS-2                      84366021
 00BDD0                            15247 BKCON2   DS    2C                  BLOCK CONTAINS-2                     84372021
 00BDD2                            15248 RCDFM    DS    C                                                        84378021
 00BDD3                            15249 BUFOPT   DS    C                                                        84384021
 00BDD4                            15250 LOCDCB   DS    4C                  LOCATION OF DCB                      84390021
 00BDD8                            15251 LOCDEC   DS    4C                  LOCATION OF DECB                     84396021
 00BDDC                            15252 LOCLRL   DS    4C                  REL LOCATION OF LOGICAL REC LGN      84402021
 00BDE0                            15253 ACCMTH   DS    C                   IN/OUTPUT 1, ACCESS METHOD LAST      84408021
 00BDE1                            15254 DECBLN   DS    C                   DECB LENGTH.                         84414021
 00BDE2                            15255 CYCNO    DS    2C                  NO OF CYCLES IN ASYN. PROCESSING     84420021
 00BDE4                            15256 BUFCRD   DS    2C                  CARD NO. OF FD,SD, SA                84426021
 00BDE8                            15257          DS    0F                                                       84432021
 00BDE8                            15258 BUFCAL   DS    0CL30              FSTXT INFORMATION                     84438021
 00BDE8                            15259          DS    10C                SAVE AREA FOR CURRENT FD              84444021
 00BDF2                            15260 BUFOPT1  DS    1C                 IT IS MOVED TO BUFCAS AND USED IN     84450021
 00BDF3                            15261 BUFOPT2  DS    1C                 FST000 ROUTINE.                       84456021
                             00004 15262 TTLMSK   EQU   X'04'              TOTALING AREA                         84462021
 00BDF4                            15263          DS    18C                                                      84468021
 00BE06                            15264 BLDCOP   DS    31C                                                      84474021
 00BE28                            15265 GETSAV   DS    5F                  SAVE AREA                            84480021
 00BE3C                            15266 FSESAV   DS    F                                                        84486021
 00BE40                            15267 FULLWD   DS    F                   WORK AREA                            84492021
                             0BE40 15268 BLLINK   EQU   FULLWD                                                   84498021
 00BE44                            15269 SAV01L   DS    F                                                        84504021
 00BE48                            15270 BSAMPT   DS    F                  DISP IN BSAM TABLE                    84510021
 00BE4C                            15271 BSAMPS   DS    F                  DISP IN BSAM TABLE FOR LAST FD        84516021
 00BE50                            15272 REORGPT  DS    F                  DISP IN REORGTBL                      84522021
 00BE54                            15273 REORGPS  DS    F                  DISP IN REORGTBL FOR LAST FD          84528021
 00BE58                            15274 SMARPT   DS    F                  SAME TABLE DISPLACEMENT               84534021
 00BE5C                            15275 SMRCPT   DS    F                  SAME RECORD TBL DISPLACEMENT          84540021
 00BE60                            15276 BPACKD   DS    D                   WORK AREA                            84546021
 00BE68 00000000                   15277 SVDECB   DC    F'0'  SAVE DECB BYTES 25 THRU 28                         84552021
 00BE6C                            15278          DS    0F                                                       84558021
                                   15279 * SAME (RECORD) AREA TABLE ENTRY(CURRENT AND PREVIOUS FD).              84564021
 00BE6C                            15280 SAMERS   DS    6H                                                       84570021
 00BE78                            15281 SAMEAR   DS    6H                                                       84576021
 00BE84                            15282          DS    0F                                                       84582021
 00BE84                            15283 SMRCDAR  DS    5H                                                       84588021
 00BE8E                            15284 SMRCDRS  DS    5H                                                       84594021
 00BE98 0000000C                   15285 SAMELN   DC    F'12'               LENGTH OF SAMETBL                    84600021
 00BE9C 0000000A                   15286 SRTBLN   DC    F'10'               SAMERTBL LENGTH                      84606021
 00BEA0                            15287          DS    0F                                                       84612021
 00BEA0                            15288 QTEXT    DS    34C                 Q-RTN SET UP AREA                    84618021
 00BEC2 06C6C9D3D3C5D9             15289 FILLER   DC    X'06C6C9D3D3C5D9'   06FILLER                             84624021
                                   15290 *SAVE AREA FOR 1ST LEVEL AFTER FILE SECTION                             84630021
 00BEC9 00                         15291 SWKAR  DC    X'00'                      USED ONLY BY FST001             84636021
                                   15292 *                                                                       84642021
 00BECA 00                         15293 REDFSW   DC    X'00'          80  IF VAR-LGN GROUP IS SUBJ OF REDEFIN.  84648021
                                   15294 *                                                                       84654021
                                   15295 *  REGISTER SAVE AREA.                                                  84660021
1PH20     IKFCBL20                                                                                              PAGE  346
-  LOC  OBJECT CODE    ADDR1 ADDR2  STMT   SOURCE STATEMENT                                       ASM 0201 11.03 02/14/15
0                                  15296 *                                                                       84666021
 00BECC                            15297          DS    0F                                                       84672021
 00BECC                            15298 RSAVE    DS    0CL64                                                    84678021
 00BECC                            15299 RS0      DS    F                                                        84684021
 00BED0                            15300 RS1      DS    F                                                        84690021
 00BED4                            15301 RS2      DS    F                                                        84696021
 00BED8                            15302 RS3      DS    F                                                        84702021
 00BEDC                            15303 RS4      DS    F                                                        84708021
 00BEE0                            15304 RS5      DS    F                                                        84714021
 00BEE4                            15305 RS6      DS    F                                                        84720021
 00BEE8                            15306 RS7      DS    F                                                        84726021
 00BEEC                            15307 RS8      DS    F                                                        84732021
 00BEF0                            15308 RS9      DS    F                                                        84738021
 00BEF4                            15309 RS10     DS    F                                                        84744021
 00BEF8                            15310 RS11     DS    F                                                        84750021
 00BEFC                            15311 RS12     DS    F                                                        84756021
 00BF00                            15312 RS13     DS    F                                                        84762021
 00BF04                            15313 RS14     DS    F                                                        84768021
 00BF08                            15314 RS15     DS    F                                                        84774021
 00BF0C                            15315 RS14A    DS    F                                                        84780021
 00BF10                            15316 RS14B    DS    F                                                        84786021
 00BF14                            15317 RETURN   DS    F                                                        84792021
                                   15318 *                                                                       84798021
 00BF18                            15319 BSAVE    DS    16F                                                      84804021
                             0BF18 15320 RSAVEA   EQU   BSAVE                                                    84810021
 00BF58                            15321 BSAVE4   DS    F                                                        84816021
                             0BF58 15322 TSAVER   EQU   BSAVE4                                                   84822021
 00BF5C 00000000                   15323 SAVE4    DC    F'0'                        SAVE REG 4                   84828021
 00BF60 00000000                   15324 SAVE15   DC    F'0'                        SAVE REG 15                  84834021
 00BF64                            15325 DSAVE    DS    F                                                        84840021
 00BF68                            15326 BRET     DS    F                                                        84846021
 00BF6C 00000000                   15327 NSAVE    DC    F'0'                SAVE AREA FOR BLNTAB INDEX           84852021
 00BF70                            15328 ERSAVE   DS    8F                  ERROR SAVE                           84858021
 00BF90                            15329 QSAVE    DS    16F                                                      84864021
 00BFD0                            15330 RS144  DS    7F                                                         84870021
 00BFEC 0000                       15331 SVKYTB DC    H'0'       **    KEEP THESE 4 TOGETHER  REC.KEY DISPL.     84876021
 00BFEE 0000                       15332 SVKYSM DC    H'0'       **                            SYM.KEY           84882021
 00BFF0 0000                       15333 SVKYAC DC    H'0'       **                            ACT.KEY           84888021
 00BFF2 0000                       15334 SVKYWK DC    H'0'       **                            KEY WORK AREA     84894021
 00BFF4 0000                       15335 FDKYTB DC    H'0'  **  KEEP THESE THREE TOGETHER  REC. KEY DISPL        84900021
 00BFF6 0000                       15336 FDKYSM DC    H'0'  **                               SYM.KEY             84906021
 00BFF8 0000                       15337 FDKYAC DC    H'0'  **                               ACT. KEY            84912021
                                   15338 *                                                                       84918021
                                   15339 *  TAMER TABLES INITIATION AREA.                                        84924021
                                   15340 *                                                                       84930021
 00BFFC                            15341          DS    0F                                                       84936021
 00BFFC 0C                         15342 RDFPAR   DC    X'0C'               ENTRY LENGTH IN BYTES                84942021
 00BFFD 000064                     15343          DC    AL3(RDFSTK)                                              84948021
 00C000 003C                       15344          DC    H'60'               TOTAL LENGTH OF TABLE.               84954021
 00C002 000C                       15345          DC    H'12'               GROW SIZE                            84960021
 00C004                            15346          DS    0F                                                       84966021
 00C004 05                         15347 RNMPAR   DC    X'05'               ENTRY LENGTH IN BYTES                84972021
 00C005 00006C                     15348          DC    AL3(RNMTBL)                                              84978021
 00C008 0019                       15349       DC    H'25'                                                       84984021
 00C00A 0005                       15350          DC    H'05'               GROW SIZE.                           84990021
1PH20     IKFCBL20                                                                                              PAGE  347
-  LOC  OBJECT CODE    ADDR1 ADDR2  STMT   SOURCE STATEMENT                                       ASM 0201 11.03 02/14/15
0                                  15351 *                                                                       84996021
 00C00C 00                         15352 REORGPAR DC    X'00'                                                    85002021
 00C00D 000024                     15353          DC    AL3(REORGTBL)      REORGTBL EQU TIB3-COS                 85008021
 00C010 003C                       15354          DC    H'60'                                                    85014021
 00C012 000C                       15355          DC    H'12'                                                    85020021
 00C014                            15356 GPARAM   DS    0F                                                       85026021
 00C014 24                         15357          DC    X'24'               CODE = 36 DECIMAL                    85032021
 00C015 00005C                     15358          DC    AL3(GPLSTK)                                              85038021
 00C018 00F0                       15359     DC      H'240'             50 ENTRIES                               85044021
 00C01A 0024                       15360          DC    X'0024'                 GROW SIZE                        85050021
 00C01C                            15361          DS    0F                                                       85056021
 00C01C 0C                         15362 PSAME    DC    X'0C'                                                    85062021
 00C01D 0000A4                     15363          DC    AL3(SAMETB)                                              85068021
 00C020 0038                       15364       DC    H'56'                                                       85074021
 00C022 000E                       15365          DC    H'14'                                                    85080021
 00C024 0A                         15366 PSMRCD   DC    X'0A'                                                    85086021
 00C025 000034                     15367          DC    AL3(SMRCDTBL)                                            85092021
 00C028 0032                       15368          DC    H'50'                                                    85098021
 00C02A 000A                       15369          DC    H'10'                                                    85104021
 00C02C                            15370          DS    0F                                                       85110021
 00C02C 00                         15371 RPARAM   DC    X'00'                                                    85116021
 00C02D 00007C                     15372          DC    AL3(RCKTBL)                                              85122021
 00C030 0040                       15373       DC    H'64'                                                       85128021
 00C032 002C                       15374          DC    H'44'                                                    85134021
 00C034 00                         15375 SYMPAR   DC    X'00'                                                    85140021
 00C035 000084                     15376          DC    AL3(KEYTBL)                                              85146021
 00C038 0048                       15377       DC    H'72'                                                       85152021
 00C03A 002C                       15378          DC    H'44'                                                    85158021
 00C03C 12                         15379 BSMPAR   DC    X'12'                                                    85164021
 00C03D 000094                     15380          DC    AL3(BSAMTB)                                              85170021
 00C040 0036                       15381          DC    H'54'                                                    85176021
 00C042 0024                       15382          DC    H'36'                                                    85182021
 00C044 00                         15383 LPARAM   DC    X'00'               VARIABLE LGN ENTRIES                 85188021
 00C045 000074                     15384          DC    AL3(LABTBL)         A(TIB13)                             85194021
 00C048 0060                       15385          DC    H'96'               ESTIMATE OF TABLE SIZE               85200021
 00C04A 000C                       15386          DC    H'12'               GROWTH FACTOR                        85206021
 00C04C 00                         15387 TPARAM   DC    X'00'                                                    85212021
 00C04D 00009C                     15388          DC    AL3(TRKTBL)                                              85218021
 00C050 0028                       15389       DC    H'40'                                                       85224021
 00C052 000C                       15390          DC    H'12'                                                    85230021
 00C054 04                         15391 QRTNPM   DC    X'04'                                                    85236021
 00C055 0000B4                     15392          DC    AL3(QRTN)                                                85242021
 00C058 0018                       15393       DC    H'24'                                                       85248021
 00C05A 0030                       15394          DC    H'48'                                                    85254021
 00C05C 00                         15395 QFILEP   DC    X'00'                                                    85260021
 00C05D 0000C4                     15396          DC    AL3(QFILE)                                               85266021
 00C060 0018                       15397       DC    H'24'                                                       85272021
 00C062 0030                       15398          DC    H'48'                                                    85278021
 00C064 08                         15399 QITBLP   DC    X'08'                                                    85284021
 00C065 0000BC                     15400          DC    AL3(QITBL)                                               85290021
 00C068 0030                       15401       DC    H'48'                                                       85296021
 00C06A 0030                       15402          DC    H'48'                                                    85302021
 00C06C 00                         15403 QVARPM   DC    X'00'               QVAR TABLE                           85308021
 00C06D 0000CC                     15404          DC    AL3(QVAR)                                                85314021
 00C070 0030                       15405       DC    H'48'                                                       85320021
1PH20     IKFCBL20                                                                                              PAGE  348
-  LOC  OBJECT CODE    ADDR1 ADDR2  STMT   SOURCE STATEMENT                                       ASM 0201 11.03 02/14/15
000C072 0030                       15406          DC    H'48'                                                    85326021
                                   15407 *                                                                       85332021
 00C074 00                         15408 ATBLSH   DC    X'00'               INDKEY TABLE                         85338021
 00C075 000104                     15409          DC    AL3(INDKEY)                                              85344021
 00C078 0042                       15410          DC    H'66'                                                    85350021
 00C07A 001E                       15411          DC    H'30'                                                    85356021
 00C07C 00                         15412 AKEYTB   DC    X'00'               SRCHKY TABLE                         85362021
 00C07D 00011C                     15413          DC    AL3(KEYTAB)                                              85368021
 00C080 003C                       15414          DC    H'60'                                                    85374021
 00C082 0021                       15415          DC    H'33'                                                    85380021
 00C084                            15416 TOTLPAR  DS    0F                                                       85386021
 00C084 00                         15417          DC    X'00'              VARIABLE LENGTH ENTRY                 85392021
 00C085 00001C                     15418          DC    AL3(TOTLTBL)       TOTTBL EQU TIB2-COS                   85398021
 00C088 003C                       15419          DC    H'60'                                                    85404021
 00C08A 000C                       15420          DC    H'12'                                                    85410021
                                   15421 *                                                                       85416021
 00C08C 00                         15422 PVALTR   DC    X'00'               VALTRU TABLE                         85422021
 00C08D 000114                     15423          DC    AL3(VALTRU)                                              85428021
 00C090 003C                       15424          DC    H'60'                                                    85434021
 00C092 0021                       15425          DC    H'33'                                                    85440021
 00C094                            15426 RUNPAR   DS    0F                                                       85446021
 00C094 08                         15427          DC    X'08'                                                    85452021
 00C095 000124                     15428          DC    AL3(RUNTBL)                                              85458021
 00C098 0028                       15429          DC    H'40'              REQUESTED SIZE                        85464021
 00C09A 0008                       15430          DC    H'8'                                                     85470021
 00C09C 00                         15431 AVALGR   DC    X'00'               VALGRP TABLE                         85476021
 00C09D 00003C                     15432          DC    AL3(VALGRP)                                              85482021
 00C0A0 003C                       15433          DC    H'60'                                                    85488021
 00C0A2 001E                       15434          DC    H'30'                                                    85494021
 00C0A4 01                         15435 QSBLPM   DC    X'01'                                               4758 85500021
 00C0A5 0000D4                     15436          DC    AL3(QSBL)                                           4758 85506021
 00C0A8 0030                       15437          DC    H'48'                                               4758 85512021
 00C0AA 0030                       15438          DC    H'48'                                               4758 85518021
1PH20     IKFCBL20                                                                                              PAGE  349
-  LOC  OBJECT CODE    ADDR1 ADDR2  STMT   SOURCE STATEMENT                                       ASM 0201 11.03 02/14/15
0                                  15440 *              T A M E R  T A B L E S                                   85530021
                                   15441 *                                                                       85536021
                                   15442 *                                                                       85542021
                                   15443 *                                                                       85548021
                                   15444 *                                                                       85554021
                                   15445 *                                                                       85560021
                                   15446 *                                                                       85566021
                                   15447 *                                                                       85572021
                                   15448 *                                                                       85578021
                                   15449 *      GPLSTK                                                           85584021
                                   15450 *            -GROUP LENGTH STACK IS USED TO SAVE GROUP ITEMS UNTIL      85590021
                                   15451 *             THEIR LENGTHS ARE RESOLVED                                85596021
                                   15452 *                  ****************************************             85602021
                                   15453 *                                                                       85608021
                                   15454 *                  E N T R Y   M U S T    S T A R T   O N               85614021
                                   15455 *                                                                       85620021
                                   15456 *                  F U L L   W O R D   B O U N D A R Y                  85626021
                                   15457 *                                                                       85632021
                                   15458 *                                                                       85638021
                                   15459 *                  ****************************************             85644021
                                   15460 *      TIB 10                                                           85650021
                                   15461 *      PRIMED FOR          240 BYTES                                    85656021
                                   15462 *      ENTRY LENGTH        36 BYTES                                     85662021
                                   15463 *      GROW FACTOR         36 BYTES                                     85668021
                                   15464 *      FORMAT    SIZE(BITS)   CONTENTS                                  85674021
                                   15465 *                   1         SET TO 1 IF GROUP OCCURS MORE THAN ON     85680021
                                   15466 *                             AND A BOUNDARY REQUIREMENT EXISTS         85686021
                                   15467 *                   1         SET TO 1 IF GROUP CONTAINS AN ODO         85692021
                                   15468 *                             VARIABLE                                  85698021
                                   15469 *                   1         SET TO 1 IF SYNCHRONIZED CLAUSE           85704021
                                   15470 *                             UNDER GROUP                               85710021
                                   15471 *                   1         SET TO 1 IF SYNCHRONIZED CLAUSE           85716021
                                   15472 *                             ON GROUP                                  85722021
                                   15473 *                   1         SET TO 1 IF VALUE ON GROUP                85728021
                                   15474 *                   1         SET TO 1 IF 88'S UNDER GROUP              85734021
                                   15475 *                   4         MINOR CODE---0001  FIXED LGN GROUP        85740021
                                   15476 *                                          0100  VARIABLE LGN GROUP     85746021
                                   15477 *                   3         0                                         85752021
                                   15478 *                  17         LENGTH OF GROUP IF MINOR CODE IS 0001     85758021
                                   15479 *                             VLC(VARIABLE LGN CELL)           0100     85764021
                                   15480 *                  16         DISPLACEMENT IN OD2TBL OF THE OBJECT      85770021
                                   15481 *                             ODO CLAUSE IF ANY. OTHERWISE 0            85776021
                                   15482 *                  16         NUMBER OF OCCURRENCES IF ITEM HAS OCC     85782021
                                   15483 *                             CLAUSE, MAXIMUM OCCURRENCES IF ODO        85788021
                                   15484 *                             CLAUSE. OTHERWISE 0.                      85794021
                                   15485 *                  16         CARD NUMBER OF SOURCE PROGRAM ON WHIC     85800021
                                   15486 *                             THE ITEMS NAME APPEARED                   85806021
                                   15487 *                  24         DICTIONARY POINTER OF THE REDEFINING      85812021
                                   15488 *                             OBJECT IF ITEM HAS REDEFINES CLAUSE.      85818021
                                   15489 *                             OTHERWISE 0.                              85824021
                                   15490 *                  24         DICTIONARY POINTER OF ITEM                85830021
                                   15491 *                  32         MAXIMUM LGN OF ITEM WHEN IT IS VARIAB     85836021
                                   15492 *                             LENGTH GROUP. OTHERWISE 0.                85842021
                                   15493 *                   8         LEVEL NUMBER OF ITEM                      85848021
                                   15494 *                  24         ADDRESSING PARAMETER OF ITEM              85854021
1PH20     IKFCBL20                                                                                              PAGE  350
-  LOC  OBJECT CODE    ADDR1 ADDR2  STMT   SOURCE STATEMENT                                       ASM 0201 11.03 02/14/15
0                                  15495 *                   8         NUMBER OF INDEX NAMES                     85860021
                                   15496 *                                  SPECIFIED. OTHERWISE 0.              85866021
                                   15497 *                   8         NUMBER OF KEYS IF SPECIFIED.              85872021
                                   15498 *                                  OTHERWISE 0.                         85878021
                                   15499 *                   16        DISPL IN INDKEY IF USED.                  85884021
                                   15500 *                                  OTHERWISE 0.                         85890021
                                   15501 *                   16        DISPL IN KEYTAB IF USED.                  85896021
                                   15502 *                                  OTHERWISE 0                          85902021
                                   15503 *                   16        DISPL IN VALGRP IF BIT 4 IS 1.            85908021
                                   15504 *                                  OTHERWISE 0                          85914021
                                   15505 *                   16        DISPL IN VALTRU IF BIT 5 IS 1.            85920021
                                   15506 *                                  OTHERWISE 0                          85926021
                                   15507 *                   16        UNUSED                                    85932021
                                   15508 *      TABLE HANDLING                                                   85938021
                                   15509 *                   -ENTRIES     ARE ENTERED INTO GPLSTK AFTER 'INS     85944021
                                   15510 *                   GETS SPACE.                                         85950021
                                   15511 *                   -ENTRIES  ARE DELETED BY ADJUSTING TAMM             85956021
                                   15512 *                                                                       85962021
                                   15513 *                                                                       85968021
                                   15514 *                                                                       85974021
1PH20     IKFCBL20                                                                                              PAGE  351
-  LOC  OBJECT CODE    ADDR1 ADDR2  STMT   SOURCE STATEMENT                                       ASM 0201 11.03 02/14/15
0                                  15516 *      RDFSTK                                                           85986021
                                   15517 *            -REDEFINES STACK IS USED TO ENABLE THE ADDPAR ROUTINE      85992021
                                   15518 *             TO ASSIGN ADDRESSING PARAMETERS TO ITEMS AFTER A          85998021
                                   15519 *             REDEFINES CLAUSE AND TO SAVE THE LENGTH OF REDEFINES      86004021
                                   15520 *             OBJECT FOR SUBSEQUENT ERROR CHECKING.                     86010021
                                   15521 *      TIB 11                                                           86016021
                                   15522 *      PRIMED FOR           36 BYTES                                    86022021
                                   15523 *      ENTRY LENGTH         12 BYTES                                    86028021
                                   15524 *      GROW FACTOR          12 BYTES                                    86034021
                                   15525 *      FORMAT    SIZE(BITS)   CONTENTS                                  86040021
                                   15526 *                   8         LEVEL NUMBER OF REDEFINES SUBJECT         86046021
                                   15527 *                  56         THE ADDRESSING PARAMETER FIELD CONTEN     86052021
                                   15528 *                             AT THE TIME THE REDEFINES CLAUSE IS       86058021
                                   15529 *                             ENCOUNTERED                               86064021
                                   15530 *                  32         LENGTH OF REDEFINES OBJECT                86070021
                                   15531 *      TABLE HANDLING                                                   86076021
                                   15532 *              -ENTRIES ARE MADE AFTER 'INSERT' GETS SPACE              86082021
                                   15533 *              -ENTRIES ARE DELETED BY ADJUSTING TAMM                   86088021
                                   15534 *                                                                       86094021
                                   15535 *                                                                       86100021
                                   15536 *                                                                       86106021
                                   15537 *      RNMTBL                                                           86112021
                                   15538 *            -REDEFINES NAME TABLE IS USED TO CHECK LEGALITY OF         86118021
                                   15539 *             REDEFINES CLAUSE AND ENABLE REDEFINES CHAINING            86124021
                                   15540 *      TIB 12                                                           86130021
                                   15541 *      PRIMED FOR           50 BYTES                                    86136021
                                   15542 *      ENTRY LENGTH          5 BYTES                                    86142021
                                   15543 *      GROW FACTOR           5 BYTES                                    86148021
                                   15544 *      FORMAT   SIZE(BITS)    CONTENTS                                  86154021
                                   15545 *                  8          LEVEL NUMBER OF REDEFINES OBJECT          86160021
                                   15546 *                 24          DICTIONARY POINTER OF REDEFINES OBJEC     86166021
                                   15547 *                  8          MINOR CODE OF REDEFINES OBJECT            86172021
                                   15548 *      TABLE HANDLING                                                   86178021
                                   15549 *              -ENTRIES ARE MADE AFTER 'INSERT GETS SPACE               86184021
                                   15550 *              -ENTRIES ARE DELETED BY ADJUSTING TAMM                   86190021
                                   15551 *                                                                       86196021
                                   15552 *                                                                       86202021
                                   15553 *                                                                       86208021
1PH20     IKFCBL20                                                                                              PAGE  352
-  LOC  OBJECT CODE    ADDR1 ADDR2  STMT   SOURCE STATEMENT                                       ASM 0201 11.03 02/14/15
0                                  15555 *      LABTBL                                                           86220021
                                   15556 *            -SAVES LABEL RECORD NAMES FROM LABEL RECORDS ARE           86226021
                                   15557 *             DATA-NAME CLAUSE AND ASSIGNS THE SAME LINKAGE BASE        86232021
                                   15558 *             LOCATORS TO ALL DATA-NAMES IN SAME FD. THIS TABLE IS      86238021
                                   15559 *             THEN USED IN THE LINKAGE SECTION FOR DETERMINING BASE     86244021
                                   15560 *             LOCATORS OF LABEL RECORDS.                                86250021
                                   15561 *      TIB 13                                                           86256021
                                   15562 *      PRIMED FOR           96 BYTES                                    86262021
                                   15563 *      ENTRY LENGTH        VARIABLE                                     86268021
                                   15564 *      GROW FACTOR          12 BYTES                                    86274021
                                   15565 *      FORMAT   SIZE(BITS)    CONTENTS                                  86280021
                                   15566 *                 16          LINKAGE BASE LOCATOR NUMBER ASSIGNED      86286021
                                   15567 *                             TO LABEL RECORD DATA-NAME                 86292021
                                   15568 *                  8  N       COUNT FOR LABEL RECORD DATA-NAME          86298021
                                   15569 *                8*N          LABEL RECORD DATA-NAME                    86304021
                                   15570 *                                                                       86310021
                                   15571 *                                                                       86316021
                                   15572 *                                                                       86322021
                                   15573 *      RCKTBL                                                           86328021
                                   15574 *            -RECORD KEY TABLE- SAVES DATA-NAMES OF RECORD KEYS         86334021
                                   15575 *             SPECIFIED IN AN FD AND THE RELATIVE LOCATIONS OF THE      86340021
                                   15576 *             KEYLEN AND RKP FIELDS IN THE FILE'S DCB. AT THE END O     86346021
                                   15577 *             THE FILE SECTION THE KEY DATA-NAMES ARE LOOKED UP IN      86352021
                                   15578 *             THE DICTIONARY AND KEYLEN, RKP(DISPLACEMENT OF KEY FR     86358021
                                   15579 *             BEGINNING OF RECORD) INFORMATION IS USED TO PUT OUT       86364021
                                   15580 *             CONDEFS TO FILL IN THESE FIELDS IN THE DCB(AT PHASE 6     86370021
                                   15581 *      TIB 14                                                           86376021
                                   15582 *      PRIMED FOR           96 BYTES                                    86382021
                                   15583 *      ENTRY LENGTH        VARIABLE                                     86388021
                                   15584 *      GROW FACTOR          44 BYTES                                    86394021
                                   15585 *      FORMAT   SIZE(BITS)    CONTENTS                                  86400021
                                   15586 *                 16          COUNT OF CHARACTERS IN KEY NAME AND I     86406021
                                   15587 *                             QUALIFIERS + INDIVIDUAL COUNTS FOR EA     86412021
                                   15588 *                             NAME +1                                   86418021
                                   15589 *                  8 N1       COUNT OF HIGHEST QUALIFIER DATA-NAME      86424021
                                   15590 *               8*N1          DATA-NAME                                 86430021
                                   15591 *                  .          .                                         86436021
                                   15592 *                  .          .                                         86442021
                                   15593 *                  .          .                                         86448021
                                   15594 *                  8 NN       COUNT OF LOWEST QUALIFIER DATA-NAME       86454021
                                   15595 *               8*NN          DATA- NAME                                86460021
                                   15596 *                  8          0                                         86466021
                                   15597 *                 32          RELATIVE LOCATION OF KEYLEN FIELD IN      86472021
                                   15598 *                 32          RELATIVE LOCATION OF RKP FIELD IN DCB     86478021
                                   15599 *                 16          CARD NUMBER OF SELECT CLAUSE IN WHICH     86484021
                                   15600 *                             RECORD KEY CLAUSE IS SPECIFIED            86490021
                                   15601 *                                                                       86496021
                                   15602 *                                                                       86502021
                                   15603 *                                                                       86508021
1PH20     IKFCBL20                                                                                              PAGE  353
-  LOC  OBJECT CODE    ADDR1 ADDR2  STMT   SOURCE STATEMENT                                       ASM 0201 11.03 02/14/15
0                                  15605 *      KEYTBL                                                           86520021
                                   15606 *            -SYMBOLIC AND ACTUAL KEYS FOR SYNCHRONOUS PROCESSED FI     86526021
                                   15607 *             TABLE- SAVES THE FOLLOWING INFORMATION WHEN A SYMBOLI     86532021
                                   15608 *             OR ACTUAL KEY IS SPECIFIED IN AN FD WHICH IS PROCESSE     86538021
                                   15609 *             SYNCHRONOUSLY.                                            86544021
                                   15610 *                 (A) DATA-NAME OF KEY                                  86550021
                                   15611 *                 (B) RELATIVE LOCATION OF KEYLEN FIELD IN FD'S  DC     86556021
                                   15612 *                 (C) RELATIVE LOCATION OF A(KEY) FIELD IN FD'S  DE     86562021
                                   15613 *                 (D) POINTER TO BSAMTB (TABLE) IF ACCESS METHOD        86568021
                                   15614 *                     SPECIFIED BY FD IS BSAM.                          86574021
                                   15615 *                 (E) CARD NUMBER OF KEY                                86580021
                                   15616 *             AT THE END OF WORKING-STORAGE SECTION EACH KEY IS LOO     86586021
                                   15617 *             UP IN THE DICTIONARY SO THAT THE INFORMATION NEEDED F     86592021
                                   15618 *             (B) AND (C) CAN BE SENT OUT VIA CONDEF AND ACONDEF TO     86598021
                                   15619 *             FILL IN THE RESPECTIVE DCB AND DECB FIELDS (AT PHASE      86604021
                                   15620 *             FOR BSAM THE KEY LENGTH IS A PARAMETER IN THE             86610021
                                   15621 *             CALCULATION OF THE BUFFER SIZE. THEREFORE IF THERE IS     86616021
                                   15622 *             A BSAM POINTER THE BUFFER FOR THE FD WHOSE KEY IS BEI     86622021
                                   15623 *             PROCESSED CAN BE ALLOCATED AT THIS TIME.                  86628021
                                   15624 *      TIB 15                                                           86634021
                                   15625 *      PRIMED FOR           96 BYTES                                    86640021
                                   15626 *      ENTRY LENGTH        VARIABLE                                     86646021
                                   15627 *      GROW FACTOR          44 BYTES                                    86652021
                                   15628 *      FORMAT   SIZE(BITS)    CONTENTS                                  86658021
                                   15629 *                 16          TOTAL COUNT OF CHARACTERS IN KEY NAME     86664021
                                   15630 *                             AND ITS QUALIFIERS + INDIVIDUAL COUNT     86670021
                                   15631 *                             FOR EACH NAME +1                          86676021
                                   15632 *                  8 N1       COUNT OF CHARACTERS IN HIGHEST LEVEL      86682021
                                   15633 *                             QUALIFIER DATA-NAME                       86688021
                                   15634 *               8*N1          DATA-NAME                                 86694021
                                   15635 *                  .          .                                         86700021
                                   15636 *                  .          .                                         86706021
                                   15637 *                  .          .                                         86712021
                                   15638 *                  8 NN       COUNT OF CHARACTERS IN LOWEST LEVEL       86718021
                                   15639 *                             QUALIFIER DATA-NAME                       86724021
                                   15640 *               8*NN          DATA-NAME                                 86730021
                                   15641 *                  8          0                                         86736021
                                   15642 *                 32          RELATIVE LOCATION OF KEYLEN FIELD IN      86742021
                                   15643 *                 32          RELATIVE LOCATION OF A(KEY) FLD IN DE     86748021
                                   15644 *                 32          DISPLACEMENT IN BSAMTB IF BSAM KEY        86754021
                                   15645 *                             OTHERWISE 0                               86760021
                                   15646 *                 16          CARD NUMBER OF SELECT CLAUSE IN WHICH     86766021
                                   15647 *                             RECORD KEY CLAUSE IS SPECIFIED            86772021
                                   15648 *                                                                       86778021
                                   15649 *      NOTE- A(KEY) FIELD IS 0 FOR AN ACTUAL KEY                        86784021
                                   15650 *                                                                       86790021
                                   15651 *                                                                       86796021
                                   15652 *                                                                       86802021
                                   15653 *                                                                       86808021
                                   15654 *                                                                       86814021
1PH20     IKFCBL20                                                                                              PAGE  354
-  LOC  OBJECT CODE    ADDR1 ADDR2  STMT   SOURCE STATEMENT                                       ASM 0201 11.03 02/14/15
0                                  15656 *      BSAMTB-                                                          86826021
                                   15657 *             BSAM TABLE- THE BUFFER FOR BSAM CANNOT BE ALLOCATED       86832021
                                   15658 *             UNTIL THE KEY LENGTH IS KNOWN. THEREFORE IN THE           86838021
                                   15659 *             KEYTBL AND KEYRAN TABLES THERE IS A DISPLACEMENT CELL     86844021
                                   15660 *             OF THE BSAMTB TABLE FOR KEYS IN A BSAM FILE. WHEN         86850021
                                   15661 *             KEY TABLES ARE PROCESSED THE KEY LENGTH IS KNOWN          86856021
                                   15662 *             AND SO THE BUFFER CAN BE ALLOCATED WITH THE INFORMATI     86862021
                                   15663 *             IN BSAMTB AT THIS TIME.                                   86868021
                                   15664 *      TIB 17                                                           86874021
                                   15665 *      PRIMED FOR           48 BYTES                                    86880021
                                   15666 *      ENTRY LENGTH         12 BYTES                                    86886021
                                   15667 *      GROW FACTOR          12 BYTES                                    86892021
                                   15668 *      FORMAT   SIZE(BITS)    CONTENTS                                  86898021
                                   15669 *                 6          BLKSIZE ROUNDED UP TO MULTIPLE OF 8       86904021
                                   15670 *                  8          BASE LOCATOR ASSOCIATED WITH FILE         86910021
                                   15671 *                 24          RELATIVE LOCATION OF A(BUFFER) FIELD      86916021
                                   15672 *                             DECB                                      86922021
                                   15673 *                 16          RPD= ASSOCIATED WITH FILE                 86928021
                                   15674 *                 16          NUMBER OF CYCLES ASSOCIATED WITH FILE     86934021
                                   15675 *                             FROM APPLY 4 CLAUSE                       86940021
                                   15676 *                             0 IF NO APPLY 4 CLAUSE                    86946021
                                   15677 *                 15          0                                         86952021
                                   15678 *                  1          =1  FOR V-TYPE RECORDS                    86958021
                                   15679 *                             =0  FOR UORF-TYPE RECORDS                 86964021
                                   15680 *                                                                       86970021
                                   15681 *                                                                       86976021
                                   15682 *                                                                       86982021
                                   15683 *                                                                       86988021
                                   15684 *      TRKTBL                                                           86994021
                                   15685 *            -TRACK-AREA IS DATA-NAME CHARACTERS CLAUSE TABLE-          87000021
                                   15686 *             SAVES THE DATA-NAME OF TRACK AREA CLAUSE ALONG WITH       87006021
                                   15687 *               (A) RELATIVE LOCATION OF MSWA FIELD IN DCB.             87012021
                                   15688 *               (B) RELATIVE LOCATION OF SMSW FIELD IN DCB.             87018021
                                   15689 *             AT THE END OF WORKING-STORAGE SECTION THE TRACK-AREA      87024021
                                   15690 *             DATA-NAME IS LOOKED UP IN THE DICTIONARY WHICH CONTAI     87030021
                                   15691 *             THE INFORMATION TO FILL IN FIELDS (A) AND (B) IN THE      87036021
                                   15692 *             DCB                                                       87042021
                                   15693 *               MSWA = MAIN STORAGE WORKAREA ADDRESS                    87048021
                                   15694 *               SMSW = SIZE OF MSWA                                     87054021
                                   15695 *      TIB 18                                                           87060021
                                   15696 *      PRIMED FOR           96 BYTES                                    87066021
                                   15697 *      ENTRY LENGTH        VARIABLE                                     87072021
                                   15698 *      GROW FACTOR          12 BYTES                                    87078021
                                   15699 *      FORMAT   SIZE(BITS)    CONTENTS                                  87084021
                                   15700 *                  8  N       COUNT OF CHARACTERS IN DATA-NAME          87090021
                                   15701 *                8*N          DATA-NAME                                 87096021
                                   15702 *                 32          RELATIVE LOCATION OF MSWA FIELD IN DC     87102021
                                   15703 *                 32          RELATIVE LOCATION OF SMSW FIELD IN DC     87108021
                                   15704 *                 16          CARD NUMBER OF SELECT FOR TRACK-AREA      87114021
                                   15705 *                                                                       87120021
                                   15706 *                                                                       87126021
                                   15707 *                                                                       87132021
                                   15708 *                                                                       87138021
1PH20     IKFCBL20                                                                                              PAGE  355
-  LOC  OBJECT CODE    ADDR1 ADDR2  STMT   SOURCE STATEMENT                                       ASM 0201 11.03 02/14/15
0                                  15710 *      SAMETB                                                           87150021
                                   15711 *            -SAME AREA CLAUSE TABLE- COLLECTS BUFFER SIZE ATTRIBUT     87156021
                                   15712 *             OF ALL FD'S UNDER SAME AREA CLAUSES SO THAT AT THE        87162021
                                   15713 *             END OF THE FILE SECTION THE BUFFER CAN BE ALLOCATED       87168021
                                   15714 *             TO MEMBERS UNDER A SAME AREA CLAUSE. ALL FD'S UNDER       87174021
                                   15715 *             ONE SAME AREA CLAUSE ARE GIVEN A UNIQUE NUMBER AND TH     87180021
                                   15716 *             THE FD WHOSE BUFFER IS THE LARGEST FOR A UNIQUE NUMBE     87186021
                                   15717 *             IS USED FOR THE BUFFER SIZE FOR ALL MEMBERS WITH THAT     87192021
                                   15718 *             UNIQUE NUMBER.                                            87198021
                                   15719 *      TIB 19                                                           87204021
                                   15720 *      PRIMED FOR           70 BYTES                                    87210021
                                   15721 *      ENTRY LENGTH         14 BYTES                                    87216021
                                   15722 *      GROW FACTOR          14 BYTES                                    87222021
                                   15723 *      FORMAT   SIZE(BITS)    CONTENTS                                  87228021
                                   15724 *                  8          UNIQUE NUMBER ASSIGNED TO ALL FILES       87234021
                                   15725 *                             UNDER THE SAME AREA CLAUSE                87240021
                                   15726 *                 24          RELATIVE LOCATION OF A(BUFCB) FIELD I     87246021
                                   15727 *                              DCB FOR QUEUED ACCESS METHODS            87252021
                                   15728 *                             RELATIVE LOCATION OF A(BUFFER) FIELD      87258021
                                   15729 *                              DECB FOR BASIC ACCESS METHODS            87264021
                                   15730 *                 16          NUMBER OF BUFFERS FOR QUEUED ACC. MET     87270021
                                   15731 *                             NUMBER OF CYCLES FOR  BASIC  ACC. MET     87276021
                                   15732 *                 16          BLOCK LENGTH OF FD                        87282021
                                   15733 *                 16          RPD= ASSOCIATED WITH ASSYNCHRONOUS FI     87288021
                                   15734 *                             0 IF SYNCHRONOUSLY PROCESSED FILE         87294021
                                   15735 *                  8          BASE LOCATOR ASSOCIATED WITH FILE         87300021
                                   15736 *                  1          =1 INPUT FILE                             87306021
                                   15737 *                             =0 OUTPUT FILE                            87312021
                                   15738 *                  1          =1 V-TYPE RECORDS                         87318021
                                   15739 *                             =0 U OR F TYPE RECORDS                    87324021
                                   15740 *                  2          0                                         87330021
                                   15741 *                  4          ACCESS METHOD                             87336021
                                   15742 *                                    0000   QSAM                        87342021
                                   15743 *                                    0001   QISAM                       87348021
                                   15744 *                                    0010   BISAM                       87354021
                                   15745 *                                    0100   BSAM                        87360021
                                   15746 *                                    1000   BDAM                        87366021
                                   15747 *                 16          DECB LENGTH FOR BASIC ACCESS METHODS      87372021
                                   15748 *                             0 FOR QUEUED ACCESS METHODS               87378021
                                   15749 *                                                                       87384021
                                   15750 *                                                                       87390021
                                   15751 *                                                                       87396021
                                   15752 *                                                                       87402021
1PH20     IKFCBL20                                                                                              PAGE  356
-  LOC  OBJECT CODE    ADDR1 ADDR2  STMT   SOURCE STATEMENT                                       ASM 0201 11.03 02/14/15
0                                  15754 *      QRTN                                                             87414021
                                   15755 *          -Q-ROUTINE TABLE- WHEN AN OCCURS...DEPENDING ON CLAUSE I     87420021
                                   15756 *           ENCOUNTERED IN A RECORD DESCRIPTION A Q-ROUTINE IS          87426021
                                   15757 *           GENERATED FOR THAT RECORD DESCRIPTION AND REFERENCED BY     87432021
                                   15758 *           GN NUMBER. THE GN= OF THE Q-ROUTINE ALONG WITH THE OCCU     87438021
                                   15759 *           DEPENDING ON VARIABLES ASSOCIATED WITH IT ARE COLLECTED     87444021
                                   15760 *           IN THE QRTN TABLE. THIS TABLE IS USED TO CREATE THE QVA     87450021
                                   15761 *           TABLE AT THE END OF PHASE 2.                                87456021
                                   15762 *      TIB 21                                                           87462021
                                   15763 *      PRIMED FOR           48 BYTES                                    87468021
                                   15764 *      ENTRY LENGTH       VARIABLE                                      87474021
                                   15765 *      GROW FACTOR           8 BYTES                                    87480021
                                   15766 *      FORMAT   SIZE(BITS)    CONTENTS                                  87486021
                                   15767 *                 16  GNI     FIRST GN =                                87492021
                                   15768 *                 16  N       NUMBER OF ODO VARIABLES (DISPLACEMENT     87498021
                                   15769 *                             POINTERS TO OD2TBL) FOLLOWING             87504021
                                   15770 *               32*N          DISPLACEMENT POINTERS TO OD2TBL (ODO      87510021
                                   15771 *                              VARIABLES)                               87516021
                                   15772 *                  .                                                    87522021
                                   15773 *                  .                                                    87528021
                                   15774 *                  .                                                    87534021
                                   15775 *                 16  GNN     LAST GN =                                 87540021
                                   15776 *                 16  N       SAME AS ABOVE                             87546021
                                   15777 *               32*N          SAME AS ABOVE                             87552021
                                   15778 *                 32          0                                         87558021
                                   15779 *                               6B                                      87564021
                                   15780 *                                                                       87570021
                                   15781 *                                                                       87576021
                                   15782 *                                                                       87582021
                                   15783 *      QITBL                                                            87588021
                                   15784 *          -OCCURS...DEPENDING ON TABLE-RELATES DICTIONARY POINTER      87594021
                                   15785 *           OF AN OCCURS DEPENDING ON VARIABLE WITH THE DISPLACEMEN     87600021
                                   15786 *           POINTER OF THE VARIABLE IN THE OD2TBL TABLE. THIS TABLE     87606021
                                   15787 *           AND QRTN TABLE ARE COMBINED INTO THE QVAR TABLE BY THEI     87612021
                                   15788 *           COMMON FIELD,THE OD2TBL POINTER.                            87618021
                                   15789 *      TIB 22                                                           87624021
                                   15790 *      PRIMED FOR           96 BYTES                                    87630021
                                   15791 *      ENTRY LENGTH          8 BYTES                                    87636021
                                   15792 *      GROW FACTOR           8 BYTES                                    87642021
                                   15793 *      FORMAT   SIZE(BITS)    CONTENTS                                  87648021
                                   15794 *                 32          DISP. PTR. OF ODO VARIABLE IN OD2TBL      87654021
                                   15795 *                             FOR  1ST ENTRY                            87660021
                                   15796 *                 32          DICTIONARY POINTER OF ODO VARIABLE        87666021
                                   15797 *                             FOR 1ST ENTRY                             87672021
                                   15798 *                  .          .                                         87678021
                                   15799 *                  .          .                                         87684021
                                   15800 *                  .          .                                         87690021
                                   15801 *                 32          DISP. PTR OF ODO VARIABLE IN OD2TBL       87696021
                                   15802 *                             FOR LAST ENTRY                            87702021
                                   15803 *                 32          DICTIONARY POINTER OF ODO VARIABLE        87708021
                                   15804 *                             FOR LAST ENTRY                            87714021
                                   15805 *                 32          0                                         87720021
                                   15806 *                                                                       87726021
                                   15807 *                                                                       87732021
                                   15808 *                                                                       87738021
1PH20     IKFCBL20                                                                                              PAGE  357
-  LOC  OBJECT CODE    ADDR1 ADDR2  STMT   SOURCE STATEMENT                                       ASM 0201 11.03 02/14/15
000C0AC                            15810 CONVAR   DS    F                   DICTIONARY PTR OF CONDITIONAL VA     87750021
 00C0B0                            15811 DEL88    DS    F                   DELIMITOR OF CONDITIONAL VARIABL     87756021
 00C0B4 0000C0B8                   15812 ACIPRM   DC    A(BCIPRM)                                                87762021
 00C0B8                            15813 BCIPRM   DS    0CL5           PARAMETER FOR ACCESS OD CI PTR            87768021
 00C0B8                            15814 BCODE    DS    C                                                        87774021
 00C0B9 00BB2C                     15815 ACI      DC    AL3(CI)                                                  87780021
 00C0BC                            15816          DS    C                                                        87786021
 00C0BD 000000
 00C0C0 00013880                   15817          DC    F'00080000'    LEVEL NO =1                               87792021
                                   15818 *  ADDRESS CONSTANTS.                                                   87798021
                                   15819 *                                                                       87804021
 00C0C4                            15820 COSADR DS    F                                                          87810021
 00C0C8 00002EDE                   15821 AACMET   DC    A(ACCMET)                                                87816021
 00C0CC 00003A48                   15822 ALABRN   DC    A(LABLBD)                                                87822021
 00C0D0 00003AD6                   15823 ATTLBD   DC    A(TOTLBD)          ADR OF TOTL TBL BLD RTN               87828021
 00C0D4 00000044                   15824 ADPIOT   DC    A(PIOTBL)                                                87834021
 00C0D8 0000004C                   15825 ACHKPT   DC    A(CHKTBL)                                                87840021
 00C0DC 0000002C                   15826 ADAPTB   DC    A(APPTBL)                                                87846021
 00C0E0 00000054                   15827 AOD2TB   DC    A(OD2TBL)                                                87852021
 00C0E4 0000010C                   15828 ATTLDTB  DC    A(TTLDTBL)                                               87858021
 00C0E8 00001898                   15829 ASUBRTN  DC    A(SUBRTN)                                                87864021
 00C0EC 000037B8                   15830 ASAMRN   DC    A(SAMRTN)                                                87870021
 00C0F0 0000A2DC                   15831 ASAME    DC    A(SAME)                                                  87876021
 00C0F4 0000733A                   15832 ARDF10   DC    A(RDF105)                                                87882021
 00C0F8 0000A5BC                   15833 ASAMER   DC    A(SAMER)                                                 87888021
 00C0FC 000038E2                   15834 AKEYRN   DC    A(KEYRTN)                                                87894021
 00C100 000053D0                   15835 AERRTN   DC    A(ERRRTN)                                                87900021
 00C104 00000638                   15836 BGETPT   DC    A(GETPTR)                                                87906021
 00C108 000054C8                   15837 ADICTB   DC    A(DICTBD)                                                87912021
 00C10C 000056D2                   15838 ADIC62   DC    A(DIC062)                                                87918021
 00C110 00002284                   15839 AGSPIC   DC    A(GSPICT)                                                87924021
 00C114 0000030C                   15840 BINTAC   DC    A(INTACC)                                                87930021
 00C118 000015F6                   15841 ABELEM   DC    A(BELEM4)                                                87936021
 00C11C 0000015C                   15842 ADPARS   DC    A(DPARST)           ACCESS CELL ADDRESS FOR A(PHASE      87942021
 00C120 00000638                   15843 AENTPT   DC    A(ENTPTR)                                                87948021
 00C124 00000414                   15844 ALATRP   DC    A(LATRPT)                                                87954021
 00C128 00000414                   15845 ALATGP   DC    A(LATGRP)                                                87960021
 00C12C 00000414                   15846 ALATRN   DC    A(LATRNM)                                                87966021
 00C130 00000414                   15847 ALDELN   DC    A(LDELNM)                                                87972021
 00C134 00000414                   15848 ALATAC   DC    A(LATACP)                                                87978021
 00C138 0000082C                   15849 AENTDE   DC    A(ENTDEL)                                                87984021
 00C13C 00000638                   15850 AENTNM   DC    A(ENTNAM)                                                87990021
 00C140 0000873A                   15851 ATASSR   DC    A(TASSR)                                                 87996021
 00C144 00007640                   15852 AVALGN   DC    A(VALGEN)                                                88002021
 00C148 00008518                   15853 AIRSBT   DC    A(IRSLBT)                                                88008021
 00C14C 00006808                   15854 AELIPR   DC    A(ELIPR)                                                 88014021
 00C150 000064C0                   15855 AGRIPR   DC    A(GRIPR)                                                 88020021
 00C154 00006D08                   15856 AERROR   DC    A(ERROR)                                                 88026021
 00C158 00006CFA                   15857 APTQRN   DC    A(PUTQRN)                                                88032021
 00C15C 00006BE2                   15858 AUPDN    DC    A(UPDN)                                                  88038021
 00C160 00005FCE                   15859 AADPAR   DC    A(ADPAR)                                                 88044021
 00C164 00006318                   15860 AADP49   DC    A(ADP049)                                                88050021
 00C168 000056EA                   15861 AXTEN    DC    A(XTEN)                                                  88056021
 00C16C 00006F60                   15862 AREDEF   DC    A(REDEF)                                                 88062021
 00C170 00006D20                   15863 ASPIR    DC    A(SPIR)                                                  88068021
