1                                               EXTERNAL SYMBOL DICTIONARY                                      PAGE    1
-SYMBOL   TYPE  ID   ADDR  LENGTH LDID                                                            ASM 0201 11.03 02/14/15
0IKF501    SD  0001 000000 000E2E
 PHASE50   LD       007FFC        000B
 IKF502    SD  0002 000E30 00085C
 IKF503    SD  0003 001690 000F54
 IKF50A    SD  0004 0025E8 000D14
 IKF50B    SD  0005 003300 000D02
 IKF50C    SD  0006 004008 000444
 IKF50G    SD  0007 004450 000C72
 IKF50D    SD  0008 0050C8 000C6C
 IKF50E    SD  0009 005D38 000C58
 IKF50F    SD  000A 006990 000BFC
 IKF504    SD  000B 007590 000B34
 IKF505    SD  000C 0080C8 000928
1                                                                                                               PAGE    2
-  LOC  OBJECT CODE    ADDR1 ADDR2  STMT   SOURCE STATEMENT                                       ASM 0201 11.03 02/14/15
0                                      1 *$MODULE       PHASE50                                                  00008021
                                       2 *                                                                       00016021
                                       3 *                                                                       00024021
                                       4 *                                                                       00032021
                                       5 *                                                                       00040021
                                       6 *                                                                       00048021
                                       7 *                                                                       00056021
                                       8 *                                                                       00064021
                                       9 *                                                                       00072021
                                      10 *                                                                       00080021
                                      11 *                                                                       00088021
                                      12 *                                                                       00096021
                                      13 *                                                                       00104021
                                      14 *                                                                       00112021
                                      15 *                                                                       00120021
                                      16 *                                                                       00128021
                                      17 *                                                                       00136021
                                      18 *                                                                       00144021
                                      19 *                                                                       00152021
                                      20 *                                                                       00160021
                                      21 *                                                                       00168021
                                      22 *                                                                       00176021
                                      23 *                                                                       00184021
                                      24 *                                                                       00192021
                                      25 *                                                                       00200021
 000000                               26 IKF501 START 0                         PHASE50                          00208021
                                      27          ENTRY PHASE50                                                  00216021
                                      28        IHBCOB                                                           00224021
                                      29+*     THIS IS A MACRO GENERATING COBOL COMMON AS A DSECT USED
                                      30+*      BY EVERY PHASE OF THE COBOL COMPILER
                                      31+*
                                      32+***********************************************************************
                                      33+*      COMMON - THE COMMUNICATIONS AREA
                                      34+***********************************************************************
                                      35+*      THIS TABLE IS LOCATED IN PH0 FOLLOWING THE ENTRY POINT- COS.
                                      36+*      AT ENTRY TO EACH PHASE R1 POINTS TO THE SLOT CONTAINING COSADDR.
 000000                               37+COS    DSECT
 000000                               38+       DS    3F          EXECUTABLE CODE IN PH0
 00000C                               39+TIB0     DS    2F
 000014                               40+TIB1     DS    2F
 00001C                               41+TIB2     DS    2F
 000024                               42+TIB3     DS    2F
 00002C                               43+TIB4     DS    2F
 000034                               44+TIB5     DS    2F
 00003C                               45+TIB6     DS    2F
 000044                               46+TIB7     DS    2F
 00004C                               47+TIB8     DS    2F
 000054                               48+TIB9     DS    2F
 00005C                               49+TIB10    DS    2F
 000064                               50+TIB11    DS    2F
 00006C                               51+TIB12    DS    2F
 000074                               52+TIB13    DS    2F
 00007C                               53+TIB14    DS    2F
 000084                               54+TIB15    DS    2F
 00008C                               55+TIB16    DS    2F
1                                                                                                               PAGE    3
-  LOC  OBJECT CODE    ADDR1 ADDR2  STMT   SOURCE STATEMENT                                       ASM 0201 11.03 02/14/15
0000094                               56+TIB17    DS    2F
 00009C                               57+TIB18    DS    2F
 0000A4                               58+TIB19    DS    2F
 0000AC                               59+TIB20    DS    2F
 0000B4                               60+TIB21    DS    2F
 0000BC                               61+TIB22    DS    2F
 0000C4                               62+TIB23    DS    2F
 0000CC                               63+TIB24    DS    2F
 0000D4                               64+TIB25    DS    2F
 0000DC                               65+TIB26    DS    2F
 0000E4                               66+TIB27    DS    2F
 0000EC                               67+TIB28    DS    2F
 0000F4                               68+TIB29    DS    2F
 0000FC                               69+TIB30    DS    2F
 000104                               70+TIB31    DS    2F
 00010C                               71+TIB32    DS    2F
 000114                               72+TIB33    DS    2F
 00011C                               73+TIB34    DS    2F
 000124                               74+TIB35    DS    2F
 00012C                               75+APRIME DS    F           ADDRESS OF SUBROUTINE-PRIME   IN TAMER
 000130                               76+AINSRT DS    F           ADDRESS OF SUBROUTINE-INSERT  IN TAMER
 000134                               77+ADSTAT DS    F           ADDRESS OF SUBROUTINE-STATIC  IN TAMER
 000138                               78+RELADD DS    F           ADDRESS OF SUBROUTINE-TABREL  IN TAMER
 00013C                               79+TAMNAD DS    F
 000140                               80+ACCESW DS    C           ACCESS INITIALIZATION SWITCH
 000141                               81+AMAINF   DS    CL3       POINTER TO THE MAIN FREE AREA FOR TABLES/DICT.
 000144                               82+ALSTAM DS    F           POINTER TO THE LAST ENTRY IN TAMM
 000148                               83+LOCCTR DS    F           RELATIVE ADDRESS OF THE NEXT AVAILABLE LOC
 00014C                               84+LOCCTR1  DS    F
 000150                               85+PROGID   DS    CL8       PROGRAM-ID FROM THE IDENTICATION DIVISION
 000158                               86+LABELS DS    H           CONTAINS LABEL INFORMATION.
 00015A                               87+SEGCNTR  DS    H         NUMBER OF SEGMENTS HIGHER THAN SEGMENT LIMIT -
                                      88+*                        USED BY PHASE 6
 00015C                               89+PNCTR  DS    H           COUNTER FOR ASSIGNING PB NUMBERS TO PROC.NAMES
 00015E                               90+GNCTR  DS    H           CTR. ASSIGNING GN NO.TO GENERATED PROC. NAMES
 000160                               91+DCBCTR DS    H           CTR. ASSIGNING ID.NO.TO DCB'S
 000162                               92+VIRCTR DS    H           CTR. ASSIGNING ID.NO.TO VIRTUALS
 000164                               93+LTLCTR DS    H           CTR. ASSIGNING ID.NO.TO LITERALS
 000166                               94+WCMAX  DS    H           SIZE OF THE LARGEST WORK AREA FOR LIBRARY SUBR
 000168                               95+TSMAX  DS    H           SIZE OF THE TEMP. STORAGE FOR ARITHM. STMNTS
 00016A                               96+TS2MAX DS    H           SAME AS ABOVE FOR NON-ARITHMETIC STATEMENTS
 00016C                               97+ODOCTR DS    H           NUMBER OF Q-ROUTINES
 00016E                               98+CKPCTR DS    H           NUMBER OF CHECKPOINT REQUESTS
 000170                               99+INDCTR DS    H           AVAILABLE
 000172                              100+SBLOMX   DS    H                   AVAILABLE
 000174                              101+VLCOMX   DS    H                   AVAILABLE
 000176                              102+SBLIMX DS    H           SAME AS SBLOMX FOR IN-LINE PROC.
 000178                              103+VLCIMX DS    H           SAME AS VLCOMX FOR IN-LINE PROC.
 00017A                              104+SBLCTR DS    H           COUNTER FOR ASSIGNING  SBL'S
 00017C                              105+VLCCTR DS    H           USED TO DETERMINE VLCOMX AND VLCIMX
 00017E                              106+BLLCTR DS    H           CTR. FOR ASSIGNING ID. NO.TO LINKAGE SEC. BL'S
 000180                              107+SEQERR DS    H           NO. OF OUT-OF-SEQUENCE CARDS
 000182                              108+SWITCH   DS    H
                                     109+*                        BITS MARKED BY * MAY STILL BE IN USE BY
                                     110+*                        COBOLF - ASSIGN THESE AS A LAST RESORT
1                                                                                                               PAGE    4
-  LOC  OBJECT CODE    ADDR1 ADDR2  STMT   SOURCE STATEMENT                                       ASM 0201 11.03 02/14/15
0                            00080   111+SWTRCE EQU   X'80'       BIT 0  TRACE
                                     112+*              *         BIT 1
                                     113+*              *         BIT 2
                             00010   114+SPILL    EQU   X'10'     BIT 3  SET IF DICTIONARY SPILL
                                     115+*              *         BIT 4
                             00004   116+MQVAR    EQU   X'04'     BIT 5  SET IF PH2 BUILDS A QVAR TABLE
                                     117+*              *         BIT 6
                             00001   118+MQFILE   EQU   X'01'     BIT 7  SET IF PH2 BUILDS A QFILE TABLE
                                     119+*
                                     120+*                        SECOND BYTE OF SWITCH
                                     121+*              *         BIT 0
                                     122+*              *         BIT 1
                             00020   123+SORTRTN  EQU   X'20'     BIT 2  SORT RETURN SET BY PHASE2 USED BY PH5
                             00010   124+RERUNN   EQU   X'10'     BIT 3  RERUN USED BY PHASE 1, 2 AND 5
                             00008   125+DSOU     EQU   X'08'     BIT 4  SOURCE INDICATOR FOR STATISTICS
                             00004   126+NOFITSW  EQU   X'04'     BIT 5  SET BY PH6 IF E-TEXT ON FILE3
                                     127+*                               USED BY PH7 & PH00
                             00002   128+DOPH7    EQU   X'02'     BIT 6  PH6 LOOK AHEAD FOR PH7 YES OR NO
                             00001   129+RDERRFIL EQU   X'01'     BIT 7  PH6 INPUT INDICATOR
 000184                              130+DICND2 DS    F           DICTIONARY POINTER USED IN PH2
 000188                              131+DICND1 DS    F           DICTIONARY POINTER USED IN PH1
 00018C                              132+DATE     DS    CL15      DATE/TIME OF COMPILATION
                                     133+*                        REUSED IN PHASE1 AS FOLLOWS
                                     134+*                                  BYTES 1-4 NUMBER OF DATA NAMES
                                     135+*                                        5-8 NUMBER OF VERBS
                                     136+*                                        9-12 NUMBER OF SOURCE CARDS
                                     137+*                                       13-15 NOT USED
 00019B                              138+WSDEF  DS    0CL7        LAST 7 BYTES OF DATA A-TEXT EL.FOR WORK.ST.SEC
 00019B                              139+         DS    CL3
 00019E                              140+WSBL   DS    C
 00019F                              141+WSSIZE   DS    CL3
 0001A2                              142+ERRSEV DS    C           HIGHEST ERROR SEVERITY LEVEL
 0001A3                              143+PHZSW  DS    C           OPTIONS SWITCH :
                             00080   144+LIST     EQU X'80'       SOURCE(OS)
                             00040   145+LISTX    EQU   X'40'     PMAP
                             00020   146+DECK     EQU   X'20'
                             00010   147+LINK     EQU   X'10'     LOAD
                             00008   148+SEQ      EQU   X'08'
                             00004   149+FLAGW    EQU   X'04'
                             00002   150+LIBR     EQU   X'02'
                             00001   151+ZWB      EQU   X'01'
 0001A4                              152+PHZSW1 DS    C
                             00080   153+XREF     EQU   X'80'
                             00040   154+CLIST    EQU   X'40'
                             00020   155+SYM      EQU   X'20'      DMAP
                             00010   156+PDT      EQU   X'10'
                             00004   157+APOST    EQU   X'04'
                             00002   158+MAPSP    EQU     X'02'
                             00001   159+TRUNC    EQU   X'01'
 0001A5                              160+PHZSW2   DS    C         RESERVED FOR ADDITIONAL OPTIONS
                             00080   161+STAT     EQU   X'80'     RESERVED FOR STATEMENT NUMBER OPTION
                             00002   162+NO6A     EQU   X'02'     SET BY PH6 TO TELL PH7 THAT PH6A WAS BYPASSED
 0001A8                              163+DICADR DS    F
 0001AC                              164+DLSVAL DS    F           ACCESS RTN. COMMUNICATION CELL
 0001B0                              165+DICPTR DS    C           ACCESS RTN. COMMUNICATION CELL
1                                                                                                               PAGE    5
-  LOC  OBJECT CODE    ADDR1 ADDR2  STMT   SOURCE STATEMENT                                       ASM 0201 11.03 02/14/15
00001B1                              166+DCPTR  DS    3C          ACCESS RTN. COMMUNICATION CELL
 0001B4                              167+RPTSAV DS    H           REPORT SAVE AREA CELL
 0001B6                              168+BLSCTR   DS    H         AVAILABLE
 0001B8                              169+LCSECT   DS    F
 0001BC                              170+PH7LOD   DS    F
 0001C0                              171+RGNCTR DS    H           COUNT OF UNIQUE GN'S
 0001C2                              172+ERF4SW DS    C           SWITCH USED BY PH6/PH7
 0001C3                              173+PTYNO    DS    C                   CURRENT PRIORITY NO
                                     174+*                                  SET BY PH5  USED BY PH00
 0001C4                              175+COMMAD   DS    H
 0001C6                              176+PHZSW3   DS    C                   OPTION SWITCH
                             00001   177+VERBR    EQU   X'01'               LISTING A-TEXT
 0001C7                              178+PHZSW4   DS    C                   RESERVED FOR ADDITIONAL OPTIONS
 0001C8                              179+AMOVDC   DS    F
 0001CC                              180+SDSIZ    DS    F         BIGGEST SD IN PGM.
 0001D0                              181+SEGLMT   DS    C
 0001D1                              182+DTFNUM   DS    C
 0001D2                              183+CURSGN   DS    C
 0001D3                              184+PH1BYTE  DS    C         PHASE 1 COMMUNICATION TO PHASE 2
                             00001   185+UPSIBT   EQU   X'01'     PASSES INFORMATION FROM PHASE 1A TO PHASE 2
                             00002   186+EOPPH1   EQU   X'02'     PASSES INFORMATION FROM PHASE 1A TO PHASE 1B
                             00004   187+INITBIT  EQU   X'04'     PASSES INFORMATION FROM PHASE 1A TO PHASE 2
                             00008   188+BASINSQ  EQU   X'08'           PH1A TO PH1B
                             00020   189+BASIS    EQU   X'20'
                             00080   190+F3TEXT   EQU   X'80'
 0001D4                              191+DECBCT   DS    H         NO OF DECB'S FOR PGM
 0001D6                              192+INDEXS   DS    H         AVAILABLE
 0001D8                              193+INDEX1   DS    H        # INDEX NAMES DEFNED IN IN-LINE FILES
 0001DA                              194+CYCTOTAL DS    H         AVAILABLE
 0001DC                              195+IOPTRCTR DS    H        # I/O POINTERS FOR APPLY-WRITE-ONLY
 0001DE                              196+TS3MAX   DS    H
 0001E0                              197+TS4MAX   DS    H
 0001E4                              198+BUFSIZE  DS    F         USED FOR STATISTICS
 0001E8                              199+CORESIZE DS    F         USED FOR STATISTICS
 0001EC                              200+CNTLINE  DS    H         USED FOR STATISTICS
 0001EE                              201+CURCRD   DS    H
 0001F0                              202+SPACING  DS    C         USED FOR STATISTICS
 0001F1                              203+PDTCHR   DS    C                   SET BY PH01 USED BY PH6
 0001F2                              204+         DS    H
 0001F4                              205+BASINS   DS    1F
 0001F8                              206+         DS    1F
                                     207+*
                                     208+*
 0001FC                              209+         DS    0F
 0001FC                              210+AGETALL  DS    F                   ADDRESS OF TAMER RTN - GETALL
 000200                              211+         DS    F                   AVAILABLE
 000204                              212+RPDNUM   DS    H         AVAILABLE
 000206                              213+CYCNUM   DS    H         AVAILABLE
 000208                              214+IDENTL DS    F           REL. LOC. OF CODING IN OBJECT MODULE FOR THE
                                     215+*                        RANDOM PROC IDENTIFIED IN RPDNUM
 00020C                              216+BLCTR  DS    H           ID NO ASSIGNED TO BL'S FOR FILES
 00020E                              217+VNCTR  DS    H           COUNTER FOR ASSIGNING VN NUMBERS
 000210                              218+ONCTR  DS    H           COUNTER FOR ASSIGNING ID NO.TO ON CONTROL CELL
 000212                              219+PFMCTR DS    H           COUNTER FOR ASSIGNING ID NO.TO PERFORM CELLS
 000214                              220+PSVCTR DS    H           CTR FOR ASSIGNING ID'S TO PERFORM SAVE CELLS
1                                                                                                               PAGE    6
-  LOC  OBJECT CODE    ADDR1 ADDR2  STMT   SOURCE STATEMENT                                       ASM 0201 11.03 02/14/15
0000216                              221+XSACTR DS    H           LOC  WITHIN EXHIBIT OR SORT SAVE AREA
 000218                              222+XSWCTR DS    H           CTR FOR ASSIGNING ID'S TO EXHIBIT/ON SWITCHES
 00021C                              223+RELLOC DS    F           DISPL OF TGT/SGT FROM THE BEG. OF OBJECT MOD.
 000220                              224+GTLNG  DS    H           LENGTH OF TGT OR SGT SPECIFIED IN RELLOC
 000222                              225+RPILOC   DS    H         AVAILABLE
 000224                              226+VNILOC DS    H           DISPL OF VNI FIELDS IN PGT
 000226                              227+VNLOC  DS    H           DISPL OF VN FIELDS IN TGT OR SGT
 000228                              228+SUBCTR DS    H           CTR TO ASSIGN ID'S TO SUBSCRIPTED REFERENCES
 00022A                              229+PARMAX DS    H           SIZE OF PARAMETER AREA
 00022C                              230+BLSVAL   DS    H         AVAILABLE
 00022E                              231+BLSLOC   DS    H         AVAILABLE
 000230                              232+CMTBSW   DS    H         AVAILABLE
 000232                              233+SA2CTR DS    H           SET IF OPTION 2 OF USE  SPECIFIED
 000234                              234+SA3CTR DS    H           SET IF OPTION 5 OF USE  SPECIFIED
 000236                              235+BLSEND   DS    H         AVAILABLE
 000238                              236+INDEX    DS    F
 00023C                              237+INDEX0   DS    H         AVAILABLE
 000240                              238+       DS    6F
                                     239+*
                                     240+*      END OF COMMON
                                     241+*
                                     242+*
1                                                                                                               PAGE    7
-  LOC  OBJECT CODE    ADDR1 ADDR2  STMT   SOURCE STATEMENT                                       ASM 0201 11.03 02/14/15
0000000                              244 IKF501   CSECT                                                          00232021
                             00000   245 COMON1 EQU   *                                                          00240021
                                     246 *                                      THE FOLLOWING FIELDS ARE FOR     00248021
                                     247 *                                      IDENTIFICATION PURPOSES ONLY     00256021
 000000 C9D2C6C3C2D3F5F0             248          DC    C'IKFCBL50'             X                                00264021
 000008 C2                           249          DC    C'B'                    X                                00272021
 000009 28                           250          DC    AL1(40)             X                                    00280021
1         PHASE 5 - A BRIEF DESCRIPTION                                                                         PAGE    8
-  LOC  OBJECT CODE    ADDR1 ADDR2  STMT   SOURCE STATEMENT                                       ASM 0201 11.03 02/14/15
0                                    252 *=1       PH5 C O N T R O L .                                           00296021
                                     253 *=3                                                                     00304021
                                     254 *TITLE 'PH5     '                                                       00312021
                                     255 *STATUS: CHANGE LEVEL 000                                               00320021
                                     256 *FUNCTION/OPERATION: OBTAIN IC TEXT FROM 'PH4     ' AND CONVERT IT      00328021
                                     257 *   A-TEXT ACCEPTABLE TO 'PH6     '.                                    00336021
                                     258 *            ORGANIZATION OF PHASE...                                   00344021
                                     259 *              PH5CTL PHASE 5 CONTROL. OBTAINS IC-TEXT AND PROCESSE     00352021
                                     260 *                     ALL BUT VERB-STRINGS WHICH ARE ROUTED TO PROP     00360021
                                     261 *                     VERB ANALYZERS.                                   00368021
                                     262 *              A-TEXT GENERATOR. HAS ENTRY POINTS FOR MOST MACHINE      00376021
                                     263 *                     INSTRUCTIONS AND BUILDS A-TEXT (PROCEDURE AND     00384021
                                     264 *                     OPTIMIZATION) BASED UPON VARIOUS PARAMETERS       00392021
                                     265 *                     PROVIDED IT BY THE CALLING ANALYZER OR SUBRTN     00400021
                                     266 *                     SUPPLEMENTAL TO THIS PORTION IS                   00408021
                                     267 *                     THE DIRECT-PROCEDURE-A-TEXT GENERATOR,            00416021
                                     268 *                     A SUBROUTINE.                                     00424021
                                     269 *              VERB-ANALYZERS. SEPERATE ANALYZERS OBTAIN STRINGS FO     00432021
                                     270 *                     THEIR PARTICULAR VERBS AND GENERATES A-TEXT       00440021
                                     271 *                     REPRESENTING OBJECT CODE FOR THE STATEMENT.       00448021
                                     272 *              SUBROUTINES. NUMEROUS SERVICE SUBROUTINES SUPPORT        00456021
                                     273 *                     ALL OTHER PARTS OF THE PHASE.                     00464021
                                     274 *              SUBSCRIPTS AND SUBSCRIPT REGISTER ALLOCATION ARE HAN     00472021
                                     275 *                     BY SEVERAL SUBROUTINES AND ANALYZERS.             00480021
                                     276 *              TAMER TABLE AND COMMON ARE COMMUNICATION REGIONS IN      00488021
                                     277 *                     MAIN-STORAGE THAT ARE USED FOR INTER-PHASE        00496021
                                     278 *                     INFORMATION-PASSING, AND ARE NOT PART OF PHAS     00504021
-
                                     280 *ENTRY POINTS:                                                          00520021
                                     281 *        'PH5     ' MAIN ENTRY POINT, CALLED BY 'PH0     '.             00528021
                                     282 *INPUT:              IC-TEXT   SYSUT2                                   00536021
                                     283 *                     COMMON    MAIN-STORAGE                            00544021
                                     284 *OUTPUT:             PROCEDURE A-TEXT   SYSUT1                          00552021
                                     285 *                     OPTIMIZATION A-TEXT SYSUT3                        00560021
                                     286 *                     E-TEXT (ERR MESG'S) SYSUT4                        00568021
                                     287 *                     COMMON              MAIN-STORAGE                  00576021
                                     288 *                     TABLE: PNUTBL       MAIN-STORAGE (TAMER)          00584021
                                     289 *EXTERNAL ROUTINES:                                                     00592021
                                     290 *        'PH0     '   CALLS THIS PHASE AND PROVIDES I/O, COMMON + T     00600021
                                     291 *                     SUPPORT.                                          00608021
                                     292 *EXITS-NORMAL:  N/A                                                     00616021
                                     293 *EXITS-ERROR:   N/A                                                     00624021
                                     294 *TABLES/WORK AREAS:    ... THOSE ITEMS THAT ARE VARIABLE OR MIXED       00632021
                                     295 *                          CONSTANT-VARIABLE ARE COLLECTED TOGETHER     00640021
                                     296 *                          IN AN AREA UNDER BASE REG XRDATA.            00648021
                                     297 *                      ... THOSE ITEMS THAT ARE NON-INSTRUCTIONS AN     00656021
                                     298 *                          FULLY CONSTANTS ARE COLLECTED UNDER BASE     00664021
                                     299 *                          REG XRCONS.                                  00672021
                                     300 *                                                                       00680021
                                     301 *ATTRIBUTES: NON-REUSABLE (DUE TO SOME NON-INITIALIZED SWITCHES).       00688021
                                     302 *NOTES: N/A                                                             00696021
1         PH5CTL - PHASE 5 CONTROL ROUTINE                                                                      PAGE    9
-  LOC  OBJECT CODE    ADDR1 ADDR2  STMT   SOURCE STATEMENT                                       ASM 0201 11.03 02/14/15
0                            00000   304        USING   COMON1,XRBAS1                                            00712021
                             00E30   305        USING   COMON2,RB1                                               00720021
                             01690   306        USING   COMON3,GBRG1                                             00728021
                             07590   307        USING   COMON4,XRCONS                                            00736021
                             080C8   308        USING   COMON5,XRDATA                                            00744021
                             00000   309        USING COS,XRBAS2                                                 00752021
                                     310 *                             PH5CTL                                    00760021
                                     311 *******************************************************************     00768021
                                     312 * CHECKS THE INPUT OF PHASE 5 TO DETERMINE WHETHER IT IS A 'STRING'     00776021
                                     313 * OR 'OTHER THAN A STRING'. PUTS 1ST 4 BYTES IN 'HEADER'.               00784021
                                     314 * I. IF THE INPUT IS A 'STRING' -                                       00792021
                                     315 *    A. THE STRING HEADER (A 3 BYTE FIELD) IS STORED IN 'HEADER'.       00800021
                                     316 *       'HEADER+1' IS CALLED 'ANALNO' (ANALYZER NUMBER).                00808021
                                     317 *       'HEADER+2' IS CALLED 'ELEMCT' (ELEMENT COUNT).                  00816021
                                     318 *    B. THE ELEMENTS IN THE STRING ARE PUT IN 'ELEMTB' (ELEMENT TAB     00824021
                                     319 *    C. AFTER ALL ELEMENTS IN A STRING HAVE BEEN STORED IN 'ELEMTB'     00832021
                                     320 *       CONTROL PASSES TO A STRING ANALYZER.                            00840021
                                     321 *    D. AFTER AN ANALYZER HAS PROCESSED THE ELEMENT TABLE CONTROL I     00848021
                                     322 *          RETURNED TO PH5CTL                                           00856021
                                     323 * II. IF THE INPUT IS 'OTHER THAN A STRING' -                           00864021
                                     324 *    A. IF THE INPUT IS A SECTION OR PARAGRAPH NAME IT IS WRITTEN O     00872021
                                     325 *       AND CONTROL IS RETURNED TO 'SEARCH'. (INPUT IS IN 'HEADER')     00880021
                                     326 *    B. IF THE INPUT IS 'EOF' A DUMP IS TAKEN AND PROCESSING IS END     00888021
                                     327 *    C. II(A) AND II(B) WILL BE SPECIFIED IN MORE DETAIL LATER.         00896021
                                     328 *******************************************************************     00904021
                                     329 *******************************************************************     00912021
                                     330 *                                                                       00920021
                                     331 *                                                                       00928021
                                     332 *                                                                       00936021
                                     333 *                                                                       00944021
1         IKFCBL50: PH5CTL - PHASE 50 CONTROL ROUTINE                                                           PAGE   10
-  LOC  OBJECT CODE    ADDR1 ADDR2  STMT   SOURCE STATEMENT                                       ASM 0201 11.03 02/14/15
000000A                              335 PH5CTL   DS    0H                                                       00960021
 00000A 9200 D67C      08744         336          MVI   CDNOSW,XX00                                              00968021
 00000E 45E0 70E8      000E8         337        BAL   RETRG,GETNXT    *LOCATE NEXT ELEMENT TO BE PROCESSED       00976021
 000012 D200 D678 2000 08740 00000   338          MVC   ASRLAS(LX1),DX0(RW2)    FOR AUTOMATIC STOP RUN           00984021
 000018 9584 2000      00000         339          CLI   DX0(RW2),XX84   TEST IF ELEMENT IS STRING HEADER         00992021
 00001C 4770 70BC      000BC         340          BNE   CTLCPY                  NO                               01000021
 000020 D203 D0D0 2000 08198 00000   341          MVC   HEADER(LX4),DX0(RW2) SAVE HEADER                         01008021
 000026 D713 D46C D46C 08534 08534   342          XC    XSID1(LX20),XSID1                                   7898 01016021
 00002C D200 D0B6 D0D1 0817E 08199   343          MVC   GANLNO(LX1),HEADER+NX1   SAVE ANALYZER NO                01024021
 000032 9539 D0B6      0817E         344          CLI   GANLNO,XX39         IS IT SUBSCRIPTED ITEM         40317 01032021
 000036 4770 704A      0004A         345          BNE   CTL501              NO,  BRANCH                    40317 01040021
 00003A 9539 CA61      07FF1         346          CLI   I3927,XX39          IS THIS THE FIRST SUBSCRIPTED  40317 01048021
 00003E 4780 705A      0005A         347          BE    CTL502          NO, IT IS SECOND TIME THEN BRANCH  40317 01056021
 000042 9239 CA61      07FF1         348          MVI   I3927,XX39          YES, INDICATE SUBSCRIPTED ITEM 40317 01064021
 000046 47F0 7060      00060         349          B     CTL503              YES  BRANCH                    40317 01072021
 00004A                              350 CTL501   DS    0H                                                 40317 01080021
 00004A 9527 D0B6      0817E         351          CLI   GANLNO,XX27         EXHIBIT ITEM                   40317 01088021
 00004E 4770 705A      0005A         352          BNE   CTL502              NO,  BRANCH                    40317 01096021
 000052 9227 CA62      07FF2         353          MVI   I3927+NX1,XX27      YES,  INDICATE EXHIBIT ITEM    40317 01104021
 000056 47F0 7060      00060         354          B     CTL503              THEN BRANCH                    40317 01112021
 00005A                              355 CTL502   DS    0H                                                 40317 01120021
 00005A D201 CA61 C850 07FF1 07DE0   356          MVC   I3927(LX2),XC000    SET TO ZEROS ONLY IF NO 39 OR 27     01128021
 000060                              357 CTL503   DS    0H                                                 40317 01136021
 000060 4140 D6BC      08784         358        LA    RW4,DOP1        *SET RW4 TO ADDRESS OF FIRST OPD AREA      01144021
 000064 1B55                         359        SR    RW5,RW5                                                    01152021
 000066 9570 2001      00001         360          CLI   DX1(RW2),XX70           SEGM VERB                        01160021
 00006A 4780 70A8      000A8         361          BE    PH5CT0                  YES                              01168021
 00006E 4350 D0D2      0819A         362          IC    RW5,HEADER+NX2  GET COUNT OF OPDS TO RW1                 01176021
 000072 1255                         363        LTR   RW5,RW5          TEST IF COUNT IS ZERO                     01184021
 000074 4780 70A8      000A8         364          BZ    PH5CT0                  YES, BYPASS LOOP                 01192021
                                     365 *                               NO, LOOP TO GET OPDS TO OPD AREAS       01200021
 000078 45E0 70E8      000E8         366 CTLLP  BAL   RETRG,GETNXT    *GET TO NEXT OPD                           01208021
 00007C 0630                         367        BCTR  RW3,RW0            DECR LENGTH BY 1 FOR EX INSTR           01216021
 00007E 4430 70B6      000B6         368        EX    RW3,CTLMVC       EX TO MOVE OPD FROM BUFFER TO OPD ARE     01224021
 000082 D501 CA61 CA63 07FF1 07FF3   369          CLC   I3927(LX2),XX3927   SUBSCRIPTED AND EXHIBIT ITEMS  40317 01232021
 000088 4770 709C      0009C         370          BNE   CTL504              BOTH ITEMS ARE NOT FOUND       40317 01240021
 00008C 9531 4000      00000         371          CLI   DX0(RW4),XX31       IS IS 31 ITEM - SUBSCRIPTED    40317 01248021
 000090 4770 709C      0009C         372          BNE   CTL504            NO, IT IS NOT                    40317 01256021
 000094 9230 4000      00000         373          MVI   DX0(RW4),XX30       YES,   CHANGE TO DATA ITEM     40317 01264021
 000098 9200 CA62      07FF2         374          MVI   I3927+NX1,XX00      RESET EXHIBIT INDICATOR        40317 01272021
 00009C                              375 CTL504   DS    0H                                                 40317 01280021
 00009C 45E0 8038      00E68         376        BAL   XRSUB,XIS31                UPDATE SUBSCRIPTED ITEM.        01288021
 0000A0 4144 007C      0007C         377        LA    RW4,OPSIZ(RW4)   STEP ADDR TO NEXT OPD AREA FOR NEXT E     01296021
 0000A4 4650 7078      00078         378        BCT   RW5,CTLLP        LOOP ON COUNT OF OPDS                     01304021
 0000A8 4350 D0B6      0817E         379 PH5CT0 IC    RW5,GANLNO     *PUT ANALYZER NUMBER IN REG                 01312021
 0000AC 8950 0002      00002         380          SLL   RW5,DX2         MULTIPLY BY 4 TO USE AS INDEX            01320021
 0000B0 5895 C194      07724         381        L     GVERB,ADCN00(RW5)     PICK UP ADCON                        01328021
 0000B4 07F9                         382          BR    GVERB                   GO TO ANALYZER                   01336021
 0000B6 D200 4000 2000 00000 00000   383 CTLMVC   MVC   DX0(LX0,RW4),DX0(RW2)                                    01344021
-
0
 0000BC 95C7 2000      00000         385 CTLCPY   CLI   DX0(RW2),PNDEF            IF NOT PN, GN, OR VN           01360021
1         IKFCBL50: PH5CTL - PHASE 50 CONTROL ROUTINE                                                           PAGE   11
-  LOC  OBJECT CODE    ADDR1 ADDR2  STMT   SOURCE STATEMENT                                       ASM 0201 11.03 02/14/15
00000C0 4780 70DC      000DC         386          BE    GOPUT                   YES                              01368021
 0000C4 9588 2000      00000         387          CLI   DX0(RW2),GNDEF                                           01376021
 0000C8 4780 70DC      000DC         388          BE    GNPROC              IF GN DEF, WRITE A TEXT              01384021
 0000CC 95C9 2000      00000         389          CLI   DX0(RW2),VNDEF                                           01392021
 0000D0 4780 70DC      000DC         390          BE    GNPROC                  YES                              01400021
 0000D4 95D4 2000      00000         391          CLI   DX0(RW2),DUMMYPN        IS IT DUMMY PN...           2962 01408021
 0000D8 4770 700A      0000A         392          BNE   PH5CTL                  NO                               01416021
                             000DC   393 GNPROC   EQU   *                                                        01424021
 0000DC 45E0 7DEC      00DEC         394 GOPUT    BAL   RETRG,KILSUB             KILL SUBS OPTIMIZATION TABL     01432021
 0000E0 4500 735A      0035A         395          BAL   RW0,WRITE2              WRITE DEF                        01440021
 0000E4 47F0 700A      0000A         396          B     PH5CTL              GET NEXT P2 TEXT                     01448021
1         IKFCBL50: PH5CTL - PHASE 50 CONTROL ROUTINE                                                           PAGE   12
-  LOC  OBJECT CODE    ADDR1 ADDR2  STMT   SOURCE STATEMENT                                       ASM 0201 11.03 02/14/15
0                                    398 * ROUTINE TO GET NEXT LOGICAL ELEMENT                                   01464021
 0000E8 50E0 D3DC      084A4         399 GETNXT ST    RETRG,GETSAV     SAVE RETURN ADDR                          01472021
 0000EC 5820 D0B0      08178         400 GET    L     RW2,PNTIN       *LOAD RW2 WITH ADDR OF CURRENT ELEMENT     01480021
 0000F0 4A20 D0AC      08174         401        AH    RW2,BYTCNT       ADD LENGTH OF CURRENT ELEMENT             01488021
 0000F4 5020 D0B0      08178         402        ST    RW2,PNTIN        SAVE ADDR OF NEW ELEMENT                  01496021
 0000F8 1B33                         403        SR    RW3,RW3                                                    01504021
 0000FA 4332 0001      00001         404 GET1     IC    RW3,DX1(RW2)   *GET COUNT IN CASE IT FOLLOWS CODE        01512021
 0000FE 91C0 2000      00000         405          TM    DX0(RW2),XXC0   TEST IF COUNT IN CODE OF FOLLOWING CO    01520021
 000102 4780 7110      00110         406          BZ    GET2                    COUNT FOLLOWS CODE               01528021
 000106 4332 0000      00000         407          IC    RW3,DX0(RW2)    GET COUNT AS INDICATED IN CODE. THIS     01536021
 00010A 8830 0006      00006         408          SRL   RW3,DX6           COUNT IS 1 LESS THAN COUNT FOR ENTI    01544021
 00010E 0630                         409        BCTR  RW3,RW0              ELEMENT. DECR BY 1 THEN ADD 2.        01552021
 000110 4133 0002      00002         410 GET2     LA    RW3,DX2(RW3)    ADD 2 TO COUNT TO GET COUNT FOR ENTIR    01560021
 000114 4030 D0B4      0817C         411        STH   RW3,BYTES          ELEMENT                                 01568021
 000118 4030 D0AC      08174         412        STH   RW3,BYTCNT       SAVE COUNT                                01576021
 00011C 91FF 2000      00000         413          TM    DX0(RW2),XXFF  *TEST IF ELEMENT IS END-OF-RCD MARKER     01584021
 000120 4710 719E      0019E         414          BO    GET5                    YES                              01592021
 000124 4780 7196      00196         415          BZ    GET9                    ERR MSG ELEMENT                  01600021
 000128 9537 2000      00000         416          CLI   DX0(RW2),MATEXT     LISTING A-TEXT                       01608021
 00012C 4780 71B6      001B6         417          BE    GET12               YES                                  01616021
 000130 9581 2000      00000         418          CLI   DX0(RW2),MCARD      IS ELEMENT A CARD NUMBER             01624021
 000134 4780 7184      00184         419          BE    GET7                    YES                              01632021
 000138 95C8 2000      00000         420          CLI   DX0(RW2),XXC8       SPECIAL FILE REF ELEMENT             01640021
 00013C 4780 7168      00168         421          BE    GET11               YES, COPY AS PROCEDURE A-TEXT        01648021
 000140 9542 2000      00000         422          CLI   DX0(RW2),XX42   TEST IF CRITICAL BREAK                   01656021
 000144 4770 717E      0017E         423          BNE   GET8                    NO                               01664021
 000148 950A 2001      00001         424          CLI   DX1(RW2),XX0A                                            01672021
 00014C 4770 7158      00158         425          BNE   GET10               NO                             7898  01680021
 000150 45E0 7DEC      00DEC         426        BAL   RETRG,KILSUB          KILL SUB OPTIMIZATION TBL            01688021
 000154 9601 D680      08748         427        OI    QRTNSW,MSWON          FLAG THAT Q-RTN'S HAVE STARTED       01696021
 000158                              428 GET10    DS    0H                                                  7898 01704021
 000158 4500 735A      0035A         429          BAL   RW0,WRITE2              WRITE BREAK                      01712021
 00015C 47F0 70EC      000EC         430          B     GET                     GOBACK                           01720021
 000160 45E0 7224      00224         431 GET6   BAL   RETRG,PUTA      *PUT ELEMENT                               01728021
 000164 47F0 70EC      000EC         432          B     GET                     GET NEXT P2 ELEMENT              01736021
 000168                              433 GET11    DS    0H                                                       01744021
 000168 D202 D335 2001 083FD 00001   434          MVC   FILEREF1(LX3),DX1(RW2)   MOVE DICT PTR FOR FILE          01752021
 00016E 4130 0008      00008         435          LA    RW3,LX8             COUNT OF ENTIRE ELEMENT              01760021
 000172 4120 D330      083F8         436          LA    RW2,FILEREF         ADDRESS OF TEXT                      01768021
 000176 4500 73AC      003AC         437          BAL   RW0,WRITP2          WRITE PROCEDURE A TEXT               01776021
 00017A 47F0 70EC      000EC         438          B     GET                 GET NEW ELEMENT                      01784021
 00017E 58E0 D3DC      084A4         439 GET8   L     RETRG,GETSAV    *EXIT                                      01792021
 000182 07FE                         440          BR    RETRG                   EXIT FROM PHASE 5                01800021
 000184 9201 D67C      08744         441 GET7     MVI   CDNOSW,XX01    *SET ON CARD NUMBER SWITCH                01808021
 000188 922C 2000      00000         442          MVI   DX0(RW2),XX2C   REPLACE CODE WITH ATEXT CODE             01816021
 00018C D201 A1EE 2001 001EE 00001   443          MVC   CARDNO(LX2),DX1(RW2)                                     01824021
 000192 47F0 7160      00160         444          B     GET6                    WRITE ATXT ELEMENT               01832021
                             00196   445 GET9     EQU   *                                                        01840021
 000196 45E0 721E      0021E         446 GET9A  BAL   RETRG,PUTMSG         PUT ERROR MESSAGE                     01848021
 00019A 47F0 70EC      000EC         447          B     GET                     GET NEXT P2 ELEMENT              01856021
 00019E 4500 734C      0034C         448 GET5   BAL   RW0,READ1      *READ NEXT RECORD                           01864021
 0001A2 4780 71BE      001BE         449          BZ    EOFIN                   TEST FOR EOF                     01872021
 0001A6 1820                         450        LR    RW2,RW0          PUT RCD ADDR IN RW2                       01880021
 0001A8 5020 D0B0      08178         451        ST    RW2,PNTIN        SAVE RCD ADDR                             01888021
 0001AC 1B33                         452        SR    RW3,RW3          ZERO RW3 (INDICATING NO BYTES PROCESS     01896021
1         IKFCBL50: PH5CTL - PHASE 50 CONTROL ROUTINE                                                           PAGE   13
-  LOC  OBJECT CODE    ADDR1 ADDR2  STMT   SOURCE STATEMENT                                       ASM 0201 11.03 02/14/15
00001AE 4030 D0AC      08174         453        STH   RW3,BYTCNT         ZERO BYTCNT FOR SAME REASON             01904021
 0001B2 47F0 70FA      000FA         454          B     GET1                    EXIT                             01912021
 0001B6 927C 2000      00000         455 GET12    MVI   DX0(RW2),XX7C       REPLACE A-TEXT CODE FOR PHASE 6      01920021
 0001BA 47F0 7160      00160         456          B     GET6                PUT ELEMENT                          01928021
-
0
                             001BE   458 EOFIN    EQU   *                                                        01944021
                             001BE   459 EOFFF    EQU   *                                                        01952021
 0001BE D501 A228 C886 00228 07E16   460          CLC   SUBCTR,XC0255       MORE THAN 255 SUBSCRIPT CELLS        01960021
 0001C4 47D0 71CE      001CE         461          BNH   EOFIN1                  NO                               01968021
 0001C8 45E0 7AC0      00AC0         462          BAL   XRSUB,ERRPRO        YES - SEND ERROR MESSAGE 16          01976021
 0001CC 10                           463          DC    AL1(ERRN16)                                              01984021
 0001CD 04                           464          DC    AL1(4)                                                   01992021
                             001CE   465 EOFIN1 EQU   *                                                          02000021
 0001CE 5810 C8F4      07E84         466        L     RW1,XAAVAL                                                 02008021
 0001D2 58F0 A138      00138         467        L     XRVAR,XTABL                                                02016021
 0001D6 05EF                         468        BALR  RETRG,XRVAR           RELEASE AVAIL TBL LIST               02024021
 0001D8 5810 C8FC      07E8C         469        L     RW1,XAINTR                                                 02032021
 0001DC 58F0 A138      00138         470        L     XRVAR,XTABL                                                02040021
 0001E0 05EF                         471        BALR  RETRG,XRVAR           RELEASE INT RES TBL LIST             02048021
 0001E2 5810 C904      07E94         472        L     RW1,XASCRP                                                 02056021
 0001E6 58F0 A138      00138         473        L     XRVAR,XTABL                                                02064021
 0001EA 05EF                         474        BALR  RETRG,XRVAR           RELEASE SUBSCRIPT TABLE              02072021
 0001EC 5810 C90C      07E9C         475        L     RW1,XASNT                                                  02080021
 0001F0 58F0 A138      00138         476        L     XRVAR,XTABL                                                02088021
 0001F4 05EF                         477        BALR  RETRG,XRVAR           RELEASE SUBS ID-TABLE                02096021
 0001F6                              478 NORERUNI DS    0H                                                       02104021
 0001F6 050A                         479        BALR  RW0,XRBAS2             RETURN TO PHASE0                    02112021
 0001F8 A0                           480        DC    X'A0'                                                      02120021
1         COMMON SUBROUTINES                                                                                    PAGE   14
-  LOC  OBJECT CODE    ADDR1 ADDR2  STMT   SOURCE STATEMENT                                       ASM 0201 11.03 02/14/15
00001F9 00
 0001FA 4810 A162      00162         482 PUTVIR LH    RW1,VIRCTR       STEP VIRCTR                               02136021
 0001FE 4111 0001      00001         483          LA    RW1,DX1(RW1)                                             02144021
 000202 4010 A162      00162         484        STH   RW1,VIRCTR                                                 02152021
 000206 4500 735A      0035A         485        BAL   RW0,WRITE2       PUT VIRDEF ELEMENT ON F2                  02160021
 00020A 07FE                         486          BR    RETRG                   RETURN TO CALLER                 02168021
-
0
 00020C 4810 A164      00164         488 PUTLTL LH    RW1,LTLCTR       STEP LTLCTR                               02184021
 000210 4111 0001      00001         489          LA    RW1,DX1(RW1)                                             02192021
 000214 4010 A164      00164         490        STH   RW1,LTLCTR                                                 02200021
 000218 050A                         491          BALR  RW0,XRBAS2              WRITE OPT A TEXT                 02208021
 00021A 13                           492          DC    X'13'                   FILE 3                           02216021
 00021B 00
 00021C 07FE                         493        BCR   UNCOND,RETRG          RETURN TO CALLER                     02224021
-
0
 00021E 4500 7378      00378         495 PUTMSG BAL   RW0,WRITE4            WRITE ERROR MESSAGE                  02240021
 000222 07FE                         496        BCR   UNCOND,RETRG          RETURN TO CALLER                     02248021
-
0
 000224 90E3 D3A4      0846C         498 PUTA   STM   RETRG,RW3,PUTSAV                                           02264021
 000228 4500 7396      00396         499 PUTA2    BAL   RW0,WRT2PA              WRITE PROC A TEXT ON FILE 2      02272021
 00022C 98E3 D3A4      0846C         500        LM    RETRG,RW3,PUTSAV                                           02280021
 000230 07FE                         501        BCR   UNCOND,RETRG     EXIT                                      02288021
 000232 4230 7247      00247         502 PH5AMV   STC   RW3,PH5ACD+NX1          STORE CT                         02296021
 000236 0630                         503          BCTR  RW3,RW0                 SUBT 1 FROM CT FOR EX            02304021
 000238 4430 7346      00346         504          EX    RW3,MVTEXT              MOVE TEXT                        02312021
 00023C 4120 7246      00246         505          LA    RW2,PH5ACD              ADDR OF TEXT                     02320021
 000240 4133 0003      00003         506          LA    RW3,DX3(RW3)            ADD 3 FOR TOTAL CT               02328021
 000244 07F1                         507          BR    RW1                     RETURN                           02336021
                                     508 *                                                                       02344021
 000246 0000                         509 PH5ACD   DC    2X'00'                  CODE                             02352021
 000248 0000000000000000             510 PH5ATX   DC    254X'00'                TEXT                             02360021
 000346 D200 7248 2000 00248 00000   511 MVTEXT   MVC   PH5ATX(LX0),DX0(RW2)                                     02368021
-
0
-
0
 00034C 5000 D3A0      08468         514 READ1  ST    RW0,WRITES                                                 02392021
1         COMMON SUBROUTINES                                                                                    PAGE   15
-  LOC  OBJECT CODE    ADDR1 ADDR2  STMT   SOURCE STATEMENT                                       ASM 0201 11.03 02/14/15
0000350 050A                         515        BALR  RW0,XRBAS2            BRANCH TO READ ROUTINE               02400021
 000352 01                           516          DC    X'01'                   READ P2 TEXT FROM FILE 1         02408021
 000353 00
 000354 5810 D3A0      08468         517        L     RW1,WRITES                                                 02416021
 000358 07F1                         518          BCR   R15,RW1                  RETURN TO CALLER                02424021
                                     519 *WRITE1 ST    RW0,WRITES                                                02432021
                                     520 *       BALR  0,10                                                      02440021
                                     521 *       DC    X'11'                                                     02448021
                                     522 *       L     RW1,WRITES                                                02456021
                                     523 *       BCR   15,RW1                                                    02464021
 00035A 5000 D3A0      08468         524 WRITE2 ST    RW0,WRITES                                                 02472021
 00035E 9023 D3A4      0846C         525          STM   RW2,RW3,PUTSAV                                           02480021
 000362 4510 7232      00232         526          BAL   RW1,PH5AMV              MOVE TEXT                        02488021
 000366 9227 7246      00246         527          MVI   PH5ACD,XX27             CODE FOR OPT ATEXT               02496021
 00036A 050A                         528          BALR  RW0,XRBAS2              WRITE                            02504021
 00036C 12                           529          DC    X'12'                   FILE 2                           02512021
                                     530 *DEL                                                                    02520021
 00036D 00
 00036E 9823 D3A4      0846C         531          LM    RW2,RW3,PUTSAV                                           02528021
 000372 5810 D3A0      08468         532        L     RW1,WRITES                                                 02536021
 000376 07F1                         533          BCR   R15,RW1                  RETURN TO CALLER                02544021
 000378 5000 D3A0      08468         534 WRITE4 ST    RW0,WRITES                                                 02552021
 00037C 9023 D3A4      0846C         535          STM   RW2,RW3,PUTSAV                                           02560021
 000380 4510 7232      00232         536          BAL   RW1,PH5AMV              MOVE TEXT                        02568021
 000384 9229 7246      00246         537          MVI   PH5ACD,XX29             CODE FOR ETEXT                   02576021
 000388 050A                         538          BALR  RW0,XRBAS2              WRITE                            02584021
 00038A 12                           539          DC    X'12'                   FILE 2                           02592021
 00038B 00
 00038C 9823 D3A4      0846C         540          LM    RW2,RW3,PUTSAV                                           02600021
 000390 5810 D3A0      08468         541        L     RW1,WRITES                                                 02608021
 000394 07F1                         542          BCR   R15,RW1                 RETURN                           02616021
 000396 5000 D3A0      08468         543 WRT2PA   ST    RW0,WRITES                                               02624021
 00039A 4510 7232      00232         544          BAL   RW1,PH5AMV              MOVE TEXT                        02632021
 00039E 9228 7246      00246         545          MVI   PH5ACD,XX28             MOVE CODE FOR PROC ATEXT         02640021
 0003A2 050A                         546          BALR  RW0,XRBAS2              WRITE ON                         02648021
 0003A4 12                           547          DC    X'12'                            FILE 2                  02656021
 0003A5 00
 0003A6 5810 D3A0      08468         548          L     RW1,WRITES                                               02664021
 0003AA 07F1                         549          BR    RW1                     RETURN                           02672021
 0003AC 5000 D3A0      08468         550 WRITP2   ST    RW0,WRITES                                               02680021
 0003B0 050A                         551          BALR  RW0,XRBAS2              WRITE                            02688021
 0003B2 12                           552          DC    X'12'                         FILE 2                     02696021
 0003B3 00
 0003B4 5810 D3A0      08468         553          L     RW1,WRITES                                               02704021
 0003B8 07F1                         554          BR    RW1                     RETURN                           02712021
 0003BA 1B55                         555 PH5BVB   SR    RW5,RW5                 CLEAR REG                        02720021
 0003BC 4350 D0B6      0817E         556        IC    RW5,GANLNO                GET VERB NO                      02728021
 0003C0 4110 7570      00570         557        LA    RW1,BYTE5B                                                 02736021
 0003C4 1A51                         558        AR    RW5,RW1                   ADDR OF FLAG BYTE FOR VERB       02744021
 0003C6 9180 5000      00000         559          TM    DX0(RW5),XX80            GO TO DFREER                    02752021
 0003CA 4780 73D2      003D2         560          BZ    BVB1                     NO                              02760021
 0003CE 45E0 87E0      01610         561          BAL   RETRG,DFREER             YES                             02768021
                             003D2   562 BVB1     EQU   *                        WRITE                           02776021
 0003D2 4120 D0D0      08198         563          LA    RW2,HEADER                    HEADER                     02784021
 0003D6 4130 0003      00003         564          LA    RW3,DX3                  LENGTH                          02792021
1         COMMON SUBROUTINES                                                                                    PAGE   16
-  LOC  OBJECT CODE    ADDR1 ADDR2  STMT   SOURCE STATEMENT                                       ASM 0201 11.03 02/14/15
00003DA 4500 73AC      003AC         565        BAL   RW0,WRITP2                WRITE HEADER                     02800021
 0003DE 9570 D0D1      08199         566          CLI   HEADER+NX1,XX70          SEGINT                          02808021
 0003E2 4780 700A      0000A         567        BE    PH5CTL                    YES                              02816021
 0003E6 4120 D6BC      08784         568          LA    RW2,DOP1                 GET ADDR OF DOP1                02824021
 0003EA 1B44                         569          SR    RW4,RW4                                                  02832021
 0003EC 1B33                         570          SR    RW3,RW3                                                  02840021
 0003EE 4340 D0D2      0819A         571          IC    RW4,HEADER+NX2            GET CT OF DOPS                 02848021
 0003F2 1244                         572        LTR   RW4,RW4                   NO DOPS                          02856021
 0003F4 4780 7422      00422         573        BZ    BVB16                     YES                              02864021
 0003F8 47F0 7400      00400         574          B     BVB2A                    GO GET CT                       02872021
 0003FC 4122 007C      0007C         575 BVB2     LA    RW2,OPSIZ(RW2)                                           02880021
 000400 4332 0001      00001         576 BVB2A    IC    RW3,DX1(RW2)              LENGTH OF DOP                  02888021
 000404 91C0 2000      00000         577          TM    DX0(RW2),XXC0            IS COUNT IN NEXT BYTE           02896021
 000408 4780 7416      00416         578        BZ    BVB20                     YES                              02904021
 00040C 4332 0000      00000         579          IC    RW3,DX0(RW2)             NO-GET COUNT FROM CODE          02912021
 000410 8830 0006      00006         580          SRL   RW3,DX6                                                  02920021
 000414 0630                         581        BCTR  RW3,RW0                    SUBT 1                          02928021
 000416 4133 0002      00002         582 BVB20    LA    RW3,DX2(RW3)             ADD 2 TO GET TOTAL COUNT        02936021
 00041A 4500 73AC      003AC         583        BAL   RW0,WRITP2                WRITE DOP                        02944021
 00041E 4640 73FC      003FC         584          BCT   RW4,BVB2                 BRANCH ON CT OF DOPS            02952021
 000422 9120 5000      00000         585 BVB16    TM    DX0(RW5),XX20            GO TO XSPRO                     02960021
 000426 4780 7472      00472         586          BZ    BVB3                     NO                              02968021
 00042A 9560 D0B6      0817E         587          CLI   GANLNO,XX60         SET VERB                       42034 02976021
 00042E 4770 7446      00446         588          BNE   BVB17               NO                             42034 02984021
 000432 4130 D6BC      08784         589          LA    RW3,DOP1                                           42034 02992021
 000436 9530 D6BC      08784         590          CLI   DOP1,XX30           DATANAME...                    42034 03000021
 00043A 4770 7446      00446         591          BNE   BVB17               NO                             42034 03008021
 00043E 9170 D6BF      08787         592          TM    DOP1+NX3,XX70       INDEX DATA-ITEM...             42034 03016021
 000442 47E0 74CE      004CE         593          BNO   BVB6                YES                            42034 03024021
 000446                              594 BVB17    DS    0H                                                 42034 03032021
 000446 951D D0B6      0817E         595          CLI   GANLNO,XX1D               MOVE VERB                      03040021
 00044A 4780 74CA      004CA         596          BE    BVB4                     YES                             03048021
 00044E 951E D0B6      0817E         597          CLI   GANLNO,XX1E               EXAMINE                        03056021
 000452 4780 74D6      004D6         598          BE    BVB5                     YES                             03064021
 000456 951F D0B6      0817E         599          CLI   GANLNO,XX1F               TRANSFORM                      03072021
 00045A 4780 74CA      004CA         600          BE    BVB4                     YES                             03080021
 00045E 952A D0B6      0817E         601          CLI   GANLNO,XX2A         RETURN...                            03088021
 000462 4770 700A      0000A         602          BNE   PH5CTL              NO                                   03096021
 000466 9521 D6BC      08784         603          CLI   DOP1,MSFN           SORT FILE NAME                       03104021
 00046A 4780 74CA      004CA         604          BE    BVB4                YES                                  03112021
 00046E 47F0 700A      0000A         605        B     PH5CTL                     EXIT                            03120021
 000472 9140 5000      00000         606 BVB3     TM    DX0(RW5),XX40            GO TO KILSUB                    03128021
 000476 4780 7482      00482         607          BZ    BVB7                     NO                              03136021
 00047A 45E0 7DEC      00DEC         608          BAL   RETRG,KILSUB             YES                             03144021
 00047E 47F0 700A      0000A         609        B     PH5CTL                    NO                               03152021
 000482 9108 5000      00000         610 BVB7     TM    DX0(RW5),XX08            KILSUB FOR SORT/OPEN/CLOSE      03160021
 000486 4780 74DE      004DE         611          BZ    BVB8                     NO                              03168021
 00048A 9536 D0B6      0817E         612          CLI   GANLNO,XX36               SORT                           03176021
 00048E 4780 74B8      004B8         613          BE    BVB10                    YES                             03184021
 000492 D501 D6BC C9B4 08784 07F44   614          CLC   DOP1(LX2),CBFRST          IS IT FIRST                    03192021
 000498 4770 700A      0000A         615        BNE   PH5CTL                    NO                               03200021
 00049C 9140 756F      0056F         616          TM    BVBSW,XX40                YES- IS IT ORIG FIRST          03208021
 0004A0 4710 74B0      004B0         617          BO    BVB9                     NO-IT IS DUPLICATE FIRST        03216021
 0004A4 9640 756F      0056F         618          OI    BVBSW,XX40                YES-TURN SWON                  03224021
 0004A8 45E0 7DEC      00DEC         619          BAL   RETRG,KILSUB             KILSUB                          03232021
1         COMMON SUBROUTINES                                                                                    PAGE   17
-  LOC  OBJECT CODE    ADDR1 ADDR2  STMT   SOURCE STATEMENT                                       ASM 0201 11.03 02/14/15
00004AC 47F0 700A      0000A         620        B     PH5CTL                    NO                               03240021
 0004B0 94BF 756F      0056F         621 BVB9     NI    BVBSW,XXBF                TURN SW OFF                    03248021
 0004B4 47F0 700A      0000A         622        B     PH5CTL                    NO                               03256021
 0004B8 D501 D6BC C9B4 08784 07F44   623 BVB10    CLC   DOP1(LX2),CBFRST          IS IT FIRST                    03264021
 0004BE 4770 700A      0000A         624        BNE   PH5CTL                    NO                               03272021
 0004C2 45E0 7DEC      00DEC         625          BAL   RETRG,KILSUB             KILL SUBSCRIPT TBL              03280021
 0004C6 47F0 700A      0000A         626        B     PH5CTL                    NO                               03288021
 0004CA 4130 D738      08800         627 BVB4   LA    RW3,DOP2             ALPHA MOVE TRANSFER.                  03296021
 0004CE 45E0 84CA      012FA         628 BVB6   BAL   RETRG,XSPRO                CHECK QRTNS                     03304021
 0004D2 47F0 7472      00472         629          B     BVB3                     CONTINUE                        03312021
 0004D6 4130 D830      088F8         630 BVB5   LA    RW3,DOP4                  EXAMINE                          03320021
 0004DA 47F0 74CE      004CE         631          B     BVB6                     CONTINUE                        03328021
 0004DE 9110 5000      00000         632 BVB8     TM    DX0(RW5),XX10            KILSUB FOR CALL/LINK/ENTRY      03336021
 0004E2 4780 74F4      004F4         633          BZ    BVB11                    NO                              03344021
 0004E6 D501 2000 C9B2 00000 07F42   634          CLC   DX0(LX2,RW2),CBEND        END                            03352021
 0004EC 4770 700A      0000A         635        BNE   PH5CTL                    NO                               03360021
 0004F0 45E0 7DEC      00DEC         636          BAL   RETRG,KILSUB             KILL SUBSCRIPT TBL              03368021
 0004F4 9104 5000      00000         637 BVB11    TM    DX0(RW5),XX04            KILSUB FOR READ-WRITE/REW       03376021
 0004F8 4780 700A      0000A         638          BZ    PH5CTL                   EXIT                            03384021
 0004FC 9520 D0B6      0817E         639          CLI   GANLNO,XX20              READ                            03392021
 000500 4780 752E      0052E         640          BE    BVB15                    YES                             03400021
 000504 D501 D830 C9C0 088F8 07F50   641          CLC   DOP4(LX2),ONZERO          WRITE/REWRITE-IS MOVE COMING   03408021
 00050A 4770 7516      00516         642          BNE   BVB12                    YES-BVB12                       03416021
 00050E 45E0 7DEC      00DEC         643 BVB14    BAL   RETRG,KILSUB             NO                              03424021
 000512 47F0 700A      0000A         644          B     PH5CTL                   EXIT                            03432021
 000516 9120 756F      0056F         645 BVB12    TM    BVBSW,XX20                IS IT FIRST STRING             03440021
 00051A 4710 7526      00526         646          BO    BVB13                    NO                              03448021
 00051E 9620 756F      0056F         647          OI    BVBSW,XX20                YES-TURN SW ON                 03456021
 000522 47F0 700A      0000A         648          B     PH5CTL                   EXIT                            03464021
 000526 94DF 756F      0056F         649 BVB13    NI    BVBSW,XXDF                TURN SW OFF                    03472021
 00052A 47F0 750E      0050E         650          B     BVB14                    GO TO KILSUB                    03480021
 00052E D501 D8AC C9C0 08974 07F50   651 BVB15    CLC   DOP5(LX2),ONZERO          IS MOVE COMING IN READ         03488021
 000534 4770 7516      00516         652          BNE   BVB12                    YES                             03496021
 000538 47F0 750E      0050E         653          B     BVB14                    NO                              03504021
 00053C 90E3 7554      00554         654 WRPH4G   STM   R14,RW3,XGGLO                                            03512021
 000540 4130 0003      00003         655          LA    RW3,DX3                  LENGTH                          03520021
 000544 4120 756C      0056C         656        LA    RW2,PH4GN                  ADDRESS                         03528021
 000548 4500 735A      0035A         657        BAL   RW0,WRITE2                 WRITE                           03536021
 00054C 98E3 7554      00554         658          LM    R14,RW3,XGGLO                                            03544021
 000550 07FE                         659        BR    RETRG                      RETURN                          03552021
 000554                              660 XGGLO    DS    6F                       SAVE AREA                       03560021
                             0000E   661 R14      EQU   14                                                       03568021
 00056C 880000                       662 PH4GN  DC    X'880000'                       PH4 GN DEF                 03576021
 00056F 00                           663 BVBSW    DC    X'00'                    SWITCH                          03584021
                                     664 *        BIT 0 SW IS PUT ON, IF READ        HAS 2 STRINGS               03592021
                                     665 *        BIT 1 SW IS PUT ON,FOR OPEN/CLOSE FIRST STRING OF FIRST GROUP  03600021
                                     666 *        BIT 2 SW IS PUT ON,FOR 1ST STRING READ/WRITE/REWRITE           03608021
                             00570   667 BYTE5B   EQU   *                                                        03616021
                                     668 *        BIT 0 DFREE (BEFORE WRITE OF STRING)                           03624021
                                     669 *            1 KILSUB                                                   03632021
                                     670 *            2 XSSPRO (AFTER WRITE OF STRING)                           03640021
                                     671 *            3 KILSUB AFTER END IN LAST STRING (CALL,LINK)              03648021
                                     672 *            4 KILSUB AFTER 1ST STRING (SORT/OPEN/CLOSE-DOP1=FIRST)     03656021
                                     673 *            5 KILSUB IF DOP 4 OR 5 = 0. IF #0, SET SW ON. TEST SW      03664021
                                     674 *              IF ON,TURN OFF, KILSUB. (READ/WRITE/REWRITE)             03672021
1         COMMON SUBROUTINES                                                                                    PAGE   18
-  LOC  OBJECT CODE    ADDR1 ADDR2  STMT   SOURCE STATEMENT                                       ASM 0201 11.03 02/14/15
0                                    675 *            6                                                          03680021
                                     676 *            7                                                          03688021
 000570 0000000000000000             677          DC    12X'00'                  VERBS                           03696021
 00057C 80808080                     678          DC    4X'80'                   PALFA,NALFA,PNUMRC,NNUMRC       03704021
 000580 40                           679          DC    X'40'                    STOP                            03712021
 000581 8080                         680          DC    2X'80'                   GO,GODEP1                       03720021
 000583 000000                       681          DC    3X'00'                   VERBS                           03728021
 000586 808080808080                 682          DC    6X'80'                  PEQNNU,NEQNNU,PGTNNU,NGTNNU,     03736021
                                     683 *                                      PLTNNU,NLTNNU                    03744021
 00058C 00                           684          DC    X'00'                    VERBS                           03752021
 00058D A0A0A0                       685          DC    3X'A0'                   MOVE,EXAMIN,TRANSFORM           03760021
 000590 84                           686        DC    X'84'                     READ                             03768021
 000591 88                           687          DC    X'88'                    OPEN                            03776021
 000592 88                           688        DC    X'88'                     CLOSE                            03784021
 000593 84                           689        DC    X'84'                     WRITE                            03792021
 000594 84                           690        DC    X'84'                     REWRITE                          03800021
 000595 C0                           691          DC    X'C0'                    ACCEPT                          03808021
 000596 80                           692          DC    X'80'                    DISPLAY                         03816021
 000597 80                           693          DC    X'80'                    EXHIBIT                         03824021
 000598 0000                         694          DC    2X'00'                   VERBS                           03832021
 00059A E0                           695          DC    X'E0'               RETURN                               03840021
 00059B 40                           696          DC    X'40'                    ON                              03848021
 00059C 40                           697        DC    X'40'                     ENTRY                            03856021
 00059D 90                           698        DC    X'90'                     CALL                             03864021
 00059E 00                           699          DC    X'00'                    VERBS                           03872021
 00059F 4040                         700          DC    2X'40'                   PROCESS/HOLD                    03880021
 0005A1 0000000000                   701          DC    5X'00'                   VERBS                           03888021
 0005A6 88                           702          DC    X'88'               SORT                                 03896021
 0005A7 40                           703          DC    X'40'                    RELEASE                         03904021
 0005A8 40                           704        DC    X'40'                     PERFORM                          03912021
 0005A9 00                           705        DC    X'00'                      VERBS                           03920021
 0005AA 90                           706          DC  X'90'                     LINK                             03928021
 0005AB 0000                         707          DC    2X'00'                   VERBS                           03936021
 0005AD 80                           708          DC    X'80'                    TRACE                           03944021
 0005AE 0000000000000000             709          DC    17X'00'                  VERBS                           03952021
 0005BF 40                           710          DC    X'40'                    RPTCAL                          03960021
 0005C0 0000000000000000             711          DC    12X'00'                  VERBS                           03968021
 0005CC 80                           712          DC    X'80'                    RPTORG                          03976021
 0005CD 0000                         713          DC    2X'00'                   VERBS                           03984021
 0005CF 00                           714          DC    X'00'                    VERBS                           03992021
 0005D0 C0                           715          DC    X'C0'               SET1                           60613 04000021
 0005D1 C0                           716        DC    X'C0'                     SET2UP                           04008021
 0005D2 00                           717          DC    X'00'                    FREE                            04016021
 0005D3 80                           718          DC    X'80'                    SEEK                            04024021
 0005D4 80                           719          DC    X'80'                    START                           04032021
 0005D5 A4                           720        DC    X'A4'                     READFUPD                         04040021
 0005D6 000000000000                 721          DC    6X'00'              INDEX COMPARES                 51894 04048021
 0005DC 00                           722          DC    X'00'                    VIRTDEF                         04056021
 0005DD 00                           723          DC    X'00'                    EQUSCHR                         04064021
 0005DE C0                           724        DC    X'C0'                     SET2DOWN                         04072021
 0005DF 80                           725          DC    X'80'                    SEGCAL                          04080021
 0005E0 00000000000000               726          DC    7X'00'                   VERBS                           04088021
                             003BA   727 PALFA    EQU   PH5BVB                                                   04096021
                             003BA   728 NALFA    EQU   PH5BVB                                                   04104021
                             003BA   729 PNUMRC EQU   PH5BVB                                                     04112021
1         COMMON SUBROUTINES                                                                                    PAGE   19
-  LOC  OBJECT CODE    ADDR1 ADDR2  STMT   SOURCE STATEMENT                                       ASM 0201 11.03 02/14/15
0                            003BA   730 NNUMRC   EQU   PH5BVB                                                   04120021
                             003BA   731 STOP     EQU   PH5BVB                                                   04128021
                             003BA   732 GO       EQU   PH5BVB                                                   04136021
                             003BA   733 GODEP1   EQU   PH5BVB                                                   04144021
                             003BA   734 GODEPM EQU   PH5BVB                                                     04152021
                             003BA   735 GODEPL   EQU   PH5BVB                                                   04160021
                             003BA   736 PEQNNU   EQU   PH5BVB                                                   04168021
                             003BA   737 NEQNNU   EQU   PH5BVB                                                   04176021
                             003BA   738 PGTNNU   EQU   PH5BVB                                                   04184021
                             003BA   739 NGTNNU   EQU   PH5BVB                                                   04192021
                             003BA   740 PLTNNU   EQU   PH5BVB                                                   04200021
                             003BA   741 NLTNNU   EQU   PH5BVB                                                   04208021
                             003BA   742 MOVE4    EQU   PH5BVB                                                   04216021
                             003BA   743 EXAMIN   EQU   PH5BVB                                                   04224021
                             003BA   744 TRANSF   EQU   PH5BVB                                                   04232021
                             003BA   745 READ     EQU   PH5BVB                                                   04240021
                             003BA   746 OPEN     EQU   PH5BVB                                                   04248021
                             003BA   747 CLOSE    EQU   PH5BVB                                                   04256021
                                     748 *DEL                                                                    04264021
                                     749 *DEL                                                                    04272021
                             003BA   750 ACCEPT   EQU   PH5BVB                                                   04280021
                             003BA   751 DISPLA   EQU   PH5BVB                                                   04288021
                             003BA   752 EXHIBI   EQU   PH5BVB                                                   04296021
                             003BA   753 RESET    EQU   PH5BVB                                                   04304021
                             003BA   754 READY    EQU   PH5BVB                                                   04312021
                             003BA   755 RETURN   EQU   PH5BVB                                                   04320021
                             003BA   756 ON       EQU   PH5BVB                                                   04328021
                             003BA   757 ENTRY    EQU   PH5BVB                                                   04336021
                             003BA   758 CALL     EQU   PH5BVB                                                   04344021
                             003BA   759 ENTER    EQU   PH5BVB                                                   04352021
                             003BA   760 PROCES   EQU   PH5BVB                                                   04360021
                             003BA   761 HOLDD    EQU   PH5BVB                                                   04368021
                             003BA   762 USE      EQU   PH5BVB                                                   04376021
                             003BA   763 EXIT     EQU   PH5BVB                                                   04384021
                             003BA   764 RPTNOP   EQU   PH5BVB                                                   04392021
                             003BA   765 SORT     EQU   PH5BVB                                                   04400021
                             003BA   766 RELEES   EQU   PH5BVB                                                   04408021
                             003BA   767 PERFOR   EQU   PH5BVB                                                   04416021
                             003BA   768 LINKK    EQU   PH5BVB                                                   04424021
                             003BA   769 ADEBUG   EQU   PH5BVB                                                   04432021
                             003BA   770 TRACE    EQU   PH5BVB                                                   04440021
                             003BA   771 EQUATE   EQU   PH5BVB                                                   04448021
                             003BA   772 QINITV   EQU   PH5BVB                                                   04456021
                             003BA   773 QINCRA   EQU   PH5BVB                                                   04464021
                             003BA   774 QSTEPV EQU   PH5BVB                                                     04472021
                             003BA   775 QUPDAT   EQU   PH5BVB                                                   04480021
                             003BA   776 USE5     EQU   PH5BVB                                                   04488021
                             003BA   777 ENDUS5   EQU   PH5BVB                                                   04496021
                             003BA   778 USE1     EQU   PH5BVB                                                   04504021
                             003BA   779 ENDUS1   EQU   PH5BVB                                                   04512021
                             003BA   780 USE3     EQU   PH5BVB                                                   04520021
                             003BA   781 ENDUS4   EQU   PH5BVB                                                   04528021
                             003BA   782 QCALLV EQU   PH5BVB                                                     04536021
                             003BA   783 QRET2V   EQU   PH5BVB                                                   04544021
                             003BA   784 QRETUV   EQU   PH5BVB                                                   04552021
1         COMMON SUBROUTINES                                                                                    PAGE   20
-  LOC  OBJECT CODE    ADDR1 ADDR2  STMT   SOURCE STATEMENT                                       ASM 0201 11.03 02/14/15
0                            003BA   785 RPTCAL   EQU   PH5BVB                                                   04560021
                             003BA   786 RPTSV    EQU   PH5BVB                                                   04568021
                             003BA   787 RPTRET EQU   PH5BVB                                                     04576021
                             003BA   788 RPTORG   EQU   PH5BVB                                                   04584021
                             003BA   789 SEGINT   EQU   PH5BVB                                                   04592021
                             003BA   790 RPTRRG   EQU   PH5BVB                                                   04600021
                             003BA   791 SET1     EQU   PH5BVB                                                   04608021
                             003BA   792 SET2UP   EQU   PH5BVB                                                   04616021
                             003BA   793 FREE     EQU   PH5BVB                                                   04624021
                             003BA   794 SEEK     EQU   PH5BVB                                                   04632021
                             003BA   795 START    EQU   PH5BVB                                                   04640021
                             003BA   796 READFUPD EQU   PH5BVB                                                   04648021
                             003BA   797 VIRTDEF EQU  PH5BVB                                                     04656021
                             003BA   798 SET2DOWN EQU   PH5BVB                                                   04664021
                             003BA   799 SEGCAL   EQU   PH5BVB                                                   04672021
                             003BA   800 READCHCK EQU   PH5BVB                                                   04680021
                             003BA   801 GOBACK   EQU   PH5BVB                                                   04688021
                             003BA   802 EXITPGM  EQU   PH5BVB                                                   04696021
                             003BA   803 CHCKPNT  EQU   PH5BVB                                                   04704021
                                     804 *DEL                                                               5189 04712021
                             003BA   805 WRITCHCK EQU   PH5BVB                                                   04720021
                             003BA   806 BEGRPD EQU   PH5BVB                                                     04728021
                             003BA   807 POVFLO EQU   PH5BVB                                                     04736021
                                     808 *DEL                                                               5189 04744021
                                     809 *DEL                                                               5189 04752021
                                     810 *DEL                                                               5189 04760021
                                     811 *DEL                                                               5189 04768021
                                     812 *DEL                                                               5189 04776021
                                     813 *DEL                                                               5189 04784021
1         COMMON SUBROUTINES                                                                                    PAGE   21
-  LOC  OBJECT CODE    ADDR1 ADDR2  STMT   SOURCE STATEMENT                                       ASM 0201 11.03 02/14/15
0                                    815 * THIS ROUTINE WILL INITIALIZE THE GENERAL REGISTER TABLES              04800021
                                     816 *     ENTRY POINTS - 1) XINITM - WILL INITIALIZE REGARDLESS             04808021
                                     817 *                               OF ANYTHING                             04816021
                                     818 *                    2) XINITN - WILL INITIALIZE IF NOT USED            04824021
                                     819 *                               FOR SUBSCRIPT COMPUTATIONS              04832021
0
 0005E8                              821 XINITM   DS    0H                                                       04848021
 0005E8 9200 D480      08548         822          MVI   XXXYY,XX00      SET XXXYY = 0                            04856021
 0005EC 47F0 75F4      005F4         823        B     XINIT1           BEGIN                                     04864021

                             005F0   825 XINITN EQU   *                                                          04880021
 0005F0 9201 D480      08548         826          MVI   XXXYY,XX01      SET XXXYY = 1                            04888021
                             005F4   827 XINIT1 EQU   *                                                          04896021
 0005F4 900F C4C8      07A58         828        STM   XR0,XR15,XGSAV4                                            04904021
 0005F8 4160 D628      086F0         829        LA    XR6,XRAUR2       XR6 HAS @FIRST GEN REG TBL R3             04912021
 0005FC 4150 D650      08718         830        LA    XR5,XRAU14       XR5 HAS @LAST GEN REG TBL R0              04920021
                             00600   831 XINIT2 EQU   *                                                          04928021
 000600 9500 D480      08548         832          CLI   XXXYY,XX00      INIT REGARDLESS OF SUBSCRIPTS            04936021
 000604 4780 7610      00610         833        BE    XINIT4           YES                                       04944021
 000608 9120 6002      00002         834          TM    DX2(XR6),XRSUBS NO, IS REG USED FOR SUBSCRIPTS           04952021
 00060C 4710 7616      00616         835        BO    XINIT3           YES, DO NOT INIT                          04960021
                             00610   836 XINIT4 EQU   *                                                          04968021
 000610 D202 6000 C850 00000 07DE0   837          MVC   DX0(LX3,XR6),XC000      SET IRN = FLAG BYTE = 0          04976021
                             00616   838 XINIT3 EQU   *                                                          04984021
 000616 4166 0008      00008         839        LA    XR6,XRNEXI(XR6)  INCREMENT TO NEXT TBL                     04992021
 00061A 1965                         840        CR    XR6,XR5          ARE ALL TBLS INIT                         05000021
 00061C 47D0 7600      00600         841        BNH   XINIT2           NO                                        05008021
 000620 980F C4C8      07A58         842        LM    XR0,XR15,XGSAV4  YES,                                      05016021
 000624 07FE                         843        BR    XRSUB            RETURN                                    05024021
-
0
                                     845 * THIS ROUTINE WILL INITIALIZE THE FLOATING POINT REGISTER TABLES       05040021
                                     846 *     ENTRY POINT - XINITF                                              05048021
0
                             00626   848 XINITF EQU   *                                                          05064021
 000626 900F C4C8      07A58         849        STM   XR0,XR15,XGSAV4                                            05072021
 00062A 4160 D3E8      084B0         850        LA    XR6,FPRTB2       XR6 HAS @FIRST FL PT REG TBL R2           05080021
 00062E 4120 D408      084D0         851        LA    XR2,FPRTBD       XR2 HAS @END OF FL PT REG TBLS            05088021
                             00632   852 XINITG EQU   *                                                          05096021
 000632 D402 6000 C8B7 00000 07E47   853          NC    DX0(LX3,XR6),XREMK6     IRN = 0 FLAGBYTE = FLPTREG       05104021
 000638 4166 0008      00008         854        LA    XR6,XRNEXI(XR6)  INCREMENT TO NEXT TBL                     05112021
 00063C 1962                         855        CR    XR6,XR2          ARE ALL TBLS INIT                         05120021
 00063E 47D0 7632      00632         856        BNH   XINITG           NO                                        05128021
 000642 980F C4C8      07A58         857        LM    XR0,XR15,XGSAV4  YES,                                      05136021
 000646 07FE                         858        BR    XRSUB            RETURN                                    05144021
1         COMMON SUBROUTINES                                                                                    PAGE   22
-  LOC  OBJECT CODE    ADDR1 ADDR2  STMT   SOURCE STATEMENT                                       ASM 0201 11.03 02/14/15
0                                    860 * THIS ROUTINE WILL CALCULATE THE NUMBER OF DIGITS AND LENGTH OF        05160021
                                     861 *     THE OPERAND IN XR5 BOTH IN BINARY AND INTERNAL DECIMAL            05168021
                                     862 *     ENTRY POINT - XIDSZ                                               05176021
0
                             00648   864 XIDSZ  EQU   *                                                          05192021
 000648 900F C548      07AD8         865        STM   XR0,XR15,XGSAV6                                            05200021
 00064C D205 D450 C850 08518 07DE0   866          MVC   XIDBY(LX6),XC000   SET XIDBY = XBDBY = XIDDN = 0         05208021
 000652 1B44                         867        SR    XR4,XR4                                                    05216021
                                     868 *                                                                       05224021
                                     869 **************************** CAUTION ****************************       05232021
                                     870 ********************* THIS IS A REVERSE TRT *********************       05240021
                                     871 ******** XITAB IS THE ARGUMENT. 0(XR5) IS THE FUNCTION. *********       05248021
                                     872 *                                                                       05256021
 000654 DD0F C83E 5000 07DCE 00000   873          TRT   XITAB(LX16),DX0(XR5)  SEARCH FO FIRST NONZERO BYTE       05264021
                                     874 *                                                                       05272021
 00065A 4341 0000      00000         875          IC    XR4,DX0(XR1)              XR4 HAS RELATIVE ADDRESS       05280021
 00065E 1344                         876        LCR   XR4,XR4                    OF FIRST NON ZERO BYTE          05288021
 000660 4A40 C876      07E06         877        AH    XR4,XC016           XIDBY = # BYTES NEEDED TO              05296021
 000664 4040 D450      08518         878        STH   XR4,XIDBY                  CONTAIN NUMBER IF ID            05304021

 000668 8B40 0001      00001         880          SLA   XR4,DX1            CALCULATE XIDDN                       05320021
 00066C 0640                         881        BCTR  XR4,RW0             XIDDN = XIDBY * 2 - 1                  05328021
                                     882 *                                                                       05336021
 00066E 5420 C8A0      07E30         883        N     XR2,XIMK1   DOES 1ST NON-ZERO BYTE HAVE LEADING ZERO       05344021
 000672 4770 7678      00678         884        BNZ   XID02            NO                                        05352021
 000676 0640                         885        BCTR  XR4,RW0             YES, XIDDN = XIDDN - 1                 05360021
                             00678   886 XID02  EQU   *                                                          05368021
 000678 4040 D454      0851C         887        STH   XR4,XIDDN           XIDDN = # OF DIGITS NUMBER HAS         05376021

                                     889 * CALCULATE BINARY SIZE - WHETHER A HALFWORD, FULLWORD, OR              05392021
                                     890 *                        DOUBLEWORD IS NEEDED.                          05400021

 00067C 4315 000F      0000F         892          IC    XR1,DX15(XR5)      SAVE SIGN                             05416021
 000680 960F 500F      0000F         893          OI    DX15(XR5),XX0F     MAKE SURE SIGN IS POSITIVE            05424021

 000684 9202 D453      0851B         895          MVI   XBDBY+NX1,XX02     XBDBY = HALFWORD                      05440021
 000688 F9F2 5000 C3C2 00000 07952   896          CP    DX0(LX16,XR5),XIHAF(LX3) IS NO GE 32767...               05448021
 00068E 47D0 76B2      006B2         897        BNH   XIDXIT              YES, RETURN                            05456021

 000692 9204 D453      0851B         899          MVI   XBDBY+NX1,XX04     XBDBY = FULLWORD                      05472021
 000696 F9F5 5000 C3CE 00000 0795E   900          CP    DX0(LX16,XR5),XI1WO(LX6) IS NO LE2,147,483,647...        05480021
 00069C 47D0 76B2      006B2         901        BNH   XIDXIT              YES, RETURN                            05488021

 0006A0 9208 D453      0851B         903          MVI   XBDBY+NX1,XX08     XBDBY = DOUBLEWORD                    05504021
 0006A4 F9F9 5000 C812 00000 07DA2   904          CP    DX0(LX16,XR5),XI2WO(LX10) IS NO LE9223372036854775807    05512021
 0006AA 47D0 76B2      006B2         905        BNH   XIDXIT              YES, RETURN                            05520021

 0006AE 92FF D453      0851B         907        MVI   XBDBY+NX1,XXFF        NO, NUMBER TOO LARGE                 05536021
0
                             006B2   909 XIDXIT EQU   *                                                          05552021
 0006B2 4215 000F      0000F         910          STC   XR1,DX15(XR5)      RESET SIGN                            05560021
 0006B6 980F C548      07AD8         911        LM    XR0,XR15,XGSAV6                                            05568021
 0006BA 07FE                         912        BR    XRSUB            RETURN                                    05576021
1         COMMON SUBROUTINES                                                                                    PAGE   23
-  LOC  OBJECT CODE    ADDR1 ADDR2  STMT   SOURCE STATEMENT                                       ASM 0201 11.03 02/14/15
0                                    914 *      XT000   -DECIDE IF INTEGER OR DECIMAL PLACES HAVE TO BE          05592021
                                     915 *              -TRUNCATED.                                              05600021
                                     916 *              -    INPUT  NUMBER OF INTEGER OF RESULT IN XTINI         05608021
                                     917 *                             -    - DECIMAL  -   -    -  XTDEC.        05616021
                                     918 *              -    OUTPUT'                                             05624021
                                     919 *                          NUMBER OF INTEGER TO BE TRUNCATED IN XTI     05632021
                                     920 *                             -    - DECIMAL  -  -    -       - XTD     05640021
                                     921 *                                                                       05648021
                                     922 *              -    XRDMX CONTAINS DMAX MAXIMUM OF DECIMAL PLACES O     05656021
                                     923 *                   SOURCE FIELD FOR THAT STATEMENT.                    05664021
-
0
 0006BC 900F C548      07AD8         925 XT000    STM   XR0,XR15,XGSAV6                                          05680021
 0006C0 D203 D44C C850 08514 07DE0   926          MVC   XTDDD(LX4),XC000          RESET OUTPUT CELLS TO 0.       05688021
 0006C6 4840 D45C      08524         927        LH    XR4,XTDEC                                                  05696021
 0006CA 4940 D43E      08506         928        CH    XR4,XRDMX                                                  05704021
 0006CE 4720 76E4      006E4         929        BC    XTWO,XT001            DEC IN RESULT > DMAX                 05712021
 0006D2 4A40 D45E      08526         930        AH    XR4,XTINI                  DEC LESS THAN DMAX.             05720021
                                     931 *            TRUNCATE DEC + I - 30 INTEGERS.                            05728021
 0006D6 4B40 C87E      07E0E         932 XT004  SH    XR4,XC030                  AND 0 DEC.                      05736021
 0006DA 4040 D44E      08516         933        STH   XR4,XTIII                  X                               05744021
0
 0006DE 980F C548      07AD8         935 XTXIT    LM    XR0,XR15,XGSAV6     EXIT                                 05760021
 0006E2 07FE                         936        BCR   UNCON,XRSUB           RETURN                               05768021
0
 0006E4 4850 D45E      08526         938 XT001  LH    XR5,XTINI                  DEC GREATER THAN DMAX.          05784021
 0006E8 4A50 D43E      08506         939        AH    XR5,XRDMX                                                  05792021
 0006EC 4950 C87E      07E0E         940        CH    XR5,XC030                                                  05800021
 0006F0 4720 7704      00704         941        BC    XTWO,XT003            DMAX+1 > 30                          05808021
 0006F4 4A40 D45E      08526         942        AH    XR4,XTINI                  DMAX +I LESS THAN 30.           05816021
 0006F8 4B40 C87E      07E0E         943        SH    XR4,XC030                  TRUNCATE  I+DMAX-30 DECIMAL     05824021
 0006FC 4040 D44C      08514         944        STH   XR4,XTDDD                  AND 0 INTEGER.                  05832021
 000700 47F0 76DE      006DE         945        BC    UNCON,XTXIT                X                               05840021
0
 000704 4B40 D43E      08506         947 XT003  SH    XR4,XRDMX                  DMAX+1 GREATER THAN 30          05856021
 000708 4040 D44C      08514         948        STH   XR4,XTDDD                    TRUNCATE  DMAX-DEC DECIMA     05864021
 00070C 4840 D45E      08526         949        LH    XR4,XTINI                    AND  I+DMAX-30 INTEGERS.      05872021
 000710 4A40 D43E      08506         950        AH    XR4,XRDMX                  X                               05880021
 000714 47F0 76D6      006D6         951        BC    UNCON,XT004           SET XTIII                            05888021
1         COMMON SUBROUTINES                                                                                    PAGE   24
-  LOC  OBJECT CODE    ADDR1 ADDR2  STMT   SOURCE STATEMENT                                       ASM 0201 11.03 02/14/15
-
-
 000718 4813 0026      00026         954 XADJCT LH    XR1,Y1ALP(XR3)             UPDATE XR3 OPERAND DUE TO O     05912021
 00071C 1B12                         955        SR    XR1,XR2                    =FLOW IN SCALING XR5 RESULT     05920021
 00071E 4013 0026      00026         956        STH   XR1,Y1ALP(XR3)             IN THE DROPPING OF DECIMAL      05928021
 000722 4813 0024      00024         957        LH    XR1,Y1DBS(XR3)             PLACES.                         05936021
 000726 1B12                         958        SR    XR1,XR2                    X                               05944021
 000728 4013 0016      00016         959        STH   XR1,Y1DAS(XR3)             X                               05952021
 00072C 4813 0022      00022         960        LH    XR1,Y1FBS(XR3)             X                               05960021
 000730 1B12                         961        SR    XR1,XR2                    X                               05968021
 000732 4740 7748      00748         962        BC    XONE,XADJC1           DIGITS CANNOT BE < 0                 05976021
                             00736   963 XADJC2 EQU   *                                                          05984021
 000736 4013 0014      00014         964        STH   XR1,Y1FAS(XR3)             X                               05992021
 00073A 8A10 0001      00001         965          SRA   XR1,DX1                   X                              06000021
 00073E 4111 0001      00001         966          LA    XR1,DX1(XR1)              X                              06008021
 000742 4013 0010      00010         967        STH   XR1,Y1LAS(XR3)             X                               06016021
 000746 07FE                         968        BCR   UNCON,XRSUB                RETURN                          06024021
 000748 1B11                         969 XADJC1 SR    XR1,XR1                                                    06032021
 00074A 47F0 7736      00736         970        BC    UNCON,XADJC2          SET NUMBER OF DIGITS                 06040021
-
0
                                     972 *      XSCAL   -MULTIPLICATION BY SCALING POWER OF TEN  AT COMPILE      06056021
                                     973 *              -TIME ARITHMETIC                                         06064021
-
0
 00074E 900F C4C8      07A58         975 XSCAL    STM   XR0,XR15,XGSAV4                                          06080021
0
 000752 4815 0026      00026         977        LH    XR1,Y1ALP(XR5)             COMPUTE MAX.NUMBER OF DIGIT     06096021
 000756 1211                         978        LTR   XR1,XR1                                                    06104021
 000758 4740 77AA      007AA         979        BC    XONE,XSCALN                SCALING FACTOR IS  MINUS .      06112021
 00075C 4780 7780      00780         980        BC    XZERO,XSC02           SCALING FACTOR IS ZERO               06120021
 000760 4A15 0022      00022         981        AH    XR1,Y1FBS(XR5)             THE PRODUCT.                    06128021
 000764 4910 C87E      07E0E         982        CH    XR1,XC030                  X                               06136021
 000768 4720 7790      00790         983        BC    XTWO,XSC00                 MORE THAN 30 - OVERFLOW.        06144021
 00076C 4825 0026      00026         984        LH    XR2,Y1ALP(XR5)                                             06152021
 000770 FCF0 5000 C810 00000 07DA0   985 XSC01    MP    DX0(LX16,XR5),XIDCNQ(LX1)                                06160021
 000776 FAFF 5000 5000 00000 00000   986          AP    DX0(LX16,XR5),DX0(LX16,XR5)                              06168021
 00077C 4620 7770      00770         987        BCT   XR2,XSC01                  WHEN FALL THRU COMPILE          06176021
                                     988 *                                       TIME SCALING IS FINISHED.       06184021
0
 000780 45E0 7648      00648         990 XSC02  BAL   XRSUB,XIDSZ                COMPUTE SIZES OF SCALED OPE     06200021
 000784 D205 5010 D450 00010 08518   991          MVC   Y1LAS(LX6,XR5),XIDBY      X                              06208021
1         COMMON SUBROUTINES                                                                                    PAGE   25
-  LOC  OBJECT CODE    ADDR1 ADDR2  STMT   SOURCE STATEMENT                                       ASM 0201 11.03 02/14/15
000078A 980F C4C8      07A58         993 XSCEXT   LM    XR0,XR15,XGSAV4     EXIT                                 06224021
 00078E 07FE                         994        BCR   UNCON,XRSUB                X                               06232021
0
 000790 9602 501D      0001D         996 XSC00    OI    Y1IRX+NX1(XR5),XGOVFL     OVERFLOW - SET SWITCH .        06248021
 000794 D701 D45E D45E 08526 08526   997          XC    XTINI(LX2),XTINI                                         06256021
 00079A 4B15 0016      00016         998        SH    XR1,Y1DAS(XR5)             SET NUMBER OF INTEGER OF OV     06264021
 00079E 4740 778A      0078A         999        BC    XONE,XSCEXT           IF NEGATIVE, RETURN                  06272021
 0007A2 4010 D45E      08526        1000        STH   XR1,XTINI                  FLOWED RESULT FOR TRUNCATIO     06280021
                                    1001 *                                       ROUTINE.                        06288021
 0007A6 47F0 778A      0078A        1002        BC    UNCON,XSCEXT          RETURN                               06296021
 0007AA 1011                        1003 XSCALN LPR   XR1,XR1                                                    06304021
 0007AC 9101 5027      00027        1004          TM    Y1ALP+NX1(XR5),XX01       NUMBER OF DIGIT TO BE DROPP    06312021
 0007B0 4710 77BC      007BC        1005        BC    XTHRE,XSC03                IS ODD                          06320021
 0007B4 F1FE 5000 5000 00000 00000  1006          MVO   DX0(LX16,XR5),DX0(LX15,XR5) IF IT IS EVEN DO AN EXTRA MV 06328021
 0007BA 0610                        1007        BCTR  XR1,RW0                      TO DROP ONE DIGIT.            06336021
 0007BC 4111 0001      00001        1008 XSC03    LA    XR1,DX1(XR1)              X                              06344021
 0007C0 8A10 0001      00001        1009          SRA   XR1,DX1                   X                              06352021
 0007C4 1111                        1010        LNR   XR1,XR1                    X   DROP DIGIT WITH AN MVO.     06360021
 0007C6 4A10 C876      07E06        1011        AH    XR1,XC016                  X                               06368021
 0007CA 0610                        1012        BCTR  XR1,RW0               SUBTRACT 1 FOR EXECUTE STATEMENT     06376021
 0007CC 4410 77D4      007D4        1013        EX    XR1,XSCMVO                 X                               06384021
 0007D0 47F0 7780      00780        1014        BC    UNCON,XSC02                X                               06392021
 0007D4                             1015        DS    0H                         X                               06400021
 0007D4 F1F0 5000 5000 00000 00000  1016 XSCMVO   MVO   DX0(LX16,XR5),DX0(LX0,XR5) X                             06408021
1         COMMON SUBROUTINES                                                                                    PAGE   26
-  LOC  OBJECT CODE    ADDR1 ADDR2  STMT   SOURCE STATEMENT                                       ASM 0201 11.03 02/14/15
0                                   1018 *      XZLOGB  - SET  A-TEXT BUFFER  FOR A LOGICAL OPERATION WITH T     06424021
                                    1019 *                BINARY OPERANDS.                                       06432021
                                    1020 *                                                                       06440021
                                    1021 *      XZLOGD  - SET A-TEXT BUFFER FOR A LOGICAL OPERATION WITH TWO     06448021
                                    1022 *                ID OPERANDS.                                           06456021
                                    1023 *                                                                       06464021
                                    1024 *      XZBINB  - SET A-TEXT BUFFER FOR A BINARY OPERATION BEFORE SC     06472021
                                    1025 *                OF OPERANDS.                                           06480021
                                    1026 *                                                                       06488021
                                    1027 *      XZBINA  - IDENTICAL TO XZBINB FOR SCALED OPERANDS.               06496021
                                    1028 *                                                                       06504021
                                    1029 *                                                                       06512021
                                    1030 *      XZSIDB  - IDENTICAL TO XZBINB FOR ID OPERATION.                  06520021
                                    1031 *                                                                       06528021
                                    1032 *      XZSIDA  - IDENTICAL TO XZBINB FOR ID OPERATION.                  06536021
                                    1033 *                                                                       06544021
                                    1034 *      XZNLB   - SET A-TEXT BUFFER FOR BI.OPERATION WITH LENGHT OF      06552021
                                    1035 *                OPERAND GIVEN IN XZLENG.                               06560021
                                    1036 *                                                                       06568021
                                    1037 *                FOR ALL THE PRECEEDING ROUTINES INFORMATION BUFFER     06576021
                                    1038 *                ADDRESSES ARE IN XR3 AND XR5.                          06584021
                                    1039 *                AND IF                                                 06592021
                                    1040 *                       XR5=-1    2ND OPER. = CONSTANT IN XCON(16)      06600021
                                    1041 *                                                                       06608021
                                    1042 *                       XR5=-3    2ND OPER. =CONSTANT IN IR  OR TEM     06616021
                                    1043 *                                                                       06624021
                                    1044 *                       XR5=-2    1ST OPER  =CONSTANT IN IR .           06632021
                                    1045 *                                                                       06640021
                                    1046 *                       XR5=-4    1ST OPER  =CONSTANT IN XCON(16).      06648021
                                    1047 *                                                                       06656021
                                    1048 *                       XR5=-5    1ST OPER  =CONSTANT IN TEMP.          06664021
                                    1049 *                                                                       06672021
                                    1050 *                       IF THE CONSTANT IS IN IR OR TEMP, XREGI OR      06680021
                                    1051 *                       IS SUPPOSED TO BE SET BEFORE THE CALL.          06688021
                                    1052 *                       XZNLB CAN BE USED ONLY WITH XR5 SET TO ONE      06696021
                                    1053 *                       THOSE MINUS VALUE.                              06704021
-
0
 0007DA 9204 D488      08550        1055 FPSETA   MVI   XZSWT,XX04                FLOATING POINT OPERANDS.       06720021
 0007DE 47F0 781E      0081E        1056        BC    UNCON,XZDB0           BRANCH TO XSSBG2                     06728021
0
 0007E2 920B D488      08550        1058 XZLOGB   MVI   XZSWT,XX0B                SET ENTRY POINTS.              06744021
 0007E6 47F0 781E      0081E        1059        BC    UNCON,XZDB0                X                               06752021
0
 0007EA 920A D488      08550        1061 XZLOGD   MVI   XZSWT,XX0A                X                              06768021
 0007EE 47F0 781E      0081E        1062        BC    UNCON,XZDB0                X                               06776021
0
 0007F2 9201 D488      08550        1064 XZBINB   MVI   XZSWT,XX01                X                              06792021
 0007F6 47F0 781E      0081E        1065        BC    UNCON,XZDB0                X                               06800021
1         COMMON SUBROUTINES                                                                                    PAGE   27
-  LOC  OBJECT CODE    ADDR1 ADDR2  STMT   SOURCE STATEMENT                                       ASM 0201 11.03 02/14/15
00007FA 9209 D488      08550        1067 XZBINA   MVI   XZSWT,XX09                X                              06816021
 0007FE 47F0 781E      0081E        1068        BC    UNCON,XZDB0                X                               06824021
0
 000802 9200 D488      08550        1070 XZSIDB   MVI   XZSWT,XX00                X                              06840021
 000806 47F0 781E      0081E        1071        BC    UNCON,XZDB0                X                               06848021
0
 00080A 9208 D488      08550        1073 XZSIDA   MVI   XZSWT,XX08                X                              06864021
 00080E 47F0 781E      0081E        1074        BC    UNCON,XZDB0                X                               06872021
0
 000812 9211 D488      08550        1076 XZNLB    MVI   XZSWT,XX11                X                              06888021
0
 000816 47F0 781E      0081E        1078        BC    UNCON,XZDB0           BRANCH TO XSSBG2                     06904021
 00081A 9210 D488      08550        1079 XZNIII   MVI   XZSWT,XX10                                               06912021
0
 00081E 900F C608      07B98        1081 XZDB0    STM   XR0,XR15,XESAV                                           06928021
 000822 58F0 C8BC      07E4C        1082        L     XRVAR,XSSDB2                                               06936021
 000826 07FF                        1083        BCR   UNCON,XRVAR           BRANCH TO XSSBG2                     06944021
-
-
-

 000828 1753                        1085 XZX3X5 XR    XR5,XR3                    EXCHANGE XR3 AND XR5            06960021
 00082A 1735                        1086        XR    XR3,XR5                                                    06968021
 00082C 1753                        1087        XR    XR5,XR3                                                    06976021
 00082E 07FE                        1088        BCR   UNCON,XRSUB           RETURN                               06984021
-
-
-

 000830 1746                        1090 XZX4X6 XR    XR4,XR6                                                    07000021
 000832 1764                        1091        XR    XR6,XR4                                                    07008021
 000834 1746                        1092        XR    XR4,XR6                                                    07016021
 000836 07FE                        1093        BCR   UNCON,XRSUB           RETURN                               07024021
-
0
1         COMMON SUBROUTINES                                                                                    PAGE   28
-  LOC  OBJECT CODE    ADDR1 ADDR2  STMT   SOURCE STATEMENT                                       ASM 0201 11.03 02/14/15
0000838 D793 D4E8 D4E8 085B0 085B0  1095 XINTL1 XC    XBSW1(XLSW1),XBSW1                                         07040021
 00083E 940F D481      08549        1096          NI    XGSWT,XX0F                                               07048021
 000842 9200 D482      0854A        1097          MVI   XOPMOD,XX00                                              07056021
 000846 07FE                        1098        BCR   UNCON,XRSUB           RETURN                               07064021
-
-
-

                                    1100 *      XTAMPO   - ASSIGN TEMPORARY STORAGE THE LENGHT OF WHICH IS G     07080021
                                    1101 *               - IN XELEN  (EITHER 8 OR 16 BYTES).                     07088021
                                    1102 *               - INXELEN  (EITHER 8 OR 16 BYTES).                      07096021
                                    1103 *      XE16D    - ASSIGN  16 BYTES IN TS.                               07104021
                                    1104 *      XE8DB    - ASSIGN   8 BYTES IN TS.                               07112021
                                    1105 *               - OUTPUT = DISPLACT.+8(IN BYTES)IN XEREL1- ENTRY (O     07120021
                                    1106 *               - BYTES)NUMBER IN TS.GIVEN IN  XEREL - LENGHT IN XY     07128021
-
0
 000848 9508 D469      08531        1108 XTAMPO   CLI   XELEN+NX1,XX08                                           07144021
 00084C 47D0 7858      00858        1109        BC    XNOGT,XE8DB           LENGTH SET TO 8 BYTES                07152021
0
 000850 9210 D443      0850B        1111 XE16D    MVI   XYTEL+NX1,XX10                                           07168021
 000854 47F0 785C      0085C        1112        BC    UNCON,XEBGN           LENGTH SET TO 16 BYTES               07176021
0
 000858 9208 D443      0850B        1114 XE8DB    MVI   XYTEL+NX1,XX08                                           07192021
 00085C 900F C608      07B98        1115 XEBGN  STM   XR0,XR15,XESAV                                             07200021
 000860 9200 D442      0850A        1116          MVI   XYTEL,XX00                                               07208021
 000864 5810 C8F4      07E84        1117        L     XR1,XAAVAL                                                 07216021
 000868 45E0 7E1C      00E1C        1118        BAL   XRSUB,XTBDEB               XR2 WILL HAVE FIRST ENTRY I     07224021
                                    1119 *                                       AVAILABILITY TABLE.             07232021
                                    1120 *                                       XR3=DISPLT.IN THE SAME TABL     07240021
                                    1121 *                                       XR1=TAMN OF THIS TABLE.         07248021
 00086C 4930 C850      07DE0        1122        CH    XR3,XC000                  NO ENTRIES IN AVABT. TABLE.     07256021
 000870 4780 78E2      008E2        1123        BC    XZERO,XE008                YES,-                           07264021
 000874 9508 D443      0850B        1124          CLI   XYTEL+NX1,XX08            NO,ARE 16 BYTES ASKED.         07272021
 000878 4720 788C      0088C        1125        BC    XTWO,XE009                 YES                             07280021
 00087C 4B30 C3B2      07942        1126        SH    XR3,XC002                  DECREASE  DISPT. IN AVABT.      07288021
 000880 4031 0004      00004        1127          STH   XR3,DX4(XR1)              AND SET TAMN.                  07296021
 000884 4843 2000      00000        1128          LH    XR4,DX0(XR3,XR2)          XR4 HAS REL. POINTER IN TS.    07304021
 000888 47F0 78FC      008FC        1129        BC    UNCON,XE011           SET OUTPUT                           07312021
0
 00088C 1B66                        1131 XE009  SR    XR6,XR6                    XR6 WILL HAVE THE DISPLT.DU     07328021
 00088E 4846 2000      00000        1132          LH    XR4,DX0(XR6,XR2)          SCANING OF AVABT TABLE - XR    07336021
                                    1133 *                                       WILL HAVE CONTENT OF ENTRY      07344021
1         COMMON SUBROUTINES                                                                                    PAGE   29
-  LOC  OBJECT CODE    ADDR1 ADDR2  STMT   SOURCE STATEMENT                                       ASM 0201 11.03 02/14/15
0                                   1134 *                                       G SCANNED                       07352021
 000892 47F0 78A6      008A6        1135        BC    UNCON,XE014           BEGIN SCAN                           07360021
 000896 4856 2000      00000        1136 XE012    LH    XR5,DX0(XR6,XR2)          XR5 HAS NEXT ENTRY             07368021
 00089A 4144 0001      00001        1137          LA    XR4,DX1(XR4)              IS          REL.POINTER+1 =    07376021
 00089E 1945                        1138        CR    XR4,XR5                    NEXT REL. POINTER.              07384021
 0008A0 4780 78B4      008B4        1139        BC    XZERO,XE013                YES- WE HAVE 16 CONSECUTIVE     07392021
 0008A4 1845                        1140        LR    XR4,XR5                    NO,SAVE THIS ENTRY IN XR5.      07400021
 0008A6 4166 0002      00002        1141 XE014    LA    XR6,DX2(XR6)              WAS IT  THE LAST ENTRY IN A    07408021
 0008AA 1963                        1142        CR    XR6,XR3                    TABLE.                          07416021
 0008AC 4740 7896      00896        1143        BC    XONE,XE012                 X                               07424021
 0008B0 47F0 78E2      008E2        1144        BC    UNCON,XE008                NO,TRY WITH NEXT ONE.           07432021
                                    1145 *                                       YES. ASSIGN NEW 16 BYTES.       07440021
0
 0008B4 1856                        1147 XE013  LR    XR5,XR6                                                    07456021
 0008B6 4B50 C3BA      0794A        1148        SH    XR5,XC004                                                  07464021
 0008BA 4166 0002      00002        1149 XE015    LA    XR6,DX2(XR6)              TAKE NEXT ENTRY                07472021
 0008BE 1963                        1150        CR    XR6,XR3                    IS IT THE LAST ONE.             07480021
 0008C0 4780 78D4      008D4        1151        BC    XZERO,XE0144               YES-                            07488021
 0008C4 4155 0002      00002        1152          LA    XR5,DX2(XR5)              NO, STORE IT TWO ENTRIES BE    07496021
 0008C8 4806 2000      00000        1153          LH    XR0,DX0(XR6,XR2)          X                              07504021
 0008CC 4005 2000      00000        1154          STH   XR0,DX0(XR5,XR2)          X                              07512021
 0008D0 47F0 78BA      008BA        1155        BC    UNCON,XE015                X                               07520021
0
 0008D4 0640                        1157 XE0144 BCTR  XR4,RW0               SET XR4 TO 1ST OF TWO ENTRIES        07536021
 0008D6 4B30 C3BA      0794A        1158        SH    XR3,XC004                  UPDATE  DISPLACT. IN AVAB.T     07544021
 0008DA 4031 0004      00004        1159          STH   XR3,DX4(XR1)              X                              07552021
 0008DE 47F0 78FC      008FC        1160        BC    UNCON,XE011           SET OUTPUT                           07560021
0
 0008E2 4840 A168      00168        1162 XE008    LH    XR4,TSMAX           GET COUNTER VALUE                    07576021
 0008E6 4144 0001      00001        1163          LA    XR4,DX1(XR4)                                             07584021
 0008EA 1854                        1164        LR    XR5,XR4                                                    07592021
 0008EC 9508 D443      0850B        1165          CLI   XYTEL+NX1,XX08            8 BYTES NEEDED                 07600021
 0008F0 47D0 78F8      008F8        1166        BC    XNOGT,XE016                NO                              07608021
 0008F4 4155 0001      00001        1167          LA    XR5,DX1(XR5)              16 BYTES  INCREAS( BY 2.       07616021
 0008F8 4050 A168      00168        1168 XE016    STH   XR5,TSMAX                                                07624021
 0008FC 4040 D444      0850C        1169 XE011  STH   XR4,XEREL                                                  07632021
 000900 8B40 0003      00003        1170          SLA   XR4,DX3                                                  07640021
 000904 4040 D446      0850E        1171        STH   XR4,XEREL1                                                 07648021
0
 000908 980F C608      07B98        1173 XEXIT  LM    XR0,XR15,XESAV             RETURN.                         07664021
 00090C 07FE                        1174        BCR   UNCON,XRSUB                X                               07672021
-
0
                                    1176 *      XERELS   -RELEASE 8 OR 16 BYTES OF TS. AND ENTER CORRESPONDI     07688021
                                    1177 *               -RELATIVE  POINTER(S)IN THE AVAILABILITY TABLE.         07696021
                                    1178 *               - INPUT = XEREL WITH VALUE OF  REL. POINTER.            07704021
1         COMMON SUBROUTINES                                                                                    PAGE   30
-  LOC  OBJECT CODE    ADDR1 ADDR2  STMT   SOURCE STATEMENT                                       ASM 0201 11.03 02/14/15
0                            0090E  1180 XERELS EQU   *                                                          07720021
 00090E 900F C608      07B98        1181          STM   XR0,XR15,XESAV                                           07728021
 000912 D201 D43C D444 08504 0850C  1182          MVC   XEEMN(LX2),XEREL          SAVE REL. POINTER              07736021
 000918 5810 C8F4      07E84        1183 XE030  L     RW1,XAAVAL                   ASK A NEW ENTRY IN AVA. T     07744021
 00091C 58F0 A130      00130        1184        L     XRVAR,XINST                   X                            07752021
 000920 05EF                        1185        BALR  RETRG,XRVAR           BRANCH TO INSERT ROUTINE             07760021
 000922 1852                        1186        LR    XR5,XR2                    XR5 HAS POINTER TO THIS NEW     07768021
0
 000924 5810 C8F4      07E84        1188        L     XR1,XAAVAL                                                 07784021
 000928 45E0 7E1C      00E1C        1189        BAL   XRSUB,XTBDEB          GET INFO ON XAVAL                    07792021
0
 00092C 1B66                        1191        SR    XR6,XR6                                                    07808021
 00092E 1813                        1192        LR    XR1,XR3                                                    07816021
 000930 4B10 C3B2      07942        1193        SH    XR1,XC002                  XR1 HAS DISPL. OF NEW ENTRY     07824021
 000934 1961                        1194 XE033  CR    XR6,XR1                    END OF TABLE                    07832021
 000936 4780 7952      00952        1195        BC    XZERO,XE034                YES-                            07840021
 00093A 4846 2000      00000        1196          LH    XR4,DX0(XR6,XR2)          XR4 HAS CURRENT ENTRY.         07848021
 00093E 4940 D43C      08504        1197        CH    XR4,XEEMN                                                  07856021
 000942 4780 7998      00998        1198        BC    XZERO,XE037                THIS TS IS ALREADY RELEASED     07864021
 000946 4720 795C      0095C        1199        BC    XTWO,XE032                 INSERT NEW ENTRY HERE.          07872021
 00094A 4166 0002      00002        1200          LA    XR6,DX2(XR6)              TRY NEXT ENTRY.                07880021
 00094E 47F0 7934      00934        1201        BC    UNCON,XE033                X                               07888021
0
 000952 D201 5000 D43C 00000 08504  1203 XE034    MVC   DX0(LX2,XR5),XEEMN        MOVE REL.POINTER IN NEW ENT    07904021
 000958 47F0 7976      00976        1204        BC    UNCON,XE036                AT THE END OF TABLE.            07912021
0
 00095C 1A12                        1206 XE032  AR    XR1,XR2                    XR1 HAS ABSOLUTE ADDRESS OF     07928021
 00095E 1A62                        1207        AR    XR6,XR2                                                    07936021
                                    1208 *                                       EMPTY ENTRY.                    07944021
 000960 4B10 C3B2      07942        1209 XE035  SH    XR1,XC002                                                  07952021
 000964 D201 1002 1000 00002 00000  1210          MVC   DX2(LX2,XR1),DX0(XR1)     PUSH BACK TABLE.               07960021
 00096A 1916                        1211        CR    XR1,XR6                                                    07968021
 00096C 4720 7960      00960        1212        BC    XTWO,XE035            ENTRY DOES NOT BELONG HERE           07976021
                                    1213 *         XR6 HAS ABSOLUTE ADDRESS WHERE                                07984021
 000970 D201 6000 D43C 00000 08504  1214          MVC   DX0(LX2,XR6),XEEMN        SHOULD NEW ENTRY BE INSERTE    07992021
 000976 9508 D443      0850B        1215 XE036    CLI   XYTEL+NX1,XX08            WAS IT A 16 BYTES RELEASE.     08000021
 00097A 47D0 7908      00908        1216        BC    XNOGT,XEXIT                NO-                             08008021
 00097E D501 D444 D43C 0850C 08504  1217          CLC   XEREL(LX2),XEEMN                                         08016021
 000984 4770 7908      00908        1218        BC    XNOEQ,XEXIT           2ND 8 BYTES HAVE BEEN RELEASED       08024021
 000988 4840 D444      0850C        1219        LH    XR4,XEREL                  YES                             08032021
 00098C 4A40 C3AE      0793E        1220        AH    XR4,XC001                  RELEASE NEXT 8 BYTES.           08040021
 000990 4040 D43C      08504        1221        STH   XR4,XEEMN                  X                               08048021
 000994 47F0 7918      00918        1222        BC    UNCON,XE030                X                               08056021
0
 000998 5810 C8F4      07E84        1224 XE037  L     XR1,XAAVAL                                                 08072021
 00099C 45E0 7E1C      00E1C        1225        BAL   XRSUB,XTBDEB          GET INFO ON XAVAL                    08080021
 0009A0 4B30 C3B2      07942        1226        SH    XR3,XC002                                                  08088021
 0009A4 4031 0004      00004        1227          STH   XR3,DX4(XR1)                                             08096021
 0009A8 47F0 7976      00976        1228        BC    UNCON,XE036           CHECK FOR 16 BYTE RELEASE            08104021
1         COMMON SUBROUTINES                                                                                    PAGE   31
-  LOC  OBJECT CODE    ADDR1 ADDR2  STMT   SOURCE STATEMENT                                       ASM 0201 11.03 02/14/15
00009AC 9601 D48D      08555        1230 XOTSEM   OI    XGNSW,XX01                                               08120021
 0009B0 47F0 79B8      009B8        1231        BC    UNCON,XOTS00          ENTERED FROM MOVE VERB ANALYZER      08128021
 0009B4 94FE D48D      08555        1232 XOTSEL   NI    XGNSW,XXFE                                               08136021
 0009B8 9062 C448      079D8        1233 XOTS00 STM   XR6,XR2,XGSAV2                                             08144021
 0009BC 45E0 7D80      00D80        1234        BAL   XRSUB,XRSVAL          GET BUFFER ADDRESSES                 08152021
                                    1235 *                                                                       08160021
 0009C0 45E0 7838      00838        1236        BAL   XRSUB,XINTL1               RESET SWITCHES AND BUFFERS      08168021
 0009C4 9101 D48D      08555        1237          TM    XGNSW,XX01                                               08176021
 0009C8 4710 79D0      009D0        1238        BC    XTHRE,XOTS02    SET ARITH. SWUTCH IF ENTERED               08184021
 0009CC 9640 D481      08549        1239        OI    XGSWT,XAROPE    BY XOTSEL                                  08192021
                             009D0  1240 XOTS02 EQU   *                                                          08200021
 0009D0 58F0 C8E8      07E78        1241        L     XRVAR,XASETV                                               08208021
 0009D4 05EF                        1242        BALR  XRSUB,XRVAR           GET OPERAND INFO INTO BUFFERS        08216021
 0009D6 9101 D48D      08555        1243          TM    XGNSW,XX01                                               08224021
 0009DA 4710 7A9C      00A9C        1244        BC    XTHRE,XOTS01          CALLED BY MOVE ANALYZER              08232021
 0009DE 45E0 8044      00E74        1245        BAL   XRSUB,XPACK                PACK EXT. DEC. IF ANY.          08240021
 0009E2 9505 D0D1      08199        1246          CLI   HEADER+NX1,XX05                                          08248021
 0009E6 4770 7A9C      00A9C        1247        BNE   XOTS01                IS NOT STORE, EXIT                   08256021
 0009EA 95BC D738      08800        1248        CLI   DOP2,TEMRES          STORE INTO TEMP. RESULT....           08264021
 0009EE 4770 7A9C      00A9C        1249        BNE   XOTS01               NO                                    08272021
 0009F2 9509 D504      085CC        1250        CLI   X1IRX,XGEXFP        IS OPERAND EXT FL PT                   08280021
 0009F6 4770 79FE      009FE        1251        BNE   XOTS06              NO                                     08288021
 0009FA 45E0 834E      0117E        1252        BAL   XRSUB,FPCVBG        YES, CONVERT IT TO INT FL PT           08296021
                             009FE  1253 XOTS06 EQU   *                                                          08304021
                                    1254 * STORE OF OPERAND OR INTERMEDIATE RESULT INTO TEMPORARY RESULT-        08312021
                                    1255 *  SAVE CHARACTERISTICS IN XRVAL BUFFER AND STORE                       08320021
                                    1256 * OPERAND OR REGISTER IN TEMPORARY STORAGE IF NECESSARY                 08328021
 0009FE 9500 D599      08661        1257          CLI   XRTEL+NX1,XX00      IF TEMP STORAGE HAS BEEN USED        08336021
 000A02 4780 7A10      00A10        1258        BE    XOTS03               BY A FORMER TEMP RESULT,              08344021
 000A06 D203 D442 D598 0850A 08660  1259          MVC   XYTEL(LX4),XRTEL    RELEASE IT.                          08352021
 000A0C 45E0 790E      0090E        1260        BAL   XRSUB,XERELS          GO TO RELEASE ROUTINE                08360021
 000A10 9108 D505      085CD        1261 XOTS03   TM    X1IRX+NX1,XINREG    IS OP IN A REGISTER...               08368021
 000A14 4780 7A2E      00A2E        1262        BZ    XOTS04               NO                                    08376021
                                    1263 *                                 YES,GENERATE...                       08384021
 000A18 45E0 81E4      01014        1264        BAL   XRSUB,XZWHIR            STORE REG,TEMPSTORAGE              08392021
 000A1C 5840 D464      0852C        1265        L     XR4,XLIRP                                                  08400021
 000A20 45E0 80DC      00F0C        1266        BAL   XRSUB,XRSTOR          SAVE TEMP RESULT                     08408021
 000A24 D233 D580 D4E8 08648 085B0  1267 XOTS05 MVC   XRVAL(XLEVAL),X1VAL                                        08416021
 000A2A 47F0 700A      0000A        1268        B     PH5CTL                RETURN TO CONTROL                    08424021
 000A2E 9500 D501      085C9        1269 XOTS04   CLI   X1TEL+NX1,XX00      IS OP IN TEMP STORAGE...             08432021
 000A32 4770 7A24      00A24        1270        BNE   XOTS05               YES                                   08440021
 000A36 91D0 D505      085CD        1271          TM    X1IRX+NX1,XZGNLT    IS OP A LITERAL....                  08448021
 000A3A 4770 7A24      00A24        1272        BC    NOTZER,XOTS05        YES                                   08456021
 000A3E D201 D468 D45A 08530 08522  1273          MVC   XELEN(LX2),XOPLGH+NX2   NO                               08464021
 000A44 45E0 7848      00848        1274        BAL   XRSUB,XTAMPO         ASK TEMPORARY STORAGE                 08472021
 000A48 D201 D148 D442 08210 0850A  1275          MVC   XL1(LX2),XYTEL                                           08480021
 000A4E D201 D14A D446 08212 0850E  1276          MVC   XWC1(LX2),XEREL1                                         08488021
 000A54 D201 D192 D446 0825A 0850E  1277          MVC   XWC2(LX2),XEREL1                                         08496021
 000A5A 45E0 BB06      02196        1278        BAL   XRSUB,EXORLG         GEN..XC TEMP,TEMP                     08504021
 000A5E D203 D500 D442 085C8 0850A  1279          MVC   X1TEL(LX4),XYTEL                                         08512021
 000A64 4860 D442      0850A        1280        LH    XR6,XYTEL                                                  08520021
 000A68 4B60 D45A      08522        1281          SH    XR6,XOPLGH+NX2                                           08528021
 000A6C 9120 D505      085CD        1282          TM    X1IRX+NX1,XFTPT    IS OPERAND INT FL PT                  08536021
 000A70 4780 7A80      00A80        1283        BZ    XOTS07              NO                                     08544021
 000A74 9104 D505      085CD        1284          TM    X1IRX+NX1,XGDPFP   YES, IS IT DP                         08552021
1         COMMON SUBROUTINES                                                                                    PAGE   32
-  LOC  OBJECT CODE    ADDR1 ADDR2  STMT   SOURCE STATEMENT                                       ASM 0201 11.03 02/14/15
0000A78 4710 7A80      00A80        1285        BO    XOTS07              YES                                    08560021
 000A7C 4B60 D45A      08522        1286          SH    XR6,XOPLGH+NX2     NO, PLACE OPERAND LEFT ADJUSTED       08568021
                             00A80  1287 XOTS07 EQU   *                                                          08576021
 000A80 D201 D148 D45A 08210 08522  1288          MVC   XL1(LX2),XOPLGH+NX2                                      08584021
 000A86 4A60 D446      0850E        1289        AH    XR6,XEREL1                                                 08592021
 000A8A 4060 D14A      08212        1290        STH   XR6,XWC1             GENERATE A MOVE OF OPERAND INTO       08600021
 000A8E D203 D138 D518 08200 085E0  1291          MVC   XOP1(LX4),X1INPT    TEMP STORAGE-RIGHT ADJUSTED          08608021
 000A94 45E0 B18C      0181C        1292        BAL   XRSUB,MVC             GENERATE MVC                         08616021
 000A98 47F0 7A24      00A24        1293        B     XOTS05                SET TEMP RESULT BUFFER               08624021
                             00A9C  1294 XOTS01 EQU   *                                                          08632021
 000A9C 9862 C448      079D8        1295        LM    XR6,XR2,XGSAV2                                             08640021
 000AA0 07FE                        1296        BCR   UNCON,XRSUB           RETURN                               08648021
-
-
-

 000AA2 5040 C548      07AD8        1298 XSTLHN   ST    XR4,XGSAV6          GET THE NEXT USABLE GN               08664021
 000AA6 4840 A15E      0015E        1299        LH    XR4,FIVEGN                 X                               08672021
 000AAA 4144 0001      00001        1300          LA    XR4,DX1(XR4)              X                              08680021
 000AAE 4040 A15E      0015E        1301        STH   XR4,FIVEGN                 X                               08688021
 000AB2 4040 D460      08528        1302        STH   XR4,XGNTMP                 X                               08696021
 000AB6 4040 D172      0823A        1303        STH   XR4,XGN1                   X                               08704021
 000ABA 5840 C548      07AD8        1304          L     XR4,XGSAV6                                               08712021
 000ABE 07FE                        1305        BCR   UNCON,XRSUB                X                               08720021
                                    1306 *                                                                       08728021
-
0
                                    1308 *      ERRPRO- ERROR PROCESSOR ROUTINE                                  08744021
                                    1309 *      CALLING SEQUENCE IS-     BAL  BRSUB,ERRPRO                       08752021
                                    1310 *                               DC   XL1         MESSAGE NUMBER         08760021
                                    1311 *                               DC   XL1         SEVERITY.              08768021
                                    1312 *      IF SEVERITY IS 8,FILES WILL BE CLOSED AND CONTROL WILL BE        08776021
                                    1313 *      RETURNED TO PHASE0.                                              08784021
                                    1314 *                                                                       08792021
-
0
                             00AC0  1316 ERRPRO EQU   *                                                          08808021
 000AC0 900F C5C8      07B58        1317        STM   XR0,XR15,XGSAV8                                            08816021
 000AC4 950B E000      00000        1318          CLI   DX0(XRSUB),ERRN11                                        08824021
 000AC8 4770 7AD8      00AD8        1319        BC    XNOEQ,ERRPR1               MESSAGE 11 SHOULD NOT BE        08832021
 000ACC 9120 D48D      08555        1320          TM    XGNSW,XX20                PRINTED MORE THAN ONCE PER     08840021
 000AD0 471E 0002      00002        1321          BC    XTHRE,DX2(XRSUB)          COMPUTE STATEMENT.             08848021
 000AD4 9620 D48D      08555        1322          OI    XGNSW,XX20                                               08856021
1         COMMON SUBROUTINES                                                                                    PAGE   33
-  LOC  OBJECT CODE    ADDR1 ADDR2  STMT   SOURCE STATEMENT                                       ASM 0201 11.03 02/14/15
0000AD8 D200 D4A1 E000 08569 00000  1323 ERRPR1   MVC   XMSGDF+NX4(LX1),DX0(XRSUB)                               08864021
 000ADE D201 D4A2 A1EE 0856A 001EE  1324          MVC   XMSGDF+NX5(LX2),CARDNO    SET BUFFER TO BE OUTPUTED      08872021
 000AE4 F100 D4A4 E001 0856C 00001  1325          MVO   XMSGDF+NX7(LX1),DX1(LX1,XRSUB) ON FILE 4.                08880021
 000AEA 4120 D49D      08565        1326        LA    RW2,XMSGDF                                                 08888021
 000AEE 4130 0008      00008        1327          LA    RW3,DX8                                                  08896021
 000AF2 4500 7378      00378        1328        BAL   XR0,WRITE4            WRITE MESSAGE                        08904021
 000AF6 9180 D4A4      0856C        1329          TM    XMSGDF+NX7,XX80     SEVERITY 8...                        08912021
 000AFA 4780 7B02      00B02        1330        BZ    ERRPRX               NO,  CONTINUE PROCESSING              08920021
 000AFE 47F0 71BE      001BE        1331          BC    UNCON,EOFIN        YES,  GO TO EOFIN RTN                 08928021
 000B02 980F C5C8      07B58        1332 ERRPRX LM    XR0,XR15,XGSAV8                                            08936021
 000B06 47FE 0002      00002        1333          BC    UNCOND,DX2(XRSUB)  RETURN TO CALLER                      08944021
1         COMMON SUBROUTINES                                                                                    PAGE   34
-  LOC  OBJECT CODE    ADDR1 ADDR2  STMT   SOURCE STATEMENT                                       ASM 0201 11.03 02/14/15
0                                   1335 *      XBISCL  -  BINARY  OBJECT  TIME  SCALING. CONVERT EVENTUALY      08960021
                                    1336 *              -  ID TO BINARY .                                        08968021
 000B0A 9610 D482      0854A        1337 XBISCD OI    XOPMOD,XDIVOR                                              08976021
                             00B0E  1338 XBISCL EQU   *                                                          08984021
 000B0E 900F C408      07998        1339          STM   XR0,XR15,XGSAV1                                          08992021
 000B12 4130 D4E8      085B0        1340        LA    XR3,XVAL1                  TAKE FIRST OPERAND.             09000021
 000B16 910B 301C      0001C        1341 XBIS03 TM    Y1IRX(XR3),XGBINR                                          09008021
 000B1A 4710 7B2A      00B2A        1342        BC    XTHRE,XBIS01               CONVERT ANY ID OPERAND TO       09016021
 000B1E 91D0 301D      0001D        1343          TM    Y1IRX+NX1(XR3),XZGNLT     BINARY.                        09024021
 000B22 4770 7B50      00B50        1344        BC    XNOEQ,XBISCP          OPERAND IS A LITERAL                 09032021
 000B26 45E0 82D6      01106        1345        BAL   XRSUB,XIDBIB          CONVERT OPERAND TO BINARY            09040021
 000B2A 45E0 8288      010B8        1346 XBIS01 BAL   XRSUB,XZSCL                YES- SCALE                      09048021
                             00B2E  1347 XBIS05 EQU   *                                                          09056021
 000B2E 45E0 83D0      01200        1348        BAL   XRSUB,XSTOMV          IS THIS A STORE OR MOVE              09064021
 000B32 47F0 7B3E      00B3E        1349        BC    UNCON,XBISEX          YES                                  09072021
 000B36 5930 C8C0      07E50        1350        C     XR3,XAVAL1                 WAS IT THE  2ND OPERAND.        09080021
 000B3A 4780 7B44      00B44        1351        BC    XZERO,XBIS02               NO-                             09088021
 000B3E 980F C408      07998        1352 XBISEX   LM    XR0,XR15,XGSAV1     YES, EXIT                            09096021
 000B42 07FE                        1353        BCR   UNCON,XRSUB                X                               09104021
0
 000B44 4130 D520      085E8        1355 XBIS02 LA    XR3,XVAL2                  PROCESS 2ND OPERAND             09120021
 000B48 94EF D482      0854A        1356          NI    XOPMOD,XXEF               RESET XDIVOR SWITCH.           09128021
                                    1357 *                                                                       09136021
                                    1358 *                                                                       09144021
 000B4C 47F0 7B16      00B16        1359        BC    UNCON,XBIS03               ROUTINE.                        09152021
 000B50 9640 301D      0001D        1360 XBISCP   OI    Y1IRX+NX1(XR3),XGNCON                                    09160021
 000B54 D100 301C C849 0001C 07DD9  1361          MVN   Y1IRX(LX1,XR3),XITAB+NX11                                09168021
 000B5A 47F0 7B2E      00B2E        1362        BC    UNCON,XBIS05          CHECK IF BOTH OPERANDS THRU          09176021
0
1         COMMON SUBROUTINES                                                                                    PAGE   35
-  LOC  OBJECT CODE    ADDR1 ADDR2  STMT   SOURCE STATEMENT                                       ASM 0201 11.03 02/14/15
-
-
                                    1366 *      XFINAL   - SAVE  RESULT IN INTERMEDIATE RESULT TABLE RELEASE     09208021
                                    1367 *                 IR OR TEMP USED BY OPERANDS AND NOT USED BY RESUL     09216021
-
0
                             00B5E  1369 XFINAL EQU   *                                                          09232021
 000B5E 1B00                        1370        SR    XR0,XR0                                                    09240021
                                    1371 *                                                                       09248021
 000B60 D201 D576 D7B5 0863E 0887D  1372          MVC   XFIRN(LX2),DOP3+NX1                                      09256021
 000B66 9500 3019      00019        1373 XFI02    CLI   Y1TEL+NX1(XR3),XX00       IS OP IN TEMP.                 09264021
 000B6A 4780 7B8C      00B8C        1374        BC    XZERO,XFI00                NO-                             09272021
 000B6E D501 301A D572 0001A 0863A  1375          CLC   Y1TEM(LX2,XR3),XFTEM      YES,IS IT THE SAME TEMP AS     09280021
 000B74 4780 7BB4      00BB4        1376        BC    XZERO,XFI01                RESULT.YES                      09288021
 000B78 D501 301A D59A 0001A 08662  1377          CLC   Y1TEM(LX2,XR3),XRTEM IS IT SAME TEMP AS TEMP RESULT      09296021
 000B7E 4780 7BB4      00BB4        1378        BE    XFI01                 YES                                  09304021
                                    1379 *            NO,RELEASE THIS TEMPORARI STORAGE                          09312021
 000B82 D203 D442 3018 0850A 00018  1380          MVC   XYTEL(LX4),Y1TEL(XR3)                                    09320021
 000B88 45E0 790E      0090E        1381        BAL   XRSUB,XERELS               X                               09328021
 000B8C 9108 301D      0001D        1382 XFI00    TM    Y1IRX+NX1(XR3),XINREG     IF OP IS IN REG- RESET FLAG    09336021
 000B90 4780 7BB4      00BB4        1383        BC    XZERO,XFI01                IN IR INFO. TABLE.              09344021
 000B94 45E0 81E4      01014        1384        BAL   XRSUB,XZWHIR               X                               09352021
 000B98 5840 D464      0852C        1385        L     XR4,XLIRP                  X                               09360021
 000B9C 9108 4002      00002        1386          TM    DX2(XR4),XRDPRE           X                              09368021
 000BA0 4780 7BAE      00BAE        1387        BC    XZERO,XFI03                X                               09376021
 000BA4 5864 0004      00004        1388          L     XR6,DX4(XR4)              X                              09384021
 000BA8 D402 6000 C8B7 00000 07E47  1389          NC    DX0(LX3,XR6),XREMK6                                      09392021
 000BAE D402 4000 C8B7 00000 07E47  1390 XFI03    NC    DX0(LX3,XR4),XREMK6                                      09400021
0
 000BB4 1200                        1392 XFI01  LTR   XR0,XR0                    IS IT THE 2ND OP.               09416021
 000BB6 4770 7BC4      00BC4        1393        BC    XNOEQ,XFI04                YES                             09424021
 000BBA 4100 0001      00001        1394          LA    XR0,DX1                   NO - PROCESS 2ND OP.           09432021
 000BBE 1835                        1395        LR    XR3,XR5                    X                               09440021
 000BC0 47F0 7B66      00B66        1396        BC    UNCON,XFI02           CHECK SECOND OPERAND                 09448021
0
 000BC4 9108 D575      0863D        1398 XFI04    TM    XFIRX+NX1,XINREG          IF RESULT IS IN REG  UPDATE    09464021
 000BC8 4780 7BF8      00BF8        1399        BC    XZERO,XFI05                FLAG IN IR INFO.TABLE.          09472021
 000BCC 4130 D558      08620        1400        LA    XR3,XFVAL                                                  09480021
 000BD0 45E0 81E4      01014        1401        BAL   XRSUB,XZWHIR               X                               09488021
 000BD4 5840 D464      0852C        1402        L     XR4,XLIRP                  X                               09496021
 000BD8 D201 4000 D576 00000 0863E  1403          MVC   DX0(LX2,XR4),XFIRN         SET INT.RES.NUMBER            09504021
 000BDE 9614 4002      00002        1404          OI    DX2(XR4),XX14             XRIRNT+XRFREE                  09512021
                                    1405 *                                                                       09520021
 000BE2 9101 D575      0863D        1406          TM    XFIRX+NX1,XG2IRX          X                              09528021
 000BE6 4780 7BF8      00BF8        1407        BC    XZERO,XFI05                X                               09536021
 000BEA 9608 4002      00002        1408          OI    DX2(XR4),XRDPRE           X                              09544021
1         COMMON SUBROUTINES                                                                                    PAGE   36
-  LOC  OBJECT CODE    ADDR1 ADDR2  STMT   SOURCE STATEMENT                                       ASM 0201 11.03 02/14/15
0000BEE 5864 0004      00004        1409          L     XR6,DX4(XR4)              X                              09552021
 000BF2 D202 6000 4000 00000 00000  1410          MVC   DX0(LX3,XR6),DX0(XR4)                                    09560021
0
                             00BF8  1412 XFI05  EQU   *                                                          09576021
 000BF8 94FD D575      0863D        1413          NI    XFIRX+NX1,XXFD                                           09584021
 000BFC 9140 D48D      08555        1414          TM    XGNSW,DIVREM        IS THIS A DIVIDE REMAINDER      7884 09592021
 000C00 4780 7CBA      00CBA        1415        BZ    XFI06               NO                                     09600021
 000C04 D733 D580 D580 08648 08648  1416        XC    XRVAL(XLEVAL),XRVAL CLEAR TEMP RESULT BUFFER               09608021
 000C0A 9108 D575      0863D        1417          TM    XFIRX+NX1,XINREG   IS QUOTIENT IN A REGISTER             09616021
 000C0E 4780 7C3C      00C3C        1418        BZ    XFI12               NO                                     09624021
 000C12 45E0 7858      00858        1419        BAL   XRSUB,XE8DB         YES, ASSIGN TEMP STORAGE               09632021
 000C16 4810 D446      0850E        1420          LH    XR1,XEREL1          GENERATE CODE TO SAVE QUOTIENT  7884 09640021
 000C1A 4A10 C3BA      0794A        1421        AH    XR1,XC004              RIGHT ALIGNED IN TEMP STOR          09648021
 000C1E 4010 D14A      08212        1422        STH   XR1,XWC1                                                   09656021
 000C22 9204 D14C      08214        1423          MVI   XWC1+NX2,XX04        ST QUOT,TEMP                        09664021
 000C26 F300 D188 D574 08250 0863C  1424          UNPK  XREG1(LX1),XFIRX(LX1)                                    09672021
 000C2C 940F D188      08250        1425        NI    XREG1,HIBITS                                               09680021
 000C30 45E0 B040      016D0        1426          BAL   XRSUB,ST           GENERATE ST INST                      09688021
 000C34 920B D59C      08664        1427        MVI   XRIRX,XGBINR        TEMP RESULT IS BINARY                  09696021
 000C38 47F0 7C74      00C74        1428          B     XFI17              GENERATE STM INST.                    09704021
                             00C3C  1429 XFI12  EQU   *                                                          09712021
 000C3C 91D0 D575      0863D        1430          TM    XFIRX+NX1,XZGNLT   IS QUOT A LITERAL                     09720021
 000C40 4770 7C70      00C70        1431        BC    XNOEQ,XFI18         YES                                    09728021
 000C44 D201 D468 D570 08530 08638  1432          MVC   XELEN(LX2),XFTEL   NO, ASSIGN TEMP STORAGE EQUAL         09736021
 000C4A 45E0 7848      00848        1433        BAL   XRSUB,XTAMPO           TO THAT USED BY QUOTIENT            09744021
 000C4E D201 D148 D442 08210 0850A  1434          MVC   XL1(LX2),XYTEL     GENERATE CODE TO SAVE QUOT            09752021
 000C54 D201 D14A D446 08212 0850E  1435          MVC   XWC1(LX2),XEREL1                                         09760021
 000C5A D201 D190 D570 08258 08638  1436          MVC   XL2(LX2),XFTEL       ZAP TEMP,QUOT                       09768021
 000C60 4810 D572      0863A        1437        LH    XR1,XFTEM                                                  09776021
 000C64 8B10 0003      00003        1438          SLA   XR1,DX3                                                  09784021
 000C68 4010 D192      0825A        1439        STH   XR1,XWC2                                                   09792021
 000C6C 45E0 B000      01690        1440          BAL   XRSUB,ZAP          GENERATE ZAP                          09800021
                             00C70  1441 XFI18  EQU   *                                                          09808021
 000C70 920C D59C      08664        1442        MVI   XRIRX,XGINDC        TEMP RESULT IS INT DEC                 09816021
                             00C74  1443 XFI17  EQU   *                                                          09824021
 000C74 4810 D440      08508        1444        LH    XR1,XGDRE           GET # OF DEC PLACES IN RESULT          09832021
 000C78 9180 D48D      08555        1445        TM    XGNSW,ADDONE        WAS ONE PLACE ADDED FOR ROUNDING       09840021
 000C7C 4780 7C86      00C86        1446        BZ    XFI16               NO                                     09848021
 000C80 9780 D48D      08555        1447        XI    XGNSW,ADDONE        YES, TURN OFF SWITCH AND               09856021
 000C84 0610                        1448          BCTR  XR1,R0             SUBTRACT ONE FROM # OF DEC            09864021
                             00C86  1449 XFI16  EQU   *                                                          09872021
 000C86 4010 D5A4      0866C        1450        STH   XR1,XRDBS           PLACE # IN TEMP RES BUFF               09880021
 000C8A 4820 D56E      08636        1451        LH    XR2,XFDAS           DETERMINE SCALING FACTOR OF            09888021
 000C8E 1B21                        1452        SR    XR2,XR1                      TEMP RESULT                   09896021
 000C90 1122                        1453        LNR   XR2,XR2              SO THAT REMAINDER WILL BE CALC        09904021
 000C92 4020 D5A6      0866E        1454        STH   XR2,XRALP            USING TRUNCATED QUOTIENT              09912021
 000C96 91D0 D575      0863D        1455          TM    XFIRX+NX1,XZGNLT   IS QUOT A LITERAL                     09920021
 000C9A 4770 7CA4      00CA4        1456        BC    XNOEQ,XFI19         YES                                    09928021
 000C9E D203 D598 D442 08660 0850A  1457          MVC   XRTEL(LX4),XYTEL   NO, SET TEMP STORAGE INFO             09936021
                             00CA4  1458 XFI19  EQU   *                                                          09944021
 000CA4 D20F D580 D558 08648 08620  1459          MVC   XRVAL(LX16),XFVAL  PLACE TEMP RESULT INFO INTO           09952021
 000CAA D205 D59E D568 08666 08630  1460          MVC   XRLBS(LX6),XFLAS           BUFFER                        09960021
 000CB0 D200 D59D D575 08665 0863D  1461          MVC   XRIRX+NX1(LX1),XFIRX+NX1                                 09968021
 000CB6 94F6 D59D      08665        1462          NI    XRIRX+NX1,XIN2RX                                         09976021
1         COMMON SUBROUTINES                                                                                    PAGE   37
-  LOC  OBJECT CODE    ADDR1 ADDR2  STMT   SOURCE STATEMENT                                       ASM 0201 11.03 02/14/15
0                            00CBA  1463 XFI06  EQU   *                                                          09984021
 000CBA 5810 C8FC      07E8C        1464        L     XR1,XAINTR                                                 09992021
 000CBE 45E0 7E1C      00E1C        1465        BAL   XRSUB,XTBDEB          GET XINTR INFO                       10000021
 000CC2 1A32                        1466        AR    XR3,XR2                                                    10008021
 000CC4 1923                        1467 XFI09  CR    XR2,XR3                                                    10016021
 000CC6 47A0 7CDC      00CDC        1468        BC    XGTEQ,XFI10           ENTER INTR RESULT INTO TABLE         10024021
 000CCA D501 201E C88A 0001E 07E1A  1469          CLC   DX30(LX2,XR2),XMINON                                     10032021
 000CD0 4780 7CE6      00CE6        1470        BC    XZERO,XFI08           SLOT IS AVAILABLE                    10040021
 000CD4 4A20 C880      07E10        1471          AH    XR2,XC032                                                10048021
 000CD8 47F0 7CC4      00CC4        1472        BC    UNCON,XFI09           CHECK NEXT SLOT                      10056021
                             00CDC  1473 XFI10  EQU   *                                                          10064021
 000CDC 5810 C8FC      07E8C        1474        L     RW1,XAINTR                   ENTER INTERMED. RESULT IN     10072021
 000CE0 58F0 A130      00130        1475        L     XRVAR,XINST                   TAMER TABLE.                 10080021
 000CE4 05EF                        1476        BALR  RETRG,XRVAR           ASK FOR A NEW SLOT                   10088021
                             00CE6  1477 XFI08  EQU   *                                                          10096021
 000CE6 D21F 2000 D558 00000 08620  1478          MVC   DX0(XIRNLG,XR2),XFVAL     X                              10104021
0
 000CEC 47F0 700A      0000A        1480        BC    UNCON,PH5CTL          RETURN TO CONTROL                    10120021
1         COMMON SUBROUTINES                                                                                    PAGE   38
-  LOC  OBJECT CODE    ADDR1 ADDR2  STMT   SOURCE STATEMENT                                       ASM 0201 11.03 02/14/15
0                                   1482 *      XALSUB   -  DECIDE TO CALL SUB OR ADD CODE GENERATOR             10136021
                                    1483 *               -  ACCORDING THE STATUS OF THE FLAG XXSUB               10144021
-
0
 000CF0 18E1                        1485 XADSUB LR    XRSUB,XR1                                                  10160021
 000CF2 9140 D482      0854A        1486        TM    XOPMOD,XXSUB                                               10168021
 000CF6 4710 B038      016C8        1487        BC    XTHRE,SUB             GENERATE A SUBTRACT INSTRUCTION      10176021
 000CFA 47F0 BA9A      0212A        1488        BC    UNCON,ADD             GENERATE AN ADD INSTRUCTION          10184021
-
0
                                    1490 *      XYOAF    - ROUTINE  WHICH GENERATE   ZAP  TEMP,OPI USING THE     10200021
                                    1491 *               - LENGTH OF THIS OPERAND AFTER SCALING. - THE ADDRE     10208021
                                    1492 *               - OF THE OPERAND IS IN XR3 - THE LENGTH WANTED IN T     10216021
                                    1493 *               - IS IN XYLEN.                                          10224021
                                    1494 *               - THIS ROUTINE WILL RETURN THE CHARACTERISTICS OF T     10232021
                                    1495 *               - TEMPORARY STORAGE IN                                  10240021
                                    1496 *                                     -   XYTEL  LENGTH.                10248021
                                    1497 *                                     -   XEREL  ENTRY NUMBER IN TE     10256021
                                    1498 *                                     -   XEREL1 DISPLACEMENT OF EN     10264021
                                    1499 *      XYOBF    - PERFORMS THE SAME THING AS XYOAF USING THE LENGTH     10272021
                                    1500 *               - OF OPERAND BEFORE SCALING.                            10280021
                                    1501 *               - FOR BOTH ROUTINES IF OPI IS ALREADY IN TEMP WITH      10288021
                                    1502 *               - CORRECT LENGTH THE THREE OUTPUT CELLS WILL BE SET     10296021
                                    1503 *               - WITH THIS TEMPORARY STORAGE.AND IF THE LENGTH OF      10304021
                                    1504 *               - TEMPORARY STORAGE IS TOO SMALL A  ZAP TEMP,TEMP W     10312021
                                    1505 *               - BE GENERATED AND THE FIRST TEMP RELEASED.             10320021
                                    1506 *               - IN ANY CASES THE BUFFER CONTAINING THE CHARACTERI     10328021
                                    1507 *               - OF OPI WILL BE UPDATED WITH NEW POINTERS TO TEMP      10336021
                                    1508 *               -NECESSARY.                                             10344021
-
0
 000CFE D201 D43A 3010 08502 00010  1510 XYOAF    MVC   XZLENG(LX2),Y1LAS(XR3)                                   10360021
 000D04 47F0 7D0E      00D0E        1511        BC    UNCON,XYOBFO          BEGIN ROUTINE                        10368021
 000D08 D201 D43A 301E 08502 0001E  1512 XYOBF    MVC   XZLENG(LX2),Y1LBS(XR3)                                   10376021
 000D0E 900F C488      07A18        1513 XYOBFO STM   XR0,XR15,XGSAV3                                            10384021
 000D12 9500 3019      00019        1514          CLI   Y1TEL+NX1(XR3),XX00                                      10392021
                                    1515 *                                       IS OPI ALREADY IN TEMP.         10400021
 000D16 4780 7D28      00D28        1516        BC    XZERO,XY0DB                NO,                             10408021
                                    1517 *                                       YES,UPDATE OUTPUT CELL IN C     10416021
 000D1A 45E0 7DC0      00DC0        1518        BAL   XRSUB,XEWCL                STORAGE IS CORRECT.             10424021
0
 000D1E D500 3019 D485 00019 0854D  1520          CLC   Y1TEL+NX1(LX1,XR3),XYLEN   IS LENGTH LARGE ENOUGH        10440021
 000D24 47A0 7D4E      00D4E        1521        BC    XGTEQ,XYEXIT               YES,                            10448021
                             00D28  1522 XY0DB  EQU   *                                                          10456021
 000D28 4850 C892      07E22        1523          LH    XR5,XMINFV                                               10464021
1         COMMON SUBROUTINES                                                                                    PAGE   39
-  LOC  OBJECT CODE    ADDR1 ADDR2  STMT   SOURCE STATEMENT                                       ASM 0201 11.03 02/14/15
0000D2C 45E0 781A      0081A        1524        BAL   XRSUB,XZNIII               SET A-TEXT.                     10472021
 000D30 D200 D469 D485 08531 0854D  1525          MVC   XELEN+NX1(LX1),XYLEN        ASK CORRECT TEMPORARY        10480021
 000D36 45E0 7848      00848        1526        BAL   XRSUB,XTAMPO               STORAGE.                        10488021
 000D3A D201 D14A D446 08212 0850E  1527          MVC   XWC1(LX2),XEREL1          SET FIRST OPERAND.             10496021
 000D40 D200 D149 D443 08211 0850B  1528          MVC   XL1+NX1(LX1),XYTEL+NX1     X                             10504021
 000D46 45E0 B000      01690        1529          BAL   XRSUB,ZAP                NO..* ZAP  TEMP,OPE.            10512021
 000D4A 45E0 7D54      00D54        1530        BAL   XRSUB,XUPDT           UPDATE OPERAND BUFFER                10520021
 000D4E 980F C488      07A18        1531 XYEXIT LM    XR0,XR15,XGSAV3            X                               10528021
 000D52 07FE                        1532        BCR   UNCON,XRSUB                X                               10536021
0
-
0
                                    1535 *      XUPDT    - ROUTINE  WHICH ENTER THE POINTER TO THE TEMPORARY     10560021
                                    1536 *               - STORAGE IN THE BUFFER CONTAINING  OPERANDS            10568021
                                    1537 *               - INFORMATION.                                          10576021
                                    1538 *               -  INPUT    TO THIS ROUTINE  IS '                       10584021
                                    1539 *                              XYTEL   LENGTH                           10592021
                                    1540 *                              XEREL   ENTRY NUMBER IN TEMP.            10600021
                                    1541 *                              XEREL1  DISPLACEMENT OF THIS ENTRY.      10608021
                                    1542 *                         ADDRESS OF OPERAND IN XR3                     10616021
-
0
 000D54 900F C4C8      07A58        1544 XUPDT  STM   XR0,XR15,XGSAV4                                            10632021
                                    1545 *            SAVE OLD POINTERS AND ENTER NEW ONE.                       10640021
 000D58 D203 D420 3018 084E8 00018  1546          MVC   XUTEL(LX4),Y1TEL(XR3)                                    10648021
                                    1547 *                                                                       10656021
 000D5E D203 3018 D442 00018 0850A  1548          MVC   Y1TEL(LX4,XR3),XYTEL                                     10664021
 000D64 9500 D421      084E9        1549          CLI   XUTEL+NX1,XX00            IF OPERAND WAS NOT IN TEMP     10672021
 000D68 078E                        1550        BCR   XZERO,XRSUB           RETURN                               10680021
                                    1551 *            IF IT WAS RELEASE OLD TEMP.                                10688021
 000D6A D203 D442 D420 0850A 084E8  1552          MVC   XYTEL(LX4),XUTEL                                         10696021
 000D70 45E0 790E      0090E        1553        BAL   XRSUB,XERELS          BRANCH TO RELEASE ROUTINE            10704021
0
 000D74 D203 D442 3018 0850A 00018  1555          MVC   XYTEL(LX4),Y1TEL(XR3)                                    10720021
 000D7A 980F C4C8      07A58        1556          LM    XR0,XR15,XGSAV4                                          10728021
 000D7E 07FE                        1557        BCR   UNCON,XRSUB           RETURN                               10736021
-
0
 000D80 4130 D4E8      085B0        1559 XRSVAL LA    XR3,X1VAL                                                  10752021
 000D84 4150 D520      085E8        1560        LA    XR5,X2VAL                                                  10760021
 000D88 07FE                        1561        BCR   UNCON,XRSUB           RETURN                               10768021
1         COMMON SUBROUTINES                                                                                    PAGE   40
-  LOC  OBJECT CODE    ADDR1 ADDR2  STMT   SOURCE STATEMENT                                       ASM 0201 11.03 02/14/15
-
-
 000D8A 45E0 81E4      01014        1564 XODDRG BAL   XRSUB,XZWHIR          GET REGISTER INFO                    10792021
 000D8E 5840 D464      0852C        1565        L     XR4,XLIRP                                                  10800021
 000D92 5844 0004      00004        1566          L     XR4,DX4(XR4)                                             10808021
 000D96 07F1                        1567        BCR   UNCON,XR1             RETURN                               10816021
-
0
                                    1569 *      XWLDZ    -SET LENGTH OF A PRODUCT WITH A LEADING ZERO.           10832021
                                    1570 *               -CORRECT LENGTH OF PRODUCT FIELD IS RETURNED IN XMP     10840021
                                    1571 *               -NUMBER OF DIGIT OF PRODUCT IS FOUND IN   Y1FAS(XR3     10848021
-
0
 000D98 900F C508      07A98        1573 XWLDZ  STM   XR0,XR15,XGSAV5                                            10864021
 000D9C 8B10 0001      00001        1574          SLA   XR1,DX1                   XR1 = SIZE  OF  MULTIPLIER.    10872021
 000DA0 1A12                        1575        AR    XR1,XR2                                                    10880021
 000DA2 8A10 0001      00001        1576          SRA   XR1,DX1                                                  10888021
 000DA6 4111 0001      00001        1577          LA    XR1,DX1(XR1)                                             10896021
 000DAA 4010 D448      08510        1578        STH   XR1,XMPLEN                                                 10904021
 000DAE 980F C508      07A98        1579        LM    XR0,XR15,XGSAV5                                            10912021
 000DB2 07FE                        1580        BCR   UNCON,XRSUB           RETURN                               10920021
1         COMMON SUBROUTINES                                                                                    PAGE   41
-  LOC  OBJECT CODE    ADDR1 ADDR2  STMT   SOURCE STATEMENT                                       ASM 0201 11.03 02/14/15
0                                   1582 *      XXMPL    - GENERATES  MP.                                        10936021
                                    1583 *               - INPUT=  ADDRESSES OF OPERANDS CHARACTERISTIC IN       10944021
                                    1584 *               - XR3 AND XR5.                                          10952021
                                    1585 *               -         LENGHT OF PRODUCT IN XMPLEN.                  10960021
                                    1586 *               -        IF XR5 IS SET TO MINUS  THE CORRESPONDING      10968021
                                    1587 *                 OPERAND IS A GENERATED CONSTANT FOUND IN XCON WIT     10976021
                                    1588 *                 LENGHT IN XCONL.                                      10984021
                                    1589 *               - OUTPUT= IF AT LEAST ONE THE OPERANDS IS A DATA NA     10992021
                                    1590 *                 OBJECT TIME CODING WILL BE GENERATED AND THE RESU     11000021
                                    1591 *                 FIELD INFORMATION BUFFER WILL BE UPDATED WITH LOC     11008021
                                    1592 *                 ON OF PRODUCT IN TEMP.                                11016021
                                    1593 *               - IF NO OPERAND IS A DATA NAME NO OBJECT TIME CODIN     11024021
                                    1594 *                 WILL BE  GENERATED.THE PRODUCT WILLBE DONE AT         11032021
                                    1595 *                 COMPILE TIME AND STORED IN TEMP.                      11040021
-
0
 000DB4 900F C448      079D8        1597 XXMPL  STM   XR0,XR15,XGSAV2                                            11056021
 000DB8 58F0 C8BC      07E4C        1598        L     XRVAR,XSSDB2                                               11064021
                             06990  1599        USING XSSBG2,XRVAR                                               11072021
 000DBC 47F0 F560      06EF0        1600        BC    UNCON,XX000           GENERATE MULTIPLY INSTRUCTION        11080021
                                    1601        DROP  XRVAR                                                      11088021
-
0
                                    1603 *      XEWCL   - SET WC VALUE  FROM RELATIVE POINTER LOCATER IN THE     11104021
                                    1604 *              - OPERAND INFORMATION BUFFER  THE ADDRESS OF WHICH I     11112021
                                    1605 *              - IN XR3                                                 11120021
 000DC0 5050 C548      07AD8        1606 XEWCL    ST    XR5,XGSAV6                                               11128021
 000DC4 4853 001A      0001A        1607        LH    XR5,Y1TEM(XR3)                                             11136021
 000DC8 4050 D444      0850C        1608        STH   XR5,XEREL                                                  11144021
 000DCC 4C50 C868      07DF8        1609        MH    XR5,XC008                                                  11152021
 000DD0 4050 D446      0850E        1610        STH   XR5,XEREL1                                                 11160021
 000DD4 D201 D442 3018 0850A 00018  1611          MVC   XYTEL(LX2),Y1TEL(XR3)                                    11168021
 000DDA 5850 C548      07AD8        1612          L     XR5,XGSAV6                                               11176021
 000DDE 07FE                        1613        BCR   UNCON,XRSUB           RETURN                               11184021
-
0
                                    1615 *      XW000    -SALES ID OPERANDS GIVEN IN XR3 AND XR5.                11200021
                                    1616 *               -TRUNCATE INTEGERS OR DELETE DECIMAL BEFORE SCALING     11208021
                                    1617 *               -NECESSARY TO AVOID OVERFLOW.                           11216021
-
0
 000DE0 900F C408      07998        1619 XW000  STM   XR0,XR15,XGSAV1            SAVE .                          11232021
 000DE4 58F0 C8BC      07E4C        1620        L     XRVAR,XSSDB2                                               11240021
1         COMMON SUBROUTINES                                                                                    PAGE   42
-  LOC  OBJECT CODE    ADDR1 ADDR2  STMT   SOURCE STATEMENT                                       ASM 0201 11.03 02/14/15
0                            06990  1621        USING XSSBG2,XRVAR                                               11248021
 000DE8 47F0 F6B2      07042        1622        BC    UNCON,XWW00           GO TO SCALING ROUTINE                11256021
                                    1623        DROP  XRVAR                                                      11264021
-
0
                                    1625 *      KILSUB   - KILL SUBSCRIPTS OPTIMIZATION TABLE.                   11280021
                                    1626 *                                                                       11288021
                                    1627 *                                                                       11296021
 000DEC 900F C5C8      07B58        1628 KILSUB STM   XR0,XR15,XGSAV8                                            11304021
 000DF0 5810 C90C      07E9C        1629        L     XR1,XASNT                                                  11312021
 000DF4 45E0 7E1C      00E1C        1630        BAL   XRSUB,XTBDEB          GET XSSNT INFO                       11320021
 000DF8 D701 1004 1004 00004 00004  1631          XC    DX4(LX2,XR1),DX4(XR1)                                    11328021
 000DFE 5810 C904      07E94        1632        L     XR1,XASCRP                                                 11336021
 000E02 45E0 7E1C      00E1C        1633        BAL   XRSUB,XTBDEB          GET XSCRPT INFO                      11344021
 000E06 D701 1004 1004 00004 00004  1634          XC    DX4(LX2,XR1),DX4(XR1)                                    11352021
 000E0C D701 D46A D46A 08532 08532  1635          XC    XCSCEL(LX2),XCSCEL                                       11360021
 000E12 45E0 75E8      005E8        1636        BAL   XRSUB,XINITM          INITIALIZE GEN REG TABLES            11368021
 000E16 980F C5C8      07B58        1637        LM    XR0,XR15,XGSAV8                                            11376021
 000E1A 07FE                        1638        BCR   UNCON,XRSUB           RETURN                               11384021
-
-
-

                                    1640 *      XTBDEB   - ROUTINE WHICH FINDS BEGINING OF A TAMER TABLE AND     11400021
                                    1641 *               - DISPLACEMENT OF THIS TABLE.                           11408021
                                    1642 *               - INPUT  = TIB ADDRESS IN XR1.                          11416021
                                    1643 *               - OUTPUT = BEGINING OF TABLE IN XR2.                    11424021
                                    1644 *                          DISPLACT.     -   IN XR3.                    11432021
-
0
 000E1C 5811 0000      00000        1646 XTBDEB   L     XR1,DX0(XR1)              XR1 HAS TAM ADDRESS            11448021
 000E20 5821 0000      00000        1647          L     XR2,DX0(XR1)              XR2 HAS BEG.OF TABLE           11456021
 000E24 5420 C89C      07E2C        1648        N     XR2,XEMK1                  X                               11464021
 000E28 4831 0004      00004        1649          LH    XR3,DX4(XR1)              XR3 HAS NUMBER OF BYTES        11472021
 000E2C 07FE                        1650        BCR   UNCON,XRSUB                OCCUPIED  SO FAR.               11480021
1         COMMON SUBROUTINES                                                                                    PAGE   43
-  LOC  OBJECT CODE    ADDR1 ADDR2  STMT   SOURCE STATEMENT                                       ASM 0201 11.03 02/14/15
0000E30                             1652 IKF502 CSECT                                                            11496021
                             00E30  1653 COMON2 EQU     *                                                        11504021
                                    1654 *      XINSCN- SEARCH AN INTERMEDIATE RESULT IN XINTR TABLE             11512021
                                    1655 *              THE NUMBER OF THE INTER. RESULT IS IN XR6.               11520021
                                    1656 *              ADDRESS OF INTER. RESULT RETURNED IN XR6.                11528021
                                    1657 *                                                                       11536021
                                    1658 *                                                                       11544021
-
0
 000E30 185E                        1660 XINSCN LR    RW5,RETRG                                                  11560021
 000E32 5810 C8FC      07E8C        1661        L     XR1,XAINTR                                                 11568021
 000E36 45E0 7E1C      00E1C        1662        BAL   XRSUB,XTBDEB          GET XINTR INFO                       11576021
 000E3A 1A32                        1663        AR    XR3,XR2                                                    11584021
 000E3C 1932                        1664 XINSC1 CR    XR3,XR2                                                    11592021
 000E3E 47C0 8026      00E56        1665        BC    XLOEQ,XGLOG                ABNORMAL END OF TABLE XINTR     11600021
 000E42 4962 001E      0001E        1666          CH    XR6,DX30(XR2)                                            11608021
 000E46 4780 8022      00E52        1667        BC    XZERO,XG0P2           RIGHT ENTRY FOUND                    11616021
 000E4A 4122 0020      00020        1668          LA    XR2,DX32(XR2)                                            11624021
 000E4E 47F0 800C      00E3C        1669        BC    UNCON,XINSC1          CHECK NEXT ENTRY                     11632021
                             00E52  1670 XG0P2  EQU   *                                                          11640021
 000E52 1862                        1671        LR    XR6,XR2                    XR6 HAS ADDRECS OF INTER RE     11648021
 000E54 07F5                        1672        BCR   UNCON,RW5             RETURN                               11656021
                                    1673 *                                                                       11664021
                                    1674 *                                                                       11672021
                                    1675 *      ERROR NUMBER 12.                                                 11680021
                                    1676 *                                                                       11688021
 000E56 45E0 7AC0      00AC0        1677 XGLOG  BAL   XRSUB,ERRPRO          PROCESS ERROR                        11696021
 000E5A 0C                          1678        DC    AL1(ERRN12)                                                11704021
 000E5B 08                          1679        DC    AL1(8)                                                     11712021
                                    1680 *                                                                       11720021
                                    1681 *                                                                       11728021
-
0
                                    1683 *      XLENGH   -GET LENGHT OF A DATA-NAME                              11744021
                                    1684 *               -INPUT - INPUT STRING GIVEN BY PH5 CONTROL.             11752021
                                    1685 *               -OUTPUT   FIXED LENGHT IN XOPLGH                        11760021
                                    1686 *                         VARIABLE  -   IN XOPVLC                       11768021
                                    1687 *                     IN ADDITION FOR A NUMERIC ELEMENTARY ITEM=        11776021
                                    1688 *                              XIDBY = LENGHT OF ITEM IN ID MODE.       11784021
                                    1689 *                              XBDBY = LENGHT -   -   -  BI   - .       11792021
                                    1690 *                              XIDDN = NUMBER OF DIGIT                  11800021
-
0
 000E5C 900F C488      07A18        1692 XLENGH STM   XR0,XR15,XGSAV3                                            11816021
 000E60 58F0 C8BC      07E4C        1693        L     XRVAR,XSSDB2                                               11824021
                             06990  1694        USING XSSBG2,XRVAR                                               11832021
1         COMMON SUBROUTINES                                                                                    PAGE   44
-  LOC  OBJECT CODE    ADDR1 ADDR2  STMT   SOURCE STATEMENT                                       ASM 0201 11.03 02/14/15
0000E64 47F0 F1CC      06B5C        1695        BC    UNCON,XSUDB2          GO TO BRANCH ROUTINE                 11840021
                                    1696        DROP  XRVAR                                                      11848021
-
-
-

                                    1698 *      XIS31    -UPDATE ANY SUBSCRIPTED  DATA-NAME WITH NEW I,D,K F     11864021
                                    1699 *                IN INPUT STRING                                        11872021
-
0
 000E68 900F C408      07998        1701 XIS31  STM   XR0,XR15,XGSAV1                                            11888021
 000E6C 58F0 C8BC      07E4C        1702        L     XRVAR,XSSDB2                                               11896021
                             06990  1703        USING XSSBG2,XRVAR                                               11904021
 000E70 47F0 F2EE      06C7E        1704        BC    UNCON,XSUDB3          GO TO UPDATE ROUTINE                 11912021
                                    1705        DROP  XRVAR                                                      11920021
-
-
-

 000E74 900F C548      07AD8        1707 XPACK  STM   XR0,XR15,XGSAV6                                            11936021
 000E78 58F0 C8E4      07E74        1708        L     XRVAR,FPALOD                                               11944021
                             05D38  1709        USING FPLLOD,XRVAR                                               11952021
 000E7C 47F0 F000      05D38        1710        BC    UNCON,XPPACK          GO TO PACK ROUTINE                   11960021
                                    1711        DROP  XRVAR                                                      11968021
-
-
-

                                    1713 *      XRSASG   - ASSIGNS A SINGLE REGISTER - RETURNS THE REGISTER      11984021
                                    1714 *               - NUMBER IN XREGNO. THE REGISTERS ARE ASSIGNED WITH     11992021
                                    1715 *               - THE FOLLOWING PRIORITY ORDER -                        12000021
                                    1716 *                                 1) FREE REGISTER AVAILABLE            12008021
                                    1717 *                                        A)NOT BELONGING TO AN ODD-     12016021
                                    1718 *                                          PAIR                         12024021
1         COMMON SUBROUTINES                                                                                    PAGE   45
-  LOC  OBJECT CODE    ADDR1 ADDR2  STMT   SOURCE STATEMENT                                       ASM 0201 11.03 02/14/15
0                                   1719 *                                        B)ODD REGISTER OF A PAIR       12032021
                                    1720 *                                        C)EVEN REGISTER OF A PAIR      12040021
                                    1721 *                                 2)NO FREE REGISTER AVAILABLE          12048021
                                    1722 *                                        A)NOT BELONGING TO A PAIR      12056021
                                    1723 *                                          NOT OCCUPIED BY AN OPERA     12064021
                                    1724 *                                          OF THE ACTUAL OPERATION.     12072021
                                    1725 *                                        B)NOT OCCUPIED BY AN OPERA     12080021
                                    1726 *                                          OF THE ACTUAL OPERATION      12088021
                                    1727 *                                          THE ODD REGISTER PREFERE     12096021
                                    1728 *                                          THE EVEN                     12104021
-
0
 000E80 900F C4C8      07A58        1730 XRSASF STM   XR0,XR15,XGSAV4                                            12120021
 000E84 4110 D3E8      084B0        1731        LA    XR1,FPRTB2                                                 12128021
 000E88 4120 D408      084D0        1732        LA    XR2,FPRTBD                                                 12136021
 000E8C 47F0 8082      00EB2        1733        BC    UNCON,XRA09           ASSIGN A FL PT REG                   12144021
0
 000E90 900F C4C8      07A58        1735 XRSUAS STM   XR0,XR15,XGSAV4                                            12160021
 000E94 4110 D648      08710        1736        LA    XR1,XRAUR4                                                 12168021
 000E98 4120 D628      086F0        1737        LA    XR2,XRAUR2                                                 12176021
 000E9C 4830 C868      07DF8        1738          LH    XR3,XC008                                                12184021
 000EA0 1333                        1739        LCR   XR3,XR3                                                    12192021
 000EA2 47F0 8086      00EB6        1740        BC    UNCON,XRA08           ASSIGN A GEN REG                     12200021
 000EA6 900F C4C8      07A58        1741 XRSASG STM   XR0,XR15,XGSAV4                                            12208021
 000EAA 4110 D628      086F0        1742        LA    XR1,XRAUR2                                                 12216021
 000EAE 4120 D650      08718        1743        LA    XR2,XRAU14                                                 12224021
                             00EB2  1744 XRA09  EQU   *                                                          12232021
 000EB2 4830 C868      07DF8        1745          LH    XR3,XC008                                                12240021
 000EB6 1841                        1746 XRA08  LR    XR4,XR1                                                    12248021
 000EB8 4150 8090      00EC0        1747        LA    XR5,XRA02                  TABLE FOR REGISTER              12256021
 000EBC 4160 80A0      00ED0        1748        LA    XR6,XRA01                                                  12264021
 000EC0 9104 4002      00002        1749 XRA02    TM    DX2(XR4),XRFREE           IS THIS REGISTER FREE.         12272021
 000EC4 4780 80CC      00EFC        1750        BC    XZERO,XRAEXI               YES SET RG NUMBER AND EXIT      12280021
                                    1751 *                                                                       12288021
                                    1752 *                                                                       12296021
0
 000EC8 1942                        1754 XRA00  CR    XR4,XR2                                                    12312021
 000ECA 0786                        1755        BCR   XZERO,XR6                  YES-TAKE NEXT STEP.             12320021
 000ECC 1A43                        1756        AR    XR4,XR3                                                    12328021
 000ECE 07F5                        1757        BCR   UNCON,XR5             TEST NEXT REG                        12336021
0
 000ED0 1841                        1759 XRA01  LR    XR4,XR1                                                    12352021
 000ED2 4150 80AA      00EDA        1760        LA    XR5,XRA03                  SET UP TRANSFER REGISTERS.      12360021
 000ED6 4160 80B6      00EE6        1761        LA    XR6,XRA05                                                  12368021
 000EDA 914B 4002      00002        1762 XRA03    TM    DX2(XR4),XRVADS           IS IT USED IN A PAIR OR BY     12376021
 000EDE 4770 8098      00EC8        1763        BC    XNOEQ,XRA00                OPERAND OF THE OPERATION.       12384021
                                    1764 *                                       NO,SET REG.NUMBER.              12392021
                                    1765 *                                       SAVE CONTENT OF REG. IN TEM     12400021
 000EE2 47F0 80C8      00EF8        1766        BC    UNCON,XRAETX          SAVE REG                             12408021
1         COMMON SUBROUTINES                                                                                    PAGE   46
-  LOC  OBJECT CODE    ADDR1 ADDR2  STMT   SOURCE STATEMENT                                       ASM 0201 11.03 02/14/15
0000EE6 1841                        1768 XRA05  LR    XR4,XR1                                                    12424021
 000EE8 4150 80C0      00EF0        1769        LA    XR5,XRA07                                                  12432021
 000EEC 4160 80CC      00EFC        1770        LA    XR6,XRAEXI                                                 12440021
 000EF0 9143 4002      00002        1771 XRA07    TM    DX2(XR4),XSVA12           IS IT OCCUPIED BY AN OPER.     12448021
 000EF4 4770 8098      00EC8        1772        BC    XNOEQ,XRA00                THE STRING.                     12456021
                                    1773 *                                       NO,SET REG NUMBER.              12464021
 000EF8 45E0 80DC      00F0C        1774 XRAETX BAL   XRSUB,XRSTOR               SAVE REG.                       12472021
                                    1775 *                                       RETURN.                         12480021
 000EFC D200 D48A 4003 08552 00003  1776 XRAEXI   MVC   XREGNO(LX1),DX3(XR4)                                     12488021
 000F02 5040 D464      0852C        1777        ST    XR4,XLIRP                                                  12496021
 000F06 980F C4C8      07A58        1778        LM    XR0,XR15,XGSAV4                                            12504021
 000F0A 07FE                        1779        BCR   UNCON,XRSUB           RETURN                               12512021
1         COMMON SUBROUTINES                                                                                    PAGE   47
-  LOC  OBJECT CODE    ADDR1 ADDR2  STMT   SOURCE STATEMENT                                       ASM 0201 11.03 02/14/15
0                                   1781 *      XRSTOR  - SAVE CONTENTS OF A NEWLY ASSIGNED REGISTER IN A        12528021
                                    1782 *              - TEMPORARY STORAGE                                      12536021
                                    1783 *                                             NEEDS ADDRESS OF INFO     12544021
                                    1784 *              - TABLE OF THIS REGISTER IN XR4.                         12552021
                                    1785 *              - GENERATES  ST OR STM INSTRUCTIONS NEEDED AT OBJECT     12560021
                                    1786 *              - TIME.                                                  12568021
-
0
 000F0C 900F C508      07A98        1788 XRSTOR STM   XR0,XR15,XGSAV5                                            12584021
 000F10 58F0 C8BC      07E4C        1789        L     XRVAR,XSSDB2                                               12592021
                             06990  1790        USING XSSBG2,XRVAR                                               12600021
 000F14 47F0 F404      06D94        1791        BC    UNCON,XSUDB4          GO TO SAVE REG ROUTINE               12608021
                                    1792        DROP  XRVAR                                                      12616021
1         COMMON SUBROUTINES                                                                                    PAGE   48
-  LOC  OBJECT CODE    ADDR1 ADDR2  STMT   SOURCE STATEMENT                                       ASM 0201 11.03 02/14/15
0                                   1794 *      XSLODB   - LOAD AN OPERAND IN A DOUBLE  REGISTER.                12632021
                                    1795 *               - INPUT.                                                12640021
                                    1796 *                         ADDRESS OF OPERAND IN XR3.                    12648021
                                    1797 *               - OUTPUT                                                12656021
                                    1798 *                        A) IF OPERAND IS TWO WORDS,GENERATES           12664021
                                    1799 *                                                                       12672021
                                    1800 *                                                       LM  R1,R2,O     12680021
                                    1801 *                        B) IF OPERAND IS ONE WORD ,GENERATES           12688021
                                    1802 *                                                       L   R0,OP       12696021
                                    1803 *                                                     SRDA  R0,32       12704021
                                    1804 *                        C) IF OPERAND IS IN IR AND AN EVEN-ODD PAI     12712021
                                    1805 *                           IS FREE            LR   R0,RI               12720021
                                    1806 *                                              SRDA R0,32               12728021
                                    1807 *                        D) IF OPERAND IS A SINGLE WORD IN              12736021
                                    1808 *                           THE EVEN OF A PAIR OF IR .                  12744021
                                    1809 *                                       (IF NECESSARY) ST  R1, TEMP     12752021
                                    1810 *                                                     SRDA R0,32        12760021
                                    1811 *                             OR IN THE ODD IR OF A PAIR                12768021
                                    1812 *                                       (IF NECESSARY) ST  R0,TEMP      12776021
                                    1813 *                                                      LR  R0,R1        12784021
                                    1814 *                                                    SRDA  R0,32        12792021
                                    1815 *                                                                       12800021
                                    1816 *                             OR IN IR NOT BELONGING TO A PAIR          12808021
                                    1817 *                                       (IF NECESSARY)STM  R0,R1,TE     12816021
                                    1818 *                                                     LR   R0,RK        12824021
                                    1819 *                                                     SRDA R0,32        12832021
                                    1820 *                                                                       12840021
                                    1821 *      XSLOAS  -  LOADS AN OPERAND IN A REGISTER USING THE LENGHT       12848021
                                    1822 *              -  AFTER SCALING.                                        12856021
                                    1823 *              -  INPUT. ADDRESS OF OPERAND IN XR3.                     12864021
                                    1824 *              -  OUTPUT.                                               12872021
                                    1825 *                             L  R,OP                                   12880021
                                    1826 *                                                                       12888021
                                    1827 *               -  THE 2 PRECEDING ROUTINES ASSIGN REGISTERS- SAVE      12896021
                                    1828 *              -  REGISTER TO BE USED IF NECESSARY -AND SET CORRECT     12904021
                                    1829 *                 INFORMATION IN INFORMATION BUFFER THE ADDRESS OF      12912021
                                    1830 *                 WHICH IS IN XR3.                                      12920021
                                    1831 *                                                                       12928021
                                    1832 *      XSLGVX  -  LOAD  OPERAND IN A GIVEN IR THE NUMBER OF WHICH I     12936021
                                    1833 *                 IN XREGNO,AND WORKS LIKE XSLOAS                       12944021
                                    1834 *                                                                       12952021
                                    1835 *       XSLGVB  -  LOAD OPERAND IN A GIVEN PAIR OF IR, THE NUMBER OF    12960021
                                    1836 *                 WHICH IS IN XREGNP                                    12968021
-
0
 000F18 9203 D486      0854E        1838 XSLGVB MVI   XSLSW,XL2RSX                                               12984021
 000F1C D200 D48A D48B 08552 08553  1839          MVC   XREGNO(LX1),XREGNP                                       12992021
 000F22 47F0 810A      00F3A        1840          B     XSLSX               SET LENGTH                           13000021
0
 000F26 9201 D486      0854E        1842 XSLODB MVI   XSLSW,XL2REG               LOAD IN A DOUBLE IR.            13016021
 000F2A 47F0 810A      00F3A        1843          B     XSLSX               SET LENGTH                           13024021
1         COMMON SUBROUTINES                                                                                    PAGE   49
-  LOC  OBJECT CODE    ADDR1 ADDR2  STMT   SOURCE STATEMENT                                       ASM 0201 11.03 02/14/15
0000F2E 9202 D486      0854E        1845 XSLGVX MVI   XSLSW,XLASRX               LOAD IN A GIVEN IR AFTER SC     13040021
 000F32 47F0 810A      00F3A        1846          B     XSLSX               SET LENGTH                           13048021
0
 000F36 9200 D486      0854E        1848 XSLOAS   MVI   XSLSW,XX00                LOAD IN AN IR AFTER SCALING    13064021
 000F3A D201 D43A 3020 08502 00020  1849 XSLSX    MVC   XZLENG(LX2),Y1BBS(XR3)    SET LENGHT FOR A-TEXT SET U    13072021
0
 000F40 900F C488      07A18        1851          STM   XR0,XR15,XGSAV3          SAVE                            13088021
 000F44 58F0 C8E4      07E74        1852        L     XRVAR,FPALOD                                               13096021
                             05D38  1853        USING FPLLOD,XRVAR                                               13104021
 000F48 47F0 F3C6      060FE        1854        BC    UNCON,LOADEB          GO TO LOAD ROUTINE                   13112021
                                    1855        DROP  XRVAR                                                      13120021
-
-
-

                                    1857 *                                                                       13136021
                                    1858 *      FPLOAD   - LOAD A FLOATING POINT OPERAND IN A REGISTER  IN       13144021
                                    1859 *                 LONG FORM  IF OPERAND IS A DP FLOATING POINT OPER     13152021
                                    1860 *                 OR IN SHORT FORM OTHERWISE.                           13160021
                                    1861 *                                                                       13168021
                                    1862 *      FPLDS    - LOAD A FLOATING POINT OPERAND IN A REGISTER-SHORT     13176021
                                    1863 *                 FORM                                                  13184021
                                    1864 *                                                                       13192021
                                    1865 *      FPLDL    - LOAD A FLOATING POINT OPERAND IN A REGISTER-LONG      13200021
                                    1866 *                 FORM                                                  13208021
                                    1867 *                                                                       13216021
                                    1868 *      FPLD0    - LOAD A FLOATING POINT OPERAND IN REGISTER 0 -LONG     13224021
                                    1869 *                 FORM                                                  13232021
0
                                    1871 *               - XR3 WILL POINT TO X(I)VAL  I =1 OR 2                  13248021
-
0
 000F4C 9104 301D      0001D        1873 FPLOAD   TM    Y1IRX+NX1(XR3),XGDPFP                                    13264021
 000F50 4710 812C      00F5C        1874        BC    XTHRE,FPLDL           OPERAND IS DP                        13272021
0
 000F54 9201 D486      0854E        1876 FPLDS    MVI   XSLSW,XX01                LOAD IN SHORT FORM.            13288021
 000F58 47F0 8138      00F68        1877        BC    UNCON,FPL01           SAVE REGS                            13296021
0
 000F5C 9202 D486      0854E        1879 FPLDL    MVI   XSLSW,XX02                LOAD IN LONG FORM.             13312021
 000F60 47F0 8138      00F68        1880        BC    UNCON,FPL01           SAVE REGS                            13320021
1         COMMON SUBROUTINES                                                                                    PAGE   50
-  LOC  OBJECT CODE    ADDR1 ADDR2  STMT   SOURCE STATEMENT                                       ASM 0201 11.03 02/14/15
0000F64 9200 D486      0854E        1882 FPLD0    MVI   XSLSW,XX00                LOAD IN 0 - LONG FORM.         13336021
 000F68 900F C488      07A18        1883 FPL01  STM   XR0,XR15,XGSAV3                                            13344021
 000F6C 58F0 C8E4      07E74        1884        L     XRVAR,FPALOD                                               13352021
                             05D38  1885        USING FPLLOD,XRVAR                                               13360021
 000F70 47F0 F7AA      064E2        1886        BC    UNCON,FPLLLB          GO TO FL PT LOAD ROUTINE             13368021
                                    1887        DROP  XRVAR                                                      13376021
-
0
                                    1889 *      XRDBIR  - ASSIGNS A EVEN-ODD PAIR OF REGISTERS. EVEN IR NUMB     13392021
                                    1890 *              - IS RETURNED IN XREGNP - IR INFORMATION TABLE ADDRE     13400021
                                    1891 *              - OF THE EVEN REG.IS RETURNED IN XLIRP.                  13408021
                                    1892 *                                                                       13416021
-
0
                             00F74  1894 XRDBIR EQU   *                                                          13432021
 000F74 900F C4C8      07A58        1895          STM   XR0,XR15,XGSAV4          SAVE                            13440021
 000F78 4160 D650      08718        1896        LA    XR6,XRAU14                 LOAD XR6 WITH ADDRESS OF LA     13448021
                                    1897 *                                       IR.                             13456021
 000F7C 4140 D640      08708        1898        LA    XR4,XRAU22                 XR4 HAS ADDRESS OF FIRST EV     13464021
                                    1899 *                                       REG.                            13472021
 000F80 5834 0004      00004        1900          L     XR3,DX4(XR4)              XR3 HAS CORRESPONDING ODD.     13480021
 000F84 9104 4002      00002        1901 XRB02    TM    DX2(XR4),XRFREE                                          13488021
 000F88 4710 8174      00FA4        1902        BC    XTHRE,XRB03                THIS PAIR NOT FREE.             13496021
 000F8C 9104 3002      00002        1903          TM    DX2(XR3),XRFREE                                          13504021
 000F90 4710 8174      00FA4        1904        BC    XTHRE,XRB03           ODD REG NOT FREE                     13512021
0
 000F94 5040 D464      0852C        1906 XRBEXI ST    XR4,XLIRP                  SET OUTPUT INFORMATION FOR      13528021
 000F98 D200 D48B 4003 08553 00003  1907          MVC   XREGNP(LX1),DX3(XR4)       ASSIGNED PAIR.                13536021
0
 000F9E 980F C4C8      07A58        1909          LM    XR0,XR15,XGSAV4          EXIT                            13552021
 000FA2 07FE                        1910        BCR   UNCON,XRSUB           RETURN                               13560021
0
 000FA4 1946                        1912 XRB03  CR    XR4,XR6                                                    13576021
 000FA6 4740 81D8      01008        1913        BC    XONE,XRB04            NOT AT END OF TABLE                  13584021
                                    1914 *                                                                       13592021
 000FAA 4140 D640      08708        1915          LA    XR4,XRAU22          ASSIGN FIRST PAIR NOT OCCUPIED       13600021
 000FAE 5834 0004      00004        1916          L     XR3,DX4(XR4)              BY AN OPERAND OF THE SAME      13608021
 000FB2 9103 4002      00002        1917 XRB09    TM    DX2(XR4),XRVA12           STRING.                        13616021
 000FB6 4770 81C0      00FF0        1918        BC    XNOEQ,XRB06               OCCUPIED BY PERAND OF THE        13624021
                                    1919 *                                       STRING.                         13632021
 000FBA 9103 3002      00002        1920          TM    DX2(XR3),XRVA12           SAME TEST FOR 2ND REG.OF TH    13640021
 000FBE 4770 81C0      00FF0        1921        BC    XNOEQ,XRB06                PAIR.                           13648021
 000FC2 41E0 8164      00F94        1922        LA    XRSUB,XRBEXI               IF REGISTER USED IN DP MODE     13656021
 000FC6 9108 4002      00002        1923          TM    DX2(XR4),XRDPRE           GENERATE STM                   13664021
 000FCA 4710 80DC      00F0C        1924        BC    XTHRE,XRSTOR               X                               13672021
                                    1925 *                                                                       13680021
1         COMMON SUBROUTINES                                                                                    PAGE   51
-  LOC  OBJECT CODE    ADDR1 ADDR2  STMT   SOURCE STATEMENT                                       ASM 0201 11.03 02/14/15
0000FCE 9104 4002      00002        1927          TM    DX2(XR4),XRFREE         IF NOT, SAVE REGISTERS           13696021
 000FD2 4780 81AA      00FDA        1928        BC    XZERO,XRB08                SEPARATELY IF NEEDED.           13704021
 000FD6 45E0 80DC      00F0C        1929        BAL   XRSUB,XRSTOR               X                               13712021
 000FDA 9104 3002      00002        1930 XRB08    TM    DX2(XR3),XRFREE           X                              13720021
 000FDE 4780 8164      00F94        1931        BC    XZERO,XRBEXI               X                               13728021
 000FE2 1843                        1932        LR    XR4,XR3                    X                               13736021
 000FE4 45E0 80DC      00F0C        1933        BAL   XRSUB,XRSTOR               X                               13744021
 000FE8 5844 0004      00004        1934          L     XR4,DX4(XR4)              X                              13752021
 000FEC 47F0 8164      00F94        1935        BC    UNCON,XRBEXI               X                               13760021
 000FF0 1946                        1936 XRB06  CR    XR4,XR6                                                    13768021
 000FF2 4780 81D2      01002        1937        BC    XZERO,XRLOG                THRE PAIRS OCCUPIED BY THE      13776021
 000FF6 4144 0008      00008        1938        LA    XR4,XRNEXI(XR4)            STRING - LOG.ERROR.             13784021
 000FFA 5834 0004      00004        1939          L     XR3,DX4(XR4)              NOT ALL PAIR EXAMINED,TRY N    13792021
 000FFE 47F0 8182      00FB2        1940        BC    UNCON,XRB09                ONE.                            13800021
                                    1941 *                                                                       13808021
                                    1942 *      LOGIC ERROR NUMBER 1                                             13816021
                                    1943 *                                                                       13824021
 001002 45E0 7AC0      00AC0        1944 XRLOG  BAL   XRSUB,ERRPRO          GO TO ERROR PROCESSOR                13832021
 001006 01                          1945        DC    AL1(ERRN01)                                                13840021
 001007 08                          1946        DC    AL1(8)                                                     13848021
                                    1947 *                                                                       13856021
 001008 4144 0008      00008        1948 XRB04  LA    XR4,XRNEXI(XR4)                                            13864021
 00100C 5834 0004      00004        1949          L     XR3,DX4(XR4)                                             13872021
 001010 47F0 8154      00F84        1950        BC    UNCON,XRB02           CHECK NEXT PAIR                      13880021
1         COMMON SUBROUTINES                                                                                    PAGE   52
-  LOC  OBJECT CODE    ADDR1 ADDR2  STMT   SOURCE STATEMENT                                       ASM 0201 11.03 02/14/15
0                                   1952 *      XZWHIR  - IF OPERAND,OF WHICH THE ADDRESS OF TABLE INFO.IS I     13896021
                                    1953 *                XR3,IS IN REG ,XLIRP WILL BE SET WITH ADDRESS OF T     13904021
                                    1954 *                INFO FOR THAT REGISTER - IF NOT OPERAND WILL BE        13912021
                                    1955 *                SUPPOSED TO BE LOADED IN IR INFO TABLE OF WHICH IS     13920021
                                    1956 *                XR4. OP.TABLE AND IR TABLE WILL BE UPDATED ACCORDI     13928021
                                    1957 *                THAT FACT.                                             13936021
-
0
 001014 900F C4C8      07A58        1959 XZWHIR   STM   XR0,XR15,XGSAV4                                          13952021
 001018 9108 301D      0001D        1960          TM    Y1IRX+NX1(XR3),XINREG     IS OP IN REG                   13960021
 00101C 4710 8238      01068        1961        BC    XTHRE,XZWH04               YES                             13968021
 001020 F100 301C 4003 0001C 00003  1962          MVO   Y1IRX(LX1,XR3),DX3(LX1,XR4)                              13976021
 001026 9608 301D      0001D        1963          OI    Y1IRX+NX1(XR3),XINREG     X    AND SET FLAG IN IR  AL    13984021
 00102A D402 4000 C8B7 00000 07E47  1964          NC    DX0(LX3,XR4),XREMK6                                      13992021
 001030 9604 4002      00002        1965          OI    DX2(XR4),XRFREE           X                              14000021
 001034 5930 C8C0      07E50        1966        C     XR3,XAVAL1                 X                               14008021
 001038 4780 8214      01044        1967        BC    XZERO,XZWH01               X                               14016021
 00103C 9602 4002      00002        1968          OI    DX2(XR4),XRVAL2           X                              14024021
 001040 47F0 8218      01048        1969        BC    UNCON,XZWH03               X                               14032021
 001044 9601 4002      00002        1970 XZWH01   OI    DX2(XR4),XRVAL1           X                              14040021
 001048 9500 3019      00019        1971 XZWH03   CLI   Y1TEL+NX1(XR3),XX00                                      14048021
 00104C 4780 8238      01068        1972        BC    XZERO,XZWH04               RELEASE TEMP IF NECESSARY       14056021
 001050 95BC D6BC      08784        1973        CLI   DOP1,TEMRES           IF OP IS A TEMPORARY RESULT          14064021
 001054 4780 8232      01062        1974        BE    XZWH06                DO NOT RELEASE TEMP STORAGE          14072021
 001058 D203 D442 3018 0850A 00018  1975          MVC   XYTEL(LX4),Y1TEL(XR3)                                    14080021
 00105E 45E0 790E      0090E        1976        BAL   XRSUB,XERELS              X                                14088021
 001062 D203 3018 C850 00018 07DE0  1977 XZWH06   MVC   Y1TEL(LX4,XR3),XC000                                     14096021
0
 001068 F300 D48A 301C 08552 0001C  1979 XZWH04   UNPK  XREGNO(LX1),Y1IRX(LX1,XR3) MOVE ZONE TO NUMBERIC         14112021
 00106E 940F D48A      08552        1980          NI    XREGNO,XX0F                                              14120021
 001072 41E0 8252      01082        1981        LA    XRSUB,XZWH05                                               14128021
 001076 9120 301D      0001D        1982          TM    Y1IRX+NX1(XR3),XFTPT                                     14136021
 00107A 4710 8258      01088        1983        BC    XTHRE,XFWHIR          REG IS A FL PT REG                   14144021
 00107E 47F0 8264      01094        1984        BC    UNCON,XLWHIR          REG IS A GEN REG                     14152021
                             01082  1985 XZWH05 EQU   *                                                          14160021
 001082 980F C4C8      07A58        1986          LM    XR0,XR15,XGSAV4                                          14168021
 001086 07FE                        1987        BCR   UNCON,XRSUB                X                               14176021
1         COMMON SUBROUTINES                                                                                    PAGE   53
-  LOC  OBJECT CODE    ADDR1 ADDR2  STMT   SOURCE STATEMENT                                       ASM 0201 11.03 02/14/15
0                                   1989 *      XLWHIR   -  SET XLIRP WITH  BUFFER ADDRESS OF INFORMATION        14192021
                                    1990 *               -  TABLE  OF A GIVEN REGISTER  OF WHICH THE NUMBER      14200021
                                    1991 *               -  IN XREGNO                                            14208021
-
0
 001088 900F C508      07A98        1993 XFWHIR STM   XR0,XR15,XGSAV5            SCAN FP.REG TABLE.              14224021
 00108C 4120 D3E8      084B0        1994        LA    XR2,FPRTB2                                                 14232021
 001090 47F0 826C      0109C        1995        BC    UNCON,XLW00           BEGIN                                14240021
 001094 900F C508      07A98        1996 XLWHIR STM   XR0,XR15,XGSAV5                                            14248021
 001098 4120 D628      086F0        1997        LA    XR2,XRAUR2                 XR2 HAS ADDRESS IF FIRST IR     14256021
 00109C D500 D48A 2003 08552 00003  1998 XLW00    CLC   XREGNO(LX1),DX3(XR2)                                     14264021
 0010A2 4780 827E      010AE        1999        BC    XZERO,XLW01           THIS IS CORRECT REG TBL              14272021
 0010A6 4122 0008      00008        2000        LA    XR2,XRNEXI(XR2)            GET NEXT IR TABLE               14280021
 0010AA 47F0 826C      0109C        2001        BC    UNCON,XLW00           NEXT TBL                             14288021
0
 0010AE 5020 D464      0852C        2003 XLW01  ST    XR2,XLIRP                  SET XLIRP                       14304021
 0010B2 980F C508      07A98        2004        LM    XR0,XR15,XGSAV5            RETURN                          14312021
 0010B6 07FE                        2005        BCR   UNCON,XRSUB           RETURN                               14320021
1         COMMON SUBROUTINES                                                                                    PAGE   54
-  LOC  OBJECT CODE    ADDR1 ADDR2  STMT   SOURCE STATEMENT                                       ASM 0201 11.03 02/14/15
0                                   2007 *      XZSCL    -GENERATE CODING FOR SCALING IN BINARY. OPERAND BUF     14336021
                                    2008 *                ADDRESS IN XR3.                                        14344021
                                    2009 *                                                                       14352021
                                    2010 *      XZBMP    -GENERATE CODES FOR BINARY MULTIPLICATION-OPERAND       14360021
                                    2011 *                BUFFERS ADDRESSES IN XR3 AND XR5.                      14368021
                                    2012 *                                                                       14376021
                                    2013 ********                  -GENERATED CODES-                    ****     14384021
-
0
 0010B8 9201 D487      0854F        2015 XZSCL    MVI   XZCSW,XX01                SCALING.                       14400021
 0010BC 47F0 8294      010C4        2016        BC    UNCON,XZSC1           GO TO MULTIPLY ROUTINE               14408021
 0010C0 9200 D487      0854F        2017 XZBMP    MVI   XZCSW,XX00                MULTIPLY                       14416021
 0010C4 900F C448      079D8        2018 XZSC1  STM   XR0,XR15,XGSAV2                                            14424021
 0010C8 58F0 C8E4      07E74        2019        L     XRVAR,FPALOD                                               14432021
                             05D38  2020        USING FPLLOD,XRVAR                                               14440021
 0010CC 47F0 F516      0624E        2021        BC    UNCON,XZBEG           GO TO MULTIPLY ROUTINE               14448021
                                    2022        DROP  XRVAR                                                      14456021
-
0
                                    2024 *      XSCBOA  CHECK IF SCALING IS POSSIBLE IN BINARY THROUGH A SIN     14472021
                                    2025 *              MULTIPLY OR A DIVIDE.                                    14480021
                                    2026 *              IF YES RETURN AT 4(XRSUB)                                14488021
                                    2027 *              IF NO RETURN AT  0(XRSUB)                                14496021
0
 0010D0 9508 3013      00013        2029 XSCBOA   CLI   Y1BAS+NX1(XR3),XX08                                      14512021
 0010D4 072E                        2030        BCR   XTWO,XRSUB                 BI SCALING IMPOSSIBLE.          14520021
 0010D6 4823 0026      00026        2031        LH    XR2,Y1ALP(XR3)                                             14528021
 0010DA 1002                        2032        LPR   XR0,XR2                                                    14536021
 0010DC 4900 C86A      07DFA        2033        CH    XR0,XC009                  IS DIVISOR OR MULTIPLIER GT     14544021
 0010E0 072E                        2034        BCR   XTWO,XRSUB                 ONE WORD - YES  NO BI SCALI     14552021
 0010E2 1222                        2035        LTR   XR2,XR2                                                    14560021
 0010E4 4740 82C2      010F2        2036        BC    XONE,XSCBO1           THIS IS A NEG SCALE                  14568021
 0010E8 9504 3021      00021        2037          CLI   Y1BBS+NX1(XR3),XX04       IS OPERAND GT ONE WORD         14576021
 0010EC 072E                        2038 XSCBO2 BCR   XTWO,XRSUB                 YES - NO BI SCALING.            14584021
 0010EE 47FE 0004      00004        2039          BC    UNCON,DX4(XRSUB)          BINARY SCALING FEASIBLE.       14592021
 0010F2 9504 3013      00013        2040 XSCBO1   CLI   Y1BAS+NX1(XR3),XX04       IS QUOTIENT  GT  ONE WORD      14600021
 0010F6 47F0 82BC      010EC        2041        BC    UNCON,XSCBO2          RETURN                               14608021
1         COMMON SUBROUTINES                                                                                    PAGE   55
-  LOC  OBJECT CODE    ADDR1 ADDR2  STMT   SOURCE STATEMENT                                       ASM 0201 11.03 02/14/15
0                                   2043 *      XBIIDB  - CONVERT OPERAND FROM BINARY TO ID                      14624021
                                    2044 *              - XR3 POINTS TO XIVAL BUFFER   I = 1,2                   14632021
-
0
 0010FA 900F C5C8      07B58        2046 XBIIDB STM   XR0,XR15,XGSAV8                                            14648021
 0010FE 58F0 C8E4      07E74        2047          L     XRVAR,FPALOD                                             14656021
                             05D38  2048        USING FPLLOD,XRVAR                                               14664021
 001102 47F0 F0A6      05DDE        2049        BC    UNCON,XBIIDU          GO TO CONVERT ROUTINE                14672021
                                    2050        DROP  XRVAR                                                      14680021
-
-
-

                                    2052 *      XIDBIB   - CONVERT  FROM  ID  TO BI  BEFORE SCALING.             14696021
                                    2053 *                                                                       14704021
                                    2054 *      XIDBIA   - CONVERT FROM  ID TO  BI  AFTER SCALING.               14712021
                                    2055 *                                                                       14720021
                                    2056 *               - FOR BOTH ROUTINES  XR3 POINTS  TO  XIVAL BUFFER.      14728021
-
0
 001106 D201 D43A 301E 08502 0001E  2058 XIDBIB   MVC   XZLENG(LX2),Y1LBS(XR3)                                   14744021
 00110C D201 D418 3020 084E0 00020  2059          MVC   XGTEM2+NX8(LX2),Y1BBS(XR3)                               14752021
 001112 4863 0022      00022        2060        LH    XR6,Y1FBS(XR3)                                             14760021
 001116 47F0 82FA      0112A        2061        BC    UNCON,XIDBI1          GO TO CONVERT ROUTINE                14768021
0
 00111A D201 D43A 3010 08502 00010  2063 XIDBIA   MVC   XZLENG(LX2),Y1LAS(XR3)                                   14784021
 001120 D201 D418 3012 084E0 00012  2064          MVC   XGTEM2+NX8(LX2),Y1BAS(XR3)                               14792021
 001126 4863 0014      00014        2065        LH    XR6,Y1FAS(XR3)                                             14800021
 00112A 900F C5C8      07B58        2066 XIDBI1 STM   XR0,XR15,XGSAV8                                            14808021
 00112E 58F0 C8E4      07E74        2067        L     XRVAR,FPALOD                                               14816021
                             05D38  2068        USING FPLLOD,XRVAR                                               14824021
 001132 47F0 F142      05E7A        2069        BC    UNCON,XIDBIU          GO TO CONVERT ROUTINE                14832021
                                    2070        DROP  XRVAR                                                      14840021
-
0
                                    2072 *                                                                       14856021
                                    2073 *              CONVERT ROUTINE TO GO TO FLOATING POINT OR TO GO         14864021
                                    2074 *              FROM FLOATING POINT TO ID ,BI OR EFP.                    14872021
                                    2075 *                                                                       14880021
1         COMMON SUBROUTINES                                                                                    PAGE   56
-  LOC  OBJECT CODE    ADDR1 ADDR2  STMT   SOURCE STATEMENT                                       ASM 0201 11.03 02/14/15
0                                   2076 *                                                                       14888021
-
0
 001136 900F C5C8      07B58        2078 BIIFP  STM   XR0,XR15,XGSAV8            BINARY TO IFP.                  14904021
 00113A 58F0 C8E4      07E74        2079        L     XRVAR,FPALOD                                               14912021
                             05D38  2080        USING FPLLOD,XRVAR                                               14920021
 00113E 47F0 F8E0      06618        2081        BC    UNCON,BIIFPD          GO TO CONVERT ROUTINE                14928021
                                    2082        DROP  XRVAR                                                      14936021
0
 001142 900F C5C8      07B58        2084 IDIFP  STM   XR0,XR15,XGSAV8            INT.DEC. TO IFP.                14952021
 001146 58F0 C8E4      07E74        2085        L     XRVAR,FPALOD                                               14960021
                             05D38  2086        USING FPLLOD,XRVAR                                               14968021
 00114A 47F0 F95A      06692        2087        BC    UNCON,IDIFPD          GO TO CONVERT ROUTINE                14976021
                                    2088        DROP  XRVAR                                                      14984021
0
 00114E 900F C5C8      07B58        2090 EFPIFP STM   XR0,XR15,XGSAV8            EFP TO IFP.                     15000021
 001152 58F0 C8E4      07E74        2091        L     XRVAR,FPALOD                                               15008021
                             05D38  2092        USING FPLLOD,XRVAR                                               15016021
 001156 47F0 F992      066CA        2093        BC    UNCON,EFPIFD          GO TO CONVERT ROUTINE                15024021
                                    2094        DROP  XRVAR                                                      15032021
0
 00115A 900F C5C8      07B58        2096 IFPBI  STM   XR0,XR15,XGSAV8            IFP TO BI.                      15048021
 00115E 58F0 C8E4      07E74        2097        L     XRVAR,FPALOD                                               15056021
                             05D38  2098        USING FPLLOD,XRVAR                                               15064021
 001162 47F0 F9F8      06730        2099        BC    UNCON,IFPBID          GO TO CONVERT ROUTINE                15072021
                                    2100        DROP  XRVAR                                                      15080021
0
 001166 900F C5C8      07B58        2102 IFPID  STM   XR0,XR15,XGSAV8            IFP TO ID.                      15096021
 00116A 58F0 C8E4      07E74        2103        L     XRVAR,FPALOD                                               15104021
                             05D38  2104        USING FPLLOD,XRVAR                                               15112021
 00116E 47F0 FA7E      067B6        2105        BC    UNCON,IFPIDB          GO TO CONVERT ROUTINE                15120021
                                    2106        DROP  XRVAR                                                      15128021
0
 001172 900F C5C8      07B58        2108 IFPEFP STM   XR0,XR15,XGSAV8                                            15144021
 001176 58F0 C8E4      07E74        2109        L     XRVAR,FPALOD                                               15152021
                             05D38  2110        USING FPLLOD,XRVAR                                               15160021
 00117A 47F0 F9C4      066FC        2111        BC    UNCON,IFPEFD          GO TO CONVERT ROUTINE                15168021
                                    2112        DROP  XRVAR                                                      15176021
-
0
                                    2114 *      FPCVBG  -  CONVERT BOTH OPERANDS OF AN ARITHMETIC OPERATION      15192021
                                    2115 *                 IFP, AND MAKE SURE THAT THEY ARE BOTH LONG FORM O     15200021
                                    2116 *                 BOTH SHORT FORM  -                                    15208021
                                    2117 *                 XR3 POINTS TO X1VAL , XR5 POINTS TO X2VAL.            15216021
1         COMMON SUBROUTINES                                                                                    PAGE   57
-  LOC  OBJECT CODE    ADDR1 ADDR2  STMT   SOURCE STATEMENT                                       ASM 0201 11.03 02/14/15
000117E 900F C588      07B18        2119 FPCVBG STM   XR0,XR15,XGSAV7                                            15232021
 001182 58F0 C8E4      07E74        2120        L     XRVAR,FPALOD                                               15240021
                             05D38  2121        USING FPLLOD,XRVAR                                               15248021
 001186 47F0 FBCA      06902        2122        BC    UNCON,FPCVBH          GO TO CONVERT ROUTINE                15256021
                                    2123        DROP  XRVAR                                                      15264021
-
0
                                    2125 *      FPLDAN  - LOAD ONE OPERAND OF A FLOATING POINT OPERATION INT     15280021
                                    2126 *              - A REGISTER IF  NEITHER OF THEM IS LOADED.              15288021
-
0
 00118A 9108 301D      0001D        2128 FPLDAN   TM    Y1IRX+NX1(XR3),XINREG                                    15304021
 00118E 071E                        2129        BCR   XTHRE,XRSUB           RETURN                               15312021
 001190 50E0 C648      07BD8        2130        ST    XRSUB,XVARS1                                               15320021
 001194 9108 501D      0001D        2131          TM    Y1IRX+NX1(XR5),XINREG                                    15328021
 001198 4780 8376      011A6        2132        BC    XZERO,FPLDA0          NEITHER IS IN A REG                  15336021
 00119C 45E0 7828      00828        2133        BAL   XRSUB,XZX3X5          2ND OPERAND WAS IN A REG             15344021
 0011A0 58E0 C648      07BD8        2134 FPLDA1 L     XRSUB,XVARS1                                               15352021
 0011A4 07FE                        2135        BCR   UNCON,XRSUB           RETURN                               15360021
 0011A6 45E0 811C      00F4C        2136 FPLDA0 BAL   XRSUB,FPLOAD          GO TO LOAD ROUTINE                   15368021
 0011AA 47F0 8370      011A0        2137        BC    UNCON,FPLDA1          RETURN                               15376021
-
0
                                    2139 *      FPRESF   - SET FLAG IN RESULT BUFFER FOR FP.OPERATION.           15392021
0
 0011AE 942F 301D      0001D        2141 FPRESF   NI    Y1IRX+NX1(XR3),XX2F       RESET LITERAL FLAGS.           15408021
 0011B2 D205 D570 3018 08638 00018  2142          MVC   XFTEL(LX6),Y1TEL(XR3)                                    15416021
 0011B8 07FE                        2143        BCR   UNCON,XRSUB           RETURN                               15424021
0
                                    2145 *      XFREER  -  FREE A REGISTER THE NUMBER OF WHICH IS IN XREGNO.     15440021
                                    2146 *      XFREEP  -   -   - PAIR OF REG  THE EVEN NUMBER  -  -   -   .     15448021
                                    2147 *              -  OUTPUT' XR4 WILL HAVE RX ADDRESS TABLE.               15456021
-
0
 0011BA 9053 C488      07A18        2149 XFREER STM   XR5,XR3,XGSAV3                                             15472021
 0011BE 1B00                        2150        SR    XR0,XR0                    XR0 = SWITCH.                   15480021
 0011C0 47F0 839C      011CC        2151        BC    UNCON,XFR000          BEGIN                                15488021
0
 0011C4 9053 C488      07A18        2153 XFREEP STM   XR5,XR3,XGSAV3                                             15504021
 0011C8 4800 C88A      07E1A        2154        LH    XR0,XMINON                                                 15512021
1         COMMON SUBROUTINES                                                                                    PAGE   58
-  LOC  OBJECT CODE    ADDR1 ADDR2  STMT   SOURCE STATEMENT                                       ASM 0201 11.03 02/14/15
00011CC 58F0 C8E4      07E74        2155 XFR000 L     XRVAR,FPALOD                                               15520021
                             05D38  2156        USING FPLLOD,XRVAR                                               15528021
 0011D0 47F0 F214      05F4C        2157        BC    UNCON,XFREEU          GO TO FREE ROUTINE                   15536021
                                    2158        DROP  XRVAR                                                      15544021
-
0
 0011D4 900F C408      07998        2160 XSETVM STM   XR0,XR15,XGSAV1                                            15560021
 0011D8 58F0 C8E8      07E78        2161        L     XRVAR,XASETV                                               15568021
                             059C8  2162        USING XSETVL,XRVAR                                               15576021
 0011DC 47F0 F170      05B38        2163        BC    UNCON,XSETVU          GET OPERAND INFO INTO BUFFER         15584021
                                    2164        DROP  XRVAR                                                      15592021
 0011E0 900F C408      07998        2165 XSETVN STM   XR0,XR15,XGSAV1                                            15600021
 0011E4 58F0 C8E8      07E78        2166        L     XRVAR,XASETV                                               15608021
                             059C8  2167        USING XSETVL,XRVAR                                               15616021
 0011E8 4140 D4E8      085B0        2168        LA    XR4,X1VAL                                                  15624021
 0011EC 9601 D483      0854B        2169        OI    XSESWT,XS2OP                                               15632021
 0011F0 47F0 F12E      05AF6        2170        B     XG050                 GO TO XG050 IN XSETVL                15640021
                                    2171        DROP  XRVAR                                                      15648021
 0011F4                             2172 XSETVQ   DS    0H                                                 51894 15656021
 0011F4 900F C408      07998        2173          STM   XR0,XR15,XGSAV1                                    51894 15664021
 0011F8 58F0 C8E8      07E78        2174          L     XRVAR,XASETV                                       51894 15672021
                             059C8  2175          USING XSETVL,XRVAR                                       51894 15680021
 0011FC 47F0 F174      05B3C        2176          B     XSETVP              GET INFO OF DOP IN XR3         51894 15688021
                                    2177          DROP  XRVAR                                              51894 15696021
-
0
                                    2179 *   TEST IF THE STRING IS A MOVE OR A STORE - IF YES RETURN IS 0(XR     15712021
                                    2180 *   IF NO RETURN IS 4(XRSUB).                                           15720021
                                    2181 *                                                                       15728021
-
0
 001200 951D D0D1      08199        2183 XSTOMV   CLI   HEADER+NX1,XX1D                                          15744021
 001204 078E                        2184        BCR   XZERO,XRSUB           RETURN                               15752021
 001206 9505 D0D1      08199        2185          CLI   HEADER+NX1,XX05                                          15760021
 00120A 078E                        2186        BCR   XZERO,XRSUB           RETURN                               15768021
 00120C 956D D0D1      08199        2187          CLI   HEADER+NX1,XX6D     EQUATE IN SEARCH ALL...              15776021
 001210 078E                        2188        BCR   XZERO,XRSUB          YES                                   15784021
 001212 47FE 0004      00004        2189          BC    UNCON,DX4(XRSUB)   NO, RETURNS-4(XRSUB)                  15792021
-
0
                                    2191 *      LTLTST  TEST IF BOTH OPERANDS OF AN ARITHMETIC OP ARE LITERA     15808021
                                    2192 *                            IF YES RETURN  4(XRSUB)                    15816021
                                    2193 *                            IF NO, RETURN 0(XRSUB)                     15824021
1         COMMON SUBROUTINES                                                                                    PAGE   59
-  LOC  OBJECT CODE    ADDR1 ADDR2  STMT   SOURCE STATEMENT                                       ASM 0201 11.03 02/14/15
0001216 91D0 D505      085CD        2195 LTLTST   TM    X1IRX+NX1,XZGNLT                                         15840021
 00121A 078E                        2196        BCR   XZERO,XRSUB                NO ANSWER.                      15848021
 00121C 91D0 D53D      08605        2197          TM    X2IRX+NX1,XZGNLT                                         15856021
 001220 078E                        2198        BCR   XZERO,XRSUB                NO ANSWER                       15864021
 001222 47FE 0004      00004        2199          BC    UNCON,DX4(XRSUB)          YES ANSWER.                    15872021
-
0
                                    2201 *                                                                       15888021
                                    2202 *   SET  BUFFER FOR A ONE DIGIT LITERAL.                                15896021
                                    2203 *                                                                       15904021
 001226 920C 401C      0001C        2204 XONDGT MVI   Y1IRX(XR4),XGINDC                                          15912021
 00122A 9650 401D      0001D        2205          OI    Y1IRX+NX1(XR4),XGCOLT                                    15920021
 00122E 9202 4021      00021        2206          MVI   Y1BBS+NX1(XR4),XX02                                      15928021
 001232 9201 401F      0001F        2207          MVI   Y1LBS+NX1(XR4),XX01                                      15936021
 001236 9201 4023      00023        2208          MVI   Y1FBS+NX1(XR4),XX01                                      15944021
 00123A 07FE                        2209        BCR   UNCON,XRSUB           RETURN                               15952021
-
0
                                    2211 *            GENERATE   DC   AL4(TEMPORARY-STORAGE)                     15968021
                                    2212 *                                                                       15976021
0
 00123C 9201 D151      08219        2214 SUBST1   MVI   GMADCN+NX1,XX01           SET BASE CODE WANTED           15992021
 001240 9264 D150      08218        2215          MVI   GMADCN,XX64                                              16000021
 001244 4860 D446      0850E        2216        LH    XR6,XEREL1                                                 16008021
 001248 4B60 C866      07DF6        2217        SH    XR6,XC007                                                  16016021
 00124C 4060 D152      0821A        2218          STH   XR6,GMADCN+NX2                                           16024021
 001250 9218 D189      08251        2219        MVI   GMCTYP,MADCON                                              16032021
 001254 45E0 BD8A      0241A        2220 SUBST3 BAL   XRSUB,MACRO           GENERATE MACRO                       16040021
 001258 07F2                        2221        BCR   UNCON,XR2             RETURN                               16048021
0
                                    2223 *            GENERATE   DC   XL2'BYTES OF INFO'                         16064021
0
 00125A D201 D161 3008 08229 00008  2225 SUBST2   MVC   XCON1+NX1(LX2),DX8(XR3)                                  16080021
 001260 9202 D160      08228        2226          MVI   XCON1,XX02                                               16088021
 001264 9224 D189      08251        2227 SUBST4 MVI   XIMM,MDC                                                   16096021
 001268 47F0 8424      01254        2228        BC    UNCON,SUBST3          GENERATE MACRO                       16104021
-
                                    2230 *      XSETLT - SET INTERMEDIATE RESULT AS GENERATED CONSTANT.          16120021
-
0
 00126C 9640 D575      0863D        2232 XSETLT   OI    XFIRX+NX1,XGNCON          SET GENERATED CONSTANT FLAG    16136021
1         COMMON SUBROUTINES                                                                                    PAGE   60
-  LOC  OBJECT CODE    ADDR1 ADDR2  STMT   SOURCE STATEMENT                                       ASM 0201 11.03 02/14/15
0001270 920C D574      0863C        2233        MVI   XFIRX,XGINDC               SET ID MODE.                    16144021
 001274 F9F0 D558 C80F 08620 07D9F  2234          CP    XFVAL(LX16),XINDCZ(LX1)                                  16152021
 00127A 077E                        2235        BCR   XNOEQ,XRSUB           RETURN                               16160021
 00127C 9680 D575      0863D        2236          OI    XFIRX+NX1,XLITZR          SET ZERO VALUE FLAF.           16168021
 001280 07FE                        2237        BCR   UNCON,XRSUB           RETURN                               16176021
-
0
                                    2239 *            CONVERT ID. LITERAL TO BINARY-- LITERAL IS IN 6(XR3)       16192021
                                    2240 *                                                                       16200021
-
 001282 9504 D43B      08503        2242 XCONLV   CLI   XZLENG+NX1,XX04                                          16216021
 001286 4720 8466      01296        2243        BC    XTWO,XCONV1           LENGTH GREATER THAN 4                16224021
 00128A 4F03 0008      00008        2244          CVB   XR0,DX8(XR3)                                             16232021
 00128E 8E00 0020      00020        2245          SRDA  XR0,DX32                                                 16240021
 001292 47F0 8472      012A2        2246        BC    UNCON,XCONV2          RETURN                               16248021
 001296 4113 0006      00006        2247 XCONV1   LA    XR1,DX6(XR3)                                             16256021
 00129A 940F 3006      00006        2248          NI    DX6(XR3),XX0F                                            16264021
 00129E 45E0 B914      01FA4        2249        BAL   XRSUB,GJOHN           CONVERT TO BINARY                    16272021
 0012A2 9001 D430      084F8        2250 XCONV2   STM   XR0,XR1,XCON+NX8                                         16280021
 0012A6 07F2                        2251        BCR   UNCON,XR2             RETURN                               16288021
-
0
                                    2253 *      XLTRGN  LOAD AN DATA NAME IN A REG. AND SET THE CONDITION        16304021
                                    2254 *              CODE BY GENERATING A LTR XRN,XRN  .                      16312021
0
 0012A8 45E0 8106      00F36        2256 XLTRGN   BAL   XRSUB,XSLOAS        LOAD OPERAND INTO A REG              16328021
 0012AC 45E0 81E4      01014        2257        BAL   XRSUB,XZWHIR          GET REG TBL OF REG USED              16336021
 0012B0 5840 D464      0852C        2258        L     XR4,XLIRP                                                  16344021
 0012B4 D200 D188 4003 08250 00003  2259          MVC   XREG1(LX1),DX3(XR4)                                      16352021
 0012BA D200 D1D0 4003 08298 00003  2260          MVC   XREG2(LX1),DX3(XR4)                                      16360021
 0012C0 45E0 BACA      0215A        2261        BAL   XRSUB,LTRBI           GENERATE A LTR                       16368021
 0012C4 07F1                        2262        BCR   UNCON,XR1             RETURN                               16376021
-
0
                                    2264 *   SET RESULT OR OPERAND BUFFER TO MAX. VALUES IN CASE OF              16392021
                                    2265 *  AN OVERFLOW ( MORE THAN 30 DIGITS ).---  XR5 POINTS TO THE BUFFE     16400021
0
 0012C6 D20F 5000 C81C 00000 07DAC  2267 XSETOR   MVC   DX0(LX16,XR5),XC9999                                     16416021
 0012CC 9210 5011      00011        2268 XSETOP   MVI   Y1LAS+NX1(XR5),XX10                                      16424021
 0012D0 921E 5015      00015        2269          MVI   Y1FAS+NX1(XR5),XX1E                                      16432021
 0012D4 92FF 5013      00013        2270          MVI   Y1BAS+NX1(XR5),XXFF                                      16440021
 0012D8 9602 501D      0001D        2271          OI    Y1IRX+NX1(XR5),XGOVFL                                    16448021
1         COMMON SUBROUTINES                                                                                    PAGE   61
-  LOC  OBJECT CODE    ADDR1 ADDR2  STMT   SOURCE STATEMENT                                       ASM 0201 11.03 02/14/15
00012DC 07FE                        2272        BCR   UNCON,XRSUB           RETURN                               16456021
-
0
                                    2274 *      XZRDVV  ASSIGN A SIZE ERROR TRANSFER IF NOT DONE YET AND SAV     16472021
                                    2275 *              IT IN XZTRA.                                             16480021
-
 0012DE 9102 D48D      08555        2277 XZRDVV TM    XGNSW,XZRDIV                                               16496021
 0012E2 0712                        2278        BCR   XTHRE,XR2             RETURN                               16504021
 0012E4 45E0 7AA2      00AA2        2279        BAL   XRSUB,XSTLHN          GET SIZE ERROR TRANSFER              16512021
 0012E8 9602 D48D      08555        2280        OI    XGNSW,XZRDIV                                               16520021
 0012EC D701 D172 D172 0823A 0823A  2281          XC    XGN1(LX2),XGN1                                           16528021
 0012F2 D201 D496 D460 0855E 08528  2282          MVC   XZRTRA(LX2),XGNTMP                                       16536021
 0012F8 07F2                        2283        BCR   UNCON,XR2             RETURN                               16544021
-
 0012FA 900F C408      07998        2285 XSPRO  STM   XR0,XR15,XGSAV1                                            16560021
 0012FE 58F0 C8E4      07E74        2286        L     XRVAR,FPALOD                                               16568021
                             05D38  2287        USING FPLLOD,XRVAR                                               16576021
 001302 47F0 F248      05F80        2288        BC    UNCON,XSSPRO          GO TO SUBSCRIPT ROUTINE              16584021
                                    2289        DROP  XRVAR                                                      16592021
 001306 900F C408      07998        2290 LSPRO  STM   XR0,XR15,XGSAV1                                            16600021
 00130A 1832                        2291        LR    XR3,RW2                                                    16608021
 00130C 58F0 C8E4      07E74        2292        L     XRVAR,FPALOD                                               16616021
                             05D38  2293        USING FPLLOD,XRVAR                                               16624021
 001310 47F0 F250      05F88        2294        BC    UNCON,LSSPRO          GO TO SUBSCRIPT ROUTINE              16632021
                                    2295        DROP   XRVAR                                                     16640021
-
0
                                    2297 *  XRESTG    RELEASE REGISTERS AND TEMPORARY STORAGE USED BY AN IF      16656021
                                    2298 *            OR BY A COMPUTE STATEMENT.                                 16664021
-
0
                             01314  2300 XRESTG EQU   *                                                          16680021
 001314 45E0 75F0      005F0        2301        BAL   XRSUB,XINITN          INIT GEN REG TBLS                    16688021
 001318 45E0 7626      00626        2302        BAL   XRSUB,XINITF          INIT FL PT REG TBLS                  16696021
 00131C 9500 D501      085C9        2303          CLI   X1TEL+NX1,XX00                                           16704021
 001320 4780 84FE      0132E        2304        BC    XZERO,XRA0A           1ST OPERAND NOT IN TEMP STORAGE      16712021
 001324 D203 D442 D500 0850A 085C8  2305          MVC   XYTEL(LX4),X1TEL                                         16720021
 00132A 45E0 790E      0090E        2306        BAL   XRSUB,XERELS          RELEASE TEMP STOR USED BY 1ST OP     16728021
 00132E 9500 D539      08601        2307 XRA0A    CLI   X2TEL+NX1,XX00                                           16736021
 001332 4780 8510      01340        2308        BC    XZERO,XRA0B           2ND OPERAND NOT IN TEMP STORAGE      16744021
 001336 D203 D442 D538 0850A 08600  2309          MVC   XYTEL(LX4),X2TEL                                         16752021
 00133C 45E0 790E      0090E        2310        BAL   XRSUB,XERELS          RELEASE TEMP STOR USED BY 2ND OP     16760021
1         COMMON SUBROUTINES                                                                                    PAGE   62
-  LOC  OBJECT CODE    ADDR1 ADDR2  STMT   SOURCE STATEMENT                                       ASM 0201 11.03 02/14/15
0001340 47F0 700A      0000A        2311 XRA0B  BC    UNCON,PH5CTL          RETURN TO CONTROL                    16768021
                                    2312 *                                                                       16776021
-
0
                                    2314 *          WKZAP  -  ZAP AN OPERAND FROM WORKA(10,13) TO TEMPORARY      16792021
                                    2315 *                    STORAGE                                            16800021
                                    2316 *                                                                       16808021
                                    2317 *                                                                       16816021
0
 001344 9210 D191      08259        2319 WKZAP1   MVI   XL2+NX1,XX10                                             16832021
 001348 47F0 8520      01350        2320        BC    UNCON,WKZAP2          GENERATE ZAP                         16840021
 00134C 920A D191      08259        2321 WKZAP    MVI   XL2+NX1,XX0A                                             16848021
 001350 50E0 C658      07BE8        2322 WKZAP2 ST    XRSUB,XVARS5                                               16856021
 001354 45E0 7850      00850        2323        BAL   XRSUB,XE16D           GET 16 BYTES OF TEMP STOR            16864021
 001358 D201 D14A D446 08212 0850E  2324          MVC   XWC1(LX2),XEREL1                                         16872021
 00135E 9210 D149      08211        2325          MVI   XL1+NX1,XX10                                             16880021
 001362 92D0 D196      0825E        2326          MVI   BDISP2,XXD0                                              16888021
 001366 9260 D197      0825F        2327          MVI   BDISP2+NX1,WORKA                                         16896021
 00136A 45E0 B000      01690        2328        BAL   XRSUB,ZAP             GENERATE ZAP                         16904021
 00136E D203 3018 D442 00018 0850A  2329          MVC   Y1TEL(LX4,XR3),XYTEL                                     16912021
 001374 58E0 C658      07BE8        2330        L     XRSUB,XVARS5                                               16920021
 001378 07FE                        2331        BCR   UNCON,XRSUB           RETURN                               16928021
-
0
                             0137A  2333 XMONDV EQU   *                          FIND OUT IF THIS DIVIDE IS      16944021
 00137A 9200 D48C      08554        2334          MVI   XMONDD,XX00               ALL BY ITSELF IN WHICH CASE    16952021
                                    2335 *                                       SET DMAX = DRESULT.             16960021
 00137E 9505 D832      088FA        2336          CLI   DOP4+NX2,XX05       IS NEXT OPERATION A STORE            16968021
 001382 077E                        2337        BCR   XNOEQ,XRSUB                NO                              16976021
 001384 9602 D48C      08554        2338          OI    XMONDD,XX02               YES, SET SWITCH.               16984021
 001388 95BC D8AC      08974        2339          CLI   DOP5,TEMRES         IF STORE IS INTO A TEMP RESULT,      16992021
 00138C 078E                        2340        BCR   XZERO,XRSUB           RETURN                               17000021
                                    2341 *                                       YES CHECK IF BOTH OPERAND A     17008021
 00138E 95BA D6BC      08784        2342          CLI   DOP1,XGIRI          DATA NAME OR LITERAL                 17016021
 001392 078E                        2343        BCR   XZERO,XRSUB           RETURN                               17024021
 001394 95BA D738      08800        2344          CLI   DOP2,XGIRI                                               17032021
 001398 078E                        2345        BCR   XZERO,XRSUB           RETURN                               17040021
 00139A 9601 D48C      08554        2346          OI    XMONDD,XX01               SET SWITCH DIVIDE ALONE.       17048021
 00139E D201 D43E D440 08506 08508  2347          MVC   XRDMX(LX2),XGDRE                                         17056021
 0013A4 07FE                        2348          BR    XRSUB                    RETURN                          17064021
                                    2349 *                                                                       17072021
-
0
 0013A6 900F C408      07998        2351 XHSMD1 STM   XR0,XR15,XGSAV1            SET MODE ROUTINE                17088021
 0013AA 58F0 C8BC      07E4C        2352        L     XRVAR,XSSDB2                                               17096021
1         COMMON SUBROUTINES                                                                                    PAGE   63
-  LOC  OBJECT CODE    ADDR1 ADDR2  STMT   SOURCE STATEMENT                                       ASM 0201 11.03 02/14/15
0                            06990  2353        USING XSSBG2,XRVAR                                               17104021
 0013AE 47F0 F9D8      07368        2354        BC    UNCON,XHSMD           GO TO SET MODE ROUTINE               17112021
                                    2355        DROP  XRVAR                                                      17120021
-
0
 0013B2 900F C408      07998        2357 XDPZAP STM   XR0,XR15,XGSAV1                                            17136021
 0013B6 92D0 D14E      08216        2358          MVI   BDISP1,XXD0                                              17144021
 0013BA 9210 D149      08211        2359          MVI   XL1+NX1,XX10                                             17152021
 0013BE 4850 C892      07E22        2360        LH    XR5,XMINFV                                                 17160021
 0013C2 45E0 780A      0080A        2361        BAL   XRSUB,XZSIDA          SET A-TEXT                           17168021
 0013C6 45E0 B000      01690        2362        BAL   XRSUB,ZAP             GENERATE ZAP                         17176021
 0013CA 980F C408      07998        2363        LM    XR0,XR15,XGSAV1                                            17184021
 0013CE 07FE                        2364        BCR   UNCON,XRSUB           RETURN                               17192021
-
0
0
 0013D0 9210 D149      08211        2367 XBDSET   MVI   XL1+NX1,XX10                                             17216021
 0013D4 92D0 D14E      08216        2368          MVI   BDISP1,XXD0                                              17224021
 0013D8 92D0 D196      0825E        2369          MVI   BDISP2,XXD0                                              17232021
 0013DC 9280 D14F      08217        2370          MVI   BDISP1+NX1,WORKF                                         17240021
 0013E0 9280 D197      0825F        2371          MVI   BDISP2+NX1,WORKF                                         17248021
 0013E4 07FE                        2372        BCR   UNCON,XRSUB           RETURN                               17256021
-
0
                             013E6  2374 XZPDPR EQU   *                                                          17272021
 0013E6 45E0 7850      00850        2375        BAL   XRSUB,XE16D           GET 16 BYTES OF TEMP STOR            17280021
 0013EA D201 D14A D446 08212 0850E  2376          MVC   XWC1(LX2),XEREL1                                         17288021
 0013F0 9210 D149      08211        2377          MVI   XL1+NX1,XX10                                             17296021
 0013F4 9210 D191      08259        2378          MVI   XL2+NX1,XX10                                             17304021
 0013F8 9210 D1C5      0828D        2379          MVI   XPLUS2+NX2,XX10                                          17312021
 0013FC 4210 D197      0825F        2380          STC   XR1,BDISP2+NX1                                           17320021
 001400 92D0 D196      0825E        2381          MVI   BDISP2,XXD0                                              17328021
 001404 45E0 B000      01690        2382        BAL   XRSUB,ZAP             GENERATE ZAP                         17336021
 001408 D203 D570 D442 08638 0850A  2383          MVC   XFTEL(LX4),XYTEL                                         17344021
 00140E 920C D574      0863C        2384        MVI   XFIRX,XGINDC                                               17352021
                                    2385 *                                                                       17360021
 001412 07F2                        2386        BCR   UNCON,XR2             RETURN                               17368021
                                    2387 *                                                                       17376021
                                    2388 *                                                                       17384021
-
0
                                    2390 *  CHECK  IF ALIGNEMENT IS NEEDED . THIS ONLY FOR RX USED WITH A DA     17400021
1         COMMON SUBROUTINES                                                                                    PAGE   64
-  LOC  OBJECT CODE    ADDR1 ADDR2  STMT   SOURCE STATEMENT                                       ASM 0201 11.03 02/14/15
0                                   2391 *  NAME                                                                 17408021
                                    2392 *                                                                       17416021
                                    2393 *                                                                       17424021
                             01414  2394 AXT017   EQU   *                                                        17432021
 001414 1B22                        2395          SR    RW2,RW2                                                  17440021
 001416 4320 D1DD      082A5        2396          IC    RW2,OPCOD                CHECK  OPCOD  FOR AN  RX        17448021
 00141A 8C20 0004      00004        2397          SRDL  RW2,DX4                   INSTRUCTION.                   17456021
 00141E 8830 001C      0001C        2398          SRL   RW3,DX28                                                 17464021
 001422 4930 C850      07DE0        2399          CH    RW3,XC000                                                17472021
 001426 4770 8756      01586        2400          BNE   AXT020              IF NOT STORE TYPE BRANCH       4771  17480021
 00142A 9620 D1D9      082A1        2401          OI    GBIT2,AXSTORE            IT IS A STORE TYPE INSTRUCT     17488021
 00142E 9608 D1D8      082A0        2402          OI    GBIT1,SFPXXX                                             17496021
 001432 9560 D1DD      082A5        2403          CLI   OPCOD,XX60                STD.                           17504021
 001436 4770 860E      0143E        2404          BNE   AXT019                   NO-                             17512021
 00143A 9610 D1D8      082A0        2405          OI    GBIT1,DFPXXX             YES,                            17520021
 00143E 9540 D1DD      082A5        2406 AXT019   CLI   OPCOD,XX40                    STH.                       17528021
 001442 4770 861A      0144A        2407          BNE   AXT010              NO                                   17536021
 001446 9601 D1D9      082A1        2408          OI    GBIT2,XX01                  YES-                         17544021
                             0144A  2409 AXT010   EQU   *                                                        17552021
 00144A 9198 D1D8      082A0        2410          TM    GBIT1,HFWORD+DFPXXX+SFPXXX                               17560021
 00144E 4770 862A      0145A        2411          BNZ   AXT000              IF 1,4,OR5 BIT ON, SKIP NXT          17568021
 001452 9122 D1D9      082A1        2412          TM    GBIT2,XX02+AXSTORE                                       17576021
 001456 4780 B9E6      02076        2413          BZ    AXT001                   NO ALIGNT. WANTED.              17584021
                             0145A  2414 AXT000   EQU   *                                                        17592021
 00145A 4920 C3BA      0794A        2415          CH    RW2,XC004                RR INSTRUCTION -NO ALIGNT.      17600021
 00145E 4740 B9E6      02076        2416          BL    AXT001              NO ALLIGNMNT,BR TO ATXT GEN          17608021
 001462 4920 C86A      07DFA        2417          CH    RW2,XC009                                                17616021
 001466 4780 8710      01540        2418          BE    AXT012                   IT IS STM OR LM.                17624021
 00146A 4720 B9E6      02076        2419          BH    AXT001                   SS INSTRUCTION -NO ALIGNT.      17632021
 00146E                             2420 AXT018   DS    0H                                                 46186 17640021
 00146E 1244                        2421          LTR   OPD1,OPD1           VALID POINTER...               46186 17648021
 001470 4780 B9E6      02076        2422          BZ    AXT001              NO, LEAVE ROUTINE              46186 17656021
 001474 9530 4000      00000        2423          CLI   DX0(OPD1),XGDTN                                          17664021
 001478 4770 B9E6      02076        2424          BNE   AXT001                   IS IT A BDISP.                  17672021
 00147C 9140 4007      00007        2425          TM    DX7(OPD1),SYNCHRO                                        17680021
 001480 4710 B9E6      02076        2426          BO    AXT001                   THIS DATA-NAME IS SYNCHRONI     17688021
                                    2427 *                                                                       17696021
                                    2428 *                                                                       17704021
 001484 9120 D1D9      082A1        2429          TM    GBIT2,AXSTORE                                            17712021
 001488 4710 86E4      01514        2430          BO    AXT002                   STORE TYPE INSTRUCTION.         17720021
                                    2431 *                                                                       17728021
 00148C 92D2 D1DD      082A5        2432 AXT009   MVI   OPCOD,XXD2                                               17736021
                                    2433 *                                                                       17744021
                                    2434 *   FOR A NON STORE TYPE INSTRUCTION GENERATE :                         17752021
                                    2435 *                                                                       17760021
                                    2436 *                        MVC  TEMP(L),DN     INSTEAD OF THE ORIGINA     17768021
                                    2437 *                        OP   R,TEMP                OP R,DN             17776021
                                    2438 *                                                                       17784021
                                    2439 *  FOR  A STORE TYPE  GENERATE :                                        17792021
                                    2440 *                                                                       17800021
                                    2441 *                        ST R,TEMP           INSTEAD OF                 17808021
                                    2442 *                        MVC DN,TEMP                ST R,DN.            17816021
                                    2443 *                                                                       17824021
 001490 9110 D1D9      082A1        2444          TM    GBIT2,AXSTMLM                                            17832021
 001494 4780 8672      014A2        2445          BZ    AXT016                   FOR  STM OR LM PICK UP PRES     17840021
1         COMMON SUBROUTINES                                                                                    PAGE   65
-  LOC  OBJECT CODE    ADDR1 ADDR2  STMT   SOURCE STATEMENT                                       ASM 0201 11.03 02/14/15
0001498 D200 D1DE D191 082A6 08259  2446          MVC   GABS(LX1),XL2+NX1          LENGTH FROM XL2.              17848021
 00149E 47F0 869E      014CE        2447          B     AXT006              FOR STM OR LM SKIP NXT CODE          17856021
 0014A2 9201 D1DE      082A6        2448 AXT016   MVI   GABS,XX01                                                17864021
 0014A6 9101 D1D9      082A1        2449          TM    GBIT2,XX01                                               17872021
 0014AA 4710 868E      014BE        2450          BO    AXT005              HALFWORD BOUNDARY WANTED             17880021
 0014AE 9203 D1DE      082A6        2451          MVI   GABS,XX03                                                17888021
 0014B2 9110 D1D8      082A0        2452          TM    GBIT1,DFPXXX                                             17896021
 0014B6 4780 868E      014BE        2453          BZ    AXT005              NOT DOUBLE FLOATING PT INSTRUCT      17904021
 0014BA 9207 D1DE      082A6        2454          MVI   GABS,XX07                                                17912021
                                    2455 *                                                                       17920021
 0014BE D501 A1DE C868 001DE 07DF8  2456 AXT005   CLC   TS3MAX(LX2),XC008                                        17928021
 0014C4 4720 869E      014CE        2457          BH    AXT006              IF SIZE OF TEMP AREA LRGE SKIP       17936021
 0014C8 D201 A1DE C868 001DE 07DF8  2458          MVC   TS3MAX(LX2),XC008                                        17944021
 0014CE 4120 D1DF      082A7        2459 AXT006   LA    RW2,GADPAR                                               17952021
 0014D2 9120 D1D9      082A1        2460          TM    GBIT2,AXSTORE            STORE TYPE.                     17960021
 0014D6 4710 86AE      014DE        2461          BO    AXT007                   YES-                            17968021
 0014DA 4122 0004      00004        2462          LA    RW2,DX4(RW2)                                             17976021
                                    2463 *                                                                       17984021
 0014DE 4830 D1DA      082A2        2464 AXT007   LH    RW3,COUNT                                                17992021
 0014E2 4B30 C862      07DF2        2465          SH    RW3,XC005                                                18000021
 0014E6 0630                        2466          BCTR  RW3,RW0             SUBTRACT 1 FROM REG 3                18008021
 0014E8 4430 BE82      02512        2467        EX    RW3,AXTI00                MOVE                             18016021
 0014EC 9120 D1D9      082A1        2468          TM    GBIT2,AXSTORE                                            18024021
 0014F0 4710 8702      01532        2469          BO    AXT008              MOVES TEMP STOR ATEXT FOR ST TYP     18032021
 0014F4 D203 D1DF D33C 082A7 08404  2470          MVC   GADPAR(LX4),AXTC00        SET UP TEMPORARY STORAGE OP    18040021
                                    2471 *                                                                       18048021
                                    2472 *                                                                       18056021
                                    2473 *                                                                       18064021
 0014FA 4120 D1DC      082A4        2474 AXT011   LA    RW2,OPCOD-NX1                                            18072021
 0014FE 4133 0008      00008        2475          LA    RW3,DX8(RW3)                                             18080021
 001502 9120 D1D9      082A1        2476          TM    GBIT2,AXSTORE                                            18088021
 001506 4710 B9FA      0208A        2477          BO    GNOPT6              MAKE BOUNDARY ALLIGNMENT             18096021
 00150A 45E0 7224      00224        2478          BAL   XRSUB,PUTA          WRITE A-TEXT                         18104021
 00150E D201 D1DD D343 082A5 0840B  2479          MVC   OPCOD(LX2),OTPT+NX3        GENERATE INITIAL OPERATION.   18112021
 001514 D203 D1DF D33C 082A7 08404  2480 AXT002   MVC   GADPAR(LX4),AXTC00                                       18120021
 00151A 4120 D1DC      082A4        2481          LA    RW2,OPCOD-NX1                                            18128021
 00151E 4130 0007      00007        2482          LA    RW3,DX7                                                  18136021
 001522 9120 D1D9      082A1        2483          TM    GBIT2,AXSTORE                                            18144021
 001526 4780 B9FA      0208A        2484          BZ    GNOPT6              MAKE BOUNDARY ALLIGNMENT             18152021
 00152A 45E0 7224      00224        2485          BAL   XRSUB,PUTA          WRITE A-TEXT                         18160021
 00152E 47F0 865C      0148C        2486          B     AXT009              MAKE ALLIGNMENT                      18168021
                                    2487 *                                                                       18176021
                                    2488 *                                                                       18184021
 001532 4123 2001      00001        2489 AXT008   LA    RW2,DX1(RW3,RW2)                                         18192021
 001536 D203 2000 D33C 00000 08404  2490          MVC   DX0(LX4,RW2),AXTC00                                      18200021
 00153C 47F0 86CA      014FA        2491          B     AXT011              WRITE BOUNDARY ALLIGNMENT A-TXT      18208021
                                    2492 *    FOR  STM   AND  LM  COMPUTE  LENGTH OF TS2  NEEDED.                18216021
                                    2493 *                                                                       18224021
                                    2494 *                                                                       18232021
 001540 9610 D1D9      082A1        2495 AXT012   OI    GBIT2,AXSTMLM                                            18240021
 001544 4320 D1DE      082A6        2496          IC    RW2,GABS              GET  REGISTERS NUMBER  IN RW2      18248021
 001548 8C20 0004      00004        2497          SRDL  RW2,DX4                RW3                               18256021
 00154C 8830 001C      0001C        2498          SRL   RW3,DX28                                                 18264021
 001550 1932                        2499          CR    RW3,RW2                                                  18272021
 001552 4740 8746      01576        2500          BL    AXT013              IF REG 2 GREATER THAN 1 BRANCH       18280021
1         COMMON SUBROUTINES                                                                                    PAGE   66
-  LOC  OBJECT CODE    ADDR1 ADDR2  STMT   SOURCE STATEMENT                                       ASM 0201 11.03 02/14/15
0001556 1B32                        2501          SR    RW3,RW2                                                  18288021
 001558 4133 0001      00001        2502          LA    RW3,DX1(RW3)                                             18296021
 00155C 4C30 C3BA      0794A        2503 AXT015   MH    RW3,XC004                                                18304021
 001560 4930 A1DE      001DE        2504          CH    RW3,TS3MAX                                               18312021
 001564 47D0 873C      0156C        2505          BNH   AXT014              R3 NOT HIGH, DONT NEED MORE TS       18320021
 001568 4030 A1DE      001DE        2506          STH   RW3,TS3MAX                                               18328021
 00156C 0630                        2507 AXT014   BCTR  RW3,RW0             SUBTRACT 1 FROM REG 3                18336021
 00156E 4030 D190      08258        2508          STH   RW3,XL2                                                  18344021
 001572 47F0 863E      0146E        2509          B     AXT018              PROCESS FOR BOUNDARY ALLIGNMENT      18352021
                                    2510 *                                                                       18360021
 001576 4800 C874      07E04        2511 AXT013   LH    RW0,XC015             IN CASE R2 IS GREATER  THAN R1     18368021
 00157A 1B02                        2512          SR    RW0,RW2                                                  18376021
 00157C 4A00 C3B2      07942        2513          AH    RW0,XC002                                                18384021
 001580 1A30                        2514          AR    RW3,RW0                                                  18392021
 001582 47F0 872C      0155C        2515          B     AXT015              SEE IF MORE TS3 NEEDED               18400021
 001586                             2516 AXT020   DS    0H                                                 4771  18408021
 001586 4920 C3BA      0794A        2517          CH    RW2,XC004               IS IT RX                   4771  18416021
 00158A 4770 861A      0144A        2518          BNE   AXT010              NO NOT RX TYPE                 4771  18424021
 00158E 4930 C868      07DF8        2519          CH    RW3,XC008           AH, CH, LH, MH, AND SH         4771  18432021
 001592 4740 861A      0144A        2520          BL    AXT010              INSTRUCTIONS                   4771  18440021
 001596 4930 C870      07E00        2521          CH    RW3,XC012           SHOULD ALL HAVE ONLY           4771  18448021
 00159A 4720 861A      0144A        2522          BH    AXT010              A LENGTH OF 2 GENERATED FOR MVC4771  18456021
 00159E 9601 D1D9      082A1        2523          OI    GBIT2,XX01          SO SET GBIT2 IF IT IS A        4771  18464021
 0015A2 47F0 861A      0144A        2524          B     AXT010              HALF-WORD INSTRUCTION          4771  18472021
1         COMMON SUBROUTINES                                                                                    PAGE   67
-  LOC  OBJECT CODE    ADDR1 ADDR2  STMT   SOURCE STATEMENT                                       ASM 0201 11.03 02/14/15
0                                   2526 *      FIXED SUBROUTINES ENTRY POINTS                                   18488021
                                    2527 *=1  FIXED ENTRY POINT SUBROUTINE FOR NON ARITHMETIC VERB (BILL)        18496021
                             015A6  2528 DICNOP EQU     *                                                        18504021
 0015A6 50F0 C71C      07CAC        2529        ST    XRVAR,SVWJH7           DICNOP                              18512021
 0015AA 58F0 C92C      07EBC        2530        L       HCOMSR,ADCON7                                            18520021
 0015AE 07FF                        2531        BCR     UNCOND,HCOMSR       GENERATE CNOP                        18528021
                             015B0  2532 VBALR0 EQU   *                     VBALR0 USES DIBALQ, RW3 SET          18536021
 0015B0 50F0 C720      07CB0        2533        ST    XRVAR,SVWJH8           DIBALR                              18544021
 0015B4 58F0 C930      07EC0        2534        L       HCOMSR,ADCON8                                            18552021
 0015B8 07FF                        2535        BCR     UNCOND,HCOMSR       GENERATE BALR A-TEXT                 18560021
                             015BA  2536 VBALRE EQU   *                     VBALRE LOOKS LIKE DIBALR             18568021
 0015BA 920E D188      08250        2537          MVI   XREG1,XX0E             EXCEP USES 14 RATHER THAN 1       18576021
 0015BE 47F0 8780      015B0        2538        BC    UNCOND,VBALR0         TO COMMON CODING                     18584021
 0015C2 920E D188      08250        2539 VBADCE   MVI   XREG1,XX0E                                               18592021
 0015C6 47F0 879E      015CE        2540        BC    UNCOND,VBADC0         GEN BAL USING REG 14                 18600021
 0015CA 9201 D188      08250        2541 VDADC1   MVI   XREG1,XX01                                               18608021
 0015CE 5030 C764      07CF4        2542 VBADC0 ST    RW3,SVWJHL                                                 18616021
 0015D2 50E0 C768      07CF8        2543          ST    RETRG,SVWJHL+NX4                                         18624021
 0015D6 183E                        2544        LR    RW3,RETRG                                                  18632021
 0015D8 45E0 8780      015B0        2545        BAL   RETRG,VBALR0          BRANCH TO GENERATE BALR              18640021
 0015DC 5830 C764      07CF4        2546        L     RW3,SVWJHL                                                 18648021
 0015E0 58E0 C768      07CF8        2547          L     RETRG,SVWJHL+NX4                                         18656021
 0015E4 47FE 0004      00004        2548          BC    UNCON,DX4(XRSUB)   RETURN TO CALLER                      18664021
                                    2549 *      DIRECT A-TEXT GENERATION S.R. GATXTV FOR STRINGS PERMITTING      18672021
                                    2550 *            CHANGES BY ANALYZERS, GATXTC FOR OTHERS. SEE WRITE-UP      18680021
                                    2551 *            AND CALLING SEQ'S WITH CONSTANTS AT LOC... ATXTBV          18688021
 0015E8 90E3 C7E8      07D78        2552 GATXTC STM   RETRG,RW3,SVGATX                                           18696021
 0015EC 4120 CA65      07FF5        2553        LA    RW2,ATXTBC                                                 18704021
 0015F0 47F0 87CC      015FC        2554        BC    UNCOND,GATX01         BRANCH AROUND ENTRY POINT            18712021
 0015F4 90E3 C7E8      07D78        2555 GATXTV STM   RETRG,RW3,SVGATX                                           18720021
 0015F8 4120 D682      0874A        2556        LA    RW2,ATXTBV                                                 18728021
 0015FC 4A2E 0000      00000        2557 GATX01   AH    RW2,DX0(RETRG)                                           18736021
 001600 483E 0002      00002        2558          LH    RW3,DX2(RETRG)                                           18744021
 001604 45E0 7224      00224        2559        BAL   RETRG,GOPT3C          PUTS A-TEXT ON FILE                  18752021
 001608 98E3 C7E8      07D78        2560        LM    RETRG,RW3,SVGATX                                           18760021
 00160C 47FE 0004      00004        2561          BC    UNCOND,DX4(RETRG)    *** LEAVE GENTRY ***                18768021
                                    2562 *                                                                       18776021
                                    2563 *                     THIS ROUTINE CAUSES ANY SUBSCRIPT CALCULATION     18784021
                                    2564 *                                  THAT RESIDE IN OBJECT REGISTERS      18792021
                                    2565 *                                  BE STORED INTO AN OBJECT-TIME TA     18800021
 001610 90E4 C778      07D08        2566 DFREER STM   RETRG,RW4,SVWJHP      PRESERVE REG'S OVER XFREER           18808021
 001614 4110 0005      00005        2567          LA    RW1,DX5                                                  18816021
 001618 4210 D48A      08552        2568 DFREE1 STC   RW1,XREGNO            LOOP THRU TO RELEASE XR'S 1 THRU     18824021
 00161C 45E0 838A      011BA        2569        BAL   XRSUB,XFREER          FREE REGISTERS INDICATED             18832021
 001620 4610 87E8      01618        2570        BCT   RW1,DFREE1            GO THROUGH LOOP AGAIN                18840021
 001624 98E4 C778      07D08        2571        LM    RETRG,RW4,SVWJHP      PRESERVE REG'S OVER XFREER           18848021
 001628 07FE                        2572        BCR   UNCOND,RETRG          RETURN TO CALLER                     18856021
                                    2573 * ROUTINES TO RESERVE, FREE AND DESTROY REGS                            18864021
 00162A 9228 D683      0874B        2574 GFRRES   MVI   A48CH2,MRESRV                                            18872021
 00162E 920E D685      0874D        2575 GFRRE    MVI   A48CH1,XX0E                                              18880021
 001632 50E0 C7C8      07D58        2576 GFRR     ST    RETRG,SVWJHT                                             18888021
 001636 45E0 882C      0165C        2577          BAL   RETRG,REGMAC        GENERATE MACRO CODING                18896021
 00163A 58E0 C7C8      07D58        2578          L     RETRG,SVWJHT                                             18904021
 00163E 07FE                        2579          BCR   UNCOND,RETRG        RETURN TO CALLER                     18912021
 001640 922C D683      0874B        2580 GFREE    MVI   A48CH2,MFREE                                             18920021
1         COMMON SUBROUTINES                                                                                    PAGE   68
-  LOC  OBJECT CODE    ADDR1 ADDR2  STMT   SOURCE STATEMENT                                       ASM 0201 11.03 02/14/15
0001644 47F0 87FE      0162E        2581          BC    UNCOND,GFRRE        GO TO START MACRO CODING             18928021
 001648 9230 D683      0874B        2582 GDES14   MVI   A48CH2,MDESTR                                            18936021
 00164C 47F0 87FE      0162E        2583          BC    UNCOND,GFRRE        GO TO START MACRO CODING             18944021
 001650 9230 D683      0874B        2584 GDES15   MVI   A48CH2,MDESTR                                            18952021
 001654 920F D685      0874D        2585          MVI   A48CH1,XX0F                                              18960021
 001658 47F0 8802      01632        2586          BC    UNCOND,GFRR         GENERATE MACRO CODING                18968021
 00165C 50E0 C7CC      07D5C        2587 REGMAC ST    RETRG,SVWJHU                                               18976021
 001660 45E0 87C4      015F4        2588        BAL   RETRG,GATXTV          FREE,                                18984021
 001664 0000                        2589        DC    AL2(ATXT48-ATXTBV)        RESERVE,                         18992021
 001666 0004                        2590        DC    AL2(ZTXT48-ATXT48)            DESTROY MACRO                19000021
 001668 58E0 C7CC      07D5C        2591        L     RETRG,SVWJHU                                               19008021
 00166C 07FE                        2592        BCR   UNCOND,RETRG          RETURN TO CALLER                     19016021
 00166E 50E0 C794      07D24        2593 WRKLRX ST    RETRG,SVWJHQ         KILL 14,15 BUT NOT SUB                19024021
 001672 47F0 884E      0167E        2594        BC    UNCOND,WRKLR1         AVOID KILLING SS TBL                 19032021
                             01676  2595 WRKLRG EQU   *           KILL SS TBL + DESTROY REG 14, 15.              19040021
 001676 50E0 C794      07D24        2596        ST    RETRG,SVWJHQ                                               19048021
 00167A 45E0 7DEC      00DEC        2597        BAL    RETRG,KILSUB         KILL SUBSCRIPT OPT TBL               19056021
                             0167E  2598 WRKLR1 EQU   *                                                          19064021
 00167E 45E0 8818      01648        2599          BAL   RETRG,GDES14        DESTROY 14                           19072021
 001682 45E0 8820      01650        2600          BAL   RETRG,GDES15        DESTROY 15                           19080021
 001686 58E0 C794      07D24        2601        L     RETRG,SVWJHQ                                               19088021
 00168A 07FE                        2602        BCR   UNCOND,RETRG          RETURN TO CALLER                     19096021
1                           A-TEXT GENERATOR                                                                    PAGE   69
-  LOC  OBJECT CODE    ADDR1 ADDR2  STMT   SOURCE STATEMENT                                       ASM 0201 11.03 02/14/15
0001690                             2604 IKF503 CSECT                                                            19112021
                             01690  2605 COMON3 EQU     *                                                        19120021
                                    2606 *                                                                       19128021
                                    2607 *=1      A TEXT GENERATOR                                               19136021
                                    2608 *******************************************************************     19144021
                                    2609 *                                                                       19152021
                                    2610 *        A TEXT GENERATOR                                               19160021
                                    2611 *                                                                       19168021
                                    2612 *******************************************************************     19176021
                                    2613 *        THE A TEXT GENERATOR IS USED BY THE DIFFERENT ANALYZERS        19184021
                                    2614 *                                                                       19192021
                                    2615 *        THERE ARE VARIOUS ENTRY POINTS TO THE A TEXT GENERATOR         19200021
                                    2616 *                                                                       19208021
                                    2617 *        THE ENTRY POINT TO BE USED IS DETERMINED BY THE                19216021
                                    2618 *        OBJECT INSTRUCTION DESIRED                                     19224021
                                    2619 *                                                                       19232021
                                    2620 *        THE LINKAGE TO THE A TEXT GENERATOR IS                         19240021
                                    2621 *           BAL  RETRG,THE PARTICULAR ENTRY POINT                       19248021
                                    2622 *                                                                       19256021
                                    2623 *   THE FOLLOWING WILL DESCRIBE HOW THE WORK AREAS ARE TO BE USED       19264021
                                    2624 *                                                                       19272021
                                    2625 *        XL1 AND XL2 ARE NEEDED FOR SS TYPE INSTRUCTIONS                19280021
                                    2626 *             IF THERE IS ONLY ONE LENGTH PUT IN XL1                    19288021
                                    2627 *                                                                       19296021
                                    2628 *        XWC1 AND XWC2 ARE EACH TWO BYTES LONG                          19304021
                                    2629 *   IF WE ARE IN A BINARY MODE THE LENGTH IS PUT IN A THIRD BYTE        19312021
                                    2630 *                                                                       19320021
                                    2631 *        THE FOLLOWING ELEMENTS EACH HAVE TWO DATA AREAS                19328021
                                    2632 *        XWC,BDISP,TALLY,XGN,XPN,XCON                                   19336021
                                    2633 *             DATA AREA 1 IS USED IF IT IS THE FIRST ADDRESS OPERAN     19344021
                                    2634 *             DATA AREA 2 IS USED IF IT IS THE SECND ADDRESS OPERAN     19352021
                                    2635 *                                                                       19360021
                                    2636 *          FOR DATA NAMES,ALL LITERALS,FIG CONS  POINTERS ARE USED      19368021
                                    2637 *             THE POINTERS ARE PUT IN OP1,OP2 AS THEY ARE NEEDED        19376021
                                    2638 *                                                                       19384021
                                    2639 *******************************************************************     19392021
                                    2640 *******************************************************************     19400021
 001690 9218 D1DD      082A5        2641 LOAD     MVI   OPCOD,XX18     LR OP CODE =18   CHANGED IF L OR LH OR    19408021
 001694 900F D0E0      081A8        2642 GHIBYT STM   GR1,GR15,GSVRG                                             19416021
 001698 9846 D138      08200        2643        LM    OPD1,OPD3,OP1   LD REGS WITH OPND PTRS   3 WITH GADPAR     19424021
 00169C D501 D190 C370 08258 07900  2644          CLC   XL2(LX2),GZERO                                           19432021
 0016A2 4770 BB60      021F0        2645        BC    NOTEQ,GDOSSD    BRANCH IF DECIMAL SS CODE                  19440021
 0016A6 D53D D14A C370 08212 07900  2646        CLC   XWC1(GCNLN2),GZERO                                         19448021
 0016AC 4770 B028      016B8        2647        BC    NOTEQ,GSETRX    BRANCH IF RX TYPE INSTRUCTION              19456021
 0016B0 5940 C370      07900        2648        C     OPD1,GZERO                                                 19464021
 0016B4 4780 B050      016E0        2649        BC    EQ,SETRR        BRANCH IF RR TYPE INSTRUCTION              19472021
 0016B8 92A0 D1D8      082A0        2650 GSETRX   MVI   GBIT1,XXA0     SET BIT FOR HALFWORD WANTED + CONV NUM    19480021
 0016BC 9500 D18A      08252        2651          CLI   XXREG,XX00                                               19488021
 0016C0 4770 BD1C      023AC        2652        BC    NOTEQ,GFKRG           IF INDEX BR TO MOVE REGNO            19496021
 0016C4 47F0 B07A      0170A        2653        BC    UNCOND,SETRX          GEN RX TYPE OF INSTRUCTION           19504021
 0016C8 921B D1DD      082A5        2654 SUB      MVI   OPCOD,XX1B     SR OP CODE=1B  CHANGED IF S OR SH OR S    19512021
 0016CC 47F0 B004      01694        2655        BC    UNCOND,GHIBYT         GENERATE FORMATTED ATXT              19520021
 0016D0 9210 D1DD      082A5        2656 LPRBI    MVI   OPCOD,XX10     LPR=10   ST OR STH WILL CHANGE HI ORDE    19528021
                             016D0  2657 STORE  EQU   LPRBI                                                      19536021
 0016D4 47F0 B004      01694        2658        BC    UNCOND,GHIBYT         GENERATE FORMATTED ATXT              19544021
1                           A-TEXT GENERATOR                                                                    PAGE   70
-  LOC  OBJECT CODE    ADDR1 ADDR2  STMT   SOURCE STATEMENT                                       ASM 0201 11.03 02/14/15
00016D8 900F D0E0      081A8        2659 SETRR1 STM   GR1,GR15,GSVRG                                             19552021
 0016DC 9846 D138      08200        2660        LM    OPD1,OPD3,OP1   LD REGS WITH OPND POINTERS   3 WITH GA     19560021
 0016E0 D200 D1DE D1D0 082A6 08298  2661 SETRR    MVC   GABS(LX1),XREG2 GET LO 4 BITS OF OPERAND2 INTO LO 4BIT   19568021
 0016E6 F100 D1DE D188 082A6 08250  2662          MVO   GABS(LX1),XREG1(LX1) LO FOUR BITS INTO HIGH FOUR BITS AB 19576021
 0016EC 47F0 BA8E      0211E        2663        BC    UNCOND,GNOPT2   GENERATE OUTPUT                            19584021
 0016F0 9740 D1DD      082A5        2664 SETRX2   XI    OPCOD,XX40     PUT 5 IN OPCOD (1 ALREADY THERE)          19592021
 0016F4 47F0 B076      01706        2665        BC    UNCOND,SETRX1         HALFWORD NOT WANTED                  19600021
 0016F8 900F D0E0      081A8        2666 SETRX0 STM   GR1,GR15,GSVRG                                             19608021
 0016FC 9846 D138      08200        2667        LM    OPD1,OPD3,OP1   LD REGS WITH OPND POINTERS   3 WITH GA     19616021
 001700 D200 D1DE D18A 082A6 08252  2668          MVC   GABS(LX1),XXREG                                          19624021
 001706 9200 D1D8      082A0        2669 SETRX1   MVI   GBIT1,XX00     HALFWORD NOT WANTED  2 ADDRESSES NOT W    19632021
 00170A F100 D1DE D188 082A6 08250  2670 SETRX    MVO   GABS(LX1),XREG1(LX1) LO 4 BITS INTO HI 4 BITS            19640021
 001710 5950 C370      07900        2671 GCHKOP C     OPD2,GZERO                                                 19648021
 001714 4770 B10C      0179C        2672        BC    NOTEQ,GCKOP2    BRANCH IF OPD2 NOT 0  MUST BE TWO POIN     19656021
 001718 D501 D14A C370 08212 07900  2673 GCKOP3   CLC   XWC1(LX2),GZERO                                          19664021
 00171E 4770 B57A      01C0A        2674        BC    NOTEQ,GWC       BRANCH IF WC     TEMPORARY STORAGE         19672021
 001722 D501 D14E C370 08216 07900  2675          CLC   BDISP1(LX2),GZERO                                        19680021
 001728 4770 B678      01D08        2676        BC    NOTEQ,GBDISP    BRANCH IF BDISP                            19688021
 00172C D501 D172 C370 0823A 07900  2677          CLC   XGN1(LX2),GZERO                                          19696021
 001732 4770 B686      01D16        2678        BC    NOTEQ,GGN       BRANCH IF GENERATED NAME                   19704021
 001736 D503 D174 C370 0823C 07900  2679          CLC   XPN1(LX4),GZERO                                          19712021
 00173C 4770 B6C4      01D54        2680        BC    NOTEQ,GPN       BRANCH IF PROCEDURE NAME                   19720021
 001740 D503 D180 C370 08248 07900  2681          CLC   XVN1(LX4),GZERO                                          19728021
 001746 4770 B6D2      01D62        2682        BC    NOTEQ,GVN       BRANCH IF VARIED NAME                      19736021
 00174A D501 D184 C370 0824C 07900  2683          CLC   GDEBG1(LX2),GZERO                                        19744021
 001750 4770 B6E0      01D70        2684        BC    NOTEQ,GDEBUG    BRANCH IF GTREF1                           19752021
 001754 9500 D170      08238        2685          CLI   XCON1+NX16,XX00                                          19760021
 001758 4770 B5B8      01C48        2686        BC    NOTEQ,GCON      BRANCH IF CONSTANT(OTHER THAN LITERALS     19768021
                                    2687 *                                 OR FIG CON,SPECIAL FOR ANALYZERS)     19776021
 00175C 9500 D160      08228        2688          CLI   XCON1,XX00                                               19784021
 001760 4770 B482      01B12        2689        BC    NOTEQ,GDCDEF    BRANCH IF DECDEF                           19792021
 001764 D502 D178 C370 08240 07900  2690          CLC   XCNTR1(LX3),GZERO                                        19800021
 00176A 4770 B498      01B28        2691        BC    NOTEQ,GCNTR     BRANCH IF GTREF2                           19808021
 00176E D501 D186 C370 0824E 07900  2692          CLC   BLREF1(LX2),GZERO                                        19816021
 001774 4770 B4F8      01B88        2693        BC    NOTEQ,GBLREF    BRANCH IF BLREF                            19824021
 001778 D501 D156 C370 0821E 07900  2694          CLC   VIRTC1+NX2(LX2),GZERO                                    19832021
 00177E 4770 B4D2      01B62        2695        BC    NOTEQ,GVIRT     BRANCH IF VIRTUAL                          19840021
 001782 9500 D158      08220        2696          CLI   GVIRT1,XX00    BCDREF USED GVIRT1+2 NOT VIRTC1+2         19848021
 001786 4770 B506      01B96        2697        BC    NOTEQ,GBCDRF    BRANCH IF BCDREF                           19856021
 00178A 9500 D14D      08215        2698          CLI   TALLY1,XX00                                              19864021
 00178E 4770 B702      01D92        2699        BC    NOTEQ,GTALLY    BRANCH IF TALLY                            19872021
 001792 D503 D150 C370 08218 07900  2700          CLC   RELAD1(LX4),GZERO                                        19880021
 001798 4770 B51C      01BAC        2701        BC    NOTEQ,GRLADR    BRANCH IF REL ADR    POINTER IF LITERA     19888021
 00179C 9530 4000      00000        2702 GCKOP2   CLI   DX0(OPD1),XX30                                           19896021
 0017A0 4780 B1E2      01872        2703        BC    EQ,GDN          BRANCH IF DATA NAME                        19904021
 0017A4 9536 4000      00000        2704          CLI   DX0(OPD1),XX36            INDEX-NAME                     19912021
 0017A8 4780 B1B2      01842        2705          BE    ATXSET1                  YES                             19920021
 0017AC 9534 4000      00000        2706          CLI   DX0(OPD1),XX34                                           19928021
 0017B0 4780 B71E      01DAE        2707        BC    EQ,GALLIT       BRANCH IF ALPHA LITERAL                    19936021
 0017B4 9532 4000      00000        2708          CLI   DX0(OPD1),XX32                                           19944021
 0017B8 4780 B882      01F12        2709        BC    EQ,GNUMLT       BRANCH IF NUMERIC LITERAL                  19952021
 0017BC 9533 4000      00000        2710          CLI   DX0(OPD1),XX33                                           19960021
 0017C0 4780 B736      01DC6        2711        BC    EQ,GFLTLT       BRANCH IF FLOATING POINT LITERAL           19968021
 0017C4 9575 4000      00000        2712          CLI   DX0(OPD1),XX75                                           19976021
 0017C8 4780 B75E      01DEE        2713        BC    EQ,GFGCON       BRANCH IF FIGURATIVE CONSTANT              19984021
1                           A-TEXT GENERATOR                                                                    PAGE   71
-  LOC  OBJECT CODE    ADDR1 ADDR2  STMT   SOURCE STATEMENT                                       ASM 0201 11.03 02/14/15
00017CC 95FA 4000      00000        2714          CLI   DX0(OPD1),XXFA                                           19992021
 0017D0 4780 B6F8      01D88        2715        BC    EQ,GGTRF2       BRANCH IF GTREF2                           20000021
 0017D4 95F9 4000      00000        2716          CLI   DX0(OPD1),XXF9                                           20008021
 0017D8 4780 B6EE      01D7E        2717        BC    EQ,GGTRF1       BRANCH IF GTREF1                           20016021
 0017DC 9579 4000      00000        2718          CLI   DX0(OPD1),XSTDTN                                         20024021
 0017E0 4780 B702      01D92        2719          BE    GTALLY              BRANCH IF A TALLY POINTER            20032021
 0017E4 47F0 B678      01D08        2720          B     GBDISP              SET UP BDISP FOR ATEXT               20040021
 0017E8 9215 D1DD      082A5        2721 COMPLG   MVI   OPCOD,XX15     CLR OP CODE IS 15  CHANGED IF CL,OR CL    20048021
 0017EC 900F D0E0      081A8        2722 GHIBT1 STM   GR1,GR15,GSVRG                                             20056021
 0017F0 9846 D138      08200        2723        LM    OPD1,OPD3,OP1   LD REGS WITH OPND PTRS   3 WITH GADPAR     20064021
 0017F4 D501 D148 C370 08210 07900  2724          CLC   XL1(LX2),GZERO                                           20072021
 0017FA 4770 B198      01828        2725        BC    NOTEQ,SETLSS    BRANCH IF LOGICAL SS TYPE INSTRUCTION      20080021
 0017FE D53D D14A C370 08212 07900  2726        CLC   XWC1(GCNLN2),GZERO                                         20088021
 001804 4770 B180      01810        2727        BC    NOTEQ,GSTRX2    BRANCH IF RX TYPE INSTRUCTION              20096021
 001808 5940 C370      07900        2728        C     OPD1,GZERO                                                 20104021
 00180C 4780 B050      016E0        2729        BC    EQ,SETRR        BRANCH IF RR TYPE INSTRUCTION              20112021
 001810 9500 D18A      08252        2730 GSTRX2   CLI   XXREG,XX00                                               20120021
 001814 4770 BD26      023B6        2731        BC    NOTEQ,GFKRG2          GENERATE RX TYPE INSTRUCTION         20128021
 001818 47F0 B060      016F0        2732        BC    UNCOND,SETRX2         GENERATE RX REG TYPE INSTRUC         20136021
 00181C 9212 D1DD      082A5        2733 MVC      MVI   OPCOD,XX12     MVC LO ORDER OF OP FIELD IS 2             20144021
 001820 900F D0E0      081A8        2734 GFXLSS STM   GR1,GR15,GSVRG                                             20152021
 001824 9846 D138      08200        2735        LM    OPD1,OPD3,OP1   LD REG WITH OPND PTRS   3 WITH GADPAR      20160021
 001828 9240 D1D8      082A0        2736 SETLSS   MVI   GBIT1,XX40     SET BIT FOR SS TYPE   2 ADDRESSES WANT    20168021
 00182C 97C0 D1DD      082A5        2737          XI    OPCOD,XXC0     PUT D IN HI ORDER  (1 ALREADY THERE)      20176021
 001830 4890 D148      08210        2738        LH    GXRA,XL1                                                   20184021
 001834 0690                        2739        BCTR  GXRA,RW0          SUBTRACT 1 FROM LENGTH                   20192021
 001836 4290 D1DE      082A6        2740        STC   GXRA,GABS                                                  20200021
 00183A 4290 D148      08210        2741        STC   GXRA,XL1                                                   20208021
 00183E 47F0 B080      01710        2742        BC    UNCOND,GCHKOP         GENERATE SS INSTR CODE               20216021
 001842 9264 6000      00000        2743 ATXSET1  MVI   DX0(OPD3),XX64                                           20224021
 001846 925C 6001      00001        2744          MVI   DX1(OPD3),INCODE                                         20232021
 00184A D201 6002 4003 00002 00003  2745          MVC   DX2(LX2,OPD3),DX3(OPD1)                                  20240021
 001850 4166 0004      00004        2746          LA    OPD3,DX4(OPD3)                                           20248021
 001854 92B4 6000      00000        2747          MVI   DX0(OPD3),XXB4    MOVE XREF FOR INDX-NM            38953 20256021
 001858 D202 6001 4007 00001 00007  2748          MVC   DX1(LX3,OPD3),DX7(OPD1)    ELT TO OUTPUT           38953 20264021
 00185E 4166 0004      00004        2749          LA    OPD3,DX4(OPD3)    AND INCR AREA PTR                38953 20272021
 001862 9180 D1D8      082A0        2750        TM    GBIT1,HFWORD                                               20280021
 001866 4780 B2D4      01964        2751        BZ    GADNUM                IF ADD1 COMPLT BR FOR 2ND SS ADD     20288021
 00186A 9740 D1DD      082A5        2752          XI    OPCOD,XX40         PUT 5 IN HI ORDER,1ALREADY THERE      20296021
 00186E 47F0 B2D4      01964        2753          B     GADNUM              COMPLETE ATXT                        20304021
 001872 D502 4004 C830 00004 07DC0  2754 GDN      CLC   DX4(LX3,OPD1),XTALLV+NX4                                 20312021
 001878 4780 B702      01D92        2755        BC    EQ,GTALLY                  BRANCH IF TALLY                 20320021
 00187C 91FF 4004      00004        2756        TM    XDIDK(OPD1),SPREG    IS THIS DN A 'SPECIAL REG'...         20328021
 001880 4710 B304      01994        2757        BO    SPREG1               YES, CHANGE TO BDISP ELEMENT          20336021
 001884 D502 4004 C850 00004 07DE0  2758          CLC   DX4(LX3,OPD1),XC000                                      20344021
 00188A 4770 B214      018A4        2759          BNE   MOVE16              IF IDK FIELD NOT ZERO BRANCH         20352021
 00188E D201 D0C8 C3AE 08190 0793E  2760          MVC   AXTC01+NX2(LX2),XC001                                    20360021
 001894 D203 6000 D0C6 00000 0818E  2761          MVC   DX0(LX4,OPD3),AXTC01       IN CASE OF A FAKE ALPHN.DN    20368021
 00189A 4166 0004      00004        2762          LA    OPD3,DX4(OPD3)            FROM THE MOVE VERB -REPLACE    20376021
 00189E 1744                        2763          XR    OPD1,OPD1                DN  BY  TS2 .                   20384021
 0018A0 47F0 B2D4      01964        2764          B     GADNUM              GET ADDRESS FOR ATXT                 20392021
                             018A4  2765 MOVE16   EQU   *                                                        20400021
 0018A4 9180 D1D8      082A0        2766        TM    GBIT1,HFWORD                                               20408021
                                    2767 *                                                                       20416021
 0018A8 4780 B238      018C8        2768          BZ    AXT100              SET UP DNM FOR ATXT                  20424021
1                           A-TEXT GENERATOR                                                                    PAGE   72
-  LOC  OBJECT CODE    ADDR1 ADDR2  STMT   SOURCE STATEMENT                                       ASM 0201 11.03 02/14/15
00018AC 9101 D1D9      082A1        2769          TM    GBIT2,XX01                                               20432021
 0018B0 4710 B234      018C4        2770        BC    ONES,GHALF            BRANCH IF HALFWORD ENTRY POINT       20440021
 0018B4 9504 4009      00009        2771          CLI   DX9(OPD1),XX04                                           20448021
 0018B8 47D0 B234      018C4        2772        BC    NOTHI,GHALF     BRANCH IF HALFWORD INSTRUCTION             20456021
 0018BC 9740 D1DD      082A5        2773          XI    OPCOD,XX40    PUT 5 IN HIGH ORDER (1 ALREADY THERE)      20464021
 0018C0 47F0 B238      018C8        2774          B     AXT100              IF NOT HALFWD INSTRUC SKIP NXT       20472021
 0018C4 9750 D1DD      082A5        2775 GHALF    XI    OPCOD,XX50    PUT 4 IN HIGH ORDER (1 ALREADY THERE)      20480021
 0018C8 956D D0D1      08199        2776 AXT100   CLI   HEADER+NX1,XX6D                                          20488021
 0018CC 4770 B2B4      01944        2777          BNE   GNOLGN              IF EQU IN SEARCHALL SKIP NXT         20496021
 0018D0 5940 C8CC      07E5C        2778          C     OPD1,XAOPE2                                              20504021
 0018D4 4770 B2B4      01944        2779          BNE   GNOLGN              IF NOT 2ND OPD SKIP NXT              20512021
 0018D8 D200 D0C9 D0BF 08191 08187  2780          MVC   AXTC01+NX3(LX1),AXTLENG+NX1 SET TS2 PARAMETER            20520021
 0018DE 9540 D1DD      082A5        2781          CLI   OPCOD,XX40                                               20528021
 0018E2 4770 B262      018F2        2782          BNE   AXT106              IF NOT STH, BRANCH                   20536021
 0018E6 9601 D1D9      082A1        2783          OI    GBIT2,XX01                                               20544021
 0018EA 9680 D1D8      082A0        2784 AXT108   OI    GBIT1,HFWORD                                             20552021
 0018EE 47F0 B26A      018FA        2785          B     AXT107              READY TO CONTINUE PROCESSING         20560021
 0018F2 9550 D1DD      082A5        2786 AXT106   CLI   OPCOD,XX50                                               20568021
 0018F6 4780 B25A      018EA        2787          BE    AXT108              IF ST BRANCH TO GEN PROPER ATXT      20576021
                             018FA  2788 AXT107   EQU   *                                                        20584021
 0018FA 9180 D1D8      082A0        2789          TM    GBIT1,HFWORD             ALIGNT  NEEDED                  20592021
 0018FE 4710 B28A      0191A        2790          BO    AXT101                   YES                             20600021
 001902 9102 D1D9      082A1        2791          TM    GBIT2,XX02                                               20608021
 001906 4710 B28A      0191A        2792          BO    AXT101                   YES                             20616021
 00190A D203 6000 D0C6 00000 0818E  2793          MVC   DX0(LX4,OPD3),AXTC01       NO ,SUBSTITUTE TS2 TO ORIGI   20624021
                                    2794 *                                       DATA-NAME.                      20632021
 001910 4166 0004      00004        2795          LA    OPD3,DX4(OPD3)                                           20640021
 001914 1744                        2796          XR    OPD1,OPD1                                                20648021
 001916 47F0 B2D4      01964        2797          B     GADNUM              COMPLETES ATXT UP TO 2ND DNM         20656021
 00191A 9604 D1D9      082A1        2798 AXT101   OI    GBIT2,XX04                                               20664021
 00191E 45E0 7858      00858        2799          BAL   XRSUB,XE8DB              ASK FOR A TEMP.STOR.IN A DO     20672021
 001922 4800 D446      0850E        2800        LH    XR0,XEREL1                                                 20680021
 001926 4B00 C866      07DF6        2801        SH    XR0,GSEVEN                                                 20688021
 00192A 4000 D0CC      08194        2802          STH   XR0,AXTC02+NX2                                           20696021
 00192E 45E0 790E      0090E        2803          BAL   XRSUB,XERELS        INSERT POINTER TO TBL SPACE          20704021
 001932 D203 6000 D0CA 00000 08192  2804          MVC   DX0(LX4,OPD3),AXTC02                                     20712021
 001938 4166 0004      00004        2805          LA    OPD3,DX4(OPD3)                                           20720021
 00193C 47F0 B9B2      02042        2806          B     GNOTPT              COMPLETE AND WRITE ATXT IF 1 ADD     20728021
                                    2807 *                                                                       20736021
                                    2808 *                                                                       20744021
 001940 9601 D1D9      082A1        2809          OI    GBIT2,XX01                                               20752021
 001944 9278 6000      00000        2810 GNOLGN   MVI   DX0(OPD3),XX78                                           20760021
 001948 D202 6001 4004 00001 00004  2811          MVC   DX1(LX3,OPD3),DX4(OPD1) MOVE ADDRESS PARAMS TO BYTE AFTE 20768021
 00194E 1B99                        2812        SR      GXRA,GXRA                                                20776021
 001950 4394 0001      00001        2813          IC    GXRA,DX1(OPD1) GET                                       20784021
 001954 0690                        2814        BCTR  GXRA,RW0              DATA NAME                            20792021
 001956 4199 4000      00000        2815          LA    GXRA,DX0(GXRA,OPD1)   INTERNAL                           20800021
 00195A D202 6004 9000 00004 00000  2816          MVC   DX4(LX3,OPD3),DX0(GXRA)   IDENTIFIER                     20808021
 001960 4166 0007      00007        2817          LA    OPD3,DX7(OPD3)                                           20816021
 001964 9101 D1D8      082A0        2818 GADNUM TM    GBIT1,GAD1DN      ADDRESS1 DONE                            20824021
 001968 4710 B366      019F6        2819        BC    ONES,GPLUS2       BRANCH IF YES.                           20832021
 00196C D502 D17B C370 08243 07900  2820          CLC   PLUS1(LX3),GZERO IS  THERE A PLUS ELEMENT                20840021
 001972 4770 B3C0      01A50        2821        BC    NOTEQ,GPLUS1      BRANCH IF PLUS                           20848021
 001976 9140 D1D8      082A0        2822 GDOAGN TM    GBIT1,TWOADR   ARE THERE 2 ADDRESSES (SS INSTRUCTION)      20856021
 00197A 4780 B9B2      02042        2823        BC     ZERO,GNOTPT   BRANCH IF THERE ARE NOT 2 ADDRESSES         20864021
1                           A-TEXT GENERATOR                                                                    PAGE   73
-  LOC  OBJECT CODE    ADDR1 ADDR2  STMT   SOURCE STATEMENT                                       ASM 0201 11.03 02/14/15
000197E 9601 D1D8      082A0        2824        OI    GBIT1,GAD1DN     1'ST  ADR IS NOW COMPLETED                20872021
 001982 5950 C370      07900        2825        C     OPD2,GZERO                                                 20880021
 001986 4770 B360      019F0        2826        BC    NOTEQ,GCNGAD    BRANCH IF THERE WERE 2 ADDRESS PTRS        20888021
 00198A D23D D14A D192 08212 0825A  2827        MVC   XWC1(GCNLN2),XWC2  CHANGE ALL ADDRESS TWOS TO ADR ONES     20896021
 001990 47F0 B088      01718        2828        BC    UNCOND,GCKOP3         GENERATE ATXT FOR 2ND ADDRESS        20904021
                                    2829 * SPECIAL REGISTER PROCESSING                                           20912021
                             01994  2830 SPREG1 EQU   *                    PROCESS SPECIAL REGISTERA             20920021
 001994 950B 4006      00006        2831          CLI   DX6(OPD1),XGBINR    TEST FOR VALID USE                   20928021
 001998 4740 B34E      019DE        2832        BL    SPRERR               INVALID. PUT ERROR MSG                20936021
 00199C 4780 B33A      019CA        2833        BE    SPREG2               SORT-RETURN IS HALF WORD              20944021
 0019A0 9510 4006      00006        2834          CLI   DX6(OPD1),XX10      TEST FOR VALID USE                   20952021
 0019A4 4720 B34E      019DE        2835          BH    SPRERR                  INVALID                          20960021
 0019A8 4780 B33A      019CA        2836        BE    SPREG2               RETURN-CODE IS HALF WORD              20968021
                             019AC  2837 SPREG3 EQU   *                                                          20976021
 0019AC 1B11                        2838        SR    RW1,RW1                                                    20984021
 0019AE 4314 0006      00006        2839          IC    RW1,DX6(OPD1)       PICK UP UNIQUE SPEC REG IDENTIF      20992021
 0019B2 4B10 C86E      07DFE        2840        SH    RW1,XC011                                                  21000021
 0019B6 8910 0001      00001        2841          SLL   RW1,DX1             USE AS INDEX TO BASE AND DISPL       21008021
 0019BA 4120 CA54      07FE4        2842        LA    RW2,SPREGC                                   TABLE         21016021
 0019BE 1A21                        2843        AR    RW2,RW1                                                    21024021
 0019C0 D201 D14E 2000 08216 00000  2844          MVC   BDISP1(LX2),DX0(RW2) CHANGE REFERENCE TO BDISP           21032021
 0019C6 47F0 B678      01D08        2845        B     GBDISP               PROCESS AS BDISP                      21040021
 0019CA 91C0 D1DD      082A5        2846 SPREG2   TM    OPCOD,XXC0           SS INSTRUCTION...                   21048021
 0019CE 4710 B31C      019AC        2847        BO    SPREG3               YES                                   21056021
 0019D2 9680 D1D8      082A0        2848        OI    GBIT1,HFWORD         INDICATE  HALFWORD INSTR NEEDED       21064021
 0019D6 9601 D1D9      082A1        2849          OI    GBIT2,XX01                                               21072021
 0019DA 47F0 B31C      019AC        2850        B     SPREG3                PICK UP BASE DISP FOR ATXT           21080021
 0019DE 45E0 7AC0      00AC0        2851 SPRERR BAL   RETRG,ERRPRO         PUT MSG-INVALID USE OF SPEC REG       21088021
 0019E2 0F                          2852        DC    AL1(ERRN15)                                                21096021
 0019E3 02                          2853        DC    AL1(2)               E-LEVEL                               21104021
 0019E4 41E0 700A      0000A        2854        LA    RETRG,PH5CTL         SET RETURN REG TO PH5 CONTROL SO      21112021
 0019E8 50E0 D118      081E0        2855        ST    RETRG,GSVRG+NX56      THIS STATEMENT WILL BE IGNORED       21120021
 0019EC 47F0 BA62      020F2        2856        B     AXT102               REINITIAL. ATXT GEN FOR NEXT USE      21128021
 0019F0 1845                        2857 GCNGAD LR    OPD1,OPD2                                                  21136021
 0019F2 47F0 B10C      0179C        2858        BC    UNCOND,GCKOP2         GENERATE ATXT FOR SPEC REG           21144021
 0019F6 D502 D1C3 C370 0828B 07900  2859 GPLUS2   CLC   PLUS2(LX3),GZERO                                         21152021
 0019FC 4780 B9B2      02042        2860        BC    EQ,GNOTPT       BRANCH IF PLUS2 IS ZERO                    21160021
 001A00 5940 C370      07900        2861        C     OPD1,GZERO            DOES ADRPLUS APPLY...                21168021
 001A04 4780 B3AE      01A3E        2862        BC    EQ,GPLUSA              NO                                  21176021
 001A08 D530 D192 C370 0825A 07900  2863        CLC   XWC2(ADRPLX),GZERO                                         21184021
 001A0E 4770 B3AE      01A3E        2864        BC    NOTEQ,GPLUSA          NO                                   21192021
 001A12 D507 D1C8 C370 08290 07900  2865        CLC   XVN2(ADRPLY),GZERO                                         21200021
 001A18 4770 B3AE      01A3E        2866        BC    NOTEQ,GPLUSA          NO                                   21208021
 001A1C 9530 4000      00000        2867          CLI   DX0(OPD1),MDN                                            21216021
 001A20 4770 B3AE      01A3E        2868        BC    NOTEQ,GPLUSA           NO                                  21224021
 001A24 D200 D328 4004 083F0 00004  2869          MVC   GTEMP(LX1),DX4(OPD1)                                     21232021
 001A2A 9470 D328      083F0        2870          NI    GTEMP,XX70           ELIM SUBSCRIPT AND TALLY            21240021
 001A2E 9560 D328      083F0        2871          CLI   GTEMP,XX60                                               21248021
 001A32 4780 B3AE      01A3E        2872        BC    EQ,GPLUSA              NO                                  21256021
 001A36 9530 D328      083F0        2873          CLI   GTEMP,XX30                                               21264021
 001A3A 4770 B410      01AA0        2874        BC    NOTEQ,GPLUSB           YES                                 21272021
                             01A3E  2875 GPLUSA EQU   *                                                          21280021
 001A3E 9280 6000      00000        2876          MVI   DX0(OPD3),XX80 SET UP PLUS ELEMENT                       21288021
 001A42 D202 6001 D1C3 00001 0828B  2877          MVC   DX1(LX3,OPD3),PLUS2   FOR A TEXT OUTPUT                  21296021
 001A48 4166 0004      00004        2878          LA    OPD3,DX4(OPD3) INCREMENT POINTER                         21304021
1                           A-TEXT GENERATOR                                                                    PAGE   74
-  LOC  OBJECT CODE    ADDR1 ADDR2  STMT   SOURCE STATEMENT                                       ASM 0201 11.03 02/14/15
0001A4C 47F0 B9B2      02042        2879          BC  UNCOND,GNOTPT         COMPLT AND WRITE ATXT IF 1 ADD       21312021
 001A50 5940 C370      07900        2880 GPLUS1 C     OPD1,GZERO            DOES ADRPLUS APPLY...                21320021
 001A54 4780 B3FE      01A8E        2881        BC    EQ,GPLUSC              NO                                  21328021
 001A58 D530 D14A C370 08212 07900  2882        CLC   XWC1(ADRPLX),GZERO                                         21336021
 001A5E 4770 B3FE      01A8E        2883        BC    NOTEQ,GPLUSC          NO, OPD1 IS FOR ADDR2                21344021
 001A62 D507 D180 C370 08248 07900  2884        CLC   XVN1(ADRPLY),GZERO                                         21352021
 001A68 4770 B3FE      01A8E        2885        BC    NOTEQ,GPLUSC          NO                                   21360021
 001A6C 9530 4000      00000        2886          CLI   DX0(OPD1),MDN                                            21368021
 001A70 4770 B3FE      01A8E        2887        BC    NOTEQ,GPLUSC          NO                                   21376021
 001A74 D200 D328 4004 083F0 00004  2888          MVC   GTEMP(LX1),DX4(OPD1)                                     21384021
 001A7A 9470 D328      083F0        2889          NI    GTEMP,XX70                                               21392021
 001A7E 9560 D328      083F0        2890          CLI   GTEMP,XX60                                               21400021
 001A82 4780 B3FE      01A8E        2891        BC    EQ,GPLUSC              NO                                  21408021
 001A86 9530 D328      083F0        2892          CLI   GTEMP,XX30                                               21416021
 001A8A 4770 B41C      01AAC        2893        BC    NOTEQ,GPLUSD           YES                                 21424021
 001A8E 9280 6000      00000        2894 GPLUSC   MVI   DX0(OPD3),XX80       SET UP PLUS A-TEXT HEADER           21432021
 001A92 D202 6001 D17B 00001 08243  2895          MVC   DX1(LX3,OPD3),PLUS1   ELEMENT FOR A TEXT OUTPUT          21440021
 001A98 4166 0004      00004        2896          LA    OPD3,DX4(OPD3) INCREMENT POINTER                         21448021
 001A9C 47F0 B2E6      01976        2897          BC  UNCOND,GDOAGN         GET NXT DNM AND GENERATE ATXT        21456021
 001AA0 41E0 D1C3      0828B        2898 GPLUSB LA    RETRG,PLUS2           SET UP PLUS 2 POINTERS               21464021
 001AA4 41F0 B9B2      02042        2899        LA    XRVAR,GNOTPT                                               21472021
 001AA8 47F0 B424      01AB4        2900        BC    UNCOND,GPLUSZ         SKIP NXT TO PT TO PLUS2 POINTER      21480021
 001AAC 41E0 D17B      08243        2901 GPLUSD LA    RETRG,PLUS1           SET UP PLUS 1 POINTERS               21488021
 001AB0 41F0 B2E6      01976        2902        LA    XRVAR,GDOAGN                                               21496021
 001AB4 4B60 C866      07DF6        2903 GPLUSZ SH    OPD3,XC007            CONVERT ADR ELEMENT TO ADRPLUS E     21504021
 001AB8 92A4 6000      00000        2904          MVI   DX0(OPD3),XXA4       ADRPLUS HEADER                      21512021
 001ABC D202 6007 E000 00007 00000  2905          MVC   DX7(LX3,OPD3),DX0(RETRG) MOVE IN PLUS VALUE              21520021
 001AC2 D202 D329 E000 083F1 00000  2906          MVC   GTEMP+NX1(LX3),DX0(RETRG)                                21528021
 001AC8 9200 D328      083F0        2907          MVI   GTEMP,XX00                                               21536021
 001ACC 9002 C794      07D24        2908        STM   RW0,RW2,SVWJHQ                                             21544021
 001AD0 5810 D328      083F0        2909        L     RW1,GTEMP               PLUS  VALUE                        21552021
 001AD4 D201 D328 4004 083F0 00004  2910          MVC   GTEMP(LX2),DX4(OPD1)                                     21560021
 001ADA 940F D328      083F0        2911          NI    GTEMP,XX0F                                               21568021
 001ADE 4A10 D328      083F0        2912        AH    RW1,GTEMP               DDD + PLUS                         21576021
 001AE2 1B22                        2913        SR    RW2,RW2                                                    21584021
 001AE4 4324 0006      00006        2914          IC    RW2,DX6(OPD1)          KK    (BL NUMBER)                 21592021
 001AE8 1B00                        2915        SR    RW0,RW0                                                    21600021
 001AEA 5D00 C3B4      07944        2916        D     RW0,FW4096              (DDDD+PLUS) / 4096 = Q + R         21608021
 001AEE 1A21                        2917        AR    RW2,RW1                   UP BL BY Q                       21616021
 001AF0 4226 0003      00003        2918          STC   RW2,DX3(OPD3)          KK                                21624021
 001AF4 4000 D328      083F0        2919        STH   RW0,GTEMP               R  REPLACES DDD                    21632021
 001AF8 94F0 6001      00001        2920          NI    DX1(OPD3),XXF0                                           21640021
 001AFC D600 6001 D328 00001 083F0  2921          OC    DX1(LX1,OPD3),GTEMP                                      21648021
 001B02 D200 6002 D329 00002 083F1  2922          MVC   DX2(LX1,OPD3),GTEMP+NX1                                  21656021
 001B08 4166 000A      0000A        2923          LA    OPD3,DX10(OPD3)                                          21664021
 001B0C 9802 C794      07D24        2924        LM    RW0,RW2,SVWJHQ                                             21672021
 001B10 07FF                        2925        BCR   UNCOND,XRVAR          BRANCHES TO COMPLETE ATXT            21680021
 001B12 926C 6000      00000        2926 GDCDEF   MVI   DX0(OPD3),XX6C                                           21688021
 001B16 1B99                        2927        SR      GXRA,GXRA                                                21696021
 001B18 4390 D160      08228        2928        IC    GXRA,XCON1                                                 21704021
 001B1C 4490 BE8E      0251E        2929        EX    GXRA,GDC1                 MOVE                             21712021
 001B20 4169 6002      00002        2930          LA    OPD3,DX2(GXRA,OPD3)                                      21720021
 001B24 47F0 B9B2      02042        2931        BC    UNCOND,GNOTPT         COMPLT ATXT FOR 1 ADDRESS            21728021
 001B28 9264 6000      00000        2932 GCNTR    MVI   DX0(OPD3),XX64 SET UP GTREF2                             21736021
 001B2C D202 6001 D178 00001 08240  2933          MVC   DX1(LX3,OPD3),XCNTR1                                     21744021
1                           A-TEXT GENERATOR                                                                    PAGE   75
-  LOC  OBJECT CODE    ADDR1 ADDR2  STMT   SOURCE STATEMENT                                       ASM 0201 11.03 02/14/15
0001B32 9180 D1D8      082A0        2934        TM    GBIT1,HFWORD                                               21752021
 001B36 4780 B5B0      01C40        2935        BC    ZERO,GADD4            INCREM PTR AND GEN ATXT FOR DNM      21760021
 001B3A 9504 D178      08240        2936          CLI   XCNTR1,XX04    VLC                                       21768021
 001B3E 4780 B4CA      01B5A        2937        BC    EQ,GCNTR2             GEN ST INSTRUC FOR VLC               21776021
 001B42 9534 D178      08240        2938          CLI   XCNTR1,XX34          VLC-OUT-OF-LINE                     21784021
 001B46 4770 B4C2      01B52        2939        BC    NOTEQ,GCNTR1          GEN STH FOR DNM                      21792021
 001B4A 9238 6001      00001        2940          MVI   DX1(OPD3),XX38                                           21800021
 001B4E 4780 B4CA      01B5A        2941        BC    EQ,GCNTR2             IF VLC-OUT-OF-LINE GEN ST INSTR      21808021
 001B52 9740 D1DD      082A5        2942 GCNTR1   XI    OPCOD,XX40                                               21816021
 001B56 47F0 B5B0      01C40        2943        BC    UNCOND,GADD4          INCREM PTR AND GEN ATXT FOR DNM      21824021
 001B5A 9750 D1DD      082A5        2944 GCNTR2   XI    OPCOD,XX50                                               21832021
 001B5E 47F0 B5B0      01C40        2945        BC    UNCOND,GADD4          INCREM PTR AND GEN ATXT FOR DNM      21840021
                                    2946 * VIRTUALS                                                              21848021
 001B62 4120 D154      0821C        2947 GVIRT  LA    RW2,VIRTC1                                                 21856021
 001B66 4130 000C      0000C        2948          LA    RW3,DX12                                                 21864021
 001B6A 45E0 71FA      001FA        2949        BAL   RETRG,PUTVIR          DEFINE NEW VIRTUAL                   21872021
 001B6E 9258 6000      00000        2950          MVI   DX0(OPD3),XX58 VIR REF                                   21880021
 001B72 D201 6001 D156 00001 0821E  2951          MVC   DX1(LX2,OPD3),VIRTC1+NX2                                 21888021
 001B78 9180 D1D8      082A0        2952        TM    GBIT1,HFWORD                                               21896021
 001B7C 4780 B6AC      01D3C        2953        BC    ZERO,GADD3            GENERATE ATXT FOR DNM                21904021
 001B80 9740 D1DD      082A5        2954          XI    OPCOD,XX40     FULL WORD INSTRUCTION                     21912021
 001B84 47F0 B6AC      01D3C        2955        BC    UNCOND,GADD3          GENERATE ATXT FOR DNM                21920021
 001B88 925C 6000      00000        2956 GBLREF   MVI   DX0(OPD3),XX5C SET UP                                    21928021
 001B8C D201 6001 D186 00001 0824E  2957          MVC   DX1(LX2,OPD3),BLREF1 BLREF                               21936021
 001B92 47F0 B690      01D20        2958        BC    UNCOND,GGN1          ELEMENT FOR A TEXT OUTPUT             21944021
 001B96 927C 6000      00000        2959 GBCDRF   MVI   DX0(OPD3),XX7C SET UP                                    21952021
 001B9A 9208 6001      00001        2960          MVI   DX1(OPD3),XX08    BCDREF                                 21960021
 001B9E D207 6002 D158 00002 08220  2961          MVC   DX2(LX8,OPD3),GVIRT1  ELEMENT                            21968021
 001BA4 4166 000A      0000A        2962          LA    OPD3,DX10(OPD3)          INCREMENT POINTER               21976021
 001BA8 47F0 B2D4      01964        2963        BC    UNCOND,GADNUM         GENERATE ATXT FOR DNM                21984021
 001BAC 952C D150      08218        2964 GRLADR   CLI   RELAD1,XX2C                                              21992021
 001BB0 4770 B532      01BC2        2965        BC    NOTEQ,GFNRAD    BRANCH IF NOT LITERAL REL ADR              22000021
 001BB4 9680 D1D9      082A1        2966          OI    GBIT2,XX80     HAVE REL ADR                              22008021
 001BB8 47F0 B10C      0179C        2967        BC    UNCOND,GCKOP2         LOOK FOR DUPS AND GENERATE ATXT      22016021
 001BBC D201 D152 A164 0821A 00164  2968 GRELIT   MVC   RELAD1+NX2(LX2),LTLCTR SET LITERAL ID NUMB               22024021
 001BC2 91FE D151      08219        2969 GFNRAD   TM    RELAD1+NX1,XXFE     TEST ALL BITS EXCEPT BIT1            22032021
 001BC6 4770 B542      01BD2        2970          BC    NOTEQ,GFNRA        NO, BRANCH                            22040021
 001BCA 92B0 6000      00000        2971          MVI   DX0(OPD3),XXB0            SETUP CALLING SEQ.DISP.ELEM    22048021
 001BCE 47F0 B54E      01BDE        2972          BC    UNCOND,GFNRA+NX12  SKIP NEXT TWO INST.                   22056021
 001BD2 9502 D151      08219        2973 GFNRA    CLI   RELAD1+NX1,XX02     TEST IF SS=2 MEANS DICT PTR ELEME    22064021
 001BD6 4780 B55C      01BEC        2974          BC    EQ,CSDIPT          BRANCH IF SS=2                        22072021
 001BDA 9284 6000      00000        2975          MVI   DX0(OPD3),XX84                                           22080021
 001BDE D203 6001 D150 00001 08218  2976          MVC   DX1(LX4,OPD3),RELAD1                                     22088021
 001BE4 4166 0005      00005        2977          LA    OPD3,DX5(OPD3)      INCREMENT POINTER                    22096021
 001BE8 47F0 B2D4      01964        2978        BC    UNCOND,GADNUM         GENERATE ATXT FOR DNM                22104021
 001BEC 9580 D150      08218        2979 CSDIPT   CLI   RELAD1,XX80         XREF ELE...                          22112021
 001BF0 4770 B56C      01BFC        2980        BNE   CDIPT1               NO                                    22120021
 001BF4 92B8 6000      00000        2981          MVI   DX0(OPD3),FREF      SET XREF CODE                        22128021
 001BF8 47F0 B570      01C00        2982        B     CDIPT2                MOVE DICTRY POINTER INTO ELEM        22136021
 001BFC 92B4 6000      00000        2983 CDIPT1   MVI   DX0(OPD3),XXB4                                           22144021
 001C00 D202 6001 D152 00001 0821A  2984 CDIPT2   MVC   DX1(LX3,OPD3),RELAD1+NX2 MOVE DICT PTR INTO ELEMENT      22152021
 001C06 47F0 B5B0      01C40        2985          BC    UNCOND,GADD4        INCREM PTR AND GEN ATXT FOR DNM      22160021
 001C0A 9180 D1D8      082A0        2986 GWC      TM  GBIT1,HFWORD                                               22168021
 001C0E 4780 B596      01C26        2987          BC  ZERO,GNOLN2     BRANCH IF HALFWORD TEST NOT WANTED         22176021
 001C12 9502 D14C      08214        2988          CLI   XWC1+NX2,XX02                                            22184021
1                           A-TEXT GENERATOR                                                                    PAGE   76
-  LOC  OBJECT CODE    ADDR1 ADDR2  STMT   SOURCE STATEMENT                                       ASM 0201 11.03 02/14/15
0001C16 47D0 B592      01C22        2989          BC  NOTHI,GHALF2    BRANCH IF HALFWORD                         22192021
 001C1A 9740 D1DD      082A5        2990          XI    OPCOD,XX40     PUT 5 IN HI ORDER (1 THERE ALREADY)       22200021
 001C1E 47F0 B596      01C26        2991        BC    UNCOND,GNOLN2         SET UP TS ELEM FOR ATXT OUTPUT       22208021
 001C22 9750 D1DD      082A5        2992 GHALF2   XI    OPCOD,XX50     PUT 4 IN HI ORDER  (1 THERE ALREADY)      22216021
 001C26 9264 6000      00000        2993 GNOLN2   MVI   DX0(OPD3),XX64 SET UP WC ELEMENT FOR A TEXT OUTPUT       22224021
 001C2A 9224 6001      00001        2994          MVI   DX1(OPD3),XX24 TEMPORARY STORAGE                         22232021
 001C2E 4890 D14A      08212        2995        LH    GXRA,XWC1                                                  22240021
 001C32 4B90 C866      07DF6        2996        SH    GXRA,GSEVEN                                                22248021
 001C36 4090 D14A      08212        2997        STH   GXRA,XWC1                                                  22256021
 001C3A D201 6002 D14A 00002 08212  2998          MVC   DX2(LX2,OPD3),XWC1                                       22264021
 001C40 4166 0004      00004        2999 GADD4    LA    OPD3,DX4(OPD3) INCREMENT POINTER                         22272021
 001C44 47F0 B2D4      01964        3000        BC    UNCOND,GADNUM         GENERATE ATXT FOR DNM                22280021
                                    3001 * CONSTANTS                                                             22288021
 001C48 9140 D1D9      082A1        3002 GCON     TM    GBIT2,XX40                                               22296021
 001C4C 4710 B482      01B12        3003        BC    ONES,GDCDEF           PUT OUT DC DEF IN ATXT               22304021
 001C50 9502 D170      08238        3004          CLI   XCON1+NX16,XX02                                          22312021
 001C54 4720 B5EC      01C7C        3005        BC    HI,GCON3              TEST FURTHER FOR TYPE OF CONST       22320021
 001C58 4780 B5FC      01C8C        3006        BC    EQ,GCON4              TEST FURTHER FOR TYPE DNM ATXT       22328021
 001C5C 9201 6001      00001        3007 GCON5    MVI   DX1(OPD3),XX01 HEX  NO BOUNDARY REQ                      22336021
 001C60 1BEE                        3008 GCON6  SR    RETRG,RETRG                                                22344021
 001C62 43E0 D170      08238        3009          IC    RETRG,XCON1+NX16                                         22352021
 001C66 4BE0 C876      07E06        3010        SH    RETRG,GSXTEN                                               22360021
 001C6A 13EE                        3011        LCR   RETRG,RETRG                                                22368021
 001C6C 4390 D170      08238        3012          IC    GXRA,XCON1+NX16                                          22376021
 001C70 41EE D160      08228        3013        LA    RETRG,XCON1(RETRG)                                         22384021
 001C74 4490 BE40      024D0        3014        EX    GXRA,GCONMV               MOVE                             22392021
 001C78 47F0 B82C      01EBC        3015        BC    UNCOND,GFNCON         GENERATE LITERAL ELEMT ATXT          22400021
 001C7C 9504 D170      08238        3016 GCON3    CLI   XCON1+NX16,XX04                                          22408021
 001C80 4720 B620      01CB0        3017        BC    HI,GCON7              TEST FURTHER FOR TYPE DNM ATXT       22416021
 001C84 4780 B64C      01CDC        3018        BC    EQ,GCON8              TEST FURTHER FOR TYPE DNM ATXT       22424021
 001C88 47F0 B5CC      01C5C        3019        BC    UNCOND,GCON5          GEN LIT ELEM ATXT HEX,NO ALLIGN      22432021
 001C8C 9180 D1D8      082A0        3020 GCON4  TM    GBIT1,HFWORD                                               22440021
 001C90 4780 B608      01C98        3021        BC    ZERO,GCON44           NO,TEST FOR BINARY INSTRUCTION       22448021
 001C94 9750 D1DD      082A5        3022          XI    OPCOD,XX50                                               22456021
 001C98 91A0 D1D8      082A0        3023 GCON44   TM    GBIT1,XXA0     BINARY INSTRUCTION                        22464021
 001C9C 4780 B618      01CA8        3024        BC    ZERO,GCON45           GEN LIT ELEM ATXT HEX,NO ALLIGN      22472021
 001CA0 9241 6001      00001        3025          MVI   DX1(OPD3),XX41 HEX HFWORD BNDRY                          22480021
 001CA4 47F0 B5D0      01C60        3026        BC    UNCOND,GCON6          GEN ATXT WITH HFWORD ALLIGNMNT       22488021
 001CA8 9201 6001      00001        3027 GCON45   MVI   DX1(OPD3),XX01 HEX  NO BNDRY                             22496021
 001CAC 47F0 B5D0      01C60        3028        BC    UNCOND,GCON6          GEN LIT ELEM ATXT                    22504021
 001CB0 9508 D170      08238        3029 GCON7    CLI   XCON1+NX16,XX08                                          22512021
 001CB4 4770 B5CC      01C5C        3030        BC    NOTEQ,GCON5           GEN ATXT WITHOUT ALLIGNMNT           22520021
 001CB8 9118 D1D8      082A0        3031          TM    GBIT1,XX18     FLOATING POINT                            22528021
 001CBC 4770 B644      01CD4        3032        BC    XNOEQ,GCON72          GEN ATXT WITH DBL WD BOUNDRY         22536021
 001CC0 91A0 D1D8      082A0        3033          TM    GBIT1,XXA0     L   BINARY                                22544021
 001CC4 4770 B64C      01CDC        3034        BC    NOTZER,GCON8          TEST FURTHER                         22552021
 001CC8 9102 D1D9      082A1        3035          TM    GBIT2,XX02                                               22560021
 001CCC 4710 B670      01D00        3036        BC    ONES,GCON8A           GEN ATXT WITH FULL WD BOUNDRY        22568021
 001CD0 47F0 B618      01CA8        3037        BC    UNCOND,GCON45         GEN ATXT WITHOUT BNDRY ALLIGN        22576021
 001CD4 92C1 6001      00001        3038 GCON72   MVI   DX1(OPD3),XXC1 HEX   DBL WORD BNDRY                      22584021
 001CD8 47F0 B5D0      01C60        3039        BC    UNCOND,GCON6          GEN ATXT FOR CONSTANT                22592021
 001CDC 9180 D1D8      082A0        3040 GCON8  TM    GBIT1,HFWORD                                               22600021
 001CE0 4780 B658      01CE8        3041        BC    ZERO,GCON88           NOT A HALFWD INSTRUCTION             22608021
 001CE4 9740 D1DD      082A5        3042          XI    OPCOD,XX40                                               22616021
 001CE8 9150 D1DD      082A5        3043 GCON88   TM    OPCOD,XX50           RX TYPE INSTRUCTION...              22624021
1                           A-TEXT GENERATOR                                                                    PAGE   77
-  LOC  OBJECT CODE    ADDR1 ADDR2  STMT   SOURCE STATEMENT                                       ASM 0201 11.03 02/14/15
0001CEC 47E0 B668      01CF8        3044        BC    NOTONE,GCON89          NO                                  22632021
 001CF0 91A0 D1DD      082A5        3045          TM    OPCOD,XXA0                                               22640021
 001CF4 4780 B670      01D00        3046        BC    ZERO,GCON8A            YES, REQUIRES WORD BOUNDARY         22648021
 001CF8 91B8 D1D8      082A0        3047 GCON89   TM    GBIT1,XXB8           BINARY OR FLOATING POINT            22656021
 001CFC 4780 B618      01CA8        3048        BC    ZERO,GCON45           GEN ATXT WITHOUT BNDRY ALLIGN        22664021
 001D00 9281 6001      00001        3049 GCON8A   MVI   DX1(OPD3),XX81       HEX FULL WORD BOUNDARY              22672021
 001D04 47F0 B5D0      01C60        3050        BC    UNCOND,GCON6          GEN ATXT FOR CONSTANT                22680021
 001D08 9270 6000      00000        3051 GBDISP   MVI   DX0(OPD3),XX70 SET UP                                    22688021
 001D0C D201 6001 D14E 00001 08216  3052          MVC   DX1(LX2,OPD3),BDISP1 BDISP ELEMENT                       22696021
 001D12 47F0 B690      01D20        3053        BC    UNCOND,GGN1                FOR A TEXT OUTPUT               22704021
                                    3054 * GN'S, PN'S, VN'S                                                      22712021
 001D16 9250 6000      00000        3055 GGN      MVI   DX0(OPD3),XX50 SET UP                                    22720021
 001D1A D201 6001 D172 00001 0823A  3056          MVC   DX1(LX2,OPD3),XGN1   GN ELEMENT                          22728021
 001D20 9180 D1D8      082A0        3057 GGN1   TM    GBIT1,HFWORD                                               22736021
 001D24 4780 B6AC      01D3C        3058        BC    ZERO,GADD3            GEN ATXT FOR DATA NAME               22744021
 001D28 9101 D1D9      082A1        3059          TM    GBIT2,XX01                                               22752021
 001D2C 4780 B6A8      01D38        3060        BC    ZERO,GGN2       BRANCH IF NOT HALFWORD                     22760021
 001D30 9750 D1DD      082A5        3061          XI    OPCOD,XX50     PUT 4 IN HI  ORDER                        22768021
 001D34 47F0 B6AC      01D3C        3062        BC    UNCOND,GADD3          GEN ATXT FOR DNM                     22776021
 001D38 9740 D1DD      082A5        3063 GGN2     XI    OPCOD,XX40     PUT 5 IN HI ORDER                         22784021
 001D3C 954C 6000      00000        3064 GADD3    CLI   DX0(OPD3),PAPNREF      CHECK FOR PN AND VN REFS WHICH    22792021
 001D40 4780 B5B0      01C40        3065        BE    GADD4                   HAVE EXTRA BYTE                    22800021
 001D44 9554 6000      00000        3066          CLI   DX0(OPD3),PAVNREF                                        22808021
 001D48 4780 B5B0      01C40        3067        BE    GADD4                 INCREM PTR AND GEN ATXT FOR DNM      22816021
 001D4C 4166 0003      00003        3068          LA    OPD3,DX3(OPD3)         INCREMENT POINTER                 22824021
 001D50 47F0 B2D4      01964        3069          B     GADNUM              GENERATE ATXT FOR DNM                22832021
 001D54 924C 6000      00000        3070 GPN      MVI   DX0(OPD3),PAPNREF        SET UP PN ELEMENT               22840021
 001D58 D202 6001 D175 00001 0823D  3071          MVC   DX1(LX3,OPD3),XPN1+NX1                                   22848021
 001D5E 47F0 B690      01D20        3072        BC    UNCOND,GGN1           COMPLT ATXT AND WRITE OUT            22856021
 001D62 9254 6000      00000        3073 GVN      MVI   DX0(OPD3),PAVNREF      SET UP VN                         22864021
 001D66 D202 6001 D181 00001 08249  3074          MVC   DX1(LX3,OPD3),XVN1+NX1         ELEMENT                   22872021
 001D6C 47F0 B690      01D20        3075        BC    UNCOND,GGN1           COMPLT ATXT AND WRITE OUT            22880021
 001D70 9260 6000      00000        3076 GDEBUG   MVI   DX0(OPD3),XX60 GTREF1                                    22888021
 001D74 D201 6001 D184 00001 0824C  3077          MVC   DX1(LX2,OPD3),GDEBG1                                     22896021
 001D7A 47F0 B690      01D20        3078        BC    UNCOND,GGN1           COMPLT ATXT AND WRITE OUT            22904021
 001D7E D201 D184 4001 0824C 00001  3079 GGTRF1   MVC   GDEBG1(LX2),DX1(OPD1) GTREF1                             22912021
 001D84 47F0 B6E0      01D70        3080        BC    UNCOND,GDEBUG         GEN GTREF FOR DEBUG                  22920021
 001D88 D202 D178 4001 08240 00001  3081 GGTRF2   MVC   XCNTR1(LX3),DX1(OPD1) GTREF2                             22928021
 001D8E 47F0 B498      01B28        3082        BC    UNCOND,GCNTR        ELEMENT                                22936021
 001D92 9180 D1D8      082A0        3083 GTALLY TM    GBIT1,HFWORD                                               22944021
 001D96 4780 B70E      01D9E        3084        BC    ZERO,GNOLN3     BRANCH IF HALFWORD NOT WANTED              22952021
 001D9A 9740 D1DD      082A5        3085          XI    OPCOD,XX40     PUT 5 IN HIGH ORDER (1 ALREADY THERE)     22960021
 001D9E 9260 6000      00000        3086 GNOLN3   MVI   DX0(OPD3),XX60  SET UP TALLY                             22968021
 001DA2 9206 6001      00001        3087          MVI   DX1(OPD3),XX06                                           22976021
 001DA6 9200 6002      00002        3088          MVI   DX2(OPD3),XX00                                           22984021
 001DAA 47F0 B6AC      01D3C        3089        BC    UNCOND,GADD3          GEN ATXT FOR DNM                     22992021
 001DAE 9210 6001      00001        3090 GALLIT   MVI   DX1(OPD3),XX10 CONST IS BCD   NO BOUNDARY REQUIREMENT    23000021
 001DB2 1B99                        3091        SR      GXRA,GXRA                                                23008021
 001DB4 4394 0001      00001        3092          IC    GXRA,DX1(OPD1)                                           23016021
 001DB8 0690                        3093        BCTR  GXRA,RW0          SUBTRACT ONE FROM GXRA                   23024021
 001DBA 4490 BE52      024E2        3094        EX    GXRA,CHNGL1     INSERT LENGTH  OF LITERAL                  23032021
 001DBE 4199 0001      00001        3095          LA    GXRA,DX1(GXRA)                                           23040021
 001DC2 47F0 B82C      01EBC        3096        BC    UNCOND,GFNCON         GEN LITERAL ATXT                     23048021
 001DC6 9110 D1D8      082A0        3097 GFLTLT TM    GBIT1,DBLFPT                                               23056021
 001DCA 4780 B74A      01DDA        3098        BC    ZERO,GSGLFP           GEN SINGLE FLOATING PT ATXT LIT      23064021
1                           A-TEXT GENERATOR                                                                    PAGE   78
-  LOC  OBJECT CODE    ADDR1 ADDR2  STMT   SOURCE STATEMENT                                       ASM 0201 11.03 02/14/15
0001DCE 92E0 6001      00001        3099          MVI   DX1(OPD3),XXE0 DOUBLE PRECISION FLOATING POINT CONST     23072021
 001DD2 4190 0007      00007        3100          LA    GXRA,DX7                                                 23080021
 001DD6 47F0 B752      01DE2        3101        BC    UNCOND,GFNFPT         MOVE LIT TO OUTPUT AND GEN ATXT      23088021
 001DDA 92A0 6001      00001        3102 GSGLFP   MVI   DX1(OPD3),XXA0 SINGLE PRECISION FLOATING POINT CONST     23096021
 001DDE 4190 0003      00003        3103          LA    GXRA,DX3                                                 23104021
 001DE2 4490 BE52      024E2        3104 GFNFPT EX    GXRA,CHNGL1     MOVE FLTNG PT LIT TO  OUTPUT AREA          23112021
 001DE6 4199 0001      00001        3105          LA    GXRA,DX1(GXRA)                                           23120021
 001DEA 47F0 B82C      01EBC        3106        BC    UNCOND,GFNCON         GEN LITERAL DEF ATXT                 23128021
                                    3107 * FIGCONS                                                               23136021
 001DEE 95F0 4001      00001        3108 GFGCON   CLI   DX1(OPD1),XXF0                                           23144021
 001DF2 4770 B77E      01E0E        3109        BC    NOTEQ,GFGCLN    BRANCH IF FIGCON IS NOT ZERO               23152021
 001DF6 9120 D1D8      082A0        3110        TM    GBIT1,DECBIN                                               23160021
 001DFA 4710 B812      01EA2        3111        BC    ONES,GFGCNB     BRANCH IF FIGCON IS IN BINARY MODE         23168021
 001DFE 9104 D1D8      082A0        3112        TM    GBIT1,DECOP                                                23176021
 001E02 4710 B802      01E92        3113        BC    ONES,GFGCND     BRANCH IF FIGCON IS IN DECIMAL MODE        23184021
 001E06 9118 D1D8      082A0        3114          TM    GBIT1,XX18                                               23192021
 001E0A 4710 B7DA      01E6A        3115        BC    ONES,GFCNFP     BRANCH IF FIGCON IS IN FLOATING POINT      23200021
 001E0E 9210 6001      00001        3116 GFGCLN   MVI   DX1(OPD3),XX10 CONST IS BCD NO BOUNDARY REQUIREMENT      23208021
 001E12 D200 6003 4001 00003 00001  3117          MVC   DX3(LX1,OPD3),DX1(OPD1) BCD FIG CON                      23216021
 001E18 1B99                        3118        SR      GXRA,GXRA                                                23224021
 001E1A 9140 D1D8      082A0        3119        TM    GBIT1,TWOADR    FIGCON EXTERNAL DEC                        23232021
 001E1E 4780 B7C2      01E52        3120        BC    ZERO,GEXDC1     BRANCH IF THERE ARE NOT TWO ADDRESSES      23240021
 001E22 9101 D1D8      082A0        3121        TM    GBIT1,GAD1DN                                               23248021
 001E26 4780 B7CA      01E5A        3122        BC    ZERO,GEXDC2     BRANCH IF 1ST ADR IS NOT COMPLETED         23256021
 001E2A 9104 D1D8      082A0        3123        TM    GBIT1,DECOP                                                23264021
 001E2E 4780 B7CA      01E5A        3124        BC    ZERO,GEXDC2     BRANCH IF THERE ARE NOT 2 LENGTH FIELD     23272021
 001E32 4890 D190      08258        3125        LH    GXRA,XL2                                                   23280021
 001E36 4990 C3AE      0793E        3126        CH    GXRA,XC001                                                 23288021
 001E3A 4720 B7B2      01E42        3127 GEXDC4 BC    HI,GEXDC3             IF MORE THAN LEN01,ZERO FLD          23296021
 001E3E 47F0 B82C      01EBC        3128        BC    UNCOND,GFNCON         GEN LITERAL DEF ATXT                 23304021
 001E42 4B90 C3B2      07942        3129 GEXDC3 SH    GXRA,GTWO                                                  23312021
 001E46 4490 BE58      024E8        3130        EX    GXRA,CHNGL4     MOVE OTHER BCD ZEROES                      23320021
 001E4A 4199 0002      00002        3131          LA    GXRA,DX2(GXRA)                                           23328021
 001E4E 47F0 B82C      01EBC        3132        BC    UNCOND,GFNCON         GEN LITERAL DEF ATXT                 23336021
 001E52 9180 D1D9      082A1        3133 GEXDC1   TM    GBIT2,XX80                                               23344021
 001E56 4710 B80A      01E9A        3134        BC    ONES,GEXDC7     BRANCH IF RELADR   LGN EQUALS 1            23352021
 001E5A 4390 D148      08210        3135 GEXDC2 IC    GXRA,XL1        XL1 ALREADY DECREMENTED                    23360021
 001E5E 4199 0001      00001        3136          LA    GXRA,DX1(GXRA)                                           23368021
 001E62 9500 D148      08210        3137          CLI   XL1,XX00                                                 23376021
 001E66 47F0 B7AA      01E3A        3138        BC    UNCOND,GEXDC4         PROP ZEROS IF NEC AND GEN ATXT       23384021
 001E6A 9110 D1D8      082A0        3139 GFCNFP TM    GBIT1,DBLFPT                                               23392021
 001E6E 4780 B7EE      01E7E        3140        BC    ZERO,GFLPT1     BRANCH IF NOT DBL PRECISION                23400021
 001E72 4190 0007      00007        3141          LA    GXRA,DX7                                                 23408021
 001E76 92E0 6001      00001        3142          MVI   DX1(OPD3),XXE0 FLOATING PT  DBL WD BOUNDARY              23416021
 001E7A 47F0 B7F6      01E86        3143        BC    UNCOND,GFLPT2         GEN DBLWD FLOATING PT LITDEF         23424021
 001E7E 4190 0003      00003        3144 GFLPT1   LA    GXRA,DX3                                                 23432021
 001E82 92A0 6001      00001        3145          MVI   DX1(OPD3),XXA0 FLOATING PT  FULL WD BNDRY                23440021
 001E86 4490 BE64      024F4        3146 GFLPT2 EX    GXRA,CHNGL5     MOVE FLOATING PT ZERO                      23448021
 001E8A 4199 0001      00001        3147          LA    GXRA,DX1(GXRA)                                           23456021
 001E8E 47F0 B82C      01EBC        3148        BC    UNCOND,GFNCON         GEN LITERAL DEF ATXT                 23464021
 001E92 920F 6003      00003        3149 GFGCND   MVI   DX3(OPD3),XX0F ID ZERO                                   23472021
 001E96 9204 6001      00001        3150          MVI   DX1(OPD3),XX04 ID CONST   NO BOUNDARY REQUIREMENT        23480021
 001E9A 4190 0001      00001        3151 GEXDC7   LA    GXRA,DX1                                                 23488021
 001E9E 47F0 B82C      01EBC        3152        BC    UNCOND,GFNCON         GEN LITERAL DEF ATXT                 23496021
 001EA2 9180 D1D8      082A0        3153 GFGCNB TM    GBIT1,HFWORD                                               23504021
1                           A-TEXT GENERATOR                                                                    PAGE   79
-  LOC  OBJECT CODE    ADDR1 ADDR2  STMT   SOURCE STATEMENT                                       ASM 0201 11.03 02/14/15
0001EA6 4780 B81E      01EAE        3154        BC    ZERO,GBI1       BRANCH IF HFWORD NOT WANTED                23512021
 001EAA 9740 D1DD      082A5        3155          XI    OPCOD,XX40     PUT 5 IN HI ORDER (1 ALREADY THERE)       23520021
 001EAE D203 6003 C370 00003 07900  3156 GBI1     MVC   DX3(LX4,OPD3),GZERO FULL WD BINARY ZERO                  23528021
 001EB4 9288 6001      00001        3157          MVI   DX1(OPD3),XX88 BINARY FULL WORD BOUNDARY CONSTANT        23536021
 001EB8 4190 0004      00004        3158          LA    GXRA,DX4                                                 23544021
 001EBC 9204 6000      00000        3159 GFNCON   MVI   DX0(OPD3),XX04 LTL ELEMENT                               23552021
 001EC0 9101 D67F      08747        3160        TM    MADCSW,MSWON          LIT POINTED TO BY AN ADCON...        23560021
 001EC4 4780 B840      01ED0        3161        BC    ZERO,GFNCO1            NO                                  23568021
 001EC8 9210 6000      00000        3162          MVI   DX0(OPD3),XX10        YES,CHANGE TO 10 (DSPLTL ELEMEN    23576021
 001ECC 94FE D67F      08747        3163        NI    MADCSW,MSWOFF             RESET ADCON LIT SW               23584021
                             01ED0  3164 GFNCO1 EQU   *                                                          23592021
 001ED0 5060 D2E0      083A8        3165        ST    OPD3,GLTSAV                                                23600021
 001ED4 4290 D2E5      083AD        3166          STC   GXRA,GHFWD+NX1                                           23608021
 001ED8 D200 6002 D2E5 00002 083AD  3167          MVC   DX2(LX1,OPD3),GHFWD+NX1 LENGTH                           23616021
 001EDE 4166 0003      00003        3168          LA    OPD3,DX3(OPD3)                                           23624021
 001EE2 4A60 D2E4      083AC        3169        AH    OPD3,GHFWD                                                 23632021
 001EE6 5B60 D2E0      083A8        3170        S     OPD3,GLTSAV                                                23640021
 001EEA 5820 D2E0      083A8        3171        L     RW2,GLTSAV                                                 23648021
 001EEE 1836                        3172        LR    RW3,OPD3                                                   23656021
 001EF0 45E0 720C      0020C        3173        BAL   RETRG,PUTLTL          UP LIT CNTR AND PUT ATXT OPTIM       23664021
 001EF4 5860 D2E0      083A8        3174        L     OPD3,GLTSAV                                                23672021
 001EF8 9180 D1D9      082A1        3175          TM    GBIT2,XX80                                               23680021
 001EFC 4710 B52C      01BBC        3176        BO    GRELIT               LITERAL                               23688021
 001F00 9268 6000      00000        3177          MVI   DX0(OPD3),XX68 LTL ELEMENT                               23696021
 001F04 D201 6001 A164 00001 00164  3178          MVC   DX1(LX2,OPD3),LTLCTR SET LIT ID NUMBER                   23704021
 001F0A 4166 0003      00003        3179          LA    OPD3,DX3(OPD3)                                           23712021
 001F0E 47F0 B2D4      01964        3180        BC    UNCOND,GADNUM         GEN ATXT ADD FOR DNM                 23720021
                                    3181 *                                                                       23728021
 001F12 1B99                        3182 GNUMLT SR      GXRA,GXRA                                                23736021
 001F14 4394 0001      00001        3183          IC    GXRA,DX1(OPD1)                                           23744021
 001F18 4B90 C860      07DF0        3184        SH    GXRA,GTHREE                                                23752021
 001F1C 9120 D1D8      082A0        3185        TM    GBIT1,DECBIN                                               23760021
 001F20 4710 B8A4      01F34        3186        BC    ONES,GBILIT           IF BINARY INSTRUCTION, BRANCH        23768021
 001F24 9204 6001      00001        3187          MVI   DX1(OPD3),XX04 INT DEC   NO BOUNDARY REQUIREMENT         23776021
 001F28 4490 BE5E      024EE        3188        EX    GXRA,CHNGL2     MOVE ACTUAL LITERAL                        23784021
 001F2C 4199 0001      00001        3189          LA    GXRA,DX1(GXRA)                                           23792021
 001F30 47F0 B82C      01EBC        3190        BC    UNCOND,GFNCON         GEN LITERAL DEF ATXT                 23800021
 001F34 9507 4001      00001        3191 GBILIT   CLI   DX1(OPD1),XX07                                           23808021
 001F38 47D0 B8B4      01F44        3192        BC    NOTHI,GBILT7          IF LITERAL LESS THAN 7 BYTS,BR       23816021
 001F3C 41E0 B962      01FF2        3193        LA    RETRG,GBILT8                                               23824021
 001F40 47F0 B92C      01FBC        3194        BC    UNCOND,GBILT2         IF LITERAL MORE THAN 6 BYTS,BR       23832021
 001F44 4490 BE70      02500        3195 GBILT7 EX    GXRA,GZAP                 ZAP                              23840021
 001F48 4F10 D328      083F0        3196        CVB   GRX1,GTEMP      FROM ID TO BIN                             23848021
 001F4C 4490 BE76      02506        3197        EX    GXRA,GBICHG               COMPARE                          23856021
 001F50 4740 B8F2      01F82        3198        BL    GBIFUL                IF GT MAX BIN HW VALUE GEN FWD       23864021
 001F54 4780 B8D0      01F60        3199        BC    EQ,GBIHAF             IF EQ MAX HWD VAL GEN HALFWD         23872021
 001F58 4490 BE7C      0250C        3200        EX    GXRA,GBICG2               COMPARE                          23880021
 001F5C 4720 B8F2      01F82        3201        BC    HI,GBIFUL             IF LT MIN BIN HWD VAL GEN FLWD       23888021
 001F60 9180 D1D8      082A0        3202 GBIHAF TM    GBIT1,HFWORD                                               23896021
 001F64 4780 B8DC      01F6C        3203        BC    ZERO,GBIHF2           IF NOT DBL FLPT,SKIP NXT             23904021
 001F68 9750 D1DD      082A5        3204          XI    OPCOD,XX50     PUT 4 IN HI ORDER (1 ALREADY THERE)       23912021
 001F6C 9248 6001      00001        3205 GBIHF2   MVI   DX1(OPD3),XX48 BINARY HALFWORD CONSTANT                  23920021
 001F70 4010 D1D4      0829C        3206        STH   GRX1,GFLWD                                                 23928021
 001F74 D201 6003 D1D4 00003 0829C  3207          MVC   DX3(LX2,OPD3),GFLWD                                      23936021
 001F7A 4190 0002      00002        3208          LA    GXRA,DX2                                                 23944021
1                           A-TEXT GENERATOR                                                                    PAGE   80
-  LOC  OBJECT CODE    ADDR1 ADDR2  STMT   SOURCE STATEMENT                                       ASM 0201 11.03 02/14/15
0001F7E 47F0 B82C      01EBC        3209        BC    UNCOND,GFNCON         GEN LITERAL DEF ATXT                 23952021
 001F82 9180 D1D8      082A0        3210 GBIFUL TM    GBIT1,HFWORD                                               23960021
 001F86 4780 B8FE      01F8E        3211        BC    ZERO,GBIFL2           IF NOT DBL FLPT SKIP NXT             23968021
 001F8A 9740 D1DD      082A5        3212          XI    OPCOD,XX40     PUT FIVE IN HI ORDER (1 ALREADY THERE)    23976021
 001F8E 9288 6001      00001        3213 GBIFL2   MVI   DX1(OPD3),XX88 BINARY FULLWORD CONSTANT                  23984021
 001F92 5010 D1D4      0829C        3214        ST    GRX1,GFLWD                                                 23992021
 001F96 D203 6003 D1D4 00003 0829C  3215          MVC   DX3(LX4,OPD3),GFLWD                                      24000021
 001F9C 4190 0004      00004        3216          LA    GXRA,DX4                                                 24008021
 001FA0 47F0 B82C      01EBC        3217        BC    UNCOND,GFNCON         GEN LITERAL DEF ATXT                 24016021
 001FA4 902F D0E0      081A8        3218 GJOHN  STM   GRY,GR15,GSVRG                                             24024021
 001FA8 4190 0009      00009        3219          LA    GXRA,DX9                                                 24032021
 001FAC 1841                        3220        LR    OPD1,GRX1                                                  24040021
 001FAE 5B40 C3B8      07948        3221        S     OPD1,GFOUR                                                 24048021
 001FB2 45E0 B92C      01FBC        3222        BAL   RETRG,GBILT2          CONVERT DNM TO BINARY                24056021
 001FB6 982F D0E0      081A8        3223        LM    GRY,GR15,GSVRG                                             24064021
 001FBA 07FE                        3224        BCR   UNCOND,RETRG          RETURN TO CALLER                     24072021
 001FBC 1A49                        3225 GBILT2 AR    OPD1,GXRA       CONVERT                                    24080021
 001FBE F874 D328 4000 083F0 00000  3226          ZAP   GTEMP(LX8),DX0(LX5,OPD1)                                 24088021
 001FC4 4F00 D328      083F0        3227        CVB   GRX,GTEMP           6 TO 10 BYTES                          24096021
 001FC8 8E00 0020      00020        3228          SRDA  GRX,DX32               ID TO                             24104021
 001FCC D100 D32F 4004 083F7 00004  3229          MVN   GTEMP+NX7(LX1),DX4(OPD1) SET SIGN IN CASE OF 9 TRAILING  24112021
 001FD2 1B49                        3230        SR    OPD1,GXRA                                                  24120021
 001FD4 4B90 C862      07DF2        3231        SH    GXRA,GFIVE                   BINARY                        24128021
 001FD8 4490 BE88      02518        3232        EX    GXRA,GMOVE                MVO                              24136021
 001FDC 4F30 D328      083F0        3233        CVB   GRY1,GTEMP                                                 24144021
 001FE0 5C20 C3E0      07970        3234        M     GRY,TENPW9                                                 24152021
 001FE4 1E13                        3235        ALR   GRX1,GRY1                                                  24160021
 001FE6 47C0 B95E      01FEE        3236          BC    R12,GBILT3     BRANCH IF NO CARRY                        24168021
 001FEA 4A00 C3AE      0793E        3237        AH    GRX,XC001                                                  24176021
 001FEE 1A02                        3238 GBILT3 AR    GRX,GRY                                                    24184021
 001FF0 07FE                        3239        BCR   UNCOND,RETRG          RETURN TO CALLER                     24192021
 001FF2 4199 0005      00005        3240 GBILT8   LA    GXRA,DX5(GXRA)                                           24200021
 001FF6 4490 BE46      024D6        3241        EX    GXRA,GBILT4               COMPARE                          24208021
 001FFA 4740 B972      02002        3242        BC    LO,GBIL64             IF GR THAN MAX FULLWD,GEN DBLWD      24216021
 001FFE 4720 B99E      0202E        3243        BC    HI,GBILT5             IF LT MAX FULLWD, TEST FURTHER       24224021
 002002 92C8 6001      00001        3244 GBIL64   MVI   DX1(OPD3),XXC8 BINARY DOUBLE WORD CONSTANT               24232021
 002006 9180 D1D8      082A0        3245        TM    GBIT1,HFWORD                                               24240021
 00200A 4780 B982      02012        3246        BC    ZERO,GBI64            IF NOT DBL FLPT SKIP NXT             24248021
 00200E 9740 D1DD      082A5        3247          XI    OPCOD,XX40     PUT 5 IN HI ORDER  (1 ALREADY THERE)      24256021
 002012 4190 0008      00008        3248 GBI64    LA    GXRA,DX8                                                 24264021
 002016 5000 D1D4      0829C        3249        ST    GRX,GFLWD                                                  24272021
 00201A D203 6003 D1D4 00003 0829C  3250          MVC   DX3(LX4,OPD3),GFLWD                                      24280021
 002020 5010 D1D4      0829C        3251        ST    GRX1,GFLWD                                                 24288021
 002024 D203 6007 D1D4 00007 0829C  3252          MVC   DX7(LX4,OPD3),GFLWD                                      24296021
 00202A 47F0 B82C      01EBC        3253        BC    UNCOND,GFNCON         GEN LITERAL DEF ATXT                 24304021
 00202E 4490 BE4C      024DC        3254 GBILT5 EX    GXRA,GBILT6               COMPARE                          24312021
 002032 4720 B972      02002        3255        BC    HI,GBIL64             IF LT MIN FLWD VAL,GEN DBLWD         24320021
 002036 47F0 B8F2      01F82        3256        BC    UNCOND,GBIFUL         OTHERWISE, GEN FULLWORD              24328021
                                    3257 *                                                                       24336021
 00203A 4120 D1DD      082A5        3258 GNOPT7 LA    RW2,OPCOD                                                  24344021
 00203E 47F0 B9EA      0207A        3259        BC    UNCOND,GNOPT8         GENERATE ATXT FOR MACRO              24352021
 002042 4190 D1DF      082A7        3260 GNOTPT LA    GXRA,GADPAR                                                24360021
 002046 1B69                        3261        SR    OPD3,GXRA                                                  24368021
 002048 4166 0005      00005        3262          LA    OPD3,DX5(OPD3)                                           24376021
 00204C 4060 D1DA      082A2        3263        STH   OPD3,COUNT                                                 24384021
1                           A-TEXT GENERATOR                                                                    PAGE   81
-  LOC  OBJECT CODE    ADDR1 ADDR2  STMT   SOURCE STATEMENT                                       ASM 0201 11.03 02/14/15
0002050 5090 D140      08208        3264        ST    GXRA,OP3                                                   24392021
 002054 9140 D1D9      082A1        3265          TM    GBIT2,XX40                                               24400021
 002058 4710 B9CE      0205E        3266          BC    ONES,GNOPT4-NX4    BRANCH TO NEXT EX INST                24408021
 00205C 0660                        3267        BCTR  OPD3,RW0              SUBTRACT 1 FROM REG6.                24416021
 00205E 4460 BE6A      024FA        3268        EX    OPD3,CHNGL9               MOVE                             24424021
                             02062  3269 GNOPT4 EQU   *                                                          24432021
 002062 9013 D120      081E8        3270 GNOPT9 STM   RW1,RW3,GCOSAV                                             24440021
 002066 5810 C190      07720        3271        L     RW1,COSADR                                                 24448021
 00206A 9140 D1D9      082A1        3272          TM    GBIT2,XX40                                               24456021
 00206E 4710 B9AA      0203A        3273        BC    ONES,GNOPT7           FOR MACRO BRANCH                     24464021
                                    3274 *                                                                       24472021
 002072 47F0 85E4      01414        3275          B     AXT017              CHECK TYPE OF INSTRUC AND ALLIGN     24480021
                             02076  3276 AXT001   EQU   *                                                        24488021
 002076 4120 D1DC      082A4        3277          LA    RW2,OPCOD-NX1                                            24496021
 00207A 4830 D1DA      082A2        3278 GNOPT8 LH    RW3,COUNT                                                  24504021
 00207E 9140 D1D9      082A1        3279          TM    GBIT2,XX40                                               24512021
 002082 4710 BA86      02116        3280        BC      ONES,GNOPT5         IF MACRO SUBTRACT 3 FROM COUNT       24520021
 002086 4B30 C3B2      07942        3281        SH    RW3,GTWO                                                   24528021
 00208A 45E0 7224      00224        3282 GNOPT6 BAL   RETRG,PUTA            WRITE OUT ATEXT                      24536021
 00208E 9104 D1D9      082A1        3283          TM    GBIT2,XX04                                               24544021
 002092 4780 BA62      020F2        3284          BZ    AXT102              FINISH P2TXT,RESTOR REGS,RETURN      24552021
 002096 9704 D1D9      082A1        3285          XI    GBIT2,XX04                                               24560021
 00209A 5860 D140      08208        3286          L     OPD3,OP3                                                 24568021
 00209E 92D2 D1DD      082A5        3287          MVI   OPCOD,XXD2                MOVE  TEMP TO  TS2.            24576021
 0020A2 9203 D1DE      082A6        3288          MVI   GABS,XX03                 SET LENGTH.                    24584021
 0020A6 9101 D1D9      082A1        3289          TM    GBIT2,XX01                                               24592021
 0020AA 4780 BA52      020E2        3290          BZ    AXT103              IF NOT HFWD INSTRUC,BR FOR FLWD      24600021
 0020AE 9201 D1DE      082A6        3291          MVI   GABS,XX01                                                24608021
 0020B2 D203 6000 D0C6 00000 0818E  3292 AXT104   MVC   DX0(LX4,OPD3),AXTC01       FIRST OPERAND OF MOVE.        24616021
 0020B8 4166 0004      00004        3293          LA    OPD3,DX4(OPD3)                                           24624021
 0020BC D502 D17B C370 08243 07900  3294          CLC   PLUS1(LX3),GZERO          TAKE CARE OF PLUS ELEMENT I    24632021
 0020C2 4770 BA44      020D4        3295          BNE   AXT105                   ANY.                            24640021
 0020C6 9280 6000      00000        3296          MVI   DX0(OPD3),XX80                                           24648021
 0020CA D202 6001 D17B 00001 08243  3297          MVC   DX1(LX3,OPD3),PLUS1                                      24656021
 0020D0 4166 0004      00004        3298          LA    OPD3,DX4(OPD3)                                           24664021
                                    3299 *                                                                       24672021
 0020D4 D203 6000 D0CA 00000 08192  3300 AXT105   MVC   DX0(LX4,OPD3),AXTC02       2ND OPERAND OF MOVE           24680021
 0020DA 4166 0004      00004        3301          LA    OPD3,DX4(OPD3)                                           24688021
 0020DE 47F0 B9B2      02042        3302          B     GNOTPT              FILL IN MORE ATXT                    24696021
                                    3303 *                                                                       24704021
 0020E2 9590 D343      0840B        3304 AXT103   CLI   OTPT+NX3,XX90             STM                            24712021
 0020E6 4770 BA22      020B2        3305          BNE   AXT104                   NO                              24720021
 0020EA 9207 D1DE      082A6        3306          MVI   GABS,XX07                 YES,SET LENGTH TO8.            24728021
 0020EE 47F0 BA22      020B2        3307          B     AXT104              FILL IN OPERANDS FOR ATXT            24736021
                             020F2  3308 AXT102   EQU   *                                                        24744021
 0020F2 D707 D138 D138 08200 08200  3309          XC    OP1(LX8),OP1                                             24752021
 0020F8 9200 D148      08210        3310          MVI   XL1,XX00                                                 24760021
 0020FC D292 D149 D148 08211 08210  3311          MVC   XL1+NX1(GCNLGN),XL1                                      24768021
 002102 9200 D1DE      082A6        3312          MVI   GABS,XX00                                                24776021
 002106 D201 D1DA C862 082A2 07DF2  3313          MVC   COUNT(LX2),GFIVE                                         24784021
 00210C 9248 D1DC      082A4        3314          MVI   OPCOD-NX1,XX48                                           24792021
 002110 980F D0E0      081A8        3315        LM      GR1,GR15,GSVRG                                           24800021
 002114 07FE                        3316        BCR     UNCOND,RETRG        FIN P2TXT ELM,RESTR REGS,RETURN      24808021
 002116 4B30 C860      07DF0        3317 GNOPT5 SH    RW3,GTHREE                                                 24816021
 00211A 47F0 B9FA      0208A        3318        BC    UNCOND,GNOPT6         WRITE MACRO ATXT                     24824021
1                           A-TEXT GENERATOR                                                                    PAGE   82
-  LOC  OBJECT CODE    ADDR1 ADDR2  STMT   SOURCE STATEMENT                                       ASM 0201 11.03 02/14/15
000211E D204 D340 D1DA 08408 082A2  3319 GNOPT2   MVC   OTPT(LX5),COUNT                                          24832021
 002124 47F0 B9D2      02062        3320        BC    UNCOND,GNOPT4         GEN INSTRUC AND WRITE ATXT           24840021
                             00224  3321 GOPT3C EQU   PUTA                                                       24848021
 002128 07FE                        3322        BCR   UNCOND,RETRG          RETURN TO CALLER                     24856021
                                    3323 * INSTRUCTION ENTRY POINTS                                              24864021
 00212A 921A D1DD      082A5        3324 ADD      MVI   OPCOD,XX1A     AR OP CODE=1A  CHANGED IF A OR AH OR A    24872021
 00212E 47F0 B004      01694        3325        BC    UNCOND,GHIBYT         GEN ATXT FOR INSTRUC                 24880021
 002132 921E D1DD      082A5        3326 ADDLBI   MVI   OPCOD,XX1E     ALR OP CODE=1E  CHANGED IF AL             24888021
 002136 47F0 B004      01694        3327        BC    UNCOND,GHIBYT         GEN ATXT FOR INSTRUC                 24896021
 00213A 921F D1DD      082A5        3328 SUBLBI   MVI   OPCOD,XX1F     SLR OP CODE=1F  CHANGED IF SL             24904021
 00213E 47F0 B004      01694        3329        BC    UNCOND,GHIBYT         GEN ATXT FOR INSTRUC                 24912021
 002142 9219 D1DD      082A5        3330 COMP     MVI   OPCOD,XX19     CR OP CODE=19   CHANGED IF C OR CH OR     24920021
 002146 47F0 B004      01694        3331        BC    UNCOND,GHIBYT         GEN ATXT FOR INSTRUC                 24928021
 00214A 921C D1DD      082A5        3332 MULT     MVI   OPCOD,XX1C     MR OP CODE=1C  CHANGED IF M OR MH OR M    24936021
 00214E 47F0 B004      01694        3333        BC    UNCOND,GHIBYT         GEN ATXT FOR INSTRUC                 24944021
 002152 921D D1DD      082A5        3334 DIV      MVI   OPCOD,XX1D     DR OP CODE=1D  CHANGED IF D OR DP         24952021
 002156 47F0 B004      01694        3335        BC    UNCOND,GHIBYT         GEN ATXT FOR INSTRUC                 24960021
 00215A 9212 D1DD      082A5        3336 LTRBI    MVI   OPCOD,XX12     LTR OP CODE=12  CHANGED IF PACK           24968021
 00215E 47F0 B004      01694        3337        BC    UNCOND,GHIBYT         GEN ATXT FOR INSTRUC                 24976021
 002162 9211 D1DD      082A5        3338 LNRBI    MVI   OPCOD,XX11     LNR OP CODE=11  CHANGED IF MVO            24984021
 002166 47F0 B004      01694        3339        BC    UNCOND,GHIBYT         GEN ATXT FOR INSTRUC                 24992021
 00216A 9213 D1DD      082A5        3340 LCRBI    MVI   OPCOD,XX13     LCR OP CODE=13  CHANGED IF UNPACK         25000021
 00216E 47F0 B004      01694        3341        BC    UNCOND,GHIBYT         GEN ATXT FOR INSTRUC                 25008021
 002172 924F D1DD      082A5        3342 CVBBI    MVI   OPCOD,XX4F     CVB OP CODE=4F                            25016021
 002176 47F0 B068      016F8        3343        BC    UNCOND,SETRX0         GEN ATXT FOR RX INSTRUC              25024021
 00217A 924E D1DD      082A5        3344 CVDBI    MVI   OPCOD,XX4E     CVD OP CODE=4E                            25032021
 00217E 9220 D1D8      082A0        3345          MVI   GBIT1,XX20     WANT TO CONVERT NUMLIT TO BINARY IF AN    25040021
 002182 900F D0E0      081A8        3346        STM   GR1,GR15,GSVRG                                             25048021
 002186 9846 D138      08200        3347        LM    OPD1,OPD3,OP1   LD REGS WITH OPND PTRS    3 WITH GADPA     25056021
 00218A 47F0 B07A      0170A        3348        BC    UNCOND,SETRX          GEN ATXT FOR RX INSTRUC              25064021
 00218E 9216 D1DD      082A5        3349 ORLG     MVI   OPCOD,XX16     OR OP=16  CHANGE IF O,OR OC               25072021
 002192 47F0 B15C      017EC        3350        BC    UNCOND,GHIBT1         GEN ATXT FOR LOGICL INSTRUC          25080021
 002196 9217 D1DD      082A5        3351 EXORLG   MVI   OPCOD,XX17     XR OP=17  CHANGE IF X,OR XC               25088021
 00219A 47F0 B15C      017EC        3352        BC    UNCOND,GHIBT1         GEN ATXT FOR LOGICL INSTRUC          25096021
 00219E 9214 D1DD      082A5        3353 ANDLG    MVI   OPCOD,XX14     NR OP=14  CHANGE IF N,OR NC               25104021
 0021A2 47F0 B15C      017EC        3354        BC    UNCOND,GHIBT1         GEN ATXT FOR LOGICL INSTRUC          25112021
 0021A6 9211 D1DD      082A5        3355 MVN      MVI   OPCOD,XX11     MVN LO ORDER OP FIELD=1                   25120021
 0021AA 47F0 B190      01820        3356        BC    UNCOND,GFXLSS         GEN ATXT FOR LOGICL SS INSTRUC       25128021
 0021AE 9292 D1DD      082A5        3357 MVI      MVI   OPCOD,XX92     MVI OP CODE =92                           25136021
 0021B2 47F0 BB4A      021DA        3358        BC    UNCOND,GHIBT4         GEN ATXT FOR SI INSTRUC              25144021
 0021B6 9295 D1DD      082A5        3359 CLI      MVI   OPCOD,XX95     CLI OP CODE=95                            25152021
 0021BA 47F0 BB4A      021DA        3360        BC    UNCOND,GHIBT4         GEN ATXT FOR SI INSTRUC              25160021
 0021BE 9296 D1DD      082A5        3361 OI       MVI   OPCOD,XX96     OI OP CODE=96                             25168021
 0021C2 47F0 BB4A      021DA        3362        BC    UNCOND,GHIBT4         GEN ATXT FOR SI INSTRUC              25176021
 0021C6 9297 D1DD      082A5        3363 XI       MVI   OPCOD,XX97     XI OP CODE=97                             25184021
 0021CA 47F0 BB4A      021DA        3364        BC    UNCOND,GHIBT4         GEN ATXT FOR SI INSTRUC              25192021
 0021CE 9294 D1DD      082A5        3365 NI       MVI   OPCOD,XX94     NI OP CODE=94                             25200021
 0021D2 47F0 BB4A      021DA        3366        BC    UNCOND,GHIBT4         GENERATE ATXT FOR SI INSTRUC         25208021
 0021D6 9291 D1DD      082A5        3367 TM       MVI   OPCOD,XX91     TM OP CODE=91                             25216021
 0021DA 900F D0E0      081A8        3368 GHIBT4 STM   GR1,GR15,GSVRG                                             25224021
 0021DE 9846 D138      08200        3369        LM    OPD1,OPD3,OP1   LD REGS WITH OPND PTRS   3 WITH GADPAR     25232021
 0021E2 D200 D1DE D189 082A6 08251  3370          MVC   GABS(LX1),IMM                                            25240021
 0021E8 9200 D1D8      082A0        3371          MVI   GBIT1,XX00                                               25248021
 0021EC 47F0 B080      01710        3372        BC    UNCOND,GCHKOP         GEN ATXT FOR RX OPERAND2             25256021
 0021F0 97E0 D1DD      082A5        3373 GDOSSD   XI    OPCOD,XXE0     PUT F IN HI ORDER (1 ALREADY THERE)       25264021
1                           A-TEXT GENERATOR                                                                    PAGE   83
-  LOC  OBJECT CODE    ADDR1 ADDR2  STMT   SOURCE STATEMENT                                       ASM 0201 11.03 02/14/15
00021F4 9244 D1D8      082A0        3374          MVI   GBIT1,XX44     SET BIT FOR 2 ADR  AND DEC OP             25272021
 0021F8 4890 D190      08258        3375        LH    GXRA,XL2        SUBTRACT                                   25280021
 0021FC 0690                        3376        BCTR  GXRA,RW0               ONE FROM LENGTH2                    25288021
 0021FE 4290 D1DE      082A6        3377        STC   GXRA,GABS              AND STORE IN HI 4 BITS OF GABS      25296021
 002202 4890 D148      08210        3378        LH    GXRA,XL1        SUBTRACT                                   25304021
 002206 0690                        3379        BCTR  GXRA,RW0               ONE FROM LENGTH1                    25312021
 002208 4290 D148      08210        3380        STC   GXRA,XL1               AND STORE IN                        25320021
 00220C F100 D1DE D148 082A6 08210  3381          MVO   GABS(LX1),XL1(LX1)            HI 4 BITS OF GABS          25328021
 002212 47F0 B080      01710        3382        BC    UNCOND,GCHKOP         GEN ATXT FOR SS OPERANDS             25336021
                                    3383 *                                                                       25344021
 002216 9213 D1DD      082A5        3384 MVZ      MVI   OPCOD,XX13     MVZ OP CODE=D3                            25352021
 00221A 47F0 B190      01820        3385        BC    UNCOND,GFXLSS         GEN ATXT FOR LOGICL SS INSTRUC       25360021
 00221E 921C D1DD      082A5        3386 TR       MVI   OPCOD,XX1C     TR OP CODE=DC                             25368021
 002222 47F0 B190      01820        3387        BC    UNCOND,GFXLSS         GEN ATXT FOR LOGICL SS INSTRUC       25376021
 002226 921D D1DD      082A5        3388 TRT      MVI   OPCOD,XX1D     TRT OP CODE=DD                            25384021
 00222A 47F0 B190      01820        3389        BC    UNCOND,GFXLSS         GEN ATXT FOR LOGICL SS INSTRUC       25392021
 00222E 921E D1DD      082A5        3390 EDIT     MVI   OPCOD,XX1E     ED OP CODE=DE                             25400021
 002232 47F0 B190      01820        3391        BC    UNCOND,GFXLSS         GEN ATXT FOR LOGICL SS INSTRUC       25408021
 002236 921F D1DD      082A5        3392 EDMARK   MVI   OPCOD,XX1F     EDMK OP CODE=DF                           25416021
 00223A 47F0 B190      01820        3393        BC    UNCOND,GFXLSS         GEN ATXT FOR LOGICL SS INSTRUC       25424021
 00223E 9601 D1D9      082A1        3394 LHALF    OI    GBIT2,XX01                                               25432021
 002242 47F0 B000      01690        3395        BC    UNCOND,LOAD           GEN ATXT FOR LH INSTRUC              25440021
 002246 9601 D1D9      082A1        3396 STHALF   OI    GBIT2,XX01                                               25448021
 00224A 47F0 B040      016D0        3397        BC    UNCOND,STORE          GEN ATXT FOR STH INSTRUC             25456021
 00224E 9601 D1D9      082A1        3398 SHALF    OI    GBIT2,XX01                                               25464021
 002252 47F0 B038      016C8        3399        BC    UNCOND,SUB            GEN ATXT FOR SH INSTRUC              25472021
 002256 9601 D1D9      082A1        3400 MHALF    OI    GBIT2,XX01                                               25480021
 00225A 47F0 BABA      0214A        3401        BC    UNCOND,MULT           GEN ATXT FOR MH INSTRUC              25488021
 00225E 9243 D1DD      082A5        3402 IC       MVI   OPCOD,XX43     IC OP CODE=43                             25496021
 002262 47F0 B068      016F8        3403        BC    UNCOND,SETRX0         GEN ATXT FOR RX INSTRUC              25504021
 002266 9242 D1DD      082A5        3404 STC      MVI   OPCOD,XX42     STC OP CODE=42                            25512021
 00226A 47F0 B068      016F8        3405        BC    UNCOND,SETRX0         GEN ATXT FOR RX INSTRUC              25520021
 00226E 9241 D1DD      082A5        3406 LA       MVI   OPCOD,XX41     LA OP CODE=41                             25528021
 002272 47F0 B068      016F8        3407        BC    UNCOND,SETRX0         GEN ATXT FOR RX INSTRUC              25536021
                                    3408 *SLA    MVI   OPCOD,X'8B'     SLA OPCODE=8B                             25544021
                                    3409 *       BC    UNCOND,SETRX0                                             25552021
                                    3410 *SRA    MVI   OPCOD,X'8A'     SRA OP CODE=8A                            25560021
                                    3411 *       BC    UNCOND,SETRX0                                             25568021
                                    3412 *SLDA   MVI   OPCOD,X'8F'     SLDA OP CODE=8F                           25576021
                                    3413 *       BC    UNCOND,SETRX0                                             25584021
 002276 928E D1DD      082A5        3414 SRDA     MVI   OPCOD,XX8E     SRDA OP CODE=8E                           25592021
 00227A 47F0 B068      016F8        3415        BC    UNCOND,SETRX0         GEN ATXT FOR RX INSTRUC              25600021
                                    3416 *SLL    MVI   OPCOD,X'89'     SLL OP CODE=89                            25608021
                                    3417 *       BC    UNCOND,SETRX0                                             25616021
                                    3418 *SRL    MVI   OPCOD,X'88'     SRL OP CODE=88                            25624021
                                    3419 *       BC    UNCOND,SETRX0                                             25632021
                                    3420 *SLDL   MVI   OPCOD,X'8D'     SLDL OP CODE=8D                           25640021
                                    3421 *       BC    UNCOND,SETRX0                                             25648021
                                    3422 *SRDL   MVI   OPCOD,X'8C'     SRDL OP CODE=8C                           25656021
                                    3423 *       BC    UNCOND,SETRX0                                             25664021
                                    3424 *EX     MVI   OPCOD,X'44'     EX OP CODE=44                             25672021
                                    3425 *       BC    UNCOND,SETRX0                                             25680021
                                    3426 *BXLE   STM   GR1,GR15,GSVRG                                            25688021
                                    3427 *       LM    OPD1,OPD3,OP1   LD REGS WITH OPND PTRS  3 WITH GADPAR     25696021
                                    3428 *       BAL   RETRG,GTSTNM                                              25704021
1                           A-TEXT GENERATOR                                                                    PAGE   84
-  LOC  OBJECT CODE    ADDR1 ADDR2  STMT   SOURCE STATEMENT                                       ASM 0201 11.03 02/14/15
0                                   3429 *       MVI   OPCOD,X'87'     BXLE OP CODE IS 98                        25712021
                                    3430 *       BC    UNCOND,SETRSB                                             25720021
                                    3431 *       MVI   GCGBR2+1,X'87'  BXLE OP CODE                              25728021
                                    3432 *       BC    UNCOND,GOTBR2                                             25736021
                                    3433 *BXH    STM   GR1,GR15,GSVRG                                            25744021
                                    3434 *       LM    OPD1,OPD3,OP1   LD REGS WITH OPND PTRS  3 WITH GADPAR     25752021
                                    3435 *       BAL   RETRG,GTSTNM                                              25760021
                                    3436 *       MVI   OPCOD,X'86'     BXH OP CODE IS 86                         25768021
                                    3437 *       BC    UNCOND,SETRSB                                             25776021
                                    3438 *       MVI   GCGBR2+1,X'86'  BXH OP CODE                               25784021
                                    3439 *GOTBR2 MVC   GCGBR2+2(1),XREG2                                         25792021
                                    3440 *       MVO   GCGBR2+2(1),XREG1(1)                                      25800021
                                    3441 *       MVI   GCNGBR+1,X'0D'                                            25808021
                                    3442 *       MVC   COUNT(8),GCNGBR                                           25816021
                                    3443 *       MVC   COUNT+8(5),GCGBR2                                         25824021
                                    3444 *       BC    UNCOND,GNOPT9                                             25832021
 00227E 9298 D1DD      082A5        3445 LM       MVI   OPCOD,XX98     LM OP CODE=98                             25840021
 002282 47F0 BBFA      0228A        3446        BC    UNCOND,SETRS          GEN ATXT FOR RS INSTRUC              25848021
 002286 9290 D1DD      082A5        3447 STM      MVI   OPCOD,XX90     STM OP CODE=90                            25856021
 00228A 900F D0E0      081A8        3448 SETRS  STM   GR1,GR15,GSVRG                                             25864021
 00228E 9846 D138      08200        3449        LM    OPD1,OPD3,OP1   LD REGS WITH OPND PTRS  3 WITH GADPAR      25872021
 002292 9702 D1D9      082A1        3450          XI    GBIT2,XX02                                               25880021
 002296 D200 D1DE D1D0 082A6 08298  3451          MVC   GABS(LX1),XREG2     LO 4 BITS OPND2 TO LO 4 BITS         25888021
 00229C 47F0 B076      01706        3452        BC    UNCOND,SETRX1         COMPLT ATXT FOR RS INSTRUC           25896021
 0022A0 900F D0E0      081A8        3453 BRANCH STM   GR1,GR15,GSVRG                                             25904021
 0022A4 9846 D138      08200        3454        LM    OPD1,OPD3,OP1   LD REGS WITH OPND PTRS  3 WITH GADPAR      25912021
 0022A8 45E0 BC2C      022BC        3455        BAL   RETRG,GTSTNM          FOR BR OF PN,VN MOD DIRECT ATXT      25920021
 0022AC 9207 D1DD      082A5        3456          MVI   OPCOD,XX07     BCR OP CODE IS 07   CHANGED IF BC         25928021
 0022B0 47F0 BCEE      0237E        3457        BC    UNCOND,GHBT3B         BR TO GEN ATXT FOR BRANCH            25936021
 0022B4 9207 D300      083C8        3458          MVI   GCNGBR+NX9,XX07      BCR OP CODE                         25944021
 0022B8 47F0 BCAE      0233E        3459        B     GOUTBR                FOR PN MOVE BR STRING TO OUTAREA     25952021
 0022BC D501 D172 C370 0823A 07900  3460 GTSTNM   CLC   XGN1(LX2),GZERO                                          25960021
 0022C2 4780 BC44      022D4        3461        BC    EQ,GTSTN2       BRANCH IF NOT GN                           25968021
 0022C6 9250 D2FC      083C4        3462          MVI   GCNGBR+NX5,XX50                                          25976021
 0022CA D201 D2FD D172 083C5 0823A  3463          MVC   GCNGBR+NX6(LX2),XGN1                                     25984021
 0022D0 47FE 0008      00008        3464          B     DX8(RETRG)          BRANCH TO PUT OUT DIRECT ATXT        25992021
 0022D4 D503 D180 C370 08248 07900  3465 GTSTN2   CLC   XVN1(LX4),GZERO        SET VNREF CODE                    26000021
 0022DA 4770 BC6C      022FC        3466        BC    NOTEQ,GTSTN3    BRANCH IF VN                               26008021
 0022DE D503 D174 C370 0823C 07900  3467          CLC   XPN1(LX4),GZERO                                          26016021
 0022E4 078E                        3468        BCR   EQ,RETRG        BR IF NOT PN                               26024021
 0022E6 924C D307      083CF        3469          MVI   GCPNVNBR+NX5,PAPNREF     INSERT PRIORITY & PN NUMBER     26032021
 0022EA D202 D308 D175 083D0 0823D  3470          MVC   GCPNVNBR+NX6(LX3),XPN1+NX1                               26040021
 0022F0 41E0 BCC6      02356        3471          LA    RETRG,GOUTBR2        SET 14 FOR RETURN FROM PNUSED R     26048021
 0022F4 4830 D176      0823E        3472          LH    RW3,XPN1+NX2             GO TO MARK PNUTBL               26056021
 0022F8 47F0 BCC6      02356        3473          B     GOUTBR2                 CONTINUE                         26064021
 0022FC 9254 D307      083CF        3474 GTSTN3   MVI   GCPNVNBR+NX5,PAVNREF   INSERT PRIORITY AND               26072021
 002300 D202 D308 D181 083D0 08249  3475          MVC   GCPNVNBR+NX6(LX3),XVN1+NX1         VN NUMBER             26080021
 002306 47F0 BCC6      02356        3476        B     GOUTBR2               FOR VN COMPLT BR ATXT AND WRITE      26088021
 00230A 900F D0E0      081A8        3477 BRNLNK STM   GR1,GR15,GSVRG                                             26096021
 00230E 9846 D138      08200        3478        LM    OPD1,OPD3,OP1   LD REGS WITH OPND PTRS  3 WITH GADPAR      26104021
 002312 45E0 BC2C      022BC        3479        BAL   RETRG,GTSTNM          FOR PN OR VN MOD DIRECT ATXT         26112021
 002316 9205 D1DD      082A5        3480          MVI   OPCOD,XX05     BALR OP CODE IS 05   CHANGED IF BAL       26120021
 00231A 47F0 BCEE      0237E        3481        BC    UNCOND,GHBT3B         BR TO GEN ATXT FOR BALR              26128021
 00231E 9205 D300      083C8        3482          MVI   GCNGBR+NX9,XX05 BCR OP CODE                              26136021
 002322 47F0 BCAE      0233E        3483        BC    UNCOND,GOUTBR         FOR PN COMPLT ATXT,MOVE TO OUT       26144021
1                           A-TEXT GENERATOR                                                                    PAGE   85
-  LOC  OBJECT CODE    ADDR1 ADDR2  STMT   SOURCE STATEMENT                                       ASM 0201 11.03 02/14/15
0002326 900F D0E0      081A8        3484 BRNCNT STM   GR1,GR15,GSVRG                                             26152021
 00232A 9846 D138      08200        3485        LM    OPD1,OPD3,OP1   LD REGS WITH OPND PTRS  3 WITH GADPAR      26160021
 00232E 45E0 BC2C      022BC        3486        BAL   RETRG,GTSTNM          FOR PN OR VN MOD DIRECT ATXT         26168021
 002332 9206 D1DD      082A5        3487          MVI   OPCOD,XX06     BCTR OP CODE IS 06   CHANGED IF BCT       26176021
 002336 47F0 BCEE      0237E        3488        BC    UNCOND,GHBT3B         BR TO GEN ATXT FOR BCTR              26184021
 00233A 9206 D300      083C8        3489          MVI   GCNGBR+NX9,XX06 BCTR OP CODE                             26192021
 00233E 45E0 8820      01650        3490 GOUTBR   BAL   RETRG,GDES15        DESTROY 15                           26200021
 002342 F100 D301 D188 083C9 08250  3491          MVO   GCNGBR+NX10(LX1),XREG1(LX1)                              26208021
 002348 920B D2F8      083C0        3492          MVI   GCNGBR+NX1,XX0B                                          26216021
 00234C D20A D1DA D2F7 082A2 083BF  3493          MVC   COUNT(LX11),GCNGBR                                       26224021
 002352 47F0 B9D2      02062        3494        BC    UNCOND,GNOPT9         WRITE OUT ATXT                       26232021
 002356 45E0 8820      01650        3495 GOUTBR2  BAL   RETRG,GDES15            DESTROY REG 15                   26240021
 00235A F100 D30D D188 083D5 08250  3496          MVO   GCPNVNBR+NX11(LX1),XREG1(LX1)                            26248021
 002360 920C D303      083CB        3497          MVI   GCPNVNBR+NX1,XX0C         SET LENGTH                     26256021
 002364 D20B D1DA D302 082A2 083CA  3498          MVC   COUNT(LX12),GCPNVNBR  MOVE BRANCH STRING TO OUTPUT AR    26264021
 00236A 47F0 B9D2      02062        3499          B     GNOPT9              WRITE OUT ATXT                       26272021
 00236E 9228 D1DD      082A5        3500 LDFLL    MVI   OPCOD,XX28     LDR OP CODE=28  CHANGED IF LD             26280021
 002372 9210 D1D8      082A0        3501 GHBT2    MVI   GBIT1,XX10     DOUBLE PRECISION FLOATING POINT CONSTA    26288021
 002376 9608 D1D8      082A0        3502 GHIBT2   OI    GBIT1,XX08                FLOATING POINT.                26296021
 00237A 47F0 BCF6      02386        3503        BC    UNCOND,GHIBT3         SAVE REGS AND BR TO GEN ATXT         26304021
 00237E 9200 D1D8      082A0        3504 GHBT3B   MVI   GBIT1,XX00                                               26312021
 002382 47F0 BCFE      0238E        3505        BC    UNCOND,GHBT3C         BR TO GEN ATXT                       26320021
 002386 900F D0E0      081A8        3506 GHIBT3 STM   GR1,GR15,GSVRG                                             26328021
 00238A 9846 D138      08200        3507        LM    OPD1,OPD3,OP1   LD REGS WITH OPND PTRS   3 WITH GADPAR     26336021
 00238E D53D D14A C370 08212 07900  3508 GHBT3C CLC   XWC1(GCNLN2),GZERO                                         26344021
 002394 4770 BD10      023A0        3509        BC    NOTEQ,GSTRX3    BRANCH IF RX TYPE INSTRUCTION              26352021
 002398 5940 C370      07900        3510        C     OPD1,GZERO                                                 26360021
 00239C 4780 B050      016E0        3511        BC    EQ,SETRR        BRANCH IF RR TYPE INSTRUCTION              26368021
 0023A0 9740 D1DD      082A5        3512 GSTRX3   XI    OPCOD,XX40     PUT 4 IN HI ORDER (0 OR 2 OR 3 THERE N    26376021
 0023A4 9500 D18A      08252        3513          CLI   XXREG,XX00                                               26384021
 0023A8 4780 B07A      0170A        3514        BC    EQ,SETRX              IF REG0, BR TO GEN RX DOP ATXT       26392021
 0023AC D200 D1DE D18A 082A6 08252  3515 GFKRG    MVC   GABS(LX1),XXREG                                          26400021
 0023B2 47F0 B07A      0170A        3516        BC    UNCOND,SETRX          GENERATE ATXT FOR RX INSTRUC         26408021
 0023B6 9740 D1DD      082A5        3517 GFKRG2   XI    OPCOD,XX40                                               26416021
 0023BA 47F0 BD1C      023AC        3518        BC    UNCOND,GFKRG          MOVE IN REGNO,BR TO GEN INSTRUC      26424021
 0023BE 9238 D1DD      082A5        3519 LDFLS    MVI   OPCOD,XX38     LER OP CODE=38  CHANGED IF LE             26432021
 0023C2 47F0 BCE6      02376        3520        BC    UNCOND,GHIBT2         GEN FLPT ATXT INSTRUC                26440021
 0023C6 923A D1DD      082A5        3521 ADFLS    MVI   OPCOD,XX3A     AER OP CODE=3A  CHANGED IF AE             26448021
 0023CA 47F0 BCE6      02376        3522        BC    UNCOND,GHIBT2         GEN SGL FLPT ATXT INSTRUC            26456021
 0023CE 922A D1DD      082A5        3523 ADFLL    MVI   OPCOD,XX2A     ADR OP CODE=2A  CHANGED IF AD             26464021
 0023D2 47F0 BCE2      02372        3524        BC    UNCOND,GHBT2          GEN DBL FLPT ATXT INSTRUC            26472021
                                    3525 *ADUNS  MVI   OPCOD,X'3E'     AUR OP CODE=3E  CHANGED IF AU             26480021
                                    3526 *       BC    UNCOND,GHIBT2                                             26488021
                                    3527 *ADUNL  MVI   OPCOD,X'2E'     AWR OP CODE=2E  CHANGED IF AW             26496021
                                    3528 *       BC    UNCOND,GHBT2                                              26504021
 0023D6 923B D1DD      082A5        3529 SUBNS    MVI   OPCOD,XX3B     SER OP CODE=3B  CHANGED IF SE             26512021
 0023DA 47F0 BCE6      02376        3530        BC    UNCOND,GHIBT2         GEN FLPT ATXT INSTRUC                26520021
 0023DE 922B D1DD      082A5        3531 SUBNL    MVI   OPCOD,XX2B     SDR OP CODE=2B  CHANGED IF SD             26528021
 0023E2 47F0 BCE2      02372        3532        BC    UNCOND,GHBT2          GEN DBL FLPT ATXT INSTRUC            26536021
 0023E6 923F D1DD      082A5        3533 SUBUNS   MVI   OPCOD,XX3F     SUR OP CODE=3F  CHANGED IF SU             26544021
 0023EA 47F0 BCE6      02376        3534        BC    UNCOND,GHIBT2         GEN SNGL FLPT ATXT INSTRUC           26552021
 0023EE 922F D1DD      082A5        3535 SUBUNL   MVI   OPCOD,XX2F     SWR OP CODE=2F  CHANGED IF SW             26560021
 0023F2 47F0 BCE2      02372        3536        BC    UNCOND,GHBT2          GEN DBL FLPT ATXT INSTRUC            26568021
 0023F6 9239 D1DD      082A5        3537 CMPFLS   MVI   OPCOD,XX39     CER OP CODE=39  CHANGED IF CE             26576021
 0023FA 47F0 BCE6      02376        3538        BC    UNCOND,GHIBT2         GEN SNGL FLPT ATXT INSTRUC           26584021
1                           A-TEXT GENERATOR                                                                    PAGE   86
-  LOC  OBJECT CODE    ADDR1 ADDR2  STMT   SOURCE STATEMENT                                       ASM 0201 11.03 02/14/15
00023FE 9229 D1DD      082A5        3539 CMPFLL   MVI   OPCOD,XX29     CDR OP CODE=29  CHANGED IF CD             26592021
 002402 47F0 BCE2      02372        3540        BC    UNCOND,GHBT2          GEN DBL FLPT ATXT INSTRUC            26600021
 002406 90E3 D3A4      0846C        3541 PNBCD  STM   RETRG,RW3,PUTSAV                                           26608021
 00240A 4130 0001      00001        3542          LA    RW3,DX1                                                  26616021
 00240E 4120 D1DF      082A7        3543        LA    RW2,GADPAR                                                 26624021
 002412 923C D1DF      082A7        3544          MVI   GADPAR,XX3C    PNBCD                                     26632021
 002416 47F0 7228      00228        3545          B     PUTA+NX4           BRANCH TO PUT A RTN                   26640021
 00241A 900F D0E0      081A8        3546 MACRO  STM   GR1,GR15,GSVRG                                             26648021
 00241E 9846 D138      08200        3547        LM    OPD1,OPD3,OP1                                              26656021
 002422 9240 D1D9      082A1        3548          MVI   GBIT2,XX40     HAVE MACRO                                26664021
 002426 9244 D1DD      082A5        3549          MVI   OPCOD,XX44     MACRO                                     26672021
 00242A D200 D1DE D189 082A6 08251  3550          MVC   GABS(LX1),GMCTYP                                         26680021
 002430 94FE D67F      08747        3551        NI    MADCSW,MSWOFF                                              26688021
 002434 9518 D189      08251        3552        CLI   GMCTYP,MADCON         ADCON...                             26696021
 002438 4770 B088      01718        3553        BC    NOTEQ,GCKOP3           NO                                  26704021
 00243C 9534 4000      00000        3554          CLI   DX0(OPD1),MANLIT                                         26712021
 002440 4770 B088      01718        3555        BC    NOTEQ,GCKOP3          NOT ALPHANUM LIT,GEN PROPER ATXT     26720021
 002444 9601 D67F      08747        3556        OI    MADCSW,MSWON           YES, SET ADCON SW                   26728021
 002448 47F0 B088      01718        3557        BC    UNCOND,GCKOP3         GEN ATXT FOR ADCON                   26736021
 00244C 920A D1DD      082A5        3558 SVC      MVI   OPCOD,XX0A     SVC OPCODE                                26744021
 002450 47F0 BDC8      02458        3559        BC    UNCOND,CNOP2          SKIP NXT TO KEEP SVC OP CODE         26752021
 002454 9200 D1DD      082A5        3560 CNOP     MVI   OPCOD,XX00     CNOP OP CODE                              26760021
 002458 900F D0E0      081A8        3561 CNOP2  STM   GR1,GR15,GSVRG                                             26768021
 00245C 9846 D138      08200        3562        LM    OPD1,OPD3,OP1                                              26776021
 002460 D200 D1DE D189 082A6 08251  3563          MVC   GABS(LX1),IMM                                            26784021
 002466 47F0 BA8E      0211E        3564        BC    UNCOND,GNOPT2         WRITE OUT SVC DIRECT ATXT            26792021
 00246A 923C D1DD      082A5        3565 MULTS    MVI   OPCOD,XX3C     MER OP CODE=3C  CHANGED IF ME             26800021
 00246E 47F0 BCE6      02376        3566        BC    UNCOND,GHIBT2         GEN SNGL FLPT ATXT INSTRUC           26808021
 002472 922C D1DD      082A5        3567 MULTFL   MVI   OPCOD,XX2C     MDR OP CODE=2C  CHANGED IF MD             26816021
 002476 47F0 BCE2      02372        3568        BC    UNCOND,GHBT2          GEN DBL FLPT ATXT INSTRUC            26824021
 00247A 923D D1DD      082A5        3569 DIVFLS   MVI   OPCOD,XX3D     DER OP CODE=3D  CHANGED IF DE             26832021
 00247E 47F0 BCE6      02376        3570        BC    UNCOND,GHIBT2         GEN SNGL FLPT ATXT INSTRUC           26840021
 002482 922D D1DD      082A5        3571 DIVFLL   MVI   OPCOD,XX2D     DDR OP CODE=2D  CHANGED IF DD             26848021
 002486 47F0 BCE2      02372        3572        BC    UNCOND,GHBT2          GEN DBL FLPT ATXT INSTRUC            26856021
 00248A 9270 D1DD      082A5        3573 STORFS   MVI   OPCOD,XX70     STE OP CODE=70                            26864021
 00248E 47F0 B068      016F8        3574        BC    UNCOND,SETRX0         GEN ATXT FOR RX INSTRUC              26872021
 002492 9260 D1DD      082A5        3575 STORFL   MVI   OPCOD,XX60     STD OP CODE=60                            26880021
 002496 47F0 B068      016F8        3576        BC    UNCOND,SETRX0         GEN ATXT FOR RX INSTRUC              26888021
 00249A 9224 D1DD      082A5        3577 HALVEL   MVI   OPCOD,XX24     HDR OP CODE=24                            26896021
 00249E 47F0 B048      016D8        3578        BC    UNCOND,SETRR1         GEN ATXT FOR RR INSTRUC              26904021
 0024A2 9234 D1DD      082A5        3579 HALVES   MVI   OPCOD,XX34     HER OP CODE=34                            26912021
 0024A6 47F0 B048      016D8        3580        BC    UNCOND,SETRR1         GEN ATXT FOR RR INSTRUC              26920021
 0024AA 9231 D1DD      082A5        3581 LDNEGS   MVI   OPCOD,XX31     LNER OP CODE=31                           26928021
 0024AE 47F0 B048      016D8        3582        BC    UNCOND,SETRR1         GEN ATXT FOR RR INSTRUC              26936021
                                    3583 *LDNEGL MVI   OPCOD,X'21'     LNDR OP CODE=21                           26944021
                                    3584 *       BC    UNCOND,SETRR1                                             26952021
                                    3585 *LDPOSL MVI   OPCOD,X'20'     LPDR OP CODE=20                           26960021
                                    3586 *       BC    UNCOND,SETRR1                                             26968021
                                    3587 *LDPOSS MVI   OPCOD,X'30'     LPER OP CODE=30                           26976021
                                    3588 *       BC    UNCOND,SETRR1                                             26984021
                                    3589 *LDCMPL MVI   OPCOD,X'23'     LCDR OP CODE=23                           26992021
                                    3590 *       BC    UNCOND,SETRR1                                             27000021
                                    3591 *LDCMPS MVI   OPCOD,X'33'     LCER OP CODE=33                           27008021
                                    3592 *       BC    UNCOND,SETRR1                                             27016021
 0024B2 9222 D1DD      082A5        3593 LDTSTL   MVI   OPCOD,XX22     LTDR OP CODE=22                           27024021
1                           A-TEXT GENERATOR                                                                    PAGE   87
-  LOC  OBJECT CODE    ADDR1 ADDR2  STMT   SOURCE STATEMENT                                       ASM 0201 11.03 02/14/15
00024B6 47F0 B048      016D8        3594        BC    UNCOND,SETRR1         GEN ATXT FOR RR INSTRUC              27032021
 0024BA 9232 D1DD      082A5        3595 LDTSTS   MVI   OPCOD,XX32     LTER OP CODE=32                           27040021
 0024BE 47F0 B048      016D8        3596        BC    UNCOND,SETRR1         GEN ATXT FOR RR INSTRUC              27048021
 0024C2 4830 A15E      0015E        3597 GNSTEP LH    GR14,FIVEGN                                                27056021
 0024C6 4133 0001      00001        3598          LA    GR14,DX1(GR14)                                           27064021
 0024CA 4030 A15E      0015E        3599        STH   GR14,FIVEGN                                                27072021
 0024CE 07FE                        3600        BCR   UNCOND,RETRG          RETURN TO CALLER                     27080021
 0024D0 D200 6003 E000 00003 00000  3601 GCONMV   MVC   DX3(LX1,OPD3),DX0(RETRG)                                 27088021
                                    3602 *   THE FOLLOWING INSTRUCTIONS ARE EXECUTED BY THE EX INSTRUCTION       27096021
 0024D6 F990 C3CA 4004 0795A 00004  3603 GBILT4   CP    GFLHI(LX10),DX4(LX1,OPD1)                                27104021
 0024DC F990 C3D4 4004 07964 00004  3604 GBILT6   CP    GFLLO(LX10),DX4(LX1,OPD1)                                27112021
 0024E2 D200 6003 4002 00003 00002  3605 CHNGL1   MVC   DX3(LX1,OPD3),DX2(OPD1) FOR ALPHA LIT + FLTNG PT LIT     27120021
 0024E8 D200 6004 6003 00004 00003  3606 CHNGL4   MVC   DX4(LX1,OPD3),DX3(OPD3) FOR FIG CON BCD                  27128021
 0024EE D200 6003 4004 00003 00004  3607 CHNGL2   MVC   DX3(LX1,OPD3),DX4(OPD1) FOR NUM LIT                      27136021
 0024F4 D200 6003 C370 00003 07900  3608 CHNGL5   MVC   DX3(LX1,OPD3),GZERO FOR FIG CON FLTNG PT                 27144021
 0024FA D200 D340 D1DA 08408 082A2  3609 CHNGL9   MVC   OTPT(LX1),COUNT                                          27152021
 002500 F870 D328 4004 083F0 00004  3610 GZAP     ZAP   GTEMP(LX8),DX4(LX1,OPD1)                                 27160021
 002506 F940 C3C0 4004 07950 00004  3611 GBICHG   CP    GHFHI(LX5),DX4(LX1,OPD1)                                 27168021
 00250C F940 C3C5 4004 07955 00004  3612 GBICG2   CP    GHFLO(LX5),DX4(LX1,OPD1)                                 27176021
 002512 D200 2000 D345 00000 0840D  3613 AXTI00   MVC   DX0(LX0,RW2),OTPT+NX5                                    27184021
 002518 F140 D32B 4004 083F3 00004  3614 GMOVE    MVO   GTEMP+NX3(LX5),DX4(LX1,OPD1)                             27192021
 00251E D200 6001 D160 00001 08228  3615 GDC1     MVC   DX1(LX1,OPD3),XCON1                                      27200021
1                           A-TEXT GENERATOR                                                                    PAGE   88
-  LOC  OBJECT CODE    ADDR1 ADDR2  STMT   SOURCE STATEMENT                                       ASM 0201 11.03 02/14/15
0002524                             3617 DNTOR0   DS    0H                                                 51894 27216021
 002524 9200 C839      07DC9        3618          MVI   REG,RW0             LOAD INTO REG 0                51894 27224021
 002528 47F0 BEA0      02530        3619          B     ROUT                CONTINUE                       51894 27232021
 00252C                             3620 DNTOR1   DS    0H                                                 51894 27240021
 00252C 9201 C839      07DC9        3621          MVI   REG,RW1             LOAD INTO REG 1                51894 27248021
 002530                             3622 ROUT     DS    0H                                                 51894 27256021
 002530 50E0 D660      08728        3623 GDNCNG ST    RETRG,EXHIBP                                               27264021
 002534 D502 3004 C830 00004 07DC0  3624          CLC   DX4(LX3,RW3),XTALLV+NX4 TEST IF TALLY                    27272021
 00253A 4770 BEB6      02546        3625        BC    NOTEQ,GODP5     BRANCH IF NOT TALLY                        27280021
 00253E 9205 D14D      08215        3626          MVI   TALLY1,XX05                                              27288021
 002542 47F0 BF44      025D4        3627        BC    UNCOND,GODP6X         GEN LOAD INSTRUC AND BR              27296021
 002546 94F0 3003      00003        3628 GODP5    NI    DX3(RW3),XXF0                                            27304021
 00254A 95B0 3003      00003        3629          CLI   DX3(RW3),XXB0       TEST MINOR CODE                      27312021
 00254E 5030 D138      08200        3630        ST    RW3,OP1                                                    27320021
 002552 4780 BF32      025C2        3631        BC    EQ,GODP6        BINARY                                     27328021
 002556 9208 D149      08211        3632          MVI   XL1+NX1,XX08                                             27336021
 00255A 9230 D178      08240        3633          MVI   XCNTR1,XX30    TEMP STORAGE OTHER THAN ARITH             27344021
 00255E 9201 D17A      08242        3634          MVI   XCNTR1+NX2,XX01                                          27352021
 002562 4720 BEF8      02588        3635        BC    HI,GOPID        ID                                         27360021
 002566 D200 D191 3009 08259 00009  3636          MVC   XL2+NX1(LX1),DX9(RW3)                                    27368021
 00256C 48E0 D190      08258        3637        LH    RETRG,XL2                                                  27376021
 002570 4BE0 C876      07E06        3638        SH    RETRG,XC016                                                27384021
 002574 4740 BEF0      02580        3639          BL    GODPCK              IF LT 16, NO DBL PACK NEEDED         27392021
 002578 40E0 D1C4      0828C        3640          STH   RETRG,PLUS2+NX1                                          27400021
 00257C 9210 D191      08259        3641          MVI   XL2+NX1,XX10                                             27408021
                             02580  3642 GODPCK EQU   *                                                          27416021
 002580 45E0 BACA      0215A        3643        BAL   RETRG,PACK      DO A PACK  GTREF2(8),DN(L2)                27424021
 002584 47F0 BF0C      0259C        3644        BC    UNCOND,GODP2          UP TS TO 8 AND GEN CUB ATXT          27432021
 002588 43E3 0009      00009        3645 GOPID    IC    RETRG,DX9(RW3)                                           27440021
 00258C 88E0 0001      00001        3646          SRL   RETRG,DX1                                                27448021
 002590 41EE 0001      00001        3647          LA    RETRG,DX1(RETRG)                                         27456021
 002594 42E0 D191      08259        3648          STC   RETRG,XL2+NX1                                            27464021
 002598 45E0 B000      01690        3649        BAL   RETRG,ZAP       DO A ZAP  GTREF2(8),DN(L2)                 27472021
 00259C                             3650 GODP2    DS    0H                                                 51894 27480021
 00259C D200 D188 C839 08250 07DC9  3651          MVC   XREG1(LX1),REG                                     51894 27488021
 0025A2 D501 A16A C868 0016A 07DF8  3652          CLC   TS2MAX(LX2),XC008                                        27496021
 0025A8 47B0 BF22      025B2        3653          BNL   GFXTS3              ENOUGH TS2 ALLOCATED           51894 27504021
 0025AC D201 A16A C868 0016A 07DF8  3654          MVC   TS2MAX(LX2),XC008                                  51894 27512021
 0025B2 9230 D178      08240        3655 GFXTS3   MVI   XCNTR1,XX30                                              27520021
 0025B6 9201 D17A      08242        3656          MVI   XCNTR1+NX2,XX01                                          27528021
 0025BA 45E0 BAE2      02172        3657        BAL   RETRG,CVBBI     DO A CVB  XRC,GTREF2                       27536021
 0025BE 47F0 BF4E      025DE        3658          B     GODPXT              EXIT                           51894 27544021
                                    3659 *DEL                                                               5189 27552021
                                    3660 *DEL                                                               5189 27560021
                                    3661 *DEL                                                               5189 27568021
 0025C2 1BEE                        3662 GODP6  SR    RETRG,RETRG                                                27576021
 0025C4 43E3 0009      00009        3663          IC    RETRG,DX9(RW3)                                           27584021
 0025C8 49E0 C86A      07DFA        3664        CH    RETRG,XC009           DOUBLE PRECISION...                  27592021
 0025CC 47D0 BF44      025D4        3665        BC    NOTHI,GODP6X           NO                                  27600021
 0025D0 9204 D17D      08245        3666          MVI   PLUS1+NX2,XX04        YES, SET UP A-TEXT BUFFER FOR '    27608021
 0025D4                             3667 GODP6X   DS    0H                                                 51894 27616021
 0025D4 D200 D188 C839 08250 07DC9  3668          MVC   XREG1(LX1),REG                                     51894 27624021
 0025DA 45E0 B000      01690        3669        BAL   RETRG,LOAD      DO A LH  XRC,DN                            27632021
 0025DE                             3670 GODPXT   DS    0H                                                 51894 27640021
 0025DE 58E0 D660      08728        3671        L     RETRG,EXHIBP                                               27648021
1                           A-TEXT GENERATOR                                                                    PAGE   89
-  LOC  OBJECT CODE    ADDR1 ADDR2  STMT   SOURCE STATEMENT                                       ASM 0201 11.03 02/14/15
00025E2 07FE                        3672        BCR   UNCOND,RETRG          RETURN TO CALLER                     27656021
                                    3673 *              END OF A-TEXT GENERATOR                                  27664021
1         EVAL VERB ANALYZER                                                                                    PAGE   90
-  LOC  OBJECT CODE    ADDR1 ADDR2  STMT   SOURCE STATEMENT                                       ASM 0201 11.03 02/14/15
00025E8                             3675 IKF50A CSECT                                                            27680021
0
                                    3677 *     XEVAL - INITIALIZES FOR SUBSEQUENT VERB ANALYZERS                 27696021
                                    3678 *            GETS NUMBER OF DECIMAL PLACES IN RESULT                    27704021
                                    3679 *            GETS MAXIMUM NUMBER OF DECIMAL PLACES IN THIS STRING       27712021
                                    3680 *            CHECKS FOR ROUNDED AND ON SIZE ERROR OPTIONS               27720021
                                    3681 *            CHECKS FOR ADD CORRESPONDING                               27728021
                                    3682 *            CHECKS FOR DIVIDE ROUNDED REMAINDER                        27736021
0
                             025E8  3684        USING *,XRVERB                                                   27752021
                             025E8  3685 XEVAL  EQU   *                                                          27760021
 0025E8 9200 D481      08549        3686          MVI   XGSWT,XX00           SET XGSWT = 0                       27768021
 0025EC D703 D43E D43E 08506 08506  3687          XC    XRDMX(LX4),XRDMX     SET XRDMX = XGDRE = 0               27776021
 0025F2 45E0 75F0      005F0        3688        BAL   XRSUB,XINITN          INIT GEN REG TABLES                  27784021
 0025F6 45E0 7626      00626        3689        BAL   XRSUB,XINITF          INIT FL PT REG TABLES                27792021
 0025FA 45E0 7838      00838        3690        BAL   XRSUB,XINTL1          INIT DOP BUFFS SET XOPMOD = 0        27800021
 0025FE 94DF D48D      08555        3691          NI    XGNSW,XXDF           ALLOW PRINTING OF MSG 11            27808021
0
 002602 5810 C8FC      07E8C        3693        L     XR1,XAINTR            XR1 HAS @TIB FOR XINTR               27824021
 002606 45E0 7E1C      00E1C        3694        BAL   XRSUB,XTBDEB          XR1 NOW HAS @TAM FOR XINTR           27832021
 00260A D201 1004 C850 00004 07DE0  3695          MVC   DX4(LX2,XR1),XC000    SET # OF BYTES USED = 0            27840021
0
 002610 D200 D43F D6BE 08507 08786  3697          MVC   XRDMX+NX1(LX1),DOP1+NX2 XRDMX = MAX # OF DEC PLACES      27856021
 002616 D200 D441 D6BF 08509 08787  3698          MVC   XGDRE+NX1(LX1),DOP1+NX3 XGDRE = # OF DEC PLACES IN RES   27864021
0
 00261C 9502 D0D2      0819A        3700        CLI   ELEMCT,XTWO           IS ON SIZE ERROR OPTION USED         27880021
 002620 47D0 9068      02650        3701        BNH   XG001                 NO                                   27888021
 002624 9602 D481      08549        3702        OI    XGSWT,XSIZER          YES TURN ON SWITCH AND               27896021
 002628 D201 D494 D7B5 0855C 0887D  3703          MVC   XSZTRA(LX2),DOP3+NX1  GET ON SIZE ERROR TRANSFER         27904021
0
 00262E D501 D494 C88A 0855C 07E1A  3705          CLC   XSZTRA(LX2),XMINON   IS THIS AN ADD CORRESPONDING        27920021
 002634 4770 90B6      0269E        3706        BNE   XG002                 NO                                   27928021
 002638 9104 D48D      08555        3707        TM    XGNSW,XADDCR          YES, IS THIS THE FIRST ADD           27936021
 00263C 4710 9068      02650        3708        BO    XG001                 NO                                   27944021
 002640 9604 D48D      08555        3709        OI    XGNSW,XADDCR          YES, FOR FIRST ADD OF AN ADD         27952021
 002644 927F D189      08251        3710          MVI   XIMM,XX7F                 CORRESPONDING RESET OBJ        27960021
 002648 9204 D184      0824C        3711          MVI   GDEBG1,XX04         TIME SIZE ERROR SWITCH               27968021
 00264C 45E0 BB3E      021CE        3712          BAL   XRSUB,NI           PUT A TEXT NI INST                    27976021
0
                             02650  3714 XG001  EQU   *                                                          27992021
 002650 D501 D6C1 C850 08789 07DE0  3715          CLC   DOP1+NX5(LX2),XC000 IS THIS A DIVIDE REMAINDER      7884 28000021
 002656 4780 9076      0265E        3716          BE    XG003               NO                              7884 28008021
 00265A 9640 D48D      08555        3717          OI    XGNSW,DIVREM        YES, TURN ON SWITCH             7884 28016021
0
 00265E                             3719 XG003    DS    0H                                                  7884 28032021
 00265E 9500 D6C0      08788        3720          CLI   DOP1+NX4,XX00        IS ROUNDED OPTION USED              28040021
 002662 4780 700A      0000A        3721        BE    PH5CTL                NO RETURN                            28048021
1         EVAL VERB ANALYZER                                                                                    PAGE   91
-  LOC  OBJECT CODE    ADDR1 ADDR2  STMT   SOURCE STATEMENT                                       ASM 0201 11.03 02/14/15
0002666 9601 D481      08549        3722        OI    XGSWT,XROUND          YES TURN ON SWITCH                   28056021
0
 00266A 4840 D440      08508        3724          LH    XR4,XGDRE           UPDATE XGDRE AND XRDMX          7884 28072021
 00266E 4940 C878      07E08        3725        CH    XR4,XC018             IS RESULT ALREADY 18 DECIMALS        28080021
 002672 4780 700A      0000A        3726        BE    PH5CTL                YES RETURN                           28088021
 002676 9140 D48D      08555        3727          TM    XGNSW,DIVREM        IS THIS A DIVIDE REMAINDER      7884 28096021
 00267A 4780 909A      02682        3728        BZ    XG005               NO                                     28104021
 00267E 9680 D48D      08555        3729        OI    XGNSW,ADDONE        YES, TURN ON SWITCH INDICATING A       28112021
                             02682  3730 XG005  EQU   *                   DEC PLACE HAS BEEN ADDED               28120021
 002682 4A40 C3AE      0793E        3731        AH    XR4,XC001             NO ADD ONE                           28128021
 002686 4040 D440      08508        3732        STH   XR4,XGDRE                                                  28136021
 00268A D501 D440 D43E 08508 08506  3733          CLC   XGDRE(LX2),XRDMX     IS # OF DEC IN RES > MAX # DEC      28144021
 002690 47D0 700A      0000A        3734        BNH   PH5CTL                NO RETURN                            28152021
 002694 D200 D43F D441 08507 08509  3735          MVC   XRDMX+NX1(LX1),XGDRE+NX1 YES SET XRDMX = XGDRE           28160021
 00269A 47F0 700A      0000A        3736        B     PH5CTL                RETURN                               28168021
0
 00269E 9104 D48D      08555        3738 XG002  TM    XGNSW,XADDCR          IS THIS AN ADD CORR                  28184021
 0026A2 4780 9068      02650        3739        BZ    XG001                 NO                                   28192021
 0026A6 9604 D481      08549        3740        OI    XGSWT,XADDCR          YES AND IT IS THE LAST ADD           28200021
 0026AA 47F0 9068      02650        3741          B     XG001              BRANCH TO XG001                       28208021
1         SUBSCRIPT VERB ANALYZER                                                                               PAGE   92
-  LOC  OBJECT CODE    ADDR1 ADDR2  STMT   SOURCE STATEMENT                                       ASM 0201 11.03 02/14/15
0                                   3743 *      SSCRPT   -ROUTINE WHICH GETS NECESSARY INFORMATION FOR COMPU     28224021
                                    3744 *               -THE ADDRESS OF A SUBSCRIPTED ELEMENT.                  28232021
                                    3745 *               - INPUT  IS FOUND IN INPUT BUFFER                       28240021
                                    3746 *               - OUTPUT IS LENGHTS OR VLC'S OF VARIOUS LEVEL,          28248021
                                    3747 *                           ID NUMBER OF THIS SUBCRIPT COMBINATION,     28256021
                                    3748 *                           ATTRIBUTES OF SUBSCRIPTS AND SUBSCRIPTE     28264021
                                    3749 *                           NAME,IN WORK AREA.                          28272021
                                    3750 *                           FIND OUT WHETHER OR NOT IT IS A NEW SUB     28280021
                                    3751 *                           COMBINATION,AND IF NOT RETURNS POINTER      28288021
                                    3752 *                           ENTRY IN TAMER CONTAINING RESULT OF         28296021
                                    3753 *                           PREVIOUS COMPUTATION.                       28304021
                                    3754 *                                                                       28312021
-
0
                             026AE  3756        USING   *,XRVERB                                                 28328021
                             026AE  3757 SSCRPT EQU   *                                                          28336021
 0026AE 50E0 D318      083E0        3758        ST    RETRG,SCHLD2         R14 PICKED UP IF RETURN TO SEARCHAL   28344021
 0026B2 45E0 7838      00838        3759        BAL   XRSUB,XINTL1               INITIALIZE  WORK AREA.          28352021
 0026B6 1B00                        3760        SR    XR0,XR0                                                    28360021
 0026B8 4300 D0D2      0819A        3761        IC    XR0,ELEMCT                                                 28368021
 0026BC 4A00 C3AE      0793E        3762        AH    XR0,XC001                                                  28376021
 0026C0 8900 0002      00002        3763          SLL   XR0,DX2                                                  28384021
 0026C4 4000 D500      085C8        3764        STH   XR0,XSSUBN                 SET LENGHT OF ENTRY IN TAME     28392021
 0026C8 1820                        3765        LR    XR2,XR0                                                    28400021
 0026CA 4B20 C868      07DF8        3766        SH    XR2,XC008                                                  28408021
 0026CE 5852 C8C8      07E58        3767        L     XR5,XAOPE1(XR2)                                            28416021
 0026D2 D201 D520 5005 085E8 00005  3768          MVC   XSIDNB(LX2),XDIDK+NX1(XR5) GET ID NUMBER OF THIS SUB.    28424021
 0026D8 8820 0002      00002        3769          SRL   XR2,DX2                   BINATION.                      28432021
 0026DC 0620                        3770        BCTR  XR2,RW0               SUBTRACT 1 FROM REG2                 28440021
 0026DE 4020 D502      085CA        3771          STH   XR2,XSSUBN+NX2            SET SUBCRIPT NUMBER.           28448021
 0026E2 0620                        3772        BCTR  XR2,RW0               SUBTRACT 1 FROM REG2                 28456021
 0026E4 8920 0002      00002        3773          SLL   XR2,DX2                   INITIALIAZE INDEXES TO PICK    28464021
 0026E8 5860 C8CC      07E5C        3774        L     XR6,XAOPE2                 I,D,K OF SUBS OR THEIR VALU     28472021
 0026EC 9680 D482      0854A        3775        OI    XOPMOD,XALLSN              IF LITTERALS.                   28480021
0
 0026F0 9530 6000      00000        3777 XGET01   CLI   DX0(XR6),XGDTN            IS IT A DATA NAME SUBC.        28496021
 0026F4 4780 91F0      0289E        3778        BC    XZERO,XGET00               YES                             28504021
 0026F8 9536 6000      00000        3779          CLI   DX0(XR6),INDXNM     NO, IS IT AN INDEX NAME              28512021
 0026FC 4780 9210      028BE        3780        BE    IX000                YES                                   28520021
 002700 9532 6000      00000        3781          CLI   DX0(XR6),XGNLT            NO,IS IT A LITTERAL.           28528021
 002704 4770 925A      02908        3782        BC    XNOEQ,XGETLG               NO- LOGIC ERROR.                28536021
 002708 1B33                        3783        SR    XR3,XR3                    YES- PICK-UP BINARY VALUE O     28544021
 00270A 4336 0001      00001        3784        IC    XR3,XGNBYT(XR6)            LITTERAL.                       28552021
 00270E 4B30 C860      07DF0        3785        SH    XR3,XC003                  X                               28560021
 002712 4430 9260      0290E        3786        EX    XR3,XGTMV                  X                               28568021
 002716 D70B D528 D528 085F0 085F0  3787          XC    XSUTMP(LX12),XSUTMP                                      28576021
 00271C 940F D534      085FC        3788          NI    XSUTMP+NX12,XX0F                                         28584021
 002720 4F30 D530      085F8        3789          CVB   XR3,XSUTMP+NX8                                           28592021
 002724 5630 C8A8      07E38        3790        O     XR3,XSUMK1                 SET SWITCH INDICATING NUMER     28600021
                                    3791 *                                       SUBCRIPT.                       28608021
1         SUBSCRIPT VERB ANALYZER                                                                               PAGE   93
-  LOC  OBJECT CODE    ADDR1 ADDR2  STMT   SOURCE STATEMENT                                       ASM 0201 11.03 02/14/15
0002728 5032 D50C      085D4        3793 XGET02 ST    XR3,XSSKK(XR2)             STORE IN WORK-AREA.             28624021
 00272C 4166 007C      0007C        3794        LA    XR6,OPSIZ(XR6)             GET NEXT SUBCRIPT IF ANY LE     28632021
 002730 4B20 C3BA      0794A        3795        SH    XR2,XC004                  X                               28640021
 002734 47A0 9042      026F0        3796        BC    XGTEQ,XGET01               X                               28648021
0
                                    3798 *        PICK-UP  I,D,K OF SUBSCRIPTED DATA-NAME AND LENGHTS OF HIG     28664021
                                    3799 *        SUBCRIPTED LEVEL.                                              28672021
                                    3800 *                                                                       28680021
 002738 4130 D6BC      08784        3801          LA    XR3,DOP1                                                 28688021
 00273C 1B22                        3802        SR    XR2,XR2                                                    28696021
 00273E 4323 0001      00001        3803          IC    XR2,DX1(XR3)                                             28704021
 002742 0620                        3804        BCTR  XR2,XR0               SUBTRACT 1 FROM REG2                 28712021
 002744 1A23                        3805        AR    XR2,XR3                                                    28720021
 002746 D202 D509 2000 085D1 00000  3806          MVC   XSOIDK+NX1(LX3),DX0(XR2)  MOVE DICT PTR                  28728021
 00274C 9536 D738      08800        3807        CLI   DOP2,INDXNM                                                28736021
 002750 4780 9154      02802        3808        BE    XGET10               DONT NEED LENGTHS FOR INDEX NAMES     28744021
 002754 4323 0003      00003        3809        IC    XR2,XGMINC(XR3)                                            28752021
 002758 8920 001C      0001C        3810          SLL   XR2,DX28                  PICK-UP MBS AND O FIELD.       28760021
 00275C 8820 001D      0001D        3811          SRL   XR2,DX29                  X                              28768021
 002760 4220 D537      085FF        3812          STC   XR2,XSUTMP+NX15           SAVE IT                        28776021
 002764 8820 0001      00001        3813          SRL   XR2,DX1                   XR2 HAS NUMBER OF SUBSCRIPT    28784021
                                    3814 *                                       REQUIRED                        28792021
 002768 9101 D537      085FF        3815          TM    XSUTMP+NX15,XX01                                         28800021
 00276C 4780 90F0      0279E        3816        BC    XZERO,XGET03               O NOT ON.                       28808021
                                    3817 *                                       ARE AT THE END OF ATTRIBUTE     28816021
 002770 45E0 802C      00E5C        3818        BAL   XRSUB,XLENGH               GET LENGHT OF SUB ELEMENT.      28824021
 002774 D503 D458 C850 08520 07DE0  3819          CLC   XOPLGH(LX4),XC000         IS IT A FIXED LENGHT.          28832021
 00277A 4780 90DA      02788        3820        BC    XZERO,XGET04               NO,                             28840021
 00277E D203 D4E8 D458 085B0 08520  3821          MVC   XSL1(LX4),XOPLGH    YES, SAVE IT IN WORK-AREA      44300 28848021
 002784 47F0 90E4      02792        3822        BC    UNCON,XGET05          FOR FIXED LEN SKIP NXT 2 INSTRUC     28856021
 002788 947F D482      0854A        3823 XGET04   NI    XOPMOD,XX7F                                              28864021
 00278C D201 D4F4 D456 085BC 0851E  3824          MVC   XSVLC1(LX2),XOPVLC        MOVE VARIABLE LENGHT.          28872021
 002792 0620                        3825 XGET05 BCTR  XR2,RW0                      IS THERE MORE THAN ONE SU     28880021
 002794 1222                        3826        LTR   XR2,XR2                                                    28888021
 002796 4780 9154      02802        3827        BC    XZERO,XGET10               NO                              28896021
 00279A 47F0 90F2      027A0        3828        BC    UNCON,XGET09               YES,PICK-UP OTHER ONE.          28904021
 00279E 0620                        3829 XGET03 BCTR  XR2,RW0                      SET XR2 TO BE THE DISPLAC     28912021
 0027A0                             3830 XGET09   DS    0H                                                 44300 28920021
 0027A0 8920 0002      00002        3831          SLL   XR2,DX2                    INTO LENGTH TABLE       44300 28928021
 0027A4 1B66                        3832        SR    XR6,XR6                    SET XR3 TO POINT TO LENGHT      28936021
 0027A6 4363 0001      00001        3833        IC    XR6,XGNBYT(XR3)            INPUT STRING.                   28944021
 0027AA 0660                        3834        BCTR  XR6,RW0                      X                             28952021
 0027AC 9102 3007      00007        3835          TM    DX7(XR3),XX02             Q BIT ON                       28960021
 0027B0 4780 910A      027B8        3836        BC    XZERO,XGETGG          NO,SKIP NXT INSTRUC                  28968021
 0027B4 4B60 C860      07DF0        3837        SH    XR6,XC003                                                  28976021
                             027B8  3838 XGETGG EQU   *                                                          28984021
 0027B8 1A36                        3839        AR    XR3,XR6                    X                               28992021
 0027BA 4B30 C860      07DF0        3840 XGET08 SH    XR3,XC003                  X                               29000021
 0027BE 9200 D52C      085F4        3841          MVI   XSUTMP+NX4,XX00                                    44300 29008021
 0027C2 D202 D52D 3000 085F5 00000  3842          MVC   XSUTMP+NX5(LX3),DX0(XR3)   MOVE LENGHT TO WORD BOUNDAR   29016021
 0027C8 5860 D52C      085F4        3843          L     XR6,XSUTMP+NX4                                     44300 29024021
 0027CC 9180 D52D      085F5        3844          TM    XSUTMP+NX5,XX80           IS IT A  VLC                   29032021
 0027D0 4710 912E      027DC        3845        BC    XTHRE,XGET06               YES                             29040021
 0027D4 5062 D4E8      085B0        3846          ST    XR6,XSL1(XR2)       NO, SAVE IT IN LENGTH TABLE    44300 29048021
1         SUBSCRIPT VERB ANALYZER                                                                               PAGE   94
-  LOC  OBJECT CODE    ADDR1 ADDR2  STMT   SOURCE STATEMENT                                       ASM 0201 11.03 02/14/15
00027D8 47F0 913E      027EC        3847        BC    UNCON,XGET07          FOR FXD LEN SKIP NXT 2 INSTRUC       29056021
 0027DC 947F D482      0854A        3848 XGET06   NI    XOPMOD,XX7F                                              29064021
 0027E0 8820 0001      00001        3849          SRL   XR2,DX1                                            44300 29072021
 0027E4 4062 D4F4      085BC        3850        STH   XR6,XSVLC1(XR2)            MOVE VLC.                       29080021
 0027E8 8920 0001      00001        3851          SLL   XR2,DX1                                            44300 29088021
 0027EC                             3852 XGET07   DS    0H                                                 44300 29096021
 0027EC 4B20 C3BA      0794A        3853          SH    XR2,XC004           GET READY TO PICK UP NEXT LEN  44300 29104021
 0027F0 4720 910C      027BA        3854        BC    XTWO,XGET08           IF DISP LT 2, BRANCH TO SAVE         29112021
 0027F4 9101 D537      085FF        3855          TM    XSUTMP+NX15,XX01          IS LAST LENGHT ALREADY IN (    29120021
 0027F8 4710 9154      02802        3856        BC    XTHRE,XGET10               FLAG ON).  YES -                29128021
 0027FC 1222                        3857        LTR   XR2,XR2                    NO                              29136021
 0027FE 4780 910C      027BA        3858        BC    XZERO,XGET08               GET LAST LENGHT.                29144021
0
                             02802  3860 XGET10 EQU   *                                                          29160021
 002802 9501 D490      08558        3861          CLI   SCHSW,XX01          SSCRPT ENTERED FROM SEARCHAL...      29168021
 002806 4780 926C      0291A        3862        BE    XSCOMP               YES,DONT ENTER INTO XSCRPT TBL        29176021
 00280A D505 D4FA C850 085C2 07DE0  3863          CLC   IXLIT1(LX6),XC000   INDEX + OR - LITERAL...              29184021
 002810 4780 9174      02822        3864        BE    XSN05                NO                                    29192021
 002814 4100 000C      0000C        3865          LA    RW0,DX12            IF INDEXING WITH LITERALS,XSCRPT     29200021
 002818 D201 D500 C870 085C8 07E00  3866          MVC   XSSUBN(LX2),XC012   TBL ENTRY DOES NOT INCLUDE DICT      29208021
 00281E 47F0 91D2      02880        3867        B     XSN04                PTRS TO INDEX NAMES AS THERE          29216021
                                    3868 * MUST NEVER BE A MATCH FOR THIS COMPUTATION                            29224021
 002822 5810 C904      07E94        3869 XSN05  L     XR1,XASCRP                                                 29232021
                                    3870 *DEL                                                               4430 29240021
 002826 45E0 7E1C      00E1C        3871        BAL   XRSUB,XTBDEB               GET ADDRESS OF FIRST BYTE O     29248021
 00282A 18F0                        3872        LR    XRVAR,RW0                                                  29256021
                                    3873 *                                       TABLE IN XR2,AND DISPLT. IN     29264021
 00282C 1802                        3874        LR    XR0,XR2                                                    29272021
 00282E 1A03                        3875        AR    XR0,XR3                    XR3 HAS ADDRESS OF END OF T     29280021
 002830 1852                        3876        LR    XR5,XR2                                                    29288021
 002832 47F0 91CA      02878        3877        BC    UNCON,XSN02           CHK FOR NEW SSCRIPT COMBINATION      29296021
0
 002836 4865 0000      00000        3879 XSN03    LH    XR6,DX0(XR5)              XR6 HAS TOTAL LENGHT OF THI    29312021
 00283A 4960 D500      085C8        3880        CH    XR6,XSSUBN                 ENTRY -IS IT THE SAME  AS T     29320021
 00283E 4770 91C8      02876        3881        BC    XNOEQ,XSN01                ONE IN WORK AREA. -NO           29328021
 002842 1846                        3882        LR    XR4,XR6                    YES -NOW ARE ALL I,D,K FIEL     29336021
 002844 4B40 C86A      07DFA        3883        SH    XR4,XC009                  MATCHING                        29344021
 002848 4440 9266      02914        3884        EX    XR4,XSNCLC                COMPARE                          29352021
 00284C 4770 91C8      02876        3885        BC    XNOEQ,XSN01                NO-                             29360021
 002850 1B52                        3886        SR    XR5,XR2                    GET DISPL. OF THIS ENTRY.       29368021
 002852 4A50 C3BA      0794A        3887        AH    XR5,XC004                  YES IT IS NOT A NEW  SUBSCR     29376021
 002856 4050 D522      085EA        3888        STH   XR5,XSNPT                  COMBINATION.                    29384021
 00285A 4A50 C3BA      0794A        3889        AH    XR5,XC004                  SET POINTERS TO THIS TAMER      29392021
 00285E 4050 D524      085EC        3890        STH   XR5,XSOPT                  ENTRY.                          29400021
 002862 5810 C90C      07E9C        3891 XGETXT L     RW1,XASNT                                                  29408021
 002866 58F0 A130      00130        3892        L     XRVAR,XINST                                                29416021
 00286A 05EF                        3893        BALR  RETRG,XRVAR           BR TO INSERT ROUTINE IN TAMER        29424021
 00286C D203 2000 D520 00000 085E8  3894          MVC   DX0(LX4,XR2),XSIDNB                                      29432021
 002872 47F0 700A      0000A        3895        BC    UNCON,PH5CTL          GET NXT P2 TXT                       29440021
0
 002876 1A56                        3897 XSN01  AR    XR5,XR6                    GET NEXT ENTRY IN TAMER IF      29456021
 002878 1950                        3898 XSN02  CR    XR5,XR0                    ANY LEFT AND TRY MATCHING C     29464021
1         SUBSCRIPT VERB ANALYZER                                                                               PAGE   95
-  LOC  OBJECT CODE    ADDR1 ADDR2  STMT   SOURCE STATEMENT                                       ASM 0201 11.03 02/14/15
000287A 4740 9188      02836        3899        BC    XONE,XSN03                 ARISON AGAIN.                   29472021
 00287E 180F                        3900        LR    RW0,XRVAR                                                  29480021
0
                                    3902 *                                       NO ASK A NEW ENTRY IN TAMER     29496021
 002880 5810 C904      07E94        3903 XSN04  L     XR1,XASCRP           XR0 HAS ENTRY LENGTH                  29504021
 002884 58F0 A130      00130        3904        L     XRVAR,XINST                   X                            29512021
 002888 05EF                        3905        BALR  RETRG,XRVAR           BR TO INSERT RTN IN TAMER            29520021
                                    3906 *                                       AND SET POINTER TO SOME OF      29528021
 00288A 4A30 C3BA      0794A        3907        AH    XR3,XC004                  ELEMENT OF THIS ENTRY.          29536021
 00288E 4030 D522      085EA        3908        STH   XR3,XSNPT                  X  POINTER TO OLD IDK           29544021
 002892 4A30 C3BA      0794A        3909        AH    XR3,XC004                  X                               29552021
 002896 4030 D524      085EC        3910        STH   XR3,XSOPT                  X                               29560021
 00289A 47F0 926C      0291A        3911        BC    UNCON,XSCOMP          UPDATE IDK FIELD OF SSCRIPT DNM      29568021
                                    3912 *                                                                       29576021
                                    3913 *                                                                       29584021
 00289E 947F D482      0854A        3914 XGET00   NI    XOPMOD,XX7F               RESET SWITCH-ALLSUBS ARE LI    29592021
 0028A2 9200 D528      085F0        3915          MVI   XSUTMP,XX00               PICK -UP I,D,K OF DATA-NAME    29600021
 0028A6 1B33                        3916        SR    XR3,XR3                                                    29608021
 0028A8 4336 0001      00001        3917          IC    XR3,DX1(XR6)                                             29616021
 0028AC 0630                        3918        BCTR  XR3,XR0               SUBTRACT 1 FROM REG3                 29624021
 0028AE 1A36                        3919 XGET11 AR    XR3,XR6                                                    29632021
 0028B0 D202 D529 3000 085F1 00000  3920          MVC   XSUTMP+NX1(LX3),DX0(XR3)  MOVE DICT PTR                  29640021
 0028B6 5830 D528      085F0        3921        L     XR3,XSUTMP                 X                               29648021
 0028BA 47F0 907A      02728        3922        BC    UNCON,XGET02          GET NXT SSCRIPT                      29656021
                                    3923 * INDEX-NAME                                                            29664021
 0028BE 950A 6001      00001        3924 IX000    CLI   DX1(XR6),XGINFP     IS IT INDEX + OR - A LITERAL...      29672021
 0028C2 4770 91F0      0289E        3925        BNE   XGET00               NO, PICK UP DICT PTR                  29680021
 0028C6 947F D482      0854A        3926          NI    XOPMOD,XX7F         ALL SS OR INDX ARE NOT LITERALS      29688021
 0028CA 9201 D491      08559        3927          MVI   INDXSW,XX01                                              29696021
 0028CE 4836 000A      0000A        3928          LH    XR3,DX10(XR6)                                            29704021
 0028D2 1842                        3929        LR    XR4,XR2              SET XR4 AS INDEX INTO LENGTH TBL      29712021
 0028D4 8840 0001      00001        3930          SRL   XR4,DX1             AND LITERAL TBL                      29720021
 0028D8 4034 D4FA      085C2        3931        STH   XR3,IXLIT1(XR4)                                            29728021
 0028DC D703 D534 D534 085FC 085FC  3932          XC    XSUTMP+NX12(LX4),XSUTMP+NX12  CLEAR WORK AREA      44300 29736021
 0028E2 D201 D536 6005 085FE 00005  3933          MVC   XSUTMP+NX14(LX2),DX5(XR6)   PICK UP LENGTH OR VLC  44300 29744021
 0028E8 5850 D534      085FC        3934          L     XR5,XSUTMP+NX12                                    44300 29752021
 0028EC 4130 0007      00007        3935          LA    XR3,DX7                                            44300 29760021
 0028F0 9180 6002      00002        3936          TM    DX2(XR6),XX80       VARIABLE LENGTH SUBJECT        44300 29768021
 0028F4 4710 9252      02900        3937          BO    IX001               YES                            44300 29776021
 0028F8 5052 D4E8      085B0        3938          ST    XR5,XSL1(XR2)       NO, SET LENGTH                 44300 29784021
 0028FC 47F0 9200      028AE        3939          B     XGET11              GET DICT PTR                   44300 29792021
 002900                             3940 IX001    DS    0H                                                 44300 29800021
 002900 4054 D4F4      085BC        3941          STH   XR5,XSVLC1(XR4)     SET VLC                        44300 29808021
 002904 47F0 9200      028AE        3942          B     XGET11              GET DICT PTR                   44300 29816021
0
                                    3944 *                                                                       29832021
                                    3945 *      LOGIC ERROR NUMBER 2.                                            29840021
                                    3946 *                                                                       29848021
 002908 45E0 7AC0      00AC0        3947 XGETLG BAL   XRSUB,ERRPRO          WRITE ERROR TXT                      29856021
 00290C 02                          3948        DC    AL1(ERRN02)                                                29864021
 00290D 08                          3949        DC    AL1(8)                                                     29872021
 00290E                             3950        DS    0H                                                         29880021
 00290E F8F0 D528 6004 085F0 00004  3951 XGTMV    ZAP   XSUTMP(LX16),XGLITV(LX0,XR6)                             29888021
1         SUBSCRIPT VERB ANALYZER                                                                               PAGE   96
-  LOC  OBJECT CODE    ADDR1 ADDR2  STMT   SOURCE STATEMENT                                       ASM 0201 11.03 02/14/15
0                                   3952 *                                                                       29896021
 002914                             3953        DS    0H                                                         29904021
 002914 D500 5008 D508 00008 085D0  3954 XSNCLC   CLC   DX8(LX0,XR5),XSSUBN+NX8    COMPARE                       29912021
-
-
-

-
-
-

                                    3957 *      XSCOMP   - GENERATES INSTRUCTIONS DUE TO SUBSCRIPTING OF A       29936021
                                    3958 *               - DATA-NAME,AND UPDATE I,D,K FIELD OF THE SUBSCRIPT     29944021
                                    3959 *               - DATA-NAME.                                            29952021
-
0
                             0291A  3961 XSCOMP EQU   *                                                          29968021
 00291A 9180 D482      0854A        3962        TM    XOPMOD,XALLSN              ARE ALL SUBSCRIPT LITERAL.      29976021
 00291E 4780 9302      029B0        3963        BC    XZERO,XSC001               NO,-                            29984021
 002922 4860 D502      085CA        3964          LH    XR6,XSSUBN+NX2            YES- PICK-UP SUBS.COUNT.       29992021
 002926 0660                        3965        BCTR  XR6,RW0               SUBTRACT 1 FROM REG6                 30000021
 002928 8960 0002      00002        3966          SLL   XR6,DX2                                            44300 30008021
                                    3967 *DEL                                                               4430 30016021
                                    3968 *DEL                                                               4430 30024021
 00292C 1B11                        3969        SR    XR1,XR1                                                    30032021
                                    3970 *             ALL SUBSCRIPT ARE NUMERIC AND LENGHTS ARE CONSTANT.       30040021
 00292E 5836 D50C      085D4        3971 XSC002 L     XR3,XSSKK(XR6)             COMPUTE                         30048021
 002932 4133 0000      00000        3972          LA    XR3,DX0(XR3)       (K*L1)+(J*L2)+(I*L3)-(L1+L2+L3) 44300 30056021
 002936 5C26 D4E8      085B0        3973          M     XR2,XSL1(XR6)                                      44300 30064021
 00293A 1A13                        3974        AR    XR1,XR3                    X                               30072021
                                    3975 *DEL                                                               4430 30080021
 00293C 4B60 C3BA      0794A        3976        SH    XR6,XC004                  X                               30088021
 002940 47A0 9280      0292E        3977        BC   XGTEQ,XSC002                X                               30096021
 002944 5830 D4E8      085B0        3978          L     XR3,XSL1                                           44300 30104021
 002948 5A30 D4EC      085B4        3979          A     XR3,XSL2                                           44300 30112021
 00294C 5A30 D4F0      085B8        3980          A     XR3,XSL3                                           44300 30120021
 002950 1B13                        3981        SR    XR1,XR3                    X                               30128021
 002952 47B0 92AA      02958        3982          BNM   XSC004         SUBSCRIPT NOT INVALID               51877 30136021
 002956 1B11                        3983          SR    XR1,XR1        SUBSCRIPT INVALID - USE 1ST OCCUR   51877 30144021
 002958                             3984 XSC004   DS    0H                                                 51877 30152021
1         SUBSCRIPT VERB ANALYZER                                                                               PAGE   97
-  LOC  OBJECT CODE    ADDR1 ADDR2  STMT   SOURCE STATEMENT                                       ASM 0201 11.03 02/14/15
0002958 1B33                        3985        SR    XR3,XR3                    X                               30160021
 00295A 9200 D528      085F0        3986          MVI   XSUTMP,XX00                                              30168021
 00295E D202 D529 D6C0 085F1 08788  3987          MVC   XSUTMP+NX1(LX3),DOP1+NX4  MOVE I,D,K FROM INPUT STRING   30176021
 002964 5820 D528      085F0        3988        L     XR2,XSUTMP                                                 30184021
 002968 8C20 0008      00008        3989          SRDL  XR2,DX8                                                  30192021
 00296C 8920 0014      00014        3990          SLL   XR2,DX20                                                 30200021
 002970 8820 0014      00014        3991          SRL   XR2,DX20                  XR2 HAS  D FIELD               30208021
 002974 8830 0018      00018        3992          SRL   XR3,DX24                  XR3 HAS BASE LOCATOR NUMBER    30216021
 002978 1A21                        3993        AR    XR2,XR1                    ADD DISPLACT. DUE TO SUBSCR     30224021
                             0297A  3994 XSC00P EQU   *                                                          30232021
 00297A 4920 C888      07E18        3995        CH    XR2,XC4095                 -IS IT TOO LARGE                30240021
 00297E 4720 92F6      029A4        3996        BC    XTWO,XSC003                YES                             30248021
0
 002982 8920 0008      00008        3998          SLL   XR2,DX8             NO, SET NEW DISP IN NEW              30264021
 002986 1623                        3999        OR    XR2,XR3                    I,D,K FIELD.                    30272021
 002988 5840 D528      085F0        4000        L     XR4,XSUTMP                                                 30280021
 00298C 5440 C8AC      07E3C        4001        N     XR4,XSUMK3                 X                               30288021
 002990 1624                        4002        OR    XR2,XR4                    X                               30296021
 002992 5020 D504      085CC        4003        ST    XR2,XSNIDK                 X                               30304021
 002996 47F0 9514      02BC2        4004        B     XSC014                MOVE NEW ENTRY TO TAMER TBL          30312021
 00299A 5890 D314      083DC        4005 XINEXT L     XRVERB,SCHOLD        RESTORE BASE OF SEARCHAL RTNE         30320021
 00299E 58E0 D318      083E0        4006        L     RETRG,SCHLD2                                               30328021
 0029A2 07FE                        4007        BR    RETRG                RETURN TO SEARCHAL                    30336021
0
                             02862  4009 XSCOEX EQU   XGETXT                                                     30352021
                                    4010 *                                                                       30360021
0
 0029A4 4133 0001      00001        4012 XSC003   LA    XR3,DX1(XR3)              DISPL.WAS TOO LARGE- TAKE N    30376021
 0029A8 4B20 C3B6      07946        4013        SH    XR2,XC4096                 BASE  LOCATOR.                  30384021
 0029AC 47F0 92CC      0297A        4014        BC    UNCON,XSC00P          CHK DISP,IF TOO LARGE,REPEAT         30392021
0
                                    4016 *              GENERATE CODES FOR A NON ALL LITERAL SUBSCRIPT COMBI     30408021
 0029B0 9501 D490      08558        4017 XSC001   CLI   SCHSW,XX01                                               30416021
 0029B4 4770 9312      029C0        4018        BNE   SCH0A1                IF NOT FROM SRCHALL,GET REGNO        30424021
 0029B8 4110 C850      07DE0        4019        LA    XR1,XC000            DUMMY REG TBL ENTRY FOR R0            30432021
 0029BC 47F0 932E      029DC        4020        B     SCHAA1               REG=R0                                30440021
 0029C0 45E0 8060      00E90        4021 SCH0A1 BAL   XRSUB,XRSUAS         ASK A REGISTER                        30448021
 0029C4 5810 D464      0852C        4022        L     XR1,XLIRP                  REG.NUMBER WILL BE IN 3(XR1     30456021
 0029C8 D201 1000 D522 00000 085EA  4023          MVC   DX0(LX2,XR1),XSNPT                                       30464021
 0029CE 9624 1002      00002        4024          OI    DX2(XR1),XRFSUB                                          30472021
 0029D2 9640 1002      00002        4025          OI    DX2(XR1),XSUBAC                                          30480021
 0029D6 D200 D188 1003 08250 00003  4026          MVC   XREG1(LX1),DX3(XR1)                                      30488021
                             029DC  4027 SCHAA1 EQU   *                                                          30496021
 0029DC 5010 D53C      08604        4028          ST    XR1,SAVER1                                         44300 30504021
 0029E0 D203 D138 C8C8 08200 07E58  4029          MVC   XOP1(LX4),XAOPE1          GENERATE    LA  REG,DATA-NA    30512021
 0029E6 45E0 BBDE      0226E        4030        BAL   XRSUB,LA                   X                               30520021
 0029EA 9536 D738      08800        4031        CLI   DOP2,INDXNM          IS IT AN INDEX-NAME...                30528021
 0029EE 4780 952E      02BDC        4032        BE    XSCI00               YES                                   30536021
 0029F2 5800 D4E8      085B0        4033          L     XR0,XSL1           NO, COMPUTE L1+L2+L3            44300 30544021
 0029F6 5A00 D4EC      085B4        4034          A     XR0,XSL2                                           44300 30552021
 0029FA 5A00 D4F0      085B8        4035          A     XR0,XSL3                                           44300 30560021
1         SUBSCRIPT VERB ANALYZER                                                                               PAGE   98
-  LOC  OBJECT CODE    ADDR1 ADDR2  STMT   SOURCE STATEMENT                                       ASM 0201 11.03 02/14/15
00029FE 5000 D538      08600        4036          ST    XR0,SAVER0                                         44300 30568021
0
 002A02 45E0 8060      00E90        4038          BAL   XRSUB,XRSUAS          ASK REGA. REG NO IN XREGNO         30584021
 002A06 4820 D502      085CA        4039          LH    XR2,XSSUBN+NX2      XR2 HAS NUMB OF SUBSCRIPTS           30592021
 002A0A 0620                        4040        BCTR  XR2,RW0               SUBTRACT 1 FROM REG2                 30600021
 002A0C 8920 0002      00002        4041          SLL   XR2,DX2                   INITIALIZE LOOP FOR CODES G    30608021
 002A10 5852 C8CC      07E5C        4042        L     XR5,XAOPE2(XR2)            RATION.                         30616021
 002A14 4130 D50C      085D4        4043        LA    XR3,XSSKK                                                  30624021
 002A18 4140 D4E8      085B0        4044        LA    XR4,XSL1                                                   30632021
 002A1C 4160 D4F4      085BC        4045          LA    XR6,XSVLC1                                         44300 30640021
 002A20 9180 3000      00000        4046 XSC009   TM    DX0(XR3),XX80             IS IT A LITERAL SUBS           30648021
 002A24 4780 93F0      02A9E        4047        BC    XZERO,XSC006               NO-                             30656021
 002A28 D501 6000 C850 00000 07DE0  4048          CLC   DX0(LX2,XR6),XC000       YES, IS IT FIXED LENGTH   44300 30664021
 002A2E 4770 939E      02A4C        4049        BC    XNOEQ,XSC007               NO-                             30672021
 002A32 5813 0000      00000        4050          L     XR1,DX0(XR3)        YES, COMPUTE AT COMPILE TIME   44300 30680021
 002A36 4111 0000      00000        4051          LA    XR1,DX0(XR1)                                       44300 30688021
 002A3A 5C04 0000      00000        4052          M     XR0,DX0(XR4)                SS*L                   44300 30696021
 002A3E 5800 D538      08600        4053          L     XR0,SAVER0                                         44300 30704021
 002A42 1B01                        4054          SR    XR0,XR1                  SUBTRACT FROM L1+L2+L3    44300 30712021
 002A44 5000 D538      08600        4055          ST    XR0,SAVER0                                         44300 30720021
 002A48 47F0 94B0      02B5E        4056          B     XSC008                   SKIP TO NEXT SS           44300 30728021
0
 002A4C D202 D16D 3001 08235 00001  4058 XSC007   MVC   XCON1+NX13(LX3),DX1(XR3)   GENERATE  LITERAL SUBS * VL   30744021
 002A52 9204 D170      08238        4059          MVI   XCON1+NX16,XX04           X                              30752021
 002A56 D200 D188 D48A 08250 08552  4060          MVC   XREG1(LX1),XREGNO   L   REGA,LITERAL                     30760021
 002A5C 45E0 B000      01690        4061        BAL   XRSUB,L                    X    MH   REGA,VLC              30768021
 002A60 D200 D188 D48A 08250 08552  4062 XSCSVT   MVC   XREG1(LX1),XREGNO                                        30776021
                                    4063 *DEL                                                               4430 30784021
 002A66 45E0 BC96      02326        4064        BAL   XRSUB,BRNCNT          GEN ATXT FOR BCTR INSTRUC            30792021
 002A6A 9204 D178      08240        4065 XSC016   MVI   XCNTR1,XX04         SET CODE FOR VLC REFERENCE           30800021
 002A6E D201 D179 6000 08241 00000  4066          MVC   XCNTR1+NX1(LX2),DX0(XR6)                           44300 30808021
 002A74 D200 D188 D48A 08250 08552  4067 XSC011   MVC   XREG1(LX1),XREGNO         X                              30816021
 002A7A 45E0 BABA      0214A        4068        BAL   XRSUB,MH                   X                               30824021
 002A7E 5810 D53C      08604        4069          L     XR1,SAVER1                                         44300 30832021
 002A82 D200 D188 1003 08250 00003  4070          MVC   XREG1(LX1),DX3(XR1)        ADD IT TO ADDRESS OF DATA-N   30840021
 002A88 D200 D1D0 D48A 08298 08552  4071          MVC   XREG2(LX1),XREGNO                                        30848021
 002A8E 45E0 BA9A      0212A        4072        BAL   XRSUB,AR                            AR  REG,REGA.          30856021
 002A92 9501 D491      08559        4073          CLI   INDXSW,XX01         IS IT AN INDEX COMPUTATION...        30864021
 002A96 4780 95C8      02C76        4074        BE    XSCI03               YES                                   30872021
 002A9A 47F0 94B0      02B5E        4075        BC    UNCON,XSC008          GET DISP FOR NXT SSCRIPT,IF LEFT     30880021
0
                                    4077 * NON LITERAL SUBSCRIPT                                                 30896021
 002A9E 45E0 7828      00828        4078 XSC006   BAL   XRSUB,XZX3X5        IF SUBSCRIPT IS ED OR ID             30904021
 002AA2 45E0 802C      00E5C        4079        BAL   XRSUB,XLENGH               CONVERT IT  TO                  30912021
 002AA6 45E0 7828      00828        4080          BAL   XRSUB,XZX3X5             BINARY FIRST                    30920021
 002AAA 5050 D138      08200        4081        ST    XR5,XOP1                   X                               30928021
 002AAE 9508 D410      084D8        4082        CLI   XGTEM2,XGEXDC              X                               30936021
 002AB2 4780 9410      02ABE        4083        BC    XZERO,XSCZAP               X                               30944021
 002AB6 950C D410      084D8        4084        CLI   XGTEM2,XGINDC              X                               30952021
 002ABA 4770 9482      02B30        4085        BC    XNOEQ,XSCSUT               X                               30960021
 002ABE 9208 D469      08531        4086 XSCZAP   MVI   XELEN+NX1,XX08            X                              30968021
 002AC2 45E0 7848      00848        4087        BAL   XRSUB,XTAMPO               X                               30976021
1         SUBSCRIPT VERB ANALYZER                                                                               PAGE   99
-  LOC  OBJECT CODE    ADDR1 ADDR2  STMT   SOURCE STATEMENT                                       ASM 0201 11.03 02/14/15
0002AC6 D201 D14A D446 08212 0850E  4088          MVC   XWC1(LX2),XEREL1          X                              30984021
 002ACC 9208 D149      08211        4089          MVI   XL1+NX1,XX08              X                              30992021
 002AD0 D201 D190 D45A 08258 08522  4090          MVC   XL2(LX2),XOPLGH+NX2        X                             31000021
 002AD6 4800 D190      08258        4091          LH    XR0,XL2                                            44300 31008021
 002ADA 9508 D410      084D8        4092        CLI   XGTEM2,XGEXDC              X                               31016021
 002ADE 4780 946A      02B18        4093        BC    XZERO,XSCEXD               X                               31024021
 002AE2 4B00 C3BA      0794A        4094          SH    XR0,XC004                                          44300 31032021
 002AE6 47D0 9444      02AF2        4095        BC    XNOGT,XSCSAT          IF LEN NOT GT 4,SKIP NXT 2 INST      31040021
 002AEA 4200 D1C5      0828D        4096          STC   XR0,XPLUS2+NX2                                     44300 31048021
 002AEE 9204 D191      08259        4097          MVI   XL2+NX1,XX04                                             31056021
                             02AF2  4098 XSCSAT EQU   *                                                          31064021
 002AF2 45E0 B000      01690        4099        BAL   XRSUB,ZAP                  X                               31072021
                             02AF6  4100 XSCCVB EQU   *                                                          31080021
 002AF6 D200 D188 D48A 08250 08552  4101          MVC   XREG1(LX1),XREGNO                                        31088021
 002AFC D201 D14A D446 08212 0850E  4102          MVC   XWC1(LX2),XEREL1          X                              31096021
 002B02 45E0 BAE2      02172        4103        BAL   XRSUB,CVB                  X                               31104021
 002B06 45E0 790E      0090E        4104        BAL   XRSUB,XERELS               X                               31112021
 002B0A D501 6000 C850 00000 07DE0  4105          CLC   DX0(LX2,XR6),XC000       FIXED LENGTH              44300 31120021
 002B10 4770 93B2      02A60        4106        BC    XNOEQ,XSCSVT               X                               31128021
 002B14 47F0 94A2      02B50        4107        BC    UNCON,XSCSWT               X                               31136021
 002B18                             4108 XSCEXD   DS    0H                                                 44300 31144021
 002B18 4B00 C864      07DF4        4109          SH    XR0,XC006                                          44300 31152021
 002B1C 47D0 947A      02B28        4110        BC    XNOGT,XSCEXP          IF NOT GT 6,SKIP NXT 2 INSTRUC       31160021
 002B20 4200 D1C5      0828D        4111          STC   XR0,XPLUS2+NX2                                     44300 31168021
 002B24 9206 D191      08259        4112          MVI   XL2+NX1,XX06                                             31176021
 002B28 45E0 BACA      0215A        4113 XSCEXP BAL   XRSUB,PACK            GEN ATXT FOR PACK INSTRUC            31184021
 002B2C 47F0 9448      02AF6        4114        BC    UNCON,XSCCVB               X                               31192021
 002B30 9504 D453      0851B        4115 XSCSUT   CLI   XBDBY+NX1,XX04                                           31200021
 002B34 47D0 948E      02B3C        4116        BC    XNOGT,XSCSBT          GEN ATXT FOR L AND MH INSTRUCS       31208021
 002B38 9204 D17D      08245        4117          MVI   XPLUS1+NX2,XX04          L  REGA,DNSUBS                  31216021
                             02B3C  4118 XSCSBT EQU   *               OR  L      REGA,DNSUBS+4                   31224021
 002B3C D200 D188 D48A 08250 08552  4119          MVC   XREG1(LX1),XREGNO                MH  REGA,L              31232021
 002B42 45E0 B000      01690        4120        BAL   XRSUB,L                       OR  MH  REGA,VLC             31240021
 002B46 D501 6000 C850 00000 07DE0  4121          CLC   DX0(LX2,XR6),XC000       FIXED LENGTH              44300 31248021
 002B4C 4770 93B2      02A60        4122        BC    XNOEQ,XSCSVT          GEN ATXT FOR COMPUT OF SSCRIPT       31256021
 002B50                             4123 XSCSWT   DS    0H                                                 44300 31264021
 002B50 D203 D16C 4000 08234 00000  4124          MVC   XCON1+NX12(LX4),DX0(XR4)                           44300 31272021
 002B56 9202 D170      08238        4125          MVI   XCON1+NX16,XX02           AND    AR REG,REGA             31280021
 002B5A 47F0 93C6      02A74        4126        BC    UNCON,XSC011          GEN ATXT FOR MH AND AR INSTRUCS      31288021
0
 002B5E 4133 0004      00004        4128 XSC008   LA    XR3,DX4(XR3)              GET DISPLACT. DUE TO NEXT      31304021
 002B62 D503 3000 C850 00000 07DE0  4129          CLC   DX0(LX4,XR3),XC000              SUBSCRIPT  IF ANY LEFT   31312021
 002B68 4780 94D2      02B80        4130        BC    XZERO,XSC012               X                               31320021
 002B6C 4144 0004      00004        4131          LA    XR4,DX4(XR4)                                       44300 31328021
 002B70 4166 0002      00002        4132          LA    XR6,DX2(XR6)                                       44300 31336021
 002B74 4B20 C3BA      0794A        4133        SH    XR2,XC004                  X                               31344021
 002B78 5852 C8CC      07E5C        4134        L     XR5,XAOPE2(XR2)            X                               31352021
 002B7C 47F0 9372      02A20        4135        BC    UNCON,XSC009               X                               31360021
0
 002B80                             4137 XSC012   DS    0H                                                 44300 31376021
 002B80 5800 D538      08600        4138          L     XR0,SAVER0                                         44300 31384021
 002B84 5810 D53C      08604        4139          L     XR1,SAVER1                                         44300 31392021
 002B88 1200                        4140          LTR   XR0,XR0                                            44300 31400021
1         SUBSCRIPT VERB ANALYZER                                                                               PAGE  100
-  LOC  OBJECT CODE    ADDR1 ADDR2  STMT   SOURCE STATEMENT                                       ASM 0201 11.03 02/14/15
0002B8A 4780 94F2      02BA0        4141        BC    XZERO,XSC015          UPDATE FLAG IN REG CNTRL TBL         31408021
 002B8E 5000 D16C      08234        4142          ST    XR0,XCON1+NX12                                           31416021
 002B92 9204 D170      08238        4143          MVI   XCON1+NX16,XX04                       S  REG,CONSTANT    31424021
 002B96 D200 D188 1003 08250 00003  4144          MVC   XREG1(LX1),DX3(XR1)                                      31432021
 002B9C 45E0 B038      016C8        4145        BAL   XRSUB,SUB             GEN ATXT FOR SUBTRACT INSTRUC        31440021
                             02BA0  4146 XSC015 EQU   *                                                          31448021
                                    4147 *         UPDATE  FLAG IN REGISTER CONTROL TABLE                        31456021
 002BA0 9200 D504      085CC        4148          MVI   XSNIDK,XX00                                              31464021
 002BA4 D602 D505 D6C0 085CD 08788  4149          OC    XSNIDK+NX1(LX3),DOP1+NX4  MOVE I,D,K FROM INPUT STRING   31472021
 002BAA D403 D504 C8B0 085CC 07E40  4150        NC    XSNIDK,XSUMK4              X                               31480021
 002BB0 5810 D53C      08604        4151          L     XR1,SAVER1                                         44300 31488021
 002BB4 D600 D506 1003 085CE 00003  4152          OC    XSNIDK+NX2(LX1),DX3(XR1)   X                             31496021
 002BBA 9630 D505      085CD        4153          OI    XSNIDK+NX1,XRRRFL         X                              31504021
 002BBE 9740 1002      00002        4154          XI    DX2(XR1),XSUBAC                                          31512021
                             02BC2  4155 XSC014 EQU   *                                                          31520021
 002BC2 5810 C904      07E94        4156        L     XR1,XASCRP                 MOVE NEW ENTRY IN TAMER TAB     31528021
 002BC6 45E0 7E1C      00E1C        4157        BAL   XRSUB,XTBDEB               X                               31536021
 002BCA 1A23                        4158        AR    XR2,XR3                                                    31544021
 002BCC 4850 D500      085C8        4159        LH    XR5,XSSUBN                 X                               31552021
 002BD0 1B25                        4160        SR    XR2,XR5                                                    31560021
 002BD2 0650                        4161        BCTR  XR5,RW0                      X                             31568021
 002BD4 4450 9602      02CB0        4162        EX    XR5,XTAMOV                 X                               31576021
 002BD8 47F0 91B4      02862        4163        BC    UNCON,XSCOEX               EXIT.                           31584021
                                    4164 * INDEX-NAME COMPUTATION                                                31592021
                                    4165 * ADDRESS OF DATA-NAME PLUS INDEX1 + INDEX2 + INDEX3 PLUS               31600021
                                    4166 *                  (LIT1*L1) + (LIT2*L2) + (LIT3*L3)                    31608021
 002BDC 4160 D738      08800        4167 XSCI00 LA    XR6,DOP2                                                   31616021
 002BE0 4850 D502      085CA        4168          LH    XR5,XSSUBN+NX2      PICK UP COUNT OF INDEX-NAMES         31624021
 002BE4 9501 D490      08558        4169          CLI   SCHSW,XX01          ENTERED FROM SEARCHAL...             31632021
 002BE8 4770 9540      02BEE        4170        BNE   XSCI01               NO                                    31640021
 002BEC 0650                        4171        BCTR  XR5,XR0              YES, DONT USE LAST INDEX              31648021
 002BEE D200 D188 1003 08250 00003  4172 XSCI01   MVC   XREG1(LX1),DX3(XR1)  GEN... ADD REGA,INDEX-NAME          31656021
 002BF4 5060 D138      08200        4173        ST    XR6,OP1                                                    31664021
 002BF8 45E0 BA9A      0212A        4174        BAL   XRSUB,ADD             GEN ATXT FOR ADD INSTRUC             31672021
 002BFC 4166 007C      0007C        4175        LA    XR6,OPSIZ(XR6)                                             31680021
 002C00 4650 9540      02BEE        4176        BCT   XR5,XSCI01            GEN ATXT FOR A TO NXT INDX           31688021
 002C04 D505 D4FA C850 085C2 07DE0  4177          CLC   IXLIT1(LX6),XC000   ANY LITERALS TO BE ADDED...          31696021
 002C0A 4770 956C      02C1A        4178        BNE   XSCI04               YES, GENERATE CODE                    31704021
 002C0E 9501 D490      08558        4179          CLI   SCHSW,XX01          ENTERED FROM SEARCH ALL...           31712021
 002C12 4780 92EC      0299A        4180        BE    XINEXT               YES, RETURN TO IT                     31720021
 002C16 47F0 94F2      02BA0        4181        B     XSC015               MAKE TABLE ENTRY                      31728021
                             02C1A  4182 XSCI04 EQU   *                                                          31736021
 002C1A 45E0 8060      00E90        4183        BAL   XRSUB,XRSUAS         ASK REGA (NUMB IN XREGNO)             31744021
 002C1E 4850 D502      085CA        4184          LH    XR5,XSSUBN+NX2      SET XR5 AS INDEX TO LENGTH AND       31752021
 002C22 0650                        4185        BCTR XR5,XR0               LITERAL TABLES                        31760021
 002C24 8950 0002      00002        4186          SLL   XR5,DX2                                            44300 31768021
 002C28 4140 D4E8      085B0        4187        LA    XR4,XSL1                                                   31776021
 002C2C 1A45                        4188        AR    XR4,XR5                                                    31784021
 002C2E 1B22                        4189        SR    XR2,XR2                                                    31792021
 002C30 4130 D4FA      085C2        4190        LA    XR3,IXLIT1                                                 31800021
 002C34 8850 0001      00001        4191          SRL   XR5,DX1                                            44300 31808021
 002C38 1A35                        4192        AR    XR3,XR5                                                    31816021
 002C3A 4160 D4F4      085BC        4193          LA    XR6,XSVLC1                                         44300 31824021
 002C3E 1A65                        4194          AR    XR6,XR5                                            44300 31832021
 002C40 D501 3000 C850 00000 07DE0  4195 XSCI02   CLC   DX0(LX2,XR3),XC000   LITERAL TO BE ADDED AT THIS LEVEL   31840021
1         SUBSCRIPT VERB ANALYZER                                                                               PAGE  101
-  LOC  OBJECT CODE    ADDR1 ADDR2  STMT   SOURCE STATEMENT                                       ASM 0201 11.03 02/14/15
0002C46 4780 95C8      02C76        4196        BE    XSCI03               NO                                    31848021
 002C4A D501 6000 C850 00000 07DE0  4197          CLC   DX0(LX2,XR6),XC000  YES, IS IT FIXED LENGTH        44300 31856021
 002C50 4780 95BE      02C6C        4198        BE    XSCI05               YES, ADD IT LATER                     31864021
 002C54 D200 D188 D48A 08250 08552  4199          MVC   XREG1(LX1),XREGNO         GEN  LH REGA,LITERAL           31872021
 002C5A D201 D16E 3000 08236 00000  4200          MVC   XCON1+NX14(LX2),DX0(XR3)     MH REGA,VLC                 31880021
 002C60 9202 D170      08238        4201          MVI   XCON1+NX16,XX02                AR REG,REGA               31888021
 002C64 45E0 B000      01690        4202        BAL   XRSUB,LH              GEN ATXT FOR LH INSTRUC              31896021
 002C68 47F0 93BC      02A6A        4203        B     XSC016               GENERATE INSTRUCTIONS                 31904021
 002C6C                             4204 XSCI05   DS    0H                                                 44300 31912021
 002C6C 4813 0000      00000        4205          LH    XR1,DX0(XR3)        COMPUTE LITERAL*LENGTH         44300 31920021
 002C70 5C04 0000      00000        4206          M     XR0,DX0(XR4)                                       44300 31928021
 002C74 1A21                        4207          AR    XR2,XR1             ADD TO PREVIOUS CALCULATION    44300 31936021
 002C76                             4208 XSCI03   DS    0H                                                 44300 31944021
 002C76 4B40 C3BA      0794A        4209          SH    XR4,XC004                                          44300 31952021
 002C7A 4B60 C3B2      07942        4210          SH    XR6,XC002                                          44300 31960021
 002C7E 4B30 C3B2      07942        4211        SH    XR3,XC002                                                  31968021
 002C82 4B50 C3B2      07942        4212        SH    XR5,XC002            ANY MORE LITERALS TO BE ADDED...      31976021
 002C86 47A0 9592      02C40        4213        BC    XGTEQ,XSCI02         YES                                   31984021
 002C8A 4920 C850      07DE0        4214        CH    XR2,XC000            ANY LIT * LNGTH TO BE ADDED...        31992021
 002C8E 4780 95FA      02CA8        4215        BE    XSCI06               NO                                    32000021
 002C92 5020 D16C      08234        4216          ST    XR2,XCON1+NX12                                           32008021
 002C96 9204 D170      08238        4217          MVI   XCON1+NX16,XX04     (LITERAL = SUM OF ALL LITERAL *      32016021
 002C9A 5810 D53C      08604        4218          L     XR1,SAVER1                                         44300 32024021
 002C9E D200 D188 1003 08250 00003  4219          MVC   XREG1(LX1),DX3(XR1)    LENGTH CALCULATIONS)              32032021
 002CA4 45E0 BA9A      0212A        4220        BAL   XRSUB,ADD            * ADD REG,LITERAL                     32040021
                             02CA8  4221 XSCI06 EQU   *                                                          32048021
 002CA8 9200 D491      08559        4222          MVI   INDXSW,XX00                                              32056021
 002CAC 47F0 94F2      02BA0        4223        B     XSC015                UPDATE FLAG IN REG CNTRL TBL         32064021
 002CB0                             4224        DS    0H                                                         32072021
 002CB0 D200 2000 D500 00000 085C8  4225 XTAMOV   MVC   DX0(LX0,XR2),XSSUBN        MOVE ENTRY IN TAMER.          32080021
1         MULTIPLY VERB ANALYZER  M  U  L  T  I  P  L  Y                                                        PAGE  102
-  LOC  OBJECT CODE    ADDR1 ADDR2  STMT   SOURCE STATEMENT                                       ASM 0201 11.03 02/14/15
0                                   4227 *      XOTMUL  -  MULTIPLY ANALYZER.                                    32096021
                                    4228 *                                                                       32104021
                                    4229 *                                                                       32112021
-
0
                             02CB6  4231        USING *,XRVERB                                                   32128021
 002CB6 45E0 79B4      009B4        4232 XOTMUL BAL   XRSUB,XOTSEL          GET OPERAND INFO INTO BUFFERS        32136021
 002CBA 9102 D482      0854A        4233 XOTM00 TM    XOPMOD,XFLOAT              IS IT FLOATING MODE.            32144021
 002CBE 4710 90E4      02D9A        4234        BC    XTHRE,XOTM01               YES.                            32152021
                                    4235 *                                                                       32160021
 002CC2 9608 D482      0854A        4236        OI    XOPMOD,XMULFL      BINARY-MODE.                            32168021
 002CC6 45E0 9124      02DDA        4237        BAL   XRSUB,XCTMUL          COMPILE TIME MULTIPLICATION          32176021
 002CCA 45E0 8576      013A6        4238        BAL   XRSUB,XHSMD1          SET MODE ROUTINE                     32184021
 002CCE 9120 D481      08549        4239        TM    XGSWT,XIDMOD               IS IT ID.                       32192021
 002CD2 4710 9040      02CF6        4240        BC    XTHRE,XOTM02               YES                             32200021
 002CD6 45E0 7B0E      00B0E        4241        BAL   XRSUB,XBISCL               CONVERT,AND SCALE (SCALING      32208021
                                    4242 *                                       FOR P PICTURE  999PP .).        32216021
 002CDA 45E0 8290      010C0        4243        BAL   XRSUB,XZBMP                GENERATE  INSTRUCTIONS FOR      32224021
                                    4244 *                                                  MULTIPLY.            32232021
 002CDE 942F D575      0863D        4245          NI    XFIRX+NX1,XX2F                                           32240021
 002CE2 9110 D48D      08555        4246 XOTM08 TM    XGNSW,XDIVON                                               32248021
 002CE6 4780 7B5E      00B5E        4247        BC    XZERO,XOTM09          NOT A NEG EXPONENT                   32256021
 002CEA 9708 D482      0854A        4248        XI    XOPMOD,XMULFL                                              32264021
 002CEE 9710 D48D      08555        4249        XI    XGNSW,XDIVON                                               32272021
 002CF2 47F0 9378      0302E        4250        BC    UNCON,XOTE40          GO TO EXPONENT VERB ANALYZER         32280021
                             00B5E  4251 XOTM09 EQU   XFINAL                                                     32288021
                                    4252 *                                                                       32296021
0
                                    4254 *                               ID-MODE.                                32312021
 002CF6 45E0 7DE0      00DE0        4255 XOTM02 BAL   XRSUB,XW000           SCALE OPERANDS                       32320021
 002CFA 9102 D575      0863D        4256          TM    XFIRX+NX1,XGOVFL                                         32328021
 002CFE 4710 9054      02D0A        4257        BC    XTHRE,XOTM03               DP MULTIPLICATION.              32336021
                                    4258 *                                                                       32344021
 002D02 45E0 7DB4      00DB4        4259        BAL   XRSUB,XXMPL                GENERATE  MP OP1,OP2.           32352021
 002D06 47F0 902C      02CE2        4260        BC    UNCON,XOTM08          CHECK FOR NEG EXPONENT               32360021
0
                             02D0A  4262 XOTM03 EQU   *                          DP MULTIPLY CALL.               32376021
 002D0A 9260 D14F      08217        4263          MVI   BDISP1+NX1,WORKA                                         32384021
 002D0E 45E0 8582      013B2        4264        BAL   XRSUB,XDPZAP          GENERATE ZAP                         32392021
 002D12 45E0 7828      00828        4265        BAL   XRSUB,XZX3X5          SWITCH OPERANDS                      32400021
 002D16 9270 D14F      08217        4266          MVI   BDISP1+NX1,WORKB                                         32408021
 002D1A 45E0 8582      013B2        4267        BAL   XRSUB,XDPZAP          GENERATE ZAP                         32416021
 002D1E 45E0 8792      015C2        4268        BAL   XRSUB,VBADCE          CALL SUBROUTINE                      32424021
 002D22 E7D4E4F0                    4269        DC    C'XMU0'                                                    32432021
 002D26 4800 D578      08640        4270        LH    XR0,XFDDP                                                  32440021
                                    4271 *                                                                       32448021
 002D2A 4900 C850      07DE0        4272        CH    XR0,XC000                                                  32456021
 002D2E 4780 910C      02DC2        4273        BC    XZERO,XDP101          NO DECIMALS NEED BE DROPPED          32464021
 002D32 9101 D579      08641        4274          TM    XFDDP+NX1,XX01                                           32472021
 002D36 4780 9088      02D3E        4275        BC    XZERO,XDP100          NUMBER OF DECIMALS EVEN              32480021
1         MULTIPLY VERB ANALYZER  M  U  L  T  I  P  L  Y                                                        PAGE  103
-  LOC  OBJECT CODE    ADDR1 ADDR2  STMT   SOURCE STATEMENT                                       ASM 0201 11.03 02/14/15
0002D3A 4A00 C3AE      0793E        4276        AH    XR0,XC001                                                  32488021
 002D3E 8A00 0001      00001        4277 XDP100   SRA   XR0,DX1                                                  32496021
 002D42 9210 D17D      08245        4278          MVI   XPLUS1+NX2,XX10                                          32504021
 002D46 9210 D1C5      0828D        4279          MVI   XPLUS2+NX2,XX10                                          32512021
 002D4A 4110 0010      00010        4280          LA    XR1,DX16                                                 32520021
 002D4E 1B10                        4281        SR    XR1,XR0                                                    32528021
 002D50 4010 D190      08258        4282        STH   XR1,XL2                                                    32536021
 002D54 45E0 85A0      013D0        4283        BAL   XRSUB,XBDSET          SET A-TEXT                           32544021
 002D58 45E0 BAD2      02162        4284        BAL   XRSUB,MVO             GENERATE MVO                         32552021
 002D5C 4200 D17D      08245        4285          STC   XR0,XPLUS1+NX2                                           32560021
 002D60 45E0 85A0      013D0        4286        BAL   XRSUB,XBDSET          SET A-TEXT                           32568021
 002D64 9210 D191      08259        4287          MVI   XL2+NX1,XX10                                             32576021
 002D68 45E0 BAD2      02162        4288        BAL   XRSUB,MVO             GENERATE MVO                         32584021
 002D6C 9101 D579      08641        4289          TM    XFDDP+NX1,XX01                                           32592021
 002D70 4710 910C      02DC2        4290        BC    XTHRE,XDP101          NUMBER OF DECIMALS ODD               32600021
 002D74 45E0 85A0      013D0        4291        BAL   XRSUB,XBDSET          SET A-TEXT                           32608021
 002D78 9210 D17D      08245        4292          MVI   XPLUS1+NX2,XX10                                          32616021
 002D7C 9210 D1C5      0828D        4293          MVI   XPLUS2+NX2,XX10                                          32624021
 002D80 920F D191      08259        4294          MVI   XL2+NX1,XX0F                                             32632021
 002D84 45E0 BAD2      02162        4295        BAL   XRSUB,MVO             GENERATE MVO                         32640021
                                    4296 *                                                                       32648021
                                    4297 *      WARNING- POSSIBLE TRUNCATION.                                    32656021
                                    4298 *      ERROR NUMBER 11.                                                 32664021
                                    4299 *                                                                       32672021
 002D88 45E0 7AC0      00AC0        4300 XDP103 BAL   XRSUB,ERRPRO          GENERATE ERROR MESSAGE               32680021
 002D8C 0B                          4301        DC    AL1(ERRN11)                                                32688021
 002D8D 00                          4302        DC    AL1(0)                                                     32696021
 002D8E 4110 0080      00080        4303        LA    XR1,WORKF                                                  32704021
 002D92 4520 85B6      013E6        4304        BAL   XR2,XZPDPR            GENERATE ZAP INTO TEMP STOR          32712021
 002D96 47F0 902C      02CE2        4305        BC    UNCON,XOTM08          CHECK FOR NEG EXPONENT               32720021
                                    4306 **                                                                      32728021
                                    4307 **                                                                      32736021
                                    4308 *                                                                       32744021
                                    4309 *                                                                       32752021
                                    4310 *  FLOATING POINT MULTIPLY.                                             32760021
                                    4311 *                                                                       32768021
 002D9A 45E0 834E      0117E        4312 XOTM01 BAL   XRSUB,FPCVBG               CONVERT TO IFP ANY OPERAND      32776021
 002D9E 45E0 835A      0118A        4313        BAL   XRSUB,FPLDAN               AS NEEDED - LOAD OP1 IN REG     32784021
 002DA2 45E0 77DA      007DA        4314        BAL   XRSUB,FPSETA               SET A-TEXT                      32792021
 002DA6 41E0 9100      02DB6        4315        LA    XRSUB,XOTM05                                               32800021
 002DAA 9104 301D      0001D        4316          TM    Y1IRX+NX1(XR3),XGDPFP                                    32808021
 002DAE 4710 BDE2      02472        4317        BC    XTHRE,MULTFL               MD   OR  MDR .                  32816021
 002DB2 47F0 BDDA      0246A        4318        BC    UNCON,MULTS                ME   OR  MER .                  32824021
 002DB6 45E0 837E      011AE        4319 XOTM05 BAL   XRSUB,FPRESF          SET FLAGS IN RESULT BUFFER           32832021
 002DBA 9605 D575      0863D        4320          OI    XFIRX+NX1,XX05            XG2IRX+XGDPFP.                 32840021
 002DBE 47F0 902C      02CE2        4321        BC    UNCON,XOTM08          CHECK FOR NEG EXPONENT               32848021
0
                                    4323 *                                                                       32864021
 002DC2 920F D189      08251        4324 XDP101   MVI   XIMM,XX0F                                                32872021
 002DC6 92D0 D14E      08216        4325          MVI   BDISP1,XXD0                                              32880021
 002DCA 9280 D14F      08217        4326          MVI   BDISP1+NX1,WORKF                                         32888021
 002DCE 9210 D17D      08245        4327          MVI   XPLUS1+NX2,XX10                                          32896021
 002DD2 45E0 BB3E      021CE        4328        BAL   XRSUB,NI              GENERATE NI                          32904021
 002DD6 47F0 90D2      02D88        4329        BC    UNCON,XDP103          GENERATE ERROR MESSAGE               32912021
1         MULTIPLY VERB ANALYZER  M  U  L  T  I  P  L  Y                                                        PAGE  104
-  LOC  OBJECT CODE    ADDR1 ADDR2  STMT   SOURCE STATEMENT                                       ASM 0201 11.03 02/14/15
0                                   4331 *      XCTMUL   . COMPILE TIME ARITHMETIC FOR MULTIPLICATION.           32928021
                                    4332 *                                                                       32936021
                                    4333 *                                                                       32944021
-
0
 002DDA 900F C408      07998        4335 XCTMUL   STM   XR0,XR15,XGSAV1                                          32960021
0
 002DDE 4150 D4E8      085B0        4337        LA    XR5,XVAL1                                                  32976021
 002DE2 4110 0002      00002        4338          LA    XR1,DX2                   TAKE CARE OF SCALING DUE       32984021
 002DE6 45E0 774E      0074E        4339 XCTM01 BAL   XRSUB,XSCAL                TO PICTURE CONTAINING INTEG     32992021
 002DEA D201 5016 5024 00016 00024  4340          MVC   Y1DAS(LX2,XR5),Y1DBS(XR5)   P'S  -----  999PPP           33000021
 002DF0 4150 D520      085E8        4341        LA    XR5,XVAL2                                                  33008021
 002DF4 4610 9130      02DE6        4342        BCT   XR1,XCTM01            LOOP TWICE SCALING BOTH OPERANDS     33016021
 002DF8 4130 D4E8      085B0        4343        LA    XR3,XVAL1                                                  33024021
 002DFC 4843 0016      00016        4344        LH    XR4,Y1DAS(XR3)             PRODUCT.                        33032021
 002E00 4A45 0016      00016        4345        AH    XR4,Y1DAS(XR5)             X                               33040021
 002E04 4040 D56E      08636        4346        STH   XR4,XFDAS                  X                               33048021
 002E08 4823 0014      00014        4347        LH    XR2,Y1FAS(XR3)             MAX. NUMBER OF DIGIT OF         33056021
 002E0C 4A25 0014      00014        4348        AH    XR2,Y1FAS(XR5)             PRODUCT IS                      33064021
 002E10 4920 C87E      07E0E        4349        CH    XR2,XC030                  GREATER THAN 30 -               33072021
 002E14 4720 91C4      02E7A        4350        BC    XTWO,XCTM03                X                               33080021
 002E18 4780 91AE      02E64        4351        BC    XZERO,XCTM10          PRODUCT IS 30 DIGITS                 33088021
 002E1C 4940 C87E      07E0E        4352        CH    XR4,XC030                                                  33096021
 002E20 4720 91C4      02E7A        4353        BC    XTWO,XCTM03           PRODUCT HAS MORE THAN 30 DECS        33104021
 002E24 950F 5015      00015        4354 XCTM13   CLI   Y1FAS+NX1(XR5),XX0F                                      33112021
 002E28 4720 91A0      02E56        4355        BC    XTWO,XCTM04                PERFORM COMPILE TIME            33120021
 002E2C F8FF D558 3000 08620 00000  4356 XCTM06   ZAP   XFVAL(LX16),DX0(LX16,XR3) MULTIPLICATION                 33128021
 002E32 4865 0010      00010        4357        LH    XR6,Y1LAS(XR5)                                             33136021
 002E36 4A50 C876      07E06        4358        AH    XR5,XC016                                                  33144021
 002E3A 1B56                        4359        SR    XR5,XR6                                                    33152021
 002E3C 0660                        4360        BCTR  XR6,RW0               SUBTRACT ONE FOR EX INSTRUCTION      33160021
 002E3E 4460 91A8      02E5E        4361        EX    XR6,XCTMP                 RESTORE REGS FOR EXIT            33168021
 002E42 4150 D558      08620        4362          LA    XR5,XFVAL                                                33176021
 002E46 45E0 7648      00648        4363        BAL   XRSUB,XIDSZ                COMPUTE SIZES OF RESULT.        33184021
 002E4A D205 D568 D450 08630 08518  4364          MVC   XFLAS(LX6),XIDBY          X                              33192021
0
 002E50 980F C408      07998        4366 XCTMEX   LM    XR0,XR15,XGSAV1     EXIT                                 33208021
 002E54 07FE                        4367        BCR   UNCON,XRSUB                X                               33216021
0
 002E56 45E0 7828      00828        4369 XCTM04 BAL   XRSUB,XZX3X5          SWITCH OPERANDS                      33232021
 002E5A 47F0 9176      02E2C        4370        BC    UNCON,XCTM06          MULTIPLY                             33240021
0
 002E5E FCF0 D558 5000 08620 00000  4372 XCTMP    MP    XFVAL(LX16),DX0(LX0,XR5)                                 33256021
 002E64 41E0 91BC      02E72        4373 XCTM10 LA    XRSUB,XCTM11                                               33264021
 002E68 D500 3015 5015 00015 00015  4374          CLC   Y1FAS+NX1(LX1,XR3),Y1FAS+NX1(XR5)                        33272021
 002E6E 4740 7828      00828        4375        BC    XONE,XZX3X5                IF NUMBER OF DIGITS IN PROD     33280021
 002E72 9101 5015      00015        4376 XCTM11   TM    Y1FAS+NX1(XR5),XX01       IS 30 MAKE SURE THAT MULTIP    33288021
 002E76 4710 916E      02E24        4377        BC    XTHRE,XCTM13               HAS AN ODD NUMBER OF DIGITS     33296021
1         MULTIPLY VERB ANALYZER  M  U  L  T  I  P  L  Y                                                        PAGE  105
-  LOC  OBJECT CODE    ADDR1 ADDR2  STMT   SOURCE STATEMENT                                       ASM 0201 11.03 02/14/15
0002E7A 4040 D45C      08524        4378 XCTM03 STH   XR4,XTDEC                  SET INPUT OF TRUNCATION ROU     33304021
 002E7E 1B24                        4379        SR    XR2,XR4                    X                               33312021
 002E80 4740 91F0      02EA6        4380        BC    XONE,XCTM09           IF NEG SET XTINI TO ZERO             33320021
 002E84 4020 D45E      08526        4381        STH   XR2,XTINI                  X                               33328021
                             02E88  4382 XCTM12 EQU   *                                                          33336021
 002E88 45E0 76BC      006BC        4383        BAL   XRSUB,XT000                X                               33344021
 002E8C D203 D578 D44C 08640 08514  4384          MVC   XFDDP(LX4),XTDDD                                         33352021
 002E92 4B40 D44C      08514        4385        SH    XR4,XTDDD                  UPDATE CHAR. OF RESULT          33360021
 002E96 4040 D56E      08636        4386        STH   XR4,XFDAS                  X                               33368021
 002E9A 4150 D558      08620        4387        LA    XR5,XFVAL                                                  33376021
 002E9E 45E0 8496      012C6        4388        BAL   XRSUB,XSETOR          SET BUFFER TO MAX                    33384021
 002EA2 47F0 919A      02E50        4389        BC    UNCON,XCTMEX               X                               33392021
 002EA6 D701 D45E D45E 08526 08526  4390 XCTM09   XC    XTINI(LX2),XTINI                                         33400021
 002EAC 47F0 91D2      02E88        4391        BC    UNCON,XCTM12          GO TO TRUNC ROUTINE                  33408021
1         EXPONENTIATION ANALYZER   E  X  P  O  N  E  N  T                                                      PAGE  106
-  LOC  OBJECT CODE    ADDR1 ADDR2  STMT   SOURCE STATEMENT                                       ASM 0201 11.03 02/14/15
0                                   4393 *                                                                       33424021
                                    4394 *      EXPONENTIATION.   EXPONENT IS IN DOP1 -XR3 POINTS TO IT (X1V     33432021
                                    4395 *                        BASE IS IN  DOP2    -XR5   -    -     (X2V     33440021
                                    4396 *        A)- IF EXPONENT IS A FLOATING POINT NUMBER OR HAS A PICTUR     33448021
                                    4397 *            SPECIFYING DECIMAL PLACES A CALL TO FPOWER WILL BE         33456021
                                    4398 *            GENERATED.                                                 33464021
                                    4399 *          - IF BASE IS FLOATING-POINT AND EXPONENT IS AN INTEGER       33472021
                                    4400 *            DATA-NAME A CALL TO GPOWER WILL BE GENERATED.              33480021
                                    4401 *          - IF BASE IS FLOATING-POINT AND EXPONENT IS AN INTEGER       33488021
                                    4402 *            LITERAL AN IN-LINE LOOP WILL BE GENERATED.                 33496021
                                    4403 *        B)- BASE IS NOT FLOATING-POINT AND EXPONENT IS AN INTEGER.     33504021
                                    4404 *          - 1) EXPONENT = INTEGER DATA-NAME -- CALL TO XPOWER IS       33512021
                                    4405 *               GENERATED.                                              33520021
                                    4406 *          - 2) EXPONENT = INTEGER LITERAL -- AN IN-LINE LOOP IS        33528021
                                    4407 *               GENERATED UNLESS THE MAXIMUM POSSIBLE RESULT EXEEDS     33536021
                                    4408 *               30 DIGITS , IN WHICH A CALL TO XPOWER IS GENERATED.     33544021
                                    4409 *                                                                       33552021
                                    4410 *                                                                       33560021
-
0
                             02EB0  4412        USING *,XRVERB                                                   33576021
                             02EB0  4413 EXPONE EQU   *                                                          33584021
 002EB0 5890 C19C      0772C        4414        L     XRVERB,ADCN02                                              33592021
                             02CB6  4415        USING XOTMUL,XRVERB                                              33600021
 002EB4 45E0 79B4      009B4        4416        BAL   XRSUB,XOTSEL               GET OPERANDS AND INITIALIZE     33608021
 002EB8 9102 D482      0854A        4417        TM    XOPMOD,XFLOAT              WORK-AREA.                      33616021
                                    4418 *                                                                       33624021
                                    4419 *   IF ONE OPERAND IS FLOATING POINT GO TO FPOWER.                      33632021
                                    4420 *                                                                       33640021
 002EBC 4710 9476      0312C        4421        BC    XTHRE,XOTEX1          FLOATING POINT OPERATION             33648021
                             02EC0  4422 XOTE65 EQU   *                                                          33656021
 002EC0 9500 D50D      085D5        4423          CLI   X1DBS+NX1,XX00            IF EXPONENT IS NOT AN INTEG    33664021
 002EC4 4770 949E      03154        4424        BC    XNOEQ,XOTE60               GO TO FPOWER CALL GENERATIO     33672021
 002EC8 91D0 D505      085CD        4425          TM    X1IRX+NX1,XZGNLT          EXPONENT IS A DATA-NAME INT    33680021
 002ECC 4780 9558      0320E        4426        BC    XZERO,XOTEX2               GO TO XPOWER ,OR, GPOWER CA     33688021
                                    4427 *                                                                       33696021
                                    4428 *  EXPONENT IS AN INTEGER LITERAL TRY TO GENERATE AN IN-LINE LOOP.      33704021
                                    4429 *  CHECK FOR  EXPONENT = 0,OR,1,OR,2.                                   33712021
                                    4430 *                                                                       33720021
 002ED0 4F00 D4F0      085B8        4431          CVB   XR0,X1VAL+NX8             XR0 HAS BINARY VALUE OF EXP    33728021
 002ED4 1010                        4432        LPR   XR1,XR0                    XR1 HAS ABSOLUTE  -  -    -     33736021
 002ED6 4910 C3B2      07942        4433        CH    XR1,XC002                                                  33744021
 002EDA 4770 923C      02EF2        4434        BC    XNOEQ,XOTEX3               IF EXPONENT IS = 2  GENERAT     33752021
 002EDE D233 D4E8 D520 085B0 085E8  4435        MVC   X1VAL(XLEVAL),X2VAL        A SINGLE MULTIPLY AND EVENT     33760021
 002EE4 1200                        4436        LTR   XR0,XR0                    DIVIDE RESULT INTO 1 IF IT      33768021
 002EE6 47A0 9004      02CBA        4437        BC    XGTEQ,XOTM00                     -2.                       33776021
 002EEA 9610 D48D      08555        4438        OI    XGNSW,XDIVON                                               33784021
 002EEE 47F0 9004      02CBA        4439        BC    UNCON,XOTM00          GO TO MULTIPLY VERB ANALYZER         33792021
 002EF2 4910 C850      07DE0        4440 XOTEX3 CH    XR1,XC000                  IF EXPONENT IS 0  SET RESUT     33800021
 002EF6 4780 944A      03100        4441        BC    XZERO,XOTEX4               TO ONE.                         33808021
 002EFA 4910 C3AE      0793E        4442        CH    XR1,XC001                  IF EXPONENT = 1 SET RESULT      33816021
 002EFE 4770 9256      02F0C        4443        BC    XNOEQ,XOTE72               BASE*1.                         33824021
1         EXPONENTIATION ANALYZER   E  X  P  O  N  E  N  T                                                      PAGE  107
-  LOC  OBJECT CODE    ADDR1 ADDR2  STMT   SOURCE STATEMENT                                       ASM 0201 11.03 02/14/15
0002F02 1200                        4444        LTR   XR0,XR0                    IF EXPONENT = -1 SET RESULT     33832021
 002F04 4720 9004      02CBA        4445        BC    XTWO,XOTM00                1/BASE.                         33840021
 002F08 47F0 93D4      0308A        4446        BC    UNCON,XOTEX6          EXP IS <= 0                          33848021
                             02F0C  4447 XOTE72 EQU   *                                                          33856021
 002F0C 9102 D482      0854A        4448        TM    XOPMOD,XFLOAT                                              33864021
 002F10 4710 92A8      02F5E        4449        BC    XTHRE,XOTE63          FLOATING POINT OPERATION             33872021
0
                                    4451 *  COMPUTE SIZE OF MAXIMUM RESULT                                       33888021
                                    4452 *                                                                       33896021
                                    4453 *                                                                       33904021
 002F14 D233 D4E8 D520 085B0 085E8  4454          MVC   X1VAL(XLEVAL),X2VAL                                      33912021
 002F1A D703 D500 D500 085C8 085C8  4455          XC    X1TEL(LX4),X1TEL                                         33920021
 002F20 0610                        4456        BCTR  XR1,RW0               SUBTRACT 1 FOR 1ST TIME THRU         33928021
                             02F22  4457 XOTE07 EQU   *                                                          33936021
 002F22 D201 D410 D508 084D8 085D0  4458          MVC   XGTEM2(LX2),X1BBS                                        33944021
 002F28 45E0 9124      02DDA        4459        BAL   XRSUB,XCTMUL          GO TO COMPILE TIME MULTIPLY          33952021
 002F2C 9102 D575      0863D        4460          TM    XFIRX+NX1,XGOVFL          IF MORE THAN 30 DIGITS IN A    33960021
 002F30 4710 9636      032EC        4461        BC    XTHRE,XOTE08               INTERM. RESULT GO TO XPOWER     33968021
 002F34 D20F D4E8 D558 085B0 08620  4462          MVC   X1VAL(LX16),XFVAL                                        33976021
 002F3A D207 D506 D568 085CE 08630  4463          MVC   X1LBS(LX8),XFLAS                                         33984021
 002F40 D707 D4F8 D4F8 085C0 085C0  4464          XC    X1LAS(LX8),X1LAS                                         33992021
 002F46 D701 D50E D50E 085D6 085D6  4465          XC    X1ALP(LX2),X1ALP                                         34000021
 002F4C D723 D558 D558 08620 08620  4466        XC    XFVAL(XFLVAL),XFVAL                                        34008021
 002F52 4610 926C      02F22        4467        BCT   XR1,XOTE07                 KEEP MULTIPLYING UNTILL EXP     34016021
                                    4468 *                                       IS SATISFIED.                   34024021
                                    4469 *  NO OVERFLOW HAS OCCURED - INITIALIZE OBJECT TIME LOOP -GENERATE      34032021
                                    4470 *  L   XRN,EXPONENT                                                     34040021
                                    4471 *                                                                       34048021
 002F56 91D0 D53D      08605        4472          TM    X2IRX+NX1,XZGNLT                                         34056021
 002F5A 4770 9360      03016        4473        BC    XNOEQ,XOTE18          2ND OPERAND IS A LITERAL             34064021
                             02F5E  4474 XOTE63 EQU   *                                                          34072021
 002F5E 1010                        4475        LPR   XR1,XR0                                                    34080021
 002F60 0610                        4476        BCTR  XR1,RW0               SUBTRACT 1 FOR OBJ TIME LOOP         34088021
 002F62 5010 D16C      08234        4477          ST    XR1,XCON1+NX12                                           34096021
 002F66 9204 D170      08238        4478          MVI   XCON1+NX16,XX04                                          34104021
 002F6A 45E0 8076      00EA6        4479        BAL   XRSUB,XRSASG          ASSIGN A REG                         34112021
 002F6E D200 D188 D48A 08250 08552  4480          MVC   XREG1(LX1),XREGNO                                        34120021
 002F74 45E0 B000      01690        4481        BAL   XRSUB,LOAD            GENERATE A LOAD INSTRUCTION          34128021
 002F78 5820 D464      0852C        4482        L     XR2,XLIRP                                                  34136021
 002F7C 9605 2002      00002        4483          OI    DX2(XR2),XX05             XRVAL1+XRFREE                  34144021
 002F80 9102 D482      0854A        4484        TM    XOPMOD,XFLOAT                                              34152021
 002F84 4710 9512      031C8        4485        BC    XTHRE,XOTE66          FLOATING POINT OPERATION             34160021
                                    4486 *                                                                       34168021
                                    4487 *  DETERMINE IF THE MULTIPLICATION SHOULD BE PERFORMED IN ID OR         34176021
                                    4488 *  IN BINARY                                                            34184021
                                    4489 *                                                                       34192021
 002F88 910B D53C      08604        4490        TM    X2IRX,XGBINR                                               34200021
 002F8C 47E0 93F0      030A6        4491        BC    NOTHR,XOTE10               ID LOOP- BASE IS ID.            34208021
 002F90 9508 D509      085D1        4492          CLI   X1BBS+NX1,XX08                                           34216021
 002F94 4720 93F0      030A6        4493        BC    XTWO,XOTE10                ID LOOP- RESULT TOO BIG         34224021
 002F98 9504 D411      084D9        4494          CLI   XGTEM2+NX1,XX04                                          34232021
 002F9C 4720 93F0      030A6        4495        BC    XTWO,XOTE10                ID LOOP-MULTIPLIER TOO BIG      34240021
                                    4496 *                                                                       34248021
                                    4497 *  GENERATE A BINARY MULTIPLICATION  IN A LOOP.                         34256021
1         EXPONENTIATION ANALYZER   E  X  P  O  N  E  N  T                                                      PAGE  108
-  LOC  OBJECT CODE    ADDR1 ADDR2  STMT   SOURCE STATEMENT                                       ASM 0201 11.03 02/14/15
0                                   4498 *                                                                       34264021
                                    4499 *        LH   RODD,BASE                                                 34272021
                                    4500 *    5GN LH   REVEN,BASE                                                34280021
                                    4501 *        MR   REVEN,REVEN                                               34288021
                                    4502 *        BCT  XRN,5GN     XRN CONTAINS EXPONENT.                        34296021
                                    4503 *                                                                       34304021
 002FA0 920B D504      085CC        4504        MVI   X1IRX,XGBINR                                               34312021
 002FA4 45E0 7B0E      00B0E        4505        BAL   XRSUB,XBISCL               SCALE BASE  (P'S).              34320021
 002FA8 45E0 8144      00F74        4506        BAL   XRSUB,XRDBIR               ASK A PAIR                      34328021
 002FAC 5840 D464      0852C        4507        L     XR4,XLIRP                  XR4 HAS EVEN REG.               34336021
 002FB0 5864 0004      00004        4508          L     XR6,DX4(XR4)              XR6  -  ODD   - .              34344021
 002FB4 1835                        4509        LR    XR3,XR5                                                    34352021
 002FB6 4850 C88C      07E1C        4510        LH    XR5,XMINTW                                                 34360021
 002FBA 45E0 77FA      007FA        4511        BAL   XRSUB,XZBINA          SET A-TEXT                           34368021
 002FBE D200 D188 6003 08250 00003  4512          MVC   XREG1(LX1),DX3(XR6)                                      34376021
 002FC4 45E0 B000      01690        4513        BAL   XRSUB,LOAD                 LOAD ODD REG.                   34384021
 002FC8 4550 9434      030EA        4514        BAL   XR5,XOTEGN            GENERATE GN                          34392021
 002FCC D200 D48A 4003 08552 00003  4515          MVC   XREGNO(LX1),DX3(XR4)       LOAD EVEN                     34400021
                                    4516 *                                                                       34408021
 002FD2 45E0 80FE      00F2E        4517        BAL   XRSUB,XSLGVX          GENERATE A LOAD INSTRUCTION          34416021
 002FD6 D200 D188 4003 08250 00003  4518          MVC   XREG1(LX1),DX3(XR4)        SET A-TEXT FOR MULTIPLY.      34424021
 002FDC D200 D1D0 4003 08298 00003  4519          MVC   XREG2(LX1),DX3(XR4)                                      34432021
                                    4520 *                                                                       34440021
                                    4521 * SET RESULT BUFFER.                                                    34448021
                                    4522 *                                                                       34456021
 002FE2 9504 D509      085D1        4523          CLI   X1BBS+NX1,XX04                                           34464021
 002FE6 4720 93DE      03094        4524        BC    XTWO,XOTE11           LENGTH > FULLWORD                    34472021
 002FEA 45E0 7830      00830        4525        BAL   XRSUB,XZX4X6          EXCHANGE R4 AND R6                   34480021
 002FEE D402 6000 C8B7 00000 07E47  4526          NC    DX0(LX3,XR6),XREMK6                                      34488021
 002FF4 58F0 C8E4      07E74        4527          L     XRVAR,FPALOD                                             34496021
                             05D38  4528        USING FPLLOD,XRVAR                                               34504021
 002FF8 45E0 F88C      065C4        4529        BAL   XRSUB,FPLLN           SET FLAGS                            34512021
                             02CB6  4530        USING XOTMUL,XRVERB                                              34520021
 002FFC 45E0 BABA      0214A        4531 XOTE13 BAL   XRSUB,MULT            GENERATE MULTIPLY                    34528021
                             03000  4532 XOTE67 EQU   *                                                          34536021
 003000 D200 D188 2003 08250 00003  4533          MVC   XREG1(LX1),DX3(XR2)                                      34544021
 003006 D201 D172 D460 0823A 08528  4534          MVC   XGN1(LX2),XGNTMP          GENERATE     BCT  XRN,5GN      34552021
 00300C 45E0 BC96      02326        4535        BAL   XRSUB,BRNCNT          GENERATE BCT                         34560021
 003010 D402 2000 C8B7 00000 07E47  4536          NC    DX0(LX3,XR2),XREMK6        RELEASE REG. CONTAINING EXP   34568021
 003016 D205 D570 D538 08638 08600  4537 XOTE18   MVC   XFTEL(LX6),X2TEL                                         34576021
 00301C D20F D558 D4E8 08620 085B0  4538 XOTE17   MVC   XFVAL(LX16),X1VAL                                        34584021
 003022 D207 D568 D506 08630 085CE  4539          MVC   XFLAS(LX8),X1LBS                                         34592021
 003028 1200                        4540        LTR   XR0,XR0                                                    34600021
 00302A 47A0 94F6      031AC        4541        BC    XGTEQ,XOTE16          EXPONENT >= ZERO                     34608021
                                    4542 *                                                                       34616021
                                    4543 *  IF EXPONENT IS NEGATIVE DIVIDE RESULT OF MULTIPLICATION INTO ONE     34624021
                                    4544 *                                                                       34632021
 00302E D733 D4E8 D4E8 085B0 085B0  4545 XOTE40 XC    X1VAL(XLEVAL),X1VAL                                        34640021
 003034 D20F D4E8 D558 085B0 08620  4546          MVC   X1VAL(LX16),XFVAL                                        34648021
 00303A D205 D500 D570 085C8 08638  4547          MVC   X1TEL(LX6),XFTEL                                         34656021
 003040 D207 D506 D568 085CE 08630  4548          MVC   X1LBS(LX8),XFLAS                                         34664021
 003046 D723 D558 D558 08620 08620  4549        XC    XFVAL(XFLVAL),XFVAL                                        34672021
 00304C D733 D520 D520 085E8 085E8  4550 XOTE51 XC    X2VAL(XLEVAL),X2VAL                                        34680021
 003052 9102 D482      0854A        4551        TM    XOPMOD,XFLOAT                                              34688021
 003056 4780 93B8      0306E        4552        BC    XZERO,XOTE68          NOT FL PT OPERATION                  34696021
1         EXPONENTIATION ANALYZER   E  X  P  O  N  E  N  T                                                      PAGE  109
-  LOC  OBJECT CODE    ADDR1 ADDR2  STMT   SOURCE STATEMENT                                       ASM 0201 11.03 02/14/15
000305A 9241 D528      085F0        4553          MVI   X2VAL+NX8,XX41            MOVE 1. TO X2VAL.              34704021
 00305E 9210 D529      085F1        4554          MVI   X2VAL+NX9,XX10                                           34712021
 003062 920A D53C      08604        4555        MVI   X2IRX,XGINFP                                               34720021
 003066 9264 D53D      08605        4556          MVI   X2IRX+NX1,XX64            XGDPFP+XFTPT+XGNCON.           34728021
 00306A 47F0 93C4      0307A        4557        BC    UNCON,XOTE69          DIVIDE PRODUCT INTO 1                34736021
                             0306E  4558 XOTE68 EQU   *                                                          34744021
 00306E 921F D52F      085F7        4559          MVI   X2VAL+NX15,XX1F                                          34752021
 003072 4140 D520      085E8        4560        LA    XR4,X2VAL                                                  34760021
 003076 45E0 83F6      01226        4561        BAL   XRSUB,XONDGT          UPDATE OPERAND BUFFER                34768021
                             0307A  4562 XOTE69 EQU   *                                                          34776021
 00307A 4130 D4E8      085B0        4563        LA    XR3,X1VAL                                                  34784021
 00307E 4150 D520      085E8        4564        LA    XR5,X2VAL                                                  34792021
 003082 5890 C1A0      07730        4565        L     XRVERB,ADCN03                                              34800021
                             03300  4566        USING XOTDIV,XRVERB                                              34808021
 003086 47F0 90CC      033CC        4567        BC    UNCON,XOTD00          GO TO DIVIDE VERB ANALYZER           34816021
                             02CB6  4568        USING XOTMUL,XRVERB                                              34824021
0
 00308A D233 D4E8 D520 085B0 085E8  4570 XOTEX6 MVC   X1VAL(XLEVAL),X2VAL                                        34840021
 003090 47F0 9396      0304C        4571        BC    UNCON,XOTE51          SWITCH OPERANDS                      34848021
 003094 9608 4002      00002        4572 XOTE11   OI    DX2(XR4),XRDPRE                                          34856021
 003098 D202 6000 4000 00000 00000  4573          MVC   DX0(LX3,XR6),DX0(XR4)                                    34864021
 00309E 9601 D53D      08605        4574          OI    X2IRX+NX1,XG2IRX                                         34872021
 0030A2 47F0 9346      02FFC        4575        BC    UNCON,XOTE13          GENERATE MULTIPLY                    34880021
0
                                    4577 *  GENERATE AN  ID MULTIPLICATION IN A LOOP.                            34896021
                                    4578 *                                                                       34904021
                                    4579 *        ZAP  TEMP(L1),BASE(L)                                          34912021
                                    4580 *   5GN  MP   TEMP(L2),BASE(L)                                          34920021
                                    4581 *        BCT  XRN,5GN              XRN CONTAINS EXPONENT.               34928021
                                    4582 *                                                                       34936021
                                    4583 *                                                                       34944021
 0030A6 920C D504      085CC        4584 XOTE10 MVI   X1IRX,XGINDC                                               34952021
 0030AA 45E0 7DE0      00DE0        4585        BAL   XRSUB,XW000           SCALE OPERAND                        34960021
 0030AE 1835                        4586        LR    XR3,XR5                                                    34968021
 0030B0 D205 D570 D538 08638 08600  4587          MVC   XFTEL(LX6),X2TEL                                         34976021
 0030B6 9211 D485      0854D        4588          MVI   XYLEN,XX11                                               34984021
 0030BA 45E0 7CFE      00CFE        4589        BAL   XRSUB,XYOAF           SET A-TEXT                           34992021
 0030BE 4550 9434      030EA        4590        BAL   XR5,XOTEGN            GENERATE GN                          35000021
 0030C2 D201 D14A D446 08212 0850E  4591          MVC   XWC1(LX2),XEREL1                                         35008021
 0030C8 9210 D149      08211        4592          MVI   XL1+NX1,XX10                                             35016021
 0030CC 4850 C892      07E22        4593        LH    XR5,XMINFV                                                 35024021
 0030D0 D205 D538 D570 08600 08638  4594          MVC   X2TEL(LX6),XFTEL                                         35032021
 0030D6 D203 D570 D442 08638 0850A  4595          MVC   XFTEL(LX4),XYTEL                                         35040021
 0030DC 45E0 780A      0080A        4596        BAL   XRSUB,XZSIDA          SET A-TEXT                           35048021
 0030E0 D203 D538 D570 08600 08638  4597          MVC   X2TEL(LX4),XFTEL                                         35056021
 0030E6 47F0 9346      02FFC        4598        BC    UNCON,XOTE13          GENERATE MULTIPLY                    35064021
                                    4599 *                                                                       35072021
                                    4600 *  OUTPUT A LABEL                                                       35080021
                                    4601 *                                                                       35088021
 0030EA 45E0 7AA2      00AA2        4602 XOTEGN BAL   XRSUB,XSTLHN          GET GN NUMBER                        35096021
 0030EE D701 D172 D172 0823A 0823A  4603          XC    XGN1(LX2),XGN1                                           35104021
 0030F4 D201 756D D460 0056D 08528  4604          MVC   PH4GN+NX1(LX2),XGNTMP   MOVE GN #                        35112021
 0030FA 45E0 753C      0053C        4605          BAL   XRSUB,WRPH4G            WRITE PH4 GN DEF                 35120021
1         EXPONENTIATION ANALYZER   E  X  P  O  N  E  N  T                                                      PAGE  110
-  LOC  OBJECT CODE    ADDR1 ADDR2  STMT   SOURCE STATEMENT                                       ASM 0201 11.03 02/14/15
00030FE 07F5                        4606        BCR   UNCON,XR5             RETURN                               35128021
                                    4607 *                                                                       35136021
                                    4608 *   SET RESULT TO ONE.                                                  35144021
                                    4609 *                                                                       35152021
 003100 9102 D482      0854A        4610 XOTEX4 TM    XOPMOD,XFLOAT                                              35160021
 003104 4780 9466      0311C        4611        BC    XZERO,XOTE71          NOT FL PT OPERATION                  35168021
 003108 920A D574      0863C        4612        MVI   XFIRX,XGINFP                                               35176021
 00310C 9264 D575      0863D        4613          MVI   XFIRX+NX1,XX64            XGDPFP+XFTPT+XGNCON.           35184021
 003110 9241 D560      08628        4614          MVI   XFVAL+NX8,XX41            SET RESULT TO 1 IN IFP.        35192021
 003114 9210 D561      08629        4615          MVI   XFVAL+NX9,XX10                                           35200021
 003118 47F0 94F6      031AC        4616        BC    UNCON,XOTE16          RESET BUFFER ADDRESSES               35208021
 00311C 921F D4F7      085BF        4617 XOTE71   MVI   X1VAL+NX15,XX1F                                          35216021
 003120 9250 D575      0863D        4618          MVI   XFIRX+NX1,XGCOLT                                         35224021
 003124 920C D574      0863C        4619        MVI   XFIRX,XGINDC                                               35232021
 003128 47F0 9366      0301C        4620        BC    UNCON,XOTE17          SET RESULT BUFFER                    35240021
                                    4621 *                                                                       35248021
                                    4622 *  GENERATE CALL TO FPOWER.                                             35256021
                                    4623 *                                                                       35264021
                                    4624 *        LD   0,BASE                                                    35272021
                                    4625 *        MVC  WORKA+8(8,13),EXPONENT                                    35280021
                                    4626 *        L    15,V(FPOWER)                                              35288021
                                    4627 *        BALR 14,15                                                     35296021
                                    4628 *  RESULT IN  REGISTER 0.                                               35304021
                                    4629 *                                                                       35312021
                                    4630 *      IF EXPONENT IS KNOWN TO BE AN INTEGER AT COMPILE TIME A CALL     35320021
                                    4631 *      TO GPOWER WILL BE GENERATED UNLESS IT IS A LITERAL INTEGER,      35328021
                                    4632 *      IN WHICH CASE AN IN LINE LOOP WILL BE GENERATED.                 35336021
                                    4633 *                                                                       35344021
                                    4634 *  CALLING SEQUENCE TO GPOWER IS                                        35352021
                                    4635 *        LD  0,BASE                                                     35360021
                                    4636 *        L   0,EXPONENT                                                 35368021
                                    4637 *        L   15,=V(GPOWER)                                              35376021
                                    4638 *        BALR 14,15                                                     35384021
                                    4639 *                                                                       35392021
                                    4640 *  THE IN-LINE LOOP WILL BE                                             35400021
                                    4641 *        LD  RF1,BASE                                                   35408021
                                    4642 *        L   R1,EXPONT-1                                                35416021
                                    4643 *        LDR RF2,RF1                                                    35424021
                                    4644 *   5GN  MDR RF1,RF2                                                    35432021
                                    4645 *        BCT R1,5GN                                                     35440021
                                    4646 *                                                                       35448021
                             0312C  4647 XOTEX1 EQU   *                                                          35456021
 00312C 9509 D504      085CC        4648        CLI   X1IRX,XGEXFP               EFP.                            35464021
 003130 4780 949E      03154        4649        BC    XZERO,XOTE60                YES.                           35472021
 003134 9120 D505      085CD        4650          TM    X1IRX+NX1,XFTPT                                          35480021
 003138 4710 949E      03154        4651        BC    XTHRE,XOTE60          INTERNAL FL PT OPERAND               35488021
 00313C 9509 D53C      08604        4652        CLI   X2IRX,XGEXFP                                               35496021
 003140 4770 920A      02EC0        4653        BC    XNOEQ,XOTE65          NOT EXT FL PT OPERAND                35504021
 003144 4130 D520      085E8        4654        LA    XR3,X2VAL                                                  35512021
 003148 45E0 831E      0114E        4655        BAL   XRSUB,EFPIFP          CONVERT EFP TO IFP                   35520021
 00314C 4130 D4E8      085B0        4656        LA    XR3,X1VAL                                                  35528021
 003150 47F0 920A      02EC0        4657        BC    UNCON,XOTE65          CHECK FOR INTEGER EXPONENT           35536021
                                    4658 *                                                                       35544021
                                    4659 *  CALL TO FPOWER.                                                      35552021
                                    4660 *                                                                       35560021
1         EXPONENTIATION ANALYZER   E  X  P  O  N  E  N  T                                                      PAGE  111
-  LOC  OBJECT CODE    ADDR1 ADDR2  STMT   SOURCE STATEMENT                                       ASM 0201 11.03 02/14/15
0003154 45E0 834E      0117E        4661 XOTE60 BAL   XRSUB,FPCVBG          CONVERT BOTH OPERANDS TO IFP         35568021
 003158 9104 D505      085CD        4662          TM    X1IRX+NX1,XGDPFP                                         35576021
 00315C 4710 94AE      03164        4663        BC    XTHRE,XOTE21          DP FL PT OPERAND                     35584021
 003160 45E0 812C      00F5C        4664        BAL   XRSUB,FPLDL                MOVE EXPONENT TO  WORKA+8(1     35592021
 003164 92D0 D14E      08216        4665 XOTE21   MVI   BDISP1,XXD0                                              35600021
 003168 9268 D14F      08217        4666          MVI   BDISP1+NX1,WORKP                                         35608021
 00316C 4850 C892      07E22        4667        LH    XR5,XMINFV                                                 35616021
 003170 45E0 77DA      007DA        4668        BAL   XRSUB,FPSETA          SET A-TEXT                           35624021
 003174 41E0 94D2      03188        4669        LA    XRSUB,XOTE20                                               35632021
 003178 9108 D505      085CD        4670          TM    X1IRX+NX1,XINREG                                         35640021
 00317C 4770 BE02      02492        4671        BC    XNOEQ,STORFL          OPERAND IN REG                       35648021
 003180 9208 D149      08211        4672          MVI   XL1+NX1,XX08                                             35656021
 003184 47F0 B18C      0181C        4673        BC    UNCON,MVC             GENERATE MVC                         35664021
 003188 4130 D520      085E8        4674 XOTE20 LA    XR3,X2VAL                  LOAD  BASE IN 0                 35672021
 00318C 45E0 8134      00F64        4675        BAL   XRSUB,FPLD0           GENERATE LOAD INSTRUCTION            35680021
 003190 45E0 8792      015C2        4676        BAL   XRSUB,VBADCE                    L  15,V(FPOWER)            35688021
 003194 C6D7E6F0                    4677        DC    C'FPW0'              BALR  14,15                           35696021
                             03198  4678 XOTE70 EQU   *                                                          35704021
 003198 4130 D558      08620        4679        LA    XR3,XFVAL                                                  35712021
 00319C 4140 D400      084C8        4680        LA    XR4,FPRTB0                                                 35720021
 0031A0 45E0 81E4      01014        4681        BAL   XRSUB,XZWHIR          GET REG TBL                          35728021
 0031A4 920A D574      0863C        4682        MVI   XFIRX,XGINFP                                               35736021
 0031A8 922D D575      0863D        4683          MVI   XFIRX+NX1,XX2D            XINREG+XG2IRX+XFTPT+XGDPFP     35744021
0
                                    4685 *  EXIT  FROM EXPONENTIATION ROUTINE.                                   35760021
                                    4686 *                                                                       35768021
 0031AC 45E0 7D80      00D80        4687 XOTE16 BAL   XRSUB,XRSVAL          RESET BUFFER ADDRESSES               35776021
                                    4688 *                                                                       35784021
 0031B0 47F0 902C      02CE2        4689        BC    UNCON,XOTM08          CHECK FOR NEG EXPONENT               35792021
                                    4690 *                                                                       35800021
                                    4691 *  CALL TO GPOWER.                                                      35808021
                                    4692 *                                                                       35816021
 0031B4 4130 D520      085E8        4693 XOTE64 LA    XR3,X2VAL                                                  35824021
 0031B8 45E0 8134      00F64        4694        BAL   XRSUB,FPLD0           GENERATE LOAD INSTRUCTION            35832021
 0031BC 45E0 8792      015C2        4695        BAL   XRSUB,VBADCE          CALL SUBROUTINE                      35840021
 0031C0 C7D7E6F0                    4696        DC    C'GPW0'                                                    35848021
 0031C4 47F0 94E2      03198        4697        BC    UNCON,XOTE70          SET FLAGS IN FINAL RESULT BUFF       35856021
                                    4698 *                                                                       35864021
                                    4699 *      IN-LINE LOOP.                                                    35872021
                                    4700 *                                                                       35880021
 0031C8 4130 D520      085E8        4701 XOTE66 LA    XR3,X2VAL                                                  35888021
 0031CC 45E0 812C      00F5C        4702        BAL   XRSUB,FPLDL                LD RF1,BASE                     35896021
 0031D0 45E0 81E4      01014        4703        BAL   XRSUB,XZWHIR          GET REG TBL                          35904021
 0031D4 5840 D464      0852C        4704        L     XR4,XLIRP                                                  35912021
 0031D8 45E0 8050      00E80        4705        BAL   XRSUB,XRSASF          ASSIGN A REG                         35920021
 0031DC 5860 D464      0852C        4706        L     XR6,XLIRP                                                  35928021
 0031E0 D200 D188 6003 08250 00003  4707          MVC   XREG1(LX1),DX3(XR6)        LDR  RF2,RF1                  35936021
 0031E6 D200 D1D0 4003 08298 00003  4708          MVC   XREG2(LX1),DX3(XR4)                                      35944021
 0031EC 45E0 BCDE      0236E        4709        BAL   XRSUB,LDFLL           GENERATE A LOAD INSTRUCTION          35952021
 0031F0 4550 9434      030EA        4710        BAL   XR5,XOTEGN                 5GN   MDR  RF1,RF2              35960021
 0031F4 D200 D188 4003 08250 00003  4711          MVC   XREG1(LX1),DX3(XR4)                                      35968021
 0031FA D200 D1D0 6003 08298 00003  4712          MVC   XREG2(LX1),DX3(XR6)                                      35976021
 003200 45E0 BDE2      02472        4713        BAL   XRSUB,MULTFL          GENERATE FL PT MULTIPLY              35984021
 003204 D402 6000 C8B7 00000 07E47  4714          NC    DX0(LX3,XR6),XREMK6                                      35992021
1         EXPONENTIATION ANALYZER   E  X  P  O  N  E  N  T                                                      PAGE  112
-  LOC  OBJECT CODE    ADDR1 ADDR2  STMT   SOURCE STATEMENT                                       ASM 0201 11.03 02/14/15
000320A 47F0 934A      03000        4715        BC    UNCON,XOTE67          GENERATE BCT                         36000021
0
                                    4717 *  GENERATE  CALL  TO XPOWER                                            36016021
                                    4718 *                                                                       36024021
                                    4719 *        ZAP  WORKA(16,13),BASE(L)                                      36032021
                                    4720 *        L    0,EXPONENT                                                36040021
                                    4721 *        L    15,V(XPOWER)                                              36048021
                                    4722 *        BALR 14,15                                                     36056021
                                    4723 *        DC   XL1   NUMBER OF DEC. IN BASE.                             36064021
                                    4724 *        DC   XL1   DMAX.                                               36072021
                                    4725 *   RESULT IN  WORKA(16,13)                                             36080021
                                    4726 *                                                                       36088021
 00320E 9200 D48A      08552        4727 XOTEX2   MVI   XREGNO,XX00                                              36096021
 003212 45E0 838A      011BA        4728        BAL   XRSUB,XFREER          FREE REG                             36104021
 003216 910B D504      085CC        4729        TM    X1IRX,XGBINR                                               36112021
 00321A 4710 956C      03222        4730        BC    XTHRE,XOTE30          EXPONENT IS BINARY                   36120021
 00321E 45E0 82D6      01106        4731        BAL   XRSUB,XIDBIB               CONVERT EXPON. TO BINARY.       36128021
                                    4732 *                                                                       36136021
                                    4733 *   IF EXPONENT IS ASSIGNED MORE THAN A ONE BINARY WORD , ONLY THE      36144021
                                    4734 *   LOW ORDER WORD WILL BE USED TO BUILD THE CALLING SEQUENCE           36152021
                                    4735 *   TO XPOWER.                                                          36160021
                                    4736 *                                                                       36168021
                             03222  4737 XOTE30 EQU   *                          TAKE CARE OF EXPONENT WITH      36176021
 003222 9101 D505      085CD        4738          TM    X1IRX+NX1,XG2IRX          A TOO LARGE NUMERIC FIELD,O    36184021
 003226 4780 9588      0323E        4739        BC    XZERO,XOTE33               CONTAINING P'S IN THE PICTU     36192021
 00322A 4510 7D8A      00D8A        4740        BAL   XR1,XODDRG            GET ASSOCIATED ODD REG               36200021
 00322E 58F0 C8E4      07E74        4741        L     XRVAR,FPALOD                                               36208021
                             05D38  4742        USING FPLLOD,XRVAR                                               36216021
 003232 45E0 F88C      065C4        4743        BAL   XRSUB,FPLLN           SET FLAGS                            36224021
                                    4744        DROP  XRVAR                                                      36232021
 003236 4150 D520      085E8        4745        LA    XR5,X2VAL                                                  36240021
 00323A 9701 D505      085CD        4746          XI    X1IRX+NX1,XG2IRX                                         36248021
 00323E 9108 D505      085CD        4747 XOTE33   TM    X1IRX+NX1,XINREG                                         36256021
 003242 4710 95A4      0325A        4748        BC    XTHRE,XOTE34          OPERAND IS IN REG                    36264021
 003246 9504 D509      085D1        4749          CLI   X1BBS+NX1,XX04                                           36272021
 00324A 47C0 959C      03252        4750        BC    XLOEQ,XOTE35          LENGTH <= FOUR                       36280021
 00324E 9204 D17D      08245        4751          MVI   XPLUS1+NX2,XX04                                          36288021
 003252 9200 D48A      08552        4752 XOTE35   MVI   XREGNO,XX00                                              36296021
 003256 45E0 80FE      00F2E        4753          BAL   XRSUB,XSLGVX        GENERATE A LOAD INSTRUCTION          36304021
 00325A 9500 D50F      085D7        4754 XOTE34   CLI   X1ALP+NX1,XX00                                           36312021
 00325E 4780 95B4      0326A        4755        BC    XZERO,XOTE31          NO SCALING                           36320021
 003262 9204 D56B      08633        4756          MVI   XFBAS+NX1,XX04                                           36328021
 003266 45E0 8288      010B8        4757        BAL   XRSUB,XZSCL           SCALE OPERAND                        36336021
 00326A 9200 D48A      08552        4758 XOTE31   MVI   XREGNO,XX00                                              36344021
 00326E 45E0 80FE      00F2E        4759          BAL   XRSUB,XSLGVX        LOAD EXPONENT IN REG 0               36352021
 003272 D701 D50E D50E 085D6 085D6  4760          XC    X1ALP(LX2),X1ALP                                         36360021
 003278 9102 D482      0854A        4761        TM    XOPMOD,XFLOAT                                              36368021
 00327C 4710 94FE      031B4        4762        BC    XTHRE,XOTE64          FL PT OPERATION                      36376021
 003280 45E0 774E      0074E        4763 XOTE32 BAL   XRSUB,XSCAL           COMPILE TIME SCALE                   36384021
 003284 94F0 D504      085CC        4764          NI    X1IRX,XXF0                                               36392021
 003288 960C D504      085CC        4765        OI    X1IRX,XGINDC                                               36400021
 00328C 45E0 7DE0      00DE0        4766        BAL   XRSUB,XW000                CONVERT TO ID AND SCALE BAS     36408021
 003290 92D0 D14E      08216        4767          MVI   BDISP1,XXD0                                              36416021
 003294 9260 D14F      08217        4768          MVI   BDISP1+NX1,WORKA                                         36424021
1         EXPONENTIATION ANALYZER   E  X  P  O  N  E  N  T                                                      PAGE  113
-  LOC  OBJECT CODE    ADDR1 ADDR2  STMT   SOURCE STATEMENT                                       ASM 0201 11.03 02/14/15
0003298 1835                        4769        LR    XR3,XR5                                                    36432021
 00329A 4850 C892      07E22        4770        LH    XR5,XMINFV                                                 36440021
 00329E 45E0 780A      0080A        4771        BAL   XRSUB,XZSIDA          SET A-TEXT                           36448021
 0032A2 9210 D149      08211        4772          MVI   XL1+NX1,XX10                                             36456021
 0032A6 45E0 B000      01690        4773        BAL   XRSUB,ZAP                  ZAP  BASE                       36464021
 0032AA 45E0 8792      015C2        4774        BAL   XRSUB,VBADCE               CALL XPOWER                     36472021
 0032AE E7D7D9F0                    4775        DC    C'XPR0'                                                    36480021
 0032B2 D200 D161 D545 08229 0860D  4776          MVC   XCON1+NX1(LX1),X2DBS+NX1   GENERATE  DC'S                36488021
 0032B8 9200 D56F      08637        4777          MVI   XFDAS+NX1,XX00                                           36496021
 0032BC D200 D162 D43F 0822A 08507  4778          MVC   XCON1+NX2(LX1),XRDMX+NX1                                 36504021
 0032C2 D201 D56E D43E 08636 08506  4779          MVC   XFDAS(LX2),XRDMX                                         36512021
 0032C8 9202 D160      08228        4780          MVI   XCON1,XX02                                               36520021
 0032CC 9224 D189      08251        4781        MVI   XIMM,MDC                                                   36528021
 0032D0 45E0 BD8A      0241A        4782        BAL   XRSUB,MACRO           GENERATE MACRO                       36536021
 0032D4 4130 D558      08620        4783        LA    XR3,XFVAL                                                  36544021
 0032D8 45E0 8514      01344        4784        BAL   XRSUB,WKZAP1          GENERATE ZAP FROM WORK AREA          36552021
 0032DC 4150 D558      08620        4785        LA    XR5,XFVAL                                                  36560021
                                    4786 *                                                                       36568021
 0032E0 920C D574      0863C        4787        MVI   XFIRX,XGINDC                                               36576021
 0032E4 45E0 8496      012C6        4788        BAL   XRSUB,XSETOR          SET BUFFER TO MAX VALUES             36584021
 0032E8 47F0 94F6      031AC        4789        BC    UNCON,XOTE16          RESET BUFFER ADDRESSES               36592021
 0032EC 9204 D170      08238        4790 XOTE08   MVI   XCON1+NX16,XX04                                          36600021
 0032F0 5000 D16C      08234        4791          ST    RW0,XCON1+NX12                                           36608021
 0032F4 45E0 B000      01690        4792        BAL   XRSUB,LOAD            GENERATE A LOAD INSTRUCTION          36616021
 0032F8 47F0 95CA      03280        4793        BC    UNCON,XOTE32          COMPILE TIME SCALING                 36624021
1         DIVIDE ANALYZER         D  I  V  I  D  E                                                              PAGE  114
-  LOC  OBJECT CODE    ADDR1 ADDR2  STMT   SOURCE STATEMENT                                       ASM 0201 11.03 02/14/15
0003300                             4795 IKF50B CSECT                                                            36640021
                                    4796 *      XOTDIV  -  DIVIDE ANALYZER.                                      36648021
                                    4797 *                                                                       36656021
                                    4798 *                                                                       36664021
-
0
                             03300  4800        USING *,XRVERB                                                   36680021
 003300 45E0 79B4      009B4        4801 XOTDIV BAL   XRSUB,XOTSEL          GET OPERAND INFO INTO BUFFERS        36688021
 003304 9140 D48D      08555        4802          TM    XGNSW,DIVREM        DIVIDE REMAINDER               41562 36696021
 003308 4780 90CC      033CC        4803          BZ    XOTD00              NO                             41562 36704021
 00330C 9201 D624      086EC        4804          MVI   DIVREMSW,XX01                                      41562 36712021
 003310 4140 D5B8      08680        4805          LA    XR4,XQVAL                                          41562 36720021
 003314 4160 D5F0      086B8        4806          LA    XR6,XKVAL                                          41562 36728021
 003318 4110 0002      00002        4807          LA    XR1,DX2                                            41562 36736021
 00331C D76B D5B8 D5B8 08680 08680  4808          XC    XQVAL(XQKLEN),XQVAL                                41562 36744021
 003322                             4809 XOTD10   DS    0H                                                 41562 36752021
 003322 91D0 301D      0001D        4810          TM    Y1IRX+NX1(XR3),XZGNLT   LITERAL                    41562 36760021
 003326 4770 90C0      033C0        4811          BNZ   XOTD11                   YES                       41562 36768021
 00332A D233 4000 3000 00000 00000  4812          MVC   DX0(XLEVAL,XR4),DX0(XR3)                           41562 36776021
 003330 9500 3019      00019        4813          CLI   Y1TEL+NX1(XR3),XX00      IN TEMP STORAGE           41562 36784021
 003334 4780 906E      0336E        4814          BE    XOTD12                   NO                        41562 36792021
 003338 D201 D468 3018 08530 00018  4815          MVC   XELEN(LX2),Y1TEL(XR3)                              41562 36800021
 00333E 45E0 7848      00848        4816          BAL   XRSUB,XTAMPO             GET NEW TEMP STORAGE      41562 36808021
 003342 D201 D148 D442 08210 0850A  4817          MVC   XL1(LX2),XYTEL                                     41562 36816021
 003348 D201 D14A D446 08212 0850E  4818          MVC   XWC1(LX2),XEREL1                                   41562 36824021
 00334E D201 D190 3018 08258 00018  4819          MVC   XL2(LX2),Y1TEL(XR3)                                41562 36832021
 003354 4803 001A      0001A        4820          LH    XR0,Y1TEM(XR3)                                     41562 36840021
 003358 8B00 0003      00003        4821          SLA   XR0,DX3                                            41562 36848021
 00335C 4000 D192      0825A        4822          STH   XR0,XWC2                                           41562 36856021
 003360 45E0 B000      01690        4823          BAL   XRSUB,ZAP                GENERATE ZAP              41562 36864021
 003364 D203 4018 D442 00018 0850A  4824          MVC   Y1TEL(LX4,XR4),XYTEL                               41562 36872021
 00336A 47F0 90C0      033C0        4825          B     XOTD11              CHECK NEXT OPERAND             41562 36880021
 00336E                             4826 XOTD12   DS    0H                                                 41562 36888021
 00336E 1803                        4827          LR    XR0,XR3                                            41562 36896021
 003370 5833 0030      00030        4828          L     XR3,Y1INPT(XR3)                                    41562 36904021
 003374 45E0 802C      00E5C        4829          BAL   XRSUB,XLENGH        GET LENGTH                     41562 36912021
 003378 1830                        4830          LR    XR3,XR0                                            41562 36920021
 00337A D201 D468 D45A 08530 08522  4831          MVC   XELEN(LX2),XOPLGH+NX2                              41562 36928021
 003380 45E0 7848      00848        4832          BAL   XRSUB,XTAMPO        GET NEW TEMP STORAGE           41562 36936021
 003384 D201 D148 D442 08210 0850A  4833          MVC   XL1(LX2),XYTEL                                     41562 36944021
 00338A D201 D14A D446 08212 0850E  4834          MVC   XWC1(LX2),XEREL1                                   41562 36952021
 003390 D201 D192 D446 0825A 0850E  4835          MVC   XWC2(LX2),XEREL1                                   41562 36960021
 003396 45E0 BB06      02196        4836          BAL   XRSUB,EXORLG        GENERATE XC                    41562 36968021
 00339A D203 4018 D442 00018 0850A  4837          MVC   Y1TEL(LX4,XR4),XYTEL                               41562 36976021
 0033A0 4800 D442      0850A        4838          LH    XR0,XYTEL                                          41562 36984021
 0033A4 4B00 D45A      08522        4839          SH    XR0,XOPLGH+NX2                                     41562 36992021
 0033A8 D201 D148 D45A 08210 08522  4840          MVC   XL1(LX2),XOPLGH+NX2                                41562 37000021
 0033AE 4A00 D446      0850E        4841          AH    XR0,XEREL1                                         41562 37008021
 0033B2 4000 D14A      08212        4842          STH   XR0,XWC1                                           41562 37016021
 0033B6 D203 D138 3030 08200 00030  4843          MVC   OP1(LX4),Y1INPT(XR3)                               41562 37024021
 0033BC 45E0 B18C      0181C        4844          BAL   XRSUB,MVC           GENERATE MVC                   41562 37032021
 0033C0                             4845 XOTD11   DS    0H                                                 41562 37040021
1         DIVIDE ANALYZER         D  I  V  I  D  E                                                              PAGE  115
-  LOC  OBJECT CODE    ADDR1 ADDR2  STMT   SOURCE STATEMENT                                       ASM 0201 11.03 02/14/15
00033C0 45E0 7828      00828        4846          BAL   XRSUB,XZX3X5        SWITCH OPERANDS                41562 37048021
 0033C4 45E0 7830      00830        4847          BAL   XRSUB,XZX4X6        SWITCH OPERANDS                41562 37056021
 0033C8 4610 9022      03322        4848          BCT   XR1,XOTD10          CHECK NEXT OPERAND             41562 37064021
 0033CC 9102 D482      0854A        4849 XOTD00 TM    XOPMOD,XFLOAT                                              37072021
 0033D0 4710 92B6      035B6        4850        BC    XTHRE,XOTD01               FLOATING POINT MODE.            37080021
 0033D4 45E0 854A      0137A        4851        BAL   XRSUB,XMONDV               SET DMAX.                       37088021
                                    4852 *                                                                       37096021
 0033D8 9620 D482      0854A        4853        OI    XOPMOD,XDIVFL                                              37104021
                                    4854 *                                                                       37112021
                                    4855 *      XCTDIV  - COMPILE TIME DIVISION.                                 37120021
                                    4856 *                     NOTATION '   I1 =INTEGER OF DIVIDEND.             37128021
                                    4857 *                               DMAX  =MAX.NUMBER OF DECIMAL IN THE     37136021
                                    4858 *                                                          SOURCE F     37144021
                                    4859 *                               D1 DECIMAL OF DIVIDEND.                 37152021
                                    4860 *                               D2 DECIMAL OF DIVISOR.                  37160021
                                    4861 *                 RESULT AT OBJECT TIME WILL HAVE  D1-D2 DECIMAL PL     37168021
                                    4862 *                 IF  D1-D2 GREATER THAN DMAX,OR DMAX DECIMAL  OTHE     37176021
-
0
 0033DC 45E0 7828      00828        4864          BAL   XRSUB,XZX3X5        SWITCH OPERANDS                      37192021
 0033E0 45E0 774E      0074E        4865        BAL   XRSUB,XSCAL                X                               37200021
 0033E4 45E0 7828      00828        4866          BAL   XRSUB,XZX3X5        SWITCH OPERANDS                      37208021
 0033E8 D201 3016 3024 00016 00024  4867          MVC   Y1DAS(LX2,XR3),Y1DBS(XR3)                                37216021
 0033EE 4845 0024      00024        4868          LH    XR4,Y1DBS(XR5)                                           37224021
 0033F2 4B43 0024      00024        4869        SH    XR4,Y1DBS(XR3)             D1-D2                           37232021
 0033F6 4940 D43E      08506        4870        CH    XR4,XRDMX                  D1-D2 = DMAX                    37240021
 0033FA 47A0 9398      03698        4871        BC    XGTEQ,XCTD01               YES                             37248021
 0033FE D201 D56E D43E 08636 08506  4872          MVC   XFDAS(LX2),XRDMX          UPDATE DECIMALS OF RESULT.     37256021
 003404 4B40 D43E      08506        4873        SH    XR4,XRDMX                                                  37264021
 003408 1344                        4874        LCR   XR4,XR4                    D2+DMAX-D1                      37272021
 00340A 1864                        4875        LR    XR6,XR4                    SAVE THAT SCALING FACTOR IN     37280021
 00340C 4A65 0026      00026        4876        AH    XR6,Y1ALP(XR5)             SCALE  DIVIDEND.                37288021
 003410 4065 0026      00026        4877        STH   XR6,Y1ALP(XR5)             X                               37296021
 003414 45E0 774E      0074E        4878        BAL   XRSUB,XSCAL                X                               37304021
 003418 9102 501D      0001D        4879          TM    Y1IRX+NX1(XR5),XGOVFL     OVERFLOW.                      37312021
 00341C 4710 93AA      036AA        4880        BC    XTHRE,XCTD02               YES-                            37320021
 003420 4A45 0024      00024        4881        AH    XR4,Y1DBS(XR5)             UPDATE DECIMAL PLACES OF DI     37328021
 003424 4045 0016      00016        4882        STH   XR4,Y1DAS(XR5)             AFTER SCAL.                     37336021
0
 003428 F8FF D558 5000 08620 00000  4884 XCTD03   ZAP   XFVAL(LX16),DX0(LX16,XR5) SET RESULT INFORMATION.        37352021
 00342E D205 D568 5010 08630 00010  4885          MVC   XFLAS(LX6),Y1LAS(XR5)     X                              37360021
0
                             03434  4887 XCTDXT EQU   *                                                          37376021
 003434 45E0 7D80      00D80        4888        BAL   XRSUB,XRSVAL          RESET OPERAND BUFFER ADDRESSES       37384021
 003438 45E0 8576      013A6        4889        BAL   XRSUB,XHSMD1          SET MODE OF OPERATION                37392021
 00343C 91D0 D505      085CD        4890        TM    X1IRX+NX1,XZGNLT                                           37400021
 003440 4770 91B4      034B4        4891        BNZ   XOTD62                DIVISOR IS A LITERAL                 37408021
 003444 9102 D481      08549        4892        TM    XGSWT,XSIZER                                               37416021
 003448 4780 91B8      034B8        4893        BZ    XOTD60                NO SIZE ERROR OPTION IN SOURCE       37424021
 00344C 9500 D4FD      085C5        4894          CLI   X1FAS+NX1,XX00                                           37432021
1         DIVIDE ANALYZER         D  I  V  I  D  E                                                              PAGE  116
-  LOC  OBJECT CODE    ADDR1 ADDR2  STMT   SOURCE STATEMENT                                       ASM 0201 11.03 02/14/15
0003450 4770 915C      0345C        4895        BC    XNOEQ,XOTD67          NUMBER OF DIGITS NOT EQUAL TO 0      37440021
 003454 920F D188      08250        4896          MVI   XREG1,XX0F                                               37448021
 003458 47F0 9182      03482        4897        BC    UNCON,XOTD68          GENERATE BRANCH FOR SIZE ERROR       37456021
                             0345C  4898 XOTD67 EQU   *                                                          37464021
 00345C 910B D504      085CC        4899        TM    X1IRX,XGBINR                                               37472021
 003460 4710 91A0      034A0        4900        BC    XTHRE,XOTD61               CHECK FOR ZERO DIVISOR          37480021
 003464 F8F0 D1A8 C80F 08270 07D9F  4901 XOTD65   ZAP   XCON2(LX16),XINDCZ(LX1)   ONLY IF ON SIZE ERROR          37488021
 00346A 9201 D1B8      08280        4902          MVI   XCON2+NX16,XX01           IS SPECIFOED,IN WHICH          37496021
 00346E 9201 D191      08259        4903          MVI   XL2+NX1,XX01                                             37504021
 003472 4850 C88E      07E1E        4904        LH    XR5,XMINTH                 CASE BRANCH TO ON SIZE          37512021
 003476 45E0 7802      00802        4905        BAL   XRSUB,XZSIDB               ERROR CODING IF                 37520021
 00347A 45E0 BAB2      02142        4906        BAL   XRSUB,COMP                 DIVISOR IS ACTUALLY ZERO.       37528021
 00347E 9208 D188      08250        4907 XOTD63 MVI   XREG1,XZERO                                                37536021
 003482 4520 84AE      012DE        4908 XOTD68 BAL   XR2,XZRDVV            ASSIGN TRANSFER IF NEEDED            37544021
 003486 D201 D172 D496 0823A 0855E  4909          MVC   XGN1(LX2),XZRTRA                                         37552021
 00348C 45E0 BC10      022A0        4910        BAL   XRSUB,BC              GENERATE BC                          37560021
 003490 4150 D520      085E8        4911        LA    XR5,X2VAL                                                  37568021
 003494 9102 D482      0854A        4912        TM    XOPMOD,XFLOAT                                              37576021
 003498 4710 92E6      035E6        4913        BC    XTHRE,XOTD09          FL PT OPERATION                      37584021
 00349C 47F0 91B8      034B8        4914        BC    UNCON,XOTD60          CHECK MODE FOR DIVIDE                37592021
 0034A0 41E0 9164      03464        4915 XOTD61 LA    XRSUB,XOTD65                                               37600021
 0034A4 9504 D509      085D1        4916          CLI   X1BBS+NX1,XX04                                           37608021
 0034A8 4720 82CA      010FA        4917        BC    XTWO,XBIIDB           BIN DIVISOR > FWD CONVERT TO ID      37616021
 0034AC 4510 8478      012A8        4918        BAL   XR1,XLTRGN                   LTR  XRN,XRN                  37624021
 0034B0 47F0 917E      0347E        4919        BC    UNCON,XOTD63          GENERATE BC                          37632021
                                    4920 *                                                                       37640021
                                    4921 *                                                                       37648021
 0034B4 45E0 9372      03672        4922 XOTD62 BAL   XRSUB,XODOVF          CHECK FOR ZERO DIVISOR               37656021
                             034B8  4923 XOTD60 EQU   *                                                          37664021
 0034B8 9120 D481      08549        4924        TM    XGSWT,XIDMOD                                               37672021
 0034BC 4710 91FE      034FE        4925        BC    XTHRE,XOTD02               GO TO ID DIVIDE                 37680021
0
 0034C0 45E0 7B0A      00B0A        4927        BAL   XRSUB,XBISCD               BINARY DIVIDE - SCALE           37696021
 0034C4 45E0 7828      00828        4928        BAL   XRSUB,XZX3X5          SWITCH OPERANDS                      37704021
 0034C8 45E0 80F6      00F26        4929        BAL   XRSUB,XSLODB               MAKE SURE DIVIDEND IS IN A      37712021
 0034CC 9502 D4FB      085C3        4930          CLI   X1BAS+NX1,XX02                                           37720021
 0034D0 4720 91E0      034E0        4931        BC    XTWO,XOTD06           LENGTH > HALFWORD                    37728021
 0034D4 45E0 7828      00828        4932        BAL   XRSUB,XZX3X5          SWITCH OPERANDS                      37736021
 0034D8 45E0 8106      00F36        4933        BAL   XRSUB,XSLOAS          GENERATE A LOAD INSTRUCTION          37744021
 0034DC 45E0 7828      00828        4934        BAL   XRSUB,XZX3X5          SWITCH OPERANDS                      37752021
 0034E0 45E0 77FA      007FA        4935 XOTD06 BAL   XRSUB,XZBINA               SET A- TEXT                     37760021
 0034E4 45E0 BAC2      02152        4936        BAL   XRSUB,D                      DIVIDE.                       37768021
 0034E8 920B D574      0863C        4937          MVI   XFIRX,XX0B                                               37776021
 0034EC 4510 7D8A      00D8A        4938        BAL   XR1,XODDRG            GET ODD REG TBL OF EVEN-ODD PAIR     37784021
 0034F0 F100 D574 4003 0863C 00003  4939          MVO   XFIRX(LX1),DX3(LX1,XR4)                                  37792021
 0034F6 9608 D575      0863D        4940          OI    XFIRX+NX1,XINREG                                         37800021
 0034FA 47F0 7B5E      00B5E        4941 XOTD08 BC    UNCON,XFINAL          STORE IR                             37808021
0
                                    4943 *                                                                       37824021
0
 0034FE 45E0 7DE0      00DE0        4945 XOTD02 BAL   XRSUB,XW000                SCALE.                          37840021
 003502 9102 501D      0001D        4946          TM    Y1IRX+NX1(XR5),XGOVFL                                    37848021
1         DIVIDE ANALYZER         D  I  V  I  D  E                                                              PAGE  117
-  LOC  OBJECT CODE    ADDR1 ADDR2  STMT   SOURCE STATEMENT                                       ASM 0201 11.03 02/14/15
0003506 4710 930A      0360A        4947        BC    XTHRE,XOTD03               DP DIVISION ROUTINE. 30 INT     37856021
 00350A 9508 3011      00011        4948          CLI   Y1LAS+NX1(XR3),XX08                                      37864021
 00350E 4720 9342      03642        4949        BC    XTWO,XOTD04                DP DIVISION,DIVISOR GREATER     37872021
                                    4950 *                                       THAN 8 BYTES.                   37880021
 003512 4845 0010      00010        4951        LH    XR4,Y1LAS(XR5)             SINGLE PRECISION DIVIDE.        37888021
 003516 1864                        4952        LR    XR6,XR4                                                    37896021
 003518 4A43 0010      00010        4953        AH    XR4,Y1LAS(XR3)                                             37904021
 00351C 4940 C876      07E06        4954        CH    XR4,XC016                                                  37912021
 003520 4720 9342      03642        4955        BC    XTWO,XOTD05                L1+L2 GREATER THAN 16 GO TO     37920021
 003524 45E0 83E6      01216        4956        BAL   XRSUB,LTLTST          ARE BOTH OPERANDS LITERALS           37928021
 003528 47F0 926E      0356E        4957        BC    UNCON,XOTD07          NO                                   37936021
 00352C 9102 D481      08549        4958        TM    XGSWT,XSIZER                                               37944021
 003530 4710 9238      03538        4959        BC    XTHRE,XOTD70          SIZE ERROR IS IN SOURCE              37952021
 003534 45E0 9372      03672        4960        BAL   XRSUB,XODOVF          TEST FOR POSSIBLE SIZE ERROR         37960021
                             03538  4961 XOTD70 EQU   *                                                          37968021
 003538 4823 0010      00010        4962        LH    XR2,Y1LAS(XR3)             BOTH OPERANDS ARE NUM. LITE     37976021
 00353C 4160 0010      00010        4963          LA    XR6,DX16                                                 37984021
 003540 1B62                        4964        SR    XR6,XR2                    16- LENGTH DIVISOR.             37992021
 003542 1A36                        4965        AR    XR3,XR6                                                    38000021
 003544 0620                        4966        BCTR  XR2,RW0               SUBTRACT ONE FOR EX INSTRUCTION      38008021
 003546 4420 9366      03666        4967        EX    XR2,XOTDP                 DIVIDE                           38016021
 00354A 0660                        4968        BCTR  XR6,RW0               SUBTRACT ONE FOR EX INSTRUCTION      38024021
 00354C 4460 936C      0366C        4969        EX    XR6,XOTZAP                ZAP                              38032021
 003550 4130 D4E8      085B0        4970        LA    XR3,X1VAL                                                  38040021
 003554 45E0 843C      0126C        4971          BAL   XRSUB,XSETLT        SET FLAGS IN RESULT BUFFER           38048021
 003558 4150 D558      08620        4972        LA    XR5,XFVAL                                                  38056021
 00355C 45E0 7648      00648        4973        BAL   XRSUB,XIDSZ           GET LENGTHS OF OPERAND               38064021
 003560 D205 D568 D450 08630 08518  4974          MVC   XFLAS(LX6),XIDBY                                         38072021
 003566 4150 D520      085E8        4975        LA    XR5,X2VAL                                                  38080021
 00356A 47F0 91FA      034FA        4976        BC    UNCON,XOTD08          STORE IR                             38088021
                             0356E  4977 XOTD07 EQU   *                                                          38096021
 00356E 4240 D485      0854D        4978        STC   XR4,XYLEN                  OBJECT TIME SUBROUTINE.         38104021
 003572 45E0 7828      00828        4979        BAL   XRSUB,XZX3X5          SWITCH OPERANDS                      38112021
 003576 45E0 7CFE      00CFE        4980        BAL   XRSUB,XYOAF                LOAD DIVIDEND IN   TEMP (L1     38120021
 00357A 4043 0010      00010        4981        STH   XR4,Y1LAS(XR3)                                             38128021
 00357E 45E0 780A      0080A        4982        BAL   XRSUB,XZSIDA               SET  A-TEXT.                    38136021
 003582 45E0 BAC2      02152        4983        BAL   XRSUB,DP                   GENERATE DP.  -QUOTIENT IS      38144021
                                    4984 *                                       LEFT ADJUSTED IN DIVIDEND F     38152021
                                    4985 *                                       SO IT HAS TO BE RIGHT ADJUS     38160021
 003586 45E0 7DC0      00DC0        4986        BAL   XRSUB,XEWCL           SET LENGTH AND DISPLACEMENT          38168021
 00358A D201 D148 D442 08210 0850A  4987          MVC   XL1(LX2),XYTEL            X                              38176021
 003590 D201 D14A D446 08212 0850E  4988          MVC   XWC1(LX2),XEREL1          ZAP   TEMP(L1+L2+A),TEMP(L1    38184021
 003596 4820 D446      0850E        4989        LH    XR2,XEREL1                                                 38192021
 00359A 4A23 0018      00018        4990        AH    XR2,Y1TEL(XR3)                                             38200021
 00359E 1B24                        4991        SR    XR2,XR4                                                    38208021
 0035A0 4020 D192      0825A        4992        STH   XR2,XWC2                                                   38216021
 0035A4 4060 D190      08258        4993        STH   XR6,XL2                    X                               38224021
 0035A8 D204 D570 3018 08638 00018  4994          MVC   XFTEL(LX5),Y1TEL(XR3)                                    38232021
 0035AE 45E0 B000      01690        4995        BAL   XRSUB,ZAP                  X                               38240021
 0035B2 47F0 91FA      034FA        4996        BC    UNCON,XOTD08          STORE IR                             38248021
                                    4997 *                                                                       38256021
                                    4998 *                                                                       38264021
                                    4999 *                                                                       38272021
                                    5000 *  FLOATING-POINT DIVIDE.                                               38280021
                                    5001 *                                                                       38288021
1         DIVIDE ANALYZER         D  I  V  I  D  E                                                              PAGE  118
-  LOC  OBJECT CODE    ADDR1 ADDR2  STMT   SOURCE STATEMENT                                       ASM 0201 11.03 02/14/15
00035B6 45E0 834E      0117E        5002 XOTD01 BAL   XRSUB,FPCVBG          MAKE OPERANDS SAME FL PT FORMAT      38296021
 0035BA 9102 D481      08549        5003        TM    XGSWT,XSIZER                                               38304021
 0035BE 4780 92E6      035E6        5004        BC    XZERO,XOTD09          NO SIZE ERROR IN SOURCE              38312021
 0035C2 45E0 811C      00F4C        5005        BAL   XRSUB,FPLOAD          GENERATE A FL PT LOAD INST           38320021
 0035C6 F200 D188 301C 08250 0001C  5006          PACK  XREG1(LX1),Y1IRX(LX1,XR3)                                38328021
 0035CC 940F D188      08250        5007          NI    XREG1,XX0F                                               38336021
 0035D0 D200 D1D0 D188 08298 08250  5008          MVC   XREG2(LX1),XREG1          CHECK FOR ZERO DIVISOR         38344021
 0035D6 41E0 917E      0347E        5009        LA    XRSUB,XOTD63               IN CASE OF ON SIZE ERROR.       38352021
 0035DA 9101 301D      0001D        5010          TM    Y1IRX+NX1(XR3),XG2IRX                                    38360021
 0035DE 4710 BE22      024B2        5011        BC    XTHRE,LDTSTL          GENERATE A DP FL PT LTR              38368021
 0035E2 47F0 BE2A      024BA        5012        BC    UNCON,LDTSTS          GENERATE A FL PT LTR                 38376021
                             035E6  5013 XOTD09 EQU   *                                                          38384021
 0035E6 45E0 7828      00828        5014        BAL   XRSUB,XZX3X5          SWITCH OPERANDS                      38392021
 0035EA 45E0 811C      00F4C        5015        BAL   XRSUB,FPLOAD          GENERATE A FL PT LOAD INST           38400021
 0035EE 45E0 77DA      007DA        5016        BAL   XRSUB,FPSETA          SET A-TEXT                           38408021
 0035F2 41E0 9302      03602        5017        LA    XRSUB,XOTDF0                                               38416021
 0035F6 9104 301D      0001D        5018          TM    Y1IRX+NX1(XR3),XGDPFP                                    38424021
 0035FA 4710 BDF2      02482        5019        BC    XTHRE,DIVFLL          GENERATE A DP FL PT DIVIDE           38432021
 0035FE 47F0 BDEA      0247A        5020        BC    UNCON,DIVFLS          GENERATE A FL PT DIVIDE              38440021
 003602 45E0 837E      011AE        5021 XOTDF0 BAL   XRSUB,FPRESF          SET OPERAND BUFFER FLAGS             38448021
 003606 47F0 91FA      034FA        5022        BC    UNCON,XOTD08          STORE IR                             38456021
0
                                    5024 *                                                                       38472021
                                    5025 *                                                                       38480021
                             0360A  5026 XOTD03 EQU   *                          CALL TO OBJECT TIME SUB FOR     38488021
                                    5027 *                                            DIVISION OF A 30 DIGIT     38496021
                                    5028 *                                       FIELD INTO A 60 DIGITS FIEL     38504021
                                    5029 *                                                                       38512021
 00360A 9290 D14F      08217        5030          MVI   BDISP1+NX1,WORKC                                         38520021
 00360E 45E0 8582      013B2        5031        BAL   XRSUB,XDPZAP          GENERATE ZAP INTO WORK AREA          38528021
 003612 45E0 8792      015C2        5032        BAL   XRSUB,VBADCE          CALL DIVIDE SUBROUTINE               38536021
 003616 E7C4C9F0                    5033        DC    C'XDI0'                                                    38544021
 00361A 4110 00A0      000A0        5034        LA    XR1,WORKD                                                  38552021
 00361E 4520 85B6      013E6        5035        BAL   XR2,XZPDPR            GENERATE ZAP OUT OF WORK AREA        38560021
 003622 9102 D575      0863D        5036          TM    XFIRX+NX1,XGOVFL                                         38568021
 003626 4780 91FA      034FA        5037        BC    XZERO,XOTD08          NO OVERFLOW STORE IR                 38576021
 00362A D201 D14A D446 08212 0850E  5038          MVC   XWC1(LX2),XEREL1                                         38584021
 003630 920F D189      08251        5039          MVI   XIMM,XX0F                                                38592021
 003634 45E0 BB3E      021CE        5040        BAL   XRSUB,NI              GENERATE NI                          38600021
                                    5041 *                                                                       38608021
                                    5042 *      WARNING - POSSIBLE TRUNCATION.                                   38616021
                                    5043 *                                                                       38624021
 003638 45E0 7AC0      00AC0        5044        BAL   XRSUB,ERRPRO          GENERATE TRUNCATION MESSAGE          38632021
 00363C 0B                          5045        DC    AL1(ERRN11)                                                38640021
 00363D 00                          5046        DC    AL1(0)                                                     38648021
 00363E 47F0 91FA      034FA        5047        BC    UNCON,XOTD08          STORE IR                             38656021
                             03642  5048 XOTD04 EQU   *                          DP DIVIDE DIVISOR GREATER       38664021
                             03642  5049 XOTD05 EQU   *                                                          38672021
                                    5050 *                                       THAN 15 DIGITS.                 38680021
                                    5051 *                                                                       38688021
                                    5052 *                                                                       38696021
                                    5053 *                                       OR  L DVD+L DVS GREATER THA     38704021
                                    5054 *                                       16.                             38712021
 003642 45E0 85A0      013D0        5055        BAL   XRSUB,XBDSET          SET A-TEXT                           38720021
1         DIVIDE ANALYZER         D  I  V  I  D  E                                                              PAGE  119
-  LOC  OBJECT CODE    ADDR1 ADDR2  STMT   SOURCE STATEMENT                                       ASM 0201 11.03 02/14/15
0003646 9260 D14F      08217        5056          MVI   BDISP1+NX1,WORKA                                         38728021
 00364A 9260 D197      0825F        5057          MVI   BDISP2+NX1,WORKA                                         38736021
 00364E 45E0 BB06      02196        5058        BAL   XRSUB,EXORLG          GENERATE XC                          38744021
 003652 45E0 7828      00828        5059        BAL   XRSUB,XZX3X5          SWITCH OPERANDS                      38752021
 003656 9270 D14F      08217        5060          MVI   BDISP1+NX1,WORKB                                         38760021
 00365A 45E0 8582      013B2        5061        BAL   XRSUB,XDPZAP          GENERATE ZAP INTO WORK AREA          38768021
 00365E 45E0 7828      00828        5062        BAL   XRSUB,XZX3X5          SWITCH OPERANDS                      38776021
 003662 47F0 930A      0360A        5063        BC    UNCON,XOTD03          CALL DIVIDE SUBROUTINE               38784021
                                    5064 *                                                                       38792021
                                    5065 *                                                                       38800021
                                    5066 *                                                                       38808021
                                    5067 *                                                                       38816021
 003666 FDF0 5000 3000 00000 00000  5068 XOTDP    DP    DX0(LX16,XR5),DX0(LX0,XR3)                               38824021
 00366C F8F0 D558 5000 08620 00000  5069 XOTZAP   ZAP   XFVAL(LX16),DX0(LX0,XR5)                                 38832021
 003672 F9F0 D4E8 C80F 085B0 07D9F  5070 XODOVF   CP    X1VAL(LX16),XINDCZ(LX1)                                  38840021
 003678 077E                        5071        BCR   XNOEQ,XRSUB           LITERAL NOT EQUAL TO ZERO            38848021
 00367A 4150 D558      08620        5072        LA    XR5,XFVAL                                                  38856021
 00367E 45E0 8496      012C6        5073        BAL   XRSUB,XSETOR          SET RESULT BUFFER TO MAX             38864021
 003682 4150 D520      085E8        5074        LA    XR5,X2VAL                                                  38872021
 003686 920C D574      0863C        5075        MVI   XFIRX,XGINDC                                               38880021
 00368A 9650 D575      0863D        5076          OI    XFIRX+NX1,XGCOLT                                         38888021
                                    5077 *                                                                       38896021
                                    5078 *--------------- GIVE A MESSAGE  ZERO LITERAL DIVISOR.                  38904021
                                    5079 *                                                                       38912021
                                    5080 *      ERROR NUMBER 3.                                                  38920021
                                    5081 *                                                                       38928021
 00368E 45E0 7AC0      00AC0        5082        BAL   XRSUB,ERRPRO          GENERATE ZERO DIVISOR MESSAGE        38936021
 003692 03                          5083        DC    AL1(ERRN03)                                                38944021
 003693 01                          5084        DC    AL1(1)                                                     38952021
 003694 47F0 91FA      034FA        5085        BC    UNCON,XOTD08          STORE IR                             38960021
0
 003698 4040 D56E      08636        5087 XCTD01 STH   XR4,XFDAS                  D1-D2 DECIMAL PLACES.           38976021
 00369C D201 5016 5024 00016 00024  5088          MVC   Y1DAS(LX2,XR5),Y1DBS(XR5)                                38984021
 0036A2 45E0 774E      0074E        5089        BAL   XRSUB,XSCAL                X                               38992021
 0036A6 47F0 9128      03428        5090        BC    UNCON,XCTD03               X                               39000021
0
                             036AA  5092 XCTD02 EQU   *                                                          39016021
 0036AA 1865                        5093        LR    XR6,XR5                    UPDATE RESULT                   39024021
 0036AC 4150 D558      08620        5094        LA    XR5,XFVAL                  INFORMATION FOR OVERFLOW CA     39032021
 0036B0 45E0 8496      012C6        5095        BAL   XRSUB,XSETOR          SET RESULT BUFFER TO MAX             39040021
 0036B4 1856                        5096        LR    XR5,XR6                                                    39048021
0
 0036B6 4865 0026      00026        5098        LH    XR6,Y1ALP(XR5)                                             39064021
 0036BA 1B64                        5099        SR    XR6,XR4                    P'S+SCALING FACTOR - P'S =      39072021
 0036BC 4A65 0022      00022        5100        AH    XR6,Y1FBS(XR5)                                             39080021
 0036C0 4B65 0024      00024        5101        SH    XR6,Y1DBS(XR5)                                             39088021
 0036C4 4740 9464      03764        5102        BC    XONE,XCTD0V           INT CANNOT BE NEG SET TO ZERO        39096021
                             036C8  5103 XCTD1V EQU   *                                                          39104021
 0036C8 1816                        5104        LR    XR1,XR6                    XR1 = I1                        39112021
 0036CA 4A45 0024      00024        5105        AH    XR4,Y1DBS(XR5)             XR4 = D2+DMAX                   39120021
 0036CE 1A64                        5106        AR    XR6,XR4                    I1+D2+DMAX                      39128021
 0036D0 4960 C882      07E12        5107        CH    XR6,XC060                                                  39136021
1         DIVIDE ANALYZER         D  I  V  I  D  E                                                              PAGE  120
-  LOC  OBJECT CODE    ADDR1 ADDR2  STMT   SOURCE STATEMENT                                       ASM 0201 11.03 02/14/15
00036D4 4720 93FA      036FA        5108        BC    XTWO,XCTD04           DIVIDEND GREATER THAN 60 DIGITS      39144021
0
 0036D8 4045 0016      00016        5110 XCTD06 STH   XR4,Y1DAS(XR5)             I1+D2+DMAX LESS THAN 60         39160021
 0036DC 92FF 5013      00013        5111          MVI   Y1BAS+NX1(XR5),XXFF       UPDATE CHAR. OF DIVIDEND AF    39168021
 0036E0 1A41                        5112        AR    XR4,XR1                    SCALING.                        39176021
 0036E2 4B45 002E      0002E        5113        SH    XR4,Y1IND(XR5)             XR4= D2+DMAX+I1 -INTEGER  T     39184021
 0036E6 4045 0014      00014        5114        STH   XR4,Y1FAS(XR5)                                  DROPPE     39192021
 0036EA 8A40 0001      00001        5115          SRA   XR4,DX1                                                  39200021
 0036EE 4144 0001      00001        5116          LA    XR4,DX1(XR4)              SET ID LENGTH.                 39208021
 0036F2 4045 0010      00010        5117        STH   XR4,Y1LAS(XR5)             X                               39216021
 0036F6 47F0 9134      03434        5118        BC    UNCON,XCTDXT               X                               39224021
0
 0036FA D501 3024 D43E 00024 08506  5120 XCTD04   CLC   Y1DBS(LX2,XR3),XRDMX      IS D2 GREATER THAN DMAX.       39240021
 003700 4720 9414      03714        5121        BC    XTWO,XCTD05                YES -                           39248021
 003704 1824                        5122        LR    XR2,XR4                    NO,                             39256021
 003706 4B20 C882      07E12        5123        SH    XR2,XC060                  D2+DMAX-60                      39264021
 00370A 1A21                        5124        AR    XR2,XR1                    I1-(60-D2-DMAX) INTEGER TO      39272021
 00370C 4025 002E      0002E        5125        STH   XR2,Y1IND(XR5)             DROPPED BEFORE SCALING DVD.     39280021
 003710 47F0 93D8      036D8        5126        BC    UNCON,XCTD06               X                               39288021
0
 003714 4B63 0024      00024        5128 XCTD05 SH    XR6,Y1DBS(XR3)             D2IS GREATER THAN DMAX.         39304021
 003718 1826                        5129        LR    XR2,XR6                    I1+DMAX                         39312021
 00371A 4A60 D43E      08506        5130        AH    XR6,XRDMX                  I1+DMAX+DMAX                    39320021
 00371E 4960 C882      07E12        5131        CH    XR6,XC060                  IS  I1+2DMAX GREATER THAN 6     39328021
 003722 4720 944C      0374C        5132        BC    XTWO,XCTD07                YES-                            39336021
 003726 4B20 C882      07E12        5133        SH    XR2,XC060                  NO,                             39344021
 00372A 4A23 0024      00024        5134        AH    XR2,Y1DBS(XR3)             XR2 HAS NUMBER OF DECIMAL T     39352021
                                    5135 *                                       DROPPED FROM DIVISOR=D2-(60     39360021
                                    5136 *                                       DMAX).                          39368021
 00372E 1801                        5137 XCTD08 LR    XR0,XR1                                                    39376021
 003730 45E0 7718      00718        5138        BAL   XRSUB,XADJCT          UPDATE DIVIDEND BUFFER               39384021
 003734 1810                        5139        LR    XR1,XR0                                                    39392021
 003736 4840 D43E      08506        5140        LH    XR4,XRDMX                                                  39400021
 00373A 4A43 0016      00016        5141        AH    XR4,Y1DAS(XR3)             ADJUST DIVD. SCALING FACTOR     39408021
 00373E 4865 0026      00026        5142        LH    XR6,Y1ALP(XR5)             X                               39416021
 003742 1B62                        5143        SR    XR6,XR2                    X                               39424021
 003744 4065 0026      00026        5144        STH   XR6,Y1ALP(XR5)             X                               39432021
 003748 47F0 93D8      036D8        5145        BC    UNCON,XCTD06               X                               39440021
0
 00374C 4823 0024      00024        5147 XCTD07 LH    XR2,Y1DBS(XR3)                                             39456021
 003750 4B20 D43E      08506        5148        SH    XR2,XRDMX                  D2-DMAX                         39464021
 003754 1B42                        5149        SR    XR4,XR2                    D2+DMAX-(D2-DMAX)= 2DMAX        39472021
 003756 4B40 C882      07E12        5150        SH    XR4,XC060                  -(60-2DMAX)                     39480021
 00375A 1A41                        5151        AR    XR4,XR1                                                    39488021
 00375C 4045 002E      0002E        5152        STH   XR4,Y1IND(XR5)             X                               39496021
 003760 47F0 942E      0372E        5153        BC    UNCON,XCTD08               ADJUST DIVISOR.                 39504021
 003764 1B66                        5154 XCTD0V SR    XR6,XR6                                                    39512021
 003766 47F0 93C8      036C8        5155        BC    UNCON,XCTD1V          CHECK FOR DIVIDEND > 60 DIGITS       39520021
                                    5156 *                                                                       39528021
                                    5157 *                                                                       39536021
1         ADD AND SUBTRACT ANALYZER    A  D  D / S  U  B  T  R  A  C  T                                         PAGE  121
-  LOC  OBJECT CODE    ADDR1 ADDR2  STMT   SOURCE STATEMENT                                       ASM 0201 11.03 02/14/15
0                                   5159 *            ADD , OR , SUB ANALYZER.                                   39560021
                                    5160 *                                                                       39568021
                                    5161 *                                                                       39576021
-
0
                             0376A  5163        USING *,XRVERB                                                   39592021
 00376A 1B11                        5164 XOTADD SR    RW1,RW1                                                    39600021
 00376C 47F0 9008      03772        5165        BC    UNCON,X0TDDD          THIS IS AN ADD OPERATION             39608021
-
                             03770  5167        USING *,XRVERB                                                   39624021
 003770 1819                        5168 XOTSUB LR    RW1,GXRA                                                   39632021
-
 003772 05F0                        5170 X0TDDD BALR  XRVAR,RW0             SET UP ADDRESSABILITY                39648021
                             03774  5171        USING *,XRVAR                                                    39656021
 003774 45E0 79B4      009B4        5172 XOTDDD BAL   XRSUB,XOTSEL          GET OPERAND INFO INTO BUFFERS        39664021
 003778 1211                        5173        LTR   RW1,RW1                                                    39672021
 00377A 4780 F00E      03782        5174        BC    XZERO,XOTA00          ADD OPERATION                        39680021
 00377E 9640 D482      0854A        5175        OI    XOPMOD,XXSUB                                               39688021
 003782 9102 D482      0854A        5176 XOTA00 TM    XOPMOD,XFLOAT              IS IT FLOATING POINT.           39696021
 003786 4710 F378      03AEC        5177        BC    XTHRE,XOTA01               YES-                            39704021
                                    5178 *                                                                       39712021
                             0378A  5179 XOTCMP EQU   *                          ENTRY FROM COMPARE ROUTINE      39720021
 00378A D100 D492 D4F7 0855A 085BF  5180          MVN   X1TYP(LX1),X1VAL+NX15             MAKE                   39728021
 003790 D100 D493 D52F 0855B 085F7  5181          MVN   X2TYP(LX1),X2VAL+NX15      SURE THAT NAX. VALUE OF OPE   39736021
 003796 45E0 83E6      01216        5182        BAL   XRSUB,LTLTST          ARE BOTH OPERANDS LITERALS           39744021
 00379A 47F0 F02E      037A2        5183        BC    UNCON,XOTABR          NO                                   39752021
 00379E 47F0 F036      037AA        5184        BC    UNCON,XOTABQ          YES                                  39760021
                             037A2  5185 XOTABR EQU   *                                                          39768021
 0037A2 960F D4F7      085BF        5186          OI    X1VAL+NX15,XX0F           HAVE A + SIGN FOR COMPILE      39776021
 0037A6 960F D52F      085F7        5187          OI    X2VAL+NX15,XX0F           TIME ARITHMETIC.               39784021
                             037AA  5188 XOTABQ EQU   *                                                          39792021
-
0
                                    5190 *      XA000    - SCALES TWO OPERANDS FOR ADDITION AND NUMERIC COMP     39808021
                                    5191 *               - AT COMPILE TIME ARITHMETIC.COMPUTE THE MAX.LENGHT     39816021
                                    5192 *               - OPERANDS WILL HAVE AFTER SCALING AT OBJECT TIME.      39824021
                                    5193 *               - DETERMINES IF AN OVERFLOW CAN OCCUR AT OBJECT TIM     39832021
                                    5194 *               - DURING SCALING.                                       39840021
-
0
                                    5196 *                                                                       39856021
                                    5197 *  ALIGN OPERAND WHICH HAS THE LEAST DECIMAL PLACES.                    39864021
1         ADD AND SUBTRACT ANALYZER    A  D  D / S  U  B  T  R  A  C  T                                         PAGE  122
-  LOC  OBJECT CODE    ADDR1 ADDR2  STMT   SOURCE STATEMENT                                       ASM 0201 11.03 02/14/15
0                                   5198 *                                                                       39872021
 0037AA D501 3024 5024 00024 00024  5199          CLC   Y1DBS(LX2,XR3),Y1DBS(XR5)                                39880021
 0037B0 47A0 F044      037B8        5200        BC    XGTEQ,XA001           DEC IN 1ST OP >= DEC IN 2ND OP       39888021
 0037B4 45E0 7828      00828        5201        BAL   XRSUB,XZX3X5          SWITCH OPERANDS                      39896021
 0037B8 4863 0024      00024        5202 XA001  LH    XR6,Y1DBS(XR3)                                             39904021
 0037BC 4B65 0024      00024        5203        SH    XR6,Y1DBS(XR5)                                             39912021
 0037C0 4A65 0026      00026        5204        AH    XR6,Y1ALP(XR5)                                             39920021
 0037C4 4065 0026      00026        5205        STH   XR6,Y1ALP(XR5)                                             39928021
 0037C8 D201 5016 3024 00016 00024  5206          MVC   Y1DAS(LX2,XR5),Y1DBS(XR3)                                39936021
 0037CE 45E0 774E      0074E        5207        BAL   XRSUB,XSCAL           SCALE OPERAND                        39944021
 0037D2 9102 501D      0001D        5208          TM    Y1IRX+NX1(XR5),XGOVFL                                    39952021
 0037D6 4710 F3C0      03B34        5209        BC    XTHRE,XA003           OVERFLOW IN SCALING                  39960021
 0037DA 45E0 7828      00828        5210 XA005  BAL   XRSUB,XZX3X5          SWITCH OPERANDS                      39968021
 0037DE 45E0 774E      0074E        5211        BAL   XRSUB,XSCAL           SCALE OPERAND                        39976021
 0037E2 D201 5016 5024 00016 00024  5212          MVC   Y1DAS(LX2,XR5),Y1DBS(XR5)                                39984021
                             037E8  5213 XAEXIT EQU   *                                                          39992021
 0037E8 45E0 7D80      00D80        5214        BAL   XRSUB,XRSVAL          RESET OPERAND BUFFER ADDRESSES       40000021
-
0
                                    5216 *      XCTADD  - COMPILE TIME ARITHMETIC FOR ADD. OPERAND IN XR3 AN     40016021
                                    5217 *              - XRS ALREADY SCALED.                                    40024021
-
0
 0037EC D201 D56E 3016 08636 00016  5219          MVC   XFDAS(LX2),Y1DAS(XR3)                                    40040021
 0037F2 9102 D505      085CD        5220          TM    X1IRX+NX1,XGOVFL                                         40048021
 0037F6 4710 F402      03B76        5221        BC    XTHRE,XCTA01          OVERFLOW IN SCALING 1ST OPER         40056021
 0037FA 9102 D53D      08605        5222          TM    X2IRX+NX1,XGOVFL                                         40064021
 0037FE 4710 F402      03B76        5223        BC    XTHRE,XCTA01          OVERFLOW IN SCALING 2ND OPER         40072021
                                    5224 *                                       RESULT                          40080021
 003802 F8FF D558 D520 08620 085E8  5225          ZAP   XFVAL(LX16),X2VAL(LX16)                                  40088021
 003808 45E0 83E6      01216        5226        BAL   XRSUB,LTLTST          ARE BOTH OPERANDS LITERALS           40096021
 00380C 47F0 F0AE      03822        5227        BC    UNCON,XCTA02          NO                                   40104021
 003810 9140 D482      0854A        5228        TM    XOPMOD,XXSUB                                               40112021
 003814 4780 F0AE      03822        5229        BC    XZERO,XCTA02          THIS OPERATION IS AN ADDITION        40120021
 003818 FBFF D558 D4E8 08620 085B0  5230          SP    XFVAL(LX16),X1VAL(LX16)                                  40128021
 00381E 47F0 F0B4      03828        5231        BC    UNCON,XCTA03          GET SIZES OF RESULT                  40136021
 003822 FAFF D558 D4E8 08620 085B0  5232 XCTA02   AP    XFVAL(LX16),X1VAL(LX16)                                  40144021
                             03828  5233 XCTA03 EQU   *                                                          40152021
 003828 4150 D558      08620        5234        LA    XR5,XFVAL                  GET SIZES OF RESULT.            40160021
 00382C 45E0 7648      00648        5235        BAL   XRSUB,XIDSZ                X                               40168021
 003830 951E D455      0851D        5236          CLI   XIDDN+NX1,XX1E            MORE THAN 30 DIGITS.           40176021
 003834 4720 F402      03B76        5237          BH    XCTA00              YES, IT IS 31                        40184021
 003838 D205 D568 D450 08630 08518  5238          MVC   XFLAS(LX6),XIDBY          NO,MOVE SIZES IN RESULT BUF    40192021
0
                             0383E  5240 XCTAXT EQU   *                                                          40208021
 00383E 45E0 7D80      00D80        5241        BAL   XRSUB,XRSVAL          RESET OPERAND BUFFER ADDRESSES       40216021
 003842 D100 D4F7 D492 085BF 0855A  5242          MVN   X1VAL+NX15(LX1),X1TYP      RESET SIGN TO ITS TRUE VALU   40224021
 003848 D100 D52F D493 085F7 0855B  5243          MVN   X2VAL+NX15(LX1),X2TYP      (APPLICABLE FOR LITERAL OPE   40232021
1         ADD AND SUBTRACT ANALYZER    A  D  D / S  U  B  T  R  A  C  T                                         PAGE  123
-  LOC  OBJECT CODE    ADDR1 ADDR2  STMT   SOURCE STATEMENT                                       ASM 0201 11.03 02/14/15
0                                   5244 *                                       ONLY).                          40240021
 00384E 45E0 8576      013A6        5245        BAL   XRSUB,XHSMD1          SET MODE OF OPERATION                40248021
 003852 9120 D481      08549        5246        TM    XGSWT,XIDMOD                                               40256021
 003856 4710 F22C      039A0        5247        BC    XTHRE,XOTA02               - ID MODE.                      40264021
                                    5248 *                                       -  BINARY.                      40272021
0
 00385A 45E0 7B0E      00B0E        5250        BAL   XRSUB,XBISCL               OBJECT TIME SCALING.            40288021
 00385E 9504 D56B      08633        5251          CLI   XFBAS+NX1,XX04                                           40296021
 003862 4720 F16E      038E2        5252        BC    XTWO,XOTA03                DP ADD -                        40304021
 003866 9140 D482      0854A        5253        TM    XOPMOD,XXSUB              IS IT A SUBST.                   40312021
 00386A 4710 F162      038D6        5254        BC    XTHRE,XOTA25          YES                                  40320021
 00386E 9108 301D      0001D        5255          TM    Y1IRX+NX1(XR3),XINREG    SINGLE PRECISION ADD            40328021
 003872 4710 F10E      03882        5256        BC    XTHRE,XOTA04               - IS AT LEAST ONE OF OPERAN     40336021
 003876 9108 501D      0001D        5257          TM    Y1IRX+NX1(XR5),XINREG       IN REG.                      40344021
 00387A 4780 F166      038DA        5258        BC    XZERO,XOTA05          NO                                   40352021
 00387E 45E0 7828      00828        5259        BAL   XRSUB,XZX3X5          SWITCH OPERANDS                      40360021
 003882 45E0 77FA      007FA        5260 XOTA04 BAL   XRSUB,XZBINA               YES - SET-ATEXT                 40368021
 003886 4510 7CF0      00CF0        5261        BAL   XR1,XADSUB            GENERATE ADD OR SUBTRACT INST        40376021
 00388A D205 D570 3018 08638 00018  5262 XOTA08   MVC   XFTEL(LX6),Y1TEL(XR3)                                    40384021
 003890 942F D575      0863D        5263          NI    XFIRX+NX1,XX2F                                           40392021
 003894 9140 D481      08549        5264        TM    XGSWT,XAROPE              IT IS A COMPARE SUBSTRACTIOM     40400021
 003898 4710 7B5E      00B5E        5265        BC    XTHRE,XOTAFN          NO                                   40408021
 00389C 9120 D481      08549        5266        TM    XGSWT,XIDMOD               YES,GO AND SET TRANSFER.        40416021
 0038A0 4780 F13E      038B2        5267        BC    XZERO,XOTC00               ACCORDING TO SET CONDITION      40424021
 0038A4 D200 D188 D49C 08250 08564  5268 XOTC01   MVC   XREG1(LX1),XSPSW          CODE.                          40432021
 0038AA 58F0 C8F0      07E80        5269        L     XRVAR,XCAMPR               X                               40440021
                             040B2  5270        USING XCOMBG,XRVAR               X                               40448021
 0038AE 47F0 F06C      0411E        5271        BC    UNCON,XCOM09               X                               40456021
                             03774  5272        USING XOTDDD,XRVAR               X                               40464021
 0038B2 9504 D56B      08633        5273 XOTC00   CLI   XFBAS+NX1,XX04            X                              40472021
 0038B6 47D0 F130      038A4        5274        BC    XNOGT,XOTC01               X                               40480021
 0038BA 45E0 81E4      01014        5275        BAL   XRSUB,XZWHIR               X                               40488021
 0038BE 5840 D464      0852C        5276        L     XR4,XLIRP                  X                               40496021
 0038C2 D200 D48A 4003 08552 00003  5277          MVC   XREGNO(LX1),DX3(XR4)       X                             40504021
 0038C8 5844 0004      00004        5278          L     XR4,DX4(XR4)              X                              40512021
 0038CC D200 D48B 4003 08553 00003  5279          MVC   XREGNP(LX1),DX3(XR4)       X                             40520021
 0038D2 47F9 000C      0000C        5280          B     DX12(XRVERB)       BRANCH TO ..                          40528021
                             00B5E  5281 XOTAFN EQU   XFINAL                                                     40536021
                                    5282 *                                                                       40544021
0
                                    5284 *                                                                       40560021
0
 0038D6 45E0 7828      00828        5286 XOTA25 BAL   XRSUB,XZX3X5          SWITCH OPERANDS                      40576021
 0038DA 45E0 8106      00F36        5287 XOTA05 BAL   XRSUB,XSLOAS               LOAD XR3 OP. IN  IR.            40584021
 0038DE 47F0 F10E      03882        5288        BC    UNCON,XOTA04               X                               40592021
0
 0038E2 41E0 F18A      038FE        5290 XOTA03 LA    XRSUB,XOTA24                                               40608021
 0038E6 9140 D482      0854A        5291        TM    XOPMOD,XXSUB                                               40616021
 0038EA 4710 7828      00828        5292        BC    XTHRE,XZX3X5          IF SUBTRACTION  SWITCH OPERANDS      40624021
                                    5293 *                                                                       40632021
 0038EE 9109 301D      0001D        5294          TM    Y1IRX+NX1(XR3),XIN2RE    MAKE SURE DOP1 IS IN A          40640021
1         ADD AND SUBTRACT ANALYZER    A  D  D / S  U  B  T  R  A  C  T                                         PAGE  124
-  LOC  OBJECT CODE    ADDR1 ADDR2  STMT   SOURCE STATEMENT                                       ASM 0201 11.03 02/14/15
00038F2 4710 F18E      03902        5295        BC    XTHRE,XOTA06               DOUBLE IR , AND THAT  XR5       40648021
 0038F6 9504 3013      00013        5296          CLI   Y1BAS+NX1(XR3),XX04       IS A DOUBLE WORD OR IN A DO    40656021
 0038FA 4720 F196      0390A        5297        BC    XTWO,XOTA07                REG.                            40664021
                             038FE  5298 XOTA24 EQU   *                                                          40672021
 0038FE 45E0 80F6      00F26        5299        BAL   XRSUB,XSLODB               X                               40680021
 003902 9504 5013      00013        5300 XOTA06   CLI   Y1BAS+NX1(XR5),XX04       X                              40688021
 003906 4720 F1AA      0391E        5301        BC    XTWO,XOTA09                X                               40696021
 00390A 45E0 7828      00828        5302 XOTA07 BAL   XRSUB,XZX3X5               X                               40704021
 00390E 45E0 80F6      00F26        5303        BAL   XRSUB,XSLODB               X                               40712021
 003912 9140 D482      0854A        5304        TM    XOPMOD,XXSUB                                               40720021
 003916 4780 F1AA      0391E        5305        BC    XZERO,XOTA09          OPERATION IS ADDITION                40728021
 00391A 45E0 7828      00828        5306        BAL   XRSUB,XZX3X5          SWITCH OPERANDS                      40736021
 00391E 45E0 77FA      007FA        5307 XOTA09 BAL   XRSUB,XZBINA               SET  A- TEXT                    40744021
 003922 D200 D422 D188 084EA 08250  5308          MVC   XUTEM(LX1),XREG1          SAVE VALUE OF HIGH ORDER RE    40752021
 003928 4510 7CF0      00CF0        5309        BAL   XR1,XADSUB            GENERATE ADD OR SUBTRACT INST        40760021
                                    5310 *                                                                       40768021
 00392C 9108 501D      0001D        5311          TM    Y1IRX+NX1(XR5),XINREG     IS  2ND OP IN  IR.             40776021
 003930 4710 F1CC      03940        5312        BC    XTHRE,XZSL01               YES,                            40784021
 003934 9204 D17D      08245        5313          MVI   XPLUS1+NX2,XX04           NO -  SET A-TEXT  WITH         40792021
 003938 45E0 77FA      007FA        5314        BAL   XRSUB,XZBINA                          OP2 + 4.             40800021
 00393C 47F0 F1DE      03952        5315        BC    UNCON,XZSL02               -                               40808021
 003940 45E0 7828      00828        5316 XZSL01 BAL   XRSUB,XZX3X5               SET A-TEXT WITH  LOW ORDER      40816021
 003944 4510 7D8A      00D8A        5317        BAL   XR1,XODDRG            GET ODD REG TBL OF EVEN-ODD PAIR     40824021
 003948 D200 D1D0 4003 08298 00003  5318          MVC   XREG2(LX1),DX3(XR4)        X                             40832021
 00394E 45E0 7828      00828        5319        BAL   XRSUB,XZX3X5          SWITCH OPERANDS                      40840021
 003952 4510 7D8A      00D8A        5320 XZSL02 BAL   XR1,XODDRG            GET ODD REG TBL OF EVEN-ODD PAIR     40848021
 003956 D200 D188 4003 08250 00003  5321          MVC   XREG1(LX1),DX3(XR4)                                      40856021
 00395C 41E0 F200      03974        5322        LA    XRSUB,XOTA60                                               40864021
 003960 9140 D482      0854A        5323        TM    XOPMOD,XXSUB               AL , OR , SL                    40872021
 003964 4710 BAAA      0213A        5324        BC    XTHRE,SUBLBI          GENERATE SL                          40880021
 003968 45E0 BAA2      02132        5325        BAL   XRSUB,ADDLBI          GENERATE AL                          40888021
 00396C 920C D188      08250        5326          MVI   XREG1,XX0C                                               40896021
 003970 47F0 F204      03978        5327        BC    UNCON,XOTA61          GENERATE A BC INSTRUCTION            40904021
 003974 9203 D188      08250        5328 XOTA60   MVI   XREG1,XX03                                               40912021
                             03978  5329 XOTA61 EQU   *                                                          40920021
                                    5330 *                                                                       40928021
 003978 45E0 7AA2      00AA2        5331        BAL   XRSUB,XSTLHN                            BC  NOCARY,5GN     40936021
 00397C 45E0 BC10      022A0        5332        BAL   XRSUB,BC                   X                               40944021
0
 003980 9201 D16F      08237        5334          MVI   XCON1+NX15,XX01           GENERATE                       40960021
 003984 9202 D170      08238        5335          MVI   XCON1+NX16,XX02                        A   R2P ,ONE      40968021
 003988 D200 D188 D422 08250 084EA  5336          MVC   XREG1(LX1),XUTEM                                         40976021
 00398E 4510 7CF0      00CF0        5337        BAL   XR1,XADSUB            GENERATE AN ADD OR SUBTRACT INST     40984021
                                    5338 *                                                                       40992021
                                    5339 *                                                                       41000021
                                    5340 *                                                                       41008021
0
                                    5342 *      WRITE OUT LABEL 5GN  *****                                       41024021
 003992 D201 756D D460 0056D 08528  5343          MVC   PH4GN+NX1(LX2),XGNTMP   MOVE GN #                        41032021
 003998 45E0 753C      0053C        5344          BAL   XRSUB,WRPH4G            WRITE PH4 GN DEF                 41040021
 00399C 47F0 F116      0388A        5345        BC    UNCON,XOTA08          TEST IF CALLED BY COMPARE            41048021
0
1         ADD AND SUBTRACT ANALYZER    A  D  D / S  U  B  T  R  A  C  T                                         PAGE  125
-  LOC  OBJECT CODE    ADDR1 ADDR2  STMT   SOURCE STATEMENT                                       ASM 0201 11.03 02/14/15
0                            039A0  5347 XOTA02 EQU   *                                                          41064021
 0039A0 9140 D481      08549        5348        TM    XGSWT,XAROPE               DO NOT SUB IN DATA MAME         41072021
 0039A4 4780 F2CE      03A42        5349        BC    XZERO,XOTAL1               FOR IF.                         41080021
 0039A8 9103 D481      08549        5350          TM    XGSWT,XX03                XSIZER+XROUND                  41088021
 0039AC 4770 F2CE      03A42        5351        BC    XNOEQ,XOTAL1          EITHER OR BOTH                       41096021
 0039B0 45E0 854A      0137A        5352        BAL   XRSUB,XMONDV          CHECK IF SIMPLE ADD/SUBT CAN BE      41104021
 0039B4 9103 D48C      08554        5353          TM    XMONDD,XX03                                              41112021
 0039B8 47E0 F2CE      03A42        5354        BC    NOTHR,XOTAL1          CANNOT STORE DIRECTLY                41120021
                                    5355 *                                                                       41128021
                                    5356 *  IS IT     A=A+B  OR   A=A-B  -  IF YES AVOID THE STORE, EXECUTE      41136021
                                    5357 *  THE AP OR  SP INSTRUCTION  WITH A  AS RESULT FIELD.                  41144021
                                    5358 *                                                                       41152021
 0039BC 94F0 D8AF      08977        5359          NI    DOP5+XGMINC,XXF0                                         41160021
 0039C0 95C0 D8AF      08977        5360          CLI   DOP5+XGMINC,XXC0    IF STORE TERM IS NOT ID, DO NOT      41168021
 0039C4 4770 F2CE      03A42        5361        BC    XNOEQ,XOTAL1               STORE RESULT DIRECTLY IN DA     41176021
                                    5362 *                                       NAME .                          41184021
 0039C8 91D0 D505      085CD        5363          TM    X1IRX+NX1,XZGNLT   IS FIRST DOP A LIT                    41192021
 0039CC 4770 F2C6      03A3A        5364          BC    R7,XOTAL2          YES                                   41200021
 0039D0 91D0 D53D      08605        5365          TM    X2IRX+NX1,XZGNLT   NO, IS SECOND DOP A LIT               41208021
 0039D4 4770 F362      03AD6        5366          BC    R7,XOTAL5          YES                                   41216021
 0039D8 95BC D6BC      08784        5367        CLI   DOP1,TEMRES         NO, IS THIS AN ADD SERIES              41224021
 0039DC 4780 F276      039EA        5368        BE    XOTAL7              YES                                    41232021
 0039E0 D503 D8AF D6BF 08977 08787  5369          CLC   DOP5+NX3(LX4),DOP1+NX3  NO, DOES DOP5 = DOP1       43130 41240021
 0039E6 4780 F36C      03AE0        5370        BE    XOTAL8              YES                                    41248021
                             039EA  5371 XOTAL7 EQU   *                                                          41256021
 0039EA D503 D8AF D73B 08977 08803  5372          CLC   DOP5+NX3(LX4),DOP2+NX3   DOES DOP5 = DOP2          43130 41264021
 0039F0 4770 F2CE      03A42        5373        BC    XNOEQ,XOTAL1          NO                                   41272021
 0039F4 45E0 7828      00828        5374        BAL   XRSUB,XZX3X5          SWITCH OPERANDS                      41280021
                             039F8  5375 XOTAL3 EQU   *                                                          41288021
 0039F8 D501 3026 5026 00026 00026  5376          CLC   Y1ALP(LX2,XR3),Y1ALP(XR5)                                41296021
 0039FE 4720 F2CE      03A42        5377        BC    XTWO,XOTAL1           SCALING FOR 1ST OP > 2ND OP          41304021
 003A02 9608 D48D      08555        5378        OI    XGNSW,XADABA                                               41312021
 003A06 4823 0026      00026        5379        LH    XR2,Y1ALP(XR3)                                             41320021
 003A0A 4865 0026      00026        5380        LH    XR6,Y1ALP(XR5)                                             41328021
 003A0E 1322                        5381        LCR   XR2,XR2                                                    41336021
 003A10 4025 0026      00026        5382        STH   XR2,Y1ALP(XR5)                                             41344021
 003A14 45E0 774E      0074E        5383        BAL   XRSUB,XSCAL           SCALE OPERAND                        41352021
 003A18 D205 3010 301E 00010 0001E  5384          MVC   Y1LAS(LX6,XR3),Y1LBS(XR3)                                41360021
 003A1E 1A26                        5385        AR    XR2,XR6                                                    41368021
 003A20 4025 0026      00026        5386          STH   XR2,Y1ALP(XR5)                                           41376021
 003A24 D701 3026 3026 00026 00026  5387          XC    Y1ALP(LX2,XR3),Y1ALP(XR3)                                41384021
 003A2A 45E0 7DE0      00DE0        5388        BAL   XRSUB,XW000           OBJECT TIME SCALE                    41392021
 003A2E 45E0 780A      0080A        5389        BAL   XRSUB,XZSIDA          SET A-TEXT                           41400021
 003A32 4510 7CF0      00CF0        5390          BAL   XR1,XADSUB          GENERATE ADD OR SUBTRACT INSTR       41408021
 003A36 47F0 84E4      01314        5391        BC    UNCON,XRESTG          BYPASS STORING IR                    41416021
                                    5392 *                                                                       41424021
                             03A3A  5393 XOTAL2 EQU   *                                                          41432021
 003A3A 91D0 D53D      08605        5394          TM    X2IRX+NX1,XZGNLT   IS DOP2 A LIT                         41440021
 003A3E 4780 F276      039EA        5395        BZ    XOTAL7              NO                                     41448021
                             03A42  5396 XOTAL1 EQU   *                                                          41456021
 003A42 45E0 7D80      00D80        5397        BAL   XRSUB,XRSVAL          RESET OPERAND BUFFER ADDRESSES       41464021
                                    5398 *                                                                       41472021
 003A46 45E0 7DE0      00DE0        5399        BAL   XRSUB,XW000           OBJECT TIME SCALE                    41480021
 003A4A 45E0 83E6      01216        5400        BAL   XRSUB,LTLTST          ARE BOTH OPERANDS LITERALS           41488021
 003A4E 47F0 F2EA      03A5E        5401        BC    UNCON,XOTANL          NO                                   41496021
1         ADD AND SUBTRACT ANALYZER    A  D  D / S  U  B  T  R  A  C  T                                         PAGE  126
-  LOC  OBJECT CODE    ADDR1 ADDR2  STMT   SOURCE STATEMENT                                       ASM 0201 11.03 02/14/15
0003A52 41E0 7B5E      00B5E        5402        LA    XRSUB,XOTAFN                                               41504021
 003A56 9102 D575      0863D        5403          TM    XFIRX+NX1,XGOVFL                                         41512021
 003A5A 4780 843C      0126C        5404        BC    XZERO,XSETLT          SET RESULT BUFFER FLAGS              41520021
                             03A5E  5405 XOTANL EQU   *                                                          41528021
 003A5E 41E0 F300      03A74        5406        LA    XRSUB,XOTA21                                               41536021
 003A62 9140 D482      0854A        5407        TM    XOPMOD,XXSUB                                               41544021
 003A66 4710 7828      00828        5408        BC    XTHRE,XZX3X5          SUBT OPERATION  SWITCH OPERANDS      41552021
                                    5409 *                                                                       41560021
                                    5410 *                                                                       41568021
 003A6A D500 3019 5019 00019 00019  5411          CLC   Y1TEL+NX1(LX1,XR3),Y1TEL+NX1(XR5)                        41576021
 003A70 4740 7828      00828        5412        BC    XONE,XZX3X5           TEMP STOR OF 1ST OP < 2ND OP         41584021
 003A74 D200 D485 D569 0854D 08631  5413 XOTA21   MVC   XYLEN,XFLAS+NX1           MAKE SURE  THAT ONE OP. IS     41592021
 003A7A 45E0 7CFE      00CFE        5414        BAL   XRSUB,XYOAF                TEMP LARGE ENOUGH TO HOLD       41600021
 003A7E D201 3010 D568 00010 08630  5415          MVC   Y1LAS(LX2,XR3),XFLAS                                     41608021
 003A84 45E0 780A      0080A        5416        BAL   XRSUB,XZSIDA               RESULT.                         41616021
 003A88 4510 7CF0      00CF0        5417        BAL   XR1,XADSUB            GENERATE ADD OR SUBTRACT INST        41624021
 003A8C 9102 D575      0863D        5418          TM    XFIRX+NX1,XGOVFL          IS THERE A CHANCE TO GET 31    41632021
 003A90 4780 F116      0388A        5419        BC    XZERO,XOTA08                    DIGITS.  NO-               41640021
 003A94 9140 D481      08549        5420        TM    XGSWT,XAROPE                                               41648021
 003A98 4780 F116      0388A        5421        BC    XZERO,XOTA08          NOT AN ARITHMETIC OPERATION          41656021
 003A9C 45E0 7DC0      00DC0        5422        BAL   XRSUB,XEWCL                X                               41664021
 003AA0 D201 D14A D446 08212 0850E  5423          MVC   XWC1(LX2),XEREL1          X                              41672021
 003AA6 9500 D579      08641        5424          CLI   XFDDP+NX1,XX00            YES - DROP EITHER A DEC. OR    41680021
 003AAA 4770 F34C      03AC0        5425        BC    XNOEQ,XOTA22          X                                    41688021
 003AAE 920F D189      08251        5426          MVI   XIMM,XX0F                 DROP  INTEGER                  41696021
 003AB2 45E0 BB3E      021CE        5427        BAL   XRSUB,NI                            NI  TEMP,X'0F'         41704021
                                    5428 *                                                                       41712021
                                    5429 *      WARNING   POSSIBLE TRUNCATIOM.                                   41720021
                                    5430 *                                                                       41728021
 003AB6 45E0 7AC0      00AC0        5431        BAL   XRSUB,ERRPRO          GENERATE TRUNCATION MESSAGE          41736021
 003ABA 0B                          5432        DC    AL1(ERRN11)                                                41744021
 003ABB 00                          5433        DC    AL1(0)                                                     41752021
                                    5434 *                                                                       41760021
 003ABC 47F0 F116      0388A        5435        BC    UNCON,XOTA08          TEST IF CALLED BY COMPARE            41768021
0
 003AC0 D201 D192 D446 0825A 0850E  5437 XOTA22   MVC   XWC2(LX2),XEREL1          DROP A DECINAL                 41784021
 003AC6 9210 D149      08211        5438          MVI   XL1+NX1,XX10                                             41792021
 003ACA 920F D191      08259        5439          MVI   XL2+NX1,XX0F                                             41800021
 003ACE 45E0 BAD2      02162        5440        BAL   XRSUB,MVO                        MVO  TEMP(16),TEMP(15     41808021
 003AD2 47F0 F116      0388A        5441        BC    UNCON,XOTA08          TEST IF CALLED BY COMPARE            41816021
0
                             03AD6  5443 XOTAL5 EQU   *                                                          41832021
 003AD6 D503 D8AD D6C0 08975 08788  5444          CLC   DOP5+NX1(LX4),DOP1+NX4   DOP5 EQ DOP1...           60613 41840021
 003ADC 4770 F2CE      03A42        5445        BNE   XOTAL1              NO                                     41848021
                             03AE0  5446 XOTAL8 EQU   *                                                          41856021
 003AE0 9140 D482      0854A        5447        TM    XOPMOD,XXSUB        IS THIS A SUBTRACTION                  41864021
 003AE4 4710 F2CE      03A42        5448        BO    XOTAL1                YES                                  41872021
 003AE8 47F0 F284      039F8        5449        B     XOTAL3              NO                                     41880021
1         ADD AND SUBTRACT ANALYZER    A  D  D / S  U  B  T  R  A  C  T                                         PAGE  127
-  LOC  OBJECT CODE    ADDR1 ADDR2  STMT   SOURCE STATEMENT                                       ASM 0201 11.03 02/14/15
0                                   5451 *                                                                       41896021
                                    5452 *                                                                       41904021
0
                                    5454 *                                                                       41920021
                                    5455 *                                                                       41928021
                                    5456 *  FLOATING-POINT ADD OR SUB.                                           41936021
                                    5457 *                                                                       41944021
 003AEC 45E0 834E      0117E        5458 XOTA01 BAL   XRSUB,FPCVBG          MAKE BOTH OPDS SAME FL PT FORMAT     41952021
 003AF0 9140 D482      0854A        5459        TM    XOPMOD,XXSUB                                               41960021
 003AF4 4780 F38C      03B00        5460        BC    XZERO,XOTAF0          ADD OPERATION                        41968021
 003AF8 45E0 7828      00828        5461        BAL   XRSUB,XZX3X5          SWITCH OPERANDS                      41976021
 003AFC 45E0 811C      00F4C        5462        BAL   XRSUB,FPLOAD          GENERATE A FL PT LOAD                41984021
 003B00 45E0 835A      0118A        5463 XOTAF0 BAL   XRSUB,FPLDAN          LOAD 1 OPERAND IF NEITHER IS         41992021
 003B04 45E0 77DA      007DA        5464        BAL   XRSUB,FPSETA          SET A-TEXT                           42000021
 003B08 41E0 F3B8      03B2C        5465        LA    XRSUB,FPADDS                                               42008021
 003B0C 9104 301D      0001D        5466          TM    Y1IRX+NX1(XR3),XGDPFP                                    42016021
 003B10 4710 F3AC      03B20        5467        BC    XTHRE,FPADD0          OPERATION MUST BE DP                 42024021
 003B14 9140 D482      0854A        5468        TM    XOPMOD,XXSUB                                               42032021
 003B18 4710 BD46      023D6        5469        BC    XTHRE,SUBNS                SE   OR  SER  .                 42040021
 003B1C 47F0 BD36      023C6        5470        BC    UNCON,ADFLS                AE   OR  AER  .                 42048021
 003B20 9140 D482      0854A        5471 FPADD0 TM    XOPMOD,XXSUB                                               42056021
 003B24 4710 BD4E      023DE        5472        BC    XTHRE,SUBNL                SD   OR  SDR  .                 42064021
 003B28 47F0 BD3E      023CE        5473        BC    UNCON,ADFLL                AD   OR  ADR  .                 42072021
 003B2C 45E0 837E      011AE        5474 FPADDS BAL   XRSUB,FPRESF          SET FLAGS IN RESULT BUFFER           42080021
 003B30 47F0 7B5E      00B5E        5475        BC    UNCON,XOTAFN          STORE IR                             42088021
0
 003B34 D201 D45C 5016 08524 00016  5477 XA003    MVC   XTDEC(LX2),Y1DAS(XR5)     IN CASE OF OVERFLOW COMPUTE    42104021
 003B3A 45E0 76BC      006BC        5478        BAL   XRSUB,XT000                NUMBER OF INT.TO BE TRUNCAT     42112021
 003B3E D201 502E D44E 0002E 08516  5479          MVC   Y1IND(LX2,XR5),XTIII     AND NUMBER OF DEC. TO BE        42120021
 003B44 D20F D558 C81C 08620 07DAC  5480          MVC   XFVAL(LX16),XC9999        DROPPED                        42128021
 003B4A 45E0 849C      012CC        5481        BAL   XRSUB,XSETOP          SET BUFFER TO MAX                    42136021
 003B4E 9500 D44D      08515        5482          CLI   XTDDD+NX1,XX00            IS THERE ANY DECIMAL TO DRO    42144021
 003B52 4780 F066      037DA        5483        BC    XZERO,XA005                NO-                             42152021
 003B56 4815 0026      00026        5484        LH    XR1,Y1ALP(XR5)             YES,DECREASE SCALING FACTOR     42160021
 003B5A 4820 D44C      08514        5485        LH    XR2,XTDDD                  AND REUPDATE BUFFER OPERAND     42168021
 003B5E 1B12                        5486        SR    XR1,XR2                    ACCORDING TO .                  42176021
 003B60 4015 0026      00026        5487        STH   XR1,Y1ALP(XR5)             X ADJUST FIRST OPERAND.         42184021
 003B64 4815 0016      00016        5488        LH    XR1,Y1DAS(XR5)             X                               42192021
 003B68 1B12                        5489        SR    XR1,XR2                    X                               42200021
 003B6A 4015 0016      00016        5490        STH   XR1,Y1DAS(XR5)             X                               42208021
 003B6E 45E0 7718      00718        5491        BAL   XRSUB,XADJCT               ADJUST 2ND. OPERAND             42216021
 003B72 47F0 F074      037E8        5492        BC    UNCON,XAEXIT          PERFORM COMPILE TIME ARITHMETIC      42224021
0
                             03B76  5494 XCTA01 EQU   *                                                          42240021
 003B76 4860 D56E      08636        5495 XCTA00 LH    XR6,XFDAS                                                  42248021
 003B7A 4960 D43E      08506        5496        CH    XR6,XRDMX                                                  42256021
 003B7E 47C0 F424      03B98        5497        BC    XLOEQ,XCTA04          RESULT DEC <= MAX DEC                42264021
 003B82 0660                        5498        BCTR  XR6,RW0               DROP 1 DEC PLACE                     42272021
 003B84 4060 D56E      08636        5499        STH   XR6,XFDAS                                                  42280021
 003B88 9201 D579      08641        5500          MVI   XFDDP+NX1,XX01                                           42288021
 003B8C 4150 D558      08620        5501 XCTA05 LA    XR5,XFVAL                                                  42296021
 003B90 45E0 8496      012C6        5502        BAL   XRSUB,XSETOR          SET OPERAND TO MAX                   42304021
1         ADD AND SUBTRACT ANALYZER    A  D  D / S  U  B  T  R  A  C  T                                         PAGE  128
-  LOC  OBJECT CODE    ADDR1 ADDR2  STMT   SOURCE STATEMENT                                       ASM 0201 11.03 02/14/15
0003B94 47F0 F0CA      0383E        5503        BC    UNCON,XCTAXT          GENERATE INSTRUCTIONS                42312021
 003B98 9201 D57B      08643        5504 XCTA04   MVI   XFIND+NX1,XX01                                           42320021
 003B9C 47F0 F418      03B8C        5505        BC    UNCON,XCTA05          SET OPERAND TO MAX                   42328021
                                    5506 *                                                                       42336021
1         ADD AND SUBTRACT ANALYZER    A  D  D / S  U  B  T  R  A  C  T                                         PAGE  129
-  LOC  OBJECT CODE    ADDR1 ADDR2  STMT   SOURCE STATEMENT                                       ASM 0201 11.03 02/14/15
0                                   5508 *  BEGINING OF  A WHEN CONDITION  ON A  SEARCH ALL                      42352021
                                    5509 * SET UP TABLE DESCRIPTOR FOR SEARCH ALL OBJECT TIME SUBROUTINE         42360021
                                    5510 * IN TS4 IN TGT.                                                        42368021
                                    5511 *        4 BYTES   ADDR OF TABLE                                        42376021
                                    5512 *        4 BYTES   MAX NO. OF OCCURRENCES                               42384021
                                    5513 *        4BYTES    GN REF FOR 'AT END' ADDRESS                          42392021
                                    5514 *        1 BYTE    (UMB OF KEYS (FROM 'ENDSCHAL' ROUTINE)               42400021
                                    5515 *        1 BYTE    NOT USED                                             42408021
                                    5516 *        2 BYTES   LENGTH OF A TABLE ENTRY                              42416021
                                    5517 *                                                                       42424021
                                    5518 *                                                                       42432021
                             03BA0  5519          USING *,XRVERB                                                 42440021
 003BA0 9504 D0D2      0819A        5520 SEARCHAL CLI   ELEMCT,XX04         FIRST KEY HAS X LEVELS OF OCCURS     42448021
 003BA4 4740 9108      03CA8        5521          BL    SCHA08             X=0 OR 1                              42456021
 003BA8 4780 90FA      03C9A        5522          BE    SCHA00             X=2                                   42464021
                                    5523 *                                 X=3                                   42472021
                                    5524 *                                                                       42480021
                                    5525 * IF TABLE HAS MORE THAN 1 LEVEL OF OCCURS ITS ADDR UP TO THE           42488021
                                    5526 * LOWEST LEVEL MUST BE CALCULATED SO THE SEARCH NEED BE DONE ONLY       42496021
                                    5527 * ON THIS LOWEST LEVEL. ROUTINE 'SSCRPT' IS CALLED TO GENERATE THE      42504021
                                    5528 * NECESSARY CODE. SINCE 'SSCRPT' EXPECTS A VALUE FOR THE LOWEST         42512021
                                    5529 * LEVEL THIS ROUTINE CREATES A DUMMY SUBSCRIPT EQUIVALENT TO THE        42520021
                                    5530 * FIRST OCCURRENCE.                                                     42528021
                                    5531 *                                                                       42536021
                                    5532 * MOVE SUBSCRIPTS OR INDEXES FROM DOPS USED BY THIS ROUTINE TO          42544021
                                    5533 * THOSE EXPECTED BY 'SSCRPT'                                            42552021
 003BAC 4110 D830      088F8        5534          LA    RW1,DOP4                                                 42560021
 003BB0 D202 D31C D7B4 083E4 0887C  5535          MVC   GNHOLD(LX3),DOP3    SAVE 'AT END' ADDR                   42568021
 003BB6 D27B D7B4 D8AC 0887C 08974  5536          MVC   DOP3(LDOP),DOP5    CHANGE DOPS TO FIT 'SSCRPT'           42576021
 003BBC D27B D8AC D738 08974 08800  5537 SCHA07   MVC   DOP5(LDOP),DOP2    (DOP2 = HIEST LEVEL SS OR INDX)       42584021
 003BC2 D27B D738 D830 08800 088F8  5538          MVC   DOP2(LDOP),DOP4                                          42592021
 003BC8 D204 1000 D31F 00000 083E7  5539          MVC   DX0(LX5,RW1),SCHLIT  SET LAST DOP TO OCCURRENCE=1        42600021
 003BCE 9201 D490      08558        5540          MVI   SCHSW,XX01          TELL SSCRPT CONTROL COMES FROM       42608021
 003BD2 5090 D314      083DC        5541          ST    XRVERB,SCHOLD      BEG OF WHEN (SEARCHAL)                42616021
 003BD6 5890 C278      07808        5542          L     XRVERB,ADCN39      ADDR OF 'SSCRPT'                      42624021
 003BDA 05E9                        5543          BALR  RETRG,XRVERB       GO TO 'SSCRPT'                        42632021
 003BDC 9200 D490      08558        5544          MVI   SCHSW,XX00                                               42640021
 003BE0 D27B D738 D8AC 08800 08974  5545          MVC   DOP2(LDOP),DOP5    RESTORE DOPS                          42648021
 003BE6 D202 D7B4 D31C 0887C 083E4  5546          MVC   DOP3(LX3),GNHOLD                                         42656021
 003BEC 9258 D178      08240        5547 SCHA01   MVI   XCNTR1,TS4CODE                                           42664021
 003BF0 9201 D17A      08242        5548          MVI   XCNTR1+NX2,XX01                                          42672021
 003BF4 45E0 B040      016D0        5549          BAL   XRSUB,STORE              ST  0,TS4                       42680021
 003BF8 D202 D4B1 D6C0 08579 08788  5550          MVC   AXTIDK+NX1(LX3),DOP1+NX4   SAVE  I,D,K OF  TABLE.        42688021
                                    5551 *                                                                       42696021
                                    5552 *  SET  OCCURENCE NUMBER  IN TS4.                                       42704021
                                    5553 *                                                                       42712021
 003BFE 9201 D48A      08552        5554          MVI   XREGNO,XX01                                              42720021
 003C02 45E0 838A      011BA        5555          BAL   XRSUB,XFREER        FREE REG ONE                         42728021
 003C06 4130 D738      08800        5556          LA    RW3,DOP2                                                 42736021
 003C0A 9532 D738      08800        5557          CLI   DOP2,XX32           NUMERIC LITERAL...                   42744021
 003C0E 4780 90EA      03C8A        5558          BE    SCHA02             YES                                   42752021
 003C12 45E0 BE9C      0252C        5559          BAL   XRSUB,DNTOR1       DATA-NAME.  CONVERT TO BINARY         42760021
 003C16 9258 D178      08240        5560 SCHA04   MVI   XCNTR1,TS4CODE                                           42768021
 003C1A 9205 D17A      08242        5561          MVI   XCNTR1+NX2,XX05           L   1,OCC-NUMB                 42776021
 003C1E 9201 D188      08250        5562          MVI   XREG1,XX01                ST  1,TS4+4                    42784021
1         ADD AND SUBTRACT ANALYZER    A  D  D / S  U  B  T  R  A  C  T                                         PAGE  130
-  LOC  OBJECT CODE    ADDR1 ADDR2  STMT   SOURCE STATEMENT                                       ASM 0201 11.03 02/14/15
0003C22 45E0 B040      016D0        5563          BAL   XRSUB,STORE         GENERATE A STORE INSTRUCTION         42792021
                                    5564 *                                                                       42800021
                                    5565 * SET AT END ADDRESS  IN TS4.                                           42808021
                                    5566 *                                                                       42816021
 003C26 9258 D178      08240        5567          MVI   XCNTR1,TS4CODE                                           42824021
 003C2A 9209 D17A      08242        5568          MVI   XCNTR1+NX2,XX09                                          42832021
 003C2E D201 D1BA D7B5 08282 0887D  5569          MVC   XGN2(LX2),DOP3+NX1                                       42840021
 003C34 9204 D149      08211        5570          MVI   XL1+NX1,XX04              MVC   TS4+8(4),GN              42848021
 003C38 45E0 B18C      0181C        5571          BAL   XRSUB,MVC           GENERATE MVC                         42856021
                                    5572 *                                                                       42864021
                                    5573 *  SET  ENTRY LENGTH.                                                   42872021
                                    5574 *                                                                       42880021
 003C3C 4130 D6BC      08784        5575          LA    RW3,DOP1                                                 42888021
 003C40 45E0 802C      00E5C        5576          BAL   XRSUB,XLENGH       GET TABLE LENGTH                      42896021
 003C44 9258 D178      08240        5577          MVI   XCNTR1,TS4CODE                                           42904021
 003C48 920F D17A      08242        5578          MVI   XCNTR1+NX2,XX0F           MVC  TS4+14(2),LENGTH          42912021
 003C4C 9202 D149      08211        5579          MVI   XL1+NX1,XX02                                             42920021
 003C50 D501 D456 C850 0851E 07DE0  5580          CLC   XOPVLC(LX2),XC000   VLC...                               42928021
 003C56 4780 90DC      03C7C        5581          BE    SCHA05             NO                                    42936021
 003C5A 9204 D1C0      08288        5582          MVI   XCNTR2,XX04                                              42944021
 003C5E D201 D1C1 D456 08289 0851E  5583          MVC   XCNTR2+NX1(LX2),XOPVLC                                   42952021
 003C64 45E0 B18C      0181C        5584 SCHA06   BAL   XRSUB,MVC           GENERATE MVC                         42960021
 003C68 D705 D0BE D0BE 08186 08186  5585          XC    AXTLENG(LX6),AXTLENG      INITIALIAZE CELLS FOR SEARC    42968021
 003C6E 9201 D0BF      08187        5586          MVI   AXTLENG+NX1,XX01          ALL EQUATE VERB.               42976021
 003C72 D201 D0C4 C876 0818C 07E06  5587          MVC   AXTDISP(LX2),XC016                                       42984021
 003C78 47F0 700A      0000A        5588          B     PH5CTL            LEAVE 'BEG OF WHEN'                    42992021
                                    5589 *                                                                       43000021
 003C7C D201 D1B6 D45A 0827E 08522  5590 SCHA05   MVC   XCON2+NX14(LX2),XOPLGH+NX2                               43008021
 003C82 9202 D1B8      08280        5591          MVI   XCON2+NX16,XX02                                          43016021
 003C86 47F0 90C4      03C64        5592          B     SCHA06              GENERATE MVC                         43024021
                                    5593 *                                                                       43032021
                                    5594 *                                                                       43040021
 003C8A 5030 D138      08200        5595 SCHA02   ST    RW3,OP1                                                  43048021
 003C8E 9201 D188      08250        5596          MVI   XREG1,XX01                                               43056021
 003C92 45E0 B000      01690        5597          BAL   XRSUB,LOAD         L  R1,LIT=OCCUR NUMB                  43064021
 003C96 47F0 9076      03C16        5598          B     SCHA04              GENERATE A STORE INSTRUCTION         43072021
                                    5599 *                                                                       43080021
                                    5600 * 2 LEVELS OF OCCURS                                                    43088021
 003C9A 4110 D7B4      0887C        5601 SCHA00   LA    RW1,DOP3                                                 43096021
 003C9E D202 D31C D7B4 083E4 0887C  5602          MVC   GNHOLD(LX3),DOP3    SAVE 'AT END' ADDR                   43104021
 003CA4 47F0 901C      03BBC        5603          B     SCHA07             MOVE DOPS,THEN GO TO 'SSCRPT'         43112021
                                    5604 *                                                                       43120021
                                    5605 * 0 OR 1 LEVEL OF OCCURS                                                43128021
 003CA8 D203 D138 C8C8 08200 07E58  5606 SCHA08   MVC   OP1(LX4),XAOPE1                                          43136021
 003CAE 45E0 BBDE      0226E        5607          BAL   XRSUB,LA           * LA R0,TABLE                         43144021
 003CB2 47F0 904C      03BEC        5608          B     SCHA01             SET UP REST OF CALLING SEQ TO OJTSR   43152021
1         ADD AND SUBTRACT ANALYZER    A  D  D / S  U  B  T  R  A  C  T                                         PAGE  131
-  LOC  OBJECT CODE    ADDR1 ADDR2  STMT   SOURCE STATEMENT                                       ASM 0201 11.03 02/14/15
0                                   5610 *                                                                       43168021
                                    5611 *                                                                       43176021
                                    5612 *                                                                       43184021
                                    5613 *  EQUATE VERB IN SEARCH ALL                                            43192021
                                    5614 *                                                                       43200021
                                    5615 *                                                                       43208021
                             03CB6  5616          USING *,XRVERB                                                 43216021
 003CB6 4800 D0BE      08186        5617 EQUSCHR  LH    RW0,AXTLENG              SET-UP A-TEXT CELL FOR DISP     43224021
                                    5618 *                                       IN TS2                          43232021
 003CBA 4A00 D0C2      0818A        5619          AH    RW0,AXTCKEY                                              43240021
 003CBE 4000 D0BE      08186        5620          STH   RW0,AXTLENG        AXTLENG IS PTR TO NEXT KEY AREA       43248021
                                    5621 *                                                                       43256021
 003CC2 4130 D738      08800        5622          LA    RW3,DOP2                                                 43264021
 003CC6 45E0 802C      00E5C        5623          BAL   XRSUB,XLENGH        GET LENGTH OF OPERAND                43272021
 003CCA D203 D6B8 C370 08780 07900  5624          MVC   MYSAVE(LX4),GZERO                                        43280021
 003CD0 9110 3007      00007        5625          TM    DX7(XR3),SCHASCN    ASCENDING KEY...                     43288021
 003CD4 4780 9026      03CDC        5626          BZ    EQU000             NO                                    43296021
 003CD8 9680 D6B8      08780        5627          OI    MYSAVE,XX80              SET ASCENDING BIT               43304021
 003CDC 950B D410      084D8        5628 EQU000   CLI   XGTEM2,XGBINR      KEY TYPE BINARY...                    43312021
 003CE0 4770 9032      03CE8        5629          BNE   EQU001             NO                                    43320021
 003CE4 9640 D6B8      08780        5630          OI    MYSAVE,XX40              SET BINARY FLAG                 43328021
 003CE8 950C D410      084D8        5631 EQU001   CLI   XGTEM2,XGINDC                                            43336021
 003CEC 4770 903E      03CF4        5632          BNE   EQU002              NOT ID                               43344021
 003CF0 9620 D6B8      08780        5633          OI    MYSAVE,XX20              SET INT DEC FLAG                43352021
 003CF4 9508 D410      084D8        5634 EQU002   CLI   XGTEM2,XGEXDC                                            43360021
 003CF8 4770 904A      03D00        5635          BNE   EQU003              NOT ED                               43368021
 003CFC 9610 D6B8      08780        5636          OI    MYSAVE,XX10              SET EXT DEC FLAG                43376021
 003D00 9170 D6B8      08780        5637 EQU003   TM    MYSAVE,XX70        NUMERIC...                            43384021
 003D04 4770 9056      03D0C        5638          BNZ   EQU004            YES                                    43392021
 003D08 9608 D6B8      08780        5639          OI    MYSAVE,XX08              SET ALPHANUMERIC FLAG           43400021
 003D0C D200 D6B9 D45B 08781 08523  5640 EQU004   MVC   MYSAVE+NX1(LX1),XOPLGH+NX3 SET LENGTH                    43408021
 003D12 D201 D0C2 D45A 0818A 08522  5641          MVC   AXTCKEY(LX2),XOPLGH+NX2                                  43416021
 003D18 D202 D415 D73C 084DD 08804  5642          MVC   XGTEM2+NX5(LX3),DOP2+NX4   TAKE  I,D,K OF KEY.           43424021
 003D1E 9200 D414      084DC        5643          MVI   XGTEM2+NX4,XX00                                          43432021
 003D22 5800 D414      084DC        5644          L     RW0,XGTEM2+NX4                                           43440021
 003D26 5B00 D4B0      08578        5645          S     RW0,AXTIDK                                               43448021
 003D2A 1B11                        5646          SR    RW1,RW1                                                  43456021
 003D2C 8C00 0008      00008        5647          SRDL  RW0,DX8                                                  43464021
 003D30 1211                        5648          LTR   RW1,RW1                                                  43472021
 003D32 4770 9214      03ECA        5649          BNE   EQUERR                   KEY NOT AT A FIXED OFFSET       43480021
 003D36 4000 D414      084DC        5650          STH   RW0,XGTEM2+NX4      = OFFSET                             43488021
 003D3A D201 D6BA D414 08782 084DC  5651          MVC   MYSAVE+NX2(LX2),XGTEM2+NX4 SET OFFSET                    43496021
 003D40 4110 D4B4      0857C        5652          LA    RW1,KEYDC                                                43504021
 003D44 4800 D0C0      08188        5653          LH    RW0,AXTKEYN       PICK UP NUMB OF KEYS PROCESSED         43512021
 003D48 8900 0002      00002        5654          SLL   RW0,DX2            USE AS INDEX INTO KEY SAVE AREA       43520021
 003D4C 1A10                        5655          AR    RW1,RW0                                                  43528021
 003D4E D203 1000 D6B8 00000 08780  5656          MVC   DX0(LX4,RW1),MYSAVE SAVE KEY INFO                        43536021
 003D54 4800 D0C0      08188        5657          LH    RW0,AXTKEYN                                              43544021
 003D58 4A00 C3AE      0793E        5658          AH    RW0,XC001          INCR COUNT OF KEYS                    43552021
 003D5C 4000 D0C0      08188        5659          STH   RW0,AXTKEYN                                              43560021
 003D60 9507 D410      084D8        5660          CLI   XGTEM2,XX07                                              43568021
 003D64 47D0 910A      03DC0        5661          BNH   EQU005              NOT NUMERIC                          43576021
 003D68 950E D410      084D8        5662          CLI   XGTEM2,XX0E         2ND OP NOT NUMERIC= KEY NOT NUM      43584021
 003D6C 47B0 910A      03DC0        5663          BNL   EQU005              NOT NUMERIC                          43592021
 003D70 95BA D6BC      08784        5664          CLI   DOP1,XGIRI          INTERMEDIATE RESULT                  43600021
1         ADD AND SUBTRACT ANALYZER    A  D  D / S  U  B  T  R  A  C  T                                         PAGE  132
-  LOC  OBJECT CODE    ADDR1 ADDR2  STMT   SOURCE STATEMENT                                       ASM 0201 11.03 02/14/15
0003D74 4780 9102      03DB8        5665          BE    EQU010              YES                                  43608021
 003D78 9534 D6BC      08784        5666          CLI   DOP1,XX34           ALPHA LITERAL...                     43616021
 003D7C 4780 9126      03DDC        5667          BE    EQU006              YES                                  43624021
 003D80 9536 D6BC      08784        5668          CLI   DOP1,XX36           INDEX NAME...                        43632021
 003D84 4780 9126      03DDC        5669          BE    EQU006              YES                                  43640021
 003D88 9532 D6BC      08784        5670          CLI   DOP1,XX32           NUMERIC LIT...                       43648021
 003D8C 4780 9102      03DB8        5671          BE    EQU010              YES                                  43656021
 003D90 9575 D6BC      08784        5672          CLI   DOP1,XX75           FIGCON...                            43664021
 003D94 4780 91C2      03E78        5673          BE    EQU011              YES                                  43672021
 003D98 9539 D6BC      08784        5674          CLI   DOP1,XX39           PLURAL FIGCON...                     43680021
 003D9C 4780 91D6      03E8C        5675          BE    EQU012              YES                                  43688021
 003DA0 4130 D6BC      08784        5676          LA    RW3,DOP1                                                 43696021
 003DA4 45E0 802C      00E5C        5677          BAL   XRSUB,XLENGH        GET LENGTHS                          43704021
 003DA8 9507 D410      084D8        5678          CLI   XGTEM2,XX07                                              43712021
 003DAC 47D0 910A      03DC0        5679          BNH   EQU005              NOT NUMERIC                          43720021
 003DB0 950E D410      084D8        5680          CLI   XGTEM2,XX0E                                              43728021
 003DB4 47B0 910A      03DC0        5681          BNL   EQU005              NOT NUMERIC                          43736021
 003DB8 5890 C208      07798        5682 EQU010   L     XRVERB,ADCN1D                                            43744021
                             04450  5683          USING MOVE,XRVERB                                              43752021
 003DBC 47F0 9088      044D8        5684          B     MVCONT             BRANCH TO MOVE ROUTINE                43760021
                                    5685          DROP  XRVERB                                                   43768021
                             03CB6  5686          USING EQUSCHR,XRVERB                                           43776021
                                    5687 *                                                                       43784021
                                    5688 *                                                                       43792021
 003DC0 4130 D738      08800        5689 EQU005   LA    RW3,DOP2                                                 43800021
 003DC4 45E0 802C      00E5C        5690          BAL   XRSUB,XLENGH        GET LENGTHS                          43808021
 003DC8 9532 D6BC      08784        5691          CLI   DOP1,XX32            NUMERIC LITERAL...                  43816021
 003DCC 4770 9126      03DDC        5692          BNE   EQU006              NO                                   43824021
 003DD0 4120 D6BC      08784        5693          LA    RW2,DOP1                                                 43832021
 003DD4 58F0 C8DC      07E6C        5694          L     XRVAR,AIMINIT0                                           43840021
                             03ED4  5695          USING IMINIT0,XRVAR                                            43848021
 003DD8 45E0 F000      03ED4        5696          BAL   RETRG,IMLIT         CONVERT NUMERIC LIT TO ALPHA LIT     43856021
                                    5697          DROP  XRVAR                                                    43864021
 003DDC 9575 D6BC      08784        5698 EQU006   CLI   DOP1,XX75           FIGCON...                            43872021
 003DE0 4780 91CA      03E80        5699          BE    EQU013             YES                                   43880021
 003DE4 9539 D6BC      08784        5700          CLI   DOP1,XX39           PLURAL FIGCON...                     43888021
 003DE8 4780 91D6      03E8C        5701          BE    EQU012             YES                                   43896021
 003DEC D203 D138 C8C8 08200 07E58  5702          MVC   OP1(LX4),XAOPE1                                          43904021
 003DF2 D203 D3E0 D138 084A8 08200  5703 EQU017   MVC   SAVEOP,OP1          SAVE ADDR OF CMPRAND DOP       45693 43912021
 003DF8 D200 D149 D45B 08211 08523  5704          MVC   XL1+NX1(LX1),XOPLGH+NX3  SET LNGTH OF MVC          45693 43920021
 003DFE 9230 D178      08240        5705          MVI   XCNTR1,TS2CODE                                           43928021
 003E02 D201 D179 D0BE 08241 08186  5706          MVC   XCNTR1+NX1(LX2),AXTLENG                                  43936021
 003E08 45E0 B18C      0181C        5707          BAL   XRSUB,MVC          * MVC  TS2,DOP                        43944021
                                    5708 * IF ALPHANUMERIC COMPARAND IS SHORTER THAN KEY,PAD WITH BLANKS   45693 43952021
 003E0C 5820 D3E0      084A8        5709          L     R2,SAVEOP                                          45693 43960021
 003E10 1B00                        5710          SR    R0,R0                                              45693 43968021
 003E12 4300 D6B9      08781        5711          IC    R0,MYSAVE+NX1       PICK UP KEY LNGTH              45693 43976021
 003E16 1B11                        5712          SR    R1,R1                                              45693 43984021
 003E18 4312 0001      00001        5713          IC    R1,DX1(R2)          GET LNGTH IF LIT               45693 43992021
 003E1C 9534 2000      00000        5714          CLI   DX0(R2),XX34        LITERAL..                      45693 44000021
 003E20 4780 917A      03E30        5715          BE    EQU018              YES                            45693 44008021
 003E24 4130 D6BC      08784        5716          LA    R3,DOP1                                            45693 44016021
 003E28 45E0 802C      00E5C        5717          BAL   RETRG,XLENGH        GET LNGTH OF DN                45693 44024021
 003E2C 4310 D45B      08523        5718          IC    R1,XOPLGH+NX3       GET CMPRAND LGTH LIF DN        45693 44032021
 003E30 1B01                        5719 EQU018   SR    R0,R1                                              45693 44040021
1         ADD AND SUBTRACT ANALYZER    A  D  D / S  U  B  T  R  A  C  T                                         PAGE  133
-  LOC  OBJECT CODE    ADDR1 ADDR2  STMT   SOURCE STATEMENT                                       ASM 0201 11.03 02/14/15
0003E32 1200                        5720          LTR   R0,R0               KEY LNGTH GR TH CMPRAND..      45693 44048021
 003E34 47D0 700A      0000A        5721          BNP   PH5CTL              NO                             45693 44056021
                                    5722 * KEY IS LONGER THAN COMPARAND. PAD COMPRAND WITH BLANKS          45693 44064021
                                    5723 * GENERATE LITERAL OF BLANKS IN DOP4                              45693 44072021
 003E38 9234 D830      088F8        5724          MVI   DOP4,XX34           SET ALPHA LITERAL CODE         45693 44080021
 003E3C 4200 D831      088F9        5725          STC   R0,DOP4+NX1         SET LIT LNGTH                  45693 44088021
 003E40 1830                        5726          LR    R3,R0                                              45693 44096021
 003E42 4120 D832      088FA        5727          LA    R2,DOP4+NX2                                        45693 44104021
 003E46 9240 2000      00000        5728 EQU019   MVI   DX0(R2),XX40        GENERATE LIT OF BLANKS EQ TO   45693 44112021
 003E4A 4122 0001      00001        5729          LA    R2,DX1(R2)          LNGTH OF DIFFERENCE BTWN       45693 44120021
 003E4E 4630 9190      03E46        5730          BCT   R3,EQU019           KEY AND CMPRAND                45693 44128021
 003E52 D203 D138 C8D4 08200 07E64  5731          MVC   OP1(LX4),XAOPE4                                    45693 44136021
 003E58 4830 D0BE      08186        5732          LH    R3,AXTLENG          SET DISPL IN TS2 TO            45693 44144021
 003E5C 1A31                        5733          AR    R3,R1               END OF COMPARAND               45693 44152021
 003E5E 4030 D3E4      084AC        5734          STH   R3,ALIGN                                           45693 44160021
 003E62 D201 D179 D3E4 08241 084AC  5735          MVC   XCNTR1+NX1(LX2),ALIGN                              45693 44168021
 003E68 9230 D178      08240        5736          MVI   XCNTR1,TS2CODE                                     45693 44176021
 003E6C 4200 D149      08211        5737          STC   R0,XL1+NX1          SET LNGTH FOR MVC              45693 44184021
 003E70 45E0 B18C      0181C        5738          BAL   RETRG,MVC           * MVC TS2(END OF CMPRND),BLANKS45693 44192021
 003E74 47F0 700A      0000A        5739          B     PH5CTL              RETURN TO CONTROL                    44200021
                                    5740 *                                                                       44208021
 003E78 95F0 D6BD      08785        5741 EQU011   CLI   DOP1+NX1,XXF0                                            44216021
 003E7C 4780 9102      03DB8        5742          BE    EQU010              YES                                  44224021
 003E80 4150 0001      00001        5743 EQU013   LA    RW5,DX1                                                  44232021
 003E84 4110 D6BD      08785        5744          LA    RW1,DOP1+NX1                                             44240021
 003E88 47F0 91E0      03E96        5745          B     EQU015              MOVE 1 BYTE                          44248021
 003E8C 1B55                        5746 EQU012   SR    RW5,RW5                  EXPAND FIGCON                   44256021
 003E8E 4350 D6BD      08785        5747          IC    RW5,DOP1+NX1                                             44264021
 003E92 4110 D6BE      08786        5748          LA    RW1,DOP1+NX2                                             44272021
 003E96 9234 D7B4      0887C        5749 EQU015   MVI   DOP3,XX34                                                44280021
 003E9A D200 D7B5 D45B 0887D 08523  5750          MVC   DOP3+NX1(LX1),XOPLGH+NX3                                 44288021
 003EA0 4120 D7B6      0887E        5751          LA    RW2,DOP3+NX2                                             44296021
 003EA4 1845                        5752          LR    RW4,RW5                                                  44304021
 003EA6 1805                        5753        LR    RW0,RW5                                                    44312021
 003EA8 0650                        5754          BCTR  RW5,R0             DECREMENT BY ONE                      44320021
 003EAA 4450 920E      03EC4        5755 EQU016 EX    RW5,EQUMVC                MOVE                             44328021
 003EAE 1A40                        5756          AR    RW4,RW0                                                  44336021
 003EB0 1A20                        5757          AR    RW2,RW0                                                  44344021
 003EB2 5940 D458      08520        5758          C     RW4,XOPLGH                                               44352021
 003EB6 4740 91F4      03EAA        5759        BL    EQU016                RW4 < XOPLGH                         44360021
 003EBA D203 D138 C8D0 08200 07E60  5760          MVC   OP1(LX4),XAOPE3                                          44368021
 003EC0 47F0 913C      03DF2        5761          B     EQU017              GENERATE MVC                         44376021
                                    5762 *                                                                       44384021
 003EC4 D200 2000 1000 00000 00000  5763 EQUMVC   MVC   DX0(LX0,RW2),DX0(RW1)                                    44392021
                                    5764 *                                                                       44400021
                                    5765 *                                                                       44408021
 003ECA 45E0 7AC0      00AC0        5766 EQUERR   BAL   RETRG,ERRPRO        GENERATE ERROR MESSAGE               44416021
 003ECE 0E                          5767          DC    AL1(ERRN14)                                              44424021
 003ECF 02                          5768          DC    AL1(2)             E LEVEL  MESG                         44432021
 003ED0 47F0 700A      0000A        5769          B     PH5CTL              DO NOT PROCESS STATEMENT             44440021
                                    5770 *                                                                       44448021
                             03ED4  5771          USING IMINIT0,XRVAR                                            44456021
                             03ED4  5772 IMINIT0  EQU   *                                                        44464021
 003ED4 9023 C950      07EE0        5773 IMLIT    STM   RW2,RW3,IMLSAV                                           44472021
 003ED8 1B00                        5774          SR    RW0,RW0                                                  44480021
1         ADD AND SUBTRACT ANALYZER    A  D  D / S  U  B  T  R  A  C  T                                         PAGE  134
-  LOC  OBJECT CODE    ADDR1 ADDR2  STMT   SOURCE STATEMENT                                       ASM 0201 11.03 02/14/15
0003EDA 1810                        5775          LR    RW1,RW0                                                  44488021
 003EDC F3E7 C934 2004 07EC4 00004  5776          UNPK  IMWORK(LX15),DX4(LX8,RW2)                                44496021
 003EE2 F363 C942 200B 07ED2 0000B  5777          UNPK  IMWORK+NX14(LX7),DX11(LX4,RW2)  THESE 2 UNPACKS UNPACK 1 44504021
 003EE8 4312 0001      00001        5778          IC    RW1,DX1(RW2)            BYTES EVEN IF LIT REQUIRES LESS  44512021
 003EEC 4B10 C3B2      07942        5779          SH    RW1,XC002               GET NO OF BYTES ACTUALLY USED    44520021
 003EF0 8910 0001      00001        5780          SLL   RW1,DX1                 TO EXRRESS LIT                   44528021
 003EF4 4131 C932      07EC2        5781          LA    RW3,IMWORK-NX2(RW1)     CALC ADDR OF BYTE INTO           44536021
 003EF8 9101 3001      00001        5782          TM    DX1(RW3),XX01           WHICH LAST DIGIT OF LIT          44544021
 003EFC 4710 F030      03F04        5783          BO    IMLIT1                  WAS UNPACKED                     44552021
 003F00 96FF 3001      00001        5784          OI    DX1(RW3),XXFF           TEST IF SIGN IS '-' OR '+'       44560021
 003F04 F100 3000 3001 00000 00001  5785 IMLIT1   MVO   DX0(LX1,RW3),DX1(LX1,RW3)   BRANCH IF + MOVE SIGN TO     44568021
 003F0A 4312 0002      00002        5786          IC    RW1,DX2(RW2)            SIGNPOSITIVE                     44576021
 003F0E 4302 0003      00003        5787          IC    RW0,DX3(RW2)            STORE NUMBER OF DIGITS AS LONG   44584021
 003F12 1A10                        5788          AR    RW1,RW0                                                  44592021
 003F14 4212 0001      00001        5789          STC   RW1,DX1(RW2)            OPERAND POINTED TO BY RW2        44600021
 003F18 1B31                        5790          SR    RW3,RW1                 //34/LENGTH/UNPACKED LIT//       44608021
 003F1A D211 2002 3001 00002 00001  5791          MVC   DX2(LX18,RW2),DX1(RW3)                                   44616021
 003F20 9234 2000      00000        5792          MVI   DX0(RW2),XX34                                            44624021
 003F24 9823 C950      07EE0        5793          LM    RW2,RW3,IMLSAV                                           44632021
 003F28 07FE                        5794          BR    RETRG                   EXIT                             44640021
                                    5795          DROP  XRVAR                                                    44648021
1         ADD AND SUBTRACT ANALYZER    A  D  D / S  U  B  T  R  A  C  T                                         PAGE  135
-  LOC  OBJECT CODE    ADDR1 ADDR2  STMT   SOURCE STATEMENT                                       ASM 0201 11.03 02/14/15
0                                   5797 *  END OF WHEN                                                          44664021
                                    5798 *                                                                       44672021
                                    5799 *   INPUT- DOP1 DN=TABLE                                                44680021
                                    5800 *          DOP2 INDEX FOR LEVEL BEING SEARCHED                          44688021
                                    5801 *                                                                       44696021
                             03F2A  5802          USING *,XRVERB                                                 44704021
 003F2A 9258 D178      08240        5803 ENDSCHAL MVI   XCNTR1,TS4CODE                                           44712021
 003F2E 920D D17A      08242        5804          MVI   XCNTR1+NX2,XX0D    MOVE TOTAL NUMB OF KEYS TO            44720021
 003F32 4800 D0C0      08188        5805          LH    RW0,AXTKEYN        TABLE DESCRIPTOR IN TS4               44728021
 003F36 4200 D189      08251        5806          STC   RW0,XIMM                                                 44736021
 003F3A 45E0 BB1E      021AE        5807          BAL   XRSUB,MVI           GENERATE MVI                         44744021
 003F3E 8B00 0002      00002        5808          SLA   RW0,DX2                                                  44752021
 003F42 4A00 C870      07E00        5809          AH    RW0,XC012                                                44760021
 003F46 5900 A1E0      001E0        5810          C     RW0,TS4MAX                                               44768021
 003F4A 4740 9028      03F52        5811          BL    ENDSCH01            DO NOT STORE INTO TS4MAX             44776021
 003F4E 4000 A1E0      001E0        5812          STH   RW0,TS4MAX                                               44784021
                             03F52  5813 ENDSCH01 EQU   *                                                        44792021
 003F52 4800 D0BE      08186        5814          LH    RW0,AXTLENG                                              44800021
 003F56 4A00 D0C2      0818A        5815          AH    RW0,AXTCKEY        GET TOTAL OF TS2 NEEDED               44808021
 003F5A 4900 A16A      0016A        5816          CH    RW0,TS2MAX         ENUF TS2 CELLS ALLOCATED...           44816021
 003F5E 47D0 903C      03F66        5817          BNH   ENDSCH03           YES                                   44824021
 003F62 4000 A16A      0016A        5818          STH   RW0,TS2MAX         NO, UP COUNT OF TS2                   44832021
                             03F66  5819 ENDSCH03 EQU   *                                                        44840021
                                    5820 * GENERATE CALLING SEQUENCE TO SEARCH ALL SUBROUTINE                    44848021
                                    5821 *                                                                       44856021
                                    5822 *                    LA     0,KEYFIELD                                  44864021
                                    5823 *                    LA     1,TABLE DESCRIPTOR                          44872021
                                    5824 *                    CNOP   2,4                                         44880021
                                    5825 *                    L      15,V(ILBOSCH0)                              44888021
                                    5826 *                    BALR   14,15                                       44896021
                                    5827 *                    DC     X'NN'      TYPE OF FIRST KEY                44904021
                                    5828 *                    DC     X'NN'      LENGTH OF FIRST KEY              44912021
                                    5829 *                    DC     X'NNNN'    OFFSET OF FIRST KEY              44920021
                                    5830 *                    DC     ...                                         44928021
                                    5831 *                    DC     ...        SAME INFO FOR OTHER KEYS         44936021
                                    5832 *                    DC     ...                                         44944021
                                    5833 *                                                                       44952021
 003F66 9230 D178      08240        5834          MVI   XCNTR1,TS2CODE                                           44960021
 003F6A 9201 D17A      08242        5835          MVI   XCNTR1+NX2,XX01                                          44968021
 003F6E 45E0 BBDE      0226E        5836          BAL   XRSUB,LA           LA   0,TS2=1                          44976021
 003F72 9201 D188      08250        5837          MVI   XREG1,XX01                                               44984021
 003F76 9258 D178      08240        5838          MVI   XCNTR1,TS4CODE                                           44992021
 003F7A 9201 D17A      08242        5839          MVI   XCNTR1+NX2,XX01                                          45000021
 003F7E 45E0 BBDE      0226E        5840          BAL   XRSUB,LA           LA   1,TS4=1                          45008021
 003F82 45E0 8776      015A6        5841          BAL   XRSUB,DICNOP        CNOP   2,4                           45016021
 003F86 45E0 8792      015C2        5842          BAL   XRSUB,VBADCE       L   15,V(ILBOSCH0)                    45024021
 003F8A E2C3C8F0                    5843          DC    CL4'SCH0'          BALR   14,15                          45032021
                                    5844 * GENERATE A DC OF EACH KEY BEING TESTED                                45040021
 003F8E 4810 D0C0      08188        5845          LH    RW1,AXTKEYN       PICKUP NUMB OF KEYS                    45048021
 003F92 1211                        5846          LTR   RW1,RW1            ANY DC'S TO BE GENERATED...           45056021
 003F94 4780 700A      0000A        5847          BZ    PH5CTL             NO, EXIT                              45064021
 003F98 4120 D4B4      0857C        5848          LA    RW2,KEYDC                                                45072021
                             03F9C  5849 ENDSCH02 EQU   *                                                        45080021
 003F9C 9204 D160      08228        5850          MVI   XCON1,XX04                                               45088021
 003FA0 D203 D161 2000 08229 00000  5851          MVC   XCON1+NX1(LX4),DX0(RW2)                                  45096021
1         ADD AND SUBTRACT ANALYZER    A  D  D / S  U  B  T  R  A  C  T                                         PAGE  136
-  LOC  OBJECT CODE    ADDR1 ADDR2  STMT   SOURCE STATEMENT                                       ASM 0201 11.03 02/14/15
0003FA6 9224 D189      08251        5852          MVI   XIMM,MDC                                                 45104021
 003FAA 45E0 BD8A      0241A        5853          BAL   XRSUB,MACRO       * DC  XL4'KEY INFO'                    45112021
 003FAE 4A20 C3BA      0794A        5854          AH    RW2,XC004                                                45120021
 003FB2 4610 9072      03F9C        5855          BCT   RW1,ENDSCH02        FALL THRU IF NO MORE DCS             45128021
                                    5856 *                                                                       45136021
                                    5857 * GENERATE CODE TO SET THE INDEX FOR THE LEVEL BEING SEARCHED TO        45144021
                                    5858 * THE TABLE ENTRY FOUND IN THE SUBROUTINE (POINTED TO BY R0 ON RETURN   45152021
                                    5859 * FROM THE SUBROUTINE)                                                  45160021
                                    5860 *                                                                       45168021
 003FB6 9501 D0D2      0819A        5861          CLI   ELEMCT,XX01                                              45176021
 003FBA 4770 700A      0000A        5862          BNE   PH5CTL      ********************************             45184021
 003FBE 9210 D14E      08216        5863          MVI   BDISP1,XX10                                              45192021
 003FC2 9201 D188      08250        5864          MVI   XREG1,XX01                                               45200021
 003FC6 45E0 B000      01690        5865          BAL   RETRG,LOAD         * L   1,0(1)  (PICK UP TBL ADDR)      45208021
 003FCA 9201 D1D0      08298        5866          MVI   XREG2,XX01                                               45216021
 003FCE 45E0 B038      016C8        5867          BAL   RETRG,SUB          * SR  0,1                             45224021
 003FD2 D203 D138 C8C8 08200 07E58  5868          MVC   OP1,XAOPE1                                               45232021
 003FD8 45E0 B040      016D0        5869          BAL   RETRG,STORE        * ST  0,INDEX-NAME                    45240021
 003FDC 47F0 700A      0000A        5870          B     PH5CTL            LEAVE 'END OF WHEN'                    45248021
 003FE0                             5871 WRITE    DS    0H                                                 59733 45256021
 003FE0                             5872 REWRIT   DS    0H                                                 59733 45264021
                                    5873 *                                                                 59733 45272021
                                    5874 *        DUMMY WRITE/REWRITE ROUTINE TO ELIMINATE XREF ELEMENT    59733 45280021
                                    5875 *        DUPLICATION DUE TO TWIN STRINGS FOR FROM OPTION.         59733 45288021
                                    5876 *                                                                 59733 45296021
                             03FE0  5877          USING *,XRVERB                                           59733 45304021
 003FE0 9101 D681      08749        5878          TM    WRITSW,XX01         SECOND STRING...               59733 45312021
 003FE4 4710 901A      03FFA        5879          BO    SCNDSTRG            YES                            59733 45320021
 003FE8 D501 D830 C9C0 088F8 07F50  5880          CLC   DOP4(LX2),ONZERO         MOVE EXPECTED...          59733 45328021
 003FEE 4780 901A      03FFA        5881          BE    SCNDSTRG            NO                             59733 45336021
 003FF2 9601 D681      08749        5882          OI    WRITSW,XX01         YES, INDICATE SO               59733 45344021
 003FF6 47F0 73BA      003BA        5883          B     PH5BVB              HOUSEKEEPING                   59733 45352021
 003FFA                             5884 SCNDSTRG DS    0H                                                 59733 45360021
 003FFA 94FE D681      08749        5885          NI    WRITSW,X'FF'-XX01        TURN OFF SWITCH           59733 45368021
 003FFE 47F0 73BA      003BA        5886          B     PH5BVB              HOUSEKEEPING                   59733 45376021
1         ADD AND SUBTRACT ANALYZER    A  D  D / S  U  B  T  R  A  C  T                                         PAGE  137
-  LOC  OBJECT CODE    ADDR1 ADDR2  STMT   SOURCE STATEMENT                                       ASM 0201 11.03 02/14/15
1         COMPARE VERB ANALYZER   C  O  M  P  A  R  E                                                           PAGE  138
-  LOC  OBJECT CODE    ADDR1 ADDR2  STMT   SOURCE STATEMENT                                       ASM 0201 11.03 02/14/15
0004008                             5889 IKF50C CSECT                                                            45400021
                                    5890 *      EQUAL  COMPARISON FOR NUMERIC.                                   45408021
                                    5891 *                                                                       45416021
                                    5892 *                                                                       45424021
                             04008  5893        USING *,XRVERB                                                   45432021
                             04008  5894 PEQNUM EQU   *                                                          45440021
 004008 9208 D49B      08563        5895        MVI   XCPSW,XZERO                SET TRANSFER CODES FOR DIRE     45448021
 00400C 9208 D49C      08564        5896        MVI   XSPSW,XZERO                COMPARISON,OR FOR COMPARISO     45456021
 004010 47F0 90A8      040B0        5897        BC    UNCON,XC0MBG          GO TO COMMON ANALYZER                45464021
                                    5898 *      SET  3  TRANSFER CODES  IN CASE  OF BINARY DP COMPARE.           45472021
 004014 9200 D49B      08563        5899          MVI   XT1,XX00                                                 45480021
 004018 9207 D49C      08564        5900        MVI   XT2,XNOEQ                  GO TO  DP BINARY COMPARE.       45488021
 00401C 9208 D49A      08562        5901        MVI   XT3,XZERO                  X                               45496021
 004020 47F0 916C      04174        5902        BC    UNCON,XBDP0P          GENERATE TRANSFER                    45504021
                                    5903 *                                                                       45512021
-
0
                                    5905 *      NOT EQUAL COMPARISON FOR NUMERIC                                 45528021
                                    5906 *                                                                       45536021
                                    5907 *                                                                       45544021
                             04024  5908        USING *,XRVERB                                                   45552021
                             04024  5909 NEQNUM EQU   *                                                          45560021
 004024 9207 D49B      08563        5910        MVI   XCPSW,XNOEQ                                                45568021
 004028 9207 D49C      08564        5911        MVI   XSPSW,XNOEQ                                                45576021
 00402C 47F0 908C      040B0        5912        BC    UNCON,XC0MBG          GO TO COMMON ANALYZER                45584021
                                    5913 *  SET  3 TRANSFER CODES IN CASE OF DP BINARY COMPARE.                  45592021
                                    5914 *                                                                       45600021
 004030 9207 D49B      08563        5915        MVI   XT1,XNOEQ                                                  45608021
 004034 9200 D49C      08564        5916          MVI   XT2,XX00                                                 45616021
 004038 9207 D49A      08562        5917        MVI   XT3,XNOEQ                                                  45624021
 00403C 47F0 9150      04174        5918        BC    UNCON,XBDP0P          GENERATE TRANSFER                    45632021
                                    5919 *                                                                       45640021
-
0
                                    5921 *      GREATER THAN  COMPARE FOR NUMERIC.                               45656021
                                    5922 *                                                                       45664021
                                    5923 *                                                                       45672021
                             04040  5924        USING *,XRVERB                                                   45680021
                             04040  5925 PGTNUM EQU   *                                                          45688021
 004040 9202 D49B      08563        5926        MVI   XCPSW,XTWO                                                 45696021
 004044 9204 D49C      08564        5927        MVI   XSPSW,XONE                                                 45704021
 004048 47F0 9070      040B0        5928        BC    UNCON,XC0MBG          GO TO COMMON ANALYZER                45712021
                                    5929 *   SET 3 TRANSFER CODES  IN CASE OF DP BINARY COMPARE.                 45720021
                                    5930 *                                                                       45728021
 00404C 9204 D49B      08563        5931        MVI   XT1,XONE                                                   45736021
 004050 9200 D49C      08564        5932          MVI   XT2,XX00                                                 45744021
 004054 9200 D49A      08562        5933          MVI   XT3,XX00                                                 45752021
 004058 47F0 9134      04174        5934        BC    UNCON,XBDP0P          GENERATE TRANSFER                    45760021
                                    5935 *                                                                       45768021
1         COMPARE VERB ANALYZER   C  O  M  P  A  R  E                                                           PAGE  139
-  LOC  OBJECT CODE    ADDR1 ADDR2  STMT   SOURCE STATEMENT                                       ASM 0201 11.03 02/14/15
0                                   5937 *      NON  GREATER THAN COMPARE FOR NUMERIC FIELD.                     45784021
                                    5938 *                                                                       45792021
                                    5939 *                                                                       45800021
                             0405C  5940        USING *,XRVERB                                                   45808021
                             0405C  5941 NGTNUM EQU   *                                                          45816021
 00405C 920D D49B      08563        5942        MVI   XCPSW,XNOGT                                                45824021
 004060 920A D49C      08564        5943        MVI   XSPSW,XGTEQ                                                45832021
 004064 47F0 9054      040B0        5944        BC    UNCON,XC0MBG          GO TO COMMON ANALYZER                45840021
                                    5945 *      SET   3 TRANSFER CODES IN CASE OF DP BINARY COMPARE.             45848021
                                    5946 *                                                                       45856021
 004068 920A D49B      08563        5947        MVI   XT1,XGTEQ                                                  45864021
 00406C 9200 D49C      08564        5948          MVI   XT2,XX00                                                 45872021
 004070 9200 D49A      08562        5949          MVI   XT3,XX00                                                 45880021
 004074 47F0 9118      04174        5950        BC    UNCON,XBDP0P          GENERATE TRANSFER                    45888021
                                    5951 *                                                                       45896021
-
0
                                    5953 *      LESS THAN COMPARE FOR NUMERIC FIELD.                             45912021
                                    5954 *                                                                       45920021
                                    5955 *                                                                       45928021
                             04078  5956        USING *,XRVERB                                                   45936021
                             04078  5957 PLTNUM EQU   *                                                          45944021
 004078 9204 D49B      08563        5958        MVI   XCPSW,XONE                                                 45952021
 00407C 9202 D49C      08564        5959        MVI   XSPSW,XTWO                                                 45960021
 004080 47F0 9038      040B0        5960        BC    UNCON,XC0MBG          GO TO COMMON ANALYZER                45968021
                                    5961 *      SET 3 TRANSFER CODES FOR DP BINARY COMPARE.                      45976021
                                    5962 *                                                                       45984021
 004084 9202 D49B      08563        5963        MVI   XT1,XTWO                                                   45992021
 004088 9204 D49C      08564        5964        MVI   XT2,XONE                                                   46000021
 00408C 9207 D49A      08562        5965        MVI   XT3,XNOEQ                                                  46008021
 004090 47F0 90FC      04174        5966        BC    UNCON,XBDP0P          GENERATE TRANSFER                    46016021
                                    5967 *                                                                       46024021
-
0
                                    5969 *      NOT LESS THAN COMPARE FOR NUMERIC FIELD.           >             46040021
                                    5970 *                                                                       46048021
                                    5971 *                                                                       46056021
                             04094  5972        USING *,XRVERB                                                   46064021
                             04094  5973 NLTNUM EQU   *                                                          46072021
 004094 920A D49B      08563        5974        MVI   XCPSW,XGTEQ                                                46080021
 004098 920D D49C      08564        5975        MVI   XSPSW,XNOGT                                                46088021
 00409C 47F0 901C      040B0        5976        BC    UNCON,XC0MBG          GO TO COMMON ANALYZER                46096021
                                    5977 *      SET 3 TRANSFER CODES FOR DP BINARY COMPARE.                      46104021
                                    5978 *                                                                       46112021
 0040A0 9204 D49B      08563        5979        MVI   XT1,XONE                                                   46120021
 0040A4 9202 D49C      08564        5980        MVI   XT2,XTWO                                                   46128021
 0040A8 9208 D49A      08562        5981        MVI   XT3,XZERO                                                  46136021
 0040AC 47F0 90E0      04174        5982        BC    UNCON,XBDP0P          GENERATE TRANSFER                    46144021
                                    5983 *                                                                       46152021
1         COMPARE VERB ANALYZER   C  O  M  P  A  R  E                                                           PAGE  140
-  LOC  OBJECT CODE    ADDR1 ADDR2  STMT   SOURCE STATEMENT                                       ASM 0201 11.03 02/14/15
00040B0 05F0                        5985 XC0MBG BALR  XRVAR,RW0             SET UP ADDRESSABILITY                46168021
                             040B2  5986        USING *,XRVAR                                                    46176021
                             040B2  5987 XCOMBG EQU   *                                                          46184021
0
 0040B2 45E0 79B4      009B4        5989          BAL   XRSUB,XOTSEL        GET OPERAND INFO INTO BUFFERS        46200021
 0040B6 9740 D481      08549        5990        XI    XGSWT,XAROPE                                               46208021
 0040BA 9102 D482      0854A        5991        TM    XOPMOD,XFLOAT                                              46216021
 0040BE 4710 F09A      0414C        5992        BC    XTHRE,COMPFL               FLOATING POINT COMPARE.         46224021
 0040C2 45E0 83E6      01216        5993        BAL   XRSUB,LTLTST          ARE BOTH OPERANDS LITERALS           46232021
 0040C6 47F0 F022      040D4        5994        BC    UNCON,XCOM03          NO                                   46240021
                                    5995 *                                                                       46248021
                                    5996 *            ERROR NUMBER 13.                                           46256021
                                    5997 *                                                                       46264021
 0040CA 45E0 7AC0      00AC0        5998        BAL   XRSUB,ERRPRO          GENERATE ERROR MESSAGE               46272021
 0040CE 0D                          5999        DC    AL1(ERRN13)                                                46280021
 0040CF 02                          6000        DC    AL1(2)                                                     46288021
 0040D0 47F0 700A      0000A        6001        BC    UNCON,PH5CTL          RETURN TO CONTROL                    46296021
                             040D4  6002 XCOM03 EQU   *                                                          46304021
 0040D4 9180 501D      0001D        6003          TM    Y1IRX+NX1(XR5),XLITZR     CHECK FOR COMPARISON WITH      46312021
 0040D8 4710 F046      040F8        6004        BC    XTHRE,XCOM00               ZERO LITERAL.                   46320021
 0040DC 9180 301D      0001D        6005          TM    Y1IRX+NX1(XR3),XLITZR     X                              46328021
 0040E0 4710 F046      040F8        6006        BC    XTHRE,XCOM00               X                               46336021
 0040E4 D500 3025 5025 00025 00025  6007          CLC   Y1DBS+NX1(LX1,XR3),Y1DBS+NX1(XR5)                        46344021
 0040EA 4770 F0B6      04168        6008        BC    XNOEQ,XCOM01          NUMBER OF DEC IN OPDS NOT EQUAL      46352021
 0040EE D500 3027 5027 00027 00027  6009          CLC   Y1ALP+NX1(LX1,XR3),Y1ALP+NX1(XR5)                        46360021
 0040F4 4770 F0B6      04168        6010        BC    XNOEQ,XCOM01          SCALING FACTOR OF OPDS NOT EQUAL     46368021
                                    6011 *      BOTH  FIELD ARE ALIGNED - COMPARE THEM DIRECTLY.                 46376021
                                    6012 *                                                                       46384021
 0040F8 9200 D50F      085D7        6013 XCOM00   MVI   X1ALP+NX1,XX00                                           46392021
 0040FC 9200 D547      0860F        6014          MVI   X2ALP+NX1,XX00                                           46400021
 004100 45E0 8576      013A6        6015        BAL   XRSUB,XHSMD1               SET MODE.                       46408021
 004104 9120 D481      08549        6016        TM    XGSWT,XIDMOD                                               46416021
 004108 47E0 F07A      0412C        6017        BC    NOTHR,XCOM02          BINARY MODE                          46424021
 00410C 45E0 7DE0      00DE0        6018        BAL   XRSUB,XW000                X                               46432021
 004110 45E0 7802      00802        6019        BAL   XRSUB,XZSIDB               X                               46440021
 004114 45E0 BAB2      02142        6020 XCOM08 BAL   XRSUB,COMP                      CP  OP1,OP2   OR           46448021
                                    6021 *                                                                       46456021
                                    6022 * ---------------------                                                 46464021
                             04118  6023 COMPF0 EQU   *                                                          46472021
 004118 D200 D188 D49B 08250 08563  6024          MVC   XREG1(LX1),XCPSW               C(H)XR, OP2               46480021
 00411E D201 D172 D7B5 0823A 0887D  6025 XCOM09   MVC   XGN1(LX2),DOP3+NX1                                       46488021
                                    6026 *                                                                       46496021
 004124 45E0 BC10      022A0        6027        BAL   XRSUB,BC                        BC COND,4GN                46504021
 004128 47F0 84E4      01314        6028        BC    UNCON,XRESTG          REL REG AND TEMP STOR USED           46512021
                                    6029 *                                                                       46520021
0
 00412C 9504 D509      085D1        6031 XCOM02   CLI   X1BBS+NX1,XX04            FOR DP  BINARY  GENERATE A     46536021
 004130 4720 F0B6      04168        6032        BC    XTWO,XCOM01                SUBSTRACTION IN ANY CASES.      46544021
 004134 9504 D541      08609        6033          CLI   X2BBS+NX1,XX04            X                              46552021
 004138 4720 F0B6      04168        6034        BC    XTWO,XCOM01                X                               46560021
 00413C 45E0 7B0E      00B0E        6035          BAL   XRSUB,XBISCL        CONVERT TO BINARY IF NECESSARY       46568021
 004140 45E0 8106      00F36        6036          BAL   XRSUB,XSLOAS        L  XR,OP1                            46576021
 004144 45E0 77F2      007F2        6037        BAL   XRSUB,XZBINB          SET A-TEXT                           46584021
1         COMPARE VERB ANALYZER   C  O  M  P  A  R  E                                                           PAGE  141
-  LOC  OBJECT CODE    ADDR1 ADDR2  STMT   SOURCE STATEMENT                                       ASM 0201 11.03 02/14/15
0004148 47F0 F062      04114        6038        BC    UNCON,XCOM08               GENERATE COMPARE.               46592021
0
                                    6040 *                                                                       46608021
                                    6041 *                                                                       46616021
                                    6042 *  FLOATING -POINT COMPARE.                                             46624021
                                    6043 *                                                                       46632021
 00414C 45E0 834E      0117E        6044 COMPFL BAL   XRSUB,FPCVBG          MAKE BOTH FL PT OPDS SAME FORMAT     46640021
 004150 45E0 811C      00F4C        6045        BAL   XRSUB,FPLOAD          LOAD ONE OPERAND INTO A REG          46648021
 004154 45E0 77DA      007DA        6046        BAL   XRSUB,FPSETA          SET A-TEXT                           46656021
 004158 41E0 F066      04118        6047        LA    XRSUB,COMPF0                                               46664021
 00415C 9104 301D      0001D        6048          TM    Y1IRX+NX1(XR3),XGDPFP                                    46672021
 004160 4710 BD6E      023FE        6049        BC    XTHRE,CMPFLL               CE   OR  CER.                   46680021
 004164 47F0 BD66      023F6        6050        BC    UNCON,CMPFLS               CD   OR  CDR.                   46688021
-
0
 004168 9640 D482      0854A        6052 XCOM01 OI    XOPMOD,XXSUB               GENERATE A SUBSTRACT            46704021
 00416C 58F0 C8E0      07E70        6053        L     XRVAR,XATADD                                               46712021
                             03774  6054        USING XOTDDD,XRVAR                       OP2 -OP1                46720021
 004170 47F0 F016      0378A        6055        BC    UNCON,XOTCMP          GO TO SUBTRACT ROUTINE               46728021
                             040B2  6056        USING XCOMBG,XRVAR                                               46736021
0
-
0
                                    6059 *      XBDPCP  - GENERATE  TRANSFER AND TEST ON A DP BINARY DIFEREN     46760021
                                    6060 *                                                                       46768021
                                    6061 *                                                                       46776021
 004174 05F0                        6062 XBDP0P BALR  XRVAR,RW0             SET UP ADDRESSABILITY                46784021
                             04176  6063        USING *,XRVAR                                                    46792021
                                    6064 *                                                                       46800021
 004176 D200 D188 D48A 08250 08552  6065          MVC   XREG1(LX1),XREGNO         GENERATE                       46808021
 00417C D200 D1D0 D48A 08298 08552  6066          MVC   XREG2(LX1),XREGNO                 LTR   XR0,XR0          46816021
 004182 45E0 BACA      0215A        6067        BAL   XRSUB,LTRBI           GENERATE LTR                         46824021
 004186 9500 D49B      08563        6068          CLI   XT1,XX00                                                 46832021
 00418A 4780 F028      0419E        6069        BC    XZERO,XBDPZ1          NO TRANSFER                          46840021
 00418E D201 D172 D7B5 0823A 0887D  6070          MVC   XGN1(LX2),DOP3+NX1  GET PH4 TRANSFER                     46848021
 004194 D200 D188 D49B 08250 08563  6071          MVC   XREG1(LX1),XT1                                           46856021
 00419A 45E0 BC10      022A0        6072        BAL   XRSUB,BC                        BC 1COND,4GN               46864021
 00419E 9500 D49C      08564        6073 XBDPZ1   CLI   XT2,XX00                                                 46872021
 0041A2 4780 F03E      041B4        6074        BC    XZERO,XBDPZ2          NO TRANSFER                          46880021
 0041A6 45E0 7AA2      00AA2        6075        BAL   XRSUB,XSTLHN                 GET A PHASE 5  GN.            46888021
 0041AA D200 D188 D49C 08250 08564  6076          MVC   XREG1(LX1),XT2                                           46896021
 0041B0 45E0 BC10      022A0        6077        BAL   XRSUB,BC                        BC 2COND,5GN               46904021
 0041B4 9500 D49A      08562        6078 XBDPZ2   CLI   XT3,XX00                                                 46912021
 0041B8 4780 F066      041DC        6079        BC    XZERO,XBDPZ3          NO TRANSFER                          46920021
 0041BC D200 D188 D48B 08250 08553  6080          MVC   XREG1(LX1),XREGNP      LTR   XR1,XR1                     46928021
 0041C2 D200 D1D0 D48B 08298 08553  6081          MVC   XREG2(LX1),XREGNP         X                              46936021
 0041C8 45E0 BACA      0215A        6082        BAL   XRSUB,LTRBI                X                               46944021
1         COMPARE VERB ANALYZER   C  O  M  P  A  R  E                                                           PAGE  142
-  LOC  OBJECT CODE    ADDR1 ADDR2  STMT   SOURCE STATEMENT                                       ASM 0201 11.03 02/14/15
00041CC D200 D188 D49A 08250 08562  6083          MVC   XREG1(LX1),XT3                                           46952021
 0041D2 D201 D172 D7B5 0823A 0887D  6084          MVC   XGN1(LX2),DOP3+NX1  BC  COND,4GN                         46960021
 0041D8 45E0 BC10      022A0        6085        BAL   XRSUB,BC              GENERATE BC                          46968021
                             041DC  6086 XBDPZ3 EQU   *                                                          46976021
 0041DC 9500 D49C      08564        6087          CLI   XT2,XX00                                                 46984021
 0041E0 4780 F078      041EE        6088        BC    XZERO,XBDPZ4          NO TRANSFER                          46992021
 0041E4 D201 756D D460 0056D 08528  6089          MVC   PH4GN+NX1(LX2),XGNTMP   MOVE GN #                        47000021
 0041EA 45E0 753C      0053C        6090          BAL   XRSUB,WRPH4G            WRITE PH4 GN DEF                 47008021
                             041EE  6091 XBDPZ4 EQU   *                                                          47016021
 0041EE 47F0 84E4      01314        6092        BC    UNCON,XRESTG          REL REG AND TEMP STOR USED           47024021
                                    6093 *                                                                       47032021
1         IKFCBL50: INDEX COMPARE VERB ANALYZERS                                                                PAGE  143
-  LOC  OBJECT CODE    ADDR1 ADDR2  STMT   SOURCE STATEMENT                                       ASM 0201 11.03 02/14/15
0                                   6095 *                                                                 51894 47048021
                                    6096 *                                                                 51894 47056021
                                    6097 * RELATION CONDITION INVOLVING INDEX-NAMES.                       51894 47064021
                                    6098 *                                                                 51894 47072021
                                    6099 *                                                                 51894 47080021
                                    6100 * INPUT:  DOP1 = 1ST OP       DOP2 = 2ND OP       DOP3 = GN       51894 47088021
                                    6101 *                                                                 51894 47096021
                                    6102 *                                                                 51894 47104021
                             041F2  6103          USING *,XRVERB                                           51894 47112021
 0041F2 9208 D498      08560        6104 IFINEQUA MVI   IFINCODE,XZERO                                     51894 47120021
 0041F6 9208 D499      08561        6105          MVI   IFINCOD2,XZERO                                     51894 47128021
 0041FA 47F0 9044      04236        6106          B     IFINCOMR            BR TO COMMON IF ROUTINE        51894 47136021
                                    6107 *                                                                 51894 47144021
                                    6108 *                                                                 51894 47152021
                             041FE  6109          USING *,XRVERB                                           51894 47160021
 0041FE 9207 D498      08560        6110 IFINNEQU MVI   IFINCODE,XNOEQ                                     51894 47168021
 004202 9207 D499      08561        6111          MVI   IFINCOD2,XNOEQ                                     51894 47176021
 004206 47F0 9038      04236        6112          B     IFINCOMR            BR TO COMMON IF ROUTINE        51894 47184021
                                    6113 *                                                                 51894 47192021
                                    6114 *                                                                 51894 47200021
                             0420A  6115          USING *,XRVERB                                           51894 47208021
 00420A 9202 D498      08560        6116 IFINGREA MVI   IFINCODE,XTWO                                      51894 47216021
 00420E 9204 D499      08561        6117          MVI   IFINCOD2,XONE                                      51894 47224021
 004212 47F0 902C      04236        6118          B     IFINCOMR            BR TO COMMON IF ROUTINE        51894 47232021
                                    6119 *                                                                 51894 47240021
                                    6120 *                                                                 51894 47248021
                             04216  6121          USING *,XRVERB                                           51894 47256021
 004216 920D D498      08560        6122 IFINNGRE MVI   IFINCODE,XNOGT                                     51894 47264021
 00421A 920A D499      08561        6123          MVI   IFINCOD2,XGTEQ                                     51894 47272021
 00421E 47F0 9020      04236        6124          B     IFINCOMR            BR TO COMMON IF ROUTINE        51894 47280021
                                    6125 *                                                                 51894 47288021
                                    6126 *                                                                 51894 47296021
                             04222  6127          USING *,XRVERB                                           51894 47304021
 004222 9204 D498      08560        6128 IFINLESS MVI   IFINCODE,XONE                                      51894 47312021
 004226 9202 D499      08561        6129          MVI   IFINCOD2,XTWO                                      51894 47320021
 00422A 47F0 9014      04236        6130          B     IFINCOMR            BR TO COMMON IF ROUTINE        51894 47328021
                                    6131 *                                                                 51894 47336021
                                    6132 *                                                                 51894 47344021
                             0422E  6133          USING *,XRVERB                                           51894 47352021
 00422E 920A D498      08560        6134 IFINNLES MVI   IFINCODE,XGTEQ                                     51894 47360021
 004232 920D D499      08561        6135          MVI   IFINCOD2,XNOGT                                     51894 47368021
                                    6136 *                                                                 51894 47376021
                                    6137 *                                                                 51894 47384021
                                    6138 *  COMMON  IF  ROUTINE - TRANSFER CODE IS IN IFINCODE. IF OPERANDS51894 47392021
                                    6139 *  ARE  EXCHANGED THIS CODE WILL BE INVERTED.                     51894 47400021
                                    6140 *                                                                 51894 47408021
                                    6141 *                                                                 51894 47416021
 004236 0590                        6142 IFINCOMR BALR  XRVERB,RW0          ESTABLISH ADDRESSABILITY       51894 47424021
                             04238  6143          USING *,XRVERB                                           51894 47432021
 004238 4140 D6BC      08784        6144          LA    XR4,DOP1                                           51894 47440021
 00423C 4160 D738      08800        6145          LA    XR6,DOP2                                           51894 47448021
 004240 9536 4000      00000        6146          CLI   DX0(RW4),XX36                                      51894 47456021
 004244 4780 902E      04266        6147          BE    IFIN000             PROCESS INDEX NAME             51894 47464021
 004248 45E0 7830      00830        6148          BAL   XRSUB,XZX4X6        EXCHANGE OPERAND.              51894 47472021
 00424C D700 D498 D499 08560 08561  6149          XC    IFINCODE(LX1),IFINCOD2    REVERSE TRANSFER CODE    51894 47480021
1         IKFCBL50: INDEX COMPARE VERB ANALYZERS                                                                PAGE  144
-  LOC  OBJECT CODE    ADDR1 ADDR2  STMT   SOURCE STATEMENT                                       ASM 0201 11.03 02/14/15
0004252 D700 D499 D498 08561 08560  6150          XC    IFINCOD2(LX1),IFINCODE                             51894 47488021
 004258 D700 D498 D499 08560 08561  6151          XC    IFINCODE(LX1),IFINCOD2                             51894 47496021
 00425E 9536 4000      00000        6152          CLI   DX0(RW4),XX36                                      51894 47504021
 004262 4770 9150      04388        6153          BNE   IFIN001             NONE OF THE OPERANDS IS AN     51894 47512021
                                    6154 *                                  INDEX-NAME - THEY BOTH HAVE    51894 47520021
                                    6155 *                                  BE INDEX DATA ITEM.            51894 47528021
                                    6156 *                                                                 51894 47536021
                                    6157 *   INDEX NAME AND INDEX NAME      OR                             51894 47544021
                                    6158 *        -     -  INDEX DATA ITEM  -                              51894 47552021
                                    6159 *        -     -  IDENTIFIER                                      51894 47560021
                                    6160 *                                                                 51894 47568021
                                    6161 *                                                                 51894 47576021
 004266 9536 6000      00000        6162 IFIN000  CLI   DX0(RW6),XX36                                      51894 47584021
 00426A 4780 90D4      0430C        6163          BE    IFIN002             TWO INDEX NAME.                51894 47592021
 00426E 95BA 6000      00000        6164          CLI   DX0(RW6),XGIRI      INTERMEDIATE RESULT            51894 47600021
 004272 4780 9164      0439C        6165          BE    IFIN007             YES                            51894 47608021
 004276                             6166 IFIN010  DS    0H                                                 51894 47616021
 004276 1854                        6167          LR    RW5,RW4                                            51894 47624021
 004278 9201 D48A      08552        6168          MVI   XREGNO,XX01                                        51894 47632021
 00427C 45E0 838A      011BA        6169          BAL   XRSUB,XFREER        FREE REG 1                     51894 47640021
 004280 1845                        6170          LR    RW4,RW5                                            51894 47648021
 004282 9532 6000      00000        6171          CLI   DX0(RW6),XX32       LITERAL.                       51894 47656021
 004286 4770 9062      0429A        6172          BNE   IFIN005             NO                             51894 47664021
 00428A 9201 D188      08250        6173          MVI   XREG1,XX01                                         51894 47672021
 00428E 5060 D138      08200        6174          ST    RW6,OP1                                            51894 47680021
 004292 45E0 B000      01690        6175          BAL   XRSUB,LOAD          GEN  L  1,LIT                  51894 47688021
 004296 47F0 908C      042C4        6176          B     IFIN006             CONTINUE                       51894 47696021
 00429A                             6177 IFIN005  DS    0H                                                 51894 47704021
 00429A 9575 6000      00000        6178          CLI   DX0(RW6),XGFCT      FIGCON...                      51894 47712021
 00429E 4770 907A      042B2        6179          BNE   IFIN003             NO                             51894 47720021
 0042A2 9201 D188      08250        6180          MVI   XREG1,XX01          YES, FIGCON MUST BE ZERO       51894 47728021
 0042A6 9201 D1D0      08298        6181          MVI   XREG2,XX01          INSTEAD OF  L  1,=F'0'         51894 47736021
 0042AA 45E0 B038      016C8        6182          BAL   RETRG,SR            GENERATE   SR  1,1             51894 47744021
 0042AE 47F0 908C      042C4        6183          B     IFIN006             CONTINUE                       51894 47752021
 0042B2                             6184 IFIN003  DS    0H                                                 51894 47760021
 0042B2 1836                        6185          LR    RW3,RW6                                            51894 47768021
 0042B4 45E0 802C      00E5C        6186          BAL   XRSUB,XLENGH        GET LENGTH OF DNM              51894 47776021
 0042B8 9507 D410      084D8        6187          CLI   XGTEM2,SETINDI                                     51894 47784021
 0042BC 4780 9150      04388        6188          BE    IFIN001             DIRECT COMPARE.                51894 47792021
 0042C0 45E0 BE9C      0252C        6189          BAL   XRSUB,DNTOR1        L   1,IDENT                    51894 47800021
 0042C4                             6190 IFIN006  DS    0H                                                 51894 47808021
 0042C4 9201 D188      08250        6191          MVI   XREG1,XX01          BCTR 1,0                       51894 47816021
 0042C8 45E0 BC96      02326        6192          BAL   XRSUB,BRNCNT        GEN ATXT FOR BCTR INSTRUC      51894 47824021
 0042CC 1834                        6193          LR    RW3,RW4                                            51894 47832021
 0042CE 45E0 91F4      0442C        6194          BAL   XRSUB,SETLEN        MH   1,L1                      51894 47840021
 0042D2 9201 D188      08250        6195          MVI   XREG1,XX01                                         51894 47848021
 0042D6 45E0 BABA      0214A        6196          BAL   XRSUB,MULT          GEN ATXT FOR MULTIPLY INSTRUC  51894 47856021
 0042DA D200 D498 D499 08560 08561  6197          MVC   IFINCODE(LX1),IFINCOD2   REVERSE TRANSFER CODE     51894 47864021
 0042E0 5040 D138      08200        6198          ST    RW4,OP1                                            51894 47872021
 0042E4 9201 D188      08250        6199          MVI   XREG1,XX01                                         51894 47880021
 0042E8 45E0 BAB2      02142        6200          BAL   XRSUB,COMP          C   1,INDX                     51894 47888021
                                    6201 *                                                                 51894 47896021
                                    6202 *                                                                 51894 47904021
 0042EC                             6203 IFIN004  DS    0H                                                 51894 47912021
 0042EC D200 D188 D498 08250 08560  6204          MVC   XREG1(LX1),IFINCODE                                51894 47920021
1         IKFCBL50: INDEX COMPARE VERB ANALYZERS                                                                PAGE  145
-  LOC  OBJECT CODE    ADDR1 ADDR2  STMT   SOURCE STATEMENT                                       ASM 0201 11.03 02/14/15
00042F2 D201 D172 D7B5 0823A 0887D  6205          MVC   XGN1(LX2),DOP3+NX1  BC  CODE,GN                    51894 47928021
 0042F8 45E0 BC10      022A0        6206          BAL   XRSUB,BC            GEN ATXT FOR BC INSTRUC        51894 47936021
 0042FC 9501 C83A      07DCA        6207          CLI   XRESTGSW,XX01       COMPARE INDEX TO INTR RES      51894 47944021
 004300 9200 C83A      07DCA        6208          MVI   XRESTGSW,XX00                                      51894 47952021
 004304 4770 700A      0000A        6209          BNE   PH5CTL              NO                             51894 47960021
 004308 47F0 84E4      01314        6210          B     XRESTG              YES, RELEASE STORAGE           51894 47968021
                                    6211 *                                                                 51894 47976021
                                    6212 *                                                                 51894 47984021
                                    6213 *                                  TWO INDEX-NAMES.               51894 47992021
 00430C                             6214 IFIN002  DS    0H                                                 51894 48000021
 00430C 1854                        6215          LR    RW5,RW4             SAVE R4 OVER XFREEP            51894 48008021
 00430E 9201 D48A      08552        6216          MVI   XREGNO,XX01                                        51894 48016021
 004312 45E0 838A      011BA        6217          BAL   XRSUB,XFREER        FREE REG 1                     51894 48024021
 004316 9202 D48A      08552        6218          MVI   XREGNO,XX02                                        51894 48032021
 00431A 45E0 838A      011BA        6219          BAL   XRSUB,XFREER        FREE REG 2                     51894 48040021
 00431E 9203 D48A      08552        6220          MVI   XREGNO,XX03                                        51894 48048021
 004322 45E0 838A      011BA        6221          BAL   XRSUB,XFREER        FREE REG 3                     51894 48056021
 004326 1845                        6222          LR    RW4,RW5                                            51894 48064021
 004328 9202 D188      08250        6223          MVI   XREG1,XX02                                         51894 48072021
 00432C 5040 D138      08200        6224          ST    RW4,OP1                                            51894 48080021
 004330 45E0 B000      01690        6225          BAL   XRSUB,LOAD          L   2,INDX1                    51894 48088021
 004334 9220 D14F      08217        6226          MVI   BDISP1+NX1,XX20                                    51894 48096021
 004338 9202 D188      08250        6227          MVI   XREG1,XX02                                         51894 48104021
 00433C 45E0 BBE6      02276        6228          BAL   XRSUB,SRDA          SRDA 2,32                      51894 48112021
 004340 1834                        6229          LR    RW3,RW4                                            51894 48120021
 004342 45E0 91F4      0442C        6230          BAL   XRSUB,SETLEN        SET ATXT BUFFER                51894 48128021
 004346 45E0 B000      01690        6231          BAL   XRSUB,LOAD          LH   0,L1                      51894 48136021
 00434A 9202 D188      08250        6232          MVI   XREG1,XX02                                         51894 48144021
 00434E 45E0 BAC2      02152        6233          BAL   XRSUB,DIV           DR   2.0                       51894 48152021
 004352 5060 D138      08200        6234          ST    RW6,OP1                                            51894 48160021
 004356 45E0 B000      01690        6235          BAL   XRSUB,LOAD          L   0,INDX2                    51894 48168021
 00435A 9220 D14F      08217        6236          MVI   BDISP1+NX1,XX20                                    51894 48176021
 00435E 45E0 BBE6      02276        6237          BAL   XRSUB,SRDA          SRDA   0,32                    51894 48184021
 004362 1836                        6238          LR    RW3,RW6                                            51894 48192021
 004364 45E0 91F4      0442C        6239          BAL   XRSUB,SETLEN        SET ATXT BUFFER                51894 48200021
 004368 9202 D188      08250        6240          MVI   XREG1,XX02          LH   2,L2                      51894 48208021
 00436C 45E0 B000      01690        6241          BAL   XRSUB,LOAD          GEN ATXT FOR LOAD INSTRUC      51894 48216021
 004370 9202 D1D0      08298        6242          MVI   XREG2,XX02                                         51894 48224021
 004374 45E0 BAC2      02152        6243          BAL   XRSUB,DIV           DR   0,2                       51894 48232021
 004378 9203 D188      08250        6244          MVI   XREG1,XX03                                         51894 48240021
 00437C 9201 D1D0      08298        6245          MVI   XREG2,XX01                                         51894 48248021
 004380 45E0 BAB2      02142        6246          BAL   XRSUB,COMP          GEN CR   3,1                   51894 48256021
 004384 47F0 90B4      042EC        6247          B     IFIN004             GEN BC CODE,GN                 51894 48264021
                                    6248 *                                                                 51894 48272021
                                    6249 *   COMPARE WITHOUT CONVERSION.                                   51894 48280021
                                    6250 *                                                                 51894 48288021
 004388                             6251 IFIN001  DS    0H                                                 51894 48296021
 004388 5040 D138      08200        6252          ST    RW4,OP1                                            51894 48304021
 00438C 5060 D13C      08204        6253          ST    RW6,OP2                                            51894 48312021
 004390 9204 D149      08211        6254          MVI   XL1+NX1,XX04        CLC   OP1(4),OP2               51894 48320021
 004394 45E0 B158      017E8        6255          BAL   XRSUB,CLC           GEN ATXT FOR CLC INSTRUC       51894 48328021
 004398 47F0 90B4      042EC        6256          B     IFIN004             GEN BC CODE,GN                 51894 48336021
                                    6257 *                                                                 51894 48344021
                                    6258 *                                                                 51894 48352021
 00439C                             6259 IFIN007  DS    0H                                                 51894 48360021
1         IKFCBL50: INDEX COMPARE VERB ANALYZERS                                                                PAGE  146
-  LOC  OBJECT CODE    ADDR1 ADDR2  STMT   SOURCE STATEMENT                                       ASM 0201 11.03 02/14/15
000439C 1836                        6260          LR    RW3,RW6                                            51894 48368021
 00439E 45E0 83C4      011F4        6261          BAL   XRSUB,XSETVQ        GET INTR RES INFO              51894 48376021
 0043A2 9200 D501      085C9        6262          MVI   X1TEL+NX1,XX00                                     51894 48384021
 0043A6 91D0 D53D      08605        6263          TM    X2IRX+NX1,XZGNLT    IS IT A LITERAL                51894 48392021
 0043AA 4780 9186      043BE        6264          BZ    IFIN008             NO                             51894 48400021
 0043AE D202 6000 C83B 00000 07DCB  6265          MVC   DX0(LX3,RW6),SCHLITX                               51894 48408021
 0043B4 F843 6003 D52C 00003 085F4  6266          ZAP   DX3(LX5,RW6),X2VAL+NX12(LX4)                       51894 48416021
 0043BA 47F0 903E      04276        6267          B     IFIN010             YES, TREAT AS 32 ELEMENT       51894 48424021
 0043BE                             6268 IFIN008  DS    0H                                                 51894 48432021
 0043BE 9201 C83A      07DCA        6269          MVI   XRESTGSW,XX01                                      51894 48440021
 0043C2 9108 D53D      08605        6270          TM    X2IRX+NX1,XINREG    INTR RES IN A REG              51894 48448021
 0043C6 4710 91C2      043FA        6271          BO    IFIN009             YES                            51894 48456021
 0043CA 1854                        6272          LR    RW5,RW4                                            51894 48464021
 0043CC 9201 D48A      08552        6273          MVI   XREGNO,XX01                                        51894 48472021
 0043D0 45E0 838A      011BA        6274          BAL   XRSUB,XFREER        FREE REG 1                     51894 48480021
 0043D4 1845                        6275          LR    RW4,RW5                                            51894 48488021
 0043D6 4130 D520      085E8        6276          LA    XR3,X2VAL           NO                             51894 48496021
 0043DA 45E0 7DC0      00DC0        6277          BAL   XRSUB,XEWCL         GET TS SLOT                    51894 48504021
 0043DE 4830 D446      0850E        6278          LH    XR3,XEREL1                                         51894 48512021
 0043E2 4A30 D442      0850A        6279          AH    XR3,XYTEL                                          51894 48520021
 0043E6 4B30 C868      07DF8        6280          SH    XR3,XC008                                          51894 48528021
 0043EA 4030 D14A      08212        6281          STH   XR3,XWC1                                           51894 48536021
 0043EE 9201 D188      08250        6282          MVI   XREG1,XX01                                         51894 48544021
 0043F2 45E0 BAE2      02172        6283          BAL   XRSUB,CVB           GEN  CVB  1,TS                 51894 48552021
 0043F6 47F0 908C      042C4        6284          B     IFIN006             GEN BCTR                       51894 48560021
 0043FA                             6285 IFIN009  DS    0H                                                 51894 48568021
 0043FA F300 D1D0 D53C 08298 08604  6286          UNPK  XREG2(LX1),X2IRX(LX1)                              51894 48576021
 004400 940F D1D0      08298        6287          NI    XREG2,HIBITS                                       51894 48584021
 004404 9501 D1D0      08298        6288          CLI   XREG2,XX01          ALREADY IN REG 1               51894 48592021
 004408 4770 91DC      04414        6289          BNE   IFIN011             NO, GEN  LR  1,REG             51894 48600021
 00440C 9200 D1D0      08298        6290          MVI   XREG2,XX00          YES                            51894 48608021
 004410 47F0 908C      042C4        6291          B     IFIN006             GEN BCTR                       51894 48616021
 004414                             6292 IFIN011  DS    0H                                                 51894 48624021
 004414 1854                        6293          LR    RW5,RW4                                            51894 48632021
 004416 9201 D48A      08552        6294          MVI   XREGNO,XX01                                        51894 48640021
 00441A 45E0 838A      011BA        6295          BAL   XRSUB,XFREER        FREE REG 1                     51894 48648021
 00441E 1845                        6296          LR    RW4,RW5                                            51894 48656021
 004420 9201 D188      08250        6297          MVI   XREG1,XX01                                         51894 48664021
 004424 45E0 B000      01690        6298          BAL   XRSUB,LOAD          GEN  LR  1,REG                 51894 48672021
 004428 47F0 908C      042C4        6299          B     IFIN006             CONTINUE                       51894 48680021
                                    6300 *                                                                 51894 48688021
                                    6301 *                                                                 51894 48696021
 00442C                             6302 SETLEN   DS    0H                                                 51894 48704021
 00442C 9180 3002      00002        6303          TM    DX2(RW3),XX80       VLC                            51894 48712021
 004430 4710 9208      04440        6304          BO    SETLEN1             YES                            51894 48720021
 004434 9202 D170      08238        6305          MVI   XCON1+NX16,XX02     NO                             51894 48728021
 004438 D201 D16E 3005 08236 00005  6306          MVC   XCON1+NX14(LX2),DX5(RW3)                           51894 48736021
 00443E 07FE                        6307          BR    XRSUB               RETURN                         51894 48744021
 004440                             6308 SETLEN1  DS    0H                                                 51894 48752021
 004440 9204 D178      08240        6309          MVI   XCNTR1,XX04                                        51894 48760021
 004444 D201 D179 3005 08241 00005  6310          MVC   XCNTR1+NX1(LX2),DX5(RW3)                           51894 48768021
 00444A 07FE                        6311          BR    XRSUB               RETURN                         51894 48776021
                                    6312 *                                                                 51894 48784021
                                    6313 *                                                                 51894 48792021
1         MOVE VERB ANALYZER      M  O  V  E                                                                    PAGE  147
-  LOC  OBJECT CODE    ADDR1 ADDR2  STMT   SOURCE STATEMENT                                       ASM 0201 11.03 02/14/15
0004450                             6315 IKF50G   CSECT                                                    51894 48808021
                                    6316 *                                                                       48816021
                                    6317 *      MOVE     - MOVE  VERB                                            48824021
                                    6318 *                                                                       48832021
                                    6319 *                                                                       48840021
                                    6320 *                                                                       48848021
                                    6321 *                                                                       48856021
                                    6322 *                                                                       48864021
-
0
                             04450  6324        USING *,XRVERB                                                   48880021
                             04450  6325 MOVE   EQU   *                                                          48888021
 004450 9530 D6BC      08784        6326          CLI   DOP1,XX30                                                48896021
 004454 4770 9020      04470        6327          BC    NOTEQ,DOP2SPEC      1ST OPERNAD NOT A DATA NAME          48904021
 004458 95FF D6C0      08788        6328          CLI   DOP1+NX4,XXFF                                            48912021
 00445C 4770 9020      04470        6329          BC    NOTEQ,DOP2SPEC      1ST OPERNAD NOT A SPEC REG           48920021
 004460 9508 D6C2      0878A        6330          CLI   DOP1+NX6,XX08                                            48928021
 004464 4780 904A      0449A        6331          BC    EQ,SPECREG          CURRENT-DATE                         48936021
 004468 9509 D6C2      0878A        6332          CLI   DOP1+NX6,XX09                                            48944021
 00446C 4780 904A      0449A        6333          BC    EQ,SPECREG          TIME-OF-DAY                          48952021
 004470 9530 D738      08800        6334 DOP2SPEC CLI   DOP2,XX30                                                48960021
 004474 4770 9088      044D8        6335          BC    NOTEQ,MVCONT        2ND OPERNAD NOT A DATA NAME          48968021
 004478 95FF D73C      08804        6336          CLI   DOP2+NX4,XXFF                                            48976021
 00447C 4770 9088      044D8        6337          BC    NOTEQ,MVCONT        2ND OPERNAD NOT A SPEC REG           48984021
 004480 9508 D73E      08806        6338          CLI   DOP2+NX6,XX08                                            48992021
 004484 4780 9040      04490        6339          BC    EQ,SPREGERR         CURRENT-DATE                         49000021
 004488 9509 D73E      08806        6340          CLI   DOP2+NX6,XX09                                            49008021
 00448C 4770 9088      044D8        6341          BC    NOTEQ,MVCONT        NOT TIME-OF-DAY                      49016021
 004490 45E0 7AC0      00AC0        6342 SPREGERR BAL   XRSUB,ERRPRO        GENERATE ERROR MESSAGE               49024021
 004494 0F                          6343          DC    AL1(ERRN15)                                              49032021
 004495 02                          6344          DC    AL1(2)                                                   49040021
 004496 47F0 700A      0000A        6345          B     PH5CTL             DO NOT PROCESS ILLEGAL STATEMENT      49048021
                             0449A  6346 SPECREG  EQU   *                                                        49056021
 00449A 9230 D178      08240        6347          MVI   XCNTR1,TS2CODE                                           49064021
 00449E 9201 D17A      08242        6348          MVI   XCNTR1+NX2,XX01                                          49072021
 0044A2 4130 0008      00008        6349          LA    XR3,DX8                                                  49080021
 0044A6 4930 A16A      0016A        6350          CH    XR3,TS2MAX          IS TS2 LARGE ENOUGH                  49088021
 0044AA 47D0 9062      044B2        6351          BNH   SPECREG1            YES                                  49096021
 0044AE 4030 A16A      0016A        6352          STH   XR3,TS2MAX                                               49104021
 0044B2                             6353 SPECREG1 DS    0H                                                       49112021
 0044B2 45E0 BBDE      0226E        6354          BAL   RETRG,LA            GENERATE LA                          49120021
 0044B6 9509 D6C2      0878A        6355          CLI   DOP1+NX6,XX09       IS THIS TIME-OF-DAY                  49128021
 0044BA 4780 907A      044CA        6356          BE    SPECREG2            YES                                  49136021
 0044BE 45E0 8792      015C2        6357          BAL   RETRG,VBADCE        NO, CALL CURRENT-DATE SUBR           49144021
 0044C2 C4E3C5F0                    6358          DC    CL4'DTE0'                                                49152021
 0044C6 47F0 9082      044D2        6359          B     SPECREG3            CONTINUE                             49160021
 0044CA                             6360 SPECREG2 DS    0H                                                       49168021
 0044CA 45E0 8792      015C2        6361          BAL   RETRG,VBADCE        CALL TIME-OF-DAY SUBR                49176021
 0044CE C4E3C5F1                    6362          DC    CL4'DTE1'                                                49184021
 0044D2                             6363 SPECREG3 DS    0H                                                       49192021
 0044D2 D703 D6C0 D6C0 08788 08788  6364          XC    DOP1+XDIDK(LX4),DOP1+XDIDK                               49200021
 0044D8 95FA D738      08800        6365 MVCONT   CLI   DOP2,XXFA            CHECK FOR SPECIAL MOVE FOR DISPL    49208021
1         MOVE VERB ANALYZER      M  O  V  E                                                                    PAGE  148
-  LOC  OBJECT CODE    ADDR1 ADDR2  STMT   SOURCE STATEMENT                                       ASM 0201 11.03 02/14/15
00044DC 4780 9BB6      05006        6366        BC    EQ,DIFPMV         FOUND SPECIAL CASE                       49216021
 0044E0 9200 D481      08549        6367          MVI   XGSWT,XX00                                               49224021
 0044E4 94DF D48D      08555        6368          NI    XGNSW,XXDF                RESET MESSAGE  NO 11 SWITCH    49232021
 0044E8 45E0 75F0      005F0        6369        BAL   XRSUB,XINITN          INIT GEN REG TBLS                    49240021
 0044EC 45E0 79AC      009AC        6370        BAL   XRSUB,XOTSEM               GET OPERANDS IN WORK AREA.      49248021
                                    6371 *  X1VAL  = SENDING FIELD -XR3 POINTS TO IT.                            49256021
                                    6372 *  X2VAL  = RECEIVING -   -XR5    -    - - .                            49264021
 0044F0 91F0 301C      0001C        6373          TM    Y1IRX(XR3),XXF0          SENDING NON-NUMERIC...          49272021
 0044F4 47E0 9234      04684        6374        BC    NOTHR,XM000                NO-                             49280021
 0044F8 91F0 501C      0001C        6375          TM    Y1IRX(XR5),XXF0                                          49288021
 0044FC 47E0 90CA      0451A        6376          BNO   MOVE14              NUMERIC MOVE                         49296021
 004500 95F5 D53C      08604        6377          CLI   X2IRX,XXF5          IS RF NUMERIC EDITED                 49304021
 004504 4780 90CA      0451A        6378          BE    MOVE14              YES                                  49312021
 004508 95F6 D53C      08604        6379          CLI   X2IRX,XXF6          NO, IS RF STERL REPORT ITEM          49320021
 00450C 9212 D543      0860B        6380          MVI   X2FBS+NX1,XX12                                           49328021
 004510 4780 90CA      0451A        6381          BE    MOVE14              YES                                  49336021
 004514 5890 C8EC      07E7C        6382 XALMV1   L     XRVERB,XALAMA       NO                                   49344021
 004518 07F9                        6383          BR    XRVERB              GO TO ALPHABETIC MOVE ANALYZER       49352021
                                    6384 *                                                                       49360021
                                    6385 *   SENDING IS NON NUMERIC  RECEIVING IS NUMERIC                        49368021
                                    6386 *                                                                       49376021
 00451A 9575 D6BC      08784        6387 MOVE14 CLI   DOP1,XGFCT                                                 49384021
 00451E 4780 917E      045CE        6388        BE    MOVE06                     SEND. IS  FIGCON                49392021
 004522 9539 D6BC      08784        6389        CLI   DOP1,PLFCON                                                49400021
 004526 4780 9190      045E0        6390        BE    MOVE01                     SENDING IS PLURAL FIGCON.       49408021
 00452A 9534 D6BC      08784        6391        CLI   DOP1,XGALC                                                 49416021
 00452E 4780 9190      045E0        6392        BE    MOVE01                     SEND. IS ALPH. LITERAL.         49424021
 004532 9530 D6BC      08784        6393        CLI   DOP1,XGDTN                                                 49432021
 004536 4770 9830      04C80        6394        BNE   XMOELG                SENDING IS NOT DATA NAME             49440021
 00453A 4130 D6BC      08784        6395        LA    XR3,DOP1                                                   49448021
 00453E 45E0 802C      00E5C        6396        BAL   XRSUB,XLENGH               GET SENDING TYPE IF DATA-NAME.  49456021
 004542 9501 D410      084D8        6397        CLI   XGTEM2,XGGPFL                                              49464021
 004546 4780 90C4      04514        6398        BE    XALMV1               FIXED LENGTH GROUP                    49472021
 00454A 9504 D410      084D8        6399        CLI   XGTEM2,XGGPVL                                              49480021
 00454E 4780 90C4      04514        6400        BE    XALMV1               VARIABLE LENGTH GROUP                 49488021
 004552 4860 D45A      08522        6401          LH    XR6,XOPLGH+NX2            SEND. IS NOW  ASSUMED TO BE    49496021
 004556 4960 C878      07E08        6402        CH    XR6,XC018                  ALPHANUMERIC. MAKE  SURE  THAT  49504021
 00455A 47D0 915E      045AE        6403        BNH   MOVE03                     ITS LENGTH IS = 18.             49512021
                                    6404 *                                                                       49520021
                                    6405 *  IF  ALPHANUM. FIELD IS MORE THAN 18 BYTES ,JUST MOVE THE RIGTHMOST   49528021
                                    6406 *  18 BYTES - FAKE IT BY UPDATING THE I,D,K FIELD  OF THE DATA-NAME.    49536021
                                    6407 *                                                                       49544021
 00455E 45E0 7AC0      00AC0        6408        BAL   XRSUB,ERRPRO               GIVE AN ERROR MESSAGE.          49552021
 004562 04                          6409        DC    AL1(ERRN04)                                                49560021
 004563 00                          6410        DC    AL1(0)                                                     49568021
 004564 4B60 C878      07E08        6411        SH    XR6,XC018                  GET EXTRA LENGTH.               49576021
 004568 D202 D411 D6C0 084D9 08788  6412          MVC   XGTEM2+NX1(LX3),DOP1+NX4   GET I,D,K .                   49584021
 00456E 9200 D410      084D8        6413          MVI   XGTEM2,XX00                                              49592021
 004572 5800 D410      084D8        6414        L     XR0,XGTEM2                                                 49600021
 004576 8C00 0008      00008        6415          SRDL  XR0,DX8                                                  49608021
 00457A 8900 0014      00014        6416          SLL   XR0,DX20                                                 49616021
 00457E 8810 0018      00018        6417          SRL   XR1,DX24                  XR1 HAS BL NUMBER.             49624021
 004582 8800 0014      00014        6418          SRL   XR0,DX20                  XR0 HAS D FIELD (DISPLACEMENT) 49632021
 004586 1A06                        6419        AR    XR0,XR6                    UPDATE D FIELD WITH EXTRA LENGT 49640021
 004588 4900 C888      07E18        6420 MOVE05 CH    XR0,XC4095                 D HAS TO BE  < 4095.            49648021
1         MOVE VERB ANALYZER      M  O  V  E                                                                    PAGE  149
-  LOC  OBJECT CODE    ADDR1 ADDR2  STMT   SOURCE STATEMENT                                       ASM 0201 11.03 02/14/15
000458C 4720 9172      045C2        6421        BH    MOVE04                DISPLACEMENT > 4095                  49656021
 004590 8900 0008      00008        6422          SLL   XR0,DX8                                                  49664021
 004594 1601                        6423        OR    XR0,XR1                    RESTORE I,D,K FIELD WITH NEW    49672021
 004596 5860 D410      084D8        6424        L     XR6,XGTEM2                 D FIELD.                        49680021
 00459A 5460 C8AC      07E3C        6425        N     XR6,XSUMK3                                                 49688021
 00459E 1606                        6426        OR    XR0,XR6                                                    49696021
 0045A0 5000 D410      084D8        6427        ST    XR0,XGTEM2                                                 49704021
 0045A4 D202 D6C0 D411 08788 084D9  6428          MVC   DOP1+NX4(LX3),XGTEM2+NX1                                 49712021
 0045AA 4160 0012      00012        6429          LA    XR6,DX18                                                 49720021
0
 0045AE 4060 D50A      085D2        6431 MOVE03 STH   XR6,X1FBS                                                  49736021
 0045B2 45E0 83B0      011E0        6432        BAL   XRSUB,XSETVN               FAKE AN ED FIELD.               49744021
 0045B6 4130 D4E8      085B0        6433        LA    XR3,X1VAL                                                  49752021
 0045BA 9208 D504      085CC        6434        MVI   X1IRX,XGEXDC                                               49760021
 0045BE 47F0 923C      0468C        6435        B     XNUMOV                GO TO NUMERIC MOVE                   49768021
                                    6436 *                                                                       49776021
                                    6437 *                                                                       49784021
 0045C2 4111 0001      00001        6438 MOVE04   LA    XR1,DX1(XR1)              UPDATE BL NUMBER               49792021
 0045C6 4B00 C3B6      07946        6439        SH    XR0,XC4096                 X                               49800021
 0045CA 47F0 9138      04588        6440        B     MOVE05                     X                               49808021
0
 0045CE 95F0 D6BD      08785        6442 MOVE06   CLI   DOP1+NX1,XXF0             IS IT FIGCON  0                49824021
 0045D2 4780 9220      04670        6443        BE    XCONV0                     YES                             49832021
 0045D6 D200 D6BE D6BD 08786 08785  6444          MVC   DOP1+NX2(LX1),DOP1+NX1                                   49840021
 0045DC 9201 D6BD      08785        6445          MVI   DOP1+NX1,XX01                                            49848021
0
 0045E0 1B00                        6447 MOVE01 SR    XR0,XR0                    PLURAL FIGCON  OR  ALPH. LIT.   49864021
 0045E2 4300 D6BD      08785        6448          IC    XR0,DOP1+NX1                                             49872021
 0045E6 4860 D542      0860A        6449          LH    XR6,X2FBS           NUMBER DIGIT OF SENDING =            49880021
 0045EA 4A60 D546      0860E        6450          AH    XR6,X2ALP                .                               49888021
 0045EE 4B60 D544      0860C        6451        SH    XR6,X2DBS                  NUMBER OF INTEGRAL PLACES OF    49896021
 0045F2 47D0 9220      04670        6452        BNH   XCONV0                     RECEIVING.                      49904021
 0045F6 4060 D50A      085D2        6453        STH   XR6,X1FBS                                                  49912021
 0045FA 920C D504      085CC        6454        MVI   X1IRX,XGINDC               SET NEW TYPE FOR SENDING AS FI  49920021
 0045FE 9240 D505      085CD        6455          MVI   X1IRX+NX1,XGNCON          IS CHANGED TO A NUM. LIT.      49928021
 004602 920C D4F7      085BF        6456          MVI   X1VAL+NX15,XX0C           SET SIGN.                      49936021
                                    6457 *                                                                       49944021
                                    6458 * GENERATE PACK DEC. LITERAL OUT OF THE FIGCON OR  NON NUM. LITERAL.    49952021
                                    6459 *                                                                       49960021
 004606 4120 D4F7      085BF        6460          LA    XR2,X1VAL+NX15            INITIALIZE POINTERS.           49968021
 00460A 4110 D6BD      08785        6461          LA    XR1,DOP1+NX1                                             49976021
 00460E 1841                        6462        LR    XR4,XR1                    SAVE POINTER TO COUNT FIELD.    49984021
 004610 1A10                        6463        AR    XR1,XR0                                                    49992021
 004612 1801                        6464        LR    XR0,XR1                    SAVE POINTER TO RIGTMOST DIGIT  50000021
 004614 F100 2000 1000 00000 00000  6465 MOVE08   MVO   DX0(LX1,XR2),DX0(LX1,XR1) MOVE DIGIT IN LEFT PART OF BYT 50008021
 00461A 45E0 91DC      0462C        6466        BAL   XRSUB,MOVETP               TEST FOR END OF LITERAL GENER.  50016021
 00461E D100 2000 1000 00000 00000  6467          MVN   DX0(LX1,XR2),DX0(XR1)      MOVE DIGIT IN RIGTH PART.     50024021
 004624 45E0 91DE      0462E        6468        BAL   XRSUB,MOVETS          CHECK IF FINISHED                    50032021
 004628 47F0 91C4      04614        6469        B     MOVE08                KEEP GENERATING                      50040021
 00462C 0620                        6470 MOVETP   BCTR  XR2,R0                    UPDATE BYTE POINTER IN X1VAL.  50048021
 00462E 4660 920E      0465E        6471 MOVETS BCT   XR6,MOVE09            FALL THRU ONLY IF FINSIHED           50056021
 004632 4150 D4E8      085B0        6472 MOVE02 LA      XR5,X1VAL                SET REMAINING OF X1VAL BUFFER   50064021
1         MOVE VERB ANALYZER      M  O  V  E                                                                    PAGE  150
-  LOC  OBJECT CODE    ADDR1 ADDR2  STMT   SOURCE STATEMENT                                       ASM 0201 11.03 02/14/15
0004636 45E0 7648      00648        6473        BAL     XRSUB,XIDSZ         GET SIZE OF OPERNAD GENERATED        50072021
 00463A D205 D506 D450 085CE 08518  6474          MVC   X1LBS(LX6),XIDBY                                         50080021
 004640 4150 D520      085E8        6475        LA      XR5,X2VAL                                                50088021
                                    6476 *                                                                       50096021
                                    6477 *                                                                       50104021
 004644 D209 D6C0 D4EE 08788 085B6  6478          MVC   DOP1+NX4(LX10),X1VAL+NX6   CHANGE  DOP1 INTO A           50112021
 00464A 9232 D6BC      08784        6479        MVI   DOP1,XGNLT                 NUMERIC LITERAL.                50120021
 00464E 920C D6BD      08785        6480          MVI   DOP1+NX1,XX0C             COUNT.                         50128021
 004652 9212 D6BE      08786        6481          MVI   DOP1+NX2,XX12             NUMER OF INTEGRAL PLACES.      50136021
 004656 9200 D6BF      08787        6482          MVI   DOP1+NX3,XX00             NUMBER OF DEC.                 50144021
                                    6483 *                                                                       50152021
 00465A 47F0 923C      0468C        6484        B     XNUMOV                     ENOUGH DIGIT = X1FBS            50160021
 00465E 0610                        6485 MOVE09   BCTR  XR1,R0             DECREMENT BY ONE                      50168021
 004660 1914                        6486        CR    XR1,XR4                                                    50176021
 004662 077E                        6487        BCR   XNOEQ,XRSUB                FIGCON NON EXHAUSTED            50184021
 004664 9534 D6BC      08784        6488        CLI   DOP1,XGALC                                                 50192021
 004668 4780 91E2      04632        6489        BE      MOVE02              GET SIZE OF OPERAND GENERATED        50200021
 00466C 1810                        6490        LR    XR1,XR0                    START OVER  WITH FIGCON.        50208021
 00466E 07FE                        6491        BCR   UNCON,XRSUB           KEEP GENERATING                      50216021
-
0
 004670 4140 D4E8      085B0        6493 XCONV0   LA    XR4,X1VAL           CHANGE FIGCON TO NUMERIC 0           50232021
 004674 45E0 83F6      01226        6494        BAL   XRSUB,XONDGT          SET BUFFER FOR ONE DIGIT             50240021
 004678 920C D4F7      085BF        6495          MVI   X1VAL+NX15,XX0C                                          50248021
 00467C 9680 D505      085CD        6496          OI    X1IRX+NX1,XLITZR                                         50256021
 004680 47F0 923C      0468C        6497        BC    UNCON,XNUMOV          GO TO NUMERIC MOVE                   50264021
 004684 91F0 501C      0001C        6498 XM000    TM    Y1IRX(XR5),XXF0                                          50272021
 004688 4710 981C      04C6C        6499        BC    XTHRE,XM001                SENDING NUMERIC- RECEIVING      50280021
                                    6500 *                                       NUMERIC -HAS TO BE REPORT I     50288021
                                    6501 *       BOTH  FIELD ARE NUMERIC.                                        50296021
                                    6502 *                                                                       50304021
                             0468C  6503 XNUMOV EQU   *                                                          50312021
 00468C D100 D492 D504 0855A 085CC  6504          MVN   X1TYP(LX1),X1IRX                                         50320021
 004692 D100 D493 D53C 0855B 08604  6505          MVN   X2TYP(LX1),X2IRX                                         50328021
 004698 4860 D440      08508        6506        LH    XR6,XGDRE                  ADJUST  DEC. NUMBER OF RESU     50336021
 00469C 9101 D481      08549        6507        TM    XGSWT,XROUND               FIELD AND  SET  DMAX  TO DR     50344021
 0046A0 4780 9256      046A6        6508        BC    XZERO,XM002                X                               50352021
 0046A4 0660                        6509        BCTR  XR6,RW0                      X                             50360021
 0046A6 4060 D43E      08506        6510 XM002  STH   XR6,XRDMX                  X                               50368021
 0046AA 9508 501C      0001C        6511        CLI   Y1IRX(XR5),XGEXDC                                          50376021
 0046AE 4770 950E      0495E        6512        BC    XNOEQ,XM004           2ND OPND NOT ED                      50384021
 0046B2 9508 301C      0001C        6513        CLI   Y1IRX(XR3),XGEXDC                                          50392021
 0046B6 4770 950E      0495E        6514        BC    XNOEQ,XM004           1ST OPND NOT ED                      50400021
                                    6515 *                                                                       50408021
                                    6516 *      BOTH  FIELD ARE ED.                                              50416021
                                    6517 *                                                                       50424021
 0046BA 45E0 9B66      04FB6        6518        BAL   XRSUB,XMVSCL          SCALE SENDING FIELD                  50432021
 0046BE D201 D4FC D50A 085C4 085D2  6519          MVC   X1FAS(LX2),X1FBS         RESET NUMBER OF DIGITS.         50440021
                                    6520 *                                                                       50448021
 0046C4 91D0 D505      085CD        6521          TM    X1IRX+NX1,XZGNLT         IF SENDING IS LITERAL           50456021
 0046C8 4780 92C8      04718        6522        BC    XZERO,XMED30              JUST UNPACK ID SCALED LITERA     50464021
                             046CC  6523 XMED31 EQU   *                                                          50472021
1         MOVE VERB ANALYZER      M  O  V  E                                                                    PAGE  151
-  LOC  OBJECT CODE    ADDR1 ADDR2  STMT   SOURCE STATEMENT                                       ASM 0201 11.03 02/14/15
0                                   6524 *                                       CONTAINED IN X1VAL              50480021
 0046CC D201 D148 D534 08210 085FC  6525          MVC   XL1(LX2),X2FAS           X                               50488021
 0046D2 45E0 94D6      04926        6526        BAL   XRSUB,XF0F0           GENERATE F0                          50496021
 0046D6 5820 C8D8      07E68        6527        L     XR2,XAOPE5                                                 50504021
 0046DA F3F8 D558 D4E8 08620 085B0  6528          UNPK  XFVAL(LX16),X1VAL(LX9)                                   50512021
 0046E0 F3E7 D567 D4F0 0862F 085B8  6529          UNPK  XFVAL+NX15(LX15),X1VAL+NX8(LX8)                          50520021
 0046E6 4810 D534      085FC        6530        LH    XR1,X2FAS                                                  50528021
 0046EA 4140 D576      0863E        6531          LA    XR4,XFVAL+NX30                                           50536021
 0046EE 1B41                        6532        SR    XR4,XR1                                                    50544021
 0046F0 0610                        6533        BCTR  XR1,RW0               SUBTRACT 1 FOR EX INSTRUCTION        50552021
 0046F2 4410 94D0      04920        6534        EX    XR1,XEDMOW                                                 50560021
 0046F6 9101 D73F      08807        6535          TM    DOP2+XGSCIN,SIGNED                                       50568021
 0046FA 4710 92B4      04704        6536        BC    XTHRE,XMED04          RECEIVING FIELD IS SIGNED            50576021
 0046FE 1A21                        6537        AR    XR2,XR1                                                    50584021
 004700 96F0 2002      00002        6538          OI    DX2(XR2),XXF0                                            50592021
 004704 45F0 9502      04952        6539 XMED04 BAL   XRVAR,MVC001          GENERATE MVC                         50600021
 004708 47F0 93C8      04818        6540        BC    UNCON,XMEDXT          CHECK FOR SUBSCRIPTS                 50608021
                                    6541 *                                                                       50616021
 00470C 9101 D73F      08807        6542 XMED09   TM    DOP2+XGSCIN,SIGNED                                       50624021
 004710 4780 93A8      047F8        6543        BC    XZERO,XMED10          RECEIVING FIELD NOT SIGNED           50632021
 004714 47F0 93C8      04818        6544        BC    UNCON,XMEDXT          CHECK FOR SUBSCRIPTS                 50640021
                             04718  6545 XMED30 EQU   *                                                          50648021
 004718 4860 D50E      085D6        6546        LH    XR6,X1ALP                                                  50656021
 00471C 1266                        6547        LTR   XR6,XR6                         CODING GENERATED.          50664021
 00471E 4740 9490      048E0        6548        BC    XONE,XMED00                  IF   LR =LENGHT OF RECEIV     50672021
 004722 4960 D534      085FC        6549        CH    XR6,X2FAS                         LS =  -       SENDIN     50680021
 004726 47A0 92EE      0473E        6550        BC    XGTEQ,XMED05               I = SCALE TO ALIGN SENDING      50688021
 00472A 4850 D534      085FC        6551        LH    XR5,X2FAS                             ING.                 50696021
 00472E 4B50 D4FC      085C4        6552        SH    XR5,X1FAS                         RF=RECEIVING,SF=SEND     50704021
 004732 1B56                        6553        SR    XR5,XR6                    A) I>0     LR-LS-I >0           50712021
 004734 47C0 930A      0475A        6554        BC    XLOEQ,XMED01          LR-LS-I <= 0                         50720021
 004738 1266                        6555        LTR   XR6,XR6                    MVC RF+LR-LS-I(LS),SF           50728021
 00473A 4780 930A      0475A        6556        BC    XZERO,XMED01               MVC RF(LR-LS-I),=F0F0F0...      50736021
 00473E D201 D148 D534 08210 085FC  6557 XMED05   MVC   XL1(LX2),X2FAS                 OR                        50744021
                                    6558 *                                       MVC  RF+LR-I(I),=F0F0....       50752021
 004744 45E0 94D6      04926        6559        BAL   XRSUB,XF0F0                  IF BOTH PRECEEDING INSTRU     50760021
 004748 45F0 9502      04952        6560        BAL   XRVAR,MVC001                  ARE NECE. THE WHOLE RF W     50768021
 00474C 4960 D534      085FC        6561        CH    XR6,X2FAS                    RESET TO F0F0...BEFORE  S     50776021
 004750 47A0 93C8      04818        6562        BC    XGTEQ,XMEDXT          I >= LR                              50784021
 004754 1266                        6563        LTR   XR6,XR6                    MVZ RF+LR-1(1),SF+LS-1          50792021
 004756 4740 93C8      04818        6564        BC    XONE,XMEDXT                  (ONLY IF RF IS SIGNED.        50800021
 00475A 1255                        6565 XMED01 LTR   XR5,XR5                                                    50808021
 00475C 4740 931E      0476E        6566        BC    XONE,XMED02                OI  RF +LR-I-1,X'F0'            50816021
 004760 4250 D17D      08245        6567          STC   XR5,XPLUS1+NX2                 (ONLY IF I>0)             50824021
 004764 D201 D148 D4FC 08210 085C4  6568          MVC   XL1(LX2),X1FAS                                           50832021
 00476A 47F0 932E      0477E        6569        BC    UNCON,XMED03               B)  I>0    LR-LS-I )0           50840021
 00476E 1345                        6570 XMED02 LCR   XR4,XR5                                                    50848021
 004770 4240 D1C5      0828D        6571          STC   XR4,XPLUS2+NX2            MVC RF(LR-I),SF+LS-LR+I        50856021
 004774 4820 D534      085FC        6572        LH    XR2,X2FAS                  MVC RF +LR -I(I),=F0F0F0...     50864021
 004778 1B26                        6573        SR    XR2,XR6                    MVZ RF+LR-1(1),SF+LS-1          50872021
 00477A 4020 D148      08210        6574        STH   XR2,XL1                    OI  RF+LR-I-1,X'F0'             50880021
 00477E 45F0 94FC      0494C        6575 XMED03 BAL   XRVAR,MVC002          GENERATE MVC                         50888021
                                    6576 *                                       C) I LT 0,LS-J LT LR,J=-I       50896021
                                    6577 *                                                                       50904021
 004782 1266                        6578        LTR   XR6,XR6                      MVC RF+LR-LS+J(LS-J),SF       50912021
1         MOVE VERB ANALYZER      M  O  V  E                                                                    PAGE  152
-  LOC  OBJECT CODE    ADDR1 ADDR2  STMT   SOURCE STATEMENT                                       ASM 0201 11.03 02/14/15
0004784 4780 9358      047A8        6579        BC    XZERO,XMED06                 MVC RF(LR-LS+J),=F0F0F0..     50920021
 004788 1255                        6580        LTR   XR5,XR5                      MVZ RF+LR-1,SF+LS-1           50928021
 00478A 4720 9372      047C2        6581        BC    XTWO,XMED07           LR-LS-I > 0                          50936021
 00478E 4820 D534      085FC        6582        LH    XR2,X2FAS                                                  50944021
 004792 1B26                        6583        SR    XR2,XR6                    D) I)0   LS-J >LR               50952021
 004794 4220 D17D      08245        6584          STC   XR2,XPLUS1+NX2                                           50960021
 004798 4960 C3AE      0793E        6585        CH    XR6,XC001                     MVC RF(LR),SF+LS-LR-J        50968021
 00479C 4780 947E      048CE        6586        BC    XZERO,XMED11                  MVZ RF+LR-1,SF+LS-1          50976021
 0047A0 4060 D148      08210        6587        STH   XR6,XL1                                                    50984021
 0047A4 47F0 936A      047BA        6588        BC    UNCON,XMED22               E) I GT 0 , I GT LR,            50992021
                                    6589 *                                                                       51000021
 0047A8 1255                        6590 XMED06 LTR   XR5,XR5                          MVC  RF(LR),=F0F0...      51008021
 0047AA 47C0 9372      047C2        6591        BC    XLOEQ,XMED07          LR-LS+J <= 0                         51016021
 0047AE 4950 C3AE      0793E        6592        CH    XR5,XC001                  F)  I LT 0 , J GT LS            51024021
 0047B2 4780 947E      048CE        6593        BC    XZERO,XMED11          LR-LS+J = 1                          51032021
 0047B6 4050 D148      08210        6594        STH   XR5,XL1                          MVC  RF(LR),=F0F0...      51040021
 0047BA 45E0 94D6      04926        6595 XMED22 BAL   XRSUB,XF0F0           GENERATE F0 CONSTANT                 51048021
 0047BE 45F0 9502      04952        6596          BAL   XRVAR,MVC001        GENERATE MVC                         51056021
                                    6597 *                                                                       51064021
 0047C2 1266                        6598 XMED07 LTR   XR6,XR6                                                    51072021
 0047C4 4780 92BC      0470C        6599        BC    XZERO,XMED09          I = 0                                51080021
 0047C8 9101 D73F      08807        6600          TM    DOP2+XGSCIN,SIGNED                                       51088021
 0047CC 4780 93A8      047F8        6601        BC    XZERO,XMED10          REC FLD NOT SIGNED                   51096021
 0047D0 4800 D4FC      085C4        6602        LH    XR0,X1FAS                                                  51104021
 0047D4 0600                        6603        BCTR  XR0,RW0               LS-1                                 51112021
 0047D6 4200 D1C5      0828D        6604          STC   XR0,XPLUS2+NX2                                           51120021
 0047DA 4800 D534      085FC        6605        LH    XR0,X2FAS                                                  51128021
 0047DE 0600                        6606        BCTR  XR0,RW0               LR-1                                 51136021
 0047E0 4200 D17D      08245        6607          STC   XR0,XPLUS1+NX2                                           51144021
 0047E4 D203 D138 D550 08200 08618  6608          MVC   XOP1(LX4),X2INPT                                         51152021
 0047EA D203 D13C D518 08204 085E0  6609          MVC   XOP2(LX4),X1INPT                                         51160021
 0047F0 9201 D149      08211        6610          MVI   XL1+NX1,XX01                                             51168021
 0047F4 45E0 BB86      02216        6611        BAL   XRSUB,MVZ             GENERATE MVZ                         51176021
 0047F8 1266                        6612 XMED10 LTR   XR6,XR6                                                    51184021
 0047FA 4740 93C8      04818        6613        BC    XONE,XMEDXT           I < 0                                51192021
 0047FE 92F0 D189      08251        6614 XMED44   MVI   XIMM,XXF0                                                51200021
 004802 4800 D534      085FC        6615          LH    XR0,X2FAS                                                51208021
 004806 1B06                        6616        SR    XR0,XR6                                                    51216021
 004808 0600                        6617 XMED46 BCTR  XR0,RW0               LR-I-1                               51224021
 00480A 4200 D17D      08245        6618          STC   XR0,XPLUS1+NX2                                           51232021
 00480E D203 D138 D550 08200 08618  6619          MVC   XOP1(LX4),X2INPT                                         51240021
 004814 45E0 BB2E      021BE        6620        BAL   XRSUB,OI              GENERATE OI                          51248021
 004818 5830 C8CC      07E5C        6621 XMEDXT L     XR3,XAOPE2                                                 51256021
 00481C 45E0 84CA      012FA        6622        BAL   XRSUB,XSPRO           CHECK FOR Q-ROUTINES                 51264021
                                    6623 *                                                                       51272021
                                    6624 *   TAKE CARE  OF UNSIGNED SENDING TO SIGNED RECEIVING.                 51280021
                                    6625 *   MAKE SURE  THE RECEIVING GET A  C  SIGN.                            51288021
                                    6626 *                                                                       51296021
 004820 9508 D53C      08604        6627        CLI   X2IRX,XGEXDC                                               51304021
 004824 4780 93E0      04830        6628        BE    XMED50                REC FLD IS ED                        51312021
 004828 950C D53C      08604        6629        CLI   X2IRX,XGINDC                                               51320021
 00482C 4770 946E      048BE        6630        BNE   XMED49                     DO IT ONLY FOR  ID AND ED RECV. 51328021
 004830 9532 D6BC      08784        6631 XMED50 CLI   DOP1,XGNLT                                                 51336021
 004834 4780 946E      048BE        6632        BE    XMED49                SENDING IS A LITERAL                 51344021
 004838 9530 D6BC      08784        6633        CLI   DOP1,XGDTN                                                 51352021
1         MOVE VERB ANALYZER      M  O  V  E                                                                    PAGE  153
-  LOC  OBJECT CODE    ADDR1 ADDR2  STMT   SOURCE STATEMENT                                       ASM 0201 11.03 02/14/15
000483C 4770 946E      048BE        6634        BNE   XMED49                SENDING IS NOT A DATA NAME           51360021
 004840 1863                        6635        LR    RW6,RW3                                                    51368021
 004842 4130 D6BC      08784        6636        LA    RW3,DOP1                                                   51376021
 004846 45E0 802C      00E5C        6637        BAL   XRSUB,XLENGH               GET  TYPE OF SENDING.           51384021
 00484A 9503 D410      084D8        6638        CLI   XGTEM2,XGALN                                               51392021
 00484E 4780 9414      04864        6639        BE    XMED51                SENDING IS ALPHANUMERIC              51400021
 004852 D505 D450 C850 08518 07DE0  6640          CLC   XIDBY(LX6),XC000                                         51408021
 004858 4780 946E      048BE        6641        BE    XMED49                SENDING IS NON-NUMERIC               51416021
 00485C 9101 D6C3      0878B        6642          TM    DOP1+NX7,XX01             SENDING IS NUMERIC             51424021
 004860 4710 946E      048BE        6643        BO    XMED49                     BUT SIGNED -FORGET IT.          51432021
 004864 9101 D73F      08807        6644 XMED51   TM    DOP2+NX7,XX01            IF REC IS UNSIGNED FORGET IT.   51440021
 004868 4780 946E      048BE        6645          BZ    XMED49              REC FLD UNSIGNED                     51448021
 00486C D203 D138 C8CC 08200 07E5C  6646          MVC   OP1(LX4),XAOPE2                                          51456021
 004872 4130 D738      08800        6647        LA    XR3,DOP2                                                   51464021
 004876 45E0 802C      00E5C        6648        BAL   XRSUB,XLENGH               FOR ED  GENERATE                51472021
 00487A 5800 D458      08520        6649        L     XR0,XOPLGH                                                 51480021
 00487E 0600                        6650        BCTR  XR0,XR0               LR-1                                 51488021
 004880 4200 D17D      08245        6651          STC   XR0,XPLUS1+NX2           NI  DN+LN,X'0F'                 51496021
 004884 920F D189      08251        6652          MVI   XIMM,XX0F                         OI  DN+LN,X'C0'        51504021
 004888 9508 D53C      08604        6653        CLI   X2IRX,XGEXDC               FOR ID  GENERATE                51512021
 00488C 4780 9444      04894        6654        BE    XMED52                             NI  DN+LN,X'F0'         51520021
 004890 92F0 D189      08251        6655          MVI   XIMM,XXF0                         OI  DN+LN,X'0C'        51528021
 004894 45E0 BB3E      021CE        6656 XMED52 BAL   XRSUB,NI              GENERATE NI                          51536021
 004898 D203 D138 C8CC 08200 07E5C  6657          MVC   OP1(LX4),XAOPE2                                          51544021
 00489E 5800 D458      08520        6658        L     XR0,XOPLGH                                                 51552021
 0048A2 0600                        6659        BCTR  XR0,XR0               LR-1                                 51560021
 0048A4 4200 D17D      08245        6660          STC   XR0,XPLUS1+NX2                                           51568021
 0048A8 92C0 D189      08251        6661          MVI   XIMM,XXC0                                                51576021
 0048AC 9508 D53C      08604        6662        CLI   X2IRX,XGEXDC                                               51584021
 0048B0 4780 9468      048B8        6663        BE    XMED53                REC FLD IS ED                        51592021
 0048B4 920C D189      08251        6664          MVI   XIMM,XX0C                    SET  SIGN TO C .            51600021
 0048B8 45E0 BB2E      021BE        6665 XMED53 BAL   XRSUB,OI              GENERATE OI                          51608021
 0048BC 1836                        6666        LR    XR3,XR6                                                    51616021
 0048BE 9102 D481      08549        6667 XMED49   TM    XGSWT,XSIZER                                             51624021
 0048C2 4780 84E4      01314        6668        BC    XZERO,XRESTG          NO SIZE ERROR IN SOURCE              51632021
 0048C6 45E0 9AE0      04F30        6669        BAL   XRSUB,XSZPRI          GENERATE SIZE ERROR TRANSFER         51640021
 0048CA 47F0 84E4      01314        6670        BC    UNCON,XRESTG          RELEASE ANY TEMP STOR USED           51648021
 0048CE D203 D138 D550 08200 08618  6671 XMED11   MVC   XOP1(LX4),X2INPT                                         51656021
 0048D4 92F0 D189      08251        6672          MVI   XIMM,XXF0                                                51664021
 0048D8 45E0 BB1E      021AE        6673        BAL   XRSUB,MVI             GENERATE MVI                         51672021
 0048DC 47F0 9372      047C2        6674        BC    UNCON,XMED07          CHECK FOR I = 0                      51680021
 0048E0 1356                        6675 XMED00 LCR   XR5,XR6                                                    51688021
 0048E2 4950 D4FC      085C4        6676        CH    XR5,X1FAS                                                  51696021
 0048E6 47A0 92EE      0473E        6677        BC    XGTEQ,XMED05          GENERATE MVC RF(LR),=F0F0...         51704021
 0048EA 4840 D534      085FC        6678        LH    XR4,X2FAS                                                  51712021
 0048EE 4B40 D4FC      085C4        6679        SH    XR4,X1FAS                                                  51720021
 0048F2 1A45                        6680        AR    XR4,XR5                                                    51728021
 0048F4 4740 94BA      0490A        6681        BC    XONE,XMED20           LR-LS+J < 0                          51736021
 0048F8 4240 D17D      08245        6682          STC   XR4,XPLUS1+NX2                                           51744021
 0048FC 4820 D4FC      085C4        6683        LH    XR2,X1FAS                                                  51752021
 004900 1B25                        6684        SR    XR2,XR5                                                    51760021
 004902 4020 D148      08210        6685        STH   XR2,XL1                                                    51768021
 004906 47F0 94C6      04916        6686        BC    UNCON,XMED21          GENERATE MVC                         51776021
 00490A 1324                        6687 XMED20 LCR   XR2,XR4                                                    51784021
 00490C 4220 D1C5      0828D        6688          STC   XR2,XPLUS2+NX2                                           51792021
1         MOVE VERB ANALYZER      M  O  V  E                                                                    PAGE  154
-  LOC  OBJECT CODE    ADDR1 ADDR2  STMT   SOURCE STATEMENT                                       ASM 0201 11.03 02/14/15
0004910 D201 D148 D534 08210 085FC  6689          MVC   XL1(LX2),X2FAS                                           51800021
 004916 45F0 94FC      0494C        6690 XMED21 BAL   XRVAR,MVC002          GENERATE MVC                         51808021
                                    6691 *                                                                       51816021
                                    6692 *                                                                       51824021
 00491A 1854                        6693        LR    XR5,XR4                                                    51832021
 00491C 47F0 9358      047A8        6694        BC    UNCON,XMED06          CHECK FOR LR-LS+J <= 0               51840021
                                    6695 *                                                                       51848021
                                    6696 *                                                                       51856021
                                    6697 *                                                                       51864021
                                    6698 *                                                                       51872021
 004920 D200 2002 4000 00002 00000  6699 XEDMOW   MVC   DX2(LX0,XR2),DX0(XR4)                                    51880021
-
0
 004926 5820 C8D8      07E68        6701 XF0F0  L     XR2,XAOPE5                 GENERATE  A CONSTANT OF         51896021
 00492A 5020 D13C      08204        6702        ST    XR2,XOP2                   X                               51904021
 00492E 9234 2000      00000        6703          MVI   DX0(XR2),XX34                    F0F0..........          51912021
 004932 4800 D148      08210        6704        LH    XR0,XL1                      THE LENGHT BEING GIVEN IN     51920021
 004936 4202 0001      00001        6705          STC   XR0,DX1(XR2)                XL1                          51928021
 00493A 4122 0002      00002        6706          LA    XR2,DX2(XR2)              X                              51936021
 00493E 92F0 2000      00000        6707 XF0F01   MVI   DX0(XR2),XXF0                                            51944021
 004942 4122 0001      00001        6708          LA    XR2,DX1(XR2)              X                              51952021
 004946 4600 94EE      0493E        6709        BCT   XR0,XF0F01                 X                               51960021
 00494A 07FE                        6710        BCR   UNCON,XRSUB                X                               51968021
0
 00494C D203 D13C D518 08204 085E0  6712 MVC002   MVC   XOP2(LX4),X1INPT                                         51984021
 004952 D203 D138 D550 08200 08618  6713 MVC001   MVC   XOP1(LX4),X2INPT                                         51992021
 004958 45E0 B18C      0181C        6714        BAL   XRSUB,MVC             GENERATE MVC                         52000021
 00495C 07FF                        6715        BCR   UNCON,XRVAR           RETURN                               52008021
-
-
-

                                    6717 *      ID,BI  TO  ID,BI,ED                                              52024021
 00495E 950C D504      085CC        6718 XM004  CLI   X1IRX,XGINDC                                               52032021
 004962 4780 951E      0496E        6719        BC    XZERO,XM005           SENDING ID                           52040021
 004966 910B D504      085CC        6720        TM    X1IRX,XGBINR                                               52048021
 00496A 47E0 9836      04C86        6721        BC    NOTHR,XM006    SENDING IS ED,IFP,EFP,STERL.NON REPORT      52056021
                                    6722 *       SENDING IS  BI OR ID.                                           52064021
 00496E 950A D493      0855B        6723 XM005  CLI   X2TYP,XGINFP                                               52072021
 004972 4780 98E8      04D38        6724          BE    XM008               RECEIVING IS IFP.                    52080021
 004976 9509 D493      0855B        6725        CLI   X2TYP,XGEXFP                                               52088021
 00497A 4780 98E8      04D38        6726        BC    XZERO,XM008         RECEIVING IS EFP.                      52096021
                                    6727 *                                                                       52104021
                             0497E  6728 XMMDEB EQU   *                                                          52112021
 00497E 95F6 D53C      08604        6729          CLI   X2IRX,XXF6                                               52120021
1         MOVE VERB ANALYZER      M  O  V  E                                                                    PAGE  155
-  LOC  OBJECT CODE    ADDR1 ADDR2  STMT   SOURCE STATEMENT                                       ASM 0201 11.03 02/14/15
0004982 4780 954A      0499A        6730        BC    XZERO,XM009                FOR  STERLING BY-PASS ON-LI     52128021
 004986 950D D493      0855B        6731          CLI   X2TYP,XX0D                                               52136021
 00498A 4780 954A      0499A        6732        BC    XZERO,XM009                ON SIZE ERROR.                  52144021
                                    6733 *      RECEIVING  IS  ID, BI ,ED OR REPORT ITEM(NON STERLING).          52152021
                                    6734 *                                                                       52160021
 00498E 9102 D481      08549        6735        TM    XGSWT,XSIZER                                               52168021
 004992 47E0 954A      0499A        6736        BC    NOTHR,XM009           NO SIZE ERROR                        52176021
 004996 45E0 9996      04DE6        6737        BAL   XRSUB,XSZPRO        SIZE ERROR CHECKING.                   52184021
                             0499A  6738 XM009  EQU   *                                                          52192021
 00499A 45E0 9B66      04FB6        6739        BAL   XRSUB,XMVSCL        COMPILE TIME SCALING.                  52200021
 00499E 95F5 D53C      08604        6740          CLI   X2IRX,XXF5                                               52208021
 0049A2 4780 9566      049B6        6741        BE    XZZ001                REC FLD IS A REPORT ITEM             52216021
 0049A6 910B D53C      08604        6742        TM    X2IRX,XGBINR                                               52224021
 0049AA 47E0 9588      049D8        6743        BC    NOTHR,XZZ007          REC FLD NOT BINARY                   52232021
 0049AE 9101 A1A4      001A4        6744        TM    PHZSW1,TRUNC         TRUNC OPTION IN EFFECT...             52240021
 0049B2 4780 9580      049D0        6745        BZ    XM010                NO                                    52248021
                                    6746 *                                                                       52256021
                                    6747 *                                                                       52264021
                                    6748 *      RECEIVING  IS  ID,ED, REPORT NON STERLING.                       52272021
                             049B6  6749 XZZ001 EQU   *                                                          52280021
 0049B6 4860 D4FC      085C4        6750        LH    XR6,X1FAS                  FOR REPORT RESET TO ZERO        52288021
 0049BA 4B60 D534      085FC        6751        SH    XR6,X2FAS                  EXTRA HIGH ORDER DIGITS.        52296021
 0049BE 47C0 9580      049D0        6752        BC    XLOEQ,XM010                X                               52304021
 0049C2 4820 D516      085DE        6753        LH    XR2,X1IND                                                  52312021
 0049C6 1A26                        6754        AR    XR2,XR6                                                    52320021
 0049C8 4020 D516      085DE        6755        STH   XR2,X1IND                                                  52328021
 0049CC 9602 D505      085CD        6756          OI    X1IRX+NX1,XGOVFL                                         52336021
 0049D0 910B D53C      08604        6757 XM010  TM    X2IRX,XGBINR                                               52344021
 0049D4 4710 96C0      04B10        6758        BC    XTHRE,XM011           REC FLD IS BINARY                    52352021
 0049D8 45E0 7DE0      00DE0        6759 XZZ007   BAL   XRSUB,XW000         SCALE OPERAND                        52360021
 0049DC 9508 D53C      08604        6760        CLI   X2IRX,XGEXDC                                               52368021
 0049E0 4780 9646      04A96        6761        BC    XZERO,XM012                FOR ED  UNPACK.                 52376021
 0049E4 95F5 D53C      08604        6762          CLI   X2IRX,XXF5                                               52384021
 0049E8 4780 9C6C      050BC        6763        BC    XZERO,XMRPTG               FOR REPORT GO TO EDIT ROUTI     52392021
 0049EC 950D D53C      08604        6764          CLI   X2IRX,XX0D                                               52400021
 0049F0 4780 987C      04CCC        6765        BC    XZERO,XSTMOV          STERLING-NON REPORT TARGET FIELD     52408021
 0049F4 95F6 D53C      08604        6766          CLI   X2IRX,XXF6                                               52416021
 0049F8 4780 987C      04CCC        6767        BC    XZERO,XSTREP          STERLING REPORT TARGET FIELD.        52424021
 0049FC 91D0 D505      085CD        6768          TM    X1IRX+NX1,XZGNLT                                         52432021
 004A00 4780 95E4      04A34        6769        BC    XZERO,XM070           SENDING IS NOT A LITERAL             52440021
 004A04 D20F D428 D4E8 084F0 085B0  6770          MVC   XCON(LX16),X1VAL                                         52448021
 004A0A D201 D532 D530 085FA 085F8  6771          MVC   X2BAS(LX2),X2LAS          FAKE BINARY MOVE WITH ID LE    52456021
                                    6772 *                                                                       52464021
 004A10 9101 D535      085FD        6773          TM    X2FAS+NX1,XX01                                           52472021
 004A14 4710 95D4      04A24        6774        BC    XTHRE,XM071           LENGTH OF REC IS ODD                 52480021
 004A18 4120 D438      08500        6775          LA    XR2,XCON+NX16                                            52488021
 004A1C 4B20 D530      085F8        6776        SH    XR2,X2LAS                                                  52496021
 004A20 940F 2000      00000        6777          NI    DX0(XR2),XX0F                                            52504021
 004A24 9101 D73F      08807        6778 XM071    TM    DOP2+XGSCIN,SIGNED                                       52512021
 004A28 4710 96E6      04B36        6779        BC    XTHRE,XM016           REC FLD IS SIGNED                    52520021
 004A2C 960F D437      084FF        6780          OI    XCON+NX15,XX0F                                           52528021
 004A30 47F0 96E6      04B36        6781        BC    UNCON,XM016           GENERATE MVC                         52536021
                             04A34  6782 XM070  EQU   *                                                          52544021
 004A34 4150 D520      085E8        6783        LA    XR5,X2VAL                                                  52552021
 004A38 45E0 7828      00828        6784          BAL   XRSUB,XZX3X5        ZAP  RES(L),TEMP+A(L1)               52560021
1         MOVE VERB ANALYZER      M  O  V  E                                                                    PAGE  156
-  LOC  OBJECT CODE    ADDR1 ADDR2  STMT   SOURCE STATEMENT                                       ASM 0201 11.03 02/14/15
0004A3C 45E0 780A      0080A        6785        BAL   XRSUB,XZSIDA          SET A-TEXT                           52568021
 004A40 4860 D190      08258        6786        LH    XR6,XL2                        WITH   L1 ) L               52576021
 004A44 4B60 D148      08210        6787        SH    XR6,XL1                                                    52584021
 004A48 47C0 9606      04A56        6788        BC    XLOEQ,XM013           GENERATE ZAP                         52592021
 004A4C 4260 D1C5      0828D        6789          STC   XR6,XPLUS2+NX2                                           52600021
 004A50 D201 D190 D148 08258 08210  6790          MVC   XL2(LX2),XL1                                             52608021
 004A56 45E0 B000      01690        6791 XM013  BAL   XRSUB,ZAP             GENERATE ZAP                         52616021
 004A5A D501 D4FC D534 085C4 085FC  6792          CLC   X1FAS(LX2),X2FAS           IN CASE OF RES. WITH AN EV    52624021
 004A60 47D0 9632      04A82        6793        BC    XNOGT,XM014                NUMBER OF DIGIT  RESET EVEN     52632021
                             04A64  6794 XBYPST EQU   *                                                          52640021
 004A64 9101 D535      085FD        6795          TM    X2FAS+NX1,XX01            EXTRA  HIGH ORDER DIGIT.       52648021
 004A68 4710 9632      04A82        6796        BC    XTHRE,XM014           NUMBER OF DIGITS ODD IN REC FLD      52656021
 004A6C 9102 D481      08549        6797        TM    XGSWT,XSIZER                                               52664021
 004A70 4710 9632      04A82        6798        BC    XTHRE,XM014           SIZE ERROR IN SOURCE                 52672021
 004A74 D203 D138 D550 08200 08618  6799          MVC   XOP1(LX4),X2INPT                                         52680021
 004A7A 920F D189      08251        6800          MVI   XIMM,XX0F                                                52688021
 004A7E 45E0 BB3E      021CE        6801        BAL   XRSUB,NI              GENERATE NI                          52696021
                             04A82  6802 XM014  EQU   *                                                          52704021
 004A82 9101 D73F      08807        6803          TM    DOP2+XGSCIN,SIGNED                                       52712021
                                    6804 *                                                                       52720021
 004A86 4710 93C8      04818        6805        BC    XTHRE,XMEDXT          REC FLD IS SIGNED                    52728021
 004A8A 4800 D530      085F8        6806        LH    XR0,X2LAS                                                  52736021
 004A8E 920F D189      08251        6807          MVI   XIMM,XX0F                                                52744021
 004A92 47F0 93B8      04808        6808        BC    UNCON,XMED46          GENERATE OI                          52752021
                                    6809 *      ID  TO ED  UNPACK ROUTINE.                                       52760021
 004A96 91D0 D505      085CD        6810 XM012    TM    X1IRX+NX1,XZGNLT                                         52768021
 004A9A 4770 927C      046CC        6811        BC    XNOEQ,XMED31          SENDING IS A LITERAL                 52776021
 004A9E 45E0 7D80      00D80        6812        BAL   XRSUB,XRSVAL          RESET BUFFER ADDRESSES               52784021
 004AA2 45E0 7828      00828        6813        BAL   XRSUB,XZX3X5          SWITCH OPERANDS                      52792021
 004AA6 9510 D535      085FD        6814          CLI   X2FAS+NX1,XX10                                           52800021
 004AAA 4720 966C      04ABC        6815        BC    XTWO,XM015                 DP  UNPACK (MORE THAN 16 BY     52808021
                                    6816 *                                                                       52816021
                                    6817 *                                                                       52824021
 004AAE 45E0 780A      0080A        6818        BAL   XRSUB,XZSIDA               UNPK  OP2(L2),OP1(L1)           52832021
 004AB2 D200 D149 D535 08211 085FD  6819          MVC   XL1+NX1(LX1),X2FAS+NX1                                   52840021
 004AB8 47F0 96AE      04AFE        6820        BC    UNCON,XM0146          GENERATE UNPACK                      52848021
                                    6821 *      UNPACK A FIELD OF  17 OR 18 DIGITS.                              52856021
                                    6822 *                                                                       52864021
 004ABC 45E0 780A      0080A        6823 XM015  BAL   XRSUB,XZSIDA          SET A-TEXT                           52872021
 004AC0 4160 0002      00002        6824          LA    XR6,DX2                                                  52880021
 004AC4 4820 D534      085FC        6825        LH    XR2,X2FAS                                                  52888021
 004AC8 4B20 C3B2      07942        6826        SH    XR2,XC002                                                  52896021
 004ACC 4020 D148      08210        6827        STH   XR2,XL1                                                    52904021
 004AD0 4810 D190      08258        6828        LH    XR1,XL2                                                    52912021
 004AD4 4610 968E      04ADE        6829        BCT   XR1,XM019                  TAKE CARE OF OPERAND WHICH      52920021
 004AD8 4110 0001      00001        6830          LA    XR1,DX1                   ARE ONE BYTE LONG.             52928021
 004ADC 0660                        6831        BCTR  XR6,RW0               LENGTH = 1                           52936021
 004ADE 4010 D190      08258        6832 XM019  STH   XR1,XL2                                                    52944021
 004AE2 45E0 BADA      0216A        6833        BAL   XRSUB,LCRBI                UNPK  OP2(L2-2),OP1(L1-1)       52952021
 004AE6 45E0 780A      0080A        6834        BAL   XRSUB,XZSIDA          SET A-TEXT                           52960021
 004AEA 0620                        6835        BCTR  XR2,RW0               DISP = DISP-1                        52968021
 004AEC 4220 D17D      08245        6836          STC   XR2,XPLUS1+NX2                                           52976021
 004AF0 9203 D149      08211        6837          MVI   XL1+NX1,XX03                                             52984021
 004AF4 4060 D190      08258        6838        STH   XR6,XL2                                                    52992021
 004AF8 0610                        6839        BCTR  XR1,RW0               DISP = DISP-1                        53000021
1         MOVE VERB ANALYZER      M  O  V  E                                                                    PAGE  157
-  LOC  OBJECT CODE    ADDR1 ADDR2  STMT   SOURCE STATEMENT                                       ASM 0201 11.03 02/14/15
0004AFA 4210 D1C5      0828D        6840          STC   XR1,XPLUS2+NX2                                           53008021
 004AFE 45E0 BADA      0216A        6841 XM0146 BAL   XRSUB,LCRBI                UNPK  OP2+L2-3(3),OP1+L1-2(     53016021
 004B02 1B66                        6842          SR    XR6,XR6                                                  53024021
 004B04 9101 D73F      08807        6843          TM    DOP2+XGSCIN,SIGNED                                       53032021
 004B08 4710 93C8      04818        6844        BC    XTHRE,XMEDXT          REC FLD IS SIGNED                    53040021
 004B0C 47F0 93AE      047FE        6845        BC    UNCON,XMED44          GENERATE OI                          53048021
-
0
                                    6847 *      RECEIVING IS BINARY .                                            53064021
 004B10 9102 D505      085CD        6848 XM011    TM    X1IRX+NX1,XGOVFL                                         53072021
 004B14 4710 97E6      04C36        6849        BC    XTHRE,XM0111          OVERFLOW IN SCALING SENDING          53080021
 004B18 91D0 D505      085CD        6850          TM    X1IRX+NX1,XZGNLT                                         53088021
 004B1C 4780 96F4      04B44        6851        BC    XZERO,XM072           SENDING IS NOT A LITERAL             53096021
                                    6852 *                                                                       53104021
                                    6853 *                                                                       53112021
 004B20 9101 D73F      08807        6854          TM    DOP2+XGSCIN,SIGNED  IS RECEIVING FIELD SIGNED            53120021
 004B24 4710 96DC      04B2C        6855        BO    XM017                YES                                   53128021
 004B28 960F D4F7      085BF        6856          OI    X1VAL+NX15,POSI     NO, MAKE SURE LIT IS POS             53136021
                             04B2C  6857 XM017  EQU   *                                                          53144021
 004B2C D201 D43A D4FA 08502 085C2  6858          MVC   XZLENG(LX2),X1BAS                                        53152021
 004B32 4520 8452      01282        6859        BAL   XR2,XCONLV            CONVERT LITERAL TO BINARY            53160021
 004B36 4830 C88A      07E1A        6860 XM016  LH    XR3,XMINON                                                 53168021
 004B3A D200 D438 D533 08500 085FB  6861          MVC   XCONL(LX1),X2BAS+NX1                                     53176021
                                    6862 *                                                                       53184021
                                    6863 *                                                                       53192021
 004B40 47F0 97A8      04BF8        6864        BC    UNCON,XM080           GENERATE MVC                         53200021
                                    6865 *                                                                       53208021
 004B44 D501 D50E C850 085D6 07DE0  6866 XM072    CLC   X1ALP(LX2),XC000          ANY SCALING AT ALL?            53216021
 004B4A 4770 97C8      04C18        6867        BC    XNOEQ,XM040                SCALING REQUIRED.               53224021
 004B4E 45E0 7B0E      00B0E        6868 XM0SCL   BAL   XRSUB,XBISCL        CONVERT TO BINARY AND SCALE          53232021
 004B52 9109 D505      085CD        6869 XM030    TM    X1IRX+NX1,XX09            XINREG+XG2IRX                  53240021
 004B56 4780 9780      04BD0        6870        BC    XZERO,XM023           NO                                   53248021
 004B5A 4710 975C      04BAC        6871        BC    XTHRE,XM024           YES                                  53256021
                                    6872 *            SENDING IS SINGLE WORD.                                    53264021
 004B5E 9101 D73F      08807        6873          TM    DOP2+XGSCIN,SIGNED                                       53272021
 004B62 4710 972E      04B7E        6874        BC    XTHRE,XZZ002          REC FLD IS SIGNED                    53280021
 004B66 45E0 81E4      01014        6875        BAL   XRSUB,XZWHIR          GET REG TBL ADDRESS                  53288021
 004B6A 5840 D464      0852C        6876        L     XR4,XLIRP            SET SENDING                           53296021
 004B6E D200 D188 4003 08250 00003  6877          MVC   XREG1(LX1),DX3(XR4)  TO ITS ABSOLUTE VALUE               53304021
 004B74 D200 D1D0 D188 08298 08250  6878          MVC   XREG2(LX1),XREG1                                         53312021
 004B7A 45E0 B040      016D0        6879        BAL   XRSUB,LPRBI           GENERATE LPR                         53320021
                             04B7E  6880 XZZ002 EQU   *                                                          53328021
 004B7E 9504 D533      085FB        6881          CLI   X2BAS+NX1,XX04                                           53336021
 004B82 4720 9742      04B92        6882        BC    XTWO,XM025                 REC. IS DOUBLE WORD.            53344021
 004B86 45E0 77FA      007FA        6883 XM026  BAL   XRSUB,XZBINA          SET A-TEXT                           53352021
                                    6884 *            GENERATE    ST  XRN,REC.                                   53360021
 004B8A 45E0 B040      016D0        6885        BAL   XRSUB,ST              GENERATE ST                          53368021
 004B8E 47F0 93C8      04818        6886        BC    UNCON,XMEDXT          EXIT ROUTINE                         53376021
 004B92 45E0 80F6      00F26        6887 XM025  BAL   XRSUB,XSLODB          LOAD DOUBLE                          53384021
 004B96 4510 7D8A      00D8A        6888 XM027  BAL   XR1,XODDRG                 GET ODD REG.                    53392021
                                    6889 *                                                                       53400021
                                    6890 *                                                                       53408021
1         MOVE VERB ANALYZER      M  O  V  E                                                                    PAGE  158
-  LOC  OBJECT CODE    ADDR1 ADDR2  STMT   SOURCE STATEMENT                                       ASM 0201 11.03 02/14/15
0004B9A D200 D1D0 4003 08298 00003  6891          MVC   XREG2(LX1),DX3(XR4)                                      53416021
 004BA0 45E0 77FA      007FA        6892        BAL   XRSUB,XZBINA          SET A-TEXT                           53424021
 004BA4 45E0 BBF6      02286        6893        BAL   XRSUB,STM                  STM   XR2P,XR2P+1,REC.          53432021
 004BA8 47F0 93C8      04818        6894        BC    UNCON,XMEDXT          EXIT ROUTINE                         53440021
 004BAC 41E0 97F2      04C42        6895 XM024  LA    XRSUB,XZZ004                                               53448021
 004BB0 9101 D73F      08807        6896          TM    DOP2+XGSCIN,SIGNED                                       53456021
 004BB4 4780 82CA      010FA        6897        BC    XZERO,XBIIDB          REC FLD NOT SIGNED                   53464021
 004BB8 9504 D533      085FB        6898          CLI   X2BAS+NX1,XX04                                           53472021
 004BBC 4720 9746      04B96        6899        BC    XTWO,XM027                 STM                             53480021
 004BC0 4510 7D8A      00D8A        6900        BAL   XR1,XODDRG            GET ODD REG                          53488021
 004BC4 94F6 D505      085CD        6901          NI    X1IRX+NX1,XXF6            XINREG+XG2IRX                  53496021
 004BC8 45E0 81E4      01014        6902        BAL   XRSUB,XZWHIR          GET REG TBL ADDRESS                  53504021
 004BCC 47F0 9736      04B86        6903        BC    UNCON,XM026                ST ODDREG.,REC.                 53512021
 004BD0 9101 D73F      08807        6904 XM023    TM    DOP2+XGSCIN,SIGNED                                       53520021
 004BD4 4710 9798      04BE8        6905        BC    XTHRE,XZZ003          REC FLD SIGNED                       53528021
 004BD8 41E0 9702      04B52        6906        LA    XRSUB,XM030                                                53536021
 004BDC 9504 D509      085D1        6907          CLI   X1BBS+NX1,XX04                                           53544021
 004BE0 4720 80F6      00F26        6908        BH    XSLODB                SENDING > 4 BYTES                    53552021
 004BE4 47F0 8106      00F36        6909        B     XSLOAS                SENDING < 4 BYTES                    53560021
 004BE8 4860 D4FA      085C2        6910 XZZ003 LH    XR6,X1BAS                                                  53568021
 004BEC 4B60 D532      085FA        6911        SH    XR6,X2BAS                                                  53576021
 004BF0 4740 97B8      04C08        6912        BC    XONE,XM029                 SENDING IS SMALLER THAN REC     53584021
 004BF4 4260 D1C5      0828D        6913          STC   XR6,XPLUS2+NX2                                           53592021
 004BF8 45E0 7828      00828        6914 XM080  BAL   XRSUB,XZX3X5               MVC  REC(LR),SEND+LS-LR         53600021
 004BFC 45E0 77E2      007E2        6915        BAL   XRSUB,XZLOGB          SET A-TEXT                           53608021
 004C00 45E0 B18C      0181C        6916        BAL   XRSUB,MVC             GENERATE MVC                         53616021
 004C04 47F0 93C8      04818        6917        BC    UNCON,XMEDXT          EXIT ROUTINE                         53624021
 004C08 9504 D533      085FB        6918 XM029    CLI   X2BAS+NX1,XX04                                           53632021
 004C0C 4720 9742      04B92        6919        BC    XTWO,XM025            REC FLD > 4 BYTES                    53640021
 004C10 45E0 8106      00F36        6920          BAL   XRSUB,XSLOAS        GENERATE LOAD INSTRUCTION            53648021
 004C14 47F0 9736      04B86        6921        BC    UNCON,XM026           SET A-TEXT                           53656021
 004C18 45E0 82A0      010D0        6922 XM040  BAL   XRSUB,XSCBOA               IS SCALING POSSIBLE IN BINA     53664021
 004C1C 47F0 97E6      04C36        6923        BC    UNCON,XM0111               NO                              53672021
 004C20 D201 D56A D532 08632 085FA  6924          MVC   XFBAS(LX2),X2BAS                                         53680021
 004C26 950C D504      085CC        6925        CLI   X1IRX,XGINDC               IS SENDING ID.                  53688021
 004C2A 4770 96FE      04B4E        6926        BC    XNOEQ,XM0SCL               NO,SCALE IN BINARY.             53696021
 004C2E 9504 D509      085D1        6927          CLI   X1BBS+NX1,XX04            IS BINARY SIZE BEFORE SCALI    53704021
 004C32 47C0 96FE      04B4E        6928        BC    XLOEQ,XM0SCL               A DOUBLE WORD - NO, SCALE I     53712021
 004C36 45E0 7DE0      00DE0        6929 XM0111 BAL   XRSUB,XW000                CONVERT TO ID AND SCALE IN      53720021
 004C3A 9101 D73F      08807        6930          TM    DOP2+XGSCIN,SIGNED                                       53728021
 004C3E 4710 9814      04C64        6931        BC    XTHRE,XZZ005          REC FLD SIGNED                       53736021
 004C42 9601 D73F      08807        6932 XZZ004   OI    DOP2+XGSCIN,SIGNED                                       53744021
 004C46 4860 D500      085C8        6933        LH    XR6,X1TEL            SET SENDING TO                        53752021
 004C4A 0660                        6934        BCTR  XR6,XR0              ITS ABSOLUTE VALUE                    53760021
 004C4C 4260 D17D      08245        6935          STC   XR6,XPLUS1+NX2                                           53768021
 004C50 4860 D502      085CA        6936        LH    XR6,X1TEM                                                  53776021
 004C54 8B60 0003      00003        6937          SLA   XR6,DX3                                                  53784021
 004C58 4060 D14A      08212        6938        STH   XR6,XWC1                                                   53792021
 004C5C 920F D189      08251        6939          MVI   XIMM,XX0F                                                53800021
 004C60 45E0 BB2E      021BE        6940        BAL   XRSUB,OI              GENERATE OI                          53808021
                             04C64  6941 XZZ005 EQU   *                                                          53816021
 004C64 45E0 82EA      0111A        6942        BAL   XRSUB,XIDBIA               CONVERT BACK TO BINARY          53824021
 004C68 47F0 9702      04B52        6943        BC    UNCON,XM030           CHECK FOR DP                         53832021
 004C6C 95F5 501C      0001C        6944 XM001    CLI   Y1IRX(XR5),XXF5                                          53840021
 004C70 4780 923C      0468C        6945        BC    XZERO,XNUMOV          RED FLD IS REPORT ITEM               53848021
1         MOVE VERB ANALYZER      M  O  V  E                                                                    PAGE  159
-  LOC  OBJECT CODE    ADDR1 ADDR2  STMT   SOURCE STATEMENT                                       ASM 0201 11.03 02/14/15
0004C74 95F6 501C      0001C        6946          CLI   Y1IRX(XR5),XXF6                                          53856021
 004C78 4770 90C4      04514        6947        BC    XNOEQ,XALMV1          REC FLD IS NOT STERL REPORT ITEM     53864021
 004C7C 47F0 923C      0468C        6948        BC    UNCON,XNUMOV          REC FLD IS STERL REPORT ITEM         53872021
                                    6949 *                                                                       53880021
                                    6950 *      LOGIC ERROR NUMBER 5.                                            53888021
                                    6951 *                                                                       53896021
                             04C80  6952 XMOELG EQU   *                                                          53904021
 004C80 45E0 7AC0      00AC0        6953        BAL   XRSUB,ERRPRO          GENERATE ERROR MESSAGE               53912021
 004C84 05                          6954        DC    AL1(ERRN05)                                                53920021
 004C85 08                          6955        DC    AL1(8)                                                     53928021
 004C86 41E0 951E      0496E        6956 XM006  LA    XRSUB,XM005                                                53936021
 004C8A 9508 301C      0001C        6957        CLI   Y1IRX(XR3),XGEXDC                                          53944021
 004C8E 4780 8044      00E74        6958        BC    XZERO,XPACK                SENDING IS ED -- PACK IT.       53952021
                                    6959 *                                       TRY FOR IFP OR EFP SENDING      53960021
                                    6960 *                                                                       53968021
                                    6961 *            SENDING IS IFP,OR,EFP.                                     53976021
                                    6962 *                                                                       53984021
 004C92 41E0 9856      04CA6        6963          LA    XRSUB,XMFP12                                             53992021
 004C96 9509 D492      0855A        6964        CLI   X1TYP,XGEXFP                                               54000021
 004C9A 4780 831E      0114E        6965        BC    XZERO,EFPIFP          SENDING IS EFP                       54008021
                                    6966 *                                                                       54016021
 004C9E 950A D492      0855A        6967          CLI   X1TYP,XGINFP        SF IFP                               54024021
 004CA2 4770 9876      04CC6        6968        BC    XNOEQ,XMFP11          GENERATE ERROR MESSAGE               54032021
                             04CA6  6969 XMFP12 EQU   *                                                          54040021
                                    6970 *                                                                       54048021
 004CA6 950A D493      0855B        6971        CLI   X2TYP,XGINFP                                               54056021
 004CAA 4780 98E8      04D38        6972        BC    XZERO,XM008                REC. IS IFP)                    54064021
 004CAE 9509 D493      0855B        6973        CLI   X2TYP,XGEXFP                                               54072021
 004CB2 4780 98E8      04D38        6974        BC    XZERO,XM008                REC. IS EFP.                    54080021
 004CB6 41E0 952E      0497E        6975        LA    XRSUB,XMMDEB                                               54088021
 004CBA 950B D493      0855B        6976        CLI   X2TYP,XGBINR                                               54096021
 004CBE 4780 832A      0115A        6977        BC    XZERO,IFPBI                RECEIV  IS  BINARY              54104021
 004CC2 47F0 8336      01166        6978        BC    UNCON,IFPID                REC. IS ID,REPORT FIELD,ED.     54112021
                                    6979 *                                                                       54120021
                                    6980 *                                                                       54128021
                                    6981 *      LOGIC ERROR NUMBER 6.                                            54136021
                                    6982 *                                                                       54144021
 004CC6 45E0 7AC0      00AC0        6983 XMFP11 BAL   XRSUB,ERRPRO          TERMINATE COMPILATION                54152021
 004CCA 06                          6984        DC    AL1(ERRN06)                                                54160021
 004CCB 08                          6985        DC    AL1(8)                                                     54168021
                                    6986 *                                                                       54176021
0
                                    6988 *                                                                       54192021
                                    6989 * RECEIVING IS STERLING NON-REPORT.CALL OBJECT TIME SUBR IDT0           54200021
                                    6990 *      CALLING SEQUENCE IS                                              54208021
                                    6991 *                             L     1,GN=SIZE-ERROR TRANSF              54216021
                                    6992 *                                 OR                                    54224021
                                    6993 *                             SR    1,1   IF NO SIZE ERROR RTNE         54232021
                                    6994 *                             LA   0,STERLING-FIELD                     54240021
                                    6995 *                             L     15,=V(IDT0)                         54248021
                                    6996 *                             BALR 14,15                                54256021
                                    6997 *                             DC   AL4(SENDING-FIELD)                   54264021
                                    6998 *                             DC   XL2    2BYTES OF INFORMATION         54272021
                                    6999 *                                         DIRECTLY MOVED FROM PH5 I     54280021
1         MOVE VERB ANALYZER      M  O  V  E                                                                    PAGE  160
-  LOC  OBJECT CODE    ADDR1 ADDR2  STMT   SOURCE STATEMENT                                       ASM 0201 11.03 02/14/15
0                                   7000 *                                         STRING.                       54288021
                                    7001 *                                                                       54296021
                                    7002 *                                                                       54304021
                                    7003 *                                                                       54312021
 004CCC 9201 D48A      08552        7004 XSTMOV   MVI   XREGNO,XX01                                              54320021
 004CD0 45E0 838A      011BA        7005        BAL   XRSUB,XFREER         FREE REG 1                            54328021
 004CD4 9102 D481      08549        7006        TM    XGSWT,XSIZER                                               54336021
 004CD8 4780 98A2      04CF2        7007        BZ    XSTL03               NO SIZE ERROR RTNE                    54344021
 004CDC 4520 84AE      012DE        7008        BAL   XR2,XZRDVV           IF SIZE ERROR SPECIFIED, GEN          54352021
 004CE0 9201 D188      08250        7009          MVI   XREG1,XX01          RETURN TRANSF. FOR SUBR IN CASE      54360021
 004CE4 D201 D172 D496 0823A 0855E  7010          MVC   XGN1(LX2),XZRTRA    ERROR CONDIT DOES OCCUR              54368021
 004CEA 45E0 B000      01690        7011        BAL   XRSUB,LOAD           *  L   1,GN=SIZE-ERROR TRANSF         54376021
 004CEE 47F0 98AE      04CFE        7012        B     XSTL00                GENERATE LA                          54384021
 004CF2 9201 D188      08250        7013 XSTL03   MVI   XREG1,XX01                                               54392021
 004CF6 9201 D1D0      08298        7014          MVI   XREG2,XX01          IF NO SIZE ERROR, R1 MUST BE 0       54400021
 004CFA 45E0 B038      016C8        7015        BAL   XRSUB,SUB            *   SR   1,1                          54408021
 004CFE 9210 D485      0854D        7016 XSTL00   MVI   XYLEN,XX10                                               54416021
 004D02 45E0 7CFE      00CFE        7017        BAL   XRSUB,XYOAF                MOVE SENDING IN A 16 BYTES      54424021
 004D06 D203 D138 D550 08200 08618  7018          MVC   XOP1(LX4),X2INPT          FIELD.                         54432021
 004D0C 45E0 BBDE      0226E        7019        BAL   XRSUB,LA                   LA  0,ST-FLD.                   54440021
 004D10 95F6 D53C      08604        7020          CLI   X2IRX,XXF6                                               54448021
 004D14 4780 991C      04D6C        7021        BC    XZERO,XSTR00          REC FLD IS STERL REPORT ITEM         54456021
 004D18 45E0 8792      015C2        7022        BAL   XRSUB,VBADCE          CALL SUBROUTINE                      54464021
 004D1C C9C4E3F0                    7023        DC    C'IDT0'                                                    54472021
 004D20 4520 840C      0123C        7024          BAL   XR2,SUBST1               GENERATE DC                     54480021
                                    7025 *                                                                       54488021
                                    7026 *                                                                       54496021
 004D24 5830 C8CC      07E5C        7027        L     XR3,XAOPE2                                                 54504021
 004D28 4520 842A      0125A        7028        BAL   XR2,SUBST2            GENERATE DC                          54512021
 004D2C 95F6 D53C      08604        7029          CLI   X2IRX,XXF6                                               54520021
 004D30 4780 996C      04DBC        7030        BC    XZERO,XSTR02          REC FLD IS STERL REPORT ITEM         54528021
 004D34 47F0 93C8      04818        7031        BC    UNCON,XMEDXT               EXIT.                           54536021
0
                                    7033 *                                                                       54552021
                                    7034 *                                                                       54560021
                                    7035 *                                                                       54568021
                                    7036 *  RECEIVING  IS FLOATING POINT                                         54576021
                                    7037 *                                                                       54584021
                             04D38  7038 XM008  EQU   *                                                          54592021
                                    7039 *                                                                       54600021
                                    7040 *                                                                       54608021
 004D38 45E0 834E      0117E        7041        BAL   XRSUB,FPCVBG          MAKE SURE SENDING IS IFP             54616021
 004D3C 41E0 93C8      04818        7042        LA    XRSUB,XMEDXT                                               54624021
 004D40 9509 D493      0855B        7043        CLI   X2TYP,XGEXFP                                               54632021
 004D44 4780 8342      01172        7044        BC    XZERO,IFPEFP          REC FLD IS EFP                       54640021
 004D48 41E0 9908      04D58        7045        LA    XRSUB,XMFP00                                               54648021
 004D4C 9104 D53D      08605        7046          TM    X2IRX+NX1,XGDPFP                                         54656021
 004D50 4710 812C      00F5C        7047        BC    XTHRE,FPLDL                  LD,OR,  SDR  N,N  AND  LE     54664021
 004D54 47F0 8124      00F54        7048        BC    UNCON,FPLDS                  LE                            54672021
 004D58 45E0 77DA      007DA        7049 XMFP00 BAL   XRSUB,FPSETA          SET A-TEXT                           54680021
 004D5C 41E0 93C8      04818        7050        LA    XRSUB,XMEDXT                                               54688021
 004D60 9104 D53D      08605        7051          TM    X2IRX+NX1,XGDPFP                                         54696021
 004D64 4710 BE02      02492        7052        BC    XTHRE,STORFL               STD                             54704021
 004D68 47F0 BDFA      0248A        7053        BC    UNCON,STORFS               STE                             54712021
1         MOVE VERB ANALYZER      M  O  V  E                                                                    PAGE  161
-  LOC  OBJECT CODE    ADDR1 ADDR2  STMT   SOURCE STATEMENT                                       ASM 0201 11.03 02/14/15
0                                   7055 *                                                                       54728021
                                    7056 *      STERLING REPORT MOVE- CALL TO 'IDR0' IS GENERATED                54736021
                                    7057 *      CALLING SEQUENCE IS-                                             54744021
                                    7058 *                                                                       54752021
                                    7059 *      L    1,GN=ON-SIZE-ERROR RTNE TRANSFER                            54760021
                                    7060 *        OR                                                             54768021
                                    7061 *      SR   1,1  IF NO SIZE ERROR ROUTINE                               54776021
                                    7062 *      LA    0,STELING-REPORT-FIELD.                                    54784021
                                    7063 *      LA   2,LIT=PICTURE ADDR                                          54792021
                                    7064 *      L    15,V(IDR0)                                                  54800021
                                    7065 *      BALR  14,15                                                      54808021
                                    7066 *      DC    AL4(SENDING FIELD)                                         54816021
                                    7067 *      DC    XL1(PICTURE LENGTH)                                        54824021
                                    7068 *      DC   XL3'0'                                                      54832021
                                    7069 *      DC    XL1(LENGTH OF REPORT FIELD)                                54840021
                                    7070 *      DC    XL1(NUMBER OF DECIMAL DIGITS)                              54848021
                                    7071 *      DC    XL1(NUMBER OF POUNDS DIGITS)                               54856021
                                    7072 *      DC    XL1(INFO)                                                  54864021
                                    7073 *                                                                       54872021
-
0
                             04CCC  7075 XSTREP EQU   XSTMOV                                                     54888021
 004D6C 9202 D48A      08552        7076 XSTR00   MVI   XREGNO,XX02                                              54896021
 004D70 45E0 838A      011BA        7077        BAL   XRSUB,XFREER         FREE UP REG 2                         54904021
 004D74 1B11                        7078        SR    XR1,XR1                                                    54912021
 004D76 5850 C8CC      07E5C        7079        L     XR5,XAOPE2                                                 54920021
 004D7A 4315 0008      00008        7080          IC    XR1,DX8(XR5)                                             54928021
 004D7E 4B10 C862      07DF2        7081        SH    XR1,XC005            GET LENGTH OF POCTURE ADDR            54936021
 004D82 9234 D8AC      08974        7082        MVI   DOP5,XGALC           SET UP ALPHANUM. LIT IN DOP5          54944021
 004D86 4210 D8AD      08975        7083          STC   XR1,DOP5+NX1        SET UP LITERAL LENGTH                54952021
 004D8A 0610                        7084        BCTR  XR1,XR0               SUBTRACT 1 FOR EX INSTRUCTION        54960021
 004D8C 4410 9990      04DE0        7085        EX    XR1,XSTRMV           SET UP LITERAL OF PICTURE ADDR        54968021
 004D90 4111 0001      00001        7086          LA    XR1,DX1(XR1)                                             54976021
 004D94 4120 D8AC      08974        7087        LA    XR2,DOP5                                                   54984021
 004D98 5020 D138      08200        7088        ST    XR2,XOP1                                                   54992021
 004D9C 9202 D188      08250        7089          MVI   XREG1,XX02                                               55000021
 004DA0 45E0 BBDE      0226E        7090        BAL   XRSUB,LA             *  LA  2,LIT=PICTURE ADDR             55008021
 004DA4 45E0 8792      015C2        7091        BAL   XRSUB,VBADCE         *  L   15,V(IDR0)                     55016021
 004DA8 C9C4D9F0                    7092        DC    C'IDR0'              *  BALR  14,15                        55024021
 004DAC 4520 840C      0123C        7093        BAL   XR2,SUBST1           *  DC  AL4(SENDING TEMP STOR)         55032021
 004DB0 4210 D161      08229        7094          STC   XR1,XCON1+NX1                                            55040021
 004DB4 9204 D160      08228        7095          MVI   XCON1,XX04          *  DC  XL1'PICTURE LENGTH'           55048021
 004DB8 4520 8434      01264        7096        BAL   XR2,SUBST4           *  DC  XL3,'0'                        55056021
 004DBC D200 D161 500B 08229 0000B  7097 XSTR02   MVC   XCON1+NX1(LX1),DX11(XR5)   DC  XL1(LENGTH OF REPORT FI   55064021
 004DC2 D200 D162 500D 0822A 0000D  7098          MVC   XCON1+NX2(LX1),DX13(XR5)   DC  XL1 NUMBER OF DEC         55072021
 004DC8 D200 D163 500C 0822B 0000C  7099          MVC   XCON1+NX3(LX1),DX12(XR5)   DC  XL1NUMBER OF POUNDS       55080021
 004DCE D200 D164 5009 0822C 00009  7100          MVC   XCON1+NX4(LX1),DX9(XR5)    DC  XL1 INFO                  55088021
 004DD4 9204 D160      08228        7101          MVI   XCON1,XX04                                               55096021
 004DD8 4520 8434      01264        7102        BAL   XR2,SUBST4            GENERATE DC                          55104021
                                    7103 *                                                                       55112021
 004DDC 47F0 93C8      04818        7104        BC    UNCON,XMEDXT          EXIT ROUTINE                         55120021
                                    7105 *                                                                       55128021
1         MOVE VERB ANALYZER      M  O  V  E                                                                    PAGE  162
-  LOC  OBJECT CODE    ADDR1 ADDR2  STMT   SOURCE STATEMENT                                       ASM 0201 11.03 02/14/15
0                                   7106 *                                                                       55136021
 004DE0 D200 D8AE 500E 08976 0000E  7107 XSTRMV   MVC   DOP5+NX2(LX0),DX14(XR5)                                  55144021
1         ARITHMETIC / MOVE / SUBSCRIPT  ROUTINES                                                               PAGE  163
-  LOC  OBJECT CODE    ADDR1 ADDR2  STMT   SOURCE STATEMENT                                       ASM 0201 11.03 02/14/15
-
-
-
0
                                    7110 *      XSZPRO  -  ONSIZE ERROR  PROCESSING -  CHECK IF  CALCULATED      55168021
                                    7111 *              -  RESULT MIGHT BE  GREATER THAN RESULT FIELD - IF Y     55176021
                                    7112 *              -  GENERATE  INSTRUCTIONS TO CHECK THAT CONDITION AN     55184021
                                    7113 *                 TRANSFER TO ON SIZE ERROR CODING.                     55192021
-
0
                             04DE6  7115 XSZPRO EQU   *                                                          55208021
 004DE6 900F C448      079D8        7116        STM   XR0,XR15,XGSAV2                                            55216021
 004DEA 4860 D542      0860A        7117          LH    XR6,X2FBS                                                55224021
 004DEE 4A60 D546      0860E        7118        AH    XR6,X2ALP                                                  55232021
 004DF2 4B60 D544      0860C        7119        SH    XR6,X2DBS                  XR6 HAS NUMB. OF INT. OF RE     55240021
 004DF6 47C0 9A40      04E90        7120        BC    XLOEQ,XSZP01          NO INTEGERS                          55248021
 004DFA 4A60 D50C      085D4        7121        AH    XR6,X1DBS                                                  55256021
 004DFE 4B60 D50E      085D6        7122        SH    XR6,X1ALP                                                  55264021
 004E02 4960 D50A      085D2        7123 XSZP03 CH    XR6,X1FBS                                                  55272021
 004E06 47B0 9B1A      04F6A        7124          BNM   XSZP05              NO SIZE ERROR POSSIBLE               55280021
 004E0A 91D0 D505      085CD        7125          TM    X1IRX+NX1,XZGNLT                                         55288021
 004E0E 4780 99CA      04E1A        7126        BC    XZERO,XSZN00          1ST OPERAND IS NOT A LITERAL         55296021
 004E12 920F D188      08250        7127          MVI   XREG1,XX0F                                               55304021
 004E16 47F0 9AD2      04F22        7128        BC    UNCON,XSZP09          GENERATE BC                          55312021
                                    7129 *                                                                       55320021
                             04E1A  7130 XSZN00 EQU   *                                                          55328021
 004E1A 910B D504      085CC        7131        TM    X1IRX,XGBINR                                               55336021
 004E1E 4710 9A84      04ED4        7132        BC    XTHRE,XSZP04          1ST OPND IS BINARY                   55344021
 004E22 4260 D41F      084E7        7133 XSZP06   STC   XR6,XGTEM2+NX15                                          55352021
 004E26 8A60 0001      00001        7134          SRA   XR6,DX1                                                  55360021
 004E2A 4166 0001      00001        7135          LA    XR6,DX1(XR6)                                             55368021
 004E2E D200 D485 D507 0854D 085CF  7136          MVC   XYLEN(LX1),X1LBS+NX1                                     55376021
 004E34 45E0 7D08      00D08        7137        BAL   XRSUB,XYOBF                 ZAP  TEMP , OP                 55384021
 004E38 4810 D442      0850A        7138        LH    XR1,XYTEL                                                  55392021
 004E3C 1B16                        7139        SR    XR1,XR6                                                    55400021
 004E3E 4780 9A1E      04E6E        7140        BC    XZERO,XSZP66          TEST LEADING BYTE                    55408021
 004E42 D201 D14A D446 08212 0850E  7141          MVC   XWC1(LX2),XEREL1                                         55416021
 004E48 4010 D148      08210        7142        STH   XR1,XL1                      CLC  TEMP(L),=0               55424021
 004E4C 4210 D1B8      08280        7143          STC   XR1,XCON2+NX16            WITH  L= LENGHT OF TEMP -      55432021
 004E50 45E0 B158      017E8        7144        BAL   XRSUB,CLC                           LENGHT OF MAX.NUMB     55440021
 004E54 9207 D188      08250        7145 XSZP68 MVI   XREG1,XNOEQ                                                55448021
 004E58 4520 84AE      012DE        7146 XSZP67 BAL   XR2,XZRDVV            GET TRANSFER                         55456021
 004E5C D201 D172 D496 0823A 0855E  7147          MVC   XGN1(LX2),XZRTRA          BC  COND,SIZE ERROR            55464021
 004E62 45E0 BC10      022A0        7148        BAL   XRSUB,BC              GENERATE BC                          55472021
 004E66 4960 D442      0850A        7149        CH    XR6,XYTEL                                                  55480021
1         ARITHMETIC / MOVE / SUBSCRIPT  ROUTINES                                                               PAGE  164
-  LOC  OBJECT CODE    ADDR1 ADDR2  STMT   SOURCE STATEMENT                                       ASM 0201 11.03 02/14/15
0004E6A 4780 9B1A      04F6A        7150        BC    XZERO,XSZP05          RETURN                               55488021
 004E6E 9101 D41F      084E7        7151 XSZP66   TM    XGTEM2+NX15,XX01              IF LEADING BYTE HAS TO     55496021
 004E72 4710 9B1A      04F6A        7152        BC    XTHRE,XSZP05                   HAVE  A LEADING ZERO        55504021
 004E76 4820 D446      0850E        7153        LH    XR2,XEREL1                         TM  HIGHORDERBYTE,X     55512021
 004E7A 1A21                        7154        AR    XR2,XR1                            BC  NOTZERO,ONSIZEE     55520021
 004E7C 4020 D14A      08212        7155        STH   XR2,XWC1                                                   55528021
 004E80 92F0 D189      08251        7156          MVI   XIMM,XXF0                                                55536021
 004E84 45E0 BB46      021D6        7157        BAL   XRSUB,TM              GENERATE TM                          55544021
 004E88 4860 D442      0850A        7158        LH    XR6,XYTEL                                                  55552021
 004E8C 47F0 9A04      04E54        7159        BC    UNCON,XSZP68          GENERATE BC                          55560021
                                    7160 *                                                                       55568021
                                    7161 * THERE ARE NO INTEGERS IN THE RECEIVING FIELD, BUT STILL MUST    49550 55576021
                                    7162 * CHECK IF THERE ARE LESS P'S TO RIGHT OF DECIMAL POINT IN        49550 55584021
                                    7163 * SENDING FIELD THAN IN RECEIVING FIELD.                          49550 55592021
                                    7164 *                                                                       55600021
 004E90                             7165 XSZP01   DS    0H                                                 49550 55608021
 004E90 4860 D50C      085D4        7166          LH    XR6,X1DBS                                          49550 55616021
 004E94 1B11                        7167          SR    XR1,XR1                                            49550 55624021
 004E96 95F5 D53C      08604        7168          CLI   X2IRX,XXF5          NUMERIC EDITED                 49550 55632021
 004E9A 4780 9A5E      04EAE        7169          BE    XSZP02              YES                            49550 55640021
 004E9E 9180 D740      08808        7170          TM    DOP2+XGSCAL,XGSCSG  NO, LEFT SCALE                 49550 55648021
 004EA2 4710 99B2      04E02        7171          BO    XSZP03              YES                            49550 55656021
 004EA6 4310 D740      08808        7172          IC    XR1,DOP2+XGSCAL     NO, PICK UP NUMBER OF DECIMALS 49550 55664021
 004EAA 47F0 9A6A      04EBA        7173          B     XSZP07              CONTINUE                       49550 55672021
 004EAE                             7174 XSZP02   DS    0H                                                 49550 55680021
 004EAE 9180 D742      0880A        7175          TM    DOP2+NX10,XGSCSG    LEFT SCALE                     49550 55688021
 004EB2 4710 99B2      04E02        7176          BO    XSZP03              YES                            49550 55696021
 004EB6 4310 D742      0880A        7177          IC    XR1,DOP2+NX10       NO, PICK UP NUMBER OF DECIMALS 49550 55704021
 004EBA                             7178 XSZP07   DS    0H                                                 49550 55712021
 004EBA 1B61                        7179          SR    XR6,XR1             #DEC IN SF - #DEC IN RF        49550 55720021
 004EBC 4310 D741      08809        7180          IC    XR1,DOP2+XGDGLG     PICK UP #DIGITS IN RF          49550 55728021
 004EC0 8910 001B      0001B        7181          SLL   XR1,DX27            SHIFT OUT HIGH ORDER 3 BITS    49550 55736021
 004EC4 8810 001B      0001B        7182          SRL   XR1,DX27            IN CASE RF IS NUMERIC EDITED   49550 55744021
 004EC8 1A61                        7183          AR    XR6,XR1             ADD #DIGITS                    49550 55752021
 004ECA 47B0 99B2      04E02        7184          BNM   XSZP03              CHECK IF SIZE ERROR POSSIBLE   49550 55760021
 004ECE 1B66                        7185          SR    XR6,XR6                                            49550 55768021
 004ED0 47F0 99B2      04E02        7186          B     XSZP03              CHECK IF SIZE ERROR POSSIBLE   49550 55776021
0
 004ED4 41E0 99D2      04E22        7188 XSZP04 LA    XRSUB,XSZP06               IF DP BINARY GO TO ID           55792021
 004ED8 9504 D509      085D1        7189          CLI   X1BBS+NX1,XX04                                           55800021
 004EDC 4720 82CA      010FA        7190        BC    XTWO,XBIIDB           DP, GO TO ID                         55808021
                                    7191 *                                                                       55816021
0
 004EE0 1266                        7193          LTR   XR6,XR6                                                  55832021
 004EE2 4780 9ADA      04F2A        7194          BE    XSZP14              GENERATE COMPARE INSTRUCTION         55840021
 004EE6 4810 C3AE      0793E        7195          LH    XR1,XC001                                                55848021
 004EEA 4C10 C86C      07DFC        7196 XSZP08 MH    XR1,XC010                          L RA, OP                55856021
 004EEE 4660 9A9A      04EEA        7197        BCT   XR6,XSZP08                        LPR RB,RA                55864021
                             04EF2  7198 XSZP15   EQU   *                                                        55872021
 004EF2 45E0 8106      00F36        7199          BAL   XRSUB,XSLOAS        GENERATE LOAD INSTRUCTION            55880021
 004EF6 4850 C88C      07E1C        7200        LH    XR5,XMINTW                                                 55888021
 004EFA 45E0 77F2      007F2        7201        BAL   XRSUB,XZBINB          SET A-TEXT                           55896021
 004EFE 45E0 8076      00EA6        7202        BAL   XRSUB,XRSASG                      C(H)  RA ,= 10...0       55904021
1         ARITHMETIC / MOVE / SUBSCRIPT  ROUTINES                                                               PAGE  165
-  LOC  OBJECT CODE    ADDR1 ADDR2  STMT   SOURCE STATEMENT                                       ASM 0201 11.03 02/14/15
0004F02 D200 D188 D48A 08250 08552  7203          MVC   XREG1(LX1),XREGNO                BC    XGTEQ,ONSIZ ER    55912021
 004F08 45E0 B040      016D0        7204        BAL   XRSUB,LPR             GENERATE LPR                         55920021
 004F0C D200 D188 D48A 08250 08552  7205          MVC   XREG1(LX1),XREGNO                                        55928021
 004F12 5010 D16C      08234        7206          ST    XR1,XCON1+NX12                                           55936021
 004F16 9204 D170      08238        7207          MVI   XCON1+NX16,XX04                                          55944021
 004F1A 45E0 BAB2      02142        7208        BAL   XRSUB,COMP            GENERATE A COMPARE INSTRUCTION       55952021
 004F1E 920A D188      08250        7209        MVI   XREG1,XGTEQ                                                55960021
 004F22 4860 D442      0850A        7210 XSZP09 LH    XR6,XYTEL                                                  55968021
 004F26 47F0 9A08      04E58        7211        BC    UNCON,XSZP67          GENERATE BC                          55976021
                                    7212 *                                                                       55984021
 004F2A 1B11                        7213 XSZP14   SR    XR1,XR1                                                  55992021
 004F2C 47F0 9AA2      04EF2        7214          B     XSZP15              GENERATE COMPARE                     56000021
-
0
                                    7216 *      XSZPRI   -GENERATE TRANSFER NECESSARY AFTER THE STORE TO BYP     56016021
                                    7217 *               -THE ON SIZE ERROR CODING.                              56024021
-
 004F30 900F C448      079D8        7219 XSZPRI STM   XR0,XR15,XGSAV2                                            56040021
 004F34 9104 D48D      08555        7220        TM    XGNSW,XADDCR                                               56048021
 004F38 4780 9B5E      04FAE        7221        BC    XZERO,XSZP10               NOT  ADD  CORRESPONDING         56056021
 004F3C 9104 D481      08549        7222        TM    XGSWT,XADDCR                                               56064021
 004F40 4710 9B20      04F70        7223        BC    XTHRE,XSZP11               LAST ADD OF AN ADD CORRESPO     56072021
 004F44 920F D188      08250        7224          MVI   XREG1,XX0F                         BC  UNCON,5GN2        56080021
 004F48 45E0 7AA2      00AA2        7225        BAL   XRSUB,XSTLHN          GET TRANSFER                         56088021
 004F4C 45E0 BC10      022A0        7226        BAL   XRSUB,BC              GENERATE BC                          56096021
 004F50 4550 9B42      04F92        7227          BAL   XR5,XSZPRY              GENERATE GN                      56104021
 004F54 9280 D189      08251        7228          MVI   XIMM,XX80                 ON.                            56112021
                                    7229 *----    SET  SWITH                                                     56120021
 004F58 9204 D184      0824C        7230          MVI   GDEBG1,XX04                                              56128021
 004F5C 45E0 BB2E      021BE        7231        BAL   XRSUB,OI              GENERATE OI                          56136021
 004F60 D201 756D D460 0056D 08528  7232          MVC   PH4GN+NX1(LX2),XGNTMP   MOVE GN #                        56144021
 004F66 45E0 753C      0053C        7233          BAL   XRSUB,WRPH4G            WRITE PH4 GN DEF                 56152021
 004F6A                             7234 XSZP05   DS    0H                  ERROR SWITCH                         56160021
 004F6A 980F C448      079D8        7235          LM    XR0,XR15,XGSAV2     EXIT                                 56168021
 004F6E 07FE                        7236          BR    XRSUB               RETURN                               56176021
0
 004F70 9280 D189      08251        7238 XSZP11   MVI   XIMM,XX80                      TM  XSWT,X'80'            56192021
                                    7239 *---   SET SWITCH                                                       56200021
 004F74 9704 D48D      08555        7240        XI    XGNSW,XADDCR          RESET ADD CORRESPONDING SWT.         56208021
 004F78 9204 D184      0824C        7241          MVI   GDEBG1,XX04                                              56216021
 004F7C 45E0 BB46      021D6        7242        BAL   XRSUB,TM              GENERATE TM                          56224021
 004F80 9208 D188      08250        7243        MVI   XREG1,XZERO                      BC  XZERO,4GN (GOTO O     56232021
                                    7244 *                                            SIZE ERROR).               56240021
 004F84 D201 D172 D494 0823A 0855C  7245 XSZP12   MVC   XGN1(LX2),XSZTRA                                         56248021
 004F8A 45E0 BC10      022A0        7246        BAL   XRSUB,BC              GENERATE BC                          56256021
 004F8E 4150 9B1A      04F6A        7247        LA    XR5,XSZP05                                                 56264021
                             04F92  7248 XSZPRY EQU   *                                                          56272021
 004F92 9102 D48D      08555        7249        TM    XGNSW,XZRDIV                                               56280021
 004F96 4780 9B5C      04FAC        7250        BC    XZERO,XSZP21               WRITE OUT LABEL                 56288021
1         ARITHMETIC / MOVE / SUBSCRIPT  ROUTINES                                                               PAGE  166
-  LOC  OBJECT CODE    ADDR1 ADDR2  STMT   SOURCE STATEMENT                                       ASM 0201 11.03 02/14/15
0004F9A D201 756D D496 0056D 0855E  7251          MVC   PH4GN+NX1(LX2),XZRTRA   MOVE GN #                        56296021
 004FA0 45E0 753C      0053C        7252          BAL   XRSUB,WRPH4G            WRITE PH4 GN DEF                 56304021
 004FA4 94FD D48D      08555        7253          NI    XGNSW,XXFD                                               56312021
 004FA8 45E0 7DEC      00DEC        7254          BAL   XRSUB,KILSUB   KILL SUBSCRIPT OPTIMIZATION         51323 56320021
                             04FAC  7255 XSZP21 EQU   *                                                          56328021
 004FAC 07F5                        7256        BCR   UNCON,XR5             RETURN                               56336021
0
 004FAE 920F D188      08250        7258 XSZP10   MVI   XREG1,XX0F                   BC  UNCON,4GN   BYPASS O    56352021
 004FB2 47F0 9B34      04F84        7259        BC    UNCON,XSZP12                  SIZE ERROR CODING.           56360021
-
-
-

                                    7261 *      XMVSCL   SCALING FOR MOVE OR STORE  OF THE SENDING FIELD TO      56376021
                                    7262 *               ALIGN IT WITH THE  RECEIVING FIELD.                     56384021
-
0
 004FB6 900F C408      07998        7264 XMVSCL STM   XR0,XR15,XGSAV1                                            56400021
 004FBA 4865 0024      00024        7265        LH    XR6,Y1DBS(XR5)          DEC OF SENDING                     56408021
 004FBE 4063 0016      00016        7266        STH   XR6,Y1DAS(XR3)                                             56416021
 004FC2 4B63 0024      00024        7267        SH    XR6,Y1DBS(XR3)          - DEC OF RECEIVING                 56424021
 004FC6 4A63 0026      00026        7268        AH    XR6,Y1ALP(XR3)          + NUMBER OF P'S OF SENDING(999     56432021
 004FCA 4B65 0026      00026        7269        SH    XR6,Y1ALP(XR5)          -   -       P'S    RECEIV          56440021
 004FCE 4063 0026      00026        7270        STH   XR6,Y1ALP(XR3)          = SCALING FACTOR OF SENDING        56448021
 004FD2 45E0 7828      00828        7271          BAL   XRSUB,XZX3X5        SWITCH OPERANDS                      56456021
 004FD6 45E0 774E      0074E        7272        BAL   XRSUB,XSCAL             SCALE (COMPILE TIME SCALING)       56464021
 004FDA 9102 501D      0001D        7273          TM    Y1IRX+NX1(XR5),XGOVFL  IF OVERFLOW                       56472021
 004FDE 4710 9B9E      04FEE        7274        BC    XTHRE,XMVSCO          SET NUMBER OF INTEGERS TO TRUNC      56480021
 004FE2 D207 3010 301E 00010 0001E  7275 XMVSEX   MVC   Y1LAS(LX8,XR3),Y1LBS(XR3)                                56488021
 004FE8 980F C408      07998        7276        LM    XR0,XR15,XGSAV1                                            56496021
 004FEC 07FE                        7277        BCR   UNCON,XRSUB           RETURN                               56504021
 004FEE 4865 0022      00022        7278 XMVSCO LH    XR6,Y1FBS(XR5)  DETERMINE NUMB. OF INTEG. TO BE TRUNCA     56512021
 004FF2 4A65 0026      00026        7279        AH    XR6,Y1ALP(XR5)          TRUNCATED.                         56520021
 004FF6 4B60 C87E      07E0E        7280        SH    XR6,XC030                                                  56528021
 004FFA 4065 002E      0002E        7281        STH   XR6,Y1IND(XR5)                                             56536021
 004FFE 45E0 849C      012CC        7282        BAL   XRSUB,XSETOP          SET BUFFWR TO MAX                    56544021
 005002 47F0 9B92      04FE2        7283        BC    UNCON,XMVSEX          RETURN                               56552021
-
0
                                    7285 * GEN CODING TO CONVERT IFP DN'S TO EFP IN PARAM AREA                   56568021
                                    7286 *     PRIOR TO DISPLAY OR EXHIBIT STRINGS.                              56576021
                                    7287 *     ENTERED FROM MOVE ANALYZER.                                       56584021
1         ARITHMETIC / MOVE / SUBSCRIPT  ROUTINES                                                               PAGE  167
-  LOC  OBJECT CODE    ADDR1 ADDR2  STMT   SOURCE STATEMENT                                       ASM 0201 11.03 02/14/15
0                            05006  7288 DIFPMV EQU   *                                                          56592021
 005006 9101 D67D      08745        7289        TM    FLAGSW,MSWON          SECOND STRING MOVES...               56600021
 00500A 4710 700A      0000A        7290        BC    ONES,DON               YES, IGNORE THIS MOVE               56608021
 00500E 4110 CA48      07FD8        7291        LA    RW1,DIFPC1                                                 56616021
 005012 4120 CA38      07FC8        7292        LA    RW2,DIFPC2            ASSUME SINGLE PRECISION              56624021
 005016 4150 000E      0000E        7293        LA    RW5,FPLENS                                                 56632021
 00501A 9101 D6C5      0878D        7294          TM    DOP1+NX9,XX01        SINGLE PRECISION...                 56640021
 00501E 4780 9BEE      0503E        7295        BC    ZERO,DIFP01            YES,                                56648021
 005022 4110 CA4C      07FDC        7296        LA    RW1,RW4+DIFPC1           NO, DOUBLE PRECISION              56656021
 005026 4120 CA40      07FD0        7297        LA    RW2,RB1+DIFPC2                                             56664021
 00502A 4150 0017      00017        7298        LA    RW5,FPLENL                                                 56672021
 00502E 4140 D6BC      08784        7299        LA    RW4,DOP1                                                   56680021
 005032 5040 D138      08200        7300        ST    RW4,OP1                                                    56688021
 005036 45E0 BCDE      0236E        7301        BAL   RETRG,LDFLL           *    LD   0,DN      IF DOUBLE PR     56696021
 00503A 47F0 9BFC      0504C        7302        BC    UNCOND,DIFP02         GENERATE CNOP                        56704021
 00503E 45E0 BD4E      023DE        7303 DIFP01 BAL   RETRG,SUBNL           *    SDR  0,0       IF SINGLE PR     56712021
 005042 D203 D138 C8C8 08200 07E58  7304          MVC   OP1(LX4),XAOPE1                                          56720021
 005048 45E0 BD2E      023BE        7305        BAL   RETRG,LDFLS           *    LE   0,DN                       56728021
 00504C 9218 D189      08251        7306 DIFP02   MVI   IMM,XX18                                                 56736021
 005050 45E0 BDC4      02454        7307        BAL   RETRG,CNOP            *    CNOP 6,8                        56744021
 005054 4130 C91C      07EAC        7308        LA    RW3,DIFPVI            *    L    15,VIRT=IFEF               56752021
 005058 45E0 878A      015BA        7309        BAL   RETRG,VBALRE          *    BLAR 14,15                      56760021
 00505C 9204 D160      08228        7310          MVI   GMACDC,XX04                                              56768021
 005060 D203 D161 1000 08229 00000  7311          MVC   GMACDC+NX1(LX4),DX0(RW1)                                 56776021
 005066 9224 D189      08251        7312        MVI   GMCTYP,MDC                                                 56784021
 00506A 45E0 BD8A      0241A        7313        BAL   RETRG,MACRO           *    DC   XL4'080E0100'              56792021
                                    7314 *                              OR...            '11170100'              56800021
 00506E 9208 D160      08228        7315          MVI   GMACDC,XX08                                              56808021
 005072 D207 D161 2000 08229 00000  7316          MVC   GMACDC+NX1(LX8),DX0(RW2)                                 56816021
 005078 9224 D189      08251        7317        MVI   GMCTYP,MDC                                                 56824021
 00507C 45E0 BD8A      0241A        7318        BAL   RETRG,MACRO           *    DC   XL8'FL-PT-8'               56832021
                                    7319 *                              OR...         XL8'FL-PT-17'              56840021
 005080 4250 D149      08211        7320          STC   RW5,XL1+NX1                                              56848021
 005084 4050 D666      0872E        7321        STH   RW5,DIPARE                                                 56856021
 005088 92D0 D196      0825E        7322          MVI   BDISP2,XXD0                                              56864021
 00508C 9278 D197      0825F        7323          MVI   BDISP2+NX1,MWORKA    DISPLACEMENT OF OTSR WORK AREA      56872021
 005090 921C D178      08240        7324          MVI   XCNTR1,XX1C                                              56880021
 005094 9201 D17A      08242        7325          MVI   XCNTR1+NX2,XX01                                          56888021
 005098 D201 D17C D73A 08244 08802  7326          MVC   PLUS1+NX1(LX2),DOP2+NX2                                  56896021
 00509E 45E0 B18C      0181C        7327        BAL   RETRG,MVC             *    MVC  PARAM1+N(14),120(13)       56904021
                                    7328 *                              OR...                 (23)               56912021
 0050A2 D201 D664 D73A 0872C 08802  7329          MVC   DIFPNN(LX2),DOP2+NX2                                     56920021
 0050A8 4A50 D664      0872C        7330        AH    RW5,DIFPNN                                                 56928021
 0050AC 4950 A22A      0022A        7331        CH    RW5,PARMAX           UPDATE PARMAX IN                      56936021
 0050B0 47D0 700A      0000A        7332        BNH   DON                  COMMON IF NECESSARY                   56944021
 0050B4 4050 A22A      0022A        7333        STH   RW5,PARMAX                                                 56952021
 0050B8 47F0 700A      0000A        7334        BC    UNCOND,DON            RETURN TO CONTROL                    56960021
 0050BC 5890 C36C      078FC        7335 XMRPTG L     XRVERB,ARPMOV        GO TO REPORT MOVE                     56968021
 0050C0 07F9                        7336        BCR     UNCOND,XRVERB       ANALYZER                             56976021
1         ARITHMETIC / MOVE / SUBSCRIPT  ROUTINES                                                               PAGE  168
-  LOC  OBJECT CODE    ADDR1 ADDR2  STMT   SOURCE STATEMENT                                       ASM 0201 11.03 02/14/15
00050C8                             7338 IKF50D CSECT                                                            56992021
                                    7339 *                                                                       57000021
                                    7340 *                                                                       57008021
                                    7341 *=1    REPORT MOVE ANALYZER                                             57016021
                                    7342 *                                                                       57024021
                                    7343 *                                                                       57032021
                             050C8  7344        USING *,XRVERB                                                   57040021
                             050C8  7345 RPMOVE EQU   *                                                          57048021
 0050C8 D745 D844 D844 0890C 0890C  7346          XC    RPDATA(LX70),RPDATA  INITIALIZE DATA AREAS TO 0.         57056021
                                    7347 *                                                                       57064021
                                    7348 * DEVELOP EDIT PATTERN                                                  57072021
                                    7349 *                                                                       57080021
 0050CE 9240 D7B6      0887E        7350          MVI   RPPAT,XX40           BLANK TO BYTE 1 OF PATTERN          57088021
 0050D2 4160 D7B7      0887F        7351          LA    XR6,RPPAT+NX1        POINT XR6 TO BYTE 2                 57096021
 0050D6 9101 D535      085FD        7352          TM    X2FAS+NX1,XX01       IS NUMBER OF DIGITS ODD             57104021
 0050DA 4710 9022      050EA        7353        BC    ONES,RPPRES           YES                                  57112021
 0050DE 9220 D7B7      0887F        7354          MVI   RPPAT+NX1,XX20       NO-ENTER DIG SELECT FOR LEADING     57120021
 0050E2 9201 D877      0893F        7355          MVI   RPEVNL+NX1,XX01      WHICH WILL BE IGNORED IN FINAL M    57128021
 0050E6 4166 0001      00001        7356          LA    XR6,DX1(XR6)         POINT TO NEXT BYTE OF PATTERN       57136021
 0050EA 1B33                        7357 RPPRES SR    XR3,XR3                                                    57144021
 0050EC 1B44                        7358        SR    XR4,XR4                                                    57152021
 0050EE 4120 D740      08808        7359          LA    XR2,DOP2+NX8         GET ADDR OF BYTE 7 OF RPT ATTRIB    57160021
 0050F2 4330 D740      08808        7360          IC    XR3,DOP2+NX8                                             57168021
 0050F6 1A23                        7361        AR    XR2,XR3               ADD COUNT OF REPORT BYTES            57176021
 0050F8 0620                        7362        BCTR  XR2,RW0                 SUB 1, GIVING ADDR OF LAST PIC     57184021
 0050FA 5020 D880      08948        7363        ST    XR2,RPLAST                                                 57192021
 0050FE 4150 D744      0880C        7364          LA    XR5,DOP2+NX12        POINT XR5 TO FIRST PICTURE CHARA    57200021
 005102 47F0 904C      05114        7365        BC    UNCOND,RPSCA1         PICK UP NO OCCURRENCES IN REG4       57208021
                                    7366 *                                                                       57216021
 005106 1A64                        7367 RPSCAN AR    XR6,XR4               UPDATE POINTER TO PATTERN            57224021
 005108 5950 D880      08948        7368        C     XR5,RPLAST            WAS LAST PICT CHAR PROCESSED         57232021
 00510C 4780 933E      05406        7369        BC    EQ,RPLNTH             YES                                  57240021
 005110 4155 0002      00002        7370          LA    XR5,DX2(XR5)         NO-POINT TO NEXT PICTURE CHARACT    57248021
 005114 4345 0001      00001        7371 RPSCA1   IC    XR4,DX1(XR5)         PICK UP NO. OCCURRENCES IN XR4      57256021
 005118 95F9 5000      00000        7372          CLI   DX0(XR5),XC9                                             57264021
 00511C 4780 90AA      05172        7373        BC    EQ,RPS9S              G                                    57272021
 005120 954E 5000      00000        7374          CLI   DX0(XR5),XX4E                                            57280021
 005124 4780 9122      051EA        7375        BC    EQ,RPSSGN             +                                    57288021
 005128 9560 5000      00000        7376          CLI   DX0(XR5),XX60                                            57296021
 00512C 4780 9122      051EA        7377        BC    EQ,RPSSGN             -                                    57304021
 005130 D500 5000 A1D2 00000 001D2  7378          CLC   DX0(LX1,XR5),CURSGN       CURRENCY SIGN IS IN COMMON CEL 57312021
 005136 4780 9122      051EA        7379        BC    EQ,RPSSGN             $                                    57320021
 00513A 955C 5000      00000        7380          CLI   DX0(XR5),XX5C                                            57328021
 00513E 4780 91BE      05286        7381        BC    EQ,RPSSUP             *                                    57336021
 005142 95E9 5000      00000        7382          CLI   DX0(XR5),XCZ                                             57344021
 005146 4780 91BE      05286        7383        BC    EQ,RPSSUP             Z                                    57352021
 00514A D500 5000 A1C5 00000 001C5  7384          CLC   DX0(LX1,XR5),COMMAD+NX1                                  57360021
 005150 4780 921E      052E6        7385        BC    EQ,RPSDEC             .                                    57368021
 005154 D500 5000 A1C4 00000 001C4  7386          CLC   DX0(LX1,XR5),COMMAD                                      57376021
 00515A 4780 91E6      052AE        7387        BC    EQ,RPSINS             ,                                    57384021
 00515E 9540 5000      00000        7388          CLI   DX0(XR5),XX40                                            57392021
 005162 4780 91E6      052AE        7389        BC    EQ,RPSINS             B                                    57400021
 005166 95F0 5000      00000        7390          CLI   DX0(XR5),XC0                                             57408021
 00516A 4780 91E6      052AE        7391        BC    EQ,RPSINS             0                                    57416021
 00516E 47F0 9244      0530C        7392        BC    UNCOND,RPSCRD         CR,DB                                57424021
1         ARITHMETIC / MOVE / SUBSCRIPT  ROUTINES                                                               PAGE  169
-  LOC  OBJECT CODE    ADDR1 ADDR2  STMT   SOURCE STATEMENT                                       ASM 0201 11.03 02/14/15
0                                   7393 *                                                                       57432021
                                    7394 * CHARACTER IS 9                                                        57440021
                                    7395 *                                                                       57448021
 005172 9101 D87A      08942        7396 RPS9S  TM    RPNUMS,MSWON          IS IT FIRST NUMERIC CHARACTER        57456021
 005176 4710 90C2      0518A        7397        BC    ONES,RPS9S1           NO                                   57464021
 00517A 92F0 D7B6      0887E        7398          MVI   RPPAT,XC0            YES-MAKE ZERO THE FILL CHAR         57472021
 00517E 45E0 928A      05352        7399        BAL   XRSUB,RPSNM           DO PROCESSING FOR 1ST NUMERIC CH     57480021
 005182 9221 6000      00000        7400          MVI   DX0(XR6),XX21        ENTER SIGNIF START CHAR IN PATTE    57488021
 005186 47F0 903E      05106        7401        BC    UNCOND,RPSCAN         GO GET NEXT PICT CHAR                57496021
 00518A 45E0 9312      053DA        7402 RPS9S1 BAL   XRSUB,RPPRP2          NOT 1ST NUMERIC-PROPAGATE IN PAT     57504021
 00518E 9101 D87B      08943        7403 RPS9SD TM    RPSTRS,MSWON          DOES IT FOLLOW FLTG OR SUPP STRI     57512021
 005192 4780 903E      05106        7404        BC    ZERO,RPSCAN           NO                                   57520021
 005196 5830 D884      0894C        7405        L     XR3,RPLSTN            YES-                                 57528021
 00519A 9221 3000      00000        7406          MVI   DX0(XR3),XX21        PUT SIG ST IN LAST NUMERIC POSIT    57536021
 00519E 1826                        7407        LR    XR2,XR6               CALC NO. OF INSERTION CHARS TO B     57544021
 0051A0 1B23                        7408        SR    XR2,XR3               OVERLAID WITH FILL IF THEY PRECE     57552021
 0051A2 0620                        7409        BCTR  XR2,RW0                 FIRST SIGNIF. POSITION.            57560021
 0051A4 9500 D859      08921        7410          CLI   RFLTIL+NX1,XX00      DOES IT FOLLOW FLOATING STRING      57568021
 0051A8 4780 90F0      051B8        7411        BC    EQ,RPS9S2             NO        N=XRG-RPLSTN-1             57576021
 0051AC 0620                        7412        BCTR  XR2,RW0                 YES       N=XRG-RPLSTN-2           57584021
 0051AE 1836                        7413        LR    XR3,XR6                                                    57592021
 0051B0 5B30 CA68      07FF8        7414        S     XR3,ARPPTM                                                 57600021
 0051B4 4030 D86C      08934        7415        STH   XR3,RPLAD             SAVE CURR DISPLACEMENT FOR LA        57608021
 0051B8 4920 C850      07DE0        7416 RPS9S2 CH    XR2,XC000             ANY INSERTION CHARS TO OVERLAY       57616021
 0051BC 47D0 911A      051E2        7417        BC    NOTHI,RPS9S3          NO                                   57624021
 0051C0 920C D853      0891B        7418          MVI   RINSL1+NX1,XX0C      YES                                 57632021
 0051C4 5830 D884      0894C        7419        L     XR3,RPLSTN                                                 57640021
 0051C8 5B30 CA68      07FF8        7420        S     XR3,ARPPTM                                                 57648021
 0051CC 4030 D86E      08936        7421        STH   XR3,RPLSTD            SAVE DISP OF LAST NUM FOR TM         57656021
 0051D0 4920 C3AE      0793E        7422        CH    XR2,XC001             IS THERE MORE THAN 1 CHAR TO OVE     57664021
 0051D4 47D0 911A      051E2        7423        BC    NOTHI,RPS9S3          NO                                   57672021
 0051D8 9206 D855      0891D        7424          MVI   RINSL2+NX1,XX06      YES                                 57680021
 0051DC 0620                        7425        BCTR  XR2,RW0               SUBTRACT 1 FROM REG2                 57688021
 0051DE 4020 D870      08938        7426        STH   XR2,RPLM1             SAVE N-1 AS LENGTH FOR MVC           57696021
 0051E2 94FE D87B      08943        7427 RPS9S3 NI    RPSTRS,MSWOFF         TURN OFF STRING SWITCH               57704021
 0051E6 47F0 903E      05106        7428        BC    UNCOND,RPSCAN         UPDATE POINTER TO PATTERN,SCAN       57712021
                                    7429 *                                                                       57720021
                                    7430 * CHARACTER IS +,- OR $                                                 57728021
                                    7431 *                                                                       57736021
 0051EA 9101 D87A      08942        7432 RPSSGN TM    RPNUMS,MSWON          DID ANY NUMERIC CHARACTERS PRECE     57744021
 0051EE 4780 916C      05234        7433        BC    ZERO,RPSSG4           NO-L.H.SIGN OR FIRST FLTG CHAR       57752021
 0051F2 D500 5000 A1D2 00000 001D2  7434          CLC   DX0(LX1,XR5),CURSGN       YES, IS IT CURRENCY SIGN...    57760021
 0051F8 4780 913C      05204        7435          BE    RPSSG1                  YES, MUST BE FLTG CURRENCY SIGN  57768021
 0051FC 9500 D84D      08915        7436          CLI   RSGNL1+NX1,XX00      NO-WAS THERE ANY PREVIOUS SIGN      57776021
 005200 4780 9144      0520C        7437        BC    EQ,RPSSG2             NO-MUST BE R.H.SIGN                  57784021
                                    7438 *                                                                       57792021
 005204 45E0 9308      053D0        7439 RPSSG1 BAL   XRSUB,RPPRP1          FLTG CHAR-PROPAGATE                  57800021
 005208 47F0 903E      05106        7440        BC    UNCOND,RPSCAN         UPDATE POINTER TO PATTERN,SCAN       57808021
                                    7441 *                                                                       57816021
 00520C 9260 6000      00000        7442 RPSSG2   MVI   DX0(XR6),XX60        R.H.SIGN-PUT - IN PATTERN           57824021
 005210 D501 D874 C850 0893C 07DE0  7443          CLC   RPRINL(LX2),XC000    ANY R.H INSERTION CHARS             57832021
 005216 4780 915E      05226        7444        BC    EQ,RPSSG3             NO                                   57840021
 00521A 4830 D874      0893C        7445        LH    XR3,RPRINL            YES-UPDATE R.H.INSERTION COUNT       57848021
 00521E 4133 0001      00001        7446          LA    XR3,DX1(XR3)                                             57856021
 005222 4030 D874      0893C        7447        STH   XR3,RPRINL                                                 57864021
1         ARITHMETIC / MOVE / SUBSCRIPT  ROUTINES                                                               PAGE  170
-  LOC  OBJECT CODE    ADDR1 ADDR2  STMT   SOURCE STATEMENT                                       ASM 0201 11.03 02/14/15
0005226 1836                        7448 RPSSG3 LR    XR3,XR6                                                    57872021
 005228 5B30 CA68      07FF8        7449        S     XR3,ARPPTM                                                 57880021
 00522C 4030 D866      0892E        7450        STH   XR3,RPSGND            SAVE DISPLACEMENT FOR MVI            57888021
 005230 47F0 91B0      05278        7451        BC    UNCOND,RPSSG7         GO SAVE SIGN                         57896021
 005234 D200 6000 5000 00000 00000  7452 RPSSG4   MVC   DX0(LX1,XR6),DX0(XR5) LH SIGN OR 1ST FLT. PUT IN PATTE   57904021
                                    7453 *                                  JUST SO IT WILL SHOW IN LITERAL.     57912021
 00523A 4940 C3AE      0793E        7454        CH    XR4,XC001             CHK NO. OCCURRENCES                  57920021
 00523E 47D0 918C      05254        7455        BC    NOTHI,RPSSG5          ONE-L.H SIGN                         57928021
 005242 0640                        7456        BCTR  XR4,RW0                 1ST FLT. N-1 NOMERIC POSITIONS     57936021
 005244 4166 0001      00001        7457          LA    XR6,DX1(XR6)         UPDATE PATTERN POINTER              57944021
 005248 45E0 928A      05352        7458        BAL   XRSUB,RPSNM           DO PROCESSING FOR 1ST NUM CHARS      57952021
 00524C 9202 D859      08921        7459          MVI   RFLTIL+NX1,XX02      INDICATE FLT                        57960021
 005250 9601 D87B      08943        7460        OI    RPSTRS,MSWON          TURN ON STRING SWITCH                57968021
                                    7461 *                                                                       57976021
 005254 1836                        7462 RPSSG5 LR    XR3,XR6               LH SIGN                              57984021
 005256 5B30 CA68      07FF8        7463        S     XR3,ARPPTM                                                 57992021
 00525A D500 5000 A1D2 00000 001D2  7464          CLC   DX0(LX1,XR5),CURSGN       IS IT CURRENCY SIGN?           58000021
 005260 4770 91A8      05270        7465        BC    NOTEQ,RPSSG6          CHECK FOR PLUS OR MINUS              58008021
 005264 9204 D85D      08925        7466          MVI   RDOLIL+NX1,XX04      YES                                 58016021
 005268 4030 D86A      08932        7467          STH   XR3,RPDOLD              SAVE DISPL FOR MVI OF CURR SIGN  58024021
 00526C 47F0 903E      05106        7468        BC    UNCOND,RPSCAN         UPDATE POINTER TO PATTERN,SCAN       58032021
 005270 9204 D84D      08915        7469 RPSSG6   MVI   RSGNL1+NX1,XX04      PLUS OR MINUS                       58040021
 005274 4030 D866      0892E        7470        STH   XR3,RPSGND            SAVE DISPL FOR MVI                   58048021
 005278 D200 D87D 5000 08945 00000  7471 RPSSG7   MVC   RPSIGN(LX1),DX0(XR5)  SAVE SIGN                          58056021
 00527E 9208 D84F      08917        7472          MVI   RSGNL2+NX1,XX08      SET SWITCH FOR BC, MVI              58064021
 005282 47F0 903E      05106        7473        BC    UNCOND,RPSCAN         UPDATE POINTER TO PATTERN,SCAN       58072021
                                    7474 *                                                                       58080021
                                    7475 *      * OR Z                                                           58088021
                                    7476 *                                                                       58096021
 005286 9101 D87A      08942        7477 RPSSUP TM    RPNUMS,MSWON          IS IT FIRST NUMERIC CHAR             58104021
 00528A 4780 91CE      05296        7478        BC    ZERO,RPSSU1           YES                                  58112021
 00528E 45E0 9308      053D0        7479        BAL   XRSUB,RPPRP1          NO-PROPAGATE IN PATTERN              58120021
 005292 47F0 903E      05106        7480        BC    UNCOND,RPSCAN         UPDATE POINTER TO PATTERN,SCAN       58128021
 005296 955C 5000      00000        7481 RPSSU1   CLI   DX0(XR5),XX5C        IS IT *                             58136021
 00529A 4770 91DA      052A2        7482        BC    NOTEQ,RPSSU2          NO                                   58144021
 00529E 925C D7B6      0887E        7483          MVI   RPPAT,XX5C           YES-MAKE IT THE FILL CHAR           58152021
 0052A2 45E0 928A      05352        7484 RPSSU2 BAL   XRSUB,RPSNM           DO PROCESSING FOR 1ST NUM CHAR       58160021
 0052A6 9601 D87B      08943        7485        OI    RPSTRS,MSWON          TURN ON STRING SWITCH                58168021
 0052AA 47F0 903E      05106        7486        BC    UNCOND,RPSCAN         UPDATE POINTER TO PATTERN,SCAN       58176021
                                    7487 *                                                                       58184021
                                    7488 *      7 B OR 0                                                         58192021
                                    7489 *                                                                       58200021
 0052AE D200 D87C 5000 08944 00000  7490 RPSINS   MVC   RPCHAR,DX0(XR5)      SAVE CHARACTER                      58208021
 0052B4 45E0 9320      053E8        7491        BAL   XRSUB,RPPRP3          PROPAGATE IN PATTERN                 58216021
 0052B8 9101 D87A      08942        7492        TM    RPNUMS,MSWON          ANY NUMERIC CHARACTERS YET           58224021
 0052BC 4710 9206      052CE        7493        BC    ONES,RPSIN2           CHK IF ALL NUM CHARS SCANNED         58232021
 0052C0 4830 D872      0893A        7494 RPSIN1 LH    XR3,RPLINL            NO-UPDATE L.H. INS CHAR COUNT        58240021
 0052C4 1A34                        7495        AR    XR3,XR4                                                    58248021
 0052C6 4030 D872      0893A        7496        STH   XR3,RPLINL                                                 58256021
 0052CA 47F0 903E      05106        7497        BC    UNCOND,RPSCAN         UPDATE POINTER TO PATTERN,SCAN       58264021
 0052CE D501 D878 D534 08940 085FC  7498 RPSIN2   CLC   RPNMCT(LX2),X2FAS    YES-HAVE ALL NUM CHARS BEEN SCAN    58272021
 0052D4 4770 903E      05106        7499        BC    NOTEQ,RPSCAN          NO                                   58280021
 0052D8 4830 D874      0893C        7500 RPSIN3 LH    XR3,RPRINL            YES-UPDATE R.H. INS CHAR COUNT       58288021
 0052DC 1A34                        7501        AR    XR3,XR4                                                    58296021
 0052DE 4030 D874      0893C        7502        STH   XR3,RPRINL                                                 58304021
1         ARITHMETIC / MOVE / SUBSCRIPT  ROUTINES                                                               PAGE  171
-  LOC  OBJECT CODE    ADDR1 ADDR2  STMT   SOURCE STATEMENT                                       ASM 0201 11.03 02/14/15
00052E2 47F0 903E      05106        7503        BC    UNCOND,RPSCAN         UPDATE POINTER TO PATTERN,SCAN       58312021
                                    7504 *                                                                       58320021
                                    7505 *      .  (ACTUAL DECIMAL POINT)                                        58328021
                                    7506 *                                                                       58336021
 0052E6 1836                        7507 RPSDEC LR    XR3,XR6                                                    58344021
 0052E8 5B30 CA68      07FF8        7508        S     XR3,ARPPTM                                                 58352021
 0052EC 4030 D868      08930        7509        STH   XR3,RPDECD            SAVE DISPLACEMENT (FOR * WHEN ZE     58360021
 0052F0 D200 6000 5000 00000 00000  7510          MVC   DX0(LX1,XR6),DX0(XR5) PUT FUNCTIONAL DEC-PT IN PATTERN   58368021
 0052F6 9101 D87A      08942        7511        TM    RPNUMS,MSWON          ANY NUMERIC CHARACTERS YET           58376021
 0052FA 4780 91F8      052C0        7512        BC    ZERO,RPSIN1           NO-TREAT AS L.H. INS. CHAR.          58384021
 0052FE D501 D878 D534 08940 085FC  7513          CLC   RPNMCT(LX2),X2FAS    HAVE ALL NUM CHARS BEEN SCANNED     58392021
 005304 4780 9210      052D8        7514        BC    EQ,RPSIN3             YES                                  58400021
 005308 47F0 90C6      0518E        7515        BC    UNCOND,RPS9SD         NO-IF STRING GOING, SAME EFFECT      58408021
                                    7516 *                                                                       58416021
                                    7517 *      CR,DB                                                            58424021
                                    7518 *                                                                       58432021
 00530C D201 6000 5000 00000 00000  7519 RPSCRD   MVC   DX0(LX2,XR6),DX0(XR5) ENTER IN PATTERN                   58440021
 005312 D501 D874 C850 0893C 07DE0  7520          CLC   RPRINL(LX2),XC000    ANY R.H. INS CHARACTERS             58448021
 005318 4770 9260      05328        7521        BC    NOTEQ,RPCR1           YES-GO TREAT AS R.H.INS.             58456021
 00531C 9540 D7B6      0887E        7522          CLI   RPPAT,XX40           NO-IS BLANK THE FILL CHAR           58464021
 005320 4770 926C      05334        7523        BC    NOTEQ,RPCR2           NO-MVI,MVI REQUIRED                  58472021
 005324 47F0 9282      0534A        7524        BC    UNCOND,RPCR3          YES-GO UPDATE PATTERN PTR, EXIT      58480021
 005328 4830 D874      0893C        7525 RPCR1  LH    XR3,RPRINL            R.H.INS CHARS-UPDATE COUNT           58488021
 00532C 4133 0002      00002        7526          LA    XR3,DX2(XR3)                                             58496021
 005330 4030 D874      0893C        7527        STH   XR3,RPRINL                                                 58504021
 005334 1836                        7528 RPCR2  LR    XR3,XR6                                                    58512021
 005336 5B30 CA68      07FF8        7529        S     XR3,ARPPTM                                                 58520021
 00533A 4133 0001      00001        7530          LA    XR3,DX1(XR3)                                             58528021
 00533E 4030 D866      0892E        7531        STH   XR3,RPSGND            SAVE DISPLACEMENT FOR MVI'S          58536021
 005342 9208 D84F      08917        7532          MVI   RSGNL2+NX1,XX08      SET SWITCHES FOR BC, MVI, MVI       58544021
 005346 9204 D851      08919        7533          MVI   RSGNL3+NX1,XX04                                          58552021
 00534A 4166 0002      00002        7534 RPCR3    LA    XR6,DX2(XR6)                                             58560021
 00534E 47F0 933E      05406        7535        BC    UNCOND,RPLNTH         MUST BE LAST CHAR-SCAN FINISHED      58568021
                                    7536 *                                                                       58576021
                                    7537 * ROUTINE FOR FIRST NUMERIC CHARACTER   (9,*,Z, FLOATING $,+,-)         58584021
                                    7538 *                                                                       58592021
 005352 50E0 D888      08950        7539 RPSNM  ST    XRSUB,RPSNSV                                               58600021
 005356 9601 D87A      08942        7540        OI    RPNUMS,MSWON          INDICATE NUMERIC CHARACTER SCANN     58608021
 00535A D501 D872 C850 0893A 07DE0  7541          CLC   RPLINL(LX2),XC000    ANY L.H. INSERTION CHARACTERS       58616021
 005360 4780 92F8      053C0        7542        BC    EQ,RPSNM3             NO-GO PROPAGATE                      58624021
 005364 4830 D872      0893A        7543        LH    XR3,RPLINL            YES-                                 58632021
 005368 9500 D85D      08925        7544          CLI   RDOLIL+NX1,XX00     DOES FIXED CURR SIGN PRECEDE...      58640021
 00536C 4770 92B0      05378        7545        BNE   RPSNMA               YES                                   58648021
 005370 9500 D84D      08915        7546          CLI   RSGNL1+NX1,XX00     NO, DOES FIXED + OR - PRECEDE        58656021
 005374 4780 92B8      05380        7547        BE    RPSNM0               NO                                    58664021
 005378 4133 0001      00001        7548 RPSNMA   LA    XR3,DX1(XR3)        YES,ADD TO LEFT HND INSERTN COUNT    58672021
 00537C 4030 D872      0893A        7549          STH   XR3,RPLINL                                               58680021
 005380 0630                        7550 RPSNM0   BCTR  XR3,RW0             SUBTRACT 1 FROM REG3                 58688021
 005382 4120 D7B6      0887E        7551        LA    XR2,RPPAT                                                  58696021
 005386 4A20 D876      0893E        7552        AH    XR2,RPEVNL                                                 58704021
 00538A 4310 D7B6      0887E        7553        IC    XR1,RPPAT             SAVE FILL                            58712021
 00538E 4430 9302      053CA        7554        EX    XR3,RPMVIN            MOVE INS CHARS TO LEFT OF FILL       58720021
 005392 4A20 D872      0893A        7555        AH    XR2,RPLINL                                                 58728021
 005396 9220 2000      00000        7556          MVI   DX0(XR2),XX20        ENTER DIGIT SELECT FOR LDG ZERO.    58736021
 00539A 4B20 D876      0893E        7557        SH    XR2,RPEVNL            IF NO LDG ZERO, RPEVNL=0, AND FI     58744021
1         ARITHMETIC / MOVE / SUBSCRIPT  ROUTINES                                                               PAGE  172
-  LOC  OBJECT CODE    ADDR1 ADDR2  STMT   SOURCE STATEMENT                                       ASM 0201 11.03 02/14/15
000539E 4212 0000      00000        7558          STC   XR1,DX0(XR2)         OVERLAYS.  OTHERWISE,FILL PRECED    58752021
 0053A2 4130 0003      00003        7559          LA    XR3,DX3                                                  58760021
 0053A6 4120 0000      00000        7560          LA    XR2,DX0                                                  58768021
                                    7561 *                                 DECREMENT DISPLACEMENTS BY AMT        58776021
                                    7562 *                                 INSERTION CHARS WERE SHIFTED          58784021
                                    7563 *                                 (1+RPEVNL)                            58792021
 0053AA 4812 D866      0892E        7564 RPSNM2 LH    XR1,RPSGND(XR2)                                            58800021
 0053AE 0610                        7565        BCTR  XR1,XR0               SUBTRACT 1 FROM REG1                 58808021
 0053B0 4B10 D876      0893E        7566        SH    XR1,RPEVNL                                                 58816021
 0053B4 4012 D866      0892E        7567        STH   XR1,RPSGND(XR2)                                            58824021
 0053B8 4122 0002      00002        7568          LA    XR2,DX2(XR2)                                             58832021
 0053BC 4630 92E2      053AA        7569        BCT   XR3,RPSNM2           IF MORE FIELDS GO CHECK               58840021
 0053C0 45E0 9308      053D0        7570 RPSNM3 BAL   XRSUB,RPPRP1          PROPAGATE DIG SELECT IN PATTERN      58848021
 0053C4 58E0 D888      08950        7571        L     XRSUB,RPSNSV                                               58856021
 0053C8 07FE                        7572        BCR   UNCOND,XRSUB          EXIT                                 58864021
 0053CA D200 D7B6 2001 0887E 00001  7573 RPMVIN   MVC   RPPAT(LX1),DX1(XR2)   EXECUTED MOVE OF L.H. INS CHARS    58872021
                                    7574 *                                                                       58880021
                                    7575 * ROUTINE TO PROPAGATE CHARACTERS IN EDIT PATTERN                       58888021
                                    7576 *                                                                       58896021
 0053D0 1834                        7577 RPPRP1 LR    XR3,XR4               ENTRY PT. FOR 1ST NUM CHAR-GET C     58904021
 0053D2 1A36                        7578        AR    XR3,XR6               ADD ADDR OF CURRENT PATTERN BYTE     58912021
 0053D4 0630                        7579        BCTR  XR3,RW0                 LESS 1                             58920021
 0053D6 5030 D884      0894C        7580        ST    XR3,RPLSTN            SAVE AS ADDR OF LAST NUM POSITIO     58928021
 0053DA 9220 D87C      08944        7581 RPPRP2   MVI   RPCHAR,XX20          ENTRY/NON-1ST NUM. PROP. DIG. SE    58936021
 0053DE 4830 D878      08940        7582        LH    XR3,RPNMCT                                                 58944021
 0053E2 1A34                        7583        AR    XR3,XR4                                                    58952021
 0053E4 4030 D878      08940        7584        STH   XR3,RPNMCT            UPDATE COUNT OF NUMERIC POSITION     58960021
 0053E8 D200 6000 D87C 00000 08944  7585 RPPRP3   MVC   DX0(LX1,XR6),RPCHAR   NON-NUM ENTRY PT. MV CHAR TO PAT   58968021
 0053EE 1834                        7586        LR    XR3,XR4                                                    58976021
 0053F0 4930 C3AE      0793E        7587        CH    XR3,XC001                                                  58984021
 0053F4 07DE                        7588        BCR   NOTHI,XRSUB           EXIT                                 58992021
 0053F6 4B30 C3B2      07942        7589        SH    XR3,XC002                                                  59000021
 0053FA 4430 9338      05400        7590        EX    XR3,RPPRMV            MORE THAN ONE-PROPAGATE IT           59008021
 0053FE 07FE                        7591        BCR   UNCOND,XRSUB          EXIT                                 59016021
 005400 D200 6001 6000 00001 00000  7592 RPPRMV   MVC   DX1(LX1,XR6),DX0(XR6) EXECUTED MOVE TO PROPAGATE CHAR    59024021
                                    7593 *                                                                       59032021
                                    7594 * CALCULATE INSTRUCTION LENGTHS AND OTHER REQUIRED PARAMETERS           59040021
                                    7595 *                                                                       59048021
 005406 0660                        7596 RPLNTH BCTR  XR6,RW0               SUBTRACT 1 FROM REG6                 59056021
 005408 5B60 CA68      07FF8        7597        S     XR6,ARPPTM                                                 59064021
 00540C 4060 D864      0892C        7598        STH   XR6,RPTS2D            SAVE PATTERN DISPL AS TS2 DISPL      59072021
 005410 4860 D84C      08914        7599        LH    XR6,RSGNL1            COMPUTE SIGN INSTRUCTION LENGTHS     59080021
 005414 4A60 D84E      08916        7600        AH    XR6,RSGNL2                                                 59088021
 005418 4A60 D850      08918        7601        AH    XR6,RSGNL3                                                 59096021
 00541C 4060 D85A      08922        7602        STH   XR6,RSGNIL                                                 59104021
 005420 4860 D852      0891A        7603        LH    XR6,RINSL1            COMPUTE INSERTION-FILLING INSTR      59112021
 005424 4A60 D854      0891C        7604        AH    XR6,RINSL2                                                 59120021
 005428 4060 D85E      08926        7605        STH   XR6,RINSIL                                                 59128021
 00542C 9180 D741      08809        7606          TM    DOP2+NX9,XX80        IS BLANK WHEN ZERO INDICATED        59136021
 005430 4780 9374      0543C        7607        BC    ZERO,RPLTH1           NO                                   59144021
 005434 9240 D87E      08946        7608          MVI   RPBCHR,XX40          YES-SAVE BLANK AS IMMED. VALUE      59152021
 005438 47F0 938E      05456        7609        BC    UNCOND,RPLTH2         GEN BC AND MVI ATXT INSTRUCS         59160021
 00543C 9140 D741      08809        7610 RPLTH1   TM    DOP2+NX9,XX40        IS ASTERISK WHEN ZERO INDICATED     59168021
 005440 4780 93D6      0549E        7611        BC    ZERO,RPLTH5           NO                                   59176021
 005444 925C D87E      08946        7612          MVI   RPBCHR,XX5C          YES-SAVE * AS IMMED. VALUE          59184021
1         ARITHMETIC / MOVE / SUBSCRIPT  ROUTINES                                                               PAGE  173
-  LOC  OBJECT CODE    ADDR1 ADDR2  STMT   SOURCE STATEMENT                                       ASM 0201 11.03 02/14/15
0005448 D501 D868 C850 08930 07DE0  7613          CLC   RPDECD(LX2),XC000    ANY DECIMAL PT.                     59192021
 00544E 4780 938E      05456        7614        BC    EQ,RPLTH2             NO                                   59200021
 005452 9204 D849      08911        7615          MVI   RBWZL3+NX1,XX04      YES-INSTR TO RESTORE REQUIRED       59208021
 005456 9208 D845      0890D        7616 RPLTH2   MVI   RBWZL1+NX1,XX08      BC,MVI                              59216021
 00545A 4860 D864      0892C        7617        LH    XR6,RPTS2D                                                 59224021
 00545E 4B60 D876      0893E        7618        SH    XR6,RPEVNL                                                 59232021
 005462 4960 C3B2      07942        7619        CH    XR6,XC002             IS THERE MORE THAN 1 BYTE TO FIL     59240021
 005466 47D0 93A6      0546E        7620        BC    NOTHI,RPLTH3          NO                                   59248021
 00546A 9206 D847      0890F        7621          MVI   RBWZL2+NX1,XX06      YES- MVC REQUIRED                   59256021
 00546E 4860 D858      08920        7622 RPLTH3 LH    XR6,RFLTIL                                                 59264021
 005472 4A60 D85A      08922        7623        AH    XR6,RSGNIL                                                 59272021
 005476 4A60 D85C      08924        7624        AH    XR6,RDOLIL                                                 59280021
 00547A 4A60 D85E      08926        7625        AH    XR6,RINSIL                                                 59288021
 00547E 4960 C850      07DE0        7626        CH    XR6,XC000             WILL ANY EDITING INSTRUCTIONS FO     59296021
 005482 4780 93C2      0548A        7627        BC    EQ,RPLTH4             NO                                   59304021
 005486 9204 D84B      08913        7628          MVI   RBWZL4+NX1,XX04      YES-BRANCH AROUND REQUIRED          59312021
 00548A 4850 D844      0890C        7629 RPLTH4 LH    XR5,RBWZL1            NOW CALCULATE BWZ INSTR LENGTHS      59320021
 00548E 4A50 D846      0890E        7630        AH    XR5,RBWZL2                                                 59328021
 005492 4A50 D848      08910        7631        AH    XR5,RBWZL3                                                 59336021
 005496 4A50 D84A      08912        7632        AH    XR5,RBWZL4                                                 59344021
 00549A 4050 D856      0891E        7633        STH   XR5,RBWZIL                                                 59352021
 00549E 4860 D858      08920        7634 RPLTH5 LH    XR6,RFLTIL            COMPUTE TOTAL LENGTH OF EDITING      59360021
 0054A2 4A60 D85A      08922        7635        AH    XR6,RSGNIL            INSTRUCTIONS FOLLOWING BALR          59368021
 0054A6 4A60 D85C      08924        7636        AH    XR6,RDOLIL                                                 59376021
 0054AA 4A60 D85E      08926        7637        AH    XR6,RINSIL                                                 59384021
 0054AE 4A60 D856      0891E        7638        AH    XR6,RBWZIL                                                 59392021
 0054B2 4060 D860      08928        7639        STH   XR6,RPTOTL                                                 59400021
                                    7640 *                                                                       59408021
                                    7641 * GENERATE INSTRUCTIONS                                                 59416021
                                    7642 *                                                                       59424021
 0054B6 91D0 D505      085CD        7643          TM    X1IRX+NX1,XZGNLT    IS SOURCE FIELD A LITERAL...         59432021
 0054BA 4770 9408      054D0        7644        BC    NOTEQ,RPGMVS          YES                                  59440021
 0054BE 9500 D501      085C9        7645          CLI   X1TEL+NX1,XX00       NO-IS DATA NAME IN TS               59448021
 0054C2 4770 9408      054D0        7646        BC    NOTZER,RPGMVS         YES                                  59456021
 0054C6 D501 D4FC D534 085C4 085FC  7647          CLC   X1FAS(LX2),X2FAS     NO-IS SOURCE SHORTER                59464021
 0054CC 4780 9432      054FA        7648        BC    EQ,RPGMVP             NO                                   59472021
 0054D0 4860 D534      085FC        7649 RPGMVS LH    XR6,X2FAS             YES                                  59480021
 0054D4 8A60 0001      00001        7650          SRA   XR6,DX1                                                  59488021
 0054D8 4166 0001      00001        7651          LA    XR6,DX1(XR6)                                             59496021
 0054DC 4260 D485      0854D        7652        STC   XR6,XYLEN             XR6 HAS NO.BYTES FOR ID NUMBER       59504021
 0054E0 4130 D4E8      085B0        7653        LA    XR3,X1VAL                                                  59512021
 0054E4 45E0 7CFE      00CFE        7654        BAL   XRSUB,XYOAF           GEN. MOVE TO TS, IF NOT DONE         59520021
 0054E8 4850 D446      0850E        7655        LH    XR5,XEREL1                                                 59528021
 0054EC 4A50 D442      0850A        7656        AH    XR5,XYTEL                                                  59536021
 0054F0 1B56                        7657        SR    XR5,XR6                                                    59544021
 0054F2 4050 D862      0892A        7658        STH   XR5,RPIDD             SAVE DISPLACEMENT IN TS              59552021
 0054F6 9601 D87F      08947        7659        OI    RTSEDS,MSWON          INDICATE EDIT SOURCE IS TS           59560021
                                    7660 *                                                                       59568021
 0054FA 9230 D178      08240        7661 RPGMVP   MVI   XCNTR1,XX30                                              59576021
 0054FE 9201 D17A      08242        7662          MVI   XCNTR1+NX2,XX01                                          59584021
 005502 D203 D138 C8D0 08200 07E60  7663          MVC   XOP1(LX4),XAOPE3                                         59592021
 005508 4860 D864      0892C        7664        LH    XR6,RPTS2D                                                 59600021
 00550C 4060 D148      08210        7665        STH   XR6,XL1                                                    59608021
 005510 4260 D7B5      0887D        7666          STC   XR6,DOP3+NX1                                             59616021
 005514 9234 D7B4      0887C        7667          MVI   DOP3,XX34                                                59624021
1         ARITHMETIC / MOVE / SUBSCRIPT  ROUTINES                                                               PAGE  174
-  LOC  OBJECT CODE    ADDR1 ADDR2  STMT   SOURCE STATEMENT                                       ASM 0201 11.03 02/14/15
0005518 45E0 B18C      0181C        7668        BAL   XRSUB,MVC             MVC   TS2(RPTS2D),=PATTERN           59632021
                                    7669 *                                                                       59640021
 00551C D501 D86C C850 08934 07DE0  7670          CLC   RPLAD(LX2),XC000     WAS DISPL SAVED FOR LA              59648021
 005522 4780 947C      05544        7671        BC    EQ,RPGED              NO (NON-FLT OR NO SIG STRT IN PA     59656021
 005526 9201 D48A      08552        7672          MVI   XREGNO,XX01                                              59664021
 00552A 45E0 838A      011BA        7673        BAL   XRSUB,XFREER          FREE REG1                            59672021
 00552E 9201 D188      08250        7674          MVI   XREG1,XX01                                               59680021
 005532 9230 D178      08240        7675          MVI   XCNTR1,XX30                                              59688021
 005536 D201 D179 D86C 08241 08934  7676          MVC   XCNTR1+NX1(LX2),RPLAD                                    59696021
 00553C 45E0 BBDE      0226E        7677        BAL   XRSUB,LA              LA    1,C(RPLAD)                     59704021
 005540 47F0 948C      05554        7678        BC    UNCOND,RPGED3         CHECK IF SOURCE IN TS                59712021
                                    7679 *                                                                       59720021
 005544 9500 D859      08921        7680 RPGED    CLI   RFLTIL+NX1,XX00     IS IT FLOAT                     1    59728021
 005548 4780 948C      05554        7681        BC    EQ,RPGED3             NO, BRANCH                     1     59736021
 00554C 9201 D48A      08552        7682          MVI   XREGNO,XX01         STORE REG1 WHICH IS USED IN     1    59744021
 005550 45E0 838A      011BA        7683        BAL   XRSUB,XFREER         EDMK INSTRUCTION                1     59752021
 005554 9101 D87F      08947        7684 RPGED3 TM    RTSEDS,MSWON         IS SOURCE IN TS                       59760021
 005558 4780 949E      05566        7685        BC    ZERO,RPGED1           NO,SKIP NXT 2 INSTRUCS               59768021
 00555C D201 D192 D862 0825A 0892A  7686          MVC   XWC2(LX2),RPIDD      YES                                 59776021
 005562 47F0 94A4      0556C        7687        BC    UNCOND,RPGED2         SKIP NXT INSTRUC IF DNM IN TS        59784021
 005566 D203 D138 C8C8 08200 07E58  7688 RPGED1   MVC   XOP1(LX4),XAOPE1     NO-SOURCE IS DATA-NAME IN DOP1      59792021
 00556C 9230 D178      08240        7689 RPGED2   MVI   XCNTR1,XX30                                              59800021
 005570 4860 D872      0893A        7690        LH    XR6,RPLINL                                                 59808021
 005574 4166 0001      00001        7691          LA    XR6,DX1(XR6)         DISPL OF FILL CHAR IN IS2 = 1+RP    59816021
 005578 4260 D17A      08242        7692          STC   XR6,XCNTR1+NX2                                           59824021
 00557C 4860 D864      0892C        7693        LH    XR6,RPTS2D                                                 59832021
 005580 4B60 D872      0893A        7694        SH    XR6,RPLINL                                                 59840021
 005584 4B60 D874      0893C        7695        SH    XR6,RPRINL                                                 59848021
 005588 4060 D148      08210        7696        STH   XR6,XL1               EDIT LNTH = RPTS2D-RPLINL-RPRINL     59856021
 00558C 9500 D859      08921        7697          CLI   RFLTIL+NX1,XX00      IS IT FLOAT                         59864021
 005590 4770 94D4      0559C        7698        BC    NOTEQ,RPGEDM          GEN ATXT FOR EDMK INSTRUC            59872021
 005594 45E0 BB9E      0222E        7699        BAL   XRSUB,EDIT            NO-GENERATE EDIT                     59880021
 005598 47F0 94D8      055A0        7700        BC    UNCOND,RPGBLR         GEN BALR 3,0 AND PROC FURTHER        59888021
 00559C 45E0 BBA6      02236        7701 RPGEDM BAL   XRSUB,EDMARK          YES-GENERATE EDMARK                  59896021
                                    7702 *                                                                       59904021
 0055A0 4860 D856      0891E        7703 RPGBLR LH    XR6,RBWZIL                                                 59912021
 0055A4 4A60 D85A      08922        7704        AH    XR6,RSGNIL                                                 59920021
 0055A8 4A60 D85E      08926        7705        AH    XR6,RINSIL                                                 59928021
 0055AC 4960 C3BA      0794A        7706        CH    XR6,XC004             ANY BRANCHES REQUIRING BASE          59936021
 0055B0 47D0 95AA      05672        7707        BC    NOTHI,RPGBCT          NO                                   59944021
 0055B4 9203 D48A      08552        7708          MVI   XREGNO,XX03          YES                                 59952021
 0055B8 45E0 838A      011BA        7709        BAL   XRSUB,XFREER          FREE REG3 FOR BALR                   59960021
 0055BC 9203 D188      08250        7710          MVI   XREG1,XX03                                               59968021
 0055C0 45E0 BC7A      0230A        7711        BAL   XRSUB,BALR            BALR  3,0                            59976021
                                    7712 *                                                                       59984021
 0055C4 D501 D844 C850 0890C 07DE0  7713          CLC   RBWZL1(LX2),XC000                                        59992021
 0055CA 4780 95AA      05672        7714        BC    EQ,RPGBCT             IF EDMK GENED,GEN BCTR ATXT          60000021
 0055CE D200 D14F D857 08217 0891F  7715          MVC   BDISP1+NX1(LX1),RBWZIL+NX1                               60008021
 0055D4 9230 D14E      08216        7716          MVI   BDISP1,XX30                                              60016021
 0055D8 9207 D188      08250        7717        MVI   XREG1,NOTZER                                               60024021
 0055DC 45E0 BC10      022A0        7718        BAL   XRSUB,BRANCH          BC    NOTZER,C(RBWZIL)(3)            60032021
                                    7719 *                                                                       60040021
                                    7720 *                                                                       60048021
                                    7721 * IF RPLINL NOT = 0      MVI  TS2-1,C' '                                60056021
                                    7722 *                        MVC  TS2-2 (RPTS2D-1),TS2-1                    60064021
1         ARITHMETIC / MOVE / SUBSCRIPT  ROUTINES                                                               PAGE  175
-  LOC  OBJECT CODE    ADDR1 ADDR2  STMT   SOURCE STATEMENT                                       ASM 0201 11.03 02/14/15
0                                   7723 *                                                                       60072021
                                    7724 * IF RPLINL = 0          MVI  TS2-N,C' '                                60080021
                                    7725 *                        MVC  TS2-N+1(RPTS2D-N),TS2-N                   60088021
                                    7726 *                                                                       60096021
                                    7727 *                             WHERE N = 2+RPEVNL                        60104021
                                    7728 *                                                                       60112021
 0055E0 1B66                        7729        SR    XR6,XR6                                                    60120021
 0055E2 D501 D872 C850 0893A 07DE0  7730          CLC   RPLINL(LX2),XC000                                        60128021
 0055E8 4770 952C      055F4        7731        BC    NOTZER,RPGBW1         CNT OF LFT HND CHARS NOTZER,SKP      60136021
 0055EC 4860 D876      0893E        7732        LH    XR6,RPEVNL                                                 60144021
 0055F0 4166 0001      00001        7733          LA    XR6,DX1(XR6)                                             60152021
 0055F4 9230 D178      08240        7734 RPGBW1   MVI   XCNTR1,XX30                                              60160021
 0055F8 4156 0001      00001        7735          LA    XR5,DX1(XR6)                                             60168021
 0055FC 4250 D17A      08242        7736          STC   XR5,XCNTR1+NX2                                           60176021
 005600 D200 D189 D87E 08251 08946  7737          MVC   IMM(LX1),RPBCHR                                          60184021
 005606 45E0 BB1E      021AE        7738        BAL   XRSUB,MVI             GEN ATXT FOR MVI INSTRUC             60192021
                                    7739 *                                                                       60200021
 00560A D501 D846 C850 0890E 07DE0  7740          CLC   RBWZL2(LX2),XC000    IS MVC REQUIRED                     60208021
 005610 4780 96FE      057C6        7741        BC    EQ,RPGMVT             NO                                   60216021
 005614 9230 D178      08240        7742          MVI   XCNTR1,XX30          YES                                 60224021
 005618 9230 D1C0      08288        7743          MVI   XCNTR2,XX30                                              60232021
 00561C 4250 D1C2      0828A        7744          STC   XR5,XCNTR2+NX2                                           60240021
 005620 4840 D864      0892C        7745        LH    XR4,RPTS2D                                                 60248021
 005624 0640                        7746        BCTR  XR4,RW0               SUBTRACT 1 FROM REG4                 60256021
 005626 1B46                        7747        SR    XR4,XR6                                                    60264021
 005628 4040 D148      08210        7748        STH   XR4,XL1                                                    60272021
 00562C 4155 0001      00001        7749          LA    XR5,DX1(XR5)                                             60280021
 005630 4250 D17A      08242        7750          STC   XR5,XCNTR1+NX2                                           60288021
 005634 45E0 B18C      0181C        7751        BAL   XRSUB,MVC             GEN ATXT FOR MVC INSTRUC             60296021
 005638 D501 D848 C850 08910 07DE0  7752          CLC   RBWZL3(LX2),XC000    IS IT * WHEN ZERO WITH DEC. PT.     60304021
 00563E 4780 958E      05656        7753        BC    EQ,RPGBW4             NO                                   60312021
 005642 9230 D178      08240        7754          MVI   XCNTR1,XX30          YES                                 60320021
 005646 D200 D17A D869 08242 08931  7755          MVC   XCNTR1+NX2(LX1),RPDECD+NX1                               60328021
 00564C D200 D189 A1C5 08251 001C5  7756          MVC   IMM(LX1),COMMAD+NX1                                      60336021
 005652 45E0 BB1E      021AE        7757        BAL   XRSUB,MVI             MVI RPDECD,C'.'                      60344021
                                    7758 *                                                                       60352021
 005656 D501 D84A C850 08912 07DE0  7759 RPGBW4   CLC   RBWZL4(LX2),XC000    IS BR AROUND FOLLOWING INSTRS NE    60360021
 00565C 4780 95AA      05672        7760        BC    EQ,RPGBCT             NO                                   60368021
 005660 D200 D14F D861 08217 08929  7761          MVC   BDISP1+NX1(LX1),RPTOTL+NX1 YES                           60376021
 005666 9230 D14E      08216        7762          MVI   BDISP1,XX30                                              60384021
 00566A 920F D188      08250        7763        MVI   XREG1,UNCOND                                               60392021
 00566E 45E0 BC10      022A0        7764        BAL   XRSUB,BRANCH          BC    UNCOND,RPTOTL(3)               60400021
                                    7765 *                                                                       60408021
 005672 9500 D859      08921        7766 RPGBCT   CLI   RFLTIL+NX1,XX00      WAS EDMARK GENERATED                60416021
 005676 4780 95BA      05682        7767        BC    EQ,RPGSG1             NO-GO CHECK IF SIGN INSTRUCTIONS     60424021
 00567A 9201 D188      08250        7768          MVI   XREG1,XX01           YES                                 60432021
 00567E 45E0 BC96      02326        7769        BAL   XRSUB,BCTR            BCTR  1,0                            60440021
                                    7770 *                                                                       60448021
 005682 9500 D84D      08915        7771 RPGSG1   CLI   RSGNL1+NX1,XX00      IS THERE LEFT HAND + OR -           60456021
 005686 4780 95E4      056AC        7772        BC    EQ,RPGSG4             NO                                   60464021
 00568A 9500 D859      08921        7773          CLI   RFLTIL+NX1,XX00      YES-IS THERE FLOATING STRING        60472021
 00568E 4780 95D2      0569A        7774        BC    EQ,RPGSG2             NO-MUST BE LEFT HAND FIXED SIGN      60480021
 005692 9210 D14E      08216        7775          MVI   BDISP1,XX10          YES-MAKE TARGET 0(1)                60488021
 005696 47F0 95DC      056A4        7776        BC    UNCOND,RPGSG3         GEN ATXT FOR MVI INSTRUC             60496021
 00569A 9230 D178      08240        7777 RPGSG2   MVI   XCNTR1,XX30          LEFT HAND FIXED SIGN                60504021
1         ARITHMETIC / MOVE / SUBSCRIPT  ROUTINES                                                               PAGE  176
-  LOC  OBJECT CODE    ADDR1 ADDR2  STMT   SOURCE STATEMENT                                       ASM 0201 11.03 02/14/15
000569E D200 D17A D867 08242 0892F  7778          MVC   XCNTR1+NX2(LX1),RPSGND+NX1                               60512021
 0056A4 9260 D189      08251        7779 RPGSG3   MVI   IMM,XX60                                                 60520021
 0056A8 45E0 BB1E      021AE        7780        BAL   XRSUB,MVI             MVI   RPSGND,C'-' OR MVI   0(1),     60528021
 0056AC 9500 D84F      08917        7781 RPGSG4   CLI   RSGNL2+NX1,XX00      ANY FURTHER SIGN INSTRUCTIONS       60536021
 0056B0 4780 965C      05724        7782          BE    RPGDOL                  NO, GO CHECK IF CURRENCY SIGN    60544021
 0056B4 9230 D14E      08216        7783          MVI   BDISP1,XX30          YES                                 60552021
 0056B8 4860 D856      0891E        7784        LH    XR6,RBWZIL                                                 60560021
 0056BC 4A60 D858      08920        7785        AH    XR6,RFLTIL                                                 60568021
 0056C0 4A60 D85A      08922        7786        AH    XR6,RSGNIL                                                 60576021
 0056C4 4260 D14F      08217        7787          STC   XR6,BDISP1+NX1                                           60584021
 0056C8 9204 D188      08250        7788        MVI   XREG1,NEG                                                  60592021
 0056CC 45E0 BC10      022A0        7789        BAL   XRSUB,BRANCH          BC    NEG,RBWZIL+RFLTIL+RSGNIL(3     60600021
 0056D0 9500 D859      08921        7790          CLI   RFLTIL+NX1,XX00      IS IT FLOAT                         60608021
 0056D4 4780 9620      056E8        7791        BC    EQ,RPGSG5             NO                                   60616021
 0056D8 9500 D85D      08925        7792          CLI   RDOLIL+NX1,XX00          IS IT FLOATING CURRENCY SIGN?   60624021
 0056DC 4770 9620      056E8        7793        BC    NOTEQ,RPGSG5              YES                              60632021
 0056E0 9210 D14E      08216        7794          MVI   BDISP1,XX10           NO MUST BE FLOATING + OR -         60640021
 0056E4 47F0 962A      056F2        7795        BC    UNCOND,RPGSG6         GEN MVI WITH + OR BLANK              60648021
 0056E8 9230 D178      08240        7796 RPGSG5   MVI   XCNTR1,XX30                                              60656021
 0056EC D200 D17A D867 08242 0892F  7797          MVC   XCNTR1+NX2(LX1),RPSGND+NX1                               60664021
 0056F2 924E D189      08251        7798 RPGSG6   MVI   IMM,XX4E                                                 60672021
 0056F6 954E D87D      08945        7799          CLI   RPSIGN,XX4E                                              60680021
 0056FA 4780 963A      05702        7800        BC    EQ,RPGSG7             GEN ATXT FOR MVI INSTRUC             60688021
 0056FE 9240 D189      08251        7801          MVI   IMM,XX40             IF MINUS, MAKE IMMED. DATA A BLA    60696021
 005702 45E0 BB1E      021AE        7802 RPGSG7 BAL   XRSUB,MVI             MVI   RPSGND,IMM  OR  MVI   0(1)     60704021
 005706 9500 D851      08919        7803          CLI   RSGNL3+NX1,XX00      IS IT CR OR DB AFTER R.H. INS CH    60712021
 00570A 4780 965C      05724        7804        BC    EQ,RPGDOL             NO                                   60720021
 00570E 9230 D178      08240        7805          MVI   XCNTR1,XX30          YES-SINCE FOR CR AND DB RPSGND I    60728021
 005712 4860 D866      0892E        7806        LH    XR6,RPSGND            SET TO SECOND LETTER, DECREMENT      60736021
 005716 0660                        7807        BCTR  XR6,RW0                 BY 1 FOR MVI TO BLANK FIRST LE     60744021
 005718 4260 D17A      08242        7808          STC   XR6,XCNTR1+NX2                                           60752021
 00571C 9240 D189      08251        7809          MVI   IMM,XX40                                                 60760021
 005720 45E0 BB1E      021AE        7810        BAL   XRSUB,MVI             MVI   RPSGND-1,C' '                  60768021
                                    7811 *                                                                       60776021
 005724 9500 D85D      08925        7812 RPGDOL   CLI   RDOLIL+NX1,XX00          IS CURR SIGN INSERTION REQUIRED 60784021
 005728 4780 9688      05750        7813        BC    EQ,RPGINS             NO                                   60792021
 00572C 9500 D859      08921        7814          CLI   RFLTIL+NX1,XX00          IS IT FLOATING CURRENCY SIGN?   60800021
 005730 4780 9674      0573C        7815        BC    EQ,RPGDO1             NO                                   60808021
 005734 9210 D14E      08216        7816          MVI   BDISP1,XX10          YES-MAKE TARGET 0(1)                60816021
 005738 47F0 967E      05746        7817        BC    UNCOND,RPGDO2         GEN MVI FOR $                        60824021
 00573C 9230 D178      08240        7818 RPGDO1   MVI   XCNTR1,XX30                                              60832021
 005740 D200 D17A D86B 08242 08933  7819          MVC   XCNTR1+NX2(LX1),RPDOLD+NX1                               60840021
 005746 D200 D189 A1D2 08251 001D2  7820 RPGDO2   MVC   IMM,CURSGN                                               60848021
 00574C 45E0 BB1E      021AE        7821        BAL   XRSUB,MVI             MVI   RPDOLD,C'$'-OR-MVI   0(1),     60856021
                                    7822 *                                                                       60864021
 005750 D501 D85E C850 08926 07DE0  7823 RPGINS   CLC   RINSIL(LX2),XC000    ANY INSERTION CHARS TO FILL         60872021
 005756 4780 96FE      057C6        7824        BC    EQ,RPGMVT             NO-GO GENERATE FINAL MOVE(S)         60880021
 00575A 9230 D178      08240        7825          MVI   XCNTR1,XX30          YES                                 60888021
 00575E D200 D17A D86F 08242 08937  7826          MVC   XCNTR1+NX2(LX1),RPLSTD+NX1                               60896021
 005764 92F0 D189      08251        7827          MVI   IMM,XXF0                                                 60904021
 005768 45E0 BB46      021D6        7828        BAL   XRSUB,TM              TM    RPLSTD,X'F0'                   60912021
                                    7829 *                                                                       60920021
 00576C 9230 D14E      08216        7830          MVI   BDISP1,XX30                                              60928021
 005770 D200 D14F D861 08217 08929  7831          MVC   BDISP1+NX1(LX1),RPTOTL+NX1                               60936021
 005776 9201 D188      08250        7832        MVI   XREG1,ONES                                                 60944021
1         ARITHMETIC / MOVE / SUBSCRIPT  ROUTINES                                                               PAGE  177
-  LOC  OBJECT CODE    ADDR1 ADDR2  STMT   SOURCE STATEMENT                                       ASM 0201 11.03 02/14/15
000577A 45E0 BC10      022A0        7833        BAL   XRSUB,BRANCH          BC    ONES,RPTOTL(3)                 60952021
                                    7834 *                                                                       60960021
 00577E 9230 D178      08240        7835          MVI   XCNTR1,XX30                                              60968021
 005782 4860 D86E      08936        7836        LH    XR6,RPLSTD                                                 60976021
 005786 4166 0001      00001        7837          LA    XR6,DX1(XR6)                                             60984021
 00578A 4260 D17A      08242        7838          STC   XR6,XCNTR1+NX2                                           60992021
 00578E 4150 D7B6      0887E        7839        LA    XR5,RPPAT                                                  61000021
 005792 4A50 D872      0893A        7840        AH    XR5,RPLINL                                                 61008021
 005796 D200 D189 5000 08251 00000  7841          MVC   IMM(LX1),DX0(XR5)     FILL CHARACTER IS IMMED. DATA      61016021
 00579C 45E0 BB1E      021AE        7842        BAL   XRSUB,MVI             MVI   RPLSTD+1,IMM                   61024021
                                    7843 *                                                                       61032021
 0057A0 9500 D855      0891D        7844          CLI   RINSL2+NX1,XX00      WAS THERE MORE THAN 1 BYTE TO FI    61040021
 0057A4 4780 96FE      057C6        7845        BC    EQ,RPGMVT             NO                                   61048021
 0057A8 9230 D1C0      08288        7846          MVI   XCNTR2,XX30          YES-GENERATE MVC TO PROPAGATE FI    61056021
 0057AC 4260 D1C2      0828A        7847          STC   XR6,XCNTR2+NX2                                           61064021
 0057B0 9230 D178      08240        7848          MVI   XCNTR1,XX30                                              61072021
 0057B4 4166 0001      00001        7849          LA    XR6,DX1(XR6)                                             61080021
 0057B8 4260 D17A      08242        7850          STC   XR6,XCNTR1+NX2                                           61088021
 0057BC D200 D149 D871 08211 08939  7851          MVC   XL1+NX1(LX1),RPLM1+NX1                                   61096021
 0057C2 45E0 B18C      0181C        7852        BAL   XRSUB,MVC             MVC   RPLSTD+2(L-1),RPLSTD+1         61104021
                                    7853 *                                                                       61112021
 0057C6 9500 D873      0893B        7854 RPGMVT   CLI   RPLINL+NX1,XX00      ANY LEFT HAND INSERTION CHARS       61120021
 0057CA 4780 971E      057E6        7855        BC    EQ,RPGMT2             NO-ONLY ONE MOVE NEEDED              61128021
 0057CE D203 D138 C8CC 08200 07E5C  7856          MVC   XOP1(LX4),XAOPE2     YES                                 61136021
 0057D4 D200 D149 D873 08211 0893B  7857          MVC   XL1+NX1(LX1),RPLINL+NX1                                  61144021
 0057DA 9230 D1C0      08288        7858          MVI   XCNTR2,XX30                                              61152021
 0057DE 9201 D1C2      0828A        7859          MVI   XCNTR2+NX2,XX01                                          61160021
 0057E2 45E0 B18C      0181C        7860        BAL   XRSUB,MVC             MVC   OP2(RPLINL),TS2-1              61168021
                                    7861 *                                                                       61176021
 0057E6 D203 D138 C8CC 08200 07E5C  7862 RPGMT2   MVC   XOP1(LX4),XAOPE2                                         61184021
 0057EC D200 D17D D873 08245 0893B  7863          MVC   XPLUS1+NX2(LX1),RPLINL+NX1                               61192021
 0057F2 4860 D864      0892C        7864        LH    XR6,RPTS2D                                                 61200021
 0057F6 4B60 D872      0893A        7865        SH    XR6,RPLINL                                                 61208021
 0057FA 4B60 D876      0893E        7866        SH    XR6,RPEVNL                                                 61216021
 0057FE 0660                        7867        BCTR  XR6,RW0               SUBTRACT 1 FROM REG 6                61224021
 005800 4060 D148      08210        7868        STH   XR6,XL1               L = RPTS2D-RPLINL-RPEVNL-1           61232021
 005804 9230 D1C0      08288        7869          MVI   XCNTR2,XX30                                              61240021
 005808 4860 D872      0893A        7870        LH    XR6,RPLINL                                                 61248021
 00580C 4A60 D876      0893E        7871        AH    XR6,RPEVNL                                                 61256021
 005810 4166 0002      00002        7872          LA    XR6,DX2(XR6)                                             61264021
 005814 4260 D1C2      0828A        7873          STC   XR6,XCNTR2+NX2                                           61272021
 005818 45E0 B18C      0181C        7874        BAL   XRSUB,MVC             MVC   OP2+RPLINL(L),RPLINL+2+RPE     61280021
                                    7875 *                                                                       61288021
 00581C D501 A16A D864 0016A 0892C  7876          CLC   TS2MAX(LX2),RPTS2D   IS TS2MAX LESS THAN RPTS2D          61296021
 005822 47B0 9764      0582C        7877        BC    NOTLO,RPMXIT          NO-EXIT                              61304021
 005826 D201 A16A D864 0016A 0892C  7878          MVC   TS2MAX(LX2),RPTS2D   YES-SET TS2MAX = RPTS2D             61312021
                                    7879 *                                                                       61320021
 00582C 5890 C208      07798        7880 RPMXIT L     XRVERB,ADCN1D                                              61328021
                             04450  7881        USING MOVE,XRVERB                                                61336021
 005830 47F0 93C8      04818        7882        BC    UNCOND,XMEDXT         PROCS UNSINED SNDNG TO SINED REC     61344021
                                    7883 *                                                                       61352021
                                    7884 *                                                                       61360021
1         ARITHMETIC / MOVE / SUBSCRIPT  ROUTINES                                                               PAGE  178
-  LOC  OBJECT CODE    ADDR1 ADDR2  STMT   SOURCE STATEMENT                                       ASM 0201 11.03 02/14/15
0                                   7886 *      STORE   - STORE VERB CHECK FOR ROUND OPTION AND TRANSFERS TO     61376021
                                    7887 *                NUMERIC MOVE FOR ACTUAL STORING OF RESULT.             61384021
-
0
                             05834  7889        USING *,XRVERB                                                   61400021
                             05834  7890 STOREE EQU   *                                                          61408021
 005834 45E0 7838      00838        7891        BAL   XRSUB,XINTL1          INIT DOP BUFFS SET XOPMOD = 0        61416021
 005838 9108 D48D      08555        7892        TM    XGNSW,XADABA                                               61424021
 00583C 4780 9022      05856        7893        BC    XZERO,STORED          DO NOT BYPASS STORE                  61432021
 005840 9708 D48D      08555        7894        XI    XGNSW,XADABA               BY PASS  STORE - OPERATION      61440021
 005844 45E0 83A4      011D4        7895        BAL   XRSUB,XSETVM          GET 2ND DOP INFO INTO BUFFER         61448021
 005848 D207 D530 D53E 085F8 08606  7896          MVC   X2LAS(LX8),X2LBS                                         61456021
 00584E 5890 C208      07798        7897        L     XRVERB,ADCN1D                                              61464021
                             04450  7898        USING MOVE,XRVERB                                                61472021
 005852 47F0 9614      04A64        7899        BC    UNCON,XBYPST          GO BYPASS ROUTINE                    61480021
                             05834  7900        USING STOREE,XRVERB                                              61488021
                             05856  7901 STORED EQU   *                                                          61496021
                                    7902 *                                                                       61504021
 005856 45E0 79B4      009B4        7903        BAL   XRSUB,XOTSEL          GET DOP INFO INTO BUFFERS            61512021
 00585A 9102 D482      0854A        7904        TM    XOPMOD,XFLOAT   SENDING   IS FP SKIP ROUNDING              61520021
 00585E 4710 9164      05998        7905        BC    XTHRE,XSTEMV          YES                                  61528021
                                    7906 *                                                                       61536021
                                    7907 *                                                                       61544021
 005862 9101 D481      08549        7908        TM    XGSWT,XROUND                                               61552021
 005866 4780 9164      05998        7909        BC    XZERO,XSTEMV               NO ROUND GO TO NUMERIC MOVE     61560021
                                    7910 *                                                                       61568021
 00586A D500 3025 5025 00025 00025  7911          CLC   Y1DBS+NX1(LX1,XR3),Y1DBS+NX1(XR5)                        61576021
 005870 47D0 9164      05998        7912        BNH   XSTE08               INTERMED RESULT DEOS NOT HAVE         61584021
                                    7913 *                                 MORE DEC PLACES THAN RESULT.          61592021
                                    7914 *                                 GO TO NUMERIC MOVE                    61600021
 005874 9512 5025      00025        7915          CLI   Y1DBS+NX1(XR5),XX12                                      61608021
 005878 4740 904C      05880        7916        BL    XSTTT1                STORE FIELD LESS THAN 18 DEC         61616021
 00587C 9213 D441      08509        7917          MVI   XGDRE+NX1,XX13                                           61624021
 005880 F8F0 D428 C810 084F0 07DA0  7918 XSTTT1   ZAP   XCON(LX16),XIDCNQ                                        61632021
 005886 4863 0024      00024        7919        LH    XR6,Y1DBS(XR3)       CALC: DEC OF SENDING                  61640021
 00588A 4B60 D440      08508        7920        SH    XR6,XGDRE            MINUS DEC OF RECEIVING                61648021
 00588E 4A65 0026      00026        7921        AH    XR6,Y1ALP(XR5)       PLUS  SCALING OF RECEIVING = XR6      61656021
 005892 4780 908A      058BE        7922        BZ    XSTGUL                NO SCALING NEEDED                    61664021
 005896 4960 C87C      07E0C        7923        CH    XR6,XC029                                                  61672021
 00589A 4720 9164      05998        7924        BH    XSTE08               NO ROUNDING CAN BE DONE               61680021
 00589E 4740 907A      058AE        7925        BL    XSTE01                GENERATE CONSTANT                    61688021
 0058A2 9205 D428      084F0        7926          MVI   XCON,XX05           SET UP ROUNDING CONSTANT OF          61696021
 0058A6 920C D437      084FF        7927          MVI   XCON+NX15,XX0C      5*10**29                             61704021
 0058AA 47F0 908A      058BE        7928        B     XSTGUL                SKIP LOOP                            61712021
 0058AE FCF0 D428 C810 084F0 07DA0  7929 XSTE01   MP    XCON(LX16),XIDCNQ   GENERATE 00...500..00 I. E.          61720021
 0058B4 FAFF D428 D428 084F0 084F0  7930          AP    XCON(LX16),XCON(LX16) 5*10**(XR6)                        61728021
 0058BA 4660 907A      058AE        7931        BCT   XR6,XSTE01            FALL THRU WHEN CONST GENERATED       61736021
                             058BE  7932 XSTGUL EQU   *                                                          61744021
 0058BE 91D0 D505      085CD        7933          TM    X1IRX+NX1,XZGNLT                                         61752021
 0058C2 4780 9098      058CC        7934        BC    XZERO,XSTENN          1ST OPERAND NOT A LITERAL            61760021
                                    7935 *                                                                       61768021
 0058C6 D100 D437 D4F7 084FF 085BF  7936          MVN   XCON+NX15(LX1),X1VAL+NX15                                61776021
1         ARITHMETIC / MOVE / SUBSCRIPT  ROUTINES                                                               PAGE  179
-  LOC  OBJECT CODE    ADDR1 ADDR2  STMT   SOURCE STATEMENT                                       ASM 0201 11.03 02/14/15
0                            058CC  7937 XSTENN EQU   *                                                          61784021
 0058CC FAFF 3000 D428 00000 084F0  7938          AP    DX0(LX16,XR3),XCON(LX16)                                 61792021
 0058D2 1853                        7939        LR    XR5,XR3                                                    61800021
 0058D4 45E0 7648      00648        7940        BAL   XRSUB,XIDSZ                GET SIZE OF ROUNDED RESULT.     61808021
 0058D8 91D0 D505      085CD        7941          TM    X1IRX+NX1,XZGNLT                                         61816021
 0058DC 4780 90B6      058EA        7942        BC    XZERO,XSTE04          1ST OPERAND NOT A LITERAL            61824021
 0058E0 D205 D506 D450 085CE 08518  7943          MVC   X1LBS(LX6),XIDBY                                         61832021
 0058E6 47F0 9164      05998        7944        BC    UNCON,XSTENM          GO TO NUMERIC MOVE                   61840021
 0058EA 910B 301C      0001C        7945 XSTE04 TM    Y1IRX(XR3),XGBINR                                          61848021
 0058EE 4710 9170      059A4        7946        BC    XTHRE,XSTE05          OPERAND IS BINARY                    61856021
 0058F2 D200 D485 D451 0854D 08519  7947          MVC   XYLEN(LX1),XIDBY+NX1                                     61864021
 0058F8 41E0 90F2      05926        7948        LA    XRSUB,XSTE06                                               61872021
 0058FC D500 3019 D451 00019 08519  7949          CLC   Y1TEL+NX1(LX1,XR3),XIDBY+NX1 GENERATE EITHER             61880021
 005902 4740 7D08      00D08        7950        BC    XONE,XYOBF            OF THE FOLLOWING TESTS               61888021
                                    7951 *                                                ZAP   TEMP(L),OP(L     61896021
                                    7952 *                                                BC    XONE,5GN1        61904021
                                    7953 *                                                AP    TEMP(6),=005     61912021
 005906 920C D1B7      0827F        7954          MVI   XCON2+NX15,XX0C                    BC    UNCON,5GN2      61920021
 00590A 9201 D1B8      08280        7955          MVI   XCON2+NX16,XX01            5GN1  SP   TEMP(L),=00...5    61928021
 00590E 9201 D191      08259        7956          MVI   XL2+NX1,XX01                                             61936021
                                    7957 *                                       5GN2                            61944021
                                    7958 *                                                                       61952021
 005912 45E0 7DC0      00DC0        7959        BAL   XRSUB,XEWCL                 OR    CP   TEMP(L),=0          61960021
 005916 D201 D14A D446 08212 0850E  7960          MVC   XWC1(LX2),XEREL1                 BC   XONE,5GN1          61968021
 00591C D201 D148 D442 08210 0850A  7961          MVC   XL1(LX2),XYTEL               OTHER CODING  SAME AS AB    61976021
                                    7962 *                                                                       61984021
                                    7963 *                                              L   XRN,OP               61992021
 005922 45E0 BAB2      02142        7964          BAL   XRSUB,COMP          C(H) XRN,=0                          62000021
 005926 1B00                        7965 XSTE06 SR    XR0,XR0                         BC   NEG,5GN1              62008021
 005928 9204 D188      08250        7966        MVI   XREG1,XONE                      A(H) XRN,=00..500...       62016021
 00592C 45E0 7AA2      00AA2        7967        BAL   XRSUB,XSTLHN                    BC   UNCON,5GN2            62024021
 005930 D201 D410 D460 084D8 08528  7968          MVC   XGTEM2(LX2),XGNTMP        5GN1 S(H) XRN,=00..500...      62032021
 005936 45E0 BC10      022A0        7969        BAL   XRSUB,BC                   5GN2                            62040021
 00593A D205 D506 D450 085CE 08518  7970          MVC   X1LBS(LX6),XIDBY                                         62048021
 005940 4160 77F2      007F2        7971 XSTE28 LA    XR6,XZBINB                                                 62056021
 005944 9500 D501      085C9        7972          CLI   X1TEL+NX1,XX00                                           62064021
 005948 4780 912A      0595E        7973        BC    XZERO,XSTE23          OPERAND NOT IN TEMP STOR             62072021
 00594C 4150 D428      084F0        7974        LA    XR5,XCON                                                   62080021
 005950 45E0 7648      00648        7975        BAL   XRSUB,XIDSZ           GET SIZES OF OPERAND                 62088021
 005954 4160 7802      00802        7976        LA    XR6,XZSIDB                                                 62096021
 005958 D200 D438 D451 08500 08519  7977          MVC   XCONL(LX1),XIDBY+NX1                                     62104021
 00595E 4850 C88A      07E1A        7978 XSTE23 LH    XR5,XMINON                                                 62112021
 005962 05E6                        7979        BALR  XRSUB,XR6             GO TO BINARY OR ID ROUTINE           62120021
 005964 1200                        7980        LTR   XR0,XR0                    X                               62128021
 005966 4770 9156      0598A        7981        BC    XNOEQ,XSTE27          GENERATE SUBTRACT INSTRUCTION        62136021
 00596A 45E0 BA9A      0212A        7982        BAL   XRSUB,ADD                  X                               62144021
 00596E 920F D188      08250        7983          MVI   XREG1,XX0F                X                              62152021
 005972 45E0 7AA2      00AA2        7984        BAL   XRSUB,XSTLHN               X                               62160021
 005976 45E0 BC10      022A0        7985        BAL   XRSUB,BC                   X                               62168021
 00597A D201 756D D410 0056D 084D8  7986          MVC   PH4GN+NX1(LX2),XGTEM2   MOVE GN #                        62176021
 005980 45E0 753C      0053C        7987          BAL   XRSUB,WRPH4G            WRITE PH4 GN DEF                 62184021
 005984 1809                        7988        LR    XR0,GXRA                                                   62192021
 005986 47F0 910C      05940        7989        BC    UNCON,XSTE28               X                               62200021
 00598A 45E0 B038      016C8        7990 XSTE27 BAL   XRSUB,SUB                  X                               62208021
 00598E D201 756D D460 0056D 08528  7991          MVC   PH4GN+NX1(LX2),XGNTMP   MOVE GN #                        62216021
1         ARITHMETIC / MOVE / SUBSCRIPT  ROUTINES                                                               PAGE  180
-  LOC  OBJECT CODE    ADDR1 ADDR2  STMT   SOURCE STATEMENT                                       ASM 0201 11.03 02/14/15
0005994 45E0 753C      0053C        7992          BAL   XRSUB,WRPH4G            WRITE PH4 GN DEF                 62224021
                             05998  7993 XSTENM EQU   *                                                          62232021
                             05998  7994 XSTE08 EQU   *                                                          62240021
                             05998  7995 XSTEMV EQU   *                                                          62248021
                                    7996 *                                                                       62256021
                                    7997 *                                                                       62264021
                                    7998 *                                                                       62272021
 005998 4150 D520      085E8        7999        LA    XR5,X2VAL                                                  62280021
                                    8000 *                                                                       62288021
 00599C 5890 C208      07798        8001          L     XRVERB,ADCN1D       GO TO NUMERIC MOVE                   62296021
                             04450  8002        USING MOVE,XRVERB                X                               62304021
 0059A0 47F0 923C      0468C        8003        BC    UNCON,XNUMOV               X                               62312021
0
                             05834  8005        USING STOREE,XRVERB              X                               62328021
 0059A4 9504 D453      0851B        8006 XSTE05   CLI   XBDBY+NX1,XX04                                           62336021
 0059A8 4720 918C      059C0        8007        BC    XTWO,XSTE09           NEED MORE THAN 4 BYTES               62344021
                                    8008 *                                                                       62352021
                                    8009 *                                                                       62360021
                                    8010 *                                       CONVERT ROUNDING CONSTANT T     62368021
                                    8011 *                                       BINARY                          62376021
 0059AC 4F60 D430      084F8        8012          CVB   XR6,XCON+NX8              X                              62384021
 0059B0 5060 D434      084FC        8013          ST    XR6,XCON+NX12             X                              62392021
 0059B4 9204 D438      08500        8014          MVI   XCON+NX16,XX04            X                              62400021
                                    8015 *                                       TEST SIGN OF CALCULATED RES     62408021
                                    8016 *                                       THROUGH A LTR                   62416021
 0059B8 4510 8478      012A8        8017        BAL   XR1,XLTRGN                   LTR  XRN,XRN                  62424021
 0059BC 47F0 90F2      05926        8018        BC    UNCON,XSTE06          GENERATE TRANSFER                    62432021
 0059C0 45E0 82CA      010FA        8019 XSTE09 BAL   XRSUB,XBIIDB               CONVERT TO ID.                  62440021
 0059C4 47F0 90F2      05926        8020        BC    UNCON,XSTE06          GENERATE TRANSFER                    62448021
1         ARITHMETIC / MOVE / SUBSCRIPT  ROUTINES                                                               PAGE  181
-  LOC  OBJECT CODE    ADDR1 ADDR2  STMT   SOURCE STATEMENT                                       ASM 0201 11.03 02/14/15
0                                   8022 *      XSETVL  - ROUTINE WHICH MOVES CHARACTERISTICS OF OPERANDS FR     62464021
                                    8023 *              - INPUT STRING TO WORK AREA                              62472021
-
0
                             059C8  8025        USING *,XRVAR                                                    62488021
 0059C8 9200 D483      0854B        8026 XSETVL   MVI   XSESWT,XX00                                              62496021
 0059CC 900F C408      07998        8027        STM   XR0,XR15,XGSAV1                                            62504021
                                    8028 *                                                                       62512021
 0059D0 5840 C8C0      07E50        8029          L     XR4,XAVAL1          LOAD BASE ADDRESSES OF INPUT         62520021
 0059D4 5830 C8C8      07E58        8030        L     XR3,XAOPE1                 STRING AND OF WORKING AREA.     62528021
0
 0059D8 95BA 3000      00000        8032 XSETVR   CLI   DX0(XR3),XGIRI            IS THIS OPERAND AN IR.         62544021
 0059DC 4780 F056      05A1E        8033        BC    XZERO,XG030                YES                             62552021
 0059E0 9530 3000      00000        8034          CLI   DX0(XR3),XGDTN            NO,             A DATA-NAME    62560021
 0059E4 4780 F0EC      05AB4        8035        BC    XZERO,XG031                YES                             62568021
 0059E8 9532 3000      00000        8036          CLI   DX0(XR3),XGNLT            NO,             A NUMERIC L    62576021
 0059EC 4780 F186      05B4E        8037        BC    XZERO,XG032                YES                             62584021
 0059F0 9533 3000      00000        8038          CLI   DX0(XR3),XGFPL            NO,             AN FP LITER    62592021
 0059F4 4780 F1D0      05B98        8039        BC    XZERO,XG033                YES                             62600021
 0059F8 9575 3000      00000        8040          CLI   DX0(XR3),XGFCT            NO              A FIGURATIV    62608021
 0059FC 4780 F1BC      05B84        8041        BC    XZERO,XG034                YES                             62616021
 005A00 9534 3000      00000        8042          CLI   DX0(XR3),XGALC                              ALPHAN. L    62624021
 005A04 4780 F1B4      05B7C        8043        BC    XZERO,XG035           YES                                  62632021
 005A08 95BC 3000      00000        8044          CLI   DX0(XR3),TEMRES     NO        A TEMPORARY RESULT...      62640021
 005A0C 4780 F1F6      05BBE        8045        BE    XG074                YES                                   62648021
                                    8046 *                                                                       62656021
 005A10 9539 3000      00000        8047          CLI   DX0(XR3),XX39       NO        A PLURAL FIGCON            62664021
 005A14 4780 F1B4      05B7C        8048          BC    XZERO,XG035        YES                                   62672021
                                    8049 *      LOGIC ERROR NUMBER 7.                                            62680021
                                    8050 *                                                                       62688021
                             05A18  8051 XERROR EQU   *                                                          62696021
 005A18 45E0 7AC0      00AC0        8052        BAL   XRSUB,ERRPRO          GENERATE ERROR MESSAGE               62704021
 005A1C 07                          8053        DC    AL1(ERRN07)                                                62712021
 005A1D 08                          8054        DC    AL1(8)                                                     62720021
0
                             05A1E  8056 XG030  EQU   *                                                          62736021
 005A1E D201 4028 3001 00028 00001  8057          MVC   Y1IRN(LX2,XR4),XGIRNU(XR3)                               62744021
 005A24 4864 0028      00028        8058        LH    XR6,Y1IRN(XR4)             SET INTER RES. NUMBER.          62752021
                                    8059 *                                                                       62760021
                                    8060 *                                                                       62768021
                                    8061 *                                                                       62776021
 005A28 45E0 8000      00E30        8062        BAL   XRSUB,XINSCN          SCAN INTERMEDIATE RESULT TBL         62784021
 005A2C D20F 4000 6000 00000 00000  8063          MVC   DX0(LX16,XR4),DX0(XR6)    MOVE TABLE ENTRY IN WORK ARE   62792021
 005A32 D205 4018 6018 00018 00018  8064          MVC   Y1TEL(LX6,XR4),Y1TEL(XR6) X                              62800021
 005A38 D207 401E 6010 0001E 00010  8065          MVC   Y1LBS(LX8,XR4),Y1LAS(XR6) X                              62808021
 005A3E D201 601E C88A 0001E 07E1A  8066          MVC   DX30(LX2,XR6),XMINON                                     62816021
 005A44 9108 401D      0001D        8067          TM    Y1IRX+NX1(XR4),XINREG     SET FLAGS IN IR TABLE SAYIN    62824021
 005A48 4780 F0B4      05A7C        8068        BC    XZERO,XG0556               THAT REGISTER IS NOW USED B     62832021
 005A4C 1834                        8069        LR    XR3,XR4                    AN OPRRAND OF THE ACTUAL ST     62840021
 005A4E 45E0 81E4      01014        8070        BAL   XRSUB,XZWHIR               X                               62848021
1         ARITHMETIC / MOVE / SUBSCRIPT  ROUTINES                                                               PAGE  182
-  LOC  OBJECT CODE    ADDR1 ADDR2  STMT   SOURCE STATEMENT                                       ASM 0201 11.03 02/14/15
0005A52 5840 D464      0852C        8071        L     XR4,XLIRP                  X                               62856021
 005A56 D402 4000 C8B7 00000 07E47  8072          NC    DX0(LX3,XR4),XREMK6                                      62864021
 005A5C 9708 301D      0001D        8073          XI    Y1IRX+NX1(XR3),XINREG     X                              62872021
 005A60 45E0 81E4      01014        8074        BAL   XRSUB,XZWHIR               X                               62880021
 005A64 9101 301D      0001D        8075          TM    Y1IRX+NX1(XR3),XG2IRX     X                              62888021
 005A68 4780 F0B2      05A7A        8076        BC    XZERO,XG0555               X                               62896021
 005A6C 9608 4002      00002        8077          OI    DX2(XR4),XRDPRE           X                              62904021
 005A70 5864 0004      00004        8078          L     XR6,DX4(XR4)              X                              62912021
 005A74 D202 6000 4000 00000 00000  8079          MVC   DX0(LX3,XR6),DX0(XR4)                                    62920021
                                    8080 *                                                                       62928021
 005A7A 1843                        8081 XG0555 LR    XR4,XR3                                                    62936021
 005A7C                             8082 XG0556   DS    0H                                                 41562 62944021
 005A7C 9500 D624      086EC        8083          CLI   DIVREMSW,XX00       DIVIDE REMAINDER               41562 62952021
 005A80 4780 F0DC      05AA4        8084          BE    XG0557              NO                             41562 62960021
 005A84 9505 D0D1      08199        8085          CLI   HEADER+NX1,XX05     STORE                          41562 62968021
 005A88 4780 F0DC      05AA4        8086          BE    XG0557              YES                            41562 62976021
 005A8C 9200 D624      086EC        8087          MVI   DIVREMSW,XX00       YES                            41562 62984021
 005A90 D533 D5F0 C370 086B8 07900  8088          CLC   XKVAL(XLEVAL),GZERO WAS DIVIDEND SAVED             41562 62992021
 005A96 4780 F0DC      05AA4        8089          BE    XG0557              NO                             41562 63000021
 005A9A D233 D520 D5F0 085E8 086B8  8090          MVC   X2VAL(XLEVAL),XKVAL YES                            41562 63008021
 005AA0 47F0 F180      05B48        8091          B     XG061               RETURN TO SUBTRACT             41562 63016021
 005AA4                             8092 XG0557   DS    0H                                                 41562 63024021
 005AA4 9120 401D      0001D        8093          TM    Y1IRX+NX1(XR4),XFTPT                               41562 63032021
 005AA8 4780 F164      05B2C        8094        BC    XZERO,XG044           OPERAND NOT FL PT                    63040021
 005AAC 9602 D482      0854A        8095 XG00EF OI    XOPMOD,XFLOAT                                              63048021
 005AB0 47F0 F164      05B2C        8096        BC    UNCON,XG044           GET NEXT OPERAND                     63056021
0
                             05AB4  8098 XG031  EQU   *                                                          63072021
                                    8099 *                                                                       63080021
 005AB4 45E0 802C      00E5C        8100        BAL   XRSUB,XLENGH               GET LENGHT OF DATA NAME.        63088021
 005AB8 9507 D410      084D8        8101          CLI   XGTEM2,SETINDI          INDEX DATA ITEM                  63096021
 005ABC 4770 F0FC      05AC4        8102          BNE   XGG31                   NO                               63104021
 005AC0 920B D410      084D8        8103          MVI   XGTEM2,XGBINR           YES, TREAT AS BI ITEM            63112021
                             05AC4  8104 XGG31    EQU   *                                                        63120021
 005AC4 D200 401C D410 0001C 084D8  8105          MVC   Y1IRX(LX1,XR4),XGTEM2     SET TYPE.                      63128021
 005ACA D505 D450 C850 08518 07DE0  8106          CLC   XIDBY(LX6),XC000          IS IT NUMERIC.                 63136021
 005AD0 4780 F27A      05C42        8107        BC    XZERO,XGNONU               NO                              63144021
 005AD4 D205 401E D450 0001E 08518  8108          MVC   Y1LBS(LX6,XR4),XIDBY      MOVE SIZES IN WORK AREA.       63152021
 005ADA 9180 3008      00008        8109        TM    XGSCAL(XR3),XGSCSG         YES,IS IT A MINUS SCALE .       63160021
 005ADE 47E0 F128      05AF0        8110        BC    NOTHR,XG049                NO                              63168021
 005AE2 D200 4027 3008 00027 00008  8111          MVC   Y1ALP+NX1(LX1,XR4),XGSCAL(XR3) YES SET SCALING FACTOR IN 63176021
                             05AE8  8112 XG0PMV EQU   *                                                          63184021
 005AE8 9780 4027      00027        8113          XI    Y1ALP+NX1(XR4),XX80       AREA.(WITHOUT SIGN).           63192021
 005AEC 47F0 F12E      05AF6        8114        BC    UNCON,XG050           GENERATE MAX OPERAND                 63200021
0
 005AF0 D200 4025 3008 00025 00008  8116 XG049    MVC   Y1DBS+NX1(LX1,XR4),XGSCAL(XR3) MOVE NUMBER OF DEC.PLACES 63216021
 005AF6 4864 0022      00022        8117 XG050  LH    XR6,Y1FBS(XR4)                                             63224021
 005AFA 1266                        8118        LTR   XR6,XR6                                                    63232021
 005AFC 4780 F050      05A18        8119        BZ    XERROR                LENGTH MUST NEVER BE ZERO            63240021
 005B00 F8F0 4000 C80C 00000 07D9C  8120          ZAP   DX0(LX16,XR4),XGNEUF      FIRST GENERATE IN PACK DECI    63248021
 005B06 F8F0 D410 C80C 084D8 07D9C  8121          ZAP   XGTEM2(LX16),XGNEUF       A VALUE = TO THE MAX NUMBER    63256021
 005B0C 47F0 F154      05B1C        8122        BC    UNCON,XG060                REPRESENTED BY THE PICTURE.     63264021
 005B10 FCF1 D410 C80D 084D8 07D9D  8123 XG051    MP    XGTEM2(LX16),XGTEN(LX2)                                  63272021
1         ARITHMETIC / MOVE / SUBSCRIPT  ROUTINES                                                               PAGE  183
-  LOC  OBJECT CODE    ADDR1 ADDR2  STMT   SOURCE STATEMENT                                       ASM 0201 11.03 02/14/15
0005B16 FAFF 4000 D410 00000 084D8  8124          AP    DX0(LX16,XR4),XGTEM2(LX16)                               63280021
 005B1C 4660 F148      05B10        8125 XG060  BCT   XR6,XG051             FALL THRU WHEN GENERATION THRU       63288021
-
0
                                    8127 *                                                                       63304021
                                    8128 *                                       COMPUTE BINARY SIZE             63312021
                                    8129 *                                        , ID , LENGTH                  63320021
                                    8130 *                                                                       63328021
                                    8131 *                                                                       63336021
 005B20 1854                        8132 XG072  LR    XR5,XR4                                                    63344021
 005B22 45E0 7648      00648        8133        BAL   XRSUB,XIDSZ           GET SIZES OF OPERAND                 63352021
 005B26 D205 401E D450 0001E 08518  8134          MVC   Y1LBS(LX6,XR4),XIDBY                                     63360021
0
 005B2C 9101 D483      0854B        8136 XG044  TM    XSESWT,XS2OP               GET NEW OPERAND                 63376021
 005B30 5034 0030      00030        8137        ST    XR3,Y1INPT(XR4)                                            63384021
 005B34 4710 F180      05B48        8138        BC    XTHRE,XG061           2ND OPERAND ALREADY PROCESSED        63392021
 005B38                             8139 XSETVU   DS    0H                                                 51894 63400021
 005B38 5830 C8CC      07E5C        8140          L     XR3,XAOPE2          DOP2                           51894 63408021
 005B3C                             8141 XSETVP   DS    0H                                                 51894 63416021
 005B3C 9601 D483      0854B        8142          OI    XSESWT,XS2OP        PROCESSING DOP2                51894 63424021
 005B40 4140 D520      085E8        8143          LA    XR4,X2VAL                                          51894 63432021
 005B44 47F0 F010      059D8        8144          B     XSETVR              GET DOP2 INFO                  51894 63440021
0
 005B48 980F C408      07998        8146 XG061  LM    XR0,XR15,XGSAV1                                            63456021
 005B4C 07FE                        8147        BCR   UNCON,XRSUB           RETURN                               63464021
 005B4E 920C 401C      0001C        8148 XG032  MVI   Y1IRX(XR4),XGINDC          SET INT.DEC TYPE FLAG ON        63472021
 005B52 9650 401D      0001D        8149          OI    Y1IRX+NX1(XR4),XGCOLT                                    63480021
 005B56 D200 4025 3003 00025 00003  8150          MVC   Y1DBS+NX1(LX1,XR4),XLIDEC(XR3) SET NUMBER OF DEC         63488021
0
 005B5C 1B22                        8152        SR    XR2,XR2                    MOVE   PACK DECIMAL             63504021
 005B5E 4323 0001      00001        8153        IC    XR2,XGNBYT(XR3)           VALUE.                           63512021
 005B62 4B20 C860      07DF0        8154        SH    XR2,XC003                                                  63520021
 005B66 4420 F366      05D2E        8155        EX    XR2,XGZAP                  WORK AREA                       63528021
                                    8156 *                                                                       63536021
                                    8157 *                                                                       63544021
                                    8158 *                                                                       63552021
                             05B6A  8159 XG062  EQU   *                                                          63560021
 005B6A F9F0 4000 C80F 00000 07D9F  8160          CP    DX0(LX16,XR4),XINDCZ(LX1) IS IT A ZERO LIT               63568021
 005B70 4770 F158      05B20        8161        BC    XNOEQ,XG072           NO                                   63576021
 005B74 9680 401D      0001D        8162          OI    Y1IRX+NX1(XR4),XLITZR     GET OTHER OPERANDS             63584021
 005B78 47F0 F158      05B20        8163        BC    UNCON,XG072           GET SIZES OF OPERAND                 63592021
0
 005B7C 96F3 401C      0001C        8165 XG035    OI    Y1IRX(XR4),XXF3                                          63608021
 005B80 47F0 F164      05B2C        8166        BC    UNCON,XG044                LITERAL VALUE.                  63616021
0
                             05B84  8168 XG034  EQU   *                                                          63632021
 005B84 9140 D481      08549        8169        TM    XGSWT,XAROPE                                               63640021
1         ARITHMETIC / MOVE / SUBSCRIPT  ROUTINES                                                               PAGE  184
-  LOC  OBJECT CODE    ADDR1 ADDR2  STMT   SOURCE STATEMENT                                       ASM 0201 11.03 02/14/15
0005B88 4780 F1B4      05B7C        8170        BC    XZERO,XG035           NOT ARITHMETIC OPERATION             63648021
 005B8C 45E0 83F6      01226        8171        BAL   XRSUB,XONDGT          SET BUFFER FOR ONE DIGIT             63656021
 005B90 920F 400F      0000F        8172          MVI   DX15(XR4),XX0F                                           63664021
 005B94 47F0 F1A2      05B6A        8173        BC    UNCON,XG062           CHECK FOR ZERO LITERAL               63672021
0
 005B98 960A 401C      0001C        8175 XG033  OI    Y1IRX(XR4),XGINFP          SET INT FP FLAG ON.             63688021
 005B9C 9274 401D      0001D        8176          MVI   Y1IRX+NX1(XR4),XX74       XFTPT+XGCOLT+XGDPFP            63696021
 005BA0 D207 4008 3002 00008 00002  8177          MVC   DX8(LX8,XR4),DX2(XR3)      MOVE DP LITERAL.              63704021
 005BA6 47F0 F0E4      05AAC        8178        BC    UNCON,XG00EF          TURN ON FL PT SWITCH                 63712021
0
 005BAA 9101 3009      00009        8180 XG047    TM    XGDGLG(XR3),XX01         IS IT DP FP.                    63728021
 005BAE 47E0 F1EE      05BB6        8181        BC    NOTHR,XG0477          NO                                   63736021
 005BB2 9604 401D      0001D        8182          OI    Y1IRX+NX1(XR4),XGDPFP     YES,SET FLAG ON.               63744021
                             05BB6  8183 XG0477 EQU   *                                                          63752021
 005BB6 9620 401D      0001D        8184          OI    Y1IRX+NX1(XR4),XFTPT                                     63760021
 005BBA 47F0 F0E4      05AAC        8185        BC    UNCON,XG00EF          TURN ON FL PT SWITCH                 63768021
 005BBE 9505 D0D1      08199        8186 XG074    CLI   HEADER+NX1,XX05     IS THIS A STORE OPERATION...         63776021
 005BC2 4780 F180      05B48        8187        BE    XG061                YES, RETURN                           63784021
 005BC6 D233 4000 D580 00000 08648  8188          MVC   DX0(XLEVAL,XR4),XRVAL MOVE TEMP RESULT INFO INTO BUFF    63792021
 005BCC 9140 D48D      08555        8189          TM    XGNSW,DIVREM        IS THIS A DIVIDE REMAINDER      7884 63800021
 005BD0 4780 F224      05BEC        8190        BZ    XG075               NO                                     63808021
 005BD4 9740 D48D      08555        8191          XI    XGNSW,DIVREM        YES, TURN OFF SWITCH           41562 63816021
 005BD8 D533 D5B8 C370 08680 07900  8192          CLC   XQVAL(XLEVAL),GZERO IS THIS DIVIDE REMAINDER       41562 63824021
 005BDE 4780 F164      05B2C        8193          BE    XG044               NO OR DIVISOR WAS LITERAL      41562 63832021
 005BE2 D233 D4E8 D5B8 085B0 08680  8194          MVC   X1VAL(XLEVAL),XQVAL                                41562 63840021
 005BE8 47F0 F180      05B48        8195          B     XG061               RETURN TO MULTIPLY             41562 63848021
 005BEC                             8196 XG075    DS    0H                                                 41562 63856021
 005BEC 9500 D501      085C9        8197          CLI   X1TEL+NX1,XX00      IS OP IN TEMP STOR             41562 63864021
 005BF0 4780 F164      05B2C        8198          BE    XG044               GET NEXT OPERAND               41562 63872021
 005BF4 9500 D501      085C9        8199          CLI   X1TEL+NX1,XX00      IS OP IN TEMP STORAGE...             63880021
 005BF8 4780 F164      05B2C        8200        BE    XG044                NO, GET NEXT OPERAND                  63888021
 005BFC 9120 D505      085CD        8201          TM    X1IRX+NX1,XFTPT     IS OP  FLOATING POINT...             63896021
 005C00 4710 F0E4      05AAC        8202        BO    XG00EF               YES, SET SW FOR FL PT OPERATION       63904021
 005C04 910B D504      085CC        8203        TM    X1IRX,XGBINR         IS OP BINARY...                       63912021
 005C08 4710 F164      05B2C        8204        BO    XG044                YES                                   63920021
 005C0C D201 D468 D500 08530 085C8  8205          MVC   XELEN(LX2),X1TEL    OP IS ID, GET NEW TEMPORARY          63928021
 005C12 45E0 7848      00848        8206        BAL   XRSUB,XTAMPO         STORAGE AND GENERATE...               63936021
 005C16 D201 D148 D442 08210 0850A  8207          MVC   XL1(LX2),XYTEL        ZAP NEWTEMP,OLDTEMO                63944021
 005C1C D201 D14A D446 08212 0850E  8208          MVC   XWC1(LX2),XEREL1                                         63952021
 005C22 D201 D190 D500 08258 085C8  8209          MVC   XL2(LX2),X1TEL                                           63960021
 005C28 4850 D502      085CA        8210        LH    XR5,X1TEM                                                  63968021
 005C2C 8B50 0003      00003        8211          SLA   XR5,DX3                                                  63976021
 005C30 4050 D192      0825A        8212        STH   XR5,XWC2                                                   63984021
 005C34 45E0 B000      01690        8213        BAL   XRSUB,ZAP             GENERATE ZAP                         63992021
 005C38 D201 D502 D444 085CA 0850C  8214          MVC   X1TEM(LX2),XEREL    SAVE PTR TO NEW TEMP STOR IN OP      64000021
 005C3E 47F0 F164      05B2C        8215        B     XG044                BUFFER                                64008021
0
                                    8217 *                                                                       64024021
 005C42 950A 401C      0001C        8218 XGNONU CLI   Y1IRX(XR4),XGINFP                                          64032021
 005C46 4780 F1E2      05BAA        8219        BC    XZERO,XG047           OPERAND IS INT FL PT                 64040021
 005C4A 9509 401C      0001C        8220        CLI   Y1IRX(XR4),XGEXFP                                          64048021
 005C4E 4780 F0E4      05AAC        8221        BC    XZERO,XG00EF          OPERAND IS EXT FL PT                 64056021
