1PH40     IKFCBL40                                                                                              PAGE  167
-  LOC  OBJECT CODE    ADDR1 ADDR2  STMT   SOURCE STATEMENT                                       ASM 0201 11.03 02/14/15
0004994 94FE BFAB      0985B        7954        NI      SKIPSW,MSWOFF     DONT GENER. IF ON                      46434021
 004998 94FE BFBE      0986E        7955        NI      OPCLSW,MSWOFF     USED BY ISOKFL                         46440021
 00499C 94FE BFA6      09856        7956        NI      INTOSW,MSWOFF     TELLS ROUTINE TO EXPECT DATA-NAME      46446021
 0049A0 94FE BF80      09830        7957        NI    SUBADV,MSWOFF                                              46452021
 0049A4 94FE BF81      09831        7958        NI    EOPSW,MSWOFF                                               46458021
 0049A8 D701 BF4C BF4C 097FC 097FC  7959          XC    STRCNT(LX2),STRCNT  IF NOT 0 AT END GENR SUBSCRIPTS T    46464021
                                    7960 *                                                                       46470021
                                    7961 *                    FILE-NAME FOLLOWED BY RECORD-NAME EXPECTED         46476021
                                    7962 *                                                                       46482021
 0049AE 9521 C000      0988B        7963        CLI     GOTTEN,MFILE       IS IT FILE (PH1 GIVES FOR WRITE,      46488021
 0049B2 4780 F046      049C8        7964        BC      EQ,READ5           YES                     / WRITE)      46494021
 0049B6 4100 A73C      08434        7965        LA      RA0,BCDFIL          NO - GIVE UP                         46500021
 0049BA 1233                        7966        LTR     RW3,RW3                                                  46506021
 0049BC 4780 7204      051BC        7967        BC      ZERO,IDGVUP        (READ)                                46512021
                             049C0  7968 READ2X   EQU   *                                                        46518021
 0049C0 4100 A748      08440        7969        LA      RA0,BCDRCN                                               46524021
 0049C4 47F0 7204      051BC        7970        BC      UNCOND,IDGVUP      (WRITE)                               46530021
                             049C8  7971 READ5  EQU   *                                                          46536021
 0049C8 9589 C002      0988D        7972          CLI   GOTTEN+NX2,XX89        IS IT A SORT FILE                 46542021
 0049CC 4780 F624      04FA6        7973        BE    FILERR1              YES, ERROR                            46548021
 0049D0 45E0 8C0C      06BC4        7974        BAL     RCS,ISOKFL         SEE IF OK (TURNS ON SKIPSW IF NOT     46554021
 0049D4 45E0 76EC      056A4        7975        BAL     RCS,GETALL           FOR REFERENCE                       46560021
 0049D8 4120 B678      08F28        7976        LA      RW2,PSTFLD                                               46566021
 0049DC D701 B67F B67F 08F2F 08F2F  7977 READ5A   XC    PSTFLD+NX7(LX2),PSTFLD+NX7 PUT IN CONVENIENT PLACE       46572021
 0049E2 D300 B67F B67E 08F2F 08F2E  7978          MVZ   PSTFLD+NX7(LX1),PSTFLD+NX6  ACCESS METHOD                46578021
 0049E8 D100 B680 B67E 08F30 08F2E  7979          MVN   PSTFLD+NX8(LX1),PSTFLD+NX6  VARIABLE INFO                46584021
 0049EE 91F0 B67F      08F2F        7980          TM    PSTFLD+NX7,MQSAM    FOR QSAM, DELETE POSSIBLE            46590021
 0049F2 4770 F078      049FA        7981          BC    NOTZER,*+NX8         WRITE-AFTER-ADVANCING BIT USED O    46596021
 0049F6 94EF C003      00003        7982          NI    DX3(RIN),XXEF         FOR ERROR CHECKING                 46602021
 0049FA 940F C002      00002        7983          NI    DX2(RIN),XX0F       ZERO OUT CT (PH3)                    46608021
 0049FE 45E0 8048      06000        7984        BAL     RCS,STOINP         FILE NAME TO STRING                   46614021
 004A02 4930 A5A2      0829A        7985        CH      RW3,N4              WHICH VERB                           46620021
 004A06 4740 F0C4      04A46        7986        BC      LO,READ6            READ                                 46626021
 004A0A 4720 F0A4      04A26        7987        BC      HI,READ5X           REWRITE                              46632021
 004A0E 9180 C006      00006        7988          TM    DX6(RIN),MBDAM      WRITE - IS IT BDAM REL. REC.         46638021
 004A12 47E0 F0C4      04A46        7989        BC      NOTONE,READ6        CONTINUE PROCESSING                  46644021
 004A16 9104 C006      00006        7990          TM    DX6(RIN),MBDREL     IS IT BDAM REL.                      46650021
 004A1A 4770 F0C4      04A46        7991        BC    NOTZER,READ6          YES, CONTINUE PROCESSING             46656021
 004A1E 4100 A6FF      083F7        7992        LA      RA0,BCDBDR                                               46662021
 004A22 47F0 F0B8      04A3A        7993        BC      UNCOND,READ5Y       GO TO PROCESS ERROR                  46668021
 004A26 918C C006      00006        7994 READ5X   TM    DX6(RIN),DBDMW       IS IT DIRECT BDAM D FILE            46674021
 004A2A 4710 F0EA      04A6C        7995        BO    READ5Z           YES- WARN ON REWRITE                      46680021
 004A2E 9540 B67F      08F2F        7996          CLI   PSTFLD+NX7,MBSAM    IS REWRITE FILE BSAM                 46686021
 004A32 4770 F0C4      04A46        7997        BC      NOTEQ,READ6          NO - OK                             46692021
 004A36 4100 A6F0      083E8        7998        LA      RA0,BCDBSA                                               46698021
                             04A3A  7999 READ5Y EQU     *                                                        46704021
 004A3A 45E0 9BDA      07A32        8000        BAL     RCS,ERROR            YES - ERROR, DONT GENR              46710021
 004A3E 4110 A12C      07E24        8001        LA      RW1,ELST2E                                               46716021
 004A42 9601 BFAB      0985B        8002        OI      SKIPSW,MSWON                                             46722021
                             04A46  8003 READ6  EQU     *                                                        46728021
 004A46 9601 BFC6      09876        8004        OI      SWRONL,MSWON       TELL ISDTOP NO MSG 5E FOR WRITE-O     46734021
 004A4A 45E0 7566      0551E        8005        BAL     RCS,GETNXT          IS NEXT RECORD-NAME (PH3 GIVES F     46740021
 004A4E 45E0 81AC      06164        8006        BAL     RCS,RDUCOP          IS DATA OPERAND LEGAL   READ)        46746021
 004A52 47F0 F0DC      04A5E        8007        BC      UNCOND,READ7       NO - NPN-OPERAND OR ERSYMB            46752021
 004A56 9530 C000      0988B        8008        CLI     GOTTEN,MDN                                               46758021
1PH40     IKFCBL40                                                                                              PAGE  168
-  LOC  OBJECT CODE    ADDR1 ADDR2  STMT   SOURCE STATEMENT                                       ASM 0201 11.03 02/14/15
0004A5A 4780 F102      04A84        8009        BC      EQ,READ8             YES - OK                            46764021
 004A5E 1233                        8010 READ7  LTR     RW3,RW3             NO - SUBSCRIPT OR MAYBE LITERAL      46770021
 004A60 4780 F0F6      04A78        8011        BC      ZERO,READ7X         VERB IS READ - ERROR                 46776021
 004A64 41C0 B678      08F28        8012          LA    RIN,PSTFLD          (WRITE- PH1 DIDNT FIND REC NAME)     46782021
 004A68 47F0 F03E      049C0        8013          BC    UNCOND,READ2X       WRITE MESSAGE                        46788021
 004A6C 45E0 9BDA      07A32        8014 READ5Z BAL   RCS,ERROR             ERROR                                46794021
 004A70 4110 A114      07E0C        8015        LA    RW1,ELST2B          REWRITE BDAM D FILE                    46800021
 004A74 47F0 F0C4      04A46        8016        BC    UNCOND,READ6          CONTINUE PROCESSING                  46806021
 004A78 45E0 9BDA      07A32        8017 READ7X BAL     RCS,ERROR          (READ - PH3 DIDNT FIND RECORD         46812021
 004A7C 4110 A234      07F2C        8018        LA      RW1,ELST55                                               46818021
 004A80 47F0 720C      051C4        8019        BC      UNCOND,IDERR        ERROR EXIT - GIVE UP                 46824021
                             04A84  8020 READ8  EQU   *                                                          46830021
 004A84 D200 BE92 C002 09742 0988D  8021          MVC   TEMPSP(LX1),GOTTEN+NX2  CHECK TO SEE IF RECORD GOTTEN    46836021
 004A8A 940F BE92      09742        8022          NI    TEMPSP,XX0F                    IS A LABEL RECORD         46842021
 004A8E 9505 BE92      09742        8023          CLI   TEMPSP,XX05                                              46848021
 004A92 4770 F120      04AA2        8024        BNE   READ8A               NO                                    46854021
 004A96 45E0 9BDA      07A32        8025        BAL   RCS,ERROR             WRITE OUT ERROR MSG                  46860021
 004A9A 4110 A138      07E30        8026        LA   RW1,ELST2F                                                  46866021
 004A9E 47F0 720C      051C4        8027        BC    UNCOND,IDERR          GIVE UP                              46872021
 004AA2 94FB C007      00007        8028 READ8A   NI    DX7(RIN),WRTOLV                                          46878021
 004AA6 9608 C007      00007        8029          OI    DX7(RIN),MLEV1 SET LEVEL TO 01 IN CASE WRITE-ONLY        46884021
 004AAA 45E0 76EC      056A4        8030        BAL     RCS,GETALL         SAVE AS SOURCE OR TARGET              46890021
 004AAE 4126 0000      00000        8031          LA    RW2,DX0(RW6)                                             46896021
 004AB2 D201 607C BE64 0007C 09714  8032          MVC   MODEL-PLEFT(LX2,RW6),MODE  SAVE MODE AND SCALE FOR IS    46902021
 004AB8 D200 607B BE66 0007B 09716  8033          MVC   DMAXL-PLEFT(LX1,RW6),DCURR                               46908021
 004ABE 45E0 7566      0551E        8034        BAL     RCS,GETNXT          GET NEXT INPUT                       46914021
 004AC2 1233                        8035        LTR     RW3,RW3                                                  46920021
 004AC4 4770 F162      04AE4        8036        BC      NOTZER,READ12       NOT READ, LOOK FOR 'FROM'            46926021
                                    8037 *                                                                       46932021
 004AC8 D501 C000 A40E 0988B 08106  8038          CLC   GOTTEN(LX2),CBRCRD  DISCARD 'RECORD' IN READ STATEMEN    46938021
 004ACE 4770 F154      04AD6        8039        BC      NOTEQ,READ10        NO, SEEK 'INTO'                      46944021
 004AD2 45E0 7566      0551E        8040        BAL     RCS,GETNXT          GET NEXT INPUT                       46950021
                                    8041 *                                                                       46956021
                                    8042 *              COBOL WORD 'INTO'/'FROM' MAY NOW APPEAR                  46962021
                                    8043 *                                                                       46968021
 004AD6 D501 C000 A4E6 0988B 081DE  8044 READ10   CLC   GOTTEN(LX2),CBINTO   IS IT INTO                          46974021
 004ADC 4780 F16C      04AEE        8045        BC      EQ,READ14           YES, TURN ON SWITCH                  46980021
 004AE0 4770 F174      04AF6        8046        BC      NOTEQ,READ16        NO, SEE IF VALID DN                  46986021
 004AE4 D501 C000 A4E2 0988B 081DA  8047 READ12   CLC   GOTTEN(LX2),CBFROM   IS IT 'FROM'                        46992021
 004AEA 4770 F174      04AF6        8048          BC    NOTEQ,READ16        NOT 'FROM' SEEK DN                   46998021
 004AEE 9601 BFA6      09856        8049 READ14 OI      INTOSW,MSWON      INTOSW ON SAYS IT WAS FOUND            47004021
 004AF2 45E0 7566      0551E        8050        BAL     RCS,GETNXT          GET NEXT INPUT                       47010021
                                    8051 *                                                                       47016021
                                    8052 *                   DOES VALID DATA-NAME FOLLOW                         47022021
                                    8053 *                                                                       47028021
 004AF6 45E0 81AC      06164        8054 READ16 BAL     RCS,RDUCOP          IS IT A VALID OPERAND                47034021
 004AFA 47F0 F21E      04BA0        8055        BC      UNCOND,READ22      NO - NON OPERAND                      47040021
 004AFE 9101 BFA6      09856        8056        TM      INTOSW,MSWON       YES - OK,BUT WAS INTO/FROM FOUND      47046021
 004B02 4710 F18C      04B0E        8057        BC      ONES,READ20        YES                                   47052021
 004B06 45E0 9BDA      07A32        8058        BAL     RCS,ERROR          NO - TRIVIAL ERROR                    47058021
 004B0A 4110 A02A      07D22        8059        LA      RW1,ELST07                                               47064021
                                    8060 *                                                                       47070021
                                    8061 *                           PROCESS DATA-NAME                           47076021
                                    8062 *                                                                       47082021
                             04B0E  8063 READ20 EQU     *                                                        47088021
1PH40     IKFCBL40                                                                                              PAGE  169
-  LOC  OBJECT CODE    ADDR1 ADDR2  STMT   SOURCE STATEMENT                                       ASM 0201 11.03 02/14/15
0                                   8064 * MAKE SURE IDENTIFIER IS NOT DEFINED UNDER SAME FD AS RECDNAME         47094021
 004B0E 9531 C000      0988B        8065        CLI   GOTTEN,MSS            WAS DATA NAME SUBSCRIPTED            47100021
 004B12 4770 F1A8      04B2A        8066        BNE    READ20A              NO-CHECK BLI OF DNM                  47106021
                                    8067 *   FIND I,D,K FIELD OF SS DNM IN DEFSBS TABLE                          47112021
 004B16 5810 B090      08940        8068        L    RW1,ADFSBS                                                  47118021
 004B1A 5811 0000      00000        8069          L     RW1,DX0(RW1)                                             47124021
 004B1E 5811 0000      00000        8070          L     RW1,DX0(RW1)                                             47130021
 004B22 41C1 0003      00003        8071          LA    RIN,DX3(RW1)                                             47136021
 004B26 47F0 F1B4      04B36        8072          B     READ20B             SKIP CHECKING DMN              02268 47142021
 004B2A                             8073 READ20A DS    0H                                                        47148021
 004B2A 9530 C000      0988B        8074          CLI   GOTTEN,MDN          IS THIS DATA ITEM              02268 47154021
 004B2E 4780 F1B4      04B36        8075          BE    READ20B             YES,   PROCESS                 02268 47160021
 004B32 47F0 F21E      04BA0        8076          B     READ22              NOT DATA ITEM                  02268 47166021
 004B36                             8077 READ20B  DS    0H                                                 02268 47172021
 004B36 91F0 C004      00004        8078          TM    DX4(RIN),MBLI        IS BASE LOCATOR FOR DNM A BLI       47178021
 004B3A 4770 F1F6      04B78        8079        BC    NOTZER,READ21         NO-   OK                             47184021
 004B3E D500 C006 B67C 00006 08F2C  8080          CLC   DX6(LX1,RIN),PSTFLD+NX4 ARE BL #'S OF FILE AND DNM EQUAL 47190021
 004B44 4740 F1F6      04B78        8081        BL    READ21              DNM BL LESS -  OK                      47196021
 004B48 4780 F1EE      04B70        8082        BE    READ21A              THEY ARE EQUAL- ISSUE MSG             47202021
                                    8083 *    SEE IF 1ST BL + # OF BL'S FOR FD IN RANGE OF BL FOR DATANAME       47208021
 004B4C 1B22                        8084        SR    RW2,RW2                                                    47214021
 004B4E 4320 B67C      08F2C        8085          IC    RW2,PSTFLD+NX4       RW2 CONTAINS FIRST BL #             47220021
 004B52 D200 BE37 A598 096E7 08290  8086        MVC     TMPSP1+NX3(LX1),N0    ZERO OUT TEMP AREA                 47226021
 004B58 D100 BE37 B67B 096E7 08F2B  8087          MVN   TMPSP1+NX3(LX1),PSTFLD+NX3 MOVE # OF BL'S TO WORK AREA   47232021
 004B5E 5A20 BE34      096E4        8088        A    RW2,TMPSP1             ADD THEM                             47238021
 004B62 5020 BE34      096E4        8089        ST    RW2,TMPSP1            STORE RESULT IN TMPSP1               47244021
 004B66 D500 BE37 C006 096E7 00006  8090          CLC   TMPSP1+NX3(LX1),DX6(RIN)   COMPARE BL FOR DNM WITH SUM   47250021
 004B6C 47D0 F1F6      04B78        8091        BNH   READ21                OK-NOT DEFINED UNDER SAME FD         47256021
 004B70 45E0 9BDA      07A32        8092 READ21A BAL   RCS,ERROR            WRITE ERROR MSG                      47262021
 004B74 4110 A294      07F8C        8093        LA   RW1,ELST64            ISSUE MSG BUT ACCEPT                  47268021
 004B78                             8094 READ21 DS 0H                                                            47274021
 004B78 58C0 A324      0801C        8095        L     RIN,ACURNT          RESTORE RIN IN CASE SSTABLE REFD       47280021
 004B7C 45E0 76EC      056A4        8096        BAL     RCS,GETALL            SAVE DATA-NAME AS TARGET FOR R     47286021
 004B80 4125 0000      00000        8097          LA    RW2,DX0(RW5)           SOURCE FOR WRITE,REWRITE          47292021
 004B84 D201 507C BE64 0007C 09714  8098          MVC   MODEL-PLEFT(LX2,RW5),MODE   SAVE ITS MODE AND SCALE      47298021
 004B8A D200 507B BE66 0007B 09716  8099          MVC   DMAXL-PLEFT(LX1,RW5),DCURR                               47304021
 004B90 45E0 7566      0551E        8100        BAL     RCS,GETNXT          GET NEXT INPUT                       47310021
 004B94 45E0 9000      06E58        8101        BAL     RCS,ISOKMV            ARE SOURCE AND TARGET COMPATIB     47316021
 004B98 47F0 F23E      04BC0        8102        BC      UNCOND,READ30              NO - DONT USE OPTION          47322021
 004B9C 47F0 F242      04BC4        8103        BC      UNCOND,READ34              YES                           47328021
                                    8104 *                                                                       47334021
                                    8105 *                           PROCESS ERRORS OF INTO-FROM OPTION          47340021
                                    8106 *                                                                       47346021
 004BA0 9101 BFA6      09856        8107 READ22 TM      INTOSW,MSWON       WAS COBOL WORD FOUND WITHOUT DN       47352021
 004BA4 4780 F242      04BC4        8108        BC      ZERO,READ34          NO - OK                             47358021
 004BA8 4100 A660      08358        8109        LA      RA0,BCDDN                                                47364021
 004BAC 45E0 9BDA      07A32        8110        BAL     RCS,ERROR            YES - SKIP OPTION BUT PROCESS N     47370021
 004BB0 4110 A177      07E6F        8111        LA      RW1,ELST38                         / MALLY               47376021
 004BB4 9120 C000      0988B        8112        TM      GOTTEN,MOP         WAS IT SOME OPERAND OR ERSYMB         47382021
 004BB8 4780 F23E      04BC0        8113        BC      ZERO,READ30         NO                                   47388021
 004BBC 45E0 7566      0551E        8114        BAL     RCS,GETNXT           YES - DISCARD                       47394021
 004BC0 94FE BFA6      09856        8115 READ30 NI      INTOSW,MSWOFF                                            47400021
                                    8116 *                                                                       47406021
                                    8117 *              GET GN OF NEXT STATEMENT FOR ALL VERBS                   47412021
                                    8118 *                                                                       47418021
1PH40     IKFCBL40                                                                                              PAGE  170
-  LOC  OBJECT CODE    ADDR1 ADDR2  STMT   SOURCE STATEMENT                                       ASM 0201 11.03 02/14/15
0004BC4 45E0 9A72      078CA        8119 READ34 BAL     RCS,PUPLGN          GET NEW GN NO.                       47424021
 004BC8 D201 BD4C BE1C 095FC 096CC  8120          MVC   GNX(LX2),NXTLGN      SAVE TO GENR AT POINT OF DEF.       47430021
 004BCE D201 BE02 BE1C 096B2 096CC  8121          MVC   GNREF+NX1(LX2),NXTLGN                                    47436021
 004BD4 4140 BE01      096B1        8122        LA      RW4,GNREF                                                47442021
 004BD8 45E0 8000      05FB8        8123        BAL     RCS,STOR45          STORE IN STRING AS 2ND ELEMENT       47448021
                                    8124 *                                                                       47454021
                                    8125 *              BRANCH TO SEEK APPROPRIATE 2ND OPTION                    47460021
                                    8126 *                                                                       47466021
 004BDC 9520 B67F      08F2F        8127          CLI   PSTFLD+NX7,MBISAM    IS FILE BISAM OR BDAM               47472021
 004BE0 4780 F410      04D92        8128        BC      EQ,READ38           YES, SEEK 'VALID KEY'                47478021
 004BE4 9580 B67F      08F2F        8129          CLI   PSTFLD+NX7,MBDAM                                         47484021
 004BE8 4780 F410      04D92        8130        BC      EQ,READ38           YES -SEEK 'INVALID KEY'              47490021
 004BEC 47F3 F26E      04BF0        8131          BC    UNCOND,*+NX4(RW3)    NO                                  47496021
 004BF0 47F0 F43C      04DBE        8132        BC      UNCOND,READ42           FOR READ SEEK 'AT END'           47502021
 004BF4 47F0 F27A      04BFC        8133          BC    UNCOND,*+NX8        CHECK IF FILE QSAM                   47508021
 004BF8 47F0 F466      04DE8        8134        BC      UNCOND,READ44           FOR REWRITE NO OPTIONS           47514021
 004BFC 91F0 B67F      08F2F        8135          TM    PSTFLD+NX7,MQSAM                   QSAM                  47520021
 004C00 4770 F410      04D92        8136        BC    NOTZER,READ38      NO- SEEK INVALID KEY                    47526021
 004C04 D501 C000 A534 0988B 0822C  8137          CLC   GOTTEN(LX2),CBAFTR       YES - IS OPTION 'AFTER'         47532021
 004C0A 4780 F2FE      04C80        8138        BC      EQ,READ35           YES                                  47538021
 004C0E D501 C000 A536 0988B 0822E  8139          CLC   GOTTEN(LX2),CBEFOR IS IT BEFORE                          47544021
 004C14 4780 F2DC      04C5E        8140        BE    READ35A               YES, GO TO BEFORE/AFTER RTN          47550021
 004C18 9109 B680      08F30        8141          TM    PSTFLD+NX8,ADVNCNG NO-WAS ANY ADV OPT EVER USED          47556021
 004C1C 4780 F3AE      04D30        8142        BZ    READ36                NO- OK IF POSN NOT USED              47562021
 004C20 41C0 A334      0802C        8143        LA    RIN,CBADV                                                  47568021
 004C24 4710 F2B6      04C38        8144        BO    BEFSUB           BOTH USED-MAKE BEFORE                     47574021
 004C28 9101 B680      08F30        8145          TM    PSTFLD+NX8,AFTADV AFTER                                  47580021
 004C2C 4780 F2B6      04C38        8146        BZ    BEFSUB                MAKE BEFORE                          47586021
 004C30 4100 A534      0822C        8147        LA    RA0,CBAFTR                                                 47592021
 004C34 47F0 F2BA      04C3C        8148        B     ADVERR                GO TO PROCESS ERROR                  47598021
 004C38 4100 A536      0822E        8149 BEFSUB LA    RA0,CBEFOR                                                 47604021
 004C3C 45E0 9BDA      07A32        8150 ADVERR BAL   RCS,ERROR             WRITE MESSAGE                        47610021
 004C40 4110 A267      07F5F        8151        LA      RW1,ELST5D                                               47616021
 004C44 41C0 BF54      09804        8152        LA    RIN,NUMLT1                                                 47622021
 004C48 9601 BF74      09824        8153        OI    NEXTIN,MSWON                                               47628021
 004C4C 9601 BF80      09830        8154        OI    SUBADV,MSWON                                               47634021
 004C50 4110 A536      0822E        8155        LA    RW1,CBEFOR                                                 47640021
 004C54 1910                        8156        CR    RW1,RA0               WAS IT 'BEFORE'                      47646021
 004C56 4780 F2DC      04C5E        8157        BE    READ35A          YES-SET BIT ON IN FILE                    47652021
 004C5A 47F0 F3CA      04D4C        8158        B     READ62                GO TO PROCESS N OF AFTER ADV.        47658021
                                    8159 *                                                                       47664021
                                    8160 *                        'BEFORE OR AFTER' FOUND (WRITE)                47670021
                                    8161 *                                                                       47676021
 004C5E 9104 B680      08F30        8162 READ35A  TM    PSTFLD+NX8,XX04      POSN EVER USED                      47682021
 004C62 4710 F314      04C96        8163        BO    READ35B         ERROR                                      47688021
 004C66 5810 B048      088F8        8164        L    RW1,ASTRNG       BEFORE- TURN BIT ON IN FILE                47694021
 004C6A 45E0 7FCE      05F86        8165         BAL  RCS,GOBACK            ADDR OF 2ND ENTRY FROM END           47700021
 004C6E 0002                        8166        DC    XL2'2'                                                     47706021
 004C70 5820 BC74      09524        8167        L     RW2,ADNTRY                                                 47712021
 004C74 9680 2002      00002        8168          OI    DX2(RW2),BEFBIT                                          47718021
 004C78 9101 BF80      09830        8169        TM    SUBADV,MSWON     WAS  BEFORE SUBSTITUTED                   47724021
 004C7C 4710 F3CA      04D4C        8170        BO    READ62           YES                                       47730021
 004C80 45E0 7566      0551E        8171 READ35 BAL     RCS,GETNXT          NO, GET NEXT INPUT                   47736021
 004C84 D501 C000 A51A 0988B 08212  8172          CLC   GOTTEN(LX2),CBPOSN     IS IT POSITIONING                 47742021
 004C8A 4780 F35E      04CE0        8173        BE    WRPOSN                YES                                  47748021
1PH40     IKFCBL40                                                                                              PAGE  171
-  LOC  OBJECT CODE    ADDR1 ADDR2  STMT   SOURCE STATEMENT                                       ASM 0201 11.03 02/14/15
0004C8E 9104 B680      08F30        8174          TM    PSTFLD+NX8,XX04      NO-BUT WAS POSN EVER USED           47754021
 004C92 4780 F320      04CA2        8175         BZ     *+NX16              NO PROCESS ADV                       47760021
 004C96 4100 A534      0822C        8176 READ35B LA    RA0,CBAFTR                                                47766021
 004C9A 41C0 A51A      08212        8177        LA    RIN,CBPOSN                                                 47772021
 004C9E 47F0 F2BA      04C3C        8178        B     ADVERR                GO TO PROCESS ERROR                  47778021
 004CA2 4120 A123      07E1B        8179        LA    RW2,ELST2D                                                 47784021
 004CA6 D501 C000 A334 0988B 0802C  8180          CLC   GOTTEN(LX2),CBADV    IS IT 'ADVANCING'                   47790021
 004CAC 4770 F332      04CB4        8181          BC    NOTEQ,*+NX8         NO                                   47796021
 004CB0 45E0 7566      0551E        8182        BAL     RCS,GETNXT         DISCARD 'ADVANCING'                   47802021
 004CB4 9555 C000      0988B        8183        CLI   GOTTEN,CARGCN   MNEMONIC NAME                              47808021
 004CB8 4780 F3CA      04D4C        8184        BE    READ62            YES-OK                                   47814021
 004CBC 45E0 81AC      06164        8185        BAL   RCS,RDUCOP            SEE IF VALID OP                      47820021
 004CC0 47F0 F3BE      04D40        8186        B     READ60                NO                                   47826021
 004CC4 45E0 8B64      06B1C        8187        BAL   RCS,ISINT2            YES- BUT IS IT INTEGER               47832021
 004CC8 47F0 F3BE      04D40        8188        B     READ60            NOT INTEGER                              47838021
 004CCC 9101 BE64      09714        8189        TM    MODE,MLITBT      IS  IT  NUM.LITERAL                       47844021
 004CD0 4780 F3CA      04D4C        8190        BZ    READ62                NO, GO TO PROC N OF AFTER ADV        47850021
 004CD4 9503 C002      0988D        8191          CLI   GOTTEN+NX2,XX03 MORE  THAN 2 DIGITS                      47856021
 004CD8 4740 F3CA      04D4C        8192        BL    READ62           NO-OK                                     47862021
 004CDC 47F0 F3BE      04D40        8193        B     READ60           ERROR                                     47868021
 004CE0 45E0 7566      0551E        8194 WRPOSN BAL   RCS,GETNXT            GET NEXT INPUT                       47874021
 004CE4 4120 A14D      07E45        8195        LA    RW2,ELST33                                                 47880021
 004CE8 45E0 81AC      06164        8196        BAL   RCS,RDUCOP            IS IT A VALID OPERAND                47886021
 004CEC 47F0 F3BA      04D3C        8197        BC      UNCOND,READ58        NO -ERROR,MAKE IT 1                 47892021
 004CF0 D503 C000 A554 0988B 0824C  8198          CLC   GOTTEN(LX4),INTG1L    IS IT 1-DIGIT NUMERIC LITERAL      47898021
 004CF6 4780 F398      04D1A        8199        BC      EQ,READ56            YES                                 47904021
 004CFA D501 BE64 A582 09714 0827A  8200          CLC   MODE(LX2),DNANMD    IS IT ALPHANUMERIC DATA-NAME         47910021
 004D00 4770 F3BE      04D40        8201        BC      NOTEQ,READ60         NO - ERROR MAKE IT 1                47916021
                                    8202 *                           ALPHANUMERIC DATA-NAME                      47922021
 004D04 45E0 984C      076A4        8203        BAL     RCS,CALCLG         IS LENGTH 1                           47928021
 004D08 47F0 F38A      04D0C        8204          BC    UNCOND,*+NX4        CHECK IF LENGTH = 1                  47934021
 004D0C D503 BE3C A59A 096EC 08292  8205          CLC   LENGTH(LX4),N1-NX2                                       47940021
 004D12 4770 F3BE      04D40        8206        BC      NOTEQ,READ60        NO - MAKE OPERAND NLIT 1             47946021
 004D16 4780 F3CA      04D4C        8207        BC      EQ,READ62           GO TO PROCESS N OF AFTER ADV         47952021
                                    8208 *                           NUMERIC LITERAL                             47958021
 004D1A 1B44                        8209 READ56 SR      RW4,RW4                                                  47964021
 004D1C 434C 0004      00004        8210          IC    RW4,DX4(RIN)                                             47970021
 004D20 8A40 0004      00004        8211          SRA   RW4,DX4                                                  47976021
 004D24 4B40 A5A2      0829A        8212        SH      RW4,N4             IS IT MORE THAN 3                     47982021
 004D28 4740 F3CA      04D4C        8213        BC      NEG,READ62           NO - OK                             47988021
 004D2C 47B0 F3BE      04D40        8214        BC      NOTNEG,READ60        YES-ERROR, MAKE IT 1                47994021
 004D30 9104 B680      08F30        8215 READ36   TM    PSTFLD+NX8,XX04                                          48000021
 004D34 4780 F410      04D92        8216        BZ    READ38           SEE IF INVALID KEY                        48006021
 004D38 47F0 F314      04C96        8217        B     READ35B            WAS USED- ERROR                         48012021
                                    8218 *              SUBSTITUTE 1 FOR ILLEGAL N TIMES                         48018021
 004D3C 9601 BF74      09824        8219 READ58 OI      NEXTIN,MSWON       DONT DISCARD NON-OPERAND              48024021
 004D40 45E0 9BDA      07A32        8220 READ60 BAL     RCS,ERROR           ISSUE ERROR MESSAGE                  48030021
 004D44 4112 0000      00000        8221          LA    RW1,DX0(RW2)          PT RW1 TO RIGHT ERRMSG             48036021
 004D48 41C0 BF54      09804        8222        LA      RIN,NUMLT1         SET INPOINTER TO 1                    48042021
                                    8223 *                                                                       48048021
                                    8224 *                           PROCESS N OF 'AFTER ADVANCING'              48054021
                                    8225 *                                                                       48060021
 004D4C 9102 B680      08F30        8226 READ62   TM    PSTFLD+NX8,MAPP5                                         48066021
 004D50 47E0 F3E4      04D66        8227        BC    NOTONE,READ62X        GO TO STORE INPUT                    48072021
 004D54 5810 B048      088F8        8228        L     RW1,ASTRNG       TURN OFF APPLY WRITE ONLY BIT             48078021
1PH40     IKFCBL40                                                                                              PAGE  172
-  LOC  OBJECT CODE    ADDR1 ADDR2  STMT   SOURCE STATEMENT                                       ASM 0201 11.03 02/14/15
0004D58 45E0 7FCE      05F86        8229        BAL   RCS,GOBACK            ADDR OF 2ND ENTRY FROM END           48084021
 004D5C 0002                        8230        DC    XL2'2'                                                     48090021
 004D5E 5820 BC74      09524        8231        L    RW2,ADNTRY                                                  48096021
                                    8232 *DEL                                                                    48102021
 004D62 94DF B680      08F30        8233          NI    PSTFLD+NX8,XXDF                                          48108021
 004D66 45E0 8048      06000        8234 READ62X BAL  RCS,STOINP            STORE INPUT IN STRING                48114021
 004D6A 9531 C000      0988B        8235        CLI     GOTTEN,MSS         IS DN SUBSCRIPTED                     48120021
 004D6E 4770 F3F6      04D78        8236          BC    NOTEQ,*+NX10        NO, GO TO GET NEXT                   48126021
 004D72 D201 BF4C B094 097FC 08944  8237          MVC   STRCNT(LX2),DSPSBS   YES, MIGHT NEED TO GENR SS TWICE    48132021
 004D78 45E0 7566      0551E        8238        BAL     RCS,GETNXT          GET NEXT INPUT                       48138021
 004D7C D501 C000 A3BC 0988B 080B4  8239          CLC   GOTTEN(LX2),CBLINE   IS IT 'LINE'                        48144021
 004D82 4770 F46E      04DF0        8240        BC    NOTEQ,READ45          NO, CHECK FOR EOP                    48150021
 004D86 45E0 7566      0551E        8241        BAL     RCS,GETNXT         DISCARD 'LINES' IF PRESENT            48156021
 004D8A 47F0 F46E      04DF0        8242      B     READ45                 CHECK FOR EOP                         48162021
 004D8E 47F0 F49A      04E1C        8243        BC      UNCOND,READ46      GO FINISH STRING                      48168021
                                    8244 *                                                                       48174021
                                    8245 *                           'INVALID KEY' OPTIONAL HERE                 48180021
                                    8246 *                                                                       48186021
 004D92 D501 C000 A350 0988B 08048  8247 READ38   CLC   GOTTEN(LX2),CBINVL  IS IT INVALID                        48192021
 004D98 4770 F466      04DE8        8248        BC      NOTEQ,READ44         NO -NO OPTIONS                      48198021
 004D9C 45E0 7566      0551E        8249        BAL     RCS,GETNXT          GET NEXT INPUT                       48204021
 004DA0 D501 C000 A356 0988B 0804E  8250          CLC   GOTTEN(LX2),CBKEY    IS IT 'KEY'                         48210021
 004DA6 4770 F42C      04DAE        8251          BC    NOTEQ,*+NX8         NO                                   48216021
 004DAA 45E0 7566      0551E        8252        BAL     RCS,GETNXT         DISCARD 'KEY' IF PRESENT              48222021
 004DAE 9601 BF74      09824        8253 READ40 OI      NEXTIN,MSWON       VALID 'INVALID KEY' -- TREAT LIKE     48228021
 004DB2 41C0 A4F6      081EE        8254        LA      RIN,CBEND            'AT END'                            48234021
 004DB6 4100 A350      08048        8255          LA    RA0,CBINVL          SET RA0 FOR POSSIBLE MSG             48240021
 004DBA 47F0 F440      04DC2        8256        BC      UNCOND,RED42X       GO TO 'AT END' RTN                   48246021
                                    8257 *                                                                       48252021
                                    8258 *                           'AT END' REQUIRED HERE                      48258021
                                    8259 *                                                                       48264021
 004DBE 4100 A4F6      081EE        8260 READ42 LA      RA0,CBEND          SET RA0 FOR POSSIBLE MSG              48270021
 004DC2 45E0 8D98      06D50        8261 RED42X   BAL   RCS,ISATND          SET UP AND STORE BRANCH              48276021
 004DC6 47F0 F44C      04DCE        8262        BC      UNCOND,READ43      NOT FOUND                             48282021
 004DCA 47F0 F49A      04E1C        8263        BC      UNCOND,READ46       GO FINISH STRING                     48288021
 004DCE 9601 BFC5      09875        8264 READ43 OI      TEMPSW,MSWON       EXTRA GNDEF FOR READ66                48294021
 004DD2 45E0 9A72      078CA        8265        BAL     RCS,PUPLGN            CREATE PHONY NOT-AT-END BRANCH     48300021
 004DD6 D201 BE02 BE1C 096B2 096CC  8266          MVC   GNREF+NX1(LX2),NXTLGN                                    48306021
 004DDC 4140 BE01      096B1        8267        LA      RW4,GNREF                                                48312021
 004DE0 45E0 8000      05FB8        8268        BAL     RCS,STOR45          STORE GN IN STRING                   48318021
 004DE4 47F0 F49A      04E1C        8269        BC      UNCOND,READ46       GO FINISH STRING                     48324021
                                    8270 *                                                                       48330021
                                    8271 *                    NOT 'INVALID KEY', 'AT END', OR 'AFTER ADVANCI     48336021
                                    8272 *                                                                       48342021
 004DE8 4140 BE01      096B1        8273 READ44 LA      RW4,GNREF          STORE GNX (NEXT STATEMENT) AGAIN      48348021
 004DEC 45E0 8000      05FB8        8274        BAL     RCS,STOR45          STORE GN IN STRING                   48354021
 004DF0 91F0 B67F      08F2F        8275 READ45   TM    PSTFLD+NX7,MQSAM    QSAM FILE                            48360021
 004DF4 4770 F49A      04E1C        8276        BC    NOTZER,READ46        NO                                    48366021
 004DF8 D501 C000 A4EE 0988B 081E6  8277          CLC   GOTTEN(LX2),CBAT      IS IT AT EOP                       48372021
 004DFE 4770 F484      04E06        8278        BNE   *+8                   OPTION                               48378021
 004E02 45E0 7566      0551E        8279        BAL   RCS,GETNXT            GET NEST INPUT                       48384021
 004E06 D501 C000 A518 0988B 08210  8280          CLC   GOTTEN(LX2),CBEOP    IS IT 'END-OF-PAGE' (EOP)           48390021
 004E0C 4770 F49A      04E1C        8281        BNE   READ46                NO, GO FINISH STRING                 48396021
 004E10 45E0 8C54      06C0C        8282        BAL   RCS,ISTRUV            SEE IF CONDITION ALLOWED HERE        48402021
 004E14 45E0 7566      0551E        8283        BAL   RCS,GETNXT            GET NEXT INPUT                       48408021
1PH40     IKFCBL40                                                                                              PAGE  173
-  LOC  OBJECT CODE    ADDR1 ADDR2  STMT   SOURCE STATEMENT                                       ASM 0201 11.03 02/14/15
0004E18 9601 BF81      09831        8284        OI    EOPSW,MSWON                                                48414021
                                    8285 *                                                                       48420021
                                    8286 *                                 FINISH STRINGS AND EXIT               48426021
                                    8287 *                                                                       48432021
 004E1C 9101 BFA6      09856        8288 READ46 TM      INTOSW,MSWON       WAS THERE DATA-NAME OPTION            48438021
 004E20 4710 F4E4      04E66        8289        BC      ONES,READ48          YES                                 48444021
 004E24 9102 B680      08F30        8290          TM    PSTFLD+NX8,MAPP5     NO - IS THIS A WRITE-ONLY FILE      48450021
 004E28 47E0 F4CA      04E4C        8291        BC      NOTONE,READ47          NO                                48456021
 004E2C 91F0 B67F      08F2F        8292          TM    PSTFLD+NX7,MQSAM    IS IT A QSAM FILE                    48462021
 004E30 4770 F4CA      04E4C        8293        BC    NOTZER,READ47         NO                                   48468021
 004E34 4930 A5A2      0829A        8294        CH      RW3,N4             IS VERB WRITE                         48474021
 004E38 4770 F4CA      04E4C        8295        BC      NOTEQ,READ47         NO                                  48480021
 004E3C 45E0 9BDA      07A32        8296        BAL     RCS,ERROR           YES - ILLEGAL                        48486021
 004E40 4110 A27F      07F77        8297        LA      RW1,ELST5F                                               48492021
 004E44 9601 BF73      09823        8298        OI      GENRED,MSWON        AVOID 'INCOMPLETE' MESSAGE           48498021
 004E48 47F0 F5CC      04F4E        8299        BC      UNCOND,READ66       DISCARD STATEMENT                    48504021
 004E4C 1233                        8300 READ47 LTR   RW3,RW3              WHICH VERB                            48510021
 004E4E 4770 F4DA      04E5C        8301        BC      NOTZER,RED47X       WRITE OR REWRITE                     48516021
 004E52 D201 B5FA A4EA 08EAA 081E2  8302          MVC   PRIGHT(LX2),CBZERO     READ - PUT DUMMY IN TARGET FIE    48522021
 004E58 47F0 F4EE      04E70        8303        BC      UNCOND,READ49       GO TO STORE PLEFT, PRIGHT            48528021
 004E5C D201 B57C A4EA 08E2C 081E2  8304 RED47X   MVC   PLEFT(LX2),CBZERO    WRITE - PUT DUMMY IN SOURCE FIEL    48534021
 004E62 47F0 F4EE      04E70        8305        BC      UNCOND,READ49       GO TO STORE PLEFT, PRIGHT            48540021
 004E66 D200 BE24 5000 096D4 00000  8306 READ48   MVC   TEMP(LX1),DX0(RW5)   SAVE DN HEADER                      48546021
 004E6C 9230 5000      00000        8307          MVI   DX0(RW5),MDN        REPLACE POSSIBLE SS BY DN IN I/O     48552021
 004E70 4140 B57C      08E2C        8308 READ49 LA      RW4,PLEFT          STORE SOURCE FIELD                    48558021
 004E74 45E0 8000      05FB8        8309        BAL     RCS,STOR45          STORE PLEFT IN STRING                48564021
 004E78 4140 B5FA      08EAA        8310 READ50 LA      RW4,PRIGHT         STORE TARGET FIELD                    48570021
 004E7C 45E0 8000      05FB8        8311        BAL     RCS,STOR45          STORE PRIGHT                         48576021
                                    8312 *                                                                       48582021
 004E80 9101 BFAB      0985B        8313 READ52 TM      SKIPSW,MSWON                                             48588021
 004E84 4710 F5CC      04F4E        8314        BC      ONES,READ66        DONT GENR AFTER FILE ERROR            48594021
 004E88 9101 BFA6      09856        8315        TM      INTOSW,MSWON       WAS THERE DATA-NAME OPTION            48600021
 004E8C 4780 F5A0      04F22        8316        BC      ZERO,READ64          NO                                  48606021
 004E90 9101 BF81      09831        8317        TM    EOPSW,MSWON           WAS EOP FOUND                        48612021
 004E94 4780 F51A      04E9C        8318        BZ    READ53                NO   -     OK                        48618021
 004E98 45E0 9A88      078E0        8319        BAL   RCS,EOPROC            PROCESS AT EOP                       48624021
 004E9C                             8320 READ53 DS    0H                                                         48630021
 004E9C D200 5000 BE24 00000 096D4  8321          MVC   DX0(LX1,RW5),TEMP    RESTORE ORIGINAL DN HEADER          48636021
                                    8322 *                                       MODIFIED AT READ48              48642021
 004EA2 D201 BE9A B04C 0974A 088FC  8323          MVC   STO5VE(LX2),DSPSTR    YES - SAVE PRESENT STRING DISPL    48648021
 004EA8 D201 BE24 B094 096D4 08944  8324          MVC   TEMP(LX2),DSPSBS     SAVE PRESENT SBS DISPL.             48654021
 004EAE 45E0 7766      0571E        8325        BAL     RCS,GENSTR          GENR I-O VERB                        48660021
 004EB2 D201 B094 BE24 08944 096D4  8326          MVC   DSPSBS(LX2),TEMP     RESTORE SBS DISPL                   48666021
 004EB8 5810 B090      08940        8327        L       RW1,ADFSBS          RESTORE TAMM DISPL OF DEFSBS         48672021
 004EBC 5811 0000      00000        8328          L     RW1,DX0(RW1)          TO GENR SUBSCRIPTS ONCE MORE       48678021
 004EC0 D201 1004 BE24 00004 096D4  8329          MVC   DX4(LX2,RW1),TEMP                                        48684021
 004EC6 D203 BC6C B090 0951C 08940  8330          MVC   ATIB(LX4),ADFSBS                                         48690021
 004ECC 9601 BF8D      0983D        8331        OI      NOTRAL,MSWON                                             48696021
 004ED0 45E0 786E      05826        8332        BAL     RCS,GENALL          GENR SUBSCRIPTS                      48702021
 004ED4 94FE BF8D      0983D        8333        NI    NOTRAL,MSWOFF                                              48708021
 004ED8 45E0 7734      056EC        8334        BAL     RCS,GENDAT          CREATE AND GENR MOVE STRING          48714021
 004EDC 4120 A56A      08262        8335        LA      RW2,MOVEVB             MOVE                              48720021
 004EE0 45E0 7734      056EC        8336        BAL     RCS,GENDAT          WRITE MOVE TO FILE                   48726021
 004EE4 4120 B57C      08E2C        8337        LA      RW2,PLEFT              SOURCE                            48732021
 004EE8 45E0 7734      056EC        8338        BAL     RCS,GENDAT          WRITE SOURCE FIELD TO FILE           48738021
1PH40     IKFCBL40                                                                                              PAGE  174
-  LOC  OBJECT CODE    ADDR1 ADDR2  STMT   SOURCE STATEMENT                                       ASM 0201 11.03 02/14/15
0004EEC 4120 B5FA      08EAA        8339        LA      RW2,PRIGHT             TARGET                            48744021
 004EF0 5810 B048      088F8        8340        L       RW1,ASTRNG          WRITE TARGET FIELD TO FILE           48750021
 004EF4 5811 0000      00000        8341          L     RW1,DX0(RW1)        RESTORE TAMM DISPL. TO GENR ONLY     48756021
 004EF8 D201 1004 BE9A 00004 0974A  8342          MVC   DX4(LX2,RW1),STO5VE     I-O STRING ONCE MORE             48762021
 004EFE D201 B04C BE9A 088FC 0974A  8343          MVC   DSPSTR(LX2),STO5VE                                       48768021
 004F04 D501 BF4C A598 097FC 08290  8344          CLC   STRCNT(LX2),N0      WAS AFTER ADVANCING DN SUBSCRIPTE    48774021
 004F0A 4780 F5A0      04F22        8345        BC      EQ,READ64            NO                                  48780021
 004F0E 5810 B090      08940        8346        L       RW1,ADFSBS         YES - RESTORE TAMM DISPL OF DEFSB     48786021
 004F12 5811 0000      00000        8347          L     RW1,DX0(RW1)          TO GENR SUBSCRIPTS ONCE MORE       48792021
 004F16 D201 1004 BF4C 00004 097FC  8348          MVC   DX4(LX2,RW1),STRCNT                                      48798021
 004F1C D201 B094 BF4C 08944 097FC  8349          MVC   DSPSBS(LX2),STRCNT                                       48804021
                             04F22  8350 READ64 EQU     *                                                        48810021
 004F22 9101 BF81      09831        8351        TM    EOPSW,MSWON                                                48816021
 004F26 4780 F5B4      04F36        8352        BZ    READ65                GO GENR STRING                       48822021
 004F2A 9101 BFA6      09856        8353        TM    INTOSW,MSWON          WAS STRING ALREADY GENERATED         48828021
 004F2E 4710 F5B4      04F36        8354        BO    READ65                YES- EOP HAS ALREADY BEEN PROCESSED  48834021
 004F32 45E0 9A88      078E0        8355        BAL   RCS,EOPROC            NO- GO PROCESS                       48840021
 004F36 45E0 7766      0571E        8356 READ65 BAL   RCS,GENSTR            GENERATE STRING                      48846021
 004F3A 9101 BF81      09831        8357        TM    EOPSW,MSWON                                                48852021
 004F3E 47E0 F5CC      04F4E        8358        BC    NOTONE,READ66         NOT ON, GO GENR LABEL(S)             48858021
 004F42 D201 BE18 BD4C 096C8 095FC  8359          MVC   NXTSNT(LX2),GNX                                          48864021
 004F48 D201 BD4C BE02 095FC 096B2  8360          MVC   GNX(LX2),RGN+NX1                                         48870021
                             04F4E  8361 READ66 EQU     *                                                        48876021
 004F4E 9601 BF73      09823        8362        OI    GENRED,MSWON                                               48882021
 004F52 D201 BDFF BD4C 096AF 095FC  8363          MVC   GNDEF+NX1(LX2),GNX   GENR LABEL FOR NEXT STATEMENT       48888021
 004F58 45E0 7952      0590A        8364        BAL     RCS,GENLAB          PUT OUT LABEL                        48894021
 004F5C 9101 BFC5      09875        8365        TM      TEMPSW,MSWON       IS EXTRA GN NEEDED FOR ERROR CASE     48900021
 004F60 4780 F5F0      04F72        8366        BC    ZERO,READ80           NO                              5965 48906021
 004F64 94FE BFC5      09875        8367        NI      TEMPSW,MSWOFF        YES - PUT IT OUT                    48912021
 004F68 D201 BDFF BE1C 096AF 096CC  8368          MVC   GNDEF+NX1(LX2),NXTLGN                                    48918021
 004F6E 45E0 7952      0590A        8369        BAL     RCS,GENLAB          GENERATE LABEL                       48924021
 004F72                             8370 READ80 DS    0H                                                    5965 48930021
 004F72 D501 C000 A350 0988B 08048  8371        CLC   GOTTEN(LX2),CBINVL    IS IT 'INVALID'                 5965 48936021
 004F78 4770 7000      04FB8        8372        BNE   IDENT                 NO, EXIT                        5965 48942021
 004F7C 95F0 B67F      08F2F        8373        CLI   PSTFLD+NX7,MQSAM      QSAM FILE ?                     5965 48948021
 004F80 4780 F60A      04F8C        8374        BE    READ85                YES                             5965 48954021
 004F84 9510 B67F      08F2F        8375        CLI   PSTFLD+NX7,MQISAM     QISAM FILE ?                    5965 48960021
 004F88 4770 7000      04FB8        8376        BNE   IDENT                 EXIT                            5965 48966021
 004F8C                             8377 READ85 DS    0H                                                    5965 48972021
 004F8C 45E0 9BDA      07A32        8378        BAL   RCS,ERROR             WRITE ERROR MESSAGE             5965 48978021
 004F90 4110 A2DF      07FD7        8379        LA    RW1,ELST8D                                            5965 48984021
 004F94                             8380 READ90 DS    0H                                                    5965 48990021
 004F94 45E0 7566      0551E        8381        BAL   RCS,GETNXT            DISCARD TILL EOS                5965 48996021
 004F98 D501 C000 A346 0988B 0803E  8382        CLC   GOTTEN(LX2),CBEOS     IS IT EOS                       5965 49002021
 004F9E 4770 F612      04F94        8383        BNE   READ90                LOOP BACK                       5965 49008021
 004FA2 47F0 7000      04FB8        8384        B     IDENT                 EXIT                            5965 49014021
                                    8385 *                                                                       49020021
                                    8386 *      FILE FOUND IS A SORT FILE  WRITE MSG AND EXIT                    49026021
                                    8387 *                                                                       49032021
 004FA6 4100 A636      0832E        8388 FILERR1 LA    RA0,BCDRD                                                 49038021
 004FAA 45E0 9BDA      07A32        8389        BAL   RCS,ERROR             ISSUE ERROR MSG                      49044021
 004FAE 4110 A2B8      07FB0        8390        LA    RW1,ELST6B                                                 49050021
 004FB2 47F0 720C      051C4        8391        BC    UNCOND,IDERR          ERROR EXIT                           49056021
1PH40     IKFCBL40                                                                                              PAGE  175
-  LOC  OBJECT CODE    ADDR1 ADDR2  STMT   SOURCE STATEMENT                                       ASM 0201 11.03 02/14/15
0                                   8393 *=1    IDENT   PHASE-CONTROLER                                          49068021
-
-
-

 004FB8                             8395 IKF401 CSECT                                                            49080021
                             04FB8  8396 COMON1 EQU     *                                                        49086021
                                    8397 *******************************************************************     49092021
                                    8398 *                                                                       49098021
                                    8399 *                                                                       49104021
                                    8400 *                      P H A S E - C O N T R O L L E R                  49110021
                                    8401 *                                                                       49116021
                                    8402 *                                                                       49122021
                                    8403 *                                                                       49128021
                                    8404 *                                                                       49134021
                                    8405 *      PROCESSES PROGRAM-BREAKS,VERBS,AND PROCEDURE-NAMES AT POINT      49140021
                                    8406 *        DEFINITION                                                     49146021
                                    8407 *                                                                       49152021
                                    8408 *      LOGICALLY IT IS DIVIDED INTO 4 SECTIONS                          49158021
                                    8409 *                                                                       49164021
                                    8410 *              1. PHINIT - INITIALIZATION. LOADS COMMON BASE REGIST     49170021
                                    8411 *                          (IS AT END OF CONSTANT SECTION, IN ORDER     49176021
                                    8412 *                            KEEP ALL ADCONS IN CSECT4)                 49182021
                                    8413 *                          ESTABLISHES EXTERNAL ADDRESSES, PRIMES T     49188021
                                    8414 *                          TABLES, OPENS FILES, AND READS 1ST RECOR     49194021
                                    8415 *              2. IDENT  - HANDLES PROGRAM-BREAKS, LINKS BETWEEN VE     49200021
                                    8416 *                          DOES INITIALIZATION FOR VERB ANALYZERS.      49206021
                                    8417 *                          VERBS RETURN TO IDENT AFTER PROCESSING T     49212021
                                    8418 *                          OPTIONS AND OPERANDS                         49218021
                                    8419 *              3. IDLHN  - HANDLES PROCEDURE-NAMES AT POINT OF DEFI     49224021
                                    8420 *                          TION.                                        49230021
                                    8421 *              4. EOF    - FINAL HOUSEKEEPING. RELEASES TAMER TABLE     49236021
                                    8422 *                          CLOSES FILES, CALLS PHASE 5.                 49242021
                                    8423 *                                                                       49248021
                                    8424 *                                                                       49254021
                                    8425 *** SUBROUTINES CALLED                                                  49260021
                                    8426 *      VERB ANALYZERS                                                   49266021
                                    8427 *      COS,TABREL                                                       49272021
                                    8428 *      GETNXT,GETALL,COPYIN,GENDAT,GENCRD,GNXTST,ISEND,THROWE,PUPVN     49278021
                                    8429 *      PNSRTF,SRCHTB,PZSTRT,GETPVN,PACKTB,ERROR                         49284021
                                    8430 *                                                                       49290021
                                    8431 *                                                                       49296021
                                    8432 *                                                                       49302021
                                    8433 *                                                                       49308021
                                    8434 *                                                                       49314021
                                    8435 *******************************************************************     49320021
1PH40     IKFCBL40                                                                                              PAGE  176
-  LOC  OBJECT CODE    ADDR1 ADDR2  STMT   SOURCE STATEMENT                                       ASM 0201 11.03 02/14/15
1PH40     IKFCBL40                                                                                              PAGE  177
-  LOC  OBJECT CODE    ADDR1 ADDR2  STMT   SOURCE STATEMENT                                       ASM 0201 11.03 02/14/15
0                                   8438 *******************************************************************     49338021
                                    8439 *                                                                       49344021
                                    8440 *                           I D E N T                                   49350021
                                    8441 *                                                                       49356021
                                    8442 *** ENTRY POINTS                                                        49362021
                                    8443 *      IDENT - NORMAL                                                   49368021
                                    8444 *      IDCOND - WHEN NEXT STATEMENT MUST BE IMPERATIVE                  49374021
                                    8445 *      IDERR - WHEN ANALYZER HAS WRITTEN A MESSAGE THAT IT IS SKIPP     49380021
                                    8446 *                STATEMENT AND NO FURHTER ERROR MESSAGES ARE WANTED     49386021
                                    8447 *      IDGVUP - WHEN ANALYZER GIVES UP WITHOUT WRITING OWN MSG          49392021
                                    8448 *                                                                       49398021
                                    8449 *** EXIT POINTS                                                         49404021
                                    8450 *      VERB ANALYZERS, COS TO PHASE 5                                   49410021
                                    8451 *                                                                       49416021
                                    8452 *                                                                       49422021
                                    8453 *** ERROR PROCESSING                                                    49428021
                                    8454 *      IF INPUT ELEMENT IS NOT VERB, BREAK, OR PNDEF, DISCARD TILL      49434021
                                    8455 *        OF THESE IS FOUND                                              49440021
                                    8456 *      IF SWITCH 'GENRED' IS OFF -- MEANING PRECEDING VERB DID NOT      49446021
                                    8457 *        PRODUCE ITS EXPECTED STRINGS -- CONSIDER STATEMENT INCOMPL     49452021
                                    8458 *        AND WRITE MSG                                                  49458021
                                    8459 *      IF EOS OR 'ELSE' IMMEDIATELY FOLLOWS A CONDITION ('TRUVRB'       49464021
                                    8460 *        SWITCH ON), WARN STATEMENT INCOMPLETE                          49470021
                                    8461 *                                                                       49476021
                                    8462 *                                                                       49482021
                                    8463 *******************************************************************     49488021
-
                             04FB8  8465 SUPER4 EQU     *                                                        49500021
                                    8466 *                                                                       49506021
                                    8467 *                                                                       49512021
                             04FB8  8468 IDENT  EQU   *                                                          49518021
 004FB8 9101 BFB7      09867        8469        TM    SEARCHSW,MSWON                                             49524021
 004FBC 4710 721C      051D4        8470        BO    CALLSRCH              SEARCH SW ON                         49530021
 004FC0 94FE BFAF      0985F        8471          NI    SETSW,MSWOFF        TURN OFF  SET SW               58940 49536021
 004FC4 45E0 8C32      06BEA        8472        BAL     RCS,ISEND          IS WORD AN ENDWORD OF ANY KIND        49542021
 004FC8 47F0 71E6      0519E        8473        BC      UNCOND,IDER4       NO - ERROR                            49548021
 004FCC 9101 BF73      09823        8474        TM      GENRED,MSWON       HAS STATEMENT BEEN GENERATED          49554021
 004FD0 4780 71DA      05192        8475        BC      ZERO,IDER2         IF NO,ERROR                           49560021
                                    8476 *                                                                       49566021
                             04FD4  8477 ID3    EQU     *                                                        49572021
 004FD4 9544 C000      0988B        8478        CLI     GOTTEN,MVERB       IS ENTITY VERB                        49578021
 004FD8 4780 7134      050EC        8479        BC    EQ,ID5                YES                                  49584021
 004FDC 9601 BF73      09823        8480        OI      GENRED,MSWON       AVOID FURTHER 'INCOMPLETE' MESSAG     49590021
 004FE0 9506 C000      0988B        8481        CLI     GOTTEN,MPND        IS IT LHN                             49596021
 004FE4 4780 7224      051DC        8482        BC      EQ,IDLHN            YES                                  49602021
 004FE8 9542 C000      0988B        8483        CLI     GOTTEN,MBREAK                                            49608021
 004FEC 4780 7062      0501A        8484        BC      EQ,IDBRK            IS IT A BREAK                        49614021
 004FF0 9588 C000      0988B        8485        CLI     GOTTEN,MLGN        IS IT LGN (Q-ROUTINE VERBS)           49620021
 004FF4 4770 71E6      0519E        8486        BC      NOTEQ,IDER4           NO - ERROR                         49626021
 004FF8 45E0 78C6      0587E        8487        BAL     RCS,GENCRD         GENR CARDNUM IF FROM REPORT WRITE     49632021
 004FFC 9101 BF63      09813        8488        TM    PGMBRK+NX1,MSWON  LGN FOLLOWS END OF DECL. ?          7898 49638021
 005000 4780 7056      0500E        8489        BZ      ID40           NO, GENR GNDEF                       7898 49644021
 005004 D201 BC95 C001 09545 00001  8490        MVC   GNSV2+NX1(LX2),DX1(RIN)  SAVE INPUT - GNDEF           7898 49650021
1PH40     IKFCBL40                                                                                              PAGE  178
-  LOC  OBJECT CODE    ADDR1 ADDR2  STMT   SOURCE STATEMENT                                       ASM 0201 11.03 02/14/15
000500A 47F0 705A      05012        8491        BC    UNCOND,ID41      GET NEXT INPUT                       7898 49656021
 00500E                             8492 ID40   DS    0H                                                    7898 49662021
 00500E 45E0 7754      0570C        8493        BAL   RCS,COPYIN       WRITE FROM CURRENT INPUT             7898 49668021
 005012                             8494 ID41   DS    0H                                                    7898 49674021
 005012 45E0 7566      0551E        8495        BAL     RCS,GETNXT          GET NEXT INPUT                       49680021
 005016 47F0 7000      04FB8        8496        BC      UNCOND,IDENT        RETURN                               49686021
                                    8497 *                                                                       49692021
                                    8498 *                           PROGRAM BREAK FOUND                         49698021
                                    8499 *                                                                       49704021
                             0501A  8500 IDBRK  EQU     *                                                        49710021
 00501A 9508 C001      0988C        8501          CLI   GOTTEN+NX1,MENDCL    IS IT END DECL.                     49716021
 00501E 4770 7076      0502E        8502        BC      NOTEQ,IDBRK2        NO                                   49722021
 005022 9601 BF63      09813        8503          OI    PGMBRK+NX1,MSWON  YES- DEFER STORING TILL IDLHN CLEAN    49728021
 005026 45E0 7566      0551E        8504        BAL     RCS,GETNXT          GET NEXT INPUT                       49734021
 00502A 47F0 701C      04FD4        8505        BC      UNCOND,ID3          RETURN FOR NEXT                      49740021
                             0502E  8506 IDBRK2 EQU     *                                                        49746021
 00502E 9507 BF62      09812        8507        CLI     PGMBRK,MDECL       WAS LAST BREAK 'DECLARATIVES'         49752021
 005032 4770 7096      0504E        8508        BC      NOTEQ,IDBRK4         NO                                  49758021
 005036 950D C001      0988C        8509          CLI   GOTTEN+NX1,SEGBK                                         49764021
 00503A 4770 708E      05046        8510        BNE     IDBRK3              NOT SEGMENTATION CONTROL BLOCK       49770021
 00503E 45E0 7566      0551E        8511        BAL     RCS,GETNXT          GET NEXT INPUT                       49776021
 005042 47F0 7224      051DC        8512        B     IDLHN                 LHN FOUND                            49782021
 005046 45E0 9BDA      07A32        8513 IDBRK3 BAL   RCS,ERROR             WRITE MESSAGE                        49788021
 00504A 4110 A240      07F38        8514        LA      RW1,ELST57              MISSING                          49794021
 00504E D501 C000 A530 0988B 08228  8515 IDBRK4   CLC   GOTTEN(LX2),EOFWD                                        49800021
 005054 4780 753C      054F4        8516        BC      EQ,EOF             EXIT FOR EOF                          49806021
 005058 D200 BF62 C001 09812 0988C  8517          MVC   PGMBRK(LX1),GOTTEN+NX1 SAVE PROGRAM BREAK FOR PN OF TH   49812021
                                    8518 *                                  PROCEDURE BRANCHING STATEMENTS       49818021
 00505E 9509 C001      0988C        8519          CLI   GOTTEN+NX1,MDUGPK   START OF DEBUG PACKET          48971 49824021
 005062 4780 70DE      05096        8520          BE    IDBRK5              YES, IT IS DEBUG PACKET        48971 49830021
 005066 950A C001      0988C        8521          CLI   GOTTEN+NX1,MQRT         IS IT BEGINNING OF Q-RTNS        49836021
 00506A 4780 70DE      05096        8522          BE    IDBRK5                  YES - DO NOT COPY YET            49842021
 00506E 950D C001      0988C        8523          CLI   GOTTEN+NX1,SEGBK             SEGT BK                     49848021
 005072 4780 70C2      0507A        8524        BE    *+8     YES-DONT COPY YET                                  49854021
 005076 45E0 7754      0570C        8525        BAL     RCS,COPYIN         COPY BREAK                            49860021
 00507A 45E0 7566      0551E        8526        BAL   RCS,GETNXT            GET NEXT INPUT                       49866021
 00507E 9506 BF62      09812        8527        CLI     PGMBRK,MPRDIV      IS IT START OF SOURCE PROC. DIV.      49872021
 005082 4770 7000      04FB8        8528        BC      NOTEQ,IDENT         NO                                   49878021
 005086 D201 BCB9 BEDC 09569 0978C  8529          MVC   CARDNO(LX2),NXTCRD+NX1 YES - SAVE SEQ FOR ERROR BEFORE   49884021
 00508C D701 BEDC BEDC 0978C 0978C  8530          XC    NXTCRD+NX1(LX2),NXTCRD+NX1 VERB BUT DONT WRITE ON FILE   49890021
 005092 47F0 7000      04FB8        8531        BC      UNCOND,IDENT        RETURN                               49896021
 005096 91FF BE51      09701        8532 IDBRK5 TM    SEGLM,NONSEG          SEGT WITH Q-RTN                      49902021
 00509A 4710 7128      050E0        8533          BO    ID6                     NO - OK                          49908021
 00509E D500 BF64 BE51 09814 09701  8534          CLC   PTYCEL(LX1),SEGLM           SEGMENT LIMIT          41085 49914021
 0050A4 4740 7128      050E0        8535          BL    ID6                     NO - STILL OK                    49920021
 0050A8 1B22                        8536        SR    RW2,RW2              ISSUE DUMMY PN                        49926021
 0050AA 4820 BEA2      09752        8537          LH    RW2,NUMER           WITH PRIORITY ZERO                   49932021
 0050AE 4122 0001      00001        8538          LA    RW2,DX1(RW2)         AND 420D                            49938021
 0050B2 4020 BEA2      09752        8539          STH   RW2,NUMER           NEXT PN NUM                          49944021
 0050B6 9200 BEA1      09751        8540          MVI   PRIOR,XX00           PRIORITY ZERO                       49950021
 0050BA 45E0 7734      056EC        8541        BAL   RCS,GENDAT            GENERATE THE BREAK                   49956021
 0050BE 4120 BE52      09702        8542        LA    RW2,SEGMNBR                                                49962021
 0050C2 45E0 7754      0570C        8543          BAL   RCS,COPYIN            COPY Q-RTN BREAK                   49968021
 0050C6 45E0 7566      0551E        8544          BAL   RCS,GETNXT                  GET NEXT INPUT               49974021
 0050CA 45E0 7734      056EC        8545        BAL   RCS,GENDAT            AND THE PN                           49980021
1PH40     IKFCBL40                                                                                              PAGE  179
-  LOC  OBJECT CODE    ADDR1 ADDR2  STMT   SOURCE STATEMENT                                       ASM 0201 11.03 02/14/15
00050CE 4120 BEA0      09750        8546        LA    RW2,PNDEF                                                  49986021
 0050D2 5810 A328      08020        8547          L     RW1,COSADR          ESTABLISH BASE ADDRESS         46514 49992021
 0050D6 D201 115C BEA2 0015C 09752  8548          MVC   PNCTR(LX2),NUMER    MOVE PN NUMBER                 46514 49998021
 0050DC 47F0 7000      04FB8        8549          BC    UNCOND,IDENT            RETURN FOR VERB                  50004021
                             050E0  8550 ID6      EQU   *                                                        50010021
 0050E0 45E0 7754      0570C        8551          BAL   RCS,COPYIN              COPY Q-RTN BREAK                 50016021
 0050E4 45E0 7566      0551E        8552          BAL   RCS,GETNXT              GET NEXT INPUT                   50022021
 0050E8 47F0 7000      04FB8        8553          BC    UNCOND,IDENT              EXIT                           50028021
                                    8554 *                                                                       50034021
                                    8555 *                                 VERB FOUND                            50040021
                                    8556 *                                                                       50046021
                                    8557 *                                                                       50052021
                                    8558 *                                                                       50058021
                             050EC  8559 ID5    EQU     *                                                        50064021
 0050EC 94FE BFAC      0985C        8560        NI      MSGSW,MSWOFF       OFF ERR-MSG ONCE-ONLY SW              50070021
 0050F0 D200 BE49 C001 096F9 0988C  8561          MVC   VERB+NX1(LX1),GOTTEN+NX1 STORE VERB FOR ERROR MSG        50076021
 0050F6 D501 C000 A346 0988B 0803E  8562          CLC   GOTTEN(LX2),CBEOS   IS IT '.'                            50082021
 0050FC 4780 71C2      0517A        8563        BC      EQ,ID9             YES                                   50088021
 005100 D201 BE56 C000 09706 0988B  8564          MVC   VERB44(LX2),GOTTEN                                       50094021
 005106 D501 C000 A344 0988B 0803C  8565          CLC   GOTTEN(LX2),CBELSE  IS IT ELSE                           50100021
 00510C 4780 71C2      0517A        8566        BC      EQ,ID9               YES                                 50106021
 005110 94FE BF6B      0981B        8567        NI      PSKPGO,MSWOFF     OFF 'GO-WAS-LAST' SW EXCEPT FOR EL     50112021
 005114 45E0 7F5C      05F14        8568 ID8    BAL     RCS,PZSTRT         REINIT. STRING TABLE                  50118021
 005118 4120 B048      088F8        8569        LA    RW2,ASTRNG                                                 50124021
 00511C 4110 B090      08940        8570        LA    RW1,ADFSBS                 AND DEFSBS                      50130021
 005120 92FF BE65      09715        8571          MVI   MODE+NX1,MFF        INIT MODES FOR ERROR MSGS            50136021
 005124 92FF B5F9      08EA9        8572          MVI   MODEL+NX1,MFF                                            50142021
 005128 92FF B677      08F27        8573          MVI   MODER+NX1,MFF                                            50148021
 00512C D700 BE9C BE9C 0974C 0974C  8574          XC    STO5CT(LX1),STO5CT   INITIALIZE STO5 ENTRIES             50154021
 005132 94FE BFC2      09872        8575        NI      STO5SW,MSWOFF       INITIALIZE STO5 SW                   50160021
 005136 94FE BF73      09823        8576        NI      GENRED,MSWOFF      OFF 'INCOMPLETE' SW FOR NEXT VERB     50166021
 00513A 94FE BF9B      0984B        8577        NI      CONDSW,MSWOFF                                            50172021
 00513E 1B11                        8578        SR    RW1,RW1              GIVE RW1 CODE-BYTE FOR VERB           50178021
 005140 4010 BE98      09748        8579        STH     RW1,STO5J           INITIALIZE STO5 ENTRIES              50184021
 005144 4010 BE9A      0974A        8580        STH     RW1,STO5VE          INITIALIZE STO5 ENTRIES              50190021
 005148 45E0 78C6      0587E        8581        BAL     RCS,GENCRD         GENR CARD-NUMBER FOR STATEMENT        50196021
 00514C 4310 C001      0988C        8582          IC    RW1,GOTTEN+NX1                                           50202021
 005150 8B10 0002      00002        8583          SLA   RW1,DX2                                                  50208021
 005154 4910 A576      0826E        8584        CH      RW1,HIVERB         IS IT BEYOND IC-TEXT LIMITS           50214021
 005158 4740 71AC      05164        8585        BC      LO,ID8X                      NO                          50220021
 00515C 45E0 7566      0551E        8586        BAL     RCS,GETNXT         DISCARD HOPING PH1 COMMENTED          50226021
 005160 47F0 701C      04FD4        8587        BC      UNCOND,ID3         RETURN FOR NEXT                       50232021
                             05164  8588 ID8X   EQU   *                                                          50238021
 005164 43F1 A2EC      07FE4        8589        IC      RVRB,AVRB(RW1)     STORE ELEMENT COUNT FOR THIS VERB     50244021
 005168 42F0 BE4A      096FA        8590          STC   RVRB,VERB+NX2                                            50250021
 00516C 58F1 A2EC      07FE4        8591        L     RVRB,AVRB(RW1)             LOAD BASE REGISTER FOR VERB     50256021
 005170 45E0 7566      0551E        8592        BAL   RCS,GETNXT                   ANALYZER, AND GO PROCESS      50262021
 005174 50F0 B54C      08DFC        8593        ST    RVRB,VRBASE          SAVE VERB'S BASE REGISTER             50268021
 005178 07FF                        8594        BCR   UNCOND,RVRB           GO TO VERB ANALYZER RTN              50274021
                                    8595 *                                                                       50280021
                                    8596 *                 PERIOD OR 'ELSE' FOUND                                50286021
                                    8597 *                                                                       50292021
                             0517A  8598 ID9    EQU     *                                                        50298021
 00517A 94FE BF9C      0984C        8599        NI      TRUVRB,MSWOFF    IMPERATIVES-ONLY NEED NOW OVER          50304021
 00517E 9101 BF9B      0984B        8600        TM      CONDSW,MSWON     WAS CONCLUSION TO A CONDITION NEEDE     50310021
1PH40     IKFCBL40                                                                                              PAGE  180
-  LOC  OBJECT CODE    ADDR1 ADDR2  STMT   SOURCE STATEMENT                                       ASM 0201 11.03 02/14/15
0005182 4780 715C      05114        8601        BC      ZERO,ID8             NO                                  50316021
 005186 45E0 9BDA      07A32        8602        BAL     RCS,ERROR           YES - CONDITION HAS NO CONCLUSIO     50322021
 00518A 4110 A0C6      07DBE        8603        LA      RW1,ELST20                                               50328021
 00518E 47F0 715C      05114        8604        BC      UNCOND,ID8          GO TO REINIT. STRING TABLE           50334021
                                    8605 *                                                                       50340021
                                    8606 *              GENRED SWITCH OFF ON RETURN FROM ANALYZER - ERROR        50346021
                                    8607 *                                                                       50352021
 005192 45E0 9BCE      07A26        8608 IDER2  BAL     RCS,ERONCE          INCOMPLETE STATEMENT                 50358021
 005196 4110 A003      07CFB        8609        LA      RW1,ELST02                                               50364021
 00519A 47F0 701C      04FD4        8610        BC      UNCOND,ID3          RETURN FOR NEXT                      50370021
                                    8611 *                                                                       50376021
                                    8612 *              NON-ENDWORD FOUND BY IDENT                               50382021
                                    8613 *                                                                       50388021
                             0519E  8614 IDER4  EQU     *                                                        50394021
 00519E D501 C000 A3FC 0988B 080F4  8615          CLC   GOTTEN(LX2),CBON    IS IT AN 'ON' THAT PH1 REJECTED      50400021
 0051A4 4770 71F8      051B0        8616        BC      NOTEQ,IDER5         NO                                   50406021
 0051A8 9244 C000      0988B        8617        MVI     GOTTEN,MVERB        YES - CHANGE IT TO VERB              50412021
 0051AC 47F0 7000      04FB8        8618        BC      UNCOND,IDENT        GO PROCESS                           50418021
                             051B0  8619 IDER5  EQU     *                                                        50424021
 0051B0 45E0 9BDA      07A32        8620        BAL     RCS,ERROR           WRITE MESSAGE                        50430021
 0051B4 4110 A009      07D01        8621        LA      RW1,ELST03                                               50436021
 0051B8 47F0 720C      051C4        8622        BC      UNCOND,IDERR        ERROR EXIT                           50442021
                                    8623 *                                                                       50448021
                                    8624 *              ANALYZER GAVE UP, SENDING PARAM IN RA0 AND LETTING       50454021
                                    8625 *                           IDENT WRITE THE MSG                         50460021
                                    8626 *                                                                       50466021
 0051BC 45E0 9BDA      07A32        8627 IDGVUP BAL     RCS,ERROR           WRITE MESSAGE                        50472021
 0051C0 4110 A144      07E3C        8628        LA      RW1,ELST32                                               50478021
 0051C4 9101 BFB7      09867        8629 IDERR  TM    SEARCHSW,MSWON                                             50484021
 0051C8 4710 721C      051D4        8630        BO    CALLSRCH              SEARCH SWITCH ON                     50490021
 0051CC 45E0 7716      056CE        8631        BAL   RCS,THROWE            DISCARD TILL ENDWORD                 50496021
 0051D0 47F0 701C      04FD4        8632        BC      UNCOND,ID3          RETURN FOR NEXT                      50502021
                             051D4  8633 CALLSRCH EQU *                                                          50508021
 0051D4 58F0 A464      0815C        8634        L     RVRB,ASRCH                                                 50514021
                             03798  8635        USING  SEARCH,RVRB                                               50520021
 0051D8 47F0 F1F6      0398E        8636        B     SRCH11                GO TO SEARCH                         50526021
1PH40     IKFCBL40                                                                                              PAGE  181
-  LOC  OBJECT CODE    ADDR1 ADDR2  STMT   SOURCE STATEMENT                                       ASM 0201 11.03 02/14/15
0                                   8638 *                                                                       50538021
                                    8639 *=2    IDLHN   LHN HANDLING                                             50544021
                                    8640 *                                                                       50550021
                                    8641 *                                                                       50556021
                                    8642 *******************************************************************     50562021
                                    8643 *                                                                       50568021
                                    8644 *                                                                       50574021
                                    8645 *                             L H N  FOUND                              50580021
                                    8646 *                                                                       50586021
                                    8647 *                                                                       50592021
                                    8648 *** NOTES                                                               50598021
                                    8649 *      PHASE 1 SETS A BIT IN THE ATTRIBUTES OF EVERY PN FOR EACH OF     50604021
                                    8650 *        THE FOLLOWING CONDITIONS                                       50610021
                                    8651 *                                                                       50616021
                                    8652 *        IT IS A SECTION NAME                                           50622021
                                    8653 *        IT IS ALTERED                                                  50628021
                                    8654 *        IT PRECEDES A SIMPLE GO STATEMENT                              50634021
                                    8655 *        IT PRECEDES AN EXIT STATEMENT                                  50640021
                                    8656 *        IT IS THE END-OF-RANGE OF A PERFORM                            50646021
                                    8657 *        IT IS REFERENCED BY *DEBUG                                     50652021
                                    8658 *        IT IS DEFINED UNDER *DEBUG                                     50658021
                                    8659 *        IT IS A DUMMY CREATED BY PHASE 1                               50664021
                                    8660 *                                                                       50670021
                                    8661 *      ALTER,PERFORM BITS ON AN LHN CAUSE AN ENTRY TO BE MADE IN VN     50676021
                                    8662 *      PERFORM BIT CAUSES ID OF  N E X T  PN TO GO INTO PFMTBL          50682021
                                    8663 *      DEBUG-REFERENCE BIT CAUSES THE PN, ITS RPD NUMBER, AND A GN      50688021
                                    8664 *        GO INTO DBGTBL AND 'CALL GN' TO BE GENERATED                   50694021
                                    8665 *      IF PHASE 1 FOUND A 'READY TRACE' ANYWHERE IN THE PROCEDURE       50700021
                                    8666 *        DIVISION, IT TURNED ON A SWITCH IN COMMON.  IF THIS SWITCH     50706021
                                    8667 *        IS ON PHASE 4 GENERATES A TRACE VERB AFTER EVERY LHN EXCEP     50712021
                                    8668 *        DUMMIES                                                        50718021
                                    8669 *      SECTION NAMES INCLUDE AMONG THEIR ATTRIBUTES THEIR RPD NUMBE     50724021
                                    8670 *        AND THE ID OF THE FOLLOWING SECTION.  THESE ARE SAVED ALON     50730021
                                    8671 *        WITH THE SN'S OWN ID TO ALLOW CHECKING LEGALITY OF PROCEDU     50736021
                                    8672 *        BRANCHING STATEMENTS                                           50742021
                                    8673 *      FIRST 2 BYTES OF ATTRIBUTES ARE ZEROED ON EXIT FROM IDLHN UN     50748021
                                    8674 *        GO OR EXIT BIT IS ON.  THUS ATTRIBUTES TELL GO AND EXIT        50754021
                                    8675 *        ANALYZERS THAT A PN DID OR DID NOT IMMEDIATELY PRECEDE THE     50760021
                                    8676 *        VERB                                                           50766021
                                    8677 *                                                                       50772021
                                    8678 *                                                                       50778021
                                    8679 *******************************************************************     50784021
-
 0051DC                             8681        DS      0H                                                       50796021
                             051DC  8682 IDLHN  EQU     *                                                        50802021
 0051DC 94FE BFCA      0987A        8683        NI    SEGSW,MSWOFF                                               50808021
 0051E0 4810 BD42      095F2        8684          LH    RW1,SAVLHN+NX4      SAVE OLD ID INCASE NEW IS UNDEFIN    50814021
 0051E4 45E0 76EC      056A4        8685        BAL     RCS,GETALL          MOVE ENTIRE ENTITY TO STORAGE        50820021
 0051E8 4120 BD3E      095EE        8686        LA      RW2,SAVLHN           YES -  SAVE IT                      50826021
 0051EC 91FF C002      00002        8687          TM    DX2(RIN),MFF        IS THIS A GOOD PN                    50832021
 0051F0 47E0 7266      0521E        8688        BC      NOTONE,IDLHBG        YES                                 50838021
 0051F4 D701 BD40 BD40 095F0 095F0  8689          XC    SAVLHN+NX2(LX2),SAVLHN+NX2 NO-TURN OFF ITS ATTRIBUTE BIT 50844021
 0051FA 45E0 9DA6      07BFE        8690        BAL     RCS,PH3ERP         WRITE CONCLUSION TO PH3 MSG           50850021
1PH40     IKFCBL40                                                                                              PAGE  182
-  LOC  OBJECT CODE    ADDR1 ADDR2  STMT   SOURCE STATEMENT                                       ASM 0201 11.03 02/14/15
00051FE 4111 0001      00001        8691          LA    RW1,DX1(RW1)        RECONSTRUCT AND STORE ITS ID         50856021
 005202 4010 BD42      095F2        8692          STH   RW1,SAVLHN+NX4                                           50862021
 005206 9604 BD40      095F0        8693          OI    SAVLHN+NX2,MEXTBT   TURN ON EXIT BIT JUST IN CASE        50868021
 00520A D501 BD42 BD46 095F2 095F6  8694          CLC   PNUM(LX2),NXTSN      IS IT A SECTION                     50874021
 005210 4770 72E6      0529E        8695        BC   NOTEQ,IDLHB1    NO                                          50880021
 005214 9640 BD40      095F0        8696          OI    SAVLHN+NX2,MSNBIT     YES - GIVE IT THE BIT              50886021
 005218 D201 BD46 A5BE 095F6 082B6  8697          MVC   NXTSN(LX2),NFFFF NEXT GETS MAX ID TO AVOID MSG 10        50892021
 00521E 91FF BE51      09701        8698 IDLHBG TM    SEGLM,NONSEG      IS PROGRAM SEGMENTED                     50898021
 005222 4710 72E6      0529E        8699        BO    IDLHB1   NO- AVOID FURTHER CHECKING                        50904021
 005226 D501 BD42 A59C 095F2 08294  8700          CLC   PNUM(LX2),N1 IS THIS DUMMY PN1                           50910021
 00522C 4780 72CE      05286        8701        BE    IDLH0A                YES                                  50916021
 005230 D500 BF64 BD45 09814 095F5  8702          CLC   PTYCEL(LX1),PNPTY    HAS PRIORITY CHANGED                50922021
 005236 4780 72E6      0529E        8703        BE    IDLHB1   NO                                                50928021
 00523A 9601 BFCA      0987A        8704        OI    SEGSW,MSWON    SET SW TO LATER GENERATE 420D               50934021
                                    8705 *                          AND GO TO NEXT SECTION BEFORE PNDEF          50940021
 00523E D501 BD40 753A 095F0 054F2  8706          CLC   SAVLHN+NX2(LX2),SECDUMMY    DUMMY SEC PN TXT       57827 50946021
 005244 4770 72A8      05260        8707          BNE   IDLHBG1             NO  SKIP                       57827 50952021
 005248 45E0 7566      0551E        8708          BAL   RCS,GETNXT          GETTING NEXT REC               57827 50958021
 00524C 9601 BF74      09824        8709          OI    NEXTIN,MSWON        INDICATES INPUT IS NEXT REC    57827 50964021
 005250 D501 C000 7538 0988B 054F0  8710          CLC   GOTTEN(LX2),DBGPKT    DEBUG PACKET FOLLOWS         57827 50970021
 005256 4770 72A8      05260        8711          BNE   IDLHBG1             NO SKIP                        57827 50976021
 00525A D200 BD45 BF64 095F5 09814  8712          MVC   PNPTY(LX1),PTYCEL   YES INSERT CURRENT PRIORITY    57827 50982021
 005260                             8713 IDLHBG1  DS    0H                                                 57827 50988021
 005260 47F0 72E6      0529E        8714        B     IDLHB1                DO NOT CHECK ANY MORE                50994021
                                    8715 *                                                                       51000021
                                    8716 *                                                                       51006021
 005264 D200 BF64 BD45 09814 095F5  8717 IDLHB0   MVC   PTYCEL(LX1),PNPTY                                        51012021
 00526A 45E0 7734      056EC        8718        BAL    RCS,GENDAT   GENERATE GO TO                               51018021
 00526E 4120 BE4E      096FE        8719        LA    RW2,GOSEGT                                                 51024021
 005272 D201 BEA6 BD42 09756 095F2  8720          MVC   RNUMER(LX2),PNUM   NEXT SECTION                          51030021
 005278 D200 BEA5 BD45 09755 095F5  8721          MVC   RPRIOR(LX1),PNPTY                                        51036021
 00527E 45E0 7734      056EC        8722        BAL    RCS,GENDAT           GENERATE PN REF                      51042021
 005282 4120 BEA4      09754        8723        LA    RW2,PNREF                                                  51048021
 005286 45E0 7734      056EC        8724 IDLH0A BAL   RCS,GENDAT           ISSUE SEGT CONTROL BK                 51054021
 00528A 4120 BE52      09702        8725        LA    RW2,SEGMNBR                                                51060021
 00528E 9101 BFCA      0987A        8726        TM    SEGSW,MSWON   PN1 OR OTHER                                 51066021
 005292 4710 742C      053E4        8727        BO    IDLH8Y                OTHER- ALREADY PROCESSED             51072021
 005296 45E0 72FA      052B2        8728        BAL    RCS,IDLH1A           PN1                                  51078021
 00529A 47F0 739E      05356        8729        BC    UNCOND,IDLH02         INITIALIZE NEW SECTION NAME          51084021
 00529E 45E0 72EE      052A6        8730 IDLHB1 BAL   RCS,IDLH01            MOVE PN TO RHN,MOVE PRIORTY-N        51090021
 0052A2 47F0 739E      05356        8731        BC      UNCOND,IDLH02       INIT NEW SECTION NAME                51096021
                                    8732 *                                                                       51102021
                                    8733 *              PROVIDE END-OF-PERFORM CODING IF APPLICABLE              51108021
                                    8734 *              (THIS BLOCK ALSO CALLED BY DEBUGG)                       51114021
                                    8735 *                                                                       51120021
 0052A6 D201 BEA6 BD42 09756 095F2  8736 IDLH01   MVC   RNUMER(LX2),PNUM     MOVE IN PN ID TO RHN                51126021
 0052AC D200 BEA5 BD45 09755 095F5  8737          MVC   RPRIOR(LX1),PNPTY    MOVE IN PRIORITY NUM                51132021
 0052B2 D201 BE90 BD42 09740 095F2  8738 IDLH1A   MVC   SRCHNM(LX2),SAVLHN+NX4                                   51138021
 0052B8 50E0 B4D0      08D80        8739        ST      RCS,SVIDLH                                               51144021
 0052BC 5810 B060      08910        8740        L       RW1,APFMTB                                               51150021
 0052C0 45E0 7DF8      05DB0        8741        BAL     RCS,SRCHTB          IS IT IN PFMTBL                      51156021
 0052C4 47F0 7398      05350        8742        BC      UNCOND,IDLH00       NOT IN TABLE                         51162021
 0052C8 45E0 7734      056EC        8743        BAL     RCS,GENDAT          YES, WRITE OUTPUT                    51168021
 0052CC 4120 A55E      08256        8744        LA      RW2,CBGO            YES - GENR GO                        51174021
 0052D0 D201 BEAE BEC8 0975E 09778  8745          MVC   VNID(LX2),VNNUM VNNUM GIVEN BY SRCHTB                    51180021
1PH40     IKFCBL40                                                                                              PAGE  183
-  LOC  OBJECT CODE    ADDR1 ADDR2  STMT   SOURCE STATEMENT                                       ASM 0201 11.03 02/14/15
00052D6 D200 BEAD BF64 0975D 09814  8746          MVC   VNPTY(LX1),PTYCEL      MOVE CURENT PTY INTO EQU VN       51186021
 0052DC D201 BEB2 BEC8 09762 09778  8747          MVC   DVNID(LX2),VNNUM SET UP VN DEF                           51192021
 0052E2 D200 BEB1 BD45 09761 095F5  8748          MVC   DVNPTY(LX1),PNPTY                                        51198021
 0052E8 45E0 7734      056EC        8749        BAL     RCS,GENDAT          WRITE 'GO' TO OUTPUT                 51204021
 0052EC 4120 BEAC      0975C        8750        LA      RW2,VNREF                      VN (REF)                  51210021
 0052F0 45E0 7734      056EC        8751        BAL     RCS,GENDAT          WRITE 'EQU' TO OUTPUT                51216021
 0052F4 4120 A561      08259        8752        LA      RW2,EQUVRB                     EQU                       51222021
 0052F8 9532 BF64      09814        8753        CLI   PTYCEL,INDEP          IS CURRENT PTY INDEP                 51228021
 0052FC 4740 734C      05304        8754        BL    IDLH1B                NO- OK                               51234021
 005300 9680 BEAD      0975D        8755          OI    VNPTY,XX80           YES-TURN ON HIGH ORDER BIT          51240021
 005304 45E0 7734      056EC        8756 IDLH1B BAL   RCS,GENDAT            WRITE VN-REF TO OUTPUT               51246021
 005308 4120 BEAC      0975C        8757        LA      RW2,VNREF          VN(REF)                               51252021
 00530C 9507 BF62      09812        8758          CLI   PGMBRK,MDECL        ARE WE IN DECLARATIVES               51258021
 005310 4770 7380      05338        8759          BC    NOTEQ,IDLH0X          NO                                 51264021
 005314 45E0 9A72      078CA        8760        BAL     RCS,PUPLGN         YES                                   51270021
 005318 D201 BE02 BE1C 096B2 096CC  8761          MVC   GNREF+NX1(LX2),NXTLGN                                    51276021
 00531E D201 BDFF BE1C 096AF 096CC  8762          MVC   GNDEF+NX1(LX2),NXTLGN                                    51282021
 005324 45E0 7734      056EC        8763        BAL     RCS,GENDAT         EQU  VN                               51288021
 005328 4120 BE01      096B1        8764        LA      RW2,GNREF           GN                                   51294021
 00532C 45E0 7734      056EC        8765        BAL     RCS,GENDAT          WRITE GN-DEF TO OUTPUT               51300021
 005330 4120 BDFE      096AE        8766        LA      RW2,GNDEF          GNDEF TO ATTACH TO DEBUG RETURN       51306021
 005334 47F0 738C      05344        8767        BC      UNCOND,IDLH0Y       REMOVE ENTRIES FROM PFMTBL           51312021
                             05338  8768 IDLH0X EQU     *                                                        51318021
 005338 9604 BD40      095F0        8769          OI    SAVLHN+NX2,MNDPFM    MARK PN AS END-PERFORM              51324021
 00533C 45E0 7734      056EC        8770        BAL     RCS,GENDAT          WRITE PN-REF                         51330021
 005340 4120 BEA4      09754        8771        LA      RW2,PNREF                      PN (REF)                  51336021
                             05344  8772 IDLH0Y EQU     *                                                        51342021
 005344 45E0 7EDC      05E94        8773        BAL     RCS,PACKTB          REMOVE ENTRY FROM PFMTBL             51348021
 005348 5830 BEC4      09774        8774        L       RW3,TABADR             MOVE UP FROM TABADR+4             51354021
 00534C 4123 0004      00004        8775          LA    RW2,DX4(RW3)                      TO TABADR              51360021
 005350 58E0 B4D0      08D80        8776 IDLH00 L       RCS,SVIDLH                                               51366021
 005354 07FE                        8777        BCR     UNCOND,RCS          RETURN TO CALLER                     51372021
                                    8778 *                                                                       51378021
                                    8779 *                           INITIALIZE NEW SECTION-NAME                 51384021
                                    8780 *                                                                       51390021
                             05356  8781 IDLH02 EQU     *                                                        51396021
 005356 9140 BD40      095F0        8782          TM    SAVLHN+NX2,MSNBIT   IS IT SECTION                        51402021
 00535A 4780 742C      053E4        8783        BC    ZERO,IDLH8Y           GENR THE LHN                         51408021
 00535E 9507 BF62      09812        8784        CLI     PGMBRK,MDECL        ARE WE IN DECLARATIVES               51414021
 005362 4770 73C6      0537E        8785        BC      NOTEQ,IDLH06        NO                                   51420021
 005366 9601 BFC3      09873        8786        OI      TRCUSW,MSWON       PREVENT TRACE-CODING TILL AFTER U     51426021
 00536A 9500 BEF5      097A5        8787          CLI   ENDUSE+NX1,XX00     IS END-OF-USE VERB NEEDED (USE AN    51432021
 00536E 4780 73C6      0537E        8788        BC      EQ,IDLH06                   YZER STORED IT)              51438021
 005372 45E0 7734      056EC        8789        BAL     RCS,GENDAT           YES - GENR IT AND ZERO IT           51444021
 005376 4120 BEF4      097A4        8790        LA      RW2,ENDUSE                                               51450021
 00537A 9200 BEF5      097A5        8791          MVI   ENDUSE+NX1,XX00                                          51456021
                             0537E  8792 IDLH06 EQU     *                                                        51462021
 00537E D201 BD4A BD42 095FA 095F2  8793          MVC   THISSN(LX2),SAVLHN+DX4     SAVE SECTION ID         57827 51468021
 005384 9101 BF63      09813        8794 IDLH8X   TM    PGMBRK+NX1,MSWON                                         51474021
 005388 4780 73FA      053B2        8795        BC    ZERO,IDLH8A           SEE IF DUMMY PN                      51480021
 00538C 94FE BF63      09813        8796          NI    PGMBRK+NX1,MSWOFF                                        51486021
 005390 9208 BF62      09812        8797        MVI     PGMBRK,MENDCL         YES - STORE FOR MAIN BODY          51492021
 005394 94FE BFC3      09873        8798        NI      TRCUSW,MSWOFF                                            51498021
 005398 D501 BC95 A598 09545 08290  8799        CLC   GNSV2+DX1(LX2),N0     ANY STMT IN DECL                     51504021
 00539E 4780 73F2      053AA        8800        BE    IDLHBK           NO                                        51510021
1PH40     IKFCBL40                                                                                              PAGE  184
-  LOC  OBJECT CODE    ADDR1 ADDR2  STMT   SOURCE STATEMENT                                       ASM 0201 11.03 02/14/15
00053A2 45E0 7734      056EC        8801        BAL   RCS,GENDAT       WRITE OUT GNDEF                           51516021
 0053A6 4120 BC94      09544        8802        LA    RW2,GNSV2                                                  51522021
 0053AA                             8803 IDLHBK DS    0H                                                         51528021
 0053AA 45E0 7734      056EC        8804        BAL     RCS,GENDAT         WRITE OUT END-DECLARATIVES            51534021
 0053AE 4120 A57E      08276        8805        LA      RW2,NDCBRK                                               51540021
                                    8806 *                                                                       51546021
                                    8807 *                        GENERATE THE LHN                               51552021
                                    8808 *                                                                       51558021
 0053B2 9120 BD41      095F1        8809 IDLH8A   TM    SAVLHN+NX3,MDUMBT                                        51564021
 0053B6 4780 7424      053DC        8810        BC    ZERO,IDLH08           SEE IF SEGT CODE NEC                 51570021
 0053BA 9104 BD40      095F0        8811          TM    SAVLHN+NX2,MNDPFM    YES- IS IT NEEDED FOR EQU VN PN     51576021
 0053BE 4710 742C      053E4        8812        BC    ONES,IDLH8Y             YES-GENR IT                        51582021
 0053C2 91FF BE51      09701        8813        TM    SEGLM,NONSEG      IS PN1 NEEDED FOR SEGT                   51588021
 0053C6 4710 741C      053D4        8814        BO    IDLHP    NO- PUT OUT CARD NUMBER ONLY                      51594021
 0053CA D501 BD42 A59C 095F2 08294  8815          CLC   PNUM(LX2),N1 SEGT, BUT IS THIS PN1                       51600021
 0053D0 4780 742C      053E4        8816        BE    IDLH8Y    YES PUT IT OUT                                   51606021
 0053D4 45E0 78C6      0587E        8817 IDLHP  BAL   RCS,GENCRD            GENERATE CARD NUMBER                 51612021
 0053D8 47F0 751A      054D2        8818        BC      UNCOND,IDLH18       GO TO RETURN TO IDENT                51618021
 0053DC 9101 BFCA      0987A        8819 IDLH08 TM    SEGSW,MSWON           HAS PRIORITY CHANGED                 51624021
 0053E0 4710 72AC      05264        8820        BO    IDLHB0                 YES- GO ISSUE SEGT CODE             51630021
 0053E4 D201 BEA2 BD42 09752 095F2  8821 IDLH8Y   MVC   NUMER(LX2),PNUM      SETS UP PN DEF                      51636021
 0053EA D200 BEA1 BD45 09751 095F5  8822          MVC   PRIOR(LX1),PNPTY                                         51642021
 0053F0 45E0 78C6      0587E        8823        BAL     RCS,GENCRD         GENR CARD-NUMBER FOR PN,IF ANY        51648021
 0053F4 45E0 7734      056EC        8824        BAL     RCS,GENDAT          WRITE PN DEF                         51654021
 0053F8 4120 BEA0      09750        8825        LA      RW2,PNDEF                                                51660021
                                    8826 *                                                                       51666021
                                    8827 *                        PROCESS TRACE AND DEBUG,IF APPLICABLE          51672021
 0053FC 9101 BFC3      09873        8828        TM      TRCUSW,MSWON        IS IT SN OF DECLARATIVE              51678021
 005400 4710 74CC      05484        8829        BC      ONES,IDLH12          YES-DEFER TILL AFTER USE STATEM     51684021
 005404 45E0 7454      0540C        8830        BAL     RCS,IDLH09          NO- FURTHER CHECKING                 51690021
 005408 47F0 74CC      05484        8831        BC      UNCOND,IDLH12       IS IT END OF PROGRAM                 51696021
                                    8832 *                                                                       51702021
                                    8833 *                       (THIS BLOCK ALSO CALLED BY USE ANALYZER)        51708021
                                    8834 *                                                                       51714021
                             0540C  8835 IDLH09 EQU     *                                                        51720021
 00540C 50E0 B4D0      08D80        8836        ST      RCS,SVIDLH                                               51726021
 005410 9120 BD41      095F1        8837          TM    SAVLHN+NX3,MDUMBT    IS IT DUMMY NAME                    51732021
 005414 071E                        8838        BCR     ONES,RCS              YES - NO TRACE OR DEBUG            51738021
 005416 5810 A328      08020        8839        L       RW1,COSADR                                               51744021
 00541A 9180 1182      00182        8840        TM    SWITCH,MB128   WAS THERE ANY 'READY TRACE'                 51750021
 00541E 4780 747A      05432        8841        BC      ZERO,IDLH10           NO                                 51756021
 005422 45E0 7734      056EC        8842        BAL     RCS,GENDAT           YES-GENR                            51762021
 005426 4120 A564      0825C        8843        LA      RW2,TRACVB                     TRACE                     51768021
 00542A 45E0 7734      056EC        8844        BAL     RCS,GENDAT          GENERATE PN REF                      51774021
 00542E 4120 BEA4      09754        8845        LA      RW2,PNREF                      RHN                       51780021
                                    8846 *                                                                       51786021
 005432 9180 BD41      095F1        8847 IDLH10   TM    SAVLHN+NX3,MDBGBT    IS IT REFERENCED BY DEBUG           51792021
 005436 4780 74C6      0547E        8848        BC      ZERO,IDLH11           NO                                 51798021
 00543A 9140 BD41      095F1        8849          TM    SAVLHN+NX3,MDBUGU   IS IT IN A DEBUG PACKET              51804021
 00543E 4710 74C6      0547E        8850        BC      ONES,IDLH11         YES,DONT USE (DEBUGG WRITES MSG)     51810021
 005442 5810 B068      08918        8851        L       RW1,ADBGTB           YES-PUT INTO DBGTBL                 51816021
 005446 45E0 7D16      05CCE        8852        BAL     RCS,PNSRTF          INSERT LHN ID IN TABLE               51822021
 00544A 4140 BD42      095F2        8853          LA    RW4,SAVLHN+NX4        LHN  ID                            51828021
 00544E 45E0 9A72      078CA        8854        BAL     RCS,PUPLGN          GET NEW GN NUMBER                    51834021
 005452 45E0 7D16      05CCE        8855        BAL     RCS,PNSRTF          INSERT NEXT LGN                      51840021
1PH40     IKFCBL40                                                                                              PAGE  185
-  LOC  OBJECT CODE    ADDR1 ADDR2  STMT   SOURCE STATEMENT                                       ASM 0201 11.03 02/14/15
0005456 4140 BE1C      096CC        8856        LA      RW4,NXTLGN                   NEXT LGN NUMBER             51846021
 00545A D201 BE02 BE1C 096B2 096CC  8857          MVC   GNREF+NX1(LX2),NXTLGN                                    51852021
 005460 45E0 7734      056EC        8858        BAL     RCS,GENDAT           GENR                                51858021
 005464 4120 A567      0825F        8859        LA      RW2,CALLVB                     CALL                      51864021
 005468 45E0 7734      056EC        8860        BAL     RCS,GENDAT          WRITE GN REF                         51870021
 00546C 4120 BE01      096B1        8861        LA      RW2,GNREF                      RGN                       51876021
 005470 45E0 9A72      078CA        8862        BAL   RCS,PUPLGN            GET NEW GN FOR RETURN                51882021
 005474 D201 BDFF BE1C 096AF 096CC  8863          MVC   GNDEF+NX1(LX2),NXTLGN SET LABEL UP                       51888021
 00547A 45E0 7952      0590A        8864        BAL    RCS,GENLAB           GENERATE IT                          51894021
 00547E 58E0 B4D0      08D80        8865 IDLH11 L       RCS,SVIDLH          EXIT                                 51900021
 005482 07FE                        8866        BCR     UNCOND,RCS          EXIT                                 51906021
                                    8867 *                                                                       51912021
                                    8868 *              UPDATE VNTBL AND PFMTBL IF END-OF-PERFORM                51918021
                                    8869 *                                                                       51924021
                             05484  8870 IDLH12 EQU     *                                                        51930021
 005484 9120 BD40      095F0        8871          TM    SAVLHN+NX2,MPFMBT    IS IT END-OF-PERFORM                51936021
 005488 4780 74E2      0549A        8872        BC      ZERO,IDLH14         NO                                   51942021
 00548C D209 BD4C BD3E 095FC 095EE  8873          MVC   THRUPN(LX10),SAVLHN  YES- GIVE PN ID TO GETPVN           51948021
 005492 45E0 7E48      05E00        8874        BAL     RCS,GETPVN            GET ITS ASSOCIATED VN, AND MAK     51954021
 005496 47F0 751A      054D2        8875        BC      UNCOND,IDLH18         ENTRIES IN VNTBL AND PFMTBL IF     51960021
                                    8876 *                                   IT IS NOT ALREADY IN                51966021
                                    8877 *                                                                       51972021
                                    8878 *                   UPDATE VNTBL IF PN IS ALTERED                       51978021
                                    8879 *                                                                       51984021
                             0549A  8880 IDLH14 EQU     *                                                        51990021
 00549A 9110 BD40      095F0        8881          TM    SAVLHN+NX2,MALTBT    IS IT ALTERED                       51996021
 00549E 4780 751A      054D2        8882        BC      ZERO,IDLH18           NO - EXIT                          52002021
 0054A2 5810 B058      08908        8883        L       RW1,AVNTBL                                               52008021
 0054A6 45E0 7DF8      05DB0        8884        BAL     RCS,SRCHTB         IS IT ALREADY IN VNTBL                52014021
 0054AA 47F0 74FA      054B2        8885          BC    UNCOND,*+NX8        NO                                   52020021
 0054AE 47F0 750E      054C6        8886        BC      UNCOND,IDLH16      YES                                   52026021
 0054B2 45E0 7D16      05CCE        8887        BAL     RCS,PNSRTF           NO - INSERT IT                      52032021
 0054B6 4140 BD42      095F2        8888          LA    RW4,SAVLHN+NX4                                           52038021
 0054BA 45E0 9B1E      07976        8889        BAL     RCS,PUPVNC         STEP THE VN COUNTER                   52044021
 0054BE 45E0 7D16      05CCE        8890        BAL     RCS,PNSRTF          INSERT VN-NUM                        52050021
 0054C2 4140 BEC8      09778        8891        LA      RW4,VNNUM                                                52056021
 0054C6 D201 BEAE BEC8 0975E 09778  8892 IDLH16   MVC   VNID(LX2),VNNUM SAVE VN FOR ALTERED GO                   52062021
 0054CC D200 BEAD BD45 0975D 095F5  8893          MVC   VNPTY(LX1),PNPTY MOVE IN PTY NUMBER                      52068021
                                    8894 *                                                                       52074021
                                    8895 *              RETURN TO IDENT -- LHN PROCESSING DONE                   52080021
                                    8896 *                                                                       52086021
                             054D2  8897 IDLH18 EQU     *                                                        52092021
 0054D2 9104 BD40      095F0        8898          TM    SAVLHN+NX2,MEXTBT   IS IT FOR EXIT                       52098021
 0054D6 4770 7526      054DE        8899          BC    NOTZER,*+NX8        NO                                   52104021
 0054DA 9400 BD3E      095EE        8900          NI    SAVLHN,XX00                                              52110021
 0054DE 45E0 7566      0551E        8901        BAL     RCS,GETNXT           GET RID OF POSSIBLE PERIODS         52116021
 0054E2 D501 C000 A346 0988B 0803E  8902          CLC   GOTTEN(LX2),CBEOS                                        52122021
 0054E8 4780 751A      054D2        8903        BC      EQ,IDLH18           YES                                  52128021
 0054EC 47F0 7000      04FB8        8904        BC      UNCOND,IDENT       RETURN TO SEEK VERB                   52134021
 0054F0 4209                        8905 DBGPKT   DC    X'4209'             DEBUG PACKET                   57827 52140021
 0054F2 4020                        8906 SECDUMMY DC    X'4020'             SECTION BIT AND DUMMY BIT      57827 52146021
1PH40     IKFCBL40                                                                                              PAGE  186
-  LOC  OBJECT CODE    ADDR1 ADDR2  STMT   SOURCE STATEMENT                                       ASM 0201 11.03 02/14/15
0                                   8908 *=2    EOF     EOF HOUSEKEEPING                                         52158021
                                    8909 *******************************************************************     52164021
                                    8910 *                                                                       52170021
                                    8911 *                                                                       52176021
                                    8912 *                                                                       52182021
                                    8913 *                               E O F                                   52188021
                                    8914 *                                                                       52194021
                                    8915 *              END-OF-FILE HOUSEKEEPING                                 52200021
                                    8916 *                                                                       52206021
                                    8917 *******************************************************************     52212021
-
0
                             054F4  8919 EOF    EQU     *                                                        52224021
                             054F4  8920 EOF1   EQU     *                                                        52230021
 0054F4 58F0 A31C      08014        8921        L       RAS,ARELES         RELEASE ALL TAMER TABLES              52236021
 0054F8 4120 000C      0000C        8922        LA      RW2,TAMNUM                                               52242021
 0054FC 1B33                        8923        SR      RW3,RW3                                                  52248021
 0054FE 5813 B048      088F8        8924 EOF3   L       RW1,ASTRNG(RW3)                                          52254021
 005502 05EF                        8925        BALR    RCS,RAS             RELEASE STRING TABLE                 52260021
 005504 4133 0008      00008        8926          LA    RW3,DX8(RW3)                                             52266021
 005508 4620 7546      054FE        8927        BCT     RW2,EOF3            RETURN                               52272021
 00550C 5810 A328      08020        8928 EOF4   L     RW1,COSADR           UPDATE COMMON AREA                    52278021
 005510 D201 115E BE1C 0015E 096CC  8929          MVC   GNCTR(LX2),NXTLGN  LGN COUNTER                           52284021
 005516 5810 A328      08020        8930        L       RW1,COSADR         CALL PHASE 5                          52290021
 00551A 0501                        8931        BALR  RA0,RW1               GO TO CALL PH5                       52296021
 00551C A000                        8932        DC      X'A000'                                                  52302021
                                    8933 *                                                                       52308021
1PH40     IKFCBL40                                                                                              PAGE  187
-  LOC  OBJECT CODE    ADDR1 ADDR2  STMT   SOURCE STATEMENT                                       ASM 0201 11.03 02/14/15
0                                   8935 *                                                                       52320021
-
0
                                    8937 *******************************************************************     52332021
                                    8938 *                                                                       52338021
                                    8939 *                                                                       52344021
                                    8940 *                   COMMONLY USED  S U B R O U T I N E S                52350021
                                    8941 *                                                                       52356021
                                    8942 *      BAL   RCS,SUBR    BAL  RCS,SUBR            BAL  RCS,SUBR         52362021
                                    8943 *      (SINGLE RETURN)   (NO RETURN - 4 BYTES)   (INSTRUCTION TO BE     52368021
                                    8944 *                        (YES RETURN)            (SINGLE OR NO RETU     52374021
                                    8945 *                                                (YES RETURN,IF 2)      52380021
                                    8946 *                                                                       52386021
                                    8947 *                                                                       52392021
                                    8948 *******************************************************************     52398021
1PH40     IKFCBL40                                                                                              PAGE  188
-  LOC  OBJECT CODE    ADDR1 ADDR2  STMT   SOURCE STATEMENT                                       ASM 0201 11.03 02/14/15
0                                   8950 *=2    GETNXT    READ ROUTINE                                           52410021
                                    8951 *******************************************************************     52416021
                                    8952 *                                                                       52422021
                                    8953 *                        G E T N X T                                    52428021
                                    8954 *                                                                       52434021
                                    8955 *      BAL     RCS,GETNXT                                               52440021
                                    8956 *      (RETURN)                                                         52446021
                                    8957 *                                                                       52452021
                                    8958 *                                                                       52458021
                                    8959 *      COPIES 'NOISE' ON OUTPUT FILE, GETS ANOTHER ENTITY               52464021
                                    8960 *      STORES SEQUENCE NUMBER AT NXTCRD,THEN GETS ANOTHER               52470021
                                    8961 *      UPDATES RIN TO POINT TO NEXT SIGNIFICANT ENTRY                   52476021
                                    8962 *      COMPUTES BYTCNT, TOTAL NUMBER OF BYTES IN ENTITY WHOSE ADDRE     52482021
                                    8963 *        IS STORED AT PNTIN                                             52488021
                                    8964 *      MOVES FIRST HALF-WORD OF THIS ENTITY TO GOTTEN                   52494021
                                    8965 *                                                                       52500021
                                    8966 *                                                                       52506021
                                    8967 *      (IF NEXTIN SW IS ON, TURNS IT OFF, MOVES NXTWRD TO GOTTEN,MO     52512021
                                    8968 *       NXTCNT TO BYTCNT, MOVES GOTTEN TO ITS ORIGINAL PLACE IN         52518021
                                    8969 *       INPUT BUFFER, AND EXITS)                                        52524021
                                    8970 *                                                                       52530021
                                    8971 *      N O T E .  THERE ARE 2 POINTERS AND 2 BYTE COUNTERS.             52536021
                                    8972 *                                                                       52542021
                                    8973 *      RIN AND BYTCNT ARE REFERENCED BY MOST ROUTINES AND MAY           52548021
                                    8974 *       OCCASIONALLY BE CHANGED BY THEM IF THEY WISH TEMPORARILY TO     52554021
                                    8975 *       PRETEND INPUT IS SOMEWHERE ELSE THAN IN THE BUFFER, E.G., A     52560021
                                    8976 *       CURENT.                                                         52566021
                                    8977 *                                                                       52572021
                                    8978 *       TRUPNT AND TRUCNT ALWAYS REFER TO THE TRUE INPUT BUFFER.        52578021
                                    8979 *       GETNXT ALWAYS RESETS RIN AND BYTCNT TO THE VALUE OF TRUPNT      52584021
                                    8980 *       AND TRUCNT.                                                     52590021
                                    8981 *                                                                       52596021
                                    8982 *** SUBROUTINES CALLED                                                  52602021
                                    8983 *      COS,GENCRD,COPYIN                                                52608021
                                    8984 *                                                                       52614021
                                    8985 *                                                                       52620021
                                    8986 *******************************************************************     52626021
-
0
 00551E                             8988        DS      0H                                                       52638021
                             0551E  8989 GETNXT   EQU   *                                                        52644021
 00551E 90E2 B0A8      08958        8990        STM     RCS,RW2,SVGET                                            52650021
 005522 9101 BFD3      09883        8991        TM    SETRIN,MSWON          IS SETTBL BEING USED                 52656021
 005526 4780 75A6      0555E        8992        BZ    GET1           NO                                          52662021
 00552A D501 BED4 A598 09784 08290  8993          CLC   SETSVD(LX2),N0     IS THIS FIRST TIME                    52668021
 005530 4780 75A6      0555E        8994        BE    GET1              YES                                      52674021
 005534 5810 B0A0      08950        8995        L     RW1,ASETBL           NAKE SURE DONT GET GARBAGE            52680021
 005538 5811 0000      00000        8996          L     RW1,DX0(RW1)                                             52686021
 00553C 5821 0000      00000        8997          L     RW2,DX0(RW1)                                             52692021
 005540 4811 0004      00004        8998          LH    RW1,DX4(RW1)         RW1 PTS TO NO. BYTES USED           52698021
 005544 4A20 BED4      09784        8999        AH    RW2,SETSVD                                                 52704021
 005548 5020 BC70      09520        9000        ST    RW2,TRUPNT          RESTORE TRUPNT IN CASE CLOBBERED       52710021
1PH40     IKFCBL40                                                                                              PAGE  189
-  LOC  OBJECT CODE    ADDR1 ADDR2  STMT   SOURCE STATEMENT                                       ASM 0201 11.03 02/14/15
0                                   9001 *    BY A CALL TO TAMER                                                 52716021
 00554C 1A21                        9002        AR    RW2,RW1          RW2 POINTS TO END OF TABLE                52722021
 00554E 4B20 BED4      09784        9003          SH    RW2,SETSVD          ADJUST TABLE PTR               45036 52728021
 005552 5520 BC70      09520        9004        CL    RW2,TRUPNT           ARE WE AT END OF TABLE                52734021
 005556 4770 75A6      0555E        9005        BNE   GET1          NO- OK TO UPDATE PTR                         52740021
 00555A 96FE BFD3      09883        9006        OI    SETRIN,MSWOFF         SET ALL BITS ON                      52746021
 00555E 9101 BF74      09824        9007 GET1   TM    NEXTIN,MSWON                                               52752021
 005562 4780 75BA      05572        9008        BC      ZERO,GET2           NEXT WORD NOT THERE                  52758021
 005566 94FE BF74      09824        9009        NI      NEXTIN,MSWOFF      NEXT WORD ALREADY THERE               52764021
 00556A 58C0 BC70      09520        9010        L       RIN,TRUPNT                                               52770021
 00556E 47F0 7658      05610        9011        BC      UNCOND,GET4        EXIT                                  52776021
                                    9012 *                                                                       52782021
                                    9013 *              GET NEW ENTITY                                           52788021
                                    9014 *                                                                       52794021
 005572 5820 BC70      09520        9015 GET2   L       RW2,TRUPNT         TRUPNT AND TRUCNT PRESERVE THE RE     52800021
 005576 45E0 7F94      05F4C        9016        BAL     RCS,COUNT           GET NUMBER OF BYTES                  52806021
 00557A 4A20 BE72      09722        9017        AH      RW2,BYTES         I/P-BUFFER VALUES,                     52812021
 00557E 9101 BFD3      09883        9018        TM    SETRIN,MSWON          SHOULD SETSVD BE UPDATED             52818021
 005582 4780 75E8      055A0        9019        BZ    GET3                  NO-BYPASS UPDATE                     52824021
 005586 4810 BE72      09722        9020        LH    RW1,BYTES             ADD BYTE CT TO SETSVD                52830021
 00558A 4A10 BED4      09784        9021        AH    RW1,SETSVD                                                 52836021
 00558E 4010 BED4      09784        9022        STH   RW1,SETSVD                                                 52842021
 005592 D501 BED4 B0A4 09784 08954  9023          CLC   SETSVD(LX2),DSPSET   ARE WE NOW AT END                   52848021
 005598 4770 75E8      055A0        9024        BNE    GET3                 NO                                   52854021
 00559C 96FE BFD3      09883        9025        OI    SETRIN,MSWOFF        SIGNAL TO IGNORE WHATEVER RIN         52860021
                                    9026 *       MIGHT BE POINTING TO                                            52866021
                             055A0  9027 GET3   EQU     *                                                        52872021
 0055A0 4110 001A      0001A        9028          LA RW1,LX16+LX10(RA0)     PUT VALUE 36                   99999 52878021
 0055A4 4410 76CA      05682        9029          EX    RW1,CURRTEXT        MOVE CURRENT ITEM TO CURRTEXT  99999 52884021
 0055A8 18C2                        9030        LR      RIN,RW2            SET RIN                               52890021
 0055AA 5020 BC70      09520        9031        ST      RW2,TRUPNT          BYTCNT MAY GET PHONIED BY SAVCUR     52896021
 0055AE 9101 BFD3      09883        9032        TM    SETRIN,MSWON          ARE WE SCANNING SETTBL               52902021
 0055B2 4710 7658      05610        9033        BO    GET4              NO NEED TO SCAN FURTHER                  52908021
 0055B6 91FF C000      0988B        9034        TM      GOTTEN,MFF                                               52914021
 0055BA 4780 7694      0564C        9035        BC      ZERO,GET10         NEW ENTITY IS ERROR-MSG               52920021
 0055BE 4710 765E      05616        9036        BC      ONES,GET6                        END-OF-BUFFER           52926021
 0055C2 9537 C000      0988B        9037          CLI   GOTTEN,MATEXT       LISTING A-TEXT                       52932021
 0055C6 4780 76A8      05660        9038          BE    GET13               YES                                  52938021
 0055CA 9581 C000      0988B        9039        CLI     GOTTEN,MCARD       IS IT CARD NUMBER                     52944021
 0055CE 4780 7678      05630        9040        BC      EQ,GET8             YES                                  52950021
 0055D2 D501 C000 A4D6 0988B 081CE  9041          CLC   GOTTEN(LX2),CBTHEN    DISCARD FUTILE OPTIONAL WORDS      52956021
 0055D8 4780 75BA      05572        9042        BC      EQ,GET2             YES, GET NEW WORD                    52962021
 0055DC D501 C000 A354 0988B 0804C  9043          CLC   GOTTEN(LX2),CBIS                                         52968021
 0055E2 4780 75BA      05572        9044        BC      EQ,GET2             YES, 'IS'                            52974021
 0055E6 9101 BF79      09829        9045        TM      PLOGIC,MSWON                                             52980021
 0055EA 4710 7658      05610        9046        BC      ONES,GET4           ON, DO NOT BYPASS                    52986021
 0055EE 9101 BFBD      0986D        9047        TM    SPSALL,MSWON          BYPASS 'AND' CHECK                   52992021
 0055F2 4710 7658      05610        9048        BC    ONES,GET4             DO NOT BYPASS                        52998021
 0055F6 D501 C000 A33A 0988B 08032  9049          CLC   GOTTEN(LX2),CBAND   DISCARD 'AND' EXCEPT IN CONDITION    53004021
 0055FC 4770 7658      05610        9050        BC      NOTEQ,GET4          NOT 'AND'                            53010021
 005600 4100 A33A      08032        9051        LA    RA0,CBAND           PARAM FOR MSG 8                        53016021
 005604 45E0 9BDA      07A32        9052        BAL     RCS,ERROR           WRITE ERROR MESSAGE                  53022021
 005608 4110 A033      07D2B        9053        LA      RW1,ELST08                                               53028021
 00560C 47F0 75BA      05572        9054        BC      UNCOND,GET2         GET NEW                              53034021
                                    9055 *                                                                       53040021
1PH40     IKFCBL40                                                                                              PAGE  190
-  LOC  OBJECT CODE    ADDR1 ADDR2  STMT   SOURCE STATEMENT                                       ASM 0201 11.03 02/14/15
0005610 98E2 B0A8      08958        9056 GET4   LM      RCS,RW2,SVGET      EXIT                                  53046021
 005614 07FE                        9057        BCR     UNCOND,RCS          EXIT                                 53052021
                                    9058 *                                                                       53058021
                                    9059 *                             END-OF-BUFFER                             53064021
                                    9060 *                                                                       53070021
 005616 5810 A328      08020        9061 GET6   L       RW1,COSADR         READ IN ANOTHER BLOCK                 53076021
 00561A 0501                        9062        BALR  RA0,RW1               GET ANOTHER BLOCK                    53082021
 00561C 0300                        9063        DC      X'0300'                                                  53088021
 00561E 4780 76A0      05658        9064        BC      ZERO,GET12           BRANCH FOR EOF                      53094021
 005622 1820                        9065        LR      RW2,RA0                                                  53100021
 005624 4122 0000      00000        9066          LA    RW2,DX0(RW2)        (CLEAR 1ST BYTE FOR OCCASIONAL AH    53106021
 005628 5020 BC70      09520        9067        ST      RW2,TRUPNT         REINIT TRUPNT                         53112021
 00562C 47F0 75E8      055A0        9068        BC      UNCOND,GET3        GO BACK STORE TRUPNT,ETC.             53118021
                                    9069 *                                                                       53124021
                                    9070 *              CARD-NUMBER                                              53130021
                                    9071 *                                                                       53136021
 005630 45E0 78C6      0587E        9072 GET8   BAL     RCS,GENCRD         GENR PREVIOUS CARD IF NECESSARY       53142021
 005634 D201 BEDC 2001 0978C 00001  9073          MVC   NXTCRD+NX1(LX2),DX1(RW2) SAVE THIS ONE                   53148021
 00563A 5810 A328      08020        9074        L     RW1,COSADR                                                 53154021
 00563E D201 11EE 2001 001EE 00001  9075          MVC   CURCRD(LX2),DX1(RW2)                                     53160021
 005644 947F 11EE      001EE        9076          NI    CURCRD,XX7F          TURN OFF HI ORDER BIT FOR CURCRD    53166021
 005648 47F0 75BA      05572        9077        BC      UNCOND,GET2         GET NEW                              53172021
                                    9078 *                                                                       53178021
                                    9079 *              ERROR MESSAGE - COPY ON OUTPUT FILE                      53184021
                                    9080 *                                                                       53190021
                             0564C  9081 GET10  EQU     *                                                        53196021
 00564C 45E0 78C6      0587E        9082        BAL     RCS,GENCRD         GENR CARD NUM IF NECESSARY            53202021
 005650 45E0 7754      0570C        9083 GET11  BAL     RCS,COPYIN          COPY TO OUTPUT                       53208021
 005654 47F0 75BA      05572        9084        BC      UNCOND,GET2        GET NEXT ENTITY                       53214021
                                    9085 *                                                                       53220021
                                    9086 *                                E O F                                  53226021
                                    9087 *                                                                       53232021
                             05658  9088 GET12  EQU     *                                                        53238021
 005658 41C0 A530      08228        9089        LA      RIN,EOFWD                                                53244021
 00565C 47F0 7658      05610        9090        BC      UNCOND,GET4         GO TO EXIT                           53250021
 005660                             9091 GET13    DS    0H                                                       53256021
 005660 D501 BEDC A598 0978C 08290  9092          CLC   NXTCRD+NX1(LX2),N0    IS THERE A CARD NO.                53262021
 005666 4780 7698      05650        9093          BE    GET11               NO                                   53268021
 00566A 1B11                        9094          SR    RW1,RW1             CLEAR REGISTER1                      53274021
 00566C 4312 0001      00001        9095          IC    RW1,DX1(RW2)        GET COUNT                            53280021
 005670 4111 0001      00001        9096          LA    RW1,DX1(RW1)        ADD 1 TO IT                          53286021
 005674 4410 76C4      0567C        9097          EX    RW1,MVCATXT         SAVE A-TEXT                          53292021
 005678 47F0 75BA      05572        9098          B     GET2                GET NEXT ELEMENT                     53298021
 00567C D200 790A 2000 058C2 00000  9099 MVCATXT  MVC   ATXTSVD(RA0),DX0(RW2)  SAVE A-TXT 37 ITEM                53304021
 005682 D200 792E 2000 058E6 00000  9100 CURRTEXT MVC   ACURRTXT(RA0),DX0(RW2)  SAVE CURRENT ITEM          99999 53310021
1PH40     IKFCBL40                                                                                              PAGE  191
-  LOC  OBJECT CODE    ADDR1 ADDR2  STMT   SOURCE STATEMENT                                       ASM 0201 11.03 02/14/15
0                                   9102 *                                                                       53322021
                                    9103 *                                                                       53328021
                                    9104 *                              S A V C U R                              53334021
                                    9105 *                                                                       53340021
                                    9106 *      ROUTINE TO PRESERVE CURRENT INPUT ENTITY AT 'CURENT'. USE BE     53346021
                                    9107 *        CALL TO GETNXT IF THERE IS A POSSIBILITY WE MAY NEED CURRE     53352021
                                    9108 *        ONE AGAIN                                                      53358021
                                    9109 *                                                                       53364021
                                    9110 *      TEMPORARILY SUBSTITUTES ADDR. OF CURENT FOR PNTIN (SO THAT S     53370021
                                    9111 *       ROUTINES AS STOINP,GETALL,PUTNIN,ISDTOP,ETC.,WILL TREAT CUR     53376021
                                    9112 *       JUST LIKE INPUT.  HOWEVER, GETNXT RESTORES BUFFER ADDRESS T     53382021
                                    9113 *       RIN SO THAT ANY ROUTINE NEEDING CURENT AGAIN AS ASSUMED         53388021
                                    9114 *       INPUT AFTER A CALL TO GETNXT MUST  LA  RIN,CURENT               53394021
                                    9115 *                                                                       53400021
                                    9116 *      ROUTINE'S CHIEF USER IS SUBSCR, BUT OTHERS MIGHT CALL ON IT      53406021
                                    9117 *        IF THEY NEED TO SUBSTITUTE FOR CURRENT INPUT A LONGER          53412021
                                    9118 *        ENTITY.                                                        53418021
                                    9119 *                                                                       53424021
                                    9120 *                                                                       53430021
                                    9121 *      BAL     RCS,SAVCUR                                               53436021
                                    9122 *      (RETURN)                                                         53442021
                                    9123 *                                                                       53448021
                                    9124 *** SUBROUTINES CALLED                                                  53454021
                                    9125 *      GETALL                                                           53460021
                                    9126 *                                                                       53466021
                                    9127 *                                                                       53472021
                             05688  9128 SAVCUR EQU     *                                                        53478021
 005688 50E0 B33C      08BEC        9129        ST      RCS,SVSAV                                                53484021
 00568C 45E0 76EC      056A4        9130        BAL     RCS,GETALL          MOVE ENTITY TO STORAGE               53490021
 005690 4120 BAF4      093A4        9131        LA      RW2,CURENT                                               53496021
 005694 58C0 A324      0801C        9132        L       RIN,ACURNT         SET RIN POINTING TO CURENT            53502021
 005698 D202 BE67 BE64 09717 09714  9133          MVC   CURMOD(LX3),MODE                                         53508021
 00569E 58E0 B33C      08BEC        9134        L       RCS,SVSAV                                                53514021
 0056A2 07FE                        9135        BCR     UNCOND,RCS          RETURN                               53520021
-
0
                                    9137 *                                                                       53532021
                                    9138 *                                                                       53538021
                                    9139 *                             G E T A L L                               53544021
                                    9140 *                                                                       53550021
                                    9141 *                                                                       53556021
                                    9142 *      BAL   RCS,GETALL                                                 53562021
                                    9143 *      LA      RW2,TARGET-FIELD                                         53568021
                                    9144 *      (RETURN)                                                         53574021
                                    9145 *                                                                       53580021
                                    9146 *      LOADS BYTES INTO RW3 AND EXECUTES THE                            53586021
                                    9147 *        INSTRUCTION AT 0(RCS), THUS MOVING AN ENTIRE ENTITY FROM       53592021
                                    9148 *        THE INPUT BUFFER TO THE STORAGE LOCATION INDICATED BY          53598021
                                    9149 *        THE PROGRAM.                                                   53604021
                                    9150 *                                                                       53610021
                                    9151 *      DOES NOT TOUCH PNTIN. IF INPUT IS NOT NEEDED AFTER A CALL TO     53616021
                                    9152 *        GETALL, GETNXT MUST BE CALLED TO UPDATE PNTIN.                 53622021
1PH40     IKFCBL40                                                                                              PAGE  192
-  LOC  OBJECT CODE    ADDR1 ADDR2  STMT   SOURCE STATEMENT                                       ASM 0201 11.03 02/14/15
0                                   9153 *                                                                       53628021
                                    9154 *                                                                       53634021
                             056A4  9155 GETALL   EQU   *                                                        53640021
 0056A4 90E3 B0A8      08958        9156        STM     RCS,RW3,SVGET                                            53646021
 0056A8 182C                        9157        LR      RW2,RIN                                                  53652021
 0056AA 45E0 7F94      05F4C        9158        BAL     RCS,COUNT           GET TOTAL COUNT OF BYTES             53658021
 0056AE 4830 BE72      09722        9159        LH      RW3,BYTES         SET RW3 TO EXECUTE MVC INSTRUCTION     53664021
 0056B2 0630                        9160        BCTR  RW3,RA0               DECR COUNT BY 1                      53670021
 0056B4 58E0 B0A8      08958        9161        L       RCS,SVGET                                                53676021
 0056B8 440E 0000      00000        9162          EX    RA0,DX0(RCS)          ( LA RW2 ... )                     53682021
 0056BC 4430 7710      056C8        9163        EX      RW3,MVGTAL          ( MVC 0(RW2), 0(RIN)                 53688021
 0056C0 98E3 B0A8      08958        9164        LM      RCS,RW3,SVGET                                            53694021
 0056C4 47FE 0004      00004        9165          BC    UNCOND,DX4(RCS)     RETURN                               53700021
                                    9166 *                                                                       53706021
 0056C8 D200 2000 C000 00000 00000  9167 MVGTAL   MVC   DX0(LX1,RW2),DX0(RIN)                                    53712021
-
0
                                    9169 *                                                                       53724021
                                    9170 *                                                                       53730021
                                    9171 *                             T H R O W E                               53736021
                                    9172 *                        (THROW TILL ENDWROD)                           53742021
                                    9173 *                                                                       53748021
                                    9174 *      BAL   RCS,THROWE                                                 53754021
                                    9175 *      (RETURN)                                                         53760021
                                    9176 *                                                                       53766021
                                    9177 *      GETS NEXT UNTIL CURRENT ENTITY IS ENDWORD                        53772021
                                    9178 *                                                                       53778021
                                    9179 *                                                                       53784021
                                    9180 *** SUBROUTINES CALLED                                                  53790021
                                    9181 *      GETNXT,ISEND                                                     53796021
                                    9182 *                                                                       53802021
                                    9183 *                                                                       53808021
                             056CE  9184 THROWE EQU   *                                                          53814021
 0056CE 50E0 B158      08A08        9185        ST    RCS,SVRCS4                                                 53820021
 0056D2 45E0 8C32      06BEA        9186 THRE2    BAL   RCS,ISEND          IS GOTTEN AN ENDWROD                  53826021
 0056D6 47F0 7726      056DE        9187          BC    UNCOND,*+NX8        NO                                   53832021
 0056DA 47F0 772E      056E6        9188        BC    UNCOND,THRE4          YES, RETURN                          53838021
 0056DE 45E0 7566      0551E        9189        BAL   RCS,GETNXT           NO, GET NEXT AND SEEK ENDWORD         53844021
 0056E2 47F0 771A      056D2        9190        BC    UNCOND,THRE2          SEEK ENDWORD                         53850021
 0056E6 58E0 B158      08A08        9191 THRE4  L     RCS,SVRCS4                                                 53856021
 0056EA 07FE                        9192        BCR   UNCOND,RCS           EXIT - ENDWORD FOUND                  53862021
1PH40     IKFCBL40                                                                                              PAGE  193
-  LOC  OBJECT CODE    ADDR1 ADDR2  STMT   SOURCE STATEMENT                                       ASM 0201 11.03 02/14/15
0                                   9194 *                                                                       53874021
-
                                    9196 *******************************************************************     53886021
                                    9197 *                                                                       53892021
                                    9198 *                                                                       53898021
                                    9199 *      ROUTINES TO WRITE ON FILES                                       53904021
                                    9200 *                                                                       53910021
                                    9201 *                                                                       53916021
                                    9202 *******************************************************************     53922021
-
-
                                    9204 *=2    GENDAT    WRITE ROUTINE                                          53934021
                                    9205 *                                                                       53940021
                                    9206 *                           G E N D A T                                 53946021
                                    9207 *                                                                       53952021
                                    9208 *                                                                       53958021
                                    9209 *                                                                       53964021
                                    9210 *      BAL     RCS,GENDAT                                               53970021
                                    9211 *      LA      RW2,SOURCE-FIELD                                         53976021
                                    9212 *      (RETURN)                                                         53982021
                                    9213 *                                                                       53988021
                                    9214 *                                                                       53994021
                                    9215 *      BASIC ROUTINE TO WRITE ON FILE-1                                 54000021
                                    9216 *                                                                       54006021
                                    9217 *                                                                       54012021
                                    9218 *** SUBROUTINES CALLED                                                  54018021
                                    9219 *      COS,COUNT                                                        54024021
                                    9220 *                                                                       54030021
                                    9221 *                                                                       54036021
                                    9222 *                                                                       54042021
 0056EC 90E4 B0C0      08970        9223 GENDAT STM     RCS,RW4,SAVGEN                                           54048021
 0056F0 440E 0000      00000        9224          EX    RA0,DX0(RCS)        RW2 GETS SOURCE ADDR                 54054021
 0056F4 45E0 7F94      05F4C        9225        BAL     RCS,COUNT           GET TOTAL COUNT OF BYTES             54060021
 0056F8 5810 A328      08020        9226        L       RW1,COSADR                                               54066021
 0056FC 4830 BE72      09722        9227        LH      RW3,BYTES                                                54072021
 005700 0501                        9228        BALR  RA0,RW1               WRITE                                54078021
 005702 11                          9229          DC    X'11'                   WRITE FILE 1                     54084021
 005703 00
 005704 98E4 B0C0      08970        9230        LM      RCS,RW4,SAVGEN                                           54090021
 005708 47FE 0004      00004        9231          BC    UNCOND,DX4(RCS)     RETURN                               54096021
1PH40     IKFCBL40                                                                                              PAGE  194
-  LOC  OBJECT CODE    ADDR1 ADDR2  STMT   SOURCE STATEMENT                                       ASM 0201 11.03 02/14/15
0                                   9233 *                                                                       54108021
                                    9234 *=2    COPYIN    GROUP OF ROUTINES CALLING GENDAT                       54114021
                                    9235 *                                                                       54120021
                                    9236 *                                                                       54126021
                                    9237 *                           C O P Y I N                                 54132021
                                    9238 *                           G E N S T R                                 54138021
                                    9239 *                                                                       54144021
                                    9240 *                                                                       54150021
                                    9241 *                                                                       54156021
                                    9242 *      SPECIALIZED ROUTINES TO GENERATE MATERIAL                        54162021
                                    9243 *                                                                       54168021
                                    9244 *      BAL   RCS,COPYIN       PUTS CURRENT ENTITY FROM INPUT BUFFER     54174021
                                    9245 *      (RETURN)               OUTPUT FILE. UPDATES PNTOUT.              54180021
                                    9246 *                                                                       54186021
                                    9247 *      BAL     RCS,GENSTR    PUTS ENTIRE CONTENTS OF TAMER TABLES       54192021
                                    9248 *      (RETURN)               DEFSBS AND STRING ON OUTPUT FILE          54198021
                                    9249 *                             TURNS ON GENRED SWITCH, TESTED BY IDE     54204021
                                    9250 *                                                                       54210021
                                    9251 *                                                                       54216021
                                    9252 *            THESE ROUTINES SIMPLY SET THE VARIOUS POINTERS AND         54222021
                                    9253 *              BAL TO GENDAT TO DO THE ACTUAL WRITING                   54228021
                                    9254 *                                                                       54234021
                                    9255 *** SUBROUTINES CALLED                                                  54240021
                                    9256 *      GENDAT,COUNT,QTBHAS,GENALL                                       54246021
                                    9257 *                                                                       54252021
                                    9258 *                                                                       54258021
                             0570C  9259 COPYIN   EQU   *                                                        54264021
 00570C 50E0 B0DC      0898C        9260        ST      RCS,SVGEN2                                               54270021
 005710 45E0 7734      056EC        9261          BAL   RCS,GENDAT          WRITE TO OUTPUT                      54276021
 005714 412C 0000      00000        9262          LA    RW2,DX0(RIN)                                             54282021
 005718 58E0 B0DC      0898C        9263        L       RCS,SVGEN2                                               54288021
 00571C 07FE                        9264          BCR   UNCOND,RCS          RETURN TO MAINLINE                   54294021
                                    9265 *                                                                       54300021
                                    9266 *                                  EXIT                                 54306021
                             0571E  9267 GENSTR   EQU   *                                                        54312021
 00571E 50E0 B0DC      0898C        9268        ST      RCS,SVGEN2                                               54318021
 005722 D501 B04C A598 088FC 08290  9269          CLC   DSPSTR(LX2),N0      ANY OUTPUT                           54324021
 005728 078E                        9270        BCR     EQ,RCS               NO - EXIT. D O N T  G E N R  SS     54330021
 00572A 9601 BF73      09823        9271        OI      GENRED,MSWON       SW SAYS VERB PRODUCED OUTPUT          54336021
 00572E D501 B094 A598 08944 08290  9272          CLC   DSPSBS(LX2),N0       ANY SUBSCRIPTS                      54342021
 005734 4780 7798      05750        9273        BC      EQ,GENST1            NO                                  54348021
 005738 D203 BC6C B090 0951C 08940  9274          MVC   ATIB(LX4),ADFSBS      YES - GIVE GENALL TABLE ADDR.      54354021
 00573E 9601 BF8D      0983D        9275        OI      NOTRAL,MSWON        TELL IT NO TRAILING BYTE-COUNT       54360021
 005742 45E0 786E      05826        9276        BAL     RCS,GENALL         GENR. ALL SUBSCRIPT STRINGS IN TA     54366021
 005746 D701 B094 B094 08944 08944  9277          XC    DSPSBS(LX2),DSPSBS  ZERO SAVED DISPL.                    54372021
 00574C 94FE BF8D      0983D        9278        NI      NOTRAL,MSWOFF                                            54378021
 005750 9101 BFC0      09870        9279 GENST1 TM      GNOUSW,MSWON       (ON FOR DISPLAY AND EXHIBIT)          54384021
 005754 4780 77B0      05768        9280        BC      ZERO,GENST2         NOT DISPLAY OR EXHIBIT               54390021
 005758 D701 B074 B074 08924 08924  9281          XC    DSPNOU(LX2),DSPNOU   YES - ZERO SAVED DISPL. AND GENR    54396021
 00575E D203 BC6C B070 0951C 08920  9282          MVC   ATIB(LX4),APNOUN     THEM BEFORE MAIN STRINGS            54402021
 005764 45E0 786E      05826        9283        BAL     RCS,GENALL          GO TO WRITE ENTIRE TABLE             54408021
 005768 9101 BFCC      0987C        9284 GENST2 TM    CLEVMSG,MSWON         MOVE ZERO TO OP2                     54414021
 00576C 4780 77D4      0578C        9285        BZ    GENST2A     NO- NORML STRING GEN                           54420021
 005770 45E0 7734      056EC        9286        BAL   RCS,GENDAT            WRITE TO OUTPUT                      54426021
 005774 4120 A56A      08262        9287        LA    RW2,MOVEVB                                                 54432021
1PH40     IKFCBL40                                                                                              PAGE  195
-  LOC  OBJECT CODE    ADDR1 ADDR2  STMT   SOURCE STATEMENT                                       ASM 0201 11.03 02/14/15
0005778 45E0 7734      056EC        9288        BAL   RCS,GENDAT            WRITE TO OUTPUT                      54438021
 00577C 4120 A4EA      081E2        9289        LA    RW2,CBZERO                                                 54444021
 005780 45E0 7734      056EC        9290        BAL   RCS,GENDAT            WRITE TO OUTPUT                      54450021
 005784 182C                        9291        LR    RW2,RIN                                                    54456021
 005786 0702                        9292          BCR   R0,RW2              NOP                                  54462021
 005788 47F0 77E4      0579C        9293        B     GENST3     EXIT                                            54468021
 00578C D203 BC6C B048 0951C 088F8  9294 GENST2A  MVC   ATIB(LX4),ASTRNG                                         54474021
 005792 45E0 786E      05826        9295        BAL     RCS,GENALL          GENERATE ALL                         54480021
 005796 D701 B04C B04C 088FC 088FC  9296          XC    DSPSTR(LX2),DSPSTR  ZERO SAVED DISPL.                    54486021
 00579C 58E0 B0DC      0898C        9297 GENST3 L       RCS,SVGEN2                                               54492021
 0057A0 07FE                        9298        BCR   UNCOND,RCS            RETURN                               54498021
-
                                    9300 *                                                                       54510021
                                    9301 *                                                                       54516021
                                    9302 *                                                                       54522021
                                    9303 *                           G N T W I C                                 54528021
                                    9304 *                                                                       54534021
                                    9305 *                                                                       54540021
                                    9306 *      BAL     RCS,GNTWIC                                               54546021
                                    9307 *      (RETURN)                                                         54552021
                                    9308 *                                                                       54558021
                                    9309 *      GENERATES TWICE THE ENTIRE CONTENTS OF DEFSBS, STRING, AND -     54564021
                                    9310 *        IF GNOUSW IS ON  -- PNOUNS                                     54570021
                                    9311 *                                                                       54576021
                                    9312 *** SUBROUTINES CALLED                                                  54582021
                                    9313 *      STO5CU                                                           54588021
                                    9314 *                                                                       54594021
                                    9315 *** NOTES                                                               54600021
                                    9316 *      CAN BE USED ONLY BY ROUTINES WHICH EMPLOY THE STO5 ROUTINES      54606021
                                    9317 *        TO PUT MATERIAL IN STRING                                      54612021
                                    9318 *                                                                       54618021
                                    9319 *                                                                       54624021
                             057A2  9320 GNTWIC EQU     *                                                        54630021
 0057A2 90EF B484      08D34        9321        STM     RCS,RAS,SVGNTW                                           54636021
 0057A6 58F0 B048      088F8        9322        L       RAS,ASTRNG                                               54642021
 0057AA 58FF 0000      00000        9323          L     RAS,DX0(RAS)                                             54648021
 0057AE D201 BF4C F004 097FC 00004  9324          MVC   STRCNT(LX2),DX4(RAS)   SAVE TAMM DISPL.                  54654021
 0057B4 58F0 B090      08940        9325        L       RAS,ADFSBS                                               54660021
 0057B8 58FF 0000      00000        9326          L     RAS,DX0(RAS)                                             54666021
 0057BC D201 BF50 F004 09800 00004  9327          MVC   STRCNT+NX4(LX2),DX4(RAS)                                 54672021
 0057C2 58F0 B070      08920        9328        L       RAS,APNOUN                                               54678021
 0057C6 58FF 0000      00000        9329          L     RAS,DX0(RAS)                                             54684021
 0057CA D201 BF52 F004 09802 00004  9330          MVC   STRCNT+NX6(LX2),DX4(RAS)                                 54690021
 0057D0 D201 BF4E BE98 097FE 09748  9331          MVC   STRCNT+NX2(LX2),STO5J  SAVE STO5J                        54696021
 0057D6 45E0 8108      060C0        9332        BAL     RCS,STO5CU           APPEND 'END' AND GENR ONCE          54702021
 0057DA D201 B04C BF4C 088FC 097FC  9333          MVC   DSPSTR(LX2),STRCNT                                       54708021
 0057E0 D201 B094 BF50 08944 09800  9334          MVC   DSPSBS(LX2),STRCNT+NX4                                   54714021
 0057E6 D201 B074 BF52 08924 09802  9335          MVC   DSPNOU(LX2),STRCNT+NX6                                   54720021
 0057EC 58F0 B048      088F8        9336        L     RAS,ASTRNG            GET ADDR OF TAMM                     54726021
 0057F0 58FF 0000      00000        9337          L     RAS,DX0(RAS)        TO MOVE IN SAVED DISPLACEMENT        54732021
 0057F4 D201 F004 BF4C 00004 097FC  9338          MVC   DX4(LX2,RAS),STRCNT    RESTORE TAMM DISPL                54738021
 0057FA 58F0 B090      08940        9339        L     RAS,ADFSBS          GET TAMM ADDRESS                       54744021
 0057FE 58FF 0000      00000        9340          L     RAS,DX0(RAS)                                             54750021
1PH40     IKFCBL40                                                                                              PAGE  196
-  LOC  OBJECT CODE    ADDR1 ADDR2  STMT   SOURCE STATEMENT                                       ASM 0201 11.03 02/14/15
0005802 D201 F004 BF50 00004 09800  9341          MVC   DX4(LX2,RAS),STRCNT+NX4                                  54756021
 005808 58F0 B070      08920        9342        L     RAS,APNOUN      GET TIB,TAMM ADRR PNOUNT                   54762021
 00580C 58FF 0000      00000        9343          L     RAS,DX0(RAS)    TO MOVE IN SAVED DISLACEMENT             54768021
 005810 D201 F004 BF52 00004 09802  9344          MVC   DX4(LX2,RAS),STRCNT+NX6                                  54774021
 005816 D201 BE98 BF4E 09748 097FE  9345          MVC   STO5J(LX2),STRCNT+NX2  RESTORE STO5J                     54780021
 00581C 45E0 8108      060C0        9346        BAL     RCS,STO5CU         GENR AGAIN                            54786021
 005820 98EF B484      08D34        9347        LM      RCS,RAS,SVGNTW                                           54792021
 005824 07FE                        9348        BCR     UNCOND,RCS          RETURN                               54798021
-
                                    9350 *                                                                       54810021
                                    9351 *                           G E N A L L                                 54816021
                                    9352 *                                                                       54822021
                                    9353 *                                                                       54828021
                                    9354 *                                                                       54834021
                                    9355 *                                                                       54840021
                                    9356 *      BAL     RCS,GENALL                                               54846021
                                    9357 *      (RETURN)                                                         54852021
                                    9358 *                                                                       54858021
                                    9359 *      WRITES ON OUTPUT FILE ENTIRE CONTENTS OF TABLE WHOSE TIB-ADD     54864021
                                    9360 *        IT FINDS AT ATIB                                               54870021
                                    9361 *                                                                       54876021
                                    9362 *** SUBROUTINES CALLED                                                  54882021
                                    9363 *      GENDAT,COUNT                                                     54888021
                                    9364 *                                                                       54894021
                                    9365 *                                                                       54900021
                             05826  9366 GENALL EQU     *                                                        54906021
 005826 90E2 B144      089F4        9367        STM     RCS,RW2,SVGNAL                                           54912021
 00582A 5810 BC6C      0951C        9368        L       RW1,ATIB           RW1 GETS TIB ADDR.                    54918021
 00582E 5811 0000      00000        9369          L     RW1,DX0(RW1)        RW1 NOW GETS TAMM ADDR.              54924021
 005832 D501 1004 A598 00004 08290  9370          CLC   DX4(LX2,RW1),N0       IS ANYTHING IN TABLE               54930021
 005838 4780 78C0      05878        9371        BC      EQ,GENAL4           NO - EXIT                            54936021
 00583C 5821 0000      00000        9372          L     RW2,DX0(RW1)        RW2 GETS START ADDR. OF TABLE        54942021
 005840 9101 BFCC      0987C        9373        TM    CLEVMSG,MSWON   MOVE ZERO TO OP2                           54948021
 005844 4780 7894      0584C        9374        BZ    GENAL2    NO-OK                                            54954021
 005848 4A20 BE60      09710        9375        AH    RW2,LEFTSS   BYPASS LEFT SS STRING                         54960021
 00584C 45E0 7F94      05F4C        9376 GENAL2 BAL     RCS,COUNT           COMPUTE BYTE-COUNT OF ENTRY          54966021
 005850 4800 BE72      09722        9377        LH      RA0,BYTES                                                54972021
 005854 45E0 7734      056EC        9378        BAL     RCS,GENDAT         GENERATE ONE ENTRY                    54978021
 005858 4122 0000      00000        9379          LA    RW2,DX0(RW2)                                             54984021
                                    9380 *                                                                       54990021
 00585C 9101 BF8D      0983D        9381        TM      NOTRAL,MSWON       IS THERE TRAILING BYTE-COUNT          54996021
 005860 4710 78B0      05868        9382          BC    ONES,*+NX8              NO                               55002021
 005864 4A00 A59C      08294        9383        AH      RA0,N1             ADD 1 TO COUNT FOR TRAILING BYTE-     55008021
 005868 1A20                        9384        AR      RW2,RA0            COUNT IN TABLE. UPDATE SOURCE ADD     55014021
 00586A 1100                        9385        LNR     RA0,RA0            DOWNDATE DISPL. FIELD OF TAMM         55020021
 00586C 4A01 0004      00004        9386          AH    RA0,DX4(RW1)                                             55026021
 005870 4001 0004      00004        9387          STH   RA0,DX4(RW1)                                             55032021
 005874 4770 7894      0584C        9388        BC      NOTZER,GENAL2      RETURN FOR NEXT ENTRY IF ANY          55038021
                             05878  9389 GENAL4 EQU     *                                                        55044021
 005878 98E2 B144      089F4        9390        LM      RCS,RW2,SVGNAL                                           55050021
 00587C 07FE                        9391        BCR     UNCOND,RCS          RETURN                               55056021
1PH40     IKFCBL40                                                                                              PAGE  197
-  LOC  OBJECT CODE    ADDR1 ADDR2  STMT   SOURCE STATEMENT                                       ASM 0201 11.03 02/14/15
0                                   9393 *                                                                       55068021
                                    9394 *                                                                       55074021
                                    9395 *                                 G E N C R D                           55080021
                                    9396 *                                                                       55086021
                                    9397 *      BAL     RCS,GENCRD                                               55092021
                                    9398 *      (RETURN)                                                         55098021
                                    9399 *                                                                       55104021
                                    9400 *      GENERATES LAST CARD NUMBER FOUND BY GETNXT AND SAVED IN NXTC     55110021
                                    9401 *        SETS NXTCRD TO 0 SO AS NOT TO GENR IT MORE THAN ONCE.          55116021
                                    9402 *                                                                       55122021
                                    9403 *** SUBROUTINES CALLED                                                  55128021
                                    9404 *      GENDAT                                                           55134021
                                    9405 *                                                                       55140021
                                    9406 *                                                                       55146021
                             0587E  9407 GENCRD EQU     *                                                        55152021
 00587E D501 BEDC A598 0978C 08290  9408          CLC   NXTCRD+NX1(LX2),N0   IS THERE A CARD NUMBER WAITING      55158021
 005884 078E                        9409        BCR     EQ,RCS             NO - EXIT                             55164021
 005886 50E0 B0E0      08990        9410        ST      RCS,SVGNCD                                               55170021
 00588A 950A BF62      09812        9411        CLI     PGMBRK,MQRT        DONT GENR CARD NUMBERS IN Q-ROUTI     55176021
 00588E 4780 78F8      058B0        9412        BC      EQ,GNCRD2           WHICH FOLLOW END OF SOURCE PROGR     55182021
 005892 45E0 7734      056EC        9413        BAL     RCS,GENDAT         YES - GENR IT                         55188021
 005896 4120 BEDB      0978B        9414        LA      RW2,NXTCRD                                               55194021
 00589A 9500 790A      058C2        9415          CLI   ATXTSVD,XX00        IS THERE A 37 ITEM                   55200021
 00589E 4780 78F8      058B0        9416          BE    GNCRD2              NO                                   55206021
 0058A2 45E0 7734      056EC        9417          BAL   RCS,GENDAT          YES, WRITE IT OUT                    55212021
 0058A6 4120 790A      058C2        9418          LA    RW2,ATXTSVD                                              55218021
 0058AA D700 790A 790A 058C2 058C2  9419          XC    ATXTSVD,ATXTSVD     CLEAN UP                             55224021
                             058B0  9420 GNCRD2 EQU     *                                                        55230021
 0058B0 D201 BCB9 BEDC 09569 0978C  9421          MVC   CARDNO(LX2),NXTCRD+NX1 SAVE IT FOR ERROR MSG             55236021
 0058B6 D701 BEDC BEDC 0978C 0978C  9422          XC    NXTCRD+NX1(LX2),NXTCRD+NX1 ZERO IT SO AS NOT TO GENR AGA 55242021
 0058BC 58E0 B0E0      08990        9423        L       RCS,SVGNCD                                               55248021
 0058C0 07FE                        9424        BCR     UNCOND,RCS          RETURN                               55254021
 0058C2 0000000000000000            9425 ATXTSVD  DC    36X'00'             37 ITEM SAVE AREA                    55260021
 0058E6 0000000000000000            9426 ACURRTXT DC    36X'00'             CURRENTLY PROCESSING ITEM      99999 55266021
-
                                    9428 *                                                                       55278021
                                    9429 *                                                                       55284021
                                    9430 *                           G E N L A B                                 55290021
                                    9431 *                                                                       55296021
                                    9432 *                                                                       55302021
                                    9433 *                                                                       55308021
                                    9434 *                                                                       55314021
                                    9435 *      BAL   RCS,GENLAB       GENERATES LABEL AT POINT OF DEFINITIO     55320021
                                    9436 *      (RETURN)               CALLER MUST HAVE STORED VARIABLE INFO     55326021
                                    9437 *                                 LOCATION LGN BEFORE CALLING           55332021
                                    9438 *                                                                       55338021
                                    9439 *                                                                       55344021
                                    9440 *** SUBROUTINES CALLED                                                  55350021
                                    9441 *      GENDAT                                                           55356021
                                    9442 *                                                                       55362021
                                    9443 *                                                                       55368021
                             0590A  9444 GENLAB   EQU   *                                                        55374021
 00590A 50E0 B0DC      0898C        9445          ST    RCS,SVGEN2                                               55380021
1PH40     IKFCBL40                                                                                              PAGE  198
-  LOC  OBJECT CODE    ADDR1 ADDR2  STMT   SOURCE STATEMENT                                       ASM 0201 11.03 02/14/15
000590E 45E0 7734      056EC        9446          BAL   RCS,GENDAT          GENERATE LGN                         55386021
 005912 4120 BDFE      096AE        9447        LA      RW2,LGN                                                  55392021
 005916 58E0 B0DC      0898C        9448          L     RCS,SVGEN2                                               55398021
 00591A 07FE                        9449          BCR   UNCOND,RCS          RETURN                               55404021
-
                                    9451 *                                                                       55416021
                                    9452 *                                                                       55422021
                                    9453 *                           G E N L S T                                 55428021
                                    9454 *                                                                       55434021
                                    9455 *                                                                       55440021
                                    9456 *                                                                       55446021
                                    9457 *      BAL   RCS,GENLST       GENERATES FROM PSHTBL THE LAST LABEL      55452021
                                    9458 *      (RETURN)               ENTERED AND ALL LABELS EQU TO IT. REM     55458021
                                    9459 *                             THEN FROM PSHTBL                          55464021
                                    9460 *                                                                       55470021
                                    9461 *                                                                       55476021
                                    9462 *** SUBROUTINES CALLED                                                  55482021
                                    9463 *      GENLAB,QTBHAS,PREMVF                                             55488021
                                    9464 *                                                                       55494021
                                    9465 *                                                                       55500021
                             0591C  9466 GENLST   EQU   *                                                        55506021
 00591C 90E2 B240      08AF0        9467          STM   RCS,RW2,SVGLST                                           55512021
 005920 5810 B088      08938        9468        L       RW1,APUSH                                                55518021
 005924 D501 B08C A598 0893C 08290  9469 GNLST2   CLC   DSPUSH(LX2),N0      ANY LABELS LEFT IN TABLE             55524021
 00592A 4780 7990      05948        9470        BC      EQ,GNLST4            NO - EXIT                           55530021
 00592E 45E0 7D32      05CEA        9471        BAL     RCS,PREMVF         MOVE TO TEMP FROM TABLE               55536021
 005932 4140 BE28      096D8        9472        LA      RW4,TMPLAB                                               55542021
 005936 D201 BDFF BE29 096AF 096D9  9473          MVC   LGN+NX1(LX2),TMPLAB+NX1 MOVE ID TO LGN SKELETON          55548021
 00593C 45E0 7952      0590A        9474          BAL   RCS,GENLAB          GENERATE                             55554021
 005940 9110 BE28      096D8        9475        TM      TMPLAB,MASTER       WAS THIS A MASTER                    55560021
 005944 4780 796C      05924        9476          BC    ZERO,GNLST2         NO-RETURN FOR NEXT EQU TO MASTER     55566021
 005948 98E2 B240      08AF0        9477 GNLST4   LM    RCS,RW2,SVGLST      YES-EXIT                             55572021
 00594C 07FE                        9478          BCR   UNCOND,RCS          RETURN                               55578021
-
                                    9480 *                                                                       55590021
                                    9481 *                           G N X T S T                                 55596021
                                    9482 *                                                                       55602021
                                    9483 *                                                                       55608021
                                    9484 *                                                                       55614021
                                    9485 *      BAL   RCS,GNXTST       GENERATES LABEL FOR NEXT SENTENCE IF      55620021
                                    9486 *      (RETURN)               IS STORED AT NXTSNT. ZEROES NXTSNT.       55626021
                                    9487 *                             GENERATES ALL LABELS REMAINING IN PSH     55632021
                                    9488 *                             AND EMPTIES THE TABLE                     55638021
                                    9489 *                                                                       55644021
                                    9490 *                                                                       55650021
                                    9491 *** SUBROUTINES CALLED                                                  55656021
                                    9492 *      GENLAB,GENLST                                                    55662021
                                    9493 *                                                                       55668021
                                    9494 *                                                                       55674021
                             0594E  9495 GNXTST   EQU   *                                                        55680021
 00594E 50E0 B234      08AE4        9496          ST    RCS,SVGNXT                                               55686021
1PH40     IKFCBL40                                                                                              PAGE  199
-  LOC  OBJECT CODE    ADDR1 ADDR2  STMT   SOURCE STATEMENT                                       ASM 0201 11.03 02/14/15
0005952 D501 BE18 A598 096C8 08290  9497          CLC   NXTSNT(LX2),N0      IS NXTSNT IN USE                     55692021
 005958 4780 79B4      0596C        9498          BC    EQ,GENXT2           NO                                   55698021
 00595C D201 BDFF BE18 096AF 096C8  9499          MVC   LGN+NX1(LX2),NXTSNT    YES - MOVE ITS ID TO LGN SKELET   55704021
 005962 D701 BE18 BE18 096C8 096C8  9500          XC    NXTSNT(LX2),NXTSNT  ZERO IT                              55710021
 005968 45E0 7952      0590A        9501          BAL   RCS,GENLAB          GENERATE IT                          55716021
 00596C 45E0 7964      0591C        9502 GENXT2   BAL   RCS,GENLST          GENERATE LAST PSHTBL LABEL AND E     55722021
 005970 D501 B08C A598 0893C 08290  9503          CLC   DSPUSH(LX2),N0      IS PSHTBL EMPTY                      55728021
 005976 4770 79B4      0596C        9504        BC      NOTEQ,GENXT2       NO-RETURN FOR NEXT PSHTBL LABEL       55734021
 00597A 58E0 B234      08AE4        9505          L     RCS,SVGNXT          YES- EXIT                            55740021
 00597E 07FE                        9506          BCR   UNCOND,RCS          RETURN                               55746021
-
                                    9508 *                                                                       55758021
                                    9509 *                                                                       55764021
                                    9510 *****                                                                   55770021
                                    9511 *              ROUTINES TO GENERATE SHORT COMPILER-CREATED STRINGS      55776021
                                    9512 *                                                                       55782021
                                    9513 *****                                                                   55788021
                                    9514 *                                                                       55794021
                                    9515 *                           G E N G O                                   55800021
                                    9516 *                           G E N M O V                                 55806021
                                    9517 *                                                                       55812021
                                    9518 *                                                                       55818021
                                    9519 *                                                                       55824021
                                    9520 *      BAL     RCS,GENGO         GENERATES GO TO GN,PN,OR VN            55830021
                                    9521 *      LA      RW1,ADDR. OF A GN,PN,OR VN AT POINT OF REF.              55836021
                                    9522 *      (RETURN)                                                         55842021
                                    9523 *                                                                       55848021
                                    9524 *                                                                       55854021
                                    9525 *      BAL     RCS,GENMOV         GENERATES ALTER GN(VN,PN)TO GN(VN     55860021
                                    9526 *      LA      RW1,ADDR. OF LABEL1 AT POINT OF REF.                     55866021
                                    9527 *      LA      RW1,ADDR. OF LABEL2 AT POINT OF REF.                     55872021
                                    9528 *      (RETURN)                                                         55878021
                                    9529 *                                                                       55884021
                                    9530 ***SUBROUTINES CALLED                                                   55890021
                                    9531 *      GENDAT                                                           55896021
                                    9532 *                                                                       55902021
                                    9533 *                                                                       55908021
                             05980  9534 GENGO  EQU     *                                                        55914021
 005980 90E1 B474      08D24        9535        STM     RCS,RW1,SVGNMV                                           55920021
 005984 440E 0000      00000        9536          EX    RA0,DX0(RCS)        LOAD RW1 FROM CALLING SEQUENCE       55926021
 005988 45E0 7734      056EC        9537        BAL     RCS,GENDAT          WRITE'GO' TO OUTPUT                  55932021
 00598C 4120 A55E      08256        9538        LA      RW2,CBGO           GO                                    55938021
 005990 45E0 7734      056EC        9539        BAL     RCS,GENDAT          WRITE GN, PN OR VN TO OUTPUT         55944021
 005994 4121 0000      00000        9540          LA    RW2,DX0(RW1)        WHEREVER                             55950021
 005998 98E1 B474      08D24        9541        LM      RCS,RW1,SVGNMV                                           55956021
 00599C 47FE 0004      00004        9542          BC    UNCOND,DX4(RCS)     RETURN                               55962021
                                    9543 *                                                                       55968021
                             059A0  9544 GENMOV EQU     *                                                        55974021
 0059A0 90E1 B474      08D24        9545        STM     RCS,RW1,SVGNMV                                           55980021
 0059A4 18FE                        9546        LR      RAS,RCS            PRESERVE RCS FOR EXECUTES             55986021
 0059A6 45E0 7734      056EC        9547        BAL     RCS,GENDAT          WRTIE 'ALTER' TO OUTPUT              55992021
 0059AA 4120 A56D      08265        9548        LA      RW2,MOVEVN         ALTER                                 55998021
 0059AE 440F 0000      00000        9549          EX    RA0,DX0(RAS)          GET 1ST LABEL-ADDR. IN RW1         56004021
1PH40     IKFCBL40                                                                                              PAGE  200
-  LOC  OBJECT CODE    ADDR1 ADDR2  STMT   SOURCE STATEMENT                                       ASM 0201 11.03 02/14/15
00059B2 45E0 7734      056EC        9550        BAL     RCS,GENDAT          WRITE LABEL-1 TO OUTPUT              56010021
 0059B6 4121 0000      00000        9551          LA    RW2,DX0(RW1)        LABEL-1                              56016021
 0059BA 440F 0004      00004        9552          EX    RA0,DX4(RAS)          GET 2ND LABEL-ADDR. IN RW2         56022021
 0059BE 45E0 7734      056EC        9553        BAL     RCS,GENDAT          WRITE LABEL-2 TO OUTPUT              56028021
 0059C2 4121 0000      00000        9554          LA    RW2,DX0(RW1)        LABEL-2                              56034021
 0059C6 98E1 B474      08D24        9555        LM      RCS,RW1,SVGNMV                                           56040021
 0059CA 47FE 0008      00008        9556          BC    UNCOND,DX8(RCS)     RETURN                               56046021
1PH40     IKFCBL40                                                                                              PAGE  201
-  LOC  OBJECT CODE    ADDR1 ADDR2  STMT   SOURCE STATEMENT                                       ASM 0201 11.03 02/14/15
0                                   9558 *=2    GNARTH    PRODUCE SPECIAL ARITHMETIC STRINGS                     56058021
                                    9559 *                                                                       56064021
                                    9560 *                                                                       56070021
                                    9561 *                           G N A R T H                                 56076021
                                    9562 *                                                                       56082021
                                    9563 *                                                                       56088021
                                    9564 *                                                                       56094021
                                    9565 *              ROUTINE TO GENERATE STRINGS FOR ARITHMETIC VERBS AND     56100021
                                    9566 *               ATTACHING TO EACH IR-RESULT THE OP-CODE OF ITS USE      56106021
                                    9567 *               THE OTHER OPERAND USED WITH IT                          56112021
                                    9568 *                                                                       56118021
                                    9569 *      BAL     RCS,GNARTH                                               56124021
                                    9570 *      (RETURN)                                                         56130021
                                    9571 *                                                                       56136021
                                    9572 *** OUTPUT PRODUCED                                                     56142021
                                    9573 *      FOR EXAMPLE,                                                     56148021
                                    9574 *              STORED STRINGS ARE              GENERATED STRINGS AR     56154021
                                    9575 *                                                                       56160021
                                    9576 *                                        (EVAL E)                       56166021
                                    9577 *         +  A   B   IR1                  +  A   B   IR1 *  IR2         56172021
                                    9578 *         /  C   D   IR2                  /  C   D   IR2 *  IR1         56178021
                                    9579 *         *  IR1 IR2 IR3                  *  IR1 IR2 IR3 ST E           56184021
                                    9580 *         ST IR3 E                        ST IR3 E                      56190021
                                    9581 *                                                                       56196021
                                    9582 *                                                                       56202021
                                    9583 *** SUBROUTINES CALLED                                                  56208021
                                    9584 *      GENDAT,GENSBS,GENALL,QTBHAS,COUNT                                56214021
                                    9585 *                                                                       56220021
                                    9586 *                                                                       56226021
                                    9587 *** NOTES                                                               56232021
                                    9588 *      DECIDES IF EVAL-STRING NEEDED IN IF (YES, IF COMPARISON IS N     56238021
                                    9589 *        MERIC)                                                         56244021
                                    9590 *      SETS DRSULT=DMAX WHEN STORE-FIELD IS FLOATING-POINT              56250021
                                    9591 *      GENERATES EVAL STRING AND ON-SIZE-ERROR BRANCH. THEN             56256021
                                    9592 *      GENERATES WHOLE DEFSBS TABLE. THEN                               56262021
                                    9593 *      GENERATES STRING BY STRING WITH APPENDED INFO ON IR'S.           56268021
                                    9594 *      AT EXIT RESTORES TO TAMM DISPL. OF DEFSBS THE VALUE STORED I     56274021
                                    9595 *        LEFTSS AND TO TAMM DISPL. OF STRING THE VALUE STORED IN        56280021
                                    9596 *        LEFTDP. THIS ALLOWS EVERYTHING PERTAINING TO THE LEFT TERM     56286021
                                    9597 *        AN IF TO BE GENERATED AGAIN IF THE TERM IS USED AS AN IMPL     56292021
                                    9598 *        SUBJECT.  (WHEN IF FINDS A NEW LEFT TERM IT UPDATES LEFTSS     56298021
                                    9599 *        LEFTDP, AND THE 2 TAMMS.)                                      56304021
                                    9600 *                                                                       56310021
                                    9601 *                                                                       56316021
                                    9602 *                                                                       56322021
                                    9603 *                                                                       56328021
                             059CE  9604 GNARTH EQU     *                                                        56334021
 0059CE 90E6 B2BC      08B6C        9605        STM     RCS,RW6,SVGNAR                                           56340021
 0059D2 5840 B048      088F8        9606 GNAR0  L     RW4,ASTRNG                                                 56346021
 0059D6 5844 0000      00000        9607          L     RW4,DX0(RW4)                                             56352021
                                    9608 *                                                                       56358021
 0059DA 5824 0000      00000        9609          L     RW2,DX0(RW4)                                             56364021
 0059DE 4122 0000      00000        9610          LA    RW2,DX0(RW2)        RW2 STARTS AT HEAD OF STRING         56370021
 0059E2 5020 BEC4      09774        9611        ST    RW2,TABADR             SAVE FOR LATER IN SRCHAL PROC       56376021
 0059E6 9101 BF79      09829        9612        TM      PLOGIC,MSWON       FOR 'IF' FIND OUT IF EVAL STRING      56382021
1PH40     IKFCBL40                                                                                              PAGE  202
-  LOC  OBJECT CODE    ADDR1 ADDR2  STMT   SOURCE STATEMENT                                       ASM 0201 11.03 02/14/15
00059EA 4710 7BBC      05B74        9613        BC      ONES,GNAR20        IS NEEDED FOR EITHER TERM OR BOTH     56388021
 0059EE 9101 BFBD      0986D        9614        TM    SPSALL,MSWON          IS CALL FROM SRCHAL                  56394021
 0059F2 4710 7C12      05BCA        9615        BO    COMEVL                YES                                  56400021
                                    9616 *                                                                       56406021
                                    9617 *                                 GENERATE EVAL STRING                  56412021
                                    9618 *                                                                       56418021
                             059F6  9619 GNEVAL EQU     *                                                        56424021
 0059F6 D501 B678 A4D0 08F28 081C8  9620          CLC   PSTFLD(LX2),CBTALY  IS STORE-FIELD FLOATING-POINT        56430021
 0059FC 4780 7A5E      05A16        9621        BC      EQ,GNEV3            NO                                   56436021
 005A00 9509 B67B      08F2B        9622          CLI   PSTFLD+NX3,XX09                                          56442021
 005A04 4740 7A5E      05A16        9623        BC      LO,GNEV2           NO                                    56448021
 005A08 950A B67B      08F2B        9624          CLI   PSTFLD+NX3,XX0A                                          56454021
 005A0C 4720 7A5E      05A16        9625        BC      HI,GNEV2           NO                                    56460021
 005A10 D200 BEE6 BEE5 09796 09795  9626          MVC   DRSULT(LX1),DMAX      YES - MAKE DRSULT = DMAX           56466021
                             05A16  9627 GNEV2  EQU     *                                                        56472021
 005A16 45E0 7734      056EC        9628 GNEV3  BAL     RCS,GENDAT         GENR EVAL,DMAX,DRSULT,ROUND OPTIO     56478021
 005A1A 4120 BEE0      09790        9629        LA      RW2,EVAL                                                 56484021
 005A1E 45E0 7734      056EC        9630        BAL     RCS,GENDAT          WRITE DATA-INFO                      56490021
 005A22 4120 BEE3      09793        9631          LA    RW2,EVAL+NX3                                             56496021
 005A26 45E0 7734      056EC        9632        BAL     RCS,GENDAT          WRITE STORE-FIELD TO OUTPUT          56502021
 005A2A 4120 B678      08F28        9633        LA      RW2,PSTFLD         GENR STORE-FIELD                      56508021
 005A2E 9503 BEE2      09792        9634          CLI   EVAL+NX2,XX03       WAS THERE SIZE-ERROR                 56514021
 005A32 4770 7A86      05A3E        9635        BC      NOTEQ,GNAR1         NO                                   56520021
 005A36 45E0 7734      056EC        9636        BAL     RCS,GENDAT          YES - GENR BRANCH                    56526021
 005A3A 4120 BE01      096B1        9637        LA      RW2,RGN                                                  56532021
                                    9638 *                                                                       56538021
 005A3E 5814 0000      00000        9639 GNAR1    L     RW1,DX0(RW4)        SET RW1 TO END OF STRING             56544021
 005A42 4111 0000      00000        9640          LA    RW1,DX0(RW1)           (CLEAR 1ST BYTE)                  56550021
 005A46 4A14 0004      00004        9641          AH    RW1,DX4(RW4)                                             56556021
                                    9642 *                                                                       56562021
                                    9643 *                           GENERATE ALL SUBSCRIPTS                     56568021
                                    9644 *                                                                       56574021
 005A4A D501 B094 A598 08944 08290  9645          CLC   DSPSBS(LX2),N0      ANY SUBSCRIPTS IN DEFSBS             56580021
 005A50 4780 7AAE      05A66        9646        BC      EQ,GNAR2             NO                                  56586021
 005A54 D203 BC6C B090 0951C 08940  9647          MVC   ATIB(LX4),ADFSBS    GIVE GENALL TABLE ADDR.              56592021
 005A5A 9601 BF8D      0983D        9648        OI      NOTRAL,MSWON         TELL IT NO TRAILING BYTE-COUNT      56598021
 005A5E 45E0 786E      05826        9649        BAL     RCS,GENALL         GENR ALL SUBSCRIPTS IN DEFSBS         56604021
 005A62 94FE BF8D      0983D        9650        NI      NOTRAL,MSWOFF                                            56610021
                                    9651 *                                                                       56616021
                                    9652 *      GENERATE 4 ELEMENTS                                              56622021
                                    9653 *                                                                       56628021
                             05A66  9654 GNAR2  EQU     *                                                        56634021
 005A66 4860 A5A2      0829A        9655        LH      RW6,N4             RESET RW6 TO LOOP THRU 4              56640021
                             05A6A  9656 GNAR5  EQU     *                                                        56646021
 005A6A 45E0 7734      056EC        9657        BAL     RCS,GENDAT         GENERATE IT                           56652021
 005A6E 4122 0000      00000        9658          LA    RW2,DX0(RW2)                                             56658021
 005A72 45E0 7F94      05F4C        9659        BAL     RCS,COUNT           GET COUNT OF BYTES                   56664021
 005A76 4A20 BE72      09722        9660        AH      RW2,BYTES          POINT RW2 AT NEXT                     56670021
 005A7A 4122 0001      00001        9661          LA    RW2,DX1(RW2)        SKIP TRAILING BYTE-COUNT             56676021
 005A7E 1921                        9662        CR      RW2,RW1            WAS IT LAST STRING OF WHOLE GROUP     56682021
 005A80 4780 7B72      05B2A        9663        BC      EQ,GNAR16            YES -EXIT                           56688021
 005A84 D501 2000 BEE3 00000 09793  9664          CLC   DX0(LX2,RW2),EVAL+NX3 IS IT VERB INFO FROM SEARCHALL     56694021
 005A8A 4780 7C72      05C2A        9665        BE    COMEVL0               YES-SPEC PROCESSING                  56700021
 005A8E 4660 7AB2      05A6A        9666        BCT     RW6,GNAR5           BACK TO LOOP                         56706021
 005A92 1862                        9667        LR      RW6,RW2            POINT RW6 AT THE IR                   56712021
1PH40     IKFCBL40                                                                                              PAGE  203
-  LOC  OBJECT CODE    ADDR1 ADDR2  STMT   SOURCE STATEMENT                                       ASM 0201 11.03 02/14/15
0005A94 4B60 A5A2      0829A        9668        SH      RW6,N4                                                   56718021
 005A98 1B33                        9669        SR      RW3,RW3            INIT OPERAND COUNTER                  56724021
 005A9A 47F0 7AF2      05AAA        9670        BC      UNCOND,GNAR7       GO SEEK THE = IR BELOW                56730021
                                    9671 *                                                                       56736021
                                    9672 *      TEST NEXT ELEMENT - IS IT OPERAND OR VERB                        56742021
                                    9673 *                                                                       56748021
 005A9E 45E0 7F94      05F4C        9674 GNAR6  BAL     RCS,COUNT           GET BYTE COUNT                       56754021
 005AA2 4A20 BE72      09722        9675        AH      RW2,BYTES                                                56760021
 005AA6 4122 0001      00001        9676          LA    RW2,DX1(RW2)        POINT RW2 TO NEXT                    56766021
 005AAA 9130 2000      00000        9677 GNAR7    TM    DX0(RW2),MDN        IS IT OPERAND                        56772021
 005AAE 4710 7B06      05ABE        9678        BC      ONES,GNAR8           YES                                 56778021
                                    9679 *                                                                       56784021
                                    9680 *                           VERB FOUND                                  56790021
                                    9681 *                                                                       56796021
 005AB2 D200 BED2 2001 09782 00001  9682          MVC   IRINFO+NX2(LX1),DX1(RW2) MOVE VERB-CODE TO IRINFO        56802021
 005AB8 1B33                        9683        SR      RW3,RW3              INIT RW3, OPERAND COUNTER           56808021
 005ABA 47F0 7AE6      05A9E        9684        BC      UNCOND,GNAR6         GO TEST NEXT ELEMENT                56814021
                                    9685 *                                                                       56820021
                                    9686 *                           OPERAND FOUND                               56826021
                                    9687 *                                                                       56832021
 005ABE 4133 0001      00001        9688 GNAR8    LA    RW3,DX1(RW3)          UPDATE OPERAND COUNTER             56838021
 005AC2 95BA 2000      00000        9689          CLI   DX0(RW2),MIR          IS IT AN IR                        56844021
 005AC6 4770 7AE6      05A9E        9690        BC      NOTEQ,GNAR6          NO, GO TEST NEXT ELEMENT            56850021
                                    9691 *                                                                       56856021
                                    9692 *                           IR FOUND                                    56862021
                                    9693 *                                                                       56868021
 005ACA D501 2001 6001 00001 00001  9694          CLC   DX1(LX2,RW2),DX1(RW6) DOES IT = PRESERVED RESULT-IR      56874021
 005AD0 4770 7AE6      05A9E        9695        BC      NOTEQ,GNAR6        NO, KEEP LOOKING                      56880021
 005AD4 4930 A59E      08296        9696        CH      RW3,N2             WHICH OPERAND IS IT                   56886021
 005AD8 4740 7B30      05AE8        9697        BC      LO,GNAR10           FIRST                                56892021
 005ADC 0620                        9698        BCTR  RW2,RA0                 2ND - POINT RW2 AT PRECEDING O     56898021
 005ADE 4332 0000      00000        9699          IC    RW3,DX0(RW2)                                             56904021
 005AE2 1B23                        9700        SR      RW2,RW3                                                  56910021
 005AE4 47F0 7B3C      05AF4        9701        BC      UNCOND,GNAR12       GO TO GENR APPENDED ELEMENTS         56916021
 005AE8 45E0 7F94      05F4C        9702 GNAR10 BAL     RCS,COUNT            1ST - POINT RW2 AT NEXT OPRND       56922021
 005AEC 4A20 BE72      09722        9703        AH      RW2,BYTES                                                56928021
 005AF0 4122 0001      00001        9704          LA    RW2,DX1(RW2)                                             56934021
                                    9705 *                                                                       56940021
                                    9706 *                           GENERATE APPENDED ELEMENTS                  56946021
                                    9707 *                                                                       56952021
                             05AF4  9708 GNAR12 EQU     *                                                        56958021
 005AF4 45E0 7734      056EC        9709        BAL     RCS,GENDAT           GENR VERB CODE                      56964021
 005AF8 4120 BED0      09780        9710        LA      RW2,IRINFO                                               56970021
 005AFC 9531 2000      00000        9711          CLI   DX0(RW2),MSS          IS OPERAND AN SSID                 56976021
 005B00 4770 7B60      05B18        9712        BC      NOTEQ,GNAR14        NO                                   56982021
 005B04 9230 2000      00000        9713          MVI   DX0(RW2),MDN        PH5 DOESNT WANT SS HEADER HERE       56988021
 005B08 45E0 7734      056EC        9714        BAL     RCS,GENDAT           GENR IT                             56994021
 005B0C 4122 0000      00000        9715          LA    RW2,DX0(RW2)                                             57000021
 005B10 9231 2000      00000        9716          MVI   DX0(RW2),MSS        RESTORE SS HEADER                    57006021
 005B14 47F0 7B68      05B20        9717        BC      UNCOND,GNAR15       YES, OPERAND IS SSID                 57012021
 005B18 45E0 7734      056EC        9718 GNAR14 BAL     RCS,GENDAT         GENR NON-SS OPERAND                   57018021
 005B1C 4122 0000      00000        9719          LA    RW2,DX0(RW2)                                             57024021
 005B20 1826                        9720 GNAR15 LR      RW2,RW6            RESTORE RW2 TO POINT TO ELEMENT A     57030021
 005B22 4A20 A5A2      0829A        9721        AH      RW2,N4               THE PROCESSED RESULT-IR             57036021
 005B26 47F0 7AAE      05A66        9722        BC      UNCOND,GNAR2       RETURN FOR NEXT RESULT-IR             57042021
1PH40     IKFCBL40                                                                                              PAGE  204
-  LOC  OBJECT CODE    ADDR1 ADDR2  STMT   SOURCE STATEMENT                                       ASM 0201 11.03 02/14/15
0                                   9723 *                                                                       57048021
                                    9724 *              ENTIRE GROUP OF IR'S NOW PROCESSED                       57054021
                                    9725 *                                                                       57060021
                                    9726 *                                                                       57066021
 005B2A 9601 BF73      09823        9727 GNAR16 OI      GENRED,MSWON                                             57072021
 005B2E 9101 BFBF      0986F        9728        TM    REMSW,MSWON           DIVIDE REMAINDER FOUND               57078021
 005B32 4710 7B8E      05B46        9729        BO    GNAR17                RESTORE TO LEFT                      57084021
 005B36 9101 BF79      09829        9730        TM      PLOGIC,MSWON                                             57090021
 005B3A 4710 7B8E      05B46        9731        BO    GNAR17     YES-RESTORE TAMM TO LEFTDP                      57096021
 005B3E 9101 BF6D      0981D        9732        TM    STFLD1,MSWON     1ST REAL STOREFIELD PROCESSED             57102021
 005B42 4780 7BB6      05B6E        9733        BZ    GNAR19    NO    EXIT                                       57108021
 005B46 D201 4004 BE8A 00004 0973A  9734 GNAR17   MVC   DX4(LX2,RW4),LEFTDP IMPLIED LEFT                         57114021
 005B4C D201 B04C BE8A 088FC 0973A  9735          MVC   DSPSTR(LX2),LEFTDP                                       57120021
 005B52 9101 BF6C      0981C        9736        TM    RECSW,MSWON                                                57126021
 005B56 4710 7BB6      05B6E        9737        BO    GNAR19     DONT RESTORE SS TO LEFTSS                       57132021
 005B5A 5840 B090      08940        9738        L       RW4,ADFSBS         ALSO, ANY SUBSCRIPT STRINGS FOR L     57138021
 005B5E 5844 0000      00000        9739          L     RW4,DX0(RW4)                                             57144021
 005B62 D201 4004 BE60 00004 09710  9740          MVC   DX4(LX2,RW4),LEFTSS                                      57150021
 005B68 D201 B094 BE60 08944 09710  9741          MVC   DSPSBS(LX2),LEFTSS                                       57156021
                                    9742 *      N O T E .   LEFTDP IS 0 UNLESS LEFT TERM IN IF IS AN IR.         57162021
                                    9743 *         IN THAT CASE, STRING PRODUCING THE IR MUST BE PRESERVED       57168021
                                    9744 *        FOR POSSIBLE USE IF THIS IR BECOMES AN IMPLIED SUBJECT.        57174021
                             05B6E  9745 GNAR19 EQU     *                                                        57180021
 005B6E 98E6 B2BC      08B6C        9746        LM      RCS,RW6,SVGNAR                                           57186021
 005B72 07FE                        9747        BCR     UNCOND,RCS          RETURN                               57192021
                                    9748 *                                                                       57198021
                                    9749 *      SEE IF THERE ARE NUMERIC OPERANDS IN IF STATEMENT                57204021
                                    9750 *        IF SO - AN EVAL STRING IS NEEDED                               57210021
                                    9751 *                                                                       57216021
 005B74 950B BE9E      0974E        9752 GNAR20   CLI   PRLVRB+NX1,MNUMRL   IS VERB NUMERIC RELATIONAL           57222021
 005B78 47D0 7BC8      05B80        9753        BC      NOTHI,GNAR26         YES - EVAL NEEDED                   57228021
 005B7C 47F0 7A86      05A3E        9754        BC      UNCOND,GNAR1         NO - DONT GENR EVAL                 57234021
                                    9755 *                                                                       57240021
                                    9756 *                         COMPARISON IS NUMERIC                         57246021
                                    9757 *              TO WHICH TERM SHALL EVAL STRING REFER                    57252021
                                    9758 *                                                                       57258021
                             05B80  9759 GNAR26 EQU     *                                                        57264021
 005B80 4160 B57C      08E2C        9760        LA      RW6,PLEFT          POINT RW6 PROVISIONALLY TO LEFT       57270021
 005B84 95BA B57C      08E2C        9761        CLI     PLEFT,MIR          IS LEFT AN IR                         57276021
 005B88 4780 7BE8      05BA0        9762        BC      EQ,GNAR28          YES - USE LEFT                        57282021
 005B8C 95BA B5FA      08EAA        9763        CLI     PRIGHT,MIR         IS RIGHT AN IR                        57288021
 005B90 4780 7BE4      05B9C        9764        BC      EQ,GNAR27           YES - USE RIGHT                      57294021
 005B94 9103 B5F8      08EA8        9765        TM      MODEL,MFGMOD       IS LEFT A DATA-NAME                   57300021
 005B98 4780 7BE8      05BA0        9766        BC      ZERO,GNAR28         YES - MIGHT AS WELL USE LEFT         57306021
 005B9C 4166 007E      0007E        9767 GNAR27 LA      RW6,MOPLNG(RW6)     NO - USE RIGHT                       57312021
                                    9768 *                                                                       57318021
                                    9769 *      MOVE LEFT OR RIGHT TERM RESPECTIVELY TO PSTFLD FROM WHICH        57324021
                                    9770 *        GNEVAL GENERATES IT.  MOVE RESPECTIVE DMAX TO DMAX AND         57330021
                                    9771 *        DRSULT FIELDS OF EVAL STRING                                   57336021
                                    9772 *                                                                       57342021
                             05BA0  9773 GNAR28 EQU     *                                                        57348021
 005BA0 D279 B678 6000 08F28 00000  9774          MVC   PSTFLD(LX122),DX0(RW6)                                   57354021
 005BA6 D500 B5F7 B675 08EA7 08F25  9775          CLC   DMAXL(LX1),DMAXR    CHOOSE THE HIGHER DMAX FOR STRING    57360021
 005BAC 4740 7C02      05BBA        9776        BC      LO,GNAR30           TAKE DMAXR AS DMAX                   57366021
 005BB0 D200 BEE5 B5F7 09795 08EA7  9777          MVC   DMAX(LX1),DMAXL                                          57372021
1PH40     IKFCBL40                                                                                              PAGE  205
-  LOC  OBJECT CODE    ADDR1 ADDR2  STMT   SOURCE STATEMENT                                       ASM 0201 11.03 02/14/15
0005BB6 47F0 7C08      05BC0        9778        BC      UNCOND,GNAR32       GO TO MOVE DMAX TO DRSULT            57378021
 005BBA D200 BEE5 B675 09795 08F25  9779 GNAR30   MVC   DMAX(LX1),DMAXR                                          57384021
 005BC0 D200 BEE6 BEE5 09796 09795  9780 GNAR32   MVC   DRSULT(LX1),DMAX    DRSULT SAME AS DMAX FOR IR           57390021
 005BC6 47F0 7A3E      059F6        9781        BC      UNCOND,GNEVAL       GO TO GENR EVAL STRING               57396021
                                    9782 *                                                                       57402021
 005BCA 1832                        9783 COMEVL LR    RW3,RW2               SAVE RW2                             57408021
 005BCC D501 2000 BF11 00000 097C1  9784 COMPEV   CLC   DX0(LX2,RW2),WHENEQU                                     57414021
 005BD2 4780 7C2E      05BE6        9785        BE    EVCOM1                YES                                  57420021
 005BD6 45E0 7F94      05F4C        9786        BAL   RCS,COUNT             GET BYTE COUNT                       57426021
 005BDA 4A20 BE72      09722        9787        AH    RW2,BYTES                                                  57432021
 005BDE 4122 0001      00001        9788          LA    RW2,DX1(RW2)         POINT RW2 TO NEXT                   57438021
 005BE2 47F0 7C14      05BCC        9789        B     COMPEV                SEEK WHEN-SIGNAL                     57444021
 005BE6 4150 0002      00002        9790 EVCOM1   LA    RW5,DX2                                                  57450021
 005BEA 45E0 7F94      05F4C        9791 EVCOM2 BAL   RCS,COUNT             GET BYTE COUNT                       57456021
 005BEE 4A20 BE72      09722        9792        AH    RW2,BYTES                                                  57462021
 005BF2 4122 0001      00001        9793          LA    RW2,DX1(RW2)                                             57468021
 005BF6 4650 7C32      05BEA        9794        BCT   RW5,EVCOM2            LOOP BACK                            57474021
 005BFA 45E0 7CBE      05C76        9795        BAL   RCS,FNDKEY            SEE IF THIS IS THE KEY WE WANT       57480021
 005BFE 47F0 7C12      05BCA        9796        BC    UNCOND,COMEVL         NO-TRY NEXT KEY                      57486021
 005C02 45E0 7F94      05F4C        9797        BAL   RCS,COUNT             RW2 POINTS TO KEY                    57492021
 005C06 4850 BE72      09722        9798        LH    RW5,BYTES                                                  57498021
 005C0A 4450 7C6C      05C24        9799        EX    RW5,EVMVC             MOVE KEY TO PSTFLD FOR EVAL          57504021
 005C0E 1A25                        9800        AR    RW2,RW5                                                    57510021
 005C10 4122 0001      00001        9801          LA    RW2,DX1(RW2)                                             57516021
 005C14 D202 BEE5 2002 09795 00002  9802          MVC   EVAL+NX5(LX3),DX2(RW2) MOVE INFO FOR THIS EVAL IN        57522021
 005C1A 1823                        9803        LR    RW2,RW3               RESTORE RW2                          57528021
 005C1C 5020 BE20      096D0        9804        ST    RW2,KEYSVSTR         SAVE DISPL TO PACK STRING TABLE       57534021
 005C20 47F0 7A5E      05A16        9805        BC    UNCOND,GNEV3          GO TO GENR EVAL,DMAX,DRSULT..        57540021
 005C24 D200 B678 2000 08F28 00000  9806 EVMVC    MVC   PSTFLD(LX1),DX0(RW2)                                     57546021
 005C2A 45E0 7F94      05F4C        9807 COMEVL0 BAL  RCS,COUNT             BYPASS LAST EVAL INFO                57552021
 005C2E 4A20 BE72      09722        9808        AH    RW2,BYTES                                                  57558021
 005C32 4122 0001      00001        9809          LA    RW2,DX1(RW2)                                             57564021
 005C36 D201 B094 A598 08944 08290  9810          MVC   DSPSBS(LX2),N0       GENR  ALL SS ONCE                   57570021
 005C3C 5010 BE24      096D4        9811        ST    RW1,TEMP                                                   57576021
 005C40 5810 B048      088F8        9812        L     RW1,ASTRNG            PACK STRING TABLE DELETING LAST      57582021
 005C44 5830 BE20      096D0        9813        L    RW3,KEYSVSTR           #OF STRING JUST GENR                 57588021
 005C48 5B30 BEC4      09774        9814        S    RW3,TABADR             DISP BETWEEN BEG STR AND STR GENR    57594021
 005C4C 5020 BE20      096D0        9815        ST    RW2,KEYSVSTR         SAVE RW2                              57600021
 005C50 5B20 BEC4      09774        9816        S    RW2,TABADR            DISP BETWEEN #STRNG AND #AFTER        57606021
                                    9817 *                  LAST STRING GENR                                     57612021
 005C54 45E0 7EDC      05E94        9818        BAL   RCS,PACKTB            PACK STRING TABLE                    57618021
 005C58 4133 0000      00000        9819          LA    RW3,DX0(RW3)        PACK FROM LAST STRING                57624021
 005C5C 4122 0000      00000        9820          LA    RW2,DX0(RW2)            GENR TO NEXT LEMENT IN STRING    57630021
 005C60 5820 BE20      096D0        9821        L    RW2,KEYSVSTR                                                57636021
 005C64 5810 BE24      096D4        9822        L    RW1,TEMP         RESTORE REGISTER 1                         57642021
 005C68 D501 B04C A598 088FC 08290  9823          CLC   DSPSTR(LX2),N0       END OF STRING TABLE                 57648021
 005C6E 4780 7B72      05B2A        9824        BE    GNAR16                YES- EXIT                            57654021
 005C72 47F0 7A1A      059D2        9825        BC    UNCOND,GNAR0         START AT HEAD OF STRING               57660021
                                    9826 *                  FNDKEY                                               57666021
                                    9827 *   THIS ROUTINE CHECKS TO SEE IF NEXT STRING IN STRING TABLE           57672021
                                    9828 * APPLIES TO NEXT SIGNIFICANT KEY IN KEYTBL- USER MUST NAME ALL         57678021
                                    9829 * PRECEDING KEYS IN KEY CLAUSE BUT NEED NOT NAME THEM IN ORDER          57684021
                                    9830 * HOWEVER, STRINGS FOR KEYS MUST BE PASSED TO PHASE 5 IN ORDER,         57690021
                                    9831 * HENCE THE NECESSITY OF THIS ROUTINE                                   57696021
                                    9832 *                                                                       57702021
1PH40     IKFCBL40                                                                                              PAGE  206
-  LOC  OBJECT CODE    ADDR1 ADDR2  STMT   SOURCE STATEMENT                                       ASM 0201 11.03 02/14/15
0                                   9833 *                                                                       57708021
 005C76 90E5 B2E0      08B90        9834 FNDKEY STM   RCS,RW5,SVFNKY                                             57714021
 005C7A 5810 B098      08948        9835        L    RW1,AKEYTB             GET ADDRESS OF KEYTBL                57720021
 005C7E 5841 0000      00000        9836          L     RW4,DX0(RW1)        TAMM                                 57726021
 005C82 5844 0000      00000        9837          L     RW4,DX0(RW4)                                             57732021
 005C86 1B55                        9838        SR    RW5,RW5                                                    57738021
 005C88 4352 0001      00001        9839          IC    RW5,DX1(RW2)    RW2, POINTS TO KEY- GET DICT PTR         57744021
 005C8C 0650                        9840        BCTR    RW5,RA0            OF KEY IN STRING AND COMPARE TO       57750021
 005C8E 1A52                        9841        AR    RW5,RW2               FIRST ENTRY IN KEYTBL                57756021
 005C90 D502 5000 4000 00000 00000  9842          CLC   DX0(LX3,RW5),DX0(RW4) ARE THEY EQUAL                     57762021
 005C96 4780 7D02      05CBA        9843        BE    FNDKEY1            YES- GO PACK KEYTBL                     57768021
 005C9A 4140 0002      00002        9844          LA    RW4,DX2              BYPASS THIS KEY AND EVAL TO         57774021
 005C9E 45E0 7F94      05F4C        9845 BYPASS BAL   RCS,COUNT             POINT RW2 TO NEXT STRING             57780021
 005CA2 4A20 BE72      09722        9846        AH    RW2,BYTES             SO SEARCH CAN BE MADE FOR NEXT       57786021
 005CA6 4122 0001      00001        9847          LA    RW2,DX1(RW2)         KEY-SEE F EUQAL COMPARE ON THAT     57792021
 005CAA 4640 7CE6      05C9E        9848        BCT    RW4,BYPASS           BYPASS                               57798021
 005CAE 5020 B2F0      08BA0        9849          ST    RW2,SVFNKY+NX16     PT RW2 IN SVAREA TO NEXT STRING      57804021
 005CB2 98E5 B2E0      08B90        9850        LM    RCS,RW5,SVFNKY       NO- EXIT TO FIND NEXT KEY IN          57810021
 005CB6 47FE 0000      00000        9851          BC    UNCOND,DX0(RCS)      STRING                              57816021
 005CBA 45E0 7EDC      05E94        9852 FNDKEY1       BAL   RCS,PACKTB     DELETE 1ST ENTRY IN KEYTBL           57822021
 005CBE 4130 0000      00000        9853          LA    RW3,DX0                                                  57828021
 005CC2 4120 0004      00004        9854          LA    RW2,DX4             7MOVE NXT ENTRY UP TO BEG KEYTBL     57834021
 005CC6 98E5 B2E0      08B90        9855        LM    RCS,RW5,SVFNKY                                             57840021
 005CCA 47FE 0004      00004        9856          BC    UNCOND,DX4(RCS)   GO GENT STRING FOR THIS KEY            57846021
1PH40     IKFCBL40                                                                                              PAGE  207
-  LOC  OBJECT CODE    ADDR1 ADDR2  STMT   SOURCE STATEMENT                                       ASM 0201 11.03 02/14/15
0                                   9858 *                                                                       57858021
-
0
                                    9860 *=2    PZSTRT    ROUTINES TO MANIPULATE TAMER TABLES                    57870021
-
0
                                    9862 *                                                                       57882021
                                    9863 *******************************************************************     57888021
                                    9864 *                                                                       57894021
                                    9865 *                                                                       57900021
                                    9866 *                                                                       57906021
                                    9867 *      ROUTINES TO INSERT MATERIAL IN OR REMOVE MATERIAL FROM           57912021
                                    9868 *        LAST ENTRY OF TAMER TABLE                                      57918021
                                    9869 *                                                                       57924021
                                    9870 *                                                                       57930021
                                    9871 *              PNSRTF       INSERT IN   TABLE WITH FIXED-LENGTH ENT     57936021
                                    9872 *              PREMVF       REMOVE FROM    .    .  FIXED-   .     .     57942021
                                    9873 *              PNSRTV       INSERT IN      .    .  VARIABLE-.     .     57948021
                                    9874 *              PREMVV       REMOVE FROM    .    .  VARIABLE-.     .     57954021
                                    9875 *                                                                       57960021
                                    9876 *                                                                       57966021
                                    9877 *      TAMER TABLES WITH VARIABLE-LENGTH ENTRIES HAVE BYTE-COUNT        57972021
                                    9878 *        OF EACH ENTRY APPENDED AT END OF ENTRY TO ALLOW COUNTING       57978021
                                    9879 *        BACKWARDS TO ENTRIES BEFORE THE LAST.                          57984021
                                    9880 *                                                                       57990021
                                    9881 *                                                                       57996021
                                    9882 *      ALL CALLING SEQUENCES CONSIST OF                                 58002021
                                    9883 *        L     RW1,ADDR. OF TIB FOR TABLE                               58008021
                                    9884 *        BAL   RCS,ROUTINE                                              58014021
                                    9885 *        LA    RW4,TARGET OR SOURCE                                     58020021
                                    9886 *        (RETURN)                                                       58026021
                                    9887 *                                                                       58032021
                                    9888 *                                                                       58038021
                                    9889 *******************************************************************     58044021
1PH40     IKFCBL40                                                                                              PAGE  208
-  LOC  OBJECT CODE    ADDR1 ADDR2  STMT   SOURCE STATEMENT                                       ASM 0201 11.03 02/14/15
0                                   9891 *                                                                       58056021
                                    9892 *                           P N S R T F                                 58062021
                                    9893 *                                                                       58068021
                                    9894 *                                                                       58074021
                                    9895 *                                                                       58080021
                                    9896 *      L       RW1,ADDR. OF TIB                                         58086021
                                    9897 *      BAL     RCS,PNSRTF         INSERT FIXED-LENGTH                   58092021
                                    9898 *      LA      RW4,SOURCE                                               58098021
                                    9899 *      (RETURN)                                                         58104021
                                    9900 *                                                                       58110021
                                    9901 *      FINDS BYTE-COUNT AT TIB                                          58116021
                                    9902 *      MOVES SPECIFIED NUMBER OF BYTES FROM SOURCE ADDR. IN  LA         58122021
                                    9903 *        INSTRUCTION TO NEXT AVAILABLE SPOT IN TABLE                    58128021
                                    9904 *      UPDATES SAVED DISPLACEMENT OF TABLE IN QUESTION                  58134021
                                    9905 *                                                                       58140021
                                    9906 *** SUBROUTINES CALLED                                                  58146021
                                    9907 *      CALLS ON INSERT TO FIND SPACE AND UPDATE TAMM                    58152021
                                    9908 *                                                                       58158021
                                    9909 *                                                                       58164021
                             05CCE  9910 PNSRTF EQU     *                                                        58170021
 005CCE 90E4 B15C      08A0C        9911        STM     RCS,RW4,SVTAME                                           58176021
 005CD2 440E 0000      00000        9912          EX    RA0,DX0(RCS)                                             58182021
 005CD6 58F0 A314      0800C        9913        L       RAS,ANSERT         MAKE ROOM (GET TARGET ADDR. IN RW     58188021
 005CDA 05EF                        9914        BALR    RCS,RAS             GO TO MAKE ROOM IN TABLE             58194021
 005CDC 4331 0000      00000        9915          IC    RW3,DX0(RW1)                                             58200021
 005CE0 0630                        9916        BCTR  RW3,RA0               DECR RW3 BY 1                        58206021
 005CE2 4430 7DEC      05DA4        9917        EX      RW3,NSRTMV                                               58212021
 005CE6 47F0 7DC6      05D7E        9918        BC      UNCOND,PREMV4       UPDATE SAVED DISPLACEMENT            58218021
                                    9919 *                                                                       58224021
                                    9920 *                                                                       58230021
                                    9921 *                           P R E M V F                                 58236021
                                    9922 *                                                                       58242021
                                    9923 *                                                                       58248021
                                    9924 *      L       RW1,ADDR. OF TIB                                         58254021
                                    9925 *      BAL     RCS,PREMVF         REMOVE FIXED-LENGTH                   58260021
                                    9926 *      LA      RW4,TARGET                                               58266021
                                    9927 *      (RETURN)                                                         58272021
                                    9928 *                                                                       58278021
                                    9929 *      FINDS BYTE-COUNT AT TIB                                          58284021
                                    9930 *      MOVES LAST ENTRY OF TABLE TO TARGET ADDR. SPECIFIED IN MVC       58290021
                                    9931 *        INSTRUCTION                                                    58296021
                                    9932 *      DECREMENTS DISPLACEMENT FIELD OF TAMM                            58302021
                                    9933 *      UPDATES SAVED DISPLACEMENT OF TABLE IN QUESTION                  58308021
                                    9934 *                                                                       58314021
                                    9935 *                                                                       58320021
                             05CEA  9936 PREMVF EQU     *                                                        58326021
 005CEA 90E4 B15C      08A0C        9937        STM     RCS,RW4,SVTAME                                           58332021
 005CEE 1B33                        9938        SR      RW3,RW3                                                  58338021
 005CF0 4331 0000      00000        9939          IC    RW3,DX0(RW1)        RW3 GETS BYTE-COUNT OF ENTRY         58344021
 005CF4 5841 0000      00000        9940          L     RW4,DX0(RW1)        RW4 GETS TAMM ADDR.                  58350021
 005CF8 4824 0004      00004        9941          LH    RW2,DX4(RW4)        RW2 GETS NO. BYTES USED SO FAR       58356021
 005CFC 1B23                        9942        SR      RW2,RW3               - BYTE-COUNT = NO. LEFT AFTER      58362021
 005CFE 4024 0004      00004        9943          STH   RW2,DX4(RW4)        'UPDATE TAMM)                        58368021
 005D02 5A24 0000      00000        9944          A     RW2,DX0(RW4)          + TABLE START = ADDR. LAST NTRY    58374021
 005D06 0630                        9945        BCTR  RW3,RA0               DECR BYTE CT OF ENTRIES OF ENTRY     58380021
1PH40     IKFCBL40                                                                                              PAGE  209
-  LOC  OBJECT CODE    ADDR1 ADDR2  STMT   SOURCE STATEMENT                                       ASM 0201 11.03 02/14/15
0005D08 440E 0000      00000        9946          EX    RA0,DX0(RCS)                                             58386021
 005D0C 4430 7DF2      05DAA        9947        EX      RW3,REMVMV                                               58392021
 005D10 47F0 7DC6      05D7E        9948        BC      UNCOND,PREMV4       UPDATE DISPLACEMENT                  58398021
                                    9949 *                                                                       58404021
                                    9950 *                                                                       58410021
                                    9951 *                           P N S R T V                                 58416021
                                    9952 *                                                                       58422021
                                    9953 *                                                                       58428021
                                    9954 *      L       RW1,ADDR. OF TIB                                         58434021
                                    9955 *      BAL     RCS,PNSRTV         INSERT VARIABLE-LENGTH                58440021
                                    9956 *      LA      RW4,SOURCE                                               58446021
                                    9957 *      (RETURN)                                                         58452021
                                    9958 *                                                                       58458021
                                    9959 *      MOVES I-C TEXT ENTITY FROM SOURCE ADDRESS TO NEXT AVAILABLE      58464021
                                    9960 *        IN TABLE. APPENDS ITS BYTE-COUNT AT END OF ENTRY               58470021
                                    9961 *      UPDATES SAVED DISPLACEMENT OF TABLE IN QUESTION                  58476021
                                    9962 *                                                                       58482021
                                    9963 *                                                                       58488021
                                    9964 *** SUBROUTINES CALLED                                                  58494021
                                    9965 *      CALL ON INSERT TO FIND SPACE AND UPDATE TAMM                     58500021
                                    9966 *      COUNT                                                            58506021
                                    9967 *                                                                       58512021
                                    9968 *                                                                       58518021
                             05D14  9969 PNSRTV EQU     *                                                        58524021
 005D14 90E4 B15C      08A0C        9970        STM     RCS,RW4,SVTAME                                           58530021
 005D18 440E 0000      00000        9971          EX    RA0,DX0(RCS)                                             58536021
 005D1C 1824                        9972        LR      RW2,RW4                                                  58542021
 005D1E 45E0 7F94      05F4C        9973        BAL     RCS,COUNT           GET BYTE COUNT                       58548021
 005D22 4830 BE72      09722        9974        LH      RW3,BYTES                                                58554021
 005D26 4133 0001      00001        9975          LA    RW3,DX1(RW3)                                             58560021
 005D2A 4231 0000      00000        9976          STC   RW3,DX0(RW1)                                             58566021
 005D2E 58F0 A314      0800C        9977        L       RAS,ANSERT                                               58572021
 005D32 05EF                        9978        BALR    RCS,RAS             MAKE ROOM, GET TARGET ADDR. IN R     58578021
 005D34 4830 BE72      09722        9979        LH      RW3,BYTES                                                58584021
 005D38 4430 7DEC      05DA4        9980        EX      RW3,NSRTMV                                               58590021
 005D3C 1A23                        9981        AR      RW2,RW3            ADDR. BYTE-COUNT BYTE ' ADDR. ENT     58596021
                                    9982 *                                   + BYTE-COUNT OF ENTRY               58602021
 005D3E 4232 0000      00000        9983          STC   RW3,DX0(RW2)        STORE BYTE-COUNT IN LAST BYTE        58608021
 005D42 47F0 7DC6      05D7E        9984        BC      UNCOND,PREMV4       UPDATE DISPLACEMENT                  58614021
                                    9985 *                                                                       58620021
                                    9986 *                                                                       58626021
                                    9987 *                           P R E M V V                                 58632021
                                    9988 *                                                                       58638021
                                    9989 *                                                                       58644021
                                    9990 *      L       RW1,ADDR. OF TIB                                         58650021
                                    9991 *      BAL     RCS,PREMVV         REMOVE VARIABLE-LENGTH                58656021
                                    9992 *      LA      RW4,TARGET                                               58662021
                                    9993 *      (RETURN)                                                         58668021
                                    9994 *                                                                       58674021
                                    9995 *      MOVES LAST ENTRY OF TABLE TO SPECIFIED TARGET ADDRESS.           58680021
                                    9996 *      IF TARGET FIELD IS ZERO, DOES NOT DO ANY MOVING BUT              58686021
                                    9997 *        SIMPLY UPDATES TAMM AND TIB                                    58692021
                                    9998 *      DECREMENTS DISPLACEMENT FIELD OF TAMM                            58698021
                                    9999 *      UPDATES SAVED DISPLACEMENT OF TABLE IN QUESTION                  58704021
                                   10000 *                                                                       58710021
1PH40     IKFCBL40                                                                                              PAGE  210
-  LOC  OBJECT CODE    ADDR1 ADDR2  STMT   SOURCE STATEMENT                                       ASM 0201 11.03 02/14/15
0                                  10001 *** SUBROUTINES CALLED                                                  58716021
                                   10002 *      GOBACK,COUNT                                                     58722021
                                   10003 *                                                                       58728021
                                   10004 *                                                                       58734021
                                   10005 *                                                                       58740021
                             05D46 10006 PREMVV EQU     *                                                        58746021
 005D46 90E4 B15C      08A0C       10007        STM     RCS,RW4,SVTAME                                           58752021
 005D4A 440E 0000      00000       10008          EX    RA0,DX0(RCS)                                             58758021
 005D4E 45E0 7FCE      05F86       10009        BAL     RCS,GOBACK         POINT RW2 TO PRECEDING ENTRY          58764021
 005D52 0001                       10010        DC    XL2'1'                GO BACK  1                           58770021
 005D54 5820 BC74      09524       10011        L     RW2,ADNTRY                                                 58776021
 005D58 45E0 7F94      05F4C       10012        BAL     RCS,COUNT          GET BYTE-COUNT IN LOC. 'BYTES'        58782021
 005D5C 1244                       10013        LTR     RW4,RW4                                                  58788021
 005D5E 4780 7DB4      05D6C       10014        BC      ZERO,PREMV2         TARGET FLD IS 0,UPDATE TAMM          58794021
 005D62 48F0 BE72      09722       10015        LH      RAS,BYTES          YES - EXECUTE IT                      58800021
 005D66 06F0                       10016          BCTR  RAS,RA0             MAKE ROOM                            58806021
 005D68 44F0 7DF2      05DAA       10017        EX      RAS,REMVMV                                               58812021
 005D6C 5831 0000      00000       10018 PREMV2   L     RW3,DX0(RW1)                                             58818021
 005D70 48F3 0004      00004       10019          LH    RAS,DX4(RW3)        GIVE RAS TAMM DISPL.                 58824021
 005D74 4BF0 BE72      09722       10020        SH      RAS,BYTES             - BYTES REMOVED                    58830021
 005D78 06F0                       10021        BCTR  RAS,RA0               DECR  COUNT BY 1                     58836021
 005D7A 40F3 0004      00004       10022          STH   RAS,DX4(RW3)        UPDATE TAMM DISPL.                   58842021
                                   10023 *                                                                       58848021
                                   10024 *             FOR ALL THESE ROUTINES AND FOR PACKTB UPDATE              58854021
                                   10025 *              SAVED DISPLACEMENT                                       58860021
                                   10026 *                                                                       58866021
                             05D7E 10027 PREMV4 EQU     *                                                        58872021
 005D7E 4130 B048      088F8       10028        LA      RW3,ASTRNG                                               58878021
 005D82 5913 0000      00000       10029 PREMV6   C     RW1,DX0(RW3)        FIND ADDR OF THE ADCON IN RW1        58884021
 005D86 4780 7DDA      05D92       10030        BC      EQ,PREMV8           YES, GET ADDR OF TAMM                58890021
 005D8A 4133 0008      00008       10031          LA    RW3,DX8(RW3)                                             58896021
 005D8E 47F0 7DCA      05D82       10032        BC      UNCOND,PREMV6       GO TO FIND ADDRESS                   58902021
 005D92 5811 0000      00000       10033 PREMV8   L     RW1,DX0(RW1)        GET TAMM ADDR                        58908021
 005D96 D201 3004 1004 00004 00004 10034          MVC   DX4(LX2,RW3),DX4(RW1) MOVE TAMM DISPL. TO SAVED DISPL.   58914021
 005D9C 98E4 B15C      08A0C       10035        LM      RCS,RW4,SVTAME                                           58920021
 005DA0 47FE 0004      00004       10036          BC    UNCOND,DX4(RCS)     RETURN                               58926021
                                   10037 *                                                                       58932021
 005DA4 D200 2000 4000 00000 00000 10038 NSRTMV   MVC   DX0(LX1,RW2),DX0(RW4)                                    58938021
 005DAA D200 4000 2000 00000 00000 10039 REMVMV   MVC   DX0(LX1,RW4),DX0(RW2)                                    58944021
1PH40     IKFCBL40                                                                                              PAGE  211
-  LOC  OBJECT CODE    ADDR1 ADDR2  STMT   SOURCE STATEMENT                                       ASM 0201 11.03 02/14/15
0                                  10041 *                                                                       58956021
                                   10042 *                                                                       58962021
                                   10043 *                                                                       58968021
                                   10044 *                                 S R C H T B                           58974021
                                   10045 *                                                                       58980021
                                   10046 *      ROUTINE TO SEARCH FOR A GIVEN PROCEDURE-NAME ID IN ANY OF TH     58986021
                                   10047 *        PROCEDURE-NAME TAMER TABLES (VNTBL,PFMTBL,DBGTBL).             58992021
                                   10048 *                                                                       58998021
                                   10049 *      L       RW1,ADDR. OF TIB                                         59004021
                                   10050 *      .                                                                59010021
                                   10051 *      .                                                                59016021
                                   10052 *      BAL     RCS,SRCHTB                                               59022021
                                   10053 *      (RETURN ID NOT IN TABLE)                                         59028021
                                   10054 *      (RETURN ID FOUND IN TABLE)                                       59034021
                                   10055 *                                                                       59040021
                                   10056 *      BEFORE CALLING SRCHTA, CALLER MUST STORE WANTED P-N ID AT        59046021
                                   10057 *        SRCHNM.                                                        59052021
                                   10058 *                                                                       59058021
                                   10059 *      IF THE P-N ID IS FOUND AND THE TABLE SEARCHED IS                 59064021
                                   10060 *        VNTBL OR                                                       59070021
                                   10061 *        PFMTBL - THE VNNUMBER FOLLOWING THE P-N ID IN THE TABLE IS     59076021
                                   10062 *                      STORED AT VNNUM                                  59082021
                                   10063 *        DBGTBL - THE GN NUMBER FOLLOWING THE P-N ID IN THE TABLE I     59088021
                                   10064 *                      STORED AT VNNUM AND THE RPD NUMBER AT DBGRPD     59094021
                                   10065 *                            THEN THE ENTRY IS ZEROED TO PREVENT RE     59100021
                                   10066 *                                                                       59106021
                                   10067 *      FOR ALL 3 TABLES, THE TABLE DISPLACEMENT OF THE  PN-ID IS ST     59112021
                                   10068 *        AT TABADR                                                      59118021
                                   10069 *                                                                       59124021
                                   10070 *      VNTBL CONSISTS OF DOUBLE 2-BYTE ENTRIES. THE 1ST OF EACH PAI     59130021
                                   10071 *        IS THE ID OF A PROCEDURE-NAME WHICH IS ALTERED OR IS THE E     59136021
                                   10072 *        OF-RANGE OF A PERFORM.  THE 2ND IS A UNIQUE VN-NUMBER ASSO     59142021
                                   10073 *        TED WITH THIS PN.                                              59148021
                                   10074 *                                                                       59154021
                                   10075 *      PFMTBL CONSISTS OF DOUBLE 2-BYTE ENTRIES. THE 1ST OF EACH PA     59160021
                                   10076 *        IS THE ID OF THE PROCEDURE NAME FOLLOWING THE END-OF-RANGE     59166021
                                   10077 *        OF A PERFORM. THE 2ND IS THE VN NUMBER CORRESPONDING TO TH     59172021
                                   10078 *        END-OF-RANGE PN IN THE VN TABLE.                               59178021
                                   10079 *                                                                       59184021
                                   10080 *      DBGTBL CONSISTS OF TRIPLE 3-BYTE ENTRIES. THE 1ST IS THE ID      59190021
                                   10081 *        THE PN REFERENCED BY A *DEBUG. THE 2ND THE RPD NUMBER OF T     59196021
                                   10082 *        PN. THE 3RD A GN NUMBER USED WITH 'CALL GN' WHEN THE DEBUG     59202021
                                   10083 *        PN WAS FOUND AT POINT OF DEFINITION                            59208021
                                   10084 *                                                                       59214021
                                   10085 *                                                                       59220021
                             05DB0 10086 SRCHTB EQU     *                                                        59226021
 005DB0 9014 B200      08AB0       10087        STM     RW1,RW4,SVSRCH                                           59232021
                                   10088 *                                                                       59238021
 005DB4 4120 0004      00004       10089          LA    RW2,DX4             WHICH TABLE IS IT                    59244021
                                   10090 *                                                                       59250021
                             05DB8 10091 SRCHT1 EQU     *                                                        59256021
 005DB8 5811 0000      00000       10092          L     RW1,DX0(RW1)                                             59262021
 005DBC 4831 0004      00004       10093          LH    RW3,DX4(RW1)                                             59268021
 005DC0 5811 0000      00000       10094          L     RW1,DX0(RW1)        POINT RW1 AT BEGINNING OF TABLE      59274021
 005DC4 5010 BEC4      09774       10095        ST      RW1,TABADR          SAVE BEGINNING ADDR. TILL SRCHT4     59280021
1PH40     IKFCBL40                                                                                              PAGE  212
-  LOC  OBJECT CODE    ADDR1 ADDR2  STMT   SOURCE STATEMENT                                       ASM 0201 11.03 02/14/15
0005DC8 1841                       10096        LR      RW4,RW1            SAVE BEGINNING ADDR. IN RW4           59286021
 005DCA 1A31                       10097        AR      RW3,RW1            POINT RW3 AT END                      59292021
 005DCC 1913                       10098        CR      RW1,RW3            IS ANYTHING IN TABLE                  59298021
 005DCE 4780 7E2C      05DE4       10099        BC      EQ,SRCHT3           NO - EXIT                            59304021
                                   10100 *                                                                       59310021
                                   10101 *                                 SEEK INDICATED P-N ID                 59316021
                                   10102 *                                                                       59322021
 005DD2 D501 1000 BE90 00000 09740 10103 SRCHT2   CLC   DX0(LX2,RW1),SRCHNM    IS THIS TABLE ENTRY THE ONE WAN   59328021
 005DD8 4780 7E32      05DEA       10104        BC      EQ,SRCHT4            YES                                 59334021
 005DDC 1A12                       10105        AR      RW1,RW2              NO - POINT RW1 AT NEXT              59340021
 005DDE 1913                       10106        CR      RW1,RW3            IS TABLE EXHAUSTED                    59346021
 005DE0 4740 7E1A      05DD2       10107        BC      LO,SRCHT2            NO - LOOK AT NEXT                   59352021
                                   10108 *                                                                       59358021
 005DE4 9814 B200      08AB0       10109 SRCHT3 LM      RW1,RW4,SVSRCH       YES - EXIT NOT-FOUND                59364021
 005DE8 07FE                       10110        BCR     UNCOND,RCS          RETURN                               59370021
                                   10111 *                                                                       59376021
                                   10112 *              ID FOUND IN TABLE. SET UP EXIT PARAMETERS                59382021
                                   10113 *                                                                       59388021
                             05DEA 10114 SRCHT4 EQU     *                                                        59394021
 005DEA D201 BEC8 1002 09778 00002 10115          MVC   VNNUM(LX2),DX2(RW1)  SET VNNUM                           59400021
 005DF0 5B10 BEC4      09774       10116        S     RW1,TABADR                                                 59406021
 005DF4 5010 BEC4      09774       10117        ST      RW1,TABADR               OF ENTRY FOUND                  59412021
 005DF8 9814 B200      08AB0       10118        LM      RW1,RW4,SVSRCH                                           59418021
 005DFC 47FE 0004      00004       10119          BC    UNCOND,DX4(RCS)       EXIT FOUND-RETURN                  59424021
-
                                   10121 *                                                                       59436021
                                   10122 *                                                                       59442021
                                   10123 *                           G E T P V N                                 59448021
                                   10124 *                                                                       59454021
                                   10125 *      BAL     RCS,GETPVN                                               59460021
                                   10126 *      (RETURN)                                                         59466021
                                   10127 *                                                                       59472021
                                   10128 *      USED BY PERFORM AND IDLHN TO PROCESS PN'S WHOSE PERFORM-BIT      59478021
                                   10129 *       ON.                                                             59484021
                                   10130 *      IF THE PN IS IN THE VNTBL AND THE NEXT PN (OR SN)IS IN THE       59490021
                                   10131 *              PFMTBL, DOES NOTHING                                     59496021
                                   10132 *      IF THE PN IS IN THE VNTBL AND THE NEXT PN IS NOT IN THE PFMT     59502021
                                   10133 *              AND THIS IS POINT-OF-DEFINITION OR A FORWARD REFEREN     59508021
                                   10134 *              PUTS THE VN AND THE NEXT PN IN THE PFMTBL                59514021
                                   10135 *      IF THE PN IS NOT IN THE VNTBL, PUTS IT IN ALONG WITH             59520021
                                   10136 *              THE VN STORED WITH NEXT PN IN PFMTBL IF PRESENT,OR       59526021
                                   10137 *              A NEW VN, WHICH IS THEN ALSO ENTERED IN PFMTBL IF TH     59532021
                                   10138 *               IS POINT OF DEFINITION OR FORWARD REFERENCE             59538021
                                   10139 *                                                                       59544021
                                   10140 *** SUBROUTINES CALLED                                                  59550021
                                   10141 *      SRCHTB,PUPVNC,PNSRTF                                             59556021
                                   10142 *                                                                       59562021
                                   10143 *                                                                       59568021
                                   10144 *** NOTES                                                               59574021
                                   10145 *      BEFORE CALLING, PN WITH PERFORM BIT MUST BE STORED ST            59580021
                                   10146 *       THRUPN                                                          59586021
                                   10147 *                                                                       59592021
                                   10148 *                                                                       59598021
1PH40     IKFCBL40                                                                                              PAGE  213
-  LOC  OBJECT CODE    ADDR1 ADDR2  STMT   SOURCE STATEMENT                                       ASM 0201 11.03 02/14/15
0                            05E00 10149 GETPVN EQU     *                                                        59604021
 005E00 90E1 B4AC      08D5C       10150        STM     RCS,RW1,SVGTPV                                           59610021
                                   10151 *                                                                       59616021
                                   10152 *        GET ID OF PN WHERE END-OF-PERFORM CODING GOES                  59622021
                                   10153 *                                                                       59628021
 005E04 9140 BD4E      095FE       10154          TM    THRUPN+NX2,MSNBIT    IS THIS PN A SECTION-NAME           59634021
 005E08 4710 7E64      05E1C       10155        BC      ONES,GTPV02         YES                                  59640021
 005E0C 4810 BD50      09600       10156          LH    RW1,THRUPN+NX4         NO- END-OF-PERFORM GOES AT NEX    59646021
 005E10 4111 0001      00001       10157          LA    RW1,DX1(RW1)                                             59652021
 005E14 4010 BD56      09606       10158        STH     RW1,PFMEND                                               59658021
 005E18 47F0 7E6A      05E22       10159        BC      UNCOND,GTPV04       CHECK IF PN IN VNTBL                 59664021
 005E1C D201 BD56 BD54 09606 09604 10160 GTPV02   MVC   PFMEND(LX2),THRUSN                                       59670021
                                   10161 *                                                                       59676021
                                   10162 *                        IS THIS PN IN VNTBL                            59682021
                                   10163 *                                                                       59688021
 005E22 D201 BE90 BD50 09740 09600 10164 GTPV04   MVC   SRCHNM(LX2),THRUPN+NX4                                   59694021
 005E28 5810 B058      08908       10165        L       RW1,AVNTBL                                               59700021
 005E2C 45E0 7DF8      05DB0       10166        BAL     RCS,SRCHTB          GO TO SEARCH TABLE                   59706021
 005E30 47F0 7E80      05E38       10167        BC      UNCOND,GTPV06        NO                                  59712021
 005E34 47F0 7EA6      05E5E       10168        BC      UNCOND,GTPV08        YES                                 59718021
                                   10169 *                                                                       59724021
                                   10170 *        PN IS NOT IN VNTBL - BUT IS END-OF-PFM PN IN PFMTBL            59730021
                                   10171 *                                                                       59736021
 005E38 D201 BE90 BD56 09740 09606 10172 GTPV06   MVC   SRCHNM(LX2),PFMEND                                       59742021
 005E3E 5810 B060      08910       10173          L     RW1,APFMTB                                               59748021
 005E42 45E0 7DF8      05DB0       10174          BAL   RCS,SRCHTB          GO TO SEARCH TABLE                   59754021
 005E46 45E0 9B1E      07976       10175          BAL   RCS,PUPVNC          NO - GET A NEW VN                    59760021
 005E4A 5810 B058      08908       10176          L     RW1,AVNTBL          YES- USE VN FOUND IN PFMTBL          59766021
 005E4E 45E0 7D16      05CCE       10177          BAL   RCS,PNSRTF      ENTER THIS PN AND VN IN VNTBL            59772021
 005E52 4140 BD50      09600       10178          LA    RW4,THRUPN+NX4                                           59778021
 005E56 45E0 7D16      05CCE       10179          BAL   RCS,PNSRTF          ENTER PN,VN IN VNTBL                 59784021
 005E5A 4140 BEC8      09778       10180          LA    RW4,VNNUM                                                59790021
                                   10181 *                                                                       59796021
                                   10182 *              SHALL WE MAKE AN ENTRY IN PFMTBL                         59802021
                                   10183 *                                                                       59808021
 005E5E D201 BE90 BD56 09740 09606 10184 GTPV08   MVC   SRCHNM(LX2),PFMEND   IS END-OF-PFM PN ALREADY IN         59814021
 005E64 5810 B060      08910       10185        L       RW1,APFMTB                                               59820021
 005E68 45E0 7DF8      05DB0       10186        BAL     RCS,SRCHTB          GO TO SEARCH TABLE                   59826021
 005E6C 47F0 7EBC      05E74       10187          BC    UNCOND,*+NX8        NO                                   59832021
 005E70 47F0 7ED6      05E8E       10188        BC      UNCOND,GTPV10         YES - EXIT                         59838021
 005E74 D501 BD56 BD42 09606 095F2 10189          CLC   PFMEND(LX2),SAVLHN+NX4  NO - IS THIS A FORWARD REFEREN   59844021
 005E7A 47D0 7ED6      05E8E       10190        BC      NOTHI,GTPV10            NO - THEN PFMTBL ENTRY HAS A     59850021
                                   10191 *                                  READY BEEN PROCESSED AND DELETED     59856021
                                   10192 *                                  WHEN LHN WAS FOUND                   59862021
 005E7E 45E0 7D16      05CCE       10193        BAL     RCS,PNSRTF              YES - ENTER ENDOFPFM PN AND      59868021
 005E82 4140 BD56      09606       10194        LA      RW4,PFMEND                    IN PFMTBL                  59874021
 005E86 45E0 7D16      05CCE       10195        BAL     RCS,PNSRTF          ENTER VN NUMBER IN TABLE             59880021
 005E8A 4140 BEC8      09778       10196        LA      RW4,VNNUM                                                59886021
                             05E8E 10197 GTPV10 EQU     *                                                        59892021
 005E8E 98E1 B4AC      08D5C       10198        LM      RCS,RW1,SVGTPV       EXIT                                59898021
 005E92 07FE                       10199        BCR     UNCOND,RCS          RETURN                               59904021
-
                                   10201 *                                                                       59916021
1PH40     IKFCBL40                                                                                              PAGE  214
-  LOC  OBJECT CODE    ADDR1 ADDR2  STMT   SOURCE STATEMENT                                       ASM 0201 11.03 02/14/15
0                                  10202 *                                                                       59922021
                                   10203 *                                                                       59928021
                                   10204 *                           P A C K T B                                 59934021
                                   10205 *                                                                       59940021
                                   10206 *      L       RW1,ADDR. OF TIB                                         59946021
                                   10207 *      .                                                                59952021
                                   10208 *      .                                                                59958021
                                   10209 *      BAL     RCS,PACKTB                                               59964021
                                   10210 *      ( 2 4-BYTE INSTRUCTIONS WHICH WILL LOAD RW2 AND RW3 WITH THE     59970021
                                   10211 *      (  FROM- AND TO- DISPLACEMENTS IN THE TABLE)                     59976021
                                   10212 *      (RETURN AT 8(RCS) )                                              59982021
                                   10213 *                                                                       59988021
                                   10214 *      DELETES ENTRIES WITHIN A TABLE BY MOVING ALL ENTRIES STARTIN     59994021
                                   10215 *       AT TABLE-ADDRESS(RW2) TO TABLE-ADDRESS(RW3)                     60000021
                                   10216 *      UPDATES TAMM AND SAVED DISPLACEMENT AT DSP...                    60006021
                                   10217 *                                                                       60012021
                                   10218 *                                                                       60018021
                             05E94 10219 PACKTB EQU     *                                                        60024021
 005E94 9026 B4BC      08D6C       10220        STM     RW2,RW6,SVPKTB                                           60030021
 005E98 440E 0000      00000       10221          EX    RA0,DX0(RCS)                                             60036021
 005E9C 440E 0004      00004       10222          EX    RA0,DX4(RCS)                                             60042021
 005EA0 1842                       10223        LR      RW4,RW2                                                  60048021
 005EA2 1B43                       10224        SR      RW4,RW3            RW4 NOW HAS NUMBER TO DELETE          60054021
 005EA4 4780 7F4E      05F06       10225        BC      ZERO,PKTB8         EXIT IF NONE                          60060021
 005EA8 5861 0000      00000       10226          L     RW6,DX0(RW1)        RW6 HAS ADDR. OF TAMM                60066021
 005EAC 4856 0004      00004       10227          LH    RW5,DX4(RW6)                                             60072021
 005EB0 1B54                       10228        SR      RW5,RW4            RW5 NOW HAS NUMBER REMAINING          60078021
 005EB2 4846 0004      00004       10229          LH    RW4,DX4(RW6)                                             60084021
 005EB6 4740 7F4E      05F06       10230        BC      NEG,PKTB8           IMPOSSIBLE I HOPE                    60090021
 005EBA 4056 0004      00004       10231          STH   RW5,DX4(RW6)        STORE TAMM DISPL. FOR EXIT           60096021
 005EBE 4780 7F3E      05EF6       10232        BC      ZERO,PKTB6         NO MOVING TO DO                       60102021
                                   10233 *                                                                       60108021
 005EC2 1B42                       10234        SR      RW4,RW2            RW4 NOW HAS NUMBER TO MOVE            60114021
 005EC4 5E26 0000      00000       10235          AL    RW2,DX0(RW6)        RW2 NOW HAS SOURCE ADDR.             60120021
 005EC8 5E36 0000      00000       10236          AL    RW3,DX0(RW6)        RW3 NOW HAS TARGET ADDR.             60126021
                                   10237 *                                                                       60132021
 005ECC 4940 A5B8      082B0       10238 PKTB2  CH      RW4,N256                                                 60138021
 005ED0 47D0 7F32      05EEA       10239        BC      NOTHI,PKTB4         LESS THAN 256                        60144021
 005ED4 D2FF 3000 2000 00000 00000 10240          MVC   DX0(LX256,RW3),DX0(RW2) MOVE BLOCKS OF 256 BYTES         60150021
 005EDA 4122 0100      00100       10241          LA    RW2,DX256(RW2)                                           60156021
 005EDE 4133 0100      00100       10242          LA    RW3,DX256(RW3)                                           60162021
 005EE2 4B40 A5B8      082B0       10243        SH      RW4,N256                                                 60168021
 005EE6 47F0 7F14      05ECC       10244        BC      UNCOND,PKTB2        IS IT NOW LESS THAN 256              60174021
                                   10245 *                                                                       60180021
 005EEA 1244                       10246 PKTB4  LTR     RW4,RW4                                                  60186021
 005EEC 4780 7F3E      05EF6       10247        BC      ZERO,PKTB6          RW4 NOW CONTAINS ZERO                60192021
 005EF0 0640                       10248        BCTR  RW4,RA0               DECR NO. OF BYTES LEFT BY 1          60198021
 005EF2 4440 7F56      05F0E       10249        EX      RW4,PKTBMV          MOVE REMAINDER MOD 256               60204021
                                   10250 *                                                                       60210021
                             05EF6 10251 PKTB6  EQU     *                                                        60216021
 005EF6 9826 B4BC      08D6C       10252        LM      RW2,RW6,SVPKTB                                           60222021
 005EFA 41EE 0004      00004       10253          LA    RCS,DX4(RCS)                                             60228021
 005EFE 90E4 B15C      08A0C       10254        STM     RCS,RW4,SVTAME     GO UPDATE SAVED DISPL.                60234021
 005F02 47F0 7DC6      05D7E       10255        BC      UNCOND,PREMV4       GO UPDATE DISPLACEMENT               60240021
 005F06 9826 B4BC      08D6C       10256 PKTB8  LM      RW2,RW6,SVPKTB                                           60246021
1PH40     IKFCBL40                                                                                              PAGE  215
-  LOC  OBJECT CODE    ADDR1 ADDR2  STMT   SOURCE STATEMENT                                       ASM 0201 11.03 02/14/15
0005F0A 47FE 0008      00008       10257          BC    UNCOND,DX8(RCS)     RETURN                               60252021
                                   10258 *                                                                       60258021
 005F0E D200 3000 2000 00000 00000 10259 PKTBMV   MVC   DX0(LX1,RW3),DX0(RW2)                                    60264021
-
                                   10261 *                                                                       60276021
                                   10262 *                                                                       60282021
                                   10263 *              ROUTINE TO REINITIALIZE A TAMER TABLE                    60288021
                                   10264 *                                                                       60294021
                                   10265 *                                                                       60300021
                                   10266 *                             P Z S T R T                               60306021
                                   10267 *                                                                       60312021
                                   10268 *        BAL   RCS,PZSTRT                                               60318021
                                   10269 *      LA      N,ADDR. OF TIB-1    N IS NUMBER OF TABLES                60324021
                                   10270 *      LA      X,ADDR. OF TIB-2    X IS IGNORED,MAY BE 0-15             60330021
                                   10271 *      .       .                                                        60336021
                                   10272 *      .       .                                                        60342021
                                   10273 *      LA      X,ADDR. OF TIB-N                                         60348021
                                   10274 *        (RETURN)                                                       60354021
                                   10275 *                                                                       60360021
                                   10276 *      SETS DISPL. FIELD OF TAMM TO 0 FOR EACH TABLE                    60366021
                                   10277 *      SETS SAVED DISPL. TO 0 FOR EACH TABLE                            60372021
                                   10278 *                                                                       60378021
                                   10279 *                                                                       60384021
                             05F14 10280 PZSTRT EQU     *                                                        60390021
 005F14 90F3 B1A8      08A58       10281        STM     RAS,RW3,SVPZST                                           60396021
 005F18 1B00                       10282        SR      RA0,RA0                                                  60402021
 005F1A 430E 0001      00001       10283          IC    RA0,DX1(RCS)        RA0 CONTROLS LOOP                    60408021
 005F1E 8A00 0004      00004       10284          SRA   RA0,DX4                                                  60414021
 005F22 4110 00F0      000F0       10285        LA      RW1,X'F0'          RW1 EFFECTIVELY MAKES PZS2  L 15,     60420021
                                   10286 *                                                                       60426021
 005F26 441E 0000      00000       10287 PZS2     EX    RW1,DX0(RCS)                                             60432021
 005F2A D701 F004 F004 00004 00004 10288          XC    DX4(LX2,RAS),DX4(RAS) ZERO SAVED DISPL.                  60438021
 005F30 583F 0000      00000       10289          L     RW3,DX0(RAS)        GIVE RW3 TAMM ADDR                   60444021
 005F34 5833 0000      00000       10290          L     RW3,DX0(RW3)                                             60450021
 005F38 D701 3004 3004 00004 00004 10291          XC    DX4(LX2,RW3),DX4(RW3) STORE 0 AS DISPL                   60456021
 005F3E 41EE 0004      00004       10292          LA    RCS,DX4(RCS)         POINT RCS AT NEXT INSTR.            60462021
 005F42 4600 7F6E      05F26       10293        BCT     RA0,PZS2            RETURN FOR NEXT TABLE                60468021
 005F46 98F3 B1A8      08A58       10294        LM      RAS,RW3,SVPZST                                           60474021
 005F4A 07FE                       10295          BCR   UNCOND,RCS          RETURN                               60480021
-
                                   10297 *                                                                       60492021
                                   10298 *                             C O U N T                                 60498021
                                   10299 *      L       RW2,ADDR.                                                60504021
                                   10300 *      .                                                                60510021
                                   10301 *      .                                                                60516021
                                   10302 *      BAL     RCS,COUNT                                                60522021
                                   10303 *      (RETURN)                                                         60528021
                                   10304 *                                                                       60534021
                                   10305 *                                                                       60540021
                                   10306 *      COMPUTES TOTAL BYTE-COUNT OF ENTITY AT 0(RW2), STORES IT IN      60546021
                                   10307 *        HALF-WORD LOCATION 'BYTES'.                                    60552021
1PH40     IKFCBL40                                                                                              PAGE  216
-  LOC  OBJECT CODE    ADDR1 ADDR2  STMT   SOURCE STATEMENT                                       ASM 0201 11.03 02/14/15
0                                  10308 *                                                                       60558021
                                   10309 *                                                                       60564021
                                   10310 *                                                                       60570021
                             05F4C 10311 COUNT    EQU   *                                                        60576021
 005F4C 90E1 B0E4      08994       10312        STM     RCS,RW1,SVCONT                                           60582021
 005F50 1B11                       10313          SR    RW1,RW1                                                  60588021
 005F52 4312 0000      00000       10314          IC    RW1,DX0(RW2)                                             60594021
 005F56 8A10 0006      00006       10315          SRA   RW1,DX6                                                  60600021
 005F5A 4111 0001      00001       10316          LA    RW1,DX1(RW1)                                             60606021
 005F5E 4770 7FB8      05F70       10317        BC      NOTZER,COUNT2      FIXED-LENGTH                          60612021
 005F62 4312 0001      00001       10318          IC    RW1,DX1(RW2)        VARIABLE-LENGTH                      60618021
 005F66 1211                       10319        LTR     RW1,RW1                                                  60624021
 005F68 4780 7FC2      05F7A       10320        BC      ZERO,CNTDMP        CATASTROPHE IF COUNT=0                60630021
 005F6C 4111 0002      00002       10321          LA    RW1,DX2(RW1)                                             60636021
 005F70 4010 BE72      09722       10322 COUNT2 STH     RW1,BYTES                                                60642021
 005F74 98E1 B0E4      08994       10323        LM      RCS,RW1,SVCONT                                           60648021
 005F78 07FE                       10324        BCR     UNCOND,RCS          RETURN                               60654021
                                   10325 *                                                                       60660021
                             05F7A 10326 CNTDMP EQU     *                                                        60666021
 005F7A 45E0 9BDA      07A32       10327        BAL     RCS,ERROR           ISSUE ERROR MESSAGE                  60672021
 005F7E 4110 A243      07F3B       10328        LA      RW1,ELST58                                               60678021
 005F82 47F0 753C      054F4       10329        BC    UNCOND,EOF1              EXIT FROM PHASE4                  60684021
-
                                   10331 *                                                                       60696021
                                   10332 *                                                                       60702021
                                   10333 *                                 G O B A C K                           60708021
                                   10334 *                                                                       60714021
                                   10335 *      L       RW1,ADDR. OF TIB                                         60720021
                                   10336 *      .                                                                60726021
                                   10337 *      .                                                                60732021
                                   10338 *      BAL     RCS,GOBACK                                               60738021
                                   10339 *      DC      XL2'N'                                                   60744021
                                   10340 *                                                                       60750021
                                   10341 *                                                                       60756021
                                   10342 *      STORES AT ADNTRY THE ADDRESS OF THE NTH ENTRY                    60762021
                                   10343 *        FROM THE END OF A VARIABLE-LENGTH TAMER TABLE                  60768021
                                   10344 *                                                                       60774021
                                   10345 *                                                                       60780021
                             05F86 10346 GOBACK EQU     *                                                        60786021
 005F86 9024 B318      08BC8       10347        STM   RW2,RW4,SVGOBK                                             60792021
 005F8A 5821 0000      00000       10348          L     RW2,DX0(RW1)                                             60798021
 005F8E 4832 0004      00004       10349          LH    RW3,DX4(RW2)                                             60804021
 005F92 5822 0000      00000       10350          L     RW2,DX0(RW2)                                             60810021
 005F96 1A23                       10351        AR      RW2,RW3            RW2 GETS ADDR. OF END OF TABLE        60816021
 005F98 484E 0000      00000       10352          LH    RW4,DX0(RCS)        RW4 KEEPS TRACK OF N                 60822021
 005F9C 1B33                       10353        SR      RW3,RW3                                                  60828021
 005F9E 0620                       10354 GOBAK2 BCTR  RW2,RA0               SUBTRACT ONE                         60834021
 005FA0 4332 0000      00000       10355          IC    RW3,DX0(RW2)        PUT TRAILING BYTE-COUNT IN RW3       60840021
 005FA4 1B23                       10356        SR      RW2,RW3            POINT RW2 AT START OF PRECEDING E     60846021
 005FA6 4640 7FE6      05F9E       10357        BCT     RW4,GOBAK2         RETURN FOR PRECEDING ENTRY TO THI     60852021
 005FAA 5020 BC74      09524       10358        ST    RW2,ADNTRY                                                 60858021
 005FAE 9824 B318      08BC8       10359        LM    RW2,RW4,SVGOBK                                             60864021
 005FB2 47FE 0002      00002       10360          BC    UNCOND,DX2(RCS)     RETURN                               60870021
1PH40     IKFCBL40                                                                                              PAGE  217
-  LOC  OBJECT CODE    ADDR1 ADDR2  STMT   SOURCE STATEMENT                                       ASM 0201 11.03 02/14/15
0                                  10362 *=2    STOINP    ROUTINES TO STORE OUTPUT BEFORE GENERATING             60882021
 005FB8                            10363 IKF402   CSECT                                                          60888021
                             05FB8 10364 COMON2   EQU   *                                                        60894021
                                   10365 *                                                                       60900021
                                   10366 *                                                                       60906021
                                   10367 *                                                                       60912021
                                   10368 *                           S T O I N P                                 60918021
                                   10369 *                           S T O R 4 5                                 60924021
                                   10370 *                           S T P N I N                                 60930021
                                   10371 *                           S T L O O P                                 60936021
                                   10372 *                                                                       60942021
                                   10373 *                                                                       60948021
                                   10374 *      ROUTINE TO STORE SOMETHING AT NEXT POSITION OF VERB-STRING       60954021
                                   10375 *                                                                       60960021
                                   10376 *      THERE ARE FOUR ENTRANCES TO THIS ROUTINE                         60966021
                                   10377 *                                                                       60972021
                                   10378 *      BAL   RCS,STOINP       TO STORE CURRENT ENTITY FROM INPUT        60978021
                                   10379 *      (RETURN)                                                         60984021
                                   10380 *                                                                       60990021
                                   10381 *      BAL     RCS,STOR45    TO STORE ENTITY AT 0(RW4)                  60996021
                                   10382 *      (RETURN)                                                         61002021
                                   10383 *                                                                       61008021
                                   10384 *      BAL     RCS,STPNIN         TO STORE THE P2-TEXT EQUIVALENT O     61014021
                                   10385 *      (RETURN)                   CURRENT INPUT ENTITY WHEN IT IS (     61020021
                                   10386 *                                 MAY BE) ONE WHOSE P2 DIFFERS FROM     61026021
                                   10387 *                                                                       61032021
                                   10388 *                                                                       61038021
                                   10389 *      BAL     RCS,STLOOP         TO STORE IN SUCCESSION THE N ENTI     61044021
                                   10390 *      DC      XL2'N'              WHOSE ADDRESSES ARE INDICATED BY     61050021
                                   10391 *      LA      RW4,ENTITY-1        LA INSTRUCTION. (CALLS STOR45)       61056021
                                   10392 *      LA      RW4,ENTITY-2                                             61062021
                                   10393 *      .                                                                61068021
                                   10394 *      .                                                                61074021
                                   10395 *      LA      RW4,ENTITY-N                                             61080021
                                   10396 *                                                                       61086021
                                   10397 *                                                                       61092021
                                   10398 *            VERB-STRING IS A TAMER TABLE WHERE OUTPUT IS COLLECTED     61098021
                                   10399 *            BEFORE BEING GENERATED                                     61104021
                                   10400 *                                                                       61110021
                                   10401 *** SUBROUTINES CALLED                                                  61116021
                                   10402 *      ALL ROUTINES CALL PNSRTV ROUTINE, WHICH  UPDATES TAMER           61122021
                                   10403 *      TABLE POINTERS AND APPENDS BYTE-COUNT OF ENTITY AT END OF        61128021
                                   10404 *      ENTRY BEING STORED                                               61134021
                                   10405 *      STLOOP CALLS STOR45                                              61140021
                                   10406 *                                                                       61146021
                                   10407 *                                                                       61152021
                             05FB8 10408 STOR45   EQU   *                                                        61158021
 005FB8 9101 BFC2      09872       10409        TM      STO5SW,MSWON        DOES STO5 APPLY, THIS VERB...        61164021
 005FBC 4710 8098      06050       10410        BC      ONES,STO545          YES, BRANCH TO STO5 ROUTINES        61170021
 005FC0 90E5 B120      089D0       10411 STOR4A STM     RCS,RW5,SVSTO       SAVE REGISTERS                       61176021
 005FC4 47F0 8056      0600E       10412        BC      UNCOND,STO2         GO TO STORE IN VERB STRING           61182021
                                   10413 *                                                                       61188021
                             05FC8 10414 STPNIN EQU     *                                                        61194021
 005FC8 9101 BFC2      09872       10415        TM      STO5SW,MSWON       DOES STO5 APPLY                       61200021
 005FCC 4710 80A4      0605C       10416        BC      ONES,ST5PNI          YES - BRANCH                        61206021
1PH40     IKFCBL40                                                                                              PAGE  218
-  LOC  OBJECT CODE    ADDR1 ADDR2  STMT   SOURCE STATEMENT                                       ASM 0201 11.03 02/14/15
0005FD0 90E5 B120      089D0       10417 STPNIA STM     RCS,RW5,SVSTO                                            61212021
 005FD4 9520 C000      00000       10418          CLI   DX0(RIN),MPNU       IS IT RHN                            61218021
 005FD8 4780 8034      05FEC       10419        BC      EQ,STPNI2            YES                                 61224021
 005FDC 9506 C000      00000       10420          CLI   DX0(RIN),MPND       IS IT LHN                            61230021
 005FE0 4770 8054      0600C       10421        BC      NOTEQ,STO1          NO - GO TO ORDINARY STOINP           61236021
 005FE4 4140 BEA0      09750       10422        LA      RW4,PNDEF                                                61242021
 005FE8 47F0 8038      05FF0       10423          BC    UNCOND,*+NX8        MOVE IN PN NO,PRTY NO,THEN STORE     61248021
 005FEC 4140 BEA4      09754       10424 STPNI2 LA      RW4,PNREF          POINT RW4 TO PROPER HEADER            61254021
 005FF0 D201 4002 C004 00002 00004 10425          MVC   PROCNM(LX2,RW4),PNIDEN(RIN) MOVE IN PN NUMBER            61260021
 005FF6 D200 4001 C007 00001 00007 10426          MVC   PRIOTY(LX1,RW4),PTYPN(RIN) PRIORITY NUMBER               61266021
 005FFC 47F0 8056      0600E       10427        BC      UNCOND,STO2        GO STORE                              61272021
                                   10428 *                                                                       61278021
                             06000 10429 STOINP   EQU   *                                                        61284021
 006000 9101 BFC2      09872       10430        TM      STO5SW,MSWON        DOES STO5 APPLY, THIS VERB...        61290021
 006004 4710 808C      06044       10431        BC      ONES,STO5IN          YES, BRANCH TO STO5 ROUTINES        61296021
 006008 90E5 B120      089D0       10432 STOINA STM     RCS,RW5,SVSTO       SAVE REGISTERS                       61302021
 00600C 184C                       10433 STO1   LR      RW4,RIN                                                  61308021
                                   10434 *                                                                       61314021
                                   10435 *              STORE IN VERB STRING                                     61320021
                                   10436 *                                                                       61326021
 00600E 5810 B048      088F8       10437 STO2     L     RW1,ASTRNG                                               61332021
 006012 45E0 7D5C      05D14       10438        BAL     RCS,PNSRTV         INSERT IN STRING TABLE                61338021
 006016 4144 0000      00000       10439          LA    RW4,DX0(RW4)                                             61344021
 00601A 98E5 B120      089D0       10440        LM      RCS,RW5,SVSTO                                            61350021
 00601E 07FE                       10441          BCR   UNCOND,RCS          RETURN                               61356021
                                   10442 *                                                                       61362021
                                   10443 *                                                                       61368021
                                   10444 *                                                                       61374021
                             06020 10445 STLOOP EQU     *                                                        61380021
 006020 90E4 B438      08CE8       10446        STM     RCS,RW4,SVSTLP                                           61386021
 006024 483E 0000      00000       10447          LH    RW3,DX0(RCS)        GIVE COUNT TO RW3                    61392021
 006028 41FE 0002      00002       10448          LA    RAS,DX2(RCS)         SAVE RCS AND POINT RAS AT 1ST LA    61398021
 00602C 440F 0000      00000       10449 STLOP2   EX    RA0,DX0(RAS)            LOAD RW4                         61404021
 006030 45E0 8000      05FB8       10450        BAL     RCS,STOR45           GO STORE                            61410021
 006034 41FF 0004      00004       10451          LA    RAS,DX4(RAS)        POINT RAS AT NEXT                    61416021
 006038 4630 8074      0602C       10452        BCT     RW3,STLOP2         LOOP BACK TILL FINISHED               61422021
 00603C 18EF                       10453        LR      RCS,RAS            RESTORE RCS TO RETURN ADDR.           61428021
 00603E 98F4 B43C      08CEC       10454          LM    RAS,RW4,SVSTLP+NX4                                       61434021
 006042 07FE                       10455        BCR     UNCOND,RCS          RETURN                               61440021
1PH40     IKFCBL40                                                                                              PAGE  219
-  LOC  OBJECT CODE    ADDR1 ADDR2  STMT   SOURCE STATEMENT                                       ASM 0201 11.03 02/14/15
0                                  10457 *******************************************************************     61452021
                                   10458 *                                                                       61458021
                                   10459 *                                                                       61464021
                                   10460 *                           S T O 5 I N                                 61470021
                                   10461 *                           S T O 5 4 5                                 61476021
                                   10462 *                           S T 5 P N I                                 61482021
                                   10463 *                                                                       61488021
                                   10464 *                                                                       61494021
                                   10465 *      THIS ROUTINE SERVES TO BREAK LONG STRINGS UP INTO A SERIES       61500021
                                   10466 *              OF SUBSTRINGS EACH OF WHICH HAS A VERB, AN ELEMENT       61506021
                                   10467 *              COUNT = TO STO5LM                                        61512021
                                   10468 *                                                                       61518021
                                   10469 *      THE CALLING SEQUENCE IS...                                       61524021
                                   10470 *              FOR  STOINP,...                                          61530021
                                   10471 *      BAL     RCS,STO5IN                                               61536021
                                   10472 *              FOR STOR45...                                            61542021
                                   10473 *      BAL     RCS,STO545                                               61548021
                                   10474 *              FOR STPNIN                                               61554021
                                   10475 *      BAL     RCS,ST5PNI                                               61560021
                                   10476 *                                                                       61566021
                                   10477 *      REMAINDER OF CALLING SEQUENCE IS THE SAME AS                     61572021
                                   10478 *        FOR STOINP,STOR45,STPNIN                                       61578021
                                   10479 *                                                                       61584021
                                   10480 *                                                                       61590021
                                   10481 *** SUBROUTINES CALLED                                                  61596021
                                   10482 *      STOINP,STOR45,STPNIN,GENSTR,STOVRB                               61602021
                                   10483 *                                                                       61608021
                                   10484 *                                                                       61614021
                                   10485 *** NOTES                                                               61620021
                                   10486 *      STO5LM = 5 UNLESS SOME VERB ANALYZER CHANGES IT. VERB ANALYZ     61626021
                                   10487 *       MUST RESTORE THE 5 BEFORE EXIT.                                 61632021
                                   10488 *      STO5J IS THE ELEMENT COUNTER.IT IS INITIALIZED AT 0 BY IDENT     61638021
                                   10489 *        AND REINITIALIZED HERE EVERY TIME THE LIMIT OF ELEMENTS IS     61644021
                                   10490 *        REACHED AND A VERB IS STORED AGAIN                             61650021
                                   10491 *      STO5VE IS THE DISPLACEMENT OF THE LAST VERB STORED               61656021
                                   10492 *      STO5CT IS TURNED OFF BY IDENT, ON BY VERBS NEEDING IT.           61662021
                                   10493 *        WHEN OFF EACH STRING OF 5 ELEMENTS IS GENERATED WHEN COMPL     61668021
                                   10494 *        WHEN ON, STRINGS ARE LEFT TO PILE UP IN THE TABLE              61674021
                                   10495 *                                                                       61680021
                                   10496 *                                                                       61686021
                                   10497 *******************************************************************     61692021
                             06044 10498 STO5IN EQU     *                                                        61698021
 006044 90E2 B400      08CB0       10499        STM     RCS,RW2,SVSTO5      SAVE REGISTERS                       61704021
 006048 4110 0000      00000       10500          LA    RW1,DX0              3 TO I IN RW1                       61710021
 00604C 47F0 80AC      06064       10501        BC      UNCOND,STO51        GO TO COMMON CODING                  61716021
                             06050 10502 STO545 EQU     *                                                        61722021
 006050 90E2 B400      08CB0       10503        STM     RCS,RW2,SVSTO5      SAVE REGISTERS                       61728021
 006054 4110 0004      00004       10504          LA    RW1,DX4              I = 1 (*4)                          61734021
 006058 47F0 80AC      06064       10505        BC      UNCOND,STO51        GO TO COMMON CODING                  61740021
                             0605C 10506 ST5PNI EQU     *                                                        61746021
 00605C 90E2 B400      08CB0       10507        STM     RCS,RW2,SVSTO5      SAVE REGISTERS                       61752021
 006060 4110 0008      00008       10508          LA    RW1,DX8              I = 2 (*4)                          61758021
 006064 4820 BE98      09748       10509 STO51  LH      RW2,STO5J           J TO RW2     COMMON CODING ENTRY     61764021
 006068 D500 BE99 BE4A 09749 096FA 10510          CLC   STO5J+NX1(LX1),VERB+NX2 DOES J = MAX ELEMENT COUNT FOR V 61770021
 00606E 4780 80EA      060A2       10511        BC      EQ,STO52             YES, GO BREAK STRING                61776021
1PH40     IKFCBL40                                                                                              PAGE  220
-  LOC  OBJECT CODE    ADDR1 ADDR2  STMT   SOURCE STATEMENT                                       ASM 0201 11.03 02/14/15
0006072 4122 0001      00001       10512          LA    RW2,DX1(RW2)         J = J + 1  IN RW2                   61782021
 006076 4020 BE98      09748       10513 STO53  STH     RW2,STO5J           SAVE NEW J FOR NEXT TIME THRU        61788021
 00607A 47F1 80C6      0607E       10514        BC      UNCOND,STO54(RW1)   TRANSFER VECTOR TO STO ROUTINES      61794021
 00607E 47F0 80D2      0608A       10515 STO54  BC      UNCOND,STO55        KEEP                                 61800021
 006082 47F0 80DA      06092       10516        BC      UNCOND,STO56             THESE                           61806021
 006086 47F0 80E2      0609A       10517        BC      UNCOND,STO57                  CONSECUTIVE.               61812021
 00608A 98E2 B400      08CB0       10518 STO55  LM      RCS,RW2,SVSTO5      EXITS                                61818021
 00608E 47F0 8050      06008       10519        BC      UNCOND,STOINA             TO                             61824021
 006092 98E2 B400      08CB0       10520 STO56  LM      RCS,RW2,SVSTO5               STO                         61830021
 006096 47F0 8008      05FC0       10521        BC      UNCOND,STOR4A                    SUB-                    61836021
 00609A 98E2 B400      08CB0       10522 STO57  LM      RCS,RW2,SVSTO5                       ROUTINES            61842021
 00609E 47F0 8018      05FD0       10523        BC      UNCOND,STPNIA       STORE                                61848021
 0060A2 9101 BE9C      0974C       10524 STO52  TM      STO5CT,MSWON        IS STRING CONTIN-SEGMENTED...        61854021
 0060A6 4710 80F6      060AE       10525        BC      ONES,STO58           YES, DO NOT BREAK                   61860021
 0060AA 45E0 7766      0571E       10526        BAL     RCS,GENSTR           NO, BREAK                           61866021
 0060AE D201 BE9A B04C 0974A 088FC 10527 STO58    MVC   STO5VE(LX2),DSPSTR   SAVE THIS VERB'S DISPL.             61872021
 0060B4 45E0 8166      0611E       10528        BAL     RCS,STOVRB          ENSTRING CURRENT VERB                61878021
                                   10529 *                                  IS A REPEAT OF THE CURRENT VERB.     61884021
 0060B8 4120 0001      00001       10530          LA    RW2,DX1              START NEW J COUNT OF 1              61890021
 0060BC 47F0 80BE      06076       10531        BC      UNCOND,STO53        CONTINUE PROCESSING                  61896021
-
                                   10533 *                                                                       61908021
                                   10534 *                                                                       61914021
                                   10535 *                           S T O 5 C U                                 61920021
                                   10536 *                                                                       61926021
                                   10537 *      BAL     RCS,STO5CU                                               61932021
                                   10538 *      (RETURN)                                                         61938021
                                   10539 *                                                                       61944021
                                   10540 *      APPENDS COBOL WORD 'END' AS LAST ELEMENT OF A SEGMENTED STRI     61950021
                                   10541 *       CREATED BY THE STO5.. ROUTINES. ENTERS THE ELEMENT COUNT OF     61956021
                                   10542 *       THE LAST SUBSTRING INTO THE VERB. REINITIALIZES STO5J.          61962021
                                   10543 *       GENERATES                                                       61968021
                                   10544 *                                                                       61974021
                                   10545 *                                                                       61980021
                                   10546 *** SUBROUTINES CALLED                                                  61986021
                                   10547 *      CALLS STO545 TO STORE THE 'END'                                  61992021
                                   10548 *      GENSTR                                                           61998021
                                   10549 *                                                                       62004021
                                   10550 *                                                                       62010021
                                   10551 *                                                                       62016021
 0060C0 90E4 B210      08AC0       10552 STO5CU STM     RCS,RW4,SVSTCU                                           62022021
 0060C4 4140 A4F6      081EE       10553        LA      RW4,CBEND           PUT C.W. 'END' IN AS TERMINATOR      62028021
 0060C8 45E0 8098      06050       10554        BAL     RCS,STO545          STORE 'END' IN STRING                62034021
 0060CC 5810 B048      088F8       10555        L       RW1,ASTRNG          J REPLACES COUNT IN STRING           62040021
 0060D0 5811 0000      00000       10556          L     RW1,DX0(RW1)                                             62046021
 0060D4 5811 0000      00000       10557          L     RW1,DX0(RW1)                                             62052021
 0060D8 4A10 BE9A      0974A       10558        AH      RW1,STO5VE          ADD DISPL OF LAST VERB IN STRING     62058021
 0060DC D200 1002 BE99 00002 09749 10559          MVC   DX2(LX1,RW1),STO5J+NX1 SET J IN AS NEW ELEMENT COUNT     62064021
 0060E2 45E0 7766      0571E       10560        BAL     RCS,GENSTR          GENERATE THIS STRING SEGMENT         62070021
 0060E6 D701 BE98 BE98 09748 09748 10561          XC    STO5J(LX2),STO5J    SET J = 0                            62076021
 0060EC 98E4 B210      08AC0       10562        LM      RCS,RW4,SVSTCU                                           62082021
 0060F0 07FE                       10563        BCR     UNCOND,RCS          RETURN                               62088021
1PH40     IKFCBL40                                                                                              PAGE  221
-  LOC  OBJECT CODE    ADDR1 ADDR2  STMT   SOURCE STATEMENT                                       ASM 0201 11.03 02/14/15
0                                  10565 *                                                                       62100021
                                   10566 *                           S T O 5 B G                                 62106021
                                   10567 *                                                                       62112021
                                   10568 *      BAL     RCS,STO5BG                                               62118021
                                   10569 *      (RETURN)                                                         62124021
                                   10570 *                                                                       62130021
                                   10571 *      STARTS A CONTINUOUS STRING BY STORING VERB AND COBOL WORD        62136021
                                   10572 *       'FIRST' AS ITS 1ST OPERAND                                      62142021
                                   10573 *                                                                       62148021
                                   10574 *** SUBROUTINES CALLED                                                  62154021
                                   10575 *      STOVRB,STO545                                                    62160021
                                   10576 *                                                                       62166021
 0060F2 90E4 B210      08AC0       10577 STO5BG STM     RCS,RW4,SVSTCU                                           62172021
 0060F6 9601 BFC2      09872       10578        OI      STO5SW,MSWON                                             62178021
 0060FA 45E0 8166      0611E       10579        BAL     RCS,STOVRB          STORE VERB IN STRING                 62184021
 0060FE 4140 A34A      08042       10580        LA      RW4,CBFRST                                               62190021
 006102 45E0 8098      06050       10581        BAL     RCS,STO545          STORE FIRST IN STRING                62196021
 006106 98E4 B210      08AC0       10582        LM      RCS,RW4,SVSTCU                                           62202021
 00610A 07FE                       10583        BCR     UNCOND,RCS          RETURN                               62208021
-
                                   10585 *                                                                       62220021
                                   10586 *                                                                       62226021
                                   10587 *                           S T O D U M                                 62232021
                                   10588 *                                                                       62238021
                                   10589 *      BAL     RCS,STODUM                                               62244021
                                   10590 *      (RETURN)                                                         62250021
                                   10591 *                                                                       62256021
                                   10592 *      PLACES A FIGCON ZERO INTO STRING AS A DUMMY ELEMENT.             62262021
                                   10593 *                                                                       62268021
                                   10594 *** SUBROUTINES CALLED                                                  62274021
                                   10595 *      STOR45                                                           62280021
                                   10596 *                                                                       62286021
                                   10597 *                                                                       62292021
 00610C 90E5 B3DC      08C8C       10598 STODUM STM     RCS,RW5,ONSVRG                                           62298021
 006110 4140 A4EA      081E2       10599        LA      RW4,CBZERO          STARTING SOURCE ADDR                 62304021
 006114 45E0 8000      05FB8       10600        BAL     RCS,STOR45          PUT ZERO INTO STRING                 62310021
 006118 98E5 B3DC      08C8C       10601        LM      RCS,RW5,ONSVRG                                           62316021
 00611C 07FE                       10602        BCR     UNCOND,RCS          LEAVE STODUM                         62322021
-
                                   10604 *                                                                       62334021
                                   10605 *                                                                       62340021
                                   10606 *                           S T O V R B                                 62346021
                                   10607 *                                                                       62352021
                                   10608 *                                                                       62358021
                                   10609 *      ROUTINE TO STORE VERB ALONG WITH ELEMENT COUNT                   62364021
                                   10610 *        IN STRING TAMER-TABLE                                          62370021
                                   10611 *                                                                       62376021
                                   10612 *      BAL     RCS,STOVRB                                               62382021
                                   10613 *      (RETURN)                                                         62388021
                                   10614 *                                                                       62394021
                                   10615 *                                                                       62400021
1PH40     IKFCBL40                                                                                              PAGE  222
-  LOC  OBJECT CODE    ADDR1 ADDR2  STMT   SOURCE STATEMENT                                       ASM 0201 11.03 02/14/15
0                                  10616 *** SUBROUTINES CALLED                                                  62406021
                                   10617 *      STOR45                                                           62412021
                                   10618 *                                                                       62418021
                                   10619 *                                                                       62424021
                                   10620 *                                                                       62430021
 00611E 50E0 B118      089C8       10621 STOVRB ST      RCS,SVSTVB                                               62436021
 006122 5040 B11C      089CC       10622          ST    RW4,SVSTVB+NX4                                           62442021
 006126 4140 BE48      096F8       10623        LA      RW4,VERB                                                 62448021
 00612A 45E0 8008      05FC0       10624        BAL     RCS,STOR4A         AVOID STO5 CHECK                      62454021
 00612E 58E0 B118      089C8       10625        L       RCS,SVSTVB                                               62460021
 006132 5840 B11C      089CC       10626          L     RW4,SVSTVB+NX4                                           62466021
 006136 07FE                       10627        BCR     UNCOND,RCS          RETURN                               62472021
-
                                   10629 *                                                                       62484021
                                   10630 *                                                                       62490021
                                   10631 *                             P G O N X T                               62496021
                                   10632 *                                                                       62502021
                                   10633 *      ROUTINE TO STORE                                                 62508021
                                   10634 *                'GO'                                                   62514021
                                   10635 *                'COUNT-1'                                              62520021
                                   10636 *                'RGN-NEXT-SENTENCE'    IN VERB STRING                  62526021
                                   10637 *                                                                       62532021
                                   10638 *        BAL   RCS,PGONXT                                               62538021
                                   10639 *        (RETURN)                                                       62544021
                                   10640 *                                                                       62550021
                                   10641 *** SUBROUTINES CALLED                                                  62556021
                                   10642 *      STOR45,NEWNXT                                                    62562021
                                   10643 *                                                                       62568021
 006138 50E0 B238      08AE8       10644 PGONXT   ST    RCS,SVGONX                                               62574021
 00613C 5040 B23C      08AEC       10645          ST    RW4,SVGONX+NX4                                           62580021
 006140 4140 A55E      08256       10646        LA      RW4,CBGO                                                 62586021
 006144 45E0 8000      05FB8       10647        BAL     RCS,STOR45          STORE 'GO' IN STRING                 62592021
 006148 45E0 9B3C      07994       10648          BAL   RCS,NEWNXT          GET NXTSNT IF NONE EXISTS            62598021
 00614C D201 BE02 BE18 096B2 096C8 10649          MVC   RGN+NX1(LX2),NXTSNT                                      62604021
 006152 4140 BE01      096B1       10650        LA      RW4,RGN                                                  62610021
 006156 45E0 8000      05FB8       10651        BAL     RCS,STOR45          STORE GN REF IN STRING               62616021
 00615A 5840 B23C      08AEC       10652          L     RW4,SVGONX+NX4                                           62622021
 00615E 58E0 B238      08AE8       10653          L     RCS,SVGONX                                               62628021
 006162 07FE                       10654          BCR   UNCOND,RCS          RETURN                               62634021
1PH40     IKFCBL40                                                                                              PAGE  223
-  LOC  OBJECT CODE    ADDR1 ADDR2  STMT   SOURCE STATEMENT                                       ASM 0201 11.03 02/14/15
0                                  10656 *=2    RDUCOP    CONTROL ROUTINE FOR DATA-OPERANDS                      62646021
                                   10657 *                                                                       62652021
                                   10658 *                             R D U C O P                               62658021
                                   10659 *                                                                       62664021
                                   10660 *      BAL     RCS,RDUCOP                                               62670021
                                   10661 *      (RETURN NOT A DATA-OPERAND)                                      62676021
                                   10662 *      (RETURN OK OPERAND)                                              62682021
                                   10663 *                                                                       62688021
                                   10664 *                                                                       62694021
                                   10665 *** SUBROUTINES CALLED                                                  62700021
                                   10666 *      ISDTOP,SUBSCR                                                    62706021
                                   10667 *                                                                       62712021
                                   10668 *        ISDTOP,WHICH REDUCES 'ALL 'CHAR' ' TO A FIGCON                 62718021
                                   10669 *                             '+ (-) NUMERIC OR FLOATING LIT' TO LI     62724021
                                   10670 *        SUBSCR,WHICH REDUCES SUBSCRIPTED DATA-NAME TO SSID             62730021
                                   10671 *                                                                       62736021
                                   10672 *                                                                       62742021
                                   10673 *** NOTES                                                               62748021
                                   10674 *      UPON EXIT, THE ENTITY AT 0+PNTIN IS THE REDUCED OPERAND, AND     62754021
                                   10675 *        MODE AND DCURR CONTAIN THE SUMMARY OF ITS ATTRIBUTES.          62760021
                                   10676 *        (NOTE THAT IF SUBSCR WAS CALLED PNTIN HAS THE ADDR. OF         62766021
                                   10677 *         CURENT RATHER THAN OF INPUT BUFFER.)                          62772021
                                   10678 *                                                                       62778021
                                   10679 *                                                                       62784021
                                   10680 *                                                                       62790021
                             06164 10681 RDUCOP EQU          *                                                   62796021
 006164 50E0 B37C      08C2C       10682        ST      RCS,SVRDUC                                               62802021
 006168 45E0 88C0      06878       10683        BAL     RCS,ISDTOP         IS INPUT A DATA-NAME,LIT OR FIGCO     62808021
 00616C 47F0 81CC      06184       10684        BC      UNCOND,RDUCO4        NO - EXIT NO GOOD                   62814021
 006170 9101 BE64      09714       10685        TM      MODE,MLITBT        IS IT DATA-NAME                       62820021
 006174 4710 81C4      0617C       10686        BC      ONES,RDUCO2          NO - EXIT OK                        62826021
 006178 45E0 81D2      0618A       10687        BAL     RCS,SUBSCR           YES- REDUCE TO SSID IF SUBSCRIP     62832021
 00617C 58E0 B37C      08C2C       10688 RDUCO2 L       RCS,SVRDUC           NO - EXIT OK                        62838021
 006180 47FE 0004      00004       10689          BC    UNCOND,DX4(RCS)     RETURN                               62844021
 006184 58E0 B37C      08C2C       10690 RDUCO4 L       RCS,SVRDUC                                               62850021
 006188 07FE                       10691        BCR     UNCOND,RCS          RETURN                               62856021
1PH40     IKFCBL40                                                                                              PAGE  224
-  LOC  OBJECT CODE    ADDR1 ADDR2  STMT   SOURCE STATEMENT                                       ASM 0201 11.03 02/14/15
0                                  10693 *=2    SUBSCR    TURN SUBSCRIPTED DN TO SSID,TABLE SS-DEFINING STRI     62868021
                                   10694 *******************************************************************     62874021
                                   10695 *                                                                       62880021
                                   10696 *                                                                       62886021
                                   10697 *                                S U B S C R                            62892021
                                   10698 *                                                                       62898021
                                   10699 *      BAL     RCS,SUBSCR                                               62904021
                                   10700 *      (RETURN)                                                         62910021
                                   10701 *                                                                       62916021
                                   10702 *      CALLED BY RDUCOP                                                 62922021
                                   10703 *                                                                       62928021
                                   10704 *** SUBROUTINES CALLED                                                  62934021
                                   10705 *      GETNXT,SAVNXT,SAVCUR,COUNT,PNSRTF,ISINTG,ERROR                   62940021
                                   10706 *                                                                       62946021
                                   10707 *                                                                       62952021
                                   10708 *** ERROR PROCESSING                                                    62958021
                                   10709 *      ANY ERROR FOUND CAUSES INPUT (AT CURENT) TO BE REPLACED BY       62964021
                                   10710 *        ERROR-SYMBOL AND MODE BY 0. VERB ANALYZERS WILL THEN TREAT     62970021
                                   10711 *        THE INCORRECTLY SUBSCRIPTED NAME AS A LEPER.                   62976021
                                   10712 *      A SUBSCRIPT GROUP IS CONSIDERED TO START ONLY IF ( FOLLOWS       62982021
                                   10713 *        THE DATA NAME AND TO END AT THE FIRST NON-OPERAND (OPERAND     62988021
                                   10714 *        INCLUDES DATA OPERANDS,NON-DATA OPERANDS, AND ERROR SYMBOL     62994021
                                   10715 *      ERRORS DIAGNOSED ARE                                             63000021
                                   10716 *              INCORRECT NUMBER OF SUBSCRIPTS                           63006021
                                   10717 *              NON-NUMERIC SUBSCRIPT                                    63012021
                                   10718 *              NON-INTEGER SUBSCRIPT                                    63018021
                                   10719 *              SUBSCRIPT WHICH ITSELF SHOULD BE SUBSCRIPTED             63024021
                                   10720 *              INCORRECT TERMINATOR                                     63030021
                                   10721 *                                                                       63036021
                                   10722 *                                                                       63042021
                                   10723 *** NOTES                                                               63048021
                                   10724 *      DECIDES WHETHER DATA-NAME IS SUBSCRIPTED.IF NOT,EXITS.           63054021
                                   10725 *      IF SO,FOR ALL CASES EXCEPT MOVE-,ADD-,SUBTRACT-CORRESPONDING     63060021
                                   10726 *       PUTS INTO THE SUBSCRIPT-DEFINING TABLE FOR CORRECTLY WRITTE     63066021
                                   10727 *       SUBSCRIPTED VARIABLES,THE FOLLOWING STRING.                     63072021
                                   10728 *                   SSVERB    (EL.COUNT=2+NO. OF SUBSCRIPTS)            63078021
                                   10729 *                   DATA-NAME    (SUBSCRIPTED VARIABLE)                 63084021
                                   10730 *                   DN OR NUMLIT (SUBSCRIPT 1)                          63090021
                                   10731 *                   DN OR NUMLIT (SUBSCRIPT 2 IF PRESENT)               63096021
                                   10732 *                   DN OR NUMLIT (SUBSCRIPT 3 IF PRESENT)               63102021
                                   10733 *                   SSID         (SAME AS DATA-NAME ABOVE,BUT WITH      63108021
                                   10734 *                                  HEADER OF 31 INSTEAD OF 30,AND W     63114021
                                   10735 *                                  A 2-BYTE BINARY UNIQUE IDENTIFIE     63120021
                                   10736 *                                 REPLACING ADDRESSING PARAMETERS)      63126021
                                   10737 *       SUBSTITUTES THE SSID FOR THE ORIGINAL DATA-NAME IN 'INPUT',     63132021
                                   10738 *       WHICH,THROUGH SAVCUR ROUTINE,IS DESIGNATED AS BEING AT LOC.     63138021
                                   10739 *       CURENT.                                                         63144021
                                   10740 *                                                                       63150021
                                   10741 *     WHEN VERB ANALYZERS CREATE THEIR STRINGS, THEY USE THE SSID       63156021
                                   10742 *       INSTEAD OF THE ORIGINAL INPUT.                                  63162021
                                   10743 *                                                                       63168021
                                   10744 *      GENSTR GENERATES ENTIRE CONTENTS OF SUBSCRIPT-DEFINING TABLE     63174021
                                   10745 *     DEFSBS, B E F O R E  CONTENTS OF STRING TABLE.                    63180021
                                   10746 *                                                                       63186021
                                   10747 *      IDENT REINITIALIZES (EMPTIES) DEFSBS.                            63192021
1PH40     IKFCBL40                                                                                              PAGE  225
-  LOC  OBJECT CODE    ADDR1 ADDR2  STMT   SOURCE STATEMENT                                       ASM 0201 11.03 02/14/15
0                                  10748 *      VERB ANALYZERS WHICH NEED TO SAVE THE SUBSCRIPT-DEFINING STR     63198021
                                   10749 *       FOR A RE-USABLE OPERAND-1 (EG.,'MOVE SUBSCRIPTED-VARIABLE T     63204021
                                   10750 *       X,Y,Z ... IF SUBSCRIPTED-VARIABLE = X OR Y AND Z') SAVE DIS     63210021
                                   10751 *       GIVEN BY THE SUBSCR ROUTINE, AT LEFTSS AND REINITIALIZE DEF     63216021
                                   10752 *       AS NEEDED.                                                      63222021
                                   10753 *                                                                       63228021
                                   10754 *                                                                       63234021
                                   10755 *      IF ANY ERROR IN SUBSCRIPTING IS FOUND,NOTHING IS PUT IN DEFS     63240021
                                   10756 *       AND ERROR-SYMBOL IS SUBSTITUTED FOR THE DATA-NAME IN 'CUREN     63246021
                                   10757 *       RDUCOP REJECTS THIS AS AN OPERAND.                              63252021
                                   10758 *                                                                       63258021
                                   10759 *                             **********                                63264021
                                   10760 *                                                                       63270021
                                   10761 *      MOVE-, ADD-, SUBTRACT-CORRESPONDING REQUIRE SPECIAL HANDLING     63276021
                                   10762 *       SINCE PHASE-3 SENDS ON THE SOURCE-PROGRAM FORM TO PHASE 4 F     63282021
                                   10763 *       SYNTAX ANALYSIS,BUT NO STRINGS CAN BE GENERATED FROM THIS.      63288021
                                   10764 *       THEN IT SENDS THE CORRESPONDING-SERIES EXPANSIONS BUT WITHO     63294021
                                   10765 *       INCLUDING THEIR SUBSCRIPTS.                                     63300021
                                   10766 *                                                                       63306021
                                   10767 *      WHEN THE 3  ANALYZERS FIND THE WORD 'CORRESPONDING' IMMEDIAT     63312021
                                   10768 *       AFTER THE VERB, THEY TURN ON DRYRUN SWITCH, INDICATING SYNT     63318021
                                   10769 *       CHECK BUT NO STRING PRODUCTION. WHEN THEY ARE ABOUT TO EXIT     63324021
                                   10770 *       IDENT AND DRYRUN IS ON, THEY TURN IT OFF AND TURN ON CORRSW     63330021
                                   10771 *       INDICATING THAT WHAT FOLLOWS IS PHASE-3 EXPANSION. THE NEXT     63336021
                                   10772 *     OCCURRENCE OF THE WORD'CORRESPONDING' INDICATES THE END OF        63342021
                                   10773 *       PHASE-3 EXPANSIONS.                                             63348021
                                   10774 *                                                                       63354021
                                   10775 *      EACH ANALYZER BEFORE CALLING RDUCOP,STORES AT LOC. THISOP TH     63360021
                                   10776 *       ADDRESS OF EITHER LOC. OPRND1 OR LOC. OPRND2, ACCORDING TO      63366021
                                   10777 *       WHICH OF ITS OPERANDS IT IS PROCESSING.                         63372021
                                   10778 *                                                                       63378021
                                   10779 *      DURING A 'DRY-RUN' SUBSCR, INSTEAD OF PUTTING A SUBSCRIPT-DE     63384021
                                   10780 *       ING STRING IN DEFSBS, SIMPLY PRESERVES THE SUBSCRIPTS THEM-     63390021
                                   10781 *       SELVES AT WHICHEVER LOC. THISOP INDICATES. THE ANALYZERS NO     63396021
                                   10782 *       FOR THEMSELVES WHETHER,DURING DRY-RUN, OPERAND-1,OPERAND-2,     63402021
                                   10783 *       BOTH WERE SUBSCRIPTED.                                          63408021
                                   10784 *                                                                       63414021
                                   10785 *      ON THE NEXT TIME THRU, WHEN CORRSW IS ON, THEY TURN ON OPSSS     63420021
                                   10786 *       IF THE RESPECTIVE OPERAND WAS SHOWN TO BE SUBSCRIPTED DURIN     63426021
                                   10787 *       THE DRY-RUN.  NOW SUBSCR, FINDING OPSSSW ON,GETS THE SUBSCR     63432021
                                   10788 *       FOR THE OPERANDS CREATED BY PHASE-3 FROM THE LOC. INDICATED     63438021
                                   10789 *       BY THISOP (RATHER THAN FROM THE INPUT STREAM AS IN ORDINARY     63444021
                                   10790 *       CASES).IT THEN CREATES THE SUBSCRIPT-DEFINING STRING FOR EA     63450021
                                   10791 *       OF THESE IN TURN AND SUBSTITUTES AN SSID FOR EACH OPERAND       63456021
                                   10792 *       SENT AS PHASE-3 CORRESPONDING-EXPANSION.                        63462021
                                   10793 *                                                                       63468021
                                   10794 *******************************************************************     63474021
-
                             0618A 10796 SUBSCR EQU     *                 SUBSCRIPT ROUTINE                      63486021
 00618A 9531 C000      0988B       10797        CLI     GOTTEN,MSS         EXIT IF SUBSCR HAS ALREADY PROCES     63492021
 00618E 078E                       10798        BCR     EQ,RCS                   THIS INPUT                      63498021
 006190 90E6 B380      08C30       10799        STM     RCS,RW6,SVSUBS                                           63504021
 006194 94FE BF96      09846       10800        NI    MININDEX,MSWOFF                                            63510021
1PH40     IKFCBL40                                                                                              PAGE  226
-  LOC  OBJECT CODE    ADDR1 ADDR2  STMT   SOURCE STATEMENT                                       ASM 0201 11.03 02/14/15
0006198 94FE BF95      09845       10801          NI    INDSW,MSWOFF                                             63516021
 00619C D701 B96C B96C 0921C 0921C 10802          XC    SIZ35S(LX2),SIZ35S  ZERO COUNTERS FOR SPECIAL EXHIBIT    63522021
 0061A2 D701 B96E B96E 0921E 0921E 10803          XC    CNT35S(LX2),CNT35S    STRINGS                            63528021
 0061A8 D201 BE5E B094 0970E 08944 10804          MVC   SSNUMB+NX2(LX2),DSPSBS SAVE PRESENT SBS TABLE DISPL.     63534021
 0061AE 45E0 85EE      065A6       10805        BAL     RCS,KEEP35         STORE DN FOR EXHIBIT-NAMED            63540021
 0061B2 9579 C000      00000       10806          CLI   DX0(RIN),MSPDN      FOR STANDARD NAMES, DONT SEEK SS     63546021
 0061B6 4780 8256      0620E       10807        BC      EQ,SUBS15           GO TO EXIT                           63552021
 0061BA 181C                       10808        LR      RW1,RIN                                                  63558021
 0061BC 4361 0003      00003       10809          IC    RW6,DX3(RW1)                                             63564021
 0061C0 8860 0002      00002       10810          SRL   RW6,DX2            GET ELEMENTARY ITEM MBS BITS 12,13    63570021
 0061C4 4260 BE8D      0973D       10811          STC   RW6,MBS+NX1                                              63576021
 0061C8 9403 BE8D      0973D       10812          NI    MBS+NX1,MB3                                              63582021
 0061CC D100 BEDA BE8D 0978A 0973D 10813          MVN   BCDMBS+NX3(LX1),MBS+NX1   SAVE FOR ERROR MSG             63588021
 0061D2 45E0 76D0      05688       10814        BAL   RCS,SAVCUR          PRESERVE CURRENT INPUT ENTITY ROUT     63594021
 0061D6 9101 BF7A      0982A       10815        TM    CORRSW,MSWON                                               63600021
 0061DA 4710 825C      06214       10816        BC    ONES,SUBS17         CORRESPONDING SWITCH ON, DRYRUN OF     63606021
 0061DE 45E0 7566      0551E       10817        BAL     RCS,GETNXT          GET NEXT INPUT                       63612021
 0061E2 91FF BFD3      09883       10818        TM    SETRIN,MFF            WAS LAST ENTRY SETTBL ALREADY        63618021
                                   10819 *                    READ                                               63624021
 0061E6 4710 823C      061F4       10820        BO    SUBS04                GO CHECK IF SS NEEDED                63630021
 0061EA D501 C000 A3BE 0988B 080B6 10821          CLC   GOTTEN(LX2),CBLPRN IS IT LEFT PAREN '('                  63636021
 0061F0 4780 826C      06224       10822        BC    EQ,SUBS20           '(' IS FOUND                           63642021
 0061F4 9500 BE8D      0973D       10823 SUBS04   CLI   MBS+NX1,MZERO      IS SUBSCRIPTING NEEDED                63648021
 0061F8 4770 8546      064FE       10824        BC      NOTEQ,SUBS94        GO TO SUBSCRIPT ERROR                63654021
 0061FC 9601 BF74      09824       10825 SUBS05 OI      NEXTIN,MSWON                                             63660021
 006200 94FE BF94      09844       10826 SUBS10 NI    OPSSSW,MSWOFF       SET SWITCH OPSSSW OFF                  63666021
 006204 D202 BE64 BE67 09714 09717 10827          MVC   MODE(LX3),CURMOD   CURRENT MODE TO MODE                  63672021
 00620A 58C0 A324      0801C       10828        L       RIN,ACURNT         SET RIN TO CURENT                     63678021
 00620E 98E6 B380      08C30       10829 SUBS15 LM      RCS,RW6,SVSUBS                                           63684021
 006212 07FE                       10830        BCR   UNCOND,RCS          EXIT                                   63690021
 006214 9101 BF94      09844       10831 SUBS17 TM    OPSSSW,MSWON                                               63696021
 006218 4780 8256      0620E       10832        BC    ZERO,SUBS15         GO TO EXIT                             63702021
 00621C 5850 BC68      09518       10833        L     RW5,THISOP          GET POINTER OF OPRND-1 OR 2            63708021
 006220 47F0 8388      06340       10834          BC    UNCOND,SUBS60       CONTINUE                             63714021
                             06224 10835 SUBS20 EQU     *                                                   7894 63720021
 006224 9101 BF79      09829       10836        TM      PLOGIC,MSWON   ARE WE IN IF                         7894 63726021
 006228 4780 827C      06234       10837        BC      ZERO,SUBS22         NO                                   63732021
 00622C 9500 BE8D      0973D       10838          CLI   MBS+NX1,XX00         YES - IS DN TO BE SUBSXRIPTED       63738021
 006230 4780 8244      061FC       10839        BC      EQ,SUBS05           NO - EXIT IT IS A LOGICAL PAREN      63744021
 006234 9601 94F4      0734C       10840 SUBS22 OI    SBSW,MSWON         TELL FORMLA DN WAS SUBSCRIPTED          63750021
 006238 9101 BFA7      09857       10841        TM    EXHBNS,MSWON       ARE WE IN EXHIBIT NAMED                 63756021
 00623C 4780 828C      06244       10842          BC    ZERO,*+NX8          GO TO GET NEXT                       63762021
 006240 45E0 85D6      0658E       10843        BAL     RCS,KEP35L         STORE SPECIAL ( FOR EXHIBIT-NAMED     63768021
 006244 45E0 7566      0551E       10844        BAL     RCS,GETNXT          GET NEXT INPUT                       63774021
 006248 185C                       10845        LR      RW5,RIN                                                  63780021
 00624A 9101 BFD2      09882       10846        TM    SRCHKEY,MSWON     IS THIS A KEY FROM SRCHALL               63786021
 00624E 4710 82A6      0625E       10847        BO    SUBS35                 YES/ DONT STORE IN SS TABLE/        63792021
                                   10848 *                                  JUST CHECK SYNTAX                    63798021
 006252 9101 BF93      09843       10849        TM      DRYRUN,MSWON        IS IT SOURCE-FORM OF CORRESPONDI     63804021
 006256 4780 8388      06340       10850        BC    ZERO,SUBS60         OFF                                    63810021
 00625A 58F0 BC68      09518       10851        L       RVRB,THISOP        GET STORE-POINTER OF OP1 OR 2         63816021
 00625E D701 BE8E BE8E 0973E 0973E 10852 SUBS35   XC    MBSCT(LX2),MBSCT   INITALIZE COUNT OF MBS TO ZERO        63822021
 006264 18C5                       10853 SUBS40 LR      RIN,RW5            SET RIN FOR GETMOD                    63828021
 006266 45E0 88C0      06878       10854        BAL   RCS,ISDTOP          IS IT DATA OPERAND                     63834021
 00626A 47F0 83DC      06394       10855        BC    UNCOND,SUBS65       NOT A DATA OPERAND                     63840021
1PH40     IKFCBL40                                                                                              PAGE  227
-  LOC  OBJECT CODE    ADDR1 ADDR2  STMT   SOURCE STATEMENT                                       ASM 0201 11.03 02/14/15
000626E 9101 BF95      09845       10856        TM    INDSW,MSWON     SS FOUND-WAS INDNM FOUND BEFORE            63846021
 006272 4710 85C2      0657A       10857        BO    SBS105           YES-ERROR                                 63852021
 006276 9101 BF7A      0982A       10858        TM      CORRSW,MSWON                                             63858021
 00627A 4710 82C8      06280       10859          BC    ONES,*+NX6          YES, GO CHECK IF IT IS INTEGER       63864021
 00627E 185C                       10860        LR      RW5,RIN            SAFE-GUARD IF ISDTOP FOUND COND-N     63870021
 006280 45E0 8B64      06B1C       10861        BAL     RCS,ISINT2          IS IT AN INTEGER                     63876021
 006284 47F0 853E      064F6       10862        BC      UNCOND,SUBS92     NOT INTEGER                            63882021
 006288 9530 5000      00000       10863          CLI   DX0(RW5),MDN                                             63888021
 00628C 4770 82E0      06298       10864        BC      NOTEQ,SUBS46        NOT DN, STORE FOR EXHIBIT-N          63894021
 006290 910C 5003      00003       10865          TM    DX3(RW5),MB12       IS SUBSCRIPT  SUBSCRIPTED            63900021
 006294 4770 8536      064EE       10866        BC    NOTZER,SUBS82         YES - ERROR                          63906021
 006298 45E0 85EE      065A6       10867 SUBS46 BAL     RCS,KEEP35         SUBSCRIPT OK. STORE FOR EXHIBIT-N     63912021
 00629C 4860 BE8E      0973E       10868 SUB4   LH    RW6,MBSCT                                                  63918021
 0062A0 4A60 A59C      08294       10869        AH    RW6,N1                                                     63924021
 0062A4 4060 BE8E      0973E       10870        STH   RW6,MBSCT           ADVANCE MBS COUNT BY 1                 63930021
 0062A8 4960 BE8C      0973C       10871        CH    RW6,MBS             COMPARE MBS COUNT WITH MBS BIT         63936021
 0062AC 4720 855E      06516       10872        BC      HI,SUBS98          COUNT GREATER THAN MBS                63942021
 0062B0 9101 BF93      09843       10873        TM      DRYRUN,MSWON                                             63948021
 0062B4 4710 8518      064D0       10874        BC      ONES,SUBS75       DRYRUN IS ON                           63954021
 0062B8 9101 BFD2      09882       10875        TM    SRCHKEY,MSWON        KEY FROM SRCHALL                      63960021
 0062BC 4710 8368      06320       10876        BO    SUBS50          DO NOT INSERT KEY IN SS TABLE              63966021
 0062C0 5810 B090      08940       10877        L       RW1,ADFSBS                                               63972021
 0062C4 1825                       10878        LR      RW2,RW5            GET COUNT FOR TIB                     63978021
 0062C6 45E0 7F94      05F4C       10879        BAL     RCS,COUNT           GET BYTE COUNT                       63984021
 0062CA D200 1000 BE73 00000 09723 10880          MVC   DX0(LX1,RW1),BYTES+NX1                                   63990021
 0062D0 45E0 7D16      05CCE       10881        BAL     RCS,PNSRTF        INSERT FIXED-LENGTH ROUTINE            63996021
 0062D4 4145 0000      00000       10882          LA    RW4,DX0(RW5)          STORE ENTITY IN SS TABLE           64002021
 0062D8 9101 BFD1      09881       10883        TM    KEY1,MSWON            SS ASSOCIATED W/1ST KEY SRCHALL      64008021
 0062DC 4780 8368      06320       10884        BZ    SUBS50                NO- CONTINUE NORMALLY                64014021
 0062E0 9502 BE8D      0973D       10885          CLI   MBS+NX1,XX02         HOW MANY SUBSCRIPTS WILL THERE BE   64020021
 0062E4 4780 8340      062F8       10886        BE    SUBS47                WILL BE 2 ALTOGETHER                 64026021
 0062E8 4720 8354      0630C       10887        BH    SUBS48                THREE                                64032021
 0062EC 45E0 76EC      056A4       10888 SBS46A BAL   RCS,GETALL            LOWEST LEVEL SS                      64038021
 0062F0 4120 BF17      097C7       10889        LA    RW2,SS1SV             LAST SS SAVED HERE                   64044021
 0062F4 47F0 8368      06320       10890        BC    UNCOND,SUBS50         GO PROCESS                           64050021
 0062F8 9502 BE8F      0973F       10891 SUBS47   CLI   MBSCT+NX1,XX02       IS THIS 1ST OR 2ND OF TWO           64056021
 0062FC 4780 8334      062EC       10892        BE    SBS46A                SECOND OR LOWEST-SAVE IN SS1SV       64062021
 006300 45E0 76EC      056A4       10893 SBS47A BAL   RCS,GETALL            1ST OF 2 OR 3-OPRND1                 64068021
 006304 4120 B770      09020       10894        LA    RW2,OPRND1                                                 64074021
 006308 47F0 8368      06320       10895        BC    UNCOND,SUBS50         GO PROCESS                           64080021
 00630C 9502 BE8F      0973F       10896 SUBS48   CLI   MBSCT+NX1,XX02       WHICH OF 3 SS IS THIS ONE           64086021
 006310 4720 8334      062EC       10897        BH    SBS46A                LAST-SAVE IN SS1SV                   64092021
 006314 4740 8348      06300       10898        BL    SBS47A                FIRST-OPRND1                         64098021
 006318 45E0 76EC      056A4       10899        BAL   RCS,GETALL            SECOND-PUT IN OPRND2                 64104021
 00631C 4120 B870      09120       10900        LA    RW2,OPRND2                                                 64110021
 006320 9101 BF7A      0982A       10901 SUBS50 TM      CORRSW,MSWON                                             64116021
 006324 4710 837A      06332       10902        BC      ONES,SUBS55       ON,                                    64122021
 006328 45E0 7566      0551E       10903        BAL     RCS,GETNXT        OFF                                    64128021
 00632C 185C                       10904        LR      RW5,RIN            UPDATE GET-POINTER                    64134021
 00632E 47F0 82AC      06264       10905        BC      UNCOND,SUBS40       GO CHECK THE OPERAND                 64140021
 006332 1825                       10906 SUBS55 LR      RW2,RW5           LOAD ADDRESS                           64146021
 006334 45E0 7F94      05F4C       10907        BAL     RCS,COUNT         COMPUTE BYTE COUNT ROUTINE             64152021
 006338 4A50 BE72      09722       10908        AH      RW5,BYTES         UPDATE GET POINTER                     64158021
 00633C 47F0 82AC      06264       10909        BC      UNCOND,SUBS40       GO CHECK THE OPERAND                 64164021
 006340 5860 B090      08940       10910 SUBS60 L     RW6,ADFSBS                                                 64170021
1PH40     IKFCBL40                                                                                              PAGE  228
-  LOC  OBJECT CODE    ADDR1 ADDR2  STMT   SOURCE STATEMENT                                       ASM 0201 11.03 02/14/15
0006344 5866 0000      00000       10911          L     RW6,DX0(RW6)       SAVE PRESENT DISPLACEMENT OF SS TA    64176021
 006348 D201 BE5E 6004 0970E 00004 10912          MVC   SSNUMB+NX2(LX2),DX4(RW6)                                 64182021
 00634E 4830 BE8C      0973C       10913        LH    RW3,MBS                                                    64188021
 006352 4A30 A59E      08296       10914        AH    RW3,N2              ELEMENT COUNT = MBS + 2                64194021
 006356 4230 BEF3      097A3       10915          STC   RW3,SSVERB+NX2     SAVE ELEMENT COUNT INTO SSVERB+2      64200021
 00635A 5810 B090      08940       10916        L     RW1,ADFSBS          ADDRESS OF SS TABLE                    64206021
 00635E 9203 1000      00000       10917          MVI   DX0(RW1),MB3       BYTE COUNT IS 3 OF SSVERB             64212021
 006362 45E0 7D16      05CCE       10918        BAL   RCS,PNSRTF          INSERT FIXED LENGTH ROUTINE            64218021
 006366 4140 BEF1      097A1       10919        LA      RW4,SSVERB           STORE SSVERB IN SS TABLE            64224021
 00636A 4120 BAF4      093A4       10920        LA      RW2,CURENT         GET COUNT FOR TIB                     64230021
 00636E 45E0 7F94      05F4C       10921        BAL     RCS,COUNT           GET BYTE COUNT                       64236021
 006372 D200 1000 BE73 00000 09723 10922          MVC   DX0(LX1,RW1),BYTES+NX1                                   64242021
 006378 45E0 7D16      05CCE       10923        BAL   RCS,PNSRTF            STORE SS VARIBLE IN STRING           64248021
 00637C 4140 BAF4      093A4       10924        LA      RW4,CURENT           STORE SUBSCRIPTED VARIABLE IN S     64254021
 006380 9101 BFD3      09883       10925        TM    SETRIN,MSWON         IS SETTBL BEING USED                  64260021
 006384 4780 82A6      0625E       10926        BZ    SUBS35               NO- OK                                64266021
 006388 45E0 864A      06602       10927        BAL   RCS,UPDTSET          RESTORE TRUPNT AFTER TAMER CALL       64272021
 00638C 5850 BC70      09520       10928        L     RW5,TRUPNT           POINT RW5 TO IT                       64278021
                                   10929 *                                                                       64284021
 006390 47F0 82A6      0625E       10930        BC    UNCOND,SUBS35         GO TO REINIT COUNT OF MBS            64290021
 006394 9536 5000      00000       10931 SUBS65   CLI   DX0(RW5),XX36       IS IT AN INDEX NAME                  64296021
 006398 4780 8416      063CE       10932        BE    SUBS66A           PROCESS INDEXING                         64302021
 00639C D501 5000 A414 00000 0810C 10933          CLC   DX0(LX2,RW5),CBRPRN IS IT )                              64308021
 0063A2 4770 854E      06506       10934        BC    NOTEQ,SUBS96          NO                                   64314021
 0063A6 D501 BE8E BE8C 0973E 0973C 10935          CLC   MBSCT(LX2),MBS     COMPARE MBSCOUNT WITH MBS             64320021
 0063AC 4770 855E      06516       10936        BC    NOTEQ,SUBS98          NOT EQUAL                            64326021
 0063B0 9101 BFD2      09882       10937        TM    SRCHKEY,MSWON       IS THIS A KEY FOR SRCHALL              64332021
 0063B4 4710 8248      06200       10938        BO    SUBS10       YES- DO NOT ENTER SSID INTO TABLE             64338021
 0063B8 9231 BAF4      093A4       10939        MVI   CURENT,MSS          MOVE SS DN CODE '31' IN CURENT HEA     64344021
 0063BC 9101 BF93      09843       10940        TM    DRYRUN,MSWON                                               64350021
 0063C0 4780 84C2      0647A       10941        BC    ZERO,SUBS70         OFF                                    64356021
 0063C4 D201 F000 A414 00000 0810C 10942          MVC   DX0(LX2,RVRB),CBRPRN  STORE ')' IN OPRND1 OR 2           64362021
 0063CA 47F0 8248      06200       10943        BC    UNCOND,SUBS10         GO TO EXIT                           64368021
 0063CE 9101 BF7A      0982A       10944 SUBS66A TM    CORRSW,MSWON         CORR OR SRCH VARYING                 64374021
 0063D2 4710 82E4      0629C       10945        BO    SUB4                 SYNTAX ALREADY CHECKED-DONT MESSUP    64380021
 0063D6 D501 BE8E A598 0973E 08290 10946          CLC   MBSCT(LX2),N0        IS THIS FIRST TIME                  64386021
 0063DC 4780 8434      063EC       10947        BE    SUBS67      YES                                            64392021
 0063E0 9101 BF95      09845       10948        TM    INDSW,MSWON      WAS INDNM FOUND BEFORE                    64398021
 0063E4 4710 8438      063F0       10949        BO    SUBS68A     YES-OK                                         64404021
 0063E8 47F0 85C2      0657A       10950        B     SBS105        ERROR                                        64410021
 0063EC 9601 BF95      09845       10951 SUBS67 OI    INDSW,MSWON    1ST TIME-SW SAYS INDNM FOUND                64416021
 0063F0 45E0 76EC      056A4       10952 SUBS68A BAL  RCS,GETALL            SAVE THE ENTITY                      64422021
 0063F4 4120 BCA8      09558       10953        LA   RW2,SVINDNM                                                 64428021
 0063F8 45E0 85EE      065A6       10954        BAL   RCS,KEEP35            STORE 3K EQUIV IF EXH NAMED          64434021
 0063FC 45E0 7566      0551E       10955        BAL   RCS,GETNXT            GET NEXT INPUT                       64440021
 006400 9553 C000      0988B       10956        CLI   GOTTEN,MSIGN    ARITH OPERATOR                             64446021
 006404 4780 845E      06416       10957        BE    SUBS68B               YES                                  64452021
 006408 9601 BF74      09824       10958        OI    NEXTIN,MSWON                                               64458021
 00640C 41C0 BCA8      09558       10959        LA    RIN,SVINDNM                                                64464021
 006410 185C                       10960        LR    RW5,RIN                                                    64470021
 006412 47F0 82E4      0629C       10961        B     SUB4                  INSERT IN SS TABLE                   64476021
 006416 9501 C001      0988C       10962 SUBS68B  CLI   GOTTEN+NX1,XX01                                          64482021
 00641A 4720 85CA      06582       10963        BH    SBS106A               GET NEXT INPUT - ERROR               64488021
 00641E 4740 846E      06426       10964        BL    SUBS68C               PLUS OR MINUS FOUND, GET NEXT        64494021
 006422 9601 BF96      09846       10965        OI    MININDEX,MSWON                                             64500021
1PH40     IKFCBL40                                                                                              PAGE  229
-  LOC  OBJECT CODE    ADDR1 ADDR2  STMT   SOURCE STATEMENT                                       ASM 0201 11.03 02/14/15
0006426 45E0 7566      0551E       10966 SUBS68C BAL  RCS,GETNXT            GET NEXT INPUT                       64506021
 00642A 9532 C000      0988B       10967        CLI   GOTTEN,MNLIT    PLUS OR MINUS FOUND- NEXT NUM LITERAL      64512021
 00642E 4770 85CE      06586       10968        BNE    SBS106     NO                                             64518021
 006432 181C                       10969        LR    RW1,RIN                                                    64524021
 006434 45E0 8B58      06B10       10970        BAL   RCS,ISINTG            INTEGER CHECK ROUTINE                64530021
 006438 47F0 85CE      06586       10971        B     SBS106   ERROR- NOT INTEGER                                64536021
 00643C 1B44                       10972        SR    RW4,RW4                                                    64542021
 00643E 4340 C001      0988C       10973          IC    RW4,GOTTEN+NX1                                           64548021
 006442 0640                       10974        BCTR  RW4,RA0               DECR NO OF BYTES BY 1                64554021
 006444 0640                       10975        BCTR  RW4,RA0           GET NUMBER OF BYTES TO ZAP               64560021
 006446 4440 84BC      06474       10976        EX    RW4,ZAPLIT                                                 64566021
 00644A 4F40 BCA0      09550       10977        CVB   RW4,TEMPZ    CONVERT RESULT TO BINARY FOR PH5              64572021
 00644E 9101 BF96      09846       10978        TM    MININDEX,MSWON    WAS IT MINUS LITERAL                     64578021
 006452 4780 84A4      0645C       10979        BZ    AFTERZAP              NO                                   64584021
 006456 94FE BF96      09846       10980        NI    MININDEX,MSWOFF                                            64590021
 00645A 1344                       10981        LCR   RW4,RW4     TWOS COMPLEMENT                                64596021
 00645C 4040 BCA0      09550       10982 AFTERZAP STH  RW4,TEMPZ                                                 64602021
 006460 D201 BCB2 BCA0 09562 09550 10983          MVC   SVINDNM+NX10(LX2),TEMPZ                                  64608021
 006466 920A BCA9      09559       10984          MVI   SVINDNM+NX1,XX0A UPDATE COUNT TO REFLECT LIT ATTACHED    64614021
 00646A 41C0 BCA8      09558       10985        LA    RIN,SVINDNM                                                64620021
 00646E 185C                       10986        LR    RW5,RIN                                                    64626021
 006470 47F0 82E4      0629C       10987        B     SUB4                  INSERT IN SS TABLE                   64632021
 006474 F870 BCA0 C003 09550 00003 10988 ZAPLIT   ZAP   TEMPZ(LX8),DX3(LX0,RIN)                                  64638021
 00647A 4860 BE5C      0970C       10989 SUBS70 LH    RW6,SSNUMB                                                 64644021
 00647E 4A60 A59C      08294       10990        AH    RW6,N1              ADD 1 TO SSNUMB                        64650021
 006482 4060 BE5C      0970C       10991        STH   RW6,SSNUMB                                                 64656021
 006486 4120 BAF4      093A4       10992        LA      RW2,CURENT         GIVE COUNT ROUTINE ADDR.              64662021
 00648A D202 2004 BE5B 00004 0970B 10993          MVC   DX4(LX3,RW2),SSNUMB-NX1                                  64668021
 006490 9680 2004      00004       10994          OI    DX4(RW2),XX80        TURN ON HIGH ORDER BIT              64674021
 006494 5810 B090      08940       10995        L     RW1,ADFSBS                                                 64680021
 006498 4120 BAF4      093A4       10996        LA      RW2,CURENT         GET COUNT FOR TIB                     64686021
 00649C 45E0 7F94      05F4C       10997        BAL     RCS,COUNT           GET BYTE COUNT                       64692021
 0064A0 D200 1000 BE73 00000 09723 10998          MVC   DX0(LX1,RW1),BYTES+NX1                                   64698021
 0064A6 45E0 7D16      05CCE       10999        BAL   RCS,PNSRTF            STORE SSID                           64704021
 0064AA 4140 BAF4      093A4       11000        LA      RW4,CURENT           STORE SSID IN TABLE                 64710021
 0064AE 9101 BFD1      09881       11001        TM    KEY1,MSWON       IS THIS  1ST SRCHALL KEY                  64716021
 0064B2 4710 850E      064C6       11002        BO    SUBS72            YES- REQUIRES SPECIAL HANDLING           64722021
 0064B6 9101 BFA7      09857       11003        TM      EXHBNS,MSWON                                             64728021
 0064BA 4780 8248      06200       11004        BC      ZERO,SUBS10         OFF                                  64734021
 0064BE 45E0 85DE      06596       11005        BAL     RCS,KEP35R         STORE SPECIAL ) FOR EXHIBIT-NAMED     64740021
 0064C2 47F0 8248      06200       11006        BC    UNCOND,SUBS10         GO TO EXIT                           64746021
                                   11007 *                  INDICATES NO SUBSCRIPTS PASSED TO PH5 FOR THIS       64752021
                                   11008 *                  KEY- JUST DONT PUT OUT SS STRING                     64758021
                                   11009 *                                                                       64764021
                                   11010 * IF MORE THAN ONE LEVEL OF SUBSCRIPTING OR INDEXING ON FIRST KEY       64770021
                                   11011 *  MUST PASS PH5 SUBSCRIPTS OR INDEXES FOR HIGHEST LEVEL AND NEXT       64776021
                                   11012 * LEVEL IF 3 LEVELS PRESENT- FOR HIGHEST LEVEL ONLY IF 2 LEVELS         64782021
                                   11013 *  PRESENT- DEFSBS TABLE WILL NOT BE USED TO PASS THIS INFO- INFO       64788021
                                   11014 *  WILL BE GENERATED AS OPERANDS OF BEGINNING OF WHEN VERB              64794021
                                   11015 *                                                                       64800021
 0064C6 D200 BFD0 BEF3 09880 097A3 11016 SUBS72   MVC   SSKYSV(LX1),SSVERB+NX2  SAVE ELEM CT FOR SRCHALL         64806021
 0064CC 47F0 85A4      0655C       11017        BC    UNCOND,SBS103        RESTORE ORIG DISPL TO DEFSBS          64812021
 0064D0 1825                       11018 SUBS75 LR      RW2,RW5                                                  64818021
 0064D2 45E0 7F94      05F4C       11019        BAL     RCS,COUNT           GET TOTAL NO OF BYTES                64824021
 0064D6 4810 BE72      09722       11020        LH      RW1,BYTES                                                64830021
1PH40     IKFCBL40                                                                                              PAGE  230
-  LOC  OBJECT CODE    ADDR1 ADDR2  STMT   SOURCE STATEMENT                                       ASM 0201 11.03 02/14/15
00064DA 0610                       11021        BCTR  RW1,RA0               DECR NO OF BYTES BY 1                64836021
 0064DC 4410 8530      064E8       11022          EX    RW1,*+NX12           STORE INPUT IN OPRND1 OR 2          64842021
 0064E0 4AF0 BE72      09722       11023        AH      RVRB,BYTES        UPDATE STORE POINTER THISOP            64848021
 0064E4 47F0 8368      06320       11024        BC    UNCOND,SUBS50         SEE IF WE ARE CORR SERIES            64854021
 0064E8 D200 F000 5000 00000 00000 11025          MVC   DX0(LX1,RVRB),DX0(RW5)                                   64860021
                                   11026 *                                                                       64866021
                                   11027 *                             SUBSCRIPT ERRORS                          64872021
                                   11028 *                                                                       64878021
 0064EE 4110 A1FB      07EF3       11029 SUBS82 LA      RW1,ELST4D         SUBSCRIPT IS SUBSCRIPTED              64884021
 0064F2 47F0 856A      06522       11030        BC      UNCOND,SBS100       GO TO WRITE ERROR MESSAGE            64890021
 0064F6 4110 A204      07EFC       11031 SUBS92 LA      RW1,ELST4E         NOT AN INTEGER                        64896021
 0064FA 47F0 856A      06522       11032        BC      UNCOND,SBS100       GO TO WRITE ERROR MESSAGE            64902021
 0064FE 4110 A1EF      07EE7       11033 SUBS94 LA      RW1,ELST4C         WRONG NUMBER OF SUBSCRIPTS            64908021
 006502 47F0 856A      06522       11034        BC      UNCOND,SBS100       GO TO WRITE ERROR MESSAGE            64914021
 006506 91FF BFD3      09883       11035 SUBS96 TM    SETRIN,MFF            INCASE NONOP AT END OF SETTBL        64920021
 00650A 4710 855E      06516       11036        BO    SUBS98                DONT WRITE MSG 4F-COULD CAUSE        64926021
                                   11037 *                   BLOWUP IF 0'S FOLLOW IN SETTBL                      64932021
 00650E 4110 A20D      07F05       11038        LA    RW1,ELST4F                                                 64938021
 006512 47F0 856A      06522       11039        BC      UNCOND,SBS100       GO TO WRITE ERROR MESSAGE            64944021
 006516 9500 BE8D      0973D       11040 SUBS98   CLI   MBS+NX1,XX00                                             64950021
 00651A 4770 8546      064FE       11041        BC      NOTEQ,SUBS94        SUBSCRIPT ERROR                      64956021
 00651E 4110 A222      07F1A       11042        LA      RW1,ELST52                                               64962021
                                   11043 *                                                                       64968021
 006522 45E0 9BDA      07A32       11044 SBS100 BAL     RCS,ERROR           WRITE ERROR MESSAGE                  64974021
 006526 4111 0000      00000       11045          LA    RW1,DX0(RW1)                                             64980021
 00652A 91FF BFD3      09883       11046 SBS102 TM    SETRIN,MFF            AT END OF SETTBL                     64986021
 00652E 4710 85A4      0655C       11047        BO    SBS103           GET OUT OF SCAN                           64992021
 006532 9120 C000      0988B       11048        TM    GOTTEN,MB32                                                64998021
 006536 4780 858A      06542       11049        BC      ZERO,SBS104           NO                                 65004021
 00653A 45E0 7566      0551E       11050        BAL     RCS,GETNXT            YES - DISCARD TILL FIRST NON-O     65010021
 00653E 47F0 8572      0652A       11051        BC      UNCOND,SBS102       SEE IF IT IS END OF TABLE            65016021
 006542 D501 C000 A414 0988B 0810C 11052 SBS104   CLC   GOTTEN(LX2),CBRPRN   IS IT PAREN                         65022021
 006548 4780 8598      06550       11053          BC    EQ,*+NX8              YES                                65028021
 00654C 9601 BF74      09824       11054        OI      NEXTIN,MSWON        NO - SAVE FOR IDENT                  65034021
 006550 9101 BFD1      09881       11055        TM    KEY1,MSWON          IS THIS 1ST KEY SRCHALL                65040021
 006554 4780 85A4      0655C       11056        BZ    SBS103               NO                                    65046021
 006558 9601 BFAB      0985B       11057        OI    SKIPSW,MSWON          LET SRCHALL NOT GENR STRINGS         65052021
 00655C 5860 B090      08940       11058 SBS103 L     RW6,ADFSBS           RESTORE ORIG DEFSBS DISPL             65058021
 006560 5866 0000      00000       11059          L     RW6,DX0(RW6)                                             65064021
 006564 D201 6004 BE5E 00004 0970E 11060          MVC   DX4(LX2,RW6),SSNUMB+NX2                                  65070021
 00656A D201 B094 BE5E 08944 0970E 11061          MVC   DSPSBS(LX2),SSNUMB+NX2                                   65076021
 006570 D201 B96E A59C 0921E 08294 11062          MVC   CNT35S(LX2),N1      LEAVE ONLY DN IN 35'S AREA           65082021
 006576 47F0 8248      06200       11063        BC      UNCOND,SUBS10      GO USE WITHOUT SUBSCRIPTS             65088021
 00657A 4110 A2AC      07FA4       11064 SBS105 LA    RW1,ELST69                                                 65094021
 00657E 47F0 856A      06522       11065        B     SBS100                WRITE ERROR MESSAGE                  65100021
 006582 45E0 7566      0551E       11066 SBS106A BAL   RCS,GETNXT           GET NEXT INPUT                       65106021
 006586 4110 A2B2      07FAA       11067 SBS106 LA    RW1,ELST6A                                                 65112021
 00658A 47F0 856A      06522       11068        B     SBS100                WRITE ERROR MESSAGE                  65118021
                                   11069 *                                                                       65124021
-
                                   11071 *                                                                       65136021
                                   11072 *      SUB-SUBROUTINE OF SUBSCR TO PRESERVE BCD-EQUIVALENTS OF DN'S     65142021
                                   11073 *               USED IN EXHIBIT-NAMED                                   65148021
1PH40     IKFCBL40                                                                                              PAGE  231
-  LOC  OBJECT CODE    ADDR1 ADDR2  STMT   SOURCE STATEMENT                                       ASM 0201 11.03 02/14/15
0                                  11074 *                                                                       65154021
 00658E 924D BEED      0979D       11075 KEP35L   MVI   PRN35+NX2,XX4D      CREATE BCD-FORM (                    65160021
 006592 47F0 85E2      0659A       11076          BC    UNCOND,*+NX8        GO TO STORE REGISTERS                65166021
 006596 925D BEED      0979D       11077 KEP35R   MVI   PRN35+NX2,XX5D      CREATE BCD-FORM )                    65172021
 00659A 90E3 B954      09204       11078        STM     RCS,RW3,SVKP35                                           65178021
 00659E 4120 BEEB      0979B       11079        LA      RW2,PRN35          RW2 POINTS TO 35-ITEM TO STORE        65184021
 0065A2 47F0 8612      065CA       11080        BC      UNCOND,KEP352       GO TO GET COUNT                      65190021
 0065A6 9101 BFA7      09857       11081 KEEP35 TM      EXHBNS,MSWON       ARE WE IN EXHIBIT-NAMED               65196021
 0065AA 078E                       11082        BCR     ZERO,RCS              NO - EXIT                          65202021
 0065AC 90E3 B954      09204       11083        STM     RCS,RW3,SVKP35        YES                                65208021
 0065B0 45E0 76EC      056A4       11084        BAL     RCS,GETALL         SAVE CURRENT OPERAND                  65214021
 0065B4 4120 B870      09120       11085        LA      RW2,OPRND2                                               65220021
 0065B8 9101 BE64      09714       11086        TM      MODE,MLITBT        IS IT A LITERAL                       65226021
 0065BC 4710 860C      065C4       11087          BC    ONES,*+NX8           YES - INPUT DOES NOT HAVE 35 FOR    65232021
 0065C0 45E0 7566      0551E       11088        BAL     RCS,GETNXT          NO - GET ITS 35-EQUIVALENT           65238021
 0065C4 182C                       11089        LR      RW2,RIN            RW2 IS STORE POINTER                  65244021
 0065C6 41C0 B870      09120       11090        LA      RIN,OPRND2         POINT RIN AT PRESERVED OPERAND        65250021
 0065CA 45E0 7F94      05F4C       11091 KEP352 BAL     RCS,COUNT           GET COUNT OF BYTES                   65256021
 0065CE 4130 B57C      08E2C       11092        LA      RW3,PLEFT               GIVE RW3 TARGET ADDR. ...        65262021
 0065D2 4A30 B96C      0921C       11093        AH      RW3,SIZ35S                 + PREVIOUS 35'S               65268021
 0065D6 4810 B96C      0921C       11094        LH      RW1,SIZ35S                                               65274021
 0065DA 4A10 BE72      09722       11095        AH      RW1,BYTES                                                65280021
 0065DE 4010 B96C      0921C       11096        STH     RW1,SIZ35S         UPDATE SIZE OF STORED AREA            65286021
 0065E2 4810 BE72      09722       11097        LH      RW1,BYTES                                                65292021
 0065E6 4410 8644      065FC       11098        EX      RW1,KPMOVE         MOVE IN THE 35-ITEM                   65298021
 0065EA 4810 B96E      0921E       11099        LH      RW1,CNT35S                                               65304021
 0065EE 4111 0001      00001       11100          LA    RW1,DX1(RW1)                                             65310021
 0065F2 4010 B96E      0921E       11101        STH     RW1,CNT35S         UPDATE COUNT OF ITEMS STORED          65316021
 0065F6 98E3 B954      09204       11102        LM      RCS,RW3,SVKP35                                           65322021
 0065FA 07FE                       11103        BCR     UNCOND,RCS          RETURN                               65328021
                                   11104 *                                                                       65334021
 0065FC D200 3000 2000 00000 00000 11105 KPMOVE   MVC   DX0(LX1,RW3),DX0(RW2)                                    65340021
                                   11106 *                         UPDTSET                                       65346021
                                   11107 * THIS ROUTINE WILL RESTORE REGISTER 12 TO POINT TO WHERE IT WAS        65352021
                                   11108 * IN THE SETTBL BEFORE A CALL TO TAMER WAS ISSUED.                      65358021
                                   11109 * IT IS CALLED AS A SAFEGUARD AGAINST TAMER RELOCATING SETTBL           65364021
 006602 90E2 B524      08DD4       11110 UPDTSET STM  RCS,RW2,SAVEUP        SAVE REGISTERS                       65370021
 006606 5810 B0A0      08950       11111        L     RW1,ASETBL                                                 65376021
 00660A 5811 0000      00000       11112          L     RW1,DX0(RW1)  ADDR TAMM                                  65382021
 00660E 5821 0000      00000       11113          L     RW2,DX0(RW1)        RW2 PTS TO ADDR TABLE                65388021
 006612 4A20 BED4      09784       11114        AH    RW2,SETSVD           ADD SAVED DISPLACEMENT                65394021
 006616 5020 BC70      09520       11115        ST    RW2,TRUPNT           UPDATE TRUPNT                         65400021
 00661A 98E2 B524      08DD4       11116        LM    RCS,RW2,SAVEUP                                             65406021
 00661E 07FE                       11117        BR    RCS          RETURN                                        65412021
1PH40     IKFCBL40                                                                                              PAGE  232
-  LOC  OBJECT CODE    ADDR1 ADDR2  STMT   SOURCE STATEMENT                                       ASM 0201 11.03 02/14/15
0                                  11119 *=2    GETMOD    SET BIT PATTERN OF 'MODE' FOR VARIOUS DATA TYPES       65424021
                                   11120 *******************************************************************     65430021
                                   11121 *                                                                       65436021
                                   11122 *                                                                       65442021
                                   11123 *                               G E T M O D                             65448021
                                   11124 *                                                                       65454021
                                   11125 *                                                                       65460021
                                   11126 *                                                                       65466021
                                   11127 *      ROUTINE TO STORE AT HALF-WORD M O D E, THE MODE                  65472021
                                   11128 *      OF AN OPERAND AT 0(RW1)                                          65478021
                                   11129 *                                                                       65484021
                                   11130 *                                                                       65490021
                                   11131 *      L       RW1,ADDR.                                                65496021
                                   11132 *      .                                                                65502021
                                   11133 *      .                                                                65508021
                                   11134 *      .                                                                65514021
                                   11135 *      BAL     RCS,GETMOD                                               65520021
                                   11136 *      (RETURN)                                                         65526021
                                   11137 *                                                                       65532021
                                   11138 *                                                                       65538021
                                   11139 *        *****     *****     *****     *****     *****     *****        65544021
                                   11140 *                                                                       65550021
                                   11141 *                                                                       65556021
                                   11142 *      THE FIRST BYTE OF MODE                                           65562021
                                   11143 *      =   08                    IF OPERAND INDEX NAME                  65568021
                                   11144 *      =   16                    IF OPERAND INDEX DATA ITEM             65574021
                                   11145 *      =   32                      IF OPERAND IS A REPORT ITEM          65580021
                                   11146 *                                  OR STERLING REPORT                   65586021
                                   11147 *                                                                       65592021
                                   11148 *                                                                       65598021
                                   11149 *      =    35                     IF OPERAND IS OTHER FIGCON           65604021
                                   11150 *      =    96                     IF OPERAND IS A DN OR SS EITHER      65610021
                                   11151 *                                  ALPHABETIC OR ALPHANUMERIC           65616021
                                   11152 *      =    97                     IF OPERAND IS ALPHANUMERIC LITER     65622021
                                   11153 *      =    99                     IF OPERAND IS FIGCON SPACE           65628021
                                   11154 *      =   114                   IF OPERAND ALPHANUMERIC EDITED         65634021
                                   11155 *      =    112                    IF OPERAND IS GROUP                  65640021
                                   11156 *      =   128                     IF OPERAND IS EITHER NUMERIC, GD     65646021
                                   11157 *                                  TALLY, VLC, OR INTERNAL REGISTER     65652021
                                   11158 *      =   129                     IF OPERAND IS NUMERIC LITERAL        65658021
                                   11159 *                                  OR FLOATING POINT LITERAL            65664021
                                   11160 *      =   163                     IF OPERAND IS ZERO                   65670021
                                   11161 *                                                                       65676021
                                   11162 *                                                                       65682021
                                   11163 *      THE SECOND BYTE OF MODE                                          65688021
                                   11164 *                                                                       65694021
                                   11165 *                                                                       65700021
                                   11166 *      =     0                     ERROR                                65706021
                                   11167 *      =     1                     GROUP FIXED LENGTH                   65712021
                                   11168 *      =     2                     ALPHABETIC OR SPACE                  65718021
                                   11169 *      =     3                     AN., AN LIT., FIGCON, ALL            65724021
                                   11170 *      =     4                     GROUP VARIABLE LENGTH                65730021
                                   11171 *      =     5                     REPORT ITEM                          65736021
                                   11172 *      =     6                     STERLING REPORT                      65742021
                                   11173 *      =     7                     ZERO                                 65748021
1PH40     IKFCBL40                                                                                              PAGE  233
-  LOC  OBJECT CODE    ADDR1 ADDR2  STMT   SOURCE STATEMENT                                       ASM 0201 11.03 02/14/15
0                                  11174 *      =     8                     EXTERNAL DECIMAL                     65754021
                                   11175 *      =     9                     EXTERNAL FLOATING POINT              65760021
                                   11176 *      =    10                     INT. FL. PT. OR FL. PT. LIT.         65766021
                                   11177 *      =    11                     BINARY, VLC, GDN, INT.REG., TALL     65772021
                                   11178 *      =    12                     INT. DEC., NUM. LIT.                 65778021
                                   11179 *      =    13                     STERLING NON REPORT                  65784021
                                   11180 *      =   14                     ALNUM EDITED                          65790021
                                   11181 *      =   15                    IF BAD MODE, INDEXNAME INDEX DNM       65796021
                                   11182 *                                                                       65802021
                                   11183 *                                                                       65808021
                                   11184 *        *****     *****     *****     *****     *****     *****        65814021
                                   11185 *                                                                       65820021
                                   11186 *                                                                       65826021
                                   11187 *******************************************************************     65832021
-
0
                             06620 11189 GETMOD EQU     *                                                        65844021
 006620 90E2 B324      08BD4       11190        STM     RCS,RW2,SVGTMD                                           65850021
 006624 D700 BE66 BE66 09716 09716 11191          XC    DCURR(LX1),DCURR     INITIALIZE DCURR TO ZERO            65856021
 00662A D201 BE64 A598 09714 08290 11192          MVC   MODE(LX2),N0         INITIALIZE MODE TO ZERO             65862021
 006630 9530 1000      00000       11193          CLI   DX0(RW1),MDN         RW1 CONTAINS CURRENT ENTITY ADDR    65868021
 006634 4780 870E      066C6       11194        BC      EQ,GTMD04           IT IS DATA NAME                      65874021
 006638 9531 1000      00000       11195          CLI   DX0(RW1),MSS                                             65880021
 00663C 4780 870E      066C6       11196        BC      EQ,GTMD04           IT IS SUBSCRIPTED DATA NAME          65886021
 006640 D501 1000 A4D0 00000 081C8 11197          CLC   DX0(LX2,RW1),CBTALY                                      65892021
 006646 4780 877E      06736       11198        BC      EQ,GTMD08           IT IS TALLY                          65898021
 00664A 95BA 1000      00000       11199          CLI   DX0(RW1),MIR                                             65904021
 00664E 4780 877E      06736       11200        BC      EQ,GTMD08           IT IS INTERNAL REGISTER              65910021
 006652 95F7 1000      00000       11201          CLI   DX0(RW1),MVLC                                            65916021
 006656 4780 877E      06736       11202        BC      EQ,GTMD08           IT IS VARI LENGTH CHARACTER          65922021
 00665A 95F8 1000      00000       11203          CLI   DX0(RW1),MGDN                                            65928021
 00665E 4780 877E      06736       11204        BC      EQ,GTMD08           IT IS GENERATED DATA NAME            65934021
 006662 9532 1000      00000       11205          CLI   DX0(RW1),MNLIT                                           65940021
 006666 4780 878A      06742       11206        BC      EQ,GTMD10           IT IS NUMERIC LITERAL                65946021
 00666A 9533 1000      00000       11207          CLI   DX0(RW1),MFLIT                                           65952021
 00666E 4780 879C      06754       11208        BC      EQ,GTMD14           IT IS FLOATING PT. LITERAL           65958021
 006672 9534 1000      00000       11209          CLI   DX0(RW1),MALIT                                           65964021
 006676 4780 87AA      06762       11210        BC      EQ,GTMD16           IT IS ALPHANUMERIC LITERAL           65970021
 00667A 9575 1000      00000       11211          CLI   DX0(RW1),MFGCON                                          65976021
 00667E 4780 87B6      0676E       11212        BC      EQ,GTMD20           IT IS FIGURATIVE CONSTANT            65982021
 006682 9536 1000      00000       11213          CLI   DX0(RW1),MINDNM      IS IT AN INDEX-NAME                 65988021
 006686 4780 8702      066BA       11214        BE    GTMD03                YES                                  65994021
 00668A 9579 1000      00000       11215          CLI   DX0(RW1),XX79        IS IT OTHER STANDARD DATA-NAME      66000021
 00668E 4780 86EC      066A4       11216        BC      EQ,GTMD01            YES - DISCARD AS NON-OPERAND        66006021
 006692 D500 1000 A52C 00000 08224 11217          CLC   DX0(LX1,RW1),ERSYMB  UNDEFINED OR ILLEGAL WORD           66012021
 006698 4770 86F4      066AC       11218        BC      NOTEQ,GTMD02        COMPILER ERROR                       66018021
 00669C 91FF 1001      00001       11219          TM    DX1(RW1),MFF        IS IT TRUE UNDEFINED                 66024021
 0066A0 4780 8822      067DA       11220        BC      ZERO,GTMD26          YES - MODE 0                        66030021
                             066A4 11221 GTMD01 EQU     *                                                        66036021
 0066A4 92FF BE65      09715       11222          MVI   MODE+NX1,XXFF                                            66042021
 0066A8 47F0 8772      0672A       11223        BC      UNCOND,GTMD05       GO TO ZERO OUT DCURR & EXIT          66048021
 0066AC 1801                       11224 GTMD02 LR      RA0,RW1                                                  66054021
1PH40     IKFCBL40                                                                                              PAGE  234
-  LOC  OBJECT CODE    ADDR1 ADDR2  STMT   SOURCE STATEMENT                                       ASM 0201 11.03 02/14/15
00066AE 45E0 9BDA      07A32       11225        BAL     RCS,ERROR          COMPILER ERROR                        66060021
 0066B2 4110 A1B9      07EB1       11226        LA      RW1,ELST44                                               66066021
 0066B6 47F0 8778      06730       11227        BC      UNCOND,GTMD06       GO TO EXIT                           66072021
 0066BA 9208 BE64      09714       11228 GTMD03   MVI   MODE,XX08                                                66078021
 0066BE 92FF BE65      09715       11229          MVI   MODE+NX1,XXFF                                            66084021
 0066C2 47F0 8772      0672A       11230        B     GTMD05                GO TO ZERO OUT DCURR & AXIT          66090021
 0066C6 1B22                       11231 GTMD04 SR      RW2,RW2                                                  66096021
 0066C8 4321 0003      00003       11232          IC    RW2,DX3(RW1)         LOAD DATA NAME,S MODE IN RW2        66102021
 0066CC 8820 0004      00004       11233          SRL   RW2,DX4              RIGHT JUSTIFIED 4 DIGIT             66108021
 0066D0 4220 BE65      09715       11234          STC   RW2,MODE+NX1         STORE MODE INTO MODE+1              66114021
 0066D4 9500 BE65      09715       11235          CLI   MODE+NX1,XX00                                            66120021
 0066D8 4780 8822      067DA       11236        BC      EQ,GTMD26           ERROR                                66126021
 0066DC 9501 BE65      09715       11237          CLI   MODE+NX1,MB1         IS IT DN GROUP FIXED LENGTH         66132021
 0066E0 4780 882C      067E4       11238        BC      EQ,GTMD27           YES                                  66138021
 0066E4 9504 BE65      09715       11239          CLI   MODE+NX1,MB4         IS IT DN GROUP VARI. LENGTH         66144021
 0066E8 4780 882C      067E4       11240        BC      EQ,GTMD27           YES                                  66150021
 0066EC 9502 BE65      09715       11241          CLI   MODE+NX1,MB2         IS IT DN ALPHABETIC                 66156021
 0066F0 4780 8834      067EC       11242        BC      EQ,GTMD28           YES                                  66162021
 0066F4 9503 BE65      09715       11243          CLI   MODE+NX1,MB3         IS IT DN ALPHANUMERIC               66168021
 0066F8 4780 8834      067EC       11244        BC      EQ,GTMD28           YES                                  66174021
 0066FC 9505 BE65      09715       11245          CLI   MODE+NX1,MB5         IS IT DN REPORT ITEM                66180021
 006700 4780 883C      067F4       11246        BC      EQ,GTMD30           YES                                  66186021
 006704 9506 BE65      09715       11247          CLI   MODE+NX1,MB6         IS IT DN STERLING REPORT            66192021
 006708 4780 884E      06806       11248        BC      EQ,GTMD32           YES                                  66198021
 00670C 950E BE65      09715       11249          CLI   MODE+NX1,MB14  IS IT DN ALHANUMERIC EDITED               66204021
 006710 4770 8764      0671C       11250        BC    NOTEQ,GTMD3           NO                                   66210021
 006714 9272 BE64      09714       11251          MVI   MODE,XX72                                                66216021
 006718 47F0 8778      06730       11252        B     GTMD06   EXIT                                              66222021
 00671C 9508 BE65      09715       11253 GTMD3    CLI   MODE+NX1,MB8   IS IT DN NUMERIC                          66228021
 006720 47B0 885C      06814       11254        BC      NOTLO,GTMD36        YES                                  66234021
 006724 D201 BE64 A586 09714 0827E 11255          MVC   MODE(LX2),INDNMD                                         66240021
 00672A D700 BE66 BE66 09716 09716 11256 GTMD05   XC    DCURR(LX1),DCURR     TALLY,FL PT.,ZERO,VLC,GDN,IR,ERR    66246021
                                   11257 *                                  ANY DATA NAME WHICH IS AN INTEGE     66252021
 006730 98E2 B324      08BD4       11258 GTMD06 LM      RCS,RW2,SVGTMD                                           66258021
 006734 07FE                       11259        BCR     UNCOND,RCS          EXIT                                 66264021
 006736 920B BE65      09715       11260 GTMD08   MVI   MODE+NX1,MB11        MOVE BINARY TO MODE+1               66270021
 00673A 9280 BE64      09714       11261          MVI   MODE,XX80            DN NUM,TALLY,GDN,VLC,INT.REG.       66276021
 00673E 47F0 8772      0672A       11262        BC      UNCOND,GTMD05       SET MODE BIT 0 ON                    66282021
 006742 920C BE65      09715       11263 GTMD10   MVI   MODE+NX1,MB12        MOVE INT. DEC. IN MODE+1            66288021
 006746 D200 BE66 1003 09716 00003 11264          MVC   DCURR(LX1),DX3(RW1)   NUMERIC LITERAL                    66294021
 00674C 9281 BE64      09714       11265 GTMD12   MVI   MODE,XX81            NL, FL.PT.LIT.  MODE BITS 0,7 ON    66300021
 006750 47F0 8778      06730       11266        BC      UNCOND,GTMD06       GO TO EXIT                           66306021
 006754 920A BE65      09715       11267 GTMD14   MVI   MODE+NX1,XX0A        MOVE INT. FL. PT. TO MODE+1         66312021
 006758 D700 BE66 BE66 09716 09716 11268          XC    DCURR(LX1),DCURR     ZERO TO DCURR                       66318021
 00675E 47F0 8794      0674C       11269        BC      UNCOND,GTMD12       MODE IS NUMERIC LITERAL              66324021
 006762 9261 BE64      09714       11270 GTMD16   MVI   MODE,XX61            AN. LIT. SET MODE BITS 1,2,7 ON     66330021
 006766 9203 BE65      09715       11271 GTMD18   MVI   MODE+NX1,XX03        MOVE ALPHANUMERIC TO MODE+1         66336021
 00676A 47F0 8778      06730       11272        BC      UNCOND,GTMD06       GO TO EXIT                           66342021
 00676E D501 1000 A588 00000 08280 11273 GTMD20   CLC   DX0(LX2,RW1),CBC0   IS IT IN ALPHABETIC SCOPE            66348021
 006774 47D0 88A6      0685E       11274        BC    NOTHI,GTMD42        NOT A LETTER                           66354021
 006778 D501 1000 A58A 00000 08282 11275          CLC   DX0(LX2,RW1),CBC9   IS IT BETWEEN A TO I                 66360021
 00677E 47D0 8816      067CE       11276        BC    NOTHI,GTMD24        IT IS A LETTER                         66366021
 006782 D501 1000 A58C 00000 08284 11277          CLC   DX0(LX2,RW1),CBD0   IS IT BETWEEN J TO R                 66372021
 006788 47D0 88B0      06868       11278        BC    NOTHI,GTMD45        OTHERS                                 66378021
 00678C D501 1000 A58E 00000 08286 11279          CLC   DX0(LX2,RW1),CBD9                                        66384021
1PH40     IKFCBL40                                                                                              PAGE  235
-  LOC  OBJECT CODE    ADDR1 ADDR2  STMT   SOURCE STATEMENT                                       ASM 0201 11.03 02/14/15
0006792 47D0 8816      067CE       11280        BC    NOTHI,GTMD24        IT IS A LETTER                         66390021
 006796 D501 1000 A590 00000 08288 11281          CLC   DX0(LX2,RW1),CBE1   IS IT BETWEEN S TO Z                 66396021
 00679C 47D0 88B0      06868       11282        BC    NOTHI,GTMD45        OTHERS                                 66402021
 0067A0 D501 1000 A592 00000 0828A 11283          CLC   DX0(LX2,RW1),CBE9                                        66408021
 0067A6 47D0 8816      067CE       11284        BC    NOTHI,GTMD24        IT IS A LETTER                         66414021
 0067AA D501 1000 A4EA 00000 081E2 11285          CLC   DX0(LX2,RW1),CBZERO IS IT A ZERO                         66420021
 0067B0 4780 880A      067C2       11286        BC    EQ,GTMD22             YES                                  66426021
 0067B4 D501 1000 A594 00000 0828C 11287          CLC   DX0(LX2,RW1),CBF9   IS IT A NUMBER BETWEEN 1 TO 9        66432021
 0067BA 47D0 88B8      06870       11288        BC    NOTHI,GTMD46          IT IS A NUMBER                       66438021
 0067BE 47F0 88B0      06868       11289        BC    UNCOND,GTMD45       OTHERS                                 66444021
 0067C2 92A3 BE64      09714       11290 GTMD22   MVI   MODE,XXA3          ZERO, MODE BITS 0,2,6,7 ON            66450021
 0067C6 9208 BE65      09715       11291 GTMD23   MVI   MODE+NX1,XX08      EXT. DEC. TO MODE+1                   66456021
 0067CA 47F0 8772      0672A       11292        BC      UNCOND,GTMD05       GO TO ZERO OUT DCURR AND EXIT        66462021
 0067CE 9202 BE65      09715       11293 GTMD24   MVI   MODE+NX1,XX02        MOVE ALPHABETIC TO MODE+1           66468021
 0067D2 9263 BE64      09714       11294          MVI   MODE,XX63           ALL LETTER,SPACE MODE BITS           66474021
                                   11295 *                                  1, 2, 6, 7 ON                        66480021
 0067D6 47F0 8778      06730       11296        BC      UNCOND,GTMD06       GO TO EXIT                           66486021
 0067DA D701 BE64 BE64 09714 09714 11297 GTMD26   XC    MODE(LX2),MODE       ZERO TO MODE                        66492021
 0067E0 47F0 8772      0672A       11298        BC      UNCOND,GTMD05       GO TO ZERO OUT DCURR AND EXIT        66498021
 0067E4 9270 BE64      09714       11299 GTMD27   MVI   MODE,XX70           GROUP - SET ON BITS 1,2,3            66504021
 0067E8 47F0 8778      06730       11300        BC      UNCOND,GTMD06       GO TO EXIT                           66510021
 0067EC 9260 BE64      09714       11301 GTMD28   MVI   MODE,XX60           AL,AN - SET ON BITS 1 AND 2          66516021
 0067F0 47F0 8778      06730       11302        BC      UNCOND,GTMD06       GO TO EXIT                           66522021
                             067F4 11303 GTMD30 EQU     *                   DN REPORT                            66528021
 0067F4 9180 100A      0000A       11304          TM    DX10(RW1),XX80                                           66534021
 0067F8 4710 8854      0680C       11305        BC      ONES,GTMD33          INTEGER                             66540021
 0067FC D200 BE66 100A 09716 0000A 11306          MVC   DCURR(LX1),DX10(RW1)  REPORT ITEM WITH DECIMAL PLACES    66546021
 006802 47F0 8854      0680C       11307        BC      UNCOND,GTMD33       REPORT ITEM                          66552021
 006806 D200 BE66 100D 09716 0000D 11308 GTMD32   MVC   DCURR(LX1),DX13(RW1)  DN STERLING REPORT                 66558021
 00680C 9220 BE64      09714       11309 GTMD33   MVI   MODE,XX20           REPORT-ITEM INDICATOR                66564021
 006810 47F0 8778      06730       11310        BC      UNCOND,GTMD06       GO TO EXIT                           66570021
 006814 9280 BE64      09714       11311 GTMD36   MVI   MODE,XX80            DN NUMERIC MODE BIT 0 ON            66576021
 006818 9508 BE65      09715       11312          CLI   MODE+NX1,XX08                                            66582021
 00681C 4780 8894      0684C       11313        BC    EQ,GTMD40             EXTERNAL DECIMAL                     66588021
 006820 950A BE65      09715       11314          CLI   MODE+NX1,XX0A                                            66594021
 006824 47D0 8772      0672A       11315        BC      NOTHI,GTMD05        INT. OR EXT. FLOATING POINT          66600021
 006828 950C BE65      09715       11316          CLI   MODE+NX1,XX0C                                            66606021
 00682C 47D0 8894      0684C       11317        BC      NOTHI,GTMD40        BINARY OR INTERNAL DECIMAL           66612021
 006830 950D BE65      09715       11318          CLI   MODE+NX1,XX0D                                            66618021
 006834 4770 86F4      066AC       11319        BC      NOTEQ,GTMD02        NO, COMPILER ERROR                   66624021
 006838 D200 BE24 1008 096D4 00008 11320          MVC   PTEMP(LX1),DX8(RW1)  STERLING NON-REPORT                 66630021
 00683E 941F BE24      096D4       11321          NI    PTEMP,XX1F                                               66636021
 006842 D200 BE66 BE24 09716 096D4 11322          MVC   DCURR(LX1),PTEMP                                         66642021
 006848 47F0 8778      06730       11323        BC      UNCOND,GTMD06       GO TO EXIT                           66648021
 00684C 9180 1008      00008       11324 GTMD40   TM    DX8(RW1),XX80                                            66654021
 006850 4710 8772      0672A       11325        BC      ONES,GTMD05         INTEGER                              66660021
 006854 D200 BE66 1008 09716 00008 11326          MVC   DCURR(LX1),DX8(RW1)                                      66666021
 00685A 47F0 8778      06730       11327        BC      UNCOND,GTMD06       GO TO EXIT                           66672021
 00685E D501 1000 A4CA 00000 081C2 11328 GTMD42   CLC   DX0(LX2,RW1),CBSPCE                                      66678021
 006864 4780 8816      067CE       11329        BC    EQ,GTMD24           IT IS A SPACE                          66684021
 006868 9223 BE64      09714       11330 GTMD45   MVI   MODE,XX23            ALL, OTHER FIGCON MODE BITS 2,6,    66690021
 00686C 47F0 87AE      06766       11331        BC    UNCOND,GTMD18         ALPHANUMERIC                         66696021
 006870 9223 BE64      09714       11332 GTMD46   MVI   MODE,XX23          ALL'NUMBER'  MODE BITS 2,6,7 ON       66702021
 006874 47F0 880E      067C6       11333        BC    UNCOND,GTMD23         EXTERNAL DECIMAL                     66708021
1PH40     IKFCBL40                                                                                              PAGE  236
-  LOC  OBJECT CODE    ADDR1 ADDR2  STMT   SOURCE STATEMENT                                       ASM 0201 11.03 02/14/15
0                                  11335 *                                                                       66720021
-
                                   11337 *******************************************************************     66732021
                                   11338 *                                                                       66738021
                                   11339 *                                                                       66744021
                                   11340 *                    ' ISIT ' ROUTINES                                  66750021
                                   11341 *                                                                       66756021
                                   11342 *                                                                       66762021
                                   11343 *******************************************************************     66768021
-
                                   11345 *=2    ISDTOP    DECIDE IF INPUT IS DATA-OP,REDUCE SIGNED LIT AND '     66780021
                                   11346 *******************************************************************     66786021
                                   11347 *                                                                       66792021
                                   11348 *                                                                       66798021
                                   11349 *                                                                       66804021
                                   11350 *                                I S D T O P                            66810021
                                   11351 *                                                                       66816021
                                   11352 *                                                                       66822021
                                   11353 *                                                                       66828021
                                   11354 *                         ( IS IT A DATA OPERAND )                      66834021
                                   11355 *                                                                       66840021
                                   11356 *                                                                       66846021
                                   11357 *                                                                       66852021
                                   11358 *          BAL     RCS,ISDTOP                                           66858021
                                   11359 *          (RETURN,NO)                                                  66864021
                                   11360 *          (RETURN,YES)                                                 66870021
                                   11361 *                                                                       66876021
                                   11362 *                                                                       66882021
                                   11363 *                                                                       66888021
                                   11364 *      ********        ********        ********        ********         66894021
                                   11365 *                                                                       66900021
                                   11366 *                                                                       66906021
                                   11367 *                                                                       66912021
                                   11368 *      DETERMINES WHETHER CURRENT INPUT ENTITY IS A DATA OPERAND        66918021
                                   11369 *      PROCESSES UNATTACHED SIGNS                                       66924021
                                   11370 *      PROCESSES 'ALL' BY ATTACHING FIGCON HEADER TO LITERAL THAT       66930021
                                   11371 *        FOLLOWS                                                        66936021
                                   11372 *      SETS MODE=X'FF' WHEN ELEMENT IS NOT A DATA OPERAND               66942021
                                   11373 *                                                                       66948021
                                   11374 *                                                                       66954021
                                   11375 *** SUBROUTINES CALLED                                                  66960021
                                   11376 *      GETNXT,GETMOD,MINLIT,ERROR                                       66966021
                                   11377 *                                                                       66972021
                                   11378 *                                                                       66978021
                                   11379 *** ERROR PROCESSING                                                    66984021
                                   11380 *      DELETES 'ALL' NOT FOLLOWED BY NON-NUM-LIT OR FIGCON              66990021
                                   11381 *      SUPPLIES TO 'ALL' LAST CHARACTER  OF LITERAL LONGER THAN 1       66996021
                                   11382 *      DELETES SUPERFLUOUS + SIGNS (NOTE THAT UNARY SIGNS ARE PROCE     67002021
                                   11383 *        BY FORMLA WHEN LEGAL  B E F O R E  ISPTOP IS CALLED).          67008021
                                   11384 *      REVERSES SIGN OF LITERAL IF - PRECEDES IT                        67014021
                                   11385 *      FOR CONDITION-NAMES OUTSIDE OF 'IF', SUBSTITUTES THE DN WHIC     67020021
1PH40     IKFCBL40                                                                                              PAGE  237
-  LOC  OBJECT CODE    ADDR1 ADDR2  STMT   SOURCE STATEMENT                                       ASM 0201 11.03 02/14/15
0                                  11386 *       CONTROLS THEM.                                                  67026021
                                   11387 *                                                                       67032021
                                   11388 *                                                                       67038021
                                   11389 *                                                                       67044021
                                   11390 *******************************************************************     67050021
-
-
                                   11392 *                                                                       67062021
                             06878 11393 ISDTOP EQU   *                   IS IT A DATA OPERAND ROUTINE           67068021
                                   11394 *                                                                       67074021
 006878 90E4 B348      08BF8       11395        STM   RCS,RW4,SVDTOP                                             67080021
 00687C 92FF BE65      09715       11396          MVI   MODE+NX1,XXFF       ERR CODE IN CASE OF NON-OPERAND      67086021
 006880 9101 BFC8      09878       11397        TM    OKMVSW,MSWON          SPECIAL CALL FROM ISOKMV             67092021
 006884 4710 8982      0693A       11398        BO    ISDO39                YES- GO SCAN AN LIT                  67098021
 006888 9101 BFC6      09876       11399        TM      SWRONL,MSWON       IS CALL FROM WRITE FOR REC-NAME       67104021
 00688C 9200 BFC6      09876       11400          MVI   SWRONL,XX00           (OFF SW AT ONCE)                   67110021
 006890 4710 88F4      068AC       11401        BC      ONES,ISDO00        YES - SKIP FOLLOWING CHECK            67116021
 006894 9530 C000      0988B       11402        CLI     GOTTEN,MDN         IS THIS A DATA-NAME FROM A WRITE-     67122021
 006898 4770 88F4      068AC       11403        BC      NOTEQ,ISDO00        NO                                   67128021
 00689C 9107 C002      00002       11404          TM    DX2(RIN),MWONLY                                          67134021
 0068A0 47E0 890E      068C6       11405        BC      NOTONE,ISDO10      NO - OK                               67140021
 0068A4 45E0 9BDA      07A32       11406        BAL     RCS,ERROR            YES - WARNING, MAY BE ILLEGAL       67146021
 0068A8 4110 A276      07F6E       11407        LA      RW1,ELST5E                                               67152021
 0068AC 9130 C000      0988B       11408 ISDO00   TM    GOTTEN,XX30        IS IT A DATA OPERAND                  67158021
 0068B0 47E0 8956      0690E       11409        BC    NOTONE,ISDO30       NOT DATA OPERAND                       67164021
 0068B4 9539 C000      0988B       11410          CLI   GOTTEN,XX39    IS IT COND NM EXPANSION OF ALL CHAR       67170021
 0068B8 4770 890E      068C6       11411        BNE    ISDO10               NO- NORMAL OPERAND GET MODE          67176021
 0068BC D201 BE64 BE54 09714 09704 11412          MVC   MODE(LX2),ALLGTMD    MOVE ALPHANUM FIGCON MODE IN        67182021
 0068C2 47F0 89E6      0699E       11413        BC    UNCOND,EXALL                     EXIT GOOD MODE            67188021
 0068C6 181C                       11414 ISDO10 LR      RW1,RIN            GIVE GETMOD ADDRESS OF ENTITY         67194021
 0068C8 45E0 8668      06620       11415        BAL   RCS,GETMOD          GET MODE ROUTINE                       67200021
 0068CC 9530 C000      0988B       11416          CLI   GOTTEN,MDN          DATA NAME                      58940 67206021
 0068D0 4770 893E      068F6       11417          BNE   ISDO15A             IF NOT DO NOT BOTHER           58940 67212021
 0068D4 9101 BFDA      0988A       11418          TM    IFSW1,MSWON         IS THIS FROM IF                58940 67218021
 0068D8 4780 893E      068F6       11419          BZ    ISDO15A             NO THEN DON'T  CHECK           58940 67224021
 0068DC 9101 BFAF      0985F       11420          TM    SETSW,MSWON         SET VERB IN IF IMPERATIVE      58940 67230021
 0068E0 4710 893E      068F6       11421          BO   ISDO15A              YES  BRANCH                    58940 67236021
 0068E4 D501 BE64 A586 09714 0827E 11422          CLC   MODE(LX2),INDNMD    MODE VALUE FOR INDEXED D. I.   58940 67242021
 0068EA 4770 893E      068F6       11423          BNE   ISDO15A             USAGE INDEX                    58940 67248021
 0068EE 910C C003      00003       11424          TM DX3(RIN),DX12          ANY SUBSCRIPED LEVEL           58940 67254021
 0068F2 4740 8946      068FE       11425          BM    ISDO15B             YES  IT IS GOOD TO ROUDOP      58940 67260021
 0068F6                            11426 ISDO15A  DS    0H                                                 58940 67266021
 0068F6 91FF BE65      09715       11427          TM    MODE+NX1,MFF      FF=PH1 REJECT, 0=PH2 REJECT            67272021
 0068FA 47B0 894E      06906       11428        BC      NOTMXD,ISDO20       BAD CODE                             67278021
 0068FE                            11429 ISDO15B  DS    0H                                                 58940 67284021
 0068FE 98E4 B348      08BF8       11430        LM    RCS,RW4,SVDTOP                                             67290021
 006902 47FE 0004      00004       11431          BC    UNCOND,DX4(RCS)      GOOD MODE                           67296021
 006906 98E2 B348      08BF8       11432 ISDO20 LM      RCS,RW2,SVDTOP                                           67302021
 00690A 47FE 0000      00000       11433          BC    UNCOND,DX0(RCS)      BAD MODE - - ERROR                  67308021
 00690E D501 C000 A338 0988B 08030 11434 ISDO30   CLC   GOTTEN(LX2),CBALL    IS IT COBOL WORD ALL                67314021
 006914 4770 8A48      06A00       11435        BC    NOTEQ,ISDO60          NO                                   67320021
1PH40     IKFCBL40                                                                                              PAGE  238
-  LOC  OBJECT CODE    ADDR1 ADDR2  STMT   SOURCE STATEMENT                                       ASM 0201 11.03 02/14/15
0006918 45E0 7566      0551E       11436        BAL   RCS,GETNXT            YES, GET NEXT INPUT                  67326021
 00691C 181C                       11437        LR      RW1,RIN            RW1 GETS ADDR. OF INPUT               67332021
 00691E 9534 C000      0988B       11438        CLI     GOTTEN,MALIT        IS IT ALPHANUMERIC LITERAL           67338021
 006922 4780 8984      0693C       11439        BC    EQ,ISDO40             YES                                  67344021
 006926 9575 C000      0988B       11440        CLI     GOTTEN,MFGCON       IS IT FIGCON                         67350021
 00692A 4780 890E      068C6       11441        BC    EQ,ISDO10             YES                                  67356021
 00692E 45E0 9BDA      07A32       11442        BAL     RCS,ERROR          ILLEGAL 'ALL' DELETED                 67362021
 006932 4110 A2A3      07F9B       11443        LA    RW1,ELST67                                                 67368021
 006936 47F0 88F4      068AC       11444        BC    UNCOND,ISDO00         CHECK IF DATA OPERAND                67374021
 00693A 181C                       11445 ISDO39 LR    RW1,RIN               PT RW1 TO AN LIT FOR GETMOD          67380021
 00693C 9501 C001      0988C       11446 ISDO40   CLI   GOTTEN+NX1,XX01    IS IT ONE CHARACTER                   67386021
 006940 4770 89B2      0696A       11447        BC    NOTEQ,ISDO55          NO                                   67392021
 006944 1821                       11448        LR      RW2,RW1                                                  67398021
 006946 45E0 7F94      05F4C       11449        BAL     RCS,COUNT           GET BYTE COUNT                       67404021
 00694A 4A10 BE72      09722       11450        AH      RW1,BYTES         ADVANCE CURRENT ENTITY WITH BYTE C     67410021
 00694E 0610                       11451        BCTR  RW1,RA0               BACKSPACE 1 BYTE                     67416021
 006950 D200 BE95 1000 09745 00000 11452          MVC   FIGALL+NX1(LX1),DX0(RW1) MOVE TO FIGCON HEADER           67422021
 006956 41C0 BE94      09744       11453        LA      RIN,FIGALL                                               67428021
 00695A 47F0 890E      068C6       11454        BC    UNCOND,ISDO10         GET THE MODE                         67434021
 00695E 45E0 9BDA      07A32       11455 ISDO50 BAL     RCS,ERROR           WRITE ERROR MESSAGE                  67440021
 006962 4110 A2A3      07F9B       11456        LA    RW1,ELST67                                                 67446021
 006966 47F0 88F4      068AC       11457        BC      UNCOND,ISDO00       CHECK IF DATA OPERAND                67452021
 00696A D200 BD59 1001 09609 00001 11458 ISDO55   MVC   ALLGT1+NX1(LX1),DX1(RW1) MOVE IN CNT OF BYTES FOLLOWING  67458021
 006970 1B22                       11459        SR    RW2,RW2                                                    67464021
 006972 4321 0001      00001       11460          IC    RW2,DX1(RW1)   GET COUNT OF BYTES TO BE TESTED           67470021
 006976 4420 8A42      069FA       11461        EX    RW2,MVALLGT     ATTACH LITERAL TO FIGCON HEADER            67476021
 00697A 41C0 BD58      09608       11462        LA    RIN,ALLGT1   POINT RIN TO IT                               67482021
 00697E 4131 0002      00002       11463          LA    RW3,DX2(RW1)  RW3 PTS TO 1ST BYTE OF LITERAL ITSELF      67488021
 006982 1B44                       11464        SR    RW4,RW4    RW4 WILL CONTAIN VALUES DEPENDING               67494021
                                   11465 *                 ON WHAT GETMOD HAS FOUND                              67500021
 006984 4110 BE94      09744       11466        LA    RW1,FIGALL                                                 67506021
 006988 D200 BE95 3000 09745 00000 11467 ALLOOP   MVC   FIGALL+NX1(LX1),DX0(RW3) MOVE IN A BYTE TO BE TESTED     67512021
 00698E 45E0 8668      06620       11468        BAL   RCS,GETMOD    GET MODE OF BYTE                             67518021
 006992 4133 0001      00001       11469          LA    RW3,DX1(RW3)  INCR. RW3 TO PT TO NEXT BYTE               67524021
 006996 9503 BE65      09715       11470          CLI   MODE+NX1,MB3   ALPHANUMERIC                              67530021
 00699A 4770 89EE      069A6       11471        BNE    CKRSLT               NO                                   67536021
 00699E 98E4 B348      08BF8       11472 EXALL  LM    RCS,RW4,SVDTOP                                             67542021
 0069A2 47FE 0004      00004       11473          BC    UNCOND,DX4(RCS)     RETURN                               67548021
 0069A6 4940 A598      08290       11474 CKRSLT CH    RW4,N0          FIRST TIME                                 67554021
 0069AA 4770 8A06      069BE       11475        BNE   CKRS2    NO                                                67560021
 0069AE 9508 BE65      09715       11476          CLI   MODE+NX1,MB8 WAS NUMERIC FOUND                           67566021
 0069B2 4770 8A2E      069E6       11477        BNE   CKRS1    NO- MUST BE ALPHABETIC                            67572021
 0069B6 4140 0001      00001       11478          LA    RW4,DX1        RW4=1, NUMERIC FOUND                      67578021
 0069BA 4620 89D0      06988       11479 CKRS0  BCT   RW2,ALLOOP            TEST BYTE                            67584021
 0069BE 9508 BE65      09715       11480 CKRS2    CLI   MODE+NX1,MB8 IS IT NUMERIC                               67590021
 0069C2 4770 8A22      069DA       11481        BNE   CKRS3      NO                                              67596021
 0069C6 4940 A59C      08294       11482        CH    RW4,N1          WAS NUMERIC FOUND LAST TIME                67602021
 0069CA 4770 8A36      069EE       11483        BNE   EXALL2   NO-MIXED                                          67608021
 0069CE 4920 A598      08290       11484 CKRS4  CH    RW2,N0          YES-ARE THERE MORE BYTES TO TEST           67614021
 0069D2 4770 8A02      069BA       11485        BNE   CKRS0           YES                                        67620021
 0069D6 47F0 89E6      0699E       11486        B     EXALL   NO-EXIT                                            67626021
 0069DA 4940 A59E      08296       11487 CKRS3   CH   RW4,N2          WAS ALPHAB FOUND LAST TIME                 67632021
 0069DE 4770 8A36      069EE       11488        BNE   EXALL2      NO                                             67638021
 0069E2 47F0 8A16      069CE       11489        B     CKRS4                 MORE BYTES TO BE TESTED              67644021
 0069E6 4140 0002      00002       11490 CKRS1    LA    RW4,DX2        RW4=2,ALPH FOUND                          67650021
1PH40     IKFCBL40                                                                                              PAGE  239
-  LOC  OBJECT CODE    ADDR1 ADDR2  STMT   SOURCE STATEMENT                                       ASM 0201 11.03 02/14/15
00069EA 47F0 8A02      069BA       11491          B     CKRS0               YES                                  67656021
 0069EE 9223 BE64      09714       11492 EXALL2 MVI   MODE,MB35       MIXED, SET MODE TO ALPHNUMERIC             67662021
 0069F2 9203 BE65      09715       11493          MVI   MODE+NX1,MB3                                             67668021
 0069F6 47F0 89E6      0699E       11494        BC    UNCOND,EXALL          GO TO EXIT                           67674021
 0069FA D200 BD5A 1002 0960A 00002 11495 MVALLGT  MVC   ALLGT1+NX2(LX1),DX2(RW1)                                 67680021
 006A00 D501 C000 A400 0988B 080F8 11496 ISDO60   CLC   GOTTEN(LX2),CBPLUS IS IT A PLUS SIGN                     67686021
 006A06 4780 8A66      06A1E       11497        BC    EQ,ISDO70             YES                                  67692021
 006A0A D501 C000 A3C0 0988B 080B8 11498          CLC   GOTTEN(LX2),CBMINS IS IT A MINUS SIGN                    67698021
 006A10 4780 8A76      06A2E       11499        BC    EQ,ISDO90             YES                                  67704021
                             06A14 11500 ISDO65 EQU     *                                                        67710021
 006A14 D201 BE64 A5BE 09714 082B6 11501          MVC   MODE(LX2),NFFFF     BAD MODE -OVERLAY PREVIOUS           67716021
 006A1A 47F0 894E      06906       11502        BC      UNCOND,ISDO20        BAD DATA                            67722021
 006A1E 45E0 7566      0551E       11503 ISDO70 BAL RCS,GETNXT              GET NEXT INPUT                       67728021
 006A22 45E0 9BDA      07A32       11504 ISDO80 BAL     RCS,ERROR          SIGN IGNORED                          67734021
 006A26 4110 A07E      07D76       11505        LA      RW1,ELST14                                               67740021
 006A2A 47F0 88F4      068AC       11506        BC    UNCOND,ISDO00         IS IT DATA OPERAND                   67746021
 006A2E 45E0 7566      0551E       11507 ISDO90 BAL   RCS,GETNXT            GET NEXT INPUT                       67752021
 006A32 181C                       11508        LR      RW1,RIN                                                  67758021
 006A34 9532 C000      0988B       11509        CLI     GOTTEN,MNLIT        IS IT NUMERIC LITERAL                67764021
 006A38 4780 8A8C      06A44       11510        BC    EQ,ISDO96             YES                                  67770021
 006A3C 9533 C000      0988B       11511        CLI     GOTTEN,MFLIT        IS IT FLOATING POINT LITERAL         67776021
 006A40 4770 8A6A      06A22       11512        BC    NOTEQ,ISDO80          NO                                   67782021
 006A44 45E0 99A6      077FE       11513 ISDO96 BAL     RCS,MINLIT         REVERSE THE SIGN                      67788021
 006A48 45E0 9BDA      07A32       11514        BAL     RCS,ERROR          SPACE BEFORE SIGN                     67794021
 006A4C 4110 A084      07D7C       11515        LA      RW1,ELST15                                               67800021
 006A50 47F0 88F4      068AC       11516        BC    UNCOND,ISDO00         CHECK IF DATA OPERAND                67806021
1PH40     IKFCBL40                                                                                              PAGE  240
-  LOC  OBJECT CODE    ADDR1 ADDR2  STMT   SOURCE STATEMENT                                       ASM 0201 11.03 02/14/15
0                                  11518 *=2    ISOPST    VARIOUS IS-IT ROUTINES,E.G., 'AT END',LEGAL ARITH      67818021
                                   11519 *                                                                       67824021
                                   11520 *                                                                       67830021
                                   11521 *                                                                       67836021
                                   11522 *                                                                       67842021
                                   11523 *                                 I S O P S T                           67848021
                                   11524 *                                                                       67854021
                                   11525 *                                                                       67860021
                                   11526 *                                                                       67866021
                                   11527 *      BAL     RCS,ISOPST                                               67872021
                                   11528 *      (RETURN NOT A DATA OPERAND)                                      67878021
                                   11529 *      (RETURN LEGAL STORE-FIELD)                                       67884021
                                   11530 *                                                                       67890021
                                   11531 *      CALLED BY ARITHMETIC VERBS AND IF TO DETERMINE WHETHER CURRE     67896021
                                   11532 *        ENTITY IS A LEGAL STORE-FIELD.                                 67902021
                                   11533 *      IF IT IS LEGAL, MOVES IT TO PSTFLD,RECOMPUTES DECMAX, GETS N     67908021
                                   11534 *        AND EXITS TO 4(RCS)                                            67914021
                                   11535 *                                                                       67920021
                                   11536 *** SUBROUTINES CALLED                                                  67926021
                                   11537 *      GETNXT,GETALL,RDUCOP,PMKTAL,DECMAX,ERROR                         67932021
                                   11538 *                                                                       67938021
                                   11539 *                                                                       67944021
                                   11540 *                                                                       67950021
                             06A54 11541 ISOPST EQU     *                                                        67956021
 006A54 90E0 B300      08BB0       11542        STM     RCS,RA0,SVISOP                                           67962021
 006A58 180C                       11543        LR      RA0,RIN            FOR MSG                               67968021
 006A5A 45E0 81AC      06164       11544        BAL     RCS,RDUCOP         IS IT DATA-OPERAND AT ALL             67974021
 006A5E 47F0 8AD2      06A8A       11545        BC      UNCOND,ISOPS6        NO                                  67980021
 006A62 9580 BE64      09714       11546        CLI     MODE,MDNUM           YES - IS IT NUMERIC                 67986021
 006A66 4780 8ABA      06A72       11547        BC      EQ,ISOPS2                   YES,OK                       67992021
 006A6A 9520 BE64      09714       11548        CLI     MODE,MDREP           NO  - IS IT REPORT ITEM             67998021
 006A6E 4770 8AD2      06A8A       11549        BC      NOTEQ,ISOPS4         NO- GO SUBSTITUTE 'TALLY'           68004021
 006A72 45E0 99DE      07836       11550 ISOPS2 BAL     RCS,DECMAX         LEGAL - UPDATE DECMAX                 68010021
 006A76 45E0 76EC      056A4       11551        BAL     RCS,GETALL          SAVE IT                              68016021
 006A7A 4120 B678      08F28       11552        LA      RW2,PSTFLD         MOVE IT TO PSTFLD                     68022021
 006A7E 45E0 7566      0551E       11553        BAL     RCS,GETNXT          GET NEXT INPUT                       68028021
 006A82 98E0 B300      08BB0       11554        LM      RCS,RA0,SVISOP       YES - EXIT                          68034021
 006A86 47FE 0004      00004       11555          BC    UNCOND,DX4(RCS)     EXIT - LEGAL STORE FIELD             68040021
                                   11556 *                                                                       68046021
                             06A8A 11557 ISOPS6 EQU     *                                                        68052021
 006A8A 45E0 9BDA      07A32       11558 ISOPS4 BAL     RCS,ERROR           WRITE ERROR MESSAGE                  68058021
 006A8E 4110 A08A      07D82       11559        LA      RW1,ELST17                                               68064021
 006A92 98E0 B300      08BB0       11560        LM      RCS,RA0,SVISOP                                           68070021
 006A96 07FE                       11561        BCR     UNCOND,RCS          RETURN                               68076021
-
                                   11563 *                                                                       68088021
                                   11564 *                                                                       68094021
                                   11565 *                                 I S O P A R                           68100021
                                   11566 *                                                                       68106021
                                   11567 *                                                                       68112021
                                   11568 *                                                                       68118021
                                   11569 *      BAL     RCS,ISOPAR                                               68124021
                                   11570 *      (RETURN NO)                                                      68130021
1PH40     IKFCBL40                                                                                              PAGE  241
-  LOC  OBJECT CODE    ADDR1 ADDR2  STMT   SOURCE STATEMENT                                       ASM 0201 11.03 02/14/15
0                                  11571 *      (RETURN LEGAL ARITHMETIC OPERAND                                 68136021
                                   11572 *                                                                       68142021
                                   11573 *      CALLED BY ARITHMETIC VERBS AND IF TO DETERMINE WHETHER CURRE     68148021
                                   11574 *        ENTITY IS A LEGAL ARITHMETIC OPERAND.                          68154021
                                   11575 *      LEAVES ERROR HANDLING TO CALLING ROUTINE                         68160021
                                   11576 *                                                                       68166021
                                   11577 *                                                                       68172021
                                   11578 *** SUBROUTINES CALLED                                                  68178021
                                   11579 *      RDUCOP                                                           68184021
                                   11580 *                                                                       68190021
                                   11581 *                                                                       68196021
                             06A98 11582 ISOPAR EQU     *                                                        68202021
 006A98 50E0 B300      08BB0       11583        ST      RCS,SVISOP                                               68208021
 006A9C 45E0 81AC      06164       11584        BAL     RCS,RDUCOP         IS IT A VALID DATA-OPERAND AT ALL     68214021
 006AA0 47F0 8AFC      06AB4       11585        BC      UNCOND,ISOPA4      NO                                    68220021
 006AA4 9180 BE64      09714       11586        TM      MODE,MDNUM         YES - IS IT NUMERIC                   68226021
 006AA8 4780 8AFC      06AB4       11587        BC      ZERO,ISOPA4        NO                                    68232021
 006AAC 58E0 B300      08BB0       11588        L       RCS,SVISOP           YES EXIT                            68238021
 006AB0 47FE 0004      00004       11589          BC    UNCOND,DX4(RCS)     LEGAL ARITH OPERAND                  68244021
                                   11590 *                                                                       68250021
 006AB4 58E0 B300      08BB0       11591 ISOPA4 L       RCS,SVISOP          NO-EXIT                              68256021
 006AB8 07FE                       11592        BCR     UNCOND,RCS          OPERAND NOT LEGAL                    68262021
-
                                   11594 *                                                                       68274021
                                   11595 *                           I S F L P T                                 68280021
                                   11596 *                                                                       68286021
                                   11597 *      ROUTINE USED BY DISPLA AND EXHIBT TO PROCESS INTERNAL FLOATI     68292021
                                   11598 *        POINT DATA-NAMES                                               68298021
                                   11599 *                                                                       68304021
                                   11600 *      BAL     RCS,ISFLPT                                               68310021
                                   11601 *      (RETURN)                                                         68316021
                                   11602 *                                                                       68322021
                                   11603 *** OUTPUT PRODUCED                                                     68328021
                                   11604 *      (IF ITEM NOT INTERNAL FLOATING DN, NO OUTPUT)                    68334021
                                   11605 *                                                                       68340021
                                   11606 *         ' MOVE INPUT PARAM ' IS STORED IN PNOUNT                      68346021
                                   11607 *                                                                       68352021
                                   11608 *** SUBROUTINES CALLED                                                  68358021
                                   11609 *      PNSRTV                                                           68364021
                                   11610 *                                                                       68370021
                                   11611 *** NOTES                                                               68376021
                                   11612 *      FOR NON-FLOATING EXIT WITHOUT DOING ANYTHING                     68382021
                                   11613 *      FOR FLOATING, UPDATE LOCAL PARAM COUNT,PUT MOVE STRING IN        68388021
                                   11614 *       PNOUNT, POINT RIN TO PARAM  SO THAT IT  GOES INTO NORMAL        68394021
                                   11615 *       STRING.                                                         68400021
                                   11616 *      GENSTR TESTS GNOUSW TURNED ON BY DISPLAY AND EXHIBIT VERBS.      68406021
                                   11617 *       WHEN ON, GENERATES PNOUNT BETWEEN SUBSCRIPTS AND STRING.        68412021
                                   11618 *      SPECIAL IC-TEXT FOR PHASE5 MAKES 2ND BYTE OF PARAM 1D FOR SI     68418021
                                   11619 *       AND 1E FOR DOUBLE PRECISION.                                    68424021
                                   11620 *                                                                       68430021
                                   11621 *                                                                       68436021
                             06ABA 11622 ISFLPT EQU     *                                                        68442021
 006ABA D501 BE64 A584 09714 0827C 11623          CLC   MODE(LX2),MODIFL    IS IT FLOATING POINT DN              68448021
1PH40     IKFCBL40                                                                                              PAGE  242
-  LOC  OBJECT CODE    ADDR1 ADDR2  STMT   SOURCE STATEMENT                                       ASM 0201 11.03 02/14/15
0006AC0 077E                       11624        BCR     NOTEQ,RCS             NO                                 68454021
                                   11625 *                                                                       68460021
                                   11626 *                           UPDATE PARAM COUNTER                        68466021
                                   11627 *                                                                       68472021
 006AC2 90E1 B4D8      08D88       11628        STM     RCS,RW1,SVISFP                                           68478021
 006AC6 48F0 BE6C      0971C       11629        LH      RAS,PARSIZ         STORE CURRENT PARAM DISPL.            68484021
 006ACA 40F0 BE70      09720       11630          STH   RAS,PARAM+NX2                                            68490021
 006ACE 41FF 000E      0000E       11631          LA    RAS,DX14(RAS)       ADD 14 FOR SINGLE PRECISION          68496021
 006AD2 921D BE6F      0971F       11632          MVI   PARAM+NX1,XX1D      CODE FOR SINGLE                      68502021
 006AD6 9101 C009      00009       11633          TM    DX9(RIN),MFPRBT                                          68508021
 006ADA 4780 8B2E      06AE6       11634        BC      ZERO,ISFLP4         NOT FLOATING POINT PRECISION         68514021
 006ADE 41FF 0009      00009       11635          LA    RAS,DX9(RAS)         ADD 23 FOR DOUBLE                   68520021
 006AE2 921E BE6F      0971F       11636          MVI   PARAM+NX1,XX1E      CODE FOR DOUBLE                      68526021
                             06AE6 11637 ISFLP4 EQU     *                                                        68532021
 006AE6 40F0 BE6C      0971C       11638        STH     RAS,PARSIZ                STORE FOR NEXT USE             68538021
                                   11639 *                                                                       68544021
                                   11640 *                           STORE 'MOVE INPUT PARAM'                    68550021
                                   11641 *                                                                       68556021
 006AEA 5810 B070      08920       11642        L       RW1,APNOUN                                               68562021
 006AEE 45E0 7D5C      05D14       11643        BAL     RCS,PNSRTV          INSERT 'MOVE' IN STRING              68568021
 006AF2 4140 A56A      08262       11644        LA      RW4,MOVEVB          MOVE                                 68574021
 006AF6 45E0 7D5C      05D14       11645        BAL     RCS,PNSRTV          INSERT 'INPUT' IN STRING             68580021
 006AFA 414C 0000      00000       11646          LA    RW4,DX0(RIN)         INPUT                               68586021
 006AFE 45E0 7D5C      05D14       11647        BAL     RCS,PNSRTV          INSERT PARAM IN STRING               68592021
 006B02 4140 BE6E      0971E       11648        LA      RW4,PARAM           PARAM                                68598021
 006B06 41C0 BE6E      0971E       11649        LA      RIN,PARAM          POINT INPUT REGISTER AT PARAM         68604021
 006B0A 98E1 B4D8      08D88       11650        LM      RCS,RW1,SVISFP                                           68610021
 006B0E 07FE                       11651        BCR     UNCOND,RCS          EXIT                                 68616021
-
                                   11653 *                                                                       68628021
                                   11654 *                           I S I N T G                                 68634021
                                   11655 *                                                                       68640021
                                   11656 *                                                                       68646021
                                   11657 *      SUBROUTINE TO DISCOVER WHETHER AN OPERAND IS AN INTEGER          68652021
                                   11658 *                                                                       68658021
                                   11659 *      L       RW1,ADDR.     OR   . (NO L INSTR. NEEDED)                68664021
                                   11660 *      .                          .                                     68670021
                                   11661 *      .                          .                                     68676021
                                   11662 *      BAL     RCS,ISINTG         BAL RCS,ISINT2                        68682021
                                   11663 *      (NO RETURN)                (NO RETURN)                           68688021
                                   11664 *      (YES RETURN)               (YES RETURN)                          68694021
                                   11665 *                                                                       68700021
                                   11666 *                                                                       68706021
                                   11667 *      ENTRANCE AT ISINTG CAUSES GETMOD TO BE CALLED                    68712021
                                   11668 *                  ISINT2 ASSUMES MODE AND DCURR FOR ENTITY ARE CUR     68718021
                                   11669 *                                                                       68724021
                                   11670 *                                                                       68730021
                                   11671 *** SUBROUTINES CALLED                                                  68736021
                                   11672 *      GETMOD                                                           68742021
                                   11673 *                                                                       68748021
                                   11674 *                                                                       68754021
                             06B10 11675 ISINTG EQU     *                                                        68760021
 006B10 50E0 B344      08BF4       11676        ST      RCS,SVISIN                                               68766021
1PH40     IKFCBL40                                                                                              PAGE  243
-  LOC  OBJECT CODE    ADDR1 ADDR2  STMT   SOURCE STATEMENT                                       ASM 0201 11.03 02/14/15
0006B14 45E0 8668      06620       11677        BAL     RCS,GETMOD         FIND MODE AND DCURR                   68772021
 006B18 58E0 B344      08BF4       11678        L       RCS,SVISIN                                               68778021
                                   11679 *                                                                       68784021
                             06B1C 11680 ISINT2 EQU     *                                                        68790021
 006B1C 9180 BE64      09714       11681        TM      MODE,MNUMBT         IS IT NUMERIC                        68796021
 006B20 478E 0000      00000       11682          BC    ZERO,DX0(RCS)        NO                                  68802021
 006B24 9508 BE65      09715       11683          CLI   MODE+NX1,MEDMOD     IS IT EXT. DEC.                      68808021
 006B28 4780 8B8A      06B42       11684        BC      EQ,ISINT6           YES                                  68814021
 006B2C 950A BE65      09715       11685          CLI   MODE+NX1,MIFMOD     NO- IS IT FLOATING POINT             68820021
 006B30 07DE                       11686        BCR     NOTHI,RCS            YES - EXIT NOT AN INTEGER           68826021
 006B32 950D BE65      09715       11687          CLI   MODE+NX1,MSNMOD     IS IT STERLING NON-REPORT            68832021
 006B36 078E                       11688        BCR     EQ,RCS                 YES - DONT CONSIDER INTEGER       68838021
 006B38 91FF BE66      09716       11689 ISINT4 TM      DCURR,MFF          DOES DCURR=0                          68844021
 006B3C 478E 0004      00004       11690          BC    ZERO,DX4(RCS)         YES - EXIT YES                     68850021
 006B40 07FE                       11691        BCR     UNCOND,RCS           NO  - EXIT NOT INTEGER              68856021
 006B42 9103 BE64      09714       11692 ISINT6 TM      MODE,MFGMOD     EXT. DECIMAL MODE- IS IT FIGCON          68862021
 006B46 071E                       11693        BCR     ONES,RCS             YES - EXIT NOT INTEGER              68868021
 006B48 47F0 8B80      06B38       11694        BC      UNCOND,ISINT4        NO - GO EXAMINE DCURR               68874021
-
                                   11696 *                                                                       68886021
                                   11697 *                           O K P F O P                                 68892021
                                   11698 *                                                                       68898021
                                   11699 *                                                                       68904021
                                   11700 *                                                                       68910021
                                   11701 *      ROUTINE TO ANALYZE OPERANDS OF PERFORM-VARYING.                  68916021
                                   11702 *                                                                       68922021
                                   11703 *                                                                       68928021
                                   11704 *      BAL     RCS,OKPFOP                                               68934021
                                   11705 *      (RETURN)                                                         68940021
                                   11706 *                                                                       68946021
                                   11707 *      IF INTGSW IS ON, INTEGER IS REQUIRED. TURNS IT OFF               68952021
                                   11708 *      SUBSTITUTES 'TALLY' FOR ILLEGAL OPERANDS                         68958021
                                   11709 *                                                                       68964021
                                   11710 *** SUBROUTINES CALLED                                                  68970021
                                   11711 *      ISOPAR,ISINTG,ERROR                                              68976021
                                   11712 *                                                                       68982021
                                   11713 *                                                                       68988021
                                   11714 *                                                                       68994021
                             06B4C 11715 OKPFOP EQU     *                                                        69000021
 006B4C 90E0 B458      08D08       11716        STM     RCS,RA0,SVOKPF                                           69006021
 006B50 45E0 8AE0      06A98       11717        BAL     RCS,ISOPAR         IS IT NUMERIC OPERAND                 69012021
 006B54 47F0 8BCC      06B84       11718        BC      UNCOND,OKPFO4       NO                                   69018021
 006B58 9101 BFA2      09852       11719         TM     INTGSW,MSWON        IS INTEGER REQUIRED                  69024021
 006B5C 4780 8BC6      06B7E       11720         BZ     OKPFO2              NO - EXIT                            69030021
 006B60 94FE BFA2      09852       11721         NI     INTGSW,MSWOFF       YES, REINITIALIZE SW                 69036021
 006B64 45E0 8B64      06B1C       11722         BAL    RCS,ISINT2          IS IT INTEGER                        69042021
 006B68 47F0 8BB8      06B70       11723         BC     UNCOND,OKPF01       NO - ISSUE ERROR MESSAGE             69048021
 006B6C 47F0 8BC6      06B7E       11724         BC     UNCOND,OKPFO2       YES - EXIT                           69054021
                             06B70 11725 OKPF01  EQU    *                                                        69060021
 006B70 180C                       11726         LR     RA0,RIN                                                  69066021
 006B72 45E0 9BDA      07A32       11727         BAL    RCS,ERROR           FOR MSG 40                           69072021
 006B76 4110 A1A4      07E9C       11728         LA     RW1,ELST40          RW1 POINTS TO PARM LIST              69078021
 006B7A 41C0 BF54      09804       11729         LA     RIN,NUMLT1          SUBSTITUTE 1                         69084021
1PH40     IKFCBL40                                                                                              PAGE  244
-  LOC  OBJECT CODE    ADDR1 ADDR2  STMT   SOURCE STATEMENT                                       ASM 0201 11.03 02/14/15
0006B7E 98E0 B458      08D08       11730 OKPFO2 LM      RCS,RA0,SVOKPF       EXIT                                69090021
 006B82 07FE                       11731        BCR     UNCOND,RCS          EXIT                                 69096021
                                   11732 *                                                                       69102021
                             06B84 11733 OKPFO4 EQU     *                                                        69108021
 006B84 9120 C000      00000       11734          TM    DX0(RIN),MOP                                             69114021
 006B88 4710 8BD8      06B90       11735          BC    ONES,*+NX8          CHECK IF INDEX NAME                  69120021
 006B8C 9601 BF74      09824       11736        OI      NEXTIN,MSWON       SAVE IF NOT AN OPERAND                69126021
 006B90 9536 C000      0988B       11737        CLI   GOTTEN,MINDNM       IS IT INDEXNAME                        69132021
 006B94 4780 8BF0      06BA8       11738        BE    OKPFOA                YES                                  69138021
 006B98 45E0 9BDA      07A32       11739 OKPF05 BAL   RCS,ERROR             WRITE ERROR MESSAGE                  69144021
 006B9C 4110 A0ED      07DE5       11740        LA      RW1,ELST27                                               69150021
 006BA0 45E0 99FE      07856       11741        BAL     RCS,PMKTA2         SUBSTITUTE 'TALLY'                    69156021
 006BA4 47F0 8BC6      06B7E       11742        BC      UNCOND,OKPFO2       GO TO EXIT                           69162021
                                   11743 *                                                                       69168021
 006BA8 950C BF9F      0984F       11744 OKPFOA   CLI   VARYSW+NX1,XX0C       1ST OP VARY                        69174021
 006BAC 4770 8C00      06BB8       11745         BNE    *+NX12              NO                                   69180021
 006BB0 9601 B4E8      08D98       11746          OI    INDSW1,MSWON       TURN ON INDEX SW                      69186021
 006BB4 47F0 8BC6      06B7E       11747        B     OKPFO2                GO TO EXIT                           69192021
 006BB8 9101 B4E8      08D98       11748          TM    INDSW1,MSWON        INDEX SW ON                          69198021
 006BBC 4780 8BE0      06B98       11749        BZ    OKPF05              ERRMSG                                 69204021
 006BC0 47F0 8BC6      06B7E       11750        B     OKPFO2                GO TO EXIT                           69210021
-
                                   11752 *                                                                       69222021
                                   11753 *                                                                       69228021
                                   11754 *                            I S O K F L                                69234021
                                   11755 *                                                                       69240021
                                   11756 *      ROUTINE TO DISCOVER IF FILE-NAME INPUT IS IN LEGAL SECTION       69246021
                                   11757 *        AND CERTIFIED HEALTHY BY PHASE 2                               69252021
                                   11758 *                                                                       69258021
                                   11759 *      BAL     RCS,ISOKFL                                               69264021
                                   11760 *      (RETURN)                                                         69270021
                                   11761 *                                                                       69276021
                                   11762 *      TURNS ON SKIPSW IF FILE IS NO GOOD. ROUTINES CALLING             69282021
                                   11763 *        ISOKFL MUST TURN SKIPSW OFF BEFORE COMING HERE                 69288021
                                   11764 *                                                                       69294021
                                   11765 *      OPEN SETS OPCLSW TO 1, CLOSE TO 3, OTHER VERBS TO 0              69300021
                                   11766 *                                                                       69306021
                                   11767 *      CALLS ERROR TO WRITE MSG IF IN ILLEGAL SECTION                   69312021
                                   11768 *                                                                       69318021
                             06BC4 11769 ISOKFL EQU     *                                                        69324021
 006BC4 90E2 B48C      08D3C       11770        STM     RCS,RW2,SVISOK                                           69330021
 006BC8 91F0 C006      00006       11771          TM    DX6(RIN),XXF0       WAS FILE ACCEPTABLE TO PHASE 2       69336021
 006BCC 4710 8C24      06BDC       11772        BC      ONES,ISOKF6          NO                                  69342021
 006BD0 9500 BD44      095F4       11773          CLI   SAVLHN+NX6,XX00     ARE WE IN RPD SECTION (OR DEBUG O    69348021
                                   11774 *                                  ERROR DECLARATIVE FOR RPD)           69354021
 006BD4 4780 8C28      06BE0       11775        BC    EQ,ISOKF8             GO TO EXIT                           69360021
 006BD8 47F0 8C28      06BE0       11776        BC    UNCOND,ISOKF8         GO TO EXIT                           69366021
 006BDC 9601 BFAB      0985B       11777 ISOKF6 OI      SKIPSW,MSWON                                             69372021
 006BE0 98E2 B48C      08D3C       11778 ISOKF8 LM      RCS,RW2,SVISOK                                           69378021
 006BE4 9601 BF73      09823       11779        OI    GENRED,MSWON                                               69384021
 006BE8 07FE                       11780        BCR     UNCOND,RCS          RETURN                               69390021
                                   11781 *                                                                       69396021
1PH40     IKFCBL40                                                                                              PAGE  245
-  LOC  OBJECT CODE    ADDR1 ADDR2  STMT   SOURCE STATEMENT                                       ASM 0201 11.03 02/14/15
0                                  11783 *                                                                       69408021
                                   11784 *                                                                       69414021
                                   11785 *                             I S E N D                                 69420021
                                   11786 *                                                                       69426021
                                   11787 *      BAL   RCS,ISEND                                                  69432021
                                   11788 *      (RETURN NO)                                                      69438021
                                   11789 *      (RETURN YES)                                                     69444021
                                   11790 *                                                                       69450021
                                   11791 *      TESTS WHETHER GOTTEN HEADS VERB, LHN, OR BREAK                   69456021
                                   11792 *                                                                       69462021
                                   11793 *                                                                       69468021
                             06BEA 11794 ISEND    EQU   *                                                        69474021
 006BEA 9544 C000      0988B       11795        CLI   GOTTEN,MVERB                                               69480021
 006BEE 478E 0004      00004       11796          BC    EQ,DX4(RCS)          YES IF VERB                         69486021
 006BF2 9506 C000      0988B       11797        CLI     GOTTEN,MPND                                              69492021
 006BF6 478E 0004      00004       11798          BC    EQ,DX4(RCS)          YES IF PN                           69498021
 006BFA 9542 C000      0988B       11799        CLI   GOTTEN,MBREAK                                              69504021
 006BFE 478E 0004      00004       11800          BC    EQ,DX4(RCS)          YES IF BREAK                        69510021
 006C02 9588 C000      0988B       11801        CLI     GOTTEN,MLGN         YES IF LGN (Q-VERBS,ETC.)            69516021
 006C06 478E 0004      00004       11802          BC    EQ,DX4(RCS)         EXIT - OK                            69522021
 006C0A 07FE                       11803        BCR     UNCOND,RCS         OTHERWISE NO                          69528021
-
                                   11805 *                                                                       69540021
                                   11806 *                                                                       69546021
                                   11807 *                              I S T R U V                              69552021
                                   11808 *                                                                       69558021
                                   11809 *      BAL     RCS,ISTRUV                                               69564021
                                   11810 *      (RETURN)                                                         69570021
                                   11811 *                                                                       69576021
                                   11812 *      CALLED WHEN CONDITION IS FOUND (IF,ON,END,SIZE ERROR,INVALID     69582021
                                   11813 *      TESTS SW TRUVRB. IF ON, ONLY IMPERATIVES ARE LEGAL               69588021
                                   11814 *      TURNS ON TRUVRB FOR ALL CONDITIONS EXCEPT IF                     69594021
                                   11815 *      TURNS ON CONDSW FOR ALL CONDITIONS - TELLING IDENT,THAT A VE     69600021
                                   11816 *        OTHER THAN . OR ELSE MUST FOLLOW                               69606021
                                   11817 *                                                                       69612021
                                   11818 *                                                                       69618021
                             06C0C 11819 ISTRUV EQU     *                                                        69624021
 006C0C 9601 BF9B      0984B       11820        OI      CONDSW,MSWON       SW FOR IDENT TO CHECK . AND ELSE      69630021
 006C10 9101 BF9C      0984C       11821        TM      TRUVRB,MSWON       IS CONDITION LEGAL HERE               69636021
 006C14 4780 8C76      06C2E       11822        BC      ZERO,ISTRU2          YES                                 69642021
 006C18 50E0 B4EC      08D9C       11823        ST      RCS,SVISTR           NO - MSG BUT ACCEPT                 69648021
 006C1C 45E0 9BDA      07A32       11824        BAL     RCS,ERROR           WRITE ERROR MESSAGE                  69654021
 006C20 4110 A23A      07F32       11825        LA      RW1,ELST56                                               69660021
 006C24 58E0 B4EC      08D9C       11826        L       RCS,SVISTR                                               69666021
 006C28 94FE BF9C      0984C       11827        NI      TRUVRB,MSWOFF      OFF SW TO AVOID REPEATED MSGS         69672021
 006C2C 07FE                       11828        BCR     UNCOND,RCS          EXIT                                 69678021
 006C2E 9101 BF79      09829       11829 ISTRU2 TM      PLOGIC,MSWON       WAS CALL FROM IF                      69684021
 006C32 071E                       11830        BCR     ONES,RCS            YES                                  69690021
 006C34 9601 BF9C      0984C       11831        OI      TRUVRB,MSWON        NO - ILLEGALIZE CONDITIONS TILL      69696021
 006C38 07FE                       11832        BCR     UNCOND,RCS           . OR ELSE                           69702021
-
1PH40     IKFCBL40                                                                                              PAGE  246
-  LOC  OBJECT CODE    ADDR1 ADDR2  STMT   SOURCE STATEMENT                                       ASM 0201 11.03 02/14/15
0                                  11834 *                                                                       69714021
                                   11835 *                                                                       69720021
                                   11836 *                                                                       69726021
                                   11837 *                             I S N X T S                               69732021
                                   11838 *                                                                       69738021
                                   11839 *        BAL   RCS,ISNXTS                                               69744021
                                   11840 *        (RETURN NO)                                                    69750021
                                   11841 *        (RETURN YES)                                                   69756021
                                   11842 *                                                                       69762021
                                   11843 *        TESTS INPUT FOR 'NEXT SENTENCE',RETURNS WITH WORD FOLLOWIN     69768021
                                   11844 *          'SENTENCE',(OR WORD FOLLOWING 'NEXT'IF'SENTENCE' IS          69774021
                                   11845 *           MISSING)                                                    69780021
                                   11846 *                                                                       69786021
                                   11847 *** SUBROUTINES CALLED                                                  69792021
                                   11848 *      GETNXT,ERROR                                                     69798021
                                   11849 *                                                                       69804021
                                   11850 *                                                                       69810021
                                   11851 *** ERROR PROCESSING                                                    69816021
                                   11852 *      ASSUMES 'SENTENCE' IF ONLY 'NEXT' IS FOUND                       69822021
                                   11853 *                                                                       69828021
                                   11854 *                                                                       69834021
                                   11855 *                                                                       69840021
                             06C3A 11856 ISNXTS   EQU   *                                                        69846021
 006C3A 50E0 B230      08AE0       11857          ST    RCS,SVISNX                                               69852021
 006C3E D501 C000 A3E0 0988B 080D8 11858          CLC   GOTTEN(LX2),CBNEXT   IS IT 'NEXT'                        69858021
 006C44 077E                       11859          BCR   NOTEQ,RCS                NO, EXIT TO 0(RCS)              69864021
 006C46 45E0 7566      0551E       11860          BAL   RCS,GETNXT          YES                                  69870021
 006C4A 94FE BF9B      0984B       11861        NI      CONDSW,MSWOFF    'NEXT SENTENCE'= IMPERATIVE VERB        69876021
 006C4E D501 C000 A41A 0988B 08112 11862          CLC   GOTTEN(LX2),CBSENT   IS NEXT 'SENTENCE'                  69882021
 006C54 4770 8CD0      06C88       11863          BC    NOTEQ,ISNXT4             NO- ERROR                       69888021
 006C58 45E0 7566      0551E       11864          BAL   RCS,GETNXT          YES - DISCARD                        69894021
 006C5C 45E0 8C32      06BEA       11865 ISNXT2 BAL     RCS,ISEND           CHECK IF VERB,LHN OR BREAK           69900021
 006C60 47F0 8CC8      06C80       11866        BC      UNCOND,ISNXT3      IDENT OR ANALYZER WILL FIND GARBA     69906021
 006C64 D501 C000 A346 0988B 0803E 11867          CLC   GOTTEN(LX2),CBEOS        IS IT PERIOD                    69912021
 006C6A 4780 8CC8      06C80       11868        BC      EQ,ISNXT3                 YES - OK                       69918021
 006C6E D501 C000 A344 0988B 0803C 11869          CLC   GOTTEN(LX2),CBELSE       IS IT ELSE                      69924021
 006C74 4780 8CC8      06C80       11870        BC      EQ,ISNXT3                 YES - OK                       69930021
 006C78 45E0 9BDA      07A32       11871        BAL     RCS,ERROR           WRITE ERROR MESSAGE                  69936021
 006C7C 4110 A285      07F7D       11872        LA      RW1,ELST60              SOME VERB THAT WONT BE EXECU     69942021
 006C80 58E0 B230      08AE0       11873 ISNXT3 L       RCS,SVISNX         EXIT TO 4(RCS)                        69948021
 006C84 47FE 0004      00004       11874          BC    UNCOND,DX4(RCS)     EXIT                                 69954021
                                   11875 *                                                                       69960021
                                   11876 *              'SENTENCE'MISSING                                        69966021
                                   11877 *                                                                       69972021
 006C88 4100 A41A      08112       11878 ISNXT4 LA      RA0,CBSENT                                               69978021
 006C8C 45E0 9BDA      07A32       11879        BAL     RCS,ERROR           WRITE ERROR MESSAGE                  69984021
 006C90 4110 A02A      07D22       11880        LA      RW1,ELST07                                               69990021
 006C94 47F0 8CA4      06C5C       11881        BC      UNCOND,ISNXT2       GO TO ISEND                          69996021
-
                                   11883 *                                                                       70008021
                                   11884 *                           I S I Z E R                                 70014021
                                   11885 *                                                                       70020021
                                   11886 *                                                                       70026021
1PH40     IKFCBL40                                                                                              PAGE  247
-  LOC  OBJECT CODE    ADDR1 ADDR2  STMT   SOURCE STATEMENT                                       ASM 0201 11.03 02/14/15
0                                  11887 *                                                                       70032021
                                   11888 *      BAL     RCS,ISIZER                                               70038021
                                   11889 *      (RETURN NO)                                                      70044021
                                   11890 *      (RETURN YES)                                                     70050021
                                   11891 *                                                                       70056021
                                   11892 *      TESTS INPUT STREAM FOR 'SIZE ERROR' OR 'ON SIZE ERROR'           70062021
                                   11893 *                                                                       70068021
                                   11894 *      GETS NEXT AFTER EACH OF THE THREE WORDS IN CORRECT ORDER         70074021
                                   11895 *      WRITES MESSAGE IF ANY IS FOUND NOT FOLLOWED BY WHAT IT SHOUL     70080021
                                   11896 *                                                                       70086021
                                   11897 *      MOVES 2 TO ELEMENT-COUNT OF EVAL FOR NO AND ERROR CONDITIONS     70092021
                                   11898 *            3                              YES                         70098021
                                   11899 *                                                                       70104021
                                   11900 *** SUBROUTINES CALLED                                                  70110021
                                   11901 *      GETNXT,ERROR                                                     70116021
                                   11902 *                                                                       70122021
                                   11903 *                                                                       70128021
                                   11904 *                                                                       70134021
                                   11905 *                                                                       70140021
                             06C98 11906 ISIZER EQU     *                                                        70146021
 006C98 90E0 B30C      08BBC       11907        STM     RCS,RA0,SVISIZ                                           70152021
                                   11908 *A SWITCH, SIZERROR IS SET ON IF CALL WAS FROM A MULT REC               70158021
                                   11909 *EXPANSION TO  ELIMINATE THE NEED FOR MULTIPLE CALLS TO ISIZER          70164021
                                   11910 *STORAN CHECKS SWITCH IF RECSW IS ON                                    70170021
 006C9C 9101 BFD4      09884       11911        TM   ONSIZER,MSWON     WAS SIZE ERROR FOUND FOR DIV. WITH        70176021
                                   11912 *                             REMAINDER, ROUNDED OPTIONS                70182021
 006CA0 4710 8D86      06D3E       11913        BO   ERCHKED                YES                                  70188021
 006CA4 9101 BF6C      0981C       11914        TM    RECSW,MSWON  CALL FROM MULT REC                            70194021
 006CA8 4780 8CF8      06CB0       11915        BZ    ISIZ1    NO                                                70200021
 006CAC 9601 BF70      09820       11916        OI    SIZERROR,MSWON  TELL MULT REC SIZERR CHECKED FOR           70206021
 006CB0 1B00                       11917 ISIZ1  SR    RA0,RA0                                                    70212021
 006CB2 D501 C000 A3FC 0988B 080F4 11918          CLC   GOTTEN(LX2),CBON                                         70218021
 006CB8 4770 8D08      06CC0       11919          BC    NOTEQ,*+NX8         'ON' NOT PRESENT                     70224021
 006CBC 45E0 7566      0551E       11920        BAL     RCS,GETNXT             DISCARD 'ON' IF PRESENT           70230021
 006CC0 D501 C000 A4C8 0988B 081C0 11921          CLC   GOTTEN(LX2),CBSIZE                                       70236021
 006CC6 4770 8D1A      06CD2       11922        BC      NOTEQ,ISIZ2         'SIZE' NOT PRESENT                   70242021
 006CCA 4100 0001      00001       11923          LA    RA0,DX1             SW SAYS FOUND 'SIZE'                 70248021
 006CCE 45E0 7566      0551E       11924        BAL     RCS,GETNXT         DISCARD 'SIZE'                        70254021
 006CD2 D501 C000 A53A 0988B 08232 11925 ISIZ2    CLC   GOTTEN(LX2),CBEROR                                       70260021
 006CD8 4780 8D32      06CEA       11926        BC      EQ,ISIZ4            'ERROR' FOUND                        70266021
 006CDC 1200                       11927        LTR     RA0,RA0            NOT'ERROR' - WAS 'SIZE' FOUND         70272021
 006CDE 4780 8D60      06D18       11928        BC      ZERO,ISIZ10           NO - OK                            70278021
 006CE2 4100 A53A      08232       11929        LA      RA0,CBEROR            YES - MSG,ASSUME IT                70284021
 006CE6 47F0 8D40      06CF8       11930        BC      UNCOND,ISIZ6        GO TO WRITE ERROR MESSAGE            70290021
 006CEA 45E0 7566      0551E       11931 ISIZ4  BAL     RCS,GETNXT         DISCARD 'ERROR'                       70296021
 006CEE 1200                       11932        LTR     RA0,RA0            WAS 'SIZE' FOUND                      70302021
 006CF0 4770 8D48      06D00       11933        BC      NOTZER,ISIZ8          YES - OK                           70308021
 006CF4 4100 A4C8      081C0       11934        LA      RA0,CBSIZE            NO - MSG, ASSUME IT                70314021
                                   11935 *                                                                       70320021
                                   11936 *              ERROR -- 'SIZE' OR 'ERROR' MISSING                       70326021
                                   11937 *                                                                       70332021
 006CF8 45E0 9BDA      07A32       11938 ISIZ6  BAL     RCS,ERROR           WRITE ERROR MESSAGE                  70338021
 006CFC 4110 A02A      07D22       11939        LA      RW1,ELST07                                               70344021
                                   11940 *                                                                       70350021
                                   11941 *              'ON SIZE ERROR' ESTABLISHED. DISCARD 'NEXT SENTENCE'     70356021
1PH40     IKFCBL40                                                                                              PAGE  248
-  LOC  OBJECT CODE    ADDR1 ADDR2  STMT   SOURCE STATEMENT                                       ASM 0201 11.03 02/14/15
0                                  11942 *                                                                       70362021
 006D00 4100 A53A      08232       11943 ISIZ8  LA      RA0,CBEROR       PARAM FOR MSGS                          70368021
 006D04 45E0 8C54      06C0C       11944        BAL     RCS,ISTRUV       CHECK IF CONDITION ALLOWED              70374021
 006D08 45E0 8C82      06C3A       11945        BAL     RCS,ISNXTS          GO TO TEST 'NEXT SENTENCE'           70380021
 006D0C 47F0 8D6A      06D22       11946        BC      UNCOND,ISIZ12       NO - OK                              70386021
 006D10 45E0 9BDA      07A32       11947        BAL     RCS,ERROR           WRITE ERROR MESSAGE                  70392021
 006D14 4110 A1E6      07EDE       11948        LA      RW1,ELST4B                                               70398021
                                   11949 *                                                                       70404021
                                   11950 *                           EXIT  NO-SIZE-ERROR                         70410021
                                   11951 *                                                                       70416021
 006D18 9202 BEE2      09792       11952 ISIZ10   MVI   EVAL+NX2,XX02       EVAL STRING ELEMENT COUNT=2          70422021
 006D1C 98E0 B30C      08BBC       11953        LM      RCS,RA0,SVISIZ                                           70428021
 006D20 07FE                       11954        BCR     UNCOND,RCS          RETURN                               70434021
                                   11955 *                                                                       70440021
                                   11956 *                           EXIT  YES-SIZE-ERROR                        70446021
                                   11957 *                                                                       70452021
 006D22 9203 BEE2      09792       11958 ISIZ12   MVI   EVAL+NX2,XX03       EVAL STRING ELEMENT COUNT=3          70458021
 006D26 9101 BFBF      0986F       11959         TM   REMSW,MSWON           IS REMAINDER SW ON                   70464021
 006D2A 4780 8D7A      06D32       11960         BZ   ISIZ14                NO                                   70470021
 006D2E 9601 BFD4      09884       11961         OI   ONSIZER,MSWON         DIVIDE WITH REM AND ON SIZE          70476021
                                   11962 *                                  ERROR OPTIONS                        70482021
 006D32 98E0 B30C      08BBC       11963 ISIZ14  LM   RCS,RA0,SVISIZ        RESTORE REGISTERS                    70488021
 006D36 98E0 B30C      08BBC       11964        LM      RCS,RA0,SVISIZ                                           70494021
 006D3A 47FE 0004      00004       11965          BC    UNCOND,DX4(RCS)     YES-SIZE-ERROR EXIT                  70500021
 006D3E 94FE BFD4      09884       11966 ERCHKED NI   ONSIZER,MSWOFF   TURN SW OFF                               70506021
 006D42 9203 BEE2      09792       11967          MVI   EVAL+NX2,MB3         EVAL STRING ELEMENT COUNT = 3       70512021
 006D46 D701 BE18 BE18 096C8 096C8 11968          XC    NXTSNT(LX2),NXTSNT        ZERO IT OUT                    70518021
 006D4C 47F0 8D7A      06D32       11969         BC     UNCOND,ISIZ14       RETURN                               70524021
-
                                   11971 *                                                                       70536021
                                   11972 *                                                                       70542021
                                   11973 *                           I S A T N D                                 70548021
                                   11974 *                                                                       70554021
                                   11975 *                                                                       70560021
                                   11976 *      THIS ROUTINE TESTS THE INPUT STREAM FOR 'AT END' AND,            70566021
                                   11977 *      IF FOUND, PLACES NEXT SENTENCE GN INTO STRING.                   70572021
                                   11978 *              IF NOT FOUND, AN ERROR MESSAGE IS ISSUED STATING         70578021
                                   11979 *              THAT =AT END' WAS NOT FOUND WHERE REQUIRED.              70584021
                                   11980 *      AS A SPECIAL CASE, IF 'AT END NEXT SENTENCE' IS FOUND            70590021
                                   11981 *      THE WHOLE CLAUSE IS DISCARDED AND THE 'NO' EXIT IS TAKEN.        70596021
                                   11982 *                                                                       70602021
                                   11983 *      THE CALLING SEQUENCE IS...                                       70608021
                                   11984 *                                                                       70614021
                                   11985 *      BAL     RCS,ISATND                                               70620021
                                   11986 *      (NO EXIT)       WITH ERROR MESSAGE ALREADY ISSUED                70626021
                                   11987 *      (YES EXIT)                                                       70632021
                                   11988 *                                                                       70638021
                                   11989 *** SUBROUTINES CALLED                                                  70644021
                                   11990 *      GETNXT,NEWNXT,ISNXTS,ERROR                                       70650021
                                   11991 *                                                                       70656021
                                   11992 *                                                                       70662021
                             06D50 11993 ISATND EQU     *                                                        70668021
 006D50 50E0 B30C      08BBC       11994        ST      RCS,SVISIZ          SHARE ISIZER REG SV AREA             70674021
1PH40     IKFCBL40                                                                                              PAGE  249
-  LOC  OBJECT CODE    ADDR1 ADDR2  STMT   SOURCE STATEMENT                                       ASM 0201 11.03 02/14/15
0006D54 D501 C000 A4EE 0988B 081E6 11995          CLC   GOTTEN(LX2),CBAT     IS IT 'AT'...                       70680021
 006D5A 4770 8DAA      06D62       11996        BC      NOTEQ,ISATN1         NO, OPTIONAL WORD ANYWAY            70686021
 006D5E 45E0 7566      0551E       11997        BAL     RCS,GETNXT          DISCARD 'AT'                         70692021
 006D62 D501 C000 A4F6 0988B 081EE 11998 ISATN1   CLC   GOTTEN(LX2),CBEND    IS IT 'END'...                      70698021
 006D68 4770 8DFC      06DB4       11999        BC      NOTEQ,ISATE1         NO, GO ISSUE ERROR MESSAGE          70704021
 006D6C 45E0 7566      0551E       12000        BAL     RCS,GETNXT          DISCARD 'END'                        70710021
 006D70 45E0 8C82      06C3A       12001        BAL     RCS,ISNXTS         DOES NEXT SENTENCE FOLLOW             70716021
 006D74 47F0 8DCE      06D86       12002        BC      UNCOND,ISATN4        NO                                  70722021
 006D78 45E0 9BDA      07A32       12003        BAL     RCS,ERROR           YES - ERROR                          70728021
 006D7C 4110 A1E6      07EDE       12004        LA      RW1,ELST4B                                               70734021
                             06D80 12005 ISATN5 EQU   *                                                          70740021
 006D80 58E0 B30C      08BBC       12006        L       RCS,SVISIZ           YES, IGNORE WHOLE CLAUSE            70746021
 006D84 07FE                       12007        BCR   UNCOND,RCS            TAKE 'NO' EXIT                       70752021
 006D86 45E0 9B3C      07994       12008 ISATN4 BAL   RCS,NEWNXT            SET UP NEXT SENTENCE GN              70758021
 006D8A D201 BE02 BE18 096B2 096C8 12009          MVC   RGN+NX1(LX2),NXTSNT                                      70764021
 006D90 4140 BE01      096B1       12010        LA    RW4,RGN                                                    70770021
 006D94 952A BE57      09707       12011          CLI   VERB44+NX1,XX2A      IS VERB RETURN                      70776021
 006D98 4780 8DF4      06DAC       12012        BE    ISATN3              YES- DONT USE STO5 ROUTINES            70782021
 006D9C 45E0 8098      06050       12013        BAL   RCS,STO545            NO, STORE IN STRING                  70788021
 006DA0 45E0 8C54      06C0C       12014 ISATN2 BAL   RCS,ISTRUV           CHECK IF CONDITION ALLOWED            70794021
 006DA4 58E0 B30C      08BBC       12015        L       RCS,SVISIZ          RESTORE RCS                          70800021
 006DA8 47FE 0004      00004       12016          BC    UNCOND,DX4(RCS)      YES EXIT                            70806021
 006DAC 45E0 8000      05FB8       12017 ISATN3 BAL   RCS,STOR45             STORE GN IN STRING                  70812021
 006DB0 47F0 8DE8      06DA0       12018        BC    UNCOND,ISATN2         CHECK IF CONDITION ALLOWED           70818021
                             06DB4 12019 ISATE1 EQU   *                     9F                                   70824021
 006DB4 45E0 9BDA      07A32       12020        BAL   RCS,ERROR             WRITE ERROR MESSAGE                  70830021
 006DB8 4110 A1C8      07EC0       12021        LA      RW1,ELST46                                               70836021
 006DBC 47F0 8DC8      06D80       12022        BC    UNCOND,ISATN5         TAKE 'NO' EXIT                       70842021
-
                                   12024 *                                                                       70854021
                                   12025 *                                                                       70860021
                                   12026 *                           I S N I L                                   70866021
                                   12027 *                                                                       70872021
                                   12028 *                                                                       70878021
                                   12029 *      THIS ROUTINE DETERMINES WHETHER THE CURRENT INPUT UNIT IS        70884021
                                   12030 *      A POS. NUMERIC INTEGER LITERAL WHICH WILL FIT INTO 4 BYTES       70890021
                                   12031 *      AFTER CONVERSION TO BINARY SIGNED.                               70896021
                                   12032 *           THE CALLING SEQUENCE IS ...                                 70902021
                                   12033 *      BAL     RCS,ISNIL                                                70908021
                                   12034 *      (NO RETURN)                                                      70914021
                                   12035 *      (YES RETURN)                                                     70920021
                                   12036 *                                                                       70926021
                                   12037 *                                                                       70932021
 006DC0 90EF B3BC      08C6C       12038 ISNIL    STM   RCS,RAS,SVISNI                                           70938021
 006DC4 45E0 81AC      06164       12039        BAL     RCS,RDUCOP         IS IT DATA OPERAND                    70944021
 006DC8 47F0 8E46      06DFE       12040        BC      UNCOND,ISNIL1        NO                                  70950021
 006DCC 9532 C000      00000       12041          CLI   DX0(RIN),MNLIT      IS IT NUMLIT                         70956021
 006DD0 4770 8E50      06E08       12042        BC      NOTEQ,ISNIL2         DISCARD                             70962021
 006DD4 9500 C003      00003       12043          CLI   DX3(RIN),XX00       INTEGER                              70968021
 006DD8 4770 8E50      06E08       12044          BC    NOTEQ,ISNIL2         NO                                  70974021
 006DDC 1BFF                       12045          SR    RAS,RAS                                                  70980021
 006DDE 43FC 0001      00001       12046          IC    RAS,DX1(RIN)        RAS GETS BYTE-COUNT OF DEC. NUMBE    70986021
 006DE2 4BF0 A5A0      08298       12047          SH    RAS,N3               ITSELF (-1 FOR THE EX)              70992021
1PH40     IKFCBL40                                                                                              PAGE  250
-  LOC  OBJECT CODE    ADDR1 ADDR2  STMT   SOURCE STATEMENT                                       ASM 0201 11.03 02/14/15
0006DE6 44F0 8E5A      06E12       12048          EX    RAS,ISNIL4          IS IT GREATER THAN 0                 70998021
 006DEA 47B0 8E50      06E08       12049        BC      NOTLO,ISNIL2        NO                                   71004021
 006DEE 44F0 8E60      06E18       12050          EX    RAS,ISNIL6          IS IT GREATER THAN MAX CONTAINAB     71010021
 006DF2 4740 8E50      06E08       12051        BC      LO,ISNIL2           YES                                  71016021
 006DF6 98EF B3BC      08C6C       12052          LM    RCS,RAS,SVISNI                                           71022021
 006DFA 47FE 0004      00004       12053          BC    UNCOND,DX4(RCS)          EXIT OK                         71028021
 006DFE D501 C000 A52C 0988B 08224 12054 ISNIL1   CLC   GOTTEN(LX2),ERSYMB    DISCARD ERROR SYMBOL               71034021
 006E04 4770 8E54      06E0C       12055        BC      NOTEQ,ISNIL3          BUT NOT OTHER NON-DATA OPERAND     71040021
 006E08 45E0 7566      0551E       12056 ISNIL2 BAL     RCS,GETNXT          GET NEXT ELEMENT                     71046021
 006E0C 98EF B3BC      08C6C       12057 ISNIL3 LM      RCS,RAS,SVISNI     EXIT NEG,0,TOO BIG, OR NOT INTG       71052021
 006E10 07FE                       12058          BCR   UNCOND,RCS              EXIT NEG,0,TOO BIG,OR NOT IN     71058021
                                   12059 *                                                                       71064021
 006E12 F900 A5CA C004 082C2 00004 12060 ISNIL4   CP    PAKZER(LX1),DX4(LX1,RIN)                                 71070021
 006E18 F950 A5C4 C004 082BC 00004 12061 ISNIL6   CP    ISNILM(LX6),DX4(LX1,RIN)                                 71076021
1PH40     IKFCBL40                                                                                              PAGE  251
-  LOC  OBJECT CODE    ADDR1 ADDR2  STMT   SOURCE STATEMENT                                       ASM 0201 11.03 02/14/15
0                                  12063 *                                                                       71088021
                                   12064 *                                                                       71094021
                                   12065 *                                    I S O K S C                        71100021
                                   12066 *                                                                       71106021
                                   12067 *                                                                       71112021
                                   12068 *                                                                       71118021
                                   12069 *      THIS ROUTINE TESTS WHETHER OPERAND OF A PROCEDURE                71124021
                                   12070 *      BRANCHING STATEMENT IS IN ALLOWABLE SECTION.                     71130021
                                   12071 *                                                                       71136021
                                   12072 *                                                                       71142021
                                   12073 *      BAL     RCS,ISOKSC     (OR BAL    RCS,ISSC06 FOR PERFORM)        71148021
                                   12074 *      (RETURN)        WITH WARNING ISSUED IF ILLEGAL                   71154021
                                   12075 *                                                                       71160021
                                   12076 *                                                                       71166021
                                   12077 *** SUBROUTINES CALLED                                                  71172021
                                   12078 *      ERROR                                                            71178021
                                   12079 *                                                                       71184021
                                   12080 *                                                                       71190021
                             06E1E 12081 ISOKSC EQU     *                                                        71196021
                                   12082 *                                                                       71202021
                                   12083 *                          SPECIAL RESTRICTIONS FOR GO                  71208021
                                   12084 *                                                                       71214021
 006E1E 9507 BF62      09812       12085        CLI     PGMBRK,MDECL       (CAN'T TELL EXCEPT WITHIN DECL IT     71220021
 006E22 077E                       12086        BCR   NOTEQ,RCS             NO - EXIT                            71226021
 006E24 9105 BD41      095F1       12087          TM    SAVLHN+NX3,MLABRP   ARE WE IN A LABEL OR RPT DECL        71232021
 006E28 078E                       12088        BCR   ZERO,RCS              NO - EXIT                            71238021
 006E2A D501 BD46 C004 095F6 00004 12089          CLC   NXTSN(LX2),DX4(RIN)  IS PN DEFINED IN A LATER SECTION    71244021
 006E30 4740 8E84      06E3C       12090        BC      LO,ISSC04          YES                                   71250021
 006E34 D501 BD4A C004 095FA 00004 12091          CLC   THISSN(LX2),DX4(RIN)   OR IN A PREVIOUS SECTION          71256021
 006E3A 07DE                       12092        BCR   NOTHI,RCS             EXIT                                 71262021
                                   12093 *                                                                       71268021
                                   12094 *      IS PN A DUMMY (IF SO, STATEMENT IS COMPILER-CREATED AND OK)      71274021
                                   12095 *                                                                       71280021
 006E3C 9120 C003      00003       12096 ISSC04   TM    DX3(RIN),MDUMBT      IS IT A DUMMY NAME                  71286021
 006E40 471E 0004      00004       12097          BC    ONES,DX4(RCS)        YES, OK                             71292021
                                   12098 *                                                                       71298021
                             06E44 12099 ISERSC EQU     *                                                        71304021
                                   12100 *                                                                       71310021
 006E44 50E0 B4A0      08D50       12101        ST      RCS,SVOKSC                                               71316021
 006E48 45E0 9BDA      07A32       12102        BAL     RCS,ERROR           WRITE ERROR MESSAGE                  71322021
 006E4C 4110 A063      07D5B       12103        LA      RW1,ELST10          PN IS IN NOT ALLOWABLE SECTION       71328021
 006E50 58E0 B4A0      08D50       12104        L       RCS,SVOKSC                                               71334021
 006E54 07FE                       12105        BCR     UNCOND,RCS          RETURN                               71340021
                                   12106 *                                                                       71346021
                                   12107 *                          RPD'S MUST BE ALIKE FOR ALL VERBS            71352021
                                   12108 *                                                                       71358021
1PH40     IKFCBL40                                                                                              PAGE  252
-  LOC  OBJECT CODE    ADDR1 ADDR2  STMT   SOURCE STATEMENT                                       ASM 0201 11.03 02/14/15
0006E58                            12110 IKF403 CSECT                                                            71370021
                             06E58 12111 COMON3 EQU     *                                                        71376021
                                   12112 *                                                                       71382021
                                   12113 *                                                                       71388021
                                   12114 *                           I S O K M V                                 71394021
                                   12115 *                                                                       71400021
                                   12116 *      CALLED BY MOVE, READ, WRITE, AND REWRITE ANALYZERS TO DETERM     71406021
                                   12117 *        WHETHER SOURCE AND TARGET FIELDS IN MOVE ARE COMPATIBLE        71412021
                                   12118 *                                                                       71418021
                                   12119 *                                                                       71424021
                                   12120 *                  BAL     RCS,ISOKMV                                   71430021
                                   12121 *                  (RETURN NO)       ERROR MESSAGE ALREADY ISSUED       71436021
                                   12122 *                  (RETURN, YES)                                        71442021
                                   12123 *                                                                       71448021
                                   12124 *                                                                       71454021
                                   12125 *** SUBROUTINES CALLED                                                  71460021
                                   12126 *      GETNXT,ISINTG,ERROR                                              71466021
                                   12127 *                                                                       71472021
                                   12128 *                                                                       71478021
                                   12129 *** NOTES                                                               71484021
                                   12130 *      CALLING ROUTINE HAS PLACED SOURCE FIELD AT PLEFT AND TARGET      71490021
                                   12131 *        AT PRIGHTAND THEIR 2-BYTE 'MODES' AT MODEL AND MODER,          71496021
                                   12132 *        RESPECTIVELY.                                                  71502021
                                   12133 *      SEE COMMENTS ON GETMOD ROUTINE FOR MEANING OF CONFIGURATIONS     71508021
                                   12134 *                                                                       71514021
                                   12135 *                                                                       71520021
                             06E58 12136 ISOKMV EQU     *                                                        71526021
 006E58 90EF B4A4      08D54       12137        STM     RCS,RAS,SVOKMV                                           71532021
 006E5C 94FE BFCC      0987C       12138        NI    CLEVMSG,MSWOFF       INIT MSG SW OFF                       71538021
 006E60 41F0 A156      07E4E       12139        LA      RAS,ELST34         SET RAS TO MSG FOR ISOKM8             71544021
 006E64 9501 B677      08F27       12140          CLI   MODER+NX1,MB1        IS OP2 DN MODE IS 1 OR 4            71550021
 006E68 4780 90D4      06F2C       12141        BC      EQ,ISOKMC           OP2 DN IS A GROUP FIXED, OK          71556021
 006E6C 9504 B677      08F27       12142          CLI   MODER+NX1,MB4                                            71562021
 006E70 4780 90D4      06F2C       12143        BC      EQ,ISOKMC           OP2 DN IS A GROUP VARIABLE           71568021
 006E74 9501 B5F9      08EA9       12144          CLI   MODEL+NX1,MB1  IS OP1 GROUP FIXED                        71574021
 006E78 4780 90D4      06F2C       12145        BE    ISOKMC          OK                                         71580021
 006E7C 9504 B5F9      08EA9       12146          CLI   MODEL+NX1,MB4 IS OP1 GROUP VAR                           71586021
 006E80 4780 90D4      06F2C       12147        BE    ISOKMC          OK                                         71592021
 006E84 D501 B5F8 BF60 08EA8 09810 12148          CLC   MODEL(LX2),MANDNM IS OP1 ALPHNUMERIC DNM                 71598021
 006E8A 4780 90D4      06F2C       12149        BE    ISOKMC          YES- OK MOVE                               71604021
 006E8E 9505 B677      08F27       12150          CLI   MODER+NX1,MB5        IS OP2 DN MODE IN 5 TO 13 SCOPE     71610021
 006E92 47B0 9052      06EAA       12151        BC      NOTLO,ISOKM2        YES                                  71616021
 006E96 9503 B677      08F27       12152          CLI   MODER+NX1,MB3   IS OP2 DN AN ALPHANUMERIC                71622021
 006E9A 4780 905E      06EB6       12153        BC      EQ,ISOKM4           YES                                  71628021
 006E9E 9502 B677      08F27       12154          CLI   MODER+NX1,MB2        IS OP2 DN AN ALPHABETIC             71634021
 006EA2 4780 90A2      06EFA       12155        BC      EQ,ISOKM6           YES                                  71640021
 006EA6 4770 90AA      06F02       12156        BC      NOTEQ,ISOKM8        INVALID DN                           71646021
 006EAA 950D B677      08F27       12157 ISOKM2   CLI   MODER+NX1,MB13    ****  STERLING NON REPORT IS INCLUD    71652021
 006EAE 47D0 90C8      06F20       12158        BC      NOTHI,ISOKMA        OP2 DN IS A NUMERIC OR REPORT        71658021
 006EB2 47F0 908E      06EE6       12159        BC    UNCOND,ISOKM5   SEE IF OP2 ANE                             71664021
 006EB6 41F0 A246      07F3E       12160 ISOKM4 LA      RAS,ELST59         SET RAS TO WARNING 59 IF TARGET I     71670021
 006EBA 9120 B5F8      08EA8       12161        TM      MODEL,MB32        IS OP1 AN,AL,GR,ZERO,SPACE,FIGCON,     71676021
 006EBE 4710 90D4      06F2C       12162        BC      ONES,ISOKMC         YES, OK                              71682021
 006EC2 9508 B5F9      08EA9       12163          CLI   MODEL+NX1,MB8        IS OP1 EXT DEC DN                   71688021
 006EC6 4780 90DC      06F34       12164        BC      EQ,ISOKME           YES                                  71694021
1PH40     IKFCBL40                                                                                              PAGE  253
-  LOC  OBJECT CODE    ADDR1 ADDR2  STMT   SOURCE STATEMENT                                       ASM 0201 11.03 02/14/15
0006ECA 950B B5F9      08EA9       12165          CLI   MODEL+NX1,MB11       IS OP1 BIN DN                       71700021
 006ECE 4780 90DC      06F34       12166        BC      EQ,ISOKME           YES                                  71706021
 006ED2 950C B5F9      08EA9       12167          CLI   MODEL+NX1,MB12       IS OP1 INT DEC DN                   71712021
 006ED6 4780 90DC      06F34       12168        BC      EQ,ISOKME           YES                                  71718021
 006EDA 950D B5F9      08EA9       12169          CLI   MODEL+NX1,MSNMOD    IS OP1 ST-NON-RPT                    71724021
 006EDE 4780 90D4      06F2C       12170        BC      EQ,ISOKMC           YES - OK                             71730021
 006EE2 47F0 90AA      06F02       12171        BC      UNCOND,ISOKM8       INVALID DN                           71736021
 006EE6 950E B677      08F27       12172 ISOKM5   CLI   MODER+NX1,MB14 IS OP2 ANE                                71742021
 006EEA 4770 90AA      06F02       12173        BC    NOTEQ,ISOKM8    INVALID OP                                 71748021
 006EEE 950D B5F9      08EA9       12174          CLI   MODEL+NX1,MB13 IS OP1 ST-NON-RPT                         71754021
 006EF2 4780 90AA      06F02       12175        BC    EQ,ISOKM8             YES                                  71760021
 006EF6 47F0 905E      06EB6       12176        B     ISOKM4                NO                                   71766021
 006EFA 9140 B5F8      08EA8       12177 ISOKM6 TM    MODEL,MB64    OP1 GR,AL,AN,SPACE,ALL LETTER                71772021
 006EFE 4710 90D4      06F2C       12178        BC    ONES,ISOKMC     YES-OK                                     71778021
                             06F02 12179 ISOKM8 EQU     *                                                        71784021
 006F02 45E0 9BDA      07A32       12180        BAL     RCS,ERROR           WRITE ERROR MESSAGE                  71790021
 006F06 411F 0000      00000       12181          LA    RW1,DX0(RAS)                                             71796021
 006F0A 98EF B4A4      08D54       12182        LM      RCS,RAS,SVOKMV                                           71802021
 006F0E 9101 BFCC      0987C       12183        TM    CLEVMSG,MSWON    WAS C-LEVEL MSG ISSUED                    71808021
 006F12 471E 0004      00004       12184          BC    ONES,DX4(RCS)  EXIT OK                                   71814021
 006F16 9503 B677      08F27       12185          CLI   MODER+NX1,MB3       WAS OP2 AN                           71820021
 006F1A 077E                       12186        BCR     NOTEQ,RCS           NO - EXIT                            71826021
 006F1C 47FE 0004      00004       12187          BC    UNCOND,DX4(RCS)       YES - EXIT OK AFTER WARNING        71832021
 006F20 9180 B5F8      08EA8       12188 ISOKMA TM      MODEL,MB128         IS OP1 ZERO OR NUMERIC               71838021
 006F24 4710 90D4      06F2C       12189        BC      ONES,ISOKMC         YES                                  71844021
 006F28 47F0 90F4      06F4C       12190        BC    UNCOND,ISOKMF   SEE IF FIGCON OR AN LIT                    71850021
 006F2C 98EF B4A4      08D54       12191 ISOKMC LM      RCS,RAS,SVOKMV                                           71856021
 006F30 47FE 0004      00004       12192          BC    UNCOND,DX4(RCS)      OK EXIT                             71862021
 006F34 D201 BE64 B5F8 09714 08EA8 12193 ISOKME   MVC   MODE(LX2),MODEL      OP1 EITHER EXT DEC, BIN OR INT D    71868021
 006F3A D200 BE66 B5F7 09716 08EA7 12194          MVC   DCURR(LX1),DMAXL                                         71874021
 006F40 45E0 8B64      06B1C       12195        BAL     RCS,ISINT2          TEST OP1, IS IT AN INTEGER           71880021
 006F44 47F0 911A      06F72       12196          B     ISOKMH1             SET CLEVMSG BEFORE GEN EMSG    53551 71886021
 006F48 47F0 90D4      06F2C       12197        BC      UNCOND,ISOKMC       YES, IT IS AN INTEGER                71892021
 006F4C 9523 B5F8      08EA8       12198 ISOKMF CLI   MODEL,MB35      FIGCON AN OR NUM                           71898021
 006F50 4780 9122      06F7A       12199        BE    ISOKMG          EITHER ONE-FIND OUT WHICH                  71904021
 006F54 9575 B57C      08E2C       12200        CLI   PLEFT,MFGCON    IS OP1 ALL LETT%ER OR SPACES               71910021
 006F58 4780 9116      06F6E       12201        BE    ISOKMH          YES- SUBSTITUTE ZERO FOR INVALID OPS       71916021
 006F5C 9534 B57C      08E2C       12202        CLI   PLEFT,MALIT     OP1 ALPHANUMERIC LITERAL                   71922021
 006F60 4780 914E      06FA6       12203        BE    ISOKMI                YES                                  71928021
 006F64 D500 B57C BD58 08E2C 09608 12204          CLC   PLEFT(LX1),ALLGT1  POSSIBLY ALL LETTERS                  71934021
 006F6A 4770 90AA      06F02       12205        BNE   ISOKM8          NO-ERROR                                   71940021
 006F6E 41F0 A117      07E0F       12206 ISOKMH LA    RAS,ELST2C      ISSUE C-LEVEL MSG SUBSTIT F0               71946021
 006F72                            12207 ISOKMH1  DS    0H                                                 53551 71952021
 006F72 9601 BFCC      0987C       12208        OI     CLEVMSG,MSWON                                             71958021
 006F76 47F0 90AA      06F02       12209        B     ISOKM8                GO TO ERROR                          71964021
 006F7A 9508 B5F9      08EA9       12210 ISOKMG   CLI   MODEL+NX1,MB8 IS IT ALL NUMERICS                         71970021
 006F7E 4770 9116      06F6E       12211        BNE   ISOKMH                NO                                   71976021
 006F82 9509 B677      08F27       12212 ISOKMM   CLI   MODER+NX1,XX09   MAKE SURE REC NOT FL PT                 71982021
 006F86 4780 9116      06F6E       12213        BE    ISOKMH                YES - ERROR                          71988021
 006F8A 950A B677      08F27       12214          CLI   MODER+NX1,XX0A                                           71994021
 006F8E 4780 9116      06F6E       12215        BE    ISOKMH                YES - ERROR                          72000021
 006F92 9506 B677      08F27       12216          CLI   MODER+NX1,XX06      CHECK FOR OP2 STERLING               72006021
 006F96 4780 9116      06F6E       12217        BE    ISOKMH                YES - ERROR                          72012021
 006F9A 950D B677      08F27       12218          CLI   MODER+NX1,MB13                                           72018021
 006F9E 4780 9116      06F6E       12219        BE    ISOKMH                YES - ERROR                          72024021
1PH40     IKFCBL40                                                                                              PAGE  254
-  LOC  OBJECT CODE    ADDR1 ADDR2  STMT   SOURCE STATEMENT                                       ASM 0201 11.03 02/14/15
0006FA2 47F0 90D4      06F2C       12220        B     ISOKMC                OK - GO TO EXIT                      72030021
 006FA6 9601 BFC8      09878       12221 ISOKMI OI    OKMVSW,MSWON          SIGNAL TO ISDTOP-SPEC CASE           72036021
 006FAA 41C0 B57C      08E2C       12222        LA    RIN,PLEFT             POINT RIN TO AN LIT                  72042021
 006FAE 45E0 88C0      06878       12223        BAL   RCS,ISDTOP            CHECK IF DATA OPERAND                72048021
 006FB2 47F0 915E      06FB6       12224        B    ISOKMJ                 GO TO RESTORE RIN                    72054021
 006FB6 41C0 BAF4      093A4       12225 ISOKMJ LA    RIN,CURENT      RESTORE RIN                                72060021
 006FBA 94FE BFC8      09878       12226        NI    OKMVSW,MSWOFF                                              72066021
 006FBE 9508 BE65      09715       12227          CLI   MODE+NX1,MB8   WERE ALL BYTES FOUND TO BE NUMERIC        72072021
 006FC2 4780 912A      06F82       12228        BE    ISOKMM         YES- OK                                     72078021
 006FC6 47F0 9116      06F6E       12229        B      ISOKMH       NO- SUBSTITUTE ZERO                          72084021
                                   12230 *                                                                       72090021
                                   12231 *                           I S S O R K                                 72096021
                                   12232 *                                                                       72102021
                                   12233 *      BAL     RCS,ISSORK                                               72108021
                                   12234 *      (RETURN NOT VALID)                                               72114021
                                   12235 *      (RETURN OK)                                                      72120021
                                   12236 *                                                                       72126021
                                   12237 *                                                                       72132021
                                   12238 * THIS SR CHECKS VALIDITY OF SORT KEYS                                  72138021
                                   12239 *                                                                       72144021
                                   12240 *                                                                       72150021
 006FCA 50E0 B3C8      08C78       12241 ISSORK   ST    RCS,SVSO14                                               72156021
 006FCE 45E0 81AC      06164       12242          BAL   RCS,RDUCOP         IS IT DATA-NAME                       72162021
 006FD2 47F0 919E      06FF6       12243          BC    UNCOND,ISORK2        NO                                  72168021
 006FD6 9530 C000      00000       12244          CLI   DX0(RIN),MDN                                             72174021
 006FDA 4770 919E      06FF6       12245          BC    NOTEQ,ISORK2         NO                                  72180021
 006FDE 910E C002      00002       12246        TM      DX2(RIN),XX0E  DEFINED UNDER SD                          72186021
 006FE2 4770 919E      06FF6       12247        BNZ     ISORK2         NO                                        72192021
 006FE6 9101 C002      00002       12248        TM      DX2(RIN),XX01  DEFINED UNDER SD                          72198021
 006FEA 4780 919E      06FF6       12249        BZ      ISORK2         NO                                        72204021
 006FEE 58E0 B3C8      08C78       12250          L     RCS,SVSO14           NO - ALL OK                         72210021
 006FF2 47FE 0004      00004       12251          BC    UNCOND,DX4(RCS)           OK EXIT                        72216021
 006FF6 58E0 B3C8      08C78       12252 ISORK2 L       RCS,SVSO14                                               72222021
 006FFA 07FE                       12253          BCR   UNCOND,RCS               NOT-OK EXIT                     72228021
-
0
                                   12255 *                                                                       72240021
                                   12256 *                           I S I T X N                                 72246021
                                   12257 *                                                                       72252021
                                   12258 *                                                                       72258021
                                   12259 * DETERMINES WHETHER CURR UNIT IS AN EX.NAME                            72264021
                                   12260 *      (AN LIT OF MAX SIZE 8)                                           72270021
                                   12261 *                                                                       72276021
                                   12262 *                                                                       72282021
                                   12263 *      BAL     RCS,ISITXN                                               72288021
                                   12264 *      (NO RETURN)                                                      72294021
                                   12265 *      (YES RETURN)                                                     72300021
                                   12266 *                                                                       72306021
 006FFC 9534 C000      0988B       12267 ISITXN CLI     GOTTEN,MALIT                                             72312021
 007000 077E                       12268        BCR     NOTEQ,RCS           NOT AN LIT                           72318021
 007002 9508 C001      00001       12269          CLI   DX1(RIN),MB8        LONGER THAN 8 CHAR...                72324021
 007006 072E                       12270        BCR     HI,RCS              ERROR                                72330021
1PH40     IKFCBL40                                                                                              PAGE  255
-  LOC  OBJECT CODE    ADDR1 ADDR2  STMT   SOURCE STATEMENT                                       ASM 0201 11.03 02/14/15
0007008 47FE 0004      00004       12271          BC    UNCOND,DX4(RCS)     OK - EXIT                            72336021
1PH40     IKFCBL40                                                                                              PAGE  256
-  LOC  OBJECT CODE    ADDR1 ADDR2  STMT   SOURCE STATEMENT                                       ASM 0201 11.03 02/14/15
-
-
                                   12274 *=2            IF-COMPUTE ROUTINES                                      72354021
                                   12275 *******************************************************************     72360021
                                   12276 *                                                                       72366021
                                   12277 *                                                                       72372021
                                   12278 *                             P F I N D L                               72378021
                                   12279 *                                                                       72384021
                                   12280 *      BAL     RCS,PFINDL                                               72390021
                                   12281 *      (RETURN)                                                         72396021
                                   12282 *                                                                       72402021
                                   12283 *      CALLED BY IF                                                     72408021
                                   12284 *      EXAMINES PTRFLS FROM THE ENTRY AT PTRFLS+PLOW THRU THE ENTRY     72414021
                                   12285 *        AT PTRFLS+HILEV. (IF HAS SET PLOW TO REFLECT FALL-THRU OR      72420021
                                   12286 *        BYPASS SIDE OF TABLE AND THE TYPE OF TERMINATOR -- 'OR',       72426021
                                   12287 *        'AND', OR END.)                                                72432021
                                   12288 *                                                                       72438021
                                   12289 *** SUBROUTINES CALLED                                                  72444021
                                   12290 *      PUPLGN,INSERT,PACKTB                                             72450021
                                   12291 *                                                                       72456021
                                   12292 *                                                                       72462021
                                   12293 *** NOTES                                                               72468021
                                   12294 *  THE EFFECTIVE ADDRESS CALCULATED FROM PLOW IS                        72474021
                                   12295 *          START-OF-TABLE + PARENTHESIS-LEVEL * 5 +                     72480021
                                   12296 *                                                                       72486021
                                   12297 *      3  ON BYPASS, 1  ON FALL-THRU BRANCH FOR 'END'                   72492021
                                   12298 *      3             6                          'AND'                   72498021
                                   12299 *      1             3                          'OR'                    72504021
                                   12300 *      6             8                          'NOT AND'               72510021
                                   12301 *      3             6                          'NOT OR'                72516021
                                   12302 *                                                                       72522021
                                   12303 *                                                                       72528021
                                   12304 *        FOR BYPASS-BRANCHES,  THE 1ST NON-ZERO PTRFLS LABEL FOUND      72534021
                                   12305 *      IS LOCATED IN OR  ENTERED INTO PSHTBL AND GIVEN A MASTER-BIT     72540021
                                   12306 *      (INDICATING THAT ALL LABELS FOLLOWING IT IN PSHTBL UP TO THE     72546021
                                   12307 *      NEXT MASTER ARE EQU'D TO IT).  MOVES THIS LABEL TO PTRFLS +      72552021
                                   12308 *      PLOW + PRNLEV.  SEARCHES PSHTBL FOR ALL NON-ZERO LABELS          72558021
                                   12309 *      FOUND AT HIGHER PTRFLS LEVELS, REMOVES THEIR MASTER BITS AND     72564021
                                   12310 *      MOVES THEM AND NON-MASTERS FOLLOWING THEM ADJACENT TO THE NE     72570021
                                   12311 *      MASTER. ZEROES ALL PTRFLS LABELS PROCESSED EXCEPT THE NOW NE     72576021
                                   12312 *      MASTER.                                                          72582021
                                   12313 *                                                                       72588021
                                   12314 *        FOR FALL-THRU LABELS, GENERATES AS LGN'S ALL LABELS FOUND      72594021
                                   12315 *      PTRFLS AT OR AFTER PTRFLS + PLOW + PRNLEV. SEARCHES PSHTBL       72600021
                                   12316 *      FOR THESE LABELS,GENERATES ALL NON-MASTERS FOLLOWING UP TO N     72606021
                                   12317 *      MASTER IN PSHTBL.  ZEROES GENERATED LABELS FROM PTRFLS AND       72612021
                                   12318 *      PSHTBL.  AT EXIT CLOSES PSHTBL TO ELIMINATE ZEROED GAPS.         72618021
                                   12319 *                                                                       72624021
                                   12320 *      IF NO LABEL IS FOUND IN PTRFLS,AND FALL-THRU BRANCH IS SOUGH     72630021
                                   12321 *        JUST EXITS. IF BYPASS BRANCH IS SOUGHT,UPDATES LGN AND STO     72636021
                                   12322 *        IT AS A MASTER IN PTRFLS AND PSHTBL                            72642021
1PH40     IKFCBL40                                                                                              PAGE  257
-  LOC  OBJECT CODE    ADDR1 ADDR2  STMT   SOURCE STATEMENT                                       ASM 0201 11.03 02/14/15
0                                  12323 *                                                                       72648021
                                   12324 *      ON EXIT, BYPASS BRANCH IDENTIFIER IS IN DISPL. OF RGN            72654021
                                   12325 *                                                                       72660021
                                   12326 *                                                                       72666021
                                   12327 *      THIS PROCESS INSURES THAT THERE ARE NO DUPLICATIONS IN PSHTB     72672021
                                   12328 *      AND THAT NO MASTER IS EQU'D TO ANOTHER MASTER. WHEN LABELS A     72678021
                                   12329 *      MOVED FROM PSHTBL ('FIRST-IN-LAST-OUT'), NO FURTHER ANALYSIS     72684021
                                   12330 *      IS NEEDED. THE MASTER BIT STOPS THE PROCESS                      72690021
                                   12331 *                                                                       72696021
                                   12332 *                                                                       72702021
                                   12333 *        PTRFLS CONSISTS OF 5-BYTE ENTRIES,ONE FOR EACH PAREN LEVEL     72708021
                                   12334 *           BYTE 0=1  IF 'NOT' IS ACTIVE AT THIS LEVEL,0 OTHERWISE      72714021
                                   12335 *           BYTES 1-2 CONTAIN THE ID FOR 'FALL-THRU' BRANCH             72720021
                                   12336 *           BYTES 3-4   ..     .  .   .  'BYPASS'     ..                72726021
                                   12337 *                                                                       72732021
                                   12338 *      THE FIRST BYTE (NOT-INDICATOR) IS IRRELEVANT FOR PFINDL          72738021
                                   12339 *                                                                       72744021
                                   12340 *        PSHTBL CONSISTS OF 3-BYTE ENTRIES                              72750021
                                   12341 *           BYTE 0=16 FOR A MASTER LABEL, 0 OTHERWISE                   72756021
                                   12342 *           BYTES 1-2 CONTAIN THE BRANCH ID                             72762021
                                   12343 *                                                                       72768021
                                   12344 *                                                                       72774021
                                   12345 *      IF TURNS IFBYPS ON WHEN BYPASS LABELS ARE TO BE PROCESSED        72780021
                                   12346 *                      OFF  .  FALLTHRU  .    .  .  .  .                72786021
                                   12347 *                                                                       72792021
                                   12348 *******************************************************************     72798021
-
-
                             0700C 12350 PFINDL   EQU   *                                                        72810021
 00700C 90E6 B280      08B30       12351        STM     RCS,RW6,SVPFND                                           72816021
                                   12352 *                                                                       72822021
                                   12353 *                        INITIALIZE INDEXES                             72828021
                                   12354 *                                                                       72834021
 007010 4830 BE88      09738       12355          LH    RW3,PLOW                                                 72840021
 007014 4A30 BE7C      0972C       12356        AH      RW3,PRNLEV                                               72846021
 007018 4840 BE7E      0972E       12357          LH    RW4,HILEV                                                72852021
 00701C 5810 B080      08930       12358          L     RW1,APTFLS                  ( T1B OF PTRFLS)             72858021
 007020 5811 0000      00000       12359          L     RW1,DX0(RW1)                 (TAMM OF PTRFLS)            72864021
 007024 5811 0000      00000       12360          L     RW1,DX0(RW1)                 (STARTING ADDR. OF TABLE    72870021
 007028 4111 0000      00000       12361          LA    RW1,DX0(RW1)        ZERO 1ST BYTE FOR LATER CR INSTR.    72876021
 00702C 1A31                       12362          AR    RW3,RW1        RW3  HOLDS ADDR. OF 1ST ENTRY TO CONS     72882021
 00702E 1853                       12363          LR    RW5,RW3        RW5 STARTS AT .  .   .    .   .    .      72888021
 007030 1A41                       12364          AR    RW4,RW1        RW4  HOLDS  .    . LAST   .    .    .     72894021
 007032 4144 0003      00003       12365          LA    RW4,DX3(RW4)        POINT TO 2ND OF LABELS AT HILEV      72900021
 007036 5820 B088      08938       12366          L     RW2,APUSH                    (T1B OF PSHTBL)             72906021
 00703A 5822 0000      00000       12367          L     RW2,DX0(RW2)                 (TAMM OF PSHTBL)            72912021
 00703E 5812 0000      00000       12368          L     RW1,DX0(RW2)    RW1  HOLDS ADDR. OF START OF PSHTBL      72918021
 007042 4111 0000      00000       12369          LA    RW1,DX0(RW1)        ZERO 1ST BYTE FOR LATER CR INSTR.    72924021
 007046 4822 0004      00004       12370          LH    RW2,DX4(RW2)                                             72930021
 00704A 1A21                       12371          AR    RW2,RW1        RW2    .     .   .  NEXT ENTRY FOR PS     72936021
 00704C 47F0 9202      0705A       12372        BC      UNCOND,PFND4        CHECK IF ZERO ENTRY                  72942021
1PH40     IKFCBL40                                                                                              PAGE  258
-  LOC  OBJECT CODE    ADDR1 ADDR2  STMT   SOURCE STATEMENT                                       ASM 0201 11.03 02/14/15
0                                  12373 *                                                                       72948021
                                   12374 *      FIND FIRST NON-ZERO PTRFLS ENTRY ON SIDE IN QUESTION             72954021
                                   12375 *                                                                       72960021
 007050 4155 0005      00005       12376 PFND2    LA    RW5,DX5(RW5)                                             72966021
 007054 1954                       12377        CR      RW5,RW4            HAVE ALL ENTRIES BEEN EXAMINED        72972021
 007056 4720 9210      07068       12378        BC      HI,PFND6             YES                                 72978021
 00705A D501 5000 A598 00000 08290 12379 PFND4    CLC   DX0(LX2,RW5),N0      IS ENTRY 0                          72984021
 007060 4780 91F8      07050       12380        BC      EQ,PFND2           YES - LOOK AT NEXT                    72990021
 007064 47F0 924C      070A4       12381        BC      UNCOND,PFND14      NO - GO PROCESS                       72996021
                                   12382 *                                                                       73002021
                                   12383 *              ALL PTRFLS ENTRIES HAVE BEEN EXAMINED                    73008021
                                   12384 *                                                                       73014021
 007068 9101 BF72      09822       12385 PFND6  TM      IFBYPS,MSWON       WAS BYPASS BRANCH SOUGHT              73020021
 00706C 4710 9220      07078       12386        BC      ONES,PFND8         YES                                   73026021
 007070 45E0 9354      071AC       12387        BAL     RCS,PAKPSH         NO - ELIMINATE ZEROES FROM PSHTBL     73032021
 007074 47F0 9234      0708C       12388        BC      UNCOND,PFND10        EXIT                                73038021
 007078 D501 3000 A598 00000 08290 12389 PFND8    CLC   DX0(LX2,RW3),N0      WAS MASTER BYPASS FOUND             73044021
 00707E 4780 923A      07092       12390        BC      EQ,PFND12            NO - GO CREATE IT                   73050021
 007082 D201 BE02 3000 096B2 00000 12391          MVC   RGN+NX1(LX2),DX0(RW3) YES - MOVE ITS ID TO RGN FOR STRIN 73056021
 007088 94FE BF72      09822       12392        NI      IFBYPS,MSWOFF      SW OFF FOR NEXT TIME THRU             73062021
 00708C 98E6 B280      08B30       12393 PFND10 LM      RCS,RW6,SVPFND       EXIT                                73068021
 007090 07FE                       12394        BCR     UNCOND,RCS          EXIT                                 73074021
                                   12395 *                                                                       73080021
                                   12396 *           NO MASTER BYPASS LABELS WAS FOUND.  CREATE IT               73086021
                                   12397 *                                                                       73092021
 007092 4B50 A5A4      0829C       12398 PFND12 SH      RW5,N5             POINT TO LAST PTRFLS ENTRY            73098021
 007096 45E0 9A72      078CA       12399        BAL     RCS,PUPLGN         GET NEW LGN ID                        73104021
 00709A D201 5000 BE1C 00000 096CC 12400          MVC   DX0(LX2,RW5),NXTLGN  STORE IN LAST PTRFLS ENTRY AND TR   73110021
 0070A0 47F0 9254      070AC       12401        BC      UNCOND,PFND15             AS IF NORMAL                   73116021
                                   12402 *                                                                       73122021
                                   12403 *              NON-ZERO PTRFLS ENTRY FOUND                              73128021
                                   12404 *                                                                       73134021
 0070A4 9101 BF72      09822       12405 PFND14 TM      IFBYPS,MSWON       IS BYPASS SOUGHT                      73140021
 0070A8 4780 92CA      07122       12406        BC      ZERO,PFND28     NO                                       73146021
 0070AC D501 3000 A598 00000 08290 12407 PFND15   CLC   DX0(LX2,RW3),N0        YES -- DOES LOWEST ENTRY YET HA   73152021
 0070B2 4780 9268      070C0       12408        BC      EQ,PFND16            NO                 /MASTER          73158021
 0070B6 1935                       12409        CR      RW3,RW5            YES - IS CURRENT ENTRY 1ST BEING      73164021
 0070B8 4770 92CA      07122       12410        BC      NOTEQ,PFND28         NO                     /CONSIDE     73170021
 0070BC 4780 9274      070CC       12411        BC      EQ,PFND18             YES- MAKE IT MASTER BUT AVOID      73176021
                                   12412 *                                       ZEROING IT OUT OF PTRFLS        73182021
                                   12413 *                                                                       73188021
                                   12414 *                                                                       73194021
                                   12415 *      LOWEST NON-ZERO LABEL FOUND IN PTRFLS. MAKE IT MASTER FOR        73200021
                                   12416 *              THIS GROUP.  LOCATE IT OR INSERT IT IN PSHTBL            73206021
                                   12417 *              AND GET PSHTBL ADDRESS FOR ITS EQU'S                     73212021
                                   12418 *                                                                       73218021
 0070C0 D201 3000 5000 00000 00000 12419 PFND16   MVC   DX0(LX2,RW3),DX0(RW5) MOVE MASTER TO LOWEST PTRFLS SPOT  73224021
 0070C6 D701 5000 5000 00000 00000 12420          XC    DX0(LX2,RW5),DX0(RW5) ZERO NON-LOWEST ENTRY              73230021
                             070CC 12421 PFND18 EQU     *                                                        73236021
 0070CC 1912                       12422        CR      RW1,RW2             IS PSHTBL EXHAUSTED                  73242021
 0070CE 47B0 928C      070E4       12423        BC      NOTLO,PFND19         YES                                 73248021
 0070D2 D501 3000 1001 00000 00001 12424          CLC   DX0(LX2,RW3),DX1(RW1)  NO - DOES IT = NEXT PSHTBL ENTR   73254021
                                   12425 *                                   IS ALWAYS LEFT POINTING AT NEXT     73260021
 0070D8 4780 92BE      07116       12426        BC      EQ,PFND20            YES                                 73266021
 0070DC 4111 0003      00003       12427          LA    RW1,DX3(RW1)        POINT RW1 TO NEXT PSHTBL ENTRY       73272021
1PH40     IKFCBL40                                                                                              PAGE  259
-  LOC  OBJECT CODE    ADDR1 ADDR2  STMT   SOURCE STATEMENT                                       ASM 0201 11.03 02/14/15
00070E0 47F0 9274      070CC       12428        BC      UNCOND,PFND18            RETURN FOR NEXT                 73278021
                             070E4 12429 PFND19 EQU     *                                                        73284021
 0070E4 90F3 B2A4      08B54       12430        STM     RAS,RW3,SVPFN2     YES - INSERT AT END OF PSHTBL         73290021
 0070E8 5810 B088      08938       12431        L       RW1,APUSH                                                73296021
 0070EC 58F0 A314      0800C       12432        L       RAS,ANSERT                                               73302021
 0070F0 05EF                       12433        BALR    RCS,RAS            MAKE ROOM (TABLE MAY NOW MOVE IN      73308021
 0070F2 58F0 B2A4      08B54       12434        L       RAS,SVPFN2                                               73314021
 0070F6 4133 0003      00003       12435          LA    RW3,DX3(RW3)                                             73320021
 0070FA 4030 B08C      0893C       12436        STH     RW3,DSPUSH         UPDATE SAVED DISPL.                   73326021
 0070FE 5830 B2B4      08B64       12437          L     RW3,SVPFN2+NX16     RESTORE SOURCE ADDR. RW2 NOW HAS     73332021
 007102 D701 2000 2000 00000 00000 12438          XC    DX0(LX2,RW2),DX0(RW2)   TARGET ADDR. GIVEN BY INSERT     73338021
 007108 D201 2001 3000 00001 00000 12439          MVC   DX1(LX2,RW2),DX0(RW3) MOVE PTRFLS MASTER TO PSHTBL       73344021
 00710E 4112 0000      00000       12440          LA    RW1,DX0(RW2)        REINIT. RW1 TO LAST ENTRY IN PSHT    73350021
 007112 4122 0003      00003       12441          LA    RW2,DX3(RW2)        UPDATE POINTER TO END OF PSHTBL      73356021
 007116 9610 1000      00000       12442 PFND20   OI    DX0(RW1),MASTER     GIVE MASTER BIT TO PSHTBL ENTRY      73362021
 00711A 4161 0003      00003       12443          LA    RW6,DX3(RW1)        POINT RW6 TO SPOT FOR 1ST EQU        73368021
 00711E 47F0 91F8      07050       12444        BC      UNCOND,PFND2       RETURN FOR NEXT PTRFLS ENTRY          73374021
                                   12445 *                                                                       73380021
                                   12446 *                                                                       73386021
                                   12447 *      REARRANGE PSHTBL,DELETING FALL-THRU LABELS, MOVING MASTER        73392021
                                   12448 *        BYPASS LABELS TO FOLLOW FIRST MASTER OF THIS GROUP             73398021
                                   12449 *                                                                       73404021
                                   12450 *                                                                       73410021
 007122 D501 5000 1001 00000 00001 12451 PFND28   CLC   DX0(LX2,RW5),DX1(RW1) FIND THIS LABEL IN PSHTBL ( MUST   73416021
 007128 4780 92DC      07134       12452        BC      EQ,PFND29          THERE,BYPASS ALWAYS ENTERED)          73422021
 00712C 4111 0003      00003       12453          LA    RW1,DX3(RW1)        POINT RW1 AT NEXT                    73428021
 007130 47F0 92CA      07122       12454        BC      UNCOND,PFND28       GO TO FIND LABEL IN PSHTBL           73434021
                                   12455 *                                                                       73440021
 007134 9101 BF72      09822       12456 PFND29 TM      IFBYPS,MSWON       IS BYPASS SOUGHT                      73446021
 007138 4710 92F8      07150       12457        BC      ONES,PFND30         YES                                  73452021
 00713C D201 BDFF 1001 096AF 00001 12458          MVC   LGN+NX1(LX2),DX1(RW1)  NO - GENERATE THIS LABEL          73458021
 007142 45E0 7952      0590A       12459        BAL     RCS,GENLAB          GENERATE LABEL                       73464021
 007146 D702 1000 1000 00000 00000 12460          XC    DX0(LX3,RW1),DX0(RW1) ZERO IT IN PSHTBL                  73470021
 00714C 47F0 9312      0716A       12461        BC      UNCOND,PFND32      SEEK ITS EQU'S                        73476021
 007150 D700 1000 1000 00000 00000 12462 PFND30   XC    DX0(LX1,RW1),DX0(RW1) YES - ZERO MASTER BIT              73482021
 007156 D203 BE24 1000 096D4 00000 12463          MVC   TEMP(LX4),DX0(RW1)   SAVE IT TEMPORARILY                 73488021
 00715C 45E0 932E      07186       12464        BAL     RCS,OPENTB         MOVE UP LABELS FROM THE PLACE IT      73494021
                                   12465 *                                 WILL GO TO THE PLACE IT IS NOW        73500021
 007160 D202 6000 BE24 00000 096D4 12466          MVC   DX0(LX3,RW6),TEMP    MOVE IT INTO EQU SLOT               73506021
 007166 4166 0003      00003       12467          LA    RW6,DX3(RW6)        POINT RW6 AT NEXT EQU SLOT           73512021
 00716A 4111 0003      00003       12468 PFND32   LA    RW1,DX3(RW1)        POINT RW1 AT NEXT PSHTBL ENTRY       73518021
 00716E 1912                       12469        CR      RW1,RW2            IS PSHTBL EXHAUSTED                   73524021
 007170 4780 9324      0717C       12470        BC      EQ,PFND34          YES                                   73530021
 007174 9110 1000      00000       12471          TM    DX0(RW1),MASTER     IS NEXT ENTRY A MASTER               73536021
 007178 4780 92DC      07134       12472        BC      ZERO,PFND29        NO - PROCESS AS NEXT EQU              73542021
 00717C D701 5000 5000 00000 00000 12473 PFND34   XC    DX0(LX2,RW5),DX0(RW5) ZERO NON-LOWEST ENTRY              73548021
 007182 47F0 91F8      07050       12474        BC      UNCOND,PFND2        GO TO EXAMINE ENTRIES                73554021
                                   12475 *                                                                       73560021
                                   12476 *                                                                       73566021
                                   12477 *      ROUTINES USED BY PFINDL.  PUT HERE AS SUBROUTINES ONLY           73572021
                                   12478 *      FOR THE SAKE OF READABILITY, SINCE EACH IS CALLED ONLY ONCE      73578021
                                   12479 *                                                                       73584021
                                   12480 *      OPENTB MOVES PSHTBL ENTRIES 0(RW6) TO 0(RW1) DOWN ONE 3-BYTE     73590021
                                   12481 *           SLOT.  CURRENT ONE FROM 0(RW1) IS SAVED AT TEMP             73596021
                                   12482 *      PAKPSH ELIMINATES ZEROED ENTRIES FROM PSHTBL                     73602021
1PH40     IKFCBL40                                                                                              PAGE  260
-  LOC  OBJECT CODE    ADDR1 ADDR2  STMT   SOURCE STATEMENT                                       ASM 0201 11.03 02/14/15
0                                  12483 *                                                                       73608021
                                   12484 *                                                                       73614021
 007186 9045 B2A4      08B54       12485 OPENTB STM     RW4,RW5,SVPFN2                                           73620021
 00718A 1851                       12486        LR      RW5,RW1            RW5 HOLDS LAST RECEIVINF FIELD        73626021
 00718C 1845                       12487        LR      RW4,RW5                                                  73632021
 00718E 1B46                       12488        SR      RW4,RW6            RW4 GETS NUMBER OF BYTES TO MOVE      73638021
 007190 4780 934E      071A6       12489        BC      ZERO,OPNTB6         GO TO EXIT                           73644021
 007194 4B50 A5A0      08298       12490 OPNTB4 SH      RW5,N3                                                   73650021
 007198 D202 5003 5000 00003 00000 12491          MVC   DX3(LX3,RW5),DX0(RW5)                                    73656021
 00719E 4B40 A5A0      08298       12492        SH      RW4,N3             ARE ALL MOVED                         73662021
 0071A2 4770 933C      07194       12493        BC      NOTZER,OPNTB4         NO                                 73668021
 0071A6 9845 B2A4      08B54       12494 OPNTB6 LM      RW4,RW5,SVPFN2                                           73674021
 0071AA 07FE                       12495        BCR     UNCOND,RCS          EXIT                                 73680021
                                   12496 *                                                                       73686021
                                   12497 *                                                                       73692021
                             071AC 12498 PAKPSH EQU     *                                                        73698021
 0071AC 50E0 B4D4      08D84       12499        ST      RCS,SVPAKP                                               73704021
 0071B0 5810 B088      08938       12500        L       RW1,APUSH          RW1 KEEPS TIB ADDR.                   73710021
 0071B4 5831 0000      00000       12501          L     RW3,DX0(RW1)                                             73716021
 0071B8 5833 0000      00000       12502          L     RW3,DX0(RW3)                                             73722021
 0071BC 4133 0000      00000       12503          LA    RW3,DX0(RW3)        RW3 POINTS TO TABLE ENTRY            73728021
 0071C0 1843                       12504        LR      RW4,RW3            SAVE START IN RW4                     73734021
                                   12505 *                                                                       73740021
 0071C2 1932                       12506 PAKP2  CR      RW3,RW2            IS TABLE EXHAUSTED                    73746021
 0071C4 47B0 9382      071DA       12507        BC      NOTLO,PAKP4           YES                                73752021
 0071C8 D501 3001 A598 00001 08290 12508          CLC   DX1(LX2,RW3),N0      IS ENTRY 0                          73758021
 0071CE 4780 9388      071E0       12509        BC      EQ,PAKP6              YES                                73764021
 0071D2 4133 0003      00003       12510          LA    RW3,DX3(RW3)          NO - POINT AT NEXT                 73770021
 0071D6 47F0 936A      071C2       12511        BC      UNCOND,PAKP2       EXAMINE NEXT ENTRY                    73776021
                                   12512 *                                                                       73782021
 0071DA 58E0 B4D4      08D84       12513 PAKP4  L       RCS,SVPAKP            YES - EXIT                         73788021
 0071DE 07FE                       12514        BCR     UNCOND,RCS          EXIT                                 73794021
                                   12515 *                                                                       73800021
 0071E0 45E0 7EDC      05E94       12516 PAKP6  BAL     RCS,PACKTB         PACK, MOVE ALL BACK                   73806021
 0071E4 1B34                       12517        SR      RW3,RW4            TO 0 ENTRY (GIVE RW3 TABLE DISPL      73812021
 0071E6 0700                       12518         BCR    NOP,RA0    OF 0 ENTRY AS TARGET) THIS NOP FILLER         73818021
 0071E8 4123 0003      00003       12519          LA    RW2,DX3(RW3)          FROM ENTRY AFTER 0 ENTRY           73824021
 0071EC 4B20 A5A0      08298       12520        SH      RW2,N3             MOVE BACK END-OF-TABLE POINTER        73830021
 0071F0 47F0 936A      071C2       12521        BC      UNCOND,PAKP2       RETURN TO REEXAMINE ENTRY (WE MAY     73836021
                                   12522 *                                        HAVE MOVED IN ANOTHER 0)       73842021
1PH40     IKFCBL40                                                                                              PAGE  261
-  LOC  OBJECT CODE    ADDR1 ADDR2  STMT   SOURCE STATEMENT                                       ASM 0201 11.03 02/14/15
0                                  12524 *=2    FORMLA    REDUCTION OF ARITHMETIC EXPRESSIONS                    73854021
                                   12525 *******************************************************************     73860021
                                   12526 *                                                                       73866021
                                   12527 *                                                                       73872021
                                   12528 *                             F O R M L A                               73878021
                                   12529 *                                                                       73884021
                                   12530 *        BAL   RCS,FORMLA                                               73890021
                                   12531 *        (RETURN ERROR OR NOT FORMULA)                                  73896021
                                   12532 *        (RETURN SINGLE NON-NUMERIC DATA-OPERAND)                       73902021
                                   12533 *        (RETURN VALID FORMULA)                                         73908021
                                   12534 *                                                                       73914021
                                   12535 *        ROUTINE IS CALLED BY COMPUTE,IF,ON,UNTIL,TO ANALYZE AND        73920021
                                   12536 *         EVALUATE FORMULAS.                                            73926021
                                   12537 *                                                                       73932021
                                   12538 *        'FORMULA' HERE MEANS SINGLE OPERAND,OR SEVERAL OPERANDS OR     73938021
                                   12539 *         FORMULAS,SEPARATED BY OPERATORS (+,-,*,/,**)                  73944021
                                   12540 *        'OPERAND' HERE MEANS DATA-NAME OR NUMERIC OR FLOATING LITE     73950021
                                   12541 *         SURROUNDED AT OPTION BY PARENS AND PRECEDED AT OPTION BY      73956021
                                   12542 *         UNARY MINUS.                                                  73962021
                                   12543 *                       OUTLINE OF SYNTAX ANALYSIS                      73968021
                                   12544 *        IS ENTITY         .  YES                       .  NO           73974021
                                   12545 *                          .                            .               73980021
                                   12546 *     2  -                 .  PROCESS,GET NEXT,GO TO 4. .GO TO 4        73986021
                                   12547 *     4  (                 .  PROCESS,GET NEXT,GO TO 2. .GO TO 6        73992021
                                   12548 *     6  DATA-NAME OR LIT  .  PROCESS,GET NEXT,GO TO 8. .EXIT,ERR.O     73998021
                                   12549 *     8  )                 .  PROCESS,GET NEXT,GO TO 8. .GO TO 10       74004021
                                   12550 *     10 OPERATOR          .  PROCESS,GET NEXT,GO TO 4. .EXIT,FINIS     74010021
                                   12551 *                                                                       74016021
                                   12552 *                                                                       74022021
                                   12553 *** SUBROUTINES CALLED                                                  74028021
                                   12554 *      GETNXT,PUTSGN,PUTNIN,PEMPTY,PMKTAL,DECMAX                        74034021
                                   12555 *                                                                       74040021
                                   12556 *        CALLS ON  PUTNIN TO ENTER OPERAND  IN NOUNS TABLE              74046021
                                   12557 *                  PUTSGN TO ENTER OPERATOR IN SIGNS TABLE AND TO       74052021
                                   12558 *                    DECIDE THE MOMENT TO CREATE A VERB STRING AND      74058021
                                   12559 *                    DELETE FROM SIGNS AND NOUNS TABLE                  74064021
                                   12560 *                 PEMPTY,AT END OF FORMULA, TO CREATE ALL REMAINING     74070021
                                   12561 *                    STRINGS AND EMPTY THE TABLES                       74076021
                                   12562 *                                                                       74082021
                                   12563 *** NOTES                                                               74088021
                                   12564 *      DMAXSW IS A 2-BYTE SWITCH WHICH = 0 WHEN THE PART OF AN EXPR     74094021
                                   12565 *       SION BEING PROCESSED IS NOT PART OF AN EXPONENT OR DIVISOR.     74100021
                                   12566 *       WHEN / OR ** IS FOUND AND IT = 0, IT IS SET TO PRNLEV+5, OT     74106021
                                   12567 *      WISE LEFT ALONE. WHEN +,-,OR * IS FOUND AND DMAXSW IS NOT        74112021
                                   12568 *       LOWER THAN PRNLEV+5 IT IS SET BACK TO 0, OTHERWISE LEFT ALO     74118021
                                   12569 *       WHEN DMAXSW IS NOT 0, DECMAX IS NOT CALLED FOR AN OPERAND.      74124021
                                   12570 *       THUS NO PART OF A PARENTHESIZED DIVISOR OR EXPONENT PARTICI     74130021
                                   12571 *       PATES IN THE CALCULATION OF DMAX.                               74136021
                                   12572 *                                                                       74142021
                                   12573 *                                                                       74148021
                                   12574 *                                                                       74154021
                                   12575 *      IF ANY NUMERIC OPERAND AT ALL WAS FOUND PFNDOP SWITCH IS ON.     74160021
                                   12576 *        AT EXIT 1 CALLING ROUTINE MAY NEED TO TEST PFNDOP FOR          74166021
                                   12577 *        ERROR CONDITIONS.  EXIT 2 REPRESENTS ERROR FOR COMPUTE BUT     74172021
                                   12578 *        NOT FOR IF.                                                    74178021
1PH40     IKFCBL40                                                                                              PAGE  262
-  LOC  OBJECT CODE    ADDR1 ADDR2  STMT   SOURCE STATEMENT                                       ASM 0201 11.03 02/14/15
0                                  12579 *        AT EXIT 3 THE CONTROL-BYTE OF PRSULT SHOWS WHETHER THIS        74184021
                                   12580 *        WAS A TRUE MULTI-OPERAND FORMULA ( RESULT IS AN IR),  A        74190021
                                   12581 *        SINGLE DATA-NAME, OR A SINGLE NUMERIC LITERAL.                 74196021
                                   12582 *                                                                       74202021
                                   12583 *                                                                       74208021
                                   12584 *      IN CASE FORMLA FINDS A NON-NUMERIC OPERAND AFTER FINDING         74214021
                                   12585 *        A NUMERIC ONE AND A SIGN, IT WRITES AN ERROR MESSAGE AND       74220021
                                   12586 *        SUBSTITUTES 'TALLY' FOR THE OFFENDING OPERAND.  EXIT IN TH     74226021
                                   12587 *        CASE IS TO EXIT 3 AS IF THERE HAD BEEN NO ERROR.               74232021
                                   12588 *                                                                       74238021
                                   12589 *                                                                       74244021
                                   12590 *******************************************************************     74250021
-
-
                             071F4 12592 FORMLA EQU     *                                                        74262021
 0071F4 90E0 B19C      08A4C       12593        STM     RCS,RA0,SVFRML                                           74268021
 0071F8 94FE BF75      09825       12594        NI      PFNDOP,MSWOFF                                            74274021
 0071FC 94FE BF7F      0982F       12595        NI    UMINSW,MSWOFF         INITIALIZE UMINUS SWITCH OFF         74280021
 007200 94FE 94F4      0734C       12596        NI    SBSW,MSWOFF        OFF SBSW                                74286021
                                   12597 *                                                                       74292021
                                   12598 *                                 IS IT UNARY SIGN                      74298021
                                   12599 *                                                                       74304021
 007204 D501 C000 A400 0988B 080F8 12600 FRML2    CLC   GOTTEN(LX2),CBPLUS                                       74310021
 00720A 4780 93C4      0721C       12601        BC      EQ,FRML3           JUST DISCARD +                        74316021
 00720E D501 C000 A3C0 0988B 080B8 12602          CLC   GOTTEN(LX2),CBMINS  IS IT -                              74322021
 007214 4770 93C8      07220       12603        BC      NOTEQ,FRML4        NO                                    74328021
 007218 9601 BF7F      0982F       12604        OI      UMINSW,MSWON       YES, TURN ON SWITCH                   74334021
 00721C 45E0 7566      0551E       12605 FRML3  BAL     RCS,GETNXT          GET NEXT INPUT                       74340021
                                   12606 *                                                                       74346021
                                   12607 *                                 IS IT (                               74352021
                                   12608 *                                                                       74358021
 007220 D501 C000 A3BE 0988B 080B6 12609 FRML4    CLC   GOTTEN(LX2),CBLPRN                                       74364021
 007226 4770 93EA      07242       12610        BC      NOTEQ,FRML8        NO                                    74370021
 00722A 9101 BF7F      0982F       12611        TM      UMINSW,MSWON       YES, DID MINUS PRECEDE                74376021
 00722E 4780 93E2      0723A       12612        BC      ZERO,FRML6         NO                                    74382021
 007232 45E0 94D2      0732A       12613        BAL     RCS,FRML50           YES, ENTER IN TABLES                74388021
 007236 94FE BF7F      0982F       12614        NI      UMINSW,MSWOFF                                            74394021
 00723A 45E0 9546      0739E       12615 FRML6  BAL     RCS,PUTSGN         ENTER THIS AND ALL FOLLOWING (S I     74400021
 00723E 47F0 93AC      07204       12616        BC      UNCOND,FRML2        PSIGNS AND RETURN TO SEEK MINUS      74406021
                                   12617 *                                                                       74412021
                                   12618 *              IS IT LEGAL OPERAND                                      74418021
                                   12619 *                                                                       74424021
 007242 45E0 8AE0      06A98       12620 FRML8  BAL   RCS,ISOPAR           IS IT NUMERIC DATA OPERAND            74430021
 007246 47F0 949A      072F2       12621        BC      UNCOND,FRML20      NO - ERROR OR NOT FORMULA             74436021
 00724A D501 BF66 A598 09816 08290 12622 FRML10   CLC   DMAXSW(LX2),N0      ARE WE WITHIN PARENTHESIZED          74442021
 007250 4770 9400      07258       12623          BC    NOTZER,*+NX8        YES             /EXPONENT OR DIVI    74448021
 007254 45E0 99DE      07836       12624        BAL     RCS,DECMAX         NO - UPDATE DMAX                      74454021
 007258 9601 BF75      09825       12625        OI      PFNDOP,MSWON   SWITCH SAYS AT LEAST 1 OPRND FOUND        74460021
 00725C 9101 BF7F      0982F       12626          TM    UMINSW,MSWON        DID MINUS PRECEDE IT                 74466021
 007260 4780 9434      0728C       12627        BC      ZERO,FRML14        NO                                    74472021
 007264 9103 BE64      09714       12628        TM      MODE,MFGMOD        IS IT LITERAL (BUT NOT FIGCON)        74478021
1PH40     IKFCBL40                                                                                              PAGE  263
-  LOC  OBJECT CODE    ADDR1 ADDR2  STMT   SOURCE STATEMENT                                       ASM 0201 11.03 02/14/15
0007268 4740 942C      07284       12629        BC      MIXED,FRML12        YES - GO CHANGE ITS SIGN             74484021
 00726C 45E0 94D2      0732A       12630        BAL     RCS,FRML50         NO - ENTER UNARY MINUS IN TABLES      74490021
 007270 9101 94F4      0734C       12631        TM    SBSW,MSWON         WAS DN SUBSCRIPTED BY 'SUBSCR'          74496021
 007274 4710 9424      0727C       12632        BC    ONES,FRML11        YES - LEAVE NEXTIN OFF                  74502021
 007278 9601 BF74      09824       12633        OI      NEXTIN,MSWON       (PUTSGN CALLED GETNXT IN FRML50)      74508021
 00727C 58C0 A324      0801C       12634 FRML11 L     RIN,ACURNT         POINT TO OPERAND (POINTER0 CLOBBER      74514021
                                   12635 *                                                        BY GETNXT      74520021
 007280 47F0 9430      07288       12636        BC      UNCOND,FRML13      GO SEEK SIGN                          74526021
 007284 45E0 99A6      077FE       12637 FRML12 BAL     RCS,MINLIT         CHANGE SIGN OF NEGATIVE LITERAL       74532021
 007288 94FE BF7F      0982F       12638 FRML13 NI      UMINSW,MSWOFF                                            74538021
 00728C 45E0 94F6      0734E       12639 FRML14 BAL     RCS,PUTNIN         ENTER OPERAND IS PNOUNS               74544021
 007290 94FE 94F4      0734C       12640        NI    SBSW,MSWOFF        OFF S&0W                                74550021
                                   12641 *                                                                       74556021
                                   12642 *                                  IS IT SIGN                           74562021
                                   12643 *                                                                       74568021
 007294 9553 C000      0988B       12644        CLI   GOTTEN,MSIGN                                               74574021
 007298 4770 948E      072E6       12645        BC      NOTEQ,FRML19       NO - END OF FORMULA                   74580021
 00729C 9503 C001      0988C       12646          CLI   GOTTEN+NX1,MDVCOD   YES - SHALL NEXT OPRND UPDATE DMA    74586021
 0072A0 4740 9470      072C8       12647        BC      LO,FRML17          MAYBE - SIGN IS +, -, OR *            74592021
 0072A4 D500 C001 A533 0988C 0822B 12648          CLC   GOTTEN+NX1(LX1),UMIN+NX1                                 74598021
 0072AA 4780 9470      072C8       12649        BC      EQ,FRML17           UNARY MINUS FOUND                    74604021
 0072AE D501 BF66 A598 09816 08290 12650          CLC   DMAXSW(LX2),N0      NO - IS SW ON FROM LOWER ( LEVEL     74610021
 0072B4 4770 9486      072DE       12651        BC      NOTEQ,FRML18           YES - LEAVE AS IS                 74616021
 0072B8 4800 BE7C      0972C       12652        LH      RA0,PRNLEV              NO - SET IT ON FOR THIS LEVE     74622021
 0072BC 4A00 A5A4      0829C       12653        AH      RA0,N5             (DMAXSW ALWAYS=PRNLEV+5 WHEN SET)     74628021
 0072C0 4000 BF66      09816       12654        STH     RA0,DMAXSW                                               74634021
 0072C4 47F0 9486      072DE       12655        BC      UNCOND,FRML18       GO TO ENTER SIGN                     74640021
 0072C8 4800 BE7C      0972C       12656 FRML17 LH      RA0,PRNLEV         SIGN IS +, -, OR *, WILL NEED DMA     74646021
 0072CC 4A00 A5A4      0829C       12657        AH      RA0,N5              ON NEXT OP UNLESS WE ARE INSIDE      74652021
 0072D0 4900 BF66      09816       12658        CH      RA0,DMAXSW            PARENS UNDER CONTROL OF / OR *     74658021
 0072D4 4720 9486      072DE       12659          BC    HI,*+NX10           NO                                   74664021
 0072D8 D701 BF66 BF66 09816 09816 12660          XC    DMAXSW(LX2),DMAXSW    UNDER CONTROL OF / OR **           74670021
 0072DE 45E0 9546      0739E       12661 FRML18 BAL     RCS,PUTSGN         ENTER SIGN IN PSIGNS TABLE            74676021
 0072E2 47F0 93AC      07204       12662        BC      UNCOND,FRML2       RETURN TO SEEK OPERAND                74682021
                                   12663 *                                                                       74688021
                                   12664 *               NO SIGN FOUND WHERE EXPECTED. END OF FORMULA            74694021
                                   12665 *                                                                       74700021
 0072E6 45E0 9790      075E8       12666 FRML19 BAL     RCS,PEMPTY         CREATE REMAINING STRINGS              74706021
 0072EA 98E0 B19C      08A4C       12667        LM      RCS,RA0,SVFRML                                           74712021
 0072EE 47FE 0008      00008       12668          BC    UNCOND,DX8(RCS)     VALID FORMULA                        74718021
                                   12669 *                                                                       74724021
                                   12670 *                      NUMERIC OPERAND NOT FOUND WHERE EXPECTED         74730021
                                   12671 *                                                                       74736021
                                   12672 *                                                                       74742021
 0072F2 9130 C000      0988B       12673 FRML20 TM      GOTTEN,MDN         IS IT DATA OPERAND AT ALL             74748021
 0072F6 4710 94A8      07300       12674        BC      ONES,FRML22          YES                                 74754021
                             072FA 12675 FRML21 EQU     *                                                        74760021
 0072FA 98E0 B19C      08A4C       12676        LM      RCS,RA0,SVFRML       NO - EXIT ERROR OR NOT FORMULA      74766021
 0072FE 07FE                       12677        BCR     UNCOND,RCS          ERROR OR NOT FORMULA                 74772021
                                   12678 *                                                                       74778021
                                   12679 *      NON-NUMERIC OPERAND FOUND.  MAY BE RECOVERABLE                   74784021
                                   12680 *           ERROR OR SIMPLY A NON-FORMULA                               74790021
                                   12681 *                                                                       74796021
                             07300 12682 FRML22 EQU     *                                                        74802021
 007300 9101 BF75      09825       12683        TM      PFNDOP,MSWON       WAS ANY NUMERIC OPERAND FOUND         74808021
1PH40     IKFCBL40                                                                                              PAGE  264
-  LOC  OBJECT CODE    ADDR1 ADDR2  STMT   SOURCE STATEMENT                                       ASM 0201 11.03 02/14/15
0007304 4710 94CA      07322       12684        BC      ONES,FRML24        YES - THIS IS AN ERROR                74814021
 007308 9101 BF7F      0982F       12685        TM      UMINSW,MSWON       NO, BUT WAS A MINUS SIGN FOUND        74820021
 00730C 4710 94CA      07322       12686        BC      ONES,FRML24        YES, THEN THIS IS AN ERROR            74826021
 007310 D500 C000 A52C 0988B 08224 12687          CLC   GOTTEN(LX1),ERSYMB  IS IT A PH1 OR PH3 ERROR SYMBOL      74832021
 007316 4780 94A2      072FA       12688        BC      EQ,FRML21            YES - GIVE UP                       74838021
                                   12689 *                                                                       74844021
 00731A 98E0 B19C      08A4C       12690        LM      RCS,RA0,SVFRML                                           74850021
 00731E 47FE 0004      00004       12691          BC    UNCOND,DX4(RCS)     EXIT SINGLE NON-NUMERIC OPERAND      74856021
                                   12692 *                                                                       74862021
                                   12693 *      NON-NUMERIC OPERAND IS AN ERROR. SUBSTITUTE 'TALLY'              74868021
                                   12694 *                                                                       74874021
 007322 45E0 99EE      07846       12695 FRML24 BAL     RCS,PMKTAL          SUBSTITUTE TALLY                     74880021
 007326 47F0 93F2      0724A       12696        BC      UNCOND,FRML10      CONTINUE NORMALLY                     74886021
                                   12697 *                                                                       74892021
                                   12698 *      UNARY MINUS HAS BEEN DETERMINED. ENTER 'ZERO - ' BEFORE CURR     74898021
                                   12699 *        OPERAND.                                                       74904021
                                   12700 *                                                                       74910021
 00732A 50E0 B254      08B04       12701 FRML50 ST      RCS,SVFR50                                               74916021
 00732E 9601 BF74      09824       12702        OI      NEXTIN,MSWON       SAVE CURRENT ENTITY                   74922021
 007332 41C0 A4EA      081E2       12703        LA      RIN,CBZERO         PRETEND INPUT IS 'ZERO'               74928021
 007336 45E0 94F6      0734E       12704        BAL     RCS,PUTNIN         ENTER IN NOUNS TABLE                  74934021
 00733A 9601 BF74      09824       12705        OI      NEXTIN,MSWON       SAVE AGAIN (PUTNIN GOT NEXT)          74940021
 00733E 41C0 A532      0822A       12706        LA      RIN,UMIN           PUT UNARY MINUS IN TABLE              74946021
 007342 45E0 9546      0739E       12707        BAL     RCS,PUTSGN          PUT SIGN INTO TABLE                  74952021
 007346 58E0 B254      08B04       12708        L       RCS,SVFR50                                               74958021
 00734A 07FE                       12709        BCR     UNCOND,RCS          EXIT-ERROR OR NOT FORMULA            74964021
 00734C 00                         12710 SBSW   DC    XL1'00'            TELLS FORMLA DN WAS SUBSCRIPTED         74970021
1PH40     IKFCBL40                                                                                              PAGE  265
-  LOC  OBJECT CODE    ADDR1 ADDR2  STMT   SOURCE STATEMENT                                       ASM 0201 11.03 02/14/15
0                                  12712 *=2    PUTNIN    STORING AND RELEASE OF FORMULA ELEMENTS                74982021
                                   12713 *******************************************************************     74988021
                                   12714 *                                                                       74994021
                                   12715 *                                                                       75000021
                                   12716 *                            P U T N I N                                75006021
                                   12717 *                            P U T N 4 5                                75012021
                                   12718 *                                                                       75018021
                                   12719 *                                                                       75024021
                                   12720 *        ROUTINES TO ENTER OPERAND IN TAMER TABLE PNOUNT                75030021
                                   12721 *                                                                       75036021
                                   12722 *        CALLED BY COMPUT,IF,UNTIL,ON                                   75042021
                                   12723 *                                                                       75048021
                                   12724 *      BAL     RCS,PUTNIN                                               75054021
                                   12725 *      (RETURN)                                                         75060021
                                   12726 *                                                                       75066021
                                   12727 *        PUTNIN TAKES ENTRY FROM INPUT, PUTN45 FROM NORMAL STORAGE      75072021
                                   12728 *                                                                       75078021
                                   12729 *** SUBROUTINES CALLED                                                  75084021
                                   12730 *      GETNXT,PNSRTV,PUTSGN                                             75090021
                                   12731 *                                                                       75096021
                                   12732 *                                                                       75102021
                                   12733 *** NOTES                                                               75108021
                                   12734 *      PUTSGN IS CALLED TO PROCESS )'S - IF ANY - FOLLOWING OPERAND     75114021
                                   12735 *        BOTH APPEND BYTE-COUNT OF ENTRY AT END OF ENTRY, FOR FACIL     75120021
                                   12736 *          OF GOING BACKWARDS WHEN ENTRIES ARE REMOVED                  75126021
                                   12737 *        BOTH UPDATE PNOUCT TO NUMBER OF ENTRIES CURRENTLY IN TABLE     75132021
                                   12738 *      BOTH GET NEXT BEFORE EXIT                                        75138021
                                   12739 *                                                                       75144021
                                   12740 *                                                                       75150021
                                   12741 *******************************************************************     75156021
-
0
 00734D 00
 00734E 90E5 B1C0      08A70       12743 PUTNIN STM     RCS,RW5,SVPUTN                                           75168021
 007352 184C                       12744        LR      RW4,RIN            RW4  STARTING SOURCE ADDR             75174021
                                   12745 *                                                                       75180021
 007354 5810 B070      08920       12746        L       RW1,APNOUN                                               75186021
 007358 45E0 7D5C      05D14       12747        BAL     RCS,PNSRTV         INSERT ENTRY                          75192021
 00735C 4144 0000      00000       12748          LA    RW4,DX0(RW4)                                             75198021
 007360 4820 BE7A      0972A       12749        LH      RW2,PNOUCT                                               75204021
 007364 4122 0001      00001       12750          LA    RW2,DX1(RW2)         ADD 1 TO OPERAND COUNT              75210021
 007368 4020 BE7A      0972A       12751        STH     RW2,PNOUCT                                               75216021
 00736C 9101 BF78      09828       12752        TM      PNOTSW,MSWON       DID 'NOT' PRECEDE THIS NOUN           75222021
 007370 4780 9526      0737E       12753        BC      ZERO,PUTN3         NO                                    75228021
 007374 D700 BF77 A59D 09827 08295 12754          XC    PNEGSW(LX1),N1+NX1   YES - REVERSE NEGSW, CAUSING        75234021
 00737A 94FE BF78      09828       12755        NI      PNOTSW,MSWOFF        RELATIONAL TO BE REVERSED           75240021
 00737E 45E0 7566      0551E       12756 PUTN3  BAL     RCS,GETNXT          GET NEXT INPUT                       75246021
 007382 D501 C000 A414 0988B 0810C 12757          CLC   GOTTEN(LX2),CBRPRN   PROCESS )S THAT MAY FOLLOW OPERA    75252021
 007388 4770 9540      07398       12758        BC      NOTEQ,PUTN4         NOT ), GO TO EXIT                    75258021
 00738C 9101 BF7F      0982F       12759        TM      UMINSW,MSWON       IS CALL FROM FRML50 INVENTING 'ZE     75264021
 007390 4710 9540      07398       12760        BC      ONES,PUTN4           YES - THEN ) BELONGS LATER          75270021
 007394 45E0 9546      0739E       12761        BAL     RCS,PUTSGN          PUT SIGN INTO TABLE                  75276021
1PH40     IKFCBL40                                                                                              PAGE  266
-  LOC  OBJECT CODE    ADDR1 ADDR2  STMT   SOURCE STATEMENT                                       ASM 0201 11.03 02/14/15
0007398 98E5 B1C0      08A70       12762 PUTN4    LM    RCS,RW5,SVPUTN      EXIT                                 75282021
 00739C 07FE                       12763          BCR   UNCOND,RCS          RETURN                               75288021
1PH40     IKFCBL40                                                                                              PAGE  267
-  LOC  OBJECT CODE    ADDR1 ADDR2  STMT   SOURCE STATEMENT                                       ASM 0201 11.03 02/14/15
0                                  12765 *******************************************************************     75300021
                                   12766 *                                                                       75306021
                                   12767 *                                                                       75312021
                                   12768 *                                                                       75318021
                                   12769 *                             P U T S G N                               75324021
                                   12770 *                                                                       75330021
                                   12771 *        BAL   RCS,PUTSGN                                               75336021
                                   12772 *        (RETURN)                                                       75342021
                                   12773 *                                                                       75348021
                                   12774 *        CALLED BY IF,COMPUT,UNTIL,ON                                   75354021
                                   12775 *      IF LESS THAN TWO NOUNS ARE IN OPERAND TABLE, EXITS.  OTHERWI     75360021
                                   12776 *          ANALYZES HIERARCHY OF OPERATORS                              75366021
                                   12777 *                                                                       75372021
                                   12778 *        ENTERS OPERATOR IN TAMER TABLE PSIGNT (EXCEPT RPREN),          75378021
                                   12779 *        IF OPERATOR IS = OR LESS IN CODE THAN LAST OPERATOR IN         75384021
                                   12780 *          TABLE, CREATES VERB FROM LAST OPERATOR, AND STORES IN        75390021
                                   12781 *          STRING VERB,LAST 2 OPERANDS IN NOUN TABLE, NEW IR.           75396021
                                   12782 *          REPLACES LAST TWO OPERANDS IN NOUN TABLE BY IR               75402021
                                   12783 *        IF OPERATOR IS ), CREATES STRINGS TILL LAST IN TABLE IS (,     75408021
                                   12784 *          THEN DELETES (.                                              75414021
                                   12785 *                                                                       75420021
                                   12786 *** SUBROUTINES CALLED                                                  75426021
                                   12787 *      GETNXT,STOR45,INSERT,PNSRTF,PNSRTV,PREMVV,PUPIR,ERROR            75432021
                                   12788 *                                                                       75438021
                                   12789 *                                                                       75444021
                                   12790 *** ERROR PROCESSING                                                    75450021
                                   12791 *      IDENTIFIES UNPAIRED PARENS,THEORETICALLY SUPPLIES THE MISSIN     75456021
                                   12792 *                                                                       75462021
                                   12793 *                                                                       75468021
                                   12794 *** NOTES                                                               75474021
                                   12795 *      WHEN ITS INPUT (GOTTEN) IS (,PROCESSES ALL IMMEDIATELY SUCCE     75480021
                                   12796 *        ING ('S. SIMILARLY WITH ).                                     75486021
                                   12797 *      UPDATES DMAXSW FOR ) -- SEE FORMLA                               75492021
                                   12798 *      WITHIN IF, ADJUSTS NOT-BIT IN PTRFLS TABLE WHEN PRNLEV CHANG     75498021
                                   12799 *        OPERATOR CODES,FROM LOW TO HIGH ARE      (                     75504021
                                   12800 *                                                 +                     75510021
                                   12801 *                                                 -                     75516021
                                   12802 *                                                 *                     75522021
                                   12803 *                                                 /                     75528021
                                   12804 *                                                 **                    75534021
                                   12805 *      UPDATES PSGCNT -- SIGNS-TABLE DISPLACEMENT                       75540021
                                   12806 *                                                                       75546021
                                   12807 *      GETS NEXT BEFORE RETURN                                          75552021
                                   12808 *                                                                       75558021
                                   12809 *                                                                       75564021
                                   12810 *******************************************************************     75570021
-
0
 00739E 90E6 B178      08A28       12812 PUTSGN   STM   RCS,RW6,SVPTSG                                           75582021
 0073A2 5810 B078      08928       12813          L     RW1,APSGNT          GIVE RW1 ADDR. OF TIB FOR SIGNS      75588021
 0073A6 D501 C000 A3BE 0988B 080B6 12814          CLC   GOTTEN(LX2),CBLPRN                                       75594021
 0073AC 4780 965A      074B2       12815        BC      EQ,PTSG20           YES, GO TO (FOUND                    75600021
1PH40     IKFCBL40                                                                                              PAGE  268
-  LOC  OBJECT CODE    ADDR1 ADDR2  STMT   SOURCE STATEMENT                                       ASM 0201 11.03 02/14/15
00073B0 D501 BE7A A59E 0972A 08296 12816 PTSGN0   CLC   PNOUCT(LX2),N2       IF 0 OR 1 OPERANDS, JUST ENTER S    75606021
 0073B6 47B0 9582      073DA       12817        BC      NOTLO,PTSGN6        MORE THAN ONE OPERAND                75612021
 0073BA D501 C000 A414 0988B 0810C 12818          CLC   GOTTEN(LX2),CBRPRN     UNLESS IT IS RIGHT PAREN          75618021
 0073C0 4780 96E6      0753E       12819        BC      EQ,PTSG40           GO TO ) FOUND                        75624021
                                   12820 *                                                                       75630021
                                   12821 *                                     EXIT                              75636021
                                   12822 *                                                                       75642021
 0073C4 45E0 7D16      05CCE       12823 PTSGN2 BAL     RCS,PNSRTF          INSERT IN TABLE                      75648021
 0073C8 4140 C000      0988B       12824        LA      RW4,GOTTEN         INSERT SIGN IN TABLE                  75654021
 0073CC 45E0 7566      0551E       12825 PTSGN4   BAL   RCS,GETNXT          GET NEXT AND EXIT                    75660021
 0073D0 98E6 B178      08A28       12826 PTSGN5   LM    RCS,RW6,SVPTSG                                           75666021
 0073D4 94FE BFAC      0985C       12827        NI      PMSGSW,MSWOFF                                            75672021
 0073D8 07FE                       12828          BCR   UNCOND,RCS          EXIT                                 75678021
                                   12829 *                                                                       75684021
                                   12830 *        MORE THAN 1 OPERAND ALREADY IN NOUNS TABLE                     75690021
                                   12831 *        COMPARE HIERARCHY OF SIGNS                                     75696021
                                   12832 *                                                                       75702021
 0073DA 5861 0000      00000       12833 PTSGN6   L     RW6,DX0(RW1)         RW6 GETS ADDR. OF  TAMM FOR SIGN    75708021
 0073DE 5846 0000      00000       12834          L     RW4,DX0(RW6)         RW4  .    .    .   NEXT ENTRY       75714021
 0073E2 4A46 0004      00004       12835          AH    RW4,DX4(RW6)                                             75720021
 0073E6 4B40 A59E      08296       12836          SH    RW4,N2         POINT RW4 TO PREVIOUS ENTRY               75726021
 0073EA D501 C000 4000 0988B 00000 12837          CLC   GOTTEN(LX2),DX0(RW4)                                     75732021
 0073F0 47D0 95BC      07414       12838        BC      NOTHI,PTSGN8       CREATE STRINGS IF GOTTEN = OR LOW     75738021
 0073F4 D201 BE24 4000 096D4 00000 12839          MVC   TEMP(LX2),DX0(RW4)   TEMP WILL BE 1 FOR HIERARCHICALLY   75744021
 0073FA D701 BE24 C000 096D4 0988B 12840          XC    TEMP(LX2),GOTTEN     EQUAL PAIRS, + AND ', OR * AND /    75750021
 007400 D501 BE24 A59C 096D4 08294 12841          CLC   TEMP(LX2),N1                                             75756021
 007406 4770 956C      073C4       12842        BC      NOTEQ,PTSGN2       GOTTEN IS NOT OF PAIR,ENTER IN  T     75762021
 00740A D501 C000 A414 0988B 0810C 12843          CLC   GOTTEN(LX2),CBRPRN   IF PAIR IS (), CLOSE UP             75768021
 007410 4780 96E6      0753E       12844        BC      EQ,PTSG40           GO TO ) FOUND                        75774021
                                   12845 *                                                                       75780021
                                   12846 *        GOTTEN IS = OR LESS THAN LAST SIGN. CREATE VERB STRING         75786021
                                   12847 *                                                                       75792021
                             07414 12848 PTSGN8 EQU     *                                                        75798021
 007414 D500 4001 A533 00001 0822B 12849          CLC   DX1(LX1,RW4),UMIN+NX1 IS IT UNARY MINUS                  75804021
 00741A 4770 95CC      07424       12850          BC    NOTEQ,*+NX10         NO                                  75810021
 00741E D200 4001 A3C1 00001 080B9 12851          MVC   DX1(LX1,RW4),CBMINS+NX1 YES - CHANGE IT TO SUBTRACTION   75816021
 007424 9284 4000      00000       12852          MVI   DX0(RW4),MVBOUT     CHANGE SIGN-HEAD TO VERB HEAD        75822021
 007428 D201 9E88 4000 07CE0 00000 12853          MVC   TEMPSAVE(LX2),DX0(RW4)  SAVE TABLE ENTRIES         P0205 75828021
 00742E 9205 9E8A      07CE2       12854          MVI   TEMPSAVE+NX2,XX05     APPEND ELEMENT COUNT OF 5    P0205 75834021
 007432 4140 9E88      07CE0       12855          LA    RW4,TEMPSAVE        PICK UP TEMPSAVE ADDR          P0205 75840021
 007436 45E0 8000      05FB8       12856          BAL   RCS,STOR45     STORE VERB AND COUNT IN STRING            75846021
                                   12857 *DEL                                                                    75852021
 00743A 4846 0004      00004       12858          LH    RW4,DX4(RW6)                                             75858021
 00743E 4B40 A59E      08296       12859          SH    RW4,N2         REDUCE DISP. IN TAMM BY 2                 75864021
 007442 4046 0004      00004       12860          STH   RW4,DX4(RW6)                                             75870021
 007446 4040 B07C      0892C       12861        STH     RW4,DSPSGN                                               75876021
                                   12862 *                                                                       75882021
                                   12863 *        MOVE 2 OPERANDS FROM NOUN TABLE TO STRING                      75888021
                                   12864 *                                                                       75894021
 00744A 4130 0002      00002       12865          LA    RW3,DX2(RA0,RA0)      RW3 LOOPS THRU 2 OPERANDS          75900021
 00744E 5810 B070      08920       12866 PSTG10 L       RW1,APNOUN                                               75906021
 007452 45E0 7D8E      05D46       12867        BAL     RCS,PREMVV         REMOVE FROM NOUNS TABLE               75912021
 007456 4140 0000      00000       12868          LA    RW4,DX0               (DUMMY-JUST UPDATE TIB AND TAMM    75918021
 00745A 5841 0000      00000       12869          L     RW4,DX0(RW1)        GIVE RW4 SOURCE-ADDR.                75924021
 00745E 5844 0000      00000       12870          L     RW4,DX0(RW4)          = TABLE ADDR. + SAVED DISPL.       75930021
1PH40     IKFCBL40                                                                                              PAGE  269
-  LOC  OBJECT CODE    ADDR1 ADDR2  STMT   SOURCE STATEMENT                                       ASM 0201 11.03 02/14/15
0007462 4A40 B074      08924       12871        AH      RW4,DSPNOU                                               75936021
 007466 1824                       12872          LR    RW2,RW4                                            P0205 75942021
 007468 45E0 7F94      05F4C       12873          BAL   RCS,COUNT           GET COUNT OF BYTES TO MOVE     P0205 75948021
 00746C 4820 BE72      09722       12874          LH    RW2,BYTES                                          P0205 75954021
 007470 4420 9654      074AC       12875          EX    RW2,MVTEMP          SAVE PNCOUNT ENTRY IN TEMP     P0205 75960021
 007474 4140 9E88      07CE0       12876          LA    RW4,TEMPSAVE                                       P0205 75966021
 007478 45E0 8000      05FB8       12877        BAL     RCS,STOR45         STORE IN STRING TABLE                 75972021
 00747C 4630 95F6      0744E       12878        BCT     RW3,PSTG10         RETURN FOR 2ND OPERAND                75978021
 007480 4830 BE7A      0972A       12879        LH      RW3,PNOUCT                                               75984021
 007484 4630 9630      07488       12880          BCT   RW3,*+NX4           REDUCE NOUN-TABLE COUNT BY 1         75990021
 007488 4030 BE7A      0972A       12881        STH     RW3,PNOUCT           (TOOK 2 OUT BUT WILL INSERT IR)     75996021
                                   12882 *                                                                       76002021
                                   12883 *        MOVE IR TO VERB-STRING AND TO NOUNS-TABLE                      76008021
                                   12884 *                                                                       76014021
 00748C 45E0 9A2E      07886       12885          BAL   RCS,PUPIR      UPDATE TO NEXT IR-ID                      76020021
 007490 4140 BE11      096C1       12886        LA      RW4,IR             STORE IR IN STRING                    76026021
 007494 45E0 8000      05FB8       12887        BAL     RCS,STOR45          STORE IR IN STRING                   76032021
 007498 5810 B070      08920       12888        L       RW1,APNOUN                                               76038021
 00749C 45E0 7D5C      05D14       12889        BAL     RCS,PNSRTV         INSERT IR IN NOUNS TABLE              76044021
 0074A0 4140 BE11      096C1       12890        LA      RW4,IR                                                   76050021
 0074A4 5810 B078      08928       12891        L       RW1,APSGNT                                               76056021
 0074A8 47F0 9558      073B0       12892          BC    UNCOND,PTSGN0  RETURN TO EXAMINE PRECEDING SIGN          76062021
 0074AC D200 9E88 4000 07CE0 00000 12893 MVTEMP   MVC   TEMPSAVE(LX1),DX0(RW4)       SAVE                  P0205 76068021
                                   12894 *                                                                       76074021
                                   12895 *                                  (  FOUND                             76080021
                                   12896 *                                                                       76086021
 0074B2 4860 BE7C      0972C       12897 PTSG20 LH      RW6,PRNLEV         ( FOUND, UPDATE LEVEL                 76092021
 0074B6 4166 0005      00005       12898          LA    RW6,DX5(RW6)                                             76098021
 0074BA 4060 BE7C      0972C       12899        STH     RW6,PRNLEV                                               76104021
 0074BE 45E0 7D16      05CCE       12900        BAL     RCS,PNSRTF          PUT IN TABLE                         76110021
 0074C2 4140 C000      0988B       12901        LA      RW4,GOTTEN                                               76116021
 0074C6 9101 BF79      09829       12902        TM      PLOGIC,MSWON       SKIP LEVEL ADJUSTMENTS WHEN NOT I     76122021
 0074CA 4780 96D0      07528       12903        BC      ZERO,PTSG30         GO TO RESTORE POINTER                76128021
 0074CE 4960 BE7E      0972E       12904        CH      RW6,HILEV          IS THIS LEVEL HIGHER THAN HIGHEST     76134021
 0074D2 4740 96A6      074FE       12905        BC      LO,PTSG24           NO                                   76140021
 0074D6 4166 0005      00005       12906          LA    RW6,DX5(RW6)        (ALWAYS KEEP HILEV AT PRNLEV+5)      76146021
 0074DA 4060 BE7E      0972E       12907        STH     RW6,HILEV          YES - UPDATE HILEV                    76152021
 0074DE 5810 B080      08930       12908        L       RW1,APTFLS         MAKE ROOM FOR INSERTION OF BYPASS     76158021
 0074E2 58F0 A314      0800C       12909        L       RAS,ANSERT         AND FALL-THRU BRANCHES AT NEXT LE     76164021
                                   12910 *                   (POSSIBLY TO BE USED FOR AND,NOT AND, NOT OR)       76170021
 0074E6 05EF                       12911        BALR    RCS,RAS             BRANCH TO TARGET ADDRESS             76176021
 0074E8 4133 0005      00005       12912          LA    RW3,DX5(RW3)                                             76182021
 0074EC 4030 B084      08934       12913        STH     RW3,DSPTRF         UPDATE SAVED DISPL.                   76188021
 0074F0 D704 2000 2000 00000 00000 12914          XC    DX0(LX5,RW2),DX0(RW2) EVICT FORMER TENANT                76194021
 0074F6 4B20 A5AA      082A2       12915        SH      RW2,N10             POINT RW2 AT PREVIOUS LEVEL          76200021
 0074FA 47F0 96B8      07510       12916        BC      UNCOND,PTSG26       GET NEW LEVEL                        76206021
 0074FE 5810 B080      08930       12917 PTSG24 L       RW1,APTFLS         FIND NEW PAREN LEVEL IN PTRFLS        76212021
 007502 5821 0000      00000       12918          L     RW2,DX0(RW1)                                             76218021
 007506 5822 0000      00000       12919          L     RW2,DX0(RW2)                                             76224021
 00750A 1A26                       12920        AR      RW2,RW6                                                  76230021
 00750C 4B20 A5A4      0829C       12921        SH      RW2,N5              POINT RW2 AT PREVIOUS LEVEL          76236021
 007510 D200 2005 2000 00005 00000 12922 PTSG26   MVC   DX5(LX1,RW2),DX0(RW2) GIVE NEW LEVEL POS-NEG BIT OF PRE  76242021
 007516 9101 BF78      09828       12923        TM      PNOTSW,MSWON       DID 'NOT' PRECEDE THIS (              76248021
 00751A 4780 96D0      07528       12924        BC      ZERO,PTSG30        NO                                    76254021
 00751E D700 2005 A59D 00005 08295 12925          XC    DX5(LX1,RW2),N1+NX1  YES - REVERSE POS-NEG BIT           76260021
1PH40     IKFCBL40                                                                                              PAGE  270
-  LOC  OBJECT CODE    ADDR1 ADDR2  STMT   SOURCE STATEMENT                                       ASM 0201 11.03 02/14/15
0007524 94FE BF78      09828       12926        NI      PNOTSW,MSWOFF                                            76266021
 007528 5810 B078      08928       12927 PTSG30 L       RW1,APSGNT         RESTORE SIGNS TABLE POINTER           76272021
 00752C 45E0 7566      0551E       12928        BAL     RCS,GETNXT          GET NEXT INPUT                       76278021
 007530 D501 C000 A3BE 0988B 080B6 12929          CLC   GOTTEN(LX2),CBLPRN     RETURN TO PUT ALL FOLLOWING (S    76284021
 007536 4780 965A      074B2       12930        BC      EQ,PTSG20             IN TABLE                           76290021
 00753A 47F0 9578      073D0       12931        BC      UNCOND,PTSGN5       GO TO EXIT                           76296021
                                   12932 *                                                                       76302021
                                   12933 *                                 GOTTEN IS  )                          76308021
                                   12934 *      IF HIGHER THAN LAST IN TABLE, LAST MUST BE )                     76314021
                                   12935 *      IF ONLY 1 OPERAND REMAINS IN NOUNS TABLE, PROCESS IS COMPLET     76320021
                                   12936 *                                                                       76326021
 00753E 9101 BF76      09826       12937 PTSG40 TM      PMTYSW,MSWON       IS FINAL REDUCTION CALLED FOR         76332021
 007542 4780 9700      07558       12938        BC      ZERO,PTSG42        NO                                    76338021
 007546 D501 BE7A A59E 0972A 08296 12939          CLC   PNOUCT(LX2),N2      YES - IS NOUN TABLE REDUCED          76344021
 00754C 4740 9574      073CC       12940        BC      LO,PTSGN4          YES - EXIT (THIS IS PHONY RIGHT       76350021
                                   12941 *                                   PAREN NOT AFFECTING PAREN LEVEL     76356021
 007550 45E0 9BCE      07A26       12942        BAL     RCS,ERONCE         NO - ERROR,UNCLOSED ('S.              76362021
                                   12943 *                                 WRITE MSG ONLY ONCE                   76368021
 007554 4110 A024      07D1C       12944        LA      RW1,ELST06                                               76374021
 007558 D501 BE7C BF66 0972C 09816 12945 PTSG42   CLC   PRNLEV(LX2),DMAXSW  ARE WE CLOSING A DIVISOR OR EXPON    76380021
 00755E 4720 9710      07568       12946          BC    HI,*+NX10             NO                                 76386021
 007562 D701 BF66 BF66 09816 09816 12947          XC    DMAXSW(LX2),DMAXSW   YES - DMAX WILL AGAIN BE NEEDED     76392021
 007568 4860 BE7C      0972C       12948        LH      RW6,PRNLEV         DOWNDATE PAREN LEVEL                  76398021
 00756C 4B60 A5A4      0829C       12949        SH      RW6,N5                                                   76404021
 007570 4740 9776      075CE       12950        BC      NEG,PTSG50         ERROR - EXTRA RIGHT PAREN             76410021
 007574 4060 BE7C      0972C       12951        STH     RW6,PRNLEV                                               76416021
 007578 9101 BF79      09829       12952        TM      PLOGIC,MSWON       ARE WE IN IF                          76422021
 00757C 4780 9750      075A8       12953        BC      ZERO,PTSG44        NO                                    76428021
 007580 5810 B080      08930       12954        L       RW1,APTFLS         YES - ADJUST NEGATIVES IN LABEL T     76434021
 007584 5811 0000      00000       12955          L     RW1,DX0(RW1)        RW1 GETS TAMM ADDR.                  76440021
 007588 5811 0000      00000       12956          L     RW1,DX0(RW1)        NOW GETS STARTING ADDR. OF TABLE     76446021
 00758C 1A16                       12957        AR      RW1,RW6            + PRESENT PAREN LEVEL = ADDR. THI     76452021
 00758E D200 BE24 1000 096D4 00000 12958          MVC   PTEMP(LX1),DX0(RW1)    LEVEL. IS THIS LEVEL SAME AS TH   76458021
 007594 D700 BE24 1005 096D4 00005 12959          XC    PTEMP(LX1),DX5(RW1)  NEXT HIGHER -- BOTH POS OR BOTH N   76464021
 00759A 9101 BE24      096D4       12960        TM      PTEMP,MSWON                                              76470021
 00759E 4780 9750      075A8       12961        BC      ZERO,PTSG44        YES - LEAVE AS IS                     76476021
 0075A2 D700 BF77 A59D 09827 08295 12962          XC    PNEGSW(LX1),N1+NX1   NO - REVERSE PNEGSW CAUSING NEGAT   76482021
                                   12963 *                                         OF RELATIONAL                 76488021
 0075A8 5810 B078      08928       12964 PTSG44 L       RW1,APSGNT         ELIMINATE ( FROM TABLE BY REDUCIN     76494021
 0075AC 45E0 7D32      05CEA       12965        BAL     RCS,PREMVF         DISP. OF NEXT ENTRY BY 2              76500021
 0075B0 4142 0000      00000       12966          LA    RW4,DX0(RW2)          (DUMMY)                            76506021
 0075B4 9101 BF76      09826       12967        TM      PMTYSW,MSWON       IF CALL WAS FROM PEMPTY, GO BACK      76512021
 0075B8 4710 9582      073DA       12968        BC      ONES,PTSGN6          AND REDUCE TABLE                    76518021
 0075BC 45E0 7566      0551E       12969        BAL     RCS,GETNXT          GET NEXT INPUT                       76524021
 0075C0 D501 C000 A414 0988B 0810C 12970          CLC   GOTTEN(LX2),CBRPRN                                       76530021
 0075C6 4780 9558      073B0       12971        BC      EQ,PTSGN0          PROCESS ANY )S THAT FOLLOW            76536021
 0075CA 47F0 9578      073D0       12972        BC      UNCOND,PTSGN5       EXIT FROM PUTSGN                     76542021
 0075CE 45E0 9BDA      07A32       12973 PTSG50 BAL     RCS,ERROR          TOO MANY )'S                          76548021
 0075D2 4110 A042      07D3A       12974        LA      RW1,ELST0A                                               76554021
 0075D6 45E0 7566      0551E       12975 PTSG52 BAL     RCS,GETNXT         DISCARD THIS AND SUCCEEDING )S        76560021
 0075DA D501 C000 A414 0988B 0810C 12976          CLC   GOTTEN(LX2),CBRPRN                                       76566021
 0075E0 4780 977E      075D6       12977        BC      EQ,PTSG52           RIGHT PAREN - DISCARD IT             76572021
 0075E4 47F0 9578      073D0       12978        BC      UNCOND,PTSGN5       NO, GO TO EXIT                       76578021
                                   12979 *                                                                       76584021
1PH40     IKFCBL40                                                                                              PAGE  271
-  LOC  OBJECT CODE    ADDR1 ADDR2  STMT   SOURCE STATEMENT                                       ASM 0201 11.03 02/14/15
0                                  12981 *******************************************************************     76596021
                                   12982 *                                                                       76602021
                                   12983 *                             P E M P T Y                               76608021
                                   12984 *                                                                       76614021
                                   12985 *        BAL   RCS,PEMPTY                                               76620021
                                   12986 *        (RETURN)                                                       76626021
                                   12987 *                                                                       76632021
                                   12988 *        CALLED BY IF ,COMPUT,UNTIL,ON                                  76638021
                                   12989 *      CAUSES TAMER TABLE PSIGNS TO BE EMPTIED OF ALL BUT NON-MATCH     76644021
                                   12990 *        LEADING (S AND ALL REMAINING VERB STRINGS TO BE CREATED        76650021
                                   12991 *                                                                       76656021
                                   12992 *** SUBROUTINES CALLED                                                  76662021
                                   12993 *      SAVNXT,PUTSGN,PREMVV                                             76668021
                                   12994 *                                                                       76674021
                                   12995 *                                                                       76680021
                                   12996 *** NOTES                                                               76686021
                                   12997 *      PMTYSW TELLS PUTSGN THAT ) IS A PHONY -- NOT TO TOUCH PRNLEV     76692021
                                   12998 *        BUT TO FLUSH OUT THE TABLES                                    76698021
                                   12999 *      LAST REMAINING OPERAND IN PNOUNT IS STORED AT PRSULT             76704021
                                   13000 *                                                                       76710021
                                   13001 *                                                                       76716021
                                   13002 *                                                                       76722021
                                   13003 *******************************************************************     76728021
-
0
 0075E8 50E0 B1E0      08A90       13005 PEMPTY ST      RCS,SVPMTY                                               76740021
 0075EC 9601 BF74      09824       13006        OI      NEXTIN,MSWON       SET GOTTEN TO ),CAUSING IT TO EMP     76746021
 0075F0 41C0 A414      0810C       13007        LA      RIN,CBRPRN         TABLES UNTIL NOUN TABLE IS REDUCE     76752021
 0075F4 9601 BF76      09826       13008        OI      PMTYSW,MSWON       TO A SINGLE OPERAND                   76758021
 0075F8 45E0 9546      0739E       13009          BAL   RCS,PUTSGN          GO CREATE ALL STRINGS                76764021
 0075FC 94FE BF76      09826       13010        NI      PMTYSW,MSWOFF                                            76770021
 007600 D701 BE7A BE7A 0972A 0972A 13011          XC    PNOUCT(LX2),PNOUCT    ZERO NOUN-COUNT                    76776021
 007606 5810 B070      08920       13012        L       RW1,APNOUN                                               76782021
 00760A 45E0 7D8E      05D46       13013        BAL     RCS,PREMVV         MOVE LAST NOUN TO PRSULT              76788021
 00760E 4140 B6F4      08FA4       13014        LA      RW4,PRSULT                                               76794021
 007612 5810 B184      08A34       13015          L     RW1,SVPTSG+NX12     (RW1 WAS SAVED  BY PUTSGN)           76800021
 007616 D701 BF66 BF66 09816 09816 13016          XC    DMAXSW(LX2),DMAXSW     REINIT FOR DMAX                   76806021
 00761C 58E0 B1E0      08A90       13017        L       RCS,SVPMTY                                               76812021
 007620 07FE                       13018          BCR   UNCOND,RCS          RETURN                               76818021
1PH40     IKFCBL40                                                                                              PAGE  272
-  LOC  OBJECT CODE    ADDR1 ADDR2  STMT   SOURCE STATEMENT                                       ASM 0201 11.03 02/14/15
0                                  13020 *                                                                       76830021
                                   13021 *=2              MISCELLANEOUS SMALL ROUTINES                           76836021
                                   13022 *                                                                       76842021
-
0
                                   13024 *                                                                       76854021
                                   13025 *                                                                       76860021
                                   13026 *                           D U P S S                                   76866021
                                   13027 *                                                                       76872021
                                   13028 *      BAL     RCS,DUPSS                                                76878021
                                   13029 *      (RETURN)                                                         76884021
                                   13030 *                                                                       76890021
                                   13031 *      CALLED BY ARITH AND PERFORM(VARYING) TO CREATE AN ADDITIONAL     76896021
                                   13032 *       SUBSCRIPT-DEFINING STRING FOR A STORE-FIELD WHICH IS IDENTI     76902021
                                   13033 *       TO AN OPERAND -- E.G., SUBTRACT X FROM Y(1).                    76908021
                                   13034 *      STRCNT  ON ENTRANCE MUST CONTAIN THE TABLE DISPLACEMENT OF T     76914021
                                   13035 *       WANTED SS STRING, WHICH MUST BE THE LAST IN THE TABLE.          76920021
                                   13036 *      PSTFLD CONTAINS THE STORE-FIELD AND IS MODIFIED.                 76926021
                                   13037 *                                                                       76932021
                             07622 13038 DUPSS  EQU     *                                                        76938021
 007622 9531 B678      08F28       13039        CLI     PSTFLD,MSS         IS STORE-FIELD SUBSCRIPTED            76944021
 007626 077E                       13040        BCR     NOTEQ,RCS           NO - EXIT                            76950021
 007628 90E4 B4F0      08DA0       13041        STM     RCS,RW4,SVDUPS                                           76956021
 00762C 4810 BE5C      0970C       13042        LH      RW1,SSNUMB       YES - DUPLICATE ITS SS-DEFINING STR     76962021
 007630 4111 0001      00001       13043          LA    RW1,DX1(RW1)          WITH NEW SSID                      76968021
 007634 4010 BE5C      0970C       13044        STH     RW1,SSNUMB                                               76974021
 007638 D201 B67D BE5C 08F2D 0970C 13045          MVC   PSTFLD+NX5(LX2),SSNUMB PUT NEW ID INTO PSTFLD            76980021
 00763E 9680 B67C      08F2C       13046          OI    PSTFLD+NX4,XX80      TURN ON HIGH ORDER BIT              76986021
 007642 5810 B090      08940       13047        L       RW1,ADFSBS                                               76992021
 007646 5841 0000      00000       13048          L     RW4,DX0(RW1)                                             76998021
 00764A 5844 0000      00000       13049          L     RW4,DX0(RW4)                                             77004021
 00764E 4A40 BF4C      097FC       13050        AH      RW4,STRCNT   RW4 GETS TABLE ADDR. OF LAST SS             77010021
 007652 1B33                       13051        SR      RW3,RW3               (STRCNT SAVED ITS DISPL.)          77016021
 007654 4334 0002      00002       13052          IC    RW3,DX2(RW4)        RW3 GETS ELEMENT COUNT,CONTROLS L    77022021
 007658 9203 1000      00000       13053          MVI   DX0(RW1),XX03       SSVERB IS 3 BYTES LONG               77028021
 00765C D201 BE72 A5A0 09722 08298 13054          MVC   BYTES(LX2),N3                                            77034021
 007662 45E0 7D16      05CCE       13055 DUPSS2 BAL     RCS,PNSRTF         INSERT ELEMENT AT NEXT AVAILABLE      77040021
 007666 4144 0000      00000       13056          LA    RW4,DX0(RW4)                                             77046021
 00766A 4A40 BE72      09722       13057        AH      RW4,BYTES                                                77052021
 00766E 1824                       13058        LR      RW2,RW4                                                  77058021
 007670 45E0 7F94      05F4C       13059        BAL     RCS,COUNT           GET COUNT OF BYTES                   77064021
 007674 D200 1000 BE73 00000 09723 13060          MVC   DX0(LX1,RW1),BYTES+NX1 GIVE TIB THE COUNT FOR TAMER INSE 77070021
 00767A 4630 980A      07662       13061        BCT     RW3,DUPSS2         GO STORE NEXT ELEMENT                 77076021
 00767E D201 B380 B094 08C30 08944 13062          MVC   SVSUBS(LX2),DSPSBS   SAVE DISP BEG OF SSID               77082021
 007684 45E0 7D16      05CCE       13063        BAL     RCS,PNSRTF                 /INSERT IN TABLE              77088021
 007688 4144 0000      00000       13064          LA    RW4,DX0(RW4)                                             77094021
 00768C 5811 0000      00000       13065          L     RW1,DX0(RW1)  GET ADDR OF TAMM                           77100021
 007690 5841 0000      00000       13066          L     RW4,DX0(RW1)        PT RW4 TO TABLE                      77106021
 007694 4A40 B380      08C30       13067        AH    RW4,SVSUBS          RW4 SHOULD POINT TO SSID               77112021
 007698 D201 4005 BE5C 00005 0970C 13068          MVC   DX5(LX2,RW4),SSNUMB  PUT NEW SSID IN 1ST OF SS PAIR      77118021
 00769E 98E4 B4F0      08DA0       13069        LM      RCS,RW4,SVDUPS                                           77124021
 0076A2 07FE                       13070        BCR     UNCOND,RCS          RETURN                               77130021
1PH40     IKFCBL40                                                                                              PAGE  273
-  LOC  OBJECT CODE    ADDR1 ADDR2  STMT   SOURCE STATEMENT                                       ASM 0201 11.03 02/14/15
0                                  13072 *                                                                       77142021
                                   13073 *                                                                       77148021
                                   13074 *                           C A L C L G                                 77154021
                                   13075 *                                                                       77160021
                                   13076 *      BAL     RCS,CALCLG                                               77166021
                                   13077 *      (RETURN NOT TYPE TO HAVE LENGTH)                                 77172021
                                   13078 *      (RETURN HAS LENGTH)                                              77178021
                                   13079 *                                                                       77184021
                                   13080 *      ON EXIT LENGTH IS STORED AT LOC LENGTH (FULL WORD)               77190021
                                   13081 *         LENGTH = 1 FOR FIGCONS                                        77196021
                                   13082 *                  4 FOR SPECIAL NAMES                                  77202021
                                   13083 *                                                                       77208021
                                   13084 *                                                                       77214021
                                   13085 *        CALCULATES THE LENGTH OF  CURRENT UNIT.                        77220021
                                   13086 *                                                                       77226021
 0076A4 9530 C000      0988B       13087 CALCLG CLI     GOTTEN,MDN          MUST BE A DN                         77232021
 0076A8 4780 985C      076B4       13088        BC      EQ,CALG00           DN, GO TO FIND LENGTH                77238021
 0076AC 9531 C000      0988B       13089        CLI     GOTTEN,MSS         OR SUBSCRIPTED DN                     77244021
 0076B0 4770 995C      077B4       13090        BC      NOTEQ,CALG01        NO, CHECK IF LITERAL                 77250021
                                   13091 * FIND THE LENGTH FROM MINOR,DN'S ONLY                                  77256021
                             076B4 13092 CALG00 EQU     *                                                        77262021
 0076B4 90E2 B3C8      08C78       13093        STM     RCS,RW2,SVSO14                                           77268021
 0076B8 181C                       13094        LR      RW1,RIN            CURR UNIT POINTER                     77274021
 0076BA 1B22                       13095        SR      RW2,RW2             ISOLATE MINOR                        77280021
 0076BC 4321 0003      00003       13096          IC    RW2,DX3(RW1)                                             77286021
 0076C0 8820 0004      00004       13097          SRL   RW2,DX4                                                  77292021
 0076C4 8920 0002      00002       13098          SLL   RW2,DX2              MINOR*4                             77298021
 0076C8 47F2 9874      076CC       13099        BC      UNCOND,SOR24(RW2)   TRANS. VECTOR BY MINOR               77304021
 0076CC 47F0 993E      07796       13100 SOR24  BC      UNCOND,SOR21        PREV. DETECTED ERROR                 77310021
 0076D0 47F0 98CA      07722       13101        BC      UNCOND,SOR16        GROUP FIX                            77316021
 0076D4 47F0 98CA      07722       13102        BC      UNCOND,SOR16        ALPHA                                77322021
 0076D8 47F0 98CA      07722       13103        BC      UNCOND,SOR16        AN                                   77328021
 0076DC 47F0 994A      077A2       13104        BC      UNCOND,SOR23        GROUP VAR                            77334021
 0076E0 47F0 98C0      07718       13105        BC      UNCOND,SOR15        RPT                                  77340021
 0076E4 47F0 98C0      07718       13106        BC      UNCOND,SOR15        STERLING RPT                         77346021
 0076E8 47F0 993E      07796       13107        BC      UNCOND,SOR21        UNASSIGNED                           77352021
 0076EC 47F0 98D8      07730       13108        BC      UNCOND,SOR17        XD                                   77358021
 0076F0 47F0 98D8      07730       13109        BC      UNCOND,SOR17        XFP                                  77364021
 0076F4 47F0 9922      0777A       13110        BC      UNCOND,SOR20        IFP                                  77370021
 0076F8 47F0 98F4      0774C       13111        BC      UNCOND,SOR19        BIN                                  77376021
 0076FC 47F0 98E2      0773A       13112        BC      UNCOND,SOR18        ID                                   77382021
 007700 47F0 98B4      0770C       13113        BC      UNCOND,SOR14        STERLING NON-RPT                     77388021
 007704 47F0 993E      07796       13114        BC      UNCOND,SOR21        UNASSIGNED                           77394021
 007708 47F0 993E      07796       13115        BC      UNCOND,SOR21        UNASSIGNED                           77400021
 00770C 4321 000A      0000A       13116 SOR14    IC    RW2,DX10(RW1)        L IS IN BITS 83-87                  77406021
 007710 5420 BE40      096F0       13117        N     RW2,HEX1F             ZERO ALL BUT LOW ORDER 5 BITS        77412021
 007714 47F0 9932      0778A       13118        BC      UNCOND,SOR22        GO TO LENGTH FOUND EXIT              77418021
 007718 1B22                       13119 SOR15  SR      RW2,RW2                                                  77424021
 00771A 4321 000B      0000B       13120          IC    RW2,DX11(RW1)        LENGTH IS IN 88-95                  77430021
 00771E 47F0 9932      0778A       13121        BC      UNCOND,SOR22        GO TO LENGTH FOUND EXIT              77436021
 007722 D201 BE30 1008 096E0 00008 13122 SOR16    MVC   HTEMP(LX2),DX8(RW1)   L IS IN BITS 64-79                 77442021
 007728 4820 BE30      096E0       13123        LH    RW2,HTEMP                                                  77448021
 00772C 47F0 9932      0778A       13124        BC      UNCOND,SOR22        GO TO LENGTH FOUND EXIT              77454021
 007730 1B22                       13125 SOR17  SR      RW2,RW2             L IS IN BITS 72-79                   77460021
 007732 4321 0009      00009       13126          IC    RW2,DX9(RW1)                                             77466021
1PH40     IKFCBL40                                                                                              PAGE  274
-  LOC  OBJECT CODE    ADDR1 ADDR2  STMT   SOURCE STATEMENT                                       ASM 0201 11.03 02/14/15
0007736 47F0 9932      0778A       13127        BC      UNCOND,SOR22        GO TO LENGTH FOUND EXIT              77472021
 00773A 1B22                       13128 SOR18  SR      RW2,RW2             P.D.9 COUNT IS IN 72-79              77478021
 00773C 4321 0009      00009       13129          IC    RW2,DX9(RW1)         CONVERT TO BYTES                    77484021
 007740 4122 0002      00002       13130          LA    RW2,DX2(RW2)                                             77490021
 007744 8A20 0001      00001       13131          SRA   RW2,DX1              L= (C+2)/2                          77496021
 007748 47F0 9932      0778A       13132        BC      UNCOND,SOR22        GO TO LENGTH FOUND EXIT              77502021
 00774C 1B22                       13133 SOR19  SR      RW2,RW2             BIN 9 COUNT IS IN 72-79              77508021
 00774E 4321 0009      00009       13134          IC    RW2,DX9(RW1)         CONVERT TO BYTES                    77514021
 007752 4920 A5A4      0829C       13135        CH      RW2,N5                                                   77520021
 007756 4740 9912      0776A       13136        BC      LO,SOR19A           2 BYTES                              77526021
 00775A 4920 A5AA      082A2       13137        CH      RW2,N10                                                  77532021
 00775E 4740 991A      07772       13138        BC      LO,SOR19B           4 BYTES                              77538021
 007762 4120 0008      00008       13139          LA    RW2,DX8              8 BYTES                             77544021
 007766 47F0 9932      0778A       13140        BC      UNCOND,SOR22        GO TO LENGTH FOUND EXIT              77550021
 00776A 4120 0002      00002       13141 SOR19A   LA    RW2,DX2                                                  77556021
 00776E 47F0 9932      0778A       13142        BC      UNCOND,SOR22        GO TO LENGTH FOUND EXIT              77562021
 007772 4120 0004      00004       13143 SOR19B   LA    RW2,DX4                                                  77568021
 007776 47F0 9932      0778A       13144        BC      UNCOND,SOR22        GO TO LENGTH FOUND EXIT              77574021
 00777A 4120 0004      00004       13145 SOR20    LA    RW2,DX4              FL.PT.,PREC IS BIT 70               77580021
 00777E 9101 1009      00009       13146          TM    DX9(RW1),XX01        TEST PREC BIT                       77586021
 007782 4780 9932      0778A       13147        BC      ZERO,SOR22          SINGLE,4 BYTES                       77592021
 007786 4120 0008      00008       13148          LA    RW2,DX8              DOUBLE,8 BYTES                      77598021
 00778A 5020 BE3C      096EC       13149 SOR22  ST      RW2,LENGTH          SAVE LENGTH                          77604021
 00778E 98E2 B3C8      08C78       13150        LM      RCS,RW2,SVSO14                                           77610021
 007792 47FE 0004      00004       13151          BC    UNCOND,DX4(RCS)      LENGTH FOUND EXIT                   77616021
 007796 1B22                       13152 SOR21  SR      RW2,RW2             ERROR                                77622021
 007798 5020 BE3C      096EC       13153        ST      RW2,LENGTH          MAKE LENGTH = 0                      77628021
 00779C 98E2 B3C8      08C78       13154        LM      RCS,RW2,SVSO14                                           77634021
 0077A0 07FE                       13155        BCR     UNCOND,RCS          ERROR EXIT                           77640021
 0077A2 D201 BE30 1008 096E0 00008 13156 SOR23    MVC   HTEMP(LX2),DX8(RW1)   VLC IS IN BITS 64-79               77646021
 0077A8 4820 BE30      096E0       13157        LH    RW2,HTEMP                                                  77652021
 0077AC 5420 BE44      096F4       13158        N       RW2,SORMSK          ZERO HI ORDER BITS                   77658021
 0077B0 47F0 9932      0778A       13159        BC      UNCOND,SOR22        GO TO LENGTH FOUND EXIT              77664021
 0077B4 9532 C000      0988B       13160 CALG01 CLI     GOTTEN,MNLIT                                             77670021
 0077B8 4780 998A      077E2       13161        BC      EQ,CALG02           NUM LIT                              77676021
 0077BC 9533 C000      0988B       13162        CLI     GOTTEN,MFLIT                                             77682021
 0077C0 4780 998A      077E2       13163        BC      EQ,CALG02           FL PT LIT                            77688021
 0077C4 9534 C000      0988B       13164        CLI     GOTTEN,MALIT                                             77694021
 0077C8 4780 998A      077E2       13165        BC      EQ,CALG02           AN LIT                               77700021
 0077CC 9575 C000      0988B       13166        CLI     GOTTEN,MFGCON                                            77706021
 0077D0 4770 9998      077F0       13167        BC      NOTEQ,CALG03        NOT A FIGCON                         77712021
 0077D4 9201 BE3F      096EF       13168          MVI   LENGTH+NX3,XX01      FIG-CON, LENGTH = 1                 77718021
 0077D8 D702 BE3C BE3C 096EC 096EC 13169 CALG04   XC    LENGTH(LX3),LENGTH                                       77724021
 0077DE 47FE 0004      00004       13170          BC    UNCOND,DX4(RCS)      TAKE 'YES' EXIT                     77730021
 0077E2 90E2 B3C8      08C78       13171 CALG02 STM     RCS,RW2,SVSO14                                           77736021
 0077E6 1B22                       13172        SR      RW2,RW2                                                  77742021
 0077E8 4320 C001      0988C       13173          IC    RW2,GOTTEN+NX1                                           77748021
 0077EC 47F0 9932      0778A       13174        BC      UNCOND,SOR22        GO TO LENGTH FOUND EXIT              77754021
 0077F0 9579 C000      0988B       13175 CALG03 CLI     GOTTEN,MSPDN                                             77760021
 0077F4 077E                       13176        BCR     NOTEQ,RCS           NOT A TYPE WORD THAT HAS A LENGT     77766021
 0077F6 9204 BE3F      096EF       13177          MVI   LENGTH+NX3,XX04      SP NAMES HAVE LENGTH=4              77772021
 0077FA 47F0 9980      077D8       13178        BC      UNCOND,CALG04       GO TO EXIT - OK                      77778021
1PH40     IKFCBL40                                                                                              PAGE  275
-  LOC  OBJECT CODE    ADDR1 ADDR2  STMT   SOURCE STATEMENT                                       ASM 0201 11.03 02/14/15
0                                  13180 *                                                                       77790021
                                   13181 *                                 M I N L I T                           77796021
                                   13182 *                                                                       77802021
                                   13183 *      BAL     RCS,MINLIT                                               77808021
                                   13184 *      (RETURN)                                                         77814021
                                   13185 *                                                                       77820021
                                   13186 *      REVERSES SIGN OF NUMERIC OR FLOATING LITERAL IN INPUT            77826021
                                   13187 *                                                                       77832021
                                   13188 *                                                                       77838021
 0077FE 90E2 B264      08B14       13189 MINLIT STM     RCS,RW2,SVMINL                                           77844021
 007802 9532 C000      0988B       13190        CLI     GOTTEN,MNLIT       IS IT NUMERIC                         77850021
 007806 4770 99D8      07830       13191        BC      NOTEQ,MINLT2        NO                                   77856021
 00780A 182C                       13192        LR      RW2,RIN                                                  77862021
 00780C 45E0 7F94      05F4C       13193        BAL     RCS,COUNT           GET BYTE COUNT                       77868021
 007810 4A20 BE72      09722       13194        AH      RW2,BYTES            YES                                 77874021
 007814 0620                       13195        BCTR  RW2,RA0              POINT RW2 TO LAST BYTE                77880021
 007816 910F 2000      00000       13196          TM    DX0(RW2),XX0F       LITERAL UNSIGNED OR +                77886021
 00781A 47E0 99CE      07826       13197        BC    NOTONE,MINLT1           'C'                                77892021
 00781E 94FD 2000      00000       13198          NI    DX0(RW2),XXFD            CHANGE TO D                     77898021
 007822 47F0 99D2      0782A       13199         B      *+NX8               GO TO EXIT                           77904021
 007826 9701 2000      00000       13200 MINLT1   XI    DX0(RW2),MINMSK      C TO D                              77910021
 00782A 98E2 B264      08B14       13201        LM      RCS,RW2,SVMINL                                           77916021
 00782E 07FE                       13202        BCR     UNCOND,RCS          RETURN                               77922021
 007830 9780 C002      00002       13203 MINLT2   XI    DX2(RIN),XX80       FLOATING                             77928021
 007834 07FE                       13204        BCR     UNCOND,RCS          RETURN                               77934021
-
                                   13206 *                                                                       77946021
                                   13207 *                           D E C M A X                                 77952021
                                   13208 *                                                                       77958021
                                   13209 *                                                                       77964021
                                   13210 *      BAL     RCS,DECMAX                                               77970021
                                   13211 *      (RETURN)                                                         77976021
                                   13212 *                                                                       77982021
                                   13213 *      CALLED BY ARITHMETIC VERBS AND IF TO UPDATE DMAX FIELD OF EV     77988021
                                   13214 *        AFTER A LEGAL OPERAND IS FOUND AND ITS SCALING FACTOR HAS      77994021
                                   13215 *        BEEN PLACED IN DCURR.                                          78000021
                                   13216 *                                                                       78006021
                                   13217 *                                                                       78012021
                             07836 13218 DECMAX EQU     *                                                        78018021
 007836 D500 BEE5 BE66 09795 09716 13219          CLC   DMAX(LX1),DCURR     IS MAX SCALING LOWER THAN CURRENT    78024021
 00783C 07BE                       13220        BCR     NOTLO,RCS          NO - EXIT                             78030021
 00783E D200 BEE5 BE66 09795 09716 13221          MVC   DMAX(LX1),DCURR     YES - MAKE CURRENT SCALING THE MA    78036021
 007844 07FE                       13222        BCR     UNCOND,RCS          YES, EXIT                            78042021
-
                                   13224 *                                                                       78054021
                                   13225 *                                                                       78060021
                                   13226 *                                 P M K T A L                           78066021
                                   13227 *                                                                       78072021
                                   13228 *      BAL     RCS,PMKTAL                                               78078021
                                   13229 *      (RETURN)                                                         78084021
                                   13230 *                                                                       78090021
1PH40     IKFCBL40                                                                                              PAGE  276
-  LOC  OBJECT CODE    ADDR1 ADDR2  STMT   SOURCE STATEMENT                                       ASM 0201 11.03 02/14/15
0                                  13231 *      CALLED WHEN AN OPERAND WHICH SHOULD BE NUMERIC IS FOUND TO       78096021
                                   13232 *        HAVE THE WRONG ATTRIBUTES                                      78102021
                                   13233 *                                                                       78108021
                                   13234 *      WRITES ERROR MESSAGE                                             78114021
                                   13235 *      SUBSTITUTES 'TALLY' FOR OFFENDING OPERAND IN INPUT STREAM        78120021
                                   13236 *                                                                       78126021
                                   13237 *** SUBROUTINES CALLED                                                  78132021
                                   13238 *      ERROR                                                            78138021
                                   13239 *                                                                       78144021
                                   13240 *                                                                       78150021
                                   13241 *                                                                       78156021
 007846 50E0 B278      08B28       13242 PMKTAL ST      RCS,SVMKTA                                               78162021
 00784A 45E0 9BDA      07A32       13243        BAL     RCS,ERROR           WRITE ERROR MESSAGE                  78168021
 00784E 4110 A06F      07D67       13244        LA      RW1,ELST13                                               78174021
 007852 58E0 B278      08B28       13245        L       RCS,SVMKTA                                               78180021
                             07856 13246 PMKTA2 EQU     *                                                        78186021
 007856 41C0 A4D0      081C8       13247        LA      RIN,CBTALY                                               78192021
 00785A D700 BE66 BE66 09716 09716 13248          XC    DCURR(LX1),DCURR    MAKE DCURR = 0                       78198021
 007860 D201 BE64 A580 09714 08278 13249          MVC   MODE(LX2),TALMOD    PROVIDE ITS MODE                     78204021
 007866 07FE                       13250        BCR     UNCOND,RCS          EXIT                                 78210021
-
                                   13252 *                                                                       78222021
                                   13253 *                             P C H C N T                               78228021
                                   13254 *                                                                       78234021
                                   13255 *        BAL   RCS,PCHCNT                                               78240021
                                   13256 *        DC    XL2'NEW-COUNT'                                           78246021
                                   13257 *        (RETURN)                                                       78252021
                                   13258 *                                                                       78258021
                                   13259 *      CHANGES ELEMENT-COUNT OF FIRST VERB-STRING TO VALUE AT 1(RCS     78264021
                                   13260 *                                                                       78270021
 007868 9012 B1E4      08A94       13261 PCHCNT   STM   RW1,RW2,SVPCHG                                           78276021
 00786C 5810 B048      088F8       13262          L     RW1,ASTRNG          GIVE RW1 ADDR. OF TIB                78282021
 007870 5811 0000      00000       13263          L     RW1,DX0(RW1)           .  RW1   .   .  TAMM              78288021
 007874 5821 0000      00000       13264          L     RW2,DX0(RW1)           .  RW2  .    .  TABLE             78294021
 007878 D200 2002 E001 00002 00001 13265          MVC   DX2(LX1,RW2),DX1(RCS) MOVE NEW COUNT OT BYTE-3 OF STRI   78300021
 00787E 9812 B1E4      08A94       13266          LM    RW1,RW2,SVPCHG                                           78306021
 007882 47FE 0002      00002       13267          BC    UNCOND,DX2(RCS)     EXIT                                 78312021
-
                                   13269 *                                                                       78324021
                                   13270 *                                                                       78330021
                                   13271 *                             P U P I R                                 78336021
                                   13272 *                                                                       78342021
                                   13273 *        BAL   RCS,PUPIR                                                78348021
                                   13274 *        (RETURN)                                                       78354021
                                   13275 *                                                                       78360021
                                   13276 *        INCREMENTS  INTERNAL-REGISTER IDENTIFIER BY 1                  78366021
                                   13277 *                                                                       78372021
                                   13278 *                                                                       78378021
 007886 5010 B1EC      08A9C       13279 PUPIR    ST    RW1,SVPUPI                                               78384021
 00788A 4810 BE12      096C2       13280          LH    RW1,IR+NX1                                               78390021
 00788E 4111 0001      00001       13281          LA    RW1,DX1(RW1)                                             78396021
1PH40     IKFCBL40                                                                                              PAGE  277
-  LOC  OBJECT CODE    ADDR1 ADDR2  STMT   SOURCE STATEMENT                                       ASM 0201 11.03 02/14/15
0007892 4010 BE12      096C2       13282          STH   RW1,IR+NX1                                               78402021
 007896 5810 B1EC      08A9C       13283          L     RW1,SVPUPI                                               78408021
 00789A 9180 BE12      096C2       13284          TM    IR+NX1,XX80         RETURN TO 1 AFTER 7FFF               78414021
 00789E 078E                       13285        BCR     ZERO,RCS            RETURN - HIGH ORDER BIT NOT ON       78420021
 0078A0 D201 BE12 A59C 096C2 08294 13286          MVC   IR+NX1(LX2),N1                                           78426021
 0078A6 07FE                       13287          BCR   UNCOND,RCS          SET IR BACK TO 1 AND EXIT            78432021
                                   13288 *                                                                       78438021
                                   13289 *                                                                       78444021
                                   13290 *      PUPTR                                                            78450021
                                   13291 *                                                                       78456021
                                   13292 *    BAL  RCS,PUPTR                                                     78462021
                                   13293 *   (RETURN)                                                            78468021
                                   13294 *                                                                       78474021
                                   13295 * CALLED BY ARITHMETIC VERB ANALYZER TO INCREMENT TEMPORARY             78480021
                                   13296 *   REGISTER IDENTIFIER BY 1                                            78486021
                                   13297 *                                                                       78492021
                                   13298 *                                                                       78498021
 0078A8 5010 B520      08DD0       13299 PUPTR  ST  RW1,SVPUPTR                                                  78504021
 0078AC 4810 BE16      096C6       13300          LH    RW1,TR+NX1                                               78510021
 0078B0 4111 0001      00001       13301          LA    RW1,DX1(RW1)                                             78516021
 0078B4 4010 BE16      096C6       13302          STH   RW1,TR+NX1                                               78522021
 0078B8 5810 B520      08DD0       13303        L RW1,SVPUPTR                                                    78528021
 0078BC 9180 BE16      096C6       13304          TM    TR+NX1,XX80                                              78534021
 0078C0 078E                       13305        BCR ZERO,RCS                RETURN - HIGH ORDER BIT NOT ON       78540021
 0078C2 D201 BE16 A59C 096C6 08294 13306          MVC   TR+NX1(LX2),N1                                           78546021
 0078C8 07FE                       13307        BCR  UNCOND,RCS             SET TR BACK TO 1 AND EXIT            78552021
-
                                   13309 *                                                                       78564021
                                   13310 *                                                                       78570021
                                   13311 *                              P U P L G N                              78576021
                                   13312 *                                                                       78582021
                                   13313 *      BAL     RCS,PUPLGN                                               78588021
                                   13314 *      (RETURN)                                                         78594021
                                   13315 *                                                                       78600021
                                   13316 *      INCREMENTS NXTLGN (ID OF GN'S) BY 1.                             78606021
                                   13317 *      NXTLGN IS INITIALIZED FROM COMMON GNCTR AT PHINIT, AND RETUR     78612021
                                   13318 *        TO COMMON AT EOF                                               78618021
                                   13319 *                                                                       78624021
                                   13320 *                                                                       78630021
 0078CA 5010 B1F4      08AA4       13321 PUPLGN   ST    RW1,SVPLGN                                               78636021
 0078CE 4810 BE1C      096CC       13322        LH      RW1,NXTLGN                                               78642021
 0078D2 4111 0001      00001       13323          LA    RW1,DX1(RW1)                                             78648021
 0078D6 4010 BE1C      096CC       13324        STH     RW1,NXTLGN                                               78654021
 0078DA 5810 B1F4      08AA4       13325          L     RW1,SVPLGN                                               78660021
 0078DE 07FE                       13326          BCR   UNCOND,RCS          RETURN                               78666021
                                   13327 *                                                                       78672021
                                   13328 *         EOPROC                                                        78678021
                                   13329 *                                                                       78684021
                                   13330 *   BAL   RCS,EOPROC                                                    78690021
                                   13331 *   (RETURN)                                                            78696021
                                   13332 *                                                                       78702021
                                   13333 *  GETS A GN AND ATTACHES IT TO RECORDNAME ATTRIBUTES IMMEDIATELY       78708021
                                   13334 *   FOLLOWING DICTIONARY POINTER.                                       78714021
1PH40     IKFCBL40                                                                                              PAGE  278
-  LOC  OBJECT CODE    ADDR1 ADDR2  STMT   SOURCE STATEMENT                                       ASM 0201 11.03 02/14/15
0                                  13335 *     CALLED BY WRITE WHEN EOP OPTION IS FOUND.                         78720021
                                   13336 *   IF NXTSNT IS NOT 0, CHANGES GNREFS TO NEXT SENTENCE IN WRITE        78726021
                                   13337 *   STRING AND IN GNX TO GN NUMBER IN NXTSNT.                           78732021
 0078E0 50E0 B27C      08B2C       13338 EOPROC ST    RCS,EOPSV                                                  78738021
 0078E4 45E0 8C82      06C3A       13339        BAL   RCS,ISNXTS            DOES 'NEXT SENTENCE' FOLLOW EOP      78744021
 0078E8 47F0 9AA8      07900       13340        B     EOPROC1               NO     OK                            78750021
 0078EC 4100 A518      08210       13341        LA    RA0,CBEOP             YES                                  78756021
 0078F0 45E0 9BDA      07A32       13342        BAL   RCS,ERROR             WRITE MSG AND IGNORE OPTIONN         78762021
 0078F4 4110 A1E6      07EDE       13343        LA    RW1,ELST4B                                                 78768021
 0078F8 94FE BF81      09831       13344        NI    EOPSW,MSWOFF                                               78774021
 0078FC 47F0 9B18      07970       13345        BC    UNCOND,EOPR1          EXIT WITH EOPSW OFF                  78780021
 007900                            13346 EOPROC1 DS    0H                                                        78786021
 007900 45E0 9A72      078CA       13347        BAL   RCS,PUPLGN            GET A GN NUMBER                      78792021
 007904 D201 BE02 BE1C 096B2 096CC 13348          MVC   RGN+NX1(LX2),NXTLGN   GIVE IT A GNREF HEADER             78798021
 00790A 4140 B5FA      08EAA       13349        LA    RW4,PRIGHT            PRIGHT WILL HOLD RECDNM WITH GN      78804021
 00790E 5810 B048      088F8       13350        L    RW1,ASTRNG             RECDNM IN STRING IS LAST             78810021
 007912 45E0 7D8E      05D46       13351        BAL   RCS,PREMVV            REMOVE IT FROM STRING                78816021
 007916 4140 0000      00000       13352          LA    RW4,DX0                                                  78822021
 00791A 1B22                       13353        SR    RW2,RW2                                                    78828021
 00791C 4320 B5FB      08EAB       13354          IC    RW2,PRIGHT+NX1       GET CT # BYTES FOLLOW IN RECD       78834021
 007920 1A42                       13355        AR    RW4,RW2                                                    78840021
 007922 4144 0002      00002       13356          LA    RW4,DX2(RW4)         RW4 PTS TO NEXT BYTE AFTER DICTPT   78846021
 007926 D202 4000 BE01 00000 096B1 13357          MVC   DX0(LX3,RW4),RGN      ATTACH RGN                         78852021
 00792C 4122 0003      00003       13358          LA    RW2,DX3(RW2)                                             78858021
 007930 4220 B5FB      08EAB       13359          STC   RW2,PRIGHT+NX1       INCREMENT CT FIELD TO REFLECT RGN   78864021
 007934 4140 B5FA      08EAA       13360        LA    RW4,PRIGHT                                                 78870021
 007938 45E0 8000      05FB8       13361        BAL   RCS,STOR45            STORE AGAIN IN STRING                78876021
 00793C D501 BE18 A598 096C8 08290 13362          CLC   NXTSNT(LX2),N0       IS THERE ANYTHING IN NXTSNT         78882021
 007942 4780 9B18      07970       13363        BE   EOPR1                  NO- EXIT                             78888021
 007946 45E0 7FCE      05F86       13364        BAL   RCS,GOBACK            GO BACK                              78894021
 00794A 0004                       13365        DC    XL2'4'                CHANGE GN IN WRITE TO PT TO NXTSN    78900021
 00794C 5820 BC74      09524       13366        L    RW2,ADNTRY                                                  78906021
 007950 D201 2001 BE18 00001 096C8 13367          MVC   DX1(LX2,RW2),NXTSNT                                      78912021
 007956 4122 0004      00004       13368          LA    RW2,DX4(RW2)         SEE IF NEXT DOP GNREF TOO           78918021
 00795A D500 2000 BE01 00000 096B1 13369          CLC   DX0(LX1,RW2),GNREF    IS IT                              78924021
 007960 4770 9B12      0796A       13370        BNE    EOPR0                NO                                   78930021
 007964 D201 2001 BE18 00001 096C8 13371          MVC   DX1(LX2,RW2),NXTSNT   YES- REPLACE WITH NXTSNT           78936021
 00796A D201 BD4C BE18 095FC 096C8 13372 EOPR0    MVC   GNX(LX2),NXTSNT      MOVE NXTSNT ID TO GNX               78942021
 007970 58E0 B27C      08B2C       13373 EOPR1  L    RCS,EOPSV                                                   78948021
 007974 07FE                       13374        BCR   UNCOND,RCS            RETURN                               78954021
                                   13375 *                                                                       78960021
                                   13376 *                                                                       78966021
                                   13377 *                                 P U P V N C                           78972021
                                   13378 *                                                                       78978021
                                   13379 *      BAL     RCS,PUPVNC                                               78984021
                                   13380 *      (RETURN)                                                         78990021
                                   13381 *                                                                       78996021
                                   13382 *      INCREMENTS VNCTR IN COMTBL BY 1, STORES UPDATED VN NUMBER AT     79002021
                                   13383 *        HALF-WORD VNNUM                                                79008021
                                   13384 *                                                                       79014021
                                   13385 *                                                                       79020021
                             07976 13386 PUPVNC EQU     *                                                        79026021
 007976 9012 B1F8      08AA8       13387        STM     RW1,RW2,SVPUPV                                           79032021
 00797A 5810 A328      08020       13388        L       RW1,COSADR                                               79038021
 00797E 4820 120E      0020E       13389        LH    RW2,VNCTR                                                  79044021
1PH40     IKFCBL40                                                                                              PAGE  279
-  LOC  OBJECT CODE    ADDR1 ADDR2  STMT   SOURCE STATEMENT                                       ASM 0201 11.03 02/14/15
0007982 4122 0001      00001       13390          LA    RW2,DX1(RW2)                                             79050021
 007986 4020 120E      0020E       13391        STH   RW2,VNCTR                                                  79056021
 00798A 4020 BEC8      09778       13392        STH     RW2,VNNUM                                                79062021
 00798E 9812 B1F8      08AA8       13393        LM      RW1,RW2,SVPUPV                                           79068021
 007992 07FE                       13394        BCR     UNCOND,RCS          RETURN                               79074021
-
                                   13396 *                                                                       79086021
                                   13397 *                               N E W N X T                             79092021
                                   13398 *                                                                       79098021
                                   13399 *      BAL     RCS,NEWNXT                                               79104021
                                   13400 *      (RETURN)                                                         79110021
                                   13401 *                                                                       79116021
                                   13402 *      TESTS NXTSNT                                                     79122021
                                   13403 *      IF NON-ZERO EXITS                                                79128021
                                   13404 *      IF ZERO,UPDATES LGN AND STORES ITS DISPLACEMENT IN NXTSNT        79134021
                                   13405 *                                                                       79140021
                                   13406 *** SUBROUTINES CALLED                                                  79146021
                                   13407 *      PUPLGN                                                           79152021
                                   13408 *                                                                       79158021
                                   13409 *                                                                       79164021
                                   13410 *                                                                       79170021
                             07994 13411 NEWNXT   EQU   *                                                        79176021
 007994 D501 BE18 A598 096C8 08290 13412          CLC   NXTSNT(LX2),N0      IS NXTSNT 0                          79182021
 00799A 077E                       13413          BCR   NOTEQ,RCS           NO - ID ALREADY STORED               79188021
 00799C 50E0 B1F0      08AA0       13414          ST    RCS,SVNWNX          YES- NO ID YET                       79194021
 0079A0 45E0 9A72      078CA       13415          BAL   RCS,PUPLGN           GET NEXT ID FOR LGN                 79200021
 0079A4 D201 BE18 BE1C 096C8 096CC 13416          MVC   NXTSNT(LX2),NXTLGN    MOVE TO NXTSNT                     79206021
 0079AA 58E0 B1F0      08AA0       13417          L     RCS,SVNWNX                                               79212021
 0079AE 07FE                       13418          BCR   UNCOND,RCS          RETURN                               79218021
1PH40     IKFCBL40                                                                                              PAGE  280
-  LOC  OBJECT CODE    ADDR1 ADDR2  STMT   SOURCE STATEMENT                                       ASM 0201 11.03 02/14/15
0                                  13420 *                                                                 5961  79230021
                                   13421 *                                                                 5961  79236021
                                   13422 *       IFSRCH1                                                   5961  79242021
                                   13423 *                                                                 5961  79248021
                                   13424 *                                                                 5961  79254021
                                   13425 *       BAL  RCS,IFSRCH1                                          5961  79260021
                                   13426 *       (RETURN)                                                  5961  79266021
                                   13427 *                                                                 5961  79272021
                                   13428 *                                                                 5961  79278021
                                   13429 *     THIS ROUTINE SAVES ENTRIES (IF ANY) IN PSHTBL               5961  79284021
                                   13430 *     WHEN PROCESSING IF...SEARCH/SEARCH ALL                      5961  79290021
                                   13431 *                                                                 5961  79296021
                                   13432 *                                                                 5961  79302021
 0079B0                            13433 IFSRCH1 DS   0H                                                   5961  79308021
 0079B0 9101 BFDA      0988A       13434        TM    IFSW1,MSWON      ARE WE IN IF                        5961  79314021
 0079B4 478E 0000      00000       13435        BZ    DX0(RCS)         NO                                  5961  79320021
 0079B8 5810 B088      08938       13436        L     RW1,APUSH        TIB                                 5961  79326021
 0079BC 5811 0000      00000       13437        L     RW1,DX0(RW1)     TAMM                                5961  79332021
 0079C0 4821 0004      00004       13438        LH    RW2,DX4(RW1)     DISPLACEMENT                        5961  79338021
 0079C4 1222                       13439        LTR   RW2,RW2          IS IT ZERO                          5961  79344021
 0079C6 478E 0000      00000       13440        BZ    DX0(RCS)         YES                                 5961  79350021
 0079CA 4020 B57A      08E2A       13441        STH   RW2,SAVLNG       SAVE LENGTH                         5961  79356021
 0079CE 5811 0000      00000       13442        L     RW1,DX0(RW1)     TABLE ADDRESS                       5961  79362021
 0079D2 4420 9B80      079D8       13443        EX    RW2,PSHMOVE      SAVE LABELS                         5961  79368021
 0079D6 07FE                       13444        BR    RCS              RETURN                              5961  79374021
 0079D8 D200 B55C 1000 08E0C 00000 13445 PSHMOVE MVC  PSHSAVE(LX1),DX0(RW1)   SAVE ENTRIES IN PSHTBL       5961  79380021
                                   13446 *                                                                 5961  79386021
                                   13447 *                                                                 5961  79392021
                                   13448 *      IFSRCH                                                     5961  79398021
                                   13449 *                                                                 5961  79404021
                                   13450 *                                                                 5961  79410021
                                   13451 *       BAL   RCS,IFSRCH                                          5961  79416021
                                   13452 *      (RETURN)                                                   5961  79422021
                                   13453 *                                                                 5961  79428021
                                   13454 *                                                                 5961  79434021
                                   13455 *                                                                 5961  79440021
                                   13456 *     THIS ROUTINE DOES A SPECIAL PROCESS FOR IF...SEARCH         5961  79446021
                                   13457 *     IT CHECKS IF THERE WAS ANY GN SAVED IN PSHSAVE              5961  79452021
                                   13458 *        YES - MOVES SAVED GN BACK TO PSHTBL AND RETURN           5961  79458021
                                   13459 *        NO - RETURN TO CALLER                                    5961  79464021
                                   13460 *                                                                 5961  79470021
                                   13461 *                                                                 5961  79476021
                                   13462 *                                                                 5961  79482021
 0079DE                            13463 IFSRCH DS    0H                                                   5961  79488021
 0079DE 9101 BFDA      0988A       13464        TM    IFSW1,MSWON      IS IF SWITCH ON                     5961  79494021
 0079E2 478E 0000      00000       13465        BZ    DX0(RCS)         RETURN                              5961  79500021
 0079E6 94FE BFDA      0988A       13466        NI    IFSW1,MSWOFF     TURN OFF IF SWITCH                  5961  79506021
 0079EA 4820 B57A      08E2A       13467        LH    RW2,SAVLNG       GET SAVED LENGTH                    5961  79512021
 0079EE 1222                       13468        LTR   RW2,RW2          IS LENGTH ZERO                      5961  79518021
 0079F0 478E 0000      00000       13469        BZ    DX0(RCS)         RETURN                              5961  79524021
 0079F4 5810 B088      08938       13470        L     RW1,APUSH        TIB                                 5961  79530021
 0079F8 5811 0000      00000       13471        L     RW1,DX0(RW1)     TAMM                                5961  79536021
 0079FC 4020 B08C      0893C       13472        STH   RW2,DSPUSH       STORE LENGTH TO PSHTBL DISP         5961  79542021
 007A00 4021 0004      00004       13473        STH   RW2,DX4(RW1)     STORE LENGTH INTO TAMM              5961  79548021
 007A04 5811 0000      00000       13474        L     RW1,DX0(RW1)     TABLE ADDRESS                       5961  79554021
1PH40     IKFCBL40                                                                                              PAGE  281
-  LOC  OBJECT CODE    ADDR1 ADDR2  STMT   SOURCE STATEMENT                                       ASM 0201 11.03 02/14/15
0007A08 4420 9BBC      07A14       13475        EX    RW2,MOVGN        EXECUTE MOVE GN                     5961  79560021
 007A0C D701 B57A B57A 08E2A 08E2A 13476        XC    SAVLNG(LX2),SAVLNG    ZERO OUT LENGTH                5961  79566021
 007A12 07FE                       13477        BR    RCS                                                  5961  79572021
 007A14 D200 1000 B55C 00000 08E0C 13478 MOVGN  MVC   DX0(LX1,RW1),PSHSAVE  MOVE SAVED LABELS BACK         5961  79578021
                                   13479 *                                                                       79584021
1PH40     IKFCBL40                                                                                              PAGE  282
-  LOC  OBJECT CODE    ADDR1 ADDR2  STMT   SOURCE STATEMENT                                       ASM 0201 11.03 02/14/15
0                                  13481 *=1    ERROR   ERROR MESSAGE ROUTINE                                    79596021
                                   13482 *                             E R R O R                                 79602021
                                   13483 *                                                                       79608021
                                   13484 *                                                                       79614021
                                   13485 *      (LA     RA0,PARAM)         IF PARAM LIST CONTAINS DC   AL3'1     79620021
                                   13486 *      .                                                                79626021
                                   13487 *      .                                                                79632021
                                   13488 *      BAL     RCS,ERROR       (OR  BAL RCS,ERONCE  OR  BAL RCS,ERR     79638021
                                   13489 *      LA      RW1,PARAMETER-LIST                                       79644021
                                   13490 *      (RETURN)                                                         79650021
                                   13491 *                                                                       79656021
                                   13492 *                                                                       79662021
                                   13493 *** SUBROUTINES CALLED                                                  79668021
                                   13494 *      COUNT,GENDAT                                                     79674021
                                   13495 *                                                                       79680021
                                   13496 *** NOTES                                                               79686021
                                   13497 *          PARAMETER LIST HAS THE FOLLOWING FORM                        79692021
                                   13498 *      DC      XL3'PZMMSN'                                              79698021
                                   13499 *      DC      AL3(PARAM)                                               79704021
                                   13500 *      .                                                                79710021
                                   13501 *      .                                                                79716021
                                   13502 *      DC      AL3(PARAM)                                               79722021
                                   13503 *        WHERE   MM IS MESSAGE NUMBER                                   79728021
                                   13504 *                 S    SEVERITY CODE                                    79734021
                                   13505 *                 N    NUMBER OF PARAMETERS                             79740021
                                   13506 *                 Z    CONCLUSION NUMBER FOR UNDEFINED                  79746021
                                   13507 *                 P    CONCLUSION PARAMETER POINTER FOR UNDEFINED       79752021
                                   13508 *                                                                       79758021
                                   13509 *        IF THE ADDRESS OF A PARAMETER IS 0, ERROR WILL TAKE IT AS      79764021
                                   13510 *          CURRENT INPUT, I.E., THE ADDRESS CONTAINED IN PNTIN.         79770021
                                   13511 *                                                                       79776021
                                   13512 *       IF THE ADDRESS OF A PARAMETER IS 1, ERROR WILL TAKE ITS REA     79782021
                                   13513 *         ADDRESS TO BE IN RA0.                                         79788021
                                   13514 *                                                                       79794021
                                   13515 *        IF THE ADDRESS OF A PARAMETER IS 2, ERROR WILL INTERPRET I     79800021
                                   13516 *         AS THE VERB FOR THE CURRENT STATEMENT.                        79806021
                                   13517 *                                                                       79812021
                                   13518 *        IF THE ADDRESS OF A PARAMETER IS 3,4, OR 5, ERROR WILL TAK     79818021
                                   13519 *          IT AS THE MODE OF AN OPERAND AND PICK IT UP FROM LOC. MO     79824021
                                   13520 *          MODEL, OR MODER, RESPECTIVELY.                               79830021
                                   13521 *                                                                       79836021
                                   13522 *        SOME MESSAGES HAVE NO PARAMETERS                               79842021
                                   13523 *                                                                       79848021
                                   13524 *                                                                       79854021
                                   13525 *      WHEN ANY OF THE PARAMETERS IS ERROR-SYMBOL (INDICATING AN UN     79860021
                                   13526 *       SOLVABLE OPERAND FOUND IN A PREVIOUS PHASE), PHASE 4 DOES N     79866021
                                   13527 *       WRITE A MESSAGE BUT MERELY APPENDS ONE OF SEVERAL STANDARD      79872021
                                   13528 *       CLUSIONS TO THE PREVIOUS PHASE'S MESSAGE. IF THE CONCLUSION     79878021
                                   13529 *       ITSELF HAS PARAMETERS, P TELLS HOW MANY TO SKIP OVER TO GET     79884021
                                   13530 *       TO THE WANTED ONE. IF THE QTH PARAMETER IS WANTED IN A MESS     79890021
                                   13531 *       HAVING N PARAMETERS, THEN P = N + 1 - Q.                        79896021
                                   13532 *        4 OR ONE OF ITS PREDECESSORS HAD ALREADY WRITTEN A MESSAGE     79902021
                                   13533 *                                                                       79908021
                                   13534 *      ENTRANCE AT ERONCE CAUSES MSGSW TO BE TESTED. IF IT IS ON, N     79914021
                                   13535 *        MESSAGE IS WRITTEN. IF IT IS OFF IT IS TURNED ON AND A MES     79920021
1PH40     IKFCBL40                                                                                              PAGE  283
-  LOC  OBJECT CODE    ADDR1 ADDR2  STMT   SOURCE STATEMENT                                       ASM 0201 11.03 02/14/15
0                                  13536 *        IS WRITTEN AS USUAL. THIS ENTRANCE IS USED BY ROUTINES WHI     79926021
                                   13537 *        LOOP LOOKING FOR A SPECIFIC ELEMENT AND DO NOT WISH TO WRI     79932021
                                   13538 *        A MESSAGE MORE THAN ONCE. MSGSW MUST BE TURNED  O F F  BY      79938021
                                   13539 *        EACH ROUTINE WHICH USES ERONCE.                                79944021
                                   13540 *      ENTRANCE AT ERRIF FROM IF ANALYZER.  CERTAIN MESSAGES SHOULD     79950021
                                   13541 *       CASCADE IF THE ASSUMPTIONS OF IFERR ARE ILL-ADVISED. IFERSW     79956021
                                   13542 *       IS TURNED ON AND OFF BY IF ANALYZER.                            79962021
                                   13543 *                                                                       79968021
                                   13544 *                                                                       79974021
                                   13545 *      THE FORM OF A PHASE-4 ERROR MESSAGE IS                           79980021
                                   13546 *                                                                       79986021
                                   13547 *              00 06 00 MMMM CCCC S4                                    79992021
                                   13548 *              00 0N XX XX ...                                          79998021
                                   13549 *              .                                                        80004021
                                   13550 *              .                                                        80010021
                                   13551 *              00 0N YY YY ...                                          80016021
                                   13552 *              0002CC0Z                                                 80022021
                                   13553 *                                                                       80028021
                                   13554 *        WHERE CCCC IS 2-BYTE CARD NUMBER                               80034021
                                   13555 *              MMMM IS 2-BYTE MESSAGE NUMBER                            80040021
                                   13556 *              XXXX AND YYYY ARE PARAMETERS IN INTERNAL TEXT            80046021
                                   13557 *              Z IS CONCLUSION NUMBER                                   80052021
                                   13558 *      CONCLUSIONS ARE - 1  ASSUMED                                     80058021
                                   13559 *                        2  IGNORED                                     80064021
                                   13560 *                        3  DISCARDED                                   80070021
                                   13561 *                        4  TEST DISCARDED                              80076021
                                   13562 *                        5  -- OPTION DISCARDED                         80082021
                                   13563 *                        6  STATEMENT DISCARDED                         80088021
                                   13564 *                        7  DELETING TILL LEGAL ELEMENT                 80094021
                                   13565 *                        8  DELETING TILL ONE OF THESE IS FOUND         80100021
                                   13566 *                        9  SUBSTITUTING --                             80106021
                                   13567 *                        A  SUBSTITUTING FIRST OCCURRENCE OF --         80112021
                                   13568 *                        B  STATEMENT ACCEPTED AS WRITTEN               80118021
                                   13569 *                        C  SYSTEM UNIT ASSUMED                         80124021
                                   13570 *                        D  PERFORMS AND DECLARATIVES MAY GIVE WRON     80130021
                                   13571 *                              CODING                                   80136021
                                   13572 *                        E  CARD DELETED AND FOLLOWING STATEMENTS A     80142021
                                   13573 *                            ACHED TO PRECEDING PACKET                  80148021
                                   13574 *                                                                       80154021
                                   13575 *                                                                       80160021
                                   13576 *                                                                       80166021
                                   13577 *                                                                       80172021
                                   13578 *                                                                       80178021
                                   13579 *                                                                       80184021
                                   13580 *                                                                       80190021
                                   13581 *      RATHER THAN THE NORMAL INTERNAL TEXT ELEMENT, ETEXT HAS          80196021
                                   13582 *                                                                       80202021
                                   13583 *      3407 L I T E R A L         RATHER THAN THE LITERAL ITSELF        80208021
                                   13584 *      3415 A R I T H M E T I C   E X P R E S S I O N   RATHER THAN     80214021
                                   13585 *      FE------      THAT IS, DICTIONARY POINTER,RATHER THAN DATA-N     80220021
                                   13586 *      BF----      THAT IS, SUBSCRIPT NUMBER, RATHER THAN ENTIRE SS     80226021
                                   13587 *                                                                       80232021
                                   13588 *      A SPECIAL ELEMENT HEADER OF 3F INTERNAL TO PHASE 4 ALLOWS        80238021
                                   13589 *        ACTUAL CHARACTER STRINGS TO BE INSERTED INTO ETEXT.            80244021
                                   13590 *        35 SIMPLY PRECEDES THE NORMAL INTERNAL VERSION OF THE          80250021
1PH40     IKFCBL40                                                                                              PAGE  284
-  LOC  OBJECT CODE    ADDR1 ADDR2  STMT   SOURCE STATEMENT                                       ASM 0201 11.03 02/14/15
0                                  13591 *        CHARACTER STRING.  THUS TO GET THE WORD 'SIGN' INTO MESSAG     80256021
                                   13592 *        THE PARAMETER-LIST ENTRY MIGHT BE AL3(BCDSGN) AND              80262021
                                   13593 *        BCDSGN DC      XL3'3F3404'                                     80268021
                                   13594 *               DC      CL4'SIGN'                                       80274021
                                   13595 *                                                                       80280021
                                   13596 *                                                                       80286021
                                   13597 *                                                                       80292021
 007A1A 9101 BFCD      0987D       13598 ERRIF  TM      IFERSW,MSWON                                             80298021
 007A1E 471E 0004      00004       13599          BC    ONES,DX4(RCS)       EXIT                                 80304021
 007A22 47F0 9BDA      07A32       13600        BC      UNCOND,ERROR        GO TO PROCESS ERROR                  80310021
 007A26 9101 BFAC      0985C       13601 ERONCE TM      MSGSW,MSWON                                              80316021
 007A2A 471E 0004      00004       13602          BC    ONES,DX4(RCS)       EXIT                                 80322021
 007A2E 9601 BFAC      0985C       13603        OI      MSGSW,MSWON                                              80328021
                                   13604 *                                                                       80334021
                             07A32 13605 ERROR  EQU     *                                                        80340021
 007A32 90E6 B0F4      089A4       13606        STM     RCS,RW6,SVERR                                            80346021
 007A36 440E 0000      00000       13607          EX    RA0,DX0(RCS)        GIVE RW1 ADDR. OF PARAMETER LIST     80352021
 007A3A 1851                       13608        LR      RW5,RW1               SAVE RW1 IN RW5                    80358021
 007A3C 1BFF                       13609        SR      RAS,RAS            SET RAS=0 - ONE-TIME SWITCH           80364021
 007A3E 4301 0002      00002       13610          IC    RA0,DX2(RW1)        SAVE IN RA0 NUMBER OF PARAMETERS     80370021
 007A42 5400 A550      08248       13611        N       RA0,M4BITS                                               80376021
 007A46 4780 9D4E      07BA6       13612        BC      ZERO,ERR14             IF NONE-SIMPLY GENR HEADER MS     80382021
 007A4A 1840                       13613        LR      RW4,RA0            GIVE RW4 NUMBER OF PARAMS,FOR LOO     80388021
                                   13614 *                                                                       80394021
                                   13615 *      LOOP THRU PARAMETER LIST, FIRST TIME SEEKING ERROR-SYMBOL,SE     80400021
                                   13616 *       TIME-IF NO ERSYMB FOUND- GENRING PARAMETERS                     80406021
                                   13617 *                                                                       80412021
 007A4C 4111 0003      00003       13618 ERR02    LA    RW1,DX3(RW1)        POINT RW1 TO NEXT PARAM.LIST ITEM    80418021
 007A50 D202 BE2D 1000 096DD 00000 13619          MVC   ERTEMP+NX1(LX3),DX0(RW1) PUT PARAM AT WORD BOUNDARY      80424021
 007A56 5820 BE2C      096DC       13620        L       RW2,ERTEMP                                               80430021
 007A5A 4920 A5B8      082B0       13621        CH      RW2,N256             IS IT REAL ADDRESS (OVER 100 HE     80436021
 007A5E 47B0 9C30      07A88       13622        BC      NOTLO,ERR06           YES, USE AS IS                     80442021
 007A62 8B20 0002      00002       13623          SLA   RW2,DX2                NO, SET RW2 TO ADDR. INDICATED    80448021
 007A66 4402 9C44      07A9C       13624        EX    RA0,ERRLA(RW2)           VARIOUS INTERNAL CODES            80454021
 007A6A D500 BE2F A5A1 096DF 08299 13625          CLC   ERTEMP+NX3(LX1),N3+NX1 IS PARAM 3,4,5                    80460021
 007A70 4740 9C30      07A88       13626        BC      LO,ERR06              NO, DONE                           80466021
 007A74 4920 A5B0      082A8       13627        CH    RW2,N14              IS IT REAL MODE                       80472021
 007A78 47D0 9C28      07A80       13628          BC    NOTHI,*+NX8              YES                             80478021
 007A7C 4120 0007      00007       13629          LA    RW2,DX7                  NO, SET TO 7  (I.E.,BLANK)      80484021
 007A80 8B20 0003      00003       13630          SLA   RW2,DX3                GET IN RW2 BCD EQUIVALENT OF M    80490021
 007A84 4122 A804      084FC       13631        LA      RW2,BCDMOD(RW2)                                          80496021
 007A88 12FF                       13632 ERR06  LTR     RAS,RAS            IS THIS 1ST TIME THRU LOOP            80502021
 007A8A 4770 9C5C      07AB4       13633        BC      NOTZER,ERR07       NO - GENR PARAM                       80508021
 007A8E D501 2000 A52C 00000 08224 13634          CLC   DX0(LX2,RW2),ERSYMB     YES- IS THIS PARAM ERROR-SYMBO   80514021
 007A94 4770 9D36      07B8E       13635        BC      NOTEQ,ERR11        NO - LOOK AT NEXT                     80520021
 007A98 4780 9D6E      07BC6       13636        BC      EQ,ERR18            YES - GO GENR ENDING TO PH3 MSG      80526021
                                   13637 *                                                                       80532021
                                   13638 *              INSTRUCTIONS EXECUTED UNDER ERR02 TO LOAD ADDR. INTO     80538021
                                   13639 *                                                                       80544021
 007A9C 412C 0000      00000       13640 ERRLA    LA    RW2,DX0(RIN)    PARAM=0 POINT RW2 TO INPUT               80550021
 007AA0 5820 B0FC      089AC       13641          L     RW2,SVERR+NX8         1              WHAT RA0 POINTS     80556021
 007AA4 4120 BE56      09706       13642        LA      RW2,VERB44           2              VERB                 80562021
 007AA8 4320 BE65      09715       13643          IC    RW2,MODE+NX1          3              MODE                80568021
 007AAC 4320 B5F9      08EA9       13644          IC    RW2,MODEL+NX1         4              MODEL               80574021
 007AB0 4320 B677      08F27       13645          IC    RW2,MODER+NX1         5              MODER               80580021
1PH40     IKFCBL40                                                                                              PAGE  285
-  LOC  OBJECT CODE    ADDR1 ADDR2  STMT   SOURCE STATEMENT                                       ASM 0201 11.03 02/14/15
0                                  13646 *                                                                       80586021
                                   13647 *                                                                       80592021
                                   13648 *                                 REDUCE PARAMETER IF NECESSARY         80598021
                                   13649 *                                                                       80604021
                             07AB4 13650 ERR07  EQU     *                                                        80610021
 007AB4 9530 2000      00000       13651          CLI   DX0(RW2),MDN                                             80616021
 007AB8 4780 9CBA      07B12       13652        BC      EQ,ERDN            IT IS DATA-NAME                       80622021
 007ABC 9531 2000      00000       13653          CLI   DX0(RW2),MSS                                             80628021
 007AC0 4780 9CBA      07B12       13654        BC      EQ,ERDN            IT IS SSID, USE DICT POINTER          80634021
 007AC4 9521 2000      00000       13655          CLI   DX0(RW2),MFILE                                           80640021
 007AC8 4780 9CBA      07B12       13656        BC      EQ,ERDN            IT IS FILE-NAME, USE DICT. POINTE     80646021
 007ACC 9536 2000      00000       13657          CLI   DX0(RW2),MINDNM      IT IS INDEX NAME                    80652021
 007AD0 4780 9CBA      07B12       13658        BC    EQ,ERDN               YES                                  80658021
 007AD4 9534 2000      00000       13659          CLI   DX0(RW2),MALIT                                           80664021
 007AD8 4780 9CD4      07B2C       13660          BC    EQ,ERALIT          IT IS AN LIT                          80670021
 007ADC 9533 2000      00000       13661          CLI   DX0(RW2),MFLIT                                           80676021
 007AE0 4780 9CE4      07B3C       13662          BC    EQ,ERFLIT          IT IS FLOATING LIT                    80682021
 007AE4 9532 2000      00000       13663          CLI   DX0(RW2),XX32         IS IT NUMERIC LITERAL              80688021
 007AE8 4780 9CDC      07B34       13664        BC    EQ,ERNLIT             YES- GO PROCESS                      80694021
 007AEC 953F 2000      00000       13665          CLI   DX0(RW2),MOWNLT                                          80700021
 007AF0 4780 9CEC      07B44       13666        BC      EQ,EROWNL          IT IS PHASE4 SPECIAL LIT              80706021
 007AF4 95BA 2000      00000       13667          CLI   DX0(RW2),MIR                                             80712021
 007AF8 4780 9CB2      07B0A       13668        BC      EQ,ERIR            IT IS AN IR                           80718021
 007AFC D500 2000 A52C 00000 08224 13669          CLC   DX0(LX1,RW2),ERSYMB                                      80724021
 007B02 4780 9CEC      07B44       13670        BC      EQ,EROWNL          IT IS PH1 ILLEGAL WORD                80730021
 007B06 47F0 9CF4      07B4C       13671        B     ERNODO                                    SEE IF PN        80736021
 007B0A 4120 A6B0      083A8       13672 ERIR   LA      RW2,BCDEXP                                               80742021
 007B0E 47F0 9D10      07B68       13673        BC      UNCOND,ERR09        GO TO GENERATE PARAMETER             80748021
 007B12 45E0 7F94      05F4C       13674 ERDN   BAL     RCS,COUNT          DATA-NAME                             80754021
 007B16 4A20 BE72      09722       13675        AH      RW2,BYTES                                                80760021
 007B1A 4B20 A5A0      08298       13676        SH      RW2,N3             USE DICT. POINTER FOR PARAM           80766021
 007B1E D202 BEFF 2000 097AF 00000 13677          MVC   DICTP+NX1(LX3),DX0(RW2)                                  80772021
 007B24 4120 BEFE      097AE       13678        LA      RW2,DICTP                                                80778021
 007B28 47F0 9D10      07B68       13679        BC      UNCOND,ERR09        GO TO GENERATE PARAMETER             80784021
 007B2C 4120 A5F8      082F0       13680 ERALIT   LA    RW2,BCDALT                                               80790021
 007B30 47F0 9D10      07B68       13681          BC    UNCOND,ERR09        GO TO GENERATE PARAMETER             80796021
 007B34 4120 A5E7      082DF       13682 ERNLIT   LA    RW2,BCDNLT                                               80802021
 007B38 47F0 9D10      07B68       13683          BC    UNCOND,ERR09        GO TO GENERATE PARAMETER             80808021
 007B3C 4120 A60E      08306       13684 ERFLIT   LA    RW2,BCDFLT                                               80814021
 007B40 47F0 9D10      07B68       13685        BC      UNCOND,ERR09        GO TO GENERATE PARAMETER             80820021
 007B44 4122 0001      00001       13686 EROWNL   LA    RW2,DX1(RW2)        SPECIAL PHASE4 CHARACTER STRING      80826021
 007B48 47F0 9D10      07B68       13687        BC      UNCOND,ERR09        GO TO GENERATE PARAMETER             80832021
 007B4C 9506 2000      00000       13688 ERNODO   CLI   DX0(RW2),MPND                                            80838021
 007B50 4780 9D0C      07B64       13689        BC      EQ,ERRLHN           GET PN DEF                           80844021
 007B54 9520 2000      00000       13690          CLI   DX0(RW2),MPNU                                            80850021
 007B58 4770 9D10      07B68       13691        BC      NOTEQ,ERR09         GO TO GENERATE PARAMETER             80856021
 007B5C 4120 A77E      08476       13692          LA    RW2,BCDPNU+NX1      PNREF                                80862021
 007B60 47F0 9D10      07B68       13693        BC      UNCOND,ERR09        GO TO GENERATE PARAMETER             80868021
 007B64 4120 A76D      08465       13694 ERRLHN   LA    RW2,BCDPN+NX1       PNDEF                                80874021
                                   13695 *                                                                       80880021
                                   13696 *                    GENERATE PARAMETER                                 80886021
                                   13697 *                                                                       80892021
                             07B68 13698 ERR09  EQU     *                                                        80898021
 007B68 9551 2000      00000       13699          CLI   DX0(RW2),MCNDRL     IS PARAM '5106' FROM CONDITION-NA    80904021
 007B6C 4770 9D1C      07B74       13700          BC    NOTEQ,*+NX8          NO                                  80910021
1PH40     IKFCBL40                                                                                              PAGE  286
-  LOC  OBJECT CODE    ADDR1 ADDR2  STMT   SOURCE STATEMENT                                       ASM 0201 11.03 02/14/15
0007B70 4120 A6A0      08398       13701          LA    RW2,BCDCND+NX1      YES - SUBSTITUTE WORD 'CONDITION'    80916021
 007B74 45E0 7F94      05F4C       13702        BAL     RCS,COUNT           GET BYTE COUNT                       80922021
 007B78 D200 BCBD BE73 0956D 09723 13703          MVC   ERPARM+NX1(LX1),BYTES+NX1                                80928021
 007B7E 4830 BE72      09722       13704        LH      RW3,BYTES                                                80934021
 007B82 4430 9D48      07BA0       13705        EX      RW3,ERRMOV         MOVE PARAM ITSELF TO PARAM-AREA       80940021
 007B86 45E0 7734      056EC       13706        BAL     RCS,GENDAT          WRITE ERROR PARAMETER                80946021
 007B8A 4120 BCBC      0956C       13707        LA      RW2,ERPARM                                               80952021
 007B8E 4640 9BF4      07A4C       13708 ERR11  BCT     RW4,ERR02          RETURN FOR NEXT PARAMETER             80958021
                                   13709 *                                                                       80964021
                                   13710 *              LOOP THRU PARAMETER LIST COMPLETED                       80970021
                                   13711 *                                                                       80976021
 007B92 12FF                       13712        LTR     RAS,RAS            IS IT 1ST TIME THRU                   80982021
 007B94 4780 9D4E      07BA6       13713        BC      ZERO,ERR14           YES - GO GENR HEADER MSG,AND RE     80988021
 007B98 98E6 B0F4      089A4       13714 ERR12  LM      RCS,RW6,SVERR     NO, ALL DONE, EXIT                     80994021
 007B9C 47FE 0004      00004       13715          BC    UNCOND,DX4(RCS)     EXIT                                 81000021
                                   13716 *                                                                       81006021
 007BA0 D200 BCBE 2000 0956E 00000 13717 ERRMOV   MVC   ERPARM+NX2(LX1),DX0(RW2)                                 81012021
                                   13718 *                                                                       81018021
                                   13719 *      NO ERSYMB FOUND - GENERATE THE MESSAGE                           81024021
                                   13720 *                                                                       81030021
 007BA6 1815                       13721 ERR14  LR      RW1,RW5            RESTORE RW1 TO START OF LIST          81036021
 007BA8 D200 BCB8 1001 09568 00001 13722          MVC   MSGNUM+NX1(LX1),DX1(RW1) MOVE IN MESSAGE NUMBER          81042021
 007BAE D300 BCBB 1002 0956B 00002 13723          MVZ   CARDNO+NX2(LX1),DX2(RW1)            SEVERITY CODE        81048021
 007BB4 45E0 7734      056EC       13724 ERR16  BAL     RCS,GENDAT          GENR ERROR MSG DEFINING STRING       81054021
 007BB8 4120 BCB4      09564       13725        LA      RW2,PMSG                                                 81060021
 007BBC 1240                       13726        LTR     RW4,RA0            RESTORE RW4 TO PARAMETER COUNT        81066021
 007BBE 4780 9D40      07B98       13727        BC      ZERO,ERR12           IF NO PARAMS,EXIT                   81072021
 007BC2 46F0 9BF4      07A4C       13728        BCT     RAS,ERR02          SET 1-TIME SWITCH NON-ZERO            81078021
                                   13729 *                                                                       81084021
                                   13730 *                           ERROR SYMBOL FOUND AMONG PARAMETERS         81090021
                                   13731 *                                                                       81096021
 007BC6 1B00                       13732 ERR18  SR      RA0,RA0                                                  81102021
 007BC8 4305 0000      00000       13733          IC    RA0,DX0(RW5)        RW4 GETS CONCLUSION NUMBER,IF ANY    81108021
 007BCC 1200                       13734        LTR     RA0,RA0                                                  81114021
 007BCE 4780 9D40      07B98       13735        BC      ZERO,ERR12             NONE - EXIT                       81120021
 007BD2 D100 BD3D 5000 095ED 00000 13736          MVN   MSG3ND+NX3(LX1),DX0(RW5) GENR CONCLUSION NUMBER FOR PH6  81126021
 007BD8 45E0 7734      056EC       13737        BAL     RCS,GENDAT          GENR MSG CONCLUSION FOR UNDEF.       81132021
 007BDC 4120 BD3A      095EA       13738        LA      RW2,MSG3ND                                               81138021
 007BE0 8A00 0004      00004       13739          SRA   RA0,DX4             ARE ANY PARAMETERS NEEDED IN CONC    81144021
 007BE4 4780 9D40      07B98       13740        BC      ZERO,ERR12           NO - EXIT                           81150021
 007BE8 4B10 A5A0      08298       13741        SH      RW1,N3             POINT RW1 BACK 1 PARAM (ERR02...L     81156021
 007BEC 1904                       13742 ERR20  CR      RA0,RW4                                                  81162021
 007BEE 4780 9DA2      07BFA       13743        BC      EQ,ERR22            OMIT SOME PARAMETERS                 81168021
 007BF2 4111 0003      00003       13744          LA    RW1,DX3(RW1)        SKIP OVER PARAMS TILL RW1 POINTS     81174021
 007BF6 4640 9D94      07BEC       13745        BCT     RW4,ERR20           WANTED ONE AND RW4 = WANTED COUN     81180021
 007BFA 46F0 9BF4      07A4C       13746 ERR22  BCT     RAS,ERR02           LOOP THRU PARAMS                     81186021
                                   13747 *                                                                       81192021
                                   13748 *      SPECIAL CASE OF MULTIPLY-DEFINED LHN, NEEDING UNIQUE ENDING      81198021
                                   13749 *        PH3 MESSAGE.                                                   81204021
                                   13750 *                                                                       81210021
                                   13751 *              'EVEN IF NOT REFERENCED MAY CAUSE WRONG CODING TO BE     81216021
                                   13752 *               PRODUCED FOR DECLARATIVES OR PERFORMED PROCEDURES       81222021
                                   13753 *                ON EITHER SIDE OF IT.'                                 81228021
                                   13754 *                                                                       81234021
                             07BFE 13755 PH3ERP EQU     *                                                        81240021
1PH40     IKFCBL40                                                                                              PAGE  287
-  LOC  OBJECT CODE    ADDR1 ADDR2  STMT   SOURCE STATEMENT                                       ASM 0201 11.03 02/14/15
0007BFE 50E0 B0F4      089A4       13756        ST      RCS,SVERR                                                81246021
 007C02 920D BD3D      095ED       13757          MVI   MSG3ND+NX3,XX0D       ACTION ENDING B                    81252021
 007C06 45E0 7734      056EC       13758        BAL     RCS,GENDAT          GENERATE MESSAGE                     81258021
 007C0A 4120 BD3A      095EA       13759        LA      RW2,MSG3ND                                               81264021
 007C0E 58E0 B0F4      089A4       13760        L       RCS,SVERR                                                81270021
 007C12 07FE                       13761        BCR     UNCOND,RCS          RETURN TO CALLER                     81276021
1PH40     IKFCBL40                                                                                              PAGE  288
-  LOC  OBJECT CODE    ADDR1 ADDR2  STMT   SOURCE STATEMENT                                       ASM 0201 11.03 02/14/15
0                                  13763 *                                                                       81288021
                                   13764 *                                                                       81294021
                                   13765 *                                O P E R R                              81300021
                                   13766 *                                                                       81306021
                                   13767 *      BAL     RCS,OPERR                                                81312021
                                   13768 *      (RETURN IF OPERAND-2 IS ERROR SYMBOL OR NON-DATA-OPERAND)        81318021
                                   13769 *              IN ALL OTHER CASES EXIT DIRECTLY TO IDENT                81324021
                                   13770 *                                                                       81330021
                                   13771 *      CALLED BY MOVE AND BY ADD-, SUBTRACT-CORRESPONDING DURING        81336021
                                   13772 *        'DRY RUN' WHEN ILLEGAL OPERAND IS FOUND                        81342021
                                   13773 *                                                                       81348021
                                   13774 *      DISCARDS PHASE-3 EXPANSIONS OF CORRESPONDING                     81354021
                                   13775 *                                                                       81360021
                                   13776 *** SUBROUTINES CALLED                                                  81366021
                                   13777 *      GETNXT,SAVNXT,SAVCUR,THROWE,ERROR                                81372021
                                   13778 *                                                                       81378021
                                   13779 *                                                                       81384021
                             07C14 13780 OPERR  EQU     *                                                        81390021
 007C14 50E0 B3C4      08C74       13781        ST      RCS,SVOPER                                               81396021
 007C18 9101 BF7A      0982A       13782        TM      CORRSW,MSWON       ARE WE IN CORRESPONDING-EXPANSION     81402021
 007C1C 4710 9E0A      07C62       13783        BC      ONES,OPER2          YES                                  81408021
 007C20 9101 BF93      09843       13784        TM      DRYRUN,MSWON       ARE WE IN DRY-RUN BEFORE EXPANSIO     81414021
 007C24 4710 9E28      07C80       13785        BC      ONES,OPER6          YES                                  81420021
                                   13786 *                                                                       81426021
                                   13787 *              ORDINARY VERB, NOT CORRESPONDING                         81432021
                                   13788 *                                                                       81438021
 007C28 41E0 B770      09020       13789        LA      RCS,OPRND1         WHICH OPERAND IS IN ERROR             81444021
 007C2C 59E0 BC68      09518       13790        C       RCS,THISOP                                               81450021
 007C30 4780 9DF6      07C4E       13791        BC      EQ,OPER0            OP1 IS IN ERROR                      81456021
 007C34 45E0 8C32      06BEA       13792        BAL     RCS,ISEND           OP2 - IS IT END                      81462021
 007C38 47F0 9DE8      07C40       13793          BC    UNCOND,*+NX8        NO                                   81468021
 007C3C 47F0 7000      04FB8       13794        BC      UNCOND,IDENT        YES - GIVE UP                        81474021
 007C40 9101 BFB7      09867       13795        TM    SEARCHSW,MSWON                                             81480021
 007C44 4710 9E02      07C5A       13796        BO    OPER0A                SEARCH SWITCH IS ON                  81486021
 007C48 58E0 B3C4      08C74       13797        L       RCS,SVOPER          NO - RETURN TO ANALYZER              81492021
 007C4C 07FE                       13798        BCR     UNCOND,RCS          EXIT                                 81498021
 007C4E 45E0 9BDA      07A32       13799 OPER0  BAL     RCS,ERROR           WRITE ERROR MESSAGE                  81504021
 007C52 4110 A00F      07D07       13800        LA      RW1,ELST04                                               81510021
 007C56 47F0 720C      051C4       13801        BC      UNCOND,IDERR        EXIT TO IDERR                        81516021
 007C5A 58F0 A464      0815C       13802 OPER0A L     RVRB,ASRCH                                                 81522021
                             03798 13803        USING SEARCH,RVRB                                                81528021
 007C5E 47F0 F1F6      0398E       13804        BC    UNCOND,SRCH11         GO TO SEARCH                         81534021
                                   13805        DROP  RVRB                                                       81540021
                                   13806 *                                                                       81546021
                                   13807 *                      CORRESPONDING-EXPANSION.ERROR IS 'ERSYMB' AN     81552021
                                   13808 *                        PHASE 3 WROTE THE MESSAGE                      81558021
                                   13809 *                                                                       81564021
 007C62 D501 C000 A340 0988B 08038 13810 OPER2    CLC   GOTTEN(LX2),CBCORR                                       81570021
 007C68 4780 9E1C      07C74       13811        BC      EQ,OPER4            'CORRESPONDING' FOUND                81576021
 007C6C 45E0 7566      0551E       13812        BAL     RCS,GETNXT        DISCARD TILL 'CORRESPONDING', WHIC     81582021
 007C70 47F0 9E0A      07C62       13813        BC      UNCOND,OPER2        INDICATES END OF ONE EXPANSION       81588021
 007C74 45E0 7566      0551E       13814 OPER4  BAL     RCS,GETNXT          GET NEXT ELEMENT                     81594021
 007C78 94FE BF7A      0982A       13815        NI      CORRSW,MSWOFF                                            81600021
 007C7C 47F0 720C      051C4       13816        BC      UNCOND,IDERR        EXIT TO IDERR                        81606021
                                   13817 *                                                                       81612021
1PH40     IKFCBL40                                                                                              PAGE  289
-  LOC  OBJECT CODE    ADDR1 ADDR2  STMT   SOURCE STATEMENT                                       ASM 0201 11.03 02/14/15
0                                  13818 *              ERROR IS IN DRY-RUN OF SOURCE-PROGRAM STATEMENT          81618021
                                   13819 *                                                                       81624021
 007C80 94FE BF93      09843       13820 OPER6  NI      DRYRUN,MSWOFF                                            81630021
 007C84 45E0 9BDA      07A32       13821        BAL     RCS,ERROR           WRITE ERROR MESSAGE                  81636021
 007C88 4110 A00F      07D07       13822        LA      RW1,ELST04                                               81642021
 007C8C 45E0 7716      056CE       13823 OPER8  BAL     RCS,THROWE         DISCARD TILL VERB GIVEN BY PHASE-     81648021
 007C90 D501 C000 A340 0988B 08038 13824 OPER10   CLC   GOTTEN(LX2),CBCORR                                       81654021
 007C96 4780 9E54      07CAC       13825        BC      EQ,OPER12           'CORRESPONDING' FOUND                81660021
 007C9A D501 C000 A346 0988B 0803E 13826          CLC   GOTTEN(LX2),CBEOS   END OF SENTENCE                18067 81666021
 007CA0 4780 701C      04FD4       13827          BE    ID3                                                18067 81672021
 007CA4 45E0 7566      0551E       13828        BAL     RCS,GETNXT         DISCARD TILL 'CORRESPONDING',INDI     81678021
 007CA8 47F0 9E38      07C90       13829        BC      UNCOND,OPER10       ING END OF ONE EXPANSION             81684021
 007CAC 45E0 7566      0551E       13830 OPER12 BAL     RCS,GETNXT          GET NEXT INPUT                       81690021
 007CB0 41E0 B770      09020       13831        LA      RCS,OPRND1        WHICH OPERNAD IS IN ERROR              81696021
 007CB4 59E0 BC68      09518       13832        C       RCS,THISOP                                               81702021
 007CB8 4770 720C      051C4       13833        BC      NOTEQ,IDERR         OP2-THERE MAY BE OTHER EXPANSION     81708021
 007CBC D501 C000 A3DC 0988B 080D4 13834          CLC   GOTTEN(LX2),CBMOVE   OP1-HOPELESS FOR ALL EXPANSIONS     81714021
 007CC2 4770 720C      051C4       13835        BC      NOTEQ,IDERR          NEXT IS NOT 'MOVE', ALL DONE        81720021
 007CC6 45E0 7566      0551E       13836        BAL     RCS,GETNXT          GET NEXT INPUT                       81726021
 007CCA D501 C000 A418 0988B 08110 13837          CLC   GOTTEN(LX2),CBSAME    IS NEXT 'SAME'                     81732021
 007CD0 4780 9E34      07C8C       13838        BC      EQ,OPER8           YES. DISCARD ANOTHER SERIES           81738021
 007CD4 9601 BF74      09824       13839        OI      NEXTIN,MSWON        NO,ALL DONE. SAVE IT TO GET AGAI     81744021
 007CD8 41C0 A3DC      080D4       13840        LA      RIN,CBMOVE         RESTORE AS INPUT THE 'MOVE'           81750021
 007CDC 47F0 720C      051C4       13841        BC      UNCOND,IDERR        EXIT TO IDERR                        81756021
 007CE0                            13842 TEMPSAVE DS    6F                                                 P0205 81762021
1PH40     IKFCBL40                                                                                              PAGE  290
-  LOC  OBJECT CODE    ADDR1 ADDR2  STMT   SOURCE STATEMENT                                       ASM 0201 11.03 02/14/15
0007CF8                            13844 IKF404 CSECT                                                            81774021
                             07CF8 13845 COMON4 EQU     *                                                        81780021
                                   13846 *=1    CONSTANT AREA                                                    81786021
                                   13847 *                                                                       81792021
                                   13848 *                                                                       81798021
                                   13849 *                                 C O N S T A N T S                     81804021
                                   13850 *                                                                       81810021
                                   13851 *                                                                       81816021
 007CF8                            13852          DS    0F                                                       81822021
                                   13853 *                                                                       81828021
                                   13854 *                                                                       81834021
                                   13855 *                        ERROR-PARAMETER LISTS                          81840021
                                   13856 *                                                                       81846021
                                   13857 *                                                                       81852021
-
                                   13859 *                                                                       81864021
                                   13860 *=E    0001    OUTCOME OF A PRECEDING CONDITION LEADS TO NON-EXISTE     81870021
                                   13861 *=               'NEXT SENTENCE'.  'STOP RUN' INSERTED.                 81876021
                                   13862 *                                                                       81882021
 007CF8 000110                     13863 ELST01 DC      XL3'000110'                                              81888021
                                   13864 *                                                                       81894021
                                   13865 *=E    0002    -- STATEMENT INCOMPLETE. STATEMENT DELETED.              81900021
                                   13866 *                                                                       81906021
 007CFB 000221                     13867 ELST02 DC      XL3'000221'        -- STATEMENT INCOMPLETE               81912021
 007CFE 000002                     13868        DC      AL3(2)                                                   81918021
                                   13869 *                                                                       81924021
                                   13870 *=E    0003    EXPECTING END OF STATEMENT. FOUND --. DELETING TILL      81930021
                                   13871 *=               NEXT VERB OR PROCEDURE-NAME.                           81936021
                                   13872 *                                                                       81942021
 007D01 070321                     13873 ELST03 DC      XL3'070321'                                              81948021
 007D04 000000                     13874        DC      AL3(0)                                                   81954021
                                   13875 *                                                                       81960021
                                   13876 *=E    0004    -- -- IS ILLEGALLY USED IN -- STATEMENT. DELETED.        81966021
                                   13877 *                                                                       81972021
 007D07 030423                     13878 ELST04 DC      XL3'030423'                                              81978021
 007D0A 000000                     13879        DC      AL3(0)                                                   81984021
 007D0D 000003                     13880        DC      AL3(3)                                                   81990021
 007D10 000002                     13881        DC      AL3(2)                                                   81996021
                                   13882 *                                                                       82002021
                                   13883 *=E    0005    -- AND -- VIOLATE RULE ABOUT LENGTH OF TRANSFORM         82008021
                                   13884 *=              OPERANDS. STATEMENT DELETED.                            82014021
                                   13885 *                                                                       82020021
 007D13 060522                     13886 ELST05 DC      XL3'060522'                                              82026021
 007D16 008E2C                     13887        DC      AL3(PLEFT)                                               82032021
 007D19 000000                     13888        DC      AL3(0)                                                   82038021
                                   13889 *                                                                       82044021
                                   13890 *=E    0006    -- STATEMENT CONTAINS UNPAIRED LEFT PARENTHESES. OUT     82050021
                                   13891 *=              MOST IGNORED.                                           82056021
 007D1C 000611                     13892 ELST06 DC      XL3'000611'                                              82062021
 007D1F 000002                     13893        DC      AL3(2)                                                   82068021
                                   13894 *                                                                       82074021
                                   13895 *=E    0007    -- MISSING OR MISPLACED IN -- STATEMENT. ASSUMED IN      82080021
                                   13896 *=              REQUIRED POSITION.                                      82086021
1PH40     IKFCBL40                                                                                              PAGE  291
-  LOC  OBJECT CODE    ADDR1 ADDR2  STMT   SOURCE STATEMENT                                       ASM 0201 11.03 02/14/15
0                                  13897 *                                                                       82092021
 007D22 000712                     13898 ELST07 DC      XL3'000712'                                              82098021
 007D25 000001                     13899        DC      AL3(1)                                                   82104021
 007D28 000002                     13900        DC      AL3(2)                                                   82110021
                                   13901 *                                                                       82116021
                                   13902 *                                                                       82122021
                                   13903 *=E    0008    SUPERFLUOUS -- FOUND IN -- STATEMENT.IGNORED             82128021
                                   13904 *                                                                       82134021
                             07D2B 13905 ELST08 EQU     *                                                        82140021
 007D2B 000802                     13906        DC      XL3'000802'                                              82146021
 007D2E 000001                     13907        DC      AL3(1)                                                   82152021
 007D31 000002                     13908        DC      AL3(2)                                                   82158021
                                   13909 *                                                                       82164021
                                   13910 *=E    0009    EXAMINE STATEMENT REQUIRES FIGURATIVE CONSTANT OR SI     82170021
                                   13911 *              ALPHANUMERIC CHARACTER OR 1-DIGIT UNSIGNED NUMERIC       82176021
                                   13912 *              INTEGRAL LITERAL. FOUND __. STATEMENT DELETED.           82182021
                                   13913 *                                                                       82188021
 007D34 060921                     13914 ELST09 DC      XL3'060921'                                              82194021
 007D37 000000                     13915        DC      AL3(0)                                                   82200021
                                   13916 *                                                                       82206021
                                   13917 *=E    000A    -- STATEMENT CONTAINS UNPAIRED RIGHT PARENTHESES. OU     82212021
                                   13918 *=              MOST IGNORED.                                           82218021
                                   13919 *                                                                       82224021
 007D3A 000A11                     13920 ELST0A DC      XL3'000A11'                                              82230021
 007D3D 000002                     13921        DC      AL3(2)                                                   82236021
                                   13922 *                                                                       82242021
                                   13923 *=E    000B    -- IS NOT AN ALLOWABLE CHARACTER FOR --. STATEMENT D     82248021
                                   13924 *=              LETED                                                   82254021
                                   13925 *                                                                       82260021
 007D40 060B22                     13926 ELST0B DC      XL3'060B22'                                              82266021
 007D43 000000                     13927        DC      AL3(0)                                                   82272021
 007D46 008E2C                     13928        DC      AL3(PLEFT)                                               82278021
                                   13929 *                                                                       82284021
                                   13930 *=E    000C    COMPARISON BETWEEN TWO LITERALS IS ILLEGAL.              82290021
                                   13931 *=              TEST IS DELETED.                                        82296021
                                   13932 *                                                                       82302021
 007D49 000C20                     13933 ELST0C DC      XL3'000C20'                                              82308021
                                   13934 *                                                                       82314021
                                   13935 *=E    000D    RELATIONAL MISSING IN IF STATEMENT. '=' ASSUMED.         82320021
                                   13936 *                                                                       82326021
 007D4C 000D10                     13937 ELST0D DC      XL3'000D10'                                              82332021
                                   13938 *                                                                       82338021
                                   13939 *=E    000E    EXAMINE STATEMENT REQUIRES DATA-NAME WHOSE USAGE IS      82344021
                                   13940 *=              PLAY. FOUND -- --. STATEMENT DELETED.                   82350021
                                   13941 *                                                                       82356021
 007D4F 060E22                     13942 ELST0E DC      XL3'060E22'                                              82362021
 007D52 000000                     13943        DC      AL3(0)                                                   82368021
 007D55 000003                     13944        DC      AL3(3)                                                   82374021
                                   13945 *                                                                       82380021
                                   13946 *=E    000F    'GO TO .' IS ILLEGAL UNLESS IT IS ALTERED.               82386021
                                   13947 *=              STATEMENT DELETED.                                      82392021
                                   13948 *                                                                       82398021
 007D58 000F20                     13949 ELST0F DC      XL3'000F20'                                              82404021
                                   13950 *                                                                       82410021
                                   13951 *=E    0010    OPERAND OF -- APPEARS IN WRONG SEGMENT OF PROGRAM, B     82416021
1PH40     IKFCBL40                                                                                              PAGE  292
-  LOC  OBJECT CODE    ADDR1 ADDR2  STMT   SOURCE STATEMENT                                       ASM 0201 11.03 02/14/15
0                                  13952 *=               STATEMENT ACCEPTED.                                    82422021
                                   13953 *                                                                       82428021
 007D5B 001011                     13954 ELST10 DC      XL3'001011'                                              82434021
 007D5E 000002                     13955        DC      AL3(2)                                                   82440021
                                   13956 *                                                                       82446021
                                   13957 *=E    0011    'ELSE' UNMATCHED BY CONDITION IS IGNORED.                82452021
                                   13958 *                                                                       82458021
 007D61 001120                     13959 ELST11 DC      XL3'001120'                                              82464021
                                   13960 *                                                                       82470021
                                   13961 *=E    0012     SET STATEMENT HAS AN ILLEGAL OPERAND BEFORE 'TO'        82476021
                                   13962 *              OR INCOMPATIBLE OPERANDS. OPERAND BEFORE TO DISCARDE     82482021
                                   13963 *                                                                       82488021
 007D64 001220                     13964 ELST12 DC       XL3'001220'                                             82494021
                                   13965 *                                                                       82500021
                                   13966 *=E    0013    -- -- MAY NOT BE USED AS ARITHMETIC OPERAND IN -- ST     82506021
                                   13967 *=              MENT. ARBITRARILY SUBSTITUTING TALLY.                   82512021
                                   13968 *                                                                       82518021
 007D67 191324                     13969 ELST13 DC      XL3'191324'                                              82524021
 007D6A 000000                     13970        DC      AL3(0)                                                   82530021
 007D6D 000003                     13971        DC      AL3(3)                                                   82536021
 007D70 000002                     13972        DC      AL3(2)                                                   82542021
 007D73 0081C8                     13973        DC      AL3(CBTALY)                                              82548021
                                   13974 *                                                                       82554021
                                   13975 *=E    0014    SIGN BEFORE -- IS IGNORED.                               82560021
                                   13976 *                                                                       82566021
                             07D76 13977 ELST14 EQU     *                                                        82572021
 007D76 001411                     13978        DC      XL3'001411'                                              82578021
 007D79 000000                     13979        DC      AL3(0)                                                   82584021
                                   13980 *                                                                       82590021
                                   13981 *=E    0015    MINUS SIGN FOLLOWED BY SPACE ACCEPTED AS REVERSING       82596021
                                   13982 *=              SIGN OF FOLLOWING LITERAL.                              82602021
                                   13983 *                                                                       82608021
                             07D7C 13984 ELST15 EQU     *                                                        82614021
 007D7C 001500                     13985        DC      XL3'001500'                                              82620021
                                   13986 *                                                                       82626021
                                   13987 *                                                                       82632021
                                   13988 *=E    0016    EXIT MUST BE A SINGLE-WORD PARAGRAPH PRECEDED BY A       82638021
                                   13989 *=              PROCEDURE NAME. STATEMENT DISCARDED.                    82644021
                                   13990 *                                                                       82650021
 007D7F 001610                     13991 ELST16 DC    XL3'001610'                                                82656021
                                   13992 *                                                                       82662021
                                   13993 *=E    0017    SYNTAX REQUIRES STORE-FIELD TO BE NUMERIC DATA-NAME      82668021
                                   13994 *=              REPORT ITEM. FOUND -- --. STATEMENT DELETED.            82674021
                                   13995 *                                                                       82680021
 007D82 061722                     13996 ELST17 DC      XL3'061722'                                              82686021
 007D85 000001                     13997        DC      AL3(1)                                                   82692021
 007D88 000003                     13998        DC      AL3(3)                                                   82698021
                                   13999 *                                                                       82704021
                                   14000 *=E    0018    TWO OPERANDS ARE REQUIRED BEFORE 'GIVING'. STATEMENT     82710021
                                   14001 *=              DELETED.                                                82716021
                                   14002 *                                                                       82722021
 007D8B 001820                     14003 ELST18 DC      XL3'001820'                                              82728021
                                   14004 *                                                                       82734021
                                   14005 *=E    0019    HOLD ALL ILLEGAL WHEN NO RANDOM-PROCESSING DECLARATI     82740021
                                   14006 *=               EXIST. STATEMENT DELETED.                              82746021
1PH40     IKFCBL40                                                                                              PAGE  293
-  LOC  OBJECT CODE    ADDR1 ADDR2  STMT   SOURCE STATEMENT                                       ASM 0201 11.03 02/14/15
0                                  14007 *                                                                       82752021
 007D8E 001920                     14008 ELST19 DC      XL3'001920'                                              82758021
                                   14009 *                                                                       82764021
                                   14010 *                                                                       82770021
                                   14011 *=E    001A    -- -- IS ILLEGALLY USED IN -- TEST. TEST DELETED.        82776021
                                   14012 *                                                                       82782021
 007D91 001A23                     14013 ELST1A DC      XL3'001A23'                                              82788021
 007D94 008E2C                     14014        DC      AL3(PLEFT)                                               82794021
 007D97 000004                     14015        DC      AL3(4)                                                   82800021
 007D9A 000001                     14016        DC      AL3(1)                                                   82806021
                                   14017 *                                                                       82812021
                                   14018 *=E    001B    RIGHT TERM OF A CONDITION MAY NOT BE NEGATED.            82818021
                                   14019 *=              NEGATION IS APPLIED TO THE RELATIONAL.                  82824021
                                   14020 *                                                                       82830021
 007D9D 001B10                     14021 ELST1B DC      XL3'001B10'                                              82836021
                                   14022 *                                                                       82842021
                                   14023 *=E    001C    TWO 'NOT'S FOUND IN SUCCESSION. ACCEPTED AS CANCELLI     82848021
                                   14024 *=              EACH OTHER.                                             82854021
                                   14025 *                                                                       82860021
 007DA0 001C10                     14026 ELST1C DC      XL3'001C10'                                              82866021
                                   14027 *                                                                       82872021
                                   14028 *=E    001D    -- -- MAY NOT BE COMPARED WITH -- --.                    82878021
                                   14029 *=              TEST IS DELETED.                                        82884021
                                   14030 *                                                                       82890021
 007DA3 001D24                     14031 ELST1D DC      XL3'001D24'                                              82896021
 007DA6 008E2C                     14032        DC      AL3(PLEFT)                                               82902021
 007DA9 000004                     14033        DC      AL3(4)                                                   82908021
 007DAC 008EAA                     14034        DC      AL3(PRIGHT)                                              82914021
 007DAF 000005                     14035        DC      AL3(5)                                                   82920021
                                   14036 *                                                                       82926021
                                   14037 *=E    001E    SYNTAX REQUIRES 'OR','AND', OR VERB AFTER CONDITION.     82932021
                                   14038 *=              FOUND --. DELETING TILL ONE OF THESE IS FOUND.          82938021
                                   14039 *                                                                       82944021
 007DB2 071E22                     14040 ELST1E   DC    XL3'071E22'         MSG 30 - SEV 2                 99998 82950021
 007DB5 000000                     14041        DC      AL3(0)                                                   82956021
 007DB8 000001                     14042          DC    AL3(1)              PARM ADDR IN RA0               99998 82962021
                                   14043 *                                                                       82968021
                                   14044 *=E    001F    PN NOT THAT OF A SINGLE GO PARAGRAPH                     82974021
                                   14045 *=              MAY NOT BE ALTERED. STATEMENT DELETED.                  82980021
                                   14046 *                                                                       82986021
 007DBB 001F20                     14047 ELST1F DC      XL3'001F20'                                              82992021
                                   14048 *                                                                       82998021
                                   14049 *=E    0020    NO ACTION INDICATED IF PRECEDING CONDITION IS TRUE.      83004021
                                   14050 *=              STATEMENT ACCEPTED WITH TRUE AND FALSE OUTCOMES IDE     83010021
                                   14051 *=              CAL.                                                    83016021
                                   14052 *                                                                       83022021
 007DBE 002010                     14053 ELST20 DC      XL3'002010'                                              83028021
                                   14054 *                                                                       83034021
                                   14055 *=E    0021    PROCEDURE NAME WHICH IS THE END-OF-RANGE OF A PERFOR     83040021
                                   14056 *=              MAY NOT BE ALTERED. STATEMENT DELETED                   83046021
                                   14057 *                                                                       83052021
 007DC1 002120                     14058 ELST21 DC      XL3'002120'                                              83058021
                                   14059 *                                                                       83064021
                                   14060 *=E    0022    GO DEPENDING ON MUST BE FOLLOWED BY NUMERIC INTEGRAL     83070021
                                   14061 *=              4 DIGITS OR LESS IN LENGTH. FOUND --. STATEMENT DEL     83076021
1PH40     IKFCBL40                                                                                              PAGE  294
-  LOC  OBJECT CODE    ADDR1 ADDR2  STMT   SOURCE STATEMENT                                       ASM 0201 11.03 02/14/15
0                                  14062 *                                                                       83082021
 007DC4 062211                     14063 ELST22 DC      XL3'062211'                                              83088021
 007DC7 000000                     14064        DC      AL3(0)                                                   83094021
                                   14065 *                                                                       83100021
                                   14066 *=     0023    COBOL LANGUAGE FORBIDS VARYING MORE THAN 3 DATA-NAME     83106021
                                   14067 *               BUT STATEMENT IS ACCEPTED AS WRITTEN.                   83112021
                                   14068 *                                                                       83118021
 007DCA 002300                     14069 ELST23 DC      XL3'002300'                                              83124021
                                   14070 *                                                                       83130021
                                   14071 *=E    0024    PERFORM RANGE IS FROM -- TO --, WHICH PRECEDES IT.       83136021
                                   14072 *=              STATEMENT ACCEPTED AS WRITTEN.                          83142021
                                   14073 *                                                                       83148021
 007DCD 002402                     14074 ELST24 DC      XL3'002402'                                              83154021
 007DD0 0095FC                     14075        DC      AL3(THRUPN)                                              83160021
 007DD3 000000                     14076        DC      AL3(0)                                                   83166021
                                   14077 *                                                                       83172021
                                   14078 *=E    0025    SYNTAX REQUIRES PROCEDURE-NAME TO FOLLOW 'THRU'. FOU     83178021
                                   14079 *=              'THRU' OPTION DISCARDED.                                83184021
                                   14080 *                                                                       83190021
 007DD6 152522                     14081 ELST25 DC      XL3'152522'                                              83196021
 007DD9 000000                     14082        DC      AL3(0)                                                   83202021
 007DDC 0081D0                     14083        DC      AL3(CBTHRU)                                              83208021
                                   14084 *                                                                       83214021
                                   14085 *=E    0026    VARYING OPTION REQUIRES NUMERIC DATA-NAME.FOUND LITE     83220021
                                   14086 *=              ARBITRARILY SUBSTITUTING TALLY.                         83226021
                                   14087 *                                                                       83232021
 007DDF 002621                     14088 ELST26 DC      XL3'002621'                                              83238021
 007DE2 0081C8                     14089        DC      AL3(CBTALY)                                              83244021
                                   14090 *                                                                       83250021
                                   14091 *=E    0027    -- -- IN VARYING OPTION IS NOT NUMERIC. ARBITRARILY      83256021
                                   14092 *=              SUBSTITUTING TALLY.                                     83262021
                                   14093 *                                                                       83268021
 007DE5 192723                     14094 ELST27 DC      XL3'192723'                                              83274021
 007DE8 000000                     14095        DC      AL3(0)                                                   83280021
 007DEB 000003                     14096        DC      AL3(3)                                                   83286021
 007DEE 0081C8                     14097        DC      AL3(CBTALY)                                              83292021
                                   14098 *                                                                       83298021
                                   14099 *=E    0028    -- FILE MAY NOT BE OPENED -- AND IS SKIPPED.             83304021
                                   14100 *                                                                       83310021
 007DF1 002823                     14101 ELST28 DC      XL3'002823'                                              83316021
 007DF4 000000                     14102        DC      AL3(0)                                                   83322021
 007DF7 0093A4                     14103        DC      AL3(CURENT)                                              83328021
 007DFA 000001                     14104        DC      AL3(1)                                                   83334021
                                   14105 *                                                                       83340021
                                   14106 *=E    0029    SYNTAX REQUIRES 'INPUT','OUTPUT',OR 'I-O' AFTER OPEN     83346021
                                   14107 *=              VERB. FOUND --. DELETING TILL ONE OF THESE IS FOUND     83352021
                                   14108 *                                                                       83358021
 007DFD 072921                     14109 ELST29 DC      XL3'072921'                                              83364021
 007E00 000000                     14110        DC      AL3(0)                                                   83370021
                                   14111 *                                                                       83376021
                                   14112 *=E    002A    SYNTAX REQUIRES FILE-NAME IN -- STATEMENT. FOUND --.     83382021
                                   14113 *=              DELETING TILL LEGAL ELEMENT FOUND.                      83388021
                                   14114 *                                                                       83394021
 007E03 072A22                     14115 ELST2A DC      XL3'072A22'                                              83400021
 007E06 000002                     14116        DC      AL3(2)                                                   83406021
1PH40     IKFCBL40                                                                                              PAGE  295
-  LOC  OBJECT CODE    ADDR1 ADDR2  STMT   SOURCE STATEMENT                                       ASM 0201 11.03 02/14/15
0007E09 000000                     14117        DC      AL3(0)                                                   83412021
                                   14118 *                                                                       83418021
                                   14119 *                                                                       83424021
                                   14120 *=E    002B    DIRECT BDAM-D FILE SHOULD NOT BE USED IN REWRITE         83430021
                                   14121 *              STATEMENT. STATEMENT ACCEPTED AS WRITTEN.                83436021
                                   14122 *                                                                       83442021
 007E0C 002B00                     14123 ELST2B DC    XL3'002B00'                                                83448021
                                   14124 *                                                                       83454021
                                   14125 *                                                                       83460021
                                   14126 *                                                                       83466021
                                   14127 *                                                                       83472021
                                   14128 *=E    002C      --,-- MAY NOT BE MOVED TO NUMERIC                      83478021
                                   14129 *                FIELD.  SUBSTITUTING ZERO.                             83484021
                                   14130 *                                                                       83490021
 007E0F 192C13                     14131 ELST2C DC    XL3'192C13'                                                83496021
 007E12 008E2C                     14132        DC    AL3(PLEFT)                                                 83502021
 007E15 000004                     14133        DC    AL3(4)                                                     83508021
 007E18 0081E2                     14134        DC   AL3(CBZERO)                                                 83514021
                                   14135 *                                                                       83520021
                                   14136 *=E    002D    'ADVANCING' OPTION MUST BE FOLLOWED BY MNEMONIC NAME     83526021
                                   14137 *              NUMERIC INTEGRAL DATA-NAME OR INTEGER LESS THAN 100.     83532021
                                   14138 *              FOUND__.SUBSTITUTING 1.                                  83538021
                                   14139 *                                                                       83544021
 007E1B 192D12                     14140 ELST2D DC      XL3'192D12'                                              83550021
 007E1E 000000                     14141        DC      AL3(0)                                                   83556021
 007E21 00838D                     14142        DC      AL3(BCD1)                                                83562021
                                   14143 *                                                                       83568021
                                   14144 *=E    002E    ILLEGAL TO -- -- FILE --. STATEMENT DELETED              83574021
                                   14145 *                                                                       83580021
 007E24 002E23                     14146 ELST2E DC    XL3'002E23'                                                83586021
 007E27 000002                     14147        DC    AL3(2)                                                     83592021
 007E2A 000001                     14148        DC    AL3(1)                                                     83598021
 007E2D 008F28                     14149        DC      AL3(PSTFLD)                                              83604021
                                   14150 *                                                                       83610021
                                   14151 *=E    0030    USE VERB MAY NOT APPEAR EXCEPT IN DECLARATIVES SECTI     83616021
                                   14152 *=              STATEMENT DELETED.                                      83622021
                                   14153 *                                                                       83628021
                                   14154 *=E    002F    READ OR WRITE VERB ILLEGAL FOR LABEL RECORDS.            83634021
                                   14155 *=             STATEMENT DELETED.                                       83640021
                                   14156 *                                                                       83646021
 007E30 002F20                     14157 ELST2F DC    XL3'002F20'                                                83652021
                                   14158 *                                                                       83658021
 007E33 003020                     14159 ELST30 DC      XL3'003020'                                              83664021
                                   14160 *                                                                       83670021
                                   14161 *=E    0031    INAPPROPRIATE OPTIONAL WORDS PRECEDING--IGNORED.         83676021
                                   14162 *                                                                       83682021
 007E36 003101                     14163 ELST31 DC      XL3'003101'                                              83688021
 007E39 000000                     14164        DC      AL3(0)                                                   83694021
                                   14165 *                                                                       83700021
                                   14166 *=E    0032    SYNTAX REQUIRES --. FOUND --. STATEMENT DELETED.         83706021
                                   14167 *                                                                       83712021
 007E3C 063222                     14168 ELST32 DC      XL3'063222'                                              83718021
 007E3F 000001                     14169        DC      AL3(1)                                                   83724021
 007E42 000000                     14170        DC      AL3(0)                                                   83730021
                                   14171 *                                                                       83736021
1PH40     IKFCBL40                                                                                              PAGE  296
-  LOC  OBJECT CODE    ADDR1 ADDR2  STMT   SOURCE STATEMENT                                       ASM 0201 11.03 02/14/15
0                                  14172 *=E    0033    'AFTER POSITIONING' REQUIRES 1-CHARACTER ALPHANUMERI     83742021
                                   14173 *      DATA NAME OR INTEGER LESS THAN 4. FOUND __.                      83748021
                                   14174 *              SUBSTITUTING --.                                         83754021
                                   14175 *                                                                       83760021
 007E45 193322                     14176 ELST33 DC    XL3'193322'                                                83766021
 007E48 000000                     14177        DC    AL3(0)                                                     83772021
 007E4B 00838D                     14178        DC    AL3(BCD1)                                                  83778021
                                   14179 *                                                                       83784021
                                   14180 *=E    0034    -- -- MAY NOT BE TARGET FIELD FOR -- -- IN -- STATEM     83790021
                                   14181 *=              AND IS SKIPPED.                                         83796021
                                   14182 *                                                                       83802021
 007E4E 033425                     14183 ELST34 DC      XL3'033425'                                              83808021
 007E51 008EAA                     14184        DC      AL3(PRIGHT)                                              83814021
 007E54 000005                     14185        DC      AL3(5)                                                   83820021
 007E57 008E2C                     14186        DC      AL3(PLEFT)                                               83826021
 007E5A 000004                     14187        DC      AL3(4)                                                   83832021
 007E5D 000002                     14188        DC      AL3(2)                                                   83838021
                                   14189 *                                                                       83844021
                                   14190 *=E    0035       POSITIONING VALID FOR CLOSE REEL WHILE DISP           83850021
                                   14191 *               VALID FOR CLOSE.___FILE SKIPPED.                        83856021
                                   14192 *                                                                       83862021
 007E60 003521                     14193 ELST35 DC    XL3'003521'                                                83868021
 007E63 0093A4                     14194        DC    AL3(CURENT)                                                83874021
                                   14195 *                                                                       83880021
                                   14196 *=E    0036    SYNTAX REQUIRES SORT-FILE NAME. FOUND --. STATEMENT      83886021
                                   14197 *=             DELETED.                                                 83892021
                                   14198 *                                                                       83898021
 007E66 063621                     14199 ELST36 DC      XL3'063621'                                              83904021
 007E69 000000                     14200        DC      AL3(0)                                                   83910021
                                   14201 *                                                                       83916021
                                   14202 *=E    0037    SORT SEQUENCE NOT SPECIFIED. ASCENDING ASSUMED.          83922021
                                   14203 *                                                                       83928021
 007E6C 003710                     14204 ELST37 DC      XL3'003710'                                              83934021
                                   14205 *                                                                       83940021
                                   14206 *=E    0038    SYNTAX REQUIRES --. FOUND --. DISCARDED.                 83946021
                                   14207 *                                                                       83952021
 007E6F 033822                     14208 ELST38 DC      XL3'033822'                                              83958021
 007E72 000001                     14209        DC      AL3(1)                                                   83964021
 007E75 000000                     14210        DC      AL3(0)                                                   83970021
                                   14211 *                                                                       83976021
                                   14212 *=E    0039    SORT KEYS LIMITED TO 12 OR TO 256 BYTES. -- DISCARDE     83982021
                                   14213 *                                                                       83988021
 007E78 003921                     14214 ELST39 DC      XL3'003921'                                              83994021
 007E7B 000000                     14215        DC      AL3(0)                                                   84000021
                                   14216 *                                                                       84006021
                                   14217 *=E    003A   SYNTAX REQUIRES USING ( GIVING) TO BE FOLLOWED BY         84012021
                                   14218 *              STANDARD SEQUENTIAL FILENAME DEFINED UNDER AN FD.        84018021
                                   14219 *              FOUND ___. SATEMENT DELELTED.                            84024021
                                   14220 *                                                                       84030021
 007E7E 063A21                     14221 ELST3A DC      XL3'063A21'                                              84036021
 007E81 000000                     14222        DC      AL3(0)                                                   84042021
                                   14223 *                                                                       84048021
                                   14224 *=E      003B  SORT-KEY MUST BE NON-SUBSCRIPTED FIXED-LENGTH DATA-N     84054021
                                   14225 *=              DEFINED UNDER AN SD. FOUND --. DISCARDED.               84060021
                                   14226 *                                                                       84066021
1PH40     IKFCBL40                                                                                              PAGE  297
-  LOC  OBJECT CODE    ADDR1 ADDR2  STMT   SOURCE STATEMENT                                       ASM 0201 11.03 02/14/15
0007E84 033B21                     14227 ELST3B DC      XL3'033B21'                                              84072021
 007E87 000000                     14228        DC      AL3(0)                                                   84078021
                                   14229 *                                                                       84084021
                                   14230 *=E    003C    -- IS NOT A POSITIVE NUMERIC LITERAL OF LESS THAN 10     84090021
                                   14231 *=              DIGITS. 'UNTIL' OPTION DELETED.                         84096021
                                   14232 *                                                                       84102021
 007E8A 153C12                     14233 ELST3C DC      XL3'153C12'                                              84108021
 007E8D 000001                     14234        DC      AL3(1)                                                   84114021
 007E90 0081E0                     14235        DC      AL3(CBUNTL)                                              84120021
                                   14236 *                                                                       84126021
                                   14237 *=E    003D    NEITHER NAMED NOR CHANGED SPECIFIED. STATEMENT ACCEP     84132021
                                   14238 *=              WILL BE TREATED AS FORMATTED DISPLAY.                   84138021
                                   14239 *                                                                       84144021
 007E93 003D00                     14240 ELST3D DC      XL3'003D00'                                              84150021
                                   14241 *                                                                       84156021
                                   14242 *=E    003E    'NAMED CHANGED' ACCEPTED AS 'CHANGED NAMED'.             84162021
                                   14243 *                                                                       84168021
 007E96 003E00                     14244 ELST3E DC      XL3'003E00'                                              84174021
                                   14245 *                                                                       84180021
                                   14246 *=E    003F    PREVIOUS DEBUG PACKET REFERS TO SAME PN. CARD DELETE     84186021
                                   14247 *=              AND FOLLOWING STATEMENTS ATTACHED TO IMMEDIATELY PR     84192021
                                   14248 *=              CEDING PACKET.                                          84198021
                                   14249 *                                                                       84204021
 007E99 003F00                     14250 ELST3F DC      XL3'003F00'                                              84210021
                                   14251 *                                                                       84216021
                                   14252 *=E    0040    -- IS NOT A POSITIVE NUMERIC LITERAL OF REQUIRED LEN     84222021
                                   14253 *=              SUBSTITUTING 1.                                         84228021
                                   14254 *                                                                       84234021
 007E9C 194022                     14255 ELST40 DC      XL3'194022'                                              84240021
 007E9F 000001                     14256        DC      AL3(1)                                                   84246021
 007EA2 00838D                     14257        DC      AL3(BCD1)                                                84252021
                                   14258 *                                                                       84258021
                                   14259 *=E    0041    NUMERIC LITERAL IN EXAMINE STATEMENT SHOULD BE           84264021
                                   14260 *              UNSIGNED. SIGN IGNORED.                                  84270021
                                   14261 *                                                                       84276021
 007EA5 004100                     14262 ELST41 DC      XL3'004100'                                              84282021
                                   14263 *                                                                       84288021
                                   14264 *=E    0042    SYNTAX REQUIRES 01 LEVEL SD DATA-NAME IN RELEASE STA     84294021
                                   14265 *=              MENT. FOUND --. STATEMENT DELETED.                      84300021
                                   14266 *                                                                       84306021
 007EA8 064221                     14267 ELST42 DC      XL3'064221'                                              84312021
 007EAB 000000                     14268        DC      AL3(0)                                                   84318021
                                   14269 *                                                                       84324021
                                   14270 *=E    0043    ALL 'CHARACTER' SHOULD NOT BE USED AS LITERAL IN         84330021
                                   14271 *              EXAMINE STATEMENT. STATEMENT ACCEPTED AS WRITTEN.        84336021
                                   14272 *                                                                       84342021
 007EAE 004300                     14273 ELST43 DC      XL3'004300'                                              84348021
                                   14274 *                                                                       84354021
                                   14275 *=E    0044    COMPILER ERROR. PHASE 4 TRYING TO GET DATA ATTRIBUTE     84360021
                                   14276 *=              FOR --.                                                 84366021
                                   14277 *                                                                       84372021
                             07EB1 14278 ELST44 EQU     *                                                        84378021
 007EB1 004481                     14279        DC      XL3'004481'                                              84384021
 007EB4 000001                     14280        DC      AL3(1)                                                   84390021
                                   14281 *                                                                       84396021
1PH40     IKFCBL40                                                                                              PAGE  298
-  LOC  OBJECT CODE    ADDR1 ADDR2  STMT   SOURCE STATEMENT                                       ASM 0201 11.03 02/14/15
0                                  14282 *=E    0045    SYNTAX REQUIRES DEVICE-NAME. FOUND -- IN -- STATEMEN     84402021
                                   14283 *=              SYSTEM UNIT ASSUMED.                                    84408021
                                   14284 *                                                                       84414021
 007EB7 0C4512                     14285 ELST45 DC      XL3'0C4512'                                              84420021
 007EBA 000000                     14286        DC      AL3(0)                                                   84426021
 007EBD 000002                     14287        DC      AL3(2)                                                   84432021
                                   14288 *                                                                       84438021
                                   14289 *=E      0046  'AT END' CLAUSE MISSING. 'AT END NEXT VERB' ASSUMED.     84444021
                                   14290 *                                                                       84450021
 007EC0 004610                     14291 ELST46 DC      XL3'004610'                                              84456021
                                   14292 *                                                                       84462021
                                   14293 *=E    0047    -- EXCEEDS LEGAL LENGTH. STATEMENT DELETED.              84468021
                                   14294 *                                                                       84474021
 007EC3 004721                     14295 ELST47 DC      XL3'004721'                                              84480021
 007EC6 000000                     14296        DC      AL3(0)                                                   84486021
                                   14297 *                                                                       84492021
                                   14298 *=E    0048    EXIT FROM -- PROCEDURE ASSUMED BEFORE --.                84498021
                                   14299 *                                                                       84504021
 007EC9 004802                     14300 ELST48 DC      XL3'004802'                                              84510021
 007ECC 000001                     14301        DC      AL3(1)                                                   84516021
 007ECF 000000                     14302        DC      AL3(0)                                                   84522021
                                   14303 *                                                                       84528021
                                   14304 *=E    0049    --SHOULD NOT APPEAR IN DECLARATIVES SECTION,BUT STAT     84534021
                                   14305 *=              MENT IS ACCEPTED AS WRITTEN.                            84540021
                                   14306 *                                                                       84546021
 007ED2 004901                     14307 ELST49 DC      XL3'004901'                                              84552021
 007ED5 000002                     14308        DC      AL3(2)                                                   84558021
                                   14309 *                                                                       84564021
                                   14310 *=E     004A   --STATEMENT CONTAINS FLOATING POINT DATA ITEM.           84570021
                                   14311 *              REMAINDER IGNORED.                                       84576021
                                   14312 *                                                                       84582021
 007ED8 004A11                     14313 ELST4A  DC     XL3'004A11'                                              84588021
 007EDB 000002                     14314         DC     AL3(2)                                                   84594021
                                   14315 *                                                                       84600021
                                   14316 *=E      004B  'NEXT SENTENCE' ILLEGAL AND DISCARDED. BOTH -- AND N     84606021
                                   14317 *=              -- WILL CAUSE EXECUTION OF NEXT VERB.                   84612021
                                   14318 *                                                                       84618021
 007EDE 004B12                     14319 ELST4B DC      XL3'004B12'                                              84624021
 007EE1 000001                     14320        DC      AL3(1)                                                   84630021
 007EE4 000001                     14321        DC      AL3(1)                                                   84636021
                                   14322 *                                                                       84642021
                                   14323 *=E    004C    __REQUIRES__LEVELS OF SUBSCRIPTING OR INDEXING.          84648021
                                   14324 *              SUBSTITUTING FIRST OCCURENCE OF __.                      84654021
                                   14325 *                                                                       84660021
                             07EE7 14326 ELST4C EQU     *                                                        84666021
 007EE7 004C23                     14327        DC      XL3'004C23'                                              84672021
 007EEA 0093A4                     14328        DC      AL3(CURENT)                                              84678021
 007EED 009787                     14329        DC      AL3(BCDMBS)                                              84684021
 007EF0 0093A4                     14330        DC      AL3(CURENT)                                              84690021
                                   14331 *                                                                       84696021
                                   14332 *=E    004D    -- MAY NOT BE USED AS A SUBSCRIPT SINCE IT NEEDS SUB     84702021
                                   14333 *=              SCRIPTING ITSELF.SUBSTITUTING 1ST OCCURRENCE OF --.     84708021
                                   14334 *                                                                       84714021
                             07EF3 14335 ELST4D EQU     *                                                        84720021
 007EF3 004D22                     14336        DC      XL3'004D22'                                              84726021
1PH40     IKFCBL40                                                                                              PAGE  299
-  LOC  OBJECT CODE    ADDR1 ADDR2  STMT   SOURCE STATEMENT                                       ASM 0201 11.03 02/14/15
0007EF6 000000                     14337        DC      AL3(0)                                                   84732021
 007EF9 0093A4                     14338        DC      AL3(CURENT)                                              84738021
                                   14339 *                                                                       84744021
                                   14340 *=E    004E    SUBSCRIPT MUST BE INTEGRAL DATA-NAME OR LITERAL. FOU     84750021
                                   14341 *=               NON-INTEGER --. SUBSTITUTING 1ST OCCURENCE OF --.      84756021
                                   14342 *                                                                       84762021
 007EFC 1A4E22                     14343 ELST4E DC      XL3'1A4E22'                                              84768021
 007EFF 000000                     14344        DC      AL3(0)                                                   84774021
 007F02 0093A4                     14345        DC      AL3(CURENT)                                              84780021
                                   14346 *                                                                       84786021
                                   14347 *=     004F    -- FOUND AMONG SUBSCRIPTS. SUBSTITUTING 1ST OCCURREN     84792021
                                   14348 *=              OF --.                                                  84798021
                                   14349 *                                                                       84804021
 007F05 1A4F22                     14350 ELST4F DC      XL3'1A4F22'                                              84810021
 007F08 000000                     14351        DC      AL3(0)                                                   84816021
 007F0B 0093A4                     14352        DC      AL3(CURENT)                                              84822021
                                   14353 *                                                                       84828021
                                   14354 *=E    0050    DEBUG PACKET MAY NOT REFER TO --,WHICH ITSELF IS IN      84834021
                                   14355 *=              DEBUG PACKET. CARD DELETED AND FOLLOWING STATEMENTS     84840021
                                   14356 *=              ATTACHED TO IMMEDIATELY PRECEDING PACKET                84846021
                                   14357 *                                                                       84852021
 007F0E 005000                     14358 ELST50 DC      XL3'005000'                                              84858021
                                   14359 *                                                                       84864021
                                   14360 *=E    0051   __EXCEEDS __CHARACTERS . UP TO 114 ACCEPTED               84870021
                                   14361 *                                                                       84876021
 007F11 005112                     14362 ELST51 DC      XL3'005112'                                              84882021
 007F14 0093A4                     14363        DC      AL3(CURENT)                                              84888021
 007F17 000001                     14364        DC      AL3(1)                                                   84894021
                                   14365 *                                                                       84900021
                                   14366 *=E    0052    __IS NOT DEFINED AS SUBSCRIPTED OR INDEXED.              84906021
                                   14367 *              SUBSCRIPTS DISCARDED.                                    84912021
                                   14368 *                                                                       84918021
 007F1A 005221                     14369 ELST52 DC      XL3'005221'                                              84924021
 007F1D 0093A4                     14370        DC      AL3(CURENT)                                              84930021
                                   14371 *                                                                       84936021
                                   14372 *=E    0053    OCCURS-DEPENDING-ON VARIABLE MUST BE INTEGRAL NON-SU     84942021
                                   14373 *=              SCRIPTED DATA-NAME. FOUND --. ARBITRAILY SUBSTITUT-     84948021
                                   14374 *=              ING TALLY.                                              84954021
                                   14375 *                                                                       84960021
 007F20 195322                     14376 ELST53 DC      XL3'195322'                                              84966021
 007F23 000000                     14377        DC      AL3(0)                                                   84972021
 007F26 0081C8                     14378        DC      AL3(CBTALY)                                              84978021
                                   14379 *                                                                       84984021
                                   14380 *=E    0054    ILLOGICAL USE OF PARENTHESES ACCEPTED WITH DOUBTS AS     84990021
                                   14381 *=              MEANING.                                                84996021
                                   14382 *                                                                       85002021
 007F29 005410                     14383 ELST54 DC      XL3'005410'                                              85008021
                                   14384 *                                                                       85014021
                                   14385 *=E    0055    RECORD DESCRIPTION FOR FILE -- MISSING OR ILLEGAL.       85020021
                                   14386 *=               STATEMENT DISCARDED.                                   85026021
                                   14387 *                                                                       85032021
 007F2C 005521                     14388 ELST55 DC      XL3'005521'                                              85038021
 007F2F 008F28                     14389        DC      AL3(PSTFLD)                                              85044021
                                   14390 *                                                                       85050021
                                   14391 *=E    0056    -- CONDITION USED WHERE ONLY IMPERATIVE STATEMENTS A     85056021
1PH40     IKFCBL40                                                                                              PAGE  300
-  LOC  OBJECT CODE    ADDR1 ADDR2  STMT   SOURCE STATEMENT                                       ASM 0201 11.03 02/14/15
0                                  14392 *=              LEGAL MAY CAUSE ERRORS IN PROCESSING.                   85062021
                                   14393 *                                                                       85068021
 007F32 005611                     14394 ELST56 DC      XL3'005611'                                              85074021
 007F35 000001                     14395        DC      AL3(1)                                                   85080021
                                   14396 *                                                                       85086021
                                   14397 *=E    0057    END DECLARATIVES MISSING OR MISPLACED. PROGRAM CANNO     85092021
                                   14398 *=               BE EXECUTED.                                           85098021
                                   14399 *                                                                       85104021
 007F38 005720                     14400 ELST57 DC      XL3'005720'                                              85110021
                                   14401 *                                                                       85116021
                                   14402 *=E    0058    COMPILER ERROR. COUNT FIELD 0. PH4 DISCONTINUING.        85122021
                                   14403 *                                                                       85128021
 007F3B 005880                     14404 ELST58 DC      XL3'005880'                                              85134021
                                   14405 *                                                                       85140021
                                   14406 *=E    0059    -- -- SHOULD NOT BE TARGET FIELD FOR -- -- IN --         85146021
                                   14407 *              STATEMENT. STATEMENT DISCARDED.                          85152021
                                   14408 *                                                                       85158021
 007F3E 035905                     14409 ELST59   DC    XL3'035905'                                        0321  85164021
 007F41 008EAA                     14410        DC      AL3(PRIGHT)                                              85170021
 007F44 000005                     14411        DC      AL3(5)                                                   85176021
 007F47 008E2C                     14412        DC      AL3(PLEFT)                                               85182021
 007F4A 000004                     14413        DC      AL3(4)                                                   85188021
 007F4D 000002                     14414        DC      AL3(2)                                                   85194021
                                   14415 *                                                                       85200021
                                   14416 *=E    005A    SORT-KEY MUST BE IN FIXED POSITION NOT MORE THAN 409     85206021
                                   14417 *=              BYTES FROM START OF RECORD. -- DISCARDED.               85212021
                                   14418 *                                                                       85218021
 007F50 005A21                     14419 ELST5A DC      XL3'005A21'                                              85224021
 007F53 000000                     14420        DC      AL3(0)                                                   85230021
                                   14421 *                                                                       85236021
                                   14422 *=E    005B    SYNTAX REQUIRES OPERAND. FOUND --. TEST DISCARDED.       85242021
                                   14423 *                                                                       85248021
 007F56 045B21                     14424 ELST5B DC      XL3'045B21'                                              85254021
 007F59 000000                     14425        DC      AL3(0)                                                   85260021
                                   14426 *                                                                       85266021
                                   14427 *                                                                       85272021
                                   14428 *=E    005C    EXTERNAL DECIMAL NAME USED IN TRANSFORM STATEMENT.       85278021
                                   14429 *=               STATEMENT ACCEPTED                                     85284021
                                   14430 *                                                                       85290021
 007F5C 005C00                     14431 ELST5C DC      XL3'005C00'                                              85296021
                                   14432 *                                                                       85302021
                                   14433 *=E    005D    ALL WRITE STATEMENTS FOR__SHOULD HAVE ADVANC-            85308021
                                   14434 *              ING OPTION.__ADVANCING 1 LINE ASSUMED.                   85314021
                                   14435 *                                                                       85320021
 007F5F 005D14                     14436 ELST5D DC    XL3'005D14'                                                85326021
 007F62 008F28                     14437        DC      AL3(PSTFLD)                                              85332021
 007F65 000000                     14438        DC    AL3(0)                                                     85338021
 007F68 000001                     14439        DC    AL3(1)                                                     85344021
 007F6B 000000                     14440        DC    AL3(0)                                                     85350021
                                   14441 *                                                                       85356021
                                   14442 *=E    005E    -- IS IN A RECORD OF AN APPLY-WRITE-ONLY FILE AND        85362021
                                   14443 *=              REFERRING TO IT MAY CAUSE ERRORS IF FILE IS OPENED      85368021
                                   14444 *=              OUTPUT WHEN -- STATEMENT IS EXECUTED.                   85374021
                                   14445 *                                                                       85380021
 007F6E 005E02                     14446 ELST5E DC      XL3'005E02'                                              85386021
1PH40     IKFCBL40                                                                                              PAGE  301
-  LOC  OBJECT CODE    ADDR1 ADDR2  STMT   SOURCE STATEMENT                                       ASM 0201 11.03 02/14/15
0007F71 000000                     14447        DC      AL3(0)                                                   85392021
 007F74 000002                     14448        DC      AL3(2)                                                   85398021
                                   14449 *                                                                       85404021
                                   14450 *=E    005F    WRITE FROM DATA-NAME REQUIRED FOR --, TO WHICH WRITE     85410021
                                   14451 *=              ONLY IS APPLIED. STATEMENT DELETED.                     85416021
                                   14452 *                                                                       85422021
 007F77 005F21                     14453 ELST5F DC      XL3'005F21'                                              85428021
 007F7A 008F28                     14454        DC      AL3(PSTFLD)                                              85434021
                                   14455 *                                                                       85440021
                                   14456 *=E    0060    -- STATEMENT WILL NOY BE EXECUTED                        85446021
                                   14457 *                                                                       85452021
 007F7D 006001                     14458 ELST60 DC      XL3'006001'                                              85458021
 007F80 000000                     14459        DC      AL3(0)                                                   85464021
                                   14460 *                                                                       85470021
                                   14461 *=E      0061  UNIT (REEL) OPTION ILLEGAL FOR --. DISCARDED.            85476021
                                   14462 *                                                                       85482021
 007F83 006111                     14463 ELST61   DC    XL3'006111'                                              85488021
 007F86 0093A4                     14464          DC    AL3(CURENT)                                              85494021
                                   14465 *                                                                       85500021
                                   14466 *=E    0062    ALTER STATEMENT REFERS TO A 'GO TO' IN A DIFFERENT       85506021
                                   14467 *              INDEPENDENT SEGMENT,STATEMENT IGNORED.                   85512021
                                   14468 *                                                                       85518021
 007F89 006220                     14469 ELST62 DC      XL3'006220'                                              85524021
                                   14470 *                                                                       85530021
                                   14471 *                                                                       85536021
                                   14472 *                                                                       85542021
                                   14473 *                                                                       85548021
                                   14474 *=E     0064    IDENTIFIER FOLLOWING INTO (FROM) IN READ (WRITE)        85554021
                                   14475 *              STATEMENT SHOULD NOT BE DEFINED UNDER SAME FD AS         85560021
                                   14476 *              RECORDNAME. STATEMENT ACCEPTED AS WRITTEN.               85566021
                                   14477 *                                                                       85572021
                                   14478 *                                                                       85578021
 007F8C 006400                     14479 ELST64 DC    XL3'006400'                                                85584021
                                   14480 *                                                                       85590021
                                   14481 *                                                                       85596021
                                   14482 *                                                                       85602021
                                   14483 *=E    0065   SET STATEMENT REQUIRES OPERAND AFTER 'UP' OR 'DOWN' TO    85608021
                                   14484 *              BE NUMERIC INTEGRAL DATA NAME OR POSITVE NUMERIC         85614021
                                   14485 *              LITERAL.FOUND__.STATEMENT DISCARDED.                     85620021
 007F8F 006521                     14486 ELST65 DC    XL3'006521'                                                85626021
 007F92 000000                     14487        DC    AL3(0)                                                     85632021
                                   14488 *                                                                       85638021
                                   14489 *                                                                       85644021
                                   14490 *=E     0066    SET STATEMENT REQUIRES OPERAND     AFTER 'TO' TO BE     85650021
                                   14491 *              INDEX NAME, INDEX DATA ITEM, NUMERIC INTEGRAL DATA       85656021
                                   14492 *              NAME OR POSITIVE NUM LITERAL.FOUND__.STATEMENTEN DISC    85662021
                                   14493 *              ARDED.                                                   85668021
 007F95 006621                     14494 ELST66 DC    XL3'006621'                                                85674021
 007F98 000000                     14495        DC    AL3(0)                                                     85680021
                                   14496 *                                                                       85686021
                                   14497 *                                                                       85692021
                                   14498 *=E    0067    ALL MUST BE FOLLOWED BY ALPHANUMERIC LITERAL.            85698021
                                   14499 *=               FOUND --.  DISCARDING 'ALL'.                           85704021
                                   14500 *                                                                       85710021
 007F9B 036711                     14501 ELST67 DC      XL3'036711'                                              85716021
1PH40     IKFCBL40                                                                                              PAGE  302
-  LOC  OBJECT CODE    ADDR1 ADDR2  STMT   SOURCE STATEMENT                                       ASM 0201 11.03 02/14/15
0007F9E 000000                     14502        DC      AL3(0)                                                   85722021
                                   14503 *=E    0068    SEARCH OR SEARCH-ALL STATEMENT HAS EITHER SUBSCRIPTE     85728021
                                   14504 *      OR INDEXED IDENTIFIER-1 OR ILLEGAL OPERAND. SCANNING TILL        85734021
                                   14505 *              'AT END' OR 'WHEN'. DELETING TILL ONE OF THESE FOUND     85740021
                                   14506 *                                                                       85746021
 007FA1 006820                     14507 ELST68 DC      XL3'006820'                                              85752021
                                   14508 *                                                                       85758021
                                   14509 *=E    0069    DATA-NAME CANNOT BE BOTH INDEXED AND SUBSCRIPTED         85764021
                                   14510 *              IN __ STATEMENT. SUBSCRIPTS DISCARDED.                   85770021
                                   14511 *                                                                       85776021
 007FA4 006921                     14512 ELST69  DC      XL3'006921'                                             85782021
 007FA7 000002                     14513        DC       AL3(2)                                                  85788021
                                   14514 *                                                                       85794021
                                   14515 *=E    006A    DATA-NAME MUST BE INDEXED BY INDEXNAME OR INDEXNAME      85800021
                                   14516 *              PLUS OR MINUS INTEGRAL NUMERIC LITERAL. SUBSTITUTING     85806021
                                   14517 *              FIRST OCCURENCE OF__.                                    85812021
                                   14518 *                                                                       85818021
 007FAA 006A21                     14519 ELST6A DC      XL3'006A21'                                              85824021
 007FAD 0093A4                     14520        DC      AL3(CURENT)                                              85830021
                                   14521 *                                                                       85836021
                                   14522 *=E    006B       -------ILLEGAL FOR SORT FILE. STATEMENT DELETED.      85842021
                                   14523 *                                                                       85848021
 007FB0 006B21                     14524 ELST6B  DC  XL3'006B21'                                                 85854021
 007FB3 000001                     14525        DC   AL3(1)                                                      85860021
                                   14526 *                                                                       85866021
                                   14527 *=E    006C    CALLED PROGRAM MAY NOT BE SEGMENTED.ENTRY STATEMENT      85872021
                                   14528 *              IGNORED.                                                 85878021
                                   14529 *                                                                       85884021
                                   14530 *                                                                       85890021
                                   14531 *                                                                       85896021
 007FB6 006C20                     14532 ELST6C DC    XL3'006C20'                                                85902021
                                   14533 *                                                                       85908021
                                   14534 *                                                                       85914021
                                   14535 *                                                                       85920021
                                   14536 *=E    006D    KEY IN SEARCH-ALL FLOATING POINT. STATEMENT              85926021
                                   14537 *              CHANGED  TO  SEARCH  STATEMENT.                          85932021
                                   14538 *                                                                       85938021
 007FB9 006D20                     14539 ELST6D DC    XL3'006D20'                                                85944021
                                   14540 *                                                                       85950021
                                   14541 *=E     006E    CONDITION IN SEARCH ALL STATEMENT TESTS KEY WITHOUT     85956021
                                   14542 *              TESTING ALL PRECEDING KEYS. STATEMENT DISCARDED.         85962021
 007FBC 006E20                     14543 ELST6E DC    XL3'006E20'                                                85968021
                                   14544 *                                                                       85974021
                                   14545 *=E    006F    INVALID CONDITION OR INVALID FORMULA IN                  85980021
                                   14546 *              CONDITION IN SEARCH-ALL STATEMENT. STATEMENT             85986021
                                   14547 *              DISCARDED.                                               85992021
                                   14548 *                                                                       85998021
 007FBF 006F20                     14549 ELST6F DC      XL3'006F20'                                              86004021
                                   14550 *                                                                       86010021
                                   14551 *=E    0070       SET UP OR DOWN SHOULD NOT INCREMENT INDEXNAME BY      86016021
                                   14552 *              INDEX DATA ITEM. ACCEPTED AS WRITTEN.                    86022021
                                   14553 *                                                                       86028021
                                   14554 *                                                                       86034021
 007FC2 007000                     14555 ELST70 DC    XL3'007000'                                                86040021
                                   14556 *                                                                       86046021
1PH40     IKFCBL40                                                                                              PAGE  303
-  LOC  OBJECT CODE    ADDR1 ADDR2  STMT   SOURCE STATEMENT                                       ASM 0201 11.03 02/14/15
0                                  14557 *=E     0071    LABEL DECLARATIVE ILLEGAL FOR ISAM FILE___.FILE         86052021
                                   14558 *              SKIPPED.                                                 86058021
                                   14559 *                                                                       86064021
                                   14560 *                                                                       86070021
 007FC5 007121                     14561 ELST71 DC    XL3'007121'                                                86076021
 007FC8 000000                     14562        DC    AL3(0)                                                     86082021
                                   14563 *                                                                       86088021
                                   14564 *=E    0072    LABEL DECLARATIVE FOR BDAM FILE SHOULD NOT HAVE UNIT     86094021
                                   14565 *              OR REEL OPTION.___FILE SKIPPED.                          86100021
                                   14566 *                                                                       86106021
 007FCB 007221                     14567 ELST72 DC    XL3'007221'                                                86112021
 007FCE 000000                     14568        DC    AL3(0)                                                     86118021
                                   14569 *                                                                       86124021
                                   14570 *=E    0073    -- STATEMENT REQUIRES IDENTIFIER WHOSE USAGE IS          86130021
                                   14571 *              DISPLAY.  FOUND SPECIAL REGISTER.  STATEMENT DISCARDED.  86136021
                                   14572 *                                                                       86142021
 007FD1 067321                     14573 ELST73 DC      XL3'067321'                                              86148021
 007FD4 000002                     14574          DC    AL3(2)                                                   86154021
                                   14575 *                                                                       86160021
                                   14576 *                                                                       86166021
                                   14577 *                                                                       86172021
                                   14578 *                                                                       86178021
                                   14579 *                                                                  5965 86184021
                                   14580 *                                                                  5965 86190021
 007FD7 008D00                     14581 ELST8D DC    XL3'008D00'                                           5965 86196021
                                   14582 *=E    008D    INVALID KEY CLAUSE IN REWRITE USING QSAM/QISAM IGNORED   86202021
                                   14583 *                                                                  5965 86208021
                                   14584 *                                                                  5965 86214021
                                   14585 *        EXPECTING ... FOUND ... STATEMENT ACCEPTED AS WRITTEN    50782 86220021
 007FDA 008302                     14586 ELST83   DC    XL3'008302'                                        50782 86226021
 007FDD 000001                     14587          DC    AL3(1)                                             50782 86232021
 007FE0 000000                     14588          DC    AL3(0)                                             50782 86238021
                                   14589 *                    ADCONS FOR VERB ANALYZERS                          86244021
                                   14590 *                                                                       86250021
                                   14591 *                                                                       86256021
 007FE4                            14592          DS    0F                                                       86262021
                             07FE4 14593 AVRB   EQU     *                  CODE      ELEMENT-COUNT               86268021
 007FE4 05                         14594        DC      XL1'5'                       5                           86274021
 007FE5 001310                     14595        DC      AL3(ADD)           0                                     86280021
 007FE8 05                         14596        DC      XL1'5'                       5                           86286021
 007FE9 001310                     14597        DC      AL3(SUBTR)         1                                     86292021
 007FEC 05                         14598        DC      XL1'5'                       5                           86298021
 007FED 001310                     14599        DC      AL3(MULT)          2                                     86304021
 007FF0 05                         14600        DC      XL1'5'                      5                            86310021
 007FF1 001310                     14601        DC      AL3(DIV)           3                                     86316021
 007FF4 00001B56                   14602        DC      A(COMPUT)          4                                     86322021
 007FF8 02                         14603 ASTOR  DC      XL1'2'                       2                           86328021
 007FF9 001BEC                     14604        DC      AL3(STORAN)        5                                     86334021
 007FFC 0000071E                   14605        DC      A(EOS)             6                                     86340021
 008000 00001DB8                   14606 AIF    DC      A(IF)              7                                     86346021
 008004 0000271C                   14607        DC      A(ELSE)            8                                     86352021
 008008                            14608        DS      7F                 CODES FOR RELATIONALS                 86358021
 008024 01                         14609        DC      XL1'1'                       1                           86364021
 008025 0012CE                     14610        DC      AL3(STOP)          10                                    86370021
 008028 01                         14611        DC      XL1'1'                       1                           86376021
1PH40     IKFCBL40                                                                                              PAGE  304
-  LOC  OBJECT CODE    ADDR1 ADDR2  STMT   SOURCE STATEMENT                                       ASM 0201 11.03 02/14/15
0008029 0007F0                     14612        DC      AL3(GO)            11                                    86382021
                             0802C 14613 ACB1   EQU     *                                                        86388021
 00802C                            14614        DS      10F                CODES FOR GO-DEPENDING,AND RELATS     86394021
 008054 02                         14615        DC      XL1'2'                       2                           86400021
 008055 000ABA                     14616        DC      AL3(ALTER)         1C                                    86406021
 008058 02                         14617        DC      XL1'2'                       2                           86412021
 008059 00000A                     14618        DC      AL3(MOVE)          1D                                    86418021
 00805C 04                         14619        DC      XL1'4'                            4                      86424021
 00805D 0004A2                     14620        DC      AL3(EXAMIN)        1E                                    86430021
 008060 04                         14621        DC      XL1'4'                       4                           86436021
 008061 000290                     14622        DC      AL3(TRFORM)        1F                                    86442021
 008064 05                         14623        DC      XL1'5'                       5                           86448021
 008065 004982                     14624        DC      AL3(READ)          20                                    86454021
 008068 05                         14625        DC      XL1'5'                       5 CONTINUOUS-SEGM'TED       86460021
 008069 0045DE                     14626        DC      AL3(OPEN)          21                                    86466021
 00806C 05                         14627        DC      XL1'5'                       5 CONTINUOUS SEGM'TED       86472021
 00806D 0045CC                     14628        DC      AL3(CLOSE)         22                                    86478021
 008070 05                         14629        DC      XL1'5'                       5                           86484021
 008071 00495A                     14630        DC      AL3(WRITE)         23                                    86490021
 008074 05                         14631        DC      XL1'5'                       5                           86496021
 008075 004966                     14632        DC      AL3(REWRIT)        24                                    86502021
 008078 05                         14633        DC      XL1'5'              5- SEGMENTED STRING                  86508021
 008079 004426                     14634        DC      AL3(ACCEPT)         25                                   86514021
 00807C 05                         14635        DC      XL1'5'                       5 CONTINUOUS-SEGM'TED       86520021
 00807D 004328                     14636        DC      AL3(DISPLA)         26                                   86526021
 008080 04                         14637        DC      XL1'4'                       SEGMENTED-4                 86532021
 008081 002812                     14638        DC      AL3(EXHIBT)   27                                         86538021
 008084 00                         14639          DC    XL1'0'              0                                    86544021
 008085 002922                     14640        DC      AL3(RESET)    28                                         86550021
 008088 00                         14641          DC    XL1'0'              0                                    86556021
 008089 002922                     14642        DC      AL3(READY)    29                                         86562021
 00808C 01                         14643        DC    XL1'1'                                                     86568021
 00808D 00312E                     14644        DC    AL3(RETURN)           2A                                   86574021
 008090 04                         14645        DC      XL1'4'                       4                           86580021
 008091 002950                     14646        DC      AL3(ONVRB)         2B                                    86586021
 008094 05                         14647 AENTRY DC      XL1'5'              SEGMENTED STRING                     86592021
 008095 0032C8                     14648        DC    AL3(ENTRY)            2C                                   86598021
 008098 05                         14649        DC      XL1'5'              SEGMENTED STRING                     86604021
 008099 0032BC                     14650        DC    AL3(CALL)             2D                                   86610021
 00809C                            14651        DS    1F                      ENTER WAS HERE                     86616021
 0080A0                            14652        DS    2F                     HOLD,PROCESS WERE HERE              86622021
 0080A8 00003434                   14653        DC      A(USE)             31                                    86628021
 0080AC 000033C6                   14654        DC      A(EXIT)            32                                    86634021
 0080B0 01                         14655        DC      XL1'1'                       1                           86640021
 0080B1 0001F2                     14656        DC      AL3(MOVRPT)        33                                    86646021
                             080B4 14657 ACB2   EQU     *                                                        86652021
 0080B4                            14658        DS    2F                    TO BE USED AS ORG                    86658021
 0080BC 03                         14659 ASORT  DC    XL1'3'                                                     86664021
 0080BD 002A88                     14660        DC    AL3(SORT)             36                                   86670021
 0080C0 01                         14661        DC    XL1'1'                1                                    86676021
 0080C1 003224                     14662        DC      AL3(RLEASE)        37                                    86682021
 0080C4 00000C78                   14663 APRFRM DC      A(PRFORM)          38                                    86688021
 0080C8                            14664        DS      1F                 (SUBSCRIPT VERB)                      86694021
 0080CC 000032BC                   14665        DC    A(LINKVB)            3A                                    86700021
 0080D0 02                         14666        DC      XL1'2'                       2                           86706021
1PH40     IKFCBL40                                                                                              PAGE  305
-  LOC  OBJECT CODE    ADDR1 ADDR2  STMT   SOURCE STATEMENT                                       ASM 0201 11.03 02/14/15
00080D1 00279C                     14667        DC      AL3(DEBUGG)        3B                                    86712021
                             080D4 14668 ACB3   EQU     *                                                        86718021
 0080D4                            14669        DS    3F                    USED AS ORG                          86724021
                                   14670 *              INTERNAL Q- AND R- ROUTINE VERBS                         86730021
 0080E0 02                         14671        DC      XL1'2'                       2                           86736021
 0080E1 0001F2                     14672        DC      AL3(MOVRPT)        3F                                    86742021
 0080E4 02                         14673        DC      XL1'2'                       2                           86748021
 0080E5 0001F2                     14674        DC      AL3(MOVRPT)        40                                    86754021
 0080E8 04                         14675          DC    XL1'4'              4                               4758 86760021
 0080E9 0001F2                     14676        DC      AL3(MOVRPT)        41                                    86766021
 0080EC 02                         14677        DC      XL1'2'                       2                           86772021
 0080ED 0001F2                     14678        DC      AL3(MOVRPT)        42                                    86778021
 0080F0 04                         14679        DC      XL1'4'                       4                           86784021
 0080F1 0001EA                     14680        DC      AL3(UPDATE)                                              86790021
                             080F4 14681 ACB4   EQU     *                                                        86796021
 0080F4                            14682        DS    8F                    USED    AS ORG                       86802021
                                   14683 *              INTERNAL VERBS Q-ROUTINE AND REPORT GENERATOR            86808021
                                   14684 * VERBS FROM HERE UP TO ASRCH GO TO MOVRPT,ARE CONVERTED TO P-2         86814021
                                   14685 * TEXT AND JUST  PASSED  ON.                                            86820021
 008114 01                         14686        DC      XL1'1'                       1                           86826021
 008115 0001F2                     14687        DC      AL3(MOVRPT)                                              86832021
 008118 00                         14688        DC      XL1'0'                       0                           86838021
 008119 0001F2                     14689        DC      AL3(MOVRPT)                                              86844021
 00811C 00                         14690        DC      XL1'0'                       0                           86850021
 00811D 0001F2                     14691        DC      AL3(MOVRPT)                                              86856021
 008120 01                         14692        DC      XL1'1'                                                   86862021
 008121 0001F2                     14693        DC      AL3(MOVRPT)                                              86868021
 008124 00                         14694        DC      XL1'0'                       0                           86874021
 008125 0001F2                     14695        DC      AL3(MOVRPT)                                              86880021
 008128 00                         14696        DC      XL1'0'                       0                           86886021
 008129 0001F2                     14697        DC      AL3(MOVRPT)                                              86892021
 00812C 00                         14698        DC      XL1'0'                       0                           86898021
 00812D 0001F2                     14699        DC      AL3(MOVRPT)                                              86904021
 008130 00                         14700        DC      XL1'0'                       0                           86910021
 008131 0001F2                     14701        DC      AL3(MOVRPT)                                              86916021
 008134 00                         14702        DC      XL1'0'                       0                           86922021
 008135 0001F2                     14703        DC      AL3(MOVRPT)                                              86928021
 008138 00                         14704        DC      XL1'0'                       0                           86934021
 008139 0001F2                     14705        DC      AL3(MOVRPT)                                              86940021
 00813C 00                         14706        DC      XL1'0'                       0                           86946021
 00813D 0001F2                     14707        DC      AL3(MOVRPT)                                              86952021
 008140 00                         14708        DC      XL1'0'                       0                           86958021
 008141 0001F2                     14709        DC      AL3(MOVRPT)                                              86964021
 008144 00                         14710        DC      XL1'0'                       0                           86970021
 008145 0001F2                     14711        DC      AL3(MOVRPT)                                              86976021
 008148 00                         14712        DC      XL1'0'                       0                           86982021
 008149 0001F2                     14713        DC      AL3(MOVRPT)                                              86988021
 00814C 00                         14714        DC      XL1'0'                       0                           86994021
 00814D 0001F2                     14715        DC      AL3(MOVRPT)                                              87000021
 008150 00                         14716        DC      XL1'0'                       0                           87006021
 008151 0001F2                     14717        DC      AL3(MOVRPT)                                              87012021
 008154 03                         14718        DC      XL1'3'                       3                           87018021
 008155 0001F2                     14719        DC      AL3(MOVRPT)        5C                                    87024021
 008158 00                         14720        DC      XL1'0'                       0                           87030021
 008159 0001F2                     14721        DC      AL3(MOVRPT)        5D                                    87036021
1PH40     IKFCBL40                                                                                              PAGE  306
-  LOC  OBJECT CODE    ADDR1 ADDR2  STMT   SOURCE STATEMENT                                       ASM 0201 11.03 02/14/15
000815C 00003798                   14722 ASRCH  DC    A(SEARCH)             K   5E                               87042021
 008160 00003C92                   14723 ASRCHAL DC     A(SRCHAL)           5F                                   87048021
                             08164 14724 ASET  EQU   *      SET,SET UP                                           87054021
 008164                            14725        DS    1F                                                         87060021
 008168 02                         14726        DC    XL1'2'                                                     87066021
 008169 00405E                     14727        DC    AL3(SET)                                                   87072021
 00816C 01                         14728        DC    XL1'1'                                                     87078021
 00816D 0045C8                     14729        DC    AL3(FREE)              L 62                                87084021
 008170                            14730        DS    1F                                                         87090021
 008174 03                         14731        DC    XL1'3'                                                     87096021
 008175 004512                     14732         DC    AL3(START)          64                                    87102021
 008178 05                         14733        DC    XL1'5'                                                     87108021
 008179 00497E                     14734        DC    AL3(READUP)       65                                       87114021
 00817C                            14735        DS    6F                                                         87120021
 008194 02                         14736        DC    XL1'2'                                                     87126021
 008195 0001F2                     14737        DC    AL3(MOVRPT)             VIRTUAL DEFINITION                 87132021
 008198                            14738        DS    4F                                                         87138021
 0081A8 05                         14739        DC    XL1'5'                                                     87144021
 0081A9 004982                     14740        DC    AL3(READ)            READ CHECKPOINT                       87150021
 0081AC 05                         14741        DC    XL1'5'                                                     87156021
 0081AD 00495A                     14742        DC    AL3(WRITE)            WRITE CHECKPOINT                     87162021
 0081B0 000001F2                   14743     DC    A(MOVRPT)           GOBACK- NO OPERANDS                       87168021
 0081B4                            14744        DS    1F                                                         87174021
 0081B8 05                         14745        DC    XL1'5'                                                     87180021
 0081B9 00497E                     14746        DC    AL3(READUP)           READ UPDATE CHECKPOINT               87186021
 0081BC 05                         14747        DC    XL1'5'                                                     87192021
 0081BD 0001F2                     14748        DC    AL3(MOVRPT)          76                                    87198021
                             081C0 14749 LASTAD EQU     *                                                        87204021
                                   14750 *                                                                       87210021
                                   14751 *                        OTHER ADCONS                                   87216021
                                   14752 *                                                                       87222021
 0081C0                      08008 14753        ORG     AIF+8         (USE SLACK OF RELATIONALS IN VERB LIST     87228021
 008008 0000012C                   14754 APRYME DC      A(APRIME-COS)                                            87234021
 00800C 00000130                   14755 ANSERT DC      A(AINSRT-COS)                                            87240021
 008010 00000134                   14756        DC      A(ADSTAT-COS)                                            87246021
 008014 00000138                   14757 ARELES DC      A(RELADD-COS)                                            87252021
 008018 0000700C                   14758 APFNDL DC      A(PFINDL)                                                87258021
 00801C 000093A4                   14759 ACURNT DC      A(CURENT)                                                87264021
 008020 00000000                   14760 COSADR DC      A(0)                                                     87270021
1PH40     IKFCBL40                                                                                              PAGE  307
-  LOC  OBJECT CODE    ADDR1 ADDR2  STMT   SOURCE STATEMENT                                       ASM 0201 11.03 02/14/15
0                                  14762 *                                                                       87282021
                                   14763 *                                 COBOL WORDS                           87288021
                                   14764 *                                                                       87294021
                                   14765 * L O O K  O U T  F O R  O R G'S  I N  M A K I N G  I N S E R T I O     87300021
                                   14766 *                                                                       87306021
 008024                      0802C 14767        ORG     ACB1         *     USE 10-WORD SLACK IN ADCON LIST       87312021
 00802C 5473                       14768 CBADV  DC      XL2'5473'          ADVANCING                             87318021
 00802E 5455                       14769 CBALF  DC      XL2'5455'           ALPHABETIC                           87324021
 008030 5479                       14770 CBALL  DC      XL2'5479'           'ALL'                                87330021
 008032 545D                       14771 CBAND  DC      XL2'545D'           AND                                  87336021
 008034 5492                       14772 CBCHAR DC      XL2'5492'           CHARACTERS                           87342021
 008036 5478                       14773 CBCNSL DC      XL2'5478'           CONSOLE                              87348021
 008038 547A                       14774 CBCORR DC      XL2'547A'          CORRESPONDING                         87354021
 00803A 5494                       14775 CBDEPN DC      XL2'5494'           DEPENDING                            87360021
 00803C 4408                       14776 CBELSE DC      XL2'4408'          ELSE                                  87366021
 00803E 4406                       14777 CBEOS  DC      XL2'4406'          .                                     87372021
 008040 5006                       14778 CBEQSN DC      XL2'5006'           =                                    87378021
 008042 5496                       14779 CBFRST DC      XL2'5496'           'FIRST'                              87384021
 008044 5481                       14780 CBGIVE DC      XL2'5481'          GIVING                                87390021
 008046 4407                       14781 CBIF   DC      XL2'4407'           IF                                   87396021
 008048 5471                       14782 CBINVL DC      XL2'5471'          INVALID                               87402021
 00804A 546B                       14783 CBIO   DC      XL2'546B'          I-O                                   87408021
 00804C 549C                       14784 CBIS   DC      XL2'549C'           IS                                   87414021
 00804E 549F                       14785 CBKEY  DC      XL2'549F'          KEY                                   87420021
 008050 547C                       14786 CBLEAD DC      XL2'547C'           'LEADING'                            87426021
 008052 500A                       14787 CBLESS DC      XL2'500A'           LESS                                 87432021
 008054                      080B4 14788        ORG     ACB2         *     USE 3-WORD  SLACK IN ADCON LIST       87438021
 0080B4 5495                       14789 CBLINE DC      XL2'5495'          LINE                                  87444021
 0080B6 5200                       14790 CBLPRN   DC    XL2'5200'      (                                         87450021
 0080B8 5301                       14791 CBMINS   DC    XL2'5301'      -                                         87456021
 0080BA 5008                       14792 CBMORE DC      XL2'5008'           GREATER                              87462021
 0080BC                      080D4 14793        ORG     ACB3         *     USE 3-WORD  SLACK IN ADCON LIST       87468021
 0080D4 441D                       14794 CBMOVE DC      XL2'441D'           MOVE                                 87474021
 0080D6 5458                       14795 CBNEG  DC      XL2'5458'           NEGATIVE                             87480021
 0080D8 5497                       14796 CBNEXT DC      XL2'5497'           NEXT                                 87486021
 0080DA 549E                       14797 CBNO   DC      XL2'549E'          NO                                    87492021
 0080DC 545C                       14798 CBNOT  DC      XL2'545C'           NOT                                  87498021
 0080DE 5456                       14799 CBNUM  DC      XL2'5456'           NUMERIC                              87504021
 0080E0                      080F4 14800        ORG     ACB4               USE 8-WORD SLACK                      87510021
 0080F4 542B                       14801 CBON   DC      XL2'542B'          ON                                    87516021
 0080F6 545E                       14802 CBOR   DC      XL2'545E'           OR                                   87522021
 0080F8 5300                       14803 CBPLUS   DC    XL2'5300'      +                                         87528021
 0080FA 5457                       14804 CBPOS  DC      XL2'5457'           POSITIVE                             87534021
 0080FC 5486                       14805 CBPRCD DC      XL2'5486'           PROCEED                              87540021
 0080FE 540D                       14806 CBPROG DC    XL2'540D'             PROGRAM                              87546021
 008100 5468                       14807 CBPRNG DC      XL2'5468'          PROCESSING                            87552021
 008102 757D                       14808 CBQUOT DC      XL2'757D'          QUOTE                                 87558021
 008104 54A5                       14809 CBSECT DC      XL2'54A5'          SECTION                               87564021
 008106 54CD                       14810 CBRCRD DC      XL2'54CD'          RECORD                                87570021
 008108 547E                       14811 CBRPLC DC      XL2'547E'           'REPLACING'                          87576021
 00810A 5482                       14812 CBROUN DC      XL2'5482'           ROUNDED                              87582021
 00810C 5201                       14813 CBRPRN   DC    XL2'5201'      )                                         87588021
 00810E 5485                       14814 CBRUN  DC      XL2'5485'           RUN                                  87594021
 008110 5410                       14815 CBSAME DC      XL2'5410'          DUMMY USED IN MOVE-CORRESPONDING      87600021
 008112 54FB                       14816 CBSENT DC      XL2'54FB'           SENTENCE                             87606021
1PH40     IKFCBL40                                                                                              PAGE  308
-  LOC  OBJECT CODE    ADDR1 ADDR2  STMT   SOURCE STATEMENT                                       ASM 0201 11.03 02/14/15
0008114                      081C0 14817        ORG     LASTAD                                                   87612021
 0081C0 5483                       14818 CBSIZE DC      XL2'5483'           SIZE                                 87618021
 0081C2 7540                       14819 CBSPCE DC      XL2'7540'           FIGCON SPACE                         87624021
 0081C4 5418                       14820 CBSIN  DC      XL2'5418'          SYSIN                                 87630021
 0081C6 5419                       14821 CBSOUT DC      XL2'5419'          SYSOUT                                87636021
 0081C8 7905                       14822 CBTALY DC      XL2'7905'          TALLY                                 87642021
 0081CA 547B                       14823 CBTLYG DC      XL2'547B'           'TALLYING                            87648021
 0081CC 5453                       14824 CBTHAN DC      XL2'5453'           THAN                                 87654021
 0081CE 5450                       14825 CBTHEN DC      XL2'5450'           THEN                                 87660021
 0081D0 5487                       14826 CBTHRU DC      XL2'5487'           THROUGH (THRU)                       87666021
 0081D2 5493                       14827 CBTIME DC      XL2'5493'           TIMES                                87672021
 0081D4 5488                       14828 CBVARY DC      XL2'5488'           VARYING                              87678021
 0081D6 546C                       14829 CBWITH DC      XL2'546C'          WITH                                  87684021
                                   14830 *              KEEP THESE 4 TOGETHER. ARITH INDEXES THRU THEM           87690021
 0081D8 549B                       14831 CBTO   DC      XL2'549B'     *4     TO                                  87696021
 0081DA 549D                       14832 CBFROM DC      XL2'549D'     *4     FROM                                87702021
 0081DC 547F                       14833 CBBY   DC      XL2'547F'     *4     BY                                  87708021
 0081DE 546F                       14834 CBINTO DC      XL2'546F'     *4     INTO                                87714021
 0081E0 547D                       14835 CBUNTL DC      XL2'547D'           'UNTIL'                              87720021
 0081E2 75F0                       14836 CBZERO DC      XL2'75F0'           ZERO                                 87726021
 0081E4 548D                       14837 CBASCD DC    XL2'548D'             'ASCENDING'                          87732021
 0081E6 5470                       14838 CBAT   DC      XL2'5470'           'AT'                                 87738021
 0081E8 548F                       14839 CBCHGD DC      XL2'548F'           CHANGED                              87744021
 0081EA 548A                       14840 CBCOBO DC      XL2'548A'           'COBOL'                              87750021
 0081EC 548C                       14841 CBDSCD DC    XL2'548C'             'DESCENDING'                         87756021
 0081EE 54A1                       14842 CBEND  DC      XL2'54A1'          END           VISIBILITY              87762021
 0081F0 549A                       14843 CBEVER DC      XL2'549A'          EVERY                                 87768021
 0081F2 5466                       14844 CBINPT DC    XL2'5466'             'INPUT'                              87774021
 0081F4 5491                       14845 CBLINK DC      XL2'5491'          LINKAGE                               87780021
 0081F6 5463                       14846 CBMORL DC      XL2'5463'          MORE-LABELS                           87786021
 0081F8 5476                       14847 CBLOCK DC      XL2'5476'          LOCK                                  87792021
 0081FA 5490                       14848 CBNAMD DC      XL2'5490'           NAMED                                87798021
 0081FC 5464                       14849 CBOUTP DC    XL2'5464'             'OUTPUT'                             87804021
 0081FE 5499                       14850 CBPROC DC      XL2'5499'           'PROCEDURE'                          87810021
 008200 546E                       14851 CBRVRS DC      XL2'546E'          REVERSED                              87816021
 008202 546D                       14852 CBRWND DC      XL2'546D'          REWIND                                87822021
 008204 5477                       14853 CBSYSP DC      XL2'5477'           SYSPCH                               87828021
 008206 548E                       14854 CBTRAC DC      XL2'548E'           TRACE                                87834021
 008208 541B                       14855 CBTRY  DC      XL2'541B'                                                87840021
 00820A 544A                       14856 CBLEAVE DC    XL2'544A'            LEAVE                                87846021
 00820C 544B                       14857 CBRERD DC    XL2'544B'             REREAD                               87852021
 00820E 544C                       14858 CBDISP DC    XL2'544C'             DISP                                 87858021
 008210 545A                       14859 CBEOP  DC    XL2'545A'             END-OF-PAGE (EOP)                    87864021
 008212 54DC                       14860 CBPOSN DC    XL2'54DC'             POSITIONING                          87870021
 008214 5498                       14861 CBUPON DC      XL2'5498'          UPON                                  87876021
 008216 5489                       14862 CBUSIN DC    XL2'5489'             'USING'                              87882021
 008218 54E2                       14863 CBWHEN DC    X'54E2'               WHEN                                 87888021
 00821A 543A                       14864 CBUP     DC  X'543A'      UP                                            87894021
 00821C 543B                       14865 CBDOWN   DC  X'543B'      DOWN                                          87900021
 00821E 445E                       14866 CBSRCH DC    X'445E'               SEARCH                               87906021
 008220 445F                       14867 CBSRCHA DC   X'445F'               SEARCH ALL (P-1 FORMAT)              87912021
 008222 443B                       14868 CBDBUG DC      XL2'443B'          DEBUG                                 87918021
 008224 B900                       14869 ERSYMB DC      XL2'B900'          1ST 2 BYTES OF 'UNDEFINED' (3RD=0     87924021
 008226 543E                       14870 CBREM  DC    XL2'543E'                         REMAINDER                87930021
 008228 42FF                       14871 EOFWD  DC      XL2'42FF'           PROGRAM BREAK                        87936021
1PH40     IKFCBL40                                                                                              PAGE  309
-  LOC  OBJECT CODE    ADDR1 ADDR2  STMT   SOURCE STATEMENT                                       ASM 0201 11.03 02/14/15
000822A 5307                       14872 UMIN   DC      XL2'5307'          DUMMY FOR UNARY MINUS - HIGHEST S     87942021
                                   14873 *                                                                       87948021
                                   14874 *                        WORDS USED IN USE-ANALYZER LOOPS               87954021
                                   14875 *                                                                       87960021
 00822C 5472                       14876 CBAFTR DC      XL2'5472'          AFTER   *                             87966021
 00822E 5469                       14877 CBEFOR DC    XL2'5469'        BEFORE  *                                 87972021
 008230 54D5                       14878 CBSTND DC      XL2'54D5'          STANDARD    *                         87978021
 008232 5484                       14879 CBEROR DC      XL2'5484'          ERROR       *                         87984021
 008234 5461                       14880        DC      XL2'5461'          BEGINNING   *                         87990021
 008236 5462                       14881        DC      XL2'5462'          ENDING      *                         87996021
 008238 5417                       14882 CBREEL DC    XL2'5417'         *                                        88002021
 00823A 54A2                       14883 CBUNIT DC    XL2'54A2'         *                                        88008021
 00823C 543C                       14884 CBFILE DC    XL2'543C'             *                                    88014021
 00823E 54D1                       14885 CBLABL DC    XL2'54D1'             *                                    88020021
 008240 546A                       14886        DC    XL2'546A'          *                                       88026021
                             08242 14887 CBRAND EQU     *                                                        88032021
 008242 5467                       14888        DC      XL2'5467'          RANDOM      *                         88038021
 008244 4A                         14889 VBCODE DC      X'4A'              USE-REPORT    *                       88044021
 008245 46                         14890        DC      X'46'              USE-LABELS    *                       88050021
 008246 44                         14891        DC      X'44'              USE-ERROR     *                       88056021
 008247 48                         14892        DC      X'48'              USE-RANDOM    *                       88062021
                                   14893 *                                                                       88068021
                                   14894 *                                                                       88074021
                                   14895 *  M I S C E L L A N E O U S   D E F I N I T I O N S                    88080021
                                   14896 *                                                                       88086021
 008248                            14897        DS      0F                                                       88092021
 008248 0000000F                   14898 M4BITS DC      XL4'F'                                                   88098021
 00824C 32030100                   14899 INTG1L DC      XL4'32030100'      1ST 4-BYTES OF U DIGIT LITERAL        88104021
 008250 840502                     14900 PSTVRB DC      XL3'840502'    STORE-VERB WITH COUNT=2                   88110021
 008253 840005                     14901 ADDVRB DC      XL3'840005'         ADD VERB                             88116021
 008256 841101                     14902 CBGO   DC      XL3'841101'        'GO' WITH ELEMENT-COUNT=1             88122021
 008259 843E02                     14903 EQUVRB DC      XL3'843E02'         EQUATE                               88128021
 00825C 843D01                     14904 TRACVB DC      XL3'843D01'        TRACE VERB FOR PHASE 5                88134021
 00825F 842D01                     14905 CALLVB DC      XL3'842D01'         CALL                                 88140021
 008262 841D02                     14906 MOVEVB DC      XL3'841D02'         MOVE                                 88146021
 008265 841C02                     14907 MOVEVN DC      XL3'841C02'        ALTER VERB FOR PHASE 5                88152021
 008268 843803                     14908 GOTIME DC      XL3'843803'        GO VERB FOR PERFORM N TIMES           88158021
 00826B 847400                     14909 EXITPG DC    XL3'847400'           EXIT PROGRAM                         88164021
 00826E                            14910        DS      0H                                                       88170021
 00826E 01DC                       14911 HIVERB DC      AL2(LASTAD-AVRB)   IC-TEXT LIMIT FOR VERBS               88176021
 008270 D700 2000 2000 00000 00000 14912 CLEAN    XC    DX0(LX1,RW2),DX0(RW2) ZEROES AREA                        88182021
 008276 4208                       14913 NDCBRK DC      XL2'4208'             END-DECLARATIVES BREAK             88188021
 008278 800B                       14914 TALMOD DC      XL2'800B'          MODE OF 'TALLY'                       88194021
 00827A 6003                       14915 DNANMD DC      XL2'6003'     STORED MODE OF ALPHANUMERIC DATA NAME      88200021
 00827C 800A                       14916 MODIFL DC      XL2'800A'          MODE FOR INTERNAL FL-PT               88206021
 00827E 10FF                       14917 INDNMD DC    X'10FF'              MODE FOR INDEX DATA ITEM              88212021
 008280 75C0                       14918 CBC0   DC      XL2'75C0'           OTHER FIGCON                         88218021
 008282 75C9                       14919 CBC9   DC      XL2'75C9'           I                                    88224021
 008284 75D0                       14920 CBD0   DC      XL2'75D0'           J                                    88230021
 008286 75D9                       14921 CBD9   DC      XL2'75D9'           R                                    88236021
 008288 75E1                       14922 CBE1   DC      XL2'75E1'           S                                    88242021
 00828A 75E9                       14923 CBE9   DC      XL2'75E9'           Z                                    88248021
 00828C 75F9                       14924 CBF9   DC      XL2'75F9'           9                                    88254021
                                   14925 *                                                                       88260021
                                   14926 *                                 NUMBERS                               88266021
1PH40     IKFCBL40                                                                                              PAGE  310
-  LOC  OBJECT CODE    ADDR1 ADDR2  STMT   SOURCE STATEMENT                                       ASM 0201 11.03 02/14/15
0                                  14927 *                                                                       88272021
 008290                            14928          DS    0F                                                       88278021
 008290 00000000                   14929 N0     DC      XL4'0'                                                   88284021
 008294 0001                       14930 N1     DC      XL2'1'                                                   88290021
 008296 0002                       14931 N2       DC    XL2'2'                                                   88296021
 008298 0003                       14932 N3     DC      XL2'3'                                                   88302021
 00829A 0004                       14933 N4     DC      XL2'4'                                                   88308021
 00829C 0005                       14934 N5     DC      XL2'5'                                                   88314021
 00829E 0006                       14935 N6     DC      XL2'6'                                                   88320021
 0082A0 0007                       14936 N7     DC      XL2'7'                                                   88326021
 0082A2 000A                       14937 N10    DC      XL2'A'                                                   88332021
 0082A4 000C                       14938 NDEC12 DC      XL2'C'                                                   88338021
 0082A6 000D                       14939 N13    DC      XL2'D'                                                   88344021
 0082A8 000E                       14940 N14    DC    XL2'E'                                                     88350021
 0082AA 00C8                       14941 N200   DC      XL2'C8'                                                  88356021
 0082AC 000000FF                   14942 NFF    DC      XL4'FF'                                                  88362021
 0082B0 0100                       14943 N256   DC      XL2'100'                                                 88368021
 0082B2 400B                       14944 N400B  DC      XL2'400B'                                                88374021
 0082B4 0FFC                       14945 N4092  DC      H'4092'                                                  88380021
 0082B6 FFFF                       14946 NFFFF  DC      XL2'FFFF'                                                88386021
 0082B8 00000072                   14947 ONE19  DC    XL4'72'                                                    88392021
 0082BC 02147483647C               14948 ISNILM   DC    XL6'02147483647C' MAX DEC NUMBER CONTAINED IN 4 BYTE     88398021
 0082C2 0C                         14949 PAKZER   DC    XL1'0C'               PACKED-DEC. 0                      88404021
 0082C3 32767C                     14950 NX7FFF DC      XL3'32767C'         32,767 PACKED                        88410021
                                   14951 *                                                                       88416021
                                   14952 *                                                                       88422021
                                   14953 *              BCD WORDS FOR ERROR MESSAGES                             88428021
                                   14954 *                                                                       88434021
                                   14955 *                                                                       88440021
 0082C6 3F3405                     14956 BCDCLS DC      XL3'3F3405'                                        *     88446021
 0082C9 C3D3C1E2E2                 14957        DC      CL5'CLASS'                                         *     88452021
 0082CE 3F3404                     14958 BCDSGN DC      XL3'3F3404'                                      *       88458021
 0082D1 E2C9C7D5                   14959        DC      CL4'SIGN'                                        *       88464021
 0082D5 3F3407                     14960 KEYWRD DC      XL3'3F3407'        *                                     88470021
 0082D8 D2C5E8E6D6D9C4             14961        DC      CL7'KEYWORD'       *                                     88476021
 0082DF 340F                       14962 BCDNLT   DC    X'340F'             *                                    88482021
 0082E1 D5E4D4C5D9C9C340           14963          DC    C'NUMERIC LITERAL'  *                                    88488021
 0082F0 3414                       14964 BCDALT   DC    X'3414'               *                                  88494021
 0082F2 C1D3D7C8C1D5E4D4           14965          DC    C'ALPHANUMERIC LIT'   *                                  88500021
 008302 C5D9C1D3                   14966          DC    C'ERAL'               *                                  88506021
 008306 3416                       14967 BCDFLT   DC    X'3416'                 *                                88512021
 008308 C6D3D6C1E3C9D5C7           14968          DC    C'FLOATING-POINT L'     *                                88518021
 008318 C9E3C5D9C1D3               14969          DC    C'ITERAL'               *                                88524021
 00831E 3F340D                     14970 BCDOP  DC    XL3'3F340D'                                                88530021
 008321 D6D7C5D540D6D940           14971        DC    C'OPEN OR CLOSE'                                           88536021
 00832E 3F340D                     14972 BCDRD  DC    XL3'3F340D'                                                88542021
 008331 D9C5C1C440D6D940           14973        DC    C'READ OR WRITE'                                           88548021
 00833E 3F3409                     14974 BCDPFD DC      XL3'3F3409'                                              88554021
 008341 D7C5D9C6D6D9D4C5           14975        DC      C'PERFORMED'                                             88560021
 00834A 3F340B                     14976 BCDECL DC      XL3'3F340B'                                              88566021
 00834D C4C5C3D3C1D9C1E3           14977        DC      C'DECLARATIVE'                                           88572021
 008358 3F3409                     14978 BCDDN  DC      XL3'3F3409'                *                             88578021
 00835B C4C1E3C160D5C1D4           14979        DC      C'DATA-NAME'               *                             88584021
 008364 3F340F                     14980 BCDNOP DC      XL3'3F340F'          *                                   88590021
 008367 D5E4D4C5D9C9C340           14981        DC      C'NUMERIC OPERAND'   *                                   88596021
1PH40     IKFCBL40                                                                                              PAGE  311
-  LOC  OBJECT CODE    ADDR1 ADDR2  STMT   SOURCE STATEMENT                                       ASM 0201 11.03 02/14/15
0008376 3F3408                     14982 BCDSRK DC      XL3'3F3408'            *                                 88602021
 008379 E2D6D9E360D2C5E8           14983        DC      C'SORT-KEY'            *                                 88608021
 008381 3F3409                     14984 BCDSFL DC      XL3'3F3409'              *                               88614021
 008384 E2D6D9E360C6C9D3           14985        DC      C'SORT-FILE'             *                               88620021
 00838D 3F3401                     14986 BCD1   DC      XL3'3F3401'                                              88626021
 008390 F1                         14987        DC      C'1'                                                     88632021
 008391 3F3403                     14988 EBCDFF DC    XL3'3F3403'               *                                88638021
 008394 F1F1F4                     14989        DC    C'114'                                                     88644021
 008397 3F340E                     14990 BCDCND DC      XL3'3F340E'             *                                88650021
 00839A C3D6D5C4C9E3C9D6           14991        DC      CL14'CONDITION-NAME'    *                                88656021
 0083A8 3415                       14992 BCDEXP DC      XL2'3415'                                                88662021
 0083AA C1D9C9E3C8D4C5E3           14993        DC    CL11'ARITHMETIC '                                          88668021
 0083B5 C5E7D7D9C5E2E2C9           14994        DC    CL10'EXPRESSION'                                           88674021
 0083BF 3F3406                     14995 BCDOPT DC      XL3'3F3406'    *                                         88680021
 0083C2 D6D7E3C9D6D5               14996        DC      CL6'OPTION'    *                                         88686021
 0083C8 3F3409                     14997 BCDNOR DC      XL3'3F3409'      *                                       88692021
 0083CB D5D660D9C5E6C9D5           14998        DC      CL9'NO-REWIND'   *                                       88698021
 0083D4 3F3408                     14999 BCDNOQ DC      XL3'3F3408'        *                                     88704021
 0083D7 D5D6D560D8E2C1D4           15000        DC      CL8'NON-QSAM'      *                                     88710021
 0083DF 3F3406                     15001 BCDVMD DC      XL3'3F3406'  *                                           88716021
 0083E2 E560D4D6C4C5               15002        DC      CL6'V-MODE'  *                                           88722021
 0083E8 3F3404                     15003 BCDBSA DC      XL3'3F3404'         *                                    88728021
 0083EB C2E2C1D4                   15004        DC      C'BSAM'             *                                    88734021
 0083EF 3F3405                     15005 BCDBIS DC      XL3'3F3405'       *                                      88740021
 0083F2 C2C9E2C1D4                 15006        DC      C'BISAM'  '       *                                      88746021
 0083F7 3F3413                     15007 BCDBDR DC      XL3'3F3413'                                 *            88752021
 0083FA D9C5D3C1E3C9E5C5           15008        DC      C'RELATIVE-TRACK B'                         *            88758021
 00840A C4C1D4                     15009        DC      C'DAM'                                      *            88764021
 00840D 3F341B                     15010 BCDQI    DC    XL3'3F341B'                                        41077 88770021
 008410 D8C9E2C1D460C6C9           15011          DC    CL27'QISAM-FILE WITH NOMINAL KEY'                  41077 88776021
 00842B 3F3406                     15012 BCDSPN DC    XL3'3F3406'                                                88782021
 00842E E260D4D6C4C5               15013        DC    CL6'S-MODE'                                                88788021
 008434 3F3409                     15014 BCDFIL DC      XL3'3F3409'        *                                     88794021
 008437 C6C9D3C560D5C1D4           15015        DC      CL9'FILE-NAME'     *                                     88800021
 008440 3F340B                     15016 BCDRCN DC      XL3'3F340B'                                              88806021
 008443 D9C5C3D6D9C460D5           15017        DC      C'RECORD-NAME'                                           88812021
 00844E 3F3403                     15018 BCDINO DC      XL3'3F3403'         *                                    88818021
 008451 C960D6                     15019        DC      CL3'I-O'            *                                    88824021
 008454 3F340D                     15020 BCDTPR DC      XL3'3F340D'          *                                   88830021
 008457 E3D660D7D9D6C3C5           15021        DC      CL13'TO-PROCEED-TO'  *                                   88836021
 008464 3F340E                     15022 BCDPN  DC      XL3'3F340E'                         *                    88842021
 008467 D7D9D6C3C5C4E4D9           15023        DC      CL14'PROCEDURE-NAME'                *                    88848021
 008475 3F3418                     15024 BCDPNU DC      XL3'3F3418'             *                                88854021
 008478 D7D9D6C3C5C4E4D9           15025        DC      CL15'PROCEDURE-NAME '   *                                88860021
 008487 D9C5C6C5D9C5D5C3           15026        DC      CL9'REFERENCE'          *                                88866021
 008490 3F340E                     15027 BCDUSE DC      XL3'3F340E'               *                              88872021
 008493 E4E2C9D5C740D6D9           15028        DC      C'USING OR INPUT'         *                              88878021
 0084A1 3F3410                     15029 BCDGIV DC      XL3'3F3410'                  *                           88884021
 0084A4 C7C9E5C9D5C740D6           15030        DC      C'GIVING OR OUTPUT'          *                           88890021
 0084B4 3F3412                     15031 BCDXTN DC  XL3'3F3412'      *                                      1926 88896021
 0084B7 D5D6D5D5E4D4C5D9           15032        DC  C'NONNUMERIC '    *                                     1926 88902021
 0084C2 D3C9E3C5D9C1D3             15033        DC  C'LITERAL'    *                                         1926 88908021
 0084C9 3F3414                     15034 BCDIMPST DC  XL3'3F3414'                                                88914021
 0084CC C9D4D7C5D9C1E3C9           15035        DC    C'IMPERATIVE STATE'                                        88920021
 0084DC D4C5D5E3                   15036        DC    C'MENT'                                                    88926021
1PH40     IKFCBL40                                                                                              PAGE  312
-  LOC  OBJECT CODE    ADDR1 ADDR2  STMT   SOURCE STATEMENT                                       ASM 0201 11.03 02/14/15
00084E0 3F3405                     15037 BCDOR    DC    XL3'3F3405'         OR                             99998 88932021
 0084E3 7DD6D97D6B                 15038          DC    C'''OR'','                                         99998 88938021
 0084E8 3F3401                     15039 BCDBLNK  DC    XL3'3F3401'         BLANK                          99998 88944021
 0084EB 40                         15040          DC    C' '                                               99998 88950021
 0084EC 3F340C                     15041 BCDSEC   DC    XL3'3F340C'                                        50782 88956021
 0084EF E2C5C3E3C9D6D560           15042          DC    CL12'SECTION-NAME'                                 50782 88962021
 0084FC                            15043          DS    0F                                                 50782 88968021
                             084FC 15044 BCDMOD EQU     *                                                        88974021
 0084FC 3F3405                     15045        DC      XL3'3F3405'       *                                      88980021
 0084FF 4DC5D9D95D                 15046        DC      CL5'(ERR)'        * ERROR,DETECTED IN PHASE 2            88986021
 008504 3F3405                     15047        DC      XL3'3F3405'       *                                      88992021
 008507 4DC7D9C65D                 15048        DC      CL5'(GRF)'        * GROUP-FIXED                          88998021
 00850C 3F3404                     15049        DC      XL3'3F3404'       *                                      89004021
 00850F 4DC1D35D40                 15050        DC      CL5'(AL) '        * ALPHABETIC                           89010021
 008514 3F3404                     15051        DC      XL3'3F3404'       *                                      89016021
 008517 4DC1D55D40                 15052        DC      CL5'(AN) '        * ALPHANUMERIC                         89022021
 00851C 3F3405                     15053        DC      XL3'3F3405'       *                                      89028021
 00851F 4DC7D9E55D                 15054        DC      CL5'(GRV)'        * GROUP-VARIABLE                       89034021
 008524 3F3404                     15055        DC    XL3'3F3404'                                                89040021
 008527 4DD5C55D40                 15056        DC    CL5'(NE) '            * NUMERIC EDITED                     89046021
 00852C 3F3405                     15057        DC      XL3'3F3405'       *                                      89052021
 00852F 4DE2E3D95D                 15058        DC      CL5'(STR)'        * STERLING-REPORT                      89058021
 008534 3F3401                     15059        DC      XL3'3F3401'       *                                      89064021
 008537 4040404040                 15060        DC      CL5' '            * BLANK (NOT DATA-OPERAND)             89070021
 00853C 3F3404                     15061        DC      XL3'3F3404'       *                                      89076021
 00853F 4DC5C45D40                 15062        DC      CL5'(ED) '        * EXT. DECIMAL                         89082021
 008544 3F3405                     15063        DC      XL3'3F3405'       *                                      89088021
 008547 4DC5C6D35D                 15064        DC      CL5'(EFL)'        * EXT. FLOATING                        89094021
 00854C 3F3405                     15065        DC      XL3'3F3405'       *                                      89100021
 00854F 4DC9C6D35D                 15066        DC      CL5'(IFL)'        * INT. FLOATING                        89106021
 008554 3F3405                     15067        DC      XL3'3F3405'       *                                      89112021
 008557 4DC2C9D55D                 15068        DC      CL5'(BIN)'        * BINARY                               89118021
 00855C 3F3404                     15069        DC      XL3'3F3404'       *                                      89124021
 00855F 4DC9C45D40                 15070        DC      CL5'(ID) '        * INT. DECIMAL                         89130021
 008564 3F3404                     15071        DC      XL3'3F3404'       *                                      89136021
 008567 4DE2E35D40                 15072        DC      CL5'(ST) '        * STERLING NON-REPORT                  89142021
 00856C 3F3405                     15073        DC    XL3'3F3405'          *                                     89148021
 00856F 4DC1D5C55D                 15074        DC    CL5'(ANE)'            * ALPHANUMERIC EDITED                89154021
1PH40     IKFCBL40                                                                                              PAGE  313
-  LOC  OBJECT CODE    ADDR1 ADDR2  STMT   SOURCE STATEMENT                                       ASM 0201 11.03 02/14/15
0008574                            15076 PATCH4   DS    0F                  PATCH4 - REG10 POINT                 89166021
                             08574 15077 IKFPATCH EQU   *                                                        89172021
 008574 47F0 A87C      08574       15078          B     PATCH4              BRANCH                               89178021
 008578 0000000000000000           15079 PATUT1   DC    XL40'0'                                                  89184021
 0085A0 0000000000000000           15080 PATUT2   DC    XL40'0'                                                  89190021
 0085C8 0000000000000000           15081 PATUT3   DC    XL40'0'                                                  89196021
 0085F0 0000000000000000           15082 PATUT4   DC    XL40'0'                                                  89202021
 008618 0000000000000000           15083 PATUT5   DC    XL40'0'                                                  89208021
 008640 0000000000000000           15084 PATUT6   DC    XL40'0'                                                  89214021
 008668 0000000000000000           15085 PATUT7   DC    XL40'0'                                                  89220021
 008690 0000000000000000           15086 PATUT8   DC    XL40'0'                                                  89226021
 0086B8 0000000000000000           15087 PATUT9   DC    XL40'0'                                                  89232021
 0086E0 0000000000000000           15088 PATUT10  DC    XL40'0'                                                  89238021
 008708 0000000000000000           15089 PATUT11  DC    XL40'0'                                                  89244021
 008730 0000000000000000           15090 PATUT12  DC    XL40'0'                                                  89250021
 008758 0000000000000000           15091 PATUT13  DC    XL40'0'                                                  89256021
 008780 0000000000000000           15092 PATUT14  DC    XL40'0'                                                  89262021
 0087A8 0000000000000000           15093 PATUT15  DC    XL40'0'                                                  89268021
                                   15094 *DEL                                                                    89274021
                                   15095 *DEL                                                                    89280021
                                   15096 *DEL                                                                    89286021
 0087D0                            15097        DS    0F                                                         89292021
                                   15098 *=1    PHINIT  PHASE INITIALIZATION                                     89298021
                                   15099 *                                                                       89304021
                                   15100 *                                                                       89310021
                                   15101 *                           P H I N I T                                 89316021
                                   15102 *                                                                       89322021
                                   15103 *                                                                       89328021
                                   15104 *              INITIALIZATION OF PHASE 4                                89334021
                                   15105 *                                                                       89340021
                                   15106 *                                                                       89346021
                                   15107 *** SUBROUTINES CALLED                                                  89352021
                                   15108 *      COS,PRIME,INSERT                                                 89358021
                                   15109 *      GETNXT - (WHICH CALLS DIRECTLY OR INDIRECTLY                     89364021
                                   15110 *                  COS,COUNT,GENCRD,COPYIN,GENDAT)                      89370021
                                   15111 *                                                                       89376021
                                   15112 *                                                                       89382021
                                   15113 *                                                                       89388021
                                   15114 *                                                                       89394021
                             087D0 15115 PH4    EQU   *                                                          89400021
                             087D0 15116 IKFCBL40 EQU   PH4                                                      89406021
                             087D0 15117 CBLIKF40 EQU   *                                                        89412021
                             087D0 15118 PHINIT EQU     *                                                        89418021
 0087D0 90EC D00C      0000C       15119          STM   RCS,RIN,DX12(R13)  SAVE REGISTERS IN PH0 SAVE AREA       89424021
 0087D4                            15120        CNOP  0,4                                                        89430021
 0087D4 182D                       15121        LR    RW2,R13             SAVE ADDR OF PH0 SAVE AREA IN R2       89436021
 0087D6 0560                       15122        BALR  RW6,RA0               ADDRESSABILITY                       89442021
                             087D8 15123        USING   *,RW6                                                    89448021
 0087D8 47F0 6008      087E0       15124          BC    UNCOND,*+NX8        BRANCH AROUND CONSTANT               89454021
 0087DC 000088B0                   15125        DC    A(PH4SAV)                                                  89460021
 0087E0 58D6 0004      00004       15126          L     R13,DX4(RW6)       SET R13 TO ADDR OF PHASE SAVE-AREA    89466021
 0087E4 50ED 000C      0000C       15127          ST    RCS,DX12(R13)     SAVE SYSTEM RETURN ADR IN PHASE SV     89472021
 0087E8 502D 0004      00004       15128          ST    RW2,DX4(R13)       PUT PTR TO PH0 SV AREA IN PHASE SV    89478021
 0087EC 50D2 0008      00008       15129          ST    R13,DX8(RW2)       PUT PTR TO PHASE SV AREA IN PH0 SV    89484021
 0087F0 987B 60BC      08894       15130        LM    RB1,RB5,ASUPER       LOAD PERMANENT BASE REGISTERS         89490021
1PH40     IKFCBL40                                                                                              PAGE  314
-  LOC  OBJECT CODE    ADDR1 ADDR2  STMT   SOURCE STATEMENT                                       ASM 0201 11.03 02/14/15
00087F4 5811 0000      00000       15131          L     RW1,DX0(RW1)        GET COS ADDRESS                      89496021
 0087F8 5010 A328      08020       15132        ST      RW1,COSADR                                               89502021
 0087FC D20F A310 112C 08008 0012C 15133          MVC   APRYME(LX16),APRIME                                      89508021
 008802 18E1                       15134             LR    RCS,RW1                                               89514021
 008804 5810 60D0      088A8       15135             L     RW1,APH4BG                                            89520021
 008808 050E                       15136          BALR  RA0,RCS             INITIALIZE PRIME AREA                89526021
 00880A 06                         15137             DC    X'06'                                                 89532021
 00880B 00
 00880C 41E0 6040      08818       15138          LA    RCS,*+NX12                                               89538021
 008810 50E0 B0A8      08958       15139        ST      RCS,SVGET                                                89544021
 008814 45E0 765E      05616       15140        BAL     RCS,GET6           GET FIRST ENTITY                      89550021
 008818 5810 A328      08020       15141        L       RW1,COSADR         INIT. AREAS DEPENDING ON COMMON       89556021
 00881C D201 BE1C 115E 096CC 0015E 15142          MVC   NXTLGN(LX2),GNCTR   LGN COUNTER                          89562021
 008822 D200 BE51 11D0 09701 001D0 15143          MVC   SEGLM(LX1),SEGLMT    SAVE SEGLMT                         89568021
                                   15144        DROP    RIN                                                      89574021
 008828 D701 BE12 BE12 096C2 096C2 15145          XC    IR+NX1(LX2),IR+NX1                                       89580021
 00882E D705 BE16 BE16 096C6 096C6 15146          XC    TR+NX1(LX6),TR+NX1                                       89586021
 008834 4110 BFDB      0988B       15147        LA    RW1,LASTSW                                                 89592021
 008838 4120 BF65      09815       15148        LA    RW2,FRSTSW                                                 89598021
 00883C 1B12                       15149        SR    RW1,RW2                                                    89604021
 00883E 4410 A578      08270       15150        EX      RW1,CLEAN                                                89610021
 008842 58F0 A310      08008       15151        L       RAS,APRYME                                               89616021
 008846 4120 000C      0000C       15152        LA      RW2,TAMNUM         PRIME ALL TAMER TABLES                89622021
 00884A 1B33                       15153        SR      RW3,RW3                                                  89628021
 00884C 5810 A328      08020       15154          L RW1,COSADR                                             50787 89634021
 008850 9180 11A4      001A4       15155          TM    PHZSW1,XREF         XREF ?                         50787 89640021
 008854 4780 6084      0885C       15156          BZ    PHINT6              NO, BRANCH                     50787 89646021
 008858 9601 BFB4      09864       15157          OI    XREFSW,MSWON        YES, INDIC WRT FILE REF ELMNT  50787 89652021
                             0885C 15158 PHINT6 EQU     *                                                        89658021
 00885C 4113 B048      088F8       15159        LA      RW1,ASTRNG(RW3)                                          89664021
 008860 05EF                       15160        BALR    RCS,RAS             PRIME TAMER TABLES                   89670021
 008862 4133 0008      00008       15161          LA    RW3,DX8(RW3)                                             89676021
 008866 4620 6084      0885C       15162        BCT     RW2,PHINT6          LOOP BACK TILL TAMNUM = 0            89682021
 00886A 4120 000C      0000C       15163        LA      RW2,TAMNUM          ZERO 2ND WORD OF EACH TAMER-LIST     89688021
 00886E 4130 B04C      088FC       15164          LA    RW3,ASTRNG+NX4        NOW TO BE USED TO SAVE DISPLACE    89694021
 008872 D701 3000 3000 00000 00000 15165 PHINT8   XC    DX0(LX2,RW3),DX0(RW3)                                    89700021
 008878 4133 0008      00008       15166          LA    RW3,DX8(RW3)                                             89706021
 00887C 4620 609A      08872       15167        BCT     RW2,PHINT8          ZERO 2ND WORD OF TAMER LIST          89712021
                                   15168 *                                                                       89718021
 008880 58F0 A314      0800C       15169        L       RAS,ANSERT         PROVIDE ZERO-LEVEL ENTRY FOR PTRF     89724021
 008884 5810 B080      08930       15170        L       RW1,APTFLS                                               89730021
 008888 05EF                       15171        BALR    RCS,RAS             PROVIDE ONE SLOT FOR PTRFLS          89736021
 00888A 05EF                       15172        BALR    RCS,RAS       PROVIDE ONE MORE PTRFLS SLOT               89742021
 00888C 920A B085      08935       15173          MVI   DSPTRF+NX1,XX0A      SET ITS DISPLACEMENT                89748021
                                   15174 *                                                                       89754021
 008890 47F0 701C      04FD4       15175        BC      UNCOND,ID3          GO TO IDENT                          89760021
                                   15176 *                                                                       89766021
                                   15177 *                                                                       89772021
 008894 00004FB8                   15178 ASUPER DC    A(COMON1)             IKF401                               89778021
 008898 00005FB8                   15179        DC    A(COMON2)             IKF402                               89784021
 00889C 00006E58                   15180        DC    A(COMON3)             IKF403                               89790021
 0088A0 00007CF8                   15181        DC    A(COMON4)             IKF404                               89796021
 0088A4 000088B0                   15182        DC    A(COMON5)             IKF405                               89802021
 0088A8 00000000                   15183 APH4BG   DC    A(PH4BEG)                                                89808021
                                   15184        DROP    RW6                                                      89814021
1PH40     IKFCBL40                                                                                              PAGE  315
-  LOC  OBJECT CODE    ADDR1 ADDR2  STMT   SOURCE STATEMENT                                       ASM 0201 11.03 02/14/15
00088B0                            15186 IKF405 CSECT                                                            89826021
                             088B0 15187 COMON5 EQU     *                                                        89832021
                                   15188 *=1    DATA AREA                                                        89838021
                                   15189 *                                                                       89844021
                                   15190 *                                                                       89850021
                                   15191 *                            D A T A AREAS                              89856021
                                   15192 *                                                                       89862021
                                   15193 *                                                                       89868021
                                   15194 *                                                                       89874021
-
 0088B0                            15196        DS      0F                                                       89886021
                             088B0 15197 DATA   EQU     *                                                        89892021
 0088B0                            15198 PH4SAV DS    18F                   PH4 SAVE AREA                        89898021
                             088F8 15199 TAMDEF EQU     *                                                        89904021
                                   15200 *                                                                       89910021
                                   15201 *                                                                       89916021
                                   15202 *                                 DEFINITIONS FOR TAMER                 89922021
                                   15203 *                                                                       89928021
                                   15204 *      THE DOUBLE-WORD FIELDS BELOW ARE USED BY THE TAMER PRIME ROU     89934021
                                   15205 *       TO SET UP THE TIBS AND TAMMS FOR EACH TABLE. PRIME ALSO STO     89940021
                                   15206 *       THE TRUE TIB ADDRESSES IN THE AL3 FIELDS. AFTER A TABLE IS      89946021
                                   15207 *       PRIMED PHASE 4 ZEROES THE 2ND WORD OF EACH SET AND USES ITS     89952021
                                   15208 *       FIRST 2 BYTES AS A SAVE AREA FOR THE TAMM DISPLACEMENT FIEL     89958021
                                   15209 *       EVERY ROUTINE THAT AFFECTS THE TAMM MUST UPDATE THIS SAVE-A     89964021
                                   15210 *       TIB-ADCON + 4. THESE DSP... FIELDS ARE USED THROUGHOUT WHEN     89970021
                                   15211 *       THE DISPLACEMENT OF SOME PARTICULAR ELEMENT IS WANTED.          89976021
                                   15212 *                                                                       89982021
                                   15213 *                                                                       89988021
                                   15214 *      INITIAL (PRIMED) TABLE LENGTH IS ASSEMBLED AT 3RD HALF-WORD      89994021
                                   15215 *       GROWTH FACTOR AT 4TH HALF-WORD OF EACH FIELD.                   90000021
                                   15216 *                                                                       90006021
                                   15217 *      TABLE NAMES (E.G., STRING,VARYTB) ARE EQUATED TO TIBS.           90012021
                                   15218 *                                                                       90018021
-
                                   15220 *                                                                       90030021
                                   15221 *       VARIABLE-LENGTH WITH TRAILING BYTE-COUNT                        90036021
                                   15222 *         USED TO COLLECT OUTPUT BRFORE GENERATION                      90042021
                                   15223 *                                                                       90048021
 0088F8 80                         15224 ASTRNG DC      XL1'80'                                                  90054021
 0088F9 000054                     15225        DC      AL3(STRING)         ADDR OF STRING TABLE                 90060021
                             088FC 15226 DSPSTR EQU     *                                                        90066021
 0088FC 012C                       15227          DC    XL2'12C'                PRIME = 300                      90072021
 0088FE 0100                       15228          DC    XL2'100'                PRIME = 256                      90078021
                                   15229 *                                                                       90084021
                                   15230 *       FIXED-LENGTH, 12-BYTE ENTRIES                                   90090021
                                   15231 *         HOLDS 4 BRANCH-ID'S FOR EACH 'VARYING' IN PERFORM             90096021
                                   15232 *                                                                       90102021
 008900 0C                         15233 AVARYT DC      XL1'C'                                                   90108021
 008901 00005C                     15234        DC      AL3(VARYTB)         ADDR OF VARYTBL                      90114021
                             08904 15235 DSPVAR EQU     *                                                        90120021
 008904 0060                       15236        DC      XL2'60'                                                  90126021
1PH40     IKFCBL40                                                                                              PAGE  316
-  LOC  OBJECT CODE    ADDR1 ADDR2  STMT   SOURCE STATEMENT                                       ASM 0201 11.03 02/14/15
0008906 000C                       15237        DC      XL2'0C'                                                  90132021
                                   15238 *                                                                       90138021
                                   15239 *       FIXED-LENGTH, 2 2-BYTE ENTRIES PER LOGICAL ENTRY                90144021
                                   15240 *         HOLDS PN-IDS WHICH ARE ALTERED OR ARE END-OF-RANGE OF A       90150021
                                   15241 *          PERFORM, AND VN NUMBER CORRESPONDING TO THE PN-ID            90156021
                                   15242 *                                                                       90162021
 008908 02                         15243 AVNTBL DC      XL1'2'                                                   90168021
 008909 000064                     15244        DC      AL3(VNTBL)                                               90174021
                             0890C 15245 DSPVNT EQU     *                                                        90180021
 00890C 0040                       15246          DC    FL2'64'                 PRIME = 100                      90186021
 00890E 0010                       15247        DC      XL2'10'                                                  90192021
                                   15248 *                                                                       90198021
                                   15249 *       FIXED-LENGTH, 2 2-BYTE ENTRIES PER LOGICAL ENTRY                90204021
                                   15250 *         HOLDS P-N ID AND CORRESPONDING VN NUMBER FOR PERFORMS         90210021
                                   15251 *                                                                       90216021
 008910 02                         15252 APFMTB DC      XL1'2'                                                   90222021
 008911 00006C                     15253        DC      AL3(PFMTBL)                                              90228021
                             08914 15254 DSPPFM EQU     *                                                        90234021
 008914 0040                       15255          DC    FL2'64'                 PRIME = 100                      90240021
 008916 0010                       15256        DC      XL2'10'                                                  90246021
                                   15257 *                                                                       90252021
                                   15258 *       FIXED-LENGTH, 3 2-BYTE ENTRIES PER LOGICAL ENTRY                90258021
                                   15259 *         HOLDS PN-ID AND CORRESPONDING GN AND RPD FOR *DEBUG           90264021
                                   15260 *                                                                       90270021
 008918 02                         15261 ADBGTB DC      XL1'2'                                                   90276021
 008919 000074                     15262        DC      AL3(DBGTBL)                                              90282021
                             0891C 15263 DSPDBG EQU     *                                                        90288021
 00891C 0060                       15264        DC      XL2'60'                                                  90294021
 00891E 0006                       15265        DC      XL2'06'                                                  90300021
                                   15266 *                                                                       90306021
                                   15267 *       VARIABLE-LENGTH WITH TRAILING BYTE-COUNT                        90312021
                                   15268 *         USED TO STACK OPERANDS FOR IF AND COMPUTE                     90318021
                                   15269 *                                                                       90324021
 008920 80                         15270 APNOUN DC      XL1'80'                                                  90330021
 008921 00007C                     15271        DC      AL3(PNOUNT)                                              90336021
                             08924 15272 DSPNOU EQU     *                                                        90342021
 008924 012C                       15273          DC    XL2'12C'                PRIME = 300                      90348021
 008926 0100                       15274          DC    XL2'100'                PRIME = 256                      90354021
                                   15275 *                                                                       90360021
                                   15276 *       FIXED-LENGTH, 2-BYTE ENTRIES                                    90366021
                                   15277 *         USED TO STACK OPERATORS FOR IF AND COMPUTE                    90372021
                                   15278 *                                                                       90378021
 008928 02                         15279 APSGNT DC      XL1'2'                                                   90384021
 008929 000084                     15280        DC      AL3(PSIGNT)                                              90390021
                             0892C 15281 DSPSGN EQU     *                                                        90396021
 00892C 0040                       15282        DC      XL2'40'                                                  90402021
 00892E 0008                       15283        DC      XL2'8'                                                   90408021
                                   15284 *                                                                       90414021
                                   15285 *       FIXED-LENGTH, 5-BYTE ENTRIES                                    90420021
                                   15286 *         USED FOR SELECTION OF TRUE AND FALSE BRANCHES IN IF           90426021
                                   15287 *                                                                       90432021
 008930 05                         15288 APTFLS DC      XL1'5'                                                   90438021
 008931 00008C                     15289        DC      AL3(PTRFLS)                                              90444021
                             08934 15290 DSPTRF EQU     *                                                        90450021
 008934 0050                       15291        DC      XL2'50'                                                  90456021
1PH40     IKFCBL40                                                                                              PAGE  317
-  LOC  OBJECT CODE    ADDR1 ADDR2  STMT   SOURCE STATEMENT                                       ASM 0201 11.03 02/14/15
0008936 0020                       15292        DC      XL2'20'                                                  90462021
                                   15293 *                                                                       90468021
                                   15294 *       FIXED-LENGTH  3-BYTE ENTRIES                                    90474021
                                   15295 *         PUSH-DOWN STACK OF GN NUMBERS OF FALSE-BRANCHES FOR IF        90480021
                                   15296 *                                                                       90486021
 008938 03                         15297 APUSH  DC      XL1'3'                                                   90492021
 008939 000094                     15298        DC      AL3(PSHTBL)                                              90498021
                             0893C 15299 DSPUSH EQU     *                                                        90504021
 00893C 0050                       15300        DC      XL2'50'                                                  90510021
 00893E 0010                       15301        DC      XL2'10'                                                  90516021
                                   15302 *                                                                       90522021
                                   15303 *       VARIABLE-LENGTH WITHOUT TRAILING BYTE-COUNT                     90528021
                                   15304 *         HOLDS SUBSCRIPT-DEFINING STRINGS UNTIL GENERATION             90534021
                                   15305 *                                                                       90540021
 008940 80                         15306 ADFSBS DC      XL1'80'                                                  90546021
 008941 00009C                     15307        DC      AL3(DEFSBS)                                              90552021
                             08944 15308 DSPSBS EQU     *                                                        90558021
 008944 012C                       15309          DC    XL2'12C'                PRIME = 300                      90564021
 008946 0100                       15310          DC    XL2'100'                PRIME = 256                      90570021
                                   15311 *                                                                       90576021
                                   15312 * FIXED-LENGTH 4-BYTE ENTRIES -DICT PTRS FOR KEYS FOR SEARCH ALL        90582021
                                   15313 * AND 1 FLAG BYTE USED TO CHECK ORDER OF TESTING KEYS                   90588021
                                   15314 *                                                                       90594021
 008948 04                         15315 AKEYTB DC    XL1'4'                                                     90600021
 008949 0000AC                     15316        DC    AL3(KEYTBL)                                                90606021
                             0894C 15317 DSPKEY EQU   *                                                          90612021
 00894C 0030                       15318        DC    XL2'30'                                                    90618021
 00894E 0004                       15319        DC    XL2'04'                                                    90624021
                                   15320 *                                                                       90630021
                                   15321 *  FIXED LENGTH  3-BYTE ENTRIES--BYTE 1 IS PTY                          90636021
                                   15322 *  BYTE 2 IS PNID- PASSED FROM PHASE3. USED FOR                         90642021
                                   15323 *  SEGT SYNTAX CHECKING IN PERFORM.                                     90648021
                                   15324 *                                                                       90654021
                                   15325 *                                                                       90660021
                                   15326 *                                                                       90666021
                                   15327 * VARIABLE LENGTH WITHOUT TRAILING BYTE COUNT                           90672021
                                   15328 * HOLDS OPERANDS BEFORE 'TO','UP', OR 'DOWN' IN SET STATEMENT           90678021
                                   15329 *                                                                       90684021
                                   15330 *                                                                       90690021
 008950 80                         15331 ASETBL DC    XL1'80'                                                    90696021
 008951 0000B4                     15332        DC    AL3(SETTBL)                                                90702021
 008954 00C8                       15333 DSPSET   DC    XL2'C8'                 PRIME = 200                      90708021
 008956 0030                       15334        DC    XL2'30'                                                    90714021
1PH40     IKFCBL40                                                                                              PAGE  318
-  LOC  OBJECT CODE    ADDR1 ADDR2  STMT   SOURCE STATEMENT                                       ASM 0201 11.03 02/14/15
0                                  15336 *                                                                       90726021
                                   15337 *                        SAVE-AREAS                                     90732021
                                   15338 *                                                                       90738021
                                   15339 * THE FOLLOWING  WORK AREAS  ARE SAVE AREAS USED BY THE                 90744021
                                   15340 * VARIOUS COMMON SUBROUTINES TO SAVE REGISTERS OF CALLING RTNS          90750021
 008958                            15341 SVGET  DS    6F                    USED BY GETNXT AND GETALL            90756021
 008970                            15342 SAVGEN DS    7F                    GENDAT                               90762021
 00898C                            15343 SVGEN2 DS      1F                                                       90768021
 008990                            15344 SVGNCD DS      1F                                                       90774021
 008994                            15345 SVCONT DS    4F                    COUNT                                90780021
 0089A4                            15346 SVERR  DS    9F                    ERROR                                90786021
 0089C8                            15347 SVSTVB DS      2F                                                       90792021
 0089D0                            15348 SVSTO  DS    9F                    STOR RTNS                            90798021
 0089F4                            15349 SVGNAL DS      5F                                                       90804021
 008A08                            15350 SVRCS4 DS      1F                                                       90810021
 008A0C                            15351 SVTAME DS    7F                    RTNS WHICH CALL TAMER                90816021
 008A28                            15352 SVPTSG   DS    9F                                                       90822021
 008A4C                            15353 SVFRML DS    3F                    FORMLA                               90828021
 008A58                            15354 SVPZST DS      6F                                                       90834021
 008A70                            15355 SVPUTN DS      8F                                                       90840021
 008A90                            15356 SVPMTY   DS    1F                                                       90846021
 008A94                            15357 SVPCHG DS    2F                    PCHCNT                               90852021
 008A9C                            15358 SVPUPI   DS    1F                                                       90858021
 008AA0                            15359 SVNWNX   DS    1F                                                       90864021
 008AA4                            15360 SVPLGN DS    1F                    PUPLGN                               90870021
 008AA8                            15361 SVPUPV DS      2F                                                       90876021
 008AB0                            15362 SVSRCH DS    4F                    SRCHTB                               90882021
 008AC0                            15363 SVSTCU DS      7F                                                       90888021
 008ADC                            15364 SVISNO DS      1F                                                       90894021
 008AE0                            15365 SVISNX DS    1F                    ISNXTSNT                             90900021
 008AE4                            15366 SVGNXT DS      1F                                                       90906021
 008AE8                            15367 SVGONX DS      2F                                                       90912021
 008AF0                            15368 SVGLST DS      5F                                                       90918021
 008B04                            15369 SVFR50 DS      4F                                                       90924021
 008B14                            15370 SVMINL DS    5F                    MINLIT                               90930021
 008B28                            15371 SVMKTA DS      1F                                                       90936021
 008B2C                            15372 EOPSV  DS    1F                                                         90942021
 008B30                            15373 SVPFND DS      9F                                                       90948021
 008B54                            15374 SVPFN2 DS      6F                                                       90954021
 008B6C                            15375 SVGNAR DS    9F                    GNARTH                               90960021
 008B90                            15376 SVFNKY DS    8F                                                         90966021
 008BB0                            15377 SVISOP DS      3F                                                       90972021
 008BBC                            15378 SVISIZ DS    3F                    ISIZER                               90978021
 008BC8                            15379 SVGOBK DS      3F                                                       90984021
 008BD4                            15380 SVGTMD DS      5F                                                       90990021
 008BE8                            15381 SVIFRT DS      1F                                                       90996021
 008BEC                            15382 SVSAV  DS      1F                                                       91002021
 008BF0                            15383 PFMGOSV DS   1F                                                         91008021
 008BF4                            15384 SVISIN DS      1F                                                       91014021
 008BF8                            15385 SVDTOP DS    7F                    ISDTOP                               91020021
 008C14                            15386 SVISPR DS      1F                                                       91026021
 008C18                            15387 SVOKPR DS      5F                                                       91032021
 008C2C                            15388 SVRDUC DS    1F                    RDUCOP                               91038021
 008C30                            15389 SVSUBS DS      15F               SAVE INDEX FOR SUBSCRIPT RTN           91044021
 008C6C                            15390 SVISNI   DS    2F                                                       91050021
1PH40     IKFCBL40                                                                                              PAGE  319
-  LOC  OBJECT CODE    ADDR1 ADDR2  STMT   SOURCE STATEMENT                                       ASM 0201 11.03 02/14/15
0008C74                            15391 SVOPER DS      1F                                                       91056021
 008C78                            15392 SVSO14 DS      5F                  REGSAVER FOR SMALL IS IT'S           91062021
 008C8C                            15393 ONSVRG DS    9F                    STODUM                               91068021
 008CB0                            15394 SVSTO5 DS    5F                    STO5                                 91074021
 008CC4                            15395 SVUNTL DS      9F                                                       91080021
 008CE8                            15396 SVSTLP DS      7F                                                       91086021
 008D04                            15397 DMSRSV DS    1F                                                         91092021
 008D08                            15398 SVOKPF DS      3F                                                       91098021
 008D14                            15399 SVVROP DS      4F                                                       91104021
 008D24                            15400 SVGNMV DS      4F                                                       91110021
 008D34                            15401 SVGNTW DS      2F                                                       91116021
 008D3C                            15402 SVISOK DS      5F                                                       91122021
 008D50                            15403 SVOKSC DS      1F                                                       91128021
 008D54                            15404 SVOKMV DS      2F                                                       91134021
 008D5C                            15405 SVGTPV DS      4F                                                       91140021
 008D6C                            15406 SVPKTB DS      5F                                                       91146021
 008D80                            15407 SVIDLH DS    1F                    IDLHN                                91152021
 008D84                            15408 SVPAKP DS      1F                                                       91158021
 008D88                            15409 SVISFP DS      4F                                                       91164021
 008D98 00                         15410 INDSW1   DC    X'00'                INDEX NAME SW IN PERFORM VARING     91170021
 008D9C                            15411 SVISTR DS      1F                                                       91176021
 008DA0                            15412 SVDUPS DS    7F                    DUPSS                                91182021
 008DBC                            15413 SVE28  DS      3F                                                       91188021
 008DC8                            15414 SVSTFD  DS 1F                                                           91194021
 008DCC                            15415 SVRSFD DS 1F                                                            91200021
 008DD0                            15416 SVPUPTR DS   1F                    PUPTR                                91206021
 008DD4                            15417 SAVEUP DS    5F                                                         91212021
 008DE8 00000000                   15418 RW2SAV   DC   F'0'                                                      91218021
 008DEC 000000000000               15419 GNSAV    DC    XL6'0'                                                   91224021
 008DF2 DB000000DB000000           15420 VNSAV    DC    XL8'DB000000DB000000'                                    91230021
 008DFC                            15421 VRBASE  DS   1F               SAVE-AREA FOR VERB'S BASE REGISTER        91236021
 008E00 0000                       15422 GNSAVE  DC  XL2'0'                 GN SAVE AREA                         91242021
 008E04                            15423 RW1SAVE DS     1F             *    RW1 SAVE AREA                        91248021
 008E08                            15424 RW2SAVE DS     F              *    RW2 SAVE AREA                        91254021
 008E0C                            15425 PSHSAVE DS   30X              SAVE AREA FOR PSHTBL ENTRIES        5961  91260021
 008E2A 0000                       15426 SAVLNG DC    H'0'             LENGTH OF PSHTBL                    5961  91266021
1PH40     IKFCBL40                                                                                              PAGE  320
-  LOC  OBJECT CODE    ADDR1 ADDR2  STMT   SOURCE STATEMENT                                       ASM 0201 11.03 02/14/15
0                                  15428 *                                                                       91278021
                                   15429 *                          MISCELLANEOUS DATA                           91284021
                                   15430 *                                                                       91290021
-
                                   15432 *                                                                       91302021
                                   15433 *  ...UPDATERS...                                                       91308021
                                   15434 *                                                                       91314021
                                   15435 *                  D O N T  MAKE INSERTIONS BETWEEN ITEMS MARKED        91320021
                                   15436 *                    WITH *. EITHER SOME ROUTINE INDEXES THRU THEM      91326021
                                   15437 *                    OR THEY ARE NAMED PARTS OF A NAMED BLOCK WHICH     91332021
                                   15438 *                    IS SOMETIMES REFERENCED AS A WHOLE                 91338021
                                   15439 *                                                                       91344021
                                   15440 *                                                                       91350021
                                   15441 *                       LARGE WORK-AREAS TO HOLD OPERANDS               91356021
                                   15442 *                                                                       91362021
-
 008E2C                            15444 PLEFT  DS      CL124              HOLDS LEFT TERM  OF STATEMENT         91374021
                             08EA7 15445 DMAXL  EQU     *-1                DMAX FIELD FOR LEFT TERM              91380021
 008EA8 0000                       15446 MODEL  DC      XL2'0'             MODE OF LEFT                          91386021
 008EAA                            15447 PRIGHT DS      CL124             HOLDS RIGHT TERM  OF STATEMENT         91392021
                             08F25 15448 DMAXR  EQU     *-1                DMAX FIELD FOR RIGHT TERM             91398021
 008F26 0000                       15449 MODER  DC      XL2'0'             MODE OF RIGHT                         91404021
 008F28                            15450 PSTFLD DS      CL124             HSTORE-FIELD OF VERBS                  91410021
 008FA4                            15451 PRSULT DS      CL124             HRESULT-FIELD OF VERBS                 91416021
 009020                            15452 OPRND1 DS      64F      HOLDS OP-1 SUBSCRIPTS FOR CORRESPONDING         91422021
 009120                            15453 OPRND2 DS      64F      HOLDS OP-2 SUBSCRIPTS FOR CORRESPONDING         91428021
 009220                      09204 15454        ORG     *-28                DMAX FIELD FOR EXHIBIT-NAMED         91434021
 009204                            15455 SVKP35 DS      6F            *    FIELDS USED ONLY FOR EXHIBIT-NAME     91440021
 00921C                            15456 SIZ35S DS      1H            *                                          91446021
 00921E                            15457 CNT35S DS      1H            *                                          91452021
 009220 0000000000000000           15458 MAXSAVE DC   XL124'0'              HOLDS MAX OR ODO FOR SEARCH          91458021
 00929C 0000000000000000           15459 VARY2SV DC    XL124'0'             HOLDS OP OF 2ND VARY-SEARCH          91464021
 009318 0000000000000000           15460 SVSRCHT DC   XL124'0'              HOLDS ID1 FOR SEARCHALL              91470021
 009394 0000000000000000           15461 INDVRY1 DC   XL10'0'               HOLDS INDNM1 VARY-SEARCH             91476021
 00939E 00000000                   15462 KEYSAV DC    XL4'00'               USED IN SEARCHALL KEY PROC           91482021
 0093A4                            15463 CURENT DS      31F                STORAGE FOR CURRENT OPERAND           91488021
 009420                            15464 SAVE1OP  DS  CL124  SAVES FIRST OPND FOR MULT REC FIELDS                91494021
 00949C                            15465 SAVESTOR  DS CL124  SAVES STORE FLD FOR MULT REC FIELDS                 91500021
 009518                            15466 THISOP DS      1F        GETS ADDR. OF OP-1 OR OP-2 IN CORR. STATEM     91506021
 00951C                            15467 ATIB   DS      1F                 HOLDS ADDR. OF TIB WHEN VARIABLE      91512021
 009520 00000000                   15468 TRUPNT DC      A(0)               INPUT POINTER FILLED BY GETNXT        91518021
 009524                            15469 ADNTRY DS      1F             STORAGE FOR GOBACK ROUTINE                91524021
 009528 840000                     15470 DUMVB  DC    XL3'840000'           SORT DUMMY I/P,O/P VERB SKELETON     91530021
 00952B 2103                       15471 OPEVB  DC    XL2'2103'             DUMMY OPEN                           91536021
 00952D 2005                       15472 DUMRD  DC    XL2'2005'             READ                                 91542021
 00952F 3701                       15473 RELDM  DC    XL2'3701'             RELEASE                              91548021
 009531 2203                       15474 CLSDM  DC    XL2'2203'             CLOSE                                91554021
 009533 2A01                       15475 DMRET  DC    XL2'2A01'             RETURN                               91560021
 009535 2305                       15476 DMWR   DC    XL2'2305'             WRITE                                91566021
 009537 0000000000000000           15477 SVGNS  DC    XL10'0'                                                    91572021
                                   15478 * GNSV1 THRU GNSV3   USED TO SAVE GNS LATER GENERATED                   91578021
1PH40     IKFCBL40                                                                                              PAGE  321
-  LOC  OBJECT CODE    ADDR1 ADDR2  STMT   SOURCE STATEMENT                                       ASM 0201 11.03 02/14/15
0009541 AA0000                     15479 GNSV1  DC    XL3'AA0000'                                                91584021
 009544 880000                     15480 GNSV2  DC    XL3'880000'                                                91590021
 009547 880000                     15481 GNSV3  DC    XL3'880000'                                                91596021
 00954A 0000
 00954C 00000000                   15482 SVTFLN DC      F'0'                                                     91602021
 009550                            15483        DS    0D                                                         91608021
 009550                            15484 TEMPZ  DS    1D                    CVB WORK AREA                        91614021
 009558 0000000000000000           15485 SVINDNM DC    XL12'0'   HOLDS INDEXNAME FOR SUBSCR                      91620021
 009564 000600                     15486 PMSG   DC      XL3'000600'     * ERRMSG. DEFINING STRING                91626021
 009567 0000                       15487 MSGNUM DC      XL2'0'          *                                        91632021
 009569 000004                     15488 CARDNO DC      XL3'4'          *  2 BYTES HOLD SEQ.NUM,3RD SEVER.,P     91638021
 00956C 0000                       15489 ERPARM DC      XL2'0'       *    ERRMSG. PARAM HEADER                   91644021
 00956E                            15490        DS      CL124        *           PARAM ITSELF                    91650021
 0095EA 0002CC00                   15491 MSG3ND DC      XL4'0002CC00'      MSG CONCLUSION FOR UNDEFINED          91656021
 0095EE                            15492        DS      0H          *     PUT LHN+4 AT HW BOUNDARY               91662021
 0095EE 0000000000000000           15493 LHN    DC      XL12'0'     *    HOLDS LAST LHN FROM INPUT               91668021
                             095EE 15494 SAVLHN EQU     LHN                                                      91674021
 0095FA 0000                       15495 THISSN DC      XL2'00'             ID OF SECTION BEING PROCESSED        91680021
                             095F0 15496 PNCAR1 EQU   SAVLHN+2              1ST BYTE CHARACTERISICTS             91686021
                             095F1 15497 PNCAR2 EQU   SAVLHN+3                                                   91692021
                             095F2 15498 PNUM   EQU   SAVLHN+4     PROC NAME NUMBER ASSIGNED BY PH1              91698021
                             095F4 15499 PNRPD  EQU   SAVLHN+6                                                   91704021
                             095F5 15500 PNPTY  EQU   SAVLHN+7              PRIORITY NUMBER                      91710021
                             095F6 15501 NXTSN  EQU   SAVLHN+8              HOLDS NEXT SN ID.                    91716021
 0095FC                            15502 THRUPN DS      0H   *         HOLDS PN WHICH HAS PERFORM BIT DURING     91722021
 0095FC                            15503        DS    CL10                  IDLHN AND PRFORM.USED BY GETPVN      91728021
                             09604 15504 THRUSN EQU   THRUPN+8              USED BY GETPVN                       91734021
                             09603 15505 THRPTY EQU   THRUPN+7                                                   91740021
 009606                            15506 PFMEND DS      1H             USED BY GETPVN TO HOLD ID OF NEXT PN      91746021
 009608 3900                       15507 ALLGT1 DC    X'3900'         FIGCON HEADER FOR ALL AN GT 1              91752021
 00960A                            15508        DS    CL124      STORAGE TO HOLD AN LITERAL ATTACHED TO ALL      91758021
 009686 0000000000000000           15509 SVF1   DC    XL40'0'                          USE/GIVE FILE-SORT        91764021
 0096AE 880000                     15510 GNDEF  DC      XL3'880000'        SKELETON FOR LGN                      91770021
 0096B1 AA0000                     15511 GNREF  DC      XL3'AA0000'                     RGN                      91776021
                             096AE 15512 LGN    EQU     GNDEF                                                    91782021
                             096B1 15513 RGN    EQU     GNREF                                                    91788021
 0096B4 0700                       15514        CNOP    2,4                                                      91794021
 0096B6 00                         15515        DC      XL1'0'                                                   91800021
 0096B7 8412022402                 15516 GOD1   DC      XL5'8412022402'     GO-DEPEDNING-ON FIRST                91806021
 0096BC 0000                       15517 GOCTR  DC      XL2'0'             GO-DEPENDING-ON COUNTER               91812021
 0096C0                            15518        DS    0F                                                         91818021
 0096C0 00                         15519        DC    XL1'0'           (KEEP IR+1 AT H-W BOUNDARY)               91824021
 0096C1 BA0000                     15520 IR     DC    XL3'BA0000'           INTERMEDIATE RESULT REF              91830021
 0096C4 00                         15521      DC  XL1'0'  KEEP TR+1 AT H-W BOUNDARY                              91836021
 0096C5 BC0000                     15522 TR   DC  XL3'BC0000'  TEMP RESULT FOR OPNDS BEFORE 'TO'-MULT REC        91842021
 0096C8 0000                       15523 NXTSNT DC      XL2'0'             HOLDS ID FOR NEXT SENTENCE            91848021
 0096CA 0000                       15524        DC      XL2'0'             *   EMPTY BYTE USED FOR INSERTION     91854021
 0096CC 0000                       15525 NXTLGN DC      XL2'0'             *  OF NXTLGN IN PSHTBL. NXTLGN HO     91860021
                                   15526 *                                 *  GN-ID GOTTEN BY PUPLGN             91866021
 0096D0                            15527        DS      0D                                                       91872021
 0096D0 00000000                   15528 KEYSVSTR   DC    XL4'0'                                                 91878021
 0096D4                            15529 PTEMP    DS    1F                 LOCAL TEMPORARY STORAGE               91884021
                             096D4 15530 TEMP   EQU     PTEMP                                                    91890021
 0096D8                            15531 TMPLAB DS      1F                  LOCAL STORAGE FOR GENLST             91896021
 0096DC 00000000                   15532 ERTEMP DC      XL4'0'             USED BY ERROR TO LOAD REG.            91902021
1PH40     IKFCBL40                                                                                              PAGE  322
-  LOC  OBJECT CODE    ADDR1 ADDR2  STMT   SOURCE STATEMENT                                       ASM 0201 11.03 02/14/15
00096E0                            15533 HTEMP  DS    1F                    TEMPORARY LOCAL STORAGE              91908021
 0096E4 00000000                   15534 TMPSP1 DC    XL4'00000000'         TEMPERARY STORAGE                    91914021
 0096E8                            15535 SO256  DS      1F                  COUNT MAX SORT KEY BYTES             91920021
 0096EC                            15536 LENGTH DS      1F                  BYTE LENGTH FROM CALCLG              91926021
 0096F0                            15537        DS      0F                                                       91932021
 0096F0 0000001F                   15538 HEX1F  DC    XL4'0000001F'   MASK, FULL WORD, LO ORDER 5 BITS           91938021
 0096F4 0FFFFFFF                   15539 SORMSK DC      XL4'0FFFFFFF'       MASK                                 91944021
 0096F8 840000                     15540 VERB   DC      XL3'840000'        HOLDS CURRENT VERB AND ELEMENT CO     91950021
 0096FC                            15541        DS    0H                                                         91956021
 0096FC 0000                       15542 KEYNO  DC    XL2'0'         HOLDS NO. KEYS FOR SRCHALL                  91962021
 0096FE 846F01                     15543 GOSEGT DC    XL3'846F01'      GO VRB FOR BRANCH TO OTHER SEGMENT        91968021
 009701 00                         15544 SEGLM  DC    X'0'              HOLDS SEGLMT FIELD FROM COMMON           91974021
 009702                            15545        DS      0H                                                       91980021
 009702 420D                       15546 SEGMNBR DC    XL2'420D'            END-OF-SEGMENT                       91986021
 009704 2303                       15547 ALLGTMD DC    XL2'2303'     MODE FOR ALL GT 1 CHAR (AN)                 91992021
 009706 5496                       15548 VERB44 DC      XL2'5496'     VERB FOR MSGS. INIT AT CB WORD 'FIRST'     91998021
 009708 0000                       15549 SCLVLU DC      1H'0'               HOLDS NUMERIC DN SCALE VALUE         92004021
 00970A 0000                       15550        DC      XL2'0'          *     (LEADING BYTE FOR SSNUMB)          92010021
 00970C 0000                       15551 SSNUMB DC      XL2'0'           *   HOLDS LAST NUMBER USED FOR          92016021
                                   15552 *                                           SUBSCRIPT IDENTIFIER        92022021
 00970E 0000                       15553        DC      XL2'0'          *  HOLDS DISPL. IN DEFSBS OF START O     92028021
                                   15554 *                                  LAST STRING ENTERED                  92034021
 009710 0000                       15555 LEFTSS DC      XL2'0'             SAVES DISPSS FOR OPERAND 1            92040021
 009712 0000                       15556 TRSS   DC    XL2'0'   HOLDS DSPSBS FOR FIRST STOREFIELD WHEN            92046021
                                   15557 *                     TR IS USED                                        92052021
 009714 00FF00                     15558 MODE   DC      XL3'FF00'     **   HOLDS MODE AND MODE-ANANLYSIS BIT     92058021
                             09716 15559 DCURR  EQU     *-1           **         DEC. PLACES OF CURRENT ENTI     92064021
 009717 000000                     15560 CURMOD DC      XL3'0'             HOLDS MODE AND DCURR FOR 'CURENT'     92070021
 00971A 00                         15561 RPD    DC      XL1'0'             HOLDS RPD OF SECTION BEING PROCES     92076021
 00971B 00
 00971C 0000                       15562 PARSIZ DC      H'0'               PARAMETER SIZE COUNTER (DISPLA,EX     92082021
 00971E FA1C0000                   15563 PARAM  DC      XL4'FA1C0000'       GLOBAL TABLE REF TYPE2 PARAM         92088021
 009722 0000                       15564 BYTES    DC    XL2'0'              USED BY 'COUNT' FOR BYTE-COUNT       92094021
 009724 D4000000                   15565 TRUREF   DC    XL4'D4000000'    DUMMY PNREF FOR THRU/ALTER/GO      2962 92100021
                             09725 15566 TPRIOR   EQU   TRUREF+1          PRIORITY NUM                      2962 92106021
                             09726 15567 TNUMER   EQU   TRUREF+2          PN NUM                            2962 92112021
 009728 0000                       15568 PRVSCT   DC    XL2'0'         SAVES SIGN-TABLE COUNT IN IF FOR ERRO     92118021
 00972A 0000                       15569 PNOUCT   DC    XL2'0'             HOLDS NO. OF OPERANDS IN NOUNS TA     92124021
 00972C 0000                       15570 PRNLEV   DC    XL2'0'             HOLDS PAREN LEVEL FOR IF AND COMP     92130021
 00972E 0000                       15571 HILEV  DC      XL2'0'             HOLDS CURRENT HIGHEST ( LEVEL FOR     92136021
 009730 0000                       15572 OPLEV  DC      XL2'0'       * PAREN LEVEL IN IF FOR OPERAND             92142021
 009732 0000                       15573 ENDLEV DC      XL2'0'       *                       AND/OR              92148021
 009734 0000                       15574 LFTLEV DC      XL2'0'       *                       LEFT TERM           92154021
 009736 0000                       15575 RELLEV DC      XL2'0'       *                       RELATIONAL          92160021
                             09732 15576 PRVLEV EQU     ENDLEV                                                   92166021
 009738 0000                       15577 PLOW   DC      XL2'0'          HOLDS POINTER TO LEVEL OF PTRFLS FOR     92172021
 00973A 0000                       15578 LEFTDP DC      XL2'0'             CONTAINS SIZE OF STRING FOR LEFT      92178021
                                   15579 *                                    TERM OF 'IF'                       92184021
 00973C 0000                       15580 MBS    DC      XL2'0'            FOR SAVE MBS BIT                       92190021
 00973E 0000                       15581 MBSCT  DC      XL2'0'            MBS COUNT                              92196021
 009740 0000                       15582 SRCHNM DC      XL2'0'             HOLDS PN ID FOR SRCHTA ROUTINE        92202021
 009742 0000                       15583 TEMPSP DC    XL2'0'               CHK MAJOR CODE IF LABEL REC           92208021
 009744 7500                       15584 FIGALL DC      XL2'7500'           FIG. CONSTANT                        92214021
 009746 3401                       15585 ALPNUM DC      XL2'3401'            ALPHANUMERIC LITERAL DATA OPERA     92220021
 009748 0000                       15586 STO5J  DC      1H'0'              J COUNTER FOR STO5 ROUTINES           92226021
1PH40     IKFCBL40                                                                                              PAGE  323
-  LOC  OBJECT CODE    ADDR1 ADDR2  STMT   SOURCE STATEMENT                                       ASM 0201 11.03 02/14/15
000974A 0000                       15587 STO5VE DC      1H'0'               DISPL OF LAST VERB, STO5             92232021
 00974C 00                         15588 STO5CT DC      XL1'0'              CONTINUOUS-SEGMENTED SW, STO5        92238021
 00974D 840003                     15589 PRLVRB DC      XL3'840003'        RELATION VERB AND COUNT. PRELAT       92244021
                                   15590 *                                   SUPPLIES ITS CODE                   92250021
 009750 C7000000                   15591 PNDEF  DC    XL4'C7000000'         SKELETON FOR OUTPUTTING LHN          92256021
                             09751 15592 PRIOR  EQU   PNDEF+1               CONTAINS PRIORITY NUM                92262021
                             09752 15593 NUMER  EQU   PNDEF+2               CONTAINS PN ID                       92268021
 009754 D0000000                   15594 PNREF  DC    XL4'D0000000'         RHN SKELETON                         92274021
                             09755 15595 RPRIOR EQU   PNREF+1               PRIORITY NUM                         92280021
                             09756 15596 RNUMER EQU   PNREF+2               PN ID                                92286021
 009758 D0000001                   15597 PNREF1 DC    X'D0000001'           DUMMY PN REF FOR ALTER               92292021
 00975C DB000000                   15598 VNREF  DC    XL4'DB000000'    SKELETON FOR VN AT PT OF USE              92298021
                             0975D 15599 VNPTY  EQU    VNREF+1    PRIORITY NUMBER                                92304021
                             0975E 15600 VNID   EQU   VNREF+2     VN NUMBER                                      92310021
 009760 C9000000                   15601 VNDEF  DC    XL4'C9000000'        VN SKELETON AT PT OF DEFINITION       92316021
                             09761 15602 DVNPTY EQU   VNDEF+1                                                    92322021
                             09762 15603 DVNID  EQU   VNDEF+2                                                    92328021
 009764 240100                     15604 RPDREF DC      XL3'240100'         VERB-INFO                            92334021
 009768                            15605        DS    0H                                                         92340021
 009768 D0000000                   15606 SAVEPN DC    XL4'D0000000'         HOLDS PN1 FOR PERFORM                92346021
                             09769 15607 SPRIOR EQU   SAVEPN+1              PRIORITY BYTE                        92352021
                             0976A 15608 SNUMER EQU   SAVEPN+2              PN ID                                92358021
                             095FC 15609 GNX    EQU     THRUPN             HOLDS ID OF NEXT STATEMENT,I-O VE     92364021
 00976C DB000000                   15610 SAVEVN  DC   XL4'DB000000'   HOLDS RETURN VN FOR B PERFORM              92370021
                             0976D 15611 SVNPTY EQU   SAVEVN+1     PTY NUM IN SAVEVN                             92376021
                             0976E 15612 SVNID  EQU   SAVEVN+2    ID IN SAVEVN                                   92382021
 009770 000000                     15613 BLNUM  DC      XL3'0'             BL WORK AREA FOR SORT                 92388021
 009773 00
 009774 00000000                   15614 TABADR DC      F'0'               WHERE SRCHTA STORES PN ID ADDR.       92394021
 009778 0000                       15615 VNNUM  DC      H'0'                                   VN NUMBER OF      92400021
                             09764 15616 DBGRPD EQU     RPDREF                                                   92406021
 00977C                            15617        DS      0F                                                       92412021
 00977C FA100000                   15618 PFMSAV DC      XL4'FA100000'       GLOBAL TABLE REF TYPE2 PFMSAV        92418021
 009780 2401FF                     15619 ETOPTS DC    XL3'2401FF'           VERB INFO                            92424021
                             09780 15620 IRINFO EQU     ETOPTS                                                   92430021
                             09780 15621 ETOPS  EQU ETOPTS                                                       92436021
 009783 00                         15622 PRELAT   DC    XL1'0'         HOLDS TEST CODE FOR IF                    92442021
 009784 0000                       15623 SETSVD DC    XL2'0'            HOLDS SAVED DISPL FROM BEG SETTBL        92448021
 009786 00                         15624 MSKOPT DC      XL1'0'             HOLDS OPTION CODE FOR I-O VERBS       92454021
 009787 3F3401                     15625 BCDMBS DC      XL3'3F3401'        DIGIT FOR ERROR MSG        *          92460021
 00978A F0                         15626        DC      CL1'0'                                         *         92466021
 00978B 810000                     15627 NXTCRD DC      XL3'810000'        CARD NO. FOR VERB ANALYZER            92472021
 009790                            15628        DS      0F             * 8-BYTE EVAL STRING                      92478021
 009790 841500                     15629 EVAL   DC      XL3'841500'        *   EVAL VERB                         92484021
 009793 2405                       15630         DC   XL2'2405'        *    INFO-HEAD                            92490021
 009795 00                         15631 DMAX   DC      XL1'0'         *                                         92496021
 009796 0000                       15632 DRSULT DC      XL2'0000'      *    2ND BYTE IS ROUND OPTION             92502021
 009798 0000                       15633         DC   XL2'0'           *    TR NO.                               92508021
 00979A 00                         15634 SDMAX  DC    XL1'0'                                                     92514021
 00979B 350100                     15635 PRN35  DC      XL3'350100'        PAREN FOR EXHIBIT NAMED               92520021
 00979E 841301                     15636 GODM   DC    XL3'841301'           GO-DEP-MIDDLE                        92526021
 0097A1 843900                     15637 SSVERB DC    XL3'843900'           SUBSCRIPT VERB                       92532021
 0097A4 840000                     15638 ENDUSE DC      XL3'840000'        CODE IS SUPPLIED BY USE ANALYZER      92538021
 0097A7 C8000000                   15639 FILEREF  DC    XL4'C8000000'       FILE REF FOR  XREF             50787 92544021
                             097A8 15640 FILEREF1 EQU   FILEREF+1                                          50787 92550021
1PH40     IKFCBL40                                                                                              PAGE  324
-  LOC  OBJECT CODE    ADDR1 ADDR2  STMT   SOURCE STATEMENT                                       ASM 0201 11.03 02/14/15
00097AB 840105                     15641 SUBTRVB DC   XL3'840105'             VERB CODE FOR SUBTRACT             92556021
 0097AE FE000000                   15642 DICTP  DC      XL4'FE000000'      DICT POINTER FOR ERROR MESSAGES       92562021
 0097B2 880000                     15643 WHENGN DC    XL3'880000'           PRECEDES WHEN COND                   92568021
 0097B5 880000                     15644 SVGN1  DC    XL3'880000'           1ST GN GONE TO IN SEARCH,SRCHALL     92574021
 0097B8 AA0000                     15645 SVGN2  DC    XL3'AA0000'           POINTS TO IMP STATEMENT AFTER        92580021
                                   15646 *                                  AT END IN SRCH,SRCHALL               92586021
 0097BB AA0000                     15647 SVGN3  DC    XL3'AA0000'           POINTS TO 1ST WHEN IN SRCH,SRCHA     92592021
 0097BE 845E03                     15648 WHENVB DC    XL3'845E03'           BEGINING OF WHEN IN SEARCH ALL       92598021
 0097C1 846D02                     15649 WHENEQU DC   XL3'846D02'           EQUATE IN SEARCH ALL                 92604021
 0097C4 845F01                     15650 ENDWHEN DC    XL3'845F01'          END OF WHEN IN SEARCH ALL            92610021
 0097C7 0000000000000000           15651 SS1SV  DC    XL40'00'              SPEC SUBSCR PROC-SEARCHALL           92616021
 0097EF 846803                     15652 IFGTIND DC   XL3'846803'           IF GREATER (INDEX NAME)              92622021
 0097F2 846002                     15653 SETP2  DC   XL3'846002'            P2 TXT FORMAT OF SET FORMAT1         92628021
 0097F5 846102                     15654 SETUP  DC    XL3'846102'           SET UP BY (FORMAT 2)                 92634021
 0097F8 846E02                     15655 SETDWN DC    XL3'846E02'           SET DOWN BY (FORMAT 2)               92640021
 0097FC                            15656 STRCNT DS      2F                 SAVES TAMM DISPLACEMENTS              92646021
 009804 320301001C                 15657 NUMLT1 DC      XL5'320301001C'     NUMERIC LITERAL 1                    92652021
 00980A                            15658        DS    0H                                                         92658021
 00980A 0000                       15659 SORPX1 DC    XL2'0000'             DISP OF I/P DUMMY, SORT              92664021
 00980C 0000                       15660 SORPX2 DC    XL2'0000'             DISP OF O/P DUMMY, SORT              92670021
 00980E 0000                       15661 FRSTPN DC      XL2'0000'           HOLD 1ST PN ID AFTER END DECLARA     92676021
 009810 6003                       15662 MANDNM DC    XL2'6003'   MODE OF ALPHANUMERIC DNM                       92682021
 009812 0000                       15663 PGMBRK DC    XL2'0'                PROGRAM BEAK SAVE-CELL AND SWITC     92688021
 009814 00                         15664 PTYCEL DC    XL1'0'   HOLDS PTY NUM FOR CURRENT SECTION                 92694021
1PH40     IKFCBL40                                                                                              PAGE  325
-  LOC  OBJECT CODE    ADDR1 ADDR2  STMT   SOURCE STATEMENT                                       ASM 0201 11.03 02/14/15
0                                  15666 *                                                                       92706021
                                   15667 *                                  SWITCHES                             92712021
                                   15668 *                                                                       92718021
                             09815 15669 FRSTSW EQU   *                                                          92724021
 009816                            15670        DS      0H                                                       92730021
 009816 0000                       15671 DMAXSW DC      XL2'0'             WHEN NOT = 0, DMAX IS NOT COMPUTE     92736021
 009818 00                         15672 PFNDIS DC      XL1'0'             TRIGGERS MSG IN 'IF' WHEN 'IS'        92742021
                                   15673 *                                     WITHOUT A RELATIONAL              92748021
 009819 00                         15674 PNDREL   DC    XL1'0'         USED IN IF WHEN IMPLIED SUBJECT IS LE     92754021
 00981A 00                         15675 PRTURN   DC    XL1'0'         USED BY IF IN ANALYZING IMPLIED RELAT     92760021
 00981B 00                         15676 PSKPGO   DC    XL1'0'              SWITCH TO SAY STOP OR GO WAS LAS     92766021
 00981C 00                         15677 RECSW  DC X'0' SET WHEN ANOTHER STORE FIELD FOLLOWS LAST IN ARITH       92772021
 00981D 00                         15678 STFLD1  DC X'0'     SET WHEN FIRST STORE FIELD PUT IN PSTFLD            92778021
 00981E 00                         15679 RNDSW  DC    X'0'                  KEEP TRACK'ROUNDING'ADD SERIES       92784021
 00981F 00                         15680 LITSW  DC    X'0'    IF LITERAL 1ST OP IN ADD SERIES                    92790021
 009820 00                         15681 SIZERROR   DC X'0'       SW SET BY ISIZER IF RECSW IS ON                92796021
 009821 00                         15682 GIVESW DC    X'0'    SET ON WHEN 'GIVING' STOREFIELD HAS BEEN FOUND     92802021
 009822 00                         15683 IFBYPS DC      XL1'0'             DETERMINES ACTION IN PFINDL           92808021
 009823 01                         15684 GENRED DC      XL1'1'     ERROR SW = 0 WHEN VERB STATEMENT INCOMPLE     92814021
 009824 00                         15685 NEXTIN   DC    XL1'0'      SWITCH FOR GETNXT SAYING GOTTEN WAS SAVE     92820021
 009825 00                         15686 PFNDOP DC      XL1'0'             USED BY FORMLA TO SAY OPERAND FOU     92826021
 009826 00                         15687 PMTYSW DC      XL1'0'             TELLS PUTSGN TO REDUCE FORMULA TO     92832021
                                   15688 *                                    SINGLE OPERAND                     92838021
 009827 00                         15689 PNEGSW DC      XL1'0'             USED BY IF                            92844021
 009828 00                         15690 PNOTSW DC      XL1'0'             USED BY IF                            92850021
 009829 00                         15691 PLOGIC DC      XL1'0'             WHEN OFF CERTAIN ROUTINES BYPASS      92856021
                                   15692 *                                 SPECIAL IF-PROCESSING                 92862021
 00982A 00                         15693 CORRSW DC      XL1'0'              ON IF IN CORRESPONDING SERIES        92868021
 00982B 00                         15694 ADDSW  DC      XL1'0'             ERROR SW FOR ADD VERB                 92874021
 00982C 00                         15695 ALTSW1 DC      XL1'0'              USED BY ALTER                        92880021
 00982D 00                         15696 ALTSW2 DC      XL1'0'              USED BY ALTER                        92886021
 00982E 00                         15697 GOSW1  DC      XL1'0'              SWITCH FOR VERB GO ROUTINE           92892021
 00982F 00                         15698 UMINSW DC      XL1'0'             USED BY FORMLA TO PROCESS MINUS S     92898021
 009830 00                         15699 SUBADV DC    XL1'0'                ON IF BEFORE SUBSTITUTED             92904021
 009831 00                         15700 EOPSW  DC    XL1'0'      IF ON, AT EOP PRESENT                          92910021
 009832 00                         15701 EXMSW1 DC      XL1'0'              USED IN EXAMINE CHECKING CHAR. 1     92916021
 009833 00                         15702 EXMSW2 DC      XL1'0'              SWITCH ON IF DN IS NUMERIC           92922021
 009834 00                         15703 EXMSW3 DC      XL1'0'              SWITCH ON IF DN IS OTHER DISPLAY     92928021
 009835 00                         15704 RW5SW    DC    X'00'               BUFFER PTR RESETSW (SET)             92934021
 009836 00                         15705 TFMSW1 DC      XL1'0'              ON , COBOL WORD MISSING              92940021
 009837 00                         15706 TREDSW DC      XL1'0'             FOR TRANSFORM EXT. DEC.               92946021
 009838 00                         15707 MOVSW1 DC      XL1'0'              ON, OPERAND 2 WAS FOUND              92952021
 009839 00                         15708 LV88SW DC      XL1'0'             FOR IF                                92958021
 00983A 00                         15709 SIGNSW DC      XL1'0'             FOR IF                                92964021
 00983B 00                         15710 CLASSW DC      XL1'0'             FOR IF                                92970021
 00983C 00                         15711 NOTRSW DC      XL1'0'             ERRSW FOR 'NOT' BEFORE RIGHT TERM     92976021
 00983D 00                         15712 NOTRAL DC      XL1'0'             INDICATES THAT A TAMER TABLE LACK     92982021
                                   15713 *                                  THE TRAILING BYTE-COUNT              92988021
 00983E 00                         15714 UGSW   DC    XL1'0'                USING/GIVING  SORT                   92994021
 00983F 00                         15715 SOROPT DC    XL1'0'                USING/GIVING  SORT                   93000021
 009840 00                         15716 OSW    DC    XL1'0'                ON IF OUTPUT HAS BEEN GENR'ED        93006021
 009841 00                         15717 OP1SS  DC      XL1'0'              USED FOR 'CORRESPONDING' STATEME     93012021
 009842 00                         15718 OP2SS  DC      XL1'0'                .   .     .     .          .       93018021
 009843 00                         15719 DRYRUN DC      XL1'0'             SAYS THIS IS SOURCE-FORM OF 'CORR     93024021
 009844 00                         15720 OPSSSW DC      XL1'0'             TELLS SUBSCR NOT TO USE INPUT FOR     93030021
1PH40     IKFCBL40                                                                                              PAGE  326
-  LOC  OBJECT CODE    ADDR1 ADDR2  STMT   SOURCE STATEMENT                                       ASM 0201 11.03 02/14/15
0009845 00                         15721 INDSW  DC    X'0'    TURNED ON IF DNM INDEXED BY INDNM                  93036021
 009846 00                         15722 MININDEX DC  X'0'   ON IF DNM IND BY INDNM MINUS NUMERIC LITERAL        93042021
 009847 00                         15723 ENTRSW DC      XL1'0'              DISTINGUISHES CALL FROM ENTRY        93048021
 009848 00                         15724 ZERFOUN DC   XL1'0'                ON IF KEY WAS NOT TESTED             93054021
 009849 00                         15725 EXHBCS DC      XL1'0'              EXHIBIT 'CHANGED' OR 'NAMED' SW      93060021
 00984A 00                         15726 EXHBS1 DC      XL1'0'              EXHIBIT SW                           93066021
 00984B 00                         15727 CONDSW  DC     XL1'0'         TELLS IDENT VERB (NOT . OR ELSE) NEED     93072021
 00984C 00                         15728 TRUVRB DC      XL1'0'         TELLS ISTRUV, CONDITION IS ILLEGAL        93078021
 00984D 00
 00984E 0000                       15729 VARYSW DC      H'0'        TRANSFER VECTOR SWITCH FOR OPTIONS 1-3 O     93084021
                                   15730 *                                  OPERANDS 1-3 OF OPTION 4 IN PERF     93090021
 009850 00                         15731 SORTSW DC      XL1'0'             WHEN ON TELLS PERFORM TO RETURN T     93096021
                                   15732 *                                      SORT ANALYZER                    93102021
 009851 00                         15733 THRUSW   DC    XL1'0'            SWITCH FOR THRU OPTION            2962 93108021
 009852 00                         15734 INTGSW DC      XL1'0'             TELLS OKPFOP INTEGER IS NEEDE         93114021
 009853 00                         15735 PERFSW DC      XL1'0'             TELLS 'IF' TO RETURN TO PERFORM       93120021
 009854 00                         15736 ERVASW DC      XL1'0'             ONCE-ONLY ERROR SWITCH FOR PERFOR     93126021
 009855 00                         15737 PRERSW DC      XL1'0'       ONCE-ONLY ERR SW FOR PARENS IN IF           93132021
 009856 00                         15738 INTOSW DC      XL1'0'         ON SAYS DN OPTION FOR READ,WRITE,REWR     93138021
 009857 00                         15739 EXHBNS DC      XL1'00'             NAMED SWITCH FOR EXHIBIT             93144021
 009858 00                         15740 SO12SW DC    XL1'00'               SORT 12-COUNT AND MISC SW            93150021
 009859 00                         15741 OPTSW  DC      XL1'0'             USED BY OPEN FINDING INPT,OUTPT,I     93156021
 00985A 00                         15742 SENDSW DC      XL1'0'             ON SAYS STRING CONTAINS STUFF TO      93162021
 00985B 00                         15743 SKIPSW DC      XL1'0'             ON SAYS DONT STORE IN STRING          93168021
 00985C 00                         15744 MSGSW  DC      XL1'0'             ON SAYS EMIT MSG ONLY ONCE PER LO     93174021
                             0985C 15745 PMSGSW EQU     MSGSW                                                    93180021
 00985D 00                         15746 ATNDFND DC   XL1'0'                USERS 'AT END'-SEARCH                93186021
 00985E 00                         15747 SETOO  DC    XL1'0'                                                     93192021
 00985F 00                         15748 SETSW    DC    X'00'               SET ROUTIN SW                  58940 93198021
 009860 00                         15749 ONESET DC    XL1'0'                IF ON,AT LEAST 1 SET COMPLETED       93204021
 009861 00                         15750 VRYIND2    DC  XL1'0'                                                   93210021
 009862 00                         15751 USINDX1  DC    XL1'0'                                             43954 93216021
 009863 00                         15752 TWOVRY     DC  XL1'0'                                                   93222021
 009864 00                         15753 XREFSW   DC    XL1'0'              SW TO WRITE FILE REF ELEMENT   50787 93228021
 009865 00                         15754 GOSW   DC    XL1'0'                LAST WAS GO                          93234021
 009866 00                         15755 WHENSW     DC  XL1'0'                                                   93240021
 009867 00                         15756 SEARCHSW DC  XL1'0'                SEARCH IS IN CONTROL                 93246021
 009868 00                         15757 SATOS  DC   XL1'0'                 SRCHALL TO SEARCH                    93252021
 009869 00                         15758 SRCHALSW DC  XL1'0'                IN SEARCH ALL                        93258021
 00986A 00                         15759 NOKEY   DC   XL1'0'                TERM OTHER THAN KEY FOUND SRCHAL     93264021
 00986B 00                         15760 KEYFND DC    XL1'0'                KEY  FND IN SRCHALL-WHEN             93270021
 00986C 00                         15761 FLKEY  DC    XL1'0'                KEY  FL PT IN SRCHALL                93276021
 00986D 00                         15762 SPSALL DC    XL1'0'                                                     93282021
 00986E 00                         15763 OPCLSW DC      XL1'0'             ON TELLS ISOKFL VERB IS OPEN OR C     93288021
 00986F 00                         15764 REMSW  DC    XL1'0'                INDICATES IN DIVIDE REMAINDER        93294021
 009870 00                         15765 GNOUSW DC      XL1'0'      SET ON BY DISPLA,EXHIBT TO SAY PNOUNS MA     93300021
                                   15766 *                             HAVE SOME OUTPUT                          93306021
 009871 00                         15767 HOLDSW DC      XL1'0'     COUNTS 'HOLD' STATEMENTS IN A RANDOM DECL     93312021
 009872 00                         15768 STO5SW DC      XL1'0'              STRING SEGMENTATION                  93318021
 009873 00                         15769 TRCUSW DC      XL1'0'             INHIBITS TRACING SN OF A 'USE'        93324021
 009874 00                         15770 VRYSS  DC    XL1'0'          LETS SRCH KNOW VARYING OP WAS SSED         93330021
 009875 00                         15771 TEMPSW DC      XL1'0'             LOCAL TEMPORARY SWITCH                93336021
 009876 00                         15772 SWRONL DC      XL1'0'    WRITE SETS TO TELL ISDTOP NOT TO REJECT A      93342021
                                   15773 *                          FROM A WRITE-ONLY RECORD. ISDTOP SETS OF     93348021
 009877 00                         15774 FLTST  DC    XL1'0'           TO SEE IF KEY IN SRCHAL FLPT OR STERL     93354021
1PH40     IKFCBL40                                                                                              PAGE  327
-  LOC  OBJECT CODE    ADDR1 ADDR2  STMT   SOURCE STATEMENT                                       ASM 0201 11.03 02/14/15
0009878 00                         15775 OKMVSW DC    XL1'0'                                                     93360021
 009879 00                         15776 SPSEGT DC    X'0'             USED IN SEGT SYNTAX CHECKING-PERF         93366021
 00987A 00                         15777 SEGSW  DC   X'0'   TELLS IDLHN TO GO BACK AND GENR INIT FOR SEGT        93372021
 00987B 00                         15778 SWDBUG DC      XL1'0'             MARKS START OF DEBUG PACKET           93378021
 00987C 00                         15779 CLEVMSG DC   XL1'0'   SW IN ISOKKMV TO DETERMINE EXIT                   93384021
 00987D 00                         15780 IFERSW DC      XL1'0'             TO AVOID CASCADING MESSAGES IN IF     93390021
 00987E 00                         15781 VRY1ST   DC     XL1'0'     SWITCH FOR 1ST VARY IN PERFORM               93396021
 00987F 00                         15782 KEY10  DC    XL1'0'      SIGNALS SRCHALL 1ST KEY NOT PROCESSED YET      93402021
 009880 00                         15783 SSKYSV DC    XL1'0'           TELLS SRCHALL NO. SS FOR KEY 1            93408021
 009881 00                         15784 KEY1   DC    XL1'0'      TELLS SUBSCR SPEC PROC FOR 1ST SRCHALLKEY      93414021
 009882 00                         15785 SRCHKEY DC    XL1'0'       TELLS SUBSCR SRCHALL KEY OTHER THAN FIRST    93420021
 009883 00                         15786 SETRIN DC    XL1'0'                DOES RIN PT TO BUF OR SETTBL         93426021
 009884 00                         15787 ONSIZER  DC  XL1'0'                REM. ON SIZE ERROR SPEC IN DIV       93432021
 009885 00                         15788 GNDEFSW  DC  XL1'0'                MORE THAN 1 GN NEEDED                93438021
 009886 00                         15789 MASK    DC   XL1'0'                USED IN OC INST. TO TURN ON          93444021
                                   15790 *                                  PROPER SWITCH                        93450021
 009887 00                         15791 FLPTSW  DC     XL1'0'         FLOATING POINT SWITCH                     93456021
 009888 00                         15792 DNMODE  DC     XL1'0'         MODE OF DATA NAME                         93462021
 009889 00                         15793 DIVSW   DC     XL1'0'         SWITCH FOR DIVIDE                         93468021
 00988A 00                         15794 IFSW1  DC    X'00'            IF SWITCH, IT REMAINS ON TILL EOS   5961  93474021
                             0988B 15795 LASTSW EQU   *                                                          93480021
 00988B                            15796 GOTTEN DS      2C          SYMBOLIC NAME FOR 1ST 2 BYTES OF INPUT       93486021
                                   15797 *                                                                       93492021
                                   15798 *                                                                       93498021
                                   15799 *                                                                       93504021
                                   15800 *                                                                       93510021
                                   15801 *                                                                       93516021
                             0988D 15802 P4PTCH EQU     *                                                        93522021
                                   15803 *                                                                       93528021
                             098AF 15804 LASTIN EQU     DATA+4095                                                93534021
                                   15805 *                                                                       93540021
                                   15806 *                                                                       93546021
                                   15807 *                                                                       93552021
                                   15808 *                                                                       93558021
                                   15809 *                                                                       93564021
 0087D0                            15810        END     PHINIT                                                   93570021
1PH40                                              RELOCATION DICTIONARY                                        PAGE  328
-POS.ID   REL.ID   FLAGS   ADDRESS                                                                ASM 0201 11.03 02/14/15
0 000A     0001      0C     007FFC
  000A     0001      08     008029
  000A     0001      08     008055
  000A     0001      08     008059
  000A     0001      08     00805D
  000A     0001      08     008061
  000A     0001      08     0080B1
  000A     0001      08     0080E1
  000A     0001      08     0080E5
  000A     0001      08     0080E9
  000A     0001      08     0080ED
  000A     0001      08     0080F1
  000A     0001      08     008115
  000A     0001      08     008119
  000A     0001      08     00811D
  000A     0001      08     008121
  000A     0001      08     008125
  000A     0001      08     008129
  000A     0001      08     00812D
  000A     0001      08     008131
  000A     0001      08     008135
  000A     0001      08     008139
  000A     0001      08     00813D
  000A     0001      08     008141
  000A     0001      08     008145
  000A     0001      08     008149
  000A     0001      08     00814D
  000A     0001      08     008151
  000A     0001      08     008155
  000A     0001      08     008159
  000A     0001      08     008195
  000A     0001      0C     0081B0
  000A     0001      08     0081BD
  000A     0001      0C     0088A8
  000A     0002      08     007FE5
  000A     0002      08     007FE9
  000A     0002      08     007FED
  000A     0002      08     007FF1
  000A     0002      0C     007FF4
  000A     0002      08     007FF9
  000A     0002      08     008025
  000A     0002      0C     0080C4
  000A     0003      0C     008000
  000A     0003      0C     008004
  000A     0003      08     008081
  000A     0003      08     008085
  000A     0003      08     008089
  000A     0003      08     008091
  000A     0003      08     0080D1
  000A     0004      08     00808D
  000A     0004      08     008095
  000A     0004      08     008099
  000A     0004      0C     0080A8
  000A     0004      0C     0080AC
  000A     0004      08     0080BD
1PH40                                              RELOCATION DICTIONARY                                        PAGE  329
-POS.ID   REL.ID   FLAGS   ADDRESS                                                                ASM 0201 11.03 02/14/15
0 000A     0004      08     0080C1
  000A     0004      0C     0080CC
  000A     0005      0C     00815C
  000A     0005      0C     008160
  000A     0005      08     008169
  000A     0006      08     008065
  000A     0006      08     008069
  000A     0006      08     00806D
  000A     0006      08     008071
  000A     0006      08     008075
  000A     0006      08     008079
  000A     0006      08     00807D
  000A     0006      08     00816D
  000A     0006      08     008175
  000A     0006      08     008179
  000A     0006      08     0081A9
  000A     0006      08     0081AD
  000A     0006      08     0081B9
  000A     0007      0C     008894
  000A     0008      0C     008898
  000A     0009      0C     008018
  000A     0009      0C     00889C
  000A     000A      08     007D73
  000A     000A      08     007DDC
  000A     000A      08     007DE2
  000A     000A      08     007DEE
  000A     000A      08     007E18
  000A     000A      08     007E21
  000A     000A      08     007E4B
  000A     000A      08     007E90
  000A     000A      08     007EA2
  000A     000A      08     007F26
  000A     000A      0C     0088A0
  000A     000B      08     007D16
  000A     000B      08     007D46
  000A     000B      08     007D94
  000A     000B      08     007DA6
  000A     000B      08     007DAC
  000A     000B      08     007DD0
  000A     000B      08     007DF7
  000A     000B      08     007E12
  000A     000B      08     007E2D
  000A     000B      08     007E51
  000A     000B      08     007E57
  000A     000B      08     007E63
  000A     000B      08     007EEA
  000A     000B      08     007EED
  000A     000B      08     007EF0
  000A     000B      08     007EF9
  000A     000B      08     007F02
  000A     000B      08     007F0B
  000A     000B      08     007F14
  000A     000B      08     007F1D
  000A     000B      08     007F2F
  000A     000B      08     007F41
1PH40                                              RELOCATION DICTIONARY                                        PAGE  330
-POS.ID   REL.ID   FLAGS   ADDRESS                                                                ASM 0201 11.03 02/14/15
0 000A     000B      08     007F47
  000A     000B      08     007F62
  000A     000B      08     007F7A
  000A     000B      08     007F86
  000A     000B      08     007FAD
  000A     000B      0C     00801C
  000A     000B      0C     0087DC
  000A     000B      0C     0088A4

1PH40                                              ASSEMBLER DIAGNOSTICS AND STATISTICS                         PAGE  331
-                                                                                                 ASM 0201 11.03 02/14/15
0NO STATEMENTS FLAGGED IN THIS ASSEMBLY
 HIGHEST SEVERITY WAS    0
 OPTIONS FOR THIS ASSEMBLY
   ALIGN, ALOGIC, BUFSIZE(STD), DECK, ESD, FLAG(0), LINECOUNT(55), LIST, NOMCALL, YFLAG, WORKSIZE(2097152)
   NOMLOGIC, NONUMBER, NOOBJECT, NORENT, RLD, NOSTMT, NOLIBMAC, NOTERMINAL, NOTEST, NOXREF(SHORT)
   SYSPARM()
 WORK FILE BUFFER SIZE/NUMBER = 2558/ 1
 TOTAL RECORDS READ FROM SYSTEM INPUT      15595
 TOTAL RECORDS READ FROM SYSTEM LIBRARY      218
 TOTAL RECORDS PUNCHED                       693
 TOTAL RECORDS PRINTED                     16579
