1PH1B                                           EXTERNAL SYMBOL DICTIONARY                                      PAGE    1
-SYMBOL   TYPE  ID   ADDR  LENGTH LDID                                                            ASM 0201 11.03 02/14/15
0SDDEF1    SD  0001 000000 000878
 PH1B      LD       000878        0002
 IKF101    SD  0002 000878 000DE4
 IKF102    SD  0003 001660 000862
 IKF103    SD  0004 001EC8 000600
 IKF104    SD  0005 0024C8 000CB6
 IKF105    SD  0006 003180 00093E
 IKF106    SD  0007 003AC0 0008D4
 IKF107    SD  0008 004398 000F64
 IKF108    SD  0009 005300 000FD2
 IKF109    SD  000A 0062D8 0000E0
 IKF10A    SD  000B 0063B8 0000B8
1PH1B                                                                                                           PAGE    2
-  LOC  OBJECT CODE    ADDR1 ADDR2  STMT   SOURCE STATEMENT                                       ASM 0201 11.03 02/14/15
0                                      1 *$MODULE       PHASE1B                                                  00010021
                                       2        IHBCOB                                                           00020021
                                       3+*     THIS IS A MACRO GENERATING COBOL COMMON AS A DSECT USED
                                       4+*      BY EVERY PHASE OF THE COBOL COMPILER
                                       5+*
                                       6+***********************************************************************
                                       7+*      COMMON - THE COMMUNICATIONS AREA
                                       8+***********************************************************************
                                       9+*      THIS TABLE IS LOCATED IN PH0 FOLLOWING THE ENTRY POINT- COS.
                                      10+*      AT ENTRY TO EACH PHASE R1 POINTS TO THE SLOT CONTAINING COSADDR.
 000000                               11+COS    DSECT
 000000                               12+       DS    3F          EXECUTABLE CODE IN PH0
 00000C                               13+TIB0     DS    2F
 000014                               14+TIB1     DS    2F
 00001C                               15+TIB2     DS    2F
 000024                               16+TIB3     DS    2F
 00002C                               17+TIB4     DS    2F
 000034                               18+TIB5     DS    2F
 00003C                               19+TIB6     DS    2F
 000044                               20+TIB7     DS    2F
 00004C                               21+TIB8     DS    2F
 000054                               22+TIB9     DS    2F
 00005C                               23+TIB10    DS    2F
 000064                               24+TIB11    DS    2F
 00006C                               25+TIB12    DS    2F
 000074                               26+TIB13    DS    2F
 00007C                               27+TIB14    DS    2F
 000084                               28+TIB15    DS    2F
 00008C                               29+TIB16    DS    2F
 000094                               30+TIB17    DS    2F
 00009C                               31+TIB18    DS    2F
 0000A4                               32+TIB19    DS    2F
 0000AC                               33+TIB20    DS    2F
 0000B4                               34+TIB21    DS    2F
 0000BC                               35+TIB22    DS    2F
 0000C4                               36+TIB23    DS    2F
 0000CC                               37+TIB24    DS    2F
 0000D4                               38+TIB25    DS    2F
 0000DC                               39+TIB26    DS    2F
 0000E4                               40+TIB27    DS    2F
 0000EC                               41+TIB28    DS    2F
 0000F4                               42+TIB29    DS    2F
 0000FC                               43+TIB30    DS    2F
 000104                               44+TIB31    DS    2F
 00010C                               45+TIB32    DS    2F
 000114                               46+TIB33    DS    2F
 00011C                               47+TIB34    DS    2F
 000124                               48+TIB35    DS    2F
 00012C                               49+APRIME DS    F           ADDRESS OF SUBROUTINE-PRIME   IN TAMER
 000130                               50+AINSRT DS    F           ADDRESS OF SUBROUTINE-INSERT  IN TAMER
 000134                               51+ADSTAT DS    F           ADDRESS OF SUBROUTINE-STATIC  IN TAMER
 000138                               52+RELADD DS    F           ADDRESS OF SUBROUTINE-TABREL  IN TAMER
 00013C                               53+TAMNAD DS    F
 000140                               54+ACCESW DS    C           ACCESS INITIALIZATION SWITCH
 000141                               55+AMAINF   DS    CL3       POINTER TO THE MAIN FREE AREA FOR TABLES/DICT.
1PH1B                                                                                                           PAGE    3
-  LOC  OBJECT CODE    ADDR1 ADDR2  STMT   SOURCE STATEMENT                                       ASM 0201 11.03 02/14/15
0000144                               56+ALSTAM DS    F           POINTER TO THE LAST ENTRY IN TAMM
 000148                               57+LOCCTR DS    F           RELATIVE ADDRESS OF THE NEXT AVAILABLE LOC
 00014C                               58+LOCCTR1  DS    F
 000150                               59+PROGID   DS    CL8       PROGRAM-ID FROM THE IDENTICATION DIVISION
 000158                               60+LABELS DS    H           CONTAINS LABEL INFORMATION.
 00015A                               61+SEGCNTR  DS    H         NUMBER OF SEGMENTS HIGHER THAN SEGMENT LIMIT -
                                      62+*                        USED BY PHASE 6
 00015C                               63+PNCTR  DS    H           COUNTER FOR ASSIGNING PB NUMBERS TO PROC.NAMES
 00015E                               64+GNCTR  DS    H           CTR. ASSIGNING GN NO.TO GENERATED PROC. NAMES
 000160                               65+DCBCTR DS    H           CTR. ASSIGNING ID.NO.TO DCB'S
 000162                               66+VIRCTR DS    H           CTR. ASSIGNING ID.NO.TO VIRTUALS
 000164                               67+LTLCTR DS    H           CTR. ASSIGNING ID.NO.TO LITERALS
 000166                               68+WCMAX  DS    H           SIZE OF THE LARGEST WORK AREA FOR LIBRARY SUBR
 000168                               69+TSMAX  DS    H           SIZE OF THE TEMP. STORAGE FOR ARITHM. STMNTS
 00016A                               70+TS2MAX DS    H           SAME AS ABOVE FOR NON-ARITHMETIC STATEMENTS
 00016C                               71+ODOCTR DS    H           NUMBER OF Q-ROUTINES
 00016E                               72+CKPCTR DS    H           NUMBER OF CHECKPOINT REQUESTS
 000170                               73+INDCTR DS    H           AVAILABLE
 000172                               74+SBLOMX   DS    H                   AVAILABLE
 000174                               75+VLCOMX   DS    H                   AVAILABLE
 000176                               76+SBLIMX DS    H           SAME AS SBLOMX FOR IN-LINE PROC.
 000178                               77+VLCIMX DS    H           SAME AS VLCOMX FOR IN-LINE PROC.
 00017A                               78+SBLCTR DS    H           COUNTER FOR ASSIGNING  SBL'S
 00017C                               79+VLCCTR DS    H           USED TO DETERMINE VLCOMX AND VLCIMX
 00017E                               80+BLLCTR DS    H           CTR. FOR ASSIGNING ID. NO.TO LINKAGE SEC. BL'S
 000180                               81+SEQERR DS    H           NO. OF OUT-OF-SEQUENCE CARDS
 000182                               82+SWITCH   DS    H
                                      83+*                        BITS MARKED BY * MAY STILL BE IN USE BY
                                      84+*                        COBOLF - ASSIGN THESE AS A LAST RESORT
                             00080    85+SWTRCE EQU   X'80'       BIT 0  TRACE
                                      86+*              *         BIT 1
                                      87+*              *         BIT 2
                             00010    88+SPILL    EQU   X'10'     BIT 3  SET IF DICTIONARY SPILL
                                      89+*              *         BIT 4
                             00004    90+MQVAR    EQU   X'04'     BIT 5  SET IF PH2 BUILDS A QVAR TABLE
                                      91+*              *         BIT 6
                             00001    92+MQFILE   EQU   X'01'     BIT 7  SET IF PH2 BUILDS A QFILE TABLE
                                      93+*
                                      94+*                        SECOND BYTE OF SWITCH
                                      95+*              *         BIT 0
                                      96+*              *         BIT 1
                             00020    97+SORTRTN  EQU   X'20'     BIT 2  SORT RETURN SET BY PHASE2 USED BY PH5
                             00010    98+RERUNN   EQU   X'10'     BIT 3  RERUN USED BY PHASE 1, 2 AND 5
                             00008    99+DSOU     EQU   X'08'     BIT 4  SOURCE INDICATOR FOR STATISTICS
                             00004   100+NOFITSW  EQU   X'04'     BIT 5  SET BY PH6 IF E-TEXT ON FILE3
                                     101+*                               USED BY PH7 & PH00
                             00002   102+DOPH7    EQU   X'02'     BIT 6  PH6 LOOK AHEAD FOR PH7 YES OR NO
                             00001   103+RDERRFIL EQU   X'01'     BIT 7  PH6 INPUT INDICATOR
 000184                              104+DICND2 DS    F           DICTIONARY POINTER USED IN PH2
 000188                              105+DICND1 DS    F           DICTIONARY POINTER USED IN PH1
 00018C                              106+DATE     DS    CL15      DATE/TIME OF COMPILATION
                                     107+*                        REUSED IN PHASE1 AS FOLLOWS
                                     108+*                                  BYTES 1-4 NUMBER OF DATA NAMES
                                     109+*                                        5-8 NUMBER OF VERBS
                                     110+*                                        9-12 NUMBER OF SOURCE CARDS
1PH1B                                                                                                           PAGE    4
-  LOC  OBJECT CODE    ADDR1 ADDR2  STMT   SOURCE STATEMENT                                       ASM 0201 11.03 02/14/15
0                                    111+*                                       13-15 NOT USED
 00019B                              112+WSDEF  DS    0CL7        LAST 7 BYTES OF DATA A-TEXT EL.FOR WORK.ST.SEC
 00019B                              113+         DS    CL3
 00019E                              114+WSBL   DS    C
 00019F                              115+WSSIZE   DS    CL3
 0001A2                              116+ERRSEV DS    C           HIGHEST ERROR SEVERITY LEVEL
 0001A3                              117+PHZSW  DS    C           OPTIONS SWITCH :
                             00080   118+LIST     EQU X'80'       SOURCE(OS)
                             00040   119+LISTX    EQU   X'40'     PMAP
                             00020   120+DECK     EQU   X'20'
                             00010   121+LINK     EQU   X'10'     LOAD
                             00008   122+SEQ      EQU   X'08'
                             00004   123+FLAGW    EQU   X'04'
                             00002   124+LIBR     EQU   X'02'
                             00001   125+ZWB      EQU   X'01'
 0001A4                              126+PHZSW1 DS    C
                             00080   127+XREF     EQU   X'80'
                             00040   128+CLIST    EQU   X'40'
                             00020   129+SYM      EQU   X'20'      DMAP
                             00010   130+PDT      EQU   X'10'
                             00004   131+APOST    EQU   X'04'
                             00002   132+MAPSP    EQU     X'02'
                             00001   133+TRUNC    EQU   X'01'
 0001A5                              134+PHZSW2   DS    C         RESERVED FOR ADDITIONAL OPTIONS
                             00080   135+STAT     EQU   X'80'     RESERVED FOR STATEMENT NUMBER OPTION
                             00002   136+NO6A     EQU   X'02'     SET BY PH6 TO TELL PH7 THAT PH6A WAS BYPASSED
 0001A8                              137+DICADR DS    F
 0001AC                              138+DLSVAL DS    F           ACCESS RTN. COMMUNICATION CELL
 0001B0                              139+DICPTR DS    C           ACCESS RTN. COMMUNICATION CELL
 0001B1                              140+DCPTR  DS    3C          ACCESS RTN. COMMUNICATION CELL
 0001B4                              141+RPTSAV DS    H           REPORT SAVE AREA CELL
 0001B6                              142+BLSCTR   DS    H         AVAILABLE
 0001B8                              143+LCSECT   DS    F
 0001BC                              144+PH7LOD   DS    F
 0001C0                              145+RGNCTR DS    H           COUNT OF UNIQUE GN'S
 0001C2                              146+ERF4SW DS    C           SWITCH USED BY PH6/PH7
 0001C3                              147+PTYNO    DS    C                   CURRENT PRIORITY NO
                                     148+*                                  SET BY PH5  USED BY PH00
 0001C4                              149+COMMAD   DS    H
 0001C6                              150+PHZSW3   DS    C                   OPTION SWITCH
                             00001   151+VERBR    EQU   X'01'               LISTING A-TEXT
 0001C7                              152+PHZSW4   DS    C                   RESERVED FOR ADDITIONAL OPTIONS
 0001C8                              153+AMOVDC   DS    F
 0001CC                              154+SDSIZ    DS    F         BIGGEST SD IN PGM.
 0001D0                              155+SEGLMT   DS    C
 0001D1                              156+DTFNUM   DS    C
 0001D2                              157+CURSGN   DS    C
 0001D3                              158+PH1BYTE  DS    C         PHASE 1 COMMUNICATION TO PHASE 2
                             00001   159+UPSIBT   EQU   X'01'     PASSES INFORMATION FROM PHASE 1A TO PHASE 2
                             00002   160+EOPPH1   EQU   X'02'     PASSES INFORMATION FROM PHASE 1A TO PHASE 1B
                             00004   161+INITBIT  EQU   X'04'     PASSES INFORMATION FROM PHASE 1A TO PHASE 2
                             00008   162+BASINSQ  EQU   X'08'           PH1A TO PH1B
                             00020   163+BASIS    EQU   X'20'
                             00080   164+F3TEXT   EQU   X'80'
 0001D4                              165+DECBCT   DS    H         NO OF DECB'S FOR PGM
1PH1B                                                                                                           PAGE    5
-  LOC  OBJECT CODE    ADDR1 ADDR2  STMT   SOURCE STATEMENT                                       ASM 0201 11.03 02/14/15
00001D6                              166+INDEXS   DS    H         AVAILABLE
 0001D8                              167+INDEX1   DS    H        # INDEX NAMES DEFNED IN IN-LINE FILES
 0001DA                              168+CYCTOTAL DS    H         AVAILABLE
 0001DC                              169+IOPTRCTR DS    H        # I/O POINTERS FOR APPLY-WRITE-ONLY
 0001DE                              170+TS3MAX   DS    H
 0001E0                              171+TS4MAX   DS    H
 0001E4                              172+BUFSIZE  DS    F         USED FOR STATISTICS
 0001E8                              173+CORESIZE DS    F         USED FOR STATISTICS
 0001EC                              174+CNTLINE  DS    H         USED FOR STATISTICS
 0001EE                              175+CURCRD   DS    H
 0001F0                              176+SPACING  DS    C         USED FOR STATISTICS
 0001F1                              177+PDTCHR   DS    C                   SET BY PH01 USED BY PH6
 0001F2                              178+         DS    H
 0001F4                              179+BASINS   DS    1F
 0001F8                              180+         DS    1F
                                     181+*
                                     182+*
 0001FC                              183+         DS    0F
 0001FC                              184+AGETALL  DS    F                   ADDRESS OF TAMER RTN - GETALL
 000200                              185+         DS    F                   AVAILABLE
 000204                              186+RPDNUM   DS    H         AVAILABLE
 000206                              187+CYCNUM   DS    H         AVAILABLE
 000208                              188+IDENTL DS    F           REL. LOC. OF CODING IN OBJECT MODULE FOR THE
                                     189+*                        RANDOM PROC IDENTIFIED IN RPDNUM
 00020C                              190+BLCTR  DS    H           ID NO ASSIGNED TO BL'S FOR FILES
 00020E                              191+VNCTR  DS    H           COUNTER FOR ASSIGNING VN NUMBERS
 000210                              192+ONCTR  DS    H           COUNTER FOR ASSIGNING ID NO.TO ON CONTROL CELL
 000212                              193+PFMCTR DS    H           COUNTER FOR ASSIGNING ID NO.TO PERFORM CELLS
 000214                              194+PSVCTR DS    H           CTR FOR ASSIGNING ID'S TO PERFORM SAVE CELLS
 000216                              195+XSACTR DS    H           LOC  WITHIN EXHIBIT OR SORT SAVE AREA
 000218                              196+XSWCTR DS    H           CTR FOR ASSIGNING ID'S TO EXHIBIT/ON SWITCHES
 00021C                              197+RELLOC DS    F           DISPL OF TGT/SGT FROM THE BEG. OF OBJECT MOD.
 000220                              198+GTLNG  DS    H           LENGTH OF TGT OR SGT SPECIFIED IN RELLOC
 000222                              199+RPILOC   DS    H         AVAILABLE
 000224                              200+VNILOC DS    H           DISPL OF VNI FIELDS IN PGT
 000226                              201+VNLOC  DS    H           DISPL OF VN FIELDS IN TGT OR SGT
 000228                              202+SUBCTR DS    H           CTR TO ASSIGN ID'S TO SUBSCRIPTED REFERENCES
 00022A                              203+PARMAX DS    H           SIZE OF PARAMETER AREA
 00022C                              204+BLSVAL   DS    H         AVAILABLE
 00022E                              205+BLSLOC   DS    H         AVAILABLE
 000230                              206+CMTBSW   DS    H         AVAILABLE
 000232                              207+SA2CTR DS    H           SET IF OPTION 2 OF USE  SPECIFIED
 000234                              208+SA3CTR DS    H           SET IF OPTION 5 OF USE  SPECIFIED
 000236                              209+BLSEND   DS    H         AVAILABLE
 000238                              210+INDEX    DS    F
 00023C                              211+INDEX0   DS    H         AVAILABLE
 000240                              212+       DS    6F
                                     213+*
                                     214+*      END OF COMMON
                                     215+*
                                     216+*
1PH1B                                                                                                           PAGE    6
-  LOC  OBJECT CODE    ADDR1 ADDR2  STMT   SOURCE STATEMENT                                       ASM 0201 11.03 02/14/15
1PH1B     IKFCBL1B                                                                                              PAGE    7
-  LOC  OBJECT CODE    ADDR1 ADDR2  STMT   SOURCE STATEMENT                                       ASM 0201 11.03 02/14/15
0000000                              219 SDDEF1 CSECT                                                            00040021
                             00000   220        USING COS,R1                                                     00050021
                                     221        ENTRY PH1B                                                       00060021
 000000                              222 BEGPHB DS    0H                                                         00070021
 000000 C9D2C6C3C2D3F1C2             223        DC    C'IKFCBL1B'               PHASE NAME                       00080021
 000008 C2                           224        DC    C'B'                      BUILD                            00090021
 000009 1C                           225        DC    X'1C'                     NUMBER IN HEX                    00100021
                                     226 *                                                                       00110021
                                     227 *                                                                       00120021
                                     228 *                                                                       00130021
                                     229 *                                                                       00140021
                                     230 *   PATCH AREA IS DEFINED AS 'PATCH3' IN CSECT IKF103                   00150021
                                     231 *                                                                       00160021
                                     232 *                                                                       00170021
                                     233 *                                                                       00180021
                                     234 *                                                                       00190021
                                     235 *                                                                       00200021
                                     236 *=3                                                                     00210021
                                     237 *                                                                       00220021
                                     238 *                                                                       00230021
                                     239 *TITLE                                                                  00240021
                                     240 *                                                                       00250021
                                     241 *            'IKFCBL1B'                                                 00260021
                                     242 *                                                                       00270021
                                     243 *STATUS:                                                                00280021
                                     244 *                                                                       00290021
                                     245 *   CHANGE LEVEL 000                                                    00300021
                                     246 *                                                                       00310021
                                     247 *FUNCTION/OPERATION:                                                    00320021
                                     248 *                                                                       00330021
                                     249 *   PHASE 1'S GENERAL FUNCTION:                                         00340021
                                     250 *   ENCODES THE ENTIRE SOURCE PROGRAM INTO INTERNAL COMPILER TEXT.      00350021
                                     251 *   PRODUCES P0 TEXT FROM THE PROCEDURE DIVISION.   PRODUCES OUTPUT     00360021
                                     252 *   LISTING AND/OR A-TEXT LISTING IF AN OBJECT MODULE LISTING IS        00370021
                                     253 *   REQUIRED.   CREATES DICTIONARY ENTRIES FOR PROCEDURE NAMES.         00380021
                                     254 *                                                                       00390021
                                     255 *   THE FUNCTION/OPERATION OF ACCESS:                                   00400021
                                     256 *   CONTROLS ALL REFERENCES TO THE DICTIONARY INCLUDING THE SPILLIN     00410021
                                     257 *   AND RETRIEVING OF SECTIONS OF THE DICTIONARY FROM DISKS, ETC.       00420021
                                     258 *   PHASE 1 USES ACCESS TO MAKE ENTRIES FOR PROCEDURE NAMES.            00430021
                                     259 *                                                                       00440021
                                     260 *ENTRY POINTS:                                                          00450021
                                     261 *                                                                       00460021
                                     262 *      PH1B                                                             00470021
                                     263 *                                                                       00480021
                                     264 *INPUT:                                                                 00490021
                                     265 *                                                                       00500021
                                     266 *        SYSIN - SOURCE PROGRAM (IF NOLIB IN EFFECT)                    00510021
                                     267 *        SYSUT4 - SOURCE PROGRAM (IF LIB IN EFFECT)                     00520021
                                     268 *                                                                       00530021
                                     269 *OUTPUT:                                                                00540021
                                     270 *                                                                       00550021
                                     271 *        SYSUT2  PROC. IC TEXT (P0) AND E TEXT IN PROC. DIV.            00560021
                                     272 *               LISTING A-TEXT.                                         00570021
                                     273 *        SYSPRINT  SOURCE PROGRAM LISTING (IF NOLIB IN EFFECT)          00580021
1PH1B     IKFCBL1B                                                                                              PAGE    8
-  LOC  OBJECT CODE    ADDR1 ADDR2  STMT   SOURCE STATEMENT                                       ASM 0201 11.03 02/14/15
0                                    274 *                                                                       00590021
                                     275 *EXTERNAL ROUTINES:                                                     00600021
                                     276 *                                                                       00610021
                                     277 *        PHASE 00  LINK TO I-O AND INTERPHASE COMMON REGION             00620021
                                     278 *        PRIME     ASSIGN AN AREA IN A TABLE REGION TO INDIVIDUAL T     00630021
                                     279 *        INSERT    GET ROOM FOR AN ENTRY TO BE MADE IN A TABLE          00640021
                                     280 *        TABREL    RELEASE TABLE, FREE AREA IF NO LONGER NEEDED.        00650021
                                     281 *        STATIC    NOTE NO NEW ENTRY TO BE MADE, RELEASE UNUSED ARE     00660021
                                     282 *                                                                       00670021
                                     283 *EXITS- NORMAL:                                                         00680021
                                     284 *                                                                       00690021
                                     285 *   VIA PHASE 00 TO PHASE 2                                             00700021
                                     286 *                                                                       00710021
                                     287 *   CALLING SEQUENCE:                                                   00720021
                                     288 *   L   JH,COSADR     BALR   0,JH     DC   X'A0'                        00730021
                                     289 *                                                                       00740021
                                     290 *EXITS-ERROR                                                            00750021
                                     291 *                                                                       00760021
                                     292 *   NONE                                                                00770021
                                     293 *                                                                       00780021
                                     294 *TABLES/WORK AREAS COMTBL, QLTABL, APPTBL,PNTABL, PNQTBL, PIOTBL,       00790021
                                     295 *   CKPTBL, OD2TBL, FNTBL, RCDTBL, SPNTBL, RNMTBL, RWRTBL, ROUTBL,      00800021
                                     296 *   DETTBL, DICOT, TOTTBL, UPSTBL.                                      00810021
                                     297 *   148 BYTES ARE RESERVED UNDER R13 AND WORK AREAS START AT DIVCOD     00820021
                                     298 *   PH1B IS PASSED THE P1BTBL WHICH CONTAINS INFORMATION NECESSARY      00830021
                                     299 *   CONTINUE PROCESSING THE SOURCE PROGRAM. IF PH1A HITS EOF ON INP     00840021
                                     300 *   THE  EOPPH1 BIT IN PH1BYTE IN COMMON IS SET ON AND PH1B WILL        00850021
                                     301 *   RELEASE THE APPROPRIATE TABLES AND EXIT TO PHASE 00.                00860021
                                     302 *   TABLES ARE DESCRIBED IN PLM AND LISTING.                            00870021
                                     303 *                                                                       00880021
                                     304 *ATTRIBUTES:                                                            00890021
                                     305 *                                                                       00900021
                                     306 *   NOT REUSABLE                                                        00910021
                                     307 *                                                                       00920021
                                     308 *NOTES:  GENERAL ORGANIZATION:-                                         00930021
                                     309 *                                                                       00940021
                                     310 *   1. EQU'S                                                            00950021
                                     311 *   2. ACCESS ROUTINES - MEMORY ALLOCATION, CONTROL DICTIONARY, ETC     00960021
                                     312 *   3. PHASE 1B HOUSEKEEPING, INITIALIZE ACCESS, PRIME TABLES.          00970021
                                     313 *   4. ERROR MESSAGES                                                   00980021
                                     314 *   5. WORK AREAS, COMMON WORK AND SAVE AREAS                           00990021
                                     315 *   6. REPORT WRITER TAMER ADCONS AND CONSTANTS                         01000021
                                     316 *   7. COBOL WORD TABLE                                                 01010021
                                     317 *   8. COMMON ROUTINES                                                  01020021
                                     318 *   9. GETDLM ROUTINE                                                   01030021
                                     319 *  10. UNIT LEVEL SCAN                                                  01040021
                                     320 *  11. PROCEDURE DIVISION SCAN                                          01050021
                                     321 *  12. END OF JOB ROUTINE                                               01060021
                                     322 *  13. PROCESS REPORT VERBS                                             01070021
                                     323 *                                                                       01080021
                                     324 *                                                                       01090021
                                     325 *  REGISTERS USAGE OF PHASE 1  (EXCLUDING ACCESS)                       01100021
                                     326 *                                                                       01110021
                                     327 *   0    WORK REGISTER                                                  01120021
                                     328 *   1    WORK REGISTER                                                  01130021
1PH1B     IKFCBL1B                                                                                              PAGE    9
-  LOC  OBJECT CODE    ADDR1 ADDR2  STMT   SOURCE STATEMENT                                       ASM 0201 11.03 02/14/15
0                                    329 *   2    WORK REGISTER                                                  01140021
                                     330 *   3    WORK REGISTER                                                  01150021
                                     331 *   4    WORK REGISTER                                                  01160021
                                     332 *   5    WORK REGISTER                                                  01170021
                                     333 *   6    WORK REGISTER                                                  01180021
                                     334 *   7    WORK REGISTER                                                  01190021
                                     335 *   8    BASE REGISTER IN DATA DIV. ELSE WORK REGISTER.                 01200021
                                     336 *   9    BASE REGISTER                                                  01210021
                                     337 *  10    BASE REGISTER                                                  01220021
                                     338 *  11    BASE REGISTER                                                  01230021
                                     339 *  12    BASE REGISTER                                                  01240021
                                     340 *  13    GLOBAL TABLE BASE, NEVER TOUCHED, ALSO PHASE 1'S BASE REG.     01250021
                                     341 *  14    LINK REGISTER, CALL REGISTER FOR SUBROUTINE                    01260021
                                     342 *  15    BASE REGISTER FOR INTERFACE AND INFREQUENT SUBROUTINES         01270021
                                     343 *                                                                       01280021
                                     344 *   GENERAL CONSIDERATIONS IN ACCESS PROCESSING                         01290021
                                     345 *   ACCESS HANDLES ON ERROR CONDITION, ALMOST NO EXCEPTION - PUT CO     01300021
                                     346 *   IN REGISTER 15.  IF A SUCCESSFUL OUTPUT REGISTER 15 SET TO 0, O     01310021
                                     347 *   WISE SET TO 4 IF NAME IS NOT FOUND, SET TO 8 IF NAME IS DUPLICA     01320021
                                     348 *   DEFINED, SET TO 12 IF NAME REFERENCED BY ACCESS WAS ELEMENTART      01330021
                                     349 *                                                                       01340021
                                     350 *   THE CONVENTION OF HANDLING GOOD OUTPUT, ACCESS ALWAYS USES REG.     01350021
                                     351 *   FOR STARTING ADDRESS OF ENTRY'S ATTRIBUTES, REG. 3 FOR DICTIONA     01360021
                                     352 *   POINTER OF ENTRY, AND REG. 15 SET TO ZERO, REG. 1 CONTAINS THE      01370021
                                     353 *   DICTIONARY POINTER OF THE NEXT ENTRY. REG. 0 AND 1 ARE NOT REST     01380021
                                     354 *   ON EXIT.                                                            01390021
                                     355 *                                                                       01400021
                                     356 *   CALLING SEQUENCE FOR CALL ACCESS ROUTINES:                          01410021
                                     357 *   L   1,=A(PARAM)     L   15,=A(ROUTINE'S NAME)     L   14,15         01420021
                                     358 *   WHERE PARAM HAS THE FOLLOWING FORMAT ON A WORD BOUNDARY:            01430021
                                     359 *  // CODE/ADDR OF BCD NAME/ATTRIBUTE COUNT/ATTRIBUTE'S ADDRESS//       01440021
                                     360 *                                                                       01450021
                                     361 *                                                                       01460021
                                     362 *                                                                       01470021
1PH1B     IKFCBL1B                                                                                              PAGE   10
-  LOC  OBJECT CODE    ADDR1 ADDR2  STMT   SOURCE STATEMENT                                       ASM 0201 11.03 02/14/15
0                                    364        ACCESS  1                                                        01490021
                                     365+*    TAMER-ACCESS PACKAGE                                               01710020
                                     366+*    TABLE DICTIONARY AREA IN THIS PACKAGE IS 16K                       01800020
                                     367+*                                                                       01890020
                                     368+*                                                                       01980020
                                     369+*    NOTE THAT WHEN A USER STARTS TO BUILD THE DICTIONARY HE MUST FIRST 02070020
                                     370+*    CALL 'INTACC' TO INITIALIZE 'ACCESS'.  THIS INITIALIZATION IS NOT  02160020
                                     371+*    NECESSARY IF THE DICTIONARY IS ALL OR PARTIALLY BUILTA.            02250020
                                     372+*                                                                       02340020
                                     373+*                                                                       02430020
                                     374+*    ORDER OF CORE FOR ACCESS                                           02520020
                                     375+*    LOCATIONS COMMON TO ACCESS AND TAMER                               02610020
                                     376+*    LOCATIONS FOR ROUTINES COMMON TO 'ENT' AND 'L' SERIES              02700020
                                     377+*    LOCATIONS FOR 'L' SERIES                                           02790020
                                     378+*    LOCATIONS FOR 'ENT' SERIES                                         02880020
                                     379+*    ROUTINES COMMON TO 'ENT' AND 'L' SERIES                            02970020
                                     380+*    'L' SERIES                                                         03060020
                                     381+*    'ENT' SERIES                                                       03150020
                                     382+*                                                                       03240020
                                     383+*                                                                       03330020
1PH1B     IKFCBL1B                                                                                              PAGE   11
-  LOC  OBJECT CODE    ADDR1 ADDR2  STMT   SOURCE STATEMENT                                       ASM 0201 11.03 02/14/15
0                                    385+*                                                                       03510020
                                     386+*                                                                       03600020
                                     387+*  IMMEDIATE VALUES                                                     03690020
                                     388+*                                                                       03780020
                                     389+*   MASKS  DM PREFIX                                                    03870020
                             00080   390+DMPFT1   EQU   128       TESTS 1ST BIT OF DICT PREFIX  1000 0000        03960020
                             00040   391+DMPFT2   EQU   64        TESTS 2ND BIT OF DICT PREFIX  0100 0000        04050020
                             000FF   392+DMBYT    EQU   255            TESTS WHOLE BYTE                          04140020
                             000F0   393+DMATRB   EQU   240            TESTS FIRST 4 BITS                        04230020
                                     394+*                                                                       04320020
                                     395+*    MASKS TO TEST ROUTINE ENTERED UPON                                 04410020
                             00010   396+DMEPTR   EQU   16             ENTPTR TEST, TESTS 5TH BIT FROM RIGHT     04500020
                             00008   397+DMGPTR   EQU   8              GETPTR TEST, TESTS 4TH BIT FROM RIGHT     04590020
                             00004   398+DMATRP   EQU   4         LATRPT, NOTE ALSO FOR LATGRP                   04680020
                             00008   399+DMACP    EQU   8        TESTS FOR LATACP,LATGRP                         04770020
                             0000C   400+DMACPP   EQU   12       TESTS FOR LATACP (ALSO WORKS FOR LATRPT)        04860020
                             00010   401+DMDELM   EQU   16        LDELNM                                         04950020
                             000C0   402+DMPFXT   EQU   192           TESTS DICT PFX, 1ST 2 BITS  1100 0000      05040020
                             00004   403+DMGRUP   EQU   4             GROUP TEST, 3RD BIT FROM RIGHT             05130020
                                     404+*                                                                       05220020
                                     405+*      EQUATES GIVING DISPLACEMENTS OF NEEDED PARAMS FROM A(COS),WHICH  05310020
                                     406+*      IS THE START-ADDRESS OF COMPILER COMMON.                         05400020
                                     407+*                                                                       05490020
                                     408+*                                                                       05580020
                             000AC   409+LDICOT EQU   TIB20-COS                                                  05670020
                             000AC   410+L8DCOT EQU   TIB20-COS                                                  05760020
                                     411+*                                                                       05850020
                                     412+*                                                                       05940020
                                     413+*                                                                       06030020
                                     414+*                                                                       06120020
                                     415+*      FOLLOWING ARE REGISTER EQUATES FOR TAMER                         06210020
                                     416+*                                                                       06300020
                                     417+*                                                                       06390020
                                     418+*                                                                       06480020
                             0000A   419+BDUMP6   EQU   *              START OF DEBUG DUMP AREA                  06570020
 00000C                              420+       DS    0F                                                         06660020
                                     421+*    ACCESS- TAMER CONSTANTS AND WORK AREA                              06750020
                                     422+*    THESE VALUES ARE UNDER REGISTER 12                                 06840020
                                     423+*                                                                       06930020
                                     424+*      FOLLOWING IS THE TAMER CONSTANT AREA.  TIBS AND TAMMS ASSEMBLED  07020020
                                     425+*      HERE ARE ACCESSIBLE TO ACCESS, AND TO THE PHASE PROGRAMMER.      07110020
                                     426+*                                                                       07200020
                             0000C   427+       USING *,R12             BASE REGISTER FOR ACCESS CONSTANTS.      07290020
                             0000C   428+PBEG12   EQU   *             MUST FOLLOW 'USING' FOR REG12              07380020
 00000C                              429+FRSTAM DS      80F                                                      07470020
 000150                              430+LASTAM DS    D                                                          07560020
 000158                              431+DUMMY1 DS    F                                                          07650020
                                     432+*                                                                       07740020
                                     433+****** PARAMETER LIST FOR STORAGE OF PARAM'S. GOT FROM COMPILER COMMON. 07830020
                                     434+*                                                                       07920020
                                     435+*                                                                       08010020
 00015C                              436+DPARST DS    F                     STORAGE FOR A(COS)PASSED TO PHASE.   08100020
 000160                              437+DPARLS DS    19F                   STORAGE FOR PARAMS MOVE TO ACCESS    08190020
 0001AC                              438+DMDMDM DS    20F                   FROM COMMON.                         08280020
                             00160   439+LPRIME EQU   DPARLS                A(PRIME)                             08370020
1PH1B     IKFCBL1B                                                                                              PAGE   12
-  LOC  OBJECT CODE    ADDR1 ADDR2  STMT   SOURCE STATEMENT                                       ASM 0201 11.03 02/14/15
0                            00164   440+LINSRT EQU   DPARLS+4              A(INSERT)                            08460020
                             00178   441+DTAMM1 EQU   DPARLS+24             A(LASTAM)                            08550020
 0001FC 00000000                     442+DMVDAD DC    F'0'                  A(MOVDIC), PASSED IN COMMON,STORED   08640020
                                     443+*                                 HERE BY INTACC.                       08730020
                             00200   444+LDUMP6 EQU   *                     END OF DEBUG DUMP AREA               08820020
 000200                              445+PTMSTR DS    F                                                          08910020
 000204 00000090                     446+FDCNT  DC    X'00000090'                                                09000020
 000208 C0DEC0DE                     447+PBCODE DC    X'C0DEC0DE'                                                09090020
 00020C                              448+ADSTOR DS    CL1                                                        09180020
                                     449+*                                                                       09270020
                                     450+*                                                                       09360020
                                     451+*      THE FOLLOWING ARE TAMER ADCONS FOR THE VARIOUS ROUTINE NAMES.    09450020
                                     452+*                                                                       09540020
                                     453+*                                                                       09630020
                                     454+*                                                                       09720020
                                     455+*                                                                       09810020
                                     456+*                                                                       09900020
                                     457+*      FOLLOWING ARE THE ADCONS FOR THE LAST TAMM IN THE TAMM AREA      09990020
                                     458+*      (PRESENTLY USED AS THE TAMM FOR MAIN FREE AREA), AND THE ADDRESS 10080020
                                     459+*      OF THE LAST BYTE OF FREE AREA AVAILABLE FOR TAMER-ACCESS TABLES. 10170020
                                     460+*                                                                       10260020
 00020D 000000
 000210 00000150                     461+ALAST  DC    A(LASTAM)                                                  10350020
 000214                              462+         DS    0F                                                       10440020
                                     463+*                                                                       10530020
                                     464+*  TEMPORARY CELLS  FOR BASIC ASSEMBLER USAGE ONLY                      10620020
                                     465+*                                                                       10710020
 000214 000003D4                     466+DLDHSH   DC    A(DHASH)       DE110                                     10800020
 000218 00000374                     467+DLDINC   DC    A(DINCOR)                                                10890020
 00021C 000002CC                     468+DLGCOD   DC    A(DGRPCD)      DE110                                     10980020
 000220 000002C9                     469+DLHSCD   DC    A(DHSHCD)                                                11070020
 000224 00000228                     470+LDLDIC   DC    A(DLDIC)                                                 11160020
1PH1B     IKFCBL1B                                                                                              PAGE   13
-  LOC  OBJECT CODE    ADDR1 ADDR2  STMT   SOURCE STATEMENT                                       ASM 0201 11.03 02/14/15
0000228                              472+       DS    0F                                                         11340020
                                     473+*                                                                       11430020
                                     474+*                                                                       11520020
1PH1B     IKFCBL1B                                                                                              PAGE   14
-  LOC  OBJECT CODE    ADDR1 ADDR2  STMT   SOURCE STATEMENT                                       ASM 0201 11.03 02/14/15
0                                    476+*    ACCESS CONSTANT AND WORK AREAS  REFER. BY REG13                    11700020
                                     477+*                                                                       11790020
                                     478+*    HOUSEKEEPING FOR THE DICTIONARY                                    11880020
                                     479+*    LASTAM IS THE TAMM FOR THE CURRENT FREE AREA                       11970020
                                     480+*                                                                       12060020
                                     481+*                                                                       12150020
                                     482+*    HOUSEKEEPING FOR THE DICOT TABLE, NEEDED BY TAMER                  12240020
                                     483+*    THE DICOT TABLE IS THE TABLE USED TO HOLD INFORMATION ON THE       12330020
                                     484+*    DICTIONARY SEGMENTS.  IT CONTAINS AN ENTRY FOR EACH SECTION AND    12420020
                                     485+*    ITS ORDER CORRESPONDS TO THE ORDER OF THE SECTIONS.                12510020
                                     486+*      EACH ENTRY IS 12 BYTES LONG---                                   12600020
                                     487+*            BYTE  0   = CODE TESTED FOR STATUS OF SECTION.             12690020
                                     488+*            BYTES 1-3 = ADDRESS OF A DICT. SECTION IN CORE.            12780020
                                     489+*            BYTES 4-11= ADDRESS, ON DISK, OF A SPILLED SECTION.        12870020
                                     490+*                                                                       12960020
                                     491+*      THE CORE ADDRESS OF A SPILLED SECTION IS OBSOLETE UNTIL THE      13050020
                                     492+*      SECTION IS READ BACK IN FOR UPDATING.  THEN BOTH ADDRESSES, DISK 13140020
                                     493+*      AND CORE, ARE TRUE.  AFTER SPILL, UNTIL UPDATE, THE TRUE         13230020
                                     494+*      ADDRESS IS THAT IN BYTES 4-11 OF THE DICOT ENTRY FOR THE SECT.   13320020
                                     495+*                                                                       13410020
                                     496+*                                                                       13500020
                                     497+*    TIB20 RESERVED FOR THE DICOT TABLE IN PHASES 1,2,3                 13590020
                                     498+*                                                                       13680020
                                     499+*    PARAMETER LOCATION NEEDED FOR CALL TO PRIME                        13770020
                                     500+*                                                                       13860020
 000228                              501+       DS    0F                                                         13950020
 000228 0C                           502+DLDIC  DC    X'0C'                 ENTRY SIZE IS 12 BYTES.              14040020
 000229 0000AC                       503+       DC    X'0000AC'                                                  14130020
 00022C 00F0                         504+       DC    H'240'       PRIME SIZE OS                                 14220020
 00022E 0078                         505+       DC    H'120'                GROW REQUEST AMOUNT.                 14310020
-
0
                                     507+*      STORE UNDER DATA FOR DINCOR.                                     14490020
 000230                              508+       DS    0F                                                         14580020
 000230 FF000000                     509+DUPDCD DC    X'FF000000'                                                14670020
 000234 0000000C                     510+DCENLG DC    F'12'                 LENGTH OF DICOT TABLE ENTRY.         14760020
 000238 0000000000000000             511+DINSTR DC    5F'0'                                                      14850020
 00024C 0000000000000000             512+DINSTB DC    2F'0'                                                      14940020
1PH1B     IKFCBL1B                                                                                              PAGE   15
-  LOC  OBJECT CODE    ADDR1 ADDR2  STMT   SOURCE STATEMENT                                       ASM 0201 11.03 02/14/15
0                                    514+*    LOCATIONS FOR BOTH 'ENT' AND 'L' SERIES                            15120020
                                     515+*      SHOULD NOT BE OVERLAID                                           15210020
                                     516+*                                                                       15300020
                                     517+*                                                                       15390020
                                     518+*                                                                       15480020
                                     519+*   REGISTER SAVE AREA                                                  15570020
                                     520+*                                                                       15660020
                                     521+*      'ENT','L' SERIES, 'ENTDEL','LOCNXT' USE SAME AREA SINCE ONLY     15750020
                                     522+*      ONE OF THESE ROUTINES IS CALLED AT A TIME                        15840020
                                     523+*      'DHASH', 'DINCOR' HAVE THEIR OWN AREA SEPARATE SINCE THEY ARE    15930020
                                     524+*      CALLED BY THE OTHER ROUTINES                                     16020020
                                     525+*                                                                       16110020
                                     526+*    'DHASH' STORAGE AREA                                               16200020
 000254                              527+         DS    0F                                                       16290020
 000254                              528+DSTORE   DS    CL4                                                      16380020
 000258                              529+DSTOR1   DS    CL4                                                      16470020
 00025C 0000000000000000             530+D33S14   DC    2F'0'    SAVE AREA FOR R14,R15,UPON DEMORE CALL TO DICSP 16560020
                                     531+*                                                                       16650020
 000264                              532+DRSAVE   DS    CL56      SAVE AREA FOR 'ENT' SERIES, REG. 2-15          16740020
                             00264   533+DL4      EQU   DRSAVE    SAVE AREA FOR 'L' SERIES                       16830020
                                     534+*                                                                       16920020
                                     535+*                                                                       17010020
                                     536+*    SAVE AREAS FOR REG 14,15  ARE UNDER REG12                          17100020
                                     537+*                                                                       17190020
                                     538+*    FOR 'DL' SERIES                                                    17280020
 00029C                              539+D1SV14   DS    F                                                        17370020
 0002A0                              540+DL15     DS    CL4                                                      17460020
 0002A4                              541+         DS    2F                 ADDITIONAL STORAGE, USED IN INTACC    17550020
                                     542+*                                                                       17640020
                                     543+*    FOR 'LOCNXT'                                                       17730020
                             0029C   544+D2SV14   EQU   D1SV14                                                   17820020
                             002A0   545+D2SV15   EQU   DL15                                                     17910020
                                     546+*                                                                       18000020
                                     547+*    FOR 'DE' SERIES                                                    18090020
                             0029C   548+D3SV14   EQU   D1SV14                                                   18180020
                             002A0   549+DS15     EQU   D2SV15                                                   18270020
                                     550+*                                                                       18360020
                                     551+*    FOR 'ENTDEL'                                                       18450020
                             0029C   552+D4SV14   EQU   D1SV14                                                   18540020
                             002A0   553+D4SV15   EQU   D2SV15                                                   18630020
                                     554+*                                                                       18720020
                                     555+*    FOR 'INTACC'                                                       18810020
                             0029C   556+D5SV14   EQU   D1SV14                                                   18900020
                             002A0   557+D5SV15   EQU   D2SV15                                                   18990020
                                     558+*                                                                       19080020
                                     559+*                                                                       19170020
                                     560+*    CONSTANTS, MASKS, WORK AREAS                                       19260020
                                     561+*      COMMON TO BOTH PARTS OF ACCESS                                   19350020
                                     562+*                                                                       19440020
                                     563+*   CONSTANTS                                                           19530020
 0002AC                              564+         DS    0F                                                       19620020
 0002AC 00000209                     565+DHDIV    DC    F'521'        DIVIDE CONSTANT FOR DHASH                  19710020
 0002B0 000001FF                     566+DMDSPL   DC    X'000001FF'    MASKS OUT ALL BUT DISPLAC                 19800020
 0002B4 003FFE00                     567+DMSECT   DC    X'003FFE00'   MASKS OUT ALL BUT SECT. NO.                19890020
 0002B8 00000200                     568+D512     DC    F'512'                                                   19980020
1PH1B     IKFCBL1B                                                                                              PAGE   16
-  LOC  OBJECT CODE    ADDR1 ADDR2  STMT   SOURCE STATEMENT                                       ASM 0201 11.03 02/14/15
00002BC 00000200                     569+DSUBVL   DC    X'00000200'   USED IN DINCOR TO DECREM. SECT. NO.        20070020
                                     570+*                                                                       20160020
                                     571+*    WORK CELL                                                          20250020
 0002C0                              572+         DS    0F                                                       20340020
 0002C0                              573+DWORK    DS    CL1       DUMMY FOR REG REFER                            20430020
 0002C1                              574+DWORK1   DS    CL3                                                      20520020
 0002C4 00000000                     575+DELSAV   DC    F'0'            FOR DELIM PTR IN CASE SPILLED SECTION    20610020
                                     576+*                                                                       20700020
 0002C8                              577+         DS    0F                                                       20790020
                                     578+*    DHWORD BYTE =0  USED BY DE210                                      20880020
 0002C8 00                           579+DHWORD   DC    X'00'         DUMMY FOR XR PICK-UP, MUST BE ZERO (LTR)   20970020
 0002C9                              580+DHSHCD DS    CL3              DUP. HASH CODE                            21060020
                                     581+*    DGRPCD MUST START ON A FULL WORD BOUNDARY AND MUST FOLLOW DHSHCD.  21150020
                                     582+*    WHEN DUP. HASH AND GROUP CODES APPEAR TOGETHER, THEY ARE MOVED INT 21240020
                                     583+*    THE DICT. AS ONE UNIT  (SEE DMVCOD).                               21330020
 0002CC 400000                       584+DGRPCD   DC    X'400000'     GROUP CODE, 01 IN 1ST 2 BITS               21420020
1PH1B     IKFCBL1B                                                                                              PAGE   17
-  LOC  OBJECT CODE    ADDR1 ADDR2  STMT   SOURCE STATEMENT                                       ASM 0201 11.03 02/14/15
0                                    586+*   HOUSEKEEPING FOR ACESS ROUTINES  LATRNM,LATRPT,LDELNM,LATACP,LATGRP 21600020
                                     587+*                                                                       21690020
                                     588+*    LOCATIONS FOR 'L' SERIES                                           21780020
                                     589+*      SHOULD NOT BE OVERLAID                                           21870020
 0002D0                              590+         DS    0F                                                       21960020
 0002D0 00000500                     591+DSWTCH   DC    A(DL500)       FOR LATACP SWITCH OFF                     22050020
                                     592+*                                                                       22140020
                                     593+*  MASKS   DM PREFIX                                                    22230020
 0002D4                              594+         DS    0F                                                       22320020
                                     595+*    DMSKCD BYTE0 USED TO SET DLMPTR BYTE0 NON-ZERO                     22410020
 0002D4 003FFFFF                     596+DMSKCD DC    X'003FFFFF'           MASK OUT CODE BITS                   22500020
 0002D8 FF000000                     597+DMSKDL DC    X'FF000000'           BYTE 0 MUST BE NON-ZERO              22590020
 0002DC 00FFFFFF                     598+DMBYT1   DC    X'00FFFFFF'    MASKS OUT 1ST BYTE (AND)                  22680020
                                     599+*                                                                       22770020
                                     600+*    NAME COMPARISON INSTRUCTION                                        22860020
 0002E0 D500 2000 9000 00000 00000   601+DCOMPR CLC   0(0,R2),0(R9)       R2=A(DICT NAME), R9=A(INPUT NAME)      22950020
                                     602+*                                                                       23040020
                                     603+*    LAST VALID ENTRY POINTER (NEEDED FOR LATACP)                       23130020
                                     604+*    BITS 0-7 MUST EQUAL ZERO                                           23220020
 0002E8                              605+         DS    0F                                                       23310020
 0002E8 00000000                     606+DSTART DC    F'0'                 MUST BE SET TO 0.NOT USED ACROSS PH5. 23400020
                                     607+*                                                                       23490020
                                     608+*    'DLMPTR'  SET IN ALL VALID CALLS TO ACCESS BY 'L' ROUTINES,        23580020
                                     609+*    TESTED BY LATACP.  VALUE = GROUP DELIMITER POINTER FOR GROUP ITEMS 23670020
                                     610+*    FOUND BY LATACP, LDELMN, ITS BYTE0 NONZERO FOR ELEM. ITEMS FOUND   23760020
                                     611+*    BY LATACP, SET ZERO BY ALL OTHER ROUTINES.                         23850020
                                     612+*                                                                       23940020
                                     613+*    'DLTEMP'  USED IN 'L' SERIES TO SAVE A(ATTRIB) OF FIRST MATCH      24030020
                                     614+*    FOUND  CHANGE THIS IF 'DLMPTR' USED IN DL300 LOOP                  24120020
 0002EC 00000000                     615+DLMPTR DC    F'0'                  SET TO 0 BY DEFINITION.  2/16/66.    24210020
                             002EC   616+DLTEMP   EQU   DLMPTR                                                   24300020
1PH1B     IKFCBL1B                                                                                              PAGE   18
-  LOC  OBJECT CODE    ADDR1 ADDR2  STMT   SOURCE STATEMENT                                       ASM 0201 11.03 02/14/15
0                                    618+*   HOUSEKEEPING FOR ENTNAM,ENTPTR,GETPTR                               24480020
                                     619+*      OVERLAID IN PHASE 3                                              24570020
                                     620+*                                                                       24660020
                                     621+*                                                                       24750020
                                     622+*    MASKS FOR 'ENT' SERIES                                             24840020
 0002F0                              623+         DS    0F                                                       24930020
 0002F0 00800000                     624+DMPFX2   DC    X'00800000'    INSERTS PREFIX=2 IN 2ND BYTE              25020020
 0002F4 00C00000                     625+DMPFX3   DC    X'00C00000'    INSERTS PREFIX=3 IN 2ND BYTE              25110020
 0002F8 C00000                       626+DMDLM    DC  X'C00000'       MASK TO CLEAR DELIM PART OF GROUP CODE     25200020
                                     627+*                                                                       25290020
                                     628+*   MOVE INSTRUCTIONS         R2=DICT ADDRESS                           25380020
 0002FC                              629+         DS    0F                                                       25470020
 0002FC D200 2000 8000 00000 00000   630+DMVCOD MVC   0(0,R2),0(R8)  R8= 0GRPCD,DHSHCD                           25560020
 000302 D200 2000 9000 00000 00000   631+DMOVE  MVC   0(0,R2),0(R9)  R9= A(NAME,ATTRIB)                          25650020
1PH1B     IKFCBL1B                                                                                              PAGE   19
-  LOC  OBJECT CODE    ADDR1 ADDR2  STMT   SOURCE STATEMENT                                       ASM 0201 11.03 02/14/15
0000308 00000000                     633+DTSAVE  DC  F'0'                                                        25830020
1PH1B     IKFCBL1B                                                                                              PAGE   20
-  LOC  OBJECT CODE    ADDR1 ADDR2  STMT   SOURCE STATEMENT                                       ASM 0201 11.03 02/14/15
-
-
                                     636+******                                                           ****** 26100020
                                     637+******                                                           ****** 26190020
                                     638+*                                                                     * 26280020
                                     639+*                           ** INTACC **                              * 26370020
                                     640+*                                                                     * 26460020
                                     641+*      INTACC---ACCESS INITIALIZATION ROUTINE.                        * 26550020
                                     642+*                                                                     * 26640020
                                     643+*      CALLS----INTACC IS CALLED AS PART OF INITIALIZATION BY         * 26730020
                                     644+*               EACH PHASE USING ACCESS.                              * 26820020
                                     645+*                                                                     * 26910020
                                     646+*      FUNCTION-INTACC PRIMES THE DICOT TABLE AND MOVES ADDRESS       * 27000020
                                     647+*               OF TAMER ROUTINES CALLED BY ACCESS FROM COMMON TO       27090020
                                     648+*               ITS OWN ADDRESS STORAGE AREA.                           27180020
                                     649+*                                                                       27270020
                                     650+*****                                                                   27360020
 00030C                              651+       DS    0F                                                         27450020
                             0030C   652+       USING *,R15                                                      27540020
                             0030C   653+INTACC EQU   *                                                          27630020
 00030C 50C0 F064      00370         654+       ST    R12,DINS12                                                 27720020
 000310 58C0 F060      0036C         655+       L     R12,DATADD                STORE R12.                       27810020
 000314 90E1 C290      0029C         656+       STM   R14,R1,D5SV14             STORE REST UNDER BASE 12         27900020
                                     657+****** THE LOADING OF THE FOLLOWING PARAMETERS MUST BE DONE             27990020
                                     658+****** BEFORE ANY ACCESS ROUTINE OTHER THAN INTACC IS CALLED.           28080020
 000318 5810 C150      0015C         659+       L     R1,DPARST                 LOAD A(COS).                     28170020
 00031C D207 C154 112C 00160 0012C   660+       MVC   LPRIME(8),APRIME                                           28260020
                                     661+*                                      PARAMETER LIST                   28350020
 000322 D203 C16C 1144 00178 00144   662+       MVC   DTAMM1(4),ALSTAM                                           28440020
 000328 D203 C1F0 11C8 001FC 001C8   663+       MVC   DMVDAD(4),AMOVDC                                           28530020
 00032E 9101 1140      00140         664+       TM    ACCESW,1                                                   28620020
 000332 4710 F054      00360         665+       BC    ONES,INTCEX               NO. DICOT TABE PRIMED. EXIT      28710020
 000336 9201 1140      00140         666+       MVI   ACCESW,1                                                   28800020
                                     667+*   ON FIRST CALL TO INTACC, THE HASH TABLE IS ZEROED OUT, AND THE      28890020
                                     668+*   DICOT TABLE IS PRIMED. HASH TABLE=(521) (3)=(1563) BYTES LONG.      28980020
 00033A 5810 1140      00140         669+       L     R1,ACCESW                 A(HASA TABLE)                    29070020
 00033E 41E0 0006      00006         670+       LA    R14,6                     LOAD LOOP COUNT.                 29160020
 000342 D7FE 1000 1000 00000 00000   671+PHTBZR XC    0(255,R1),0(R1)           CLEAR 255 BYTES.                 29250020
 000348 4111 00FF      000FF         672+       LA    R1,255(R1)                INCREMENT.                       29340020
 00034C 46E0 F036      00342         673+       BCT   R14,PHTBZR                                                 29430020
 000350 D720 1000 1000 00000 00000   674+       XC    0(33,R1),0(R1)            CLEAR TABLE.                     29520020
                                     675+*   AFTER ZERO-OUT OF HASH TABLE, PRIME DICOT TABLE.                    29610020
 000356 5810 C218      00224         676+       L     R1,LDLDIC                 LOAD A(DICOT TABLE PARM).        29700020
 00035A 58F0 C154      00160         677+       L     R15,LPRIME                A(PRIME).                        29790020
 00035E 05EF                         678+       BALR  R14,R15                   CALL PRIME                       29880020
                                     679+*   EXIT AFTER INITIALIZATION FINISHED.                                 29970020
 000360 98E1 C290      0029C         680+INTCEX LM    R14,R1,D5SV14                                              30060020
 000364 58C0 F064      00370         681+       L     R12,DINS12                                                 30150020
 000368 07FE                         682+       BCR   15,R14                    RETURN.                          30240020
                                     683+****** THIS AREA IS FOR STORAGE OF R12 UNDER R15,                       30330020
                                     684+****** AND DATA BASE ADDRESS.                                           30420020
1PH1B     IKFCBL1B                                                                                              PAGE   21
-  LOC  OBJECT CODE    ADDR1 ADDR2  STMT   SOURCE STATEMENT                                       ASM 0201 11.03 02/14/15
000036A 0000
 00036C 0000000C                     685+DATADD DC    A(PBEG12)                 DATA BASE ADDRESS                30510020
 000370 00000000                     686+DINS12 DC    F'0'                      STORAGE FOR CALLER'S REG 12.     30600020
1PH1B     IKFCBL1B                                                                                              PAGE   22
-  LOC  OBJECT CODE    ADDR1 ADDR2  STMT   SOURCE STATEMENT                                       ASM 0201 11.03 02/14/15
0                                    688+*                                                                     * 30780020
                                     689+*                           **  DINCOR  **                            * 30870020
                                     690+*                                                                     * 30960020
                                     691+*      DINCOR--- GIVEN A DICTIONARY POINTER, DINCOR CHECKS TO SEE     * 31050020
                                     692+*                IF THE SECTION FOR THAT POINTER IS IN CORE.          * 31140020
                                     693+*                IF IT IS- DINCOR RETURNS WITH THE ENTRY ADDRESS.     * 31230020
                                     694+*                IF NOT--- DINCOR CALLS THE ROUTINE WHICH READS       * 31320020
                                     695+*                          IN THE SPILLED SECTION,THE RETURNS WITH    * 31410020
                                     696+*                          THE ENTRY ADDRESS.                         * 31500020
                                     697+*      INPUT---- R2 = DICTIONARY POINTER                              * 31590020
                                     698+*      OUTPUT--- R2 = ENTRY ADDRESS .                                 * 31680020
                                     699+*                R0 = SEGMENT ADDRESS,USED IN LOCNXT.                 * 31770020
                                     700+*                                                                     * 31860020
                                     701+******                                                           ****** 31950020
-
0
 000374                              703+       DS    0F                                                         32130020
                             00374   704+       USING *,R15                                                      32220020
                             00374   705+DINCOR EQU   *                                                          32310020
 000374 9037 C22C      00238         706+       STM   R3,R7,DINSTR          STORE REGISTERS.                     32400020
 000378 90EF C240      0024C         707+       STM   R14,R15,DINSTB        STORE DINCOR BASE ADDRESS,RETURN AD. 32490020
 00037C 1852                         708+       LR    R5,R2                 LOAD DICT.POINTER                    32580020
 00037E 5450 C2A8      002B4         709+       N     R5,DMSECT             MASK OUT SECT. NUMBER.               32670020
 000382 5B50 C2B0      002BC         710+       S     R5,DSUBVL             SUB X'200' FOR DICOT SECT.NUMBER--   32760020
                                     711+*                                  GIVING 1 SECTION LOWER THAN SECTION  32850020
                                     712+*                                  VALUE IN POINTER.                    32940020
 000386 8850 0009      00009         713+       SRL   R5,9                  SHIFT DOWN TO OBTAIN SECTION NUMBER. 33030020
                                     714+*                                  0 FOR SECTION 1,                     33120020
                                     715+*                                  1 FOR SECTION 2,                     33210020
                                     716+*                                  2 FOR SECTION 3, ETC.                33300020
 00038A 5C40 C228      00234         717+       M     R4,DCENLG             MULTIPLY BY LGTH OF DICOT ENTRY.     33390020
                                     718+*                                  RESULT,IN R5, IS DISPLACEMENT.       33480020
 00038E 5870 C150      0015C         719+       L     R7,DPARST             LOAD  A(COS).                        33570020
 000392 4177 00AC      000AC         720+       LA    R7,LDICOT(R7)         OBTAIN A(TIB20)= A(DICOT TIB).       33660020
 000396 5877 0000      00000         721+       L     R7,0(R7)              LOAD A(DICOT TAMM).                  33750020
 00039A 5877 0000      00000         722+       L     R7,0(R7)              LOAD A(DICOT TABLE).                 33840020
 00039E 4135 7000      00000         723+       LA    R3,0(R5,R7)           LOAD A(ENTRY FOR POINTER).           33930020
0
                                     725+*      TEST HERE FOR SECTION IN CORE, OR SPILLED SECTION.               34110020
 0003A2 9180 3000      00000         726+       TM    0(R3),128             HAS SECTION BEEN SPILLED?            34200020
 0003A6 4780 F04C      003C0         727+       BC    ZERO,DINSCA              NO. LOAD ADDRESS OF SECTION.      34290020
 0003AA 9160 3000      00000         728+       TM    0(R3),96                 YES.HAS IT BEEN READ IN,UPDATED?  34380020
 0003AE 4710 F04C      003C0         729+       BC    ONES,DINSCA                 YES.THEN CORE ADDRESS IS VALID 34470020
0
                                     731+*      THIS CODE CALLS TAMER'S MOVDIC ROUTINE, WHICH READS IN SPILLED   34650020
                                     732+*      SECTION,AND ADJUSTS THE DICOT ENTRY FOR IT ACCORDINGLY.          34740020
                                     733+*      MOVDIC RETURNS THE SECTION ADDRESS IN R0.                        34830020
0
 0003B2 58F0 C1F0      001FC         735+DGTSPL L     R15,DMVDAD                  NO. LOAD A(MOVDIC).            35010020
1PH1B     IKFCBL1B                                                                                              PAGE   23
-  LOC  OBJECT CODE    ADDR1 ADDR2  STMT   SOURCE STATEMENT                                       ASM 0201 11.03 02/14/15
00003B6 56F0 C224      00230         736+       O     R15,DUPDCD                      SET HIGH BYTE OF 15 =X'FF' 35100020
 0003BA 05EF                         737+       BALR  R14,R15               CALL MOVDIC.                         35190020
                                     738+*      WHEN DINCOR CALLS MOVDIC, IT PASSES A(DICOT ENTRY)FOR SECTION    35280020
                                     739+*      IN R3. MOVDIC PLACES IN-CORE ADDR. OF SECT. IN DICOT TABLE.      35370020
 0003BC 98EF C240      0024C         740+       LM    R14,R15,DINSTB        RESTORE A(DINCOR),RETURN ADDRESS.    35460020
 0003C0 5803 0000      00000         741+DINSCA L     R0,0(R3)                 NO. LOAD ADDRESS OF SECTION.      35550020
 0003C4 5400 C2D0      002DC         742+       N     R0,DMBYT1             MASK OUT TOP BYTE IN ADDRESS REG.    35640020
 0003C8 5420 C2A4      002B0         743+       N     R2,DMDSPL             MASK OUT ALL BUT DISPLACEMENT.       35730020
 0003CC 1A20                         744+       AR    R2,R0                 OBTAIN ADDRESS OF ENTRY.             35820020
0
 0003CE 9837 C22C      00238         746+DINCEX LM    R3,R7,DINSTR          RELOAD REGISTERS USED.               36000020
 0003D2 07FE                         747+       BCR   15,R14                RETURN TO CALL                       36090020
1PH1B     IKFCBL1B                                                                                              PAGE   24
-  LOC  OBJECT CODE    ADDR1 ADDR2  STMT   SOURCE STATEMENT                                       ASM 0201 11.03 02/14/15
1PH1B     IKFCBL1B                                                                                              PAGE   25
-  LOC  OBJECT CODE    ADDR1 ADDR2  STMT   SOURCE STATEMENT                                       ASM 0201 11.03 02/14/15
0                                    750+*   ROUTINE 'DHASH'                                                     36360020
                                     751+*       USED BY BOTH 'ENT','L' SERIES                                   36450020
                                     752+*                                                                       36540020
                                     753+*     HASHES BCD NAME, LOCATES CORRES. HASH TABLE ENTRY                 36630020
                                     754+*    INPUT  R9=A(BCD NAME)       'ENT'  R9  'L' R9                      36720020
                                     755+*           R11= BCD NAME CNT            R11     R11                    36810020
                                     756+*    OUTPUT R8= 0,DICT PNTR             R8      R8                      36900020
                                     757+*           R10= A(HASH TABLE ENTRY)     R10     R10                    36990020
                                     758+*           R8/R9  EVEN/ODD  DIVIDEND                                   37080020
                                     759+*           R10/R11  EVEN/ODD  INCREM./COMPAR.                          37170020
                                     760+*                                                                       37260020
                                     761+*    HASHING FUNCTION                                                   37350020
                                     762+*      SEGMENT NAME (INCL. CNT) INTO 4 BYTE LENGTHS, ADD LENGTHS        37440020
                                     763+*      TOGETHER LOGICALLY, DIVIDE SUM BY SIZE OF HASH TABLE, MULT       37530020
                                     764+*      REMAIN. BY 3 TO OBTAIN DISPL. ADD IT TO A(HASH TABLE) AND        37620020
                                     765+*      PICK UP CORRES. ENTRY                                            37710020
                                     766+*      ENTRY=0 OR DICT. PNTR OF LAST BCD NAME WHICH HASHED TO THIS LOC  37800020
                                     767+*                                                                       37890020
                                     768+*     NOTE THAT INPUT NAME IS PADDED OUT WITH ZEROES SO 4 BYTES CAN BE  37980020
                                     769+*     ADDED AT A TIME                                                   38070020
                                     770+*                                                                       38160020
                                     771+*                                                                       38250020
 0003D4                              772+         DS    0F                                                       38340020
                             003D4   773+       USING *,R15                                                      38430020
                             003D4   774+DHASH    EQU   *                                                        38520020
 0003D4 5090 C248      00254         775+       ST    R9,DSTORE                                                  38610020
 0003D8 41A0 0004      00004         776+       LA    R10,4(R0,R0)    R10=INCREMENT=4                            38700020
 0003DC 1B88                         777+       SR    R8,R8       R8= CNTR =0,4,...                              38790020
 0003DE 1B00                         778+       SR    R0,R0         R0=SUM, INITIALLY ZERO                       38880020
 0003E0 5E09 8000      00000         779+DHLOOP AL    R0,0(R9,R8)    NOTE, NO OVERFLOW INTERRUPT                 38970020
 0003E4 878A F00C      003E0         780+       BXLE  R8,R10,DHLOOP      R8= R10+1 =COMPARAND                    39060020
 0003E8 1890                         781+       LR    R9,R0                                                      39150020
 0003EA 1B88                         782+       SR    R8,R8       R9= R8+1                                       39240020
 0003EC 5D80 C2A0      002AC         783+       D     R8,DHDIV     R8/R9 =DIVIDEND,  SIGN IS +                   39330020
 0003F0 41A8 8000      00000         784+       LA    R10,0(R8,R8)     R8= REMAINDER, MULT BY 3                  39420020
 0003F4 1AA8                         785+       AR    R10,R8                                                     39510020
                                     786+*     DISPLAC COMPUTED, OBTAIN ENTRY                                    39600020
                                     787+*                                                                       39690020
                                     788+*      TEMPORARY HASH TABLE PLACEMENT OF HASH TABLE,'PHASHT', AT END    39780020
                                     789+*      OF TAMER CODING IN PHASE 0.                                      39870020
                                     790+*                                                                       39960020
 0003F6 5880 C150      0015C         791+       L     R8,DPARST           LOAD ADDRESS OF COS.                   40050020
 0003FA 5888 0140      00140         792+       L     R8,ACCESW-COS(R8)         A(PHASHT)                        40140020
 0003FE 41AA 8000      00000         793+       LA    R10,0(R10,R8)       INCREMENT TO DISPLACEMENT IN HASH      40230020
                                     794+*                                 TABLE FOR CURRENT DICTIONARY ENTRY.   40320020
 000402 D202 C2BD A000 002C9 00000   795+       MVC   DHSHCD(3),0(R10)                                           40410020
 000408 5880 C2BC      002C8         796+       L     R8,DHWORD    1ST BYTE MUST = 0                             40500020
 00040C 5890 C248      00254         797+       L     R9,DSTORE                                                  40590020
 000410 07FE                         798+       BCR   UNCOND,R14                                                 40680020
                                     799+*                                                                       40770020
                                     800+*                                                                       40860020
1PH1B     IKFCBL1B                                                                                              PAGE   26
-  LOC  OBJECT CODE    ADDR1 ADDR2  STMT   SOURCE STATEMENT                                       ASM 0201 11.03 02/14/15
0                                    802+*   ACCESS ROUTINES   LATRNM,LATRPT,LDELNM,LATACP,LATGRP                41040020
                                     803+*     'L' (LOCATE) SERIES    'DL' PREFIX                                41130020
                                     804+*    NOTE  SHOULD NEVER USE LATACP FOLLOWING AN INVALID CALL TO ACCESS. 41220020
                                     805+*    LATACP TESTS 'DLMPTR', SET IN LAST VALID CALL TO ACCESS.           41310020
                                     806+*    'DLMPTR' = GROUP DELIMITER POINTER IF LAST CALL WAS TO LATACP,     41400020
                                     807+*    LDELMN AND ENTRY WAS VALID AND GROUP ITEM.  'DLMPTR' BYTE0 NONZERO 41490020
                                     808+*    IF LAST CALL WAS BY LATACP AND ELEM. ITEM WAS FOUND.  'DLMPTR'     41580020
                                     809+*    SET ZERO BY ALL OTHER ROUTINES.                                    41670020
                                     810+*                                                                       41760020
                                     811+*                                                                       41850020
 000414                              812+         DS    0F                                                       41940020
                             00414   813+DLBEG    EQU   *                                                        42030020
                             00414   814+LATRNM   EQU   *                                                        42120020
                             00414   815+LATRPT   EQU   *                                                        42210020
                             00414   816+LDELNM   EQU   *                                                        42300020
                             00414   817+LATACP   EQU   *                                                        42390020
                             00414   818+LATGRP   EQU   *                                                        42480020
                                     819+*                                                                       42570020
                             00414   820+       USING *,R15                                                      42660020
 000414 50C0 F220      00634         821+       ST    R12,D1SV12    REG12 IS USED TO REFER. CONSTANTSETC         42750020
 000418 58C0 F218      0062C         822+       L     R12,D1RG12                                                 42840020
 00041C 90EF C290      0029C         823+       STM   R14,R15,D1SV14     REG13 IS NOT USED SO NOT SAVED          42930020
 000420 9108 1000      00000         824+       TM    0(R1),DMACP                                                43020020
 000424 4780 F078      0048C         825+         BC    ZERO,DL200                                               43110020
                                     826+*                                                                       43200020
                                     827+*    LATACP, LATGRP ENTRY   COMPUTE LIMITS FOR ENTRY TO BE LOCATED      43290020
                                     828+*    DSTART WILL = LOWER LIMIT OF ENTRIES TO SCAN, IE. = HEADER GROUP   43380020
                                     829+*    POINTER.  R5 WILL = UPPER LIMIT OF ENTRIES TO SCAN, IE.= DELIMITER 43470020
                                     830+*    PONTER.  IN LATGRP, PICK UP DELIMITER POINTER FROM GROUP HEADER    43560020
                                     831+*    DICT. ENTRY.  IN LATACP, TEST 'DLMPTR'  (SEE COMMENTS).            43650020
 000428 904B C258      00264         832+DL100  STM   R4,R11,DL4                                                 43740020
 00042C 1B66                         833+       SR    R6,R6          SET LATACP SWITCH ON                        43830020
 00042E 9104 1000      00000         834+       TM    0(R1),DMATRP                                               43920020
 000432 4770 F040      00454         835+         BC    NOTZER,DL150                                             44010020
                                     836+*                                                                       44100020
                                     837+*    LATACP ENTRY, CHECK 'DLMPTR'                                       44190020
                                     838+*    'DLMPTR' = GROUP DELIMITER POINTER IF LAST CALL TO ACCESS WAS BY   44280020
                                     839+*    LDELMN OR LATACP AND ENTRY WAS VALID AND GROUP ITEM.               44370020
                                     840+*                                                                       44460020
 000436 5820 C2DC      002E8         841+DL110  L     R2,DSTART     DSTART= LAST VALID ENTRY POINTER             44550020
 00043A 5850 C2E0      002EC         842+       L     R5,DLMPTR                                                  44640020
 00043E 1255                         843+       LTR   R5,R5                                                      44730020
 000440 4780 F048      0045C         844+         BC    ZERO,DL160                                               44820020
 000444 91FF C2E0      002EC         845+         TM    DLMPTR,DMBYT  IF BYTE0 IS NONZERO, LAST ITEM WAS ELEM.   44910020
 000448 4780 F048      0045C         846+         BC    ZERO,DL160                                               45000020
                                     847+*                                                                       45090020
                                     848+*    LAST CALL WAS FOR ELEM. ITEM, INPUT ITEM ELEM. ITEM  ERROR EXIT    45180020
 00044C 41E0 000C      0000C         849+DL130  LA    R14,12(R0)                                                 45270020
 000450 47F0 F1B6      005CA         850+         BC    UNCOND,DXEXIT                                            45360020
                                     851+*                                                                       45450020
                                     852+*    LATGRP ENTRY,  LATACP ENTRY WHEN LAST CALL WAS NOT BY LATACP,      45540020
                                     853+*    LDELMN.  REFERENCE GROUP HEADER DICT. ENTRY TO OBTAIN DELIMITER    45630020
                                     854+*    POINTER                                                            45720020
                                     855+*    NOTE THAT 'DSTART' BYTE0 MUST =0  OK SINCE LATGRP INPUT CODE =0.   45810020
 000454 5821 0004      00004         856+DL150  L     R2,4(R1)      LATGRP                                       45900020
1PH1B     IKFCBL1B                                                                                              PAGE   27
-  LOC  OBJECT CODE    ADDR1 ADDR2  STMT   SOURCE STATEMENT                                       ASM 0201 11.03 02/14/15
0000458 5020 C2DC      002E8         857+       ST    R2,DSTART                                                  45990020
                                     858+*                                                                       46080020
                                     859+*   NOW OBTAIN DELIM.,IF ANY, FOR GROUP ITEM    SET R5=DELIM            46170020
 00045C 58F0 C20C      00218         860+DL160  L     R15,DLDINC    R2= INPUT                                    46260020
 000460 05EF                         861+       BALR  R14,R15                                                    46350020
 000462 58F0 C294      002A0         862+       L     R15,DL15       OUTPUT   R2=DICT ADDRESS                    46440020
 000466 9180 2000      00000         863+       TM    0(R2),DMPFT1                                               46530020
 00046A 4780 F05E      00472         864+         BC    ZERO,DL170                                               46620020
 00046E 4122 0003      00003         865+       LA    R2,3(R2)       UPDATE PAST HASH CODE                       46710020
 000472 9140 2000      00000         866+DL170  TM    0(R2),DMPFT2                                               46800020
 000476 4780 F038      0044C         867+         BC    ZERO,DL130    BRANCH IF NO GROUP CODE                    46890020
 00047A D202 C2B5 2000 002C1 00000   868+       MVC   DWORK1(3),0(R2)                                            46980020
 000480 5850 C2B4      002C0         869+       L     R5,DWORK       SET R5=GROUP DELIM POINTER                  47070020
 000484 5450 C2C8      002D4         870+       N     R5,DMSKCD      MASK OUT CODE BITS                          47160020
 000488 47F0 F088      0049C         871+         BC    UNCOND,DL210                                             47250020
                                     872+*                                                                       47340020
                                     873+*   INITIAL.   LATRNM,LATRPT,LDELNM     TEST IF LATRPT                  47430020
 00048C 9104 1000      00000         874+DL200  TM    0(R1),DMATRP   SUFFIC TEST   CANNOT BE LATGRP              47520020
 000490 4710 F1CC      005E0         875+         BC    ONES,DL700                                               47610020
 000494 904B C258      00264         876+       STM   R4,R11,DL4                                                 47700020
 000498 5860 C2C4      002D0         877+       L     R6,DSWTCH      SET LATACP SWITCH OFF                       47790020
                                     878+*                                                                       47880020
                                     879+*   PROCESSING FOR ALL ROUTINES EXCEPT LATRPT                           47970020
                                     880+*    HASH THE INPUT NAME, INVESTIGATE DICT. ENTRIES THAT HASH TO SAME   48060020
                                     881+*    VALUE.  INITIALLY AGREE CODE =0.  WHEN 1ST MATCH IS FOUND, SET     48150020
                                     882+*    AGREE CODE = ITS POINTER.                                          48240020
 00049C 1B33                         883+DL210  SR    R3,R3     SET AGREE CODE=0                                 48330020
 00049E 5891 0000      00000         884+       L     R9,0(R1)      SET R9= A(INPUT BCD NAME)                    48420020
 0004A2 1BBB                         885+       SR    R11,R11                                                    48510020
 0004A4 43B9 0000      00000         886+       IC    R11,0(R9)  SET R11=INPUT NAME CNT                          48600020
 0004A8 58F0 C208      00214         887+       L     R15,DLDHSH                                                 48690020
 0004AC 05EF                         888+       BALR  R14,R15                                                    48780020
 0004AE 58F0 C294      002A0         889+       L     R15,DL15                                                   48870020
 0004B2 1288                         890+       LTR   R8,R8     DHASH OUTPUT  R8= 0,DICT POINTER                 48960020
 0004B4 4770 F0AC      004C0         891+         BC    NOTZER,DL300                                             49050020
 0004B8 41E0 0004      00004         892+       LA    R14,4(R0,R0)     NO POINTER PRESENT  ERROR EXIT            49140020
 0004BC 47F0 F1B6      005CA         893+         BC    UNCOND,DXEXIT                                            49230020
                                     894+*                                                                       49320020
                                     895+*    LOOP  CHECK THRO ALL DUP. HASH NAMES UNTIL NO MORE FOUND OR 2      49410020
                                     896+*          MATCHES FOUND                                                49500020
                                     897+*          R8= CURRENT TEST POINTER       LOOP DL300-DL550              49590020
                                     898+*          INITIAL VALUE OF CURRENT POINTER = C(HASH TABLE ENTRY).      49680020
                                     899+*                                                                       49770020
                                     900+*   LATACP ENTRY   TEST IF CURRENT POINTER POINTS TO ENTRY BETWEEN      49860020
                                     901+*      GROUP HEADER AND DELIMITER                                       49950020
                                     902+*      IF NOT, CHECK NEXT DUP HASH POINTER IF ANY                       50040020
                                     903+*    TEST IF LATACP, LATGRP ENTRY  (R6=0)                               50130020
                                     904+*    IF YES, TEST IF CURRENT POINTER LESS THAN GROUP HEADER POINTER     50220020
 0004C0 1266                         905+DL300  LTR   R6,R6                                                      50310020
 0004C2 4770 F0BA      004CE         906+         BC    NOTZER,DL310                                             50400020
 0004C6 5980 C2DC      002E8         907+       C     R8,DSTART                                                  50490020
 0004CA 4740 F128      0053C         908+         BC    LO,DL560      CURRENT POINTER LESS, DISCONTINUE SEARCH   50580020
 0004CE 1828                         909+DL310  LR    R2,R8                                                      50670020
 0004D0 58F0 C20C      00218         910+       L     R15,DLDINC                                                 50760020
 0004D4 05EF                         911+       BALR  R14,R15        LOCATE ENTRY                                50850020
1PH1B     IKFCBL1B                                                                                              PAGE   28
-  LOC  OBJECT CODE    ADDR1 ADDR2  STMT   SOURCE STATEMENT                                       ASM 0201 11.03 02/14/15
00004D6 58F0 C294      002A0         912+       L     R15,DL15       OUTPUT   R2=DICT ADDRESS                    50940020
 0004DA 1B77                         913+       SR    R7,R7          R7= DUP HASH INDICATOR                      51030020
 0004DC 9180 2000      00000         914+       TM    0(R2),DMPFT1                                               51120020
 0004E0 4780 F0E2      004F6         915+         BC    ZERO,DL400                                               51210020
 0004E4 D202 C2B5 2000 002C1 00000   916+       MVC   DWORK1(3),0(R2)     SET R7=DUP HASH POINTER                51300020
 0004EA 5870 C2B4      002C0         917+       L     R7,DWORK                                                   51390020
 0004EE 5470 C2C8      002D4         918+       N     R7,DMSKCD      MASK OUT CODE BITS                          51480020
 0004F2 4122 0003      00003         919+       LA    R2,3(R2,R0)                                                51570020
                                     920+*                                                                       51660020
                                     921+*    AGAIN, TEST IF LATACP, LATGRP ENTRY  (R6=0)                        51750020
                                     922+*      NOTE  1ST TEST (DL300) WAS TO AVOID POSSIBLE UNNECESSARY         51840020
                                     923+*      RETRIEVAL OF A SEGMENT                                           51930020
                                     924+*      IF YES, CHECK FOR MATCH ONLY IF CURRENT POINTER LESS THAN        52020020
                                     925+*      DELIMITER POINTER                                                52110020
 0004F6 1266                         926+DL400  LTR   R6,R6                                                      52200020
 0004F8 0776                         927+       BCR   NOTZER,R6      IF NOT, R6=DL500                            52290020
                                     928+*                                                                       52380020
 0004FA 1985                         929+       CR    R8,R5          R5=DELIMITER                                52470020
 0004FC 47B0 F11C      00530         930+         BC    NOTLO,DL550                                              52560020
                                     931+*                                                                       52650020
                                     932+*   DOES DICT. NAME AGREE WITH INPUT NAME                               52740020
                                     933+*    NOTE  DL500 IS THE TRANSFER POINT IN LATACP SWITCH                 52830020
 000500 1BAA                         934+DL500  SR    R10,R10          R10 INDICATOR FOR LDELNM                  52920020
 000502 9140 2000      00000         935+       TM    0(R2),DMPFT2                                               53010020
 000506 4780 F0FC      00510         936+         BC    ZERO,DL510                                               53100020
 00050A 18A2                         937+       LR    R10,R2          SET R10=A(GROUP CODE)                      53190020
 00050C 4122 0003      00003         938+       LA    R2,3(R2)                                                   53280020
                                     939+*    NOTE  R11= CORRECT VALUE, 1 LESS THAN NO. OF BYTES TO BE COMPARED  53370020
 000510 44B0 C2D4      002E0         940+DL510  EX    R11,DCOMPR     COMPARE NAMES, R11=INPUT NAME CNT           53460020
 000514 4770 F11C      00530         941+         BC    NOTEQ,DL550                                              53550020
 000518 1233                         942+       LTR   R3,R3          TEST AGREE CODE                             53640020
 00051A 4780 F112      00526         943+         BC    ZERO,DL520                                               53730020
                                     944+*                                                                       53820020
                                     945+*   NAMES AGREE, NOT FIRST MATCH, ERROR EXIT                            53910020
 00051E 41E0 0008      00008         946+       LA    R14,8(R0)                                                  54000020
 000522 47F0 F1B6      005CA         947+         BC    UNCOND,DXEXIT                                            54090020
                                     948+*                                                                       54180020
                                     949+*                                                                       54270020
                                     950+*   NAMES AGREE, FIRST MATCH                                            54360020
                                     951+*    SET R3= ITS DICT POINTER                                           54450020
                                     952+*    SET R4 =A(GROUP CODE OF 1ST MATCH)                                 54540020
 000526 1838                         953+DL520  LR    R3,R8                                                      54630020
 000528 184A                         954+       LR    R4,R10                                                     54720020
 00052A D202 C2B8 A000 002C4 00000   955+         MVC   DELSAV(3),0(R10)                                         54810020
                                     956+*                                                                       54900020
                                     957+*    DOES THIS ENTRY POINT TO ANOTHER DUP HASH VALUE                    54990020
 000530 1277                         958+DL550  LTR   R7,R7                                                      55080020
 000532 4780 F128      0053C         959+         BC    ZERO,DL560                                               55170020
 000536 1887                         960+       LR    R8,R7          YES, SET CURRENT PNTR= DUP HASH POINTER     55260020
 000538 47F0 F0AC      004C0         961+         BC    UNCOND,DL300                                             55350020
                                     962+*                                                                       55440020
                                     963+*    NO MORE DUP HASH, CHECK IF MATCH WAS EVER FOUND                    55530020
 00053C 1233                         964+DL560  LTR   R3,R3                                                      55620020
 00053E 4770 F136      0054A         965+         BC    NOTZER,DLEXIT                                            55710020
 000542 41E0 0004      00004         966+       LA    R14,4(R0)      NO, ERROR EXIT                              55800020
1PH1B     IKFCBL1B                                                                                              PAGE   29
-  LOC  OBJECT CODE    ADDR1 ADDR2  STMT   SOURCE STATEMENT                                       ASM 0201 11.03 02/14/15
0000546 47F0 F1B6      005CA         967+         BC    UNCOND,DXEXIT                                            55890020
                                     968+*                                                                       55980020
                                     969+*    VALID ENTRY EXIT    OUTPUT IN REG 2,3,15   REG4 RESTORED           56070020
                                     970+*    TEST IF LDELMN, LATACP ENTRY                                       56160020
                                     971+*    IF YES, TEST IF ENTRY IS GROUP ITEM                                56250020
                                     972+*    R4 = A(GROUP CODE, IF ANY, OF MATCH)                               56340020
                             0054A   973+DL600    EQU   *                                                        56430020
 00054A 1823                         974+DLEXIT LR    R2,R3                                                      56520020
 00054C 58F0 C20C      00218         975+       L     R15,DLDINC                                                 56610020
 000550 05EF                         976+       BALR  R14,R15                                                    56700020
 000552 58F0 C294      002A0         977+       L     R15,DL15                                                   56790020
 000556 91C0 2000      00000         978+       TM    0(R2),DMPFXT                                               56880020
 00055A 4780 F156      0056A         979+       BC    ZERO,DL602                                                 56970020
 00055E 4122 0003      00003         980+       LA    R2,3(R2)                                                   57060020
 000562 4740 F156      0056A         981+       BC    MIXED,DL602                                                57150020
 000566 4122 0003      00003         982+       LA    R2,3(R2)                                                   57240020
                             0056A   983+DL602  EQU   *                                                          57330020
 00056A 4122 B001      00001         984+       LA    R2,1(R2,R11)                                               57420020
 00056E 9110 1000      00000         985+       TM    0(R1),DMDELM                                               57510020
 000572 4780 F170      00584         986+         BC    ZERO,DL610                                               57600020
 000576 1244                         987+       LTR   R4,R4         LDELMN ENTRY                                 57690020
 000578 4770 F186      0059A         988+         BC    NOTZER,DL620                                             57780020
                                     989+*                                                                       57870020
                                     990+*   LDELNM  INPUT NAME ELEM ITEM, ERROR EXIT  REG2,3 SET UP, REG4 UNCHG 57960020
 00057C 41E0 000C      0000C         991+       LA    R14,12(R0)                                                 58050020
 000580 47F0 F1B6      005CA         992+         BC    UNCOND,DXEXIT  RESTORE REG4                              58140020
                                     993+*                                                                       58230020
                                     994+*    NOT LDELMN, TEST IF LATACP                                         58320020
 000584 910C 1000      00000         995+DL610  TM    0(R1),DMACPP  NOTE  CANNOT BE LATRPT SO TEST IS OK         58410020
 000588 47B0 F19C      005B0         996+         BC    NOTMXD,DL640                                             58500020
                                     997+*    LATACP,  IF NOT GROUP ITEM, SET 'DLMPTR' BYTE0 NONZERO             58590020
 00058C 1244                         998+       LTR   R4,R4                                                      58680020
 00058E 4770 F186      0059A         999+         BC    NOTZER,DL620                                             58770020
 000592 5840 C2CC      002D8        1000+       L     R4,DMSKDL             (DMSKDL) BYTE 0 = FF                 58860020
 000596 47F0 F19E      005B2        1001+         BC    UNCOND,DL650                                             58950020
                                    1002+*                                                                       59040020
                                    1003+*    LATACP, LDELMN ENTRY AND A GROUP ITEM                              59130020
                                    1004+*    SET 'DLMPTR', REG1 = GROUP DELIMITER POINTER  (BYTE0=0)            59220020
 00059A D202 C2B5 C2B8 002C1 002C4  1005+DL620    MVC   DWORK1(3),DELSAV                                         59310020
 0005A0 5810 C2B4      002C0        1006+       L     R1,DWORK                                                   59400020
 0005A4 5410 C2C8      002D4        1007+       N     R1,DMSKCD     MASK OUT CODE                                59490020
 0005A8 5010 C2E0      002EC        1008+       ST    R1,DLMPTR                                                  59580020
 0005AC 47F0 F1A2      005B6        1009+         BC    UNCOND,DL660                                             59670020
                                    1010+*                                                                       59760020
 0005B0 1844                        1011+DL640  LR    R4,R4         NOT LATACP, LDELMN                           59850020
 0005B2 5040 C2E0      002EC        1012+DL650  ST    R4,DLMPTR     SET UP 'DLMPTR'                              59940020
                                    1013+*    BYTE0=0  AS REQUIRED FOR DSTART                                    60030020
 0005B6 5030 C2DC      002E8        1014+DL660  ST    R3,DSTART     SET DSTART=VALID ENTRY DICT. POINTER         60120020
 0005BA 984B C258      00264        1015+       LM    R4,R11,DL4                                                 60210020
 0005BE 58E0 C290      0029C        1016+       L     R14,D1SV14    MUST PRECECE LOAD OF REG12                   60300020
 0005C2 58C0 F220      00634        1017+       L     R12,D1SV12    REG15 VALUE OKAY                             60390020
 0005C6 1BFF                        1018+       SR    R15,R15       NOW SET REG15 =RETURN VALUE                  60480020
 0005C8 07FE                        1019+       BCR   UNCOND,R14                                                 60570020
                                    1020+*                                                                       60660020
                                    1021+*    ERROR EXIT  SET UP REG15                                           60750020
1PH1B     IKFCBL1B                                                                                              PAGE   30
-  LOC  OBJECT CODE    ADDR1 ADDR2  STMT   SOURCE STATEMENT                                       ASM 0201 11.03 02/14/15
00005CA 50E0 F21C      00630        1022+DXEXIT ST    R14,D1SVEM    SAVE ERROR CODE, CANNOT SET REG15 YET        60840020
 0005CE 984B C258      00264        1023+       LM    R4,R11,DL4                                                 60930020
 0005D2 58E0 C290      0029C        1024+       L     R14,D1SV14    MUST PRECEDE LOAD OF REG12                   61020020
 0005D6 58C0 F220      00634        1025+       L     R12,D1SV12    REG15 VALUE OKAY                             61110020
 0005DA 58F0 F21C      00630        1026+       L     R15,D1SVEM    LOAD REG15 WITH ERROR CODE VALUE             61200020
 0005DE 07FE                        1027+       BCR   UNCOND,R14                                                 61290020
                                    1028+*                                                                       61380020
                                    1029+*    LATRPT ENTRY, SET REG2=A(ATTRIB)                                   61470020
                                    1030+*    USES R2, R11                                                       61560020
 0005E0 50B0 C258      00264        1031+DL700  ST    R11,DL4                                                    61650020
 0005E4 5821 0000      00000        1032+       L     R2,0(R1)                                                   61740020
 0005E8 5420 C2D0      002DC        1033+       N     R2,DMBYT1                                                  61830020
 0005EC 5020 C2DC      002E8        1034+       ST    R2,DSTART      SET DSTART= ENTRY POINTER                   61920020
 0005F0 58F0 C20C      00218        1035+       L     R15,DLDINC                                                 62010020
 0005F4 05EF                        1036+       BALR  R14,R15                                                    62100020
 0005F6 58F0 C294      002A0        1037+       L     R15,DL15       LOCATE ENTRY, OUTPUT  R2= DICT ADDRESS      62190020
 0005FA 91C0 2000      00000        1038+       TM    0(R2),DMPFXT                                               62280020
 0005FE 4780 F1FA      0060E        1039+         BC    ZERO,DL720                                               62370020
 000602 4122 0003      00003        1040+       LA    R2,3(R2)                                                   62460020
 000606 4740 F1FA      0060E        1041+         BC    MIXED,DL720                                              62550020
 00060A 4122 0003      00003        1042+       LA    R2,3(R2)                                                   62640020
 00060E 1BBB                        1043+DL720  SR    R11,R11                                                    62730020
 000610 50B0 C2E0      002EC        1044+       ST    R11,DLMPTR     SET DLMPTR =0                               62820020
 000614 43B2 0000      00000        1045+       IC    R11,0(R2)       SET R11= NAME CNT                          62910020
 000618 4122 B001      00001        1046+       LA    R2,1(R2,R11)                                               63000020
                                    1047+*   DUMP OF REGISTERS ONLY  CODE =2                                     63090020
 00061C 58B0 C258      00264        1048+       L     R11,DL4                                                    63180020
 000620 58E0 C290      0029C        1049+       L     R14,D1SV14    MUST PRECEDE LOAD OF REG12                   63270020
 000624 58C0 F220      00634        1050+       L     R12,D1SV12    REG15 VALUE OKAY                             63360020
 000628 07FE                        1051+       BCR   UNCOND,R14                                                 63450020
                                    1052+*                                                                       63540020
                                    1053+*                                                                       63630020
 00062A 0000
 00062C 0000000C                    1054+D1RG12   DC    A(PBEG12)                                                63720020
                                    1055+*    D1SVEM  UNDER REG15  USED TO HOLD ERROR CODES  REG15 IS BOTH       63810020
                                    1056+*    BASE REG. AND ERROR CODE REG.  CANNOT LOAD IT UNTIL EXIT           63900020
 000630                             1057+D1SVEM   DS    F                                                        63990020
 000634                             1058+D1SV12   DS    F                                                        64080020
1PH1B     IKFCBL1B                                                                                              PAGE   31
-  LOC  OBJECT CODE    ADDR1 ADDR2  STMT   SOURCE STATEMENT                                       ASM 0201 11.03 02/14/15
0                                   1060+*  ACCESS ROUTINES   ENTNAM,ENTPTR,GETPTR    R2 PREFIX                  64350020
                                    1061+*                                                                       64440020
                                    1062+*                                                                       64530020
 000638                             1063+         DS    0F                                                       64620020
                             00638  1064+       USING *,R15                                                      64710020
                             00638  1065+DEBEG    EQU   *                                                        64800020
                             00638  1066+ENTNAM   EQU   DEBEG                                                    64890020
                             00638  1067+ENTPTR   EQU   DEBEG                                                    64980020
                             00638  1068+GETPTR   EQU   DEBEG                                                    65070020
                                    1069+*    REG. 0,1  WILL NOT BE SAVED                                        65160020
                                    1070+*    MODIFY LATER  REG. 2,12 DO NOT HAVE TO BE SAVED                    65250020
                                    1071+*                                                                       65340020
 000638 50C0 F174      007AC        1072+       ST    R12,D3SV12                                                 65430020
 00063C 58C0 F170      007A8        1073+       L     R12,D3RG12                                                 65520020
 000640 90EF C290      0029C        1074+       STM   R14,R15,D3SV14                                             65610020
 000644 902B C258      00264        1075+       STM   R2,R11,DRSAVE                                              65700020
 000648 1BBB                        1076+       SR    R11,R11                                                    65790020
 00064A 1B77                        1077+       SR    R7,R7                                                      65880020
 00064C 9110 1000      00000        1078+       TM    0(R1),DMEPTR                                               65970020
 000650 4710 F122      0075A        1079+         BC    ONES,DE500     BRANCH IF ENTPTR ENTRY                    66060020
                                    1080+*                                                                       66150020
                                    1081+*  SET UP GROUP CODE, HASH CODE                                         66240020
 000654 5891 0000      00000        1082+DE100  L     R9,0(R1)       R9=A(BCD NAME)  SET UP FOR DHASH            66330020
 000658 43B9 0000      00000        1083+       IC    R11,0(R9)     R11=NAME CNT                                 66420020
 00065C 58F0 C208      00214        1084+       L     R15,DLDHSH    *HASH NAME                                   66510020
 000660 05EF                        1085+       BALR  R14,R15                                                    66600020
 000662 58F0 C294      002A0        1086+       L     R15,DS15      OUTPUT  R8= (0, DUP. POINTER)                66690020
 000666 1838                        1087+       LR    R3,R8                                                      66780020
 000668 1B44                        1088+       SR    R4,R4                                                      66870020
 00066A 9104 1000      00000        1089+       TM    0(R1),DMGRUP                                               66960020
 00066E 4780 F042      0067A        1090+         BC    ZERO,DE110                                               67050020
 000672 5880 C210      0021C        1091+       L     R8,DLGCOD     *GROUP ITEM                                  67140020
 000676 4140 0003      00003        1092+       LA    R4,3(R0,R0)     SET CNT=3                                  67230020
 00067A 1233                        1093+DE110  LTR   R3,R3         TEST IF DUP HASH POINTER                     67320020
 00067C 4780 F062      0069A        1094+         BC    ZERO,DE200                                               67410020
 000680 5880 C214      00220        1095+       L     R8,DLHSCD     *LOAD ADDR OF HASH CODE                      67500020
 000684 4170 0003      00003        1096+       LA    R7,3(R0,R0)     SET CNT=3                                  67590020
 000688 5630 C2E4      002F0        1097+       O     R3,DMPFX2      INSERT PREFIX 2                             67680020
 00068C 1244                        1098+       LTR   R4,R4                                                      67770020
 00068E 4780 F05E      00696        1099+         BC    ZERO,DE120                                               67860020
 000692 5630 C2E8      002F4        1100+       O     R3,DMPFX3      GROUP CODE, INSERT PREFIX 3                 67950020
 000696 5030 C2BC      002C8        1101+DE120  ST    R3,DHWORD                                                  68040020
                                    1102+*                                                                       68130020
                                    1103+*  COMPUTE TOTAL ENTRY SIZE, TEST IF SUFFIC. SPACE IN CURRENT SECTION   68220020
 00069A 1A47                        1104+DE200  AR    R4,R7          R4= CODE CNT                                68310020
 00069C 4371 0004      00004        1105+       IC    R7,4(R1)       SET R7= ATTRIB CNT                          68400020
 0006A0 416B 7001      00001        1106+       LA    R6,1(R11,R7)                                               68490020
 0006A4 1A64                        1107+       AR    R6,R4         R6= ENTRY SIZE                               68580020
 0006A6 5820 C150      0015C        1108+       L     R2,DPARST              LOAD A(COS)                         68670020
 0006AA 5822 01A8      001A8        1109+       L     R2,DICADR-COS(R2)                                          68760020
                                    1110+*****                                                                   68850020
 0006AE 5040 C24C      00258        1111+       ST    R4,DSTOR1       2/18/66                                    68940020
 0006B2 5840 C150      0015C        1112+       L     R4,DPARST                                                  69030020
 0006B6 5834 0140      00140        1113+       L     R3,ACCESW-COS(R4)         HOLD DISP                        69120020
 0006BA 4133 0000      00000        1114+       LA    R3,0(R3)                INTO HASH TABLE                    69210020
1PH1B     IKFCBL1B                                                                                              PAGE   32
-  LOC  OBJECT CODE    ADDR1 ADDR2  STMT   SOURCE STATEMENT                                       ASM 0201 11.03 02/14/15
00006BE 1BA3                        1115+       SR    R10,R3                    IN REG. 10                       69300020
                                    1116+*****                                                                   69390020
                                    1117+*****                                                                   69480020
 0006C0 1832                        1118+       LR    R3,R2                                                      69570020
 0006C2 1A36                        1119+       AR    R3,R6                                                      69660020
 0006C4 1B55                        1120+       SR    R5,R5          R5=0 THROUGHOUT PROGRAM                     69750020
 0006C6 5934 01AC      001AC        1121+       C     R3,DLSVAL-COS(R4)                                          69840020
 0006CA 4740 F0A2      006DA        1122+         BC    LO,DE205                                                 69930020
 0006CE 4720 F09A      006D2        1123+       BC    HI,DEMORG             RESTORE R4 BEFORE GO TO DEMORE       70020020
                                    1124+*DEL                                                                    70110020
 0006D2 5840 C24C      00258        1125+DEMORG L     R4,DSTOR1       2/18/66                                    70200020
 0006D6 47F0 F178      007B0        1126+       BC    15,DEMORE             GO TO DEMORE.                        70290020
                                    1127+*     WHEN ENTRY DOES NOT FILL SEGMENT, STORE ZERO IN 1ST BYTE AFTER    70380020
                                    1128+*     ENTRY.   IF THIS TURNS OUT TO BE LAST ENTRY IN SEGMENT, BYTE=O    70470020
                                    1129+*     IN NEXT BYTE INDICATES THIS TO LOCNXT.                            70560020
 0006DA 4253 0000      00000        1130+DE205  STC   R5,0(R3)                                                   70650020
 0006DE 5840 C150      0015C        1131+DE210  L     R4,DPARST                                                  70740020
 0006E2 5034 01A8      001A8        1132+       ST    R3,DICADR-COS(R4)                                          70830020
 0006E6 5834 0140      00140        1133+       L     R3,ACCESW-COS(R4)         GET ADDRESS OF ENTRY             70920020
 0006EA 4133 0000      00000        1134+       LA    R3,0(R3)                IN THE HASH TABLE                  71010020
 0006EE 1AA3                        1135+       AR    R10,R3                    INTO REG. 10                     71100020
                                    1136+*   UPDATED DICADR AT RETURN FROM DEMORE                                71190020
                                    1137+*  STORE HASH TABLE POINTER,CODE,IF ANY,IN DICT.                        71280020
 0006F0 D202 A000 41B1 00000 001B1  1138+       MVC   0(3,R10),DCPTR-COS(R4)                                     71370020
 0006F6 5840 C24C      00258        1139+       L     R4,DSTOR1       2/18/66                                    71460020
                                    1140+*     SET PREFIX =0.  INDICATOR FOR ENTPTR IN CASE NO CODE IN ENTRY     71550020
                                    1141+*     AND BCD NAME CAN BE STORED IMMEDIATELY.                           71640020
 0006FA 4252 0000      00000        1142+       STC   R5,0(R2)                                                   71730020
 0006FE 1244                        1143+       LTR   R4,R4                                                      71820020
 000700 4780 F0D6      0070E        1144+         BC    ZERO,DE250                                               71910020
 000704 0640                        1145+       BCTR  R4,R0           CODE, SUBT 1                               72000020
 000706 4440 C2F0      002FC        1146+       EX    R4,DMVCOD      STORE CODE IN DICT                          72090020
 00070A 4124 2001      00001        1147+       LA    R2,1(R4,R2)    UPDATE DICT REF                             72180020
 00070E 9108 1000      00000        1148+DE250  TM    0(R1),DMGPTR                                               72270020
 000712 4710 F0F0      00728        1149+         BC    ONES,DE400     BRANCH IF GETPTR ENTRY                    72360020
                                    1150+*                                                                       72450020
                                    1151+*  STORE ENTRY IN DICTIONARY                                            72540020
 000716 44B0 C2F6      00302        1152+DE300  EX    R11,DMOVE     STORE NAME                                   72630020
 00071A 4122 B001      00001        1153+       LA    R2,1(R2,R11)  UPDATE DICT REFERENCE                        72720020
 00071E 0670                        1154+       BCTR  R7,R0           SUBT 1                                     72810020
 000720 5891 0004      00004        1155+       L     R9,4(R1)       R9=A(ATTRIB)                                72900020
 000724 4470 C2F6      00302        1156+       EX    R7,DMOVE       STORE ATTRIB                                72990020
                                    1157+*                                                                       73080020
                                    1158+*  ENTNAM, GETPTR   UPDATE DICPTR                                       73170020
 000728 5810 C150      0015C        1159+DE400  L     R1,DPARST      LOAD  A(COS)                                73260020
 00072C 5810 11B0      001B0        1160+       L     R1,DICPTR                 OUTPUT FOR GETPTR                73350020
                                    1161+*****                                                                   73440020
                                    1162+*****                                                                   73530020
 000730 1841                        1163+       LR    R4,R1                                                      73620020
 000732 18B1                        1164+       LR    R11,R1                                                     73710020
 000734 5440 C2A4      002B0        1165+       N     R4,DMDSPL      R4=DISPLAC.                                 73800020
 000738 1A46                        1166+       AR    R4,R6                                                      73890020
 00073A 5440 C2A4      002B0        1167+       N     R4,DMDSPL     MASK OUT POSSIBLE OFLO FOR 512 DISPL  1/66   73980020
 00073E 54B0 C2A8      002B4        1168+       N     R11,DMSECT    R11=SECT NO                                  74070020
 000742 1E4B                        1169+       ALR   R4,R11                                                     74160020
1PH1B     IKFCBL1B                                                                                              PAGE   33
-  LOC  OBJECT CODE    ADDR1 ADDR2  STMT   SOURCE STATEMENT                                       ASM 0201 11.03 02/14/15
0000744 5820 C150      0015C        1170+       L     R2,DPARST             LOAD A(COS)                          74250020
 000748 5042 01B0      001B0        1171+       ST    R4,DICPTR-COS(R2)                                          74340020
                                    1172+*    REG 1 IS NOT SAVED, OUTPUT FOR GETPTR                              74430020
 00074C 982B C258      00264        1173+DEXIT  LM    R2,R11,DRSAVE                                              74520020
                                    1174+*                                                                       74610020
 000750 58E0 C290      0029C        1175+       L     R14,D3SV14    MUST PRECEDE LOAD OF REG12                   74700020
 000754 58C0 F174      007AC        1176+       L     R12,D3SV12                                                 74790020
 000758 07FE                        1177+       BCR   UNCOND,R14                                                 74880020
                                    1178+*                                                                       74970020
                                    1179+*                                                                       75060020
                                    1180+*  ENTPTR ENTRY                                                         75150020
 00075A 5821 0008      00008        1181+DE500  L     R2,8(R1)      LOAD INPUT DICT POINTER                      75240020
 00075E 58F0 C20C      00218        1182+       L     R15,DLDINC     MAKE SURE ENTRY IS IN CORE                  75330020
 000762 05EF                        1183+       BALR  R14,R15        SETS R2= DICT. ADDR.                        75420020
 000764 58F0 C294      002A0        1184+       L     R15,DS15      *                                            75510020
                                    1185+*  TEST IF CODE FOR ENTRY IN DICT.                                      75600020
 000768 91C0 2000      00000        1186+       TM    0(R2),DMPFXT   TEST ENTRY PREFIX                           75690020
 00076C 4780 F144      0077C        1187+         BC    ZERO,DE520     ZERO IF NO CODE                           75780020
 000770 4740 F140      00778        1188+         BC    MIXED,DE510                                              75870020
 000774 4122 0003      00003        1189+       LA    R2,3(R2)      DOUBLE CODE, ADD 3 TO DICT REFER.            75960020
 000778 4122 0003      00003        1190+DE510  LA    R2,3(R2)      SINGLE CODE                                  76050020
 00077C 4371 0004      00004        1191+DE520  IC    R7,4(R1)       ATTRIB. CNT                                 76140020
 000780 5891 0000      00000        1192+       L     R9,0(R1)       A(BCD NAME)                                 76230020
 000784 43B9 0000      00000        1193+       IC    R11,0(R9)     NAME CNT                                     76320020
                                    1194+*  STORE ENTRY IN DICT.                                                 76410020
 000788 44B0 C2F6      00302        1195+       EX    R11,DMOVE     STORE NAME                                   76500020
 00078C 4122 B001      00001        1196+       LA    R2,1(R2,R11)   UPDATE DICT REF                             76590020
 000790 0670                        1197+       BCTR  R7,R0                                                      76680020
 000792 5891 0004      00004        1198+       L     R9,4(R1)       A(ATTRIB)                                   76770020
 000796 4470 C2F6      00302        1199+       EX    R7,DMOVE       STORE ATTRIB                                76860020
                                    1200+*    REG 1 IS NOT RESTORED                                              76950020
 00079A 982B C258      00264        1201+       LM    R2,R11,DRSAVE                                              77040020
 00079E 58E0 C290      0029C        1202+       L     R14,D3SV14    MUST PRECEDE LOAD OF REG12                   77130020
 0007A2 58C0 F174      007AC        1203+       L     R12,D3SV12                                                 77220020
 0007A6 07FE                        1204+       BR    R14                                                        77310020
                                    1205+*                                                                       77400020
                                    1206+*                                                                       77490020
 0007A8 0000000C                    1207+D3RG12   DC    A(PBEG12)                                                77580020
 0007AC                             1208+D3SV12   DS    F                                                        77670020
                                    1209+*                                                                       77760020
1PH1B     IKFCBL1B                                                                                              PAGE   34
-  LOC  OBJECT CODE    ADDR1 ADDR2  STMT   SOURCE STATEMENT                                       ASM 0201 11.03 02/14/15
-
-
                                    1212+******                                                           ****** 78030020
                                    1213+*                                                                     * 78120020
                                    1214+*                           ** DEMORE **                              * 78210020
                                    1215+*                                                                     * 78300020
                                    1216+*                                                                     * 78390020
                                    1217+*      DEMORE--- AN INTERNAL ACCESS SUBROUTINE TO OBTAIN 512          * 78480020
                                    1218+*                BYTES OF CORE FOR A DICTIONARY SECTION.              * 78570020
                                    1219+*                DEMORE CALLS DICSPC IN TAMER TO OBTAIN A             * 78660020
                                    1220+*                NEW SECTION.                                         * 78750020
                                    1221+*                                                                     * 78840020
                                    1222+*      ENTRY REGISTERS--- R6 = ENTRY SIZE.                            * 78930020
                                    1223+*      EXIT  REGISTERS--- R2 = ADDRESS OF NEW SECTION.                * 79020020
                                    1224+*                         R3 = UPDATED DICADR,                        * 79110020
                                    1225+*                            = A(NEW SECTION) + ENTRY SIZE.           * 79200020
                                    1226+*                                                                     * 79290020
                                    1227+*      DEMORE--- UPDATES DICPTR,DLSVAL,AND DICOT TABLE.               * 79380020
                                    1228+*            --- ENTERS A(NEW SECTION) IN DICOT TABLE.                * 79470020
                                    1229+*                                                                     * 79560020
                                    1230+******                                                           ****** 79650020
-
0
 0007B0                             1232+       DS    0F                                                         79830020
                             007B0  1233+DEMORE EQU   *                                                          79920020
 0007B0 5010 C248      00254        1234+       ST    R1,DSTORE                                                  80010020
 0007B4 5040 C24C      00258        1235+       ST    R4,DSTOR1             STORE REGISTERS USED.                80100020
0
                                    1237+*      DEMORE CALLS DICSPC IN TAMER TO OBTAIN A NEW DICTIONARY SECTION. 80280020
 0007B8 90EF C250      0025C        1238+       STM   R14,R15,D33S14        STORE 14,15.                         80370020
 0007BC 41E0 F18E      007C6        1239+       LA    R14,DEMRTA                                                 80460020
 0007C0 58F0 C16C      00178        1240+       L     R15,DTAMM1            LOAD A(DICSPC),STORED BY INTACC.     80550020
 0007C4 05EF                        1241+       BALR  R14,R15               CALL DICSPC.                         80640020
 0007C6 98EF C250      0025C        1242+DEMRTA LM    R14,R15,D33S14                                             80730020
0
                                    1244+***                                                                 *** 80910020
                                    1245+*                                                                     * 81000020
                                    1246+*      REG1 =START ADDRESS OF NEW DICTIONARY SECTION.                 * 81090020
                                    1247+*      REG2 =HIGH ADDRESS =(START+512) OF NEW DICTIONARY SECTION.     * 81180020
                                    1248+*                                                                     * 81270020
                                    1249+***                                                                 *** 81360020
0
 0007CA 5840 C150      0015C        1251+       L     R4,DPARST             LOAD A(COS).                         81540020
 0007CE 5024 01AC      001AC        1252+       ST    R2,DLSVAL-COS(R4)         TOP ADDRESS OF SECTION           81630020
 0007D2 5014 01A8      001A8        1253+       ST    R1,DICADR-COS(R4)                                          81720020
1PH1B     IKFCBL1B                                                                                              PAGE   35
-  LOC  OBJECT CODE    ADDR1 ADDR2  STMT   SOURCE STATEMENT                                       ASM 0201 11.03 02/14/15
00007D6 5810 C150      0015C        1255+       L     R1,DPARST             LOAD A(COS).                         81900020
 0007DA 4111 00AC      000AC        1256+       LA    R1,LDICOT(R1)         LOAD A(DICOT TIB)= A(TIB20).         81990020
 0007DE 58F0 C158      00164        1257+       L     R15,LINSRT            LOAD A(INSERT)                       82080020
 0007E2 05EF                        1258+       BALR  R14,R15               CALL INSERT.                         82170020
 0007E4 58F0 C294      002A0        1259+       L     R15,DS15              RESTORE BASE.                        82260020
                                    1260+*                                  INSERT OUTPUT--REG2 = A(INSERT ENT). 82350020
                                    1261+*                                                 REG3 = TABLE DISPL.   82440020
 0007E8 5840 C150      0015C        1262+       L     R4,DPARST                                                  82530020
 0007EC 5844 01A8      001A8        1263+       L     R4,DICADR-COS(R4)                                          82620020
 0007F0 5042 0000      00000        1264+       ST    R4,0(R2)              STORE SECTION ADDRESS IN DICOT TABLE 82710020
 0007F4 9400 2000      00000        1265+       NI    0(R2),0               CLEAR TOP BYTE OF DICOT ENTRY.       82800020
 0007F8 9640 2000      00000        1266+       OI    0(R2),64              SET ON IN-CORE BIT.                  82890020
 0007FC 1824                        1267+       LR    R2,R4                 LOAD SECT. ADD. INTO R2.             82980020
0
                                    1269+****** ACCESS TEMPORARY STORAGE OF NEW SECTION NUMBER IN DICPTR.        83160020
                                    1270+****** SEE DE200. STORE NEWLY ASSIGNED SEC.NO. BEFORE RETURN TO DE210.  83250020
0
 0007FE 5040 C2FC      00308        1272+       ST    R4,DTSAVE                                                  83430020
 000802 5840 C150      0015C        1273+       L     R4,DPARST             LOAD A(COS).                         83520020
 000806 5834 01B0      001B0        1274+       L     R3,DICPTR-COS(R4)                                          83610020
                                    1275+*                                                                       83700020
                                    1276+*      NOTE- FIRST SECTION NUMBER ASSIGNED IS 1.                        83790020
                                    1277+*            DINCOR SUBTRACTS 1 TO OBTAIN CORRECT DICOT TABLE DISPL.    83880020
                                    1278+*                                                                       83970020
 00080A 5430 C2A8      002B4        1279+       N     R3,DMSECT             MASK OUT ALL BUT SECT.NUMBER.        84060020
 00080E 4133 0200      00200        1280+       LA    R3,512(R3)            INCREMENT SECTION NUMBER.            84150020
 000812 5034 01B0      001B0        1281+       ST    R3,DICPTR-COS(R4)                                          84240020
                                    1282+******                                                                  84330020
                                    1283+****** END OF DICPTR STORAGE CODING. NEW SECTION DISPLACEMENT IS ZERO.  84420020
0
 000816 5840 C2FC      00308        1285+       L     R4,DTSAVE             RESTORE R4.                          84600020
 00081A 4132 6000      00000        1286+       LA    R3,0(R2,R6)           LOAD UPDATED DICT.ADDR. INTO R3.     84690020
                                    1287+*                                  R2 = ADDRESS OF NEW SECTION.         84780020
                                    1288+*                                  R6 =  ENTRY SIZE,FROM DE200 SEQUENCE 84870020
 00081E 5840 C24C      00258        1289+       L     R4,DSTOR1                                                  84960020
 000822 5810 C248      00254        1290+       L     R1,DSTORE                                                  85050020
 000826 47F0 F0A6      006DE        1291+       BC    15,DE210              RETURN TO DE210 WITH NEW DICADR.     85140020
0
                                    1293+**     NOTE- DEMORE IS NOT CALLED BY A BALR 14,15  SEQUENCE.            85320020
                                    1294+**           IT IS CALLED BY A DIRECT BRANCH FROM DEMORG+4.             85410020
                                    1295+**           ITS BASE REGISTER IS THUS THE BASE OF THE CALLING          85500020
                                    1296+**           ROUTINE. ITS DATA BASE REGISTER IS THAT OF CALLING ROUTINE 85590020
                                    1297+**           DEMORE USES ONLY REGISTERS 2 AND 4 INTERNALLY.             85680020
                                    1298+**           IT SAVES AND RESTORES THESE.                               85770020
1PH1B     IKFCBL1B                                                                                              PAGE   36
-  LOC  OBJECT CODE    ADDR1 ADDR2  STMT   SOURCE STATEMENT                                       ASM 0201 11.03 02/14/15
1PH1B     IKFCBL1B                                                                                              PAGE   37
-  LOC  OBJECT CODE    ADDR1 ADDR2  STMT   SOURCE STATEMENT                                       ASM 0201 11.03 02/14/15
0                                   1301+*    ACCESS ROUTINE 'ENTDEL'                                            86040020
                                    1302+*       SEPARATE ENTRY POINT                                            86130020
                                    1303+*       STORES DELIMITER IN DICT ENTRY FOR INPUT GROUP NAME             86220020
                                    1304+*       INPUT   REG1=A(INPUT DATA)                                      86310020
                                    1305+*                                                                       86400020
 00082C                             1306+         DS    0F                                                       86490020
                             0082C  1307+ENTDEL   EQU   *                                                        86580020
                             0082C  1308+       USING *,R15                                                      86670020
 00082C 50C0 F048      00874        1309+       ST    R12,D4SV12                                                 86760020
 000830 58C0 F044      00870        1310+       L     R12,D4RG12    REG12 IS USED TO REFER. CONSTANTS ETC        86850020
 000834 90EF C290      0029C        1311+       STM   R14,R15,D4SV14                                             86940020
 000838 5020 C2B4      002C0        1312+       ST    R2,DWORK                                                   87030020
 00083C 5821 0000      00000        1313+       L     R2,0(R1)                                                   87120020
 000840 58F0 C20C      00218        1314+       L     R15,DLDINC                                                 87210020
 000844 05EF                        1315+       BALR  R14,R15                                                    87300020
 000846 58F0 C294      002A0        1316+       L     R15,D4SV15                                                 87390020
 00084A 9180 2000      00000        1317+       TM    0(R2),DMPFT1                                               87480020
 00084E 4780 F02A      00856        1318+         BC    ZERO,DENT1                                               87570020
 000852 4122 0003      00003        1319+       LA    R2,3(R2)       UPDATE PAST HASH CODE                       87660020
                                    1320+*     DEBUG CODING  MAKE SURE GROUP CODE IS PRESENT                     87750020
                             00856  1321+DENT1    EQU   *                                                        87840020
 000856 D402 2000 C2EC 00000 002F8  1322+       NC    0(3,R2),DMDLM ZERO OUT DELIM PART OF GRP CODE.  11/23      87930020
                                    1323+*        THIS CLEARS DELIM PART IN CASE OF PREVIOUS DUMMY DELIM NTRY.   88020020
 00085C D602 2000 1005 00000 00005  1324+       OC    0(3,R2),5(R1)  INSERT DELIMITER INTO ENTRY                 88110020
 000862 5820 C2B4      002C0        1325+       L     R2,DWORK                                                   88200020
 000866 58E0 C290      0029C        1326+       L     R14,D4SV14     PRECEDES LOAD OF REG13                      88290020
 00086A 58C0 F048      00874        1327+       L     R12,D4SV12                                                 88380020
 00086E 07FE                        1328+       BCR   UNCOND,R14                                                 88470020
                                    1329+*                                                                       88560020
 000870 0000000C                    1330+D4RG12   DC    A(PBEG12)                                                88650020
 000874                             1331+D4SV12   DS    F                                                        88740020
                                    1332+*                                                                       88830020
1PH1B     IKFCBL1B                                                                                              PAGE   38
-  LOC  OBJECT CODE    ADDR1 ADDR2  STMT   SOURCE STATEMENT                                       ASM 0201 11.03 02/14/15
-
-
                                    1335 *                                                                       01500021
                                    1336 *                                                                       01510021
                             00190  1337 NUMVRB EQU   DATE+4-COS                                                 01520021
                             00194  1338 NUMCDS EQU   DATE+8-COS                                                 01530021
                             0012C  1339 PRIME  EQU   APRIME-COS                                                 01540021
                             00130  1340 INSERT EQU   AINSRT-COS                                                 01550021
                             00134  1341 STATIC EQU ADSTAT-COS                                                   01560021
                             00138  1342 TABREL EQU  RELADD-COS                                                  01570021
                             0013C  1343 TAMEIN EQU   TAMNAD-COS                                                 01580021
                             0016E  1344 CKPTCT EQU   CKPCTR-COS                                                 01590021
                             00172  1345 SBLOMA EQU   SBLOMX-COS                                                 01600021
                             00174  1346 VLCOMA EQU   VLCOMX-COS                                                 01610021
                             00176  1347 SBLIMA EQU   SBLIMX-COS                                                 01620021
                             00178  1348 VLCIMA EQU   VLCIMX-COS                                                 01630021
                             001B4  1349 RPTSV1 EQU   RPTSAV-COS                                                 01640021
                             00044  1350 CMTLNG EQU   68                         LENGTH OF COMTBL ENTRY          01650021
                                    1351 *                                                                       01660021
                                    1352 *      FOLLOWING ARE REGISTER EQUATES FOR TAMER.                        01670021
                                    1353 *                                                                       01680021
                                    1354 *                                                                       01690021
                                    1355 ******    GENERAL REGISTER SYMBOLIC EQU'S    ******                     01700021
                                    1356 *                                                                       01710021
                             00001  1357 JA     EQU   1                                                          01720021
                             00002  1358 JB     EQU   2                                                          01730021
                             00003  1359 JC     EQU   3                                                          01740021
                             00004  1360 JD     EQU   4                                                          01750021
                             00005  1361 JE     EQU   5                                                          01760021
                             00006  1362 JF     EQU   6                                                          01770021
                             00007  1363 JG     EQU   7                                                          01780021
                             00008  1364 JH     EQU   8                                                          01790021
                             00009  1365 JJ     EQU   9                                                          01800021
                             0000A  1366 JK     EQU   10                                                         01810021
                             0000B  1367 JL     EQU   11                                                         01820021
                             0000C  1368 JM     EQU   12                                                         01830021
                             0000D  1369 JN     EQU   13                                                         01840021
                             0000E  1370 JP     EQU   14                                                         01850021
                             0000F  1371 JQ     EQU   15                                                         01860021
                             00000  1372 JR     EQU   0                                                          01870021
                                    1373 *                                                                       01880021
                             00000  1374 R0         EQU   0                                                      01890021
                             00001  1375 R1         EQU   1                                                      01900021
                             00002  1376 R2         EQU   2                                                      01910021
                             00003  1377 R3         EQU   3                                                      01920021
                             00004  1378 R4         EQU   4                                                      01930021
                             00005  1379 R5         EQU   5                                                      01940021
                             00006  1380 R6         EQU   6                                                      01950021
                             00007  1381 R7         EQU   7                                                      01960021
                             00008  1382 R8         EQU   8                                                      01970021
                             00009  1383 R9         EQU   9                                                      01980021
1PH1B     IKFCBL1B                                                                                              PAGE   39
-  LOC  OBJECT CODE    ADDR1 ADDR2  STMT   SOURCE STATEMENT                                       ASM 0201 11.03 02/14/15
0                            0000A  1384 R10        EQU   10                                                     01990021
                             0000B  1385 R11        EQU   11                                                     02000021
                             0000C  1386 R12        EQU   12                                                     02010021
                             0000D  1387 R13        EQU   13                                                     02020021
                             0000E  1388 R14        EQU   14                                                     02030021
                             0000F  1389 R15        EQU   15                                                     02040021
                                    1390 *                                                                       02050021
                             00000  1391 FJR    EQU 0                                                            02060021
                             00002  1392 FJB    EQU 2                                                            02070021
                             00004  1393 FJD    EQU 4                                                            02080021
                             00006  1394 FJF    EQU 6                                                            02090021
                                    1395 *                                                                       02100021
                                    1396 *   STANDARD EQUATES FOR BC INSTRUCTIONS                                02110021
                                    1397 *                                                                       02120021
                             0000F  1398 UNCOND EQU   15                                                         02130021
                             00002  1399 HI     EQU   2                                                          02140021
                             00004  1400 LO     EQU   4                                                          02150021
                             00008  1401 EQ     EQU   8                                                          02160021
                             00008  1402 EQUAL  EQU   8                                                          02170021
                             0000D  1403 NOTHI  EQU   13                                                         02180021
                             0000B  1404 NOTLO  EQU   11                                                         02190021
                             00007  1405 NOTEQ  EQU   7                                                          02200021
                             00001  1406 OV     EQU   1                                                          02210021
                             00002  1407 POS    EQU   2                                                          02220021
                             00004  1408 NEG    EQU   4                                                          02230021
                             00008  1409 ZERO   EQU   8                                                          02240021
                             0000E  1410 NOTOV  EQU   14                                                         02250021
                             0000D  1411 NOTPOS EQU   13                                                         02260021
                             0000B  1412 NOTNEG EQU   11                                                         02270021
                             00007  1413 NOTZER EQU   7                                                          02280021
                             00001  1414 ONES   EQU   1                                                          02290021
                             00004  1415 MIXED  EQU   4                                                          02300021
                             0000E  1416 NOTONE EQU   14                                                         02310021
                             0000B  1417 NOTMXD EQU   11                                                         02320021
                             00000  1418 NOP    EQU   0                                                          02330021
                                    1419 *                                                                       02340021
                             00048  1420 WORKA    EQU   72                  19F - WORKAREA FOR FLOPNT RTN        02350021
                             00050  1421 WORKA2   EQU   80                                                       02360021
                             00058  1422 WORKA3   EQU   88                                                       02370021
                             00060  1423 WORKB    EQU   96                                                       02380021
                             00080  1424 SVREG2   EQU   128                                                      02390021
                             00088  1425 SYGNSW   EQU   136                                                      02400021
                             00089  1426 FLTEXP   EQU   137                                                      02410021
                             0008A  1427 MANDEC   EQU   138                                                      02420021
                             0008C  1428 MANINT   EQU   140                                                      02430021
                             0008E  1429 MANLEN   EQU   142                                                      02440021
                             00090  1430 TOTLNG   EQU   144                                                      02450021
                             00092  1431 RESDEC   EQU   146                                                      02460021
                                    1432 *                                                                       02470021
                                    1433 *                                                                       02480021
1PH1B     IKFCBL1B                                                                                              PAGE   40
-  LOC  OBJECT CODE    ADDR1 ADDR2  STMT   SOURCE STATEMENT                                       ASM 0201 11.03 02/14/15
0                                   1435 *=1    ENTRY TO PHASE 1 - HOUSEKEEPING            ID                    02500021
 000878                             1436 IKF101 CSECT                                                            02510021
 000878                             1437 PH1B   DS    0H                                                         02520021
                             00878  1438 IKFCBL1B EQU   PH1B                                                     02530021
 000878 90EC D00C      0000C        1439 DUMTST   STM   JP,JM,DX12(JN)  SAVE REGISTERS IN PH0 SAVE AREA          02540021
 00087C                             1440        CNOP  0,4                                                        02550021
 00087C 182D                        1441        LR    JB,JN             SAVE ADDR OF PH0 SAVE AREA IN R2         02560021
 00087E 05F0                        1442        BALR  JQ,JR                 LOAD BASE REGISTER                   02570021
 000880 47FF 0008      00008        1443          BC    R15,DX8(JQ)         BRANCH AROUND ADCON                  02580021
 000884 000008A0                    1444        DC    A(PH1SAV)             BEGINNING OF RESERVE AREA            02590021
 000888 58DF 0004      00004        1445          L     JN,DX4(JQ)      SET R13 TO ADDR OF PHASE  SAVE AREA      02600021
 00088C 50ED 000C      0000C        1446          ST    JP,DX12(JN)     SAVE SYSTEM RETURN ADR IN PHASE SV AR    02610021
 000890 502D 0004      00004        1447          ST    JB,DX4(JN)       PUT PTR TO PH0 SV AREA IN PHASE SV A    02620021
 000894 50D2 0008      00008        1448          ST    JN,DX8(JB)       PUT PTR TO PHASE SV AREA IN PH0 SV A    02630021
                                    1449 *=2         BASE REG ASSIGN + LOAD FOR COMMON ROUTINES AND AREAS        02640021
                             008A0  1450        USING PH1SAV,JN                                                  02650021
                             01660  1451        USING IDDIV1,JM                                                  02660021
                             01F68  1452        USING GETWD,JL                                                   02670021
                             024C8  1453        USING COBWRD,JK                                                  02680021
 000898 47FD 0094      00094        1454          BC    UNCOND,DX148(JN)    BRANCH AROUND SAVE AREA              02690021
                                    1455 *                                                                       02700021
                                    1456 *  THE FOLLOWING 148 BYTES ARE RESERVED AREA UNDER REG13                02710021
                                    1457 *                                                                       02720021
                                    1458 *            * * * D O    N O T    D I S T U R B * * *                  02730021
                                    1459 *                                                                       02740021
 0008A0                             1460 PH1SAV DS    0D                                                         02750021
 0008A0                             1461        DS    37F              18F - SAVE AREA FOR PH0                   02760021
                                    1462 * WORKA  EQU   72     8         19F - WORK AREA FOR FLOPNT RTN          02770021
                                    1463 * WORKA2 EQU   80     8                                                 02780021
                                    1464 * WORKA3 EQU   88     8                                                 02790021
                                    1465 * WO-KB  EQU   96     32                                                02800021
                                    1466 * SVREG2 EQU   128    8                                                 02810021
                                    1467 * SYGNSW EQU   136    1                                                 02820021
                                    1468 * FLTEXP EQU   137    1                                                 02830021
                                    1469 * MANDEC EQU   138    2                                                 02840021
                                    1470 * MANINT EQU   140    2                                                 02850021
                                    1471 * MANLEN EQU   142    2                                                 02860021
                                    1472 * TOTLNG EQU   144    2                                                 02870021
                                    1473 * RESDEC EQU   146    2                                                 02880021
                                    1474 *                                                                       02890021
 000934 58C0 D368      00C08        1475        L     JM,HSKP1                                                   02900021
 000938 58B0 C014      01674        1476        L     JL,HSKP2                                                   02910021
 00093C 58A0 C020      01680        1477        L     JK,ACBW                                                    02920021
 000940 58F0 C028      01688        1478        L     JQ,GETADR                  SET-UP BASE REGS                02930021
 000944 5890 C01C      0167C        1479        L     JJ,GTD1                    FOR GET-WORD AND GET-CARD R     02940021
 000948 901F D658      00EF8        1480        STM   JA,JQ,SAVREG                  ROUTINES                     02950021
                                    1481 *                                                                       02960021
 00094C 5811 0000      00000        1482          L     JA,DX0(JA)                  GET COS ADDR FROM CONTROL    02970021
 000950 5010 C6B0      01D10        1483        ST    JA,COSADR                   STORE COS ADDR                 02980021
 000954 5820 C6B4      01D14        1484        L     JB,ACCADR                   GET ADDR IN ACCESS OF DPAR     02990021
 000958 5012 0000      00000        1485          ST    JA,DX0(JB)                  STORE COS ADDR IN DPARST     03000021
 00095C D213 C6B8 112C 01D18 0012C  1486          MVC   ADPRIM(LX20),APRIME                                      03010021
 000962 45E0 D248      00AE8        1487        BAL   JP,NORPRC             PRIME TABLES                         03020021
                                    1488 *                                                                       03030021
                                    1489 *=2         INITIALIZE ACCESS                                           03040021
1PH1B     IKFCBL1B                                                                                              PAGE   41
-  LOC  OBJECT CODE    ADDR1 ADDR2  STMT   SOURCE STATEMENT                                       ASM 0201 11.03 02/14/15
0000966 58F0 C6CC      01D2C        1490        L     JQ,ADINAC                  INITIALIZE ACCESS               03050021
 00096A 05EF                        1491        BALR  JP,JQ                 INITIALZE ACCESS                     03060021
 00096C 5820 C6B0      01D10        1492        L     JB,COSADR                                                  03070021
                                    1493 *       L    JA,PARAPP                                                  03080021
                                    1494 *       AR   JA,JB                                                      03090021
                                    1495 *       ST   JA,PARAPP                                                  03100021
 000970 5810 C704      01D64        1496        L     JA,PARPIO                                                  03110021
 000974 1A12                        1497        AR    JA,JB                                                      03120021
 000976 5010 C704      01D64        1498        ST    JA,PARPIO                                                  03130021
 00097A 5810 C708      01D68        1499        L     JA,PARCKP                                                  03140021
 00097E 1A12                        1500        AR    JA,JB                                                      03150021
 000980 5010 C708      01D68        1501        ST    JA,PARCKP                                                  03160021
 000984 5810 C70C      01D6C        1502        L     JA,PAROD2                                                  03170021
 000988 1A12                        1503        AR    JA,JB                                                      03180021
 00098A 5010 C70C      01D6C        1504        ST    JA,PAROD2                                                  03190021
 00098E 5810 C710      01D70        1505        L     JA,PARFNT                                                  03200021
 000992 1A12                        1506        AR    JA,JB                                                      03210021
 000994 5010 C710      01D70        1507        ST    JA,PARFNT                                                  03220021
 000998 5810 C714      01D74        1508        L     JA,PARRCD                                                  03230021
 00099C 1A12                        1509        AR    JA,JB                                                      03240021
 00099E 5010 C714      01D74        1510        ST    JA,PARRCD                                                  03250021
 0009A2 5810 C718      01D78        1511        L     JA,PARSPN                                                  03260021
 0009A6 1A12                        1512        AR    JA,JB                                                      03270021
 0009A8 5010 C718      01D78        1513        ST    JA,PARSPN                                                  03280021
 0009AC 5810 C724      01D84        1514        L     JA,PARTOT                                                  03290021
 0009B0 1A12                        1515        AR    JA,JB                                                      03300021
 0009B2 5010 C724      01D84        1516        ST    JA,PARTOT                                                  03310021
 0009B6 5810 C734      01D94        1517        L     JA,RNMTB                                                   03320021
 0009BA 1A12                        1518        AR    JA,JB                                                      03330021
 0009BC 5010 C734      01D94        1519        ST    JA,RNMTB                                                   03340021
 0009C0 5810 C738      01D98        1520        L     JA,RWRTB                                                   03350021
 0009C4 1A12                        1521        AR    JA,JB                                                      03360021
 0009C6 5010 C738      01D98        1522        ST    JA,RWRTB                                                   03370021
 0009CA 5810 C73C      01D9C        1523        L     JA,ROUTB                                                   03380021
 0009CE 1A12                        1524        AR    JA,JB                                                      03390021
 0009D0 5010 C73C      01D9C        1525        ST    JA,ROUTB                                                   03400021
 0009D4 5810 C740      01DA0        1526        L     JA,DETTB                                                   03410021
 0009D8 1A12                        1527        AR    JA,JB                                                      03420021
 0009DA 5010 C740      01DA0        1528        ST    JA,DETTB                                                   03430021
 0009DE 5810 C6EC      01D4C        1529        L     JA,PARQLT                                                  03440021
 0009E2 1A12                        1530        AR    JA,JB                                                      03450021
 0009E4 5010 C6EC      01D4C        1531        ST    JA,PARQLT                                                  03460021
                             04398  1532        USING PDSCN,JQ                                                   03470021
                             05300  1533        USING EXHSVB,JJ                                                  03480021
 0009E8 58F0 C024      01684        1534        L     JQ,PRODIV                  ADDR OF PDSCN                   03490021
 0009EC 9102 21D3      001D3        1535        TM    PH1BYTE-COS(JB),EOPPH1    IS IT EOP                        03500021
 0009F0 4710 9C20      05F20        1536        BO    PRGEND                    NO CARDS TO BE PROCESSED IN      03510021
                                    1537        DROP  JJ                                                         03520021
                                    1538        DROP  JQ                                                         03530021
 0009F4 5810 C6E8      01D48        1539        L     JA,PARP1B                                                  03540021
 0009F8 1A12                        1540        AR    JA,JB                                                      03550021
 0009FA 5010 C6E8      01D48        1541        ST    JA,PARP1B                                                  03560021
 0009FE 45E0 B54C      024B4        1542        BAL   JP,TBLNIT                 GET ADDR OF TBL                  03570021
 000A02 1821                        1543        LR    JB,JA                                                      03580021
 000A04 58F0 C028      01688        1544        L     JQ,GETADR                                                  03590021
1PH1B     IKFCBL1B                                                                                              PAGE   42
-  LOC  OBJECT CODE    ADDR1 ADDR2  STMT   SOURCE STATEMENT                                       ASM 0201 11.03 02/14/15
0                            03180  1545        USING UNLVSN,JQ                                                  03600021
 000A08 D27A D468 2002 00D08 00002  1546          MVC   SVCPCK(LX123),DX2(JB)                                    03610021
 000A0E D257 C7DC 207D 01E3C 0007D  1547          MVC   SIDMOV(LX88),DX125(JB)                                   03620021
 000A14 D201 D27C 20D5 00B1C 000D5  1548          MVC   SOCMSW(LX2),DX213(JB)                                    03630021
 000A1A D203 F338 2149 034B8 00149  1549          MVC   SVF4PTR(LX4),DX329(JB)   GET FILE 4 PTR                  03640021
 000A20 D200 D27B 2151 00B1B 00151  1550          MVC   RPTWSW(LX1),DX337(JB)                                    03650021
 000A26 9401 D27B      00B1B        1551          NI    RPTWSW,XX01                                              03660021
 000A2A D200 D281 2152 00B21 00152  1552          MVC   TOTUSD(LX1),DX338(JB)                                    03670021
 000A30 9480 D281      00B21        1553          NI    TOTUSD,XX80                                              03680021
 000A34 D201 D296 2153 00B36 00153  1554          MVC   TEMPSW(LX2),DX339(JB)                                    03690021
 000A3A D203 D283 2155 00B23 00155  1555          MVC   REPSW(LX4),DX341(JB)       RESTORE COPYR SWS FOR 1B      03700021
 000A40 D24F D410 2159 00CB0 00159  1556          MVC   COMWK2(LX80),DX345(JB)     RESTORE DBL BUF IN COPYR      03710021
                                    1557 *          NOTE BYTES 425 THRU 426 ARE NOT USED                         03720021
                                    1558 *                                                                       03730021
                                    1559 * NOTE BYTES 427 THRU 432 ARE NOT USED                                  03740021
                                    1560 *                                                                       03750021
 000A46 D201 D4F3 21B1 00D93 001B1  1561          MVC   TWOTRE(LX2),DX433(JB)      RESTORE 2 BYTES IN COL 72     03760021
 000A4C D200 D27F 21B3 00B1F 001B3  1562          MVC   FRGNSW(LX1),DX435(JB)      RESTORE FOREIGN SW            03770021
 000A52 9101 D27F      00B1F        1563          TM    FRGNSW,XX01           TEST FRGNSW                        03780021
 000A56 4780 D1BE      00A5E        1564          BZ    *+8                  BRANCH IF ZERO                      03790021
 000A5A 926B C4F0      01B50        1565          MVI   KDECML,XX6B           MOVE A COMMA                       03800021
 000A5E D20B D668 F560 00F08 036E0  1566          MVC   SAVREG+NX16(LX12),SETREG  SET UP REGS FOR GETWD          03810021
 000A64 4110 C7E5      01E45        1567          LA    JA,SIDEWK+NX7             ADDR OF SIDWK +7               03820021
 000A68 5010 D778      01018        1568        ST    JA,FINDSV                  INITIALIZE FINDSV               03830021
 000A6C 9101 D27B      00B1B        1569          TM    RPTWSW,XX01              WAS THERE A REPORT SECTION      03840021
 000A70 4780 D1E6      00A86        1570        BC    ZERO,PH1BBB               NO...CONTINUE                    03850021
 000A74 D20B AA1B D4E3 02EE3 00D83  1571          MVC   LCTRKN(LX12),UBLNK       YES..REMOVE LINE-COUNTER        03860021
 000A7A D20B AA39 D4E3 02F01 00D83  1572          MVC   PCTRKN(LX12),UBLNK           PAGE-COUNTER                03870021
 000A80 D20B AA48 D4E3 02F10 00D83  1573          MVC   PTSWKN(LX12),UBLNK           PRINT-SWITCH FROM CWT       03880021
 000A86                             1574 PH1BBB DS    0H                                                         03890021
                                    1575 *                                                                       03900021
                                    1576 ***        SET UP FOR DOUBLE QUOTE                                      03910021
                                    1577 *                                                                       03920021
 000A86 5810 C6B0      01D10        1578        L     R1,COSADR                  DSECT BASE                      03930021
 000A8A 9104 11A4      001A4        1579        TM    PHZSW1,APOST               SINGLE QUOTE                    03940021
 000A8E 4770 D20E      00AAE        1580        BC    NOTZER,RSTRJQ              YES - SKIP DOUBLE INIT          03950021
 000A92 9207 C459      01AB9        1581          MVI   TBQUT1,XX07               NO SET TRT TAB FOR             03960021
 000A96 9203 C45B      01ABB        1582          MVI   TBQUT2,XX03                 DOUBLE & SINGLE QUOTE        03970021
 000A9A 927F C4E9      01B49        1583          MVI   KQUOTE+NX1,XX7F    MOVE BLANK+DOUBLE QUOTES              03980021
 000A9E 927F A34D      02815        1584        MVI   QUOCON+NX1,XX7F           SINGLE TO DOUBLE QUOTES     9638 03990021
 000AA2 927F A4CD      02995        1585        MVI   QUOSCN+NX1,XX7F           SINGLE TO DOUBLE QUOTES     9638 04000021
 000AA6 927F C261      018C1        1586          MVI   SNGLQ2,XX7F                                              04010021
 000AAA 927F F000      03180        1587          MVI   SNGLQT,XX7F               SINGLE TO DOUBLE               04020021
 000AAE                             1588 RSTRJQ DS    0H                                                         04030021
                                    1589        DROP  JQ                                                         04040021
 000AAE 58F0 C6C4      01D24        1590        L     JQ,ADTREL                                                  04050021
 000AB2 5810 C6E8      01D48        1591        L     JA,PARP1B                                                  04060021
 000AB6 05EF                        1592        BALR  JP,JQ                 RELEASE P1B TABLE                    04070021
                                    1593 *                                                                       04080021
                                    1594 *=2         SETUP AND TEST OF FIRST CARD READ     ID                    04090021
                                    1595 *                                                                       04100021
 000AB8 D209 D2C6 C54E 00B66 01BAE  1596          MVC   DIVNM(LX10),PRO9                                         04110021
                                    1597 **     BAL   14,CHNGQT                  -QUOTE                          04120021
                                    1598 **     BAL   14,CHGFOR                  -DEC  COMMA                     04130021
 000ABE 58F0 C6B0      01D10        1599        L     JQ,COSADR                 COS ADDRESS                      04140021
1PH1B     IKFCBL1B                                                                                              PAGE   43
-  LOC  OBJECT CODE    ADDR1 ADDR2  STMT   SOURCE STATEMENT                                       ASM 0201 11.03 02/14/15
0000AC2 5810 D60C      00EAC        1600        L     JA,ADPB12                  ADDRESS OF START OF PH1B        04150021
 000AC6 050F                        1601        BALR  R0,JQ                 LINK TO PHASE 00                     04160021
 000AC8 06                          1602        DC    X'06'                 READ                                 04170021
                                    1603 *                                                                       04180021
 000AC9 00
 000ACA 58F0 D654      00EF4        1604          L     JQ,SVREG+NX56        LOAD CALLER INTO R15                04190021
                                    1605 *                                                                       04200021
 000ACE D201 C634 D296 01C94 00B36  1606 BASYES   MVC   NXTGCN(LX2),TEMPSW        RESTORE GCN                    04210021
 000AD4 45E0 B000      01F68        1607        BAL   JP,GETWD                   SET UP NEXT CELL                04220021
 000AD8 D201 C634 D296 01C94 00B36  1608          MVC   NXTGCN(LX2),TEMPSW        RESTORE GCN                    04230021
 000ADE 45E0 B000      01F68        1609        BAL   JP,GETWD                   -GETWD    (SET UP CUR CELL)     04240021
 000AE2 45E0 AC38      03100        1610        BAL   JP,GETDLM                  -GETDLM                         04250021
 000AE6 07FF                        1611        BCR   UNCOND,JQ                   -EXIT TO DIVISION IN EFFEC     04260021
                                    1612 *                                                                       04270021
1PH1B     IKFCBL1B                                                                                              PAGE   44
-  LOC  OBJECT CODE    ADDR1 ADDR2  STMT   SOURCE STATEMENT                                       ASM 0201 11.03 02/14/15
0000AE8 50E0 D694      00F34        1614 NORPRC ST    JP,SV1F01                                                  04290021
 000AEC 58F0 C6B8      01D18        1615        L     JQ,ADPRIM                                                  04300021
 000AF0 4110 C6F4      01D54        1616        LA    JA,PARPNM                  PNTABL                          04310021
 000AF4 05EF                        1617        BALR  JP,JQ                            PRIME                     04320021
 000AF6 4110 C6FC      01D5C        1618        LA    JA,PARPQN                  PNQTBL                          04330021
 000AFA 05EF                        1619        BALR  JP,JQ                            PRIME                     04340021
 000AFC 4110 C71C      01D7C        1620        LA    JA,USDECL                  USETBL                    43521 04350021
 000B00 05EF                        1621        BALR  JP,JQ                            PRIME               43521 04360021
 000B02 58F0 C024      01684        1622        L     JQ,PRODIV                  SET BASE REG VALUES             04370021
 000B06 5890 C010      01670        1623        L     JJ,PRODV1                                                  04380021
 000B0A 901F D61C      00EBC        1624        STM   JA,JQ,SVREG                                                04390021
 000B0E 50F0 D890      01130        1625        ST    JQ,LNKR15                  SET-UP LINK REG15 AREA          04400021
 000B12 58E0 D694      00F34        1626        L     JP,SV1F01                  RESTORE LINK REG                04410021
 000B16 07FE                        1627        BCR   UNCOND,JP                   -RETURN                        04420021
                                    1628 *=1    EQUATES                                                          04430021
                                    1629 *                                                                       04440021
                                    1630 ******    DATA AREA FOR PHASE 1    ******                               04450021
                                    1631 *                                                                       04460021
                                    1632 *                                                                       04470021
                                    1633 *=2         SWITCHES                              ID   ENV  DATA PR     04480021
                                    1634 *                                                                       04490021
                                    1635 *                        BIT 0                                          04500021
                                    1636 *                        BIT 1                                          04510021
                                    1637 *                        BIT 2                                          04520021
 000B18                             1638 LINKSW DS    0F          BIT 3     10   EF                              04530021
 000B18                             1639 MSG4SW DS    0F          BIT 4     08   F7                              04540021
 000B18                             1640 MSG1SW DS    0F          BIT 5     04   FB                              04550021
 000B18                             1641 NAMDSW DS    0F          BIT 6     02   FD                              04560021
 000B18                             1642 CFGSW  DS    0F          BIT 7     01   FE                              04570021
 000B18 0000000000000000            1643 SWBYTS DC   5F'0'                      20 BYTES FOR SWITCHES            04580021
                             00B19  1644 IOSW   EQU   SWBYTS+1    BIT 0                                          04590021
                             00B19  1645 SCHSW  EQU   SWBYTS+1    BIT 1                                          04600021
                             00B19  1646 RCMDSW EQU   SWBYTS+1    BIT 2     20   DF                              04610021
                             00B19  1647 RCDSW  EQU   SWBYTS+1    BIT 3                                          04620021
                             00B19  1648 BLKSW  EQU   SWBYTS+1    BIT 4                                          04630021
                             00B19  1649 LBLSW  EQU   SWBYTS+1    BIT 5                                          04640021
                             00B19  1650 DATASW EQU   SWBYTS+1    BIT 6                                          04650021
                             00B19  1651 RPTSW  EQU   SWBYTS+1    BIT 7                                          04660021
                                    1652 *                                                                       04670021
                             00B1A  1653 FDMSW  EQU   SWBYTS+2    BIT 0                                          04680021
                             00B1A  1654 QUALSW EQU   SWBYTS+2    BIT 1                                          04690021
                             00B1A  1655 INSRSW EQU   SWBYTS+2    BIT 2                                          04700021
                             00B1A  1656 OD2SW  EQU   SWBYTS+2    BIT 3                                          04710021
                             00B1A  1657 DHDRSW EQU   SWBYTS+2    BIT 4     08   F7                              04720021
                             00B1A  1658 PRDSW  EQU   SWBYTS+2    BIT 5     04   FB                              04730021
                             00B1A  1659 FSTLHN EQU   SWBYTS+2    BIT 6     02   FD                              04740021
                             00B1A  1660 PLHNSW EQU   SWBYTS+2    BIT 7     01   FE                              04750021
                                    1661 *                                                                       04760021
                             00B1B  1662 DSQLSW EQU   SWBYTS+3    BIT 0     80   7F                              04770021
                             00B1B  1663 QLPNSW EQU   SWBYTS+3    BIT 1     40   BF                              04780021
                             00B1B  1664 LCRDSW EQU   SWBYTS+3    BIT 2     20   DF                              04790021
                             00B1B  1665 DEBGSW EQU   SWBYTS+3    BIT 3     10   EF                              04800021
                             00B1B  1666 MSGPSW EQU   SWBYTS+3    BIT 4     08   F7   STOPS ERROR MSGS           04810021
                             00B1B  1667 REWRSW EQU   SWBYTS+3    BIT 5     04   FB                              04820021
                             00B1B  1668 DATCSW EQU   SWBYTS+3    BIT 6     02   FD                              04830021
1PH1B     IKFCBL1B                                                                                              PAGE   45
-  LOC  OBJECT CODE    ADDR1 ADDR2  STMT   SOURCE STATEMENT                                       ASM 0201 11.03 02/14/15
0                            00B1B  1669 RPTWSW EQU   SWBYTS+3    BIT 7     01   FE                              04840021
                                    1670 *                                                                       04850021
                             00B1C  1671 SOCMSW EQU   SWBYTS+4    BIT 0     80   7F                              04860021
                             00B1C  1672 COPYSW EQU   SWBYTS+4    BIT 1     40   BF   COPY-LIBRARY IN ACTION     04870021
                             00B1C  1673 BASISW EQU   SWBYTS+4    BIT 2     20   DF   IN BASIS LIBRARY           04880021
                             00B1C  1674 BGNDSW EQU   SWBYTS+4    BIT 3     10   EF       BEGIN AND ENDING       04890021
                             00B1C  1675 DEBEOS EQU   SWBYTS+4    BIT 4     08   F7   STOPS EOSGEN ON DEBUG      04900021
                             00B1C  1676 DEBULS EQU   SWBYTS+4    BIT 5     04   FB   STOPS ULSCAN FOR *DEBU     04910021
                             00B1C  1677 FXCDSW EQU   SWBYTS+4    BIT 6     02   FD   INDICATES 1ST CARD REA     04920021
                             00B1C  1678 CPYXSW EQU   SWBYTS+4    BIT 7     01   FE   COPY STATEMENT FOUND       04930021
                                    1679 *                                                                       04940021
                             00B1D  1680 INDLSW EQU   SWBYTS+5    BIT 0     80   7F   LOOK FOR INSERT/DELETE     04950021
                             00B1D  1681 INSTSW EQU   SWBYTS+5    BIT 1     40   BF   CARDS TO BE INSERTED       04960021
                             00B1D  1682 INDERR EQU   SWBYTS+5    BIT 2     20   DF   INS/DEL ERROR MSG WENT     04970021
                             00B1D  1683 INOWSW EQU   SWBYTS+5    BIT 3     10   EF   INSERT IN PROGRESS         04980021
                             00B1D  1684 DELSW1 EQU   SWBYTS+5    BIT 4     08   F7   DELETE CARD                04990021
                             00B1D  1685 DELSW2 EQU   SWBYTS+5    BIT 5     04   FB   DELETE THRU CARD           05000021
                             00B1D  1686 DELSW3 EQU   SWBYTS+5    BIT 6     02   FD   DELETE THRU IN PROGRES     05010021
                             00B1D  1687 CPYCSW EQU   SWBYTS+5    BIT 7     01   FE   COPY CHECK FROM CUR CE     05020021
                                    1688 *                                                                       05030021
                             00B1E  1689 SYSISW EQU   SWBYTS+6    BIT 0     80   7F   SYSIN                      05040021
                             00B1E  1690 SYSOSW EQU   SWBYTS+6    BIT 1     40   BF   SYSOUT                     05050021
                             00B1E  1691 SYSPSW EQU   SWBYTS+6    BIT 2     20   DF   SYSPUNCH                   05060021
                             00B1E  1692 SYSCSW EQU   SWBYTS+6    BIT 3     10   EF   CONSOLE                    05070021
                             00B1E  1693 DUPMSG EQU   SWBYTS+6    BIT 4     08   F7   SP-NAMES DUP MSG           05080021
                             00B1E  1694 FD01SW EQU   SWBYTS+6    BIT 5     04   FB   FD WAS LAST FILE-SCT L     05090021
                             00B1E  1695 NOTESW EQU   SWBYTS+6    BIT 6     02   FD   IN A NOTE IN P.D.          05100021
                             00B1E  1696 REDFSW EQU   SWBYTS+6    BIT 7     01   FE   NOT 1ST TIME THRU LEVE     05110021
                                    1697 *                                                                       05120021
                             00B1F  1698 NOLHSW EQU   SWBYTS+7    BIT 0     80   7F   NOT PRECEDED BY LHN-NO     05130021
                             00B1F  1699 IOCSW  EQU   SWBYTS+7    BIT 1     40   BF   I-O-CONTROL                05140021
                             00B1F  1700 LCDXSW EQU   SWBYTS+7    BIT 2     20   DF   LAST CARD DURING INS/D     05150021
                             00B1F  1701 RPORSW EQU   SWBYTS+7    BIT 3     10   EF   REPORTS CLAUSE             05160021
                             00B1F  1702 DMSGSW EQU   SWBYTS+7    BIT 4     08   F7   MSG FOR DELETE CARD        05170021
                             00B1F  1703 SELNSW EQU   SWBYTS+7    BIT 5     04   FB   MSGS FOR SELECT            05180021
                             00B1F  1704 RWLTSW EQU   SWBYTS+7    BIT 6     02   FD   IN RW IN DATA DIV ONLY     05190021
                             00B1F  1705 FRGNSW EQU   SWBYTS+7    BIT 7     01   FE   DECIMAL IS COMMA           05200021
                                    1706 *                                                                       05210021
                             00B20  1707 FRESW  EQU   SWBYTS+8    BIT 0     80   7F   FREE VERB                  05220021
                             00B20  1708 ORGSW  EQU   SWBYTS+8    BIT 1     40   BF   ORGAN                      05230021
                             00B20  1709 RESSW  EQU   SWBYTS+8    BIT 2     20   DF   RESERVE                    05240021
                             00B20  1710 FLTSW  EQU   SWBYTS+8    BIT 3     10   EF   FILE-LIMIT                 05250021
                             00B20  1711 DUMUSE EQU   SWBYTS+8    BIT 4     08   F7   SECTION-NAME FOR USE V     05260021
                             00B20  1712 VALXW  EQU   SWBYTS+8    BIT 5     04   FB   VALUE CLAUSE               05270021
                             00B20  1713 LSTWSW   EQU   SWBYTS+8  BIT 6     02   FD   LAST WORD ON CARD SW       05280021
                             00B20  1714 EOFSW    EQU   SWBYTS+8  BIT 7     01   FE   END OF SOURCE FILE         05290021
                             00B21  1715 TOTUSD EQU   SWBYTS+9    BIT 0     80   7F    TOTALED SPEC'D            05300021
                             00B21  1716 UNARSW EQU   SWBYTS+9    BIT 1     40   BF   UNARY PRECEDES IDENTIF     05310021
                             00B21  1717 ENTSW  EQU   SWBYTS+9    BIT 2     20   DF   ENTRY VERB GENERATED       05320021
                             00B21  1718 USEPDL EQU   SWBYTS+9    BIT 3     10   EF   USE IN  PD FOR LABELS      05330021
                             00B21  1719 USEPDE EQU   SWBYTS+9    BIT 4     08   F7   USE IN   PD FOR ERROR      05340021
                             00B21  1720 SRTSW  EQU   SWBYTS+9    BIT 5     04   FB   SORT SW                    05350021
                             00B21  1721 CRSGSW EQU   SWBYTS+9    BIT 6     02   FD   CURRENCY SIGN SW           05360021
                                    1722 *                                                                       05370021
                             00B23  1723 REPSW  EQU   SWBYTS+11   BIT 4     08   F7   REPLACING IN COPY CL       05380021
1PH1B     IKFCBL1B                                                                                              PAGE   46
-  LOC  OBJECT CODE    ADDR1 ADDR2  STMT   SOURCE STATEMENT                                       ASM 0201 11.03 02/14/15
0                            00B20  1724 DDQSW  EQU   SWBYTS+8    BIT 7     01   FE   QUAL NM IN DATA DIV        05390021
                             00B23  1725 BYSW   EQU   SWBYTS+11   BIT 5     04   FB   BY IN COPY CLAUSE          05400021
                             00B23  1726 WD1SW  EQU   SWBYTS+11   BIT 6     02   FD   OBJECT OF REPLACE-COPY     05410021
                             00B23  1727 WD2SW  EQU   SWBYTS+11   BIT 7     01   FE   OBJECT OF BY IN COPY       05420021
                             00B24  1728 CDSURP EQU   SWBYTS+12   BIT 0     80   7F   SURPRESS GTCARD CALL       05430021
                             00B24  1729 BUF2SW EQU   SWBYTS+12   BIT 1     40   BF   2 TEMP BUFF FOR COP RE     05440021
                             00B24  1730 BUF3SW EQU   SWBYTS+12   BIT 2     20   DF   3 BUF FOR COPY REPLACI     05450021
                             00B24  1731 BUF4SW EQU   SWBYTS+12   BIT 3     10   EF   MORE THAN 3 WK BUF NEE     05460021
                             00B24  1732 CONTSW EQU   SWBYTS+12   BIT 4     08   F7   CONTINUATION ON NXT CD     05470021
                             00B24  1733 CPERSW EQU   SWBYTS+12   BIT 5     04   FB   NO MEMBER IN COPY LIB      05480021
                             00B24  1734 CPYQSW EQU   SWBYTS+12   BIT 6     02   FD   COPY IN 01                 05490021
                             00B24  1735 REPQSW EQU   SWBYTS+12   BIT 7     01   FE   QUALIFIED WD REPLACING     05500021
                             00B25  1736 CON2SW EQU   SWBYTS+13   BIT 0     80   7F   USASIA CONTINUATION        05510021
                             00B25  1737 NWCDSW EQU   SWBYTS+13   BIT 1     40   BF   CONTINUATION OF WD RTN     05520021
                             00B25  1738 SKCDSW EQU   SWBYTS+13   BIT 2     20   DF   SKIP CARD GET IN GETWD     05530021
                             00B25  1739 GTRTSW EQU   SWBYTS+13   BIT 3     10   EF   GETWD CALLED BY GTCD       05540021
                             00B25  1740 LASTSW EQU   SWBYTS+13   BIT 4     08   F7   LAST WD PROC FOR COPYR     05550021
                             00B25  1741 CRCDSW EQU   SWBYTS+13   BIT 5     04   FB   COPY WD NOT ENT RECTBL     05560021
                             00B25  1742 MVLASW EQU   SWBYTS+13   BIT 6     02   FD   LAST CARD HIT IN COPY      05570021
                             00B25  1743 DBRDSW EQU   SWBYTS+13   BIT 7     01   FE   DOUBLE BUFFER IN COP R     05580021
                             00B26  1744 CNRDSW EQU  SWBYTS+14    BIT 0     80   7F   SKIP READ AT END OF CO     05590021
                             00B26  1745 SURPSW EQU   SWBYTS+14   BIT 1     40   BF   SUPPRESS COPY LIB          05600021
                             00B26  1746 BUF5SW EQU   SWBYTS+14   BIT 2     20   DF   4 WK AREA FOR COPYR        05610021
                             00B26  1747 PRIDSW EQU   SWBYTS+14   BIT 3     10   EF   PROG-ID SW                 05620021
                             00B26  1748 LASTSEG EQU SWBYTS+14    BIT 4     08   F7   LAST SEGM IN PROC DIV 8035 05630021
                             00B26  1749 CMNTCDSW EQU SWBYTS+14   BIT 6     02   FD   DELETING COMMENT CARD      05640021
                                    1750 *REPORT WRITER SWITCHES                                                 05650021
 000B2C 00000000                    1751 RWSWB  DC    F'0'                       RW SWITCHES FOR PROC DIV        05660021
                             00B2C  1752 INITSW EQU   RWSWB                      80 -- 7F                        05670021
                             00B2C  1753 GENSW1 EQU   RWSWB                      40                              05680021
                             00B2C  1754 FRSTRD EQU   GENSW1                     40 USED AS FIRST RD             05690021
                             00B2C  1755 GENSW2 EQU   RWSWB                      20                              05700021
                                    1756 *                                                                       05710021
 000B30 00                          1757 QLRTSW DC    X'00'                      QUALIFIED-NAME ROUTINE SWIT     05720021
 000B31 00                          1758 AMARSW DC    X'00'  BIT0-STD WD, 1-BCD NAME, 2-INT-NUM-LIT, O-DECLA     05730021
 000B32 00                          1759 PICTSW DC    X'0'                  PICT SW                              05740021
 000B33 00                          1760 SIGNSW DC    X'00'                 FLO-PT NUMBER SIGN SWITCH            05750021
 000B34 00                          1761 DECSW  DC    X'00'                MUST FOLLOW SIGNSW                    05760021
 000B35 00                          1762 RCDSW1 DC    X'00'           BIT 7 ON IF IN WRITE VERB                  05770021
 000B36 000000                      1763 TEMPSW DC    3X'00'                    AREA FOR WRITE VERB              05780021
                                    1764 *                                                                       05790021
 000B39 00                          1765 VRPNSW DC    X'00'                     40 IF PN FOUND IN PN PNQ TBL     05800021
 000B3A 0000                        1766 DISPJH DC    H'0'                      USED IN SEARCH OF PN/PNQ TBL     05810021
 000B3C 0000                        1767 EOTCP  DC    H'0'                      MUST FOLLOW DISPJH               05820021
 000B3E 0000                        1768 EOTPN  DC    H'0'                  POINTER TO END OF PN TBL (SRCH)      05830021
 000B40 0000000000000000            1769 PNMVS  DC    8F'0'                     MOVE PN OR PNQ FOR ACCESS        05840021
 000B60 00000B40                    1770 ADPNMV DC    AL4(PNMVS)            ADDR OF BCD  (PNMVS)                 05850021
                                    1771 *                                                                       05860021
                                    1772 * SIGNIFICANT NAMES. FIRST BYTE CONTAINS COUNT OF CHARS IN NAME.        05870021
                                    1773 *                                                                       05880021
 000B64 0F                          1774 DIVCOD DC    X'0F'  CODE TO TEST WHICH DIVISION IS IN EFFECT            05890021
 000B65 23                          1775        DC    X'23'                 ERROR PROCESS IN LATER PHASE         05900021
 000B66                             1776 DIVNM  DS    CL31   NAME OF  CURRENT DIVISION                           05910021
 000B85 23                          1777        DC    X'23'                 ERROR PROCESS IN LATER PHASE         05920021
 000B86                             1778 SECTNM DS    CL31   NAME OF  CURRENT SECTION                            05930021
1PH1B     IKFCBL1B                                                                                              PAGE   47
-  LOC  OBJECT CODE    ADDR1 ADDR2  STMT   SOURCE STATEMENT                                       ASM 0201 11.03 02/14/15
0000BA5 23                          1779        DC    X'23'                 ERROR PROCESS IN LATER PHASE         05940021
 000BA6                             1780 PARNM  DS    CL31   NAME OF  CURRENT PARAGRAPH                          05950021
 000BC5 23                          1781        DC    X'23'                 ERROR PROCESS IN LATER PHASE         05960021
 000BC6                             1782 CLSNM  DS    CL31   NAME OF  CURRENT CLAUSE                             05970021
 000BE5 23                          1783        DC    X'23'                 ERROR PROCESS IN LATER PHASE         05980021
 000BE6                             1784 VERBNM DS    CL31   NAME OF  CURRENT VERB                               05990021
                                    1785 *                                                                       06000021
 000C05 000000
 000C08 00001660                    1786 HSKP1   DC   A(IDDIV1)          ***MUST BE IN PH1SAV USING***           06010021
                                    1787 *                                                                       06020021
                                    1788 *=2         E-TEXT MESSAGE PARAM                  ID   ENV  DATA PR     06030021
                                    1789 *                                                                       06040021
 000C0C 000600                      1790 MSGDEF DC    X'000600'             ERROR MESSAGE                        06050021
 000C0F 0000                        1791 MSGNUM DC    X'0000'                    MSG NUMBER                      06060021
 000C11 0000                        1792 MSGGCN DC    X'0000'                    GEN SEQ NUMBER                  06070021
 000C13 01                          1793 MSGSP  DC    X'01'                      SEVERITY - PHASE NUMBER         06080021
 000C14 0000                        1794 EPARNN DC    X'0000'                    E-TEXT PARAM                    06090021
 000C16 0000                        1795 EPARAM DC    X'0000'                    -PARAM                          06100021
 000C18                             1796        DS    CL120                         CONTINUED                    06110021
 000C90 0000000000000000            1797 SECPAR DC    2XL16'0'                   SECOND PARAM                    06120021
                                    1798 *                                                                       06130021
                                    1799 *=2      INPUT-RECORD WORK AREA FOR LISTING                             06140021
                                    1800 *                                                                       06150021
 000CB0                             1801 COMWK2 DS    CL80                       DOUBLE BUF AREA IN COP REPL     06160021
 000D00 001C                        1802 SVCINC DC    X'001C'                    FOR GCN                         06170021
 000D08                             1803        DS    0D                         ALIGN OF SVCPCK FOLLOWING       06180021
 000D08 000000000000000C            1804 SVCPCK DC    X'000000000000000C'        DW FOR PACK OF GCN              06190021
 000D10 0000000000000000            1805 SVCUPK DC    D'0'                       DW FOR UNPACK OF GCN            06200021
                             00D13  1806 SVCGCN EQU   SVCUPK+3                   START OF 5 DIGIT GCN            06210021
 000D18 404040                      1807 SVCTYP DC    X'404040'                  3 BLANKS BETWEEN NUMBERS        06220021
 000D1B 4040404040404040            1808 SVCCRD DC    5CL16' '                   START OF 80 CHAR RECORD         06230021
                             00D19  1809 COMMOV EQU   SVCTYP+1                                                   06240021
                             00D1B  1810 COMWRK EQU   SVCTYP+3                                                   06250021
 000D6B 5CC5D9D9D6D940D5            1811 SVCERR DC    C'*ERROR NO.'         ERROR NUMBER                         06260021
 000D75 4040406B4040405C            1812        DC    C'   ,   *'                                         **     06270021
 000D7D 000000000000                1813 SVCSEQ DC    XL6'00'                    SAVED SEQ NUMBER                06280021
 000D83 4040404040404040            1814 UBLNK  DC    C'                '        16 BLANKS                       06290021
 000D93 4040                        1815 TWOTRE DC    X'4040'                    SAVE AREA TO RESTORE PRINT      06300021
                                    1816 *                                                                       06310021
                                    1817 *=2         FNTBL WORK AREA                                 DATA        06320021
                                    1818 *                                                                       06330021
 000D95 0000000000000000            1819 FNWA   DC    XL17'0'               FN WORK AREA                         06340021
 000DA6                             1820 FNWFN  DS    CL32                      N'1' FN '30'                     06350021
                             00000  1821 FNPIOT EQU   0                          PIOTBL PTR                      06360021
                             00002  1822 FNRPDN EQU   2                          RPD NO                          06370021
                             00004  1823 FNAPPT EQU   4                          APPTBL PTR                      06380021
                             00006  1824 FNGNSE EQU   6                          GN FOR STANDARD ERROR           06390021
                             00008  1825 FNGNHL EQU   8                          GN FOR HEADER LABELS            06400021
                             0000A  1826 FNGNTL EQU   10                         GN FOR TRAILER LABELS           06410021
                             0000C  1827 FNGNEV EQU   12                         GN FOR END OF VOLUME LABELS     06420021
                             0000E  1828 FNGNBV EQU   14                         GN FOR BEG.OF VOLUME LABELS     06430021
                             00DA5  1829 FNFLG1 EQU   FNWA+16               SWITCH                               06440021
                             00010  1830 FNFL1  EQU   16                         FLAG1                           06450021
                             00080  1831 FNACR  EQU   X'80'              1       ACCESS RANDOM                   06460021
                             00040  1832 FNMSF  EQU   X'40'              1       MASS STORAGE FILE               06470021
1PH1B     IKFCBL1B                                                                                              PAGE   48
-  LOC  OBJECT CODE    ADDR1 ADDR2  STMT   SOURCE STATEMENT                                       ASM 0201 11.03 02/14/15
0                            00020  1833 FNLRS  EQU   X'20'              1       LABEL RECORDS STANDARD          06480021
                             00010  1834 FNLRO  EQU   X'10'              1       LABEL RECORDS OMITTED           06490021
                             00008  1835 FNBEF  EQU   X'08'              1      BEFORE IN USE                    06500021
                             00004  1836 FNAFT  EQU   X'04'              1      AFTER IN USE                     06510021
                             00002  1837 FNRDP  EQU   X'02'              1       RECORD PROTECT                  06520021
                             00001  1838 FNPMR  EQU   X'01'              1       PROC MODE RANDOM                06530021
                             00011  1839 FNWFND EQU   17                                                         06540021
                             00056  1840 ENVSIZ EQU   86                                                         06550021
                             00030  1841 FNSIZ  EQU   48                         SIZE OF FNTBL                   06560021
                             00003  1842 PIOSIZ EQU    3                                                         06570021
                                    1843 *        THESE EQUATES ARE USED TO OR INTO PIOTBL                       06580021
                             00000  1844 PIOFL1 EQU   0                                                          06590021
                             00080  1845 PIOOIN EQU   X'80'                      OPEN INPUT                      06600021
                             00040  1846 PIOOOT EQU   X'40'                      OPEN OUTPUT                     06610021
                             00020  1847 PIOOIO EQU   X'20'                      OPEN I-O                        06620021
                             00010  1848 PIOCNR EQU   X'10'                      CLOSE NO REWIND-OS              06630021
                             00008  1849 PIOWAV EQU   X'08'                      WRITE AFTER ADV                 06640021
                             00004  1850 PIOCWL EQU   X'04'                      CLOSE WITH LOCK                 06650021
                             00002  1851 PIOCLS EQU   X'02'                      CLOSE                           06660021
                             00001  1852 PIOREW EQU   X'01'                      REWRITE                         06670021
                             00001  1853 PIOFL2 EQU   1                                                          06680021
                             00080  1854 PIORER EQU   X'80'                      RERUN                           06690021
                             00040  1855 PIOOIR EQU   X'40'                      OPEN INPUT REVERSED             06700021
                             00020  1856 PIOFRE EQU   X'20'                      READ                            06710021
                             00010  1857 PIOWBA EQU   X'10'                      WRITE BEFORE ADV                06720021
                             00008  1858 PIOUSG EQU   X'08'                      USING                           06730021
                             00004  1859 PIOGVG EQU   X'04'                      GIVING                          06740021
                             00002  1860 PIOUSE EQU   X'02'                      USE                             06750021
                             00001  1861 PIOWAP EQU   X'01'                     WRITE AFTER POSITIONING          06760021
                             00002  1862 PIOFL3 EQU   2                                                          06770021
                             00080  1863 PIONST EQU   X'80'                     BEFORE IN USE                    06780021
                             00040  1864 PIOONR EQU   X'40'                     OPEN NO REWIND                   06790021
                             00020  1865 PIOWRT EQU   X'20'                     WRITE                            06800021
                             00010  1866 PIOUSF EQU   X'10'                     USE ON FILENAME                  06810021
                             00008  1867 PIOSTR EQU   X'08'                     START                            06820021
                             00004  1868 PIOINV EQU   X'04'                      INVALID KEY                     06830021
                                    1869 *                                                                       06840021
                                    1870 *=2         PARAM'S AND WORK AREA  FOR PROC DIV                  PR     06850021
                                    1871 *                                                                       06860021
                                    1872 *****    PARAMETER FOR 'ENTNAM' ACCESS ROUTINE    *****                 06870021
                                    1873 *                                                                       06880021
 000DC8                             1874        DS    0F                                                         06890021
 000DC8 00                          1875 NAMCOD DC    X'0'                * LHN CODE - SECT 4,PARA 0             06900021
 000DC9 000E0C                      1876        DC    AL3(LCBCD)         *  ADDRESS OF LHN(BCD NAME)             06910021
 000DCC 06                          1877        DC    X'06'              *  ATTRIBUTES COUNT                     06920021
 000DCD 000E2D                      1878        DC    AL3(LCATRB)         * ADDRESS OF ATTRIBUTES                06930021
                                    1879 *                                                                       06940021
                                    1880 *****    PARAMETER FOR 'ENTDEL' ACCESS ROUTINE    *****                 06950021
                                    1881 *                                                                       06960021
 000DD0 00000000                    1882 SCTPTR DC    F'0'                * POINTER TO LAST SECTION NAME         06970021
 000DD4 00000000                    1883 DELPTR DC    F'0'               *  POINTER TO NEW SECTION NAME          06980021
                                    1884 *                                                                       06990021
                                    1885 *****    PARAMETER FOR 'LATGRP' ACCESS ROUTINE    *****                 07000021
                                    1886 *                                                                       07010021
 000DD8                             1887        DS    0F                                                         07020021
1PH1B     IKFCBL1B                                                                                              PAGE   49
-  LOC  OBJECT CODE    ADDR1 ADDR2  STMT   SOURCE STATEMENT                                       ASM 0201 11.03 02/14/15
0000DD8 0C                          1888 GRPBCD DC    X'0C'               * CODE FOR LATGRP                      07030021
 000DD9 000000                      1889        DC    AL3(0)             *  ADDRESS OF BCD NAME TO BE LOCATE     07040021
 000DDC 00000000                    1890 GRPPTR DC    F'0'                * PTR TO SECTION IN WHICH TO LOOK      07050021
                                    1891 *                                                                       07060021
                                    1892 *****    PARAMETER FOR 'LATRNM' ACCESS ROUTINE    *****                 07070021
                                    1893 *                                                                       07080021
 000DE0 00000000                    1894 RNMBCD DC    F'0'                * ADDRESS OF BCD NAME TO BE LOCATE     07090021
                                    1895 * * * *   WORK AREA FOR LOCATTRIB * * * *                               07100021
 000DE4 0000000000000000            1896 LOCNAM   DC    8F'0'               WORK AREA                            07110021
                                    1897 * * * * *                                                               07120021
                                    1898 *****    PARAMETER FOR 'LDELNM' ACCESS ROUTINE    *****                 07130021
                                    1899 *                                                                       07140021
 000E04                             1900        DS    0F                                                         07150021
 000E04 10                          1901 LNMBCD DC    X'10'                 PARAM. OF                            07160021
 000E05 000000                      1902        DC    AL3(0)                ADD OF QUALIFIER                     07170021
                                    1903 *                                                                       07180021
                                    1904 *****    LHN WORK AREA FOR ENTRY INTO DICTIONARY    *****               07190021
                                    1905 *                                                                       07200021
 000E08 00000023                    1906 STEV23 DC    F'35'                      00000023                        07210021
                             00E0B  1907 SLBCD  EQU   STEV23+3                   ADDR OF '23'                    07220021
 000E0C 0000000000000000            1908 LCBCD  DC    8F'0'               * BCD NAME FOR ACCESS     //N/NAME     07230021
 000E2C 00                          1909        DC    X'00'                      FILLER FOR BOUNDRY ADJ          07240021
 000E2D 00                          1910 LCATRB DC    X'00'               * COUNT - MAJOR  4 BITS EACH           07250021
 000E2E 0000                        1911 LCCHAR DC    H'0'                * S,T,P,A,G,E,-,- * B,U,X,D,K,L,M,     07260021
                                    1912 *      B-REF*D  U-DEF*D  X-DUMM  D-DECL  K-ERR  L-LAB  M-RAND  N-RE     07270021
 000E30 0000                        1913 LCNUM  DC    H'0'                * LHN NUMBER                           07280021
 000E32 00                          1914 LCRPD  DC    X'00'               * RPD NUMBER                           07290021
 000E33 00                          1915 LCPTY  DC    X'00'                      * PRIORITY NO                   07300021
 000E34 0000                        1916        DC    X'0000'             * SECTION NUMBER OF NEXT SECTION       07310021
                                    1917 *                                                                       07320021
                                    1918 *****    PROCEDURE NAME WORK AREA FOR ENTRY TO'PNTABL OR PNQTBL'  *     07330021
                                    1919 *                                                                       07340021
 000E36 0000
 000E38 00000000                    1920 PNBC   DC    F'0'                  COUNT AREA                           07350021
                             00E3B  1921 PNBCT  EQU   PNBC+3                    TOTAL COUNT                      07360021
 000E3C 0000000000000000            1922 PNBCDN DC    8F'0'               * BCD NAME            //N/NAME//       07370021
 000E5C 0000                        1923 PNCHAR DC    H'0'                * S,T,P,A,G,E,-,- * B,U,X,D,K,L,M,     07380021
                                    1924 *      B-REF*D  U-DEF*D  X-DUMM  D-DECL  K-ERR  L-LAB  M-RAND  N-RE     07390021
 000E5E 00                          1925 PNOLD  DC    X'00'                      NEW/OLD CODE                    07400021
 000E5F 22                          1926 PNQLCD DC    X'22'                      QUALIFIER CODE                  07410021
 000E60 0000000000000000            1927 PNBCDQ DC    8F'0'                      * BCD NAME QUALIFIER //N/NA     07420021
 000E80 000E3C                      1928 PNBCNN DC    AL3(PNBCDN)                ADDR OF PN BCD                  07430021
 000E83 000E60                      1929 PNBCQN DC    AL3(PNBCDQ)                ADDR OF QUALIFIER BCD           07440021
 000E86 000DE4                      1930 LOCNAMAD DC    AL3(LOCNAM)                                              07450021
                                    1931 *                                                                       07460021
                                    1932 *****     PROCEDURE DIVISION FILE 4 TEXT     *****                      07470021
                                    1933 *                                                                       07480021
 000E89 37                          1934 PRF4CD   DC    X'37'                    LISTING A-TEXT CODE             07490021
 000E8A 00                          1935 PRF4NU DC    X'00'                      N FIELD X'00' IF A PN           07500021
 000E8B F040404040404040            1936 PRF4NM DC    3CL10'0'                   FILE 4 PD TEXT BCD NAME         07510021
                                    1937 *****     PROCEDURE DIVISION FILE 2 TEXT FOR SEQ NUMBER     *****       07520021
                                    1938 *                                                                       07530021
 000EA9 810000                      1939 CRDGCN DC    X'810000'                  GCN TEXT FOR FILE 2             07540021
 000EAC 00000000                    1940 ADPB12 DC    A(BEGPHB)                                                  07550021
                                    1941 *  EXECUTE INSTRUCTION FOR MOVE UP OF CONSTANTS AND PN QUAL             07560021
1PH1B     IKFCBL1B                                                                                              PAGE   50
-  LOC  OBJECT CODE    ADDR1 ADDR2  STMT   SOURCE STATEMENT                                       ASM 0201 11.03 02/14/15
0000EB0 D200 3000 D5BC 00000 00E5C  1942 PNQMV    MVC   DX0(LX0,JC),PNCHAR            MOVE                       07570021
 000EB6 D200 D2A0 E000 00B40 00000  1943 PNMVD    MVC   PNMVS(LX0),DX0(JP)       MOVE BCD TO FULL WORD           07580021
1PH1B     IKFCBL1B                                                                                              PAGE   51
-  LOC  OBJECT CODE    ADDR1 ADDR2  STMT   SOURCE STATEMENT                                       ASM 0201 11.03 02/14/15
0                                   1945 *                                                                       07600021
                                    1946 *=1    COMMON WORK AND SAVE AREAS                 ID   ENV  DATA PR     07610021
                                    1947 *                                                                       07620021
 000EBC                             1948 SVREG  DS    15F                   CALLING ROUTINE SAVE REGISTERS       07630021
 000EF8                             1949 SAVREG DS    15F                        ULSCN ROUTINE REG SAVE          07640021
 000F34                             1950 SV1F01 DS    F                          LINK REG SAVE                   07650021
 000F38                             1951 SV1F02 DS    F                          LINK REG SAVE                   07660021
 000F3C                             1952 SV1F03 DS    F                          LINK REG SAVE                   07670021
 000F40                             1953 SV4F04 DS    4F                         LINK REG SAVE                   07680021
 000F50                             1954 SV1F05 DS    F                          LINK REG SAVE                   07690021
 000F54                             1955 SV1F06 DS    F                          LINK REG SAVE                   07700021
 000F58                             1956 SV1F07 DS    F                          LINK REG SAVE                   07710021
 000F5C                             1957 SV1F08 DS    F                          LINK REG SAVE                   07720021
 000F60                             1958 SV1F09 DS    F                          LINK REG SAVE                   07730021
 000F64                             1959 SV1F10 DS    F                          LINK REG SAVE                   07740021
 000F68                             1960 SV1F11 DS    F                          LINK REG SAVE                   07750021
 000F6C                             1961 SV1F12 DS    F                     LINK REG SAVE                        07760021
 000F70                             1962 SV3F12 DS    3F                    SAVE REG. 1-3 ERROR MSG.             07770021
 000F7C                             1963 SV1F14 DS    F                     LINK REG SAVE                        07780021
 000F80                             1964 JPSAVE DS    F                          SAVE XR JP FOR ROUTS USED B     07790021
 000F84                             1965 JPUBRS DS    F                     LINK REG SAVE                        07800021
 000F88                             1966 PUTNSV DS    F                          RW PUTN JP SAVE AREA            07810021
 000F8C                             1967 GDLRSV DS    3F                         GET DELIM 3 REG SAVE AREA       07820021
 000F98                             1968 QUOTSV DS    2F                         SAVE REGS FOR QUOTE(GETWD)      07830021
 000FA0                             1969 GETCSV DS    F                          SAVE LINK REG FOR GETCRD        07840021
 000FA4                             1970 NBLPTR DS    F                          ADDR OF GETWD WORD IN BUFFE     07850021
 000FA8                             1971 SKCTAD DS    F                          ADDR PAST CONTINUATION          07860021
 000FAC                             1972 SV1REG   DS    F                   SAVE AREA FOR 1 REGISTER        9015 07870021
 000FB0                             1973 LASTWD DS    XL68'0'                   SAVE AREA FOR LASTWD ON CARD9610 07880021
                                    1974 *                                                                       07890021
 000FF4                             1975 SVRPRG DS    F                          ADDR OF COPYWD IN BUFFER        07900021
 000FF8                             1976 CPYSAV DS    8F                         COP RTN SAVE AREA               07910021
                                    1977 *                                                                       07920021
 001018                             1978 FINDSV DS    F                          DELETE CARD POINTER SAVE        07930021
 00101C                             1979 SVREAD DS    F                          LINK REG SAVE FOR (READI)       07940021
 001020 0000                        1980 GNSQNO DC    H'0'                  GEN SQ NUM                           07950021
                                    1981 *                                                                       07960021
 001022 000000000000
 001028 0000000000000000            1982 VALNLT DC    D'0'                       DOUBLEWORD SAVE FOR VAL NUM     07970021
 001030                             1983 GDLWKA DS    D                          DOUBLEWORD WORK AREA GETDLM     07980021
 001038 0000000000000000            1984 WORKDA DC    D'0'                       DOUBLEWORD WORK AREA 'A'        07990021
 001040 00000000                    1985 REGWOK DC    F'0'                       FULLWORD REGISTER WORK AREA     08000021
 001044 00000000                    1986 REGWEK DC    F'0'                       FOR FLT-PT-RTN                  08010021
 001048 00000000                    1987 WORKFB DC    F'0'                  FULLWORD                             08020021
 00104C 0000                        1988 WORKHC DC    H'0'                  HALFWORD                             08030021
                                    1989 *                                                                       08040021
 00104E                             1990 ETYPE  DS    CL10                  PARAGRAPH OR VERB IN EFFECT          08050021
 001058 00                          1991 SMECTR DC    X'00'                      SAME COUNTER                    08060021
 00105C                             1992 APTRSV DS    F                          APPSCN SAVE SIZE AND ADDRES     08070021
 001060 00000000                    1993 RPOSAV DC    F'0'                       POINTER-SIZE OF SAVED RPT-N     08080021
 001064 00000000                    1994 SCHPTR DC    F'0'                       SIZE + PTR OF SCHENV 'FIND'     08090021
 001068                             1995 SVCALP DS    F                     SAVE AREA FOR R15 AS BASE REG.       08100021
 00106C 00004398                    1996 ADPROM DC    A(PDSCN)              ADDR OF PN AND QN SCAN               08110021
 001070 00000000                    1997 LOOKUP DC    F'0'                       SEARCHPNTABL SAVE AREA          08120021
 001074 00000000                    1998 SEADDR DC    F'0'                       SEARCH PNTABL SAVE AREA         08130021
1PH1B     IKFCBL1B                                                                                              PAGE   52
-  LOC  OBJECT CODE    ADDR1 ADDR2  STMT   SOURCE STATEMENT                                       ASM 0201 11.03 02/14/15
0001078 00000000                    1999 ABSADD DC    F'0'                       TAMER ABSOLUTE ADDRESS SAVE     08140021
 00107C 0000                        2000 SAVSIZ DC    H'0'                       SIZE OF LAST TAMER ENTRY        08150021
 00107E 0000                        2001 PONTER DC    H'0'                       POINTER OF LAST TAMER ENTRY     08160021
 001080 00000000                    2002 PIOCOD DC    F'0'                       PIOTBL CODE WORK AREA           08170021
 001084 0000                        2003 SCHSAV DC    H'0'                       SAVE ADJ FACTOR FOR SEARCH      08180021
 001086 81                          2004 GENENT DC    X'81'                 GENERATE CARD                        08190021
 001087 0000                        2005 ENTCDN DC    X'0000'                   CARD NO                          08200021
 001089 442C                        2006        DC    X'442C'                   ENTRY VERB                       08210021
 00108B 3408                        2007        DC    X'3408'                   ALPHA LIT                        08220021
 00108D                             2008 ENTLIT DS    8C                    PROGID                               08230021
 001095 4411                        2009 GENGO  DC    X'4411'                   TO                               08240021
 001097 549B                        2010        DC    X'549B'                   TO                               08250021
 001099 AA                          2011 GODEF  DC    X'AA'                 IDENTIFYING NUMBER                   08260021
 00109A 0000                        2012 GOPN   DC    X'0000'               FROM COMMON - GNCTR                  08270021
 00109C 37                          2013 F4ENTCD  DC    X'37'                    LISTING A-TEXT CODE             08280021
 00109D 05                          2014 F4ENT    DC    X'05'                    ENTRY A-TEXT                    08290021
 00109E C5D5E3D9E8                  2015        DC    C'ENTRY'              ENTRY                                08300021
 0010A3 37                          2016 F4GOCD   DC    X'37'                    LISTING A-TEXT CODE             08310021
 0010A4 02                          2017 F4GO     DC    X'02'                    GO A-TEXT                       08320021
 0010A5 C7D6                        2018        DC    C'GO'                 GO                                   08330021
 0010A7                             2019 USEFL1 DS    1X                        USEFLAG                          08340021
                             00080  2020 USETOT EQU    X'80'                     TOTALED AREA DN                 08350021
                             00040  2021 USEF2  EQU   X'40'                     USE ON MULTIPLE FILENAMES        08360021
                             00020  2022 USEAF  EQU   X'20'                     AFTER                            08370021
                             00010  2023 USEBF  EQU   X'10'                      BEFORE                          08380021
                             00008  2024 USERU  EQU   X'08'                      REEL/UNIT                       08390021
                             00004  2025 USEFL  EQU   X'04'                      FILE                            08400021
                             00002  2026 USEBG  EQU   X'02'                      BEGINNING                       08410021
                             00001  2027 USEEN  EQU   X'01'                      ENDING                          08420021
 0010A8 0000000000000000            2028 INGNBF DC    4H'0'                      INPUT GN TBL FOR BEFORE         08430021
                             010A8  2029 INBOFB EQU   INGNBF                     BOF                             08440021
                             010AA  2030 INEOFB EQU   INGNBF+2                   EOF                             08450021
                             010AC  2031 INEOVB EQU   INGNBF+4                   EOV                             08460021
                             010AE  2032 INBOVB EQU   INGNBF+6                   BOV                             08470021
 0010B0 0000000000000000            2033 OUGNBF DC    4H'0'                      OUTPUT GN TBL FOR  BEFORE       08480021
                             010B0  2034 OUBOFB EQU   OUGNBF                     BOF                             08490021
                             010B2  2035 OUEOFB EQU   OUGNBF+2                   EOF                             08500021
                             010B4  2036 OUEOVB EQU   OUGNBF+4                   EOV                             08510021
                             010B6  2037 OUBOVB EQU   OUGNBF+6                   BOV                             08520021
 0010B8 0000000000000000            2038 IOGNBF DC    4H'0'                      I-O GN TBL FOR BEFORE           08530021
                             010B8  2039 IOBOFB EQU   IOGNBF                     BOF                             08540021
                             010BA  2040 IOEOFB EQU   IOGNBF+2                   EOF                             08550021
                             010BC  2041 IOEOVB EQU   IOGNBF+4                   EOV                             08560021
                             010BE  2042 IOBOVB EQU   IOGNBF+6                   BOV                             08570021
 0010C0 0000000000000000            2043 INGNAF DC    4H'0'                      INPUT GN TBL FOR AFTER          08580021
                             010C0  2044 INBOFA EQU   INGNAF                     BOF                             08590021
                             010C2  2045 INEOFA EQU   INGNAF+2                   EOF                             08600021
                             010C4  2046 INEOVA EQU   INGNAF+4                   EOV                             08610021
                             010C6  2047 INBOVA EQU   INGNAF+6                   BOV                             08620021
 0010C8 0000000000000000            2048 OUGNAF DC    4H'0'                      OUTPUT TBL FOR AFTER            08630021
                             010C8  2049 OUBOFA EQU   OUGNAF                     BOF                             08640021
                             010CA  2050 OUEOFA EQU   OUGNAF+2                   EOF                             08650021
                             010CC  2051 OUEOVA EQU   OUGNAF+4                   EOV                             08660021
                             010CE  2052 OUBOVA EQU   OUGNAF+6                   BOV                             08670021
 0010D0 0000000000000000            2053 IOGNAF DC    4H'0'                      I-O TBL FOR AFTER               08680021
1PH1B     IKFCBL1B                                                                                              PAGE   53
-  LOC  OBJECT CODE    ADDR1 ADDR2  STMT   SOURCE STATEMENT                                       ASM 0201 11.03 02/14/15
0                            010D0  2054 IOBOFA EQU   IOGNAF                     BOF                             08690021
                             010D2  2055 IOEOFA EQU   IOGNAF+2                   EOF                             08700021
                             010D4  2056 IOEOVA EQU   IOGNAF+4                   EOV                             08710021
                             010D6  2057 IOBOVA EQU   IOGNAF+6                   BOV                             08720021
 0010D8                             2058 RWGCNS DS    H                         RW-ROUT GCN ACCUMULATOR          08730021
 0010DA 0000                        2059 INSTER DC    H'0'                       INPUT STANDARD ERROR GN         08740021
 0010DC 0000                        2060 OUSTER DC    H'0'                       OUTPUT STANDARD ERROR GN        08750021
 0010DE 0000                        2061 IOSTER DC    H'0'                       I-O STANDARD ERROR GN           08760021
 0010E0 260A                        2062 OPNSTR DC    X'260A'                   GN HEADER                        08770021
 0010E2 0000000000000000            2063 OPNGNS DC    5H'0'                 OPEN SW                              08780021
                             010E2  2064 OPNSTE EQU   OPNGNS                STE                                  08790021
                             010E4  2065 OPNBOF EQU   OPNGNS+2              BOF                                  08800021
                             010E6  2066 OPNEOF EQU   OPNGNS+4              EOF                                  08810021
                             010E8  2067 OPNEOV EQU   OPNGNS+6              EOV                                  08820021
                             010EA  2068 OPNBOV EQU   OPNGNS+8              BOV                                  08830021
 0010EC 0000000000000000            2069 FRHWZ  DC    5H'00'                USE VERB FLAG                        08840021
 0010F6 23                          2070 BCDGEN DC    X'23'                      AREA FOR GEN-                   08850021
 0010F7                             2071        DS    CL31                       -OUT OF BCD-NAME                08860021
 001116 00000100                    2072 DECSIZ DC    X'00000100'                COMMUNICATION AREA  1           08870021
                             01117  2073 TOTSIZ EQU   DECSIZ+1                    FOR FLOATING-      2           08880021
 00111A                             2074 FLPWK  DS    CL22                         POINT ROUTINE     3           08890021
 001130                             2075 LNKR15 DS    F                          STORE AREA FOR LINK REG15       08900021
1PH1B     IKFCBL1B                                                                                              PAGE   54
-  LOC  OBJECT CODE    ADDR1 ADDR2  STMT   SOURCE STATEMENT                                       ASM 0201 11.03 02/14/15
0001134                             2077 INTCNT DS    H                     LITERALS COUNT FIELD                 08920021
 001136                             2078 DECCNT DS    H                     DEC. COUNT FIELD                     08930021
 001138 00000000                    2079 ZERWRD DC    F'0'                  ZERO CONSTANT                        08940021
 00113C                             2080 UNPWRK DS    CL3                   LITERAL UNPWRK AREA                  08950021
 00113F                             2081 UNPSUB DS    CL15                  WORK AREA                            08960021
 00114E                             2082 UNPEND DS    CL1                   WORK AREA                            08970021
 00114F                             2083 PAKWRK DS    CL2                   WORK AREA                            08980021
 001151                             2084 PAKSUB DS    CL8                   WORK AREA                            08990021
 001159                             2085 PAKEND DS    CL1                   WORK AREA                            09000021
 00115A                             2086 WRK2   DS    CL2                   WORK AREA                            09010021
 00115C                             2087 WRK3   DS    CL3                   WORK AREA                            09020021
 001160                             2088 SAVER8 DS    F                     WORK AREA                            09030021
 001164 00000000                    2089 REGWRK DC    F'0'                  WORK AREA                            09040021
                                    2090 *                                                                       09050021
                             0000E  2091 X2311  EQU   14                                                         09060021
                             00010  2092 X2321  EQU   16                                                         09070021
                             0000F  2093 X2314  EQU   15                                                         09080021
                                    2094 *                                                                 51903 09090021
 001168 5836 0000      00000        2095 PNTAB    L     JC,DX0(JF)               ADDR OF TAM               51903 09100021
 00116C 5873 0000      00000        2096          L     JG,DX0(JC)               ADDR OF TABLE             51903 09110021
 001170 4177 0000      00000        2097          LA    JG,DX0(JG)               CLEAR HIGH ORDER BYTE     51903 09120021
 001174 4A70 D29C      00B3C        2098          AH    JG,EOTCP                 GET PROPER ENTRY          51903 09130021
 001178 07FE                        2099          BR    JP                       RETURN                    51903 09140021
                                    2100 *                                                                 51903 09150021
 00117A 9067 D908      011A8        2101 PNQMOVUP STM   R6,R7,PNQSAV             SAVE REGISTERS            51903 09160021
 00117E 1867                        2102          LR    R6,R7                    R6 = ADDR DELETED ENTRY   51903 09170021
 001180 1A75                        2103          AR    R7,R5                    R7 = ADDR NEXT ENTRY      51903 09180021
 001182 0640                        2104          BCTR  R4,R0                    REMAINING LENGTH -1 (EX)  51903 09190021
 001184 4440 D902      011A2        2105          EX    R4,PNQMVC                ADJUST TABLE              51903 09200021
 001188 4144 0001      00001        2106          LA    R4,DX1(R4)               RESTORE COUNT             51903 09210021
 00118C 5860 C6FC      01D5C        2107          L     R6,PNQCON                ADDR TIB 06               51903 09220021
 001190 5866 0000      00000        2108          L     R6,DX0(R6)               ADDR TAMM                 51903 09230021
 001194 4046 0004      00004        2109          STH   R4,DX4(R6)               ADJUST DISP IN TAMM       51903 09240021
 001198 4040 D29E      00B3E        2110          STH   R4,EOTPN                 ADJUST TOTAL LENGTH       51903 09250021
 00119C 9867 D908      011A8        2111          LM    R6,R7,PNQSAV             RESTORE REGISTERS         51903 09260021
 0011A0 07FE                        2112          BR    JP                       RETURN                    51903 09270021
                                    2113 *                                                                 51903 09280021
 0011A2 D200 6000 7000 00000 00000  2114 PNQMVC   MVC   DX0(LX0,R6),DX0(R7)      OVERLAY DELETED ENTRY     51903 09290021
 0011A8 0000000000000000            2115 PNQSAV   DC    2F'0'                    SAVEAREA                  51903 09300021
                                    2116 *                                                                 51903 09310021
1PH1B     IKFCBL1B                                                                                              PAGE   55
-  LOC  OBJECT CODE    ADDR1 ADDR2  STMT   SOURCE STATEMENT                                       ASM 0201 11.03 02/14/15
0                                   2118 *=1    ERROR MESSAGES                                                   09330021
                                    2119 *                                                                       09340021
                                    2120 *        ERROR MSG NUMBER TABLE                                         09350021
 0011B0                             2121        DS    0F                        START MSGS ON FULL WORD          09360021
                                    2122 *                                                                       09370021
                                    2123 *=E       1 NUM-LIT NOT RECOG AS LEV-NUM,BECAUSE '-' ILLEGAL AS USE     09380021
 0011B0 45F0 DBAC      0144C        2124 MSG1   BAL   JQ,PARMN              BRANCH AND LINK                      09390021
 0011B4                             2125        DS    2F                                                         09400021
                                    2126 *=E      04 INVALID WORD '-'. SKIP TO NEXT LEVEL, SECTION, DIVISION     09410021
 0011BC 45F0 DB90      01430        2127 MSG4   BAL   JQ,PARMC              BRANCH AND LINK                      09420021
 0011C0                             2128        DS     F                    MISSING MSG                          09430021
                                    2129 *=E  06  06 DECLARATIVES SECTION WITHOUT 'USE' SENTENCE. CONTINUING     09440021
 0011C4 45F0 DD12      015B2        2130 MSG6   BAL   JQ,WRTMSG             BRANCH AND LINK                      09450021
                                    2131 *=E      7 '--' NOT PRECEDED BY A SPACE.  ASSUME SPACE.                 09460021
 0011C8 45F0 DBAC      0144C        2132 MSG7   BAL   JQ,PARMN              BRANCH AND LINK                      09470021
                                    2133 *=E      8 RIGHT PAREN SHOULD NOT BE PRECEDED BY A SPACE.               09480021
 0011CC 45F0 DCFE      0159E        2134 MSG8   BAL   JQ,WRNMSG             BRANCH AND LINK                      09490021
                                    2135 *=E       9 'INCLUDE' SHOULD BE PRECEDED BY PROC-NAM. IGNORED.          09500021
 0011D0 45F0 DD12      015B2        2136 MSG9   BAL   JQ,WRTMSG             BRANCH AND LINK                      09510021
                                    2137 *=E     10 LEFT PAREN SHOULD NOT BE FOLLOWED BY A SPACE.                09520021
 0011D4 45F0 DCFE      0159E        2138 MSG10  BAL   JQ,WRNMSG             BRANCH AND LINK                      09530021
 0011D8                             2139        DS    4F                           MISSING MSG                   09540021
                                    2140 *=E  0F  15 '-' INVALID AS EXTERNAL-NAME. IGNORED.                      09550021
 0011E8 45F0 DB90      01430        2141 MSG15  BAL   JQ,PARMC              BRANCH AND LINK                      09560021
 0011EC                             2142        DS     F                           MISSING MSG                   09570021
                                    2143 *=E  11  17 INVALID WORD IN '-' CLAUSE. SKIPPING TO NEXT CLAUSE.        09580021
 0011F0 45F0 DC00      014A0        2144 MSG17  BAL   JQ,PARM1C             BRANCH AND LINK                      09590021
                                    2145 *=E  12  18 COPY LIBRARY NOT FOUND/NO LIBR IN EFFECT                    09600021
 0011F4 45F0 DD12      015B2        2146 MSG18  BAL   JQ,WRTMSG             BRANCH AND LINK                      09610021
                                    2147 *=E  13  19 COPY CLAUSE IGNORED DUE TO NO LIBRARY NAME.                 09620021
 0011F8 45F0 DD12      015B2        2148 MSG19  BAL   JQ,WRTMSG             BRANCH AND LINK                      09630021
                                    2149 *=E      20  '-' SHOULD BE A PROC-NAME FOLLOWING DEBUG NEXT CARD        09640021
 0011FC 45F0 DB90      01430        2150 MSG20  BAL   JQ,PARMC              BRANCH AND LINK                      09650021
                                    2151 *=E      21  '-' DOES NOT BELONG ON DEBUG CARD NEXT CARD                09660021
 001200 45F0 DB90      01430        2152 MSG21  BAL   JQ,PARMC              BRANCH AND LINK                      09670021
                                    2153 *=E      22  PERIOD DOES NOT BELONG ON DEBUG CARD DELETED               09680021
 001204 45F0 DB90      01430        2154 MSG22  BAL   JQ,PARMC              BRANCH AND LINK                      09690021
                                    2155 *=E  17  23 INVALID FILE-NAME. USE IGNORED.                             09700021
 001208 45F0 DD12      015B2        2156 MSG23  BAL   JQ,WRTMSG             BRANCH AND LINK                      09710021
                                    2157 *=E  18  24 UNDEFINED FILE-NAME. USE IGNORED.                           09720021
 00120C 45F0 DD12      015B2        2158 MSG24  BAL   JQ,WRTMSG             BRANCH AND LINK                      09730021
 001210                             2159        DS    2F                           MISSING MSG.                  09740021
                                    2160 *=E    27    FILE WITH TOTALED AREA CLAUSE AND NON STANDARD LABELS      09750021
                                    2161 *=E          MUST NOT BE OPENED OUTPUT.                                 09760021
 001218 45F0 DD12      015B2        2162 MSG27  BAL   JQ,WRTMSG             BRANCH AND LINK                      09770021
 00121C                             2163        DS    3F                           DISPLACEMENT                  09780021
                                    2164 *=E  1F  31 USE SENTENCE NOT PRECEEDED BY SECTION-NAME. ASSUME ONE.     09790021
 001228 45F0 DD12      015B2        2165 MSG31  BAL   JQ,WRTMSG             BRANCH AND LINK                      09800021
                                    2166 *=E  20  32 '-' INCORRECTLY USED IN USE SENTENCE. SENTENCE IGNORED.     09810021
 00122C 45F0 DB90      01430        2167 MSG32  BAL   JQ,PARMC              BRANCH AND LINK                      09820021
 001230                             2168        DS    2F                           DISPLACEMENT                  09830021
                                    2169 *=E  23  35 SECTION-NAME NOT DEFINED IN APPLY-4 CLAUSE. USE R-P IGN     09840021
 001238 45F0 DD12      015B2        2170 MSG35  BAL   JQ,WRTMSG             BRANCH AND LINK                      09850021
 00123C                             2171        DS    3F                                                         09860021
                                    2172 *=E  27  39 DATA-NAME IN '-' CLAUSE SHOULD BE UNQUAL. USING LOW NAM     09870021
1PH1B     IKFCBL1B                                                                                              PAGE   56
-  LOC  OBJECT CODE    ADDR1 ADDR2  STMT   SOURCE STATEMENT                                       ASM 0201 11.03 02/14/15
0001248 45F0 DC22      014C2        2173 MSG39  BAL   JQ,PARM4              BRANCH AND LINK                      09880021
 00124C                             2174        DS    3F                           DISPLACEMENT                  09890021
                                    2175 *=E  2B  43 END OF SENTENCE SHOULD PRECEDE '-'. ASSUMED PRESENT.        09900021
 001258 45F0 DBE4      01484        2176 MSG43    BAL   JQ,PARMN1        BRANCH AND LINK                   06793 09910021
 00125C                             2177        DS    2F                           DISPLACEMENT                  09920021
                                    2178 *=E      46 MEMBER NOT FOUND IN LIBRARY. IGNORING COPY.                 09930021
 001264 45F0 DD12      015B2        2179 MSG46  BAL   JQ,WRTMSG             BRANCH AND LINK                      09940021
                                    2180 *=E      47 LIBRARY NOT FOUND ON SYSTEM. IGNORING COPY.                 09950021
 001268 45F0 DD12      015B2        2181 MSG47  BAL   JQ,WRTMSG             BRANCH AND LINK                      09960021
                                    2182 *=E      48 LIBRARY MEMBER HAS BAD TRACK. IGNORING REST OF COPY.        09970021
 00126C 45F0 DD12      015B2        2183 MSG48  BAL   JQ,WRTMSG             BRANCH AND LINK                      09980021
 001270                             2184        DS    2F                           DISPLACEMENT                  09990021
                                    2185 *=E  33  51 NO DATA-NAME IN USE SENTENCE.  SENTENCE IGNORED.            10000021
 001278 45F0 DD12      015B2        2186 MSG51  BAL   JQ,WRTMSG             BRANCH AND LINK                      10010021
                                    2187 *=E  34  52 '-' ILLEGALLY USED IN USE SENT. END SENT,RESCAN AT RECO     10020021
 00127C 45F0 DB90      01430        2188 MSG52  BAL   JQ,PARMC              BRANCH AND LINK                      10030021
 001280                             2189        DS    F                                                          10040021
                                    2190 *=E     54  OPERAND IN INITIATE NOT FOUND OR ILLEGAL. IGNORED           10050021
 001284 45F0 DD12      015B2        2191 MSG54  BAL   JQ,WRTMSG             BRANCH AND LINK                      10060021
 001288                             2192        DS    5F                           DISPLACEMENT                  10070021
                                    2193 *=E      60  INVALID WORD IN RW VERB CLAUSE. IGNORED.                   10080021
 00129C 45F0 DD12      015B2        2194 MSG60  BAL   JQ,WRTMSG             BRANCH AND LINK                      10090021
 0012A0                             2195        DS     F                           DISPLACEMENT                  10100021
                                    2196 *=E      62  WORD INVALID AS BCD NAME.                                  10110021
 0012A4 45F0 DD12      015B2        2197 MSG62  BAL   JQ,WRTMSG             BRANCH AND LINK                      10120021
 0012A8                             2198        DS    5F                           DISPLACEMENT                  10130021
                                    2199 *=E      68  OPND FOR GENERATE NOT FOUND. CLAUSE DROPPED.               10140021
 0012BC 45F0 DD12      015B2        2200 MSG68  BAL   JQ,WRTMSG             BRANCH AND LINK                      10150021
 0012C0                             2201        DS     F                           DISPLACEMENT                  10160021
                                    2202 *=E  46  70 FLOAT-POINT LIT MANTISSA EXC 16 DIG. TRUNC TO 16.           10170021
 0012C4 45F0 DCFE      0159E        2203 MSG70  BAL   JQ,WRNMSG             BRANCH AND LINK                      10180021
                                    2204 *=E  47  71 FLOAT-POINT LIT EXPONT EXC 2 DIG. TRUNC TO 2. RESCAN AT     10190021
 0012C8 45F0 DCFE      0159E        2205 MSG71  BAL   JQ,WRNMSG             BRANCH AND LINK                      10200021
                                    2206 *=E  48  72 FLOAT-POINT LIT EXPONT FOLL BY NONBLANK. RESCAN AT NONB     10210021
 0012CC 45F0 DCFE      0159E        2207 MSG72  BAL   JQ,WRNMSG             BRANCH AND LINK                      10220021
                                    2208 *=E  49  73 FLT PNT LIT'E'FOLLOWED BY INVALID,CALC LIT,RESCAN AT 'E     10230021
 0012D0 45F0 DCFE      0159E        2209 MSG73  BAL   JQ,WRNMSG             BRANCH AND LINK                      10240021
                                    2210 *=E  4A  74 FLT PNT LIT SIGN FOLLOWED BY INVALID,CALC LIT,RESCAN AT     10250021
 0012D4 45F0 DCFE      0159E        2211 MSG74  BAL   JQ,WRNMSG             BRANCH AND LINK                      10260021
                                    2212 *=E  4B  75 FLT PNT LIT EXCEEDS LIM,ASSUME MAX OR MIN ON 'E' SIGN.      10270021
 0012D8 45F0 DCFE      0159E        2213 MSG75  BAL   JQ,WRNMSG             BRANCH AND LINK                      10280021
                                    2214 *=E  4C  76 ALPHAMERIC-LIT EXCEEDS 120 CHAR. TRUNCATED TO 120.          10290021
 0012DC 45F0 DCFE      0159E        2215 MSG76  BAL   JQ,WRNMSG             BRANCH AND LINK                      10300021
                                    2216 *=E  4D  77 ALPHAMERIC-LIT CONTINUED IN A-MARGIN. ASSUMMED B-MARGIN     10310021
 0012E0 45F0 DCFE      0159E        2217 MSG77  BAL   JQ,WRNMSG             BRANCH AND LINK                      10320021
                                    2218 *=E  4E  78 ALPHA-LIT CONTINUED WITH MISSING HYPHEN OR QUOTE. ASSUM     10330021
 0012E4 45F0 DCFE      0159E        2219 MSG78  BAL   JQ,WRNMSG             BRANCH AND LINK                      10340021
                                    2220 *=E  4F  79 ALPHAMERIC-LIT HAS ZERO LENGTH. ASSUME 1 BLANK CHAR.        10350021
 0012E8 45F0 DCFE      0159E        2221 MSG79  BAL   JQ,WRNMSG             BRANCH AND LINK                      10360021
                                    2222 *=E  50  80 PERIOD PRECEEDED BY BLANK. ASSUMED EOS.                     10370021
 0012EC 45F0 DCFE      0159E        2223 MSG80  BAL   JQ,WRNMSG             BRANCH AND LINK                      10380021
                                    2224 *=E  51  81 PERIOD NOT FOLLOWED BY BLANK. ASSUMED EOS.                  10390021
 0012F0 45F0 DCFE      0159E        2225 MSG81  BAL   JQ,WRNMSG             BRANCH AND LINK                      10400021
                                    2226 *=E  52  82 NUM-LIT EXCEEDS 18 DIGITS. TRUNCATED TO 18 DIGITS.          10410021
 0012F4 45F0 DCFE      0159E        2227 MSG82  BAL   JQ,WRNMSG             BRANCH AND LINK                      10420021
1PH1B     IKFCBL1B                                                                                              PAGE   57
-  LOC  OBJECT CODE    ADDR1 ADDR2  STMT   SOURCE STATEMENT                                       ASM 0201 11.03 02/14/15
0                                   2228 *=E  53  83 ILLEGAL CHARACTER, SCAN RESUMED AT NEXT VALID CHARACTER     10430021
 0012F8 45F0 DCFE      0159E        2229 MSG83  BAL   JQ,WRNMSG             BRANCH AND LINK                      10440021
                                    2230 *=E  54  84 COMMA SHOULD NOT BE PRECEEDED BY BLANK. ASSUMED OK.         10450021
 0012FC 45F0 DCFE      0159E        2231 MSG84  BAL   JQ,WRNMSG             BRANCH AND LINK                      10460021
                                    2232 *=E      85 WORD OR PICTURE EXCEEDS 30 CHAR. TRUNCATED TO 30 CHAR.      10470021
 001300 45F0 DCFE      0159E        2233 MSG85  BAL   JQ,WRNMSG             BRANCH AND LINK                      10480021
                                    2234 *=E  56  86 '-' SHOULD BE IN A-MARGIN.                                  10490021
 001304 45F0 DBC8      01468        2235 MSG86  BAL   JQ,PARMN2             BRANCH AND LINK                1491  10500021
                                    2236 *=E  57  87 '-' SHOULD NOT BE IN A-MARGIN.                              10510021
 001308 45F0 DBAC      0144C        2237 MSG87  BAL   JQ,PARMN              BRANCH AND LINK                      10520021
                                    2238 *=E      88 NO INS/DEL NUMBER. PASSING CARDS TO BE INSERTED.            10530021
 00130C 45F0 DC2C      014CC        2239 MSG88  BAL   JQ,PARMID             BRANCH AND LINK                      10540021
                                    2240 *=E      89 INSERT DEL NUMBER OUT OF SEQ. NEXT INS/DEL NUMBER.          10550021
 001310 45F0 DC2C      014CC        2241 MSG89  BAL   JQ,PARMID             BRANCH AND LINK                      10560021
                                    2242 *=E      90 DELETE THRU NUMBER OUT OF SEQ. NEXT INS/DEL NUMBER.         10570021
 001314 45F0 DC2C      014CC        2243 MSG90  BAL   JQ,PARMID             BRANCH AND LINK                      10580021
                                    2244 *=E  5B  91 '-' IN A-MARGIN NOT VALID AS PN. ASSUME B-MARGIN.           10590021
 001318 45F0 DB90      01430        2245 MSG91  BAL   JQ,PARMC              BRANCH AND LINK                      10600021
                                    2246 *=E  5C  92 DECLARATIVES NOT FOLLOWING PROCEDURE DIVISION. IGNORED.     10610021
 00131C 45F0 DD12      015B2        2247 MSG92  BAL   JQ,WRTMSG             BRANCH AND LINK                      10620021
                                    2248 *=E  5D  93 NO DECLARATIVES SECTION. END DECLARATIVES IGNORED.          10630021
 001320 45F0 DD12      015B2        2249 MSG93  BAL   JQ,WRTMSG             BRANCH AND LINK                      10640021
 001324                             2250        DS     F                           DISPLACEMENT                  10650021
                                    2251 *=E  5F  95 WORD SECTION OR DIVISION MISSING. ASSUMED PRESENT.          10660021
 001328 45F0 DCFE      0159E        2252 MSG95  BAL   JQ,WRNMSG             BRANCH AND LINK                      10670021
 00132C                             2253        DS    2F                           DISPLACEMENT                  10680021
                                    2254 *=E  4E  98 ALPHM-LIT NOT CONT WITH HYPHEN + QUOTE.END LIT ON LAST      10690021
 001334 45F0 DD12      015B2        2255 MSG98  BAL   JQ,WRTMSG             BRANCH AND LINK                      10700021
                                    2256 *=E  63  99 '-' IS INVALID AS USED. IGNORED.                            10710021
 001338 45F0 DBAC      0144C        2257 MSG99  BAL   JQ,PARMN              BRANCH AND LINK                      10720021
 00133C                             2258        DS    6F                           DISPLACEMENT                  10730021
                                    2259 *=E     106   OPND FOR TERMINATE NOT FOUND OR ILLEG. OPND DROPPED.      10740021
 001354 45F0 DD12      015B2        2260 MSG106 BAL   JQ,WRTMSG             BRANCH AND LINK                      10750021
 001358                             2261        DS     F                           DISPLACEMENT                  10760021
                                    2262 *=E     108  '-' IS NOT A POSITIVE INTEGRAL NUMBER. ASSUMING 1.         10770021
 00135C 45F0 DBAC      0144C        2263 MSG108 BAL   JQ,PARMN              BRANCH AND LINK                      10780021
 001360                             2264        DS    4F                           DISPLACEMENT                  10790021
                                    2265 *=E     113 EXPECT 6 DIG-SEQ-NUM.SKIP TO NEXT INS/DEL NUMBER.           10800021
 001370 45F0 DC2C      014CC        2266 MSG113 BAL   JQ,PARMID             BRANCH AND LINK                      10810021
                                    2267 *=E     114 EXTRANEOUS COMMA / HYPHEN ON DEL CD. IGNOREING IT.          10820021
 001374 45F0 DC2C      014CC        2268 MSG114 BAL   JQ,PARMID             BRANCH AND LINK                      10830021
                                    2269 *=E     115 NO BLANK COMMA OR HYPHEN FOLLOW SEQ-NUM. ASSUME BLANK       10840021
 001378 45F0 DC2C      014CC        2270 MSG115 BAL   JQ,PARMID             BRANCH AND LINK                      10850021
                                    2271 *=E     116 EXPECT 6 DIG-SEQ-NUM AFTER HYPHEN.IGNORE DEL FROM THRU      10860021
 00137C 45F0 DC2C      014CC        2272 MSG116 BAL   JQ,PARMID             BRANCH AND LINK                      10870021
                                    2273 *=E     117 DELETE NUM GREATER THAN LAST SEQ-NUM.STOP INS/DEL.          10880021
 001380 45F0 DC2C      014CC        2274 MSG117 BAL   JQ,PARMID             BRANCH AND LINK                      10890021
                                    2275 *=E     118 INSERT NUM GREATER THAN THAN LAST SEQ-NUM.STOP INS/DEL      10900021
 001384 45F0 DC2C      014CC        2276 MSG118 BAL   JQ,PARMID             BRANCH AND LINK                      10910021
                                    2277 *=E     119 '-' FEATURE NOT YET IMPLEMENTED.                            10920021
 001388 45F0 DB90      01430        2278 MSG119 BAL   JQ,PARMC              BRANCH AND LINK                      10930021
                                    2279 *=E     120 COMMA NOT FOLLOWED BY BLANK. ASSUME SPACE.                  10940021
 00138C 45F0 DCFE      0159E        2280 MSG120 BAL   JQ,WRNMSG             BRANCH AND LINK                      10950021
 001390                             2281        DS    5F                                                         10960021
                                    2282 *=E     126 '-' FILE-NAME SPECIFIED IN BOTH RERUN AND USING OR GIVING   10970021
1PH1B     IKFCBL1B                                                                                              PAGE   58
-  LOC  OBJECT CODE    ADDR1 ADDR2  STMT   SOURCE STATEMENT                                       ASM 0201 11.03 02/14/15
0                                   2283 *=E         OPTION .  RERUN IGNORED.                                    10980021
 0013A4 45F0 DB90      01430        2284 MSG126 BAL   JQ,PARMC              BRANCH AND LINK                      10990021
 0013A8                             2285        DS    4F                           DISPLACEMENT                  11000021
                                    2286 *=E    131   INVALID PRIORITY NO. ZERO ASSUMED.                         11010021
 0013B8 45F0 DCFE      0159E        2287 MSG131 BAL   JQ,WRNMSG             BRANCH AND LINK                      11020021
 0013BC                             2288        DS     F                           DISPLACEMENT                  11030021
                                    2289 *=E    133   MORE THAN 1 USE ON STANDARD ERROR SPEC'D FOR SAME FILE     11040021
                                    2290 *=E          OPEN OPTION.                                               11050021
 0013C0 45F0 DD12      015B2        2291 MSG133 BAL   JQ,WRTMSG             BRANCH AND LINK                      11060021
                                    2292 *=E    134   USE SPECIFIED FOR FILE WITHLABEL RECORDS OMITTED OR        11070021
                                    2293 *            STANDARD. SENTENCE IGNORED.                                11080021
 0013C4 45F0 DB90      01430        2294 MSG134   BAL   JQ,PARMC           BRANCH AND LINK                       11090021
 0013C8                             2295          DS    4F                  MSGS IN PH1A                         11100021
                                    2296 *=E      DUPLICATE SECTION NAME                                         11110021
 0013D8 45F0 DC0A      014AA        2297 MSG139   BAL   JQ,PARM2            GIVE MESSAGE                         11120021
                                    2298 *=E      NUMERIC LITERAL EXCEEDS 32K                                    11130021
 0013DC 45F0 DB90      01430        2299 MSG140   BAL   JQ,PARMC            GIVE MESSAGE                         11140021
 0013E0                             2300          DS    F                   MESSAGE IN PH1A                      11150021
                                    2301 *=E    142   USE SPECIFIED FOR FILE AND FOR OPEN                        11160021
                                    2302 *=E          OPTION.  USE FOR OPEN OPTION IGNORED FOR THIS FILE.        11170021
 0013E4 45F0 DB90      01430        2303 MSG142 BAL   JQ,PARMC              BRANCH AND LINK                      11180021
                                    2304 *=E    143   USE STATEMETS IMPLY BOTH STAND AND NON STAND LABELS.       11190021
                                    2305 *=E          USE STATEMENTS IGNORED.                                    11200021
 0013E8 45F0 DD12      015B2        2306 MSG143 BAL   JQ,WRTMSG             BRANCH AND LINK                      11210021
                                    2307 *=E    144   POSITIONING AND ADVANCING OPTIONS                          11220021
                                    2308 *=E          ILLEGALLY USED FOR ONE FILE.                               11230021
 0013EC 45F0 DD12      015B2        2309 MSG144 BAL   JQ,WRTMSG             BRANCH AND LINK                      11240021
 0013F0                             2310        DS     F                           DISP                          11250021
                                    2311 *=E   146   READ FOR ILLEGAL AS USED. READ FOR UPDATE ASSUMED.          11260021
 0013F4 45F0 DCFE      0159E        2312 MSG146 BAL   JQ,WRNMSG             BRANCH AND LINK                      11270021
 0013F8                             2313          DS    3F            FILL AREA FOR THREE MSGS             7075  11280021
                                    2314 *=E    150   PARAGRAPH NAME BEGINS IN COLUMN 7                    7075  11290021
 001404 45F0 DB90      01430        2315 MSG150 BAL   JQ,PARMC              GIVE MESSAGE                   7075  11300021
 001408                             2316          DS    2F        FILL AREA                                7075  11310021
                                    2317 *=E    153   TOTALED AREA ILLEGALLY SPEC'D FOR FILE WITH NON-ST LAB     11320021
 001410 45F0 DB90      01430        2318 MSG153 BAL   JQ,PARMC              BRANCH AND LINK                      11330021
                                    2319 *=E    154   TWO DIFFERENT LABEL PROCEDURES FOR EOF AND EOV FOR         11340021
                                    2320 *=E          BEFORE OPTION. EOV LABEL PROCEDURE IGNORED.                11350021
 001414 45F0 DD12      015B2        2321 MSG154 BAL   JQ,WRTMSG             BRANCH AND LINK                      11360021
 001418                             2322        DS    3F                           DISP                          11370021
                                    2323 *=E    158   '-' IN ENTRY STATEMENT IS SAME AS PROG-ID. '-' IGNORED     11380021
 001424 45F0 DB90      01430        2324 MSG158 BAL   JQ,PARMC              BRANCH AND LINK                      11390021
 001428                             2325        DS     F                           DISP                          11400021
                                    2326 *=E     160  CONTINUATION OF WORD FOUND IN A MARGIN.                    11410021
 00142C 45F0 DD12      015B2        2327 MSG160 BAL   JQ,WRTMSG             WRITE MESSAGE                        11420021
1PH1B     IKFCBL1B                                                                                              PAGE   59
-  LOC  OBJECT CODE    ADDR1 ADDR2  STMT   SOURCE STATEMENT                                       ASM 0201 11.03 02/14/15
0                                   2329 *                                                                       11440021
                                    2330 *        PARAM LOADING ROUTINS                                          11450021
                                    2331 *                                                                       11460021
 001430 D279 D376 C580 00C16 01BE0  2332 PARMC    MVC   EPARAM(LX122),CURCOD                                     11470021
 001436 9532 C580      01BE0        2333          CLI   CURCOD,XX32               NUM-LIT                        11480021
 00143A 4770 DD12      015B2        2334        BC    NOTEQ,WRTMSG                NO-WRTMSG                      11490021
 00143E 9223 D376      00C16        2335          MVI   EPARAM,XX23               SET UP                         11500021
 001442 D21F D376 D2E5 00C16 00B85  2336          MVC   EPARAM(LX32),SECTNM-NX1                                  11510021
 001448 47F0 DD12      015B2        2337        BC    UNCOND,WRTMSG         WRITE MESSAGE                        11520021
                                    2338 *                                                                       11530021
 00144C 9101 D27C      00B1C        2339 PARMN  TM    CPYXSW,XX01               CPYXSW SET?                      11540021
 001450 4710 DBE4      01484        2340        BO    PARMN1                    YES - PARMN1                     11550021
 001454 D504 D346 C728 00BE6 01D88  2341        CLC   VERBNM(LX5),CALWD         CALL VERB?                       11560021
 00145A 4780 DBE4      01484        2342        BC    EQ,PARMN1                 YES - PARMN1                     11570021
 00145E D505 D346 C72D 00BE6 01D8D  2343        CLC   VERBNM(LX6),ENTWD         ENTRY VERB?                      11580021
 001464 4780 DBE4      01484        2344        BC    EQ,PARMN1                 YES - PARMN1                     11590021
 001468 D279 D376 C636 00C16 01C96  2345 PARMN2 MVC   EPARAM(LX122),NXTCOD      SET UP MSG PARAMETER       1491  11600021
 00146E 9532 C636      01C96        2346          CLI   NXTCOD,XX32               NUM-LIT                        11610021
 001472 4770 DCFE      0159E        2347        BC    NOTEQ,WRNMSG                NO-WRNMSG                      11620021
 001476 9223 D376      00C16        2348          MVI   EPARAM,XX23               SET UP                         11630021
 00147A D213 D377 C614 00C17 01C74  2349          MVC   EPARAM+NX1(LX20),NXTCNT     IN BCD                       11640021
 001480 47F0 DCFE      0159E        2350        BC    UNCOND,WRNMSG         WRITE MESSAGE                        11650021
 001484 D279 D376 C580 00C16 01BE0  2351 PARMN1 MVC   EPARAM(LX122),CURCOD      SET UP MSG PARAMETER             11660021
 00148A 9532 C580      01BE0        2352        CLI   CURCOD,XX32               NUM-LIT                          11670021
 00148E 4770 DD12      015B2        2353        BC    NOTEQ,WRTMSG              NO - WRTMSG                      11680021
 001492 9223 D376      00C16        2354        MVI   EPARAM,XX23               SET UP                           11690021
 001496 D213 D377 C55E 00C17 01BBE  2355        MVC   EPARAM+NX1(LX20),CURCNT   IN BCD                           11700021
 00149C 47F0 DD12      015B2        2356        BC    UNCOND,WRTMSG             WRITE MESSAGE                    11710021
                                    2357 *                                                                       11720021
 0014A0 D21F D3F0 D325 00C90 00BC5  2358 PARM1C   MVC   SECPAR(LX32),CLSNM-NX1                                   11730021
 0014A6 47F0 DB90      01430        2359        BC    UNCOND,PARMC          GET PARMS                            11740021
                                    2360 *                                                                       11750021
 0014AA 9223 D376      00C16        2361 PARM2  MVI   EPARAM,XX23               ERROR PROCESS LATER PHASE        11760021
 0014AE D21E D377 C55E 00C17 01BBE  2362        MVC   EPARAM+NX1(LX31),CURCNT   DUPLICATE SECTION NAME           11770021
 0014B4 47F0 DD12      015B2        2363        BC    UNCOND,WRTMSG         WRITE MESSAGE                        11780021
                                    2364 *                                                                       11790021
 0014B8 D21F D376 D305 00C16 00BA5  2365 PARM3    MVC   EPARAM(LX32),PARNM-NX1                                   11800021
 0014BE 47F0 DD12      015B2        2366        BC    UNCOND,WRTMSG         WRITE MESSAGE                        11810021
                                    2367 *                                                                       11820021
 0014C2 D21F D376 D325 00C16 00BC5  2368 PARM4    MVC   EPARAM(LX32),CLSNM-NX1                                   11830021
 0014C8 47F0 DD12      015B2        2369        BC    UNCOND,WRTMSG         WRITE MESSAGE                        11840021
                                    2370 *                                                                       11850021
 0014CC D201 D376 C51A 00C16 01B7A  2371 PARMID   MVC   EPARAM(LX2),CARDCN        SET UP CARD IMAGE              11860021
 0014D2 D24F D378 C7DE 00C18 01E3E  2372          MVC   EPARAM+NX2(LX80),SIDEWK     FROM SIDEWK                  11870021
 0014D8 47F0 DD08      015A8        2373        BC    UNCOND,WRDMSG               -WRDMSG                        11880021
                                    2374 *                                                                       11890021
 0014DC 00                          2375 SEVLST DC    X'00'                 TRANSLATE TABLE  (MESSAGES)          11900021
                                    2376 *                                                                       11910021
                                    2377 *               1 2 3 4 5 6 7 8 910111213141516                         11920021
 0014DD 1101012121210101            2378        DC    X'11010121212101012101112121012121'  MSGS   1 -  16        11930021
                                    2379 *                                                                       11940021
                                    2380 *              17181920212223242526272829303132                         11950021
 0014ED 2121212121012121            2381        DC    X'21212121210121211101012121211121'  MSGS  17 -  32        11960021
                                    2382 *                                                                       11970021
                                    2383 *              33343536373839404142434445464748                         11980021
1PH1B     IKFCBL1B                                                                                              PAGE   60
-  LOC  OBJECT CODE    ADDR1 ADDR2  STMT   SOURCE STATEMENT                                       ASM 0201 11.03 02/14/15
00014FD 0121211121210121            2384        DC    X'01212111212101212121010121212121'  MSGS  33 -  48        11990021
                                    2385 *                                                                       12000021
                                    2386 *              49505152535455565758596061626364                         12010021
 00150D 2121212121212121            2387        DC    X'21212121212121212121212121212121'  MSGS  49 -  64        12020021
                                    2388 *                                                                       12030021
                                    2389 *              65666768697071727374757677787980                         12040021
 00151D 2121212121111111            2390        DC    X'21212121211111111111111111011101'  MSGS  65 -  80        12050021
                                    2391 *                                                                       12060021
                                    2392 *              81828384858687888990919293949596                         12070021
 00152D 0111110111010121            2393        DC    X'01111101110101212121012121210121'  MSGS  81 -96          12080021
                                    2394 *                                                                       12090021
                                    2395 *              979899 0 1 2 3 4 5 6 7 8 9101112                         12100021
 00153D 2121211121012121            2396        DC    X'21212111210121210121112121010121'  MSGS  97 - 112        12110021
                                    2397 *                                                                       12120021
                                    2398 *              13141516171819202122232425262728                         12130021
 00154D 2111212121212101            2399        DC    X'21112121212121010101012121210101'  MSGS 113 - 128        12140021
                                    2400 *                                                                       12150021
                                    2401 *              29303132333435363738394041424344                         12160021
 00155D 1121012101010121            2402        DC    X'11210121010101210101212101010101'  MSGS 129 - 144  47935 12170021
                                    2403 *                                                                       12180021
                                    2404 *              45464748495051525354555657585960                         12190021
 00156D 0101010101010101            2405        DC    X'01010101010101010101010101010101'                        12200021
                                    2406 *                                                                       12210021
                                    2407 *              61626364656667686970717273747576                         12220021
 00157D 0121212121210101            2408        DC    X'01212121212101010121210101212101'  MSGS 161 - 176        12230021
                                    2409 *                                                                       12240021
                                    2410 *              77787980818283848586878889909192                         12250021
 00158D 0121210101010101            2411        DC    X'01212101010101010101010101010101'  MSGS 177 - 192        12260021
1PH1B     IKFCBL1B                                                                                              PAGE   61
-  LOC  OBJECT CODE    ADDR1 ADDR2  STMT   SOURCE STATEMENT                                       ASM 0201 11.03 02/14/15
0                                   2413 *                                                                       12280021
                                    2414 *        GCN LOADING FOR NEXT-WORD                                      12290021
                                    2415 *                                                                       12300021
 00159D 00
 00159E D201 D371 C634 00C11 01C94  2416 WRNMSG   MVC   MSGGCN(LX2),NXTGCN        GCN TO MSG-TEXT                12310021
 0015A4 47F0 DD18      015B8        2417        BC    UNCOND,WRTRSV               -WRTRSV                        12320021
                                    2418 *        GCN LOADING FOR INSERT / DELETE                                12330021
 0015A8 D201 D371 C134 00C11 01794  2419 WRDMSG   MVC   MSGGCN(LX2),HWZERO        ZERO GCN FOR INS/DEL           12340021
 0015AE 47F0 DD18      015B8        2420        BC    UNCOND,WRTRSV               -WRTRSV                        12350021
                                    2421 *        GCN LOADING FOR CUR-WORD                                       12360021
 0015B2 D201 D371 C57E 00C11 01BDE  2422 WRTMSG   MVC   MSGGCN(LX2),CURGCN        GCN TO MSG-TEXT                12370021
                                    2423 *        CALC MSG NUMBER AND LOAD MSGNUM                                12380021
 0015B8 9013 D6D0      00F70        2424 WRTRSV STM   JA,JC,SV3F12               SAVE REG                        12390021
 0015BC 9102 D27E      00B1E        2425          TM    NOTESW,XX02               NOTESW 'ON'                    12400021
 0015C0 4710 DDAE      0164E        2426        BC    ONES,WRTXTA                 YES-WRTXTA                     12410021
 0015C4 4110 D910      011B0        2427        LA    JA,MSG1                    ADDR OF START OF MSGS           12420021
 0015C8 41FF 0000      00000        2428          LA    JQ,DX0(JQ)                CLEAR HI ORDER BYTE            12430021
 0015CC 1BF1                        2429        SR    JQ,JA                      GET DISPLACEMENT                12440021
 0015CE 88F0 0002      00002        2430          SRL   JQ,DX2(JR)                 DIVIDE BY 4                   12450021
 0015D2 42F0 D370      00C10        2431          STC   JQ,MSGNUM+NX1             STORE MSG-NUM IN MSG-TEXT      12460021
 0015D6 4110 DC3C      014DC        2432        LA    JA,SEVLST                  ADDR OF SEVLST                  12470021
 0015DA 433F 1000      00000        2433          IC    JC,DX0(JQ,JA)             GET SEVERITY CODE              12480021
 0015DE 4230 D373      00C13        2434        STC   JC,MSGSP                   STORE SEVERITY IN MSG-TEXT      12490021
                                    2435 *        WRITE OF ERROR MSG                                             12500021
 0015E2 5830 C6B0      01D10        2436        L     JC,COSADR                  WRITE OUT                       12510021
 0015E6 4120 D36C      00C0C        2437        LA    JB,MSGDEF                   MSG ON                         12520021
 0015EA 0503                        2438        BALR  JR,JC                         FILE                         12530021
 0015EC 22                          2439 WRERR1 DC    X'22'                          FILE XX                     12540021
                                    2440 *        SET UP OF PARAM LENGTH                                         12550021
 0015ED 00
 0015EE 9500 D376      00C16        2441 WRTSEC   CLI   EPARAM,XX00               PARAM PRESENT                  12560021
 0015F2 4780 DDAA      0164A        2442        BC    EQ,WRTEXT                   NO-WRTEXT                      12570021
 0015F6 95B9 D376      00C16        2443          CLI   EPARAM,XXB9               CODE FOR INVALID WORD          12580021
 0015FA 4770 DD64      01604        2444        BC    NOTEQ,WRTADR                NO-WRTADR                      12590021
 0015FE D201 D376 D377 00C16 00C17  2445          MVC   EPARAM(LX2),EPARAM+NX1     MOVE CODE OVER ONE            12600021
 001604 4120 D376      00C16        2446 WRTADR LA    JB,EPARAM                  ADDR OF EPARAM                  12610021
 001608 1711                        2447        XR    JA,JA                      CLEAR REG                       12620021
 00160A 95A2 D376      00C16        2448          CLI   EPARAM,XXA2               QUALIFIED NAME ?               12630021
 00160E 4770 DD76      01616        2449        BNE   *+8                        NO - SKIP                       12640021
 001612 9222 D376      00C16        2450          MVI   EPARAM,XX22               PH 7 WILL RECOGNIZE AS '22'    12650021
 001616 4312 0000      00000        2451          IC    JA,DX0(JB)                GET IC-TEXT CODE               12660021
 00161A 8810 0006      00006        2452          SRL   JA,DX6(JR)                 SHIFT RIGHT 6                 12670021
 00161E 1211                        2453        LTR   JA,JA                      TEST IF ZERO                    12680021
 001620 4770 DD8C      0162C        2454        BC    NOTZER,WRTADJ               NO-WRTADJ                      12690021
 001624 4312 0001      00001        2455          IC    JA,DX1(JB)                GET IC-TEXT 'N'                12700021
 001628 4111 0001      00001        2456          LA    JA,DX1(JA)                ADJ LENGTH FOR 'N'             12710021
 00162C 4111 0001      00001        2457 WRTADJ   LA    JA,DX1(JA)                ADJ LENGTH FOR CODE            12720021
 001630 4210 D375      00C15        2458          STC   JA,EPARNN+NX1             STORE IN PARAM 'N' FIELD       12730021
                                    2459 *        WRITE OF PARAM                                                 12740021
 001634 4120 D374      00C14        2460        LA    JB,EPARNN                  WRITE OUT                       12750021
 001638 0503                        2461        BALR  JR,JC                        PARAM ON                      12760021
 00163A 22                          2462 WRERR2 DC    X'22'                          FILE XX                     12770021
                                    2463 *        LOAD OF SECOND PARAM TO FIRST                                  12780021
 00163B 00
 00163C D21F D376 D3F0 00C16 00C90  2464          MVC   EPARAM(LX32),SECPAR       MOVE SECOND PARAM TO FIRST     12790021
1PH1B     IKFCBL1B                                                                                              PAGE   62
-  LOC  OBJECT CODE    ADDR1 ADDR2  STMT   SOURCE STATEMENT                                       ASM 0201 11.03 02/14/15
0001642 9200 D3F0      00C90        2465          MVI   SECPAR,XX00               ZERO SECPAR                    12800021
 001646 47F0 DD4E      015EE        2466        BC    UNCOND,WRTSEC               -WRTSEC                        12810021
                                    2467 *        EXIT FROM ERROR MSG ROUTINE                                    12820021
 00164A 9813 D6D0      00F70        2468 WRTEXT LM    JA,JC,SV3F12               RESTORE REGS                    12830021
 00164E 58F0 D890      01130        2469 WRTXTA L     JQ,LNKR15                  RESTORE BASE REG15              12840021
 001652 07FE                        2470        BCR   UNCOND,JP                   -RETURN                        12850021
                                    2471 *                                                                       12860021
 001654                             2472 SAVJQ1   DS    F                        SAVE JQ ( R15 )                 12870021
 001658 00006354                    2473 ADUMGN   DC    AL4(DUMGN)               ADDR OF DUMGN                   12880021
1PH1B     IKFCBL1B                                                                                              PAGE   63
-  LOC  OBJECT CODE    ADDR1 ADDR2  STMT   SOURCE STATEMENT                                       ASM 0201 11.03 02/14/15
0001660                             2475 IKF102 CSECT                                                            12900021
                                    2476 *                                                                       12910021
                                    2477 *=2         COMMON CONSTANT AREA                  ID   ENV  DATA PR     12920021
                                    2478 *                                                                       12930021
                             01660  2479 IDDIV1 EQU   *                                                          12940021
 001660                             2480        DS    CL15                        OF CURRENT DATE                12950021
 00166F 00
 001670 00005300                    2481 PRODV1 DC    A(EXHSVB)             ADDR OF EXHIBIT VERB SCAN            12960021
 001674 00001F68                    2482 HSKP2  DC    A(GETWD)              ADDR OF GETWD                        12970021
 001678 00003100                    2483 HSKP3  DC    A(GETDLM)             ADDR OF GETDLM                       12980021
 00167C 00003AC0                    2484 GTD1   DC    A(LETTER)             ADDR OF LETTER SCAN                  12990021
 001680 000024C8                    2485 ACBW   DC    A(COBWRD)             ADDR OF COBOL WORD TABLE             13000021
 001684 00004398                    2486 PRODIV DC    A(PDSCN)                   ADDR OF PRO DIV                 13010021
 001688 00003180                    2487 GETADR DC    A(UNLVSN)                  ADDR OF UNIT LEVEL SCAN         13020021
 00168C 000062D8                    2488 ADCON1 DC    AL4(VARPQ)                PHASE 1B                         13030021
                                    2489 *                                                                       13040021
 001690                             2490 SV1F13 DS    15F                        SAVE FOR CALLING COPY           13050021
 0016CC                             2491 GTWDSV DS    15F                        SAVE AREA FOR GETWD  REGS       13060021
 001708                             2492 GTCDSV DS    15F                        SAVE FOR GTCD REGS              13070021
 001744                             2493 SAVECD DS    CL80                  SAVE AREA FOR CARD RESTORE           13080021
                                    2494 *                                                                       13090021
 001794 0000                        2495 HWZERO DC    H'0'                       HALFWORD OF ZEROS               13100021
 001796 0001                        2496 HWONE  DC    H'1'                       HALFWORD OF +1                  13110021
                             01796  2497 H1     EQU   HWONE                                                      13120021
 001798 0002                        2498 HWTWO  DC    H'2'                       HALFWORD OF 2                   13130021
                             01798  2499 H2     EQU   HWTWO                                                      13140021
 00179A 0003                        2500 HWTHRE DC    H'3'                       HALFWORD OF +3                  13150021
 00179C 0004                        2501 HWFOUR DC    H'4'                       HALFWORD OF '4'                 13160021
 00179E 0005                        2502 H5     DC    H'5'                                                       13170021
 0017A0 0041                        2503 HW65   DC    H'65'                      HALF WORD OF 66                 13180021
 0017A2 0008                        2504 HW8    DC    H'8'                      HALFWORD OF EIGHT                13190021
 0017A4 7FFF                        2505 CON32K   DC    H'32767'            MAX SIZE FOR HALFWORD           9015 13200021
 0017A6 40C9D540                    2506 CINCON DC    C' IN '               CONSTANT OF 'IN'                     13210021
 0017AA                             2507 SVCURR DS    CL181                     SAVE AREA FOR CURENT CELLS       13220021
 00185F                             2508 FDSAVE   DS    CL31          SAVE FD                                    13230021
 00187E 0000
 001880 00000001                    2509 F1     DC    F'1'                  FULLWORD CONSTANT OF 00000001        13240021
 001884 FFFFFFFF                    2510 ALLFF  DC    F'-1'                 FULLWORD CONSTANT OF -1              13250021
 001888 00000002                    2511 K2     DC    F'2'                  FULLWORD CONSTANT OF 00000002        13260021
 00188C 00000007                    2512 K7     DC    F'7'                  FULLWORD CONSTANT OF 00000007        13270021
 001890 00000010                    2513 K16    DC    F'16'                 FULLWORD CONSTANT OF 16              13280021
 001894 00000011                    2514 K17    DC    F'17'                 FULLWORD CONSTANT OF 17              13290021
 001898 00000012                    2515 K18    DC    F'18'                 FULLWORD CONSTANT OF 18              13300021
 00189C 0000001E                    2516 K30    DC    F'30'                 FULLWORD CONSTANT OF 30              13310021
 0018A0 00000030                    2517 FWCONS DC    F'48'                      FULLWORD OF 00000030            13320021
 0018A4 00000078                    2518 K120   DC    F'120'                     FULWORD OF 120                  13330021
 0018A8 000000FF                    2519 NU255  DC    F'255'                     FULLWORD WITH 255               13340021
 0018AC 01000000                    2520 TWOP24 DC    F'16777216'           TWO TO THE 24TH POWER                13350021
 0018B0 3B9ACA00                    2521 TNPW9  DC    F'1000000000'         TEN TO THE 9TH POWER                 13360021
 0018B4 00000000
 0018B8 4110000000000000            2522 FLTONE DC    D'1'                  DOUBLEWORD CONSTANT OF 1             13370021
 0018C0 00                          2523 EOPPHX DC    X'00'                 ZERO CONSTANT                        13380021
 0018C1 7D                          2524 SNGLQ2 DC    X'7D'                 QUOTE                                13390021
 0018C2 0002                        2525 TOTCOT DC    H'2'                  CONSTANT OF 2                        13400021
                             018C3  2526 TOTCT  EQU   TOTCOT+1                                                   13410021
1PH1B     IKFCBL1B                                                                                              PAGE   64
-  LOC  OBJECT CODE    ADDR1 ADDR2  STMT   SOURCE STATEMENT                                       ASM 0201 11.03 02/14/15
00018C4                             2527 TOTPTR DS    1H                    DISPLACEMENT                         13420021
                                    2528 *                                                                       13430021
                                    2529 * TABLES                                                                13440021
                                    2530 *                                                                       13450021
 0018C6 0000
 0018C8 4AA7A358                    2531 PLSTBL DC    E'7.2E11'             TABLES                               13460021
 0018CC 6533A850                    2532        DC    E'7.2E43'             USE                                  13470021
 0018D0 7272B3DF                    2533        DC    E'7.2E59'             TO                                   13480021
 0018D4 792ABAE5                    2534        DC    E'7.2E67'             CONVERT                              13490021
 0018D8 7C685249                    2535        DC    E'7.2E71'             EIGHTEEN                             13500021
 0018DC 7E28C024                    2536        DC    E'7.2E73'             BYTES                                13510021
 0018E0 7F197817                    2537        DC    E'7.2E74'             EXTERNAL                             13520021
                                    2538 *                                                                       13530021
 0018E4 351851C7                    2539 NEGTBL DC    E'5.4E-15'            DECIMAL                              13540021
 0018E8 1A4EEBCC                    2540        DC    E'5.4E-47'            NUMBERS                              13550021
 0018EC 0D238AFB                    2541        DC    E'5.4E-63'            INTO                                 13560021
 0018F0 065F68E5                    2542        DC    E'5.4E-71'            DOUBLE                               13570021
 0018F4 03271470                    2543        DC    E'5.4E-75'            PRECISION                            13580021
 0018F8 01640B5C                    2544        DC    E'5.4E-77'            NUMBERS                              13590021
 0018FC 00A0122C                    2545        DC    E'5.4E-78'            *******                              13600021
                                    2546 *                                                                       13610021
 001900 76184F03E93FF9F5            2547 PWRTBL DC    D'1E64'               POWER                                13620021
 001908 5B4EE2D6D415B85B            2548        DC    D'1E32'               TABLE                                13630021
 001910 4E2386F26FC10000            2549        DC    D'1E16'               USE                                  13640021
 001918 475F5E1000000000            2550        DC    D'1E8'                IN                                   13650021
 001920 4427100000000000            2551        DC    D'1E4'                CONVERTING                           13660021
 001928 4264000000000000            2552        DC    D'1E2'                TO                                   13670021
 001930 41A0000000000000            2553        DC    D'1E1'                DOUBLE PRECISION                     13680021
                                    2554 *                                                                       13690021
 001938 00001938                    2555 TBLEND DC    A(PWRTBL+56)                                               13700021
                                    2556 *                                                                       13710021
                                    2557 ****************                                                        13720021
                                    2558 *                                                                       13730021
                                    2559 * TRT TABLE - SCANNING TO NON-DIGIT                                     13740021
                                    2560 *                                                                       13750021
                             0193C  2561 NONLDH EQU   *                          SCAN TO NON LETTER DIGIT HY     13760021
 00193C 0404040404040404            2562 UDIGT  DC    5X'040404040404040404040404040404'                         13770021
 001987 03                          2563        DC    X'03'                      PERIOD                          13780021
 001988 0404040404040404            2564        DC    2X'04040404040404040404'                                   13790021
 00199C 02                          2565 TBHYPN DC    X'02'                      MINUS SIGN                      13800021
 00199D 0404040404040404            2566        DC    6X'04040404040404040404040404040404'                       13810021
 0019FD 0101010101010101            2567 MSKLT1 DC    X'010101010101010101'      LETTERS                         13820021
 001A06 04040404040404              2568        DC    X'04040404040404'                                          13830021
 001A0D 0101010101010101            2569 MSKLT2 DC    X'010101010101010101'      LETTERS                         13840021
 001A16 0404040404040404            2570        DC    X'0404040404040404'                                        13850021
 001A1E 0101010101010101            2571 MSKLT3 DC    X'0101010101010101'        LETTERS                         13860021
 001A26 040404040404                2572        DC    X'040404040404'                                            13870021
 001A2C 0000000000000000            2573        DC    X'00000000000000000000'                                    13880021
 001A36 040404040404                2574        DC    X'040404040404'                                            13890021
                                    2575 ****************                                                        13900021
                                    2576 *                                                                       13910021
                                    2577 ***   TRT TABLE SCANNING TO NON-BLAND     **********                    13920021
                                    2578 *                                                                       13930021
                                    2579 *                                                                       13940021
 001A3C 0707070707070707            2580 UNONB  DC    4X'07070707070707070707070707070707' ILLEGAL CHARACTER     13950021
1PH1B     IKFCBL1B                                                                                              PAGE   65
-  LOC  OBJECT CODE    ADDR1 ADDR2  STMT   SOURCE STATEMENT                                       ASM 0201 11.03 02/14/15
0001A7C 00                          2581        DC    X'00'                          BLANK                       13960021
 001A7D 0707070707070707            2582        DC    X'07070707070707070707'                                    13970021
 001A87 04                          2583        DC    X'04'                          PERIOD                      13980021
 001A88 06                          2584        DC    X'06'                          LESS THAN SIGN              13990021
 001A89 06                          2585        DC    X'06'                          LEFT PAREN                  14000021
 001A8A 05                          2586        DC    X'05'                          PLUS SIGN                   14010021
 001A8B 0707070707070707            2587        DC    X'070707070707070707070707'                                14020021
 001A97 07                          2588        DC    X'07'                          DOLLAR SIGN-ILLEGAL         14030021
 001A98 06                          2589        DC    X'06'                          ASTERISK                    14040021
 001A99 06                          2590        DC    X'06'                          RIGHT PAREN                 14050021
 001A9A 08                          2591        DC    X'08'                          SEMI-COLON                  14060021
 001A9B 07                          2592        DC    X'07'                                                      14070021
 001A9C 05                          2593        DC    X'05'                          MINUS SIGN                  14080021
 001A9D 06                          2594        DC    X'06'                          SLASH                       14090021
 001A9E 0707070707070707            2595        DC    X'070707070707070707'                                      14100021
 001AA7 08                          2596        DC    X'08'                          COMMA                       14110021
 001AA8 0707                        2597        DC    X'0707'                                                    14120021
 001AAA 06                          2598        DC    X'06'                          GREATER THAN SIGN           14130021
 001AAB 0707070707070707            2599        DC    X'0707070707070707070707070707'                            14140021
 001AB9 03                          2600 TBQUT1 DC    X'03'                          QUOTE                       14150021
 001ABA 06                          2601        DC    X'06'                          EQUAL SIGN                  14160021
 001ABB 07                          2602 TBQUT2 DC    X'07'                           DOUBLE QUOTE               14170021
 001ABC 0707070707070707            2603        DC    13X'0707070707'                                            14180021
 001AFD 0101010101010101            2604 LETMSK DC    X'010101010101010101'          LETTERS                     14190021
 001B06 07070707070707              2605        DC    X'07070707070707'                                          14200021
 001B0D 0101010101010101            2606        DC    X'010101010101010101'          LETTERS                     14210021
 001B16 0707070707070707            2607        DC    X'0707070707070707'                                        14220021
 001B1E 0101010101010101            2608        DC    X'0101010101010101'            LETTERS                     14230021
 001B26 070707070707                2609        DC    X'070707070707'                                            14240021
 001B2C 0202020202020202            2610        DC    X'02020202020202020202'        DIGITS                      14250021
 001B36 070707070707                2611        DC    X'070707070707'                                            14260021
                                    2612 *                                                                       14270021
 001B40                             2613        DS    0D                                                         14280021
 001B40 7FFFFFFFFFFFFFFF            2614 MAXFLT DC    X'7FFFFFFFFFFFFFFF'                                        14290021
                             00060  2615 KHYPHN EQU   X'60'                 HYPHEN                               14300021
 001B48 407D                        2616 KQUOTE DC    X'407D'                    BLANK-QUOTE FOR COL 73+74       14310021
 001B4A C9D540                      2617 INKON  DC    C'IN '                CONSTANT OF 'IN'                     14320021
 001B4D D6C640                      2618 OFKON  DC    C'OF '                CONSTANT OF 'OF'                     14330021
 001B50 4B6B                        2619 KDECML DC    X'4B6B'                    CONSTANT FOR PERIOD-COMA        14340021
 001B52 42FF1E                      2620 EOPCON DC    X'42FF1E'                  CONSTANT FOR EOP                14350021
 001B55 54D604                      2621 REPCON DC    X'54D604'                  CONSTANT FOR REPORT NOT AS      14360021
 001B58 549902                      2622 PROCON DC    X'549902'                  CONSTANT FOR'PROCEDURE'IN P     14370021
 001B5B B90000                      2623 ERRCOD DC    X'B90000'                  ERROR CODE CELL  (PROC DIV)     14380021
 001B5E 4406                        2624 EOSCON DC    X'4406'                    CONSTANT FOR 'PERIOD'           14390021
 001B60 420842                      2625 ENDLCD DC    X'420842'                  CONSTANT FOR 'END-DECLAR'       14400021
 001B63 0301001C                    2626 INLONE DC    X'0301001C'                INT-NUM-LIT OF ONE FOR          14410021
 001B67 4209                        2627 DEBSCT DC    X'4209'                    CONSTANT FOR DEBUG SECTION      14420021
 001B69 00000000000005              2628 BUGCON DC    X'00000000000005'         1-USED FOR DEBUG FOLLOWED BY     14430021
 001B70 C4C5C2E4C740                2629 DEBKON DC    CL6'DEBUG '                2-CONSTANT OF 'DEBUG AND  0335  14440021
 001B76 40                          2630        DC    CL1' '                     MUST FOLLOW DEBKON        8922  14450021
 001B77 443B02                      2631 DEBCON DC    X'443B02'                  3-CONSTANT FOR '*DEBUG'         14460021
 001B7A 2348                        2632 CARDCN DC    X'2348'                    CONST FOR WRITE OF INS/DEL CD   14470021
 001B7C 32050400                    2633 INTNL4 DC    X'32050400'                CONSTANT FOR 'INTEG NUM LIT     14480021
 001B80 C9D5E2C5D9E340              2634 INSKON DC    C'INSERT '                 CONSTANT OF 'INSERT'      41557 14490021
 001B87 C4C5D3C5E3C540              2635 DELKON DC    C'DELETE '                 CONSTANT OF 'DELETE'      41557 14500021
1PH1B     IKFCBL1B                                                                                              PAGE   66
-  LOC  OBJECT CODE    ADDR1 ADDR2  STMT   SOURCE STATEMENT                                       ASM 0201 11.03 02/14/15
0001B8E 05035C0000                  2636 DUMCON DC    X'05035C0000'              CONSTANT OF 0503*0000'          14510021
 001B93 00                          2637 DICTRTN  DC    X'00'               RET CODE FROM LOC ATTRIB        7453 14520021
 001B94 0A                          2638 CPARAG DC    AL1(10)                    CONSTANT OF '10PARAGRAPH'       14530021
 001B95 D7C1D9C1C7D9C1D7            2639        DC    C'PARAGRAPH'          PARAGRAPH                            14540021
 001B9E 08                          2640 CSENTE DC    AL1(8)                     CONSTANT OF '8SENTENCE'         14550021
 001B9F E2C5D5E3C5D5C3C5            2641        DC    C'SENTENCE'           SENTENCE                             14560021
 001BA7 06                          2642 CCLAUS DC    AL1(6)                     CONSTANT OF '6CLAUSE'           14570021
 001BA8 C3D3C1E4E2C5                2643        DC    C'CLAUSE'             CLAUSE                               14580021
 001BAE 09                          2644 PRO9   DC    AL1(9)                     CONSTANT OF '9PROCEDURE'        14590021
 001BAF D7D9D6C3C5C4E4D9            2645        DC    C'PROCEDURE'          PROCEDURE                            14600021
                                    2646 *                                                                       14610021
                                    2647 * CURRENT WORD INFORMATION                                              14620021
 001BB8                             2648        DS    0F                                                         14630021
 001BB8 F0F0F0F0F0F0                2649 CURNUM DC    C'000000'             SEQUENCE NUMBER                      14640021
 001BBE                             2650 CURCNT DS    CL1                   COUNT FIELD                          14650021
 001BBF                             2651 CURWD  DS    CL30                  WORD                                 14660021
 001BDD                             2652 CURSW  DS    CL1                   CURSW                                14670021
 001BDE 0000                        2653 CURGCN DC    H'0'                      GENERATED CARD NUMBER            14680021
 001BE0                             2654 CURCOD DS    CL1                   CURRENT CODE                         14690021
 001BE1                             2655 CURN   DS    CL1                   IDENTIFY BYTE                        14700021
 001BE2                             2656 CURDCD DS    0CL1            CURDCD EQU CURBCD FIRST BYTE               14710021
 001BE2                             2657 CURBCD DS    CL120                 CURRENT BCD                          14720021
 001C5A                             2658 CURXNL DS    CL19                      EXTERNAL-NUM-LIT IN BCD W/SI     14730021
                                    2659 * NEXT WORD INFORMATION                                                 14740021
 001C6E                             2660        DS    0H                                                         14750021
 001C6E F0F0F0F0F0F0                2661 NXTNUM DC    C'000000'             NEXT SEQUENCE NUMBER                 14760021
 001C74                             2662 NXTCNT DS    CL1                   NEXT COUNT                           14770021
 001C75                             2663 NXTWD  DS    CL30                  NEXT WORD                            14780021
 001C93 00                          2664 NXTSW  DC    X'00'           80-BCD,08-INL,04-NONBLK,02-LHNP,01-A-M     14790021
 001C94 0000                        2665 NXTGCN DC    H'0'                      GENERATED CARD NUMBER            14800021
 001C96 F0                          2666 NXTCOD DC    CL1'0'                NEXT CODE                            14810021
 001C97                             2667 NXTN   DS    CL1                   NXTN                                 14820021
 001C98                             2668 NXTBCD DS    CL120                 BCD                                  14830021
                                    2669 *                                                                       14840021
                                    2670 *      THESE EQUATES ARE USED FOR IMPLEMENTOR NAME SCAN IN THE          14850021
                                    2671 *            SELECT SENTENCE SCAN                                       14860021
                                    2672 *                                                                       14870021
                             01C5B  2673 CURLIT EQU   CURXNL+1                                                   14880021
                             01BE5  2674 NNN    EQU   CURBCD+3                                                   14890021
                             01BE9  2675 BCDP   EQU   CURBCD+7                                                   14900021
                                    2676 *                                                                       14910021
1PH1B     IKFCBL1B                                                                                              PAGE   67
-  LOC  OBJECT CODE    ADDR1 ADDR2  STMT   SOURCE STATEMENT                                       ASM 0201 11.03 02/14/15
0                                   2678 *                                                                       14930021
                                    2679 *=2         TAMER ADCONS AND CONSTANTS            ID   ENV  DATA PR     14940021
                                    2680 *                                                                       14950021
 001D10 00000000                    2681 COSADR DC    A(0)                       ADDR OF COS                     14960021
 001D14 0000015C                    2682 ACCADR DC    A(DPARST)                  ADDR OF COS FOR ACCESS          14970021
                                    2683 *                                                                       14980021
 001D18 0000012C                    2684 ADPRIM DC    A(PRIME)                   PRIME                           14990021
 001D1C 00000130                    2685 ADSERT DC    A(INSERT)                  INSERT                          15000021
 001D20 00000134                    2686 ADSTAC DC  A(STATIC)               TAMER SUBROUTINE                     15010021
 001D24 00000138                    2687 ADTREL DC    A(TABREL)                  TABREL                          15020021
 001D28 0000013C                    2688 ADTAMN DC    A(TAMEIN)                  TAMEIN                          15030021
 001D2C 0000030C                    2689 ADINAC DC    A(INTACC)                  INTACC                          15040021
 001D30 00000638                    2690 ENNMCN DC    A(ENTNAM)                  ENTNAM                          15050021
 001D34 0000082C                    2691 ENDLCN DC    A(ENTDEL)                  ENTDEL                          15060021
 001D38 00000414                    2692 LATGCN DC    A(LATGRP)                  LATGRP                          15070021
 001D3C 00000414                    2693 LATRCN DC    A(LATRNM)                  LATRNM                          15080021
 001D40 00000414                    2694 LDELCN DC    A(LDELNM)                  LDELNM                          15090021
 001D44 00000414                    2695 LATPCN DC    A(LATRPT)                  LATRPT                          15100021
                                    2696 *                                                                       15110021
 001D48                             2697        DS    0F                                                         15120021
                             0001C  2698 P1BTBL EQU   TIB2-COS                                                   15130021
                             01D48  2699 P1BCON EQU   *                                                          15140021
 001D48 00                          2700 PARP1B DC    X'00'                 PASSES INFO                          15150021
 001D49 00001C                      2701        DC    AL3(P1BTBL)                  FROM PH1A TO PH1B             15160021
                             00014  2702 QLTABL EQU    TIB1-COS                                                  15170021
                             01D4C  2703 QLTCON EQU   *                                                          15180021
 001D4C 00                          2704 PARQLT DC    X'00'                      PARAM FOR QLTABL                15190021
 001D4D 000014                      2705        DC    AL3(QLTABL)           STORE QUALIFIED NAMES (TBLE)         15200021
 001D50 00640020                    2706        DC    X'00640020'                100 BYTES                       15210021
                                    2707 *APPTBL EQU TIB4-COS                                                    15220021
                                    2708 *APPCON EQU  *                                                          15230021
                                    2709 *PARAPP DC   X'00'                     PARAM FOR APPTBL                 15240021
                                    2710 *       DC   AL3(APPTBL)           APPTBL                               15250021
                             00034  2711 PNTABL EQU   TIB5-COS                                                   15260021
                             01D54  2712 PNTCON EQU   *                                                          15270021
 001D54 00                          2713 PARPNM DC    X'00'                     PARAM FOR PNTBL                  15280021
 001D55 000034                      2714        DC    AL3(PNTABL)           PROCEDURE NAME TABLE                 15290021
 001D58 0E100024                    2715        DC    X'0E100024'                3600 BYTES   100 ENTRIES        15300021
                             0003C  2716 PNQTBL EQU   TIB6-COS                                                   15310021
                             01D5C  2717 PNQCON EQU   *                                                          15320021
 001D5C 00                          2718 PARPQN DC    X'00'                     PARAM FOR PNQTBL                 15330021
 001D5D 00003C                      2719        DC    AL3(PNQTBL)           QUALIFIED PROCEDURE NAME TABLE       15340021
 001D60 0D480044                    2720        DC    X'0D480044'                3400 BYTES   50 ENTRIES         15350021
                             00044  2721 PIOTBL EQU   TIB7-COS                                                   15360021
                             01D64  2722 PIOCON EQU   *                                                          15370021
 001D64 00                          2723 PARPIO DC    X'00'                 STORE I/O INFO                       15380021
 001D65 000044                      2724        DC    AL3(PIOTBL)                  FROM PROCEDURE DI             15390021
                             0004C  2725 CKPTBL EQU   TIB8-COS                                                   15400021
                             01D68  2726 CKPCON EQU   *                                                          15410021
 001D68 0C                          2727 PARCKP DC    X'0C'                      PARAM FOR CKPTBL                15420021
 001D69 00004C                      2728        DC    AL3(CKPTBL)           CHECKPOINT TABLE                     15430021
                             00054  2729 OD2TBL EQU TIB9-COS                                                     15440021
                             01D6C  2730 OD2CON EQU   *                                                          15450021
 001D6C 00                          2731 PAROD2 DC    X'00'                 STORE OBJECT OF                      15460021
 001D6D 000054                      2732        DC    AL3(OD2TBL)                  OCCURS-DEPENDING              15470021
1PH1B     IKFCBL1B                                                                                              PAGE   68
-  LOC  OBJECT CODE    ADDR1 ADDR2  STMT   SOURCE STATEMENT                                       ASM 0201 11.03 02/14/15
0                            0005C  2733 FNTBL  EQU   TIB10-COS                                                  15480021
                             01D70  2734 FNTCON EQU   *                                                          15490021
 001D70 00                          2735 PARFNT DC    X'00'                                                      15500021
 001D71 00005C                      2736        DC    AL3(FNTBL)            ENVIRON. DIV INFOR FOR               15510021
                             00064  2737 RCDTBL EQU   TIB11-COS                    PROCEDURE DIV (FI             15520021
                             01D74  2738 RCDCON EQU   *                                                          15530021
 001D74 00                          2739 PARRCD DC    X'00'                 STORE 01 LEVEL REC NAME              15540021
 001D75 000064                      2740        DC    AL3(RCDTBL)                  IN FD                         15550021
                             000B4  2741 SPNTBL EQU   TIB21-COS                                                  15560021
                             01D78  2742 SPNCON EQU   *                                                          15570021
 001D78 00                          2743 PARSPN DC    X'00'                                                      15580021
 001D79 0000B4                      2744        DC    AL3(SPNTBL)           SPECIAL-NAME INFO                    15590021
                                    2745 *                                                                       15600021
                             000DC  2746 USETBL EQU   TIB26-COS                                            43521 15610021
                             01D7C  2747 USDCON EQU   *                                                    43521 15620021
 001D7C 03                          2748 USDECL DC    X'03'                 USE DECLARATIVE INFORMATION    43521 15630021
 001D7D 0000DC                      2749        DC    AL3(USETBL)           FOR PHASE51                    43521 15640021
 001D80 00200020                    2750        DC    X'00200020'           X                              43521 15650021
                                    2751 *                                                                 43521 15660021
                             0010C  2752 TOTTBL EQU   TIB32-COS                                                  15670021
                             01D84  2753 TOTCON EQU   *                                                          15680021
 001D84 00                          2754 PARTOT DC    X'00'                 TOTALED OPTIONS INFO                 15690021
 001D85 00010C                      2755        DC    AL3(TOTTBL)                  FOR PH1B AND PH20             15700021
 001D88 04                          2756 CALWD  DC    AL1(4)                    CONSTANT OF '4CALL'              15710021
 001D89 C3C1D3D3                    2757          DC    C'CALL'                 CONSTANT OF 'CALL'               15720021
 001D8D 05                          2758 ENTWD  DC    AL1(5)                    CONSTANT OF '5ENTRY'             15730021
 001D8E C5D5E3D9E8                  2759          DC    C'ENTRY'                CONSTANT OF 'ENTRY'              15740021
1PH1B     IKFCBL1B                                                                                              PAGE   69
-  LOC  OBJECT CODE    ADDR1 ADDR2  STMT   SOURCE STATEMENT                                       ASM 0201 11.03 02/14/15
0                                   2761 *                                                                       15760021
                                    2762 *=1    REPORT WRITER TAMER ADCONS AND CONSTANTS                         15770021
                                    2763 *                                                                       15780021
 001D94                             2764        DS    0F                        ALIGNMENT                        15790021
                             0006C  2765 RNMTBL EQU   TIB12-COS                                                  15800021
                             01D94  2766 RNMCON EQU   *                                                          15810021
 001D94 00                          2767 RNMTB  DC    X'00'                 STORE DATA NAME OF REPORT GROUP      15820021
 001D95 00006C                      2768        DC    AL3(RNMTBL)                  RNMTBL                        15830021
                             00074  2769 RWRTBL EQU   TIB13-COS                                                  15840021
                             01D98  2770 RWRCON EQU   *                                                          15850021
 001D98 00                          2771 RWRTB  DC    X'00'                 STORE INFO ON REPORT NAME            15860021
 001D99 000074                      2772        DC    AL3(RWRTBL)                  RWRTBL                        15870021
                             0008C  2773 ROUTBL EQU   TIB16-COS                                                  15880021
                             01D9C  2774 ROUCON EQU   *                                                          15890021
 001D9C 00                          2775 ROUTB  DC    X'00'                 ROUTBL                               15900021
 001D9D 00008C                      2776        DC    AL3(ROUTBL)                FOR OVFLO,PAGE,ETC. ROUTINE     15910021
                             00094  2777 DETTBL EQU   TIB17-COS                                                  15920021
                             01DA0  2778 DETCON EQU   *                                                          15930021
 001DA0 00                          2779 DETTB  DC    X'00'                 DETTBL                               15940021
 001DA1 000094                      2780        DC    AL3(DETTBL)                FOR DETAIL ROUTINES             15950021
1PH1B     IKFCBL1B                                                                                              PAGE   70
-  LOC  OBJECT CODE    ADDR1 ADDR2  STMT   SOURCE STATEMENT                                       ASM 0201 11.03 02/14/15
0                                   2782 *=2         REPORT WRITER CONSTANTS                                     15970021
                                    2783 *                  AND WORK AREAS                                       15980021
                                    2784 *CURRENT RD                                                             15990021
 001DA4 0000000000000000            2785 CURRD  DC    2XL16'0'              REPORT WRITER                        16000021
                             01DA6  2786 CURRDN EQU   CURRD+2               REPORT WRITER                        16010021
 001DC4 00000000                    2787 RDADR  DC    F'0'                       ADR OF CUR RD ENTRY             16020021
 001DC8 00000000                    2788 DETADR DC    F'0'                  REPORT WRITER                        16030021
 001DCC                             2789 DRWDSP DS    0H                         RD-NAME DISP IN RWTBL FOR D     16040021
 001DCC 0000                        2790        DC    X'0000'               REPORT WRITER                        16050021
 001DCE                             2791 RRWDSP DS    0H                    REPORT WRITER                        16060021
 001DCE 0000                        2792        DC    X'0000'               REPORT WRITER                        16070021
                                    2793 *                                                                       16080021
                                    2794 *TABLE ENTRY MUST STAY TOGETHER                                         16090021
 001DD0 0000000000000000            2795 RWDN   DC    2XL16'0'                   DATA-NM FOLL LVL *30 FOR 01     16100021
                             01DD2  2796 RWDN1  EQU   RWDN+2                     30 CHARS FOR DETAIL-NM TBL      16110021
 001DF0 0000                        2797 RWDNPR DC    X'0000'                    PAR  NAME                       16120021
 001DF2 00                          2798 ORGFLG DC    X'00'                      00 = NO SVE                     16130021
                                    2799 *SPECIAL REPORT WRITER VERBS                                            16140021
                                    2800 *RCALL DC    X'444F'                                                    16150021
 001DF3 445C                        2801 RORG   DC    X'445C'                    OVERLAY                         16160021
 001DF5 445D                        2802 RRORG  DC    X'445D'                    OLAY RESET                      16170021
 001DF7 4433                        2803 RNOP   DC    X'4433'                    NOP                             16180021
                                    2804 *GENERATED NAMES FOR STANDARD ROUTINES                                  16190021
                                    2805 ****   GNRH THRU GNRET MUST REMAIN IN THIS ORDER                        16200021
                                    2806 *                                                                       16210021
 001DF9 0000                        2807 GNRH   DC    X'0000'               REPORT WRITER                        16220021
 001DFB 0000                        2808 GNRF   DC    X'0000'               REPORT WRITER                        16230021
 001DFD 0000                        2809 GNPH   DC    X'0000'               REPORT WRITER                        16240021
 001DFF 0000                        2810 GNPF   DC    X'0000'               REPORT WRITER                        16250021
 001E01 0000                        2811 GNFRST DC    X'0000'               REPORT WRITER                        16260021
 001E03 0000                        2812 GNLAST DC    X'0000'               REPORT WRITER                        16270021
 001E05 0000                        2813 GNWR   DC    X'0000'               REPORT WRITER                        16280021
 001E07 0000                        2814 GNWRT1 DC    X'0000'                   GN FOR SKIP TO NEW PAGE          16290021
 001E09 0000                        2815 GNWRT2 DC    X'0000'                   GN FOR LAST PART OF WRT-ROUT     16300021
 001E0B 0000                        2816 GNCTLB DC    X'0000'               REPORT WRITER                        16310021
 001E0D 0000                        2817 GNROL  DC    X'0000'               REPORT WRITER                        16320021
 001E0F 0000                        2818 GNRST  DC    X'0000'               REPORT WRITER                        16330021
 001E11 0000                        2819 GNRST1 DC    X'0000'               REPORT WRITER                        16340021
 001E13 0000                        2820 GNCSUM DC    X'0000'               REPORT WRITER                        16350021
 001E15 0000                        2821 GNUSUM DC    X'0000'               REPORT WRITER                        16360021
 001E17 0000                        2822 GNCHF  DC    X'0000'               REPORT WRITER                        16370021
 001E19 0000                        2823 GNCFF  DC    X'0000'               REPORT WRITER                        16380021
 001E1B 0000                        2824 GNPH1  DC    X'0000'                    PH ENTRY FROM RH                16390021
 001E1D 0000                        2825 GNROL1 DC    X'0000'                    ENTRY FOR LAST CTL BRK          16400021
 001E1F 0000                        2826 GNINT  DC    X'0000'                   GN FOR INT-ROUT                  16410021
 001E21 0000                        2827 GNALS  DC    X'0000'                   GN FOR ALS-ROUT                  16420021
 001E23 0000                        2828 GNRLS  DC    X'0000'                   GN FOR RLS-ROUT                  16430021
 001E25 0000                        2829 GNSAV  DC    X'0000'                   GN FOR SAV-ROUT                  16440021
 001E27 0000                        2830 GNRET  DC    X'0000'                   GN FOR RET-ROUT                  16450021
                                    2831 *                                                                       16460021
 001E2A                             2832        DS    0H                                                         16470021
 001E2A 00                          2833        DC    X'00'                 REPORT WRITER                        16480021
 001E2B 88                          2834 GPTID  DC    X'88'                      USED TO GEN G.NNNN AT DEF       16490021
 001E2C 0000                        2835 GPTID1 DC    X'0000'                                                    16500021
                                    2836 *      REPORT CALL AREA                                                 16510021
1PH1B     IKFCBL1B                                                                                              PAGE   71
-  LOC  OBJECT CODE    ADDR1 ADDR2  STMT   SOURCE STATEMENT                                       ASM 0201 11.03 02/14/15
0001E2E 05                          2837 PUTCT3 DC    X'05'                 REPORT WRITER                        16520021
 001E2F 444F                        2838 RCALL  DC    X'444F'               REPORT WRITER                        16530021
 001E31 AA                          2839        DC    X'AA'                 REPORT WRITER                        16540021
 001E32 0000                        2840 RCGN   DC    X'0000'               REPORT WRITER                        16550021
                                    2841 *      REPORT GO AREA              REPORT WRITER                        16560021
 001E34 07                          2842 PUTCT4 DC   X'07'                  REPORT WRITER                        16570021
 001E35 4411                        2843 GOGEN  DC    X'4411'               REPORT WRITER                        16580021
 001E37 549B                        2844        DC    X'549B'               REPORT WRITER                        16590021
 001E39 AA                          2845 GOGNA  DC    X'AA'                 REPORT WRITER                        16600021
 001E3A 0000                        2846 GOGN   DC    X'0000'               REPORT WRITER                        16610021
                                    2847 *                                                                       16620021
 001E3C C940                        2848 SIDMOV DC    X'C940'                          CARD IDENT FOR            16630021
 001E3E                             2849 SIDEWK  DS   CL80                      INSER0 CARD WORKAREA             16640021
 001E8E 000000000000                2850 NMCRD4 DC    3H'0'                     NUMBER OF NEW MAIKN CARD         16650021
 001E94                             2851 PSA    DS    F                     STORE FOR R15 (COPY)                 16660021
 001E98                             2852 PSAVE    DS   F                    SAVE AREA                            16670021
                             01688  2853 ADUNLV  EQU  GETADR                                                     16680021
 001E9C 00                          2854 PTYSV  DC    X'00'                 PRIORITY DIFFER                      16690021
 001E9D 00                          2855 PTYSEG DC    X'00'                      BIT 7 ON IF 2 PTY'S DIFFER      16700021
                             01E9D  2856 DECSEG EQU   PTYSEG                     BIT 6 ON IF IN DECL             16710021
 001E9E 0000                        2857 NXASUM DC    H'0'                       SIZE OF LAST SUMTBL ENTRY       16720021
                                    2858 ***** THESE SAVEAREAS ARE FOR CALLING SUBRTNS                           16730021
 001EA0                             2859 SVCAL1 DS    1F                        VARPQ                            16740021
                                    2860 *                                                                       16750021
                                    2861 ***    THESE RTNS ARE CALLING SEQUENCES FOR RTNS THAT WILL USE R15(     16760021
                                    2862 ****    AS THE BASE REGISTER.                                           16770021
                                    2863 **************************                                              16780021
 001EA4 50F0 C840      01EA0        2864 VARPN  ST    JQ,SVCAL1                 CALL VARPQ                       16790021
 001EA8 58F0 C02C      0168C        2865        L     JQ,ADCON1             PHASE 1B                             16800021
 001EAC 50F0 D890      01130        2866        ST    JQ,LNKR15             STORE AREA                           16810021
 001EB0 07FF                        2867        BCR   UNCOND,JQ             BRANCH TO R15                        16820021
                                    2868 ********************                                                    16830021
                                    2869 **************                                                          16840021
 001EB2 50F0 D7C8      01068        2870 CQLFNM ST      JQ,SVCALP                SAVE R15                        16850021
 001EB6 58F0 D7CC      0106C        2871        L     JQ,ADPROM                  ADDR OF PN & QN SCAN            16860021
 001EBA 50F0 D890      01130        2872        ST    JQ,LNKR15                  SAVE IN KINK REG AREA           16870021
                             04398  2873        USING PDSCN,JQ                                                   16880021
 001EBE 47F0 F8FC      04C94        2874        B     CQLFAQ                     QUAL NM SCAN FOR COPYR          16890021
                                    2875        DROP  JQ                                                         16900021
1PH1B     IKFCBL1B                                                                                              PAGE   72
-  LOC  OBJECT CODE    ADDR1 ADDR2  STMT   SOURCE STATEMENT                                       ASM 0201 11.03 02/14/15
0001EC8                             2877 IKF103 CSECT                                                            16920021
                                    2878 *                                                                       16930021
                                    2879 **********                                                              16940021
                                    2880 *                                                                       16950021
                                    2881 *             PATCH AREA                                                16960021
                                    2882 *                                                                       16970021
 001EC8 0000000000000000            2883 PATCH3 DC    40F'0'                    PATCH AREA FOR 1B                16980021
                                    2884 *                                                                       16990021
                                    2885 *                                                                       17000021
                                    2886 **********                                                              17010021
                                    2887 *=1    COMMON ROUTINES                                                  17020021
                                    2888 *                                                                       17030021
                                    2889 *        CALLING ROUTINE FOR GET-WORD                                   17040021
                                    2890 *                                                                       17050021
 001F68 901F D61C      00EBC        2891 GETWD  STM   JA,JQ,SVREG                SAVE CALLING ROUTINES REGS      17060021
 001F6C 981F D658      00EF8        2892        LM    JA,JQ,SAVREG               SETUP GETWD REGS                17070021
 001F70 50F0 D890      01130        2893        ST    JQ,LNKR15                  SET-UP LINK REG15 AREA          17080021
 001F74 58F0 C028      01688        2894        L     JQ,GETADR                                                  17090021
                             03180  2895        USING   UNLVSN,JQ                                                17100021
 001F78 47F0 F00E      0318E        2896        BC    UNCOND,GTWORD               -GTWORD                        17110021
                                    2897        DROP    JQ                                                       17120021
 001F7C 901F D658      00EF8        2898 WRDEXT STM   JA,JQ,SAVREG               SAVE GETWD REGS                 17130021
 001F80 981F D61C      00EBC        2899        LM    JA,JQ,SVREG                RESTORE CALLING ROUTINES RE     17140021
 001F84 50F0 D890      01130        2900        ST    JQ,LNKR15                  SET-UP LINK REG15 AREA          17150021
 001F88 07FE                        2901        BCR   UNCOND,JP                   -RETURN                        17160021
                                    2902 *                                                                       17170021
                                    2903 *        CALLING ROUTINE FOR GET-CARD    (EXTERNAL FROM GET-WORD)       17180021
                                    2904 *                                                                       17190021
 001F8A 901F D61C      00EBC        2905 GETCRD STM   JA,JQ,SVREG                                                17200021
 001F8E 981F D658      00EF8        2906        LM    JA,JQ,SAVREG                                               17210021
 001F92 50F0 D890      01130        2907        ST    JQ,LNKR15                  SET-UP LINK REG15 AREA          17220021
 001F96 58F0 C028      01688        2908        L     JQ,GETADR                                                  17230021
                             03180  2909        USING   UNLVSN,JQ                                                17240021
 001F9A 45E0 F284      03404        2910        BAL   JP,GTCARD                  -GTCARD                         17250021
                                    2911        DROP    JQ                                                       17260021
 001F9E 47F0 B014      01F7C        2912        BC    UNCOND,WRDEXT               -WRDEXT                        17270021
                                    2913 *                                                                       17280021
                                    2914 *                                                                       17290021
                                    2915 *****    CHECK DIVISION NAME    *****                                   17300021
                                    2916 *                                                                       17310021
 001FA2 50E0 D6C8      00F68        2917 CHKDIV ST    JP,SV1F11                  SAVE LINK REG                   17320021
 001FA6 D21E D2C6 C55E 00B66 01BBE  2918          MVC   DIVNM(LX31),CURCNT        SAVE DIVISION NAME             17330021
 001FAC 47F0 B0F4      0205C        2919        BC    UNCOND,CHKGET               -CHKGET                        17340021
                                    2920 *                                                                       17350021
                                    2921 *****     EXIT FROM COMMON ROUTINES     *****                           17360021
                                    2922 *                                                                       17370021
 001FB0 45E0 B000      01F68        2923 CHKGOT BAL   JP,GETWD                   -GETWD                          17380021
 001FB4 58E0 D6C8      00F68        2924 CHKEXT L     JP,SV1F11                  RESTORE LINK REG                17390021
 001FB8 07FE                        2925        BCR   UNCOND,JP                  -RETURN                         17400021
                                    2926 *                                                                       17410021
                                    2927 *                                                                       17420021
                                    2928 *****    CHECK SECTION NAME IN PROCEDURE DIVISION    *****              17430021
                                    2929 *                                                                       17440021
 001FBA 50E0 D6C8      00F68        2930 CHKSKT ST    JP,SV1F11                  SAVE LINK REG                   17450021
 001FBE D21E D2E6 C55E 00B86 01BBE  2931          MVC   SECTNM(LX31),CURCNT  SAVE SECTION NAME                   17460021
1PH1B     IKFCBL1B                                                                                              PAGE   73
-  LOC  OBJECT CODE    ADDR1 ADDR2  STMT   SOURCE STATEMENT                                       ASM 0201 11.03 02/14/15
0001FC4 45E0 B000      01F68        2932        BAL   JP,GETWD              -GETWD 'SECTION'                     17470021
 001FC8 9200 D593      00E33        2933          MVI   LCPTY,XX00                INIT PRIORITY                  17480021
 001FCC D501 C636 C4FE 01C96 01B5E  2934          CLC   NXTCOD(LX2),EOSCON        IS THERE A PTY ON SN           17490021
 001FD2 4780 B0F4      0205C        2935        BC    EQ,CHKGET                  NO                              17500021
 001FD6 45E0 B000      01F68        2936        BAL   JP,GETWD                   YES                             17510021
 001FDA 9532 C580      01BE0        2937          CLI   CURCOD,XX32               IS IT A NUMLIT                 17520021
 001FDE 4770 B0D4      0203C        2938        BC    NOTEQ,PTYERR               NO                              17530021
 001FE2 9500 C583      01BE3        2939          CLI   CURN+NX2,XX00   DIGITS BELOW DECIMAL                5107 17540021
 001FE6 4770 B0D4      0203C        2940          BNE   PTYERR              YES GIVE MESSAGE                5107 17550021
 001FEA 9502 C582      01BE2        2941          CLI   CURN+NX1,XX02             IS PTY LESS THAN 100           17560021
 001FEE 4720 B0D4      0203C        2942        BC    HI,PTYERR                 NO                               17570021
 001FF2 45E0 B3C8      02330        2943        BAL   JP,CNVBIN                  YES,                            17580021
 001FF6 4220 D593      00E33        2944        STC   JB,LCPTY                   STORE BINARY VALUE              17590021
 001FFA 9500 D593      00E33        2945          CLI   LCPTY,XX00                                               17600021
 001FFE 4770 B0C8      02030        2946        BC    NOTEQ,CHKDEC          IN DECLARATIVES                      17610021
 002002 5810 C6B0      01D10        2947 CHKPTY L     JA,COSADR                                                  17620021
 002006 D500 D593 11D0 00E33 001D0  2948          CLC   LCPTY(LX1),SEGLMT        IS PTY GRTER THAN SEGLMT        17630021
 00200C 47B0 B0B0      02018        2949          BNL   PTYHI             YES                                    17640021
 002010 9200 D593      00E33        2950 CHKZER   MVI   LCPTY,XX00               NO MAKE PTY 0                   17650021
 002014 47F0 B0F4      0205C        2951        BC    UNCOND,CHKGET         ANY MORE                             17660021
 002018 D500 D593 C83C 00E33 01E9C  2952 PTYHI    CLC   LCPTY(LX1),PTYSV          DO ANY 2 PTYS DIFFER           17670021
 00201E 4780 B0F4      0205C        2953        BC    EQ,CHKGET                  NO                              17680021
 002022 D200 C83C D593 01E9C 00E33  2954          MVC   PTYSV(LX1),LCPTY          YES SAVE NEW PTY               17690021
 002028 9601 C83D      01E9D        2955          OI    PTYSEG,XX01               TURN SEGMENTATION BIT ON       17700021
 00202C 47F0 B0F4      0205C        2956        BC    UNCOND,CHKGET         ANY MORE                             17710021
 002030 9102 C83D      01E9D        2957 CHKDEC   TM    DECSEG,XX02                                              17720021
 002034 4710 B0D4      0203C        2958        BC    ONES,PTYERR           IN DECL FLAG ERROR                   17730021
 002038 47F0 B09A      02002        2959        BC    UNCOND,CHKPTY         CHECK PRIORITY                       17740021
 00203C 45E0 DB18      013B8        2960 PTYERR BAL   JP,MSG131                  MSG131-INVALID PTY  0 ASSUM     17750021
 002040 47F0 B0A8      02010        2961        B     CHKZER                MAKE PTY ZERO                        17760021
                                    2962 *                                                                       17770021
                                    2963 *****    CHECK PARAGRAPH NAME    *****                                  17780021
                                    2964 *                                                                       17790021
 002044 50E0 D6C8      00F68        2965 CHKPAR ST    JP,SV1F11                  SAVE LINK REG                   17800021
 002048 D21E D306 C55E 00BA6 01BBE  2966          MVC   PARNM(LX31),CURCNT        SAVE PARAGRAPH NAME            17810021
 00204E D209 D7AE C534 0104E 01B94  2967          MVC   ETYPE(LX10),CPARAG        INDICATE PARAGRAPH IN EFFEC    17820021
 002054 47F0 B0F4      0205C        2968        BC    UNCOND,CHKGET         ANY MORE                             17830021
                                    2969 *                                                                       17840021
                                    2970 *                                                                       17850021
                                    2971 *****     GET NEXT WORD + CHECK EOS     *****                           17860021
                                    2972 *                                                                       17870021
 002058 50E0 D6C8      00F68        2973 CHKEOS ST    JP,SV1F11                  SAVE LINK REG                   17880021
 00205C 45E0 B000      01F68        2974 CHKGET BAL   JP,GETWD                   -GETWD                          17890021
 002060 47F0 B100      02068        2975        BC    UNCOND,CHKEO2               -CHKEO2                        17900021
 002064 50E0 D6C8      00F68        2976 EOSTST ST    JP,SV1F11                  SAVE LINK REG                   17910021
 002068 D501 C580 C4FE 01BE0 01B5E  2977 CHKEO2   CLC   CURCOD(LX2),EOSCON        EOS                            17920021
 00206E 4770 B10E      02076        2978        BC    NOTEQ,CHKEO1                NO-CHKEO1                      17930021
 002072 47F0 B048      01FB0        2979        BC    UNCOND,CHKGOT               -CHKGOT                        17940021
 002076 45E0 D9B8      01258        2980 CHKEO1 BAL   JP,MSG43                   -MSG43                          17950021
 00207A 47F0 B04C      01FB4        2981        BC    UNCOND,CHKEXT               -CHKEXT                        17960021
                                    2982 *                                                                       17970021
                                    2983 *****    CHECK VERB NAME    *****                                       17980021
                                    2984 *                                                                       17990021
 00207E D21E D346 C55E 00BE6 01BBE  2985 CHKVRB   MVC   VERBNM(LX31),CURCNT       SAVE VERB NAME                 18000021
 002084 D209 D7AE C53E 0104E 01B9E  2986          MVC   ETYPE(LX10),CSENTE        INDICATE VERB IN EFFECT        18010021
1PH1B     IKFCBL1B                                                                                              PAGE   74
-  LOC  OBJECT CODE    ADDR1 ADDR2  STMT   SOURCE STATEMENT                                       ASM 0201 11.03 02/14/15
000208A 07FE                        2987        BCR   UNCOND,JP                   -RETURN                        18020021
                                    2988 *                                                                       18030021
                                    2989 *                                                                       18040021
                                    2990 ******    CHECK FOR    ******                                           18050021
                                    2991 *                                                                       18060021
 00208C 50E0 D6C8      00F68        2992 CHKFOR ST    JP,SV1F11                  SAVE LINK REG                   18070021
 002090 D501 C636 A0F4 01C96 025BC  2993          CLC   NXTCOD(LX2),FORCON                                       18080021
 002096 4770 B04C      01FB4        2994        BC    NOTEQ,CHKEXT          ALL THROUGH                          18090021
 00209A 47F0 B048      01FB0        2995        BC    UNCOND,CHKGOT         GET NEXT THEN EXIT                   18100021
                                    2996 *                                                                       18110021
                                    2997 *                                                                       18120021
                                    2998 *****     CHECK ON     *****                                            18130021
                                    2999 *                                                                       18140021
 00209E 50E0 D6C8      00F68        3000 CHKON  ST    JP,SV1F11                  SAVE LINK REG                   18150021
 0020A2 D501 C636 A043 01C96 0250B  3001          CLC   NXTCOD(LX2),ONCON                                        18160021
 0020A8 4770 B04C      01FB4        3002        BC    NOTEQ,CHKEXT          ALL THROUGH                          18170021
 0020AC 47F0 B048      01FB0        3003        BC    UNCOND,CHKGOT         GET NEXT THEN EXIT                   18180021
                                    3004 *                                                                       18190021
                                    3005 *****     GENERATE DIV OR SECT HEADER     *****                         18200021
                                    3006 *                                                                       18210021
 0020B0 9003 D6A0      00F40        3007 GENER1 STM   JR,JC,SV4F04                 SAVE LINK REGS                18220021
 0020B4 5810 C6B0      01D10        3008        L     JA,COSADR                   GENERATE                       18230021
 0020B8 182E                        3009        LR    JB,JP                        DIVISION  OR SECTION          18240021
 0020BA 0501                        3010        BALR  JR,JA                          HEADER                      18250021
 0020BC 23                          3011        DC    X'23'                         ON FILE 3                    18260021
 0020BD 00
 0020BE 9803 D6A0      00F40        3012        LM    JR,JC,SV4F04                 RESTORE LINK REGS             18270021
 0020C2 47FE 0002      00002        3013          BC    UNCOND,DX2(JP)             -RETURN-JP+2                  18280021
                                    3014 *                                                                       18290021
                                    3015 *                                                                       18300021
                                    3016 *****     CHECK FOR VALID EXTERNAL-NAME     *****                       18310021
                                    3017 *                                                                       18320021
 0020C6 50E0 D6C8      00F68        3018 EXTNA3 ST    JP,SV1F11                                                  18330021
 0020CA 9534 C580      01BE0        3019          CLI   CURCOD,XX34              IS IT ALPHALT(CALL ENTRY)       18340021
 0020CE 4770 B1F8      02160        3020        BNE   ERMSGA                    NO                               18350021
 0020D2 47F0 B190      020F8        3021        B     EXTNA4                CHECK LENGTH                         18360021
 0020D6 50E0 D6C8      00F68        3022 EXTNAM ST    JP,SV1F11                  SAVE LINK REG                   18370021
 0020DA 9108 C57D      01BDD        3023          TM    CURSW,XX08                INT NUM LIT                    18380021
 0020DE 4780 B184      020EC        3024        BZ    EXTNA5                    NO                               18390021
 0020E2 D21E C581 C55E 01BE1 01BBE  3025          MVC   CURN(LX31),CURCNT        MAKE NUM LIT INTO BCD FORM      18400021
 0020E8 47F0 B18C      020F4        3026        B     EXTNA6                CHECK LENGTH                         18410021
 0020EC 9523 C580      01BE0        3027 EXTNA5   CLI   CURCOD,XX23              BCD NAME                        18420021
 0020F0 4770 B1F8      02160        3028        BNE   ERMSGA                    NO                               18430021
 0020F4 9234 C580      01BE0        3029 EXTNA6   MVI   CURCOD,XX34                                              18440021
 0020F8 9508 C581      01BE1        3030 EXTNA4   CLI   CURN,XX08                LENGTH GREATER THAN 8           18450021
 0020FC 47D0 B19C      02104        3031        BC    NOTHI,ELENOK          NO                                   18460021
 002100 9208 C581      01BE1        3032          MVI   CURN,XX08                                                18470021
 002104 95F9 C582      01BE2        3033 ELENOK   CLI   CURBCD,XXF9              IS 1ST CHAR GREATER THAN 9      18480021
 002108 4720 B1BC      02124        3034        BH    EXTNA1                    YES                              18490021
 00210C 95F0 C582      01BE2        3035          CLI   CURBCD,XXF0              IS 1ST CHAR LESS THAN 0         18500021
 002110 4740 B1BC      02124        3036        BL    EXTNA1                    YES                              18510021
 002114 4780 B1B8      02120        3037        BE    EXTNA2                ZERO                                 18520021
 002118 94CF C582      01BE2        3038          NI    CURBCD,XXCF              MAKE FIRST CHAR A LETTER        18530021
 00211C 47F0 B1BC      02124        3039        B     EXTNA1                BRANCH AROUND                        18540021
 002120 92D1 C582      01BE2        3040 EXTNA2   MVI   CURBCD,XXD1               MAKE FIRST CHAR = J            18550021
1PH1B     IKFCBL1B                                                                                              PAGE   75
-  LOC  OBJECT CODE    ADDR1 ADDR2  STMT   SOURCE STATEMENT                                       ASM 0201 11.03 02/14/15
0002124 1722                        3041 EXTNA1 XR    JB,JB                                                      18560021
 002126 DD00 C582 C3DC 01BE2 01A3C  3042          TRT   CURBCD(LX1),UNONB         STARTS WITH LETTER             18570021
 00212C 4620 B1F8      02160        3043        BCT   JB,ERMSGA                   NO-ERMSGA (IF LETTER,JB HA     18580021
 002130                             3044 EXTHYP DS    0H                                                         18590021
 002130 4320 C581      01BE1        3045        IC    JB,CURN                    GET SIZE                        18600021
 002134 0620                        3046        BCTR  JB,JR                       REDUCE SIZE FOR 'EX'           18610021
 002136 45E0 B2FA      02262        3047        BAL   JP,NOLDI                    (SET UP TBL FOR NON L-D)       18620021
 00213A 4420 B204      0216C        3048        EX    JB,EXTRTS                  TEST FOR LEGAL CHARACTERS       18630021
 00213E 45E0 B312      0227A        3049        BAL   JP,NOLDO                    (RESET TBL)                    18640021
 002142 4780 B1EE      02156        3050        BC    ZERO,EXTNOH                YES - BLNKRTN                   18650021
 002146 9560 1000      00000        3051          CLI   DX0(R1),XX60              NO - HYPHEN ?                  18660021
 00214A 4770 B1F8      02160        3052        BNE   ERMSGA                     NO - ERROR                      18670021
 00214E 92F0 1000      00000        3053          MVI   DX0(R1),XXF0              YES - TO ZERO                  18680021
 002152 47F0 B1C8      02130        3054        B     EXTHYP                     RESCAN                          18690021
 002156                             3055 EXTNOH DS    0H                                                         18700021
 002156 45E0 B4D8      02440        3056        BAL   JP,BLNKRT                  -BLNKRT  (SET UP WITH BLANK     18710021
 00215A 58E0 D6C8      00F68        3057        L     JP,SV1F11                  RESTORE LINK REG                18720021
 00215E 07FE                        3058        BCR   UNCOND,JP                   -RETURN                        18730021
 002160 45E0 DA98      01338        3059 ERMSGA BAL   JP,MSG99                  MSG99 - INVALID AS USED          18740021
 002164 58E0 D6C8      00F68        3060        L     JP,SV1F11                  RESTORE LINK REG                18750021
 002168 47FE 0004      00004        3061          BC    UNCOND,DX4(JP)             -RETURN+4                     18760021
 00216C DD00 C582 C2DC 01BE2 0193C  3062 EXTRTS   TRT   CURBCD(LX0),NONLDH        'EX' TEST FOR LEGAL CHARACT    18770021
                                    3063 *                                                                       18780021
                                    3064 *****     CHECK FOR COPY LIBRARY-NAME     *****                         18790021
                                    3065 *                                                                       18800021
                                    3066 *                                                                       18810021
                                    3067 *                                                                       18820021
 002172 901F C030      01690        3068 CPYCUR STM   R1,R15,SV1F13              SAVE CALLING REGS               18830021
 002176 D501 C580 A14D 01BE0 02615  3069          CLC   CURCOD(LX2),COPYCN        CURRENT IS COPY ?              18840021
 00217C 4770 B2E2      0224A        3070        BC    NOTEQ,COPYNO                NO-COPYNO                      18850021
 002180 9601 D27D      00B1D        3071          OI    CPYCSW,XX01               SET 'ON' CPYCSW                18860021
                                    3072 *                                                                       18870021
 002184 94FE D27C      00B1C        3073 CPYCKA   NI    CPYXSW,XXFE         INITIALIZE CPYXSW                    18880021
 002188 9120 D285      00B25        3074 CPYCKB1  TM    SKCDSW,XX20         IS CARD SAVED                        18890021
 00218C 47E0 B22E      02196        3075          BNO   CPYCKB              NO                                   18900021
 002190 D201 D4C5 B2F4 00D65 0225C  3076          MVC   COMWRK+NX74(LX2),IDCOPY RESTORE COPY STMT ID             18910021
 002196 94BF D285      00B25        3077 CPYCKB   NI    NWCDSW,XXBF         SET NEW CD SW OFF                    18920021
 00219A D501 D4C5 B2F0 00D65 02258  3078          CLC   COMWRK+NX74(LX2),BADCOPY    GOOD COPY                    18930021
 0021A0 4780 B29E      02206        3079          BE    CPERR               NO - GET NEXT CLAUSE                 18940021
 0021A4 D501 D4C5 B2EE 00D65 02256  3080          CLC   COMWRK+NX74(LX2),COPYCON COPY STATEMENT                  18950021
 0021AA 4770 B252      021BA        3081          BNE   CPYCKD              NO                                   18960021
 0021AE 9601 D27C      00B1C        3082          OI    CPYXSW,XX01         SET ON CPYXSW                        18970021
 0021B2 45E0 B270      021D8        3083          BAL   JP,CPYLST           GET NEXT CARD                        18980021
 0021B6 47F0 B220      02188        3084          B     CPYCKB1       CONTINUE SCAN                        08009 18990021
                                    3085 *                                                                       19000021
 0021BA 9101 D27C      00B1C        3086 CPYCKD   TM    CPYXSW,XX01         GOOD COPY                            19010021
 0021BE 47E0 B2B6      0221E        3087          BNO   CPYCKC              NO - ISSUE DIAGNOSTIC                19020021
 0021C2 D501 D4C5 B2F2 00D65 0225A  3088          CLC   COMWRK+NX74(LX2),NOCPYMEM  NO COPY MEMBER FOUND          19030021
 0021C8 4770 B2BE      02226        3089          BNE   CPYCKE              RETURN                               19040021
 0021CC 9604 D284      00B24        3090          OI    CPERSW,XX04         INDICATE NO MEMBER FOUND             19050021
 0021D0 45E0 B270      021D8        3091          BAL   JP,CPYLST           BYPASS DUMMY, GET NEXT REC     05338 19060021
 0021D4 47F0 B2BE      02226        3092          B     CPYCKE              RETURN                               19070021
                                    3093 *                                                                       19080021
 0021D8 50E0 D754      00FF4        3094 CPYLST   ST    JP,SVRPRG           SAVE LINK REGISTER                   19090021
 0021DC 9120 D285      00B25        3095          TM    SKCDSW,XX20         IS CARD SAVED                        19100021
1PH1B     IKFCBL1B                                                                                              PAGE   76
-  LOC  OBJECT CODE    ADDR1 ADDR2  STMT   SOURCE STATEMENT                                       ASM 0201 11.03 02/14/15
00021E0 47E0 B284      021EC        3096          BNO   CPYLST1             NO - GETCARD                         19110021
 0021E4 45E0 B000      01F68        3097          BAL   JP,GETWD            GET LAST WORD                        19120021
 0021E8 47F0 B290      021F8        3098          B     CPYLST2             RETURN                               19130021
 0021EC 45E0 B022      01F8A        3099 CPYLST1  BAL   JP,GETCRD           GET NEXT CARD                        19140021
 0021F0 4170 D4C4      00D64        3100          LA    R7,COMWRK+NX73      AVOID GETTING LAST-WORD-SAVED        19150021
 0021F4 5070 D704      00FA4        3101          ST    R7,NBLPTR           IF CARD FOLLOWING COPY IS BLANK      19160021
 0021F8 9120 D27B      00B1B        3102 CPYLST2  TM    LCRDSW,XX20         LAST CD SET ON                       19170021
 0021FC 4710 B2A6      0220E        3103          BO    CNXCL               WRAP UP                              19180021
 002200 58E0 D754      00FF4        3104          L     JP,SVRPRG           RESTORE LINK REGISTER                19190021
 002204 07FE                        3105          BR    JP                  RETURN                               19200021
                                    3106 *                                                                       19210021
 002206 45E0 B270      021D8        3107 CPERR    BAL   JP,CPYLST           GET NEXT CARD                        19220021
 00220A 45E0 B000      01F68        3108          BAL   JP,GETWD            GET A WORD                           19230021
 00220E 45E0 B000      01F68        3109 CNXCL  BAL   JP,GETWD                   GET WORD                        19240021
 002212 9130 C580      01BE0        3110          TM    CURCOD,XX30               MAJOR IS ZERO ?                19250021
 002216 4780 B2E2      0224A        3111          BC    ZERO,COPYNO         EXIT                            1923 19260021
 00221A 47F0 B2A6      0220E        3112          B     CNXCL               GET WORD UNTIL NEW CLAUSE       1923 19270021
                                    3113 *                                                                       19280021
 00221E 45E0 D954      011F4        3114 CPYCKC BAL   JP,MSG18                   -MSG18                          19290021
 002222 47F0 B2A6      0220E        3115        B     CNXCL                     SCAN TO NEXT CLAUSE              19300021
 002226 94FB C633      01C93        3116 CPYCKE   NI    NXTSW,XXFB                SET 'OFF' NONBLANK SW          19310021
 00222A 45E0 B000      01F68        3117        BAL   JP,GETWD                   -GETWD                          19320021
 00222E D201 C580 C4FE 01BE0 01B5E  3118          MVC   CURCOD(LX2),EOSCON        SET UP EOS IN CURCOD           19330021
 002234 9101 D27D      00B1D        3119          TM    CPYCSW,XX01               CPYCSW 'ON' (FOR CUR CELL L    19340021
 002238 4780 B2DC      02244        3120        BC    ZERO,CPYCKF                 NO-CPYCKF                      19350021
 00223C 94FE D27D      00B1D        3121          NI    CPYCSW,XXFE               SET 'OFF' CPYCSW               19360021
 002240 45E0 B000      01F68        3122        BAL   JP,GETWD                   -GETWD    (LOAD CUR CELL)       19370021
                                    3123 *                                                                       19380021
 002244 981F C030      01690        3124 CPYCKF LM    R1,R15,SV1F13              RESTORE CALLING REGS            19390021
 002248 07FE                        3125        BCR   UNCOND,JP                   -RETURN                        19400021
 00224A 94FE D27C      00B1C        3126 COPYNO   NI    CPYXSW,XXFE               SET 'OFF' CPYXSW               19410021
 00224E 94FE D27D      00B1D        3127          NI    CPYCSW,XXFE              SET CPYCSW OFF                  19420021
 002252 47F0 B2DC      02244        3128        B    CPYCKF                     EXIT                             19430021
                                    3129 *   THE FOLLOWING CONSTANTS ARE PASSED TO                               19440021
                                    3130 *   PHASE 1 IN COLUMNS 74 - 75 OF THE CARD IMAGE.                       19450021
 002256 C3D6                        3131 COPYCON  DC    CL2'CO'                   PRE-PROCESSOR COPY             19460021
 002258 C3D7                        3132 BADCOPY  DC    C'CP'               BAD COPY INDICATOR                   19470021
 00225A C3D5                        3133 NOCPYMEM DC    C'CN'               NO COPY MEMBER FOUND                 19480021
 00225C                             3134 IDCOPY   DS    CL2                 SAVE FOR COPY STMT ID                19490021
                             02172  3135 INCLCK   EQU   CPYCUR                                                   19500021
                                    3136 *                                                                       19510021
                                    3137 *                                                                       19520021
                                    3138 *                                                                       19530021
                                    3139 *****     CHANGE UDIGT TBL TO NONLDH AND BACK AGAIN                     19540021
                                    3140 *                                                                       19550021
 00225E 9400 C33C      0199C        3141 NOLDHI   NI    TBHYPN,XX00               SET MINUS TO '0'               19560021
 002262 D708 C39D C39D 019FD 019FD  3142 NOLDI    XC    MSKLT1(LX9),MSKLT1        SET LETTERS TO '0'             19570021
 002268 D708 C3AD C3AD 01A0D 01A0D  3143          XC    MSKLT2(LX9),MSKLT2        SET LETTERS TO '0'             19580021
 00226E D707 C3BE C3BE 01A1E 01A1E  3144          XC    MSKLT3(LX8),MSKLT3                                       19590021
 002274 07FE                        3145        BCR   UNCOND,JP                   -RETURN                        19600021
                                    3146 *                                                                       19610021
 002276 9202 C33C      0199C        3147 NOLDHO   MVI   TBHYPN,XX02               RESTORE MINUS TO '2'           19620021
 00227A D208 C39D C49D 019FD 01AFD  3148 NOLDO    MVC   MSKLT1(LX9),LETMSK        RESTORE LETTERS TO '1'         19630021
 002280 D208 C3AD C49D 01A0D 01AFD  3149          MVC   MSKLT2(LX9),LETMSK        RESTORE LETTERS TO '1'         19640021
 002286 D207 C3BE C49D 01A1E 01AFD  3150          MVC   MSKLT3(LX8),LETMSK        RESTORE LETTERS TO '1'         19650021
1PH1B     IKFCBL1B                                                                                              PAGE   77
-  LOC  OBJECT CODE    ADDR1 ADDR2  STMT   SOURCE STATEMENT                                       ASM 0201 11.03 02/14/15
000228C 07FE                        3151        BCR   UNCOND,JP                   -RETURN                        19660021
                                    3152 *                                                                 43521 19670021
 00228E 000000                      3153 USAREA DC    XL3'00'                    USE DECLARATIVE WORKAREA  43521 19680021
 002291 000000
 002294 0000000000000000            3154 USESAV DC    5F'0'                      USE DECLARATIVE SAVEAREA  43521 19690021
 0022A8 00000000                    3155 USEJP  DC    F'0'                       X                         43521 19700021
                                    3156 *                                                                 43521 19710021
                                    3157 *                                                                       19720021
1PH1B     IKFCBL1B                                                                                              PAGE   78
-  LOC  OBJECT CODE    ADDR1 ADDR2  STMT   SOURCE STATEMENT                                       ASM 0201 11.03 02/14/15
0                                   3159 *                                                                       19740021
                                    3160 ******  C-CALL INSERT FOR SPECIFIED TAMER TABLE                         19750021
                                    3161 *                                                                       19760021
 0022AC 1812                        3162 MVSERT LR    JA,JB                      ADDR OF TABLE                   19770021
 0022AE 58F0 C6BC      01D1C        3163 MVSRT2 L     JQ,ADSERT                  ADDR OF INSERT                  19780021
 0022B2 9200 1000      00000        3164          MVI   DX0(JA),XX00              SET TIB 'N' TO '0'             19790021
 0022B6 9110 D27A      00B1A        3165          TM    OD2SW,XX10                TEST IF OD2                    19800021
 0022BA 4780 B35A      022C2        3166        BC    ZERO,MVSERA                 NO-MVSERA                      19810021
 0022BE 4144 0002      00002        3167          LA    JD,DX2(JD)                ADJ SIZE FOR COUNT HW          19820021
 0022C2 1804                        3168 MVSERA LR    JR,JD                      SIZE OF ENTRY TO REG JR         19830021
 0022C4 50E0 D7A0      01040        3169        ST    JP,REGWOK                  SAVE RETURN REG                 19840021
 0022C8 05EF                        3170        BALR  JP,JQ                      CALL INSERT TO TAMMER           19850021
 0022CA 58E0 D7A0      01040        3171        L     JP,REGWOK                  RESTORE RETURN REG              19860021
 0022CE 58F0 D654      00EF4        3172          L     JQ,SVREG+NX56             RESTORE REG 15                 19870021
 0022D2 4122 0000      00000        3173          LA    JB,DX0(JB)                CLEARS HI-ORDER BYTE           19880021
 0022D6 5020 D7D8      01078        3174        ST    JB,ABSADD                  SAV ABSOLUTE ADDR OF ENTRY      19890021
 0022DA 4030 D7DE      0107E        3175        STH   JC,PONTER                  SAVE POINTER (SIZE) OF ENTR     19900021
 0022DE 9110 D27A      00B1A        3176 MVQLMV   TM    OD2SW,XX10                TEST IF OD2                    19910021
 0022E2 4780 B390      022F8        3177        BC    ZERO,MVQLMT                 NO-MVQLMT                      19920021
 0022E6 D201 2000 D7DC 00000 0107C  3178          MVC   DX0(LX2,JB),SAVSIZ         PUT QUAL-NAMES SIZE IN TABL   19930021
 0022EC 4122 0002      00002        3179          LA    JB,DX2(JB)                ADJ ADDR PAST COUNT HW         19940021
 0022F0 4040 D7DC      0107C        3180        STH   JD,SAVSIZ                  SAVE ADJ SIZE                   19950021
 0022F4 4B40 C138      01798        3181        SH    JD,HWTWO                   REDUCE SIZE FOR COUNT HW        19960021
                             022F8  3182 MVQLMT EQU   *                                                          19970021
                                    3183 *                                                                       19980021
                                    3184 ******  E-MOVE ANY SIZE AREA TO ANY OTHER AREA                          19990021
                                    3185 *                                                                       20000021
 0022F8 5940 C248      018A8        3186 MVSTOR C     JD,NU255                   MORE THAN 255 BYTES TO MOVE     20010021
 0022FC 47D0 B3AE      02316        3187        BC    NOTHI,MVTXMV                NO-MVTXMV                      20020021
 002300 D2FE 2000 7000 00000 00000  3188          MVC   DX0(LX255,JB),DX0(JG)      MOVE 255 BYTES TO OUTPUT AR   20030021
 002306 5E70 C248      018A8        3189        AL    JG,NU255                   INCREASE 'FROM' ADDR BY 255     20040021
 00230A 5E20 C248      018A8        3190        AL    JB,NU255                   INCREASE 'TO' ADDR BY 255       20050021
 00230E 5B40 C248      018A8        3191        S     JD,NU255                   REDUCE SIZE BY 255              20060021
 002312 47F0 B390      022F8        3192        BC    UNCOND,MVSTOR               -MVSTOR                        20070021
 002316 0640                        3193 MVTXMV BCTR  JD,JR                       REDUCE SIZE FOR EXECUTE MO     20080021
 002318 4440 B3C2      0232A        3194        EX    JD,TXMOVE                  EXECUTE MOVE TO OUTPUT          20090021
 00231C 948F D27A      00B1A        3195 MVEXIT   NI    OD2SW,XX8F                SET'OFF' QUAL INSR OD2SW       20100021
 002320 07FE                        3196        BCR   UNCOND,JP                   -RETURN                        20110021
 002322 948F D27A      00B1A        3197 MVEREX   NI    OD2SW,XX8F                SET'OFF' QUAL INSR OD2SW       20120021
 002326 47FE 0004      00004        3198          BC    UNCOND,DX4(JP)             -RETURN +4 'ERROR'            20130021
                                    3199 *                                                                       20140021
                                    3200 ******  F-EXECUTE 'MOVE' INSTRUCTION                                    20150021
                                    3201 *                                                                       20160021
 00232A D200 2000 7000 00000 00000  3202 TXMOVE   MVC   DX0(LX0,JB),DX0(JG)        'EXECUTE MOVE' INSTRUCTION    20170021
                                    3203 *                                                                       20180021
1PH1B     IKFCBL1B                                                                                              PAGE   79
-  LOC  OBJECT CODE    ADDR1 ADDR2  STMT   SOURCE STATEMENT                                       ASM 0201 11.03 02/14/15
0                                   3205 *                                                                       20200021
                                    3206 ******    CONVERT INTEGRAL NUMERIC LITERAL TO BINARY    ******          20210021
                                    3207 *                                                                       20220021
 002330 1F11                        3208 CNVBIN SLR   JA,JA                      CLEAR REG                       20230021
 002332 4310 C581      01BE1        3209        IC    JA,CURN                    N TO REG                        20240021
 002336 4B10 C13A      0179A        3210        SH    JA,HWTHRE                  ADJUST FOR 2ND LENGTH           20250021
 00233A 5610 C240      018A0        3211        O     JA,FWCONS                  ADJUST FOR FIRST LENGTH         20260021
 00233E 4410 B3E0      02348        3212        EX    JA,ROPUT                   MODIFY LGNTH                    20270021
 002342 4F20 D798      01038        3213        CVB   JB,WORKDA                  CONVERT TO BINARY               20280021
 002346 07FE                        3214          BCR   UNCOND,JP           RETURN TO CALLER                     20290021
 002348 F870 D798 C584 01038 01BE4  3215 ROPUT    ZAP   WORKDA,CURBCD+NX2(LX0)    LITERAL TO WORKA               20300021
1PH1B     IKFCBL1B                                                                                              PAGE   80
-  LOC  OBJECT CODE    ADDR1 ADDR2  STMT   SOURCE STATEMENT                                       ASM 0201 11.03 02/14/15
0                                   3217 *                                                                       20320021
                                    3218 *****     SEARCH OF ANY CONSTANT ENTRY SIZE TAMER TABLE     *****       20330021
                                    3219 *                                                                       20340021
                                    3220 *    ADDR OF NAME TO BE LOOKED UP MUST BE IN REG JG                     20350021
                                    3221 *    NAME IS IN FORM OF  N/NAME - ONLY'NAME'IS COMPARED                 20360021
                                    3222 *    REG USED JB JC JD JE JF                                            20370021
                                    3223 *    REG JB HAS ADDR OF ENTRY START ON EXIT                             20380021
                                    3224 *                                                                       20390021
 00234E 5860 C724      01D84        3225 SCHTOT L     JF,TOTCON                 TOTTBL TIB                TO     20400021
 002352 4150 0022      00022        3226          LA    JE,DX34                  SIZE OF ENTRY                   20410021
 002356 1B44                        3227        SR    JD,JD                      DISP OF FNTBL PTR               20420021
 002358 47F0 B438      023A0        3228        B     SCHSCN                SEARCH TABLE                         20430021
                                    3229 *                                                                       20440021
 00235C 5860 C710      01D70        3230 SCHFNT L     JF,FNTCON             FNTBL TIB                     FN     20450021
 002360 4150 0030      00030        3231        LA    JE,FNSIZ                   SIZE OF ENTRY            48     20460021
 002364 4140 0011      00011        3232        LA    JD,FNWFND                  DISP OF FN IN ENTRY      16     20470021
 002368 47F0 B438      023A0        3233        BC    UNCOND,SCHSCN          -SCHSCN                             20480021
                                    3234 *                                                                       20490021
 00236C 5860 C714      01D74        3235 SCHRCT L     JF,RCDCON                  RCDTBL TIB               RC     20500021
 002370 4150 0022      00022        3236          LA    JE,DX34(JR)                SIZE OF ENTRY            3    20510021
 002374 4140 0002      00002        3237          LA    JD,DX2(JR)                 DISPL OF RECORD-NAME     0    20520021
 002378 47F0 B438      023A0        3238        BC    UNCOND,SCHSCN               -SCHSCN                        20530021
                                    3239 *                                                                       20540021
                                    3240 *SCHAPT L    JF,APPCON                   APPTBL TIB                     20550021
                                    3241 *       LA   JE,66                     SIZE OF ENTRY                    20560021
                                    3242 *       LA   JD,4                      DISP OF SN IN ENTRY              20570021
                                    3243 *       B    SCHSCN                                                     20580021
                                    3244 *                                                                       20590021
 00237C 9523 C580      01BE0        3245 SCHSPN   CLI   CURCOD,XX23               BCD NAME                       20600021
 002380 4780 B422      0238A        3246        BE    SCHSP2                     YES                             20610021
 002384 94BF D279      00B19        3247          NI    SCHSW,XXBF                NAME NOT FOUND                 20620021
 002388 07FE                        3248        BR    JP                    RETURN TO CALLER                     20630021
 00238A 4140 0003      00003        3249 SCHSP2   LA    JD,DX3                    DISP OF MNEMONIC NAME          20640021
 00238E 5860 C718      01D78        3250 SCHSP1 L     JF,SPNCON                  SPNTBL                          20650021
 002392 4150 0022      00022        3251          LA    JE,DX34                   SIZE OF ENTRY                  20660021
 002396 47F0 B438      023A0        3252        B     SCHSCN                SEARCH TABLE                         20670021
 00239A 1B44                        3253 SCHSPT SR    JD,JD                      DISP OF WORD IN ENTRY           20680021
 00239C 47F0 B426      0238E        3254        B     SCHSP1                SET UP FOR ZERO DISP                 20690021
                                    3255 *****     SEARCH SCAN     *****                                         20700021
                                    3256 *                                                                       20710021
 0023A0                             3257 SCHSCN DS    0H                                                         20720021
 0023A0 5866 0000      00000        3258          L     JF,DX0(JF)                ADDR OF TAMM                   20730021
 0023A4 5826 0000      00000        3259          L     JB,DX0(JF)                ADDR OF START OF TABLE         20740021
 0023A8 4124 2000      00000        3260          LA    JB,DX0(JD,JB)             ADDR OF FIELD IN ENTRY         20750021
 0023AC 4866 0004      00004        3261          LH    JF,DX4(JF)                SIZE OF TABLE                  20760021
 0023B0 1266                        3262        LTR   JF,JF                      IS TABLE EMPTY                  20770021
 0023B2 4780 B48E      023F6        3263        BC    ZERO,SCHZER                 YES-SCHZER                     20780021
 0023B6 4040 D7E4      01084        3264        STH   JD,SCHSAV                  SAVE ADJ FACTOR                 20790021
 0023BA 1B33                        3265        SR    JC,JC                      CLEAR REG                       20800021
 0023BC 1B44                        3266        SR    JD,JD                      CLEAR REG                       20810021
 0023BE 4347 0000      00000        3267 SCHCM1   IC    JD,DX0(JG)                SIZE OF NAME                   20820021
 0023C2 4040 D7C4      01064        3268 SCHCM2 STH   JD,SCHPTR                  SAVE SIZE                       20830021
 0023C6 4440 B47A      023E2        3269 SCHCOM EX    JD,SCHCMP                  NAMES EQUAL                     20840021
 0023CA 4770 B480      023E8        3270        BC    NOTEQ,SCHNXT                NO-SCHNXT                      20850021
 0023CE 9101 D295      00B35        3271          TM    RCDSW1,XX01         IS RCDTBL BEING SEARCHED             20860021
1PH1B     IKFCBL1B                                                                                              PAGE   81
-  LOC  OBJECT CODE    ADDR1 ADDR2  STMT   SOURCE STATEMENT                                       ASM 0201 11.03 02/14/15
00023D2 4710 B498      02400        3272        BC    ONES,CHKFN                YES                              20870021
 0023D6 9640 D279      00B19        3273 RCDNQL   OI    SCHSW,XX40               YES SET SWITCH ON               20880021
 0023DA 4030 D7C6      01066        3274          STH   JC,SCHPTR+NX2             SAVE DISPLACEMENT              20890021
 0023DE 47F0 B492      023FA        3275        BC    UNCOND,SCHEXT               -SCHEXT                        20900021
 0023E2 D500 2000 7000 00000 00000  3276 SCHCMP   CLC   DX0(LX0,JB),DX0(JG)        COMPARE OF'NAME''EX'          20910021
 0023E8 4125 2000      00000        3277 SCHNXT   LA    JB,DX0(JE,JB)             GET NEXT ADDRESS               20920021
 0023EC 4135 3000      00000        3278          LA    JC,DX0(JE,JC)             ACCUMULATE SIZE                20930021
 0023F0 1936                        3279        CR    JC,JF                      SIZE EQUAL-END OF TABLE         20940021
 0023F2 4740 B45E      023C6        3280        BC    LO,SCHCOM                   NO-SCHCOM                      20950021
 0023F6 94BF D279      00B19        3281 SCHZER   NI    SCHSW,XXBF                NAME NOT FOUND - SWITCH 'OF    20960021
 0023FA 4B20 D7E4      01084        3282 SCHEXT SH    JB,SCHSAV                  ADJ ADDR TO START OF ENTRY      20970021
 0023FE 07FE                        3283        BCR   UNCOND,JP                   -EXIT                          20980021
                                    3284 *      THIS RTN CHECKS IF THE FOUND RECORD NAME IN THE RCDTBL           20990021
                                    3285 *      IS QUALIFIED BY THE FILE NAME USED IN THIS PARTICULAR WRITE.     21000021
 002400 95A2 C580      01BE0        3286 CHKFN    CLI   CURCOD,XXA2              IS RCD QUALIFIED                21010021
 002404 4770 B46E      023D6        3287        BC    NOTEQ,RCDNQL              NO                               21020021
 002408 50E0 D6C8      00F68        3288        ST    JP,SV1F11                                                  21030021
 00240C 1812                        3289        LR    JA,JB                                                      21040021
 00240E 4B10 D7E4      01084        3290        SH    JA,SCHSAV                 SET ENTRY ADDR TO FN PTR         21050021
 002412 4811 0000      00000        3291          LH    JA,DX0(JA)               FNTBL PTR                       21060021
 002416 58E0 C710      01D70        3292        L     JP,FNTCON                 FNTBL TIB                        21070021
 00241A 58EE 0000      00000        3293          L     JP,DX0(JP)               FNTBL TAMM                      21080021
 00241E 58EE 0000      00000        3294          L     JP,DX0(JP)               FNTBL ADDR                      21090021
 002422 41E1 E011      00011        3295        LA    JP,FNWFND(JA,JP)           ADDR OF FN IN FNTBL ENTRY       21100021
 002426 4310 C1FF      0185F        3296          IC    JA,FDSAVE     GET LENGTH OF FILE NAME                    21110021
 00242A 4410 B4D2      0243A        3297        EX    JA,CMPFN        COMPARE FILE NAME OF QUAL RCD              21120021
 00242E 58E0 D6C8      00F68        3298        L     JP,SV1F11                                                  21130021
 002432 4780 B46E      023D6        3299        BC    EQ,RCDNQL                 TO FILE OF FOUND RCD NAME        21140021
 002436 47F0 B480      023E8        3300        BC    UNCOND,SCHNXT             NO CONTINUE SEARCH IN RCDTBL     21150021
 00243A D500 E000 C1FF 00000 0185F  3301 CMPFN    CLC   DX0(LX0,JP),FDSAVE                                       21160021
                                    3302 *                                                                       21170021
                                    3303 *****     BLNKRT - SET UP CURBCD W/BLANKS IN CURWD     *****            21180021
                                    3304 *                                                                       21190021
 002440 9240 C55F      01BBF        3305 BLNKRT   MVI   CURWD,XX40                SET CURWD (30 BYTES)           21200021
 002444 D21C C560 C55F 01BC0 01BBF  3306          MVC   CURWD+NX1(LX29),CURWD        TO BLANKS                   21210021
 00244A 4340 C581      01BE1        3307        IC    JD,CURN                    GET LENGTH OF WORD              21220021
 00244E 4120 C55E      01BBE        3308        LA    JB,CURCNT                  GET ADDR OF CURCNT              21230021
 002452 4170 C581      01BE1        3309        LA    JG,CURN                    GET ADDR OF CURN                21240021
 002456 4440 B3C2      0232A        3310        EX    JD,TXMOVE                  EX - MOVE NAME TO BLANK FIE     21250021
 00245A 07FE                        3311        BCR   UNCOND,JP                   -RETURN                        21260021
                                    3312 *                                                                       21270021
                                    3313 *****     GENA-B-R  PUT ON FILE TWO     *****                           21280021
                                    3314 *                                                                       21290021
 00245C 4160 C580      01BE0        3315 GENA   LA    JF,CURCOD                  ADDR OF CURCOD TO BE PUT        21300021
 002460 9003 D6A0      00F40        3316 GENB   STM   JR,JC,SV4F04                 SAVE REG                      21310021
 002464 5810 C6B0      01D10        3317        L     JA,COSADR                   ADDR OF COS                    21320021
 002468 1826                        3318        LR    JB,JF                       PUT TO                         21330021
 00246A 0501                        3319        BALR  JR,JA                         FILE                         21340021
 00246C 22                          3320        DC    X'22'                        TWO                           21350021
 00246D 00
 00246E 9803 D6A0      00F40        3321        LM    JR,JC,SV4F04                 RESTORE REG                   21360021
 002472 07FE                        3322        BCR   UNCOND,JP                   -RETURN                        21370021
                                    3323 *                                                                       21380021
                                    3324 *                                                                       21390021
                                    3325 *                                                                       21400021
1PH1B     IKFCBL1B                                                                                              PAGE   82
-  LOC  OBJECT CODE    ADDR1 ADDR2  STMT   SOURCE STATEMENT                                       ASM 0201 11.03 02/14/15
0                                   3326 *                                                                       21410021
                                    3327 *GENERATE UNIQUE GN FOR PROCEDURE NAME                                  21420021
                                    3328 *                                                                       21430021
 002474 5810 C6B0      01D10        3329 GNGN   L     JA,COSADR                                                  21440021
 002478 4830 115E      0015E        3330        LH    JC,GNCTR                                                   21450021
 00247C 4133 0001      00001        3331          LA    JC,DX1(JC)                                               21460021
 002480 4030 115E      0015E        3332        STH   JC,GNCTR                                                   21470021
 002484 4030 C7CC      01E2C        3333        STH   JC,GPTID1                                                  21480021
 002488 07FE                        3334        BCR   UNCOND,JP             RETURN TO CALLER                     21490021
                                    3335 *                                                                       21500021
                                    3336 *REPORT CALL G.NNNN                                                     21510021
                                    3337 *  G.NNN IS IN RCGN - ROUTINE GENERATES RPT-CALL G.NNN ON FILE-2        21520021
 00248A 50E0 D6E0      00F80        3338 GNRCLL ST    JP,JPSAVE                                                  21530021
 00248E 4120 C7CF      01E2F        3339        LA    JB,RCALL                                                   21540021
 002492 1733                        3340        XR    JC,JC                                                      21550021
 002494 4330 C7CE      01E2E        3341        IC    JC,PUTCT3                                                  21560021
 002498                             3342 GNRCL1 DS    0H                                                         21570021
 002498 45E0 B53A      024A2        3343        BAL   JP,RPTN               WRITE P0-TEXT                        21580021
 00249C 58E0 D6E0      00F80        3344        L     JP,JPSAVE                                                  21590021
 0024A0 07FE                        3345        BCR   UNCOND,JP             RETURN TO CALLER                     21600021
                                    3346 *                                                                       21610021
                                    3347 *                                                                       21620021
                                    3348 *RPTN  RW PUTN                                                          21630021
 0024A2 50E0 D6E8      00F88        3349 RPTN   ST    JP,PUTNSV                                                  21640021
                                    3350 *                                                                       21650021
 0024A6 5810 C6B0      01D10        3351        L     JA,COSADR                                                  21660021
 0024AA 0501                        3352        BALR  JR,JA                 CALL COS                             21670021
 0024AC 12                          3353        DC    X'12'                 WRITE ON FILE 2                      21680021
 0024AD 00
 0024AE 58E0 D6E8      00F88        3354        L     JP,PUTNSV                                                  21690021
 0024B2 07FE                        3355        BCR   UNCOND,JP             RETURN TO CALLER                     21700021
                                    3356 *                                                                       21710021
                                    3357 *ROUTINE TO LOCATE START AND END OF TABLE                               21720021
 0024B4                             3358 TBLNIT DS    0H                                                         21730021
 0024B4 5811 0000      00000        3359          L     JA,DX0(JA)                TAMM                           21740021
 0024B8 4821 0004      00004        3360          LH    JB,DX4(JA)                DISPL OF TBL                   21750021
 0024BC 5811 0000      00000        3361          L     JA,DX0(JA)                START OF TABLE                 21760021
 0024C0 4111 0000      00000        3362          LA    JA,DX0(JA)               CLEAR HI-ORDER BYTE             21770021
 0024C4 1222                        3363        LTR   JB,JB                      TEST IF TBL EMPTY               21780021
                                    3364 ***    CALLING ROUTINE MUST TEST FOR CONDITION ZERO ON RETURN           21790021
 0024C6 07FE                        3365        BCR   UNCOND,JP             RETURN TO CALLER                     21800021
1PH1B     IKFCBL1B                                                                                              PAGE   83
-  LOC  OBJECT CODE    ADDR1 ADDR2  STMT   SOURCE STATEMENT                                       ASM 0201 11.03 02/14/15
00024C8                             3367 IKF104 CSECT                                                            21820021
                                    3368 *                                                                       21830021
                                    3369 *=1    COBOL WORD TABLE                           ID   ENV  DATA PR     21840021
                                    3370 *                                                                       21850021
 0024C8 C1E3                        3371 COBWRD DC    C'AT'                 ENCODE                               21860021
 0024CA 547002                      3372        DC    X'547002'            AT                                    21870021
 0024CD C2E8                        3373        DC    C'BY'                 ENCODE                               21880021
 0024CF 547F0A                      3374 BYCON  DC    X'547F0A'                 BY                               21890021
 0024D2 C3C6                        3375        DC    C'CF'                 ENCODE                               21900021
 0024D4 54F804                      3376        DC    X'54F804'            CF                                    21910021
 0024D7 C3C8                        3377        DC    C'CH'                 ENCODE                               21920021
 0024D9 54F604                      3378        DC    X'54F604'            CH                                    21930021
 0024DC C4C5                        3379        DC    C'DE'                 ENCODE                               21940021
 0024DE 54EA04                      3380        DC    X'54EA04'            DE              SAME AS 'DETAIL'      21950021
 0024E1 C6C4                        3381        DC    C'FD'                 ENCODE                               21960021
 0024E3 433884                      3382        DC    X'433884'            FD                                    21970021
 0024E6 C7D6                        3383        DC    C'GO'                 ENCODE                               21980021
 0024E8 441102                      3384        DC    X'441102'            GO                                    21990021
 0024EB C9C4                        3385 IDKON  DC    C'ID'                 ENCODE                               22000021
 0024ED 42F111                      3386 IDCON  DC    X'42F111'            ID              SAME AS 'IDENTIFI     22010021
 0024F0 C9C6                        3387        DC    C'IF'                 ENCODE                               22020021
 0024F2 440702                      3388 IFCON  DC    X'440702'                  IF                              22030021
 0024F5 C9D5                        3389        DC    C'IN'                 ENCODE                               22040021
 0024F7 54A40C                      3390 INCON  DC    X'54A40C'            IN          SAME AS 'OF'              22050021
 0024FA C9E2                        3391 ISKON  DC    C'IS'                 ENCODE                               22060021
 0024FC 549C0E                      3392 ISCON  DC    X'549C0E'            IS              SAME AS 'ARE'         22070021
 0024FF D5D6                        3393        DC    C'NO'                 ENCODE                               22080021
 002501 549E0A                      3394 NOCON  DC    X'549E0A'            NO                                    22090021
 002504 D6C6                        3395        DC    C'OF'                 ENCODE                               22100021
 002506 54A40C                      3396 OFCON  DC    X'54A40C'            OF         SMAE AS 'IN'               22110021
 002509 D6D5                        3397        DC    C'ON'                 ENCODE                               22120021
 00250B 542B0E                      3398 ONCON  DC    X'542B0E'            ON              442B  DEBUG ON        22130021
 00250E D6D9                        3399        DC    C'OR'                 ENCODE                               22140021
 002510 545E02                      3400        DC    X'545E02'            OR                                    22150021
 002513 D7C6                        3401        DC    C'PF'                 ENCODE                               22160021
 002515 54FA04                      3402        DC    X'54FA04'            PF                                    22170021
 002518 D7C8                        3403        DC    C'PH'                 ENCODE                               22180021
 00251A 54F404                      3404        DC    X'54F404'            PH                                    22190021
 00251D D9C4                        3405        DC    C'RD'                 ENCODE                               22200021
 00251F 433484                      3406        DC    X'433484'            RD                                    22210021
 002522 D9C6                        3407        DC    C'RF'                 ENCODE                               22220021
 002524 540E04                      3408        DC    X'540E04'            RF                                    22230021
 002527 D9C8                        3409        DC    C'RH'                 ENCODE                               22240021
 002529 54F304                      3410        DC    X'54F304'            RH                                    22250021
 00252C E2C4                        3411        DC    C'SD'                 ENCODE                               22260021
 00252E 433684                      3412        DC    X'433684'            SD                                    22270021
 002531 E3D6                        3413        DC    C'TO'                 ENCODE                               22280021
 002533 549B0E                      3414 TOCON  DC    X'549B0E'            TO                                    22290021
 002536 E4D7                        3415        DC    C'UP'                 ENCODE                               22300021
 002538 543A02                      3416        DC    X'543A02'                  UP                              22310021
                                    3417 ***                                                                     22320021
                                    3418 ***                                                                     22330021
                                    3419 ***                                                                     22340021
 00253B C1C4C4                      3420 COB3   DC    C'ADD'                ENCODE                               22350021
 00253E 440002                      3421 ADDCN  DC    X'440002'            ADD                                   22360021
1PH1B     IKFCBL1B                                                                                              PAGE   84
-  LOC  OBJECT CODE    ADDR1 ADDR2  STMT   SOURCE STATEMENT                                       ASM 0201 11.03 02/14/15
0002541 C1D3D3                      3422        DC    C'ALL'                ENCODE                               22370021
 002544 547902                      3423 ALLCON DC    X'547902'            ALL                                   22380021
 002547 C1D5C4                      3424        DC    C'AND'                ENCODE                               22390021
 00254A 545D02                      3425        DC    X'545D02'            AND                                   22400021
 00254D C1D9C5                      3426        DC    C'ARE'                ENCODE                               22410021
 002550 549C0E                      3427 ARECON DC    X'549C0E'            ARE                                   22420021
 002553 C3F0F1                      3428        DC    C'C01'                ENCODE                               22430021
 002556 550108                      3429 C01CON DC    X'550108'                  C01                             22440021
 002559 C3F0F2                      3430        DC    C'C02'                ENCODE                               22450021
 00255C 550208                      3431        DC    X'550208'                  C02                             22460021
 00255F C3F0F3                      3432        DC    C'C03'                ENCODE                               22470021
 002562 550308                      3433        DC    X'550308'                  C03                             22480021
 002565 C3F0F4                      3434        DC    C'C04'                ENCODE                               22490021
 002568 550408                      3435        DC    X'550408'                  C04                             22500021
 00256B C3F0F5                      3436        DC    C'C05'                ENCODE                               22510021
 00256E 550508                      3437        DC    X'550508'                  C05                             22520021
 002571 C3F0F6                      3438        DC    C'C06'                ENCODE                               22530021
 002574 550608                      3439        DC    X'550608'                  C06                             22540021
 002577 C3F0F7                      3440        DC    C'C07'                ENCODE                               22550021
 00257A 550708                      3441        DC    X'550708'                  C07                             22560021
 00257D C3F0F8                      3442        DC    C'C08'                ENCODE                               22570021
 002580 550808                      3443        DC    X'550808'                  C08                             22580021
 002583 C3F0F9                      3444        DC    C'C09'                ENCODE                               22590021
 002586 550908                      3445        DC    X'550908'                  C09                             22600021
 002589 C3F1F0                      3446        DC    C'C10'                ENCODE                               22610021
 00258C 550A08                      3447        DC    X'550A08'                  C10                             22620021
 00258F C3F1F1                      3448        DC    C'C11'                ENCODE                               22630021
 002592 550B08                      3449        DC    X'550B08'                  C11                             22640021
 002595 C3F1F2                      3450        DC    C'C12'                ENCODE                               22650021
 002598 550C08                      3451        DC    X'550C08'                  C12                             22660021
 00259B C3E2D7                      3452        DC    C'CSP'                ENCODE                               22670021
 00259E 550008                      3453        DC    X'550008'                  CSP                             22680021
 0025A1 E2F0F1                      3454        DC    C'S01'                ENCODE                               22690021
 0025A4 550D08                      3455        DC    X'550D08'                  S01                             22700021
 0025A7 E2F0F2                      3456        DC    C'S02'                ENCODE                               22710021
 0025AA 550E08                      3457        DC    X'550E08'                  S02                             22720021
 0025AD C5D5C4                      3458        DC    C'END'                ENCODE                               22730021
 0025B0 54A10A                      3459 ENDCD  DC    X'54A10A'            END                                   22740021
 0025B3 C5D6D7                      3460        DC    C'EOP'                ENCODE                               22750021
 0025B6 545A02                      3461        DC    X'545A02'                  EOP- SAME AS END-OF-PAGE        22760021
 0025B9 C6D6D9                      3462        DC    C'FOR'                ENCODE                               22770021
 0025BC 54A30A                      3463 FORCON DC    X'54A30A'            FOR                                   22780021
 0025BF C960D6                      3464        DC    C'I-O'                ENCODE                               22790021
 0025C2 546B02                      3465        DC    X'546B02'            I-O                                   22800021
 0025C5 D2C5E8                      3466        DC    C'KEY'                ENCODE                               22810021
 0025C8 549F0A                      3467 KEYCON DC    X'549F0A'            KEY                                   22820021
 0025CB D5D6E3                      3468        DC    C'NOT'                ENCODE                               22830021
 0025CE 545C02                      3469 NOTCON DC    X'545C02'            NOT                                   22840021
 0025D1 D6C6C6                      3470        DC    C'OFF'                ENCODE                               22850021
 0025D4 543808                      3471 OFFCON DC    X'543808'                  OFF                             22860021
 0025D7 D7C9C3                      3472        DC    C'PIC'                ENCODE                               22870021
 0025DA 54D804                      3473        DC    X'54D804'                  SAME AS PICTURE-PIC             22880021
 0025DD D9E4D5                      3474        DC    C'RUN'                ENCODE                               22890021
 0025E0 548502                      3475 RUNCDE DC    X'548502'            RUN                             9833  22900021
 0025E3 E2C5E3                      3476        DC    C'SET'                ENCODE                               22910021
1PH1B     IKFCBL1B                                                                                              PAGE   85
-  LOC  OBJECT CODE    ADDR1 ADDR2  STMT   SOURCE STATEMENT                                       ASM 0201 11.03 02/14/15
00025E6 446102                      3477        DC    X'446102'                  SET                             22920021
 0025E9 E2E4D4                      3478        DC    C'SUM'                ENCODE                               22930021
 0025EC 54FF04                      3479        DC    X'54FF04'            SUM                                   22940021
 0025EF E4E2C5                      3480        DC    C'USE'                ENCODE                               22950021
 0025F2 443102                      3481 USECON DC    X'443102'            USE                                   22960021
                                    3482 ****                                                                    22970021
                                    3483 ****                                                                    22980021
                                    3484 ****                                                                    22990021
 0025F5 C1D9C5C1                    3485 COB4   DC    C'AREA'               ENCODE                               23000021
 0025F9 54BF08                      3486 AREACN DC    X'54BF08'            AREA            SAME AS 'AREAS'       23010021
 0025FC C3C1D3D3                    3487        DC    C'CALL'               ENCODE                               23020021
 002600 442D02                      3488        DC    X'442D02'            CALL                                  23030021
 002603 C3D6C4C5                    3489        DC    C'CODE'               ENCODE                               23040021
 002607 54E504                      3490        DC    X'54E504'            CODE                                  23050021
 00260A C3D6D4D7                    3491        DC    C'COMP'               ENCODE                               23060021
 00260E 54DE04                      3492        DC    X'54DE04'                  SAME AS COMPUTATIONAL-COMP      23070021
 002611 C3D6D7E8                    3493        DC    C'COPY'               ENCODE                               23080021
 002615 44F50E                      3494 COPYCN DC    X'44F50E'                 COPY                             23090021
 002618 C3D6D9D9                    3495        DC    C'CORR'               ENCODE                               23100021
 00261C 547A02                      3496        DC    X'547A02'                  SAME AS CORRESPONDING           23110021
 00261F C4C1E3C1                    3497        DC    C'DATA'               ENCODE                               23120021
 002623 42011C                      3498 DATACD DC    X'42011C'            DATA            540104 IN DATA DI     23130021
 002626 C4C9E2D7                    3499        DC    C'DISP'               ENCODE                               23140021
 00262A 544C02                      3500        DC    X'544C02'                  DISP                            23150021
 00262D C4D6E6D5                    3501        DC    C'DOWN'               ENCODE                               23160021
 002631 543B02                      3502        DC    X'543B02'                  DOWN                            23170021
 002634 C5D3E2C5                    3503        DC    C'ELSE'               ENCODE                               23180021
 002638 440802                      3504 ELSCON DC    X'440802'            ELSE           SAME AS OTHERWISE      23190021
 00263B C5E7C9E3                    3505        DC    C'EXIT'               ENCODE                               23200021
 00263F 443202                      3506        DC    X'443202'            EXIT                                  23210021
 002642 C6C9D3C5                    3507        DC    C'FILE'               ENCODE                               23220021
 002646 543C02                      3508 FILECD DC    X'543C02'                  FILE                            23230021
 002649 C6D9D6D4                    3509        DC    C'FROM'               ENCODE                               23240021
 00264D 549D0E                      3510 FROMCN DC    X'549D0E'             FROM                                 23250021
 002650 C9D5E3D6                    3511        DC    C'INTO'               ENCODE                               23260021
 002654 546F02                      3512        DC    X'546F02'            INTO                                  23270021
 002657 D1E4E2E3                    3513        DC    C'JUST'               ENCODE                               23280021
 00265B 54DB04                      3514        DC    X'54DB04'                  SAME AS JUSTIFIED-JUST          23290021
 00265E D3C1E2E3                    3515        DC    C'LAST'               ENCODE                               23300021
 002662 54EB04                      3516        DC    X'54EB04'            LAST                                  23310021
 002665 D3C5C6E3                    3517        DC    C'LEFT'               ENCODE                               23320021
 002669 54E404                      3518 LFTCON DC    X'54E404'                 LEFT                             23330021
 00266C D3C5E2E2                    3519        DC    C'LESS'               ENCODE                               23340021
 002670 500A02                      3520 LESCON DC    X'500A02'            LESS                                  23350021
 002673 D3C9D5C5                    3521 LNCON  DC    C'LINE'               ENCODE                               23360021
 002677 549504                      3522 LINCON DC    X'549504'                  LINE SAME AS LINES              23370021
 00267A D3D6C3D2                    3523        DC    C'LOCK'               ENCODE                               23380021
 00267E 547602                      3524        DC    X'547602'            LOCK                                  23390021
 002681 D4D6C4C5                    3525        DC    C'MODE'               ENCODE                               23400021
 002685 541504                      3526 MODECN DC    X'541504'            MODE                                  23410021
 002688 D4D6E5C5                    3527        DC    C'MOVE'               ENCODE                               23420021
 00268C 441D02                      3528 MOVECN DC    X'441D02'            MOVE                                  23430021
 00268F D5C5E7E3                    3529        DC    C'NEXT'               ENCODE                               23440021
 002693 549706                      3530        DC    X'549706'            NEXT                                  23450021
 002696 D5D6E3C5                    3531        DC    C'NOTE'               ENCODE                               23460021
1PH1B     IKFCBL1B                                                                                              PAGE   86
-  LOC  OBJECT CODE    ADDR1 ADDR2  STMT   SOURCE STATEMENT                                       ASM 0201 11.03 02/14/15
000269A 44F702                      3532        DC    X'44F702'            NOTE                                  23470021
 00269D D6D7C5D5                    3533        DC    C'OPEN'               ENCODE                               23480021
 0026A1 442102                      3534        DC    X'442102'            OPEN                                  23490021
 0026A4 D7C1C7C5                    3535 PGCON  DC    C'PAGE'               ENCODE                               23500021
 0026A8 54E604                      3536        DC    X'54E604'            PAGE                                  23510021
 0026AB D7D3E4E2                    3537        DC    C'PLUS'               ENCODE                               23520021
 0026AF 54F004                      3538        DC    X'54F004'            PLUS                                  23530021
 0026B2 D9C5C1C4                    3539        DC    C'READ'               ENCODE                               23540021
 0026B6 442002                      3540        DC    X'442002'            READ                                  23550021
 0026B9 D9C5C5D3                    3541        DC    C'REEL'               ENCODE                               23560021
 0026BD 54170A                      3542 REELCN DC    X'54170A'            REEL                                  23570021
 0026C0 E2C1D4C5                    3543        DC    C'SAME'               ENCODE                               23580021
 0026C4 44F308                      3544        DC    X'44F308'            SAME                                  23590021
 0026C7 E2C5C5D2                    3545        DC    C'SEEK'               ENCODE                               23600021
 0026CB 446302                      3546        DC    X'446302'                  SEEK                            23610021
 0026CE E2C9C7D5                    3547        DC    C'SIGN'               ENCODE                               23620021
 0026D2 54AB08                      3548 SGNCON DC    X'54AB08'                  SIGN                            23630021
 0026D5 E2C9E9C5                    3549        DC    C'SIZE'               ENCODE                               23640021
 0026D9 54830A                      3550        DC    X'54830A'                  SIZE                            23650021
 0026DC E2D6D9E3                    3551        DC    C'SORT'               ENCODE                               23660021
 0026E0 443602                      3552 SORCON DC    X'443602'                  SORT                            23670021
 0026E3 E2E3D6D7                    3553 STOPCN DC    C'STOP'               ENCODE                         9833  23680021
 0026E7 441002                      3554        DC    X'441002'            STOP                                  23690021
 0026EA E2E8D5C3                    3555        DC    C'SYNC'               ENCODE                               23700021
 0026EE 543704                      3556        DC    X'543704'                  SYNC-SAME AS SYNCHRONIZED       23710021
 0026F1 E3C1D7C5                    3557        DC    C'TAPE'               ENCODE                               23720021
 0026F5 544008                      3558        DC    X'544008'                  TAPE                            23730021
 0026F8 E3C8C1D5                    3559        DC    C'THAN'               ENCODE                               23740021
 0026FC 545302                      3560 THNCON DC    X'545302'            THAN                                  23750021
 0026FF E3C8C5D5                    3561        DC    C'THEN'               ENCODE                               23760021
 002703 545002                      3562        DC    X'545002'            THEN                                  23770021
 002706 E3C8D9E4                    3563        DC    C'THRU'               ENCODE                               23780021
 00270A 548706                      3564 THRUCN DC    X'548706'                 THRU                             23790021
 00270D E3E8D7C5                    3565        DC    C'TYPE'               ENCODE                               23800021
 002711 54EF04                      3566        DC    X'54EF04'            TYPE                                  23810021
 002714 E4D5C9E3                    3567        DC    C'UNIT'               ENCODE                               23820021
 002718 54A20A                      3568 UNTCON DC    X'54A20A'            UNIT            SAME AS 'UNITS'       23830021
 00271B E4D7D6D5                    3569        DC    C'UPON'               ENCODE                               23840021
 00271F 549806                      3570 UPONCN DC    X'549806'             UPON                                 23850021
 002722 E6C8C5D5                    3571        DC    C'WHEN'               ENCODE                               23860021
 002726 54E206                      3572 WHNCON DC    X'54E206'                  WHEN                            23870021
 002729 E6C9E3C8                    3573        DC    C'WITH'               ENCODE                               23880021
 00272D 546C02                      3574        DC    X'546C02'            WITH                                  23890021
 002730 E9C5D9D6                    3575        DC    C'ZERO'               ENCODE                               23900021
 002734 75F006                      3576 ZECON  DC    X'75F006'            ZERO           SAME AS 'ZEROS-ES'     23910021
                                    3577 *****                                                                   23920021
                                    3578 *****                                                                   23930021
                                    3579 *****                                                                   23940021
 002737 C1C6E3C5D9                  3580 COB5   DC    C'AFTER'              ENCODE                               23950021
 00273C 547202                      3581 AFTCON DC    X'547202'            AFTER                                 23960021
 00273F C1D3E3C5D9                  3582        DC    C'ALTER'              ENCODE                               23970021
 002744 441C02                      3583        DC    X'441C02'            ALTER                                 23980021
 002747 C1D7D7D3E8                  3584        DC    C'APPLY'              ENCODE                               23990021
 00274C 44F408                      3585        DC    X'44F408'            APPLY                                 24000021
 00274F C1D9C5C1E2                  3586        DC    C'AREAS'              ENCODE                               24010021
1PH1B     IKFCBL1B                                                                                              PAGE   87
-  LOC  OBJECT CODE    ADDR1 ADDR2  STMT   SOURCE STATEMENT                                       ASM 0201 11.03 02/14/15
0002754 54BF08                      3587        DC    X'54BF08'            AREAS           SAME AS 'AREA'        24020021
 002757 C2C1E2C9E2                  3588          DC    C'BASIS'            NOT ALLOWED AS A                     24030021
 00275C 54B700                      3589          DC    X'54B700'           USER-NAME                            24040021
 00275F C2D3C1D5D2                  3590        DC    C'BLANK'              ENCODE                               24050021
 002764 54D904                      3591 BLNKCN DC    X'54D904'            BLANK                                 24060021
 002767 C2D3D6C3D2                  3592        DC    C'BLOCK'              ENCODE                               24070021
 00276C 54CC04                      3593        DC    X'54CC04'            BLOCK                                 24080021
 00276F C3D3D6E2C5                  3594        DC    C'CLOSE'              ENCODE                               24090021
 002774 442202                      3595        DC    X'442202'            CLOSE                                 24100021
 002777 C3D6C2D6D3                  3596        DC    C'COBOL'              ENCODE                               24110021
 00277C 548A02                      3597        DC    X'548A02'            COBOL                                 24120021
 00277F C3D6D4D4C1                  3598        DC    C'COMMA'              ENCODE                               24130021
 002784 541208                      3599 COMMCN DC    X'541208'            COMMA                                 24140021
 002787 C4C5C2E4C7                  3600          DC    C'DEBUG'            NOT ALLOWED AS A                     24150021
 00278C 54B800                      3601          DC    X'54B800'           USER-NAME                            24160021
 00278F C5D1C5C3E3                  3602 EJCON  DC    C'EJECT'              ENCODE                               24170021
 002794 540500                      3603        DC    X'540500'                  EJECT                           24180021
 002797 C5D5E3C5D9                  3604        DC    C'ENTER'              ENCODE                               24190021
 00279C 442E02                      3605        DC    X'442E02'            ENTER                                 24200021
 00279F C5D5E3D9E8                  3606        DC    C'ENTRY'              ENCODE                               24210021
 0027A4 442C02                      3607        DC    X'442C02'            ENTRY                                 24220021
 0027A7 C5D8E4C1D3                  3608        DC    C'EQUAL'              ENCODE                               24230021
 0027AC 500602                      3609 EQCON  DC    X'500602'            EQUAL                                 24240021
 0027AF C5D9D9D6D9                  3610        DC    C'ERROR'              ENCODE                               24250021
 0027B4 548402                      3611        DC    X'548402'            ERROR                                 24260021
 0027B7 C5E5C5D9E8                  3612        DC    C'EVERY'              ENCODE                               24270021
 0027BC 549A0A                      3613 EVYCON DC    X'549A0A'            EVERY                                 24280021
 0027BF C6C9D5C1D3                  3614        DC    C'FINAL'              ENCODE                               24290021
 0027C4 54E704                      3615        DC    X'54E704'            FINAL                                 24300021
 0027C7 C6C9D9E2E3                  3616        DC    C'FIRST'              ENCODE                               24310021
 0027CC 549606                      3617        DC    X'549606'            FIRST                                 24320021
 0027CF C7D9D6E4D7                  3618        DC    C'GROUP'              ENCODE                               24330021
 0027D4 54EE04                      3619        DC    X'54EE04'            GROUP                                 24340021
 0027D7 C9D5C4C5E7                  3620        DC    C'INDEX'              ENCODE                               24350021
 0027DC 543204                      3621        DC    X'543204'                  INDEX                           24360021
 0027DF C9D5D7E4E3                  3622        DC    C'INPUT'              ENCODE                               24370021
 0027E4 546602                      3623        DC    X'546602'            INPUT                                 24380021
 0027E7 D3C1C2C5D3                  3624        DC    C'LABEL'              ENCODE                               24390021
 0027EC 54D106                      3625        DC    X'54D106'            LABEL           SAME AS 'LABELS'      24400021
 0027EF D3C5C1E5C5                  3626        DC    C'LEAVE'              ENCODE                               24410021
 0027F4 544A02                      3627        DC    X'544A02'                 LEAVE                            24420021
 0027F7 D3C9D4C9E3                  3628        DC    C'LIMIT'              ENCODE                               24430021
 0027FC 545F04                      3629        DC    X'545F04'            LIMIT          SAME AS LIMITS         24440021
 0027FF D3C9D5C5E2                  3630        DC    C'LINES'              ENCODE                               24450021
 002804 549506                      3631        DC    X'549506'            LINES           SAME AS 'LINE'        24460021
 002807 D5C1D4C5C4                  3632        DC    C'NAMED'              ENCODE                               24470021
 00280C 549002                      3633 NAMCON DC    X'549002'            NAMED                                 24480021
 00280F D8E4D6E3C5                  3634        DC    C'QUOTE'              ENCODE                               24490021
 002814 757D06                      3635 QUOCON DC    X'757D06'                 QUOTE       SAME AS QUOTES  9638 24500021
 002817 D9C5C1C4E8                  3636        DC    C'READY'              ENCODE                               24510021
 00281C 442902                      3637        DC    X'442902'            READY                                 24520021
 00281F D9C5D9E4D5                  3638        DC    C'RERUN'              ENCODE                               24530021
 002824 44F208                      3639        DC    X'44F208'            RERUN                                 24540021
 002827 D9C5E2C5E3                  3640        DC    C'RESET'              ENCODE                               24550021
 00282C 442806                      3641 RSETCD DC    X'442806'                  RESET                           24560021
1PH1B     IKFCBL1B                                                                                              PAGE   88
-  LOC  OBJECT CODE    ADDR1 ADDR2  STMT   SOURCE STATEMENT                                       ASM 0201 11.03 02/14/15
000282F D9C9C7C8E3                  3642        DC    C'RIGHT'              ENCODE                               24570021
 002834 54E304                      3643 RITCON DC    X'54E304'            RIGHT                                 24580021
 002837 E2D2C9D7F1                  3644 SK1CON DC    C'SKIP1'              ENCODE                               24590021
 00283C 540200                      3645        DC    X'540200'                  SKIP1                           24600021
 00283F E2D2C9D7F2                  3646 SK2CON DC    C'SKIP2'              ENCODE                               24610021
 002844 540300                      3647        DC    X'540300'                  SKIP2                           24620021
 002847 E2D2C9D7F3                  3648 SK3CON DC    C'SKIP3'              ENCODE                               24630021
 00284C 540400                      3649        DC    X'540400'                  SKIP3                           24640021
 00284F E2D7C1C3C5                  3650        DC    C'SPACE'              ENCODE                               24650021
 002854 754006                      3651 SPCCON DC    X'754006'            SPACE          SAME AS 'SPACES'       24660021
 002857 E2E8E2C9D5                  3652        DC    C'SYSIN'              ENCODE                               24670021
 00285C 54180A                      3653        DC    X'54180A'                  SYSIN                           24680021
 00285F E2E3C1D9E3                  3654        DC    C'START'              ENCODE                               24690021
 002864 446402                      3655        DC    X'446402'                  START                           24700021
 002867 E3C1D3D3E8                  3656        DC    C'TALLY'              ENCODE                               24710021
 00286C 790502                      3657 TALCON DC    X'790502'            TALLY                                 24720021
 00286F E3C9D4C5E2                  3658        DC    C'TIMES'              ENCODE                               24730021
 002874 549306                      3659 TIMCON DC    X'549306'            TIMES                                 24740021
 002877 E3D9C1C3C5                  3660        DC    C'TRACE'              ENCODE                               24750021
 00287C 548E02                      3661        DC    X'548E02'            TRACE                                 24760021
 00287F E3D9C1C3D2                  3662        DC    C'TRACK'          TRACK                                    24770021
 002884 54C408                      3663        DC    X'54C408'         ENCODE                                   24780021
 002887 E4D5E3C9D3                  3664        DC    C'UNTIL'              ENCODE                               24790021
 00288C 547D02                      3665        DC    X'547D02'            UNTIL                                 24800021
 00288F E4E2C1C7C5                  3666        DC    C'USAGE'              ENCODE                               24810021
 002894 54DD04                      3667        DC    X'54DD04'            USAGE                                 24820021
 002897 E4E2C9D5C7                  3668        DC    C'USING'              ENCODE                               24830021
 00289C 548902                      3669 USICON DC    X'548902'                 USING                            24840021
 00289F E5C1D3E4C5                  3670        DC    C'VALUE'              ENCODE                               24850021
 0028A4 54CA04                      3671        DC    X'54CA04'            VALUE                                 24860021
 0028A7 E6D6D9C4E2                  3672        DC    C'WORDS'              ENCODE                               24870021
 0028AC 543608                      3673        DC    X'543608'                  WORDS                           24880021
 0028AF E6D9C9E3C5                  3674        DC    C'WRITE'              ENCODE                               24890021
 0028B4 442302                      3675 WRCON  DC    X'442302'            WRITE                                 24900021
 0028B7 E9C5D9D6E2                  3676        DC    C'ZEROS'              ENCODE                               24910021
 0028BC 75F006                      3677        DC    X'75F006'            ZEROS           SAME AS 'ZERO-S-E     24920021
                                    3678 ******                                                                  24930021
                                    3679 *******                                                                 24940021
 0028BF C1C3C3C5D7E3                3680 COB6   DC    C'ACCEPT'             ENCODE                               24950021
 0028C5 442502                      3681        DC    X'442502'            ACCEPT                                24960021
 0028C8 C1C3C3C5E2E2                3682        DC    C'ACCESS'             ENCODE                               24970021
 0028CE 54B208                      3683        DC    X'54B208'            ACCESS                                24980021
 0028D1 C1C3E3E4C1D3                3684        DC    C'ACTUAL'             ENCODE                               24990021
 0028D7 54B608                      3685        DC    X'54B608'            ACTUAL                                25000021
 0028DA C1E2E2C9C7D5                3686        DC    C'ASSIGN'             ENCODE                               25010021
 0028E0 54B108                      3687 ASGNCN DC    X'54B108'            ASSIGN                                25020021
 0028E3 C1E4E3C8D6D9                3688        DC    C'AUTHOR'             ENCODE                               25030021
 0028E9 42F341                      3689        DC    X'42F341'            AUTHOR                                25040021
 0028EC C2C5C6D6D9C5                3690        DC    C'BEFORE'             ENCODE                               25050021
 0028F2 546902                      3691 BEFCON DC    X'546902'                 BEFORE                           25060021
 0028F5 C3D6D3E4D4D5                3692        DC    C'COLUMN'             ENCODE                               25070021
 0028FB 54FC04                      3693        DC    X'54FC04'            COLUMN                                25080021
 0028FE C3D6D4D760F1                3694        DC    C'COMP-1'             ENCODE                               25090021
 002904 54DF04                      3695        DC    X'54DF04'                  COMP-1-SAME AS COMPUTATIONA     25100021
 002907 C3D6D4D760F2                3696        DC    C'COMP-2'             ENCODE                               25110021
1PH1B     IKFCBL1B                                                                                              PAGE   89
-  LOC  OBJECT CODE    ADDR1 ADDR2  STMT   SOURCE STATEMENT                                       ASM 0201 11.03 02/14/15
000290D 54E004                      3697        DC    X'54E004'                  COMP-2-SAME AS COMPUTATIONA     25120021
 002910 C3D6D4D760F3                3698        DC    C'COMP-3'             ENCODE                               25130021
 002916 54E104                      3699        DC    X'54E104'                  COMP-3-SAME AS COMPUTATIONA     25140021
 002919 C4C5D3C5E3C5                3700          DC    C'DELETE'           NOT ALLOWED AS A                     25150021
 00291F 54B900                      3701          DC    X'54B900'           USER NAME                            25160021
 002922 C4C5E3C1C9D3                3702        DC    C'DETAIL'             ENCODE                               25170021
 002928 54EA04                      3703        DC    X'54EA04'            DETAIL          SAME AS 'DE'          25180021
 00292B C4C9E5C9C4C5                3704        DC    C'DIVIDE'             ENCODE                               25190021
 002931 440302                      3705        DC    X'440302'            DIVIDE                                25200021
 002934 C5D5C4C9D5C7                3706        DC    C'ENDING'             ENCODE                               25210021
 00293A 546202                      3707        DC    X'546202'            ENDING                                25220021
 00293D C6C9D3D3C5D9                3708        DC    C'FILLER'             ENCODE                               25230021
 002943 54AF04                      3709        DC    X'54AF04'            FILLER                                25240021
 002946 C7C9E5C9D5C7                3710        DC    C'GIVING'             ENCODE                               25250021
 00294C 548102                      3711        DC    X'548102'            GIVING                                25260021
 00294F C7D6C2C1C3D2                3712        DC    C'GOBACK'             ENCODE                               25270021
 002955 447302                      3713        DC    X'447302'                 GOBACK                           25280021
 002958 C9D5E2C5D9E3                3714          DC    C'INSERT'           NOT ALLOWED AS A                     25290021
 00295E 54BB00                      3715          DC    X'54BB00'           USER-NAME                            25300021
 002961 D3C9D4C9E3E2                3716        DC    C'LIMITS'             ENCODE                               25310021
 002967 545F04                      3717        DC    X'545F04'            LIMITS         SAME AS LIMIT          25320021
 00296A D4C5D4D6D9E8                3718        DC    C'MEMORY'             ENCODE                               25330021
 002970 543508                      3719        DC    X'543508'                  MEMORY                          25340021
 002973 D5E4D4C2C5D9                3720        DC    C'NUMBER'             ENCODE                               25350021
 002979 544400                      3721        DC    X'544400'                  NUMBER                          25360021
 00297C D6C3C3E4D9E2                3722        DC    C'OCCURS'             ENCODE                               25370021
 002982 54DA04                      3723        DC    X'54DA04'            OCCURS                                25380021
 002985 D6E4E3D7E4E3                3724        DC    C'OUTPUT'             ENCODE                               25390021
 00298B 546402                      3725        DC    X'546402'            OUTPUT                                25400021
 00298E D8E4D6E3C5E2                3726        DC    C'QUOTES'             ENCODE                               25410021
 002994 757D06                      3727 QUOSCN DC    X'757D06'                 QUOTES       SAME AS QUOTE  9638 25420021
 002997 D9C1D5C4D6D4                3728        DC    C'RANDOM'             ENCODE                               25430021
 00299D 54670A                      3729 RANDCN DC    X'54670A'            RANDOM                                25440021
 0029A0 D9C5C3D6D9C4                3730        DC    C'RECORD'             ENCODE                               25450021
 0029A6 54CD0E                      3731 RECCON DC    X'54CD0E'                  RECORD                          25460021
 0029A9 D9C5D7D6D9E3                3732        DC    C'REPORT'             ENCODE                               25470021
 0029AF 420524                      3733 REPTCD DC    X'420524'            REPORT          54D604 IN RPT SCT     25480021
 0029B2 D9C5D9C5C1C4                3734        DC    C'REREAD'             ENCODE                               25490021
 0029B8 544B02                      3735        DC    X'544B02'                 REREAD                           25500021
 0029BB D9C5E3E4D9D5                3736        DC    C'RETURN'             ENCODE                               25510021
 0029C1 442A02                      3737        DC    X'442A02'            RETURN                                25520021
 0029C4 D9C5E6C9D5C4                3738        DC    C'REWIND'             ENCODE                               25530021
 0029CA 546D02                      3739        DC    X'546D02'            REWIND                                25540021
 0029CD E2C5C1D9C3C8                3740        DC    C'SEARCH'             ENCODE                               25550021
 0029D3 445E02                      3741 SEACON DC    X'445E02'                 SEARCH                           25560021
 0029D6 E2C5D3C5C3E3                3742        DC    C'SELECT'             ENCODE                               25570021
 0029DC 44F108                      3743        DC    X'44F108'            SELECT                                25580021
 0029DF E2D6E4D9C3C5                3744        DC    C'SOURCE'             ENCODE                               25590021
 0029E5 54FE04                      3745        DC    X'54FE04'            SOURCE                                25600021
 0029E8 E2D7C1C3C5E2                3746        DC    C'SPACES'             ENCODE                               25610021
 0029EE 754006                      3747        DC    X'754006'            SPACES          SAME AS 'SPACE'       25620021
 0029F1 E2E3C1E3E4E2                3748        DC    C'STATUS'             ENCODE                               25630021
 0029F7 543300                      3749          DC    X'543300'           NOT ALLOWED AS A USER-NAME           25640021
 0029FA E2E8E2C9D7E3                3750          DC    C'SYSIPT'           ENCODE                               25650021
 002A00 54180A                      3751          DC    X'54180A'           SYSIPT                               25660021
1PH1B     IKFCBL1B                                                                                              PAGE   90
-  LOC  OBJECT CODE    ADDR1 ADDR2  STMT   SOURCE STATEMENT                                       ASM 0201 11.03 02/14/15
0002A03 E2E8E2D3E2E3                3752          DC    C'SYSLST'           ENCODE                               25670021
 002A09 54190A                      3753          DC    X'54190A'           SYSLST                               25680021
 002A0C E2E8E2D6E4E3                3754        DC    C'SYSOUT'                                                  25690021
 002A12 54190A                      3755        DC    X'54190A'                  SYSOUT                          25700021
 002A15 E2E8E2D7C3C8                3756          DC    C'SYSPCH'           ENCODE                               25710021
 002A1B 54770A                      3757          DC    X'54770A'           SYSPCH                               25720021
 002A1E E3D9C1C3D2E2                3758        DC    C'TRACKS'                                                  25730021
 002A24 54C408                      3759 TRKCON DC    X'54C408'            TRACKS                                25740021
 002A27 E5C1D3E4C5E2                3760        DC    C'VALUES'                                                  25750021
 002A2D 54CA04                      3761        DC    X'54CA04'                  VALUES-SAME AS VALUE            25760021
 002A30 E9C5D9D6C5E2                3762        DC    C'ZEROES'             ENCODE                               25770021
 002A36 75F006                      3763        DC    X'75F006'            ZEROES          SAME AS 'ZERO-S'      25780021
                                    3764 *******  ENCODE                                                         25790021
                                    3765 *******                                                                 25800021
 002A39 C3C8C1D5C7C5C4              3766 COB7   DC    C'CHANGED'            ENCODE                               25810021
 002A40 548F02                      3767 CHGCON DC    X'548F02'            CHANGED                               25820021
 002A43 C1C4C4D9C5E2E2              3768        DC    C'ADDRESS'            ENCODE                               25830021
 002A4A 544200                      3769        DC    X'544200'                  ADDRESS                         25840021
 002A4D C3D6D4D7E4E3C5              3770        DC    C'COMPUTE'            ENCODE                               25850021
 002A54 440402                      3771        DC    X'440402'            COMPUTE                               25860021
 002A57 C3D6D5E2D6D3C5              3772        DC    C'CONSOLE'            ENCODE                               25870021
 002A5E 54780A                      3773        DC    X'54780A'            CONSOLE                               25880021
 002A61 C3D6D5E3D9D6D3              3774        DC    C'CONTROL'            ENCODE                               25890021
 002A68 54D004                      3775        DC    X'54D004'            CONTROL         SAME AS 'CONTROLS     25900021
 002A6B C4C9E2D7D3C1E8              3776        DC    C'DISPLAY'            ENCODE                               25910021
 002A72 442606                      3777 DISPCD DC    X'442606'                  DISPLAY                         25920021
 002A75 C5E7C1D4C9D5C5              3778        DC    C'EXAMINE'            ENCODE                               25930021
 002A7C 441E02                      3779        DC    X'441E02'            EXAMINE                               25940021
 002A7F C5E7C8C9C2C9E3              3780        DC    C'EXHIBIT'            ENCODE                               25950021
 002A86 442702                      3781        DC    X'442702'            EXHIBIT                               25960021
 002A89 C6D6D6E3C9D5C7              3782        DC    C'FOOTING'            ENCODE                               25970021
 002A90 54EC04                      3783        DC    X'54EC04'            FOOTING                               25980021
 002A93 C7D9C5C1E3C5D9              3784        DC    C'GREATER'            ENCODE                               25990021
 002A9A 500802                      3785 GRTCON DC    X'500802'            GREATER                               26000021
 002A9D C8C5C1C4C9D5C7              3786        DC    C'HEADING'            ENCODE                               26010021
 002AA4 54E904                      3787        DC    X'54E904'            HEADING                               26020021
 002AA7 C9D5C4C5E7C5C4              3788        DC    C'INDEXED'            ENCODE                               26030021
 002AAE 54BC08                      3789        DC    X'54BC08'            INDEXED                               26040021
 002AB1 C9D5E5C1D3C9C4              3790        DC    C'INVALID'            ENCODE                               26050021
 002AB8 547102                      3791 INVCON DC    X'547102'             INVALID                              26060021
 002ABB D3C5C1C4C9D5C7              3792        DC    C'LEADING'            ENCODE                               26070021
 002AC2 547C02                      3793        DC    X'547C02'            LEADING                               26080021
 002AC5 D3C9D5D2C1C7C5              3794        DC    C'LINKAGE'            ENCODE                               26090021
 002ACC 549102                      3795 LINKCD DC    X'549102'                  LINKAGE                         26100021
 002ACF D4D6C4E4D3C5E2              3796        DC    C'MODULES'            ENCODE                               26110021
 002AD6 543408                      3797        DC    X'543408'                  MODULES                         26120021
 002AD9 D5D6D4C9D5C1D3              3798        DC    C'NOMINAL'            ENCODE                               26130021
 002AE0 54B508                      3799        DC    X'54B508'                  NOMINAL                         26140021
 002AE3 D5E4D4C5D9C9C3              3800        DC    C'NUMERIC'            ENCODE                               26150021
 002AEA 545602                      3801        DC    X'545602'            NUMERIC                               26160021
 002AED D6D4C9E3E3C5C4              3802        DC    C'OMITTED'            ENCODE                               26170021
 002AF4 54D404                      3803 OMTCON DC    X'54D404'                  OMITTED                         26180021
 002AF7 D7C5D9C6D6D9D4              3804        DC    C'PERFORM'            ENCODE                               26190021
 002AFE 443802                      3805        DC    X'443802'            PERFORM                               26200021
 002B01 D7C9C3E3E4D9C5              3806        DC    C'PICTURE'            ENCODE                               26210021
1PH1B     IKFCBL1B                                                                                              PAGE   91
-  LOC  OBJECT CODE    ADDR1 ADDR2  STMT   SOURCE STATEMENT                                       ASM 0201 11.03 02/14/15
0002B08 54D804                      3807 PICTCD DC    X'54D804'            PICTURE                               26220021
 002B0B D7D9D6C3C5C5C4              3808        DC    C'PROCEED'            ENCODE                               26230021
 002B12 548602                      3809 PRCDCN DC    X'548602'            PROCEED                               26240021
 002B15 D7D9D6C7D9C1D4              3810        DC    C'PROGRAM'            ENCODE                               26250021
 002B1C 540D02                      3811        DC    X'540D02'                 PROGRAM                          26260021
 002B1F D9C5C3D6D9C4E2              3812        DC    C'RECORDS'            ENCODE                               26270021
 002B26 54CF04                      3813 RCDSCO DC    X'54CF04'            RECORDS                               26280021
 002B29 D9C5D3C5C1E2C5              3814        DC    C'RELEASE'            ENCODE                               26290021
 002B30 443702                      3815        DC    X'443702'            RELEASE                               26300021
 002B33 D9C5D4C1D9D2E2              3816        DC    C'REMARKS'            ENCODE                               26310021
 002B3A 42FE41                      3817        DC    X'42FE41'             REMARKS                              26320021
 002B3D D9C5D5C1D4C5E2              3818        DC    C'RENAMES'            ENCODE                               26330021
 002B44 543904                      3819        DC    X'543904'                  RENAMES                         26340021
 002B47 D9C5D7D6D9E3E2              3820        DC    C'REPORTS'            ENCODE                               26350021
 002B4E 54D604                      3821 REPTCN DC    X'54D604'            REPORTS         SAME AS'REPORT'IN     26360021
 002B51 D9C5E2C5D9E5C5              3822        DC    C'RESERVE'            ENCODE                               26370021
 002B58 54B408                      3823        DC    X'54B408'            RESERVE                               26380021
 002B5B D9C5E6D9C9E3C5              3824        DC    C'REWRITE'            ENCODE                               26390021
 002B62 442402                      3825        DC    X'442402'            REWRITE                               26400021
 002B65 D9D6E4D5C4C5C4              3826        DC    C'ROUNDED'            ENCODE                               26410021
 002B6C 548202                      3827        DC    X'548202'            ROUNDED                               26420021
 002B6F E2C5C3E3C9D6D5              3828 SCTKON DC    C'SECTION'            ENCODE                               26430021
 002B76 54A50E                      3829 SCTCON DC    X'54A50E'            SECTION                               26440021
 002B79 E3C8D9D6E4C7C8              3830        DC    C'THROUGH'            ENCODE                               26450021
 002B80 548702                      3831        DC    X'548702'                  THROUGH-SAME AS THRU            26460021
 002B83 E3D6E3C1D3C5C4              3832        DC    C'TOTALED'            ENCODE                               26470021
 002B8A 541104                      3833 TODCON DC    X'541104'                  TOTALED                         26480021
 002B8D E5C1D9E8C9D5C7              3834        DC    C'VARYING'            ENCODE                               26490021
 002B94 548802                      3835        DC    X'548802'            VARYING                               26500021
                                    3836 ********                                                                26510021
                                    3837 ********                                                                26520021
                                    3838 ********                                                                26530021
 002B97 C3D6D5E3C1C9D5E2            3839 COB8   DC    C'CONTAINS'           ENCODE                               26540021
 002B9F 54D304                      3840 CONTCN DC    X'54D304'            CONTAINS                              26550021
 002BA2 C3D6D5E3D9D6D3E2            3841        DC    C'CONTROLS'           ENCODE                               26560021
 002BAA 54D004                      3842        DC    X'54D004'            CONTROLS        SAME AS 'CONTROL'     26570021
 002BAD C3E4D9D9C5D5C3E8            3843        DC    C'CURRENCY'           ENCODE                               26580021
 002BB5 543008                      3844        DC    X'543008'                  CURRENCY                        26590021
 002BB8 C4C9E5C9E2C9D6D5            3845 DIVKON DC    C'DIVISION'           ENCODE                               26600021
 002BC0 54A70F                      3846 DIVCON DC    X'54A70F'            DIVISION                              26610021
 002BC3 C7C5D5C5D9C1E3C5            3847        DC    C'GENERATE'           ENCODE                               26620021
 002BCB 443402                      3848        DC    X'443402'            GENERATE                              26630021
 002BCE C9D5C4C9C3C1E3C5            3849        DC    C'INDICATE'           ENCODE                               26640021
 002BD6 54FD04                      3850        DC    X'54FD04'            INDICATE                              26650021
 002BD9 C9D5C9E3C9C1E3C5            3851        DC    C'INITIATE'           ENCODE                               26660021
 002BE1 443302                      3852        DC    X'443302'            INITIATE                              26670021
 002BE4 D4E4D3E3C9D7D3E8            3853        DC    C'MULTIPLY'           ENCODE                               26680021
 002BEC 440202                      3854        DC    X'440202'            MULTIPLY                              26690021
 002BEF D5C5C7C1E3C9E5C5            3855        DC    C'NEGATIVE'           ENCODE                               26700021
 002BF7 545802                      3856        DC    X'545802'            NEGATIVE                              26710021
 002BFA D6D7E3C9D6D5C1D3            3857        DC    C'OPTIONAL'           ENCODE                               26720021
 002C02 543D08                      3858 OPTCON DC    X'543D08'                 OPTIONAL                         26730021
 002C05 D4E4D3E3C9D7D3C5            3859        DC    C'MULTIPLE'           ENCODE                               26740021
 002C0D 54AD08                      3860 MULCON DC    X'54AD08'                  MULTIPLE                        26750021
 002C10 D7D6E2C9E3C9D6D5            3861        DC    C'POSITION'           ENCODE                               26760021
1PH1B     IKFCBL1B                                                                                              PAGE   92
-  LOC  OBJECT CODE    ADDR1 ADDR2  STMT   SOURCE STATEMENT                                       ASM 0201 11.03 02/14/15
0002C18 543F08                      3862        DC    X'543F08'                  POSITION                        26770021
 002C1B D7D6E2C9E3C9E5C5            3863        DC    C'POSITIVE'           ENCODE                               26780021
 002C23 545702                      3864        DC    X'545702'            POSITIVE                              26790021
 002C26 D9C5E5C5D9E2C5C4            3865        DC    C'REVERSED'           ENCODE                               26800021
 002C2E 546E02                      3866        DC    X'546E02'            REVERSED                              26810021
 002C31 E2C5C3E4D9C9E3E8            3867        DC    C'SECURITY'           ENCODE                               26820021
 002C39 42F041                      3868        DC    X'42F041'            SECURITY                              26830021
 002C3C E2C5D5E3C5D5C3C5            3869        DC    C'SENTENCE'           ENCODE                               26840021
 002C44 54FB02                      3870        DC    X'54FB02'            SENTENCE                              26850021
 002C47 E2E3C1D5C4C1D9C4            3871        DC    C'STANDARD'           ENCODE                               26860021
 002C4F 54D506                      3872 STDCON DC    X'54D506'                  STANDARD                        26870021
 002C52 E2E4C2E3D9C1C3E3            3873        DC    C'SUBTRACT'           ENCODE                               26880021
 002C5A 440102                      3874        DC    X'440102'            SUBTRACT                              26890021
 002C5D E2E4D7D7D9C5E2E2            3875        DC    C'SUPPRESS'           ENCODE                               26900021
 002C65 54070F                      3876 SURPCN DC    X'54070F'             SUPPRESS                             26910021
 002C68 E2E8E2D7E4D5C3C8            3877        DC    C'SYSPUNCH'           ENCODE                               26920021
 002C70 54770A                      3878        DC    X'54770A'                  SYSPUNCH                        26930021
 002C73 E3D6E3C1D3C9D5C7            3879        DC    C'TOTALING'           ENCODE                               26940021
 002C7B 541004                      3880 TOGCON DC    X'541004'                  TOTALING                        26950021
 002C7E E3C1D3D3E8C9D5C7            3881        DC    C'TALLYING'                                                26960021
 002C86 547B02                      3882        DC    X'547B02'            TALLYING                              26970021
                                    3883 *********                                                               26980021
                                    3884 *********                                                               26990021
 002C89 C1C4E5C1D5C3C9D5            3885 COB9   DC    C'ADVANCING'          ENCODE                               27000021
 002C92 547302                      3886 ADVCON DC    X'547302'                 ADVANCING                        27010021
 002C95 C1D3E3C5D9D5C1E3            3887        DC    C'ALTERNATE'          ENCODE                               27020021
 002C9E 54BE08                      3888        DC    X'54BE08'            ALTERNATE                             27030021
 002CA1 C1E2C3C5D5C4C9D5            3889        DC    C'ASCENDING'          ENCODE                               27040021
 002CAA 548D02                      3890        DC    X'548D02'            ASCENDING                             27050021
 002CAD C2C5C7C9D5D5C9D5            3891        DC    C'BEGINNING'          ENCODE                               27060021
 002CB6 546102                      3892        DC    X'546102'            BEGINNING                             27070021
 002CB9 C3E8D360C9D5C4C5            3893        DC    C'CYL-INDEX'          ENCODE                               27080021
 002CC2 545108                      3894        DC    X'545108'                  CYL-INDEX                       27090021
 002CC5 C4C5D7C5D5C4C9D5            3895        DC    C'DEPENDING'          ENCODE                               27100021
 002CCE 549406                      3896 DEPNCN DC    X'549406'            DEPENDING                             27110021
 002CD1 D1E4E2E3C9C6C9C5            3897        DC    C'JUSTIFIED'          ENCODE                               27120021
 002CDA 54DB04                      3898        DC    X'54DB04'            JUSTIFIED                             27130021
 002CDD D3D6E660E5C1D3E4            3899        DC    C'LOW-VALUE'          ENCODE                               27140021
 002CE6 750006                      3900        DC    X'750006'            LOW-VALUE       SAME AS 'LOW-VALU     27150021
 002CE9 D6E3C8C5D9E6C9E2            3901        DC    C'OTHERWISE'          ENCODE                               27160021
 002CF2 440802                      3902        DC    X'440802'            OTHERWISE       SAME AS 'ELSE'        27170021
 002CF5 D7D9D6C3C5C4E4D9            3903        DC    C'PROCEDURE'          ENCODE                               27180021
 002CFE 42061E                      3904 PROCCD DC    X'42061E'            PROCEDURE      549902 IN 'PD'         27190021
 002D01 D9C5C3D6D9C4C9D5            3905        DC    C'RECORDING'          ENCODE                               27200021
 002D0A 541604                      3906        DC    X'541604'            RECORDING                             27210021
 002D0D D9C5C4C5C6C9D5C5            3907        DC    C'REDEFINES'          ENCODE                               27220021
 002D16 54D704                      3908        DC    X'54D704'            REDEFINES                             27230021
 002D19 D9C5D4C1C9D5C4C5            3909        DC    C'REMAINDER'          ENCODE                               27240021
 002D22 543E02                      3910        DC    X'543E02'             REMAINDER                            27250021
 002D25 D9C5D7D3C1C3C9D5            3911        DC    C'REPLACING'          ENCODE                               27260021
 002D2E 547E02                      3912 REPCN  DC    X'547E02'        REPLACING                                 27270021
 002D31 D9C5D7D6D9E3C9D5            3913        DC    C'REPORTING'          ENCODE                               27280021
 002D3A 546A02                      3914        DC    X'546A02'            REPORTING                             27290021
 002D3D E3C5D9D4C9D5C1E3            3915        DC    C'TERMINATE'          ENCODE                               27300021
 002D46 443502                      3916        DC    X'443502'            TERMINATE                             27310021
1PH1B     IKFCBL1B                                                                                              PAGE   93
-  LOC  OBJECT CODE    ADDR1 ADDR2  STMT   SOURCE STATEMENT                                       ASM 0201 11.03 02/14/15
0002D49 E3D9C1D5E2C6D6D9            3917        DC    C'TRANSFORM'          ENCODE                               27320021
 002D52 441F02                      3918        DC    X'441F02'            TRANSFORM                             27330021
                                    3919 **********                                                              27340021
                                    3920 **********                                                              27350021
 002D55 C1D3D7C8C1C2C5E3            3921 COB10  DC    C'ALPHABETIC'         ENCODE                               27360021
 002D5F 545502                      3922        DC    X'545502'            ALPHABETIC                            27370021
 002D62 C3C8C1D9C1C3E3C5            3923        DC    C'CHARACTERS'         ENCODE                               27380021
 002D6C 54920E                      3924 CHARCN DC    X'54920E'                  CHARACTERS                      27390021
 002D6F C3D6D9C560C9D5C4            3925        DC    C'CORE-INDEX'         ENCODE                               27400021
 002D79 540C08                      3926        DC    X'540C08'                 CORE-INDEX                       27410021
 002D7C C4C5E2C3C5D5C4C9            3927        DC    C'DESCENDING'         ENCODE                               27420021
 002D86 548C02                      3928        DC    X'548C02'            DESCENDING                            27430021
 002D89 C4C9E2D7D3C1E860            3929        DC    C'DISPLAY-ST'         ENCODE                               27440021
 002D93 54F204                      3930        DC    X'54F204'            DISPLAY-ST                            27450021
 002D96 C6C9D3C560D3C9D4            3931        DC    C'FILE-LIMIT'         ENCODE                               27460021
 002DA0 541408                      3932        DC    X'541408'            FILE-LIMIT                            27470021
 002DA3 C8C9C7C860E5C1D3            3933        DC    C'HIGH-VALUE'         ENCODE                               27480021
 002DAD 75FF06                      3934        DC    X'75FF06'            HIGH-VALUE      SAME AS 'HIGH-VAL     27490021
 002DB0 D3D6E660E5C1D3E4            3935        DC    C'LOW-VALUES'         ENCODE                               27500021
 002DBA 750006                      3936        DC    X'750006'            LOW-VALUES      SAME AS 'LOW-VALU     27510021
 002DBD D5E2E3C460D9C5C5            3937          DC    C'NSTD-REELS'       ENCODE                               27520021
 002DC7 540602                      3938          DC    X'540602'           NSTD-REELS                           27530021
 002DCA D7D9D6C3C5E2E2C9            3939        DC    C'PROCESSING'         ENCODE                               27540021
 002DD4 546808                      3940          DC    X'546808'           PROC DIV ONLY                        27550021
 002DD7 D7D9D6C7D9C1D460            3941        DC    C'PROGRAM-ID'         ENCODE                               27560021
 002DE1 42F241                      3942        DC    X'42F241'            PROGRAM-ID                            27570021
 002DE4 E2C5D8E4C5D5E3C9            3943        DC    C'SEQUENTIAL'         ENCODE                               27580021
 002DEE 54BA08                      3944        DC    X'54BA08'            SEQUENTIAL                            27590021
 002DF1 E3D9C1C3D260C1D9            3945        DC    C'TRACK-AREA'         ENCODE                               27600021
 002DFB 541A08                      3946        DC    X'541A08'            TRACK-AREA                            27610021
 002DFE E6D9C9E3C560D6D5            3947        DC    C'WRITE-ONLY'         ENCODE                               27620021
 002E08 540F08                      3948        DC    X'540F08'            WRITE-ONLY                            27630021
                                    3949 ***********                                                             27640021
                                    3950 ***********                                                             27650021
 002E0B C3D3D6C3D260E4D5            3951 COB11  DC    C'CLOCK-UNITS'        ENCODE                               27660021
 002E16 54C100                      3952          DC    X'54C100'           NOT ALLOWED AS A USER-NAME           27670021
 002E19 C5D5E5C9D9D6D5D4            3953        DC    C'ENVIRONMENT'        ENCODE                               27680021
 002E24 42F418                      3954 ENVRCN DC    X'42F418'            ENVIRONMENT                           27690021
 002E27 C5D5C460D6C660D7            3955        DC    C'END-OF-PAGE'        ENCODE                               27700021
 002E32 545A02                      3956        DC    X'545A02'                  END-OF-PAGE- SAME AS EOP        27710021
 002E35 C6C9D3C560D3C9D4            3957        DC    C'FILE-LIMITS'        ENCODE                               27720021
 002E40 541408                      3958        DC    X'541408'                  FILE-LIMITS-SAME AS FILE-LI     27730021
 002E43 C8C9C7C860E5C1D3            3959        DC    C'HIGH-VALUES'        ENCODE                               27740021
 002E4E 75FF06                      3960        DC    X'75FF06'            HIGH-VALUES     SAME AS 'HIGH-VAL     27750021
 002E51 C960D660C3D6D5E3            3961        DC    C'I-O-CONTROL'        ENCODE                               27760021
 002E5C 42FA48                      3962        DC    X'42FA48'            I-O-CONTROL                           27770021
 002E5F D4D6D9C560D3C1C2            3963        DC    C'MORE-LABELS'        ENCODE                               27780021
 002E6A 546302                      3964        DC    X'546302'            MORE-LABELS                           27790021
 002E6D D7D6E2C9E3C9D6D5            3965        DC    C'POSITIONING'                                             27800021
 002E78 54DC02                      3966 POSCON DC    X'54DC02'                  POSITIONING                     27810021
 002E7B E3D9C1C3D260D3C9            3967        DC    C'TRACK-LIMIT'        ENCODE                               27820021
 002E86 541C08                      3968        DC    X'541C08'                 TRACK-LIMIT                      27830021
                                    3969 ***                                                                     27840021
                                    3970 ***                                                                     27850021
 002E89 C4C1E3C560E6D9C9            3971 COB12  DC    C'DATE-WRITTEN'       ENCODE                               27860021
1PH1B     IKFCBL1B                                                                                              PAGE   94
-  LOC  OBJECT CODE    ADDR1 ADDR2  STMT   SOURCE STATEMENT                                       ASM 0201 11.03 02/14/15
0002E95 42FC41                      3972        DC    X'42FC41'             DATE-WRITTEN                         27870021
 002E98 C3E8D360D6E5C5D9            3973        DC    C'CYL-OVERFLOW'       ENCODE                               27880021
 002EA4 544F08                      3974        DC    X'544F08'                  CYL-OVERFLOW                    27890021
 002EA7 C4C5C3D3C1D9C1E3            3975 DECLKN DC    C'DECLARATIVES'       ENCODE                               27900021
 002EB3 420742                      3976 DECLCD DC    X'420742'            DECLARATIVES                          27910021
 002EB6 C6C9D3C560C3D6D5            3977        DC    C'FILE-CONTROL'       ENCODE                               27920021
 002EC2 42F948                      3978        DC    X'42F948'            FILE-CONTROL                          27930021
 002EC5 C9D5D7E4E360D6E4            3979        DC    C'INPUT-OUTPUT'       ENCODE                               27940021
 002ED1 42F828                      3980        DC    X'42F828'            INPUT-OUTPUT                          27950021
 002ED4 C9D5E2E3C1D3D3C1            3981        DC    C'INSTALLATION'       ENCODE                               27960021
 002EE0 42FD41                      3982        DC    X'42FD41'             INSTALLATION                         27970021
 002EE3 D3C9D5C560C3D6E4            3983 LCTRKN DC    C'LINE-COUNTER'       ENCODE                               27980021
 002EEF 790102                      3984        DC    X'790102'            LINE-COUNTER                          27990021
 002EF2 D4C1E2E3C5D960C9            3985        DC    C'MASTER-INDEX'       ENCODE                               28000021
 002EFE 544E08                      3986        DC    X'544E08'                  MASTER-INDEX                    28010021
 002F01 D7C1C7C560C3D6E4            3987 PCTRKN DC    C'PAGE-COUNTER'       ENCODE                               28020021
 002F0D 790202                      3988        DC    X'790202'            PAGE-COUNTER                          28030021
 002F10 D7D9C9D5E360E2E6            3989 PTSWKN DC    C'PRINT-SWITCH'       ENCODE                               28040021
 002F1C 54CB02                      3990 PSCON  DC    X'54CB02'            PRINT-SWITCH                          28050021
 002F1F E2E8D5C3C8D9D6D5            3991        DC    C'SYNCHRONIZED'       ENCODE                               28060021
 002F2B 543704                      3992        DC    X'543704'                  SYNCHRONIZED                    28070021
 002F2E E6D9C9E3C560E5C5            3993        DC    C'WRITE-VERIFY'       ENCODE                               28080021
 002F3A 545208                      3994        DC    X'545208'                  WRITE-VERIFY                    28090021
                                    3995 ****                                                                    28100021
                                    3996 ****                                                                    28110021
 002F3D C3D6D4D7E4E3C1E3            3997 COB13  DC    C'COMPUTATIONAL'      ENCODE                               28120021
 002F4A 54DE04                      3998        DC    X'54DE04'            COMPUTATIONAL                         28130021
 002F4D C3D6D5C6C9C7E4D9            3999        DC    C'CONFIGURATION'      ENCODE                               28140021
 002F5A 42F528                      4000        DC    X'42F528'            CONFIGURATION                         28150021
 002F5D C3D6D9D9C5E2D7D6            4001        DC    C'CORRESPONDING'      ENCODE                               28160021
 002F6A 547A02                      4002        DC    X'547A02'            CORRESPONDING                         28170021
 002F6D C4C1E3C560C3D6D4            4003        DC    C'DATE-COMPILED'      ENCODE                               28180021
 002F7A 420F41                      4004 DATECN DC    X'420F41'            DATE-COMPILED                         28190021
 002F7D C4C5C3C9D4C1D360            4005        DC    C'DECIMAL-POINT'      ENCODE                               28200021
 002F8A 541308                      4006        DC    X'541308'            DECIMAL-POINT                         28210021
 002F8D E2C5C7D4C5D5E360            4007        DC    C'SEGMENT-LIMIT'      ENCODE                               28220021
 002F9A 446208                      4008 SEGTCN DC    X'446208'                 SEGMENT-LIMIT                    28230021
 002F9D E2D7C5C3C9C1D360            4009        DC    C'SPECIAL-NAMES'      ENCODE                               28240021
 002FAA 42FB48                      4010        DC    X'42FB48'            SPECIAL-NAMES                         28250021
                                    4011 ****                                                                    28260021
                                    4012 ****                                                                    28270021
 002FAD C9C4C5D5E3C9C6C9            4013 COB14  DC    C'IDENTIFICATION'     ENCODE                               28280021
 002FBB 42F111                      4014        DC    X'42F111'            IDENTIFICATION                        28290021
 002FBE D9C5D6D9C760C3D9            4015        DC    C'REORG-CRITERIA'     ENCODE                               28300021
 002FCC 542508                      4016        DC    X'542508'                 REORG-CRITERIA                   28310021
                                    4017 *****                                                                   28320021
                                    4018 *****                                                                   28330021
 002FCF C3D6D4D7E4E3C1E3            4019 COB15  DC    C'COMPUTATIONAL-1'    ENCODE                               28340021
 002FDE 54DF04                      4020        DC    X'54DF04'            COMPUTATIONAL-1                       28350021
 002FE1 C3D6D4D7E4E3C1E3            4021        DC    C'COMPUTATIONAL-2'    ENCODE                               28360021
 002FF0 54E004                      4022        DC    X'54E004'            COMPUTATIONAL-2                       28370021
 002FF3 C3D6D4D7E4E3C1E3            4023        DC    C'COMPUTATIONAL-3'    ENCODE                               28380021
 003002 54E104                      4024        DC    X'54E104'            COMPUTATIONAL-3                       28390021
 003005 C5E7E3C5D5C4C5C4            4025        DC    C'EXTENDED-SEARCH'    ENCODE                               28400021
 003014 544D08                      4026        DC    X'544D08'                  EXTENDED-SEARCH                 28410021
1PH1B     IKFCBL1B                                                                                              PAGE   95
-  LOC  OBJECT CODE    ADDR1 ADDR2  STMT   SOURCE STATEMENT                                       ASM 0201 11.03 02/14/15
0003017 D6C2D1C5C3E360C3            4027        DC    C'OBJECT-COMPUTER'    ENCODE                               28420021
 003026 42F748                      4028        DC    X'42F748'            OBJECT-COMPUTER                       28430021
 003029 E2D6E4D9C3C560C3            4029        DC    C'SOURCE-COMPUTER'    ENCODE                               28440021
 003038 42F648                      4030        DC    X'42F648'            SOURCE-COMPUTER                       28450021
 00303B D9C5C3D6D9C460D6            4031        DC    C'RECORD-OVERFLOW'    ENCODE                               28460021
 00304A 545408                      4032        DC    X'545408'                  RECORD-OVERFLOW                 28470021
 00304D E6D6D9D2C9D5C760            4033        DC    C'WORKING-STORAGE'    ENCODE                               28480021
 00305C 420324                      4034 WRKSCD DC    X'420324'            WORKING-STORAGE                       28490021
 00305F C5D5C4                      4035 TBEND  DC    C'END'                      END OF COBOL WORDS             28500021
1PH1B     IKFCBL1B                                                                                              PAGE   96
-  LOC  OBJECT CODE    ADDR1 ADDR2  STMT   SOURCE STATEMENT                                       ASM 0201 11.03 02/14/15
0                                   4037 *=2      TRT AND SPECIAL CHARACTER TABLES                               28520021
                                    4038 *                                                                       28530021
                                    4039 *  TABLE FOR LOCATIONG ADDRESS OF PROPER LENGTH COBOL WORD              28540021
                                    4040 *                                                                       28550021
 003062 0000
 003064 00000002                    4041 ADTAB  DC    F'2'                   COBOL WORD  TABLE BY LENGTH         28560021
 003068 000024C8                    4042        DC    A(COBWRD)              COBOL WORD  TABLE BY LENGTH         28570021
 00306C 00000003                    4043        DC    F'3'                   COBOL WORD  TABLE BY LENGTH         28580021
 003070 0000253B                    4044        DC    A(COB3)                                                    28590021
 003074 00000004                    4045        DC    F'4'                   COBOL WORD  TABLE BY LENGTH         28600021
 003078 000025F5                    4046        DC    A(COB4)                                                    28610021
 00307C 00000005                    4047        DC    F'5'                   COBOL WORD  TABLE BY LENGTH         28620021
 003080 00002737                    4048        DC    A(COB5)                                                    28630021
 003084 00000006                    4049        DC    F'6'                   COBOL WORD  TABLE BY LENGTH         28640021
 003088 000028BF                    4050        DC    A(COB6)                COBOL WORD  TABLE BY LENGTH         28650021
 00308C 00000007                    4051        DC    F'7'                   COBOL WORD  TABLE BY LENGTH         28660021
 003090 00002A39                    4052        DC    A(COB7)                COBOL WORD  TABLE BY LENGTH         28670021
 003094 00000008                    4053        DC    F'8'                   COBOL WORD  TABLE BY LENGTH         28680021
 003098 00002B97                    4054        DC    A(COB8)                COBOL WORD  TABLE BY LENGTH         28690021
 00309C 00000009                    4055        DC    F'9'                   COBOL WORD  TABLE BY LENGTH         28700021
 0030A0 00002C89                    4056        DC    A(COB9)                COBOL WORD  TABLE BY LENGTH         28710021
 0030A4 0000000A                    4057        DC    F'10'                  COBOL WORD  TABLE BY LENGTH         28720021
 0030A8 00002D55                    4058        DC    A(COB10)               COBOL WORD  TABLE BY LENGTH         28730021
 0030AC 0000000B                    4059        DC    F'11'                  COBOL WORD  TABLE BY LENGTH         28740021
 0030B0 00002E0B                    4060        DC    A(COB11)               COBOL WORD  TABLE BY LENGTH         28750021
 0030B4 0000000C                    4061        DC    F'12'                  COBOL WORD  TABLE BY LENGTH         28760021
 0030B8 00002E89                    4062        DC    A(COB12)               COBOL WORD  TABLE BY LENGTH         28770021
 0030BC 0000000D                    4063        DC    F'13'                  COBOL WORD  TABLE BY LENGTH         28780021
 0030C0 00002F3D                    4064        DC    A(COB13)               COBOL WORD  TABLE BY LENGTH         28790021
 0030C4 0000000E                    4065        DC    F'14'                  COBOL WORD  TABLE BY LENGTH         28800021
 0030C8 00002FAD                    4066        DC    A(COB14)               COBOL WORD  TABLE BY LENGTH         28810021
 0030CC 0000000F                    4067        DC    F'15'                  COBOL WORD  TABLE BY LENGTH         28820021
 0030D0 00002FCF                    4068        DC    A(COB15)               COBOL WORD  TABLE BY LENGTH         28830021
 0030D4 00000000                    4069        DC    F'0'                   COBOL WORD  TABLE BY LENGTH         28840021
 0030D8 0000305F                    4070        DC    A(TBEND)               COBOL WORD  TABLE BY LENGTH         28850021
1PH1B     IKFCBL1B                                                                                              PAGE   97
-  LOC  OBJECT CODE    ADDR1 ADDR2  STMT   SOURCE STATEMENT                                       ASM 0201 11.03 02/14/15
0                                   4072 *                                                                       28870021
                                    4073 *  SPECIAL CHARACTER TABLE                                              28880021
                                    4074 *                                                                       28890021
 0030DC 000030F8                    4075 SPTBAD DC    A(SPCTBL+24)     ADDR OF LAST ITEM IN TABLE                28900021
                                    4076 *                                                                       28910021
 0030E0 7E                          4077 SPCTBL DC    X'7E'            EQUAL                                     28920021
 0030E1 5006                        4078        DC    X'5006'               ENCODE                               28930021
 0030E3 5C                          4079        DC    X'5C'            ASTERISK                                  28940021
 0030E4 5302                        4080        DC    X'5302'               ENCODE                               28950021
 0030E6 4D                          4081        DC    X'4D'            LEFT PARENTHESIS                          28960021
 0030E7 5200                        4082 LPREN  DC    X'5200'               ENCODE                               28970021
 0030E9 5D                          4083        DC    X'5D'            RIGHT PARENTHESIS                         28980021
 0030EA 5201                        4084 RPREN  DC    X'5201'               ENCODE                               28990021
 0030EC 61                          4085        DC    X'61'            SLASH                                     29000021
 0030ED 5303                        4086        DC    X'5303'               ENCODE                               29010021
 0030EF 4C                          4087        DC    X'4C'            LESS THAN                                 29020021
 0030F0 500A                        4088        DC    X'500A'               ENCODE                               29030021
 0030F2 6E                          4089        DC    X'6E'            GREATER THAN                              29040021
 0030F3 5008                        4090        DC    X'5008'               ENCODE                               29050021
 0030F5 4E                          4091        DC    X'4E'            PLUS                                      29060021
 0030F6 5300                        4092 PLUSCD DC    X'5300'               ENCODE                               29070021
 0030F8 60                          4093        DC    X'60'            MINUS                                     29080021
 0030F9 5301                        4094 MINCD  DC    X'5301'               ENCODE                               29090021
                                    4095 * * * * *                                                               29100021
 0030FB 5C5C                        4096 EXPOKD DC    X'5C5C'          **  'EXPONENTIATE'                        29110021
 0030FD 5304                        4097 EXPOCD DC    X'5304'               ENCODE                               29120021
1PH1B     IKFCBL1B                                                                                              PAGE   98
-  LOC  OBJECT CODE    ADDR1 ADDR2  STMT   SOURCE STATEMENT                                       ASM 0201 11.03 02/14/15
0                                   4099 *                                                                       29140021
                                    4100 *=1    GETDLM ROUTINE                             ID   ENV  DATA PR     29150021
                                    4101 *                                                                       29160021
 0030FF 00
 003100 90E0 D6EC      00F8C        4102 GETDLM STM   JP,JR,GDLRSV         SAVE REGS                             29170021
 003104 D501 C580 C4FE 01BE0 01B5E  4103          CLC   CURCOD(LX2),EOSCON        EOS                            29180021
 00310A 4770 AC4A      03112        4104        BC    NOTEQ,GDL1                 NO                              29190021
 00310E 45E0 B000      01F68        4105        BAL   JP,GETWD                   GETWD                           29200021
 003112 94F3 D278      00B18        4106 GDL1     NI    MSG4SW,XXF3               SET 'OFF' MSG4SW + MSG1SW      29210021
 003116 47F0 AC6A      03132        4107        BC    UNCOND,GDLMAJ         MAJOR                                29220021
 00311A 90EF D6EC      00F8C        4108 SKIP   STM   JP,JQ,GDLRSV               SAVE REGS                       29230021
 00311E 9608 D278      00B18        4109          OI    MSG4SW,XX08               SET MSG4SW ON                  29240021
 003122 47F0 AC6A      03132        4110        BC    UNCOND,GDLMAJ         MAJOR                                29250021
 003126 90E0 D6EC      00F8C        4111 SKIPGT STM   JP,JR,GDLRSV               SAVE REGS                       29260021
 00312A 9608 D278      00B18        4112          OI    MSG4SW,XX08               SET 'ON' MSG4 SW               29270021
 00312E 45E0 B000      01F68        4113 GDLGET BAL   JP,GETWD                   GETWD                           29280021
 003132 9130 C580      01BE0        4114 GDLMAJ   TM    CURCOD,XX30               MAJOR IS O                     29290021
 003136 4770 AC80      03148        4115        BNZ   GDLMST                     NO                              29300021
 00313A D501 C580 C4FE 01BE0 01B5E  4116          CLC   CURCOD(LX2),EOSCON        EOS                            29310021
 003140 4780 AC66      0312E        4117        BC    EQ,GDLGET                  YES                             29320021
 003144 47F0 ACA4      0316C        4118        B     GDL9                       NO                              29330021
 003148 9108 D278      00B18        4119 GDLMST   TM    MSG4SW,XX08               TEST MSG4SW                    29340021
 00314C 4710 AC66      0312E        4120        BC    ONES,GDLGET                SWITCH ON                       29350021
 003150 9608 D278      00B18        4121          OI    MSG4SW,XX08               SET MSG4SW ON                  29360021
 003154 9104 D278      00B18        4122          TM    MSG1SW,XX04               MSG1SW 'ON'                    29370021
 003158 4710 AC9C      03164        4123        BC    ONES,GDLMS1                 YES-GDLMS1                     29380021
 00315C 45E0 D91C      011BC        4124        BAL   JP,MSG4                    MSG4                            29390021
 003160 47F0 AC66      0312E        4125        BC    UNCOND,GDLGET         GET NEXT WORD                        29400021
 003164 45E0 D910      011B0        4126 GDLMS1 BAL   JP,MSG1                     MSG1                           29410021
 003168 47F0 AC66      0312E        4127        BC    UNCOND,GDLGET               -GDLGET                        29420021
 00316C 98E0 D6EC      00F8C        4128 GDL9   LM    JP,JR,GDLRSV                                               29430021
                             05300  4129        USING EXHSVB,JJ                                                  29440021
 003170 95FF C581      01BE1        4130          CLI   CURN,XXFF                EOP                             29450021
 003174 4780 9C28      05F28        4131        BE    PROEND                ALL OVER                             29460021
                                    4132        DROP  JJ                                                         29470021
 003178 98E0 D6EC      00F8C        4133 GDLXIT LM    JP,JR,GDLRSV               RESTORE REGS                    29480021
 00317C 07FE                        4134        BCR   UNCOND,JP             RETURN TO CALLER                     29490021
1PH1B     IKFCBL1B                                                                                              PAGE   99
-  LOC  OBJECT CODE    ADDR1 ADDR2  STMT   SOURCE STATEMENT                                       ASM 0201 11.03 02/14/15
0003180                             4136 IKF105 CSECT                                                            29510021
                                    4137 *=1    UNIT LEVEL SCAN                                                  29520021
                             03180  4138        USING UNLVSN,JQ                                                  29530021
                             03AC0  4139        USING LETTER,JJ                                                  29540021
                                    4140 *                                                                       29550021
                                    4141 * UNIT LEVEL SCAN INITIALIZATION                                        29560021
                                    4142 *                                                                       29570021
                                    4143 *                                                                       29580021
                                    4144 *  INITIALIZATION ROUTINE TO CONVERT SINGLE STROKE QUOTE MARK X'7D'     29590021
                                    4145 *   TO DOUBLE STROKE QUOTE MARK X'7F' IN PHASE 1                        29600021
                                    4146 *                                                                       29610021
 003180                             4147 UNLVSN DS    0H                         START OF UNIT LEVEL SCAN        29620021
                                    4148 *CHNGQT MVI   TBQUT1+2,X'03'                                            29630021
                                    4149 *       MVI   TBQUT1,X'07'                                              29640021
                                    4150 *       MVI   SNGLQT,X'7F'                                              29650021
                                    4151 *       BCR   UNCOND,R14                                                29660021
 003180 7D                          4152 SNGLQT DC    X'7D'                 SINGLE QUOTE                         29670021
                                    4153 *                                                                       29680021
                                    4154 *                                                                       29690021
                                    4155 * UNIT LEVEL SCAN OF SOURCE CARD                                        29700021
                                    4156 *                                                                       29710021
                                    4157 *                                                                       29720021
                                    4158 * IF LAST WORD WAS A NUM LIT, SAVE IT IN EXTERNAL FORM 'BCD W/SIGN'     29730021
                                    4159 *                                                                       29740021
 003181 00
 003182 9610 D285      00B25        4160 GETWD2   OI    GTRTSW,XX10               SET GET CD RETURN SW ON        29750021
 003186 901F C0A8      01708        4161        STM   R1,R15,GTCDSV              SAVE GET CD REGS                29760021
 00318A 981F C06C      016CC        4162        LM    R1,R15,GTWDSV              RESTORE GETWD REGD              29770021
 00318E D2A1 C558 C60E 01BB8 01C6E  4163 GTWORD   MVC   CURNUM(LX162),NXTNUM      NXTFLD TO CUR-FLD              29780021
 003194 9532 C636      01C96        4164          CLI   NXTCOD,XX32          LAST WORD WAS NUM LIT               29790021
 003198 4770 F052      031D2        4165        BC    NOTEQ,ULSC1            NO-ULSC1                            29800021
 00319C 9102 D27F      00B1F        4166          TM    RWLTSW,XX02               IN RPT SCT                     29810021
 0031A0 4780 F03E      031BE        4167        BC    ZERO,NORPWT                 NO-NORPWT                      29820021
 0031A4 9108 C57D      01BDD        4168          TM    CURSW,XX08                INT-NUM-LIT                    29830021
 0031A8 4710 F03E      031BE        4169        BC    ONES,NORPWT                 YES-NORPWT                     29840021
 0031AC 9104 D280      00B20        4170          TM    VALXW,XX04                VALUE CLAUSE                   29850021
 0031B0 4710 F03E      031BE        4171        BC    ONES,NORPWT                 YES-NORPWT                     29860021
 0031B4 45E0 DABC      0135C        4172        BAL   JP,MSG108                  -MSG108                         29870021
 0031B8 D203 C581 C503 01BE1 01B63  4173          MVC   CURN(LX4),INLONE          MAKE INL OF ONE                29880021
 0031BE 5820 D788      01028        4174 NORPWT L     R2,VALNLT                  ADDR OF UNPWKW 'FROM'           29890021
 0031C2 4110 C5FB      01C5B        4175          LA    R1,CURXNL+NX1        ADDR OF CURXNL 'TO'                 29900021
 0031C6 5880 D78C      0102C        4176          L     R8,VALNLT+NX4        SIZE OF FIELD                       29910021
 0031CA 4280 C5FA      01C5A        4177        STC   R8,CURXNL             STORE SIZE                           29920021
 0031CE 4480 F276      033F6        4178        EX    R8,NLMOVE             EX MOVE OF NUM LIT                   29930021
                                    4179 *                                                                       29940021
                                    4180 * IF '*DEBUG' IS SET UP IN NXTCOD LEAVE UNIT LEVEL SCAN                 29950021
                                    4181 *                                                                       29960021
 0031D2 9104 D27C      00B1C        4182 ULSC1    TM    DEBULS,XX04               *DEBUG                         29970021
 0031D6 4780 F062      031E2        4183        BC    ZERO,ULSC12                 NO-ULSC12                      29980021
 0031DA 94FB D27C      00B1C        4184          NI    DEBULS,XXFB               SET 'OFF' DEBULS               29990021
 0031DE 47F0 98B8      04378        4185        BC    UNCOND,ULSOUT               -ULSOUT                        30000021
                                    4186 *                                                                       30010021
 0031E2 9120 D27B      00B1B        4187 ULSC12   TM    LCRDSW,XX20               ALL CARDS ARE READ             30020021
 0031E6 4710 98B8      04378        4188        BC    ONES,ULSOUT                 YES-ULSOUT                     30030021
 0031EA 9101 D285      00B25        4189          TM    DBRDSW,XX01               DOUBLE BUFF FOR COPYR ?        30040021
1PH1B     IKFCBL1B                                                                                              PAGE  100
-  LOC  OBJECT CODE    ADDR1 ADDR2  STMT   SOURCE STATEMENT                                       ASM 0201 11.03 02/14/15
00031EE 4770 F0F8      03278        4190        BC    NOTZER,ULSCR0              YES - SKIP LAST WD SAVE         30050021
 0031F2 9160 D285      00B25        4191          TM    SWBYTS+NX13,XX60          SKIP LASTWD SAVE               30060021
 0031F6 4740 F0FC      0327C        4192        BM    ULSCRG                     YES- SCAN CD                    30070021
 0031FA 9640 D285      00B25        4193          OI    NWCDSW,XX40               SET NEW CD SW ON               30080021
 0031FE 0670                        4194        BCTR  R7,R0                      ADDR OF COL 73                  30090021
 003200 0670                        4195 ULSGLS BCTR  R7,R0                      COL 72                          30100021
 003202 1975                        4196          CR    R7,R5               IS CARD BLANK                   8111 30110021
 003204 4740 F122      032A2        4197          BL    ULS13A                   YES-GO SKIP CARD          2689  30120021
 003208 9540 7000      00000        4198          CLI   DX0(R7),XX40              BLANK ?                        30130021
 00320C 4780 F080      03200        4199        BE    ULSGLS                     YES - TRY AGAIN                 30140021
 003210 954B 7000      00000        4200          CLI   DX0(R7),XX4B              WD ENDING WITH PERIOD ?        30150021
 003214 4780 F0F8      03278        4201        BE    ULSCR0                     YES - DON'T SAVE IT             30160021
 003218 956B 7000      00000        4202          CLI   DX0(R7),XX6B              COMMA                          30170021
 00321C 4780 F0F8      03278        4203        BE    ULSCR0                     YES - DON'T SAVE LAST WD        30180021
 003220 9602 D280      00B20        4204          OI    LSTWSW,XX02          POSSIBLE LAST WORD SW               30190021
 003224 4147 0001      00001        4205          LA    R4,DX1(R7)                SAVE END ADDR                  30200021
 003228 47F0 F0AE      0322E        4206        B     ULSG2A                     SKIP DECREMENT                  30210021
 00322C 0670                        4207 ULSGL2 BCTR  R7,R0                      NXT LOCATION AFTER NON-BLK      30220021
 00322E 9540 7000      00000        4208 ULSG2A   CLI   DX0(R7),XX40              BLANK ?                        30230021
 003232 4780 F0C4      03244        4209        BE    ULSCR1                     YES - BEGIN SAVE WD RT          30240021
 003236 D500 7000 F000 00000 03180  4210          CLC   DX0(LX1,R7),SNGLQT         QUOTE HIT                     30250021
 00323C 4770 F0AC      0322C        4211        BNE   ULSGL2                     NO CONTINUE LOOP                30260021
 003240 47F0 F0F8      03278        4212        B     ULSCR0                     YES - RESTORE COL74 IN R7       30270021
 003244 4177 0001      00001        4213 ULSCR1   LA    R7,DX1(R7)                BEGINNING ADDR                 30280021
 003248 1976                        4214        CR    R7,R6                      LAST WD IN A-MARGIN ?           30290021
 00324A 4740 F0F8      03278        4215        BL    ULSCR0                     YES - NORMAL PROCESS            30300021
 00324E D507 7000 A6F0 00000 02BB8  4216          CLC   DX0(LX8,R7),DIVKON         DIVISION LAST WD ?            30310021
 003254 4780 F0F8      03278        4217        BE    ULSCR0                     YES - LEAVE ON CARD             30320021
 003258 D506 7000 A6A7 00000 02B6F  4218          CLC   DX0(LX7,R7),SCTKON         SECTION LAST WD               30330021
 00325E 4780 F0F8      03278        4219        BE    ULSCR0                     YES - LEAVE ON CARD             30340021
 003262 1B47                        4220        SR    R4,R7                      DISPLACEMENT                    30350021
 003264 4240 D710      00FB0        4221        STC   R4,LASTWD                  STORE SIZE                      30360021
 003268 0640                        4222        BCTR  R4,R0                     SUBTRACT 1 FOR EX INSTR.    9610 30370021
 00326A 4440 F0F2      03272        4223        EX    R4,MVLSWD                 EX INSTR. TO SAVE LAST WORD 9610 30380021
 00326E 47F0 F0FC      0327C        4224        B     ULSCRG                     SKIP INST.                      30390021
 003272 D200 D711 7000 00FB1 00000  4225 MVLSWD MVC   LASTWD+NX1(DX0),DX0(R7)   SAVE LAST WORD              9610 30400021
 003278 5870 F568      036E8        4226 ULSCR0   L     R7,SETREG+NX8             R7 SET TO COL 74               30410021
                                    4227 *                                                                       30420021
                                    4228 * SCAN TO NEXT UNIT ON CARD                                             30430021
                                    4229 *                                                                       30440021
 00327C 1B22                        4230 ULSCRG SR    R2,R2                      ZERO REG                        30450021
 00327E 1B11                        4231        SR    R1,R1                      CLEAR REG                       30460021
 003280 DD4F 5000 C3DC 00000 01A3C  4232          TRT   DX0(LX80,R5),UNONB    SCAN TO NON-BLANK                  30470021
 003286 5010 D704      00FA4        4233        ST    R1,NBLPTR                  SAVE ADDR                       30480021
 00328A 1851                        4234        LR    R5,R1                 SAVE ADDR OF NON-BLANK               30490021
 00328C 1917                        4235        CR    R1,R7                 IS IT IN COL-74                      30500021
 00328E 4740 F230      033B0        4236        BC    LO,ULSC1A                   NO-ULSC1A                      30510021
 003292 9180 D284      00B24        4237          TM    CDSURP,XX80               CARD SURPRESS SW ON            30520021
 003296 4780 F122      032A2        4238        BC    ZERO,ULS13A                NO - CONTINUE                   30530021
 00329A 947F D284      00B24        4239          NI    CDSURP,XX7F               SET SW OFF                     30540021
 00329E 47F0 98B8      04378        4240        B     ULSOUT                     RETURN TO CALLING               30550021
 0032A2 94BF D285      00B25        4241 ULS13A   NI    NWCDSW,XXBF               SET NEW CD SW OFF              30560021
 0032A6 9120 D285      00B25        4242          TM    SKCDSW,XX20               SW ON                          30570021
 0032AA 4780 F154      032D4        4243        BC    ZERO,ULSC13                NO - GTCARD                     30580021
 0032AE 94DF D285      00B25        4244          NI    SKCDSW,XXDF               YES - SET SW OFF               30590021
1PH1B     IKFCBL1B                                                                                              PAGE  101
-  LOC  OBJECT CODE    ADDR1 ADDR2  STMT   SOURCE STATEMENT                                       ASM 0201 11.03 02/14/15
00032B2 9857 F560      036E0        4245        LM    R5,R7,SETREG               SET UP REGS FOR NEW CD SCN      30600021
 0032B6 D24F D47B C0E4 00D1B 01744  4246          MVC   COMWRK(LX80),SAVECD       RESTORE CARD                   30610021
 0032BC 9180 D285      00B25        4247          TM    CON2SW,XX80               CONTINUE SW ON                 30620021
 0032C0 4780 F228      033A8        4248        BC    ZERO,ULSC14                NO - SCAN CD                    30630021
 0032C4 947F D285      00B25        4249          NI    CON2SW,XX7F               YES- SET SW OFF                30640021
 0032C8 5850 D708      00FA8        4250        L     R5,SKCTAD                  YES - NEXT POSITION ON CD       30650021
 0032CC 47F0 F228      033A8        4251        B     ULSC14                RESET NON-BLANK SW                   30660021
 0032D0 941F D285      00B25        4252 ULS13B   NI    SWBYTS+NX13,XX1F          SET OFF CON2SW, NWCDSW, SKC    30670021
 0032D4 D201 B2F4 D4C5 0225C 00D65  4253 ULSC13   MVC   IDCOPY(LX2),COMWRK+NX74 SAVE POSSIBLE COPY STMT ID       30680021
 0032DA 45E0 F284      03404        4254          BAL   R14,GTCARD          -GTCARD                              30690021
 0032DE 9108 D27B      00B1B        4255          TM    MSGPSW,XX08               COMMENTS IN ID DIV             30700021
 0032E2 4770 F228      033A8        4256        BC    NOTZER,ULSC14              YES - SKIP IF AREA A BLANK      30710021
 0032E6 5970 D704      00FA4        4257        C     R7,NBLPTR                  COL 74 HIT                      30720021
 0032EA 4780 F228      033A8        4258        BE    ULSC14                     YES - ALPHA LITERAL OR A-MA     30730021
 0032EE 0650                        4259        BCTR  R5,R0                      SET POINTER TO COL 7            30740021
 0032F0 9560 5000      00000        4260          CLI   DX0(R5),XX60              HYPEN IN COL 7                 30750021
 0032F4 4770 F17C      032FC        4261        BNE   STSKSW                     NO - SKIP SW SET                30760021
 0032F8 9680 D285      00B25        4262          OI    CON2SW,XX80               YES - SET CONTINUE SWITCH O    30770021
 0032FC 9620 D285      00B25        4263 STSKSW   OI    SKCDSW,XX20               SET SKIP CD SW ON              30780021
 003300 4155 0001      00001        4264          LA    R5,DX1(R5)                SET R5 BACK TO COL 8           30790021
 003304 D24F C0E4 D47B 01744 00D1B  4265          MVC   SAVECD(LX80),COMWRK       SAVE CARD                      30800021
 00330A 9240 D47B      00D1B        4266          MVI   COMWRK,XX40               BLANK OUT                      30810021
 00330E D24E D47C D47B 00D1C 00D1B  4267          MVC   COMWRK+NX1(LX79),COMWRK     COMWRK AREA                  30820021
 003314 D201 D4C3 C4E8 00D63 01B48  4268        MVC   COMWRK+NX72(LX2),KQUOTE     DELIMIT FOR TRT          2689  30830021
 00331A 1B44                        4269        SR    R4,R4                      CLEAR REG                       30840021
 00331C 4340 D710      00FB0        4270        IC    R4,LASTWD                  SIZE OF SAVED WD                30850021
 003320 0640                        4271        BCTR  R4,R0                      REDUCE LAST WD SIZE BY 1        30860021
 003322 4440 F1D0      03350        4272        EX    R4,LSTCRD                  MOVE IT TO COL 12 OF COMWRK     30870021
 003326 9180 D285      00B25        4273          TM    CON2SW,XX80               CONTINUE SW ON ?               30880021
 00332A 4780 F228      033A8        4274        BC    ZERO,ULSC14                NO - SCAN PHONEY CARD           30890021
 00332E DD50 C0EB C3DC 0174B 01A3C  4275          TRT   SAVECD+NX7(LX81),UNONB     SCAN TO FIRST WD ON CD        30900021
 003334 4120 C0EF      0174F        4276          LA    R2,SAVECD+NX11            ADDR OF COL 12                 30910021
 003338 1912                        4277        CR    R1,R2                      IN A-MARGIN                     30920021
 00333A 47B0 F1D6      03356        4278        BNL   COL74T                     NO - SKIP MSG                   30930021
 00333E 45E0 DB8C      0142C        4279        BAL   JP,MSG160                  CONT WD IN A-MARGIN             30940021
 003342 947F D285      00B25        4280 CDBLAK   NI    CON2SW,XX7F               SET OFF CONTINUE SW            30950021
 003346 47F0 F228      033A8        4281        B     ULSC14                     BEGIN NEW SCAN OF PHONEY CD     30960021
                                    4282 *                                                                       30970021
 00334A D200 2000 3000 00000 00000  4283 COMPWD   MVC   DX0(LX0,R2),DX0(R3)        CONT WD TO COMWRK             30980021
 003350 D200 6000 D711 00000 00FB1  4284 LSTCRD   MVC   DX0(LX0,R6),LASTWD+NX1     LASTWD TO COMWRK              30990021
                                    4285 *                                                                       31000021
 003356 4120 C12D      0178D        4286 COL74T   LA    R2,SAVECD+NX73            ADDR OF COL 74 IN CD SAVE      31010021
 00335A 1912                        4287        CR    R1,R2                      COL 74 HIT ?                    31020021
 00335C 47B0 F1C2      03342        4288        BNL   CDBLAK                     YES - CARD IS BLANK             31030021
 003360 1831                        4289        LR    R3,R1                      SAVE ADDR                       31040021
 003362 45E0 B2F6      0225E        4290        BAL   JP,NOLDHI                  SET UP TABLE FOR NON D,L,H      31050021
 003366 DD4F 1000 C2DC 00000 0193C  4291          TRT   DX0(LX80,R1),NONLDH        SCAN TO NON DIGIT, LETTER,    31060021
 00336C 45E0 B30E      02276        4292        BAL   JP,NOLDHO                  RESET                           31070021
 003370 1801                        4293        LR    R0,R1                      END OF CONTINUATION             31080021
 003372 1B13                        4294        SR    R1,R3                      SIZE OF CONTINUATION            31090021
 003374 4124 6001      00001        4295          LA    R2,DX1(R4,R6)             ENDING ADDR OF CONTINUED WD    31100021
 003378 18E2                        4296        LR    JP,R2                      JP=ADDR COMWRK RECEIV.FLD       31110021
 00337A 1AE1                        4297        AR    JP,R1                      JP=END ADDR RECEIVING FLD       31120021
 00337C 41EE 0001      00001        4298        LA    JP,DX1(JP)                 SETREG+1 IS 1 GT A(COL73)       31130021
 003380 59E0 F568      036E8        4299        C     JP,SETREG+NX8              END SPILL OVER COMWRK?          31140021
1PH1B     IKFCBL1B                                                                                              PAGE  102
-  LOC  OBJECT CODE    ADDR1 ADDR2  STMT   SOURCE STATEMENT                                       ASM 0201 11.03 02/14/15
0003384 4740 F214      03394        4300        BL    COL74U                     NO-CONTINUE                     31150021
 003388 5BE0 F568      036E8        4301        S     JP,SETREG+NX8              JP=AM'T EXCESS                  31160021
 00338C 1B1E                        4302        SR    R1,JP                      ADJUST LENGTH                   31170021
 00338E D201 D4C3 C4E8 00D63 01B48  4303        MVC   COMWRK+NX72(LX2),KQUOTE    DELIMIT FOR TRT                 31180021
 003394 4410 F1CA      0334A        4304 COL74U EX    R1,COMPWD                  MOVE CONT. TO COMWRK            31190021
 003398 4120 C0E4      01744        4305        LA    R2,SAVECD                  BEGIN ADDR                      31200021
 00339C 1B02                        4306        SR    R0,R2                      DISPLACE IN WORK                31210021
 00339E 4120 D47C      00D1C        4307          LA    R2,COMWRK+NX1             COMWRK ADDR                    31220021
 0033A2 1A20                        4308        AR    R2,R0                      POINTER TO NXT POSITION ON      31230021
 0033A4 5020 D708      00FA8        4309        ST    R2,SKCTAD                  SAVE PTR                        31240021
 0033A8 94FB C57D      01BDD        4310 ULSC14   NI    CURSW,XXFB                RESET NON-BLANK SW             31250021
 0033AC 47F0 F052      031D2        4311        BC    UNCOND,ULSC1           -ULSC1                              31260021
 0033B0 9400 C633      01C93        4312 ULSC1A   NI    NXTSW,XX00           RESET SWITCHES IN NXTSW             31270021
 0033B4 1916                        4313        CR    R1,R6                 IS WORD IN A-MARGIN                  31280021
 0033B6 47B0 F242      033C2        4314        BC    NOTLO,ULSC1B                NO-ULSC1B                      31290021
 0033BA 9601 C633      01C93        4315          OI    NXTSW,XX01           SET A-MARGIN SW 'ON'                31300021
 0033BE 47F0 F24A      033CA        4316        B     ULSC2A                CONTINUE                             31310021
 0033C2 9108 D27B      00B1B        4317 ULSC1B   TM    MSGPSW,XX08               MSGPSW 'ON'                    31320021
 0033C6 4710 F150      032D0        4318        BC    ONES,ULS13B                NO - ULS13B                     31330021
                                    4319 *                                                                       31340021
 0033CA 8B20 0002      00002        4320 ULSC2A   SLA   R2,DX2               MULT CODE FROM UNONB TABLE BY 4     31350021
 0033CE 47F2 F252      033D2        4321          BC    UNCOND,TRNSFR-NX4(R2) -BR TO APPROPRIATE ROUTINE         31360021
                                    4322 *                                                                       31370021
 0033D2 47F0 F052      031D2        4323        BC    UNCOND,ULSC1          LINKAGE BACK TO SCAN                 31380021
 0033D6 47F0 9000      03AC0        4324 TRNSFR BC    UNCOND,LETTER         THIS                                 31390021
 0033DA 47F0 902C      03AEC        4325        BC    UNCOND,DIGIT          IS                                   31400021
 0033DE 47F0 90C6      03B86        4326        BC    UNCOND,QUOTE          A                                    31410021
 0033E2 47F0 9264      03D24        4327        BC    UNCOND,PERIOD              PERIOD  SCAN  RTN               31420021
 0033E6 47F0 92A0      03D60        4328        BC    UNCOND,SIGN                SIGN    SCAN  RTN               31430021
 0033EA 47F0 9464      03F24        4329        BC    UNCOND,SPECL               SPEC CHAR SCAN RTN              31440021
 0033EE 47F0 94A4      03F64        4330        BC    UNCOND,ILLEGL              ILLEGAL CHAR SCAN RTN           31450021
 0033F2 47F0 94DE      03F9E        4331        BC    UNCOND,COMMA               COMMA   SCAN RTN                31460021
 0033F6 D200 1000 2000 00000 00000  4332 NLMOVE   MVC   DX0(LX0,R1),DX0(R2)   EX-MOVE                            31470021
1PH1B     IKFCBL1B                                                                                              PAGE  103
-  LOC  OBJECT CODE    ADDR1 ADDR2  STMT   SOURCE STATEMENT                                       ASM 0201 11.03 02/14/15
0                                   4334 *                                                                       31490021
                                    4335 *        GET NEXT CARD                                                  31500021
                                    4336 *                                                                       31510021
 0033FC 94FD D286      00B26        4337 GTCMCD1  NI    CMNTCDSW,XXFD       TURN OFF DELETING A COMMENT CARD SW  31520021
 003400 47F0 F288      03408        4338          BC    UNCOND,GTCMCD       CONTINUE PROCESSING                  31530021
 003404 50E0 D700      00FA0        4339 GTCARD ST    JP,GETCSV                  SAVE LINK REG                   31540021
 003408 5880 C6B0      01D10        4340 GTCMCD L     R8,COSADR                  ADDR OF COS                     31550021
 00340C 9101 D280      00B20        4341          TM    EOFSW,XX01           END OF SOURCE FILE                  31560021
 003410 4710 F366      034E6        4342          BO    REDLC2              YES - FILL NEXT                      31570021
 003414 94FB C57D      01BDD        4343          NI    CURSW,XXFB                RESET NONBLANK SW              31580021
 003418 9102 D27B      00B1B        4344          TM    DATCSW,XX02               DATE-COMP SW 'ON'              31590021
 00341C 4710 F2C8      03448        4345        BC    ONES,GTLAST                 YES-GTLAST                     31600021
 003420 D201 D4C3 D4F3 00D63 00D93  4346          MVC   SVCCRD+NX72(LX2),TWOTRE    RESTORE 2 BYTES               31610021
 003426 9102 D27C      00B1C        4347          TM    FXCDSW,XX02         IS IT FIRST CARD                     31620021
 00342A 4710 F2C8      03448        4348          BO    GTLAST                    YES                            31630021
 00342E 1818                        4349          LR    R1,R8                     PHZSW1 ADDRESSABILITY          31640021
 003430 9102 11A3      001A3        4350          TM    PHZSW,LIBR                BASIS/COPY?                    31650021
 003434 4710 F2C8      03448        4351          BO    GTLAST                    SOURCE WRITTEN BY PRE-PR       31660021
                                    4352 *       CARD TO PRINT AREA                                              31670021
 003438 4120 D473      00D13        4353        LA    R2,SVCGCN                  ADDR OF CARD                    31680021
 00343C 4130 0058      00058        4354          LA    R3,DX88(JR)                SIZE                          31690021
 003440 0508                        4355        BALR  R0,R8                      CARD TO                         31700021
 003442 16                          4356        DC    X'16'                       PRINT                          31710021
                                    4357 *       PRINT CARD                                                      31720021
 003443 00
 003444 0508                        4358        BALR  R0,R8                      PRINT                           31730021
 003446 86                          4359        DC    X'86'                       CARD                           31740021
                                    4360 *                                                                       31750021
                                    4361 *                                                                       31760021
 003448                             4362 GTLAST DS    0H                                                         31770021
 003448 5880 C6B0      01D10        4363          L     R8,COSADR                 ADDRESS OF COS                 31780021
 00344C 1818                        4364          LR    R1,R8                     PHZSW1 ADDRESSABILITY          31790021
 00344E 9120 D27F      00B1F        4365          TM    LCDXSW,XX20               NO MORE CARDS                  31800021
 003452 4710 F344      034C4        4366          BC    ONES,REDLCD               YES                            31810021
 003456 9102 11A3      001A3        4367          TM    PHZSW,LIBR                BASIS/COPY?                    31820021
 00345A 4780 F33C      034BC        4368          BZ    REGRED                    NO                             31830021
 00345E 9102 D27C      00B1C        4369          TM    FXCDSW,XX02         IS IT FIRST CARD                     31840021
 003462 47E0 F2F4      03474        4370          BNO   GTLAST2             NO - GET RECORD PTR                  31850021
 003466 0508                        4371 GTLAST1  BALR  R0,R8               READ INPUT FROM FILE 4               31860021
 003468 04                          4372          DC    X'04'                     X                              31870021
 003469 00
 00346A 4780 F344      034C4        4373          BZ    REDLCD              LAST CARD READ                       31880021
 00346E 1840                        4374          LR    R4,R0                     R4 = ADDR RECORD               31890021
 003470 5040 F338      034B8        4375          ST    R4,SVF4PTR          SAVE RECORD PTR                      31900021
 003474 5840 F338      034B8        4376 GTLAST2  L     R4,SVF4PTR          GET RECORD PTR                       31910021
 003478 95FF 4000      00000        4377          CLI   DX0(R4),XXFF        END OF BUFFER FILE 4                 31920021
 00347C 4780 F2E6      03466        4378          BE    GTLAST1             READ FILE 4                          31930021
 003480 D24F D47B 4000 00D1B 00000  4379          MVC   COMWRK(LX80),DX0(R4)      MOVE TO WORKAREA               31940021
 003486 94FD D280      00B20        4380          NI    LSTWSW,XXFD         NOT LAST SW OFF                      31950021
 00348A 4144 0050      00050        4381          LA    R4,LX80(R4)         POINT NEXT LOGICAL RECORD            31960021
 00348E 5040 F338      034B8        4382          ST    R4,SVF4PTR          SAVE RECORD PTR                      31970021
 003492 D201 C634 D4C9 01C94 00D69  4383          MVC   NXTGCN(LX2),COMWRK+XX4E INT SEQ NUMBER                   31980021
 003498 4810 C634      01C94        4384          LH    R1,NXTGCN           GET GCN FROM NXTGCN                  31990021
 00349C 4E10 D468      00D08        4385          CVD   R1,SVCPCK           FOR SOURCE STATISTICS                32000021
 0034A0 1B11                        4386          SR    R1,R1               CLEAR REG1 FOR TRT                   32010021
1PH1B     IKFCBL1B                                                                                              PAGE  104
-  LOC  OBJECT CODE    ADDR1 ADDR2  STMT   SOURCE STATEMENT                                       ASM 0201 11.03 02/14/15
00034A2 DD4F D47B C3DC 00D1B 01A3C  4387          TRT   COMWRK(LX80),UNONB  SCAN TO NON BLANK                    32020021
 0034A8 D505 1000 C510 00000 01B70  4388          CLC   DX0(LX6,R1),DEBKON  IS IT DEBUG                          32030021
 0034AE 4780 F3AE      0352E        4389          BE    REGRD1A             PROCESS DEBUG CARD                   32040021
 0034B2 47F0 F462      035E2        4390          B     REGRED6A            WRAP UP                              32050021
                                    4391 *                                                                       32060021
 0034B8                             4392 SVF4PTR  DS    F                   FILE 4 RECORD PTR                    32070021
                                    4393 *                                                                       32080021
                                    4394 *                                                                       32090021
                                    4395 *        READ SYSIN CARD - NO BASIS LIBRARY                             32100021
                                    4396 *                                                                       32110021
 0034BC 0508                        4397 REGRED BALR  R0,R8                      READ CARD                       32120021
 0034BE 75                          4398        DC    X'75'                       FROM SYSIN                     32130021
 0034BF 00
 0034C0 4770 F37E      034FE        4399        BC    NOTZER,REGRD1              NOT LAST CARD - REGRD1          32140021
                                    4400 *                                                                       32150021
 0034C4 9102 D280      00B20        4401 REDLCD   TM    LSTWSW,XX02          POSSIBLE LAST WORD ?                32160021
 0034C8 47E0 F366      034E6        4402          BNO   REDLC2              SET LCRDSW ON                        32170021
 0034CC 9640 D285      00B25        4403          OI    NWCDSW,XX40          SKIP LASTWD SAVE                    32180021
 0034D0 5870 F568      036E8        4404          L     R7,SETREG+NX8        COL 74 SET                          32190021
 0034D4 5070 D704      00FA4        4405          ST    R7,NBLPTR           SAVE IT                              32200021
 0034D8 9601 D280      00B20        4406          OI    EOFSW,XX01           SET OFF                             32210021
 0034DC D202 D4C3 C4E8 00D63 01B48  4407          MVC   COMWRK+NX72,KQUOTE   STOPPER FOR LAST CARD           341 32220021
 0034E2 47F0 F486      03606        4408          B     REG7RT              EXIT TO GETWD                        32230021
 0034E6                             4409 REDLC2   DS    0H                                                       32240021
 0034E6 9620 D27B      00B1B        4410          OI    LCRDSW,XX20          LAST CD SET ON                      32250021
 0034EA D202 C636 C4F2 01C96 01B52  4411          MVC   NXTCOD(LX3),EOPCON        SETUP EOPCON IN NEXT           32260021
 0034F0 9201 C633      01C93        4412          MVI   NXTSW,XX01                SET 'ON' NXTSW                 32270021
 0034F4 D201 C634 C134 01C94 01794  4413          MVC   NXTGCN(LX2),HWZERO        ZERO NXTGCN                    32280021
 0034FA 47F0 98B8      04378        4414        BC    UNCOND,ULSOUT               -ULSOUT                        32290021
                                    4415 *                                                                       32300021
 0034FE 1840                        4416 REGRD1 LR    R4,R0                      ADDR OF CARD IN BUFFER          32310021
 003500 94FD D280      00B20        4417          NI    LSTWSW,XXFD          NOT LAST SW OFF                     32320021
 003504 D24F F578 4000 036F8 00000  4418          MVC   MAINWK(LX80),DX0(R4)       CARD TO MAINWK                32330021
 00350A D24F D47B 4000 00D1B 00000  4419          MVC   COMWRK(LX80),DX0(R4)                                     32340021
 003510 9102 D27C      00B1C        4420          TM    FXCDSW,XX02               FIRST CARD READ                32350021
 003514 4710 F436      035B6        4421        BC    ONES,REGR5A                 YES-REGR5A                     32360021
 003518 45E0 F494      03614        4422        BAL   JP,SKPEJT                  CHECK FOR SKIP OR EJECT         32370021
 00351C 1B11                        4423           SR   R1,R1               CLEAR R1 FOR TRT               8922  32380021
 00351E DD4F D47B C3DC 00D1B 01A3C  4424          TRT   COMWRK(LX80),UNONB  SCAN TO NON BLANK                    32390021
 003524 D505 1000 C510 00000 01B70  4425          CLC   DX0(LX6,R1),DEBKON  IS IT DEBUG?                   0335  32400021
 00352A 4770 F3F2      03572        4426        BC    NOTEQ,REGRD2                NO-REGRD2                      32410021
 00352E 960C D27C      00B1C        4427 REGRD1A  OI    DEBEOS,XX0C         SET ON DEBEOS AND DEBULS             32420021
 003532 5050 F48C      0360C        4428        ST    R5,DEBR5                  SAVE REGISTER 5            8922  32430021
 003536 5850 F490      03610        4429        L     R5,ADEBRTN                BASE REG FOR DEBRTN        8922  32440021
 00353A 05E5                        4430        BALR  JP,R5                     DEBUG COL INDEP RTNE       8922  32450021
 00353C 5850 F48C      0360C        4431        L     R5,DEBR5                  RESTORE REGISTER 5         8922  32460021
 003540 D24F F578 D47B 036F8 00D1B  4432          MVC   MAINWK(LX80),COMWRK                                8922  32470021
 003546 D20B C60E C509 01C6E 01B69  4433          MVC   NXTNUM(LX12),BUGCON      BLANK SEQ-NUM, CNT+WORD TO N    32480021
 00354C 9200 C633      01C93        4434          MVI   NXTSW,XX00                RESET NXTSW                    32490021
 003550 D202 C636 C517 01C96 01B77  4435          MVC   NXTCOD(LX3),DEBCON        CODE TO NXTCOD                 32500021
 003556 5810 C6B0      01D10        4436          L     R1,COSADR           ADDRESS OF COS                       32510021
 00355A 9102 11A3      001A3        4437          TM    PHZSW,LIBR          INPUT FROM PREPROCESSOR              32520021
 00355E 4710 F462      035E2        4438          BO    REGRED6A            YES - RETURN                         32530021
 003562 D205 F570 C82E 036F0 01E8E  4439          MVC   NMLST5(LX6),NMCRD4        SET UP LAST SEQ-NUM            32540021
 003568 D205 C82E D4E3 01E8E 00D83  4440          MVC   NMCRD4(LX6),UBLNK         MAKE SEQ-NUM BLANK             32550021
1PH1B     IKFCBL1B                                                                                              PAGE  105
-  LOC  OBJECT CODE    ADDR1 ADDR2  STMT   SOURCE STATEMENT                                       ASM 0201 11.03 02/14/15
000356E 47F0 F3FE      0357E        4441          B     REGRD4                    -REGRD4                        32560021
                                    4442 *                                                                       32570021
 003572 D205 F570 C82E 036F0 01E8E  4443 REGRD2   MVC   NMLST5(LX6),NMCRD4        SET UP LAST SEQ-NUM            32580021
 003578 D205 C82E 4000 01E8E 00000  4444          MVC   NMCRD4(LX6),DX0(R4)        SET UP NEW SEQ-NUM            32590021
                                    4445 *                                                                       32600021
                                    4446 *                                                                       32610021
 00357E D505 C82E D4E3 01E8E 00D83  4447 REGRD4   CLC   NMCRD4(LX6),UBLNK         SEQ-NUM BLANK                  32620021
 003584 4780 F436      035B6        4448        BC    EQ,REGR5A                   YES-REGR5A                     32630021
 003588 D505 C82E D4DD 01E8E 00D7D  4449          CLC   NMCRD4(LX6),SVCSEQ        IN SEQUENCE                    32640021
 00358E 4720 F430      035B0        4450        BC    HI,REGRD5                   YES-REGRD5                     32650021
 003592 5820 C6B0      01D10        4451        L     R2,COSADR                  ADDR OF COS                     32660021
 003596 9108 21A3      001A3        4452        TM    PHZSW-COS(R2),SEQ                                          32670021
 00359A 4780 F430      035B0        4453        BC    ZERO,REGRD5           NO                                   32680021
 00359E 4812 0180      00180        4454        LH    R1,SEQERR-COS(R2)                                          32690021
 0035A2 4111 0001      00001        4455          LA    R1,DX1(R1)                 COUNT OF                      32700021
 0035A6 4012 0180      00180        4456        STH   R1,SEQERR-COS(R2)                                          32710021
 0035AA D201 F576 AC33 036F6 030FB  4457          MVC   MAIMOV(LX2),EXPOKD   PUT SEQ ERROR SYMBOL IN LINE        32720021
 0035B0 D205 D4DD C82E 00D7D 01E8E  4458 REGRD5   MVC   SVCSEQ(LX6),NMCRD4        SAVE NEW SEQUENCE NUMBER       32730021
 0035B6 D251 D479 F576 00D19 036F6  4459 REGR5A   MVC   COMMOV(LX82),MAIMOV       MAIMOV TO COMMOV               32740021
 0035BC D201 F576 D4E3 036F6 00D83  4460          MVC   MAIMOV(LX2),UBLNK         CLEAR SEQ-ERR SYMBOL           32750021
 0035C2                             4461 REGR5B   DS    0H                                                       32760021
 0035C2 45E0 F494      03614        4462        BAL   JP,SKPEJT                  CK FOR SKIP OR EJECT            32770021
 0035C6 58E0 D700      00FA0        4463        L     JP,GETCSV                                                  32780021
                                    4464 *                                                                       32790021
 0035CA FA31 D46C D460 00D0C 00D00  4465 REGRD6   AP    SVCPCK+NX4(LX4),SVCINC    INCREASE GEN-NUM               32800021
 0035D0 F373 D470 D46C 00D10 00D0C  4466          UNPK  SVCUPK(LX8),SVCPCK+NX4(LX4) SET-UP GEN IN SAVE AREA      32810021
 0035D6 96F0 D477      00D17        4467          OI    SVCUPK+NX7,XXF0           GET RID OF SIGN                32820021
 0035DA 4F10 D468      00D08        4468        CVB   R1,SVCPCK                  CONVERT TO BINARY               32830021
 0035DE 4010 C634      01C94        4469        STH   R1,NXTGCN                  STORE GCN IN NXTGCN             32840021
 0035E2 D201 D4F3 D4C3 00D93 00D63  4470 REGRED6A MVC   TWOTRE(LX2),SVCCRD+NX72 SAVE 2 BYTES                     32850021
 0035E8 D201 D4C3 C4E8 00D63 01B48  4471 REGRD7   MVC   COMWRK+NX72(LX2),KQUOTE    BLANK + QUOTE TO COL 73 + 7   32860021
 0035EE 9857 F560      036E0        4472        LM    R5,R7,SETREG               SET UP REG FOR COL 8-12-74      32870021
 0035F2 9017 D658      00EF8        4473        STM   R1,R7,SAVREG               SET-UP SAVE AREA FOR NEW CA     32880021
 0035F6 9108 D283      00B23        4474          TM    REPSW,XX08                REPLACING OPTION ?             32890021
 0035FA 477E 0000      00000        4475          BC    NOTZER,DX0(JP)            YES - RETURN TO POINT OF CA    32900021
 0035FE 9102 D286      00B26        4476          TM    CMNTCDSW,XX02       DELETING A COMMENT CARD              32910021
 003602 4710 F27C      033FC        4477          BO    GTCMCD1             YES GET NEXT CARD                    32920021
 003606 58E0 D700      00FA0        4478 REG7RT L     JP,GETCSV                  RESTORE LINK REG                32930021
 00360A 07FE                        4479        BCR   UNCOND,JP                   -RETURN                        32940021
                                    4480 *                                                                 8922  32950021
                                    4481 *                                                                 8922  32960021
 00360C 00000000                    4482 DEBR5    DC    F'0'                     R5 SAVE AREA              8922  32970021
 003610 000063B8                    4483 ADEBRTN  DC    A(DEBRTN)                DEBUG COLUMN INDEP.       8922  32980021
                                    4484 *                                                                       32990021
                                    4485 ***     THIS  ROUTINE CHECKS FOR SKIP1, SKIP2, SKIP3                    33000021
                                    4486 ***                EJECT, OR '*'(COMMENTS) IN COL 7.                    33010021
                                    4487 *                                                                       33020021
 003614 94FD D286      00B26        4488 SKPEJT   NI    CMNTCDSW,XXFD       AVOID LOSS OF PREVIOUS               33030021
 003618 955C D481      00D21        4489          CLI   COMWRK+NX6,XX5C     ASTERISK IN COL 7                    33040021
 00361C 4770 F4A8      03628        4490        BNE   SKPTRT                     NO - CK FOR SKP - EJECT         33050021
 003620 9602 D286      00B26        4491          OI    CMNTCDSW,XX02       TURN ON DELETING A CARD SW           33060021
 003624 47FE 0000      00000        4492          B     DX0(JP)             RETURN TO CALLING ROUTINE            33070021
 003628                             4493 SKPTRT DS    0H                                                         33080021
 003628 4150 D4C3      00D63        4494          LA    R5,COMWRK+NX72      SET COL 73 LIMIT                     33090021
 00362C DD4F D482 C3DC 00D22 01A3C  4495          TRT   COMWRK+NX7(LX80),UNONB   SCAN TO NON BLANK               33100021
1PH1B     IKFCBL1B                                                                                              PAGE  106
-  LOC  OBJECT CODE    ADDR1 ADDR2  STMT   SOURCE STATEMENT                                       ASM 0201 11.03 02/14/15
0003632 1915                        4496          CR    R1,R5               PAST COL 73                          33110021
 003634 47BE 0000      00000        4497          BNL   DX0(JP)             BLANK CARD                           33120021
 003638 1831                        4498        LR    R3,R1                      SAVE BEGIN ADDR                 33130021
 00363A 4111 0005      00005        4499          LA    R1,DX5(R1)                SKIPN OR EJECT LENGTH          33140021
 00363E DD4F 1000 C3DC 00000 01A3C  4500          TRT   DX0(LX80,R1),UNONB         SCAN TO NON BLANK             33150021
 003644 1915                        4501        CR    R1,R5                      CARD BLANK ?                    33160021
 003646 474E 0000      00000        4502        BL    0(JP)                      NO - RETURN TO CALLING          33170021
 00364A D504 3000 A2C7 00000 0278F  4503          CLC   DX0(LX5,R3),EJCON          EJECT HIT ?                   33180021
 003650 4780 F52E      036AE        4504        BE    PEJECT                     YES - CALL TO EJECT             33190021
 003654 D504 3000 A36F 00000 02837  4505          CLC   DX0(LX5,R3),SK1CON         SKIP1  HIT                    33200021
 00365A 4780 F51A      0369A        4506        BE    PSKIP1                     YES - CALL TO SKIP 1 LINE       33210021
 00365E D504 3000 A377 00000 0283F  4507          CLC   DX0(LX5,R3),SK2CON         SKIP2 HIT                     33220021
 003664 4780 F506      03686        4508        BE    PSKIP2                     YES - CALL TO SKIP 2 LINES      33230021
 003668 D504 3000 A37F 00000 02847  4509          CLC   DX0(LX5,R3),SK3CON         SKIP3 HIT                     33240021
 00366E 477E 0000      00000        4510        BNE   0(JP)                      NO -RETURN TO CALLING           33250021
                                    4511 *                                                                       33260021
 003672 50E0 F55C      036DC        4512        ST    JP,SKEJSAVE                SAVE RETURN REGISTER      46150 33270021
 003676 45E0 F542      036C2        4513        BAL   JP,TESTLIST                CHECK FOR NOSOURCE        46150 33280021
 00367A 58E0 F55C      036DC        4514        L     JP,SKEJSAVE                RESTORE JP                46150 33290021
 00367E 0508                        4515        BALR  R0,R8                      SKIP                            33300021
 003680 D603                        4516        DC    X'D603'                     3 LINES                        33310021
 003682 47F0 F2C8      03448        4517        B     GTLAST                     GET ANOTHER CARD                33320021
                                    4518 *                                                                       33330021
 003686 50E0 F55C      036DC        4519 PSKIP2 ST    JP,SKEJSAVE                SAVE RETURN REGISTER      46150 33340021
 00368A 45E0 F542      036C2        4520        BAL   JP,TESTLIST                CHECK FOR NOSOURCE        46150 33350021
 00368E 58E0 F55C      036DC        4521        L     JP,SKEJSAVE                RESTORE JP                46150 33360021
 003692 0508                        4522        BALR  R0,R8                      SKIP                      46150 33370021
 003694 D602                        4523        DC    X'D602'                     2 LINES                        33380021
 003696 47F0 F2C8      03448        4524        B     GTLAST                     GET ANOTHER CARD                33390021
                                    4525 *                                                                       33400021
 00369A 50E0 F55C      036DC        4526 PSKIP1 ST    JP,SKEJSAVE                SAVE RETURN REGISTER      46150 33410021
 00369E 45E0 F542      036C2        4527        BAL   JP,TESTLIST                CHECK FOR NOSOURCE        46150 33420021
 0036A2 58E0 F55C      036DC        4528        L     JP,SKEJSAVE                RESTORE JP                46150 33430021
 0036A6 0508                        4529        BALR  R0,R8                      SKIP                      46150 33440021
 0036A8 D601                        4530        DC    X'D601'                     1 LINES                        33450021
 0036AA 47F0 F2C8      03448        4531        B     GTLAST                     GET ANOTHER CARD                33460021
                                    4532 *                                                                       33470021
 0036AE 50E0 F55C      036DC        4533 PEJECT ST    JP,SKEJSAVE                SAVE RETURN REGISTER      46150 33480021
 0036B2 45E0 F542      036C2        4534        BAL   JP,TESTLIST                CHECK FOR NOSOURCE        46150 33490021
 0036B6 58E0 F55C      036DC        4535        L     JP,SKEJSAVE                RESTORE JP                46150 33500021
 0036BA 0508                        4536        BALR  R0,R8                      EJECT                     46150 33510021
 0036BC D600                        4537        DC    X'D600'                     PAGE                           33520021
 0036BE 47F0 F2C8      03448        4538        B     GTLAST                     GET ANOTHER CARD                33530021
                                    4539 *****                                                             46150 33540021
 0036C2 1881                        4540 TESTLIST LR    R8,R1               SAVE R1                        46150 33550021
 0036C4 5810 C6B0      01D10        4541          L     R1,COSADR           SET UP COMMON ADDRESSABILITY   46150 33560021
 0036C8 9180 11A3      001A3        4542          TM    PHZSW,LIST          NOSOURCE?                      46150 33570021
 0036CC 1818                        4543          LR    R1,R8               RESTORE R1                     46150 33580021
 0036CE 5880 C6B0      01D10        4544          L     R8,COSADR           RESTORE R8                     46150 33590021
 0036D2 071E                        4545          BCR   ONES,JP             SOURCE - HONOR SK/EJ REQUEST   46150 33600021
 0036D4 58E0 F55C      036DC        4546          L     JP,SKEJSAVE         RESTORE JP                     46150 33610021
 0036D8 47F0 F2C8      03448        4547          B     GTLAST              NOSOURCE - GET ANOTHER CARD    46150 33620021
                                    4548 *                                                                 46150 33630021
 0036DC 00000000                    4549 SKEJSAVE DC    F'0'                SAVEAREA FOR JP                46150 33640021
                                    4550 *****                                                             46150 33650021
1PH1B     IKFCBL1B                                                                                              PAGE  107
-  LOC  OBJECT CODE    ADDR1 ADDR2  STMT   SOURCE STATEMENT                                       ASM 0201 11.03 02/14/15
0                                   4551 *                                                                       33660021
                                    4552 *                                                                       33670021
 0036E0 00000D22                    4553 SETREG DC    A(COMWRK+7)                ADDR OF COL 8                   33680021
 0036E4 00000D26                    4554        DC    A(COMWRK+11)               ADDR OF COL 12                  33690021
 0036E8 00000D64                    4555        DC    A(COMWRK+73)               ADDR OF COL 74                  33700021
 0036EC 00001E87                    4556 SIDEND DC    A(SIDEWK+73)               ADDR OF CCOL 74                 33710021
                                    4557 *                                                                       33720021
 0036F0 000000000000                4558 NMLST5 DC    3H'0'                      NUMBER OF OLD MAIN CARD         33730021
                                    4559 *                                                                       33740021
                                    4560 *                                                                       33750021
 0036F6 4040                        4561 MAIMOV DC    X'4040'                    CARD IDENT FOR                  33760021
 0036F8                             4562 MAINWK DS    CL80                        MAIN CARD WORK AREA            33770021
                                    4563 *                                                                       33780021
                                    4564 *                                                                       33790021
1PH1B     IKFCBL1B                                                                                              PAGE  108
-  LOC  OBJECT CODE    ADDR1 ADDR2  STMT   SOURCE STATEMENT                                       ASM 0201 11.03 02/14/15
0                                   4566 *                                                                       33810021
                                    4567 *   ROUTINE TO CONVERT EXTERNAL FLOATING POINT NUMBER TO                33820021
                                    4568 *   INTERNAL PLOATING POINT                                             33830021
                                    4569 *                                                                       33840021
                                    4570 *                                                                       33850021
 003748 4140 D87A      0111A        4571 FLOPNT LA    R4,FLPWK                   ADDR OF FLPWK                   33860021
 00374C 5050 D8C4      01164        4572        ST    R5,REGWRK                  SAVE PTR TO START OF WORD       33870021
 003750 5030 D7A0      01040        4573        ST    R3,REGWOK                  SAVE PTR TO DECIMAL             33880021
 003754 5010 D7A4      01044        4574        ST    R1,REGWEK                  SAVE PTR TO 'E'                 33890021
 003758 924E 4000      00000        4575          MVI   DX0(R4),XX4E              SET UP 1ST PLUS SIGN           33900021
 00375C 9101 D293      00B33        4576          TM    SIGNSW,XX01               HAS FLO-PT-NUM A SIGN          33910021
 003760 4780 F5EE      0376E        4577        BC    ZERO,FLPNTA                 NO-FLPNTA                      33920021
 003764 D200 4000 5000 00000 00000  4578          MVC   DX0(LX1,R4),DX0(R5)        PUT MANTIS SIGN IN FLPWK      33930021
 00376A 4155 0001      00001        4579          LA    R5,DX1(R5)                MOVE PTR PAST SIGN OF WORD     33940021
 00376E 4144 0001      00001        4580 FLPNTA   LA    R4,DX1(R4)                MOVE PTR PAST SIGN OF FLPWK    33950021
 003772 1B15                        4581        SR    R1,R5                      CALC LENGTH OF MANTIS W/O S     33960021
 003774 5510 C234      01894        4582        CL    R1,K17                     IS MANTIS GREATER THAN 16       33970021
 003778 47D0 F604      03784        4583        BC    NOTHI,FLPTA1                NO-FLPTA1                      33980021
 00377C 45E0 DA24      012C4        4584        BAL   R14,MSG70                  -MSG70                          33990021
 003780 4310 C237      01897        4585          IC    R1,K17+NX3                SET SIZE TO 16                 34000021
 003784 4410 F656      037D6        4586 FLPTA1 EX    R1,FLOMOV                  PUT MANTIS IN FLPWK             34010021
 003788 1A41                        4587        AR    R4,R1                      MOVE PTR PAST MANTIS IN FLP     34020021
 00378A 5810 D7A4      01044        4588        L     R1,REGWEK                  PTR TO 'E'                      34030021
 00378E 924E 4000      00000        4589          MVI   DX0(R4),XX4E              SET UP 2ND PLUS SIGN           34040021
 003792 1B13                        4590        SR    R1,R3                      CALC NUMBER-                    34050021
 003794 0610                        4591        BCTR  R1,JR                        OF DECIMALS                   34060021
 003796 4210 D876      01116        4592        STC   R1,DECSIZ                    STORE IN DECSIZ               34070021
 00379A 5810 D7A4      01044        4593        L     R1,REGWEK                  PTR TO 'E'                      34080021
 00379E DD00 1001 C2DC 00001 0193C  4594          TRT   DX1(LX1,R1),UDIGT          IS CHAR AFTER 'E' A DIGIT     34090021
 0037A4 4780 F676      037F6        4595        BC    EQ,FLPNTD                   YES-FLPNTD                     34100021
 0037A8 954E 1000      00000        4596          CLI   DX0(R1),XX4E              IS IT A PLUSSIGN               34110021
 0037AC 4780 F660      037E0        4597        BC    EQ,FLPNTC                   YES-FLPNTC                     34120021
 0037B0 9560 1000      00000        4598          CLI   DX0(R1),XX60              IS IT A MINUS SIGN             34130021
 0037B4 4780 F65C      037DC        4599        BC    EQ,FLPNTB                   YES-FLPNTB                     34140021
 0037B8 45E0 DA30      012D0        4600        BAL   JP,MSG73                   -MSG73                          34150021
 0037BC 4B10 C138      01798        4601        SH    R1,HWTWO                   SET PTR IN FRONT OF 'E'         34160021
 0037C0 5830 D7A0      01040        4602 FLPTA2 L     R3,REGWOK                  SET PTR TO DECIMAL              34170021
 0037C4 1913                        4603        CR    R1,R3                      IS PTR R1 AT DECIMAL            34180021
 0037C6 4780 F64E      037CE        4604        BC    EQ,FLPTA3                   YES-FLPTA3                     34190021
 0037CA 4111 0001      00001        4605          LA    R1,DX1(R1)                MOVE PTR PAST LAST DIGIT       34200021
 0037CE 5850 D8C4      01164        4606 FLPTA3 L     R5,REGWRK                  SET PTR TO START OF LITERAL     34210021
 0037D2 47F0 92F8      03DB8        4607        BC    UNCOND,NUMLIT               -NUMLIT                        34220021
                                    4608 *                                                                       34230021
 0037D6 D200 4000 5000 00000 00000  4609 FLOMOV   MVC   DX0(LX0,R4),DX0(R5)                                      34240021
                                    4610 *                                                                       34250021
 0037DC 9260 4000      00000        4611 FLPNTB   MVI   DX0(R4),XX60              PUT EXP SIGN IN FLPWK          34260021
 0037E0 DD00 1001 C2DC 00001 0193C  4612 FLPNTC   TRT   DX1(LX1,R1),UDIGT          IS CHAR AFTER SIGN A DIGIT    34270021
 0037E6 4780 F676      037F6        4613        BC    EQ,FLPNTD                   YES-FLPNTD                     34280021
 0037EA 45E0 DA34      012D4        4614        BAL   JP,MSG74                   -MSG74                          34290021
 0037EE 4B10 C13A      0179A        4615        SH    R1,HWTHRE                  SET PTR IN FRONT OF 'E'         34300021
 0037F2 47F0 F640      037C0        4616        BC    UNCOND,FLPTA2               -FLPTA2                        34310021
                                    4617 *                                                                       34320021
 0037F6 4144 0001      00001        4618 FLPNTD   LA    R4,DX1(R4)                MOVE PTR PAST SIGN OF WORK     34330021
 0037FA 4111 0001      00001        4619          LA    R1,DX1(R1)                MOVE PTR TO 1ST EXP DIG WD     34340021
 0037FE 5010 D7A4      01044        4620        ST    R1,REGWEK                  SAVE PTR TO 1ST EXP DIG  WO     34350021
1PH1B     IKFCBL1B                                                                                              PAGE  109
-  LOC  OBJECT CODE    ADDR1 ADDR2  STMT   SOURCE STATEMENT                                       ASM 0201 11.03 02/14/15
0003802 DD4F 1000 C2DC 00000 0193C  4621          TRT   DX0(LX80,R1),UDIGT         SCAN TO NON-DIGIT             34360021
 003808 9540 1000      00000        4622          CLI   DX0(R1),XX40              NON-DIGIT IS A BLANK           34370021
 00380C 4780 F6AC      0382C        4623        BC    EQ,FLPTD1                   YES-FLPTD1                     34380021
 003810 954B 1000      00000        4624          CLI   DX0(R1),XX4B              NON-DIGIT IS A PERIOD          34390021
 003814 4780 F6AC      0382C        4625        BC    EQ,FLPTD1                   YES-FLPTD1                     34400021
 003818 956B 1000      00000        4626          CLI   DX0(R1),XX6B              NON-DIGIT IS A COMMA           34410021
 00381C 4780 F6AC      0382C        4627        BC    EQ,FLPTD1                   YES-FLPTD1                     34420021
 003820 955D 1000      00000        4628          CLI   DX0(R1),XX5D              NON-DIGIT IS A RIGHT PAREN     34430021
 003824 4780 F6AC      0382C        4629        BC    EQ,FLPTD1                   YES-FLPTD1                     34440021
 003828 45E0 DA2C      012CC        4630        BAL   R14,MSG72                  -MSG72                          34450021
 00382C 1831                        4631 FLPTD1 LR    R3,R1                      CALC NUMBER                     34460021
 00382E 5810 D7A4      01044        4632        L     R1,REGWEK                   OF DIGITS                      34470021
 003832 1B31                        4633        SR    R3,R1                        IN EXP                        34480021
 003834 5530 C228      01888        4634        CL    R3,K2                      SIZE EQUALS---                  34490021
 003838 4780 F6C4      03844        4635        BC    EQ,FLPNTE                   2-FLPNTE                       34500021
 00383C 4740 F6D2      03852        4636        BC    LO,FLPNTF                   1-FLPNTF                       34510021
 003840 45E0 DA28      012C8        4637        BAL   JP,MSG71                   -MSG71                          34520021
                                    4638 *                                                                       34530021
 003844 D201 4000 1000 00000 00000  4639 FLPNTE   MVC   DX0(LX2,R4),DX0(R1)        PUT 2 DIGIT EXP IN FLPWK      34540021
 00384A 4111 0002      00002        4640          LA    R1,DX2(R1)                MOVE PTR PAST 2ND DIGIT  WO    34550021
 00384E 47F0 F6E0      03860        4641        BC    UNCOND,FLPNTG               -FLPNTG                        34560021
                                    4642 *                                                                       34570021
 003852 9200 4000      00000        4643 FLPNTF   MVI   DX0(R4),XX00              MOVE IN BYTE OF ZERO           34580021
 003856 D200 4001 1000 00001 00000  4644          MVC   DX1(LX1,R4),DX0(R1)         FOLLOWED BY 1 DIG EXP  FLP   34590021
 00385C 4111 0001      00001        4645          LA    R1,DX1(R1)                MOVE PTR PAST EXP DIG  WORD    34600021
                                    4646 *                                                                       34610021
 003860 4144 0002      00002        4647 FLPNTG   LA    R4,DX2(R4)                MOVE PTR PAST EXP DIG IN FL    34620021
 003864 4130 D87A      0111A        4648        LA    R3,FLPWK                   ADDR OF START OF WORK           34630021
 003868 1B43                        4649        SR    R4,R3                      CALC SIZE OF FL-PT-NUM          34640021
 00386A 4240 D877      01117        4650        STC   R4,TOTSIZ                   STORE IN TOTSIZ                34650021
 00386E 5850 D8C4      01164        4651        L     R5,REGWRK                  RESTORE PTR TO START OF WOR     34660021
 003872 9018 D658      00EF8        4652        STM   R1,R8,SAVREG               SAVE REGS 1-8                   34670021
 003876 9102 D27E      00B1E        4653          TM    NOTESW,XX02            IS NOTE SW ON               10    34680021
 00387A 4710 F924      03AA4        4654        BC    ONES,EXITC                YES                       10     34690021
 00387E 4160 D876      01116        4655        LA    R6,DECSIZ                  ADDR OF PARAM                   34700021
                                    4656 *                                                                       34710021
                                    4657 * THIS ROUTINE CONVERTS AN EXTERNAL FLOATING POINT NUMBER INTO          34720021
                                    4658 *     AN INTERNAL FLOATING POINT NO IN FPREG 0 - DBL PRFC               34730021
                                    4659 *  REGISTER USAGE IS AS FOLLOWS                                         34740021
                                    4660 *     R0 - BINARY INTERMEDIATE                                          34750021
                                    4661 *     R1 -   OR FINAL RESULT                                            34760021
                                    4662 *     R2 - EFP EXPONENT                                                 34770021
                                    4663 *     R3 - POINTER TO EFP NO                                            34780021
                                    4664 *     R4 - WORK FOR LENGTHS OF EXECUTED MOVES                           34790021
                                    4665 *     R5 - POINTER TO WORKB                                             34800021
                                    4666 *     R6 - POINTER TO WORKA                                             34810021
                                    4667 *     R7 - WORK                                                         34820021
                                    4668 *     R8 - WORK                                                         34830021
                                    4669 *     R9 - WORK                                                         34840021
                                    4670 *                                                                       34850021
                                    4671 *                                                                       34860021
                                    4672 *   IT IS ESSENTIALLY IDENTICAL TO OBJECT-TIME SUBROUTINE IHDFEFIF      34870021
                                    4673 *       CODING FROM 'SR 8,8' TO EXITA1 IS FROM EFIF                     34880021
                                    4674 *                   EXITA1      EXITB          EDBI                     34890021
                                    4675 *                   EXITB       TOOBIG         BIIF                     34900021
1PH1B     IKFCBL1B                                                                                              PAGE  110
-  LOC  OBJECT CODE    ADDR1 ADDR2  STMT   SOURCE STATEMENT                                       ASM 0201 11.03 02/14/15
0                                   4676 *                                                                       34910021
                                    4677 *                                                                       34920021
                                    4678 * INITIALIZATION ROUTINE TO DEVELOP FLOATING POINT PARAMFIERS           34930021
                                    4679 *                                                                       34940021
 003882 1B88                        4680        SR    JH,JH              CLEAR WORK REG                          34950021
 003884 4386 0000      00000        4681          IC    JH,DX0(JF)        MANTISSA DECIMALS                      34960021
 003888 408D 008A      0008A        4682        STH   JH,MANDEC(JN)     STORE                                    34970021
 00388C 4386 0001      00001        4683          IC    JH,DX1(JF)        TOTAL EFP LENGTH                       34980021
 003890 408D 0090      00090        4684        STH   JH,TOTLNG(JN)     STORE                                    34990021
 003894 4B80 C13E      0179E        4685        SH    JH,H5             SUBTR 5 FROM TOT LENGTH                  35000021
 003898 9101 6002      00002        4686          TM    DX2(JF),XX01     TEST REAL DEC PT                        35010021
 00389C 4710 F724      038A4        4687          BC    R1,*+NX8         REAL PT                                 35020021
 0038A0 4188 0001      00001        4688          LA    JH,DX1(JH)         IMPLIFD - ADD 1 BACK IN               35030021
 0038A4 408D 008E      0008E        4689        STH   JH,MANLEN(JN)     STORE MANTISSA LENGTH                    35040021
 0038A8 4B8D 008A      0008A        4690        SH    JH,MANDEC(JN)     SUBTR NO. OF DECIMALS                    35050021
 0038AC 408D 008C      0008C        4691        STH   JH,MANINT(JN)     STORE NO. OF INTEGERS                    35060021
 0038B0 4386 0003      00003        4692          IC    JH,DX3(JF)        DECIMALS IN ID OR BI NO.               35070021
 0038B4 408D 0092      00092        4693        STH   JH,RESDEC(JN)     STORE RESULT DECIMALS                    35080021
                                    4694 *                                                                       35090021
                                    4695 * ROUTINE TO MOVE EFP MANTISSA TO WORKB - 16 BYTES                      35100021
                                    4696 *                                                                       35110021
 0038B8 1883                        4697        LR    JH,JC              SAVE POINTER-TO EFP                     35120021
 0038BA 4133 0001      00001        4698          LA    JC,DX1(JC)        PNTR TO FIRST DIG OF MANT              35130021
 0038BE 415D 0070      00070        4699          LA    JE,WORKB+NX16(JN) PNTR TO BYTE AFTER WORKB               35140021
 0038C2 4B5D 008E      0008E        4700        SH    JE,MANLEN(JN)     SUBTR MANT LENGTH                        35150021
 0038C6 1875                        4701        LR    JG,JE              SAVE POINTER TO WORKB MANT              35160021
 0038C8 9101 6002      00002        4702          TM    DX2(JF),XX01     TEST FOR REAL DEC PT.                   35170021
 0038CC 4710 F75E      038DE        4703          BC    R1,REALDC        YES                                     35180021
 0038D0 484D 008E      0008E        4704 SUBMV  LH    JD,MANLEN(JN)      NO - LOAD MANLEN                        35190021
 0038D4 0640                        4705        BCTR  JD,JR              SUBTR 1 TO EX                           35200021
 0038D6 4440 F7A4      03924        4706 MOVE   EX    JD,MVTOB          MOVE MANT TO WORKB                       35210021
 0038DA 47F0 F7AA      0392A        4707          BC    R15,RESTOR      GO CONVERT EXP                           35220021
 0038DE D500 3000 C4F0 00000 01B50  4708 REALDC   CLC   DX0(LX1,JC),KDECML IS FIRST CHAR A DEC PT                35230021
 0038E4 4770 F770      038F0        4709          BC    R7,INDEC         NO - DEC PT IS IMBEDDED                 35240021
 0038E8 4133 0001      00001        4710 MOVESB   LA    JC,DX1(JC)        MV PNTR PAST DEC PNT.                  35250021
 0038EC 47F0 F750      038D0        4711          BC    R15,SUBMV       GO MOVE                                  35260021
 0038F0 484D 008C      0008C        4712 INDEC  LH    JD,MANINT(JN)     LOAD NO. OF INTEGERS                     35270021
 0038F4 1244                        4713        LTR   JD,JD                                                      35280021
 0038F6 4780 F780      03900        4714        BC    R8,HERE                    IF ZERO - GO TEST  FOR DECIMAL  35290021
 0038FA 0640                        4715        BCTR  JD,JR              SUBTR 1 TO EX                           35300021
 0038FC 4440 F7A4      03924        4716        EX    JD,MVTOB          MOVE MANT TO WORKB                       35310021
 003900 9500 D08B      0008B        4717 HERE     CLI   MANDEC+NX1(JN),XX00 TEST ZERO DECIMALS                   35320021
 003904 4780 F7AA      0392A        4718          BC    R8,RESTOR        YES                                     35330021
 003908 4A5D 008C      0008C        4719        AH    JE,MANINT(JN)     INCR WORKB POINTER                       35340021
 00390C 484D 008A      0008A        4720        LH    JD,MANDEC(JN)     LOAD NO OF DECIMALS                      35350021
 003910 4A3D 008C      0008C        4721        AH    JC,MANINT(JN)     INCREMENT EFP POINTER                    35360021
 003914 4133 0001      00001        4722          LA    JC,DX1(JC)         TO DECIMAL PART                       35370021
 003918 0640                        4723        BCTR  JD,JR              SUBTR 1 TO EX                           35380021
 00391A 47F0 F756      038D6        4724          BC    R15,MOVE        GO MOVE DEC PART                         35390021
                                    4725 *                                                                       35400021
 00391E D200 6000 5000 00000 00000  4726 MVTOA    MVC   DX0(LX0,R6),DX0(JE)  MOVE FROM B TO A                    35410021
 003924 D200 5000 3000 00000 00000  4727 MVTOB    MVC   DX0(LX0,JE),DX0(JC) MOVE EFP MANT OT WORKB               35420021
                                    4728 *                                                                       35430021
 00392A 1838                        4729 RESTOR LR    JC,JH              RESTORE POINTER TO EFP MANT SIGN        35440021
 00392C 1857                        4730        LR    JE,JG              RESTORE POINTER TO FIRST BYTE IN WO     35450021
1PH1B     IKFCBL1B                                                                                              PAGE  111
-  LOC  OBJECT CODE    ADDR1 ADDR2  STMT   SOURCE STATEMENT                                       ASM 0201 11.03 02/14/15
0                                   4731 *                                                                       35460021
                                    4732 * ROUTINE TO CONVERT EFP EXPONENT TO SIGNED INTEGER IN GP REG 2         35470021
                                    4733 *                                                                       35480021
 00392E 4A8D 0090      00090        4734        AH    JH,TOTLNG(JN)     POINT TO BYTE AFTER EFP                  35490021
 003932 4B80 C138      01798        4735        SH    JH,H2             POINT TO FIRST DIG OF EXP.               35500021
 003936 F271 D048 8000 00048 00000  4736          PACK  WORKA(LX8,JN),DX0(LX2,JH) PACK EXP                       35510021
 00393C 0680                        4737        BCTR  JH,JR              POINT TO SIGN                           35520021
 00393E 94FC D04F      0004F        4738          NI    WORKA+NX7(JN),XXFC MAKE SIGN POS                         35530021
 003942 4F2D 0048      00048        4739        CVB   JB,WORKA(JN)      CONV EXP TO BIN                          35540021
 003946 9560 8000      00000        4740          CLI   DX0(JH),XX60     TEST FOR NEG                            35550021
 00394A 4770 F7D0      03950        4741          BC    R7,EXITA         POS - EXITA                             35560021
 00394E 1122                        4742        LNR   JB,JB              MAKE NEG                                35570021
                                    4743 *                                                                       35580021
 003950 4B2D 008A      0008A        4744 EXITA  SH    JB,MANDEC(JN)     SUBTR MANT DECIMALS FROM EXP             35590021
 003954 416D 005A      0005A        4745          LA    JF,WORKA+NX18(JN) LOAD ADDR OF WORKA END                 35600021
 003958 4B6D 008E      0008E        4746        SH    JF,MANLEN(JN)     POINT TO FIRST DIGIT OF MANT IN WORK     35610021
 00395C 484D 008E      0008E        4747        LH    JD,MANLEN(JN)     LOAD LENGTH TO EXECUTE MOVE TO WORKA     35620021
 003960 0640                        4748        BCTR  JD,JR              SUBTR 1 TO EX                           35630021
 003962 92F0 D048      00048        4749          MVI   WORKA(JN),XXF0         INIT WORKA A                      35640021
 003966 D210 D049 D048 00049 00048  4750          MVC   WORKA+NX1(LX17,JN),WORKA(JN) TO ZERO                     35650021
 00396C 4440 F79E      0391E        4751        EX    JD,MVTOA          MOVE MANT OT WORKA                       35660021
 003970 94CF D059      00059        4752          NI    WORKA+NX17(JN),XXCF MAKE SIGN PLUS                       35670021
 003974 9560 3000      00000        4753          CLI   DX0(JC),XX60     TEST FOR ACTUAL MINUS                   35680021
 003978 4770 F800      03980        4754          BC    R7,EXITA1        NO - PLUS - EXITA                       35690021
 00397C 9610 D059      00059        4755          OI    WORKA+NX17(JN),XX10 NEG                                  35700021
                                    4756 *                                                                       35710021
                                    4757 * THIS ROUTINE CONVERTS AN 18 BYTE EXTERNAL DECIMAL NUMBER INTO A       35720021
                                    4758 *  DOUBLE PRECISION BINARY NUMBER IN REGS 0,1. THE DEC FIELD STARTS     35730021
                                    4759 *  THE DECIMAL FIELD STARTS IN WORKA(13)                                35740021
                                    4760 *                                                                       35750021
 003980 F278 D058 D051 00058 00051  4761 EXITA1   PACK  WORKA3(LX8,JN),WORKA2+NX1(LX9,JN) PACK LO-ORD 9 DIGITS   35760021
 003986 F278 D050 D048 00050 00048  4762          PACK  WORKA2(LX8,JN),WORKA(LX9,JN) PACK HI-ORD 9 DIGS          35770021
 00398C D100 D057 D05F 00057 0005F  4763          MVN   WORKA2+NX7(LX1,JN),WORKA3+NX7(JN) MOVE SIGN TO HI-ORD FI 35780021
 003992 502D 0080      00080        4764 COMMON ST    JB,SVREG2(JN)     SAVE REG2                                35790021
 003996 4F1D 0050      00050        4765        CVB   JA,WORKA2(JN)     CONV HI-ORD 9 DIGS                       35800021
 00399A 4F2D 0058      00058        4766        CVB   JB,WORKA3(JN)     CONV LO-ORD 9 DIGS                       35810021
 00399E 5C00 C250      018B0        4767        M     JR,TNPW9          MULT HI-ORD 9 DIGS BY 10 **9 IN REGS     35820021
 0039A2 1222                        4768        LTR   JB,JB             IF 9 TRAILING ZEROES, ALL DONE           35830021
 0039A4 4780 F83E      039BE        4769        BC    ZERO,EXITB                 FINISHED - RESTORE  REG 2       35840021
 0039A8 1E12                        4770        ALR   JA,JB              ADD IN LO-ORD 9 DIGS                    35850021
 0039AA 47C0 F832      039B2        4771          BC    R12,*+NX8       NO CARRY OUT                             35860021
 0039AE 4A00 C136      01796        4772        AH    JR,H1             CARRY OUT - ADD 1 TO HI-ORDER            35870021
 0039B2 9101 D05F      0005F        4773          TM    WORKA3+NX7(JN),XX01      IS SIGN MINUS                   35880021
 0039B6 47E0 F83E      039BE        4774          BC    R14,EXITB                  NO - ALL DONE                 35890021
 0039BA 4B00 C136      01796        4775        SH    JR,H1              NEG - SUBTR 1                           35900021
 0039BE 582D 0080      00080        4776 EXITB  L     JB,SVREG2(JN)     RESTORE REG 2                            35910021
                                    4777 *                                                                       35920021
                                    4778 * THIS CONVERTS THE BINARY NUMBER IN REGISTERS 0-1 TO A DOUBLE-         35930021
                                    4779 *      PRECISION FLOATING-POINT NUMBER IN FLOATING-POINT REGISTER 0     35940021
                                    4780 *                                                                       35950021
                                    4781 *                                                                       35960021
 0039C2 9400 D088      00088        4782          NI    SYGNSW(JN),XX00 SET MANT SW SIGN POS                     35970021
 0039C6 924E D089      00089        4783          MVI   FLTEXP(JN),XX4E INITIALIZE EXP TO ZERO                   35980021
 0039CA 1200                        4784        LTR   JR,JR              TEST MANTISSA SIGN                      35990021
 0039CC 47A0 F868      039E8        4785          BC    R10,POSMAN       POSITIVE                                36000021
1PH1B     IKFCBL1B                                                                                              PAGE  112
-  LOC  OBJECT CODE    ADDR1 ADDR2  STMT   SOURCE STATEMENT                                       ASM 0201 11.03 02/14/15
00039D0 9601 D088      00088        4786          OI    SYGNSW(JN),XX01 SET MANTISSA SW NEGATIVE                 36010021
 0039D4 5700 C224      01884        4787        X     JR,ALLFF           NEG - INVERT MANTISSA HI-ORD            36020021
 0039D8 5710 C224      01884        4788        X     JA,ALLFF           INVERT LO-ORD                           36030021
 0039DC 5E10 C220      01880        4789        AL    JA,F1             ADD 1                                    36040021
 0039E0 47C0 F868      039E8        4790          BC    R12,POSMAN      NO CARRY                                 36050021
 0039E4 5E00 C220      01880        4791        AL    JR,F1             CARRY - ADD 1 TO HI-ORD                  36060021
 0039E8 5900 C24C      018AC        4792 POSMAN C     JR,TWOP24         COMP TO 2 ** 24                          36070021
 0039EC 4740 F888      03A08        4793          BC    R4,STORE        8 HI BITS ARE CLEAR                      36080021
 0039F0 8C00 0004      00004        4794          SRDL  JR,DX4           SHIFT RIGHT 4 BITS                      36090021
 0039F4 924F D089      00089        4795          MVI   FLTEXP(JN),XX4F MAKE EXP 1                               36100021
 0039F8 5900 C24C      018AC        4796        C     JR,TWOP24         COMP AGAIN                               36110021
 0039FC 4740 F888      03A08        4797          BC    R4,STORE        8 HI BITS ARE CLEAR                      36120021
 003A00 8C00 0004      00004        4798          SRDL  JR,DX4           SHIFT RIGHT 4 BITS                      36130021
 003A04 9250 D089      00089        4799          MVI   FLTEXP(JN),XX50 MAKE EXP 2                               36140021
 003A08 9001 D048      00048        4800 STORE  STM   JR,JA,WORKA(JN)    STORE BINARY DBL WORD                   36150021
 003A0C D200 D048 D089 00048 00089  4801          MVC   WORKA(LX1,JN),FLTEXP(JN) INSERT FLT PNT EXP              36160021
 003A12 680D 0048      00048        4802        LD    FJR,WORKA(JN)      LOAD UNNORMALIZED FLT PT NO.            36170021
 003A16 6C00 C258      018B8        4803        MD    FJR,FLTONE         MULT BY 1 TO NORMALIZE                  36180021
 003A1A 2200                        4804        LTDR  FJR,FJR              TEST FOR 0 VALUE                      36190021
 003A1C 4780 F924      03AA4        4805          BC    R8,EXITC         IF 0, EXITC                             36200021
 003A20 1202                        4806        LTR   JR,JB              SHIFT EXP TO R0, TEST SIGN              36210021
 003A22 4740 F8D8      03A58        4807          BC    R4,EXPNEG        GO TO NEG EXP RT                        36220021
 003A26 4110 C268      018C8        4808        LA    JA,PLSTBL          POSITIVE  -LOAD POINTER TO TEST TAB     36230021
 003A2A 4120 C2A0      01900        4809        LA    JB,PWRTBL         LOAD POINTER TO POWER-OF-10 TABLE        36240021
 003A2E 8900 0019      00019        4810          SLL   JR,DX25          PREPARE FOR MULT LOOP                   36250021
 003A32 1E00                        4811 PLLOOP ALR   JR,JR              ADD EXP TO ITSELF - IF NO CARRY,        36260021
 003A34 47C0 F8C4      03A44        4812          BC    R12,NOMULT       THAT BIT NOT ON - DON'T MULTIPLY        36270021
 003A38 7901 0000      00000        4813          CE    FJR,DX0(JA)        TEST FOR TOO BIG                      36280021
 003A3C 4720 F91C      03A9C        4814          BC    R2,TOOBIG        YEP, TOO BIG                            36290021
 003A40 6C02 0000      00000        4815          MD    FJR,DX0(JB)        MULT BY APPROPRIATE POWER-OF-10       36300021
 003A44 4111 0004      00004        4816 NOMULT   LA    JA,DX4(JA)        INCREMENT TABLE                        36310021
 003A48 4122 0008      00008        4817          LA    JB,DX8(JB)         POINTERS                              36320021
 003A4C 5920 C2D8      01938        4818        C     JB,TBLEND         TEST 7 TIMES THRU LOOP                   36330021
 003A50 4770 F8B2      03A32        4819          BC    R7,PLLOOP        NO - REPEAT                             36340021
 003A54 47F0 F908      03A88        4820          BC    R15,FINAL        YES - GO TO FINISH UP SIGN              36350021
 003A58 4110 C284      018E4        4821 EXPNEG LA    JA,NEGTBL         ADDR OF TABLE FOR NEG EXPONS             36360021
 003A5C 4120 C2A0      01900        4822        LA    JB,PWRTBL         ADDR OF POWER-OF-10 TABLE                36370021
 003A60 1000                        4823        LPR   JR,JR              MAKE REG POS                            36380021
 003A62 8900 0019      00019        4824          SLL   JR,DX25          PREP TO DIVIDE                          36390021
 003A66 1E00                        4825 NGLOOP ALR   JR,JR              ADD EXP TO ITSELF - IF NO CARRY         36400021
 003A68 47C0 F8F8      03A78        4826          BC    R12,NODIV        THAT BIT NOT ON - DON'T DIVIDE          36410021
 003A6C 7901 0000      00000        4827          CE    FJR,DX0(JA)        TEST FOR TOO SMALL                    36420021
 003A70 4740 F916      03A96        4828          BC    R4,TOOWEE        YEP, TOO SMALL                          36430021
 003A74 6D02 0000      00000        4829          DD    FJR,DX0(JB)        DIVIDE BY APPROP POWER-OF-10          36440021
 003A78 4111 0004      00004        4830 NODIV    LA    JA,DX4(JA)        INCREMENT TABLE                        36450021
 003A7C 4122 0008      00008        4831          LA    JB,DX8(JB)         POINTERS                              36460021
 003A80 5920 C2D8      01938        4832        C     JB,TBLEND         TEST END OF TABLE                        36470021
 003A84 4770 F8E6      03A66        4833          BC    R7,NGLOOP        NO - REPEAT                             36480021
 003A88 9101 D088      00088        4834 FINAL    TM    SYGNSW(JN),XX01 TEST MANTISSA SIGN                       36490021
 003A8C 4780 F924      03AA4        4835          BC    R8,EXITC        POS - EXITC                              36500021
 003A90 2100                        4836        LNDR  FJR,FJR              NEG - CONVERT                         36510021
 003A92 47F0 F924      03AA4        4837          BC    R15,EXITC       EXITC                                    36520021
 003A96 2B00                        4838 TOOWEE SDR   FJR,FJR              SET FP RESULT TO ZERO                 36530021
 003A98 47F0 F920      03AA0        4839          BC    R15,EXITC1                 -EXITC1                       36540021
 003A9C 6800 C4E0      01B40        4840 TOOBIG LD    FJR,MAXFLT         SET FP RESULT TO MAX SIZE               36550021
1PH1B     IKFCBL1B                                                                                              PAGE  113
-  LOC  OBJECT CODE    ADDR1 ADDR2  STMT   SOURCE STATEMENT                                       ASM 0201 11.03 02/14/15
0                                   4841 *                                                                       36560021
 003AA0 45E0 DA38      012D8        4842 EXITC1 BAL   R14,MSG75                  -MSG75                          36570021
 003AA4 9233 C636      01C96        4843 EXITC    MVI   NXTCOD,XX33               SET CODE                       36580021
 003AA8 9208 C637      01C97        4844          MVI   NXTN,XX08                 SET N TO 8                     36590021
 003AAC 600D 0048      00048        4845        STD   FJR,WORKA(JN)                SET DBL PREC FP-NUM           36600021
 003AB0 D207 C638 D048 01C98 00048  4846          MVC   NXTBCD(LX8),WORKA(JN)      IN NXTBCD                     36610021
 003AB6 9818 D658      00EF8        4847        LM    R1,R8,SAVREG               RESTORE REGS 1-8                36620021
 003ABA 47F0 9800      042C0        4848        BC    UNCOND,EXIT                 -EXIT                          36630021
                                    4849 *                                                                       36640021
1PH1B     IKFCBL1B                                                                                              PAGE  114
-  LOC  OBJECT CODE    ADDR1 ADDR2  STMT   SOURCE STATEMENT                                       ASM 0201 11.03 02/14/15
0003AC0                             4851 IKF106 CSECT                                                            36660021
                                    4852 *                                                                       36670021
                                    4853 *  CHARACTER IS A LETTER                                                36680021
                                    4854 *                                                                       36690021
 003AC0 45E0 B2F6      0225E        4855 LETTER BAL   JP,NOLDHI                   (SET UP TBL FOR NON L-D-H)     36700021
 003AC4 DD4F 1000 C2DC 00000 0193C  4856          TRT   DX0(LX80,R1),NONLDH        SCAN TO NON-LETTER,DIGIT,HY   36710021
 003ACA 45E0 B30E      02276        4857        BAL   JP,NOLDHO                   (RESET TBL)                    36720021
 003ACE 0610                        4858 LETHYP BCTR  R1,JR                       SET POINTER BACK ONE           36730021
 003AD0 9110 D285      00B25        4859          TM    GTRTSW,XX10               CALLED BY COPY REPLACING       36740021
 003AD4 4770 9020      03AE0        4860        BC    NOTZER,LTHYSK              YES - DON'T CK FOR HYPHEN       36750021
 003AD8 9560 1000      00000        4861          CLI   DX0(R1),KHYPHN            IS IT AN ENDING HYPHEN         36760021
 003ADC 4780 900E      03ACE        4862        BC    EQ,LETHYP                   YES-LETHYP                     36770021
 003AE0 4111 0001      00001        4863 LTHYSK   LA    R1,DX1(R1)                SET PTR PAST WD                36780021
 003AE4 1881                        4864        LR    R8,R1                      COMPUTE                         36790021
 003AE6 1B85                        4865        SR    R8,R5                       LENGTH                         36800021
 003AE8 47F0 970E      041CE        4866        BC    UNCOND,QLRTNE               -QLRTNE  (TEST FOR OF/IN)      36810021
                                    4867 *                                                                       36820021
                                    4868 *  CHARACTER IS A DIGIT                                                 36830021
                                    4869 *                                                                       36840021
 003AEC 1722                        4870 DIGIT  XR    R2,R2                      CLEAR REG                       36850021
 003AEE DD4F 5000 C2DC 00000 0193C  4871          TRT   DX0(LX80,R5),UDIGT         SCAN TO NON-DIGIT             36860021
 003AF4 8B20 0002      00002        4872          SLA   R2,DX2                    MULTI CHAR-CODE BY 4           36870021
 003AF8 47F2 9038      03AF8        4873          BC    UNCOND,DIGBR-NX4(R2)       -ROUTINE FOR NON-DIGIT        36880021
 003AFC 47F0 9000      03AC0        4874 DIGBR  BC    UNCOND,LETTER               -LETTER                        36890021
 003B00 47F0 904C      03B0C        4875        BC    UNCOND,DIGHYP               -HYPHEN                        36900021
 003B04 47F0 9076      03B36        4876        BC    UNCOND,DIGDEC               -DECIMAL                       36910021
 003B08 47F0 90A0      03B60        4877        BC    UNCOND,DIGCOM               -COMMA                         36920021
                                    4878 *                                                                       36930021
 003B0C 1831                        4879 DIGHYP LR    R3,R1                      SAVE PTR TO HYPHEN              36940021
 003B0E 9200 C33C      0199C        4880          MVI   UDIGT+NX96,XX00           ELIMINATE HYPHEN FROM TABLE    36950021
 003B12 1722                        4881        XR    R2,R2                      CLEAR REG                       36960021
 003B14 DD4F 1000 C2DC 00000 0193C  4882          TRT   DX0(LX80,R1),UDIGT         SCAN TO NON (DIGIT OR HYPHE   36970021
 003B1A 9202 C33C      0199C        4883          MVI   UDIGT+NX96,XX02           REPLACE HYPHEN IN TABLE        36980021
 003B1E 4620 9066      03B26        4884          BCT   R2,*+NX8                  IS IT A LETTER                 36990021
 003B22 47F0 9000      03AC0        4885        BC    UNCOND,LETTER               YES-LETTER    (ASSUME A WO     37000021
 003B26 4123 0001      00001        4886          LA    R2,DX1(R3)                POSITION AFTER HYPHEN          37010021
 003B2A 1921                        4887        CR    R2,R1                       OK                             37020021
 003B2C 4770 9000      03AC0        4888        BC    NOTEQ,LETTER                YES-LETTER                     37030021
 003B30 1813                        4889 DIGNUM LR    R1,R3                      RESTORE PTR TO HYPHEN           37040021
 003B32 47F0 92F8      03DB8        4890        BC    UNCOND,NUMLIT               -NUMLIT                        37050021
                                    4891 *                                                                       37060021
 003B36 9101 D27F      00B1F        4892 DIGDEC   TM    FRGNSW,XX01               FRGNSW 'ON'                    37070021
 003B3A 4710 92F8      03DB8        4893          BO    NUMLIT          YES..FOREIGN CURRENCY                    37080021
 003B3E 1831                        4894 DIGPER LR    R3,R1                      SAVE PTR TO PERIOD              37090021
 003B40 9601 D294      00B34        4895          OI    DECSW,XX01                SET 'ON' DECSW                 37100021
 003B44 DD00 1001 C2DC 00001 0193C  4896          TRT   DX1(LX1,R1),UDIGT          IS CHAR AFTER PERIOD A DIGI   37110021
 003B4A 4780 90B4      03B74        4897        BC    ZERO,DGSCN2                 YES-DGSCN2                     37120021
 003B4E 9400 D294      00B34        4898          NI    DECSW,XX00                SET 'OFF' DECSW                37130021
 003B52 95C5 1000      00000        4899          CLI   DX0(R1),XXC5              IS CHAR AFTER PERIOD LETTER    37140021
 003B56 4780 F5C8      03748        4900        BC    EQ,FLOPNT                   YES-FLOPNT    (FLOAT-POINT     37150021
 003B5A 0610                        4901 DIGXIT BCTR  R1,JR                       SET PTR BACK ONE               37160021
 003B5C 47F0 92F8      03DB8        4902        BC    UNCOND,NUMLIT               -NUMLIT       (NUM-LITERAL     37170021
                                    4903 *                                                                       37180021
 003B60 9101 D27F      00B1F        4904 DIGCOM   TM    FRGNSW,XX01               FRGNSW 'ON'                    37190021
 003B64 4780 92F8      03DB8        4905          BC    ZERO,NUMLIT         NO FOREIGN CURRENCY                  37200021
1PH1B     IKFCBL1B                                                                                              PAGE  115
-  LOC  OBJECT CODE    ADDR1 ADDR2  STMT   SOURCE STATEMENT                                       ASM 0201 11.03 02/14/15
0003B68 9540 1000      00000        4906          CLI   DX0(R1),XX40        IS NEXT CH A BLANK                   37210021
 003B6C 4780 92F8      03DB8        4907          BC    EQ,NUMLIT           YES - NUMLIT                         37220021
 003B70 47F0 907E      03B3E        4908          BC    UNCOND,DIGPER       CHECK NUMBER                         37230021
                                    4909 *                                                                       37240021
 003B74 DD4F 1001 C2DC 00001 0193C  4910 DGSCN2   TRT   DX1(LX80,R1),UDIGT         SCAN TO NON-DIGIT             37250021
 003B7A 95C5 1000      00000        4911          CLI   DX0(R1),XXC5              IS NON-DIGIT A LETTER 'E'      37260021
 003B7E 4780 F5C8      03748        4912        BC    EQ,FLOPNT                   YES-FLOPNT    (FLOAT-POINT     37270021
 003B82 47F0 92F8      03DB8        4913        BC    UNCOND,NUMLIT               -NUMLIT       (NUM-LITERAL     37280021
1PH1B     IKFCBL1B                                                                                              PAGE  116
-  LOC  OBJECT CODE    ADDR1 ADDR2  STMT   SOURCE STATEMENT                                       ASM 0201 11.03 02/14/15
0                                   4915 *                                                                       37300021
                                    4916 *  ROUTINE FOR A QUOTE SIGN -- ALPHAMERIC LITERAL                       37310021
                                    4917 *                                                                       37320021
 003B86 1B33                        4918 QUOTE  SR    R3,R3                      CLEAR REG                       37330021
 003B88 9234 C636      01C96        4919          MVI   NXTCOD,XX34               CODE AS ALPHMERIC LIT          37340021
 003B8C 4140 C638      01C98        4920        LA    R4,NXTBCD                  SET UP REG TO STORE LIT         37350021
 003B90 D700 925C 925C 03D1C 03D1C  4921          XC    QUOTCARD,QUOTCARD        RE-INITIALIZE SWITCH      51354 37360021
 003B96 4111 0001      00001        4922 QUSCAN   LA    R1,DX1(R1)                STEP REG TO NEXT CHARATER      37370021
 003B9A 9102 D27E      00B1E        4923          TM    NOTESW,XX02               NOTESW 'ON'                    37380021
 003B9E 4710 98A0      04360        4924        BC    ONES,EXIT5C                 YES-EXIT5C                     37390021
 003BA2 D500 1000 F000 00000 03180  4925          CLC   DX0(LX1,R1),SNGLQT         IS IT A QUOTE                 37400021
 003BA8 4770 90D6      03B96        4926        BNE   QUSCAN                    NO  -  CONTINEU LOOP             37410021
 003BAC 1881                        4927 QUSN1B LR    R8,R1                     ADDR OF ENDING QUOTE             37420021
 003BAE 1B85                        4928        SR    R8,R5                      SIZE FROM QUOTE THRU QUOTE      37430021
 003BB0 4280 C637      01C97        4929        STC   R8,NXTN                    SAVE SIZE FOR COPY REPLACIN     37440021
 003BB4 0680                        4930        BCTR  R8,JR                       ADJ TO ACTUAL SIZE             37450021
 003BB6 1917                        4931        CR    R1,R7                      TEST IF COL 74                  37460021
 003BB8 47B0 9130      03BF0        4932        BC    NOTLO,QUCNLT                YES-QUCNLT                     37470021
 003BBC 1A38                        4933        AR    R3,R8                      SAVE SIZE                       37480021
 003BBE 95FF 925C      03D1C        4934          CLI   QUOTCARD,XXFF            SWITCH ON?                51354 37490021
 003BC2 4780 9202      03CC2        4935          BE    QLSTWD1                  YES                       51354 37500021
 003BC6 45E0 91CE      03C8E        4936 QUCN0    BAL   JP,QZ120                 -QZ120 SIZE NOT OVER 120  51354 37510021
 003BCA 45E0 91EE      03CAE        4937        BAL   JP,QZERO                   -QZERO   SIZE GREATER THAN      37520021
                                    4938 *                                                                       37530021
 003BCE 4980 C134      01794        4939 QUCN1  CH    R8,HWZERO                  LENGTH OF CONTINUATION IS Z     37540021
 003BD2 4780 9124      03BE4        4940        BC    EQ,QUCN1A                   YES-QUCN1A                     37550021
 003BD6 9110 D285      00B25        4941          TM    GTRTSW,XX10               GTWD CALLED BY GTCARD          37560021
 003BDA 4770 9128      03BE8        4942        BC    NOTZER,CPREXT              YES - EXIT                      37570021
 003BDE 0680                        4943        BCTR  R8,JR                       REDUCE LENGTH FOR 'EX'         37580021
 003BE0 4480 925E      03D1E        4944        EX    R8,MOVLIT                  LIT TO BCD FIELD                37590021
 003BE4 4230 C637      01C97        4945 QUCN1A STC   R3,NXTN                    SIZE TO N FIELD                 37600021
 003BE8 4111 0001      00001        4946 CPREXT   LA    R1,DX1(R1)                MOVE PTR PAST LAST QUOTE       37610021
 003BEC 47F0 9838      042F8        4947        BC    UNCOND,EXIT5                -EXIT5                         37620021
                                    4948 *                                                                       37630021
                                    4949 * ROUTINE FOR LIT THAT CONTINUES ON NEXT CARD                           37640021
 003BF0 0680                        4950 QUCNLT BCTR  R8,JR                       ADJ FOR COL 73                 37650021
 003BF2 1A38                        4951        AR    R3,R8                      SAVE SIZE                       37660021
 003BF4 45E0 91CE      03C8E        4952        BAL   JP,QZ120                   -QZ120    SIZE NOT OVER 120     37670021
 003BF8 1233                        4953        LTR   R3,R3                      LENGTH IS ZERO                  37680021
 003BFA 4780 9158      03C18        4954        BC    ZERO,QCNLT1                 YES-QCNLT1                     37690021
 003BFE 9110 D285      00B25        4955          TM    GTRTSW,XX10               GETWD CALLED BY GETCD          37700021
 003C02 4780 914E      03C0E        4956        BC    ZERO,QUGTCD                NO - CALL GTCD                  37710021
 003C06 4230 C637      01C97        4957        STC   R3,NXTN                    SAVE SIZE FOR GTCARD            37720021
 003C0A 47F0 98A0      04360        4958        B     EXIT5C                     EXIT VIA EXIT5C                 37730021
 003C0E 0680                        4959 QUGTCD BCTR  R8,JR                      LENGTH - 1 FOR EX               37740021
 003C10 4480 925E      03D1E        4960        EX    R8,MOVLIT                  LIT TO BCD FIELD                37750021
 003C14 4148 4001      00001        4961          LA    R4,DX1(R8,R4)             INCREMENT PTR TO BCD FIELD     37760021
 003C18 9034 D6F8      00F98        4962 QCNLT1 STM   R3,R4,QUOTSV               SAVE REGS                       37770021
 003C1C 45E0 F284      03404        4963        BAL   R14,GTCARD                 -GTCARD                         37780021
 003C20 92FF 925C      03D1C        4964          MVI   QUOTCARD,XXFF            NEW CARD GOTTEN           51354 37790021
 003C24 9234 C636      01C96        4965          MVI   NXTCOD,XX34               YES - SET CODE TO ALPHA LIT    37800021
 003C28 9834 D6F8      00F98        4966        LM    R3,R4,QUOTSV               RESTORE REGS                    37810021
                                    4967 *                                                                       37820021
                                    4968 * CONTINUED LITERAL CHECK FOR CONTINUATION HYPHEN AND QUOTE             37830021
 003C2C 0650                        4969        BCTR  R5,JR                       ADDR OF COL 7                  37840021
1PH1B     IKFCBL1B                                                                                              PAGE  117
-  LOC  OBJECT CODE    ADDR1 ADDR2  STMT   SOURCE STATEMENT                                       ASM 0201 11.03 02/14/15
0003C2E DD4F 5001 C3DC 00001 01A3C  4970          TRT   DX1(LX80,R5),UNONB         SCAN TO NON-BLANK             37850021
 003C34 D500 1000 F000 00000 03180  4971          CLC   DX0(LX1,R1),SNGLQT         QUOTE                         37860021
 003C3A 4770 91AA      03C6A        4972        BNE   QUSNAD                     NO - CK IF CONTINUATION CARD    37870021
 003C3E 1917                        4973 QUSN1C CR    R1,R7                      ADDR COL 74?              50174 37880021
 003C40 4740 918E      03C4E        4974        BL    QUSN2C                      NO                       50174 37890021
 003C44 45E0 DA44      012E4        4975        BAL   JP,MSG78                    YES-BLANK CARD/ASSUME    50174 37900021
 003C48 1816                        4976        LR    R1,R6                       OPEN QUOTE IN COLUMN 12  50174 37910021
 003C4A 47F0 919A      03C5A        4977        B     QUSNAB                      CONTINUE                 50174 37920021
 003C4E 9560 5000      00000        4978 QUSN2C CLI   DX0(R5),XX60                HYPHEN IN COLUMN 7?      50174 37930021
 003C52 4780 919A      03C5A        4979        BC    EQ,QUSNAB                   YES-QUSNAB                     37940021
 003C56 45E0 DA44      012E4        4980 QUSNAA BAL   JP,MSG78                   -MSG78                          37950021
 003C5A 1851                        4981 QUSNAB LR    R5,R1                      SET R5 TO QUOTE                 37960021
 003C5C 1916                        4982 QUSNAC CR    R1,R6                      IN A-MARGIN                     37970021
 003C5E 47B0 90D6      03B96        4983        BC    NOTLO,QUSCAN                NO-QUSCAN                      37980021
 003C62 45E0 DA40      012E0        4984        BAL   JP,MSG77                   -MSG77                          37990021
 003C66 47F0 90D6      03B96        4985        BC    UNCOND,QUSCAN               -QUSCAN                        38000021
                                    4986 *                                                                       38010021
 003C6A 9560 5000      00000        4987 QUSNAD   CLI   DX0(R5),XX60              HYPHEN COL 7                   38020021
 003C6E 4780 91C2      03C82        4988        BC    EQ,QUSNAE                   YES-QUSNAE                     38030021
 003C72 45E0 DA94      01334        4989        BAL   JP,MSG98                   -MSG98                          38040021
 003C76 45E0 91EE      03CAE        4990        BAL   JP,QZERO                   -QZERO                          38050021
 003C7A 4230 C637      01C97        4991        STC   R3,NXTN                    STORE SIZE                      38060021
 003C7E 47F0 9838      042F8        4992        BC    UNCOND,EXIT5                -EXIT5                         38070021
                                    4993 *                                                                       38080021
 003C82 45E0 DA44      012E4        4994 QUSNAE BAL   JP,MSG78                   -MSG78                          38090021
 003C86 1851                        4995        LR    R5,R1                      SET R5 TO NON-BLANK             38100021
 003C88 0650                        4996        BCTR  R5,JR                       MOVE PTR TO QUOTE POSITION     38110021
 003C8A 47F0 919C      03C5C        4997        BC    UNCOND,QUSNAC               -QUSNAC                        38120021
                                    4998 *                                                                       38130021
                                    4999 * ROUTINE TO TEST IF LIT IS OVER 120 CHARACTERS                         38140021
 003C8E 5930 C244      018A4        5000 QZ120  C     R3,K120                    OVER 120 CHARACTERS             38150021
 003C92 07DE                        5001        BCR   NOTHI,JP                    NO-RETURN                      38160021
 003C94 45E0 DA3C      012DC        5002        BAL   JP,MSG76                   -MSG76                          38170021
 003C98 1B38                        5003        SR    R3,R8                      SUBTRACT LAST LENGTH            38180021
 003C9A 5880 C244      018A4        5004        L     R8,K120                    CALC DIFFERENCE BETWEEN         38190021
 003C9E 1B83                        5005        SR    R8,R3                       PREVIOUS LENGTH AND 120        38200021
 003CA0 5830 C244      018A4        5006        L     R3,K120                    SET LENGTH TO 120               38210021
 003CA4 1917                        5007        CR    R1,R7                      IS IT COL 74                    38220021
 003CA6 4740 910E      03BCE        5008        BC    LO,QUCN1                    NO-QUCN1                       38230021
 003CAA 4610 910E      03BCE        5009        BCT   R1,QUCN1                    -QUCN1   MOVE PTR BACK ONE     38240021
                                    5010 *                                                                       38250021
                                    5011 * ROUTINE TO TEST IF LIT IS ZERO LENGTH                                 38260021
 003CAE 1233                        5012 QZERO  LTR   R3,R3                      SIZE IS ZERO                    38270021
 003CB0 077E                        5013        BCR   NOTZER,JP                   NO-RETURN                      38280021
 003CB2 45E0 DA48      012E8        5014        BAL   JP,MSG79                   -MSG79                          38290021
 003CB6 9240 C638      01C98        5015          MVI   NXTBCD,XX40               PUT BLANK IN FIELD             38300021
 003CBA 4133 0001      00001        5016          LA    R3,DX1(R3)                SET SIZE TO  1                 38310021
 003CBE 47F0 9124      03BE4        5017        BC    UNCOND,QUCN1A               -QUCN1A                        38320021
                                    5018 *                                                                       38330021
                                    5019 *                                                                 51354 38340021
 003CC2 9013 9250      03D10        5020 QLSTWD1  STM   R1,R3,QLSTWDSV           SAVE REGISTERS            51354 38350021
 003CC6 1831                        5021          LR    R3,R1                    R3 = @ END QUOTE          51354 38360021
 003CC8 4133 0002      00002        5022          LA    R3,DX2(R3)               SKIP QT/BLANK OR PD,ETC   51354 38370021
 003CCC DD4F 3000 C3DC 00000 01A3C  5023          TRT   DX0(LX80,R3),UNONB       SCAN TO NEXT NON-BLANK    51354 38380021
 003CD2 1917                        5024          CR    R1,R7                    COLUMN 74?                51354 38390021
1PH1B     IKFCBL1B                                                                                              PAGE  118
-  LOC  OBJECT CODE    ADDR1 ADDR2  STMT   SOURCE STATEMENT                                       ASM 0201 11.03 02/14/15
0003CD4 4780 9240      03D00        5025          BE    QLSTRETN                 YES- REST OF CARD BLANK   51354 38400021
 003CD8 1827                        5026          LR    R2,R7                    SCAN LEFT                 51354 38410021
 003CDA 0620                        5027 QLSTWD2  BCTR  R2,R0                              FROM COLUMN 74  51354 38420021
 003CDC 9540 2000      00000        5028          CLI   DX0(R2),XX40             POSITION BLANK?           51354 38430021
 003CE0 4780 921A      03CDA        5029          BE    QLSTWD2                  YES-SCAN TO NON-BLANK     51354 38440021
 003CE4 954B 2000      00000        5030          CLI   DX0(R2),XX4B             DOES LAST WORD END W/PD?  51354 38450021
 003CE8 4780 9240      03D00        5031          BE    QLSTRETN                 YES-NEXT CARD NOT CONT.   51354 38460021
 003CEC 956B 2000      00000        5032          CLI   DX0(R2),XX6B             DOES LAST WORD END W/COMMA?     38470021
 003CF0 4780 9240      03D00        5033          BE    QLSTRETN                 YES-NEXT CARD NOT CONT.   51354 38480021
 003CF4 957D 2000      00000        5034          CLI   DX0(R2),XX7D             DOES LAST WORD END W/QUOTE?     38490021
 003CF8 4780 9240      03D00        5035          BE    QLSTRETN                 YES-NEXT CARD NOT CONT.   51354 38500021
 003CFC 94BF D285      00B25        5036          NI    NWCDSW,XXBF              POSSIBLE CONT./NEXT CARD  51354 38510021
 003D00 D700 925C 925C 03D1C 03D1C  5037 QLSTRETN XC    QUOTCARD,QUOTCARD        RE-INITIALIZE SWITCH      51354 38520021
 003D06 9813 9250      03D10        5038          LM    R1,R3,QLSTWDSV           RESTORE REGISTERS         51354 38530021
 003D0A 47F0 9106      03BC6        5039          B     QUCN0                    RETURN                    51354 38540021
                                    5040 *                                                                 51354 38550021
 003D0E 0000
 003D10 0000000000000000            5041 QLSTWDSV DC    3F'0'                    SAVE AREA                 51354 38560021
 003D1C 00                          5042 QUOTCARD DC    X'00'                    NEW CARD/THIS ROUTINE     51354 38570021
                                    5043 *                                                                 51354 38580021
 003D1D 00
 003D1E D200 4000 5001 00000 00001  5044 MOVLIT   MVC   DX0(LX0,R4),DX1(R5)        EX MOVE FOR LIT               38590021
1PH1B     IKFCBL1B                                                                                              PAGE  119
-  LOC  OBJECT CODE    ADDR1 ADDR2  STMT   SOURCE STATEMENT                                       ASM 0201 11.03 02/14/15
0                                   5046 *                                                                       38610021
                                    5047 *   ROUTINE FOR A PERIOD                                                38620021
                                    5048 *                                                                       38630021
 003D24 9101 D27F      00B1F        5049 PERIOD   TM    FRGNSW,XX01               FRGNSW 'ON'                    38640021
 003D28 4780 9274      03D34        5050        BC    ZERO,DIGAFT                 NO-DIGAFT                      38650021
 003D2C 4111 0001      00001        5051          LA    R1,DX1(R1)                SET PTR TO POS AFTER PERIOD    38660021
 003D30 47F0 927E      03D3E        5052        BC    UNCOND,TSTAFT               -TSTAFT                        38670021
 003D34 DD00 1001 C2DC 00001 0193C  5053 DIGAFT   TRT   DX1(LX1,R1),UDIGT          IS NEXT A DIGIT               38680021
 003D3A 4780 907E      03B3E        5054        BC    EQ,DIGPER                   YES-DIGPER                     38690021
 003D3E 9540 1000      00000        5055 TSTAFT   CLI   DX0(R1),XX40    IS POSITION AFTER PERIOD BLANK           38700021
 003D42 4780 928A      03D4A        5056        BC    EQ,EOSENT         YES  BRANCH TO END OF SENT ROUT          38710021
 003D46 45E0 DA50      012F0        5057        BAL   JP,MSG81         ERR MESS- PERIOD NOT FOLLOWED BY BLAN     38720021
 003D4A D201 C636 C4FE 01C96 01B5E  5058 EOSENT   MVC   NXTCOD(LX2),EOSCON MOVE EOS CODE                         38730021
 003D50 9104 C57D      01BDD        5059          TM    CURSW,XX04                IS POSITION BEFORE PERIOD B    38740021
 003D54 4710 98A0      04360        5060        BC    ONES,EXIT5C                 NO-EXIT5C                      38750021
 003D58 45E0 DA4C      012EC        5061        BAL   R14,MSG80                  -MSG80                          38760021
 003D5C 47F0 98A0      04360        5062        BC    UNCOND,EXIT5C               -EXIT5C                        38770021
                                    5063 *                                                                       38780021
                                    5064 *                                                                       38790021
                                    5065 * ROUTINE FOR PLUS OR MINUS SIGN                                        38800021
                                    5066 *                                                                       38810021
 003D60 9601 D293      00B33        5067 SIGN     OI    SIGNSW,XX01               SET 'ON' SIGNSW                38820021
 003D64 DD00 1001 C2DC 00001 0193C  5068          TRT   DX1(LX1,R1),UDIGT          DIGIT FOLLOWING SIGN          38830021
 003D6A 4780 92E4      03DA4        5069        BC    ZERO,SIGNC                  YES-SIGNC                      38840021
 003D6E D500 1000 C4F0 00000 01B50  5070          CLC   DX0(LX1,R1),KDECML         PERIOD FOLLOWING SIGN         38850021
 003D74 4770 92C4      03D84        5071        BNE   SIGNLT                     NO - LETTER FOLLOWS ?           38860021
 003D78 DD00 1001 C2DC 00001 0193C  5072          TRT   DX1(LX1,R1),UDIGT          DIGIT FOLLOWIN PERIOD         38870021
 003D7E 4780 907E      03B3E        5073        BC    ZERO,DIGPER                 YES-DIGPER                     38880021
 003D82 0610                        5074        BCTR  R1,JR                       (SET PTR BACK TO PERIOD)       38890021
                                    5075 *                                                                       38900021
                                    5076 *                                                                       38910021
 003D84                             5077 SIGNLT DS    0H                                                         38920021
 003D84 9640 D281      00B21        5078          OI    UNARSW,XX40               SET ON UNARY SW                38930021
 003D88 9560 5000      00000        5079 SIGNA    CLI   DX0(R5),XX60              MINUS SIGN                     38940021
 003D8C 4780 92DA      03D9A        5080        BC    EQ,SIGNB                    YES-SIGNB                      38950021
 003D90 D201 C636 AC2E 01C96 030F6  5081          MVC   NXTCOD(LX2),PLUSCD        CODE AS PLUS SIGN              38960021
 003D96 47F0 9800      042C0        5082        BC    UNCOND,EXIT                 -EXIT                          38970021
 003D9A D201 C636 AC31 01C96 030F9  5083 SIGNB    MVC   NXTCOD(LX2),MINCD         CODE AS MINUS SIGN             38980021
 003DA0 47F0 9800      042C0        5084        BC    UNCOND,EXIT                 -EXIT                          38990021
                                    5085 *                                                                       39000021
 003DA4 DD4F 1001 C2DC 00001 0193C  5086 SIGNC    TRT   DX1(LX80,R1),UDIGT         SCAN TO NON-DIGIT             39010021
 003DAA D500 1000 C4F0 00000 01B50  5087          CLC   DX0(LX1,R1),KDECML         PERIOD FOLLOWING LAST DIGIT   39020021
 003DB0 4780 907E      03B3E        5088        BC    EQ,DIGPER                   YES-DIGPER                     39030021
 003DB4 47F0 92F8      03DB8        5089        BC    UNCOND,NUMLIT               -NUMLIT                        39040021
1PH1B     IKFCBL1B                                                                                              PAGE  120
-  LOC  OBJECT CODE    ADDR1 ADDR2  STMT   SOURCE STATEMENT                                       ASM 0201 11.03 02/14/15
0                                   5091 *                                                                       39060021
                                    5092 * GENERAL ROUTINE FOR NUMERIC LITERALS  -- ROUTINE IS ENTERED FROM      39070021
                                    5093 *  SIGN, PERIOD, AND DIGIT ROUTINES.  A SWITCH IS SET IF THERE IS A     39080021
                                    5094 *  SIGN OR A DECIMAL.  R5 POINTS TO THE FIRST CHARACTER,  R3 POINTS     39090021
                                    5095 *  THE DECIMAL, AND R1 POINTS TO THE CHARACTER AFTER THE LITERAL        39100021
                                    5096 *                                                                       39110021
 003DB8 5050 D8C4      01164        5097 NUMLIT ST    R5,REGWRK        SAVE R5                                   39120021
 003DBC 1881                        5098        LR    R8,R1                      GET TOTAL                       39130021
 003DBE 1B85                        5099        SR    R8,R5                       LIT SIZE                       39140021
 003DC0 4280 C614      01C74        5100        STC   R8,NXTCNT                  STORE IN NXTCNT                 39150021
 003DC4 D211 C615 5000 01C75 00000  5101          MVC   NXTWD(LX18),DX0(R5)        STORE LIT IN NXTWD            39160021
 003DCA 9101 D293      00B33        5102          TM    SIGNSW,XX01               SIGNED LIT                     39170021
 003DCE 47E0 9318      03DD8        5103        BC    NOTONE,NUMLTA               NO-NUMLTA                      39180021
 003DD2 4155 0001      00001        5104          LA    R5,DX1(R5)                MOVE R5 PTR                    39190021
 003DD6 0680                        5105        BCTR  R8,JR                       REDUCE SIXE                    39200021
 003DD8 9101 D294      00B34        5106 NUMLTA   TM    DECSW,XX01                IS THERE DEC                   39210021
 003DDC 47E0 9322      03DE2        5107          BC    NOTONE,*+NX6     NO                                      39220021
 003DE0 0680                        5108        BCTR  R8,JR              YES - SUBTRACT 1 FROM LENGTH            39230021
 003DE2 5580 C238      01898        5109        CL    R8,K18           COMP TO 18                                39240021
 003DE6 47D0 9332      03DF2        5110          BC    NOTHI,*+NX12    LENGTH IS OK                             39250021
 003DEA 45E0 DA54      012F4        5111        BAL   JP,MSG82         -MSG82                                    39260021
 003DEE 4180 0012      00012        5112          LA    R8,DX18         LIT TOO LONG, TRUNCATE TO 18             39270021
 003DF2 5080 D8C0      01160        5113        ST    R8,SAVER8        SAVE LITERAL LENGTH                       39280021
 003DF6 9200 D89C      0113C        5114          MVI   UNPWRK,XX00        SET 18 BYTE WORK AREA TO ZERO         39290021
 003DFA D210 D89D D89C 0113D 0113C  5115          MVC   UNPWRK+NX1(LX17),UNPWRK AREA TO ZERO                     39300021
 003E00 D203 D894 D898 01134 01138  5116          MVC   INTCNT(LX4),ZERWRD CLEAR COUNTERS                        39310021
 003E06 4140 D8AE      0114E        5117        LA    R4,UNPEND        SET UP R4 TO POINT TO                     39320021
 003E0A 1B48                        5118        SR    R4,R8             1ST POS OF WORK AREA                     39330021
 003E0C 5040 D788      01028        5119        ST    R4,VALNLT        SAVE R4 FOR VALUE CLAUSE                  39340021
 003E10 5080 D78C      0102C        5120          ST    R8,VALNLT+NX4   SAVE R8 FOR VALUE CLAUSE                 39350021
 003E14 9101 D294      00B34        5121          TM    DECSW,XX01      TEST DECIMAL AGAIN                       39360021
 003E18 4710 9374      03E34        5122        BC    ONES,NLTDEC       YES                                      39370021
 003E1C 4080 D894      01134        5123        STH   R8,INTCNT        SAVE NO OF INTS                           39380021
 003E20 4480 9368      03E28        5124        EX    R8,MVPAK1        NO - ONLY INTEGERS - MV TO WORK AREA      39390021
 003E24 47F0 93C0      03E80        5125        BC    UNCOND,LITCOM    GO TO COMMON ROUTINE                      39400021
 003E28 D200 4000 5000 00000 00000  5126 MVPAK1   MVC   DX0(LX0,R4),DX0(R5)                                      39410021
 003E2E D200 4000 3000 00000 00000  5127 MVPAK2   MVC   DX0(LX0,R4),DX0(R3)                                      39420021
                                    5128 *                                                                       39430021
                                    5129 *  ROUTINE FOR NUMERIC LIT WITH DECIMALS                                39440021
                                    5130 *                                                                       39450021
 003E34 1B22                        5131 NLTDEC SR    R2,R2                                                      39460021
 003E36 1953                        5132 INTLP1 CR    R5,R3            IS POINTER AT DEC YET                     39470021
 003E38 4780 939A      03E5A        5133        BC    EQ,SAVINT         YES                                      39480021
 003E3C D200 4000 5000 00000 00000  5134          MVC   DX0(LX1,R4),DX0(R5) NO - MV 1 DIG TO WORK                39490021
 003E42 4122 0001      00001        5135          LA    R2,DX1(R2)      ADD 1 TO INT COUNT                       39500021
 003E46 4155 0001      00001        5136          LA    R5,DX1(R5)      ADD 1 TO POINTER                         39510021
 003E4A 4144 0001      00001        5137          LA    R4,DX1(R4)      ADD 1 TO WORK AREA PNTR                  39520021
 003E4E 4680 9376      03E36        5138        BCT   R8,INTLP1        TEST 18 CHARS MOVED                       39530021
 003E52 4020 D894      01134        5139        STH   R2,INTCNT                                                  39540021
 003E56 47F0 93C0      03E80        5140        BC    UNCOND,LITCOM      YES  GO TO COMMON ROUTINE               39550021
 003E5A 4020 D894      01134        5141 SAVINT STH   R2,INTCNT        SAVE INTEGER COUNT                        39560021
 003E5E 1B22                        5142        SR    R2,R2            CLEAR FOR DEC COUNT                       39570021
 003E60 4155 0001      00001        5143 DECLP1   LA    R5,DX1(R5)      MV POINTER PAST DEC                      39580021
 003E64 1951                        5144        CR    R5,R1            TEST END OF LIT                           39590021
 003E66 4780 93BC      03E7C        5145        BC    EQ,SAVDEC         YES                                      39600021
1PH1B     IKFCBL1B                                                                                              PAGE  121
-  LOC  OBJECT CODE    ADDR1 ADDR2  STMT   SOURCE STATEMENT                                       ASM 0201 11.03 02/14/15
0003E6A D200 4000 5000 00000 00000  5146          MVC   DX0(LX1,R4),DX0(R5) NO - MV 1 DIG TO WORK                39610021
 003E70 4122 0001      00001        5147          LA    R2,DX1(R2)      ADD 1 TO DEC COUNT                       39620021
 003E74 4144 0001      00001        5148          LA    R4,DX1(R4)      ADD 1 TO WORK AREA PNTR                  39630021
 003E78 4680 93A0      03E60        5149        BCT   R8,DECLP1        TEST 18 CHARS MOVED                       39640021
 003E7C 4020 D896      01136        5150 SAVDEC STH   R2,DECCNT        SAVE DEC COUNT                            39650021
 003E80 5880 D8C0      01160        5151 LITCOM L     R8,SAVER8        RESTORE LENGTH OF LIT                     39660021
 003E84 F27E D8B1 D89F 01151 0113F  5152        PACK  PAKSUB,UNPSUB    PACK RIGHT MOST 15 DIGS                   39670021
 003E8A F212 D8BA D89C 0115A 0113C  5153        PACK  WRK2,UNPWRK      PACK LEFT 3 DIGS                          39680021
 003E90 F121 D8BC D8BA 0115C 0115A  5154        MVO   WRK3,WRK2        ELIM SIGN                                 39690021
 003E96 D201 D8AF D8BC 0114F 0115C  5155          MVC   PAKWRK(LX2),WRK3 AND SHIFT 4 BITS                        39700021
 003E9C 5850 D8C4      01164        5156        L     R5,REGWRK        RSTORE R5                                 39710021
 003EA0 9101 D293      00B33        5157          TM    SIGNSW,XX01     TEST SIGN                                39720021
 003EA4 47E0 945C      03F1C        5158        BC    NOTONE,NLTPH1              NO SIGN                         39730021
 003EA8 954E 5000      00000        5159          CLI   DX0(R5),XX4E              IS IT A +                      39740021
 003EAC 4780 93FC      03EBC        5160        BC    EQ,NLTPLS         YES                                      39750021
 003EB0 94FD D8B8      01158        5161          NI    PAKEND-NX1,XXFD NO - MAKE SIGN MINUS                     39760021
 003EB4 94DF D8AD      0114D        5162          NI    UNPEND-NX1,XXDF SET SIGN IN BCD TO MINUS                 39770021
 003EB8 47F0 9404      03EC4        5163        BC    UNCOND,*+NX12              GO ADD 1 FOR PACKED BYTES       39780021
 003EBC 94CF D8AD      0114D        5164 NLTPLS   NI    UNPEND-NX1,XXCF           SET SIGN IN BCD TO +           39790021
 003EC0 94FC D8B8      01158        5165 NLTPLU   NI    PAKEND-NX1,XXFC           MAKE SIGN +                    39800021
 003EC4 8A80 0001      00001        5166          SRA   R8,DX1         DIV LIT LENGTH BY 2                       39810021
 003EC8 4188 0001      00001        5167          LA    R8,DX1(R8)      ADD 1 GIVING NO OF PACKED BYTES          39820021
 003ECC 4130 D8B9      01159        5168        LA    R3,PAKEND        SET POINTER TO FIRST                      39830021
 003ED0 1B38                        5169        SR    R3,R8             PACKED BYTE                              39840021
 003ED2 4140 C63A      01C9A        5170          LA    R4,NXTBCD+NX2   LOAD STARTING ADD FOR PACKED DEC         39850021
 003ED6 4480 936E      03E2E        5171        EX    R8,MVPAK2        MV PACKED DEC TO COMM CELL                39860021
 003EDA 4188 0002      00002        5172          LA    R8,DX2(R8)      DEVELOP NEXTN AND                        39870021
 003EDE 4280 C637      01C97        5173        STC   R8,NXTN                    STORE SIZE IN NXTN              39880021
 003EE2 9232 C636      01C96        5174          MVI   NXTCOD,XX32     STOR CODE FOR NUM LIT                    39890021
 003EE6 D200 C638 D895 01C98 01135  5175          MVC   NXTN+NX1(LX1),INTCNT+NX1 STORE NO OF INTS                39900021
 003EEC D200 C639 D897 01C99 01137  5176          MVC   NXTN+NX2(LX1),DECCNT+NX1 STORE NO OF DECS                39910021
 003EF2 1881                        5177        LR    R8,R1                      PUT BCD                         39920021
 003EF4 1B85                        5178        SR    R8,R5                       FORM                           39930021
 003EF6 4280 C614      01C74        5179        STC   R8,NXTCNT                    IN NEXT                       39940021
 003EFA D213 C615 5000 01C75 00000  5180          MVC   NXTWD(LX20),DX0(R5)           WORD                       39950021
 003F00 9101 D294      00B34        5181          TM    DECSW,XX01                IS THERE A DECIMAL             39960021
 003F04 4710 96CE      0418E        5182        BC    ONES,TWDBNT                 YES-TWDBNT                     39970021
 003F08 9101 D293      00B33        5183          TM    SIGNSW,XX01               IS THERE A SIGN                39980021
 003F0C 4710 96CE      0418E        5184        BC    ONES,TWDBNT                 YES-TWDBNT                     39990021
 003F10 9604 D291      00B31        5185 INLCKC   OI    AMARSW,XX04               UNSIGNED NUM-LIT W/O DEC       40000021
 003F14 9608 C633      01C93        5186          OI    NXTSW,XX08      SET SW FOR NUM LIT                       40010021
 003F18 47F0 96CE      0418E        5187        BC    UNCOND,TWDBNT               -TWDBNT                        40020021
                                    5188 *                                                                       40030021
 003F1C 94FF D8B8      01158        5189 NLTPH1   NI    PAKEND-NX1,XXFF           MAKE SIGN 'F'                  40040021
 003F20 47F0 9404      03EC4        5190        B     NLTPLU+LX4                 GO BACK TO DIV LIT LENGTH BY 2  40050021
1PH1B     IKFCBL1B                                                                                              PAGE  122
-  LOC  OBJECT CODE    ADDR1 ADDR2  STMT   SOURCE STATEMENT                                       ASM 0201 11.03 02/14/15
0                                   5192 *                                                                       40070021
                                    5193 * SPECIAL CHARACTER ROUTINE                                             40080021
                                    5194 *                                                                       40090021
 003F24 4140 AC18      030E0        5195 SPECL  LA    R4,SPCTBL        TABL ADDRESS TO REG                       40100021
 003F28 5830 AC14      030DC        5196        L     R3,SPTBAD        PUT TABLE END IN REGISTER                 40110021
 003F2C 4120 0003      00003        5197          LA    R2,DX3          SET UP FOR 3 BYTE INDESING               40120021
 003F30 D501 1000 AC33 00000 030FB  5198          CLC   DX0(LX2,R1),EXPOKD IS IT A DOUBLE ASTERISK               40130021
 003F36 4770 9488      03F48        5199        BC    NOTEQ,SPLOOP      NO-SPLOOP                                40140021
 003F3A D201 C636 AC35 01C96 030FD  5200          MVC   NXTCOD(LX2),EXPOCD CODE AS 'EXPONENTIATE'                40150021
 003F40 4111 0002      00002        5201          LA    R1,DX2(R1)      ADD 2 TO POINTER                         40160021
 003F44 47F0 9800      042C0        5202        BC    UNCOND,EXIT       -EXIT                                    40170021
 003F48 D500 4000 1000 00000 00000  5203 SPLOOP   CLC   DX0(LX1,R4),DX0(R1) COMP CHAR TO TABL CHAR               40180021
 003F4E 4780 9496      03F56        5204        BC    EQ,SPHIT                   YES - GO TO SAVE CODE NUM       40190021
 003F52 8742 9488      03F48        5205        BXLE  R4,R2,SPLOOP               LOW OR EQUAL - COMP CHAR        40200021
 003F56 D201 C636 4001 01C96 00001  5206 SPHIT    MVC   NXTCOD(LX2),DX1(R4) SAVE CODE                            40210021
 003F5C 4111 0001      00001        5207          LA    R1,DX1(R1)      ADD 1  TO POINTER                        40220021
 003F60 47F0 9800      042C0        5208        BC    UNCOND,EXIT                GET ENDING ADDR                 40230021
                                    5209 *                                                                       40240021
                                    5210 *  ROUTINE FOR ILLEGAL CHARACTER                                        40250021
                                    5211 *                                                                       40260021
 003F64 9102 D27E      00B1E        5212 ILLEGL TM    NOTESW,XX02               NOTE VERB?                  0654 40270021
 003F68 4710 94C0      03F80        5213        BC    ONES,ILLEG1               YES - ILLEG1                0654 40280021
 003F6C 9544 C580      01BE0        5214        CLI   CURCOD,XX44               44 WORD?                    0654 40290021
 003F70 4770 94BC      03F7C        5215        BC    NOTEQ,WMSG83              NO - WMSG83                 0654 40300021
 003F74 95F7 C581      01BE1        5216        CLI   CURN,XXF7                 NOTE VERB?                  0654 40310021
 003F78 4780 94C0      03F80        5217        BC    EQ,ILLEG1                 YES - ILLEG1                0654 40320021
 003F7C 45E0 DA58      012F8        5218 WMSG83 BAL   JP,MSG83                  ERR MESS - ILLEGAL CHAR     0654 40330021
 003F80 4111 0001      00001        5219 ILLEG1   LA    R1,DX1(R1)      ADD1                                     40340021
 003F84 1B22                        5220        SR    R2,R2            CLEAR R2                                  40350021
 003F86 DD00 1000 C3DC 00000 01A3C  5221          TRT   DX0(LX1,R1),UNONB TEST NEXT CHARACTER                    40360021
 003F8C 4780 94D8      03F98        5222        BC    ZERO,ILLEG2       BLANK                                    40370021
 003F90 5920 C22C      0188C        5223        C     R2,K7            IS IT ILLEGAL                             40380021
 003F94 4780 94C0      03F80        5224        BC    EQ,ILLEG1         YES - REPEAT LOOP                        40390021
 003F98 1851                        5225 ILLEG2 LR    R5,R1            ANY LEGAL CHAR                            40400021
 003F9A 47F0 F052      031D2        5226        BC    UNCOND,ULSC1     GO TO RESUME SCAZ                         40410021
                                    5227 *                                                                       40420021
                                    5228 *   ROUTINE FOR A COMMA                                                 40430021
                                    5229 *                                                                       40440021
 003F9E 9101 D27F      00B1F        5230 COMMA    TM    FRGNSW,XX01     IS IT A FOREIGN LANG                     40450021
 003FA2 4780 94F2      03FB2        5231        BC    ZERO,COMPRE                 NO-COMPRE                      40460021
 003FA6 DD00 1001 C2DC 00001 0193C  5232          TRT   DX1(LX1,R1),UDIGT          NEXT CHAR IS A DIGIT          40470021
 003FAC 4780 907E      03B3E        5233        BC    ZERO,DIGPER                 YES-DIGPER                     40480021
 003FB0 0610                        5234        BCTR  R1,JR                     SUBTRACT 1 FROM R1               40490021
 003FB2 0610                        5235 COMPRE BCTR  R1,JR                       SET PTR BACK ONE               40500021
 003FB4 9540 1000      00000        5236          CLI   DX0(R1),XX40              BLANK BEFORE COMMA             40510021
 003FB8 4770 9500      03FC0        5237        BC    NOTEQ,COMEX                 NO-COMEX                       40520021
 003FBC 45E0 DA5C      012FC        5238        BAL   JP,MSG84                   -MSG84                          40530021
 003FC0 4111 0002      00002        5239 COMEX    LA    R1,DX2(R1)                SET PTR PAST COMMA             40540021
 003FC4 1851                        5240        LR    R5,R1                      SET POINTER                     40550021
 003FC6 9540 1000      00000        5241 COMFOL   CLI   DX0(R1),XX40              BLANK FOLLOWING COMMA          40560021
 003FCA 4780 F228      033A8        5242        BC    EQ,ULSC14                   YES-ULSC14                     40570021
 003FCE 45E0 DAEC      0138C        5243        BAL   JP,MSG120                  -MSG120                         40580021
 003FD2 47F0 F228      033A8        5244        BC    UNCOND,ULSC14               -ULSC14                        40590021
1PH1B     IKFCBL1B                                                                                              PAGE  123
-  LOC  OBJECT CODE    ADDR1 ADDR2  STMT   SOURCE STATEMENT                                       ASM 0201 11.03 02/14/15
0                                   5246 *                                                                       40610021
                                    5247 *  SUBROUTINE TO TEST FOR A COBOL WORD                                  40620021
                                    5248 *                                                                       40630021
 003FD6 1B33                        5249 TSTCOB SR    R3,R3                                                      40640021
 003FD8 5980 C230      01890        5250        C     R8,K16           IS WORD LENGTH                            40650021
 003FDC 47B0 9572      04032        5251        BC    NOTLO,BCDNAM      BDTWEEN                                  40660021
 003FE0 5980 C228      01888        5252        C     R8,K2              2 AND                                   40670021
 003FE4 4740 9572      04032        5253        BC    LO,BCDNAM           15                                     40680021
 003FE8 5983 AB9C      03064        5254 ADLOOP C     R8,ADTAB(R3)     IF YES                                    40690021
 003FEC 4780 9538      03FF8        5255        BC    EQ,MOVAD          WHICH                                    40700021
 003FF0 4133 0008      00008        5256          LA    R3,DX8(R3)        LENGTH                                 40710021
 003FF4 47F0 9528      03FE8        5257        BC    UNCOND,ADLOOP              RESEARCH FOR CORRECT LENGTH     40720021
 003FF8 5843 ABA0      03068        5258 MOVAD    L     R4,ADTAB+NX4(R3) LOAD ADDR OF VRST WORD THAT LENGTH      40730021
 003FFC 5823 ABA8      03070        5259          L     R2,ADTAB+NX12(R3) ADDR OF FIRST WORD OF NEXT LENGTH      40740021
 004000 1838                        5260        LR     R3,R8           TRANSFER LENGTH TO WORK REG               40750021
 004002 0630                        5261        BCTR  R3,JR            SUBRRACT 1 FOR EXECUTE COMPARE            40760021
 004004 4430 9550      04010        5262 TBLOOP EX     R3,COMP                                                   40770021
 004008 4780 9566      04026        5263        BC    EQ,WRDHIT                  WORD FOUND                      40780021
 00400C 47F0 9556      04016        5264        BC    UNCOND,NOHIT               GO TO NO HIT FOUND RTN          40790021
                                    5265 *                                                                       40800021
 004010 D500 5000 4000 00000 00000  5266 COMP     CLC   DX0(LX0,R5),DX0(R4) COMP THIS UNIT TO TABLWORD           40810021
                                    5267 *                                                                       40820021
 004016 1A48                        5268 NOHIT  AR    R4,R8            ADD WORD LENGTH TO TABL POINTER           40830021
 004018 4144 0003      00003        5269          LA    R4,DX3(R4)      ADD 3                                    40840021
 00401C 1942                        5270        CR    R4,R2            TEST FOR END OF TABLE                     40850021
 00401E 4780 9572      04032        5271        BC    EQ,BCDNAM        END OF TABLE                              40860021
 004022 47F0 9544      04004        5272        BC    UNCOND,TBLOOP              RESEARCH TABLE                  40870021
 004026 1A48                        5273 WRDHIT AR    R4,R8            ADD WORD LENGTH TO TABLE POINTER          40880021
 004028 D202 C636 4000 01C96 00000  5274          MVC   NXTCOD(LX3),DX0(R4) MOVE CODE                            40890021
 00402E 47F0 95A8      04068        5275        BC    UNCOND,CHKIDD              CK IF PROC DIV DECLARATIVES     40900021
                                    5276 *                                                                       40910021
                                    5277 *****     ROUTINE FOR BCD-NAME     *****                                40920021
                                    5278 *                                                                       40930021
 004032 9223 C636      01C96        5279 BCDNAM   MVI   NXTCOD,XX23               CODE AS BCD-NAME               40940021
 004036 5980 C23C      0189C        5280        C     R8,K30                     OVER 30  CHARACTERS             40950021
 00403A 47D0 9582      04042        5281        BC    NOTHI,BCDSTN                NO-BCDSTN                      40960021
 00403E 5880 C23C      0189C        5282        L     R8,K30                     SET SIZE TO 30                  40970021
 004042 4280 C637      01C97        5283 BCDSTN STC   R8,NXTN                    STORE SIZE IN 'N'               40980021
 004046 D777 C638 C638 01C98 01C98  5284          XC    NXTBCD(LX120),NXTBCD      CLEAR AREA                     40990021
 00404C 4130 C638      01C98        5285        LA    R3,NXTBCD                  ADDR OF NXTBCD                  41000021
 004050 0680                        5286        BCTR  R8,JR                       ADJ SIZE FOR 'EX'              41010021
 004052 4480 95A2      04062        5287        EX    R8,MVNAM                   NAME TO NXTBC                   41020021
 004056 9602 D291      00B31        5288          OI    AMARSW,XX02               SET SW FOR BCDNAME             41030021
 00405A 9680 C633      01C93        5289          OI    NXTSW,XX80                SET NXTSW FOR BCD-NAME         41040021
 00405E 47F0 96CE      0418E        5290        BC    UNCOND,TWDBNT               -TWDBNT                        41050021
                                    5291 *                                                                       41060021
 004062 D200 3000 5000 00000 00000  5292 MVNAM    MVC   DX0(LX0,R3),DX0(R5)                                      41070021
1PH1B     IKFCBL1B                                                                                              PAGE  124
-  LOC  OBJECT CODE    ADDR1 ADDR2  STMT   SOURCE STATEMENT                                       ASM 0201 11.03 02/14/15
0                                   5294 * IF IN PROCEDURE DIV                                                   41090021
                                    5295 *****    CHECK IF 'DECLARATIVES FOLLOWS END' CODE AS 'END-DECLAR'       41100021
                                    5296 *        WHEN IN A-MARGIN AND PASS WORD 'DECLARATIVES'                  41110021
                             04068  5297 CHKIDD EQU   *                                                          41120021
 004068 9102 D27E      00B1E        5298          TM    NOTESW,XX02               NOTESW 'ON'                    41130021
 00406C 4780 95BC      0407C        5299        BC    ZERO,CHKPDV                 NO-CHKPDV                      41140021
 004070 9101 C633      01C93        5300          TM    NXTSW,XX01                IN A-MARGIN                    41150021
 004074 4780 9800      042C0        5301        BC    ZERO,EXIT                   NO-EXIT                        41160021
 004078 94FD D27E      00B1E        5302          NI    NOTESW,XXFD               SET 'OFF' NOTESW               41170021
 00407C 4330 D2C4      00B64        5303 CHKPDV IC    R3,DIVCOD                  OK FOR DIVISION                 41180021
 004080 4430 96AC      0416C        5304        EX    R3,DVXTST                  OK FOR DIVISION                 41190021
 004084 4780 96BE      0417E        5305        BC    ZERO,TWDM98                 NO-TWDM98                      41200021
 004088 D502 C636 A0E8 01C96 025B0  5306 WRDDCL   CLC   NXTCOD(LX3),ENDCD    WORD IS 'END'                       41210021
 00408E 4770 9616      040D6        5307        BC    NOTEQ,TWDANT           -TWDANT                             41220021
 004092 5010 D8C4      01164        5308        ST    R1,REGWRK             SAVE R1                              41230021
 004096 1831                        5309        LR    R3,R1                 LOAD R1 TO R3                        41240021
 004098 DD4F 3000 C3DC 00000 01A3C  5310          TRT   DX0(LX80,R3),UNONB    SCAN TO NONBLANK                   41250021
 00409E D50B 1000 A9DF 00000 02EA7  5311          CLC   DX0(LX12,R1),DECLKN   WORD IS 'DECLARATIVES'             41260021
 0040A4 4780 95FC      040BC        5312        BC    EQ,ENDPAS              YES-ENDPAS                          41270021
 0040A8 5810 D8C4      01164        5313        L     R1,REGWRK             RESTORE R1                           41280021
 0040AC 9101 C633      01C93        5314          TM    NXTSW,XX01           IN A-MARGIN                         41290021
 0040B0 4780 9800      042C0        5315        BC    ZERO,EXIT              NO-EXIT                             41300021
 0040B4 45E0 DA68      01308        5316        BAL   JP,MSG87              -MSG87 'SHOULD NOT BE IN A-MARGI     41310021
 0040B8 47F0 9800      042C0        5317        BC    UNCOND,EXIT            -EXIT                               41320021
 0040BC 4111 000C      0000C        5318 ENDPAS   LA    R1,DX12(R1)          SET R1 TO PASS DECLARATIVES         41330021
 0040C0 D202 C636 C500 01C96 01B60  5319          MVC   NXTCOD(LX3),ENDLCD   CODE AS END-DECLARATIVES            41340021
 0040C6 9101 C633      01C93        5320          TM    NXTSW,XX01           IN A-MARGIN                         41350021
 0040CA 4710 9800      042C0        5321        BC    ONES,EXIT              YES-EXIT                            41360021
 0040CE 45E0 DA64      01304        5322        BAL   JP,MSG86              -MSG86 'WORD SHOULD BE IN A-MARG     41370021
 0040D2 47F0 9800      042C0        5323        BC    UNCOND,EXIT            -EXIT                               41380021
                                    5324 *                                                                       41390021
 0040D6 9542 C636      01C96        5325 TWDANT   CLI   NXTCOD,XX42          CODE IS '42'                        41400021
 0040DA 4780 9626      040E6        5326        BC    EQ,TWDIVN              YES-TWDIVN                          41410021
 0040DE 9543 C636      01C96        5327          CLI   NXTCOD,XX43          CODE IS '43'                        41420021
 0040E2 4770 96CE      0418E        5328        BC    NOTEQ,TWDBNT           NO-TWDBNT                           41430021
 0040E6 9130 C638      01C98        5329 TWDIVN   TM    NXTBCD,XX30               DIV OR SECT HEADER             41440021
 0040EA 4770 963E      040FE        5330        BC    NOTZER,TWDCHK          YES-TWDCHK                          41450021
 0040EE 9101 C633      01C93        5331          TM    NXTSW,XX01           IN A-MARGIN                         41460021
 0040F2 4710 9800      042C0        5332        BC    ONES,EXIT              YES-EXIT                            41470021
 0040F6 45E0 DA64      01304        5333        BAL   JP,MSG86              -MSG86 'SHOULD BE IN A-MARGIN'       41480021
 0040FA 47F0 9800      042C0        5334        BC    UNCOND,EXIT            -EXIT                               41490021
                                    5335 *                                                                       41500021
 0040FE 5010 D8C4      01164        5336 TWDCHK ST    R1,REGWRK             SAVE R1                              41510021
 004102 DD4F 1000 C3DC 00000 01A3C  5337          TRT   DX0(LX80,R1),UNONB         SCAN TO NON-BLANK             41520021
 004108 9120 C638      01C98        5338          TM    NXTBCD,XX20          SECTION HEADER                      41530021
 00410C 4710 9662      04122        5339        BC    ONES,TWDSCT            YES-TWDSCT                          41540021
 004110 D507 1000 A6F0 00000 02BB8  5340          CLC   DX0(LX8,R1),DIVKON    WORD IS DIVISION                   41550021
 004116 4770 9698      04158        5341        BC    NOTEQ,TWDAMG           NO-TWDAMG                           41560021
 00411A 4111 0008      00008        5342          LA    R1,DX8(R1)           SET R1 TO PASS DIVISION             41570021
 00411E 47F0 9670      04130        5343        BC    UNCOND,TWDMRG          -TWDMRG                             41580021
 004122 D506 1000 A6A7 00000 02B6F  5344 TWDSCT   CLC   DX0(LX7,R1),SCTKON    WORD IS SECTION                    41590021
 004128 4770 9680      04140        5345        BC    NOTEQ,TWDRPT           NO-TWDRPT                           41600021
 00412C 4111 0007      00007        5346          LA    R1,DX7(R1)           SET R1 TO PASS SECTION              41610021
 004130 9101 C633      01C93        5347 TWDMRG   TM    NXTSW,XX01           IN A-MARGIN                         41620021
 004134 4710 9806      042C6        5348        BC    ONES,EXIT1             YES-EXIT1                           41630021
1PH1B     IKFCBL1B                                                                                              PAGE  125
-  LOC  OBJECT CODE    ADDR1 ADDR2  STMT   SOURCE STATEMENT                                       ASM 0201 11.03 02/14/15
0004138 45E0 DA64      01304        5349        BAL   JP,MSG86              -MSG86 'SHOULD BE IN A-MARGIN'       41640021
 00413C 47F0 9806      042C6        5350        BC    UNCOND,EXIT1           -EXIT1                              41650021
 004140 D501 C636 A4E7 01C96 029AF  5351 TWDRPT   CLC   NXTCOD(LX2),REPTCD   WORD IS 'REPORT' (SCT)              41660021
 004146 4770 9698      04158        5352        BC    NOTEQ,TWDAMG           NO-TWDAMG                           41670021
 00414A D202 C636 C4F5 01C96 01B55  5353          MVC   NXTCOD(LX3),REPCON        CHANGE CODE TO PLAIN'REPORT    41680021
 004150 5810 D8C4      01164        5354        L     R1,REGWRK                  RESTORE REG                     41690021
 004154 47F0 96CE      0418E        5355        BC    UNCOND,TWDBNT          -TWDBNT                             41700021
 004158 9101 C633      01C93        5356 TWDAMG   TM    NXTSW,XX01           IN A-MARGIN                         41710021
 00415C 4780 96B0      04170        5357        BC    ZERO,TWDM99            NO-TWDM99                           41720021
 004160 45E0 DA88      01328        5358        BAL   JP,MSG95              -MSG95 'WORD SECT OR DIV MISSING     41730021
 004164 5810 D8C4      01164        5359        L     R1,REGWRK                  RESTORE R1                      41740021
 004168 47F0 9800      042C0        5360        BC    UNCOND,EXIT                 -EXIT                          41750021
 00416C 9100 C638      01C98        5361 DVXTST   TM    NXTBCD,XX00               'EX' TEST OK FOR DIV           41760021
                                    5362 *                                                                       41770021
                                    5363 *****    INVALID WORD -WRONG DIVISION OR USE-    *****                  41780021
                                    5364 *                                                                       41790021
 004170 45E0 DA98      01338        5365 TWDM99 BAL   JP,MSG99              -MSG99 'WORD INVALID AS USED'        41800021
 004174 5810 D8C4      01164        5366        L     R1,REGWRK                  RESTORE REG                     41810021
 004178 1851                        5367        LR    R5,R1                       TO SCAN                        41820021
 00417A 47F0 F052      031D2        5368        BC    UNCOND,ULSC1                 NEXT WORD                     41830021
                                    5369 *                                                                       41840021
 00417E                             5370 TWDM98 DS    0H                                                         41850021
 00417E D201 C4FC C636 01B5C 01C96  5371          MVC   ERRCOD+NX1(LX2),NXTCOD     COBOL WORD CODE TO ERROR CE   41860021
 004184 D202 C636 C4FB 01C96 01B5B  5372          MVC   NXTCOD(LX3),ERRCOD        ERROR CODE TO NEXT CELL        41870021
 00418A 47F0 9800      042C0        5373        BC    UNCOND,EXIT                 -EXIT                          41880021
                                    5374 *                                                                       41890021
                                    5375 *****    TEST IF WORD IS IN A-MARGIN AND BELONGS THERE    *****         41900021
                                    5376 *                                                                       41910021
 00418E 9101 C633      01C93        5377 TWDBNT   TM    NXTSW,XX01                IN A-MARGIN                    41920021
 004192 4780 9800      042C0        5378        BC    ZERO,EXIT                   NO-EXIT                        41930021
 004196 9509 D2C6      00B66        5379          CLI   DIVNM,XX09           ARE WE IN PROC DIVISION             41940021
 00419A 4780 96E6      041A6        5380          BC    EQUAL,TWDBCD        YES - GO CHECK WORD                  41950021
 00419E 45E0 DA68      01308        5381 TWDM87 BAL   R14,MSG87                  -MSG87 (WORD ILLEGAL IN A-M     41960021
 0041A2 47F0 9800      042C0        5382        BC    UNCOND,EXIT                 -EXIT                          41970021
                                    5383 *        IN PROCEDURE DIVISION CHECK THE FOLLOWING                      41980021
 0041A6 9523 C636      01C96        5384 TWDBCD   CLI   NXTCOD,XX23               BCD-NAME                       41990021
 0041AA 4780 9800      042C0        5385        BC    EQ,EXIT                     YES-EXIT                       42000021
 0041AE D501 C636 C4FE 01C96 01B5E  5386          CLC   NXTCOD(LX2),EOSCON        EOS                            42010021
 0041B4 4780 9800      042C0        5387        BC    EQ,EXIT                     YES-EXIT                       42020021
 0041B8 D501 C636 A6AE 01C96 02B76  5388          CLC   NXTCOD(LX2),SCTCON        SECTION                        42030021
 0041BE 4780 9800      042C0        5389        BC    EQ,EXIT                     YES-EXIT                       42040021
                                    5390 *        IN DATA + PROCEDURE DIVISION CHECK THE FOLLOWING               42050021
 0041C2 9108 C633      01C93        5391 TWDNLT   TM    NXTSW,XX08                INTEGRAL-NUMERIC-LITERAL       42060021
 0041C6 4780 96DE      0419E        5392        BC    ZERO,TWDM87                 NO-TWDM87                      42070021
 0041CA 47F0 9800      042C0        5393        BC    UNCOND,EXIT                 YES-EXIT                       42080021
                                    5394 *                                                                       42090021
1PH1B     IKFCBL1B                                                                                              PAGE  126
-  LOC  OBJECT CODE    ADDR1 ADDR2  STMT   SOURCE STATEMENT                                       ASM 0201 11.03 02/14/15
0                                   5396 *                                                                       42110021
                                    5397 *****     QUALIFIED NAME ROUTINE     *****                              42120021
                                    5398 *                                                                       42130021
 0041CE D502 5000 C4ED 00000 01B4D  5399 QLRTNE   CLC   DX0(LX3,R5),OFKON          WORD IS 'OF'                  42140021
 0041D4 4780 9722      041E2        5400        BC    EQ,QLROFA                   YES-QLROFA                     42150021
 0041D8 D502 5000 C4EA 00000 01B4A  5401          CLC   DX0(LX3,R5),INKON          WORD IS 'IN'                  42160021
 0041DE 4770 9516      03FD6        5402        BC    NOTEQ,TSTCOB                NO-TSTCOB                      42170021
                                    5403 *        CHECK IF FIRST 'OF/IN' OR TWO 'OF/IN'S IN A ROW                42180021
 0041E2 9501 D290      00B30        5404 QLROFA   CLI   QLRTSW,XX01               IS 'OF/IN' EXPECTED            42190021
 0041E6 4780 9736      041F6        5405        BC    EQ,QLROFB                   YES-QLROFB  (NOT THE  FIRS     42200021
 0041EA 4720 97DC      0429C        5406        BC    HI,QLRERR                   TWO 'OF/IN' IN A ROW-QLRER     42210021
 0041EE 9188 C57D      01BDD        5407          TM    CURSW,XX88                CUR-WD BCD-NAME OR INT-NUM-    42220021
 0041F2 4780 97E6      042A6        5408        BC    ZERO,QLRCOD                 NO-QLRCOD                      42230021
 0041F6 9602 D290      00B30        5409 QLROFB   OI    QLRTSW,XX02               SET QLRTSW TO '3'              42240021
 0041FA 1851                        5410        LR    R5,R1                      SET PTR PAST WORD 'OF-IN'       42250021
 0041FC 47F0 F052      031D2        5411        BC    UNCOND,ULSC1                -ULSC1                         42260021
                                    5412 *        CHECK FOR BCD-NAME OR INT-NUM-LIT AND PUT IN QLTABL            42270021
 004200 9502 D290      00B30        5413 QLRWRD   CLI   QLRTSW,XX02               WAS LAST WORD 'OF/IN'          42280021
 004204 4740 97F8      042B8        5414        BC    LO,QLREND                   NO-QLREND                      42290021
 004208 4780 9758      04218        5415        BC    EQ,QLRWDA                   YES-QLRWDA  (FIRST ONE)        42300021
 00420C 9188 C633      01C93        5416          TM    NXTSW,XX88                NXT-WD BCD-NAME OR INT-NUM-    42310021
 004210 4780 97DC      0429C        5417        BC    ZERO,QLRERR                 NO-QLRERR                      42320021
 004214 47F0 9786      04246        5418        BC    UNCOND,QLRWDB               YES-QLRWDB                     42330021
 004218 9188 C633      01C93        5419 QLRWDA   TM    NXTSW,XX88                NXT-WD BCD-NAME OR INT-NUM-    42340021
 00421C 4780 97DC      0429C        5420        BC    ZERO,QLRERR                 NO-QLRERR                      42350021
 004220 92A2 C580      01BE0        5421          MVI   CURCOD,XXA2               CURCOD TO 'A2'                 42360021
 004224 5840 C6EC      01D4C        5422        L     R4,QLTCON                  ADDR OF TIB                     42370021
 004228 5844 0000      00000        5423          L     R4,DX0(R4)                ADDR OF TAMM                   42380021
 00422C D201 4004 C138 00004 01798  5424          MVC   DX4(LX2,R4),HWTWO          SET DISPLACEMENT TO '2'       42390021
 004232 5844 0000      00000        5425          L     R4,DX0(R4)                ADDR OF TABLE                  42400021
 004236 9235 4000      00000        5426          MVI   DX0(R4),XX35              SET UP                         42410021
 00423A 9200 4001      00001        5427          MVI   DX1(R4),XX00                3500                         42420021
 00423E 4140 C55E      01BBE        5428        LA    R4,CURCNT                  ADDR OF CURCNT                  42430021
 004242 45E0 97AA      0426A        5429        BAL   R14,QLTAME                 -QLTAME (ENTER CURWD+CNT)       42440021
 004246 4140 C614      01C74        5430 QLRWDB LA    R4,NXTCNT                  ADDR OF NXTCNT                  42450021
 00424A 9104 C633      01C93        5431 QLRWSK   TM    NXTSW,XX04                 BLANK FOLLOW END OF Q-NAME    42460021
 00424E 4780 9796      04256        5432          BC    ZERO,*+NX8                YES-*+8                        42470021
 004252 9604 C57D      01BDD        5433          OI    CURSW,XX04                 NO-MAKE IT NONBLANK           42480021
 004256 45E0 97AA      0426A        5434        BAL   R14,QLTAME                 -QLTAME (ENTER NXTWD+CNT)       42490021
 00425A 1851                        5435        LR    R5,R1                      SET PTR PAST WORD               42500021
 00425C 9201 D290      00B30        5436          MVI   QLRTSW,XX01               SET QLRTSW TO '1'              42510021
 004260 D21E C1FF C614 0185F 01C74  5437          MVC   FDSAVE(LX31),NXTCNT   SAVE FD NAME FOR QUAL WRITE        42520021
 004266 47F0 F052      031D2        5438        BC    UNCOND,ULSC1                -ULSC1                         42530021
                                    5439 *                                                                       42540021
 00426A 901F D658      00EF8        5440 QLTAME STM   R1,R15,SAVREG              SAVE REGS                       42550021
 00426E 1755                        5441        XR    R5,R5                      CLEAR REG                       42560021
 004270 4354 0000      00000        5442          IC    R5,DX0(R4)                GET 'N'                        42570021
 004274 4105 0001      00001        5443          LA    R0,DX1(R5)                ADJ BY ONE                     42580021
 004278 5810 C6EC      01D4C        5444        L     R1,QLTCON                  CALL                            42590021
 00427C 58F0 C6BC      01D1C        5445        L     R15,ADSERT                  INSERT                         42600021
 004280 05EF                        5446        BALR  R14,R15                      QLTABL                        42610021
 004282 58F0 D690      00F30        5447          L     R15,SAVREG+NX56           RESTORE REG 15                 42620021
 004286 4450 97D6      04296        5448        EX    R5,QLRMOV                  STORE 'WORD' IN QLTABL          42630021
 00428A 1A25                        5449        AR    R2,R5                      ADJ TABLE ADDR                  42640021
 00428C 4252 0000      00000        5450          STC   R5,DX0(R2)                PUT 'CNT' IN QLTABL            42650021
1PH1B     IKFCBL1B                                                                                              PAGE  127
-  LOC  OBJECT CODE    ADDR1 ADDR2  STMT   SOURCE STATEMENT                                       ASM 0201 11.03 02/14/15
0004290 981F D658      00EF8        5451        LM    R1,R15,SAVREG              RESTORE REGS                    42660021
 004294 07FE                        5452        BCR   UNCOND,R14                  -RETURN                        42670021
 004296 D200 2000 4001 00000 00001  5453 QLRMOV   MVC   DX0(LX0,R2),DX1(R4)        EX-MOVE                       42680021
                                    5454 *        EXIT ROUTINE TO END QUALIFIED NAME                             42690021
 00429C 0650                        5455 QLRERR   BCTR  R5,R0               POINTER TO START - 1                 42700021
 00429E 1815                        5456        LR    R1,R5                POINTER TO START - 1                  42710021
 0042A0 0650                        5457          BCTR  R5,R0               POINTER TO START - 2                 42720021
 0042A2 47F0 97E6      042A6        5458        BC    UNCOND,QLRC1D               -QLRC1D                        42730021
                             042A6  5459 QLRCOD EQU   *                                                          42740021
 0042A6 9200 D290      00B30        5460 QLRC1D   MVI   QLRTSW,XX00               RESET QLRTSW                   42750021
 0042AA D202 C636 A03E 01C96 02506  5461          MVC   NXTCOD(LX3),OFCON         CODE NXTCOD AS 'OF/IN' (NOT    42760021
 0042B0 9200 D290      00B30        5462          MVI   QLRTSW,XX00         RESET QLRTSW                         42770021
 0042B4 47F0 95A8      04068        5463        BC    UNCOND,CHKIDD              CK ID DECLARATIVES              42780021
 0042B8 9200 D290      00B30        5464 QLREND   MVI   QLRTSW,XX00         RESET QLRTSW                         42790021
 0042BC 47F0 98B2      04372        5465        BC    UNCOND,EXIT5D              GO SET A-MARGIN SWITCH          42800021
1PH1B     IKFCBL1B                                                                                              PAGE  128
-  LOC  OBJECT CODE    ADDR1 ADDR2  STMT   SOURCE STATEMENT                                       ASM 0201 11.03 02/14/15
0                                   5467 *                                                                       42820021
                                    5468 *   COMMON EXIT ROUTINE                                                 42830021
                                    5469 *                                                                       42840021
                                    5470 *        CALCULATE LENGTH AND MSG BCD-NAME                              42850021
 0042C0 1881                        5471 EXIT   LR    R8,R1                      ENDING ADDR                     42860021
 0042C2 47F0 980A      042CA        5472        BC    UNCOND,EXIT1A               -EXIT1A                        42870021
 0042C6 5880 D8C4      01164        5473 EXIT1  L     R8,REGWRK                  ENDING ADDR                     42880021
 0042CA 1B85                        5474 EXIT1A SR    R8,R5                      COMPUTE SIZE                    42890021
 0042CC 5980 C23C      0189C        5475        C     R8,K30                     OVER 30 CHARACTERS              42900021
 0042D0 47D0 9824      042E4        5476        BC    NOTHI,EXIT2                 NO-EXIT2                       42910021
 0042D4 9523 C636      01C96        5477          CLI   NXTCOD,XX23               BCD-NAME                       42920021
 0042D8 4770 9820      042E0        5478        BC    NOTEQ,EXIT1B                NO-EXIT1B                      42930021
 0042DC 45E0 DA60      01300        5479        BAL   R14,MSG85                  -MSG85                          42940021
 0042E0 5880 C23C      0189C        5480 EXIT1B L     R8,K30                     MAKE SIZE 30                    42950021
                                    5481 *        SET UP OF NXTCNT AND NXTWD                                     42960021
 0042E4 D71D C615 C615 01C75 01C75  5482 EXIT2    XC    NXTWD(LX30),NXTWD         CLEAR NXTWD                    42970021
 0042EA 4280 C614      01C74        5483        STC   R8,NXTCNT                  STORE SIZE                      42980021
 0042EE 0680                        5484        BCTR  R8,JR                       ADJ SIZE FOR 'EX'              42990021
 0042F0 4130 C615      01C75        5485        LA    R3,NXTWD                   ADDR OF NXTWD                   43000021
 0042F4 4480 98CE      0438E        5486        EX    R8,STUNIT                  STORE WORD                      43010021
                                    5487 *        ENTRY FROM ALPHAMERIC AND QUALIFIED WORD ROUTINES              43020021
                                    5488 *               CHECK POS AFTER UNIT, QUAL ROUTINE AND RESET SWITCH     43030021
 0042F8 D501 C636 AC1F 01C96 030E7  5489 EXIT5    CLC   NXTCOD(LX2),LPREN         LEFT PAREN                     43040021
 0042FE 4770 9862      04322        5490        BC    NOTEQ,EXIT5A                NO-EXIT5A                      43050021
 004302 9540 1000      00000        5491          CLI   DX0(R1),XX40              POSITION AFTER IS BLANK        43060021
 004306 4770 9894      04354        5492        BC    NOTEQ,EXIT5B                NO-EXIT5B                      43070021
 00430A 9560 1001      00001        5493          CLI   DX1(R1),XX60              MINUS SIGN AFTER BLANK         43080021
 00430E 4780 9894      04354        5494        BE    EXIT5B                     YES - NO MSG                    43090021
 004312 954E 1001      00001        5495          CLI   DX1(R1),XX4E              PLUS SIGN AFTER BLANK          43100021
 004316 4780 9894      04354        5496        BE    EXIT5B                     YES - NO MSG                    43110021
 00431A 45E0 D934      011D4        5497        BAL   R14,MSG10                  -MSG10                          43120021
 00431E 47F0 9894      04354        5498        BC    UNCOND,EXIT5B               -EXIT5B                        43130021
                                    5499 *                                                                       43140021
 004322 9540 1000      00000        5500 EXIT5A   CLI   DX0(R1),XX40              POSITION AFTER IS BLANK        43150021
 004326 4780 987A      0433A        5501        BC    EQ,EXIT51                   YES-EXIT51                     43160021
 00432A 9140 D281      00B21        5502          TM    UNARSW,XX40               UNARY SIGN ?                   43170021
 00432E 4770 9876      04336        5503          BC    NOTZER,*+NX8              YES - SKIP NXTSW SET           43180021
 004332 9604 C633      01C93        5504          OI    NXTSW,XX04                SET 'ON' NXTSW FOR NON-BLAN    43190021
 004336 94BF D281      00B21        5505          NI    UNARSW,XXBF               SET UNARY SW OFF               43200021
                                    5506 *                                                                       43210021
 00433A D501 C636 AC22 01C96 030EA  5507 EXIT51   CLC   NXTCOD(LX2),RPREN         RIGHT PATEN                    43220021
 004340 4770 9894      04354        5508        BC    NOTEQ,EXIT5B                NO-EXIT5B                      43230021
 004344 9104 C57D      01BDD        5509          TM    CURSW,XX04                POSITION BEFORE IS BLANK       43240021
 004348 4710 98A0      04360        5510        BC    ONES,EXIT5C                 NO-EXIT5C                      43250021
 00434C 45E0 D92C      011CC        5511        BAL   R14,MSG8                   -MSG8                           43260021
 004350 47F0 98A0      04360        5512        BC    UNCOND,EXIT5C               -EXIT5C                        43270021
                                    5513 *                                                                       43280021
 004354 9104 C57D      01BDD        5514 EXIT5B   TM    CURSW,XX04                POSITION BEFORE IS BLANK       43290021
 004358 4780 98A0      04360        5515        BC    ZERO,EXIT5C                 YES-EXIT5C                     43300021
 00435C 45E0 D928      011C8        5516        BAL   R14,MSG7                   -MSG7                           43310021
                                    5517 *                                                                       43320021
 004360 D201 D293 C134 00B33 01794  5518 EXIT5C   MVC   SIGNSW(LX2),HWZERO        RESET SIGN + DEC SWITCHES      43330021
 004366 94BF D281      00B21        5519          NI    UNARSW,XXBF                                              43340021
 00436A 9103 D290      00B30        5520          TM    QLRTSW,XX03               IN QUAL-NAME ROUTINE           43350021
 00436E 4770 9740      04200        5521        BC    NOTZER,QLRWRD               YES-QLRWRD                     43360021
1PH1B     IKFCBL1B                                                                                              PAGE  129
-  LOC  OBJECT CODE    ADDR1 ADDR2  STMT   SOURCE STATEMENT                                       ASM 0201 11.03 02/14/15
0004372 9400 D291      00B31        5522 EXIT5D   NI    AMARSW,XX00               RESET AMARSW                   43370021
 004376 1851                        5523        LR    R5,R1                      SET PTR TO POSITION AFTER U     43380021
                                    5524 *                                                                       43390021
                                    5525 *                                                                       43400021
                             04378  5526 ULSOUT EQU   *                                                          43410021
 004378 9110 D285      00B25        5527          TM    GTRTSW,XX10               SHOULD GETCD GET CONTROL       43420021
 00437C 4780 B014      01F7C        5528        BC    ZERO,WRDEXT                NO - EXIT                       43430021
 004380 901F C06C      016CC        5529        STM   R1,R15,GTWDSV              SAVE GETWD REGS                 43440021
 004384 981F C0A8      01708        5530        LM    R1,R15,GTCDSV              YES - RESTORE GETCD REGS        43450021
 004388 94EF D285      00B25        5531          NI    GTRTSW,XXEF               SET SW OFF                     43460021
 00438C 07FE                        5532        BR    JP                         GET CARD RTN                    43470021
                                    5533 *                                                                       43480021
 00438E D200 3000 5000 00000 00000  5534 STUNIT   MVC   DX0(LX0,R3),DX0(R5)                                      43490021
                                    5535 *                                                                       43500021
1PH1B     IKFCBL1B                                                                                              PAGE  130
-  LOC  OBJECT CODE    ADDR1 ADDR2  STMT   SOURCE STATEMENT                                       ASM 0201 11.03 02/14/15
0004398                             5537 IKF107 CSECT                                                            43520021
                                    5538 *=1    PROCEDURE DIVISION SCAN                                          43530021
                             04398  5539        USING PDSCN,JQ                                                   43540021
                             05300  5540        USING EXHSVB,JJ                                                  43550021
                                    5541 *                                                                       43560021
                                    5542 *****************************************                               43570021
                                    5543 *****    PROCEDURE DIVISION SCAN    *****                               43580021
                                    5544 *****************************************                               43590021
 004398 9202 D2C4      00B64        5545 PDSCN    MVI   DIVCOD,XX02               SET DIVCOD TO '02'             43600021
 00439C D702 D296 D296 00B36 00B36  5546          XC    TEMPSW(LX3),TEMPSW                                       43610021
 0043A2 45E0 B4F4      0245C        5547        BAL   JP,GENA                    -GENA                           43620021
 0043A6 D201 D60A C57E 00EAA 01BDE  5548          MVC   CRDGCN+NX1(LX2),CURGCN     GCN                           43630021
 0043AC 4160 D609      00EA9        5549        LA    JF,CRDGCN                  ADDR OF CARD NUMBER TEXT        43640021
 0043B0 45E0 B4F8      02460        5550        BAL   JP,GENB                    -GENB                           43650021
 0043B4 45E0 9BCC      05ECC        5551        BAL   JP,DUMGEN                  -DUMGEN                         43660021
 0043B8 D501 C636 C4FE 01C96 01B5E  5552 PDEOS    CLC   NXTCOD(LX2),EOSCON       IS IT EOS                       43670021
 0043BE 4770 F04E      043E6        5553        BNE   PDUSIN                    NO                               43680021
 0043C2 45E0 B03A      01FA2        5554        BAL   JP,CHKDIV                  CK DIV NAME RTN                 43690021
 0043C6 47F0 F0E4      0447C        5555        B     PDDCL                      MOVE PROC NAME CONSTANT FOR PD  43700021
 0043CA 5810 C6B0      01D10        5556 PDENT2 L     JA,COSADR                 WRITE                            43710021
 0043CE 0501                        5557        BALR  JR,JA                           P1 TEXT                    43720021
 0043D0 12                          5558        DC    X'12'                                ON FILE 2             43730021
 0043D1 00
 0043D2 07FE                        5559        BR    JP                         RETURN                          43740021
 0043D4 5810 C6B0      01D10        5560 PDENT4 L     JA,COSADR                 WRITE                            43750021
 0043D8 9101 11C6      001C6        5561          TM    PHZSW3,VERBR             LISTING A-TEXT OPTION           43760021
 0043DC 47EE 0000      00000        5562          BNO   DX0(JP)                  NO - RETURN                     43770021
 0043E0 0501                        5563        BALR  JR,JA                                A TEXT                43780021
 0043E2 12                          5564          DC    X'12'               ON FILE 2                            43790021
 0043E3 00
 0043E4 07FE                        5565        BR    JP                         RETURN                          43800021
 0043E6 D21E D2C6 C55E 00B66 01BBE  5566 PDUSIN   MVC   DIVNM(LX31),CURCNT       MOVE PROCEDURE TO DVIISION N    43810021
 0043EC 45E0 B000      01F68        5567        BAL   JP,GETWD                   GET NEXT WORD                   43820021
 0043F0 D501 C580 A3D4 01BE0 0289C  5568          CLC   CURCOD(LX2),USICON       IS IT USING                     43830021
 0043F6 4770 F0E4      0447C        5569        BNE   PDDCL                     NO                               43840021
 0043FA 4120 D7E6      01086        5570        LA    JB,GENENT                                                  43850021
 0043FE D201 D7E7 C57E 01087 01BDE  5571          MVC   ENTCDN(LX2),CURGCN       EN OUT CARDNO                   43860021
 004404 9680 D7E7      01087        5572          OI    ENTCDN,XX80                                              43870021
 004408 5810 C6B0      01D10        5573        L     R1,COSADR                      ENTRY VERB CODE             43880021
 00440C D207 D7ED 1150 0108D 00150  5574          MVC   ENTLIT(LX8),PROGID                 PROGRAM-ID            43890021
 004412 4130 000F      0000F        5575          LA    JC,DX15                                                  43900021
 004416 45E0 F032      043CA        5576        BAL   JP,PDENT2                  WRITE ON FILE 2  RTN            43910021
 00441A 4130 0007      00007        5577          LA    JC,DX7                   LENGTH OF LISTING A-TEXT        43920021
 00441E 4120 D7FC      0109C        5578          LA    JB,F4ENTCD               ADDR OF ENTRY A-TEXT            43930021
 004422 45E0 F03C      043D4        5579        BAL   JP,PDENT4                  WRITE ON FILE 4  RTN            43940021
 004426 9604 D281      00B21        5580          OI    SRTSW,XX04                                               43950021
 00442A 45E0 96BE      059BE        5581 PDUSI2 BAL   JP,CHKOUT                 CK IF QUAL-BCD-NAME              43960021
 00442E D501 C580 C4FE 01BE0 01B5E  5582          CLC   CURCOD(LX2),EOSCON       EOS                             43970021
 004434 4770 F092      0442A        5583        BNE   PDUSI2                    NO                               43980021
 004438 45E0 96BE      059BE        5584        BAL   JP,CHKOUT                  CK IF QUAL-BCD-NAME             43990021
 00443C 94FB D281      00B21        5585          NI    SRTSW,XXFB                                               44000021
 004440 D501 C580 A9EB 01BE0 02EB3  5586          CLC   CURCOD(LX2),DECLCD       IS IT DECLARATIVES              44010021
 004446 4770 F0E4      0447C        5587        BNE   PDDCL                     NO                               44020021
 00444A 4120 D7E6      01086        5588        LA    JB,GENENT                 GEN OUT                          44030021
 00444E 4130 0003      00003        5589          LA    JC,DX3                         CARD                      44040021
1PH1B     IKFCBL1B                                                                                              PAGE  131
-  LOC  OBJECT CODE    ADDR1 ADDR2  STMT   SOURCE STATEMENT                                       ASM 0201 11.03 02/14/15
0004452 45E0 F032      043CA        5590        BAL   JP,PDENT2                  WRITE ON FILE 2  RTN            44050021
 004456 45E0 B50C      02474        5591        BAL   JP,GNGN                   BUMP GNCTR                       44060021
 00445A D201 D7FA C7CC 0109A 01E2C  5592          MVC   GOPN(LX2),GPTID1         MOVE GN NUM                     44070021
 004460 4120 D7F5      01095        5593        LA    JB,GENGO                                                   44080021
 004464 4130 0007      00007        5594          LA    JC,DX7                   EN OUT GO TO GN                 44090021
 004468 45E0 F032      043CA        5595        BAL   JP,PDENT2                  WRITE ON FILE 2  RTN            44100021
 00446C 4130 0004      00004        5596          LA    JC,DX4                   GEN OUT GO A-TEXT               44110021
 004470 4120 D803      010A3        5597          LA    JB,F4GOCD                ADDR OF ENTRY A-TEXT            44120021
 004474 45E0 F03C      043D4        5598        BAL   JP,PDENT4                  WRITE ON FILE 4  RTN            44130021
 004478 9620 D281      00B21        5599          OI    ENTSW,XX20               TURN ON ENTRY VERB SW           44140021
 00447C D202 A836 C4F8 02CFE 01B58  5600 PDDCL    MVC   PROCCD(LX3),PROCON        CWT FOR PROCEDURE              44150021
 004482 9542 C580      01BE0        5601          CLI   CURCOD,XX42               CRITICAL PROG BREAK            44160021
 004486 4770 F6C2      04A5A        5602        BC    NOTEQ,DELIM                 NO-DELIM                       44170021
 00448A 9507 C581      01BE1        5603          CLI   CURN,XX07                 DECLARATIVES                   44180021
 00448E 4780 F11C      044B4        5604        BC    EQ,CHKDCL                   -CHKDCL                        44190021
 004492 47F0 F6C2      04A5A        5605        BC    UNCOND,DELIM                -DELIM                         44200021
                                    5606 *                                                                       44210021
                                    5607 *****     TEST FOR MAJOR=0 AND VERB 'ON'     *****                      44220021
                                    5608 *                                                                       44230021
 004496 9130 C580      01BE0        5609 MAJTST   TM    CURCOD,XX30               MAJOR IS '0'                   44240021
 00449A 078E                        5610        BCR   ZERO,JP                     YES-RETURN-JP                  44250021
 00449C D501 C580 A043 01BE0 0250B  5611          CLC   CURCOD(LX2),ONCON         IS WORD =ON'                   44260021
 0044A2 477E 0004      00004        5612          BC    NOTEQ,DX4(JP)              NO-RETURN + 4                 44270021
 0044A6 9532 C636      01C96        5613          CLI   NXTCOD,XX32               FOLLOWED BY NUM LIT            44280021
 0044AA 477E 0004      00004        5614          BC    NOTEQ,DX4(JP)              NO-RETURN + 4                 44290021
 0044AE 9244 C580      01BE0        5615          MVI   CURCOD,XX44               MAKE WORD VERB 'ON'            44300021
 0044B2 07FE                        5616        BCR   UNCOND,JP                   -RETURN JP                     44310021
1PH1B     IKFCBL1B                                                                                              PAGE  132
-  LOC  OBJECT CODE    ADDR1 ADDR2  STMT   SOURCE STATEMENT                                       ASM 0201 11.03 02/14/15
0                                   5618 *                                                                       44330021
                                    5619 *****    CHECK DECLARATIVES    *****                                    44340021
                                    5620 *                                                                       44350021
 0044B4 45E0 B4F4      0245C        5621 CHKDCL BAL   JP,GENA                    -GENA  PUT OUT DECLARATIVES     44360021
 0044B8 45E0 B0F0      02058        5622        BAL   JP,CHKEOS                  -CHKEOS                         44370021
 0044BC 9610 D58F      00E2F        5623          OI    LCCHAR+NX1,XX10           SET D TO 1  (IN DECL)          44380021
 0044C0 9602 C83D      01E9D        5624          OI    DECSEG,XX02               TURN ON IF IN DECL.            44390021
 0044C4 9680 D279      00B19        5625          OI    IOSW,XX80                 USE SHOULD FOLLOW SW           44400021
 0044C8 47F0 F6C2      04A5A        5626        BC    UNCOND,DELIM                -DELIM                         44410021
                                    5627 *                                                                       44420021
                                    5628 *****    DECLARATIVES SCAN    *****                                     44430021
                                    5629 *                                                                       44440021
                                    5630 *        SN - CHECK FOR USE                                             44450021
 0044CC 9200 D592      00E32        5631 DCLSN    MVI   LCRPD,XX00                SET RPD-NUM TO '0'             44460021
 0044D0 D501 C580 A12A 01BE0 025F2  5632          CLC   CURCOD(LX2),USECON        USE                            44470021
 0044D6 4770 F15C      044F4        5633        BC    NOTEQ,DCLMSG                NO-DCLMSG                      44480021
 0044DA 47F0 F184      0451C        5634        BC    UNCOND,USEGEN               YES-USEGEN                     44490021
                                    5635 *        PN - CHECK FOR USE                                             44500021
 0044DE D501 C580 A12A 01BE0 025F2  5636 DCLPN    CLC   CURCOD(LX2),USECON        USE                            44510021
 0044E4 4770 F164      044FC        5637        BC    NOTEQ,DCLOUT                NO-DCLOUT                      44520021
 0044E8 9640 D58E      00E2E        5638          OI    LCCHAR,XX40               MAKE PN INTO SN  (T-1)         44530021
 0044EC 9200 D592      00E32        5639          MVI   LCRPD,XX00                SET RPD-NUM TO '0'             44540021
 0044F0 47F0 F180      04518        5640        BC    UNCOND,USEMSG               -USEMSG                        44550021
                                    5641 *        EXIT FROM DECLARATIVES SCAN - NO-USE                           44560021
 0044F4 45E0 D924      011C4        5642 DCLMSG BAL   JP,MSG6                    -MSG6                           44570021
 0044F8 947F D279      00B19        5643          NI    IOSW,XX7F                 SET OFF 1ST USE ERR SW         44580021
 0044FC 9180 D279      00B19        5644 DCLOUT   TM    IOSW,XX80                 USE S/B IN DECLARATIVES        44590021
 004500 4710 F15C      044F4        5645        BO    DCLMSG                     YES - MSG                       44600021
 004504 45E0 9896      05B96        5646        BAL   JP,DICENT                  -DICENT                         44610021
 004508 47F0 F6C2      04A5A        5647        BC    UNCOND,DELIM                -DELIM                         44620021
                                    5648 *                                                                       44630021
                                    5649 *****     USE VERB     *****                                            44640021
                                    5650 *                                                                       44650021
 00450C 9608 D280      00B20        5651 USESVB   OI    DUMUSE,XX08               SET ON DUMUSE                  44660021
 004510 45E0 9BCC      05ECC        5652        BAL   JP,DUMGEN                  -DUMGEN                         44670021
 004514 94F7 D280      00B20        5653          NI    DUMUSE,XXF7               SET OFF DUMUSE                 44680021
 004518 45E0 D988      01228        5654 USEMSG BAL   JP,MSG31                   -MSG31                          44690021
 00451C 45E0 982E      05B2E        5655 USEGEN BAL   JP,GENSEQ                  -GENSEQ                         44700021
 004520 947F D279      00B19        5656          NI    IOSW,XX7F                                                44710021
 004524 45E0 B4F4      0245C        5657        BAL   JP,GENA                    -GENA  'USE'                    44720021
 004528 94F0 D58F      00E2F        5658          NI    LCCHAR+NX1,XXF0           RESET 'USE' CHAR BITS          44730021
 00452C 94FB D27A      00B1A        5659          NI    PRDSW,XXFB                SET PRDSW 'OFF'                44740021
 004530 D700 D807 D807 010A7 010A7  5660          XC    USEFL1(LX1),USEFL1                                       44750021
 004536 45E0 B000      01F68        5661        BAL   JP,GETWD                   -GETWD                          44760021
 00453A 9554 C580      01BE0        5662          CLI   CURCOD,XX54               COBOL WORD                     44770021
 00453E 4770 F660      049F8        5663        BC    NOTEQ,USERRA                NO-USERRA                      44780021
 004542 9569 C581      01BE1        5664          CLI   CURN,XX69                 BEFORE                         44790021
 004546 4770 F1BA      04552        5665        BNE   USEFR                      NO - COMP TO - FOR              44800021
 00454A 9610 D807      010A7        5666        OI    USEFL1,USEBF               TURN ON BEFORE BIT              44810021
 00454E 47F0 F1CE      04566        5667        B     USAENT                     GO TO PUT ON FILE 2             44820021
 004552 95A3 C581      01BE1        5668 USEFR    CLI   CURN,XXA3                 FOR                            44830021
 004556 4780 F1CE      04566        5669        BC    EQ,USAENT                   YES-USAENT                     44840021
 00455A 9572 C581      01BE1        5670          CLI   CURN,XX72                 AFTER                          44850021
 00455E 4770 F1DE      04576        5671        BC    NOTEQ,USBENT                NO-USBENT                      44860021
 004562 9620 D807      010A7        5672        OI    USEFL1,USEAF              TURN AFTER BIT ON                44870021
1PH1B     IKFCBL1B                                                                                              PAGE  133
-  LOC  OBJECT CODE    ADDR1 ADDR2  STMT   SOURCE STATEMENT                                       ASM 0201 11.03 02/14/15
0004566 45E0 B4F4      0245C        5673 USAENT BAL   JP,GENA                    -GENA                           44880021
 00456A 45E0 B000      01F68        5674        BAL   JP,GETWD                   -GETWD                          44890021
 00456E 9554 C580      01BE0        5675          CLI   CURCOD,XX54               COBOL WORD                     44900021
 004572 4770 F660      049F8        5676        BC    NOTEQ,USERRA                NO-USERRA                      44910021
 004576 956A C581      01BE1        5677 USBENT   CLI   CURN,XX6A                 REPORTING                      44920021
 00457A 4780 F5EC      04984        5678        BC    EQ,USFENT                   YES-USFENT                     44930021
                                    5679 *       CLI  CURN,X'67'                RANDOM                           44940021
                                    5680 *       BE   USGENT                    YES                              44950021
 00457E 95D5 C581      01BE1        5681          CLI   CURN,XXD5                 STANDARD                       44960021
 004582 4770 F206      0459E        5682        BC    NOTEQ,USDENT                NO-USDENT                      44970021
 004586 9130 D807      010A7        5683        TM    USEFL1,USEBF+USEAF        BEFORE OR AFTER SPECIFIED        44980021
 00458A 4780 F660      049F8        5684        BZ    USERRA                    NOO                              44990021
 00458E 45E0 B4F4      0245C        5685 USCENT BAL   JP,GENA                    -GENA                           45000021
 004592 45E0 B000      01F68        5686        BAL   JP,GETWD                   -GETWD                          45010021
 004596 9554 C580      01BE0        5687          CLI   CURCOD,XX54               COBOL WORD                     45020021
 00459A 4770 F660      049F8        5688        BC    NOTEQ,USERRA                NO-USERRA                      45030021
 00459E 9584 C581      01BE1        5689 USDENT   CLI   CURN,XX84                 ERROR                          45040021
 0045A2 4780 F4F4      0488C        5690        BC    EQ,USHENT                   YES-USHENT                     45050021
 0045A6 9561 C581      01BE1        5691          CLI   CURN,XX61                 BEGINNING                      45060021
 0045AA 4780 F23A      045D2        5692        BC    EQ,USJENT                   YES-USJENT                     45070021
 0045AE 9562 C581      01BE1        5693          CLI   CURN,XX62                 ENDING                         45080021
 0045B2 4770 F24A      045E2        5694        BC    NOTEQ,USJNT2                NO-USJNT2                      45090021
 0045B6 9601 D807      010A7        5695        OI    USEFL1,USEEN               ENDING BIT ON                   45100021
 0045BA 47F0 F23E      045D6        5696        B     USJNT1                     PUT ON FILE 2                   45110021
 0045BE 9101 C57D      01BDD        5697 USEENT   TM    CURSW,XX01                IN A-MARGIN                    45120021
 0045C2 4710 F660      049F8        5698        BC    ONES,USERRA                 YES-USERRA                     45130021
 0045C6 45E0 F0FE      04496        5699        BAL   JP,MAJTST                  IS MAJOR-0                      45140021
 0045CA 47F0 F660      049F8        5700        BC    UNCOND,USERRA               YES-USERRA                     45150021
 0045CE 47F0 F23E      045D6        5701        BC    UNCOND,USJNT1               NO-USJNT1                      45160021
 0045D2 9602 D807      010A7        5702 USJENT OI    USEFL1,USEBG               BEGINNING  BIT ON               45170021
 0045D6 45E0 B4F4      0245C        5703 USJNT1 BAL   JP,GENA                    -GENA                           45180021
 0045DA 45E0 B136      0209E        5704        BAL   JP,CHKON                   -CHKON                          45190021
 0045DE 45E0 B000      01F68        5705        BAL   JP,GETWD                   -GETWD                          45200021
                             045E2  5706 USJNT2 EQU   *                                                          45210021
 0045E2 9554 C580      01BE0        5707 USJNT3   CLI   CURCOD,XX54               COBOL WORD                     45220021
 0045E6 4770 F226      045BE        5708        BC    NOTEQ,USEENT                NO-USEENT                      45230021
 0045EA 953C C581      01BE1        5709          CLI   CURN,XX3C                 FILE                           45240021
 0045EE 4770 F262      045FA        5710        BNE   USERLU                     NO                              45250021
 0045F2 9604 D807      010A7        5711        OI    USEFL1,USEFL               TURN ON FILE BIT                45260021
 0045F6 47F0 F23E      045D6        5712        B     USJNT1                     PUT ON FILE 2                   45270021
 0045FA 9517 C581      01BE1        5713 USERLU   CLI   CURN,XX17                 REEL                           45280021
 0045FE 4780 F272      0460A        5714        BE    USERL                      YES                             45290021
 004602 95A2 C581      01BE1        5715          CLI   CURN,XXA2                 UNIT                           45300021
 004606 4770 F27A      04612        5716        BNE   USJNT4                     NO                              45310021
 00460A 9608 D807      010A7        5717 USERL  OI    USEFL1,USERU               TURN ON REEL/UNIT BIT           45320021
 00460E 47F0 F23E      045D6        5718        B     USJNT1                     PUT ON FILE 2                   45330021
 004612 95D1 C581      01BE1        5719 USJNT4   CLI   CURN,XXD1                 LABEL                          45340021
 004616 4770 F660      049F8        5720        BNE   USERRA                     NO                              45350021
 00461A 45E0 B4F4      0245C        5721        BAL   JP,GENA                    PUT CODE ON FILE TWO            45360021
 00461E 45E0 B000      01F68        5722        BAL   JP,GETWD                   GET NEXT WORD                   45370021
 004622 9599 C581      01BE1        5723          CLI   CURN,XX99                 PROCEDURE                      45380021
 004626 4770 F660      049F8        5724        BNE   USERRA                     NO                              45390021
 00462A 45E0 B4F4      0245C        5725        BAL   JP,GENA                    PUT ON FILE TWO                 45400021
 00462E 45E0 B136      0209E        5726        BAL   JP,CHKON                   CHKON                           45410021
 004632 45E0 B000      01F68        5727        BAL   JP,GETWD                   GET NEXT WORD                   45420021
1PH1B     IKFCBL1B                                                                                              PAGE  134
-  LOC  OBJECT CODE    ADDR1 ADDR2  STMT   SOURCE STATEMENT                                       ASM 0201 11.03 02/14/15
0004636 9523 C580      01BE0        5728          CLI   CURCOD,XX23               BCD FILE NAME                  45430021
 00463A 4780 F356      046EE        5729        BE    USEFLG                    YES                              45440021
 00463E 9554 C580      01BE0        5730          CLI   CURCOD,XX54               COBOL WORD                     45450021
 004642 4770 F660      049F8        5731        BNE   USERRA                     NO                              45460021
 004646 9564 C581      01BE1        5732          CLI   CURN,XX64                 OUTPUT                         45470021
 00464A 4780 F2F2      0468A        5733        BE    USEOUT                     YES                             45480021
 00464E 9566 C581      01BE1        5734          CLI   CURN,XX66                 INPUT                          45490021
 004652 4780 F32A      046C2        5735        BE    USEINP                     YES                             45500021
 004656 956B C581      01BE1        5736          CLI   CURN,XX6B                 I-O                            45510021
 00465A 4770 F660      049F8        5737        BNE   USERRA                     NO                              45520021
 00465E 9110 D807      010A7        5738        TM    USEFL1,USEBF               YES  IS IT BEFORE               45530021
 004662 4710 F2E0      04678        5739        BO    USIOBF                     YES                             45540021
 004666 D507 D818 D84C 010B8 010EC  5740          CLC   IOGNBF(LX8),FRHWZ         NO ANY BEFOR GN'S IN I-O TB    45550021
 00466C 4770 F674      04A0C        5741        BNE   ERRMX                      YES                             45560021
 004670 4180 D830      010D0        5742        LA    JH,IOGNAF                  ADDR OF GN TBL FOR I-O AFTE     45570021
 004674 47F0 F3BC      04754        5743        B     SETGN                      MOVE GN OR GN'S                 45580021
 004678 D507 D830 D84C 010D0 010EC  5744 USIOBF   CLC   IOGNAF(LX8),FRHWZ         ANY AFTER GN'S IN I-O TBL      45590021
 00467E 4770 F674      04A0C        5745        BNE   ERRMX                      YES                             45600021
 004682 4180 D818      010B8        5746        LA    JH,IOGNBF                  ADDR OF GN TBL FOR I-O BEFO     45610021
 004686 47F0 F3BC      04754        5747        B     SETGN                      MOVE GN OR GN'S                 45620021
 00468A 9110 D807      010A7        5748 USEOUT TM    USEFL1,USEBF               IS IT BEFORE                    45630021
 00468E 4710 F30C      046A4        5749        BO    USOUBF                     YES                             45640021
 004692 D507 D810 D84C 010B0 010EC  5750          CLC   OUGNBF(LX8),FRHWZ         AFTER ANY BEF GN'S IN OUTPU    45650021
 004698 4770 F674      04A0C        5751        BNE   ERRMX                      YES                             45660021
 00469C 4180 D828      010C8        5752        LA    JH,OUGNAF                  ADDR OF GN TBL FOR OUTPUT A     45670021
 0046A0 47F0 F3BC      04754        5753        B     SETGN                      MOVE GN OR GNS                  45680021
 0046A4 9180 D281      00B21        5754 USOUBF   TM    TOTUSD,XX80              WAS TOTALED SPEC'D IN PROGRA    45690021
 0046A8 4780 F318      046B0        5755        BZ    USOUB1                    NO                               45700021
 0046AC 45E0 D978      01218        5756        BAL   JP,MSG27                   MSG  INVALID OPEN               45710021
 0046B0 D507 D828 D84C 010C8 010EC  5757 USOUB1   CLC   OUGNAF(LX8),FRHWZ        ANY AFTER GN'S IN OUTPUT TBL    45720021
 0046B6 4770 F674      04A0C        5758        BNE   ERRMX                      YES                             45730021
 0046BA 4180 D810      010B0        5759        LA    JH,OUGNBF                  ADDR OF GN TBL FOR OUTPUT B     45740021
 0046BE 47F0 F3BC      04754        5760        B     SETGN                      MOVE GN OR GN'S                 45750021
 0046C2 9110 D807      010A7        5761 USEINP TM    USEFL1,USEBF               IS IT BEFORE                    45760021
 0046C6 4710 F344      046DC        5762        BO    USINBF                     YES                             45770021
 0046CA D507 D808 D84C 010A8 010EC  5763          CLC   INGNBF(LX8),FRHWZ         ANY BEF GN'S IN INPUT TBL      45780021
 0046D0 4770 F674      04A0C        5764        BNE   ERRMX                      YES                             45790021
 0046D4 4180 D820      010C0        5765        LA    JH,INGNAF                  ADDR OF GN TBL FOR INPUT AF     45800021
 0046D8 47F0 F3BC      04754        5766        B     SETGN                      MOVE GN OR GN'S                 45810021
 0046DC D507 D820 D84C 010C0 010EC  5767 USINBF   CLC   INGNAF(LX8),FRHWZ         ANY AFTER GN'S IN INPUT TBL    45820021
 0046E2 4770 F674      04A0C        5768        BNE   ERRMX                      YES                             45830021
 0046E6 4180 D808      010A8        5769        LA    JH,INGNBF                  ADDR OF GN TBL FOR INPUT BE     45840021
 0046EA 47F0 F3BC      04754        5770        B     SETGN                      MOVE GN OR GN'S                 45850021
 0046EE 4170 C581      01BE1        5771 USEFLG LA    JG,CURN                                                    45860021
 0046F2 45E0 B3F4      0235C        5772        BAL   JP,SCHFNT                  SEARCH FNTBL                    45870021
 0046F6 9140 D279      00B19        5773          TM    SCHSW,XX40                FOUND                          45880021
 0046FA 4780 F472      0480A        5774        BZ    USKKNT                    NO                               45890021
 0046FE 9130 2010      00010        5775        TM    FNFL1(JB),FNLRS+FNLRO      ARE LABELS OMITTED OR STAND     45900021
 004702 4740 F680      04A18        5776        BM    ERRUSF                     YES                             45910021
 004706 9110 D807      010A7        5777        TM    USEFL1,USEBF               IS IT BEFORE                    45920021
 00470A 4710 F3AC      04744        5778        BO    USFLBF                     YES - CK AFTER BIT              45930021
 00470E 9108 2010      00010        5779        TM    FNFL1(JB),FNBEF                                            45940021
 004712 4710 F674      04A0C        5780        BO    ERRMX                      ERR  MSG 143                    45950021
 004716 9604 2010      00010        5781        OI    FNFL1(JB),FNAFT            TURN ON AFTER BIT IN FNTBL      45960021
 00471A 4182 0008      00008        5782 USFLST LA    JH,FNGNHL(JB)              ADDR OF GN TBL IN FNTBL         45970021
1PH1B     IKFCBL1B                                                                                              PAGE  135
-  LOC  OBJECT CODE    ADDR1 ADDR2  STMT   SOURCE STATEMENT                                       ASM 0201 11.03 02/14/15
000471E 4832 0000      00000        5783        LH    JC,FNPIOT(JB)              PIO POINTER                     45980021
 004722 45E0 F6B0      04A48        5784        BAL   JP,SETPIO                  GET PIO ENTRY                   45990021
 004726 9610 5002      00002        5785        OI    PIOFL3(JE),PIOUSF         TURN ON USE ON FILENAME BIT      46000021
 00472A 9110 D807      010A7        5786          TM    USEFL1,USEBF        BEFORE ?                             46010021
 00472E 4780 F39E      04736        5787          BZ    *+8                   NO                                 46020021
 004732 9680 5002      00002        5788          OI    PIOFL3(JE),PIONST   YES, SET ON IN PIOTBL                46030021
                                    5789 ***********          *************                                      46040021
 004736 D201 C264 D7C6 018C4 01066  5790          MVC   TOTPTR(LX2),SCHPTR+NX2    STORE DISP                     46050021
 00473C 9680 D807      010A7        5791        OI    USEFL1,USETOT             CHECK FOR TOTALED AREA           46060021
 004740 47F0 F3BC      04754        5792 USFLS1 B     SETGN                      MOVE GN OR GN'S                 46070021
 004744 9104 2010      00010        5793 USFLBF TM    FNFL1(JB),FNAFT           IS AFTER BIT ON IN FNTBL         46080021
 004748 4710 F674      04A0C        5794        BO    ERRMX                      YES                             46090021
 00474C 9608 2010      00010        5795        OI    FNFL1(JB),FNBEF            TURN ON BEFORE BIT IN FNTBL     46100021
 004750 47F0 F382      0471A        5796        B     USFLST                     GET  GN  FROM  FNTBL            46110021
                                    5797 *                                                                       46120021
                                    5798 *    JH POINTS TO GNTBL FOR OPEN OPTION BEFORE OR OPEN OPTION AFTER     46130021
                                    5799 *    IF FILENAME IS SPECIFIED JH POINTS TO FNTBL ENTRY.                 46140021
                                    5800 *                                                                       46150021
 004754 41E0 F472      0480A        5801 SETGN  LA    JP,USKKNT                                                  46160021
 004758 9102 D807      010A7        5802        TM    USEFL1,USEBG               BEGINNING                       46170021
 00475C 4780 F3FC      04794        5803        BZ    ENCHK                      NO                              46180021
 004760 9104 D807      010A7        5804        TM    USEFL1,USEFL               FILE                            46190021
 004764 4780 F3E2      0477A        5805        BZ    BGRLU                      NO                              46200021
 004768 D501 8000 D84C 00000 010EC  5806 BGRLF1   CLC   DX0(LX2,JH),FRHWZ          IS BOF IN TBL 0               46210021
 00476E 4770 F66C      04A04        5807        BNE   ERRUA                      NO                              46220021
 004772 D201 8000 D590 00000 00E30  5808 BGRLF    MVC   DX0(LX2,JH),LCNUM          YES MOVE BOF                  46230021
 004778 07FE                        5809        BR    JP                         GO TO CK FIRST FILE RTN         46240021
 00477A D501 8006 D84C 00006 010EC  5810 BGRLU    CLC   DX6(LX2,JH),FRHWZ          IS BOV IN TBL 0               46250021
 004780 4770 F66C      04A04        5811        BNE   ERRUA                      NO                              46260021
 004784 D201 8006 D590 00006 00E30  5812 BGRLU1   MVC   DX6(LX2,JH),LCNUM          YES MOVE BOV                  46270021
 00478A 9108 D807      010A7        5813        TM    USEFL1,USERU               REEL/UNIT                       46280021
 00478E 4780 F3D0      04768        5814        BZ    BGRLF1                     NO                              46290021
 004792 07FE                        5815        BR    JP                         RETURN                          46300021
 004794 9101 D807      010A7        5816 ENCHK  TM    USEFL1,USEEN               ENDING                          46310021
 004798 4780 F438      047D0        5817        BZ    BGEDCK                     NO                              46320021
 00479C 9104 D807      010A7        5818        TM    USEFL1,USEFL               FILE                            46330021
 0047A0 4780 F41E      047B6        5819        BZ    EDRLU                      NO                              46340021
 0047A4 D501 8002 D84C 00002 010EC  5820 EDRLF1   CLC   DX2(LX2,JH),FRHWZ          IS EOF IN TBL 0               46350021
 0047AA 4770 F66C      04A04        5821        BNE   ERRUA                      NO                              46360021
 0047AE D201 8002 D590 00002 00E30  5822 EDRLF    MVC   DX2(LX2,JH),LCNUM          YES MOVE EOF                  46370021
 0047B4 07FE                        5823        BR    JP                         GO TO CK FIRST FILE RTN         46380021
 0047B6 D501 8004 D84C 00004 010EC  5824 EDRLU    CLC   DX4(LX2,JH),FRHWZ          IS EOV IN TBL 0               46390021
 0047BC 4770 F66C      04A04        5825        BNE   ERRUA                      NO                              46400021
 0047C0 D201 8004 D590 00004 00E30  5826 EDRLU1   MVC   DX4(LX2,JH),LCNUM          YES MOVE EOV                  46410021
 0047C6 9108 D807      010A7        5827        TM    USEFL1,USERU               REEL/UNIT                       46420021
 0047CA 4780 F40C      047A4        5828        BZ    EDRLF1                     NO                              46430021
 0047CE 07FE                        5829        BR    JP                         GO TO CK FIRST FILE RTN         46440021
 0047D0 9104 D807      010A7        5830 BGEDCK TM    USEFL1,USEFL               FILE                            46450021
 0047D4 4780 F450      047E8        5831        BZ    BGEDRU                     NO                              46460021
 0047D8 4400 F40C      047A4        5832 BGEBF  EX    JR,EDRLF1                  EX IS EOF IN TBL 0              46470021
 0047DC 4770 F66C      04A04        5833        BNE   ERRUA                      NO                              46480021
 0047E0 4400 F416      047AE        5834        EX    JR,EDRLF                   MOVE EOF                        46490021
 0047E4 47F0 F3D0      04768        5835        B     BGRLF1                     GO CHECK FOR BEGIN OF FILE      46500021
 0047E8 4400 F3E2      0477A        5836 BGEDRU EX    JR,BGRLU                   EX IS BOV IN TBL 0              46510021
 0047EC 4770 F66C      04A04        5837        BNE   ERRUA                      NO                              46520021
1PH1B     IKFCBL1B                                                                                              PAGE  136
-  LOC  OBJECT CODE    ADDR1 ADDR2  STMT   SOURCE STATEMENT                                       ASM 0201 11.03 02/14/15
00047F0 4400 F3EC      04784        5838        EX    JR,BGRLU1                  MOVE BOV                        46530021
 0047F4 4400 F41E      047B6        5839        EX    JR,EDRLU                   EX IS EOV IN TBL 0              46540021
 0047F8 4770 F66C      04A04        5840        BNE   ERRUA                      NO                              46550021
 0047FC 4400 F428      047C0        5841        EX    JR,EDRLU1                  MOVE EOV                        46560021
 004800 9108 D807      010A7        5842        TM    USEFL1,USERU               REEL/UNIT                       46570021
 004804 4780 F440      047D8        5843        BZ    BGEBF                      NO                              46580021
 004808 07FE                        5844        BR    JP                         CK  1ST FILE RTN                46590021
 00480A 9140 D807      010A7        5845 USKKNT TM    USEFL1,USEF2              FIRST FILE                       46600021
 00480E 4710 F48A      04822        5846        BO    USLENT                    NO                               46610021
 004812 9640 D807      010A7        5847        OI    USEFL1,USEF2              TURN ON MULTIPLE FILE SW         46620021
 004816 9604 D58F      00E2F        5848          OI    LCCHAR+NX1,XX04          SET L TO 1 LABEL-USE            46630021
 00481A 9610 D281      00B21        5849          OI    USEPDL,XX10                                              46640021
 00481E 45E0 9896      05B96        5850        BAL   JP,DICENT                  -DICENT                         46650021
 004822 45E0 B4F4      0245C        5851 USLENT BAL   JP,GENA                    -GENA                           46660021
 004826 9180 D807      010A7        5852        TM    USEFL1,USETOT             SEARCH TOTTBL                    46670021
 00482A 4780 F4AE      04846        5853        BZ    USFLS2                    NO                               46680021
 00482E 4170 C263      018C3        5854        LA    JG,TOTCT                  ADDR TO SEARCH TOTTBL            46690021
 004832 45E0 B3E6      0234E        5855        BAL   JP,SCHTOT                  SEARCH ON DISP                  46700021
 004836 9140 D279      00B19        5856          TM    SCHSW,XX40               FOUND                           46710021
 00483A 4780 F4AE      04846        5857        BZ    USFLS2                    NO                               46720021
 00483E 9110 D807      010A7        5858        TM    USEFL1,USEBF              IS IT BEFORE                     46730021
 004842 4710 F658      049F0        5859        BO    TOTMSG                    YES-ERROR                        46740021
 004846 45E0 B000      01F68        5860 USFLS2 BAL   JP,GETWD                   GET NEXT WORD                   46750021
 00484A 9523 C580      01BE0        5861          CLI   CURCOD,XX23              BCD FILENAME                    46760021
 00484E 4780 F356      046EE        5862        BE    USEFLG                     YES                       43521 46770021
 004852 41E0 FB00      04E98        5863        LA    JP,VRBENT                  SET UP JP                 43521 46780021
 004856 9004 B32C      02294        5864 USFLS3 STM   JR,JD,USESAV               SAVE R0 - R4              43521 46790021
 00485A 50E0 B340      022A8        5865        ST    JP,USEJP                   SAVE JP                   43521 46800021
 00485E 184F                        5866        LR    JD,JQ                      SAVE BASE REGISTER        43521 46810021
 004860 5810 C6B0      01D10        5867        L     JA,COSADR                  ADDRESS COS               43521 46820021
 004864 D201 B326 115C 0228E 0015C  5868        MVC   USAREA(LX2),PNCTR          PN NUMBER                 43521 46830021
 00486A D200 B328 D807 02290 010A7  5869        MVC   USAREA+NX2(LX1),USEFL1     ATTRIBUTES                43521 46840021
 004870 5810 C71C      01D7C        5870        L     JA,USDCON                  USETBL                    43521 46850021
 004874 58F0 C6BC      01D1C        5871        L     JQ,ADSERT                  INSERT                    43521 46860021
 004878 05EF                        5872        BALR  JP,JQ                      X                         43521 46870021
 00487A 18F4                        5873        LR    JQ,JD                      RESTORE BASE REGISTER     43521 46880021
 00487C D202 2000 B326 00000 0228E  5874        MVC   DX0(LX3,JB),USAREA         INSERT ENTRY              43521 46890021
 004882 9804 B32C      02294        5875        LM    JR,JD,USESAV               RESTORE R0 - R4           43521 46900021
 004886 58E0 B340      022A8        5876        L     JP,USEJP                   RESTORE JP                43521 46910021
 00488A 07FE                        5877        BR    JP                         CONTINUE                  43521 46920021
                                    5878 *                                                                 43521 46930021
                                    5879 *      USE FOR RANDOM PROCESSING                                        46940021
                                    5880 *USGENT LA   JG,LCBCD                  ADDR OF SN                       46950021
                                    5881 *       BAL  JP,SCHAPT                 SEARCH APPTBL                    46960021
                                    5882 *       TM   SCHSW,XH40'               NAME FOUND                       46970021
                                    5883 *       BO   USGGNT                    YES                              46980021
                                    5884 *       BAL  JP,MSG35                  NO - ERRMSG                      46990021
                                    5885 *       B    USGGXT                                                     47000021
                                    5886 *USGGNT MVC  LCRPD(1),1(JB)            PUT RPDNUM IN DICT WORK ENTR     47010021
                                    5887 *USGGXT OI   LCCHAR+1,X'02'            SET M TO 1 (RANDOM-USE)          47020021
                                    5888 *       BAL  JP,DICENT                 ENTER IN DICT                    47030021
                                    5889 *       B    VRBGEN                                                     47040021
                                    5890 *      USE AFTER STANDARD ERROR PROCEDURE ON FILE-NAME                  47050021
                             0488C  5891 USHENT EQU   *                                                          47060021
 00488C 45E0 B4F4      0245C        5892 USHHNT BAL   JP,GENA                    -GENA                           47070021
1PH1B     IKFCBL1B                                                                                              PAGE  137
-  LOC  OBJECT CODE    ADDR1 ADDR2  STMT   SOURCE STATEMENT                                       ASM 0201 11.03 02/14/15
0004890 45E0 B000      01F68        5893        BAL   JP,GETWD                   -GETWD                          47080021
 004894 D501 C580 A836 01BE0 02CFE  5894          CLC   CURCOD(LX2),PROCCD        PROCEDURE                      47090021
 00489A 4770 F660      049F8        5895        BNE   USERRA                     PUT OUT INCORRECT USAGE MSG.    47100021
 00489E 45E0 B4F4      0245C        5896        BAL   JP,GENA                    PUT OUT ON FILE 2               47110021
 0048A2 45E0 B136      0209E        5897        BAL   JP,CHKON                   GO TO CHECK ON RTN              47120021
 0048A6 45E0 B000      01F68        5898        BAL   JP,GETWD                   GET NEXT WORD                   47130021
 0048AA 9554 C580      01BE0        5899          CLI   CURCOD,XX54              COBOL WORD                      47140021
 0048AE 4770 F57A      04912        5900        BNE   USHENA                     CK  BCD  NAME                   47150021
 0048B2 9564 C581      01BE1        5901          CLI   CURN,XX64                 OUTPUT                         47160021
 0048B6 4780 F54A      048E2        5902        BE    USERON                     YES -CK FOR OUTPUT ERR          47170021
 0048BA 9566 C581      01BE1        5903          CLI   CURN,XX66                 INPUT                          47180021
 0048BE 4780 F562      048FA        5904        BE    USERIN                     YES -CK FOR INPUT ERR           47190021
 0048C2 956B C581      01BE1        5905          CLI   CURN,XX6B                 I-O                            47200021
 0048C6 4770 F660      049F8        5906        BNE   USERRA                     NO  -CK LABEL INFO              47210021
 0048CA D501 D83E D84C 010DE 010EC  5907          CLC   IOSTER(LX2),FRHWZ         WAS ERROR FOR I-O SPEC'D       47220021
 0048D0 4770 F66C      04A04        5908        BNE   ERRUA                      YES                             47230021
 0048D4 D201 D83E D590 010DE 00E30  5909          MVC   IOSTER(LX2),LCNUM         MOVE I-O GN FOR ERROR          47240021
 0048DA 45E0 F4BE      04856        5910        BAL   JP,USFLS3                  MAKE USETBL ENTRY         43521 47250021
 0048DE 47F0 F5BC      04954        5911        B     USHEND                     PUT ON FILE 2   - GET CUR CODE  47260021
 0048E2 D501 D83C D84C 010DC 010EC  5912 USERON   CLC   OUSTER(LX2),FRHWZ         WAS ERROR FOR OUTPUT SPEC'D    47270021
 0048E8 4770 F66C      04A04        5913        BNE   ERRUA                      YES                             47280021
 0048EC D201 D83C D590 010DC 00E30  5914          MVC   OUSTER(LX2),LCNUM        MOVE OUTPUT GN                  47290021
 0048F2 45E0 F4BE      04856        5915        BAL   JP,USFLS3                  MAKE USETBL ENTRY         43521 47300021
 0048F6 47F0 F5BC      04954        5916        B     USHEND                     PUT ON FILE 2   - GET CUR CODE  47310021
 0048FA D501 D83A D84C 010DA 010EC  5917 USERIN   CLC   INSTER(LX2),FRHWZ         WAS ERROR FOR INPUT SPEC'D     47320021
 004900 4770 F66C      04A04        5918        BNE   ERRUA                      YES                             47330021
 004904 D201 D83A D590 010DA 00E30  5919          MVC   INSTER(LX2),LCNUM         MOVE GN FOR INPUT              47340021
 00490A 45E0 F4BE      04856        5920        BAL   JP,USFLS3                  MAKE USETBL ENTRY         43521 47350021
 00490E 47F0 F5BC      04954        5921        B     USHEND                     PUT ON FILE 2                   47360021
 004912 9523 C580      01BE0        5922 USHENA   CLI   CURCOD,XX23               BCD-FILE-NAME                  47370021
 004916 4780 F58A      04922        5923        BC    EQ,USHENB                   YES-USHENB                     47380021
 00491A 45E0 D968      01208        5924        BAL   JP,MSG23                   -MSG23                          47390021
 00491E 47F0 F5BC      04954        5925        BC    UNCOND,USHEND               -USHEND                        47400021
 004922 4170 C581      01BE1        5926 USHENB LA    JG,CURN                    ADDR OF FILE-NAME               47410021
 004926 45E0 B3F4      0235C        5927        BAL   JP,SCHFNT                  -SCHFNT-SEARCH FNTBL            47420021
 00492A 9140 D279      00B19        5928          TM    SCHSW,XX40                WAS NAME FOUND                 47430021
 00492E 4780 F5B8      04950        5929        BC    ZERO,USHENC                 NO-USHENC                      47440021
 004932 D200 D592 2003 00E32 00003  5930          MVC   LCRPD(LX1),DX3(JB)         GET RPD NUM FROM FNTBL TO W   47450021
 004938 D501 2006 D84C 00006 010EC  5931          CLC   FNGNSE(LX2,JB),FRHWZ     WAS ERROR GN SPEC'D FOR FILE    47460021
 00493E 4770 F66C      04A04        5932        BNE   ERRUA                      YES                             47470021
 004942 D201 2006 D590 00006 00E30  5933          MVC   FNGNSE(LX2,JB),LCNUM     MOVE ERROR GN FOR FILE          47480021
 004948 45E0 F4BE      04856        5934        BAL   JP,USFLS3                  MAKE USETBL ENTRY         43521 47490021
 00494C 47F0 F5BC      04954        5935        BC    UNCOND,USHEND               -USHEND                        47500021
                                    5936 *                                                                       47510021
 004950 45E0 D96C      0120C        5937 USHENC BAL   JP,MSG24                   -MSG24                          47520021
 004954 45E0 B4F4      0245C        5938 USHEND BAL   JP,GENA                    -GENA                           47530021
 004958 45E0 B000      01F68        5939        BAL   JP,GETWD                   -GETWD                          47540021
 00495C 9608 D58F      00E2F        5940 USHENE   OI    LCCHAR+NX1,XX08           SET K TO 1  (ERROR-USE)        47550021
 004960 9120 D27A      00B1A        5941          TM    INSRSW,XX20                                              47560021
 004964 4710 F5D4      0496C        5942        BO    *+NX8                      GO PUT IN DICTIONARY            47570021
 004968 45E0 9896      05B96        5943        BAL   JP,DICENT                  -DICENT                         47580021
 00496C 9608 D281      00B21        5944          OI    USEPDE,XX08               USE ERROR                      47590021
 004970 9620 D27A      00B1A        5945          OI    INSRSW,XX20          NO   INSERT IN DICT                 47600021
 004974 9523 C580      01BE0        5946          CLI   CURCOD,XX23               FILENM2 ?                      47610021
 004978 4780 F58A      04922        5947        BE    USHENB                     ENTER SECTION NM AGAIN          47620021
1PH1B     IKFCBL1B                                                                                              PAGE  138
-  LOC  OBJECT CODE    ADDR1 ADDR2  STMT   SOURCE STATEMENT                                       ASM 0201 11.03 02/14/15
000497C 94DF D27A      00B1A        5948          NI    INSRSW,XXDF                                              47630021
 004980 47F0 FB00      04E98        5949        BC    UNCOND,VRBENT               -VRBENT                        47640021
                                    5950 *                                                                       47650021
                                    5951 *        USE BEFORE REPORTING                                           47660021
 004984 45E0 B4F4      0245C        5952 USFENT BAL   JP,GENA                    -GENA                           47670021
 004988 45E0 B000      01F68        5953        BAL   JP,GETWD                   -GETWD                          47680021
 00498C 4160 C4FE      01B5E        5954        LA    JF,EOSCON                  GEN OUT                         47690021
 004990 45E0 B4F8      02460        5955        BAL   JP,GENB                     EOS                            47700021
 004994 9604 D27A      00B1A        5956          OI    PRDSW,XX04                SET 'ON' PRDSW                 47710021
                                    5957 *                                                                       47720021
 004998 45E0 F0FE      04496        5958        BAL   JP,MAJTST                  MAJOR-0                         47730021
 00499C 47F0 F650      049E8        5959        BC    UNCOND,USFDNT               YES-USFDNT                     47740021
 0049A0 9101 C57D      01BDD        5960          TM    CURSW,XX01                A-MARGIN                       47750021
 0049A4 4710 F644      049DC        5961        BC    ONES,USFCNT                 YES-USFCNT                     47760021
                                    5962 *                                                                       47770021
 0049A8 9523 C580      01BE0        5963 USFBNT   CLI   CURCOD,XX23               DATA-NAME                      47780021
 0049AC 4780 F624      049BC        5964        BC    EQ,USFANT                   YES-USFANT                     47790021
 0049B0 45E0 D98C      0122C        5965        BAL   JP,MSG32                   -MSG32                          47800021
 0049B4 45E0 96B6      059B6        5966        BAL   JP,CHKIN                   -CHKIN                          47810021
 0049B8 47F0 F61C      049B4        5967          BC    UNCOND,*-NX4               -*-4                          47820021
                                    5968 *                                                                       47830021
 0049BC 9601 D58F      00E2F        5969 USFANT   OI    LCCHAR+NX1,XX01           SET N TO 1   REPORT-USE        47840021
 0049C0 45E0 F4BE      04856        5970        BAL   JP,USFLS3                  MAKE USETBL ENTRY         43521 47850021
 0049C4 45E0 9F14      06214        5971        BAL   JP,UBRTN                   -UBRTN                          47860021
 0049C8 45E0 9896      05B96        5972        BAL   JP,DICENT                  -DICENT                         47870021
 0049CC 45E0 96B6      059B6        5973        BAL   JP,CHKIN                   -CHKIN                          47880021
 0049D0 45E0 D9DC      0127C        5974        BAL   JP,MSG52                   -MSG52                          47890021
 0049D4 45E0 96B6      059B6        5975        BAL   JP,CHKIN                   -CHKIN                          47900021
 0049D8 47F0 F63C      049D4        5976          BC    UNCOND,*-NX4               -*-4                          47910021
                                    5977 *                                                                       47920021
 0049DC 45E0 F78E      04B26        5978 USFCNT BAL   JP,CHKLHN                  -CHKLHN                         47930021
 0049E0 47F0 F650      049E8        5979        BC    UNCOND,USFDNT               YES-USFDNT                     47940021
 0049E4 47F0 F610      049A8        5980        BC    UNCOND,USFBNT               -USFBNT                        47950021
                                    5981 *                                                                       47960021
 0049E8 45E0 D9D8      01278        5982 USFDNT BAL   JP,MSG51                   -MSG51                          47970021
 0049EC 47F0 F6C2      04A5A        5983        BC    UNCOND,DELIM                -DELIM                         47980021
                                    5984 *                                                                       47990021
 0049F0 45E0 DB70      01410        5985 TOTMSG BAL   JP,MSG153                  TOTALED AREA ILLEG              48000021
 0049F4 47F0 F4AE      04846        5986        B     USFLS2                     GO TO GET NEXT WORD             48010021
                                    5987 *                                                                       48020021
 0049F8 45E0 D98C      0122C        5988 USERRA BAL   JP,MSG32                   -MSG32                          48030021
 0049FC 45E0 9896      05B96        5989        BAL   JP,DICENT                  -DICENT                         48040021
 004A00 47F0 FB00      04E98        5990        BC    UNCOND,VRBENT               -VRBENT                        48050021
                                    5991 *                                                                       48060021
                             04A04  5992 ERRUA  EQU   *                                                          48070021
 004A04 45E0 DB20      013C0        5993        BAL   JP,MSG133                  MORE THAN 1 USE ON STAND. ERR   48080021
 004A08 47F0 F678      04A10        5994        B     ERRMX+LX4                  GO TO DICT ENTRY                48090021
 004A0C 45E0 DB48      013E8        5995 ERRMX  BAL   JP,MSG143                  USE STATEMENTS IGNORED          48100021
 004A10 45E0 9896      05B96        5996        BAL   JP,DICENT                  GO TO DICT ENTRY                48110021
 004A14 47F0 FB00      04E98        5997        B     VRBENT                     GO TO VERB ENTRY                48120021
 004A18 45E0 DB24      013C4        5998 ERRUSF BAL   JP,MSG134                  USE  INCORR FOR LABEL INFO      48130021
 004A1C 47F0 F678      04A10        5999        B     ERRMX+LX4                  GO TO DICT ENTRY                48140021
                                    6000 *****                                                                   48150021
                                    6001 *****                                                                   48160021
 004A20 4832 0000      00000        6002 PIUSB  LH    JC,FNPIOT(JB)             PIOTBL PTR                       48170021
1PH1B     IKFCBL1B                                                                                              PAGE  139
-  LOC  OBJECT CODE    ADDR1 ADDR2  STMT   SOURCE STATEMENT                                       ASM 0201 11.03 02/14/15
0004A24 50E0 D6CC      00F6C        6003 PIUSB1 ST    JP,SV1F12                                                  48180021
 004A28 45E0 F6B0      04A48        6004        BAL   JP,SETPIO                  GET PIOTBL ENTRY                48190021
 004A2C 9602 5001      00001        6005        OI    PIOFL2(JE),PIOUSE          TURN ON USE LABEL OR ERROR      48200021
 004A30 58E0 D6CC      00F6C        6006        L     JP,SV1F12                                                  48210021
 004A34 07FE                        6007        BR    JP                         - RETURN                        48220021
 004A36 50E0 D6CC      00F6C        6008 PIUSB2   ST    JP,SV1F12               SAVE RETURN REG                  48230021
 004A3A 45E0 F6B0      04A48        6009          BAL   JP,SETPIO           GO GET RIGHT PIOTBL ENTRY            48240021
 004A3E 9680 5002      00002        6010          OI    PIOFL3(JE),PIONST   SET NSL BIT ON                       48250021
 004A42 58E0 D6CC      00F6C        6011          L     JP,SV1F12           RESTORE REGISTER                     48260021
 004A46 07FE                        6012          BR    JP                  RETURN TO CALLER                     48270021
                                    6013 *****                                                                   48280021
                                    6014 *  GET ADDR OF ENTRY IN PIOTBL, HAVING PTR TO IT.                       48290021
 004A48 5850 C704      01D64        6015 SETPIO L     JE,PIOCON                  PIOTBL-TIB                      48300021
 004A4C 5855 0000      00000        6016          L     JE,DX0(JE)                PIOTBL-TAMM                    48310021
 004A50 5855 0000      00000        6017          L     JE,DX0(JE)                PIOTBL-ADDR                    48320021
 004A54 4153 5000      00000        6018          LA    JE,DX0(JC,JE)             ADDR OF PIOTBL ENTRY           48330021
 004A58 07FE                        6019        BCR   UNCOND,JP                   -RETURN                        48340021
                                    6020 *                                                                       48350021
1PH1B     IKFCBL1B                                                                                              PAGE  140
-  LOC  OBJECT CODE    ADDR1 ADDR2  STMT   SOURCE STATEMENT                                       ASM 0201 11.03 02/14/15
0                                   6022 *=2          DELIM                                                      48370021
                                    6023 *                                                                       48380021
                                    6024 *****    DELIM SCAN    *****                                            48390021
                                    6025 *                                                                       48400021
 004A5A D501 C580 C4FE 01BE0 01B5E  6026 DELIM    CLC   CURCOD(LX2),EOSCON        EOS                            48410021
 004A60 4770 F6D4      04A6C        6027        BC    NOTEQ,DELMAJ                NO-DELMAJ                      48420021
 004A64 45E0 B000      01F68        6028 DLAENT BAL   JP,GETWD                   -GETWD                          48430021
 004A68 47F0 F6C2      04A5A        6029        BC    UNCOND,DELIM                -DELIM                         48440021
 004A6C 45E0 F0FE      04496        6030 DELMAJ BAL   JP,MAJTST                  MAJOR IS '0' TEST               48450021
 004A70 47F0 F6F4      04A8C        6031        BC    UNCOND,DLOKPD               YES-DLOKPD                     48460021
 004A74 9101 C57D      01BDD        6032          TM    CURSW,XX01                 NO-IS IT IN A-MARGIN          48470021
 004A78 4780 F6EC      04A84        6033        BC    ZERO,DLBENT                 NO-DLBENT                      48480021
 004A7C 45E0 F78E      04B26        6034        BAL   JP,CHKLHN                  -CHKLHN                         48490021
 004A80 47F0 F7CA      04B62        6035        BC    UNCOND,LHNAM                YES-LHNAM                      48500021
 004A84 94FB D27A      00B1A        6036 DLBENT   NI    PRDSW,XXFB                SET 'OFF' PRDSW                48510021
 004A88 47F0 FACA      04E62        6037        BC    UNCOND,VRBGEN               -VRBGEN                        48520021
 004A8C 9102 C582      01BE2        6038 DLOKPD   TM    CURDCD,XX02               OK FOR PROCEDURE DIV           48530021
 004A90 4710 F70A      04AA2        6039        BC    ONES,DLCENT                 YES-DLCENT                     48540021
 004A94 45E0 DA94      01334        6040        BAL   JP,MSG98                   -MSG98                          48550021
 004A98 D201 C580 C4FB 01BE0 01B5B  6041          MVC   CURCOD(LX2),ERRCOD        MAKE CODE ERROR CODE           48560021
 004A9E 47F0 F6EC      04A84        6042        BC    UNCOND,DLBENT               -DLBENT                        48570021
 004AA2 9542 C580      01BE0        6043 DLCENT   CLI   CURCOD,XX42               CRITICAL PROG BREAK            48580021
 004AA6 4780 F71E      04AB6        6044        BC    EQ,DELEND                   YES-DELEND                     48590021
 004AAA 9544 C580      01BE0        6045          CLI   CURCOD,XX44               CRITICAL COBOL WORD            48600021
 004AAE 4780 F9BA      04D52        6046        BC    EQ,VRBSCN                   YES-VRBSCN                     48610021
 004AB2 4770 F6EC      04A84        6047        BC    NOTEQ,DLBENT                NO-DLBENT                      48620021
 004AB6 9508 C581      01BE1        6048 DELEND   CLI   CURN,XX08                 END-DECLARATIVES               48630021
 004ABA 4770 F76A      04B02        6049        BC    NOTEQ,DELDCL                NO-DELDCL                      48640021
 004ABE 9110 D58F      00E2F        6050          TM    LCCHAR+NX1,XX10           IN DECLARATIVES                48650021
 004AC2 4710 F736      04ACE        6051        BC    ONES,DELGEN                 YES-DELGEN                     48660021
 004AC6 45E0 DA80      01320        6052        BAL   JP,MSG93                    NO-MSG93                       48670021
 004ACA 47F0 F6CC      04A64        6053        BC    UNCOND,DLAENT               -DLAENT                        48680021
 004ACE 45E0 B4F4      0245C        6054 DELGEN BAL   JP,GENA                    -GENA                           48690021
 004AD2 94FD C83D      01E9D        6055          NI    DECSEG,XXFD              TURN OFF DECLARATIVES SW        48700021
 004AD6 94E0 D58F      00E2F        6056          NI    LCCHAR+NX1,XXE0           SET 'OFF' ALL DECL BITS        48710021
 004ADA 9200 D592      00E32        6057          MVI   LCRPD,XX00                SET RPD-NUM TO '0'             48720021
 004ADE 45E0 B0F0      02058        6058        BAL   JP,CHKEOS                  -CHKEOS                         48730021
 004AE2 9120 D281      00B21        6059          TM    ENTSW,XX20               ENTRY GN TO BE GENERATED        48740021
 004AE6 4780 F762      04AFA        6060        BZ    DELEPN                    NO                               48750021
 004AEA 9288 D7F9      01099        6061          MVI   GODEF,XX88               MOVE GN DEF CODE                48760021
 004AEE 4160 D7F9      01099        6062        LA    JF,GODEF                  GNE OUT GN DEF                   48770021
 004AF2 45E0 B4F8      02460        6063        BAL   JP,GENB                    PUT ON FILE 2                   48780021
 004AF6 94DF D281      00B21        6064          NI    ENTSW,XXDF               TURN OFF ENTRY VERB SW          48790021
 004AFA 9608 D27A      00B1A        6065 DELEPN   OI    DHDRSW,XX08                                              48800021
 004AFE 47F0 F6C2      04A5A        6066        BC    UNCOND,DELIM                -DELIM                         48810021
 004B02 9507 C581      01BE1        6067 DELDCL   CLI   CURN,XX07                 DECLARATIVES                   48820021
 004B06 4770 F782      04B1A        6068        BC    NOTEQ,DELEOP                NO-DELEOP                      48830021
 004B0A 9101 C57D      01BDD        6069          TM    CURSW,XX01                IN 'A-MARGIN'                  48840021
 004B0E 4780 F6EC      04A84        6070        BC    ZERO,DLBENT                 NO-DLBENT                      48850021
 004B12 45E0 DA7C      0131C        6071        BAL   JP,MSG92                    NO-MSG92                       48860021
 004B16 47F0 F6CC      04A64        6072        BC    UNCOND,DLAENT               -DLAENT                        48870021
 004B1A 95FF C581      01BE1        6073 DELEOP   CLI   CURN,XXFF                 EOP                            48880021
 004B1E 4780 9C28      05F28        6074        BC    EQ,PROEND                   YES-PROEND                     48890021
 004B22 47F0 F6CC      04A64        6075        BC    UNCOND,DLAENT               -DLAENT                        48900021
1PH1B     IKFCBL1B                                                                                              PAGE  141
-  LOC  OBJECT CODE    ADDR1 ADDR2  STMT   SOURCE STATEMENT                                       ASM 0201 11.03 02/14/15
0                                   6077 *=2          LHN                                                        48920021
                                    6078 *                                                                       48930021
                                    6079 *****    CHECK LHN    *****                                             48940021
                                    6080 *                                                                       48950021
 004B26 50E0 D698      00F38        6081 CHKLHN ST    JP,SV1F02                  SAVE LINK REG                   48960021
 004B2A 9523 C580      01BE0        6082          CLI   CURCOD,XX23               BCD NAME                       48970021
 004B2E 078E                        6083        BCR   EQ,JP                       YES-RETURN                     48980021
 004B30 9532 C580      01BE0        6084          CLI   CURCOD,XX32               NUMERIC LITERAL                48990021
 004B34 4770 F7A8      04B40        6085        BC    NOTEQ,LHNERR                NO-LHNERR                      49000021
 004B38 9500 C583      01BE3        6086          CLI   CURBCD+NX1,XX00           INTEGRAL                       49010021
 004B3C 4780 F7B4      04B4C        6087        BC    EQ,LHNBCD                   YES-LHNBCD                     49020021
 004B40 45E0 DA78      01318        6088 LHNERR BAL   JP,MSG91                   -MSG91                          49030021
 004B44 58E0 D698      00F38        6089        L     JP,SV1F02                  RESTORE LINK REG                49040021
 004B48 47FE 0004      00004        6090          BC    UNCOND,DX4(JP)             -RETURN-ERROR                 49050021
 004B4C 4120 C581      01BE1        6091 LHNBCD LA    JB,CURN                    ADDR OF CURN                    49060021
 004B50 4170 C55E      01BBE        6092        LA    JG,CURCNT                  ADDR OF CURCNT                  49070021
 004B54 4340 C55E      01BBE        6093        IC    JD,CURCNT                  SIZE OF NAME                    49080021
 004B58 4440 B3C2      0232A        6094        EX    JD,TXMOVE                  MOVE LIT IN BCD TO CURN         49090021
 004B5C 9223 C580      01BE0        6095          MVI   CURCOD,XX23               SET CODE TO '23'               49100021
 004B60 07FE                        6096        BCR   UNCOND,JP                   -RETURN                        49110021
                                    6097 *                                                                       49120021
                                    6098 *****    LH NAME SCAN    *****                                          49130021
                                    6099 *                                                                       49140021
 004B62 9205 C580      01BE0        6100 LHNAM    MVI   CURCOD,XX05               CODE AS LHN                    49150021
 004B66 9540 D481      00D21        6101          CLI   COMWRK+NX6,XX40         IS COLUMN7 BLANK           7075  49160021
 004B6A 4780 F7DA      04B72        6102          BE    COL7OK                  YES,-COL7OK                7075  49170021
 004B6E 45E0 DB64      01404        6103          BAL   JP,MSG150               NO,-PARAGRAPH NAME IN COL 77075  49180021
 004B72 9108 D27A      00B1A        6104 COL7OK   TM    DHDRSW,XX08             DHDRSW 'ON'                7075  49190021
 004B76 4780 F7F8      04B90        6105        BC    ZERO,LHNGEN                 NO-LHNGEN                      49200021
 004B7A 94F7 D27A      00B1A        6106          NI    DHDRSW,XXF7         SET OFF DHDRSW                  7453 49210021
 004B7E D501 C636 A6AE 01C96 02B76  6107          CLC   NXTCOD(LX2),SCTCON        NEXT IS SECTION                49220021
 004B84 4780 F802      04B9A        6108          BC    EQ,LHNX             BYPASS DUNGEM                   7453 49230021
 004B88 45E0 9BCC      05ECC        6109        BAL   JP,DUMGEN                  -DUMGEN                         49240021
 004B8C 47F0 F802      04B9A        6110          BC    UNCOND,LHNX         BYPASS                          7453 49250021
 004B90 D501 C636 A6AE 01C96 02B76  6111 LHNGEN   CLC   NXTCOD(LX2),SCTCON  NEXT WORD SECTION               7453 49260021
 004B96 4780 F856      04BEE        6112          BE    LHN1                CHECK FOR DUPLICATE             7453 49270021
 004B9A 45E0 982E      05B2E        6113 LHNX     BAL   JP,GENSEQ           WRITE P-/                       7453 49280021
 004B9E 45E0 B4F4      0245C        6114        BAL   JP,GENA                    -GENA                           49290021
 004BA2 D21E D56C C55E 00E0C 01BBE  6115          MVC   LCBCD(LX31),CURCNT        LHN TO 'BCD-NAME AREA'         49300021
 004BA8 D501 C636 A6AE 01C96 02B76  6116          CLC   NXTCOD(LX2),SCTCON        NEXT IS SECTION                49310021
 004BAE 4780 F826      04BBE        6117        BC    EQ,LHNSCT                   YES-LHNSCT                     49320021
 004BB2 45E0 B0DC      02044        6118        BAL   JP,CHKPAR                  -CHKPAR                         49330021
 004BB6 94BF D58E      00E2E        6119          NI    LCCHAR,XXBF               SET T-0                        49340021
 004BBA 47F0 F82E      04BC6        6120        BC    UNCOND,LHNSWH               -LHNSWH                        49350021
 004BBE 45E0 B052      01FBA        6121 LHNSCT BAL   JP,CHKSKT                  -CHKSKT                         49360021
 004BC2 9640 D58E      00E2E        6122          OI    LCCHAR,XX40               SET 'T' TO '1'                 49370021
 004BC6 9602 C57D      01BDD        6123 LHNSWH   OI    CURSW,XX02                SET CURSW TO SHOW LHN PRECE    49380021
 004BCA 45E0 F88C      04C24        6124        BAL   JP,LHNNUM                  GET NEW PN NUMBER               49390021
 004BCE 45E0 B20A      02172        6125        BAL   JP,INCLCK                  -INCLCK                         49400021
 004BD2 9110 D58F      00E2F        6126          TM    LCCHAR+NX1,XX10           IN DECLARATIVES                49410021
 004BD6 4780 F84E      04BE6        6127        BC    ZERO,LHNOUT                 NO-LHNOUT                      49420021
 004BDA 9140 D58E      00E2E        6128          TM    LCCHAR,XX40               SECTION-NAME                   49430021
 004BDE 4710 F134      044CC        6129        BC    ONES,DCLSN                  YES-DCLSN                      49440021
 004BE2 47F0 F146      044DE        6130        BC    UNCOND,DCLPN                NO-DCLPN                       49450021
 004BE6 45E0 9896      05B96        6131 LHNOUT BAL   JP,DICENT                  -DICENT   (LHN TO DICT)         49460021
1PH1B     IKFCBL1B                                                                                              PAGE  142
-  LOC  OBJECT CODE    ADDR1 ADDR2  STMT   SOURCE STATEMENT                                       ASM 0201 11.03 02/14/15
0004BEA 47F0 F6C2      04A5A        6132        BC    UNCOND,DELIM                -DELIM                         49470021
                                    6133 *                                                                       49480021
 004BEE D21F D544 C55E 00DE4 01BBE  6134 LHN1     MVC   LOCNAM(LX32),CURCNT   SET UP                             49490021
 004BF4 D202 D541 D5E6 00DE1 00E86  6135          MVC   RNMBCD+NX1(LX3),LOCNAMAD    FOR LOC ATTRIB               49500021
 004BFA 4110 D540      00DE0        6136          LA    JA,RNMBCD           FOR LOCATE NAME                 7453 49510021
 004BFE 58F0 C6DC      01D3C        6137          L     JQ,LATRCN           ADDR OF LATRNM                  7453 49520021
 004C02 05EF                        6138          BALR  JP,JQ               CALL ACCESS                     7453 49530021
 004C04 42F0 C533      01B93        6139          STC   JQ,DICTRTN          SAVE RETURN CODE                7453 49540021
 004C08 58F0 D654      00EF4        6140          L     JQ,SVREG+NX56       RESTORE R 15                    7453 49550021
 004C0C 9504 C533      01B93        6141          CLI   DICTRTN,XX04        DUPLICATE NAME                  7453 49560021
 004C10 4780 F802      04B9A        6142          BE    LHNX                ENTER IT IN DICTIONARY          7453 49570021
 004C14 45E0 DB38      013D8        6143          BAL   JP,MSG139           YES - GIVE MESSAGE                   49580021
 004C18 45E0 B000      01F68        6144          BAL   JP,GETWD            PUT SECTION INTO CUR            7453 49590021
 004C1C 45E0 B000      01F68        6145          BAL   JP,GETWD            BYPASS WORD SECTION             7453 49600021
 004C20 47F0 F6C2      04A5A        6146          BC    UNCOND,DELIM        CONTINUE PROCESSING             7453 49610021
 004C24 5810 C6B0      01D10        6147 LHNNUM L     JA,COSADR                  ADDR OF COS                     49620021
 004C28 4830 115C      0015C        6148        LH    JC,PNCTR                                                   49630021
 004C2C 4133 0001      00001        6149          LA    JC,DX1(JC)                 INCREASE BY ONE               49640021
 004C30 4030 115C      0015C        6150        STH   JC,PNCTR                                                   49650021
 004C34 4030 D590      00E30        6151        STH   JC,LCNUM                      STOR IN LCNUM FIELD          49660021
 004C38 07FE                        6152        BCR   UNCOND,JP                   -RETURN                        49670021
                                    6153 *                                                                       49680021
1PH1B     IKFCBL1B                                                                                              PAGE  143
-  LOC  OBJECT CODE    ADDR1 ADDR2  STMT   SOURCE STATEMENT                                       ASM 0201 11.03 02/14/15
0                                   6155 *=2          PROCEDURE NAME                                             49700021
                                    6156 *                                                                       49710021
                                    6157 *****    PROCEDURE NAME + QUAL NAME SCAN    *****                       49720021
                                    6158 *                                                                       49730021
 004C3A 9101 C57D      01BDD        6159 PRONAM   TM    CURSW,XX01                IN 'A' MARGIN                  49740021
 004C3E 471E 0004      00004        6160          BC    ONES,DX4(JP)               YES-RETURN NOT FOUND          49750021
 004C42 50E0 D69C      00F3C        6161 PRONMD ST    JP,SV1F03                  SAVE LINK REG                   49760021
 004C46 943F D27B      00B1B        6162          NI    DSQLSW,XX3F               SET DSQLSW + QLPNSW 'OFF'      49770021
 004C4A D71F D5C0 D5C0 00E60 00E60  6163          XC    PNBCDQ(LX32),PNBCDQ                                      49780021
 004C50 9222 D5BF      00E5F        6164          MVI   PNQLCD,XX22               INITIALIZE                     49790021
 004C54 95A2 C580      01BE0        6165          CLI   CURCOD,XXA2               QUAL BCD NAME                  49800021
 004C58 4780 F904      04C9C        6166        BC    EQ,PROQLF                   YES-PROQLF                     49810021
 004C5C 9523 C580      01BE0        6167          CLI   CURCOD,XX23               BCD NAME                       49820021
 004C60 4780 F8DE      04C76        6168        BC    EQ,PROGEN                   YES-PROGEN                     49830021
 004C64 9108 C57D      01BDD        6169          TM    CURSW,XX08                INT-NUM-LIT                    49840021
 004C68 478E 0004      00004        6170          BC    ZERO,DX4(JP)               NO-RETURN + 4                 49850021
 004C6C D21E C581 C55E 01BE1 01BBE  6171 PROCOD   MVC   CURN(LX31),CURCNT         MAKE NUM-LIT BCD FORM          49860021
 004C72 9223 C580      01BE0        6172          MVI   CURCOD,XX23               CODE AS BCD-NAME               49870021
 004C76 45E0 B4F4      0245C        6173 PROGEN BAL   JP,GENA                    -GENA                           49880021
 004C7A 47F0 F8F6      04C8E        6174        B     PROGSK                     RESTORE REG. AND RETURN         49890021
 004C7E 5020 D76C      0100C        6175 PROGN2   ST    R2,CPYSAV+NX20            END OF COPY QUAL ENTRY         49900021
 004C82 9818 D758      00FF8        6176        LM    R1,R8,CPYSAV               RESTORE REGS 1 - 8              49910021
 004C86 58F0 D7C8      01068        6177        L     JQ,SVCALP                                                  49920021
 004C8A 50F0 D890      01130        6178        ST    JQ,LNKR15                                                  49930021
                             04C8E  6179 PROGSK EQU   *                                                          49940021
 004C8E 58E0 D69C      00F3C        6180        L     JP,SV1F03                  RESTORE LINK REG                49950021
 004C92 07FE                        6181        BCR   UNCOND,JP                   -RETURN                        49960021
                                    6182 *                                                                       49970021
 004C94 9018 D758      00FF8        6183 CQLFAQ STM   R1,R8,CPYSAV               STORE   COPY REGS 1 - 8         49980021
 004C98 50E0 D69C      00F3C        6184 QLFNAM ST    JP,SV1F03                  SAVE LINK REG                   49990021
 004C9C 947F D27B      00B1B        6185 PROQLF   NI    DSQLSW,XX7F               SET DSQLSW 'OFF'               50000021
 004CA0 5860 C6EC      01D4C        6186        L     JF,QLTCON                  ADDR OF TIB                     50010021
 004CA4 5866 0000      00000        6187          L     JF,DX0(JF)                ADDR OF TAMM                   50020021
 004CA8 5856 0000      00000        6188          L     JE,DX0(JF)                ADDR OF TABLE START            50030021
 004CAC 4846 0004      00004        6189          LH    JD,DX4(JF)                SIZE OF TABLE                  50040021
 004CB0 4174 5000      00000        6190          LA    JG,DX0(JD,JE)             ADDR OF TABLE END+1            50050021
 004CB4 9101 D284      00B24        6191          TM    REPQSW,XX01               CALLED BY COPY-REPLACING RT    50060021
 004CB8 4780 F92C      04CC4        6192        BC    ZERO,QPNBLD                NO - SKIP                       50070021
 004CBC 4124 3000      00000        6193          LA    R2,DX0(JD,R3)            ADDR FOR ENTRY  IN COPY WK A    50080021
 004CC0 5020 D768      01008        6194          ST    R2,CPYSAV+NX16            SAVE END ADDR IN R5            50090021
 004CC4 4150 D5C0      00E60        6195 QPNBLD LA    JE,PNBCDQ                  ADDR OF BCD NM IN WK AREA       50100021
 004CC8 4160 D5BF      00E5F        6196        LA    JF,PNQLCD                  ADDR OF WORK AREA               50110021
 004CCC 1711                        6197        XR    JA,JA                      CLEAR REG                       50120021
 004CCE 1744                        6198        XR    JD,JD                      CLEAR REG                       50130021
 004CD0 1788                        6199        XR    JH,JH                      CLEAR REG                       50140021
 004CD2 0670                        6200        BCTR  JG,JR                       ADJ ADDR TO 'N' BYTE           50150021
 004CD4 4347 0000      00000        6201 QLFGET   IC    JD,DX0(JG)                PUT 'N' IN JD                  50160021
 004CD8 9261 7000      00000        6202          MVI   DX0(JG),XX61              MOVE'/'BETWEEN NAMES FOR       50170021
 004CDC 1B74                        6203        SR    JG,JD                      ADJ ADDR TO START OF NAME       50180021
 004CDE 1A14                        6204        AR    JA,JD                      ADD NAME LENGTH FOR             50190021
 004CE0 1B24                        6205        SR    R2,JD                      ADDR OF ENTRY IN COPY WK AR     50200021
 004CE2 0670                        6206 QNBCTR BCTR  JG,JR                      ADJ ADDR TO 'N' BYTE            50210021
 004CE4 9500 7000      00000        6207          CLI   DX0(JG),XX00              END OF QUAL NAMES              50220021
 004CE8 4780 F994      04D2C        6208        BC    EQ,QLTEND                   YES-QLTEND                     50230021
 004CEC 4111 0001      00001        6209          LA    JA,DX1(JA)                ADD ONE FOR 'N' BYTE           50240021
1PH1B     IKFCBL1B                                                                                              PAGE  144
-  LOC  OBJECT CODE    ADDR1 ADDR2  STMT   SOURCE STATEMENT                                       ASM 0201 11.03 02/14/15
0004CF0 4245 0000      00000        6210          STC   JD,DX0(JE)                PUT 'N' IN OUTPUT AREA         50250021
 004CF4 0640                        6211        BCTR  JD,JR                       ADJ SIZE FOR 'EX'              50260021
                                    6212 *                                                                       50270021
                                    6213 ***        THE FOLLOWING CODE MOVES  THE CONTENTS OF QLTAB TO           50280021
                                    6214 ****        AN AREA WITHIN PH 1 .  AFTER MOVE WDS APPEAR IN       *     50290021
                                    6215 *****            WORK AREA AS THEY WOULD ON SOURCE CARD.          *     50300021
                                    6216 *                                                                       50310021
 004CF6 9101 D284      00B24        6217          TM    REPQSW,XX01               REPLACING OPTION ?             50320021
 004CFA 4780 F978      04D10        6218        BC    ZERO,QNORML                NORMAL QUALIFIER                50330021
 004CFE 4440 F988      04D20        6219        EX    JD,QLPMV2                                                  50340021
 004D02 4B20 C13C      0179C        6220        SH    R2,HWFOUR                  ADDR OF INCON MOVE              50350021
 004D06 D203 2000 C146 00000 017A6  6221          MVC   DX0(LX4,R2),CINCON         MOVE ' IN '                   50360021
 004D0C 47F0 F93C      04CD4        6222        B     QLFGET                     LOOP AGAIN                      50370021
                                    6223 *                                                                       50380021
                                    6224 *                                                                       50390021
 004D10 4440 F98E      04D26        6225 QNORML EX    JD,QLPMOV                 BCD NM TO OUTPUT AREA            50400021
 004D14 4188 0001      00001        6226          LA    JH,DX1(JH)                COUNT NUMBER OF QUAL NAMES     50410021
 004D18 45E0 B4F8      02460        6227        BAL   JP,GENB                    -GENB                           50420021
 004D1C 47F0 F93C      04CD4        6228        BC    UNCOND,QLFGET               -QLFGET                        50430021
                                    6229 *                                                                       50440021
 004D20 D200 2000 7001 00000 00001  6230 QLPMV2   MVC   DX0(LX0,R2),DX1(JG)        MOVE TO WORK AREA             50450021
                                    6231 *                                                                       50460021
 004D26 D200 5001 7001 00001 00001  6232 QLPMOV   MVC   DX1(LX0,JE),DX1(JG)        'EX' MOVE                     50470021
                                    6233 *                                                                       50480021
 004D2C 9101 D284      00B24        6234 QLTEND   TM    REPQSW,XX01               REPLACING                      50490021
 004D30 4780 F9A6      04D3E        6235        BC    ZERO,QLTEN2                NO                              50500021
 004D34 0640                        6236        BCTR  JD,JR                      REDUCE FOR EX                   50510021
 004D36 4440 F988      04D20        6237        EX    JD,QLPMV2                                                  50520021
 004D3A 47F0 F8E6      04C7E        6238        B     PROGN2                     GO TO END OF COPY QUAL ENTRY    50530021
 004D3E 4980 C136      01796        6239 QLTEN2 CH    JH,HWONE                   MORE THAN ONE QUAL NM           50540021
 004D42 4780 F9B2      04D4A        6240        BC    EQ,PROQSW                   NO-PROQSW                      50550021
 004D46 9680 D27B      00B1B        6241          OI    DSQLSW,XX80               SET DSQLSW 'ON'                50560021
 004D4A 9640 D27B      00B1B        6242 PROQSW   OI    QLPNSW,XX40               SET QLPNSW 'ON'                50570021
 004D4E 47F0 F8D4      04C6C        6243        BC    UNCOND,PROCOD               -PROCOD                        50580021
1PH1B     IKFCBL1B                                                                                              PAGE  145
-  LOC  OBJECT CODE    ADDR1 ADDR2  STMT   SOURCE STATEMENT                                       ASM 0201 11.03 02/14/15
0                                   6245 *=2          VERB SCAN                                                  50600021
                                    6246 *                                                                       50610021
                                    6247 *****    VERB SCAN    *****                                             50620021
                                    6248 *                                                                       50630021
 004D52 94FB D27A      00B1A        6249 VRBSCN   NI    PRDSW,XXFB                SET PRDSW 'OFF'                50640021
 004D56 45E0 B116      0207E        6250        BAL   JP,CHKVRB                  -CHKVRB                         50650021
 004D5A 9531 C581      01BE1        6251          CLI   CURN,XX31                 USE                            50660021
 004D5E 4770 F9D2      04D6A        6252        BC    NOTEQ,VRBDHD                NO-VRBDHD                      50670021
 004D62 9110 D58F      00E2F        6253          TM    LCCHAR+NX1,XX10           IN DECLARATIVES                50680021
 004D66 4710 F174      0450C        6254        BC    ONES,USESVB                 YES-USESVB                     50690021
 004D6A 9108 D27A      00B1A        6255 VRBDHD   TM    DHDRSW,XX08               DHDRSW 'ON'                    50700021
 004D6E 4780 F9DE      04D76        6256          BC    ZERO,*+NX8                 NO-*+8                        50710021
 004D72 45E0 9BCC      05ECC        6257        BAL   JP,DUMGEN                  -DUMGEN                         50720021
                                    6258 *                                                                       50730021
                                    6259 *   CHECK FOR VERBS NEEDING SPECIAL HANDLING                            50740021
                                    6260 *                                                                       50750021
 004D76 952F C581      01BE1        6261          CLI   CURN,XX2F                 PROCESS                        50760021
 004D7A 4780 FB88      04F20        6262        BC    EQ,PROSVB                   YES-PROSVB                     50770021
 004D7E 9530 C581      01BE1        6263          CLI   CURN,XX30                 HOLD                           50780021
 004D82 4780 FB88      04F20        6264        BC    EQ,HOLSVB                   YES-HOLSVB                     50790021
 004D86 9511 C581      01BE1        6265          CLI   CURN,XX11                 GO                             50800021
 004D8A 4780 FBA0      04F38        6266        BC    EQ,GOSVB                    YES-GOSVB                      50810021
 004D8E 951C C581      01BE1        6267          CLI   CURN,XX1C                 ALTER                          50820021
 004D92 4780 FC94      0502C        6268        BC    EQ,ALTSVB                   YES-ALTSVB                     50830021
 004D96 9538 C581      01BE1        6269          CLI   CURN,XX38                 PERFORM                        50840021
 004D9A 4780 FCFA      05092        6270        BC    EQ,PRFSVB                   YES-PRFSVB                     50850021
 004D9E 9532 C581      01BE1        6271          CLI   CURN,XX32                 EXIT                           50860021
 004DA2 4780 FD40      050D8        6272        BC    EQ,EXTSVB                   YES-EXTSVB                     50870021
 004DA6 95F7 C581      01BE1        6273          CLI   CURN,XXF7                 NOTE                           50880021
 004DAA 4780 FD60      050F8        6274        BC    EQ,NOTSVB                   YES-NOTSVB                     50890021
 004DAE 955E C581      01BE1        6275          CLI   CURN,XX5E                SEARCH                          50900021
 004DB2 4780 FF16      052AE        6276        BE    SCHSVB                    YES- SCHSVB                      50910021
 004DB6 952E C581      01BE1        6277          CLI   CURN,XX2E                ENTER                           50920021
 004DBA 4780 FF44      052DC        6278        BE    ENRSVB                    YES                              50930021
 004DBE 9529 C581      01BE1        6279          CLI   CURN,XX29                 READY                          50940021
 004DC2 4780 FD54      050EC        6280        BC    EQ,RDYSVB                   YES-RDYSVB                     50950021
 004DC6 953B C581      01BE1        6281          CLI   CURN,XX3B                 *DEBUG                         50960021
 004DCA 4780 FDDE      05176        6282        BC    EQ,DEBSVB                   YES-DEBSVB                     50970021
 004DCE 9527 C581      01BE1        6283          CLI   CURN,XX27                 EXHIBIT                        50980021
 004DD2 4780 9000      05300        6284        BC    EQ,EXHSVB                   YES-EXHSVB                     50990021
 004DD6 9521 C581      01BE1        6285          CLI   CURN,XX21                 OPEN                           51000021
 004DDA 4780 90A6      053A6        6286        BC    EQ,OPNSVB                   YES-OPNSVB                     51010021
 004DDE 9522 C581      01BE1        6287          CLI   CURN,XX22                 CLOSE                          51020021
 004DE2 4780 936A      0566A        6288        BC    EQ,CLOSVB                   YES-CLOSVB                     51030021
 004DE6 9523 C581      01BE1        6289          CLI   CURN,XX23                 WRITE                          51040021
 004DEA 4780 9418      05718        6290        BC    EQ,WRTSVB                   YES-WRTSVB                     51050021
 004DEE 9524 C581      01BE1        6291          CLI   CURN,XX24                 REWRITE                        51060021
 004DF2 4780 9410      05710        6292        BC    EQ,RWRSVB                   YES-RWRSVB                     51070021
 004DF6 952D C581      01BE1        6293          CLI   CURN,XX2D                 CALL                           51080021
 004DFA 4780 FC4E      04FE6        6294        BC    EQ,CALSVB                   YES-CALL                       51090021
 004DFE 9536 C581      01BE1        6295          CLI   CURN,XX36                 SORT                           51100021
 004E02 4780 95A4      058A4        6296        BC    EQ,SRTSVB                   YES-SRTSVB                     51110021
                                    6297 *DEL                                                                    51120021
                                    6298 *DEL                                                                    51130021
 004E06 9520 C581      01BE1        6299          CLI   CURN,XX20                READ                            51140021
1PH1B     IKFCBL1B                                                                                              PAGE  146
-  LOC  OBJECT CODE    ADDR1 ADDR2  STMT   SOURCE STATEMENT                                       ASM 0201 11.03 02/14/15
0004E0A 4780 9704      05A04        6300        BE    REDSVB                    YES- REDSVB                      51150021
 004E0E 9526 C581      01BE1        6301          CLI   CURN,XX26                 DISPLAY                        51160021
 004E12 4780 974E      05A4E        6302        BC    EQ,DSPSVB                   YES-DSPSVB                     51170021
 004E16 952C C581      01BE1        6303          CLI   CURN,XX2C                ENTRY                           51180021
 004E1A 4780 FC66      04FFE        6304        BE    ENTSVB                    YES                              51190021
 004E1E 9525 C581      01BE1        6305          CLI   CURN,XX25                 ACCEPT                         51200021
 004E22 4780 9790      05A90        6306        BC    EQ,ACCSVB                   YES-ACCSVB                     51210021
 004E26 9564 C581      01BE1        6307          CLI   CURN,XX64                 START                          51220021
 004E2A 4780 980E      05B0E        6308        BE    STTSVB                     YES - STTSVB                    51230021
 004E2E 9563 C581      01BE1        6309          CLI   CURN,XX63                 SEEK                           51240021
 004E32 4780 981E      05B1E        6310        BE    SEKSVB                     YES - SEKSVB                    51250021
 004E36 9533 C581      01BE1        6311          CLI   CURN,XX33                 INITIATE                       51260021
 004E3A 4780 9D04      06004        6312        BC    EQ,INIT                    YES-INIT                        51270021
 004E3E 9534 C581      01BE1        6313          CLI   CURN,XX34                 GENERATE                       51280021
 004E42 4780 9D0C      0600C        6314        BC    EQ,GENR                    YES-GENR                        51290021
 004E46 9535 C581      01BE1        6315          CLI   CURN,XX35                 TERMINATE                      51300021
 004E4A 4780 9E72      06172        6316        BC    EQ,TERM                    YES-TERM                        51310021
 004E4E 95F5 C581      01BE1        6317          CLI   CURN,XXF5                COPY                            51320021
 004E52 4770 FAC6      04E5E        6318        BC    NOTEQ,VRBGCN                NO-VRBGCN                      51330021
 004E56 45E0 D930      011D0        6319        BAL   JP,MSG9                    -MSG9                           51340021
 004E5A 47F0 FACE      04E66        6320        BC    UNCOND,VRBGET               -VRBGET                        51350021
 004E5E 45E0 982E      05B2E        6321 VRBGCN BAL   JP,GENSEQ        GEN CARD NUM - F4  SEQ NUM - F2           51360021
 004E62 45E0 B4F4      0245C        6322 VRBGEN BAL   JP,GENA                    -GENA                           51370021
 004E66 D501 C580 C4FE 01BE0 01B5E  6323 VRBGET CLC   CURCOD(LX2),EOSCON        CUR HAS PERIOD?             2392 51380021
 004E6C 4780 FAE0      04E78        6324        BC    EQ,CHKAMR                 YES - CHKAMR                2392 51390021
 004E70 45E0 B000      01F68        6325        BAL   JP,GETWD                  NO - GETWD                  2392 51400021
 004E74 47F0 FB00      04E98        6326        B     VRBENT                    - VRBENT                    2392 51410021
 004E78 9523 C636      01C96        6327 CHKAMR CLI   NXTCOD,XX23               BCD NAME?                   2392 51420021
 004E7C 4770 FAFC      04E94        6328        BC    NOTEQ,VRBEN1              NO - VRBEN1                 2392 51430021
 004E80 9101 C633      01C93        6329        TM    NXTSW,XX01                A-MARGIN?                   2392 51440021
 004E84 4710 FAFC      04E94        6330        BC    ONES,VRBEN1               YES - VRBEN1                2392 51450021
 004E88 45E0 982E      05B2E        6331        BAL   JP,GENSEQ                 GEN CD # - F4 SEQ # - F2    2392 51460021
 004E8C 45E0 DA64      01304        6332        BAL   JP,MSG86                  A-MARGIN MESSAGE            2392 51470021
 004E90 45E0 B000      01F68        6333        BAL   JP,GETWD                  GET WORD                    2392 51480021
 004E94 45E0 B000      01F68        6334 VRBEN1 BAL   JP,GETWD                  GET WORD                    2392 51490021
 004E98 45E0 F0FE      04496        6335 VRBENT BAL   JP,MAJTST                  MAJOR IS '0' TEST               51500021
 004E9C 47F0 FB50      04EE8        6336        BC    UNCOND,VRBMAJ               YES-VRBMAJ                     51510021
 004EA0 9101 C57D      01BDD        6337          TM    CURSW,XX01                 NO-IS IT IN A-MARGIN          51520021
 004EA4 4780 FB18      04EB0        6338        BC    ZERO,VRCENT                 NO-VRCENT                      51530021
 004EA8 45E0 F78E      04B26        6339 VEDENT BAL   JP,CHKLHN                  -CHKLHN                         51540021
 004EAC 47F0 FB2C      04EC4        6340        BC    UNCOND,VRBLHN               YES-VRBLHN                     51550021
 004EB0 94FB D27A      00B1A        6341 VRCENT   NI    PRDSW,XXFB                SET PRDSW 'OFF'                51560021
 004EB4 95A2 C580      01BE0        6342          CLI   CURCOD,XXA2               QUAL BCD NAME                  51570021
 004EB8 4770 FACA      04E62        6343        BC    NOTEQ,VRBGEN                NO-VRBGEN                      51580021
 004EBC 45E0 F900      04C98        6344        BAL   JP,QLFNAM                  -QLFNAM                         51590021
 004EC0 47F0 FACE      04E66        6345        BC    UNCOND,VRBGET               -VRBGET                        51600021
 004EC4 9104 D27A      00B1A        6346 VRBLHN   TM    PRDSW,XX04                PRDSW 'ON'                     51610021
 004EC8 4710 F7CA      04B62        6347        BC    ONES,LHNAM                  YES-LHNAM                      51620021
 004ECC 45E0 9BDA      05EDA        6348        BAL   JP,EOSTGP                  -EOSTGP                         51630021
 004ED0 47F0 F7CA      04B62        6349        BC    UNCOND,LHNAM                -LHNAM                         51640021
 004ED4 9104 D27A      00B1A        6350 VRBEND   TM    PRDSW,XX04                PRDSW 'ON'                     51650021
 004ED8 4710 F6C2      04A5A        6351        BC    ONES,DELIM                  YES-DELIM                      51660021
 004EDC 45E0 9BDA      05EDA        6352        BAL   JP,EOSTGP                  -EOSTGP                         51670021
 004EE0 47F0 F6C2      04A5A        6353        BC    UNCOND,DELIM                -DELIM                         51680021
 004EE4 45E0 B0FC      02064        6354 VRBMAJ1 BAL  JP,EOSTST                  GO TEST FOR END OF SECTION      51690021
1PH1B     IKFCBL1B                                                                                              PAGE  147
-  LOC  OBJECT CODE    ADDR1 ADDR2  STMT   SOURCE STATEMENT                                       ASM 0201 11.03 02/14/15
0004EE8 9544 C580      01BE0        6355 VRBMAJ   CLI   CURCOD,XX44               CRITICAL COBOL WORD            51700021
 004EEC 4770 FB3C      04ED4        6356        BC    NOTEQ,VRBEND                NO-VRBEND                      51710021
 004EF0 9506 C581      01BE1        6357          CLI   CURN,XX06                 EOS                            51720021
 004EF4 4780 FB78      04F10        6358        BC    EQ,VRBPRD                   YES-VRBPRD                     51730021
 004EF8 95F7 C581      01BE1        6359          CLI   CURN,XXF7                 NOTE                           51740021
 004EFC 4770 F9BA      04D52        6360        BC    NOTEQ,VRBSCN                NO-VRBSCN                      51750021
 004F00 9104 D27A      00B1A        6361          TM    PRDSW,XX04                PRDSW 'ON'                     51760021
 004F04 4710 FD60      050F8        6362        BC    ONES,NOTSVB                 YES-NOTSVB                     51770021
 004F08 45E0 B0FC      02064        6363        BAL   JP,EOSTST                  -EOSTST                         51780021
 004F0C 47F0 FD60      050F8        6364        BC    UNCOND,NOTSVB               -NOTSVB                        51790021
 004F10 9104 D27A      00B1A        6365 VRBPRD   TM    PRDSW,XX04                PRDSW 'ON'                     51800021
 004F14 4710 FACE      04E66        6366        BC    ONES,VRBGET                 YES-VRBGET                     51810021
 004F18 9604 D27A      00B1A        6367          OI    PRDSW,XX04                SET PRDSW 'ON'                 51820021
 004F1C 47F0 FACA      04E62        6368        BC    UNCOND,VRBGEN               -VRBSCN                        51830021
1PH1B     IKFCBL1B                                                                                              PAGE  148
-  LOC  OBJECT CODE    ADDR1 ADDR2  STMT   SOURCE STATEMENT                                       ASM 0201 11.03 02/14/15
0                                   6370 *=2          PROCESS-HOLD-GO-ALTER-PERFORM-EXIT-NOTE-*DEBUG             51850021
                                    6371 *=2          READY-EXHIBIT-OPEN-CLOSE-WRITE-REWRITE-SORT-USE            51860021
                                    6372 *                                                                       51870021
                                    6373 *****    PROCESS VERB    *****                                          51880021
                                    6374 *                                                                       51890021
 004F20                             6375 PROSVB   DS    0H                ****   PROCESS NOT IMPLEMENTED ****    51900021
                                    6376 *********************************************************************** 51910021
                                    6377 *PROSVB  BAL   JP,GENSEQ                POSSIBLE                        51920021
                                    6378 *        BAL   JP,GENA                    CODING                        51930021
 004F20 45E0 B000      01F68        6379        BAL   JP,GETWD                   -GETWD                          51940021
                                    6380 *PROSCK  BAL   JP,PRONAM                   WHEN                         51950021
                                    6381 *        B     VRBGET                        IMPLEMENTED                51960021
                                    6382 *        B     VRBENT                                                   51970021
                                    6383 *********************************************************************** 51980021
 004F24 45E0 F0FE      04496        6384          BAL   JP,MAJTST                BYPASS                          51990021
 004F28 47F0 FB4C      04EE4        6385          B     VRBMAJ1                    CODING                        52000021
 004F2C 9101 C57D      01BDD        6386          TM    CURSW,XX01                                               52010021
 004F30 4780 FB88      04F20        6387        BZ    PROSVB                     - PROSUB                        52020021
 004F34 47F0 FB10      04EA8        6388        B     VEDENT                     - VEDENT                        52030021
                                    6389 *                                                                       52040021
                                    6390 *                                                                       52050021
                                    6391 *****    HOLD VERB    *****                                             52060021
                                    6392 *                                                                       52070021
                             04F20  6393 HOLSVB   EQU   PROSVB            *****  HOLD NOT IMPLEMENTED *****      52080021
                                    6394 *********************************************************************** 52090021
                                    6395 *HOLSVB  BAL   JP,GENSEQ                                                52100021
                                    6396 *        BAL   JP,GENA                                                  52110021
                                    6397 *        BAL   JP,GETWD                                                 52120021
                                    6398 *        CLC   CURCOD(2),ALLCON                                         52130021
                                    6399 *        BE    VRBGEN                                                   52140021
                                    6400 *        B     PROSCK                                                   52150021
                                    6401 *********************************************************************** 52160021
                                    6402 *                                                                       52170021
                                    6403 *****    GO TO VERB    *****                                            52180021
                                    6404 *                                                                       52190021
 004F38 94FE D27A      00B1A        6405 GOSVB    NI    PLHNSW,XXFE               SET PLHNSW 'OFF'               52200021
 004F3C 9102 C57D      01BDD        6406          TM    CURSW,XX02                WAS LAST WORD A 'LHN'          52210021
 004F40 4780 FBB0      04F48        6407        BC    ZERO,GOGENA                 NO-GOGENA                      52220021
 004F44 9601 D27A      00B1A        6408          OI    PLHNSW,XX01               SET PLHNSW 'ON'                52230021
 004F48 45E0 982E      05B2E        6409 GOGENA BAL   JP,GENSEQ        GEN CARD NUM - F4  SEQ NUM - F2           52240021
 004F4C 45E0 B4F4      0245C        6410        BAL   JP,GENA                    -GENA 'GO TO'                   52250021
 004F50 45E0 B000      01F68        6411        BAL   JP,GETWD                   -GETWD                          52260021
 004F54 D501 C580 A06B 01BE0 02533  6412          CLC   CURCOD(LX2),TOCON         'TO'                           52270021
 004F5A 4770 FBCE      04F66        6413        BC    NOTEQ,GOPRON                NO-GOPRON                      52280021
 004F5E 45E0 B4F4      0245C        6414        BAL   JP,GENA                    -GENA                           52290021
 004F62 45E0 B000      01F68        6415        BAL   JP,GETWD                   -GETWD                          52300021
 004F66 45E0 F8A2      04C3A        6416 GOPRON BAL   JP,PRONAM                  -PRONAM                         52310021
 004F6A 47F0 FC04      04F9C        6417        BC    UNCOND,GOGET                YES-GOGET                      52320021
 004F6E 9101 D27A      00B1A        6418 GOLHSW   TM    PLHNSW,XX01               PRECEDED BY LHN                52330021
 004F72 4780 FB00      04E98        6419        BC    ZERO,VRBENT                 NO-VRBENT                      52340021
 004F76 D501 C580 C4FE 01BE0 01B5E  6420          CLC   CURCOD(LX2),EOSCON        EOS                            52350021
 004F7C 4780 FBF8      04F90        6421        BC    EQ,GOSETG                   YES-GOSETG                     52360021
 004F80 45E0 F0FE      04496        6422        BAL   JP,MAJTST                  MAJOR IS '0' TEST               52370021
 004F84 4780 FBF8      04F90        6423        BC    ZERO,GOSETG                 YES--GOSETG                    52380021
 004F88 9101 C57D      01BDD        6424          TM    CURSW,XX01                NO-IS I0 IN A-MARGIN           52390021
1PH1B     IKFCBL1B                                                                                              PAGE  149
-  LOC  OBJECT CODE    ADDR1 ADDR2  STMT   SOURCE STATEMENT                                       ASM 0201 11.03 02/14/15
0004F8C 4780 FB00      04E98        6425        BC    ZERO,VRBENT                 NO-VRBENT                      52400021
 004F90 9608 D5BC      00E5C        6426 GOSETG   OI    PNCHAR,XX08               SET CHAR 'G'                   52410021
 004F94 45E0 9928      05C28        6427        BAL   JP,ATRLNT                  -ATRLNT 'PUT IN PNTABL'         52420021
 004F98 47F0 FB00      04E98        6428        BC    UNCOND,VRBENT               -VRBENT                        52430021
 004F9C 45E0 B000      01F68        6429 GOGET  BAL   JP,GETWD                   -GETWD                          52440021
 004FA0 45E0 F8A2      04C3A        6430        BAL   JP,PRONAM                  -PRONAM                         52450021
 004FA4 47F0 FC1E      04FB6        6431        BC    UNCOND,GOPRNM               YES-GOPRNM                     52460021
 004FA8 D501 C580 A806 01BE0 02CCE  6432        CLC   CURCOD(LX2),DEPNCN        NO, IS WORD 'DEPENDING'?         52470021
 004FAE 4780 FC34      04FCC        6433        BC    EQ,DEPEND                 YES - DEPEND                     52480021
 004FB2 47F0 FBD6      04F6E        6434        BC    UNCOND,GOLHSW               -GOLHSW                        52490021
 004FB6 45E0 B000      01F68        6435 GOPRNM BAL   JP,GETWD                   -GETWD                          52500021
 004FBA 45E0 F8A2      04C3A        6436        BAL   JP,PRONAM                  -PRONAM                         52510021
 004FBE 47F0 FC1E      04FB6        6437        BC    UNCOND,GOPRNM               YES-GOPRNM                     52520021
 004FC2 D501 C580 A806 01BE0 02CCE  6438        CLC   CURCOD(LX2),DEPNCN        NO, IS WORD 'DEPENDING'?         52530021
 004FC8 4770 FB00      04E98        6439        BNE   VRBENT                    NO, GO TO VRBENT                 52540021
 004FCC D501 C636 A043 01C96 0250B  6440 DEPEND CLC   NXTCOD(LX2),ONCON         YES,IS 'ON' AFTER 'DEPENDING'?   52550021
 004FD2 4770 FB00      04E98        6441        BNE   VRBENT                    NO,GO CHECK FOR MAJOR VERB       52560021
 004FD6 45E0 B4F4      0245C        6442        BAL   JP,GENA                   YES,PUT OUT IC-TEXT FOR DEPNG    52570021
 004FDA 45E0 B000      01F68        6443        BAL   JP,GETWD                  GET WORD                         52580021
 004FDE 45E0 B4F4      0245C        6444        BAL   JP,GENA                   PUT 'ON' ON IC-TEXT              52590021
 004FE2 47F0 FACE      04E66        6445        B     VRBGET                    CONTINUE SCAN                    52600021
                                    6446 *                                                                       52610021
                                    6447 **************      CALL VERB           ************                    52620021
                                    6448 *                                                                       52630021
 004FE6 45E0 982E      05B2E        6449 CALSVB BAL   JP,GENSEQ                  GO TO GENERATE  SEQ NUM         52640021
 004FEA 45E0 B4F4      0245C        6450        BAL   JP,GENA                    GEN CALL                        52650021
 004FEE 45E0 B000      01F68        6451        BAL   JP,GETWD                  GET NEXT WORD                    52660021
 004FF2 45E0 B15E      020C6        6452        BAL   JP,EXTNA3                 CHECK EXTERNAL NAME              52670021
 004FF6 47F0 FACA      04E62        6453        B     VRBGEN                    YES                              52680021
 004FFA 47F0 FACE      04E66        6454        B     VRBGET                    NO                               52690021
                                    6455 *                                                                       52700021
                                    6456 *                                                                       52710021
                                    6457 *********************       ENTRY VERB      *****************           52720021
                                    6458 *                                                                       52730021
 004FFE 45E0 982E      05B2E        6459 ENTSVB BAL   JP,GENSEQ                 GEN CARD NUM - F4 SEQ NUM -      52740021
 005002 45E0 B4F4      0245C        6460        BAL   JP,GENA                    PUT ON  FILE 2 - GEN CALL       52750021
 005006 45E0 B000      01F68        6461        BAL   JP,GETWD                   GET NEXT WORD                   52760021
 00500A 45E0 B15E      020C6        6462        BAL   JP,EXTNA3                 CHECK EXTERNAL NAME              52770021
 00500E 47F0 FC7E      05016        6463        B     *+8                       YES                              52780021
 005012 47F0 FACE      04E66        6464        B     VRBGET                    NO                               52790021
 005016 5810 C6B0      01D10        6465        L     R1,COSADR                                                  52800021
 00501A D507 C55F 1150 01BBF 00150  6466          CLC   CURWD(LX8),PROGID        LITERAL = PROGRAM-ID            52810021
 005020 4770 FB00      04E98        6467        BNE   VRBENT                    NO                               52820021
 005024 45E0 DB84      01424        6468        BAL   JP,MSG158                  -ENTRY STMT ERROR               52830021
 005028 47F0 FACE      04E66        6469        B     VRBGET                     GET VERB RTN                    52840021
                                    6470 *****    ALTER VERB    *****                                            52850021
                                    6471 *                                                                       52860021
 00502C 45E0 982E      05B2E        6472 ALTSVB BAL   JP,GENSEQ        GEN CARD NUM - F4  SEQ NUM - F2           52870021
 005030 45E0 B4F4      0245C        6473        BAL   JP,GENA                    -GENA 'ALTER'                   52880021
 005034 45E0 B000      01F68        6474 ALTGET BAL   JP,GETWD                   -GETWD                          52890021
 005038 45E0 F8A2      04C3A        6475        BAL   JP,PRONAM                  -PRONAM                         52900021
 00503C 47F0 FCAC      05044        6476          BC    UNCOND,*+NX8               YES-*+8                       52910021
 005040 47F0 FB00      04E98        6477        BC    UNCOND,VRBENT               NO-VRBENT                      52920021
 005044 9610 D5BC      00E5C        6478          OI    PNCHAR,XX10               SET CHAR 'A'                   52930021
 005048 45E0 9936      05C36        6479        BAL   JP,ATRENT                  -ATRENT                         52940021
1PH1B     IKFCBL1B                                                                                              PAGE  150
-  LOC  OBJECT CODE    ADDR1 ADDR2  STMT   SOURCE STATEMENT                                       ASM 0201 11.03 02/14/15
000504C 45E0 B000      01F68        6480        BAL   JP,GETWD                   -GETWD                          52950021
 005050 D501 C580 A06B 01BE0 02533  6481          CLC   CURCOD(LX2),TOCON         'TO'                           52960021
 005056 4770 FCCA      05062        6482        BC    NOTEQ,PRCEED                NO-PRCEED                      52970021
 00505A 45E0 B4F4      0245C        6483        BAL   JP,GENA                    -GENA                           52980021
 00505E 45E0 B000      01F68        6484        BAL   JP,GETWD                   -GETWD                          52990021
 005062 D501 C580 A64A 01BE0 02B12  6485 PRCEED   CLC   CURCOD(LX2),PRCDCN        'PROCEED'                      53000021
 005068 4770 FCDC      05074        6486        BC    NOTEQ,TOCNCK                NO-TOCNCK                      53010021
 00506C 45E0 B4F4      0245C        6487        BAL   JP,GENA                    -GENA                           53020021
 005070 45E0 B000      01F68        6488        BAL   JP,GETWD                   -GETWD                          53030021
 005074 D501 C580 A06B 01BE0 02533  6489 TOCNCK   CLC   CURCOD(LX2),TOCON         'TO'                           53040021
 00507A 4770 FCEE      05086        6490        BC    NOTEQ,PRNMCK                NO-PRNMCK                      53050021
 00507E 45E0 B4F4      0245C        6491        BAL   JP,GENA                    -GENA                           53060021
 005082 45E0 B000      01F68        6492        BAL   JP,GETWD                   -GETWD                          53070021
 005086 45E0 F8A2      04C3A        6493 PRNMCK BAL   JP,PRONAM                  -PRONAM                         53080021
 00508A 47F0 FC9C      05034        6494        BC    UNCOND,ALTGET               YES-ALTGET                     53090021
 00508E 47F0 FB00      04E98        6495        BC    UNCOND,VRBENT               NO-VRBENT                      53100021
                                    6496 *                                                                       53110021
                                    6497 *****    PERFORM VERB    *****                                          53120021
                                    6498 *                                                                       53130021
 005092 45E0 982E      05B2E        6499 PRFSVB BAL   JP,GENSEQ        GEN CARD NUM - F4  SEQ NUM - F2           53140021
 005096 45E0 B4F4      0245C        6500        BAL   JP,GENA                    -GENA 'PERFORM'                 53150021
 00509A 45E0 B000      01F68        6501        BAL   JP,GETWD                   -GETWD                          53160021
 00509E 45E0 F8A2      04C3A        6502        BAL   JP,PRONAM                  -PRONAM                         53170021
 0050A2 47F0 FD12      050AA        6503          BC    UNCOND,*+NX8               YES-*+8                       53180021
 0050A6 47F0 FB00      04E98        6504        BC    UNCOND,VRBENT               NO-VRBENT                      53190021
 0050AA D501 C636 A242 01C96 0270A  6505          CLC   NXTCOD(LX2),THRUCN        'THRU'                         53200021
 0050B0 4770 FD34      050CC        6506        BC    NOTEQ,PRFSET                NO-PRFSET                      53210021
 0050B4 45E0 B000      01F68        6507        BAL   JP,GETWD                   -GETWD                          53220021
 0050B8 45E0 B4F4      0245C        6508        BAL   JP,GENA                    -GENA                           53230021
 0050BC 45E0 B000      01F68        6509        BAL   JP,GETWD                   -GETWD                          53240021
 0050C0 45E0 F8A2      04C3A        6510        BAL   JP,PRONAM                  -PRONAM                         53250021
 0050C4 47F0 FD34      050CC        6511        BC    UNCOND,PRFSET               YES-PRFSET                     53260021
 0050C8 47F0 FB00      04E98        6512        BC    UNCOND,VRBENT               NO-VRBENT                      53270021
 0050CC 9620 D5BC      00E5C        6513 PRFSET   OI    PNCHAR,XX20               SET CHAR 'P'                   53280021
 0050D0 45E0 9936      05C36        6514        BAL   JP,ATRENT                  -ATRENT                         53290021
 0050D4 47F0 FACE      04E66        6515        BC    UNCOND,VRBGET               -VRBGET                        53300021
                                    6516 *                                                                       53310021
                                    6517 *****    EXIT VERB    *****                                             53320021
                                    6518 *                                                                       53330021
 0050D8 9102 C57D      01BDD        6519 EXTSVB   TM    CURSW,XX02                WAS LAST WORD A 'LHN'          53340021
 0050DC 4780 FAC6      04E5E        6520        BC    ZERO,VRBGCN                    VERB     GEN                53350021
 0050E0 9604 D5BC      00E5C        6521          OI    PNCHAR,XX04               SET CHAR 'E'                   53360021
 0050E4 45E0 9928      05C28        6522        BAL   JP,ATRLNT                  -ATRLNT                         53370021
 0050E8 47F0 FAC6      04E5E        6523        BC    UNCOND,VRBGCN              GO TO VERB GEN                  53380021
                                    6524 *                                                                       53390021
                                    6525 *****     READY     *****                                               53400021
                                    6526 *                                                                       53410021
 0050EC 5810 C6B0      01D10        6527 RDYSVB L     JA,COSADR                   COS ADDRESS                    53420021
 0050F0 9680 1182      00182        6528          OI    SWITCH,XX80             )                                53430021
 0050F4 47F0 FAC6      04E5E        6529        BC    UNCOND,VRBGCN               -RETURN                        53440021
                                    6530 *                                                                       53450021
                                    6531 *****    NOTE VERB    *****                                             53460021
                                    6532 *                                                                       53470021
 0050F8 9602 D27E      00B1E        6533 NOTSVB   OI    NOTESW,XX02               SET 'ON' NOTESW                53480021
 0050FC 947F D27F      00B1F        6534          NI    NOLHSW,XX7F               SET 'OFF' NOLHSW               53490021
1PH1B     IKFCBL1B                                                                                              PAGE  151
-  LOC  OBJECT CODE    ADDR1 ADDR2  STMT   SOURCE STATEMENT                                       ASM 0201 11.03 02/14/15
0005100 9102 C57D      01BDD        6535          TM    CURSW,XX02                WAS LAST A LHN                 53500021
 005104 4710 FD74      0510C        6536        BC    ONES,NOTGET                 YES-NOTGET                     53510021
 005108 9680 D27F      00B1F        6537          OI    NOLHSW,XX80               SET 'ON' NOLHSW                53520021
 00510C 45E0 B000      01F68        6538 NOTGET BAL   JP,GETWD                   -GETWD                          53530021
 005110 9602 D27E      00B1E        6539          OI    NOTESW,XX02                                              53540021
 005114 D501 C580 C4FE 01BE0 01B5E  6540          CLC   CURCOD(LX2),EOSCON        EOS                            53550021
 00511A 4770 FD8E      05126        6541        BC    NOTEQ,NOTOFF                NO-NOTOFF                      53560021
 00511E 9104 C57D      01BDD        6542          TM    CURSW,XX04                FOLLOWED BY BLANK              53570021
 005122 4780 FDC2      0515A        6543        BC    EQ,NOTBLK                   YES-NOTBLK                     53580021
 005126 94FB D27A      00B1A        6544 NOTOFF   NI    PRDSW,XXFB                SET'OFF'PRDSW                  53590021
 00512A 9101 C57D      01BDD        6545 NOTAMG   TM    CURSW,XX01                IN A-MARGIN                    53600021
 00512E 4780 FD74      0510C        6546        BC    ZERO,NOTGET                 NO-NOTGET                      53610021
 005132 9542 C580      01BE0        6547          CLI   CURCOD,XX42               '42' WORD                      53620021
 005136 4780 FDAE      05146        6548        BC    EQ,NOTEXT                   YES-NOTEXT                     53630021
 00513A 45E0 F78E      04B26        6549        BAL   JP,CHKLHN                  -CHKLHN                         53640021
 00513E 47F0 FDAE      05146        6550        BC    UNCOND,NOTEXT               YES-NOTEXT                     53650021
 005142 47F0 FD74      0510C        6551        BC    UNCOND,NOTGET               NO-NOTEXT                      53660021
 005146 94FD D27E      00B1E        6552 NOTEXT   NI    NOTESW,XXFD               SET 'OFF' NOTESW               53670021
 00514A 9104 D27A      00B1A        6553          TM    PRDSW,XX04                PRDSW 'ON'                     53680021
 00514E 4710 F6C2      04A5A        6554        BC    ONES,DELIM                  YES-DELIM                      53690021
 005152 45E0 D9B8      01258        6555        BAL   JP,MSG43                   -MSG43                          53700021
 005156 47F0 F6C2      04A5A        6556        BC    UNCOND,DELIM                -DELIM                         53710021
 00515A 9604 D27A      00B1A        6557 NOTBLK   OI    PRDSW,XX04                SET 'ON' PRDSW                 53720021
 00515E 9180 D27F      00B1F        6558          TM    NOLHSW,XX80               NOLHSW 'ON'                    53730021
 005162 4710 FDD6      0516E        6559        BC    ONES,NOTEND                 YES-NOTEND                     53740021
 005166 45E0 B000      01F68        6560        BAL   JP,GETWD                   -GETWD                          53750021
 00516A 47F0 FD92      0512A        6561        BC    UNCOND,NOTAMG               -NOTAMG                        53760021
 00516E 94FD D27E      00B1E        6562 NOTEND   NI    NOTESW,XXFD               SET 'OFF' NOTESW               53770021
 005172 47F0 F6C2      04A5A        6563        BC    UNCOND,DELIM                -DELIM                         53780021
                                    6564 *                                                                       53790021
                                    6565 *****     *DEBUG VERB     *****                                         53800021
                                    6566 *                                                                       53810021
 005176 45E0 9BCC      05ECC        6567 DEBSVB BAL   JP,DUMGEN                  -DUMGEN                         53820021
 00517A 9200 D592      00E32        6568          MVI   LCRPD,XX00                SET RPD TO 0                   53830021
 00517E 9110 D27B      00B1B        6569          TM    DEBGSW,XX10               IS IT 1ST '*DEBUG'             53840021
 005182 4710 FDFE      05196        6570        BC    ONES,DEBGEN                 NO-DEBGEN                      53850021
 005186 4160 C507      01B67        6571        LA    JF,DEBSCT                   YES-GENERATE                   53860021
 00518A 45E0 B4F8      02460        6572        BAL   JP,GENB                      DEBUG HEADER '4209'           53870021
 00518E 9610 D27B      00B1B        6573          OI    DEBGSW,XX10               SET 'ON' DEBGSW  SHOWS HDR     53880021
 005192 9640 D58F      00E2F        6574          OI    LCCHAR+NX1,XX40           DEFINE FUTURE PN AS BEING D    53890021
 005196 94E0 D58F      00E2F        6575 DEBGEN   NI    LCCHAR+NX1,XXE0           CLEAR LAST 5 BITS              53900021
 00519A 45E0 982E      05B2E        6576        BAL   JP,GENSEQ                  -GENSEQ                         53910021
 00519E 45E0 B4F4      0245C        6577        BAL   JP,GENA                    -GENA                           53920021
 0051A2 9608 D27A      00B1A        6578          OI    DHDRSW,XX08               SET 'ON' DHDRSW (GEN SECT H    53930021
 0051A6 D501 C57E C634 01BDE 01C94  6579          CLC   CURGCN(LX2),NXTGCN        NEXT ON SAME CARD              53940021
 0051AC 4780 FE30      051C8        6580        BC    EQ,DEBPNM                   YES-DEBPNM                     53950021
 0051B0 D201 C4FC C134 01B5C 01794  6581          MVC   ERRCOD+NX1(LX2),HWZERO     SET UP ERRCOD B90000          53960021
 0051B6 4160 C4FB      01B5B        6582        LA    JF,ERRCOD                                                  53970021
 0051BA D201 C580 A29C 01BE0 02764  6583          MVC   CURCOD(LX2),BLNKCN        MAKE CODE BLANK FOR MSG20      53980021
 0051C0 45E0 B4F8      02460        6584        BAL   JP,GENB                    -GENB                           53990021
 0051C4 47F0 FED2      0526A        6585        BC    UNCOND,DEBM20               -DEBM20                        54000021
 0051C8 45E0 B000      01F68        6586 DEBPNM BAL   JP,GETWD                   -GETWD                          54010021
 0051CC 45E0 F8AA      04C42        6587        BAL   JP,PRONMD                  -PRONMD (IS IT A PN)            54020021
 0051D0 47F0 FE44      051DC        6588        BC    UNCOND,DEBYES               YES-DEBYES                     54030021
 0051D4 45E0 B4F4      0245C        6589        BAL   JP,GENA                     -GENA                          54040021
1PH1B     IKFCBL1B                                                                                              PAGE  152
-  LOC  OBJECT CODE    ADDR1 ADDR2  STMT   SOURCE STATEMENT                                       ASM 0201 11.03 02/14/15
00051D8 47F0 FF04      0529C        6590        BC    UNCOND,DEBOUT               NO-DEBOUT                      54050021
                             051DC  6591 DEBYES EQU   *                                                          54060021
                                    6592 *                                                                       54070021
 0051DC D21E D59C C55E 00E3C 01BBE  6593          MVC   PNBCDN(LX31),CURCNT       PM TO WORK AREA                54080021
 0051E2 9140 D27B      00B1B        6594          TM    QLPNSW,XX40               QUAL PN                        54090021
 0051E6 4780 FE88      05220        6595        BC    ZERO,DEBPTA                 NO-DEBPTA                      54100021
                                    6596 *                                                                       54110021
 0051EA D202 D565 D5E3 00E05 00E83  6597          MVC   LNMBCD+NX1(LX3),PNBCQN     ADDR OF QUALIFIER TO PARAM    54120021
 0051F0 4110 D564      00E04        6598        LA    JA,LNMBCD                  ADDR OF PARAM                   54130021
 0051F4 58F0 C6E0      01D40        6599        L     JQ,LDELCN                  CALL                            54140021
 0051F8 05EF                        6600        BALR  JP,JQ                       LDELNM                         54150021
 0051FA 12FF                        6601        LTR   JQ,JQ                      SECTION FOUND                   54160021
 0051FC 58F0 D654      00EF4        6602          L     JQ,SVREG+NX56             RESTORE BASE REG               54170021
 005200 4770 FEBE      05256        6603        BC    NOTZER,DEBBNT               NO-DEBBNT                      54180021
 005204 1211                        6604        LTR   JA,JA                      DELIM IS '0' - NOT BUILT YE     54190021
 005206 4780 FEBE      05256        6605        BC    ZERO,DEBBNT                 YES-DEBBNT                     54200021
                                    6606 *                                                                       54210021
 00520A 5030 D53C      00DDC        6607        ST    JC,GRPPTR                  SECT PTR TO PARAM               54220021
 00520E D202 D539 D5E0 00DD9 00E80  6608          MVC   GRPBCD+NX1(LX3),PNBCNN     ADDR OF PN TO PARAM           54230021
 005214 4110 D538      00DD8        6609        LA    JA,GRPBCD                  ADDR OF PARAM                   54240021
 005218 5820 C6D8      01D38        6610        L     JB,LATGCN                  ADDR OF LATGRP                  54250021
 00521C 47F0 FE96      0522E        6611        BC    UNCOND,DEBPTB               -DEBPTB                        54260021
                                    6612 *                                                                       54270021
 005220 D202 D541 D5E0 00DE1 00E80  6613 DEBPTA   MVC   RNMBCD+NX1(LX3),PNBCNN     ADDR OF PN TO PARAM           54280021
 005226 4110 D540      00DE0        6614        LA    JA,RNMBCD                  ADDR OF PARAM                   54290021
 00522A 5820 C6DC      01D3C        6615        L     JB,LATRCN                  ADDR OF LATRNM                  54300021
 00522E 18F2                        6616 DEBPTB LR    JQ,JB                      CALL                            54310021
 005230 05EF                        6617        BALR  JP,JQ                       LATGRP OR LATRNM               54320021
 005232 12FF                        6618        LTR   JQ,JQ                      PN FOUND                        54330021
 005234 58F0 D654      00EF4        6619          L     JQ,SVREG+NX56             RESTORE BASE REG               54340021
 005238 4770 FEBE      05256        6620        BC    NOTZER,DEBBNT               NO - DEBBNT                    54350021
                                    6621 *                                                                       54360021
 00523C D200 D592 2005 00E32 00005  6622          MVC   LCRPD(LX1),DX5(JB)         GET RPD-NUM FROM DICT TO WO   54370021
 005242 D600 D58F 2002 00E2F 00002  6623          OC    LCCHAR+NX1(LX1),DX2(JB)    GET CHAR FROM DICT TO WORK    54380021
 005248 945F D58F      00E2F        6624          NI    LCCHAR+NX1,XX5F           MAKE B AND X 0'S               54390021
 00524C 9680 2002      00002        6625          OI    DX2(JB),XX80              SET B TO 1 (REF BY *DEBUG)     54400021
 005250 D701 D5BC D5BC 00E5C 00E5C  6626          XC    PNCHAR(LX2),PNCHAR        CLEAR CHAR WORK AREA           54410021
                                    6627 *                                                                       54420021
 005256 45E0 FEDA      05272        6628 DEBBNT BAL   JP,DEBNXT                  -DEBNXT  (NXT WD ON SAME CA     54430021
 00525A 45E0 B4F4      0245C        6629        BAL   JP,GENA                    -GENA                           54440021
 00525E 45E0 FEDA      05272        6630        BAL   JP,DEBNXT                  -DEBNXT  (NXT WD ON SAME CA     54450021
 005262 45E0 D960      01200        6631 DEBM21 BAL   JP,MSG21                   -MSG21                          54460021
 005266 47F0 FF04      0529C        6632        BC    UNCOND,DEBOUT               -DEBOUT                        54470021
 00526A 45E0 D95C      011FC        6633 DEBM20 BAL   JP,MSG20                   -MSG20                          54480021
 00526E 47F0 FF04      0529C        6634        BC    UNCOND,DEBOUT               -DEBOUT                        54490021
                                    6635 *                                                                       54500021
 005272 50E0 D698      00F38        6636 DEBNXT ST    JP,SV1F02                  SAVE LINK REG                   54510021
 005276 D501 C57E C634 01BDE 01C94  6637 DEBNTA   CLC   CURGCN(LX2),NXTGCN        NEXT WD ON SAME CARD           54520021
 00527C 4770 F6CC      04A64        6638        BC    NOTEQ,DLAENT                NO-DLAENT                      54530021
 005280 45E0 B000      01F68        6639        BAL   JP,GETWD                   -GETWD                          54540021
 005284 D501 C580 C4FE 01BE0 01B5E  6640          CLC   CURCOD(LX2),EOSCON        EOS                            54550021
 00528A 4770 FEFE      05296        6641        BC    NOTEQ,DEBNTB                NO-DEBNTB                      54560021
 00528E 45E0 D964      01204        6642        BAL   JP,MSG22                   -MSG22                          54570021
 005292 47F0 FEDE      05276        6643        BC    UNCOND,DEBNTA               -DEBNTA                        54580021
 005296 58E0 D698      00F38        6644 DEBNTB L     JP,SV1F02                  RESTORE LINK REG                54590021
1PH1B     IKFCBL1B                                                                                              PAGE  153
-  LOC  OBJECT CODE    ADDR1 ADDR2  STMT   SOURCE STATEMENT                                       ASM 0201 11.03 02/14/15
000529A 07FE                        6645        BCR   UNCOND,JP                   -RETURN                        54600021
                                    6646 *                                                                       54610021
 00529C D501 C57E C634 01BDE 01C94  6647 DEBOUT   CLC   CURGCN(LX2),NXTGCN        NEXT WD ON SAME CARD           54620021
 0052A2 4770 F6CC      04A64        6648        BC    NOTEQ,DLAENT                NO-DLAENT                      54630021
 0052A6 45E0 B000      01F68        6649        BAL   JP,GETWD                   -GETWD                          54640021
 0052AA 47F0 FF04      0529C        6650        BC    UNCOND,DEBOUT               -DEBOUT                        54650021
                                    6651 *                                                                       54660021
                                    6652 ****************     SEARCH VERB      **************                    54670021
                                    6653 *                                                                       54680021
 0052AE D501 C636 A07C 01C96 02544  6654 SCHSVB   CLC   NXTCOD(LX2),ALLCON       ALL FOLLOWS SEARCH              54690021
 0052B4 4770 FAC6      04E5E        6655        BNE   VRBGCN                    NO                               54700021
 0052B8 9240 C614      01C74        6656          MVI   NXTCNT,XX40               BLANK OUT NXTCNT               54710021
 0052BC D203 C61B C614 01C7B 01C74  6657          MVC   NXTWD+NX6(LX4),NXTCNT      SET UP FOR 'SEARCH ALL'       54720021
 0052C2 D205 C615 C55F 01C75 01BBF  6658          MVC   NXTWD(LX6),CURWD          'SEARCH' TO NEXT               54730021
 0052C8 920A C614      01C74        6659          MVI   NXTCNT,XX0A               SIZE OF SEARCH ALL             54740021
 0052CC 45E0 B000      01F68        6660        BAL   JP,GETWD                   CALL GTWD                       54750021
 0052D0 9244 C580      01BE0        6661          MVI   CURCOD,XX44               MAKE CURRENT A VERB            54760021
 0052D4 925F C581      01BE1        6662          MVI   CURN,XX5F                 CODE FOR SEARCH ALL            54770021
 0052D8 47F0 FAC6      04E5E        6663        B     VRBGCN                     GO TO VERB GEN                  54780021
                                    6664 *                                                                       54790021
                                    6665 *                                                                       54800021
                                    6666 *************     ENTER VERB      *************                         54810021
                                    6667 *                                                                       54820021
 0052DC 45E0 982E      05B2E        6668 ENRSVB BAL   JP,GENSEQ                 GEN CARD NUM - F4 SEQ NUM -      54830021
 0052E0 45E0 B000      01F68        6669        BAL   JP,GETWD                  GET LANGUAGE NAME                54840021
 0052E4 45E0 B000      01F68        6670        BAL   JP,GETWD                  GET ROUTINE NAME                 54850021
 0052E8 45E0 F0FE      04496        6671        BAL   JP,MAJTST                 MAJOR IS '0'                     54860021
 0052EC 47F0 FB50      04EE8        6672        B     VRBMAJ                    YES                              54870021
 0052F0 9101 C57D      01BDD        6673          TM    CURSW,XX01               IN A MARGIN                     54880021
 0052F4 4780 FACE      04E66        6674        BZ    VRBGET                    NO MUST BE ROUTINE NAME          54890021
 0052F8 47F0 FB10      04EA8        6675        B     VEDENT                     - VEDENT                        54900021
1PH1B     IKFCBL1B                                                                                              PAGE  154
-  LOC  OBJECT CODE    ADDR1 ADDR2  STMT   SOURCE STATEMENT                                       ASM 0201 11.03 02/14/15
0005300                             6677 IKF108 CSECT                                                            54920021
                                    6678 *****     EXHIBIT VERB     *****                                        54930021
                                    6679 *                                                                       54940021
 005300 94FD D278      00B18        6680 EXHSVB   NI    NAMDSW,XXFD               SET'OFF'NAMDSW                 54950021
 005304 45E0 982E      05B2E        6681        BAL   JP,GENSEQ                  -GENSEQ                         54960021
 005308 45E0 96BE      059BE        6682 EXGETA BAL   JP,CHKOUT                  -CHKOUT                         54970021
 00530C D501 C580 A578 01BE0 02A40  6683          CLC   CURCOD(LX2),CHGCON        CHANGED                        54980021
 005312 4770 901A      0531A        6684        BC    NOTEQ,EXSWNM                NO-EXSWNM                      54990021
 005316 45E0 96BE      059BE        6685        BAL   JP,CHKOUT                  -CHKOUT                         55000021
 00531A 9102 D278      00B18        6686 EXSWNM   TM    NAMDSW,XX02               NAMDSW IS 'ON'                 55010021
 00531E 4780 9026      05326        6687        BC    ZERO,EXNAME                 NO-EXNAME                      55020021
 005322 47F0 903C      0533C        6688        BC    UNCOND,EXALPH               -EXALPH                        55030021
 005326 D501 C580 A344 01BE0 0280C  6689 EXNAME   CLC   CURCOD(LX2),NAMCON        NAMED                          55040021
 00532C 4770 9756      05A56        6690        BC    NOTEQ,DSPEXH                NO-DSPEXH                      55050021
 005330 9602 D278      00B18        6691          OI    NAMDSW,XX02               SET'ON'NAMDSW                  55060021
 005334 47F0 9008      05308        6692        BC    UNCOND,EXGETA               -EXGETA                        55070021
 005338 45E0 96BE      059BE        6693 EXGENA BAL   JP,CHKOUT                  -CHKOUT  (A-MARG OR MAJ-0)      55080021
 00533C 9533 C580      01BE0        6694 EXALPH   CLI   CURCOD,XX33               FLOAT PNT LIT                  55090021
 005340 4770 904E      0534E        6695        BC    NOTEQ,EXTALY                NO-EXTALY                      55100021
 005344 D21E C581 C55E 01BE1 01BBE  6696          MVC   CURN(LX31),CURCNT         PUT IN BCD FORM                55110021
 00534A 47F0 9038      05338        6697        BC    UNCOND,EXGENA               -EXGENA                        55120021
 00534E 9579 C580      01BE0        6698 EXTALY   CLI   CURCOD,XX79               '79' CODE                      55130021
 005352 4770 906E      0536E        6699        BC    NOTEQ,EXBCDN                NO-EXBCDN                      55140021
 005356 45E0 B4F4      0245C        6700        BAL   JP,GENA                    -GENA                           55150021
 00535A 9235 C55D      01BBD        6701          MVI   CURNUM+NX5,XX35           SET CODE '35'                  55160021
 00535E 4160 C55D      01BBD        6702          LA    JF,CURNUM+NX5             ADDR OF '35' FIELD             55170021
 005362 45E0 B4F8      02460        6703        BAL   JP,GENB                    -GENB                           55180021
 005366 45E0 96B6      059B6        6704        BAL   JP,CHKIN                   -CHKIN                          55190021
 00536A 47F0 903C      0533C        6705        BC    UNCOND,EXALPH               -EXALPH                        55200021
 00536E 9523 C580      01BE0        6706 EXBCDN   CLI   CURCOD,XX23               BCD-NAME                       55210021
 005372 4770 9082      05382        6707        BC    NOTEQ,EXQBCD                NO-EXQBCD                      55220021
 005376 45E0 B4F4      0245C        6708        BAL   JP,GENA                    -GENA                           55230021
 00537A 9235 C580      01BE0        6709          MVI   CURCOD,XX35               SET CODE TO '35'               55240021
 00537E 47F0 9038      05338        6710        BC    UNCOND,EXGENA               -EXGENA                        55250021
 005382 95A2 C580      01BE0        6711 EXQBCD   CLI   CURCOD,XXA2               QUAL-NAME                      55260021
 005386 4770 9038      05338        6712        BC    NOTEQ,EXGENA                NO-EXGENA                      55270021
 00538A 45E0 F900      04C98        6713        BAL   JP,QLFNAM                  -QLFNAM---GENB OF 22'S AND      55280021
 00538E 4217 0000      00000        6714          STC   JA,DX0(JG)                PUT LENGTH IN 'N' BYTE         55290021
 005392 0670                        6715        BCTR  JG,JR                       MOVE POINTER TO CODE BYTE      55300021
 005394 1867                        6716        LR    JF,JG                      ADDR OF CODE BYTE TO REG JF     55310021
 005396 45E0 B4F8      02460        6717        BAL   JP,GENB                    -GENB                           55320021
 00539A 9200 7001      00001        6718          MVI   DX1(JG),XX00              RESET 2ND TABLE BYTE TO ZER    55330021
 00539E 45E0 96B6      059B6        6719        BAL   JP,CHKIN                   -CHKIN  (A-MARIN OR MAJ-0)      55340021
 0053A2 47F0 903C      0533C        6720        BC    UNCOND,EXALPH               -EXALPH                        55350021
                                    6721 *                                                                       55360021
                                    6722 *****     OPEN VERB     *****                                           55370021
                                    6723 *                                                                       55380021
 0053A6 45E0 982E      05B2E        6724 OPNSVB BAL   JP,GENSEQ                  -GENSEQ                         55390021
 0053AA D703 D7E0 D7E0 01080 01080  6725        XC    PIOCOD,PIOCOD              CLEAR CODE AREA                 55400021
 0053B0 D709 D842 D842 010E2 010E2  6726          XC    OPNGNS(LX10),OPNGNS      ZERO OUT GNS                    55410021
 0053B6 9554 C636      01C96        6727        CLI   NXTCOD,XX54               COBOL WORD?                 1889 55420021
 0053BA 4770 90D6      053D6        6728        BC    NOTEQ,OPENER              NO - OPENER                 1889 55430021
 0053BE 9566 C637      01C97        6729        CLI   NXTN,XX66                 INPUT?                      1889 55440021
 0053C2 4780 9116      05416        6730        BC    EQ,OPNGEN                 YES - OPNGEN                1889 55450021
 0053C6 9564 C637      01C97        6731        CLI   NXTN,XX64                 OUTPUT?                     1889 55460021
1PH1B     IKFCBL1B                                                                                              PAGE  155
-  LOC  OBJECT CODE    ADDR1 ADDR2  STMT   SOURCE STATEMENT                                       ASM 0201 11.03 02/14/15
00053CA 4780 9116      05416        6732        BC    EQ,OPNGEN                 YES - OPNGEN                1889 55470021
 0053CE 956B C637      01C97        6733        CLI   NXTN,XX6B                 I-O?                        1889 55480021
 0053D2 4780 9116      05416        6734        BC    EQ,OPNGEN                 YES - OPNGEN                1889 55490021
 0053D6 D21E D326 C55E 00BC6 01BBE  6735 OPENER MVC   CLSNM(LX31),CURCNT        PUT 'OPEN' IN CLSNM         1889 55500021
 0053DC 45E0 B000      01F68        6736        BAL   JP,GETWD                  PUT INVALID WORD IN CUR FIELD    55510021
 0053E0 45E0 D950      011F0        6737        BAL   JP,MSG17                  INVALID WORD MESSAGE        1889 55520021
 0053E4 D501 C636 C4FE 01C96 01B5E  6738          CLC   NXTCOD(LX2),EOSCON PERIOD NEXT CODE??              07236 55530021
 0053EA 4780 FACE      04E66        6739          BC    EQ,VRBGET         YES-GET NEXT VERB                07236 55540021
 0053EE 45E0 B000      01F68        6740 SKPOPN BAL   JP,GETWD                  GET NEXT WORD               1889 55550021
 0053F2 9130 C636      01C96        6741        TM    NXTCOD,XX30               MAJOR IS 0?                 1889 55560021
 0053F6 4770 90EE      053EE        6742        BNZ   SKPOPN                    NO - SKPOPN                 1889 55570021
 0053FA D501 C636 C4FE 01C96 01B5E  6743        CLC   NXTCOD(LX2),EOSCON        IS NEXT A PERIOD?           1889 55580021
 005400 4780 FACE      04E66        6744        BE    VRBGET                    YES - VRBGET               04431 55590021
 005404 D501 C636 C4F2 01C96 01B52  6745        CLC   NXTCOD(LX2),EOPCON        END SYSIN                  04431 55600021
 00540A 4770 90EE      053EE        6746        BNE   SKPOPN                    NO - CONTINUE EOS SEARCH   04431 55610021
 00540E 45E0 9BDA      05EDA        6747        BAL   JP,EOSTGP                 YES-THEN GENERATE EOS      04431 55620021
 005412 47F0 FACE      04E66        6748        B     VRBGET                    EXIT                       04431 55630021
 005416 45E0 96BE      059BE        6749 OPNGEN BAL   JP,CHKOUT                  -CHKOUT  (A-MARG OR MAJ-0)      55640021
 00541A 9554 C580      01BE0        6750          CLI   CURCOD,XX54               COBOL WORD                     55650021
 00541E 4770 917C      0547C        6751        BC    NOTEQ,OPNCOD                NO-OPNCOD                      55660021
 005422 9566 C581      01BE1        6752          CLI   CURN,XX66                 INPUT                          55670021
 005426 4780 9174      05474        6753        BC    EQ,OPNINP                   YES-OPNINP                     55680021
 00542A 9564 C581      01BE1        6754          CLI   CURN,XX64                 OUTPUT                         55690021
 00542E 4780 916C      0546C        6755        BC    EQ,OPNOUT                   YES-OPNOUT                     55700021
 005432 956B C581      01BE1        6756          CLI   CURN,XX6B                 I-O                            55710021
 005436 4780 9164      05464        6757        BC    EQ,OPNIO                   SET I-O CODE                    55720021
 00543A 956E C581      01BE1        6758          CLI   CURN,XX6E                REVERSED                        55730021
 00543E 4780 915C      0545C        6759        BE    OPNRV1                    YES                              55740021
 005442 956C C581      01BE1        6760          CLI   CURN,XX6C                WITH                            55750021
 005446 4780 9154      05454        6761        BE    OPNRW1                    YES                              55760021
 00544A D501 C636 A039 01C96 02501  6762          CLC   NXTCOD(LX2),NOCON        NO                              55770021
 005450 4770 9116      05416        6763        BNE   OPNGEN                     GO GEN OPEN RTN                 55780021
 005454 9640 5002      00002        6764 OPNRW1   OI    DX2(JE),PIOONR                                           55790021
 005458 47F0 9116      05416        6765        B     OPNGEN                     GO GEN OPEN RTN                 55800021
 00545C 9640 5001      00001        6766 OPNRV1   OI    DX1(JE),PIOOIR           REVERSED BIT ON                 55810021
 005460 47F0 9116      05416        6767        B     OPNGEN                     GO GEN OPEN RTN                 55820021
 005464 9220 D7E0      01080        6768 OPNIO    MVI   PIOCOD,XX20              SET CODE 20 FOR I-O             55830021
 005468 47F0 9116      05416        6769        BC    UNCOND,OPNGEN               -OPNGEN                        55840021
 00546C 9240 D7E0      01080        6770 OPNOUT   MVI   PIOCOD,XX40               SET CODE '40' FOR OUTPUT       55850021
 005470 47F0 9116      05416        6771        BC    UNCOND,OPNGEN               -OPNGEN                        55860021
 005474 9280 D7E0      01080        6772 OPNINP   MVI   PIOCOD,XX80               SET CODE '80' FOR INPUT        55870021
 005478 47F0 9116      05416        6773        BC    UNCOND,OPNGEN               -OPNGEN                        55880021
 00547C 91E0 D7E0      01080        6774 OPNCOD   TM    PIOCOD,XXE0               IS A CODE SET                  55890021
 005480 4780 9116      05416        6775        BC    ZERO,OPNGEN                 NO-OPNGEN                      55900021
 005484 9523 C580      01BE0        6776          CLI   CURCOD,XX23               BCD-FILE-NAME                  55910021
 005488 4770 9116      05416        6777        BC    NOTEQ,OPNGEN                NO-OPNGEN                      55920021
 00548C 4170 C581      01BE1        6778        LA    JG,CURN                    ADDR OF FILE-NAME               55930021
 005490 45E0 B3F4      0235C        6779        BAL   JP,SCHFNT                  -SCHFNT                         55940021
 005494 9140 D279      00B19        6780          TM    SCHSW,XX40                WAS NAME FOUND                 55950021
 005498 4780 9356      05656        6781          BZ    OPNER5              NO, ERROR                      56194 55960021
 00549C 4832 0000      00000        6782          LH    JC,DX0(JB)                PIOTBL-PTR                     55970021
 0054A0 45E0 F6B0      04A48        6783        BAL   JP,SETPIO                  -SETPIO                         55980021
 0054A4 D600 5000 D7E0 00000 01080  6784          OC    DX0(LX1,JE),PIOCOD         SET CODE IN PIOTBL CODE       55990021
                                    6785 *  JB CONTAINS PTR TO FNTBL                                             56000021
                                    6786 * JE CONTAINS ADDR OF PIOTBL FOR FILE                                   56010021
1PH1B     IKFCBL1B                                                                                              PAGE  156
-  LOC  OBJECT CODE    ADDR1 ADDR2  STMT   SOURCE STATEMENT                                       ASM 0201 11.03 02/14/15
0                                   6787 *     JG IS INDEX TO NO OF GNS TESTED IN OPNGNS.                        56020021
 0054AA 45E0 B4F4      0245C        6788        BAL   JP,GENA                   GEN OUT FILENAME                 56030021
 0054AE 1777                        6789 OPNSR1 XR    JG,JG                                                      56040021
 0054B0 1832                        6790        LR    JC,JB                     SAVE ADDR OF BEG OF FNTBL EN     56050021
 0054B2 9180 D7E0      01080        6791          TM    PIOCOD,XX80              INPUT                           56060021
 0054B6 4780 91CA      054CA        6792        BZ    OPNCD1                     CK  FOR I-O GNS                 56070021
 0054BA 4160 D83A      010DA        6793        LA    JF,INSTER                 INPUT STAND ERROR GN             56080021
 0054BE 4140 D808      010A8        6794        LA    JD,INGNBF                  INPUT  BEFORE LABEL GNS         56090021
 0054C2 4180 D820      010C0        6795        LA    JH,INGNAF                  INPUT  AFTER LABEL GNS          56100021
 0054C6 47F0 91EE      054EE        6796        B     OPNERR                     CK  FOR  USE  ERR               56110021
 0054CA 9140 D7E0      01080        6797 OPNCD1   TM    PIOCOD,XX40              OUTPUT                          56120021
 0054CE 4780 91E2      054E2        6798        BZ    OPNCD2                     CK  FOR  I-O GNS                56130021
 0054D2 4160 D83C      010DC        6799        LA    JF,OUSTER                 OUTPUT STAND ERROR GN            56140021
 0054D6 4140 D810      010B0        6800        LA    JD,OUGNBF                  OUTPUT BEFOR LABEL GNS          56150021
 0054DA 4180 D828      010C8        6801        LA    JH,OUGNAF                  OUTPUT AFTER LABEL GNS          56160021
 0054DE 47F0 91EE      054EE        6802        B     OPNERR                     CK  FOR  USE  ERR               56170021
 0054E2 4160 D83E      010DE        6803 OPNCD2 LA    JF,IOSTER                 I-O                              56180021
 0054E6 4140 D818      010B8        6804        LA    JD,IOGNBF                  I-O BEFORE LABEL GNS-NON-ST     56190021
 0054EA 4180 D830      010D0        6805        LA    JH,IOGNAF                  I-O AFTER  LABEL GNS-STAND      56200021
 0054EE 9108 D281      00B21        6806 OPNERR   TM    USEPDE,XX08               WERE THERE ANY USE ERROR       56210021
 0054F2 4780 92EA      055EA        6807        BZ    OPNLAB                     NO                              56220021
 0054F6 D501 2006 D84C 00006 010EC  6808 OPNER1   CLC   FNGNSE(LX2,JB),FRHWZ      STAND ERR GN IN FNTBL IS 0     56230021
 0054FC 4780 9218      05518        6809        BE    OPNER2                     YES                             56240021
 005500 D201 D842 2006 010E2 00006  6810          MVC   OPNSTE(LX2),FNGNSE(JB)    NO MOVE GN INTO OUTPUT AREA    56250021
 005506 D501 6000 D84C 00000 010EC  6811          CLC   DX0(LX2,JF),FRHWZ          WAS STAND ERR SPEC'D FOR OP   56260021
 00550C 4780 92EA      055EA        6812        BE    OPNLAB                     NO                              56270021
 005510 45E0 DB44      013E4        6813        BAL   JP,MSG142                  USE FOR  OPEN OPTION IGNOR      56280021
 005514 47F0 92EA      055EA        6814        B     OPNLAB                     GO CK RECORD LABELS             56290021
 005518 D201 D842 6000 010E2 00000  6815 OPNER2   MVC   OPNSTE(LX2),DX0(JF)        MOVE STAND ERR GN FOR OPTIO   56300021
 00551E 47F0 92EA      055EA        6816        B     OPNLAB                     GO CK RECORD LABELS             56310021
 005522 9108 3010      00010        6817 OPNGNP TM    FNFL1(JC),FNBEF           IS IT BEFORE                     56320021
 005526 4780 9252      05552        6818        BZ    OPNGN3                    NO                               56330021
 00552A D501 D846 D848 010E6 010E8  6819          CLC   OPNEOF(LX2),OPNEOV       EOF GN = EOV GN                 56340021
 005530 4780 9252      05552        6820        BE    OPNGN3                    YES                              56350021
 005534 D501 D846 D84C 010E6 010EC  6821          CLC   OPNEOF(LX2),FRHWZ        EOF GN = 0                      56360021
 00553A 4780 9252      05552        6822        BE    OPNGN3                    YES - OK                         56370021
 00553E D501 D848 D84C 010E8 010EC  6823          CLC   OPNEOV(LX2),FRHWZ        EOV GN = 0                      56380021
 005544 4780 9252      05552        6824        BE    OPNGN3                    YES - OK                         56390021
 005548 45E0 DB74      01414        6825        BAL   JP,MSG154                  2 DIF LAB PROC FOR EOF-EOV      56400021
 00554C D201 D848 D84C 010E8 010EC  6826          MVC   OPNEOV(LX2),FRHWZ        ZERO OUT EOV GN                 56410021
 005552 D509 D842 D84C 010E2 010EC  6827 OPNGN3   CLC   OPNGNS(LX10),FRHWZ       ANY LABELS OR ERROR GNS         56420021
 005558 4780 926E      0556E        6828        BE    OPNGN2                    NO                               56430021
 00555C D501 D842 D84C 010E2 010EC  6829          CLC   OPNGNS(LX2),FRHWZ         USE ON STD ERR                 56440021
 005562 4780 926E      0556E        6830        BE    OPNGN2                     NO - DON'T SET BIT              56450021
 005566 4833 0000      00000        6831        LH    JC,FNPIOT(JC)                                              56460021
 00556A 45E0 F68C      04A24        6832        BAL   JP,PIUSB1                  SET USE BIT ON                  56470021
 00556E 9104 D281      00B21        6833 OPNGN2   TM    SRTSW,XX04               RETURN CONTROL TO SORT VERB     56480021
 005572 4780 927C      0557C        6834        BZ    OPNGN1                    NO                               56490021
 005576 58E0 D6DC      00F7C        6835        L     JP,SV1F14                                                  56500021
 00557A 07FE                        6836        BR    JP                         RETURN                          56510021
 00557C 4160 D840      010E0        6837 OPNGN1 LA    JF,OPNSTR                 WRITE GNS                        56520021
 005580 45E0 B4F8      02460        6838        BAL   JP,GENB                    GEN ON FILE 2                   56530021
 005584 D709 D842 D842 010E2 010E2  6839          XC    OPNGNS(LX10),OPNGNS      ZERO OUT GNS                    56540021
 00558A 45E0 96B6      059B6        6840        BAL   JP,CHKIN                   SAVE JP AND GET NXT WORD        56550021
 00558E 47F0 911A      0541A        6841        B     OPNGEN+NX4                 GO COMP CODE TO COBOL WORD -54  56560021
1PH1B     IKFCBL1B                                                                                              PAGE  157
-  LOC  OBJECT CODE    ADDR1 ADDR2  STMT   SOURCE STATEMENT                                       ASM 0201 11.03 02/14/15
0                                   6842 **                                                                      56570021
 005592 D501 8000 D84C 00000 010EC  6843 OPNBIT   CLC   DX0(LX2,JH),FRHWZ          IS STAND GN FOR OPEN 0        56580021
 005598 4780 92B2      055B2        6844        BE    OPNSTZ                     YES                             56590021
 00559C 9108 3010      00010        6845        TM    FNFL1(JC),FNBEF           IS NON-ST BIT ON IN FNTBL        56600021
 0055A0 4710 92E2      055E2        6846        BO    OPNMG2                     -MSG143  USE STMT IGNORED       56610021
 0055A4 9604 3010      00010        6847        OI    FNFL1(JC),FNAFT           TURN ON STAND LABEL BIT          56620021
 0055A8 D201 6000 8000 00000 00000  6848          MVC   DX0(LX2,JF),DX0(JH)       MOVE STAND GN TO OPEN GN       56630021
 0055AE 47F0 9302      05602        6849        B     OPNGNL                     -OPEN GN LABELS                 56640021
 0055B2 D501 4000 D84C 00000 010EC  6850 OPNSTZ   CLC   DX0(LX2,JD),FRHWZ          IS NON-ST GN FOR OPEN 0       56650021
 0055B8 4780 9302      05602        6851        BE    OPNGNL                     YES                             56660021
 0055BC 9104 3010      00010        6852        TM    FNFL1(JC),FNAFT           IS STAND BIT ON IN FNTBL         56670021
 0055C0 4710 92E2      055E2        6853        BO    OPNMG2                     -MSG143  USE STMT IGNORED       56680021
 0055C4 9608 3010      00010        6854        OI    FNFL1(JC),FNBEF           SET NON-ST LABEL BIT ON          56690021
 0055C8 5030 D694      00F34        6855          ST    JC,SV1F01           SAVE ADDRESS OF ENTRY                56700021
 0055CC 4833 0000      00000        6856          LH    JC,FNPIOT(JC)       GET DISPL OF PIOTBL ENTRY            56710021
 0055D0 45E0 F69E      04A36        6857          BAL   JP,PIUSB2           GO SET NSL BIT ON IN PIOTBL          56720021
 0055D4 5830 D694      00F34        6858          L     JC,SV1F01           RESTORE ADDRESS                      56730021
 0055D8 D201 6000 4000 00000 00000  6859          MVC   DX0(LX2,JF),DX0(JD)       MOVE NON-ST GN TO OPEN GN      56740021
 0055DE 47F0 9302      05602        6860        B     OPNGNL                     -OPEN GN LABELS                 56750021
 0055E2 45E0 DB48      013E8        6861 OPNMG2 BAL   JP,MSG143                  -MSG143  USE STMT IGNORED       56760021
 0055E6 47F0 9302      05602        6862        B     OPNGNL                     -OPEN GN LABELS                 56770021
 0055EA 4160 D842      010E2        6863 OPNLAB LA    JF,OPNGNS                                                  56780021
 0055EE 9130 2010      00010        6864        TM    FNFL1(JB),FNLRS+FNLRO     LABEL RECS STAND OR OMITTED      56790021
 0055F2 4740 9222      05522        6865        BM    OPNGNP                     YES                             56800021
 0055F6 9110 D281      00B21        6866          TM    USEPDL,XX10               ANY USE FOR LABELS             56810021
 0055FA 4780 9222      05522        6867        BZ    OPNGNP                     NO                              56820021
 0055FE 47F0 9316      05616        6868        B     OPNFST                     BUMP ADDR TO GNS                56830021
 005602 4177 0002      00002        6869 OPNGNL   LA    JG,DX2(JG)                UP INDEX TO GNS                56840021
 005606 4970 C142      017A2        6870      CH      JG,HW8                                                     56850021
 00560A 4780 9222      05522        6871        BE    OPNGNP                     YES                             56860021
 00560E 4144 0002      00002        6872          LA    JD,DX2(JD)                UP ADDR IN GN BEFORE LABELS    56870021
 005612 4188 0002      00002        6873          LA    JH,DX2(JH)                UP ADDR IN GN AFTER LABELS     56880021
 005616 4166 0002      00002        6874 OPNFST   LA    JF,DX2(JF)               UP ADDR TO OPNGNS               56890021
 00561A 4122 0002      00002        6875          LA    JB,DX2(JB)                UP ADDR IN FNTBL               56900021
 00561E D501 2006 D84C 00006 010EC  6876 OPNLP    CLC   FNGNSE(LX2,JB),FRHWZ      IS GN 0 IN FNTBL               56910021
 005624 4780 9292      05592        6877        BE    OPNBIT                     YES                             56920021
 005628 D501 4000 D84C 00000 010EC  6878          CLC   DX0(LX2,JD),FRHWZ          IS GN 0 IN OPEN OPTION GNBE   56930021
 00562E 4770 9346      05646        6879        BNE   OPNMG1                     NO - GET ERR MSG                56940021
 005632 D501 8000 D84C 00000 010EC  6880          CLC   DX0(LX2,JH),FRHWZ          IS GN 0 IN OPEN OPTION GNAF   56950021
 005638 4770 9346      05646        6881        BNE   OPNMG1                     NO - GET ERR MSG                56960021
 00563C D201 6000 2006 00000 00006  6882          MVC   DX0(LX2,JF),FNGNSE(JB)    MOVE GN FROM FNTBL TO OPEN G   56970021
 005642 47F0 9302      05602        6883        B     OPNGNL                     -OPEN GN LABELS                 56980021
 005646 45E0 DB44      013E4        6884 OPNMG1 BAL   JP,MSG142                  -USE  OPEN  IGNORED             56990021
 00564A 47F0 9302      05602        6885        B     OPNGNL                     -OPEN GN LABELS                 57000021
 00564E 50E0 D6DC      00F7C        6886 OPNSRT ST    JP,SV1F14                                                  57010021
 005652 47F0 91AE      054AE        6887        B     OPNSR1                     -CK FOR  INPUT FILE             57020021
 005656 9523 C636      01C96        6888 OPNER5   CLI   NXTCOD,XX23         IS IT POSSIBLE FILENAME        56194 57030021
 00565A 4780 9116      05416        6889          BE    OPNGEN              YES, GO CHECK FOR              56194 57040021
 00565E 9554 C636      01C96        6890          CLI   NXTCOD,XX54         IS IT POSSIBLE OPTION          56194 57050021
 005662 4780 9116      05416        6891           BE   OPNGEN              YES, GO CHECK FRO              56194 57060021
 005666 47F0 FACA      04E62        6892           B    VRBGEN              NO RETURN                      56194 57070021
                                    6893 *                                                                       57080021
                                    6894 *****     CLOSE VERB     *****                                          57090021
                                    6895 *                                                                       57100021
 00566A 45E0 982E      05B2E        6896 CLOSVB BAL   JP,GENSEQ                  -GENSEQ                         57110021
1PH1B     IKFCBL1B                                                                                              PAGE  158
-  LOC  OBJECT CODE    ADDR1 ADDR2  STMT   SOURCE STATEMENT                                       ASM 0201 11.03 02/14/15
000566E 45E0 96BE      059BE        6897 CLOGEN BAL   JP,CHKOUT                  -CHKOUT                         57120021
 005672 9523 C580      01BE0        6898          CLI   CURCOD,XX23               BCD-FILE-NAME                  57130021
 005676 4770 936E      0566E        6899        BC    NOTEQ,CLOGEN                NO-CLOGEN                      57140021
 00567A 9554 C636      01C96        6900          CLI   NXTCOD,XX54               IS NEXT COBOL WORD             57150021
 00567E 4770 936E      0566E        6901        BC    NOTEQ,CLOGEN                NO-CLOGEN                      57160021
 005682 9517 C637      01C97        6902          CLI   NXTN,XX17                 IS NEXT 'REEL'                 57170021
 005686 4780 9392      05692        6903        BC    EQ,CLOSCH                   YES-CLOSCH                     57180021
 00568A 95A2 C637      01C97        6904          CLI   NXTN,XXA2                 IS NEXT 'UNIT'                 57190021
 00568E 4770 936E      0566E        6905        BC    NOTEQ,CLOGEN                NO-CLOGEN                      57200021
 005692 4170 C581      01BE1        6906 CLOSCH LA    JG,CURN                    ADDR OF FILE-NAME               57210021
 005696 45E0 B3F4      0235C        6907        BAL   JP,SCHFNT                  -SCHFNT                         57220021
 00569A 9140 D279      00B19        6908          TM    SCHSW,XX40                WAS NAME FOUND                 57230021
 00569E 4780 936E      0566E        6909        BC    ZERO,CLOGEN                 NO-CLOGEN                      57240021
 0056A2 4832 0000      00000        6910          LH    JC,DX0(JB)                PIOTBL-PTR                     57250021
 0056A6 45E0 F6B0      04A48        6911        BAL   JP,SETPIO                  -SETPIO                         57260021
 0056AA 45E0 96BE      059BE        6912        BAL   JP,CHKOUT                  CHKOUT                          57270021
 0056AE 9554 C636      01C96        6913          CLI   NXTCOD,XX54               NEXT IS COBOL WORD             57280021
 0056B2 4770 9402      05702        6914        BC    NOTEQ,CLONLY                NO-CLONLY                      57290021
 0056B6 45E0 96BE      059BE        6915        BAL   JP,CHKOUT                  -CHKOUT                         57300021
 0056BA 956C C581      01BE1        6916          CLI   CURN,XX6C                 WITH                           57310021
 0056BE 4770 93CE      056CE        6917        BC    NOTEQ,CLONO                 NO-CLONO                       57320021
 0056C2 45E0 96BE      059BE        6918        BAL   JP,CHKOUT                  CHKOUT                          57330021
 0056C6 9554 C580      01BE0        6919          CLI   CURCOD,XX54               COBOL WORD                     57340021
 0056CA 4770 9402      05702        6920        BC    NOTEQ,CLONLY                NO-CLONLY                      57350021
 0056CE 959E C581      01BE1        6921 CLONO    CLI   CURN,XX9E                 NO                             57360021
 0056D2 4780 93E6      056E6        6922        BC    EQ,CLORWD                   YES-CLORWD                     57370021
 0056D6 9576 C581      01BE1        6923          CLI   CURN,XX76                 LOCK                           57380021
 0056DA 4770 9402      05702        6924        BC    NOTEQ,CLONLY                NO-CLONLY                      57390021
 0056DE 9204 D7E0      01080        6925          MVI   PIOCOD,XX04               SET CODE '04' FOR LOCK         57400021
 0056E2 47F0 9406      05706        6926        BC    UNCOND,CLOSET               -CLOSET                        57410021
 0056E6 45E0 96BE      059BE        6927 CLORWD BAL   JP,CHKOUT                  CHKOUT                          57420021
 0056EA 9554 C580      01BE0        6928          CLI   CURCOD,XX54               COBOL WORD                     57430021
 0056EE 4770 936E      0566E        6929        BC    NOTEQ,CLOGEN                NO-CLOGEN                      57440021
 0056F2 956D C581      01BE1        6930          CLI   CURN,XX6D                 REWIND                         57450021
 0056F6 4770 936E      0566E        6931        BC    NOTEQ,CLOGEN                NO-CLOGEN                      57460021
 0056FA 9210 D7E0      01080        6932          MVI   PIOCOD,XX10               SET CODE '10' FOR NO REWIND    57470021
 0056FE 47F0 9406      05706        6933        BC    UNCOND,CLOSET               -CLOSET                        57480021
 005702 9202 D7E0      01080        6934 CLONLY   MVI   PIOCOD,XX02               SET CODE '02' FOR CLOSE ONL    57490021
 005706 D600 5000 D7E0 00000 01080  6935 CLOSET   OC    DX0(LX1,JE),PIOCOD         SET CODE IN PIOTBL CODE       57500021
 00570C 47F0 936E      0566E        6936        BC    UNCOND,CLOGEN               -CLOGEN                        57510021
                                    6937 *                                                                       57520021
                                    6938 *                                                                       57530021
                                    6939 *DEL                                                                    57540021
                                    6940 *DEL                                                                    57550021
                                    6941 *DEL                                                                    57560021
                                    6942 *DEL                                                                    57570021
                                    6943 *DEL                                                                    57580021
                                    6944 *DEL                                                                    57590021
                                    6945 *DEL                                                                    57600021
                                    6946 *                                                                       57610021
                                    6947 *                                                                       57620021
                                    6948 *****     REWRITE VERB     *****                                        57630021
                                    6949 *                                                                       57640021
 005710                             6950 RWRSVB DS    0H                                                         57650021
 005710 9604 D27B      00B1B        6951        OI    REWRSW,RWRON          TURN ON REWRITE VERB SWITCH          57660021
1PH1B     IKFCBL1B                                                                                              PAGE  159
-  LOC  OBJECT CODE    ADDR1 ADDR2  STMT   SOURCE STATEMENT                                       ASM 0201 11.03 02/14/15
0005714 47F0 9458      05758        6952        BC    UNCOND,WRTSEQ               -WRTSEQ                        57670021
                                    6953 *                                                                       57680021
                                    6954 *****     WRITE VERB     *****                                          57690021
                                    6955 *                                                                       57700021
 005718                             6956 WRTSVB DS    0H                                                         57710021
 005718 94FB D27B      00B1B        6957        NI    REWRSW,RWROFF         TURN OFF REWRITE VERB SWITCH         57720021
 00571C 947F D280      00B20        6958        NI    FRESW,FREOFF          TURN OFF FREE VERB SWITCH            57730021
 005720 4170 C637      01C97        6959        LA    JG,NXTN                    ADDR OF RECORD NAME             57740021
 005724 45E0 B404      0236C        6960        BAL   JP,SCHRCT                  SEARCH RECORD TABLE             57750021
 005728 9140 D279      00B19        6961          TM    SCHSW,XX40                FOUND ?                        57760021
 00572C 4780 9458      05758        6962        BZ    WRTSEQ                     NO - WRTSEQ                     57770021
 005730 4822 0000      00000        6963          LH    JB,DX0(JB)                FNTBL PTR                      57780021
 005734 5810 C710      01D70        6964        L     JA,FNTCON                  ADDR F FNTBL TIB                57790021
 005738 5811 0000      00000        6965          L     JA,DX0(JA)                ADDR OF FNTBL TAMM             57800021
 00573C 5811 0000      00000        6966          L     JA,DX0(JA)                SDDR OF FNTBL                  57810021
 005740 4112 1000      00000        6967          LA    JA,DX0(JB,JA)             ADDR OF FNTBL ENTRY            57820021
 005744 4831 0000      00000        6968          LH    JC,DX0(JA)                PIOTBL PTR                     57830021
 005748 45E0 F6B0      04A48        6969        BAL   JP,SETPIO                  -SETPIO                         57840021
 00574C 9180 5001      00001        6970          TM    DX1(JE),XX80              RERUN BIT ON                   57850021
 005750 4780 9458      05758        6971        BZ    WRTSEQ                     NO - WRITSW                     57860021
 005754 9272 C581      01BE1        6972          MVI   CURN,XX72                 WRITE FOR RERUN                57870021
 005758 45E0 982E      05B2E        6973 WRTSEQ BAL   JP,GENSEQ                  -GENSEQ                         57880021
 00575C 45E0 B4F4      0245C        6974        BAL   JP,GENA                    -GENA                           57890021
 005760 45E0 B000      01F68        6975        BAL   JP,GETWD                   -GETWD                          57900021
 005764 9523 C580      01BE0        6976          CLI   CURCOD,XX23               BCD-RECORD-NAME                57910021
 005768 4780 9474      05774        6977        BC    EQ,WRTCUR                   YES-WRTCUR                     57920021
 00576C 95A2 C580      01BE0        6978          CLI   CURCOD,XXA2               QUAL-NAME                      57930021
 005770 4770 FB00      04E98        6979        BC    NOTEQ,VRBENT                NO-VRBENT                      57940021
 005774 4170 C581      01BE1        6980 WRTCUR LA    JG,CURN                    ADDR OF RCD-NAME                57950021
 005778 9601 D295      00B35        6981          OI    RCDSW1,XX01         TESTED IN SEARCH SCAN                57960021
 00577C 45E0 B404      0236C        6982        BAL   JP,SCHRCT                  -SCHRCT                         57970021
 005780 9400 D295      00B35        6983          NI    RCDSW1,XX00                                              57980021
 005784 9140 D279      00B19        6984          TM    SCHSW,XX40                WAS NAME FOUND                 57990021
 005788 4780 957A      0587A        6985        BC    ZERO,WRTFN                  NO-WRTFN                       58000021
 00578C 4832 0000      00000        6986          LH    JC,DX0(JB)                FNTBL-PTR                      58010021
 005790 5850 C710      01D70        6987        L     JE,FNTCON                  FNTBL-TIB                       58020021
 005794 5855 0000      00000        6988          L     JE,DX0(JE)                FNTBL-TAMM                     58030021
 005798 5855 0000      00000        6989          L     JE,DX0(JE)                FNTBL-ADDR                     58040021
 00579C 4153 5000      00000        6990          LA    JE,DX0(JC,JE)             ADDR OF FNTBL ENTRY            58050021
 0057A0 D21E D857 5011 010F7 00011  6991          MVC   BCDGEN+NX1(LX31),FNWFND(JE) PUT FN IN WORK AREA          58060021
 0057A6 4160 D856      010F6        6992        LA    JF,BCDGEN                  ADDR FOR GENB                   58070021
 0057AA 45E0 B4F8      02460        6993        BAL   JP,GENB                   GENB                             58080021
 0057AE 4835 0000      00000        6994          LH    JC,DX0(JE)               PIOTBL PTR                      58090021
 0057B2 45E0 F6B0      04A48        6995        BAL   JP,SETPIO                 GET ADDR OF PIOTBL ENTRY         58100021
 0057B6 9104 D27B      00B1B        6996        TM    REWRSW,RWRON          IS SWITCH FOR REWRITE VERB ON?       58110021
 0057BA 47E0 94C6      057C6        6997        BNO   FREVRB                NO, TEST FOR FREE VERB               58120021
 0057BE 9601 5000      00000        6998        OI    PIOFL1(JE),PIOREW     YES, TURN ON REWRITE BIT             58130021
 0057C2 47F0 94D2      057D2        6999        B     WRTGEN                CHECK FOR OTHER OPTIONS              58140021
 0057C6                             7000 FREVRB DS    0H                                                         58150021
 0057C6 9180 D280      00B20        7001        TM    FRESW,FREON           IS SWITCH FOR FREE VERB ON?          58160021
 0057CA 4710 959C      0589C        7002        BO    WRTGN9                     PUT VERB OUT                    58170021
 0057CE 9620 5002      00002        7003        OI    PIOFL3(JE),PIOWRT         TURN ON WRITE BIT                58180021
 0057D2 45E0 96BE      059BE        7004 WRTGEN BAL   JP,CHKOUT                  -CHKOUT  (A-MARG OR MAJ-0)      58190021
 0057D6 D501 C580 A274 01BE0 0273C  7005          CLC   CURCOD(LX2),AFTCON        AFTER                          58200021
 0057DC 4780 9504      05804        7006        BE    WRTAFT                     YES -CK FOR POSITION            58210021
1PH1B     IKFCBL1B                                                                                              PAGE  160
-  LOC  OBJECT CODE    ADDR1 ADDR2  STMT   SOURCE STATEMENT                                       ASM 0201 11.03 02/14/15
00057E0 D501 C580 A42A 01BE0 028F2  7007          CLC   CURCOD(LX2),BEFCON        BEFORE                         58220021
 0057E6 4780 94FC      057FC        7008        BE    WRTBEF                     YES - SET BEF - ADV SW          58230021
 0057EA D501 C580 A5F0 01BE0 02AB8  7009          CLC   CURCOD(LX2),INVCON        INVALID ?                      58240021
 0057F0 4770 94D2      057D2        7010        BNE   WRTGEN                     NO - WRTGEN                     58250021
 0057F4 9604 D298      00B38        7011          OI    TEMPSW+NX2,PIOINV         SET INVALID SW ON              58260021
 0057F8 47F0 9552      05852        7012        B     WRTGN2                     TURN ON PIOTBL SW               58270021
 0057FC 9210 D297      00B37        7013 WRTBEF   MVI   TEMPSW+NX1,PIOWBA         BEFORE ADVANCING               58280021
 005800 47F0 9512      05812        7014        B     WRTCCW                     -CHKOUT                         58290021
 005804 D501 C636 A9B0 01C96 02E78  7015 WRTAFT   CLC   NXTCOD(LX2),POSCON        POSITIONING                    58300021
 00580A 4780 9594      05894        7016        BE    WRTPOS                     YES                             58310021
 00580E 9208 D296      00B36        7017        MVI   TEMPSW,PIOWAV              AFTER ADV                       58320021
 005812 45E0 96BE      059BE        7018 WRTCCW BAL   JP,CHKOUT                   GO CKOUT VERB                  58330021
 005816 D501 C580 A7CA 01BE0 02C92  7019          CLC   CURCOD(LX2),ADVCON        ADVANCING                      58340021
 00581C 4770 952C      0582C        7020        BNE   WRTGN7                     NO                              58350021
 005820 9523 C636      01C96        7021          CLI   NXTCOD,XX23               BCD NM                         58360021
 005824 4770 9552      05852        7022        BNE   WRTGN2                     NO - SET PO                     58370021
 005828 45E0 96BE      059BE        7023        BAL   JP,CHKOUT                  YES                             58380021
 00582C 9523 C580      01BE0        7024 WRTGN7   CLI   CURCOD,XX23               BCD NAME                       58390021
 005830 4770 9552      05852        7025        BNE   WRTGN2                     NO                              58400021
 005834 5050 D6DC      00F7C        7026        ST    JE,SV1F14                  SAVE PIOTBL PTR                 58410021
 005838 4170 C581      01BE1        7027        LA    JG,CURN                    ADDR OF BCDNAME                 58420021
 00583C 45E0 B414      0237C        7028        BAL   JP,SCHSPN                  SEARCH SPNTBL                   58430021
 005840 9140 D279      00B19        7029          TM    SCHSW,XX40                FOUND                          58440021
 005844 4780 954E      0584E        7030        BZ    WRTGN8                    NO                               58450021
 005848 D202 C580 2000 01BE0 00000  7031          MVC   CURCOD(LX3),DX0(JB)       YES-SAVE CARR-CTL CODE         58460021
 00584E 5850 D6DC      00F7C        7032 WRTGN8 L     JE,SV1F14                 RESTORE PIOTBL PTR               58470021
                             05852  7033 WRTGN2 EQU   *                                                          58480021
 005852 D602 5000 D296 00000 00B36  7034          OC    PIOFL1(LX3,JE),TEMPSW    OR IN OPTIONS                   58490021
 005858 D702 D296 D296 00B36 00B36  7035          XC    TEMPSW(LX3),TEMPSW       ZERO OUT OPTION FIELD           58500021
 00585E 9101 5001      00001        7036        TM    PIOFL2(JE),PIOWAP          WRITE AFT POS                   58510021
 005862 4780 FB00      04E98        7037          BZ    VRBENT              CHECK FOR MAJ 0                      58520021
 005866 9111 5001      00001        7038        TM    PIOFL2(JE),PIOWAP+PIOWBA  WRITE AFT POS AND BEFORE ADV     58530021
 00586A 4710 958C      0588C        7039        BO    WRTERR                    YES                              58540021
 00586E 9108 5000      00000        7040        TM    PIOFL1(JE),PIOWAV          WRITE AFT ADV                   58550021
 005872 4710 958C      0588C        7041        BO    WRTERR                    YES                              58560021
 005876 47F0 FACA      04E62        7042        BC    UNCOND,VRBGEN               -VRBGEN                        58570021
 00587A 45E0 B4F4      0245C        7043 WRTFN  BAL   JP,GENA                    -GENA                           58580021
 00587E D201 C581 C134 01BE1 01794  7044          MVC   CURN(LX2),HWZERO          SET UP ERROR-CODE              58590021
 005884 92B9 C580      01BE0        7045          MVI   CURCOD,XXB9                OF 'B90000'                   58600021
 005888 47F0 FACA      04E62        7046        BC    UNCOND,VRBGEN               -VRBGEN                        58610021
 00588C 45E0 DB4C      013EC        7047 WRTERR BAL   JP,MSG144                  POSIT. AND AFTER ADV OPTION ILL 58620021
 005890 47F0 FACA      04E62        7048        B     VRBGEN                     - GENA                          58630021
 005894 9601 D297      00B37        7049 WRTPOS   OI    TEMPSW+NX1,PIOWAP        WRITE AFTER POS                 58640021
 005898 47F0 9552      05852        7050        B     WRTGN2                     SET  PO                         58650021
 00589C 9620 5001      00001        7051 WRTGN9 OI    PIOFL2(JE),PIOFRE                                          58660021
 0058A0 47F0 FACA      04E62        7052        B     VRBGEN                     - GENA    GENERATE              58670021
                                    7053 *                                                                       58680021
                                    7054 *****     SORT VERB     *****                                           58690021
                                    7055 *                                                                       58700021
 0058A4 45E0 982E      05B2E        7056 SRTSVB BAL   JP,GENSEQ                  -GENSEQ                         58710021
 0058A8 D702 D296 D296 00B36 00B36  7057 SRTFND   XC    TEMPSW(LX3),TEMPSW       ZERO OUT OPTION AREA            58720021
 0058AE 94FB D281      00B21        7058          NI    SRTSW,XXFB               TURN SORT SW OFF                58730021
 0058B2 45E0 96BE      059BE        7059 SRTANT BAL   JP,CHKOUT                  -CHKOUT                         58740021
 0058B6 D501 C580 C4FE 01BE0 01B5E  7060 SRTENT   CLC   CURCOD(LX2),EOSCON  PERIOD IN CURRENT               1904 58750021
 0058BC 4780 FB50      04EE8        7061          BC    EQUAL,VRBMAJ        YES GET OUT                     1904 58760021
1PH1B     IKFCBL1B                                                                                              PAGE  161
-  LOC  OBJECT CODE    ADDR1 ADDR2  STMT   SOURCE STATEMENT                                       ASM 0201 11.03 02/14/15
00058C0 9544 C580      01BE0        7062          CLI   CURCOD,XX44              IS VERB IN CURRENT        57817 58770021
 0058C4 4780 FB50      04EE8        7063          BC    EQUAL,VRBMAJ                YES, BR                57817 58780021
 0058C8 9554 C580      01BE0        7064          CLI   CURCOD,XX54         COBOL WORD IN CURRENT           1904 58790021
 0058CC 4770 95B2      058B2        7065        BC    NOTEQ,SRTANT                NO-SRTANT                      58800021
 0058D0 9566 C581      01BE1        7066          CLI   CURN,XX66                 INPUT                          58810021
 0058D4 4780 95F0      058F0        7067        BC    EQ,SRTBNT                   YES-SRTBNT                     58820021
 0058D8 9589 C581      01BE1        7068          CLI   CURN,XX89                 USING                          58830021
 0058DC 4780 964A      0594A        7069        BE    SRTUSG                     YES                             58840021
 0058E0 9581 C581      01BE1        7070          CLI   CURN,XX81                 GIVING                         58850021
 0058E4 4780 96A6      059A6        7071        BE    SRTGIV                     YES                             58860021
 0058E8 9564 C581      01BE1        7072          CLI   CURN,XX64                 OUTPUT                         58870021
 0058EC 4770 95B2      058B2        7073        BC    NOTEQ,SRTANT                NO-SRTANT                      58880021
 0058F0 45E0 96BE      059BE        7074 SRTBNT BAL   JP,CHKOUT                  -CHKOUT                         58890021
 0058F4 D501 C580 A836 01BE0 02CFE  7075          CLC   CURCOD(LX2),PROCCD        PROCEDURE                      58900021
 0058FA 4770 9610      05910        7076        BC    NOTEQ,SRTCNT                NO-SRTCNT                      58910021
 0058FE D501 C636 A034 01C96 024FC  7077          CLC   NXTCOD(LX2),ISCON         IS IN NXT                      58920021
 005904 4770 960C      0590C        7078        BNE   *+8                        NO - SKIP                       58930021
 005908 45E0 96BE      059BE        7079        BAL   JP,CHKOUT                  YES - GEN OUT                   58940021
 00590C 45E0 96BE      059BE        7080        BAL   JP,CHKOUT                  -CHKOUT                         58950021
 005910 45E0 F8A2      04C3A        7081 SRTCNT BAL   JP,PRONAM                  -PRONAM                         58960021
 005914 47F0 961C      0591C        7082          BC    UNCOND,*+NX8               YES-*+8                       58970021
 005918 47F0 95B2      058B2        7083        BC    UNCOND,SRTANT               NO-SRTANT                      58980021
 00591C D501 C636 A242 01C96 0270A  7084          CLC   NXTCOD(LX2),THRUCN        NEXT IS 'THRU'                 58990021
 005922 4770 963A      0593A        7085        BC    NOTEQ,SRTDNT                NO-SRTDNT                      59000021
 005926 45E0 B000      01F68        7086        BAL   JP,GETWD                   -GETWD                          59010021
 00592A 45E0 96BE      059BE        7087        BAL   JP,CHKOUT                  -CHKOUT                         59020021
 00592E 45E0 F8A2      04C3A        7088        BAL   JP,PRONAM                  -PRONAM                         59030021
 005932 47F0 963A      0593A        7089          BC    UNCOND,*+NX8               YES-*+8                       59040021
 005936 47F0 95B2      058B2        7090        BC    UNCOND,SRTANT               NO-SRTANT                      59050021
 00593A 9620 D5BC      00E5C        7091 SRTDNT   OI    PNCHAR,XX20               SET CHAR 'P'                   59060021
 00593E 45E0 9936      05C36        7092        BAL   JP,ATRENT                  -ATRENT                         59070021
 005942 45E0 96B6      059B6        7093        BAL   JP,CHKIN                   -CHKIN                          59080021
 005946 47F0 95B6      058B6        7094        BC    UNCOND,SRTENT               -SRTENT                        59090021
                             0594A  7095 SRTUSG EQU   *                                                          59100021
 00594A 9608 D296      00B36        7096        OI    TEMPSW,PIOUSG                                              59110021
 00594E 9523 C636      01C96        7097 SRTUS1   CLI   NXTCOD,XX23               BCD FILENAME                   59120021
 005952 4770 95B2      058B2        7098        BNE   SRTANT                     NO                              59130021
 005956 4170 C637      01C97        7099        LA    JG,NXTN                   ADDR OF FILENAME                 59140021
 00595A 45E0 9806      05B06        7100        BAL   JP,FILSV2                  GO TO SUBRTN FOR FILE NAME      59150021
 00595E 47F0 95B2      058B2        7101        B     SRTANT                     NO                              59160021
 005962 D600 5001 D296 00001 00B36  7102 SRUSGV   OC    PIOFL2(LX1,JE),TEMPSW     SET ON USING - GIVING BIT      59170021
 005968 9604 D281      00B21        7103          OI    SRTSW,XX04               TURN SORT SW ON                 59180021
 00596C 9108 5001      00001        7104        TM    PIOFL2(JE),PIOUSG         IS IT USING                      59190021
 005970 4710 96AE      059AE        7105        BO    SRTUS2                    YES                              59200021
 005974 9240 D7E0      01080        7106          MVI   PIOCOD,XX40              GIVING-OUTPUT                   59210021
 005978 D709 D842 D842 010E2 010E2  7107 SRTFNT   XC    OPNGNS(LX10),OPNGNS      ZERO OUT GN FIELD               59220021
 00597E 45E0 934E      0564E        7108        BAL   JP,OPNSRT                  GO TO OPEN CODE - SORT FILE     59230021
 005982 D600 5000 D7E0 00000 01080  7109          OC    PIOFL1(LX1,JE),PIOCOD    SAVE TYPE OF OPEN               59240021
 005988 45E0 96BE      059BE        7110        BAL   JP,CHKOUT                  GO TO CK IF QUAL BCD            59250021
 00598C 45E0 96BE      059BE        7111        BAL   JP,CHKOUT                  GO TO CK IF QUAL BCD            59260021
 005990 4160 D840      010E0        7112        LA    JF,OPNSTR                 WRITE GNS                        59270021
 005994 45E0 B4F8      02460        7113        BAL   JP,GENB                    PUT ON FILE 2                   59280021
 005998 D702 D296 D296 00B36 00B36  7114 SRTEND   XC    TEMPSW(LX3),TEMPSW                                       59290021
 00599E 94FB D281      00B21        7115          NI    SRTSW,XXFB                TURN SORT SW OFF               59300021
 0059A2 47F0 95B6      058B6        7116        B     SRTENT                     CHECK FOR COBOL WORD            59310021
1PH1B     IKFCBL1B                                                                                              PAGE  162
-  LOC  OBJECT CODE    ADDR1 ADDR2  STMT   SOURCE STATEMENT                                       ASM 0201 11.03 02/14/15
0                            059A6  7117 SRTGIV EQU   *                                                          59320021
 0059A6 9604 D296      00B36        7118        OI    TEMPSW,PIOGVG             SET ON GIVING BIT                59330021
 0059AA 47F0 964E      0594E        7119        B     SRTUS1                     CK IF BCD FILENAME              59340021
 0059AE 9280 D7E0      01080        7120 SRTUS2   MVI   PIOCOD,XX80              USING-INPUT                     59350021
 0059B2 47F0 9678      05978        7121        B     SRTFNT                     GO TO OPEN SORT FILE CODE RTN   59360021
                                    7122 *                                                                       59370021
 0059B6 50E0 D694      00F34        7123 CHKIN  ST    JP,SV1F01                  SAVE LINK REG                   59380021
 0059BA 47F0 96DA      059DA        7124        BC    UNCOND,CHKGTA               -CHKGTA                        59390021
 0059BE 50E0 D694      00F34        7125 CHKOUT ST    JP,SV1F01                  SAVE LINK REG                   59400021
 0059C2 95A2 C580      01BE0        7126          CLI   CURCOD,XXA2               QUAL-BCD-NAME                  59410021
 0059C6 4770 96D6      059D6        7127        BC    NOTEQ,CHKGTB                NO-CHKGTB                      59420021
 0059CA 1835                        7128        LR    JC,JE                      SAVE PIOTBL PTR                 59430021
 0059CC 45E0 F900      04C98        7129        BAL   JP,QLFNAM                  -QLFNAM                         59440021
 0059D0 1853                        7130        LR    JE,JC                      RESTORE PTR                     59450021
 0059D2 47F0 96DA      059DA        7131        BC    UNCOND,CHKGTA               -CHKGTA                        59460021
 0059D6 45E0 B4F4      0245C        7132 CHKGTB BAL   JP,GENA                    -GENA                           59470021
 0059DA 45E0 B000      01F68        7133 CHKGTA BAL   JP,GETWD                   -GETWD                          59480021
 0059DE 9104 D281      00B21        7134          TM    SRTSW,XX04               SORT SW ON-                     59490021
 0059E2 4710 96FE      059FE        7135        BO    CHKRTN                    YES-RETURN                       59500021
 0059E6 45E0 F0FE      04496        7136        BAL   JP,MAJTST                  -MAJTST                         59510021
 0059EA 47F0 FB50      04EE8        7137        BC    UNCOND,VRBMAJ               YES-VRBMAJ                     59520021
 0059EE 9101 C57D      01BDD        7138          TM    CURSW,XX01                IN A-MARGIN                    59530021
 0059F2 4780 96FE      059FE        7139        BC    ZERO,CHKRTN                 NO-CHKRTN                      59540021
 0059F6 45E0 F78E      04B26        7140        BAL   JP,CHKLHN                  -CHKLHN                         59550021
 0059FA 47F0 FB2C      04EC4        7141        BC    UNCOND,VRBLHN               YES-VRBLHN                     59560021
 0059FE 58E0 D694      00F34        7142 CHKRTN L     JP,SV1F01                  RESTORE LINK REG                59570021
 005A02 07FE                        7143        BCR   UNCOND,JP                   -RETURN-JP                     59580021
                                    7144 *                                                                       59590021
                                    7145 *                                                                       59600021
                                    7146 ************************* READ  ***********************************     59610021
                                    7147 *                                                                       59620021
                                    7148 *                                                                       59630021
 005A04 45E0 982E      05B2E        7149 REDSVB BAL   JP,GENSEQ                  GEN CARD  ON FILE 2 AFTER CHK   59640021
 005A08 4170 C637      01C97        7150          LA    JG,NXTN                                                  59650021
 005A0C 45E0 9806      05B06        7151        BAL   JP,FILSV2                  GO TO SUBRTN FOR FILE NAME      59660021
 005A10 47F0 FACA      04E62        7152        B     VRBGEN                     WRITE  ON FILE2                 59670021
 005A14 9601 5002      00002        7153          OI    DX2(JE),XX01              READ BIT IN PIOTBL       44686 59680021
 005A18 9180 5001      00001        7154          TM    DX1(JE),XX80                                             59690021
 005A1C 4780 9734      05A34        7155        BZ    INVCHK                     CHECK  FOR  INV CONST.          59700021
 005A20 9565 C581      01BE1        7156          CLI   CURN,XX65                                                59710021
 005A24 4770 9730      05A30        7157        BNE   RRUNCD                     MOVE CODE  TO CURN              59720021
 005A28 9275 C581      01BE1        7158          MVI   CURN,XX75                                                59730021
 005A2C 47F0 9734      05A34        7159        B     *+NX8                      BRANCH AROUND MOVE TO CURN      59740021
 005A30 9271 C581      01BE1        7160 RRUNCD   MVI   CURN,XX71                                                59750021
 005A34 D501 C636 A5F0 01C96 02AB8  7161 INVCHK   CLC   NXTCOD(LX2),INVCON                                       59760021
 005A3A 4780 9746      05A46        7162        BE    INVPOR                     SET  BIT  GO TO VRBGEN          59770021
 005A3E 45E0 96BE      059BE        7163        BAL   JP,CHKOUT                  CK  FOR   QUAL-BCD-NAME         59780021
 005A42 47F0 9734      05A34        7164        B     INVCHK                     CK  FOR  CONST                  59790021
 005A46 9604 5002      00002        7165 INVPOR   OI    PIOFL3(JE),PIOINV                                        59800021
 005A4A 47F0 FB00      04E98        7166          B     VRBENT              CHECK FOR QUAL NAME BEFORE GETWORD   59810021
                                    7167 *                                                                       59820021
                                    7168 *****     DISPLAY VERB     *****                                        59830021
                                    7169 *                                                                       59840021
 005A4E 45E0 982E      05B2E        7170 DSPSVB BAL   JP,GENSEQ                  -GENSEQ                         59850021
 005A52 45E0 96BE      059BE        7171 DSPGEN BAL   JP,CHKOUT                  -CHKOUT  (A-MARG OR MAJ-0)      59860021
1PH1B     IKFCBL1B                                                                                              PAGE  163
-  LOC  OBJECT CODE    ADDR1 ADDR2  STMT   SOURCE STATEMENT                                       ASM 0201 11.03 02/14/15
0005A56 9533 C580      01BE0        7172 DSPEXH   CLI   CURCOD,XX33               FLOAT PNT LIT                  59870021
 005A5A 4770 9768      05A68        7173        BC    NOTEQ,DSPSPN                NO-DSPSPN                      59880021
                                    7174 *        SET UP LITERAL IN EXTERNAL FORM                                59890021
 005A5E D21E C581 C55E 01BE1 01BBE  7175          MVC   CURN(LX31),CURCNT                                        59900021
 005A64 47F0 9752      05A52        7176        BC    UNCOND,DSPGEN               -DSPGEN                        59910021
                                    7177 *                                                                       59920021
 005A68 D501 C580 A257 01BE0 0271F  7178 DSPSPN   CLC   CURCOD(LX2),UPONCN        UPON                           59930021
 005A6E 4770 9752      05A52        7179        BC    NOTEQ,DSPGEN                NO-DSPGEN                      59940021
 005A72 45E0 96BE      059BE        7180        BAL   JP,CHKOUT                  -CHKOUT                         59950021
 005A76 4170 C581      01BE1        7181        LA    JG,CURN                   ADDR OF MNEMONIC NAME            59960021
 005A7A 45E0 B414      0237C        7182        BAL   JP,SCHSPN                  -SCHSPN                         59970021
 005A7E 9140 D279      00B19        7183          TM    SCHSW,XX40               FOUND                           59980021
 005A82 4780 9752      05A52        7184        BZ    DSPGEN                    NO                               59990021
 005A86 D202 C580 2000 01BE0 00000  7185          MVC   CURCOD(LX3),DX0(JB)       MOVE CODE                      60000021
 005A8C 47F0 9752      05A52        7186        BC    UNCOND,DSPGEN               -DSPGEN                        60010021
                                    7187 *                                                                       60020021
                                    7188 *****     ACCEPT VERB     *****                                         60030021
                                    7189 *                                                                       60040021
 005A90 45E0 982E      05B2E        7190 ACCSVB BAL   JP,GENSEQ                  -GENSEQ                         60050021
 005A94 45E0 96BE      059BE        7191 ACCANT BAL   JP,CHKOUT                  -CHKOUT                         60060021
 005A98 D501 C580 A185 01BE0 0264D  7192          CLC   CURCOD(LX2),FROMCN        FROM                           60070021
 005A9E 4770 9794      05A94        7193        BC    NOTEQ,ACCANT                NO-ACCANT                      60080021
 005AA2 45E0 96BE      059BE        7194        BAL   JP,CHKOUT                  -CHKOUT                         60090021
 005AA6 4170 C581      01BE1        7195        LA    JG,CURN                   ADDR OF MNEMONIC NAME            60100021
 005AAA 45E0 B414      0237C        7196        BAL   JP,SCHSPN                  -SCHSPN                         60110021
 005AAE 9140 D279      00B19        7197          TM    SCHSW,XX40               FOUND                           60120021
 005AB2 4780 9794      05A94        7198        BZ    ACCANT                    NO                               60130021
 005AB6 D202 C580 2000 01BE0 00000  7199          MVC   CURCOD(LX3),DX0(JB)       MOVE CODE                      60140021
 005ABC 47F0 9794      05A94        7200        BC    UNCOND,ACCANT               -ACCANT                        60150021
                                    7201 *                                                                       60160021
                                    7202 *                                                                       60170021
                                    7203 ************       SUBROUTINE FOR FILENAME        *********             60180021
                                    7204 *                                                                       60190021
 005AC0 50E0 D6CC      00F6C        7205 FILSVB ST    JP,SV1F12                 SAVE LINK REG                    60200021
 005AC4 45E0 982E      05B2E        7206        BAL   JP,GENSEQ             GEN CARD NUM - F4  SEQ NUM - F2      60210021
 005AC8 47F0 97D0      05AD0        7207        B     *+8                        SKIP SAVE                       60220021
 005ACC 50E0 D6CC      00F6C        7208 FILSVR ST    JP,SV1F12                  SAVE LINK REG                   60230021
 005AD0 45E0 B4F4      0245C        7209        BAL   JP,GENA                    PUT  ON  FILE 2                 60240021
 005AD4 45E0 B000      01F68        7210        BAL   JP,GETWD                   GET NEXT WORD                   60250021
 005AD8 9523 C580      01BE0        7211          CLI   CURCOD,XX23               BCD NAME                       60260021
 005ADC 4770 9800      05B00        7212        BNE   FILSV1                     NO                              60270021
 005AE0 4170 C581      01BE1        7213        LA    JG,CURN                                                    60280021
 005AE4 45E0 B3F4      0235C        7214 FILSV3 BAL   JP,SCHFNT                  SEARCH FNT TABLE                60290021
 005AE8 9140 D279      00B19        7215          TM    SCHSW,XX40                FOUND                          60300021
 005AEC 4780 9800      05B00        7216        BZ    FILSV1                     NO                              60310021
 005AF0 4832 0000      00000        7217        LH    JC,FNPIOT(JB)              GET PIOTBL PTR                  60320021
 005AF4 45E0 F6B0      04A48        7218        BAL   JP,SETPIO                  GET PIOTBL ENTRY                60330021
 005AF8 58E0 D6CC      00F6C        7219        L     JP,SV1F12                                                  60340021
 005AFC 47FE 0004      00004        7220        B     NX4(JP)                    4 PASS RT ADDR TO VRBENT RTN    60350021
 005B00 58E0 D6CC      00F6C        7221 FILSV1 L     JP,SV1F12                  RETURN-NOT FOUND                60360021
 005B04 07FE                        7222        BR    JP                         RETURN                          60370021
 005B06 50E0 D6CC      00F6C        7223 FILSV2 ST    JP,SV1F12                                                  60380021
 005B0A 47F0 97E4      05AE4        7224        B     FILSV3                     SEARCH FNTBL RTN                60390021
                                    7225 *                                                                       60400021
                                    7226 ************     START VERB       *************                         60410021
1PH1B     IKFCBL1B                                                                                              PAGE  164
-  LOC  OBJECT CODE    ADDR1 ADDR2  STMT   SOURCE STATEMENT                                       ASM 0201 11.03 02/14/15
0                                   7227 *                                                                       60420021
 005B0E 45E0 97C0      05AC0        7228 STTSVB BAL   JP,FILSVB                  CHECK IF FN IS IN FNTBL         60430021
 005B12 47F0 FB00      04E98        7229        B     VRBENT                     CHK FOR MAJ VERB                60440021
 005B16 9608 5002      00002        7230        OI    PIOFL3(JE),PIOSTR          YES  - TURN ON START BIT        60450021
 005B1A 47F0 9734      05A34        7231        B     INVCHK                     CK INVALID                      60460021
                                    7232 *                                                                       60470021
                                    7233 ************      SEEK VERB      ****************                       60480021
                                    7234 *                                                                       60490021
 005B1E 45E0 B000      01F68        7235 SEKSVB BAL   JP,GETWD                   GET SEEK CLAUSE WDS             60500021
 005B22 45E0 F0FE      04496        7236        BAL   JP,MAJTST                  NEXT CLAUSE                     60510021
 005B26 47F0 FB50      04EE8        7237        B     VRBMAJ                     YES - VRB SCAN                  60520021
 005B2A 47F0 981E      05B1E        7238        B     SEKSVB                     NO - KEEP GETTING               60530021
                                    7239 *                                                                       60540021
1PH1B     IKFCBL1B                                                                                              PAGE  165
-  LOC  OBJECT CODE    ADDR1 ADDR2  STMT   SOURCE STATEMENT                                       ASM 0201 11.03 02/14/15
0                                   7241 *=2          GEN FILES 3,4                                              60560021
                                    7242 *                                                                       60570021
                                    7243 *****     GENSEQ     *****                                              60580021
                                    7244 *                                                                       60590021
 005B2E 50E0 D6B0      00F50        7245 GENSEQ ST    JP,SV1F05                  SAVE LINK REG                   60600021
 005B32 D201 D60A C57E 00EAA 01BDE  7246          MVC   CRDGCN+NX1(LX2),CURGCN     GEN CARD NUMBER               60610021
 005B38 4160 D609      00EA9        7247        LA    JF,CRDGCN                  ADDR OF CARD NUM TEXT           60620021
 005B3C 9544 C580      01BE0        7248          CLI   CURCOD,XX44         IS IT VERB                           60630021
 005B40 4770 9848      05B48        7249          BNE   *+8                NO                                    60640021
 005B44 9680 D60A      00EAA        7250          OI    CRDGCN+NX1,XX80     INDICATE CARD NO FOR VERB            60650021
 005B48 45E0 B4F8      02460        7251        BAL   JP,GENB                    -GENB PUT TO FILE TWO           60660021
 005B4C 947F D60A      00EAA        7252          NI    CRDGCN+NX1,XX7F     FOR PHASE  6 CLIST PROCESSING        60670021
 005B50 5810 C6B0      01D10        7253          L     JA,COSADR                WRITE                           60680021
 005B54 9101 11C6      001C6        7254          TM    PHZSW3,VERBR             LISTING A-TEXT OPTION           60690021
 005B58 47E0 987E      05B7E        7255          BNO   GENMOV1                  NO                              60700021
 005B5C 1733                        7256        XR    JC,JC                        CLEAR REG                     60710021
 005B5E 4330 C55E      01BBE        7257        IC    JC,CURCNT                   WORD SIZE                      60720021
 005B62 4120 D5EA      00E8A        7258        LA    JB,PRF4NU                  MOVE TO                         60730021
 005B66 4170 C55E      01BBE        7259        LA    JG,CURCNT                  MOVE FROM                       60740021
 005B6A 4430 B3C2      0232A        7260        EX    JC,TXMOVE                   EX MOVE OF WORD TO F4 TEXT     60750021
 005B6E 4133 0002      00002        7261          LA    JC,DX2(JC)               ADJ TO SIZE OF F4 TEXT FIELD    60760021
 005B72 4120 D5E9      00E89        7262          LA    JB,PRF4CD                ADDR OF ENTRY ATEXT             60770021
 005B76 5810 C6B0      01D10        7263 GENMOV L     JA,COSADR                   PUTN TO                        60780021
 005B7A 0501                        7264        BALR  JR,JA                          FILE                        60790021
 005B7C 12                          7265          DC    X'12'               TWO                                  60800021
 005B7D 00
 005B7E 9544 C580      01BE0        7266 GENMOV1  CLI   CURCOD,XX44              VERB                            60810021
 005B82 4770 9890      05B90        7267        BNE   GENCVB                    NO                               60820021
 005B86 5810 C6B0      01D10        7268        L     JA,COSADR                                                  60830021
 005B8A FA31 1190 D460 00190 00D00  7269          AP    DATE+NX4(LX4),SVCINC      ADD 1 TO VERB COUNT            60840021
 005B90 58E0 D6B0      00F50        7270 GENCVB L     JP,SV1F05                                                  60850021
 005B94 07FE                        7271        BCR   UNCOND,JP                  RETURN                          60860021
1PH1B     IKFCBL1B                                                                                              PAGE  166
-  LOC  OBJECT CODE    ADDR1 ADDR2  STMT   SOURCE STATEMENT                                       ASM 0201 11.03 02/14/15
0                                   7273 *=2          DICTIONARY ENTRY                                           60880021
                                    7274 *                                                                       60890021
                                    7275 *****    DICTIONARY ENTRY OF LHN    *****                               60900021
                                    7276 *                                                                       60910021
 005B96 50E0 D6B4      00F54        7277 DICENT ST    JP,SV1F06                  SAVE LINK REG                   60920021
 005B9A 9140 D58E      00E2E        7278          TM    LCCHAR,XX40               SECTION NAME                   60930021
 005B9E 4710 98B2      05BB2        7279        BC    ONES,DICSCT                 YES-DICSCT                     60940021
 005BA2 9200 D528      00DC8        7280          MVI   NAMCOD,XX00               SET CODE TO '0' FOR ENTNAM     60950021
 005BA6 9206 D52C      00DCC        7281          MVI   NAMCOD+NX4,XX06           ATTRIB COUNT FOR  PN           60960021
 005BAA 926D D58D      00E2D        7282          MVI   LCATRB,XX6D               COUNT TO WORK-AREA             60970021
 005BAE 47F0 9916      05C16        7283        BC    UNCOND,DICPAR               -DICPAR                        60980021
 005BB2 9204 D528      00DC8        7284 DICSCT   MVI   NAMCOD,XX04               SET CODE TO '4' FOR ENTNAM     60990021
 005BB6 9209 D52C      00DCC        7285          MVI   NAMCOD+NX4,XX09           ATTRIB CT FOR SCT NAME         61000021
 005BBA 929D D58D      00E2D        7286          MVI   LCATRB,XX9D               CT TO WORK AREA                61010021
 005BBE 4110 D528      00DC8        7287        LA    JA,NAMCOD                  ADDR OF PARAM                   61020021
 005BC2 58F0 C6D0      01D30        7288        L     JQ,ENNMCN                  ADDR OF ENTNAM                  61030021
 005BC6 05EF                        7289        BALR  JP,JQ                      -ENTNAM                         61040021
 005BC8 58F0 D654      00EF4        7290          L     JQ,SVREG+NX56             RESTORE REG JQ                 61050021
 005BCC D203 D530 D534 00DD0 00DD4  7291        MVC   SCTPTR,DELPTR              DELIM PTR  TO SECT PTR          61060021
 005BD2 5010 D534      00DD4        7292        ST    JA,DELPTR                  STORE NEW DELIM PTR             61070021
 005BD6 9102 D27A      00B1A        7293          TM    FSTLHN,XX02               FIRST LHN                      61080021
 005BDA 4780 990C      05C0C        7294        BC    ZERO,DICFLN                 YES-DICFLN                     61090021
 005BDE 4110 D530      00DD0        7295        LA    JA,SCTPTR                  ADDR OF PARAM                   61100021
 005BE2 58F0 C6D4      01D34        7296        L     JQ,ENDLCN                  ADDR OF ENTDEL                  61110021
 005BE6 05EF                        7297        BALR  JP,JQ                      -ENTDEL                         61120021
 005BE8 58F0 D654      00EF4        7298          L     JQ,SVREG+NX56             RESTORE REG JQ                 61130021
 005BEC 9204 D530      00DD0        7299          MVI   SCTPTR,XX04               SET CODE FOR LATRPT            61140021
 005BF0 4110 D530      00DD0        7300        LA    JA,SCTPTR                  ADDR OF PARAM                   61150021
 005BF4 58F0 C6E4      01D44        7301        L     JQ,LATPCN                  ADDR OF LATRPT                  61160021
 005BF8 05EF                        7302        BALR  JP,JQ                      -LATRPT                         61170021
 005BFA 58F0 D654      00EF4        7303          L     JQ,SVREG+NX56             RESTORE REG JQ                 61180021
 005BFE D201 2007 D590 00007 00E30  7304          MVC   DX7(LX2,JB),LCNUM          PRESENT SCT NUM TO LAST SCT   61190021
 005C04 45E0 9A12      05D12        7305        BAL   JP,SCNPNT                  SCAN PN TABLE                   61200021
 005C08 47F0 9910      05C10        7306        BC    UNCOND,DICEXT               -DICEXT                        61210021
 005C0C 9602 D27A      00B1A        7307 DICFLN   OI    FSTLHN,XX02               SET FSTLHN 'ON'                61220021
 005C10 58E0 D6B4      00F54        7308 DICEXT L     JP,SV1F06                  RESTORE LINK REG                61230021
 005C14 07FE                        7309        BCR   UNCOND,JP                   -RETURN                        61240021
 005C16 4110 D528      00DC8        7310 DICPAR LA    JA,NAMCOD                  ADDR OF PARAM                   61250021
 005C1A 58F0 C6D0      01D30        7311        L     JQ,ENNMCN                  ADDR OF ENTNAM                  61260021
 005C1E 05EF                        7312        BALR  JP,JQ                      -ENTNAM                         61270021
 005C20 58F0 D654      00EF4        7313          L     JQ,SVREG+NX56             RESTORE REG JQ                 61280021
 005C24 47F0 9910      05C10        7314        BC    UNCOND,DICEXT               -DICEXT                        61290021
1PH1B     IKFCBL1B                                                                                              PAGE  167
-  LOC  OBJECT CODE    ADDR1 ADDR2  STMT   SOURCE STATEMENT                                       ASM 0201 11.03 02/14/15
0                                   7316 *=2          ATTRIB SAVE                                                61310021
                                    7317 *                                                                       61320021
                                    7318 *****    ATTRIBUTE ENTRY TO SAVE TABLE    *****                         61330021
                                    7319 *                                                                       61340021
 005C28 50E0 D6B8      00F58        7320 ATRLNT ST    JP,SV1F07                  SAVE LINK REG                   61350021
 005C2C D21F D59C D56C 00E3C 00E0C  7321          MVC   PNBCDN(LX32),LCBCD        LHN TO WORK AREA               61360021
 005C32 47F0 9970      05C70        7322        BC    UNCOND,ATRNQN               -ATRNQN                        61370021
 005C36 50E0 D6B8      00F58        7323 ATRENT ST    JP,SV1F07                  SAVE LINK REG                   61380021
 005C3A 9180 D27B      00B1B        7324          TM    DSQLSW,XX80               MORE THAN ONE QUALIFIER        61390021
 005C3E 071E                        7325        BCR   ONES,JP                     YES-RETURN                     61400021
 005C40 D21E D59C C581 00E3C 01BE1  7326          MVC   PNBCDN(LX31),CURN         PROCEDURE NAME TO WORK AREA    61410021
 005C46 9140 D27B      00B1B        7327          TM    QLPNSW,XX40               QUALIFIED PN                   61420021
 005C4A 4710 99A6      05CA6        7328        BC    ONES,ATRQNM                 YES-ATRQNM                     61430021
 005C4E 5810 C6F4      01D54        7329        L     JA,PNTCON                                                  61440021
 005C52 4180 D59C      00E3C        7330        LA    JH,PNBCDN                  GET ADDR OF FIELD TO COMPAR     61450021
 005C56 45E0 C844      01EA4        7331        BAL   JP,VARPN                   CHECK IF PN IS IN TABLE         61460021
 005C5A 9140 D299      00B39        7332          TM    VRPNSW,XX40               PN FOUND                       61470021
 005C5E 4780 9970      05C70        7333        BC    ZERO,ATRNQN                NO                              61480021
 005C62 4123 2002      00002        7334 PNCOR    LA    JB,DX2(JC,JB)             YES, GET ADDR OF PNCHAR        61490021
 005C66 D601 2000 D5BC 00000 00E5C  7335          OC    DX0(LX2,JB),PNCHAR        OR IN ATTRIBUTES               61500021
 005C6C 47F0 9A06      05D06        7336        BC    UNCOND,ATREXT              RETURN                          61510021
 005C70 5810 C6F4      01D54        7337 ATRNQN L     JA,PNTCON                  ADDR OF PNTABL                  61520021
 005C74 1B00                        7338        SR    JR,JR                                                      61530021
 005C76 4300 D59C      00E3C        7339        IC    JR,PNBCDN                                                  61540021
 005C7A 4A00 C13C      0179C        7340        AH    JR,HWFOUR                                                  61550021
 005C7E 4200 D59B      00E3B        7341        STC   JR,PNBCT                                                   61560021
 005C82 4A00 C136      01796        7342        AH    JR,HWONE                                                   61570021
 005C86 58F0 C6BC      01D1C        7343        L     JQ,ADSERT                  CALL INSERT                     61580021
 005C8A 05EF                        7344        BALR  JP,JQ                      GO TO INSERT RTN                61590021
 005C8C 58F0 D654      00EF4        7345          L     JQ,SVREG+NX56             RESTORE BASE REG               61600021
 005C90 4170 D59D      00E3D        7346          LA    JG,PNBCDN+NX1             GET ADDR OF PN                 61610021
 005C94 1B33                        7347        SR    JC,JC                                                      61620021
 005C96 4330 D59C      00E3C        7348        IC    JC,PNBCDN                                                  61630021
 005C9A 1A73                        7349        AR    JG,JC                      ADD LENGTH OF PN                61640021
 005C9C D202 7000 D5BC 00000 00E5C  7350          MVC   DX0(LX3,JG),PNCHAR        MOVE CONSTANTS UP              61650021
 005CA2 47F0 99F4      05CF4        7351        BC    UNCOND,ATRPNB              PREP TO EXEC MOVE INSTRUCT.     61660021
 005CA6 5810 C6FC      01D5C        7352 ATRQNM L     JA,PNQCON                  ADDR OF PNQTBL                  61670021
 005CAA 4180 D59C      00E3C        7353        LA    JH,PNBCDN                  GET ADDR OF FIELD TO COMPAR     61680021
 005CAE 45E0 C844      01EA4        7354        BAL   JP,VARPN                   CHECK IF PN QUAL IS IN TBL      61690021
 005CB2 9140 D299      00B39        7355          TM    VRPNSW,XX40               PNQ FOUND                      61700021
 005CB6 4710 9962      05C62        7356        BC    ONES,PNCOR                 YES                             61710021
 005CBA 5810 C6FC      01D5C        7357        L     JA,PNQCON                  NO                              61720021
 005CBE 1B33                        7358        SR    JC,JC                                                      61730021
 005CC0 4330 D59C      00E3C        7359        IC    JC,PNBCDN                  GET CT OF PN                    61740021
 005CC4 1B44                        7360        SR    JD,JD                                                      61750021
 005CC6 4340 D5C0      00E60        7361        IC    JD,PNBCDQ                  GET CT OF PN QUAL               61760021
 005CCA 4103 4006      00006        7362          LA    JR,DX6(JC,JD)            ADD CONSTANTS BYTES             61770021
 005CCE 4200 D59B      00E3B        7363        STC   JR,PNBCT                   STORE TOTAL CT                  61780021
 005CD2 4A00 C136      01796        7364        AH    JR,HWONE                   ADD 1 FOR TOTAL CT BYTE         61790021
 005CD6 58F0 C6BC      01D1C        7365        L     JQ,ADSERT                  CALL INSERT                     61800021
 005CDA 05EF                        7366        BALR  JP,JQ                      GO TO INSERT RTN                61810021
 005CDC 58F0 D654      00EF4        7367          L     JQ,SVREG+NX56             RESTORE BASE REG               61820021
 005CE0 4170 D59D      00E3D        7368          LA    JG,PNBCDN+NX1             GET ADDR OF PN                 61830021
 005CE4 1B33                        7369        SR    JC,JC                                                      61840021
 005CE6 4330 D59C      00E3C        7370        IC    JC,PNBCDN                                                  61850021
1PH1B     IKFCBL1B                                                                                              PAGE  168
-  LOC  OBJECT CODE    ADDR1 ADDR2  STMT   SOURCE STATEMENT                                       ASM 0201 11.03 02/14/15
0005CEA 1A37                        7371        AR    JC,JG                      ADD LENGTH OF PN                61860021
 005CEC 4144 0004      00004        7372          LA    JD,DX4(JD)                ADD 4 BYTES TO PN QUAL LENG    61870021
 005CF0 4440 D610      00EB0        7373        EX    JD,PNQMV                   MOVE CONSTANTS/PNQUAL UP        61880021
 005CF4 4170 D59B      00E3B        7374 ATRPNB LA    JG,PNBCT                   GET ADDR OF AREA TO STORE       61890021
 005CF8 1B11                        7375        SR    JA,JA                                                      61900021
 005CFA 4310 D59B      00E3B        7376        IC    JA,PNBCT                   GET CT FOR 'EX'                 61910021
 005CFE 4410 B3C2      0232A        7377        EX    JA,TXMOVE                  'EX' MOVE TO TABLE              61920021
 005D02 9222 D5BF      00E5F        7378          MVI   PNQLCD,XX22        REINITIALIZE AFTER SHIFTING QUAL PN   61930021
 005D06 D702 D5BC D5BC 00E5C 00E5C  7379 ATREXT   XC    PNCHAR(LX3),PNCHAR  SET TO ZERO                          61940021
 005D0C 58E0 D6B8      00F58        7380        L     JP,SV1F07                  RESTORE LINK REG                61950021
 005D10 07FE                        7381        BCR   UNCOND,JP                   -RETURN                        61960021
                                    7382 *DEL                                                                    61970021
                                    7383 *DEL                                                                    61980021
1PH1B     IKFCBL1B                                                                                              PAGE  169
-  LOC  OBJECT CODE    ADDR1 ADDR2  STMT   SOURCE STATEMENT                                       ASM 0201 11.03 02/14/15
0                                   7385 *=2          SEARCH PN TABLE                                            62000021
                                    7386 *                                                                       62010021
                                    7387 **  SEARCH PN TABLE - IF FOUND PUT ATTRIB IN ENTRY AND DELETE PN        62020021
                                    7388 *                                                                       62030021
 005D12 9102 D27A      00B1A        7389 SCNPNT   TM    FSTLHN,XX02               FIRST LHN SW 'ON'              62040021
 005D16 4710 9A20      05D20        7390        BC    ONES,SCNSET                 YES-SCNSET                     62050021
 005D1A 9602 D27A      00B1A        7391          OI    FSTLHN,XX02               SET FSLHN 'ON'                 62060021
 005D1E 07FE                        7392        BCR   UNCOND,JP                   -RETURN                        62070021
 005D20 94BF D27B      00B1B        7393 SCNSET   NI    QLPNSW,XXBF               SET QLPNSW 'OFF'               62080021
 005D24 50E0 D6BC      00F5C        7394        ST    JP,SV1F08                  SAVE LINK REG                   62090021
 005D28 5860 C6F4      01D54        7395        L     JF,PNTCON                  ADDR OF TABLE TO BE SCANED      62100021
 005D2C D202 D53D D531 00DDD 00DD1  7396          MVC   GRPPTR+NX1(LX3),SCTPTR+NX1 CUR SECT TO BE SEARCHED       62110021
 005D32 45E0 9A58      05D58        7397        BAL   JP,SEARCH                  -SEARCH                         62120021
 005D36 5866 0000      00000        7398          L     JF,DX0(JF)                ADDR OF TAMM                   62130021
 005D3A 4046 0004      00004        7399          STH   JD,DX4(JF)                ADJ DISPL OF PNTABL            62140021
                                    7400 *                                                                       62150021
                                    7401 **  SEARCH QUAL PN TABLE - IF FOUND PUT ATTRIB IN ENTRY AND DELETE      62160021
                                    7402 *                                                                       62170021
 005D3E 5860 C6FC      01D5C        7403        L     JF,PNQCON                  ADDR OF TABLE TO BE SCANED      62180021
 005D42 9640 D27B      00B1B        7404          OI    QLPNSW,XX40               SET QLPNSW 'ON'                62190021
 005D46 45E0 9A58      05D58        7405        BAL   JP,SEARCH                  -SEARCH                         62200021
 005D4A 5866 0000      00000        7406          L     JF,DX0(JF)                ADDR OF TAMM                   62210021
 005D4E 4046 0004      00004        7407          STH   JD,DX4(JF)                ADJ DISPL OF PNQTBL            62220021
 005D52 58E0 D6BC      00F5C        7408        L     JP,SV1F08                  RESTORE LINK REG                62230021
 005D56 07FE                        7409        BCR   UNCOND,JP                   -RETURN                        62240021
                                    7410 *                                                                       62250021
 005D58 50E0 D6C0      00F60        7411 SEARCH ST    JP,SV1F09                  SAVE LINK REG                   62260021
 005D5C D703 D29A D29A 00B3A 00B3A  7412          XC    DISPJH(LX4),DISPJH                                       62270021
 005D62 1B55                        7413        SR    JE,JE                                                      62280021
 005D64 1B88                        7414        SR    JH,JH                                                      62290021
 005D66 45E0 D8C8      01168        7415        BAL   JP,PNTAB                   CALC ADDR                       62300021
 005D6A 4843 0004      00004        7416          LH    JD,DX4(JC)                GET SIZE OF TAB                62310021
 005D6E 4040 D29E      00B3E        7417        STH   JD,EOTPN                                                   62320021
 005D72 D501 D29C D29E 00B3C 00B3E  7418 SEAEND   CLC   EOTCP(LX2),EOTPN         END OF TABLE                    62330021
 005D78 47B0 9BC6      05EC6        7419        BC    NOTLO,SEAEXT               YES BRANCH                      62340021
 005D7C 9140 D27B      00B1B        7420          TM    QLPNSW,XX40               SCANNING PNQTBL                62350021
 005D80 4710 9B6C      05E6C        7421        BC    ONES,SEADEL                YES                             62360021
 005D84 4357 0000      00000        7422 SEALAT   IC    JE,DX0(JG)                NO, GET TOTAL CT               62370021
 005D88 4155 0001      00001        7423          LA    JE,DX1(JE)                TOTAL CT + 1                   62380021
 005D8C 41E7 0001      00001        7424          LA    JP,DX1(JG)                GET ADDR OF PN IN TBL          62390021
 005D90 4387 0001      00001        7425          IC    JH,DX1(JG)                CT OF BCD PN                   62400021
 005D94 D71F D2A0 D2A0 00B40 00B40  7426          XC    PNMVS(LX32),PNMVS        ZERO OUT WORKAREA FOR ACCESS    62410021
 005D9A 4480 D616      00EB6        7427        EX    JH,PNMVD                  MOVE PN TO FULL WORD(ACCESS)     62420021
 005D9E D202 D539 D2C1 00DD9 00B61  7428          MVC   GRPBCD+NX1(LX3),ADPNMV+NX1                               62430021
 005DA4 4110 D538      00DD8        7429        LA    JA,GRPBCD                  ADDR OF PARAM                   62440021
 005DA8 58F0 C6D8      01D38        7430        L     JQ,LATGCN                  ADDR OF LATGRP                  62450021
 005DAC 05EF                        7431        BALR  JP,JQ                      -LATGRP                         62460021
 005DAE 181F                        7432        LR    JA,JQ                      SAVE REG FOR TEST               62470021
 005DB0 58F0 D654      00EF4        7433          L     JQ,SVREG+NX56             RESTORE REG JQ                 62480021
 005DB4 45E0 D8C8      01168        7434        BAL   JP,PNTAB                   RECALCULATE ADDR ACROSS ACC     62490021
 005DB8 4910 C13C      0179C        7435        CH    JA,HWFOUR                  FOUND                           62500021
 005DBC 4780 9AE6      05DE6        7436        BC    EQ,SEANEW                   NO-SEANEW                      62510021
 005DC0 4720 9ACE      05DCE        7437        BC    HI,SEASIZ                   DUP-SEASIZ                     62520021
 005DC4 4138 7002      00002        7438 SEAINS   LA    JC,DX2(JH,JG)            ADDR OF PNCHAR                  62530021
 005DC8 D601 2001 3000 00001 00000  7439          OC    DX1(LX2,JB),DX0(JC)       PUT ATTRIB FROM TBL TO DICT    62540021
1PH1B     IKFCBL1B                                                                                              PAGE  170
-  LOC  OBJECT CODE    ADDR1 ADDR2  STMT   SOURCE STATEMENT                                       ASM 0201 11.03 02/14/15
0005DCE 1B45                        7440 SEASIZ SR    JD,JE                      REDUCE SIZE OF TABLE            62550021
 005DD0 9140 D27B      00B1B        7441          TM    QLPNSW,XX40              PNQTBL SEARCH?            51903 62560021
 005DD4 47E0 9B56      05E56        7442          BNO   SEBENT                   NO - CONTINUE             51903 62570021
 005DD8 1244                        7443          LTR   JD,JD                    JD ZERO?                  51903 62580021
 005DDA 4780 9B56      05E56        7444          BC    ZERO,SEBENT              YES - LEAVE TABLE ALONE   51903 62590021
 005DDE 41E0 9A72      05D72        7445          LA    JP,SEAEND                LOAD RETURN REGISTER      51903 62600021
 005DE2 47F0 D8DA      0117A        7446          B     PNQMOVUP                 ADJUST PNQTBL             51903 62610021
 005DE6 9140 D27B      00B1B        7447 SEANEW   TM    QLPNSW,XX40               QLPNSW 'ON'                    62620021
 005DEA 4710 9B56      05E56        7448        BC    ONES,SEBENT                 YES-SEBENT                     62630021
 005DEE 4138 7004      00004        7449          LA    JC,DX4(JH,JG)             GET ADDR OF PNOLD              62640021
 005DF2 9180 3000      00000        7450          TM    DX0(JC),XX80              NEW                            62650021
 005DF6 4710 9B28      05E28        7451        BC    ONES,SEAENT                 NO-SEAENT                      62660021
 005DFA D202 D541 D2C1 00DE1 00B61  7452          MVC   RNMBCD+NX1(LX3),ADPNMV+NX1                               62670021
 005E00 4110 D540      00DE0        7453        LA    JA,RNMBCD                  ADDR OF PARAM                   62680021
 005E04 58F0 C6DC      01D3C        7454        L     JQ,LATRCN                  ADDR OF LATRNM                  62690021
 005E08 05EF                        7455        BALR  JP,JQ                      -LATRNM                         62700021
 005E0A 181F                        7456        LR    JA,JQ                      SAVE REG FOR TEST               62710021
 005E0C 58F0 D654      00EF4        7457          L     JQ,SVREG+NX56             RESTORE REG JQ                 62720021
 005E10 45E0 D8C8      01168        7458        BAL   JP,PNTAB                   CALC ADDR ACROSS ACCESS         62730021
 005E14 4910 C13C      0179C        7459        CH    JA,HWFOUR                  FOUND                           62740021
 005E18 4720 9ACE      05DCE        7460        BC    HI,SEASIZ                   DUP-SEASIZ                     62750021
 005E1C 4740 9AC4      05DC4        7461        BC    LO,SEAINS                   YES-SEAINS                     62760021
 005E20 4138 7004      00004        7462          LA    JC,DX4(JH,JG)             CALCULATE ADDR OF PNOLD        62770021
 005E24 9680 3000      00000        7463          OI    DX0(JC),XX80              MAKE OLD                       62780021
 005E28 D501 D29C D29A 00B3C 00B3A  7464 SEAENT   CLC   EOTCP(LX2),DISPJH        MOVE UP NEEDED                  62790021
 005E2E 4780 9B4C      05E4C        7465        BC    EQ,SEAADV                   NO-SEAADV                      62800021
 005E32 5836 0000      00000        7466          L     JC,DX0(JF)                YES GET ADDR OF TABLE          62810021
 005E36 5833 0000      00000        7467          L     JC,DX0(JC)                                               62820021
 005E3A 4133 0000      00000        7468          LA    JC,DX0(JC)                                               62830021
 005E3E 4A30 D29A      00B3A        7469        AH    JC,DISPJH                  CALC ADDR TO MOVE TO            62840021
 005E42 0650                        7470        BCTR  JE,JR                      SUB ONE FROM  REG FOR MOVE      62850021
 005E44 4450 9B66      05E66        7471        EX    JE,UPMOVE                  MOVE ENTRY UP                   62860021
 005E48 4155 0001      00001        7472          LA    JE,DX1(JE)                                               62870021
 005E4C 4830 D29A      00B3A        7473 SEAADV LH    JC,DISPJH                  ADVANCE SAVE DISP               62880021
 005E50 1A35                        7474        AR    JC,JE                                                      62890021
 005E52 4030 D29A      00B3A        7475        STH   JC,DISPJH                                                  62900021
 005E56 4800 D29C      00B3C        7476 SEBENT LH    JR,EOTCP                  ADVANCE                          62910021
 005E5A 1A05                        7477        AR    JR,JE                            LOOKUP                    62920021
 005E5C 4000 D29C      00B3C        7478        STH   JR,EOTCP                                      DISP         62930021
 005E60 1A75                        7479        AR    JG,JE                      ADVANCE LOOKUP ADDR             62940021
 005E62 47F0 9A72      05D72        7480        BC    UNCOND,SEAEND               -SEAEND                        62950021
 005E66 D200 3000 7000 00000 00000  7481 UPMOVE   MVC   DX0(LX0,JC),DX0(JG)                                      62960021
 005E6C 4357 0000      00000        7482 SEADEL   IC    JE,DX0(JG)               GET TOTAL CT                    62970021
 005E70 4155 0001      00001        7483          LA    JE,DX1(JE)                TOTAL CT + 1                   62980021
 005E74 4387 0001      00001        7484          IC    JH,DX1(JG)                GET BCD CT OF PN               62990021
 005E78 41E8 7006      00006        7485          LA    JP,DX6(JH,JG)             GET ADDR OF QUALIFIER          63000021
 005E7C 1B11                        7486        SR    JA,JA                                                      63010021
 005E7E 431E 0000      00000        7487          IC    JA,DX0(JP)               GET COUNT OF BCD QUAL           63020021
 005E82 D71F D2A0 D2A0 00B40 00B40  7488          XC    PNMVS(LX32),PNMVS        ZERO OUT WORKAREA FOR ACCESS    63030021
 005E88 4410 D616      00EB6        7489        EX    JA,PNMVD                  MOVE PNQ TO FULL WD FOR ACCE     63040021
 005E8C D202 D565 D2C1 00E05 00B61  7490          MVC   LNMBCD+NX1(LX3),ADPNMV+NX1                               63050021
 005E92 4110 D564      00E04        7491        LA    JA,LNMBCD                  ADDR OF PARAM                   63060021
 005E96 58F0 C6E0      01D40        7492        L     JQ,LDELCN                  ADDR OF LDELNM                  63070021
 005E9A 05EF                        7493        BALR  JP,JQ                      -LDELNM                         63080021
 005E9C 182F                        7494        LR    JB,JQ                      SAVE REG FOR TEST               63090021
1PH1B     IKFCBL1B                                                                                              PAGE  171
-  LOC  OBJECT CODE    ADDR1 ADDR2  STMT   SOURCE STATEMENT                                       ASM 0201 11.03 02/14/15
0005E9E 58F0 D654      00EF4        7495          L     JQ,SVREG+NX56             RESTORE REG JQ                 63100021
 005EA2 5030 D7D0      01070        7496        ST    JC,LOOKUP                 SAVE SECT PTR                    63110021
 005EA6 45E0 D8C8      01168        7497        BAL   JP,PNTAB                  CALC ADDR ACROSS ACCESS          63120021
 005EAA 4920 C13C      0179C        7498        CH    JB,HWFOUR                  FOUND                           63130021
 005EAE 4720 9ACE      05DCE        7499        BC    HI,SEASIZ                   DUP-SEASIZ                     63140021
 005EB2 4780 9B28      05E28        7500        BC    EQ,SEAENT                   NO-SEAENT                      63150021
 005EB6 1211                        7501        LTR   JA,JA                      DELIM IS '0'- NOT BUILT YET     63160021
 005EB8 4780 9B28      05E28        7502        BC    ZERO,SEAENT                 YES-SEAENT                     63170021
 005EBC D202 D53D D7D1 00DDD 01071  7503          MVC   GRPPTR+NX1(LX3),LOOKUP+NX1 SECT PTR TO PARAM LATGRP      63180021
 005EC2 47F0 9A84      05D84        7504        BC    UNCOND,SEALAT               -SEALAT                        63190021
 005EC6 58E0 D6C0      00F60        7505 SEAEXT L     JP,SV1F09                  RESTORE LINK REG                63200021
 005ECA 07FE                        7506        BCR   UNCOND,JP                   -RETURN                        63210021
                                    7507 *DEL                                                                    63220021
                                    7508 *DEL                                                                    63230021
                                    7509 *DEL                                                                    63240021
                                    7510 *DEL                                                                    63250021
                                    7511 *DEL                                                                    63260021
                                    7512 *DEL                                                                    63270021
1PH1B     IKFCBL1B                                                                                              PAGE  172
-  LOC  OBJECT CODE    ADDR1 ADDR2  STMT   SOURCE STATEMENT                                       ASM 0201 11.03 02/14/15
0                                   7514 *=2          DUMMY HEADER                                               63290021
                                    7515 *                                                                       63300021
                                    7516 *****    DUMMY HEADER GENERATION    ******                              63310021
                                    7517 *                                                                       63320021
                                    7518 *                                                                       63330021
                                    7519 *            THIS ROUTINE IS CALLED TO INSERT A DUMMY SECTION-NAME,     63340021
                                    7520 *            WHEN ONE IS MISSING, AT THE FOLLOWING POINTS IN PROC-D     63350021
                                    7521 *                                                                       63360021
                                    7522 *            AFTER--PROC-DIV HEADER W/O DECLARATIVES SECTION.           63370021
                                    7523 *                  -DECLARATIVES HEADER.                                63380021
                                    7524 *                  -END DECLARATIVES.                                   63390021
                                    7525 *                  -LAST PARAGRAPH OF PROC-DIV.                         63400021
                                    7526 *            BEFORE-EACH USE SENTENCE IN DECLARATIVES SECTION.          63410021
                                    7527 *                                                                       63420021
                                    7528 *            LEAVES DICTIONARY WORK AREA SET UP WITH DUMMY-NAME AND     63430021
                                    7529 *                                                                       63440021
 005ECC 50F0 DDB4      01654        7530 DUMGEN   ST    JQ,SAVJQ1                SAVE REG 15                     63450021
 005ED0 50E0 D6C4      00F64        7531          ST    JP,SV1F10                SAVE REG 14                     63460021
 005ED4 58E0 DDB8      01658        7532          L     JP,ADUMGN                     A(DUMGN)                   63470021
 005ED8 07FE                        7533          BCR   UNCOND,JP                    BR TO DUMGEN                63480021
                                    7534 *DEL                                                                    63490021
                                    7535 *DEL                                                                    63500021
                                    7536 *DEL                                                                    63510021
                                    7537 *DEL                                                                    63520021
                                    7538 *DEL                                                                    63530021
                                    7539 *DEL                                                                    63540021
                                    7540 *DEL                                                                    63550021
                                    7541 *DEL                                                                    63560021
                                    7542 *DEL                                                                    63570021
                                    7543 *DEL                                                                    63580021
                                    7544 *DEL                                                                    63590021
                                    7545 *DEL                                                                    63600021
                                    7546 *DEL                                                                    63610021
                                    7547 *DEL                                                                    63620021
1PH1B     IKFCBL1B                                                                                              PAGE  173
-  LOC  OBJECT CODE    ADDR1 ADDR2  STMT   SOURCE STATEMENT                                       ASM 0201 11.03 02/14/15
0                                   7549 *=2          EOS GENERATOR                                              63640021
                                    7550 *                                                                       63650021
                                    7551 *****    EOS TEST AND GENER IF MISSING    *****                         63660021
                                    7552 *                                                                       63670021
 005EDA 9108 D27C      00B1C        7553 EOSTGP   TM    DEBEOS,XX08               IS DEBEOS 'ON'                 63680021
 005EDE 071E                        7554        BCR   ONES,JP                     YES-RETURN                     63690021
 005EE0 50E0 D6C8      00F68        7555        ST    JP,SV1F11                  SAVE LINK REG                   63700021
 005EE4 D501 C580 C4FE 01BE0 01B5E  7556          CLC   CURCOD(LX2),EOSCON        PERIOD                         63710021
 005EEA 4780 9BFC      05EFC        7557        BC    EQ,EOSTXT                   YES-EOSTXT                     63720021
 005EEE D502 C580 C4F2 01BE0 01B52  7558        CLC   CURCOD(LX3),EOPCON         END-OF-FILE SYSIN?        9833  63730021
 005EF4 4780 9C0A      05F0A        7559        BE    RUNEOS                     YES                       9833  63740021
 005EF8 45E0 D9B8      01258        7560 GENMSG BAL   JP,MSG43                   -MSG43                    9833  63750021
 005EFC 4160 C4FE      01B5E        7561 EOSTXT LA    JF,EOSCON                  SET UP ADDR OF EOS              63760021
 005F00 45E0 B4F8      02460        7562        BAL   JP,GENB                    -GENB  GENERATE EOS             63770021
 005F04 58E0 D6C8      00F68        7563        L     JP,SV1F11                  RESTORE LINK REG                63780021
 005F08 07FE                        7564        BCR   UNCOND,JP                   -RETURN                        63790021
 005F0A D503 C55F A21B 01BBF 026E3  7565 RUNEOS CLC   CURWD(LX4),STOPCN          STOP?                     9833  63800021
 005F10 4770 9BF8      05EF8        7566        BNE   GENMSG                     NO                        9833  63810021
 005F14 4160 A118      025E0        7567        LA    JF,RUNCDE                  ENCODE 'RUN'              9833  63820021
 005F18 45E0 B4F8      02460        7568        BAL   JP,GENB                    X                         9833  63830021
 005F1C 47F0 9BF8      05EF8        7569        B     GENMSG                     CONTINUE EOS GENERATION   9833  63840021
1PH1B     IKFCBL1B                                                                                              PAGE  174
-  LOC  OBJECT CODE    ADDR1 ADDR2  STMT   SOURCE STATEMENT                                       ASM 0201 11.03 02/14/15
0                                   7571 *=2    END OF JOB ROUTINE                                               63860021
                                    7572 *                                                                       63870021
                                    7573 *****     EOJ ROUTINE     *****                                         63880021
                                    7574 *                                                                       63890021
 005F20 4160 A836      02CFE        7575 PRGEND LA    JF,PROCCD                  ADDR OF PD CONSTANT             63900021
 005F24 45E0 B4F8      02460        7576        BAL   JP,GENB                    -GENB-FORCE PD HDR ON FILE-     63910021
 005F28 9608 D286      00B26        7577 PROEND   OI    LASTSEG,XX08        PICK UP LATEST PROIRITY NO      8035 63920021
 005F2C 45E0 9BCC      05ECC        7578          BAL   JP,DUMGEN           CLOSE PD WITH DUM SECTION       8035 63930021
 005F30 5880 C6B0      01D10        7579        L     JH,COSADR                  ADDR OF COS                     63940021
 005F34 D203 8194 D46C 00194 00D0C  7580          MVC   NUMCDS(LX4,JH),SVCPCK+NX4  SAVE NUM OF CARDS             63950021
 005F3A D203 8188 D534 00188 00DD4  7581          MVC   DICND1-COS(LX4,JH),DELPTR                                63960021
 005F40 9101 C83D      01E9D        7582          TM    PTYSEG,XX01              SEGMENTED PROGRAM               63970021
 005F44 4710 9C4C      05F4C        7583        BO    PROENZ                    YES                              63980021
 005F48 92FF 81D0      001D0        7584          MVI   SEGLMT-COS(JH),XXFF                                      63990021
 005F4C 9101 D27B      00B1B        7585 PROENZ   TM    RPTWSW,XX01              RPT SECTION                     64000021
 005F50 4780 9C70      05F70        7586        BC    ZERO,NORWR                 NO                              64010021
 005F54 58F0 C6C4      01D24        7587        L     JQ,ADTREL                  ADDR OF TABREL                  64020021
 005F58 5810 C734      01D94        7588        L     JA,RNMCON                  RNMTBL                          64030021
 005F5C 05EF                        7589        BALR  JP,JQ                      RELEASE  TABLE                  64040021
 005F5E 5810 C738      01D98        7590        L     JA,RWRCON                  RWRTBL                          64050021
 005F62 05EF                        7591        BALR  JP,JQ                      RELEASE  TABLE                  64060021
 005F64 5810 C73C      01D9C        7592        L     JA,ROUCON                  ROUTBL                          64070021
 005F68 05EF                        7593        BALR  JP,JQ                      RELEASE  TABLE                  64080021
 005F6A 5810 C740      01DA0        7594        L     JA,DETCON                  DETTBL                          64090021
 005F6E 05EF                        7595        BALR  JP,JQ                      RELEASE  TABLE                  64100021
 005F70                             7596 NORWR  DS    0H                                                         64110021
 005F70 58F0 C6C4      01D24        7597        L     JQ,ADTREL                 ADDR OF TABREL                   64120021
 005F74 5810 C738      01D98        7598        L     JA,RWRCON                 RWRTBL TIB                       64130021
 005F78 9106 1000      00000        7599          TM    DX0(JA),XX06             TBL PRIMED OR STATIC            64140021
 005F7C 4780 9C82      05F82        7600        BC    ZERO,NORLWR               NO...CONTINUE                    64150021
 005F80 05EF                        7601        BALR  JP,JQ                      RELEASE  TIB                    64160021
 005F82                             7602 NORLWR DS    0H                                                         64170021
 005F82 5810 C6F4      01D54        7603        L     JA,PNTCON                  PNTABL                          64180021
 005F86 05EF                        7604        BALR  JP,JQ                            RELEASE                   64190021
 005F88 5810 C6FC      01D5C        7605        L     JA,PNQCON                  PNQTBL                          64200021
 005F8C 05EF                        7606        BALR  JP,JQ                            RELEASE                   64210021
 005F8E 5810 C710      01D70        7607        L     JA,FNTCON                  FNTBL                           64220021
 005F92 05EF                        7608        BALR  JP,JQ                            RELEASE                   64230021
 005F94 5810 C714      01D74        7609        L     JA,RCDCON                  RCDTBL                          64240021
 005F98 05EF                        7610        BALR  JP,JQ                            RELEASE                   64250021
 005F9A 5810 C6EC      01D4C        7611        L     JA,QLTCON                  QLTABL                          64260021
 005F9E 05EF                        7612        BALR  JP,JQ                            RELEASE                   64270021
 005FA0 5810 C718      01D78        7613        L     JA,SPNCON                  SPNTBL                          64280021
 005FA4 05EF                        7614        BALR  JP,JQ                            RELEASE                   64290021
 005FA6 58F0 C6C0      01D20        7615        L     JQ,ADSTAC                  ADDRESS OF STATIC         43521 64300021
 005FAA 5810 C71C      01D7C        7616        L     JA,USDCON                  USETBL                    43521 64310021
 005FAE 05EF                        7617        BALR  JP,JQ                            STATIC              43521 64320021
 005FB0 5821 0000      00000        7618        L     JB,DX0(JA)                 TAMM ADDRESS IN JB        43521 64330021
 005FB4 4540 9CF0      05FF0        7619        BAL   JD,ENDREL                  CHECK FOR ZERO LENGTH     43521 64340021
 005FB8 58F0 D654      00EF4        7620          L     JQ,SVREG+NX56             RESTORE BASE REG               64350021
                                    7621 *       L    JA,APPCON                 APPTBL                           64360021
                                    7622 *       L    JB,0(JA)                                                   64370021
                                    7623 *       BAL  JD,ENDREL                 TEST FOR '0' - RELEASE           64380021
 005FBC 5810 C708      01D68        7624        L     JA,CKPCON                  CKPTBL                          64390021
 005FC0 5821 0000      00000        7625          L     JB,DX0(JA)                                               64400021
1PH1B     IKFCBL1B                                                                                              PAGE  175
-  LOC  OBJECT CODE    ADDR1 ADDR2  STMT   SOURCE STATEMENT                                       ASM 0201 11.03 02/14/15
0005FC4 4540 9CF0      05FF0        7626        BAL   JD,ENDREL                  TEST FOR '0' - RELEASE          64410021
 005FC8 5810 C724      01D84        7627        L     JA,TOTCON                 TOTTBL                           64420021
 005FCC 5821 0000      00000        7628          L     JB,DX0(JA)                                               64430021
 005FD0 4540 9CF0      05FF0        7629        BAL   JD,ENDREL                 CHECK FOR '0'-RELEASE            64440021
 005FD4 5810 C70C      01D6C        7630        L     JA,OD2CON                  OD2TBL                          64450021
 005FD8 5821 0000      00000        7631          L     JB,DX0(JA)                                               64460021
 005FDC 4540 9CF0      05FF0        7632        BAL   JD,ENDREL                  TEST FOR '0' - RELEASE          64470021
 005FE0 5810 C704      01D64        7633        L     JA,PIOCON                  PIOTBL                          64480021
 005FE4 5821 0000      00000        7634          L     JB,DX0(JA)                                               64490021
 005FE8 4540 9CF0      05FF0        7635        BAL   JD,ENDREL                  TEST FOR '0' - RELEASE          64500021
 005FEC 0508                        7636        BALR  JR,JH                       LOAD                           64510021
 005FEE A0                          7637        DC    X'A0'                       NEXT PHASE                     64520021
 005FEF 00
 005FF0 D501 2004 C134 00004 01794  7638 ENDREL   CLC   DX4(LX2,JB),HWZERO         TABLE LENGTH USED IS ZERO     64530021
 005FF6 0774                        7639        BCR NOTEQ,JD                      NO-RETURN                      64540021
 005FF8 58F0 C6C4      01D24        7640        L     JQ,ADTREL                   YES-RELEASE                    64550021
 005FFC 05EF                        7641        BALR  JP,JQ                         TABLE                        64560021
 005FFE 58F0 D654      00EF4        7642          L     JQ,SVREG+NX56             RESTORE BASE REG               64570021
 006002 07F4                        7643        BCR   UNCOND,JD                   -RETURN                        64580021
1PH1B     IKFCBL1B                                                                                              PAGE  176
-  LOC  OBJECT CODE    ADDR1 ADDR2  STMT   SOURCE STATEMENT                                       ASM 0201 11.03 02/14/15
0                                   7645 *=2    PROCESS REPORT VERBS                                             64600021
                                    7646 *                                                                       64610021
                                    7647 ***    PROCESS REPORT VERBS                                             64620021
                                    7648 *                                                                       64630021
                                    7649 *                                                                       64640021
                                    7650 *                                                                       64650021
                                    7651 *                                                                       64660021
                                    7652 *  INIT ** INITIATE VERB ** SAME AS TERMINATE VERB                      64670021
                                    7653 *                                                                       64680021
                                    7654 *  INITIATE RPT-NM GENS ** RPT-CALL INT-ROUT                            64690021
                                    7655 * TERMINATE RPT-NAME GENS ** RPT-CALL LST-ROUT                          64700021
                                    7656 *                                                                       64710021
 006004                             7657 INIT   DS    0H                                                         64720021
 006004 9680 D28C      00B2C        7658          OI    INITSW,XX80              TURN ON INITIATE SWITCH         64730021
 006008 47F0 9E72      06172        7659        BC    UNCOND,TERM               GO PROCESS                       64740021
                                    7660 *                                                                       64750021
                                    7661 *GENR  -- GENERATE VERB                                                 64760021
                                    7662 *                                                                       64770021
                             0600C  7663 GENR   EQU   *                                                          64780021
 00600C 45E0 982E      05B2E        7664        BAL   JP,GENSEQ                  GO TO GEN SEQ NUM RTN           64790021
 006010 9101 D27B      00B1B        7665          TM    RPTWSW,XX01                RPT SECTION PROCESSED         64800021
 006014 4780 9FAA      062AA        7666        BC    ZERO,RVER1B                NO                              64810021
 006018 45E0 B000      01F68        7667        BAL   JP,GETWD                   GET NEXT WORD                   64820021
 00601C 9523 C580      01BE0        7668          CLI   CURCOD,XX23               BCD NAME                       64830021
 006020 4770 9FB2      062B2        7669        BC    NOTEQ,GNER                 NO ERROR                        64840021
                                    7670 *      GET DETAIL NAME FROM DETAIL TABLE                                64850021
 006024 5810 C740      01DA0        7671        L     JA,DETCON                  DETTBL TIB                      64860021
 006028 45E0 B54C      024B4        7672        BAL   JP,TBLNIT                  GET START ETC                   64870021
 00602C 4780 9E28      06128        7673        BC    ZERO,GENR4                 NO-MIGHT BE GEN RPT-NM          64880021
 006030 4122 1000      00000        7674          LA    JB,DX0(JB,JA)             LAST ADR OF TABLE              64890021
 006034 D51D C582 1000 01BE2 00000  7675 GENR1    CLC   CURBCD(LX30),DX0(JA)       DETAIL NAME FOUND             64900021
 00603A 4780 9D4C      0604C        7676        BC    EQ,GENR2                   YES                             64910021
 00603E 4111 0026      00026        7677          LA    JA,DX38(JA)               GET NEXT ENTRY                 64920021
 006042 1912                        7678        CR    JA,JB                      OUT OF TABLE                    64930021
 006044 4740 9D34      06034        7679        BC    LO,GENR1                   NO-LOOK AGAIN                   64940021
 006048 47F0 9E28      06128        7680        BC    UNCOND,GENR4               YES-MIGHT BE GEN RPT-NAME       64950021
 00604C                             7681 GENR2  DS    0H                                                         64960021
 00604C 5010 C768      01DC8        7682        ST    JA,DETADR                  SAVE ADR OF DETTBL              64970021
 006050 D201 C76C 1022 01DCC 00022  7683          MVC   DRWDSP(LX2),DX34(JA)       SAVE DISP OF RD NM ENT        64980021
 006056 5810 C738      01D98        7684        L     JA,RWRCON                  RWRTBL TIB                      64990021
 00605A 5811 0000      00000        7685          L     JA,DX0(JA)                RWRTBL TAMM                    65000021
 00605E 5821 0000      00000        7686          L     JB,DX0(JA)                START OF RWRTBL                65010021
 006062 4810 C76C      01DCC        7687        LH    JA,DRWDSP                  ADD DISP IN RWRTBL              65020021
 006066 4121 2000      00000        7688          LA    JB,DX0(JA,JB)                                            65030021
 00606A 5020 C764      01DC4        7689 GENR2A ST    JB,RDADR                   SAVE ADR OF RDNM IN RWRTBL      65040021
 00606E D201 C76E 202E 01DCE 0002E  7690          MVC   RRWDSP(LX2),DX46(JB)      DISPL OF ROUTS IN ROUTBL       65050021
 006074 D51D C770 2000 01DD0 00000  7691          CLC   RWDN(LX30),DX0(JB)         WORKING ON SAME RPT           65060021
 00607A 4780 9DA2      060A2        7692        BC    EQ,GENR3                   ROUTS OK FOR THIS RPT           65070021
 00607E D21D C770 2000 01DD0 00000  7693          MVC   RWDN(LX30),DX0(JB)         NO MUST SET UP FOR THIS RPT   65080021
 006084 5810 C73C      01D9C        7694        L     JA,ROUCON                  ROUTBL TIB                      65090021
 006088 5811 0000      00000        7695          L     JA,DX0(JA)                ROUTBL TIB                     65100021
 00608C 5821 0000      00000        7696          L     JB,DX0(JA)                START OF ROUTBL                65110021
 006090 4810 C76E      01DCE        7697        LH    JA,RRWDSP                  ADD DISP IN ROUTBL              65120021
 006094 4121 2000      00000        7698          LA    JB,DX0(JA,JB)                                            65130021
 006098 D219 C799 2000 01DF9 00000  7699          MVC   GNRH(LX26),DX0(JB)                                       65140021
1PH1B     IKFCBL1B                                                                                              PAGE  177
-  LOC  OBJECT CODE    ADDR1 ADDR2  STMT   SOURCE STATEMENT                                       ASM 0201 11.03 02/14/15
000609E 5810 C764      01DC4        7700        L     JA,RDADR                                                   65150021
 0060A2                             7701 GENR3  DS    0H                                                         65160021
 0060A2 9120 D28C      00B2C        7702          TM    GENSW2,XX20               GEN RPT-NAME                   65170021
 0060A6 4780 9E0A      0610A        7703        BC    ZERO,GENR3B                NO                              65180021
 0060AA D21E C745 C581 01DA5 01BE1  7704          MVC   CURRD+NX1(LX31),CURN        PUT RD NAME IN CURRD    10   65190021
 0060B0 D201 C7D2 C7A1 01E32 01E01  7705          MVC   RCGN(LX2),GNFRST          GEN RPT-CALL GNFRST            65200021
 0060B6 45E0 B522      0248A        7706        BAL   JP,GNRCLL                  GO TO GENERATE REPORT CALL      65210021
 0060BA D201 C7D2 C7AB 01E32 01E0B  7707          MVC   RCGN(LX2),GNCTLB          GEN RPT-CALL GNCTLB            65220021
 0060C0 45E0 B522      0248A        7708        BAL   JP,GNRCLL                  GO TO GENERATE REPORT CALL      65230021
                                    7709 * GET DETAIL ENTRIES FOR THIS REPORT NAME                               65240021
                                    7710 *   AND GEN A RPT-CALL FOR EACH USM-ROUT                                65250021
                                    7711 *  DRWDSP HAS DSPL INTO RWRTBL FOR THIS RPT-NM                          65260021
 0060C4 5810 C740      01DA0        7712        L     JA,DETCON                 DETTBL TIB                       65270021
 0060C8 45E0 B54C      024B4        7713        BAL   JP,TBLNIT                 GET START ETC                    65280021
 0060CC 1841                        7714        LR    JD,JA                     SAVE START IN JD                 65290021
 0060CE 4152 1000      00000        7715          LA    JE,DX0(JB,JA)            GET END IN JE                   65300021
 0060D2                             7716 GEN31  DS    0H                                                         65310021
 0060D2 D501 C134 4000 01794 00000  7717          CLC   HWZERO(LX2),DX0(JD)       IS THIS A DUMMY DETAIL ENTRY   65320021
 0060D8 4780 9DE6      060E6        7718        BC    EQ,GEN32                  YES..SKIP                        65330021
 0060DC D501 C76C 4022 01DCC 00022  7719          CLC   DRWDSP(LX2),DX34(JD)      SAME DISPLACEMENTS             65340021
 0060E2 4780 9DF4      060F4        7720        BC    EQ,GEN33                  YES..GO GEN                      65350021
 0060E6                             7721 GEN32  DS    0H                                                         65360021
 0060E6 4144 0026      00026        7722          LA    JD,DX38(JD)              POINT TO NEXT ENTRY             65370021
 0060EA 1945                        7723        CR    JD,JE                     END OF TBL                       65380021
 0060EC 4740 9DD2      060D2        7724        BC    LO,GEN31                  NO...CHECK AGAIN                 65390021
 0060F0 47F0 9E20      06120        7725        BC    UNCOND,GENR3A              CONTINUE                        65400021
 0060F4                             7726 GEN33  DS    0H                                                         65410021
 0060F4 91FF 4021      00021        7727          TM    DX33(JD),XXFF            IS THIS AN UPON DE-NM           65420021
 0060F8 4710 9DE6      060E6        7728        BC    ONES,GEN32                YES..SKIP                        65430021
 0060FC D201 C7D2 4024 01E32 00024  7729          MVC   RCGN(LX2),DX36(JD)        NO...GEN                       65440021
 006102 45E0 B522      0248A        7730        BAL   JP,GNRCLL                     RPT-CALL USM-ROUT            65450021
 006106 47F0 9DE6      060E6        7731        BC    UNCOND,GEN32              CHECK NEXT ENTRY                 65460021
 00610A                             7732 GENR3B DS    0H                                                         65470021
 00610A 5810 C768      01DC8        7733        L     JA,DETADR                  GET DETAIL ENTRY                65480021
 00610E D201 C7D2 101F 01E32 0001F  7734          MVC   RCGN(LX2),DX31(JA)         GEN RPT-CALL DET              65490021
 006114 45E0 B522      0248A        7735        BAL   JP,GNRCLL                  GO TO GENERATE REPORT CALL      65500021
 006118 5810 C764      01DC4        7736        L     JA,RDADR                                                   65510021
 00611C 47F0 9E6A      0616A        7737        BC    UNCOND,GNXIT               EXIT TO GET WD IN VRB SCAN RTN  65520021
 006120                             7738 GENR3A DS    0H                                                         65530021
 006120 94DF D28C      00B2C        7739          NI    GENSW2,XXDF               SET OF GEN RPT-NM              65540021
 006124 47F0 9E6A      0616A        7740        BC    UNCOND,GNXIT               EXIT TO GET WD IN VRB SCAN RTN  65550021
                                    7741 *GENR4-CHECK FOR GEN RPT-NM                                             65560021
 006128                             7742 GENR4  DS    0H                                                         65570021
 006128 5810 C738      01D98        7743        L     JA,RWRCON                  RWRTBL TIB                      65580021
 00612C 45E0 B54C      024B4        7744        BAL   JP,TBLNIT                  GET START ETC                   65590021
 006130 4780 9FB2      062B2        7745        BC    ZERO,GNER                  NO ENTRY IN TABLE               65600021
 006134 1851                        7746        LR    JE,JA                     SAVE START                       65610021
 006136 4122 1000      00000        7747          LA    JB,DX0(JB,JA)             LAST ADR OF TABLE              65620021
 00613A D51D C55F 1000 01BBF 00000  7748 GENR5    CLC   CURWD(LX30),DX0(JA)        RD NM FOUND                   65630021
 006140 4780 9E52      06152        7749        BC    EQ,GENR6                   YES                             65640021
 006144 4111 0030      00030        7750          LA    JA,DX48(JA)              GET NEXT ENTRY                  65650021
 006148 1912                        7751        CR    JA,JB                      OUT OF TBL                      65660021
 00614A 4740 9E3A      0613A        7752        BC    LO,GENR5                   NO-LOOK AGAIN                   65670021
 00614E 47F0 9FB2      062B2        7753        BC    UNCOND,GNER                YES ERROR                       65680021
 006152 1821                        7754 GENR6  LR    JB,JA                      SET UP FOR GEN RPT-NM           65690021
1PH1B     IKFCBL1B                                                                                              PAGE  178
-  LOC  OBJECT CODE    ADDR1 ADDR2  STMT   SOURCE STATEMENT                                       ASM 0201 11.03 02/14/15
0006154 95FF 102E      0002E        7755          CLI   DX46(JA),XXFF            REPORT SPECIFIED IN RPT-SECT    65700021
 006158 4780 9FB2      062B2        7756        BE    GNER                      NO...ERROR                       65710021
 00615C 1B15                        7757        SR    JA,JE                     GET DISPL FOR THIS RD            65720021
 00615E 4010 C76C      01DCC        7758        STH   JA,DRWDSP                 SAVE                             65730021
 006162 9620 D28C      00B2C        7759          OI    GENSW2,XX20               CODE GEN RPT-NM                65740021
 006166 47F0 9D6A      0606A        7760        BC    UNCOND,GENR2A              -GO SAVE ADDR OF RDNUM          65750021
 00616A 45E0 96B6      059B6        7761 GNXIT  BAL   JP,CHKIN                   CK IN VERB SCAN RTN             65760021
 00616E 47F0 9F92      06292        7762        BC    UNCOND,RVER1               ERR - UNRECOGNIZED WD           65770021
                                    7763 *                                                                       65780021
                                    7764 *TERM  -- TERMINATE VERB                                                65790021
                                    7765 *                                                                       65800021
                             06172  7766 TERM   EQU   *                                                          65810021
 006172 45E0 982E      05B2E        7767        BAL   JP,GENSEQ                  GENER SEQ NUM                   65820021
 006176 9101 D27B      00B1B        7768          TM    RPTWSW,XX01               REPORT SECTION PROCESSED       65830021
 00617A 4780 9FAA      062AA        7769        BC    ZERO,RVER1B                ERR - INVALID WORD              65840021
 00617E 45E0 B000      01F68        7770 TTMPGO BAL   JP,GETWD                   GET NEXT WORD                   65850021
 006182 5810 C738      01D98        7771        L     JA,RWRCON                                                  65860021
 006186 5821 0000      00000        7772          L     JB,DX0(JA)               GET TAMM                        65870021
 00618A 9106 2000      00000        7773          TM    DX0(JB),XX06             WAS TBL PRIMED OR STATIC        65880021
 00618E 4780 9FBA      062BA        7774        BC    ZERO,TERER                NO...NO REPORTS ALLOWED          65890021
 006192 45E0 B54C      024B4        7775        BAL   JP,TBLNIT                  GET START ETC                   65900021
 006196 4780 9FBA      062BA        7776        BC    ZERO,TERER                 YES ERROR NO OPND FOR TERM      65910021
 00619A 4122 1000      00000        7777          LA    JB,DX0(JB,JA)             LAST ADR OF TBL                65920021
 00619E 5010 C764      01DC4        7778        ST    JA,RDADR                   SAVE ADR OF RDNM IN RWRTBL      65930021
 0061A2                             7779 TERM1  DS    0H                                                         65940021
 0061A2 D201 C76E 102E 01DCE 0002E  7780          MVC   RRWDSP(LX2),DX46(JA)      DISPL OF ROUT IN ROUTBL        65950021
 0061A8 D51D C55F 1000 01BBF 00000  7781          CLC   CURWD(LX30),DX0(JA)                                      65960021
 0061AE 4780 9EC0      061C0        7782        BC    EQ,TERM2                   NAME FOUND                      65970021
 0061B2 4111 0030      00030        7783          LA    JA,DX48(JA)              STEP TO NEXT ENTRY              65980021
 0061B6 1912                        7784        CR    JA,JB                      OUT OF TBL                      65990021
 0061B8 4740 9EA2      061A2        7785        BC    LO,TERM1                   NO-LOOK AGAIN                   66000021
 0061BC 47F0 9FBA      062BA        7786        BC    UNCOND,TERER               ERROR NO OPND                   66010021
 0061C0                             7787 TERM2  DS    0H                         NAME FOUND                      66020021
 0061C0 95FF 102E      0002E        7788          CLI   DX46(JA),XXFF            REPORT SPECIFIED IN RPT-SECT    66030021
 0061C4 4780 9FBA      062BA        7789        BE    TERER                     NO...ERROR                       66040021
 0061C8 D21D C770 1000 01DD0 00000  7790          MVC   RWDN(LX30),DX0(JA)   SAVE RPT-NAME FOR ROUTBL ENTRIES    66050021
 0061CE 5810 C73C      01D9C        7791        L     JA,ROUCON                  ROUTBL TIB                      66060021
 0061D2 5811 0000      00000        7792          L     JA,DX0(JA)                ROUTBL TAMM                    66070021
 0061D6 5821 0000      00000        7793          L     JB,DX0(JA)                START OF TBL                   66080021
 0061DA 4810 C76E      01DCE        7794        LH    JA,RRWDSP                                                  66090021
 0061DE 4121 2000      00000        7795          LA    JB,DX0(JA,JB)                                            66100021
 0061E2 D22F C799 2000 01DF9 00000  7796          MVC   GNRH(LX48),DX0(JB)        ROUTINE GN'S TO GN AREA        66110021
 0061E8 D201 C7D2 C7A3 01E32 01E03  7797          MVC   RCGN(LX2),GNLAST          GEN RPT-CALL GNLAST            66120021
 0061EE 9180 D28C      00B2C        7798          TM    INITSW,XX80              IN INITIATE CLAUSE              66130021
 0061F2 4780 9EFC      061FC        7799        BC    ZERO,TERM3                NO...GEN RPT-CALL LST-ROUT       66140021
 0061F6 D201 C7D2 C7BF 01E32 01E1F  7800          MVC   RCGN(LX2),GNINT          YES..GEN RPT-CALL INT-ROUT      66150021
 0061FC                             7801 TERM3  DS    0H                                                         66160021
 0061FC 45E0 B522      0248A        7802        BAL   JP,GNRCLL                  GO TO GENERATE REPORT CALL      66170021
                                    7803 * CHECK FOR MORE THAN ONE REPORT NAME TO BE TERMINATED                  66180021
 006200 9523 C636      01C96        7804 TERXIT   CLI   NXTCOD,XX23              BCD NAME                        66190021
 006204 4780 9E7E      0617E        7805        BC    EQ,TTMPGO                 YES-TERMINATE NEXT RPT-NAME      66200021
 006208 947F D28C      00B2C        7806          NI    INITSW,XX7F              RESET                           66210021
 00620C 45E0 96B6      059B6        7807        BAL   JP,CHKIN                   CK IN VERB SCAN RTN             66220021
 006210 47F0 9F92      06292        7808        BC    UNCOND,RVER1               ERR - UNRECOGNIZED              66230021
                                    7809 *                                                                       66240021
1PH1B     IKFCBL1B                                                                                              PAGE  179
-  LOC  OBJECT CODE    ADDR1 ADDR2  STMT   SOURCE STATEMENT                                       ASM 0201 11.03 02/14/15
0                                   7810 **USE BEFORE REPORTING DATANAME ROUTINE                                 66250021
                                    7811 *SECTNM=LCBCD 32 COUNT FOLLOWED BY DATA-NAME  LCCHAR+1 (FE)= DN NO      66260021
 006214                             7812 UBRTN  DS    0H                                                         66270021
 006214 50E0 D6E4      00F84        7813        ST    JP,JPUBRS                                                  66280021
 006218 5810 C734      01D94        7814        L     JA,RNMCON                  SET DATA-NAME FROM TABLE        66290021
 00621C 45E0 B54C      024B4        7815        BAL   JP,TBLNIT                  GET START ETC                   66300021
 006220 4780 9F3C      0623C        7816        BC    ZERO,UBXER                 ERROR                           66310021
 006224 4122 1000      00000        7817          LA    JB,DX0(JB,JA)             LAST ADR OF TABLE              66320021
 006228 D51F C580 1000 01BE0 00000  7818 UBRTN2   CLC   CURCOD(LX32),DX0(JA)       NAME FOUND                    66330021
 00622E 4780 9F48      06248        7819        BC    EQ,UBRTN3                  YES - GEN ORG AND RESET RTN     66340021
 006232 4111 0023      00023        7820          LA    JA,DX35(JA)               NEXT ENTRY                     66350021
 006236 1912                        7821        CR    JA,JB                                                      66360021
 006238 4740 9F28      06228        7822        BC    LO,UBRTN2                  LOOK AGAIN                      66370021
 00623C 94FE D58F      00E2F        7823 UBXER    NI    LCCHAR+NX1,XXFE           SET OF SWITCH IND ERROR        66380021
 006240 45E0 D98C      0122C        7824        BAL   JP,MSG32                   INCORRECT IN USE SENT.          66390021
 006244 47F0 9F8C      0628C        7825        BC    UNCOND,UBRXIT              GET RETURN ADDR                 66400021
                                    7826 *GENERATE ORG AND RESET                                                 66410021
 006248                             7827 UBRTN3 DS    0H                                                         66420021
 006248 D202 C790 1020 01DF0 00020  7828          MVC   RWDNPR(LX3),DX32(JA)       SAVE PAR NM                   66430021
 00624E 4160 C793      01DF3        7829        LA    JF,RORG                    GEN ORG                         66440021
 006252 45E0 B4F8      02460        7830        BAL   JP,GENB                    WRITE CALL                      66450021
 006256 D201 C7DA C790 01E3A 01DF0  7831          MVC   GOGN(LX2),RWDNPR          GEN PAR NAME                   66460021
 00625C 4160 C7D9      01E39        7832        LA    JF,GOGNA                                                   66470021
 006260 45E0 B4F8      02460        7833        BAL   JP,GENB                    WRITE CALL                      66480021
 006264 9501 C792      01DF2        7834          CLI   ORGFLG,XX01                                              66490021
 006268 4780 9F74      06274        7835        BC    EQ,UBRTN4                  SAVE WAS USED IN ROUT-+         66500021
 00626C 4160 A26C      02734        7836        LA    JF,ZECON                   MODIF = ZERO                    66510021
 006270 47F0 9F78      06278        7837        BC    UNCOND,UBRTN5              WRITE THEN GEN SECT NAM         66520021
 006274                             7838 UBRTN4 DS    0H                                                         66530021
 006274 4160 AC2E      030F6        7839        LA    JF,PLUSCD                  MODIF = PLUS                    66540021
 006278 45E0 B4F8      02460        7840 UBRTN5 BAL   JP,GENB                    WRITE GN                        66550021
 00627C 4160 D56B      00E0B        7841        LA    JF,SLBCD                   GEN SECTION-NAME                66560021
 006280 45E0 B4F8      02460        7842        BAL   JP,GENB                    WRITE GN FOR SECT NAM           66570021
 006284 4160 C795      01DF5        7843        LA    JF,RRORG                   GEN OVERLAY RESET               66580021
 006288 45E0 B4F8      02460        7844        BAL   JP,GENB                    WRITE GN FOR OVERLAY            66590021
 00628C 58E0 D6E4      00F84        7845 UBRXIT L JP,JPUBRS                                                      66600021
 006290 07FE                        7846        BCR   UNCOND,JP                  - RETURN                        66610021
                                    7847 *                                                                       66620021
                             06292  7848 RVER1  EQU   *                          UNRECOGNIZED WD IN RW VB CL     66630021
 006292 9550 C581      01BE1        7849          CLI   CURN,XX50         IS WORD 'THEN'?                  08586 66640021
 006296 4780 9FA2      062A2        7850          BC    EQ,RVER1A         YES-CONTINUE VERB SCAN           08586 66650021
 00629A 45E0 D9FC      0129C        7851        BAL   JP,MSG60                   INVALID WD IN RW VERB CLAUSE    66660021
 00629E 947F D28C      00B2C        7852          NI    INITSW,XX7F              RESET                           66670021
 0062A2 45E0 96B6      059B6        7853 RVER1A BAL   JP,CHKIN                   CK IN VERB SCAN                 66680021
 0062A6 47F0 9FA2      062A2        7854        BC    UNCOND,RVER1A              CHECK IN LOOP                   66690021
 0062AA                             7855 RVER1B DS    0H                          DID NOT HAVE REPORT SECTIO     66700021
 0062AA 45E0 D91C      011BC        7856        BAL   JP,MSG4                    INVALID WORD                    66710021
 0062AE 47F0 9FA2      062A2        7857        BC    UNCOND,RVER1A              CHKIN LOOP                      66720021
                             062B2  7858 GNER   EQU   *                          ILLEGAL OPND FOR GENERATE       66730021
 0062B2 45E0 DA1C      012BC        7859        BAL   JP,MSG68                   -OPEN FOR GN NOT FOUND          66740021
 0062B6 47F0 9E6A      0616A        7860        BC    UNCOND,GNXIT               EXIT TO SCAN VERB               66750021
 0062BA                             7861 TERER  DS    0H                                                         66760021
 0062BA 9180 D28C      00B2C        7862          TM    INITSW,XX80              IN INITIATE CLAUSE              66770021
 0062BE 4780 9FCA      062CA        7863        BC    ZERO,TERER1               NO...MSG106...TERM ERROR         66780021
 0062C2 45E0 D9E4      01284        7864        BAL   JP,MSG54                  ERROR                            66790021
1PH1B     IKFCBL1B                                                                                              PAGE  180
-  LOC  OBJECT CODE    ADDR1 ADDR2  STMT   SOURCE STATEMENT                                       ASM 0201 11.03 02/14/15
00062C6 47F0 9FCE      062CE        7865        BC    UNCOND,TERER2             EXIT                             66800021
 0062CA                             7866 TERER1 DS    0H                                                         66810021
 0062CA 45E0 DAB4      01354        7867        BAL   JP,MSG106                  OPERAND FOR TERMINATE NOT FOUND 66820021
 0062CE                             7868 TERER2 DS    0H                                                         66830021
 0062CE 47F0 9F00      06200        7869        BC    UNCOND,TERXIT              CK FOR ANOTHER REPORT - TERMIN. 66840021
1PH1B     IKFCBL1B                                                                                              PAGE  181
-  LOC  OBJECT CODE    ADDR1 ADDR2  STMT   SOURCE STATEMENT                                       ASM 0201 11.03 02/14/15
00062D8                             7871 IKF109 CSECT                                                            66860021
                                    7872 *       JA CONTAINS TIB. RTN USES JA JB JC JD JE JF JG JH               66870021
                                    7873 *       JH CONTAINS ADDR OF FIELD TO COMPARE TO                         66880021
                                    7874 *    JB RETURNS ADDR OF NEXT EMPTY ENTRY OR ADDR OF FOUND PN            66890021
                                    7875 *                                                                       66900021
                             062D8  7876        USING *,JQ                                                       66910021
 0062D8 5811 0000      00000        7877 VARPQ    L     JA,DX0(JA)                                               66920021
 0062DC 5821 0000      00000        7878          L     JB,DX0(JA)                ADDR OF TABLE                  66930021
 0062E0 4122 0000      00000        7879          LA    JB,DX0(JB)                                               66940021
 0062E4 4811 0004      00004        7880          LH    JA,DX4(JA)                SIZE OF TABLE                  66950021
 0062E8 1211                        7881        LTR   JA,JA                      IS IT EMPTY                     66960021
 0062EA 4780 F060      06338        7882        BC    ZERO,TBEPFL                YES                             66970021
 0062EE 1B77                        7883        SR    JG,JG                      NO JG-LENGTH OF PNQ             66980021
 0062F0 1B33                        7884        SR    JC,JC                      JC-CT OF BCD PN                 66990021
 0062F2 1B44                        7885        SR    JD,JD                      JD-TOTAL CT OF ENTRY            67000021
 0062F4 1B55                        7886        SR    JE,JE                      JE-NO OF BYTES SEARCHED         67010021
 0062F6 4342 0000      00000        7887 VARAGN   IC    JD,DX0(JB)                GET TOTAL CT                   67020021
 0062FA 4144 0001      00001        7888          LA    JD,DX1(JD)                ADD 1 TO TOTAL CT              67030021
 0062FE 4332 0001      00001        7889          IC    JC,DX1(JB)                GET CT OF PN                   67040021
 006302 4430 F048      06320        7890        EX    JC,VARCMP                  COMPARE FIELD TO TBL            67050021
 006306 4770 F054      0632C        7891        BC    NOTEQ,VARNXT               NO,                             67060021
 00630A 9140 D27B      00B1B        7892          TM    QLPNSW,XX40               YES IS IT PNQTBL               67070021
 00630E 4710 F068      06340        7893        BC    ONES,VARQLP                YES, CHECK QUALIFIER            67080021
 006312 9640 D299      00B39        7894 VARFD    OI    VRPNSW,XX40               NO, SW ON SINCE PN IS IN TB    67090021
 006316 58F0 C840      01EA0        7895 VARRET L     JQ,SVCAL1                                                  67100021
 00631A 50F0 D890      01130        7896        ST    JQ,LNKR15                                                  67110021
 00631E 07FE                        7897        BCR   UNCOND,JP                  RETURN                          67120021
 006320 D500 2001 8000 00001 00000  7898 VARCMP   CLC   DX1(LX0,JB),DX0(JH)        EX INSTRUCTION                67130021
 006326 D500 6000 D5C0 00000 00E60  7899 VARQCP   CLC   DX0(LX0,JF),PNBCDQ         EX INSTRUCTION                67140021
 00632C 4124 2000      00000        7900 VARNXT   LA    JB,DX0(JD,JB)             ADVANCE ADDR TO NEXT ENTRY     67150021
 006330 1A54                        7901        AR    JE,JD                      ACCUMULATE SIZE OF TBL          67160021
 006332 1951                        7902        CR    JE,JA                      IS IT END OF TBL                67170021
 006334 4740 F01E      062F6        7903        BC    LO,VARAGN                  NO                              67180021
 006338 94BF D299      00B39        7904 TBEPFL   NI    VRPNSW,XXBF               YES, PN NOT FOUND OR TBL EM    67190021
 00633C 47F0 F03E      06316        7905        BC    UNCOND,VARRET              GO SET UP BASE  REGISTER        67200021
 006340 4163 2006      00006        7906 VARQLP   LA    JF,DX6(JC,JB)             ADVANCE ADDR TO PNQUAL         67210021
 006344 4376 0000      00000        7907          IC    JG,DX0(JF)               GET CT OF QUAL                  67220021
 006348 4470 F04E      06326        7908        EX    JG,VARQCP                  IS IT SAME QUAL                 67230021
 00634C 4770 F054      0632C        7909        BC    NOTEQ,VARNXT               NO                              67240021
 006350 47F0 F03A      06312        7910        BC    UNCOND,VARFD               YES                             67250021
                                    7911 *                                                                       67260021
1PH1B     IKFCBL1B                                                                                              PAGE  182
-  LOC  OBJECT CODE    ADDR1 ADDR2  STMT   SOURCE STATEMENT                                       ASM 0201 11.03 02/14/15
0                                   7913 *=2                          DUMMY HEADER                               67280021
                                    7914 *                                                                       67290021
                                    7915 *****          DUMMY HEADER GENERATION          *****                   67300021
                                    7916 *                                                                       67310021
                                    7917 *                                                                       67320021
                                    7918 *          THIS ROUTINE IS CALLED TO INSERT A DUMMY SECTION-NAME,       67330021
                                    7919 *          WHEN ONE IS MISSING, AT THE FOLLOWING POINTS IN PROC-D:      67340021
                                    7920 *                                                                       67350021
                                    7921 *          AFTER--PROC-DIV HEADER W/O DECLARATIVES SECTION.             67360021
                                    7922 *                -DECLARATIVES HEADER.                                  67370021
                                    7923 *                -END DECLARATIVES.                                     67380021
                                    7924 *                -LAST PARAGRAPH OF PROC-DIV.                           67390021
                                    7925 *          BEFORE-EACH USE SENTENCE IN DECLARATIVES SECTION.            67400021
                                    7926 *                                                                       67410021
                                    7927 *          LEAVES DICTIONARY WORK AREA SET UP WITH DUMMY-NAME.          67420021
                                    7928 *                                                                       67430021
                                    7929 *                                                                       67440021
                             06354  7930 DUMGN    EQU   *                                                        67450021
 006354 58F0 C02C      0168C        7931          L     JQ,ADCON1                SET UP ADDRESSIBILITY           67460021
 006358 5860 F0DC      063B4        7932          L     JF,ALHNNM                   A(LHNNUM)                    67470021
 00635C 05E6                        7933          BALR  JP,JF                    BR TO LHNNUM                    67480021
 00635E 1B66                        7934          SR    JF,JF                      CLEAR REG 6                   67490021
 006360 D201 C531 D590 01B91 00E30  7935          MVC   DUMCON+NX3(LX2),LCNUM     DUMMY NAME W/PN-NUM            67500021
 006366 D203 D56C C52F 00E0C 01B8F  7936          MVC   LCBCD(LX4),DUMCON+NX1    SET BCD NM TO '4*NN'            67510021
 00636C 9640 D58E      00E2E        7937          OI    LCCHAR,XX40                 SET CHAR TO 1                67520021
 006370 9620 D58F      00E2F        7938          OI    LCCHAR+NX1,XX20          SET X TO 1 IDENT DUMMY PN       67530021
 006374 9108 D286      00B26        7939          TM    LASTSEG,XX08             END OF PROC DIV                 67540021
 006378 4710 F0A8      06380        7940          BO    DUMGEN1                  SV LATEST PRIORITY NO.          67550021
 00637C 9200 D593      00E33        7941          MVI   LCPTY,XX00                PTY=0                          67560021
 006380 9108 D280      00B20        7942 DUMGEN1  TM    DUMUSE,XX08              IS DUMUSE ON                    67570021
 006384 4710 F0C0      06398        7943          BC    ONES,DUMSKP               YES - DUMSKP                   67580021
 006388 50F0 F0D8      063B0        7944          ST    JQ,SAVJQ                   SAVE BASE REG                 67590021
 00638C 45E0 9896      05B96        7945          BAL   JP,DICENT                -DICENT- TO DICTIONARY          67600021
 006390 58F0 F0D8      063B0        7946          L     JQ,SAVJQ                RESTORE ADDRESSIBILITY           67610021
 006394 94F7 D27A      00B1A        7947          NI    DHDRSW,XXF7               SET OFF DHDRSW                 67620021
 006398 4160 C52E      01B8E        7948 DUMSKP   LA    JF,DUMCON                ADDR OF DUMMY SECT NM           67630021
 00639C 94DF D58F      00E2F        7949          NI    LCCHAR+NX1,XXDF          RESET X TO 0 FOR DUMMY          67640021
 0063A0 45E0 B4F8      02460        7950          BAL   JP,GENB                    -GENB                         67650021
 0063A4 58F0 DDB4      01654        7951          L     JQ,SAVJQ1                RESTORE CALLER'S REG 15         67660021
 0063A8 58E0 D6C4      00F64        7952          L     JP,SV1F10                   RETURN REG                   67670021
 0063AC 07FE                        7953          BCR   UNCOND,JP                     RETURN                     67680021
 0063B0                             7954 SAVJQ    DS    F                        SAVE JQ - R15                   67690021
 0063B4 00004C24                    7955 ALHNNM   DC    AL4(LHNNUM)               ADDR OF LHNNUM                 67700021
