1                                               EXTERNAL SYMBOL DICTIONARY                                      PAGE    1
-SYMBOL   TYPE  ID   ADDR  LENGTH LDID                                                            ASM 0201 11.03 02/14/15
0IKF501    SD  0001 000000 000E78
 PH51      LD       007ABC        000C
 PHASE51   LD       007ABC        000C
 IKF503    SD  0002 000E78 000EE8
 IKF511    SD  0003 001D60 000064
 IKF502    SD  0004 001DC8 000180
 IKF50G    SD  0005 001F48 000880
 IKF50H    SD  0006 0027C8 000D80
 IKF50I    SD  0007 003548 000CEE
 IKF50J    SD  0008 004238 001062
 IKF50K    SD  0009 0052A0 000A98
 IKF50L    SD  000A 005D38 000EEE
 IKF50M    SD  000B 006C28 000206
 IKF504    SD  000C 006E30 000D68
 IKF505    SD  000D 007B98 000FB8
1                                                                                                               PAGE    2
-  LOC  OBJECT CODE    ADDR1 ADDR2  STMT   SOURCE STATEMENT                                       ASM 0201 11.03 02/14/15
0                                      1 *$MODULE       PHASE51                                                  00007021
                                       2 *                                                                       00014021
                                       3 *                                                                       00021021
                                       4 *                                                                       00028021
                                       5 *                                                                       00035021
                                       6 *                                                                       00042021
                                       7 *                                                                       00049021
                                       8 *                                                                       00056021
                                       9 *                                                                       00063021
                                      10 *                                                                       00070021
                                      11 *                                                                       00077021
                                      12 *                                                                       00084021
                                      13 *                                                                       00091021
                                      14 *                                                                       00098021
                                      15 *                                                                       00105021
                                      16 *                                                                       00112021
                                      17 *                                                                       00119021
                                      18 *                                                                       00126021
                                      19 *                                                                       00133021
                                      20 *                                                                       00140021
                                      21 *                                                                       00147021
                                      22 *                                                                       00154021
                                      23 *                                                                       00161021
                                      24 *                                                                       00168021
                                      25 *                                                                       00175021
 000000                               26 IKF501 START 0                         PHASE51 STARTS                   00182021
                                      27          ENTRY PH51                                                     00189021
                                      28          ENTRY PHASE51                                                  00196021
                                      29        IHBCOB                                                           00203021
                                      30+*     THIS IS A MACRO GENERATING COBOL COMMON AS A DSECT USED
                                      31+*      BY EVERY PHASE OF THE COBOL COMPILER
                                      32+*
                                      33+***********************************************************************
                                      34+*      COMMON - THE COMMUNICATIONS AREA
                                      35+***********************************************************************
                                      36+*      THIS TABLE IS LOCATED IN PH0 FOLLOWING THE ENTRY POINT- COS.
                                      37+*      AT ENTRY TO EACH PHASE R1 POINTS TO THE SLOT CONTAINING COSADDR.
 000000                               38+COS    DSECT
 000000                               39+       DS    3F          EXECUTABLE CODE IN PH0
 00000C                               40+TIB0     DS    2F
 000014                               41+TIB1     DS    2F
 00001C                               42+TIB2     DS    2F
 000024                               43+TIB3     DS    2F
 00002C                               44+TIB4     DS    2F
 000034                               45+TIB5     DS    2F
 00003C                               46+TIB6     DS    2F
 000044                               47+TIB7     DS    2F
 00004C                               48+TIB8     DS    2F
 000054                               49+TIB9     DS    2F
 00005C                               50+TIB10    DS    2F
 000064                               51+TIB11    DS    2F
 00006C                               52+TIB12    DS    2F
 000074                               53+TIB13    DS    2F
 00007C                               54+TIB14    DS    2F
 000084                               55+TIB15    DS    2F
1                                                                                                               PAGE    3
-  LOC  OBJECT CODE    ADDR1 ADDR2  STMT   SOURCE STATEMENT                                       ASM 0201 11.03 02/14/15
000008C                               56+TIB16    DS    2F
 000094                               57+TIB17    DS    2F
 00009C                               58+TIB18    DS    2F
 0000A4                               59+TIB19    DS    2F
 0000AC                               60+TIB20    DS    2F
 0000B4                               61+TIB21    DS    2F
 0000BC                               62+TIB22    DS    2F
 0000C4                               63+TIB23    DS    2F
 0000CC                               64+TIB24    DS    2F
 0000D4                               65+TIB25    DS    2F
 0000DC                               66+TIB26    DS    2F
 0000E4                               67+TIB27    DS    2F
 0000EC                               68+TIB28    DS    2F
 0000F4                               69+TIB29    DS    2F
 0000FC                               70+TIB30    DS    2F
 000104                               71+TIB31    DS    2F
 00010C                               72+TIB32    DS    2F
 000114                               73+TIB33    DS    2F
 00011C                               74+TIB34    DS    2F
 000124                               75+TIB35    DS    2F
 00012C                               76+APRIME DS    F           ADDRESS OF SUBROUTINE-PRIME   IN TAMER
 000130                               77+AINSRT DS    F           ADDRESS OF SUBROUTINE-INSERT  IN TAMER
 000134                               78+ADSTAT DS    F           ADDRESS OF SUBROUTINE-STATIC  IN TAMER
 000138                               79+RELADD DS    F           ADDRESS OF SUBROUTINE-TABREL  IN TAMER
 00013C                               80+TAMNAD DS    F
 000140                               81+ACCESW DS    C           ACCESS INITIALIZATION SWITCH
 000141                               82+AMAINF   DS    CL3       POINTER TO THE MAIN FREE AREA FOR TABLES/DICT.
 000144                               83+ALSTAM DS    F           POINTER TO THE LAST ENTRY IN TAMM
 000148                               84+LOCCTR DS    F           RELATIVE ADDRESS OF THE NEXT AVAILABLE LOC
 00014C                               85+LOCCTR1  DS    F
 000150                               86+PROGID   DS    CL8       PROGRAM-ID FROM THE IDENTICATION DIVISION
 000158                               87+LABELS DS    H           CONTAINS LABEL INFORMATION.
 00015A                               88+SEGCNTR  DS    H         NUMBER OF SEGMENTS HIGHER THAN SEGMENT LIMIT -
                                      89+*                        USED BY PHASE 6
 00015C                               90+PNCTR  DS    H           COUNTER FOR ASSIGNING PB NUMBERS TO PROC.NAMES
 00015E                               91+GNCTR  DS    H           CTR. ASSIGNING GN NO.TO GENERATED PROC. NAMES
 000160                               92+DCBCTR DS    H           CTR. ASSIGNING ID.NO.TO DCB'S
 000162                               93+VIRCTR DS    H           CTR. ASSIGNING ID.NO.TO VIRTUALS
 000164                               94+LTLCTR DS    H           CTR. ASSIGNING ID.NO.TO LITERALS
 000166                               95+WCMAX  DS    H           SIZE OF THE LARGEST WORK AREA FOR LIBRARY SUBR
 000168                               96+TSMAX  DS    H           SIZE OF THE TEMP. STORAGE FOR ARITHM. STMNTS
 00016A                               97+TS2MAX DS    H           SAME AS ABOVE FOR NON-ARITHMETIC STATEMENTS
 00016C                               98+ODOCTR DS    H           NUMBER OF Q-ROUTINES
 00016E                               99+CKPCTR DS    H           NUMBER OF CHECKPOINT REQUESTS
 000170                              100+INDCTR DS    H           AVAILABLE
 000172                              101+SBLOMX   DS    H                   AVAILABLE
 000174                              102+VLCOMX   DS    H                   AVAILABLE
 000176                              103+SBLIMX DS    H           SAME AS SBLOMX FOR IN-LINE PROC.
 000178                              104+VLCIMX DS    H           SAME AS VLCOMX FOR IN-LINE PROC.
 00017A                              105+SBLCTR DS    H           COUNTER FOR ASSIGNING  SBL'S
 00017C                              106+VLCCTR DS    H           USED TO DETERMINE VLCOMX AND VLCIMX
 00017E                              107+BLLCTR DS    H           CTR. FOR ASSIGNING ID. NO.TO LINKAGE SEC. BL'S
 000180                              108+SEQERR DS    H           NO. OF OUT-OF-SEQUENCE CARDS
 000182                              109+SWITCH   DS    H
                                     110+*                        BITS MARKED BY * MAY STILL BE IN USE BY
1                                                                                                               PAGE    4
-  LOC  OBJECT CODE    ADDR1 ADDR2  STMT   SOURCE STATEMENT                                       ASM 0201 11.03 02/14/15
0                                    111+*                        COBOLF - ASSIGN THESE AS A LAST RESORT
                             00080   112+SWTRCE EQU   X'80'       BIT 0  TRACE
                                     113+*              *         BIT 1
                                     114+*              *         BIT 2
                             00010   115+SPILL    EQU   X'10'     BIT 3  SET IF DICTIONARY SPILL
                                     116+*              *         BIT 4
                             00004   117+MQVAR    EQU   X'04'     BIT 5  SET IF PH2 BUILDS A QVAR TABLE
                                     118+*              *         BIT 6
                             00001   119+MQFILE   EQU   X'01'     BIT 7  SET IF PH2 BUILDS A QFILE TABLE
                                     120+*
                                     121+*                        SECOND BYTE OF SWITCH
                                     122+*              *         BIT 0
                                     123+*              *         BIT 1
                             00020   124+SORTRTN  EQU   X'20'     BIT 2  SORT RETURN SET BY PHASE2 USED BY PH5
                             00010   125+RERUNN   EQU   X'10'     BIT 3  RERUN USED BY PHASE 1, 2 AND 5
                             00008   126+DSOU     EQU   X'08'     BIT 4  SOURCE INDICATOR FOR STATISTICS
                             00004   127+NOFITSW  EQU   X'04'     BIT 5  SET BY PH6 IF E-TEXT ON FILE3
                                     128+*                               USED BY PH7 & PH00
                             00002   129+DOPH7    EQU   X'02'     BIT 6  PH6 LOOK AHEAD FOR PH7 YES OR NO
                             00001   130+RDERRFIL EQU   X'01'     BIT 7  PH6 INPUT INDICATOR
 000184                              131+DICND2 DS    F           DICTIONARY POINTER USED IN PH2
 000188                              132+DICND1 DS    F           DICTIONARY POINTER USED IN PH1
 00018C                              133+DATE     DS    CL15      DATE/TIME OF COMPILATION
                                     134+*                        REUSED IN PHASE1 AS FOLLOWS
                                     135+*                                  BYTES 1-4 NUMBER OF DATA NAMES
                                     136+*                                        5-8 NUMBER OF VERBS
                                     137+*                                        9-12 NUMBER OF SOURCE CARDS
                                     138+*                                       13-15 NOT USED
 00019B                              139+WSDEF  DS    0CL7        LAST 7 BYTES OF DATA A-TEXT EL.FOR WORK.ST.SEC
 00019B                              140+         DS    CL3
 00019E                              141+WSBL   DS    C
 00019F                              142+WSSIZE   DS    CL3
 0001A2                              143+ERRSEV DS    C           HIGHEST ERROR SEVERITY LEVEL
 0001A3                              144+PHZSW  DS    C           OPTIONS SWITCH :
                             00080   145+LIST     EQU X'80'       SOURCE(OS)
                             00040   146+LISTX    EQU   X'40'     PMAP
                             00020   147+DECK     EQU   X'20'
                             00010   148+LINK     EQU   X'10'     LOAD
                             00008   149+SEQ      EQU   X'08'
                             00004   150+FLAGW    EQU   X'04'
                             00002   151+LIBR     EQU   X'02'
                             00001   152+ZWB      EQU   X'01'
 0001A4                              153+PHZSW1 DS    C
                             00080   154+XREF     EQU   X'80'
                             00040   155+CLIST    EQU   X'40'
                             00020   156+SYM      EQU   X'20'      DMAP
                             00010   157+PDT      EQU   X'10'
                             00004   158+APOST    EQU   X'04'
                             00002   159+MAPSP    EQU     X'02'
                             00001   160+TRUNC    EQU   X'01'
 0001A5                              161+PHZSW2   DS    C         RESERVED FOR ADDITIONAL OPTIONS
                             00080   162+STAT     EQU   X'80'     RESERVED FOR STATEMENT NUMBER OPTION
                             00002   163+NO6A     EQU   X'02'     SET BY PH6 TO TELL PH7 THAT PH6A WAS BYPASSED
 0001A8                              164+DICADR DS    F
 0001AC                              165+DLSVAL DS    F           ACCESS RTN. COMMUNICATION CELL
1                                                                                                               PAGE    5
-  LOC  OBJECT CODE    ADDR1 ADDR2  STMT   SOURCE STATEMENT                                       ASM 0201 11.03 02/14/15
00001B0                              166+DICPTR DS    C           ACCESS RTN. COMMUNICATION CELL
 0001B1                              167+DCPTR  DS    3C          ACCESS RTN. COMMUNICATION CELL
 0001B4                              168+RPTSAV DS    H           REPORT SAVE AREA CELL
 0001B6                              169+BLSCTR   DS    H         AVAILABLE
 0001B8                              170+LCSECT   DS    F
 0001BC                              171+PH7LOD   DS    F
 0001C0                              172+RGNCTR DS    H           COUNT OF UNIQUE GN'S
 0001C2                              173+ERF4SW DS    C           SWITCH USED BY PH6/PH7
 0001C3                              174+PTYNO    DS    C                   CURRENT PRIORITY NO
                                     175+*                                  SET BY PH5  USED BY PH00
 0001C4                              176+COMMAD   DS    H
 0001C6                              177+PHZSW3   DS    C                   OPTION SWITCH
                             00001   178+VERBR    EQU   X'01'               LISTING A-TEXT
 0001C7                              179+PHZSW4   DS    C                   RESERVED FOR ADDITIONAL OPTIONS
 0001C8                              180+AMOVDC   DS    F
 0001CC                              181+SDSIZ    DS    F         BIGGEST SD IN PGM.
 0001D0                              182+SEGLMT   DS    C
 0001D1                              183+DTFNUM   DS    C
 0001D2                              184+CURSGN   DS    C
 0001D3                              185+PH1BYTE  DS    C         PHASE 1 COMMUNICATION TO PHASE 2
                             00001   186+UPSIBT   EQU   X'01'     PASSES INFORMATION FROM PHASE 1A TO PHASE 2
                             00002   187+EOPPH1   EQU   X'02'     PASSES INFORMATION FROM PHASE 1A TO PHASE 1B
                             00004   188+INITBIT  EQU   X'04'     PASSES INFORMATION FROM PHASE 1A TO PHASE 2
                             00008   189+BASINSQ  EQU   X'08'           PH1A TO PH1B
                             00020   190+BASIS    EQU   X'20'
                             00080   191+F3TEXT   EQU   X'80'
 0001D4                              192+DECBCT   DS    H         NO OF DECB'S FOR PGM
 0001D6                              193+INDEXS   DS    H         AVAILABLE
 0001D8                              194+INDEX1   DS    H        # INDEX NAMES DEFNED IN IN-LINE FILES
 0001DA                              195+CYCTOTAL DS    H         AVAILABLE
 0001DC                              196+IOPTRCTR DS    H        # I/O POINTERS FOR APPLY-WRITE-ONLY
 0001DE                              197+TS3MAX   DS    H
 0001E0                              198+TS4MAX   DS    H
 0001E4                              199+BUFSIZE  DS    F         USED FOR STATISTICS
 0001E8                              200+CORESIZE DS    F         USED FOR STATISTICS
 0001EC                              201+CNTLINE  DS    H         USED FOR STATISTICS
 0001EE                              202+CURCRD   DS    H
 0001F0                              203+SPACING  DS    C         USED FOR STATISTICS
 0001F1                              204+PDTCHR   DS    C                   SET BY PH01 USED BY PH6
 0001F2                              205+         DS    H
 0001F4                              206+BASINS   DS    1F
 0001F8                              207+         DS    1F
                                     208+*
                                     209+*
 0001FC                              210+         DS    0F
 0001FC                              211+AGETALL  DS    F                   ADDRESS OF TAMER RTN - GETALL
 000200                              212+         DS    F                   AVAILABLE
 000204                              213+RPDNUM   DS    H         AVAILABLE
 000206                              214+CYCNUM   DS    H         AVAILABLE
 000208                              215+IDENTL DS    F           REL. LOC. OF CODING IN OBJECT MODULE FOR THE
                                     216+*                        RANDOM PROC IDENTIFIED IN RPDNUM
 00020C                              217+BLCTR  DS    H           ID NO ASSIGNED TO BL'S FOR FILES
 00020E                              218+VNCTR  DS    H           COUNTER FOR ASSIGNING VN NUMBERS
 000210                              219+ONCTR  DS    H           COUNTER FOR ASSIGNING ID NO.TO ON CONTROL CELL
 000212                              220+PFMCTR DS    H           COUNTER FOR ASSIGNING ID NO.TO PERFORM CELLS
1                                                                                                               PAGE    6
-  LOC  OBJECT CODE    ADDR1 ADDR2  STMT   SOURCE STATEMENT                                       ASM 0201 11.03 02/14/15
0000214                              221+PSVCTR DS    H           CTR FOR ASSIGNING ID'S TO PERFORM SAVE CELLS
 000216                              222+XSACTR DS    H           LOC  WITHIN EXHIBIT OR SORT SAVE AREA
 000218                              223+XSWCTR DS    H           CTR FOR ASSIGNING ID'S TO EXHIBIT/ON SWITCHES
 00021C                              224+RELLOC DS    F           DISPL OF TGT/SGT FROM THE BEG. OF OBJECT MOD.
 000220                              225+GTLNG  DS    H           LENGTH OF TGT OR SGT SPECIFIED IN RELLOC
 000222                              226+RPILOC   DS    H         AVAILABLE
 000224                              227+VNILOC DS    H           DISPL OF VNI FIELDS IN PGT
 000226                              228+VNLOC  DS    H           DISPL OF VN FIELDS IN TGT OR SGT
 000228                              229+SUBCTR DS    H           CTR TO ASSIGN ID'S TO SUBSCRIPTED REFERENCES
 00022A                              230+PARMAX DS    H           SIZE OF PARAMETER AREA
 00022C                              231+BLSVAL   DS    H         AVAILABLE
 00022E                              232+BLSLOC   DS    H         AVAILABLE
 000230                              233+CMTBSW   DS    H         AVAILABLE
 000232                              234+SA2CTR DS    H           SET IF OPTION 2 OF USE  SPECIFIED
 000234                              235+SA3CTR DS    H           SET IF OPTION 5 OF USE  SPECIFIED
 000236                              236+BLSEND   DS    H         AVAILABLE
 000238                              237+INDEX    DS    F
 00023C                              238+INDEX0   DS    H         AVAILABLE
 000240                              239+       DS    6F
                                     240+*
                                     241+*      END OF COMMON
                                     242+*
                                     243+*
1                                                                                                               PAGE    7
-  LOC  OBJECT CODE    ADDR1 ADDR2  STMT   SOURCE STATEMENT                                       ASM 0201 11.03 02/14/15
0000000                              245 IKF501   CSECT                                                          00210021
                             00000   246 COMON1 EQU   *                                                          00217021
                                     247 *                                      THE FOLLOWING FIELDS ARE FOR     00224021
                                     248 *                                      IDENTIFICATION PURPOSES ONLY     00231021
 000000 C9D2C6C3C2D3F5F1             249          DC    C'IKFCBL51'              X                               00238021
 000008 C2                           250          DC    C'B'                    X                                00245021
 000009 28                           251          DC    AL1(40)             X                                    00252021
1         PHASE 5 - A BRIEF DESCRIPTION                                                                         PAGE    8
-  LOC  OBJECT CODE    ADDR1 ADDR2  STMT   SOURCE STATEMENT                                       ASM 0201 11.03 02/14/15
0                                    253 *=1       PH5 C O N T R O L .                                           00266021
                                     254 *=3                                                                     00273021
                                     255 *TITLE 'PH5     '                                                       00280021
                                     256 *STATUS: CHANGE LEVEL 000                                               00287021
                                     257 *FUNCTION/OPERATION: OBTAIN IC TEXT FROM 'PH4     ' AND CONVERT IT      00294021
                                     258 *   A-TEXT ACCEPTABLE TO 'PH6     '.                                    00301021
                                     259 *            ORGANIZATION OF PHASE...                                   00308021
                                     260 *              PH5CTL PHASE 5 CONTROL. OBTAINS IC-TEXT AND PROCESSE     00315021
                                     261 *                     ALL BUT VERB-STRINGS WHICH ARE ROUTED TO PROP     00322021
                                     262 *                     VERB ANALYZERS.                                   00329021
                                     263 *              A-TEXT GENERATOR. HAS ENTRY POINTS FOR MOST MACHINE      00336021
                                     264 *                     INSTRUCTIONS AND BUILDS A-TEXT (PROCEDURE AND     00343021
                                     265 *                     OPTIMIZATION) BASED UPON VARIOUS PARAMETERS       00350021
                                     266 *                     PROVIDED IT BY THE CALLING ANALYZER OR SUBRTN     00357021
                                     267 *                     SUPPLEMENTAL TO THIS PORTION IS                   00364021
                                     268 *                     THE DIRECT-PROCEDURE-A-TEXT GENERATOR,            00371021
                                     269 *                     A SUBROUTINE.                                     00378021
                                     270 *              VERB-ANALYZERS. SEPERATE ANALYZERS OBTAIN STRINGS FO     00385021
                                     271 *                     THEIR PARTICULAR VERBS AND GENERATES A-TEXT       00392021
                                     272 *                     REPRESENTING OBJECT CODE FOR THE STATEMENT.       00399021
                                     273 *              SUBROUTINES. NUMEROUS SERVICE SUBROUTINES SUPPORT        00406021
                                     274 *                     ALL OTHER PARTS OF THE PHASE.                     00413021
                                     275 *              SUBSCRIPTS AND SUBSCRIPT REGISTER ALLOCATION ARE HAN     00420021
                                     276 *                     BY SEVERAL SUBROUTINES AND ANALYZERS.             00427021
                                     277 *              TAMER TABLE AND COMMON ARE COMMUNICATION REGIONS IN      00434021
                                     278 *                     MAIN-STORAGE THAT ARE USED FOR INTER-PHASE        00441021
                                     279 *                     INFORMATION-PASSING, AND ARE NOT PART OF PHAS     00448021
-
                                     281 *ENTRY POINTS:                                                          00462021
                                     282 *        'PH5     ' MAIN ENTRY POINT, CALLED BY 'PH0     '.             00469021
                                     283 *INPUT:              IC-TEXT   SYSUT2                                   00476021
                                     284 *                     COMMON    MAIN-STORAGE                            00483021
                                     285 *OUTPUT:             PROCEDURE A-TEXT   SYSUT1                          00490021
                                     286 *                     OPTIMIZATION A-TEXT SYSUT3                        00497021
                                     287 *                     E-TEXT (ERR MESG'S) SYSUT4                        00504021
                                     288 *                     COMMON              MAIN-STORAGE                  00511021
                                     289 *                     TABLE: PNUTBL       MAIN-STORAGE (TAMER)          00518021
                                     290 *EXTERNAL ROUTINES:                                                     00525021
                                     291 *        'PH0     '   CALLS THIS PHASE AND PROVIDES I/O, COMMON + T     00532021
                                     292 *                     SUPPORT.                                          00539021
                                     293 *EXITS-NORMAL:  N/A                                                     00546021
                                     294 *EXITS-ERROR:   N/A                                                     00553021
                                     295 *TABLES/WORK AREAS:    ... THOSE ITEMS THAT ARE VARIABLE OR MIXED       00560021
                                     296 *                          CONSTANT-VARIABLE ARE COLLECTED TOGETHER     00567021
                                     297 *                          IN AN AREA UNDER BASE REG XRDATA.            00574021
                                     298 *                      ... THOSE ITEMS THAT ARE NON-INSTRUCTIONS AN     00581021
                                     299 *                          FULLY CONSTANTS ARE COLLECTED UNDER BASE     00588021
                                     300 *                          REG XRCONS.                                  00595021
                                     301 *                                                                       00602021
                                     302 *ATTRIBUTES: NON-REUSABLE (DUE TO SOME NON-INITIALIZED SWITCHES).       00609021
                                     303 *NOTES: N/A                                                             00616021
1         IKFCBL51: PH5CTL - PHASE 51 CONTROL ROUTINE                                                           PAGE    9
-  LOC  OBJECT CODE    ADDR1 ADDR2  STMT   SOURCE STATEMENT                                       ASM 0201 11.03 02/14/15
0                            00000   305        USING   COMON1,XRBAS1                                            00630021
                             00E78   306        USING   COMON3,GBRG1                                             00637021
                             06E30   307        USING   COMON4,XRCONS                                            00644021
                             07B98   308        USING   COMON5,XRDATA                                            00651021
                             00000   309        USING COS,XRBAS2                                                 00658021
                                     310 *                             PH5CTL                                    00665021
                                     311 *******************************************************************     00672021
                                     312 * CHECKS THE INPUT OF PHASE 5 TO DETERMINE WHETHER IT IS A 'STRING'     00679021
                                     313 * OR 'OTHER THAN A STRING'. PUTS 1ST 4 BYTES IN 'HEADER'.               00686021
                                     314 * I. IF THE INPUT IS A 'STRING' -                                       00693021
                                     315 *    A. THE STRING HEADER (A 3 BYTE FIELD) IS STORED IN 'HEADER'.       00700021
                                     316 *       'HEADER+1' IS CALLED 'ANALNO' (ANALYZER NUMBER).                00707021
                                     317 *       'HEADER+2' IS CALLED 'ELEMCT' (ELEMENT COUNT).                  00714021
                                     318 *    B. THE ELEMENTS IN THE STRING ARE PUT IN 'ELEMTB' (ELEMENT TAB     00721021
                                     319 *    C. AFTER ALL ELEMENTS IN A STRING HAVE BEEN STORED IN 'ELEMTB'     00728021
                                     320 *       CONTROL PASSES TO A STRING ANALYZER.                            00735021
                                     321 *    D. AFTER AN ANALYZER HAS PROCESSED THE ELEMENT TABLE CONTROL I     00742021
                                     322 *          RETURNED TO PH5CTL                                           00749021
                                     323 * II. IF THE INPUT IS 'OTHER THAN A STRING' -                           00756021
                                     324 *    A. IF THE INPUT IS A SECTION OR PARAGRAPH NAME IT IS WRITTEN O     00763021
                                     325 *       AND CONTROL IS RETURNED TO 'SEARCH'. (INPUT IS IN 'HEADER')     00770021
                                     326 *    B. IF THE INPUT IS 'EOF' A DUMP IS TAKEN AND PROCESSING IS END     00777021
                                     327 *    C. II(A) AND II(B) WILL BE SPECIFIED IN MORE DETAIL LATER.         00784021
                                     328 *******************************************************************     00791021
                                     329 *******************************************************************     00798021
                                     330 *                                                                       00805021
                                     331 *                                                                       00812021
                                     332 *                                                                       00819021
                                     333 *                                                                       00826021
1         IKFCBL51: PH5CTL - PHASE 51 CONTROL ROUTINE                                                           PAGE   10
-  LOC  OBJECT CODE    ADDR1 ADDR2  STMT   SOURCE STATEMENT                                       ASM 0201 11.03 02/14/15
000000A                              335 PH5CTL   DS    0H                                                       00840021
 00000A 9200 D603      0819B         336          MVI   CDNOSW,XX00                                              00847021
 00000E 45E0 7166      00166         337        BAL   RETRG,GETNXT    *LOCATE NEXT ELEMENT TO BE PROCESSED       00854021
 000012 D200 D5F5 2000 0818D 00000   338          MVC   ASRLAS(LX1),DX0(RW2)    FOR AUTOMATIC STOP RUN           00861021
 000018 9584 2000      00000         339          CLI   DX0(RW2),XX84   TEST IF ELEMENT IS STRING HEADER         00868021
 00001C 4770 700A      0000A         340          BNE   PH5CTL                  RETURN TO CONTROL                00875021
 000020 9570 2001      00001         341          CLI   DX1(RW2),XX70        IS THIS SEGM IN INITIAL. ELEMNT.    00882021
 000024 4780 7068      00068         342          BE    SEGINT                  YES                              00889021
 000028 D203 D0E0 2000 07C78 00000   343          MVC   HEADER(LX4),DX0(RW2)     SAVE HEADER                7898 00896021
 00002E 45E0 7104      00104         344          BAL   RETRG,STRTTEST      CHECK GENERATION OF START      7898  00903021
 000032 D200 D0B6 D0E1 07C4E 07C79   345          MVC   GANLNO(LX1),HEADER+NX1   SAVE ANALYZER NO                00910021
 000038 4140 DD4C      088E4         346        LA    RW4,DOP1        *SET RW4 TO ADDRESS OF FIRST OPD AREA      00917021
 00003C 1B55                         347        SR    RW5,RW5                                                    00924021
 00003E 4350 D0E2      07C7A         348          IC    RW5,HEADER+NX2  GET COUNT OF OPDS TO RW1                 00931021
 000042 1255                         349        LTR   RW5,RW5          TEST IF COUNT IS ZERO                     00938021
 000044 4780 705A      0005A         350          BZ    PH5CT0                  YES, BYPASS LOOP                 00945021
                                     351 *                               NO, LOOP TO GET OPDS TO OPD AREAS       00952021
 000048 45E0 7166      00166         352 CTLLP  BAL   RETRG,GETNXT    *GET TO NEXT OPD                           00959021
 00004C 0630                         353        BCTR  RW3,RW0            DECR LENGTH BY 1 FOR EX INSTR           00966021
 00004E 4430 707C      0007C         354        EX    RW3,CTLMVC       EX TO MOVE OPD FROM BUFFER TO OPD ARE     00973021
 000052 4144 007C      0007C         355        LA    RW4,OPSIZ(RW4)   STEP ADDR TO NEXT OPD AREA FOR NEXT E     00980021
 000056 4650 7048      00048         356        BCT   RW5,CTLLP        LOOP ON COUNT OF OPDS                     00987021
 00005A 4350 D0B6      07C4E         357 PH5CT0 IC    RW5,GANLNO     *PUT ANALYZER NUMBER IN REG                 00994021
 00005E 8950 0002      00002         358          SLL   RW5,DX2         MULTIPLY BY 4 TO USE AS INDEX            01001021
 000062 5895 C194      06FC4         359        L     GVERB,ADCN00(RW5)     PICK UP ADCON                        01008021
 000066 07F9                         360          BR    GVERB                   GO TO ANALYZER                   01015021
 000068 9244 2000      00000         361 SEGINT   MVI   DX0(RW2),XX44        CHANGE ID-BYTE                      01022021
 00006C 924C 2001      00001         362          MVI   DX1(RW2),XX4C                                            01029021
 000070 4130 0003      00003         363          LA    RW3,DX3              SPECIFY LENGTH                      01036021
 000074 4500 7504      00504         364        BAL   RW0,WRITE3            WRITE SEGM INIT ELM                  01043021
 000078 47F0 700A      0000A         365        B     PH5CTL                GET NEXT P2 TEXT                     01050021
 00007C D200 4000 2000 00000 00000   366 CTLMVC   MVC   DX0(LX0,RW4),DX0(RW2)                                    01057021
-
0
 000082 4122 0002      00002         368 PH5AOP   LA    RW2,DX2(RW2)            POINT TO TEXT                    01071021
 000086 4B30 72BC      002BC         369          SH    RW3,HW2                 GET COUNT                        01078021
 00008A D200 D5F5 2000 0818D 00000   370          MVC   ASRLAS(LX1),DX0(RW2)     FOR AUTOMATIC GOBACK            01085021
 000090 95C7 2000      00000         371 CTLCPY   CLI   DX0(RW2),PNDEF            IF NOT PN, GN, OR VN           01092021
 000094 4780 70C0      000C0         372          BE    PNPROC                   DEFINITION, IGNORE ELEMENT      01099021
 000098 9588 2000      00000         373          CLI   DX0(RW2),GNDEF                                           01106021
 00009C 4780 70D4      000D4         374          BE    GNPROC              IF GN DEF, WRITE A TEXT              01113021
 0000A0 95C9 2000      00000         375          CLI   DX0(RW2),VNDEF                                           01120021
 0000A4 4780 70DC      000DC         376          BE    VNPROC              IF UN DEF, WRITE A TEXT              01127021
 0000A8 95D4 2000      00000         377          CLI   DX0(RW2),DUMMYPN        IS IT DUMMY PN...           2962 01134021
 0000AC 4780 70E8      000E8         378          BE    DUMPNPRC            YES, WRITE A TEXT               2962 01141021
 0000B0 47F0 71BE      001BE         379          B     CHKSEG                  NONE, TEST FOR X'42'             01148021
 0000B4                              380 NOTSEG   DS    0H                                                 7898  01155021
 0000B4 45E0 7104      00104         381          BAL   RETRG,STRTTEST      CHECK GENERATION OF START      7898  01162021
 0000B8 4500 74F2      004F2         382          BAL   RW0,WRITE2          WRITE OPT A-TEXT               7898  01169021
 0000BC 47F0 716A      0016A         383          B     GET                     GET COUNT OF FOLLOWING BYTES     01176021
 0000C0 9230 2000      00000         384 PNPROC   MVI   DX0(RW2),PAPNDEF          PROCEEDURE-A CODE FOR PN DE    01183021
 0000C4 D203 D320 2000 07EB8 00000   385          MVC   PNOUT(LX4),DX0(RW2)     SAVE PRIORITY AND PN NO          01190021
1         IKFCBL51: PH5CTL - PHASE 51 CONTROL ROUTINE                                                           PAGE   11
-  LOC  OBJECT CODE    ADDR1 ADDR2  STMT   SOURCE STATEMENT                                       ASM 0201 11.03 02/14/15
00000CA D200 A1C3 2001 001C3 00001   386          MVC   PTYNO(LX1),DX1(RW2)  SAVE PRIOR FOR PH0 IN COMMON        01197021
 0000D0 47F0 70E0      000E0         387          B     GOPUT               WRITE A TEXT ROUTINE                 01204021
 0000D4 9234 2000      00000         388 GNPROC   MVI   DX0(RW2),PAGNDEF          PROCEEDURE-A CODE FOR GN DE    01211021
 0000D8 47F0 70E0      000E0         389          B     GOPUT               WRITE A TEXT ROUTINE                 01218021
 0000DC 9238 2000      00000         390 VNPROC   MVI   DX0(RW2),PAVNDEF          PROCEEDURE-A CODE FOR VN DE    01225021
                             000E0   391 GOPUT    EQU   *                                                        01232021
 0000E0 45E0 739C      0039C         392          BAL   RETRG,PUTDEF             PUT ELEMENT                     01239021
 0000E4 47F0 716A      0016A         393          B     GET                     GET COUNT OF FOLLOWING BYTES     01246021
 0000E8                              394 DUMPNPRC DS    0H                                                  2962 01253021
 0000E8 D202 DDC8 CC3F 08960 07A6F   395          MVC   DOP2(LX3),DUMPNDEF                                  2962 01260021
 0000EE D202 DDCB 2001 08963 00001   396          MVC   DOP2+NX3(LX3),DX1(RW2)                              2962 01267021
 0000F4 4120 DDC8      08960         397          LA    RW2,DOP2                                            2962 01274021
 0000F8 4130 0006      00006         398          LA    RW3,NX6                                                  01281021
 0000FC 4500 7504      00504         399          BAL   RW0,WRITE3              WRITE PROC-A-TEXT           2962 01288021
 000100 47F0 700A      0000A         400          B     PH5CTL              RETURN FOR P2 TEXT              2962 01295021
-
 000104                              402 STRTTEST DS    0H                                                 7898  01309021
                                     403 *                                                                 7898  01316021
                                     404 *      THIS ROUTINE KEEPS TRACK OF THE GENERATION OF THE START    7898  01323021
                                     405 *      EQUATE AT THAT LOGICAL POINT IN THE OBJECT PROGRAM TO      7898  01330021
                                     406 *      WHICH CONTROL IS TRANSFERRED FROM THE INIT ROUTINES.       7898  01337021
                                     407 *      THIS POINT OF CONTROL IS DETERMINED AND DECIDED BY THE     7898  01344021
                                     408 *      BIT CONFIGURATION OF A SWITCH, STRTSW.                     7898  01351021
                                     409 *                                                                 7898  01358021

 000104 9180 D0BD      07C55         411          TM    STRTSW,HIORDON      HAS START BEEN GENERATED...    7898  01372021
 000108 4710 7144      00144         412          BO    STRTEXIT            YES                            7898  01379021
 00010C 9140 D0BD      07C55         413          TM    STRTSW,BETWPDSD     ARE WE BETWEEN THE PROCEDURE   7898  01386021
                                     414 *                  DIVISION HEADER AND THE START DECLARATIVES...  7898  01393021
 000110 4710 7124      00124         415          BO    STRTCODE            YES, GENERATE START            7898  01400021
 000114 9120 D0BD      07C55         416          TM    STRTSW,BETWRWPD     BETWEEN THE REPORT WRITER      7898  01407021
                                     417 *                  HEADER AND PROCEDURE DIVISION HEADER...        7898  01414021
 000118 4710 7144      00144         418          BO    STRTEXIT            YES                            7898  01421021
 00011C 9103 D0BD      07C55         419          TM    STRTSW,XX03         SHOULD START STILL BE GEN'ED...7898  01428021
 000120 47B0 7144      00144         420          BC    NOTMXD,STRTEXIT     NO                             7898  01435021
 000124                              421 STRTCODE DS    0H                                                 7898  01442021
 000124 50E0 D0C0      07C58         422          ST    RETRG,STRTSAVE      SAVE REGISTERS 14,             7898  01449021
 000128 9023 D0C4      07C5C         423          STM   RW2,RW3,STRTSAVE+NX4          2 AND 3              7898  01456021
 00012C 4120 D0BE      07C56         424          LA    RW2,STRTCN          ADDRESS MACRO STRING           7898  01463021
 000130 4130 0002      00002         425          LA    RW3,DX2                 AND LENGTH                 7898  01470021
 000134 45E0 7376      00376         426          BAL   RETRG,PUTA          WRITE A-TEXT                   7898  01477021
 000138 9680 D0BD      07C55         427          OI    STRTSW,XX80         INDICATE START HAS BEEN GEN'ED 7898  01484021
 00013C 58E0 D0C0      07C58         428          L     RETRG,STRTSAVE      RESTORE REGISTERS 14           7898  01491021
 000140 9823 D0C4      07C5C         429          LM    RW2,RW3,STRTSAVE+NX4          2 AND 3              7898  01498021
 000144                              430 STRTEXIT DS    0H                                                 7898  01505021
 000144 07FE                         431          BR    RETRG               RETURN TO CALLER               7898  01512021
-
 000146                              433 EXECTABL DS    0H                                                 7898  01526021
                                     434 *                                                                 7898  01533021
                                     435 *      THIS IS TABLE OF 4-BYTE INSTR. USED BY AN EXECUTE          7898  01540021
                                     436 *      INSTRUCTION TO ANALYZE THE POSSIBLE PROGRAM BREAKS.        7898  01547021
1         IKFCBL51: PH5CTL - PHASE 51 CONTROL ROUTINE                                                           PAGE   12
-  LOC  OBJECT CODE    ADDR1 ADDR2  STMT   SOURCE STATEMENT                                       ASM 0201 11.03 02/14/15
0                                    437 *                                                                 7898  01554021
0
 000146 9761 D0BD      07C55         439          XI    STRTSW,XX61         PROCEDURE DIVISION HEADER      7898  01568021
 00014A 949C D0BD      07C55         440          NI    STRTSW,XX9C         START DECLARATIVES HEADER      7898  01575021
 00014E 9601 D0BD      07C55         441          OI    STRTSW,XX01         END DECLARATIVES HEADER        7898  01582021
 000152 47F0 716A      0016A         442          B     GET                 START DEBUG PACKET HEADER      7898  01589021
 000156 47F0 7292      00292         443          B     PH5AQR              START Q-ROUTINES HEADER        7898  01596021
 00015A 9620 D0BD      07C55         444          OI    STRTSW,XX20         START REPORT WRITER HEADER     7898  01603021
 00015E 94DF D0BD      07C55         445          NI    STRTSW,XXDF         END REPORT WRITER HEADER       7898  01610021
 000162 47F0 71E2      001E2         446          B    GET4                 END OF SEGMENT HEADER          7898  01617021
1         IKFCBL51: PH5CTL - PHASE 51 CONTROL ROUTINE                                                           PAGE   13
-  LOC  OBJECT CODE    ADDR1 ADDR2  STMT   SOURCE STATEMENT                                       ASM 0201 11.03 02/14/15
0                                    448 * ROUTINE TO GET NEXT LOGICAL ELEMENT                                   01631021
 000166 50E0 D3E4      07F7C         449 GETNXT ST    RETRG,GETSAV     SAVE RETURN ADDR                          01638021
 00016A 5820 D0B0      07C48         450 GET    L     RW2,PNTIN       *LOAD RW2 WITH ADDR OF CURRENT ELEMENT     01645021
 00016E 4A20 D0AC      07C44         451        AH    RW2,BYTCNT       ADD LENGTH OF CURRENT ELEMENT             01652021
 000172 5020 D0B0      07C48         452        ST    RW2,PNTIN        SAVE ADDR OF NEW ELEMENT                  01659021
 000176 1B33                         453        SR    RW3,RW3                                                    01666021
 000178 4332 0001      00001         454 GET1     IC    RW3,DX1(RW2)   *GET COUNT IN CASE IT FOLLOWS CODE        01673021
 00017C 91C0 2000      00000         455          TM    DX0(RW2),XXC0   TEST IF COUNT IN CODE OF FOLLOWING CO    01680021
 000180 4780 718E      0018E         456          BZ    GET2                    COUNT FOLLOWS CODE               01687021
 000184 4332 0000      00000         457          IC    RW3,DX0(RW2)    GET COUNT AS INDICATED IN CODE. THIS     01694021
 000188 8830 0006      00006         458          SRL   RW3,DX6           COUNT IS 1 LESS THAN COUNT FOR ENTI    01701021
 00018C 0630                         459        BCTR  RW3,RW0              ELEMENT. DECR BY 1 THEN ADD 2.        01708021
 00018E 4133 0002      00002         460 GET2     LA    RW3,DX2(RW3)    ADD 2 TO COUNT TO GET COUNT FOR ENTIR    01715021
 000192 4030 D0B4      07C4C         461        STH   RW3,BYTES          ELEMENT                                 01722021
 000196 4030 D0AC      07C44         462        STH   RW3,BYTCNT       SAVE COUNT                                01729021
 00019A 9527 2000      00000         463          CLI   DX0(RW2),XX27           OPT A TEXT?                      01736021
 00019E 4780 7082      00082         464          BE    PH5AOP                  YES                              01743021
 0001A2 9528 2000      00000         465          CLI   DX0(RW2),XX28           PROC A TEXT?                     01750021
 0001A6 4780 7264      00264         466          BE    PH5APA                  YES                              01757021
 0001AA 9529 2000      00000         467          CLI   DX0(RW2),XX29           ERROR TEXT?                      01764021
 0001AE 4780 72AE      002AE         468          BE    PH5AER                  YES                              01771021
 0001B2 91FF 2000      00000         469          TM    DX0(RW2),XXFF  *TEST IF ELEMENT IS END-OF-RCD MARKER     01778021
 0001B6 4710 724C      0024C         470          BO    GET5                    YES                              01785021
 0001BA 47F0 7212      00212         471          B     GET8                    GO TO EXIT                       01792021
 0001BE 9542 2000      00000         472 CHKSEG   CLI   DX0(RW2),XX42           CONTROL BREAK?                   01799021
 0001C2 4770 70B4      000B4         473          BNE   NOTSEG                  NO                               01806021
0
                                     475 *                                                                 7898  01820021
                                     476 *      HERE WE HAVE ESTABLISHED THAT THIS IS A PROGRAM BREAK, AND 7898  01827021
                                     477 *      WE USE AN EXECUTE TABLE (EXECTABL) TO DETERMINE PROGRAM    7898  01834021
                                     478 *      FLOW IN ANALYZING THE CRITICAL PROGRAM BREAKS.             7898  01841021
                                     479 *                                                                 7898  01848021
0
 0001C6 1B33                         481          SR    RW3,RW3             CLEAR REGISTERS                7898  01862021
 0001C8 1B55                         482          SR    RW5,RW5                 3 AND 5                    7898  01869021
 0001CA 4332 0001      00001         483          IC    RW3,DX1(RW2)        GET TYPE OF BREAK              7898  01876021
 0001CE 4B30 D0CC      07C64         484          SH    RW3,H6              SUBTRACT 6 TO GET RID OF MEAN- 7898  01883021
                                     485 *                                      INGLESS CODES              7898  01890021
 0001D2 8B30 0002      00002         486          SLA   RW3,DX2             MULTIPLY BY 4 FOR CORRECT      7898  01897021
                                     487 *                                      TABLE DISPLACEMENT         7898  01904021
 0001D6 4140 7146      00146         488          LA    RW4,EXECTABL        POINT TO INSTRUCTION TABLE     7898  01911021
 0001DA 4453 4000      00000         489          EX    RW5,DX0(RW3,RW4)    EXECUTE INSTRUCTION NEEDED     7898  01918021
 0001DE 47F0 716A      0016A         490          B     GET                 GET NEXT ELEMENT               7898  01925021
 0001E2                              491 GET4     DS     0H                                                 7898 01932021
 0001E2 9501 D0BC      07C54         492          CLI   SEGSW,XX01          ******************************       01939021
 0001E6 4770 7202      00202         493        BNE   SSSSSS               ******************************        01946021
 0001EA 9244 2000      00000         494          MVI   DX0(RW2),XX44        YES,PASS IT TO PHASE 6              01953021
 0001EE 9244 2001      00001         495          MVI   DX1(RW2),XX44                                            01960021
 0001F2 4130 0002      00002         496          LA    RW3,DX2              SPECIFY LENGTH                      01967021
 0001F6 4500 7504      00504         497        BAL   RW0,WRITE3            WRITE A-TXT                          01974021
 0001FA 050A                         498        BALR  RW0,XRBAS2            BR TO PHASE 0                        01981021
 0001FC C100                         499        DC    X'C100'              COS CODE TO ISSUE NOTE MACRO          01988021
 0001FE 45E0 722C      0022C         500        BAL   RETRG,SEGENTR         INSERT SEGMENT ENTRY                 01995021
1         IKFCBL51: PH5CTL - PHASE 51 CONTROL ROUTINE                                                           PAGE   14
-  LOC  OBJECT CODE    ADDR1 ADDR2  STMT   SOURCE STATEMENT                                       ASM 0201 11.03 02/14/15
0                            00202   501 SSSSSS EQU   *                                                          02002021
 000202 9201 D0BC      07C54         502          MVI   SEGSW,XX01          ******************************       02009021
 000206 47F0 716A      0016A         503        B     GET                  GET NEXT ELEMENT                      02016021
 00020A 45E0 7376      00376         504 GET6   BAL   RETRG,PUTA      *PUT ELEMENT                               02023021
 00020E 47F0 716A      0016A         505          B     GET                     GET NEXT P2 ELEMENT              02030021
 000212 58E0 D3E4      07F7C         506 GET8   L     RETRG,GETSAV    *EXIT                                      02037021
 000216 07FE                         507          BR    RETRG                   EXIT FROM PHASE 5                02044021
 000218 9500 2002      00002         508 GET9     CLI   DX2(RW2),XX00       ERR MSG DEFINITION OR PARAMETER      02051021
 00021C 4770 7224      00224         509        BNE   GET9A                PARAMETER...WRITE OUT                 02058021
 000220 45E0 755A      0055A         510        BAL   RETRG,SEVTST         DEFINITION...TEST FOR E LEVEL         02065021
 000224 45E0 7370      00370         511 GET9A  BAL   RETRG,PUTMSG         PUT ERROR MESSAGE                     02072021
 000228 47F0 716A      0016A         512          B     GET                     GET NEXT P2 ELEMENT              02079021
                                     513 *      MAKE A SEGTBL ENTRY                                              02086021
 00022C 5810 C738      07568         514 SEGENTR L    RW1,SEGPRM           GET PARLIST ADDRESS                   02093021
 000230 186E                         515        LR    RW6,RETRG                                                  02100021
 000232 58F0 A130      00130         516        L     XRVAR,XINST                                                02107021
 000236 05EF                         517        BALR  RETRG,XRVAR           BR TO INSERT RTN                     02114021
 000238 D200 2000 D321 00000 07EB9   518          MVC   DX0(LX1,RW2),PNOUT+NX1  ENTER PRIORITY                   02121021
 00023E 5810 D0B8      07C50         519        L     RW1,ADSEGSV                                                02128021
 000242 D203 2001 1000 00001 00000   520          MVC   DX1(LX4,RW2),DX0(RW1) ENTER DISKADDR FROM PH0 AREA       02135021
 000248 18E6                         521        LR    RETRG,RW6                                                  02142021
 00024A 07FE                         522        BR    RETRG                 RETURN TO CALLER                     02149021
 00024C 4500 74E4      004E4         523 GET5   BAL   RW0,READ1      *READ NEXT RECORD                           02156021
 000250 4780 72BE      002BE         524          BZ    EOFIN                   TEST FOR EOF                     02163021
 000254 1820                         525        LR    RW2,RW0          PUT RCD ADDR IN RW2                       02170021
 000256 5020 D0B0      07C48         526        ST    RW2,PNTIN        SAVE RCD ADDR                             02177021
 00025A 1B33                         527        SR    RW3,RW3          ZERO RW3 (INDICATING NO BYTES PROCESS     02184021
 00025C 4030 D0AC      07C44         528        STH   RW3,BYTCNT         ZERO BYTCNT FOR SAME REASON             02191021
 000260 47F0 7178      00178         529          B     GET1                    EXIT                             02198021
                                     530 *                                                                       02205021
 000264 4122 0002      00002         531 PH5APA   LA    RW2,DX2(RW2)            POINT TO TEXT                    02212021
 000268 4B30 72BC      002BC         532          SH    RW3,HW2                 GET CT                           02219021
 00026C 957C 2000      00000         533          CLI   DX0(RW2),XX7C       LISTING A-TEXT...                    02226021
 000270 4780 728A      0028A         534          BE    PH5AP2              YES                                  02233021
 000274 952C 2000      00000         535          CLI   DX0(RW2),XX2C           CARD NUMBER ID                   02240021
 000278 4770 7286      00286         536          BNE   PH5AP1                  NO, DO NOT MOVE CARD NUMBER      02247021
 00027C D201 A1EE 2001 001EE 00001   537          MVC   CARDNO(LX2),DX1(RW2)    KEEP CARD NUMBER IN COMMON AREA  02254021
 000282 47F0 728A      0028A         538          B    PH5AP2               BRANCH AROUND MOVE             7898  02261021
 000286                              539 PH5AP1   DS    0H                                                 7898  02268021
 000286 45E0 7104      00104         540          BAL   RETRG,STRTTEST      CHECK GENERATION OF START      7898  02275021
 00028A                              541 PH5AP2   DS    0H                                                 7898  02282021
 00028A 45E0 7376      00376         542          BAL   RETRG,PUTA          WRITE PROC A-TEXT              7898  02289021
 00028E 47F0 716A      0016A         543          B     GET                     GET COUNT                        02296021
 000292 45E0 7828      00828         544 PH5AQR   BAL   RETRG,ADETER            TEST FOR Q ROUTINES              02303021
 000296 9244 2000      00000         545          MVI   DX0(RW2),XX44                                            02310021
 00029A 9240 2001      00001         546          MVI   DX1(RW2),XX40                                            02317021
 00029E 4130 0002      00002         547          LA    RW3,DX2             INDIC 2 BYTES                  7898  02324021
 0002A2 45E0 7376      00376         548          BAL   RETRG,PUTA              PUT A TEXT                       02331021
 0002A6 9601 D625      081BD         549          OI    QRTNSW,MSWON                                             02338021
 0002AA 47F0 716A      0016A         550          B     GET                     GET COUNT                        02345021
                                     551 *                                                                       02352021
 0002AE 4122 0002      00002         552 PH5AER   LA    RW2,DX2(RW2)            POINT TO TEXT                    02359021
 0002B2 4B30 72BC      002BC         553          SH    RW3,HW2                 GET CT                           02366021
 0002B6 47F0 7218      00218         554          B     GET9                    PROCESS ETEXT                    02373021
 0002BA 420A                         555 QRTNCB   DC    X'420A'                 Q ROUTINE                        02380021
1         IKFCBL51: PH5CTL - PHASE 51 CONTROL ROUTINE                                                           PAGE   15
-  LOC  OBJECT CODE    ADDR1 ADDR2  STMT   SOURCE STATEMENT                                       ASM 0201 11.03 02/14/15
00002BC 0002                         556 HW2      DC    H'2'                                                     02387021
-
0
 0002BE 45E0 7828      00828         558 EOFIN  BAL   RETRG,ADETER     GO TO EOF HSK                             02401021
 0002C2 4810 A162      00162         559        LH    RW1,VIRCTR       STEP VIRCTR DOWN BY 1                     02408021
 0002C6 0610                         560        BCTR  RW1,RW0               SUBTRACT 1 FROM REG 1                02415021
 0002C8 4010 A162      00162         561        STH   RW1,VIRCTR                                                 02422021
 0002CC 95FF A1D0      001D0         562          CLI   SEGLMT,XXFF         IS PROGRAM SEGMENTED...              02429021
 0002D0 4780 72F2      002F2         563        BE    EOFFF                  NO                                  02436021
 0002D4 4130 0002      00002         564          LA    RW3,DX2             LENGTH                               02443021
 0002D8 4120 C840      07670         565        LA    RW2,SEGBRK           ADDR OF SEGM CONTROL BREAK            02450021
 0002DC 4500 7504      00504         566        BAL   RW0,WRITE3           WRITE LAST SEGM CONTROL BREAK         02457021
 0002E0 050A                         567        BALR  RW0,XRBAS2            WRITE                                02464021
 0002E2 C1FF                         568        DC    X'C1FF'              FINAL NOTE                            02471021
 0002E4 45E0 722C      0022C         569        BAL   RETRG,SEGENTR        MAKE LAST ENTRY IN SEGTBL             02478021
 0002E8 5810 C738      07568         570        L     RW1,SEGPRM                                                 02485021
 0002EC 58F0 A134      00134         571        L     XRVAR,ADSTAT         STATIC SEGTBL                         02492021
 0002F0 05EF                         572        BALR  RETRG,XRVAR           BRANCH TO STATIC TBL ROUTINE         02499021
                             002F2   573 EOFFF  EQU   *                                                          02506021
 0002F2 5810 C740      07570         574          L    RW1,GNCALPRM                                        37330 02513021
 0002F6 58F0 A138      00138         575          L     XRVAR,RELADD                                       37330 02520021
 0002FA 05EF                         576          BALR  RETRG,XRVAR               FREE GN CALL TABLE        7330 02527021
 0002FC 5810 CD60      07B90         577          L     RW1,ARNTBL              ADDRESS OF RERUN TABLE           02534021
 000300 D502 1001 C6A8 00001 074D8   578          CLC   DX1(LX3,RW1),XC000      IS IT ZERO...                    02541021
 000306 4780 7322      00322         579          BE    NORERUNI                YES, THEN NO RERUN               02548021
 00030A 5811 0000      00000         580          L     RW1,DX0(RW1)                                             02555021
 00030E D501 1004 C6A8 00004 074D8   581          CLC   DX4(LX2,RW1),XC000                                       02562021
 000314 4780 7322      00322         582          BE    NORERUNI            IF 5TH AND 6TH BYT ZERO NO REL       02569021
 000318 5810 CD60      07B90         583          L     RW1,ARNTBL          ADDR.OF RUNTBL'S TIB                 02576021
 00031C 58F0 A138      00138         584          L     XRVAR,XTABL         RELEASE RUNTBL.                      02583021
 000320 05EF                         585          BALR  RETRG,XRVAR         RELEASE RUNTBL                       02590021
 000322                              586 NORERUNI DS    0H                                                       02597021
 000322 5810 CD64      07B94         587          L   RW1,AUSETBL           ADDR USETBL                    43521 02604021
 000326 D502 1001 C6A8 00001 074D8   588          CLC   DX1(LX3,RW1),XC000       ADDR TAMM 0...            43521 02611021
 00032C 4780 7348      00348         589          BE    NOUSEDCL            YES                            43521 02618021
 000330 5811 0000      00000         590          L     RW1,DX0(RW1)                                       43521 02625021
 000334 D501 1004 C6A8 00004 074D8   591          CLC   DX4(LX2,RW1),XC000       ANY BYTES USED...         43521 02632021
 00033A 4780 7348      00348         592          BE    NOUSEDCL            NO                             43521 02639021
 00033E 5810 CD64      07B94         593          L     RW1,AUSETBL                                        43521 02646021
 000342 58F0 A138      00138         594          L     XRVAR,XTABL                                        43521 02653021
 000346 05EF                         595          BALR  RETRG,XRVAR         RELEASE USETBL                 43521 02660021
 000348                              596 NOUSEDCL DS    0H                                                 43521 02667021
 000348 050A                         597        BALR  RW0,XRBAS2             RETURN TO PHASE0                    02674021
 00034A A0                           598        DC    X'A0'                                                      02681021
1         IKFCBL51: C O M M O N  S U B R O U T I N E S                                                          PAGE   16
-  LOC  OBJECT CODE    ADDR1 ADDR2  STMT   SOURCE STATEMENT                                       ASM 0201 11.03 02/14/15
000034B 00
 00034C 4810 A162      00162         600 PUTVIR LH    RW1,VIRCTR       STEP VIRCTR                               02695021
 000350 4111 0001      00001         601          LA    RW1,DX1(RW1)                                             02702021
 000354 4010 A162      00162         602        STH   RW1,VIRCTR                                                 02709021
 000358 4500 74F2      004F2         603        BAL   RW0,WRITE2       PUT VIRDEF ELEMENT ON F2                  02716021
 00035C 07FE                         604          BR    RETRG                   RETURN TO CALLER                 02723021
-
0
 00035E 4810 A164      00164         606 PUTLTL LH    RW1,LTLCTR       STEP LTLCTR                               02737021
 000362 4111 0001      00001         607          LA    RW1,DX1(RW1)                                             02744021
 000366 4010 A164      00164         608        STH   RW1,LTLCTR                                                 02751021
 00036A 4500 74F2      004F2         609        BAL   RW0,WRITE2       PUT LTLDEF ELEMENT ON F2                  02758021
 00036E 07FE                         610        BCR   UNCOND,RETRG          RETURN TO CALLER                     02765021
-
0
 000370 4500 7512      00512         612 PUTMSG BAL   RW0,WRITE4            WRITE ERROR MESSAGE                  02779021
 000374 07FE                         613        BCR   UNCOND,RETRG          RETURN TO CALLER                     02786021
-
0
 000376 90E3 D3AC      07F44         615 PUTA   STM   RETRG,RW3,PUTSAV                                           02800021
 00037A 9544 2000      00000         616 PUTA04 CLI   DX0(RW2),XX44   TEST IF A TEXT TO BE GENERATED WILL CA     02807021
 00037E 4780 738A      0038A         617        BC    EQ,PUTA1           IN-LINE CORE RESERVATION IN OBJECT      02814021
 000382 9548 2000      00000         618          CLI   DX0(RW2),XX48     PROGRAM                                02821021
 000386 4770 7392      00392         619        BC    NOTEQ,PUTA2        BR IF NO                                02828021
 00038A 9208 D3CA      07F62         620 PUTA1    MVI   GNLIST-NX2,XX08 SET CODE INDICATING GNEQU TO BE GENER    02835021
 00038E 45E0 7430      00430         621        BAL   RETRG,PUTEQU     GO TO GENERATE GNEQU AND/OR GNDEF         02842021
                                     622 *                               DEPENDING ON GNCNT                      02849021
 000392 4500 7504      00504         623 PUTA2  BAL   RW0,WRITE3       WRITE ORIGINAL ELEMENT ON F3              02856021
 000396 98E3 D3AC      07F44         624        LM    RETRG,RW3,PUTSAV                                           02863021
 00039A 07FE                         625        BCR   UNCOND,RETRG     EXIT                                      02870021
-
0
 00039C 90E3 D3AC      07F44         627 PUTDEF STM   RETRG,RW3,PUTSAV                                           02884021
 0003A0 9538 2000      00000         628 PUTDF4 CLI   DX0(RW2),PAVNDEF          TEST IF VNDEF                    02891021
 0003A4 4770 73CC      003CC         629        BNE   PUTDPG                  BRANCH IF NO                       02898021
 0003A8 4130 0004      00004         630          LA    RW3,DX4                                                  02905021
 0003AC 4500 7504      00504         631        BAL   RW0,WRITE3           YES, GO TO WRITE,THEN EXIT            02912021
 0003B0 95FF A1D0      001D0         632          CLI   SEGLMT,XXFF          IS PROGRAM SEGMENTED                02919021
 0003B4 4780 742A      0042A         633          BC    R8,PUTDXT            NO,BR                               02926021
 0003B8 9214 2000      00000         634          MVI   DX0(RW2),XX14        CHANGE ID BYTE                      02933021
 0003BC 947F 2001      00001         635          NI    DX1(RW2),XX7F            GET RID OF SWITCH IN PTY        02940021
 0003C0 4130 0004      00004         636          LA    RW3,DX4              SPECIFY LENGTH                      02947021
 0003C4 4500 74F2      004F2         637        BAL   RW0,WRITE2            WRITE VNDEF IN OPT A-TEXT            02954021
1         IKFCBL51: C O M M O N  S U B R O U T I N E S                                                          PAGE   17
-  LOC  OBJECT CODE    ADDR1 ADDR2  STMT   SOURCE STATEMENT                                       ASM 0201 11.03 02/14/15
00003C8 47F0 742A      0042A         638        BC    UNCOND,PUTDXT         LEAVE ROUTINE                        02961021
 0003CC 4810 D3C6      07F5E         639 PUTDPG LH    RW1,GNCNT               NO. ADD PN= OR GN= TO GNLIST       02968021
 0003D0 4101 0001      00001         640          LA    RW0,DX1(RW1)                                             02975021
 0003D4 4000 D3C6      07F5E         641        STH   RW0,GNCNT        STEP COUNT OF ='S IN LIST                 02982021
 0003D8 8B10 0001      00001         642          SLA   RW1,DX1         CALC ADDR OF NEXT ENTRY IN LIST          02989021
 0003DC 4111 D3CC      07F64         643        LA    RW1,GNLIST(RW1)                                            02996021
 0003E0 9530 2000      00000         644          CLI   DX0(RW2),PAPNDEF     TEST FOR PNDEF                      03003021
 0003E4 4780 7400      00400         645        BE    PUTPP                   BRANCH IF YES                      03010021
 0003E8 D201 1000 2001 00000 00001   646          MVC   DX0(LX2,RW1),DX1(RW2)     ENTER GN INTO GNLIST           03017021
 0003EE D501 D3C6 C6C8 07F5E 074F8   647        CLC   GNCNT,XC012           IS GNLIST FULL......                 03024021
 0003F4 4740 742A      0042A         648        BL    PUTDXT                NO                                   03031021
 0003F8 9208 D3CA      07F62         649          MVI   GNLIST-NX2,XX08      YES, SET CODE FOR GNEQU STRING      03038021
 0003FC 47F0 7426      00426         650        B     PUTDGO                WRITE OUT GNLIST                     03045021
 000400 D201 1000 2002 00000 00002   651 PUTPP    MVC   DX0(LX2,RW1),DX2(RW2)     ENTER PN INTO GNLIST           03052021
 000406 920C D3CA      07F62         652          MVI   GNLIST-NX2,XX0C INDICATE PNEQU TO BE GENERATED           03059021
 00040A 4900 D3C4      07F5C         653        CH    RW0,PUTH1        TEST IF PN NOT PRECEDED BY GN'S           03066021
 00040E 4780 7426      00426         654        BE    PUTDGO                  YES..IE, NOT PRECEEDED BY GN'S     03073021
 000412 D201 1000 D3CC 00000 07F64   655          MVC   DX0(LX2,RW1),GNLIST    MOVE FIRST ENTRY TO LAST          03080021
 000418 D201 D3CC 2002 07F64 00002   656          MVC   GNLIST(LX2),DX2(RW2)   MOVE PNNO TO FIRST ENTRY          03087021
 00041E 4830 D3CC      07F64         657        LH    RW3,GNLIST       PUT PN= IN RW3 AND CALL RTN TO MARK P     03094021
 000422 45E0 74B2      004B2         658        BAL   RETRG,PNUSED       AS HAVING BEEN USED                     03101021
 000426 45E0 7430      00430         659 PUTDGO BAL   RETRG,PUTEQU            GEN PNEQU IF ANY GN='S IN GNLI     03108021
 00042A 98E3 D3AC      07F44         660 PUTDXT LM    RETRG,RW3,PUTSAV                                           03115021
 00042E 07FE                         661          BCR   R15,RETRG          RETURN TO CALLER                      03122021
-
0
 000430 4810 D3C6      07F5E         663 PUTEQU LH    RW1,GNCNT        TEST    GNCNT                             03136021
 000434 4910 D3C4      07F5C         664        CH    RW1,PUTH1                                                  03143021
 000438 4740 74AC      004AC         665        BC    LO,PUTEXT          EXIT IF ZERO                            03150021
 00043C 4780 7480      00480         666        BC    EQ,PUTEEQ          BR IF ONE                               03157021
 000440 4210 D3CB      07F63         667          STC   RW1,GNLIST-NX1                                           03164021
 000444 950C D3CA      07F62         668          CLI   GNLIST-NX2,XX0C *TEST IF PNEQU INDICATED                 03171021
 000448 4780 7470      00470         669        BC    EQ,PUTEWR          BR IF YES                               03178021
 00044C 0610                         670        BCTR  RW1,RW0               TEST FOR LOOPING                     03185021
 00044E 8910 0001      00001         671          SLL   RW1,DX1        *  NO, GO THROUGH LOOP TO GET LOWEST G    03192021
 000452 4830 D3CC      07F64         672 PUTELP LH    RW3,GNLIST         IN FIRST ENTRY IN GNLIST                03199021
 000456 4801 D3CC      07F64         673        LH    RW0,GNLIST(RW1)                                            03206021
 00045A 1930                         674        CR    RW3,RW0                                                    03213021
 00045C 4740 746A      0046A         675        BL    PUTEEL                BRANCH AROUND STORE OPERATIONS       03220021
 000460 4031 D3CC      07F64         676        STH   RW3,GNLIST(RW1)                                            03227021
 000464 1830                         677        LR    RW3,RW0                                                    03234021
 000466 4030 D3CC      07F64         678        STH   RW3,GNLIST                                                 03241021
 00046A 0610                         679 PUTEEL BCTR  RW1,RW0               LOOP CONTROL                         03248021
 00046C 4610 7452      00452         680        BCT   RW1,PUTELP            GO THROUGH LOOP AGAIN                03255021
 000470 4830 D3C6      07F5E         681 PUTEWR LH    RW3,GNCNT       *PUT = BYTES TO WRITE IN RW3               03262021
 000474 4133 3002      00002         682          LA    RW3,DX2(RW3,RW3)                                         03269021
 000478 4120 D3CA      07F62         683          LA    RW2,GNLIST-NX2  PUT ADDR IN RW2                          03276021
 00047C 4500 74F2      004F2         684        BAL   RW0,WRITE2       WRITE GNEQU OR PNEQU                      03283021
 000480 950C D3CA      07F62         685 PUTEEQ   CLI   GNLIST-NX2,XX0C          IS IT A PNEQU                   03290021
 000484 4780 7494      00494         686          BE    PUTPN                   YES                              03297021
 000488 9234 D3CB      07F63         687          MVI   GNLIST-NX1,PAGNDEF       NO, SET CODE FOR GNDEF          03304021
 00048C 4130 0003      00003         688          LA    RW3,DX3                  NUMB OF BYTES TO WRITE IN RW    03311021
1         IKFCBL51: C O M M O N  S U B R O U T I N E S                                                          PAGE   18
-  LOC  OBJECT CODE    ADDR1 ADDR2  STMT   SOURCE STATEMENT                                       ASM 0201 11.03 02/14/15
0000490 47F0 749E      0049E         689          B     PUTEVN              BRANCH AROUND SETTINGS               03318021
 000494 D203 D3CB D320 07F63 07EB8   690 PUTPN    MVC   GNLIST-NX1(NX4),PNOUT    SET PNDEF, PRIORTY, NUMB        03325021
 00049A 4130 0004      00004         691          LA    RW3,DX4                                                  03332021
 00049E 4120 D3CB      07F63         692 PUTEVN   LA    RW2,GNLIST-NX1           ADDR OF AREA TO WRITE IN RW2    03339021
 0004A2 D701 D3C6 D3C6 07F5E 07F5E   693          XC    GNCNT,GNCNT              ZEROUT COUNT                    03346021
 0004A8 4500 7504      00504         694        BAL   RW0,WRITE3       WRITE DEF ELEMENT                         03353021
 0004AC 9813 D3B8      07F50         695 PUTEXT   LM    RW1,RW3,PUTSAV+NX12 RESTORE R1 TO R3  FROM REG SAVE ARE  03360021
 0004B0 07FE                         696          BCR   R15,RETRG          AS SAVED BY PUTA OR PUTDEF WHICH A    03367021
                                     697 *                                THE ONLY TWO RTNS TO CALL THIS RTN     03374021
-
0
 0004B2 9013 D3E8      07F80         699 PNUSED STM   RW1,RW3,PNUSAV   SAVE REGISTERS                            03388021
 0004B6 5810 C730      07560         700        L     RW1,PNUTBA       TIB ADDR TO RW1                           03395021
 0004BA 5811 0000      00000         701          L     RW1,DX0(RW1)    TAMM ADDR TO RW1                         03402021
 0004BE 5811 0000      00000         702          L     RW1,DX0(RW1)    TABLE ADDR TO RW1                        03409021
 0004C2 1B22                         703        SR    RW2,RW2          ZERO RW2 FOR DIVIDE                       03416021
 0004C4 0630                         704        BCTR  RW3,RW0            STEP DOWN PN= TO EFFECT COUNTING FR     03423021
 0004C6 5D20 D3F4      07F8C         705        D     RW2,PNU32        DIVIDE PN= BY 32                          03430021
 0004CA 5800 D3F8      07F90         706        L     RW0,PNUX80       PUT HIGH ORDER BIT ONLY IN RW1            03437021
 0004CE 8800 2000      00000         707          SRL   RW0,DX0(RW2)    SHIFT AS MANY PLACES AS INDICATED BY     03444021
 0004D2 8930 0002      00002         708          SLL   RW3,DX2                                                  03451021
 0004D6 5601 3000      00000         709          O     RW0,DX0(RW1,RW3)  REMAINDER                              03458021
 0004DA 5001 3000      00000         710          ST    RW0,DX0(RW1,RW3) SET BIT ON IN TABLE                     03465021
 0004DE 9813 D3E8      07F80         711        LM    RW1,RW3,PNUSAV                                             03472021
 0004E2 07FE                         712        BCR   UNCOND,RETRG     EXIT                                      03479021
                                     713 *                                                                       03486021
                                     714 *                                                                       03493021
                                     715 *                                                                       03500021
-
0
 0004E4 5000 D3A8      07F40         717 READ1  ST    RW0,WRITES                                                 03514021
 0004E8 050A                         718        BALR  RW0,XRBAS2            BRANCH TO READ ROUTINE               03521021
 0004EA 02                           719        DC    X'02'                 READ P2 TEXT FROM FILE 2             03528021
 0004EB 00
 0004EC 5810 D3A8      07F40         720        L     RW1,WRITES                                                 03535021
 0004F0 07F1                         721          BCR   R15,RW1                  RETURN TO CALLER                03542021
                                     722 *WRITE1 ST    RW0,WRITES                                                03549021
                                     723 *       BALR  0,10                                                      03556021
                                     724 *       DC    X'11'                                                     03563021
                                     725 *       L     RW1,WRITES                                                03570021
                                     726 *       BCR   15,RW1                                                    03577021
 0004F2 5000 D3A8      07F40         727 WRITE2 ST    RW0,WRITES                                                 03584021
 0004F6 050A                         728        BALR  RW0,XRBAS2            BRANCH TO READ ROUTINE               03591021
 0004F8 13                           729        DC    X'13'                 WRITE OPTIMIZATION ATXT ON FILE      03598021
 0004F9 00
 0004FA 9680 A1D3      001D3         730          OI    PH1BYTE,F3TEXT      THERE IS OPT A TXT TO WRITE    7707  03605021
 0004FE 5810 D3A8      07F40         731        L     RW1,WRITES                                                 03612021
 000502 07F1                         732          BCR   R15,RW1                  RETURN TO CALLER                03619021
 000504 5000 D3A8      07F40         733 WRITE3 ST    RW0,WRITES                                                 03626021
1         IKFCBL51: C O M M O N  S U B R O U T I N E S                                                          PAGE   19
-  LOC  OBJECT CODE    ADDR1 ADDR2  STMT   SOURCE STATEMENT                                       ASM 0201 11.03 02/14/15
0000508 050A                         734        BALR  RW0,XRBAS2            BRANCH TO READ ROUTINE               03633021
 00050A 11                           735        DC    X'11'                 WRITE PROC-A TEXT ON FILE 1          03640021
 00050B 00
 00050C 5810 D3A8      07F40         736        L     RW1,WRITES                                                 03647021
 000510 07F1                         737          BCR   R15,RW1                  RETURN TO CALLER                03654021
 000512 5000 D3A8      07F40         738 WRITE4 ST    RW0,WRITES                                                 03661021
 000516 050A                         739        BALR  RW0,XRBAS2            BRANCH TO READ ROUTINE               03668021
 000518 14                           740        DC    X'14'                 WRITE ERROR TEXT ON FILE 4           03675021
 000519 00
 00051A 5810 D3A8      07F40         741        L     RW1,WRITES                                                 03682021
 00051E 07F1                         742          BCR   R15,RW1            RETURN TO CALLER                      03689021
1         IKFCBL51: C O M M O N  S U B R O U T I N E S                                                          PAGE   20
-  LOC  OBJECT CODE    ADDR1 ADDR2  STMT   SOURCE STATEMENT                                       ASM 0201 11.03 02/14/15
0                                    744 *DEL                                                               5189 03703021
                                     745 *DEL                                                               5189 03710021
                                     746 *DEL                                                               5189 03717021
                                     747 *DEL                                                               5189 03724021
                                     748 *DEL                                                               5189 03731021
                                     749 *DEL                                                               5189 03738021
                                     750 *DEL                                                               5189 03745021
                                     751 *DEL                                                               5189 03752021
                                     752 *DEL                                                               5189 03759021
                                     753 *DEL                                                               5189 03766021
                                     754 *DEL                                                               5189 03773021
                                     755 *DEL                                                               5189 03780021
                                     756 *DEL                                                               5189 03787021
                                     757 *DEL                                                               5189 03794021
                                     758 *DEL                                                               5189 03801021
                                     759 *DEL                                                               5189 03808021
                                     760 *DEL                                                               5189 03815021
                                     761 *DEL                                                               5189 03822021
                                     762 *DEL                                                               5189 03829021
                                     763 *DEL                                                               5189 03836021
                                     764 *DEL                                                               5189 03843021
                                     765 *DEL                                                               5189 03850021
                                     766 *DEL                                                               5189 03857021
                                     767 *DEL                                                               5189 03864021
                                     768 *DEL                                                               5189 03871021
                                     769 *DEL                                                               5189 03878021
                                     770 *DEL                                                               5189 03885021
                                     771 *DEL                                                               5189 03892021
                                     772 *DEL                                                               5189 03899021
                                     773 *DEL                                                               5189 03906021
                                     774 *DEL                                                               5189 03913021
                                     775 *DEL                                                               5189 03920021
                                     776 *DEL                                                               5189 03927021
                                     777 *DEL                                                               5189 03934021
                                     778 *DEL                                                               5189 03941021
                                     779 *DEL                                                               5189 03948021
                                     780 *DEL                                                               5189 03955021
                                     781 *DEL                                                               5189 03962021
                                     782 *DEL                                                               5189 03969021
                                     783 *DEL                                                               5189 03976021
                                     784 *DEL                                                               5189 03983021
                                     785 *DEL                                                               5189 03990021
                                     786 *DEL                                                               5189 03997021
                                     787 *DEL                                                               5189 04004021
                                     788 *DEL                                                               5189 04011021
                                     789 *DEL                                                               5189 04018021
                                     790 *DEL                                                               5189 04025021
                                     791 *DEL                                                               5189 04032021
                                     792 *DEL                                                               5189 04039021
                                     793 *DEL                                                               5189 04046021
                                     794 *DEL                                                               5189 04053021
                                     795 *DEL                                                               5189 04060021
                                     796 *DEL                                                               5189 04067021
                                     797 *DEL                                                               5189 04074021
                                     798 *DEL                                                               5189 04081021
1         IKFCBL51: C O M M O N  S U B R O U T I N E S                                                          PAGE   21
-  LOC  OBJECT CODE    ADDR1 ADDR2  STMT   SOURCE STATEMENT                                       ASM 0201 11.03 02/14/15
0                                    799 *DEL                                                               5189 04088021
                                     800 *DEL                                                               5189 04095021
                                     801 *DEL                                                               5189 04102021
                                     802 *DEL                                                               5189 04109021
                                     803 *DEL                                                               5189 04116021
                                     804 *DEL                                                               5189 04123021
                                     805 *DEL                                                               5189 04130021
                                     806 *DEL                                                               5189 04137021
                                     807 *DEL                                                               5189 04144021
                                     808 *DEL                                                               5189 04151021
                                     809 *DEL                                                               5189 04158021
                                     810 *DEL                                                               5189 04165021
                                     811 *DEL                                                               5189 04172021
                                     812 *DEL                                                               5189 04179021
                                     813 *DEL                                                               5189 04186021
                                     814 *DEL                                                               5189 04193021
                                     815 *DEL                                                               5189 04200021
                                     816 *DEL                                                               5189 04207021
                                     817 *DEL                                                               5189 04214021
                                     818 *DEL                                                               5189 04221021
                                     819 *DEL                                                               5189 04228021
                                     820 *DEL                                                               5189 04235021
                                     821 *DEL                                                               5189 04242021
                                     822 *DEL                                                               5189 04249021
                                     823 *DEL                                                               5189 04256021
                                     824 *DEL                                                               5189 04263021
                                     825 *DEL                                                               5189 04270021
                                     826 *DEL                                                               5189 04277021
                                     827 *DEL                                                               5189 04284021
                                     828 *DEL                                                               5189 04291021
                                     829 *DEL                                                               5189 04298021
                                     830 *DEL                                                               5189 04305021
                                     831 *DEL                                                               5189 04312021
                                     832 *DEL                                                               5189 04319021
                                     833 *DEL                                                               5189 04326021
                                     834 *DEL                                                               5189 04333021
                                     835 *DEL                                                               5189 04340021
                                     836 *DEL                                                               5189 04347021
                                     837 *DEL                                                               5189 04354021
                                     838 *DEL                                                               5189 04361021
                                     839 *DEL                                                               5189 04368021
                                     840 *DEL                                                               5189 04375021
                                     841 *DEL                                                               5189 04382021
                                     842 *DEL                                                               5189 04389021
                                     843 *DEL                                                               5189 04396021
                                     844 *DEL                                                               5189 04403021
                                     845 *DEL                                                               5189 04410021
                                     846 *DEL                                                               5189 04417021
                                     847 *DEL                                                               5189 04424021
                                     848 *DEL                                                               5189 04431021
                                     849 *DEL                                                               5189 04438021
                                     850 *DEL                                                               5189 04445021
                                     851 *DEL                                                               5189 04452021
                                     852 *DEL                                                               5189 04459021
                                     853 *DEL                                                               5189 04466021
1         IKFCBL51: C O M M O N  S U B R O U T I N E S                                                          PAGE   22
-  LOC  OBJECT CODE    ADDR1 ADDR2  STMT   SOURCE STATEMENT                                       ASM 0201 11.03 02/14/15
0                                    854 *DEL                                                               5189 04473021
                                     855 *DEL                                                               5189 04480021
                                     856 *DEL                                                               5189 04487021
                                     857 *DEL                                                               5189 04494021
                                     858 *DEL                                                               5189 04501021
                                     859 *DEL                                                               5189 04508021
                                     860 *DEL                                                               5189 04515021
                                     861 *DEL                                                               5189 04522021
                                     862 *DEL                                                               5189 04529021
                                     863 *DEL                                                               5189 04536021
                                     864 *DEL                                                               5189 04543021
                                     865 *DEL                                                               5189 04550021
                                     866 *DEL                                                               5189 04557021
                                     867 *DEL                                                               5189 04564021
                                     868 *DEL                                                               5189 04571021
                                     869 *DEL                                                               5189 04578021
                                     870 *DEL                                                               5189 04585021
                                     871 *DEL                                                               5189 04592021
                                     872 *DEL                                                               5189 04599021
                                     873 *DEL                                                               5189 04606021
                                     874 *DEL                                                               5189 04613021
                                     875 *DEL                                                               5189 04620021
                                     876 *DEL                                                               5189 04627021
                                     877 *DEL                                                               5189 04634021
                                     878 *DEL                                                               5189 04641021
                                     879 *DEL                                                               5189 04648021
                                     880 *DEL                                                               5189 04655021
                                     881 *DEL                                                               5189 04662021
                                     882 *DEL                                                               5189 04669021
                                     883 *DEL                                                               5189 04676021
                                     884 *DEL                                                               5189 04683021
                                     885 *DEL                                                               5189 04690021
                                     886 *DEL                                                               5189 04697021
                                     887 *DEL                                                               5189 04704021
                                     888 *DEL                                                               5189 04711021
                                     889 *DEL                                                               5189 04718021
                                     890 *DEL                                                               5189 04725021
                                     891 *DEL                                                               5189 04732021
                                     892 *DEL                                                               5189 04739021
                             00520   893 ERRPRO EQU   *                                                          04746021
 000520 900F C4A0      072D0         894        STM   XR0,XR15,XGSAV8                                            04753021
                                     895 *DEL                                                               5189 04760021
                                     896 *DEL                                                               5189 04767021
                                     897 *DEL                                                               5189 04774021
                                     898 *DEL                                                               5189 04781021
                                     899 *DEL                                                               5189 04788021
 000524 D200 D528 E000 080C0 00000   900 ERRPR1   MVC   XMSGDF+NX4(LX1),DX0(XRSUB)                               04795021
 00052A D201 D529 A1EE 080C1 001EE   901          MVC   XMSGDF+NX5(LX2),CARDNO    SET BUFFER TO BE OUTPUTED      04802021
 000530 F100 D52B E001 080C3 00001   902          MVO   XMSGDF+NX7(LX1),DX1(LX1,XRSUB) ON FILE 4.                04809021
 000536 4120 D524      080BC         903        LA    RW2,XMSGDF                                                 04816021
 00053A 4130 0008      00008         904          LA    RW3,DX8                                                  04823021
 00053E 45E0 755A      0055A         905        BAL   RETRG,SEVTST         TEST FOR E LEVEL OR ABOVE             04830021
 000542 4500 7512      00512         906        BAL   XR0,WRITE4            WRITE MESSAGE                        04837021
 000546 9180 D52B      080C3         907          TM    XMSGDF+NX7,XX80     SEVERITY 8...                        04844021
 00054A 4780 7552      00552         908        BZ    ERRPRX               NO,  CONTINUE PROCESSING              04851021
1         IKFCBL51: C O M M O N  S U B R O U T I N E S                                                          PAGE   23
-  LOC  OBJECT CODE    ADDR1 ADDR2  STMT   SOURCE STATEMENT                                       ASM 0201 11.03 02/14/15
000054E 47F0 72BE      002BE         909          BC    UNCON,EOFIN        YES,  GO TO EOFIN RTN                 04858021
 000552 980F C4A0      072D0         910 ERRPRX LM    XR0,XR15,XGSAV8                                            04865021
 000556 47FE 0002      00002         911          BC    UNCOND,DX2(XRSUB)  RETURN TO CALLER                      04872021
 00055A 5030 D0E8      07C80         912 SEVTST ST    XR3,GSVR1                                                  04879021
 00055E 1B33                         913        SR    XR3,XR3                                                    04886021
 000560 4332 0007      00007         914          IC    XR3,DX7(XR2)        PICK UP SEVERITY                     04893021
 000564 8830 0004      00004         915          SRL   XR3,DX4             GET RID OF PHASE NUMBER              04900021
 000568 4133 0001      00001         916          LA    XR3,DX1(XR3)        ADD 1 TO SEV SINCE LOWEST SEV        04907021
                                     917 *                                 IS ZERO                               04914021
 00056C 8930 0002      00002         918          SLL   XR3,DX2                                                  04921021
 000570 4930 C6C8      074F8         919        CH    XR3,XC012                                                  04928021
 000574 47D0 757C      0057C         920        BNH   SEVT2                 SEVERITY NOT HIGHER THAN 12          04935021
 000578 4130 0010      00010         921          LA    XR3,DX16                                                 04942021
 00057C 4230 D0EC      07C84         922 SEVT2    STC   XR3,GSVR1+NX4                                            04949021
 000580 D500 D0EC A1A2 07C84 001A2   923          CLC   GSVR1+NX4(LX1),ERRSEV                                    04956021
 000586 47D0 7590      00590         924        BNH   SEVEXT                SEV NOT HIGHER THAN PREVIOUS HI      04963021
 00058A D200 A1A2 D0EC 001A2 07C84   925          MVC   ERRSEV(LX1),GSVR1+NX4   SAVE HIGHEST SEVERITY            04970021
 000590 5830 D0E8      07C80         926 SEVEXT L     XR3,GSVR1                                                  04977021
 000594 07FE                         927        BR    RETRG                 RETURN                               04984021
1         IKFCBL51: C O M M O N  S U B R O U T I N E S                                                          PAGE   24
-  LOC  OBJECT CODE    ADDR1 ADDR2  STMT   SOURCE STATEMENT                                       ASM 0201 11.03 02/14/15
-
-
 000596 900F C460      07290         930 XLENGH STM   XR0,XR15,XGSAV3                                            05005021
 00059A 58F0 C6FC      0752C         931        L     XRVAR,XSSDB2                                               05012021
                             01E26   932          USING XSUDB2,XRVAR                                             05019021
 00059E 47F0 F000      01E26         933        BC    UNCON,XSUDB2          GO TO BRANCH ROUTINE                 05026021
                                     934        DROP  XRVAR                                                      05033021
-
-
-

                                     936 *DEL                                                               5189 05047021
                                     937 *DEL                                                               5189 05054021
                                     938 *DEL                                                               5189 05061021
                                     939 *DEL                                                               5189 05068021
                                     940 *DEL                                                               5189 05075021
                                     941 *DEL                                                               5189 05082021
                                     942 *DEL                                                               5189 05089021
                                     943 *DEL                                                               5189 05096021
                                     944 *DEL                                                               5189 05103021
                                     945 *DEL                                                               5189 05110021
                                     946 *DEL                                                               5189 05117021
 0005A2 900F C420      07250         947 LSPRO  STM   XR0,XR15,XGSAV1                                            05124021
 0005A6 1832                         948        LR    XR3,RW2                                                    05131021
 0005A8 58F0 C718      07548         949        L     XRVAR,FPALOD                                               05138021
                             01DE8   950          USING LSSPRO,XRVAR                                             05145021
 0005AC 47F0 F000      01DE8         951        BC    UNCON,LSSPRO          GO TO SUBSCRIPT ROUTINE              05152021
                                     952          DROP  XRVAR                                              01041 05159021
 0005B0                              953 LSPR1    DS    0H                                                 37330 05166021
 0005B0 900F C420      07250         954          STM   XR0,XR15,XGSAV1                                    37330 05173021
 0005B4 1861                         955          LR    XR6,RW1                                            37330 05180021
 0005B6 58F0 C718      07548         956          L     XRVAR,FPALOD                                       37330 05187021
                             01DE8   957          USING LSSPRO,XRVAR                                       37330 05194021
 0005BA 47F0 F00C      01DF4         958          B     LSSPR1                    GENRATE CALLS TO QRTNS    7330 05201021
                                     959          DROP  XRVAR                                              37330 05208021
-
0
-
0
1         IKFCBL51: C O M M O N  S U B R O U T I N E S                                                          PAGE   25
-  LOC  OBJECT CODE    ADDR1 ADDR2  STMT   SOURCE STATEMENT                                       ASM 0201 11.03 02/14/15
0                                    962 * TEST DOP FOR VLC OR FIXED LENGTH AND SET ATXT BUFFER ACCORDING.       05229021
                                     963 *                                                                       05236021
 0005BE 9180 3002      00002         964 SETLEN   TM    DX2(RW3),XX80       VLC...                               05243021
 0005C2 4710 75D2      005D2         965          BO    SETLEN1             YES                                  05250021
 0005C6 9202 D180      07D18         966          MVI   XCON1+NX16,XX02     SET CODE FOR LITERAL                 05257021
 0005CA D201 D17E 3005 07D16 00005   967          MVC   XCON1+NX14(LX2),DX5(RW3)                                 05264021
 0005D0 07FE                         968          BR    XRSUB               RETURN                               05271021
 0005D2 9204 D188      07D20         969 SETLEN1  MVI   XCNTR1,XX04         SET CODE FOR VLC REFERENCE           05278021
 0005D6 D201 D189 3005 07D21 00005   970          MVC   XCNTR1+NX1(LX2),DX5(RW3)                                 05285021
 0005DC 07FE                         971          BR    XRSUB               RETURN                               05292021
-
                                     973 *                                                                       05306021
                                     974 *                                                                       05313021
 0005DE 9201 D198      07D30         975 LOADLIT  MVI   XREG1,XX01          GEN..  L 1,LITERAL  OR               05320021
 0005E2 5060 D148      07CE0         976         ST   RW6,OP1                     L  1,INDEX                     05327021
 0005E6 47F0 B000      00E78         977         B    LOAD                 ( RETRG ALREADY SET UP )              05334021
-
-
0
                                     980 *  CHECK  IF ALIGNEMENT IS NEEDED . THIS ONLY FOR RX USED WITH A DA     05355021
                                     981 *  NAME                                                                 05362021
                                     982 *                                                                       05369021
                                     983 *                                                                       05376021
                             005EA   984 AXT017   EQU   *                                                        05383021
 0005EA 1B22                         985          SR    RW2,RW2                                                  05390021
 0005EC 4320 D1ED      07D85         986          IC    RW2,OPCOD                CHECK  OPCOD  FOR AN  RX        05397021
 0005F0 8C20 0004      00004         987          SRDL  RW2,DX4                   INSTRUCTION.                   05404021
 0005F4 8830 001C      0001C         988          SRL   RW3,DX28                                                 05411021
 0005F8 4930 C6A8      074D8         989          CH    RW3,XC000                                                05418021
 0005FC 4770 775C      0075C         990          BNE   AXT020              IF NOT STORE TYPE BRANCH       4771  05425021
 000600 9620 D1E9      07D81         991          OI    GBIT2,AXSTORE            IT IS A STORE TYPE INSTRUCT     05432021
 000604 9608 D1E8      07D80         992          OI    GBIT1,SFPXXX                                             05439021
 000608 9560 D1ED      07D85         993          CLI   OPCOD,XX60                STD.                           05446021
 00060C 4770 7614      00614         994          BNE   AXT019                   NO-                             05453021
 000610 9610 D1E8      07D80         995          OI    GBIT1,DFPXXX             YES,                            05460021
 000614 9540 D1ED      07D85         996 AXT019   CLI   OPCOD,XX40                    STH.                       05467021
 000618 4770 7620      00620         997          BNE   AXT010              NO                                   05474021
 00061C 9601 D1E9      07D81         998          OI    GBIT2,XX01                  YES-                         05481021
                             00620   999 AXT010   EQU   *                                                        05488021
 000620 9198 D1E8      07D80        1000          TM    GBIT1,HFWORD+DFPXXX+SFPXXX                               05495021
 000624 4770 7630      00630        1001          BNZ   AXT000              IF 1,4,OR5 BIT ON, SKIP NXT          05502021
 000628 9122 D1E9      07D81        1002          TM    GBIT2,XX02+AXSTORE                                       05509021
 00062C 4780 B972      017EA        1003          BZ    AXT001                   NO ALIGNT. WANTED.              05516021
                             00630  1004 AXT000   EQU   *                                                        05523021
 000630 4920 C3D6      07206        1005          CH    RW2,XC004                RR INSTRUCTION -NO ALIGNT.      05530021
 000634 4740 B972      017EA        1006          BL    AXT001              NO ALLIGNMNT,BR TO ATXT GEN          05537021
 000638 4920 C6C2      074F2        1007          CH    RW2,XC009                                                05544021
 00063C 4780 7716      00716        1008          BE    AXT012                   IT IS STM OR LM.                05551021
1         IKFCBL51: C O M M O N  S U B R O U T I N E S                                                          PAGE   26
-  LOC  OBJECT CODE    ADDR1 ADDR2  STMT   SOURCE STATEMENT                                       ASM 0201 11.03 02/14/15
0000640 4720 B972      017EA        1009          BH    AXT001                   SS INSTRUCTION -NO ALIGNT.      05558021
 000644                             1010 AXT018   DS    0H                                                 46186 05565021
 000644 1244                        1011          LTR   OPD1,OPD1           VALID POINTER...               46186 05572021
 000646 4780 B972      017EA        1012          BZ    AXT001              NO, LEAVE ROUTINE              46186 05579021
 00064A 9530 4000      00000        1013          CLI   DX0(OPD1),XGDTN                                          05586021
 00064E 4770 B972      017EA        1014          BNE   AXT001                   IS IT A BDISP.                  05593021
 000652 9140 4007      00007        1015          TM    DX7(OPD1),SYNCHRO                                        05600021
 000656 4710 B972      017EA        1016          BO    AXT001                   THIS DATA-NAME IS SYNCHRONI     05607021
                                    1017 *                                                                       05614021
                                    1018 *                                                                       05621021
 00065A 9120 D1E9      07D81        1019          TM    GBIT2,AXSTORE                                            05628021
 00065E 4710 76EA      006EA        1020          BO    AXT002                   STORE TYPE INSTRUCTION.         05635021
                                    1021 *                                                                       05642021
 000662 92D2 D1ED      07D85        1022 AXT009   MVI   OPCOD,XXD2                                               05649021
                                    1023 *                                                                       05656021
                                    1024 *   FOR A NON STORE TYPE INSTRUCTION GENERATE :                         05663021
                                    1025 *                                                                       05670021
                                    1026 *                        MVC  TEMP(L),DN     INSTEAD OF THE ORIGINA     05677021
                                    1027 *                        OP   R,TEMP                OP R,DN             05684021
                                    1028 *                                                                       05691021
                                    1029 *  FOR  A STORE TYPE  GENERATE :                                        05698021
                                    1030 *                                                                       05705021
                                    1031 *                        ST R,TEMP           INSTEAD OF                 05712021
                                    1032 *                        MVC DN,TEMP                ST R,DN.            05719021
                                    1033 *                                                                       05726021
 000666 9110 D1E9      07D81        1034          TM    GBIT2,AXSTMLM                                            05733021
 00066A 4780 7678      00678        1035          BZ    AXT016                   FOR  STM OR LM PICK UP PRES     05740021
 00066E D200 D1EE D1A1 07D86 07D39  1036          MVC   GABS(LX1),XL2+NX1          LENGTH FROM XL2.              05747021
 000674 47F0 76A4      006A4        1037          B     AXT006              FOR STM OR LM SKIP NXT CODE          05754021
 000678 9201 D1EE      07D86        1038 AXT016   MVI   GABS,XX01                                                05761021
 00067C 9101 D1E9      07D81        1039          TM    GBIT2,XX01                                               05768021
 000680 4710 7694      00694        1040          BO    AXT005              HALFWORD BOUNDARY WANTED             05775021
 000684 9203 D1EE      07D86        1041          MVI   GABS,XX03                                                05782021
 000688 9110 D1E8      07D80        1042          TM    GBIT1,DFPXXX                                             05789021
 00068C 4780 7694      00694        1043          BZ    AXT005              NOT DOUBLE FLOATING PT INSTRUCT      05796021
 000690 9207 D1EE      07D86        1044          MVI   GABS,XX07                                                05803021
                                    1045 *                                                                       05810021
 000694 D501 A1DE C6C0 001DE 074F0  1046 AXT005   CLC   TS3MAX(LX2),XC008                                        05817021
 00069A 4720 76A4      006A4        1047          BH    AXT006              IF SIZE OF TEMP AREA LRGE SKIP       05824021
 00069E D201 A1DE C6C0 001DE 074F0  1048          MVC   TS3MAX(LX2),XC008                                        05831021
 0006A4 4120 D1EF      07D87        1049 AXT006   LA    RW2,GADPAR                                               05838021
 0006A8 9120 D1E9      07D81        1050          TM    GBIT2,AXSTORE            STORE TYPE.                     05845021
 0006AC 4710 76B4      006B4        1051          BO    AXT007                   YES-                            05852021
 0006B0 4122 0004      00004        1052          LA    RW2,DX4(RW2)                                             05859021
                                    1053 *                                                                       05866021
 0006B4 4830 D1EA      07D82        1054 AXT007   LH    RW3,COUNT                                                05873021
 0006B8 4B30 C6BA      074EA        1055          SH    RW3,XC005                                                05880021
 0006BC 0630                        1056          BCTR  RW3,RW0             SUBTRACT 1 FROM REG 3                05887021
 0006BE 4430 BE20      01C98        1057        EX    RW3,AXTI00                MOVE                             05894021
 0006C2 9120 D1E9      07D81        1058          TM    GBIT2,AXSTORE                                            05901021
 0006C6 4710 7708      00708        1059          BO    AXT008              MOVES TEMP STOR ATEXT FOR ST TYP     05908021
 0006CA D203 D1EF D344 07D87 07EDC  1060          MVC   GADPAR(LX4),AXTC00        SET UP TEMPORARY STORAGE OP    05915021
                                    1061 *                                                                       05922021
                                    1062 *                                                                       05929021
                                    1063 *                                                                       05936021
1         IKFCBL51: C O M M O N  S U B R O U T I N E S                                                          PAGE   27
-  LOC  OBJECT CODE    ADDR1 ADDR2  STMT   SOURCE STATEMENT                                       ASM 0201 11.03 02/14/15
00006D0 4120 D1EC      07D84        1064 AXT011   LA    RW2,OPCOD-NX1                                            05943021
 0006D4 4133 0008      00008        1065          LA    RW3,DX8(RW3)                                             05950021
 0006D8 9120 D1E9      07D81        1066          TM    GBIT2,AXSTORE                                            05957021
 0006DC 4710 B986      017FE        1067          BO    GNOPT6              MAKE BOUNDARY ALLIGNMENT             05964021
 0006E0 45E0 7376      00376        1068          BAL   XRSUB,PUTA          WRITE A-TEXT                         05971021
 0006E4 D201 D1ED D34B 07D85 07EE3  1069          MVC   OPCOD(LX2),OTPT+NX3        GENERATE INITIAL OPERATION.   05978021
 0006EA D203 D1EF D344 07D87 07EDC  1070 AXT002   MVC   GADPAR(LX4),AXTC00                                       05985021
 0006F0 4120 D1EC      07D84        1071          LA    RW2,OPCOD-NX1                                            05992021
 0006F4 4130 0007      00007        1072          LA    RW3,DX7                                                  05999021
 0006F8 9120 D1E9      07D81        1073          TM    GBIT2,AXSTORE                                            06006021
 0006FC 4780 B986      017FE        1074          BZ    GNOPT6              MAKE BOUNDARY ALLIGNMENT             06013021
 000700 45E0 7376      00376        1075          BAL   XRSUB,PUTA          WRITE A-TEXT                         06020021
 000704 47F0 7662      00662        1076          B     AXT009              MAKE ALLIGNMENT                      06027021
                                    1077 *                                                                       06034021
                                    1078 *                                                                       06041021
 000708 4123 2001      00001        1079 AXT008   LA    RW2,DX1(RW3,RW2)                                         06048021
 00070C D203 2000 D344 00000 07EDC  1080          MVC   DX0(LX4,RW2),AXTC00                                      06055021
 000712 47F0 76D0      006D0        1081          B     AXT011              WRITE BOUNDARY ALLIGNMENT A-TXT      06062021
                                    1082 *    FOR  STM   AND  LM  COMPUTE  LENGTH OF TS2  NEEDED.                06069021
                                    1083 *                                                                       06076021
                                    1084 *                                                                       06083021
 000716 9610 D1E9      07D81        1085 AXT012   OI    GBIT2,AXSTMLM                                            06090021
 00071A 4320 D1EE      07D86        1086          IC    RW2,GABS              GET  REGISTERS NUMBER  IN RW2      06097021
 00071E 8C20 0004      00004        1087          SRDL  RW2,DX4                RW3                               06104021
 000722 8830 001C      0001C        1088          SRL   RW3,DX28                                                 06111021
 000726 1932                        1089          CR    RW3,RW2                                                  06118021
 000728 4740 774C      0074C        1090          BL    AXT013              IF REG 2 GREATER THAN 1 BRANCH       06125021
 00072C 1B32                        1091          SR    RW3,RW2                                                  06132021
 00072E 4133 0001      00001        1092          LA    RW3,DX1(RW3)                                             06139021
 000732 4C30 C3D6      07206        1093 AXT015   MH    RW3,XC004                                                06146021
 000736 4930 A1DE      001DE        1094          CH    RW3,TS3MAX                                               06153021
 00073A 47D0 7742      00742        1095          BNH   AXT014              R3 NOT HIGH, DONT NEED MORE TS       06160021
 00073E 4030 A1DE      001DE        1096          STH   RW3,TS3MAX                                               06167021
 000742 0630                        1097 AXT014   BCTR  RW3,RW0             SUBTRACT 1 FROM REG 3                06174021
 000744 4030 D1A0      07D38        1098          STH   RW3,XL2                                                  06181021
 000748 47F0 7644      00644        1099          B     AXT018              PROCESS FOR BOUNDARY ALLIGNMENT      06188021
                                    1100 *                                                                       06195021
 00074C 4800 C6CC      074FC        1101 AXT013   LH    RW0,XC015             IN CASE R2 IS GREATER  THAN R1     06202021
 000750 1B02                        1102          SR    RW0,RW2                                                  06209021
 000752 4A00 C3CE      071FE        1103          AH    RW0,XC002                                                06216021
 000756 1A30                        1104          AR    RW3,RW0                                                  06223021
 000758 47F0 7732      00732        1105          B     AXT015              SEE IF MORE TS3 NEEDED               06230021
 00075C                             1106 AXT020   DS    0H                                                 4771  06237021
 00075C 4920 C3D6      07206        1107          CH    RW2,XC004               IS IT RX                   4771  06244021
 000760 4770 7620      00620        1108          BNE   AXT010              NO NOT RX TYPE                 4771  06251021
 000764 4930 C6C0      074F0        1109          CH    RW3,XC008           AH, CH, LH, MH, AND SH         4771  06258021
 000768 4740 7620      00620        1110          BL    AXT010              INSTRUCTIONS                   4771  06265021
 00076C 4930 C6C8      074F8        1111          CH    RW3,XC012           SHOULD ALL HAVE ONLY           4771  06272021
 000770 4720 7620      00620        1112          BH    AXT010              A LENGTH OF 2 GENERATED FOR MVC4771  06279021
 000774 9601 D1E9      07D81        1113          OI    GBIT2,XX01          SO SET GBIT2 IF IT IS A        4771  06286021
 000778 47F0 7620      00620        1114          B     AXT010              HALF-WORD INSTRUCTION          4771  06293021
1         IKFCBL51: C O M M O N  S U B R O U T I N E S                                                          PAGE   28
-  LOC  OBJECT CODE    ADDR1 ADDR2  STMT   SOURCE STATEMENT                                       ASM 0201 11.03 02/14/15
0                                   1116 *      FIXED SUBROUTINES ENTRY POINTS                                   06307021
                                    1117 *=1  FIXED ENTRY POINT SUBROUTINE FOR NON ARITHMETIC VERB (BILL)        06314021
                             0077C  1118 DIDNIN EQU     *                                                        06321021
 00077C 50F0 C588      073B8        1119        ST    XRVAR,SVWJH1           DIDNIN                              06328021
 000780 58F0 C77C      075AC        1120        L       HCOMSR,ADCON1                                            06335021
 000784 07FF                        1121        BCR     UNCOND,HCOMSR       GENERATE DN INFO FOR EACH DNM        06342021
                             00786  1122 DIINFO EQU     *                                                        06349021
 000786 50F0 C58C      073BC        1123        ST    XRVAR,SVWJH2           DIINFO                              06356021
 00078A 58F0 C780      075B0        1124        L       HCOMSR,ADCON2                                            06363021
 00078E 07FF                        1125        BCR     UNCOND,HCOMSR       BUILD DATA INFO DN PT BY R2          06370021
                             00790  1126 DITYPE EQU     *                                                        06377021
 000790 50F0 C590      073C0        1127        ST    XRVAR,SVWJH3           DITYPE                              06384021
 000794 58F0 C784      075B4        1128        L       HCOMSR,ADCON3                                            06391021
 000798 07FF                        1129        BCR     UNCOND,HCOMSR       BUILD DC TYPE FOR DNM                06398021
                             0079A  1130 DILGTH EQU     *                                                        06405021
 00079A 50F0 C594      073C4        1131        ST    XRVAR,SVWJH4           DILGTH                              06412021
 00079E 58F0 C788      075B8        1132        L       HCOMSR,ADCON4                                            06419021
 0007A2 07FF                        1133        BCR     UNCOND,HCOMSR       BUILDS LENGTH OF DCS                 06426021
                             007A4  1134 DIBDIS EQU     *                                                        06433021
 0007A4 50F0 C598      073C8        1135        ST    XRVAR,SVWJH5           DIBDIS                              06440021
 0007A8 58F0 C78C      075BC        1136        L       HCOMSR,ADCON5                                            06447021
 0007AC 07FF                        1137        BCR     UNCOND,HCOMSR       GEN TGT POINTER AND DISP ADCONS      06454021
                             007AE  1138 DICOA1 EQU     *                                                        06461021
 0007AE 50F0 C59C      073CC        1139        ST    XRVAR,SVWJH6           DICOA1                              06468021
 0007B2 58F0 C790      075C0        1140        L       HCOMSR,ADCON6                                            06475021
 0007B6 07FF                        1141        BCR     UNCOND,HCOMSR       GET GN FOR GND,PROD BITS,PCS CD      06482021
                             007B8  1142 DICNOP EQU     *                                                        06489021
 0007B8 50F0 C5A0      073D0        1143        ST    XRVAR,SVWJH7           DICNOP                              06496021
 0007BC 58F0 C794      075C4        1144        L       HCOMSR,ADCON7                                            06503021
 0007C0 07FF                        1145        BCR     UNCOND,HCOMSR       GENERATE CNOP                        06510021
                             007C2  1146 CLSQDP   EQU   *                                                        06517021
 0007C2 90EF C648      07478        1147          STM   RETRG,XRVAR,SVWJHS                                       06524021
 0007C6 58F0 C7C8      075F8        1148          L     HCOMSR,ADCONP                                            06531021
 0007CA 07FF                        1149          BCR   UNCOND,HCOMSR       HANDLE 21,30,31 ELEMNT               06538021
                                    1150 * GENERATES BALR'S                                                      06545021
                             007CC  1151 DIBALR EQU     *                                                        06552021
 0007CC 4130 C74C      0757C        1152        LA    RW3,DIA1C1            =A(DISPRT-VIRT-TEXT)                 06559021
 0007D0 9201 D198      07D30        1153 VBALR1   MVI   XREG1,XX01           VBALR1 USES DIBALQ, RW3 SET         06566021
                             007D4  1154 VBALR0 EQU   *                     VBALR0 USES DIBALQ, RW3 SET          06573021
 0007D4 50F0 C5A4      073D4        1155        ST    XRVAR,SVWJH8           DIBALR                              06580021
 0007D8 58F0 C798      075C8        1156        L       HCOMSR,ADCON8                                            06587021
 0007DC 07FF                        1157        BCR     UNCOND,HCOMSR       GENERATE BALR A-TEXT                 06594021
                             007DE  1158 VBALRE EQU   *                     VBALRE LOOKS LIKE DIBALR             06601021
 0007DE 920E D198      07D30        1159          MVI   XREG1,XX0E             EXCEP USES 14 RATHER THAN 1       06608021
 0007E2 47F0 77D4      007D4        1160        BC    UNCOND,VBALR0         TO COMMON CODING                     06615021
                             007E6  1161 DICOA8 EQU     *                                                        06622021
 0007E6 50F0 C5A8      073D8        1162        ST    XRVAR,SVWJH9           DICOA8                              06629021
 0007EA 58F0 C79C      075CC        1163        L       HCOMSR,ADCON9                                            06636021
 0007EE 07FF                        1164        BCR     UNCOND,HCOMSR       WRITE GN DEF                         06643021
                             007F0  1165 CALCLG EQU     *                                                        06650021
 0007F0 50F0 C5AC      073DC        1166        ST    XRVAR,SVWJHA           CALCLG                              06657021
 0007F4 58F0 C7A0      075D0        1167        L       HCOMSR,ADCONA                                            06664021
 0007F8 07FF                        1168        BCR     UNCOND,HCOMSR       CALC LEN OF CURRENT DOP              06671021
                             007FA  1169 GETDOP EQU     *                                                        06678021
 0007FA 50F0 C5B0      073E0        1170        ST    XRVAR,SVWJHB           GETDOP                              06685021
1         IKFCBL51: C O M M O N  S U B R O U T I N E S                                                          PAGE   29
-  LOC  OBJECT CODE    ADDR1 ADDR2  STMT   SOURCE STATEMENT                                       ASM 0201 11.03 02/14/15
00007FE 58F0 C7AC      075DC        1171        L       HCOMSR,ADCONG                                            06692021
 000802 07FF                        1172        BCR     UNCOND,HCOMSR       GET NEXT DOP                         06699021
                             00804  1173 NXTSTR EQU   *                     NXTSTQ IS WITHIN GETDOP ROUTINE      06706021
 000804 5820 C7B8      075E8        1174        L     RW2,ADCONK               15 ALREADY SAVED IN SVWJHB        06713021
 000808 07F2                        1175        BCR   UNCOND,RW2              GO TO NXTSTQ                       06720021
                             0080A  1176 GETSW  EQU     *                                                        06727021
 00080A 50F0 C5B4      073E4        1177        ST    XRVAR,SVWJHC           GETSW                               06734021
 00080E 58F0 C7B0      075E0        1178        L       HCOMSR,ADCONH                                            06741021
 000812 07FF                        1179        BCR     UNCOND,HCOMSR       GET A SWITCH                         06748021
                             00814  1180 DDISPM EQU   *                                                          06755021
 000814 50F0 C5B8      073E8        1181        ST    HCOMSR,SVWJHD    NOTE ... SVWJHD USED BY DRELAD SR ALS     06762021
 000818 58F0 C7C4      075F4        1182        L     HCOMSR,ADCONN                                              06769021
 00081C 07FF                        1183        BCR   UNCOND,HCOMSR         ISOLATE DISPLACEMENT IN GMACDC       06776021
                             0081E  1184 DRELAD EQU   *                                                          06783021
 00081E 50F0 C5B8      073E8        1185        ST    HCOMSR,SVWJHD    NOTE ... SVWJHD USED BY DDISPM SR ALS     06790021
 000822 58F0 C7B4      075E4        1186        L       HCOMSR,ADCONI                                            06797021
 000826 07FF                        1187        BCR     UNCOND,HCOMSR       SET UP RELAD1 FOR BL REFS            06804021
                             00828  1188 ADETER EQU   *                                                          06811021
 000828 9101 D625      081BD        1189        TM    QRTNSW,MSWON          Q-ROUTINES PRECEEDING...             06818021
 00082C 071E                        1190          BCR   ONES,RETRG          YES, DO NOT GEN A GOBACK             06825021
 00082E 50F0 C5C4      073F4        1191        ST    XRVAR,SVWJHH             ADETEQ                            06832021
 000832 58F0 C7C0      075F0        1192        L     HCOMSR,ADCONM                                              06839021
 000836 07FF                        1193        BCR   UNCOND,HCOMSR         BRANCH TO GENERATE GO BACK           06846021
 000838 5010 C5F4      07424        1194 DBLREF ST    RW1,SVWJHM   SET UP BLREF1 WITH CURRENT ITEM'S 0IKK        06853021
 00083C 1B11                        1195        SR    RW1,RW1                                                    06860021
 00083E 4312 0004      00004        1196          IC    RW1,DX4(RW2)                                             06867021
 000842 8910 0004      00004        1197          SLL   RW1,DX4              0I                                  06874021
 000846 4312 0006      00006        1198          IC    RW1,DX6(RW2)           KK                                06881021
 00084A 4010 D196      07D2E        1199        STH   RW1,BLREF1                                                 06888021
 00084E 5810 C5F4      07424        1200        L     RW1,SVWJHM                                                 06895021
 000852 07FE                        1201        BCR   UNCOND,RETRG          RETURN TO CALLER                     06902021
 000854 920E D198      07D30        1202 VBADCE   MVI   XREG1,XX0E                                               06909021
 000858 47F0 7860      00860        1203        BC    UNCOND,VBADC0         GEN BAL USING REG 14                 06916021
 00085C 9201 D198      07D30        1204 VDADC1   MVI   XREG1,XX01                                               06923021
 000860 5030 C5EC      0741C        1205 VBADC0 ST    RW3,SVWJHL                                                 06930021
 000864 50E0 C5F0      07420        1206          ST    RETRG,SVWJHL+NX4                                         06937021
 000868 183E                        1207        LR    RW3,RETRG                                                  06944021
 00086A 45E0 77D4      007D4        1208        BAL   RETRG,VBALR0          BRANCH TO GENERATE BALR              06951021
 00086E 5830 C5EC      0741C        1209        L     RW3,SVWJHL                                                 06958021
 000872 58E0 C5F0      07420        1210          L     RETRG,SVWJHL+NX4                                         06965021
 000876 47FE 0004      00004        1211          BC    UNCON,DX4(XRSUB)   RETURN TO CALLER                      06972021
0
 00087A                             1213 SRRXSA   DS    0H                                                 42646 06986021
                                    1214 *                                                                 42646 06993021
                                    1215 * ROUTINE ALLOCATES XSA CELLS FOR SORT                            42646 07000021
                                    1216 *                                                                 42646 07007021
 00087A 50F0 D53C      080D4        1217          ST    HCOMSR,IOSAVE02     SAVE REGISTER 15               42646 07014021
 00087E 58F0 D544      080DC        1218          L     HCOMSR,IOADCN01     LOAD ADDRESS OF SORTXSA        42646 07021021
 000882 07FF                        1219          BR    HCOMSR                AND BRANCH                   42646 07028021
0
 000884 9180 2003      00003        1221 IOQRTN   TM    DX3(RW2),XX80        ANY Q-ROUTINES REQUIRED...          07042021
 000888 078E                        1222        BCR   ZERO,RETRG             NO, LEAVE AT ONCE                   07049021
 00088A 90E5 C628      07458        1223          STM   RETRG,RW5,SVWJHR        STORE REGS                       07056021
1         IKFCBL51: C O M M O N  S U B R O U T I N E S                                                          PAGE   30
-  LOC  OBJECT CODE    ADDR1 ADDR2  STMT   SOURCE STATEMENT                                       ASM 0201 11.03 02/14/15
000088E 1B33                        1224          SR    RW3,RW3                 R3=0                             07063021
 000890 4332 0001      00001        1225          IC    RW3,DX1(RW2)             PICK UP BYTE COUNT OF DOP       07070021
 000894 1A32                        1226          AR    RW3,RW2                 ADD ADDRESS OF DOP               07077021
 000896 4B30 C3D6      07206        1227          SH    RW3,XC004               BACK UP OVER DICT PTR            07084021
 00089A 9521 D0B6      07C4E        1228          CLI   GANLNO,XX21               IS IT  OPEN                    07091021
 00089E 4770 78A6      008A6        1229          BNE   IOQRTN02                NO                               07098021
 0008A2 4B30 C6C4      074F4        1230          SH    RW3,XC010               BACKUP OVER LABEL & ERROR PN'S   07105021
 0008A6                             1231 IOQRTN02 DS    0H                                                       07112021
 0008A6 D501 3001 C6A8 00001 074D8  1232          CLC   DX1(LX2,RW3),XC000        IS GN FOR ODO ZERO             07119021
 0008AC 4770 78B6      008B6        1233          BNE   IOQRTN01                NO, THERE IS A VALID NUMBER      07126021
 0008B0 98E5 C628      07458        1234          LM    RETRG,RW5,SVWJHR        RESTORE REGS                     07133021
 0008B4 07FE                        1235          BR    RETRG                   RETURN                           07140021
 0008B6                             1236 IOQRTN01 DS    0H                                                       07147021
 0008B6 58F0 C7A4      075D4        1237        L     XRVAR,ADCONB                                               07154021
 0008BA 07FF                        1238        BCR   UNCOND,XRVAR          BRANCH TO IOQRTQ                     07161021
                             008BC  1239 IOSTBL EQU   *                GENERATE ST 1,BL FOR ALL BL'S             07168021
                                    1240 *                              ASSOCIATED WITH FN POINTED TO BY RW2     07175021
                                    1241 *                                                                       07182021
 0008BC 90EF C400      07230        1242        STM   RETRG,XRVAR,SVWJHE     *** USES SAME SAVE CELLS AS IOQ     07189021
 0008C0 58F0 C7A8      075D8        1243        L     XRVAR,ADCONC                                               07196021
 0008C4 07FF                        1244        BCR   UNCOND,XRVAR          BRANCH TO IOSTBQ                     07203021
                                    1245 *                                                                       07210021
                                    1246 *      DIRECT A-TEXT GENERATION S.R. GATXTV FOR STRINGS PERMITTING      07217021
                                    1247 *            CHANGES BY ANALYZERS, GATXTC FOR OTHERS. SEE WRITE-UP      07224021
                                    1248 *            AND CALLING SEQ'S WITH CONSTANTS AT LOC... ATXTBV          07231021
 0008C6 90E3 C670      074A0        1249 GATXTC STM   RETRG,RW3,SVGATX                                           07238021
 0008CA 4120 C8D4      07704        1250        LA    RW2,ATXTBC                                                 07245021
 0008CE 47F0 78DA      008DA        1251        BC    UNCOND,GATX01         BRANCH AROUND ENTRY POINT            07252021
 0008D2 90E3 C670      074A0        1252 GATXTV STM   RETRG,RW3,SVGATX                                           07259021
 0008D6 4120 D62C      081C4        1253        LA    RW2,ATXTBV                                                 07266021
 0008DA 4A2E 0000      00000        1254 GATX01   AH    RW2,DX0(RETRG)                                           07273021
 0008DE 483E 0002      00002        1255          LH    RW3,DX2(RETRG)                                           07280021
 0008E2 45E0 7376      00376        1256        BAL   RETRG,GOPT3C          PUTS A-TEXT ON FILE                  07287021
 0008E6 98E3 C670      074A0        1257        LM    RETRG,RW3,SVGATX                                           07294021
 0008EA 47FE 0004      00004        1258          BC    UNCOND,DX4(RETRG)    *** LEAVE GENTRY ***                07301021
                                    1259 *                                                                       07308021
                                    1260 *                     THIS ROUTINE CAUSES ANY SUBSCRIPT CALCULATION     07315021
                                    1261 *                                  THAT RESIDE IN OBJECT REGISTERS      07322021
                                    1262 *                                  BE STORED INTO AN OBJECT-TIME TA     07329021
                                    1263 *      CVNLIT     CONVERT NUM LITS FOR DISPLAY, EXHIBIT, ETC.           07336021
                                    1264 *                                                                       07343021
                                    1265 *                                                                       07350021
 0008EE 9015 C400      07230        1266 CVNLIT STM   RW1,RW5,SVWJHE                                             07357021
 0008F2 92F0 2014      00014        1267          MVI   DX20(RW2),XC0        FILL CHAR = 0                       07364021
 0008F6 9220 2015      00015        1268          MVI   DX21(RW2),XX20       DIG SELECT TO REST OF FIELD         07371021
 0008FA D212 2016 2015 00016 00015  1269          MVC   DX22(LX19,RW2),DX21(RW2)                                 07378021
 000900 1B11                        1270        SR      RW1,RW1                                                  07385021
 000902 1B33                        1271        SR      RW3,RW3                                                  07392021
 000904 4312 0001      00001        1272          IC    RW1,DX1(RW2)         (I + D + S + 1)/2 + 2               07399021
                                    1273 *      I = NUM OF INTEGERS, D = NUM OF DEC PL'S, S = 0 OR 1 SLACK       07406021
                                    1274 *                 SO THAT THE SUM I + D + S IS ODD                      07413021
 000908 8910 0001      00001        1275          SLL   RW1,DX1              I + D + S + 5                       07420021
 00090C 4B10 C6BA      074EA        1276        SH    RW1,XC005             I + D + S                            07427021
 000910 1841                        1277        LR    RW4,RW1               SAVE IN RW1 FOR LATER, USE RW4 N     07434021
 000912 4332 0003      00003        1278          IC    RW3,DX3(RW2)         D                                   07441021
1         IKFCBL51: C O M M O N  S U B R O U T I N E S                                                          PAGE   31
-  LOC  OBJECT CODE    ADDR1 ADDR2  STMT   SOURCE STATEMENT                                       ASM 0201 11.03 02/14/15
0000916 1B13                        1279        SR    RW1,RW3               I + S               S = 0 OR 1       07448021
 000918 1B55                        1280        SR    RW5,RW5                                                    07455021
 00091A 4352 0002      00002        1281          IC    RW5,DX2(RW2)         I                                   07462021
 00091E 1B51                        1282        SR    RW5,RW1               -S     ( = 0 OR = -1)                07469021
 000920 1A12                        1283        AR      RW1,RW2             I + START OF FIELD - 21              07476021
 000922 9222 1015      00015        1284          MVI   DX21(RW1),XX22       FIELD SEPERATOR                     07483021
 000926 9221 1016      00016        1285          MVI   DX22(RW1),XX21       RESTART SIG                         07490021
 00092A 1233                        1286        LTR   RW3,RW3                                                    07497021
 00092C 4780 7934      00934        1287          BC    R8,CVNL02            UP COUNT FOR DEC PT ONLY IF NONI    07504021
 000930 4144 0001      00001        1288          LA    RW4,DX1(RW4)         I + D + S + 1 = SIZE, EDIT PATTE    07511021
 000934 4440 7982      00982        1289 CVNL02 EX    RW4,CVNLM1            ED   20(1,RW2),4(RW2)                07518021
 000938 9260 2014      00014        1290          MVI   DX20(RW2),XX60       ASSUME MINUS SIGN                   07525021
 00093C 4740 7944      00944        1291          BL    CVNL03         EDIT COND CODE TEST -- OUT IF LT          07532021
 000940 924E 2014      00014        1292          MVI   DX20(RW2),XX4E                                           07539021
 000944 1255                        1293 CVNL03 LTR   RW5,RW5               IS THERE A SLACK ZERO...             07546021
 000946 4780 7954      00954        1294          BC    R8,CVNL01             NO                                 07553021
 00094A D217 2015 2016 00015 00016  1295          MVC   DX21(DX24,RW2),DX22(RW2)  YES, SQUEEZE IT OUT            07560021
 000950 0640                        1296        BCTR  RW4,RW0               LEAVE LOOP                           07567021
 000952 0610                        1297        BCTR  RW1,RW0               LEAVE LOOP                           07574021
                             00954  1298 CVNL01 EQU   *                                                          07581021
 000954 D200 1015 A1C5 00015 001C5  1299          MVC   DX21(LX1,RW1),COMMAD+NX1  INSERT DEC PT (OR COMMA)       07588021
 00095A 954E 2014      00014        1300          CLI   DX20(RW2),XX4E                                           07595021
 00095E 4770 796A      0096A        1301        BC    NOTEQ,CVNL04          BRANCH OUT OF LOOP                   07602021
 000962 0640                        1302        BCTR  RW4,RW0               GO THROUGH LOOP AGAIN                07609021
 000964 D217 2014 2015 00014 00015  1303          MVC   DX20(DX24,RW2),DX21(RW2) IF 0 OR POS,ELIM ASS. SIGN      07616021
                             0096A  1304 CVNL04 EQU   *                                                          07623021
 00096A D214 2002 2014 00002 00014  1305          MVC   DX2(DX21,RW2),DX20(RW2)                                  07630021
 000970 4144 0001      00001        1306          LA    RW4,DX1(RW4)                                             07637021
 000974 4242 0001      00001        1307          STC   RW4,DX1(RW2)         SET LENGTH OF AN LIT FORM           07644021
 000978 9234 2000      00000        1308          MVI   DX0(RW2),MANLIT                                          07651021
 00097C 9815 C400      07230        1309        LM    RW1,RW5,SVWJHE                                             07658021
 000980 07FE                        1310        BCR     UNCOND,RETRG        RETURN TO CALLER                     07665021
 000982 DE00 2014 2004 00014 00004  1311 CVNLM1   ED    DX20(LX1,RW2),DX4(RW2)   ** EXECUTED INSTRUCTION**       07672021
                                    1312 * ROUTINES TO RESERVE, FREE AND DESTROY REGS                            07679021
 000988 9228 DA34      085CC        1313 GFRRES   MVI   A48CH2,MRESRV                                            07686021
 00098C 920E DA36      085CE        1314 GFRRE    MVI   A48CH1,XX0E                                              07693021
 000990 50E0 C650      07480        1315 GFRR     ST    RETRG,SVWJHT                                             07700021
 000994 45E0 79D2      009D2        1316          BAL   RETRG,REGMAC        GENERATE MACRO CODING                07707021
 000998 58E0 C650      07480        1317          L     RETRG,SVWJHT                                             07714021
 00099C 07FE                        1318          BCR   UNCOND,RETRG        RETURN TO CALLER                     07721021
 00099E 922C DA34      085CC        1319 GFREE    MVI   A48CH2,MFREE                                             07728021
 0009A2 47F0 798C      0098C        1320          BC    UNCOND,GFRRE        GO TO START MACRO CODING             07735021
 0009A6 9230 DA34      085CC        1321 GDES14   MVI   A48CH2,MDESTR                                            07742021
 0009AA 47F0 798C      0098C        1322          BC    UNCOND,GFRRE        GO TO START MACRO CODING             07749021
 0009AE 9230 DA34      085CC        1323 GDES15   MVI   A48CH2,MDESTR                                            07756021
 0009B2 920F DA36      085CE        1324          MVI   A48CH1,XX0F                                              07763021
 0009B6 47F0 7990      00990        1325          BC    UNCOND,GFRR         GENERATE MACRO CODING                07770021
 0009BA                             1326 GFRRESF  DS    0H                                                 43113 07777021
 0009BA 920F DA36      085CE        1327          MVI   A48CH1,XX0F                                        43113 07784021
 0009BE 9228 DA34      085CC        1328          MVI   A48CH2,MRESRV                                      43113 07791021
 0009C2 47F0 7990      00990        1329          B     GFRR                RESERVE 15                     43113 07798021
 0009C6                             1330 GFREF    DS    0H                                                 43113 07805021
 0009C6 920F DA36      085CE        1331          MVI   A48CH1,XX0F                                        43113 07812021
 0009CA 922C DA34      085CC        1332          MVI   A48CH2,MFREE                                       43113 07819021
 0009CE 47F0 7990      00990        1333          B     GFRR                FREE 15                        43113 07826021
1         IKFCBL51: C O M M O N  S U B R O U T I N E S                                                          PAGE   32
-  LOC  OBJECT CODE    ADDR1 ADDR2  STMT   SOURCE STATEMENT                                       ASM 0201 11.03 02/14/15
00009D2 50E0 C654      07484        1334 REGMAC ST    RETRG,SVWJHU                                               07833021
 0009D6 45E0 78D2      008D2        1335        BAL   RETRG,GATXTV          FREE,                                07840021
 0009DA 0407                        1336        DC    AL2(ATXT48-ATXTBV)        RESERVE,                         07847021
 0009DC 0004                        1337        DC    AL2(ZTXT48-ATXT48)            DESTROY MACRO                07854021
 0009DE 58E0 C654      07484        1338        L     RETRG,SVWJHU                                               07861021
 0009E2 07FE                        1339        BCR   UNCOND,RETRG          RETURN TO CALLER                     07868021
 0009E4                             1340 SETRECFM DS    0H                      INITIALIZE RECMODE FIELD         07875021
 0009E4 9160 2003      00003        1341          TM    DX3(RW2),XX60                                            07882021
 0009E8 4710 7A0A      00A0A        1342          BO    MWSTYP                  SPANNED                          07889021
 0009EC 4780 79FE      009FE        1343          BZ    MWVTYP                  VTYPE RECORDS                    07896021
 0009F0 9140 2003      00003        1344          TM    DX3(RW2),XX40                                            07903021
 0009F4 4710 7A04      00A04        1345          BO    MWUTYP                  U TYPE RECORDS                   07910021
 0009F8 9204 D61E      081B6        1346          MVI   RECMODE,FTYPE                                            07917021
 0009FC 07FE                        1347          BR    RETRG               RETURN TO CALLER                     07924021
 0009FE                             1348 MWVTYP   DS    0H                                                       07931021
 0009FE 9208 D61E      081B6        1349          MVI   RECMODE,VTYPE                                            07938021
 000A02 07FE                        1350          BR    RETRG               RETURN TO CALLER                     07945021
 000A04                             1351 MWUTYP   DS    0H                                                       07952021
 000A04 9202 D61E      081B6        1352          MVI   RECMODE,UTYPE                                            07959021
 000A08 07FE                        1353          BR    RETRG               RETURN TO CALLER                     07966021
 000A0A                             1354 MWSTYP   DS    0H                                                       07973021
 000A0A 9201 D61E      081B6        1355          MVI   RECMODE,STYPE                                            07980021
 000A0E 07FE                        1356          BR    RETRG               RETURN TO CALLER                     07987021
 000A10 50E0 C688      074B8        1357 INVKEY   ST    RETRG,DWB                                                07994021
 000A14 D201 D6F1 DDC9 08289 08961  1358          MVC   IOTXTP1(LX2),DOP2+NX1     GN-INV-KEY                     08001021
 000A1A 45E0 78D2      008D2        1359          BAL   RETRG,GATXTV        * L  4,36(2)                         08008021
 000A1E 00B8                        1360          DC    AL2(IOTXTP-ATXTBV)  *                                    08015021
 000A20 0013                        1361          DC    AL2(IOTXTQ-IOTXTP)  * MVC 25(3,4),GN-INVKEY+1            08022021
 000A22 58E0 C688      074B8        1362          L     RETRG,DWB                                                08029021
 000A26 07FE                        1363          BCR   UNCOND,RETRG        RETURN TO CALLER                     08036021

 000A28                             1365 INVCK    DS    0H                                                 58971 08050021

                                    1367 *                                                                 58971 08064021
                                    1368 * THIS ROUTINE CHECKS IF AN INVALID KEY CLAUSE IS PRESENT, AND IN-58971 08071021
                                    1369 * VALIDATES THE LAST ONE IF NOT.                                  58971 08078021
                                    1370 *                                                                 58971 08085021

 000A28 50E0 7A4C      00A4C        1372          ST    RETRG,INVSAVE       SAVE RETURN ADDRESS            58971 08099021
 000A2C 45E0 7CDE      00CDE        1373          BAL   RETRG,ISINVK        INVALID KEY PRESENT...         58971 08106021
 000A30 4780 7A46      00A46        1374          BE    ENDINVCK            YES, RETURN                    58971 08113021
 000A34 D200 D9F2 DD51 0858A 088E9  1375          MVC   A08CH1(LX1),DOP1+NX5     INSERT DCB NUMBER         58971 08120021
 000A3A 45E0 78D2      008D2        1376          BAL   RETRG,GATXTV             * L    1,DCBADDR          58971 08127021
 000A3E 03C0                        1377          DC    AL2(ATXT08-ATXTBV)       * L    4,36(1)            58971 08134021
 000A40 0013                        1378          DC    AL2(ZTXT08-ATXT08)       * OI   27(4),X'01'        58971 08141021
 000A42 9500 DE44      089DC        1379          CLI   DOP3,XX00           SET RETURN CODE NON-ZERO       58971 08148021
 000A46                             1380 ENDINVCK DS    0H                                                 58971 08155021
 000A46 58E0 7A4C      00A4C        1381          L     RETRG,INVSAVE                                      58971 08162021
 000A4A 07FE                        1382          BR    RETRG               RETURN TO CALLER               58971 08169021
 000A4C                             1383 INVSAVE  DS    1F                  SAVE AREA IN INVKEY ROUTINES   58971 08176021
0
                                    1385 *                                                                       08190021
                                    1386 * THIS ROUTINE GENERATES CALLS TO BISAM READ/WRITE MODULES, AND         08197021
                                    1387 * TO THE BISAM CHECK MODULE FOLLOWING THE I/O OPERATION.                08204021
1         IKFCBL51: C O M M O N  S U B R O U T I N E S                                                          PAGE   33
-  LOC  OBJECT CODE    ADDR1 ADDR2  STMT   SOURCE STATEMENT                                       ASM 0201 11.03 02/14/15
0                                   1388 *                                                                       08211021
0
 000A50                             1390 BISMRDWT DS    0H                                                       08225021
 000A50 50E0 C688      074B8        1391          ST    RETRG,DWB             SAVE RETURN ADDR                   08232021
 000A54 924C D673      0820B        1392          MVI   IOTXIB+NX5,XX4C     CHECK DISPL IS 76                    08239021
 000A58 45E0 78D2      008D2        1393          BAL   RETRG,GATXTV             * GENERATE                01372 08246021
 000A5C 0033                        1394          DC    AL2(IOTXTI-ATXTBV)       *   READ/WRITE CHECK      01372 08253021
 000A5E 0020                        1395          DC    AL2(IOTXTJ-IOTXTI)       *       SEQUENCE          01372 08260021
                                    1396 *                                                                 01372 08267021
 000A60 9101 7A8A      00A8A        1397          TM    ANALSW,MSWON        WRITE...                       P6232 08274021
 000A64 4780 7A78      00A78        1398          BZ    BISMRW01            NO                             P6232 08281021
 000A68 9108 DD56      088EE        1399          TM    DOP1+NX10,XX08      SRA...                         P6232 08288021
 000A6C 4710 7A78      00A78        1400          BO    BISMRW01            YES                            P6232 08295021
 000A70 45E0 78C6      008C6        1401          BAL   RETRG,GATXTC        *                              P6232 08302021
 000A74 0126                        1402          DC    AL2(ATXT84-ATXTBC)  * ST 5,12(3) RESTORE AREA ADR  P6232 08309021
 000A76 0006                        1403          DC    AL2(ZTXT84-ATXT84)  *  FOR WRITE                   P6232 08316021
 000A78                             1404 BISMRW01 DS    0H                                                 P6232 08323021
 000A78 94FE 7A8A      00A8A        1405          NI    ANALSW,MSWOFF       TURN OFF WRITE INDICATION      P6232 08330021
 000A7C 9230 D667      081FF        1406          MVI   IOTXIA+NX5,XX30     RESTORE ORIGINAL                     08337021
 000A80 9234 D673      0820B        1407          MVI   IOTXIB+NX5,XX34          DISPLACEMENTS                   08344021
 000A84 58E0 C688      074B8        1408          L     RETRG,DWB             RESTORE RETURN ADDR                08351021
 000A88 07FE                        1409          BR    RETRG                 RETURN TO CALLER                   08358021
 000A8A 00                          1410 ANALSW   DC    X'00'                                              P6232 08365021
0
 000A8B 00
 000A8C 50E0 C688      074B8        1412 ENDINVKY ST    RETRG,DWB                                                08379021
 000A90 D201 D718 DE45 082B0 089DD  1413          MVC   IOTXTR1(LX2),DOP3+NX1     GN-NEXT-SENTENCE               08386021
 000A96 45E0 78D2      008D2        1414          BAL   RETRG,GATXTV            *  OI  27(4),1                   08393021
 000A9A 00E2                        1415          DC    AL2(IOTXTR-ATXTBV)      *  BC  15,GN-NEXT-SENTENCE       08400021
 000A9C 000F                        1416          DC    AL2(IOTXTS-IOTXTR)  *                                    08407021
 000A9E 58E0 C688      074B8        1417          L     RETRG,DWB                                                08414021
 000AA2 07FE                        1418          BCR   UNCOND,RETRG        RETURN TO CALLER                     08421021
                                    1419 * MOVES FOR I/O                                                         08428021
                                    1420 * THIS R OUTIN E GENERATES CODING FOR READ WITH SAME RECORD AREA        08435021
 000AA4                             1421 READMOVE DS    0H                                                       08442021
 000AA4 90E9 7B9C      00B9C        1422          STM   RETRG,XRVERB,IOMOVSAV   SAVE ALL REGS I/O VERB USES      08449021
 000AA8 4810 DD54      088EC        1423          LH    RW1,DOP1+NX8             MAX RCD LNGTH                   08456021
 000AAC 45E0 7B5A      00B5A        1424          BAL   RETRG,SAVEDOPS          SAVE DOP1 AND DOP2               08463021
 000AB0 D27B DD4C DEC0 088E4 08A58  1425          MVC   DOP1(LDOP),DOP4         SENDING FIELD FOR MOVE           08470021
 000AB6 D27B DDC8 DEC0 08960 08A58  1426          MVC   DOP2(LDOP),DOP4         RECEIVING FIELD FOR MOVE         08477021
 000ABC D202 DD50 7BD0 088E8 00BD0  1427          MVC   DOP1+NX4(LX3),DUMMYIDK   DUMMY UP SENDING FIELD          08484021
 000AC2 94FC DD53      088EB        1428          NI    DOP1+NX7,XXFC            AND OFF QRTN BIT                08491021
 000AC6 940F DD4F      088E7        1429          NI    DOP1+NX3,XX0F            ZERO OUT MINOR CODE             08498021
 000ACA 9610 DD4F      088E7        1430          OI    DOP1+NX3,XX10             INSERT MINOR CODE OF FL GROUP  08505021
 000ACE 4010 DD54      088EC        1431          STH   RW1,DOP1+NX8             MAKE RCD LNGTH = MAX RCD LNGTH  08512021
 000AD2 4120 DD4C      088E4        1432          LA    RW2,DOP1                POINT TO DATANAME                08519021
 000AD6 47F0 7AF8      00AF8        1433          B     ALLIOMOV                BRANCH AROUND TO COMMON CODE     08526021
                                    1434 *  THIS  ROUTI NE GENERATES MOVE CODING FOR (RE)WRITE WITH SAME RECORD  08533021
                                    1435 *  AREA  OR AD VANCING                                                  08540021
 000ADA                             1436 WRITMOVE DS    0H                                                       08547021
 000ADA 90E9 7B9C      00B9C        1437          STM   RETRG,XRVERB,IOMOVSAV   SAVE ALL REGS I/O VERB USES      08554021
 000ADE 45E0 7B5A      00B5A        1438          BAL   RETRG,SAVEDOPS          SAVE DOP1 AND DOP2               08561021
 000AE2 D27B DD4C DF3C 088E4 08AD4  1439          MVC   DOP1(LDOP),DOP5         SENDING FIELD FOR MOVE           08568021
1         IKFCBL51: C O M M O N  S U B R O U T I N E S                                                          PAGE   34
-  LOC  OBJECT CODE    ADDR1 ADDR2  STMT   SOURCE STATEMENT                                       ASM 0201 11.03 02/14/15
0000AE8 D27B DDC8 DF3C 08960 08AD4  1440          MVC   DOP2(LDOP),DOP5         RECEIVING FIELD FOR MOVE         08575021
 000AEE D202 DDCC 7BD0 08964 00BD0  1441          MVC   DOP2+NX4(LX3),DUMMYIDK   DUMMY UP RECEIVING FIELD        08582021
 000AF4 4120 DDC8      08960        1442          LA    RW2,DOP2                                                 08589021
 000AF8                             1443 ALLIOMOV DS    0H                                                       08596021
 000AF8 D200 7BD3 DD52 00BD3 088EA  1444          MVC   RDMVBLSV(LX1),DOP1+NX6   INSERT BL NUMBER          58932 08603021
 000AFE 45E0 77F0      007F0        1445          BAL   RETRG,CALCLG        GET LNGTH OR VLC NO                  08610021
 000B02 47F0 7B06      00B06        1446          B     IOMOV4                    NOT DIFFERENT                  08617021
 000B06 9180 D550      080E8        1447 IOMOV4   TM    LENGTH,XX80               VLC NO                         08624021
 000B0A 4710 7B26      00B26        1448          BO    IOMOV3                  YES                              08631021
 000B0E D501 D552 C3D2 080EA 07202  1449          CLC   LENGTH+NX2(LX2),HW4096    IS LNGTH GT 4096               08638021
 000B14 4720 7B26      00B26        1450          BH    IOMOV3              YES                            58932 08645021
 000B18 D300 D338 DDCB 07ED0 08963  1451          MVZ   GTEMP(LX1),DOP2+NX3      ISOLATE RCVNG FIELD MINOR 58932 08652021
 000B1E 9540 D338      07ED0        1452          CLI   GTEMP,XX40          VARIABLE LENGTH GROUP...       58932 08659021
 000B22 4770 7B32      00B32        1453          BNE   IOMOV1              NO                             58932 08666021
 000B26                             1454 IOMOV3   DS    0H                                                       08673021
 000B26 45E0 7B68      00B68        1455          BAL   RETRG,INRIOMOV          INIT BLREF1, CHNG IDK TO BLL     08680021
 000B2A 9201 D198      07D30        1456          MVI   XREG1,XX01                                               08687021
 000B2E 45E0 B040      00EB8        1457          BAL   RETRG,STORE         * ST  1,BLL NO                       08694021
 000B32                             1458 IOMOV1   DS    0H                                                       08701021
 000B32 9601 7BCC      00BCC        1459          OI    IOMOVESW,MSWON          TURN ON SW FOR IOMOVE            08708021
 000B36 921D D0B6      07C4E        1460          MVI   GANLNO,XX1D              MOVE VERB CODE                  08715021
 000B3A 5890 C71C      0754C        1461          L     XRVERB,XALAMA            ADDRESS OF MOVE ROUTINE         08722021
 000B3E 07F9                        1462          BR    XRVERB              BRANCH TO MOVE ROUTINE               08729021
                                    1463 *  CONTR OL RE TURNS HERE FROM MOVE ROUTINE                             08736021
 000B40                             1464 IORETURN DS    0H                                                       08743021
 000B40 98E9 7B9C      00B9C        1465          LM    RETRG,XRVERB,IOMOVSAV   RESTORE REGISTERS                08750021
 000B44 94FE 7BCC      00BCC        1466          NI    IOMOVESW,MSWOFF         TURN OFF IOMOVE SWITCH           08757021
 000B48 94FB 7BD4      00BD4        1467          NI    NREADSW,X'FF'-BLLUSED   SWITCH OFF                 58932 08764021
 000B4C D231 DD4C DE4A 088E4 089E2  1468          MVC   DOP1(LX50),DOP3+NX6       RESTORE DOP1                   08771021
 000B52 D202 DDC8 DE47 08960 089DF  1469          MVC   DOP2(LX3),DOP3+NX3        RESTORE DOP2                   08778021
 000B58 07FE                        1470          BR    RETRG               RETURN TO CALLER                     08785021
                                    1471 *  THIS  ROUTI NE SAVES DOP1 AND DOP2 IN THE UNUSED PART OF DOP3        08792021
 000B5A                             1472 SAVEDOPS DS    0H                                                       08799021
 000B5A D202 DE47 DDC8 089DF 08960  1473          MVC   DOP3+NX3(LX3),DOP2        SAVE DOP2                      08806021
 000B60 D231 DE4A DD4C 089E2 088E4  1474          MVC   DOP3+NX6(LX50),DOP1       SAVE DOP1                      08813021
 000B66 07FE                        1475          BR    RETRG                   RETURN                           08820021
 000B68                             1476 INRIOMOV DS    0H                                                       08827021
 000B68 4830 7BCE      00BCE        1477          LH    RW3,IOBLLCON            LOAD BLL SAVED                   08834021
 000B6C 1233                        1478          LTR   RW3,RW3             IS IT GT ZERO                        08841021
 000B6E 4720 7B82      00B82        1479          BH    INRMV1                  YES, NOT FIRST TIME THROUGH      08848021
 000B72 4830 A17E      0017E        1480          LH    RW3,BLLCTR          GET LAST USED BLL NO                 08855021
 000B76 4133 0001      00001        1481          LA    RW3,DX1(RW3)             INCREMENT BY 1                  08862021
 000B7A 4030 A17E      0017E        1482          STH   RW3,BLLCTR              RESTORE                          08869021
 000B7E 4030 7BCE      00BCE        1483          STH   RW3,IOBLLCON        SAVE BLL NO IN IDK FIELD             08876021
 000B82                             1484 INRMV1   DS    0H                                                       08883021
 000B82 4030 D196      07D2E        1485          STH   RW3,BLREF1              INIT ATXT ELEMENT                08890021
 000B86 9604 7BD4      00BD4        1486          OI    NREADSW,BLLUSED     INDICATE BLL USED              58932 08897021
 000B8A 4230 7BD3      00BD3        1487          STC   RW3,RDMVBLSV        SAVE BLL NUMBER                58932 08904021
 000B8E 9601 D196      07D2E        1488          OI    BLREF1,XX01              MAKE IT BLL                     08911021
 000B92 D202 2004 7BCD 00004 00BCD  1489          MVC   DX4(LX3,RW2),BLLIDK       INIT DESIRED IDK IN DOP        08918021
 000B98 07FE                        1490          BR    RETRG               RETURN TO CALLER                     08925021
 000B9C                             1491 IOMOVSAV DS    12F                     SAVE AREA FOR IOMOVE ROUTINES    08932021
 000BCC 00                          1492 IOMOVESW DC    X'00'                  SW TELLS MOVE TO COME BACK HERE   08939021
 000BCD 10                          1493 BLLIDK   DC    X'10'                   INDICATES BLL                    08946021
 000BCE 0000                        1494 IOBLLCON DC    H'0'                    BLL NUMBER                       08953021
1         IKFCBL51: C O M M O N  S U B R O U T I N E S                                                          PAGE   35
-  LOC  OBJECT CODE    ADDR1 ADDR2  STMT   SOURCE STATEMENT                                       ASM 0201 11.03 02/14/15
0000BD0 300100                      1495 DUMMYIDK DC    X'300100'               DUMMY IDK POINTS TO REGISTER 1   08960021
 000BD3 00                          1496 RDMVBLSV DC    XL1'00'             SAVE BL OR BLL NUMBER          58932 08967021
 000BD4 00                          1497 NREADSW  DC    X'00'               READ OPTION SWITCH             58932 08974021
                             00001  1498 READVSON EQU   X'01'               V/S MODE READ                  58932 08981021
                             00002  1499 SCNDSRA  EQU   X'02'               SECOND SRA MOVE                58932 08988021
                             00004  1500 BLLUSED  EQU   X'04'               BLL USED, RATHER THAN BL       58932 08995021
 000BD6                             1501          DS    0H                                                       09002021
                                    1502 * BSAM...    THIS SR GENERATES                                          09009021
                                    1503 *      CALLING SEQUENCES FOR                                            09016021
                                    1504 *     'BSAMRT', BSAM WRITE AND CLOSE OTSR.                              09023021
 000BD6                             1505 IOBS07   DS    0H                      (OPEN ENTRY)                     09030021
 000BD6 9202 D339      07ED1        1506          MVI   GTEMP+NX1,XX02                                           09037021
 000BDA 47F0 7BF2      00BF2        1507          B     IOBS3X              BRANCH TO PROCESSING CODING          09044021
 000BDE                             1508 IOBS02   DS    0H                      (CLOSE ENTRY)                    09051021
 000BDE 9201 D339      07ED1        1509          MVI   GTEMP+NX1,XX01                                           09058021
 000BE2 47F0 7BF2      00BF2        1510        BC    UNCOND,IOBS3X         BRANCH TO PROCESSING CODING          09065021
 000BE6                             1511 IOBS08   DS    0H                      (CLOSE REEL ENTRY)               09072021
 000BE6 9208 D339      07ED1        1512          MVI   GTEMP+NX1,XX08                                           09079021
 000BEA 47F0 7BF2      00BF2        1513          B     IOBS3X              BRANCH TO PROCESSING CODING          09086021
 000BEE                             1514 IOBS01   DS    0H                      (WRITE ENTRY)                    09093021
 000BEE 9204 D339      07ED1        1515          MVI   GTEMP+NX1,XX04                                           09100021
 000BF2                             1516 IOBS3X   DS    0H                                                       09107021
 000BF2 90E3 C400      07230        1517          STM   RETRG,RW3,SVWJHE        SAVE REGS                        09114021
 000BF6 9200 D338      07ED0        1518          MVI   GTEMP,XX00                                               09121021
 000BFA 45E0 7CCC      00CCC        1519        BAL   RETRG,WRKLRG          DESTROY REGISTERS                    09128021
 000BFE 9521 D0B6      07C4E        1520          CLI   GANLNO,XX21         OPEN...                        58971 09135021
 000C02 4780 7C30      00C30        1521          BE    IOBS03              YES                            58971 09142021
 000C06 9522 D0B6      07C4E        1522          CLI   GANLNO,XX22         CLOSE/CLOSE REEL...            58971 09149021
 000C0A 4780 7C30      00C30        1523          BE    IOBS03              YES                            58971 09156021
 000C0E 45E0 7A28      00A28        1524          BAL   RETRG,INVCK         INVALID KEY CODED...           58971 09163021
 000C12 4770 7C30      00C30        1525          BNE   IOBS03                  NO                               09170021
 000C16 9201 D198      07D30        1526          MVI   XREG1,XX01                                               09177021
 000C1A D200 D18A 2005 07D22 00005  1527          MVC   XCNTR1+NX2(LX1),DX5(RW2)                                 09184021
 000C20 45E0 B000      00E78        1528        BAL   RETRG,LOAD            *    L    1,DCBADR                   09191021
 000C24 9210 D6E8      08280        1529          MVI   IOTXTP+NX4,XX10          SET REGISTER TO 1               09198021
 000C28 45E0 7A10      00A10        1530          BAL   RETRG,INVKEY        GENERATE INVALID KEY CODING          09205021
 000C2C 9220 D6E8      08280        1531          MVI   IOTXTP+NX4,XX20          RESET REGISTER TO 2             09212021
 000C30 D200 D18A 2007 07D22 00007  1532 IOBS03   MVC   XCNTR1+NX2(LX1),DX7(RW2)                                 09219021
 000C36 9214 D188      07D20        1533          MVI   XCNTR1,XX14              DECB REFERENCE                  09226021
 000C3A 45E0 B000      00E78        1534        BAL   RETRG,LOAD            *    L    0,DECBADR                  09233021
                                    1535 *                                                                       09240021
 000C3E 9601 D338      07ED0        1536          OI    GTEMP,XX01               ASSUME RELATIVE TRACK           09247021
 000C42 9104 2006      00006        1537          TM    DX6(RW2),XX04            RELATIVE TRACK                  09254021
 000C46 4710 7C4E      00C4E        1538          BO    IOBS3XA                 YES                              09261021
 000C4A 9703 D338      07ED0        1539          XI    GTEMP,XX03               CHANGE TO RELATIVE BLOCK        09268021
                             00C4E  1540 IOBS3XA  EQU   *                                                        09275021
 000C4E 9108 2006      00006        1541          TM    DX6(RW2),XX08            IS A KEY SPECIFIED              09282021
 000C52 47E0 7C70      00C70        1542          BNO   IOBS3Y                  NO                               09289021
 000C56 9604 D338      07ED0        1543          OI    GTEMP,XX04               YES                             09296021
 000C5A 9104 2006      00006        1544          TM    DX6(RW2),XX04            IS IT RELATIVE TRACK            09303021
 000C5E 47E0 7C70      00C70        1545          BNO   IOBS3Y                  NO                               09310021
 000C62 D202 D7CA 200B 08362 0000B  1546          MVC   IOTXTBB1(LX3),DX11(RW2)   KEY IDK                        09317021
 000C68 45E0 78D2      008D2        1547          BAL   RETRG,GATXTV            *LA 1,ACT.KEY                    09324021
 000C6C 019A                        1548          DC    AL2(IOTXTBB-ATXTBV)     X                                09331021
 000C6E 000A                        1549          DC    AL2(IOTXTCC-IOTXTBB)    X                                09338021
1         IKFCBL51: C O M M O N  S U B R O U T I N E S                                                          PAGE   36
-  LOC  OBJECT CODE    ADDR1 ADDR2  STMT   SOURCE STATEMENT                                       ASM 0201 11.03 02/14/15
0                            00C70  1550 IOBS3Y   EQU   *                                                        09345021
 000C70 4130 C75C      0758C        1551        LA    RW3,BSAMVI            = BCD TEXT 'BSAMRT  '                09352021
 000C74 45E0 77DE      007DE        1552        BAL   RETRG,VBALRE          *    L    15,V(BSAMRT)               09359021
                                    1553 *                                      *  BALR  14,15                   09366021
                                    1554 *                                                                       09373021
 000C78 45E0 7CCC      00CCC        1555        BAL   RETRG,WRKLRX         DESTROY 14, 15                        09380021
 000C7C 45E0 79E4      009E4        1556          BAL   RETRG,SETRECFM          INIT RECMODE FIELD               09387021
 000C80 9610 D339      07ED1        1557          OI    GTEMP+NX1,XX10           ASSUME F                        09394021
 000C84 9104 D61E      081B6        1558          TM    RECMODE,FTYPE                                            09401021
 000C88 4710 7CA8      00CA8        1559          BO    IOBS05                  YES                              09408021
 000C8C 9730 D339      07ED1        1560          XI    GTEMP+NX1,XX30           ASSUME V                        09415021
 000C90 9108 D61E      081B6        1561          TM    RECMODE,VTYPE                                            09422021
 000C94 4710 7CA8      00CA8        1562          BO    IOBS05                  YES                              09429021
 000C98 9760 D339      07ED1        1563          XI    GTEMP+NX1,XX60           ASSUME U                        09436021
 000C9C 9102 D61E      081B6        1564          TM    RECMODE,UTYPE                                            09443021
 000CA0 4710 7CA8      00CA8        1565          BO    IOBS05                  YES                              09450021
 000CA4 97C0 D339      07ED1        1566          XI    GTEMP+NX1,XXC0           ASSUME SPANNED                  09457021
 000CA8                             1567 IOBS05   DS    0H                                                       09464021
 000CA8 9102 200A      0000A        1568          TM    DX10(RW2),XX02             ARE USER LABELS USED          09471021
 000CAC 47E0 7CB4      00CB4        1569          BNO   IOBS05A                 NO                               09478021
 000CB0 9608 D338      07ED0        1570          OI    GTEMP,XX08               YES SET ON BIT                  09485021
 000CB4                             1571 IOBS05A  DS    0H                                                       09492021
 000CB4 D201 D171 D338 07D09 07ED0  1572          MVC   GMACDC+NX1(LX2),GTEMP     MOVE CODE TO ATXT FIELD        09499021
 000CBA 9202 D170      07D08        1573          MVI   GMACDC,XX02              LENGTH OF CODE IS 2             09506021
 000CBE 9224 D199      07D31        1574        MVI   GMCTYP,MDC                                                 09513021
 000CC2 45E0 BD28      01BA0        1575        BAL   RETRG,MACRO           *    BC   0,NN       NN = CODE       09520021
 000CC6 98E3 C400      07230        1576          LM    RETRG,RW3,SVWJHE                                         09527021
 000CCA 07FE                        1577        BCR   UNCOND,RETRG          RETURN TO CALLER                     09534021
                             00CCC  1578 WRKLRG EQU   *           KILL SS TBL + DESTROY REG 14, 15.              09541021
 000CCC 50E0 C61C      0744C        1579 WRKLRX   ST    RETRG,SVWJHQ            KILL 14,15 BUT NOT SUB           09548021
                             00CD0  1580 WRKLR1 EQU   *                                                          09555021
 000CD0 45E0 79A6      009A6        1581          BAL   RETRG,GDES14        DESTROY 14                           09562021
 000CD4 45E0 79AE      009AE        1582          BAL   RETRG,GDES15        DESTROY 15                           09569021
 000CD8 58E0 C61C      0744C        1583        L     RETRG,SVWJHQ                                               09576021
 000CDC 07FE                        1584        BCR   UNCOND,RETRG          RETURN TO CALLER                     09583021
 000CDE 95AA DE44      089DC        1585 ISINVK CLI   DOP3,MRGN       TEST IF INV KEY PRESENT                    09590021
 000CE2 077E                        1586        BCR   NOTEQ,RETRG       RETURN WITH CON CODE = 0 IF YES          09597021
 000CE4 D502 DDC8 DE44 08960 089DC  1587          CLC   DOP2(LX3),DOP3                                           09604021
 000CEA 4780 7CF4      00CF4        1588          BC    EQ,ISINVK1               FORCE TO NONZERO IF EQUAL       09611021
 000CEE 95AA DE44      089DC        1589        CLI   DOP3,MRGN       FORCE COND CODE TO 0                       09618021
 000CF2 07FE                        1590          BCR   R15,RETRG                RETURN TO CALLER                09625021
                             00CF4  1591 ISINVK1  EQU   *                                                        09632021
 000CF4 9500 DE44      089DC        1592          CLI   DOP3,XX00      FORCE COND CODE TO NON-ZERO               09639021
 000CF8 07FE                        1593          BCR   R15,RETRG                RETURN TO CALLER                09646021
 000CFA                             1594 INCRKEY  DS    0H                      THIS SUBRTN RETURNS IDK OF       09653021
                                    1595 *                                      SYMBOLIC PART OF ACTUAL KEY      09660021
 000CFA 90EF C628      07458        1596          STM   RETRG,XRVAR,SVWJHR      SAVE REGISTERS                   09667021
 000CFE D202 D338 200B 07ED0 0000B  1597          MVC   GTEMP(LX3),DX11(RW2)     MOVE IDK OF ACT.KEY             09674021
 000D04 940F D338      07ED0        1598          NI    GTEMP,XX0F               AND OUT I FIELD                 09681021
 000D08 48E0 D338      07ED0        1599          LH    RETRG,GTEMP             LOAD D FIELD                     09688021
 000D0C 41EE 0004      00004        1600          LA    RETRG,DX4(RETRG)         ADD 4                           09695021
 000D10 49E0 C3D2      07202        1601          CH    RETRG,HW4096                                             09702021
 000D14 4740 7D2A      00D2A        1602          BL    INCR1               BRANCH AROUND IF GT 4096             09709021
 000D18 4BE0 C3D2      07202        1603          SH    RETRG,HW4096            SUBTRACT 4096                    09716021
 000D1C 1BFF                        1604          SR    XRVAR,XRVAR                                              09723021
1         IKFCBL51: C O M M O N  S U B R O U T I N E S                                                          PAGE   37
-  LOC  OBJECT CODE    ADDR1 ADDR2  STMT   SOURCE STATEMENT                                       ASM 0201 11.03 02/14/15
0000D1E 43F2 000D      0000D        1605          IC    XRVAR,DX13(RW2)          K FIELD(BL NUMBER)              09730021
 000D22 41FF 0001      00001        1606          LA    XRVAR,DX1(XRVAR)         INCREMENT BY 1                  09737021
 000D26 42F0 D33A      07ED2        1607          STC   XRVAR,GTEMP+NX2          RESTORE                         09744021
 000D2A                             1608 INCR1    DS    0H                                                       09751021
 000D2A 40E0 D338      07ED0        1609          STH   RETRG,GTEMP             RESTORE D FIELD                  09758021
 000D2E D300 D338 200B 07ED0 0000B  1610          MVZ   GTEMP(LX1),DX11(RW2)     MOVE I FIELD                    09765021
 000D34 98EF C628      07458        1611          LM    RETRG,XRVAR,SVWJHR      RESTORE REGISTERS                09772021
 000D38 07FE                        1612          BR    RETRG               RETURN TO CALLER                     09779021
                             00D3A  1613 BDAMDW   EQU   *                                                        09786021
 000D3A 50E0 C688      074B8        1614          ST    RETRG,DWB                                                09793021
 000D3E 45E0 7CFA      00CFA        1615          BAL   RETRG,INCRKEY           GET IDK OF ACT.KEY+4             09800021
 000D42 D202 D7D4 D338 0836C 07ED0  1616          MVC   IOTXTCC1(LX3),GTEMP                                      09807021
 000D48 D202 D7E7 DD57 0837F 088EF  1617          MVC   IOTXTCC2(LX3),DOP1+NX11       IDK                        09814021
 000D4E 45E0 78D2      008D2        1618          BAL   RETRG,GATXTV            *  LA  1,ACT-KEY+4               09821021
 000D52 01A4                        1619          DC    AL2(IOTXTCC-ATXTBV)     *  ST  1,20(3)                   09828021
 000D54 001D                        1620          DC    AL2(IOTXTDD-IOTXTCC)    *  MVC  28(4,3),ACT-KEY          09835021
 000D56 58E0 C688      074B8        1621          L     RETRG,DWB                                                09842021
 000D5A 07FE                        1622          BR    RETRG               RETURN TO CALLER                     09849021
                                    1623 *                                                                       09856021
                                    1624 * DIWTOR                                                                09863021
                                    1625 *            GENERATE WTOR AND WAIT EXPANSIONS...                       09870021
                                    1626 *             IF RW2 = 0                      IF RW2 NOT = 0            09877021
                                    1627 *            ---------------------------     ----------------------     09884021
                                    1628 *            MVC    PARAM=5,LIT              (SAME)                     09891021
                                    1629 *            (NONE)                          LA   2,DN                  09898021
                                    1630 *            LA     1,PARAM=1                (SAME)                     09905021
                                    1631 *            XC     0(16,1),0(1)             (SAME)                     09912021
                                    1632 *            ST     1,8(1)                   (SAME)                     09919021
                                    1633 *            LA     1,1(1)                   (SAME)                     09926021
                                    1634 *            ST     1,3(1)                   ST   2,3(1)          (     09933021
                                    1635 *            LA     1,3(1)                   (SAME)                     09940021
                                    1636 *            MVI    0(1),1                   MVI  0(1),LENGTH=DN  (     09947021
                                    1637 *            MVI    9(1),28                  (SAME)                     09954021
                                    1638 *                        MVI 10(1),X'80'         (SAME)                 09961021
                                    1639 *            SVC    35                       (SAME)                     09968021
                                    1640 *            LA     1,PARAM=1                (SAME)                     09975021
                                    1641 *            LA     0,1                      (SAME)                     09982021
                                    1642 *            SVC    1                        (SAME)                     09989021
                                    1643 *                                                                       09996021
                             00D5C  1644 DIWTOR EQU   *                                                          10003021
 000D5C 50E0 C5F8      07428        1645        ST    RETRG,SVWJHN                                               10010021
 000D60 45E0 7CCC      00CCC        1646        BAL   RETRG,WRKLRG          DESTROY REGISTERS                    10017021
 000D64 9101 D626      081BE        1647          TM    DIWOSW,MSWON        IS IT STOP LITERAL                   10024021
 000D68 4710 7D72      00D72        1648          BO    DIWTOR1                 YES                              10031021
 000D6C D219 DE44 C842 089DC 07672  1649          MVC   DOP3(LX26),DIWTC1        AWAITING REPLY CONSTANT         10038021
 000D72                             1650 DIWTOR1  DS    0H                                                       10045021
 000D72 1BEE                        1651          SR    RETRG,RETRG                                              10052021
 000D74 43E0 DE45      089DD        1652          IC    RETRG,DOP3+NX1           PICK UP COUNT                   10059021
 000D78 41EE DE46      089DE        1653          LA    RETRG,DOP3+NX2(RETRG)     ADDR OF END OF TEXT            10066021
 000D7C D203 E000 D5CD 00000 08165  1654          MVC   DX0(LX4,RETRG),MSGCDERP   MCS CODE FOR WTOR              10073021
 000D82 43E0 DE45      089DD        1655          IC    RETRG,DOP3+NX1       PICK UP COUNT                       10080021
 000D86 41EE 0004      00004        1656          LA    RETRG,DX4(RETRG)                                         10087021
 000D8A 42E0 DE45      089DD        1657          STC   RETRG,DOP3+NX1                                           10094021
 000D8E 42E0 D159      07CF1        1658          STC   RETRG,XL1+NX1                                            10101021
 000D92 42E0 DB43      086DB        1659        STC   RETRG,A67CH3                                               10108021
1         IKFCBL51: C O M M O N  S U B R O U T I N E S                                                          PAGE   38
-  LOC  OBJECT CODE    ADDR1 ADDR2  STMT   SOURCE STATEMENT                                       ASM 0201 11.03 02/14/15
0000D96 41E0 DE44      089DC        1660        LA    RETRG,DOP3                                                 10115021
 000D9A 50E0 D148      07CE0        1661          ST    RETRG,OP1                                                10122021
 000D9E 921C D188      07D20        1662          MVI   XCNTR1,XX1C                                              10129021
 000DA2 9205 D18A      07D22        1663          MVI   XCNTR1+NX2,XX05                                          10136021
 000DA6 45E0 B18C      01004        1664        BAL   RETRG,MVC             *    MVC  PARAM=5,LIT                10143021
 000DAA 4920 C38C      071BC        1665        CH    RW2,GZERO             RW2 = 0                              10150021
 000DAE 4780 7DD0      00DD0        1666        BC    EQ,DIWTR1              YES, GO SET UP FOR 1-CHAR REPLY     10157021
 000DB2 5020 D148      07CE0        1667        ST    RW2,OP1                                                    10164021
 000DB6 9202 D198      07D30        1668          MVI   XREG1,XX02                                               10171021
 000DBA 45E0 BB7C      019F4        1669        BAL   RETRG,LA              *    LA   2,DN                       10178021
 000DBE 45E0 77F0      007F0        1670        BAL   RETRG,CALCLG          FIND LENGTH OF DN                    10185021
 000DC2 4700 0000      00000        1671          NOP   DX0(RW0)            NULL OPERATION                       10192021
 000DC6 D200 DB3D D553 086D5 080EB  1672          MVC   A67CH2(LX1),LENGTH+NX3                                   10199021
 000DCC 47F0 7DDC      00DDC        1673        BC    UNCOND,DIWTR2         BRANCH AROUND LA INSTR               10206021
 000DD0 9201 DB3D      086D5        1674 DIWTR1   MVI   A67CH2,XX01                                              10213021
 000DD4 45E0 78C6      008C6        1675        BAL   RETRG,GATXTC         LA   2,WORKCELL=1                     10220021
 000DD8 0150                        1676        DC    AL2(ATXT89-ATXTBC)    *                                    10227021
 000DDA 0007                        1677        DC    AL2(ZTXT89-ATXT89)    *                                    10234021
 000DDC 45E0 78D2      008D2        1678 DIWTR2 BAL   RETRG,GATXTV          CODING GENERATED AS OUTLINED         10241021
 000DE0 04E7                        1679        DC    AL2(ATXT67-ATXTBV)         IN HEADING                      10248021
 000DE2 004D                        1680        DC    AL2(ZTXT67-ATXT67)              ABOVE                      10255021
 000DE4 1BEE                        1681        SR    RETRG,RETRG           ALTERNATE MESSAGE CASE,              10262021
 000DE6 43E0 DE45      089DD        1682          IC    RETRG,DOP3+NX1              OBTAIN ACTUAL PARAM LENGT    10269021
 000DEA 47F0 7E5E      00E5E        1683        BC    UNCOND,DIWTR6         BRANCH AROUND OTHER WTO CODING       10276021
                                    1684 *                                                                       10283021
                                    1685 *                                  GEN A WTO 'TEXT IN DOP3...'          10290021
                                    1686 *                                                                       10297021
                             00DEE  1687 DIWTO  EQU   *                                                          10304021
 000DEE 50E0 C5F8      07428        1688        ST    RETRG,SVWJHN                                               10311021
 000DF2 45E0 7CCC      00CCC        1689        BAL   RETRG,WRKLRG          KILL ALL REG'S                       10318021
 000DF6 1BEE                        1690        SR    RETRG,RETRG                                                10325021
 000DF8 42E0 DE42      089DA        1691          STC   RETRG,DOP2+NX122                                         10332021
 000DFC 43E0 DE45      089DD        1692          IC    RETRG,DOP3+NX1                                           10339021
 000E00 41EE 0004      00004        1693          LA    RETRG,DX4(RETRG)                                         10346021
 000E04 42E0 DE43      089DB        1694          STC   RETRG,DOP2+NX123                                         10353021
 000E08 9234 DE40      089D8        1695          MVI   DOP2+NX120,MANLIT                                        10360021
 000E0C 41EE 0008      00008        1696          LA    RETRG,DX8(RETRG)                                         10367021
 000E10 42E0 D159      07CF1        1697          STC   RETRG,XL1+NX1                                            10374021
 000E14 42E0 DE41      089D9        1698          STC   RETRG,DOP2+NX121     RESULT IS...                        10381021
 000E18 43E0 DE45      089DD        1699          IC    RETRG,DOP3+NX1                                           10388021
 000E1C 41EE DE46      089DE        1700          LA    RETRG,DOP3+NX2(RETRG)     ADDR END OF MSG                10395021
 000E20 D203 E000 D5C9 00000 08161  1701          MVC   DX0(LX4,RETRG),MSGCDE     MCSCODE FIELD                  10402021
                                    1702 *                               *DOP2...    *DOP3...                    10409021
 000E26 D701 DE44 DE44 089DC 089DC  1703          XC    DOP3(LX2),DOP3     '...34LL00NN0000XXXX...'LL=NN+4       10416021
 000E2C 9680 DE44      089DC        1704          OI    DOP3,XX80                MCSFLAG                         10423021
 000E30 41E0 DE40      089D8        1705          LA    RETRG,DOP2+NX120                                         10430021
 000E34 50E0 D148      07CE0        1706        ST    RETRG,OP1                                                  10437021
 000E38 921C D188      07D20        1707          MVI   XCNTR1,XX1C                                              10444021
 000E3C 9201 D18A      07D22        1708          MVI   XCNTR1+NX2,XX01                                          10451021
 000E40 45E0 B18C      01004        1709        BAL   RETRG,MVC             *    MVC  PARAM=1(L),='NN00TEXT.     10458021
 000E44 921C DA18      085B0        1710          MVI   ATXT25+NX4,XX1C          INIT ATXT ELEMENT               10465021
 000E48 9223 DA1D      085B5        1711          MVI   A25CH1,XX23          *    LA   1,PARAM=1                 10472021
 000E4C 45E0 78D2      008D2        1712        BAL   RETRG,GATXTV          *    SVC  35                         10479021
 000E50 03E8                        1713        DC    AL2(ATXT25-ATXTBV)    *                                    10486021
 000E52 000A                        1714        DC    AL2(ZTXT25-ATXT25)    *                                    10493021
1         IKFCBL51: C O M M O N  S U B R O U T I N E S                                                          PAGE   39
-  LOC  OBJECT CODE    ADDR1 ADDR2  STMT   SOURCE STATEMENT                                       ASM 0201 11.03 02/14/15
0000E54 9240 DA18      085B0        1715          MVI   ATXT25+NX4,XX40          INIT ATXT ELEMENT               10500021
 000E58 1BEE                        1716        SR    RETRG,RETRG                                                10507021
 000E5A 43E0 DE41      089D9        1717          IC    RETRG,DOP2+NX121                                         10514021
 000E5E 41EE 0017      00017        1718 DIWTR6   LA    RETRG,DX23(RETRG)    ALLOW FOR BASE OF WTO, WTOR         10521021
 000E62 88E0 0002      00002        1719          SRL   RETRG,DX2                                                10528021
 000E66 49E0 A22A      0022A        1720        CH    RETRG,PARMAX                                               10535021
 000E6A 47D0 7E72      00E72        1721        BC    NOTHI,DIWTO1          DONT CHANGE PARMAX                   10542021
 000E6E 40E0 A22A      0022A        1722        STH   RETRG,PARMAX                                               10549021
 000E72 58E0 C5F8      07428        1723 DIWTO1 L     RETRG,SVWJHN                                               10556021
 000E76 07FE                        1724        BCR   UNCOND,RETRG          *** LEAVE DIWTO, DIWTOR              10563021
1                           A-TEXT GENERATOR                                                                    PAGE   40
-  LOC  OBJECT CODE    ADDR1 ADDR2  STMT   SOURCE STATEMENT                                       ASM 0201 11.03 02/14/15
0000E78                             1726 IKF503 CSECT                                                            10577021
                             00E78  1727 COMON3 EQU     *                                                        10584021
                                    1728 *                                                                       10591021
                                    1729 *=1      A TEXT GENERATOR                                               10598021
                                    1730 *******************************************************************     10605021
                                    1731 *                                                                       10612021
                                    1732 *        A TEXT GENERATOR                                               10619021
                                    1733 *                                                                       10626021
                                    1734 *******************************************************************     10633021
                                    1735 *        THE A TEXT GENERATOR IS USED BY THE DIFFERENT ANALYZERS        10640021
                                    1736 *                                                                       10647021
                                    1737 *        THERE ARE VARIOUS ENTRY POINTS TO THE A TEXT GENERATOR         10654021
                                    1738 *                                                                       10661021
                                    1739 *        THE ENTRY POINT TO BE USED IS DETERMINED BY THE                10668021
                                    1740 *        OBJECT INSTRUCTION DESIRED                                     10675021
                                    1741 *                                                                       10682021
                                    1742 *        THE LINKAGE TO THE A TEXT GENERATOR IS                         10689021
                                    1743 *           BAL  RETRG,THE PARTICULAR ENTRY POINT                       10696021
                                    1744 *                                                                       10703021
                                    1745 *   THE FOLLOWING WILL DESCRIBE HOW THE WORK AREAS ARE TO BE USED       10710021
                                    1746 *                                                                       10717021
                                    1747 *        XL1 AND XL2 ARE NEEDED FOR SS TYPE INSTRUCTIONS                10724021
                                    1748 *             IF THERE IS ONLY ONE LENGTH PUT IN XL1                    10731021
                                    1749 *                                                                       10738021
                                    1750 *        XWC1 AND XWC2 ARE EACH TWO BYTES LONG                          10745021
                                    1751 *   IF WE ARE IN A BINARY MODE THE LENGTH IS PUT IN A THIRD BYTE        10752021
                                    1752 *                                                                       10759021
                                    1753 *        THE FOLLOWING ELEMENTS EACH HAVE TWO DATA AREAS                10766021
                                    1754 *        XWC,BDISP,TALLY,XGN,XPN,XCON                                   10773021
                                    1755 *             DATA AREA 1 IS USED IF IT IS THE FIRST ADDRESS OPERAN     10780021
                                    1756 *             DATA AREA 2 IS USED IF IT IS THE SECND ADDRESS OPERAN     10787021
                                    1757 *                                                                       10794021
                                    1758 *          FOR DATA NAMES,ALL LITERALS,FIG CONS  POINTERS ARE USED      10801021
                                    1759 *             THE POINTERS ARE PUT IN OP1,OP2 AS THEY ARE NEEDED        10808021
                                    1760 *                                                                       10815021
                                    1761 *******************************************************************     10822021
                                    1762 *******************************************************************     10829021
 000E78 9218 D1ED      07D85        1763 LOAD     MVI   OPCOD,XX18     LR OP CODE =18   CHANGED IF L OR LH OR    10836021
 000E7C 900F D0F0      07C88        1764 GHIBYT STM   GR1,GR15,GSVRG                                             10843021
 000E80 9846 D148      07CE0        1765        LM    OPD1,OPD3,OP1   LD REGS WITH OPND PTRS   3 WITH GADPAR     10850021
 000E84 D501 D1A0 C38C 07D38 071BC  1766          CLC   XL2(LX2),GZERO                                           10857021
 000E8A 4770 BAFE      01976        1767        BC    NOTEQ,GDOSSD    BRANCH IF DECIMAL SS CODE                  10864021
 000E8E D53D D15A C38C 07CF2 071BC  1768        CLC   XWC1(GCNLN2),GZERO                                         10871021
 000E94 4770 B028      00EA0        1769        BC    NOTEQ,GSETRX    BRANCH IF RX TYPE INSTRUCTION              10878021
 000E98 5940 C38C      071BC        1770        C     OPD1,GZERO                                                 10885021
 000E9C 4780 B050      00EC8        1771        BC    EQ,SETRR        BRANCH IF RR TYPE INSTRUCTION              10892021
 000EA0 92A0 D1E8      07D80        1772 GSETRX   MVI   GBIT1,XXA0     SET BIT FOR HALFWORD WANTED + CONV NUM    10899021
 000EA4 9500 D19A      07D32        1773          CLI   XXREG,XX00                                               10906021
 000EA8 4770 BCBA      01B32        1774        BC    NOTEQ,GFKRG           IF INDEX BR TO MOVE REGNO            10913021
 000EAC 47F0 B07A      00EF2        1775        BC    UNCOND,SETRX          GEN RX TYPE OF INSTRUCTION           10920021
 000EB0 921B D1ED      07D85        1776 SUB      MVI   OPCOD,XX1B     SR OP CODE=1B  CHANGED IF S OR SH OR S    10927021
 000EB4 47F0 B004      00E7C        1777        BC    UNCOND,GHIBYT         GENERATE FORMATTED ATXT              10934021
 000EB8 9210 D1ED      07D85        1778 LPRBI    MVI   OPCOD,XX10     LPR=10   ST OR STH WILL CHANGE HI ORDE    10941021
                             00EB8  1779 STORE  EQU   LPRBI                                                      10948021
 000EBC 47F0 B004      00E7C        1780        BC    UNCOND,GHIBYT         GENERATE FORMATTED ATXT              10955021
1                           A-TEXT GENERATOR                                                                    PAGE   41
-  LOC  OBJECT CODE    ADDR1 ADDR2  STMT   SOURCE STATEMENT                                       ASM 0201 11.03 02/14/15
0000EC0 900F D0F0      07C88        1781 SETRR1 STM   GR1,GR15,GSVRG                                             10962021
 000EC4 9846 D148      07CE0        1782        LM    OPD1,OPD3,OP1   LD REGS WITH OPND POINTERS   3 WITH GA     10969021
 000EC8 D200 D1EE D1E0 07D86 07D78  1783 SETRR    MVC   GABS(LX1),XREG2 GET LO 4 BITS OF OPERAND2 INTO LO 4BIT   10976021
 000ECE F100 D1EE D198 07D86 07D30  1784          MVO   GABS(LX1),XREG1(LX1) LO FOUR BITS INTO HIGH FOUR BITS AB 10983021
 000ED4 47F0 BA1A      01892        1785        BC    UNCOND,GNOPT2   GENERATE OUTPUT                            10990021
 000ED8 9740 D1ED      07D85        1786 SETRX2   XI    OPCOD,XX40     PUT 5 IN OPCOD (1 ALREADY THERE)          10997021
 000EDC 47F0 B076      00EEE        1787        BC    UNCOND,SETRX1         HALFWORD NOT WANTED                  11004021
 000EE0 900F D0F0      07C88        1788 SETRX0 STM   GR1,GR15,GSVRG                                             11011021
 000EE4 9846 D148      07CE0        1789        LM    OPD1,OPD3,OP1   LD REGS WITH OPND POINTERS   3 WITH GA     11018021
 000EE8 D200 D1EE D19A 07D86 07D32  1790          MVC   GABS(LX1),XXREG                                          11025021
 000EEE 9200 D1E8      07D80        1791 SETRX1   MVI   GBIT1,XX00     HALFWORD NOT WANTED  2 ADDRESSES NOT W    11032021
 000EF2 F100 D1EE D198 07D86 07D30  1792 SETRX    MVO   GABS(LX1),XREG1(LX1) LO 4 BITS INTO HI 4 BITS            11039021
 000EF8 5950 C38C      071BC        1793 GCHKOP C     OPD2,GZERO                                                 11046021
 000EFC 4770 B10C      00F84        1794        BC    NOTEQ,GCKOP2    BRANCH IF OPD2 NOT 0  MUST BE TWO POIN     11053021
 000F00 D501 D15A C38C 07CF2 071BC  1795 GCKOP3   CLC   XWC1(LX2),GZERO                                          11060021
 000F06 4770 B4FE      01376        1796        BC    NOTEQ,GWC       BRANCH IF WC     TEMPORARY STORAGE         11067021
 000F0A D501 D15E C38C 07CF6 071BC  1797          CLC   BDISP1(LX2),GZERO                                        11074021
 000F10 4770 B5FC      01474        1798        BC    NOTEQ,GBDISP    BRANCH IF BDISP                            11081021
 000F14 D501 D182 C38C 07D1A 071BC  1799          CLC   XGN1(LX2),GZERO                                          11088021
 000F1A 4770 B60A      01482        1800        BC    NOTEQ,GGN       BRANCH IF GENERATED NAME                   11095021
 000F1E D503 D184 C38C 07D1C 071BC  1801          CLC   XPN1(LX4),GZERO                                          11102021
 000F24 4770 B648      014C0        1802        BC    NOTEQ,GPN       BRANCH IF PROCEDURE NAME                   11109021
 000F28 D503 D190 C38C 07D28 071BC  1803          CLC   XVN1(LX4),GZERO                                          11116021
 000F2E 4770 B65E      014D6        1804        BC    NOTEQ,GVN       BRANCH IF VARIED NAME                      11123021
 000F32 D501 D194 C38C 07D2C 071BC  1805          CLC   GDEBG1(LX2),GZERO                                        11130021
 000F38 4770 B66C      014E4        1806        BC    NOTEQ,GDEBUG    BRANCH IF GTREF1                           11137021
 000F3C 9500 D180      07D18        1807          CLI   XCON1+NX16,XX00                                          11144021
 000F40 4770 B53C      013B4        1808        BC    NOTEQ,GCON      BRANCH IF CONSTANT(OTHER THAN LITERALS     11151021
                                    1809 *                                 OR FIG CON,SPECIAL FOR ANALYZERS)     11158021
 000F44 9500 D170      07D08        1810          CLI   XCON1,XX00                                               11165021
 000F48 4770 B406      0127E        1811        BC    NOTEQ,GDCDEF    BRANCH IF DECDEF                           11172021
 000F4C D502 D188 C38C 07D20 071BC  1812          CLC   XCNTR1(LX3),GZERO                                        11179021
 000F52 4770 B41C      01294        1813        BC    NOTEQ,GCNTR     BRANCH IF GTREF2                           11186021
 000F56 D501 D196 C38C 07D2E 071BC  1814          CLC   BLREF1(LX2),GZERO                                        11193021
 000F5C 4770 B47C      012F4        1815        BC    NOTEQ,GBLREF    BRANCH IF BLREF                            11200021
 000F60 D501 D166 C38C 07CFE 071BC  1816          CLC   VIRTC1+NX2(LX2),GZERO                                    11207021
 000F66 4770 B456      012CE        1817        BC    NOTEQ,GVIRT     BRANCH IF VIRTUAL                          11214021
 000F6A 9500 D168      07D00        1818          CLI   GVIRT1,XX00    BCDREF USED GVIRT1+2 NOT VIRTC1+2         11221021
 000F6E 4770 B48A      01302        1819        BC    NOTEQ,GBCDRF    BRANCH IF BCDREF                           11228021
 000F72 9500 D15D      07CF5        1820          CLI   TALLY1,XX00                                              11235021
 000F76 4770 B68E      01506        1821        BC    NOTEQ,GTALLY    BRANCH IF TALLY                            11242021
 000F7A D503 D160 C38C 07CF8 071BC  1822          CLC   RELAD1(LX4),GZERO                                        11249021
 000F80 4770 B4A0      01318        1823        BC    NOTEQ,GRLADR    BRANCH IF REL ADR    POINTER IF LITERA     11256021
 000F84 9530 4000      00000        1824 GCKOP2   CLI   DX0(OPD1),XX30                                           11263021
 000F88 4780 B1E2      0105A        1825        BC    EQ,GDN          BRANCH IF DATA NAME                        11270021
 000F8C 9536 4000      00000        1826          CLI   DX0(OPD1),XX36            INDEX-NAME                     11277021
 000F90 4780 B1B2      0102A        1827          BE    ATXSET1                  YES                             11284021
 000F94 9534 4000      00000        1828          CLI   DX0(OPD1),XX34                                           11291021
 000F98 4780 B6AA      01522        1829        BC    EQ,GALLIT       BRANCH IF ALPHA LITERAL                    11298021
 000F9C 9532 4000      00000        1830          CLI   DX0(OPD1),XX32                                           11305021
 000FA0 4780 B80E      01686        1831        BC    EQ,GNUMLT       BRANCH IF NUMERIC LITERAL                  11312021
 000FA4 9533 4000      00000        1832          CLI   DX0(OPD1),XX33                                           11319021
 000FA8 4780 B6C2      0153A        1833        BC    EQ,GFLTLT       BRANCH IF FLOATING POINT LITERAL           11326021
 000FAC 9575 4000      00000        1834          CLI   DX0(OPD1),XX75                                           11333021
 000FB0 4780 B6EA      01562        1835        BC    EQ,GFGCON       BRANCH IF FIGURATIVE CONSTANT              11340021
1                           A-TEXT GENERATOR                                                                    PAGE   42
-  LOC  OBJECT CODE    ADDR1 ADDR2  STMT   SOURCE STATEMENT                                       ASM 0201 11.03 02/14/15
0000FB4 95FA 4000      00000        1836          CLI   DX0(OPD1),XXFA                                           11347021
 000FB8 4780 B684      014FC        1837        BC    EQ,GGTRF2       BRANCH IF GTREF2                           11354021
 000FBC 95F9 4000      00000        1838          CLI   DX0(OPD1),XXF9                                           11361021
 000FC0 4780 B67A      014F2        1839        BC    EQ,GGTRF1       BRANCH IF GTREF1                           11368021
 000FC4 9579 4000      00000        1840          CLI   DX0(OPD1),XSTDTN                                         11375021
 000FC8 4780 B68E      01506        1841          BE    GTALLY              BRANCH IF A TALLY POINTER            11382021
 000FCC 47F0 B5FC      01474        1842          B     GBDISP              SET UP BDISP FOR ATEXT               11389021
 000FD0 9215 D1ED      07D85        1843 COMPLG   MVI   OPCOD,XX15     CLR OP CODE IS 15  CHANGED IF CL,OR CL    11396021
 000FD4 900F D0F0      07C88        1844 GHIBT1 STM   GR1,GR15,GSVRG                                             11403021
 000FD8 9846 D148      07CE0        1845        LM    OPD1,OPD3,OP1   LD REGS WITH OPND PTRS   3 WITH GADPAR     11410021
 000FDC D501 D158 C38C 07CF0 071BC  1846          CLC   XL1(LX2),GZERO                                           11417021
 000FE2 4770 B198      01010        1847        BC    NOTEQ,SETLSS    BRANCH IF LOGICAL SS TYPE INSTRUCTION      11424021
 000FE6 D53D D15A C38C 07CF2 071BC  1848        CLC   XWC1(GCNLN2),GZERO                                         11431021
 000FEC 4770 B180      00FF8        1849        BC    NOTEQ,GSTRX2    BRANCH IF RX TYPE INSTRUCTION              11438021
 000FF0 5940 C38C      071BC        1850        C     OPD1,GZERO                                                 11445021
 000FF4 4780 B050      00EC8        1851        BC    EQ,SETRR        BRANCH IF RR TYPE INSTRUCTION              11452021
 000FF8 9500 D19A      07D32        1852 GSTRX2   CLI   XXREG,XX00                                               11459021
 000FFC 4770 BCC4      01B3C        1853        BC    NOTEQ,GFKRG2          GENERATE RX TYPE INSTRUCTION         11466021
 001000 47F0 B060      00ED8        1854        BC    UNCOND,SETRX2         GENERATE RX REG TYPE INSTRUC         11473021
 001004 9212 D1ED      07D85        1855 MVC      MVI   OPCOD,XX12     MVC LO ORDER OF OP FIELD IS 2             11480021
 001008 900F D0F0      07C88        1856 GFXLSS STM   GR1,GR15,GSVRG                                             11487021
 00100C 9846 D148      07CE0        1857        LM    OPD1,OPD3,OP1   LD REG WITH OPND PTRS   3 WITH GADPAR      11494021
 001010 9240 D1E8      07D80        1858 SETLSS   MVI   GBIT1,XX40     SET BIT FOR SS TYPE   2 ADDRESSES WANT    11501021
 001014 97C0 D1ED      07D85        1859          XI    OPCOD,XXC0     PUT D IN HI ORDER  (1 ALREADY THERE)      11508021
 001018 4890 D158      07CF0        1860        LH    GXRA,XL1                                                   11515021
 00101C 0690                        1861        BCTR  GXRA,RW0          SUBTRACT 1 FROM LENGTH                   11522021
 00101E 4290 D1EE      07D86        1862        STC   GXRA,GABS                                                  11529021
 001022 4290 D158      07CF0        1863        STC   GXRA,XL1                                                   11536021
 001026 47F0 B080      00EF8        1864        BC    UNCOND,GCHKOP         GENERATE SS INSTR CODE               11543021
 00102A 9264 6000      00000        1865 ATXSET1  MVI   DX0(OPD3),XX64                                           11550021
 00102E 925C 6001      00001        1866          MVI   DX1(OPD3),INCODE                                         11557021
 001032 D201 6002 4003 00002 00003  1867          MVC   DX2(LX2,OPD3),DX3(OPD1)                                  11564021
 001038 4166 0004      00004        1868          LA    OPD3,DX4(OPD3)                                           11571021
 00103C 92B4 6000      00000        1869          MVI   DX0(OPD3),XXB4      MOVE XREF FOR INDX-NM          38953 11578021
 001040 D202 6001 4007 00001 00007  1870          MVC   DX1(LX3,OPD3),DX7(OPD1)  ELT TO OUTPUT             38953 11585021
 001046 4166 0004      00004        1871          LA    OPD3,DX4(OPD3)      INCR AREA PTR                  38953 11592021
 00104A 9180 D1E8      07D80        1872        TM    GBIT1,HFWORD                                               11599021
 00104E 4780 B258      010D0        1873        BZ    GADNUM                IF ADD1 COMPLT BR FOR 2ND SS ADD     11606021
 001052 9740 D1ED      07D85        1874          XI    OPCOD,XX40         PUT 5 IN HI ORDER,1ALREADY THERE      11613021
 001056 47F0 B258      010D0        1875          B     GADNUM              COMPLETE ATXT                        11620021
 00105A D502 4004 C69A 00004 074CA  1876 GDN      CLC   DX4(LX3,OPD1),XTALLV+NX4                                 11627021
 001060 4780 B68E      01506        1877        BC    EQ,GTALLY                  BRANCH IF TALLY                 11634021
 001064 91FF 4004      00004        1878        TM    XDIDK(OPD1),SPREG    IS THIS DN A 'SPECIAL REG'...         11641021
 001068 4710 B288      01100        1879        BO    SPREG1               YES, CHANGE TO BDISP ELEMENT          11648021
 00106C D502 4004 C6A8 00004 074D8  1880          CLC   DX4(LX3,OPD1),XC000                                      11655021
 001072 4770 B214      0108C        1881          BNE   MOVE16              IF IDK FIELD NOT ZERO BRANCH         11662021
 001076 D201 D0D8 C3CA 07C70 071FA  1882          MVC   AXTC01+NX2(LX2),XC001                                    11669021
 00107C D203 6000 D0D6 00000 07C6E  1883          MVC   DX0(LX4,OPD3),AXTC01       IN CASE OF A FAKE ALPHN.DN    11676021
 001082 4166 0004      00004        1884          LA    OPD3,DX4(OPD3)            FROM THE MOVE VERB -REPLACE    11683021
 001086 1744                        1885          XR    OPD1,OPD1                DN  BY  TS2 .                   11690021
 001088 47F0 B258      010D0        1886          B     GADNUM              GET ADDRESS FOR ATXT                 11697021
                             0108C  1887 MOVE16   EQU   *                                                        11704021
 00108C 9180 D1E8      07D80        1888        TM    GBIT1,HFWORD                                               11711021
                                    1889 *                                                                       11718021
 001090 4780 B238      010B0        1890          BZ    GNOLGN                  CONTINUE                         11725021
1                           A-TEXT GENERATOR                                                                    PAGE   43
-  LOC  OBJECT CODE    ADDR1 ADDR2  STMT   SOURCE STATEMENT                                       ASM 0201 11.03 02/14/15
0001094 9101 D1E9      07D81        1891          TM    GBIT2,XX01                                               11732021
 001098 4710 B234      010AC        1892        BC    ONES,GHALF            BRANCH IF HALFWORD ENTRY POINT       11739021
 00109C 9504 4009      00009        1893          CLI   DX9(OPD1),XX04                                           11746021
 0010A0 47D0 B234      010AC        1894        BC    NOTHI,GHALF     BRANCH IF HALFWORD INSTRUCTION             11753021
 0010A4 9740 D1ED      07D85        1895          XI    OPCOD,XX40    PUT 5 IN HIGH ORDER (1 ALREADY THERE)      11760021
 0010A8 47F0 B238      010B0        1896          B     GNOLGN                  CONTINUE                         11767021
 0010AC 9750 D1ED      07D85        1897 GHALF    XI    OPCOD,XX50    PUT 4 IN HIGH ORDER (1 ALREADY THERE)      11774021
 0010B0 9278 6000      00000        1898 GNOLGN   MVI   DX0(OPD3),XX78                                           11781021
 0010B4 D202 6001 4004 00001 00004  1899          MVC   DX1(LX3,OPD3),DX4(OPD1) MOVE ADDRESS PARAMS TO BYTE AFTE 11788021
 0010BA 1B99                        1900        SR      GXRA,GXRA                                                11795021
 0010BC 4394 0001      00001        1901          IC    GXRA,DX1(OPD1) GET                                       11802021
 0010C0 0690                        1902        BCTR  GXRA,RW0              DATA NAME                            11809021
 0010C2 4199 4000      00000        1903          LA    GXRA,DX0(GXRA,OPD1)   INTERNAL                           11816021
 0010C6 D202 6004 9000 00004 00000  1904          MVC   DX4(LX3,OPD3),DX0(GXRA)   IDENTIFIER                     11823021
 0010CC 4166 0007      00007        1905          LA    OPD3,DX7(OPD3)                                           11830021
 0010D0 9101 D1E8      07D80        1906 GADNUM TM    GBIT1,GAD1DN      ADDRESS1 DONE                            11837021
 0010D4 4710 B2EA      01162        1907        BC    ONES,GPLUS2       BRANCH IF YES.                           11844021
 0010D8 D502 D18B C38C 07D23 071BC  1908          CLC   PLUS1(LX3),GZERO IS  THERE A PLUS ELEMENT                11851021
 0010DE 4770 B344      011BC        1909        BC    NOTEQ,GPLUS1      BRANCH IF PLUS                           11858021
 0010E2 9140 D1E8      07D80        1910 GDOAGN TM    GBIT1,TWOADR   ARE THERE 2 ADDRESSES (SS INSTRUCTION)      11865021
 0010E6 4780 B93E      017B6        1911        BC     ZERO,GNOTPT   BRANCH IF THERE ARE NOT 2 ADDRESSES         11872021
 0010EA 9601 D1E8      07D80        1912        OI    GBIT1,GAD1DN     1'ST  ADR IS NOW COMPLETED                11879021
 0010EE 5950 C38C      071BC        1913        C     OPD2,GZERO                                                 11886021
 0010F2 4770 B2E4      0115C        1914        BC    NOTEQ,GCNGAD    BRANCH IF THERE WERE 2 ADDRESS PTRS        11893021
 0010F6 D23D D15A D1A2 07CF2 07D3A  1915        MVC   XWC1(GCNLN2),XWC2  CHANGE ALL ADDRESS TWOS TO ADR ONES     11900021
 0010FC 47F0 B088      00F00        1916        BC    UNCOND,GCKOP3         GENERATE ATXT FOR 2ND ADDRESS        11907021
                                    1917 * SPECIAL REGISTER PROCESSING                                           11914021
                             01100  1918 SPREG1 EQU   *                    PROCESS SPECIAL REGISTERA             11921021
 001100 950B 4006      00006        1919          CLI   DX6(OPD1),XGBINR    TEST FOR VALID USE                   11928021
 001104 4740 B2D2      0114A        1920        BL    SPRERR               INVALID. PUT ERROR MSG                11935021
 001108 4780 B2BE      01136        1921        BE    SPREG2               SORT-RETURN IS HALF WORD              11942021
 00110C 9510 4006      00006        1922          CLI   DX6(OPD1),XX10      TEST FOR VALID USE                   11949021
 001110 4720 B2D2      0114A        1923          BH    SPRERR                  INVALID                          11956021
 001114 4780 B2BE      01136        1924        BE    SPREG2               RETURN-CODE IS HALF WORD              11963021
                             01118  1925 SPREG3 EQU   *                                                          11970021
 001118 1B11                        1926        SR    RW1,RW1                                                    11977021
 00111A 4314 0006      00006        1927          IC    RW1,DX6(OPD1)       PICK UP UNIQUE SPEC REG IDENTIF      11984021
 00111E 4B10 C6C6      074F6        1928        SH    RW1,XC011                                                  11991021
 001122 8910 0001      00001        1929          SLL   RW1,DX1             USE AS INDEX TO BASE AND DISPL       11998021
 001126 4120 C8C4      076F4        1930        LA    RW2,SPREGC                                   TABLE         12005021
 00112A 1A21                        1931        AR    RW2,RW1                                                    12012021
 00112C D201 D15E 2000 07CF6 00000  1932          MVC   BDISP1(LX2),DX0(RW2) CHANGE REFERENCE TO BDISP           12019021
 001132 47F0 B5FC      01474        1933        B     GBDISP               PROCESS AS BDISP                      12026021
 001136 91C0 D1ED      07D85        1934 SPREG2   TM    OPCOD,XXC0           SS INSTRUCTION...                   12033021
 00113A 4710 B2A0      01118        1935        BO    SPREG3               YES                                   12040021
 00113E 9680 D1E8      07D80        1936        OI    GBIT1,HFWORD         INDICATE  HALFWORD INSTR NEEDED       12047021
 001142 9601 D1E9      07D81        1937          OI    GBIT2,XX01                                               12054021
 001146 47F0 B2A0      01118        1938        B     SPREG3                PICK UP BASE DISP FOR ATXT           12061021
 00114A 45E0 7520      00520        1939 SPRERR BAL   RETRG,ERRPRO         PUT MSG-INVALID USE OF SPEC REG       12068021
 00114E 0F                          1940        DC    AL1(ERRN15)                                                12075021
 00114F 02                          1941        DC    AL1(2)               E-LEVEL                               12082021
 001150 41E0 700A      0000A        1942        LA    RETRG,PH5CTL         SET RETURN REG TO PH5 CONTROL SO      12089021
 001154 50E0 D128      07CC0        1943        ST    RETRG,GSVRG+NX56      THIS STATEMENT WILL BE IGNORED       12096021
 001158 47F0 B9EE      01866        1944        B     AXT102               REINITIAL. ATXT GEN FOR NEXT USE      12103021
 00115C 1845                        1945 GCNGAD LR    OPD1,OPD2                                                  12110021
1                           A-TEXT GENERATOR                                                                    PAGE   44
-  LOC  OBJECT CODE    ADDR1 ADDR2  STMT   SOURCE STATEMENT                                       ASM 0201 11.03 02/14/15
000115E 47F0 B10C      00F84        1946        BC    UNCOND,GCKOP2         GENERATE ATXT FOR SPEC REG           12117021
 001162 D502 D1D3 C38C 07D6B 071BC  1947 GPLUS2   CLC   PLUS2(LX3),GZERO                                         12124021
 001168 4780 B93E      017B6        1948        BC    EQ,GNOTPT       BRANCH IF PLUS2 IS ZERO                    12131021
 00116C 5940 C38C      071BC        1949        C     OPD1,GZERO            DOES ADRPLUS APPLY...                12138021
 001170 4780 B332      011AA        1950        BC    EQ,GPLUSA              NO                                  12145021
 001174 D530 D1A2 C38C 07D3A 071BC  1951        CLC   XWC2(ADRPLX),GZERO                                         12152021
 00117A 4770 B332      011AA        1952        BC    NOTEQ,GPLUSA          NO                                   12159021
 00117E D507 D1D8 C38C 07D70 071BC  1953        CLC   XVN2(ADRPLY),GZERO                                         12166021
 001184 4770 B332      011AA        1954        BC    NOTEQ,GPLUSA          NO                                   12173021
 001188 9530 4000      00000        1955          CLI   DX0(OPD1),MDN                                            12180021
 00118C 4770 B332      011AA        1956        BC    NOTEQ,GPLUSA           NO                                  12187021
 001190 D200 D338 4004 07ED0 00004  1957          MVC   GTEMP(LX1),DX4(OPD1)                                     12194021
 001196 9470 D338      07ED0        1958          NI    GTEMP,XX70           ELIM SUBSCRIPT AND TALLY            12201021
 00119A 9560 D338      07ED0        1959          CLI   GTEMP,XX60                                               12208021
 00119E 4780 B332      011AA        1960        BC    EQ,GPLUSA              NO                                  12215021
 0011A2 9530 D338      07ED0        1961          CLI   GTEMP,XX30                                               12222021
 0011A6 4770 B394      0120C        1962        BC    NOTEQ,GPLUSB           YES                                 12229021
                             011AA  1963 GPLUSA EQU   *                                                          12236021
 0011AA 9280 6000      00000        1964          MVI   DX0(OPD3),XX80 SET UP PLUS ELEMENT                       12243021
 0011AE D202 6001 D1D3 00001 07D6B  1965          MVC   DX1(LX3,OPD3),PLUS2   FOR A TEXT OUTPUT                  12250021
 0011B4 4166 0004      00004        1966          LA    OPD3,DX4(OPD3) INCREMENT POINTER                         12257021
 0011B8 47F0 B93E      017B6        1967          BC  UNCOND,GNOTPT         COMPLT AND WRITE ATXT IF 1 ADD       12264021
 0011BC 5940 C38C      071BC        1968 GPLUS1 C     OPD1,GZERO            DOES ADRPLUS APPLY...                12271021
 0011C0 4780 B382      011FA        1969        BC    EQ,GPLUSC              NO                                  12278021
 0011C4 D530 D15A C38C 07CF2 071BC  1970        CLC   XWC1(ADRPLX),GZERO                                         12285021
 0011CA 4770 B382      011FA        1971        BC    NOTEQ,GPLUSC          NO, OPD1 IS FOR ADDR2                12292021
 0011CE D507 D190 C38C 07D28 071BC  1972        CLC   XVN1(ADRPLY),GZERO                                         12299021
 0011D4 4770 B382      011FA        1973        BC    NOTEQ,GPLUSC          NO                                   12306021
 0011D8 9530 4000      00000        1974          CLI   DX0(OPD1),MDN                                            12313021
 0011DC 4770 B382      011FA        1975        BC    NOTEQ,GPLUSC          NO                                   12320021
 0011E0 D200 D338 4004 07ED0 00004  1976          MVC   GTEMP(LX1),DX4(OPD1)                                     12327021
 0011E6 9470 D338      07ED0        1977          NI    GTEMP,XX70                                               12334021
 0011EA 9560 D338      07ED0        1978          CLI   GTEMP,XX60                                               12341021
 0011EE 4780 B382      011FA        1979        BC    EQ,GPLUSC              NO                                  12348021
 0011F2 9530 D338      07ED0        1980          CLI   GTEMP,XX30                                               12355021
 0011F6 4770 B3A0      01218        1981        BC    NOTEQ,GPLUSD           YES                                 12362021
 0011FA 9280 6000      00000        1982 GPLUSC   MVI   DX0(OPD3),XX80       SET UP PLUS A-TEXT HEADER           12369021
 0011FE D202 6001 D18B 00001 07D23  1983          MVC   DX1(LX3,OPD3),PLUS1   ELEMENT FOR A TEXT OUTPUT          12376021
 001204 4166 0004      00004        1984          LA    OPD3,DX4(OPD3) INCREMENT POINTER                         12383021
 001208 47F0 B26A      010E2        1985          BC  UNCOND,GDOAGN         GET NXT DNM AND GENERATE ATXT        12390021
 00120C 41E0 D1D3      07D6B        1986 GPLUSB LA    RETRG,PLUS2           SET UP PLUS 2 POINTERS               12397021
 001210 41F0 B93E      017B6        1987        LA    XRVAR,GNOTPT                                               12404021
 001214 47F0 B3A8      01220        1988        BC    UNCOND,GPLUSZ         SKIP NXT TO PT TO PLUS2 POINTER      12411021
 001218 41E0 D18B      07D23        1989 GPLUSD LA    RETRG,PLUS1           SET UP PLUS 1 POINTERS               12418021
 00121C 41F0 B26A      010E2        1990        LA    XRVAR,GDOAGN                                               12425021
 001220 4B60 C6BE      074EE        1991 GPLUSZ SH    OPD3,XC007            CONVERT ADR ELEMENT TO ADRPLUS E     12432021
 001224 92A4 6000      00000        1992          MVI   DX0(OPD3),XXA4       ADRPLUS HEADER                      12439021
 001228 D202 6007 E000 00007 00000  1993          MVC   DX7(LX3,OPD3),DX0(RETRG) MOVE IN PLUS VALUE              12446021
 00122E D202 D339 E000 07ED1 00000  1994          MVC   GTEMP+NX1(LX3),DX0(RETRG)                                12453021
 001234 9200 D338      07ED0        1995          MVI   GTEMP,XX00                                               12460021
 001238 9002 C61C      0744C        1996        STM   RW0,RW2,SVWJHQ                                             12467021
 00123C 5810 D338      07ED0        1997        L     RW1,GTEMP               PLUS  VALUE                        12474021
 001240 D201 D338 4004 07ED0 00004  1998          MVC   GTEMP(LX2),DX4(OPD1)                                     12481021
 001246 940F D338      07ED0        1999          NI    GTEMP,XX0F                                               12488021
 00124A 4A10 D338      07ED0        2000        AH    RW1,GTEMP               DDD + PLUS                         12495021
1                           A-TEXT GENERATOR                                                                    PAGE   45
-  LOC  OBJECT CODE    ADDR1 ADDR2  STMT   SOURCE STATEMENT                                       ASM 0201 11.03 02/14/15
000124E 1B22                        2001        SR    RW2,RW2                                                    12502021
 001250 4324 0006      00006        2002          IC    RW2,DX6(OPD1)          KK    (BL NUMBER)                 12509021
 001254 1B00                        2003        SR    RW0,RW0                                                    12516021
 001256 5D00 C3D0      07200        2004        D     RW0,FW4096              (DDDD+PLUS) / 4096 = Q + R         12523021
 00125A 1A21                        2005        AR    RW2,RW1                   UP BL BY Q                       12530021
 00125C 4226 0003      00003        2006          STC   RW2,DX3(OPD3)          KK                                12537021
 001260 4000 D338      07ED0        2007        STH   RW0,GTEMP               R  REPLACES DDD                    12544021
 001264 94F0 6001      00001        2008          NI    DX1(OPD3),XXF0                                           12551021
 001268 D600 6001 D338 00001 07ED0  2009          OC    DX1(LX1,OPD3),GTEMP                                      12558021
 00126E D200 6002 D339 00002 07ED1  2010          MVC   DX2(LX1,OPD3),GTEMP+NX1                                  12565021
 001274 4166 000A      0000A        2011          LA    OPD3,DX10(OPD3)                                          12572021
 001278 9802 C61C      0744C        2012        LM    RW0,RW2,SVWJHQ                                             12579021
 00127C 07FF                        2013        BCR   UNCOND,XRVAR          BRANCHES TO COMPLETE ATXT            12586021
 00127E 926C 6000      00000        2014 GDCDEF   MVI   DX0(OPD3),XX6C                                           12593021
 001282 1B99                        2015        SR      GXRA,GXRA                                                12600021
 001284 4390 D170      07D08        2016        IC    GXRA,XCON1                                                 12607021
 001288 4490 BE2C      01CA4        2017        EX    GXRA,GDC1                 MOVE                             12614021
 00128C 4169 6002      00002        2018          LA    OPD3,DX2(GXRA,OPD3)                                      12621021
 001290 47F0 B93E      017B6        2019        BC    UNCOND,GNOTPT         COMPLT ATXT FOR 1 ADDRESS            12628021
 001294 9264 6000      00000        2020 GCNTR    MVI   DX0(OPD3),XX64 SET UP GTREF2                             12635021
 001298 D202 6001 D188 00001 07D20  2021          MVC   DX1(LX3,OPD3),XCNTR1                                     12642021
 00129E 9180 D1E8      07D80        2022        TM    GBIT1,HFWORD                                               12649021
 0012A2 4780 B534      013AC        2023        BC    ZERO,GADD4            INCREM PTR AND GEN ATXT FOR DNM      12656021
 0012A6 9504 D188      07D20        2024          CLI   XCNTR1,XX04    VLC                                       12663021
 0012AA 4780 B44E      012C6        2025        BC    EQ,GCNTR2             GEN ST INSTRUC FOR VLC               12670021
 0012AE 9534 D188      07D20        2026          CLI   XCNTR1,XX34          VLC-OUT-OF-LINE                     12677021
 0012B2 4770 B446      012BE        2027        BC    NOTEQ,GCNTR1          GEN STH FOR DNM                      12684021
 0012B6 9238 6001      00001        2028          MVI   DX1(OPD3),XX38                                           12691021
 0012BA 4780 B44E      012C6        2029        BC    EQ,GCNTR2             IF VLC-OUT-OF-LINE GEN ST INSTR      12698021
 0012BE 9740 D1ED      07D85        2030 GCNTR1   XI    OPCOD,XX40                                               12705021
 0012C2 47F0 B534      013AC        2031        BC    UNCOND,GADD4          INCREM PTR AND GEN ATXT FOR DNM      12712021
 0012C6 9750 D1ED      07D85        2032 GCNTR2   XI    OPCOD,XX50                                               12719021
 0012CA 47F0 B534      013AC        2033        BC    UNCOND,GADD4          INCREM PTR AND GEN ATXT FOR DNM      12726021
                                    2034 * VIRTUALS                                                              12733021
 0012CE 4120 D164      07CFC        2035 GVIRT  LA    RW2,VIRTC1                                                 12740021
 0012D2 4130 000C      0000C        2036          LA    RW3,DX12                                                 12747021
 0012D6 45E0 734C      0034C        2037        BAL   RETRG,PUTVIR          DEFINE NEW VIRTUAL                   12754021
 0012DA 9258 6000      00000        2038          MVI   DX0(OPD3),XX58 VIR REF                                   12761021
 0012DE D201 6001 D166 00001 07CFE  2039          MVC   DX1(LX2,OPD3),VIRTC1+NX2                                 12768021
 0012E4 9180 D1E8      07D80        2040        TM    GBIT1,HFWORD                                               12775021
 0012E8 4780 B630      014A8        2041        BC    ZERO,GADD3            GENERATE ATXT FOR DNM                12782021
 0012EC 9740 D1ED      07D85        2042          XI    OPCOD,XX40     FULL WORD INSTRUCTION                     12789021
 0012F0 47F0 B630      014A8        2043        BC    UNCOND,GADD3          GENERATE ATXT FOR DNM                12796021
 0012F4 925C 6000      00000        2044 GBLREF   MVI   DX0(OPD3),XX5C SET UP                                    12803021
 0012F8 D201 6001 D196 00001 07D2E  2045          MVC   DX1(LX2,OPD3),BLREF1 BLREF                               12810021
 0012FE 47F0 B614      0148C        2046        BC    UNCOND,GGN1          ELEMENT FOR A TEXT OUTPUT             12817021
 001302 927C 6000      00000        2047 GBCDRF   MVI   DX0(OPD3),XX7C SET UP                                    12824021
 001306 9208 6001      00001        2048          MVI   DX1(OPD3),XX08    BCDREF                                 12831021
 00130A D207 6002 D168 00002 07D00  2049          MVC   DX2(LX8,OPD3),GVIRT1  ELEMENT                            12838021
 001310 4166 000A      0000A        2050          LA    OPD3,DX10(OPD3)          INCREMENT POINTER               12845021
 001314 47F0 B258      010D0        2051        BC    UNCOND,GADNUM         GENERATE ATXT FOR DNM                12852021
 001318 952C D160      07CF8        2052 GRLADR   CLI   RELAD1,XX2C                                              12859021
 00131C 4770 B4B6      0132E        2053        BC    NOTEQ,GFNRAD    BRANCH IF NOT LITERAL REL ADR              12866021
 001320 9680 D1E9      07D81        2054          OI    GBIT2,XX80     HAVE REL ADR                              12873021
 001324 47F0 B10C      00F84        2055        BC    UNCOND,GCKOP2         LOOK FOR DUPS AND GENERATE ATXT      12880021
1                           A-TEXT GENERATOR                                                                    PAGE   46
-  LOC  OBJECT CODE    ADDR1 ADDR2  STMT   SOURCE STATEMENT                                       ASM 0201 11.03 02/14/15
0001328 D201 D162 A164 07CFA 00164  2056 GRELIT   MVC   RELAD1+NX2(LX2),LTLCTR SET LITERAL ID NUMB               12887021
 00132E 91FE D161      07CF9        2057 GFNRAD   TM    RELAD1+NX1,XXFE     TEST ALL BITS EXCEPT BIT1            12894021
 001332 4770 B4C6      0133E        2058          BC    NOTEQ,GFNRA        NO, BRANCH                            12901021
 001336 92B0 6000      00000        2059          MVI   DX0(OPD3),XXB0            SETUP CALLING SEQ.DISP.ELEM    12908021
 00133A 47F0 B4D2      0134A        2060        BC    UNCOND,GFNR12             SKIP NEXT 2 INSTR                12915021
 00133E 9502 D161      07CF9        2061 GFNRA    CLI   RELAD1+NX1,XX02     TEST IF SS=2 MEANS DICT PTR ELEME    12922021
 001342 4780 B4E0      01358        2062          BC    EQ,CSDIPT          BRANCH IF SS=2                        12929021
 001346 9284 6000      00000        2063          MVI   DX0(OPD3),XX84                                           12936021
 00134A D203 6001 D160 00001 07CF8  2064 GFNR12 MVC   DX1(LX4,OPD3),RELAD1      SAVE                             12943021
 001350 4166 0005      00005        2065          LA    OPD3,DX5(OPD3)      INCREMENT POINTER                    12950021
 001354 47F0 B258      010D0        2066        BC    UNCOND,GADNUM         GENERATE ATXT FOR DNM                12957021
 001358 9580 D160      07CF8        2067 CSDIPT   CLI   RELAD1,XX80         XREF ELE...                          12964021
 00135C 4770 B4F0      01368        2068        BNE   CDIPT1               NO                                    12971021
 001360 92B8 6000      00000        2069          MVI   DX0(OPD3),FREF      SET XREF CODE                        12978021
 001364 47F0 B4F4      0136C        2070        B     CDIPT2                MOVE DICTRY POINTER INTO ELEM        12985021
 001368 92B4 6000      00000        2071 CDIPT1   MVI   DX0(OPD3),XXB4                                           12992021
 00136C D202 6001 D162 00001 07CFA  2072 CDIPT2   MVC   DX1(LX3,OPD3),RELAD1+NX2 MOVE DICT PTR INTO ELEMENT      12999021
 001372 47F0 B534      013AC        2073          BC    UNCOND,GADD4        INCREM PTR AND GEN ATXT FOR DNM      13006021
 001376 9180 D1E8      07D80        2074 GWC      TM  GBIT1,HFWORD                                               13013021
 00137A 4780 B51A      01392        2075          BC  ZERO,GNOLN2     BRANCH IF HALFWORD TEST NOT WANTED         13020021
 00137E 9502 D15C      07CF4        2076          CLI   XWC1+NX2,XX02                                            13027021
 001382 47D0 B516      0138E        2077          BC  NOTHI,GHALF2    BRANCH IF HALFWORD                         13034021
 001386 9740 D1ED      07D85        2078          XI    OPCOD,XX40     PUT 5 IN HI ORDER (1 THERE ALREADY)       13041021
 00138A 47F0 B51A      01392        2079        BC    UNCOND,GNOLN2         SET UP TS ELEM FOR ATXT OUTPUT       13048021
 00138E 9750 D1ED      07D85        2080 GHALF2   XI    OPCOD,XX50     PUT 4 IN HI ORDER  (1 THERE ALREADY)      13055021
 001392 9264 6000      00000        2081 GNOLN2   MVI   DX0(OPD3),XX64 SET UP WC ELEMENT FOR A TEXT OUTPUT       13062021
 001396 9224 6001      00001        2082          MVI   DX1(OPD3),XX24 TEMPORARY STORAGE                         13069021
 00139A 4890 D15A      07CF2        2083        LH    GXRA,XWC1                                                  13076021
 00139E 4B90 C6BE      074EE        2084        SH    GXRA,GSEVEN                                                13083021
 0013A2 4090 D15A      07CF2        2085        STH   GXRA,XWC1                                                  13090021
 0013A6 D201 6002 D15A 00002 07CF2  2086          MVC   DX2(LX2,OPD3),XWC1                                       13097021
 0013AC 4166 0004      00004        2087 GADD4    LA    OPD3,DX4(OPD3) INCREMENT POINTER                         13104021
 0013B0 47F0 B258      010D0        2088        BC    UNCOND,GADNUM         GENERATE ATXT FOR DNM                13111021
                                    2089 * CONSTANTS                                                             13118021
 0013B4 9140 D1E9      07D81        2090 GCON     TM    GBIT2,XX40                                               13125021
 0013B8 4710 B406      0127E        2091        BC    ONES,GDCDEF           PUT OUT DC DEF IN ATXT               13132021
 0013BC 9502 D180      07D18        2092          CLI   XCON1+NX16,XX02                                          13139021
 0013C0 4720 B570      013E8        2093        BC    HI,GCON3              TEST FURTHER FOR TYPE OF CONST       13146021
 0013C4 4780 B580      013F8        2094        BC    EQ,GCON4              TEST FURTHER FOR TYPE DNM ATXT       13153021
 0013C8 9201 6001      00001        2095 GCON5    MVI   DX1(OPD3),XX01 HEX  NO BOUNDARY REQ                      13160021
 0013CC 1BEE                        2096 GCON6  SR    RETRG,RETRG                                                13167021
 0013CE 43E0 D180      07D18        2097          IC    RETRG,XCON1+NX16                                         13174021
 0013D2 4BE0 C6CE      074FE        2098        SH    RETRG,GSXTEN                                               13181021
 0013D6 13EE                        2099        LCR   RETRG,RETRG                                                13188021
 0013D8 4390 D180      07D18        2100          IC    GXRA,XCON1+NX16                                          13195021
 0013DC 41EE D170      07D08        2101        LA    RETRG,XCON1(RETRG)                                         13202021
 0013E0 4490 BDDE      01C56        2102        EX    GXRA,GCONMV               MOVE                             13209021
 0013E4 47F0 B7B8      01630        2103        BC    UNCOND,GFNCON         GENERATE LITERAL ELEMT ATXT          13216021
 0013E8 9504 D180      07D18        2104 GCON3    CLI   XCON1+NX16,XX04                                          13223021
 0013EC 4720 B5A4      0141C        2105        BC    HI,GCON7              TEST FURTHER FOR TYPE DNM ATXT       13230021
 0013F0 4780 B5D0      01448        2106        BC    EQ,GCON8              TEST FURTHER FOR TYPE DNM ATXT       13237021
 0013F4 47F0 B550      013C8        2107        BC    UNCOND,GCON5          GEN LIT ELEM ATXT HEX,NO ALLIGN      13244021
 0013F8 9180 D1E8      07D80        2108 GCON4  TM    GBIT1,HFWORD                                               13251021
 0013FC 4780 B58C      01404        2109        BC    ZERO,GCON44           NO,TEST FOR BINARY INSTRUCTION       13258021
 001400 9750 D1ED      07D85        2110          XI    OPCOD,XX50                                               13265021
1                           A-TEXT GENERATOR                                                                    PAGE   47
-  LOC  OBJECT CODE    ADDR1 ADDR2  STMT   SOURCE STATEMENT                                       ASM 0201 11.03 02/14/15
0001404 91A0 D1E8      07D80        2111 GCON44   TM    GBIT1,XXA0     BINARY INSTRUCTION                        13272021
 001408 4780 B59C      01414        2112        BC    ZERO,GCON45           GEN LIT ELEM ATXT HEX,NO ALLIGN      13279021
 00140C 9241 6001      00001        2113          MVI   DX1(OPD3),XX41 HEX HFWORD BNDRY                          13286021
 001410 47F0 B554      013CC        2114        BC    UNCOND,GCON6          GEN ATXT WITH HFWORD ALLIGNMNT       13293021
 001414 9201 6001      00001        2115 GCON45   MVI   DX1(OPD3),XX01 HEX  NO BNDRY                             13300021
 001418 47F0 B554      013CC        2116        BC    UNCOND,GCON6          GEN LIT ELEM ATXT                    13307021
 00141C 9508 D180      07D18        2117 GCON7    CLI   XCON1+NX16,XX08                                          13314021
 001420 4770 B550      013C8        2118        BC    NOTEQ,GCON5           GEN ATXT WITHOUT ALLIGNMNT           13321021
 001424 9118 D1E8      07D80        2119          TM    GBIT1,XX18     FLOATING POINT                            13328021
 001428 4770 B5C8      01440        2120        BC    XNOEQ,GCON72          GEN ATXT WITH DBL WD BOUNDRY         13335021
 00142C 91A0 D1E8      07D80        2121          TM    GBIT1,XXA0     L   BINARY                                13342021
 001430 4770 B5D0      01448        2122        BC    NOTZER,GCON8          TEST FURTHER                         13349021
 001434 9102 D1E9      07D81        2123          TM    GBIT2,XX02                                               13356021
 001438 4710 B5F4      0146C        2124        BC    ONES,GCON8A           GEN ATXT WITH FULL WD BOUNDRY        13363021
 00143C 47F0 B59C      01414        2125        BC    UNCOND,GCON45         GEN ATXT WITHOUT BNDRY ALLIGN        13370021
 001440 92C1 6001      00001        2126 GCON72   MVI   DX1(OPD3),XXC1 HEX   DBL WORD BNDRY                      13377021
 001444 47F0 B554      013CC        2127        BC    UNCOND,GCON6          GEN ATXT FOR CONSTANT                13384021
 001448 9180 D1E8      07D80        2128 GCON8  TM    GBIT1,HFWORD                                               13391021
 00144C 4780 B5DC      01454        2129        BC    ZERO,GCON88           NOT A HALFWD INSTRUCTION             13398021
 001450 9740 D1ED      07D85        2130          XI    OPCOD,XX40                                               13405021
 001454 9150 D1ED      07D85        2131 GCON88   TM    OPCOD,XX50           RX TYPE INSTRUCTION...              13412021
 001458 47E0 B5EC      01464        2132        BC    NOTONE,GCON89          NO                                  13419021
 00145C 91A0 D1ED      07D85        2133          TM    OPCOD,XXA0                                               13426021
 001460 4780 B5F4      0146C        2134        BC    ZERO,GCON8A            YES, REQUIRES WORD BOUNDARY         13433021
 001464 91B8 D1E8      07D80        2135 GCON89   TM    GBIT1,XXB8           BINARY OR FLOATING POINT            13440021
 001468 4780 B59C      01414        2136        BC    ZERO,GCON45           GEN ATXT WITHOUT BNDRY ALLIGN        13447021
 00146C 9281 6001      00001        2137 GCON8A   MVI   DX1(OPD3),XX81       HEX FULL WORD BOUNDARY              13454021
 001470 47F0 B554      013CC        2138        BC    UNCOND,GCON6          GEN ATXT FOR CONSTANT                13461021
 001474 9270 6000      00000        2139 GBDISP   MVI   DX0(OPD3),XX70 SET UP                                    13468021
 001478 D201 6001 D15E 00001 07CF6  2140          MVC   DX1(LX2,OPD3),BDISP1 BDISP ELEMENT                       13475021
 00147E 47F0 B614      0148C        2141        BC    UNCOND,GGN1                FOR A TEXT OUTPUT               13482021
                                    2142 * GN'S, PN'S, VN'S                                                      13489021
 001482 9250 6000      00000        2143 GGN      MVI   DX0(OPD3),XX50 SET UP                                    13496021
 001486 D201 6001 D182 00001 07D1A  2144          MVC   DX1(LX2,OPD3),XGN1   GN ELEMENT                          13503021
 00148C 9180 D1E8      07D80        2145 GGN1   TM    GBIT1,HFWORD                                               13510021
 001490 4780 B630      014A8        2146        BC    ZERO,GADD3            GEN ATXT FOR DATA NAME               13517021
 001494 9101 D1E9      07D81        2147          TM    GBIT2,XX01                                               13524021
 001498 4780 B62C      014A4        2148        BC    ZERO,GGN2       BRANCH IF NOT HALFWORD                     13531021
 00149C 9750 D1ED      07D85        2149          XI    OPCOD,XX50     PUT 4 IN HI  ORDER                        13538021
 0014A0 47F0 B630      014A8        2150        BC    UNCOND,GADD3          GEN ATXT FOR DNM                     13545021
 0014A4 9740 D1ED      07D85        2151 GGN2     XI    OPCOD,XX40     PUT 5 IN HI ORDER                         13552021
 0014A8 954C 6000      00000        2152 GADD3    CLI   DX0(OPD3),PAPNREF      CHECK FOR PN AND VN REFS WHICH    13559021
 0014AC 4780 B534      013AC        2153        BE    GADD4                   HAVE EXTRA BYTE                    13566021
 0014B0 9554 6000      00000        2154          CLI   DX0(OPD3),PAVNREF                                        13573021
 0014B4 4780 B534      013AC        2155        BE    GADD4                 INCREM PTR AND GEN ATXT FOR DNM      13580021
 0014B8 4166 0003      00003        2156          LA    OPD3,DX3(OPD3)         INCREMENT POINTER                 13587021
 0014BC 47F0 B258      010D0        2157          B     GADNUM              GENERATE ATXT FOR DNM                13594021
 0014C0 924C 6000      00000        2158 GPN      MVI   DX0(OPD3),PAPNREF        SET UP PN ELEMENT               13601021
 0014C4 D202 6001 D185 00001 07D1D  2159          MVC   DX1(LX3,OPD3),XPN1+NX1                                   13608021
 0014CA 4830 D186      07D1E        2160          LH    RW3,XPN1+NX2             SET BIT ON IN PNUTBL            13615021
 0014CE 45E0 74B2      004B2        2161        BAL   RETRG,PNUSED          SET BIT ON IN TBL FOR PNUSED         13622021
 0014D2 47F0 B614      0148C        2162        BC    UNCOND,GGN1           COMPLT ATXT AND WRITE OUT            13629021
 0014D6 9254 6000      00000        2163 GVN      MVI   DX0(OPD3),PAVNREF      SET UP VN                         13636021
 0014DA D202 6001 D191 00001 07D29  2164          MVC   DX1(LX3,OPD3),XVN1+NX1         ELEMENT                   13643021
 0014E0 47F0 B614      0148C        2165        BC    UNCOND,GGN1           COMPLT ATXT AND WRITE OUT            13650021
1                           A-TEXT GENERATOR                                                                    PAGE   48
-  LOC  OBJECT CODE    ADDR1 ADDR2  STMT   SOURCE STATEMENT                                       ASM 0201 11.03 02/14/15
00014E4 9260 6000      00000        2166 GDEBUG   MVI   DX0(OPD3),XX60 GTREF1                                    13657021
 0014E8 D201 6001 D194 00001 07D2C  2167          MVC   DX1(LX2,OPD3),GDEBG1                                     13664021
 0014EE 47F0 B614      0148C        2168        BC    UNCOND,GGN1           COMPLT ATXT AND WRITE OUT            13671021
 0014F2 D201 D194 4001 07D2C 00001  2169 GGTRF1   MVC   GDEBG1(LX2),DX1(OPD1) GTREF1                             13678021
 0014F8 47F0 B66C      014E4        2170        BC    UNCOND,GDEBUG         GEN GTREF FOR DEBUG                  13685021
 0014FC D202 D188 4001 07D20 00001  2171 GGTRF2   MVC   XCNTR1(LX3),DX1(OPD1) GTREF2                             13692021
 001502 47F0 B41C      01294        2172        BC    UNCOND,GCNTR        ELEMENT                                13699021
 001506 9180 D1E8      07D80        2173 GTALLY TM    GBIT1,HFWORD                                               13706021
 00150A 4780 B69A      01512        2174        BC    ZERO,GNOLN3     BRANCH IF HALFWORD NOT WANTED              13713021
 00150E 9740 D1ED      07D85        2175          XI    OPCOD,XX40     PUT 5 IN HIGH ORDER (1 ALREADY THERE)     13720021
 001512 9260 6000      00000        2176 GNOLN3   MVI   DX0(OPD3),XX60  SET UP TALLY                             13727021
 001516 9206 6001      00001        2177          MVI   DX1(OPD3),XX06                                           13734021
 00151A 9200 6002      00002        2178          MVI   DX2(OPD3),XX00                                           13741021
 00151E 47F0 B630      014A8        2179        BC    UNCOND,GADD3          GEN ATXT FOR DNM                     13748021
 001522 9210 6001      00001        2180 GALLIT   MVI   DX1(OPD3),XX10 CONST IS BCD   NO BOUNDARY REQUIREMENT    13755021
 001526 1B99                        2181        SR      GXRA,GXRA                                                13762021
 001528 4394 0001      00001        2182          IC    GXRA,DX1(OPD1)                                           13769021
 00152C 0690                        2183        BCTR  GXRA,RW0          SUBTRACT ONE FROM GXRA                   13776021
 00152E 4490 BDF0      01C68        2184        EX    GXRA,CHNGL1     INSERT LENGTH  OF LITERAL                  13783021
 001532 4199 0001      00001        2185          LA    GXRA,DX1(GXRA)                                           13790021
 001536 47F0 B7B8      01630        2186        BC    UNCOND,GFNCON         GEN LITERAL ATXT                     13797021
 00153A 9110 D1E8      07D80        2187 GFLTLT TM    GBIT1,DBLFPT                                               13804021
 00153E 4780 B6D6      0154E        2188        BC    ZERO,GSGLFP           GEN SINGLE FLOATING PT ATXT LIT      13811021
 001542 92E0 6001      00001        2189          MVI   DX1(OPD3),XXE0 DOUBLE PRECISION FLOATING POINT CONST     13818021
 001546 4190 0007      00007        2190          LA    GXRA,DX7                                                 13825021
 00154A 47F0 B6DE      01556        2191        BC    UNCOND,GFNFPT         MOVE LIT TO OUTPUT AND GEN ATXT      13832021
 00154E 92A0 6001      00001        2192 GSGLFP   MVI   DX1(OPD3),XXA0 SINGLE PRECISION FLOATING POINT CONST     13839021
 001552 4190 0003      00003        2193          LA    GXRA,DX3                                                 13846021
 001556 4490 BDF0      01C68        2194 GFNFPT EX    GXRA,CHNGL1     MOVE FLTNG PT LIT TO  OUTPUT AREA          13853021
 00155A 4199 0001      00001        2195          LA    GXRA,DX1(GXRA)                                           13860021
 00155E 47F0 B7B8      01630        2196        BC    UNCOND,GFNCON         GEN LITERAL DEF ATXT                 13867021
                                    2197 * FIGCONS                                                               13874021
 001562 95F0 4001      00001        2198 GFGCON   CLI   DX1(OPD1),XXF0                                           13881021
 001566 4770 B70A      01582        2199        BC    NOTEQ,GFGCLN    BRANCH IF FIGCON IS NOT ZERO               13888021
 00156A 9120 D1E8      07D80        2200        TM    GBIT1,DECBIN                                               13895021
 00156E 4710 B79E      01616        2201        BC    ONES,GFGCNB     BRANCH IF FIGCON IS IN BINARY MODE         13902021
 001572 9104 D1E8      07D80        2202        TM    GBIT1,DECOP                                                13909021
 001576 4710 B78E      01606        2203        BC    ONES,GFGCND     BRANCH IF FIGCON IS IN DECIMAL MODE        13916021
 00157A 9118 D1E8      07D80        2204          TM    GBIT1,XX18                                               13923021
 00157E 4710 B766      015DE        2205        BC    ONES,GFCNFP     BRANCH IF FIGCON IS IN FLOATING POINT      13930021
 001582 9210 6001      00001        2206 GFGCLN   MVI   DX1(OPD3),XX10 CONST IS BCD NO BOUNDARY REQUIREMENT      13937021
 001586 D200 6003 4001 00003 00001  2207          MVC   DX3(LX1,OPD3),DX1(OPD1) BCD FIG CON                      13944021
 00158C 1B99                        2208        SR      GXRA,GXRA                                                13951021
 00158E 9140 D1E8      07D80        2209        TM    GBIT1,TWOADR    FIGCON EXTERNAL DEC                        13958021
 001592 4780 B74E      015C6        2210        BC    ZERO,GEXDC1     BRANCH IF THERE ARE NOT TWO ADDRESSES      13965021
 001596 9101 D1E8      07D80        2211        TM    GBIT1,GAD1DN                                               13972021
 00159A 4780 B756      015CE        2212        BC    ZERO,GEXDC2     BRANCH IF 1ST ADR IS NOT COMPLETED         13979021
 00159E 9104 D1E8      07D80        2213        TM    GBIT1,DECOP                                                13986021
 0015A2 4780 B756      015CE        2214        BC    ZERO,GEXDC2     BRANCH IF THERE ARE NOT 2 LENGTH FIELD     13993021
 0015A6 4890 D1A0      07D38        2215        LH    GXRA,XL2                                                   14000021
 0015AA 4990 C3CA      071FA        2216        CH    GXRA,XC001                                                 14007021
 0015AE 4720 B73E      015B6        2217 GEXDC4 BC    HI,GEXDC3             IF MORE THAN LEN01,ZERO FLD          14014021
 0015B2 47F0 B7B8      01630        2218        BC    UNCOND,GFNCON         GEN LITERAL DEF ATXT                 14021021
 0015B6 4B90 C3CE      071FE        2219 GEXDC3 SH    GXRA,GTWO                                                  14028021
 0015BA 4490 BDF6      01C6E        2220        EX    GXRA,CHNGL4     MOVE OTHER BCD ZEROES                      14035021
1                           A-TEXT GENERATOR                                                                    PAGE   49
-  LOC  OBJECT CODE    ADDR1 ADDR2  STMT   SOURCE STATEMENT                                       ASM 0201 11.03 02/14/15
00015BE 4199 0002      00002        2221          LA    GXRA,DX2(GXRA)                                           14042021
 0015C2 47F0 B7B8      01630        2222        BC    UNCOND,GFNCON         GEN LITERAL DEF ATXT                 14049021
 0015C6 9180 D1E9      07D81        2223 GEXDC1   TM    GBIT2,XX80                                               14056021
 0015CA 4710 B796      0160E        2224        BC    ONES,GEXDC7     BRANCH IF RELADR   LGN EQUALS 1            14063021
 0015CE 4390 D158      07CF0        2225 GEXDC2 IC    GXRA,XL1        XL1 ALREADY DECREMENTED                    14070021
 0015D2 4199 0001      00001        2226          LA    GXRA,DX1(GXRA)                                           14077021
 0015D6 9500 D158      07CF0        2227          CLI   XL1,XX00                                                 14084021
 0015DA 47F0 B736      015AE        2228        BC    UNCOND,GEXDC4         PROP ZEROS IF NEC AND GEN ATXT       14091021
 0015DE 9110 D1E8      07D80        2229 GFCNFP TM    GBIT1,DBLFPT                                               14098021
 0015E2 4780 B77A      015F2        2230        BC    ZERO,GFLPT1     BRANCH IF NOT DBL PRECISION                14105021
 0015E6 4190 0007      00007        2231          LA    GXRA,DX7                                                 14112021
 0015EA 92E0 6001      00001        2232          MVI   DX1(OPD3),XXE0 FLOATING PT  DBL WD BOUNDARY              14119021
 0015EE 47F0 B782      015FA        2233        BC    UNCOND,GFLPT2         GEN DBLWD FLOATING PT LITDEF         14126021
 0015F2 4190 0003      00003        2234 GFLPT1   LA    GXRA,DX3                                                 14133021
 0015F6 92A0 6001      00001        2235          MVI   DX1(OPD3),XXA0 FLOATING PT  FULL WD BNDRY                14140021
 0015FA 4490 BE02      01C7A        2236 GFLPT2 EX    GXRA,CHNGL5     MOVE FLOATING PT ZERO                      14147021
 0015FE 4199 0001      00001        2237          LA    GXRA,DX1(GXRA)                                           14154021
 001602 47F0 B7B8      01630        2238        BC    UNCOND,GFNCON         GEN LITERAL DEF ATXT                 14161021
 001606 920F 6003      00003        2239 GFGCND   MVI   DX3(OPD3),XX0F ID ZERO                                   14168021
 00160A 9204 6001      00001        2240          MVI   DX1(OPD3),XX04 ID CONST   NO BOUNDARY REQUIREMENT        14175021
 00160E 4190 0001      00001        2241 GEXDC7   LA    GXRA,DX1                                                 14182021
 001612 47F0 B7B8      01630        2242        BC    UNCOND,GFNCON         GEN LITERAL DEF ATXT                 14189021
 001616 9180 D1E8      07D80        2243 GFGCNB TM    GBIT1,HFWORD                                               14196021
 00161A 4780 B7AA      01622        2244        BC    ZERO,GBI1       BRANCH IF HFWORD NOT WANTED                14203021
 00161E 9740 D1ED      07D85        2245          XI    OPCOD,XX40     PUT 5 IN HI ORDER (1 ALREADY THERE)       14210021
 001622 D203 6003 C38C 00003 071BC  2246 GBI1     MVC   DX3(LX4,OPD3),GZERO FULL WD BINARY ZERO                  14217021
 001628 9288 6001      00001        2247          MVI   DX1(OPD3),XX88 BINARY FULL WORD BOUNDARY CONSTANT        14224021
 00162C 4190 0004      00004        2248          LA    GXRA,DX4                                                 14231021
 001630 9204 6000      00000        2249 GFNCON   MVI   DX0(OPD3),XX04 LTL ELEMENT                               14238021
 001634 9101 D623      081BB        2250        TM    MADCSW,MSWON          LIT POINTED TO BY AN ADCON...        14245021
 001638 4780 B7CC      01644        2251        BC    ZERO,GFNCO1            NO                                  14252021
 00163C 9210 6000      00000        2252          MVI   DX0(OPD3),XX10        YES,CHANGE TO 10 (DSPLTL ELEMEN    14259021
 001640 94FE D623      081BB        2253        NI    MADCSW,MSWOFF             RESET ADCON LIT SW               14266021
                             01644  2254 GFNCO1 EQU   *                                                          14273021
 001644 5060 D2F0      07E88        2255        ST    OPD3,GLTSAV                                                14280021
 001648 4290 D2F5      07E8D        2256          STC   GXRA,GHFWD+NX1                                           14287021
 00164C D200 6002 D2F5 00002 07E8D  2257          MVC   DX2(LX1,OPD3),GHFWD+NX1 LENGTH                           14294021
 001652 4166 0003      00003        2258          LA    OPD3,DX3(OPD3)                                           14301021
 001656 4A60 D2F4      07E8C        2259        AH    OPD3,GHFWD                                                 14308021
 00165A 5B60 D2F0      07E88        2260        S     OPD3,GLTSAV                                                14315021
 00165E 5820 D2F0      07E88        2261        L     RW2,GLTSAV                                                 14322021
 001662 1836                        2262        LR    RW3,OPD3                                                   14329021
 001664 45E0 735E      0035E        2263        BAL   RETRG,PUTLTL          UP LIT CNTR AND PUT ATXT OPTIM       14336021
 001668 5860 D2F0      07E88        2264        L     OPD3,GLTSAV                                                14343021
 00166C 9180 D1E9      07D81        2265          TM    GBIT2,XX80                                               14350021
 001670 4710 B4B0      01328        2266        BO    GRELIT               LITERAL                               14357021
 001674 9268 6000      00000        2267          MVI   DX0(OPD3),XX68 LTL ELEMENT                               14364021
 001678 D201 6001 A164 00001 00164  2268          MVC   DX1(LX2,OPD3),LTLCTR SET LIT ID NUMBER                   14371021
 00167E 4166 0003      00003        2269          LA    OPD3,DX3(OPD3)                                           14378021
 001682 47F0 B258      010D0        2270        BC    UNCOND,GADNUM         GEN ATXT ADD FOR DNM                 14385021
                                    2271 *                                                                       14392021
 001686 1B99                        2272 GNUMLT SR      GXRA,GXRA                                                14399021
 001688 4394 0001      00001        2273          IC    GXRA,DX1(OPD1)                                           14406021
 00168C 4B90 C6B8      074E8        2274        SH    GXRA,GTHREE                                                14413021
 001690 9120 D1E8      07D80        2275        TM    GBIT1,DECBIN                                               14420021
1                           A-TEXT GENERATOR                                                                    PAGE   50
-  LOC  OBJECT CODE    ADDR1 ADDR2  STMT   SOURCE STATEMENT                                       ASM 0201 11.03 02/14/15
0001694 4710 B830      016A8        2276        BC    ONES,GBILIT           IF BINARY INSTRUCTION, BRANCH        14427021
 001698 9204 6001      00001        2277          MVI   DX1(OPD3),XX04 INT DEC   NO BOUNDARY REQUIREMENT         14434021
 00169C 4490 BDFC      01C74        2278        EX    GXRA,CHNGL2     MOVE ACTUAL LITERAL                        14441021
 0016A0 4199 0001      00001        2279          LA    GXRA,DX1(GXRA)                                           14448021
 0016A4 47F0 B7B8      01630        2280        BC    UNCOND,GFNCON         GEN LITERAL DEF ATXT                 14455021
 0016A8 9507 4001      00001        2281 GBILIT   CLI   DX1(OPD1),XX07                                           14462021
 0016AC 47D0 B840      016B8        2282        BC    NOTHI,GBILT7          IF LITERAL LESS THAN 7 BYTS,BR       14469021
 0016B0 41E0 B8EE      01766        2283        LA    RETRG,GBILT8                                               14476021
 0016B4 47F0 B8B8      01730        2284        BC    UNCOND,GBILT2         IF LITERAL MORE THAN 6 BYTS,BR       14483021
 0016B8 4490 BE0E      01C86        2285 GBILT7 EX    GXRA,GZAP                 ZAP                              14490021
 0016BC 4F10 D338      07ED0        2286        CVB   GRX1,GTEMP      FROM ID TO BIN                             14497021
 0016C0 4490 BE14      01C8C        2287        EX    GXRA,GBICHG               COMPARE                          14504021
 0016C4 4740 B87E      016F6        2288        BL    GBIFUL                IF GT MAX BIN HW VALUE GEN FWD       14511021
 0016C8 4780 B85C      016D4        2289        BC    EQ,GBIHAF             IF EQ MAX HWD VAL GEN HALFWD         14518021
 0016CC 4490 BE1A      01C92        2290        EX    GXRA,GBICG2               COMPARE                          14525021
 0016D0 4720 B87E      016F6        2291        BC    HI,GBIFUL             IF LT MIN BIN HWD VAL GEN FLWD       14532021
 0016D4 9180 D1E8      07D80        2292 GBIHAF TM    GBIT1,HFWORD                                               14539021
 0016D8 4780 B868      016E0        2293        BC    ZERO,GBIHF2           IF NOT DBL FLPT,SKIP NXT             14546021
 0016DC 9750 D1ED      07D85        2294          XI    OPCOD,XX50     PUT 4 IN HI ORDER (1 ALREADY THERE)       14553021
 0016E0 9248 6001      00001        2295 GBIHF2   MVI   DX1(OPD3),XX48 BINARY HALFWORD CONSTANT                  14560021
 0016E4 4010 D1E4      07D7C        2296        STH   GRX1,GFLWD                                                 14567021
 0016E8 D201 6003 D1E4 00003 07D7C  2297          MVC   DX3(LX2,OPD3),GFLWD                                      14574021
 0016EE 4190 0002      00002        2298          LA    GXRA,DX2                                                 14581021
 0016F2 47F0 B7B8      01630        2299        BC    UNCOND,GFNCON         GEN LITERAL DEF ATXT                 14588021
 0016F6 9180 D1E8      07D80        2300 GBIFUL TM    GBIT1,HFWORD                                               14595021
 0016FA 4780 B88A      01702        2301        BC    ZERO,GBIFL2           IF NOT DBL FLPT SKIP NXT             14602021
 0016FE 9740 D1ED      07D85        2302          XI    OPCOD,XX40     PUT FIVE IN HI ORDER (1 ALREADY THERE)    14609021
 001702 9288 6001      00001        2303 GBIFL2   MVI   DX1(OPD3),XX88 BINARY FULLWORD CONSTANT                  14616021
 001706 5010 D1E4      07D7C        2304        ST    GRX1,GFLWD                                                 14623021
 00170A D203 6003 D1E4 00003 07D7C  2305          MVC   DX3(LX4,OPD3),GFLWD                                      14630021
 001710 4190 0004      00004        2306          LA    GXRA,DX4                                                 14637021
 001714 47F0 B7B8      01630        2307        BC    UNCOND,GFNCON         GEN LITERAL DEF ATXT                 14644021
 001718 902F D0F0      07C88        2308 GJOHN  STM   GRY,GR15,GSVRG                                             14651021
 00171C 4190 0009      00009        2309          LA    GXRA,DX9                                                 14658021
 001720 1841                        2310        LR    OPD1,GRX1                                                  14665021
 001722 5B40 C3D4      07204        2311        S     OPD1,GFOUR                                                 14672021
 001726 45E0 B8B8      01730        2312        BAL   RETRG,GBILT2          CONVERT DNM TO BINARY                14679021
 00172A 982F D0F0      07C88        2313        LM    GRY,GR15,GSVRG                                             14686021
 00172E 07FE                        2314        BCR   UNCOND,RETRG          RETURN TO CALLER                     14693021
 001730 1A49                        2315 GBILT2 AR    OPD1,GXRA       CONVERT                                    14700021
 001732 F874 D338 4000 07ED0 00000  2316          ZAP   GTEMP(LX8),DX0(LX5,OPD1)                                 14707021
 001738 4F00 D338      07ED0        2317        CVB   GRX,GTEMP           6 TO 10 BYTES                          14714021
 00173C 8E00 0020      00020        2318          SRDA  GRX,DX32               ID TO                             14721021
 001740 D100 D33F 4004 07ED7 00004  2319          MVN   GTEMP+NX7(LX1),DX4(OPD1) SET SIGN IN CASE OF 9 TRAILING  14728021
 001746 1B49                        2320        SR    OPD1,GXRA                                                  14735021
 001748 4B90 C6BA      074EA        2321        SH    GXRA,GFIVE                   BINARY                        14742021
 00174C 4490 BE26      01C9E        2322        EX    GXRA,GMOVE                MVO                              14749021
 001750 4F30 D338      07ED0        2323        CVB   GRY1,GTEMP                                                 14756021
 001754 5C20 C3FC      0722C        2324        M     GRY,TENPW9                                                 14763021
 001758 1E13                        2325        ALR   GRX1,GRY1                                                  14770021
 00175A 47C0 B8EA      01762        2326          BC    R12,GBILT3     BRANCH IF NO CARRY                        14777021
 00175E 4A00 C3CA      071FA        2327        AH    GRX,XC001                                                  14784021
 001762 1A02                        2328 GBILT3 AR    GRX,GRY                                                    14791021
 001764 07FE                        2329        BCR   UNCOND,RETRG          RETURN TO CALLER                     14798021
 001766 4199 0005      00005        2330 GBILT8   LA    GXRA,DX5(GXRA)                                           14805021
1                           A-TEXT GENERATOR                                                                    PAGE   51
-  LOC  OBJECT CODE    ADDR1 ADDR2  STMT   SOURCE STATEMENT                                       ASM 0201 11.03 02/14/15
000176A 4490 BDE4      01C5C        2331        EX    GXRA,GBILT4               COMPARE                          14812021
 00176E 4740 B8FE      01776        2332        BC    LO,GBIL64             IF GR THAN MAX FULLWD,GEN DBLWD      14819021
 001772 4720 B92A      017A2        2333        BC    HI,GBILT5             IF LT MAX FULLWD, TEST FURTHER       14826021
 001776 92C8 6001      00001        2334 GBIL64   MVI   DX1(OPD3),XXC8 BINARY DOUBLE WORD CONSTANT               14833021
 00177A 9180 D1E8      07D80        2335        TM    GBIT1,HFWORD                                               14840021
 00177E 4780 B90E      01786        2336        BC    ZERO,GBI64            IF NOT DBL FLPT SKIP NXT             14847021
 001782 9740 D1ED      07D85        2337          XI    OPCOD,XX40     PUT 5 IN HI ORDER  (1 ALREADY THERE)      14854021
 001786 4190 0008      00008        2338 GBI64    LA    GXRA,DX8                                                 14861021
 00178A 5000 D1E4      07D7C        2339        ST    GRX,GFLWD                                                  14868021
 00178E D203 6003 D1E4 00003 07D7C  2340          MVC   DX3(LX4,OPD3),GFLWD                                      14875021
 001794 5010 D1E4      07D7C        2341        ST    GRX1,GFLWD                                                 14882021
 001798 D203 6007 D1E4 00007 07D7C  2342          MVC   DX7(LX4,OPD3),GFLWD                                      14889021
 00179E 47F0 B7B8      01630        2343        BC    UNCOND,GFNCON         GEN LITERAL DEF ATXT                 14896021
 0017A2 4490 BDEA      01C62        2344 GBILT5 EX    GXRA,GBILT6               COMPARE                          14903021
 0017A6 4720 B8FE      01776        2345        BC    HI,GBIL64             IF LT MIN FLWD VAL,GEN DBLWD         14910021
 0017AA 47F0 B87E      016F6        2346        BC    UNCOND,GBIFUL         OTHERWISE, GEN FULLWORD              14917021
                                    2347 *                                                                       14924021
 0017AE 4120 D1ED      07D85        2348 GNOPT7 LA    RW2,OPCOD                                                  14931021
 0017B2 47F0 B976      017EE        2349        BC    UNCOND,GNOPT8         GENERATE ATXT FOR MACRO              14938021
 0017B6 4190 D1EF      07D87        2350 GNOTPT LA    GXRA,GADPAR                                                14945021
 0017BA 1B69                        2351        SR    OPD3,GXRA                                                  14952021
 0017BC 4166 0005      00005        2352          LA    OPD3,DX5(OPD3)                                           14959021
 0017C0 4060 D1EA      07D82        2353        STH   OPD3,COUNT                                                 14966021
 0017C4 5090 D150      07CE8        2354        ST    GXRA,OP3                                                   14973021
 0017C8 9140 D1E9      07D81        2355          TM    GBIT2,XX40                                               14980021
 0017CC 4710 B95A      017D2        2356        BC    ONES,GNOP04               BR TO NEXT EX INSTR              14987021
 0017D0 0660                        2357        BCTR  OPD3,RW0              SUBTRACT 1 FROM REG6.                14994021
 0017D2 4460 BE08      01C80        2358 GNOP04 EX    OPD3,CHNGL9               MOVE                             15001021
                             017D6  2359 GNOPT4 EQU   *                                                          15008021
 0017D6 9013 D130      07CC8        2360 GNOPT9 STM   RW1,RW3,GCOSAV                                             15015021
 0017DA 5810 C190      06FC0        2361        L     RW1,COSADR                                                 15022021
 0017DE 9140 D1E9      07D81        2362          TM    GBIT2,XX40                                               15029021
 0017E2 4710 B936      017AE        2363        BC    ONES,GNOPT7           FOR MACRO BRANCH                     15036021
                                    2364 *                                                                       15043021
 0017E6 47F0 75EA      005EA        2365          B     AXT017              CHECK TYPE OF INSTRUC AND ALLIGN     15050021
                             017EA  2366 AXT001   EQU   *                                                        15057021
 0017EA 4120 D1EC      07D84        2367          LA    RW2,OPCOD-NX1                                            15064021
 0017EE 4830 D1EA      07D82        2368 GNOPT8 LH    RW3,COUNT                                                  15071021
 0017F2 9140 D1E9      07D81        2369          TM    GBIT2,XX40                                               15078021
 0017F6 4710 BA12      0188A        2370        BC      ONES,GNOPT5         IF MACRO SUBTRACT 3 FROM COUNT       15085021
 0017FA 4B30 C3CE      071FE        2371        SH    RW3,GTWO                                                   15092021
 0017FE 45E0 7376      00376        2372 GNOPT6 BAL   RETRG,PUTA            WRITE OUT ATEXT                      15099021
 001802 9104 D1E9      07D81        2373          TM    GBIT2,XX04                                               15106021
 001806 4780 B9EE      01866        2374          BZ    AXT102              FINISH P2TXT,RESTOR REGS,RETURN      15113021
 00180A 9704 D1E9      07D81        2375          XI    GBIT2,XX04                                               15120021
 00180E 5860 D150      07CE8        2376          L     OPD3,OP3                                                 15127021
 001812 92D2 D1ED      07D85        2377          MVI   OPCOD,XXD2                MOVE  TEMP TO  TS2.            15134021
 001816 9203 D1EE      07D86        2378          MVI   GABS,XX03                 SET LENGTH.                    15141021
 00181A 9101 D1E9      07D81        2379          TM    GBIT2,XX01                                               15148021
 00181E 4780 B9DE      01856        2380          BZ    AXT103              IF NOT HFWD INSTRUC,BR FOR FLWD      15155021
 001822 9201 D1EE      07D86        2381          MVI   GABS,XX01                                                15162021
 001826 D203 6000 D0D6 00000 07C6E  2382 AXT104   MVC   DX0(LX4,OPD3),AXTC01       FIRST OPERAND OF MOVE.        15169021
 00182C 4166 0004      00004        2383          LA    OPD3,DX4(OPD3)                                           15176021
 001830 D502 D18B C38C 07D23 071BC  2384          CLC   PLUS1(LX3),GZERO          TAKE CARE OF PLUS ELEMENT I    15183021
 001836 4770 B9D0      01848        2385          BNE   AXT105                   ANY.                            15190021
1                           A-TEXT GENERATOR                                                                    PAGE   52
-  LOC  OBJECT CODE    ADDR1 ADDR2  STMT   SOURCE STATEMENT                                       ASM 0201 11.03 02/14/15
000183A 9280 6000      00000        2386          MVI   DX0(OPD3),XX80                                           15197021
 00183E D202 6001 D18B 00001 07D23  2387          MVC   DX1(LX3,OPD3),PLUS1                                      15204021
 001844 4166 0004      00004        2388          LA    OPD3,DX4(OPD3)                                           15211021
                                    2389 *                                                                       15218021
 001848 D203 6000 D0DA 00000 07C72  2390 AXT105   MVC   DX0(LX4,OPD3),AXTC02       2ND OPERAND OF MOVE           15225021
 00184E 4166 0004      00004        2391          LA    OPD3,DX4(OPD3)                                           15232021
 001852 47F0 B93E      017B6        2392          B     GNOTPT              FILL IN MORE ATXT                    15239021
                                    2393 *                                                                       15246021
 001856 9590 D34B      07EE3        2394 AXT103   CLI   OTPT+NX3,XX90             STM                            15253021
 00185A 4770 B9AE      01826        2395          BNE   AXT104                   NO                              15260021
 00185E 9207 D1EE      07D86        2396          MVI   GABS,XX07                 YES,SET LENGTH TO8.            15267021
 001862 47F0 B9AE      01826        2397          B     AXT104              FILL IN OPERANDS FOR ATXT            15274021
                             01866  2398 AXT102   EQU   *                                                        15281021
 001866 D707 D148 D148 07CE0 07CE0  2399          XC    OP1(LX8),OP1                                             15288021
 00186C 9200 D158      07CF0        2400          MVI   XL1,XX00                                                 15295021
 001870 D292 D159 D158 07CF1 07CF0  2401          MVC   XL1+NX1(GCNLGN),XL1                                      15302021
 001876 9200 D1EE      07D86        2402          MVI   GABS,XX00                                                15309021
 00187A D201 D1EA C6BA 07D82 074EA  2403          MVC   COUNT(LX2),GFIVE                                         15316021
 001880 9248 D1EC      07D84        2404          MVI   OPCOD-NX1,XX48                                           15323021
 001884 980F D0F0      07C88        2405        LM      GR1,GR15,GSVRG                                           15330021
 001888 07FE                        2406        BCR     UNCOND,RETRG        FIN P2TXT ELM,RESTR REGS,RETURN      15337021
 00188A 4B30 C6B8      074E8        2407 GNOPT5 SH    RW3,GTHREE                                                 15344021
 00188E 47F0 B986      017FE        2408        BC    UNCOND,GNOPT6         WRITE MACRO ATXT                     15351021
 001892 D204 D348 D1EA 07EE0 07D82  2409 GNOPT2   MVC   OTPT(LX5),COUNT                                          15358021
 001898 47F0 B95E      017D6        2410        BC    UNCOND,GNOPT4         GEN INSTRUC AND WRITE ATXT           15365021
 00189C D204 D348 D302 07EE0 07E9A  2411 GNOPT3   MVC   OTPT(LX5),GLGNCN                                         15372021
 0018A2 90E3 D3AC      07F44        2412        STM   RETRG,RW3,PUTSAV                                           15379021
 0018A6 4120 D304      07E9C        2413          LA    RW2,GLGNCN+NX2                                           15386021
 0018AA 47F0 73A0      003A0        2414        B     PUTDF4                    BR TO PUTDEF                     15393021
                             00376  2415 GOPT3C EQU   PUTA                                                       15400021
 0018AE 07FE                        2416        BCR   UNCOND,RETRG          RETURN TO CALLER                     15407021
                                    2417 * INSTRUCTION ENTRY POINTS                                              15414021
 0018B0 921A D1ED      07D85        2418 ADD      MVI   OPCOD,XX1A     AR OP CODE=1A  CHANGED IF A OR AH OR A    15421021
 0018B4 47F0 B004      00E7C        2419        BC    UNCOND,GHIBYT         GEN ATXT FOR INSTRUC                 15428021
 0018B8 921E D1ED      07D85        2420 ADDLBI   MVI   OPCOD,XX1E     ALR OP CODE=1E  CHANGED IF AL             15435021
 0018BC 47F0 B004      00E7C        2421        BC    UNCOND,GHIBYT         GEN ATXT FOR INSTRUC                 15442021
 0018C0 921F D1ED      07D85        2422 SUBLBI   MVI   OPCOD,XX1F     SLR OP CODE=1F  CHANGED IF SL             15449021
 0018C4 47F0 B004      00E7C        2423        BC    UNCOND,GHIBYT         GEN ATXT FOR INSTRUC                 15456021
 0018C8 9219 D1ED      07D85        2424 COMP     MVI   OPCOD,XX19     CR OP CODE=19   CHANGED IF C OR CH OR     15463021
 0018CC 47F0 B004      00E7C        2425        BC    UNCOND,GHIBYT         GEN ATXT FOR INSTRUC                 15470021
 0018D0 921C D1ED      07D85        2426 MULT     MVI   OPCOD,XX1C     MR OP CODE=1C  CHANGED IF M OR MH OR M    15477021
 0018D4 47F0 B004      00E7C        2427        BC    UNCOND,GHIBYT         GEN ATXT FOR INSTRUC                 15484021
 0018D8 921D D1ED      07D85        2428 DIV      MVI   OPCOD,XX1D     DR OP CODE=1D  CHANGED IF D OR DP         15491021
 0018DC 47F0 B004      00E7C        2429        BC    UNCOND,GHIBYT         GEN ATXT FOR INSTRUC                 15498021
 0018E0 9212 D1ED      07D85        2430 LTRBI    MVI   OPCOD,XX12     LTR OP CODE=12  CHANGED IF PACK           15505021
 0018E4 47F0 B004      00E7C        2431        BC    UNCOND,GHIBYT         GEN ATXT FOR INSTRUC                 15512021
 0018E8 9211 D1ED      07D85        2432 LNRBI    MVI   OPCOD,XX11     LNR OP CODE=11  CHANGED IF MVO            15519021
 0018EC 47F0 B004      00E7C        2433        BC    UNCOND,GHIBYT         GEN ATXT FOR INSTRUC                 15526021
 0018F0 9213 D1ED      07D85        2434 LCRBI    MVI   OPCOD,XX13     LCR OP CODE=13  CHANGED IF UNPACK         15533021
 0018F4 47F0 B004      00E7C        2435        BC    UNCOND,GHIBYT         GEN ATXT FOR INSTRUC                 15540021
 0018F8 924F D1ED      07D85        2436 CVBBI    MVI   OPCOD,XX4F     CVB OP CODE=4F                            15547021
 0018FC 47F0 B068      00EE0        2437        BC    UNCOND,SETRX0         GEN ATXT FOR RX INSTRUC              15554021
 001900 924E D1ED      07D85        2438 CVDBI    MVI   OPCOD,XX4E     CVD OP CODE=4E                            15561021
 001904 9220 D1E8      07D80        2439          MVI   GBIT1,XX20     WANT TO CONVERT NUMLIT TO BINARY IF AN    15568021
 001908 900F D0F0      07C88        2440        STM   GR1,GR15,GSVRG                                             15575021
1                           A-TEXT GENERATOR                                                                    PAGE   53
-  LOC  OBJECT CODE    ADDR1 ADDR2  STMT   SOURCE STATEMENT                                       ASM 0201 11.03 02/14/15
000190C 9846 D148      07CE0        2441        LM    OPD1,OPD3,OP1   LD REGS WITH OPND PTRS    3 WITH GADPA     15582021
 001910 47F0 B07A      00EF2        2442        BC    UNCOND,SETRX          GEN ATXT FOR RX INSTRUC              15589021
 001914 9216 D1ED      07D85        2443 ORLG     MVI   OPCOD,XX16     OR OP=16  CHANGE IF O,OR OC               15596021
 001918 47F0 B15C      00FD4        2444        BC    UNCOND,GHIBT1         GEN ATXT FOR LOGICL INSTRUC          15603021
 00191C 9217 D1ED      07D85        2445 EXORLG   MVI   OPCOD,XX17     XR OP=17  CHANGE IF X,OR XC               15610021
 001920 47F0 B15C      00FD4        2446        BC    UNCOND,GHIBT1         GEN ATXT FOR LOGICL INSTRUC          15617021
 001924 9214 D1ED      07D85        2447 ANDLG    MVI   OPCOD,XX14     NR OP=14  CHANGE IF N,OR NC               15624021
 001928 47F0 B15C      00FD4        2448        BC    UNCOND,GHIBT1         GEN ATXT FOR LOGICL INSTRUC          15631021
 00192C 9211 D1ED      07D85        2449 MVN      MVI   OPCOD,XX11     MVN LO ORDER OP FIELD=1                   15638021
 001930 47F0 B190      01008        2450        BC    UNCOND,GFXLSS         GEN ATXT FOR LOGICL SS INSTRUC       15645021
 001934 9292 D1ED      07D85        2451 MVI      MVI   OPCOD,XX92     MVI OP CODE =92                           15652021
 001938 47F0 BAE8      01960        2452        BC    UNCOND,GHIBT4         GEN ATXT FOR SI INSTRUC              15659021
 00193C 9295 D1ED      07D85        2453 CLI      MVI   OPCOD,XX95     CLI OP CODE=95                            15666021
 001940 47F0 BAE8      01960        2454        BC    UNCOND,GHIBT4         GEN ATXT FOR SI INSTRUC              15673021
 001944 9296 D1ED      07D85        2455 OI       MVI   OPCOD,XX96     OI OP CODE=96                             15680021
 001948 47F0 BAE8      01960        2456        BC    UNCOND,GHIBT4         GEN ATXT FOR SI INSTRUC              15687021
 00194C 9297 D1ED      07D85        2457 XI       MVI   OPCOD,XX97     XI OP CODE=97                             15694021
 001950 47F0 BAE8      01960        2458        BC    UNCOND,GHIBT4         GEN ATXT FOR SI INSTRUC              15701021
 001954 9294 D1ED      07D85        2459 NI       MVI   OPCOD,XX94     NI OP CODE=94                             15708021
 001958 47F0 BAE8      01960        2460        BC    UNCOND,GHIBT4         GENERATE ATXT FOR SI INSTRUC         15715021
 00195C 9291 D1ED      07D85        2461 TM       MVI   OPCOD,XX91     TM OP CODE=91                             15722021
 001960 900F D0F0      07C88        2462 GHIBT4 STM   GR1,GR15,GSVRG                                             15729021
 001964 9846 D148      07CE0        2463        LM    OPD1,OPD3,OP1   LD REGS WITH OPND PTRS   3 WITH GADPAR     15736021
 001968 D200 D1EE D199 07D86 07D31  2464          MVC   GABS(LX1),IMM                                            15743021
 00196E 9200 D1E8      07D80        2465          MVI   GBIT1,XX00                                               15750021
 001972 47F0 B080      00EF8        2466        BC    UNCOND,GCHKOP         GEN ATXT FOR RX OPERAND2             15757021
 001976 97E0 D1ED      07D85        2467 GDOSSD   XI    OPCOD,XXE0     PUT F IN HI ORDER (1 ALREADY THERE)       15764021
 00197A 9244 D1E8      07D80        2468          MVI   GBIT1,XX44     SET BIT FOR 2 ADR  AND DEC OP             15771021
 00197E 4890 D1A0      07D38        2469        LH    GXRA,XL2        SUBTRACT                                   15778021
 001982 0690                        2470        BCTR  GXRA,RW0               ONE FROM LENGTH2                    15785021
 001984 4290 D1EE      07D86        2471        STC   GXRA,GABS              AND STORE IN HI 4 BITS OF GABS      15792021
 001988 4890 D158      07CF0        2472        LH    GXRA,XL1        SUBTRACT                                   15799021
 00198C 0690                        2473        BCTR  GXRA,RW0               ONE FROM LENGTH1                    15806021
 00198E 4290 D158      07CF0        2474        STC   GXRA,XL1               AND STORE IN                        15813021
 001992 F100 D1EE D158 07D86 07CF0  2475          MVO   GABS(LX1),XL1(LX1)            HI 4 BITS OF GABS          15820021
 001998 47F0 B080      00EF8        2476        BC    UNCOND,GCHKOP         GEN ATXT FOR SS OPERANDS             15827021
                                    2477 *                                                                       15834021
 00199C 9213 D1ED      07D85        2478 MVZ      MVI   OPCOD,XX13     MVZ OP CODE=D3                            15841021
 0019A0 47F0 B190      01008        2479        BC    UNCOND,GFXLSS         GEN ATXT FOR LOGICL SS INSTRUC       15848021
 0019A4 921C D1ED      07D85        2480 TR       MVI   OPCOD,XX1C     TR OP CODE=DC                             15855021
 0019A8 47F0 B190      01008        2481        BC    UNCOND,GFXLSS         GEN ATXT FOR LOGICL SS INSTRUC       15862021
 0019AC 921D D1ED      07D85        2482 TRT      MVI   OPCOD,XX1D     TRT OP CODE=DD                            15869021
 0019B0 47F0 B190      01008        2483        BC    UNCOND,GFXLSS         GEN ATXT FOR LOGICL SS INSTRUC       15876021
 0019B4 921E D1ED      07D85        2484 EDIT     MVI   OPCOD,XX1E     ED OP CODE=DE                             15883021
 0019B8 47F0 B190      01008        2485        BC    UNCOND,GFXLSS         GEN ATXT FOR LOGICL SS INSTRUC       15890021
 0019BC 921F D1ED      07D85        2486 EDMARK   MVI   OPCOD,XX1F     EDMK OP CODE=DF                           15897021
 0019C0 47F0 B190      01008        2487        BC    UNCOND,GFXLSS         GEN ATXT FOR LOGICL SS INSTRUC       15904021
 0019C4 9601 D1E9      07D81        2488 LHALF    OI    GBIT2,XX01                                               15911021
 0019C8 47F0 B000      00E78        2489        BC    UNCOND,LOAD           GEN ATXT FOR LH INSTRUC              15918021
 0019CC 9601 D1E9      07D81        2490 STHALF   OI    GBIT2,XX01                                               15925021
 0019D0 47F0 B040      00EB8        2491        BC    UNCOND,STORE          GEN ATXT FOR STH INSTRUC             15932021
 0019D4 9601 D1E9      07D81        2492 SHALF    OI    GBIT2,XX01                                               15939021
 0019D8 47F0 B038      00EB0        2493        BC    UNCOND,SUB            GEN ATXT FOR SH INSTRUC              15946021
 0019DC 9601 D1E9      07D81        2494 MHALF    OI    GBIT2,XX01                                               15953021
 0019E0 47F0 BA58      018D0        2495        BC    UNCOND,MULT           GEN ATXT FOR MH INSTRUC              15960021
1                           A-TEXT GENERATOR                                                                    PAGE   54
-  LOC  OBJECT CODE    ADDR1 ADDR2  STMT   SOURCE STATEMENT                                       ASM 0201 11.03 02/14/15
00019E4 9243 D1ED      07D85        2496 IC       MVI   OPCOD,XX43     IC OP CODE=43                             15967021
 0019E8 47F0 B068      00EE0        2497        BC    UNCOND,SETRX0         GEN ATXT FOR RX INSTRUC              15974021
 0019EC 9242 D1ED      07D85        2498 STC      MVI   OPCOD,XX42     STC OP CODE=42                            15981021
 0019F0 47F0 B068      00EE0        2499        BC    UNCOND,SETRX0         GEN ATXT FOR RX INSTRUC              15988021
 0019F4 9241 D1ED      07D85        2500 LA       MVI   OPCOD,XX41     LA OP CODE=41                             15995021
 0019F8 47F0 B068      00EE0        2501        BC    UNCOND,SETRX0         GEN ATXT FOR RX INSTRUC              16002021
                                    2502 *SLA    MVI   OPCOD,X'8B'     SLA OPCODE=8B                             16009021
                                    2503 *       BC    UNCOND,SETRX0                                             16016021
                                    2504 *SRA    MVI   OPCOD,X'8A'     SRA OP CODE=8A                            16023021
                                    2505 *       BC    UNCOND,SETRX0                                             16030021
                                    2506 *SLDA   MVI   OPCOD,X'8F'     SLDA OP CODE=8F                           16037021
                                    2507 *       BC    UNCOND,SETRX0                                             16044021
 0019FC 928E D1ED      07D85        2508 SRDA     MVI   OPCOD,XX8E     SRDA OP CODE=8E                           16051021
 001A00 47F0 B068      00EE0        2509        BC    UNCOND,SETRX0         GEN ATXT FOR RX INSTRUC              16058021
                                    2510 *SLL    MVI   OPCOD,X'89'     SLL OP CODE=89                            16065021
                                    2511 *       BC    UNCOND,SETRX0                                             16072021
                                    2512 *SRL    MVI   OPCOD,X'88'     SRL OP CODE=88                            16079021
                                    2513 *       BC    UNCOND,SETRX0                                             16086021
                                    2514 *SLDL   MVI   OPCOD,X'8D'     SLDL OP CODE=8D                           16093021
                                    2515 *       BC    UNCOND,SETRX0                                             16100021
                                    2516 *SRDL   MVI   OPCOD,X'8C'     SRDL OP CODE=8C                           16107021
                                    2517 *       BC    UNCOND,SETRX0                                             16114021
                                    2518 *EX     MVI   OPCOD,X'44'     EX OP CODE=44                             16121021
                                    2519 *       BC    UNCOND,SETRX0                                             16128021
                                    2520 *BXLE   STM   GR1,GR15,GSVRG                                            16135021
                                    2521 *       LM    OPD1,OPD3,OP1   LD REGS WITH OPND PTRS  3 WITH GADPAR     16142021
                                    2522 *       BAL   RETRG,GTSTNM                                              16149021
                                    2523 *       MVI   OPCOD,X'87'     BXLE OP CODE IS 98                        16156021
                                    2524 *       BC    UNCOND,SETRSB                                             16163021
                                    2525 *       MVI   GCGBR2+1,X'87'  BXLE OP CODE                              16170021
                                    2526 *       BC    UNCOND,GOTBR2                                             16177021
                                    2527 *BXH    STM   GR1,GR15,GSVRG                                            16184021
                                    2528 *       LM    OPD1,OPD3,OP1   LD REGS WITH OPND PTRS  3 WITH GADPAR     16191021
                                    2529 *       BAL   RETRG,GTSTNM                                              16198021
                                    2530 *       MVI   OPCOD,X'86'     BXH OP CODE IS 86                         16205021
                                    2531 *       BC    UNCOND,SETRSB                                             16212021
                                    2532 *       MVI   GCGBR2+1,X'86'  BXH OP CODE                               16219021
                                    2533 *GOTBR2 MVC   GCGBR2+2(1),XREG2                                         16226021
                                    2534 *       MVO   GCGBR2+2(1),XREG1(1)                                      16233021
                                    2535 *       MVI   GCNGBR+1,X'0D'                                            16240021
                                    2536 *       MVC   COUNT(8),GCNGBR                                           16247021
                                    2537 *       MVC   COUNT+8(5),GCGBR2                                         16254021
                                    2538 *       BC    UNCOND,GNOPT9                                             16261021
 001A04 9298 D1ED      07D85        2539 LM       MVI   OPCOD,XX98     LM OP CODE=98                             16268021
 001A08 47F0 BB98      01A10        2540        BC    UNCOND,SETRS          GEN ATXT FOR RS INSTRUC              16275021
 001A0C 9290 D1ED      07D85        2541 STM      MVI   OPCOD,XX90     STM OP CODE=90                            16282021
 001A10 900F D0F0      07C88        2542 SETRS  STM   GR1,GR15,GSVRG                                             16289021
 001A14 9846 D148      07CE0        2543        LM    OPD1,OPD3,OP1   LD REGS WITH OPND PTRS  3 WITH GADPAR      16296021
 001A18 9702 D1E9      07D81        2544          XI    GBIT2,XX02                                               16303021
 001A1C D200 D1EE D1E0 07D86 07D78  2545          MVC   GABS(LX1),XREG2     LO 4 BITS OPND2 TO LO 4 BITS         16310021
 001A22 47F0 B076      00EEE        2546        BC    UNCOND,SETRX1         COMPLT ATXT FOR RS INSTRUC           16317021
 001A26 900F D0F0      07C88        2547 BRANCH STM   GR1,GR15,GSVRG                                             16324021
 001A2A 9846 D148      07CE0        2548        LM    OPD1,OPD3,OP1   LD REGS WITH OPND PTRS  3 WITH GADPAR      16331021
 001A2E 45E0 BBCA      01A42        2549        BAL   RETRG,GTSTNM          FOR BR OF PN,VN MOD DIRECT ATXT      16338021
 001A32 9207 D1ED      07D85        2550          MVI   OPCOD,XX07     BCR OP CODE IS 07   CHANGED IF BC         16345021
1                           A-TEXT GENERATOR                                                                    PAGE   55
-  LOC  OBJECT CODE    ADDR1 ADDR2  STMT   SOURCE STATEMENT                                       ASM 0201 11.03 02/14/15
0001A36 47F0 BC8C      01B04        2551        BC    UNCOND,GHBT3B         BR TO GEN ATXT FOR BRANCH            16352021
 001A3A 9207 D310      07EA8        2552          MVI   GCNGBR+NX9,XX07      BCR OP CODE                         16359021
 001A3E 47F0 BC4C      01AC4        2553        B     GOUTBR                FOR PN MOVE BR STRING TO OUTAREA     16366021
 001A42 D501 D182 C38C 07D1A 071BC  2554 GTSTNM   CLC   XGN1(LX2),GZERO                                          16373021
 001A48 4780 BBE2      01A5A        2555        BC    EQ,GTSTN2       BRANCH IF NOT GN                           16380021
 001A4C 9250 D30C      07EA4        2556          MVI   GCNGBR+NX5,XX50                                          16387021
 001A50 D201 D30D D182 07EA5 07D1A  2557          MVC   GCNGBR+NX6(LX2),XGN1                                     16394021
 001A56 47F0 E008      00008        2558          B     DX8(XR0,RETRG)      PUT OUT DIRECT A-TEXT                16401021
 001A5A D503 D190 C38C 07D28 071BC  2559 GTSTN2   CLC   XVN1(LX4),GZERO        SET VNREF CODE                    16408021
 001A60 4770 BC0A      01A82        2560        BC    NOTEQ,GTSTN3    BRANCH IF VN                               16415021
 001A64 D503 D184 C38C 07D1C 071BC  2561          CLC   XPN1(LX4),GZERO                                          16422021
 001A6A 078E                        2562        BCR   EQ,RETRG        BR IF NOT PN                               16429021
 001A6C 924C D317      07EAF        2563          MVI   GCPNVNBR+NX5,PAPNREF     INSERT PRIORITY & PN NUMBER     16436021
 001A70 D202 D318 D185 07EB0 07D1D  2564          MVC   GCPNVNBR+NX6(LX3),XPN1+NX1                               16443021
 001A76 41E0 BC64      01ADC        2565          LA    RETRG,GOUTBR2        SET 14 FOR RETURN FROM PNUSED R     16450021
 001A7A 4830 D186      07D1E        2566          LH    RW3,XPN1+NX2             GO TO MARK PNUTBL               16457021
 001A7E 47F0 74B2      004B2        2567          BC    R15,PNUSED         FOR THIS PN=                          16464021
 001A82 9254 D317      07EAF        2568 GTSTN3   MVI   GCPNVNBR+NX5,PAVNREF   INSERT PRIORITY AND               16471021
 001A86 D202 D318 D191 07EB0 07D29  2569          MVC   GCPNVNBR+NX6(LX3),XVN1+NX1         VN NUMBER             16478021
 001A8C 47F0 BC64      01ADC        2570        B     GOUTBR2               FOR VN COMPLT BR ATXT AND WRITE      16485021
 001A90 900F D0F0      07C88        2571 BRNLNK STM   GR1,GR15,GSVRG                                             16492021
 001A94 9846 D148      07CE0        2572        LM    OPD1,OPD3,OP1   LD REGS WITH OPND PTRS  3 WITH GADPAR      16499021
 001A98 45E0 BBCA      01A42        2573        BAL   RETRG,GTSTNM          FOR PN OR VN MOD DIRECT ATXT         16506021
 001A9C 9205 D1ED      07D85        2574          MVI   OPCOD,XX05     BALR OP CODE IS 05   CHANGED IF BAL       16513021
 001AA0 47F0 BC8C      01B04        2575        BC    UNCOND,GHBT3B         BR TO GEN ATXT FOR BALR              16520021
 001AA4 9205 D310      07EA8        2576          MVI   GCNGBR+NX9,XX05 BCR OP CODE                              16527021
 001AA8 47F0 BC4C      01AC4        2577        BC    UNCOND,GOUTBR         FOR PN COMPLT ATXT,MOVE TO OUT       16534021
 001AAC 900F D0F0      07C88        2578 BRNCNT STM   GR1,GR15,GSVRG                                             16541021
 001AB0 9846 D148      07CE0        2579        LM    OPD1,OPD3,OP1   LD REGS WITH OPND PTRS  3 WITH GADPAR      16548021
 001AB4 45E0 BBCA      01A42        2580        BAL   RETRG,GTSTNM          FOR PN OR VN MOD DIRECT ATXT         16555021
 001AB8 9206 D1ED      07D85        2581          MVI   OPCOD,XX06     BCTR OP CODE IS 06   CHANGED IF BCT       16562021
 001ABC 47F0 BC8C      01B04        2582        BC    UNCOND,GHBT3B         BR TO GEN ATXT FOR BCTR              16569021
 001AC0 9206 D310      07EA8        2583          MVI   GCNGBR+NX9,XX06 BCTR OP CODE                             16576021
 001AC4 45E0 79AE      009AE        2584 GOUTBR   BAL   RETRG,GDES15        DESTROY 15                           16583021
 001AC8 F100 D311 D198 07EA9 07D30  2585          MVO   GCNGBR+NX10(LX1),XREG1(LX1)                              16590021
 001ACE 920B D308      07EA0        2586          MVI   GCNGBR+NX1,XX0B                                          16597021
 001AD2 D20A D1EA D307 07D82 07E9F  2587          MVC   COUNT(LX11),GCNGBR                                       16604021
 001AD8 47F0 B95E      017D6        2588        BC    UNCOND,GNOPT9         WRITE OUT ATXT                       16611021
 001ADC 45E0 79AE      009AE        2589 GOUTBR2  BAL   RETRG,GDES15            DESTROY REG 15                   16618021
 001AE0 F100 D31D D198 07EB5 07D30  2590          MVO   GCPNVNBR+NX11(LX1),XREG1(LX1)                            16625021
 001AE6 920C D313      07EAB        2591          MVI   GCPNVNBR+NX1,XX0C         SET LENGTH                     16632021
 001AEA D20B D1EA D312 07D82 07EAA  2592          MVC   COUNT(LX12),GCPNVNBR  MOVE BRANCH STRING TO OUTPUT AR    16639021
 001AF0 47F0 B95E      017D6        2593          B     GNOPT9              WRITE OUT ATXT                       16646021
 001AF4 9228 D1ED      07D85        2594 LDFLL    MVI   OPCOD,XX28     LDR OP CODE=28  CHANGED IF LD             16653021
 001AF8 9210 D1E8      07D80        2595 GHBT2    MVI   GBIT1,XX10     DOUBLE PRECISION FLOATING POINT CONSTA    16660021
 001AFC 9608 D1E8      07D80        2596 GHIBT2   OI    GBIT1,XX08                FLOATING POINT.                16667021
 001B00 47F0 BC94      01B0C        2597        BC    UNCOND,GHIBT3         SAVE REGS AND BR TO GEN ATXT         16674021
 001B04 9200 D1E8      07D80        2598 GHBT3B   MVI   GBIT1,XX00                                               16681021
 001B08 47F0 BC9C      01B14        2599        BC    UNCOND,GHBT3C         BR TO GEN ATXT                       16688021
 001B0C 900F D0F0      07C88        2600 GHIBT3 STM   GR1,GR15,GSVRG                                             16695021
 001B10 9846 D148      07CE0        2601        LM    OPD1,OPD3,OP1   LD REGS WITH OPND PTRS   3 WITH GADPAR     16702021
 001B14 D53D D15A C38C 07CF2 071BC  2602 GHBT3C CLC   XWC1(GCNLN2),GZERO                                         16709021
 001B1A 4770 BCAE      01B26        2603        BC    NOTEQ,GSTRX3    BRANCH IF RX TYPE INSTRUCTION              16716021
 001B1E 5940 C38C      071BC        2604        C     OPD1,GZERO                                                 16723021
 001B22 4780 B050      00EC8        2605        BC    EQ,SETRR        BRANCH IF RR TYPE INSTRUCTION              16730021
1                           A-TEXT GENERATOR                                                                    PAGE   56
-  LOC  OBJECT CODE    ADDR1 ADDR2  STMT   SOURCE STATEMENT                                       ASM 0201 11.03 02/14/15
0001B26 9740 D1ED      07D85        2606 GSTRX3   XI    OPCOD,XX40     PUT 4 IN HI ORDER (0 OR 2 OR 3 THERE N    16737021
 001B2A 9500 D19A      07D32        2607          CLI   XXREG,XX00                                               16744021
 001B2E 4780 B07A      00EF2        2608        BC    EQ,SETRX              IF REG0, BR TO GEN RX DOP ATXT       16751021
 001B32 D200 D1EE D19A 07D86 07D32  2609 GFKRG    MVC   GABS(LX1),XXREG                                          16758021
 001B38 47F0 B07A      00EF2        2610        BC    UNCOND,SETRX          GENERATE ATXT FOR RX INSTRUC         16765021
 001B3C 9740 D1ED      07D85        2611 GFKRG2   XI    OPCOD,XX40                                               16772021
 001B40 47F0 BCBA      01B32        2612        BC    UNCOND,GFKRG          MOVE IN REGNO,BR TO GEN INSTRUC      16779021
 001B44 9238 D1ED      07D85        2613 LDFLS    MVI   OPCOD,XX38     LER OP CODE=38  CHANGED IF LE             16786021
 001B48 47F0 BC84      01AFC        2614        BC    UNCOND,GHIBT2         GEN FLPT ATXT INSTRUC                16793021
 001B4C 923A D1ED      07D85        2615 ADFLS    MVI   OPCOD,XX3A     AER OP CODE=3A  CHANGED IF AE             16800021
 001B50 47F0 BC84      01AFC        2616        BC    UNCOND,GHIBT2         GEN SGL FLPT ATXT INSTRUC            16807021
 001B54 922A D1ED      07D85        2617 ADFLL    MVI   OPCOD,XX2A     ADR OP CODE=2A  CHANGED IF AD             16814021
 001B58 47F0 BC80      01AF8        2618        BC    UNCOND,GHBT2          GEN DBL FLPT ATXT INSTRUC            16821021
                                    2619 *ADUNS  MVI   OPCOD,X'3E'     AUR OP CODE=3E  CHANGED IF AU             16828021
                                    2620 *       BC    UNCOND,GHIBT2                                             16835021
                                    2621 *ADUNL  MVI   OPCOD,X'2E'     AWR OP CODE=2E  CHANGED IF AW             16842021
                                    2622 *       BC    UNCOND,GHBT2                                              16849021
 001B5C 923B D1ED      07D85        2623 SUBNS    MVI   OPCOD,XX3B     SER OP CODE=3B  CHANGED IF SE             16856021
 001B60 47F0 BC84      01AFC        2624        BC    UNCOND,GHIBT2         GEN FLPT ATXT INSTRUC                16863021
 001B64 922B D1ED      07D85        2625 SUBNL    MVI   OPCOD,XX2B     SDR OP CODE=2B  CHANGED IF SD             16870021
 001B68 47F0 BC80      01AF8        2626        BC    UNCOND,GHBT2          GEN DBL FLPT ATXT INSTRUC            16877021
 001B6C 923F D1ED      07D85        2627 SUBUNS   MVI   OPCOD,XX3F     SUR OP CODE=3F  CHANGED IF SU             16884021
 001B70 47F0 BC84      01AFC        2628        BC    UNCOND,GHIBT2         GEN SNGL FLPT ATXT INSTRUC           16891021
 001B74 922F D1ED      07D85        2629 SUBUNL   MVI   OPCOD,XX2F     SWR OP CODE=2F  CHANGED IF SW             16898021
 001B78 47F0 BC80      01AF8        2630        BC    UNCOND,GHBT2          GEN DBL FLPT ATXT INSTRUC            16905021
 001B7C 9239 D1ED      07D85        2631 CMPFLS   MVI   OPCOD,XX39     CER OP CODE=39  CHANGED IF CE             16912021
 001B80 47F0 BC84      01AFC        2632        BC    UNCOND,GHIBT2         GEN SNGL FLPT ATXT INSTRUC           16919021
 001B84 9229 D1ED      07D85        2633 CMPFLL   MVI   OPCOD,XX29     CDR OP CODE=29  CHANGED IF CD             16926021
 001B88 47F0 BC80      01AF8        2634        BC    UNCOND,GHBT2          GEN DBL FLPT ATXT INSTRUC            16933021
 001B8C 90E3 D3AC      07F44        2635 PNBCD  STM   RETRG,RW3,PUTSAV                                           16940021
 001B90 4130 0001      00001        2636          LA    RW3,DX1                                                  16947021
 001B94 4120 D1EF      07D87        2637        LA    RW2,GADPAR                                                 16954021
 001B98 923C D1EF      07D87        2638          MVI   GADPAR,XX3C    PNBCD                                     16961021
 001B9C 47F0 737A      0037A        2639        B     PUTA04                    BR TO PUT A TRN                  16968021
 001BA0 900F D0F0      07C88        2640 MACRO  STM   GR1,GR15,GSVRG                                             16975021
 001BA4 9846 D148      07CE0        2641        LM    OPD1,OPD3,OP1                                              16982021
 001BA8 9240 D1E9      07D81        2642          MVI   GBIT2,XX40     HAVE MACRO                                16989021
 001BAC 9244 D1ED      07D85        2643          MVI   OPCOD,XX44     MACRO                                     16996021
 001BB0 D200 D1EE D199 07D86 07D31  2644          MVC   GABS(LX1),GMCTYP                                         17003021
 001BB6 94FE D623      081BB        2645        NI    MADCSW,MSWOFF                                              17010021
 001BBA 9518 D199      07D31        2646        CLI   GMCTYP,MADCON         ADCON...                             17017021
 001BBE 4770 B088      00F00        2647        BC    NOTEQ,GCKOP3           NO                                  17024021
 001BC2 9534 4000      00000        2648          CLI   DX0(OPD1),MANLIT                                         17031021
 001BC6 4770 B088      00F00        2649        BC    NOTEQ,GCKOP3          NOT ALPHANUM LIT,GEN PROPER ATXT     17038021
 001BCA 9601 D623      081BB        2650        OI    MADCSW,MSWON           YES, SET ADCON SW                   17045021
 001BCE 47F0 B088      00F00        2651        BC    UNCOND,GCKOP3         GEN ATXT FOR ADCON                   17052021
 001BD2 920A D1ED      07D85        2652 SVC      MVI   OPCOD,XX0A     SVC OPCODE                                17059021
 001BD6 47F0 BD66      01BDE        2653        BC    UNCOND,CNOP2          SKIP NXT TO KEEP SVC OP CODE         17066021
 001BDA 9200 D1ED      07D85        2654 CNOP     MVI   OPCOD,XX00     CNOP OP CODE                              17073021
 001BDE 900F D0F0      07C88        2655 CNOP2  STM   GR1,GR15,GSVRG                                             17080021
 001BE2 9846 D148      07CE0        2656        LM    OPD1,OPD3,OP1                                              17087021
 001BE6 D200 D1EE D199 07D86 07D31  2657          MVC   GABS(LX1),IMM                                            17094021
 001BEC 47F0 BA1A      01892        2658        BC    UNCOND,GNOPT2         WRITE OUT SVC DIRECT ATXT            17101021
 001BF0 923C D1ED      07D85        2659 MULTS    MVI   OPCOD,XX3C     MER OP CODE=3C  CHANGED IF ME             17108021
 001BF4 47F0 BC84      01AFC        2660        BC    UNCOND,GHIBT2         GEN SNGL FLPT ATXT INSTRUC           17115021
1                           A-TEXT GENERATOR                                                                    PAGE   57
-  LOC  OBJECT CODE    ADDR1 ADDR2  STMT   SOURCE STATEMENT                                       ASM 0201 11.03 02/14/15
0001BF8 922C D1ED      07D85        2661 MULTFL   MVI   OPCOD,XX2C     MDR OP CODE=2C  CHANGED IF MD             17122021
 001BFC 47F0 BC80      01AF8        2662        BC    UNCOND,GHBT2          GEN DBL FLPT ATXT INSTRUC            17129021
 001C00 923D D1ED      07D85        2663 DIVFLS   MVI   OPCOD,XX3D     DER OP CODE=3D  CHANGED IF DE             17136021
 001C04 47F0 BC84      01AFC        2664        BC    UNCOND,GHIBT2         GEN SNGL FLPT ATXT INSTRUC           17143021
 001C08 922D D1ED      07D85        2665 DIVFLL   MVI   OPCOD,XX2D     DDR OP CODE=2D  CHANGED IF DD             17150021
 001C0C 47F0 BC80      01AF8        2666        BC    UNCOND,GHBT2          GEN DBL FLPT ATXT INSTRUC            17157021
 001C10 9270 D1ED      07D85        2667 STORFS   MVI   OPCOD,XX70     STE OP CODE=70                            17164021
 001C14 47F0 B068      00EE0        2668        BC    UNCOND,SETRX0         GEN ATXT FOR RX INSTRUC              17171021
 001C18 9260 D1ED      07D85        2669 STORFL   MVI   OPCOD,XX60     STD OP CODE=60                            17178021
 001C1C 47F0 B068      00EE0        2670        BC    UNCOND,SETRX0         GEN ATXT FOR RX INSTRUC              17185021
 001C20 9224 D1ED      07D85        2671 HALVEL   MVI   OPCOD,XX24     HDR OP CODE=24                            17192021
 001C24 47F0 B048      00EC0        2672        BC    UNCOND,SETRR1         GEN ATXT FOR RR INSTRUC              17199021
 001C28 9234 D1ED      07D85        2673 HALVES   MVI   OPCOD,XX34     HER OP CODE=34                            17206021
 001C2C 47F0 B048      00EC0        2674        BC    UNCOND,SETRR1         GEN ATXT FOR RR INSTRUC              17213021
 001C30 9231 D1ED      07D85        2675 LDNEGS   MVI   OPCOD,XX31     LNER OP CODE=31                           17220021
 001C34 47F0 B048      00EC0        2676        BC    UNCOND,SETRR1         GEN ATXT FOR RR INSTRUC              17227021
                                    2677 *LDNEGL MVI   OPCOD,X'21'     LNDR OP CODE=21                           17234021
                                    2678 *       BC    UNCOND,SETRR1                                             17241021
                                    2679 *LDPOSL MVI   OPCOD,X'20'     LPDR OP CODE=20                           17248021
                                    2680 *       BC    UNCOND,SETRR1                                             17255021
                                    2681 *LDPOSS MVI   OPCOD,X'30'     LPER OP CODE=30                           17262021
                                    2682 *       BC    UNCOND,SETRR1                                             17269021
                                    2683 *LDCMPL MVI   OPCOD,X'23'     LCDR OP CODE=23                           17276021
                                    2684 *       BC    UNCOND,SETRR1                                             17283021
                                    2685 *LDCMPS MVI   OPCOD,X'33'     LCER OP CODE=33                           17290021
                                    2686 *       BC    UNCOND,SETRR1                                             17297021
 001C38 9222 D1ED      07D85        2687 LDTSTL   MVI   OPCOD,XX22     LTDR OP CODE=22                           17304021
 001C3C 47F0 B048      00EC0        2688        BC    UNCOND,SETRR1         GEN ATXT FOR RR INSTRUC              17311021
 001C40 9232 D1ED      07D85        2689 LDTSTS   MVI   OPCOD,XX32     LTER OP CODE=32                           17318021
 001C44 47F0 B048      00EC0        2690        BC    UNCOND,SETRR1         GEN ATXT FOR RR INSTRUC              17325021
 001C48 4830 A15E      0015E        2691 GNSTEP LH    GR14,FIVEGN                                                17332021
 001C4C 4133 0001      00001        2692          LA    GR14,DX1(GR14)                                           17339021
 001C50 4030 A15E      0015E        2693        STH   GR14,FIVEGN                                                17346021
 001C54 07FE                        2694        BCR   UNCOND,RETRG          RETURN TO CALLER                     17353021
 001C56 D200 6003 E000 00003 00000  2695 GCONMV   MVC   DX3(LX1,OPD3),DX0(RETRG)                                 17360021
                                    2696 *   THE FOLLOWING INSTRUCTIONS ARE EXECUTED BY THE EX INSTRUCTION       17367021
 001C5C F990 C3E6 4004 07216 00004  2697 GBILT4   CP    GFLHI(LX10),DX4(LX1,OPD1)                                17374021
 001C62 F990 C3F0 4004 07220 00004  2698 GBILT6   CP    GFLLO(LX10),DX4(LX1,OPD1)                                17381021
 001C68 D200 6003 4002 00003 00002  2699 CHNGL1   MVC   DX3(LX1,OPD3),DX2(OPD1) FOR ALPHA LIT + FLTNG PT LIT     17388021
 001C6E D200 6004 6003 00004 00003  2700 CHNGL4   MVC   DX4(LX1,OPD3),DX3(OPD3) FOR FIG CON BCD                  17395021
 001C74 D200 6003 4004 00003 00004  2701 CHNGL2   MVC   DX3(LX1,OPD3),DX4(OPD1) FOR NUM LIT                      17402021
 001C7A D200 6003 C38C 00003 071BC  2702 CHNGL5   MVC   DX3(LX1,OPD3),GZERO FOR FIG CON FLTNG PT                 17409021
 001C80 D200 D348 D1EA 07EE0 07D82  2703 CHNGL9   MVC   OTPT(LX1),COUNT                                          17416021
 001C86 F870 D338 4004 07ED0 00004  2704 GZAP     ZAP   GTEMP(LX8),DX4(LX1,OPD1)                                 17423021
 001C8C F940 C3DC 4004 0720C 00004  2705 GBICHG   CP    GHFHI(LX5),DX4(LX1,OPD1)                                 17430021
 001C92 F940 C3E1 4004 07211 00004  2706 GBICG2   CP    GHFLO(LX5),DX4(LX1,OPD1)                                 17437021
 001C98 D200 2000 D34D 00000 07EE5  2707 AXTI00   MVC   DX0(LX0,RW2),OTPT+NX5                                    17444021
 001C9E F140 D33B 4004 07ED3 00004  2708 GMOVE    MVO   GTEMP+NX3(LX5),DX4(LX1,OPD1)                             17451021
 001CA4 D200 6001 D170 00001 07D08  2709 GDC1     MVC   DX1(LX1,OPD3),XCON1                                      17458021
                             01CAA  2710 DNTOR1 EQU   *                                                          17465021
 001CAA 50E0 D558      080F0        2711 GDNCNG ST    RETRG,EXHIBP                                               17472021
 001CAE D502 3004 C69A 00004 074CA  2712          CLC   DX4(LX3,RW3),XTALLV+NX4 TEST IF TALLY                    17479021
 001CB4 4770 BE48      01CC0        2713        BC    NOTEQ,GODP5     BRANCH IF NOT TALLY                        17486021
 001CB8 9205 D15D      07CF5        2714          MVI   TALLY1,XX05                                              17493021
 001CBC 47F0 BEDA      01D52        2715        BC    UNCOND,GODP6X         GEN LOAD INSTRUC AND BR              17500021
1                           A-TEXT GENERATOR                                                                    PAGE   58
-  LOC  OBJECT CODE    ADDR1 ADDR2  STMT   SOURCE STATEMENT                                       ASM 0201 11.03 02/14/15
0001CC0 94F0 3003      00003        2716 GODP5    NI    DX3(RW3),XXF0                                            17507021
 001CC4 95B0 3003      00003        2717          CLI   DX3(RW3),XXB0       TEST MINOR CODE                      17514021
 001CC8 5030 D148      07CE0        2718        ST    RW3,OP1                                                    17521021
 001CCC 4780 BEC8      01D40        2719        BC    EQ,GODP6        BINARY                                     17528021
 001CD0 9208 D159      07CF1        2720          MVI   XL1+NX1,XX08                                             17535021
 001CD4 9230 D188      07D20        2721          MVI   XCNTR1,XX30    TEMP STORAGE OTHER THAN ARITH             17542021
 001CD8 9201 D18A      07D22        2722          MVI   XCNTR1+NX2,XX01                                          17549021
 001CDC 4720 BE8A      01D02        2723        BC    HI,GOPID        ID                                         17556021
 001CE0 D200 D1A1 3009 07D39 00009  2724          MVC   XL2+NX1(LX1),DX9(RW3)                                    17563021
 001CE6 48E0 D1A0      07D38        2725        LH    RETRG,XL2                                                  17570021
 001CEA 4BE0 C6CE      074FE        2726        SH    RETRG,XC016                                                17577021
 001CEE 4740 BE82      01CFA        2727          BL    GODPCK              IF LT 16, NO DBL PACK NEEDED         17584021
 001CF2 40E0 D1D4      07D6C        2728          STH   RETRG,PLUS2+NX1                                          17591021
 001CF6 9210 D1A1      07D39        2729          MVI   XL2+NX1,XX10                                             17598021
                             01CFA  2730 GODPCK EQU   *                                                          17605021
 001CFA 45E0 BA68      018E0        2731        BAL   RETRG,PACK      DO A PACK  GTREF2(8),DN(L2)                17612021
 001CFE 47F0 BE9E      01D16        2732        BC    UNCOND,GODP2          UP TS TO 8 AND GEN CUB ATXT          17619021
 001D02 43E3 0009      00009        2733 GOPID    IC    RETRG,DX9(RW3)                                           17626021
 001D06 88E0 0001      00001        2734          SRL   RETRG,DX1                                                17633021
 001D0A 41EE 0001      00001        2735          LA    RETRG,DX1(RETRG)                                         17640021
 001D0E 42E0 D1A1      07D39        2736          STC   RETRG,XL2+NX1                                            17647021
 001D12 45E0 B000      00E78        2737        BAL   RETRG,ZAP       DO A ZAP  GTREF2(8),DN(L2)                 17654021
 001D16 9201 D198      07D30        2738 GODP2  MVI   XREG1,XRC                                                  17661021
 001D1A D501 A16A C6C0 0016A 074F0  2739          CLC   TS2MAX(LX2),XC008                                        17668021
 001D20 4740 BEBE      01D36        2740        BC    LO,GFXTS2             IF TS2 LT 8,INCREASE TO 8            17675021
 001D24 9230 D188      07D20        2741 GFXTS3   MVI   XCNTR1,XX30                                              17682021
 001D28 9201 D18A      07D22        2742          MVI   XCNTR1+NX2,XX01                                          17689021
 001D2C 45E0 BA80      018F8        2743        BAL   RETRG,CVBBI     DO A CVB  XRC,GTREF2                       17696021
 001D30 58E0 D558      080F0        2744        L     RETRG,EXHIBP                                               17703021
 001D34 07FE                        2745        BCR   UNCOND,RETRG          RETURN TO CALLER                     17710021
 001D36 D201 A16A C6C0 0016A 074F0  2746 GFXTS2   MVC   TS2MAX(LX2),XC008                                        17717021
 001D3C 47F0 BEAC      01D24        2747        BC    UNCOND,GFXTS3         AFTER UPPING TS2,GEN CVB ATXT        17724021
 001D40 1BEE                        2748 GODP6  SR    RETRG,RETRG                                                17731021
 001D42 43E3 0009      00009        2749          IC    RETRG,DX9(RW3)                                           17738021
 001D46 49E0 C6C2      074F2        2750        CH    RETRG,XC009           DOUBLE PRECISION...                  17745021
 001D4A 47D0 BEDA      01D52        2751        BC    NOTHI,GODP6X           NO                                  17752021
 001D4E 9204 D18D      07D25        2752          MVI   PLUS1+NX2,XX04        YES, SET UP A-TEXT BUFFER FOR '    17759021
 001D52 9201 D198      07D30        2753 GODP6X MVI   XREG1,XRC                                                  17766021
 001D56 45E0 B000      00E78        2754        BAL   RETRG,LOAD      DO A LH  XRC,DN                            17773021
 001D5A 58E0 D558      080F0        2755        L     RETRG,EXHIBP                                               17780021
 001D5E 07FE                        2756        BCR   UNCOND,RETRG          RETURN TO CALLER                     17787021
                                    2757 *              END OF A-TEXT GENERATOR                                  17794021
1         IKFCBL51: COMMON I-O ANALYZER SUBROUTINES                                                             PAGE   59
-  LOC  OBJECT CODE    ADDR1 ADDR2  STMT   SOURCE STATEMENT                                       ASM 0201 11.03 02/14/15
0001D60                             2759 IKF511   CSECT                                                    42646 17808021
-
                                    2761 ***************************************************************** 42646 17822021
                                    2762 *                                                               * 42646 17829021
                                    2763 *  THIS CSECT CONTAINS NEW AND THROUGHLY REVISED COMMON SUB-    * 42646 17836021
                                    2764 *  ROUTINES USED BY THE INPUT-OUTPUT VERB ANALYZERS.            * 42646 17843021
                                    2765 *                                                               * 42646 17850021
                                    2766 ***************************************************************** 42646 17857021
0
                             01D60  2768          USING *,HCOMSR                                           42646 17871021
 001D60                             2769 SORTXSA  DS    0H                                                 42646 17878021

                                    2771 *                                                                 42646 17892021
                                    2772 * THIS ROUTINE ALLOCATES THREE XSA CELLS FOR USE BY SORT UPON     42646 17899021
                                    2773 * FIRST ENTRY, AND SETS UP THE CELL NUMBERS IN THREE HALFWORDS.   42646 17906021
                                    2774 * IT ALSO SETS UP A-TEXT FOR THE SORT AND RELEASE ANALYZERS.      42646 17913021
                                    2775 *                                                                 42646 17920021
                                    2776 * CALLED BY: SORT, RELEASE, RETURN.                               42646 17927021
                                    2777 *                                                                 42646 17934021
                                    2778 * CALLS:     N/A.                                                 42646 17941021
                                    2779 *                                                                 42646 17948021

 001D60 9101 D584      0811C        2781          TM    SORTSW1,CELLALOC    HAVE THE CELLS BEEN INITED...  42646 17962021
 001D64 4710 F044      01DA4        2782          BO    SORTXSA1            YES                            42646 17969021
                                    2783 * NOW WE MAKE SURE A WORD BOUNDARY IS MADE AVAILABLE              42646 17976021
 001D68 5030 D540      080D8        2784          ST    RW3,IOSAVE03        SAVE REG 3                     42646 17983021
 001D6C 4830 A216      00216        2785          LH    RW3,XSACTR          ENOUGH                         42646 17990021
 001D70 5730 C7D4      07604        2786          X     RW3,FWDTHR             XSA CELLS                   42646 17997021
 001D74 4133 0002      00002        2787          LA    RW3,DX2(RW3)              ARE SKIPPED              42646 18004021
 001D78 5430 C7D4      07604        2788          N     RW3,FWDTHR                   TO ENSURE             42646 18011021
 001D7C 4A30 A216      00216        2789          AH    RW3,XSACTR                      ALIGNMENT          42646 18018021
                                    2790 * INITIALIZE THE THREE CELLS USED BY SORT PROCESSING VERBS        42646 18025021
 001D80 4030 D5D4      0816C        2791          STH   RW3,XSARTRN         INITIALIZE CELL FOR RETURN     42646 18032021
 001D84 4133 0004      00004        2792          LA    RW3,DX4(RW3)                                       42646 18039021
 001D88 4030 D5D6      0816E        2793          STH   RW3,XSARLSE         INITIALIZE CELL FOR RELEASE    42646 18046021
 001D8C 4133 0004      00004        2794          LA    RW3,DX4(RW3)                                       42646 18053021
 001D90 4030 D5D2      0816A        2795          STH   RW3,XSASORT         INITIALIZE CELL FOR SORT       42646 18060021
 001D94 4133 0004      00004        2796          LA    RW3,DX4(RW3)                                       42646 18067021
 001D98 4030 A216      00216        2797          STH   RW3,XSACTR          COUNTER NOW SET                42646 18074021
 001D9C 5830 D540      080D8        2798          L     RW3,IOSAVE03                                       42646 18081021
 001DA0 9601 D584      0811C        2799          OI    SORTSW1,CELLALOC    INDICATE CELLS ALLOCATED       42646 18088021
 001DA4                             2800 SORTXSA1 DS    0H                                                 42646 18095021
 001DA4 50E0 D538      080D0        2801          ST    RETRG,IOSAVE01      SAVE REG 14                    42646 18102021
 001DA8 9102 D584      0811C        2802          TM    SORTSW1,SORTRTRN    WERE WE CALLED BY RETURN...    42646 18109021
 001DAC 4710 F05E      01DBE        2803          BO    SORTXSA2            YES, DO NOT SET UP             42646 18116021
                                    2804 * SET UP ADDRESSING PARAMETERS IN A-TEXT FOR SORT VERB            42646 18123021
 001DB0 9218 D188      07D20        2805          MVI   XCNTR1,XX18                                        42646 18130021
 001DB4 920E D198      07D30        2806          MVI   XREG1,XX0E          (14,XSACELL)                   42646 18137021
 001DB8 D201 D189 D5D2 07D21 0816A  2807          MVC   XCNTR1+NX1(LX2),XSASORT       SORT VERB            42646 18144021
 001DBE                             2808 SORTXSA2 DS    0H                                                 42646 18151021
 001DBE 98EF D538      080D0        2809          LM    RETRG,HCOMSR,IOSAVE01    RESTORE REGS              42646 18158021
 001DC2 07FE                        2810          BR    RETRG               RETURN TO CALLER               42646 18165021
1         IKFCBL51: COMMON I-O ANALYZER SUBROUTINES                                                             PAGE   60
-  LOC  OBJECT CODE    ADDR1 ADDR2  STMT   SOURCE STATEMENT                                       ASM 0201 11.03 02/14/15
1         EVAL VERB ANALYZER                                                                                    PAGE   61
-  LOC  OBJECT CODE    ADDR1 ADDR2  STMT   SOURCE STATEMENT                                       ASM 0201 11.03 02/14/15
0001DC8                             2813 IKF502   CSECT                                                          18186021
                                    2814 *                                                                       18193021
                             01DC8  2815          USING *,XRVERB                                                 18200021
 001DC8 9218 DE44      089DC        2816 VIRTDEF  MVI   DOP3,VIRTCODE                                            18207021
 001DCC D202 DE45 DDCA 089DD 08962  2817          MVC   DOP3+DX1(LX3),DOP2+DX2  GEN ATXT ELEM AS FOLLOWS...      18214021
 001DD2 D207 DE48 DD4E 089E0 088E6  2818          MVC   DOP3+DX4(LX8),DOP1+DX2  '18/DISPL/BCDNAME'               18221021
 001DD8 4130 000C      0000C        2819          LA    RW3,DX12                                                 18228021
 001DDC 4120 DE44      089DC        2820          LA    RW2,DOP3                                                 18235021
 001DE0 4500 74F2      004F2        2821          BAL   RW0,WRITE2              WRITE ATEXT                      18242021
 001DE4 47F0 700A      0000A        2822          B     PH5CTL                  RETURN TO CONTROL                18249021
                             00018  2823 VIRTCODE EQU   X'18'                                                    18256021
                             01DE8  2824          USING LSSPRO,XRVAR                                             18263021
 001DE8 1B66                        2825 LSSPRO   SR    XR6,XR6                 CALL Q-ROUTINES                  18270021
 001DEA 4363 0001      00001        2826          IC    XR6,DX1(XR3)            ** L  2,GNREF                    18277021
 001DEE 4B60 C3D6      07206        2827          SH    XR6,XC004               **  BALR  2,2                    18284021
 001DF2 1A63                        2828          AR    XR6,XR3                 AND AS MANY BALR 2,2 AS          18291021
 001DF4                             2829 LSSPR1   DS    0H                                                 37330 18298021
 001DF4 9202 D198      07D30        2830          MVI   XREG1,XX02              SPECIFIED IN ATTRIBUTE           18305021
 001DF8 D201 D182 6001 07D1A 00001  2831          MVC   XGN1(LX2),DX1(XR6)                                       18312021
 001DFE 45E0 B000      00E78        2832          BAL   XRSUB,LOAD              GEN L                            18319021
 001E02 1B11                        2833          SR    XR1,XR1                                                  18326021
 001E04 4316 0000      00000        2834          IC    XR1,DX0(XR6)                                             18333021
 001E08 4111 0001      00001        2835          LA    XR1,DX1(XR1)                                             18340021
 001E0C 45E0 7CCC      00CCC        2836          BAL   XRSUB,WRKLRG            DESTROY 14,15                    18347021
 001E10 9202 D198      07D30        2837 XSSP03   MVI   XREG1,XX02                                               18354021
 001E14 9202 D1E0      07D78        2838          MVI   XREG2,XX02                                               18361021
 001E18 45E0 BC18      01A90        2839          BAL   XRSUB,BRNLNK            BARL 2,2                         18368021
 001E1C 4610 F028      01E10        2840          BCT   XR1,XSSP03              LOOP                             18375021
 001E20 980F C420      07250        2841          LM    XR0,XR15,XGSAV1                                          18382021
 001E24 07FE                        2842          BR    XRSUB                   RETURN                           18389021
                                    2843          DROP  XRVAR                                                    18396021
1         EVAL VERB ANALYZER                                                                                    PAGE   62
-  LOC  OBJECT CODE    ADDR1 ADDR2  STMT   SOURCE STATEMENT                                       ASM 0201 11.03 02/14/15
0                            01E26  2845          USING XSUDB2,XRVAR                                             18410021
                             01E26  2846 XSUDB2   EQU   *                                                        18417021
 001E26 D20B D518 C6A8 080B0 074D8  2847          MVC   XIDBY(LX12),XC000       RESET OUTPUT AREA                18424021
 001E2C D202 C37D 3007 071AD 00007  2848          MVC   XGTEM2+DX5(LX3),XGSCIN(XR3)  PICK LENGTH FOR GROUP ITEM  18431021
                                    2849 *                                      NOT SIGNIFICANT FOR ELEMENTARY   18438021
 001E32 F300 C378 3003 071A8 00003  2850          UNPK  XGTEM2(LX1),XGMINC(LX1,XR3)                              18445021
 001E38 940F C378      071A8        2851          NI    XGTEM2,XX0F                                              18452021
 001E3C 9501 C378      071A8        2852          CLI   XGTEM2,XGGPFL                                            18459021
 001E40 4780 F0B8      01EDE        2853          BC    XZERO,XLEN00            FIXED LENGTH GROUPT              18466021
                                    2854 *                                                                       18473021
                                    2855 *                                                                       18480021
 001E44 9503 C378      071A8        2856          CLI   XGTEM2,XGALN                                             18487021
 001E48 47C0 F0C8      01EEE        2857          BC    XLOEQ,XLEN01            ALPHA ITEM                       18494021
 001E4C 9504 C378      071A8        2858          CLI   XGTEM2,XGGPVL                                            18501021
 001E50 4780 F0D2      01EF8        2859          BC    XZERO,XLEN02            VARIABLE LENGTH GROUP            18508021
 001E54 9506 C378      071A8        2860          CLI   XGTEM2,XX06                                              18515021
 001E58 47C0 F100      01F26        2861          BC    XLOEQ,XLEN06            REPORT ITEM                      18522021
 001E5C 9509 C378      071A8        2862          CLI   XGTEM2,XGEXFP                                            18529021
 001E60 4780 F0E2      01F08        2863          BC    XZERO,XLEN04            EXTRRNAL FLOATING POINT ITEM     18536021
 001E64 950A C378      071A8        2864          CLI   XGTEM2,XGINFP                                            18543021
 001E68 4780 F0EC      01F12        2865          BC    XZERO,XLEN05            INTERNAL FLOATING POINT ITEM     18550021
 001E6C 950D C378      071A8        2866          CLI   XGTEM2,XX0D                                              18557021
 001E70 4780 F10A      01F30        2867          BC    XZERO,XLEN07            STERLING NON-REPORT              18564021
 001E74 950E C378      071A8        2868          CLI   XGTEM2,XGANE                                             18571021
 001E78 4780 F118      01F3E        2869          BE    XLEN16                  ALPHANUMEEIC EDITED              18578021
                                    2870 *                                IT IS NOW A NUMERIC ITEM-BI,ID OR ED   18585021
0
 001E7C 1B11                        2872          SR    XR1,XR1                                                  18599021
 001E7E 4313 0009      00009        2873          IC    XR1,XGDGLG(XR3)         GET NUMBER OF DIGITS             18606021
 001E82 9202 D51B      080B3        2874          MVI   XBDBY+DX1,XX02                                           18613021
 001E86 4910 C3D6      07206        2875          CH    XR1,XC004                                                18620021
 001E8A 47C0 F078      01E9E        2876          BC    XLOEQ,XLEN09            HALF WORD                        18627021
 001E8E 9204 D51B      080B3        2877          MVI   XBDBY+DX1,XX04                                           18634021
 001E92 4910 C6C2      074F2        2878          CH    XR1,XC009                                                18641021
 001E96 47C0 F078      01E9E        2879          BC    XLOEQ,XLEN09            WORD                             18648021
 001E9A 9208 D51B      080B3        2880          MVI   XBDBY+DX1,XX08          DOUBLE WORD                      18655021
                                    2881 *                                                                       18662021
                                    2882 *                                                                       18669021
 001E9E 4010 D51C      080B4        2883 XLEN09   STH   XR1,XIDDN               SET NUMBER OF DIGIT CELL         18676021
 001EA2 8A10 0001      00001        2884          SRA   XR1,DX1                 SET ID LENGTH                    18683021
 001EA6 4111 0001      00001        2885          LA    XR1,DX1(XR1)            X                                18690021
 001EAA 4010 D518      080B0        2886          STH   XR1,XIDBY               Z                                18697021
 001EAE D201 D522 D51A 080BA 080B2  2887          MVC   XOPLGH+DX2(LX2),XBDBY                                    18704021
 001EB4 950B C378      071A8        2888          CLI   XGTEM2,XGBINR           BINARY                           18711021
 001EB8 4780 F0B2      01ED8        2889          BC    XZERO,XLEN10            EXIT                             18718021
 001EBC 9507 C378      071A8        2890          CLI   XGTEM2,XX07             INDEX DATA ITEM...               18725021
 001EC0 4780 F0B2      01ED8        2891          BE    XLEN10              YES                                  18732021
 001EC4 D201 D522 D518 080BA 080B0  2892          MVC   XOPLGH+DX2(LX2),XIDBY                                    18739021
 001ECA 950C C378      071A8        2893          CLI   XGTEM2,XGINDC                                            18746021
 001ECE 4780 F0B2      01ED8        2894          BE    XLEN10              YES                                  18753021
 001ED2 D201 D522 D51C 080BA 080B4  2895          MVC   XOPLGH+DX2(LX2),XIDDN       ED                           18760021
                                    2896 *                                                                       18767021
                                    2897 *                                                                       18774021
 001ED8 980F C460      07290        2898 XLEN10   LM    XR0,XR15,XGSAV3                                          18781021
1         EVAL VERB ANALYZER                                                                                    PAGE   63
-  LOC  OBJECT CODE    ADDR1 ADDR2  STMT   SOURCE STATEMENT                                       ASM 0201 11.03 02/14/15
0001EDC 07FE                        2899          BCR   UNCON,XRSUB             X                                18788021
0
 001EDE D401 C37C C3CA 071AC 071FA  2901 XLEN00  NC    XGTEM2+DX4(LX2),XC001    FIXED LENGTH GROUOP LENGTH       18802021
 001EE4 D203 D520 C37C 080B8 071AC  2902 XLEN14   MVC   XOPLGH(LX4),XGTEM2+DX4       X                           18809021
 001EEA 47F0 F0B2      01ED8        2903          B     XLEN10              *                                    18816021
0
 001EEE D401 C37C C6A8 071AC 074D8  2905 XLEN01   NC    XGTEM2+DX4(LX2),XC000                                    18830021
 001EF4 47F0 F0BE      01EE4        2906          BC    UNCON,XLEN14            ALPHA ITEM LENGTH                18837021
0
 001EF8 D402 C37C C389 071AC 071B9  2908 XLEN02   NC    XGTEM2+DX4(LX3),XSUMK5                                   18851021
 001EFE D201 D51E C37E 080B6 071AE  2909          MVC   XOPVLC(LX2),XGTEM2+NX6  VALIABLE LENGTH GROUP            18858021
 001F04 47F0 F0B2      01ED8        2910          BC    UNCON,XLEN10            EXIT                             18865021
0
 001F08 D402 C37C C6A8 071AC 074D8  2912 XLEN04   NC    XGTEM2+DX4(LX3),XC000        EXTERNAL FLOATING POINT     18879021
 001F0E 47F0 F0BE      01EE4        2913          BC    UNCON,XLEN14            EXIT                             18886021
0
 001F12 9204 D523      080BB        2915 XLEN05   MVI   XOPLGH+DX3,XX04         INTERNAL FLOATING POINT          18900021
 001F16 9101 3009      00009        2916          TM    XGDGLG(XR3),XX01                                         18907021
 001F1A 4780 F0B2      01ED8        2917        BC    XZERO,XLEN10              EXIT                             18914021
                                    2918 *                                                                       18921021
 001F1E 9208 D523      080BB        2919 XLEN15   MVI   XOPLGH+DX3,XX08                                          18928021
 001F22 47F0 F0B2      01ED8        2920          BC    UNCON,XLEN10            X                                18935021
0
 001F26 D200 D523 300B 080BB 0000B  2922 XLEN06   MVC   XOPLGH+DX3(LX1),DX11(XR3)                                18949021
 001F2C 47F0 F0B2      01ED8        2923          BC    UNCON,XLEN10            REPORT ITEM                      18956021
0
                             01F30  2925 XLEN07   EQU   *                                                        18970021
 001F30 D200 D523 300A 080BB 0000A  2926          MVC   XOPLGH+DX3(LX1),DX10(XR3)                                18977021
 001F36 941F D523      080BB        2927          NI    XOPLGH+DX3,XX1F         STERLING NON-REPOT               18984021
 001F3A 47F0 F0B2      01ED8        2928          BC    UNCON,XLEN10            EXIT                             18991021
 001F3E D201 D522 3009 080BA 00009  2929 XLEN16   MVC   XOPLGH+DX2(LX2),DX9(XR3)                                 18998021
 001F44 47F0 F0B2      01ED8        2930          B     XLEN10                  ALPHANUM.EDIT.PICK UP LENGTH     19005021
1         IKFCBL51: NONNUMERIC COMPARE VERB ANALYZER                                                            PAGE   64
-  LOC  OBJECT CODE    ADDR1 ADDR2  STMT   SOURCE STATEMENT                                       ASM 0201 11.03 02/14/15
0                                   2932 *DEL                                                                    19019021
                                    2933 *DEL                                                                    19026021
 001F48                             2934 IKF50G   CSECT                                                    P6232 19033021
                                    2935 *DEL                                                                    19040021
                                    2936 *DEL                                                                    19047021
                                    2937 *DEL                                                                    19054021
                                    2938 *DEL                                                                    19061021
                                    2939 *                                                                       19068021
                                    2940 *            A SEPERATE ENTRY POINT EXISTS FOR EACH TYPE OF IF...IE     19075021
                                    2941 *      EQ, NOT EQ, LT, NOT LT, GT, NOT GT.                              19082021
                                    2942 *                                                                       19089021
                                    2943 *            AT EACH ENTRY POINT THE ADDRESS OF THE TABLE FOR THAT      19096021
                                    2944 *      TYPE OF COMPARISON IS PUT INTO RW6. THEN CONTROL IS GIVEN TO     19103021
                                    2945 *      THE COMMON IF ANALYZER.                                          19110021
                                    2946 *                                                                       19117021
                                    2947 *            AFTER ANALYSIS OF OPERANDS IS COMPLETE CONTROL IS GIVE     19124021
                                    2948 *      TO IMGEN WHICH GENERATES INSTRUCTIONS FOR BOTH ALPHANUMERIC      19131021
                                    2949 *      MOVE AND IF.                                                     19138021
                                    2950 *                                                                       19145021
                                    2951 *            THERE ARE ALWAYS THREE OPDS SUPPLIED. OPDS 1 AND 2 ARE     19152021
                                    2952 *      THE OPDS TO BE COMPARED. OPD3 IS THE GN TO BE BRANCHED TO IF     19159021
                                    2953 *      THE CONDITION INDICATED BY THE VERB IS MET.                      19166021
                                    2954 *                                                                       19173021
                                    2955 *            P2TEXT      VERB OPD1,OPD2,GN                              19180021
                                    2956 *                                                                       19187021
                                    2957 *                        VERB IS EQ, NEQ, LT, NLT, GT, NGT              19194021
                                    2958 *                                                                       19201021
                                    2959 *                        OPD1 IS A FIGCON, ALPHA LITERAL, GROUP DAT     19208021
                                    2960 *                             OR ALPHA DATA                             19215021
                                    2961 *                                                                       19222021
                                    2962 *                        OPD2 IS AS OPD1                                19229021
                                    2963 *                                                                       19236021
                                    2964 *                                                                       19243021
                                    2965 *            IF OPD1 IS A FIGCON IT IS SWAPPED WITH THE SECOND OPD.     19250021
                                    2966 *            IF OPD1 IS LONGER THAN OPD2 THEN THE OPDS ARE SWAPPED      19257021
                                    2967 *            WHENEVER OPDS ARE SWAPPED THE RELATIONAL IS INVERTED.      19264021
                                    2968 *      IS ACCOMPLISHED BY CHANGING THE ADDR IN RW6. THIS IS DONE BY     19271021
                                    2969 *      LOADING RW6 WITH THE FIRST WORD OF TABLE ADDRESSED AT THAT T     19278021
                                    2970 *      BY RW6. SINCE THE FIRST WORD OF EACH TABLE CONTAINS THE ADDR     19285021
                                    2971 *      OF THE TABLE FOR THE OPPOSITE RELATIONAL THE EFFECT OF INVER     19292021
                                    2972 *      RELATIONALS IS ACCOMPLISHED.                                     19299021
                                    2973 *                                                                       19306021
                                    2974 *            IF THE LENGTH OF OPD2 IS GREATER THAN OPD1 THEN IF THE     19313021
                                    2975 *      FIRST BYTE OF THE TABLE ADDRESSED BY RW6 IS ZERO THE EXCESS      19320021
                                    2976 *      LENGTH OF THE SECOND OPD IS IGNORED. SUCH WOULD BE THE CASE,     19327021
                                    2977 *     FOR EXAMPLE, IF THE INPUT WERE  'GT A,B,GN' WHERE THE LENGTH      19334021
                                    2978 *      B IS GREATER THAN THE LENGTH OF A. IN THE SUBJECT CASE A IS      19341021
                                    2979 *      GREATER THAN B  ONLY IF BY COMPARING THE NUMBER OF BYTES COM     19348021
                                    2980 *      TO BOTH A AND B YIELD A GT B. IF THE RELATION WERE LT THAN T     19355021
                                    2981 *      EXCESS IN B WOULD HAVE TO BE COMPARED IF THE COMPARISON OF T     19362021
                                    2982 *      COMMON BYTES YIELDS AN EQUAL.                                    19369021
                                    2983 *                                                                       19376021
                                    2984 *            THE USE OF THE TABLE IS INDICATED BY THE COMMENTS WITH     19383021
                                    2985 *      DEFINITION OF TABLES.                                            19390021
                                    2986 *DEL                                                                    19397021
1         IKFCBL51: NONNUMERIC COMPARE VERB ANALYZER                                                            PAGE   65
-  LOC  OBJECT CODE    ADDR1 ADDR2  STMT   SOURCE STATEMENT                                       ASM 0201 11.03 02/14/15
0                                   2987 *                                                                       19404021
                                    2988 *NOTE........ALL LABELS ASSOCIATED SOLELY WITH THE ALPHA IF PROCESS     19411021
                                    2989 *            BEGIN WITH THE CHARACTER 'IF'.                             19418021
                                    2990 *                                                                       19425021
                                    2991 *            LABELS IN THE COMMON IF-MOVE ROUTINES BEGIN WITH THE       19432021
                                    2992 *            CHARACTERS 'IM'.                                           19439021
                                    2993 *                                                                       19446021
1         IKFCBL51: NONNUMERIC COMPARE VERB ANALYZER                                                            PAGE   66
-  LOC  OBJECT CODE    ADDR1 ADDR2  STMT   SOURCE STATEMENT                                       ASM 0201 11.03 02/14/15
0                            01F48  2995        USING *,GVERB                                                    19460021
 001F48 4160 CC44      07A74        2996 PEQNNU LA    RW6,IFEQT                                                  19467021
 001F4C 47F0 902C      01F74        2997        BC    UNCOND,IFANAL         BR TO INIT ANALYZE RTN               19474021
                             01F50  2998        USING *,GVERB                                                    19481021
 001F50 4160 CC50      07A80        2999 NEQNNU LA    RW6,IFNEQT                                                 19488021
 001F54 47F0 9024      01F74        3000        BC    UNCOND,IFANAL         BR TO INIT ANALYZE RTN               19495021
                             01F58  3001        USING *,GVERB                                                    19502021
 001F58 4160 CC68      07A98        3002 PGTNNU LA    RW6,IFGTT                                                  19509021
 001F5C 47F0 901C      01F74        3003        BC    UNCOND,IFANAL         BR TO INIT ANALYZE RTN               19516021
                             01F60  3004        USING *,GVERB                                                    19523021
 001F60 4160 CC74      07AA4        3005 NGTNNU LA    RW6,IFNGTT                                                 19530021
 001F64 47F0 9014      01F74        3006        BC    UNCOND,IFANAL         BR TO INIT ANALYZE RTN               19537021
                             01F68  3007        USING *,GVERB                                                    19544021
 001F68 4160 CC80      07AB0        3008 PLTNNU LA    RW6,IFLTT                                                  19551021
 001F6C 47F0 900C      01F74        3009        BC    UNCOND,IFANAL         BR TO INIT ANALYZE RTN               19558021
                             01F70  3010        USING *,GVERB                                                    19565021
 001F70 4160 CC5C      07A8C        3011 NLTNNU LA    RW6,IFNLTT                                                 19572021
                                    3012 *                                                                       19579021
                                    3013 *                        COMMON ANALYSIS FOR IF                         19586021
                                    3014 *                                                                       19593021
 001F74 0590                        3015 IFANAL BALR  GVERB,RW0             ESTABLISH ADDRESSABILITY REG9        19600021
                             01F76  3016        USING *,GVERB                                                    19607021
 001F76 D20D D42C D44C 07FC4 07FE4  3017          MVC   IMCONS(LX14),IFCONS   SET COMMON AREA TO 'IF'            19614021
 001F7C 9101 A1A3      001A3        3018          TM    PHZSW,ZWB           STRIP SIGN                           19621021
 001F80 4780 90D0      02046        3019          BZ    IFANAL2             NO                                   19628021
 001F84 4120 DD4C      088E4        3020          LA    RW2,DOP1                                                 19635021
 001F88 45E0 77F0      007F0        3021          BAL   XRSUB,CALCLG        GET MINOR CODE OF DOP1               19642021
 001F8C 47F0 700A      0000A        3022          B     PH5CTL              ERROR CONDITION                      19649021
 001F90 D200 C6E6 D5ED 07516 08185  3023          MVC   SAVTYP(LX1),DNMINR  SAVE DOP1 TYPE                       19656021
 001F96 9508 D5ED      08185        3024          CLI   DNMINR,XGEXDC       IS DOP1 ED                           19663021
 001F9A 4770 906E      01FE4        3025          BNE   IFANAL1             NO                                   19670021
 001F9E 4120 DDC8      08960        3026          LA    RW2,DOP2                                                 19677021
 001FA2 45E0 77F0      007F0        3027          BAL   XRSUB,CALCLG        GET DOP2 TYPE                        19684021
 001FA6 47F0 700A      0000A        3028          B     PH5CTL              ERROR CONDITION                      19691021
 001FAA 9504 D5ED      08185        3029          CLI   DNMINR,XGGPVL       IS DOP2 VAR LEN GRP                  19698021
 001FAE 4780 9058      01FCE        3030          BE    IFANAL3             YES                                  19705021
 001FB2 9501 D5ED      08185        3031          CLI   DNMINR,XGGPFL       IS DOP2 FIX LEN GRP                  19712021
 001FB6 4780 9058      01FCE        3032          BE    IFANAL3             YES                                  19719021
 001FBA 4120 DD4C      088E4        3033          LA    RW2,DOP1            NO,                                  19726021
 001FBE 45E0 77F0      007F0        3034          BAL   XRSUB,CALCLG        RESET LENGTH FIELD                   19733021
 001FC2 47F0 700A      0000A        3035          B     PH5CTL                 IMPOSSIBLE CONDITION              19740021
 001FC6 45E0 93C0      02336        3036          BAL   XRSUB,CNVNUM        YES, MOVE IT TO TS2 AND TREAT        19747021
 001FCA 47F0 90D0      02046        3037          B     IFANAL2             IT AS THOUGH IT WERE ALPHANUM        19754021
 001FCE                             3038 IFANAL3  DS    0H                                                       19761021
 001FCE 940F DD4F      088E7        3039          NI    DOP1+XGMINC,XX0F    CHANGE DOP1 TO ALPHANUMERIC          19768021
 001FD2 9630 DD4F      088E7        3040          OI    DOP1+XGMINC,XX30                                         19775021
 001FD6 94FE DD53      088EB        3041          NI    DOP1+XGSCIN,XXFE                                         19782021
 001FDA D700 DD54 DD54 088EC 088EC  3042          XC    DOP1+XGSCAL(LX1),DOP1+XGSCAL                             19789021
 001FE0 47F0 90D0      02046        3043          B     IFANAL2             CONTINUE                             19796021
 001FE4                             3044 IFANAL1  DS    0H                                                       19803021
 001FE4 4120 DDC8      08960        3045          LA    RW2,DOP2                                                 19810021
 001FE8 45E0 77F0      007F0        3046          BAL   XRSUB,CALCLG        GET MINOR CODE OF DOP2               19817021
 001FEC 47F0 700A      0000A        3047          B     PH5CTL              ERROR CONDITION                      19824021
 001FF0 9508 D5ED      08185        3048          CLI   DNMINR,XGEXDC       IS DOP2 ED                           19831021
 001FF4 4770 90D0      02046        3049          BNE   IFANAL2             NO                                   19838021
1         IKFCBL51: NONNUMERIC COMPARE VERB ANALYZER                                                            PAGE   67
-  LOC  OBJECT CODE    ADDR1 ADDR2  STMT   SOURCE STATEMENT                                       ASM 0201 11.03 02/14/15
0001FF8 9504 C6E6      07516        3050          CLI   SAVTYP,XGGPVL       IS DOP1 VAR LEN GRP                  19845021
 001FFC 4780 90BE      02034        3051          BE    IFANAL4             YES                                  19852021
 002000 9501 C6E6      07516        3052          CLI   SAVTYP,XGGPFL       IS DOP1 FIX LEN GRP                  19859021
 002004 4780 90BE      02034        3053          BE    IFANAL4             YES                                  19866021
 002008 D77B DD4C DDC8 088E4 08960  3054          XC    DOP1(LDOP),DOP2     YES, SWITCH DOPS FOR CNVNUM          19873021
 00200E D77B DDC8 DD4C 08960 088E4  3055          XC    DOP2(LDOP),DOP1                                          19880021
 002014 D77B DD4C DDC8 088E4 08960  3056          XC    DOP1(LDOP),DOP2                                          19887021
 00201A 45E0 93C0      02336        3057          BAL   XRSUB,CNVNUM        MOVE DOP2 TO TS2 AND TREAT IT        19894021
 00201E D77B DD4C DDC8 088E4 08960  3058          XC    DOP1(LDOP),DOP2     AS THOUGH IT WERE ALPHANUMERIC       19901021
 002024 D77B DDC8 DD4C 08960 088E4  3059          XC    DOP2(LDOP),DOP1     RESET DOPS                           19908021
 00202A D77B DD4C DDC8 088E4 08960  3060          XC    DOP1(LDOP),DOP2                                          19915021
 002030 47F0 90D0      02046        3061          B     IFANAL2             CONTINUE                             19922021
 002034                             3062 IFANAL4  DS    0H                                                       19929021
 002034 940F DDCB      08963        3063          NI    DOP2+XGMINC,XX0F    CHANGE DOP2 TO ALPHANUMERIC          19936021
 002038 9630 DDCB      08963        3064          OI    DOP2+XGMINC,XX30                                         19943021
 00203C 94FE DDCF      08967        3065          NI    DOP2+XGSCIN,XXFE                                         19950021
 002040 D700 DDD0 DDD0 08968 08968  3066          XC    DOP2+XGSCAL(LX1),DOP2+XGSCAL                             19957021
 002046                             3067 IFANAL2  DS    0H                                                       19964021
 002046 45E0 962C      025A2        3068        BAL   RETRG,IMINIT     EXECUTE INIT RTN... LISTED ABOUT 6 PA     19971021
                                    3069 *                               HENCE                                   19978021
 00204A 9045 D478      08010        3070        STM   RW4,RW5,IMPTR1   SAVE OPD PTRS                             19985021
 00204E 4780 9100      02076        3071        BC    EQ,IFEQ          BR IF L2 EQ L1                            19992021
 002052 4720 90F4      0206A        3072        BC    HI,IFHI          BR IF L2 GT L1                            19999021
                                    3073 *                                                                       20006021
                                    3074 *                                                                       20013021
                                    3075 *                                                                       20020021
                                    3076 *                        RTN FOR L2 LT L1                               20027021
                                    3077 *                                                                       20034021
                                    3078 *                                                                       20041021
 002056 1804                        3079          LR    RW0,RW4             SWAP OPD PTRS                        20048021
 002058 1845                        3080        LR    RW4,RW5                                                    20055021
 00205A 1850                        3081        LR    RW5,RW0                                                    20062021
 00205C 5866 0000      00000        3082          L     RW6,DX0(RW6) SWAP RELATIONAL (SEE COMMENTS FOR SAME OPE  20069021
 002060 1801                        3083        LR    RW0,RW1          IN IMINIT RTN AT LABEL 'IMSWAP')          20076021
 002062 1812                        3084        LR    RW1,RW2     SWAP LENGTHS                                   20083021
 002064 1820                        3085        LR    RW2,RW0                                                    20090021
                                    3086 *                                                                       20097021
 002066 9045 D478      08010        3087        STM   RW4,RW5,IMPTR1   SAVE OPD PTRS                             20104021
                                    3088 *                        RTN FOR L2 GT L1                               20111021
                                    3089 *                                                                       20118021
 00206A                             3090 IFHI     DS    0H                                                       20125021
 00206A 5030 D468      08000        3091        ST    RW3,IMLFC        SAVE NUMBER OF EXCESS CHARS               20132021
 00206E 5010 D470      08008        3092        ST    RW1,IMIFC2       SAVE DISPLACEMENT OF EXCESS CHARS         20139021
 002072 47F0 9124      0209A        3093        BC    UNCOND,IFSVL1         NORMAL PROCESS OF IF VERB            20146021
                                    3094 *                                                                       20153021
                                    3095 *                        RTN  FOR  L1 EQ L2                             20160021
                                    3096 *                                                                       20167021
                                    3097 *                                                                       20174021
 002076                             3098 IFEQ     DS    0H                                                       20181021
 002076 9575 5000      00000        3099          CLI   DX0(RW5),XX75   TEST IF OPD2 IF FIGCON                   20188021
 00207A 4770 9124      0209A        3100        BC    NOTEQ,IFSVL1      BR IF NO                                 20195021
 00207E 5010 D468      08000        3101        ST    RW1,IMLFC        SAVE NUMBER OF CHARS TO BE COMPARED       20202021
 002082 5040 D47C      08014        3102        ST    RW4,IMPTR2       SET OPD PTRS BOTH TO POINT TO OPD1        20209021
 002086 4B60 D4BC      08054        3103        SH    RW6,H4           SUBTRACT FROM RW6 TO COMPENSATE FOR       20216021
                                    3104 *                                LA BELOW WHICH IS NOT WANTED IN        20223021
1         IKFCBL51: NONNUMERIC COMPARE VERB ANALYZER                                                            PAGE   68
-  LOC  OBJECT CODE    ADDR1 ADDR2  STMT   SOURCE STATEMENT                                       ASM 0201 11.03 02/14/15
0                                   3105 *                                THIS CASE                              20230021
 00208A 910D 6004      00004        3106          TM    DX4(RW6),XX0D      NOT EQUAL COMPARISON                  20237021
 00208E 4780 915E      020D4        3107          BZ    IFGENF              YES                                  20244021
 002092 4610 913E      020B4        3108        BCT   RW1,IFGENE       BR IF MORE THAN ONE CHAR TO COMPARE       20251021
 002096 47F0 915E      020D4        3109          BC    R15,IFGENF      BR IF ONE CHAR TO COMPARE                20258021
 00209A 5010 D45C      07FF4        3110 IFSVL1 ST    RW1,IMLCH        SAVE NUMBER OF CHARS TO BE COMPARED       20265021
 00209E 910D 6000      00000        3111          TM    DX0(RW6),XX0D       NOT EQUAL COMPARISON                 20272021
 0020A2 4780 915E      020D4        3112          BZ    IFGENF              YES                                  20279021
 0020A6 4910 D4BE      08056        3113        CH    RW1,H256         TEST IF THERE ARE EITHER GT 256 COMMO     20286021
 0020AA 4720 913E      020B4        3114        BC    HI,IFGENE          CHARS OR THERE IS A NON-ZERO EXCESS     20293021
 0020AE 1233                        3115        LTR   RW3,RW3                                                    20300021
 0020B0 4780 915E      020D4        3116        BC    ZERO,IFGENF           IF NO EXCESS CHARS SKIP THIS         20307021
 0020B4 9201 C388      071B8        3117 IFGENE   MVI   XREGNO,XX01                                              20314021
 0020B8 45E0 BDD0      01C48        3118        BAL   RETRG,GNSTEP          GENERATE GN NUMBER                   20321021
 0020BC D201 D305 A15E 07E9D 0015E  3119          MVC   GLGNCN+NX3(LX2),FIVEGN                                   20328021
 0020C2 D201 D182 A15E 07D1A 0015E  3120          MVC   XGN1(LX2),FIVEGN                                         20335021
 0020C8 9201 D198      07D30        3121          MVI   XREG1,XX01                                               20342021
 0020CC 45E0 B000      00E78        3122        BAL   RETRG,LOAD       GENERATE            L    1,GN2            20349021
 0020D0 9601 D474      0800C        3123          OI    IMIFSW,XX01          WHERE GN2 IS CREATED AT THIS POI    20356021
 0020D4 9202 C388      071B8        3124 IFGENF   MVI   XREGNO,XX02                                              20363021
 0020D8 D201 D182 DE45 07D1A 089DD  3125          MVC   XGN1(LX2),DOP3+NX1 GENERATE            L    2,GN1 OR PN  20370021
 0020DE 9202 D198      07D30        3126          MVI   XREG1,XX02            WHERE GN1 IS OPD3 AS GIVEN BY P    20377021
 0020E2 45E0 B000      00E78        3127        BAL   RETRG,LOAD            GENERATE LOAD ATEXT                  20384021
 0020E6 4166 0004      00004        3128          LA    RW6,DX4(RW6)    STEP RW6 TO POINT PAST ADCON IN TABLE    20391021
 0020EA D203 D480 D47C 08018 08014  3129        MVC   IMPTR3,IMPTR2                                              20398021
 0020F0 47F0 9536      024AC        3130        BC    UNCOND,IMGEN     GO TO COMMON RTN FOR IF AND MOVE ALPH     20405021
1         IKFCBL51: NONNUMERIC MOVE VERB ANALYZER                                                               PAGE   69
-  LOC  OBJECT CODE    ADDR1 ADDR2  STMT   SOURCE STATEMENT                                       ASM 0201 11.03 02/14/15
0                                   3132 *                                                                       20419021
                                    3133 *=1    ANALYZER FOR ALPHANUMERIC MOVE                                   20426021
                                    3134 *                                                                       20433021
                                    3135 *            THIS ANALYZER IS GIVEN CONTROL BY THE MOVE ANALYZER WH     20440021
                                    3136 *      IT DETERMINES THAT A CHARACTER MOVE IS CALLED FOR.               20447021
                                    3137 *                                                                       20454021
                                    3138 *            AFTER ANALYSIS OF THE OPDS CONTROL IS GIVEN TO IMGEN       20461021
                                    3139 *      WHICH GENERATES INSTRUCTIONS FOR BOTH ALPHANUMERIC MOVE AND      20468021
                                    3140 *                                                                       20475021
                                    3141 *            THE INPUT ALWAYS CONTAINS TWO OPDS. OPD2 IS ALWAYS A       20482021
                                    3142 *      DATA-NAME. OPD1 IS EITHER A LITERAL, FIGCON, OR DATA-NAME.       20489021
                                    3143 *                                                                       20496021
                                    3144 *                                                                       20503021
                                    3145 *NOTE........ALL LABELS ASSOCIATED SOLELY WITH THE ALPHA MOVE           20510021
                                    3146 *            PROCESSING BEGIN WITH THE CHARACTERS 'MV'.                 20517021
                                    3147 *                                                                       20524021
                                    3148 *            LABELS IN THE COMMON IF-MOVE RTNS BEGIN WITH THE           20531021
                                    3149 *            CHARACTERS 'IM'.                                           20538021
                                    3150 *                                                                       20545021
                                    3151 *                                                                       20552021
-
0
                             020F4  3153        USING *,GVERB                                                    20566021
 0020F4 D20D D42C D43C 07FC4 07FD4  3154 XALAMV   MVC   IMCONS(LX14),MVCONS                                      20573021
                                    3155 *                                                                       20580021
 0020FA 4120 DDC8      08960        3156        LA    RW2,DOP2                                                   20587021
 0020FE 45E0 77F0      007F0        3157        BAL     XRSUB,CALCLG        CALCULATE LENGTH OF DOP2             20594021
 002102 47F0 700A      0000A        3158          B     PH5CTL              IF LENGTH ERROR DONT PROCESS         20601021
 002106 D200 C6E6 D5ED 07516 08185  3159          MVC   SAVTYP,DNMINR                                            20608021
 00210C D201 C6E4 D552 07514 080EA  3160          MVC   XLEN2(LX2),LENGTH+NX2                                    20615021
 002112 4120 DD4C      088E4        3161          LA    RW2,DOP1                                                 20622021
 002116 58F0 C714      07544        3162        L     XRVAR,AIMINIT0                                             20629021
                             025A8  3163        USING IMINIT0,XRVAR                                              20636021
 00211A 45E0 F0AE      02656        3164          BAL   RETRG,IMLIT         CONVERT TO ALPHA IF INTRNL DEC       20643021
                                    3165        DROP  XRVAR                                                      20650021
 00211E 9504 D5ED      08185        3166        CLI   DNMINR,XGGPVL                                              20657021
 002122 4780 9068      0215C        3167        BE    XALMV12               VARIABLE LEN MOVE WO CNVSN           20664021
 002126 9501 D5ED      08185        3168        CLI   DNMINR,XGGPFL                                              20671021
 00212A 4780 9068      0215C        3169        BE    XALMV12                   REC  IS  GROUP  MOVE  WITHOUT    20678021
                                    3170 *                                      CONVERSION.                      20685021
 00212E 45E0 77F0      007F0        3171          BAL   XRSUB,CALCLG        CALCULATE LENGTH OF DOP1             20692021
 002132 47F0 700A      0000A        3172          B     PH5CTL              IF LEN ERROR DONT PROCESS            20699021
 002136 9501 D5ED      08185        3173          CLI   DNMINR,XX01               FIXED GROUP REC                20706021
 00213A 4780 9068      0215C        3174          BE    XALMV12             YES                                  20713021
 00213E 9504 D5ED      08185        3175          CLI   DIMINR,XX04               VAR GROUP REC                  20720021
 002142 4780 9068      0215C        3176          BE    XALMV12                      YES                         20727021
 002146 D505 D518 C6A8 080B0 074D8  3177          CLC   XIDBY(LX6),XC000          NUM SENDING                    20734021
 00214C 4780 9060      02154        3178          BE    XALMGL              NO                                   20741021
 002150 45E0 9242      02336        3179          BAL   XRSUB,CNVNUM        YES, CONVERT TO ALPHANUMERIC         20748021
 002154 950E C6E6      07516        3180 XALMGL CLI   SAVTYP,XGANE              ALPHA. EDITED MOVE.              20755021
 002158 4780 90EC      021E0        3181          BE    ANANE               CALL SUBRTN FOR ALPHA EDIT MOVE      20762021
                             0215C  3182 XALMV12  EQU   *                                                        20769021
1         IKFCBL51: NONNUMERIC MOVE VERB ANALYZER                                                               PAGE   70
-  LOC  OBJECT CODE    ADDR1 ADDR2  STMT   SOURCE STATEMENT                                       ASM 0201 11.03 02/14/15
000215C 9539 DD4C      088E4        3183          CLI   DOP1,PLFCON                                              20776021
 002160 4780 91EC      022E0        3184          BE    MOVE30              BRANCH TO HANDLE FIG CON ALL         20783021
 002164 45E0 94AE      025A2        3185        BAL   RETRG,IMINIT     EXECUTE INIT RTN...LISTED ABOUT 4 PAG     20790021
                                    3186 *                               HENCE                                   20797021
 002168 5050 D478      08010        3187        ST    RW5,IMPTR1       SAVE OPD PTRS                             20804021
 00216C 5040 D47C      08014        3188        ST    RW4,IMPTR2                                                 20811021
 002170 5050 D480      08018        3189        ST    RW5,IMPTR3                                                 20818021
 002174 4780 90D4      021C8        3190        BC    EQ,MVEQ          BR IF L2 EQ L1                            20825021
 002178 4740 90B0      021A4        3191        BC    LO,MVLO          BR IF L2 LT L1                            20832021
                                    3192 *                        RTN FOR L2 GT L1                               20839021
                                    3193 *                                                                       20846021
 00217C 9505 C6E6      07516        3194          CLI   SAVTYP,XGRPT        REPORT ITEM                          20853021
 002180 4780 9098      0218C        3195          BE    NOJUSTHI            YES, NO RIGHT JUSTIFIED              20860021
 002184 9101 DDCF      08967        3196          TM    DOP2+NX7,XX01       RIGHT JUSTIFIED                      20867021
 002188 4710 90A4      02198        3197        BC    ONES,MVHIJ         BR IF YES                               20874021
 00218C                             3198 NOJUSTHI DS    0H                                                       20881021
 00218C 5030 D468      08000        3199          ST    RW3,IMLFC           SAVE # OF EXCESS BYTES               20888021
 002190 5010 D470      08008        3200        ST    RW1,IMIFC2       SAVE DISPLACEMENT OF EXCESS BYTES         20895021
 002194 47F0 90E4      021D8        3201        BC    UNCOND,MVSVL          SAVE NUMBER COMMON BYTES ROUTINE     20902021
                                    3202 *                                                                       20909021
                                    3203 *                                                                       20916021
 002198 5030 D468      08000        3204 MVHIJ  ST    RW3,IMLFC        SAVE NUMBER OF COMMON BYTES               20923021
 00219C 5030 D464      07FFC        3205        ST    RW3,IMICH2       SAVE DISPLACEMENT OF COMMON BYTES         20930021
 0021A0 47F0 90E4      021D8        3206        BC    UNCOND,MVSVL          SAVE NUMBER COMMON BYTES ROUTINE     20937021
                                    3207 *                        RTN  FOR L2 LT L1                              20944021
                                    3208 *                                                                       20951021
 0021A4                             3209 MVLO     DS    0H                                                       20958021
 0021A4 9505 C6E6      07516        3210          CLI   SAVTYP,XGRPT        REPORT ITEM                          20965021
 0021A8 4780 90C0      021B4        3211          BE    NOJUSTLO            YES, NO RIGHT JUSTIFIED              20972021
 0021AC 9101 DDCF      08967        3212          TM    DOP2+NX7,XX01       JUSTIFIED                            20979021
 0021B0 4710 90C8      021BC        3213          BO    MVLOJ               YES                                  20986021
 0021B4                             3214 NOJUSTLO DS    0H                                                       20993021
 0021B4 5020 D45C      07FF4        3215          ST    RW2,IMLCH                                                21000021
 0021B8 47F0 93B8      024AC        3216          B     IMGEN              BRANCH TO GENERATE A-TEXT             21007021
                                    3217 *                                                                       21014021
                                    3218 *                                                                       21021021
 0021BC 5020 D45C      07FF4        3219 MVLOJ  ST    RW2,IMLCH        SAVE NUMBER COMMON CHARS                  21028021
 0021C0 5030 D460      07FF8        3220        ST    RW3,IMICH1       SAVES DISPLACEMENT OF COMMON CHARS        21035021
 0021C4 47F0 93B8      024AC        3221        BC    UNCOND,IMGEN          BRANCH TO GENERATE ATEXT             21042021
                                    3222 *                        RTN FOR L2 EQ L1                               21049021
                                    3223 *                                                                       21056021
 0021C8 9575 DD4C      088E4        3224 MVEQ     CLI   DOP1,XX75       TEST IF OPD1 IS A FIGCON                 21063021
 0021CC 4770 90E4      021D8        3225        BC    NOTEQ,MVSVL        BR IF NO                                21070021
 0021D0 5010 D468      08000        3226        ST    RW1,IMLFC        SAVE NUMBER BYTES TO BE FILLED WITH F     21077021
 0021D4 47F0 93B8      024AC        3227        BC    UNCOND,IMGEN          BRANCH TO GENERATE ATEXT             21084021
 0021D8 5010 D45C      07FF4        3228 MVSVL  ST    RW1,IMLCH        SAVE NUMBER COMMON BYTES                  21091021
 0021DC 47F0 93B8      024AC        3229        BC    UNCOND,IMGEN          BRANCH TO GENERATE ATEXT             21098021
                                    3230 * * * * * * * * * * * * * * * *                                         21105021
1         IKFCBL51: NONNUMERIC MOVE VERB ANALYZER                                                               PAGE   71
-  LOC  OBJECT CODE    ADDR1 ADDR2  STMT   SOURCE STATEMENT                                       ASM 0201 11.03 02/14/15
0                                   3232 * ALPHANUMERIC EDITED MOVE GENERATE A CALL TO SUBROUTINE.               21119021
                                    3233 *                                                                       21126021
                                    3234 *                                                                       21133021
                                    3235 *                      L    RW0,=LENGTH-OF-SEND.                        21140021
                                    3236 *                      LA   RW1,SENDING                                 21147021
                                    3237 *                      LA   RW2,REC.                                    21154021
                                    3238 *                      LA   RW3,MASK FOR EDITING                        21161021
                                    3239 *                      L    15,V(ANE0)                                  21168021
                                    3240 *                      BALR 14,15                                       21175021
                                    3241 *                      DC   X'00'   FLAG BYTE                           21182021
                                    3242 *                      DC   X'00'   LENGTH OF MASK                      21189021
                                    3243 *                      DC   X'0000' LENGTH OF REC.                      21196021
                                    3244 *                                                                       21203021
                                    3245 *                      FLAG BYTE      BIT0    RIGTH JUSTIFIED RECEIV.   21210021
                                    3246 *                                     BIT1    SEND. IS A FIGCON.        21217021
                                    3247 *                                OTHER BIT    UNUSED.                   21224021
                                    3248 *                                                                       21231021
                                    3249 *                                                                       21238021
-
 0021E0 D703 D534 D534 080CC 080CC  3251 ANANE    XC    X1VAL(LX4),X1VAL                                         21252021
 0021E6 9539 DD4C      088E4        3252          CLI   DOP1,PLFCON             TEST FOR FIGCON SENDING.         21259021
 0021EA 4780 91D2      022C6        3253          BE    MOVE31              CNVRT FIG CON TO ALPHA LITERAL       21266021
 0021EE 9575 DD4C      088E4        3254          CLI   DOP1,XGFCT                                               21273021
 0021F2 4780 91DE      022D2        3255          BE    MOVE32              FOR ALPHA FIG CON                    21280021
 0021F6 4160 9150      02244        3256 MOVE35   LA    RW6,MOVE38                                               21287021
 0021FA 4120 DD4C      088E4        3257          LA    RW2,DOP1            GET SENDING LENGTH.                  21294021
 0021FE 45E0 77F0      007F0        3258 MOVE40   BAL   R14,CALCLG          CALCULATE LEN OF DN RTN              21301021
 002202 47F0 92D4      023C8        3259          B     MOVE02A             DATA ERROR ROUTINE                   21308021
 002206 9180 D550      080E8        3260          TM    LENGTH,XX80                                              21315021
 00220A 4710 9140      02234        3261          BO    MOVE33              VARIABLE LENGTH SENDING.             21322021
 00220E 9202 D180      07D18        3262          MVI   XCON1+NX16,XX02                                          21329021
 002212 1BEE                        3263          SR    R14,R14             CLEAR OUT R14                  43090 21336021
 002214 5AE0 913C      02230        3264          A     R14,C32767          R14=MAX LENGTH IN HALFWORD     43090 21343021
 002218 59E0 D550      080E8        3265          C     R14,LENGTH          HALFWORD LARGE ENOUGH?         43090 21350021
 00221C 4720 9130      02224        3266          BH    MOVELEN             YES                            43090 21357021
 002220 9204 D180      07D18        3267          MVI   XCON1+NX16,XX04     NO-FULLWORD                    43090 21364021
 002224 D203 D17C D550 07D14 080E8  3268 MOVELEN  MVC   XCON1+NX12(LX4),LENGTH                             43090 21371021
 00222A 47F0 914A      0223E        3269          B     MOVE34                     L   0,LENGTH OF SENDING.      21378021
 00222E 0000
 002230 00007FFF                    3270 C32767   DC    F'32767'            MAX LENGTH IN HALFWORD         43090 21385021
 002234 9204 D188      07D20        3271 MOVE33   MVI   XCNTR1,XX04                                              21392021
 002238 D201 D189 D552 07D21 080EA  3272          MVC   XCNTR1+NX1(LX2),LENGTH+NX2                               21399021
 00223E 45E0 B000      00E78        3273 MOVE34   BAL   R14,LOAD            GENERATE LOAD ATEXT                  21406021
 002242 07F6                        3274          BR    RW6                 RETURN TO CALLER                     21413021
                                    3275 *    SET ADDRESS OF SENDING.                                            21420021
                                    3276 *                                                                       21427021
 002244 9201 D198      07D30        3277 MOVE38   MVI   XREG1,XX01                                               21434021
 002248 D203 D148 C700 07CE0 07530  3278          MVC   OP1(LX4),XAOPE1                                          21441021
 00224E 45E0 BB7C      019F4        3279          BAL   R14,LA              GENERATE LOAD ADDRESS ATEXT          21448021
                                    3280 *                                                                       21455021
                                    3281 *    SET ADDRESS OF EDITING MASK.                                       21462021
                                    3282 *                                                                       21469021
 002252 9234 DE44      089DC        3283          MVI   DOP3,XGALC               SET A NON-NUMERIC LITERAL       21476021
1         IKFCBL51: NONNUMERIC MOVE VERB ANALYZER                                                               PAGE   72
-  LOC  OBJECT CODE    ADDR1 ADDR2  STMT   SOURCE STATEMENT                                       ASM 0201 11.03 02/14/15
0002256 D259 DE46 DDD3 089DE 0896B  3284          MVC   DOP3+NX2(LX90),DOP2+NX11   WITH THE MASK.                21483021
 00225C 1B11                        3285          SR    RW1,RW1                                                  21490021
 00225E 4310 DDD0      08968        3286          IC    RW1,DOP2+NX8                                             21497021
 002262 0610                        3287          BCTR  RW1,R0             DECREMENT BY ONE                      21504021
 002264 0610                        3288          BCTR  RW1,R0             DECREMENT BY ONE                      21511021
 002266 4210 D535      080CD        3289          STC   RW1,X1VAL+NX1             SAVE LENGTH OF MASK.           21518021
 00226A 4210 DE45      089DD        3290          STC   RW1,DOP3+NX1                                             21525021
 00226E 9203 D198      07D30        3291          MVI   XREG1,XX03                                               21532021
 002272 D203 D148 C708 07CE0 07538  3292          MVC   OP1(LX4),XAOPE3          LA   3,MASK                     21539021
 002278 45E0 BB7C      019F4        3293          BAL   R14,LA              GENERATE LOAD ADDRESS ATEXT          21546021
                                    3294 *                                                                       21553021
                                    3295 *    SET ADDRESS OF RECEIVING                                           21560021
                                    3296 *                                                                       21567021
 00227C D203 D148 C704 07CE0 07534  3297          MVC   OP1(LX4),XAOPE2                                          21574021
 002282 9202 D198      07D30        3298          MVI   XREG1,XX02                                               21581021
 002286 45E0 BB7C      019F4        3299          BAL   R14,LA                   LA   2,RECEIVING                21588021
 00228A 45E0 7854      00854        3300          BAL   R14,VBADCE               L    15,V(ANE0)                 21595021
 00228E C1D5C5F0                    3301          DC    C'ANE0'                  BALR 14,15                      21602021
                                    3302 *                                                                       21609021
                                    3303 *    SET UP THE DC'S.                                                   21616021
                                    3304 *                                                                       21623021
 002292 4120 DDC8      08960        3305          LA    RW2,DOP2                                                 21630021
 002296 45E0 77F0      007F0        3306          BAL   R14,CALCLG          CACULATE LENGTH OF DN RTN            21637021
 00229A 47F0 92D4      023C8        3307          B     MOVE02A             DATA ERROR ROUTINE                   21644021
 00229E D201 D536 D552 080CE 080EA  3308          MVC   X1VAL+NX2(LX2),LENGTH+NX2                                21651021
 0022A4 9101 DDCF      08967        3309          TM    DOP2+NX7,XX01                                            21658021
 0022A8 4780 91BC      022B0        3310          BZ    MOVE36              BRANCH IF NOT RIGHT JUSTIFIED        21665021
 0022AC 9680 D534      080CC        3311          OI    X1VAL,XX80               RIGTH JUSTIFIED.                21672021
 0022B0 9204 D170      07D08        3312 MOVE36   MVI   XCON1,XX04                                               21679021
 0022B4 D203 D171 D534 07D09 080CC  3313          MVC   XCON1+NX1(LX4),X1VAL       GENERATE  THE  DC'S.          21686021
 0022BA 9224 D199      07D31        3314          MVI   XIMM,MDC                                                 21693021
 0022BE 45E0 BD28      01BA0        3315          BAL   R14,MACRO           GENERATE DC ATEXT                    21700021
 0022C2 47F0 700A      0000A        3316          B     PH5CTL              PROCESS NEXT P2TEXT                  21707021
-
                                    3318 *                                                                       21721021
                                    3319 *   TAKE  CARE  OF SENDING  FIGCON.                                     21728021
                                    3320 *                                                                       21735021
 0022C6 9234 DD4C      088E4        3321 MOVE31   MVI   DOP1,XGALC               CHANGE FIGCON TO ALPHA-LIT.     21742021
 0022CA 9640 D534      080CC        3322          OI    X1VAL,XX40               FIGCON FLAG.                    21749021
 0022CE 47F0 9102      021F6        3323          B     MOVE35              PROCESS ALPHA MOVE                   21756021
0
 0022D2 D200 DD4E DD4D 088E6 088E5  3325 MOVE32   MVC   DOP1+NX2(LX1),DOP1+NX1                                   21770021
 0022D8 9201 DD4D      088E5        3326          MVI   DOP1+NX1,XX01                                            21777021
 0022DC 47F0 91D2      022C6        3327          B     MOVE31              CNVRT FIGCON TO ALPHA LITERAL        21784021
-
0
                                    3329 *    PLURAL  FIGCON   TO  ALPHANUM.                                     21798021
                                    3330 *                                                                       21805021
1         IKFCBL51: NONNUMERIC MOVE VERB ANALYZER                                                               PAGE   73
-  LOC  OBJECT CODE    ADDR1 ADDR2  STMT   SOURCE STATEMENT                                       ASM 0201 11.03 02/14/15
00022E0 9234 DD4C      088E4        3332 MOVE30   MVI   DOP1,XGALC                                               21819021
 0022E4 9202 D198      07D30        3333          MVI   XREG1,XX02                                               21826021
 0022E8 D203 D148 C700 07CE0 07530  3334          MVC   OP1(LX4),XAOPE1           LA   2,FIGCON                  21833021
 0022EE 45E0 BB7C      019F4        3335          BAL   R14,LA              GENERATE LOAD ADDRESS ATEXT          21840021
 0022F2 4120 DDC8      08960        3336          LA    RW2,DOP2                                                 21847021
 0022F6 4560 910A      021FE        3337          BAL   RW6,MOVE40               L    0,LENGTH-RECEIV.           21854021
 0022FA 9201 D198      07D30        3338          MVI   XREG1,XX01                                               21861021
 0022FE D203 D148 C704 07CE0 07534  3339          MVC   OP1(LX4),XAOPE2                                          21868021
 002304 45E0 BB7C      019F4        3340          BAL   R14,LA                   LA   1,REC.                     21875021
 002308 45E0 7854      00854        3341          BAL   R14,VBADCE               L    15,V(ANF0)                 21882021
 00230C C1D5C6F0                    3342          DC    C'ANF0'                  BALR 14,15                      21889021
 002310 1B00                        3343          SR    RW0,RW0                                                  21896021
 002312 4300 DD4D      088E5        3344          IC    RW0,DOP1+NX1                                             21903021
 002316 9202 D170      07D08        3345          MVI   XCON1,XX02                           FLAG                21910021
 00231A 4200 D172      07D0A        3346          STC   RW0,XCON1+NX2             DC X'0000' LENGTH OF FIGCON.   21917021
 00231E 9101 DDCF      08967        3347          TM    DOP2+NX7,XX01                                            21924021
 002322 4780 9236      0232A        3348          BZ    MOVE41              IF NOT RIGHT JUSTIFIED BRANCH        21931021
 002326 9680 D171      07D09        3349          OI    XCON1+NX1,XX80                                           21938021
 00232A 9224 D199      07D31        3350 MOVE41   MVI   XIMM,MDC                                                 21945021
 00232E 45E0 BD28      01BA0        3351          BAL   R14,MACRO           GENERATE DCS IN ATEXT                21952021
 002332 47F0 700A      0000A        3352          B     PH5CTL              PROCESS NEXT P2 TEXT                 21959021
1          IKFCBL51: COMMON NONNUMERIC ROUTINES                                                                 PAGE   74
-  LOC  OBJECT CODE    ADDR1 ADDR2  STMT   SOURCE STATEMENT                                       ASM 0201 11.03 02/14/15
0                                   3354 *                                                                       21973021
                                    3355 *  CONVERT BINARY  AND  ID  TO ED  AND THEN CHANGE THE  DATA-NAME       21980021
                                    3356 *  FORMAT TO ALPHANUMERIC.                                              21987021
                                    3357 *                                                                       21994021
                                    3358 *                                  GET TYPE OF SENDING                  22001021
0
 002336                             3360 CNVNUM   DS    0H                                                       22015021
 002336 90EF D48C      08024        3361          STM   XRSUB,XRVAR,IMSAVE                                       22022021
 00233A 05F0                        3362          BALR  XRVAR,RW0           SET UP ADDRESSABILITY                22029021
                             0233C  3363          USING *,XRVAR                                                  22036021
 00233C 5820 D550      080E8        3364          L     RW2,LENGTH                                               22043021
 002340 4130 DD4C      088E4        3365          LA    RW3,DOP1                                                 22050021
 002344 950B D5ED      08185        3366          CLI   DNMINR,XGBINR                                            22057021
 002348 4780 F11A      02456        3367          BE    MOVE00              BINARY                               22064021
 00234C 950C D5ED      08185        3368          CLI   DNMINR,XGINDC                                            22071021
 002350 4780 F092      023CE        3369          BE    MOVE01A             ID                                   22078021
 002354 9508 D5ED      08185        3370          CLI   DNMINR,XGEXDC                                            22085021
 002358 4770 F08C      023C8        3371          BNE   MOVE02A             SHOULD NOT  HAPPEN                   22092021
0
                                    3373 *                                      CHANGE DATA-NAME FORMAT TO       22106021
 00235C 940F DD4F      088E7        3374 MOVE03A  NI    DOP1+NX3,XX0F        ALPHA NUM.  - SET MINOR CODE        22113021
 002360 9630 DD4F      088E7        3375          OI    DOP1+NX3,XX30                                            22120021
 002364 5020 C378      071A8        3376          ST    RW2,XGTEM2                                               22127021
 002368 D201 DD54 C37A 088EC 071AA  3377          MVC   DOP1+NX8(LX2),XGTEM2+NX2 SET LENGTH.                     22134021
0
 00236E D502 DD50 C6A8 088E8 074D8  3379          CLC   DOP1+NX4(LX3),XC000                                      22148021
 002374 4770 F05A      02396        3380          BNE   MOVE20              IF IDK FIELD NOT ZERO BRANCH         22155021
                             02378  3381 MOVE23   EQU   *                                                        22162021
 002378 4800 D51C      080B4        3382          LH    RW0,XIDDN           RESET  SIGN TO F                     22169021
 00237C 4200 D18A      07D22        3383          STC   RW0,XCNTR1+NX2       X                                   22176021
 002380 9230 D188      07D20        3384          MVI   XCNTR1,XX30          X                                   22183021
 002384 92F0 D199      07D31        3385          MVI   IMM,XXF0             X                                   22190021
 002388 45E0 BACC      01944        3386          BAL   R14,OI              X                                    22197021
                             0238C  3387 MOVE21   EQU   *                                                        22204021
 00238C 94FE DD53      088EB        3388          NI    DOP1+NX7,XXFE        GET RID OF SIGN BIT.                22211021
 002390 98EF D48C      08024        3389          LM    XRSUB,XRVAR,IMSAVE                                       22218021
 002394 07FE                        3390          BR    XRSUB               RETURN                               22225021
 002396 9101 DD53      088EB        3391 MOVE20   TM    DOP1+NX7,XX01                                            22232021
 00239A 4780 F050      0238C        3392          BZ    MOVE21              IF NOT RIGHT JUSTIFIED BRANCH        22239021
 00239E 4920 A16A      0016A        3393          CH    RW2,TS2MAX                                               22246021
 0023A2 47D0 F06E      023AA        3394          BNH   MOVE22              IF DOP NOT GRTHN MAXCORE SKIP        22253021
 0023A6 4020 A16A      0016A        3395          STH   RW2,TS2MAX                                               22260021
 0023AA 5030 D148      07CE0        3396 MOVE22   ST    RW3,OP1                                                  22267021
 0023AE 9230 D188      07D20        3397          MVI   XCNTR1,XX30                                              22274021
 0023B2 9201 D18A      07D22        3398          MVI   XCNTR1+NX2,XX01                                          22281021
 0023B6 4020 D158      07CF0        3399          STH   RW2,XL1                                                  22288021
 0023BA 45E0 B18C      01004        3400          BAL   R14,MVC             GENERATE MVC FOR MOVE                22295021
 0023BE D702 DD50 DD50 088E8 088E8  3401          XC    DOP1+NX4(LX3),DOP1+NX4                                   22302021
 0023C4 47F0 F03C      02378        3402          B     MOVE23              RESET SIGN TO F                      22309021
0
 0023C8 45E0 7520      00520        3404 MOVE02A  BAL   R14,ERRPRO          LOGIC ERROR - UNEXPECTED INPUT.      22323021
1          IKFCBL51: COMMON NONNUMERIC ROUTINES                                                                 PAGE   75
-  LOC  OBJECT CODE    ADDR1 ADDR2  STMT   SOURCE STATEMENT                                       ASM 0201 11.03 02/14/15
00023CC 05                          3405          DC    AL1(ERRN05)                                              22330021
 0023CD 08                          3406          DC    AL1(8)                                                   22337021
0
 0023CE 5030 D148      07CE0        3408 MOVE01A  ST    RW3,OP1                 SENDING IS ID.                   22351021
 0023D2 4800 D51C      080B4        3409 MOVE08A  LH    RW0,XIDDN           UNPACK IN TS2.                       22358021
 0023D6 4900 A16A      0016A        3410          CH    RW0,TS2MAX                                               22365021
 0023DA 47D0 F0A6      023E2        3411          BNH   MOVE05A             IF ENOUGH STORAGE SKIP NXT INSTR     22372021
 0023DE 4000 A16A      0016A        3412          STH   RW0,TS2MAX          SET  TS2 MAX. LENGHT IF NEC.         22379021
 0023E2 9230 D188      07D20        3413 MOVE05A  MVI   XCNTR1,XX30                                              22386021
 0023E6 9201 D18A      07D22        3414          MVI   XCNTR1+NX2,XX01                                          22393021
 0023EA 4900 C6CE      074FE        3415          CH    RW0,XC016           MORE THAN 16  DIGITS                 22400021
 0023EE 4720 F0D0      0240C        3416          BH    MOVE04A             YES  TWO  UNPK ARE NECESSARY.        22407021
 0023F2 4000 D158      07CF0        3417          STH   RW0,XL1                                                  22414021
 0023F6 4020 D1A0      07D38        3418          STH   RW2,XL2                                                  22421021
 0023FA 45E0 BA78      018F0        3419          BAL   R14,LCRBI           GENERATE   UNPK  TS2(L), DN(LL)      22428021
 0023FE 4820 D51C      080B4        3420 MOVE06A  LH    RW2,XIDDN           L=  NUMBER OF DIGITS.                22435021
 002402 D702 DD50 DD50 088E8 088E8  3421          XC    DOP1+NX4(LX3),DOP1+NX4 LL = PACK  DECIMAL LENGTH.        22442021
 002408 47F0 F020      0235C        3422          B     MOVE03A             CHANGE DN FORMAT TO ALPHANUM         22449021
0
 00240C 4B00 C3CE      071FE        3424 MOVE04A  SH    RW0,XC002           IF  MORE THAN 16 DIGITS TO UNPACK    22463021
 002410 4000 D158      07CF0        3425          STH   RW0,XL1             GENERATE :                           22470021
 002414 0620                        3426          BCTR  RW2,R0             DECREMENT BY ONE                      22477021
 002416 4020 D1A0      07D38        3427          STH   RW2,XL2                    UNPK  TS2(L-2),DN(LL-1)       22484021
 00241A 45E0 BA78      018F0        3428          BAL   R14,LCRBI                  UNPK  TS2+L-3(3),DN+LL-2(2)   22491021
 00241E 0620                        3429          BCTR  RW2,R0             DECREMENT BY ONE                      22498021
 002420 9500 D51B      080B3        3430          CLI   XBDBY+NX1,XX00                                           22505021
 002424 4770 F0FA      02436        3431          BNE   MOVE09A             IF NO CNUSM SKIP NXT CODE            22512021
 002428 92D0 D1A6      07D3E        3432          MVI   BDISP2,XXD0          SET BDISP ELEMENT IF COMING BACK    22519021
 00242C 1A62                        3433          AR    RW6,RW2                                                  22526021
 00242E 4260 D1A7      07D3F        3434          STC   RW6,BDISP2+NX1       FROM  BI TO ID  CONVERSION.         22533021
 002432 47F0 F102      0243E        3435          B     MOVE11              IF CNVSN SKIP NXT CODE               22540021
 002436 5030 D148      07CE0        3436 MOVE09A  ST    RW3,OP1                                                  22547021
 00243A 4220 D1D5      07D6D        3437          STC   RW2,PLUS2+NX2                                            22554021
 00243E 4200 D18A      07D22        3438 MOVE11   STC   RW0,XCNTR1+NX2                                           22561021
 002442 9230 D188      07D20        3439          MVI   XCNTR1,XX30                                              22568021
 002446 9203 D159      07CF1        3440          MVI   XL1+NX1,XX03                                             22575021
 00244A 9202 D1A1      07D39        3441          MVI   XL2+NX1,XX02                                             22582021
 00244E 45E0 BA78      018F0        3442          BAL   R14,LCRBI           GENERATE UNPK A-TEXT                 22589021
 002452 47F0 F0C2      023FE        3443          B     MOVE06A             CHANGE DN FORMAT TO ALPHANUM         22596021
0
                                    3445 * DN IS BINARY                                                          22610021
 002456 4800 D51A      080B2        3446 MOVE00   LH    RW0,XBDBY                                                22617021
 00245A 9200 D51B      080B3        3447          MVI   XBDBY+NX1,XX00                                           22624021
 00245E 5030 D148      07CE0        3448          ST    RW3,OP1                                                  22631021
 002462 4900 C3D6      07206        3449          CH    RW0,XC004           IF BINARY SIZE IS < 4BYTES  GENERATE 22638021
 002466 4720 F154      02490        3450          BH    MOVE07A             IF NOT LT 4 BYTES GENERATE LM        22645021
 00246A 45E0 B000      00E78        3451          BAL   R14,LOAD                 L   0, DN                       22652021
 00246E 92D0 D15E      07CF6        3452          MVI   BDISP1,XXD0              CVD  0,WC                       22659021
 002472 9260 D15F      07CF7        3453          MVI   BDISP1+NX1,WORKAB                                        22666021
 002476 45E0 BA88      01900        3454          BAL   R14,CVDBI           GENERATE CVD A-TEXT                  22673021
 00247A 4160 0068      00068        3455          LA    RW6,WORKAB+NX8       SET SECOND OPERAND CELL FOR         22680021
 00247E 92D0 D1A6      07D3E        3456 MOVE10   MVI   BDISP2,XXD0          UNPACK ROUTINE                      22687021
1          IKFCBL51: COMMON NONNUMERIC ROUTINES                                                                 PAGE   76
-  LOC  OBJECT CODE    ADDR1 ADDR2  STMT   SOURCE STATEMENT                                       ASM 0201 11.03 02/14/15
0002482 4820 D518      080B0        3457          LH    RW2,XIDBY                                                22694021
 002486 1B62                        3458          SR    RW6,RW2                                                  22701021
 002488 4260 D1A7      07D3F        3459          STC   RW6,BDISP2+NX1                                           22708021
 00248C 47F0 F096      023D2        3460          B     MOVE08A             GENERATE UNPK ATEXT                  22715021
0
 002490 9201 C388      071B8        3462 MOVE07A  MVI   XREGNO,XX01                                              22729021
 002494 9201 D1E0      07D78        3463          MVI   XREG2,XX01          BINARY SIZE IS 8 - GENERATE          22736021
 002498 45E0 BB8C      01A04        3464          BAL   R14,LM                     LM 0,1,DN                     22743021
 00249C 45E0 7854      00854        3465          BAL   R14,VBADCE                 L  15,V(BID1)                 22750021
 0024A0 C2C9C4F1                    3466          DC    C'BID1'                   BALR 14,15                     22757021
 0024A4 4160 006A      0006A        3467          LA    RW6,WORKAB+NX10      CONVERTED RESULT IS  AT  WORKAB(13) 22764021
 0024A8 47F0 F142      0247E        3468          B     MOVE10              AND IS  10 BYTES LONG.               22771021
1          IKFCBL51: COMMON NONNUMERIC ROUTINES                                                                 PAGE   77
-  LOC  OBJECT CODE    ADDR1 ADDR2  STMT   SOURCE STATEMENT                                       ASM 0201 11.03 02/14/15
0                                   3470 *=1    ALPHA GENERATION ROUTINE. COMMON TO BOTH ALPHA IF AND MOVE       22785021
                                    3471 *                                                                       22792021
                                    3472 *                                                                       22799021
                             020F4  3473 MOVE     EQU   XALAMV                                                   22806021
                                    3474 *                                                                       22813021
                                    3475 *                                                                       22820021
 0024AC 0590                        3476 IMGEN  BALR  GVERB,RW0             ESTABLISH ADDRESSABILITY             22827021
                             024AE  3477        USING *,GVERB                                                    22834021
 0024AE 9813 D45C      07FF4        3478        LM    RW1,RW3,IMLCH    LOAD RW1 THRU   RW3                       22841021
 0024B2 4850 D4BE      08056        3479        LH    RW5,H256                                                   22848021
 0024B6 1841                        3480        LR    RW4,RW1          SET RW4 EQUAL NUMBER COMMON BYTES PLU     22855021
 0024B8 5A40 D468      08000        3481        A     RW4,IMLFC          NUMBER EXCESS BYTES...IF, TOTAL NUM     22862021
                                    3482 *                               OF BYTES TO BE ACCOUNTED FOR            22869021
                                    3483 *                                                                       22876021
                                    3484 *                                                                       22883021
                                    3485 *                                                                       22890021
 0024BC 1915                        3486 IMGEN1 CR    RW1,RW5          TEST IF GT 256 BYTES LEFT                 22897021
 0024BE 47B0 901A      024C8        3487        BC    NOTLO,IMGEN2       BR IF YES                               22904021
 0024C2 1251                        3488        LTR   RW5,RW1            PUT NUMBER BYTES LEFT IN RW5            22911021
 0024C4 4780 9088      02536        3489        BC    ZERO,IMGEN4        BR IF ZERO BYTES LEFT                   22918021
                                    3490 *                                                                       22925021
                                    3491 *                                                                       22932021
 0024C8 D207 D148 D478 07CE0 08010  3492 IMGEN2   MVC   OP1(LX8),IMPTR1 SET UP TO GENERATE                       22939021
 0024CE 5020 D4B8      08050        3493        ST    RW2,PLUSST                                                 22946021
 0024D2 D202 D1D3 D4B9 07D6B 08051  3494          MVC   PLUS2(LX3),PLUSST+NX1                                    22953021
 0024D8 5030 D4B8      08050        3495        ST    RW3,PLUSST                                                 22960021
 0024DC D202 D18B D4B9 07D23 08051  3496          MVC   PLUS1(LX3),PLUSST+NX1                                    22967021
 0024E2 4050 D158      07CF0        3497        STH   RW5,XL1                     OR  OPD2+I2(N),OPD1+I1         22974021
 0024E6 58E0 D430      07FC8        3498        L     RETRG,IMIRTN               CLC                             22981021
 0024EA 05EE                        3499        BALR  RETRG,RETRG                          WHERE N IS IN RW5     22988021
 0024EC 1A25                        3500        AR    RW2,RW5                                        I2 IS I     22995021
 0024EE 1A35                        3501        AR    RW3,RW5                                        I1 IS I     23002021
 0024F0 1B15                        3502        SR    RW1,RW5                                                    23009021
 0024F2 1B45                        3503        SR    RW4,RW5                                                    23016021
                             024F4  3504 IMGEN3 EQU     *                                                        23023021
 0024F4 95D4 D42D      07FC5        3505          CLI   IMVRBC,XCM      TEST IF VERB IS MOVE RATHER THAN IF      23030021
 0024F8 4780 900E      024BC        3506        BC    EQ,IMGEN1          BR IF YES                               23037021
 0024FC 1244                        3507        LTR     RW4,RW4                                                  23044021
 0024FE 4770 9058      02506        3508        BC    NOTZER,IMG3B          IF NOT YET ALL BYTES SKIP NXT        23051021
 002502 4166 0002      00002        3509 IMG3A    LA    RW6,DX2(RW6)                                             23058021
 002506 9500 6000      00000        3510 IMG3B    CLI   DX0(RW6),XX00                                            23065021
 00250A 4780 906E      0251C        3511        BC    EQ,IMG3C              IF 1ST WORD OF TBL 0 SKIP NXT CD     23072021
 00250E 9202 D1E0      07D78        3512          MVI   XREG2,XX02                                               23079021
 002512 D200 D198 6000 07D30 00000  3513          MVC   XREG1(LX1),DX0(RW6)                                      23086021
 002518 45E0 BBAE      01A26        3514        BAL   RETRG,BRANCH          GENERATE BRANCH INSTRUCTION          23093021
 00251C 9500 6001      00001        3515 IMG3C    CLI   DX1(RW6),XX00                                            23100021
 002520 4780 900E      024BC        3516        BC    EQ,IMGEN1             IF MORE BYTES PROCESS                23107021
 002524 9201 D1E0      07D78        3517          MVI   XREG2,XX01                                               23114021
 002528 D200 D198 6001 07D30 00001  3518          MVC   XREG1(LX1),DX1(RW6)                                      23121021
 00252E 45E0 BBAE      01A26        3519        BAL   RETRG,BRANCH          GENERATE BRANCH INSTRUCTION          23128021
 002532 47F0 900E      024BC        3520          B     IMGEN1             GENERATE A-TEXT                       23135021
1          IKFCBL51: COMMON NONNUMERIC ROUTINES                                                                 PAGE   78
-  LOC  OBJECT CODE    ADDR1 ADDR2  STMT   SOURCE STATEMENT                                       ASM 0201 11.03 02/14/15
-
-
 002536 4850 D4BE      08056        3523 IMGEN4 LH    RW5,H256         RESTORE RW5 TO 256                        23156021
 00253A 4166 0004      00004        3524          LA    RW6,DX4(RW6)    STEP TO NEXT WORD IN TABLE FOR 'IF'      23163021
 00253E 9813 D468      08000        3525        LM    RW1,RW3,IMLFC    LOAD REGS FOR PROCESSING EXCESS           23170021
 002542 D703 D468 D468 08000 08000  3526          XC    IMLFC(LX4),IMLFC ZERO FIELD SO NEXT TIME THRU RW1 GETS   23177021
 002548 1241                        3527        LTR   RW4,RW1          TEST IF ANY BYTES TO BE PROCESSED         23184021
 00254A 4780 90D0      0257E        3528        BC    ZERO,IMEND         BR IF NO                                23191021
 00254E D203 D47C D480 08014 08018  3529        MVC   IMPTR2,IMPTR3    SET OPD1 AND OPD2 EQUAL                   23198021
 002554 D203 D478 D480 08010 08018  3530        MVC   IMPTR1,IMPTR3    SET UP TO GENERATE                        23205021
 00255A D200 D199 D4C0 07D31 08058  3531        MVC   IMM,IMCHAR                                                 23212021
 002560 D203 D148 D478 07CE0 08010  3532        MVC   OP1,IMPTR1                 MVI                             23219021
 002566 4030 D18C      07D24        3533          STH   RW3,PLUS1+NX1              OR  OPD2+I2,C'FIGCON'         23226021
 00256A 58E0 D434      07FCC        3534          L     RETRG,IMIRTN+NX4          CLI                            23233021
 00256E 05EE                        3535        BALR  RETRG,RETRG           GENERATE CLI INSTRUCTION             23240021
 002570 0610                        3536        BCTR  RW1,RW0               SUBTRACT 1 FROM REG 1                23247021
 002572 0640                        3537        BCTR  RW4,RW0               SUBTRACT 1 FROM REG 1                23254021
 002574 1823                        3538        LR    RW2,RW3                                                    23261021
 002576 4133 0001      00001        3539          LA    RW3,DX1(RW3)                                             23268021
 00257A 47F0 9046      024F4        3540          B     IMGEN3             BRANCH TO IMGEN3                      23275021
-
0
 00257E 95D4 D42D      07FC5        3542 IMEND    CLI   IMVRBC,XCM      TEST IF VERB IS MOVE RATHER THAN IF      23289021
 002582 4770 90E4      02592        3543        BC    NOTEQ,IMENDI       BR IF NO                                23296021
 002586 9101 7BCC      00BCC        3544          TM    IOMOVESW,MSWON          IS THIS AN IOMOVE?               23303021
 00258A 4710 7B40      00B40        3545          BO    IORETURN                YES                              23310021
 00258E 47F0 700A      0000A        3546        BC    UNCOND,PH5CTL    RETURN TO PH5 CTL                         23317021
 002592 9101 D474      0800C        3547 IMENDI   TM    IMIFSW,XX01     TEST IF GN REF GENERATED EARLIER BY P    23324021
 002596 47E0 700A      0000A        3548        BC    NOTONE,PH5CTL      BR IF NO                                23331021
 00259A 45E0 BA24      0189C        3549        BAL   RETRG,GNOPT3          GENERATE GN DEFINITION               23338021
 00259E 47F0 700A      0000A        3550        BC    UNCOND,PH5CTL         PROCESS NXT P2 TEXT                  23345021
1          IKFCBL51: COMMON NONNUMERIC ROUTINES                                                                 PAGE   79
-  LOC  OBJECT CODE    ADDR1 ADDR2  STMT   SOURCE STATEMENT                                       ASM 0201 11.03 02/14/15
00025A2 90EF D48C      08024        3552 IMINIT STM   RETRG,XRVAR,IMSAVE                                         23359021
 0025A6 05F0                        3553        BALR  XRVAR,RW0             ESTABLISH ADDRESSABILITY             23366021
                                    3554 *=1    ALPHA INITIALIZATION ROUTINE. DOES INIT FOR  ALPHA IF AND MO     23373021
-
                             025A8  3556        USING *,XRVAR                                                    23387021
 0025A8 D718 D45C D45C 07FF4 07FF4  3557 IMINIT0  XC    IMAREA(LX25),IMAREA                                      23394021
 0025AE 9240 D4C0      08058        3558          MVI   IMCHAR,XX40                                              23401021
 0025B2 4140 DD4C      088E4        3559        LA    RW4,DOP1         ADDR OPD1 TO RW4                          23408021
 0025B6 4150 DDC8      08960        3560        LA    RW5,DOP2         ADDR OPD2 TO RW5                          23415021
 0025BA 95D4 D42D      07FC5        3561          CLI   IMVRBC,XCM          MOVE...                              23422021
 0025BE 4780 F022      025CA        3562        BE    IMCONT               YES                                   23429021
 0025C2 9539 DD4C      088E4        3563        CLI   DOP1,PLFCON          PLURAL FIGCON IN 'IF'...              23436021
 0025C6 4780 F17E      02726        3564        BE    IFALL1               YES                                   23443021
                             025CA  3565 IMCONT EQU   *                                                          23450021
 0025CA 1824                        3566        LR    RW2,RW4          PUT OPD 1 ADDR IN RW2 FOR NEXT CALLS      23457021
 0025CC 45E0 F0AE      02656        3567        BAL   RETRG,IMLIT      EXECUTE TO TEST FOR AND PROCESS NUM L     23464021
 0025D0 45E0 77F0      007F0        3568        BAL   RETRG,CALCLG     CALL RTN TO GET LENGTH                    23471021
 0025D4 47F0 700A      0000A        3569        BC    UNCOND,PH5CTL    ERROR RETURN                              23478021
 0025D8 5830 D550      080E8        3570        L     RW3,LENGTH       PUT LENGTH IN RW3                         23485021
 0025DC 9500 D550      080E8        3571          CLI   LENGTH,XX00     TEST IF VARIABLE LENGTH                  23492021
 0025E0 4770 F0F8      026A0        3572        BC    NOTEQ,IMVAR0    BR IF YES                            56141 23499021
 0025E4 9539 DDC8      08960        3573        CLI   DOP2,PLFCON          PLURAL FIGCON...                      23506021
 0025E8 4780 F190      02738        3574        BE    IFALL2                YES                                  23513021
 0025EC 4930 C3D2      07202        3575        CH    RW3,XC4096           LENGTH GR THAN 4096....               23520021
 0025F0 4720 F0F8      026A0        3576        BH    IMVAR0          YES, GEN CALL TO SUBR                56141 23527021
 0025F4 1825                        3577        LR    RW2,RW5            PUT OP2 ADDR IN R2 FOR NEXT CALLS       23534021
 0025F6 45E0 F0AE      02656        3578        BAL   RETRG,IMLIT      EXECUTE TO TEST FOR AND PROCESS NUM L     23541021
 0025FA 45E0 77F0      007F0        3579        BAL   RETRG,CALCLG     CALL RTN TO GET LENGTH                    23548021
 0025FE 47F0 700A      0000A        3580        BC    UNCOND,PH5CTL    ERROR RETURN                              23555021
 002602 9500 D550      080E8        3581          CLI   LENGTH,XX00     TEST IF VARIABLE LENGTH                  23562021
 002606 4770 F106      026AE        3582        BC    NOTEQ,IMVARL       BR IF YES                               23569021
 00260A 5820 D550      080E8        3583        L     RW2,LENGTH       L2 TO RW2                                 23576021
 00260E 4920 C3D2      07202        3584        CH    RW2,XC4096           LENGTH GR THAN 4096....               23583021
 002612 4720 F106      026AE        3585        BH    IMVARL               YES, GEN CALL TO SUBR                 23590021
 002616 1813                        3586        LR    RW1,RW3          L1 TO RW1                                 23597021
 002618 9575 DDC8      08960        3587          CLI   DOP2,XX75       TEST IF OPD2 IS FIGCON                   23604021
 00261C 4770 F080      02628        3588        BC    NOTEQ,IM1NFC       BR IF NO                                23611021
 002620 D200 D4C0 DDC9 08058 08961  3589          MVC   IMCHAR,DOP2+NX1   SAVE FIGCON CHAR                       23618021
 002626 1821                        3590        LR    RW2,RW1            SET L2 EQ L1                            23625021
 002628 9575 DD4C      088E4        3591 IM1NFC   CLI   DOP1,XX75       TEST IF OPD1 IS FIGCON                   23632021
 00262C 4770 F0A2      0264A        3592        BC    NOTEQ,IM2NFC       BR IF NO                                23639021
 002630 1812                        3593        LR    RW1,RW2            SET L1 EQ L2                            23646021
 002632 D200 D4C0 DD4D 08058 088E5  3594          MVC   IMCHAR,DOP1+NX1   SAVE FIGCON CHAR                       23653021
 002638 95D4 D42D      07FC5        3595          CLI   IMVRBC,XCM        TEST IF VERB IS MOVE                   23660021
 00263C 4780 F0A2      0264A        3596        BC    EQ,IM2NFC            BR IF YES                             23667021
 002640 1805                        3597        LR    RW0,RW5              SWAP OPDS SO THAT FOR IF, IF A FI     23674021
 002642 1854                        3598        LR    RW5,RW4                IS PRESENT IT IS THE SECOND OPD     23681021
 002644 1840                        3599        LR    RW4,RW0                                                    23688021
 002646 5866 0000      00000        3600          L     RW6,DX0(RW6)        SWAP RELATIONAL...SINCE OPDS WERE    23695021
                                    3601 *                                   SWAPPED RELATIONAL MUST BE SWAP     23702021
                                    3602 *                                   FOR PROPER GENERATION. RW6 POIN     23709021
                                    3603 *                                   TO A TABLE USED FOR GENERATION      23716021
                                    3604 *                                   BC INSTRUCTIONS. THE FIRST WORD     23723021
1          IKFCBL51: COMMON NONNUMERIC ROUTINES                                                                 PAGE   80
-  LOC  OBJECT CODE    ADDR1 ADDR2  STMT   SOURCE STATEMENT                                       ASM 0201 11.03 02/14/15
0                                   3605 *                                   THE TABLE CONTAINS THE ADDR OF      23730021
                                    3606 *                                   TABLE FOR THE OPPOSITE RELATION     23737021
                                    3607 *                                   HENCE THE SUBJECT INSTRUCTION H     23744021
                                    3608 *                                   THE EFFECT OF SWAPPING THE RELA     23751021
 00264A 1B32                        3609 IM2NFC SR    RW3,RW2          L1 - L2 TO RW3                            23758021
 00264C 1033                        3610        LPR   RW3,RW3          FORCE POSITIVE NUMBER                     23765021
 00264E 1921                        3611        CR    RW2,RW1          SET COND CODE                             23772021
                                    3612 *            AT THIS POINT RW1 THRU RW5 ARE SET AS FOLLOWS              23779021
                                    3613 *                                                                       23786021
                                    3614 *            RW1    LENGTH OF OPD1                                      23793021
                                    3615 *            RW2    LENGTH OF OPD2                                      23800021
                                    3616 *            RW3    ABSOLUTE VALUE OF DIFFERENCE OF LENGTHS             23807021
                                    3617 *            RW4    POINTER TO OPD1                                     23814021
                                    3618 *            RW5    POINTER TO OPD2                                     23821021
                                    3619 *            RW6    POINTER TO TABLE...USED FOR IF ONLY.                23828021
                                    3620 *                                                                       23835021
                                    3621 *            ALSO, CONDITION CODE IS SET AS FOLLOWS                     23842021
                                    3622 *                                                                       23849021
                                    3623 *            HI     IF L2 GT L1                                         23856021
                                    3624 *            LO     IF L2 LT L1                                         23863021
                                    3625 *            EQ     IF L2 EQ L1                                         23870021
                                    3626 *                                                                       23877021
                                    3627 *                                                                       23884021
 002650 98EF D48C      08024        3628        LM    RETRG,XRVAR,IMSAVE     RESTORE RETRG                       23891021
 002654 07FE                        3629        BCR   UNCOND,RETRG     RETURN                                    23898021
                                    3630 *                                                                       23905021
                                    3631 *                                                                       23912021
 002656 9532 2000      00000        3632 IMLIT    CLI   DX0(RW2),XX32   RTN TO TEST IF OPD IS INTERNAL DECIMA    23919021
 00265A 077E                        3633        BCR   NOTEQ,RETRG      LITERAL AND IF IT IS CONVERT IT TO        23926021
 00265C 9023 D4B0      08048        3634        STM   RW2,RW3,IMLSAV   ALPHANUMERIC LITERAL                      23933021
 002660 1B00                        3635        SR    RW0,RW0                                                    23940021
 002662 1B11                        3636        SR    RW1,RW1                                                    23947021
 002664 F3E7 D494 2004 0802C 00004  3637          UNPK  IMWORK(LX15),DX4(LX8,RW2) THESE 2 UNPACK INSTR'S UNPACK  23954021
 00266A F363 D4A2 200B 0803A 0000B  3638          UNPK  IMWORK+NX14(LX7),DX11(LX4,RW2) BYTES...EVEN IF LTL REQUI 23961021
 002670 4312 0001      00001        3639          IC    RW1,DX1(RW2)    GET NUMBER OF BYTES ACTUALLY USED TO     23968021
 002674 4B10 C3CE      071FE        3640        SH    RW1,XC002          EXPRESS THE LITERAL                     23975021
 002678 8910 0001      00001        3641          SLL   RW1,DX1         CALCULATE ADDRESS OF BYTE                23982021
 00267C 4131 D492      0802A        3642          LA    RW3,IMWORK-NX2(RW1) INTO WHICH LAST DIGIT OF LTL WAS UN  23989021
 002680 4312 0002      00002        3643          IC    RW1,DX2(RW2)    CALCULATE ACTUAL NUMBER OF DIGITS        23996021
 002684 4302 0003      00003        3644          IC    RW0,DX3(RW2)      SPECIFIED IN SOURCE LITERAL            24003021
 002688 1A10                        3645        AR    RW1,RW0                                                    24010021
 00268A 4212 0001      00001        3646          STC   RW1,DX1(RW2)    STORE NUMBER AS LNG OF ALPHA LTL         24017021
 00268E 1B31                        3647        SR    RW3,RW1          CALCULATE ADDR OF BYTE PRECEDING FIRS     24024021
 002690 D211 2002 3001 00002 00001  3648          MVC   DX2(LX18,RW2),DX1(RW3) BYTE OF UNPACKED LTL...THEN MOVE  24031021
 002696 9234 2000      00000        3649          MVI   DX0(RW2),XX34   MOVE CODE SPECIFYING ALPHANUM LITERAL    24038021
 00269A 9823 D4B0      08048        3650        LM    RW2,RW3,IMLSAV   OPRND AREA POINTED TO BY RW2 NOW LOOK     24045021
 00269E 07FE                        3651          BCR   R15,RETRG          LIKE //CODE/LENGTH/UNPACKED LITERA    24052021
                                    3652 *                                                                       24059021
                                    3653 *                                                                       24066021
                                    3654 * PLURAL FIGCON WILL APPEAR ONLY IF VERB IS 'IF'. IN 'MOVE' IT IS       24073021
                                    3655 * INTERCEPTED BEFORE THIS POINT.                                        24080021
                             026A0  3656 IMVAR0 EQU   *               SF VAR LENGTH OR GT 4096             56141 24087021
 0026A0 1825                        3657        LR    RW2,RW5         PUT OPD2 ADDR IN R2 FOR NEXT CALLS   56141 24094021
 0026A2 45E0 F0AE      02656        3658        BAL   RETRG,IMLIT     EXECUTE TO TEST FOR AND PROCESS NUM L56141 24101021
 0026A6 45E0 77F0      007F0        3659        BAL   RETRG,CALCLG    CALL RTN TO GET LENGTH               56141 24108021
1          IKFCBL51: COMMON NONNUMERIC ROUTINES                                                                 PAGE   81
-  LOC  OBJECT CODE    ADDR1 ADDR2  STMT   SOURCE STATEMENT                                       ASM 0201 11.03 02/14/15
00026AA 47F0 700A      0000A        3660        BC    UNCOND,PH5CTL   ERROR RETURN                         56141 24115021
                             026AE  3661 IMVARL EQU   *                                                          24122021
 0026AE 9539 DDC8      08960        3662        CLI   DOP2,PLFCON                                                24129021
 0026B2 4780 F190      02738        3663        BE    IFALL2               CALL OTSR                             24136021
 0026B6 95D4 D42D      07FC5        3664          CLI   IMVRBC,XCM       IS VERB MOVE                            24143021
 0026BA 4770 F132      026DA        3665        BNE   IMVAR2                FOR IF SKIP NEXT CODE                24150021
 0026BE 9501 D5ED      08185        3666          CLI   DNMINR,XX01        FIXED GRP REC                   40180 24157021
 0026C2 4780 F132      026DA        3667          BE    IMVAR2            YES                              40180 24164021
 0026C6 9504 D5ED      08185        3668          CLI   DNMINR,XX04        VAR GRP REC                     40180 24171021
 0026CA 4780 F132      026DA        3669          BE    IMVAR2            YES                              40180 24178021
 0026CE 9101 DDCF      08967        3670          TM    DOP2+NX7,XX01    TEST IF OPD2 JUSTIFIED                  24185021
 0026D2 4780 F132      026DA        3671        BC    ZERO,IMVAR2       BR IF NO                                 24192021
 0026D6 92F1 D42F      07FC7        3672          MVI   IMOTS+NX3,XXF1    RIGHT JUSTIFIED - ILBOVMO1       40180 24199021
                             026DA  3673 IMVAR2 EQU   *                                                          24206021
 0026DA 5890 D428      07FC0        3674        L     GVERB,IMADCN                                               24213021
 0026DE 58F0 D490      08028        3675          L     XRVAR,IMSAVE+NX4                                         24220021
 0026E2 4130 D42C      07FC4        3676        LA    RW3,IMOTS                                                  24227021
 0026E6 45E0 77D0      007D0        3677        BAL   RETRG,VBALR1     GENERATE            L    15,=V(VLXXXX     24234021
 0026EA 4120 DD4C      088E4        3678        LA    RW2,DOP1                             BALR 1,15             24241021
 0026EE 45E0 7786      00786        3679        BAL   RETRG,DIINFO     GENERATE            PARAM FOR OPD1        24248021
 0026F2 4120 DDC8      08960        3680        LA    RW2,DOP2                                                   24255021
 0026F6 45E0 7786      00786        3681        BAL   RETRG,DIINFO     GENERATE            PARAM FOR OPD2        24262021
 0026FA 95D4 D42D      07FC5        3682          CLI   IMVRBC,XCM      TEST IF VERB IS MOVE                     24269021
 0026FE 4780 90D0      0257E        3683        BC    EQ,IMEND           BR IF YES                               24276021
                             02702  3684 IMVAR1 EQU   *                                                          24283021
 002702 4166 0004      00004        3685          LA    RW6,DX4(RW6)    STEP PAST ADCON IN TABLE                 24290021
 002706 1B11                        3686        SR    RW1,RW1                                                    24297021
 002708 5010 D468      08000        3687        ST    RW1,IMLFC                                                  24304021
 00270C D201 D182 DE45 07D1A 089DD  3688          MVC   XGN1(LX2),DOP3+NX1 GENERATE            L    15,GN1       24311021
 002712 9202 D198      07D30        3689          MVI   XREG1,XX02                                               24318021
 002716 45E0 B000      00E78        3690        BAL   RETRG,LOAD            BRANCH TO GENERATE LOAD ATEXT        24325021
 00271A 5890 D428      07FC0        3691        L     GVERB,IMADCN                                               24332021
 00271E 58F0 D490      08028        3692          L     XRVAR,IMSAVE+NX4                                         24339021
 002722 47F0 9054      02502        3693        BC    UNCOND,IMG3A          RETURNS TO IF MOVE ROUTINE           24346021
                                    3694 * IFALL- COMPARE OF DATA NAME AND PLURAL FIGCON.                        24353021
                                    3695 * IF FIGCON IS 2ND OPD ENTRY IS AT IFALL2.       GENERATES              24360021
                                    3696 * CALL TO OBJECT TIME SUBR 'XXXXIVL0' FOR THE COMPARE.                  24367021
 002726 1825                        3697 IFALL1 LR    RW2,RW5              SWAP OPDS SO FIGCON IS 2ND  OPD       24374021
 002728 1854                        3698        LR    RW5,RW4                                                    24381021
 00272A 1842                        3699        LR    RW4,RW2                                                    24388021
 00272C 5866 0000      00000        3700          L     RW6,DX0(RW6)        SWAP RELATIONALS TOO                 24395021
 002730 45E0 77F0      007F0        3701        BAL   RETRG,CALCLG         GET LENGTH OF NON-FIGCON OPD          24402021
 002734 47F0 700A      0000A        3702        B     PH5CTL               ERROR RETURN                          24409021
                             02738  3703 IFALL2   EQU   *                                                        24416021
 002738 9234 5000      00000        3704          MVI   DX0(RW5),XX34       CHANGE FIGCON TO ALPHA LITERAL       24423021
 00273C 1B22                        3705        SR    RW2,RW2                                                    24430021
 00273E 4325 0001      00001        3706          IC    RW2,DX1(RW5)                                             24437021
 002742 1832                        3707        LR    RW3,RW2                                                    24444021
 002744 4220 D159      07CF1        3708          STC   RW2,XL1+NX1         SET LENGTH OF FIGCON FOR MVC         24451021
 002748 921C D188      07D20        3709          MVI   XCNTR1,XX1C                                              24458021
 00274C 9201 D18A      07D22        3710          MVI   XCNTR1+NX2,XX01     SET CODE FOR PRAM1                   24465021
 002750 5050 D148      07CE0        3711        ST    RW5,OP1                                                    24472021
 002754 45E0 B18C      01004        3712        BAL   RETRG,MVC           *   MVC  PARM1(FCON LNGTH)FCON         24479021
 002758 4122 0003      00003        3713          LA    RW2,DX3(RW2)                                             24486021
 00275C 8820 0002      00002        3714          SRL   RW2,DX2             GET NUMB OF PARM CELLS USED          24493021
1          IKFCBL51: COMMON NONNUMERIC ROUTINES                                                                 PAGE   82
-  LOC  OBJECT CODE    ADDR1 ADDR2  STMT   SOURCE STATEMENT                                       ASM 0201 11.03 02/14/15
0002760 4920 A22A      0022A        3715        CH    RW2,PARMAX           IS IT MORE THAN CURRENT MAX..         24500021
 002764 47D0 F1C4      0276C        3716        BNH   IFALL3               NO                                    24507021
 002768 4020 A22A      0022A        3717        STH   RW2,PARMAX           YES, SET NEW PARMAX                   24514021
 00276C 4230 D17F      07D17        3718 IFALL3   STC   RW3,XCON1+NX15                                           24521021
 002770 9202 D180      07D18        3719          MVI   XCON1+NX16,XX02                                          24528021
 002774 45E0 B000      00E78        3720        BAL   RETRG,LOAD          *   L    R0,FIGCON-LNGTH               24535021
 002778 9500 D550      080E8        3721          CLI   LENGTH,XX00         FIXED LENGTH OPD...                  24542021
 00277C 4780 F1E6      0278E        3722        BE    IFALL4               YES                                   24549021
 002780 9204 D188      07D20        3723          MVI   XCNTR1,XX04         NO, SET ATXT FOR VLC                 24556021
 002784 D201 D189 D552 07D21 080EA  3724          MVC   XCNTR1+NX1(LX2),LENGTH+NX2                               24563021
 00278A 47F0 F1F0      02798        3725        B     IFALL5                GENERATE LOAD OF LEN INTO REG 1      24570021
 00278E 9202 D180      07D18        3726 IFALL4   MVI   XCON1+NX16,XX02     SET ATXT FOR LIT=LEN DATA OPD        24577021
 002792 D201 D17E D552 07D16 080EA  3727          MVC   XCON1+NX14(LX2),LENGTH+NX2                               24584021
 002798 9201 D198      07D30        3728 IFALL5   MVI   XREG1,XX01                                               24591021
 00279C 45E0 B000      00E78        3729        BAL   RETRG,LOAD          *   L    R1,LNGTH DATA OPD             24598021
 0027A0 9202 D198      07D30        3730          MVI   XREG1,XX02                                               24605021
 0027A4 921C D188      07D20        3731          MVI   XCNTR1,XX1C                                              24612021
 0027A8 9201 D18A      07D22        3732          MVI   XCNTR1+NX2,XX01                                          24619021
 0027AC 45E0 BB7C      019F4        3733        BAL   RETRG,LA            *   LA   R2,PARM1(LOCAT OF FCON)       24626021
 0027B0 9203 D198      07D30        3734          MVI   XREG1,XX03                                               24633021
 0027B4 5040 D148      07CE0        3735        ST    RW4,OP1                                                    24640021
 0027B8 45E0 BB7C      019F4        3736        BAL   RETRG,LA            *   LA   R3,DATA OPD                   24647021
 0027BC 45E0 7854      00854        3737        BAL   RETRG,VBADCE        *   L    R15,V(XXXXIVL0)               24654021
 0027C0 C9E5D3F0                    3738        DC    C'IVL0'             *   BALR 14,15                         24661021
 0027C4 47F0 F15A      02702        3739        B     IMVAR1                BRANCH TO GENERATE L TO BRANCH       24668021
1         IKFCBL51: CLASS TEST ANALYZER  C L A S S   T E S T                                                    PAGE   83
-  LOC  OBJECT CODE    ADDR1 ADDR2  STMT   SOURCE STATEMENT                                       ASM 0201 11.03 02/14/15
00027C8                             3741 IKF50H CSECT                                                            24682021
                                    3742 *                                                                       24689021
                                    3743 *=1    CLASS TEST ANALYZER                                              24696021
                                    3744 *                                                                       24703021
                                    3745 *            A SEPERATE ENTRY POINT EXISTS FOR EACH TYPE OF CLASS T     24710021
                                    3746 *      IE, ALPHA, NOT ALPHA, NUMERIC, NOT NUMERIC.                      24717021
                                    3747 *                                                                       24724021
                                    3748 *    THE ENTRY POINT IS DETERMINED BY THE VALUE OF THE VERB CODE.       24731021
                                    3749 *    THIS CODE MAY APPEAR TO BE DIFFERENT FROM THE VERB USED IN         24738021
                                    3750 *    THE SOURCE STATEMENT.  PHASE4 FLIPS THE VERB EG. NUMERIC BECOM     24745021
                                    3751 *    NOT NUMERIC, IN SIMPLE  'IF'.  IN COMPOUND IF VERBS MAY OR MAY     24752021
                                    3752 *    BE CHANGED BY PHASE4.                                              24759021
                                    3753 *            AT EACH ENTRY POINT THE ADDRESS OF THE TABLE FOR THAT      24766021
                                    3754 *      TYPE OF CLASS TEST IS PUT INTO RW6. THEN CONTROL IS GIVEN TO     24773021
                                    3755 *      THE COMMON CLASS TEST RTN.                                       24780021
                                    3756 *                                                                       24787021
                                    3757 *            THE INPUT ALWAYS HAS TWO OPDS. OPD1 IS A DATA-NAME AND     24794021
                                    3758 *      THE FIELD TO BE TESTED. OPD2 IS THE GN TO TRANSFER TO IF THE     24801021
                                    3759 *      RELATIONAL IS SATISFIED.                                         24808021
                                    3760 *                                                                       24815021
                                    3761 *                                                                       24822021
                                    3762 *NOTE........ALL LABELS ASSOCIATED SOLELY WITH THIS ANALYZER BEGIN      24829021
                                    3763 *            THE CHARACTERS 'CL'.                                       24836021
-
0
                             027C8  3765        USING *,GVERB                                                    24850021
 0027C8 4160 D414      07FAC        3766 PALFA  LA    RW6,CLATB        SET RW6 TO ADDR OF TABLE FOR IF ALPHA     24857021
 0027CC 9201 D624      081BC        3767          MVI   CLSSW,XX01          INDICATE ALPHABETIC TEST             24864021
 0027D0 47F0 902C      027F4        3768          B     CLANAL             BRANCH TO CLANAL RTN                  24871021
                             027D4  3769        USING *,GVERB                                                    24878021
 0027D4 4160 D416      07FAE        3770 NALFA  LA    RW6,CLNATB       SET RW6 TO ADR OF TBL FOR 'IF NOT ALP     24885021
 0027D8 9201 D624      081BC        3771          MVI   CLSSW,XX01          INDICATE ALPHABETIC TEST             24892021
 0027DC 47F0 9020      027F4        3772          B     CLANAL             BRANCH TO CLANAL RTN                  24899021
                             027E0  3773        USING *,GVERB                                                    24906021
                             027E0  3774 PNUMRC   EQU   *                                                        24913021
 0027E0 9208 D419      07FB1        3775          MVI   CLCOND,XX08                                              24920021
 0027E4 4160 D418      07FB0        3776        LA    RW6,NORNNT                                                 24927021
 0027E8 47F0 9014      027F4        3777        B     CLANAL                BRANCH TO COMMON TEST ROUTINE        24934021
                             027EC  3778        USING *,GVERB                                                    24941021
 0027EC 4160 D418      07FB0        3779 NNUMRC   LA    RW6,NORNNT          SET RW6 TO ADR OF 1BYTE TABLE FO     24948021
                                    3780 *                                  NAME OF TABLE                        24955021
 0027F0 9207 D419      07FB1        3781          MVI   CLCOND,XX07                                              24962021
 0027F4 0590                        3782 CLANAL BALR  GVERB,RW0             ESTABLISH ADDRESSABILITY             24969021
                             027F6  3783        USING *,GVERB                                                    24976021
                             027F6  3784 CLANAB EQU   *                                                          24983021
 0027F6 92C5 D418      07FB0        3785          MVI   NORNNT,XCE                                               24990021
 0027FA 4120 DD4C      088E4        3786        LA    RW2,DOP1                                                   24997021
 0027FE 45E0 77F0      007F0        3787        BAL   RETRG,CALCLG     GET LENGTH OF OPD1                        25004021
 002802 47F0 700A      0000A        3788          B     PH5CTL             RETURN TO PH5 CONTROL                 25011021
 002806 9501 D624      081BC        3789          CLI   CLSSW,XX01          ALPHABETIC TEST...                   25018021
 00280A 9200 D624      081BC        3790          MVI   CLSSW,XX00                                               25025021
 00280E 4780 905C      02852        3791        BE    CLAN05                YES                                  25032021
1         IKFCBL51: CLASS TEST ANALYZER  C L A S S   T E S T                                                    PAGE   84
-  LOC  OBJECT CODE    ADDR1 ADDR2  STMT   SOURCE STATEMENT                                       ASM 0201 11.03 02/14/15
0002812 9505 D5ED      08185        3792        CLI   DNMINR,XFIVE                                               25039021
 002816 47D0 903C      02832        3793        BNH   CLAN01                OPD IS NUMERIC EDITED,FIXED OR       25046021
                                    3794 * VAR LENGTH GP OR ALPHANUMERIC-TREATED AS UNSIGNED ED.                 25053021
 00281A 950E D5ED      08185        3795        CLI   DNMINR,XGANE                                               25060021
 00281E 4780 903C      02832        3796        BE    CLAN01               ALPHANUMERIC EDITED                   25067021
 002822 9508 D5ED      08185        3797        CLI   DNMINR,XGEXDC                                              25074021
 002826 4770 9044      0283A        3798        BNE   CLAN04                NOT XTERNAL DECIMAL, BRANCH          25081021
 00282A 9101 2007      00007        3799          TM    XGSCIN(RW2),XX01    SIGNED EXTERNAL DECIMAL...           25088021
 00282E 4710 905C      02852        3800        BO    CLAN05               YES                                   25095021
 002832 92E6 6000      00000        3801 CLAN01   MVI   DX0(RW6),XCW        UNSIGNED ED                          25102021
 002836 47F0 905C      02852        3802        B     CLAN05                GENERATE CONSTANT ATEXT              25109021
 00283A 950C D5ED      08185        3803 CLAN04 CLI   DNMINR,XGINDC                                              25116021
 00283E 4770 905C      02852        3804        BNE   CLAN05                IF NOT INTERNAL DEC GEN A TEXT       25123021
 002842 9101 2007      00007        3805          TM    XGSCIN(RW2),XX01    SIGNED INTERNAL DECIMAL...           25130021
 002846 92C9 6000      00000        3806          MVI   DX0(RW6),XCI                                             25137021
 00284A 4710 905C      02852        3807        BO    CLAN05               YES                                   25144021
 00284E 92E4 6000      00000        3808          MVI   DX0(RW6),XCU       UNSIGNED ID                           25151021
                             02852  3809 CLAN05 EQU   *                                                          25158021
                                    3810 *                                                                       25165021
                                    3811 *                                                                       25172021
 002852 D200 D420 6000 07FB8 00000  3812          MVC   CLTBNM+NX4(LX1),DX0(RW6)                                 25179021
 002858 D207 D168 D41C 07D00 07FB4  3813          MVC   GVIRT1(LX8),CLTBNM     MOVE TABLE NAME FOR GENERATION    25186021
                                    3814 *                                                                       25193021
 00285E D201 D166 A162 07CFE 00162  3815          MVC   VIRTC1+NX2(LX2),VIRCTR                                   25200021
 002864 9202 D198      07D30        3816          MVI   XREG1,XX02                                               25207021
 002868 45E0 B000      00E78        3817        BAL   RETRG,LOAD       GEN                 L    2,=V(XTBL)       25214021
 00286C 9500 D550      080E8        3818          CLI   LENGTH,XX00     TEST IF VARIABLE LNG          X=A I O    25221021
 002870 4770 9146      0293C        3819        BC    NOTEQ,CLVL         BR IF YES                               25228021
 002874 9500 D552      080EA        3820          CLI   LENGTH+NX2,XX00 TEST IF LENGTH GT 256                    25235021
 002878 4770 9146      0293C        3821        BC    NOTEQ,CLVL          BR IF YES                              25242021
 00287C D201 D158 D552 07CF0 080EA  3822          MVC   XL1(LX2),LENGTH+NX2                                      25249021
 002882 9220 D1A6      07D3E        3823          MVI   BDISP2,XX20                                              25256021
 002886 5020 D148      07CE0        3824        ST    RW2,OP1                                                    25263021
 00288A 45E0 BB34      019AC        3825        BAL   RETRG,TRT        GEN                 TRT  OPD1(LNG),0(     25270021
                                    3826 *                                                                       25277021
                                    3827 *                                                                       25284021
                             0288E  3828 VLCLRT  EQU   *                                                         25291021
 00288E D201 D182 DDC9 07D1A 08961  3829          MVC   XGN1(LX2),DOP2+NX1                                       25298021
 002894 9201 D198      07D30        3830          MVI   XREG1,XX01                                               25305021
 002898 45E0 B000      00E78        3831        BAL   RETRG,LOAD       GEN                 L    1,GN             25312021
 00289C 95C1 6000      00000        3832          CLI   DX0(RW6),XXC1        IS TEST  ALPHA  OR NUM              25319021
 0028A0 4780 90B6      028AC        3833        BE    VLCLR1               ALPHA                                 25326021
 0028A4 95E6 D420      07FB8        3834          CLI   CLTBNM+NX4,XCW      WTB0 CALLS TREATED AS ALPHA          25333021
 0028A8 4770 90C8      028BE        3835        BNE   NNNTST               NUMERIC                               25340021
                             028AC  3836 VLCLR1 EQU   *                                                          25347021
 0028AC D200 D198 6001 07D30 00001  3837          MVC   XREG1(LX1),DX1(RW6)                                      25354021
 0028B2 9201 D1E0      07D78        3838          MVI   XREG2,XX01                                               25361021
 0028B6 45E0 BBAE      01A26        3839        BAL   RETRG,BRANCH     GEN                 BCR  COND,1           25368021
                                    3840 *                                                                       25375021
                                    3841 *                                                                       25382021
 0028BA 47F0 9102      028F8        3842          B     QRETCL              QUPDATE IF NEX AND PROC NXT P2       25389021
 0028BE 9203 C388      071B8        3843 NNNTST   MVI   XREGNO,XX03          FREE REG 3 FOR NUM ORNOT NUM        25396021
 0028C2 9204 D198      07D30        3844          MVI   XREG1,XX04                                               25403021
 0028C6 D201 D17F D424 07D17 07FBC  3845          MVC   XCON1+NX15(LX2),CLCNF1         GEN     L   4,=1          25410021
 0028CC 45E0 B000      00E78        3846          BAL   RETRG,LOAD          GENERATE LOAD INSTRUCTION            25417021
1         IKFCBL51: CLASS TEST ANALYZER  C L A S S   T E S T                                                    PAGE   85
-  LOC  OBJECT CODE    ADDR1 ADDR2  STMT   SOURCE STATEMENT                                       ASM 0201 11.03 02/14/15
00028D0 9203 D198      07D30        3847          MVI   XREG1,XX03                BALR   3,0                     25424021
 0028D4 45E0 BC18      01A90        3848          BAL   RETRG,BALR          GENERATE BALR INSTRUCTION            25431021
 0028D8 950F D0B6      07C4E        3849          CLI   GANLNO,XX0F               IS VERB EQ NUM OR NOT-NUM      25438021
 0028DC 4770 911E      02914        3850          BC    NOTEQ,NUM               BRANCH IF NUM                    25445021
 0028E0 95C5 6000      00000        3851          CLI   DX0(RW6),XXC5             IS IT ED OR ID                 25452021
 0028E4 4770 9112      02908        3852          BC    NOTEQ,IDNNM              BRANCH IF ID                    25459021
 0028E8 45E0 78C6      008C6        3853          BAL   RETRG,GATXTC             ED,NOT-NUM                      25466021
 0028EC 0102                        3854          DC    AL2(ATXT78-ATXTBC)                                       25473021
 0028EE 0009                        3855          DC    AL2(ZTXT78-ATXT78)                                       25480021
 0028F0 45E0 78C6      008C6        3856          BAL   RETRG,GATXTC        COMPLETE ATEXT                       25487021
 0028F4 00F0                        3857          DC    AL2(ATXT76-ATXTBC)                                       25494021
 0028F6 0006                        3858          DC    AL2(ZTXT76-ATXT76)                                       25501021
 0028F8 9101 D562      080FA        3859 QRETCL   TM    QRETSW,XX01             RETURN TO QUPDAT                 25508021
 0028FC 4780 700A      0000A        3860        BZ    PH5CTL                     NO                              25515021
 002900 5890 C2A0      070D0        3861        L     GVERB,ADCN43              YES-RESTORE R15                  25522021
                             05E0C  3862        USING QUPDAT,GVERB                                               25529021
 002904 47F0 915C      05F68        3863        B     QBINR                 UPDATE QUEUE                         25536021
                                    3864        DROP GVERB                                                       25543021
                             027F6  3865        USING  CLANAB,GVERB                                              25550021
 002908 45E0 78C6      008C6        3866 IDNNM    BAL   RETRG,GATXTC             ID,NOT-NUM                      25557021
 00290C 00ED                        3867          DC    AL2(ATXT73-ATXTBC)                                       25564021
 00290E 0009                        3868          DC    AL2(ZTXT76-ATXT73)                                       25571021
 002910 47F0 9102      028F8        3869        B     QRETCL                QUPDATE IF NEC AND PROC NXT P2       25578021
 002914 95C5 6000      00000        3870 NUM      CLI   DX0(RW6),XXC5             IS IT ID OR ED                 25585021
 002918 4770 913A      02930        3871          BC    NOTEQ,IDNUM              BRANCH IF ID                    25592021
 00291C 45E0 78C6      008C6        3872          BAL   RETRG,GATXTC        FILL IN A TEXT                       25599021
 002920 010B                        3873          DC    AL2(ATXT79-ATXTBC)                                       25606021
 002922 0009                        3874          DC    AL2(ZTXT79-ATXT79)                                       25613021
 002924 45E0 78C6      008C6        3875          BAL   RETRG,GATXTC        FILL IN A TEXT                       25620021
 002928 00FC                        3876          DC    AL2(ATXT77-ATXTBC)                                       25627021
 00292A 0006                        3877          DC    AL2(ZTXT77-ATXT77)                                       25634021
 00292C 47F0 700A      0000A        3878          B     PH5CTL             RETURN TO PH5 CONTROL                 25641021
 002930 45E0 78C6      008C6        3879 IDNUM    BAL   RETRG,GATXTC             ID,NUM                          25648021
 002934 00F6                        3880          DC    AL2(ATXT74-ATXTBC)                                       25655021
 002936 000C                        3881          DC    AL2(ZTXT77-ATXT74)                                       25662021
 002938 47F0 700A      0000A        3882          B     PH5CTL             RETURN TO PH5 CONTROL                 25669021
                                    3883 *                        RTN  FOR OPD1 BEING VARIABLE LENGTH            25676021
                                    3884 *                                                                       25683021
 00293C 4130 D410      07FA8        3885 CLVL   LA    RW3,CLVLNM                                                 25690021
 002940 45E0 77D0      007D0        3886        BAL   RETRG,VBALR1     GO TO GEN           L    15,=V(VLCLAS     25697021
 002944 4120 DD4C      088E4        3887        LA    RW2,DOP1                             BALR 1,15             25704021
 002948 45E0 7786      00786        3888        BAL   RETRG,DIINFO     GO TO GEN           PARAM FOR OPD1        25711021
 00294C 47F0 9098      0288E        3889        BC    UNCOND,VLCLRT         GENERATE A TEXT                      25718021
1         TRANSFORM VERB ANALYZER   T  R  A  N  S  F  O  R  M                                                   PAGE   86
-  LOC  OBJECT CODE    ADDR1 ADDR2  STMT   SOURCE STATEMENT                                       ASM 0201 11.03 02/14/15
0                                   3891 *                                                                       25732021
                                    3892 *                                                                       25739021
                                    3893 *=1    TRANSFORM ANALYZER                                               25746021
                                    3894 *                                                                       25753021
                                    3895 *      THE TRANSFORM ANALYZER IS GIVEN CONTROL BY PH5CTL WHENEVER A     25760021
                                    3896 *      TRANSFORM STRING HAS BEEN ENCOUNTERED.                           25767021
                                    3897 *                                                                       25774021
                                    3898 *            THE INPUT TO THIS ANALYZER CONSISTS OF 4 OPERANDS. THE     25781021
                                    3899 *      FIRST OPERAND IS AN 'INFO' TYPE OPD AND IS NOT USED. THE THI     25788021
                                    3900 *      OPERAND IS THE 'FROM' OPD, THE FOURTH OPD THE 'TO' OPD AND T     25795021
                                    3901 *      SECOND OPD IS THE DATA-NAME TO BE TRANSFORMED.                   25802021
                                    3902 *                                                                       25809021
                                    3903 *            THE GENERATION CONSISTS OF TWO PARTS. PART1 GENERATES      25816021
                                    3904 *      TO SET UP A TRANSLATE TABLE AND PART2  GENERATES CODE TO DO      25823021
                                    3905 *      TRANSLATION.                                                     25830021
                                    3906 *                                                                       25837021
                                    3907 *            THE GENERATION FOR PART1 ALWAY BEGINS WITH                 25844021
                                    3908 *                                                                       25851021
                                    3909 *                   L    2,=V(TRTBL)                                    25858021
                                    3910 *                   MVC  TS2(256),0(2)                                  25865021
                                    3911 *                                                                       25872021
                                    3912 *      'TRTBL' IS AN OBJECT 'SUBROUTINE' WHICH CONSISTS SOLELY OF A     25879021
                                    3913 *      TRANSLATE TABLE WHERE BYTE 0 IS 00, BYTE 1 IS 01, ETC UP TO      25886021
                                    3914 *      BYTE 255 IS FF. TS2 IS A TEMPORARY STORAGE AREA. THE REST OF     25893021
                                    3915 *      THE CODING GENERATED IN PART1 CAUSES THE TRANSLATE TABLE TO      25900021
                                    3916 *      MODIFIED IN THE TS2  AREA AS INDICATED BY OPDS 3 AND 4.          25907021
                                    3917 *      THE REST OF THE CODING GENERATED IN PART 1 DEPENDS ON THE TY     25914021
                                    3918 *      OF OPERANDS THAT OPD2 AND OPD3 ARE                               25921021
                                    3919 *                                                                       25928021
                                    3920 *            1.IF OPD3 IS A 1-BYTE FIGCON OR LTL AND OPD4 IS A DATA     25935021
                                    3921 *                                                                       25942021
                                    3922 *                   MVC  TS2+N(1),OPD4                                  25949021
                                    3923 *                                                                       25956021
                                    3924 *              WHERE N IS THE VALUE OF THE FIGCON OR LTL                25963021
                                    3925 *                                                                       25970021
                                    3926 *            2.IF OPD3 IS A LITERAL NOT GREATER THAN 8 BYTES            25977021
                                    3927 *              AND OPD4 IS A FIGCON OR LTL OF 1 BYTE.                   25984021
                                    3928 *                                                                       25991021
                                    3929 *                   MVI  TS2+N1,X'OPD4'                                 25998021
                                    3930 *                   MVI  TS2+N2,X'OPD4'                                 26005021
                                    3931 *                    .                                                  26012021
                                    3932 *                    .                                                  26019021
                                    3933 *                    .                                                  26026021
                                    3934 *              THAT IS, AN MVI IS GENERATED FOR EACH BYTE OF OPD3.      26033021
                                    3935 *              N1 IS THE VALUE OF THE 1ST BYTE OF THE LITERAL, N2       26040021
                                    3936 *              IS THE VALUE OF THE 2ND BYTE OF THE LITERAL, ETC.        26047021
                                    3937 *                                                                       26054021
                                    3938 *            3. IF OPD3 AND OPD4 ARE LITERALS NOT GREATER THAN 8 BY     26061021
                                    3939 *               BOTH OF EQUAL LENGTH AND GREATER THAN 1 BYTE.           26068021
                                    3940 *                                                                       26075021
                                    3941 *                   MVI  TS2+N1,'OPD4'                                  26082021
                                    3942 *                   MVI  TS2+N2,'OPD4+1'                                26089021
                                    3943 *                    .                                                  26096021
                                    3944 *                    .                                                  26103021
                                    3945 *                    .                                                  26110021
1         TRANSFORM VERB ANALYZER   T  R  A  N  S  F  O  R  M                                                   PAGE   87
-  LOC  OBJECT CODE    ADDR1 ADDR2  STMT   SOURCE STATEMENT                                       ASM 0201 11.03 02/14/15
0                                   3946 *               SEE  COMMENTS FOR =2 ABOVE.                             26117021
                                    3947 *                                                                       26124021
                                    3948 *            4. IF OPD3 IS DATA-NAME GT 1 OR LITERAL GT 8               26131021
                                    3949 *                                                                       26138021
                                    3950 *                   LA   1,LENGTH-OF-OPD3                               26145021
                                    3951 *                   SR   2,2                                            26152021
                                    3952 *                   BALR 3,0                                            26159021
                                    3953 *                   IC   0,OPD4(X)      X= 0 IF OPD4 IS 1 BYTE LONG     26166021
                                    3954 *                   IC   2,OPD3(1)      ' OTHERWISE X = 1               26173021
                                    3955 *                   STC  0,TS2(2)                                       26180021
                                    3956 *                   BCTR 1,0                                            26187021
                                    3957 *                   LTR  1,1                                            26194021
                                    3958 *                   BCR  NOTNEG,3                                       26201021
                                    3959 *                                                                       26208021
                                    3960 *            5. IF OPD3 IS DATA-NAME 1-BYTE LONG                        26215021
                                    3961 *                                                                       26222021
                                    3962 *                   SR   1,1                                            26229021
                                    3963 *                   IC   0,OPD4                                         26236021
                                    3964 *                   IC   1,OPD3                                         26243021
                                    3965 *                   STC  0,TS2(1)                                       26250021
                                    3966 *                                                                       26257021
                                    3967 *            PART 2 OF THE CODING IS VARIABLE DEPENDING ON THE LENG     26264021
                                    3968 *      OF OPD2. IF OPD2 IS NOT VARIABLE LENGTH THEN                     26271021
                                    3969 *                                                                       26278021
                                    3970 *                   TR   OPD2(256),TS2                                  26285021
                                    3971 *                   TR   OPD2+256(256),TS2                              26292021
                                    3972 *                   TR   OPD2+512(256),TS2                              26299021
                                    3973 *                    .                                                  26306021
                                    3974 *                    .                                                  26313021
                                    3975 *                    .                                                  26320021
                                    3976 *                   TR   OPD2+N(LENGTH),TS2                             26327021
                                    3977 *                                                                       26334021
                                    3978 *            WHERE N IS SOME MULTIPLE OF 256 AND LENGTH IS THE          26341021
                                    3979 *            REMAINDER OF THE DIVISION OF THE TOTAL LENGTH BY 256.      26348021
                                    3980 *            OF COURSE, IF THE TOTAL LENGTH IS NOT OT 256 ONLY THE      26355021
                                    3981 *            LAST INSTRUCTION IS GENERATED.                             26362021
                                    3982 *                                                                       26369021
                                    3983 *      IF OPD 2 IS VARIABLE LENGTH THEN                                 26376021
                                    3984 *                                                                       26383021
                                    3985 *                   LA   2,TS2                                          26390021
                                    3986 *                   L    15,=V(TRVL)                                    26397021
                                    3987 *                   BALR 1,15                                           26404021
                                    3988 *                   PARAMETER FOR OPD2                                  26411021
                                    3989 *                                                                       26418021
                                    3990 *                                                                       26425021
                                    3991 *                                                                       26432021
                             02950  3992        USING *,GVERB                                                    26439021
 002950 9201 C388      071B8        3993 TRANSF   MVI   XREGNO,XX01     FREE REGISTERS 1 AND 2                   26446021
 002954 45E0 79A6      009A6        3994          BAL   RETRG,GDES14        DESTORY REGISTER 14                  26453021
 002958 45E0 79AE      009AE        3995          BAL   RETRG,GDES15        DESTROY REGISTER 15                  26460021
 00295C 4810 D4BE      08056        3996        LH    RW1,H256                                                   26467021
 002960 4910 A16A      0016A        3997        CH    RW1,TS2MAX                                                 26474021
 002964 47D0 901C      0296C        3998        BNH   TRAAA                 SKIP NEXT INSTRUCTION                26481021
 002968 4010 A16A      0016A        3999        STH   RW1,TS2MAX                                                 26488021
                             0296C  4000 TRAAA EQU    *                                                          26495021
1         TRANSFORM VERB ANALYZER   T  R  A  N  S  F  O  R  M                                                   PAGE   88
-  LOC  OBJECT CODE    ADDR1 ADDR2  STMT   SOURCE STATEMENT                                       ASM 0201 11.03 02/14/15
000296C D207 D168 D400 07D00 07F98  4001          MVC   GVIRT1(LX8),TRNAM                                        26502021
 002972 D201 D166 A162 07CFE 00162  4002          MVC   VIRTC1+NX2(LX2),VIRCTR                                   26509021
 002978 9202 D198      07D30        4003          MVI   XREG1,XX02                                               26516021
 00297C 45E0 B000      00E78        4004        BAL   RETRG,LOAD       GENERATE            L    2 ,=V(TRTBL)     26523021
 002980 9230 D188      07D20        4005          MVI   XCNTR1,XX30                                              26530021
 002984 9201 D18A      07D22        4006          MVI   XCNTR1+NX2,XX01                                          26537021
 002988 4100 0100      00100        4007          LA    RW0,DX256                                                26544021
 00298C 4000 D158      07CF0        4008        STH   RW0,XL1                                                    26551021
 002990 9220 D1A6      07D3E        4009          MVI   BDISP2,XX20                                              26558021
 002994 45E0 B18C      01004        4010        BAL   RETRG,MVC        GENERATE            MVC  TS2(256),0(2     26565021
 002998 4120 DE44      089DC        4011        LA    RW2,DOP3         GET LENGTH OF OPD3                        26572021
 00299C 45E0 77F0      007F0        4012        BAL   RETRG,CALCLG          GET LENGTH OF DOP3                   26579021
 0029A0 47F0 700A      0000A        4013        BC    UNCOND,PH5CTL         RETURN TO PHASE 5 CONTROL            26586021
0
 0029A4 D201 D40E D552 07FA6 080EA  4015          MVC   TRLNG3(LX2),LENGTH+NX2 SAVE LENGTH                       26600021
 0029AA 4120 DEC0      08A58        4016        LA    RW2,DOP4         GET LENGTH OF OPD4                        26607021
 0029AE 45E0 77F0      007F0        4017        BAL   RETRG,CALCLG          GET LENGTH OF DOP4                   26614021
 0029B2 47F0 700A      0000A        4018        BC    UNCOND,PH5CTL         RETURN TO PHASE 5 CONTROL            26621021
 0029B6 9575 DE44      089DC        4019          CLI   DOP3,XX75       TEST IF OPD3 IS FIGCON                   26628021
 0029BA 4770 907C      029CC        4020        BC    NOTEQ,TRA             IF NOT FIGCON,  BRANCH...            26635021
 0029BE 9234 DE44      089DC        4021          MVI   DOP3,XX34       YES, CONVERT TO ALPHAN LITERAL           26642021
 0029C2 D200 DE46 DE45 089DE 089DD  4022          MVC   DOP3+NX2(LX1),DOP3+NX1                                   26649021
 0029C8 9201 DE45      089DD        4023          MVI   DOP3+NX1,XX01                                            26656021
 0029CC 9575 DEC0      08A58        4024 TRA      CLI   DOP4,XX75       DITTO FOR OPD4                           26663021
 0029D0 4770 9092      029E2        4025        BC    NOTEQ,TRB             IF NOT FIGCON,  BRANCH...            26670021
 0029D4 9234 DEC0      08A58        4026          MVI   DOP4,XX34                                                26677021
 0029D8 D200 DEC2 DEC1 08A5A 08A59  4027          MVC   DOP4+NX2(LX1),DOP4+NX1                                   26684021
 0029DE 9201 DEC1      08A59        4028          MVI   DOP4+NX1,XX01                                            26691021
 0029E2 9200 D40D      07FA5        4029 TRB      MVI   TRINC4+NX1,XX00 INIT FIELD TO ZERO                       26698021
 0029E6 9501 D553      080EB        4030          CLI   LENGTH+NX3,XX01   AND THEN SET IT TO 1 IF OPD4 IS        26705021
 0029EA 4780 90A2      029F2        4031        BE    TRBBB                LONGER THAN 1 BYTE                    26712021
 0029EE 9201 D40D      07FA5        4032          MVI   TRINC4+NX1,XX01                                          26719021
                             029F2  4033 TRBBB EQU    *                                                          26726021
 0029F2 9501 D40F      07FA7        4034          CLI   TRLNG3+NX1,XX01 TEST IF OPD3 HAS LENGTH OF 1 BYTE        26733021
 0029F6 4770 90B6      02A06        4035        BC    NOTEQ,TRC          BR IF NO                                26740021
 0029FA 9534 DE44      089DC        4036          CLI   DOP3,XX34       TEST IF OPD3 A LITERAL                   26747021
 0029FE 4770 9164      02AB4        4037        BC    NOTEQ,TRDN1        BR IF NO                                26754021
 002A02 47F0 90C6      02A16        4038        BC    UNCOND,TR1       GO TO RTN FOR OPD3 HAVING LNG OF 1        26761021
                                    4039 *                        AT THIS POINT IT IS KNOWN THAT OPD3 GT 1 B     26768021
 002A06 9534 DE44      089DC        4040 TRC      CLI   DOP3,XX34       TEST IF OPD3 IS LITERAL                  26775021
 002A0A 4770 911A      02A6A        4041        BC    NOTEQ,TRDN         BR IF NO                                26782021
 002A0E 9508 D40F      07FA7        4042          CLI   TRLNG3+NX1,XX08 TEST IF LITERAL LENGTH GT 8              26789021
 002A12 4720 911A      02A6A        4043        BC    HI,TRDN            BR IF YES                               26796021
 002A16 1B33                        4044 TR1    SR    RW3,RW3                                                    26803021
 002A18 1B44                        4045        SR    RW4,RW4                                                    26810021
                                    4046 *                                                                       26817021
                                    4047 *                        RTN FOR GENERATING CODE FOR SETTING UP TRA     26824021
                                    4048 *                        TABLE FOR OPD3 LITERAL 8 BYTES OR LESS         26831021
 002A1A 4303 DE46      089DE        4049 TR1LP    IC    RW0,DOP3+NX2(RW3) PICK UP NEXT CHAR OF OPD3 LITERAL      26838021
 002A1E 4200 D18D      07D25        4050          STC   RW0,PLUS1+NX2     AND PUT IT AS PLUS FACTOR IN NEXT I    26845021
                                    4051 *                               TO BE GENERATED                         26852021
 002A22 9230 D188      07D20        4052          MVI   XCNTR1,XX30     SET UP SO THAT TEMP STORAGE-2 WILL BE    26859021
 002A26 9201 D18A      07D22        4053          MVI   XCNTR1+NX2,XX01   OPD 1 OF NEXT INSTR GENERATED          26866021
 002A2A 9534 DEC0      08A58        4054          CLI   DOP4,XX34       TEST IF OPD4 IS A LITERAL                26873021
1         TRANSFORM VERB ANALYZER   T  R  A  N  S  F  O  R  M                                                   PAGE   89
-  LOC  OBJECT CODE    ADDR1 ADDR2  STMT   SOURCE STATEMENT                                       ASM 0201 11.03 02/14/15
0002A2E 4780 90FA      02A4A        4055        BC    EQ,TR1A            BR IF YES                               26880021
 002A32 4040 D1D4      07D6C        4056          STH   RW4,PLUS2+NX1   NO, SET UP PLUS ELEMENT FOR OPD2 OF N    26887021
 002A36 9201 D159      07CF1        4057          MVI   XL1+NX1,XX01      INSTR TO BE GENERATED...ALSO SET LE    26894021
 002A3A 4100 DEC0      08A58        4058        LA    RW0,DOP4         SET UP OPD2 OF NEXT INSTR TO BE GENER     26901021
 002A3E 5000 D148      07CE0        4059        ST    RW0,OP1            AS DATA NAME                            26908021
 002A42 45E0 B18C      01004        4060        BAL   RETRG,MVC        GENERATE            MVC  TS2+N(1),DN+     26915021
 002A46 47F0 9106      02A56        4061        BC    UNCOND,TR1B           SKIP NEXT FEW INSTRUCTIONS           26922021
 002A4A 4304 DEC2      08A5A        4062 TR1A     IC    RW0,DOP4+NX2(RW4) GET NEXT CHAR OF OPD4 LITERAL AND PUT  26929021
 002A4E 4200 D199      07D31        4063        STC   RW0,IMM            AS IMMEDIATE CHAR OF NEXT INSTR TO      26936021
 002A52 45E0 BABC      01934        4064        BAL   RETRG,MVI          GENERATED...THEN GENERATE               26943021
 002A56 4133 0001      00001        4065 TR1B     LA    RW3,DX1(RW3)                        MVI  TS2+N,CHAR      26950021
 002A5A 4A40 D40C      07FA4        4066        AH    RW4,TRINC4       STEP REGS FOR NEXT GO-ROUND               26957021
 002A5E 4930 D40E      07FA6        4067        CH    RW3,TRLNG3       TEST IF DONE                              26964021
 002A62 4770 90CA      02A1A        4068        BC    NOTEQ,TR1LP        LOOP IF NO                              26971021
 002A66 47F0 919C      02AEC        4069        BC    UNCOND,TRP2           GO TO TRP2                           26978021
0
                                    4071 *                        RTN FOR GENERATING CODE TO SET UP TRANSLAT     26992021
                                    4072 *                        TABLE WHEN OPD3 IS DN GT 1 OR LITERAL GT8.     26999021
                             02A6A  4073 TRDN   EQU   *                                                          27006021
 002A6A 4800 D40E      07FA6        4074        LH    RW0,TRLNG3                                                 27013021
 002A6E 0600                        4075        BCTR  RW0,RW0               DECREMENT ONE OF CONTENT OF RW3      27020021
 002A70 4000 D40E      07FA6        4076        STH   RW0,TRLNG3                                                 27027021
 002A74 D201 DA7F D40E 08617 07FA6  4077          MVC   A56CH1(LX2),TRLNG3   *    LA   1,LENGTH-1                27034021
 002A7A 45E0 78D2      008D2        4078        BAL   RETRG,GATXTV          *    SR   2,2                        27041021
 002A7E 044F                        4079        DC    AL2(ATXT56-ATXTBV)    *    FREE GPR3                       27048021
 002A80 0010                        4080        DC    AL2(ZTXT56-ATXT56)    *    BALR 3,0                        27055021
 002A82 D200 D19A D40D 07D32 07FA5  4081          MVC   XXREG(LX1),TRINC4+NX1 SET INDEX REG FOR NEXT GENERATED I 27062021
 002A88 4100 DEC0      08A58        4082        LA    RW0,DOP4           TO 0 OR 1.                              27069021
 002A8C 5000 D148      07CE0        4083        ST    RW0,OP1          SET UP SO THAT OPD4 IS REFERENCED IN      27076021
 002A90 45E0 BB6C      019E4        4084        BAL   RETRG,IC           NEXT GENERATED INSTR AND GENERATE       27083021
                                    4085 *                                                 IC   0,OPD4(X)        27090021
                                    4086 *                                                           X= 0 OR     27097021
 002A94 9202 D198      07D30        4087          MVI   XREG1,XX02                                               27104021
 002A98 4100 DE44      089DC        4088        LA    RW0,DOP3                                                   27111021
 002A9C 5000 D148      07CE0        4089        ST    RW0,OP1                                                    27118021
 002AA0 9201 D19A      07D32        4090          MVI   XXREG,XX01                                               27125021
 002AA4 45E0 BB6C      019E4        4091        BAL   RETRG,IC         GENERATE            IC   2,OPD3(1)        27132021
 002AA8 45E0 78C6      008C6        4092        BAL   RETRG,GATXTC          *    STC  0,TS2(2)                   27139021
 002AAC 00CB                        4093        DC    AL2(ATXT57-ATXTBC)    *    BCTR 1,0                        27146021
 002AAE 0010                        4094        DC    AL2(ZTXT57-ATXT57)    *    LTR  1,1                        27153021
                                    4095 *                                  *    BCR  NOTNEG,3                   27160021
 002AB0 47F0 919C      02AEC        4096        BC    UNCOND,TRP2           GO TO TRP2                           27167021
                                    4097 *                                                                       27174021
                                    4098 *                        RTN FOR GENERATING CODE TO SET UP TRANSLAT     27181021
                                    4099 *                        TABLE IF OPD3 DATA-NAME WITH LENGTH OF 1       27188021
                                    4100 *                                                                       27195021
 002AB4 9201 D198      07D30        4101 TRDN1    MVI   XREG1,XX01                                               27202021
 002AB8 9201 D1E0      07D78        4102          MVI   XREG2,XX01                                               27209021
 002ABC 45E0 B038      00EB0        4103        BAL   RETRG,SR         GENERATE            SR   1,1              27216021
 002AC0 4100 DEC0      08A58        4104        LA    RW0,DOP4                                                   27223021
 002AC4 5000 D148      07CE0        4105        ST    RW0,OP1                                                    27230021
 002AC8 45E0 BB6C      019E4        4106        BAL   RETRG,IC         GENERATE            IC   0,OPD4           27237021
 002ACC 9201 D198      07D30        4107          MVI   XREG1,XX01                                               27244021
 002AD0 4100 DE44      089DC        4108        LA    RW0,DOP3                                                   27251021
1         TRANSFORM VERB ANALYZER   T  R  A  N  S  F  O  R  M                                                   PAGE   90
-  LOC  OBJECT CODE    ADDR1 ADDR2  STMT   SOURCE STATEMENT                                       ASM 0201 11.03 02/14/15
0002AD4 5000 D148      07CE0        4109        ST    RW0,OP1                                                    27258021
 002AD8 45E0 BB6C      019E4        4110        BAL   RETRG,IC         GENERATE            IC   1,OPD3           27265021
 002ADC 9201 D19A      07D32        4111          MVI   XXREG,XX01                                               27272021
 002AE0 9230 D188      07D20        4112          MVI   XCNTR1,XX30                                              27279021
 002AE4 9201 D18A      07D22        4113          MVI   XCNTR1+NX2,XX01                                          27286021
 002AE8 45E0 BB74      019EC        4114        BAL   RETRG,STC        GENERATE            STC  0,TS2(1)         27293021
                                    4115 *                                                                       27300021
                                    4116 *                                                                       27307021
                                    4117 *                                                                       27314021
                                    4118 *                                                                       27321021
                                    4119 *                                                                       27328021
                                    4120 *                                                                       27335021
 002AEC 4120 DDC8      08960        4121 TRP2   LA    RW2,DOP2         GET LENGTH OPD2                           27342021
 002AF0 45E0 77F0      007F0        4122        BAL   RETRG,CALCLG          GET LENGTH OF DOP2                   27349021
 002AF4 47F0 700A      0000A        4123        BC    UNCOND,PH5CTL         RETURN TO PHASE 5 CONTROL            27356021
-
 002AF8 9500 D550      080E8        4125          CLI   LENGTH,XX00     TEST IF VARIABLE LENGTH                  27370021
 002AFC 4770 91EE      02B3E        4126        BC    NOTEQ,TRVL         BR IF YES                               27377021
 002B00 5810 D550      080E8        4127        L     RW1,LENGTH       NO, PUT LENGTH IN RW1                     27384021
 002B04 1B22                        4128        SR    RW2,RW2                                                    27391021
 002B06 4150 0100      00100        4129          LA    RW5,DX256                                                27398021
 002B0A 4130 DDC8      08960        4130        LA    RW3,DOP2                                                   27405021
 002B0E 1915                        4131 TRLOOP CR    RW1,RW5          TEST IF MORE THAN 255 BYTES LEFT          27412021
 002B10 4720 91C6      02B16        4132        BC    HI,SKIP6                  BR IF YES                        27419021
 002B14 1851                        4133        LR    RW5,RW1            NO, PUT NUMBER BYTES IN RW5             27426021
 002B16 4050 D158      07CF0        4134 SKIP6  STH   RW5,XL1                   NO. OF BYTES IN XL1              27433021
 002B1A 4100 DDC8      08960        4135        LA    RW0,DOP2                                                   27440021
 002B1E 5000 D148      07CE0        4136        ST    RW0,OP1                                                    27447021
 002B22 4020 D18C      07D24        4137          STH   RW2,PLUS1+NX1                                            27454021
 002B26 9230 D1D0      07D68        4138          MVI   XCNTR2,XX30                                              27461021
 002B2A 9201 D1D2      07D6A        4139          MVI   XCNTR2+NX2,XX01 GENERATE       TR   OPD2+N(LNG),TS2      27468021
 002B2E 45E0 BB2C      019A4        4140        BAL   RETRG,TR              PUT A TEXT  TR INST.                 27475021
 002B32 1A25                        4141        AR    RW2,RW5              INCR RW2 SO NEXT PLUS WILL BE 256     27482021
 002B34 1B15                        4142        SR    RW1,RW5              DECR LNGTH BY NUMBER BYTES TRANSL     27489021
 002B36 4770 91BE      02B0E        4143        BC    NOTZER,TRLOOP    LOOP IF MORE TO BE TRANSLATED             27496021
 002B3A 47F0 920E      02B5E        4144        BC    UNCOND,TREND          GO TO TREND AFTER TRANS.             27503021
                                    4145 *                                                                       27510021
                                    4146 *                                                                       27517021
                                    4147 *                                                                       27524021
                                    4148 *                                                                       27531021
                             02B3E  4149 TRVL   EQU   *                                                          27538021
 002B3E 9202 D198      07D30        4150          MVI   XREG1,XX02                                               27545021
 002B42 9230 D188      07D20        4151          MVI   XCNTR1,XX30                                              27552021
 002B46 9201 D18A      07D22        4152          MVI   XCNTR1+NX2,XX01                                          27559021
 002B4A 45E0 BB7C      019F4        4153        BAL   RETRG,LA         GENERATE            LA   2,TS2            27566021
 002B4E 4130 D408      07FA0        4154        LA    RW3,TRVLNM                                                 27573021
 002B52 45E0 77D0      007D0        4155        BAL   RETRG,VBALR1     GENERATE            L    15,=V(TRVL)      27580021
 002B56 4120 DDC8      08960        4156        LA    RW2,DOP2                             BALR 1,15             27587021
 002B5A 45E0 7786      00786        4157        BAL   RETRG,DIINFO     GENERATE            PARAM FOR OPERAND     27594021
 002B5E 47F0 700A      0000A        4158 TREND    B     PH5CTL                  RETURN                           27601021
1         EXAMINE VERB ANALYZER     E  X  A  M  I  N  E                                                         PAGE   91
-  LOC  OBJECT CODE    ADDR1 ADDR2  STMT   SOURCE STATEMENT                                       ASM 0201 11.03 02/14/15
0                                   4160 *=1    ANALYZER FOR EXAMINE                                             27615021
                                    4161 *            THIS ANALYZER GENERATES CODING FOR THE EXAMINE VERB. T     27622021
                                    4162 *            GENERATED CODE VARIES DEPENDING ON THE SOURCE OPIONS       27629021
                                    4163 *            SPECIFIED.                                                 27636021
                                    4164 *                                                                       27643021
                                    4165 *            THE GENERATED CODE IS AS FOLLOWS                           27650021
                                    4166 *                   SR   0,0       ONLY IF TALLY INDICATED              27657021
                                    4167 *                   LA   1,OPD2                                         27664021
                                    4168 *        L     4,=1                                                     27671021
                                    4169 *                   LA   2,LENGTH  ONLY IF FIXED LENGTH                 27678021
                                    4170 *                   LH   2,VLC     ONLY IF VARIABLE LENGTH              27685021
                                    4171 *                   BALR 3,0                                            27692021
                                    4172 *        SR    2,4                                                      27699021
                                    4173 *                   BC   NEG,D3(3) ONLY IF OPD3 NOT NUM, SIGNED         27706021
                                    4174 *                   BC   ZERO,D2(3)ONLY IF OPD3 NUMERIC, SIGNED         27713021
                                    4175 *                   CLI  0(1),CHAR1                                     27720021
                                    4176 *            *      BC   COND,DX(3)                                     27727021
                                    4177 *                   MVC  0(1),CHAR2 ONLY IF REPLACING                   27734021
                                    4178 *                   BCTR 0,0       ONLY IF TALLY INDICATED              27741021
                                    4179 *                   BC   15,DISP3(3) ONLY IF FIRST INDICATED            27748021
                                    4180 *            **     LA   1,1(1)                                         27755021
                                    4181 *                   BCR  15,3                                           27762021
                                    4182 *                                                                       27769021
                                    4183 *            ***    TM   0(1),CHAR1     ONLY IF NUM SIGNED              27776021
                                    4184 *                   BC   NOTONE,D4(3)        DITTO                      27783021
                                    4185 *                   TM   0(1),15-CHAR1       DITTO                      27790021
                                    4186 *            *****  BC   COND,D3(3)          DITTO                      27797021
                                    4187 *            ****** MVN  0(1,1),=X'CHAR2'    DITTO AND REPLACING        27804021
                                    4188 *                   BCTR 0,0                 DITTO AND TALLY INDICA     27811021
                                    4189 *            ****   LCR  0,0            ONLY IF TALLY INDICATED         27818021
                                    4190 *                   ST   0,TALLY        ONLY IF TALLY INDICATED         27825021
                                    4191 *                                                                       27832021
                                    4192 *            *   CONDITION CODE AND DISPLACEMENT VARIES ACCORDING T     27839021
                                    4193 *                   TYPE OF EXAMINE. BEFORE GENERATING ANY INSTRUCT     27846021
                                    4194 *                   THE ANALYZER DETERMINES THE DISPLACEMENTS           27853021
                                    4195 *                   NECESSARY FOR THE BC INSTRUCTIONS TO BE GENERAT     27860021
                                    4196 *                   THE DISPLACEMENT OF THE LA INSTR (MARKED WITH T     27867021
                                    4197 *                   DOUBLE *) IS SAVED IN EXDSP1. THE DISP OF THE R     27874021
                                    4198 *                   TO TEST THE LAST CHAR FOR SIGNED NUM EXAMINES       27881021
                                    4199 *                   (MARKED WITH THE DOUBLE *) IS SAVED IN EXDSP2.      27888021
                                    4200 *                   THE DISPLACEMENT OF THE INSTRUCTION TO BRANCH T     27895021
                                    4201 *                   WHEN THE EXAMINE LOOP IS TO BE TERMINATED IS SA     27902021
                                    4202 *                   IN EXDSP3.                                          27909021
                                    4203 *                                                                       27916021
                                    4204 *                   IF EXAMINE IS FOR UNTIL COND CODE IS 8...OTHERW     27923021
                                    4205 *                   IT IS 7. IF EXAMINE IS FOR ALL OR FIRST DX IS S     27930021
                                    4206 *                   TO EXDSP1. IF FOR UNTIL OR LEADING THE  DX IS S     27937021
                                    4207 *                   TO EXDSP3.                                          27944021
                                    4208 *                   CHAR1 IS AN OPD SPECIFYING CHAR BEING TESTED FO     27951021
                                    4209 *                   CHAR2 IS AN OPD SPECIFYING CHAR FOR REPLACING       27958021
                                    4210 *                   DN IS THE OPD INDICATING THE FIELD TO BE EXAMIN     27965021
                                    4211 *                                                                       27972021
                                    4212 *                   IN THE ILLUSTRATION ABOVE D3 MEANS EXDSP3 AND D     27979021
                                    4213 *                   MEANS EXDSP2.                                       27986021
                                    4214 *                                                                       27993021
1         EXAMINE VERB ANALYZER     E  X  A  M  I  N  E                                                         PAGE   92
-  LOC  OBJECT CODE    ADDR1 ADDR2  STMT   SOURCE STATEMENT                                       ASM 0201 11.03 02/14/15
0                                   4215 *            **  THIS INSTRUCTION'S DISPLACEMENT IS SAVED IN EXDSP1     28000021
                                    4216 *                   AND IS USED IN THE BC INSTR (MARKED WITH THE SI     28007021
                                    4217 *                   *) IF ALL OR FIRST IS INDICATED.                    28014021
                                    4218 *                                                                       28021021
                                    4219 *            *** THE DISPLACEMENT FOR THIS INSTRUCTION IS SAVED IN      28028021
                                    4220 *                   EXDSP2 AND APPEARS IN THE BC ZERO,  INSTRUCTION     28035021
                                    4221 *                                                                       28042021
                                    4222 *            ****THE DISPLACEMENT FOR THIS INSTRUCTION IS SAVED IN      28049021
                                    4223 *                   EXDSP3.                                             28056021
                                    4224 *            ***** CONDITION  CODE VARIES. IT IS '7' IF NOT UNTIL F     28063021
                                    4225 *                   OTHERWISE IT IS '8'.                                28070021
                                    4226 *            ******THIS INSTRUCTION'S DISPLACEMENT IS SAVED IN EXDS     28077021
                                    4227 *                   IF UNTIL FIRST, OTHERWISE EXDSP4 IS SET EQUAL T     28084021
                                    4228 *                   EXDSP3. EXDSP4 IS USED IN BC INSTR (FOLLOWING T     28091021
                                    4229 *                   INSTRUCTION MARKED WITH TRIPLE *)                   28098021
                                    4230 *                                                                       28105021
                                    4231 *            THE INPUT TO THE ANALYZER IS OF THE FOLLOWING FORMAT..     28112021
                                    4232 *                                                                       28119021
                                    4233 *                   EXAMINE INFO, CHAR1, CHAR2, DN                      28126021
                                    4234 *                                                                       28133021
                                    4235 *                   THE INFO OPD CONTAINS A BYTE AS FOLLOWS             28140021
                                    4236 *                                                                       28147021
                                    4237 *                             BIT  0  ON IF TALLYING                    28154021
                                    4238 *                                  1  ON IF REPLACING                   28161021
                                    4239 *                                  2  ON IF ALL                         28168021
                                    4240 *                                  3  ON IF LEADING                     28175021
                                    4241 *                                  4  ON IF UNTIL FIRST                 28182021
                                    4242 *                                  5  ON IF FIRST                       28189021
-
0
                             02B62  4244        USING *,GVERB                                                    28203021
 002B62 9575 DDC8      08960        4245 EXAMIN   CLI   DOP2,XX75       IF OPD2 OR OPD3 LITERAL, MOVE CHAR TO    28210021
 002B66 4780 900E      02B70        4246        BC    EQ,SKIP10             SAME POSITION IT WOULD BE IN FOR     28217021
 002B6A D200 DDC9 DDCA 08961 08962  4247          MVC   DOP2+NX1,DOP2+NX2 FIGCON                                 28224021
 002B70 9575 DE44      089DC        4248 SKIP10 CLI   DOP3,XX75                 DOP3 = X'75' ?                   28231021
 002B74 4780 901C      02B7E        4249          BE    SKIP0A                   SKIP NEXT INSTRUCTION           28238021
 002B78 D200 DE45 DE46 089DD 089DE  4250          MVC   DOP3+NX1,DOP3+NX2                                        28245021
 002B7E                             4251 SKIP0A   DS    0H                                                       28252021
 002B7E 1B11                        4252          SR    RW1,RW1             GET MINOR CODE                       28259021
 002B80 4310 DEC3      08A5B        4253          IC    RW1,DOP4+NX3                                             28266021
 002B84 8810 0004      00004        4254          SRL   RW1,DX4                                                  28273021
 002B88 4910 C6C0      074F0        4255          CH    RW1,XC008           EXTERNAL DECIMAL...                  28280021
 002B8C 4770 9042      02BA4        4256          BNE   EXNSG               NO                                   28287021
 002B90 9180 DEC3      08A5B        4257          TM    DOP4+NX3,XX80      TEST IF OPD4 IS NUMERIC          1    28294021
 002B94 47E0 9042      02BA4        4258        BC    NOTONE,EXNSG         NO BRANCH                       1     28301021
 002B98 9101 DEC7      08A5F        4259          TM    DOP4+NX7,XX01   TEST IF OPD4 IS SIGNED                   28308021
 002B9C 4780 9042      02BA4        4260        BC    ZERO,EXNSG         BR IF NO                                28315021
 002BA0 9601 DD4E      088E6        4261          OI    DOP1+NX2,XX01                                            28322021
                             02BA4  4262 EXNSG  EQU   *                                                          28329021
 002BA4 D707 D4C2 D4C2 0805A 0805A  4263          XC    EXDSP1(LX8),EXDSP1                                       28336021
 002BAA 1B11                        4264        SR    RW1,RW1                                                    28343021
 002BAC 1B22                        4265        SR    RW2,RW2                                                    28350021
1         EXAMINE VERB ANALYZER     E  X  A  M  I  N  E                                                         PAGE   93
-  LOC  OBJECT CODE    ADDR1 ADDR2  STMT   SOURCE STATEMENT                                       ASM 0201 11.03 02/14/15
0002BAE 9140 DD4E      088E6        4266          TM    DOP1+NX2,XX40   TEST IF REPLACING INDICATED              28357021
 002BB2 4710 9058      02BBA        4267        BC    ONES,EXR           BR IF YES                               28364021
 002BB6 4B10 D4BC      08054        4268        SH    RW1,H4                                                     28371021
 002BBA 9104 DD4E      088E6        4269 EXR      TM    DOP1+NX2,XX04   TEST IF FIRST INDICATED                  28378021
 002BBE 47E0 9064      02BC6        4270        BC    NOTONE,EXNF1          IF NOT FIRST,  BRANCH...             28385021
 002BC2 4111 0004      00004        4271          LA    RW1,DX4(RW1)                                             28392021
 002BC6 9180 DD4E      088E6        4272 EXNF1    TM    DOP1+NX2,XX80   TEST IF TALLY INDICATED                  28399021
 002BCA 47E0 9070      02BD2        4273        BC    NOTONE,EXNT1       BR IF NO                                28406021
 002BCE 4111 0002      00002        4274          LA    RW1,DX2(RW1)                                             28413021
 002BD2 9101 DD4E      088E6        4275 EXNT1    TM    DOP1+NX2,XX01   TEST IF LAST CHAR TO BE TESTED FOR SI    28420021
 002BD6 47E0 9098      02BFA        4276        BC    NOTONE,EXNN1       BR IF NO                                28427021
 002BDA 4120 0016      00016        4277          LA    RW2,DX22                                                 28434021
 002BDE 9180 DD4E      088E6        4278          TM    DOP1+NX2,XX80   TEST IF TALLY INDICATED                  28441021
 002BE2 47E0 9088      02BEA        4279        BC    NOTONE,EXNT2       BR IF NO                                28448021
 002BE6 4122 0002      00002        4280          LA    RW2,DX2(RW2)                                             28455021
                             02BEA  4281 EXNT2  EQU   *                                                          28462021
 002BEA 9140 DD4E      088E6        4282          TM    DOP1+NX2,XX40   TEST IF REPLACING INDICATED              28469021
 002BEE 9140 DD4E      088E6        4283          TM    DOP1+NX2,XX40   TEST IF REPLACING INDICATED              28476021
 002BF2 4710 9098      02BFA        4284        BC    ONES,EXNN1         BR IF YES                               28483021
 002BF6 4B20 D0CC      07C64        4285        SH    RW2,H6                                                     28490021
 002BFA 4830 D4CC      08064        4286 EXNN1    LH    RW3,EX3012         CALCULATE DISPS FOR DIFFERENT         28497021
 002BFE 1A31                        4287        AR    RW3,RW1            OPTIONS                                 28504021
 002C00 4030 D4C2      0805A        4288        STH   RW3,EXDSP1                                                 28511021
 002C04 4030 D4CA      08062        4289        STH   RW3,EXDSPX                                                 28518021
 002C08 4133 0006      00006        4290          LA    RW3,DX6(RW3)                                             28525021
 002C0C 4030 D4C4      0805C        4291        STH   RW3,EXDSP2                                                 28532021
 002C10 1A32                        4292        AR    RW3,RW2                                                    28539021
 002C12 4030 D4C6      0805E        4293        STH   RW3,EXDSP3                                                 28546021
 002C16 4030 D4C8      08060        4294        STH   RW3,EXDSP4                                                 28553021
 002C1A 9207 D4CF      08067        4295          MVI   EXCND2,XX07                                              28560021
 002C1E 9207 D4CE      08066        4296          MVI   EXCOND,XX07     AT THIS POINT EXCOND SET CORRECTLY FO    28567021
                                    4297 *                               ALL, FIRST, AND LEADING AND EXDSPX      28574021
                                    4298 *                               CORRECTLY FOR ALL AND FIRST             28581021
                                    4299 *                               ALSO EXCND2 AND EXDSP4 ARE SET          28588021
                                    4300 *                               CORRECTLY FOR EVERYTHING EXCEPT UNT     28595021
 002C22 9110 DD4E      088E6        4301          TM    DOP1+NX2,XX10   TEST IF LEADING INDICATED                28602021
 002C26 4710 90E4      02C46        4302        BC    ONES,EXL           BR IF YES                               28609021
 002C2A 9108 DD4E      088E6        4303          TM    DOP1+NX2,XX08   TEST IF UNTIL FIRST INDICATED            28616021
 002C2E 47E0 90EA      02C4C        4304          BC    NOTONE,EXL+NX6    BR IF NO                               28623021
 002C32 9208 D4CE      08066        4305          MVI   EXCOND,XX08       YES, SET EXCOND FOR UNTIL FIRST        28630021
 002C36 4830 D4C4      0805C        4306        LH    RW3,EXDSP2                                                 28637021
 002C3A 4133 0010      00010        4307          LA    RW3,DX16(RW3)          SET EXDSP4 FOR UNTIL FIRST        28644021
 002C3E 4030 D4C8      08060        4308        STH   RW3,EXDSP4                                                 28651021
 002C42 9208 D4CF      08067        4309          MVI   EXCND2,XX08            SET EXCND2 FOR UNTIL FIRST        28658021
 002C46 D201 D4CA D4C6 08062 0805E  4310 EXL    MVC   EXDSPX,EXDSP3           SET EXDSP3 FOR UNTIL, LEADING      28665021
 002C4C 9180 DD4E      088E6        4311          TM    DOP1+NX2,XX80            TALLY INDICATED                 28672021
 002C50 47E0 90F6      02C58        4312        BC    NOTONE,EXLLL         BR IF NO                              28679021
 002C54 45E0 B038      00EB0        4313        BAL   RETRG,SR           YES, GENERATE     SR   0,0              28686021
 002C58 910C DEC3      08A5B        4314 EXLLL    TM    DOP4+NX3,XX0C   IS DATA OPERAND SUBSCRIPTED              28693021
 002C5C 4780 9102      02C64        4315        BZ    EXLL1                 NO, SKIP NEXT INSTRUCTION            28700021
 002C60 45E0 7CCC      00CCC        4316          BAL   RETRG,WRKLRX  YES - DESTROY MACRO R14, R15               28707021
                             02C64  4317 EXLL1  EQU   *                                                          28714021
 002C64 4120 DEC0      08A58        4318        LA    RW2,DOP4         GENERATE            LA   1,DN             28721021
 002C68 5020 D148      07CE0        4319        ST    RW2,OP1                                                    28728021
 002C6C 9201 D198      07D30        4320          MVI   XREG1,XX01                                               28735021
1         EXAMINE VERB ANALYZER     E  X  A  M  I  N  E                                                         PAGE   94
-  LOC  OBJECT CODE    ADDR1 ADDR2  STMT   SOURCE STATEMENT                                       ASM 0201 11.03 02/14/15
0002C70 45E0 BB7C      019F4        4321        BAL   RETRG,LA                   **   LA  1,DN                   28742021
 002C74 9204 D198      07D30        4322          MVI   XREG1,XX04                                               28749021
 002C78 D201 D17F D424 07D17 07FBC  4323          MVC   XCON1+NX15(LX2),CLCNF1                                   28756021
 002C7E 45E0 B000      00E78        4324          BAL   RETRG,LOAD               **   LOAD 4,XX                  28763021
 002C82 45E0 77F0      007F0        4325        BAL   RETRG,CALCLG     GET OPD2 LENGTH                           28770021
 002C86 47F0 700A      0000A        4326          B     PH5CTL             RETURN TO PH5 CONTROL                 28777021
-
 002C8A 9500 D550      080E8        4328          CLI   LENGTH,XX00     TEST IF VAR LENGTH                       28791021
 002C8E 9202 D198      07D30        4329          MVI   XREG1,XX02                                               28798021
 002C92 4770 915E      02CC0        4330        BC    NOTEQ,EXVL         BR IF YES                               28805021
 002C96 D501 D552 C6E0 080EA 07510  4331          CLC   LENGTH+NX2(LX2),XC4095    IS LENGTH > 4095           1   28812021
 002C9C 4720 914C      02CAE        4332        BC    XTWO,EXMLD                YES BRANCH                 1     28819021
 002CA0 D201 D15E D552 07CF6 080EA  4333          MVC   BDISP1(LX2),LENGTH+NX2 NO, GENERATE      LA   2,LENGTH   28826021
                                    4334 *                                                                       28833021
 002CA6 45E0 BB7C      019F4        4335        BAL   RETRG,LA                   **   LA 2,LENGTH                28840021
 002CAA 47F0 916C      02CCE        4336          B     EXBALR             PUT A TEXT BALR                       28847021
-
                             02CAE  4338 EXMLD  EQU   *                                                          28861021
 002CAE D201 D17E D552 07D16 080EA  4339          MVC   XCON1+NX14(LX2),LENGTH+NX2                           1   28868021
 002CB4 9202 D180      07D18        4340          MVI   XCON1+NX16,XX02                                     1    28875021
 002CB8 45E0 B000      00E78        4341        BAL   RETRG,LH                  LH   2,=LENGTH             1     28882021
 002CBC 47F0 916C      02CCE        4342        BC    UNCOND,EXBALR         GO TO EXBALR                         28889021
-
 002CC0 D201 D189 D552 07D21 080EA  4344 EXVL     MVC   XCNTR1+NX1(LX2),LENGTH+NX2 YES, GEN.. LH 2,VLC           28903021
 002CC6 9204 D188      07D20        4345          MVI   XCNTR1,XX04                                              28910021
 002CCA 45E0 B000      00E78        4346        BAL   RETRG,LH              PUT A TEXT  LH INSTRUCTION           28917021
 002CCE 9203 D198      07D30        4347 EXBALR   MVI   XREG1,XX03      GENERATE            BALR 3,0             28924021
 002CD2 45E0 BC18      01A90        4348        BAL   RETRG,BALR            PUT A TEXT BALR INSTRUCTION          28931021
 002CD6 9202 D198      07D30        4349          MVI   XREG1,XX02      GENERATE            S    2,=1            28938021
 002CDA 9204 D1E0      07D78        4350          MVI   XREG2,XX04                                               28945021
 002CDE 45E0 B038      00EB0        4351          BAL   RETRG,SR            PUT A TEXT SR INSTRUCTION            28952021
 002CE2 9101 DD4E      088E6        4352          TM    DOP1+NX2,XX01   TEST IF LAST CHAR TO BE TESTED FOR SI    28959021
 002CE6 47E0 919A      02CFC        4353        BC    NOTONE,EXNN1A      BR IF NO                                28966021
 002CEA 9208 D198      07D30        4354          MVI   XREG1,XX08        YES, GENERATE     BC   ZERO,DISP2(3    28973021
 002CEE D201 D15E D4C4 07CF6 0805C  4355          MVC   BDISP1(LX2),EXDSP2                                       28980021
 002CF4 45E0 BBAE      01A26        4356        BAL   RETRG,BC              PUT A TEXT BC INSTRUCTION            28987021
 002CF8 47F0 91A8      02D0A        4357          B     EXNN2              SKIP NEXT INST.                       28994021
-
 002CFC 9204 D198      07D30        4359 EXNN1A   MVI   XREG1,XX04      GENERATE            BC   NEG,DISP3(3)    29008021
 002D00 D201 D15E D4C6 07CF6 0805E  4360          MVC   BDISP1(LX2),EXDSP3                                       29015021
 002D06 45E0 BBAE      01A26        4361        BAL   RETRG,BC              PUT A TEXT BC INSTRUCTION            29022021
 002D0A D200 D199 DDC9 07D31 08961  4362 EXNN2    MVC   IMM(LX1),DOP2+NX1 GENERATE            CLI  0(1),CHAR1    29029021
 002D10 9210 D15E      07CF6        4363          MVI   BDISP1,XX10                                              29036021
 002D14 45E0 BAC4      0193C        4364        BAL   RETRG,CLI             PUT A TEXT CLI INST.                 29043021
 002D18 D200 D198 D4CE 07D30 08066  4365          MVC   XREG1(LX1),EXCOND GENERATE            BC   COND,DISPX(3  29050021
 002D1E D201 D15E D4CA 07CF6 08062  4366          MVC   BDISP1(LX2),EXDSPX                                       29057021
 002D24 45E0 BBAE      01A26        4367        BAL   RETRG,BC              PUT A TEXT BC INST.                  29064021
1         EXAMINE VERB ANALYZER     E  X  A  M  I  N  E                                                         PAGE   95
-  LOC  OBJECT CODE    ADDR1 ADDR2  STMT   SOURCE STATEMENT                                       ASM 0201 11.03 02/14/15
0002D28 9140 DD4E      088E6        4368          TM    DOP1+NX2,XX40   TEST IF REPLACING INDICATED              29071021
 002D2C 47E0 91DC      02D3E        4369        BC    NOTONE,EXNR1       BR IF NO                                29078021
 002D30 D200 D199 DE45 07D31 089DD  4370          MVC   IMM(LX1),DOP3+NX1  YES, GENERATE     MVI  0(1),CHAR2     29085021
 002D36 9210 D15E      07CF6        4371          MVI   BDISP1,XX10                                              29092021
 002D3A 45E0 BABC      01934        4372        BAL   RETRG,MVI             PUT A TEXT MVI INSTRUCTION           29099021
 002D3E 9180 DD4E      088E6        4373 EXNR1    TM    DOP1+NX2,XX80   TEST IF TALLY INDICATED                  29106021
 002D42 47E0 91E8      02D4A        4374        BC    NOTONE,EXNT3       BR IF NO                                29113021
 002D46 45E0 BC34      01AAC        4375        BAL   RETRG,BCTR         YES, GENERATE     BCTR 0,0              29120021
 002D4A 9104 DD4E      088E6        4376 EXNT3    TM    DOP1+NX2,XX04   TEST IF FIRST INDICATED                  29127021
 002D4E 47E0 91FE      02D60        4377        BC    NOTONE,EXNF2       BR IF NO                                29134021
 002D52 920F D198      07D30        4378          MVI   XREG1,XX0F        YES, GENERATE     BC   15,DISP3(3)     29141021
 002D56 D201 D15E D4C6 07CF6 0805E  4379          MVC   BDISP1(LX2),EXDSP3                                       29148021
 002D5C 45E0 BBAE      01A26        4380        BAL   RETRG,BC              PUT A TEXT BC INST.                  29155021
                                    4381 *                                                                       29162021
 002D60 9201 D198      07D30        4382 EXNF2    MVI   XREG1,XX01      GENERATE            LA   1,1(1)          29169021
 002D64 9210 D15E      07CF6        4383          MVI   BDISP1,XX10                                              29176021
 002D68 9201 D15F      07CF7        4384          MVI   BDISP1+NX1,XX01                                          29183021
 002D6C 45E0 BB7C      019F4        4385        BAL   RETRG,LA              PUT A TEXT LA INST.                  29190021
 002D70 920F D198      07D30        4386          MVI   XREG1,XX0F      GENERATE            BCR  UNCOND,3        29197021
 002D74 9203 D1E0      07D78        4387          MVI   XREG2,XX03                                               29204021
 002D78 45E0 BBAE      01A26        4388        BAL   RETRG,BC              PUT A TEXT BC INST.                  29211021
 002D7C 9101 DD4E      088E6        4389          TM    DOP1+NX2,XX01   TEST IF LAST CHAR TO BE TESTED FOR SI    29218021
 002D80 47E0 9290      02DF2        4390        BC    NOTONE,EXNN3       BR IF NO                                29225021
 002D84 9210 D15E      07CF6        4391          MVI   BDISP1,XX10       YES, GENERATE     TM   0(1),CHAR1      29232021
 002D88 D200 D199 DDC9 07D31 08961  4392          MVC   IMM(LX1),DOP2+NX1                                        29239021
 002D8E 940F D199      07D31        4393          NI    IMM,XX0F                                                 29246021
 002D92 45E0 BAE4      0195C        4394        BAL   RETRG,TM              PUT A TEXT TM INSTRUCTION            29253021
 002D96 920E D198      07D30        4395          MVI   XREG1,XX0E                          BC   NOTONE,DISP4    29260021
 002D9A D201 D15E D4C8 07CF6 08060  4396          MVC   BDISP1(LX2),EXDSP4                                       29267021
 002DA0 45E0 BBAE      01A26        4397        BAL   RETRG,BC              PUT A TEXT BC INST.                  29274021
 002DA4 9210 D15E      07CF6        4398          MVI   BDISP1,XX10                         TM   0(1),15-CHAR    29281021
 002DA8 97FF DDC9      08961        4399          XI    DOP2+NX1,XXFF                                            29288021
 002DAC D200 D199 DDC9 07D31 08961  4400          MVC   IMM(LX1),DOP2+NX1                                        29295021
 002DB2 45E0 BAE4      0195C        4401        BAL   RETRG,TM              PUT A TEXT TM INST.                  29302021
 002DB6 D200 D198 D4CF 07D30 08067  4402        MVC   XREG1,EXCND2                         BC   COND,DISP3(3     29309021
 002DBC D201 D15E D4C6 07CF6 0805E  4403          MVC   BDISP1(LX2),EXDSP3                                       29316021
 002DC2 45E0 BBAE      01A26        4404        BAL   RETRG,BC              PUT A TEXT BC INST.                  29323021
 002DC6 9140 DD4E      088E6        4405          TM    DOP1+NX2,XX40   TEST IF REPLACING INDICATED              29330021
 002DCA 47E0 9284      02DE6        4406        BC    NOTONE,EXNR2       BR IF NO                                29337021
 002DCE 9201 D159      07CF1        4407          MVI   XL1+NX1,XX01      YES , GENERATE    MVN  0(1,1),=C'CH    29344021
 002DD2 9210 D15E      07CF6        4408          MVI   BDISP1,XX10                                              29351021
 002DD6 9275 DE44      089DC        4409          MVI   DOP3,XX75                                                29358021
 002DDA 4100 DE44      089DC        4410        LA    RW0,DOP3                                                   29365021
 002DDE 5000 D148      07CE0        4411        ST    RW0,OP1                                                    29372021
 002DE2 45E0 BAB4      0192C        4412        BAL   RETRG,MVN             PUT A TEXT MVN INSTRUCTION           29379021
 002DE6 9180 DD4E      088E6        4413 EXNR2    TM    DOP1+NX2,XX80   TEST IF TALLY INDICATED                  29386021
 002DEA 47E0 92A4      02E06        4414        BC    NOTONE,EXNT4       BR IF NO                                29393021
 002DEE 45E0 BC34      01AAC        4415        BAL   RETRG,BCTR         YES, GENERATE     BCTR 0,0              29400021
 002DF2 9180 DD4E      088E6        4416 EXNN3    TM    DOP1+NX2,XX80   TEST IF TALLY INDICATED                  29407021
 002DF6 47E0 92A4      02E06        4417        BC    NOTONE,EXNT4       BR IF NO                                29414021
 002DFA 45E0 BA78      018F0        4418        BAL   RETRG,LCR          YES, GENERATE     LCR  0,0              29421021
 002DFE 9206 D15D      07CF5        4419          MVI   TALLY1,XX06                         ST   0,TALLY         29428021
 002E02 45E0 B040      00EB8        4420        BAL   RETRG,ST              PUT A TEXT ST INST.                  29435021
 002E06 47F0 700A      0000A        4421 EXNT4    B     PH5CTL                  RETURN                           29442021
1         IKFCBL51: USE (DECL) VERB ANALYZER U S E (D E C L)                                                    PAGE   96
-  LOC  OBJECT CODE    ADDR1 ADDR2  STMT   SOURCE STATEMENT                                       ASM 0201 11.03 02/14/15
0                                   4423 *=1    ANALYZERS FOR USE AND BEGIN RAND PROC. DECL.                     29456021
                                    4424 *                                                                       29463021
                                    4425 *                                                                       29470021
                             02E0A  4426        USING *,GVERB                                                    29477021
                             02E0A  4427 USE1     EQU   *                        BEGIN LABEL PROCESSING          29484021
 002E0A 9601 D0B7      07C4F        4428          OI    DECLSW,INDCL        INDICATE WITHIN DECLARATIVE    43113 29491021
 002E0E D501 A232 C3CA 00232 071FA  4429          CLC   SA2CTR,XC001            CTR LESS THAN 1                  29498021
 002E14 47B0 9014      02E1E        4430          BNL   USE1B                   NO                               29505021
 002E18 D201 A232 C3CA 00232 071FA  4431          MVC   SA2CTR,XC001            MAKE IT 1                        29512021
                             02E1E  4432 USE1B    EQU   *                                                        29519021
 002E1E 45E0 7CCC      00CCC        4433          BAL   RETRG,WRKLRG            DESTRY 14,15/STORE SUBSCRIPTS    29526021
 002E22 45E0 7988      00988        4434          BAL   RETRG,GFRRES            RESERVE 14                       29533021
 002E26 5810 CD64      07B94        4435          L     RW1,AUSETBL         ADDR USETBL TIB                43521 29540021
 002E2A 5811 0000      00000        4436          L     RW1,DX0(RW1)        ADDR TAMM                      43521 29547021
 002E2E 5811 0000      00000        4437          L     RW1,DX0(RW1)        ADDR TABLE                     43521 29554021
 002E32 4111 0000      00000        4438          LA    RW1,DX0(RW1)        CLEAR HIGH ORDER BYTE          43521 29561021
 002E36 4820 C8D2      07702        4439          LH    RW2,LBDCLCTR        NUMBER OF DECLARATIVE          43521 29568021
 002E3A 4C20 C6B8      074E8        4440          MH    RW2,XC003           INDEX INTO TABLE               43521 29575021
 002E3E 1A12                        4441          AR    RW1,RW2             BUMP TABLE TO THE ENTRY        43521 29582021
 002E40 4111 0002      00002        4442          LA    RW1,DX2(RW1)        POINT TO ATTRIBUTE BYTE        43521 29589021
                                    4443 *        RW1 NOW POINTS TO THE CORRECT TABLE ENTRY FOR THIS DCL   43521 29596021
 002E44 911A 1000      00000        4444          TM    DX0(RW1),XX1A       IS THIS DECLARATIVE FOR BEFORE,43521 29603021
                                    4445 *                  REEL, OR BEGINNING KEYWORDS...                 43521 29610021
 002E48 4770 9056      02E60        4446          BNZ   USE1D               YES, DO NOT GENERATE TEST      43521 29617021
 002E4C 9105 1000      00000        4447          TM    DX0(RW1),XX05       ARE THE KEYWORDS FILE AND      43521 29624021
                                    4448 *                  ENDING BOTH SPECIFIED...                       43521 29631021
 002E50 47E0 9056      02E60        4449          BNO   USE1D               NO, DO NOT ISSUE TEST          43521 29638021
 002E54 45E0 78C6      008C6        4450          BAL   RETRG,GATXTC        GENERATE                       43521 29645021
 002E58 0169                        4451          DC    AL2(ATXT94E-ATXTBC)      ENTRY CODING AND          43521 29652021
 002E5A 0024                        4452          DC    AL2(ATXT94A-ATXT94E)     EOF TEST                  43521 29659021
 002E5C 47F0 905E      02E68        4453          B     USE1E               BYPASS OTHER GENERATION        43521 29666021
 002E60                             4454 USE1D    DS    0H                                                 43521 29673021
 002E60 45E0 78C6      008C6        4455          BAL   RETRG,GATXTC             GENERATE ENTRY CODING           29680021
 002E64 0172                        4456          DC    AL2(ATXT94-ATXTBC)       X                               29687021
 002E66 001B                        4457          DC    AL2(ATXT94A-ATXT94)      X                               29694021
 002E68                             4458 USE1E    DS    0H                                                 43521 29701021
 002E68 45E0 78C6      008C6        4459          BAL   RETRG,GATXTC             * LR 2,1                        29708021
 002E6C 01AA                        4460          DC    AL2(ATXT95-ATXTBC)       * GETMAIN, MOVE SA1             29715021
 002E6E 004D                        4461          DC    AL2(ATXT95B-ATXT95)      * CHAIN PTRS,SAVE DCBADR,BL     29722021
 002E70 45E0 78C6      008C6        4462          BAL   RETRG,GATXTC             * INIT  BLL1,2                  29729021
 002E74 018D                        4463          DC    AL2(ATXT94C-ATXTBC)       X                              29736021
 002E76 001A                        4464          DC    AL2(ATXT94D-ATXT94C)      X                              29743021
 002E78 45E0 799E      0099E        4465          BAL   RETRG,GFREE             FREE 14                          29750021
 002E7C 9180 DD4E      088E6        4466          TM    DOP1+NX2,XX80            BEFORE OPTION                   29757021
 002E80 47E0 700A      0000A        4467          BC    NOTONE,DON          IF NOT BEFORE OPTION,  RETURN        29764021
 002E84 9201 C7D8      07608        4468          MVI   LBLSW,XX01                                               29771021
 002E88 45E0 78C6      008C6        4469          BAL   RETRG,GATXTC            *  MVI  422(13),C'0'             29778021
 002E8C 028F                        4470          DC    AL2(ATXT108-ATXTBC)     X                                29785021
 002E8E 0006                        4471          DC    AL2(ZTXT108-ATXT108)    X                                29792021
 002E90 4820 C8D2      07702        4472          LH    RW2,LBDCLCTR                                       43521 29799021
 002E94 4122 0001      00001        4473          LA    RW2,DX1(RW2)        BUMP COUNTER BY ONE            43521 29806021
 002E98 4020 C8D2      07702        4474          STH   RW2,LBDCLCTR        UPDATE COUNTER                 43521 29813021
 002E9C 47F0 700A      0000A        4475          B     PH5CTL              CONTINUE PROCESSING            43521 29820021
                                    4476 *                                                                       29827021
                                    4477 *                                                                       29834021
1         IKFCBL51: USE (DECL) VERB ANALYZER U S E (D E C L)                                                    PAGE   97
-  LOC  OBJECT CODE    ADDR1 ADDR2  STMT   SOURCE STATEMENT                                       ASM 0201 11.03 02/14/15
0                            02EA0  4479          USING *,GVERB                                            43521 29848021
                                    4480 *                                                                 43521 29855021
                                    4481 *        ANALYZER FOR USE BEFORE REPORTING DECLARATIVE            43521 29862021
                                    4482 *                                                                 43521 29869021
 002EA0                             4483 USE4     DS    0H                                                 43521 29876021
 002EA0 4820 C8D2      07702        4484          LH    RW2,LBDCLCTR        NUMBER OF DECLARATIVE          43521 29883021
 002EA4 4122 0001      00001        4485          LA    RW2,DX1(RW2)        BUMP COUNTER BY ONE            43521 29890021
 002EA8 4020 C8D2      07702        4486          STH   RW2,LBDCLCTR        UPDATE COUNTER                 43521 29897021
 002EAC 47F0 700A      0000A        4487          B     PH5CTL              PROCESS NEXT ELEMENT           43521 29904021
0
                                    4489 *                                                                 43521 29918021
                                    4490 *                                                                 43521 29925021
                             02EB0  4491        USING *,GVERB                                                    29932021
                             02EB0  4492 USE5     EQU   *                        USE... STD ERROR                29939021
 002EB0 9601 D0B7      07C4F        4493          OI    DECLSW,INDCL        INDICATE WITHIN DECLARATIVE    43113 29946021
 002EB4 D501 A232 C3CA 00232 071FA  4494          CLC   SA2CTR,XC001            CTR LESS THAN 1                  29953021
 002EBA 47B0 9014      02EC4        4495          BNL   USE5B                   NO                               29960021
 002EBE D201 A232 C3CA 00232 071FA  4496          MVC   SA2CTR,XC001            MAKE IT 1                        29967021
                             02EC4  4497 USE5B    EQU   *                                                        29974021
 002EC4 4820 C8D2      07702        4498          LH    RW2,LBDCLCTR        NUMBER OF DECLARATIVE          43521 29981021
 002EC8 4122 0001      00001        4499          LA    RW2,DX1(RW2)        BUMP COUNTER BY ONE            43521 29988021
 002ECC 4020 C8D2      07702        4500          STH   RW2,LBDCLCTR        UPDATE COUNTER                 43521 29995021
 002ED0 45E0 7CCC      00CCC        4501          BAL   RETRG,WRKLRG            DESTROY 14,150STORE SUBSCRIPTS   30002021
 002ED4 45E0 7988      00988        4502          BAL   RETRG,GFRRES            RESERVE 14                       30009021
 002ED8 9400 D629      081C1        4503          NI    USESW,XX00               TURN OFF SWITCH                 30016021
 002EDC 9101 DD4E      088E6        4504          TM    DOP1+NX2,XX01             FILE OPTION                    30023021
 002EE0 47E0 90A8      02F58        4505          BC    NOTONE,USE5A             NO                              30030021
 002EE4 D501 DDC8 C834 08960 07664  4506          CLC   DOP2(LX2),ONZERO          GIVING DATANAME-1              30037021
 002EEA 4780 90A8      02F58        4507          BC    EQ,USE5A                 NO                              30044021
 002EEE 4120 DDC8      08960        4508          LA    RW2,DOP2                 YES                             30051021
 002EF2 5020 D148      07CE0        4509          ST    RW2,OP1                   XXXX                           30058021
 002EF6 9288 D159      07CF1        4510          MVI   XL1+NX1,XX88               X                             30065021
 002EFA 9210 D1A6      07D3E        4511          MVI   BDISP2,XX10               * MVC  DN1(136),0(1)           30072021
 002EFE 45E0 B18C      01004        4512          BAL   RETRG,MVC                 XXXX                           30079021
 002F02 D501 DE44 C834 089DC 07664  4513          CLC   DOP3(LX2),ONZERO          GIVING DATANAME-1,DATANAME2    30086021
 002F08 4780 90A8      02F58        4514          BC    EQ,USE5A                 NO                              30093021
 002F0C 940F DE46      089DE        4515          NI    DOP3+NX2,XX0F            AND OUT COUNT FIELD             30100021
 002F10 9505 DE46      089DE        4516          CLI   DOP3+NX2,XX05            IS DN-2 IN LINKAGE SECTION?     30107021
 002F14 4780 9084      02F34        4517          BE    USE5C                   YES, INIT BLL                    30114021
 002F18 9601 D629      081C1        4518          OI    USESW,XX01               TURN ON SWITCH                  30121021
 002F1C D27B DD4C DE44 088E4 089DC  4519          MVC   DOP1(LDOP),DOP3         SET UP FOR MOVE                  30128021
 002F22 D27B DDC8 DE44 08960 089DC  4520          MVC   DOP2(LDOP),DOP3         SET UP FOR MOVE                  30135021
 002F28 4120 DD4C      088E4        4521          LA    RW2,DOP1                POINT TO ELEMENT TO BE CHNGED    30142021
 002F2C 45E0 7B68      00B68        4522          BAL   RETRG,INRIOMOV          INIT BLREF1, CHNG IDK TO BLL     30149021
 002F30 47F0 908C      02F3C        4523          B     USE5D                   INIT OUR OWN BLL                 30156021
 002F34                             4524 USE5C    DS    0H                                                       30163021
 002F34 4120 DE44      089DC        4525          LA    RW2,DOP3                 INIT BLREF1                     30170021
 002F38 45E0 7838      00838        4526          BAL   RETRG,DBLREF              X                              30177021
 002F3C                             4527 USE5D    DS    0H                                                       30184021
 002F3C 9210 D1A6      07D3E        4528          MVI   BDISP2,XX10                XXXX                          30191021
 002F40 9204 D159      07CF1        4529          MVI   XL1+NX1,XX04                                             30198021
 002F44 9208 D1A7      07D3F        4530          MVI   BDISP2+NX1,XX08           * MVC  BLL-DN2(4),8(1)         30205021
 002F48 45E0 B18C      01004        4531          BAL   RETRG,MVC                 XXXX                           30212021
 002F4C 9101 D629      081C1        4532          TM    USESW,XX01               DN2 IN W-S?                     30219021
1         IKFCBL51: USE (DECL) VERB ANALYZER U S E (D E C L)                                                    PAGE   98
-  LOC  OBJECT CODE    ADDR1 ADDR2  STMT   SOURCE STATEMENT                                       ASM 0201 11.03 02/14/15
0002F50 4710 90A8      02F58        4533          BO    USE5A                   YES                              30226021
 002F54 4130 DE44      089DC        4534          LA    RW3,DOP3                POINT TO DN-2                    30233021
 002F58                             4535 USE5A    DS    0H                                                       30240021
 002F58 45E0 79AE      009AE        4536          BAL   RETRG,GDES15            DESTROY 15                       30247021
 002F5C 45E0 78C6      008C6        4537          BAL   RETRG,GATXTC        GENERATE FOLLOWING A TEXT            30254021
                                    4538 *                                      *  LR  4,14                      30261021
 002F60 02A4                        4539          DC    AL2(ATXT111-ATXTBC)     *  LR  13,0                      30268021
                                    4540 *                                      *  LA  15,X'FF'                  30275021
                                    4541 *                                      *  SLL  15,24                    30282021
 002F62 0015                        4542          DC    AL2(ZTXT111-ATXT111)    *  SVC  68                       30289021
 002F64 45E0 78C6      008C6        4543          BAL   RETRG,GATXTC            *  GETMAIN,MOVE SA2,CHAIN PTRS   30296021
 002F68 01B0                        4544          DC    AL2(ATXT95E-ATXTBC)       X                              30303021
 002F6A 0035                        4545          DC    AL2(ATXT95A-ATXT95E)      X                              30310021
 002F6C 45E0 799E      0099E        4546          BAL   RETRG,GFREE             FREE 14                          30317021
 002F70 9101 D629      081C1        4547          TM    USESW,XX01               DN2 IN W-S?                     30324021
 002F74 47E0 700A      0000A        4548          BNO   DON                     NO, END PROCESSING               30331021
                                    4549 *                 THIS CODE SETS UP DOPS FOR A DUMMY MOVE               30338021
 002F78 921D D0E1      07C79        4550          MVI   HEADER+NX1,XX1D                                          30345021
 002F7C 5890 C71C      0754C        4551          L     XRVERB,XALAMA           ADDRESS OF MOVE ROUTINE          30352021
 002F80 07F9                        4552          BR    XRVERB                  BRANCH TO MOVE                   30359021
                                    4553 *                                                                       30366021
                                    4554 *                                                                       30373021
                                    4555 *                                                                       30380021
                             02F82  4556        USING *,GVERB                                                    30387021
                             02F82  4557 ENDUS1   EQU   *                        END  LABEL PROCESSING           30394021
 002F82 45E0 7CCC      00CCC        4558          BAL   RETRG,WRKLRG            DESTROY 14,15/STORE SUBSCRIPTS   30401021
 002F86 45E0 7988      00988        4559          BAL   RETRG,GFRRES            RESERVE 14                       30408021
 002F8A 45E0 78C6      008C6        4560          BAL   RETRG,GATXTC            INSERT RETURN CODE INTO R5       30415021
 002F8E 0234                        4561          DC    AL2(ATXT96-ATXTBC)        X                              30422021
 002F90 001C                        4562          DC    AL2(ZTXT96-ATXT96)        X                              30429021
 002F92 9101 C7D8      07608        4563          TM    LBLSW,XX01               NSL                             30436021
 002F96 9200 C7D8      07608        4564          MVI   LBLSW,XX00               INITIALIZE                      30443021
 002F9A 47E0 9024      02FA6        4565          BNO   ENDUS1A            NO                                    30450021
 002F9E 45E0 78C6      008C6        4566          BAL   RETRG,GATXTC            *  BALR  14,0                    30457021
 002FA2 0250                        4567          DC    AL2(ATXT98-ATXTBC)      *  CLI  422(13),C'0'             30464021
 002FA4 0015                        4568          DC    AL2(ZTXT98-ATXT98)      *  BE  12(14)                    30471021
 002FA6                             4569 ENDUS1A  DS    0H                      *  LA  5,16                      30478021
 002FA6 45E0 78C6      008C6        4570          BAL   RETRG,GATXTC             RESTORE BLL1,2, RECHAIN PTR     30485021
 002FAA 01F7                        4571          DC    AL2(ATXT95B-ATXTBC)      RESTORE SA1, EXIT               30492021
 002FAC 003D                        4572          DC    AL2(ATXT95F-ATXT95B)                                     30499021
 002FAE 45E0 78C6      008C6        4573          BAL   RETRG,GATXTC            *  LR  15,5                      30506021
 002FB2 02B9                        4574          DC    AL2(ATXT112-ATXTBC)     *  BR  4                         30513021
 002FB4 000F                        4575          DC    AL2(ZTXT112-ATXT112)                                     30520021
 002FB6 45E0 799E      0099E        4576          BAL   RETRG,GFREE             FREE 14                          30527021
 002FBA 94FE D0B7      07C4F        4577          NI    DECLSW,X'FF'-INDCL  TURN OFF SWITCH                43113 30534021
 002FBE 47F0 700A      0000A        4578          B     PH5CTL              CONTINUE PROCESSING            43113 30541021
                                    4579 *                                                                       30548021
                                    4580 *                                                                       30555021
                             02FC2  4581 ENDUS5   EQU   *                                                        30562021
 002FC2 45E0 7CCC      00CCC        4582          BAL   RETRG,WRKLRG            DESTROY 14,15/STORE SUBSCRIPTS   30569021
 002FC6 45E0 7988      00988        4583          BAL   RETRG,GFRRES            RESERVE 14                       30576021
 002FCA 45E0 78C6      008C6        4584          BAL   RETRG,GATXTC             *  L  1,SA2                     30583021
 002FCE 0234                        4585          DC    AL2(ATXT96-ATXTBC)        X                              30590021
 002FD0 0007                        4586          DC    AL2(ATXT96A-ATXT96)       X                              30597021
 002FD2 45E0 78C6      008C6        4587          BAL   RETRG,GATXTC             RESTORE SA1                     30604021
1         IKFCBL51: USE (DECL) VERB ANALYZER U S E (D E C L)                                                    PAGE   99
-  LOC  OBJECT CODE    ADDR1 ADDR2  STMT   SOURCE STATEMENT                                       ASM 0201 11.03 02/14/15
0002FD6 01F7                        4588          DC    AL2(ATXT95B-ATXTBC)       X                              30611021
 002FD8 0018                        4589          DC    AL2(ATXT95C-ATXT95B)      X                              30618021
 002FDA 45E0 78C6      008C6        4590          BAL   RETRG,GATXTC             RECHAIN PTRS, FREEMAIN, EXI     30625021
 002FDE 0221                        4591          DC    AL2(ATXT95D-ATXTBC)       X                              30632021
 002FE0 0013                        4592          DC    AL2(ZTXT95-ATXT95D)       X                              30639021
 002FE2 45E0 78C6      008C6        4593          BAL   RETRG,GATXTC            *  LR  14,4                      30646021
 002FE6 02BC                        4594          DC    AL2(ATXT112A-ATXTBC)    *  LM  2,5,28(13)                30653021
 002FE8 000C                        4595          DC    AL2(ZTXT112-ATXT112A)   *  BCR  15,14                    30660021
 002FEA 45E0 799E      0099E        4596          BAL   RETRG,GFREE             FREE 14                          30667021
 002FEE 94FE D0B7      07C4F        4597          NI    DECLSW,X'FF'-INDCL  TURN OFF SWITCH                43113 30674021
 002FF2 47F0 700A      0000A        4598          B     PH5CTL              CONTINUE PROCESSING            43113 30681021
1         DISPLAY VERB ANALYZER   D  I  S  P  L  A  Y                                                           PAGE  100
-  LOC  OBJECT CODE    ADDR1 ADDR2  STMT   SOURCE STATEMENT                                       ASM 0201 11.03 02/14/15
0                                   4600 *          VERBS AND BODY PORTIONS (NOT ENTRY POINTS) OF SR'S.          30695021
                                    4601 *=1            DISPLAY  VERB                                            30702021
                                    4602 ********************************************                            30709021
                                    4603 *                                                                       30716021
                                    4604 *              D I S P L A Y                                            30723021
                                    4605 *                                                                       30730021
                                    4606 *      INPUT STRINGS...    DISPLAY OP1 OP2 OP3 OP4 OP5 UPON SYSOUT.     30737021
                                    4607 *                 DISPLAY 05  FIRST SYSOUT OP1 OP2 OP3                  30744021
                                    4608 *                 DISPLAY 03  OP4 OP5 END                               30751021
                                    4609 *                                                                       30758021
                                    4610 *       PRECEDED BY MOVES FOR FLOATING-POINT ITEMS WHICH ARE CONVER     30765021
                                    4611 *        AT OBJECT TIME FROM IFP DATA ITEMS TO SET EFP FORMS IN THE     30772021
                                    4612 *        PARAM AREA.                                                    30779021
                                    4613 *                                                                       30786021
                                    4614 ********************************************                            30793021
                                    4615 *                                                                       30800021
                             02FF6  4616        USING   *,GVERB                                                  30807021
                             02FF6  4617 DISPLA EQU     *                                                        30814021
 002FF6 D501 DD4C C828 088E4 07658  4618          CLC   DOP1(LX2),CBFRST     CONTINUATION STRING...              30821021
 002FFC 4770 7804      00804        4619        BC    NOTEQ,NXTSTR           YES, GO BACK TO GETDOP ROUTINE      30828021
 003000 D501 DDC8 C822 08960 07652  4620          CLC   DOP2(LX2),CBCNSL     SPECIAL CASE... CONSOLE W/ONE AN    30835021
 003006 4770 902E      03024        4621        BC    NOTEQ,DISP02          IF NOT SPECIAL CASE,  GO...          30842021
 00300A 9534 DE44      089DC        4622        CLI   DOP3,MANLIT                                                30849021
 00300E 4770 902E      03024        4623        BC    NOTEQ,DISP02          IF NOT,  BRANCH..                    30856021
 003012 D501 DEC0 C826 08A58 07656  4624          CLC   DOP4(LX2),CBEND                                          30863021
 003018 4770 902E      03024        4625        BC    NOTEQ,DISP02          IF NOT,  BRANCH...                   30870021
 00301C 45E0 7DEE      00DEE        4626        BAL   RETRG,DIWTO      YES, *    WTO  'TEXT...'                  30877021
 003020 47F0 700A      0000A        4627        BC    UNCOND,DON            RETURN PHASE 5 CONTROL               30884021
-
0
                             03024  4629 DISP02 EQU   *                NO,  SET UP FOR OTSR CALL                 30898021
 003024 4810 D5E2      0817A        4630        LH    RW1,DIFPNN            SET PARMAX AT LEAST                  30905021
 003028 4111 0003      00003        4631          LA    RW1,DX3(RW1)          BEYOND ANY EFP                     30912021
 00302C 4A10 D5E4      0817C        4632        AH    RW1,DIPARE            ALLOW FOR LAST FP CONV, IF ANY       30919021
 003030 8810 0002      00002        4633          SRL   RW1,DX2               AREAS USED                         30926021
 003034 4910 A22A      0022A        4634        CH    RW1,PARMAX                                                 30933021
 003038 47D0 904A      03040        4635        BC    NOTHI,DISP01          IF NOT HIGH,  SKIP NEXT INST.        30940021
 00303C 4010 A22A      0022A        4636        STH   RW1,PARMAX                                                 30947021
 003040 9601 D61B      081B3        4637 DISP01 OI    DIFPSW,MSWON          SET DISPLAY/EXHIBIT SW               30954021
 003044 1B11                        4638        SR    RW1,RW1                                                    30961021
 003046 4010 D5E2      0817A        4639        STH   RW1,DIFPNN            SET N = 0                            30968021
 00304A 4010 D5E4      0817C        4640        STH   RW1,DIPARE                                                 30975021
 00304E D501 DDC8 C830 08960 07660  4641          CLC   DOP2(LX2),CBSYSP     PUNCH...                            30982021
 003054 4770 9080      03076        4642        BC    NOTEQ,DISP08           NO                                  30989021
 003058 D207 DD56 A150 088EE 00150  4643          MVC   DOP1+NX10(LX8),PROGID YES, MAKE LIT OF PROG-ID           30996021
 00305E 9234 DD54      088EC        4644          MVI   DOP1+NX8,XX34                                            31003021
 003062 9208 DD55      088ED        4645          MVI   DOP1+NX9,XX08                                            31010021
 003066 41E0 DD54      088EC        4646          LA    RETRG,DOP1+NX8                                           31017021
 00306A 50E0 D148      07CE0        4647        ST    RETRG,OP1                                                  31024021
 00306E 9202 D198      07D30        4648          MVI   XREG1,XX02                                               31031021
 003072 45E0 BB7C      019F4        4649        BAL   RETRG,LA              *    LA   2,='PROG-ID ' FOR PCH      31038021
                             03076  4650 DISP08 EQU   *                                                          31045021
1         DISPLAY VERB ANALYZER   D  I  S  P  L  A  Y                                                           PAGE  101
-  LOC  OBJECT CODE    ADDR1 ADDR2  STMT   SOURCE STATEMENT                                       ASM 0201 11.03 02/14/15
0                                   4651 *                                  *    L    15,V=(DISPRT)              31052021
 003076 45E0 77CC      007CC        4652        BAL     RETRG,DIBALR               BALR  1,15                    31059021
 00307A 94FE D606      0819E        4653        NI      DISPS1,MSWOFF       TERMINATOR SW OFF                    31066021
                                    4654 *                                FIND DEVICE CODE                       31073021
 00307E 4110 0002      00002        4655        LA    RW1,MCNSLE            CONSOLE...                           31080021
 003082 D501 DDC8 C822 08960 07652  4656          CLC   DOP2(LX2),CBCNSL                                         31087021
 003088 4780 90A8      0309E        4657        BC    EQ,DISP03              YES                                 31094021
 00308C 4110 0003      00003        4658        LA    RW1,MSYSPH            SYSPCH...                            31101021
 003090 D501 DDC8 C830 08960 07660  4659          CLC   DOP2(LX2),CBSYSP                                         31108021
 003096 4780 90A8      0309E        4660        BC    EQ,DISP03              YES                                 31115021
 00309A 4110 0001      00001        4661        LA    RW1,MSYSOU            SYSOUT IS THE DEFAULT OPTION         31122021
 00309E 5010 D1E4      07D7C        4662 DISP03 ST      RW1,GFLWD                                                31129021
 0030A2 D201 D171 D1E6 07D09 07D7E  4663          MVC   XCON1+NX1(LX2),GFLWD+NX2                                 31136021
 0030A8 9202 D170      07D08        4664          MVI   XCON1,XX02                                               31143021
 0030AC 9224 D199      07D31        4665        MVI     GMCTYP,MDC                                               31150021
 0030B0 45E0 BD28      01BA0        4666        BAL     RETRG,MACRO         PUT A TEXT                           31157021
 0030B4 1B33                        4667        SR      RW3,RW3                                                  31164021
 0030B6 5030 D554      080EC        4668        ST      RW3,DISPNN          INIT OPERAND COUNT TO 0              31171021
 0030BA 4140 00F8      000F8        4669        LA    RW4,LDOP+LDOP         DISPLACEMENT OF FIRST OPERAND        31178021
 0030BE 45E0 777C      0077C        4670        BAL     RETRG,DIDNIN      GEN... ON INFO FOR ALL DN'S            31185021
 0030C2 D202 D170 C80A 07D08 0763A  4671          MVC   GMACDC(LX3),DISPC1                                       31192021
 0030C8 9224 D199      07D31        4672        MVI     GMCTYP,MDC                                               31199021
 0030CC 45E0 BD28      01BA0        4673        BAL     RETRG,MACRO         PUT A TEXT                           31206021
 0030D0 9400 D61B      081B3        4674          NI    DIFPSW,XX00          RESET ALL BITS OF SW                31213021
 0030D4 47F0 700A      0000A        4675        BC      UNCOND,DON      *** RETURN TO PHASE 5 CONTROL            31220021
1         IKFCBL51: STOP VERB PROCESSOR S T O P                                                                 PAGE  102
-  LOC  OBJECT CODE    ADDR1 ADDR2  STMT   SOURCE STATEMENT                                       ASM 0201 11.03 02/14/15
0                                   4677 *****************************************************************       31234021
                                    4678 *                                                               *       31241021
                                    4679 *  STOP VERB ANALYZER...                                        *       31248021
                                    4680 *     'STOP (LITERAL)' AND 'STOP RUN' ARE ANALYZED.             *       31255021
                                    4681 *     'STOP (LITERAL)' RESULTS IN A WTO WITH REPLY (2 SVCS).    *       31262021
                                    4682 *     'STOP RUN' RESULTS IN TERMINATION CODING, I.E. A BRANCH   *       31269021
                                    4683 *     TO ILBOSTP1 AND RETURN TO THE SUPERVISOR.                 *       31276021
                                    4684 *                                                               *       31283021
                                    4685 *****************************************************************       31290021
0
                             030D8  4687        USING   *,GVERB                                                  31304021
 0030D8                             4688 STOP     DS    0H                                                       31311021
 0030D8 45E0 7CCC      00CCC        4689        BAL   RETRG,WRKLRG          DESTORY 14,15/STORE SUBSCRIPTS       31318021
 0030DC D501 DD4C C82E 088E4 0765E  4690          CLC   DOP1(LX2),CBRUN      STOP RUN...                         31325021
 0030E2 4780 904E      03126        4691          BE    STOP01                  YES                              31332021
 0030E6 9532 DD4C      088E4        4692          CLI   DOP1,MNLIT          NUMERIC LITERAL...             47015 31339021
 0030EA 4770 901E      030F6        4693          BNE   STOP02              NO                             47015 31346021
 0030EE 4120 DD4C      088E4        4694          LA    RW2,DOP1            YES, ADDRESS LITERAL           47015 31353021
 0030F2 45E0 78EE      008EE        4695          BAL   RETRG,CVNLIT        CONVERT TO PRINTABLE FORM      47015 31360021
 0030F6                             4696 STOP02   DS    0H                                                 47015 31367021
 0030F6 1B22                        4697        SR    RW2,RW2                NO, STOP 'TEXT...'                  31374021
 0030F8 4320 DD4D      088E5        4698          IC    RW2,DOP1+NX1         LENGTH OF LIT                       31381021
 0030FC D277 DE4F DD4E 089E7 088E6  4699          MVC   DOP3+NX11(LX120),DOP1+NX2 TEXT                           31388021
 003102 D208 DE46 C85C 089DE 0768C  4700          MVC   DOP3+NX2(LX9),STOPC1   = 'IKF000D, '                     31395021
 003108 4122 0009      00009        4701          LA    RW2,DX9(RW2)                                             31402021
 00310C 4220 DE45      089DD        4702          STC   RW2,DOP3+NX1           =NN                               31409021
 003110 9234 DE44      089DC        4703        MVI   DOP3,MANLIT           ='34'                                31416021
 003114 9601 D626      081BE        4704        OI    DIWOSW,MSWON          SET ALTERNATE MESSAGE SW (DOP3)      31423021
 003118 1B22                        4705        SR    RW2,RW2                                                    31430021
 00311A 45E0 7D5C      00D5C        4706        BAL   RETRG,DIWTOR         WTOR 'IKF000A, TEXT...'               31437021
 00311E 94FE D626      081BE        4707        NI    DIWOSW,MSWOFF                                              31444021
                                    4708 *         MACROS ARE EXPANDED...   *    WAIT                            31451021
 003122 47F0 700A      0000A        4709          B     PH5CTL                  RETURN FOR NEXT STRING           31458021
0
 003126                             4711 STOP01   DS    0H        STOP RUN...GENERATE TERMINATION CODING         31472021
 003126 D201 C813 A162 07643 00162  4712          MVC   VIRTNO(LX2),VIRCTR                                       31479021
 00312C 4120 C811      07641        4713          LA    RW2,VIRDEFI                                              31486021
 003130 4130 000C      0000C        4714          LA    RW3,DX12                                                 31493021
 003134 4500 74F2      004F2        4715          BAL   R0,WRITE2           PERFORM WRITE2                       31500021
 003138 D201 DC0E A162 087A6 00162  4716          MVC   A103CH1(LX2),VIRCTR                                      31507021
 00313E 4820 A162      00162        4717        LH    RW2,VIRCTR                                                 31514021
 003142 4122 0001      00001        4718          LA    RW2,DX1(RW2)                                             31521021
 003146 4020 A162      00162        4719          STH   RW2,VIRCTR                                               31528021
 00314A 45E0 78D2      008D2        4720          BAL   RETRG,GATXTV       * L   15,=V(ILBOSTP1)                 31535021
                                    4721 *                                  * DESTROY 15 *                       31542021
 00314E 05DE                        4722          DC    AL2(ATXT103-ATXTBV) * BCR 15,15                          31549021
 003150 0009                        4723          DC    AL2(ZTXT103-ATXT103)                                     31556021
 003152 47F0 700A      0000A        4724          BC    UNCOND,DON          RETURN TO PHASE 5 CONTROL            31563021
1         IKFCBL51: GOBACK VERB ANALYZER G O B A C K                                                            PAGE  103
-  LOC  OBJECT CODE    ADDR1 ADDR2  STMT   SOURCE STATEMENT                                       ASM 0201 11.03 02/14/15
0                                   4726 ******************************************************************      31577021
                                    4727 *                                                                *      31584021
                                    4728 *  GOBACK VERB ANALYZER...                                       *      31591021
                                    4729 *     GENERATES RETURN CODING WHICH ENABLES COBOL PROGRAM TO ACT *      31598021
                                    4730 *     AS MAIN PROGRAM OR SUBPROGRAM, RETURNING TO CALLING PROGRAM*      31605021
                                    4731 *     WHICH MAY BE ANOTHER PROBLEM PROGRAM, OR THE SYSTEM.       *      31612021
                                    4732 *     OUTPUT INVOLVES TEST FOR MAIN/SUB PROGRAM STATUS, RESTORA- *      31619021
                                    4733 *     TION OF REGISTERS AND A RETURN.                            *      31626021
                                    4734 *                                                                *      31633021
                                    4735 ******************************************************************      31640021
0
                                    4737 *                                                                 43113 31654021
                                    4738 * CODE GENERATED --                                               43113 31661021
                                    4739 *                                                                 43113 31668021
                                    4740 ******                                                            43113 31675021
                                    4741 * PART1:                                                          43113 31682021
                                    4742 *        RESERVE 15                                               43113 31689021
                                    4743 *        L     15,432(13)                                         43113 31696021
                                    4744 *        STM   0,14,SAVEP2                                        43113 31703021
                                    4745 *        L     1,SAVE2                                            43113 31710021
                                    4746 *        BALR  15,0                                               43113 31717021
                                    4747 *        TM    SWITCH,X'10'                                       43113 31724021
                                    4748 *        BZ    14(15)                                             43113 31731021
                                    4749 *        L     15,=V(ILBOSTP1)                                    43113 31738021
                                    4750 *        BR    15                                                 43113 31745021
                                    4751 ******                                                            43113 31752021
                                    4752 * PART2: GENERATED IF VERB IS WITHIN A DECLARATIVE.               43113 31759021
                                    4753 *        TM    75(1),X'01'                                        43113 31766021
                                    4754 *        BO    30(15)                                             43113 31773021
                                    4755 *        L     1,72(1)                                            43113 31780021
                                    4756 *        B     14(15)                                             43113 31787021
                                    4757 *        MVC   4(68,13),4(1)                                      43113 31794021
                                    4758 ******                                                            43113 31801021
                                    4759 * PART3:                                                          43113 31808021
                                    4760 *        LH    15,92(13)                                          43113 31815021
                                    4761 *        L     13,4(13)                                           43113 31822021
                                    4762 *        LM    0,12,20(13)                                        43113 31829021
                                    4763 *        L     14,12(13)                                          43113 31836021
                                    4764 *        BR    14                                                 43113 31843021
                                    4765 *        DESTROY 14                                               43113 31850021
                                    4766 *        FREE    15                                               43113 31857021
                                    4767 *                                                                 43113 31864021
0
                             03156  4769          USING *,GVERB                                                  31878021
 003156                             4770 GOBACK   DS    0H                                                       31885021
 003156 45E0 7CCC      00CCC        4771        BAL   RETRG,WRKLRG          DESTROY 14,15/STORE SUBSCRIPTS       31892021
 00315A D201 C813 A162 07643 00162  4772          MVC   VIRTNO(LX2),VIRCTR                                       31899021
 003160 4120 C811      07641        4773          LA    RW2,VIRDEFI                                              31906021
 003164 4130 000C      0000C        4774          LA    RW3,DX12                                                 31913021
 003168 4500 74F2      004F2        4775          BAL   RW0,WRITE2          WRITE OPT ATXT ON F-3                31920021
 00316C D201 DBBC A162 08754 00162  4776          MVC   A100CH1(LX2),VIRCTR                                      31927021
 003172 4820 A162      00162        4777          LH    RW2,VIRCTR                                               31934021
 003176 4122 0001      00001        4778          LA    RW2,DX1(RW2)                                             31941021
1         IKFCBL51: GOBACK VERB ANALYZER G O B A C K                                                            PAGE  104
-  LOC  OBJECT CODE    ADDR1 ADDR2  STMT   SOURCE STATEMENT                                       ASM 0201 11.03 02/14/15
000317A 4020 A162      00162        4779          STH   RW2,VIRCTR                                               31948021
 00317E 45E0 78D2      008D2        4780          BAL   RETRG,GATXTV             * GENERATE                43113 31955021
 003182 0566                        4781          DC    AL2(ATXT100-ATXTBV)      *    PART 1               43113 31962021
 003184 002F                        4782          DC    AL2(ZTXT100-ATXT100)     *        CODING           43113 31969021
 003186 9101 D0B7      07C4F        4783          TM    DECLSW,INDCL        VERB WITHIN DECLARATIVE...     43113 31976021
 00318A 4780 9040      03196        4784          BZ    GOBACK1             NO                             43113 31983021
 00318E 45E0 78D2      008D2        4785          BAL   RETRG,GATXTV             * GENERATE                43113 31990021
 003192 031F                        4786          DC    AL2(ATXT04-ATXTBV)       *    PART 2               43113 31997021
 003194 0021                        4787          DC    AL2(ZTXT04-ATXT04)       *        CODING           43113 32004021
 003196                             4788 GOBACK1  DS    0H                                                 43113 32011021
 003196 45E0 78D2      008D2        4789          BAL   RETRG,GATXTV             * GENERATE                43113 32018021
 00319A 0595                        4790          DC    AL2(ATXT101-ATXTBV)      *    PART 3               43113 32025021
 00319C 0023                        4791          DC    AL2(ZTXT101-ATXT101)     *        CODING           43113 32032021
                                    4792 *DEL                                                               4311 32039021
                                    4793 *DEL                                                               4311 32046021
                                    4794 *DEL                                                               4311 32053021
                                    4795 *DEL                                                               4311 32060021
                                    4796 *DEL                                                               4311 32067021
                                    4797 *DEL                                                               4311 32074021
                                    4798 *DEL                                                               4311 32081021
                                    4799 *DEL                                                               4311 32088021
                                    4800 *DEL                                                               4311 32095021
                                    4801 *DEL                                                               4311 32102021
                                    4802 *DEL                                                               4311 32109021
                                    4803 *DEL                                                               4311 32116021
                                    4804 *DEL                                                               4311 32123021
                                    4805 *DEL                                                               4311 32130021
                                    4806 *DEL                                                               4311 32137021
                                    4807 *DEL                                                               4311 32144021
 00319E 9101 D60B      081A3        4808        TM    ADESW2,MSWON         GOBACK ENTERED FROM ADETER...         32151021
 0031A2 4780 700A      0000A        4809        BZ    PH5CTL               NO, RETURN TO PHASE CONTROL           32158021
 0031A6 94FE D60B      081A3        4810        NI    ADESW2,MSWOFF        YES, RETURN VIA RETURN REG            32165021
 0031AA 98E4 C5C8      073F8        4811        LM    RETRG,RW4,SVWJHI                                           32172021
 0031AE 58F0 C5C4      073F4        4812        L     XRVAR,SVWJHH                                               32179021
 0031B2 5890 C5E4      07414        4813        L     STNGR,SVWJHJ                                               32186021
 0031B6 07FE                        4814        BR    RETRG                 RETURN TO CALLER                     32193021
1         IKFCBL51: EXIT PROGRAM VERB ANALYZER E X I T P G M                                                    PAGE  105
-  LOC  OBJECT CODE    ADDR1 ADDR2  STMT   SOURCE STATEMENT                                       ASM 0201 11.03 02/14/15
0                                   4816 ******************************************************************      32207021
                                    4817 *                                                                *      32214021
                                    4818 *  EXIT PROGRAM ANALYZER...                                      *      32221021
                                    4819 *     GENERATES CODING WHICH IS AN EFFECTIVE NOOP WITHIN A MAIN  *      32228021
                                    4820 *     PROGRAM, BUT WHICH RETURNS CONTROL TO THE CALLER WITHIN A  *      32235021
                                    4821 *     SUBPROGRAM.                                                *      32242021
                                    4822 *     OUTPUT INVOLVES TEST FOR MAIN/SUB PROGRAM STATUS, RESTORA- *      32249021
                                    4823 *     TION OF REGISTERS AND A RETURN.                            *      32256021
                                    4824 *                                                                *      32263021
                                    4825 ******************************************************************      32270021
0
                                    4827 *                                                                 43113 32284021
                                    4828 * CODE GENERATED --                                               43113 32291021
                                    4829 *                                                                 43113 32298021
                                    4830 ******                                                            43113 32305021
                                    4831 * PART1:                                                          43113 32312021
                                    4832 *        RESERVE 15                                               43113 32319021
                                    4833 *        L     1,SAVE2                                            43113 32326021
                                    4834 *        BALR  15,0                                               43113 32333021
                                    4835 *        TM    SWITCH,X'10'                                       43113 32340021
                                    4836 *        BO    30.OR.58(15)                                       43113 32347021
                                    4837 *        L     15,432(13)                                         43113 32354021
                                    4838 *        STM   0,14,SAVEP2                                        43113 32361021
                                    4839 ******                                                            43113 32368021
                                    4840 * PART2: GENERATED IF VERB IS WITHIN A DECLARATIVE.               43113 32375021
                                    4841 *        BALR  15,0                                               43113 32382021
                                    4842 *        TM    75(1),X'01'                                        43113 32389021
                                    4843 *        BO    16(15)                                             43113 32396021
                                    4844 *        L     1,72(1)                                            43113 32403021
                                    4845 *        B     0(15)                                              43113 32410021
                                    4846 *        MVC   4(68,13),4(1)                                      43113 32417021
                                    4847 ******                                                            43113 32424021
                                    4848 * PART3:                                                          43113 32431021
                                    4849 *        LH    15,92(13)                                          43113 32438021
                                    4850 *        L     13,4(13)                                           43113 32445021
                                    4851 *        LM    0,12,20(13)                                        43113 32452021
                                    4852 *        L     14,12(13)                                          43113 32459021
                                    4853 *        BR    14                                                 43113 32466021
                                    4854 *        DESTROY 14                                               43113 32473021
                                    4855 *        FREE    15                                               43113 32480021
                                    4856 *                                                                 43113 32487021
0
                             031B8  4858          USING *,GVERB                                                  32501021
 0031B8                             4859 EXITPGM  DS    0H                                                       32508021
 0031B8 45E0 7CCC      00CCC        4860        BAL   RETRG,WRKLRG          DESTROY 14,15/STORE SUBSCRIPTS       32515021
 0031BC 9101 D0B7      07C4F        4861          TM    DECLSW,INDCL        VERB WITHIN DECLARATIVE...     43113 32522021
 0031C0 4780 9018      031D0        4862          BZ    EXITPGM1            NO                             43113 32529021
 0031C4 9210 D956      084EE        4863          MVI   A04CH1,XX10         SETUP                          43113 32536021
 0031C8 9200 D962      084FA        4864          MVI   A04CH2,XX00            DISPLACEMENTS               43113 32543021
 0031CC 923A DBFD      08795        4865          MVI   A102CH1,XX3A              IN CODE                  43113 32550021
 0031D0                             4866 EXITPGM1 DS    0H                                                 43113 32557021
 0031D0 45E0 78D2      008D2        4867          BAL   RETRG,GATXTV             * GENERATE                43113 32564021
 0031D4 05B8                        4868          DC    AL2(ATXT102-ATXTBV)      *    PART 1               43113 32571021
1         IKFCBL51: EXIT PROGRAM VERB ANALYZER E X I T P G M                                                    PAGE  106
-  LOC  OBJECT CODE    ADDR1 ADDR2  STMT   SOURCE STATEMENT                                       ASM 0201 11.03 02/14/15
00031D6 0026                        4869          DC    AL2(ZTXT102-ATXT102)     *        CODING           43113 32578021
 0031D8 9101 D0B7      07C4F        4870          TM    DECLSW,INDCL        VERB WITHIN DECLARATIVE...     43113 32585021
 0031DC 4780 903C      031F4        4871          BZ    EXITPGM2            NO                             43113 32592021
 0031E0 45E0 78D2      008D2        4872          BAL   RETRG,GATXTV             * GENERATE                43113 32599021
 0031E4 031C                        4873          DC    AL2(ATXT04A-ATXTBV)      *    PART2                43113 32606021
 0031E6 0024                        4874          DC    AL2(ZTXT04-ATXT04A)      *        CODING           43113 32613021
 0031E8 921E D956      084EE        4875          MVI   A04CH1,XX1E         RESTORE                        43113 32620021
 0031EC 920E D962      084FA        4876          MVI   A04CH2,XX0E            ORIGINAL                    43113 32627021
 0031F0 9222 DBFD      08795        4877          MVI   A102CH1,XX22              DISPLACEMENTS            60604 32634021
 0031F4                             4878 EXITPGM2 DS    0H                                                 43113 32641021
 0031F4 45E0 78D2      008D2        4879          BAL   RETRG,GATXTV             * GENERATE                43113 32648021
 0031F8 0595                        4880          DC    AL2(ATXT101-ATXTBV)      *    PART 3               43113 32655021
 0031FA 0023                        4881          DC    AL2(ZTXT101-ATXT101)     *        CODING           43113 32662021
 0031FC 47F0 700A      0000A        4882          B     PH5CTL              PROCESS NEXT VERB              43113 32669021
                                    4883 *DEL                                                               4311 32676021
                                    4884 *DEL                                                               4311 32683021
                                    4885 *DEL                                                               4311 32690021
                                    4886 *DEL                                                               4311 32697021
                                    4887 *DEL                                                               4311 32704021
                                    4888 *DEL                                                               4311 32711021
                                    4889 *DEL                                                               4311 32718021
                                    4890 *DEL                                                               4311 32725021
                                    4891 *DEL                                                               4311 32732021
                                    4892 *DEL                                                               4311 32739021
                                    4893 *DEL                                                               4311 32746021
                                    4894 *DEL                                                               4311 32753021
                                    4895 *DEL                                                               4311 32760021
                                    4896 *DEL                                                               4311 32767021
1         IKFCBL51: DEBUG PACKET ANALYZER  D E B U G                                                            PAGE  107
-  LOC  OBJECT CODE    ADDR1 ADDR2  STMT   SOURCE STATEMENT                                       ASM 0201 11.03 02/14/15
0                                   4898 *=1          *DEBUG CONTROL CARD FOR DEBUG PACKET                       32781021
                                    4899 *******************************************************************     32788021
                                    4900 *                                                                       32795021
                                    4901 *    D E B U G                                                          32802021
                                    4902 *                                                                       32809021
                                    4903 *      DEBUG PACKET INTRODUCTORY STATEMENT *DEBUG  INS-PT  (TRY)        32816021
                                    4904 *    INPUT STRING...  DEBUG 02  RPD LGN                                 32823021
                                    4905 *******************************************************************     32830021
                             03200  4906        USING *,GVERB                                                    32837021
                             03200  4907 ADEBUG EQU   *                                                          32844021
 003200 D202 DEC0 DDC8 08A58 08960  4908          MVC   DOP4(LX3),DOP2  SAVE OPERANDS                            32851021
 003206 D202 DF3C DD4C 08AD4 088E4  4909          MVC   DOP5(LX3),DOP1                                           32858021
 00320C 45E0 7828      00828        4910        BAL   RETRG,ADETER          TERM PREV PACKET OR MAIN PROGRAM     32865021
 003210 9601 D60A      081A2        4911        OI    ADESW1,MSWON                                               32872021
 003214 D201 D305 DEC1 07E9D 08A59  4912          MVC   GLGNCN+NX3(LX2),DOP4+NX1                                 32879021
 00321A 45E0 BA24      0189C        4913        BAL   RETRG,GNOPT3          *  GN  EQU  *                        32886021
 00321E D201 D568 DEC1 08100 08A59  4914          MVC   LSTDBG(LX2),DOP4+NX1 THE GN NUMBER AFTER THIS ONE IS     32893021
 003224 4820 D568      08100        4915        LH    RW2,LSTDBG            THE ADDRESS TO RETURN TO AT THE      32900021
 003228 4122 0001      00001        4916          LA    RW2,DX1(RW2)         END OF THIS DEBUG.                  32907021
 00322C 4020 D568      08100        4917        STH   RW2,LSTDBG            SAVE FOR USE IN RTNE ADETER.         32914021
                                    4918 *                                                                       32921021
                                    4919 *      RPD PROCESSING GOES IN HERE EVENTUALLY                           32928021
                                    4920 *                                                                       32935021
 003230 47F0 700A      0000A        4921        BC    UNCOND,DON            RETURN TO PHASE 5 CONTROL            32942021
1         EXHIBIT VERB ANALYZER     E  X  H  I  B  I  T                                                         PAGE  108
-  LOC  OBJECT CODE    ADDR1 ADDR2  STMT   SOURCE STATEMENT                                       ASM 0201 11.03 02/14/15
0                                   4923 *=1          EXHIBIT VERB                                               32956021
                                    4924 *****************************************************************       32963021
                                    4925 *          *** E X H I B I T  V E R B ***                               32970021
                                    4926 *                                                                       32977021
                                    4927 *              INPUT IS SEGMENTED STRINGS, USES DISPLAY VERB            32984021
                                    4928 *              SUBROUTINES FREELY.                                      32991021
                                    4929 *     EXAMPLE...  EXHIBIT NAMED CHANGED OP1 OP2 OP3.                    32998021
                                    4930 *     INPUT STRINGS...                                                  33005021
                                    4931 *                 EXHIBIT 05 FIRST NAMED CHANGED OP1 OP2                33012021
                                    4932 *                 EXHIBIT 02 OP3 END                                    33019021
                                    4933 *                 EXHIBIT 05 FIRST NAMED CHANGED OP1 OP2                33026021
                                    4934 *                 EXHIBIT 02 OP3 END                                    33033021
                                    4935 *                                                                       33040021
                                    4936 *     INTERNAL FP OPERANDS ARE TREATED AS IN  DISPLAY. 'CHANGED' 2-     33047021
                                    4937 *      PARAMETERS ARE PUT IN PARAM AREA AFTER THE CONVERTED ITEMS.      33054021
                                    4938 *                                                                       33061021
                                    4939 *****************************************************************       33068021
                                    4940 *                                                                       33075021
                             03234  4941        USING *,GVERB                                                    33082021
                             03234  4942 EXHIBI EQU   *                                                          33089021
 003234 9101 D608      081A0        4943        TM    FLAGSW,MSWON          SECOND STRING...                     33096021
 003238 4710 916E      033A2        4944        BC    ONES,EXHI01            YES, GO DEVELOP DISPLAY CODING      33103021
 00323C D501 DD4C C828 088E4 07658  4945          CLC   DOP1(LX2),CBFRST     CONTINUATION STRING...              33110021
 003242 4770 7804      00804        4946        BC    NOTEQ,NXTSTR           YES, GO BACK TO GETDOP ROUTINE      33117021
 003246 4840 D5E2      0817A        4947        LH    RW4,DIFPNN            CONVERT BYTE DISPLACEMENT TO         33124021
 00324A 4144 0003      00003        4948          LA    RW4,DX3(RW4)          NEXT HIGHEST WORD DISPLACEMENT     33131021
 00324E 4A40 D5E4      0817C        4949        AH    RW4,DIPARE            ALLOW FOR LAST FP CONV, IF ANY       33138021
 003252 8840 0002      00002        4950          SRL   RW4,DX2                                                  33145021
 003256 4040 D56E      08106        4951        STH   RW4,EXPARC            START PARAM CT BEYOND N              33152021
 00325A 9601 D61B      081B3        4952        OI    DIFPSW,MSWON          SET DISPLAY/EXHIBIT SW               33159021
 00325E 94FE D605      0819D        4953        NI    EXHBSC,MSWOFF                                              33166021
 003262 94FE D604      0819C        4954        NI    EXHBSN,MSWOFF                                              33173021
 003266 D701 D554 D554 080EC 080EC  4955          XC    DISPNN(LX2),DISPNN   USE DISPNN AS XSA CTR FOR IFP       33180021
 00326C 4140 007C      0007C        4956        LA    RW4,LDOP              DISPLACEMENT OF FIRST OPERAND        33187021
 003270 4124 DD4C      088E4        4957        LA    RW2,DOP1(RW4)                                              33194021
 003274 D501 2000 C820 00000 07650  4958 EXHB03   CLC   DX0(LX2,RW2),CBCHGD                                      33201021
 00327A 4780 92F4      03528        4959        BC    EQ,EXHB01             BRANCH TO EXHB01                     33208021
 00327E D501 2000 C82C 00000 0765C  4960 EXHB04   CLC   DX0(LX2,RW2),CBNAMD                                      33215021
 003284 4780 9304      03538        4961        BC    EQ,EXHB02             BRANCH TO EXHB02                     33222021
 003288 9101 D605      0819D        4962        TM    EXHBSC,MSWON                                               33229021
 00328C 4780 9074      032A8        4963        BC    ZERO,EXHI02          NIF NOT CHANGED,  GO TO EXHI02        33236021
 003290 4850 A218      00218        4964        LH    RW5,SWCOUN            GET AN XSASW NUMBER FOR              33243021
 003294 4155 0001      00001        4965          LA    RW5,DX1(RW5)             THIS EXHIBIT CHANGED STATEME    33250021
 003298 4050 A218      00218        4966        STH   RW5,SWCOUN                                                 33257021
                                    4967 * INITIALIZE FOR LOOPS                                                  33264021
 00329C 9201 D198      07D30        4968 EXHI03 MVI   XREG1,XRA                                                  33271021
 0032A0 9201 D1E0      07D78        4969        MVI   XREG2,XRA                                                  33278021
 0032A4 45E0 B038      00EB0        4970        BAL   RETRG,SUB             *    SR   XRA,XRA                    33285021
                             032A8  4971 EXHI02 EQU   *                     UNCHANGED ENTERS HERE                33292021
 0032A8 1B55                        4972        SR    RW5,RW5                                                    33299021
 0032AA 5050 D558      080F0        4973        ST    RW5,EXHIBP            INIT BP                              33306021
 0032AE 5850 C7D0      07600        4974        L     RW5,EXHIC1            ='80000000'                          33313021
 0032B2 D501 2000 C826 00000 07656  4975 EXHI04   CLC   DX0(LX2,RW2),HTERM    TERMINATOR...                      33320021
 0032B8 4780 9132      03366        4976        BC    EQ,EXHI05              YES, FINISH UP                      33327021
 0032BC 9535 2000      00000        4977          CLI   DX0(RW2),XX35        NAME OF DN...                       33334021
1         EXHIBIT VERB ANALYZER     E  X  H  I  B  I  T                                                         PAGE  109
-  LOC  OBJECT CODE    ADDR1 ADDR2  STMT   SOURCE STATEMENT                                       ASM 0201 11.03 02/14/15
00032C0 4780 9146      0337A        4978        BC    EQ,EXHI06              YES BYPASS                          33341021
 0032C4 9530 2000      00000        4979          CLI   DX0(RW2),MDN         DN...                               33348021
 0032C8 4780 90C2      032F6        4980        BC    EQ,EXHI07              YES                                 33355021
 0032CC D502 2004 C69A 00004 074CA  4981          CLC   DX4(LX3,RW2),XTALLV+NX4 TALLY...                         33362021
 0032D2 4780 90C2      032F6        4982        BC    EQ,EXHI07              YES, FALLTHRU WILL BE LIT, FIGC     33369021
 0032D6 95FA 2000      00000        4983          CLI   DX0(RW2),MPARMA      IFP IN PARAM AREA...                33376021
 0032DA 4780 90C2      032F6        4984        BC    EQ,EXHI07                   YES, TREAT AS DN               33383021
 0032DE 8850 0002      00002        4985          SRL   RW5,DX2                                                  33390021
 0032E2 45E0 77FA      007FA        4986 EXHI08 BAL   RETRG,GETDOP          GET NEXT DN,ETC.                     33397021
 0032E6 4124 DD4C      088E4        4987        LA    RW2,DOP1(RW4)                                              33404021
 0032EA 5950 C38C      071BC        4988        C     RW5,GZERO                                                  33411021
 0032EE 4780 913E      03372        4989        BC    EQ,EXHI09             BRANCH TO EXHI09                     33418021
 0032F2 47F0 907E      032B2        4990        BC    UNCOND,EXHI04         GO TO EXHI04                         33425021
-
                                    4992 *  DN, FIGCON OR LITERAL FOUND. GENERATE CODE.                          33439021
 0032F6 45E0 77F0      007F0        4993 EXHI07 BAL   RETRG,CALCLG          GET LENGTH                           33446021
 0032FA 47F0 9132      03366        4994        BC    UNCOND,EXHI05         ILLEGAL, TERMINATE                   33453021
 0032FE 1815                        4995        LR    RW1,RW5                    SET UP BIT PATTERN (BP)         33460021
 003300 5610 D558      080F0        4996        O     RW1,EXHIBP                                                 33467021
 003304 5010 D558      080F0        4997        ST    RW1,EXHIBP                                                 33474021
 003308 8850 0001      00001        4998          SRL   RW5,DX1                                                  33481021
 00330C 9101 D605      0819D        4999        TM    EXHBSC,MSWON                                               33488021
 003310 4780 912A      0335E        5000        BC    ZERO,EXHI3C                NOT CHANGED                     33495021
 003314 45E0 9232      03466        5001        BAL   RETRG,EXHI0A          SET UP FOR...                        33502021
 003318 45E0 B158      00FD0        5002        BAL   RETRG,COMPLG               *         CLC   XSA(N),DN       33509021
 00331C 5050 DD48      088E0        5003        ST    RW5,MYSAVE           SET UP LIT-Q IN DIRECT A-TEXT         33516021
 003320 D203 DC29 DD48 087C1 088E0  5004          MVC   A99CH1(LX4),MYSAVE                                       33523021
 003326 45E0 78D2      008D2        5005        BAL   RETRG,GATXTV         GENERATE A-TEXT FOR BRANCHING ON      33530021
 00332A 05E7                        5006        DC    AL2(ATXT99-ATXTBV)   THE CLC & OR'ING LIT-Q WITH R1        33537021
 00332C 0023                        5007        DC    AL2(ZTXT99-ATXT99)                                         33544021
 00332E 45E0 9232      03466        5008        BAL   RETRG,EXHI0A     SET UP FOR...                             33551021
 003332 91FA 2000      00000        5009          TM    DX0(RW2),XXFA        CONVERTED IFP...                    33558021
 003336 4770 9112      03346        5010        BC    NOTEQ,EXHI16           NO                                  33565021
 00333A 48E0 D554      080EC        5011        LH    RETRG,DISPNN                                               33572021
 00333E 4AE0 D552      080EA        5012          AH    RETRG,LENGTH+NX2                                         33579021
 003342 40E0 D554      080EC        5013        STH   RETRG,DISPNN          BOOKKEEP XSA CELLS FOR IFP ITEM      33586021
                             03346  5014 EXHI16 EQU   *                                                          33593021
 003346 45E0 B18C      01004        5015        BAL   RETRG,MVC                  *         MVC   XSA(N),DN       33600021
 00334A 8850 0001      00001        5016          SRL   RW5,DX1                                                  33607021
 00334E 4810 A216      00216        5017        LH    RW1,XSACTR                                                 33614021
 003352 4A10 D552      080EA        5018          AH    RW1,LENGTH+NX2                                           33621021
 003356 4010 A216      00216        5019        STH   RW1,XSACTR                                                 33628021
 00335A 47F0 90AE      032E2        5020        BC    UNCOND,EXHI08         GO TO EXHI08                         33635021
-
 00335E 8850 0001      00001        5022 EXHI3C   SRL   RW5,DX1                                                  33649021
 003362 47F0 90AE      032E2        5023        BC    UNCOND,EXHI08         GO TO EXHI08                         33656021
-
                                    5025 *   FIRST STRING DONE, GO TO GET SECOND ONE.                            33670021
 003366 45E0 9292      034C6        5026 EXHI05 BAL   RETRG,EXHI0B          TERM INNER LOOP FIRST                33677021
1         EXHIBIT VERB ANALYZER     E  X  H  I  B  I  T                                                         PAGE  110
-  LOC  OBJECT CODE    ADDR1 ADDR2  STMT   SOURCE STATEMENT                                       ASM 0201 11.03 02/14/15
000336A 9601 D608      081A0        5027        OI    FLAGSW,MSWON                                               33684021
 00336E 47F0 700A      0000A        5028        BC    UNCOND,DON       *** LRETURN TO PHASE 5 CONTROL            33691021
0
 003372 45E0 9292      034C6        5030 EXHI09 BAL   RETRG,EXHI0B          GO TO EXHI03                         33705021
 003376 47F0 9068      0329C        5031          B     EXHI03             BRANCH TO EXHI03 (INIT. LOOP)         33712021
-
                                    5033 *  35 WORD FOUND, BYPASS AT THIS TIME.                                  33726021
 00337A 45E0 77FA      007FA        5034 EXHI06 BAL   RETRG,GETDOP          GET NEXT                             33733021
 00337E 4124 DD4C      088E4        5035        LA    RW2,DOP1(RW4)                                              33740021
 003382 D502 C8A1 2000 076D1 00000  5036          CLC   PR35C1(LX3),DX0(RW2)  LEFT PARAN FOUND...                33747021
 003388 4770 907E      032B2        5037        BC    NOTEQ,EXHI04           NO, NO SUBSCRIPTS, CONTINUE         33754021
 00338C 45E0 77FA      007FA        5038 EXHI12 BAL   RETRG,GETDOP           YES, DISCARD SUBSCRIPT NAME INF     33761021
 003390 4124 DD4C      088E4        5039        LA    RW2,DOP1(RW4)                                              33768021
 003394 D502 C8A4 2000 076D4 00000  5040          CLC   PR35C2(LX3),DX0(RW2)  RIGHT PARAN...                     33775021
 00339A 4770 9158      0338C        5041        BC    NOTEQ,EXHI12           NO, DISCARD                         33782021
 00339E 47F0 90AE      032E2        5042        BC    UNCOND,EXHI08          YES, CONTINUE WITH A GETDOP         33789021
                                    5043 * START PROCESSING OF DUPL STRING,BYPASS TILL 1ST. DN, ETC.             33796021
 0033A2 94FE D608      081A0        5044 EXHI01 NI    FLAGSW,MSWOFF                                              33803021
 0033A6 4140 007C      0007C        5045        LA    RW4,LDOP                                                   33810021
 0033AA 4124 DD4C      088E4        5046        LA    RW2,DOP1(RW4)         LOCATE FIRST OPERAND                 33817021
 0033AE 47F0 9186      033BA        5047        BC    UNCOND,EXHI10         BRANCH TO EXHI10                     33824021
 0033B2 45E0 77FA      007FA        5048 EXHI11 BAL   RETRG,GETDOP          GET NEXT                             33831021
 0033B6 4124 DD4C      088E4        5049        LA    RW2,DOP1(RW4)                                              33838021
 0033BA D501 2000 C820 00000 07650  5050 EXHI10   CLC   DX0(LX2,RW2),CBCHGD                                      33845021
 0033C0 4780 917E      033B2        5051        BC    EQ,EXHI11             GO TO EXHI11                         33852021
 0033C4 D501 2000 C82C 00000 0765C  5052          CLC   DX0(LX2,RW2),CBNAMD                                      33859021
 0033CA 4780 917E      033B2        5053        BC    EQ,EXHI11            DISCARD TILL 1ST OPERAND              33866021
 0033CE 9101 D605      0819D        5054        TM    EXHBSC,MSWON          CHANGED CASES WHICH NEED ...         33873021
 0033D2 4780 91B6      033EA        5055        BC    ZERO,EXHI13           IF NOT CHANGED CASES,  GO TO         33880021
 0033D6 D201 DA93 A218 0862B 00218  5056          MVC   A59CH1(LX2),SWCOUN                                       33887021
 0033DC D201 DA9A A218 08632 00218  5057          MVC   A59CH2(LX2),SWCOUN                                       33894021
 0033E2 45E0 78D2      008D2        5058        BAL   RETRG,GATXTV          *    SR   XRD,XRD                    33901021
 0033E6 045F                        5059        DC    AL2(ATXT59-ATXTBV)    *    IC   XRD,XSASW                  33908021
 0033E8 0011                        5060        DC    AL2(ZTXT59-ATXT59)    *    OI   XSASW,MSWON                33915021
 0033EA 4830 D5E2      0817A        5061 EXHI13 LH    RW3,DIFPNN            RELATIVE PARAM POINTER TO            33922021
 0033EE 4A30 D5E4      0817C        5062        AH    RW3,DIPARE                                                 33929021
 0033F2 D701 D5E2 D5E2 0817A 0817A  5063          XC    DIFPNN(LX2),DIFPNN   CLEAR TO ZERO                       33936021
 0033F8 D701 D5E4 D5E4 0817C 0817C  5064          XC    DIPARE(LX2),DIPARE   CLEAR TO ZERO                       33943021
 0033FE 4133 0007      00007        5065          LA    RW3,DX7(RW3)    USE PARAM 1 OR FIRST BEYOND FP CONV      33950021
 003402 8830 0002      00002        5066          SRL   RW3,DX2                                                  33957021
 003406 4030 D338      07ED0        5067        STH   RW3,GTEMP                                                  33964021
 00340A D201 D189 D338 07D21 07ED0  5068          MVC   XCNTR1+NX1(LX2),GTEMP                                    33971021
 003410 921C D188      07D20        5069          MVI   XCNTR1,XX1C                                              33978021
 003414 9202 D198      07D30        5070          MVI   XREG1,XX02                                               33985021
 003418 45E0 BB7C      019F4        5071        BAL     RETRG,LA            PUT A TEXT LA INST.                  33992021
 00341C 45E0 77CC      007CC        5072        BAL     RETRG,DIBALR        PUT A TEXT BALR INST.                33999021
 003420 1B33                        5073        SR      RW3,RW3                                                  34006021
 003422 5030 D554      080EC        5074        ST      RW3,DISPNN                                               34013021
 003426 9202 D170      07D08        5075          MVI   XCON1,XX02                                               34020021
 00342A 9280 D171      07D09        5076          MVI   XCON1+NX1,XX80                                           34027021
 00342E 9201 D172      07D0A        5077          MVI   XCON1+NX2,XX01                                           34034021
 003432 9224 D199      07D31        5078        MVI     GMCTYP,MDC                                               34041021
1         EXHIBIT VERB ANALYZER     E  X  H  I  B  I  T                                                         PAGE  111
-  LOC  OBJECT CODE    ADDR1 ADDR2  STMT   SOURCE STATEMENT                                       ASM 0201 11.03 02/14/15
0003436 45E0 BD28      01BA0        5079        BAL     RETRG,MACRO         PUT A TEXT MACRO                     34048021
 00343A 45E0 777C      0077C        5080        BAL   RETRG,DIDNIN          GENERATE BODY OF DISPLAY CALL SE     34055021
 00343E D202 D170 C80A 07D08 0763A  5081          MVC   GMACDC(LX3),DISPC1                                       34062021
 003444 9224 D199      07D31        5082        MVI   GMCTYP,MDC                                                 34069021
 003448 45E0 BD28      01BA0        5083        BAL   RETRG,MACRO                *         DC   XL2'FFFF'        34076021
 00344C D701 D5E2 D5E2 0817A 0817A  5084          XC    DIFPNN(LX2),DIFPNN   CLEAR TO ZERO                       34083021
 003452 D501 A22A D56E 0022A 08106  5085          CLC   PARMAX(LX2),EXPARC   IF LOCAL CT EXCEEDS PREVIOUS        34090021
 003458 47B0 700A      0000A        5086        BC    NOTLO,DON           *** LEAVE EXHIBIT VERB ***             34097021
 00345C D201 A22A D56E 0022A 08106  5087          MVC   PARMAX(LX2),EXPARC    COUNTS REPLACE PARMAX BY IT.       34104021
 003462 47F0 700A      0000A        5088        BC    UNCOND,DON       *** FRETURN TO PHASE 5 CONTROL            34111021
-
                                    5090 * LOCAL SR'S FOR EXHIBIT VERB                                           34125021
 003466 9218 D188      07D20        5091 EXHI0A   MVI   XCNTR1,XX18          SET UP...                           34132021
 00346A D501 D552 D4BE 080EA 08056  5092          CLC   LENGTH+NX2(LX2),H256  IS  LENGTH GT 256                  34139021
 003470 47D0 9254      03488        5093          BNH   EXHLOK              GO TO EXHLOK                         34146021
 003474 50E0 D4D0      08068        5094          ST    XRSUB,IMGSAV        SAVE  RETURN  ADD                    34153021
 003478 45E0 7520      00520        5095          BAL   XRSUB,ERRPRO      ERROR,PUT OUT MSG                      34160021
 00347C 11                          5096        DC    AL1(ERRN17)                                                34167021
 00347D 01                          5097        DC    AL1(1)                                                     34174021
 00347E 58E0 D4D0      08068        5098          L     XRSUB,IMGSAV        RELOAD  RETURN ADD                   34181021
 003482 D201 D552 D4BE 080EA 08056  5099          MVC   LENGTH+NX2(LX2),H256      MAKE LENGTH = 256              34188021
                             03488  5100 EXHLOK   EQU   *                                                        34195021
 003488 D201 D158 D552 07CF0 080EA  5101          MVC   XL1(LX2),LENGTH+NX2                                      34202021
 00348E D201 D189 A216 07D21 00216  5102          MVC   XCNTR1+NX1(LX2),XSACTR XCA(N) AS FIRST OPERAND           34209021
 003494 95FA 2000      00000        5103          CLI   DX0(RW2),XXFA        CONVERTED FP IN PARAM AREA...       34216021
 003498 4770 928C      034C0        5104        BC    NOTEQ,EXHI1A           NO                                  34223021
 00349C 921C 2001      00001        5105          MVI   DX1(RW2),XX1C         YES, MAKE INTO GTREF FOR PARAM     34230021
 0034A0 9201 2003      00003        5106          MVI   DX3(RW2),XX01        PARAM=1                             34237021
 0034A4 D201 D1D4 D554 07D6C 080EC  5107          MVC   PLUS2+NX1(LX2),DISPNN        +NN                         34244021
 0034AA 920E D159      07CF1        5108          MVI   XL1+NX1,FPLENS       SET LENGTH FOR SHORT                34251021
 0034AE 9504 D553      080EB        5109          CLI   LENGTH+NX3,XX04             . OR .                       34258021
 0034B2 4780 9286      034BA        5110        BC    EQ,EXHI2A             SKIP NEXT INSTRUCTION                34265021
 0034B6 9217 D159      07CF1        5111          MVI   XL1+NX1,FPLENL        LONG PRECISION                     34272021
 0034BA D200 D553 D159 080EB 07CF1  5112 EXHI2A   MVC   LENGTH+NX3(LX1),XL1+NX1 ADJUST LENGTH FOR LATER USE      34279021
                             034C0  5113 EXHI1A EQU   *                                                          34286021
 0034C0 5020 D148      07CE0        5114        ST    RW2,OP1               SECOND OPERAND DN OR TALLY...        34293021
 0034C4 07FE                        5115        BCR   UNCOND,RETRG          LET MAIN CODE SELECT OP              34300021
                                    5116 * GEN CODING TO PUT QUARTER-BYTE SW'S IN PARAM AREA.                    34307021
 0034C6 50E0 C5C0      073F0        5117 EXHI0B ST    RETRG,SVWJHG                                               34314021
 0034CA 9101 D605      0819D        5118        TM    EXHBSC,MSWON                                               34321021
 0034CE 4710 92BE      034F2        5119         BC   ONES,EXHI1B           GO TO EXHI1B                         34328021
 0034D2 9201 D198      07D30        5120         MVI  XREG1,XRA                                                  34335021
 0034D6 58E0 D558      080F0        5121        L     RETRG,EXHIBP                                               34342021
 0034DA 88E0 0001      00001        5122          SRL   RETRG,DX1            MAKE AN 'ALL CHANGED'               34349021
 0034DE 56E0 D558      080F0        5123        O     RETRG,EXHIBP             BIT PATTERN                       34356021
 0034E2 50E0 D17C      07D14        5124          ST    RETRG,XCON1+NX12                                         34363021
 0034E6 9204 D180      07D18        5125          MVI   XCON1+NX16,XX04                                          34370021
 0034EA 45E0 B000      00E78        5126        BAL   RETRG,LOAD            *    L     XRA,LIT-BP                34377021
 0034EE 47F0 92D0      03504        5127        BC    UNCOND,EXHI3B         AVOID GENERATING THE O INSTR.        34384021
                             034F2  5128 EXHI1B EQU   *                                                          34391021
 0034F2 9201 D198      07D30        5129        MVI   XREG1,XRA                                                  34398021
 0034F6 D203 D17C D558 07D14 080F0  5130          MVC   XCON1+NX12(LX4),EXHIBP                                   34405021
 0034FC 9204 D180      07D18        5131          MVI   XCON1+NX16,XX04                                          34412021
1         EXHIBIT VERB ANALYZER     E  X  H  I  B  I  T                                                         PAGE  112
-  LOC  OBJECT CODE    ADDR1 ADDR2  STMT   SOURCE STATEMENT                                       ASM 0201 11.03 02/14/15
0003500 45E0 BA9C      01914        5132        BAL   RETRG,ORLG            *    O    XRA,LIT-BP                 34419021
                             03504  5133 EXHI3B EQU   *                                                          34426021
 003504 48E0 D56E      08106        5134        LH    RETRG,EXPARC          UP LOCAL PARAM CTR                   34433021
 003508 41EE 0001      00001        5135          LA    RETRG,DX1(RETRG)                                         34440021
 00350C 40E0 D56E      08106        5136        STH   RETRG,EXPARC                                               34447021
 003510 D201 D189 D56E 07D21 08106  5137          MVC   XCNTR1+NX1(LX2),EXPARC                                   34454021
 003516 921C D188      07D20        5138          MVI   XCNTR1,XX1C                                              34461021
 00351A 9201 D198      07D30        5139        MVI   XREG1,XRA                                                  34468021
 00351E 45E0 B040      00EB8        5140        BAL   RETRG,STORE                *         ST    XRA,PARAM       34475021
 003522 58E0 C5C0      073F0        5141          L     RETRG,SVWJHG                                             34482021
 003526 07FE                        5142        BCR   UNCOND,RETRG          RETURN TO CALLER                     34489021
 003528 9601 D605      0819D        5143 EXHB01 OI      EXHBSC,MSWON        SET CHANGED SW                       34496021
 00352C 4144 007C      0007C        5144        LA    RW4,LDOP(RW4)                                              34503021
 003530 4122 007C      0007C        5145        LA      RW2,LDOP(RW2)                                            34510021
 003534 47F0 904A      0327E        5146        BC      UNCOND,EXHB04       GO TO EXHB04                         34517021
 003538 9601 D604      0819C        5147 EXHB02 OI      EXHBSN,MSWON        SET NAMED SW                         34524021
 00353C 4144 007C      0007C        5148        LA    RW4,LDOP(RW4)                                              34531021
 003540 4122 007C      0007C        5149        LA      RW2,LDOP(RW2)                                            34538021
 003544 47F0 9040      03274        5150        BC      UNCOND,EXHB03       GO TO EXHB03                         34545021
1         ON VERB ANALYZER        O  N                                                                          PAGE  113
-  LOC  OBJECT CODE    ADDR1 ADDR2  STMT   SOURCE STATEMENT                                       ASM 0201 11.03 02/14/15
0003548                             5152 IKF50I CSECT                                                            34559021
                                    5153 *=1            ON  VERB                                                 34566021
                                    5154 ****************************                                            34573021
                                    5155 *                                                                       34580021
                                    5156 *      PHASE 5  ON VERB ANALYZER                                        34587021
                                    5157 *                                                                       34594021
                                    5158 *      EXAMPLE...   ON 3 UNTIL 9...ELSE...                              34601021
                                    5159 *      INPUT STRING...   ON 04  3  ZERO  9  LGN                         34608021
                                    5160 ****************************                                            34615021
                             03548  5161        USING   *,GVERB                                                  34622021
                             03548  5162 ON     EQU     *                                                        34629021
 003548 D709 D5F8 D5F8 08190 08190  5163          XC    ONSWIT(LX10),ONSWIT  CLEAR SWITCHES ONESW, ONBSW, ON1    34636021
                                    5164 *                                    ON13SW,ONGFSW,ONSWSW,ONSWNU,ON     34643021
 00354E D501 DDC8 C834 08960 07664  5165          CLC   DOP2(LX2),ONZERO      =FIGCON ZERO...                    34650021
 003554 4770 91F6      0373E        5166        BC      NOTEQ,ON1            TO NORMALIZE I2, PUT IN ADOP2       34657021
 003558 9601 D5FE      08196        5167        OI      ONI2SW,MSWON          SET I2 SW                          34664021
 00355C D501 DE44 C834 089DC 07664  5168 ON1R     CLC   DOP3(LX2),ONZERO     = FIGCON ZERO ...                   34671021
 003562 4770 921A      03762        5169        BC      NOTEQ,ON2            TO NORMALIZE I3, PUT IN ADOP3       34678021
 003566 9601 D5FF      08197        5170        OI      ONI3SW,MSWON          SET I3 SW                          34685021
 00356A 4330 DD4D      088E5        5171 ON2R     IC    RW3,DOP1+NX1         NORMALIZE I1 AND                    34692021
 00356E 4B30 C6B8      074E8        5172        SH    RW3,GTHREE              PUT INTO DOP1                      34699021
 003572 4430 9308      03850        5173        EX    RW3,ONCNV1                ZAP                              34706021
 003576 4F30 D338      07ED0        5174        CVB   RW3,GTEMP                                                  34713021
 00357A 5030 DD4C      088E4        5175        ST    RW3,DOP1                                                   34720021
 00357E D503 DDC8 C3CC 08960 071FC  5176          CLC   DOP2(LX4),FW002                                          34727021
 003584 4770 9058      035A0        5177          BC    NOTEQ,ON3           SKIP  SPECIAL CASES                  34734021
 003588 9101 D5FF      08197        5178          TM    ONI3SW,MSWON                                             34741021
 00358C 4780 9058      035A0        5179          BC    ZERO,ON3            SKIP  SPECIAL CASES                  34748021
 003590 5930 C3CC      071FC        5180          C     RW3,FW002                                                34755021
 003594 4780 9252      0379A        5181          BC    EQ,ON16C            SPECIAL CASE,ON 2 AND EVERY 2        34762021
 003598 5930 C3C8      071F8        5182          C     RW3,FW001                                                34769021
 00359C 4780 9242      0378A        5183          BC    EQ,ON16B            SPECIAL CASE,ON 1 AND EVERY 2        34776021
 0035A0 9101 D5FF      08197        5184 ON3    TM      ONI3SW,MSWON        WAS I3 GIVEN...                      34783021
 0035A4 4710 91AC      036F4        5185        BC      ONES,ON4             NO                                  34790021
 0035A8 5810 DE44      089DC        5186        L       RW1,DOP3            C = I3 - 2                           34797021
 0035AC 5910 DD4C      088E4        5187        C       RW1,DOP1            IS I3 G.T. I1...                     34804021
 0035B0 4720 9078      035C0        5188        BC      HI,ON11              YES, OK                             34811021
 0035B4 5810 DD4C      088E4        5189        L       RW1,DOP1             NO, FORCE I3 = I1 + 1               34818021
 0035B8 4111 0001      00001        5190          LA    RW1,DX1(RW1)                                             34825021
 0035BC 5010 DE44      089DC        5191        ST      RW1,DOP3                                                 34832021
 0035C0 4B10 C3CE      071FE        5192 ON11   SH      RW1,G2                                                   34839021
 0035C4 5010 D54C      080E4        5193        ST      RW1,ONCCON                                               34846021
 0035C8 9101 D5FE      08196        5194        TM      ONI2SW,MSWON        WAS I2 GIVEN...                      34853021
 0035CC 4710 91D0      03718        5195        BC    ONES,ON5               NO                                  34860021
 0035D0 5810 DDC8      08960        5196 ON6    L       RW1,DOP2             YES,                                34867021
 0035D4 4B10 C3CA      071FA        5197        SH      RW1,G1                 B = I2 - 1                        34874021
 0035D8 5010 D548      080E0        5198        ST      RW1,ONBCON                                               34881021
                             035DC  5199 ON7      EQU   *                                                        34888021
 0035DC 45E0 91E8      03730        5200 ON8    BAL     RETRG,ONGETC        GET AN ON-COUNTER                    34895021
 0035E0 4010 D574      0810C        5201        STH     RW1,ONCOUH          SAVE ON-COUNTER HI-LVL               34902021
 0035E4 9201 D198      07D30        5202        MVI     XREG1,XRA           L    XRA,ON-COUNTER-HI               34909021
 0035E8 9208 D188      07D20        5203          MVI   XCNTR1,XX08                                              34916021
 0035EC D201 D189 D574 07D21 0810C  5204          MVC   XCNTR1+NX1(LX2),ONCOUH                                   34923021
 0035F2 45E0 B000      00E78        5205        BAL     RETRG,LOAD          GENERATE LOAD INSTRUCTION            34930021
 0035F6 9101 D5FC      08194        5206        TM      ONESW,MSWON         JUST I3 = 0                          34937021
1         ON VERB ANALYZER        O  N                                                                          PAGE  114
-  LOC  OBJECT CODE    ADDR1 ADDR2  STMT   SOURCE STATEMENT                                       ASM 0201 11.03 02/14/15
00035FA 4710 90E6      0362E        5207        BC      ONES,ON9             YES, ELIM UPPER LIMIT CODING        34944021
 0035FE 9201 D198      07D30        5208        MVI     XREG1,XRA           C   XRA,C      UPPER LIMIT CODIN     34951021
 003602 D203 D17C D54C 07D14 080E4  5209          MVC   XCON1+NX12(LX4),ONCCON                                   34958021
 003608 9204 D180      07D18        5210          MVI   XCON1+NX16,XX04                                          34965021
 00360C 45E0 BA50      018C8        5211        BAL     RETRG,COMP          GENERATE COMPARE INSTRUCTION         34972021
 003610 9601 D600      08198        5212        OI    ONGFSW,MSWON                                               34979021
 003614 D201 D182 DEC1 07D1A 08A59  5213          MVC   XGN1(LX2),DOP4+NX1                                       34986021
 00361A 9202 D198      07D30        5214        MVI   XREG1,XRB                                                  34993021
 00361E 45E0 B000      00E78        5215        BAL   RETRG,LOAD            GENERATE LOAD INSTRUCTION            35000021
 003622 9202 D198      07D30        5216        MVI   XREG1,HI                                                   35007021
 003626 9202 D1E0      07D78        5217        MVI   XREG2,XRB                                                  35014021
 00362A 45E0 BBAE      01A26        5218        BAL     RETRG,BRANCH        GENERATE BRANCH INSTRUCTION          35021021
                                    5219 *                                                                       35028021
 00362E D201 DAA7 D574 0863F 0810C  5220 ON9      MVC   A62CH1(LX2),ONCOUH                                       35035021
 003634 45E0 78D2      008D2        5221        BAL   RETRG,GATXTV          *    LA   XRA,1(XRA)                 35042021
 003638 0470                        5222        DC    AL2(ATXT62-ATXTBV)    *    ST   XRA,ONCTR=HI               35049021
 00363A 000D                        5223        DC    AL2(ZTXT62-ATXT62)    *                                    35056021
 00363C 9101 D5FD      08195        5224        TM    ONBSW,MSWON                                                35063021
 003640 4780 9106      0364E        5225        BC    ZERO,ON13             BRANCH IF ONBSW NOT ON               35070021
 003644 D503 DD4C C7CC 088E4 075FC  5226          CLC   DOP1(LX4),HWDONE                                         35077021
 00364A 4780 700A      0000A        5227        BC    EQ,DON                BRANCH IF EQUAL TO PH5CTL            35084021
                             0364E  5228 ON13   EQU   *                                                          35091021
 00364E D503 DDC8 C3CC 08960 071FC  5229          CLC   DOP2(LX4),FW002      IN THE SPECIAL CASE OF...           35098021
 003654 4770 911A      03662        5230        BC    NOTEQ,ON13A           ON 1 AND EVERY 2 UNTIL ...           35105021
 003658 D503 DD4C C7CC 088E4 075FC  5231          CLC   DOP1(LX4),HWDONE     THERE IS NO NEED TO GENERATE        35112021
 00365E 4780 9242      0378A        5232        BC    EQ,ON16D              THE COMPARE, RATHER USE 16D          35119021
                             03662  5233 ON13A  EQU   *                     SPECIAL CASE CODING.                 35126021
 003662 9201 D198      07D30        5234        MVI     XREG1,XRA           C   XRA,A  (A IS IN ADOP1)           35133021
 003666 D203 D17C DD4C 07D14 088E4  5235          MVC   XCON1+NX12(LX4),DOP1                                     35140021
 00366C 9204 D180      07D18        5236          MVI   XCON1+NX16,XX04                                          35147021
 003670 45E0 BA50      018C8        5237        BAL     RETRG,COMP          GENERATE COMPARE INSTRUCTION         35154021
 003674 D503 DD4C C7CC 088E4 075FC  5238          CLC   DOP1(LX4),HWDONE                                         35161021
 00367A 4780 9146      0368E        5239        BC    EQ,ON12               DO NOT ISSUE IF I1 = 1               35168021
 00367E 45E0 92E6      0382E        5240          BAL   RETRG,ONLGNF        *    L    XRB,GN=F  CONDITIONALL     35175021
 003682 9204 D198      07D30        5241 ON14   MVI   XREG1,LO                                                   35182021
 003686 9202 D1E0      07D78        5242        MVI   XREG2,XRB                                                  35189021
 00368A 45E0 BBAE      01A26        5243        BAL   RETRG,BRANCH     *    BCR  LO,XRB                          35196021
                             0368E  5244 ON12   EQU   *                                                          35203021
 00368E 9101 D5FD      08195        5245        TM      ONBSW,MSWON         WAS 'ON I1' ONLY...                  35210021
 003692 4710 700A      0000A        5246        BC      ONES,DON             YES, ALL DONE                       35217021
 003696 45E0 92E6      0382E        5247          BAL   RETRG,ONLGNF        *    L    XRB,GN=F  CONDITIONALL     35224021
 00369A D503 DDC8 C3CC 08960 071FC  5248          CLC   DOP2(LX4),FW002      IS AND EVERY 2 ...                  35231021
 0036A0 4780 9242      0378A        5249          BC    EQ,ON16D       SPECIAL CASE 'AND EVERY 2'                35238021
 0036A4 45E0 BDD0      01C48        5250          BAL   RETRG,GNSTEP        GET A PHASE 5 GN                     35245021
 0036A8 D201 DAB1 A15E 08649 0015E  5251          MVC   A63CH2(LX2),FIVEGN   STORE IN A-TEXT                     35252021
 0036AE D201 DAD1 A15E 08669 0015E  5252          MVC   A66CH3(LX2),FIVEGN                                       35259021
 0036B4 45E0 91E8      03730        5253          BAL   RETRG,ONGETC        GET AN ON CTR                        35266021
 0036B8 4010 D572      0810A        5254          STH   RW1,ONCOUL          SAVE LO-LEVEL CTR                    35273021
 0036BC D201 DABB D572 08653 0810A  5255          MVC   A63CH1(LX2),ONCOUL   * L 15,GN=Z                         35280021
 0036C2 D201 DACB D572 08663 0810A  5256          MVC   A66CH1(LX2),ONCOUL   *    DESTROY  GPR15                 35287021
 0036C8 D201 DADB D572 08673 0810A  5257          MVC   A66CH2(LX2),ONCOUL   * BCR  EQ,R15                       35294021
 0036CE 45E0 78D2      008D2        5258        BAL   RETRG,GATXTV          *    L    XRA,ONCTR=LO               35301021
 0036D2 047D                        5259        DC    AL2(ATXT63-ATXTBV)    *                                    35308021
 0036D4 0014                        5260        DC    AL2(ZTXT63-ATXT63)    *                                    35315021
 0036D6 9201 D198      07D30        5261        MVI     XREG1,XRA                 C      XRA,B                   35322021
1         ON VERB ANALYZER        O  N                                                                          PAGE  115
-  LOC  OBJECT CODE    ADDR1 ADDR2  STMT   SOURCE STATEMENT                                       ASM 0201 11.03 02/14/15
00036DA D203 D17C D548 07D14 080E0  5262          MVC   XCON1+NX12(LX4),ONBCON                                   35329021
 0036E0 9204 D180      07D18        5263          MVI   XCON1+NX16,XX04                                          35336021
 0036E4 45E0 BA50      018C8        5264        BAL     RETRG,COMP          GENERATE COMPARE INSTRUCTION         35343021
 0036E8 45E0 78D2      008D2        5265        BAL   RETRG,GATXTV          * BCR  EQ,R15                        35350021
 0036EC 0491                        5266        DC    AL2(ATXT66-ATXTBV)    *    LA   XRA,1(XRA)                 35357021
 0036EE 0020                        5267        DC    AL2(ZTXT66-ATXT66)    *    ST   XRA,ONCTR=LO               35364021
                                    5268 *                                  *    BCR  UNCOND,XRB                 35371021
                                    5269 *                                 * GNZ  EQU *                          35378021
                                    5270 *                                  *   SR   XRA,XRA                     35385021
                                    5271 *                                  *    ST   XRA,ONCTR=LO               35392021
 0036F0 47F0 700A      0000A        5272        BC      UNCOND,DON         *** LEAVE ON GENERATOR ***            35399021
 0036F4 9101 D5FE      08196        5273 ON4    TM      ONI2SW,MSWON        IS I2 MISSING                        35406021
 0036F8 4780 91E0      03728        5274        BC      ZERO,ON10            NO                                  35413021
 0036FC 5810 DD4C      088E4        5275        L       RW1,DOP1             YES, ASSUME AN UPPER LIMIT          35420021
 003700 5910 C3C8      071F8        5276        C       RW1,FW001           CHECK FOR ON 1 SPECIAL CASE          35427021
 003704 4780 9232      0377A        5277          BC    EQ,ON16A            ANALYZE SPECIAL CASES                35434021
 003708 4111 0001      00001        5278          LA    RW1,DX1(RW1)          I3 = I1 + 1                        35441021
 00370C 5010 DE44      089DC        5279        ST      RW1,DOP3                                                 35448021
 003710 4B10 C3CE      071FE        5280        SH    RW1,GTWO                                                   35455021
 003714 5010 D54C      080E4        5281        ST    RW1,ONCCON            C = I3 - 2                           35462021
 003718 4110 0001      00001        5282 ON5      LA    RW1,DX1               I2 = 1                             35469021
 00371C 5010 DDC8      08960        5283        ST    RW1,DOP2                                                   35476021
 003720 9601 D5FD      08195        5284        OI      ONBSW,MSWON          SET B SW                            35483021
 003724 47F0 9094      035DC        5285        BC      UNCOND,ON8          NEXT ANALYSIS                        35490021
 003728 9601 D5FC      08194        5286 ON10   OI      ONESW,MSWON                                              35497021
 00372C 47F0 9088      035D0        5287        BC      UNCOND,ON6          NEXT ANALYSIS                        35504021
 003730 4810 A210      00210        5288 ONGETC LH      RW1,ONCTRN          UP ON-COUNTER COUNTER                35511021
 003734 4111 0001      00001        5289          LA    RW1,DX1(RW1)             AND ASSIGN NEW ONE              35518021
 003738 4010 A210      00210        5290        STH     RW1,ONCTRN                IN RW1                         35525021
 00373C 07FE                        5291        BCR     UNCOND,RETRG        RETURN TO CALLER                     35532021
 00373E 4330 DDC9      08961        5292 ON1      IC    RW3,DOP2+NX1         NORMALIZE I2 AND                    35539021
 003742 4B30 C6B8      074E8        5293        SH    RW3,GTHREE              PUT INTO DOP2                      35546021
 003746 4430 930E      03856        5294        EX    RW3,ONCNV2                ZAP                              35553021
 00374A 4F30 D338      07ED0        5295        CVB   RW3,GTEMP                                                  35560021
 00374E 5030 DDC8      08960        5296        ST    RW3,DOP2                                                   35567021
 003752 4930 C3CA      071FA        5297        CH    RW3,XC001                                                  35574021
 003756 4770 9014      0355C        5298        BC    NOTEQ,ON1R            GO THROUGH ON-CODING AGAIN           35581021
 00375A 9601 D5FD      08195        5299        OI    ONBSW,MSWON                                                35588021
 00375E 47F0 9014      0355C        5300        BC      UNCOND,ON1R         GO THROUGH ON-CODING AGAIN           35595021
 003762 4330 DE45      089DD        5301 ON2      IC    RW3,DOP3+NX1         NORMALIZE I3 AND                    35602021
 003766 4B30 C6B8      074E8        5302        SH    RW3,GTHREE              PUT INTO DOP3                      35609021
 00376A 4430 9314      0385C        5303        EX    RW3,ONCNV3                ZAP                              35616021
 00376E 4F30 D338      07ED0        5304        CVB   RW3,GTEMP                                                  35623021
 003772 5030 DE44      089DC        5305        ST    RW3,DOP3                                                   35630021
 003776 47F0 9022      0356A        5306        BC      UNCOND,ON2R         GO THRU ON-CODE W SWITCHES SET       35637021
                                    5307 *  SPECIAL CASES                                                        35644021
 00377A 45E0 92E6      0382E        5308 ON16A    BAL   RETRG,ONLGNF        *    L    XRB,GN=F                   35651021
 00377E 45E0 926E      037B6        5309        BAL   RETRG,ONTSTZ          *    CLI  XSASW,X'01'                35658021
                                    5310 *                                  *    BCR  EQ,XRB                     35665021
 003782 45E0 92DE      03826        5311          BAL   RETRG,ONOISW        *    OI   XSASW,X'01'                35672021
 003786 47F0 700A      0000A        5312          BC    UNCOND,DON     *** LEAVE ON, SP CASE 'A' ***             35679021
                             0378A  5313 ON16D  EQU   *                                                          35686021
 00378A 45E0 92E6      0382E        5314 ON16B    BAL   RETRG,ONLGNF        *    L    XRB,GN=F                   35693021
 00378E 45E0 92DA      03822        5315          BAL   RETRG,ONXISW        *    XI   XSASW,X'01'                35700021
 003792 45E0 9262      037AA        5316        BAL   RETRG,ONTSTO          *    CLI  XSASW,X'01'                35707021
1         ON VERB ANALYZER        O  N                                                                          PAGE  116
-  LOC  OBJECT CODE    ADDR1 ADDR2  STMT   SOURCE STATEMENT                                       ASM 0201 11.03 02/14/15
0                                   5317 *                                  *    BCR  NOTEQ,XRB                  35714021
 003796 47F0 700A      0000A        5318          BC    UNCOND,DON          RETURN TO PH5CTL FOR NEXT ELEM       35721021
 00379A 45E0 92E6      0382E        5319 ON16C    BAL   RETRG,ONLGNF        *    L    XRB,GN=F                   35728021
 00379E 45E0 92DA      03822        5320          BAL   RETRG,ONXISW        *    XI   XSASW,X'01'                35735021
 0037A2 45E0 926E      037B6        5321        BAL   RETRG,ONTSTZ          *    CLI  XSASW,X'01'                35742021
                                    5322 *                                  *    BCR  EQ,XRB                     35749021
 0037A6 47F0 700A      0000A        5323          BC    UNCOND,DON          RETURN TO PH5CTL FOR NEXT ELEM       35756021
 0037AA 90E1 C400      07230        5324 ONTSTO STM   RETRG,RW1,SVWJHE                                           35763021
 0037AE 4110 0007      00007        5325        LA    RW1,NOTEQ                                                  35770021
 0037B2 47F0 9276      037BE        5326          BC    UNCOND,ONTST1       AVOID SECOND ENTRY                   35777021
 0037B6 90E1 C400      07230        5327 ONTSTZ STM   RETRG,RW1,SVWJHE                                           35784021
 0037BA 4110 0008      00008        5328        LA    RW1,EQ                                                     35791021
 0037BE 9101 D601      08199        5329 ONTST1 TM    ONSWSW,MSWON          XSA SW ALREADY RESERVED...           35798021
 0037C2 4710 9292      037DA        5330        BC    ONES,ONTST2                YES                             35805021
 0037C6 48E0 A218      00218        5331          LH    RETRG,XSWCTR         NO, RESERVE ONE                     35812021
 0037CA 9601 D601      08199        5332        OI    ONSWSW,MSWON          INDICATE XSA SW ALREADY FOUND        35819021
 0037CE 41EE 0001      00001        5333          LA    RETRG,DX1(RETRG)                                         35826021
 0037D2 40E0 D5F8      08190        5334        STH   RETRG,ONSWNU                                               35833021
 0037D6 40E0 A218      00218        5335          STH   RETRG,XSWCTR                                             35840021
 0037DA 9228 D188      07D20        5336 ONTST2   MVI   XCNTR1,XX28                                              35847021
 0037DE D201 D189 D5F8 07D21 08190  5337          MVC   XCNTR1+NX1(LX2),ONSWNU                                   35854021
 0037E4 9201 D199      07D31        5338          MVI   IMM,MSWON                                                35861021
 0037E8 9500 D5FA      08192        5339          CLI   ONTYSW,XX00          OI OR XI ...                        35868021
 0037EC 4770 92C2      0380A        5340          BC    NOTEQ,ONTST3         YES                                 35875021
 0037F0 45E0 BAC4      0193C        5341          BAL   RETRG,CLI        NO,*    CLI  XSASW,MSWON                35882021
 0037F4 4210 D198      07D30        5342        STC   RW1,XREG1                                                  35889021
 0037F8 9202 D1E0      07D78        5343          MVI   XREG2,XRB                                                35896021
 0037FC 45E0 BBAE      01A26        5344          BAL   RETRG,BRANCH        *    BCR  EQ,XRB OR NOTEQ,XRB        35903021
 003800 98E1 C400      07230        5345 ONTST4 LM    RETRG,RW1,SVWJHE                                           35910021
 003804 9200 D5FA      08192        5346          MVI   ONTYSW,XX00          RESTORE TYPE SWITCH                 35917021
 003808 07FE                        5347          BCR   UNCOND,RETRG        RETURN TO CALLER                     35924021
 00380A 9501 D5FA      08192        5348 ONTST3   CLI   ONTYSW,XX01          XI...                               35931021
 00380E 4780 92D2      0381A        5349          BC    EQ,ONTST5            YES                                 35938021
 003812 45E0 BACC      01944        5350          BAL   RETRG,OI        NO, *    OI   XSASW,X'01'                35945021
 003816 47F0 92B8      03800        5351          BC    UNCOND,ONTST4       EXIT FROM ROUTINE                    35952021
 00381A 45E0 BAD4      0194C        5352 ONTST5   BAL   RETRG,XI            *    XI   XSASW,X'01'                35959021
 00381E 47F0 92B8      03800        5353        BC    UNCOND,ONTST4         EXIT FROM ROUTINE                    35966021
 003822 9203 D5FA      08192        5354 ONXISW   MVI   ONTYSW,XX03                         (SAVE A BC)          35973021
 003826 9702 D5FA      08192        5355 ONOISW   XI    ONTYSW,XX02          XI = 1, OI = 2                      35980021
 00382A 47F0 926E      037B6        5356          BC    UNCOND,ONTSTZ       BRANCH TO SECOND ENTRY POINT         35987021
 00382E 9101 D600      08198        5357 ONLGNF   TM    ONGFSW,MSWON        L    GNF ALREADY DONE...             35994021
 003832 071E                        5358          BCR   ONES,RETRG           YES, GET OUT                        36001021
 003834 50E0 C400      07230        5359          ST    RETRG,SVWJHE         NO, DO IT                           36008021
 003838 D201 D182 DEC1 07D1A 08A59  5360          MVC   XGN1(LX2),DOP4+NX1                                       36015021
 00383E 9202 D198      07D30        5361          MVI   XREG1,XRB                                                36022021
 003842 45E0 B000      00E78        5362          BAL   RETRG,LOAD          *    L    XRB,GN=F                   36029021
 003846 9601 D600      08198        5363          OI    ONGFSW,MSWON                                             36036021
 00384A 58E0 C400      07230        5364          L     RETRG,SVWJHE                                             36043021
 00384E 07FE                        5365          BCR   UNCOND,RETRG        RETURN TO CALLER                     36050021
 003850 F870 D338 DD50 07ED0 088E8  5366 ONCNV1   ZAP   GTEMP(LX8),DOP1+NX4(LX0) ** EXECUTED INSTRUCTIONS **     36057021
 003856 F870 D338 DDCC 07ED0 08964  5367 ONCNV2   ZAP   GTEMP(LX8),DOP2+NX4(LX0) **EXECUTED INSTRUCTIONS **      36064021
 00385C F870 D338 DE48 07ED0 089E0  5368 ONCNV3   ZAP   GTEMP(LX8),DOP3+NX4(LX0) **EXECUTED INSTRUCTIONS **      36071021
1         TRACE VERB ANALYZER     T  R  A  C  E                                                                 PAGE  117
-  LOC  OBJECT CODE    ADDR1 ADDR2  STMT   SOURCE STATEMENT                                       ASM 0201 11.03 02/14/15
0                                   5370 *=1                              TRACE FOR PN'S                         36085021
                             03862  5371        USING *,GVERB                                                    36092021
                             03862  5372 TRACE  EQU   *                                                          36099021
                                    5373 *******************************************************************     36106021
                                    5374 *   GEN CODE TO TEST OBJECT-TIME TRACE SW AND, IF SET, DISPLAY          36113021
                                    5375 *       CURRENT PN.                                                     36120021
                                    5376 *                                                                       36127021
                                    5377 *      INPUT STRING...   TRACE 01 RPD                                   36134021
                                    5378 *******************************************************************     36141021
 003862 45E0 77CC      007CC        5379        BAL   RETRG,DIBALR          BALR 1,15                            36148021
 003866 9201 D172      07D0A        5380          MVI   XCON1+NX2,XX01       DC   XL2'0001'        SYSOUT        36155021
 00386A 9240 D173      07D0B        5381          MVI   XCON1+NX3,XX40  DC   XL1'40'                             36162021
 00386E 9203 D170      07D08        5382          MVI   XCON1,XX03                                               36169021
 003872 9224 D199      07D31        5383        MVI   GMCTYP,MDC                                                 36176021
 003876 45E0 BD28      01BA0        5384        BAL   RETRG,MACRO           GENERATE MACRO CODING                36183021
 00387A 45E0 BD14      01B8C        5385        BAL   RETRG,PNBCD      DC   XL1' X - 1 '            X=LENGTH     36190021
                                    5386 *                             DC   XLX'PN-IN-BCD...'        OF NAME     36197021
 00387E 47F0 700A      0000A        5387        BC    UNCOND,DON      *** EXIT FROM TRACE ***                    36204021
1         TRACE VERB ANALYZER     T  R  A  C  E                                                                 PAGE  118
-  LOC  OBJECT CODE    ADDR1 ADDR2  STMT   SOURCE STATEMENT                                       ASM 0201 11.03 02/14/15
0                                   5389 *=1            RESET AND READY VERBS                                    36218021
                                    5390 *******************************************************************     36225021
                                    5391 *    R E A D Y,   R E S E T                                             36232021
                                    5392 *      INPUT STRING  READY 00                                           36239021
                                    5393 *                    RESET 00                                           36246021
                             03882  5394        USING   *,GVERB                                                  36253021
                             03882  5395 RESET  EQU     *                                                        36260021
 003882 92BF D199      07D31        5396          MVI   IMM,XXBF                                                 36267021
 003886 9204 D194      07D2C        5397          MVI   GDEBG1,XX04                                              36274021
 00388A 45E0 BADC      01954        5398        BAL   RETRG,NI         NI   TRACES,X'BF'        RESET            36281021
 00388E 47F0 700A      0000A        5399        BC    UNCOND,DON       *** LEAVE RESET ***                       36288021
                             03892  5400        USING   *,GVERB                                                  36295021
                             03892  5401 READY  EQU     *                                                        36302021
 003892 9240 D199      07D31        5402          MVI   IMM,XX40                                                 36309021
 003896 9204 D194      07D2C        5403          MVI   GDEBG1,XX04                                              36316021
 00389A 45E0 BACC      01944        5404        BAL   RETRG,OI              OI   TRACES,X'04'        READY       36323021
 00389E 47F0 700A      0000A        5405        BC      UNCOND,DON        *** LEAVE READY ***                    36330021
1         IKFCBL51: CALL/LINK VERB PROCESSOR C A L L / L I N K                                                  PAGE  119
-  LOC  OBJECT CODE    ADDR1 ADDR2  STMT   SOURCE STATEMENT                                       ASM 0201 11.03 02/14/15
0                                   5407 *=1    ENTER VERB  (CALL OPTION)                                        36344021
                                    5408 *******************************************************************     36351021
                                    5409 *     C A L L,  L I N K         (ENTRY HAS SAME STRUCTURE OF INPUT)     36358021
                                    5410 *                         USES CONTINUED STRINGS                        36365021
                                    5411 *     EXAMPLE...    CALL  'XN' USING OP1 OP2 OP3 OP4.                   36372021
                                    5412 *     INPUT STRING...  CALL 05 FIRST XN OP1 OP2 OP3                     36379021
                                    5413 *                      CALL 02 04  END                                  36386021
                                    5414 *******************************************************************     36393021
                             038A2  5415        USING   *,GVERB                                                  36400021
                             038A2  5416 CALL   EQU     *                                                        36407021
 0038A2 95AA DD4C      088E4        5417        CLI   DOP1,MRGN             CALL GN ...                          36414021
 0038A6 4780 915A      039FC        5418        BC    EQ,CALLGN              YES, SPECIAL CASE, NO VIRTUAL       36421021
 0038AA 9201 C370      071A0        5419          MVI   XSTRSW,XX01         INDICATE BEGINNING OF A STRING       36428021
 0038AE D501 DD4C C828 088E4 07658  5420          CLC   DOP1(LX2),CBFRST     CONTINUATION STRING...              36435021
 0038B4 4770 7804      00804        5421        BC    NOTEQ,NXTSTR           YES, GO BACK TO GETDOP ROUTINE      36442021
 0038B8 9601 D602      0819A        5422        OI      CALLSW,MSWON                                             36449021
 0038BC 1B44                        5423 CALL01 SR    RW4,RW4                                                    36456021
 0038BE 4040 D554      080EC        5424        STH     RW4,DISPNN          OPERAND COUNT = 1                    36463021
 0038C2 4040 D56E      08106        5425        STH   RW4,EXPARC            LOCAL PARAM COUNT INITIALIZED TO     36470021
 0038C6 4140 007C      0007C        5426        LA    RW4,LDOP                                                   36477021
 0038CA 4124 DD4C      088E4        5427        LA    RW2,DOP1(RW4)                                              36484021
 0038CE D209 D5F8 2000 08190 00000  5428          MVC   CALLXN(LX10),DX0(RW2) SAVE XN FOR LATER USEAGE           36491021
 0038D4 45E0 77FA      007FA        5429 CALL02 BAL     RETRG,GETDOP        GET NEXT ELEMENT                     36498021
 0038D8 4124 DD4C      088E4        5430        LA    RW2,DOP1(RW4)                                              36505021
 0038DC D501 2000 C826 00000 07656  5431          CLC   DX0(LX2,RW2),HTERM    TERMINATOR...                      36512021
 0038E2 4780 90C6      03968        5432        BC      EQ,CALL03            YES                                 36519021
 0038E6 9501 C370      071A0        5433          CLI   XSTRSW,XX01       NO.   BEGINNING OF A STRING?           36526021
 0038EA 4770 9050      038F2        5434          BC    NOTEQ,CALL2A       NO                                    36533021
 0038EE 9200 C370      071A0        5435          MVI   XSTRSW,XX00         YES                                  36540021
 0038F2 9201 D198      07D30        5436 CALL2A   MVI   XREG1,XX01                                               36547021
 0038F6 9521 2000      00000        5437          CLI   DX0(RW2),MFN         FN...                               36554021
 0038FA 4770 907C      0391E        5438        BC    NOTEQ,CALL06           NO                                  36561021
 0038FE 91E0 2006      00006        5439          TM    DX6(RW2),XXE0        IS ACCESS METHOD BASIC?             36568021
 003902 4780 9072      03914        5440          BC    ZERO,CALL11         NO - DON'T NEED DECB INFO            36575021
 003906 D200 D18A 2007 07D22 00007  5441          MVC   XCNTR1+NX2(LX1),DX7(RW2) DECB NUMBER                     36582021
 00390C 9214 D188      07D20        5442          MVI   XCNTR1,XX14          PASS DECB CODE                      36589021
 003910 47F0 908A      0392C        5443          BC    UNCOND,CALL07       GENERATE LOAD INSTRUCTION            36596021
 003914 D200 D18A 2005 07D22 00005  5444 CALL11   MVC   XCNTR1+NX2(LX1),DX5(RW2) YES, SET UP FOR FN              36603021
 00391A 47F0 908A      0392C        5445        BC    UNCOND,CALL07         GENERATE LOAD INSTRUCTION            36610021
 00391E 95D0 2000      00000        5446 CALL06   CLI   DX0(RW2),PNREF            RPN?                           36617021
 003922 4770 9092      03934        5447        BC    NOTEQ,CALL08           NO, MUST BE DN OR TALLY             36624021
 003926 D202 D185 2001 07D1D 00001  5448          MVC   XPN1+NX1(LX3),DX1(RW2)                                   36631021
 00392C 45E0 B000      00E78        5449 CALL07 BAL   RETRG,LOAD            *    L    1,RPNADR   OR   1,DCBA     36638021
 003930 47F0 90A4      03946        5450        BC    UNCOND,CALL09         BRANCH AROUND LA INSTRUCTION         36645021
 003934                             5451 CALL08   DS    0H                                                 37330 36652021
 003934 1862                        5452          LR    RW6,RW2                                            37330 36659021
 003936 5020 D148      07CE0        5453          ST    RW2,OP1                                            37330 36666021
 00393A 45E0 BB7C      019F4        5454        BAL   RETRG,LA              *    LA   1,DN                       36673021
 00393E 9102 6007      00007        5455          TM    DX7(RW6),XX02             ANY QRTNS NECESSARY...    7330 36680021
 003942 4710 9182      03A24        5456          BC    ONES,GNRTN                YES                       7330 36687021
                             03946  5457 CALL09 EQU   *                                                          36694021
 003946 921C D188      07D20        5458          MVI   XCNTR1,XX1C                                              36701021
 00394A 48E0 D56E      08106        5459        LH    RETRG,EXPARC                                               36708021
 00394E 41EE 0001      00001        5460          LA    RETRG,DX1(RETRG)     UP LOCAL PARAM CT BY ONE            36715021
 003952 40E0 D56E      08106        5461        STH   RETRG,EXPARC                                               36722021
1         IKFCBL51: CALL/LINK VERB PROCESSOR C A L L / L I N K                                                  PAGE  120
-  LOC  OBJECT CODE    ADDR1 ADDR2  STMT   SOURCE STATEMENT                                       ASM 0201 11.03 02/14/15
0003956 D201 D189 D56E 07D21 08106  5462          MVC   XCNTR1+NX1(LX2),EXPARC                                   36729021
 00395C 9201 D198      07D30        5463          MVI   XREG1,XX01                                               36736021
 003960 45E0 B040      00EB8        5464        BAL     RETRG,STORE         ST   1,PARAMI                        36743021
 003964 47F0 9032      038D4        5465        BC    UNCOND,CALL02         GO GET NEXT OPERAND                  36750021
                             03968  5466 CALL03 EQU   *                                                          36757021
 003968 D501 D56E C38C 08106 071BC  5467          CLC   EXPARC(LX2),GZERO    ANY PARAM'S USED...                 36764021
 00396E 4780 90F2      03994        5468        BC    EQ,CALL10             NO                                   36771021
 003972 921C D188      07D20        5469          MVI   XCNTR1,XX1C                                              36778021
 003976 D201 D189 D56E 07D21 08106  5470          MVC   XCNTR1+NX1(LX2),EXPARC YES, SET HI-ORDER BIT OF LAST O   36785021
 00397C 9280 D199      07D31        5471          MVI   IMM,XX80                                                 36792021
 003980 45E0 BACC      01944        5472        BAL   RETRG,OI              *    OI   PARAM=LAST,X'80'           36799021
 003984 9201 D18A      07D22        5473          MVI   XCNTR1+NX2,XX01                                          36806021
 003988 921C D188      07D20        5474          MVI   XCNTR1,XX1C                                              36813021
 00398C 9201 D198      07D30        5475          MVI   XREG1,XX01                                               36820021
 003990 45E0 BB7C      019F4        5476        BAL   RETRG,LA              *    LA   1,PARAM-1                  36827021
 003994 5830 C778      075A8        5477 CALL10   L   RW3,SPACES                                                 36834021
 003998 D501 D56E C38C 08106 071BC  5478          CLC   EXPARC(LX2),GZERO   ANY PARAMETERS USED...               36841021
 00399E 4770 9108      039AA        5479          BNE   CALL13              YES                                  36848021
 0039A2 45E0 78C6      008C6        5480          BAL   RETRG,GATXTC             *                               36855021
 0039A6 0320                        5481          DC    AL2(ATXT119-ATXTBC)      * SR   1,1                      36862021
 0039A8 0003                        5482          DC    AL2(ZTXT119-ATXT119)     *                               36869021
 0039AA                             5483 CALL13   DS    0H                                                       36876021
 0039AA 5030 D168      07D00        5484        ST      RW3,GVIRT1          PAD VIRT WITH BLANKS                 36883021
 0039AE 5030 D16C      07D04        5485          ST    RW3,GVIRT1+NX4                                           36890021
 0039B2 1B33                        5486        SR      RW3,RW3                                                  36897021
 0039B4 4330 D5F9      08191        5487          IC    RW3,CALLXN+NX1       CHAR COUNT                          36904021
 0039B8 0630                        5488        BCTR  RW3,RW0               REDUCE CHAR COUNT BY ONE             36911021
 0039BA 4430 917C      03A1E        5489        EX      RW3,CALLMV          MOVE IN PROPER NUMBER OF CHAR'S      36918021
 0039BE D201 D166 A162 07CFE 00162  5490          MVC   VIRTC1+NX2(LX2),VIRCTR ASSUME CALL                       36925021
 0039C4 9101 D602      0819A        5491        TM      CALLSW,MSWON                                             36932021
 0039C8 4710 912E      039D0        5492        BC      ONES,CALL04         IF CALL, NOT LINK                    36939021
 0039CC 9201 D165      07CFD        5493          MVI   VIRTC1+NX1,XX01      CHANGE TO LINK                      36946021
 0039D0 920F D198      07D30        5494 CALL04   MVI   XREG1,XX0F                                               36953021
 0039D4 45E0 B000      00E78        5495        BAL     RETRG,LOAD          L    15,ADCON-VIRT-XN                36960021
 0039D8 45E0 78C6      008C6        5496        BAL   RETRG,GATXTC         *  BALR   14,15                       36967021
 0039DC 00C2                        5497        DC    AL2(ATXT55-ATXTBC)   *  STH    15,92(13)                   36974021
 0039DE 0009                        5498        DC    AL2(ZTXT55-ATXT55)      (SAVE RETURN CODE)                 36981021
 0039E0 45E0 7CCC      00CCC        5499        BAL   RETRG,WRKLRG          DESTROY REGISTERS                    36988021
 0039E4 47F0 919E      03A40        5500          B     GENERGN                   LOOP THRU GNCALTBL        7330 36995021
 0039E8                             5501 CALL12   DS    0H                                                 37330 37002021
 0039E8 D501 A22A D56E 0022A 08106  5502          CLC   PARMAX(LX2),EXPARC   IF OLD PARAM CT HIGEST,             37009021
 0039EE 47B0 700A      0000A        5503        BC    NOTLO,DON              *** LEAVE CALL/LINK ***             37016021
 0039F2 D201 A22A D56E 0022A 08106  5504          MVC   PARMAX(LX2),EXPARC   ELSE RELACE BY LOCAL PARAM CT AN    37023021
 0039F8 47F0 700A      0000A        5505        BC      UNCOND,DON        *** LEAVE CALL/LINK ***                37030021
 0039FC D201 D182 DD4D 07D1A 088E5  5506 CALLGN   MVC   XGN1(LX2),DOP1+NX1                                       37037021
 003A02 920F D198      07D30        5507          MVI   XREG1,XX0F                                               37044021
 003A06 45E0 B000      00E78        5508        BAL   RETRG,LOAD            *    L    15,GN-DEBUG-PACKER         37051021
 003A0A 920E D198      07D30        5509          MVI   XREG1,XX0E                                               37058021
 003A0E 920F D1E0      07D78        5510          MVI   XREG2,XX0F                                               37065021
 003A12 45E0 BC18      01A90        5511        BAL   RETRG,BAL             *    BALR 14,15                      37072021
 003A16 45E0 7CCC      00CCC        5512        BAL   RETRG,WRKLRG          DESTROY REGISTERS                    37079021
 003A1A 47F0 700A      0000A        5513        BC    UNCOND,DON            *** LEAVE CALL GN ***                37086021
 003A1E D200 D168 D5FA 07D00 08192  5514 CALLMV   MVC   GVIRT1(LX0),CALLXN+NX2 ** EXECUTED INSTRUCTION **        37093021
1         IKFCBL51: CALL/LINK VERB PROCESSOR C A L L / L I N K                                                  PAGE  121
-  LOC  OBJECT CODE    ADDR1 ADDR2  STMT   SOURCE STATEMENT                                       ASM 0201 11.03 02/14/15
0003A24                             5516 GNRTN    DS    0H                                                 37330 37107021
                                    5517 *      THIS ROUTINE INSERTS AN ENTRY INTO THE GNCALTBL FOR        37330 37114021
                                    5518 *      EVERY OBJECT OF AN ODO WHICH IS USED IN A CALL STATEMENT.  37330 37121021
 003A24 9012 C6E8      07518        5519          STM   RW1,RW2,GNSAVE                                     37330 37128021
 003A28 5810 C740      07570        5520          L     RW1,GNCALPRM                                       37330 37135021
 003A2C 58F0 A130      00130        5521          L     XRVAR,AINSRT                                       37330 37142021
 003A30 05EF                        5522          BALR  RETRG,XRVAR               TAMER - INSERT ENTRY      7330 37149021
                                    5523 *        RW2 HAS ADDRESS OF NEXT TABLE SLOT                       37330 37156021
 003A32 D202 2000 600A 00000 0000A  5524          MVC   DX0(LX3,RW2),DX10(RW6)                             37330 37163021
 003A38 9812 C6E8      07518        5525          LM    RW1,RW2,GNSAVE                                     37330 37170021
 003A3C 47F0 90A4      03946        5526          B     CALL09                    RETURN TO CALLER          7330 37177021
-
 003A40                             5528 GENERGN  DS    0H                                                 37330 37191021
                                    5529 *      THIS ROUTINE GOES THRU GNCALTBL AND BRANCHES TO QRTNS      37330 37198021
                                    5530 *      ARE GENERATED TO UPDATE FIELDS WHICH WERE POSSIBLY CHANGED 37330 37205021
                                    5531 *      IN A SUBPROGRAM.                                           37330 37212021
 003A40 9012 C6E8      07518        5532          STM   RW1,RW2,GNSAVE                                     37330 37219021
 003A44 5810 C740      07570        5533          L     RW1,GNCALPRM        ADDRESS OF TIB                  7330 37226021
 003A48 5811 0000      00000        5534          L     RW1,DX0(RW1)        ADDRESS OF TAMM                 7330 37233021
 003A4C 5010 C6F0      07520        5535          ST    RW1,TAMSAV          SAVE ADDRESS OF TAMM           01041 37240021
 003A50 4821 0004      00004        5536          LH    RW2,DX4(RW1)        LENGTH OF TABLE                 7330 37247021
 003A54 5811 0000      00000        5537          L     RW1,DX0(RW1)        ADDRESS OF TABLE                7330 37254021
 003A58 4111 0000      00000        5538          LA    RW1,DX0(RW1)        CLEAR HIGH-ORDER BYTE           7330 37261021
 003A5C 1A21                        5539          AR    RW2,RW1                                            37330 37268021
 003A5E                             5540 GENERGN1 DS    0H                                                 37330 37275021
 003A5E 1912                        5541          CR    RW1,RW2                   END OF TABLE...           7330 37282021
 003A60 4780 91CE      03A70        5542          BE    GENERGN2                  YES                       7330 37289021
 003A64 45E0 75B0      005B0        5543          BAL   RETRG,LSPR1               NO, CHECK QRTNS           7330 37296021
 003A68 4111 0003      00003        5544          LA    RW1,DX3(RW1)              BUMP POINTER              7330 37303021
 003A6C 47F0 91BC      03A5E        5545          B     GENERGN1                  LOOP THRU AGAIN           7330 37310021
 003A70                             5546 GENERGN2 DS    0H                                                 37330 37317021
 003A70 5810 C6F0      07520        5547          L     RW1,TAMSAV                                         01041 37324021
 003A74 D701 1004 1004 00004 00004  5548          XC    DX4(LX2,RW1),DX4(RW1)   SET TABLE LENGTH TO ZERO   01041 37331021
 003A7A 9812 C6E8      07518        5549          LM    RW1,RW2,GNSAVE                                     37330 37338021
 003A7E 47F0 9146      039E8        5550          B     CALL12                    RETURN TO CALLER          7330 37345021
                             03A82  5551        USING *,GVERB                                                    37352021
                                    5552 *=1    ENTER VERB  (LINK OPTION)                                        37359021
                             03A82  5553 LINKK  EQU   *                                                          37366021
 003A82 D501 DD4C C828 088E4 07658  5554          CLC   DOP1(LX2),CBFRST     CONTINUATION STRING...              37373021
 003A88 4770 7804      00804        5555        BC    NOTEQ,NXTSTR           YES, GO BACK TO GETDOP ROUTINE      37380021
 003A8C 94FE D602      0819A        5556        NI      CALLSW,MSWOFF                                            37387021
 003A90 5890 C248      07078        5557        L       GVERB,ADCALL        USE CALL COMMON CODING               37394021
 003A94 5840 C7BC      075EC        5558        L     RW4,ADCONL          A(CALL01)                              37401021
 003A98 07F4                        5559        BCR   UNCOND,RW4            ENTER COMMON CODE                    37408021
1         IKFCBL51: RETURN VERB ANALYZER  R E T U R N                                                           PAGE  122
-  LOC  OBJECT CODE    ADDR1 ADDR2  STMT   SOURCE STATEMENT                                       ASM 0201 11.03 02/14/15
0                                   5561 *                                                                       37422021
                                    5562 *******************************************************************     37429021
                                    5563 *    R E T U R N                                                        37436021
                                    5564 *                                                                       37443021
                                    5565 *  INPUT STRINGS...(SORT)...RETURN 01 SORT-FILE-NAME                    37450021
                                    5566 *                                                                       37457021
                                    5567 *                 (MOVE - IF RETURN 'INTO')                             37464021
                                    5568 *                                                                       37471021
                                    5569 *                            RETURN 01 GN=NEXT SENTENCE                 37478021
                                    5570 *                                   OR                                  37485021
                                    5571 *                            RETURN 01 END (IF NO AT-END CLAUSE)        37492021
                                    5572 *                                                                       37499021
                                    5573 *                                                                       37506021
                                    5574 *******************************************************************     37513021
                             03A9A  5575        USING   *,GVERB                                                  37520021
 003A9A                             5576 RETURN   DS    0H                                                 42646 37527021
 003A9A 9521 DD4C      088E4        5577        CLI   DOP1,MSFN            FIRST TIME THRU...                    37534021
 003A9E 4770 905C      03AF6        5578        BNE   SORE02               NO, GEN 2ND TIME CODE                 37541021
                                    5579 *                                               GENERATE...             37548021
                                    5580 *                       * L     15,5GN= AT-END ADDR                     37555021
                                    5581 *                       * ST    15,SORTSAVE                             37562021
                                    5582 *                       * L     14,XSA                                  37569021
                                    5583 *                       * BALR 2,14          RETURN TO SORT SR          37576021
                                    5584 *                       * L     15,SORTSAVE  AT-END RET FROM SORT       37583021
                                    5585 *                       * BCR   15,15                                   37590021
                                    5586 *                       * ST    14,XSA       NORMAL RET FROM SORT       37597021
 003AA2 9602 D584      0811C        5587          OI    SORTSW1,SORTRTRN    INDICATE RETURN VERB           42646 37604021
 003AA6 45E0 787A      0087A        5588        BAL   RETRG,SRRXSA          UPDATE XSA TABLE                     37611021
 003AAA D201 DAF2 D5D2 0868A 0816A  5589          MVC   A65CH1(LX2),XSASORT                                42646 37618021
 003AB0 D201 DB0D D5D2 086A5 0816A  5590          MVC   A65CH3(LX2),XSASORT                                42646 37625021
 003AB6 45E0 BDD0      01C48        5591        BAL     RETRG,GNSTEP        BUMP GNCTR BY 1                      37632021
 003ABA D201 DAE1 A15E 08679 0015E  5592          MVC   A65CH2(LX2),FIVEGN                                       37639021
 003AC0 45E0 78D2      008D2        5593        BAL   RETRG,GATXTV          GENERATE                             37646021
 003AC4 04B1                        5594        DC    AL2(ATXT65-ATXTBV)         ATEXT AS                        37653021
 003AC6 0036                        5595        DC    AL2(ZTXT65-ATXT65)           IN HEADING                    37660021
 003AC8 9108 D584      0811C        5596          TM    SORTSW1,SORTVERB    SORT GIVING FILE...            42646 37667021
                                    5597 * IF THIS TEST IS POSITIVE, WE ARE WITHIN A DUMMY OUTPUT PRO-     42646 37674021
                                    5598 * CEDURE FOR A SORT GIVING FILE.                                  42646 37681021
 003ACC 4780 9044      03ADE        5599          BZ    SORE03              NO                             42646 37688021
 003AD0 D201 DB65 D5D4 086FD 0816C  5600          MVC   A68CH1(LX2),XSARTRN YES, INSERT CELL NUMBER        42646 37695021
 003AD6 45E0 78D2      008D2        5601          BAL   RETRG,GATXTV             *                         7882  37702021
 003ADA 0534                        5602          DC    AL2(ATXT68-ATXTBV)       * ST   1,XSA-CELL         7882  37709021
 003ADC 0007                        5603          DC    AL2(ZTXT68-ATXT68)       *                         7882  37716021
 003ADE                             5604 SORE03   DS    0H                                                 7882  37723021
 003ADE 4120 DD4C      088E4        5605        LA    RW2,DOP1              SET UP POINTER TO SFN                37730021
 003AE2 9180 2009      00009        5606          TM    DX9(RW2),SORTSRA    SAME RECORD AREA OPERATIVE...  39847 37737021
 003AE6 4710 9054      03AEE        5607          BO    SORE04              YES DONT STORE BLLS            39847 37744021
 003AEA 45E0 78BC      008BC        5608        BAL   RETRG,IOSTBL          *    ST   1,BL                       37751021
 003AEE                             5609 SORE04   DS    0H                                                 39847 37758021
 003AEE 45E0 7884      00884        5610          BAL   RETRG,IOQRTN        GENERATE QRTN CALLS            39847 37765021
 003AF2 47F0 700A      0000A        5611        B     PH5CTL               END OF FIRST TIME PROCESSING          37772021
                             03AF6  5612 SORE02 EQU   *                                                          37779021
                                    5613 *                                 SECOND TIME THRU                      37786021
 003AF6 D501 DD4C C826 088E4 07656  5614          CLC   DOP1(LX2),HTERM     AT END = NEXT SENTENCE...            37793021
 003AFC 4780 9084      03B1E        5615          BE    SORE01              YES, BYPASS NORMAL RETURN      42646 37800021
1         IKFCBL51: RETURN VERB ANALYZER  R E T U R N                                                           PAGE  123
-  LOC  OBJECT CODE    ADDR1 ADDR2  STMT   SOURCE STATEMENT                                       ASM 0201 11.03 02/14/15
0003B00 D201 D182 DD4D 07D1A 088E5  5616          MVC   XGN1(LX2),DOP1+NX1                                       37807021
 003B06 920F D198      07D30        5617          MVI   XREG1,XX0F                                               37814021
 003B0A 45E0 B000      00E78        5618        BAL   RETRG,LOAD           *    L   15,GN=NEXT SENTENCE          37821021
 003B0E 920F D198      07D30        5619          MVI   XREG1,XX0F                                               37828021
 003B12 920F D1E0      07D78        5620          MVI   XREG2,XX0F                                               37835021
 003B16 45E0 BBAE      01A26        5621        BAL   RETRG,BRANCH          *    BCR  15,15                      37842021
 003B1A 45E0 79AE      009AE        5622          BAL   RETRG,GDES15        DESTROY 15                           37849021
 003B1E D201 D305 DAE1 07E9D 08679  5623 SORE01   MVC   GLGNCN+NX3(LX2),A65CH2                                   37856021
 003B24 45E0 BA24      0189C        5624        BAL   RETRG,GNOPT3          * GN=X  EQU  *                       37863021
 003B28 45E0 7988      00988        5625        BAL   RETRG,GFRRES         RESERVE 14                            37870021
 003B2C 920E D198      07D30        5626          MVI   XREG1,XX0E                                               37877021
 003B30 D201 D189 DAF2 07D21 0868A  5627          MVC   XCNTR1+NX1(LX2),A65CH1                                   37884021
 003B36 9218 D188      07D20        5628          MVI   XCNTR1,XX18                                              37891021
 003B3A 920E D198      07D30        5629          MVI   XREG1,XX0E                                               37898021
 003B3E 45E0 B040      00EB8        5630        BAL   RETRG,STORE           *    ST   14,XSA                     37905021
 003B42 45E0 799E      0099E        5631        BAL   RETRG,GFREE          FREE 14                               37912021
 003B46 94FD D584      0811C        5632          NI    SORTSW1,X'FF'-SORTRTRN   LEAVING RETURN            42646 37919021
 003B4A 47F0 700A      0000A        5633          B     PH5CTL              CONTINUE PROCESSING            42646 37926021
1         IKFCBL51: RELEASE VERB ANALYZER  R E L E A S E                                                        PAGE  124
-  LOC  OBJECT CODE    ADDR1 ADDR2  STMT   SOURCE STATEMENT                                       ASM 0201 11.03 02/14/15
0                                   5635 *=1    RELEASE VERB                                                     37940021
                                    5636 *******************************************************************     37947021
                                    5637 *      R E L E A S E                                                    37954021
                                    5638 *                                                                       37961021
                                    5639 *      INPUT STRING...   RELEASE 00                                     37968021
                                    5640 *******************************************************************     37975021
                             03B4E  5641        USING *,GVERB                                                    37982021
 003B4E                             5642 RELEES   DS    0H                                                 42646 37989021
 003B4E 45E0 7988      00988        5643          BAL   RETRG,GFRRES        RESERVE 14                     42646 37996021
 003B52 9604 D584      0811C        5644          OI    SORTSW1,SORTRLSE    INDICATE RELEASE VERB          42646 38003021
 003B56 45E0 77F0      007F0        5645        BAL   RETRG,CALCLG          CALCULATE LENGTH OF VN/VLC           38010021
 003B5A 4700 0000      00000        5646          NOP   DX0(RW0)            NULL OPERATION                       38017021
 003B5E 9180 D550      080E8        5647          TM    LENGTH,XX80         VLC INDICATED...               42646 38024021
 003B62 4780 9026      03B74        5648          BZ    RELE03              NO, BUT MAY BE VARIABLE        42646 38031021
 003B66 9204 D188      07D20        5649          MVI   XCNTR1,XX04         SET CODE FOR VLC                     38038021
 003B6A D201 D189 D552 07D21 080EA  5650          MVC   XCNTR1+NX1(LX2),LENGTH+NX2 SET VLC NUMBER                38045021
 003B70 47F0 90A2      03BF0        5651          B     RELE02              BYPASS FIXED LENGTH CODE             38052021
 003B74                             5652 RELE03   DS    0H                                                 42646 38059021
 003B74 9108 D584      0811C        5653          TM    SORTSW1,SORTVERB    IS THIS DUMMY OUTPUT PROC...   42646 38066021
 003B78 4780 9098      03BE6        5654          BZ    RELE01              NO, REGULAR INLINE CODE        42646 38073021
                                    5655 *                                                                 42646 38080021
                                    5656 * HERE WE HAVE ESTABLISHED THAT WE ARE WITHIN A DUMMY OUTPUT      42646 38087021
                                    5657 * PROCEDURE, AND WE MUST GENERATE A TEST TO DETERMINE IF WE HAVE  42646 38094021
                                    5658 * VARIABLE OR FIXED LENGTH RECORDS, AND WIND UP WITH REGISTER 3   42646 38101021
                                    5659 * CONTAINING THE APPROPRIATE LENGTH.                              42646 38108021
                                    5660 *                                                                 42646 38115021
 003B7C 45E0 BDD0      01C48        5661          BAL   RETRG,GNSTEP        BUMP GN COUNTER                42646 38122021
 003B80 D201 D5D8 A15E 08170 0015E  5662          MVC   RLSEGN1(LX2),GNCTR  SAVE FIRST GN                  42646 38129021
 003B86 45E0 BDD0      01C48        5663          BAL   RETRG,GNSTEP        BUMP GN COUNTER                42646 38136021
 003B8A D201 D5DA A15E 08172 0015E  5664          MVC   RLSEGN2(LX2),GNCTR  SAVE SECOND GN                 42646 38143021
 003B90 D201 D182 D5D8 07D1A 08170  5665          MVC   XGN1(LX2),RLSEGN1                                  42646 38150021
 003B96 920E D198      07D30        5666          MVI   XREG1,XX0E                                         42646 38157021
 003B9A 45E0 B000      00E78        5667          BAL   RETRG,LOAD          * L    14,GN(FIXED-LENGTH)     42646 38164021
 003B9E D201 D9A1 D5D6 08539 0816E  5668          MVC   A05CH1(LX2),XSARLSE INSERT XSA CELL                42646 38171021
 003BA4 D201 D9AB D5D6 08543 0816E  5669          MVC   A05CH2(LX2),XSARLSE    NUMBERS INTO A-TEXT         42646 38178021
 003BAA 45E0 78D2      008D2        5670          BAL   RETRG,GATXTV        * GENERATE                     42646 38185021
 003BAE 0370                        5671          DC    AL2(ATXT05-ATXTBV)  *    INLINE RECMODE            42646 38192021
 003BB0 0026                        5672          DC    AL2(ZTXT05-ATXT05)  *       TEST                   42646 38199021
 003BB2 9204 D17F      07D17        5673          MVI   XCON1+NX15,XX04                                    42646 38206021
 003BB6 9202 D180      07D18        5674          MVI   XCON1+NX16,XX02                                    42646 38213021
 003BBA 9203 D198      07D30        5675          MVI   XREG1,XX03                                         42646 38220021
 003BBE 45E0 BB5C      019D4        5676          BAL   RETRG,SHALF         SH   3,=H'4'                   42646 38227021
 003BC2 D201 D182 D5DA 07D1A 08172  5677          MVC   XGN1(LX2),RLSEGN2                                  42646 38234021
 003BC8 920E D198      07D30        5678          MVI   XREG1,XX0E                                         42646 38241021
 003BCC 45E0 B000      00E78        5679          BAL   RETRG,LOAD          * L    14,GN(BYPASS-FIXED)     42646 38248021
 003BD0 920F D198      07D30        5680          MVI   XREG1,XX0F                                         42646 38255021
 003BD4 920E D1E0      07D78        5681          MVI   XREG2,XX0E                                         42646 38262021
 003BD8 45E0 BBAE      01A26        5682          BAL   RETRG,BRANCH        * BCR  15,14                   42646 38269021
 003BDC D201 D305 D5D8 07E9D 08170  5683          MVC   GLGNCN+NX3(LX2),RLSEGN1                            42646 38276021
 003BE2 45E0 BA24      0189C        5684          BAL   RETRG,GNOPT3        * GN(FIXED-LENGTH) EQU *       42646 38283021
 003BE6                             5685 RELE01   DS    0H                                                       38290021
 003BE6 9202 D180      07D18        5686          MVI   XCON1+NX16,DX2      SET LITERAL LENGTH                   38297021
 003BEA D201 D17E D552 07D16 080EA  5687          MVC   XCON1+NX14(LX2),LENGTH+NX2    AND VALUE                  38304021
 003BF0                             5688 RELE02   DS    0H                                                       38311021
 003BF0 9203 D198      07D30        5689          MVI   XREG1,XX03                                               38318021
1         IKFCBL51: RELEASE VERB ANALYZER  R E L E A S E                                                        PAGE  125
-  LOC  OBJECT CODE    ADDR1 ADDR2  STMT   SOURCE STATEMENT                                       ASM 0201 11.03 02/14/15
0003BF4 45E0 B000      00E78        5690        BAL   RETRG,LOAD           * L R3,RECORD LENGTH (OR VLC)         38325021
 003BF8 9108 D584      0811C        5691          TM    SORTSW1,SORTVERB    IS THIS DUMMY OUTPUT PROC...   42646 38332021
 003BFC 4780 90C4      03C12        5692          BZ    RELE04              NO                             42646 38339021
 003C00 9180 D550      080E8        5693          TM    LENGTH,XX80         VLC...                               38346021
 003C04 4710 90C4      03C12        5694          BO    RELE04              YES                                  38353021
 003C08 D201 D305 D5DA 07E9D 08172  5695          MVC   GLGNCN+NX3(LX2),RLSEGN2                            42646 38360021
 003C0E 45E0 BA24      0189C        5696          BAL   RETRG,GNOPT3        * GN(BYPASS-FIXED) EQU *       42646 38367021
 003C12                             5697 RELE04   DS    0H                                                 42646 38374021
 003C12 45E0 787A      0087A        5698        BAL   RETRG,SRRXSA          UPDATE XSA TABLE                     38381021
 003C16 45E0 B000      00E78        5699        BAL   RETRG,LOAD            *    L    14,XSA                     38388021
 003C1A 9202 D198      07D30        5700          MVI   XREG1,XX02                                               38395021
 003C1E 920E D1E0      07D78        5701          MVI   XREG2,XX0E                                               38402021
 003C22 45E0 BC18      01A90        5702        BAL   RETRG,BAL             *    BALR 2,14                       38409021
 003C26 45E0 787A      0087A        5703        BAL   RETRG,SRRXSA          UPDATE XSA TABLE                     38416021
 003C2A 45E0 B040      00EB8        5704        BAL   RETRG,STORE           *    ST   14,XSA                     38423021
 003C2E 45E0 799E      0099E        5705        BAL   RETRG,GFREE           GENERATE FREE MACRO                  38430021
 003C32 47F0 700A      0000A        5706          B     PH5CTL              CONTINUE PROCESSING            42646 38437021
1         IKFCBL51: SORT VERB ANALYZER  S O R T                                                                 PAGE  126
-  LOC  OBJECT CODE    ADDR1 ADDR2  STMT   SOURCE STATEMENT                                       ASM 0201 11.03 02/14/15
0                                   5708 *=1    SORT                                                             38451021
                                    5709 *******************************************************************     38458021
                                    5710 *      S O R T   S T A T E M E N T                                      38465021
                                    5711 *                                    USES CONTINUED STRINGS. PERFOR     38472021
                                    5712 *                                    STRINGS ARE INTER-MIXED IF INP     38479021
                                    5713 * EXAMPLE...                         OR OUTPUT PROCEDURES ARE SPECI     38486021
                                    5714 *      SORT S-F-N ASCENDING KEY-1 DESCENDING KEY-2, INPUT PROCEDURE     38493021
                                    5715 *              PN1 THRU PN-2, GIVING F-N.                               38500021
                                    5716 * INPUT STRINGS                                                         38507021
                                    5717 *      SORT  03  FIRST  BCD-NAME  S-F-N                                 38514021
                                    5718 *      SORT  03  ASCENDING  KEY-1  DESCENDING                           38521021
                                    5719 *      SORT  03  KEY-2  ZERO  GIVNG                                     38528021
                                    5720 *      SORT  01  END                                                    38535021
                                    5721 *       (NORMAL PERFORM STRINGS FOR 'PERFORM PN-1 THRU PN-2', PROCE     38542021
                                    5722 *        BY OTHER ANALYZERS)                                            38549021
                                    5723 *                             AND                                       38556021
                                    5724 *       (STRINGS FOR OPEN OUTPUT-FILE, RETURN, WRITE ON                 38563021
                                    5725 *        OUTPUT-FILE, CLOSE OUTPUT-FILE TO BE GENERATED                 38570021
                                    5726 *        IN-LINE)                                                       38577021
                                    5727 *      SORT 01  END                                                     38584021
                                    5728 * NOTE... THE PARAM AREA IS REFERENCED HERE AS BYTE NUMBERS,            38591021
                                    5729 *            WHICH ARE CONVERTED TO A-TEXT CONVENTION I STPARM          38598021
                                    5730 *******************************************************************     38605021
                             03C36  5731        USING   *,GVERB                                                  38612021
 003C36                             5732 SORT     DS    0H                                                 42646 38619021
 003C36 9101 D583      0811B        5733        TM    SORTSW,SINPT         AFTER AN INPUT PROCEDURE              38626021
 003C3A 4710 92F2      03F28        5734        BC    ONES,SORT01            YES                                 38633021
 003C3E 9102 D583      0811B        5735        TM    SORTSW,SOTPT         AFTER AN OUTPUT PROCEDURE             38640021
 003C42 4710 934E      03F84        5736        BC    ONES,SORT02            YES                                 38647021
 003C46 D501 DD4C C828 088E4 07658  5737          CLC   DOP1(LX2),CBFRST     CONTINUATION STRING...              38654021
 003C4C 4770 7804      00804        5738        BC    NOTEQ,NXTSTR           YES, GO BACK TO GETDOP ROUTINE      38661021
                                    5739 *                                 FIRST TIME THRU SORT                  38668021
                                    5740 *                                                                 7882  38675021
 003C50 9608 D584      0811C        5741          OI    SORTSW1,SORTVERB    INDICATE MIDDLE OF SORT        42646 38682021
                                    5742 * TO OTHER ANALYZERS                                              42646 38689021
 003C54 9120 A183      00183        5743          TM    SWITCH+NX1,SORTRTN  DID USER TEST SORT RETURN...         38696021
 003C58 4710 903C      03C72        5744        BO    SORT09               YES                                   38703021
 003C5C 9240 D5A9      08141        5745          MVI   SRTNME,XX40         RESET OBJ TIME MSG PARAMETER         38710021
 003C60 D21E D5AA D5A9 08142 08141  5746          MVC   SRTNME+NX1(LX31),SRTNME                                  38717021
 003C66 1B11                        5747        SR    RW1,RW1                                                    38724021
 003C68 4310 DDC9      08961        5748          IC    RW1,DOP2+NX1                                             38731021
 003C6C 0610                        5749        BCTR  RW1,RW0               DECREASE COUNT BY 1                  38738021
 003C6E 4410 9476      040AC        5750        EX    RW1,BCDMVC           MOVE SORT-FILE-NAME IN BCD TO MSG     38745021
                             03C72  5751 SORT09 EQU   *                                                          38752021
 003C72 4120 DE44      089DC        5752        LA    RW2,DOP3             SET UP POINTER TO SORT FN             38759021
                                    5753 *                                                                       38766021
                                    5754 * INITIALIZE WORK AREAS AND CONTROL CARD FIELDS                         38773021
                                    5755 *                                                                       38780021
 003C76 9680 D583      0811B        5756        OI    SORTSW,SFIRST        SET ON FOR FIRST TIME LOGIC           38787021
 003C7A 9180 2009      00009        5757          TM    DX9(RW2),SORTSRA    SAME RECORD AREA SPECIFIED...  42646 38794021
 003C7E 4780 9050      03C86        5758          BZ    SORT11              NO                              4774 38801021
 003C82 9680 D584      0811C        5759          OI    SORTSW1,SORTSRA     INDICATE SO FOR SORT USE       42646 38808021
 003C86                             5760 SORT11   DS    0H                                                  4774 38815021
 003C86 D20F DEC0 C87C 08A58 076AC  5761          MVC   SBEGIN(LX16),SORLIT                                      38822021
 003C8C 92C6 C872      076A2        5762          MVI   RECLIT+NX13,XCF     SET RECORD TYPE TO F                 38829021
1         IKFCBL51: SORT VERB ANALYZER  S O R T                                                                 PAGE  127
-  LOC  OBJECT CODE    ADDR1 ADDR2  STMT   SOURCE STATEMENT                                       ASM 0201 11.03 02/14/15
0003C90 921D DA6E      08606        5763          MVI   A52CH3,XX1D         SET MIN LITERAL LENGTH, CHANGED      38836021
                                    5764 *                                 IF RECORD TYPE=V                      38843021
 003C94 4130 0010      00010        5765          LA    RW3,DX16                                                 38850021
 003C98 4030 D57A      08112        5766        STH   RW3,SDISPL           INITIALIZE DISPL FOR WK BUFFER        38857021
 003C9C D204 D5E8 2000 08180 00000  5767          MVC   SORSFN(LX5),DX0(RW2) SAVE FOR LATER USE                  38864021
 003CA2 4160 D57E      08116        5768          LA    RW6,SORLG1                                               38871021
 003CA6 D201 D338 2005 07ED0 00005  5769          MVC   GTEMP(LX2),DX5(RW2)  GET MAX RECORD LENGTH               38878021
 003CAC 4850 D338      07ED0        5770        LH    RW5,GTEMP                                                  38885021
 003CB0 9160 2003      00003        5771          TM    DX3(RW2),XX60       FIXED LENGTH RECS...                 38892021
 003CB4 4740 9086      03CBC        5772        BM    SORT26               YES                                   38899021
                                    5773 *                                 SPANNED RECS TREATED AS VARIABLE      38906021
 003CB8 4155 0004      00004        5774 SORT28   LA    RW5,DX4(RW5)        ALLOW FOR CHAR-COUNT WORD            38913021
 003CBC 4E50 D338      07ED0        5775 SORT26 CVD   RW5,GTEMP                                                  38920021
 003CC0 F342 6000 D33D 00000 07ED5  5776          UNPK  DX0(LX5,RW6),GTEMP+NX5(LX3)                              38927021
 003CC6 96F0 6004      00004        5777          OI    DX4(RW6),XXF0       SET SIGN ZONE TO 'F'                 38934021
 003CCA 9160 2003      00003        5778          TM    DX3(RW2),XX60                                            38941021
 003CCE 4740 90BA      03CF0        5779        BM    SORT27               FIXED LENGTH INIT IS DONE             38948021
 003CD2 9110 D583      0811B        5780        TM    SORTSW,SORTVL        HAS MIN LENGTH BEEN PICKED UP..       38955021
 003CD6 4710 90BA      03CF0        5781        BO    SORT27               YES                                   38962021
 003CDA 9610 D583      0811B        5782        OI    SORTSW,SORTVL        INDICATE VARIABLE LENGTH OR           38969021
 003CDE 4160 C898      076C8        5783        LA    RW6,SORLG2           SPANNED RECORDS                       38976021
 003CE2 D201 D338 2007 07ED0 00007  5784          MVC   GTEMP(LX2),DX7(RW2)  PICK UP MINIMUM RECORD LENGTH       38983021
 003CE8 4850 D338      07ED0        5785        LH    RW5,GTEMP                                                  38990021
 003CEC 47F0 9082      03CB8        5786        B     SORT28                PROCESS MIN.RECD.LENGTH              38997021
                             03CF0  5787 SORT27 EQU   *                                                          39004021
 003CF0 4140 00F8      000F8        5788        LA    RW4,LDOP*2                                                 39011021
 003CF4 45E0 77FA      007FA        5789 SORT03 BAL   RETRG,GETDOP          GO TO NEXT OPERAND                   39018021
 003CF8 4124 DD4C      088E4        5790        LA    RW2,DOP1(RW4)                                              39025021
 003CFC 9530 2000      00000        5791          CLI   DX0(RW2),MSDN        BUILD CARDS FOR...                  39032021
 003D00 4780 935A      03F90        5792        BC    EQ,SORT04               SDN                                39039021
 003D04 D501 2000 C81E 00000 0764E  5793          CLC   DX0(LX2,RW2),CBASCD                                      39046021
 003D0A 4770 90E0      03D16        5794        BNE   SORT3A                NOT ASCENDING KEY                    39053021
 003D0E 9640 D583      0811B        5795        OI    SORTSW,SASCEN        ASCENDING KEY                         39060021
 003D12 47F0 90BE      03CF4        5796        B     SORT03                CHECK NEXT OPERAND                   39067021
 003D16 D501 2000 C824 00000 07654  5797 SORT3A   CLC   DX0(LX2,RW2),CBDSCD                                      39074021
 003D1C 4770 90F2      03D28        5798        BNE   SORT3B                NOT DESCENDING KEY                   39081021
 003D20 94BF D583      0811B        5799          NI    SORTSW,X'FF'-SASCEN DESCENDING KEY                 42646 39088021
 003D24 47F0 90BE      03CF4        5800        B     SORT03                CHECK NEXT OPERAND                   39095021
                             03D28  5801 SORT3B EQU   *                                                          39102021
 003D28 D501 2000 C832 00000 07662  5802          CLC   DX0(LX2,RW2),CBUSIN   USING...                           39109021
 003D2E 4780 90FC      03D32        5803        BE    SORT08               YES, CODE GENERATED IN-LINE           39116021
                                    5804 *                                  BY ELIMINATION, INPUT PROCEDURE.     39123021
 003D32 45E0 77FA      007FA        5805 SORT08   BAL   RETRG,GETDOP       GET NEXT DOP                          39130021
 003D36 4124 DD4C      088E4        5806        LA    RW2,DOP1(RW4)                                              39137021
 003D3A D501 2000 C82A 00000 0765A  5807          CLC   DX0(LX2,RW2),CBGIVG   GIVING...                          39144021
 003D40 4780 910E      03D44        5808        BE    SORT10               YES, CODE GEN IN-LINE                 39151021
                             03D44  5809 SORT10 EQU   *                                                          39158021
 003D44 45E0 77FA      007FA        5810 SORT24 BAL   RETRG,GETDOP          SYNCH STRINGS BEFORE PERFORMS        39165021
 003D48 4124 DD4C      088E4        5811        LA    RW2,DOP1(RW4)                                              39172021
 003D4C D501 2000 C826 00000 07656  5812          CLC   DX0(LX2,RW2),HTERM                                       39179021
 003D52 4770 910E      03D44        5813        BC    NOTEQ,SORT24          SEARCH FURTHER FOR TERMINATOR        39186021
                                    5814 *                                                                       39193021
                                    5815 * ALL KEYS FINISHED. FINISH SORT LITERAL                                39200021
                                    5816 *                                                                       39207021
 003D56 4830 D57A      08112        5817        LH    RW3,SDISPL                                                 39214021
1         IKFCBL51: SORT VERB ANALYZER  S O R T                                                                 PAGE  128
-  LOC  OBJECT CODE    ADDR1 ADDR2  STMT   SOURCE STATEMENT                                       ASM 0201 11.03 02/14/15
0003D5A 4163 DEC0      08A58        5818        LA    RW6,SBEGIN(RW3)                                            39221021
 003D5E 9110 A183      00183        5819          TM    SWITCH+NX1,RERUNN   SORT RERUN...                        39228021
 003D62 4780 913E      03D74        5820        BZ    SORT29                NO                                   39235021
 003D66 D206 6000 C88E 00000 076BE  5821          MVC   DX0(LX7,RW6),SCHKPT  * '),CKPT '                         39242021
 003D6C 4133 0005      00005        5822          LA    RW3,DX5(RW3)                                             39249021
 003D70 47F0 9144      03D7A        5823        B     SORT30                BRANCH AROUND RERUN CLOSE            39256021
 003D74 D201 6000 C88C 00000 076BC  5824 SORT29   MVC   DX0(LX2,RW6),SORCL3  * ') '                              39263021
                             03D7A  5825 SORT30 EQU   *                                                          39270021
 003D7A 0630                        5826        BCTR  RW3,RW0               DECREASE COUNT BY 1                  39277021
 003D7C 4230 DA5F      085F7        5827        STC   RW3,A52CH1           SET END OF SRT LIT IN DIRCT ATXT      39284021
                                    5828 *                                 IE DISPL FROM BEG OF SORT LITERAL.    39291021
                                    5829 *                                 R3 IS 2 BYTES LESS THAN THE LNGTH     39298021
                                    5830 *                                 OF DATA IN WORK BUFFER SINCE          39305021
                                    5831 *                                 '34CT' AT BEGIN. OF BUFFER IS         39312021
                                    5832 *                                 NOT PART OF THE ACTUAL LITERAL.       39319021
 003D80 4133 000F      0000F        5833          LA    RW3,DX15(RW3)       ALLOW 15 BYTES WORK SPACE IN         39326021
                                    5834 *                                 PARAMS                                39333021
                                    5835 *                                                                       39340021
                                    5836 * BUILD RECORD LITERAL. MOVE SORT AND RECORD CARD IMAGE                 39347021
                                    5837 * LITERAL TO PARAM CELLS.                                               39354021
                                    5838 *                                                                       39361021
 003D84 4160 DEC2      08A5A        5839          LA    RW6,SBEGIN+NX2      ALLOW FOR 2 EXTRA BYTES IE           39368021
                                    5840 *                                 '34CT' THAT R3 DOESNT ACCOUNT FOR     39375021
 003D88 1A36                        5841        AR    RW3,RW6              RW3 NOW HAS BEG ADDR OF REC LIT       39382021
                                    5842 *                                 IN WORK BUFFER                        39389021
 003D8A 1823                        5843        LR    RW2,RW3              R2 HAS BEG ADDR OF REC LIT            39396021
 003D8C D216 3000 C865 00000 07695  5844          MVC   DX0(LX23,RW3),RECLIT * ' RECORD TYPE=F,LENGTH=('         39403021
 003D92 D204 3017 D57E 00017 08116  5845          MVC   DX23(LX5,RW3),SORLG1 * 'MAX LENGTH'                      39410021
 003D98 4133 001C      0001C        5846          LA    RW3,DX28(RW3)                                            39417021
 003D9C 9110 D583      0811B        5847        TM    SORTSW,SORTVL        VARIABLE LENGTH RECS...               39424021
 003DA0 4780 9180      03DB6        5848        BZ    SORT33               NO                                    39431021
 003DA4 9225 DA6E      08606        5849          MVI   A52CH3,XX25         INCR LITERAL LENGTH COUNT            39438021
 003DA8 92E5 200D      0000D        5850          MVI   DX13(RW2),XCV       CHANGE TYPE TO V                     39445021
 003DAC D207 3000 C895 00000 076C5  5851          MVC   DX0(LX8,RW3),SORCL4 * ',,,MIN LENGTH'                    39452021
 003DB2 4133 0008      00008        5852          LA    RW3,DX8(RW3)                                             39459021
 003DB6 D201 3000 C88C 00000 076BC  5853 SORT33   MVC   DX0(LX2,RW3),SORCL3 * ') '                               39466021
 003DBC 4133 0002      00002        5854          LA    RW3,DX2(RW3)                                             39473021
 003DC0 4160 DEC2      08A5A        5855          LA    RW6,SBEGIN+NX2                                           39480021
 003DC4 1B36                        5856        SR    RW3,RW6              R3 HAS ACTUAL LITERAL LENGTH          39487021
 003DC6 4030 D158      07CF0        5857        STH   RW3,XL1              SET LENGTH FOR MVC                    39494021
 003DCA 4230 DEC1      08A59        5858          STC   RW3,SBEGIN+NX1      SET LENGTH IN LITERAL DEF.           39501021
 003DCE 4120 DEC0      08A58        5859        LA    RW2,SBEGIN                                                 39508021
 003DD2 5020 D148      07CE0        5860        ST    RW2,OP1                                                    39515021
 003DD6 921C D188      07D20        5861          MVI   XCNTR1,XX1C         SET CODE FOR PARAM1                  39522021
 003DDA 9180 D584      0811C        5862          TM    SORTSW1,SORTSRA     SAME RECORD AREA OPERATIVE...  42646 39529021
 003DDE 4780 91B4      03DEA        5863          BZ    SORT34              NO                              4774 39536021
 003DE2 9202 D18A      07D22        5864          MVI   XCNTR1+NX2,XX02     INDICATE PARAM2 CELL            4774 39543021
 003DE6 47F0 91B8      03DEE        5865          B     SORT38              BYPASS OTHER MVI                4774 39550021
 003DEA                             5866 SORT34   DS    0H                                                  4774 39557021
 003DEA 9201 D18A      07D22        5867          MVI   XCNTR1+NX2,XX01     INDICATE PARAM CELL 1           4774 39564021
 003DEE                             5868 SORT38   DS    0H                                                  4774 39571021
 003DEE 45E0 B18C      01004        5869        BAL   RETRG,MVC           * MVC PARAM1(LIT LNGTH),LITERAL        39578021
                                    5870 *                                                                       39585021
 003DF2 4133 0009      00009        5871          LA    RW3,DX9(RW3)        ALLOW 6 BYTES WORK SPACE AFTER       39592021
                                    5872 *                                 REC LIT + 3 TO ALIGN PARAM CELL       39599021
1         IKFCBL51: SORT VERB ANALYZER  S O R T                                                                 PAGE  129
-  LOC  OBJECT CODE    ADDR1 ADDR2  STMT   SOURCE STATEMENT                                       ASM 0201 11.03 02/14/15
0003DF6 8830 0002      00002        5873          SRL   RW3,DX2                                                  39606021
                                    5874 *                                 GET TOTAL NUMB PARAM CELLS USED       39613021
 003DFA 4930 A22A      0022A        5875        CH    RW3,PARMAX                                                 39620021
 003DFE 47D0 91D0      03E06        5876        BNH    SORT35              UP PARMAX IN COMMON IF IT IS          39627021
 003E02 4030 A22A      0022A        5877        STH   RW3,PARMAX           TOO SMALL                             39634021
 003E06 45E0 BDD0      01C48        5878 SORT35 BAL    RETRG,GNSTEP        GET GN= FOR INPUT PROC                39641021
 003E0A D201 D576 A15E 0810E 0015E  5879        MVC   SORGN3,FIVEGN                                              39648021
 003E10 D201 DA73 A15E 0860B 0015E  5880          MVC   A52CH4(LX2),FIVEGN                                       39655021
 003E16 45E0 BDD0      01C48        5881        BAL    RETRG,GNSTEP        GET GN= FOR OUTPUT PROC               39662021
 003E1A D201 D578 A15E 08110 0015E  5882        MVC   SORGN4,FIVEGN                                              39669021
 003E20 D201 DA79 A15E 08611 0015E  5883          MVC   A52CH5(LX2),FIVEGN                                       39676021
                                    5884 * GENERATE CALLING SEQUENCE TO SORT SUBROUTINE (SEE ATXT52)             39683021
 003E26 9180 D584      0811C        5885          TM    SORTSW1,SORTSRA     SAME RECORD AREA OPERATIVE...  42646 39690021
 003E2A 4780 9212      03E48        5886          BZ    SORT36              NO, DONT PUT OUT MVC, LNR       4774 39697021
 003E2E D200 DA4F D5EC 085E7 08184  5887          MVC   A52CH2(LX1),SORSFN+NX4   INSERT FIRST BL NUMBER     4774 39704021
 003E34 9202 DA56      085EE        5888          MVI   A52CH6+NX1,XX02     DENOTE SECOND PARAM CELL        4774 39711021
 003E38 45E0 78D2      008D2        5889          BAL   RETRG,GATXTV        *                               4774 39718021
 003E3C 041A                        5890          DC    AL2(ATXT52A-ATXTBV) * SEE ATEXT CODE LISTINGS       4774 39725021
 003E3E 0035                        5891          DC    AL2(ZTXT52-ATXT52A) *                               4774 39732021
 003E40 9201 DA56      085EE        5892          MVI   A52CH6+NX1,XX01     DENOTE FIRST PARAM CELL         4774 39739021
 003E44 47F0 9222      03E58        5893          B     SORT37              GO TO COMMON CODING             4774 39746021
 003E48                             5894 SORT36   DS    0H                                                  4774 39753021
 003E48 45E0 78D2      008D2        5895          BAL   RETRG,GATXTV        * LA   0,PARAM1                 4774 39760021
 003E4C 0424                        5896          DC    AL2(ATXT52-ATXTBV)  * LR   1,0                      4774 39767021
 003E4E 0016                        5897          DC    AL2(ATXT52B-ATXT52) * LA   1,XXX(1)                 4774 39774021
                                    5898 *                                  * LA   2,15(1)                  4774 39781021
 003E50 45E0 78D2      008D2        5899          BAL   RETRG,GATXTV        * LA   3,YYY(2)                 4774 39788021
 003E54 043D                        5900          DC    AL2(ATXT52C-ATXTBV) * L    4,GN(INPUT PROC)         4774 39795021
 003E56 0012                        5901          DC    AL2(ZTXT52-ATXT52C) * L    5,GN(OUTPUT PROC)        4774 39802021
 003E58                             5902 SORT37   DS    0H                                                  4774 39809021
 003E58 4130 C754      07584        5903        LA    RW3,SORTVI           * L    15,VIRT-SORT SUBR.             39816021
 003E5C 45E0 77DE      007DE        5904        BAL   RETRG,VBALRE         * BALR 14,15                          39823021
 003E60 45E0 BDD0      01C48        5905        BAL   RETRG,GNSTEP          BUMP GNCTR BY 1                      39830021
 003E64 D201 D182 A15E 07D1A 0015E  5906          MVC   XGN1(LX2),FIVEGN                                         39837021
 003E6A D201 D570 A15E 08108 0015E  5907          MVC   DISGND(LX2),FIVEGN  GND DEFINES STATEMENT AFTER SORT     39844021
 003E70 9201 D198      07D30        5908          MVI   XREG1,XX01                                               39851021
 003E74 45E0 B000      00E78        5909        BAL   RETRG,LOAD           * L    R1,GND                         39858021
 003E78 920F D198      07D30        5910          MVI   XREG1,XX0F                                               39865021
 003E7C 9201 D1E0      07D78        5911          MVI   XREG2,XX01                                               39872021
 003E80 45E0 BBAE      01A26        5912        BAL   RETRG,BC             * BCR  UNCOND,R1                      39879021
 003E84 47F0 92B8      03EEE        5913        B     SORT15               GEN CODING BEFORE INPUT PROC          39886021
 003E88 9120 D583      0811B        5914 SORT19 TM    SORTSW,SNDONE        DOES OUTPUT CODING FOLLOW...          39893021
 003E8C 4710 9324      03F5A        5915        BO    SORT16               YES, GO GEN CODE                      39900021
 003E90 45E0 77E6      007E6        5916          BAL   RETRG,DICOA8             * GND EQU *                     39907021
                                    5917 * IF 'SORT-RETURN' CELL IN TGT IS NOT TESTED IN COBOL PGM, GENERATE     39914021
                                    5918 * CODE AFTER EACH SORT TO TEST IT FOR A 0 VALUE. IF VALUE IS NON 0      39921021
                                    5919 * AN OBJECT TIME MSG IS WRITTEN ON THE CONSOLE.                         39928021
 003E94 9120 A183      00183        5920          TM    SWITCH+NX1,SORTRTN  HAS USER TESTED SORT RETURN...       39935021
 003E98 4710 9450      04086        5921        BO    SORTEX               YES, EXIT.                            39942021
 003E9C 45E0 BDD0      01C48        5922        BAL   RETRG,GNSTEP         GET GN E                              39949021
 003EA0 D201 DC7D A15E 08815 0015E  5923        MVC   A115CH1,FIVEGN       * SR  0,0                             39956021
 003EA6 45E0 78D2      008D2        5924        BAL   RETRG,GATXTV         * CH  0,SORT-RETURN                   39963021
 003EAA 0644                        5925        DC    AL2(ATXT115-ATXTBV)  * L   1,GNE                           39970021
 003EAC 0012                        5926        DC    AL2(ZTXT115-ATXT115) * BCR EQUAL,1                         39977021
 003EAE D200 D159 D586 07CF1 0811E  5927          MVC   XL1+NX1(LX1),STLNG   SET MSG LENGTH FOR  MVC             39984021
1         IKFCBL51: SORT VERB ANALYZER  S O R T                                                                 PAGE  130
-  LOC  OBJECT CODE    ADDR1 ADDR2  STMT   SOURCE STATEMENT                                       ASM 0201 11.03 02/14/15
0003EB4 921C D188      07D20        5928          MVI   XCNTR1,XX1C                                              39991021
 003EB8 9201 D18A      07D22        5929          MVI   XCNTR1+NX2,XX01                                          39998021
 003EBC 4100 D585      0811D        5930        LA    RW0,STOMSG                                                 40005021
 003EC0 5000 D148      07CE0        5931        ST    RW0,OP1                                                    40012021
 003EC4 45E0 B18C      01004        5932        BAL   RETRG,MVC            * MVC  PARM1,MESSAGE                  40019021
 003EC8 9201 D198      07D30        5933          MVI   XREG1,XX01                                               40026021
 003ECC 921C D188      07D20        5934          MVI   XCNTR1,XX1C                                              40033021
 003ED0 9201 D18A      07D22        5935          MVI   XCNTR1+NX2,XX01                                          40040021
 003ED4 45E0 BB7C      019F4        5936        BAL   RETRG,LA             * LA   1,PARM1                        40047021
 003ED8 9223 D199      07D31        5937          MVI   IMM,XX23                                                 40054021
 003EDC 45E0 BD5A      01BD2        5938        BAL   RETRG,SVC            * SVC  35                             40061021
 003EE0 D201 D305 A15E 07E9D 0015E  5939          MVC   GLGNCN+NX3(LX2),FIVEGN                                   40068021
 003EE6 45E0 BA24      0189C        5940        BAL   RETRG,GNOPT3         * GNE EQU *                           40075021
 003EEA 47F0 9450      04086        5941        BC    UNCOND,SORTEX         EXIT FROM ROUTINE                    40082021
 003EEE D201 D305 D576 07E9D 0810E  5942 SORT15   MVC   GLGNCN+NX3(LX2),SORGN3                                   40089021
 003EF4 45E0 BA24      0189C        5943        BAL   RETRG,GNOPT3          * GN3 EQU *                          40096021
 003EF8 45E0 7CCC      00CCC        5944        BAL    RETRG,WRKLRG         KILL REGS                            40103021
 003EFC 45E0 7988      00988        5945          BAL   RETRG,GFRRES        GENERATE RESERVE MACRO               40110021
 003F00 9180 D584      0811C        5946          TM    SORTSW1,SORTSRA     SAME RECORD AREA SPECIFIED...  42646 40117021
 003F04 4710 92DC      03F12        5947          BO    SORT17              YES, DO NOT STORE BL'S          4774 40124021
 003F08 1852                        5948        LR    RW5,RW2                                                    40131021
 003F0A 4120 D5E8      08180        5949        LA    RW2,SORSFN                                                 40138021
 003F0E 45E0 78BC      008BC        5950        BAL   RETRG,IOSTBL          *    ST   1,BL                       40145021
 003F12                             5951 SORT17   DS    0H                                                  4774 40152021
 003F12 1825                        5952        LR    RW2,RW5                                                    40159021
 003F14 45E0 787A      0087A        5953        BAL   RETRG,SRRXSA          UPDATE XSA TABLE                     40166021
 003F18 45E0 B040      00EB8        5954        BAL   RETRG,STORE           *    ST   14,XSA                     40173021
 003F1C 45E0 799E      0099E        5955          BAL   RETRG,GFREE         GENERATE FREE MACRO                  40180021
 003F20 9601 D583      0811B        5956        OI    SORTSW,SINPT                                               40187021
 003F24 47F0 700A      0000A        5957          B     PH5CTL              CONTINUE PROCESSING            42646 40194021
 003F28                             5958 SORT01   DS    0H                                                 42646 40201021
 003F28 94FE D583      0811B        5959          NI    SORTSW,X'FF'-SINPT                                 42646 40208021
 003F2C 9620 D583      0811B        5960        OI    SORTSW,SNDONE        INDICATE INPUT CODE DONE              40215021
 003F30                             5961 SORT21   DS    0H                                                 42646 40222021
 003F30 D201 D189 D5D2 07D21 0816A  5962          MVC   XCNTR1+NX1(LX2),XSASORT  INSERT                    42646 40229021
 003F36 9218 D188      07D20        5963          MVI   XCNTR1,XX18                                              40236021
 003F3A 920E D198      07D30        5964          MVI   XREG1,XX0E                                               40243021
 003F3E 45E0 B000      00E78        5965        BAL   RETRG,LOAD            *    L    14,XSA                     40250021
 003F42 920F D198      07D30        5966        MVI   XREG1,UNCOND                                               40257021
 003F46 92E0 D15E      07CF6        5967          MVI   BDISP1,XXE0                                              40264021
 003F4A 9204 D15F      07CF7        5968          MVI   BDISP1+NX1,XX04                                          40271021
 003F4E 45E0 BBAE      01A26        5969        BAL   RETRG,BRANCH          *    BCR  UNCOND,14                  40278021
 003F52 45E0 799E      0099E        5970          BAL   RETRG,GFREE         GENERATE FREE MACRO                  40285021
 003F56 47F0 9252      03E88        5971        BC    UNCOND,SORT19         CHECK FOR OUTPUT CODING              40292021
 003F5A D201 D305 D578 07E9D 08110  5972 SORT16   MVC   GLGNCN+NX3(LX2),SORGN4                                   40299021
 003F60 45E0 BA24      0189C        5973        BAL   RETRG,GNOPT3          * GN4 EQU *                          40306021
 003F64 45E0 7988      00988        5974          BAL   RETRG,GFRRES             * RESERVE 14              51889 40313021
 003F68 45E0 79AE      009AE        5975          BAL   RETRG,GDES15             * DESTROY 15              51889 40320021
 003F6C 45E0 787A      0087A        5976        BAL   RETRG,SRRXSA          UPDATE XSA TABLE                     40327021
 003F70 45E0 B040      00EB8        5977        BAL   RETRG,STORE           *    ST   14,XSA                     40334021
 003F74 9602 D583      0811B        5978        OI    SORTSW,SOTPT                                               40341021
 003F78 45E0 799E      0099E        5979          BAL   RETRG,GFREE              * FREE 14                 51889 40348021
 003F7C 94DF D583      0811B        5980          NI    SORTSW,X'FF'-SNDONE                                42646 40355021
 003F80 47F0 700A      0000A        5981          B     PH5CTL              CONTINUE PROCESSING            42646 40362021
 003F84 45E0 7988      00988        5982 SORT02   BAL   RETRG,GFRRES        BACK FROM PERFORMS                   40369021
1         IKFCBL51: SORT VERB ANALYZER  S O R T                                                                 PAGE  131
-  LOC  OBJECT CODE    ADDR1 ADDR2  STMT   SOURCE STATEMENT                                       ASM 0201 11.03 02/14/15
0003F88 94FD D583      0811B        5983          NI    SORTSW,X'FF'-SOTPT                                 42646 40376021
 003F8C 47F0 92FA      03F30        5984        BC    UNCOND,SORT21         COMMON CODING WITH I/P               40383021
                                    5985 *  SORT04                                                               40390021
                                    5986 *  BUILD SORT KEY ENTRIES IN WORK BUFFER                                40397021
                                    5987 *        ENTRY FOR A KEY-  4 BYTES  OFFSET FROM BEG OF RECORD           40404021
                                    5988 *                          1 BYTE   ,                                   40411021
                                    5989 *                          3 BYTES  KEY LENGTH                          40418021
                                    5990 *                          1 BYTE   ,                                   40425021
                                    5991 *                          2 BYTES  KEY TYPE                            40432021
                                    5992 *                          1 BYTE   ,                                   40439021
                                    5993 *                          1 BYTE   SEQUENCE (ASCEND OR DESCEND)        40446021
                                    5994 *                          1 BYTE   , (ONLY IF ENTRY FOLLOWING)         40453021
                                    5995 *                                                                       40460021
 003F90 45E0 77F0      007F0        5996 SORT04 BAL   RETRG,CALCLG         GET SORT KEY LENGTH IN 'LENGTH'       40467021
 003F94 47F0 700A      0000A        5997        BC    UNCOND,DON            IMPOSSIBLE                           40474021
 003F98 45E0 7814      00814        5998        BAL   RETRG,DDISPM         GET OFFSET IN XCON1+1                 40481021
 003F9C D201 D338 D171 07ED0 07D09  5999          MVC   GTEMP(LX2),XCON1+NX1                                     40488021
 003FA2 D702 D170 D170 07D08 07D08  6000          XC    XCON1(LX3),XCON1                                         40495021
 003FA8 4850 D338      07ED0        6001        LH     RW5,GTEMP                                                 40502021
 003FAC 4155 0001      00001        6002          LA    RW5,DX1(RW5)         CONVERT DISPLACEMENT TO BYTE NUM    40509021
 003FB0 9110 D583      0811B        6003        TM    SORTSW,SORTVL        VARIABLE LENGTH...                    40516021
 003FB4 4780 9386      03FBC        6004        BC    ZERO,SORT0B            NO                                  40523021
 003FB8 4155 0004      00004        6005          LA    RW5,DX4(RW5)          YES, UP BYTE NUMBER BY 4           40530021
                             03FBC  6006 SORT0B EQU   *                                                          40537021
 003FBC 4E50 D338      07ED0        6007        CVD     RW5,GTEMP           CONVERT BYTE NUMBER TO ZD FORMAT     40544021
 003FC0 F332 D338 D33D 07ED0 07ED5  6008          UNPK  GTEMP(LX4),GTEMP+NX5(LX3)                                40551021
 003FC6 4830 D57A      08112        6009        LH    RW3,SDISPL           DISPLACEMENT  INTO WORK BUFFER        40558021
                                    6010 *                                 WHERE CONTROL CARD IMAGES BUILT       40565021
 003FCA 4163 DEC0      08A58        6011        LA    RW6,SBEGIN(RW3)                                            40572021
 003FCE 9180 D583      0811B        6012        TM    SORTSW,SFIRST        IS THIS THE FIRST KEY ENTRY...        40579021
 003FD2 4710 93AC      03FE2        6013        BO    SORT0A               YES                                   40586021
 003FD6 926B 6000      00000        6014          MVI   DX0(RW6),XX6B       NO, DELIMIT LAST KEY ENTRY           40593021
 003FDA 4133 0001      00001        6015          LA    RW3,DX1(RW3)                                             40600021
 003FDE 4166 0001      00001        6016          LA    RW6,DX1(RW6)                                             40607021
 003FE2 D203 6000 D338 00000 07ED0  6017 SORT0A   MVC   DX0(LX4,RW6),GTEMP    DDDD           MAX DISP = 4092     40614021
 003FE8 947F D583      0811B        6018          NI    SORTSW,X'FF'-SFIRST                                42646 40621021
 003FEC 96F0 6003      00003        6019          OI    DX3(RW6),XXF0                                            40628021
 003FF0 926B 6004      00004        6020          MVI   DX4(RW6),XX6B             ,                              40635021
 003FF4 5850 D550      080E8        6021         L    RW5,LENGTH                                                 40642021
 003FF8 4E50 D338      07ED0        6022        CVD   RW5,GTEMP                                                  40649021
 003FFC F321 D338 D33E 07ED0 07ED6  6023          UNPK  GTEMP(LX3),GTEMP+NX6(LX2)                                40656021
 004002 D202 6005 D338 00005 07ED0  6024          MVC   DX5(LX3,RW6),GTEMP         LLL       MAX LENGTH = 255    40663021
 004008 96F0 6007      00007        6025          OI    DX7(RW6),XXF0                                            40670021
 00400C 926B 6008      00008        6026          MVI   DX8(RW6),XX6B                 ,                          40677021
 004010 9507 D5ED      08185        6027          CLI   DIMINR,XX07          BY MINOR...                         40684021
 004014 4740 9416      0404C        6028        BC    LO,SORC0B             CHAR                                 40691021
 004018 9509 D5ED      08185        6029          CLI   DIMINR,XX09                                              40698021
 00401C 4780 9416      0404C        6030        BC    EQ,SORC0B             CHAR                                 40705021
 004020 950A D5ED      08185        6031          CLI   DIMINR,XX0A                                              40712021
 004024 4780 9420      04056        6032        BC    EQ,SORC0D             FL PT                                40719021
 004028 950B D5ED      08185        6033          CLI   DIMINR,XX0B                                              40726021
 00402C 4780 940C      04042        6034        BC    EQ,SORC0E             BINARY                               40733021
 004030 950C D5ED      08185        6035          CLI   DIMINR,XX0C                                              40740021
 004034 4780 942A      04060        6036        BC    EQ,SORC0C             PD                                   40747021
 004038 D201 6009 C836 00009 07666  6037          MVC   DX9(LX2,RW6),SORBZD   ZD                                 40754021
1         IKFCBL51: SORT VERB ANALYZER  S O R T                                                                 PAGE  132
-  LOC  OBJECT CODE    ADDR1 ADDR2  STMT   SOURCE STATEMENT                                       ASM 0201 11.03 02/14/15
000403E 47F0 9430      04066        6038        BC    UNCOND,SORC0F         BRANCH TO COMMON CODING              40761021
 004042 D201 6009 C83E 00009 0766E  6039 SORC0E   MVC   DX9(LX2,RW6),SORBBI                                      40768021
 004048 47F0 9430      04066        6040        BC    UNCOND,SORC0F         BRANCH TO COMMON CODING              40775021
 00404C D201 6009 C838 00009 07668  6041 SORC0B   MVC   DX9(LX2,RW6),SORBCH                                      40782021
 004052 47F0 9430      04066        6042        BC    UNCOND,SORC0F         BRANCH TO COMMON CODING              40789021
 004056 D201 6009 C83A 00009 0766A  6043 SORC0D   MVC   DX9(LX2,RW6),SORBFL                                      40796021
 00405C 47F0 9430      04066        6044        BC    UNCOND,SORC0F         BRANCH TO COMMON CODING              40803021
 004060 D201 6009 C83C 00009 0766C  6045 SORC0C   MVC   DX9(LX2,RW6),SORBPD                                      40810021
 004066 926B 600B      0000B        6046 SORC0F   MVI   DX11(RW6),XX6B                                           40817021
 00406A 92C1 600C      0000C        6047          MVI   DX12(RW6),XCA         ASSUME ASCENDING                   40824021
 00406E 9140 D583      0811B        6048        TM    SORTSW,SASCEN        IS THIS TRUE...                       40831021
 004072 4710 9444      0407A        6049        BO    SORC0G               YES                                   40838021
 004076 92C4 600C      0000C        6050          MVI   DX12(RW6),XCD        CHANGE TO 'D'                       40845021
 00407A 4133 000D      0000D        6051 SORC0G   LA    RW3,DX13(RW3)                                            40852021
 00407E 4030 D57A      08112        6052        STH   RW3,SDISPL           NEW DISPL INTO WORK BUFFER            40859021
 004082 47F0 90BE      03CF4        6053        B     SORT03               GET NEXT OPERAND                      40866021
 004086 45E0 799E      0099E        6054 SORTEX   BAL   RETRG,GFREE        GENERATE FREE MACRO                   40873021
 00408A 4120 D513      080AB        6055        LA    RW2,USCON3           INIT MACRO-LOAD PERM REGS             40880021
 00408E 4130 0002      00002        6056          LA    RW3,DX2                                                  40887021
 004092 45E0 7376      00376        6057          BAL   RETRG,PUTA          WRITE PROC ATXT ELEMENT              40894021
 004096 45E0 79A6      009A6        6058          BAL   RETRG,GDES14      DESTROY 14                             40901021
 00409A 45E0 79AE      009AE        6059          BAL   RETRG,GDES15         DESTROY 15                          40908021
 00409E D706 D57E D57E 08116 08116  6060        XC    SORLG1(SLENGT),SORLG1   ZERO OUT LENGTHS, SORTSW           40915021
 0040A4 9601 D584      0811C        6061          OI    SORTSW1,CELLALOC    RESET ALLOCATION INDICATOR     42646 40922021
 0040A8 47F0 700A      0000A        6062          B     PH5CTL              RETURN FOR NEXT ELEMENT         4774 40929021
 0040AC D200 D5A9 DDCA 08141 08962  6063 BCDMVC   MVC   SRTNME(LX0),DOP2+NX2                                     40936021
1         IKFCBL51: ENTRY VERB ANALYZER  E N T R Y                                                              PAGE  133
-  LOC  OBJECT CODE    ADDR1 ADDR2  STMT   SOURCE STATEMENT                                       ASM 0201 11.03 02/14/15
0                                   6065 *=1    ENTER VERB  (ENTRY OPTION)                                       40950021
                                    6066 *******************************************************************     40957021
                                    6067 *     E N T R Y                                                         40964021
                                    6068 *                INPUT IS SAME FORM AS FOR CALL. SEE CALL               40971021
                                    6069 *                ANALYZER HEADINGS FOR DETAILS.                         40978021
                                    6070 *******************************************************************     40985021
                             040B2  6071        USING   *,GVERB                                                  40992021
                             040B2  6072 ENTRY  EQU     *                                                        40999021
 0040B2 45E0 7988      00988        6073          BAL   RETRG,GFRRES       GENERATE FREE MACRO                   41006021
 0040B6 D501 DD4C C828 088E4 07658  6074          CLC   DOP1(LX2),CBFRST     CONTINUATION STRING...              41013021
 0040BC 4770 7804      00804        6075        BC    NOTEQ,NXTSTR           YES, GO BACK TO GETDOP ROUTINE      41020021
 0040C0 9180 D60C      081A4        6076          TM    ENTSW,FRSTON            FIRST TIME THROUGH...            41027021
 0040C4 4710 905A      0410C        6077          BO    ENTRYC                  NO, BYPASS CODE                  41034021
 0040C8 9680 D60C      081A4        6078          OI    ENTSW,FRSTON            TURN ON FIRST TIME SWITCH        41041021
 0040CC 5830 C778      075A8        6079          L     RW3,SPACES          CLEAR                           1155 41048021
 0040D0 5030 D610      081A8        6080          ST    RW3,ENTRSPAC            COMPARISON                  1155 41055021
 0040D4 5030 D614      081AC        6081          ST    RW3,ENTRSPAC+NX4            AREA                    1155 41062021
 0040D8 4330 DDC9      08961        6082          IC    RW3,DOP2+NX1        GET LENGTH OF VIRTUAL                41069021
 0040DC 0630                        6083          BCTR  RW3,RW0             DECREASE COUNT FOR COMPARE           41076021
 0040DE 4430 917E      04230        6084          EX    RW3,ENTRYMVC        MOVE TO BLANK AREA              1155 41083021
 0040E2 D507 D610 A150 081A8 00150  6085          CLC   ENTRSPAC(LX8),PROGID    COMPARE EPNAME W/ PROGID    1155 41090021
 0040E8 4770 9042      040F4        6086          BNE   ENTRYD              THEY ARE NOT THE SAME                41097021
 0040EC 9602 D60C      081A4        6087          OI    ENTSW,ENTRYGN       INDIC NO GN TO BE GEN'ED             41104021
 0040F0 47F0 905A      0410C        6088          B     ENTRYC              BYPASS GN BRANCH CODING              41111021
 0040F4                             6089 ENTRYD   DS    0H                                                       41118021
 0040F4 45E0 BDD0      01C48        6090          BAL   RETRG,GNSTEP            BUMP GNCTR                       41125021
 0040F8 D201 D8A9 A15E 08441 0015E  6091          MVC   IOTXTII1+NX4(LX2),GNCTR     INSERT GN NO                 41132021
 0040FE D201 D305 A15E 07E9D 0015E  6092          MVC   GLGNCN+NX3(LX2),GNCTR    INTO ATXT CODE                  41139021
 004104 45E0 78D2      008D2        6093          BAL   RETRG,GATXTV            GENERATE                         41146021
 004108 0279                        6094          DC    AL2(IOTXTII1-ATXTBV)    *  L   15,GN-BYPASS              41153021
 00410A 0009                        6095          DC    AL2(IOTXTII2-IOTXTII1)  * BCR 15,15                      41160021
 00410C                             6096 ENTRYC   DS    0H                                                       41167021
 00410C 9204 D199      07D31        6097          MVI   IMM,XX04                                                 41174021
 004110 45E0 BD62      01BDA        6098        BAL   RETRG,CNOP            *    CNOP  0,4                       41181021
 004114 9204 D199      07D31        6099        MVI     GMCTYP,MENTRY                                            41188021
 004118 5830 C778      075A8        6100        L       RW3,SPACES                                               41195021
 00411C 5030 D168      07D00        6101        ST    RW3,GVIRT1                                                 41202021
 004120 5030 D16C      07D04        6102          ST    RW3,GVIRT1+NX4                                           41209021
 004124 1B33                        6103        SR      RW3,RW3                                                  41216021
 004126 4330 DDC9      08961        6104          IC    RW3,DOP2+NX1                                             41223021
 00412A 0630                        6105          BCTR  RW3,RW0            DECREMENT BY ONE                      41230021
 00412C 4430 9178      0422A        6106        EX      RW3,ENTRY1          MOVE BCD REF INTO BCDREF             41237021
 004130 9601 D60C      081A4        6107          OI    ENTSW,MSWON         INDIC UNIQUE ENTRY PT           7898 41244021
 004134 D507 D168 A150 07D00 00150  6108          CLC   GVIRT1(LX8),PROGID                                       41251021
 00413A 4770 9094      04146        6109          BNE   ENTRYB              NO, UNIQUE ENTRY PT             7898 41258021
 00413E 94FE D60C      081A4        6110          NI    ENTSW,MSWOFF        YES, INDIC NON-UNIQUE           7898 41265021
 004142 9680 D0BD      07C55        6111          OI    STRTSW,HIORDON      INDIC AT PROC HEADER            7898 41272021
                             04146  6112 ENTRYB EQU   *                                                          41279021
 004146 45E0 BD28      01BA0        6113        BAL     RETRG,MACRO         ENTRY 'ENTRY-POINT'                  41286021
 00414A 9101 D60C      081A4        6114          TM    ENTSW,XX01                                               41293021
 00414E 4780 90AC      0415E        6115        BZ    ENTRYA               DO NOT GEN CALL TO INIT1              41300021
 004152 94FE D60C      081A4        6116        NI    ENTSW,MSWOFF                                               41307021
 004156 45E0 78C6      008C6        6117          BAL   RETRG,GATXTC        GENERATE A-TEXT                      41314021
 00415A 0081                        6118        DC    AL2(ATXT46-ATXTBC)    *    STM  14,12,12(13)               41321021
 00415C 002C                        6119        DC    AL2(ZTXT46-ATXT46)    *    LR   5,13                       41328021
1         IKFCBL51: ENTRY VERB ANALYZER  E N T R Y                                                              PAGE  134
-  LOC  OBJECT CODE    ADDR1 ADDR2  STMT   SOURCE STATEMENT                                       ASM 0201 11.03 02/14/15
0                                   6120 *                                 *    BALR 15,0                        41335021
                                    6121 *                                 *    BAL  14,8(15)                    41342021
                                    6122 *                                 *    DC   A(INIT1)                    41349021
                                    6123 *                                 *    L    15,0(14)                    41356021
                                    6124 *                                  *    LM   9,15,8(15) .OR. 16(15)     41363021
                                    6125 *                                  * DESTROY 15                         41370021
                                    6126 *                                  *    BALR 14,15                      41377021
                             0415E  6127 ENTRYA EQU   *                                                          41384021
 00415E D501 DE44 C826 089DC 07656  6128          CLC   DOP3(LX2),HTERM      ANY USING...                        41391021
 004164 4780 9160      04212        6129        BC    EQ,ENTRY7              NO                                  41398021
 004168 45E0 78C6      008C6        6130          BAL   RETRG,GATXTC       GENERATE A TEXT                       41405021
 00416C 00AD                        6131        DC    AL2(ATXT47-ATXTBC)    *    L    4,4(13)                    41412021
 00416E 000C                        6132        DC    AL2(ZTXT47-ATXT47)    *    L    4,24(4)                    41419021
 004170 1B33                        6133        SR      RW3,RW3             OPERAND COUNTER                      41426021
 004172 4140 00F8      000F8        6134        LA    RW4,LDOP+LDOP         DISPLACEMENT OF FIRST OPERAND        41433021
 004176 4124 DD4C      088E4        6135 ENTRY3 LA      RW2,DOP1(RW4)                                            41440021
 00417A 9530 2000      00000        6136          CLI   DX0(RW2),MDN                                             41447021
 00417E 4770 9160      04212        6137          BC    NOTEQ,ENTRY7       NOT EQUAL,  GO TO ENTRY7              41454021
 004182 9201 D198      07D30        6138          MVI   XREG1,XX01                                               41461021
 004186 4030 D15E      07CF6        6139        STH   RW3,BDISP1            SET IN PARAM DISPLACEMENT            41468021
 00418A 9640 D15E      07CF6        6140          OI    BDISP1,XX40                                              41475021
 00418E 45E0 B000      00E78        6141        BAL   RETRG,LOAD            *    L    1,0(4) .OR. 4(4), ETC.     41482021
 004192 45E0 77F0      007F0        6142        BAL   RETRG,CALCLG          SET UP LENGTH FOR LATER CHECK        41489021
 004196 4700 0000      00000        6143          NOP   DX0(RW0)            NULL OPERATION                       41496021
 00419A 9180 D550      080E8        6144          TM    LENGTH,XX80         VARIABLE LENGTH                49549 41503021
 00419E 4710 90FE      041B0        6145          BO    ENTRY2              YES                            49549 41510021
 0041A2 5850 D550      080E8        6146          L     RW5,LENGTH          NO, DETERMINE NUMBER           49549 41517021
 0041A6 0650                        6147          BCTR  RW5,RW0                     OF BLL'S               49549 41524021
 0041A8 8850 000C      0000C        6148          SRL   RW5,DX12               TO BE INITIALIZED           49549 41531021
 0041AC 47F0 9108      041BA        6149          B     ENTRY4                   CONTINUE                  49549 41538021
 0041B0                             6150 ENTRY2   DS    0H                                                 49549 41545021
 0041B0 1B55                        6151          SR    RW5,RW5                 DETERMINE NUMBER           49549 41552021
 0041B2 4352 0008      00008        6152          IC    RW5,DX8(RW2)                OF BLL'S               49549 41559021
 0041B6 8850 0004      00004        6153          SRL   RW5,DX4                TO BE INITIALIZED           49549 41566021
 0041BA                             6154 ENTRY4   DS    0H                                                 49549 41573021
 0041BA 4155 0001      00001        6155          LA    RW5,DX1(RW5)        MUST BUMP NUMBER OF            49549 41580021
 0041BE 47F0 912C      041DE        6156          B     ENTRY5                  BLL'S BY ONE               49549 41587021
 0041C2                             6157 ENTRY6   DS    0H                                                 49549 41594021
 0041C2 43E2 0006      00006        6158          IC    RETRG,DX6(RW2)      INCREMENT BLL NUMBER           49549 41601021
 0041C6 41EE 0001      00001        6159          LA    RETRG,DX1(RETRG)                                   49549 41608021
 0041CA 42E2 0006      00006        6160          STC   RETRG,DX6(RW2)                                     49549 41615021
 0041CE 9210 D17E      07D16        6161          MVI   XCON1+NX14,XX10                                    49549 41622021
 0041D2 9202 D180      07D18        6162          MVI   XCON1+NX16,XX02                                    49549 41629021
 0041D6 9201 D198      07D30        6163          MVI   XREG1,XX01                                         49549 41636021
 0041DA 45E0 BA38      018B0        6164          BAL   RETRG,ADD           GEN  AH  1,=H'4096'            49549 41643021
 0041DE                             6165 ENTRY5   DS    0H                                                 49549 41650021
 0041DE 9201 D198      07D30        6166          MVI   XREG1,XX01                                               41657021
 0041E2 45E0 7838      00838        6167        BAL   RETRG,DBLREF          SET UP BLREF1                        41664021
 0041E6 45E0 B040      00EB8        6168        BAL     RETRG,STORE         ST   1,BL=OPERAND                    41671021
 0041EA 45E0 7838      00838        6169          BAL   RETRG,DBLREF       SET UP BLREF1                         41678021
 0041EE 9208 D199      07D31        6170        MVI   GMCTYP,MBLCHG                                              41685021
 0041F2 45E0 BD28      01BA0        6171        BAL   RETRG,MACRO           BLCHNG=BL                            41692021
 0041F6 4650 9110      041C2        6172          BCT   RW5,ENTRY6          LOOP                           49549 41699021
 0041FA 9102 2007      00007        6173          TM    DX7(RW2),XX02       IS Q-BIT ON                          41706021
 0041FE 4780 9154      04206        6174          BZ    ENTRY8              NO                             49549 41713021
1         IKFCBL51: ENTRY VERB ANALYZER  E N T R Y                                                              PAGE  135
-  LOC  OBJECT CODE    ADDR1 ADDR2  STMT   SOURCE STATEMENT                                       ASM 0201 11.03 02/14/15
0004202 45E0 75A2      005A2        6175        BAL   RETRG,LSPRO          GENERATE Q-RTNS                       41720021
 004206                             6176 ENTRY8   DS    0H                                                 49549 41727021
                                    6177 *DEL                                                               4954 41734021
                                    6178 *DEL                                                               4954 41741021
                                    6179 *DEL                                                               4954 41748021
                                    6180 *DEL                                                               4954 41755021
                                    6181 *DEL                                                               4954 41762021
                                    6182 *DEL                                                               4954 41769021
                                    6183 *DEL                                                               4954 41776021
                                    6184 *DEL                                                               4954 41783021
                                    6185 *DEL                                                               4954 41790021
                                    6186 *DEL                                                               4954 41797021
                                    6187 *DEL                                                               4954 41804021
                                    6188 *DEL                                                               4954 41811021
                                    6189 *DEL                                                               4954 41818021
 004206 45E0 77FA      007FA        6190          BAL   RETRG,GETDOP       GET NEXT DOP                          41825021
 00420A 4133 0004      00004        6191          LA    RW3,DX4(RW3)         UP PARAM DISPLACEMENT BY 4          41832021
 00420E 47F0 90C4      04176        6192          B     ENTRY3             BRANCH TO ENTRY3                      41839021
                             04212  6193 ENTRY7 EQU   *                                                          41846021
 004212 45E0 799E      0099E        6194          BAL   RETRG,GFREE        GENERATE FREE MACRO                   41853021
 004216 9102 D60C      081A4        6195          TM    ENTSW,ENTRYGN       IS GN TO BE GEN'ED                   41860021
 00421A 4710 9170      04222        6196          BO    ENTRYE              NO                                   41867021
 00421E 45E0 BA24      0189C        6197          BAL   RETRG,GNOPT3        * GN(BYPASS ENTRY)  EQU  *           41874021
 004222                             6198 ENTRYE   DS    0H                                                       41881021
 004222 947D D60C      081A4        6199          NI    ENTSW,FRSTOFF       TURN OFF FIRST TIME SWITCH           41888021
                                    6200 *                                     AND GN SWITCH (IF ON)             41895021
 004226 47F0 700A      0000A        6201          B     PH5CTL              *** LEAVE ENTRY ***                  41902021
 00422A D200 D168 DDCA 07D00 08962  6202 ENTRY1   MVC   GVIRT1(LX0),DOP2+NX2  *** EXECUTED INSTRUCTION ***       41909021
 004230 D200 D610 DDCA 081A8 08962  6203 ENTRYMVC MVC   ENTRSPAC(LX0),DOP2+NX2  EXECUTED MOVE               1155 41916021
1         IKFCBL51: OPEN/CLOSE VERB ANALYZER O P E N/C L O S E                                                  PAGE  136
-  LOC  OBJECT CODE    ADDR1 ADDR2  STMT   SOURCE STATEMENT                                       ASM 0201 11.03 02/14/15
0004238                             6205 IKF50J CSECT                                                            41930021
                                    6206 *=1          CLOSE VERB            COMMON CODING WITH OPEN              41937021
                                    6207 *******************************************************************     41944021
                                    6208 *       CLOSE INPUT IS SIMILAR TO THAT FOR OPEN.                        41951021
                                    6209 *                                                                       41958021
                                    6210 *******************************************************************     41965021
                             04238  6211        USING *,GVERB                                                    41972021
                             04238  6212 CLOSE  EQU   *                                                          41979021
 004238 9601 D61F      081B7        6213        OI    CLOSSW,MSWON          FLAG AS CLOSE                        41986021
 00423C D501 DD4C C828 088E4 07658  6214          CLC   DOP1(LX2),CBFRST     FIRST TIME THRU...                  41993021
 004242 4770 901E      04256        6215        BC    NOTEQ,CLOS14           NO                                  42000021
 004246 9101 D61A      081B2        6216        TM    OPENSW,MSWON                                               42007021
 00424A 4710 901E      04256        6217        BC    ONES,CLOS14            NO                                  42014021
 00424E 45E0 79A6      009A6        6218          BAL   RETRG,GDES14        DESTROY 14                           42021021
 004252 45E0 79AE      009AE        6219          BAL   RETRG,GDES15        DESTORY 15                           42028021
                             04256  6220 CLOS14 EQU   *                                                          42035021
 004256 5890 C218      07048        6221        L     GVERB,ADCN21          SET UP TO ENTER OPEN ANALYZER        42042021
                             0425E  6222        USING OPEN,GVERB                                                 42049021
 00425A 47F0 9004      04262        6223        BC    UNCOND,CLOSIN         BRANCH TO OPEN RTN                   42056021
1         OPEN VERB PROCESSOR     O  P  E  N                                                                    PAGE  137
-  LOC  OBJECT CODE    ADDR1 ADDR2  STMT   SOURCE STATEMENT                                       ASM 0201 11.03 02/14/15
0                                   6225 *=1          OPEN VERB                                                  42070021
 000000                             6226 OPENGNDS DSECT                                                          42077021
                             00000  6227          USING *,RW3                                                    42084021
 000000                             6228 STDERRGN DS    H                                                        42091021
 000002                             6229 BOFGN    DS    H                                                        42098021
 000004                             6230 EOFGN    DS    H                                                        42105021
 000006                             6231 EOVGN    DS    H                                                        42112021
 000008                             6232 BOVGN    DS    H                                                        42119021
 00425E                             6233 IKF50J CSECT                                                            42126021
                             0425E  6234        USING *,GVERB                                                    42133021
                             0425E  6235 OPEN   EQU   *                                                          42140021
                                    6236 *******************************************************************     42147021
                                    6237 *                                                                       42154021
                                    6238 * INPUT IS TWO IDENTICAL SETS OF STO5 STRINGS, E.G...                   42161021
                                    6239 *                                                                       42168021
                                    6240 *       OPEN05  FN1  FN2 FN3FN4  FN5 OPEN03 FN6 FN7 TERM                42175021
                                    6241 *       OPEN05  FN1  FN2 FN3FN4  FN5 OPEN03 FN6 FN7 TERM                42182021
                                    6242 *                                                                       42189021
                                    6243 *     THE FIRST GENERATES CODING PRIOR TO SVC 19, THE LATTER            42196021
                                    6244 *      THE CODING FOLLOWING SVC 19.                                     42203021
                                    6245 *                                                                       42210021
                                    6246 *******************************************************************     42217021
 00425E 94FE D61F      081B7        6247        NI    CLOSSW,MSWOFF         FLAG AS OPEN                         42224021
                             04262  6248 CLOSIN EQU   *                CLOSE JOINS HERE                          42231021
 004262 9101 D61A      081B2        6249        TM    OPENSW,MSWON          SECOND SET OF STRINGS...             42238021
 004266 4710 970A      04968        6250        BC    ONES,OPEN13            YES                                 42245021
 00426A D501 DD4C C828 088E4 07658  6251          CLC   DOP1(LX2),CBFRST     CONTINUATION STRING...              42252021
 004270 4770 7804      00804        6252        BC    NOTEQ,NXTSTR           YES, GO BACK TO GETDOP ROUTINE      42259021
 004274 92FF D5F4      0818C        6253          MVI   IOCODE,XXFF                                              42266021
 004278 4140 0001      00001        6254          LA    RW4,DX1                                                  42273021
 00427C 4040 D5DE      08176        6255        STH   RW4,IOPARM                                                 42280021
 004280 4140 007C      0007C        6256        LA    RW4,LDOP              BYPASS 'FIRST'                       42287021
 004284 47F0 902E      0428C        6257        BC    UNCOND,OPEN16         SKIP NEXT INST.                      42294021
 004288 45E0 77FA      007FA        6258 OPEN01   BAL   RETRG,GETDOP       GET NEXT DOP                          42301021
 00428C 4124 DD4C      088E4        6259 OPEN16 LA    RW2,DOP1(RW4)                                              42308021
 004290 D501 2000 C826 00000 07656  6260          CLC   DX0(LX2,RW2),HTERM    TERMINATOR...                      42315021
 004296 4780 95CE      0482C        6261        BC    EQ,OPEN02              YES, SET TERMINATOR BIT             42322021
 00429A 45E0 79E4      009E4        6262          BAL   RETRG,SETRECFM      SET RECORDING KODE             50761 42329021
 00429E 95FF D5F4      0818C        6263          CLI   IOCODE,XXFF          FIRST TIME THRU...                  42336021
 0042A2 4780 9074      042D2        6264        BC    EQ,OPEN04              YES, DO NOT ISSUE MVI               42343021
 0042A6 9103 D61F      081B7        6265 OPEN03 TM    CLOSSW,MCLCLR         CLOSE BUT NOT CLOSE REEL...          42350021
 0042AA 4740 9074      042D2        6266        BC    MIXED,OPEN04           NO, CLOSE REEL                      42357021
 0042AE 94FD D61F      081B7        6267        NI    CLOSSW,SSWOFF                                              42364021
 0042B2 D200 D199 D5F4 07D31 0818C  6268          MVC   IMM(LX1),IOCODE                                          42371021
 0042B8 9240 D188      07D20        6269          MVI   XCNTR1,XX40                                              42378021
 0042BC D201 D189 D5DE 07D21 08176  6270          MVC   XCNTR1+NX1(LX2),IOPARM                                   42385021
 0042C2 45E0 BABC      01934        6271        BAL   RETRG,MVI             *    MVI  PARAM=1,X'CODE'            42392021
 0042C6 48E0 D5DE      08176        6272        LH    RETRG,IOPARM                                               42399021
 0042CA 41EE 0001      00001        6273          LA    RETRG,DX1(RETRG)                                         42406021
 0042CE 40E0 D5DE      08176        6274        STH   RETRG,IOPARM          UP PARAMETER BY ONE                  42413021
 0042D2 D501 2000 C826 00000 07656  6275 OPEN04   CLC   DX0(LX2,RW2),HTERM                                       42420021
 0042D8 4780 96CE      0492C        6276        BC    EQ,OPEN07             IF END,  GO TO OPEN07                42427021
 0042DC 9101 D61F      081B7        6277        TM    CLOSSW,MSWON          CLOSE...                             42434021
 0042E0 4710 908E      042EC        6278        BC    ONES,CLOS04            YES                                 42441021
 0042E4 9120 2006      00006        6279          TM    DX6(RW2),XX20        BISAM OPEN                          42448021
1         OPEN VERB PROCESSOR     O  P  E  N                                                                    PAGE  138
-  LOC  OBJECT CODE    ADDR1 ADDR2  STMT   SOURCE STATEMENT                                       ASM 0201 11.03 02/14/15
00042E8 4710 95D6      04834        6280        BC    ONES,OPEN05            YES                                 42455021
                             042EC  6281 CLOS04 EQU   *                                                          42462021
 0042EC 91E0 2006      00006        6282          TM    DX6(RW2),MNOQQI      QSAM OR QISAM FILE...               42469021
 0042F0 4780 9624      04882        6283        BC    ZERO,OPEN06            YES                                 42476021
                             042F4  6284 OPEN08   EQU   *                                                        42483021
 0042F4 9180 2002      00002        6285          TM    DX2(RW2),MCLREL          CLOSE REEL                      42490021
 0042F8 47E0 90BA      04318        6286          BC    NOTONE,OPEN08A          NO                               42497021
 0042FC D200 D8A4 2005 0843C 00005  6287          MVC   IOTXTGG2(LX1),DX5(RW2)                                   42504021
 004302 D200 D897 2002 0842F 00002  6288          MVC   IOTXTGG1(LX1),DX2(RW2)                                   42511021
 004308 947F D897      0842F        6289          NI    IOTXTGG1,XX7F                                            42518021
 00430C 45E0 78D2      008D2        6290          BAL   RETRG,GATXTV            *  LA  1,CODE                    42525021
 004310 0266                        6291          DC    AL2(IOTXTGG-ATXTBV)     *  SLL  1,24                     42532021
 004312 0013                        6292          DC    AL2(IOTXTHH-IOTXTGG)    *  O  1,DCBADR                   42539021
 004314 47F0 94C2      04720        6293          B     EOVCLOSE            CLOSE REEL RTN                       42546021
                             04318  6294 OPEN08A  EQU   *                                                        42553021
 004318 9201 D198      07D30        6295          MVI   XREG1,XX01                                               42560021
 00431C D200 D18A 2005 07D22 00005  6296          MVC   XCNTR1+NX2(LX1),DX5(RW2)                                 42567021
 004322 45E0 B000      00E78        6297        BAL   RETRG,LOAD            *    L    1,DCBADR=CURRENT FN        42574021
 004326 9101 D61F      081B7        6298          TM    CLOSSW,MSWON            CLOSE?                           42581021
 00432A 47E0 9110      0436E        6299          BNO   OPEN08C                 NO                               42588021
 00432E 9128 2006      00006        6300          TM    DX6(RW2),MBISAM+NX8      BISAM AND REORGANIZATION?       42595021
 004332 47E0 94C2      04720        6301          BNO   EOVCLOSE                NO                               42602021
 004336 D202 9B0E 200B 04D6C 0000B  6302          MVC   REORGDN+NX4(LX3),DX11(RW2) INIT REORG DN WITH IDK        42609021
 00433C 1B55                        6303          SR    RW5,RW5                                                  42616021
 00433E 4110 9B0A      04D68        6304          LA    RW1,REORGDN             POINT TO DUMMY DATANAME          42623021
 004342 45E0 9AF4      04D52        6305          BAL   RETRG,REORGEN           INIT ATXT GENATR FIELDS          42630021
 004346 92E0 D1A7      07D3F        6306          MVI   BDISP2+NX1,XXE0                                          42637021
 00434A 9202 D159      07CF1        6307          MVI   XL1+NX1,XX02                                             42644021
 00434E 45E0 B18C      01004        6308          BAL   RETRG,MVC               *  MVC  DN(2),224(1)             42651021
 004352 45E0 9AF4      04D52        6309          BAL   RETRG,REORGEN       TO PUT VALUES IN A TEXT              42658021
 004356 92CE D1A7      07D3F        6310          MVI   BDISP2+NX1,XXCE                                          42665021
 00435A 45E0 B18C      01004        6311          BAL   RETRG,MVC               *  MVC  DN+2(2),206(1)           42672021
 00435E 45E0 9AF4      04D52        6312          BAL   RETRG,REORGEN       TO PUT VALUES IN A TEXT              42679021
 004362 9298 D1A7      07D3F        6313          MVI   BDISP2+NX1,XX98                                          42686021
 004366 45E0 B18C      01004        6314          BAL   RETRG,MVC               *  MVC  DN+4(4),152(1)           42693021
 00436A 47F0 94C2      04720        6315          B     EOVCLOSE            CLOSE REEL RTN                       42700021
 00436E                             6316 OPEN08C  DS    0H                                                       42707021
 00436E 4710 94C2      04720        6317          BC    ONES,EOVCLOSE            YES                             42714021
 004372 91F0 2006      00006        6318          TM    DX6(RW2),XXF0       QSAM?                                42721021
 004376 4770 9144      043A2        6319          BNZ   OPEN08E            NO                                    42728021
 00437A 9160 2003      00003        6320          TM    DX3(RW2),XX60       MODE S?                              42735021
 00437E 47E0 9144      043A2        6321          BNO   OPEN08E            NO                                    42742021
 004382 910C 200A      0000A        6322          TM    DX10(RW2),XX0C      SA OR SRA?                           42749021
 004386 4780 9144      043A2        6323          BZ    OPEN08E            NO                                    42756021
 00438A 9200 DD02      0889A        6324          MVI   ZB1CHNG,XX00        YES                                  42763021
 00438E 9108 200A      0000A        6325          TM    DX10(RW2),XX08      SRA?                                 42770021
 004392 4780 913C      0439A        6326          BZ    OPEN08D            NO                                    42777021
 004396 9240 DD02      0889A        6327          MVI   ZB1CHNG,XX40        YES                                  42784021
 00439A 45E0 78D2      008D2        6328 OPEN08D  BAL   RETRG,GATXTV       PUT A TEXT                            42791021
 00439E 06CE                        6329          DC    AL2(IOTXTZB1-ATXTBV)                                     42798021
 0043A0 000C                        6330          DC    AL2(IOTXTZB2-IOTXTZB1)                                   42805021
 0043A2                             6331 OPEN08E  DS    0H                                                       42812021
 0043A2 4110 9B15      04D73        6332          LA    RW1,MACRTABL            VALUES OF DCBMACR FIELD BY       42819021
                                    6333 *                                      ACCESS METHOD AND OPEN OPTION    42826021
 0043A6 910E 2002      00002        6334          TM    DX2(RW2),XX0E            OPEN OPTION                     42833021
1         OPEN VERB PROCESSOR     O  P  E  N                                                                    PAGE  139
-  LOC  OBJECT CODE    ADDR1 ADDR2  STMT   SOURCE STATEMENT                                       ASM 0201 11.03 02/14/15
00043AA 4780 915C      043BA        6335          BZ    OPEN50                  INPUT                            42840021
 0043AE 4111 000A      0000A        6336          LA    RW1,DX10(RW1)                                            42847021
 0043B2 4710 915C      043BA        6337          BO    OPEN50                  OUTPUT                           42854021
 0043B6 4111 000A      0000A        6338          LA    RW1,DX10(RW1)            I/O                             42861021
 0043BA                             6339 OPEN50   DS    0H                                                       42868021
 0043BA 4160 0004      00004        6340          LA    RW6,DX4                                                  42875021
 0043BE 4352 0006      00006        6341          IC    RW5,DX6(RW2)             ACCESS METHOD                   42882021
 0043C2 8950 0017      00017        6342          SLL   RW5,DX23                                                 42889021
 0043C6                             6343 OPEN51   DS    0H                                                       42896021
 0043C6 8950 0001      00001        6344          SLL   RW5,DX1                                                  42903021
 0043CA 1255                        6345          LTR   RW5,RW5                 IS BIT 31 A ONE?                 42910021
 0043CC 4740 9176      043D4        6346          BL    OPEN52                  YES, REGISTER RW1 NOW HAS        42917021
                                    6347 *                       DISPLACEMENT DEPENDING ON ACCESS METHOD         42924021
 0043D0 4660 9168      043C6        6348          BCT   RW6,OPEN51              NOT 1, SUBTRACT 1 AND TRY AGAIN  42931021
 0043D4                             6349 OPEN52   DS    0H                                                       42938021
 0043D4 8960 0001      00001        6350          SLL   RW6,DX1                  MULTIPLY BY 2                   42945021
 0043D8 1A16                        6351          AR    RW1,RW6                 OPN OPTN + ACCESS METH DISPLACEM 42952021
 0043DA D201 D1C6 1000 07D5E 00000  6352          MVC   XCON2+NX14(LX2),DX0(RW1)  MOVE VALUE FROM TABLE          42959021
 0043E0 9202 D1C8      07D60        6353          MVI   XCON2+NX16,XX02          LENGTH IS 2                     42966021
 0043E4 9202 D159      07CF1        6354          MVI   XL1+NX1,XX02             DITTO                           42973021
 0043E8 9210 D15E      07CF6        6355          MVI   BDISP1,XX10              REGISTER1                       42980021
 0043EC 9232 D15F      07CF7        6356          MVI   BDISP1+NX1,XX32          DCB+50                          42987021
 0043F0 9184 2006      00006        6357          TM    DX6(RW2),XX84            BDAM DIRECT                     42994021
 0043F4 47E0 91B2      04410        6358          BNO   OPEN55                  NO, WE HAVE ASSUMED RELATIVE     43001021
 0043F8 910F 2002      00002        6359          TM    DX2(RW2),XX0F            OUTPUT?                         43008021
 0043FC 4710 91A6      04404        6360          BO    OPEN52A                 YES                              43015021
 004400 9718 D1C6      07D5E        6361          XI    XCON2+NX14,XX18          CHANGE TO DIRECT                43022021
 004404                             6362 OPEN52A  DS    0H                                                       43029021
 004404 910E 2002      00002        6363          TM    DX2(RW2),XX0E            INPUT?                          43036021
 004408 4780 91B2      04410        6364          BZ    OPEN52B                 YES                              43043021
 00440C 9718 D1C7      07D5F        6365          XI    XCON2+NX15,XX18          CHANGE TO DIRECT                43050021
 004410                             6366 OPEN52B  DS    0H                                                       43057021
 004410                             6367 OPEN55   DS    0H                                                       43064021
 004410 9160 2003      00003        6368          TM    DX3(RW2),XX60        SPANNED?                            43071021
 004414 47E0 91E2      04440        6369          BNO   OPEN56             NO.                                   43078021
 004418 9184 2006      00006        6370          TM    DX6(RW2),XX84       BDAM DIRECT?                         43085021
 00441C 47E0 91CE      0442C        6371          BNO   OPEN55B            NO.                                   43092021
 004420 9104 200A      0000A        6372          TM    DX10(RW2),XX04      SA?                                  43099021
 004424 47E0 91E2      04440        6373          BNO   OPEN56             NO.                                   43106021
 004428 47F0 91DE      0443C        6374          B     OPEN55C            BRANCH TO OPEN55C                     43113021
 00442C 9144 2006      00006        6375 OPEN55B  TM    DX6(RW2),XX44       BSAM DIRECT?                         43120021
 004430 47E0 91E2      04440        6376          BNO   OPEN56             NO.                                   43127021
 004434 910F 2002      00002        6377          TM    DX2(RW2),XX0F       OUTPUT?                              43134021
 004438 47E0 91E2      04440        6378          BNO   OPEN56             NO.                                   43141021
 00443C 9601 D1C7      07D5F        6379 OPEN55C  OI    XCON2+NX15,XX01     SEG-WK SUPPLIED BY COBOL.            43148021
 004440                             6380 OPEN56   DS    0H                                                       43155021
 004440 9118 2006      00006        6381          TM    DX6(RW2),XX18            QISAM WITH START                43162021
 004444 47E0 91F2      04450        6382          BNO   OPEN53                  NO                               43169021
 004448 9682 D1C7      07D5F        6383          OI    XCON2+NX15,XX82          YES, SET ONE SETL BITS          43176021
 00444C 47F0 91FE      0445C        6384          B     OPEN54                  CONTINUE                         43183021
 004450                             6385 OPEN53   DS    0H                                                       43190021
 004450 9121 2006      00006        6386          TM    DX6(RW2),XX21            BISAM WITH FREE                 43197021
 004454 47E0 91FE      0445C        6387          BNO   OPEN54                  NO                               43204021
 004458 9604 D1C6      07D5E        6388          OI    XCON2+NX14,XX04          SET BITS FOR DYNAMIC BUFFERING  43211021
 00445C                             6389 OPEN54   DS    0H                                                       43218021
1         OPEN VERB PROCESSOR     O  P  E  N                                                                    PAGE  140
-  LOC  OBJECT CODE    ADDR1 ADDR2  STMT   SOURCE STATEMENT                                       ASM 0201 11.03 02/14/15
000445C 45E0 B18C      01004        6390          BAL   RETRG,MVC               *  MVC  50(2,1),LITERAL          43225021
 004460 9120 2006      00006        6391          TM    DX6(RW2),XX20       BISAM?                               43232021
 004464 4780 9226      04484        6392          BZ    OPEN58                  NO                               43239021
 004468 920E D199      07D31        6393          MVI   XIMM,XX0E                                                43246021
 00446C 910E 2002      00002        6394          TM    DX2(RW2),XX0E       OPEN I-O?                            43253021
 004470 4740 921A      04478        6395          BM    OPEN57                  YES                              43260021
 004474 9200 D199      07D31        6396          MVI   XIMM,XX00           NO.                                  43267021
 004478                             6397 OPEN57   DS    0H                                                       43274021
 004478 9210 D15E      07CF6        6398          MVI   BDISP1,XX10                                              43281021
 00447C 9235 D15F      07CF7        6399          MVI   BDISP1+NX1,XX35                                          43288021
 004480 45E0 BABC      01934        6400          BAL   RETRG,MVI          MVI 53(1),'00' OR '0E'                43295021
                                    6401 *                                                                       43302021
 004484                             6402 OPEN58   DS    0H                                                       43309021
 004484 45E0 92C8      04526        6403          BAL   RETRG,OPENTEST     PERFORM PENTEST                       43316021
 004488 9144 2006      00006        6404          TM    DX6(RW2),XX44             DIRECT BSAM?                   43323021
 00448C 47E0 9264      044C2        6405          BNO   OPEN58CC           NO.                                   43330021
 004490 D200 D632 2007 081CA 00007  6406          MVC   IOTXTA+NX6(LX1),DX7(RW2) DECB NO.                        43337021
 004496 45E0 78D2      008D2        6407          BAL   RETRG,GATXTV       L R3,DECBADR                          43344021
 00449A 0000                        6408          DC    AL2(IOTXTA-ATXTBV)                                       43351021
 00449C 0007                        6409          DC    AL2(IOTXTB-IOTXTA)                                       43358021
 00449E 9160 2003      00003        6410          TM    DX3(RW2),XX60        SPANNED?                            43365021
 0044A2 47E0 9264      044C2        6411          BNO   OPEN58CC             NO                                  43372021
 0044A6 910E 2002      00002        6412          TM    DX2(RW2),XX0E       D-BSAM. FILE OPENED OUTPUT?          43379021
 0044AA 47E0 925C      044BA        6413          BNO   OPEN58BB                   NO, INPUT.                    43386021
 0044AE 45E0 78C6      008C6        6414          BAL   RETRG,GATXTC                YES.                         43393021
 0044B2 02CF                        6415          DC    AL2(ATXT116A-ATXTBC)  MVC DCB+76(4),DCB+92               43400021
 0044B4 0012                        6416          DC    AL2(ZTXT116A-ATXT116A)  MVC DECB+12(4),DCB               43407021
 0044B6 47F0 9264      044C2        6417          B     OPEN58CC           BRANCH TO OPEN58CC                    43414021
 0044BA                             6418 OPEN58BB DS    0H                                                       43421021
 0044BA 45E0 78C6      008C6        6419          BAL   RETRG,GATXTC            L R4,DCB+92  A(SEG WK)           43428021
 0044BE 02E1                        6420          DC   AL2(ATXT117A-ATXTBC)     LA R4,18(R4)                     43435021
 0044C0 0012                        6421          DC  AL2(ZTXT117A-ATXT117A)   ST R4,12(R3)                      43442021
 0044C2                             6422 OPEN58CC DS    0H                                                       43449021
 0044C2 91F0 2006      00006        6423          TM    DX6(RW2),XXF0            QSAM                            43456021
 0044C6 4770 9346      045A4        6424          BNZ   OPEN09E                 NO                               43463021
 0044CA 9109 2006      00006        6425          TM    DX6(RW2),XX09             ADVANCING?                     43470021
 0044CE 4780 9278      044D6        6426          BZ    OPEN58BC            NO                                   43477021
 0044D2 9608 200A      0000A        6427          OI    DX10(RW2),XX08            TURN ON SRA BIT                43484021
 0044D6                             6428 OPEN58BC DS    0H                                                       43491021
 0044D6 910E 2002      00002        6429          TM    DX2(RW2),XX0E            INPUT/OUTPUT/I-O                43498021
 0044DA 4780 9346      045A4        6430          BZ    OPEN09E                 INPUT                            43505021
 0044DE 9210 D15E      07CF6        6431          MVI   BDISP1,XX10                                              43512021
 0044E2 9260 D15F      07CF7        6432          MVI   BDISP1+NX1,XX60                                          43519021
 0044E6 4710 9306      04564        6433          BO    OPEN09A                 OUTPUT                           43526021
 0044EA 9102 2006      00006        6434          TM    DX6(RW2),XX02             APPLY WRITE-ONLY?              43533021
 0044EE 4710 92A4      04502        6435          BO    OPEN58B                  YES                             43540021
 0044F2 9160 2003      00003        6436          TM    DX3(RW2),XX60      S?                                    43547021
 0044F6 4710 92B6      04514        6437          BO    OPEN58A            YES.                                  43554021
 0044FA 9108 200A      0000A        6438          TM    DX10(RW2),XX08            SAME RECORD AREA?              43561021
 0044FE 4780 92B6      04514        6439          BZ    OPEN58A                 NO                               43568021
 004502 D205 D1C2 D2F8 07D5A 07E90  6440 OPEN58B  MVC   XCON2+NX10(LX6),PUTIOSRA  YES                            43575021
 004508 9206 D1C8      07D60        6441          MVI   XCON2+NX16,XX06          * MVC  96(6,1),=X'181045E0F004' 43582021
 00450C 9206 D159      07CF1        6442          MVI   XL1+NX1,XX06                                             43589021
 004510 47F0 9342      045A0        6443          B     OPEN09B             GO TO OPEN09B TO PUT A TEXT          43596021
 004514 D203 D1C4 D2FA 07D5C 07E92  6444 OPEN58A  MVC   XCON2+NX12(LX4),PUTIOCN   I-O, NO SRA                    43603021
1         OPEN VERB PROCESSOR     O  P  E  N                                                                    PAGE  141
-  LOC  OBJECT CODE    ADDR1 ADDR2  STMT   SOURCE STATEMENT                                       ASM 0201 11.03 02/14/15
000451A 9204 D1C8      07D60        6445          MVI   XCON2+NX16,XX04          *   MVC  96(4,1),=X'45E0F004'   43610021
 00451E 9204 D159      07CF1        6446          MVI   XL1+NX1,XX04                                             43617021
 004522 47F0 9342      045A0        6447          B     OPEN09B             GO TO OPEN09B TO PUT A TEXT          43624021
 004526                             6448 OPENTEST DS    0H                                                       43631021
 004526 9160 2003      00003        6449          TM    DX3(RW2),XX60             SPANNED?                       43638021
 00452A 47E0 9300      0455E        6450          BNO   OPENRETN                  NO                             43645021
 00452E 9104 200A      0000A        6451          TM    DX10(RW2),XX04            SAME AREA?                     43652021
 004532 47E0 9300      0455E        6452          BNO   OPENRETN                  NO                             43659021
 004536 9264 DCD8      08870        6453          MVI   IOTXTOP2,XX64             ASSUME BDAM FILE               43666021
 00453A 9180 2006      00006        6454          TM    DX6(RW2),MBDAM            BDAM FILE?                     43673021
 00453E 4710 92F0      0454E        6455          BO    GENRCODE                 YES                             43680021
 004542 9140 2006      00006        6456          TM    DX6(RW2),MBSAM            BSAM FILE?                     43687021
 004546 47E0 9300      0455E        6457          BNO   OPENRETN                 NO                              43694021
 00454A 925C DCD8      08870        6458          MVI   IOTXTOP2,XX5C             CHANGE DISP FROM 100 TO 92     43701021
                                    6459 *                                                                       43708021
                                    6460 *        THE FOLLOWING CODING GENERATES INSTRUCTIONS TO INITIALIZE THE  43715021
                                    6461 *         BUFFER CONTROL BLOCK FOR BDAM OR BSAM SPANNED RECORDS WITH    43722021
                                    6462 *         THE SAME AREA CLAUSE                                          43729021
                                    6463 *         FOR BSAM FILES THE DISPLACEMENT IS 92 OFF DCB ADDRESS         43736021
                                    6464 *         FOR BDAM FILES THE DISPLACEMENT IS 100 OFF DCB ADDRESS        43743021
                                    6465 *                                                                       43750021
 00454E                             6466 GENRCODE DS    0H                                                       43757021
 00454E 50E0 9302      04560        6467          ST    RETRG,HOLDREG            STORE REGISTER FOR RETURN       43764021
 004552 45E0 78D2      008D2        6468          BAL   RETRG,GATXTV       PUT A TEXT                            43771021
 004556 06A7                        6469          DC    AL2(IOTXTOP1-ATXTBV)                                     43778021
 004558 0027                        6470          DC    AL2(IOTXTOP3-IOTXTOP1)                                   43785021
 00455A 58E0 9302      04560        6471          L     RETRG,HOLDREG            RESTORE RETURN ADDRESS          43792021
 00455E                             6472 OPENRETN DS    0H                                                       43799021
 00455E 07FE                        6473          BR    RETRG                    GO BACK                         43806021
 004560 00000000                    6474 HOLDREG  DC    F'0'                                                     43813021
 004564                             6475 OPEN09A  DS    0H                                                       43820021
 004564 9160 2003      00003        6476          TM    DX3(RW2),XX60       S?                                   43827021
 004568 4710 9334      04592        6477          BO    OPEN09C            YES,BALR 14,15 IN DCB+96              43834021
 00456C 9102 2006      00006        6478          TM    DX6(RW2),XX02             APPLY WRITE-ONLY?              43841021
 004570 4780 931A      04578        6479          BZ    OPEN58D             NO                                   43848021
 004574 47F0 9322      04580        6480          B     OPEN58C                 YES                              43855021
 004578                             6481 OPEN58D  DS    0H                                                       43862021
 004578 9108 200A      0000A        6482          TM    DX10(RW2),XX08            SAME RECORD AREA?              43869021
 00457C 4780 9334      04592        6483          BZ    OPEN09C                 NO                               43876021
 004580 D203 D1C4 D2FE 07D5C 07E96  6484 OPEN58C  MVC   XCON2+NX12(LX4),PUTOUTCN  YES                            43883021
 004586 9204 D1C8      07D60        6485          MVI   XCON2+NX16,XX04          * MVC  96(4,1),=X'05EF0700'     43890021
 00458A 9204 D159      07CF1        6486          MVI   XL1+NX1,XX04                                             43897021
 00458E 47F0 9342      045A0        6487          B     OPEN09B             GO TO OPEN09B                        43904021
 004592                             6488 OPEN09C  DS    0H                                                       43911021
 004592 D201 D1C6 D2FE 07D5E 07E96  6489          MVC   XCON2+NX14(LX2),PUTOUTCN  OUTPUT                         43918021
 004598 9202 D1C8      07D60        6490          MVI   XCON2+NX16,XX02          *   MVC  96(2,1),=X'05EF'       43925021
 00459C 9202 D159      07CF1        6491          MVI   XL1+NX1,XX02                                             43932021
 0045A0                             6492 OPEN09B  DS    0H                                                       43939021
 0045A0 45E0 B18C      01004        6493          BAL   RETRG,MVC               GENERATE MOVE                    43946021
 0045A4                             6494 OPEN09E  DS    0H                                                       43953021
 0045A4 9110 2003      00003        6495          TM    DX3(RW2),XX10            USE AFTER STD ERROR?            43960021
 0045A8 4710 9356      045B4        6496          BO    OPEN09D                 YES                              43967021
 0045AC 9102 200A      0000A        6497          TM    DX10(RW2),XX02           USER LABELS?                    43974021
 0045B0 47E0 950E      0476C        6498          BNO   CLOS01                  NO, DONT LOAD EXITLIST ADDRESS   43981021
 0045B4                             6499 OPEN09D  DS    0H                                                       43988021
1         OPEN VERB PROCESSOR     O  P  E  N                                                                    PAGE  142
-  LOC  OBJECT CODE    ADDR1 ADDR2  STMT   SOURCE STATEMENT                                       ASM 0201 11.03 02/14/15
00045B4 45E0 78D2      008D2        6500          BAL   RETRG,GATXTV             * L 4,36(1)                     43995021
 0045B8 00F1                        6501          DC    AL2(IOTXTS-ATXTBV)       X                               44002021
 0045BA 0006                        6502          DC    AL2(IOTXTS1-IOTXTS)      X                               44009021
 0045BC 45E0 9AB6      04D14        6503          BAL   RETRG,GETELGNS           RW3 NOW POINTS TO FIRST GN      44016021
 0045C0 9110 2003      00003        6504          TM    DX3(RW2),XX10            USE AFTER STD ERROR?            44023021
 0045C4 47E0 9396      045F4        6505          BNO   USERLABL                NO, TEST FOR USER LABELS         44030021
 0045C8 9240 D15E      07CF6        6506          MVI   BDISP1,XX40                                              44037021
 0045CC D501 3000 C38C 00000 071BC  6507          CLC   STDERRGN,GZERO          STD ERROR GN                     44044021
 0045D2 4770 9388      045E6        6508          BNE   STDERR1                 YES                              44051021
 0045D6 921F D15F      07CF7        6509          MVI   BDISP1+NX1,XX1F                                          44058021
 0045DA 9201 D199      07D31        6510          MVI   IMM,XX01                 *  OI  31(4),1                  44065021
 0045DE 45E0 BACC      01944        6511          BAL   RETRG,OI            PUT A TEXT                           44072021
 0045E2 47F0 9396      045F4        6512          B     USERLABL                TEST FOR USERLABELS              44079021
 0045E6                             6513 STDERR1  DS    0H                                                       44086021
 0045E6 921D D15F      07CF7        6514          MVI   BDISP1+NX1,XX1D                                          44093021
 0045EA D201 D1CE 3000 07D66 00000  6515          MVC   XPN2+NX2(LX2),STDERRGN    *  MVC  29(3,4),PN+1           44100021
 0045F0 45E0 9ADA      04D38        6516          BAL   RETRG,MOVEGN        PUT A TEXT MVC INST                  44107021
 0045F4                             6517 USERLABL DS    0H                                                       44114021
 0045F4 9102 200A      0000A        6518          TM    DX10(RW2),XX02           USERLABELS?                     44121021
 0045F8 47E0 950E      0476C        6519          BNO   CLOS01                  NO                               44128021
                                    6520 *                                  ASSUME INPUT                         44135021
 0045FC 910E 2002      00002        6521          TM    DX2(RW2),XX0E            TEST                            44142021
 004600 4780 93B6      04614        6522          BC    ZERO,OPTN3               INPUT                           44149021
 004604 47E0 93B2      04610        6523          BC    NOTONE,OPTN2             I/O                             44156021
 004608 9204 D199      07D31        6524          MVI   IMM,XX04                  OUTPUT                         44163021
 00460C 47F0 93B6      04614        6525          BC    UNCOND,OPTN3        SKIP NEXT INST                       44170021
 004610 9208 D199      07D31        6526 OPTN2    MVI   IMM,XX08                  I/O CODE                       44177021
 004614 9225 D15F      07CF7        6527 OPTN3    MVI   BDISP1+NX1,XX25                                          44184021
 004618 9240 D15E      07CF6        6528          MVI   BDISP1,XX40                X                             44191021
 00461C 45E0 BABC      01934        6529          BAL   RETRG,MVI               *  MVI  37(4),CODE               44198021
 004620 D501 3002 C38C 00002 071BC  6530          CLC   BOFGN,GZERO              BOF GN                          44205021
 004626 4770 93D4      04632        6531          BC    NOTEQ,BOF1               YES                             44212021
 00462A 45E0 9AC4      04D22        6532          BAL   RETRG,INACTXL            * NI 0(4),X'80'                 44219021
 00462E 47F0 93FA      04658        6533          BC    UNCOND,EOV3         SKIP TO EOV TESTING                  44226021
 004632                             6534 BOF1     DS    0H                                                       44233021
 004632 D201 D1CE 3002 07D66 00002  6535          MVC   XPN2+NX2(LX2),BOFGN        XXXX                          44240021
 004638 9201 D15F      07CF7        6536          MVI   BDISP1+NX1,XX01            X                             44247021
 00463C 45E0 9ADA      04D38        6537          BAL   RETRG,MOVEGN             * MVC 1(3,4),BOFGN+1            44254021
                                    6538 *                                        XXXX                           44261021
 004640 9201 D199      07D31        6539          MVI   IMM,XX01                   X                             44268021
 004644 910F 2002      00002        6540          TM    DX2(RW2),XX0F             OUTPUT                         44275021
 004648 47E0 93F2      04650        6541          BC    NOTONE,BOF2              NO                              44282021
 00464C 9202 D199      07D31        6542          MVI   IMM,XX02                                                 44289021
 004650 9240 D15E      07CF6        6543 BOF2     MVI   BDISP1,XX40               *  MVI 0(4),CODE               44296021
 004654 45E0 BABC      01934        6544          BAL   RETRG,MVI                 XXXX                           44303021
                             04658  6545 EOV3     EQU   *                                                        44310021
 004658 45E0 9498      046F6        6546          BAL   RETRG,GETCODE       DETERMINES EOV AND EOF CODE          44317021
 00465C D501 3006 C38C 00006 071BC  6547          CLC   EOVGN,GZERO              EOV GN                          44324021
 004662 4770 9414      04672        6548          BC    NOTEQ,EOV1               YES                             44331021
 004666 9204 D15F      07CF7        6549          MVI   BDISP1+NX1,XX04            XXXX                          44338021
 00466A 45E0 9AC4      04D22        6550          BAL   RETRG,INACTXL            * NI 4(4),X'80'                 44345021
                                    6551 *                                        XXXX                           44352021
 00466E 47F0 9434      04692        6552          BC    UNCOND,EOFLABL            XXXX                           44359021
 004672 9205 D15F      07CF7        6553 EOV1     MVI   BDISP1+NX1,XX05            XXXX                          44366021
 004676 D201 D1CE 3006 07D66 00006  6554          MVC   XPN2+NX2(LX2),EOVGN       *  MVC  5(3,4),EOVPN+1         44373021
1         OPEN VERB PROCESSOR     O  P  E  N                                                                    PAGE  143
-  LOC  OBJECT CODE    ADDR1 ADDR2  STMT   SOURCE STATEMENT                                       ASM 0201 11.03 02/14/15
0                                   6555 *                                                                       44380021
 00467C 45E0 9ADA      04D38        6556          BAL   RETRG,MOVEGN              XXXX                           44387021
 004680 9240 D15E      07CF6        6557          MVI   BDISP1,XX40                XXXX                          44394021
 004684 9204 D15F      07CF7        6558          MVI   BDISP1+NX1,XX04            X                             44401021
 004688 D200 D199 C8D0 07D31 07700  6559          MVC   IMM,CODE            EOV CODE                             44408021
 00468E 45E0 BABC      01934        6560          BAL   RETRG,MVI           * MVI  4(4),EOV CODE                 44415021
 004692 D501 3004 C38C 00004 071BC  6561 EOFLABL  CLC   EOFGN,GZERO              EOF GN                          44422021
 004698 4770 9456      046B4        6562          BC    NOTEQ,EOF1               YES                             44429021
 00469C 9240 D15E      07CF6        6563          MVI   BDISP1,XX40                XXXX                          44436021
 0046A0 920B D15F      07CF7        6564          MVI   BDISP1+NX1,XX0B                                          44443021
 0046A4 9201 D199      07D31        6565          MVI   IMM,XX01                                                 44450021
 0046A8 45E0 BACC      01944        6566          BAL   RETRG,OI                *  OI  11(4),1                   44457021
                                    6567 *                                       XXXX                            44464021
 0046AC 9480 C8D0      07700        6568          NI    CODE,XX80            NO EOF SPECIFIED                    44471021
 0046B0 47F0 947A      046D8        6569          BC    UNCOND,EOF2         INACTIVATE EOF CODE                  44478021
 0046B4 9209 D15F      07CF7        6570 EOF1     MVI   BDISP1+NX1,XX09            XXXX                          44485021
 0046B8 D201 D1CE 3004 07D66 00004  6571          MVC   XPN2+NX2(LX2),EOFGN       *  MVC  9(3,4),EOFPN+1         44492021
 0046BE 45E0 9ADA      04D38        6572          BAL   RETRG,MOVEGN              XXXX                           44499021
 0046C2 D200 D199 C8D0 07D31 07700  6573          MVC   IMM,CODE                                           43521 44506021
 0046C8 9240 D15E      07CF6        6574          MVI   BDISP1,XX40                                        43521 44513021
 0046CC 9208 D15F      07CF7        6575          MVI   BDISP1+NX1,XX08                                    43521 44520021
 0046D0 45E0 BABC      01934        6576          BAL   RETRG,MVI           * MVI  8(4),CODE               43521 44527021
 0046D4 47F0 9482      046E0        6577          B     EOF3                AVOID INVALIDATION             43521 44534021
 0046D8                             6578 EOF2     DS    0H                                                 43521 44541021
 0046D8 9208 D15F      07CF7        6579          MVI   BDISP1+NX1,XX08                                    43521 44548021
 0046DC 45E0 9AC4      04D22        6580          BAL   RETRG,INACTXL       * NI   8(4),X'80'              43521 44555021
 0046E0                             6581 EOF3     DS    0H                                                 43521 44562021
 0046E0 9278 D15F      07CF7        6582          MVI   BDISP1+NX1,XX78                                          44569021
 0046E4 9210 D15E      07CF6        6583          MVI   BDISP1,XX10                                              44576021
 0046E8 D200 D199 C8D0 07D31 07700  6584          MVC   IMM,CODE            EOF CODE                             44583021
 0046EE 45E0 BABC      01934        6585          BAL   RETRG,MVI           * MVI 120(1),CODE-SAVES EOF IN DCB   44590021
 0046F2 47F0 950E      0476C        6586          B     CLOS01              CONTINUE PROCESSING            43521 44597021
                             046F6  6587 GETCODE  EQU   *                                                        44604021
 0046F6 9204 C8D0      07700        6588          MVI   CODE,XX04            ASSUME OUTPUT                       44611021
 0046FA 910F 2002      00002        6589          TM    DX2(RW2),XX0F        IS IT OUTPUT?                       44618021
 0046FE 4710 94C0      0471E        6590          BO    GETBACK              YES                                 44625021
 004702 920C C8D0      07700        6591          MVI   CODE,XX0C            ASSUME SUL INPUT OR I-O             44632021
 004706 9101 200A      0000A        6592          TM    DX10(RW2),XX01       NON STANDARD LABELS?                44639021
 00470A 47E0 94B4      04712        6593          BNO   IFBDAM                   NOPE                            44646021
 00470E 920D C8D0      07700        6594          MVI   CODE,XX0D            CHANGE TO NSL INPUT OR I-O          44653021
                             04712  6595 IFBDAM   EQU   *                                                        44660021
 004712 9180 2006      00006        6596          TM    DX6(RW2),MBDAM       BDAM FILE ?                         44667021
 004716 47E0 94C0      0471E        6597          BNO   GETBACK              NOPE                                44674021
 00471A 9203 C8D0      07700        6598          MVI   CODE,XX03            CHANGE TO OLD CODE FOR BDAM         44681021
 00471E 07FE                        6599 GETBACK  BR    RETRG               RETURN                               44688021
 004720 9180 2002      00002        6600 EOVCLOSE TM    DX2(RW2),MCLREL           CLOSE REEL                     44695021
 004724 4710 94DE      0473C        6601          BC    ONES,EOV2CLOS            YES                             44702021
 004728 94FE 2002      00002        6602          NI    DX2(RW2),XXFE            TURN OFF LOCK BIT FOR FIRST     44709021
 00472C 9102 200A      0000A        6603          TM    DX10(RW2),XX02       USER LABELS?                        44716021
 004730 47E0 94DE      0473C        6604          BNO   EOV2CLOS             NO                                  44723021
 004734 45E0 78D2      008D2        6605          BAL   RETRG,GATXTV        PUT A TEXT                           44730021
 004738 00F1                        6606          DC    AL2(IOTXTS-ATXTBV)      ACTIVATE EOF ENTRY IN EXITLI     44737021
 00473A 0015                        6607          DC    AL2(IOTXTT-IOTXTS)                                       44744021
 00473C                             6608 EOV2CLOS DS    0H                                                       44751021
 00473C 94FD D61F      081B7        6609        NI    CLOSSW,SSWOFF                                              44758021
1         OPEN VERB PROCESSOR     O  P  E  N                                                                    PAGE  144
-  LOC  OBJECT CODE    ADDR1 ADDR2  STMT   SOURCE STATEMENT                                       ASM 0201 11.03 02/14/15
0004740 9140 2006      00006        6610          TM    DX6(RW2),MBSAM       BSAM...                             44765021
 004744 4780 94FE      0475C        6611        BC    ZERO,CLOS13            NO                                  44772021
 004748 9180 2002      00002        6612          TM    DX2(RW2),MCLREL          CLOSE REEL                      44779021
 00474C 47E0 94FA      04758        6613          BC    NOTONE,CLOS13A          NO                               44786021
                                    6614 *                                      BSAM CALLING SEQ                 44793021
 004750 45E0 7BE6      00BE6        6615          BAL   RETRG,IOBS08        GO TO BSAM CLOSE REEL ENTRY          44800021
 004754 47F0 902A      04288        6616          B     OPEN01                  PROCESS NEST FILE                44807021
                             04758  6617 CLOS13A  EQU   *                                                        44814021
 004758 45E0 7BDE      00BDE        6618        BAL   RETRG,IOBS02           YES, GEN 'BSAM' OTSR CALLING SE     44821021
                             0475C  6619 CLOS13 EQU   *                                                          44828021
 00475C 9180 2002      00002        6620          TM    DX2(RW2),MCLREL          CLOSE REEL                      44835021
 004760 4710 9A48      04CA6        6621          BO    CLOS02                  YES                              44842021
 004764 9602 D61F      081B7        6622          OI    CLOSSW,SSWON                                             44849021
 004768 47F0 955C      047BA        6623          B     OPEN08B             BRANCH OPEN08B                       44856021
                             0476C  6624 CLOS01 EQU   *                                                          44863021
 00476C 9120 2006      00006        6625          TM    DX6(RW2),MBISAM          BISAM?                          44870021
 004770 47E0 9532      04790        6626          BNO   CLOS01A                 NO                               44877021
 004774 9210 D15E      07CF6        6627          MVI   BDISP1,XX10                                              44884021
 004778 92FC D15F      07CF7        6628          MVI   BDISP1+NX1,XXFC                                          44891021
 00477C 9280 D199      07D31        6629          MVI   IMM,XX80                                                 44898021
 004780 910E 2002      00002        6630          TM    DX2(RW2),XX0E            INPUT?                          44905021
 004784 4780 952E      0478C        6631          BZ    CLOS01B             YES                                  44912021
 004788 9220 D199      07D31        6632          MVI   IMM,XX20                                                 44919021
 00478C                             6633 CLOS01B  DS    0H                                                       44926021
 00478C 45E0 BABC      01934        6634          BAL   RETRG,MVI               *  MVI  252(1),CODE              44933021
 004790                             6635 CLOS01A  DS    0H                                                       44940021
 004790 9180 2006      00006        6636          TM    DX6(RW2),MBDAM           BDAM ACCESS METHOD              44947021
 004794 47E0 955C      047BA        6637          BC    NOTONE,OPEN08B          NO                               44954021
 004798 910F 2002      00002        6638          TM    DX2(RW2),XX0F            OUTPUT                          44961021
 00479C 47E0 955C      047BA        6639          BC    NOTONE,OPEN08B          NO                               44968021
 0047A0 D201 D17E 2008 07D16 00008  6640          MVC   XCON1+NX14(LX2),DX8(RW2)                                 44975021
 0047A6 9202 D180      07D18        6641          MVI   XCON1+NX16,XX02                                          44982021
 0047AA 9203 D198      07D30        6642          MVI   XREG1,XX03                                               44989021
 0047AE 45E0 B000      00E78        6643          BAL   RETRG,LOAD              *  LH  3,MAX-RCD-LNGTH+KEYLN     44996021
 0047B2 45E0 7BD6      00BD6        6644          BAL   RETRG,IOBS07            GEN CALLING SEQ TO BSAMRTN       45003021
 0047B6 9214 2002      00002        6645          MVI   DX2(RW2),XX14            CHANGE TO I/O                   45010021
                             047BA  6646 OPEN08B  EQU   *                                                        45017021
 0047BA 9240 D188      07D20        6647          MVI   XCNTR1,XX40              SA3 CELL                        45024021
 0047BE D201 D189 D5DE 07D21 08176  6648          MVC   XCNTR1+NX1(LX2),IOPARM                                   45031021
 0047C4 9201 D198      07D30        6649          MVI   XREG1,XX01                                               45038021
 0047C8 45E0 B040      00EB8        6650        BAL   RETRG,STORE           *    ST   1,PARAM=K                  45045021
 0047CC 9101 D61F      081B7        6651          TM    CLOSSW,MSWON        CLOSE...                       50761 45052021
 0047D0 4780 95C4      04822        6652          BZ    OPEN08BB            NO                             50761 45059021
 0047D4 9180 2006      00006        6653          TM    DX6(RW2),MBDAM      BDAM...                        43124 45066021
 0047D8 4710 95C4      04822        6654          BO    OPEN08BB            YES, NO NEED TO SET LRECL      43124 45073021
 0047DC 9104 D61E      081B6        6655          TM    RECMODE,FTYPE       F-MODE...                      50761 45080021
 0047E0 4710 95C4      04822        6656          BO    OPEN08BB            YES                            50761 45087021
 0047E4 9210 D15E      07CF6        6657          MVI   BDISP1,XX10              INDICATE REG1                   45094021
 0047E8 9252 D15F      07CF7        6658          MVI   BDISP1+NX1,XX52          OFFSET 82 IN DCB                45101021
 0047EC 9102 D61E      081B6        6659          TM    RECMODE,UTYPE       U-MODE....                     50761 45108021
 0047F0 4780 95A0      047FE        6660          BZ    OPEN09              NO                             50761 45115021
 0047F4 D201 D1C6 2008 07D5E 00008  6661          MVC   XCON2+NX14(LX2),DX8(RW2) INSERT MAX LRECL           5962 45122021
 0047FA 47F0 95B8      04816        6662          B    OPEN12               BYPASS V-MODE CODE              5962 45129021
 0047FE                             6663 OPEN09   DS    0H                                                  5962 45136021
 0047FE D201 C694 2008 074C4 00008  6664        MVC   LRECLTMP(LX2),DX8(RW2)    GET MAXIMUM RECORD LENGTH        45143021
1         OPEN VERB PROCESSOR     O  P  E  N                                                                    PAGE  145
-  LOC  OBJECT CODE    ADDR1 ADDR2  STMT   SOURCE STATEMENT                                       ASM 0201 11.03 02/14/15
0004804 4850 C694      074C4        6665          LH    RW5,LRECLTMP                                        5962 45150021
 004808 4150 5004      00004        6666          LA    RW5,DX4(RW0,RW5)    BUMP MAX LRECL BY 4 FOR RDW     5962 45157021
 00480C 4050 C694      074C4        6667          STH    RW5,LRECLTMP                                       5962 45164021
 004810 D201 D1C6 C694 07D5E 074C4  6668        MVC   XCON2+NX14(LX2),LRECLTMP  STORE MAX RECORD LENGTH          45171021
 004816                             6669 OPEN12   DS    0H                                                  5962 45178021
 004816 9202 D1C8      07D60        6670          MVI   XCON2+NX16,XX02          LENGTH OF MVC = 2               45185021
 00481A 9202 D159      07CF1        6671          MVI   XL1+NX1,XX02                                             45192021
 00481E 45E0 B18C      01004        6672          BAL   RETRG,MVC     * MVC 52(2,1),MAXRECDLNGTH                 45199021
 004822 D200 D5F4 2002 0818C 00002  6673 OPEN08BB MVC   IOCODE,DX2(RW2)                                          45206021
 004828 47F0 902A      04288        6674          B     OPEN01                  PROCESS NEXT FILE                45213021
                             0482C  6675 OPEN02 EQU   *                                                          45220021
 00482C 9680 D5F4      0818C        6676          OI    IOCODE,XX80                                              45227021
 004830 47F0 9048      042A6        6677        BC    UNCOND,OPEN03         BRANCH TO OPEN03                     45234021
0
                                    6679 *                                                                       45248021
                                    6680 *                             BISAM OPEN                                45255021
                                    6681 *                                                                       45262021
                                    6682 *                                                                       45269021
0
 004834                             6684 OPEN05   DS    0H                                                       45283021
 004834 9104 2006      00006        6685          TM    DX6(RW2),XX04       IS THERE 'TRK-AREA IS INT'...        45290021
 004838 47E0 9096      042F4        6686          BNO   OPEN08              NO                                   45297021
 00483C D200 D8EF 2005 08487 00005  6687          MVC   A03CH1(LX1),DX5(RW2)     INSERT DCB NO.                  45304021
 004842 45E0 BDD0      01C48        6688          BAL   RETRG,GNSTEP        BUMP GNCTR                           45311021
 004846 D201 D305 A15E 07E9D 0015E  6689          MVC   GLGNCN+NX3(LX2),GNCTR    SAVE FOR GN DEF                 45318021
 00484C 45E0 78D2      008D2        6690          BAL   RETRG,GATXTV            * GENERATE CONDITIONAL GET-      45325021
 004850 02BD                        6691          DC    AL2(ATXT03-ATXTBV)      * MAIN FOR TRACK-AREA IS INT     45332021
 004852 0047                        6692          DC    AL2(ATXT03A-ATXT03)      * SPACE REQUESTED               45339021
 004854 920E D198      07D30        6693          MVI   XREG1,XX0E                                               45346021
 004858 D201 D182 A15E 07D1A 0015E  6694          MVC   XGN1,GNCTR                                               45353021
 00485E 45E0 B000      00E78        6695          BAL   RETRG,LOAD          * L    14,GN(NO STORE)               45360021
 004862 45E0 78D2      008D2        6696          BAL   RETRG,GATXTV        GENERATE                             45367021
 004866 0304                        6697          DC    AL2(ATXT03A-ATXTBV)      REST OF GETMAIN                 45374021
 004868 0018                        6698          DC    AL2(ZTXT03-ATXT03A)          SEQUENCE                    45381021
 00486A 45E0 BA24      0189C        6699          BAL   RETRG,GNOPT3        * GN(NO SPACE) EQU *                 45388021
 00486E D501 A22A C6B8 0022A 074E8  6700          CLC   PARMAX(LX2),XC003   CHECK NUMBER OF PARAM CELLS          45395021
                                    6701 *                                      ALREADY RESERVED                 45402021
 004874 4720 9096      042F4        6702          BH    OPEN08              MORE THAN WE NEED HERE               45409021
 004878 D201 A22A C6B8 0022A 074E8  6703          MVC   PARMAX(LX2),XC003   NO, SO RESERVE 3                     45416021
 00487E 47F0 9096      042F4        6704          B     OPEN08              CONTINUE PROCESSING                  45423021
0
 004882 9101 D61F      081B7        6706 OPEN06 TM    CLOSSW,MSWON          CLOSE...                             45437021
 004886 4710 98C4      04B22        6707        BC    ONES,CLOS05            YES                                 45444021
 00488A 910C 200A      0000A        6708          TM    DX10(RW2),XX0C      NO. OPEN WITH SA OR SRA?             45451021
 00488E 4780 9096      042F4        6709        BC    ZERO,OPEN08            NO                                  45458021
 004892 9160 2003      00003        6710          TM    DX3(RW2),XX60        SPANNED?                            45465021
 004896 47E0 966C      048CA        6711          BNO   OPEN06B            NO.                                   45472021
 00489A D207 D1C0 DD38 07D58 088D0  6712          MVC   XCON2+NX8(LX8),MODCON                                    45479021
 0048A0 920C D1C8      07D60        6713          MVI   XCON2+NX16,XX0C                                          45486021
 0048A4 9220 D188      07D20        6714          MVI   XCNTR1,XX20                                              45493021
 0048A8 9205 D18A      07D22        6715          MVI   XCNTR1+NX2,XX05      WORKING CELL NUMBER 5               45500021
 0048AC 920C D159      07CF1        6716          MVI   XL1+NX1,XX0C                                             45507021
1         OPEN VERB PROCESSOR     O  P  E  N                                                                    PAGE  146
-  LOC  OBJECT CODE    ADDR1 ADDR2  STMT   SOURCE STATEMENT                                       ASM 0201 11.03 02/14/15
00048B0 45E0 B18C      01004        6717          BAL   RETRG,MVC           * MVC  WORKCELL,LITERAL              45514021
 0048B4 D200 DCAB 2005 08843 00005  6718          MVC   IOTXTZA2,DX5(RW2)    DCB NUMBER                          45521021
 0048BA 45E0 78D2      008D2        6719          BAL   RETRG,GATXTV       PUT A TEXT                            45528021
 0048BE 066B                        6720          DC    AL2(IOTXTZA1-ATXTBV)                                     45535021
 0048C0 0025                        6721          DC    AL2(IOTXTZA3-IOTXTZA1)                                   45542021
 0048C2 45E0 7CCC      00CCC        6722          BAL   RETRG,WRKLRG        DESTROY 14, 15                       45549021
 0048C6 47F0 9096      042F4        6723          B     OPEN08             BRANCH TO OPEN08                      45556021
                             048CA  6724 OPEN06B  EQU   *                                                        45563021
 0048CA 9104 200A      0000A        6725          TM    DX10(RW2),XX04      SA?                                  45570021
 0048CE 4780 9096      042F4        6726          BZ    OPEN08             NO.                                   45577021
 0048D2 9203 D198      07D30        6727          MVI   XREG1,XX03           QSAM, QISAM SAME AREA 'PRIOR'       45584021
 0048D6 D200 D18A 2005 07D22 00005  6728          MVC   XCNTR1+NX2(LX1),DX5(RW2)       CODING.                   45591021
 0048DC 45E0 B000      00E78        6729        BAL   RETRG,LOAD            *    L    3,DCBADR=FN                45598021
 0048E0 9201 D198      07D30        6730          MVI   XREG1,XX01                                               45605021
 0048E4 9214 D15F      07CF7        6731          MVI   BDISP1+NX1,XX14                                          45612021
 0048E8 9230 D15E      07CF6        6732          MVI   BDISP1,XX30                                              45619021
 0048EC 45E0 B000      00E78        6733        BAL   RETRG,LOAD            *    L    1,20(3)                    45626021
 0048F0 9202 D198      07D30        6734          MVI   XREG1,XX02                                               45633021
 0048F4 926C D15F      07CF7        6735          MVI   BDISP1+NX1,XX6C                                          45640021
 0048F8 9110 2006      00006        6736          TM    DX6(RW2),MQISAM      QISAM...                            45647021
 0048FC 4780 96A6      04904        6737        BC    ZERO,OPEN10       NO                                       45654021
 004900 92FC D15F      07CF7        6738          MVI   BDISP1+NX1,XXFC YES, QISAM USES 252, NOT 108 OFF DCB     45661021
 004904 9230 D15E      07CF6        6739 OPEN10   MVI   BDISP1,XX30                                              45668021
 004908 45E0 BB4C      019C4        6740          BAL   RETRG,LHALF   * LH  2,108(3) OR 252(3)                   45675021
 00490C 9203 D198      07D30        6741          MVI   XREG1,XX03                                               45682021
 004910 926E D971      08509        6742          MVI   A22CH1,XX6E    QSAM USES 110 OFF DCB                     45689021
 004914 9110 2006      00006        6743          TM    DX6(RW2),MQISAM      QISAM...                            45696021
 004918 4780 96C2      04920        6744        BC    ZERO,OPEN11            YES                                 45703021
 00491C 92FE D971      08509        6745          MVI   A22CH1,XXFE           NO, QISAM USES 254 RATHER THAN     45710021
 004920 45E0 78D2      008D2        6746 OPEN11 BAL   RETRG,GATXTV          PUT A TEXT                           45717021
 004924 0340                        6747        DC    AL2(ATXT22-ATXTBV)                                         45724021
 004926 0030                        6748        DC    AL2(ZTXT22-ATXT22)                                         45731021
 004928 47F0 9096      042F4        6749        BC    UNCOND,OPEN08           GO ON TO NEXT OPERAND              45738021
 00492C 4850 D5DE      08176        6750 OPEN07 LH    RW5,IOPARM            SET COMMON PARMAX CTR                45745021
 004930 4950 C3CA      071FA        6751        CH    RW5,XC001             ANY JPARAM'S SET UP ...              45752021
 004934 4780 9702      04960        6752        BC    EQ,CLOS15              NO, SKIP SVC GENERATION             45759021
 004938 4950 A234      00234        6753          CH    RW5,SA3CTR                                               45766021
 00493C 47D0 96E6      04944        6754        BC    NOTHI,OPEN15          SKIP NEXT INST                       45773021
 004940 4050 A234      00234        6755          STH   RW5,SA3CTR                                               45780021
 004944 9213 DA1D      085B5        6756 OPEN15   MVI   A25CH1,XX13          ASSUME OPEN                         45787021
 004948 9101 D61F      081B7        6757        TM    CLOSSW,MSWON          CLOSE...                             45794021
 00494C 4780 96F6      04954        6758        BC    ZERO,CLOS09            NO                                  45801021
 004950 9214 DA1D      085B5        6759          MVI   A25CH1,XX14          CHANGE TO CLOSE                     45808021
 004954 45E0 78D2      008D2        6760 CLOS09 BAL   RETRG,GATXTV          PUT A TEXT INST                      45815021
 004958 03E8                        6761        DC    AL2(ATXT25-ATXTBV)    *    L    1,PARAM=1                  45822021
 00495A 000A                        6762        DC    AL2(ZTXT25-ATXT25)    *    SVC  19        ...OR...  20     45829021
 00495C 45E0 7CCC      00CCC        6763        BAL    RETRG,WRKLRG         DESTROY 14, 15                       45836021
                             04960  6764 CLOS15 EQU   *                                                          45843021
 004960 9601 D61A      081B2        6765        OI    OPENSW,MSWON                                               45850021
 004964 47F0 700A      0000A        6766        BC    UNCOND,DON     *** GO GET SECOND STRING SET ***            45857021
                             04968  6767 OPEN13 EQU   *              ***     G O T    I T         ***            45864021
 004968 94FE D61A      081B2        6768        NI    OPENSW,MSWOFF                                              45871021
 00496C 4140 007C      0007C        6769          LA    RW4,LDOP                                                 45878021
 004970 47F0 971A      04978        6770          B     OPEN18              SKIP NEXT INST                       45885021
                             04974  6771 OPEN14   EQU   *                                                        45892021
1         OPEN VERB PROCESSOR     O  P  E  N                                                                    PAGE  147
-  LOC  OBJECT CODE    ADDR1 ADDR2  STMT   SOURCE STATEMENT                                       ASM 0201 11.03 02/14/15
0                            04974  6772 OPN14X   EQU   *                                                        45899021
 004974 45E0 77FA      007FA        6773        BAL   RETRG,GETDOP          GET DOP                              45906021
 004978 4124 DD4C      088E4        6774 OPEN18 LA    RW2,DOP1(RW4)                                              45913021
 00497C D501 2000 C826 00000 07656  6775          CLC   DX0(LX2,RW2),HTERM                                       45920021
 004982 4780 9A9A      04CF8        6776        BC    EQ,OPENEX             IF END, GO TO OPENEX                 45927021
 004986 9101 D61F      081B7        6777          TM    CLOSSW,XX01                                              45934021
 00498A 47E0 9772      049D0        6778          BC    NOTONE,OPEN13B      IF NOT,  GLAGED CLOSE,  GO TO.       45941021
 00498E 9101 2002      00002        6779          TM    DX2(RW2),MCLOSLCK        CLOSE WITH LOCK                 45948021
 004992 47E0 9756      049B4        6780          BC    NOTONE,OPEN13A      IF NO,  GO TO OPEN13A                45955021
 004996 D200 D18A 2005 07D22 00005  6781          MVC   XCNTR1+NX2(LX1),DX5(RW2)  DCB NUMBER                     45962021
 00499C 9202 D198      07D30        6782          MVI   XREG1,XX02                                               45969021
 0049A0 45E0 B000      00E78        6783          BAL   RETRG,LOAD              *  L  1,DCBADR                   45976021
 0049A4 9220 D15E      07CF6        6784          MVI   BDISP1,XX20                                              45983021
 0049A8 9230 D15F      07CF7        6785          MVI   BDISP1+NX1,XX30                                          45990021
 0049AC 92FD D199      07D31        6786          MVI   IMM,XXFD                                                 45997021
 0049B0 45E0 BADC      01954        6787          BAL   RETRG,NI                *  NI  48(1),X'FD'               46004021
                             049B4  6788 OPEN13A  EQU   *                                                        46011021
 0049B4 91C0 2006      00006        6789          TM    DX6(RW2),XXC0            BSAM/BDAM?                      46018021
 0049B8 4770 9716      04974        6790          BNZ   OPN14X                  YES                              46025021
 0049BC 91F0 2006      00006        6791          TM    DX6(RW2),XXF0            QSAM?                           46032021
 0049C0 4770 976E      049CC        6792          BNZ   OPEN13C                 NO                               46039021
 0049C4 9102 2006      00006        6793          TM    DX6(RW2),MAWO            APPLY WRITE ONLY?               46046021
 0049C8 4710 9716      04974        6794          BO    OPN14X              IF APPLY WRITE ONLY,  GO TO..        46053021
 0049CC                             6795 OPEN13C  DS    0H                                                       46060021
 0049CC 47F0 9988      04BE6        6796          B     CLOS10              BRANCH CLOSE10                       46067021
                             049D0  6797 OPEN13B  EQU   *                                                        46074021
 0049D0 9201 D198      07D30        6798          MVI   XREG1,XX01          *  L 1,DCBADR                        46081021
 0049D4 D200 D18A 2005 07D22 00005  6799          MVC   XCNTR1+NX2(LX1),DX5(RW2)                                 46088021
 0049DA 45E0 B000      00E78        6800          BAL   RETRG,LOAD          PUT A TEXT LOAD INST                 46095021
 0049DE 9188 DD52      088EA        6801          TM    DOP1+NX6,XX88       BDAM-D...                      47962 46102021
 0049E2 4710 97BC      04A1A        6802          BO    OPEN13D             YES                            47962 46109021
 0049E6 45E0 BDD0      01C48        6803          BAL   RETRG,GNSTEP            INCREMENT GNCTR                  46116021
 0049EA 1862                        6804          LR    RW6,RW2                                                  46123021
 0049EC D203 D85E D5C9 083F6 08161  6805          MVC   IOTXTFF7,MSGCDE         MCS CODE FIELD                   46130021
 0049F2 4120 D831      083C9        6806          LA    RW2,IOTXTFF             POINT TO LITERAL DEF             46137021
 0049F6 4130 0031      00031        6807          LA    RW3,IOTXTFF0-IOTXTFF                                     46144021
 0049FA 45E0 735E      0035E        6808          BAL   RETRG,PUTLTL        PUT A TEXT LTLDEF                    46151021
 0049FE D201 D879 A164 08411 00164  6809          MVC   IOTXTFF6(LX2),LTLCTR SET LIT ID IN ATXT                  46158021
 004A04 1826                        6810          LR    RW2,RW6                                                  46165021
 004A06 D201 D866 A15E 083FE 0015E  6811          MVC   IOTXTFF5(LX2),GNCTR                                      46172021
 004A0C D201 D890 A15E 08428 0015E  6812          MVC   IOTXTFF4(LX2),GNCTR                                      46179021
 004A12 45E0 78D2      008D2        6813          BAL   RETRG,GATXTV       *  TM 48(1),X'10'                     46186021
 004A16 0236                        6814          DC    AL2(IOTXTFF0-ATXTBV)    *  BC  1,GN                      46193021
 004A18 0030                        6815          DC    AL2(IOTXTGG-IOTXTFF0)   *  MVC  TS2#1,LITERAL            46200021
                                    6816 *                                      *   MVC  TS2#15,DDNAME           46207021
                                    6817 *                                      *  LA  1,TS2#1                   46214021
                                    6818 *                                 *  SVC  35                            46221021
 004A1A                             6819 OPEN13D  DS    0H                                                 47962 46228021
 004A1A 9102 200A      0000A        6820          TM    DX10(RW2),XX02           USER LABELS                     46235021
 004A1E 47E0 9806      04A64        6821          BC    NOTONE,BOV9             NO                               46242021
                                    6822 *        *****      *****     *****     PROCESSING FOR BOV              46249021
 004A22 91B0 2006      00006        6823          TM    DX6(RW2),XXB0             QISAM,BISAM, OR BDAM           46256021
 004A26 4770 9806      04A64        6824          BC    NOTZER,BOV9              DO NOT INACT BOF ENTRY IN X     46263021
 004A2A 9201 D198      07D30        6825          MVI   XREG1,XX01                 XXXX                          46270021
 004A2E D200 D18A 2005 07D22 00005  6826          MVC   XCNTR1+NX2(LX1),DX5(RW2)    X                            46277021
1         OPEN VERB PROCESSOR     O  P  E  N                                                                    PAGE  148
-  LOC  OBJECT CODE    ADDR1 ADDR2  STMT   SOURCE STATEMENT                                       ASM 0201 11.03 02/14/15
0004A34 45E0 B000      00E78        6827          BAL   RETRG,LOAD               * L  1,DCBADR  XXXXX            46284021
 004A38 45E0 78D2      008D2        6828          BAL   RETRG,GATXTV             * L  4,36(1)                    46291021
 004A3C 00F1                        6829          DC    AL2(IOTXTS-ATXTBV)        X                              46298021
 004A3E 0006                        6830          DC    AL2(IOTXTS1-IOTXTS)       X                              46305021
 004A40 45E0 9AB6      04D14        6831          BAL   RETRG,GETELGNS           RW3 NOW POINTS TO FIRST GN      46312021
 004A44 D501 3008 C38C 00008 071BC  6832          CLC   BOVGN,GZERO              IS GN-BOV ZERO                  46319021
 004A4A 4770 97F8      04A56        6833          BC    NOTEQ,BOV1               NO                              46326021
 004A4E 45E0 9AC4      04D22        6834          BAL   RETRG,INACTXL            *  NI 0(4),X'80'                46333021
 004A52 47F0 9806      04A64        6835          BC    UNCOND,BOV9               XXXX                           46340021
 004A56                             6836 BOV1     DS    0H                                                       46347021
 004A56 D201 D1CE 3008 07D66 00008  6837          MVC   XPN2+NX2(LX2),BOVGN       X                              46354021
 004A5C 9201 D15F      07CF7        6838          MVI   BDISP1+NX1,XX01           * MVC  1(3,4),BOVGN+1          46361021
 004A60 45E0 9ADA      04D38        6839          BAL   RETRG,MOVEGN              XXXX                           46368021
                             04A64  6840 BOV9     EQU   *                                                        46375021
 004A64 910F 2002      00002        6841          TM    DX2(RW2),XX0F            OUTPUT FILE                     46382021
 004A68 47E0 9716      04974        6842        BC    NOTONE,OPEN14          NO, DO NOT GEN BL STORES            46389021
 004A6C 91E0 2006      00006        6843          TM    DX6(RW2),MNOQQI       QSAM OR QISAM ...                  46396021
 004A70 4770 98B0      04B0E        6844        BC    NOTZER,OPEN19         NO, NOT A QUEUED FILE, NO ST BL'     46403021
 004A74 9102 2006      00006        6845          TM    DX6(RW2),XX02        WRITE ONLY APPLIED...               46410021
 004A78 4710 9716      04974        6846          BO    OPEN14                  YES, SKIP CALL TO Q-ROUTINES     46417021
                             04A7C  6847 OPEN18AA EQU   *                                                        46424021
 004A7C 91F0 2006      00006        6848          TM    DX6(RW2),XXF0            QSAM                            46431021
 004A80 4770 982E      04A8C        6849          BNZ   OPEN18BB                NO                               46438021
 004A84 9109 2006      00006        6850          TM    DX6(RW2),XX09            ADVANCING OPTION                46445021
 004A88 4770 9716      04974        6851          BC    NOTZER,OPEN14           YES                              46452021
                                    6852 *                                                                       46459021
 004A8C                             6853 OPEN18BB DS    0H                                                       46466021
 004A8C 9160 2003      00003        6854          TM    DX3(RW2),XX60       S?                                   46473021
 004A90 4710 983E      04A9C        6855          BO    OPEN18CC           YES.                                  46480021
 004A94 9108 200A      0000A        6856          TM    DX10(RW2),XX08           SAME RECORD AREA                46487021
 004A98 4710 9716      04974        6857          BC    ONES,OPEN14             YES                              46494021
 004A9C                             6858 OPEN18CC DS    0H                                                       46501021
 004A9C 45E0 7CCC      00CCC        6859        BAL    RETRG,WRKLRG         DESTROY 14, 15                       46508021
 004AA0 D200 D7C2 2005 0835A 00005  6860          MVC   IOTXTAA1(LX1),DX5(RW2)    *  L  1,DCBADR                 46515021
 004AA6 45E0 78D2      008D2        6861          BAL   RETRG,GATXTV            *  LR  2,1                       46522021
 004AAA 0190                        6862          DC    AL2(IOTXTAA-ATXTBV)                                      46529021
 004AAC 000A                        6863          DC    AL2(IOTXTBB-IOTXTAA)                                     46536021
 004AAE 9180 2002      00002        6864          TM    DX2(RW2),MCLREL          CLOSE REEL                      46543021
 004AB2 4780 9870      04ACE        6865          BC    ZERO,CLOS17          NO - OPEN                           46550021
 004AB6 45E0 BDD0      01C48        6866          BAL   RETRG,GNSTEP         YES- CODING TO TEST IF OUTPUT A     46557021
 004ABA D201 D305 A15E 07E9D 0015E  6867          MVC   GLGNCN+NX3(LX2),FIVEGN OBJECT TIME.CREATE GN FOR NON-O   46564021
 004AC0 D201 DA2E A15E 085C6 0015E  6868          MVC   A35LGN+NX4(LX2),FIVEGN    *  L  3,44(1)                  46571021
 004AC6 45E0 78D2      008D2        6869          BAL   RETRG,GATXTV            *  TM  12(3),X'0F'               46578021
 004ACA 03F2                        6870          DC    AL2(ATX35A-ATXTBV)       *    L  5,GN    (BRANCH ARO     46585021
 004ACC 0015                        6871          DC    AL2(ZTX35A-ATX35A)       *    BCR 14,5    EXTRA PUT)     46592021
                             04ACE  6872 CLOS17   EQU   *                                                        46599021
 004ACE 45E0 78D2      008D2        6873        BAL   RETRG,GATXTV          PUT A  TEXT                          46606021
 004AD2 002A                        6874        DC    AL2(IOTXTG-ATXTBV)                                         46613021
 004AD4 0009                        6875        DC    AL2(IOTXTH-IOTXTG)                                         46620021
 004AD6 45E0 7CCC      00CCC        6876        BAL   RETRG,WRKLRX         DESTROY 14, 15                        46627021
 004ADA 9160 2003      00003        6877          TM    DX3(RW2),XX60        VAR LENGTH...                       46634021
 004ADE 4740 9894      04AF2        6878          BC    MIXED,OPEN21             NO                              46641021
 004AE2 9201 D198      07D30        6879          MVI   XREG1,XX01            YES                                46648021
 004AE6 9210 D15E      07CF6        6880          MVI   BDISP1,XX10                                              46655021
 004AEA 9204 D15F      07CF7        6881          MVI   BDISP1+NX1,XX04                                          46662021
1         OPEN VERB PROCESSOR     O  P  E  N                                                                    PAGE  149
-  LOC  OBJECT CODE    ADDR1 ADDR2  STMT   SOURCE STATEMENT                                       ASM 0201 11.03 02/14/15
0004AEE 45E0 BB7C      019F4        6882        BAL   RETRG,LA              *    LA   1,4(1) ** VAR LEN ONLY     46669021
                             04AF2  6883 OPEN21 EQU   *                                                          46676021
 004AF2 D200 9B14 2002 04D72 00002  6884          MVC   OPNOPTNS,DX2(RW2)        SAVE OPEN OPTIONS               46683021
 004AF8 9108 200A      0000A        6885          TM    DX10(RW2),XX08            SAME RECORD AREA ?             46690021
 004AFC 4710 98B0      04B0E        6886          BO    OPEN19             YES.                                  46697021
 004B00 9200 2002      00002        6887          MVI   DX2(RW2),XX00            ZERO OUT MAJOR CODE FOR IOST    46704021
 004B04 45E0 78BC      008BC        6888        BAL   RETRG,IOSTBL               STORE ALL BL'S                  46711021
 004B08 D200 2002 9B14 00002 04D72  6889          MVC   DX2(LX1,RW2),OPNOPTNS     RESTORE OPEN OPTIONS           46718021
 004B0E 45E0 7884      00884        6890 OPEN19 BAL   RETRG,IOQRTN          GEN CALLS ON Q-ROUTINES              46725021
 004B12 9103 D61F      081B7        6891          TM    CLOSSW,MCLCLR           CLOSE REEL?                      46732021
 004B16 47B0 9716      04974        6892          BNM   OPEN14                  NO                               46739021
 004B1A 45E0 BA24      0189C        6893          BAL   RETRG,GNOPT3            YES, DEFINE GN                   46746021
 004B1E 47F0 9716      04974        6894        BC    UNCOND,OPEN14         BRANCH OPEN14                        46753021
                             04B22  6895 CLOS05 EQU   *                CLOSE...  QSAM, QISAM PRIOR TO SVC 20     46760021
 004B22 91F0 2006      00006        6896          TM    DX6(RW2),XXF0            QSAM                            46767021
 004B26 4770 98D4      04B32        6897          BNZ   CLOS05A                 NO                               46774021
 004B2A 910B 2006      00006        6898          TM    DX6(RW2),MAWO+NX9        ADVANCING OR AWO                46781021
 004B2E 4770 9096      042F4        6899          BNZ   OPEN08                  YES, SKIP NEGATE LAST PUT        46788021
 004B32                             6900 CLOS05A  DS    0H                                                       46795021
 004B32 9160 2003      00003        6901          TM    DX3(RW2),XX60       S?                                   46802021
 004B36 4710 98E4      04B42        6902          BO    CLOS05B            YES.                                  46809021
 004B3A 9108 200A      0000A        6903          TM    DX10(RW2),XX08           SAME RECORD AREA                46816021
 004B3E 4710 9096      042F4        6904          BC    ONES,OPEN08             YES                              46823021
 004B42                             6905 CLOS05B  DS    0H                                                       46830021
 004B42 9201 D198      07D30        6906          MVI   XREG1,XX01                                               46837021
 004B46 D200 D18A 2005 07D22 00005  6907          MVC   XCNTR1+NX2(LX1),DX5(RW2)                                 46844021
 004B4C 45E0 B000      00E78        6908        BAL   RETRG,LOAD            *    L    1,DCBADR=FN                46851021
 004B50 9208 DA13      085AB        6909          MVI   A35CH1,XX08          SET UP N FOR QISAM                  46858021
 004B54 9110 2006      00006        6910          TM    DX6(RW2),MQISAM      QISAM...                            46865021
 004B58 4710 990A      04B68        6911        BC    ONES,CLOS06            YES                                 46872021
 004B5C 9210 DA13      085AB        6912          MVI   A35CH1,XX10          CHANGE N TO QSAM FX LEN             46879021
 004B60 9160 2003      00003        6913          TM    DX3(RW2),XX60        VAR LEN...                          46886021
 004B64 47B0 993A      04B98        6914          BC    NOTMXD,CLOS08       VAR OR SPANNED?                      46893021
 004B68 45E0 78D2      008D2        6915 CLOS06 BAL   RETRG,GATXTV          PUT A TEXT                           46900021
 004B6C 03D3                        6916        DC    AL2(ATXT35-ATXTBV)    *    L    2,44(1)                    46907021
 004B6E 0015                        6917        DC    AL2(ZTXT35-ATXT35)    *    TM   12(2),X'0F'                46914021
                                    6918 *                                  *    BALR 5,0                        46921021
                                    6919 *                                  *    BC   14,**(5)   ** = N          46928021
 004B70 9110 2006      00006        6920          TM    DX6(RW2),MQISAM      QISAM...                            46935021
 004B74 4710 9926      04B84        6921        BC    ONES,CLOS07            YES                                 46942021
 004B78 45E0 78C6      008C6        6922        BAL   RETRG,GATXTC          PUT A TEXT                           46949021
 004B7C 0003                        6923        DC    AL2(ATXT37-ATXTBC)    *    L    2,76(1)                    46956021
 004B7E 0012                        6924        DC    AL2(ZTXT37-ATXT37)    *    SH   2,82(1)                    46963021
                                    6925 *                                  *    ST   2,76(1)                    46970021
 004B80 47F0 9096      042F4        6926        BC    UNCOND,OPEN08         GO TO OPEN08                         46977021
0
 004B84 9240 D199      07D31        6928 CLOS07   MVI   IMM,XX40                                                 46991021
 004B88 9210 D15E      07CF6        6929          MVI   BDISP1,XX10                                              46998021
 004B8C 9251 D15F      07CF7        6930          MVI   BDISP1+NX1,XX51                                          47005021
 004B90 45E0 BACC      01944        6931        BAL     RETRG,OI           *  OI  81(1),X'40'                    47012021
 004B94 47F0 9096      042F4        6932        BC    UNCOND,OPEN08         GO TO OPEN08                         47019021
0
                             04B98  6934 CLOS08 EQU   *                                                          47033021
1         OPEN VERB PROCESSOR     O  P  E  N                                                                    PAGE  150
-  LOC  OBJECT CODE    ADDR1 ADDR2  STMT   SOURCE STATEMENT                                       ASM 0201 11.03 02/14/15
0004B98 45E0 BDD0      01C48        6935        BAL   RETRG,GNSTEP         CREATE BRANCH-AROUND GN FOR           47040021
 004B9C D201 D305 A15E 07E9D 0015E  6936          MVC   GLGNCN+NX3(LX2),FIVEGN    NON OUTPUT FILES               47047021
 004BA2 D201 DA2E A15E 085C6 0015E  6937          MVC   A35LGN+NX4(LX2),FIVEGN    *    L    2,44(1)              47054021
 004BA8 45E0 78D2      008D2        6938        BAL   RETRG,GATXTV              *    TM   12(2),X'0F'            47061021
 004BAC 03F2                        6939        DC    AL2(ATX35A-ATXTBV)        *    L    5,GN                   47068021
 004BAE 0015                        6940        DC    AL2(ZTX35A-ATX35A)        *    BCR  14,5                   47075021
 004BB0 D200 D197 2004 07D2F 00004  6941          MVC   BLREF1+NX1(LX1),DX4(RW2)                                 47082021
 004BB6 9202 D198      07D30        6942          MVI   XREG1,XX02                                               47089021
 004BBA 45E0 B000      00E78        6943        BAL   RETRG,LOAD            *    L    2,BL=FN  (1ST BL ONLY)     47096021
 004BBE 9204 D17F      07D17        6944          MVI   XCON1+NX15,XX04                                          47103021
 004BC2 9202 D180      07D18        6945          MVI   XCON1+NX16,XX02                                          47110021
 004BC6 9202 D198      07D30        6946          MVI   XREG1,XX02                                               47117021
 004BCA 45E0 BB5C      019D4        6947        BAL   RETRG,SHALF           *    SH   2,='0004'                  47124021
 004BCE 9202 D159      07CF1        6948          MVI   XL1+NX1,XX02                                             47131021
 004BD2 9220 D15E      07CF6        6949          MVI   BDISP1,XX20                                              47138021
 004BD6 9220 D1A6      07D3E        6950          MVI   BDISP2,XX20                                              47145021
 004BDA 45E0 BAA4      0191C        6951          BAL   RETRG,EXORLG            *  XC  0(2,2),0(2)               47152021
 004BDE 45E0 BA24      0189C        6952        BAL   RETRG,GNOPT3         GENR BRANCH-AROUND GN                 47159021
 004BE2 47F0 9096      042F4        6953        BC    UNCOND,OPEN08         BRANCH TO OPEN08                     47166021
0
 004BE6 9180 2002      00002        6955 CLOS10   TM    DX2(RW2),MCLREL CLOSE REEL                               47180021
 004BEA 4710 981E      04A7C        6956          BO    OPEN18AA                YES, BYPASS FREEPOOL             47187021
 004BEE 91E0 2006      00006        6957          TM    DX6(RW2),MNOQQI QSAM OR QISAM                            47194021
 004BF2 4780 9A02      04C60        6958        BC    ZERO,CLOS11            YES                                 47201021
 004BF6 9120 2006      00006        6959          TM    DX6(RW2),XX20       BISAM...                       37374 47208021
 004BFA 4780 9716      04974        6960          BZ    OPEN14              NO                             37374 47215021
 004BFE 9106 2006      00006        6961          TM    DX6(RW2),XX06       HAS TRACK-AREA IS INTEGER      37374 47222021
                                    6962 *      OR APPLY CORE-INDEX BEEN SPECIFIED FOR THIS FILE...        37374 47229021
 004C02 4780 9716      04974        6963          BZ    OPEN14              NO                             37374 47236021
                                    6964 *                                                                 37374 47243021
                                    6965 *      HERE WE GENERATE THE FREEMAINS FOR AREAS OF STORAGE WHICH  37374 47250021
                                    6966 *      WERE GETMAINED FOR THE BISAM OPTIONS 'TRACK-AREA IS INTE-  37374 47257021
                                    6967 *      GER' AND 'APPLY CORE-INDEX'.                               37374 47264021
                                    6968 *                                                                 37374 47271021
 004C06 9101 2002      00002        6969          TM    DX2(RW2),MCLOSLCK        CLOSE LOCK                      47278021
 004C0A 4710 99BE      04C1C        6970          BO    CLOS10A             YES, SKIP NEXT INST                  47285021
 004C0E 9202 D198      07D30        6971          MVI   XREG1,XX02                                               47292021
 004C12 D200 D18A 2005 07D22 00005  6972          MVC   XCNTR1+NX2(LX1),DX5(RW2)                                 47299021
 004C18 45E0 B000      00E78        6973        BAL   RETRG,LOAD            *    L    1,DCBADR=FN                47306021
0
 004C1C                             6975 CLOS10A  DS    0H                                                 37374 47320021
 004C1C 9102 2006      00006        6976          TM    DX6(RW2),XX02       APPLY CORE-INDEX...            37374 47327021
 004C20 4780 99CA      04C28        6977          BZ    CLOS10B             NO                             37374 47334021
 004C24 45E0 9A60      04CBE        6978          BAL   RETRG,CLOS03        GENERATE FREEMAIN              37374 47341021
 004C28                             6979 CLOS10B  DS    0H                                                 37374 47348021
 004C28 9104 2006      00006        6980          TM    DX6(RW2),XX04       TRACK-AREA IS INTEGER...       37374 47355021
 004C2C 4780 99FE      04C5C        6981          BZ    CLOS10C             NO                             37374 47362021
 004C30 9246 D8D0      08468        6982          MVI   A02CH1,XX46         INDICATE OFFSETS OF 70         37374 47369021
 004C34 9247 D8DC      08474        6983          MVI   A02CH3,XX47                                        41095 47376021
 004C38 9240 D8E5      0847D        6984          MVI   A02CH4,XX40                                        41095 47383021
 004C3C 9240 D8E8      08480        6985          MVI   A02CH5,XX40                                        41095 47390021
 004C40 9240 D8B3      0844B        6986          MVI   A02CH2,XX40           AND 64 INTO DCB              37374 47397021
 004C44 45E0 9A60      04CBE        6987          BAL   RETRG,CLOS03        GENERATE FREEMAINS             37374 47404021
1         OPEN VERB PROCESSOR     O  P  E  N                                                                    PAGE  151
-  LOC  OBJECT CODE    ADDR1 ADDR2  STMT   SOURCE STATEMENT                                       ASM 0201 11.03 02/14/15
0004C48 9244 D8D0      08468        6988          MVI   A02CH1,XX44         RESTORE ORIGINAL               41095 47411021
 004C4C 9245 D8DC      08474        6989          MVI   A02CH3,XX45                                        41095 47418021
 004C50 9248 D8B3      0844B        6990          MVI   A02CH2,XX48              OFFSETS INTO DCB          41095 47425021
 004C54 9248 D8E5      0847D        6991          MVI   A02CH4,XX48                                        41095 47432021
 004C58 9248 D8E8      08480        6992          MVI   A02CH5,XX48                                        41095 47439021
 004C5C                             6993 CLOS10C  DS    0H                                                 37374 47446021
 004C5C 47F0 9716      04974        6994          B    OPEN14               CONTINUE PROCESSING            37374 47453021
0
 004C60                             6996 CLOS11   DS    0H                                                       47467021
 004C60 9104 200A      0000A        6997          TM    DX10(RW2),XX04           SAME AREA?                      47474021
 004C64 4710 9716      04974        6998        BC    ONES,OPEN14            YES, NO SECOND STRING ACTION        47481021
 004C68 9101 2002      00002        6999          TM    DX2(RW2),MCLOSLCK        CLOSE LOCK                      47488021
 004C6C 4710 9A20      04C7E        7000          BO    CLOS11A                 YES                              47495021
 004C70 9202 D198      07D30        7001          MVI   XREG1,XX02                                               47502021
 004C74 D200 D18A 2005 07D22 00005  7002          MVC   XCNTR1+NX2(LX1),DX5(RW2)                                 47509021
 004C7A 45E0 B000      00E78        7003        BAL   RETRG,LOAD            *    L    2,DCBADR=FN                47516021
                             04C7E  7004 CLOS11A  EQU   *                                                        47523021
 004C7E 9208 C909      07739        7005          MVI   ATXT380,XX08        ASSUME NON S                         47530021
 004C82 9160 2003      00003        7006          TM    DX3(RW2),XX60       S?                                   47537021
 004C86 47E0 9A38      04C96        7007          BNO   CLOS11B            NO                                    47544021
 004C8A 9108 200A      0000A        7008          TM    DX10(RW2),XX08      SRA                                  47551021
 004C8E 4710 9716      04974        7009          BO    OPEN14             YES.                                  47558021
 004C92 9210 C909      07739        7010          MVI   ATXT380,XX10                                             47565021
 004C96                             7011 CLOS11B   DS    0H                                                      47572021
 004C96 45E0 78C6      008C6        7012        BAL   RETRG,GATXTC          *    L    1,20(2)                    47579021
 004C9A 0015                        7013        DC    AL2(ATXT38-ATXTBC)    *    OI   23(2),1                    47586021
 004C9C 002A                        7014        DC    AL2(ZTXT38-ATXT38)    *    LH   4,4(1)                     47593021
                                    7015 *                                  *    MH   4,6(1)                     47600021
                                    7016 *                             *  LA 0,8(4)        *  LA   1,0(1)        47607021
                                    7017 *                             *  SVC  10                                47614021
 004C9E 45E0 7CCC      00CCC        7018        BAL   RETRG,WRKLRX         DESTROY 14, 15                        47621021
 004CA2 47F0 9716      04974        7019        BC    UNCOND,OPEN14         GO TO OPEN14                         47628021
0
                             04CA6  7021 CLOS02 EQU   *                                                          47642021
 004CA6 45E0 78D2      008D2        7022          BAL   RETRG,GATXTV            *  L  4,36(1)                    47649021
 004CAA 00F1                        7023          DC    AL2(IOTXTS-ATXTBV)                                       47656021
 004CAC 0006                        7024          DC    AL2(IOTXTS1-IOTXTS)                                      47663021
 004CAE 45E0 78D2      008D2        7025          BAL   RETRG,GATXTV       PUT A-TEXT                            47670021
0
 004CB2 0656                        7027          DC    AL2(IOTXTZ9-ATXTBV)                                      47684021
 004CB4 0015                        7028          DC    AL2(IOTXTZ99-IOTXTZ9)                                    47691021
 004CB6 45E0 7CCC      00CCC        7029          BAL   RETRG,WRKLRX        DESTROY 14, 15                       47698021
 004CBA 47F0 902A      04288        7030          B     OPEN01              GO TO OPEN01                         47705021
-
 004CBE                             7032 CLOS03   DS    0H                                                 37374 47719021
 004CBE 50E0 C5BC      073EC        7033          ST    RETRG,SVWJHF        SAVE 14                        37374 47726021
 004CC2 45E0 78D2      008D2        7034          BAL   RETRG,GATXTV        * FREEMAINS FOR AREAS          37374 47733021
 004CC6 0282                        7035          DC    AL2(ATXT02-ATXTBV)  * GETMAINED DURING             37374 47740021
 004CC8 0013                        7036          DC    AL2(ATXT02A-ATXT02)      * GETMAINED PREVIOUSLY    41095 47747021
 004CCA 45E0 BDD0      01C48        7037          BAL   RETRG,GNSTEP        BUMP GNCTR                     41095 47754021
1         OPEN VERB PROCESSOR     O  P  E  N                                                                    PAGE  152
-  LOC  OBJECT CODE    ADDR1 ADDR2  STMT   SOURCE STATEMENT                                       ASM 0201 11.03 02/14/15
0004CCE D201 D305 A15E 07E9D 0015E  7038          MVC   GLGNCN+NX3(LX2),FIVEGN   SAVE GN NUM FOR GN DEF    41095 47761021
 004CD4 920F D198      07D30        7039          MVI   XREG1,XX0F                                         41095 47768021
 004CD8 D201 D182 A15E 07D1A 0015E  7040          MVC   XGN1,GNCTR                                         41095 47775021
 004CDE 45E0 B000      00E78        7041          BAL   RETRG,LOAD          * L    15,GN(NO FREEMAIN)      41095 47782021
 004CE2 45E0 78D2      008D2        7042          BAL   RETRG,GATXTV        GENERATE                       41095 47789021
 004CE6 0295                        7043          DC    AL2(ATXT02A-ATXTBV)      END OF FREEMAIN           41095 47796021
 004CE8 0028                        7044          DC    AL2(ZTXT02-ATXT02A)           SEQUENCE             41095 47803021
 004CEA 45E0 7CCC      00CCC        7045          BAL   RETRG,WRKLRX        DESTROY 14,15                  41095 47810021
 004CEE 45E0 BA24      0189C        7046          BAL   RETRG,GNOPT3        GN DEFINITION                  41095 47817021
 004CF2 58E0 C5BC      073EC        7047          L     RETRG,SVWJHF        RESTORE 14                     37374 47824021
 004CF6 07FE                        7048          BR    RETRG               RETURN TO CALLER               37374 47831021
-
                             04CF8  7050 OPENEX EQU   *                                                          47845021
 004CF8 9101 D61F      081B7        7051          TM    CLOSSW,XX01         IS IT OPEN                           47852021
 004CFC 4710 700A      0000A        7052          BC    ONES,DON                NO                               47859021
 004D00 4130 002E      0002E        7053          LA    RW3,IOTXTFF0-IOTXTFF1   TOTL LNGTH OF LITERAL            47866021
 004D04 4930 A16A      0016A        7054          CH    RW3,TS2MAX                                               47873021
 004D08 47D0 700A      0000A        7055          BC    NOTHI,DON           RETURN TO PHASE 5 CONTROL            47880021
 004D0C 4030 A16A      0016A        7056          STH   RW3,TS2MAX                                               47887021
 004D10 47F0 700A      0000A        7057          BC    UNCOND,DON          RETURN TO PHASE 5 CONTROL            47894021
 004D14 1B33                        7058 GETELGNS SR    RW3,RW3                                                  47901021
 004D16 4332 0001      00001        7059          IC    RW3,DX1(RW2)              PICK UP COUNT                  47908021
 004D1A 1A32                        7060          AR    RW3,RW2                  ADD ADDRESS OF FILE ATTRIBU     47915021
 004D1C 4B30 C6C6      074F6        7061          SH    RW3,XC011                BACK UP 11 BYTES                47922021
 004D20 07FE                        7062          BCR   UNCOND,RETRG             RETURN                          47929021
 004D22 50E0 C688      074B8        7063 INACTXL  ST    RETRG,DWB                MUST INIT BDISP+1 BEFORE EN     47936021
 004D26 9280 D199      07D31        7064          MVI   IMM,XX80                   XXXX                          47943021
 004D2A 9240 D15E      07CF6        7065          MVI   BDISP1,XX40                X                             47950021
 004D2E 45E0 BADC      01954        7066          BAL   RETRG,NI                 *  NI  0(4),X'80'               47957021
 004D32 58E0 C688      074B8        7067          L     RETRG,DWB                 X                              47964021
 004D36 07FE                        7068          BCR   UNCOND,RETRG              XXXX                           47971021
 004D38 50E0 C688      074B8        7069 MOVEGN   ST    RETRG,DWB                 XXXX                           47978021
 004D3C 9240 D15E      07CF6        7070          MVI   BDISP1,XX40                X                             47985021
 004D40 9201 D1D5      07D6D        7071          MVI   PLUS2+NX2,XX01            MUST INIT XGN2 & BDISP1+1      47992021
 004D44 9203 D159      07CF1        7072          MVI   XL1+NX1,XX03               X                             47999021
 004D48 45E0 B18C      01004        7073          BAL   RETRG,MVC                *  MVC  DISPL(3,4),GN+1         48006021
 004D4C 58E0 C688      074B8        7074          L     RETRG,DWB                 X                              48013021
 004D50 07FE                        7075          BCR   UNCOND,RETRG              XXXX                           48020021
 004D52                             7076 REORGEN  DS    0H                                                       48027021
 004D52 5010 D148      07CE0        7077          ST    RW1,OP1                 INIT ATXT FIELD                  48034021
 004D56 9210 D1A6      07D3E        7078          MVI   BDISP2,XX10                                              48041021
 004D5A 4250 D18D      07D25        7079          STC   RW5,PLUS1+NX2                                            48048021
 004D5E 4250 D159      07CF1        7080          STC   RW5,XL1+NX1                                              48055021
 004D62 4155 0002      00002        7081          LA    RW5,DX2(RW5)                                             48062021
 004D66 07FE                        7082          BR    RETRG               RETURN CALLER                        48069021
 004D68 300804B0000000FF            7083 REORGDN  DC    X'300804B0000000FFFFFF'    DUMMY DN FOR ATXT GENRATOR    48076021
 004D72                             7084 OPNOPTNS DS    C                       STORAGE AREA FOR OPEN OPTIONS    48083021
                             04D73  7085 MACRTABL EQU   *                       THIS TABLE MUST STAY TOGETHER    48090021
 004D73 4800480022002000            7086          DC    X'48004800220020002900'          X                       48097021
 004D7D 0048004800000028            7087          DC    X'0048004800000028012A'   X                              48104021
 004D87 4848484422200000            7088          DC    X'4848484422200000292A'          X                       48111021
                                    7089 *                  THE ABOVE TABLE HAS THE FOLLOWING FORMAT             48118021
                                    7090 *                       QSAM  QISAM  BISAM  BSAM  BDAM                  48125021
1         OPEN VERB PROCESSOR     O  P  E  N                                                                    PAGE  153
-  LOC  OBJECT CODE    ADDR1 ADDR2  STMT   SOURCE STATEMENT                                       ASM 0201 11.03 02/14/15
0                                   7091 *                  INPUT                                                48132021
                                    7092 *                  OUTPUT                                               48139021
                                    7093 *                  I/O                                                  48146021
1         IKFCBL51: START VERB PROCESSOR  S T A R T                                                             PAGE  154
-  LOC  OBJECT CODE    ADDR1 ADDR2  STMT   SOURCE STATEMENT                                       ASM 0201 11.03 02/14/15
0                                   7095 *=1      START                                                          48160021
                                    7096 *******************************************************************     48167021
                                    7097 *                     START  VERB  ANALYZER                             48174021
                                    7098 *                                                                       48181021
                                    7099 *                NON SEGMENTED  STRING  INPUT                           48188021
                                    7100 *                                                                       48195021
                                    7101 *                         START                                         48202021
                                    7102 *                                                                       48209021
                                    7103 *                           FILENAME                                    48216021
                                    7104 *                                                                       48223021
                                    7105 *                                      GN - INVALID - KEY               48230021
                                    7106 *                                                                       48237021
                                    7107 *                                      GN - NEXT - SENTENCE             48244021
                                    7108 *                                                                       48251021
                                    7109 *******************************************************************     48258021
 004D92                             7110 START  DS    0H                                                         48265021
                             04D92  7111          USING *,GVERB                                                  48272021
 004D92 45E0 7CCC      00CCC        7112          BAL   RETRG,WRKLRG            DESTROY 14,15   STORE SUBSCR     48279021
 004D96 D200 D7C2 DD51 0835A 088E9  7113          MVC   IOTXTAA1(LX1),DOP1+NX5    DCB NUMBER                     48286021
 004D9C 45E0 78D2      008D2        7114          BAL   RETRG,GATXTV            *  L  1,DCBADR                   48293021
 004DA0 0190                        7115          DC    AL2(IOTXTAA-ATXTBV)     *  LR  2,1                       48300021
 004DA2 000A                        7116          DC    AL2(IOTXTBB-IOTXTAA)                                     48307021
 004DA4 45E0 7A28      00A28        7117          BAL   RETRG,INVCK         INVALID KEY CODED...           58971 48314021
 004DA8 4770 901E      04DB0        7118          BC    NOTEQ,START01           NO                               48321021
 004DAC 45E0 7A10      00A10        7119          BAL   RETRG,INVKEY            *  MVC  DCB-8(4),GN-INV-KEY      48328021
 004DB0                             7120 START01  DS    0H                                                 48973 48335021
 004DB0 45E0 78D2      008D2        7121          BAL   RETRG,GATXTV            *  ESETL                         48342021
 004DB4 0106                        7122          DC    AL2(IOTXTT-ATXTBV)      *  SETL                          48349021
 004DB6 004F                        7123          DC    AL2(IOTXTU-IOTXTT)       X                               48356021
 004DB8 45E0 7CCC      00CCC        7124        BAL   RETRG,WRKLRX         DESTROY 14, 15                        48363021
 004DBC 45E0 7CDE      00CDE        7125          BAL   RETRG,ISINVK            INVALID KEY                      48370021
 004DC0 4770 700A      0000A        7126          BC    NOTEQ,DON           RETURN PHASE 5 CONTROL               48377021
 004DC4 45E0 7A8C      00A8C        7127          BAL   RETRG,ENDINVKY          *  OI  DCB-5,1                   48384021
                                    7128 *                                      *  BC  15,GN-NEXT-SENTENCE       48391021
 004DC8 47F0 700A      0000A        7129          BC    UNCOND,DON              EXIT                             48398021
1         IKFCBL51: CHECKPOINT PROCESSOR C H E C K P O I N T                                                    PAGE  155
-  LOC  OBJECT CODE    ADDR1 ADDR2  STMT   SOURCE STATEMENT                                       ASM 0201 11.03 02/14/15
0                                   7131 *     CPREAD AND CPWRIT                                                 48412021
                                    7132 *****************************************************************       48419021
                                    7133 *     INTERCEPT FOR READ AND WRITE WHEN RERUN IS INVOLVED.              48426021
                                    7134 *                                                                       48433021
                                    7135 *     VERB STRING IS IDENTICAL TO READ (OR WRITE) EXCEPT FOR            48440021
                                    7136 *        VERB CODE.  AFTER OBJECT CODE IS PUT OUT TO HANDLE             48447021
                                    7137 *        THE CHECKPOINT, CONTROL IS PASSED TO READ (OR WRITE)           48454021
                                    7138 *        FOR NORMAL PROCESSING.                                         48461021
                                    7139 *                                                                       48468021
                                    7140 *****************************************************************       48475021
                             04DCC  7141          USING *,GVERB                                                  48482021
 004DCC                             7142 READCHCK DS    0H                                                       48489021
 004DCC 9601 D628      081C0        7143          OI    CPFLAG,XX01         SET FLAG FOR READ              45673 48496021
 004DD0 9101 D609      081A1        7144          TM    READSW,MSWON            SECOND STRING?                   48503021
 004DD4 4710 9014      04DE0        7145          BC    ONES,CPSKIP         YES.                                 48510021
 004DD8 5890 C35C      0718C        7146          L     GVERB,ADCN72        ADJUST BASE REG.                     48517021
                             04DE8  7147          USING CPWRIT,GVERB                                             48524021
 004DDC 47F0 9014      04DFC        7148          BC    UNCOND,CPBOTH       BRANCH TO CPBOTH                     48531021
 004DE0 5890 C35C      0718C        7149 CPSKIP   L     GVERB,ADCN72                                             48538021
 004DE4 47F0 9144      04F2C        7150         BC    UNCOND,DONE4         GO TO DONE4                          48545021
                                    7151 *                                                                       48552021
                                    7152 *                                                                       48559021
                                    7153 *                                                                       48566021
                             04DE8  7154          USING *,GVERB                                                  48573021
 004DE8                             7155 WRITCHCK DS    0H                                                       48580021
 004DE8                             7156 CPWRIT   DS    0H                                                 45673 48587021
 004DE8 9602 D628      081C0        7157          OI    CPFLAG,XX02         SET FLAG FOR WRITE             45673 48594021
 004DEC 9188 DD52      088EA        7158          TM    DOP1+NX6,MBDAM+NX8       BDAM-D                          48601021
 004DF0 4710 916A      04F52        7159          BO    CPW                     YES - COMEBACK AFTER WRITE       48608021
 004DF4 9101 D61D      081B5        7160         TM    WRITSW,MSWON         SECOND STRING?                       48615021
 004DF8 4710 9144      04F2C        7161          BC    ONES,DONE4          YES                                  48622021
                             04DFC  7162 CPBOTH   EQU   *         BDAM-D WILL ENTER HERE FROM WRITE              48629021
 004DFC 9026 C400      07230        7163          STM   RW2,RW6,SVWJHE      SAVE REGISTERS                       48636021
 004E00 45E0 7CCC      00CCC        7164          BAL   RETRG,WRKLRG            DESTROY 14,15   STORE SUBSCR     48643021
 004E04 4120 DD4C      088E4        7165          LA    RW2,DOP1                                                 48650021
 004E08 5830 CD60      07B90        7166          L     RW3,ARNTBL          ADDR.OF RUNTBL TIB.                  48657021
 004E0C D502 3001 C6A8 00001 074D8  7167          CLC   DX1(LX3,RW3),XC000    IS A(TAMM) FIELD ZERO?             48664021
 004E12 4780 9140      04F28        7168          BC    ZERO,RNRWDN         YES, NO TABLE.                       48671021
 004E16 1B44                        7169          SR    RW4,RW4             CLEAR RW4                            48678021
 004E18 4343 0000      00000        7170          IC    RW4,DX0(RW3)         ENTRY LENGTH IN RW4.                48685021
 004E1C 5833 0000      00000        7171          L     RW3,DX0(RW3)         ADDR.OF RUNTBL TAMM                 48692021
 004E20 D501 C6A8 3004 074D8 00004  7172          CLC   XC000(LX2),DX4(RW3)   CHECK N1                           48699021
 004E26 4780 9140      04F28        7173          BC    EQ,RNRWDN           BRANCH IF NO ENTRIES USED.           48706021
 004E2A 4853 0004      00004        7174          LH    RW5,DX4(RW3)         NO.OF BYTES USED IN RW5             48713021
 004E2E 5833 0000      00000        7175          L     RW3,DX0(RW3)         ADDR.OF TABLE IN RW3.               48720021
 004E32 5430 C6F4      07524        7176          N     RW3,XEMK1           AND OFF HIGH ORDER BYTE.             48727021
 004E36 1A53                        7177          AR    RW5,RW3             ADDR.OF END OF TABLE.                48734021
 004E38 1B54                        7178          SR    RW5,RW4             ADDR.OF LAST ENTRY IN RW5            48741021
 004E3A 4160 0001      00001        7179          LA    RW6,DX1(RW0)         RW6=1                               48748021
 004E3E D500 2005 3001 00005 00001  7180 RNSCN    CLC   DX5(LX1,RW2),DX1(RW3) COMPARE DCB#S. DOP VS.RUNTBL.      48755021
 004E44 4780 906C      04E54        7181          BE    RUNRW               BRANCH IF EQUAL                      48762021
 004E48 4166 0001      00001        7182          LA    RW6,DX1(RW6)         INCREMENT ENTRY# COUNTER.           48769021
 004E4C 8734 9056      04E3E        7183          BXLE  RW3,RW4,RNSCN       LOOP..  TO RNSCN                     48776021
 004E50 47F0 9140      04F28        7184          BC    UNCOND,RNRWDN       GO TO RNRWDN                         48783021
 004E54 4060 D62A      081C2        7185 RUNRW    STH   RW6,HALFWD          ENTRY NO.                            48790021
1         IKFCBL51: CHECKPOINT PROCESSOR C H E C K P O I N T                                                    PAGE  156
-  LOC  OBJECT CODE    ADDR1 ADDR2  STMT   SOURCE STATEMENT                                       ASM 0201 11.03 02/14/15
0004E58 1853                        7186          LR    RW5,RW3                                                  48797021
 004E5A D201 DC3B D62A 087D3 081C2  7187          MVC   A106CH1+NX5(LX2),HALFWD   MOVE IT INTO GLOBAL TABLE      48804021
 004E60 D201 DC4B 3002 087E3 00002  7188          MVC   A106CH3+NX5(LX2),DX2(RW3) MOVE DCB # OF CKPT FILE        48811021
 004E66 91F0 DD52      088EA        7189          TM    DOP1+NX6,XXF0            QSAM?                           48818021
 004E6A 4770 90DA      04EC2        7190          BNZ   NOTQSAM             IF NOT QSAM,  GO TO..                48825021
 004E6E 9102 D628      081C0        7191          TM    CPFLAG,XX02         WRITE...                       45673 48832021
 004E72 4780 90DA      04EC2        7192          BZ    NOTQSAM             NO, READ                       45673 48839021
 004E76 D200 D18A DD51 07D22 088E9  7193          MVC   XCNTR1+NX2(LX1),DOP1+NX5  DCB NUMBER OF FILE             48846021
 004E7C 9201 D198      07D30        7194          MVI   XREG1,XX01                                               48853021
 004E80 45E0 B000      00E78        7195          BAL   RETRG,LOAD              *  L  1,DCBADR                   48860021
 004E84 D201 D1C6 D2FE 07D5E 07E96  7196          MVC   XCON2+NX14(LX2),PUTOUTCN                                 48867021
 004E8A 9202 D1C8      07D60        7197          MVI   XCON2+NX16,XX02                                          48874021
 004E8E 9202 D159      07CF1        7198          MVI   XL1+NX1,XX02                                             48881021
 004E92 9210 D15E      07CF6        7199          MVI   BDISP1,XX10                                              48888021
 004E96 9260 D15F      07CF7        7200          MVI   BDISP1+NX1,XX60                                          48895021
 004E9A 45E0 B158      00FD0        7201          BAL   RETRG,CLC               *   CLC  96(2,1),LIT=X'05EF'     48902021
 004E9E 45E0 BDD0      01C48        7202          BAL   RETRG,GNSTEP            INCREMENT GNCTR                  48909021
 004EA2 D201 DDE6 A15E 0897E 0015E  7203          MVC   DOP2+NX30(LX2),GNCTR      SAVE GN NUMBER                 48916021
 004EA8 9201 D198      07D30        7204          MVI   XREG1,XX01                                               48923021
 004EAC D201 D182 A15E 07D1A 0015E  7205          MVC   XGN1,GNCTR                                               48930021
 004EB2 45E0 B000      00E78        7206          BAL   RETRG,LOAD              *  L  1,GN-NEXT-SENT             48937021
 004EB6 9207 D198      07D30        7207          MVI   XREG1,XX07               BRANCH NOT EQUAL                48944021
 004EBA 9201 D1E0      07D78        7208          MVI   XREG2,XX01                                               48951021
 004EBE 45E0 BBAE      01A26        7209          BAL   RETRG,BRANCH            *  BCR  EQ,1                     48958021
 004EC2                             7210 NOTQSAM  DS    0H                                                       48965021
 004EC2 45E0 BDD0      01C48        7211          BAL   RETRG,GNSTEP        INCREMENT GNCTR                      48972021
 004EC6 D201 DC41 A15E 087D9 0015E  7212          MVC   A106CH2(LX2),GNCTR                                       48979021
 004ECC 45E0 78D2      008D2        7213          BAL   RETRG,GATXTV            *  L  1,CHKPTSV                  48986021
 004ED0 060A                        7214          DC    AL2(ATXT106-ATXTBV)     *  L  2,GN-NEXT-SENTENCE         48993021
 004ED2 0017                        7215          DC    AL2(ZTXT106-ATXT106)    *  BCTR  1,2                     49000021
                                    7216 *                                      *  L  1,DCBADR                   49007021
 004ED4 4130 C774      075A4        7217          LA    RW3,CHPTCON             *  L  15,=V(CHKPNT)              49014021
 004ED8 45E0 77DE      007DE        7218          BAL   RETRG,VBALRE            *  BALR  14,15                   49021021
 004EDC 45E0 7CCC      00CCC        7219        BAL   RETRG,WRKLRX         DESTROY 14, 15                        49028021
 004EE0 D203 D17C 5004 07D14 00004  7220          MVC   XCON1+NX12(LX4),DX4(RW5)  INTEGER                        49035021
 004EE6 9204 D180      07D18        7221          MVI   XCON1+NX16,XX04                                          49042021
 004EEA 9201 D198      07D30        7222          MVI   XREG1,XX01                                               49049021
 004EEE 45E0 B000      00E78        7223          BAL   RETRG,LOAD              *  L  1,CHKPNTCTR                49056021
 004EF2 D201 D305 A15E 07E9D 0015E  7224          MVC   GLGNCN+NX3(LX2),GNCTR                                    49063021
 004EF8 45E0 BA24      0189C        7225          BAL   RETRG,GNOPT3            GN DEF                           49070021
 004EFC 9250 D188      07D20        7226          MVI   XCNTR1,XX50              TGT CHKPNT CELL                 49077021
 004F00 D201 D189 D62A 07D21 081C2  7227          MVC   XCNTR1+NX1(LX2),HALFWD    CELL NUMBER                    49084021
 004F06 9201 D198      07D30        7228          MVI   XREG1,XX01                                               49091021
 004F0A 45E0 B040      00EB8        7229          BAL   RETRG,STORE             *  ST  1,CHKPNTCELL              49098021
 004F0E 91F0 DD52      088EA        7230          TM    DOP1+NX6,XXF0            QSAM?                           49105021
 004F12 4770 9140      04F28        7231          BNZ   RNRWDN                  NO                               49112021
 004F16 9101 D628      081C0        7232          TM    CPFLAG,XX01         READ....                       45673 49119021
 004F1A 4710 9140      04F28        7233          BO    RNRWDN              YES                            45673 49126021
 004F1E D201 D305 DDE6 07E9D 0897E  7234          MVC   GLGNCN+NX3(LX2),DOP2+NX30 GN FOR QSAM                    49133021
 004F24 45E0 BA24      0189C        7235          BAL   RETRG,GNOPT3            GNDEF                            49140021
 004F28 9826 C400      07230        7236 RNRWDN   LM    RW2,RW6,SVWJHE      RESTORE REGISTERS                    49147021
                             04F2C  7237 DONE4    EQU   *                                                        49154021
 004F2C 9102 D628      081C0        7238          TM    CPFLAG,XX02         WRITE...                       45673 49161021
 004F30 4710 9156      04F3E        7239          BO    CPWR                YES                            45673 49168021
 004F34 94FE D628      081C0        7240          NI    CPFLAG,X'FF'-XX01   TURN OFF READ                  45673 49175021
1         IKFCBL51: CHECKPOINT PROCESSOR C H E C K P O I N T                                                    PAGE  157
-  LOC  OBJECT CODE    ADDR1 ADDR2  STMT   SOURCE STATEMENT                                       ASM 0201 11.03 02/14/15
0004F38 5890 C214      07044        7241          L     GVERB,ADCN20        READ                                 49182021
 004F3C 07F9                        7242          BCR   UNCOND,GVERB        RETURN TO NORMAL PROCESSING.         49189021
 004F3E                             7243 CPWR     DS    0H                                                 45673 49196021
 004F3E 94FD D628      081C0        7244          NI    CPFLAG,X'FF'-XX02   TURN OFF WRITE                 45673 49203021
 004F42 9188 DD52      088EA        7245          TM    DOP1+NX6,MBDAM+NX8      BDAM-D...                  45673 49210021
 004F46 47E0 916A      04F52        7246          BNO   CPW                     NO                               49217021
 004F4A 5890 C220      07050        7247          L     GVERB,ADCN23            YES, ADCON FOR WRITE             49224021
                             052A0  7248          USING WRITE,GVERB                                              49231021
 004F4E 47F0 95A6      05846        7249          B     REWR08                  FINISH UP WRITE CODING           49238021
                             04DE8  7250          USING WRITCHCK,GVERB                                           49245021
 004F52 5890 C220      07050        7251 CPW      L     GVERB,ADCN23        WRITE                                49252021
 004F56 07F9                        7252          BCR   UNCOND,GVERB        RETURN TO NORMAL PROCESSING.         49259021
1         IKFCBL51: READ VERB ANALYZER  R E A D                                                                 PAGE  158
-  LOC  OBJECT CODE    ADDR1 ADDR2  STMT   SOURCE STATEMENT                                       ASM 0201 11.03 02/14/15
0                                   7254 *=1    READ                                                             49273021
                                    7255 *******************************************************************     49280021
                                    7256 *            R E A D  V E R B  A N A L Y Z E R                          49287021
                                    7257 *                                                                       49294021
                                    7258 *      NON-SEGMENTED STRING INPUT...                                    49301021
                                    7259 *                                                                       49308021
                                    7260 *                                      READ                             49315021
                                    7261 *                                                                       49322021
                                    7262 *                                      FILENAME                         49329021
                                    7263 *              GN - AT END / GN - INVALID KEY / GN - NEXT SENTENCE      49336021
                                    7264 *                                                                       49343021
                                    7265 *              GN - NEXT SENTENCE                                       49350021
                                    7266 *                                                                       49357021
                                    7267 *                       RECORD NAME                                     49364021
                                    7268 *                                                                       49371021
                                    7269 *              DATANAME (FOR INTO OPTION) / FIGCON-ZERO (X'75F0')       49378021
                                    7270 *                                                                       49385021
                                    7271 *                                                                       49392021
                                    7272 *                                                                       49399021
                                    7273 *                                                                       49406021
                                    7274 *******************************************************************     49413021
                             04F58  7275        USING *,GVERB                                                    49420021
                             04F58  7276 READ   EQU   *                                                          49427021
 004F58 45E0 7CCC      00CCC        7277        BAL   RETRG,WRKLRX         DESTROY 14, 15                        49434021
 004F5C 4120 DD4C      088E4        7278        LA    RW2,DOP1              RW2 USED BY SR'S                     49441021
 004F60 9101 D609      081A1        7279          TM    READSW,MSWON            SECOND STRING?                   49448021
 004F64 4710 92D4      0522C        7280        BC    ONES,READ23            YES, GO GEN TERMINAL CODING         49455021
 004F68 45E0 79E4      009E4        7281          BAL   RETRG,SETRECFM      INITIALIZE RECORD MODE               49462021
 004F6C D200 D632 DD53 081CA 088EB  7282          MVC   IOTXTA+NX6(LX1),DOP1+NX7  SET UP ATXT VARIABLES IN CAS   49469021
 004F72 D201 D650 DDC9 081E8 08961  7283          MVC   IOTXTF+NX7(LX2),DOP2+NX1    THEY ARE USED IS GENERATIO   49476021
 004F78 D200 D645 DD51 081DD 088E9  7284          MVC   IOTXTE+NX6(LX1),DOP1+NX5                                 49483021
 004F7E 91E0 DD52      088EA        7285          TM    DOP1+NX6,XXE0  QSAM OR QISAM                             49490021
 004F82 4780 91CE      05126        7286        BC    ZERO,READ04       YES                                      49497021
 004F86 9120 DD52      088EA        7287          TM    DOP1+NX6,XX20  BISAM                                     49504021
 004F8A 4710 90F6      0504E        7288        BC    ONES,READ02       YES                                      49511021
 004F8E 9180 DD52      088EA        7289          TM    DOP1+NX6,XX80  BDAM                                      49518021
 004F92 4710 915E      050B6        7290        BC    ONES,READ03       YES                                      49525021
                                    7291 *                                                                       49532021
                                    7292 *                            GENERATE CODE FOR BSAM READ                49539021
                                    7293 *                                                                       49546021
 004F96 9200 D338      07ED0        7294          MVI   GTEMP,XX00                                               49553021
 004F9A 9144 DD52      088EA        7295          TM    DOP1+NX6,XX44        DIRECT BSAM?                        49560021
 004F9E 47E0 90A8      05000        7296          BNO   READ01                    NO                             49567021
 004FA2 9101 D61E      081B6        7297          TM    RECMODE,STYPE            SPANNED?                        49574021
 004FA6 47E0 90A8      05000        7298          BNO   READ01                    NO                             49581021
 004FAA 9108 DD52      088EA        7299          TM    DOP1+NX6,XX08             WAS A KEY SPECIFIED?           49588021
 004FAE 47E0 9074      04FCC        7300          BNO   READSPAN                  NO                             49595021
 004FB2 45E0 78D2      008D2        7301          BAL   RETRG,GATXTV       MVC 33(3,2),GN FOR AT END             49602021
 004FB6 0013                        7302          DC    AL2(IOTXTE-ATXTBV)                                       49609021
 004FB8 0017                        7303          DC    AL2(IOTXTG-IOTXTE)                                       49616021
 004FBA D202 D7CA 200B 08362 0000B  7304          MVC   IOTXTBB1(LX3),DX11(RW2)    KEY IDK                       49623021
 004FC0 45E0 78D2      008D2        7305          BAL   RETRG,GATXTV             *  LA   1,ACTUAL KEY            49630021
 004FC4 019A                        7306          DC    AL2(IOTXTBB-ATXTBV)      *                               49637021
 004FC6 000A                        7307          DC    AL2(IOTXTCC-IOTXTBB)     *                               49644021
 004FC8 9201 D338      07ED0        7308          MVI   GTEMP,XX01                INDICATE A KEY ENTRY           49651021
1         IKFCBL51: READ VERB ANALYZER  R E A D                                                                 PAGE  159
-  LOC  OBJECT CODE    ADDR1 ADDR2  STMT   SOURCE STATEMENT                                       ASM 0201 11.03 02/14/15
0004FCC                             7309 READSPAN DS    0H                                                       49658021
 004FCC D200 D18A 2007 07D22 00007  7310          MVC   XCNTR1+NX2(LX1),DX7(RW2)                                 49665021
 004FD2 9214 D188      07D20        7311          MVI   XCNTR1,XX14               DECB REFERENCE                 49672021
 004FD6 9203 D198      07D30        7312          MVI   XREG1,XX03                                               49679021
 004FDA 45E0 B000      00E78        7313          BAL   RETRG,LOAD               *  L   3,DECB ADDRESS           49686021
 004FDE 4130 C764      07594        7314          LA    RW3,BSAMREAD             ADDRESS OF BSAM READ NAME       49693021
 004FE2 45E0 77DE      007DE        7315          BAL   RETRG,VBALRE             GENERATE BRANCH TO ILBOSAMR     49700021
 004FE6 45E0 7CCC      00CCC        7316          BAL   RETRG,WRKLRX             DESTROY 14 & 15                 49707021
 004FEA D201 D171 D338 07D09 07ED0  7317          MVC   GMACDC+NX1(LX2),GTEMP      MOVE CODE TO ATEXT FIELD      49714021
 004FF0 9202 D170      07D08        7318          MVI   GMACDC,XX02               LENGTH OF CODE IS 2            49721021
 004FF4 9224 D199      07D31        7319          MVI   GMCTYP,MDC                                               49728021
 004FF8 45E0 BD28      01BA0        7320          BAL   RETRG,MACRO              *  BC  0,NN  NN = FUNCTION CODE 49735021
 004FFC 47F0 9260      051B8        7321          BC    UNCOND,READ06            GENERATE POST READ CODE         49742021
 005000 9280 D63B      081D3        7322 READ01   MVI   IOTXTC+NX2,XX80                                          49749021
 005004 45E0 78D2      008D2        7323        BAL   RETRG,GATXTV          PUT A TEXT                           49756021
 005008 0000                        7324        DC    AL2(IOTXTA-ATXTBV)                                         49763021
 00500A 0013                        7325        DC    AL2(IOTXTD-IOTXTA)                                         49770021
 00500C 45E0 78C6      008C6        7326        BAL   RETRG,GATXTC         'S' FOR LENGTH OPERAND FOR READ       49777021
 005010 012C                        7327        DC    AL2(ATXT85-ATXTBC)   * MVI 4(3),X'80'                      49784021
 005012 0006                        7328        DC    AL2(ZTXT85-ATXT85)                                         49791021
 005014 45E0 78D2      008D2        7329          BAL   RETRG,GATXTV            *  MVC  33(3,2),GN-EOD           49798021
 005018 001D                        7330          DC    AL2(IOTXTF-ATXTBV)                                       49805021
 00501A 000D                        7331          DC    AL2(IOTXTG-IOTXTF)                                       49812021
 00501C 45E0 78D2      008D2        7332        BAL   RETRG,GATXTV          PUT A TEXT                           49819021
 005020 0033                        7333        DC    AL2(IOTXTH-ATXTBV)                                         49826021
 005022 0020                        7334        DC    AL2(IOTXTJ-IOTXTH)                                         49833021
 005024 910C DD52      088EA        7335          TM    DOP1+NX6,XX0C            DIRECT AND KEY                  49840021
 005028 47E0 9260      051B8        7336          BC    NOTONE,READ06           NO                               49847021
 00502C 1B44                        7337          SR    RW4,RW4                                                  49854021
 00502E 4340 DD5A      088F2        7338          IC    RW4,DOP1+NX14            LENGTH OF KEY                   49861021
 005032 0640                        7339          BCTR  RW4,R0             DECREMENT BY ONE                      49868021
 005034 4240 D687      0821F        7340          STC   RW4,IOTXTJ1                                              49875021
 005038 45E0 7CFA      00CFA        7341          BAL   RETRG,INCRKEY           GET IDK OF ACT.KEY+4             49882021
 00503C D202 D689 D338 08221 07ED0  7342          MVC   IOTXTJ2(LX3),GTEMP       MOVE IT INTO ATXT               49889021
                                    7343 *                                      *  L  5,12(3)                    49896021
                                    7344 *                                      *  MVC  ACT-KEY+4(L),BUFFER      49903021
 005042 45E0 78D2      008D2        7345        BAL   RETRG,GATXTV          PUT A TEXT                           49910021
 005046 0053                        7346        DC    AL2(IOTXTJ-ATXTBV)                                         49917021
 005048 0013                        7347        DC    AL2(IOTXTL-IOTXTJ)                                         49924021
 00504A 47F0 9260      051B8        7348          B     READ06             BRANCH TO READ06                      49931021
                                    7349 *                                                                       49938021
                                    7350 *                        GENERATE CODE FOR BISAM READ                   49945021
                                    7351 *                                                                       49952021
                             0504E  7352 READ02 EQU   *                                                          49959021
 00504E 45E0 78D2      008D2        7353        BAL   RETRG,GATXTV          PUT A TEXT                           49966021
 005052 0000                        7354        DC    AL2(IOTXTA-ATXTBV)            * L    3,DECBADR             49973021
 005054 000D                        7355        DC    AL2(IOTXTC-IOTXTA)            * L    2,8(3)                49980021
 005056 45E0 78D2      008D2        7356          BAL   RETRG,GATXTV        SET TYPE2 FIELD OF DECB              49987021
 00505A 053B                        7357          DC    AL2(ATXT69-ATXTBV)       X                               49994021
 00505C 0009                        7358          DC    AL2(ZTXT69-ATXT69)       X                               50001021
                                    7359 *                                      *  MVC  5(1,3),252(2)            50008021
 00505E 45E0 7A28      00A28        7360          BAL   RETRG,INVCK         INVALID KEY CODED...           58971 50015021
 005062 4770 9112      0506A        7361          BC    NOTEQ,READ02C       GO TO READ02C                        50022021
 005066 45E0 7A10      00A10        7362          BAL   RETRG,INVKEY            YES                              50029021
 00506A                             7363 READ02C  DS    0H                                                       50036021
1         IKFCBL51: READ VERB ANALYZER  R E A D                                                                 PAGE  160
-  LOC  OBJECT CODE    ADDR1 ADDR2  STMT   SOURCE STATEMENT                                       ASM 0201 11.03 02/14/15
000506A 9258 D667      081FF        7364          MVI   IOTXIA+NX5,XX58     READ OFFSET IS 88                    50043021
 00506E 45E0 7A50      00A50        7365          BAL   RETRG,BISMRDWT        GEN READ/CHECK INSTRS.             50050021
 005072 45E0 78C6      008C6        7366          BAL   RETRG,GATXTC        PUT A TEXT                           50057021
 005076 00DB                        7367        DC    AL2(ATXT60-ATXTBC)            * L    1,16(3)               50064021
 005078 0006                        7368        DC    AL2(ZTXT60-ATXT60)                                         50071021
 00507A 45E0 BDD0      01C48        7369          BAL   RETRG,GNSTEP        BUMP GNCTR                    31139  50078021
 00507E D201 D705 A15E 0829D 0015E  7370          MVC   IOTXTQA(LX2),GNCTR  INSERT GN NUM IN LOAD         31139  50085021
 005084 D201 D305 A15E 07E9D 0015E  7371          MVC   GLGNCN+NX3(LX2),GNCTR   SAVE FOR GN DEF           31139  50092021
 00508A 45E0 78D2      008D2        7372          BAL   RETRG,GATXTV          * TM   24(3),X'FD'          31139  50099021
 00508E 00CB                        7373          DC    AL2(IOTXTQ-ATXTBV)    * L    14,GN(NO BL'S)       31139  50106021
 005090 0017                        7374          DC    AL2(IOTXTR-IOTXTQ)    * BCR  7,14                 31139  50113021
 005092 9101 D61E      081B6        7375          TM    RECMODE,STYPE       SPANNED?                             50120021
 005096 4710 914A      050A2        7376          BO    READ2B               YES                                 50127021
 00509A 9108 D61E      081B6        7377          TM    RECMODE,VTYPE       VARIABLE?                            50134021
 00509E 47E0 9254      051AC        7378          BNO   READ4A               NO                                  50141021
                             050A2  7379 READ2B   EQU   *                                                        50148021
 0050A2 9210 D15E      07CF6        7380          MVI   BDISP1,XX10                                              50155021
 0050A6 9204 D15F      07CF7        7381          MVI   BDISP1+NX1,XX04                                          50162021
 0050AA 9201 D198      07D30        7382          MVI   XREG1,XX01                                               50169021
 0050AE 45E0 BB7C      019F4        7383          BAL   RETRG,LA                *  LA  1,4(1)                    50176021
 0050B2 47F0 9254      051AC        7384        BC    UNCOND,READ4A         GO STORE BL'S, CALL Q-ROUTINES       50183021
                                    7385 *                                                                       50190021
                                    7386 *                            GENERATE CODE FOR BDAM READ                50197021
                                    7387 *                                                                       50204021
 0050B6 9248 D63B      081D3        7388 READ03   MVI   IOTXTC+NX2,XX48 MOVE CODE FOR SUBSEQUENT GENERATION      50211021
 0050BA 9104 DD52      088EA        7389          TM    DOP1+NX6,XX04    X'48' FOR REL RCD                       50218021
 0050BE 4780 916E      050C6        7390        BC    ZERO,SKIP08               X'4C' FOR REL TRK                50225021
 0050C2 924C D63B      081D3        7391          MVI   IOTXTC+NX2,XX4C                                          50232021
 0050C6 45E0 78D2      008D2        7392 SKIP08 BAL   RETRG,GATXTV              PUT A-TEXT                       50239021
 0050CA 0000                        7393        DC    AL2(IOTXTA-ATXTBV)                                         50246021
 0050CC 0013                        7394          DC    AL2(IOTXTD-IOTXTA)                                       50253021
 0050CE 45E0 7A28      00A28        7395          BAL   RETRG,INVCK         INVALID KEY CODED...           58971 50260021
 0050D2 4770 9182      050DA        7396          BNE   READ03C                 NO                               50267021
 0050D6 45E0 7A10      00A10        7397          BAL   RETRG,INVKEY            YES                              50274021
 0050DA                             7398 READ03C  DS    0H                                                       50281021
 0050DA 9104 2006      00006        7399          TM    DX6(RW2),XX04            DIRECT                          50288021
 0050DE 4710 9196      050EE        7400          BO    READ03A                 YES                              50295021
 0050E2 45E0 78C6      008C6        7401          BAL   RETRG,GATXTC            *  L  1,20(3)                    50302021
 0050E6 0295                        7402          DC    AL2(ATXT109-ATXTBC)     *  MVC  28(4,3),0(1)             50309021
 0050E8 000F                        7403          DC    AL2(ZTXT109-ATXT109)                                     50316021
 0050EA 47F0 91BE      05116        7404          B     READ03B             BRANCH TO READ03B                    50323021
 0050EE                             7405 READ03A  DS    0H                                                       50330021
 0050EE 45E0 7D3A      00D3A        7406          BAL   RETRG,BDAMDW        GO TO BDAMDW FOR BDAM                50337021
 0050F2 9108 DD52      088EA        7407          TM    DOP1+NX6,XX08            BDAM-D                          50344021
 0050F6 47E0 91BE      05116        7408          BNO   READ03B                 NO, BDAM-W                       50351021
 0050FA D202 D82B DD57 083C3 088EF  7409          MVC   IOTXTEE2(LX3),DOP1+NX11   IDK                            50358021
 005100 1B44                        7410          SR    RW4,RW4                                                  50365021
 005102 4340 DD5A      088F2        7411          IC    RW4,DOP1+NX14            KEY LENGTH                      50372021
 005106 4144 0003      00003        7412          LA    RW4,DX3(RW4)                                             50379021
 00510A 4240 D826      083BE        7413          STC   RW4,IOTXTEE1            KL+4                             50386021
 00510E 45E0 78D2      008D2        7414          BAL   RETRG,GATXTV            *  L  5,36(3)                    50393021
 005112 01F2                        7415          DC    AL2(IOTXTEE-ATXTBV)     *  MVC  0(LK+4,5),ACT-KEY        50400021
 005114 0013                        7416          DC    AL2(IOTXTFF-IOTXTEE)                                     50407021
 005116                             7417 READ03B  DS    0H                                                       50414021
 005116 9234 D673      0820B        7418          MVI   IOTXIB+NX5,XX34          RESTORE DISPLACEMENT            50421021
1         IKFCBL51: READ VERB ANALYZER  R E A D                                                                 PAGE  161
-  LOC  OBJECT CODE    ADDR1 ADDR2  STMT   SOURCE STATEMENT                                       ASM 0201 11.03 02/14/15
000511A 45E0 78D2      008D2        7419        BAL   RETRG,GATXTV          PUT A TEXT                           50428021
 00511E 0033                        7420        DC    AL2(IOTXTI-ATXTBV)                                         50435021
 005120 0020                        7421        DC    AL2(IOTXTJ-IOTXTI)                                         50442021
 005122 47F0 9260      051B8        7422          B     READ06              GO TO READ06                         50449021
                                    7423 *                                                                       50456021
                                    7424 *                            GENERATE CODE FOR QSAM QISAM READ          50463021
                                    7425 *                                                                       50470021
 005126                             7426 READ04   DS    0H                                                 58932 50477021
 005126 9109 D61E      081B6        7427          TM    RECMODE,STYPE+VTYPE      S OR V MODE...            58932 50484021
 00512A 4780 91DA      05132        7428          BZ    READ05                   NO                        58932 50491021
 00512E 9601 7BD4      00BD4        7429          OI    NREADSW,READVSON         YES,INDICATE SO           58932 50498021
 005132                             7430 READ05   DS    0H                                                 58932 50505021
 005132 45E0 78D2      008D2        7431          BAL   RETRG,GATXTV             *                         58932 50512021
 005136 0013                        7432        DC    AL2(IOTXTE-ATXTBV)                                         50519021
 005138 0017                        7433          DC    AL2(IOTXTG-IOTXTE)                                       50526021
 00513A 9101 D61E      081B6        7434          TM    RECMODE,STYPE                                            50533021
 00513E 47E0 91F4      0514C        7435          BC    NOTONE,READ04C      IF NOT SPANNED,  SKIP TO READ04C     50540021
 005142 D200 D197 DD50 07D2F 088E8  7436          MVC   BLREF1+NX1(LX1),DOP1+NX4  BL NUMBER                      50547021
 005148 45E0 B000      00E78        7437          BAL   RETRG,LOAD          PUT A TEXT LOAD INST                 50554021
 00514C 45E0 78D2      008D2        7438 READ04C  BAL   RETRG,GATXTV        PUT A TEXT                           50561021
 005150 002A                        7439          DC    AL2(IOTXTG-ATXTBV)                                       50568021
 005152 0009                        7440          DC    AL2(IOTXTH-IOTXTG)                                       50575021
 005154 9108 D584      0811C        7441          TM    SORTSW1,SORTVERB    ARE WE IN THE MIDDLE OF A SORT 42646 50582021
                                    7442 * INPUT PROCEDURE...                                              42646 50589021
 005158 4780 9234      0518C        7443          BZ    READ04A             NO                             42646 50596021
 00515C D201 D9C7 D5D6 0855F 0816E  7444          MVC   A06CH1(LX2),XSARLSE INSERT RELEASE XSACELL         42646 50603021
 005162 D201 D9CE D5D6 08566 0816E  7445          MVC   A06CH3(LX2),XSARLSE                                42646 50610021
 005168 9109 D61E      081B6        7446          TM    RECMODE,STYPE+VTYPE      V OR S MODE...            57809 50617021
 00516C 4710 9224      0517C        7447          BO    READ04B             YES                            42646 50624021
 005170 9280 D9CB      08563        7448          MVI   A06CH2,XX80         INDICATE F-MODE FILE           42646 50631021
 005174 9296 D9CA      08562        7449          MVI   A06CH4,XX96         INDICATE OI INSTR              42646 50638021
 005178 47F0 922C      05184        7450          B     READ04E             COMMON CODE                    42646 50645021
 00517C                             7451 READ04B  DS    0H                                                 42646 50652021
 00517C 927F D9CB      08563        7452          MVI   A06CH2,XX7F         INDICATE V MODE                42646 50659021
 005180 9294 D9CA      08562        7453          MVI   A06CH4,XX94         INDICATE NI INSTR              42646 50666021
 005184                             7454 READ04E  DS    0H                                                 42646 50673021
 005184 45E0 78D2      008D2        7455          BAL   RETRG,GATXTV        * ST   1,XSARLSE               42646 50680021
 005188 0396                        7456          DC    AL2(ATXT06-ATXTBV)  *                              42646 50687021
 00518A 000E                        7457          DC    AL2(ZTXT06-ATXT06)  * OI   XSARLSE,FLAG            42646 50694021
 00518C                             7458 READ04A  DS    0H                                                 42646 50701021
 00518C 9101 D61E      081B6        7459          TM    RECMODE,STYPE       SPANNED?                             50708021
 005190 4710 9244      0519C        7460          BO    READ04D              YES                                 50715021
 005194 9108 D61E      081B6        7461          TM    RECMODE,VTYPE           V TYPE RCD                       50722021
 005198 47E0 9254      051AC        7462          BC    NOTONE,READ4A           NO                               50729021
                             0519C  7463 READ04D  EQU   *                                                        50736021
 00519C 9201 D198      07D30        7464          MVI   XREG1,XX01                                               50743021
 0051A0 9204 D15F      07CF7        7465          MVI   BDISP1+NX1,XX04                                          50750021
 0051A4 9210 D15E      07CF6        7466          MVI   BDISP1,XX10                                              50757021
 0051A8 45E0 BB7C      019F4        7467        BAL   RETRG,LA              PUT A TEXT LA INST                   50764021
                             051AC  7468 READ4A   EQU   *                                                        50771021
 0051AC 9108 DD56      088EE        7469          TM    DOP1+NX10,XX08           SAME RECORD AREA                50778021
 0051B0 4710 9260      051B8        7470          BC    ONES,READ06             YES                              50785021
 0051B4 45E0 78BC      008BC        7471          BAL   RETRG,IOSTBL        GENERATE  ST 1,BL                    50792021
                                    7472 *                                                                       50799021
                                    7473 *                                                                       50806021
1         IKFCBL51: READ VERB ANALYZER  R E A D                                                                 PAGE  162
-  LOC  OBJECT CODE    ADDR1 ADDR2  STMT   SOURCE STATEMENT                                       ASM 0201 11.03 02/14/15
0                                   7474 *                            GENERATE POST-READ CODE                    50813021
                                    7475 *                                                                       50820021
 0051B8                             7476 READ06   DS    0H                                                 39824 50827021
 0051B8 D200 7BD3 DD50 00BD3 088E8  7477          MVC   RDMVBLSV(LX1),DOP1+NX4   STORE BL NUMBER FOR MOVE  58932 50834021
 0051BE 9120 DD52      088EA        7478          TM    DOP1+NX6,XX20       BISAM...                       39824 50841021
 0051C2 4710 9286      051DE        7479          BO    READ06C             YES                            39824 50848021
 0051C6 9180 DD52      088EA        7480          TM    DOP1+NX6,XX80       BDAM...                        39824 50855021
 0051CA 4780 9286      051DE        7481          BZ    READ06C             NO                             39824 50862021
 0051CE 45E0 7CDE      00CDE        7482          BAL   RETRG,ISINVK        INVALID KEY...                 39824 50869021
 0051D2 4770 9286      051DE        7483          BNE   READ06C             NO                             39824 50876021
 0051D6 45E0 78D2      008D2        7484          BAL   RETRG,GATXTV        *                              39824 50883021
 0051DA 00E2                        7485          DC    AL2(IOTXTR-ATXTBV)  * OI   27(4),1                 39824 50890021
 0051DC 0006                        7486          DC    AL2(IOTXTRPR-IOTXTR)  *                            39824 50897021
 0051DE                             7487 READ06C  DS    0H                                                 39824 50904021
 0051DE 91C0 DD52      088EA        7488          TM    DOP1+NX6,XXC0       BSAM OR BDAM...                39824 50911021
 0051E2 4770 92AA      05202        7489          BNZ   READ06B             YES                                  50918021
 0051E6 9101 D61E      081B6        7490          TM    RECMODE,STYPE      S?                                    50925021
 0051EA 4710 92AA      05202        7491          BO    READ06B             YES, NO MOVE                         50932021
 0051EE 9108 DD56      088EE        7492          TM    DOP1+NX10,XX08           SAME RECORD AREA                50939021
 0051F2 47E0 92AA      05202        7493          BC    NOTONE,READ06B      IF NOT,  GO TO READ06B               50946021
 0051F6 45E0 7AA4      00AA4        7494          BAL   RETRG,READMOVE          GENERATE MOVE CODING             50953021
 0051FA 9602 7BD4      00BD4        7495          OI    NREADSW,SCNDSRA     INDICATE SECOND SRA MOVE       58932 50960021
 0051FE 47F0 92AE      05206        7496          B     READ06A            GO TO READ06A                         50967021
                             05202  7497 READ06B  EQU   *                                                        50974021
 005202 45E0 7884      00884        7498          BAL   RETRG,IOQRTN            GEN Q-RTNS FOR FILE              50981021
                             05206  7499 READ06A  EQU   *                                                        50988021
 005206 4130 DEC0      08A58        7500        LA    RW3,DOP4                                                   50995021
 00520A 9102 3007      00007        7501          TM    DX7(XR3),XX02       RECORD QRTNS...                53600 51002021
 00520E 4780 92CA      05222        7502          BZ    READ07              NO                             53600 51009021
 005212 41E0 92CA      05222        7503          LA    XRSUB,READ07        RETURN ADDRESS                 53600 51016021
 005216 900F C420      07250        7504          STM   XR0,XR15,XGSAV1     SAVE REGS                      53600 51023021
 00521A 58F0 C718      07548        7505          L     XRVAR,FPALOD           AND GET ADDRESSABILITY      53600 51030021
                             01DE8  7506          USING LSSPRO,XRVAR                                       53600 51037021
 00521E 47F0 F000      01DE8        7507          B     LSSPRO              GENERATE Q-ROUTINES            53600 51044021
 005222                             7508 READ07   DS    0H                                                 53600 51051021
 005222 D501 DF3C C834 08AD4 07664  7509          CLC   DOP5(LX2),ONZERO        IS A MOVE COMING...              51058021
 005228 4770 9322      0527A        7510        BC    NOTEQ,READ22      YES                                      51065021
 00522C                             7511 READ23   DS    0H                                                       51072021
 00522C 94FC 7BD4      00BD4        7512          NI    NREADSW,X'FF'-(READVSON+SCNDSRA)   ALL OFF         58932 51079021
 005230 94FE D609      081A1        7513          NI    READSW,MSWOFF                                            51086021
 005234 9180 DD52      088EA        7514          TM    DOP1+NX6,XX80       BDAM...                         1139 51093021
 005238 4710 92F0      05248        7515          BO    READ24              YES, SKIP BAD BL DEF OF GN      1139 51100021
 00523C 9120 DD52      088EA        7516          TM    DOP1+NX6,XX20       BISAM...                        1139 51107021
 005240 4780 9310      05268        7517          BZ    READ23A             NO                              1139 51114021
 005244 45E0 BA24      0189C        7518          BAL   RETRG,GNOPT3        * GN(NO BL'S)  EQU  *           1139 51121021
 005248                             7519 READ24   DS    0H                                                  1139 51128021
 005248 45E0 7CDE      00CDE        7520          BAL   RETRG,ISINVK        INVALID KEY                    39824 51135021
 00524C 4770 9326      0527E        7521          BNE   READEX                  NO                               51142021
 005250 9120 DD52      088EA        7522          TM    DOP1+NX6,XX20       BISAM...                       39824 51149021
 005254 4780 9310      05268        7523          BZ    READ05C             NO                             39824 51156021
 005258 45E0 78D2      008D2        7524          BAL   RETRG,GATXTV             *                         49518 51163021
 00525C 00B8                        7525          DC    AL2(IOTXTP-ATXTBV)       * L    4,36(2)            49518 51170021
 00525E 0006                        7526          DC    AL2(IOTXTP2-IOTXTP)      *                         49518 51177021
 005260 45E0 78D2      008D2        7527          BAL   RETRG,GATXTV        *                              39824 51184021
 005264 00E2                        7528          DC    AL2(IOTXTR-ATXTBV)  * OI   27(4),1                 39824 51191021
1         IKFCBL51: READ VERB ANALYZER  R E A D                                                                 PAGE  163
-  LOC  OBJECT CODE    ADDR1 ADDR2  STMT   SOURCE STATEMENT                                       ASM 0201 11.03 02/14/15
0005266 0006                        7529          DC    AL2(IOTXTRPR-IOTXTR)  *                            39824 51198021
 005268                             7530 READ05C  DS    0H                                                 39824 51205021
 005268                             7531 READ23A  DS    0H                                                       51212021
 005268 D201 D718 DE45 082B0 089DD  7532          MVC   IOTXTR1(LX2),DOP3+NX1     GN-NEXT-SENTENCE               51219021
 00526E 45E0 78D2      008D2        7533          BAL   RETRG,GATXTV            *  L  15,GN                      51226021
 005272 00E8                        7534          DC    AL2(IOTXTRPR-ATXTBV)    *  BR  15                        51233021
 005274 0009                        7535          DC    AL2(IOTXTS-IOTXTRPR)                                     51240021
 005276 47F0 9326      0527E        7536          B     READEX             GO TO READEX TO RETURN                51247021
 00527A                             7537 READ22   DS    0H                                                       51254021
 00527A 9601 D609      081A1        7538          OI    READSW,MSWON                                             51261021
 00527E 47F0 700A      0000A        7539 READEX   B     PH5CTL             RETURN TO PHASE 5 CTL                 51268021
1         REWRITE VERB PROCESSOR  R  E  W  R  I  T  E                                                           PAGE  164
-  LOC  OBJECT CODE    ADDR1 ADDR2  STMT   SOURCE STATEMENT                                       ASM 0201 11.03 02/14/15
0                                   7541 *=1    REWRITE                                                          51282021
                                    7542 *******************************************************************     51289021
                                    7543 *      R E W R I T E                                                    51296021
                                    7544 *                     SAME FORM OF INPUT AS WRITE, IN WRITE ANALYZE     51303021
                                    7545 *******************************************************************     51310021
                             05282  7546        USING *,GVERB                                                    51317021
                             05282  7547 REWRIT EQU   *                                                          51324021
 005282 9601 D61C      081B4        7548          OI    REWRSW,MSWON            TURN ON REWRITE SWITCH           51331021
 005286 91F0 DD52      088EA        7549          TM    DOP1+NX6,XXF0            QSAM?                           51338021
 00528A 47E0 9010      05292        7550          BNO   REWRIT01                NO                               51345021
 00528E 94FD DD52      088EA        7551          NI    DOP1+NX6,XXFD TURN OFF APPLY WRITE-ONLY BIT SINCE IT     51352021
                                    7552 *                           MEANINGLESS FOR REWRITE CODING              51359021
 005292                             7553 REWRIT01 DS    0H                                                       51366021
 005292 5890 C220      07050        7554        L     GVERB,ADCN23          BODY OF ANALYZER WITH WRITE          51373021
                             052A0  7555        USING WRITE,GVERB                                                51380021
 005296 47F0 9004      052A4        7556        BC    UNCOND,REWR00         GO TO WRITE RTN                      51387021
1         IKFCBL51: WRITE VERB PROCESSOR W R I T E/R E W R I T E                                                PAGE  165
-  LOC  OBJECT CODE    ADDR1 ADDR2  STMT   SOURCE STATEMENT                                       ASM 0201 11.03 02/14/15
0                                   7558 *=1    WRITE                                                            51401021
                                    7559 *******************************************************************     51408021
                                    7560 *              WRITE RN...FROM...INVALID KEY...AFTER                    51415021
                                    7561 *                                                                       51422021
                                    7562 *                                                                       51429021
                                    7563 *              WRITE                                                    51436021
                                    7564 *                                                                       51443021
                                    7565 *              FILENAME                                                 51450021
                                    7566 *                                                                       51457021
                                    7567 *              GN - INVALID KEY / GN - NEXT SENTENCE                    51464021
                                    7568 *                                                                       51471021
                                    7569 *              GN - NEXT SENTENCE                                       51478021
                                    7570 *                                                                       51485021
                                    7571 *              DATANAME / FIGCON-ZERO (X'75F0')                         51492021
                                    7572 *                                                                       51499021
                                    7573 *              RECORD NAME                                              51506021
                                    7574 *                                                                       51513021
                                    7575 *                                                                       51520021
                                    7576 *              FOR A WRITE WITH ADVANCING OR POSITIONING                51527021
                                    7577 *                            DOP2 AND DOP3 BECOME                       51534021
                                    7578 *                                                                       51541021
                                    7579 *              GN-NEXT-SENTENCE                                         51548021
                                    7580 *                                                                       51555021
                                    7581 *              INTEGER / MNEUMONIC / DATANAME                           51562021
                                    7582 *                                                                       51569021
                                    7583 *                                                                       51576021
                                    7584 *          THE FOURTH ELEMENT HAS EITHER THE 'FROM' DN OR               51583021
                                    7585 *                 THE DUMMY ELEMENT (A FIGCON ZERO).                    51590021
                                    7586 *                   IF DN, 2 IDENTICAL STRINGS ARE PROVIDED WITH        51597021
                                    7587 *                    MOVE STRINGS BETWEEN THEM.                         51604021
                                    7588 *                                                                       51611021
                                    7589 *******************************************************************     51618021
 0052A0                             7590 IKF50K CSECT                                                            51625021
                             052A0  7591          USING *,GVERB                                                  51632021
                             052A0  7592 WRITE    EQU   *                                                        51639021
 0052A0 94FE D61C      081B4        7593        NI    REWRSW,MSWOFF                                              51646021
 0052A4 94FE D618      081B0        7594 REWR00 NI    WRSW01,MSWOFF                                              51653021
 0052A8 D200 D632 DD53 081CA 088EB  7595          MVC   IOTXTA+NX6(LX1),DOP1+NX7                                 51660021
 0052AE 4120 DD4C      088E4        7596          LA    RW2,DOP1       ** RW2 MUST STAY AT DOP1    **            51667021
                                    7597 *                            **  FOR SR'S TO WORK PROPERLY.**           51674021
 0052B2 45E0 79E4      009E4        7598          BAL   RETRG,SETRECFM      INITIALIZE RECORD MODE               51681021
 0052B6 91F0 DD52      088EA        7599          TM    DOP1+NX6,XXF0            QSAM                            51688021
 0052BA 4770 91F4      05494        7600          BNZ   WRIT23              NO                             48426 51695021
 0052BE 9109 DD52      088EA        7601          TM    DOP1+NX6,XX09            ADVANCING OPTION                51702021
 0052C2 4770 904A      052EA        7602          BC    NOTZER,MWRIT01A         YES                              51709021
 0052C6                             7603 MWRIT01B DS    0H                                                       51716021
 0052C6 9108 DD56      088EE        7604          TM    DOP1+NX10,XX08           SAME RECORD AREA                51723021
 0052CA 47E0 9036      052D6        7605          BNO   WRIT12              NO                             48426 51730021
 0052CE 94FD DD52      088EA        7606          NI    DOP1+NX6,XXFD            TURN OFF APPLY WRITE ONLY BIT   51737021
 0052D2 47F0 91F4      05494        7607          B     WRIT23              GO TO WRITE23                        51744021
 0052D6                             7608 WRIT12   DS    0H                                                 48426 51751021
 0052D6 9102 DD52      088EA        7609          TM    DOP1+NX6,MAWO       APPLY WRITE-ONLY...            48426 51758021
 0052DA 4780 91F4      05494        7610          BZ    WRIT23              NO                             48426 51765021
 0052DE 9104 DD52      088EA        7611          TM    DOP1+NX6,XX04       POSITIONING...                 48426 51772021
 0052E2 4780 91F4      05494        7612          BZ    WRIT23              NO                             48426 51779021
1         IKFCBL51: WRITE VERB PROCESSOR W R I T E/R E W R I T E                                                PAGE  166
-  LOC  OBJECT CODE    ADDR1 ADDR2  STMT   SOURCE STATEMENT                                       ASM 0201 11.03 02/14/15
00052E6 47F0 9920      05BC0        7613          B     WRIT13              YES, AWO + POS ROUTINE         48426 51786021
                             052EA  7614 MWRIT01A EQU   *                                                        51793021
 0052EA 9101 D61D      081B5        7615          TM    WRITSW,XX01              YES, IS IT SECOND STRING        51800021
 0052EE 4710 9060      05300        7616          BC    ONE,MWRIT01             YES                              51807021
 0052F2 9601 D61D      081B5        7617          OI    WRITSW,XX01              NO                              51814021
 0052F6 D501 DEC0 C834 08A58 07664  7618          CLC   DOP4(LX2),ONZERO         IS MOVE EXPECTED                51821021
 0052FC 4770 700A      0000A        7619          BC    NOTEQ,DON               YES                              51828021
 005300 94FE D61D      081B5        7620 MWRIT01  NI    WRITSW,MSWOFF                                            51835021
 005304 9532 DE44      089DC        7621          CLI   DOP3,XX32       ADVANCING  INTEGER LINES                 51842021
 005308 4770 9094      05334        7622         BC     NOTEQ,MWRIT02  NO                                        51849021
 00530C 1B22                        7623         SR     RW2,RW2                                                  51856021
 00530E 4320 DE46      089DE        7624          IC    RW2,DOP3+NX2    LENGTH OF INTEGER                        51863021
 005312 0620                        7625          BCTR  RW2,R0             DECREMENT BY ONE                      51870021
 005314 4420 99D8      05C78        7626          EX    RW2,ZAPMM      MOVE  INTEGER TO DOUBLEWORD BOUNDARY      51877021
 005318 4F20 C688      074B8        7627         CVB    RW2,DWB                                                  51884021
 00531C 5020 99D4      05C74        7628         ST     RW2,INTEGER                                              51891021
 005320 9109 DD52      088EA        7629          TM    DOP1+NX6,XX09                                            51898021
 005324 4710 90D8      05378        7630          BO    SPACCLNG            IF ADVANCING OPT,  GO TO SPACCLN     51905021
 005328 4920 C6B8      074E8        7631         CH     RW2,XC003      IS ING                                    51912021
 00532C 47D0 98FA      05B9A        7632         BC     NOTHI,MSUB2    NO, GENERATE  ** MVI RN,CODE **           51919021
 005330 47F0 90D8      05378        7633         BC     UNCOND,SPACCLNG     YES,GENERATE SUBRTN CALLING SEQ      51926021
 005334 9530 DE44      089DC        7634 MWRIT02  CLI   DOP3,XX30           DATANAME LINES                       51933021
 005338 4780 90D8      05378        7635         BC     EQ,SPACCLNG    YES, ELSE MNEUMONIC NAME LINES            51940021
 00533C 9180 DF43      08ADB        7636          TM    DOP5+NX7,XX80   IS THIS A REPORT RCD WITH CODE           51947021
 005340 4710 90D8      05378        7637         BC     ONES,SPACCLNG  YES,GENERATE SUBRTN CALLING SEQ           51954021
 005344 9109 DD52      088EA        7638          TM    DOP1+NX6,XX09            MIXED?                          51961021
 005348 4770 90D8      05378        7639          BNZ   SPACCLNG                YES- CALL ILBOSPA0               51968021
 00534C 1B22                        7640          SR    RW2,RW2             *  MVI  RN,MNEMONIC-CODE             51975021
 00534E 4320 DE45      089DD        7641          IC    RW2,DOP3+NX1                                             51982021
 005352 4122 99E6      05C86        7642          LA    RW2,MNCTABLE(RW2)                                        51989021
 005356 9180 DD4E      088E6        7643          TM    DOP1+NX2,XX80   BEFORE OPTION                            51996021
 00535A 4780 90C2      05362        7644         BC     ZERO,MSUB3A         NO                                   52003021
 00535E 4122 000F      0000F        7645          LA    RW2,DX15(RW2)   YES                                      52010021
 005362 D200 D199 2000 07D31 00000  7646 MSUB3A   MVC   IMM(LX1),DX0(RW2)                                        52017021
 005368 41E0 DF3C      08AD4        7647         LA     RETRG,DOP5                                               52024021
 00536C 50E0 D148      07CE0        7648         ST     RETRG,OP1                                                52031021
 005370 45E0 BABC      01934        7649         BAL    RETRG,MVI           PUT A TEXT MVI INST                  52038021
 005374 47F0 91EC      0548C        7650         BC     UNCOND,MWRIT03      GO TO MWRITE03                       52045021
 005378 45E0 98EA      05B8A        7651 SPACCLNG BAL   RETRG,TSTEOP        TEST FOR GN-CODE                     52052021
 00537C 4770 90E4      05384        7652          BNE   SPACCLN2            IF NOT,  GO TO SPACCLNG2             52059021
 005380 45E0 968C      0592C        7653          BAL   RETRG,WRIS02       IF YES, PERFORM WRIS02                52066021
 005384 D200 9A04 D61E 05CA4 081B6  7654 SPACCLN2 MVC   OPTNBYTE,RECMODE                                         52073021
 00538A 9180 DD4E      088E6        7655          TM    DOP1+NX2,XX80            BEFORE OPTION                   52080021
 00538E 4710 90F6      05396        7656          BO    SPAC01                  YES                              52087021
 005392 9610 9A04      05CA4        7657          OI    OPTNBYTE,XX10                                            52094021
 005396 9555 DE44      089DC        7658 SPAC01   CLI   DOP3,XX55                MNEUMONIC OPTION                52101021
 00539A 4770 911C      053BC        7659          BC    NOTEQ,SPAC02            NO                               52108021
 00539E 9500 DE45      089DD        7660          CLI   DOP3+NX1,XX00            SUPPRESS SPACING CODE?          52115021
 0053A2 4770 9110      053B0        7661          BNE   SPAC01A                 NO                               52122021
 0053A6 D204 DE44 9A06 089DC 05CA6  7662          MVC   DOP3(LX5),CSPSUBST       MOVE IN CONVERTED CSP CODE      52129021
 0053AC 47F0 9060      05300        7663          B     MWRIT01                 PROCESS AS INTEGER               52136021
 0053B0                             7664 SPAC01A  DS    0H                                                       52143021
 0053B0 9640 9A04      05CA4        7665          OI    OPTNBYTE,XX40            YES                             52150021
 0053B4 950C DE45      089DD        7666          CLI   DOP3+NX1,XX0C            CODE GREATER THAN 12            52157021
 0053B8 4720 9128      053C8        7667          BC    HI,SPAC03               YES, BYPASS MIXED TEST           52164021
1         IKFCBL51: WRITE VERB PROCESSOR W R I T E/R E W R I T E                                                PAGE  167
-  LOC  OBJECT CODE    ADDR1 ADDR2  STMT   SOURCE STATEMENT                                       ASM 0201 11.03 02/14/15
00053BC 9109 DD52      088EA        7668 SPAC02   TM    DOP1+NX6,XX09            MIXED                           52171021
 0053C0 47E0 9128      053C8        7669          BNO   SPAC03              IF ADVANCING OPT.  GO TO SPAC0       52178021
 0053C4 9680 9A04      05CA4        7670          OI    OPTNBYTE,XX80            YES                             52185021
 0053C8 9180 DF43      08ADB        7671 SPAC03   TM    DOP5+NX7,XX80   IS THIS A REPORT RECORD WITH CODE        52192021
 0053CC 4780 9134      053D4        7672         BC     ZERO,SPAC04    NO                                        52199021
 0053D0 9620 9A04      05CA4        7673          OI    OPTNBYTE,XX20            YES                             52206021
 0053D4 D200 D6B9 DD50 08251 088E8  7674 SPAC04   MVC   IOTXTOA(LX1),DOP1+NX4 MOVE BLI NO. TO PARAMETER LIST     52213021
 0053DA F200 D6B8 DF40 08250 08AD8  7675          PACK  IOTXTOA1(LX1),DOP5+NX4   MOVE BL TYPE TO TEXT            52220021
 0053E0 940F D6B8      08250        7676          NI    IOTXTOA1,XX0F                                            52227021
 0053E4 D200 D6BC 9A04 08254 05CA4  7677          MVC   IOTXTOC(LX1),OPTNBYTE                                    52234021
 0053EA D200 D6CB DD51 08263 088E9  7678          MVC   IOTXTOB(LX1),DOP1+NX5                                    52241021
 0053F0 45E0 78D2      008D2        7679         BAL    RETRG,GATXTV            *  MVC  PARAM#1,BLI              52248021
 0053F4 0084                        7680          DC    AL2(IOTXTO-ATXTBV)                                       52255021
 0053F6 001C                        7681         DC     AL2(IOTXTOD-IOTXTO)     *  MVI  PARAM#1,OPTNBYTE         52262021
                                    7682 *                                      *  MVC  PARAM#3,DCBADR           52269021
 0053F8 9104 D61E      081B6        7683          TM    RECMODE,FTYPE                                            52276021
 0053FC 4710 9174      05414        7684         BC     ONES,SPAC05         GO TO SPAC05                         52283021
 005400 9201 D198      07D30        7685          MVI   XREG1,XX01                                               52290021
 005404 45E0 96E0      05980        7686         BAL    RETRG,WRIS04        *    L  14,RCDLNGTH                  52297021
 005408 9204 D6D2      0826A        7687          MVI   IOTXTOE,XX04                                             52304021
 00540C 45E0 78D2      008D2        7688         BAL    RETRG,GATXTV        *    ST 14,PARAM#4                   52311021
 005410 00A0                        7689         DC     AL2(IOTXTOD-ATXTBV)                                      52318021
 005412 0007                        7690         DC     AL2(IOTXTOF-IOTXTOD)                                     52325021
 005414 9532 DE44      089DC        7691 SPAC05   CLI   DOP3,XX32       INTEGER  LINES                           52332021
 005418 4770 919A      0543A        7692         BC     NOTEQ,SPAC06   NO, THEN MUST BE DATANAME OR MNEUMONI     52339021
 00541C D200 D6D8 99D7 08270 05C77  7693          MVC   IOTXTOG+NX1(LX1),INTEGER+NX3                             52346021
 005422 45E0 78D2      008D2        7694         BAL    RETRG,GATXTV        *  LA 14,INTEGER                     52353021
 005426 00A7                        7695         DC     AL2(IOTXTOF-ATXTBV)                                      52360021
 005428 0006                        7696         DC     AL2(IOTXTOH-IOTXTOF)                                     52367021
 00542A 9202 D6D2      0826A        7697          MVI   IOTXTOE,XX02                                             52374021
 00542E 45E0 78D2      008D2        7698         BAL    RETRG,GATXTV        *  ST 14,PARAM#2                     52381021
 005432 00A0                        7699         DC     AL2(IOTXTOD-ATXTBV)                                      52388021
 005434 0007                        7700         DC     AL2(IOTXTOF-IOTXTOD)                                     52395021
 005436 47F0 91C4      05464        7701         BC     UNCOND,SPAC10       GO TO SPAC10                         52402021
0
 00543A 9555 DE44      089DC        7703 SPAC06   CLI   DOP3,XX55       MNEUMONIC                                52416021
 00543E 4770 91B4      05454        7704         BC     NOTEQ,SPAC07   NO,DATANAME OPTION                        52423021
 005442 D200 D6DB DE45 08273 089DD  7705          MVC   IOTXTOI(LX1),DOP3+NX1                                    52430021
 005448 45E0 78D2      008D2        7706         BAL    RETRG,GATXTV        * MVI PARAM#2+3,CODE                 52437021
 00544C 00AD                        7707         DC     AL2(IOTXTOH-ATXTBV)                                      52444021
 00544E 000B                        7708         DC     AL2(IOTXTOJ-IOTXTOH)                                     52451021
 005450 47F0 91C4      05464        7709         BC     UNCOND,SPAC10       GO TO SPAC10                         52458021
0
 005454 4130 DE44      089DC        7711 SPAC07  LA     RW3,DOP3       POINT  TO DATANAME                        52472021
 005458 45E0 BE32      01CAA        7712         BAL    RETRG,GDNCNG  *CVB  IF NOT BIN, LOAD INTO REG1           52479021
 00545C 45E0 78C6      008C6        7713         BAL    RETRG,GATXTC            *  STC  1,PARAM#2+3              52486021
 005460 0157                        7714         DC     AL2(ATXT92-ATXTBC)                                       52493021
 005462 000B                        7715         DC     AL2(ZTXT92-ATXT92)                                       52500021
 005464 4120 0004      00004        7716 SPAC10   LA    RW2,DX4                                                  52507021
 005468 4920 A22A      0022A        7717         CH     RW2,PARMAX     PARMAX LESS THAN 4                        52514021
 00546C 47D0 91D4      05474        7718         BC     NOTHI,SPAC11   NO                                        52521021
 005470 4020 A22A      0022A        7719         STH    RW2,PARMAX     YES, RESET TO 4                           52528021
 005474 45E0 78C6      008C6        7720 SPAC11   BAL   RETRG,GATXTC            *  LA  1,PARAM#1                 52535021
1         IKFCBL51: WRITE VERB PROCESSOR W R I T E/R E W R I T E                                                PAGE  168
-  LOC  OBJECT CODE    ADDR1 ADDR2  STMT   SOURCE STATEMENT                                       ASM 0201 11.03 02/14/15
0005478 0162                        7721          DC    AL2(ATXT93-ATXTBC)                                       52542021
 00547A 0007                        7722          DC    AL2(ZTXT93-ATXT93)                                       52549021
 00547C 4130 C760      07590        7723          LA    RW3,SPACCON                                              52556021
 005480 45E0 77DE      007DE        7724          BAL   RETRG,VBALRE            GEN BRANCH TO ILBOSPAC           52563021
 005484 45E0 7CCC      00CCC        7725        BAL   RETRG,WRKLRX         DESTROY 14, 15                        52570021
 005488 47F0 9806      05AA6        7726          BC    UNCOND,REWREX      EXIT TO PH5CNTRL                      52577021
                             0548C  7727 MWRIT03 EQU    *              GENERATE INLINE PUTL CALLING SEQUENCE     52584021
-
 00548C 9608 DD56      088EE        7729          OI    DOP1+NX10,XX08           TURN ON SAME RECORD AREA BIT    52598021
 005490 47F0 9242      054E2        7730          B     WRIT20              GO TO WRIT20                         52605021
0
 005494                             7732 WRIT23   DS    0H                                                       52619021
 005494 4120 DD4C      088E4        7733          LA    RW2,DOP1                                                 52626021
 005498 9101 D61D      081B5        7734          TM    WRITSW,MSWON                                             52633021
 00549C 4710 9870      05B10        7735        BC    ONES,WRIT26           THIS IS SECOND STRING, FOR POST-     52640021
 0054A0 9601 D61D      081B5        7736          OI    WRITSW,MSWON                                             52647021
 0054A4 91E0 DD52      088EA        7737          TM    DOP1+NX6,MNOQQI      EITHER QSAM OR QISAM...             52654021
 0054A8 4770 940C      056AC        7738        BC    NOTZER,WRIT01          NO                                  52661021
 0054AC 9102 DD52      088EA        7739          TM    DOP1+NX6,XX02        APPLY WRITE ONLY...                 52668021
 0054B0 4710 9242      054E2        7740        BC    ONES,WRIT03            YES, DO NO SET UP CARR CONTROL      52675021
 0054B4 D501 DEC0 C834 08A58 07664  7741          CLC   DOP4(LX2),ONZERO         IS MOVE EXPECTED                52682021
 0054BA 4770 700A      0000A        7742        BC    NOTEQ,DON              YES                                 52689021
                             054BE  7743 WRIT21 EQU   *                                                          52696021
 0054BE 94FE D61D      081B5        7744        NI    WRITSW,MSWOFF                                              52703021
 0054C2 45E0 7CCC      00CCC        7745        BAL   RETRG,WRKLRG          KILL 0-5, 14, 15                     52710021
 0054C6 9102 DD52      088EA        7746          TM    DOP1+NX6,XX02        APPLY WRITE ONLY...                 52717021
 0054CA 4710 9652      058F2        7747          BC    ONES,WRIT02          YES                                 52724021
 0054CE 95AA DE44      089DC        7748          CLI   DOP3,MRGN               AFTER POSITIONING                52731021
 0054D2 4780 9242      054E2        7749        BC    EQ,WRIT20              NO                                  52738021
 0054D6 9530 DE44      089DC        7750          CLI   DOP3,MDN                AFTER POSITIONING DN             52745021
 0054DA 4780 965A      058FA        7751          BC    EQ,WRIT04            YES                                 52752021
 0054DE 45E0 9662      05902        7752          BAL   RETRG,WRIS01        *    MVI  RN,C'N'                    52759021
                             054E2  7753 WRIT20 EQU   *                                                          52766021
 0054E2 45E0 968C      0592C        7754 WRIT03   BAL   RETRG,WRIS02        *    L    1,DCBADR                   52773021
 0054E6 45E0 7A28      00A28        7755          BAL   RETRG,INVCK         INVALID KEY CODED...           58971 52780021
 0054EA 4770 9252      054F2        7756          BC    NOTEQ,WRIT05        IF NOT, SKIP NEXT INST               52787021
 0054EE 45E0 7A10      00A10        7757          BAL   RETRG,INVKEY        PUT A TEXT FOR INVALID KEY           52794021
 0054F2                             7758 WRIT05   DS 0H                                                          52801021
 0054F2 9101 D61C      081B4        7759          TM    REWRSW,MSWON            REWRITE?                         52808021
 0054F6 4710 97C2      05A62        7760          BO    REWR01                  YES                              52815021
 0054FA 9104 D61E      081B6        7761          TM    RECMODE,FTYPE           F TYPE RCD?                      52822021
 0054FE 47E0 926E      0550E        7762          BNO   WRIT05A             NO                             43505 52829021
 005502 91F0 DD52      088EA        7763          TM    DOP1+NX6,XXF0       QSAM...                        43505 52836021
 005506 4780 98CA      05B6A        7764          BZ    WRIT40A             YES                            43505 52843021
 00550A 47F0 932E      055CE        7765          B     WRIT06A             NO                             43505 52850021
 00550E                             7766 WRIT05A  DS    0H                                                 43505 52857021
 00550E 9108 D584      0811C        7767          TM    SORTSW1,SORTVERB    ARE WE IN THE MIDDLE OF A SORT 43150 52864021
                                    7768 *    OUTPUT PROCEDURE FOR A GIVING FILE...                        7882  52871021
 005512 4780 92A0      05540        7769          BZ    WRIT09              NO                             7882  52878021
                                    7770 *                                                                 7882  52885021
 005516 D201 DB7B D5D4 08713 0816C  7771          MVC   A71CH1(LX2),XSARTRN INSERT XSACELL NUMBER          43150 52892021
 00551C 45E0 78D2      008D2        7772          BAL   RETRG,GATXTV        *                              7882  52899021
1         IKFCBL51: WRITE VERB PROCESSOR W R I T E/R E W R I T E                                                PAGE  169
-  LOC  OBJECT CODE    ADDR1 ADDR2  STMT   SOURCE STATEMENT                                       ASM 0201 11.03 02/14/15
0005520 054A                        7773          DC    AL2(ATXT71-ATXTBV)       L   4,XSA-CELL            43150 52906021
 005522 0007                        7774          DC    AL2(ZTXT71-ATXT71)  *                              7882  52913021
                                    7775 *                                                                 7882  52920021
 005524 9204 D198      07D30        7776          MVI   XREG1,XX04                                         43150 52927021
 005528 9204 D17F      07D17        7777          MVI   XCON1+NX15,XX04                                    7882  52934021
 00552C 9202 D180      07D18        7778          MVI   XCON1+NX16,XX02                                    7882  52941021
 005530 45E0 BB5C      019D4        7779          BAL   RETRG,SHALF         SH   4,=H'4'                   43150 52948021
                                    7780 *                                                                 7882  52955021
 005534 45E0 78D2      008D2        7781          BAL   RETRG,GATXTV        SR   3,3                       43150 52962021
 005538 0551                        7782          DC    AL2(ATXT75-ATXTBV)       IC   3,0(0,4)             43150 52969021
 00553A 0015                        7783          DC    AL2(ZTXT75-ATXT75)       SLL  3,8                  43150 52976021
                                    7784 *                                       IC   3,1(0,4)             43150 52983021
 00553C 47F0 92C8      05568        7785          B     WRIT37              GO THRU FURTHER TESTS          7882  52990021
 005540                             7786 WRIT09   DS    0H                                                 7882  52997021
 005540 9203 D198      07D30        7787          MVI   XREG1,XX03                                               53004021
 005544 45E0 96E0      05980        7788          BAL   RETRG,WRIS04            *  LH  3,RCDLNGTH                53011021
 005548 9101 D61E      081B6        7789          TM    RECMODE,STYPE            SPANNED?                        53018021
 00554C 4710 92B8      05558        7790          BC    ONES,WRIT05B              YES                            53025021
 005550 9108 D61E      081B6        7791          TM    RECMODE,VTYPE           V TYPE RCD                       53032021
 005554 47E0 92C8      05568        7792          BNO   WRIT37              IF NOT VTYPE,  GO TO WRIT37          53039021
 005558                             7793 WRIT05B  DS    0H                                                       53046021
 005558 9203 D198      07D30        7794          MVI   XREG1,XX03                                               53053021
 00555C 9230 D15E      07CF6        7795          MVI   BDISP1,XX30                                              53060021
 005560 9204 D15F      07CF7        7796          MVI   BDISP1+NX1,XX04                                          53067021
 005564 45E0 BB7C      019F4        7797          BAL   RETRG,LA                *  LA  3,4(3)                    53074021
 005568                             7798 WRIT37   DS    0H                                                       53081021
 005568 9101 D61E      081B6        7799          TM    RECMODE,STYPE      S?                                    53088021
 00556C 4710 9300      055A0        7800          BO    WRIT07             YES.                                  53095021
 005570 9102 DD52      088EA        7801          TM    DOP1+NX6,MAWO            APPLY WRITE ONLY                53102021
 005574 4770 92F4      05594        7802          BNZ   WRIT08                  YES                              53109021
 005578 9108 DD56      088EE        7803          TM    DOP1+NX10,XX08           SRA OR ADVANCING                53116021
 00557C 4770 92F4      05594        7804          BNZ   WRIT08                  YES                              53123021
 005580 9108 D61E      081B6        7805          TM    RECMODE,VTYPE           V TYPE RCD                       53130021
 005584 4710 9300      055A0        7806          BO    WRIT07                  YES                              53137021
 005588 45E0 78C6      008C6        7807          BAL   RETRG,GATXTC            *  A  3,76(1)                    53144021
 00558C 0138                        7808          DC    AL2(ATXT87-ATXTBC)      *  SH  3,82(1)                   53151021
 00558E 0018                        7809          DC    AL2(ZTXT87-ATXT87)      *  ST  3,76(1)                   53158021
                                    7810 *                                      *  ST  3,72(1)                   53165021
 005590 47F0 9326      055C6        7811          B     WRIT06              GO TO WRIT06                         53172021
 005594                             7812 WRIT08   DS    0H                                                       53179021
 005594 45E0 78C6      008C6        7813          BAL   RETRG,GATXTC            *  STH  3,82(2)                  53186021
 005598 026B                        7814          DC    AL2(ATXT105-ATXTBC)                                      53193021
 00559A 0006                        7815          DC    AL2(ZTXT105-ATXT105)                                     53200021
 00559C 47F0 9326      055C6        7816          B     WRIT06              GO TO WRIT06                         53207021
 0055A0                             7817 WRIT07   DS    0H                                                       53214021
 0055A0 9205 D198      07D30        7818          MVI   XREG1,XX05                                               53221021
 0055A4 D200 D197 2004 07D2F 00004  7819          MVC   BLREF1+NX1(LX1),DX4(RW2)                                 53228021
 0055AA 45E0 B000      00E78        7820          BAL   RETRG,LOAD              *  L  5,BL#FILE                  53235021
 0055AE 9205 D198      07D30        7821          MVI   XREG1,XX05                                               53242021
 0055B2 9204 D17F      07D17        7822          MVI   XCON1+NX15,XX04                                          53249021
 0055B6 9202 D180      07D18        7823          MVI   XCON1+NX16,XX02                                          53256021
 0055BA 45E0 BB5C      019D4        7824          BAL   RETRG,SHALF             *  SH  5,=H'4'                   53263021
 0055BE 45E0 78C6      008C6        7825        BAL   RETRG,GATXTC          PUT A TEXT                           53270021
 0055C2 003F                        7826          DC    AL2(ATXT40-ATXTBC)      *  STC  3,1(5)                   53277021
 0055C4 001E                        7827          DC    AL2(ZTXT40-ATXT40)      *  SRL  3,8                      53284021
1         IKFCBL51: WRITE VERB PROCESSOR W R I T E/R E W R I T E                                                PAGE  170
-  LOC  OBJECT CODE    ADDR1 ADDR2  STMT   SOURCE STATEMENT                                       ASM 0201 11.03 02/14/15
0                                   7828 *                                      *  STC  3,0(5)                   53291021
                                    7829 *                                       *  MVI  2(5),X'00'              53298021
                                    7830 *                                       *  MVI  3(5),X'00'              53305021
 0055C6                             7831 WRIT06   DS    0H                                                       53312021
 0055C6 91F0 DD52      088EA        7832          TM    DOP1+NX6,XXF0            QSAM                            53319021
 0055CA 4780 98BC      05B5C        7833          BZ    WRIT40                  YES                              53326021
 0055CE                             7834 WRIT06A  DS    0H                                                 43505 53333021
 0055CE 45E0 78D2      008D2        7835          BAL   RETRG,GATXTV        IF NOT QSAM,  PUT A TEXT             53340021
 0055D2 002A                        7836        DC    AL2(IOTXTG-ATXTBV)                                         53347021
 0055D4 0009                        7837        DC    AL2(IOTXTH-IOTXTG)                                         53354021
 0055D6                             7838 WRIT41   DS    0H                      QSAM RETURNS HERE                53361021
 0055D6 9110 DD52      088EA        7839          TM    DOP1+NX6,XX10       QISAM...                        1139 53368021
 0055DA 4780 9356      055F6        7840          BZ    WRIT31              NO                              1139 53375021
 0055DE 45E0 BDD0      01C48        7841          BAL   RETRG,GNSTEP        BUMP GN COUNTER                 1139 53382021
 0055E2 D201 D305 A15E 07E9D 0015E  7842          MVC   GLGNCN+NX3(LX2),GNCTR    SAVE FOR LATER GN DEF      1139 53389021
 0055E8 D201 DCCA A15E 08862 0015E  7843          MVC   IOTXTZZ2(LX2),GNCTR INSERT IN LOAD INSTRUCTION      1139 53396021
 0055EE 45E0 78D2      008D2        7844          BAL   RETRG,GATXTV        * TM   81(2),X'C0'              1139 53403021
 0055F2 0690                        7845          DC    AL2(IOTXTZZ1-ATXTBV)     * L    14,GN(NO BL'S)      1139 53410021
 0055F4 0017                        7846          DC    AL2(IOTXTZZ3-IOTXTZZ1)   * BCR  7,14                1139 53417021
 0055F6                             7847 WRIT31   DS    0H                                                  1139 53424021
 0055F6 9108 DD56      088EE        7848          TM    DOP1+NX10,XX08           ADVANCING OR SAME RCD AREA      53431021
 0055FA 4770 9366      05606        7849          BC    NOTZER,WRIT06B          YES                              53438021
 0055FE 9102 DD52      088EA        7850          TM    DOP1+NX6,MAWO        APPLY WRITE ONLY...                 53445021
 005602 4780 937E      0561E        7851        BC    ZERO,WRIT29            NO, SKIP GATX41                     53452021
                             05606  7852 WRIT06B  EQU   *                                                        53459021
 005606 9101 D61E      081B6        7853          TM    RECMODE,STYPE       SPANNED?                             53466021
 00560A 4710 937E      0561E        7854          BO    WRIT29             IF SPANNED, GO TO WRIT29              53473021
 00560E 9108 D61E      081B6        7855          TM    RECMODE,VTYPE           V TYPE RECORD                    53480021
 005612 47E0 93AA      0564A        7856          BC    NOTONE,WRIT06D          NO                               53487021
 005616 45E0 78C6      008C6        7857        BAL   RETRG,GATXTC           YES,                                53494021
 00561A 005D                        7858        DC    AL2(ATXT41-ATXTBC)    *    STH  3,0(1)                     53501021
 00561C 0012                        7859        DC    AL2(ZTXT41-ATXT41)    *    MVI  2(1),C' '                  53508021
                                    7860 *                                  *    MVI  3(1),C' '                  53515021
 00561E                             7861 WRIT29   DS    0H                                                       53522021
 00561E 9101 D61E      081B6        7862          TM    RECMODE,STYPE       SPANNED?                             53529021
 005622 4710 9392      05632        7863          BO    WRIT290            IF SPANNNED, GO TO WRIT290            53536021
 005626 9108 D61E      081B6        7864          TM    RECMODE,VTYPE           V TYPE RECORDS                   53543021
 00562A 47E0 93AA      0564A        7865          BNO   WRIT06D                 NO                               53550021
 00562E 47F0 939A      0563A        7866          B     WRIT29A            BRANCH TO WRIT29A                     53557021
 005632 9108 DD56      088EE        7867 WRIT290  TM    DOP1+NX10,XX08      SRA?                                 53564021
 005636 4710 9806      05AA6        7868          BO    REWREX             YES; NO BL CHANGE - NO MOVE.          53571021
 00563A                             7869 WRIT29A  DS    0H                                                       53578021
 00563A 9210 D15E      07CF6        7870          MVI   BDISP1,XX10                                              53585021
 00563E 9204 D15F      07CF7        7871          MVI   BDISP1+NX1,XX04          *  LA  1,4(1)                   53592021
 005642 9201 D198      07D30        7872          MVI   XREG1,XX01                                               53599021
 005646 45E0 BB7C      019F4        7873          BAL   RETRG,LA            PUT A TEXT LA INST                   53606021
                             0564A  7874 WRIT06D  EQU   *                                                        53613021
 00564A 9108 DD56      088EE        7875          TM    DOP1+NX10,XX08           ADVANCING OR SAME RCD AREA      53620021
 00564E 4780 93C2      05662        7876          BZ    WRIT30                  NO                               53627021
 005652 45E0 7ADA      00ADA        7877          BAL   RETRG,WRITMOVE          GENERATE MOVE CODING             53634021
 005656 9110 DD52      088EA        7878          TM    DOP1+NX6,MQISAM           QISAM?                         53641021
 00565A 4710 9806      05AA6        7879          BO    REWREX                   YES                             53648021
 00565E 47F0 98D6      05B76        7880          B     WRIT42             BRANCH TO WRIT42                      53655021
 005662                             7881 WRIT30   DS    0H                                                 48401 53662021
 005662 91F0 DD52      088EA        7882          TM    DOP1+NX6,XXF0       QSAM...                        48401 53669021
1         IKFCBL51: WRITE VERB PROCESSOR W R I T E/R E W R I T E                                                PAGE  171
-  LOC  OBJECT CODE    ADDR1 ADDR2  STMT   SOURCE STATEMENT                                       ASM 0201 11.03 02/14/15
0005666 4770 93E8      05688        7883          BNZ   WRIT10              NO                             48401 53676021
 00566A D200 D9D6 DD51 0856E 088E9  7884          MVC   A07CH1(LX1),DOP1+NX5     INSERT DCB NUMBER         48401 53683021
 005670 45E0 BDD0      01C48        7885          BAL   RETRG,GNSTEP             BUMP GNCTR                48401 53690021
 005674 D201 D305 A15E 07E9D 0015E  7886          MVC   GLGNCN+NX3(LX2),GNCTR                              48401 53697021
 00567A D201 D9E1 A15E 08579 0015E  7887          MVC   A07CH2(LX2),GNCTR        INSERT GN NUMBER          48401 53704021
                                    7888 *                                           * L    2,DCBADR       48401 53711021
 005680 45E0 78D2      008D2        7889          BAL   RETRG,GATXTV                 * TM   121(DCB),X'40' 48401 53718021
 005684 03A4                        7890          DC    AL2(ATXT07-ATXTBV)           * L    3,GN(IOERROR)  48401 53725021
 005686 001C                        7891          DC    AL2(ZTXT07-ATXT07)           * MVI  121(DCB),X'00' 48401 53732021
                                    7892 *                                           * BCR  1,3            48401 53739021
 005688                             7893 WRIT10   DS    0H                                                 48401 53746021
 005688 4120 DD4C      088E4        7894          LA    RW2,DOP1                                                 53753021
 00568C 45E0 78BC      008BC        7895          BAL   RETRG,IOSTBL        *    ST   1,BL=FN  FOR EACH BL       53760021
 005690 91F0 DD52      088EA        7896          TM    DOP1+NX6,XXF0       QSAM...                        48401 53767021
 005694 4770 93FC      0569C        7897          BNZ   WRIT11              NO                             48401 53774021
 005698 45E0 BA24      0189C        7898          BAL   RETRG,GNOPT3             * GN(IOERROR) EQU *       48401 53781021
 00569C                             7899 WRIT11   DS    0H                                                 48401 53788021
 00569C 9102 DD52      088EA        7900          TM    DOP1+NX6,MAWO                                            53795021
 0056A0 4710 9866      05B06        7901          BO    WRIT25              IF YES,  GO TO WRIT25                53802021
 0056A4 45E0 7884      00884        7902        BAL   RETRG,IOQRTN          *    Q-ROUTINE CALLS                 53809021
 0056A8 47F0 9806      05AA6        7903          B     REWREX              GO TO REWREX (RETURN TO PH5CTL)      53816021
                                    7904 *                                                                       53823021
                                    7905 *     DEVELOP CODING FOR  WRITE BISAM FILES                             53830021
                                    7906 *                                                                       53837021
 0056AC                             7907 WRIT01   DS    0H                                                       53844021
 0056AC 9120 DD52      088EA        7908          TM    DOP1+NX6,MBISAM     BISAM                                53851021
 0056B0 47E0 94DC      0577C        7909        BC    NOTONE,WRIT24         NO                                   53858021
 0056B4 45E0 7884      00884        7910        BAL   RETRG,IOQRTN                  * Q-ROUTINE CALLS            53865021
 0056B8 47F0 9866      05B06        7911        BC    UNCOND,WRIT25        MOVE ANALYZER IF NECESSARY            53872021
                                    7912 *                       POST-MOVE, SECOND STRING                        53879021
                             056BC  7913 WRBI00 EQU   *                                                          53886021
 0056BC 45E0 78D2      008D2        7914          BAL   RETRG,GATXTV        PUT A TEXT                           53893021
 0056C0 0000                        7915          DC    AL2(IOTXTA-ATXTBV)      *  L  3,DECBADR                  53900021
 0056C2 000D                        7916          DC    AL2(IOTXTC-IOTXTA)      *  L  2,8(3)                     53907021
 0056C4 9108 DD56      088EE        7917          TM    DOP1+NX10,XX08           SAME RECORD AREA                53914021
 0056C8 47E0 9464      05704        7918          BC    NOTONE,WRBI00A          NO                               53921021
 0056CC 9201 D198      07D30        7919          MVI   XREG1,XX01                XXXX                           53928021
 0056D0 9230 D15E      07CF6        7920          MVI   BDISP1,XX30               X                              53935021
 0056D4 9101 D61C      081B4        7921          TM    REWRSW,MSWON            REWRITE                          53942021
 0056D8 4710 9458      056F8        7922          BC    ONES,WRBI00B            YES                              53949021
 0056DC 920C D15F      07CF7        7923          MVI   BDISP1+NX1,XX0C          *  L  1,12(3)                   53956021
 0056E0 45E0 B000      00E78        7924          BAL   RETRG,LOAD               XXXX                            53963021
 0056E4 9201 D198      07D30        7925          MVI   XREG1,XX01                XXXX                           53970021
 0056E8 9210 D17F      07D17        7926          MVI   XCON1+NX15,XX10           X                              53977021
 0056EC 9202 D180      07D18        7927          MVI   XCON1+NX16,XX02          *  AH  1,=H'16'                 53984021
 0056F0 45E0 BA38      018B0        7928          BAL   RETRG,ADD                XXXX                            53991021
 0056F4 47F0 9460      05700        7929          B     WRBI00C                 SKIP AROUND                      53998021
 0056F8                             7930 WRBI00B  DS    0H                                                       54005021
 0056F8 9210 D15F      07CF7        7931          MVI   BDISP1+NX1,XX10                                          54012021
 0056FC 45E0 B000      00E78        7932          BAL   RETRG,LOAD              *  L  1,16(3)                    54019021
 005700                             7933 WRBI00C  DS    0H                                                       54026021
 005700 45E0 7ADA      00ADA        7934          BAL   RETRG,WRITMOVE          GENERATE MOVE CODING             54033021
                             05704  7935 WRBI00A  EQU   *                                                        54040021
 005704 9101 D61C      081B4        7936        TM    REWRSW,MSWON         IS IT REWRITE                         54047021
 005708 4780 9478      05718        7937        BC    ZERO,WRBI10          NO                                    54054021
1         IKFCBL51: WRITE VERB PROCESSOR W R I T E/R E W R I T E                                                PAGE  172
-  LOC  OBJECT CODE    ADDR1 ADDR2  STMT   SOURCE STATEMENT                                       ASM 0201 11.03 02/14/15
000570C 9258 D667      081FF        7938          MVI   IOTXIA+NX5,XX58     WRITE-KU DISPL                       54061021
 005710 9208 DB72      0870A        7939          MVI   ATXT70+NX2,XX08     WRITE-KU CODE FOR REWRITE DECB       54068021
 005714 47F0 94C0      05760        7940        BC    UNCOND,WRBI15         GO TO WRBI15                         54075021
                             05718  7941 WRBI10   EQU   *                                                        54082021
 005718 9601 7A8A      00A8A        7942          OI    ANALSW,MSWON        INDICATE A WRITE               P6232 54089021
 00571C 9108 DD56      088EE        7943          TM    DOP1+NX10,XX08           SRA?                            54096021
 005720 4710 94B8      05758        7944          BO    WRBI10A                 YES                              54103021
 005724 1B22                        7945        SR    RW2,RW2              PUT BL INTO ATEXT SLOT                54110021
 005726 4320 DF40      08AD8        7946          IC    RW2,DOP5+NX4                                             54117021
 00572A 8820 0004      00004        7947          SRL   RW2,DX4                                                  54124021
 00572E 4220 C9F2      07822        7948          STC   RW2,ATX82B+NX4                                           54131021
 005732 D200 C9F3 DF42 07823 08ADA  7949          MVC   ATX82B+NX5(LX1),DOP5+NX6                                 54138021
 005738 45E0 78C6      008C6        7950        BAL   RETRG,GATXTC          PUT A TEXT                           54145021
 00573C 0114                        7951          DC    AL2(ATXT82-ATXTBC)      *  L  5,12(3)                    54152021
 00573E 000C                        7952        DC    AL2(ZTXT82-ATXT82)   *    L    1,BL=                       54159021
 005740 9210 D17F      07D17        7953          MVI   XCON1+NX15,XX10                                          54166021
 005744 9202 D180      07D18        7954          MVI   XCON1+NX16,XX02                                          54173021
 005748 9201 D198      07D30        7955          MVI   XREG1,XX01                                               54180021
 00574C 45E0 BB5C      019D4        7956        BAL   RETRG,SHALF          *    SH   1,=16      (SET AREA AD     54187021
 005750 45E0 78C6      008C6        7957        BAL   RETRG,GATXTC                               = REC. AD.-     54194021
 005754 0120                        7958        DC    AL2(ATXT83-ATXTBC)                                         54201021
 005756 0006                        7959        DC    AL2(ZTXT83-ATXT83)   *    ST   1,12(3)                     54208021
                                    7960 *                                                                       54215021
 005758                             7961 WRBI10A  DS    0H                                                       54222021
 005758 9204 DB72      0870A        7962          MVI   ATXT70+NX2,XX04     WRITE KN CODE FOR WRITE              54229021
 00575C 925C D667      081FF        7963          MVI   IOTXIA+NX5,XX5C     WRITE KN DISPL                       54236021
 005760                             7964 WRBI15   DS    0H                                                 58971 54243021
 005760 45E0 7A28      00A28        7965          BAL   RETRG,INVCK         INVALID KEY CODED...           58971 54250021
 005764 4770 94CC      0576C        7966          BC    NOTEQ,WRBI15A       IF NOT,  GO TO WRBI15A               54257021
 005768 45E0 7A10      00A10        7967          BAL   RETRG,INVKEY            YES                              54264021
 00576C 45E0 78D2      008D2        7968 WRBI15A  BAL   RETRG,GATXTV        IT                                   54271021
 005770 0544                        7969        DC    AL2(ATXT70-ATXTBV)            * MVI  5(3),CODE             54278021
 005772 0006                        7970        DC    AL2(ZTXT70-ATXT70)                                         54285021
 005774 45E0 7A50      00A50        7971          BAL   RETRG,BISMRDWT        GEN WRITE/CHECK INSTRS.            54292021
 005778 47F0 9806      05AA6        7972          B     REWREX              EXIT FROM ROUTINE                    54299021
                                    7973 *                                                                       54306021
                                    7974 *        DEVELOP CODING FOR WRITE BDAM FILES                            54313021
                                    7975 *                                                                       54320021
                             0577C  7976 WRIT24 EQU   *                                                          54327021
 00577C 9180 DD52      088EA        7977          TM    DOP1+NX6,MBDAM       BDAM                                54334021
 005780 47E0 9620      058C0        7978        BC    NOTONE,WRIT16         NO                                   54341021
 005784 D501 DEC0 C834 08A58 07664  7979          CLC   DOP4(LX2),ONZERO     IS MOVE EXPECTED...                 54348021
 00578A 4780 94F6      05796        7980          BE    WRIT34                  NO                               54355021
 00578E 45E0 7884      00884        7981          BAL   RETRG,IOQRTN            CALL QRTNS                       54362021
 005792 47F0 700A      0000A        7982          B     DON                 RETURN TO PHASE 5 CONTROL            54369021
-
 005796 94FE D61D      081B5        7984 WRIT34 NI    WRITSW,MSWOFF          NO, OR COMPLETED                    54383021
 00579A 9202 D63B      081D3        7985          MVI   IOTXTC+NX2,XX02     DECTYPE CODE FOR WRITE               54390021
 00579E 9101 D61C      081B4        7986        TM    REWRSW,MSWON      X'42' FOR REWRITE                        54397021
 0057A2 4780 9516      057B6        7987        BC    ZERO,REWR07       X'44' FOR REL TRK                        54404021
 0057A6 9204 D63B      081D3        7988          MVI   IOTXTC+NX2,XX04     DECTYPE CODE FOR REL TRK REWRITE     54411021
 0057AA 9104 DD52      088EA        7989          TM    DOP1+NX6,XX04                                            54418021
 0057AE 4710 9516      057B6        7990        BC    ONES,REWR07           SKIP NEXT INST                       54425021
1         IKFCBL51: WRITE VERB PROCESSOR W R I T E/R E W R I T E                                                PAGE  173
-  LOC  OBJECT CODE    ADDR1 ADDR2  STMT   SOURCE STATEMENT                                       ASM 0201 11.03 02/14/15
00057B2 9200 D63B      081D3        7991          MVI   IOTXTC+NX2,XX00     DECTYPE CODE FOR REL RCD REWRITE     54432021
 0057B6                             7992 REWR07   DS    0H                                                       54439021
 0057B6 9102 D61E      081B6        7993          TM    RECMODE,UTYPE           U TYPE RECORD?                   54446021
 0057BA 4710 9522      057C2        7994          BO    REWR07A                 YES                              54453021
 0057BE 9640 D63B      081D3        7995          OI    IOTXTC+NX2,XX40     SET 'S' FOR F/V RCD WRITE/REWRITE    54460021
 0057C2                             7996 REWR07A  DS    0H                                                       54467021
 0057C2 45E0 78D2      008D2        7997        BAL   RETRG,GATXTV          PUT A TEXT                           54474021
 0057C6 0000                        7998        DC    AL2(IOTXTA-ATXTBV)                                         54481021
 0057C8 000D                        7999          DC    AL2(IOTXTC-IOTXTA)      *  L  3,DECBADR                  54488021
                                    8000 *                                      *  L  2,8(3)                     54495021
 0057CA 9104 2006      00006        8001          TM    DX6(RW2),XX04            DIRECT                          54502021
 0057CE 4710 953E      057DE        8002          BO    REWR07C                 YES                              54509021
 0057D2 45E0 78C6      008C6        8003          BAL   RETRG,GATXTC            *  L  1,20(3)                    54516021
 0057D6 0295                        8004          DC    AL2(ATXT109-ATXTBC)     *  MVC  28(4,3),0(1)             54523021
 0057D8 000F                        8005          DC    AL2(ZTXT109-ATXT109)                                     54530021
 0057DA 47F0 9596      05836        8006          B     REWR07D             GO TO REWR07D                        54537021
0
 0057DE                             8008 REWR07C  DS    0H                                                       54551021
 0057DE 45E0 7D3A      00D3A        8009          BAL   RETRG,BDAMDW            *  LA  1,ACT-KEY+4               54558021
                                    8010 *                                      *  ST  1,20(3)                   54565021
                                    8011 *                                      *  MVC  28(4,3),ACT-KEY          54572021
 0057E2 9101 D61C      081B4        8012          TM    REWRSW,MSWON            REWRITE?                         54579021
 0057E6 4710 95A6      05846        8013          BO    REWR08                  YES                              54586021
 0057EA 9108 DD52      088EA        8014          TM    DOP1+NX6,XX08            BDAM 'D'                        54593021
 0057EE 47E0 95A6      05846        8015          BNO   REWR08                  NO                               54600021
 0057F2 D200 D804 D63B 0839C 081D3  8016          MVC   IOTXTDD1+NX2(LX1),IOTXTC+NX2 CODE=WRITE-ADD              54607021
 0057F8 9706 D804      0839C        8017          XI    IOTXTDD1+NX2,XX06        CODE=WRITE-UPDATE               54614021
 0057FC D202 D80F DD57 083A7 088EF  8018          MVC   IOTXTDD2+NX7(LX3),DOP1+NX11 ACT-KEY IDK                  54621021
 005802 1B44                        8019          SR    RW4,RW4                                                  54628021
 005804 4340 DD5A      088F2        8020          IC    RW4,DOP1+NX14            KEY LENGTH                      54635021
 005808 4144 0003      00003        8021          LA    RW4,DX3(RW4)                                             54642021
 00580C 4240 D80A      083A2        8022          STC   RW4,IOTXTDD2+NX2         KL+4                            54649021
 005810 45E0 BDD0      01C48        8023          BAL   RETRG,GNSTEP        INCREMENT GN CTR                     54656021
 005814 D201 D7F7 A15E 0838F 0015E  8024          MVC   IOTXTDD3(LX2),GNCTR                                      54663021
 00581A D201 D305 A15E 07E9D 0015E  8025          MVC   GLGNCN+NX3(LX2),GNCTR                                    54670021
 005820 45E0 BDD0      01C48        8026          BAL   RETRG,GNSTEP            INCREMENT GN COUNTER             54677021
 005824 D201 D819 A15E 083B1 0015E  8027          MVC   IOTXTDD4(LX2),GNCTR      MOVE GN NUMBER                  54684021
 00582A 45E0 78D2      008D2        8028          BAL   RETRG,GATXTV            *  TM  5(3),X'08'                54691021
 00582E 01C1                        8029          DC    AL2(IOTXTDD-ATXTBV)     *  L  5,GN                       54698021
 005830 0031                        8030          DC    AL2(IOTXTEE-IOTXTDD)    *  BCR  NOTONE,5                 54705021
                                    8031 *                                      *  L  1,36(3)                    54712021
                                    8032 *                                      *  MVI  5(3),WRITE-UPDATE-CO     54719021
                                    8033 *                                      *  CLC  0(KL+4,1),ACT-KEY        54726021
                                    8034 *                                      * L  5,GN2                       54733021
                                    8035 *                                      *  BCR  EQ,5                     54740021
 005832 45E0 BA24      0189C        8036          BAL   RETRG,GNOPT3            GNDEF                            54747021
 005836                             8037 REWR07D  DS    0H                                                       54754021
 005836 9102 D628      081C0        8038          TM    CPFLAG,XX02         CHECKPOINT WRITE...            45673 54761021
 00583A 4780 95A6      05846        8039          BZ    REWR08              NO                             45673 54768021
 00583E 5890 C35C      0718C        8040          L     GVERB,ADCN72                                             54775021
                             04DE8  8041          USING WRITCHCK,GVERB                                           54782021
 005842 47F0 9014      04DFC        8042          B     CPBOTH              GO TO CPBOTH IN CHECKPINT READ       54789021
                             052A0  8043          USING WRITE,GVERB                                              54796021
                                    8044 *                          CHECKPOINT BDAM-D WRITE ENTERS HERE          54803021
