1PH20     IKFCBL20                                                                                              PAGE  358
-  LOC  OBJECT CODE    ADDR1 ADDR2  STMT   SOURCE STATEMENT                                       ASM 0201 11.03 02/14/15
000C174 00006D3E                   15864 ASP100   DC    A(SPI100)                                                88074021
 00C178 00003858                   15865 AREORGBD DC    A(REORGBD)                                               88080021
 00C17C 00006E66                   15866 ASP200   DC    A(SPI200)                                                88086021
 00C180 00006E6A                   15867 ASP210   DC    A(SPI210)                                                88092021
 00C184 00008930                   15868 AWSEND   DC    A(WSEND)                                                 88098021
 00C188 0000A100                   15869 AFSEND   DC    A(FSEND)                                                 88104021
 00C18C 0000A8A8                   15870 AQUAL    DC    A(QUAL)                                                  88110021
 00C190 0000C450                   15871 AWKARE   DC    A(WKAREA)                                                88116021
 00C194 00009208                   15872 AFST00   DC    A(FST000)                                                88122021
 00C198 0000B7D4                   15873 ABPICT   DC    A(BPICTR)                                                88128021
 00C19C 0000AB14                   15874 AELIOD   DC    A(ELIODO)                                                88134021
 00C1A0 0000ACEC                   15875 AQBUIL   DC    A(QBUILD)                                                88140021
 00C1A4 0000AEAE                   15876 AQVARB   DC    A(QVARBD)                                                88146021
 00C1A8 00000000                   15877 BEGPH2   DC    A(ENTPH2)                                                88152021
 00C1AC 00000000                   15878 LGS      DC    F'0'                                                     88158021
 00C1B0 00000000                   15879 GIG      DC    F'0'                                                     88164021
 00C1B4 0000C314                   15880 APARAM   DC    A(PARAM)                                                 88170021
 00C1B8 0000542C                   15881 ATDDMP   DC    A(TDDMP0)           TABLE DICTIONARY DUMP                88176021
 00C1BC 0000545E                   15882 ANORML   DC    A(BNORML)                                                88182021
 00C1C0 00002A18                   15883 AFSTXT   DC    A(FSTXT)                                                 88188021
 00C1C4 00000880                   15884 AMAIN    DC    A(BEGADC)                                                88194021
 00C1C8 00001DDC                   15885 ASRCHT   DC    A(SRCHTB)                                                88200021
 00C1CC 000018E2                   15886 AGETDP   DC    A(GETDP)                  GET DICT PTR RTN               88206021
 00C1D0 0000C50C                   15887 AIDPRM   DC    A(IDPARM)                                                88212021
 00C1D4 00002192                   15888 ASR200   DC    A(SRH200)                                                88218021
 00C1D8 00001DB0                   15889 ABYPAS   DC    A(BYPAS)                                                 88224021
 00C1DC 000012A2                   15890 ACPYRN   DC    A(COPYRN)                                                88230021
 00C1E0 0000A7D0                   15891 ACHKEY DC    A(KEYCHK)                                                  88236021
 00C1E4 000084D0                   15892 AXREF  DC    A(XREFF)                                                   88242021
 00C1E8 00000124                   15893 ARNTBL   DC    A(RUNTBL)                                                88248021
 00C1EC 000076C6                   15894 APUTOT DC    A(PUTOUT)                                                  88254021
 00C1F0 000076A2                   15895 AVAL30   DC    A(VAL030)                                                88260021
 00C1F4 00007492                   15896 AVALSR   DC    A(VALSER)                                                88266021
 00C1F8 0000209E                   15897 ACHNXT   DC    A(CHKNXT)                                                88272021
 00C1FC 00007514                   15898 AVLT20   DC    A(VALT20)                                                88278021
 00C200 0000C204                   15899 ALTNPRM  DC    A(LTNPRM)           PARAM FOR                            88284021
 00C204 0000BB2C                   15900 LTNPRM   DC    A(CI)                 'LATRNM'                           88290021
 00C208 00001806                   15901 ACONDE   DC    A(BCONDE)                                                88296021
 00C20C 00000880                   15902 ABEGIN   DC    A(BEGADC)                                                88302021
 00C210 000040B6                   15903 APHTRM   DC    A(PHTERM)                                                88308021
                                   15904 * DEL                                                                   88314021
 00C214 00002484                   15905 ARNAMS   DC    A(RENAMS)                                                88320021
 00C218 000041B0                   15906 ABHALT   DC    A(BHALT)                                                 88326021
 00C21C 00001B28                   15907 AREPRTCK DC    A(REPRTCK)     NEW CSECT TO CHECK RPT ITEM LENGTHS FIXAD 88332021
 00C220 00001B6A                   15908 AREPRT2A DC    A(REPRT2A)     ENTRY IN REPRTCK                    FIXAD 88338021
                                   15909 *       TAMER  ROUTINE ADCONS                                           88344021
 00C224 00000000                   15910 BPRIME   DC    A(0)                PRIME     ROUTINE                    88350021
 00C228 00000000                   15911 BINSRT   DC    A(0)                INSERT    ROUTINE                    88356021
 00C22C 00000000                   15912 BSTATC   DC    A(0)                STATIC    ROUTINE                    88362021
 00C230 00000000                   15913 BTABRL   DC    A(0)                TABLE RELEASE                        88368021
 00C234 00000000                   15914 BTAMIN   DC    A(0)                TAMER INITIALIZATION                 88374021
                                   15915 *                                                                       88380021
 00C238 00                         15916 MCODE    DC    X'00'               88 CODE                              88386021
 00C239 00                         15917 FIGCOD   DC    X'00'                       FOR FIGCON                   88392021
 00C23A 00                         15918 NMSIGN   DC    X'00'               SOURCE SIGN OF NUMERIC LITERAL.      88398021
1PH20     IKFCBL20                                                                                              PAGE  359
-  LOC  OBJECT CODE    ADDR1 ADDR2  STMT   SOURCE STATEMENT                                       ASM 0201 11.03 02/14/15
0                                  15919 *                                                                       88404021
                                   15920 *   CIPARM IS THE BEGINNING ADDRESS OF THE PARAMETER LIST FOR           88410021
                                   15921 *    CALLING ACCESS TO ENTER CI IN THE DICTIONARY.   ONLY ATRCNT        88416021
                                   15922 *     AND PNTER CHANGE' WHILE ALL OTHER FIELDS REMAIN CONSTANT.         88422021
 00C23C                            15923          DS    0F                                                       88428021
 00C23C                            15924 CIPARM   DS    0CL12                                                    88434021
 00C23C 10                         15925 CICODE   DC    X'10'               CODE=16 FOR ACCESS TO ENTER CI       88440021
 00C23D 00BB2C                     15926 ADBCD    DC    AL3(CI)                 IN THE DICTIONARY                88446021
 00C240                            15927 ATRCNT   DS    1C                                                       88452021
 00C241 00BB4C                     15928 ADATRB   DC    AL3(ATTRIB)                                              88458021
 00C244                            15929 PNTER    DS    F                                                        88464021
                                   15930 *                                                                       88470021
 00C248 446C                       15931 ERRVCON  DC    X'446C'            VCONDEF AREA                          88476021
 00C24A 3408                       15932          DC    X'3408'            NAME COUNT=8                          88482021
 00C24C C9D3C2D6C5D9D940           15933 ERRNAME  DC    C'ILBOERR '                                              88488021
 00C254 3403                       15934          DC    X'3403'            EXTERNAL NAME                         88494021
 00C256                            15935 ERRTARG  DS    3C                 TARGET ADDRESS                        88500021
 00C25C                            15936 FMCNST   DS    0F                                                       88506021
 00C25C                            15937          DS    C                  CONST DEFINITION CODE, X'28'.         88512021
 00C25D                            15938          DS    3C                                                       88518021
 00C260 00                         15939          DC    X'00'              HEXADECIMAL                           88524021
 00C261 0001                       15940          DC    X'0001'            SIZE = 1 BYTE                         88530021
 00C263                            15941 RECFM    DS    C                  VALUE = MODE,B,S,CC,OVFL,KEYC.        88536021
 00C264                            15942 MACRCN   DS    F                                                        88542021
 00C268 000002                     15943          DC    X'000002'          HEXADECIMAL, 2 BYTES.                 88548021
 00C26B 4141                       15944 MACR     DC    X'4141'            GET/PUT DATA MODE.                    88554021
 00C270                            15945 DCBPRX   DS    0F                                                       88560021
 00C270                            15946          DS    C                  X'28'                                 88566021
 00C271                            15947          DS    3C                 TARGET ADDRESS                        88572021
 00C274 00                         15948          DC    X'00'              HEXADECIMAL                           88578021
 00C275 0028                       15949 DCBPSZ   DC    X'0028'            SIZE=40                               88584021
 00C277                            15950 DCBPLST  DS    4C                 BOV,BOF  X'0..0'                      88590021
 00C27B                            15951          DS    4C                 EOV  X'0...0'                         88596021
 00C27F                            15952          DS    4C                 EOF  X'0...0'                         88602021
 00C283                            15953 DCBPAD1  DS    4C                 TOT AREA X'0...0' X'0A...'            88608021
 00C287                            15954          DS    4C                 DCB EXIT : 0, X'05....0' QISAM        88614021
 00C28B                            15955          DS    4C                 ER-BIT 08/QSAM,BSAM 00/ELSE           88620021
 00C28F 00000001                   15956          DC    X'00000001'        INV-KEY                               88626021
 00C293 00000001                   15957          DC    X'00000001'        USE-ERR      **         **            88632021
 00C297 00000000                   15958          DC    X'00000000'        FEOV OPTION RTN ADDR.                 88638021
 00C29B 80000000                   15959          DC    X'80000000'        EO LIST,OPEN TYPE,NSL MAX SIZE        88644021
                             0C278 15960 EXLADCN  EQU   DCBPLST+1          CODE(2C)+TARGET ADDRESS=1+3           88650021
                             0C27C 15961 EXLADSZ  EQU   EXLADCN+4          SIZE(4)+RELATIVE ADDRESS=1+3          88656021
                             0C278 15962 TTLDC0A  EQU   DCBPLST+1          CODE(28)+TARGET ADDRESS=1+3           88662021
                             0C27D 15963 TTLDCSZ  EQU   TTLDC0A+5          SIZE(1)=2(NOT ON HW BOUNDARY)         88668021
                             0C27F 15964 TTLVALU  EQU   TTLDCSZ+2          VALUE(X'0A')=1                        88674021
                             0C278 15965 TOTLDC   EQU   DCBPLST+1          USED WHEN MOVING DCBADD AND           88680021
                                   15966 *                                 CARD NO. INTO TOTL TBL.               88686021
 00C2A0                            15967          DS    0F                                                       88692021
 00C2A0 00000000                   15968 LNTH01   DC    F'0'                                                     88698021
 00C2A4                            15969 VALSAV   DS    F                                                        88704021
 00C2A8                            15970 VALDSP   DS    H                   SAVE DISPL IN VALTRU TABLE           88710021
 00C2AA                            15971 BANSAV   DS    H                                                        88716021
 00C2AC 00                         15972 VALTSW   DC    X'00'               IF ON VALUE THRU                     88722021
 00C2AD 00                         15973 VALSV1   DC    X'00'               WORK BYTE FOR VALSER                 88728021
1PH20     IKFCBL20                                                                                              PAGE  360
-  LOC  OBJECT CODE    ADDR1 ADDR2  STMT   SOURCE STATEMENT                                       ASM 0201 11.03 02/14/15
000C2AE 00                         15974 ERR88    DC    X'00'               ERROR FOR 88'S                       88734021
                             00008 15975 VALTHR   EQU   X'08'                                                    88740021
 00C2B0                            15976          DS    0F                                                       88746021
 00C2B0                            15977 RNMSV3   DS    9F                                                       88752021
 00C2D4                            15978 RNMSAV   DS    F                   REG SAVE                             88758021
 00C2D8                            15979 RNMSV1   DS    F                   REG SAVE                             88764021
 00C2DC                            15980 RNMSV2   DS    F                                                        88770021
 00C2E0                            15981 RNMPTR   DS    F                                                        88776021
 00C2E4                            15982 VALSV2   DS    F                                                        88782021
 00C2E8                            15983 RNMTMP   DS    F                   WORK WORD                            88788021
 00C2EC 00000000                   15984 END88    DC    F'0'                                                     88794021
 00C2F0                            15985 RNMSVE   DS    F                                                        88800021
 00C2F4 00                         15986 GRP88    DC    X'00'               IF ON 88'S ARE UNDER GROUP           88806021
                             0C2E9 15987 RNMTM1   EQU   RNMTMP+1                                                 88812021
                             0C2EA 15988 RNMTM2   EQU   RNMTM1+1                                                 88818021
                             0C2EB 15989 RNMTM3   EQU   RNMTM2+1                                                 88824021
 00C2F6                            15990 RNMAD2   DS    H                   ADD PARM                             88830021
 00C2F8                            15991 RNMADD   DS    H                   ADD PARM                             88836021
 00C2FA                            15992 RNMGLS   DS    H                                                        88842021
 00C2FC 00000000                   15993 RNMAD1   DC    F'0'                                                     88848021
 00C300 00000000                   15994 RNMDEL   DC    F'0'                DELM PTR FOR RENAMES GROUP           88854021
                             0C301 15995 RNMDL1   EQU   RNMDEL+1                                                 88860021
 00C304 00                         15996 RNMGRP   DC    X'00'               ONE OF OBJECTS IS GROUP              88866021
 00C305 00                         15997 RNAMSW   DC    X'00'               LAST ENTRY WAS RENAMES               88872021
                             0C2FD 15998 RNMADP   EQU   RNMAD1+1                                                 88878021
 00C306 00                         15999 RNTHRU   DC    X'00'               RENAMES THRU                         88884021
 00C307 00                         16000 RNMVAR   DC    X'00'                                                    88890021
                             0C2E0 16001 RNMVLC   EQU   RNMPTR                                                   88896021
 00C308                            16002          DS    0F                                                       88902021
 00C308                            16003 ACTKEY   DS    F                                                        88908021
 00C30C                            16004 DCBSAV   DS    F                                                        88914021
 00C310                            16005 SEGSAV   DS    H                                                        88920021
 00C312 00                         16006 ITMCL3   DC    X'00'               FLAG BYTE                            88926021
                             00001 16007 KEYFLG   EQU   X'01'                                                    88932021
                             00040 16008 SBDAM    EQU   X'40'                                                    88938021
                             00020 16009 BSAMS    EQU   X'20'                                                    88944021
                             00011 16010 X17      EQU   17                                                       88950021
                             0000D 16011 X13      EQU   13                                                       88956021
                             0000F 16012 X15      EQU   15                                                       88962021
                             00004 16013 BSAM     EQU   X'04'                                                    88968021
                             000C0 16014 BSAMBDAM  EQU   X'C0'                                                   88974021
                             00080 16015 QSMODE   EQU   X'80'                                                    88980021
                             00001 16016 SMODE    EQU   X'01'                                                    88986021
                             00008 16017 QSAMSA   EQU   X'08'                                                    88992021
 00C313 00                         16018 GRPVAL   DC    X'00'                                                    88998021
 00C314 00000000                   16019 PARAM    DC    F'0'                ACCESS PARAMETER                     89004021
 00C318 00000000                   16020 PARAM1   DC    F'0'                                                     89010021
 00C31C 00000000                   16021 LREDEF   DC    F'0'                                                     89016021
 00C320                            16022 WS       DS    2F                  WSADEF WORK AREA                     89022021
                             00000 16023 DSPKEY   EQU   0    2C                                                  89028021
                             00002 16024 VCOUNT   EQU   2   1C                                                   89034021
                             00004 16025 DCBLGN   EQU   4     H                                                  89040021
                             00006 16026 DECBLGN  EQU   6                                                        89046021
                             00007 16027 DECBTYP  EQU   7   *                                                    89052021
                             00008 16028 AMCODE   EQU   8     C                                                  89058021
1PH20     IKFCBL20                                                                                              PAGE  361
-  LOC  OBJECT CODE    ADDR1 ADDR2  STMT   SOURCE STATEMENT                                       ASM 0201 11.03 02/14/15
0                            00009 16029 DCBOTK   EQU   9   10C                                                  89064021
                                   16030 *                  * C                                                  89070021
                             00014 16031 DISPOPN  EQU   20    C                                                  89076021
                             00015 16032 DISPRM   EQU   21    C                                                  89082021
                                   16033 *                  *3C                                                  89088021
                             00019 16034 OPTCODE  EQU   25    C                                                  89094021
                             0001A 16035 CLSMSK   EQU   26   2C                                                  89100021
                             0001C 16036 DISPKY   EQU   28    F                                                  89106021
 00C328 00000079                   16037 CON121   DC    F'121'                                              6998 89112021
 00C32C                            16038 LITBUF   DS    0F                  SET UP AREA                 FOR      89118021
 00C32C                            16039        DS    38F                   DATA-A TEXT                          89124021
 00C3C4 00000000                   16040 NMPUT    DC    F'0'                OUTPUT BYTE COUNT IS KEPT HERE.      89130021
 00C3C8                            16041 TOTLGN   DS    F                                                        89136021
 00C3CC 00000000                   16042 XTRA     DC    F'0'                     SAVE XTRA BYTES TO BE     42660 89142021
                                   16043 *  SUBTRACTED FROM LOCCTR  IN RPT SECT OR AT PH20 TERMINATION     42660 89148021
 00C3D0 00000000                   16044 DS       DC    F'0'                                                     89154021
 00C3D4                            16045 LID      DS    6F                  LAST ITEM DELETED FROM GLS           89160021
 00C3EC 00000000                   16046 LBLMAX   DC    F'0'                                                     89166021
 00C3F0 00000000                   16047 MAXIM    DC    F'0'                MAXIMUM RECORD.                      89172021
 00C3F4 FFFFFFFF                   16048 MINIM    DC    X'FFFFFFFF'         MINIMUM RECORD LENGTH                89178021
 00C3F8 00                         16049          DC    X'00'                                                    89184021
 00C3F9 000000                     16050 APAF     DC    X'000000'           ADD PARM                             89190021
 00C3FC 00000000                   16051 DISP     DC    F'0'                DISPL FROM BEGINNING                 89196021
 00C400 00                         16052          DC    X'00'                                                    89202021
 00C401                            16053 RPTRDF   DS    3C                  REPORT DIFFERENCE                    89208021
 00C404 00                         16054          DC    X'00'                                                    89214021
 00C405                            16055 FAPAF    DS    7C                  ADD PARM                             89220021
 00C40C                            16056 SDAPAF   DS    7C                                                       89226021
 00C413                            16057 RAPAF    DS    7C                                                       89232021
 00C41A                            16058 SDBLL    DS    C                                                        89238021
 00C41B                            16059 FDBLN    DS    C                       LOCATOR                          89244021
 00C41C                            16060 SDBLN    DS    C                           NUMBERS                      89250021
 00C41D 00                         16061 MSW      DC    X'00'               SWITCH FOR DICTBD USES.              89256021
 00C41E 00                         16062 COD01  DC    X'00'                      01 IN FD SW                     89262021
 00C41F                            16063 APAFSV   DS    7C                           SAVE APAF             42027 89268021
 00C426 00                         16064 FL4SAVE  DC    X'00'              SAVE ICTFL4 FOR                 59737 89274021
                                   16065 *    RECORD KEY INFORMATION IN LATER ROUTINE                      59737 89280021
 00C427 00
 00C428 00000000                   16066 ALIGN    DC    F'0'                PUT ON WORD BOUNDARY                 89286021
 00C42C                            16067 ADDRES   DS    F                   ADD TO GEN                           89292021
 00C430 00000000                   16068 INPUT    DC    F'0'                WORK AREAS                     F     89298021
 00C434 00000000                   16069 OUTPUT   DC    F'0'                OR VALUE ROUTINES                    89304021
 00C438                            16070 SAMLGN   DS    F                   SAME LENGTH                          89310021
 00C43C                            16071 SMKYLGN  DS    F                                                        89316021
 00C440                            16072 WKAR     DS    2F                                                       89322021
 00C448                            16073        DS    0F                                                         89328021
 00C448                            16074 XREFSV DS    F                                                          89334021
                             00048 16075 XRFHDR EQU   X'48'                                                      89340021
 00C450                            16076          DS    0D                                                       89346021
 00C450                            16077 WKAREA   DS    10F                 TEMPORARY                            89352021
 00C478                            16078 MTEMP    DS    F                         WORK                           89358021
 00C47C                            16079 MTEMP1   DS    F                             AREAS                      89364021
 00C480 00                         16080 NUMSAV   DC    X'00'               80=MUST DROP LEADING ZEROES          89370021
 00C481 00                         16081          DC    X'00'               NUMBER OF BYTES CHECKED              89376021
 00C482 0000
1PH20     IKFCBL20                                                                                              PAGE  362
-  LOC  OBJECT CODE    ADDR1 ADDR2  STMT   SOURCE STATEMENT                                       ASM 0201 11.03 02/14/15
000C484 00000000                   16082 REALPTR  DC    F'0'                                                     89382021
 00C488 0000000000000000           16083 FD       DC    2F'0'               FD ATTRIBUTES SAVED HERE             89388021
 00C490                            16084 FDPT     DS    F                   FD CURRENT PTR SAVED HERE.           89394021
 00C494 00000000                   16085 FDDICT   DC    F'0'                FD DICTIONARY PTR SAVED HERE.        89400021
 00C498 0000                       16086 FDBL     DC    H'0'                NO. OF 1ST BL IN FILE SECTION.       89406021
 00C49C                            16087          DS    0F                                                       89412021
 00C49C                            16088 REDDIF   DS    H                   SHOULD BE ZERO                       89418021
 00C49E                            16089 REDPLS   DS    H                    WORK AREA FOR REDEFINES +           89424021
 00C4A0 00000000                   16090 RPTLOC   DC    F'0'                                                     89430021
 00C4A4                            16091 LGSSAV   DS    F                   SAVE LAST ITEM DELETED               89436021
 00C4A8                            16092 LASTDP   DS    F                   LAST FD SD SA RD DICT. PTR.          89442021
                                   16093 *                                                                       89448021
 00C4B0                            16094          DS    0D                                                       89454021
 00C4B0                            16095 MAXNUM   DS    D                   MAX NUM OF OCCURENCES FOR INDKEY     89460021
 00C4B8                            16096 IDSAV    DS    F                                                        89466021
 00C4BC                            16097 SRCHSV   DS    F                                                        89472021
 00C4C0                            16098 BCTSAV   DS    F                   SAVE R14                             89478021
 00C4C4                            16099 SRHSAV   DS    6F                                                       89484021
 00C4DC                            16100 SRHSVD   DS    F                                                        89490021
 00C4E0                            16101 IDDISP   DS    H                   SAVE DISPL IN INDKEY                 89496021
 00C4E2                            16102 KEYDSP   DS    H                   SAVE DISPL IN SRCHKY                 89502021
 00C4E4 0002                       16103 BLLSAVE  DC    H'2'                                                     89508021
 00C4E6 0004                       16104 WSREC    DC    H'4'          CODE FOR KEY IN WORKING-STORAGE      51873 89514021
 00C4E8 206C                       16105 MSG108   DC    X'206C'                                                  89520021
 00C4EA 208A                       16106 MSG138   DC    X'208A'                                             2998 89526021
 00C4EC 2011                       16107 MSG17    DC    X'2011'                                                  89532021
 00C4EE 2091                       16108 MSG145   DC    X'2091'                                                  89538021
 00C4F0 2032                       16109 MSG50    DC    X'2032'                                                  89544021
 00C4F2 20C3                       16110 MSG195   DC    X'20C3'                  UNIT RECORD FOR S-MODE          89550021
 00C4F4 200C                       16111 MSG12    DC    X'200C'                                                  89556021
 00C4F6 002C                       16112 MSG44    DC    X'002C'             DUPLICATE SD ERRMSG                  89562021
 00C4F8 00                         16113 TBLSW    DC    X'00'               TABLE HANDLING                       89568021
 00C4F9 00                         16114 ODOCT    DC    X'00'               NUMB OF ODO'S FOR TABLE HANDLING     89574021
 00C4FA 00                         16115 SAMESW   DC    X'00'                                                    89580021
                             00020 16116 SUBSW    EQU   X'20'                                                    89586021
                             00020 16117 OLIDNM   EQU   X'20'                                                    89592021
                             00010 16118 SAIDNM   EQU   X'10'                                                    89598021
                             00040 16119 ILIDNM   EQU   X'40'                                                    89604021
                             00040 16120 BASICS   EQU   X'40'                                                    89610021
                             00011 16121 SWONN    EQU   X'11'                                                    89616021
                             00031 16122 SWON     EQU   X'31'                                                    89622021
                             00001 16123 SWONE    EQU   X'01'                                                    89628021
                             000F0 16124 SWOFF    EQU   X'F0'                                                    89634021
                             00010 16125 IDNMOL   EQU   X'10'                                                    89640021
                             00020 16126 IDNMSA   EQU   X'20'                                                    89646021
                             00040 16127 BUFUR   EQU    X'40'               UNIT RECORD IN BUFCAL                89652021
                             0000F 16128 ACCMON   EQU   X'0F'                                                    89658021
                             00060 16129 DICTS    EQU   X'60'                                                    89664021
                             00001 16130 ONEE     EQU   1                                                        89670021
                             0BE00 16131 BUFC24   EQU   BUFCAL+24                                                89676021
                             00004 16132 VMODE    EQU   4                                                        89682021
                             00020 16133 ICLKEY   EQU   X'20'                                                    89688021
                             00032 16134 LEV77    EQU   X'32'                                                    89694021
                             00001 16135 ASCKEY   EQU   X'01'                                                    89700021
                             00010 16136 ICLASC   EQU   X'10'                                                    89706021
1PH20     IKFCBL20                                                                                              PAGE  363
-  LOC  OBJECT CODE    ADDR1 ADDR2  STMT   SOURCE STATEMENT                                       ASM 0201 11.03 02/14/15
0                            00001 16137 KEYERR   EQU   X'01'                                                    89712021
                             00010 16138 ODOPTR   EQU   X'10'                                                    89718021
 00C4FB 00                         16139 RDFSW    DC    X'00'                                                    89724021
 00C4FC 00                         16140 RDFERR   DC    X'00'                                                    89730021
 00C4FD                            16141 CONDLN   DS    C                                                        89736021
 00C4FE                            16142 CONDLT   DS    C                                                        89742021
 00C4FF                            16143 CONDL1   DS    C                                                        89748021
 00C500 00                         16144 CHKLTH   DC    X'00'                                                    89754021
 00C504                            16145          DS    0F                                                       89760021
                                   16146 * ATTRIBUTES FOR ID NAME                                                89766021
 00C504                            16147 IDATT    DS    0CL6                                                     89772021
 00C504 6F                         16148          DC    X'6F'               COUNT AND MAJOR CODE                 89778021
 00C505                            16149 IDFLAG   DS    C                                                        89784021
 00C506                            16150 IDNUM    DS    2C                                                       89790021
 00C508                            16151 IDLNTH   DS    2C                                                       89796021
                                   16152 *                                                                       89802021
 00C50C                            16153          DS    0F                                                       89808021
 00C50C                            16154 IDPARM   DS    0CL5                 PARAMETER FOR ID NAMES              89814021
 00C50C 00                         16155 IDCODE   DC    X'00'                                                    89820021
 00C50D 00BDA8                     16156          DC    AL3(OVERFL)                                              89826021
 00C510 06                         16157 ATTCNT   DC    X'06'                                                    89832021
 00C511 00C504                     16158 AIDATT   DC    AL3(IDATT)                                               89838021
 00C514                            16159 NOIDNM   DS    C                                                        89844021
 00C515                            16160 NOKEYS   DS    C                                                        89850021
 00C516                            16161 NUMIDS   DS    C                   SAVE NUM OF IDS                      89856021
 00C517                            16162 NUMKEY   DS    C                   SAVE NUM OF KEYS                     89862021
 00C518 0AE2F9F9F9F9               16163 USGIND   DC    X'0AE2F9F9F9F9'     USAGE IS INDEX                       89868021
 00C51E F9F9F9F9F9                 16164          DC    X'F9F9F9F9F9'         DUMMY PICTURE                      89874021
 00C523                            16165 HIQUAL   DS    3C                                                       89880021
 00C526                            16166 LSTQUL DS    3C                                                         89886021
 00C529 00                         16167 GNSW     DC    X'00'               GN= SWITCH                           89892021
 00C52C                            16168 GNAREA   DS    0F                                                       89898021
 00C52C 00000000                   16169 GNNUMB   DC    F'0'                                                     89904021
 00C530 0000                       16170 GNDISP   DC    H'0'                CURRENT DISP OF N IN QRTN            89910021
 00C532 0000                       16171 GNDCB    DC    H'0'                CURRENT DCB= IN QFILE                89916021
 00C534 0000                       16172 GNGN     DC    H'0'                GN= ASSOC. WITH DCB=                 89922021
 00C536 34                         16173 QDEFTX   DC    X'34'                                                    89928021
 00C537 0000                       16174 INITGN   DC    X'0000'             QINIT GN=                            89934021
 00C53A                            16175          DS    0H                                                       89940021
 00C53A 9000                       16176 CON9000  DC    X'9000'                                                  89946021
 000000                            16177 STERAT   DSECT                                                          89952021
                                   16178 *  STERLING REPORT ATTRIBUTE NAME DEFINITIONS.USED WITH R1 AS BASE      89958021
 000000                            16179 STATWK   DS    0CL70     STERLING REPORT WORK AREA  GENERAL             89964021
 000000                            16180 STWCDE   DS    C         CODE BYTE                                      89970021
 000001                            16181 STWFLT   DS    C         FLOAT CHARACTER                                89976021
 000002                            16182 STWTOL   DS    C         TOTAL LENGTH OF REPORT ITEM                    89982021
 000003                            16183 STWNOL   DS    C         NO .OF POUNDS DIGITS                           89988021
 000004                            16184 STWNOD   DS    C         NO.OF DECIMAL PENCE                            89994021
 000005                            16185 STWVAR   DS    60C       VARIABLE PORTION FOR CHARACTER/LENGTH STRI     90000021
 000041                            16186 STPOUP   DS    C         DELIMITOR POSITION POUNDS                      90006021
 000042                            16187 STSHIP   DS    C         DEIIMITOR POSITION SHILLINGS                   90012021
 000043                            16188 STDICT   DS    3C        SPACE FOR DICTIONARY POINTER                   90018021
                             0BAF0 16189 XLSTSW   EQU   BYTESW                                                   90024021
                             0BAF0 16190 KEYEND   EQU   BYTESW                                                   90030021
                             0BBC4 16191 DICPNT   EQU   DICTPT                                                   90036021
1PH20     IKFCBL20                                                                                              PAGE  364
-  LOC  OBJECT CODE    ADDR1 ADDR2  STMT   SOURCE STATEMENT                                       ASM 0201 11.03 02/14/15
0000000                            16192 ICDATT   DSECT                                                          90042021
 000000                            16193 ICDCOD   DS    1X                  MAJ CODE                             90048021
 000001                            16194 IDCINF   DS    5X                                                       90054021
 000006                            16195 ICDNLS   DS    1X                  N.L AND SCALE                        90060021
 000007                            16196 ICDPEN   DS    1X                  DEC. PENCE, SCALE                    90066021
 000008                            16197 ICDNL    DS    1X                  N.L.                                 90072021
 000009                            16198 ICDNLN   DS    1X                  NUM. LGN.                            90078021
 00000A                            16199 ICDSCL   DS    1X                  SCALE                                90084021
 00000B                            16200 ICDLGN   DS    1X                                                       90090021
 00000C                            16201 ICDNPD   DS    1X                  NUM. PNDS                            90096021
 00000D                            16202 ICDNDC   DS    1X                  NUM. DEC                             90102021
 000000                            16203 ICLDST DSECT                                                            90108021
 000000                            16204 ICLCOD DS    1X                    03 CODE                              90114021
 000001                            16205 ICLCNT DS    1X                    TOTAL COUNT                          90120021
 000002                            16206 ICLLEV DS    1X                    LEVEL INDICATION                     90126021
 000003                            16207 ICLCDN DS    2X                    CARD NUMBER                          90132021
 000005                            16208 ICLFL1 DS    1X                    FLAG 1                               90138021
                             00080 16209 ICLBWZ EQU   X'80'                 BLANK WHEN ZERO                      90144021
                             00040 16210 ICLJST EQU   X'40'                 JUSTIFIED                            90150021
                             00038 16211 ICLVLU EQU   X'38'                 VALUE BITS                           90156021
                             00007 16212 ICLUSG EQU   X'07'                 USAGE BITS                           90162021
 000006                            16213 ICLFL2 DS    1X                    FLAG 2                               90168021
                             00080 16214 ICLODO EQU   X'80'                 OCCURS DEPENDING ON                  90174021
                             00040 16215 ICLRDF EQU   X'40'                 REDEFINES                            90180021
                             00020 16216 ICLPIC EQU   X'20'                 PICTURE                              90186021
                             00010 16217 ICLCOP EQU   X'10'                 COPY                                 90192021
                             00008 16218 ICLIRD EQU   X'08'                 INTERNAL REDEFINES                   90198021
                             00004 16219 ICLRD  EQU   X'04'                 RD                                   90204021
                             00002 16220 ICLRNM EQU   X'02'                 RENAMES                              90210021
                             00001 16221 ICLSYN EQU   X'01'                 SYNCHRONIZED                         90216021
 000007                            16222 ICLNOC DS    2X                    MAX NUMBER OF OCCURRENCES            90222021
 000009                            16223 ICLFL3 DS    1X                    FLAG 3                               90228021
                             00080 16224 ICLLOR EQU   X'80'                 LEFT OR RIGHT                        90234021
                             00040 16225 ICLRNT   EQU   X'40'               RENAMES THRU                         90240021
 00000A                            16226 ICLNOI DS    1X                    NUMB OF INDEXES                      90246021
 00000B                            16227 ICLNOK DS    1X                    NUMB OF KEYS                         90252021
 00000C                            16228 ICLDCT DS    1X                    DATANAME COUNT                       90258021
 000000                            16229 ISDTXT   DSECT                                                          90264021
 000000                            16230 ISDCOD   DS    1X                  03 CODE                              90270021
 000001                            16231 ISDCNT   DS    1X                  TOTAL COUNT                          90276021
 000002                            16232 ISDLVL   DS    1X                  LEVEL INDICATION                     90282021
 000003                            16233 ISDFL1   DS    1X                  FLAG1                                90288021
                             000F0 16234 ISDNWU   EQU   X'F0'               NO. SORT WORK UNITS                  90294021
                             0000C 16235 ISDLBR   EQU   X'0C'               LABEL REC'DS STAND. OR OMITTED       90300021
                             00003 16236 ISDSMSW  EQU   X'03'              SAME (RECORD) SW                      90306021
 000004                            16237 ISDCDN   DS    2X                  CARD NO.                             90312021
 000006                            16238 ISDRC1   DS    2X                  RECORD CONTAINS INTEGER 1            90318021
 000008                            16239 ISDRC2   DS    2X                  RECORD CONTAINS INTEGER 2            90324021
 00000A                            16240 ISDFL2   DS    1X                  FLAG2                                90330021
                             000E0 16241 ISDDEV   EQU   X'E0'               DEVICE CLASS                         90336021
                             0001E 16242 ISDRDM   EQU   X'1E'              MODE                                  90342021
                             00001 16243 ISDUN1   EQU   X'01'              UNUSED                                90348021
 00000B                            16244 ISDSMNO  DS    1X                 SAME RECORD NO.                       90354021
 00000C                            16245 ISDEXN   DS    8X                  EXTERNAL NAME                        90360021
 000014                            16246 ISDNCT   DS    1X                  NAME CT                              90366021
1PH20     IKFCBL20                                                                                              PAGE  365
-  LOC  OBJECT CODE    ADDR1 ADDR2  STMT   SOURCE STATEMENT                                       ASM 0201 11.03 02/14/15
0000015                            16247 ISDSDN   DS    30X                 SD NAME                              90372021
 000033                            16248 ISDEND   DS    1X                                                       90378021
 000000                            16249 PIBDST DSECT                                                            90384021
 000000                            16250 PIBFL1 DS    1X                         FLAG 1                          90390021
                             00080 16251 PIBOIN EQU   X'80'                      OPEN INPUT                      90396021
                             00040 16252 PIBOOT EQU   X'40'                      OPEN OUTPUT                     90402021
                             00020 16253 PIBOIO EQU   X'20'                      OPEN I/O                        90408021
                             00010 16254 PIBCNR EQU   X'10'                      CLOSE UNIT NO REWIND            90414021
                             00008 16255 PIBWAA EQU   X'08'                      WRITE AFTER ADVANCING           90420021
                             00004 16256 PIBCWL EQU   X'04'                      CLOSE WITH LOCK                 90426021
                             00002 16257 PIBCLO EQU   X'02'                 CLOSE ONLY                           90432021
                             00001 16258 PIBREW EQU   X'01'                      REWRITE                         90438021
 000001                            16259 PIBFL2 DS    1X                         FLAG 2                          90444021
                             00080 16260 PIBRER EQU   X'80'                      RERUN                           90450021
                             00040 16261 PIBOIR EQU   X'40'                OPEN INPUT REVERSED                   90456021
                             00020 16262 PIBFRE   EQU   X'20'              FREE                                  90462021
                             00010 16263 PIBWBA EQU   X'10'                WRITE BEFORE ADVANCING                90468021
                             00008 16264 PIBUSI EQU   X'08'                USING                                 90474021
                             00004 16265 PIBGIV EQU   X'04'                GIVING                                90480021
                             00002 16266 PIBUSE   EQU   X'02'              USE                                   90486021
                             00001 16267 PIBPOS   EQU   X'01'              POSITIONING                           90492021
 000002                            16268 PIBFL3 DS    1X                   UNUSED                                90498021
                             00080 16269 PIBNSL   EQU   X'80'              NSL                                   90504021
                             00020 16270 PIBWRT   EQU   X'20'              WRITE                                 90510021
                             00008 16271 PIBSRT   EQU   X'08'              START                                 90516021
                             00004 16272 PIBINV   EQU   X'04'              INV-KEY                               90522021
 000000                            16273 ICTDST DSECT                                                            90528021
 000000                            16274 ICTCOD DS    1X                         03 CODE                         90534021
 000001                            16275 ICTCNT DS    1X                         TOTAL CT= FIXED + FN            90540021
 000002                            16276 ICTLVL DS    1X                         LEVEL INDICATION                90546021
 000003                            16277 ICTCDN DS    2X                         CARD NO                         90552021
 000005                            16278 ICTEXF DS    7X                         EXT FILE NAME                   90558021
 00000C                            16279 ICTSYS DS    1X                         SYS NO                          90564021
 00000D                            16280 ICTFL1 DS    1X                         FLAG 1                          90570021
                             00080 16281 ICTRDA EQU   X'80'                      RANDOM ACCESS SW                90576021
                             00070 16282 ICTORG EQU   X'70'                      ORGANIZATION                    90582021
                             00002 16283 ICTDA    EQU   X'02'                                                    90588021
                             00004 16284 ICTUR    EQU   X'04'                                                    90594021
                             00008 16285 ICTUT    EQU   X'08'                                                    90600021
                             00001 16286 ICTALA EQU   X'01'                      RESERVE ALT AREA                90606021
 00000E                            16287 ICTFL2 DS    1X                         FLAG 2                          90612021
                             00080 16288 ICTSOP EQU   X'80'                      SELECT OPTIONAL SW              90618021
                             00040 16289 ICTSMA EQU   X'40'                      SAME AREA SW                    90624021
                             00020 16290 ICTEXS EQU   X'20'                      EXTENDED SEARCH SW              90630021
                             00010 16291 ICTSRS   EQU   X'10'                                                    90636021
                             00008 16292 ICTSSS   EQU   X'08'                                                    90642021
                             00004 16293 ICTCKP EQU   X'04'                      PTR TO CKPTBL SW                90648021
                             00002 16294 ICTPIO EQU   X'02'                      PTR TO PIOTBL SW                90654021
                             00001 16295 ICTRPD EQU   X'01'                      RANDOM PROCESSING SW            90660021
 00000F                            16296 ICTTRK   DS    1X                  TRACK CAPACITY                       90666021
 000010                            16297 ICTXXX   DS    1X                                                       90672021
 000011                            16298 ICTPIR DS    2X                         PIOTBL PTR                      90678021
 000013                            16299 ICTRAR DS    1X                         RESERVE AREA                    90684021
 000014                            16300 ICTFL3 DS    1X                         FLAG 3                          90690021
                             00080 16301 ICTCPY EQU   X'80'                      COPY SW                         90696021
1PH20     IKFCBL20                                                                                              PAGE  366
-  LOC  OBJECT CODE    ADDR1 ADDR2  STMT   SOURCE STATEMENT                                       ASM 0201 11.03 02/14/15
0                            00060 16302 ICTRCM EQU   X'60'                      RECORDING MODE                  90702021
                             00018 16303 ICTBLO EQU   X'18'                      BLOCK CONTAINS OPTION           90708021
                             00006 16304 ICTLRD EQU   X'06'                      LABEL RECORDS                   90714021
                             00001 16305 ICTRPT EQU   X'01'                      REPORTS                         90720021
 000015                            16306 ICTBMN   DS    2X                BLOCK CONTAINS 1ST COUNT               90726021
 000017                            16307 ICTRMN DS    2X                         RECORD CONTAINS MIN CT          90732021
 000019                            16308 ICTRMX DS    2X                         RECORD CONTAINS MAX CT          90738021
 00001B                            16309 ICTTLM DS    2X                         TRACK LIMIT NUM                 90744021
 00001D                            16310 ICTESH DS    2X                         EXTENDED SEARCH NO              90750021
 00001F                            16311 ICTCPT DS    2X                         CKPTBL PTR                      90756021
 000021                            16312 ICTSAM DS    1X                         SAME NO                         90762021
 000022                            16313 ICTFL4 DS    1X                         FLAG 4                          90768021
                             000C0 16314 ICTTKA EQU   X'C0'                 TRACK AREA SW                        90774021
                             00020 16315 ICTOVF EQU   X'20'                      OVERFLOW SW                     90780021
                             00010 16316 ICTNOM EQU   X'10'                      NOMKEY SW                       90786021
                             00008 16317 ICTACT EQU   X'08'                      ACTKEY SW                       90792021
                             00004 16318 ICTREC EQU   X'04'                      RECKEY SW                       90798021
                             00002 16319 ICTWRT EQU   X'02'                      WRITE ONLY SW                   90804021
                             00001 16320 ICTRCP EQU   X'01'                      RECORD PROTECT SW               90810021
 000023                            16321 ICTFL5 DS    1X                         FLAG 5                          90816021
                             00080 16322 ICTWRV EQU   X'80'                      WRITE VERIFY SW                 90822021
                             00040 16323 ICTCOS EQU   X'40'                      CYL OVERFLOW SW                 90828021
                             00008 16324 ICTMFT EQU   X'08'                      MULTIPLE FILE TAPE SW           90834021
                             00004 16325 ICTMSI EQU   X'04'                      MASTER INDEX SW                 90840021
                             00002 16326 ICTICI EQU   X'02'                      INCORE CYL INDEX SW             90846021
                             00001 16327 ICTROS EQU   X'01'                      RECORD OVERFLOW SW              90852021
 000024                            16328 ICTUN1 DS    1X                         UNUSED                          90858021
 000025                            16329 ICTSRA DS    1X                         SAME RECORD AREA NO             90864021
 000026                            16330 ICTPIN DS    1X                         POSITION INTEGER                90870021
 000027                            16331 ICTCOT DS    1X                         CYL OVERFLOW TRACKS NO          90876021
 000028                            16332 ICTDTC DS    1X                         DEVICE TYPE CODE                90882021
 000029                            16333 ICTDHI DS    1X                         DEVICE OF HIGHEST INDEX         90888021
 00002A                            16334 ICTUN2 DS    1X                         UNUSED                          90894021
 00002B                            16335 ICTBMX   DS    2X                 BLOCK CONTAINS 2ND COUNT              90900021
 00002D                            16336 ICTFL6   DS    1X                                                       90906021
 00002E                            16337 ICTEND DS    1X                                                         90912021
                             00000 16338 DX0      EQU   0                                                        90918021
                             00000 16339 LX0      EQU   0                                                        90924021
                             00001 16340 DX1      EQU   1                                                        90930021
                             00001 16341 NX1      EQU   1                                                        90936021
                             00001 16342 LX1      EQU   1                                                        90942021
                             00002 16343 DX2      EQU   2                                                        90948021
                             00002 16344 NX2      EQU   2                                                        90954021
                             00002 16345 LX2      EQU   2                                                        90960021
                             00003 16346 DX3      EQU   3                                                        90966021
                             00003 16347 NX3      EQU   3                                                        90972021
                             00004 16348 DX4      EQU   4                                                        90978021
                             00004 16349 NX4      EQU   4                                                        90984021
                             00005 16350 DX5      EQU   5                                                        90990021
                             00005 16351 NX5      EQU   5                                                        90996021
                             00005 16352 LX5      EQU   5                                                        91002021
                             00006 16353 DX6      EQU   6                                                        91008021
                             00006 16354 NX6      EQU   6                                                        91014021
                             00007 16355 DX7      EQU   7                                                        91020021
                             00007 16356 NX7      EQU   7                                                        91026021
1PH20     IKFCBL20                                                                                              PAGE  367
-  LOC  OBJECT CODE    ADDR1 ADDR2  STMT   SOURCE STATEMENT                                       ASM 0201 11.03 02/14/15
0                            00008 16357 DX8      EQU   8                                                        91032021
                             00008 16358 NX8      EQU   8                                                        91038021
                             00008 16359 LX8      EQU   8                                                        91044021
                             00009 16360 DX9      EQU   9                                                        91050021
                             00009 16361 NX9      EQU   9                                                        91056021
                             0000A 16362 DX10     EQU   10                                                       91062021
                             0000A 16363 NX10     EQU   10                                                       91068021
                             0000B 16364 DX11     EQU   11                                                       91074021
                             0000B 16365 NX11     EQU   11                                                       91080021
                             0000C 16366 DX12     EQU   12                                                       91086021
                             0000C 16367 NX12     EQU   12                                                       91092021
                             0000D 16368 DX13     EQU   13                                                       91098021
                             0000D 16369 NX13     EQU   13                                                       91104021
                             0000E 16370 DX14     EQU   14                                                       91110021
                             0000E 16371 NX14     EQU   14                                                       91116021
                             0000F 16372 DX15     EQU   15                                                       91122021
                             0000F 16373 NX15     EQU   15                                                       91128021
                             0000F 16374 LX15     EQU   15                                                       91134021
                             00010 16375 DX16     EQU   16                                                       91140021
                             00010 16376 NX16     EQU   16                                                       91146021
                             00010 16377 LX16     EQU   16                                                       91152021
                             00011 16378 DX17     EQU   17                                                       91158021
                             00011 16379 NX17     EQU   17                                                       91164021
                             00012 16380 DX18     EQU   18                                                       91170021
                             00013 16381 DX19     EQU   19                                                       91176021
                             00014 16382 DX20     EQU   20                                                       91182021
                             00014 16383 NX20     EQU   20                                                       91188021
                             00015 16384 DX21     EQU   21                                                       91194021
                             00015 16385 NX21     EQU   21                                                       91200021
                             00016 16386 DX22     EQU   22                                                       91206021
                             00017 16387 DX23     EQU   23                                                       91212021
                             00017 16388 NX23     EQU   23                                                       91218021
                             00018 16389 DX24     EQU   24                                                       91224021
                             00018 16390 NX24     EQU   24                                                       91230021
                             00019 16391 DX25     EQU   25                                                       91236021
                             00019 16392 NX25     EQU   25                                                       91242021
                             0001A 16393 DX26     EQU   26                                                       91248021
                             0001A 16394 NX26     EQU   26                                                       91254021
                             0001B 16395 DX27     EQU   27                                                       91260021
                             0001C 16396 DX28     EQU   28                                                       91266021
                             0001C 16397 NX28     EQU   28                                                       91272021
                             0001E 16398 DX30     EQU   30                                                       91278021
                             00020 16399 DX32     EQU   32                                                       91284021
                             00020 16400 NX32     EQU   32                                                       91290021
                             00021 16401 NX33     EQU   33                                                       91296021
                             00022 16402 DX34     EQU   34                                                       91302021
                             00022 16403 NX34     EQU   34                                                       91308021
                             00023 16404 DX35     EQU   35                                                       91314021
                             00023 16405 NX35     EQU   35                                                       91320021
                             00024 16406 DX36     EQU   36                                                       91326021
                             00024 16407 NX36     EQU   36                                                       91332021
                             00025 16408 DX37     EQU   37                                                       91338021
                             00025 16409 NX37     EQU   37                                                       91344021
                             00027 16410 NX39     EQU   39                                                       91350021
                             00028 16411 NX40     EQU   40                                                       91356021
1PH20     IKFCBL20                                                                                              PAGE  368
-  LOC  OBJECT CODE    ADDR1 ADDR2  STMT   SOURCE STATEMENT                                       ASM 0201 11.03 02/14/15
0                            00029 16412 DX41     EQU   41                                                       91362021
                             0002C 16413 DX44     EQU   44                                                       91368021
                             0002F 16414 DX47     EQU   47                                                       91374021
                             00030 16415 DX48     EQU   48                                                       91380021
                             00030 16416 NX48     EQU   48                                                       91386021
                             00032 16417 DX50     EQU   50                                                       91392021
                             00033 16418 DX51     EQU   51                                                       91398021
                             00034 16419 NX52     EQU   52                                                       91404021
                             00035 16420 NX53     EQU   53                                                       91410021
                             00038 16421 DX56     EQU   56                                                       91416021
                             00038 16422 NX56     EQU   56                                                       91422021
                             0003A 16423 NX58     EQU   58                                                       91428021
                             0003B 16424 NX59     EQU   59                                                       91434021
                             0003C 16425 NX60     EQU   60                                                       91440021
                             0003D 16426 DX61     EQU   61                                                       91446021
                             0003E 16427 DX62     EQU   62                                                       91452021
                             00040 16428 DX64     EQU   64                                                       91458021
                             00043 16429 NX67     EQU   67                                                       91464021
                             00046 16430 NX70     EQU   70                                                       91470021
                             0004B 16431 NX75     EQU   75                                                       91476021
                             0004C 16432 DX76     EQU   76                                                       91482021
                             0004F 16433 NX79     EQU   79                                                       91488021
                             00050 16434 DX80     EQU   80                                                       91494021
                             00052 16435 DX82     EQU   82                                                       91500021
                             00053 16436 DX83     EQU   83                                                       91506021
                             00054 16437 DX84     EQU   84                                                       91512021
                             00058 16438 DX88     EQU   88                                                       91518021
                             0005B 16439 NX91     EQU   91                                                       91524021
                             0005C 16440 DX92     EQU   92                                                       91530021
                             0005F 16441 DX95     EQU   95                                                       91536021
                             00062 16442 NX98     EQU   98                                                       91542021
                             00064 16443 DX100    EQU   100                                                      91548021
                             00064 16444 NX100    EQU   100                                                      91554021
                             00068 16445 DX104    EQU   104                                                      91560021
                             0006B 16446 DX107    EQU   107                                                      91566021
                             0006B 16447 NX107    EQU   107                                                      91572021
                             0006C 16448 DX108    EQU   108                                                      91578021
                             0006C 16449 NX108    EQU   108                                                      91584021
                             00070 16450 DX112    EQU   112                                                      91590021
                             00070 16451 NX112    EQU   112                                                      91596021
                             00074 16452 DX116    EQU   116                                                      91602021
                             00078 16453 DX120    EQU   120                                                      91608021
                             00080 16454 DX128    EQU   128                                                      91614021
                             000A0 16455 LX160    EQU   160                      LENGTH OF PCI AND CI            91620021
                             0008C 16456 DX140    EQU   140                                                      91626021
                             0008E 16457 DX142    EQU   142                                                      91632021
                             0008F 16458 DX143    EQU   143                                                      91638021
                             00092 16459 DX146    EQU   146                                                      91644021
                             00093 16460 DX147    EQU   147                                                      91650021
                             0009C 16461 DX156    EQU   156                                                      91656021
                             000FF 16462 DX255    EQU   255                                                      91662021
                             00100 16463 DX256    EQU   256                                                      91668021
                             00000 16464 XX0      EQU   X'00'                                                    91674021
                             0004B 16465 XX4B     EQU   X'4B'                                                    91680021
                             00008 16466 XX08     EQU   X'08'                                                    91686021
1PH20     IKFCBL20                                                                                              PAGE  369
-  LOC  OBJECT CODE    ADDR1 ADDR2  STMT   SOURCE STATEMENT                                       ASM 0201 11.03 02/14/15
0                            00010 16467 XX10     EQU   X'10'                                                    91692021
                             0005B 16468 XX5B     EQU   X'5B'                                                    91698021
                             000FF 16469 XXFF     EQU   X'FF'                                                    91704021
                             00002 16470 XX02     EQU   X'02'                                                    91710021
                             00000 16471 XX00     EQU   X'00'                                                    91716021
                             00004 16472 XX04     EQU   X'04'                                                    91722021
                             00028 16473 XX28     EQU   X'28'                                                    91728021
                             00029 16474 XX29     EQU   X'29'                                              44686 91734021
                             000FD 16475 XXFD     EQU   X'FD'                                                    91740021
                             00042 16476 XX42     EQU   X'42'                                                    91746021
                             00003 16477 XX03     EQU   X'03'                                                    91752021
                             00001 16478 XX01     EQU   X'01'                                                    91758021
                             00012 16479 XX12     EQU   X'12'                                                    91764021
                             00038 16480 XX38     EQU   X'38'                                                    91770021
                             00036 16481 XX36     EQU   X'36'                                                    91776021
                             00032 16482 XX32     EQU   X'32'                                                    91782021
                             00080 16483 XX80     EQU   X'80'                                                    91788021
                             00005 16484 XX05     EQU   X'05'                                                    91794021
                             00040 16485 XX40     EQU   X'40'                                                    91800021
                             000BF 16486 XXBF     EQU   X'BF'                                                    91806021
                             0000C 16487 XX0C     EQU   X'0C'                                                    91812021
                             00020 16488 XX20     EQU   X'20'                                                    91818021
                             00044 16489 XX44     EQU   X'44'                                                    91824021
                             0000F 16490 XX0F     EQU   X'0F'                                                    91830021
                             00089 16491 XX89     EQU   X'89'                                                    91836021
                             00006 16492 XX06     EQU   X'06'                                                    91842021
                             00034 16493 XX34     EQU   X'34'                                                    91848021
                             0008E 16494 XX8E     EQU   X'8E'                                                    91854021
                             000F0 16495 XXF0     EQU   X'F0'                                                    91860021
                             00030 16496 XX30     EQU   X'30'                                                    91866021
                             000C8 16497 XXC8     EQU   X'C8'                                                    91872021
                             000FB 16498 XXFB     EQU   X'FB'                                                    91878021
                             0002C 16499 XX2C     EQU   X'2C'                                                    91884021
                             0007F 16500 XX7F     EQU   X'7F'                                                    91890021
                             00039 16501 XX39     EQU   X'39'                                                    91896021
                             00031 16502 XX31     EQU   X'31'                                                    91902021
                             000FE 16503 XXFE     EQU   X'FE'                                                    91908021
                             00033 16504 XX33     EQU   X'33'                                                    91914021
                             000F1 16505 XXF1     EQU   X'F1'                                                    91920021
                             000C7 16506 XXC7     EQU   X'C7'                                                    91926021
                             000CC 16507 XXCC     EQU   X'CC'                                                    91932021
                             00007 16508 XX07     EQU   X'07'                                                    91938021
                             00070 16509 XX70     EQU   X'70'                                                    91944021
                             000E2 16510 XXE2     EQU   X'E2'                                                    91950021
                             000F9 16511 XXF9     EQU   X'F9'                                                    91956021
                             000A0 16512 XXA0     EQU   X'A0'                                                    91962021
                             000DF 16513 XXDF     EQU   X'DF'                                                    91968021
                             000C0 16514 XXC0     EQU   X'C0'                                                    91974021
                             0004D 16515 XX4D     EQU   X'4D'                                                    91980021
                             0005D 16516 XX5D     EQU   X'5D'                                                    91986021
                             00023 16517 XX23     EQU   X'23'                                                    91992021
                             0000E 16518 XX0E     EQU   X'0E'                                                    91998021
                             000E4 16519 XXE4     EQU   X'E4'                                                    92004021
                             0003F 16520 XX3F     EQU   X'3F'                                                    92010021
                             00022 16521 XX22     EQU   X'22'                                                    92016021
1PH20     IKFCBL20                                                                                              PAGE  370
-  LOC  OBJECT CODE    ADDR1 ADDR2  STMT   SOURCE STATEMENT                                       ASM 0201 11.03 02/14/15
0                            0000A 16522 XX0A     EQU   X'0A'                                                    92022021
                             0001F 16523 XX1F     EQU   X'1F'                                                    92028021
                             00090 16524 XX90     EQU   X'90'                                                    92034021
                             000E6 16525 XXE6     EQU   X'E6'                                                    92040021
                             000BB 16526 XXBB     EQU   X'BB'                                                    92046021
                             000B0 16527 XXB0     EQU   X'B0'                                                    92052021
                             00084 16528 XX84     EQU   X'84'                                                    92058021
                             0004C 16529 INITSIZE EQU   X'4C'                    SIZE OF CORE-IDX RTN      41095 92064021
                             00098 16530 XX98     EQU   X'98'                                                    92070021
                             000EF 16531 XXEF     EQU   X'EF'                                                    92076021
                             000E0 16532 XXE0     EQU   X'E0'                                                    92082021
                             00009 16533 XX09     EQU   X'09'                                                    92088021
                             00018 16534 XX18     EQU   X'18'                                                    92094021
                             000E7 16535 XXE7     EQU   X'E7'                                                    92100021
                             0002F 16536 XX2F     EQU   X'2F'                                                    92106021
                             000F2 16537 XXF2     EQU   X'F2'                                                    92112021
                             000F8 16538 XXF8     EQU   X'F8'                                                    92118021
                             0008C 16539 XX8C     EQU   X'8C'                                                    92124021
                             000F7 16540 XXF7     EQU   X'F7'                                                    92130021
                             0004E 16541 XX4E     EQU   X'4E'                                                    92136021
                             00060 16542 XX60     EQU   X'60'                                                    92142021
                             00024 16543 XX24     EQU   X'24'                                                    92148021
                             00050 16544 XX50     EQU   X'50'                                                    92154021
                             0000B 16545 XX0B     EQU   X'0B'                                                    92160021
                             00014 16546 XX14     EQU   X'14'                                                    92166021
                             00025 16547 XX25     EQU   X'25'                                                    92172021
                             000D0 16548 XXD0     EQU   X'D0'                                                    92178021
                             00037 16549 XX37     EQU   X'37'                                                    92184021
                             0001C 16550 XX1C     EQU   X'1C'                                                    92190021
                             0006F 16551 XX6F     EQU   X'6F'                                                    92196021
                             0005C 16552 XX5C     EQU   X'5C'                                                    92202021
                             00075 16553 XX75     EQU   X'75'                                                    92208021
                             000C1 16554 XXC1     EQU   X'C1'                                                    92214021
                             000C9 16555 XXC9     EQU   X'C9'                                                    92220021
                             000D1 16556 XXD1     EQU   X'D1'                                                    92226021
                             000D9 16557 XXD9     EQU   X'D9'                                                    92232021
                             000E9 16558 XXE9     EQU   X'E9'                                                    92238021
                             00048 16559 XX48     EQU   X'48'                                                    92244021
                             00062 16560 XX62     EQU   X'62'                                                    92250021
                             00058 16561 XX58     EQU   X'58'                                                    92256021
                             00088 16562 XX88     EQU   X'88'                                                    92262021
                             0004C 16563 XX4C     EQU   X'4C'                                                    92268021
                             000AA 16564 XXAA     EQU   X'AA'                                                    92274021
                             000F0 16565 XC0      EQU   C'0'                                                     92280021
                             000D7 16566 XCP      EQU   C'P'                                                     92286021
                             000F9 16567 XC9      EQU   C'9'                                                     92292021
                             000E2 16568 XCS      EQU   C'S'                                                     92298021
                             000E5 16569 XCV      EQU   C'V'                                                     92304021
                             000C5 16570 XCE      EQU   C'E'                                                     92310021
                             000E9 16571 XCZ      EQU   C'Z'                                                     92316021
                             000C2 16572 XCB      EQU   C'B'                                                     92322021
                             000C3 16573 XCC      EQU   C'C'                                                     92328021
                             000E7 16574 XCX      EQU   C'X'                                                     92334021
                             000C1 16575 XCA      EQU   C'A'                                                     92340021
                             000F8 16576 XC8      EQU   C'8'                                                     92346021
1PH20     IKFCBL20                                                                                              PAGE  371
-  LOC  OBJECT CODE    ADDR1 ADDR2  STMT   SOURCE STATEMENT                                       ASM 0201 11.03 02/14/15
0                            000F7 16577 XC7      EQU   C'7'                                                     92352021
                             000F6 16578 XC6      EQU   C'6'                                                     92358021
                             000C4 16579 XCD      EQU   C'D'                                                     92364021
                             000D9 16580 XCR      EQU   C'R'                                                     92370021
                             00000 16581 M0       EQU   0                                                        92376021
                             00001 16582 M1       EQU   1                                                        92382021
                             00002 16583 M2       EQU   2                                                        92388021
                             00004 16584 M4       EQU   4                                                        92394021
                             00007 16585 M7       EQU   7                                                        92400021
                             00008 16586 M8       EQU   8                                                        92406021
                             0000F 16587 M15      EQU   15                                                       92412021
 000878                            16588        END     BEGIN                                                    92418021
1PH20                                              RELOCATION DICTIONARY                                        PAGE  372
-POS.ID   REL.ID   FLAGS   ADDRESS                                                                ASM 0201 11.03 02/14/15
0 0001     0001      0C     000210
  0001     0001      0C     000214
  0001     0001      0C     000218
  0001     0001      0C     00021C
  0001     0001      0C     000220
  0001     0001      0C     000224
  0001     0001      0C     0002D0
  0001     0001      0C     00036C
  0001     0001      0C     00062C
  0001     0001      0C     0007A8
  0001     0001      0C     000870
  0002     0004      0C     001404
  0002     0015      0C     000884
  0004     0002      0C     001A44
  0004     0002      0C     001A48
  0004     0002      0C     001B1C
  0004     0002      0C     001B20
  0004     0002      0C     001B24
  0005     0002      0C     001BCC
  0007     0002      0C     0037B0
  0007     0007      0C     002FC0
  000E     000D      0C     006F5C
  000F     000E      0C     008510
  000F     0010      0C     0084CC
  0015     0001      0C     00C104
  0015     0001      0C     00C114
  0015     0001      0C     00C11C
  0015     0001      0C     00C120
  0015     0001      0C     00C124
  0015     0001      0C     00C128
  0015     0001      0C     00C12C
  0015     0001      0C     00C130
  0015     0001      0C     00C134
  0015     0001      0C     00C138
  0015     0001      0C     00C13C
  0015     0001      0C     00C1A8
  0015     0002      08     00B665
  0015     0002      08     00B669
  0015     0002      08     00B66D
  0015     0002      08     00B671
  0015     0002      0C     00C118
  0015     0002      0C     00C1C4
  0015     0002      0C     00C1DC
  0015     0002      0C     00C208
  0015     0002      0C     00C20C
  0015     0003      0C     00C0E8
  0015     0003      0C     00C1CC
  0015     0004      0C     00B9FC
  0015     0005      0C     00C21C
  0015     0005      0C     00C220
  0015     0006      0C     00BA34
  0015     0006      0C     00C110
  0015     0006      0C     00C1C8
  0015     0006      0C     00C1D4
  0015     0006      0C     00C1D8
1PH20                                              RELOCATION DICTIONARY                                        PAGE  373
-POS.ID   REL.ID   FLAGS   ADDRESS                                                                ASM 0201 11.03 02/14/15
0 0015     0006      0C     00C1F8
  0015     0006      0C     00C214
  0015     0007      0C     00C0C8
  0015     0007      0C     00C1C0
  0015     0008      0C     00B6C0
  0015     0008      0C     00B6E0
  0015     0008      0C     00B700
  0015     0008      0C     00B720
  0015     0008      0C     00B740
  0015     0008      0C     00B760
  0015     0008      0C     00B780
  0015     0008      0C     00B914
  0015     0008      0C     00B918
  0015     0008      0C     00B91C
  0015     0008      0C     00B924
  0015     0008      0C     00C0CC
  0015     0008      0C     00C0D0
  0015     0008      0C     00C0EC
  0015     0008      0C     00C0FC
  0015     0008      0C     00C178
  0015     0008      0C     00C210
  0015     0008      0C     00C218
  0015     0009      08     00B62D
  0015     0009      08     00B631
  0015     0009      08     00B635
  0015     0009      08     00B639
  0015     0009      08     00B63D
  0015     0009      08     00B641
  0015     0009      08     00B645
  0015     0009      08     00B649
  0015     0009      08     00B64D
  0015     0009      08     00B651
  0015     0009      08     00B655
  0015     0009      08     00B659
  0015     0009      08     00B65D
  0015     0009      08     00B661
  0015     0009      0C     00B920
  0015     0009      0C     00B928
  0015     0009      0C     00B930
  0015     000A      0C     00B92C
  0015     000B      0C     00C100
  0015     000B      0C     00C1B8
  0015     000B      0C     00C1BC
  0015     000C      0C     00C108
  0015     000C      0C     00C10C
  0015     000C      0C     00C160
  0015     000C      0C     00C164
  0015     000C      0C     00C168
  0015     000D      0C     00C14C
  0015     000D      0C     00C150
  0015     000D      0C     00C154
  0015     000D      0C     00C158
  0015     000D      0C     00C15C
  0015     000E      0C     00C0F4
  0015     000E      0C     00C16C
1PH20                                              RELOCATION DICTIONARY                                        PAGE  374
-POS.ID   REL.ID   FLAGS   ADDRESS                                                                ASM 0201 11.03 02/14/15
0 0015     000E      0C     00C170
  0015     000E      0C     00C174
  0015     000E      0C     00C17C
  0015     000E      0C     00C180
  0015     000E      0C     00C1F4
  0015     000E      0C     00C1FC
  0015     000F      0C     00C144
  0015     000F      0C     00C1E4
  0015     000F      0C     00C1EC
  0015     000F      0C     00C1F0
  0015     0010      0C     00C140
  0015     0010      0C     00C148
  0015     0011      0C     00C184
  0015     0012      0C     00C194
  0015     0013      0C     00C0F0
  0015     0013      0C     00C0F8
  0015     0013      0C     00C188
  0015     0013      0C     00C1E0
  0015     0014      0C     00C18C
  0015     0014      0C     00C19C
  0015     0014      0C     00C1A0
  0015     0014      0C     00C1A4
  0015     0015      0C     00C0B4
  0015     0015      08     00C0B9
  0015     0015      0C     00C190
  0015     0015      0C     00C198
  0015     0015      0C     00C1B4
  0015     0015      0C     00C1D0
  0015     0015      0C     00C200
  0015     0015      0C     00C204
  0015     0015      08     00C23D
  0015     0015      08     00C241
  0015     0015      08     00C50D
  0015     0015      08     00C511

1PH20                                              ASSEMBLER DIAGNOSTICS AND STATISTICS                         PAGE  375
-                                                                                                 ASM 0201 11.03 02/14/15
0NO STATEMENTS FLAGGED IN THIS ASSEMBLY
 HIGHEST SEVERITY WAS    0
 OPTIONS FOR THIS ASSEMBLY
   ALIGN, ALOGIC, BUFSIZE(STD), DECK, ESD, FLAG(0), LINECOUNT(55), LIST, NOMCALL, YFLAG, WORKSIZE(2097152)
   NOMLOGIC, NONUMBER, NOOBJECT, NORENT, RLD, NOSTMT, NOLIBMAC, NOTERMINAL, NOTEST, NOXREF(SHORT)
   SYSPARM()
 WORK FILE BUFFER SIZE/NUMBER = 2558/ 1
 TOTAL RECORDS READ FROM SYSTEM INPUT      15403
 TOTAL RECORDS READ FROM SYSTEM LIBRARY     1315
 TOTAL RECORDS PUNCHED                       949
 TOTAL RECORDS PRINTED                     17490
